00COTAHIST.2024BOVESPA 20240628                                                                                                                                                                                                                      
012024062802BSLI3       010BRB BANCO   ON           R$  000000000095800000000009580000000000950000000000095500000000009500000000000922000000000095900002000000000000000300000000000000286600000000000000009999123100000010000000000000BRBSLIACNOR5194
012024062802BSLI4       010BRB BANCO   PN           R$  000000000102900000000010290000000001029000000000102900000000010290000000000942000000000103000001000000000000000100000000000000102900000000000000009999123100000010000000000000BRBSLIACNPR2194
012024062802CTKA4       010KARSTEN     PN           R$  000000000165000000000016500000000001650000000000165000000000016500000000001530000000000165000001000000000000000100000000000000165000000000000000009999123100000010000000000000BRCTKAACNPR7043
012024062802CURY3       010CURY S/A    ON      NM   R$  000000000206500000000020860000000002053000000000206800000000020600000000002060000000000207207553000000000001362800000000002819519000000000000000009999123100000010000000000000BRCURYACNOR3109
012024062802CVCB3       010CVC BRASIL  ON  ATZ NM   R$  000000000019900000000002010000000000192000000000019700000000001960000000000196000000000019705072000000000010277900000000002025302400000000000000009999123100000010000000000000BRCVCBACNOR1116
012024062802GSHP3       010GENERALSHOPPON           R$  000000000105000000000010500000000001050000000000105000000000010500000000001050000000000110000001000000000000000200000000000000210000000000000000009999123100000010000000000000BRGSHPACNOR7102
012024062802GUAR3       010GUARARAPES  ON      NM   R$  000000000069300000000007180000000000678000000000070000000000006960000000000694000000000069805726000000000001754800000000001229018200000000000000009999123100000010000000000000BRGUARACNOR4173
012024062802HAGA3       010HAGA S/A    ON           R$  000000000025400000000002660000000000254000000000025700000000002550000000000254000000000025500024000000000000005200000000000001339400000000000000009999123100000010000000000000BRHAGAACNOR7103
012024062802HAGA4       010HAGA S/A    PN           R$  000000000011700000000001170000000000114000000000011400000000001140000000000114000000000011700017000000000000009100000000000001043500000000000000009999123100000010000000000000BRHAGAACNPR4103
012024062802CXSE3       010CAIXA SEGURION      NM   R$  000000000143100000000014380000000001417000000000142900000000014310000000001430000000000143408220000000000002472400000000003533215000000000000000009999123100000010000000000000BRCXSEACNOR7106
012024062802ENAT3       010ENAUTA PART ON      NM   R$  000000000221300000000022330000000002168000000000219100000000021940000000002180000000000219506843000000000001706900000000003740676000000000000000009999123100000010000000000000BRENATACNOR0104
012024062802LUPA3       010LUPATECH    ON      NM   R$  000000000015600000000001580000000000152000000000015500000000001560000000000156000000000015700151000000000000096200000000000014965700000000000000009999123100000010000000000000BRLUPAACNOR8112
012024062802LVTC3       010WDC NETWORKSON      NM   R$  000000000034600000000003570000000000343000000000035200000000003570000000000345000000000035500029000000000000017200000000000006069300000000000000009999123100000010000000000000BRLVTCACNOR4102
012024062802LWSA3       010LWSA        ON      NM   R$  000000000041500000000004160000000000401000000000040400000000004050000000000405000000000040606953000000000004580200000000001854390000000000000000009999123100000010000000000000BRLWSAACNOR8103
012024062802PLAS3       010PLASCAR PARTON           R$  000000000050000000000005000000000000499000000000049900000000005000000000000500000000000057900003000000000000000300000000000000149900000000000000009999123100000010000000000000BRPLASACNOR2106
012024062802PLPL3       010PLANOEPLANO ON      NM   R$  000000000107200000000010720000000001018000000000103900000000010300000000001030000000000103403061000000000000928700000000000965055400000000000000009999123100000010000000000000BRPLPLACNOR5104
012024062802PNVL3       010DIMED       ON  EJ  NM   R$  000000000098900000000009890000000000954000000000096700000000009670000000000967000000000097101422000000000000360000000000000348388700000000000000009999123100000010000000000000BRPNVLACNOR9207
012024062802POMO3       010MARCOPOLO   ON      N2   R$  000000000050200000000005090000000000494000000000050100000000004940000000000494000000000049901530000000000000266900000000000133897400000000000000009999123100000010000000000000BRPOMOACNOR0098
012024062802POMO4       010MARCOPOLO   PN      N2   R$  000000000065000000000006540000000000634000000000064000000000006350000000000635000000000063717186000000000005900900000000003782037400000000000000009999123100000010000000000000BRPOMOACNPR7098
012024062802PORT3       010WILSON SONS ON      NM   R$  000000000152300000000015310000000001505000000000151900000000015200000000001520000000000152701183000000000000283400000000000430549500000000000000009999123100000010000000000000BRPORTACNOR8108
012024062802POSI3       010POSITIVO TECON      NM   R$  000000000081700000000008210000000000779000000000079500000000007850000000000785000000000078603280000000000001525700000000001213103500000000000000009999123100000010000000000000BRPOSIACNOR9116
012024062802PRIO3       010PETRORIO    ON      NM   R$  000000000433200000000044150000000004315000000000438000000000043760000000004375000000000437722735000000000007321400000000032071476300000000000000009999123100000010000000000000BRPRIOACNOR1106
012024062802SBFG3       010GRUPO SBF   ON      NM   R$  000000000122900000000012290000000001185000000000120000000000012000000000001199000000000120904162000000000001765900000000002119747200000000000000009999123100000010000000000000BRSBFGACNOR1103
012024062802SBSP3       010SABESP      ON      NM   R$  000000000730000000000075460000000007236000000000744600000000074970000000007489000000000749928736000000000008851000000000065912981400000000000000009999123100000010000000000000BRSBSPACNOR5161
012024062802SCAR3       010SAO CARLOS  ON      NM   R$  000000000243900000000024390000000002265000000000236200000000024300000000002200000000000243000276000000000000076300000000000180264300000000000000009999123100000010000000000000BRSCARACNOR7131
012024062802SEER3       010SER EDUCA   ON      NM   R$  000000000050500000000005070000000000481000000000049100000000004810000000000481000000000048201144000000000000574400000000000282081800000000000000009999123100000010000000000000BRSEERACNOR5119
012024062802SEQL3       010SEQUOIA LOG ON      NM   R$  000000000044500000000004640000000000424000000000044100000000004410000000000441000000000044200759000000000000292200000000000129007600000000000000009999123100000010000000000000BRSEQLACNOR2103
012024062802RSUL4       010RIOSULENSE  PN           R$  000000000696700000000069670000000006850000000000690800000000068500000000006777000000000699000002000000000000000200000000000001381700000000000000009999123100000010000000000000BRRSULACNPR3114
012024062802VALE3       010VALE        ON      NM   R$  000000000616800000000062550000000006164000000000622400000000062220000000006222000000000623047577000000000022429400000000139616814100000000000000009999123100000010000000000000BRVALEACNOR0210
012024062802PFRM3       010PROFARMA    ON      NM   R$  000000000052900000000005300000000000518000000000052200000000005220000000000517000000000052200424000000000000111500000000000058259200000000000000009999123100000010000000000000BRPFRMACNOR1116
012024062802PGMN3       010PAGUE MENOS ON      NM   R$  000000000025700000000002600000000000247000000000025200000000002550000000000251000000000025501115000000000000727300000000000183949000000000000000009999123100000010000000000000BRPGMNACNOR8103
012024062802PINE3       010PINE        ON      N2   R$  000000000052000000000005200000000000520000000000052000000000005200000000000517000000000056000003000000000000001100000000000000572000000000000000009999123100000010000000000000BRPINEACNOR1149
012024062802PINE4       010PINE        PN      N2   R$  000000000041600000000004200000000000409000000000041500000000004140000000000414000000000041500559000000000000154700000000000064300800000000000000009999123100000010000000000000BRPINEACNPR8149
012024062802UCAS3       010UNICASA     ON      NM   R$  000000000021600000000002160000000000213000000000021400000000002150000000000214000000000021500083000000000000032200000000000006907500000000000000009999123100000010000000000000BRUCASACNOR1113
012024062802UGPA3       010ULTRAPAR    ON      NM   R$  000000000219600000000021960000000002160000000000216800000000021600000000002159000000000216113316000000000003528100000000007651729400000000000000009999123100000010000000000000BRUGPAACNOR8155
012024062802UNIP3       010UNIPAR      ON           R$  000000000485000000000049130000000004756000000000485400000000047560000000004756000000000490400087000000000000012400000000000060195000000000000000009999123100000010000000000000BRUNIPACNOR7206
012024062802UNIP5       010UNIPAR      PNA          R$  000000000500100000000050050000000004970000000000499400000000049700000000004970000000000502500008000000000000001300000000000006492700000000000000009999123100000010000000000000BRUNIPACNPA0208
012024062802UNIP6       010UNIPAR      PNB          R$  000000000491000000000049820000000004872000000000491400000000048790000000004878000000000489001285000000000000179000000000000879681900000000000000009999123100000010000000000000BRUNIPACNPB8206
012024062802USIM3       010USIMINAS    ON      N1   R$  000000000077200000000007810000000000762000000000077000000000007630000000000760000000000076301149000000000000440800000000000339487000000000000000009999123100000010000000000000BRUSIMACNOR3167
012024062802USIM5       010USIMINAS    PNA     N1   R$  000000000079900000000008140000000000791000000000079900000000007910000000000791000000000079220429000000000009087500000000007263657300000000000000009999123100000010000000000000BRUSIMACNPA6169
012024062802WEST3       010WESTWING    ON      NM   R$  000000000008600000000000880000000000085000000000008600000000000870000000000086000000000008700031000000000000017800000000000001536600000000000000009999123100000010000000000000BRWESTACNOR3100
012024062802WHRL3       010WHIRLPOOL   ON           R$  000000000044200000000004490000000000442000000000044600000000004430000000000442000000000044900004000000000000000500000000000000223200000000000000009999123100000010000000000000BRWHRLACNOR5128
012024062802WHRL4       010WHIRLPOOL   PN           R$  000000000044600000000004550000000000446000000000045400000000004550000000000455000000000045700015000000000000061700000000000028069500000000000000009999123100000010000000000000BRWHRLACNPR2128
012024062802WIZC3       010WIZ CO      ON      NM   R$  000000000058800000000005880000000000571000000000057600000000005710000000000570000000000057202003000000000000337600000000000194666200000000000000009999123100000010000000000000BRWIZCACNOR5102
012024062802WLMM4       010WLM IND COM PN           R$  000000000314000000000031400000000003140000000000314000000000031400000000003056000000000324700001000000000000000100000000000000314000000000000000009999123100000010000000000000BRWLMMACNPR3118
012024062802SHOW3       010TIME FOR FUNON      NM   R$  000000000015200000000001540000000000147000000000014800000000001470000000000147000000000014800372000000000000261000000000000038829600000000000000009999123100000010000000000000BRSHOWACNOR7105
012024062802SHUL4       010SCHULZ      PN  EJ       R$  000000000061000000000006100000000000598000000000060200000000005990000000000599000000000060201361000000000000328600000000000197988800000000000000009999123100000010000000000000BRSHULACNPR4156
012024062802SIMH3       010SIMPAR      ON      NM   R$  000000000055700000000005610000000000530000000000053700000000005330000000000533000000000053405984000000000003882700000000002087474500000000000000009999123100000010000000000000BRSIMHACNOR0107
012024062802SLCE3       010SLC AGRICOLAON      NM   R$  000000000175700000000017660000000001745000000000175300000000017450000000001745000000000175005576000000000003949900000000006925223300000000000000009999123100000010000000000000BRSLCEACNOR2125
012024062802ROMI3       010ROMI        ON      NM   R$  000000000106000000000010620000000001046000000000105500000000010470000000001047000000000105000759000000000000253900000000000268021800000000000000009999123100000010000000000000BRROMIACNOR8195
012024062802RPAD5       010ALFA HOLDINGPNA          R$  000000000086100000000008610000000000860000000000086000000000008600000000000851000000000089500002000000000000000900000000000000774100000000000000009999123100000010000000000000BRRPADACNPA4218
012024062802RRRP3       0103R PETROLEUMON      NM   R$  000000000275300000000027680000000002696000000000273400000000027480000000002747000000000274809670000000000002986800000000008167236400000000000000009999123100000010000000000000BRRRRPACNOR5103
012024062802TFCO4       010TRACK FIELD PN  EJ  N2   R$  000000000108900000000010890000000001060000000000106700000000010710000000001070000000000107300453000000000000300800000000000321097300000000000000009999123100000010000000000000BRTFCOACNPR8114
012024062802TGMA3       010TEGMA       ON      NM   R$  000000000244200000000024470000000002420000000000243600000000024440000000002432000000000244400737000000000000132100000000000321802900000000000000009999123100000010000000000000BRTGMAACNOR7144
012024062802TIMS3       010TIM         ON  EJ  NM   R$  000000000158700000000015990000000001573000000000158800000000015880000000001588000000000158914174000000000006010500000000009545074800000000000000009999123100000010000000000000BRTIMSACNOR5117
012024062802TOTS3       010TOTVS       ON      NM   R$  000000000309000000000030930000000003017000000000305600000000030430000000003041000000000305314969000000000004083100000000012480282100000000000000009999123100000010000000000000BRTOTSACNOR8144
012024062802TPIS3       010TRIUNFO PARTON      NM   R$  000000000037900000000003790000000000371000000000037400000000003710000000000371000000000037200054000000000000018600000000000006958700000000000000009999123100000010000000000000BRTPISACNOR8118
012024062802TRAD3       010TC          ON      NM   R$  000000000005800000000000580000000000052000000000005300000000000530000000000052000000000005300496000000000002333800000000000125261500000000000000009999123100000010000000000000BRTRADACNOR3101
012024062802TRIS3       010TRISUL      ON      NM   R$  000000000048400000000004930000000000473000000000048200000000004850000000000480000000000048501249000000000000621500000000000299854900000000000000009999123100000010000000000000BRTRISACNOR4118
012024062802TRPL3       010TRAN PAULISTON      N1   R$  000000000342100000000034210000000003409000000000341600000000034090000000003331000000000342200008000000000000000800000000000002733200000000000000009999123100000010000000000000BRTRPLACNOR4185
012024062802TRPL4       010TRAN PAULISTPN      N1   R$  000000000263500000000026480000000002604000000000262200000000026260000000002618000000000262611922000000000002563200000000006722613900000000000000009999123100000010000000000000BRTRPLACNPR1185
012024062802TTEN3       0103TENTOS     ON      NM   R$  000000000100200000000010080000000000981000000000099000000000009880000000000987000000000098804186000000000000877500000000000868761300000000000000009999123100000010000000000000BRTTENACNOR0103
012024062802TUPY3       010TUPY        ON      NM   R$  000000000237900000000023840000000002346000000000236700000000023630000000002362000000000237501579000000000000330500000000000782447600000000000000009999123100000010000000000000BRTUPYACNOR1184
012024062802WEGE3       010WEG         ON      NM   R$  000000000417000000000042190000000004135000000000419200000000042190000000004215000000000421925585000000000011180100000000046867443200000000000000009999123100000010000000000000BRWEGEACNOR0222
012024062802SYNE3       010SYN PROP TECON      NM   R$  000000000092500000000009320000000000905000000000091700000000009150000000000915000000000091900851000000000000207600000000000190440200000000000000009999123100000010000000000000BRSYNEACNOR2102
012024062802CEDO4       010CEDRO       PN      N1   R$  000000000224100000000022410000000002241000000000224100000000022410000000002241000000000241500003000000000000000300000000000000672300000000000000009999123100000010000000000000BRCEDOACNPR5128
012024062802CEEB3       010COELBA      ON  EJ       R$  000000000395000000000039500000000003950000000000395000000000039500000000003904000000000399000001000000000000000200000000000000790000000000000000009999123100000010000000000000BRCEEBACNOR3199
012024062802CGAS3       010COMGAS      ON           R$  000000001050000000000105000000000010500000000001050000000000105000000000010405000000001120000002000000000000000200000000000002100000000000000000009999123100000010000000000000BRCGASACNOR0163
012024062802CGAS5       010COMGAS      PNA          R$  000000001150000000000116000000000011265000000001149000000000114900000000011115000000001138000005000000000000000600000000000006894500000000000000009999123100000010000000000000BRCGASACNPA3160
012024062802CGRA3       010GRAZZIOTIN  ON  EJ       R$  000000000251000000000025100000000002479000000000250100000000024790000000002449000000000250900004000000000000000700000000000001750800000000000000009999123100000010000000000000BRCGRAACNOR2083
012024062802CGRA4       010GRAZZIOTIN  PN  EJ       R$  000000000259900000000025990000000002530000000000256300000000025300000000002525000000000254000017000000000000001900000000000004870600000000000000009999123100000010000000000000BRCGRAACNPR9083
012024062802CYRE3       010CYRELA REALTON      NM   R$  000000000192900000000019570000000001878000000000190300000000018850000000001884000000000188919680000000000005918000000000011263264300000000000000009999123100000010000000000000BRCYREACNOR7140
012024062802TAEE11      010TAESA       UNT     N2   R$  000000000341700000000034430000000003410000000000342100000000034230000000003420000000000342306229000000000001245000000000004260150600000000000000009999123100000010000000000000BRTAEECDAM10147
012024062802TAEE3       010TAESA       ON      N2   R$  000000000113200000000011350000000001128000000000113200000000011320000000001132000000000113300610000000000000113200000000000128206600000000000000009999123100000010000000000000BRTAEEACNOR9147
012024062802TAEE4       010TAESA       PN      N2   R$  000000000114600000000011610000000001143000000000114700000000011460000000001146000000000114700945000000000000222300000000000255071400000000000000009999123100000010000000000000BRTAEEACNPR6147
012024062802TASA3       010TAURUS ARMASON      N2   R$  000000000116900000000011790000000001161000000000116800000000011680000000001167000000000117500061000000000000009700000000000011338500000000000000009999123100000010000000000000BRTASAACNOR7104
012024062802TASA4       010TAURUS ARMASPN      N2   R$  000000000114200000000011580000000001125000000000114500000000011470000000001141000000000114802004000000000000327500000000000375116600000000000000009999123100000010000000000000BRTASAACNPR4104
012024062802TCSA3       010TECNISA     ON      NM   R$  000000000019900000000002000000000000195000000000019700000000001950000000000195000000000019700101000000000000033700000000000006665800000000000000009999123100000010000000000000BRTCSAACNOR3112
012024062802TECN3       010TECHNOS     ON      NM   R$  000000000046500000000004690000000000452000000000045800000000004530000000000453000000000045500238000000000000055800000000000025580800000000000000009999123100000010000000000000BRTECNACNOR6109
012024062802TELB4       010TELEBRAS    PN           R$  000000000088700000000008890000000000883000000000088500000000008860000000000885000000000088700010000000000000001100000000000000973600000000000000009999123100000010000000000000BRTELBACNPR9140
012024062802TEND3       010TENDA       ON      NM   R$  000000000109100000000011000000000001049000000000106600000000010750000000001072000000000107504401000000000001829000000000001950818900000000000000009999123100000010000000000000BRTENDACNOR4111
012024062802DASA3       010DASA        ON      NM   R$  000000000028700000000002890000000000275000000000028100000000002770000000000277000000000027901581000000000000843100000000000237633000000000000000009999123100000010000000000000BRDASAACNOR1122
012024062802VITT3       010VITTIA      ON      NM   R$  000000000060800000000006080000000000576000000000058800000000005840000000000584000000000058801776000000000000628100000000000369804800000000000000009999123100000010000000000000BRVITTACNOR4107
012024062802ABEV3       010AMBEV S/A   ON           R$  000000000114300000000011480000000001116000000000113500000000011410000000001140000000000114147107000000000051418600000000058370227000000000000000009999123100000010000000000000BRABEVACNOR1127
012024062802VIVA3       010VIVARA S.A. ON      NM   R$  000000000210700000000021220000000002070000000000209700000000020940000000002090000000000209410174000000000002222100000000004661648400000000000000009999123100000010000000000000BRVIVAACNOR0107
012024062802VIVR3       010VIVER       ON  ES  NM   R$  000000000023400000000002380000000000231000000000023500000000002320000000000232000000000023400127000000000000058600000000000013813100000000000000009999123100000010000000000000BRVIVRACNOR4123
012024062802VIVT3       010TELEF BRASILON  EJ       R$  000000000458000000000045980000000004534000000000455300000000045340000000004534000000000455509051000000000002476900000000011278941800000000000000009999123100000010000000000000BRVIVTACNOR0182
012024062802VLID3       010VALID       ON      NM   R$  000000000153300000000015330000000001495000000000151500000000015220000000001510000000000152201832000000000000284800000000000431581600000000000000009999123100000010000000000000BRVLIDACNOR5143
012024062802VSTE3       010VESTE       ON      NM   R$  000000000171000000000017520000000001700000000000171100000000017100000000001703000000000171000216000000000000134900000000000230899300000000000000009999123100000010000000000000BRVSTEACNOR5103
012024062802VTRU3       010VITRUEDUCA  ON      NM   R$  000000000129900000000013610000000001270000000000130200000000012730000000001273000000000131000419000000000000086000000000000111973400000000000000009999123100000010000000000000BRVTRUACNOR3100
012024062802VULC3       010VULCABRAS   ON      NM   R$  000000000148600000000014910000000001453000000000147800000000014790000000001478000000000148302496000000000000543800000000000804100400000000000000009999123100000010000000000000BRVULCACNOR2159
012024062802VVEO3       010VIVEO       ON      NM   R$  000000000023300000000002430000000000222000000000022800000000002240000000000223000000000022402682000000000001734900000000000395917100000000000000009999123100000010000000000000BRVVEOACNOR0104
012024062802RANI3       010IRANI       ON      NM   R$  000000000084000000000008540000000000839000000000084600000000008470000000000846000000000084903636000000000000885600000000000749242000000000000000009999123100000010000000000000BRRANIACNOR5072
012024062802RAPT3       010RANDON PART ON      N1   R$  000000000094700000000009490000000000920000000000092800000000009360000000000927000000000093600127000000000000057300000000000053195000000000000000009999123100000010000000000000BRRAPTACNOR7162
012024062802RAPT4       010RANDON PART PN      N1   R$  000000000110000000000011220000000001092000000000110600000000010920000000001092000000000110006605000000000002545400000000002816067300000000000000009999123100000010000000000000BRRAPTACNPR4162
012024062802CSUD3       010CSU DIGITAL ON      NM   R$  000000000186500000000018650000000001830000000000184700000000018610000000001846000000000186100152000000000000023800000000000043980800000000000000009999123100000010000000000000BRCSUDACNOR5109
012024062802FESA3       010FERBASA     ON      N1   R$  000000000140200000000014020000000001402000000000140200000000014020000000001409000000000145000001000000000000000100000000000000140200000000000000009999123100000010000000000000BRFESAACNOR8188
012024062802FESA4       010FERBASA     PN      N1   R$  000000000081100000000008230000000000806000000000081200000000008070000000000807000000000081202370000000000000792200000000000643915300000000000000009999123100000010000000000000BRFESAACNPR5084
012024062802FHER3       010FER HERINGERON      NM   R$  000000000037600000000003800000000000376000000000037800000000003790000000000379000000000038000020000000000000004400000000000001666200000000000000009999123100000010000000000000BRFHERACNOR5103
012024062802FIEI3       010FICA        ON           R$  000000000105000000000010500000000001050000000000105000000000010500000000000955000000000125000002000000000000000500000000000000525000000000000000009999123100000010000000000000BRFIEIACNOR2100
012024062802ITSA3       010ITAUSA      ON  EJ  N1   R$  000000000098600000000009920000000000973000000000098000000000009840000000000980000000000098500358000000000000104800000000000102727000000000000000009999123100000010000000000000BRITSAACNOR0441
012024062802ITSA4       010ITAUSA      PN  EJ  N1   R$  000000000098300000000009870000000000971000000000097800000000009820000000000981000000000098226071000000000024091300000000023569440200000000000000009999123100000010000000000000BRITSAACNPR7441
012024062802BEES3       010BANESTES    ON  EJ       R$  000000000089700000000008970000000000890000000000089300000000008970000000000890000000000089800072000000000000014100000000000012603000000000000000009999123100000010000000000000BRBEESACNOR9392
012024062802BEES4       010BANESTES    PN  EJ       R$  000000000097900000000009800000000000970000000000097600000000009740000000000962000000000097400036000000000000007200000000000007031800000000000000009999123100000010000000000000BRBEESACNPR6317
012024062802ONCO3       010ONCOCLINICASON      NM   R$  000000000062500000000006680000000000606000000000063600000000006180000000000617000000000061910200000000000005668500000000003609689900000000000000009999123100000010000000000000BRONCOACNOR6101
012024062802JSLG3       010JSL         ON      NM   R$  000000000094200000000009580000000000929000000000094300000000009400000000000931000000000094001828000000000000422500000000000398503400000000000000009999123100000010000000000000BRJSLGACNOR2121
012024062802CMIG3       010CEMIG       ON  EJ  N1   R$  000000000123000000000012310000000001217000000000122300000000012220000000001222000000000122300680000000000000153000000000000187169800000000000000009999123100000010000000000000BRCMIGACNOR6242
012024062802CMIG4       010CEMIG       PN  EJ  N1   R$  000000000100400000000010040000000000984000000000099000000000009890000000000988000000000098937887000000000021591000000000021383680200000000000000009999123100000010000000000000BRCMIGACNPR3243
012024062802DMVF3       010D1000VFARMA ON      NM   R$  000000000072000000000007330000000000717000000000072600000000007280000000000720000000000072901085000000000000130400000000000094701600000000000000009999123100000010000000000000BRDMVFACNOR9100
012024062802DOHL4       010DOHLER      PN           R$  000000000039900000000003990000000000399000000000039900000000003990000000000374000000000039400001000000000000000100000000000000039900000000000000009999123100000010000000000000BRDOHLACNPR9066
012024062802DOTZ3       010DOTZ SA     ON      NM   R$  000000000066800000000006830000000000632000000000065900000000006320000000000630000000000065500041000000000000010600000000000006992500000000000000009999123100000010000000000000BRDOTZACNOR7101
012024062802DXCO3       010DEXCO       ON      NM   R$  000000000068000000000006850000000000655000000000066000000000006560000000000656000000000065906264000000000002262400000000001495047800000000000000009999123100000010000000000000BRDXCOACNOR8105
012024062802SNSY3       010SANSUY      ON           R$  000000000114000000000012650000000001125000000000119300000000011780000000001177000000000123500030000000000000004500000000000005369000000000000000009999123100000010000000000000BRSNSYACNOR2113
012024062802SNSY5       010SANSUY      PNA          R$  000000000060500000000006190000000000605000000000061400000000006190000000000591000000000061600014000000000000002300000000000001413300000000000000009999123100000010000000000000BRSNSYACNPA5111
012024062802SOJA3       010BOA SAFRA   ON      NM   R$  000000000145900000000014870000000001455000000000147700000000014800000000001477000000000148001711000000000000440000000000000650153400000000000000009999123100000010000000000000BRSOJAACNOR9105
012024062802SOMA3       010GRUPO SOMA  ON      NM   R$  000000000061900000000006280000000000602000000000061300000000006140000000000614000000000061519565000000000012726200000000007804499200000000000000009999123100000010000000000000BRSOMAACNOR3102
012024062802BIOM3       010BIOMM       ON      MA   R$  000000000159400000000016000000000001487000000000155600000000014870000000001487000000000149800706000000000000120200000000000187112700000000000000009999123100000010000000000000BRBIOMACNOR2112
012024062802SRNA3       010SERENA      ON      NM   R$  000000000089000000000009000000000000880000000000088600000000008810000000000880000000000088705224000000000001251900000000001110191500000000000000009999123100000010000000000000BRSRNAACNOR4100
012024062802RCSL3       010RECRUSUL    ON           R$  000000000028500000000002860000000000277000000000028200000000002830000000000282000000000028300355000000000000222000000000000062666800000000000000009999123100000010000000000000BRRCSLACNOR4134
012024062802RCSL4       010RECRUSUL    PN           R$  000000000010700000000001200000000000107000000000011500000000001170000000000116000000000011702505000000000001587600000000000182728400000000000000009999123100000010000000000000BRRCSLACNPR1134
012024062802RDNI3       010RNI         ON      NM   R$  000000000030600000000003120000000000306000000000030900000000003060000000000304000000000030700014000000000000001800000000000000556600000000000000009999123100000010000000000000BRRDNIACNOR9116
012024062802RDOR3       010REDE D OR   ON      NM   R$  000000000271700000000027500000000002672000000000270800000000027200000000002720000000000272127469000000000007852900000000021266581100000000000000009999123100000010000000000000BRRDORACNOR8112
012024062802RECV3       010PETRORECSA  ON      NM   R$  000000000187800000000018820000000001850000000000186200000000018540000000001853000000000185605843000000000001286500000000002395807500000000000000009999123100000010000000000000BRRECVACNOR3107
012024062802VAMO3       010VAMOS       ON      NM   R$  000000000076900000000007740000000000738000000000075200000000007570000000000752000000000075711184000000000005550400000000004174304400000000000000009999123100000010000000000000BRVAMOACNOR7105
012024062802VBBR3       010VIBRA       ON      NM   R$  000000000212100000000021380000000002084000000000209600000000020900000000002090000000000209116125000000000005417400000000011357809500000000000000009999123100000010000000000000BRVBBRACNOR1107
012024062802RAIL3       010RUMO S.A.   ON      NM   R$  000000000209900000000021210000000002054000000000207700000000020720000000002067000000000207229758000000000014621500000000030382625200000000000000009999123100000010000000000000BRRAILACNOR9105
012024062802AERI3       010AERIS       ON      NM   R$  000000000052800000000005320000000000508000000000051500000000005100000000000510000000000051200463000000000000144000000000000074185100000000000000009999123100000010000000000000BRAERIACNOR4102
012024062802AESB3       010AES BRASIL  ON      NM   R$  000000000113800000000011410000000001137000000000113800000000011390000000001138000000000114004068000000000002635400000000003000433700000000000000009999123100000010000000000000BRAESBACNOR7106
012024062802AFLT3       010AFLUENTE T  ON  EJ       R$  000000000071900000000007190000000000719000000000071900000000007190000000000719000000000073000002000000000000000500000000000000359500000000000000009999123100000010000000000000BRAFLTACNOR1122
012024062802AGRO3       010BRASILAGRO  ON      NM   R$  000000000257500000000025870000000002555000000000257000000000025640000000002564000000000257401264000000000000191400000000000491925700000000000000009999123100000010000000000000BRAGROACNOR7114
012024062802AGXY3       010AGROGALAXY  ON      NM   R$  000000000010400000000001050000000000101000000000010300000000001050000000000104000000000010500279000000000000203100000000000021030300000000000000009999123100000010000000000000BRAGXYACNOR4103
012024062802AHEB3       010SPTURIS     ON           R$  000000000310000000000031000000000003100000000000310000000000031000000000002533000000000350000002000000000000000500000000000001550000000000000000009999123100000010000000000000BRAHEBACNOR0106
012024062802CAML3       010CAMIL       ON      NM   R$  000000000082700000000008290000000000812000000000082000000000008250000000000818000000000082502362000000000000717600000000000588678800000000000000009999123100000010000000000000BRCAMLACNOR3128
012024062802CASH3       010MELIUZ      ON      NM   R$  000000000058500000000005940000000000575000000000058400000000005850000000000585000000000058702531000000000001141900000000000667099300000000000000009999123100000010000000000000BRCASHACNOR8106
012024062802CBAV3       010CBA         ON      NM   R$  000000000068300000000007020000000000676000000000069300000000006960000000000695000000000069605071000000000002865200000000001986022100000000000000009999123100000010000000000000BRCBAVACNOR5104
012024062802CBEE3       010AMPLA ENERG ON           R$  000000000100000000000010000000000000970000000000098600000000009700000000000951000000000109900003000000000000000300000000000000296000000000000000009999123100000010000000000000BRCBEEACNOR3159
012024062802CCRO3       010CCR SA      ON      NM   R$  000000000119500000000011950000000001158000000000117000000000011640000000001164000000000116612893000000000006825700000000007988526200000000000000009999123100000010000000000000BRCCROACNOR2145
012024062802CEAB3       010CEA MODAS   ON      NM   R$  000000000097000000000009900000000000932000000000095000000000009340000000000933000000000093604681000000000001597200000000001518928100000000000000009999123100000010000000000000BRCEABACNOR1102
012024062802CEBR3       010CEB         ON           R$  000000000204600000000021000000000002021000000000206700000000021000000000002050000000000210000024000000000000005100000000000010542800000000000000009999123100000010000000000000BRCEBRACNOR5125
012024062802CEBR5       010CEB         PNA          R$  000000000183400000000018340000000001824000000000182600000000018250000000001810000000000183000006000000000000000700000000000001278200000000000000009999123100000010000000000000BRCEBRACNPA8124
012024062802CEBR6       010CEB         PNB          R$  000000000198600000000019860000000001960000000000196500000000019630000000001963000000000199900010000000000000001100000000000002162500000000000000009999123100000010000000000000BRCEBRACNPB6124
012024062802CEDO3       010CEDRO       ON      N1   R$  000000000267500000000026750000000002675000000000267500000000026750000000000002000000000293600001000000000000000100000000000000267500000000000000009999123100000010000000000000BRCEDOACNOR8096
012024062802DESK3       010DESKTOP     ON      NM   R$  000000000154700000000016000000000001480000000000153900000000015300000000001529000000000153101567000000000000613600000000000944504300000000000000009999123100000010000000000000BRDESKACNOR2104
012024062802DEXP3       010DEXXOS PAR  ON      N1   R$  000000000103500000000010680000000001035000000000105100000000010480000000001048000000000105202252000000000000347500000000000365487000000000000000009999123100000010000000000000BRDEXPACNOR1105
012024062802DEXP4       010DEXXOS PAR  PN      N1   R$  000000000102400000000010260000000001024000000000102500000000010260000000001016000000000102500005000000000000006300000000000006459400000000000000009999123100000010000000000000BRDEXPACNPR8105
012024062802DIRR3       010DIRECIONAL  ON      NM   R$  000000000267500000000027030000000002643000000000266600000000026590000000002657000000000266009625000000000002180300000000005812957200000000000000009999123100000010000000000000BRDIRRACNOR0117
012024062802ENEV3       010ENEVA       ON      NM   R$  000000000130300000000013150000000001264000000000127700000000012700000000001269000000000127521763000000000009150100000000011688713700000000000000009999123100000010000000000000BRENEVACNOR8106
012024062802ENGI11      010ENERGISA    UNT     N2   R$  000000000450500000000046000000000004505000000000456400000000045620000000004562000000000457211752000000000002247100000000010257409500000000000000009999123100000010000000000000BRENGICDAM16135
012024062802ENGI3       010ENERGISA    ON      N2   R$  000000000136600000000014770000000001366000000000142400000000014520000000001403000000000145500037000000000000006300000000000008973700000000000000009999123100000010000000000000BRENGIACNOR0145
012024062802ENGI4       010ENERGISA    PN      N2   R$  000000000079800000000008010000000000782000000000079200000000007820000000000782000000000080000026000000000000003800000000000003012000000000000000009999123100000010000000000000BRENGIACNPR7141
012024062802ENJU3       010ENJOEI      ON      NM   R$  000000000021000000000002110000000000198000000000020300000000001990000000000199000000000020001052000000000000851600000000000173080400000000000000009999123100000010000000000000BRENJUACNOR9100
012024062802ENMT4       010ENERGISA MT PN           R$  000000000749900000000074990000000007001000000000743400000000074940000000005870000000000749500013000000000000001500000000000011151400000000000000009999123100000010000000000000BRENMTACNPR2125
012024062802EPAR3       010EMBPAR S/A  ON           R$  000000000063000000000006300000000000628000000000062900000000006300000000000628000000000063000026000000000000010000000000000006297900000000000000009999123100000010000000000000BREPARACNOR9105
012024062802EQMA3B      010EQTLMARANHAOON      MB   R$  000000000269700000000026970000000002600000000000261400000000026000000000002571000000000260000004000000000000000700000000000001830200000000000000009999123100000010000000000000BREQMAACNOR8108
012024062802EQPA3       010EQTL PARA   ON           R$  000000000068000000000006900000000000680000000000068800000000006890000000000685000000000069900013000000000000002100000000000001446200000000000000009999123100000010000000000000BREQPAACNOR1111
012024062802EQTL3       010EQUATORIAL  ON      NM   R$  000000000313200000000031470000000003036000000000307900000000030690000000003065000000000306936007000000000016031700000000049366288200000000000000009999123100000010000000000000BREQTLACNOR0130
012024062802IFCM3       010INFRACOMM   ON      NM   R$  000000000003700000000000370000000000033000000000003400000000000340000000000034000000000003503131000000000009218400000000000316468300000000000000009999123100000010000000000000BRIFCMACNOR8101
012024062802IGTI11      010IGUATEMI S.AUNT     N1   R$  000000000209000000000020950000000002048000000000206100000000020580000000002053000000000205814674000000000002838600000000005851100800000000000000009999123100000010000000000000BRIGTICDAM16106
012024062802IGTI3       010IGUATEMI S.AON      N1   R$  000000000026600000000002660000000000262000000000026300000000002620000000000262000000000026600060000000000000015200000000000004006600000000000000009999123100000010000000000000BRIGTIACNOR8106
012024062802IGTI4       010IGUATEMI S.APN      N1   R$  000000000090100000000009010000000000892000000000089800000000009000000000000900000000000108700008000000000000001100000000000000988400000000000000009999123100000010000000000000BRIGTIACNPR5106
012024062802LAND3       010TERRASANTAPAON      NM   R$  000000000148100000000015020000000001435000000000145700000000014400000000001439000000000144000242000000000000069900000000000101893100000000000000009999123100000010000000000000BRLANDACNOR9103
012024062802LAVV3       010LAVVI       ON      NM   R$  000000000085300000000008720000000000844000000000086000000000008590000000000854000000000085901766000000000000482100000000000414650700000000000000009999123100000010000000000000BRLAVVACNOR4112
012024062802LEVE3       010METAL LEVE  ON      NM   R$  000000000320600000000032440000000003189000000000322700000000032340000000003224000000000323501791000000000000252400000000000814531300000000000000009999123100000010000000000000BRLEVEACNOR2197
012024062802LJQQ3       010QUERO-QUERO ON      NM   R$  000000000039100000000003920000000000370000000000037400000000003720000000000372000000000037406041000000000003990800000000001494829800000000000000009999123100000010000000000000BRLJQQACNOR5104
012024062802LOGG3       010LOG COM PROPON      NM   R$  000000000233700000000023470000000002314000000000233200000000023350000000002315000000000233501338000000000000185600000000000432832200000000000000009999123100000010000000000000BRLOGGACNOR7107
012024062802LOGN3       010LOG-IN      ON      NM   R$  000000000358600000000036290000000003479000000000357200000000035750000000003575000000000358100164000000000000023100000000000082519800000000000000009999123100000010000000000000BRLOGNACNOR3105
012024062802LPSB3       010LOPES BRASILON      NM   R$  000000000017900000000001860000000000177000000000018400000000001850000000000184000000000018500420000000000000116600000000000021484900000000000000009999123100000010000000000000BRLPSBACNOR0114
012024062802LREN3       010LOJAS RENNERON  EJ  NM   R$  000000000125200000000012690000000001239000000000125300000000012480000000001247000000000125323166000000000014929900000000018716441300000000000000009999123100000010000000000000BRLRENACNOR1221
012024062802PCAR3       010P.ACUCAR-CBDON      NM   R$  000000000027800000000002830000000000268000000000027100000000002700000000000269000000000027107202000000000011824100000000003215712100000000000000009999123100000010000000000000BRPCARACNOR3167
012024062802PDGR3       010PDG REALT   ON      NM   R$  000000000001800000000000190000000000017000000000001800000000000170000000000017000000000001800228000000000000684700000000000012399000000000000000009999123100000010000000000000BRPDGRACNOR8118
012024062802PDTC3       010PADTEC      ON      NM   R$  000000000020000000000002020000000000198000000000020000000000001980000000000198000000000020200065000000000000029800000000000005989000000000000000009999123100000010000000000000BRPDTCACNOR3101
012024062802PEAB3       010PAR AL BAHIAON           R$  000000000445000000000044500000000004450000000000445000000000044500000000004250000000000450500001000000000000000700000000000003115000000000000000009999123100000010000000000000BRPEABACNOR3133
012024062802PEAB4       010PAR AL BAHIAPN           R$  000000000494100000000050050000000004929000000000496100000000049930000000003500000000000497200005000000000000000500000000000002480900000000000000009999123100000010000000000000BRPEABACNPR0133
012024062802PETR3       010PETROBRAS   ON      N2   R$  000000000399000000000040480000000003990000000000402800000000040380000000004036000000000404218643000000000007502200000000030221733700000000000000009999123100000010000000000000BRPETRACNOR9205
012024062802PETR4       010PETROBRAS   PN      N2   R$  000000000378000000000038170000000003771000000000379700000000038050000000003805000000000380646850000000000022019700000000083621636600000000000000009999123100000010000000000000BRPETRACNPR6213
012024062802GEPA4       010GER PARANAP PN           R$  000000000261000000000026200000000002610000000000261600000000026200000000002600000000000262000003000000000000000300000000000000785000000000000000009999123100000010000000000000BRGEPAACNPR9160
012024062802GFSA3       010GAFISA      ON      NM   R$  000000000034300000000003470000000000334000000000033800000000003340000000000334000000000033501902000000000001665200000000000563533300000000000000009999123100000010000000000000BRGFSAACNOR3124
012024062802GGBR3       010GERDAU      ON      N1   R$  000000000161500000000016380000000001615000000000162800000000016350000000001625000000000163500183000000000000026200000000000042662000000000000000009999123100000010000000000000BRGGBRACNOR1192
012024062802GGBR4       010GERDAU      PN      N1   R$  000000000182100000000018470000000001816000000000183200000000018380000000001837000000000184025444000000000011288700000000020686759800000000000000009999123100000010000000000000BRGGBRACNPR8192
012024062802ITUB3       010ITAUUNIBANCOON  EJ  N1   R$  000000000280900000000028170000000002768000000000278600000000028090000000002800000000000280901895000000000000528200000000001471976200000000000000009999123100000010000000000000BRITUBACNOR4337
012024062802BGIP4       010BANESE      PN           R$  000000000220800000000022080000000002208000000000220800000000022080000000002190000000000226000001000000000000000100000000000000220800000000000000009999123100000010000000000000BRBGIPACNPR8208
012024062802BHIA3       010CASAS BAHIA ON  ATZ NM   R$  000000000055200000000005640000000000537000000000054600000000005450000000000541000000000054503211000000000002913200000000001592240400000000000000009999123100000010000000000000BRBHIAACNOR1102
012024062802OPCT3       010OCEANPACT   ON      NM   R$  000000000065800000000006580000000000646000000000065100000000006460000000000643000000000064601572000000000000309600000000000201669400000000000000009999123100000010000000000000BROPCTACNOR0100
012024062802ORVR3       010ORIZON      ON      NM   R$  000000000393000000000039300000000003852000000000387700000000038600000000003854000000000386002847000000000000474700000000001840667200000000000000009999123100000010000000000000BRORVRACNOR0101
012024062802BPAN4       010BANCO PAN   PN      N1   R$  000000000082200000000008250000000000806000000000081300000000008090000000000809000000000081304593000000000001352800000000001100150600000000000000009999123100000010000000000000BRBPANACNPR1115
012024062802BRAP3       010BRADESPAR   ON      N1   R$  000000000177500000000018080000000001774000000000179500000000017950000000001795000000000180400685000000000000104900000000000188334800000000000000009999123100000010000000000000BRBRAPACNOR5148
012024062802BRAP4       010BRADESPAR   PN      N1   R$  000000000182700000000018620000000001827000000000185000000000018510000000001851000000000185406622000000000002846600000000005268418700000000000000009999123100000010000000000000BRBRAPACNPR2148
012024062802CRFB3       010CARREFOUR BRON      NM   R$  000000000090400000000009220000000000892000000000090400000000009020000000000901000000000090611040000000000006820100000000006167664600000000000000009999123100000010000000000000BRCRFBACNOR2116
012024062802CRPG5       010CRISTAL     PNA          R$  000000000294900000000029490000000002910000000000292100000000029410000000002910000000000294400013000000000000001400000000000004090100000000000000009999123100000010000000000000BRCRPGACNPA3119
012024062802CSAN3       010COSAN       ON      NM   R$  000000000137800000000013850000000001343000000000135600000000013540000000001353000000000135520433000000000010714400000000014530310300000000000000009999123100000010000000000000BRCSANACNOR6126
012024062802EKTR4       010ELEKTRO     PN  EJ       R$  000000000395500000000039550000000003955000000000395500000000039550000000003906000000000395000005000000000000000900000000000003559500000000000000009999123100000010000000000000BREKTRACNPR7163
012024062802ELET3       010ELETROBRAS  ON      N1   R$  000000000355600000000036720000000003556000000000361400000000035850000000003583000000000360030171000000000012777300000000046179776300000000000000009999123100000010000000000000BRELETACNOR6160
012024062802ELET6       010ELETROBRAS  PNB     N1   R$  000000000399000000000040900000000003988000000000402800000000040100000000004008000000000401006384000000000001613800000000006500441900000000000000009999123100000010000000000000BRELETACNPB7077
012024062802BBSE3       010BBSEGURIDADEON      NM   R$  000000000328300000000033010000000003265000000000328600000000032930000000003293000000000329514582000000000004653800000000015296968500000000000000009999123100000010000000000000BRBBSEACNOR5124
012024062802CMIN3       010CSNMINERACAOON      N2   R$  000000000051500000000005220000000000514000000000051800000000005190000000000519000000000052013642000000000010690800000000005543185600000000000000009999123100000010000000000000BRCMINACNOR2111
012024062802COCE3       010COELCE      ON           R$  000000000350800000000035080000000003500000000000350400000000035000000000003500000000000352500002000000000000000200000000000000700800000000000000009999123100000010000000000000BRCOCEACNOR0146
012024062802COCE5       010COELCE      PNA          R$  000000000300800000000030600000000002978000000000302900000000030600000000003005000000000306000066000000000000008900000000000026962200000000000000009999123100000010000000000000BRCOCEACNPA3147
012024062802COGN3       010COGNA ON    ON      NM   R$  000000000018600000000001890000000000177000000000018200000000001770000000000177000000000017828113000000000045202000000000008249030700000000000000009999123100000010000000000000BRCOGNACNOR2104
012024062802MRVE3       010MRV         ON      NM   R$  000000000069100000000006970000000000659000000000067000000000006680000000000667000000000066819101000000000012480200000000008370967500000000000000009999123100000010000000000000BRMRVEACNOR2127
012024062802ARZZ3       010AREZZO CO   ON      NM   R$  000000000519400000000052200000000005053000000000512400000000051350000000005134000000000514007818000000000001426700000000007311321200000000000000009999123100000010000000000000BRARZZACNOR3146
012024062802ASAI3       010ASSAI       ON      NM   R$  000000000108000000000010850000000001026000000000104100000000010340000000001034000000000103527867000000000018442100000000019200852000000000000000009999123100000010000000000000BRASAIACNOR0106
012024062802ATOM3       010ATOMPAR     ON           R$  000000000019800000000002010000000000196000000000019800000000001960000000000196000000000019800017000000000000003600000000000000714900000000000000009999123100000010000000000000BRATOMACNOR1106
012024062802AURE3       010AUREN       ON      NM   R$  000000000122700000000012450000000001227000000000123800000000012340000000001234000000000123809061000000000003746100000000004637949100000000000000009999123100000010000000000000BRAUREACNOR9104
012024062802FIQE3       010UNIFIQUE    ON      NM   R$  000000000035000000000003500000000000342000000000034500000000003450000000000344000000000034600912000000000000246200000000000084959200000000000000009999123100000010000000000000BRFIQEACNOR5107
012024062802FLRY3       010FLEURY      ON      NM   R$  000000000149800000000015150000000001488000000000150400000000015030000000001503000000000150910539000000000002933400000000004412000300000000000000009999123100000010000000000000BRFLRYACNOR5138
012024062802FRAS3       010FRAS-LE     ON      N1   R$  000000000195100000000019600000000001924000000000193600000000019390000000001931000000000194401758000000000000347500000000000672888000000000000000009999123100000010000000000000BRFRASACNOR0159
012024062802FRIO3       010METALFRIO   ON      NM   R$  000000002980000000000350000000000028900000000003479400000000350000000000035000000000003600000062000000000000021100000000000734165000000000000000009999123100000010000000000000BRFRIOACNOR2111
012024062802RAIZ4       010RAIZEN      PN      N2   R$  000000000029800000000003000000000000291000000000029300000000002950000000000294000000000029514391000000000015255400000000004483208200000000000000009999123100000010000000000000BRRAIZACNPR6110
012024062802STBP3       010SANTOS BRP  ON      NM   R$  000000000136100000000013780000000001354000000000136500000000013650000000001364000000000137010279000000000003639300000000004971175000000000000000009999123100000010000000000000BRSTBPACNOR3130
012024062802SUZB3       010SUZANO S.A. ON      NM   R$  000000000575000000000057560000000005623000000000570300000000057010000000005701000000000570645214000000000014976500000000085423271900000000000000009999123100000010000000000000BRSUZBACNOR0130
012024062802MAPT4       010CEMEPE      PN           R$  000000000054800000000005480000000000548000000000054800000000005480000000000508000000000059000001000000000000000100000000000000054800000000000000009999123100000010000000000000BRMAPTACNPR5106
012024062802MATD3       010MATER DEI   ON      NM   R$  000000000046200000000004640000000000449000000000045500000000004550000000000452000000000045502640000000000002615700000000001191624200000000000000009999123100000010000000000000BRMATDACNOR4104
012024062802MBLY3       010MOBLY       ON      NM   R$  000000000021600000000002170000000000210000000000021300000000002170000000000213000000000021700172000000000000080800000000000017256500000000000000009999123100000010000000000000BRMBLYACNOR5100
012024062802MDIA3       010M.DIASBRANCOON      NM   R$  000000000303700000000030580000000002933000000000296000000000029330000000002932000000000293303832000000000000904500000000002677356500000000000000009999123100000010000000000000BRMDIAACNOR7135
012024062802MDNE3       010MOURA DUBEUXON      NM   R$  000000000114000000000011420000000001106000000000111800000000011080000000001108000000000111101826000000000000351600000000000393437800000000000000009999123100000010000000000000BRMDNEACNOR9100
012024062802MEAL3       010IMC S/A     ON      NM   R$  000000000012600000000001280000000000124000000000012500000000001250000000000125000000000012600397000000000000263100000000000033106600000000000000009999123100000010000000000000BRMEALACNOR9105
012024062802MELK3       010MELNICK     ON      NM   R$  000000000034100000000003520000000000341000000000034700000000003450000000000344000000000034500430000000000000234100000000000081309400000000000000009999123100000010000000000000BRMELKACNOR8111
012024062802PRNR3       010PRINER      ON      NM   R$  000000000108700000000010900000000001073000000000108000000000010800000000001079000000000108502174000000000000475500000000000513655800000000000000009999123100000010000000000000BRPRNRACNOR4109
012024062802PSSA3       010PORTO SEGUROON      NM   R$  000000000310200000000031160000000003082000000000309600000000030950000000003095000000000310404056000000000000979000000000003031674800000000000000009999123100000010000000000000BRPSSAACNOR7154
012024062802PTBL3       010PORTOBELLO  ON      NM   R$  000000000046800000000004790000000000452000000000046400000000004680000000000460000000000046801015000000000000561200000000000260697500000000000000009999123100000010000000000000BRPTBLACNOR8132
012024062802PTNT3       010PETTENATI   ON           R$  000000000099000000000009900000000000990000000000099000000000009900000000000914000000000099000014000000000000004000000000000003960000000000000000009999123100000010000000000000BRPTNTACNOR6042
012024062802PTNT4       010PETTENATI   PN           R$  000000000061000000000006100000000000585000000000059200000000005950000000000590000000000059500030000000000000010800000000000006403400000000000000009999123100000010000000000000BRPTNTACNPR3047
012024062802QUAL3       010QUALICORP   ON      NM   R$  000000000014200000000001460000000000138000000000014100000000001400000000000140000000000014102093000000000003733700000000000529095300000000000000009999123100000010000000000000BRQUALACNOR6120
012024062802RADL3       010RAIADROGASILON      NM   R$  000000000263600000000026450000000002544000000000257200000000025680000000002566000000000257122439000000000008547600000000021990590600000000000000009999123100000010000000000000BRRADLACNOR0156
012024062802SMFT3       010SMART FIT   ON  EJ  NM   R$  000000000220300000000022150000000002149000000000216700000000021600000000002160000000000216106981000000000001595500000000003457483300000000000000009999123100000010000000000000BRSMFTACNOR1112
012024062802SMTO3       010SAO MARTINHOON  EJ  NM   R$  000000000326200000000033030000000003241000000000326700000000032730000000003268000000000327505601000000000000980400000000003203788800000000000000009999123100000010000000000000BRSMTOACNOR3126
012024062802BLAU3       010BLAU        ON  EJ  NM   R$  000000000106800000000010750000000001042000000000105900000000010490000000001041000000000105000650000000000000117000000000000123907000000000000000009999123100000010000000000000BRBLAUACNOR8114
012024062802BMEB3       010MERCANTIL   ON      N1   R$  000000000252000000000025200000000002520000000000252000000000025200000000002500000000000267600001000000000000001000000000000002520000000000000000009999123100000010000000000000BRBMEBACNOR8205
012024062802HAPV3       010HAPVIDA     ON      NM   R$  000000000039000000000003920000000000380000000000038500000000003830000000000382000000000038324006000000000041261400000000015905542000000000000000009999123100000010000000000000BRHAPVACNOR4114
012024062802HBOR3       010HELBOR      ON      NM   R$  000000000021200000000002120000000000206000000000020800000000002060000000000205000000000020800363000000000000331200000000000068989300000000000000009999123100000010000000000000BRHBORACNOR3118
012024062802HBRE3       010HBR REALTY  ON      NM   R$  000000000052000000000005210000000000508000000000051100000000005090000000000508000000000051300512000000000000178800000000000091534900000000000000009999123100000010000000000000BRHBREACNOR4100
012024062802HBSA3       010HIDROVIAS   ON      NM   R$  000000000036500000000003710000000000364000000000036600000000003710000000000365000000000037103522000000000006868200000000002518044800000000000000009999123100000010000000000000BRHBSAACNOR0100
012024062802HBTS5       010HABITASUL   PNA          R$  000000000357700000000035770000000003577000000000357700000000035770000000003508000000000418000001000000000000000100000000000000357700000000000000009999123100000010000000000000BRHBTSACNPA3128
012024062802BAHI3       010BAHEMA      ON      MA   R$  000000000067100000000006720000000000650000000000065700000000006500000000000620000000000067100006000000000000001600000000000001052400000000000000009999123100000010000000000000BRBAHIACNOR1074
012024062802BALM4       010BAUMER      PN           R$  000000000105400000000010540000000001054000000000105400000000010540000000000976000000000105300001000000000000000100000000000000105400000000000000009999123100000010000000000000BRBALMACNPR2056
012024062802BAUH4       010EXCELSIOR   PN           R$  000000000799800000000079980000000007998000000000799800000000079980000000005001000000000799900001000000000000000100000000000000799800000000000000009999123100000010000000000000BRBAUHACNPR3118
012024062802BAZA3       010AMAZONIA    ON           R$  000000000902000000000092950000000008900000000000905100000000089000000000008800000000000890000039000000000000005700000000000051590900000000000000009999123100000010000000000000BRBAZAACNOR0179
012024062802BBAS3       010BRASIL      ON      NM   R$  000000000267000000000026740000000002646000000000265900000000026710000000002670000000000267131085000000000015567200000000041407560300000000000000009999123100000010000000000000BRBBASACNOR3324
012024062802BRBI11      010BR PARTNERS UNT     N2   R$  000000000144400000000014490000000001418000000000144100000000014480000000001448000000000144900816000000000000411000000000000592553400000000000000009999123100000010000000000000BRBRBICDAM10109
012024062802BRFS3       010BRF SA      ON      NM   R$  000000000219100000000022800000000002186000000000223400000000022670000000002265000000000226720536000000000010625400000000023742451100000000000000009999123100000010000000000000BRBRFSACNOR8122
012024062802CSED3       010CRUZEIRO EDUON      NM   R$  000000000039100000000003910000000000375000000000037900000000003750000000000374000000000037700654000000000000279900000000000106212000000000000000009999123100000010000000000000BRCSEDACNOR9104
012024062802CSMG3       010COPASA      ON  EDJ NM   R$  000000000207700000000020980000000002056000000000208200000000020890000000002079000000000209003621000000000000928400000000001933494900000000000000009999123100000010000000000000BRCSMGACNOR5174
012024062802CSNA3       010SID NACIONALON           R$  000000000129100000000012990000000001279000000000129100000000012910000000001288000000000129111676000000000005768700000000007447717300000000000000009999123100000010000000000000BRCSNAACNOR6261
012024062802ELMD3       010ELETROMIDIA ON      NM   R$  000000000174200000000017780000000001718000000000175500000000017780000000001750000000000177800911000000000000113800000000000199800100000000000000009999123100000010000000000000BRELMDACNOR3101
012024062802EMAE4       010EMAE        PN           R$  000000000475900000000047590000000004699000000000472900000000047590000000004700000000000476000005000000000000000500000000000002364900000000000000009999123100000010000000000000BREMAEACNPR1125
012024062802EMBR3       010EMBRAER     ON      NM   R$  000000000380900000000038400000000003526000000000363500000000036150000000003610000000000361638691000000000016763300000000060948851100000000000000009999123100000010000000000000BREMBRACNOR4191
012024062802RENT3       010LOCALIZA    ON  EJS NM   R$  000000000428100000000042810000000004124000000000419800000000042000000000004200000000000420229175000000000010629700000000044633193800000000000000009999123100000010000000000000BRRENTACNOR4196
012024062802ALPA3       010ALPARGATAS  ON      N1   R$  000000000099400000000009950000000000978000000000098700000000009800000000000980000000000099500007000000000000001400000000000001382300000000000000009999123100000010000000000000BRALPAACNOR0231
012024062802ALPA4       010ALPARGATAS  PN      N1   R$  000000000093500000000009520000000000908000000000091800000000009120000000000912000000000091606846000000000003389600000000003113999500000000000000009999123100000010000000000000BRALPAACNPR7232
012024062802ALPK3       010ESTAPAR     ON      NM   R$  000000000032500000000003400000000000319000000000033200000000003360000000000332000000000033700842000000000000183900000000000061062700000000000000009999123100000010000000000000BRALPKACNOR9101
012024062802ALUP11      010ALUPAR      UNT     N2   R$  000000000298400000000029900000000002969000000000298100000000029770000000002972000000000297702401000000000000641900000000001913939200000000000000009999123100000010000000000000BRALUPCDAM15119
012024062802ALUP3       010ALUPAR      ON      N2   R$  000000000100400000000010090000000001004000000000100400000000010050000000001004000000000100500022000000000000003500000000000003516700000000000000009999123100000010000000000000BRALUPACNOR8119
012024062802ALUP4       010ALUPAR      PN      N2   R$  000000000099200000000009960000000000983000000000098900000000009960000000000987000000000099700070000000000000012200000000000012068500000000000000009999123100000010000000000000BRALUPACNPR5119
012024062802AMAR3       010LOJAS MARISAON      NM   R$  000000000013900000000001400000000000136000000000013700000000001380000000000137000000000013801223000000000000760000000000000104595400000000000000009999123100000010000000000000BRAMARACNOR4115
012024062802AMBP3       010AMBIPAR     ON      NM   R$  000000000124100000000013550000000001227000000000127900000000012900000000001287000000000129014327000000000006759700000000008648047300000000000000009999123100000010000000000000BRAMBPACNOR6103
012024062802ANIM3       010ANIMA       ON      NM   R$  000000000033100000000003400000000000312000000000031900000000003150000000000314000000000031609079000000000005990000000000001913818500000000000000009999123100000010000000000000BRANIMACNOR6107
012024062802APER3       010ALPER S.A.  ON           R$  000000000456900000000045690000000004569000000000456900000000045690000000004569000000000460000001000000000000000200000000000000913800000000000000009999123100000010000000000000BRAPERACNOR9106
012024062802ARML3       010ARMAC       ON      NM   R$  000000000101300000000010180000000000982000000000099200000000009860000000000986000000000098702229000000000000422000000000000418870400000000000000009999123100000010000000000000BRARMLACNOR1111
012024062802CIEL3       010CIELO       ON      NM   R$  000000000056400000000005650000000000562000000000056300000000005630000000000563000000000056415502000000000024610500000000013862308900000000000000009999123100000010000000000000BRCIELACNOR3157
012024062802CLSA3       010CLEARSALE   ON      NM   R$  000000000073800000000007510000000000713000000000073000000000007290000000000726000000000072904078000000000001279100000000000934108900000000000000009999123100000010000000000000BRCLSAACNOR0100
012024062802CLSC3       010CELESC      ON  EJ  N2   R$  000000000687900000000068790000000006850000000000686900000000068500000000006850000000000694700003000000000000000300000000000002060800000000000000009999123100000010000000000000BRCLSCACNOR6152
012024062802CLSC4       010CELESC      PN  EJ  N2   R$  000000000703800000000072470000000007038000000000711000000000072470000000007100000000000724800015000000000000001800000000000012799700000000000000009999123100000010000000000000BRCLSCACNPR3131
012024062802B3SA3       010B3          ON  EDJ NM   R$  000000000103900000000010430000000001014000000000102500000000010240000000001023000000000102442356000000000025537700000000026187586700000000000000009999123100000010000000000000BRB3SAACNOR6133
012024062802BEEF3       010MINERVA     ON      NM   R$  000000000067200000000006780000000000654000000000066700000000006680000000000668000000000067310897000000000009804300000000006541221300000000000000009999123100000010000000000000BRBEEFACNOR6116
012024062802BPAC11      010BTGP BANCO  UNT     N2   R$  000000000323700000000032510000000002999000000000310300000000030910000000003091000000000309346002000000000024178900000000075032426600000000000000009999123100000010000000000000BRBPACUNT006118
012024062802BPAC3       010BTGP BANCO  ON      N2   R$  000000000162200000000016220000000001500000000000155100000000015550000000001555000000000156500101000000000000011200000000000017381300000000000000009999123100000010000000000000BRBPACACNOR7133
012024062802BPAC5       010BTGP BANCO  PNA     N2   R$  000000000080700000000008070000000000752000000000077900000000007750000000000770000000000077700124000000000000020200000000000015755700000000000000009999123100000010000000000000BRBPACACNPA0133
012024062802CPFE3       010CPFL ENERGIAON      NM   R$  000000000331400000000033230000000003265000000000327800000000032730000000003272000000000328607108000000000001789100000000005865096400000000000000009999123100000010000000000000BRCPFEACNOR0137
012024062802CPLE3       010COPEL       ON      N2   R$  000000000084000000000008420000000000826000000000083200000000008290000000000829000000000083006719000000000004372900000000003638995300000000000000009999123100000010000000000000BRCPLEACNOR8149
012024062802CPLE6       010COPEL       PNB     N2   R$  000000000094500000000009470000000000927000000000093400000000009300000000000930000000000093219536000000000014454100000000013511889800000000000000009999123100000010000000000000BRCPLEACNPB9146
012024062802GGPS3       010GPS         ON      NM   R$  000000000176900000000017720000000001724000000000173800000000017240000000001723000000000173607642000000000002428900000000004222270500000000000000009999123100000010000000000000BRGGPSACNOR9103
012024062802GMAT3       010GRUPO MATEUSON      NM   R$  000000000071500000000007230000000000684000000000069500000000006930000000000692000000000069310977000000000005251300000000003652879200000000000000009999123100000010000000000000BRGMATACNOR7102
012024062802GOAU3       010GERDAU MET  ON      N1   R$  000000000106500000000010760000000001064000000000107100000000010700000000001070000000000107400145000000000000035500000000000038025000000000000000009999123100000010000000000000BRGOAUACNOR1267
012024062802GOAU4       010GERDAU MET  PN      N1   R$  000000000105900000000010710000000001056000000000106500000000010650000000001065000000000106608385000000000003896500000000004150005400000000000000009999123100000010000000000000BRGOAUACNPR8268
012024062802GRND3       010GRENDENE    ON      NM   R$  000000000058200000000005870000000000575000000000057800000000005760000000000576000000000057702345000000000000886600000000000513044400000000000000009999123100000010000000000000BRGRNDACNOR3174
012024062802JALL3       010JALLESMACHADON      NM   R$  000000000068000000000006890000000000672000000000067800000000006790000000000678000000000067901816000000000000512000000000000347165700000000000000009999123100000010000000000000BRJALLACNOR0105
012024062802JBSS3       010JBS         ON      NM   R$  000000000324600000000032740000000003189000000000322800000000032270000000003227000000000323223141000000000008110100000000026183579800000000000000009999123100000010000000000000BRJBSSACNOR8121
012024062802JHSF3       010JHSF PART   ON      NM   R$  000000000039600000000004000000000000393000000000039600000000003950000000000394000000000039502153000000000002476000000000000982304500000000000000009999123100000010000000000000BRJHSFACNOR2136
012024062802MTRE3       010MITRE REALTYON  ED  NM   R$  000000000035600000000003570000000000346000000000034900000000003490000000000349000000000035000956000000000000572000000000000200077600000000000000009999123100000010000000000000BRMTREACNOR6112
012024062802MTSA4       010METISA      PN           R$  000000000440000000000044500000000004300000000000442700000000044500000000004040000000000445000035000000000000007000000000000030989500000000000000009999123100000010000000000000BRMTSAACNPR9072
012024062802MULT3       010MULTIPLAN   ON  EJ  N2   R$  000000000230500000000023180000000002254000000000227300000000022540000000002253000000000226810029000000000002501200000000005685759900000000000000009999123100000010000000000000BRMULTACNOR5139
012024062802MWET4       010WETZEL S/A  PN           R$  000000000082300000000008230000000000823000000000082300000000008230000000000805000000000085900001000000000000000100000000000000082300000000000000009999123100000010000000000000BRMWETACNPR3118
012024062802MYPK3       010IOCHP-MAXIONON      NM   R$  000000000119000000000012080000000001174000000000118200000000011760000000001175000000000117703024000000000000930600000000001100121400000000000000009999123100000010000000000000BRMYPKACNOR7154
012024062802NEOE3       010NEOENERGIA  ON      NM   R$  000000000186600000000018660000000001841000000000185500000000018570000000001856000000000186702632000000000000541900000000001005236800000000000000009999123100000010000000000000BRNEOEACNOR3122
012024062802NGRD3       010NEOGRID     ON      NM   R$  000000000008300000000000850000000000081000000000008100000000000810000000000081000000000008200461000000000000219700000000000018008700000000000000009999123100000010000000000000BRNGRDACNOR3104
012024062802AVLL3       010ALPHAVILLE  ON      NM   R$  000000000033100000000003500000000000331000000000033900000000003350000000000335000000000034000021000000000000014600000000000004952900000000000000009999123100000010000000000000BRAVLLACNOR5103
012024062802AZEV3       010AZEVEDO     ON           R$  000000000016900000000001730000000000155000000000016000000000001580000000000158000000000015901066000000000001187900000000000191176800000000000000009999123100000010000000000000BRAZEVACNOR0121
012024062802AZEV4       010AZEVEDO     PN           R$  000000000016500000000001670000000000146000000000015500000000001500000000000149000000000015003096000000000008467800000000001313528600000000000000009999123100000010000000000000BRAZEVACNPR7121
012024062802AZUL4       010AZUL        PN      N2   R$  000000000077400000000007840000000000729000000000074600000000007340000000000734000000000073515761000000000018963100000000014150578600000000000000009999123100000010000000000000BRAZULACNPR4102
012024062802ALLD3       010ALLIED      ON      NM   R$  000000000073600000000007540000000000735000000000074300000000007450000000000743000000000074500440000000000000099400000000000073877600000000000000009999123100000010000000000000BRALLDACNOR3106
012024062802ALOS3       010ALLOS       ON      NM   R$  000000000210300000000021310000000002090000000000211200000000021120000000002110000000000211214450000000000004046400000000008547933200000000000000009999123100000010000000000000BRALOSACNOR5101
012024062802BBDC3       010BRADESCO    ON      N1   R$  000000000111800000000011230000000001112000000000111800000000011190000000001119000000000112009724000000000006800900000000007608251200000000000000009999123100000010000000000000BRBBDCACNOR1771
012024062802BBDC4       010BRADESCO    PN      N1   R$  000000000124200000000012480000000001231000000000123900000000012380000000001238000000000123934397000000000031675700000000039267001100000000000000009999123100000010000000000000BRBBDCACNPR8771
012024062802EUCA3       010EUCATEX     ON      N1   R$  000000000153600000000015360000000001536000000000153600000000015360000000001510000000000153600002000000000000000500000000000000768000000000000000009999123100000010000000000000BREUCAACNOR1157
012024062802EUCA4       010EUCATEX     PN      N1   R$  000000000152700000000015420000000001490000000000151500000000014990000000001489000000000150100259000000000000058300000000000088344000000000000000009999123100000010000000000000BREUCAACNPR8044
012024062802EVEN3       010EVEN        ON      NM   R$  000000000065300000000006590000000000632000000000065000000000006550000000000655000000000065802706000000000000689600000000000448693800000000000000009999123100000010000000000000BREVENACNOR8119
012024062802EZTC3       010EZTEC       ON      NM   R$  000000000131500000000013260000000001285000000000129600000000012940000000001293000000000129503271000000000001485100000000001925751400000000000000009999123100000010000000000000BREZTCACNOR0125
012024062802CAMB3       010CAMBUCI     ON           R$  000000000105000000000010550000000001041000000000105000000000010520000000001050000000000105200100000000000000035300000000000037072400000000000000009999123100000010000000000000BRCAMBACNOR4130
012024062802INEP3       010INEPAR      ON           R$  000000000021200000000002170000000000200000000000020500000000002010000000000200000000000020500303000000000000138800000000000028534200000000000000009999123100000010000000000000BRINEPACNOR1143
012024062802INEP4       010INEPAR      PN           R$  000000000019700000000002120000000000185000000000019600000000001890000000000189000000000019200190000000000000172900000000000034010300000000000000009999123100000010000000000000BRINEPACNPR8143
012024062802INTB3       010INTELBRAS   ON      NM   R$  000000000236200000000023630000000002276000000000230100000000023090000000002294000000000230906666000000000001508200000000003471096300000000000000009999123100000010000000000000BRINTBACNOR9111
012024062802IRBR3       010IRBBRASIL REON      NM   R$  000000000321500000000032350000000003160000000000319400000000031600000000003160000000000317703062000000000000680200000000002172886700000000000000009999123100000010000000000000BRIRBRACNOR4111
012024062802MGEL4       010MANGELS INDLPN           R$  000000000131300000000013130000000001284000000000129800000000012840000000001284000000000136800002000000000000000200000000000000259700000000000000009999123100000010000000000000BRMGELACNPR3147
012024062802MGLU3       010MAGAZ LUIZA ON      NM   R$  000000000121400000000012200000000001165000000000119200000000012050000000001204000000000120624909000000000025687100000000030643184900000000000000009999123100000010000000000000BRMGLUACNOR2124
012024062802AALR3       010ALLIAR      ON      NM   R$  000000000104800000000010480000000000997000000000102700000000010390000000001033000000000103900122000000000000069700000000000071627100000000000000009999123100000010000000000000BRAALRACNOR6102
012024062802ABCB4       010ABC BRASIL  PN      N2   R$  000000000223300000000022480000000002210000000000223000000000022140000000002210000000000221702764000000000000746800000000001665624300000000000000009999123100000010000000000000BRABCBACNPR4145
012024062802HYPE3       010HYPERA      ON  EJ  NM   R$  000000000289600000000029430000000002870000000000289900000000028700000000002870000000000289010060000000000002685700000000007785852500000000000000009999123100000010000000000000BRHYPEACNOR0142
012024062802BMEB4       010MERCANTIL   PN      N1   R$  000000000277500000000027750000000002716000000000275400000000027650000000002722000000000277800019000000000000003700000000000010192800000000000000009999123100000010000000000000BRBMEBACNPR5210
012024062802BMGB4       010BANCO BMG   PN      N1   R$  000000000032300000000003530000000000323000000000034200000000003430000000000342000000000034302779000000000002382000000000000816865600000000000000009999123100000010000000000000BRBMGBACNPR0109
012024062802BMIN4       010MERC INVEST PN           R$  000000000155100000000015510000000001551000000000155100000000015510000000001551000000000161000002000000000000000400000000000000620400000000000000009999123100000010000000000000BRBMINACNPR1176
012024062802BMKS3       010BIC MONARK  ON           R$  000000003348100000000340000000000033481000000003365600000000340000000000033000000000003400000006000000000000000023000000000000774091000000000000009999123100000010000000000000BRBMKSACNOR9166
012024062802BMOB3       010BEMOBI TECH ON      NM   R$  000000000137900000000013850000000001354000000000136000000000013600000000001354000000000136001452000000000000309900000000000421725200000000000000009999123100000010000000000000BRBMOBACNOR7103
012024062802BOBR4       010BOMBRIL     PN           R$  000000000020400000000002040000000000200000000000020000000000002030000000000200000000000020300011000000000000003700000000000000743300000000000000009999123100000010000000000000BRBOBRACNPR3128
012024062802ITUB4       010ITAUUNIBANCOPN  EJ  N1   R$  000000000324800000000032540000000003205000000000322600000000032410000000003240000000000324150170000000000028992100000000093551176500000000000000009999123100000010000000000000BRITUBACNPR1337
012024062802MILS3       010MILLS       ON  EJ  NM   R$  000000000106000000000010640000000001040000000000105100000000010490000000001048000000000105302476000000000000673600000000000708516500000000000000009999123100000010000000000000BRMILSACNOR2127
012024062802MLAS3       010MULTILASER  ON      NM   R$  000000000020400000000002040000000000194000000000019700000000001970000000000195000000000019704476000000000002396900000000000472668100000000000000009999123100000010000000000000BRMLASACNOR9101
012024062802MNDL3       010MUNDIAL     ON           R$  000000000129700000000012980000000001297000000000129700000000012980000000001290000000000129800004000000000000000600000000000000778700000000000000009999123100000010000000000000BRMNDLACNOR4109
012024062802MNPR3       010MINUPAR     ON           R$  000000000115000000000011900000000001150000000000116700000000011800000000001180000000000118700007000000000000001600000000000001868400000000000000009999123100000010000000000000BRMNPRACNOR5122
012024062802MOVI3       010MOVIDA      ON      NM   R$  000000000062300000000006340000000000597000000000060600000000006040000000000603000000000060408839000000000004060900000000002464931800000000000000009999123100000010000000000000BRMOVIACNOR0122
012024062802MRFG3       010MARFRIG     ON      NM   R$  000000000121900000000012360000000001204000000000122300000000012360000000001231000000000123617624000000000005699900000000006974925400000000000000009999123100000010000000000000BRMRFGACNOR0116
012024062802REDE3       010REDE ENERGIAON           R$  000000000066800000000006680000000000664000000000066700000000006640000000000664000000000066900010000000000000001100000000000000734000000000000000009999123100000010000000000000BRREDEACNOR7127
012024062802KEPL3       010KEPLER WEBERON      NM   R$  000000000096000000000009720000000000950000000000096100000000009580000000000955000000000095902327000000000000795400000000000764742500000000000000009999123100000010000000000000BRKEPLACNOR1062
012024062802KLBN11      010KLABIN S/A  UNT     N2   R$  000000000212900000000021450000000002110000000000212900000000021440000000002136000000000214414663000000000005122000000000010908567600000000000000009999123100000010000000000000BRKLBNCDAM18142
012024062802KLBN3       010KLABIN S/A  ON      N2   R$  000000000042500000000004310000000000425000000000042800000000004310000000000430000000000043100533000000000000238900000000000102462100000000000000009999123100000010000000000000BRKLBNACNOR2170
012024062802KLBN4       010KLABIN S/A  PN      N2   R$  000000000042500000000004280000000000420000000000042400000000004260000000000425000000000042801598000000000001185800000000000503917400000000000000009999123100000010000000000000BRKLBNACNPR9170
012024062802BRIT3       010BRISANET    ON      NM   R$  000000000040400000000004080000000000398000000000040200000000004040000000000399000000000040400894000000000000439300000000000176785200000000000000009999123100000010000000000000BRBRITACNOR0103
012024062802BRKM3       010BRASKEM     ON      N1   R$  000000000184400000000018440000000001812000000000182500000000018240000000001813000000000185000031000000000000004700000000000008577500000000000000009999123100000010000000000000BRBRKMACNOR1119
012024062802BRKM5       010BRASKEM     PNA     N1   R$  000000000184000000000018430000000001786000000000179900000000017860000000001786000000000178706858000000000001990500000000003582070800000000000000009999123100000010000000000000BRBRKMACNPA4121
012024062802BRSR3       010BANRISUL    ON      N1   R$  000000000121000000000012100000000001189000000000120500000000011990000000001195000000000120500025000000000000005900000000000007115300000000000000009999123100000010000000000000BRBRSRACNOR3188
012024062802BRSR6       010BANRISUL    PNB     N1   R$  000000000114000000000011520000000001130000000000114100000000011350000000001135000000000113604050000000000001212600000000001384642200000000000000009999123100000010000000000000BRBRSRACNPB4191
012024062802YDUQ3       010YDUQS PART  ON      NM   R$  000000000109600000000011040000000001041000000000106100000000010410000000001041000000000104610080000000000004061900000000004309755300000000000000009999123100000010000000000000BRYDUQACNOR3105
012024062802ZAMP3       010ZAMP S.A.   ON           R$  000000000038800000000003970000000000372000000000038100000000003740000000000374000000000037502420000000000000678600000000000258878000000000000000009999123100000010000000000000BRZAMPACNOR5100
012024062802PETZ3       010PETZ        ON      NM   R$  000000000035800000000003700000000000347000000000036100000000003630000000000363000000000036413497000000000011352200000000004108298800000000000000009999123100000010000000000000BRPETZACNOR2110
012024062802NORD3       010NORDON MET  ON           R$  000000000060100000000006010000000000601000000000060100000000006010000000000607000000000063900001000000000000000100000000000000060100000000000000009999123100000010000000000000BRNORDACNOR7135
012024062802NTCO3       010GRUPO NATURAON      NM   R$  000000000157800000000015840000000001550000000000156200000000015540000000001553000000000156014914000000000006900300000000010782635100000000000000009999123100000010000000000000BRNTCOACNOR5106
012024062802ODPV3       010ODONTOPREV  ON  EJ  NM   R$  000000000114000000000011590000000001136000000000114500000000011360000000001135000000000114202862000000000000800900000000000917106500000000000000009999123100000010000000000000BRODPVACNOR4202
012024062802OFSA3       010OUROFINO S/AON      NM   R$  000000000195100000000019520000000001912000000000191300000000019120000000001912000000000194700014000000000000031000000000000059308500000000000000009999123100000010000000000000BROFSAACNOR7118
012024062802KRSA3       010KORA SAUDE  ON      NM   R$  000000000006000000000000650000000000060000000000006200000000000620000000000062000000000006301161000000000001100500000000000068570400000000000000009999123100000010000000000000BRKRSAACNOR0100
012024062802NINJ3       010GETNINJAS   ON      NM   R$  000000000045100000000004520000000000439000000000044300000000004390000000000435000000000043900106000000000000022700000000000010058100000000000000009999123100000010000000000000BRNINJACNOR5101
012024062802EALT4       010ACO ALTONA  PN           R$  000000000110900000000011300000000001100000000000111500000000011200000000001105000000000112000043000000000000011200000000000012498200000000000000009999123100000010000000000000BREALTACNPR1138
012024062802ECOR3       010ECORODOVIAS ON      NM   R$  000000000068400000000006950000000000657000000000066900000000006600000000000659000000000066107369000000000003582300000000002397653700000000000000009999123100000010000000000000BRECORACNOR8120
012024062802EGIE3       010ENGIE BRASILON      NM   R$  000000000443900000000044590000000004417000000000443700000000044290000000004429000000000443805370000000000000966800000000004289885100000000000000009999123100000010000000000000BREGIEACNOR9126
012024062802ESPA3       010ESPACOLASER ON      NM   R$  000000000010200000000001020000000000100000000000010000000000001020000000000102000000000010300262000000000000363900000000000036697700000000000000009999123100000010000000000000BRESPAACNOR7103
012024062802SANB11      010SANTANDER BRUNT          R$  000000000276800000000027690000000002740000000000275000000000027460000000002746000000000274908840000000000002408500000000006625425600000000000000009999123100000010000000000000BRSANBCDAM13164
012024062802SANB3       010SANTANDER BRON           R$  000000000132000000000013200000000001300000000000130800000000013130000000001307000000000131400357000000000000061100000000000079923400000000000000009999123100000010000000000000BRSANBACNOR8171
012024062802SANB4       010SANTANDER BRPN           R$  000000000145700000000014630000000001442000000000144800000000014430000000001443000000000144900459000000000000086900000000000125867200000000000000009999123100000010000000000000BRSANBACNPR5171
012024062802SAPR11      010SANEPAR     UNT     N2   R$  000000000275000000000027670000000002732000000000275100000000027560000000002745000000000275703044000000000000632000000000001739134900000000000000009999123100000010000000000000BRSAPRCDAM13117
012024062802SAPR3       010SANEPAR     ON      N2   R$  000000000052000000000005270000000000516000000000052300000000005230000000000522000000000052300874000000000000337800000000000176758400000000000000009999123100000010000000000000BRSAPRACNOR9158
012024062802SAPR4       010SANEPAR     PN      N2   R$  000000000055800000000005650000000000556000000000056000000000005590000000000558000000000055902822000000000001074500000000000602457400000000000000009999123100000010000000000000BRSAPRACNPR6158
012024062807NUTR3       010NUTRIPLANT  ON      MA   R$  000000000050600000000005060000000000503000000000050400000000005060000000000500000000000050700019000000000000002000000000000001009100000000000000009999123100000010000000000000BRNUTRACNOR0104
012024062807TXRX4       010TEX RENAUX  PN           R$  000000000022500000000002250000000000225000000000022500000000002250000000000226000000000023600002000000000000000400000000000000090000000000000000009999123100000010000000000000BRTXRXACNPR0142
012024062808CTNM4       010COTEMINAS   PN           R$  000000000006200000000000620000000000062000000000006200000000000620000000000061000000000006200019000000000000085400000000000005294800000000000000009999123100000010000000000000BRCTNMACNPR6129
012024062808CTSA3       010SANTANENSE  ON           R$  000000000021500000000002170000000000215000000000021600000000002170000000000217000000000022100002000000000000000200000000000000043200000000000000009999123100000010000000000000BRCTSAACNOR3062
012024062808CTSA4       010SANTANENSE  PN           R$  000000000008300000000000830000000000081000000000008200000000000820000000000082000000000008400029000000000000010400000000000000853400000000000000009999123100000010000000000000BRCTSAACNPR0062
012024062808PMAM3       010PARANAPANEMAON      NM   R$  000000000024300000000002480000000000236000000000024000000000002380000000000237000000000023900225000000000000069800000000000016816100000000000000009999123100000010000000000000BRPMAMACNOR3039
012024062808SGPS3       010SPRINGS     ON      NM   R$  000000000003700000000000370000000000037000000000003700000000000370000000000036000000000003700023000000000000036500000000000001350500000000000000009999123100000010000000000000BRSGPSACNOR4104
012024062808RSID3       010ROSSI RESID ON      NM   R$  000000000052900000000005340000000000512000000000052300000000005340000000000514000000000053400076000000000000012200000000000006382200000000000000009999123100000010000000000000BRRSIDACNOR8120
012024062808RNEW11      010RENOVA      UNT     N2   R$  000000000027100000000002750000000000271000000000027400000000002750000000000271000000000027500003000000000000000600000000000000164600000000000000009999123100000010000000000000BRRNEWCDAM15110
012024062808RNEW3       010RENOVA      ON      N2   R$  000000000009100000000000920000000000090000000000009000000000000910000000000090000000000009100032000000000000010400000000000000943300000000000000009999123100000010000000000000BRRNEWACNOR8110
012024062808RNEW4       010RENOVA      PN      N2   R$  000000000009400000000000940000000000089000000000009000000000000910000000000091000000000009200077000000000000072600000000000006564400000000000000009999123100000010000000000000BRRNEWACNPR5110
012024062808RPMG3       010PET MANGUINHON           R$  000000000025200000000002600000000000248000000000025400000000002560000000000256000000000025900081000000000000032900000000000008365100000000000000009999123100000010000000000000BRRPMGACNOR9194
012024062808OIBR3       010OI          ON      N1   R$  000000000052500000000005590000000000522000000000053900000000005400000000000537000000000054002027000000000001299000000000000700908900000000000000009999123100000010000000000000BROIBRACNOR1111
012024062808OIBR4       010OI          PN      N1   R$  000000000127600000000014000000000001276000000000134400000000013460000000001346000000000139900132000000000000035400000000000047588800000000000000009999123100000010000000000000BROIBRACNPR8110
012024062808LIGT3       010LIGHT S/A   ON      NM   R$  000000000050900000000005100000000000496000000000050200000000004980000000000498000000000050002171000000000000789900000000000396872800000000000000009999123100000010000000000000BRLIGTACNOR2124
012024062808OSXB3       010OSX BRASIL  ON      NM   R$  000000000039100000000003930000000000391000000000039200000000003920000000000379000000000039200004000000000000000500000000000000196000000000000000009999123100000010000000000000BROSXBACNOR8109
012024062808ATMP3       010ATMASA      ON           R$  000000000021000000000002110000000000190000000000019300000000001910000000000191000000000019500060000000000000061900000000000011978400000000000000009999123100000010000000000000BRATMPACNOR8100
012024062808HOOT4       010HOTEIS OTHONPN           R$  000000000025100000000002510000000000251000000000025100000000002510000000000251000000000027300004000000000000000500000000000000125500000000000000009999123100000010000000000000BRHOOTACNPR9015
012024062808AMER3       010AMERICANAS  ON      NM   R$  000000000004000000000000400000000000038000000000003900000000000390000000000039000000000004001562000000000015319700000000000598194800000000000000009999123100000010000000000000BRAMERACNOR6102
012024062808JFEN3       010JOAO FORTES ON           R$  000000000005300000000000550000000000050000000000005100000000000520000000000051000000000005200603000000000000507700000000000026179100000000000000009999123100000010000000000000BRJFENACNOR0059
012024062808NEXP3       010NEXPE       ON           R$  000000000042900000000004290000000000420000000000042400000000004200000000000419000000000042900002000000000000000200000000000000084900000000000000009999123100000010000000000000BRNEXPACNOR0101
012024062808ETER3       010ETERNIT     ON      NM   R$  000000000060000000000006060000000000591000000000059700000000005910000000000591000000000059500582000000000000125200000000000074792100000000000000009999123100000010000000000000BRETERACNOR3243
012024062810VIVR1       010VIVER       DIR ORD NM   R$  000000000000100000000000010000000000001000000000000100000000000010000000000000000000000000100151000000000000703000000000000000703000000000000000009999123100000010000000000000BRVIVRD18OR3122
012024062810EQTL9       010EQUATORIAL  ON  REC NM   R$  000000000310200000000031090000000003001000000000304200000000031090000000003019000000000310900102000000000000018300000000000055684400000000000000009999123100000010000000000000BREQTLR03OR1129
012024062810RENT1       010LOCALIZA    DIR ORD NM   R$  000000000088000000000009000000000000846000000000088100000000009000000000000861000000000090000031000000000000019700000000000017373800000000000000009999123100000010000000000000BRRENTD06OR8195
012024062810AMAR1       010LOJAS MARISADIR ORD NM   R$  000000000000100000000000010000000000001000000000000100000000000010000000000000000000000000100190000000000000596700000000000000596700000000000000009999123100000010000000000000BRAMARD02OR7114
012024062812BTAL11      010FII BTG AGROCI  ER       R$  000000000749800000000075690000000007400000000000753000000000075440000000007540000000000754400971000000000000008908000000000067085716000000000000009999123100000010000000000000BRBTALCTF003140
012024062812BTCI11      010FII BTG CRI CI           R$  000000000100500000000010090000000001002000000000100500000000010040000000001004000000000100515591000000000000164572000000000165411031000000000000009999123100000010000000000000BRBTCICTF005120
012024062812BTHI11      010BTG HOTEL FICI           R$  000000000409900000000043990000000004099000000000433600000000043900000000004241000000000439001259000000000000005405000000000023437614000000000000009999123100000010000000000000BRBTHICTF004109
012024062812BTLG11      010FII BTLG    CI           R$  000000000989700000000099940000000009881000000000996200000000099750000000009973000000000997514731000000000000140394000000001398631000000000000000009999123100000010000000000000BRBTLGCTF000163
012024062812BTRA11      010FII BTG TAGRCI  ER       R$  000000000512600000000051260000000005069000000000510000000000050730000000005073000000000511300218000000000000002314000000000011801630000000000000009999123100000010000000000000BRBTRACTF000137
012024062812BTSG11      010FII BTSP I  CI           R$  000000001600000000000160000000000016000000000001600000000000160000000000000000000000001600000001000000000000000001000000000000016000000000000000009999123100000010000000000000BRBTSGCTF005131
012024062812CTXT11      010FII C TEXTILCI           R$  000000000087700000000008910000000000838000000000085500000000008790000000000843000000000088000016000000000000000125000000000000106933000000000000009999123100000010000000000000BRCTXTCTF014207
012024062812CVBI11      010FII VBI CRI CI           R$  000000000930000000000094150000000009225000000000934200000000093980000000009381000000000939811245000000000000039878000000000372554884000000000000009999123100000010000000000000BRCVBICTF001166
012024062812CXAG11      010FII CAIXA AGCI           R$  000000000764900000000078230000000007649000000000773900000000077080000000007706000000000773900116000000000000003199000000000024759670000000000000009999123100000010000000000000BRCXAGCTF003128
012024062812CXCE11      010FII CX CEDAECI           R$  000000000418400000000041840000000004010000000000402900000000040240000000004024000000000416501717000000000000002189000000000008819512000000000000009999123100000010000000000000BRCXCECTF004269
012024062812CXCI11      010FII CAIXA CICI           R$  000000000817900000000082860000000008100000000000813900000000082860000000008220000000000828600096000000000000004260000000000034676106000000000000009999123100000010000000000000BRCXCICTF005127
012024062812GTWR11      010FII G TOWERSCI           R$  000000000831500000000084250000000008311000000000834700000000084250000000008415000000000842504794000000000000011057000000000092302994000000000000009999123100000010000000000000BRGTWRCTF003163
012024062812GZIT11      010FII GAZIT   CI  ER       R$  000000000574900000000057500000000005620000000000567100000000057200000000005656000000000572102794000000000000021386000000000121295710000000000000009999123100000010000000000000BRGZITCTF005108
012024062812HABT11      010FII HABIT IICI           R$  000000000891100000000090340000000008902000000000898500000000090240000000009021000000000902401606000000000000018828000000000169174491000000000000009999123100000010000000000000BRHABTCTF001160
012024062812CXCO11      010FII CEF CORPCI           R$  000000000759800000000078480000000007571000000000764300000000076500000000007648000000000765000247000000000000003757000000000028717636000000000000009999123100000010000000000000BRCXCOCTF003138
012024062812CXRI11      010FII CX RBRAVCI           R$  000000000787600000000082000000000007850000000000791600000000082000000000007722000000000819900016000000000000000147000000000001163668000000000000009999123100000010000000000000BRCXRICTF003228
012024062812ICRI11      010FII CI IPCA CI           R$  000000000973500000000097850000000009660000000000971000000000097630000000009709000000000976300274000000000000003631000000000035260021000000000000009999123100000010000000000000BRICRICTF004104
012024062812IDFI11      010FII UNIDADESCI           R$  000000000133000000000013450000000001303000000000133000000000013030000000001302000000000134700023000000000000000341000000000000453782000000000000009999123100000010000000000000BRIDFICTF007132
012024062812IDGR11      010FII UNID II CI           R$  000000000104500000000010450000000001000000000000100000000000010450000000001100000000000567500013000000000000004382000000000004382405000000000000009999123100000010000000000000BRIDGRCTF006127
012024062812LSPA11      010FII LESTE PACI           R$  000000000810000000000083000000000008100000000000812500000000083000000000008500000000000930000006000000000000000012000000000000097500000000000000009999123100000010000000000000BRLSPACTF005139
012024062812LUGG11      010FII LUGGO   CI           R$  000000000745600000000075000000000007456000000000747900000000074990000000007495000000000749900081000000000000000354000000000002647592000000000000009999123100000010000000000000BRLUGGCTF007155
012024062812LVBI11      010FII VBI LOG CI           R$  000000001135100000000114570000000011100000000001117400000000111620000000011162000000001118421140000000000000089745000000001002891534000000000000009999123100000010000000000000BRLVBICTF002169
012024062812PLCR11      010FII PLURAL RCI           R$  000000000848900000000086980000000008460000000000852000000000084860000000008488000000000860401958000000000000004481000000000038180335000000000000009999123100000010000000000000BRPLCRCTF003155
012024062812PLRI11      010FII POLO I  CI           R$  000000000160800000000016080000000001608000000000160800000000016080000000001107000000000161000001000000000000000001000000000000001608000000000000009999123100000010000000000000BRPLRICTF000242
012024062812PMIS11      010FII PMIS    CI           R$  000000000092500000000009370000000000909000000000092200000000009270000000000925000000000092702868000000000000066135000000000061014262000000000000009999123100000010000000000000BRPMISCTF006106
012024062812PNRC11      010FII PNRC    CI           R$  000000001013000000000106360000000010130000000001023100000000106360000000000000000000000000000005000000000000000005000000000000051156000000000000009999123100000010000000000000BRPNRCCTF009114
012024062812PORD11      010FII POLO CRICI           R$  000000000091000000000009110000000000901000000000090700000000009080000000000907000000000090801987000000000000057853000000000052503405000000000000009999123100000010000000000000BRPORDCTF005174
012024062812PQDP11      010FII D PEDRO CI           R$  000000019079900000001919970000000189801000000019123400000001910000000000189806000000019147800010000000000000000022000000000004207166000000000000009999123100000010000000000000BRPQDPCTF004271
