00COTAHIST.2024BOVESPA 20240917                                                                                                                                                                                                                      
012024091702GEPA3       010GER PARANAP ON           R$  000000000285100000000028510000000002851000000000285100000000028510000000002752000000000319000001000000000000000100000000000000285100000000000000009999123100000010000000000000BRGEPAACNOR2153
012024091702GEPA4       010GER PARANAP PN           R$  000000000288500000000029500000000002885000000000294000000000029000000000002851000000000299400010000000000000003300000000000009705000000000000000009999123100000010000000000000BRGEPAACNPR9160
012024091702GFSA3       010GAFISA      ON      NM   R$  000000000025300000000002570000000000252000000000025300000000002540000000000254000000000025501562000000000001434600000000000364043500000000000000009999123100000010000000000000BRGFSAACNOR3125
012024091702GGBR3       010GERDAU      ON      N1   R$  000000000164200000000016460000000001630000000000163700000000016350000000001634000000000164200145000000000000025000000000000040930800000000000000009999123100000010000000000000BRGGBRACNOR1193
012024091702GGBR4       010GERDAU      PN      N1   R$  000000000183800000000018520000000001822000000000183700000000018520000000001851000000000185222297000000000011343200000000020845378300000000000000009999123100000010000000000000BRGGBRACNPR8193
012024091702AZEV3       010AZEVEDO     ON           R$  000000000013200000000001330000000000129000000000013000000000001300000000000130000000000013100448000000000000537600000000000070190700000000000000009999123100000010000000000000BRAZEVACNOR0121
012024091702AZEV4       010AZEVEDO     PN           R$  000000000013300000000001340000000000129000000000013000000000001310000000000130000000000013100700000000000001888800000000000246963300000000000000009999123100000010000000000000BRAZEVACNPR7121
012024091702AZUL4       010AZUL        PN      N2   R$  000000000055500000000006300000000000535000000000059900000000006250000000000624000000000062531155000000000073071200000000043777181500000000000000009999123100000010000000000000BRAZULACNPR4103
012024091702BBDC3       010BRADESCO    ON      N1   R$  000000000138300000000013830000000001366000000000137300000000013780000000001378000000000138005020000000000003313900000000004550850200000000000000009999123100000010000000000000BRBBDCACNOR1774
012024091702BBDC4       010BRADESCO    PN      N1   R$  000000000153500000000015380000000001522000000000152900000000015330000000001533000000000153437071000000000034079400000000052126338000000000000000009999123100000010000000000000BRBBDCACNPR8774
012024091702TTEN3       0103TENTOS     ON      NM   R$  000000000125000000000012590000000001233000000000124800000000012450000000001243000000000124805854000000000001042500000000001301235500000000000000009999123100000010000000000000BRTTENACNOR0103
012024091702TUPY3       010TUPY        ON      NM   R$  000000000269300000000027280000000002668000000000270600000000027180000000002713000000000272501375000000000000194500000000000526424000000000000000009999123100000010000000000000BRTUPYACNOR1184
012024091702UCAS3       010UNICASA     ON      NM   R$  000000000022500000000002270000000000221000000000022200000000002210000000000221000000000022400101000000000000029400000000000006554800000000000000009999123100000010000000000000BRUCASACNOR1113
012024091702UGPA3       010ULTRAPAR    ON      NM   R$  000000000228000000000023110000000002270000000000229000000000023100000000002299000000000231114057000000000004014300000000009195715900000000000000009999123100000010000000000000BRUGPAACNOR8156
012024091702VBBR3       010VIBRA       ON      NM   R$  000000000246700000000024940000000002436000000000247400000000024940000000002490000000000249431323000000000007360000000000018209604800000000000000009999123100000010000000000000BRVBBRACNOR1108
012024091702ITUB3       010ITAUUNIBANCOON      N1   R$  000000000325000000000032500000000003192000000000321000000000032100000000003210000000000321202546000000000000651600000000002091898700000000000000009999123100000010000000000000BRITUBACNOR4340
012024091702ITUB4       010ITAUUNIBANCOPN      N1   R$  000000000369100000000036980000000003666000000000367700000000036910000000003689000000000369232868000000000017636100000000064853348900000000000000009999123100000010000000000000BRITUBACNPR1340
012024091702LUPA3       010LUPATECH    ON      NM   R$  000000000014600000000001460000000000143000000000014300000000001430000000000143000000000014400105000000000000056300000000000008077200000000000000009999123100000010000000000000BRLUPAACNOR8112
012024091702NORD3       010NORDON MET  ON           R$  000000000105600000000011990000000001056000000000110000000000011990000000001128000000000120000011000000000000001100000000000001210800000000000000009999123100000010000000000000BRNORDACNOR7135
012024091702NTCO3       010GRUPO NATURAON      NM   R$  000000000141700000000014460000000001411000000000143300000000014400000000001440000000000144109453000000000004063200000000005825159100000000000000009999123100000010000000000000BRNTCOACNOR5106
012024091702RADL3       010RAIADROGASILON      NM   R$  000000000270100000000027340000000002683000000000270800000000027030000000002703000000000270610496000000000004206400000000011393272200000000000000009999123100000010000000000000BRRADLACNOR0157
012024091702RAIL3       010RUMO S.A.   ON      NM   R$  000000000211100000000021140000000002084000000000209500000000020950000000002093000000000209524420000000000011385300000000023861257600000000000000009999123100000010000000000000BRRAILACNOR9105
012024091702ROMI3       010ROMI        ON      NM   R$  000000000109600000000011140000000001091000000000110400000000011050000000001104000000000110500749000000000000187700000000000207244700000000000000009999123100000010000000000000BRROMIACNOR8195
012024091702RSUL4       010RIOSULENSE  PN           R$  000000000625600000000063110000000006249000000000627700000000062990000000006171000000000637900026000000000000003200000000000020088200000000000000009999123100000010000000000000BRRSULACNPR3114
012024091702SANB11      010SANTANDER BRUNT          R$  000000000306100000000030680000000003034000000000305200000000030660000000003057000000000306604889000000000001005300000000003068561600000000000000009999123100000010000000000000BRSANBCDAM13165
012024091702SANB3       010SANTANDER BRON           R$  000000000145800000000014610000000001448000000000145600000000014600000000001455000000000146000314000000000000060900000000000088718100000000000000009999123100000010000000000000BRSANBACNOR8172
012024091702SANB4       010SANTANDER BRPN           R$  000000000159900000000016030000000001590000000000159700000000016000000000001600000000000160400272000000000000046900000000000074913600000000000000009999123100000010000000000000BRSANBACNPR5172
012024091702VAMO3       010VAMOS       ON      NM   R$  000000000073300000000007400000000000722000000000073400000000007370000000000736000000000073710747000000000005680500000000004170791700000000000000009999123100000010000000000000BRVAMOACNOR7105
012024091702KRSA3       010KORA SAUDE  ON      NM   R$  000000000005200000000000520000000000049000000000005000000000000510000000000050000000000005100272000000000001114400000000000056249500000000000000009999123100000010000000000000BRKRSAACNOR0100
012024091702LAND3       010TERRASANTAPAON      NM   R$  000000000139200000000014390000000001391000000000141200000000014020000000001402000000000141900178000000000000033600000000000047459300000000000000009999123100000010000000000000BRLANDACNOR9103
012024091702LAVV3       010LAVVI       ON      NM   R$  000000000086900000000008750000000000859000000000086600000000008590000000000859000000000087001239000000000000249600000000000216396600000000000000009999123100000010000000000000BRLAVVACNOR4113
012024091702LEVE3       010METAL LEVE  ON      NM   R$  000000000313600000000031430000000003111000000000312700000000031410000000003134000000000314101170000000000000223400000000000698575200000000000000009999123100000010000000000000BRLEVEACNOR2197
012024091702ANIM3       010ANIMA       ON      NM   R$  000000000031900000000003200000000000312000000000031600000000003180000000000317000000000031804217000000000004122800000000001306258700000000000000009999123100000010000000000000BRANIMACNOR6109
012024091702BALM3       010BAUMER      ON           R$  000000000130000000000013000000000001300000000000130000000000013000000000001055000000000145500001000000000000000100000000000000130000000000000000009999123100000010000000000000BRBALMACNOR5055
012024091702BALM4       010BAUMER      PN           R$  000000000106200000000010620000000001060000000000106000000000010600000000001060000000000109900002000000000000001000000000000001060400000000000000009999123100000010000000000000BRBALMACNPR2056
012024091702BAUH4       010EXCELSIOR   PN           R$  000000000795000000000079500000000007950000000000795000000000079500000000005000000000000795000002000000000000000500000000000003975000000000000000009999123100000010000000000000BRBAUHACNPR3118
012024091702BAZA3       010AMAZONIA    ON           R$  000000000943300000000095700000000009323000000000948400000000094980000000009382000000000949900014000000000000002100000000000019917100000000000000009999123100000010000000000000BRBAZAACNOR0179
012024091702BBAS3       010BRASIL      ON  EJ  NM   R$  000000000285700000000028610000000002825000000000283700000000028390000000002838000000000284021942000000000007979400000000022642508300000000000000009999123100000010000000000000BRBBASACNOR3326
012024091702CAMB3       010CAMBUCI     ON           R$  000000000120900000000012100000000001183000000000118900000000011870000000001184000000000118800217000000000000045900000000000054604500000000000000009999123100000010000000000000BRCAMBACNOR4131
012024091702CAML3       010CAMIL       ON      NM   R$  000000000093500000000009550000000000925000000000094600000000009520000000000950000000000095201531000000000000352600000000000333589800000000000000009999123100000010000000000000BRCAMLACNOR3129
012024091702CASH3       010MELIUZ      ON      NM   R$  000000000044000000000004410000000000431000000000043600000000004390000000000437000000000043901112000000000000738600000000000322099900000000000000009999123100000010000000000000BRCASHACNOR8107
012024091702CPFE3       010CPFL ENERGIAON      NM   R$  000000000342500000000034250000000003376000000000339100000000034020000000003383000000000340307633000000000001653300000000005607570000000000000000009999123100000010000000000000BRCPFEACNOR0137
012024091702CPLE3       010COPEL       ON      N2   R$  000000000096800000000009700000000000959000000000096500000000009690000000000968000000000097004122000000000002366800000000002285068200000000000000009999123100000010000000000000BRCPLEACNOR8149
012024091702ABEV3       010AMBEV S/A   ON           R$  000000000127900000000012990000000001279000000000129300000000012960000000001295000000000129722851000000000026068700000000033714307400000000000000009999123100000010000000000000BRABEVACNOR1128
012024091702B3SA3       010B3          ON      NM   R$  000000000121300000000012260000000001203000000000121800000000012260000000001225000000000122620334000000000018077800000000022019953900000000000000009999123100000010000000000000BRB3SAACNOR6133
012024091702BBSE3       010BBSEGURIDADEON      NM   R$  000000000362900000000036310000000003586000000000359700000000035960000000003596000000000359711950000000000002417800000000008699172800000000000000009999123100000010000000000000BRBBSEACNOR5125
012024091702BRSR3       010BANRISUL    ON  EJ  N1   R$  000000000132500000000013250000000001275000000000129900000000013250000000001296000000000132500056000000000000008000000000000010395500000000000000009999123100000010000000000000BRBRSRACNOR3189
012024091702BRSR5       010BANRISUL    PNA EJ  N1   R$  000000000199400000000019940000000001988000000000199200000000019880000000001900000000000198800006000000000000000700000000000001394500000000000000009999123100000010000000000000BRBRSRACNPA6193
012024091702BRSR6       010BANRISUL    PNB EJ  N1   R$  000000000121500000000012280000000001186000000000120700000000012120000000001211000000000121407606000000000002606700000000003147167300000000000000009999123100000010000000000000BRBRSRACNPB4192
012024091702FESA3       010FERBASA     ON  EJ  N1   R$  000000000134100000000013410000000001341000000000134100000000013410000000001341000000000144900001000000000000000100000000000000134100000000000000009999123100000010000000000000BRFESAACNOR8189
012024091702FESA4       010FERBASA     PN  EJ  N1   R$  000000000079300000000007960000000000783000000000079000000000007910000000000791000000000079500895000000000000332500000000000262918400000000000000009999123100000010000000000000BRFESAACNPR5085
012024091702FHER3       010FER HERINGERON      NM   R$  000000000039500000000004000000000000393000000000039400000000003930000000000393000000000040300012000000000000006400000000000002526100000000000000009999123100000010000000000000BRFHERACNOR5103
012024091702FIQE3       010UNIFIQUE    ON      NM   R$  000000000040500000000004050000000000401000000000040400000000004040000000000404000000000040500697000000000000501300000000000202760400000000000000009999123100000010000000000000BRFIQEACNOR5107
012024091702HYPE3       010HYPERA      ON      NM   R$  000000000290600000000029290000000002885000000000291600000000029280000000002927000000000292805760000000000001575700000000004595049100000000000000009999123100000010000000000000BRHYPEACNOR0143
012024091702CRPG5       010CRISTAL     PNA          R$  000000000287000000000028800000000002841000000000284800000000028800000000002841000000000288000014000000000000002300000000000006551900000000000000009999123100000010000000000000BRCRPGACNPA3119
012024091702CRPG6       010CRISTAL     PNB          R$  000000000284900000000028500000000002849000000000284900000000028500000000002801000000000284900050000000000000005000000000000014249400000000000000009999123100000010000000000000BRCRPGACNPB1119
012024091702CSAN3       010COSAN       ON      NM   R$  000000000134200000000013460000000001317000000000133200000000013400000000001338000000000134017622000000000012135400000000016165837000000000000000009999123100000010000000000000BRCSANACNOR6126
012024091702AERI3       010AERIS       ON      NM   R$  000000000084400000000008480000000000820000000000083100000000008200000000000820000000000082100526000000000000183400000000000152480200000000000000009999123100000010000000000000BRAERIACNOR4102
012024091702BEEF3       010MINERVA     ON      NM   R$  000000000067800000000006990000000000673000000000068900000000006950000000000693000000000069607649000000000007207300000000004970308000000000000000009999123100000010000000000000BRBEEFACNOR6116
012024091702BPAC11      010BTGP BANCO  UNT     N2   R$  000000000352700000000035310000000003485000000000351300000000035260000000003525000000000352716166000000000006160000000000021646145300000000000000009999123100000010000000000000BRBPACUNT006119
012024091702BPAC3       010BTGP BANCO  ON      N2   R$  000000000162200000000016500000000001622000000000163800000000016500000000001583000000000165000034000000000000003700000000000006061600000000000000009999123100000010000000000000BRBPACACNOR7134
012024091702BPAC5       010BTGP BANCO  PNA     N2   R$  000000000093100000000009360000000000912000000000092300000000009330000000000912000000000093600029000000000000005300000000000004893900000000000000009999123100000010000000000000BRBPACACNPA0134
012024091702CSED3       010CRUZEIRO EDUON      NM   R$  000000000035700000000003620000000000349000000000035300000000003500000000000350000000000035100878000000000000353600000000000124923000000000000000009999123100000010000000000000BRCSEDACNOR9105
012024091702CSMG3       010COPASA      ON      NM   R$  000000000262600000000026350000000002584000000000260200000000025940000000002591000000000259503857000000000000840700000000002188090200000000000000009999123100000010000000000000BRCSMGACNOR5174
012024091702CSNA3       010SID NACIONALON           R$  000000000118500000000012020000000001184000000000119500000000012020000000001198000000000120207014000000000003496300000000004180358000000000000000009999123100000010000000000000BRCSNAACNOR6261
012024091702BOBR4       010BOMBRIL     PN           R$  000000000023300000000002340000000000227000000000022900000000002270000000000227000000000022900064000000000000032200000000000007384300000000000000009999123100000010000000000000BRBOBRACNPR3128
012024091702CMIN3       010CSNMINERACAOON      N2   R$  000000000070000000000007270000000000682000000000069900000000006900000000000688000000000069016372000000000020723000000000014489214900000000000000009999123100000010000000000000BRCMINACNOR2111
012024091702CYRE3       010CYRELA REALTON      NM   R$  000000000222700000000022480000000002217000000000223500000000022430000000002240000000000224311283000000000002579300000000005767175000000000000000009999123100000010000000000000BRCYREACNOR7140
012024091702ITSA3       010ITAUSA      ON      N1   R$  000000000112000000000011200000000001110000000000111400000000011150000000001115000000000111600213000000000000037600000000000041893000000000000000009999123100000010000000000000BRITSAACNOR0442
012024091702ITSA4       010ITAUSA      PN      N1   R$  000000000111600000000011190000000001108000000000111400000000011150000000001115000000000111624363000000000024223800000000026991022900000000000000009999123100000010000000000000BRITSAACNPR7442
012024091702ARML3       010ARMAC       ON      NM   R$  000000000093200000000009320000000000893000000000090300000000009000000000000900000000000090202077000000000000403400000000000364306500000000000000009999123100000010000000000000BRARMLACNOR1112
012024091702ASAI3       010ASSAI       ON      NM   R$  000000000087500000000008880000000000867000000000088000000000008820000000000881000000000088222644000000000013563600000000011944891700000000000000009999123100000010000000000000BRASAIACNOR0106
012024091702ATOM3       010ATOMPAR     ON           R$  000000000021900000000002190000000000211000000000021400000000002130000000000211000000000021400018000000000000003000000000000000644700000000000000009999123100000010000000000000BRATOMACNOR1106
012024091702BIOM3       010BIOMM       ON      MA   R$  000000000098500000000010260000000000970000000000100100000000010000000000001000000000000100600695000000000000115600000000000115772400000000000000009999123100000010000000000000BRBIOMACNOR2112
012024091702IRBR3       010IRBBRASIL REON      NM   R$  000000000470900000000047420000000004645000000000468100000000046590000000004654000000000466003461000000000000658000000000003080721900000000000000009999123100000010000000000000BRIRBRACNOR4111
012024091702BEES3       010BANESTES    ON           R$  000000000089700000000008990000000000896000000000089700000000008990000000000896000000000089900039000000000000007500000000000006733300000000000000009999123100000010000000000000BRBEESACNOR9395
012024091702BEES4       010BANESTES    PN           R$  000000000095600000000009560000000000950000000000095300000000009520000000000952000000000095500015000000000000001500000000000001429900000000000000009999123100000010000000000000BRBEESACNPR6320
012024091702BGIP4       010BANESE      PN  ES       R$  000000000259800000000025990000000002571000000000258400000000025710000000002505000000000257100004000000000000000400000000000001033900000000000000009999123100000010000000000000BRBGIPACNPR8210
012024091702BHIA3       010CASAS BAHIA ON      NM   R$  000000000061600000000006220000000000607000000000061500000000006210000000000619000000000062102578000000000001699100000000001045779200000000000000009999123100000010000000000000BRBHIAACNOR1102
012024091702BPAN4       010BANCO PAN   PN      N1   R$  000000000106800000000010800000000001063000000000107300000000010770000000001076000000000107702067000000000000538600000000000577918300000000000000009999123100000010000000000000BRBPANACNPR1115
012024091702BRAP3       010BRADESPAR   ON      N1   R$  000000000178900000000017890000000001761000000000177000000000017760000000001769000000000177600666000000000000083800000000000148330500000000000000009999123100000010000000000000BRBRAPACNOR5148
012024091702BRAP4       010BRADESPAR   PN      N1   R$  000000000188700000000018960000000001875000000000188300000000018810000000001880000000000188104688000000000002301800000000004336313400000000000000009999123100000010000000000000BRBRAPACNPR2148
012024091702CBAV3       010CBA         ON      NM   R$  000000000050400000000005040000000000481000000000049100000000004990000000000498000000000049906086000000000005126900000000002519515400000000000000009999123100000010000000000000BRCBAVACNOR5104
012024091702CCRO3       010CCR SA      ON      NM   R$  000000000130900000000013150000000001298000000000130600000000013150000000001305000000000131507127000000000003058700000000003996730400000000000000009999123100000010000000000000BRCCROACNOR2145
012024091702CEAB3       010CEA MODAS   ON      NM   R$  000000000108000000000010910000000001057000000000106900000000010690000000001069000000000107104618000000000001833800000000001961131400000000000000009999123100000010000000000000BRCEABACNOR1102
012024091702CSUD3       010CSU DIGITAL ON      NM   R$  000000000178100000000018000000000001764000000000178200000000018000000000001784000000000180200105000000000000016400000000000029239900000000000000009999123100000010000000000000BRCSUDACNOR5110
012024091702FLRY3       010FLEURY      ON      NM   R$  000000000165900000000016640000000001644000000000165400000000016560000000001655000000000165705006000000000001492400000000002469650000000000000000009999123100000010000000000000BRFLRYACNOR5139
012024091702FRAS3       010FRAS-LE     ON      N1   R$  000000000207900000000020790000000002041000000000206100000000020640000000002063000000000206401481000000000000293800000000000605649000000000000000009999123100000010000000000000BRFRASACNOR0160
012024091702FRIO3       010METALFRIO   ON      NM   R$  000000001069900000000113010000000010512000000001073700000000105120000000009000000000001100000009000000000000001300000000000013958900000000000000009999123100000010000000000000BRFRIOACNOR2111
012024091702AESB3       010AES BRASIL  ON      NM   R$  000000000116300000000011650000000001161000000000116300000000011650000000001164000000000116502603000000000002240800000000002606564500000000000000009999123100000010000000000000BRAESBACNOR7107
012024091702AFLT3       010AFLUENTE T  ON           R$  000000000072300000000007230000000000723000000000072300000000007230000000000718000000000073900001000000000000000200000000000000144600000000000000009999123100000010000000000000BRAFLTACNOR1122
012024091702AGRO3       010BRASILAGRO  ON      NM   R$  000000000268100000000027060000000002669000000000268900000000026820000000002682000000000268402330000000000000373200000000001003898400000000000000009999123100000010000000000000BRAGROACNOR7114
012024091702AGXY3       010AGROGALAXY  ON      NM   R$  000000000011400000000001180000000000112000000000011300000000001130000000000113000000000011400244000000000000195400000000000022250700000000000000009999123100000010000000000000BRAGXYACNOR4103
012024091702AHEB5       010SPTURIS     PNA          R$  000000000410000000000041000000000004100000000000410000000000041000000000004100000000000450000001000000000000000100000000000000410000000000000000009999123100000010000000000000BRAHEBACNPA3106
012024091702ALLD3       010ALLIED      ON      NM   R$  000000000079300000000007930000000000779000000000078400000000007810000000000779000000000078100149000000000000031900000000000025011600000000000000009999123100000010000000000000BRALLDACNOR3106
012024091702ALOS3       010ALLOS       ON      NM   R$  000000000232200000000023230000000002285000000000229500000000022980000000002297000000000230107086000000000002940900000000006752187300000000000000009999123100000010000000000000BRALOSACNOR5101
012024091702ELMD3       010ELETROMIDIA ON      NM   R$  000000000187900000000019000000000001830000000000184800000000018480000000001848000000000184900584000000000000081200000000000150088500000000000000009999123100000010000000000000BRELMDACNOR3101
012024091702EMAE4       010EMAE        PN           R$  000000000416200000000042890000000004151000000000421900000000042490000000003951000000000425000014000000000000002000000000000008438200000000000000009999123100000010000000000000BREMAEACNPR1125
012024091702EMBR3       010EMBRAER     ON      NM   R$  000000000493900000000049960000000004815000000000486000000000048390000000004837000000000484023059000000000005872100000000028540383800000000000000009999123100000010000000000000BREMBRACNOR4191
012024091702IFCM3       010INFRACOMM   ON      NM   R$  000000000001700000000000180000000000016000000000001700000000000180000000000017000000000001800614000000000006693600000000000114344700000000000000009999123100000010000000000000BRIFCMACNOR8101
012024091702IGTI11      010IGUATEMI S.AUNT     N1   R$  000000000224500000000022570000000002206000000000223900000000022270000000002226000000000223310439000000000007022900000000015724400500000000000000009999123100000010000000000000BRIGTICDAM16106
012024091702IGTI3       010IGUATEMI S.AON      N1   R$  000000000027500000000002780000000000272000000000027500000000002750000000000272000000000027500075000000000000036500000000000010049500000000000000009999123100000010000000000000BRIGTIACNOR8106
012024091702INEP3       010INEPAR      ON           R$  000000000020000000000002100000000000194000000000019900000000001960000000000194000000000019700415000000000000148600000000000029588800000000000000009999123100000010000000000000BRINEPACNOR1143
012024091702INEP4       010INEPAR      PN           R$  000000000020300000000002140000000000199000000000020300000000002000000000000199000000000020300138000000000000121500000000000024672300000000000000009999123100000010000000000000BRINEPACNPR8143
012024091702INTB3       010INTELBRAS   ON      NM   R$  000000000228300000000023000000000002256000000000227400000000022820000000002272000000000228303445000000000000739900000000001682994800000000000000009999123100000010000000000000BRINTBACNOR9112
012024091702JALL3       010JALLESMACHADON      NM   R$  000000000066000000000006740000000000656000000000066700000000006740000000000670000000000067401589000000000000660500000000000440992500000000000000009999123100000010000000000000BRJALLACNOR0106
012024091702JBSS3       010JBS         ON      NM   R$  000000000344300000000034890000000003412000000000344100000000034130000000003413000000000341529094000000000009401400000000032358924900000000000000009999123100000010000000000000BRJBSSACNOR8122
012024091702COGN3       010COGNA ON    ON      NM   R$  000000000014400000000001490000000000142000000000014500000000001490000000000148000000000014908610000000000018272600000000002654102700000000000000009999123100000010000000000000BRCOGNACNOR2105
012024091702DASA3       010DASA        ON  ES  NM   R$  000000000032500000000003250000000000310000000000031200000000003100000000000310000000000031201270000000000000530700000000000166014100000000000000009999123100000010000000000000BRDASAACNOR1123
012024091702DESK3       010DESKTOP     ON      NM   R$  000000000158100000000016000000000001572000000000159100000000015990000000001591000000000159900481000000000000118900000000000189233800000000000000009999123100000010000000000000BRDESKACNOR2104
012024091702DEXP3       010DEXXOS PAR  ON      N1   R$  000000000093200000000009320000000000913000000000091800000000009150000000000915000000000092200321000000000000047800000000000043905700000000000000009999123100000010000000000000BRDEXPACNOR1105
012024091702DEXP4       010DEXXOS PAR  PN      N1   R$  000000000092100000000009250000000000921000000000092300000000009220000000000916000000000092200006000000000000002100000000000001939000000000000000009999123100000010000000000000BRDEXPACNPR8105
012024091702DIRR3       010DIRECIONAL  ON      NM   R$  000000000333400000000033890000000003303000000000332700000000033290000000003326000000000332912130000000000002677000000000008908288400000000000000009999123100000010000000000000BRDIRRACNOR0118
012024091702DMVF3       010D1000VFARMA ON      NM   R$  000000000069000000000006900000000000658000000000066900000000006670000000000659000000000066700364000000000000059800000000000040033400000000000000009999123100000010000000000000BRDMVFACNOR9100
012024091702DOHL4       010DOHLER      PN           R$  000000000041900000000004190000000000419000000000041900000000004190000000000419000000000042000005000000000000000500000000000000209500000000000000009999123100000010000000000000BRDOHLACNPR9066
012024091702DOTZ3       010DOTZ SA     ON      NM   R$  000000000061500000000006730000000000613000000000064700000000006580000000000658000000000066600125000000000000031300000000000020277400000000000000009999123100000010000000000000BRDOTZACNOR7101
012024091702DTCY3       010DTCOM-DIRECTON           R$  000000000043000000000004310000000000430000000000043000000000004310000000000430000000000046000006000000000000000700000000000000301100000000000000009999123100000010000000000000BRDTCYACNOR5109
012024091702EQPA3       010EQTL PARA   ON           R$  000000000061500000000006180000000000608000000000061400000000006160000000000614000000000061600023000000000000006800000000000004180000000000000000009999123100000010000000000000BREQPAACNOR1111
012024091702EQTL3       010EQUATORIAL  ON      NM   R$  000000000340000000000034070000000003366000000000338000000000033750000000003373000000000337533794000000000008714300000000029457669300000000000000009999123100000010000000000000BREQTLACNOR0131
012024091702JHSF3       010JHSF PART   ON      NM   R$  000000000045100000000004520000000000448000000000044900000000004520000000000451000000000045201604000000000001774800000000000798245000000000000000009999123100000010000000000000BRJHSFACNOR2139
012024091702JSLG3       010JSL         ON      NM   R$  000000000096000000000009660000000000951000000000096000000000009570000000000956000000000096001566000000000000294500000000000282912500000000000000009999123100000010000000000000BRJSLGACNOR2121
012024091702MILS3       010MILLS       ON      NM   R$  000000000111700000000011350000000001096000000000112200000000011280000000001127000000000113102261000000000000843700000000000946782700000000000000009999123100000010000000000000BRMILSACNOR2128
012024091702MLAS3       010MULTILASER  ON      NM   R$  000000000017900000000001790000000000175000000000017700000000001790000000000178000000000017901472000000000002415900000000000429134200000000000000009999123100000010000000000000BRMLASACNOR9101
012024091702MNPR3       010MINUPAR     ON           R$  000000000160900000000016200000000001609000000000161300000000016200000000001530000000000162000003000000000000000300000000000000483900000000000000009999123100000010000000000000BRMNPRACNOR5122
012024091702MOVI3       010MOVIDA      ON      NM   R$  000000000071700000000007340000000000703000000000072000000000007340000000000731000000000073504690000000000002653700000000001911479200000000000000009999123100000010000000000000BRMOVIACNOR0122
012024091702PLPL3       010PLANOEPLANO ON      NM   R$  000000000127600000000013190000000001248000000000129700000000013050000000001304000000000131502100000000000000651500000000000845491000000000000000009999123100000010000000000000BRPLPLACNOR5104
012024091702HAPV3       010HAPVIDA     ON      NM   R$  000000000046300000000004630000000000453000000000045800000000004610000000000460000000000046129570000000000045999800000000021076939000000000000000009999123100000010000000000000BRHAPVACNOR4114
012024091702HBOR3       010HELBOR      ON      NM   R$  000000000020300000000002050000000000201000000000020200000000002030000000000203000000000020400413000000000000433300000000000087739000000000000000009999123100000010000000000000BRHBORACNOR3118
012024091702HBRE3       010HBR REALTY  ON      NM   R$  000000000050400000000005080000000000500000000000050200000000005030000000000502000000000050300443000000000000210500000000000105856800000000000000009999123100000010000000000000BRHBREACNOR4100
012024091702HBSA3       010HIDROVIAS   ON      NM   R$  000000000034700000000003490000000000345000000000034700000000003470000000000347000000000035001745000000000000515100000000000178928300000000000000009999123100000010000000000000BRHBSAACNOR0100
012024091702HETA4       010HERCULES    PN           R$  000000000068400000000006840000000000684000000000068400000000006840000000000640000000000067400001000000000000000200000000000000136800000000000000009999123100000010000000000000BRHETAACNPR9136
012024091702PNVL3       010DIMED       ON      NM   R$  000000000101900000000010350000000001005000000000102300000000010350000000001030000000000103501485000000000000259000000000000265175800000000000000009999123100000010000000000000BRPNVLACNOR9207
012024091702POMO3       010MARCOPOLO   ON      N2   R$  000000000061700000000006170000000000608000000000061100000000006110000000000611000000000061501069000000000000272400000000000166690900000000000000009999123100000010000000000000BRPOMOACNOR0099
012024091702POMO4       010MARCOPOLO   PN      N2   R$  000000000079800000000007980000000000785000000000079200000000007930000000000793000000000079506992000000000003806200000000003018300200000000000000009999123100000010000000000000BRPOMOACNPR7099
012024091702PORT3       010WILSON SONS ON      NM   R$  000000000173700000000017450000000001728000000000173700000000017390000000001736000000000173901646000000000000558100000000000969584700000000000000009999123100000010000000000000BRPORTACNOR8109
012024091702POSI3       010POSITIVO TECON      NM   R$  000000000060800000000006170000000000601000000000061000000000006150000000000614000000000061503775000000000001297000000000000792185200000000000000009999123100000010000000000000BRPOSIACNOR9116
012024091702PRIO3       010PETRORIO    ON      NM   R$  000000000426900000000043370000000004252000000000431000000000043360000000004335000000000433714490000000000004481000000000019313829100000000000000009999123100000010000000000000BRPRIOACNOR1107
012024091702SMFT3       010SMART FIT   ON      NM   R$  000000000230900000000023090000000002252000000000228400000000022910000000002290000000000229510071000000000001907200000000004356058900000000000000009999123100000010000000000000BRSMFTACNOR1112
012024091702SMTO3       010SAO MARTINHOON      NM   R$  000000000254000000000026320000000002455000000000255000000000026080000000002595000000000260816321000000000004454600000000011362377100000000000000009999123100000010000000000000BRSMTOACNOR3127
012024091702SNSY3       010SANSUY      ON           R$  000000000125000000000012500000000001250000000000125000000000012500000000001180000000000124900002000000000000001500000000000001875000000000000000009999123100000010000000000000BRSNSYACNOR2113
012024091702SNSY5       010SANSUY      PNA          R$  000000000058000000000005800000000000564000000000057600000000005640000000000564000000000058000016000000000000007000000000000004037900000000000000009999123100000010000000000000BRSNSYACNPA5111
012024091702SOJA3       010BOA SAFRA   ON      NM   R$  000000000128600000000012980000000001272000000000128500000000012870000000001287000000000129402423000000000001135000000000001459394600000000000000009999123100000010000000000000BRSOJAACNOR9105
012024091702VALE3       010VALE        ON      NM   R$  000000000583700000000058550000000005790000000000581700000000058220000000005818000000000582231299000000000012056600000000070143294200000000000000009999123100000010000000000000BRVALEACNOR0211
012024091702PFRM3       010PROFARMA    ON      NM   R$  000000000061900000000006250000000000607000000000061300000000006170000000000613000000000061800593000000000000119700000000000073479400000000000000009999123100000010000000000000BRPFRMACNOR1116
012024091702PGMN3       010PAGUE MENOS ON      NM   R$  000000000028800000000002920000000000285000000000028700000000002880000000000286000000000028801488000000000000393400000000000113176500000000000000009999123100000010000000000000BRPGMNACNOR8103
012024091702PINE3       010PINE        ON      N2   R$  000000000054000000000005400000000000512000000000052600000000005120000000000505000000000054000010000000000000003400000000000001789600000000000000009999123100000010000000000000BRPINEACNOR1150
012024091702PINE4       010PINE        PN      N2   R$  000000000049600000000005170000000000493000000000050500000000005090000000000503000000000050901004000000000000321500000000000162473900000000000000009999123100000010000000000000BRPINEACNPR8150
012024091702PLAS3       010PLASCAR PARTON           R$  000000000066500000000006670000000000665000000000066600000000006670000000000630000000000065900006000000000000002200000000000001467100000000000000009999123100000010000000000000BRPLASACNOR2106
012024091702YDUQ3       010YDUQS PART  ON      NM   R$  000000000110300000000011160000000001077000000000109900000000011120000000001111000000000111210020000000000004848200000000005332961900000000000000009999123100000010000000000000BRYDUQACNOR3105
012024091702VITT3       010VITTIA      ON      NM   R$  000000000062100000000006280000000000616000000000062400000000006250000000000620000000000062600710000000000000131400000000000082049300000000000000009999123100000010000000000000BRVITTACNOR4107
012024091702VIVA3       010VIVARA S.A. ON      NM   R$  000000000287100000000028730000000002805000000000283700000000028440000000002836000000000284515243000000000002685300000000007620710100000000000000009999123100000010000000000000BRVIVAACNOR0107
012024091702VIVR3       010VIVER       ON      NM   R$  000000000021000000000002100000000000202000000000020400000000002020000000000202000000000020400125000000000000034900000000000007138300000000000000009999123100000010000000000000BRVIVRACNOR4123
012024091702VIVT3       010TELEF BRASILON           R$  000000000556800000000055970000000005523000000000555400000000055660000000005553000000000556611247000000000001979200000000010992821600000000000000009999123100000010000000000000BRVIVTACNOR0184
012024091702VLID3       010VALID       ON      NM   R$  000000000240000000000024100000000002360000000000238500000000023910000000002390000000000239601128000000000000158600000000000378290600000000000000009999123100000010000000000000BRVLIDACNOR5144
012024091702SEER3       010SER EDUCA   ON      NM   R$  000000000070700000000007340000000000690000000000071300000000007070000000000706000000000070702279000000000000513000000000000365842500000000000000009999123100000010000000000000BRSEERACNOR5119
012024091702SEQL3       010SEQUOIA LOG ON      NM   R$  000000000052100000000005210000000000490000000000049800000000005020000000000500000000000050201239000000000000840200000000000418927900000000000000009999123100000010000000000000BRSEQLACNOR2103
012024091702SHOW3       010TIME FOR FUNON      NM   R$  000000000010500000000001250000000000104000000000011300000000001230000000000122000000000012300709000000000000526500000000000059786500000000000000009999123100000010000000000000BRSHOWACNOR7105
012024091702SHUL4       010SCHULZ      PN           R$  000000000064200000000006510000000000640000000000064500000000006500000000000647000000000065001029000000000000251900000000000162694800000000000000009999123100000010000000000000BRSHULACNPR4156
012024091702SIMH3       010SIMPAR      ON      NM   R$  000000000059500000000006000000000000586000000000059500000000006000000000000599000000000060003848000000000001762100000000001049428700000000000000009999123100000010000000000000BRSIMHACNOR0107
012024091702UNIP3       010UNIPAR      ON           R$  000000000472500000000047250000000004661000000000468500000000046750000000004661000000000469100045000000000000004600000000000021555300000000000000009999123100000010000000000000BRUNIPACNOR7206
012024091702UNIP5       010UNIPAR      PNA          R$  000000000500700000000050070000000005006000000000500600000000050060000000004950000000000509400007000000000000001200000000000006007400000000000000009999123100000010000000000000BRUNIPACNPA0208
012024091702UNIP6       010UNIPAR      PNB          R$  000000000487400000000048810000000004795000000000482500000000048270000000004825000000000482700917000000000000141900000000000684725900000000000000009999123100000010000000000000BRUNIPACNPB8206
012024091702USIM3       010USIMINAS    ON      N1   R$  000000000060100000000006030000000000595000000000059900000000005980000000000598000000000059900575000000000000177300000000000106240400000000000000009999123100000010000000000000BRUSIMACNOR3167
012024091702USIM5       010USIMINAS    PNA     N1   R$  000000000060500000000006120000000000603000000000060800000000006090000000000609000000000061004897000000000006086500000000003700992100000000000000009999123100000010000000000000BRUSIMACNPA6169
012024091702GOAU4       010GERDAU MET  PN      N1   R$  000000000105900000000010720000000001052000000000106200000000010720000000001069000000000107207051000000000007340100000000007795921300000000000000009999123100000010000000000000BRGOAUACNPR8269
012024091702LVTC3       010WDC NETWORKSON      NM   R$  000000000041200000000004200000000000408000000000041500000000004200000000000420000000000042500065000000000000019100000000000007931000000000000000009999123100000010000000000000BRLVTCACNOR4102
012024091702LWSA3       010LWSA        ON      NM   R$  000000000045700000000004600000000000443000000000045000000000004560000000000454000000000045604517000000000003036900000000001368968600000000000000009999123100000010000000000000BRLWSAACNOR8103
012024091702MAPT4       010CEMEPE      PN           R$  000000000052000000000005850000000000480000000000052900000000004800000000000470000000000057000006000000000000000600000000000000317800000000000000009999123100000010000000000000BRMAPTACNPR5106
012024091702MATD3       010MATER DEI   ON      NM   R$  000000000048200000000004880000000000474000000000048000000000004810000000000481000000000048701545000000000000663100000000000318734600000000000000009999123100000010000000000000BRMATDACNOR4104
012024091702MBLY3       010MOBLY       ON      NM   R$  000000000026900000000002690000000000258000000000026200000000002660000000000263000000000026600604000000000000333300000000000087394300000000000000009999123100000010000000000000BRMBLYACNOR5100
012024091702MDIA3       010M.DIASBRANCOON  EJ  NM   R$  000000000267000000000026840000000002627000000000265900000000026660000000002665000000000267603349000000000000739000000000001965662400000000000000009999123100000010000000000000BRMDIAACNOR7136
012024091702MDNE3       010MOURA DUBEUXON      NM   R$  000000000151000000000015100000000001472000000000148700000000014900000000001475000000000149001952000000000000373400000000000555347700000000000000009999123100000010000000000000BRMDNEACNOR9100
012024091702ODPV3       010ODONTOPREV  ON      NM   R$  000000000119200000000011920000000001176000000000118300000000011850000000001184000000000119001634000000000000311300000000000368483500000000000000009999123100000010000000000000BRODPVACNOR4203
012024091702OFSA3       010OUROFINO S/AON      NM   R$  000000000213300000000021900000000002133000000000218000000000021900000000002190000000000220300008000000000000001100000000000002398900000000000000009999123100000010000000000000BROFSAACNOR7118
012024091702ONCO3       010ONCOCLINICASON      NM   R$  000000000058200000000005820000000000535000000000054700000000005600000000000557000000000056121235000000000010813900000000005924446500000000000000009999123100000010000000000000BRONCOACNOR6101
012024091702OPCT3       010OCEANPACT   ON      NM   R$  000000000069800000000006990000000000682000000000068900000000006910000000000690000000000069200666000000000000337200000000000232380400000000000000009999123100000010000000000000BROPCTACNOR0100
012024091702ORVR3       010ORIZON      ON      NM   R$  000000000489700000000048970000000004776000000000479900000000048000000000004800000000000480202199000000000000348000000000001670052700000000000000009999123100000010000000000000BRORVRACNOR0101
012024091702PATI3       010PANATLANTICAON  ED       R$  000000000281700000000028190000000002587000000000274800000000027500000000002515000000000302500008000000000000001100000000000003023000000000000000009999123100000010000000000000BRPATIACNOR6066
012024091702PCAR3       010P.ACUCAR-CBDON      NM   R$  000000000030800000000003110000000000304000000000030700000000003110000000000310000000000031103198000000000004703500000000001448294000000000000000009999123100000010000000000000BRPCARACNOR3167
012024091702RAIZ4       010RAIZEN      PN      N2   R$  000000000030900000000003180000000000307000000000031400000000003150000000000315000000000031608728000000000014435100000000004543157000000000000000009999123100000010000000000000BRRAIZACNPR6111
012024091702RANI3       010IRANI       ON      NM   R$  000000000077600000000007770000000000769000000000077300000000007760000000000773000000000077602243000000000000626700000000000485036100000000000000009999123100000010000000000000BRRANIACNOR5073
012024091702ESTR4       010ESTRELA     PN           R$  000000000052900000000005600000000000499000000000053200000000005010000000000501000000000051900077000000000000018000000000000009593300000000000000009999123100000010000000000000BRESTRACNPR0144
012024091702ETER3       010ETERNIT     ON      NM   R$  000000000057900000000005830000000000576000000000057800000000005810000000000577000000000058100588000000000000144900000000000083758800000000000000009999123100000010000000000000BRETERACNOR3244
012024091702EUCA3       010EUCATEX     ON      N1   R$  000000000176500000000017650000000001765000000000176500000000017650000000001681000000000176500001000000000000000100000000000000176500000000000000009999123100000010000000000000BREUCAACNOR1157
012024091702EUCA4       010EUCATEX     PN      N1   R$  000000000161400000000016410000000001614000000000162800000000016270000000001627000000000163700158000000000000025700000000000041864500000000000000009999123100000010000000000000BREUCAACNPR8044
012024091702EVEN3       010EVEN        ON      NM   R$  000000000065600000000006670000000000650000000000066100000000006670000000000665000000000066701865000000000000658000000000000435405600000000000000009999123100000010000000000000BREVENACNOR8119
012024091702EZTC3       010EZTEC       ON      NM   R$  000000000146300000000014920000000001449000000000147600000000014870000000001483000000000148704407000000000001096700000000001619782800000000000000009999123100000010000000000000BREZTCACNOR0126
012024091702SAPR11      010SANEPAR     UNT     N2   R$  000000000325300000000032660000000003221000000000324300000000032330000000003230000000000324103575000000000000798800000000002591169800000000000000009999123100000010000000000000BRSAPRCDAM13118
012024091702SAPR3       010SANEPAR     ON      N2   R$  000000000060600000000006160000000000600000000000060700000000006080000000000600000000000060800707000000000000150900000000000091724600000000000000009999123100000010000000000000BRSAPRACNOR9159
012024091702SAPR4       010SANEPAR     PN      N2   R$  000000000065700000000006620000000000653000000000065700000000006560000000000654000000000065603509000000000001445300000000000950078800000000000000009999123100000010000000000000BRSAPRACNPR6159
012024091702SBFG3       010GRUPO SBF   ON      NM   R$  000000000176000000000017780000000001745000000000176100000000017650000000001759000000000176803707000000000001127600000000001985927600000000000000009999123100000010000000000000BRSBFGACNOR1103
012024091702SBSP3       010SABESP      ON      NM   R$  000000000963000000000096850000000009550000000000960300000000096190000000009619000000000962012886000000000002246900000000021578653700000000000000009999123100000010000000000000BRSBSPACNOR5161
012024091702TPIS3       010TRIUNFO PARTON      NM   R$  000000000051300000000005280000000000505000000000051400000000005120000000000512000000000051800134000000000000025800000000000013282900000000000000009999123100000010000000000000BRTPISACNOR8118
012024091702TRAD3       010TC          ON      NM   R$  000000000048500000000005200000000000412000000000044800000000004800000000000480000000000048202392000000000001088600000000000488635100000000000000009999123100000010000000000000BRTRADACNOR3102
012024091702TRIS3       010TRISUL      ON      NM   R$  000000000049000000000005120000000000490000000000050500000000005120000000000510000000000051201187000000000000567600000000000286691800000000000000009999123100000010000000000000BRTRISACNOR4118
012024091702TRPL3       010TRAN PAULISTON      N1   R$  000000000318600000000031870000000003172000000000317900000000031800000000003174000000000318700011000000000000001400000000000004450800000000000000009999123100000010000000000000BRTRPLACNOR4185
012024091702TRPL4       010TRAN PAULISTPN      N1   R$  000000000247500000000024790000000002456000000000246300000000024650000000002464000000000246505745000000000001369700000000003374299900000000000000009999123100000010000000000000BRTRPLACNPR1185
012024091702BLAU3       010BLAU        ON      NM   R$  000000000139200000000014580000000001377000000000142500000000014540000000001440000000000145401622000000000000266000000000000379122500000000000000009999123100000010000000000000BRBLAUACNOR8114
012024091702BMEB3       010MERCANTIL   ON      N1   R$  000000000395000000000039500000000003950000000000395000000000039500000000003000000000000397900001000000000000000100000000000000395000000000000000009999123100000010000000000000BRBMEBACNOR8206
012024091702BMEB4       010MERCANTIL   PN      N1   R$  000000000414500000000042190000000004096000000000415300000000041000000000004100000000000415000122000000000000014500000000000060220200000000000000009999123100000010000000000000BRBMEBACNPR5211
012024091702LIPR3       010ELETROPAR   ON           R$  000000000475000000000047500000000004750000000000475000000000047500000000003350000000000485000001000000000000000100000000000000475000000000000000009999123100000010000000000000BRLIPRACNOR7122
012024091702LJQQ3       010QUERO-QUERO ON      NM   R$  000000000040200000000004070000000000395000000000040100000000004000000000000399000000000040003167000000000003857900000000001548078600000000000000009999123100000010000000000000BRLJQQACNOR5104
012024091702LOGG3       010LOG COM PROPON      NM   R$  000000000227800000000023100000000002278000000000229500000000023080000000002293000000000230901723000000000000292900000000000672457500000000000000009999123100000010000000000000BRLOGGACNOR7107
012024091702LOGN3       010LOG-IN      ON      NM   R$  000000000359600000000035960000000003538000000000355200000000035380000000003532000000000355500064000000000000009800000000000034812700000000000000009999123100000010000000000000BRLOGNACNOR3105
012024091702LPSB3       010LOPES BRASILON      NM   R$  000000000019000000000001980000000000175000000000018500000000001760000000000176000000000017700759000000000000549900000000000102069000000000000000009999123100000010000000000000BRLPSBACNOR0114
012024091702LREN3       010LOJAS RENNERON      NM   R$  000000000191600000000019240000000001883000000000189900000000019070000000001902000000000190724432000000000014899800000000028302103500000000000000009999123100000010000000000000BRLRENACNOR1221
012024091702CURY3       010CURY S/A    ON      NM   R$  000000000256700000000025860000000002546000000000256500000000025500000000002549000000000255406089000000000004128600000000010593314900000000000000009999123100000010000000000000BRCURYACNOR3109
012024091702CVCB3       010CVC BRASIL  ON      NM   R$  000000000020300000000002200000000000200000000000021100000000002090000000000209000000000021013219000000000044306500000000009352063900000000000000009999123100000010000000000000BRCVCBACNOR1116
012024091702ENEV3       010ENEVA       ON      NM   R$  000000000139700000000014270000000001378000000000141400000000014130000000001413000000000142524670000000000011749700000000016620237400000000000000009999123100000010000000000000BRENEVACNOR8106
012024091702ENGI11      010ENERGISA    UNT     N2   R$  000000000485300000000048530000000004798000000000482500000000048360000000004817000000000483606626000000000000942700000000004548858900000000000000009999123100000010000000000000BRENGICDAM16136
012024091702ENGI3       010ENERGISA    ON      N2   R$  000000000141100000000014460000000001411000000000143900000000014370000000001433000000000144900011000000000000001500000000000002159500000000000000009999123100000010000000000000BRENGIACNOR0146
012024091702ENGI4       010ENERGISA    PN      N2   R$  000000000085900000000008590000000000842000000000084400000000008440000000000843000000000085100010000000000000001500000000000001267400000000000000009999123100000010000000000000BRENGIACNPR7142
012024091702ENJU3       010ENJOEI      ON      NM   R$  000000000014200000000001570000000000140000000000014800000000001550000000000155000000000015601034000000000001373400000000000204501800000000000000009999123100000010000000000000BRENJUACNOR9100
012024091702EPAR3       010EMBPAR S/A  ON           R$  000000000058200000000005830000000000578000000000058100000000005780000000000578000000000058200017000000000000011000000000000006399300000000000000009999123100000010000000000000BREPARACNOR9105
012024091702EQMA3B      010EQTLMARANHAOON      MB   R$  000000000245000000000024500000000002405000000000242800000000024050000000002405000000000244700007000000000000002600000000000006313700000000000000009999123100000010000000000000BREQMAACNOR8108
012024091702MYPK3       010IOCHP-MAXIONON      NM   R$  000000000116900000000012110000000001152000000000119200000000012110000000001211000000000121204599000000000001144800000000001364803800000000000000009999123100000010000000000000BRMYPKACNOR7155
012024091702NEOE3       010NEOENERGIA  ON      NM   R$  000000000197200000000019910000000001962000000000197500000000019740000000001967000000000197401974000000000000421800000000000833202200000000000000009999123100000010000000000000BRNEOEACNOR3123
012024091702NGRD3       010NEOGRID     ON      NM   R$  000000000011900000000001190000000000112000000000011300000000001120000000000112000000000011400404000000000000438500000000000049861500000000000000009999123100000010000000000000BRNGRDACNOR3104
012024091702NINJ3       010GETNINJAS   ON      NM   R$  000000000047000000000004820000000000468000000000047400000000004700000000000466000000000047300037000000000000029400000000000013963300000000000000009999123100000010000000000000BRNINJACNOR5101
012024091702PRNR3       010PRINER      ON      NM   R$  000000000131600000000013160000000001297000000000130700000000013090000000001305000000000130900490000000000000148700000000000194397400000000000000009999123100000010000000000000BRPRNRACNOR4109
012024091702PSSA3       010PORTO SEGUROON      NM   R$  000000000348900000000034940000000003439000000000346100000000034720000000003463000000000347204780000000000000909300000000003147343800000000000000009999123100000010000000000000BRPSSAACNOR7155
012024091702PTBL3       010PORTOBELLO  ON      NM   R$  000000000049500000000004990000000000490000000000049500000000004980000000000495000000000049800826000000000000278900000000000138072500000000000000009999123100000010000000000000BRPTBLACNOR8132
012024091702PTNT4       010PETTENATI   PN           R$  000000000073500000000007360000000000735000000000073500000000007360000000000735000000000073600011000000000000002500000000000001838700000000000000009999123100000010000000000000BRPTNTACNPR3047
012024091702BMGB4       010BANCO BMG   PN      N1   R$  000000000039200000000003950000000000388000000000039100000000003900000000000390000000000039100753000000000000309000000000000120859500000000000000009999123100000010000000000000BRBMGBACNPR0110
012024091702BMIN4       010MERC INVEST PN           R$  000000000165000000000016500000000001650000000000165000000000016500000000001650000000000178500001000000000000000100000000000000165000000000000000009999123100000010000000000000BRBMINACNPR1176
012024091702BMKS3       010BIC MONARK  ON           R$  000000003300000000000334480000000033000000000003309200000000333000000000032501000000003330000006000000000000000029000000000000959692000000000000009999123100000010000000000000BRBMKSACNOR9166
012024091702BMOB3       010BEMOBI TECH ON      NM   R$  000000000146900000000014750000000001443000000000146200000000014700000000001470000000000147900861000000000000166100000000000242955600000000000000009999123100000010000000000000BRBMOBACNOR7103
012024091702BRAV3       010BRAVA       ON      NM   R$  000000000213100000000021620000000002077000000000212400000000021550000000002153000000000215516979000000000006471500000000013747090100000000000000009999123100000010000000000000BRBRAVACNOR3100
012024091702CEBR3       010CEB         ON           R$  000000000185500000000019070000000001847000000000186700000000018470000000001846000000000186000052000000000000006200000000000011576100000000000000009999123100000010000000000000BRCEBRACNOR5125
012024091702CEBR5       010CEB         PNA          R$  000000000167000000000016700000000001640000000000164300000000016400000000001640000000000166900011000000000000005800000000000009531900000000000000009999123100000010000000000000BRCEBRACNPA8124
012024091702CEBR6       010CEB         PNB          R$  000000000180000000000018730000000001792000000000181500000000017920000000001792000000000179700049000000000000014600000000000026503100000000000000009999123100000010000000000000BRCEBRACNPB6124
012024091702SRNA3       010SERENA      ON      NM   R$  000000000089700000000009110000000000897000000000090200000000009010000000000900000000000090103778000000000001425900000000001286653400000000000000009999123100000010000000000000BRSRNAACNOR4100
012024091702STBP3       010SANTOS BRP  ON      NM   R$  000000000137100000000013770000000001349000000000136000000000013560000000001354000000000135608074000000000002360800000000003210913700000000000000009999123100000010000000000000BRSTBPACNOR3131
012024091702SUZB3       010SUZANO S.A. ON      NM   R$  000000000528300000000053540000000005253000000000531500000000053290000000005325000000000533015980000000000003894100000000020699604700000000000000009999123100000010000000000000BRSUZBACNOR0130
012024091702WEST3       010WESTWING    ON      NM   R$  000000000008500000000000880000000000085000000000008600000000000860000000000085000000000008600032000000000000042400000000000003651700000000000000009999123100000010000000000000BRWESTACNOR3100
012024091702WHRL3       010WHIRLPOOL   ON  ED       R$  000000000043900000000004540000000000438000000000044200000000004430000000000444000000000044800019000000000000004100000000000001812700000000000000009999123100000010000000000000BRWHRLACNOR5129
012024091702WHRL4       010WHIRLPOOL   PN  ED       R$  000000000046500000000004910000000000463000000000047000000000004710000000000471000000000047600054000000000000035100000000000016517800000000000000009999123100000010000000000000BRWHRLACNPR2129
012024091702WIZC3       010WIZ CO      ON      NM   R$  000000000059600000000006000000000000583000000000058800000000005890000000000589000000000059102465000000000000961300000000000565629600000000000000009999123100000010000000000000BRWIZCACNOR5102
012024091702WLMM4       010WLM IND COM PN           R$  000000000317500000000031750000000003168000000000317000000000031680000000002983000000000316900003000000000000000300000000000000951100000000000000009999123100000010000000000000BRWLMMACNPR3119
012024091702CEEB3       010COELBA      ON           R$  000000000373600000000038400000000003735000000000377000000000038400000000003747000000000385000003000000000000000300000000000001131100000000000000009999123100000010000000000000BRCEEBACNOR3199
012024091702CGAS5       010COMGAS      PNA          R$  000000001279300000000129010000000012446000000001271100000000127000000000012700000000001280000021000000000000002500000000000031777700000000000000009999123100000010000000000000BRCGASACNPA3161
012024091702CGRA3       010GRAZZIOTIN  ON           R$  000000000253100000000025310000000002491000000000250600000000024910000000002491000000000253700004000000000000000400000000000001002500000000000000009999123100000010000000000000BRCGRAACNOR2083
012024091702CGRA4       010GRAZZIOTIN  PN           R$  000000000249600000000025150000000002487000000000249400000000025150000000002511000000000252000024000000000000002500000000000006235800000000000000009999123100000010000000000000BRCGRAACNPR9083
012024091702CLSA3       010CLEARSALE   ON      NM   R$  000000000082300000000008230000000000780000000000079200000000007980000000000794000000000079803708000000000002022000000000001602791800000000000000009999123100000010000000000000BRCLSAACNOR0100
012024091702CLSC3       010CELESC      ON      N2   R$  000000000763000000000076300000000007630000000000763000000000076300000000007600000000000790000001000000000000000300000000000002289000000000000000009999123100000010000000000000BRCLSCACNOR6152
012024091702CLSC4       010CELESC      PN      N2   R$  000000000845500000000084960000000008328000000000845000000000083280000000008124000000000845600013000000000000002500000000000021125800000000000000009999123100000010000000000000BRCLSCACNPR3131
012024091702CMIG3       010CEMIG       ON      N1   R$  000000000147900000000014820000000001457000000000146900000000014760000000001470000000000147600428000000000000080800000000000118719300000000000000009999123100000010000000000000BRCMIGACNOR6243
012024091702CMIG4       010CEMIG       PN      N1   R$  000000000117400000000011750000000001158000000000116700000000011720000000001171000000000117315797000000000007261600000000008476600900000000000000009999123100000010000000000000BRCMIGACNPR3244
012024091702CXSE3       010CAIXA SEGURION      NM   R$  000000000152100000000015270000000001505000000000151200000000015050000000001505000000000151005438000000000001494800000000002261172800000000000000009999123100000010000000000000BRCXSEACNOR7107
012024091702ESPA3       010ESPACOLASER ON      NM   R$  000000000011000000000001110000000000108000000000010900000000001110000000000109000000000011100257000000000000110800000000000012114500000000000000009999123100000010000000000000BRESPAACNOR7103
012024091702AURE3       010AUREN       ON      NM   R$  000000000111100000000011140000000001103000000000110600000000011070000000001106000000000110705624000000000003963800000000004387714900000000000000009999123100000010000000000000BRAUREACNOR9104
012024091702AVLL3       010ALPHAVILLE  ON      NM   R$  000000000034800000000003530000000000340000000000034700000000003460000000000339000000000034600032000000000000009800000000000003403700000000000000009999123100000010000000000000BRAVLLACNOR5103
012024091702RECV3       010PETRORECSA  ON      NM   R$  000000000187300000000018880000000001846000000000187200000000018840000000001880000000000188404829000000000001380500000000002585326000000000000000009999123100000010000000000000BRRECVACNOR3107
012024091702REDE3       010REDE ENERGIAON           R$  000000000069100000000006920000000000691000000000069100000000006920000000000692000000000069500003000000000000000300000000000000207400000000000000009999123100000010000000000000BRREDEACNOR7128
012024091702RENT3       010LOCALIZA    ON      NM   R$  000000000436600000000044390000000004316000000000440600000000044290000000004424000000000443019270000000000004662900000000020546064100000000000000009999123100000010000000000000BRRENTACNOR4196
012024091702SLCE3       010SLC AGRICOLAON      NM   R$  000000000172000000000017370000000001710000000000172400000000017320000000001730000000000173204778000000000001542400000000002660318800000000000000009999123100000010000000000000BRSLCEACNOR2125
012024091702QUAL3       010QUALICORP   ON      NM   R$  000000000021800000000002200000000000214000000000021700000000002170000000000215000000000021701698000000000002239400000000000486440600000000000000009999123100000010000000000000BRQUALACNOR6120
012024091702TASA3       010TAURUS ARMASON      N2   R$  000000000111000000000011240000000001109000000000111100000000011110000000001111000000000111700103000000000000025400000000000028235800000000000000009999123100000010000000000000BRTASAACNOR7104
012024091702TASA4       010TAURUS ARMASPN      N2   R$  000000000110900000000011210000000001101000000000110500000000011010000000001100000000000110101372000000000000333700000000000368801700000000000000009999123100000010000000000000BRTASAACNPR4104
012024091702TCSA3       010TECNISA     ON      NM   R$  000000000019200000000001960000000000188000000000019200000000001930000000000191000000000019600117000000000000060700000000000011658900000000000000009999123100000010000000000000BRTCSAACNOR3112
012024091702TECN3       010TECHNOS     ON      NM   R$  000000000050900000000005100000000000503000000000050600000000005090000000000507000000000050900126000000000000054600000000000027658000000000000000009999123100000010000000000000BRTECNACNOR6109
012024091702TELB3       010TELEBRAS    ON           R$  000000000139000000000013900000000001340000000000137500000000013900000000001366000000000140000008000000000000000800000000000001100700000000000000009999123100000010000000000000BRTELBACNOR2140
012024091702VSTE3       010VESTE       ON      NM   R$  000000000130900000000013890000000001307000000000133400000000013290000000001308000000000132900140000000000000065400000000000087296800000000000000009999123100000010000000000000BRVSTEACNOR5103
012024091702VTRU3       010VITRUEDUCA  ON      NM   R$  000000000096000000000009700000000000933000000000094500000000009330000000000933000000000093801123000000000000333400000000000315284900000000000000009999123100000010000000000000BRVTRUACNOR3100
012024091702VULC3       010VULCABRAS   ON      NM   R$  000000000178800000000018050000000001783000000000179200000000018050000000001796000000000180501572000000000000333200000000000597421600000000000000009999123100000010000000000000BRVULCACNOR2161
012024091702VVEO3       010VIVEO       ON      NM   R$  000000000022500000000002520000000000225000000000024200000000002430000000000243000000000024504651000000000006658500000000001617520600000000000000009999123100000010000000000000BRVVEOACNOR0104
012024091702TELB4       010TELEBRAS    PN           R$  000000000091500000000009210000000000896000000000090400000000009190000000000903000000000091900033000000000000009300000000000008414200000000000000009999123100000010000000000000BRTELBACNPR9140
012024091702TEND3       010TENDA       ON      NM   R$  000000000144200000000014790000000001427000000000145700000000014580000000001458000000000145907787000000000003047300000000004440771500000000000000009999123100000010000000000000BRTENDACNOR4111
012024091702TFCO4       010TRACK FIELD PN      N2   R$  000000000114800000000011600000000001124000000000114400000000011550000000001150000000000115601106000000000000170300000000000194965000000000000000009999123100000010000000000000BRTFCOACNPR8114
012024091702TGMA3       010TEGMA       ON      NM   R$  000000000281200000000028270000000002776000000000279500000000027870000000002781000000000278700566000000000000096900000000000270898400000000000000009999123100000010000000000000BRTGMAACNOR7145
012024091702TIMS3       010TIM         ON      NM   R$  000000000186600000000018700000000001847000000000185700000000018640000000001860000000000186408998000000000005300200000000009845860500000000000000009999123100000010000000000000BRTIMSACNOR5117
012024091702TOTS3       010TOTVS       ON      NM   R$  000000000302500000000030250000000002980000000000300200000000029980000000002996000000000299808331000000000004572300000000013727417100000000000000009999123100000010000000000000BRTOTSACNOR8145
012024091702WEGE3       010WEG         ON      NM   R$  000000000530000000000053480000000005276000000000531700000000053320000000005332000000000533915475000000000004258700000000022644512100000000000000009999123100000010000000000000BRWEGEACNOR0224
012024091702KEPL3       010KEPLER WEBERON      NM   R$  000000000111100000000011110000000001088000000000109500000000010940000000001093000000000109801303000000000000386600000000000423704400000000000000009999123100000010000000000000BRKEPLACNOR1064
012024091702KLBN11      010KLABIN S/A  UNT     N2   R$  000000000217200000000021720000000002144000000000215100000000021560000000002155000000000215708466000000000002794400000000006011702300000000000000009999123100000010000000000000BRKLBNCDAM18143
012024091702KLBN3       010KLABIN S/A  ON      N2   R$  000000000044000000000004400000000000432000000000043300000000004330000000000433000000000043400416000000000000159100000000000068981900000000000000009999123100000010000000000000BRKLBNACNOR2171
012024091702KLBN4       010KLABIN S/A  PN      N2   R$  000000000043300000000004340000000000428000000000042900000000004280000000000428000000000043001991000000000001185000000000000509056300000000000000009999123100000010000000000000BRKLBNACNPR9171
012024091702GRND3       010GRENDENE    ON      NM   R$  000000000060900000000006120000000000603000000000060800000000006120000000000607000000000061200976000000000000389800000000000237221800000000000000009999123100000010000000000000BRGRNDACNOR3175
012024091702GSHP3       010GENERALSHOPPON           R$  000000000103100000000010310000000001031000000000103100000000010310000000001031000000000108200002000000000000000400000000000000412400000000000000009999123100000010000000000000BRGSHPACNOR7102
012024091702GUAR3       010GUARARAPES  ON      NM   R$  000000000090500000000009050000000000878000000000088600000000008940000000000887000000000089402923000000000000642200000000000569303300000000000000009999123100000010000000000000BRGUARACNOR4173
012024091702MRVE3       010MRV         ON      NM   R$  000000000081000000000008130000000000795000000000080600000000008110000000000809000000000081110095000000000007078700000000005706268400000000000000009999123100000010000000000000BRMRVEACNOR2127
012024091702MTRE3       010MITRE REALTYON      NM   R$  000000000038900000000003930000000000383000000000038800000000003880000000000388000000000039200769000000000000322200000000000125316800000000000000009999123100000010000000000000BRMTREACNOR6114
012024091702MTSA4       010METISA      PN           R$  000000000406600000000041100000000004066000000000408800000000040900000000004073000000000409000021000000000000002500000000000010220300000000000000009999123100000010000000000000BRMTSAACNPR9072
012024091702HAGA3       010HAGA S/A    ON           R$  000000000025000000000002500000000000244000000000024400000000002440000000000244000000000024700012000000000000008800000000000002148400000000000000009999123100000010000000000000BRHAGAACNOR7103
012024091702HAGA4       010HAGA S/A    PN           R$  000000000011800000000001180000000000117000000000011700000000001170000000000117000000000011800007000000000000002400000000000000281300000000000000009999123100000010000000000000BRHAGAACNPR4103
012024091702MEAL3       010IMC S/A     ON      NM   R$  000000000014200000000001450000000000142000000000014300000000001440000000000143000000000014400358000000000000148700000000000021374600000000000000009999123100000010000000000000BRMEALACNOR9105
012024091702MELK3       010MELNICK     ON      NM   R$  000000000035200000000003680000000000349000000000035700000000003630000000000362000000000036301404000000000002015900000000000720511700000000000000009999123100000010000000000000BRMELKACNOR8111
012024091702MULT3       010MULTIPLAN   ON      N2   R$  000000000275700000000027570000000002702000000000272000000000027160000000002715000000000273116076000000000003899900000000010611290300000000000000009999123100000010000000000000BRMULTACNOR5139
012024091702SYNE3       010SYN PROP TECON      NM   R$  000000000080600000000008060000000000790000000000079700000000007940000000000794000000000079701368000000000000377300000000000300759700000000000000009999123100000010000000000000BRSYNEACNOR2103
012024091702MGEL4       010MANGELS INDLPN           R$  000000000122700000000013000000000001227000000000124000000000012270000000001227000000000129600014000000000000001600000000000001984300000000000000009999123100000010000000000000BRMGELACNPR3147
012024091702MGLU3       010MAGAZ LUIZA ON  ATZ NM   R$  000000000116000000000011900000000001149000000000117200000000011880000000001187000000000118817900000000000013192600000000015465026400000000000000009999123100000010000000000000BRMGLUACNOR2125
012024091702PDGR3       010PDG REALT   ON      NM   R$  000000000001600000000000160000000000015000000000001500000000000150000000000015000000000001600273000000000001005100000000000015624600000000000000009999123100000010000000000000BRPDGRACNOR8119
012024091702PDTC3       010PADTEC      ON      NM   R$  000000000018800000000001900000000000186000000000018700000000001890000000000188000000000018900060000000000000044400000000000008308200000000000000009999123100000010000000000000BRPDTCACNOR3101
012024091702PEAB3       010PAR AL BAHIAON           R$  000000000430000000000043000000000004300000000000430000000000043000000000000000000000000444900002000000000000000300000000000001290000000000000000009999123100000010000000000000BRPEABACNOR3133
012024091702PETR3       010PETROBRAS   ON      N2   R$  000000000407000000000040700000000004010000000000403400000000040520000000004050000000000405216985000000000005309200000000021420451800000000000000009999123100000010000000000000BRPETRACNOR9206
012024091702PETR4       010PETROBRAS   PN      N2   R$  000000000371700000000037190000000003670000000000368800000000037040000000003703000000000370461124000000000023443700000000086472388900000000000000009999123100000010000000000000BRPETRACNPR6214
012024091702PETZ3       010PETZ        ON      NM   R$  000000000045300000000004750000000000450000000000046300000000004720000000000471000000000047310624000000000015868600000000007359610200000000000000009999123100000010000000000000BRPETZACNOR2110
012024091702RAPT3       010RANDON PART ON      N1   R$  000000000088300000000008860000000000875000000000088100000000008840000000000884000000000088500112000000000000027700000000000024405600000000000000009999123100000010000000000000BRRAPTACNOR7163
012024091702ALPA3       010ALPARGATAS  ON      N1   R$  000000000074000000000007520000000000739000000000074000000000007390000000000738000000000075800008000000000000001400000000000001036000000000000000009999123100000010000000000000BRALPAACNOR0231
012024091702ALPA4       010ALPARGATAS  PN      N1   R$  000000000073400000000007480000000000731000000000074100000000007430000000000738000000000074404469000000000001892000000000001402668000000000000000009999123100000010000000000000BRALPAACNPR7232
012024091702ALPK3       010ESTAPAR     ON      NM   R$  000000000033000000000003340000000000325000000000033000000000003340000000000330000000000033400221000000000000081200000000000026819100000000000000009999123100000010000000000000BRALPKACNOR9101
012024091702ALUP11      010ALUPAR      UNT     N2   R$  000000000314000000000031650000000003103000000000312900000000031420000000003142000000000315203385000000000000923600000000002890307700000000000000009999123100000010000000000000BRALUPCDAM15120
012024091702ALUP3       010ALUPAR      ON      N2   R$  000000000106900000000010840000000001058000000000107600000000010750000000001059000000000107500027000000000000003800000000000004089100000000000000009999123100000010000000000000BRALUPACNOR8120
012024091702ALUP4       010ALUPAR      PN      N2   R$  000000000102600000000010400000000001022000000000102900000000010390000000001027000000000104000051000000000000009300000000000009572800000000000000009999123100000010000000000000BRALUPACNPR5120
012024091702AMAR3       010LOJAS MARISAON      NM   R$  000000000011100000000001110000000000108000000000010900000000001090000000000109000000000011000586000000000000576700000000000063221600000000000000009999123100000010000000000000BRAMARACNOR4115
012024091702AMBP3       010AMBIPAR     ON      NM   R$  000000000689000000000071900000000006865000000000705900000000069490000000006949000000000697001100000000000000183900000000001298315900000000000000009999123100000010000000000000BRAMBPACNOR6103
012024091702RAPT4       010RANDON PART PN      N1   R$  000000000111200000000011150000000001097000000000110600000000011130000000001111000000000111302405000000000002033200000000002250627600000000000000009999123100000010000000000000BRRAPTACNPR4163
012024091702TAEE11      010TAESA       UNT     N2   R$  000000000350000000000035200000000003461000000000347300000000034650000000003465000000000348009718000000000002649200000000009201853000000000000000009999123100000010000000000000BRTAEECDAM10148
012024091702TAEE3       010TAESA       ON      N2   R$  000000000116900000000011690000000001151000000000115500000000011550000000001155000000000115600681000000000000124800000000000144182400000000000000009999123100000010000000000000BRTAEEACNOR9148
012024091702TAEE4       010TAESA       PN      N2   R$  000000000117600000000011800000000001158000000000116200000000011600000000001160000000000116401399000000000000319900000000000371821200000000000000009999123100000010000000000000BRTAEEACNPR6148
012024091702ZAMP3       010ZAMP S.A.   ON           R$  000000000031200000000003150000000000305000000000030900000000003080000000000308000000000031301241000000000000334200000000000103506900000000000000009999123100000010000000000000BRZAMPACNOR5101
012024091702MRFG3       010MARFRIG     ON      NM   R$  000000000144600000000014850000000001433000000000146800000000014700000000001469000000000147117223000000000004898400000000007191601600000000000000009999123100000010000000000000BRMRFGACNOR0116
012024091702RCSL3       010RECRUSUL    ON           R$  000000000076500000000007960000000000681000000000073900000000006810000000000681000000000068206479000000000002551600000000001887940300000000000000009999123100000010000000000000BRRCSLACNOR4134
012024091702RCSL4       010RECRUSUL    PN           R$  000000000010400000000001040000000000099000000000010000000000001000000000000099000000000010000224000000000000251600000000000025315200000000000000009999123100000010000000000000BRRCSLACNPR1134
012024091702RDNI3       010RNI         ON      NM   R$  000000000031100000000003150000000000311000000000031300000000003110000000000310000000000031300008000000000000000800000000000000250400000000000000009999123100000010000000000000BRRDNIACNOR9116
012024091702RDOR3       010REDE D OR   ON      NM   R$  000000000344400000000034560000000003390000000000340700000000034080000000003395000000000341012006000000000003234700000000011022449000000000000000009999123100000010000000000000BRRDORACNOR8113
012024091702SCAR3       010SAO CARLOS  ON      NM   R$  000000000232200000000023640000000002322000000000233300000000023640000000002320000000000237900007000000000000002800000000000006532700000000000000009999123100000010000000000000BRSCARACNOR7131
012024091702BRBI11      010BR PARTNERS UNT     N2   R$  000000000153900000000015630000000001532000000000154700000000015630000000001555000000000156300730000000000000113400000000000175473900000000000000009999123100000010000000000000BRBRBICDAM10110
012024091702BRFS3       010BRF SA      ON      NM   R$  000000000251100000000025220000000002487000000000250300000000025010000000002501000000000250312212000000000004369800000000010937776200000000000000009999123100000010000000000000BRBRFSACNOR8122
012024091702COCE5       010COELCE      PNA          R$  000000000295000000000029980000000002932000000000296100000000029790000000002916000000000298000038000000000000007000000000000020731300000000000000009999123100000010000000000000BRCOCEACNPA3147
012024091702AALR3       010ALLIAR      ON      NM   R$  000000000162000000000016200000000001567000000000159100000000015740000000001573000000000159500124000000000000019200000000000030562000000000000000009999123100000010000000000000BRAALRACNOR6102
012024091702ABCB4       010ABC BRASIL  PN      N2   R$  000000000233500000000023350000000002307000000000231800000000023190000000002318000000000231901328000000000000184100000000000426838400000000000000009999123100000010000000000000BRABCBACNPR4146
012024091702BSLI3       010BRB BANCO   ON           R$  000000000094000000000009420000000000940000000000094100000000009420000000000942000000000096200005000000000000000700000000000000659200000000000000009999123100000010000000000000BRBSLIACNOR5194
012024091702BSLI4       010BRB BANCO   PN           R$  000000000093200000000009490000000000931000000000093700000000009310000000000931000000000094800003000000000000000300000000000000281200000000000000009999123100000010000000000000BRBSLIACNPR2194
012024091702CPLE5       010COPEL       PNA     N2   R$  000000000115000000000011500000000001150000000000115000000000011500000000001110000000000117500001000000000000000100000000000000115000000000000000009999123100000010000000000000BRCPLEACNPA1147
012024091702CPLE6       010COPEL       PNB     N2   R$  000000000108200000000010820000000001070000000000107400000000010800000000001079000000000108013066000000000006779500000000007282113700000000000000009999123100000010000000000000BRCPLEACNPB9146
012024091702CRFB3       010CARREFOUR BRON      NM   R$  000000000089500000000009130000000000884000000000090300000000009070000000000904000000000090711353000000000008645800000000007808310200000000000000009999123100000010000000000000BRCRFBACNOR2116
012024091702AZZA3       010AZZAS 2154  ON      NM   R$  000000000477000000000047890000000004688000000000471600000000047140000000004712000000000471506397000000000001767100000000008333726200000000000000009999123100000010000000000000BRAZZAACNOR9100
012024091702BRIT3       010BRISANET    ON      NM   R$  000000000033500000000003390000000000327000000000033300000000003390000000000334000000000033900976000000000000245300000000000081700000000000000000009999123100000010000000000000BRBRITACNOR0103
012024091702BRKM3       010BRASKEM     ON      N1   R$  000000000192100000000019300000000001853000000000189400000000018890000000001870000000000189000067000000000000008500000000000016100600000000000000009999123100000010000000000000BRBRKMACNOR1119
012024091702BRKM5       010BRASKEM     PNA     N1   R$  000000000192000000000019350000000001876000000000189900000000018890000000001889000000000189207199000000000002195000000000004169729700000000000000009999123100000010000000000000BRBRKMACNPA4121
012024091702EGIE3       010ENGIE BRASILON      NM   R$  000000000442600000000044260000000004371000000000440400000000044150000000004410000000000441504081000000000000699600000000003081529000000000000000009999123100000010000000000000BREGIEACNOR9127
012024091702EKTR4       010ELEKTRO     PN           R$  000000000448600000000045410000000004486000000000450900000000045010000000004500000000000453600016000000000000001700000000000007665500000000000000009999123100000010000000000000BREKTRACNPR7164
012024091702ELET3       010ELETROBRAS  ON      N1   R$  000000000418700000000042200000000004150000000000419200000000042180000000004208000000000421814429000000000004349400000000018235954600000000000000009999123100000010000000000000BRELETACNOR6160
012024091702ELET6       010ELETROBRAS  PNB     N1   R$  000000000460200000000046560000000004580000000000462700000000046430000000004641000000000464303240000000000000581500000000002690834600000000000000009999123100000010000000000000BRELETACNPB7077
012024091702GGPS3       010GPS         ON      NM   R$  000000000187800000000019140000000001868000000000190000000000019040000000001903000000000190809583000000000002667300000000005068263200000000000000009999123100000010000000000000BRGGPSACNOR9103
012024091702GMAT3       010GRUPO MATEUSON      NM   R$  000000000074000000000007460000000000733000000000074000000000007420000000000741000000000074204705000000000001905800000000001411197600000000000000009999123100000010000000000000BRGMATACNOR7102
012024091702GOAU3       010GERDAU MET  ON      N1   R$  000000000107000000000010880000000001069000000000107700000000010870000000001078000000000108800142000000000000024900000000000026834000000000000000009999123100000010000000000000BRGOAUACNOR1268
012024091702DXCO3       010DEXCO       ON      NM   R$  000000000080900000000008090000000000799000000000080300000000008080000000000805000000000080802771000000000000896900000000000721023900000000000000009999123100000010000000000000BRDXCOACNOR8105
012024091702EALT3       010ACO ALTONA  ON           R$  000000000150000000000015000000000001491000000000149400000000014920000000001490000000000150800011000000000000002100000000000003137500000000000000009999123100000010000000000000BREALTACNOR4138
012024091702EALT4       010ACO ALTONA  PN           R$  000000000146800000000014690000000001351000000000138300000000013520000000001352000000000136100193000000000000038200000000000052835200000000000000009999123100000010000000000000BREALTACNPR1138
012024091702ECOR3       010ECORODOVIAS ON      NM   R$  000000000079200000000007920000000000778000000000078500000000007890000000000786000000000078902272000000000001076500000000000845492000000000000000009999123100000010000000000000BRECORACNOR8120
012024091707TXRX4       010TEX RENAUX  PN           R$  000000000022600000000002300000000000226000000000022800000000002300000000000226000000000023000002000000000000000200000000000000045600000000000000009999123100000010000000000000BRTXRXACNPR0142
012024091707NUTR3       010NUTRIPLANT  ON      MA   R$  000000000048700000000004870000000000461000000000047100000000004610000000000461000000000046400025000000000000004900000000000002307900000000000000009999123100000010000000000000BRNUTRACNOR0104
012024091708RNEW11      010RENOVA      UNT     N2   R$  000000000030900000000003090000000000298000000000029900000000002980000000000298000000000031000011000000000000002400000000000000719400000000000000009999123100000010000000000000BRRNEWCDAM15110
012024091708RNEW3       010RENOVA      ON      N2   R$  000000000010300000000001030000000000097000000000009900000000000990000000000098000000000009900087000000000000086200000000000008534800000000000000009999123100000010000000000000BRRNEWACNOR8110
012024091708RNEW4       010RENOVA      PN      N2   R$  000000000010000000000001020000000000098000000000009900000000000980000000000098000000000009900223000000000000312700000000000031141400000000000000009999123100000010000000000000BRRNEWACNPR5110
012024091708RPMG3       010PET MANGUINHON           R$  000000000030000000000003040000000000294000000000029800000000002970000000000297000000000030000082000000000000021200000000000006336000000000000000009999123100000010000000000000BRRPMGACNOR9194
012024091708RSID3       010ROSSI RESID ON      NM   R$  000000000039900000000004130000000000353000000000037300000000003640000000000362000000000036400313000000000000130900000000000048828100000000000000009999123100000010000000000000BRRSIDACNOR8120
012024091708ATMP3       010ATMASA      ON           R$  000000000013900000000001390000000000136000000000013600000000001360000000000136000000000013900008000000000000005200000000000000710800000000000000009999123100000010000000000000BRATMPACNOR8100
012024091708CTSA3       010SANTANENSE  ON           R$  000000000027600000000002760000000000265000000000027200000000002650000000000264000000000027700003000000000000000300000000000000081600000000000000009999123100000010000000000000BRCTSAACNOR3062
012024091708CTSA4       010SANTANENSE  PN           R$  000000000011800000000001190000000000117000000000011700000000001190000000000117000000000011900009000000000000001400000000000000165100000000000000009999123100000010000000000000BRCTSAACNPR0062
012024091708JFEN3       010JOAO FORTES ON           R$  000000000004300000000000470000000000031000000000003800000000000320000000000031000000000003203846000000000021876700000000000842777500000000000000009999123100000010000000000000BRJFENACNOR0059
012024091708PMAM3       010PARANAPANEMAON      NM   R$  000000000017800000000001810000000000175000000000017900000000001810000000000179000000000018100084000000000000033000000000000005912200000000000000009999123100000010000000000000BRPMAMACNOR3039
012024091708HOOT4       010HOTEIS OTHONPN           R$  000000000022600000000002260000000000226000000000022600000000002260000000000225000000000022600005000000000000000600000000000000135800000000000000009999123100000010000000000000BRHOOTACNPR9015
012024091708OIBR3       010OI          ON      N1   R$  000000000051400000000005600000000000513000000000052400000000005180000000000518000000000051901459000000000001204400000000000632106800000000000000009999123100000010000000000000BROIBRACNOR1112
012024091708OIBR4       010OI          PN      N1   R$  000000000115000000000011500000000001126000000000113500000000011270000000001127000000000114300020000000000000003400000000000003859100000000000000009999123100000010000000000000BROIBRACNPR8111
012024091708OSXB3       010OSX BRASIL  ON      NM   R$  000000000039100000000003910000000000390000000000039000000000003900000000000391000000000040100004000000000000000500000000000000195200000000000000009999123100000010000000000000BROSXBACNOR8109
012024091708LIGT3       010LIGHT S/A   ON      NM   R$  000000000082800000000008360000000000811000000000082400000000008200000000000819000000000082002961000000000000640900000000000528540400000000000000009999123100000010000000000000BRLIGTACNOR2124
012024091708NEXP3       010NEXPE       ON           R$  000000000041100000000004110000000000404000000000040800000000004040000000000403000000000041000003000000000000000300000000000000122500000000000000009999123100000010000000000000BRNEXPACNOR0101
012024091708AMER3       010AMERICANAS  ON      NM   R$  000000000066100000000006640000000000650000000000065700000000006580000000000658000000000065902796000000000003359700000000002208506300000000000000009999123100000010000000000000BRAMERACNOR6103
012024091710CBEE1       010AMPLA ENERG DIR ORD      R$  000000000003600000000000360000000000036000000000003600000000000360000000000036000000000006000001000000000000000100000000000000003600000000000000009999123100000010000000000000BRCBEED07OR5159
012024091710AESB1       010AES BRASIL  DIR ORD NM   R$  000000000005800000000001020000000000050000000000006200000000000580000000000058000000000008400154000000000000099600000000000006217600000000000000009999123100000010000000000000BRAESBD03OR8106
012024091710DASA1       010DASA        DIR ORD NM   R$  000000000001700000000000170000000000007000000000000900000000000090000000000008000000000000901908000000000002167900000000000021455100000000000000009999123100000010000000000000BRDASAD04OR0122
012024091710EQTL1       010EQUATORIAL  DIR ORD NM   R$  000000000015200000000001550000000000119000000000013500000000001320000000000132000000000013702293000000000000872900000000000117844000000000000000009999123100000010000000000000BREQTLD04OR9130
012024091710OIBR1       010OI          DIR ORD N1   R$  000000000000800000000000080000000000005000000000000600000000000060000000000006000000000000701165000000000008433600000000000055921000000000000000009999123100000010000000000000BROIBRD05OR7111
012024091710ZAMP9       010ZAMP S.A.   ON  REC      R$  000000000029400000000002940000000000292000000000029200000000002920000000000000000000000031200002000000000000000300000000000000087800000000000000009999123100000010000000000000BRZAMPR01OR0100
012024091712AZPL11      010FII AZPL    CI           R$  000000000083000000000008600000000000827000000000084600000000008400000000000839000000000084005583000000000000077360000000000065461704000000000000009999123100000010000000000000BRAZPLCTF000103
012024091712TRXB11      010FII TRX R IICI           R$  000000001486400000000148640000000014864000000001486400000000148640000000014101000000001486400001000000000000000001000000000000014864000000000000009999123100000010000000000000BRTRXBCTF002154
012024091712TRXF11      010FII TRX REALCI           R$  000000001053000000000105420000000010500000000001051800000000105000000000010500000000001050105598000000000000063093000000000663672004000000000000009999123100000010000000000000BRTRXFCTF003167
012024091712TVRI11      010FII TIVIO RICI           R$  000000000999600000000100000000000009903000000000995100000000099990000000009973000000000999901777000000000000014534000000000144634780000000000000009999123100000010000000000000BRTVRICTF001111
012024091712LSPA11      010FII LESTE PACI           R$  000000000456500000000045650000000004450000000000447200000000044980000000004450000000000449900065000000000000000458000000000002048332000000000000009999123100000010000000000000BRLSPACTF005142
012024091712LTMT11      010FII SPECIALECI           R$  000000000951900000000095190000000009519000000000951900000000095190000000000000000000000000000001000000000000000163000000000001551597000000000000009999123100000010000000000000BRLTMTCTF000100
012024091712LUGG11      010FII LUGGO   CI           R$  000000000738800000000073880000000007298000000000732300000000073350000000007335000000000734200046000000000000000166000000000001215676000000000000009999123100000010000000000000BRLUGGCTF007158
012024091712LVBI11      010FII VBI LOG CI           R$  000000001102200000000110670000000010984000000001100800000000110200000000011010000000001102005637000000000000043185000000000475382895000000000000009999123100000010000000000000BRLVBICTF002172
012024091712NSLU11      010FII LOURDES CI           R$  000000001819900000000182000000000017900000000001807100000000179000000000017900000000001803000108000000000000001045000000000018884539000000000000009999123100000010000000000000BRNSLUCTF008314
012024091712RENV11      010FII RENV    CI           R$  000000000099800000000010320000000000970000000000100700000000010140000000000981000000000101300031000000000000000288000000000000290124000000000000009999123100000010000000000000BRRENVCTF003100
012024091712RFOF11      010FII RB CFOF CI           R$  000000000699500000000069950000000006902000000000693300000000069280000000006921000000000692800100000000000000001910000000000013243352000000000000009999123100000010000000000000BRRFOFCTF001154
012024091712RINV11      010FII REAL INVCI  ER       R$  000000001085000000000108500000000010800000000001082800000000108400000000010839000000001084800436000000000000004307000000000046638277000000000000009999123100000010000000000000BRRINVCTF004122
012024091712RMAI11      010FII REAGMULTCI           R$  000000000745600000000075460000000007456000000000753100000000075460000000007493000000000754900002000000000000000006000000000000045186000000000000009999123100000010000000000000BRRMAICTF000137
012024091712RNDP11      010FII BB R PAPCI           R$  000000000600000000000060000000000005826000000000591600000000058400000000005835000000000654900016000000000000000049000000000000289892000000000000009999123100000010000000000000BRRNDPCTF007251
012024091712RNGO11      010FII RIONEGROCI           R$  000000000468900000000046940000000004679000000000468800000000046890000000004689000000000469300032000000000000004138000000000019402980000000000000009999123100000010000000000000BRRNGOCTF003246
012024091712RPRI11      010FII RBR PR  CI           R$  000000000911200000000091490000000009100000000000910800000000091050000000009105000000000911200088000000000000002939000000000026768654000000000000009999123100000010000000000000BRRPRICTF007131
012024091712RRCI11      010FII RBCAP RICI           R$  000000000763700000000076590000000007589000000000760800000000076590000000007647000000000765900049000000000000000825000000000006276772000000000000009999123100000010000000000000BRRRCICTF005145
012024091712RVBI11      010FII VBI REITCI  ER       R$  000000000730000000000073120000000007250000000000726900000000072520000000007252000000000726401052000000000000012481000000000090732644000000000000009999123100000010000000000000BRRVBICTF009155
012024091712RZAK11      010FII RIZA AKNCI  ER       R$  000000000816000000000081600000000008076000000000810500000000081480000000008132000000000814807434000000000000048699000000000394710162000000000000009999123100000010000000000000BRRZAKCTF008147
012024091712RZAT11      010FII ARCTIUM CI  ERS      R$  000000000988800000000099490000000009801000000000987500000000099490000000009835000000000994901193000000000000015749000000000155528749000000000000009999123100000010000000000000BRRZATCTF009121
012024091712RZLC11      010FII RZLC    CI           R$  000000010056300000001005630000000100563000000010056300000001005630000000100562000000010056300011000000000000000648000000000065164824000000000000009999123100000010000000000000BRRZLCCTF002100
012024091712RZTR11      010FII RIZA TX CI           R$  000000000921100000000092480000000009180000000000920300000000092030000000009203000000000920407580000000000000041046000000000377747262000000000000009999123100000010000000000000BRRZTRCTF003151
012024091712SADI11      010FII SANT PAPCI           R$  000000000898700000000089940000000008911000000000895300000000089490000000008921000000000894900200000000000000001353000000000012113455000000000000009999123100000010000000000000BRSADICTF007162
012024091712KNUQ11      010FII KINEA UNCI           R$  000000001048200000000105690000000010482000000001052700000000105250000000010525000000001054902803000000000000020446000000000215254294000000000000009999123100000010000000000000BRKNUQCTF004116
012024091712KORE11      010FII KORE    CI           R$  000000001029000000000102900000000010200000000001024500000000102050000000010205000000001024401420000000000000017575000000000180072133000000000000009999123100000010000000000000BRKORECTF012109
012024091712LASC11      010FII LEGATUS CI           R$  000000001110100000000111020000000010968000000001109400000000111020000000010949000000001110300006000000000000000019000000000000210796000000000000009999123100000010000000000000BRLASCCTF003156
012024091712BARI11      010FII BARIGUI CI           R$  000000000765000000000077000000000007630000000000766500000000076500000000007648000000000765001612000000000000005768000000000044212769000000000000009999123100000010000000000000BRBARICTF003165
012024091712CACR11      010CARTESIA FIICI           R$  000000001063700000000106920000000010625000000001065400000000106260000000010625000000001064801277000000000000010264000000000109352742000000000000009999123100000010000000000000BRCACRCTF004136
012024091712CARE11      010FII DEA CARECI           R$  000000000016300000000001630000000000160000000000016000000000001610000000000161000000000016300118000000000000002100000000000000337779000000000000009999123100000010000000000000BRCARECTF000112
012024091712CPFF11      010FII CAP REITCI           R$  000000000699200000000070470000000006913000000000696000000000069210000000006921000000000698000413000000000000009494000000000066081768000000000000009999123100000010000000000000BRCPFFCTF000159
012024091712ABCP11      010FII ABC IMOBCI           R$  000000000720600000000073400000000007160000000000721800000000072220000000007200000000000722200101000000000000000639000000000004612329000000000000009999123100000010000000000000BRABCPCTF000342
012024091712BBFI11      010FII BB PROGRCI           R$  000000004500000000000454720000000044303000000004466400000000444130000000044413000000004517700154000000000000000890000000000039751734000000000000009999123100000010000000000000BRBBFICTF006329
012024091712BBFO11      010FII BB FOF  CI           R$  000000000719500000000073000000000007150000000000725400000000072600000000007222000000000726000535000000000000007031000000000051002956000000000000009999123100000010000000000000BRBBFOCTF004144
012024091712BBIG11      010FII BBIG    CI           R$  000000000093000000000009370000000000899000000000092300000000009300000000000930000000000093106927000000000000428627000000000395844505000000000000009999123100000010000000000000BRBBIGCTF004104
012024091712BBRC11      010FII BB CORP CI           R$  000000001158800000000115890000000011565000000001158500000000115660000000011565000000001158300047000000000000000585000000000006777317000000000000009999123100000010000000000000BRBBRCCTF004256
012024091712BROF11      010FII BROF    CI           R$  000000000478400000000047840000000004614000000000468500000000047810000000004711000000000478100827000000000000019388000000000090849173000000000000009999123100000010000000000000BRBROFCTF000116
012024091712FCFL11      010FII CAMPUSFLCI           R$  000000001160000000000116890000000011600000000001162900000000116260000000011626000000001168800747000000000000001943000000000022595577000000000000009999123100000010000000000000BRFCFLCTF009272
012024091712FIGS11      010FII GEN SHOPCI           R$  000000000528500000000052850000000005203000000000524800000000052580000000005250000000000525800875000000000000002068000000000010853334000000000000009999123100000010000000000000BRFIGSCTF009231
