00COTAHIST.2024BOVESPA 20240904                                                                                                                                                                                                                      
012024090402BAHI3       010BAHEMA      ON      MA   R$  000000000064600000000006990000000000630000000000065400000000006990000000000699000000000070000024000000000000009100000000000005959600000000000000009999123100000010000000000000BRBAHIACNOR1074
012024090402BAUH4       010EXCELSIOR   PN           R$  000000000798700000000079870000000007987000000000798700000000079870000000007700000000000798800001000000000000000200000000000001597400000000000000009999123100000010000000000000BRBAUHACNPR3118
012024090402BAZA3       010AMAZONIA    ON           R$  000000000959700000000096970000000009595000000000963000000000096900000000009596000000000969000017000000000000002500000000000024076400000000000000009999123100000010000000000000BRBAZAACNOR0179
012024090402BBAS3       010BRASIL      ON      NM   R$  000000000287500000000029190000000002872000000000290200000000028990000000002899000000000290032573000000000015514700000000045029633200000000000000009999123100000010000000000000BRBBASACNOR3325
012024090402BEES3       010BANESTES    ON  EJ       R$  000000000089600000000009010000000000892000000000089600000000009010000000000897000000000090200090000000000000017300000000000015510400000000000000009999123100000010000000000000BRBEESACNOR9395
012024090402BEES4       010BANESTES    PN  EJ       R$  000000000096900000000009820000000000959000000000096700000000009600000000000956000000000097900020000000000000003500000000000003387000000000000000009999123100000010000000000000BRBEESACNPR6320
012024090402PNVL3       010DIMED       ON      NM   R$  000000000100900000000010260000000001005000000000101700000000010150000000001015000000000101901954000000000000339400000000000345173400000000000000009999123100000010000000000000BRPNVLACNOR9207
012024090402POMO3       010MARCOPOLO   ON  EDJ N2   R$  000000000061800000000006250000000000608000000000061600000000006100000000000610000000000061301260000000000000456800000000000281677500000000000000009999123100000010000000000000BRPOMOACNOR0099
012024090402POMO4       010MARCOPOLO   PN  EDJ N2   R$  000000000079000000000008080000000000780000000000079000000000007890000000000789000000000079016604000000000013941500000000011027130900000000000000009999123100000010000000000000BRPOMOACNPR7099
012024090402PORT3       010WILSON SONS ON      NM   R$  000000000169400000000017170000000001694000000000170500000000016990000000001697000000000170501472000000000000441500000000000753118300000000000000009999123100000010000000000000BRPORTACNOR8109
012024090402POSI3       010POSITIVO TECON      NM   R$  000000000064000000000006660000000000639000000000065700000000006630000000000663000000000066403607000000000002012000000000001323285700000000000000009999123100000010000000000000BRPOSIACNOR9116
012024090402KRSA3       010KORA SAUDE  ON      NM   R$  000000000005900000000000610000000000058000000000005800000000000610000000000060000000000006100074000000000000128900000000000007603200000000000000009999123100000010000000000000BRKRSAACNOR0100
012024090402LAND3       010TERRASANTAPAON      NM   R$  000000000123100000000012460000000001211000000000122100000000012120000000001212000000000122500224000000000000037000000000000045207500000000000000009999123100000010000000000000BRLANDACNOR9103
012024090402BMEB4       010MERCANTIL   PN      N1   R$  000000000396000000000039970000000003917000000000394600000000039170000000003912000000000396900064000000000000008800000000000034726500000000000000009999123100000010000000000000BRBMEBACNPR5211
012024090402BMGB4       010BANCO BMG   PN      N1   R$  000000000038100000000003870000000000380000000000038500000000003870000000000386000000000038701465000000000000480300000000000185265600000000000000009999123100000010000000000000BRBMGBACNPR0110
012024090402BMIN4       010MERC INVEST PN           R$  000000000165000000000016500000000001650000000000165000000000016500000000001599000000000179900002000000000000001100000000000001815000000000000000009999123100000010000000000000BRBMINACNPR1176
012024090402BMKS3       010BIC MONARK  ON           R$  000000003150000000000345000000000031200000000003230900000000331000000000031501000000003310000075000000000000000402000000000012988415000000000000009999123100000010000000000000BRBMKSACNOR9166
012024090402BMOB3       010BEMOBI TECH ON      NM   R$  000000000153300000000015640000000001533000000000155000000000015510000000001551000000000155901481000000000000190900000000000295982800000000000000009999123100000010000000000000BRBMOBACNOR7103
012024090402BNBR3       010NORD BRASIL ON  EJ       R$  000000001086900000000108690000000010869000000001086900000000108690000000010401000000001086900001000000000000000100000000000001086900000000000000009999123100000010000000000000BRBNBRACNOR8209
012024090402BRBI11      010BR PARTNERS UNT     N2   R$  000000000147000000000015120000000001465000000000150200000000015020000000001502000000000151001876000000000000281200000000000422377000000000000000009999123100000010000000000000BRBRBICDAM10110
012024090402VITT3       010VITTIA      ON      NM   R$  000000000063000000000006390000000000618000000000062600000000006190000000000618000000000062301660000000000000465600000000000291661800000000000000009999123100000010000000000000BRVITTACNOR4107
012024090402VIVA3       010VIVARA S.A. ON      NM   R$  000000000267300000000027540000000002647000000000272600000000027520000000002750000000000275213632000000000003958400000000010792665900000000000000009999123100000010000000000000BRVIVAACNOR0107
012024090402VIVR3       010VIVER       ON      NM   R$  000000000021900000000002250000000000217000000000021900000000002180000000000218000000000022100066000000000000025600000000000005613000000000000000009999123100000010000000000000BRVIVRACNOR4123
012024090402VIVT3       010TELEF BRASILON  EJ       R$  000000000535000000000054990000000005324000000000544900000000054510000000005450000000000546016851000000000003100300000000016896069100000000000000009999123100000010000000000000BRVIVTACNOR0184
012024090402PDGR3       010PDG REALT   ON      NM   R$  000000000001600000000000160000000000015000000000001500000000000150000000000015000000000001600226000000000000613300000000000009482000000000000000009999123100000010000000000000BRPDGRACNOR8119
012024090402PDTC3       010PADTEC      ON      NM   R$  000000000020700000000002080000000000202000000000020400000000002050000000000204000000000020500080000000000000072100000000000014727100000000000000009999123100000010000000000000BRPDTCACNOR3101
012024090402PEAB3       010PAR AL BAHIAON           R$  000000000430000000000043000000000004300000000000430000000000043000000000000000000000000440000001000000000000000200000000000000860000000000000000009999123100000010000000000000BRPEABACNOR3133
012024090402CPFE3       010CPFL ENERGIAON      NM   R$  000000000337500000000034590000000003371000000000341300000000034370000000003437000000000344307015000000000001552800000000005300961700000000000000009999123100000010000000000000BRCPFEACNOR0137
012024090402CSMG3       010COPASA      ON      NM   R$  000000000240400000000024620000000002398000000000243100000000024400000000002440000000000244406347000000000001123600000000002732236100000000000000009999123100000010000000000000BRCSMGACNOR5174
012024090402CSNA3       010SID NACIONALON           R$  000000000113500000000011580000000001132000000000114700000000011400000000001140000000000114315702000000000008149900000000009348509900000000000000009999123100000010000000000000BRCSNAACNOR6261
012024090402ENEV3       010ENEVA       ON      NM   R$  000000000136300000000014030000000001355000000000138700000000013850000000001385000000000138723626000000000014626600000000020298388900000000000000009999123100000010000000000000BRENEVACNOR8106
012024090402ENGI11      010ENERGISA    UNT     N2   R$  000000000482000000000049390000000004800000000000485600000000049120000000004912000000000493312903000000000004150200000000020156709000000000000000009999123100000010000000000000BRENGICDAM16136
012024090402ENGI3       010ENERGISA    ON      N2   R$  000000000145000000000015000000000001450000000000147700000000014850000000001454000000000148500045000000000000006900000000000010197200000000000000009999123100000010000000000000BRENGIACNOR0146
012024090402ENGI4       010ENERGISA    PN      N2   R$  000000000082700000000008650000000000824000000000084000000000008650000000000832000000000086500044000000000000009500000000000007987600000000000000009999123100000010000000000000BRENGIACNPR7142
012024090402ENJU3       010ENJOEI      ON      NM   R$  000000000015500000000001620000000000154000000000015800000000001570000000000157000000000016000418000000000000668200000000000105677700000000000000009999123100000010000000000000BRENJUACNOR9100
012024090402ENMT4       010ENERGISA MT PN           R$  000000000775200000000078500000000007602000000000768600000000076020000000007408000000000819000017000000000000002000000000000015372800000000000000009999123100000010000000000000BRENMTACNPR2126
012024090402EPAR3       010EMBPAR S/A  ON           R$  000000000058600000000005880000000000585000000000058600000000005860000000000586000000000058700013000000000000004500000000000002637200000000000000009999123100000010000000000000BREPARACNOR9105
012024090402EQMA3B      010EQTLMARANHAOON      MB   R$  000000000254500000000028200000000002545000000000255700000000025500000000002501000000000254500004000000000000003400000000000008695500000000000000009999123100000010000000000000BREQMAACNOR8108
012024090402EQPA3       010EQTL PARA   ON           R$  000000000062200000000006310000000000616000000000062100000000006180000000000616000000000061800057000000000000031800000000000019770400000000000000009999123100000010000000000000BREQPAACNOR1111
012024090402EQTL3       010EQUATORIAL  ON      NM   R$  000000000344900000000035920000000003433000000000353300000000035680000000003568000000000357027780000000000011120500000000039294132800000000000000009999123100000010000000000000BREQTLACNOR0131
012024090402IFCM3       010INFRACOMM   ON      NM   R$  000000000001500000000000160000000000014000000000001500000000000150000000000015000000000001601501000000000008996200000000000135354700000000000000009999123100000010000000000000BRIFCMACNOR8101
012024090402IGTI11      010IGUATEMI S.AUNT     N1   R$  000000000222000000000022800000000002216000000000225700000000022580000000002253000000000225909312000000000003041200000000006864446100000000000000009999123100000010000000000000BRIGTICDAM16106
012024090402JOPA3       010JOSAPAR     ON           R$  000000000219900000000022000000000002199000000000219900000000022000000000002139000000000227900002000000000000000800000000000001759900000000000000009999123100000010000000000000BRJOPAACNOR5135
012024090402AZZA3       010AZZAS 2154  ON      NM   R$  000000000473500000000049310000000004727000000000484600000000047920000000004791000000000481007694000000000001805000000000008748498400000000000000009999123100000010000000000000BRAZZAACNOR9100
012024090402CMIN3       010CSNMINERACAOON      N2   R$  000000000056200000000005800000000000560000000000057300000000005740000000000574000000000057520850000000000011746000000000006741826700000000000000009999123100000010000000000000BRCMINACNOR2111
012024090402COCE3       010COELCE      ON           R$  000000000316100000000031610000000003115000000000313000000000031150000000003071000000000360000003000000000000000300000000000000939100000000000000009999123100000010000000000000BRCOCEACNOR0146
012024090402COCE5       010COELCE      PNA          R$  000000000308300000000031130000000003081000000000309100000000031130000000003081000000000311300025000000000000004200000000000012983100000000000000009999123100000010000000000000BRCOCEACNPA3147
012024090402COGN3       010COGNA ON    ON      NM   R$  000000000013700000000001420000000000136000000000013900000000001390000000000139000000000014009360000000000036340100000000005071404200000000000000009999123100000010000000000000BRCOGNACNOR2105
012024090402CRPG5       010CRISTAL     PNA          R$  000000000283200000000029000000000002830000000000287600000000028800000000002880000000000291900016000000000000002700000000000007766500000000000000009999123100000010000000000000BRCRPGACNPA3119
012024090402CRPG6       010CRISTAL     PNB          R$  000000000289900000000028990000000002899000000000289900000000028990000000002851000000000294900001000000000000000100000000000000289900000000000000009999123100000010000000000000BRCRPGACNPB1119
012024090402PETR3       010PETROBRAS   ON      N2   R$  000000000424500000000042590000000004208000000000422800000000042150000000004215000000000422618793000000000008903000000000037648474600000000000000009999123100000010000000000000BRPETRACNOR9206
012024090402PETR4       010PETROBRAS   PN      N2   R$  000000000387400000000038920000000003852000000000386300000000038540000000003854000000000386241313000000000028851300000000111480804900000000000000009999123100000010000000000000BRPETRACNPR6214
012024090402PRIO3       010PETRORIO    ON      NM   R$  000000000445300000000044950000000004372000000000443000000000043720000000004372000000000437933169000000000012775500000000056598165700000000000000009999123100000010000000000000BRPRIOACNOR1107
012024090402RRRP3       0103R PETROLEUMON      NM   R$  000000000255000000000025780000000002457000000000250900000000024650000000002464000000000246523047000000000011120100000000027906437000000000000000009999123100000010000000000000BRRRRPACNOR5103
012024090402TECN3       010TECHNOS     ON      NM   R$  000000000052800000000005400000000000526000000000053500000000005390000000000535000000000053900124000000000000043700000000000023380100000000000000009999123100000010000000000000BRTECNACNOR6109
012024090402TELB3       010TELEBRAS    ON           R$  000000000139900000000014900000000001399000000000144000000000014750000000001425000000000148000014000000000000002300000000000003313300000000000000009999123100000010000000000000BRTELBACNOR2140
012024090402TELB4       010TELEBRAS    PN           R$  000000000093700000000009700000000000937000000000094800000000009370000000000933000000000093900034000000000000005600000000000005309400000000000000009999123100000010000000000000BRTELBACNPR9140
012024090402FRIO3       010METALFRIO   ON      NM   R$  000000001120800000000112080000000011208000000001121600000000112080000000011200000000001500000020000000000000002400000000000026920600000000000000009999123100000010000000000000BRFRIOACNOR2111
012024090402TPIS3       010TRIUNFO PARTON      NM   R$  000000000046100000000005270000000000461000000000050200000000005070000000000507000000000050800522000000000000255100000000000128147800000000000000009999123100000010000000000000BRTPISACNOR8118
012024090402TRAD3       010TC          ON      NM   R$  000000000025200000000002660000000000250000000000025700000000002660000000000264000000000026600488000000000000386400000000000099335400000000000000009999123100000010000000000000BRTRADACNOR3102
012024090402TRIS3       010TRISUL      ON      NM   R$  000000000045700000000004780000000000457000000000046900000000004740000000000469000000000047400947000000000000520400000000000244575300000000000000009999123100000010000000000000BRTRISACNOR4118
012024090402TRPL3       010TRAN PAULISTON      N1   R$  000000000319700000000032120000000003187000000000319700000000032090000000003192000000000320900026000000000000003500000000000011189800000000000000009999123100000010000000000000BRTRPLACNOR4185
012024090402TRPL4       010TRAN PAULISTPN      N1   R$  000000000248000000000025350000000002479000000000251500000000025220000000002521000000000252507066000000000001879100000000004727698100000000000000009999123100000010000000000000BRTRPLACNPR1185
012024090402VAMO3       010VAMOS       ON      NM   R$  000000000076400000000007910000000000762000000000077300000000007620000000000762000000000076413264000000000006958500000000005379951100000000000000009999123100000010000000000000BRVAMOACNOR7105
012024090402VBBR3       010VIBRA       ON      NM   R$  000000000259100000000026350000000002579000000000261300000000026090000000002609000000000261728900000000000008282100000000021643088000000000000000009999123100000010000000000000BRVBBRACNOR1108
012024090402ODPV3       010ODONTOPREV  ON  ED  NM   R$  000000000114500000000011710000000001138000000000116200000000011660000000001164000000000117204359000000000001338900000000001555891900000000000000009999123100000010000000000000BRODPVACNOR4203
012024090402OFSA3       010OUROFINO S/AON      NM   R$  000000000222800000000022500000000002228000000000224200000000022500000000002006000000000230000002000000000000000300000000000000672800000000000000009999123100000010000000000000BROFSAACNOR7118
012024090402ONCO3       010ONCOCLINICASON      NM   R$  000000000061000000000006200000000000581000000000059100000000005810000000000581000000000058213568000000000005438600000000003219186700000000000000009999123100000010000000000000BRONCOACNOR6101
012024090402OPCT3       010OCEANPACT   ON      NM   R$  000000000070000000000007260000000000700000000000071800000000007200000000000720000000000072202914000000000001261200000000000905719400000000000000009999123100000010000000000000BROPCTACNOR0100
012024090402ORVR3       010ORIZON      ON      NM   R$  000000000463500000000047390000000004635000000000469200000000046800000000004678000000000468102118000000000000322900000000001515357300000000000000009999123100000010000000000000BRORVRACNOR0101
012024090402PATI3       010PANATLANTICAON           R$  000000000430000000000044500000000004300000000000439000000000044000000000004380000000000444000037000000000000005500000000000024148600000000000000009999123100000010000000000000BRPATIACNOR6065
012024090402PATI4       010PANATLANTICAPN           R$  000000000449800000000044980000000004490000000000449200000000044900000000004261000000000449800006000000000000000600000000000002695600000000000000009999123100000010000000000000BRPATIACNPR3065
012024090402PCAR3       010P.ACUCAR-CBDON      NM   R$  000000000029900000000003260000000000299000000000031500000000003230000000000323000000000032409839000000000014030900000000004427850800000000000000009999123100000010000000000000BRPCARACNOR3167
012024090402PFRM3       010PROFARMA    ON      NM   R$  000000000063600000000006430000000000621000000000062900000000006220000000000622000000000062301203000000000000374900000000000235892300000000000000009999123100000010000000000000BRPFRMACNOR1116
012024090402PGMN3       010PAGUE MENOS ON      NM   R$  000000000030400000000003150000000000304000000000031000000000003090000000000309000000000031001953000000000000681100000000000211532400000000000000009999123100000010000000000000BRPGMNACNOR8103
012024090402CAMB3       010CAMBUCI     ON           R$  000000000125000000000012750000000001240000000000125700000000012610000000001245000000000126100126000000000000020300000000000025523100000000000000009999123100000010000000000000BRCAMBACNOR4131
012024090402CAML3       010CAMIL       ON  EDJ NM   R$  000000000094900000000009770000000000947000000000096700000000009700000000000969000000000097001961000000000000618400000000000598044300000000000000009999123100000010000000000000BRCAMLACNOR3129
012024090402CASH3       010MELIUZ      ON  ER  NM   R$  000000000042100000000004420000000000420000000000042800000000004240000000000424000000000042504504000000000002420600000000001038278700000000000000009999123100000010000000000000BRCASHACNOR8107
012024090402CBAV3       010CBA         ON      NM   R$  000000000047600000000004920000000000476000000000048600000000004830000000000483000000000048704421000000000002325700000000001130876700000000000000009999123100000010000000000000BRCBAVACNOR5104
012024090402CCRO3       010CCR SA      ON      NM   R$  000000000135800000000013710000000001345000000000135900000000013580000000001358000000000136207714000000000005538700000000007532281300000000000000009999123100000010000000000000BRCCROACNOR2145
012024090402EKTR4       010ELEKTRO     PN           R$  000000000432200000000043220000000004275000000000429000000000042750000000004275000000000432100005000000000000001100000000000004719600000000000000009999123100000010000000000000BREKTRACNPR7164
012024090402ELET3       010ELETROBRAS  ON      N1   R$  000000000421300000000043060000000004196000000000426200000000042690000000004267000000000427323871000000000009845300000000041966309700000000000000009999123100000010000000000000BRELETACNOR6160
012024090402ELET6       010ELETROBRAS  PNB     N1   R$  000000000466700000000047600000000004643000000000471100000000047080000000004706000000000473006708000000000001311400000000006178512100000000000000009999123100000010000000000000BRELETACNPB7077
012024090402GRND3       010GRENDENE    ON      NM   R$  000000000060200000000006170000000000602000000000061000000000006120000000000612000000000061502258000000000000737700000000000450397400000000000000009999123100000010000000000000BRGRNDACNOR3175
012024090402GSHP3       010GENERALSHOPPON           R$  000000000105000000000010500000000001050000000000105000000000010500000000001050000000000109700001000000000000000100000000000000105000000000000000009999123100000010000000000000BRGSHPACNOR7102
012024090402GUAR3       010GUARARAPES  ON      NM   R$  000000000090000000000009530000000000895000000000091800000000009030000000000901000000000090306163000000000001883000000000001729653800000000000000009999123100000010000000000000BRGUARACNOR4173
012024090402HAGA3       010HAGA S/A    ON           R$  000000000023400000000002400000000000234000000000023800000000002370000000000237000000000023900010000000000000002100000000000000500500000000000000009999123100000010000000000000BRHAGAACNOR7103
012024090402HAGA4       010HAGA S/A    PN           R$  000000000011900000000001250000000000119000000000012100000000001190000000000119000000000012100023000000000000008400000000000001023500000000000000009999123100000010000000000000BRHAGAACNPR4103
012024090402HAPV3       010HAPVIDA     ON      NM   R$  000000000044100000000004600000000000438000000000045000000000004440000000000444000000000044529093000000000092477200000000041640916100000000000000009999123100000010000000000000BRHAPVACNOR4114
012024090402ALPA3       010ALPARGATAS  ON      N1   R$  000000000076800000000007770000000000766000000000076900000000007660000000000766000000000077000018000000000000003500000000000002694300000000000000009999123100000010000000000000BRALPAACNOR0231
012024090402ALPA4       010ALPARGATAS  PN      N1   R$  000000000076500000000007760000000000760000000000076400000000007670000000000767000000000076911066000000000023248900000000017778802000000000000000009999123100000010000000000000BRALPAACNPR7232
012024090402ALPK3       010ESTAPAR     ON      NM   R$  000000000035400000000003620000000000349000000000035600000000003520000000000349000000000035201465000000000000422900000000000150846700000000000000009999123100000010000000000000BRALPKACNOR9101
012024090402ALUP11      010ALUPAR      UNT     N2   R$  000000000313000000000032100000000003123000000000318200000000031910000000003184000000000319904518000000000001357700000000004321203900000000000000009999123100000010000000000000BRALUPCDAM15120
012024090402ALUP3       010ALUPAR      ON      N2   R$  000000000106400000000010870000000001064000000000107900000000010870000000001076000000000110900032000000000000005400000000000005827800000000000000009999123100000010000000000000BRALUPACNOR8120
012024090402ALUP4       010ALUPAR      PN      N2   R$  000000000104000000000010600000000001040000000000104900000000010590000000001043000000000105900045000000000000008100000000000008504000000000000000009999123100000010000000000000BRALUPACNPR5120
012024090402AMAR3       010LOJAS MARISAON      NM   R$  000000000011300000000001150000000000111000000000011300000000001140000000000113000000000011400463000000000000153000000000000017330400000000000000009999123100000010000000000000BRAMARACNOR4115
012024090402AMBP3       010AMBIPAR     ON      NM   R$  000000000619900000000066870000000006147000000000653500000000065940000000006558000000000659401509000000000000324700000000002122013100000000000000009999123100000010000000000000BRAMBPACNOR6103
012024090402ANIM3       010ANIMA       ON      NM   R$  000000000032600000000003500000000000326000000000034400000000003410000000000341000000000034212577000000000009463100000000003255413400000000000000009999123100000010000000000000BRANIMACNOR6109
012024090402ARML3       010ARMAC       ON      NM   R$  000000000082800000000008770000000000828000000000086500000000008700000000000870000000000087504091000000000001144700000000000991073600000000000000009999123100000010000000000000BRARMLACNOR1112
012024090402ASAI3       010ASSAI       ON      NM   R$  000000000100400000000010370000000000996000000000100800000000009980000000000998000000000100022603000000000019605600000000019768707800000000000000009999123100000010000000000000BRASAIACNOR0106
012024090402BOBR4       010BOMBRIL     PN           R$  000000000021600000000002320000000000216000000000022600000000002280000000000227000000000022800267000000000000140500000000000031757700000000000000009999123100000010000000000000BRBOBRACNPR3128
012024090402BRSR3       010BANRISUL    ON      N1   R$  000000000135200000000013690000000001343000000000135400000000013550000000001355000000000135900087000000000000019500000000000026405500000000000000009999123100000010000000000000BRBRSRACNOR3188
012024090402BRSR6       010BANRISUL    PNB     N1   R$  000000000127600000000013030000000001276000000000129100000000012850000000001285000000000128703825000000000000947300000000001222984700000000000000009999123100000010000000000000BRBRSRACNPB4191
012024090402BSLI3       010BRB BANCO   ON           R$  000000000103500000000010350000000001035000000000103500000000010350000000000962000000000103400001000000000000000100000000000000103500000000000000009999123100000010000000000000BRBSLIACNOR5194
012024090402EGIE3       010ENGIE BRASILON      NM   R$  000000000450000000000045540000000004471000000000450800000000045190000000004518000000000452004998000000000000996900000000004494972600000000000000009999123100000010000000000000BREGIEACNOR9127
012024090402GGPS3       010GPS         ON      NM   R$  000000000178600000000018150000000001777000000000180000000000017970000000001796000000000179703412000000000001776900000000003198654400000000000000009999123100000010000000000000BRGGPSACNOR9103
012024090402GMAT3       010GRUPO MATEUSON      NM   R$  000000000078200000000008040000000000779000000000079800000000007980000000000797000000000079904857000000000002161600000000001727112300000000000000009999123100000010000000000000BRGMATACNOR7102
012024090402GOAU3       010GERDAU MET  ON      N1   R$  000000000104300000000010790000000001043000000000107200000000010750000000001075000000000107600099000000000000039800000000000042691400000000000000009999123100000010000000000000BRGOAUACNOR1268
012024090402GOAU4       010GERDAU MET  PN      N1   R$  000000000102600000000010590000000001024000000000105000000000010540000000001054000000000105511577000000000006544200000000006875367500000000000000009999123100000010000000000000BRGOAUACNPR8269
012024090402ITUB3       010ITAUUNIBANCOON  EJ  N1   R$  000000000321400000000032800000000003214000000000325100000000032440000000003240000000000324402736000000000000667500000000002170118100000000000000009999123100000010000000000000BRITUBACNOR4340
012024090402PINE3       010PINE        ON      N2   R$  000000000054700000000005470000000000547000000000054700000000005470000000000546000000000054700003000000000000000400000000000000218800000000000000009999123100000010000000000000BRPINEACNOR1150
012024090402PINE4       010PINE        PN      N2   R$  000000000048100000000004850000000000473000000000047700000000004740000000000474000000000047501261000000000000228100000000000108832300000000000000009999123100000010000000000000BRPINEACNPR8150
012024090402PLAS3       010PLASCAR PARTON           R$  000000000060100000000006400000000000601000000000063000000000006390000000000633000000000064500005000000000000000600000000000000378500000000000000009999123100000010000000000000BRPLASACNOR2106
012024090402PLPL3       010PLANOEPLANO ON      NM   R$  000000000119200000000012490000000001192000000000123100000000012330000000001233000000000123502559000000000000776600000000000956207200000000000000009999123100000010000000000000BRPLPLACNOR5104
012024090402ROMI3       010ROMI        ON      NM   R$  000000000110500000000011170000000001101000000000111000000000011070000000001107000000000111500825000000000000168000000000000186585000000000000000009999123100000010000000000000BRROMIACNOR8195
012024090402RPAD5       010ALFA HOLDINGPNA          R$  000000000088900000000008930000000000889000000000088900000000008930000000000885000000000089300005000000000000012000000000000010678800000000000000009999123100000010000000000000BRRPADACNPA4219
012024090402SYNE3       010SYN PROP TECON      NM   R$  000000000080500000000008250000000000797000000000081300000000008200000000000820000000000082201980000000000000943600000000000768009400000000000000009999123100000010000000000000BRSYNEACNOR2103
012024090402CSAN3       010COSAN       ON      NM   R$  000000000132300000000013530000000001313000000000134000000000013400000000001340000000000134414034000000000007644300000000010243987700000000000000009999123100000010000000000000BRCSANACNOR6126
012024090402CSED3       010CRUZEIRO EDUON  ED  NM   R$  000000000035500000000003720000000000355000000000036400000000003720000000000364000000000037201617000000000000491800000000000179317800000000000000009999123100000010000000000000BRCSEDACNOR9105
012024090402HYPE3       010HYPERA      ON      NM   R$  000000000284100000000028560000000002798000000000283400000000028280000000002827000000000283216889000000000004505000000000012769544600000000000000009999123100000010000000000000BRHYPEACNOR0143
012024090402TAEE11      010TAESA       UNT     N2   R$  000000000357100000000036270000000003571000000000361500000000036270000000003616000000000362705927000000000001368300000000004946924200000000000000009999123100000010000000000000BRTAEECDAM10148
012024090402TAEE3       010TAESA       ON      N2   R$  000000000118500000000012000000000001184000000000119600000000012000000000001199000000000120000586000000000000127300000000000152320200000000000000009999123100000010000000000000BRTAEEACNOR9148
012024090402TAEE4       010TAESA       PN      N2   R$  000000000119600000000012120000000001195000000000120500000000012120000000001205000000000121200936000000000000264200000000000318551000000000000000009999123100000010000000000000BRTAEEACNPR6148
012024090402TASA3       010TAURUS ARMASON      N2   R$  000000000111700000000011290000000001117000000000112500000000011200000000001120000000000112400070000000000000011100000000000012490400000000000000009999123100000010000000000000BRTASAACNOR7104
012024090402TASA4       010TAURUS ARMASPN      N2   R$  000000000111700000000011270000000001110000000000111500000000011110000000001111000000000111200928000000000000183300000000000204499300000000000000009999123100000010000000000000BRTASAACNPR4104
012024090402TCSA3       010TECNISA     ON      NM   R$  000000000019100000000001940000000000191000000000019200000000001920000000000192000000000019300108000000000000040200000000000007749100000000000000009999123100000010000000000000BRTCSAACNOR3112
012024090402AZUL4       010AZUL        PN  ATZ N2   R$  000000000050000000000005150000000000465000000000049300000000004920000000000492000000000049318196000000000034620900000000017077346000000000000000009999123100000010000000000000BRAZULACNPR4103
012024090402CEAB3       010CEA MODAS   ON      NM   R$  000000000100500000000010330000000001002000000000101700000000010140000000001012000000000101403978000000000002019900000000002055089400000000000000009999123100000010000000000000BRCEABACNOR1102
012024090402CEBR3       010CEB         ON           R$  000000000193700000000020020000000001902000000000194400000000019270000000001910000000000198000019000000000000002900000000000005639200000000000000009999123100000010000000000000BRCEBRACNOR5125
012024090402CEBR5       010CEB         PNA          R$  000000000170500000000017050000000001666000000000167700000000016700000000001665000000000167000006000000000000000800000000000001341700000000000000009999123100000010000000000000BRCEBRACNPA8124
012024090402CEBR6       010CEB         PNB          R$  000000000179500000000018030000000001779000000000178900000000017960000000001786000000000180300022000000000000002500000000000004474700000000000000009999123100000010000000000000BRCEBRACNPB6124
012024090402CEDO4       010CEDRO       PN      N1   R$  000000000249900000000024990000000002499000000000249900000000024990000000002390000000000250000001000000000000000100000000000000249900000000000000009999123100000010000000000000BRCEDOACNPR5128
012024090402CEEB3       010COELBA      ON           R$  000000000392000000000039200000000003910000000000391100000000039110000000003900000000000391100006000000000000002100000000000008213900000000000000009999123100000010000000000000BRCEEBACNOR3199
012024090402CEED3       010CEEE-D      ON           R$  000000000120000000000013990000000001200000000000132400000000013990000000001070000000000199900004000000000000000400000000000000529800000000000000009999123100000010000000000000BRCEEDACNOR9103
012024090402CGAS5       010COMGAS      PNA          R$  000000001235100000000123990000000012201000000001232000000000123000000000012211000000001240000005000000000000000500000000000006160200000000000000009999123100000010000000000000BRCGASACNPA3161
012024090402CGRA3       010GRAZZIOTIN  ON           R$  000000000255000000000025500000000002550000000000255000000000025500000000002533000000000255000001000000000000000100000000000000255000000000000000009999123100000010000000000000BRCGRAACNOR2083
012024090402CGRA4       010GRAZZIOTIN  PN           R$  000000000253400000000025500000000002528000000000254100000000025280000000002525000000000254800035000000000000005300000000000013471700000000000000009999123100000010000000000000BRCGRAACNPR9083
012024090402CLSA3       010CLEARSALE   ON      NM   R$  000000000085100000000008800000000000827000000000085500000000008650000000000860000000000086606972000000000002650200000000002265923300000000000000009999123100000010000000000000BRCLSAACNOR0100
012024090402CLSC4       010CELESC      PN      N2   R$  000000000784300000000079960000000007777000000000791900000000078660000000007846000000000797900030000000000000003900000000000030887000000000000000009999123100000010000000000000BRCLSCACNPR3131
012024090402AERI3       010AERIS       ON      NM   R$  000000000105500000000011000000000001040000000000106500000000010690000000001069000000000107301072000000000000276400000000000294381100000000000000009999123100000010000000000000BRAERIACNOR4102
012024090402AESB3       010AES BRASIL  ON  ES  NM   R$  000000000114700000000011600000000001145000000000115200000000011540000000001154000000000115503897000000000005148900000000005935898100000000000000009999123100000010000000000000BRAESBACNOR7107
012024090402AFLT3       010AFLUENTE T  ON           R$  000000000072400000000007240000000000721000000000072200000000007210000000000717000000000072900002000000000000000200000000000000144500000000000000009999123100000010000000000000BRAFLTACNOR1122
012024090402AGRO3       010BRASILAGRO  ON      NM   R$  000000000256200000000026550000000002562000000000262900000000026460000000002644000000000264601578000000000000331000000000000870270900000000000000009999123100000010000000000000BRAGROACNOR7114
012024090402AGXY3       010AGROGALAXY  ON      NM   R$  000000000011800000000001210000000000114000000000011800000000001200000000000119000000000012100271000000000000204600000000000024197300000000000000009999123100000010000000000000BRAGXYACNOR4103
012024090402DASA3       010DASA        ON      NM   R$  000000000031300000000003210000000000311000000000031500000000003140000000000313000000000031401630000000000000570100000000000180147200000000000000009999123100000010000000000000BRDASAACNOR1122
012024090402DESK3       010DESKTOP     ON      NM   R$  000000000153900000000015500000000001521000000000153100000000015310000000001530000000000153800516000000000000111900000000000171393400000000000000009999123100000010000000000000BRDESKACNOR2104
012024090402DEXP3       010DEXXOS PAR  ON      N1   R$  000000000094700000000009600000000000945000000000095100000000009590000000000950000000000095900363000000000000065500000000000062336300000000000000009999123100000010000000000000BRDEXPACNOR1105
012024090402DEXP4       010DEXXOS PAR  PN      N1   R$  000000000092800000000009300000000000916000000000091900000000009200000000000920000000000092400101000000000000046300000000000042570600000000000000009999123100000010000000000000BRDEXPACNPR8105
012024090402DIRR3       010DIRECIONAL  ON      NM   R$  000000000300500000000031350000000002992000000000308200000000030860000000003086000000000308812070000000000002037800000000006280911900000000000000009999123100000010000000000000BRDIRRACNOR0118
012024090402DMVF3       010D1000VFARMA ON      NM   R$  000000000071200000000007230000000000706000000000071100000000007090000000000709000000000071300363000000000000056900000000000040460000000000000000009999123100000010000000000000BRDMVFACNOR9100
012024090402DOHL4       010DOHLER      PN           R$  000000000042800000000004380000000000428000000000043400000000004380000000000416000000000043800003000000000000002000000000000000869600000000000000009999123100000010000000000000BRDOHLACNPR9066
012024090402DOTZ3       010DOTZ SA     ON      NM   R$  000000000079000000000008480000000000764000000000078600000000007650000000000765000000000077800147000000000000030100000000000023679500000000000000009999123100000010000000000000BRDOTZACNOR7101
012024090402DTCY3       010DTCOM-DIRECTON           R$  000000000045000000000004700000000000450000000000045500000000004700000000000450000000000047500003000000000000000400000000000000182000000000000000009999123100000010000000000000BRDTCYACNOR5109
012024090402DXCO3       010DEXCO       ON      NM   R$  000000000079900000000008220000000000796000000000080700000000008120000000000811000000000081205670000000000004391300000000003544506500000000000000009999123100000010000000000000BRDXCOACNOR8105
012024090402ITSA3       010ITAUSA      ON  EJ  N1   R$  000000000110500000000011280000000001105000000000112100000000011270000000001121000000000112700396000000000000111000000000000124434600000000000000009999123100000010000000000000BRITSAACNOR0442
012024090402ITSA4       010ITAUSA      PN  EJ  N1   R$  000000000110800000000011280000000001106000000000111900000000011130000000001113000000000111438232000000000025752700000000028825111500000000000000009999123100000010000000000000BRITSAACNPR7442
012024090402RCSL3       010RECRUSUL    ON           R$  000000000051700000000006110000000000517000000000056000000000005690000000000568000000000056902884000000000001103800000000000618644900000000000000009999123100000010000000000000BRRCSLACNOR4134
012024090402RCSL4       010RECRUSUL    PN           R$  000000000010100000000001060000000000101000000000010300000000001040000000000103000000000010400625000000000000795000000000000082074400000000000000009999123100000010000000000000BRRCSLACNPR1134
012024090402RDNI3       010RNI         ON      NM   R$  000000000031300000000003200000000000313000000000031600000000003200000000000316000000000032000007000000000000000700000000000000221200000000000000009999123100000010000000000000BRRDNIACNOR9116
012024090402RDOR3       010REDE D OR   ON      NM   R$  000000000326900000000033720000000003256000000000333400000000033400000000003340000000000334122921000000000007275600000000024263197900000000000000009999123100000010000000000000BRRDORACNOR8113
012024090402SMFT3       010SMART FIT   ON      NM   R$  000000000213900000000022440000000002135000000000221200000000022150000000002212000000000221907215000000000001652600000000003656522300000000000000009999123100000010000000000000BRSMFTACNOR1112
012024090402AALR3       010ALLIAR      ON      NM   R$  000000000156200000000016350000000001531000000000159800000000016120000000001559000000000161900228000000000000040800000000000065210500000000000000009999123100000010000000000000BRAALRACNOR6102
012024090402ABCB4       010ABC BRASIL  PN      N2   R$  000000000234200000000023670000000002330000000000234800000000023440000000002343000000000235203233000000000000598900000000001406596900000000000000009999123100000010000000000000BRABCBACNPR4146
012024090402ABEV3       010AMBEV S/A   ON           R$  000000000128400000000013050000000001282000000000129900000000012990000000001298000000000129921072000000000022848700000000029681100900000000000000009999123100000010000000000000BRABEVACNOR1128
012024090402SMTO3       010SAO MARTINHOON      NM   R$  000000000269800000000027300000000002686000000000270200000000026860000000002686000000000268903696000000000000791900000000002140026900000000000000009999123100000010000000000000BRSMTOACNOR3127
012024090402SNSY5       010SANSUY      PNA          R$  000000000058100000000005950000000000562000000000057400000000005620000000000562000000000057600022000000000000008000000000000004598200000000000000009999123100000010000000000000BRSNSYACNPA5111
012024090402SOJA3       010BOA SAFRA   ON      NM   R$  000000000128400000000013230000000001284000000000130700000000013000000000001300000000000131002775000000000000527300000000000689699600000000000000009999123100000010000000000000BRSOJAACNOR9105
012024090402EALT3       010ACO ALTONA  ON           R$  000000000148000000000015400000000001460000000000148800000000015100000000001501000000000151000031000000000000010900000000000016228400000000000000009999123100000010000000000000BREALTACNOR4138
012024090402EALT4       010ACO ALTONA  PN           R$  000000000146700000000015330000000001466000000000149000000000014850000000001484000000000150000202000000000000064800000000000096600400000000000000009999123100000010000000000000BREALTACNPR1138
012024090402ECOR3       010ECORODOVIAS ON      NM   R$  000000000076700000000007960000000000767000000000078400000000007790000000000778000000000078206187000000000002918000000000002289331600000000000000009999123100000010000000000000BRECORACNOR8120
012024090402SRNA3       010SERENA      ON      NM   R$  000000000081400000000008510000000000813000000000083900000000008410000000000840000000000084306356000000000003293100000000002765510000000000000000009999123100000010000000000000BRSRNAACNOR4100
012024090402STBP3       010SANTOS BRP  ON      NM   R$  000000000134600000000014030000000001346000000000138800000000013950000000001391000000000139614718000000000004978100000000006913498500000000000000009999123100000010000000000000BRSTBPACNOR3131
012024090402SUZB3       010SUZANO S.A. ON      NM   R$  000000000549100000000055990000000005460000000000554200000000055380000000005537000000000553820002000000000004691300000000026002549700000000000000009999123100000010000000000000BRSUZBACNOR0130
012024090402LOGG3       010LOG COM PROPON      NM   R$  000000000230600000000023240000000002281000000000230200000000022980000000002297000000000229801062000000000000141400000000000325573200000000000000009999123100000010000000000000BRLOGGACNOR7107
012024090402LOGN3       010LOG-IN      ON      NM   R$  000000000359100000000036610000000003572000000000361100000000036300000000003600000000000363000042000000000000007300000000000026367200000000000000009999123100000010000000000000BRLOGNACNOR3105
012024090402LPSB3       010LOPES BRASILON      NM   R$  000000000015500000000001640000000000155000000000016000000000001620000000000160000000000016200218000000000000451200000000000072376300000000000000009999123100000010000000000000BRLPSBACNOR0114
012024090402LREN3       010LOJAS RENNERON      NM   R$  000000000174800000000017830000000001734000000000175200000000017480000000001745000000000174928525000000000015386100000000026963912500000000000000009999123100000010000000000000BRLRENACNOR1221
012024090402GEPA4       010GER PARANAP PN           R$  000000000279500000000028500000000002795000000000281100000000028500000000002701000000000280000004000000000000000400000000000001124500000000000000009999123100000010000000000000BRGEPAACNPR9160
012024090402GFSA3       010GAFISA      ON      NM   R$  000000000025900000000002670000000000257000000000026200000000002580000000000258000000000025901784000000000003345900000000000877207800000000000000009999123100000010000000000000BRGFSAACNOR3125
012024090402GGBR3       010GERDAU      ON      N1   R$  000000000159100000000016390000000001591000000000162700000000016370000000001623000000000163700250000000000000052800000000000085911900000000000000009999123100000010000000000000BRGGBRACNOR1193
012024090402GGBR4       010GERDAU      PN      N1   R$  000000000178200000000018370000000001780000000000182100000000018240000000001824000000000182618944000000000012457300000000022691822100000000000000009999123100000010000000000000BRGGBRACNPR8193
012024090402MRVE3       010MRV         ON      NM   R$  000000000073000000000007520000000000725000000000074100000000007350000000000735000000000073609281000000000009430200000000006995683400000000000000009999123100000010000000000000BRMRVEACNOR2127
012024090402RAIL3       010RUMO S.A.   ON      NM   R$  000000000215400000000021940000000002142000000000217700000000021670000000002166000000000217820941000000000016811600000000036606202000000000000000009999123100000010000000000000BRRAILACNOR9105
012024090402RAIZ4       010RAIZEN      PN      N2   R$  000000000031200000000003170000000000310000000000031400000000003140000000000313000000000031409441000000000011117700000000003497966400000000000000009999123100000010000000000000BRRAIZACNPR6111
012024090402SLCE3       010SLC AGRICOLAON      NM   R$  000000000175600000000017700000000001745000000000176000000000017600000000001760000000000176406855000000000001689100000000002974416000000000000000009999123100000010000000000000BRSLCEACNOR2125
012024090402ZAMP3       010ZAMP S.A.   ON           R$  000000000030200000000003170000000000299000000000031000000000003120000000000312000000000031601642000000000000487000000000000151336400000000000000009999123100000010000000000000BRZAMPACNOR5101
012024090402QUAL3       010QUALICORP   ON      NM   R$  000000000022000000000002260000000000218000000000022100000000002200000000000219000000000022002315000000000003570300000000000789569700000000000000009999123100000010000000000000BRQUALACNOR6120
012024090402RADL3       010RAIADROGASILON      NM   R$  000000000272400000000027620000000002710000000000274100000000027300000000002730000000000273316812000000000007398300000000020279981900000000000000009999123100000010000000000000BRRADLACNOR0157
012024090402SCAR3       010SAO CARLOS  ON      NM   R$  000000000236000000000023620000000002343000000000234900000000023500000000002332000000000235000046000000000000015400000000000036177300000000000000009999123100000010000000000000BRSCARACNOR7131
012024090402SEER3       010SER EDUCA   ON      NM   R$  000000000063300000000006450000000000632000000000063800000000006360000000000633000000000063700763000000000000201800000000000128873700000000000000009999123100000010000000000000BRSEERACNOR5119
012024090402SEQL3       010SEQUOIA LOG ON      NM   R$  000000000060400000000006070000000000582000000000059200000000005830000000000583000000000058700808000000000000361000000000000213813300000000000000009999123100000010000000000000BRSEQLACNOR2103
012024090402SHOW3       010TIME FOR FUNON      NM   R$  000000000010200000000001050000000000098000000000010000000000001000000000000099000000000010000404000000000000396900000000000040061300000000000000009999123100000010000000000000BRSHOWACNOR7105
012024090402SHUL4       010SCHULZ      PN           R$  000000000066300000000006690000000000658000000000066200000000006640000000000664000000000066900436000000000000148900000000000098692000000000000000009999123100000010000000000000BRSHULACNPR4156
012024090402SIMH3       010SIMPAR      ON      NM   R$  000000000060200000000006260000000000602000000000061700000000006110000000000610000000000061103226000000000002049900000000001265729600000000000000009999123100000010000000000000BRSIMHACNOR0107
012024090402VALE3       010VALE        ON      NM   R$  000000000567000000000057440000000005647000000000570200000000056990000000005699000000000570037666000000000019501800000000111203212600000000000000009999123100000010000000000000BRVALEACNOR0211
012024090402WEST3       010WESTWING    ON      NM   R$  000000000008900000000000910000000000089000000000008900000000000910000000000089000000000009100019000000000000009400000000000000845600000000000000009999123100000010000000000000BRWESTACNOR3100
012024090402WHRL3       010WHIRLPOOL   ON           R$  000000000044400000000004520000000000437000000000044400000000004370000000000440000000000045000017000000000000003300000000000001466000000000000000009999123100000010000000000000BRWHRLACNOR5128
012024090402WHRL4       010WHIRLPOOL   PN           R$  000000000045500000000004700000000000454000000000046200000000004630000000000459000000000046200029000000000000014400000000000006666400000000000000009999123100000010000000000000BRWHRLACNPR2128
012024090402WIZC3       010WIZ CO      ON      NM   R$  000000000059600000000006210000000000596000000000061000000000006160000000000613000000000061603131000000000000656300000000000400858600000000000000009999123100000010000000000000BRWIZCACNOR5102
012024090402WLMM3       010WLM IND COM ON           R$  000000000288000000000028800000000002880000000000288000000000028800000000002825000000000294000001000000000000000500000000000001440000000000000000009999123100000010000000000000BRWLMMACNOR6119
012024090402WLMM4       010WLM IND COM PN           R$  000000000342600000000035500000000003426000000000348800000000035500000000003404000000000359300004000000000000000400000000000001395200000000000000009999123100000010000000000000BRWLMMACNPR3119
012024090402UCAS3       010UNICASA     ON      NM   R$  000000000022700000000002280000000000224000000000022500000000002270000000000225000000000022700085000000000000033500000000000007567400000000000000009999123100000010000000000000BRUCASACNOR1113
012024090402UGPA3       010ULTRAPAR    ON      NM   R$  000000000230000000000023100000000002271000000000229000000000022900000000002290000000000229117095000000000005070800000000011615974900000000000000009999123100000010000000000000BRUGPAACNOR8156
012024090402FESA4       010FERBASA     PN      N1   R$  000000000079000000000008050000000000786000000000079800000000008010000000000801000000000080201553000000000000531700000000000424479000000000000000009999123100000010000000000000BRFESAACNPR5084
012024090402FHER3       010FER HERINGERON      NM   R$  000000000041000000000004100000000000406000000000040700000000004070000000000413000000000042300009000000000000010200000000000004160900000000000000009999123100000010000000000000BRFHERACNOR5103
012024090402FIQE3       010UNIFIQUE    ON      NM   R$  000000000037800000000003800000000000376000000000037900000000003800000000000378000000000038100628000000000000432400000000000164176600000000000000009999123100000010000000000000BRFIQEACNOR5107
012024090402FLRY3       010FLEURY      ON      NM   R$  000000000162200000000016850000000001622000000000166600000000016710000000001670000000000167115781000000000004830500000000008051393100000000000000009999123100000010000000000000BRFLRYACNOR5139
012024090402FRAS3       010FRAS-LE     ON      N1   R$  000000000195000000000020280000000001950000000000200700000000020200000000002020000000000202102108000000000000458400000000000920105200000000000000009999123100000010000000000000BRFRASACNOR0160
012024090402CMIG3       010CEMIG       ON  ED  N1   R$  000000000145800000000014870000000001450000000000148200000000014870000000001487000000000148800633000000000000711600000000001054956400000000000000009999123100000010000000000000BRCMIGACNOR6243
012024090402CMIG4       010CEMIG       PN  ED  N1   R$  000000000116800000000012020000000001167000000000118700000000011950000000001194000000000119620975000000000014841900000000017620209600000000000000009999123100000010000000000000BRCMIGACNPR3244
012024090402ELMD3       010ELETROMIDIA ON      NM   R$  000000000183800000000018500000000001815000000000183700000000018500000000001850000000000185400289000000000000044100000000000081042900000000000000009999123100000010000000000000BRELMDACNOR3101
012024090402EMAE4       010EMAE        PN           R$  000000000411100000000041110000000004067000000000408800000000040670000000004067000000000409900032000000000000004600000000000018809000000000000000009999123100000010000000000000BREMAEACNPR1125
012024090402EMBR3       010EMBRAER     ON      NM   R$  000000000467500000000049720000000004675000000000489300000000049110000000004910000000000491343779000000000013176500000000064475046400000000000000009999123100000010000000000000BREMBRACNOR4191
012024090402HBOR3       010HELBOR      ON      NM   R$  000000000020500000000002090000000000204000000000020600000000002080000000000208000000000020901494000000000000560000000000000115797500000000000000009999123100000010000000000000BRHBORACNOR3118
012024090402HBRE3       010HBR REALTY  ON      NM   R$  000000000050700000000005210000000000504000000000051300000000005190000000000515000000000051900875000000000000338300000000000173592300000000000000009999123100000010000000000000BRHBREACNOR4100
012024090402HBSA3       010HIDROVIAS   ON      NM   R$  000000000033900000000003540000000000339000000000035000000000003490000000000347000000000035003719000000000001519800000000000532360800000000000000009999123100000010000000000000BRHBSAACNOR0100
012024090402HETA4       010HERCULES    PN           R$  000000000056800000000005680000000000568000000000056800000000005680000000000540000000000055800002000000000000000200000000000000113600000000000000009999123100000010000000000000BRHETAACNPR9136
012024090402JALL3       010JALLESMACHADON      NM   R$  000000000066500000000006680000000000660000000000066400000000006640000000000663000000000066400840000000000000245100000000000162802600000000000000009999123100000010000000000000BRJALLACNOR0106
012024090402JBSS3       010JBS         ON      NM   R$  000000000341000000000034590000000003391000000000342900000000034370000000003435000000000343721219000000000007835700000000026869087000000000000000009999123100000010000000000000BRJBSSACNOR8122
012024090402MILS3       010MILLS       ON      NM   R$  000000000109800000000011280000000001098000000000112000000000011180000000001118000000000112102709000000000000651100000000000729303000000000000000009999123100000010000000000000BRMILSACNOR2128
012024090402MLAS3       010MULTILASER  ON      NM   R$  000000000018300000000001940000000000183000000000019000000000001910000000000190000000000019104602000000000003734400000000000711050800000000000000009999123100000010000000000000BRMLASACNOR9101
012024090402MNDL3       010MUNDIAL     ON           R$  000000000145000000000014500000000001450000000000145000000000014500000000001182000000000149500003000000000000000300000000000000435000000000000000009999123100000010000000000000BRMNDLACNOR4109
012024090402MNPR3       010MINUPAR     ON           R$  000000000155000000000016140000000001550000000000158900000000016140000000001570000000000162000011000000000000001600000000000002543600000000000000009999123100000010000000000000BRMNPRACNOR5122
012024090402MOVI3       010MOVIDA      ON      NM   R$  000000000069200000000007290000000000692000000000071500000000007180000000000718000000000071906264000000000003496700000000002502913000000000000000009999123100000010000000000000BRMOVIACNOR0122
012024090402MRFG3       010MARFRIG     ON      NM   R$  000000000138100000000014830000000001381000000000144500000000014690000000001468000000000147018090000000000007103100000000010268704600000000000000009999123100000010000000000000BRMRFGACNOR0116
012024090402ATOM3       010ATOMPAR     ON           R$  000000000021800000000002200000000000218000000000021800000000002180000000000218000000000022000020000000000000005600000000000001224700000000000000009999123100000010000000000000BRATOMACNOR1106
012024090402AURE3       010AUREN       ON      NM   R$  000000000114000000000011450000000001134000000000113900000000011430000000001142000000000114308978000000000008013000000000009132982800000000000000009999123100000010000000000000BRAUREACNOR9104
012024090402AVLL3       010ALPHAVILLE  ON      NM   R$  000000000040000000000004000000000000395000000000039800000000003950000000000350000000000039500007000000000000012500000000000004986000000000000000009999123100000010000000000000BRAVLLACNOR5103
012024090402AZEV3       010AZEVEDO     ON           R$  000000000014400000000001440000000000134000000000013700000000001370000000000136000000000013700922000000000001138400000000000156805200000000000000009999123100000010000000000000BRAZEVACNOR0121
012024090402AZEV4       010AZEVEDO     PN           R$  000000000014400000000001450000000000132000000000013500000000001330000000000133000000000013405024000000000009888200000000001340581800000000000000009999123100000010000000000000BRAZEVACNPR7121
012024090402BBDC3       010BRADESCO    ON  EJ  N1   R$  000000000142500000000014500000000001421000000000143600000000014290000000001429000000000143308272000000000005214100000000007487933300000000000000009999123100000010000000000000BRBBDCACNOR1774
012024090402BBDC4       010BRADESCO    PN  EJ  N1   R$  000000000158400000000016110000000001580000000000159600000000015870000000001586000000000158738738000000000033458800000000053426451800000000000000009999123100000010000000000000BRBBDCACNPR8774
012024090402ITUB4       010ITAUUNIBANCOPN  EJ  N1   R$  000000000371500000000037790000000003702000000000374500000000037240000000003724000000000373235941000000000020311300000000076078145600000000000000009999123100000010000000000000BRITUBACNPR1340
012024090402LUPA3       010LUPATECH    ON      NM   R$  000000000015300000000001530000000000148000000000014900000000001500000000000149000000000015001464000000000000283900000000000042450800000000000000009999123100000010000000000000BRLUPAACNOR8112
012024090402LVTC3       010WDC NETWORKSON      NM   R$  000000000035400000000003700000000000354000000000036100000000003600000000000358000000000036500135000000000000026100000000000009447900000000000000009999123100000010000000000000BRLVTCACNOR4102
012024090402LWSA3       010LWSA        ON      NM   R$  000000000045000000000004610000000000445000000000045100000000004460000000000445000000000044607814000000000004089000000000001847321600000000000000009999123100000010000000000000BRLWSAACNOR8103
012024090402MAPT4       010CEMEPE      PN           R$  000000000052000000000005200000000000520000000000052000000000005200000000000461000000000051000001000000000000000100000000000000052000000000000000009999123100000010000000000000BRMAPTACNPR5106
012024090402MATD3       010MATER DEI   ON      NM   R$  000000000047800000000005000000000000478000000000049100000000004900000000000488000000000049001885000000000001407000000000000691113100000000000000009999123100000010000000000000BRMATDACNOR4104
012024090402MBLY3       010MOBLY       ON      NM   R$  000000000029000000000002940000000000278000000000028400000000002900000000000289000000000029001250000000000000832800000000000236669400000000000000009999123100000010000000000000BRMBLYACNOR5100
012024090402MDIA3       010M.DIASBRANCOON      NM   R$  000000000269800000000027600000000002694000000000274400000000027540000000002754000000000275902219000000000000523400000000001436486400000000000000009999123100000010000000000000BRMDIAACNOR7135
012024090402MDNE3       010MOURA DUBEUXON      NM   R$  000000000145700000000015400000000001449000000000151200000000015180000000001518000000000152002269000000000000525700000000000795029600000000000000009999123100000010000000000000BRMDNEACNOR9100
012024090402MEAL3       010IMC S/A     ON      NM   R$  000000000015300000000001570000000000151000000000015300000000001520000000000151000000000015201753000000000000686700000000000105079600000000000000009999123100000010000000000000BRMEALACNOR9105
012024090402MELK3       010MELNICK     ON      NM   R$  000000000034100000000003440000000000338000000000034000000000003390000000000339000000000034002995000000000003219300000000001095018900000000000000009999123100000010000000000000BRMELKACNOR8111
012024090402MGLU3       010MAGAZ LUIZA ON      NM   R$  000000000117900000000012350000000001175000000000121200000000012040000000001203000000000120421264000000000018138000000000022000973500000000000000009999123100000010000000000000BRMGLUACNOR2124
012024090402NINJ3       010GETNINJAS   ON      NM   R$  000000000046600000000004700000000000458000000000046500000000004700000000000454000000000047800232000000000000035500000000000016510500000000000000009999123100000010000000000000BRNINJACNOR5101
012024090402NTCO3       010GRUPO NATURAON      NM   R$  000000000134400000000013800000000001337000000000136100000000013510000000001351000000000136212900000000000005249900000000007145514900000000000000009999123100000010000000000000BRNTCOACNOR5106
012024090402RECV3       010PETRORECSA  ON      NM   R$  000000000200600000000020340000000002001000000000201400000000020110000000002011000000000201507181000000000002121600000000004274968500000000000000009999123100000010000000000000BRRECVACNOR3107
012024090402REDE3       010REDE ENERGIAON           R$  000000000069800000000006980000000000685000000000068900000000006970000000000695000000000069600007000000000000001000000000000000689300000000000000009999123100000010000000000000BRREDEACNOR7128
012024090402RENT3       010LOCALIZA    ON      NM   R$  000000000410200000000042590000000004070000000000419400000000041930000000004192000000000419525344000000000006830100000000028646352300000000000000009999123100000010000000000000BRRENTACNOR4196
012024090402MTRE3       010MITRE REALTYON      NM   R$  000000000038100000000003890000000000376000000000038200000000003780000000000377000000000037801466000000000001103700000000000421805800000000000000009999123100000010000000000000BRMTREACNOR6114
012024090402MTSA4       010METISA      PN           R$  000000000446500000000044650000000004319000000000442200000000044470000000004340000000000445000010000000000000001400000000000006190800000000000000009999123100000010000000000000BRMTSAACNPR9072
012024090402MULT3       010MULTIPLAN   ON      N2   R$  000000000256500000000026150000000002565000000000259600000000025940000000002594000000000260212098000000000003658900000000009498674600000000000000009999123100000010000000000000BRMULTACNOR5139
012024090402MYPK3       010IOCHP-MAXIONON      NM   R$  000000000112500000000011750000000001119000000000114100000000011640000000001155000000000116505220000000000001876700000000002142215000000000000000009999123100000010000000000000BRMYPKACNOR7155
012024090402NEOE3       010NEOENERGIA  ON      NM   R$  000000000201500000000020540000000001997000000000203100000000020500000000002050000000000205203096000000000000654600000000001330003800000000000000009999123100000010000000000000BRNEOEACNOR3123
012024090402NGRD3       010NEOGRID     ON      NM   R$  000000000012900000000001310000000000127000000000012900000000001300000000000129000000000013000726000000000000356600000000000046231700000000000000009999123100000010000000000000BRNGRDACNOR3104
012024090402PETZ3       010PETZ        ON      NM   R$  000000000050200000000005170000000000495000000000050300000000004970000000000496000000000049707838000000000017206100000000008665551400000000000000009999123100000010000000000000BRPETZACNOR2110
012024090402RANI3       010IRANI       ON      NM   R$  000000000079700000000008010000000000786000000000079400000000007910000000000791000000000079203276000000000000906800000000000720662400000000000000009999123100000010000000000000BRRANIACNOR5073
012024090402RAPT3       010RANDON PART ON      N1   R$  000000000088700000000009070000000000887000000000089700000000008960000000000892000000000089600130000000000000040900000000000036721100000000000000009999123100000010000000000000BRRAPTACNOR7163
012024090402RAPT4       010RANDON PART PN      N1   R$  000000000114300000000011590000000001114000000000113200000000011200000000001120000000000112106831000000000004333600000000004907390100000000000000009999123100000010000000000000BRRAPTACNPR4163
012024090402YDUQ3       010YDUQS PART  ON      NM   R$  000000000098800000000010500000000000986000000000102100000000010100000000001010000000000101117749000000000008531600000000008718227000000000000000009999123100000010000000000000BRYDUQACNOR3105
012024090402JHSF3       010JHSF PART   ON  ED  NM   R$  000000000044500000000004570000000000445000000000045000000000004500000000000449000000000045004462000000000003254600000000001467420000000000000000009999123100000010000000000000BRJHSFACNOR2139
012024090402PRNR3       010PRINER      ON      NM   R$  000000000131800000000013300000000001298000000000131000000000013100000000001310000000000131101235000000000000221000000000000289649600000000000000009999123100000010000000000000BRPRNRACNOR4109
012024090402PSSA3       010PORTO SEGUROON      NM   R$  000000000348000000000035040000000003450000000000347300000000034840000000003481000000000348506239000000000001687900000000005863103400000000000000009999123100000010000000000000BRPSSAACNOR7155
012024090402PTBL3       010PORTOBELLO  ON      NM   R$  000000000051200000000005150000000000501000000000050600000000005010000000000501000000000050400627000000000000260000000000000131661800000000000000009999123100000010000000000000BRPTBLACNOR8132
012024090402PTNT4       010PETTENATI   PN           R$  000000000074000000000007400000000000730000000000072900000000007300000000000722000000000073000025000000000000013200000000000009634000000000000000009999123100000010000000000000BRPTNTACNPR3047
012024090402SANB11      010SANTANDER BRUNT          R$  000000000315100000000031980000000003151000000000318000000000031770000000003177000000000318308901000000000002563500000000008152295600000000000000009999123100000010000000000000BRSANBCDAM13165
012024090402SANB3       010SANTANDER BRON           R$  000000000149400000000015230000000001494000000000151300000000015070000000001507000000000151600616000000000000118500000000000179364700000000000000009999123100000010000000000000BRSANBACNOR8172
012024090402SANB4       010SANTANDER BRPN           R$  000000000164900000000016760000000001633000000000165900000000016700000000001661000000000167000978000000000000155700000000000258369500000000000000009999123100000010000000000000BRSANBACNPR5172
012024090402SAPR11      010SANEPAR     UNT     N2   R$  000000000294500000000029450000000002900000000000292200000000029120000000002911000000000292005115000000000001198800000000003503255800000000000000009999123100000010000000000000BRSAPRCDAM13118
012024090402SAPR3       010SANEPAR     ON      N2   R$  000000000055900000000005600000000000551000000000055600000000005560000000000555000000000055800468000000000000116000000000000064500800000000000000009999123100000010000000000000BRSAPRACNOR9159
012024090402SAPR4       010SANEPAR     PN      N2   R$  000000000059200000000005930000000000585000000000058800000000005910000000000589000000000059102501000000000001195100000000000703732300000000000000009999123100000010000000000000BRSAPRACNPR6159
012024090402SBFG3       010GRUPO SBF   ON      NM   R$  000000000168400000000018520000000001684000000000181000000000018510000000001840000000000185111864000000000003970500000000007186752800000000000000009999123100000010000000000000BRSBFGACNOR1103
012024090402SBSP3       010SABESP      ON      NM   R$  000000000950300000000096030000000009424000000000955400000000095580000000009545000000000955816158000000000003064000000000029273577100000000000000009999123100000010000000000000BRSBSPACNOR5161
012024090402UNIP3       010UNIPAR      ON           R$  000000000481600000000048790000000004751000000000483100000000047510000000004746000000000485000093000000000000011700000000000056526900000000000000009999123100000010000000000000BRUNIPACNOR7206
012024090402UNIP5       010UNIPAR      PNA          R$  000000000492000000000049940000000004744000000000487800000000048790000000004841000000000505500010000000000000001200000000000005853700000000000000009999123100000010000000000000BRUNIPACNPA0208
012024090402UNIP6       010UNIPAR      PNB          R$  000000000478600000000049110000000004786000000000488300000000049100000000004907000000000491001138000000000000193400000000000944448300000000000000009999123100000010000000000000BRUNIPACNPB8206
012024090402USIM3       010USIMINAS    ON      N1   R$  000000000059100000000006060000000000585000000000059900000000006040000000000603000000000060500910000000000000281200000000000168608600000000000000009999123100000010000000000000BRUSIMACNOR3167
012024090402USIM5       010USIMINAS    PNA     N1   R$  000000000059900000000006130000000000596000000000060600000000006080000000000608000000000060909550000000000012012500000000007286343700000000000000009999123100000010000000000000BRUSIMACNPA6169
012024090402VLID3       010VALID       ON      NM   R$  000000000223200000000023240000000002200000000000228800000000023240000000002305000000000232401888000000000000493800000000001130103900000000000000009999123100000010000000000000BRVLIDACNOR5144
012024090402B3SA3       010B3          ON      NM   R$  000000000121200000000012770000000001212000000000125700000000012550000000001255000000000125638133000000000044741500000000056252455900000000000000009999123100000010000000000000BRB3SAACNOR6133
012024090402VSTE3       010VESTE       ON      NM   R$  000000000130100000000013200000000001300000000000130400000000013000000000001290000000000130000027000000000000021800000000000028444300000000000000009999123100000010000000000000BRVSTEACNOR5103
012024090402VTRU3       010VITRUEDUCA  ON      NM   R$  000000000097900000000010140000000000971000000000099700000000010110000000000990000000000101100593000000000000149400000000000149032500000000000000009999123100000010000000000000BRVTRUACNOR3100
012024090402VULC3       010VULCABRAS   ON      NM   R$  000000000183800000000018600000000001810000000000184200000000018430000000001843000000000185405947000000000003045900000000005611895700000000000000009999123100000010000000000000BRVULCACNOR2161
012024090402VVEO3       010VIVEO       ON      NM   R$  000000000018900000000001990000000000185000000000019100000000001900000000000190000000000019103131000000000002979900000000000571806200000000000000009999123100000010000000000000BRVVEOACNOR0104
012024090402BEEF3       010MINERVA     ON      NM   R$  000000000071500000000007480000000000715000000000073900000000007410000000000740000000000074205620000000000005850400000000004325065100000000000000009999123100000010000000000000BRBEEFACNOR6116
012024090402BPAN4       010BANCO PAN   PN      N1   R$  000000000102300000000010690000000001016000000000105600000000010660000000001065000000000106606885000000000003241600000000003423976100000000000000009999123100000010000000000000BRBPANACNPR1115
012024090402CPLE3       010COPEL       ON      N2   R$  000000000095200000000009790000000000952000000000096800000000009760000000000976000000000097711800000000000006226100000000006028383200000000000000009999123100000010000000000000BRCPLEACNOR8149
012024090402CPLE5       010COPEL       PNA     N2   R$  000000000118700000000011870000000001187000000000118700000000011870000000001130000000000118700003000000000000000400000000000000474800000000000000009999123100000010000000000000BRCPLEACNPA1147
012024090402CPLE6       010COPEL       PNB     N2   R$  000000000106900000000010960000000001065000000000108400000000010890000000001088000000000109025380000000000027361700000000029667781900000000000000009999123100000010000000000000BRCPLEACNPB9146
012024090402BBSE3       010BBSEGURIDADEON      NM   R$  000000000370300000000037580000000003695000000000374000000000037420000000003741000000000374324284000000000005044700000000018870668000000000000000009999123100000010000000000000BRBBSEACNOR5125
012024090402BPAC11      010BTGP BANCO  UNT     N2   R$  000000000352200000000036210000000003517000000000356800000000035480000000003547000000000355020933000000000006260900000000022340506100000000000000009999123100000010000000000000BRBPACUNT006119
012024090402BPAC3       010BTGP BANCO  ON      N2   R$  000000000163700000000016690000000001637000000000165800000000016480000000001608000000000165700018000000000000002000000000000003316700000000000000009999123100000010000000000000BRBPACACNOR7134
012024090402BPAC5       010BTGP BANCO  PNA     N2   R$  000000000095400000000009680000000000945000000000095500000000009450000000000944000000000095900019000000000000004900000000000004682400000000000000009999123100000010000000000000BRBPACACNPA0134
012024090402WEGE3       010WEG         ON      NM   R$  000000000529300000000053610000000005253000000000531900000000053390000000005338000000000534017170000000000004687100000000024934382200000000000000009999123100000010000000000000BRWEGEACNOR0224
012024090402RSUL4       010RIOSULENSE  PN           R$  000000000647000000000064700000000006411000000000645200000000064500000000006385000000000645000007000000000000000700000000000004516900000000000000009999123100000010000000000000BRRSULACNPR3114
012024090402CRFB3       010CARREFOUR BRON      NM   R$  000000000092300000000009690000000000923000000000095500000000009490000000000949000000000095019317000000000011164600000000010665833800000000000000009999123100000010000000000000BRCRFBACNOR2116
012024090402CSUD3       010CSU DIGITAL ON      NM   R$  000000000188400000000018840000000001853000000000187100000000018780000000001878000000000188400082000000000000027800000000000052026900000000000000009999123100000010000000000000BRCSUDACNOR5110
012024090402CTKA4       010KARSTEN     PN           R$  000000000190000000000020980000000001900000000000190700000000020980000000002000000000000209000004000000000000005200000000000009918800000000000000009999123100000010000000000000BRCTKAACNPR7043
012024090402CURY3       010CURY S/A    ON      NM   R$  000000000240700000000025160000000002407000000000247700000000024510000000002451000000000245810626000000000003111300000000007709179000000000000000009999123100000010000000000000BRCURYACNOR3109
012024090402JSLG3       010JSL         ON      NM   R$  000000000099100000000010190000000000980000000000100400000000010080000000000999000000000100801375000000000000324100000000000325457200000000000000009999123100000010000000000000BRJSLGACNOR2121
012024090402KEPL3       010KEPLER WEBERON      NM   R$  000000000112400000000011710000000001117000000000115300000000011530000000001150000000000115505168000000000001334700000000001539422400000000000000009999123100000010000000000000BRKEPLACNOR1064
012024090402KLBN11      010KLABIN S/A  UNT     N2   R$  000000000216800000000022000000000002156000000000219000000000021930000000002192000000000219809855000000000002851700000000006246428600000000000000009999123100000010000000000000BRKLBNCDAM18143
012024090402KLBN3       010KLABIN S/A  ON      N2   R$  000000000043200000000004410000000000431000000000043800000000004400000000000440000000000044100496000000000000146600000000000064246400000000000000009999123100000010000000000000BRKLBNACNOR2171
012024090402KLBN4       010KLABIN S/A  PN      N2   R$  000000000043200000000004400000000000431000000000043700000000004400000000000439000000000044001421000000000000846000000000000369711900000000000000009999123100000010000000000000BRKLBNACNPR9171
012024090402TTEN3       0103TENTOS     ON      NM   R$  000000000119500000000012090000000001181000000000119400000000011810000000001181000000000118503626000000000000690000000000000824282300000000000000009999123100000010000000000000BRTTENACNOR0103
012024090402TUPY3       010TUPY        ON      NM   R$  000000000279200000000028390000000002785000000000281600000000028020000000002800000000000281903641000000000000683000000000001923799100000000000000009999123100000010000000000000BRTUPYACNOR1184
012024090402TEND3       010TENDA       ON      NM   R$  000000000130900000000013650000000001306000000000133600000000013380000000001331000000000133807641000000000002237900000000002990599100000000000000009999123100000010000000000000BRTENDACNOR4111
012024090402TFCO4       010TRACK FIELD PN      N2   R$  000000000116500000000012060000000001164000000000119300000000011880000000001187000000000119000960000000000000178700000000000213295900000000000000009999123100000010000000000000BRTFCOACNPR8114
012024090402TGMA3       010TEGMA       ON      NM   R$  000000000266400000000027100000000002634000000000268000000000027100000000002681000000000271000861000000000000305700000000000819302300000000000000009999123100000010000000000000BRTGMAACNOR7145
012024090402TIMS3       010TIM         ON      NM   R$  000000000181600000000018470000000001805000000000183400000000018320000000001832000000000184213756000000000004815000000000008832838800000000000000009999123100000010000000000000BRTIMSACNOR5117
012024090402TOTS3       010TOTVS       ON      NM   R$  000000000296800000000030240000000002949000000000299200000000029970000000002996000000000301109438000000000003006500000000008997928100000000000000009999123100000010000000000000BRTOTSACNOR8145
012024090402BIOM3       010BIOMM       ON      MA   R$  000000000087400000000009060000000000866000000000088600000000008820000000000882000000000089700198000000000000032800000000000029076900000000000000009999123100000010000000000000BRBIOMACNOR2112
012024090402ALLD3       010ALLIED      ON      NM   R$  000000000075100000000007700000000000750000000000076100000000007500000000000750000000000076700198000000000000049100000000000037410400000000000000009999123100000010000000000000BRALLDACNOR3106
012024090402ALOS3       010ALLOS       ON      NM   R$  000000000228800000000023550000000002288000000000233100000000023310000000002330000000000233314959000000000004948300000000011538141000000000000000009999123100000010000000000000BRALOSACNOR5101
012024090402BRFS3       010BRF SA      ON      NM   R$  000000000246000000000025500000000002451000000000251300000000025500000000002544000000000255016711000000000008549000000000021487526900000000000000009999123100000010000000000000BRBRFSACNOR8122
012024090402BRIT3       010BRISANET    ON      NM   R$  000000000034800000000003500000000000345000000000034600000000003450000000000345000000000034601023000000000000403700000000000139860900000000000000009999123100000010000000000000BRBRITACNOR0103
012024090402BRKM3       010BRASKEM     ON      N1   R$  000000000184000000000019100000000001840000000000189400000000018870000000001880000000000191000236000000000000049800000000000094324200000000000000009999123100000010000000000000BRBRKMACNOR1119
012024090402BRKM5       010BRASKEM     PNA     N1   R$  000000000186100000000019180000000001861000000000189400000000018780000000001878000000000187908994000000000003019200000000005720153800000000000000009999123100000010000000000000BRBRKMACNPA4121
012024090402BRKM6       010BRASKEM     PNB     N1   R$  000000000138500000000013850000000001385000000000138500000000013850000000001300000000000138500001000000000000000100000000000000138500000000000000009999123100000010000000000000BRBRKMACNPB2114
012024090402BGIP4       010BANESE      PN           R$  000000000243200000000024890000000002432000000000246000000000024890000000002361000000000247000002000000000000000200000000000000492100000000000000009999123100000010000000000000BRBGIPACNPR8209
012024090402BHIA3       010CASAS BAHIA ON      NM   R$  000000000062500000000006960000000000624000000000065900000000006730000000000672000000000067404695000000000005722000000000003772586200000000000000009999123100000010000000000000BRBHIAACNOR1102
012024090402BRAP3       010BRADESPAR   ON      N1   R$  000000000175300000000017890000000001737000000000177400000000017840000000001780000000000178400730000000000000123300000000000218759000000000000000009999123100000010000000000000BRBRAPACNOR5148
012024090402BRAP4       010BRADESPAR   PN      N1   R$  000000000184300000000018920000000001842000000000187700000000018820000000001882000000000188309125000000000003225300000000006057003000000000000000009999123100000010000000000000BRBRAPACNPR2148
012024090402CYRE3       010CYRELA REALTON      NM   R$  000000000212700000000021950000000002111000000000215600000000021590000000002159000000000216117797000000000006098700000000013150889400000000000000009999123100000010000000000000BRCYREACNOR7140
012024090402CVCB3       010CVC BRASIL  ON      NM   R$  000000000019200000000001970000000000192000000000019400000000001940000000000193000000000019406738000000000013327700000000002586772800000000000000009999123100000010000000000000BRCVCBACNOR1116
012024090402CXSE3       010CAIXA SEGURION      NM   R$  000000000163900000000016400000000001588000000000160600000000015940000000001593000000000159518879000000000006891200000000011069302900000000000000009999123100000010000000000000BRCXSEACNOR7107
012024090402ESPA3       010ESPACOLASER ON      NM   R$  000000000011500000000001170000000000113000000000011500000000001170000000000116000000000011700142000000000000207200000000000023855900000000000000009999123100000010000000000000BRESPAACNOR7103
012024090402ETER3       010ETERNIT     ON      NM   R$  000000000058100000000005880000000000578000000000058400000000005800000000000580000000000058700412000000000000156800000000000091580000000000000000009999123100000010000000000000BRETERACNOR3244
012024090402EUCA3       010EUCATEX     ON      N1   R$  000000000170000000000017500000000001700000000000173300000000017500000000001665000000000175000009000000000000002100000000000003639900000000000000009999123100000010000000000000BREUCAACNOR1157
012024090402EUCA4       010EUCATEX     PN      N1   R$  000000000156000000000016020000000001553000000000158000000000015830000000001580000000000160000263000000000000032500000000000051357500000000000000009999123100000010000000000000BREUCAACNPR8044
012024090402EVEN3       010EVEN        ON      NM   R$  000000000063700000000006700000000000637000000000066100000000006600000000000659000000000066003567000000000000934300000000000618323500000000000000009999123100000010000000000000BREVENACNOR8119
012024090402EZTC3       010EZTEC       ON      NM   R$  000000000138100000000014280000000001381000000000141100000000014080000000001407000000000141003317000000000001000500000000001411869500000000000000009999123100000010000000000000BREZTCACNOR0126
012024090402IGTI3       010IGUATEMI S.AON      N1   R$  000000000027300000000002790000000000273000000000027600000000002780000000000276000000000027800078000000000000036000000000000009947400000000000000009999123100000010000000000000BRIGTIACNOR8106
012024090402IGTI4       010IGUATEMI S.APN      N1   R$  000000000099200000000009920000000000992000000000099200000000009920000000000009000000000109600001000000000000000100000000000000099200000000000000009999123100000010000000000000BRIGTIACNPR5106
012024090402BLAU3       010BLAU        ON      NM   R$  000000000143600000000014520000000001417000000000143600000000014510000000001440000000000145101749000000000000264900000000000380543600000000000000009999123100000010000000000000BRBLAUACNOR8114
012024090402INEP3       010INEPAR      ON           R$  000000000020000000000002000000000000191000000000019400000000001920000000000191000000000019200070000000000000027000000000000005243900000000000000009999123100000010000000000000BRINEPACNOR1143
012024090402INEP4       010INEPAR      PN           R$  000000000020500000000002050000000000200000000000020100000000002000000000000200000000000020200048000000000000033700000000000006786000000000000000009999123100000010000000000000BRINEPACNPR8143
012024090402INTB3       010INTELBRAS   ON      NM   R$  000000000212500000000022190000000002123000000000219100000000022000000000002197000000000221003202000000000000763800000000001673873000000000000000009999123100000010000000000000BRINTBACNOR9112
012024090402IRBR3       010IRBBRASIL REON      NM   R$  000000000517200000000052460000000004857000000000498000000000048700000000004869000000000487010644000000000002732500000000013608029700000000000000009999123100000010000000000000BRIRBRACNOR4111
012024090402LAVV3       010LAVVI       ON      NM   R$  000000000082500000000008630000000000825000000000085300000000008630000000000860000000000086302717000000000002604700000000002223932400000000000000009999123100000010000000000000BRLAVVACNOR4113
012024090402LEVE3       010METAL LEVE  ON      NM   R$  000000000306900000000031190000000003008000000000307500000000030820000000003082000000000308606599000000000001219400000000003749858400000000000000009999123100000010000000000000BRLEVEACNOR2197
012024090402LJQQ3       010QUERO-QUERO ON      NM   R$  000000000042200000000004410000000000422000000000043400000000004360000000000435000000000043703907000000000002098500000000000911159500000000000000009999123100000010000000000000BRLJQQACNOR5104
012024090407NUTR3       010NUTRIPLANT  ON      MA   R$  000000000047400000000004890000000000470000000000048100000000004870000000000477000000000048900023000000000000002600000000000001252500000000000000009999123100000010000000000000BRNUTRACNOR0104
012024090408RNEW11      010RENOVA      UNT     N2   R$  000000000030700000000003100000000000304000000000030800000000003090000000000302000000000030900020000000000000003600000000000001111600000000000000009999123100000010000000000000BRRNEWCDAM15110
012024090408OIBR3       010OI          ON  ES  N1   R$  000000000050700000000005260000000000507000000000051700000000005160000000000511000000000051600700000000000000337800000000000174809800000000000000009999123100000010000000000000BROIBRACNOR1112
012024090408OIBR4       010OI          PN  ES  N1   R$  000000000120500000000012050000000001187000000000119400000000011950000000001189000000000119500031000000000000004700000000000005615900000000000000009999123100000010000000000000BROIBRACNPR8111
012024090408OSXB3       010OSX BRASIL  ON      NM   R$  000000000037600000000003880000000000372000000000038000000000003770000000000378000000000038200026000000000000006700000000000002548500000000000000009999123100000010000000000000BROSXBACNOR8109
012024090408AMER3       010AMERICANAS  ON  EG  NM   R$  000000000067000000000006940000000000650000000000067300000000006510000000000651000000000065208203000000000010226900000000006883741200000000000000009999123100000010000000000000BRAMERACNOR6103
012024090408PMAM3       010PARANAPANEMAON      NM   R$  000000000018200000000001820000000000178000000000017900000000001800000000000179000000000018000138000000000000089500000000000016065800000000000000009999123100000010000000000000BRPMAMACNOR3039
012024090408RNEW3       010RENOVA      ON      N2   R$  000000000010300000000001050000000000100000000000010100000000001010000000000101000000000010200044000000000000024800000000000002525900000000000000009999123100000010000000000000BRRNEWACNOR8110
012024090408RNEW4       010RENOVA      PN      N2   R$  000000000010100000000001030000000000099000000000010100000000001020000000000100000000000010200070000000000000054700000000000005559500000000000000009999123100000010000000000000BRRNEWACNPR5110
012024090408RPMG3       010PET MANGUINHON           R$  000000000029500000000003000000000000285000000000029400000000002990000000000298000000000030100071000000000000014200000000000004187600000000000000009999123100000010000000000000BRRPMGACNOR9194
012024090408HOOT4       010HOTEIS OTHONPN           R$  000000000022500000000002250000000000225000000000022500000000002250000000000223000000000022800005000000000000004200000000000000945000000000000000009999123100000010000000000000BRHOOTACNPR9015
012024090408ATMP3       010ATMASA      ON           R$  000000000013700000000001400000000000136000000000013800000000001390000000000137000000000013900016000000000000010800000000000001499600000000000000009999123100000010000000000000BRATMPACNOR8100
012024090408NEXP3       010NEXPE       ON           R$  000000000040700000000004180000000000400000000000041200000000004000000000000401000000000041700010000000000000001900000000000000783100000000000000009999123100000010000000000000BRNEXPACNOR0101
012024090408JFEN3       010JOAO FORTES ON           R$  000000000002000000000000210000000000020000000000002000000000000200000000000020000000000002100176000000000000756300000000000015204400000000000000009999123100000010000000000000BRJFENACNOR0059
012024090408RSID3       010ROSSI RESID ON      NM   R$  000000000036600000000003750000000000366000000000037000000000003750000000000366000000000037500046000000000000007100000000000002630600000000000000009999123100000010000000000000BRRSIDACNOR8120
012024090408CTSA3       010SANTANENSE  ON           R$  000000000027200000000002720000000000272000000000027200000000002720000000000274000000000028000001000000000000000100000000000000027200000000000000009999123100000010000000000000BRCTSAACNOR3062
012024090408CTSA4       010SANTANENSE  PN           R$  000000000012700000000001310000000000123000000000012600000000001310000000000127000000000013000378000000000000078700000000000009963700000000000000009999123100000010000000000000BRCTSAACNPR0062
012024090408LIGT3       010LIGHT S/A   ON      NM   R$  000000000063300000000006920000000000616000000000065300000000006710000000000671000000000067204683000000000004808600000000003142866800000000000000009999123100000010000000000000BRLIGTACNOR2124
012024090410EQTL1       010EQUATORIAL  DIR ORD NM   R$  000000000022000000000003700000000000213000000000026700000000003540000000000338000000000035401125000000000001474700000000000393967400000000000000009999123100000010000000000000BREQTLD04OR9130
012024090410OIBR1       010OI          DIR ORD N1   R$  000000000001800000000000180000000000014000000000001600000000000160000000000015000000000001606359000000000013129200000000000211812100000000000000009999123100000010000000000000BROIBRD05OR7111
012024090410AESB1       010AES BRASIL  DIR ORD NM   R$  000000000004100000000000550000000000037000000000004100000000000410000000000038000000000004100235000000000000111100000000000004653700000000000000009999123100000010000000000000BRAESBD03OR8106
012024090410GFSA1       010GAFISA      DIR ORD NM   R$  000000000000200000000000020000000000001000000000000100000000000010000000000000000000000000100866000000000002837200000000000003019900000000000000009999123100000010000000000000BRGFSAD11OR7124
012024090410ZAMP9       010ZAMP S.A.   ON  REC      R$  000000000029000000000003000000000000290000000000029800000000002970000000000296000000000030500011000000000000002300000000000000685500000000000000009999123100000010000000000000BRZAMPR01OR0100
012024090410RENT9       010LOCALIZA    ON  REC NM   R$  000000000418500000000042440000000004170000000000417800000000041800000000004100000000000420400053000000000000007200000000000030084500000000000000009999123100000010000000000000BRRENTR06OR8195
012024090412BARI11      010FII BARIGUI CI  ER       R$  000000000788900000000078890000000007836000000000785700000000078620000000007860000000000786201983000000000000005318000000000041785330000000000000009999123100000010000000000000BRBARICTF003165
012024090412PORD11      010FII POLO CRICI  ER       R$  000000000087300000000008800000000000871000000000087500000000008800000000000879000000000088002483000000000000067486000000000059064684000000000000009999123100000010000000000000BRPORDCTF005177
012024090412RENV11      010FII RENV    CI           R$  000000000103000000000010300000000001005000000000101600000000010300000000001005000000000103000020000000000000000463000000000000470607000000000000009999123100000010000000000000BRRENVCTF003100
012024090412RFOF11      010FII RB CFOF CI  ER       R$  000000000698100000000070480000000006981000000000699700000000069820000000006981000000000698200038000000000000000405000000000002834017000000000000009999123100000010000000000000BRRFOFCTF001154
012024090412RINV11      010FII REAL INVCI           R$  000000001092900000000109350000000010892000000001091400000000109100000000010905000000001091000952000000000000006004000000000065533030000000000000009999123100000010000000000000BRRINVCTF004121
012024090412RMAI11      010FII REAGMULTCI  ER       R$  000000000748500000000074850000000007485000000000748500000000074850000000005857000000000748400011000000000000000012000000000000089820000000000000009999123100000010000000000000BRRMAICTF000137
012024090412RNDP11      010FII BB R PAPCI  ER       R$  000000000597800000000061300000000005978000000000609900000000059780000000005979000000000612900012000000000000000113000000000000689288000000000000009999123100000010000000000000BRRNDPCTF007251
012024090412KNSC11      010FII KINEA SCCI  ER       R$  000000000092300000000009250000000000920000000000092300000000009250000000000923000000000092510039000000000000252271000000000232876301000000000000009999123100000010000000000000BRKNSCCTF008151
012024090412KNUQ11      010FII KINEA UNCI  ER       R$  000000001056800000000106050000000010510000000001055800000000105620000000010548000000001058303583000000000000012156000000000128354261000000000000009999123100000010000000000000BRKNUQCTF004116
012024090412KORE11      010FII KORE    CI  ER       R$  000000001040400000000104950000000010320000000001038100000000103600000000010360000000001037003903000000000000016843000000000174853538000000000000009999123100000010000000000000BRKORECTF012109
012024090412LASC11      010FII LEGATUS CI  ER       R$  000000001120100000000112010000000011049000000001111300000000112000000000011048000000001120100005000000000000000007000000000000077792000000000000009999123100000010000000000000BRLASCCTF003156
012024090412BMLC11      010FII BMBRC LCCI           R$  000000000996500000000099650000000009584000000000974300000000099650000000009585000000000996500009000000000000000131000000000001276458000000000000009999123100000010000000000000BRBMLCCTF004253
012024090412BNFS11      010FII BANRISULCI  ER       R$  000000001190000000000119290000000011842000000001188500000000118770000000011842000000001187900187000000000000000720000000000008557819000000000000009999123100000010000000000000BRBNFSCTF000244
012024090412BRCO11      010FII BRESCO  CI  ER       R$  000000001133200000000114460000000011306000000001134600000000113350000000011323000000001133504187000000000000015898000000000180381937000000000000009999123100000010000000000000BRBRCOCTF007160
012024090412BRCR11      010FII BC FUND CI           R$  000000000501400000000050480000000005003000000000500900000000050270000000005011000000000502704055000000000000023252000000000116477863000000000000009999123100000010000000000000BRBRCRCTF000269
012024090412VIFI11      010FII VINCI IFCI  ER       R$  000000000079800000000008020000000000796000000000079700000000008000000000000797000000000080000078000000000000003569000000000002847599000000000000009999123100000010000000000000BRVIFICTF009159
012024090412VILG11      010FII VINCI LGCI  ER       R$  000000000861700000000086480000000008569000000000860900000000086270000000008575000000000862703882000000000000016377000000000140993344000000000000009999123100000010000000000000BRVILGCTF001174
012024090412VINO11      010FII VINCI OFCI  ER       R$  000000000059300000000005960000000000591000000000059300000000005940000000000593000000000059402756000000000000129604000000000076888846000000000000009999123100000010000000000000BRVINOCTF001160
012024090412VISC11      010FII VINCI SCCI  ER       R$  000000001113900000000111790000000011101000000001112100000000111260000000011125000000001112609051000000000000041287000000000459152875000000000000009999123100000010000000000000BRVISCCTF005189
012024090412VIUR11      010FII VINCI IUCI  ER       R$  000000000064400000000006470000000000641000000000064300000000006440000000000644000000000064500840000000000000018464000000000011878774000000000000009999123100000010000000000000BRVIURCTF009140
012024090412PEMA11      010FII PERFORMACI  ER       R$  000000000291500000000029150000000002915000000000291500000000029150000000002915000000000327000002000000000000000003000000000000008745000000000000009999123100000010000000000000BRPEMACTF003138
012024090412EMET11      010FII EMET    CI           R$  000000000102200000000010220000000001000000000000101200000000010220000000001002000000000102200005000000000000012020000000000012174440000000000000009999123100000010000000000000BREMETCTF007100
012024090412EQIR11      010FII EQI RECECI           R$  000000000090000000000009070000000000900000000000090300000000009070000000000904000000000090700151000000000000008376000000000007565720000000000000009999123100000010000000000000BREQIRCTF003135
012024090412ICRI11      010FII CI IPCA CI  ER       R$  000000000969700000000097170000000009677000000000969800000000097010000000009680000000000970100247000000000000002959000000000028696629000000000000009999123100000010000000000000BRICRICTF004107
012024090412IDFI11      010FII UNIDADESCI  ERA      R$  000000000063100000000006550000000000600000000000061800000000006000000000000600000000000062500023000000000000013001000000000008044501000000000000009999123100000010000000000000BRIDFICTF007135
012024090412CNES11      010FII CENESP  CI           R$  000000000015000000000001500000000000148000000000014900000000001490000000000149000000000015000483000000000000021355000000000003185235000000000000009999123100000010000000000000BRCNESCTF001262
012024090412CRFF11      010FII CX RBRA2CI  ER       R$  000000000780000000000079000000000007800000000000789900000000079000000000007800000000000790000006000000000000000203000000000001603526000000000000009999123100000010000000000000BRCRFFCTF006164
012024090412PQAG11      010FII PARQ ANHCI  ER       R$  000000000590000000000059000000000005899000000000589900000000059000000000005824000000000590000005000000000000000023000000000000135698000000000000009999123100000010000000000000BRPQAGCTF009151
012024090412PQDP11      010FII D PEDRO CI  ER       R$  000000019160000000001930990000000191600000000019176800000001917000000000191600000000019300000020000000000000000044000000000008437824000000000000009999123100000010000000000000BRPQDPCTF004274
012024090412RPRI11      010FII RBR PR  CI  ER       R$  000000000917000000000091990000000009150000000000917300000000091720000000009172000000000919501157000000000000002585000000000023713563000000000000009999123100000010000000000000BRRPRICTF007131
012024090412RRCI11      010FII RBCAP RICI  ER       R$  000000000773400000000077340000000007700000000000770500000000077000000000007710000000000773000014000000000000000203000000000001564188000000000000009999123100000010000000000000BRRRCICTF005145
012024090412BCFF11      010FII BC FFII CI           R$  000000000084700000000008510000000000845000000000084800000000008480000000000848000000000085008917000000000000258280000000000219100839000000000000009999123100000010000000000000BRBCFFCTF000280
012024090412BCIA11      010FII BCIA    CI  ER       R$  000000001024500000000102490000000010117000000001014700000000101760000000010170000000001017600918000000000000010069000000000102175690000000000000009999123100000010000000000000BRBCIACTF005213
012024090412BCRI11      010FII BEES CRICI  ER       R$  000000000693500000000069900000000006912000000000693900000000069500000000006945000000000695000757000000000000004715000000000032717850000000000000009999123100000010000000000000BRBCRICTF009218
012024090412TRBL11      010FII SDI LOG CI  ER       R$  000000000966000000000096850000000009624000000000964900000000096600000000009635000000000966000862000000000000004647000000000044839458000000000000009999123100000010000000000000BRTRBLCTF007115
012024090412TRNT11      010FII TORRE NOCI           R$  000000001070000000000107000000000009902000000001006500000000100000000000010000000000001044900246000000000000000444000000000004468954000000000000009999123100000010000000000000BRTRNTCTF013341
012024090412VCJR11      010FII VECTIS  CI  ER       R$  000000000915700000000091940000000009146000000000917100000000091590000000009159000000000918502270000000000000008245000000000075620875000000000000009999123100000010000000000000BRVCJRCTF005158
012024090412VCRI11      010FII VINCI CRCI  ER       R$  000000000084400000000008460000000000836000000000084000000000008360000000000836000000000084101910000000000000017455000000000014663793000000000000009999123100000010000000000000BRVCRICTF007128
012024090412VCRR11      010FII VECT RENCI  ER       R$  000000000682500000000069980000000006825000000000687600000000069500000000006895000000000695000841000000000000005297000000000036426123000000000000009999123100000010000000000000BRVCRRCTF008139
