00COTAHIST.2024BOVESPA 20240925                                                                                                                                                                                                                      
012024092502KLBN3       010KLABIN S/A  ON      N2   R$  000000000042500000000004250000000000418000000000041900000000004180000000000418000000000042100445000000000000177100000000000074272600000000000000009999123100000010000000000000BRKLBNACNOR2171
012024092502NGRD3       010NEOGRID     ON      NM   R$  000000000011400000000001160000000000112000000000011300000000001130000000000112000000000011301627000000000000516600000000000058876800000000000000009999123100000010000000000000BRNGRDACNOR3104
012024092502BEES4       010BANESTES    PN           R$  000000000093400000000009520000000000930000000000093500000000009300000000000929000000000093700022000000000000007400000000000006925600000000000000009999123100000010000000000000BRBEESACNPR6320
012024092502BRAP3       010BRADESPAR   ON      N1   R$  000000000180800000000018190000000001797000000000181200000000018150000000001807000000000181500522000000000000100500000000000182174700000000000000009999123100000010000000000000BRBRAPACNOR5148
012024092502CPLE6       010COPEL       PNB     N2   R$  000000000102900000000010330000000001013000000000101800000000010140000000001013000000000101613435000000000012904200000000013140531600000000000000009999123100000010000000000000BRCPLEACNPB9146
012024092502DMVF3       010D1000VFARMA ON      NM   R$  000000000065100000000006760000000000642000000000065700000000006580000000000649000000000065800373000000000000057700000000000037944800000000000000009999123100000010000000000000BRDMVFACNOR9100
012024092502DXCO3       010DEXCO       ON      NM   R$  000000000080800000000008190000000000805000000000081000000000008050000000000805000000000081105298000000000001826400000000001481124500000000000000009999123100000010000000000000BRDXCOACNOR8105
012024092502GOAU3       010GERDAU MET  ON      N1   R$  000000000108800000000010900000000001058000000000106200000000010630000000001061000000000106400326000000000000402300000000000427576800000000000000009999123100000010000000000000BRGOAUACNOR1268
012024092502MILS3       010MILLS       ON      NM   R$  000000000113200000000011420000000001108000000000111700000000011080000000001107000000000111501705000000000000602600000000000673506200000000000000009999123100000010000000000000BRMILSACNOR2128
012024092502MRFG3       010MARFRIG     ON      NM   R$  000000000139300000000014200000000001367000000000140000000000014190000000001412000000000141914042000000000006534200000000009148335900000000000000009999123100000010000000000000BRMRFGACNOR0116
012024092502CSUD3       010CSU DIGITAL ON      NM   R$  000000000180000000000018010000000001750000000000177800000000017980000000001776000000000179800263000000000000044800000000000079672500000000000000009999123100000010000000000000BRCSUDACNOR5110
012024092502FRAS3       010FRAS-LE     ON      N1   R$  000000000207400000000020740000000002016000000000202900000000020260000000002020000000000202601076000000000000229000000000000464646700000000000000009999123100000010000000000000BRFRASACNOR0160
012024092502GGBR3       010GERDAU      ON      N1   R$  000000000167000000000016730000000001625000000000163700000000016300000000001630000000000164800735000000000000114800000000000187955300000000000000009999123100000010000000000000BRGGBRACNOR1193
012024092502CBEE3       010AMPLA ENERG ON           R$  000000000191000000000019100000000001595000000000163800000000015990000000001590000000000189900007000000000000001000000000000001638500000000000000009999123100000010000000000000BRCBEEACNOR3160
012024092502CEBR5       010CEB         PNA          R$  000000000165500000000016640000000001610000000000164700000000016640000000001605000000000166400007000000000000000700000000000001153200000000000000009999123100000010000000000000BRCEBRACNPA8124
012024092502CGRA3       010GRAZZIOTIN  ON           R$  000000000250500000000025170000000002500000000000250500000000025000000000002499000000000251900005000000000000000500000000000001252600000000000000009999123100000010000000000000BRCGRAACNOR2083
012024092502CAMB3       010CAMBUCI     ON           R$  000000000122000000000012300000000001213000000000122000000000012200000000001211000000000122200289000000000000039800000000000048567300000000000000009999123100000010000000000000BRCAMBACNOR4131
012024092502CRPG5       010CRISTAL     PNA          R$  000000000273800000000027380000000002703000000000271200000000027100000000002710000000000272900008000000000000001100000000000002983900000000000000009999123100000010000000000000BRCRPGACNPA3119
012024092502ENGI3       010ENERGISA    ON      N2   R$  000000000137000000000013850000000001370000000000137600000000013710000000001371000000000138300007000000000000000700000000000000963500000000000000009999123100000010000000000000BRENGIACNOR0146
012024092502ENMT4       010ENERGISA MT PN           R$  000000000809900000000080990000000007999000000000803200000000079990000000006000000000000809800003000000000000000300000000000002409700000000000000009999123100000010000000000000BRENMTACNPR2126
012024092502EQTL3       010EQUATORIAL  ON      NM   R$  000000000326300000000032710000000003230000000000324700000000032430000000003239000000000324321199000000000008931500000000029006411200000000000000009999123100000010000000000000BREQTLACNOR0131
012024092502EUCA3       010EUCATEX     ON      N1   R$  000000000165300000000016600000000001653000000000165600000000016600000000001621000000000170000002000000000000000200000000000000331300000000000000009999123100000010000000000000BREUCAACNOR1157
012024092502IRBR3       010IRBBRASIL REON      NM   R$  000000000463000000000046710000000004577000000000460200000000045990000000004587000000000460102771000000000002022400000000009307305600000000000000009999123100000010000000000000BRIRBRACNOR4111
012024092502MDIA3       010M.DIASBRANCOON  EJ  NM   R$  000000000252900000000025340000000002476000000000249300000000024930000000002490000000000249403502000000000000747600000000001863971700000000000000009999123100000010000000000000BRMDIAACNOR7136
012024092502MGLU3       010MAGAZ LUIZA ON      NM   R$  000000000102700000000010330000000000984000000000100300000000010000000000001000000000000100228593000000000020478600000000020560038900000000000000009999123100000010000000000000BRMGLUACNOR2125
012024092502RENT3       010LOCALIZA    ON      NM   R$  000000000430000000000043780000000004170000000000424900000000041880000000004188000000000418928899000000000011527400000000048982594600000000000000009999123100000010000000000000BRRENTACNOR4196
012024092502TRIS3       010TRISUL      ON      NM   R$  000000000048300000000004880000000000476000000000047900000000004840000000000477000000000048401500000000000000822400000000000394692900000000000000009999123100000010000000000000BRTRISACNOR4118
012024092502TUPY3       010TUPY        ON      NM   R$  000000000259900000000026040000000002519000000000254600000000025220000000002522000000000252303029000000000000757700000000001929655000000000000000009999123100000010000000000000BRTUPYACNOR1184
012024092502BAHI3       010BAHEMA      ON      MA   R$  000000000066200000000006620000000000661000000000066100000000006610000000000660000000000069000002000000000000000200000000000000132300000000000000009999123100000010000000000000BRBAHIACNOR1074
012024092502BRBI11      010BR PARTNERS UNT     N2   R$  000000000154000000000015450000000001513000000000152800000000015210000000001518000000000152201016000000000000165300000000000252705700000000000000009999123100000010000000000000BRBRBICDAM10110
012024092502EKTR4       010ELEKTRO     PN           R$  000000000455500000000045550000000004555000000000455500000000045550000000004501000000000455500002000000000000000200000000000000911000000000000000009999123100000010000000000000BREKTRACNPR7164
012024092502KEPL3       010KEPLER WEBERON      NM   R$  000000000101500000000010230000000000997000000000100600000000009980000000000997000000000100202706000000000000610100000000000613761900000000000000009999123100000010000000000000BRKEPLACNOR1064
012024092502MYPK3       010IOCHP-MAXIONON      NM   R$  000000000109700000000011060000000001064000000000107700000000010640000000001064000000000106506981000000000001632200000000001758073200000000000000009999123100000010000000000000BRMYPKACNOR7155
012024092502NTCO3       010GRUPO NATURAON      NM   R$  000000000135100000000013870000000001327000000000135400000000013270000000001327000000000132913661000000000007054900000000009553580300000000000000009999123100000010000000000000BRNTCOACNOR5106
012024092502BHIA3       010CASAS BAHIA ON      NM   R$  000000000054100000000005500000000000522000000000053200000000005320000000000530000000000053201950000000000002332800000000001243026000000000000000009999123100000010000000000000BRBHIAACNOR1102
012024092502CPFE3       010CPFL ENERGIAON      NM   R$  000000000332400000000033430000000003304000000000332300000000033210000000003320000000000333308686000000000003891600000000012931997300000000000000009999123100000010000000000000BRCPFEACNOR0137
012024092502DEXP4       010DEXXOS PAR  PN      N1   R$  000000000088700000000008880000000000879000000000088400000000008840000000000880000000000089100007000000000000001000000000000000884300000000000000009999123100000010000000000000BRDEXPACNPR8105
012024092502DOTZ3       010DOTZ SA     ON      NM   R$  000000000054600000000005700000000000541000000000054900000000005450000000000545000000000055500065000000000000013900000000000007635800000000000000009999123100000010000000000000BRDOTZACNOR7101
012024092502GGPS3       010GPS         ON      NM   R$  000000000186000000000018790000000001842000000000185700000000018500000000001841000000000185304697000000000002025500000000003761855400000000000000009999123100000010000000000000BRGGPSACNOR9103
012024092502JALL3       010JALLESMACHADON      NM   R$  000000000067500000000006790000000000665000000000067000000000006650000000000664000000000066701352000000000000461800000000000309859500000000000000009999123100000010000000000000BRJALLACNOR0106
012024092502MNPR3       010MINUPAR     ON           R$  000000000176900000000017700000000001769000000000176900000000017690000000001680000000000179800006000000000000002600000000000004599600000000000000009999123100000010000000000000BRMNPRACNOR5122
012024092502BBSE3       010BBSEGURIDADEON      NM   R$  000000000355200000000035710000000003520000000000354000000000035350000000003535000000000353616500000000000003390900000000012005925400000000000000009999123100000010000000000000BRBBSEACNOR5125
012024092502CVCB3       010CVC BRASIL  ON      NM   R$  000000000018600000000001900000000000182000000000018500000000001840000000000183000000000018405805000000000010360200000000001917754200000000000000009999123100000010000000000000BRCVCBACNOR1116
012024092502GEPA4       010GER PARANAP PN           R$  000000000299900000000030000000000002998000000000299900000000029980000000002901000000000299900005000000000000000600000000000001799500000000000000009999123100000010000000000000BRGEPAACNPR9160
012024092502AZUL4       010AZUL        PN      N2   R$  000000000050800000000005240000000000492000000000050700000000005100000000000509000000000051014045000000000028570000000000014490690300000000000000009999123100000010000000000000BRAZULACNPR4103
012024092502CEAB3       010CEA MODAS   ON      NM   R$  000000000104800000000010520000000001012000000000102800000000010270000000001020000000000102803166000000000001200500000000001234443200000000000000009999123100000010000000000000BRCEABACNOR1102
012024092502CEEB3       010COELBA      ON           R$  000000000391800000000039180000000003800000000000383700000000038400000000003802000000000388500011000000000000001200000000000004604900000000000000009999123100000010000000000000BRCEEBACNOR3199
012024092502CLSA3       010CLEARSALE   ON      NM   R$  000000000078700000000008220000000000777000000000079900000000008160000000000815000000000081604283000000000001761100000000001408807700000000000000009999123100000010000000000000BRCLSAACNOR0100
012024092502CASH3       010MELIUZ      ON      NM   R$  000000000042500000000004260000000000419000000000042300000000004240000000000424000000000042601315000000000000421900000000000178720300000000000000009999123100000010000000000000BRCASHACNOR8107
012024092502CSAN3       010COSAN       ON      NM   R$  000000000127800000000012810000000001250000000000125800000000012500000000001250000000000125120873000000000009336600000000011753645300000000000000009999123100000010000000000000BRCSANACNOR6126
012024092502ENJU3       010ENJOEI      ON      NM   R$  000000000013900000000001410000000000135000000000013800000000001380000000000138000000000013900835000000000000877800000000000121316600000000000000009999123100000010000000000000BRENJUACNOR9100
012024092502EQMA3B      010EQTLMARANHAOON      MB   R$  000000000225100000000022510000000002248000000000224800000000022480000000002242000000000224800007000000000000002100000000000004721300000000000000009999123100000010000000000000BREQMAACNOR8108
012024092502ESTR4       010ESTRELA     PN           R$  000000000042500000000004250000000000372000000000039100000000003850000000000374000000000038900033000000000000008400000000000003286300000000000000009999123100000010000000000000BRESTRACNPR0144
012024092502INEP4       010INEPAR      PN           R$  000000000018600000000001950000000000186000000000019000000000001900000000000187000000000019500085000000000000018500000000000003526700000000000000009999123100000010000000000000BRINEPACNPR8143
012024092502MATD3       010MATER DEI   ON      NM   R$  000000000044800000000004510000000000436000000000044000000000004400000000000437000000000044001698000000000000908600000000000400235100000000000000009999123100000010000000000000BRMATDACNOR4104
012024092502MEAL3       010IMC S/A     ON      NM   R$  000000000013700000000001400000000000136000000000013700000000001370000000000137000000000013901725000000000000475500000000000065567000000000000000009999123100000010000000000000BRMEALACNOR9105
012024092502RECV3       010PETRORECSA  ON      NM   R$  000000000185600000000018750000000001814000000000182900000000018140000000001814000000000181806205000000000001308800000000002394785700000000000000009999123100000010000000000000BRRECVACNOR3107
012024092502TPIS3       010TRIUNFO PARTON      NM   R$  000000000050300000000005310000000000499000000000051300000000005240000000000520000000000052600610000000000000178600000000000091787500000000000000009999123100000010000000000000BRTPISACNOR8118
012024092502TRPL4       010TRAN PAULISTPN      N1   R$  000000000243800000000024440000000002428000000000243500000000024350000000002435000000000243807143000000000001651300000000004021022500000000000000009999123100000010000000000000BRTRPLACNPR1185
012024092502SMFT3       010SMART FIT   ON      NM   R$  000000000217300000000021790000000002121000000000213400000000021210000000002120000000000212204174000000000001141500000000002436645000000000000000009999123100000010000000000000BRSMFTACNOR1112
012024092502BAZA3       010AMAZONIA    ON           R$  000000000924800000000092480000000009200000000000923300000000092460000000009165000000000924700005000000000000000700000000000006463700000000000000009999123100000010000000000000BRBAZAACNOR0179
012024092502ELMD3       010ELETROMIDIA ON      NM   R$  000000000171300000000017160000000001650000000000167300000000016500000000001650000000000166000452000000000000092200000000000154324100000000000000009999123100000010000000000000BRELMDACNOR3101
012024092502KLBN11      010KLABIN S/A  UNT     N2   R$  000000000211000000000021100000000002075000000000208300000000020750000000002075000000000207612218000000000003657500000000007619467500000000000000009999123100000010000000000000BRKLBNCDAM18143
012024092502NEOE3       010NEOENERGIA  ON      NM   R$  000000000195100000000019590000000001946000000000195200000000019520000000001951000000000196001571000000000000579600000000001131696300000000000000009999123100000010000000000000BRNEOEACNOR3123
012024092502BEES3       010BANESTES    ON           R$  000000000089800000000008980000000000892000000000089500000000008940000000000891000000000089600042000000000000005700000000000005103200000000000000009999123100000010000000000000BRBEESACNOR9395
012024092502BPAN4       010BANCO PAN   PN      N1   R$  000000000104700000000010620000000001026000000000103900000000010430000000001037000000000104302986000000000001669400000000001734852500000000000000009999123100000010000000000000BRBPANACNPR1115
012024092502CPLE3       010COPEL       ON      N2   R$  000000000092600000000009270000000000911000000000091400000000009120000000000910000000000091304842000000000003379000000000003089291900000000000000009999123100000010000000000000BRCPLEACNOR8149
012024092502DIRR3       010DIRECIONAL  ON  ED  NM   R$  000000000314900000000031710000000003109000000000313900000000031550000000003142000000000315512943000000000002668600000000008378187200000000000000009999123100000010000000000000BRDIRRACNOR0119
012024092502DTCY3       010DTCOM-DIRECTON           R$  000000000045000000000004750000000000440000000000045000000000004750000000000446000000000048000008000000000000001300000000000000586000000000000000009999123100000010000000000000BRDTCYACNOR5109
012024092502GMAT3       010GRUPO MATEUSON      NM   R$  000000000073000000000007360000000000707000000000071400000000007100000000000709000000000071005902000000000003035200000000002168387800000000000000009999123100000010000000000000BRGMATACNOR7102
012024092502JBSS3       010JBS         ON      NM   R$  000000000318000000000031800000000003099000000000311900000000031230000000003123000000000312424296000000000011384200000000035515203700000000000000009999123100000010000000000000BRJBSSACNOR8122
012024092502MOVI3       010MOVIDA      ON      NM   R$  000000000064500000000006540000000000623000000000063400000000006300000000000629000000000063008308000000000005226000000000003313425200000000000000009999123100000010000000000000BRMOVIACNOR0122
012024092502CMIN3       010CSNMINERACAOON      N2   R$  000000000066400000000006850000000000664000000000067400000000006750000000000674000000000067811594000000000014421700000000009731047800000000000000009999123100000010000000000000BRCMINACNOR2111
012024092502CXSE3       010CAIXA SEGURION      NM   R$  000000000145000000000014590000000001443000000000145400000000014560000000001455000000000145609902000000000003423400000000004978182900000000000000009999123100000010000000000000BRCXSEACNOR7107
012024092502GFSA3       010GAFISA      ON      NM   R$  000000000023200000000002380000000000228000000000023300000000002320000000000232000000000023301692000000000001918100000000000447210500000000000000009999123100000010000000000000BRGFSAACNOR3125
012024092502CBAV3       010CBA         ON      NM   R$  000000000053300000000005650000000000520000000000053400000000005270000000000526000000000052905710000000000003712600000000001984837300000000000000009999123100000010000000000000BRCBAVACNOR5104
012024092502CEBR3       010CEB         ON           R$  000000000194900000000019490000000001944000000000194600000000019480000000001896000000000194800006000000000000000700000000000001362700000000000000009999123100000010000000000000BRCEBRACNOR5125
012024092502CGAS5       010COMGAS      PNA          R$  000000001287600000000128760000000012876000000001287600000000128760000000012800000000001310000003000000000000000300000000000003862800000000000000009999123100000010000000000000BRCGASACNPA3161
012024092502CLSC4       010CELESC      PN      N2   R$  000000000840000000000084190000000008400000000000841100000000084150000000008385000000000841500006000000000000001200000000000010093900000000000000009999123100000010000000000000BRCLSCACNPR3131
012024092502CRFB3       010CARREFOUR BRON      NM   R$  000000000088200000000008890000000000857000000000087400000000008800000000000878000000000088012705000000000013071800000000011429307700000000000000009999123100000010000000000000BRCRFBACNOR2116
012024092502ENGI11      010ENERGISA    UNT     N2   R$  000000000458100000000045860000000004525000000000454900000000045350000000004531000000000453607940000000000001659100000000007548840800000000000000009999123100000010000000000000BRENGICDAM16136
012024092502ENMT3       010ENERGISA MT ON           R$  000000000850100000000085010000000008501000000000850100000000085010000000000000000000000850000001000000000000000100000000000000850100000000000000009999123100000010000000000000BRENMTACNOR5121
012024092502EQPA3       010EQTL PARA   ON           R$  000000000060500000000006130000000000605000000000061000000000006070000000000607000000000061100012000000000000002400000000000001464700000000000000009999123100000010000000000000BREQPAACNOR1111
012024092502ETER3       010ETERNIT     ON      NM   R$  000000000057200000000005750000000000554000000000056200000000005540000000000554000000000056000567000000000000177900000000000100041700000000000000009999123100000010000000000000BRETERACNOR3244
012024092502INTB3       010INTELBRAS   ON      NM   R$  000000000214000000000021400000000002072000000000208800000000020750000000002072000000000207503384000000000000912400000000001905914300000000000000009999123100000010000000000000BRINTBACNOR9112
012024092502MBLY3       010MOBLY       ON      NM   R$  000000000025800000000002650000000000249000000000025800000000002580000000000255000000000025800762000000000000517400000000000133717300000000000000009999123100000010000000000000BRMBLYACNOR5100
012024092502MELK3       010MELNICK     ON      NM   R$  000000000034100000000003480000000000336000000000034100000000003440000000000344000000000034502316000000000001339600000000000457139600000000000000009999123100000010000000000000BRMELKACNOR8111
012024092502REDE3       010REDE ENERGIAON           R$  000000000069100000000006920000000000691000000000069100000000006910000000000685000000000069100004000000000000000500000000000000345800000000000000009999123100000010000000000000BRREDEACNOR7128
012024092502TRAD3       010TC          ON      NM   R$  000000000048000000000005200000000000471000000000049300000000004950000000000483000000000049500897000000000000424600000000000209353000000000000000009999123100000010000000000000BRTRADACNOR3102
012024092502TTEN3       0103TENTOS     ON      NM   R$  000000000116600000000011660000000001133000000000114000000000011350000000001135000000000114402764000000000000459000000000000523593600000000000000009999123100000010000000000000BRTTENACNOR0103
012024092502SMTO3       010SAO MARTINHOON      NM   R$  000000000270700000000027580000000002693000000000273200000000027170000000002717000000000272105519000000000001631000000000004455938400000000000000009999123100000010000000000000BRSMTOACNOR3127
012024092502BBAS3       010BRASIL      ON      NM   R$  000000000275000000000027560000000002721000000000273400000000027300000000002729000000000273022916000000000013854100000000037879257700000000000000009999123100000010000000000000BRBBASACNOR3326
012024092502BRAV3       010BRAVA       ON      NM   R$  000000000195000000000019550000000001790000000000182800000000018200000000001820000000000182129024000000000020792700000000038022185300000000000000009999123100000010000000000000BRBRAVACNOR3100
012024092502KLBN4       010KLABIN S/A  PN      N2   R$  000000000042100000000004210000000000415000000000041700000000004150000000000415000000000041701518000000000000788700000000000329022700000000000000009999123100000010000000000000BRKLBNACNPR9171
012024092502NORD3       010NORDON MET  ON           R$  000000000100000000000010000000000000905000000000099500000000010000000000000950000000000100000008000000000000002200000000000002190400000000000000009999123100000010000000000000BRNORDACNOR7135
012024092502BGIP4       010BANESE      PN           R$  000000000254900000000025990000000002549000000000256100000000025500000000002450000000000254400006000000000000000800000000000002049500000000000000009999123100000010000000000000BRBGIPACNPR8210
012024092502BRAP4       010BRADESPAR   PN      N1   R$  000000000192300000000019390000000001906000000000192600000000019220000000001921000000000192309066000000000004747800000000009148990500000000000000009999123100000010000000000000BRBRAPACNPR2148
012024092502DEXP3       010DEXXOS PAR  ON      N1   R$  000000000088600000000008970000000000878000000000088500000000008830000000000883000000000088400318000000000000108200000000000095768400000000000000009999123100000010000000000000BRDEXPACNOR1105
012024092502DOHL4       010DOHLER      PN           R$  000000000041900000000004190000000000419000000000041900000000004190000000000403000000000041900001000000000000000100000000000000041900000000000000009999123100000010000000000000BRDOHLACNPR9066
012024092502DESK3       010DESKTOP     ON      NM   R$  000000000164000000000016490000000001531000000000157200000000015310000000001530000000000154800765000000000000203100000000000319359500000000000000009999123100000010000000000000BRDESKACNOR2104
012024092502GOAU4       010GERDAU MET  PN      N1   R$  000000000107300000000010790000000001053000000000105800000000010570000000001056000000000105806123000000000005985000000000006334736800000000000000009999123100000010000000000000BRGOAUACNPR8269
012024092502MLAS3       010MULTILASER  ON      NM   R$  000000000015700000000001580000000000149000000000015200000000001490000000000149000000000015004663000000000003775400000000000576433500000000000000009999123100000010000000000000BRMLASACNOR9101
012024092502AZZA3       010AZZAS 2154  ON      NM   R$  000000000448200000000045030000000004294000000000435000000000042940000000004294000000000429906557000000000001487100000000006470031900000000000000009999123100000010000000000000BRAZZAACNOR9100
012024092502CURY3       010CURY S/A    ON      NM   R$  000000000235400000000023620000000002315000000000233000000000023150000000002314000000000231510255000000000003204900000000007468567900000000000000009999123100000010000000000000BRCURYACNOR3109
012024092502FRIO3       010METALFRIO   ON      NM   R$  000000001747300000000175600000000017000000000001743600000000175600000000017560000000001760000039000000000000005500000000000095898000000000000000009999123100000010000000000000BRFRIOACNOR2111
012024092502GGBR4       010GERDAU      PN      N1   R$  000000000184900000000018540000000001817000000000182700000000018270000000001824000000000182710125000000000006872000000000012557878100000000000000009999123100000010000000000000BRGGBRACNPR8193
012024092502CCRO3       010CCR SA      ON      NM   R$  000000000123800000000012490000000001226000000000123900000000012370000000001237000000000124111573000000000008933700000000011077522200000000000000009999123100000010000000000000BRCCROACNOR2145
012024092502CEBR6       010CEB         PNB          R$  000000000180600000000018060000000001784000000000180000000000018030000000001792000000000180300011000000000000002500000000000004502100000000000000009999123100000010000000000000BRCEBRACNPB6124
012024092502CGRA4       010GRAZZIOTIN  PN           R$  000000000249400000000025030000000002494000000000250000000000025030000000002491000000000250200003000000000000000400000000000001000300000000000000009999123100000010000000000000BRCGRAACNPR9083
012024092502CAML3       010CAMIL       ON      NM   R$  000000000090300000000009130000000000881000000000089200000000008820000000000881000000000088501360000000000000264700000000000236274800000000000000009999123100000010000000000000BRCAMLACNOR3129
012024092502CRPG6       010CRISTAL     PNB          R$  000000000274000000000027400000000002740000000000274000000000027400000000002701000000000278000001000000000000010700000000000029318000000000000000009999123100000010000000000000BRCRPGACNPB1119
012024092502ENGI4       010ENERGISA    PN      N2   R$  000000000079500000000008070000000000787000000000079300000000008000000000000800000000000080600021000000000000003100000000000002459200000000000000009999123100000010000000000000BRENGIACNPR7142
012024092502EPAR3       010EMBPAR S/A  ON           R$  000000000057000000000005740000000000569000000000057000000000005690000000000569000000000057400012000000000000001400000000000000799300000000000000009999123100000010000000000000BREPARACNOR9105
012024092502ESPA3       010ESPACOLASER ON      NM   R$  000000000010400000000001050000000000102000000000010300000000001050000000000102000000000010500343000000000000298000000000000030746300000000000000009999123100000010000000000000BRESPAACNOR7103
012024092502INEP3       010INEPAR      ON           R$  000000000018400000000001910000000000184000000000018600000000001900000000000183000000000019000052000000000000021900000000000004074700000000000000009999123100000010000000000000BRINEPACNOR1143
012024092502MAPT4       010CEMEPE      PN           R$  000000000044000000000004500000000000440000000000044200000000004500000000000402000000000045000004000000000000000900000000000000398000000000000000009999123100000010000000000000BRMAPTACNPR5106
012024092502MDNE3       010MOURA DUBEUXON      NM   R$  000000000140400000000014230000000001397000000000141200000000014140000000001414000000000141901712000000000000296700000000000418967700000000000000009999123100000010000000000000BRMDNEACNOR9100
012024092502PETZ3       010PETZ        ON      NM   R$  000000000047200000000004840000000000468000000000047600000000004770000000000476000000000047710022000000000007627000000000003635442500000000000000009999123100000010000000000000BRPETZACNOR2110
012024092502TOTS3       010TOTVS       ON      NM   R$  000000000290100000000029240000000002863000000000289300000000028630000000002863000000000287312097000000000003803600000000011004848200000000000000009999123100000010000000000000BRTOTSACNOR8145
012024092502TRPL3       010TRAN PAULISTON      N1   R$  000000000312600000000031260000000003108000000000311400000000031080000000003108000000000311800019000000000000002500000000000007785600000000000000009999123100000010000000000000BRTRPLACNOR4185
012024092502RADL3       010RAIADROGASILON      NM   R$  000000000265000000000026710000000002608000000000262500000000026200000000002612000000000262010701000000000003635100000000009543877300000000000000009999123100000010000000000000BRRADLACNOR0157
012024092502BAUH4       010EXCELSIOR   PN           R$  000000000790000000000079000000000007900000000000790000000000079000000000007750000000000790000001000000000000000100000000000000790000000000000000009999123100000010000000000000BRBAUHACNPR3118
012024092502BRFS3       010BRF SA      ON      NM   R$  000000000249900000000025270000000002461000000000249900000000025270000000002525000000000252714649000000000005067700000000012669180700000000000000009999123100000010000000000000BRBRFSACNOR8122
012024092502ELET3       010ELETROBRAS  ON      N1   R$  000000000396800000000039850000000003900000000000391900000000039160000000003916000000000391718537000000000006684400000000026202503000000000000000009999123100000010000000000000BRELETACNOR6160
012024092502HBOR3       010HELBOR      ON      NM   R$  000000000018900000000001910000000000184000000000018600000000001880000000000188000000000018901118000000000000420600000000000078548900000000000000009999123100000010000000000000BRHBORACNOR3118
012024092502QUAL3       010QUALICORP   ON      NM   R$  000000000019100000000001940000000000185000000000018900000000001900000000000190000000000019102368000000000002736500000000000517328500000000000000009999123100000010000000000000BRQUALACNOR6120
012024092502PATI3       010PANATLANTICAON           R$  000000000238100000000023810000000002365000000000237500000000023650000000002365000000000300000011000000000000001300000000000003087600000000000000009999123100000010000000000000BRPATIACNOR6066
012024092502PEAB3       010PAR AL BAHIAON           R$  000000000439900000000045500000000004399000000000449800000000045400000000003800000000000450000005000000000000000900000000000004048800000000000000009999123100000010000000000000BRPEABACNOR3133
012024092502ALPA4       010ALPARGATAS  PN      N1   R$  000000000071500000000007260000000000708000000000071600000000007170000000000717000000000071907866000000000003451400000000002472706200000000000000009999123100000010000000000000BRALPAACNPR7232
012024092502ALUP4       010ALUPAR      PN      N2   R$  000000000101600000000010160000000000999000000000100400000000009990000000000999000000000100300072000000000000012100000000000012156500000000000000009999123100000010000000000000BRALUPACNPR5120
012024092502ARML3       010ARMAC       ON      NM   R$  000000000088400000000008950000000000832000000000084900000000008410000000000840000000000084103466000000000000937700000000000796982200000000000000009999123100000010000000000000BRARMLACNOR1112
012024092502WHRL4       010WHIRLPOOL   PN  ED       R$  000000000047000000000004700000000000463000000000046700000000004680000000000465000000000046800013000000000000003600000000000001683300000000000000009999123100000010000000000000BRWHRLACNPR2129
012024092502AGRO3       010BRASILAGRO  ON      NM   R$  000000000258400000000026350000000002570000000000259400000000025830000000002572000000000258400791000000000000167600000000000434758100000000000000009999123100000010000000000000BRAGROACNOR7114
012024092502BMIN4       010MERC INVEST PN           R$  000000000163000000000016400000000001630000000000163600000000016400000000001625000000000164000003000000000000000600000000000000982000000000000000009999123100000010000000000000BRBMINACNPR1176
012024092502ODPV3       010ODONTOPREV  ON      NM   R$  000000000113300000000011330000000001120000000000112400000000011330000000001127000000000113302629000000000000689500000000000775675100000000000000009999123100000010000000000000BRODPVACNOR4203
012024092502YDUQ3       010YDUQS PART  ON      NM   R$  000000000097100000000009720000000000906000000000092700000000009060000000000906000000000090813870000000000006718200000000006233200900000000000000009999123100000010000000000000BRYDUQACNOR3105
012024092502PINE4       010PINE        PN      N2   R$  000000000047600000000004840000000000471000000000047700000000004770000000000477000000000048000829000000000000302600000000000144570600000000000000009999123100000010000000000000BRPINEACNPR8150
012024092502SANB4       010SANTANDER BRPN           R$  000000000151500000000015340000000001511000000000152100000000015240000000001516000000000152500362000000000000055900000000000085058500000000000000009999123100000010000000000000BRSANBACNPR5172
012024092502PNVL3       010DIMED       ON      NM   R$  000000000100000000000010010000000000985000000000099300000000010000000000001000000000000100101052000000000000203800000000000202494200000000000000009999123100000010000000000000BRPNVLACNOR9207
012024092502POSI3       010POSITIVO TECON      NM   R$  000000000057000000000005760000000000560000000000056800000000005600000000000560000000000056502353000000000001767200000000001004885800000000000000009999123100000010000000000000BRPOSIACNOR9116
012024092502LJQQ3       010QUERO-QUERO ON      NM   R$  000000000035900000000003620000000000346000000000035200000000003500000000000350000000000035104773000000000002550600000000000899491000000000000000009999123100000010000000000000BRLJQQACNOR5104
012024092502LREN3       010LOJAS RENNERON  EJ  NM   R$  000000000185300000000018540000000001790000000000180900000000018070000000001803000000000180725444000000000018556200000000033585542800000000000000009999123100000010000000000000BRLRENACNOR1222
012024092502VITT3       010VITTIA      ON      NM   R$  000000000058100000000005810000000000512000000000054700000000005500000000000550000000000055802480000000000001894200000000001037449000000000000000009999123100000010000000000000BRVITTACNOR4107
012024092502RANI3       010IRANI       ON      NM   R$  000000000075900000000007610000000000730000000000074000000000007350000000000735000000000073802721000000000001253300000000000928534700000000000000009999123100000010000000000000BRRANIACNOR5073
012024092502RCSL4       010RECRUSUL    PN           R$  000000000010000000000001010000000000098000000000009900000000000980000000000098000000000010000166000000000000256000000000000025562900000000000000009999123100000010000000000000BRRCSLACNPR1134
012024092502TAEE3       010TAESA       ON      N2   R$  000000000114100000000011450000000001132000000000113900000000011360000000001134000000000113700470000000000000071500000000000081475700000000000000009999123100000010000000000000BRTAEEACNOR9148
012024092502TCSA3       010TECNISA     ON      NM   R$  000000000019400000000001940000000000186000000000018900000000001860000000000186000000000018900291000000000000104700000000000019799900000000000000009999123100000010000000000000BRTCSAACNOR3112
012024092502TEND3       010TENDA       ON      NM   R$  000000000129600000000012960000000001226000000000125200000000012530000000001251000000000125308853000000000002549500000000003192787200000000000000009999123100000010000000000000BRTENDACNOR4111
012024092502VAMO3       010VAMOS       ON      NM   R$  000000000065900000000006660000000000643000000000065000000000006480000000000647000000000064910036000000000006204400000000004036322800000000000000009999123100000010000000000000BRVAMOACNOR7105
012024092502STBP3       010SANTOS BRP  ON      NM   R$  000000000147900000000014860000000001468000000000147700000000014850000000001478000000000148517252000000000007482200000000011057369300000000000000009999123100000010000000000000BRSTBPACNOR3131
012024092502PTNT3       010PETTENATI   ON           R$  000000000118000000000011800000000001080000000000114500000000011740000000001120000000000117500006000000000000000600000000000000687400000000000000009999123100000010000000000000BRPTNTACNOR6042
012024092502EALT4       010ACO ALTONA  PN           R$  000000000135600000000013650000000001347000000000135600000000013600000000001360000000000136500031000000000000013100000000000017771200000000000000009999123100000010000000000000BREALTACNPR1138
012024092502GSHP3       010GENERALSHOPPON           R$  000000000103100000000010310000000001000000000000101100000000010000000000000900000000000099900011000000000000003400000000000003437900000000000000009999123100000010000000000000BRGSHPACNOR7102
012024092502HAPV3       010HAPVIDA     ON      NM   R$  000000000043000000000004310000000000403000000000041000000000004120000000000411000000000041225772000000000127931500000000052492976300000000000000009999123100000010000000000000BRHAPVACNOR4114
012024092502MRVE3       010MRV         ON      NM   R$  000000000073700000000007450000000000726000000000073300000000007260000000000726000000000072810326000000000009843500000000007222379200000000000000009999123100000010000000000000BRMRVEACNOR2127
012024092502ELET5       010ELETROBRAS  PNA     N1   R$  000000000900000000000090000000000009000000000000900000000000090000000000009000000000000000000002000000000000000200000000000001800000000000000000009999123100000010000000000000BRELETACNPA9077
012024092502HBSA3       010HIDROVIAS   ON      NM   R$  000000000034400000000003450000000000335000000000033800000000003360000000000336000000000033802362000000000001955500000000000661529500000000000000009999123100000010000000000000BRHBSAACNOR0100
012024092502LAND3       010TERRASANTAPAON      NM   R$  000000000128000000000013120000000001270000000000127400000000012700000000001268000000000129100128000000000000057900000000000073794200000000000000009999123100000010000000000000BRLANDACNOR9103
012024092502PDGR3       010PDG REALT   ON      NM   R$  000000000000700000000000080000000000005000000000000600000000000050000000000005000000000000602471000000000054108900000000000342939800000000000000009999123100000010000000000000BRPDGRACNOR8119
012024092502PETR4       010PETROBRAS   PN      N2   R$  000000000371000000000037430000000003696000000000371400000000037050000000003705000000000370651410000000000038655300000000143572984400000000000000009999123100000010000000000000BRPETRACNPR6214
012024092502ALUP11      010ALUPAR      UNT     N2   R$  000000000307500000000030840000000003032000000000304200000000030390000000003038000000000304102658000000000000579200000000001762185300000000000000009999123100000010000000000000BRALUPCDAM15120
012024092502AMBP3       010AMBIPAR     ON      NM   R$  000000000938400000000103220000000009351000000000992600000000103190000000010319000000001032002590000000000000597000000000005926000700000000000000009999123100000010000000000000BRAMBPACNOR6103
012024092502WEST3       010WESTWING    ON      NM   R$  000000000008500000000000850000000000083000000000008300000000000830000000000083000000000008400016000000000000010800000000000000906100000000000000009999123100000010000000000000BRWESTACNOR3100
012024092502WLMM4       010WLM IND COM PN           R$  000000000310000000000031000000000003100000000000310000000000031000000000002971000000000309900001000000000000000100000000000000310000000000000000009999123100000010000000000000BRWLMMACNPR3119
012024092502ALOS3       010ALLOS       ON      NM   R$  000000000222500000000022370000000002182000000000219800000000021930000000002193000000000219408676000000000003202600000000007040885100000000000000009999123100000010000000000000BRALOSACNOR5101
012024092502BMOB3       010BEMOBI TECH ON      NM   R$  000000000139300000000014150000000001378000000000139300000000013780000000001377000000000137801326000000000000189800000000000264520100000000000000009999123100000010000000000000BRBMOBACNOR7103
012024092502ONCO3       010ONCOCLINICASON      NM   R$  000000000051000000000005130000000000491000000000050000000000005100000000000497000000000051004640000000000004918800000000002460232800000000000000009999123100000010000000000000BRONCOACNOR6101
012024092502PGMN3       010PAGUE MENOS ON      NM   R$  000000000027000000000002730000000000263000000000026500000000002630000000000262000000000026401230000000000000667100000000000177131700000000000000009999123100000010000000000000BRPGMNACNOR8103
012024092502SANB11      010SANTANDER BRUNT          R$  000000000290400000000029360000000002891000000000291600000000029080000000002907000000000291108772000000000002815300000000008211131600000000000000009999123100000010000000000000BRSANBCDAM13165
012024092502SAPR3       010SANEPAR     ON      N2   R$  000000000059300000000005930000000000570000000000057500000000005710000000000570000000000057100833000000000000232700000000000133952400000000000000009999123100000010000000000000BRSAPRACNOR9159
012024092502POMO4       010MARCOPOLO   PN      N2   R$  000000000077200000000007930000000000769000000000078600000000007850000000000783000000000078710503000000000009006400000000007084215900000000000000009999123100000010000000000000BRPOMOACNPR7099
012024092502RSUL4       010RIOSULENSE  PN           R$  000000000610100000000061010000000006101000000000610100000000061010000000006101000000000634900003000000000000000300000000000001830300000000000000009999123100000010000000000000BRRSULACNPR3114
012024092502LOGN3       010LOG-IN      ON      NM   R$  000000000350000000000035560000000003350000000000346800000000033500000000003350000000000342800059000000000000009200000000000031905700000000000000009999123100000010000000000000BRLOGNACNOR3105
012024092502ABCB4       010ABC BRASIL  PN      N2   R$  000000000220000000000022190000000002197000000000220200000000022040000000002200000000000220501603000000000000299200000000000659078600000000000000009999123100000010000000000000BRABCBACNPR4146
012024092502VIVR3       010VIVER       ON      NM   R$  000000000019700000000002000000000000192000000000019400000000001930000000000194000000000019700076000000000000046400000000000009040800000000000000009999123100000010000000000000BRVIVRACNOR4123
012024092502RAPT4       010RANDON PART PN      N1   R$  000000000112600000000011420000000001098000000000111400000000011100000000001110000000000111207668000000000005231700000000005829194900000000000000009999123100000010000000000000BRRAPTACNPR4163
012024092502RDOR3       010REDE D OR   ON      NM   R$  000000000322800000000032290000000003150000000000317400000000031710000000003161000000000317211546000000000003149800000000009998203400000000000000009999123100000010000000000000BRRDORACNOR8113
012024092502TASA3       010TAURUS ARMASON      N2   R$  000000000110000000000011130000000001100000000000110300000000011000000000001100000000000110400063000000000000010100000000000011144000000000000000009999123100000010000000000000BRTASAACNOR7104
012024092502TELB3       010TELEBRAS    ON           R$  000000000149900000000015840000000001499000000000153000000000015200000000001500000000000154000049000000000000007900000000000012094700000000000000009999123100000010000000000000BRTELBACNOR2140
012024092502TGMA3       010TEGMA       ON      NM   R$  000000000267100000000026810000000002644000000000266500000000026810000000002652000000000268100684000000000000094200000000000251063700000000000000009999123100000010000000000000BRTGMAACNOR7145
012024092502RAIL3       010RUMO S.A.   ON      NM   R$  000000000200200000000020240000000001977000000000199400000000019830000000001983000000000198416055000000000008690600000000017331918600000000000000009999123100000010000000000000BRRAILACNOR9105
012024092502SYNE3       010SYN PROP TECON      NM   R$  000000000077000000000007790000000000769000000000077200000000007750000000000770000000000077502234000000000000493500000000000381325500000000000000009999123100000010000000000000BRSYNEACNOR2103
012024092502JSLG3       010JSL         ON      NM   R$  000000000092900000000009290000000000908000000000091500000000009100000000000910000000000091501459000000000000257800000000000236035400000000000000009999123100000010000000000000BRJSLGACNOR2121
012024092502EGIE3       010ENGIE BRASILON      NM   R$  000000000436000000000043640000000004300000000000431900000000043000000000004300000000000431306175000000000001389400000000006001938200000000000000009999123100000010000000000000BREGIEACNOR9127
012024092502BIOM3       010BIOMM       ON      MA   R$  000000000098300000000010100000000000979000000000099800000000010030000000000999000000000100300198000000000000066300000000000066214000000000000000009999123100000010000000000000BRBIOMACNOR2112
012024092502MRSA3B      010MRS LOGIST  ON      MB   R$  000000000290000000000029000000000002900000000000290000000000029000000000002800000000000308900002000000000000000400000000000001160000000000000000009999123100000010000000000000BRMRSAACNOR6125
012024092502HBRE3       010HBR REALTY  ON      NM   R$  000000000046500000000004670000000000452000000000045600000000004530000000000453000000000045501518000000000000533600000000000243499400000000000000009999123100000010000000000000BRHBREACNOR4100
012024092502KRSA3       010KORA SAUDE  ON      NM   R$  000000000004600000000000480000000000046000000000004600000000000470000000000046000000000004700054000000000000140200000000000006532900000000000000009999123100000010000000000000BRKRSAACNOR0100
012024092502PCAR3       010P.ACUCAR-CBDON      NM   R$  000000000028800000000002920000000000284000000000028600000000002840000000000283000000000028405121000000000009650200000000002764893500000000000000009999123100000010000000000000BRPCARACNOR3167
012024092502PETR3       010PETROBRAS   ON      N2   R$  000000000409700000000041230000000004053000000000408300000000040530000000004051000000000405420118000000000009236200000000037714260300000000000000009999123100000010000000000000BRPETRACNOR9206
012024092502ALPK3       010ESTAPAR     ON      NM   R$  000000000029400000000002980000000000270000000000028100000000002830000000000283000000000028600431000000000000252000000000000071059500000000000000009999123100000010000000000000BRALPKACNOR9101
012024092502AMAR3       010LOJAS MARISAON      NM   R$  000000000010600000000001100000000000106000000000010700000000001090000000000108000000000010900280000000000000111100000000000011976000000000000000009999123100000010000000000000BRAMARACNOR4115
012024092502ASAI3       010ASSAI       ON      NM   R$  000000000080500000000008100000000000771000000000078200000000007780000000000777000000000077821895000000000030722700000000024036455000000000000000009999123100000010000000000000BRASAIACNOR0106
012024092502WIZC3       010WIZ CO      ON      NM   R$  000000000058200000000005830000000000572000000000057600000000005770000000000577000000000057801355000000000000349400000000000201507100000000000000009999123100000010000000000000BRWIZCACNOR5102
012024092502ALLD3       010ALLIED      ON      NM   R$  000000000074500000000007600000000000738000000000074700000000007600000000000743000000000076000170000000000000026600000000000019894100000000000000009999123100000010000000000000BRALLDACNOR3106
012024092502BMKS3       010BIC MONARK  ON           R$  000000003199800000000319980000000030000000000003033200000000306000000000030233000000003060000063000000000000000858000000000026025292000000000000009999123100000010000000000000BRBMKSACNOR9166
012024092502OFSA3       010OUROFINO S/AON      NM   R$  000000000209200000000021280000000002092000000000212300000000021280000000002075000000000212800007000000000000003800000000000008068400000000000000009999123100000010000000000000BROFSAACNOR7118
012024092502PFRM3       010PROFARMA    ON      NM   R$  000000000056300000000005740000000000552000000000055700000000005530000000000551000000000055300747000000000000317500000000000176989400000000000000009999123100000010000000000000BRPFRMACNOR1116
012024092502PLPL3       010PLANOEPLANO ON      NM   R$  000000000125900000000012620000000001205000000000122900000000012410000000001238000000000124103060000000000000935500000000001149922200000000000000009999123100000010000000000000BRPLPLACNOR5104
012024092502SAPR11      010SANEPAR     UNT     N2   R$  000000000309400000000031090000000002992000000000301900000000029960000000002995000000000299805866000000000001176700000000003553456700000000000000009999123100000010000000000000BRSAPRCDAM13118
012024092502POMO3       010MARCOPOLO   ON      N2   R$  000000000059900000000006120000000000597000000000060700000000006100000000000610000000000061201125000000000000544500000000000330515500000000000000009999123100000010000000000000BRPOMOACNOR0099
012024092502ROMI3       010ROMI        ON  EJ  NM   R$  000000000109600000000011030000000001081000000000108800000000010820000000001081000000000108500699000000000000143800000000000156524100000000000000009999123100000010000000000000BRROMIACNOR8196
012024092502LOGG3       010LOG COM PROPON      NM   R$  000000000221800000000022250000000002180000000000220600000000022250000000002206000000000222501937000000000000248300000000000547895500000000000000009999123100000010000000000000BRLOGGACNOR7107
012024092502AALR3       010ALLIAR      ON      NM   R$  000000000153000000000015300000000001463000000000148600000000014960000000001475000000000149700159000000000000021700000000000032267300000000000000009999123100000010000000000000BRAALRACNOR6102
012024092502VIVA3       010VIVARA S.A. ON      NM   R$  000000000274700000000027780000000002676000000000273400000000027500000000002748000000000275316680000000000005201900000000014222189600000000000000009999123100000010000000000000BRVIVAACNOR0107
012024092502RAPT3       010RANDON PART ON      N1   R$  000000000088500000000008950000000000874000000000088200000000008890000000000877000000000088900169000000000000035100000000000030989600000000000000009999123100000010000000000000BRRAPTACNOR7163
012024092502RDNI3       010RNI         ON      NM   R$  000000000031800000000003220000000000318000000000032100000000003220000000000317000000000032000003000000000000000400000000000000128400000000000000009999123100000010000000000000BRRDNIACNOR9116
012024092502TAEE4       010TAESA       PN      N2   R$  000000000114700000000011510000000001144000000000114600000000011440000000001144000000000114600631000000000000128200000000000147039100000000000000009999123100000010000000000000BRTAEEACNPR6148
012024092502TECN3       010TECHNOS     ON      NM   R$  000000000050200000000005060000000000478000000000048700000000004910000000000481000000000049400577000000000000212100000000000103400300000000000000009999123100000010000000000000BRTECNACNOR6109
012024092502TFCO4       010TRACK FIELD PN      N2   R$  000000000111000000000011100000000001070000000000108000000000010700000000001069000000000108300526000000000000175700000000000189806500000000000000009999123100000010000000000000BRTFCOACNPR8114
012024092502VBBR3       010VIBRA       ON  EJ  NM   R$  000000000242000000000024300000000002382000000000240000000000024010000000002400000000000240119822000000000009360400000000022465497500000000000000009999123100000010000000000000BRVBBRACNOR1109
012024092502SUZB3       010SUZANO S.A. ON      NM   R$  000000000528600000000053070000000005216000000000523800000000052160000000005216000000000521711866000000000003133800000000016415831300000000000000009999123100000010000000000000BRSUZBACNOR0130
012024092502HYPE3       010HYPERA      ON  EJ  NM   R$  000000000269000000000026900000000002599000000000263100000000026050000000002604000000000260818165000000000004143900000000010904199200000000000000009999123100000010000000000000BRHYPEACNOR0144
012024092502ECOR3       010ECORODOVIAS ON      NM   R$  000000000072800000000007330000000000718000000000072200000000007250000000000720000000000072605506000000000003353900000000002423032800000000000000009999123100000010000000000000BRECORACNOR8120
012024092502GUAR3       010GUARARAPES  ON      NM   R$  000000000080500000000008090000000000788000000000079600000000007970000000000792000000000079701624000000000000524300000000000417424700000000000000009999123100000010000000000000BRGUARACNOR4173
012024092502JHSF3       010JHSF PART   ON      NM   R$  000000000041200000000004140000000000405000000000040800000000004050000000000405000000000040803295000000000002427500000000000991514300000000000000009999123100000010000000000000BRJHSFACNOR2139
012024092502MTRE3       010MITRE REALTYON  ED  NM   R$  000000000036100000000003640000000000357000000000035900000000003610000000000360000000000036100734000000000000394400000000000141840500000000000000009999123100000010000000000000BRMTREACNOR6115
012024092502ELET6       010ELETROBRAS  PNB     N1   R$  000000000440000000000044220000000004332000000000436000000000043530000000004352000000000435405007000000000001116600000000004869210100000000000000009999123100000010000000000000BRELETACNPB7077
012024092502PTNT4       010PETTENATI   PN           R$  000000000071100000000007110000000000670000000000068400000000006780000000000678000000000067900028000000000000013500000000000009241000000000000000009999123100000010000000000000BRPTNTACNPR3047
012024092502LAVV3       010LAVVI       ON      NM   R$  000000000081500000000008220000000000801000000000080500000000008020000000000802000000000080601121000000000000270500000000000217928100000000000000009999123100000010000000000000BRLAVVACNOR4113
012024092502PDTC3       010PADTEC      ON      NM   R$  000000000018700000000001880000000000185000000000018600000000001860000000000186000000000018800044000000000000046600000000000008670200000000000000009999123100000010000000000000BRPDTCACNOR3101
012024092502AERI3       010AERIS       ON      NM   R$  000000000060600000000006200000000000578000000000059500000000005990000000000589000000000059901103000000000000408200000000000243162100000000000000009999123100000010000000000000BRAERIACNOR4102
012024092502ALUP3       010ALUPAR      ON      N2   R$  000000000105800000000010580000000001030000000000103800000000010300000000001026000000000103000015000000000000001600000000000001661000000000000000009999123100000010000000000000BRALUPACNOR8120
012024092502ANIM3       010ANIMA       ON      NM   R$  000000000024500000000002460000000000234000000000023800000000002340000000000234000000000023508813000000000012332600000000002937552100000000000000009999123100000010000000000000BRANIMACNOR6109
012024092502WHRL3       010WHIRLPOOL   ON  ED       R$  000000000043800000000004380000000000430000000000043100000000004300000000000430000000000043300023000000000000007000000000000003021900000000000000009999123100000010000000000000BRWHRLACNOR5129
012024092502AESB3       010AES BRASIL  ON      NM   R$  000000000116500000000011660000000001161000000000116300000000011650000000001165000000000116601843000000000006945300000000008080743300000000000000009999123100000010000000000000BRAESBACNOR7107
012024092502ALPA3       010ALPARGATAS  ON      N1   R$  000000000071000000000007100000000000695000000000069700000000006950000000000695000000000072800018000000000000002800000000000001952100000000000000009999123100000010000000000000BRALPAACNOR0231
012024092502BOBR4       010BOMBRIL     PN           R$  000000000021800000000002220000000000215000000000021800000000002180000000000217000000000021800066000000000000016100000000000003525300000000000000009999123100000010000000000000BRBOBRACNPR3128
012024092502OPCT3       010OCEANPACT   ON      NM   R$  000000000068300000000006940000000000671000000000068000000000006810000000000681000000000068203027000000000000449600000000000305743200000000000000009999123100000010000000000000BROPCTACNOR0100
012024092502PINE3       010PINE        ON      N2   R$  000000000047900000000004790000000000479000000000047900000000004790000000000479000000000051600001000000000000000100000000000000047900000000000000009999123100000010000000000000BRPINEACNOR1150
012024092502SANB3       010SANTANDER BRON           R$  000000000138000000000013990000000001375000000000138800000000013860000000001382000000000138900389000000000000055700000000000077357500000000000000009999123100000010000000000000BRSANBACNOR8172
012024092502SAPR4       010SANEPAR     PN      N2   R$  000000000062800000000006290000000000602000000000061000000000006060000000000606000000000060704299000000000002387300000000001458010200000000000000009999123100000010000000000000BRSAPRACNPR6159
012024092502PORT3       010WILSON SONS ON      NM   R$  000000000173400000000017420000000001698000000000171000000000017070000000001703000000000170701725000000000000634200000000001084878900000000000000009999123100000010000000000000BRPORTACNOR8109
012024092502LEVE3       010METAL LEVE  ON      NM   R$  000000000310000000000031020000000003028000000000305100000000030280000000003027000000000303001542000000000000322200000000000983117900000000000000009999123100000010000000000000BRLEVEACNOR2197
012024092502LPSB3       010LOPES BRASILON      NM   R$  000000000018100000000001810000000000173000000000017500000000001800000000000176000000000018000158000000000000134900000000000023735000000000000000009999123100000010000000000000BRLPSBACNOR0114
012024092502ABEV3       010AMBEV S/A   ON           R$  000000000127800000000012980000000001268000000000127900000000012680000000001268000000000127247919000000000033524600000000042888385600000000000000009999123100000010000000000000BRABEVACNOR1128
012024092502VIVT3       010TELEF BRASILON           R$  000000000553200000000056030000000005508000000000555900000000055500000000005549000000000557010659000000000002219500000000012338672300000000000000009999123100000010000000000000BRVIVTACNOR0184
012024092502RCSL3       010RECRUSUL    ON           R$  000000000052700000000005500000000000484000000000051500000000005500000000000529000000000055002809000000000001349800000000000695451900000000000000009999123100000010000000000000BRRCSLACNOR4134
012024092502TAEE11      010TAESA       UNT     N2   R$  000000000342300000000034420000000003408000000000342400000000034080000000003408000000000341504702000000000001066300000000003651570900000000000000009999123100000010000000000000BRTAEECDAM10148
012024092502TASA4       010TAURUS ARMASPN      N2   R$  000000000108500000000010880000000001050000000000106400000000010500000000001050000000000105401869000000000000481800000000000512735900000000000000009999123100000010000000000000BRTASAACNPR4104
012024092502TELB4       010TELEBRAS    PN           R$  000000000093000000000010080000000000929000000000096300000000009400000000000925000000000095000112000000000000026700000000000025719700000000000000009999123100000010000000000000BRTELBACNPR9140
012024092502TIMS3       010TIM         ON  EJ  NM   R$  000000000188600000000018980000000001873000000000188100000000018740000000001872000000000187411051000000000005833400000000010973429800000000000000009999123100000010000000000000BRTIMSACNOR5118
012024092502RAIZ4       010RAIZEN      PN      N2   R$  000000000031100000000003120000000000302000000000030600000000003040000000000303000000000030410963000000000014092400000000004323024600000000000000009999123100000010000000000000BRRAIZACNPR6111
012024092502PTBL3       010PORTOBELLO  ON      NM   R$  000000000048200000000004920000000000482000000000048200000000004830000000000483000000000048500791000000000000274400000000000132533300000000000000009999123100000010000000000000BRPTBLACNOR8132
012024092502EALT3       010ACO ALTONA  ON           R$  000000000147300000000014800000000001473000000000147900000000014800000000001466000000000150000005000000000000001000000000000001479300000000000000009999123100000010000000000000BREALTACNOR4138
012024092502GRND3       010GRENDENE    ON      NM   R$  000000000057000000000005720000000000560000000000056500000000005600000000000560000000000056601762000000000000707200000000000399970400000000000000009999123100000010000000000000BRGRNDACNOR3175
012024092502HAGA3       010HAGA S/A    ON           R$  000000000025100000000002520000000000241000000000024500000000002460000000000242000000000024600069000000000000016300000000000003994800000000000000009999123100000010000000000000BRHAGAACNOR7103
012024092502MRSA5B      010MRS LOGIST  PNA     MB   R$  000000000280000000000028000000000002800000000000280000000000028000000000002800000000000325000001000000000000000100000000000000280000000000000000009999123100000010000000000000BRMRSAACNPA9125
012024092502BEEF3       010MINERVA     ON      NM   R$  000000000067000000000006740000000000654000000000066200000000006550000000000654000000000065511220000000000008555300000000005665076400000000000000009999123100000010000000000000BRBEEFACNOR6116
012024092502UNIP6       010UNIPAR      PNB          R$  000000000482000000000048420000000004694000000000473700000000046970000000004697000000000471000765000000000000133600000000000632968700000000000000009999123100000010000000000000BRUNIPACNPB8206
012024092502BLAU3       010BLAU        ON      NM   R$  000000000134400000000013610000000001318000000000133400000000013180000000001318000000000132901276000000000000212100000000000283040200000000000000009999123100000010000000000000BRBLAUACNOR8114
012024092502BPAC11      010BTGP BANCO  UNT     N2   R$  000000000325800000000032920000000003238000000000327300000000032850000000003280000000000328516002000000000012277000000000040187350800000000000000009999123100000010000000000000BRBPACUNT006119
012024092502COGN3       010COGNA ON    ON      NM   R$  000000000013300000000001330000000000124000000000012700000000001250000000000124000000000012524882000000000057006700000000007242392300000000000000009999123100000010000000000000BRCOGNACNOR2105
012024092502VULC3       010VULCABRAS   ON  ED  NM   R$  000000000167300000000017000000000001653000000000166700000000016700000000001664000000000167001450000000000000302600000000000504689500000000000000009999123100000010000000000000BRVULCACNOR2162
012024092502BRKM5       010BRASKEM     PNA     N1   R$  000000000193500000000020200000000001916000000000198800000000020070000000002006000000000200713894000000000004117300000000008185437600000000000000009999123100000010000000000000BRBRKMACNPA4121
012024092502IFCM3       010INFRACOMM   ON      NM   R$  000000000001700000000000180000000000015000000000001600000000000160000000000015000000000001600927000000000013798800000000000226277900000000000000009999123100000010000000000000BRIFCMACNOR8101
012024092502LUPA3       010LUPATECH    ON      NM   R$  000000000014200000000001420000000000138000000000014000000000001400000000000140000000000014100078000000000000102200000000000014344100000000000000009999123100000010000000000000BRLUPAACNOR8112
012024092502CMIG3       010CEMIG       ON  EJ  N1   R$  000000000142900000000014290000000001402000000000141500000000014150000000001414000000000142200940000000000000157800000000000223344100000000000000009999123100000010000000000000BRCMIGACNOR6244
012024092502CSNA3       010SID NACIONALON           R$  000000000121500000000012320000000001203000000000121900000000012180000000001217000000000121916327000000000009319800000000011366077700000000000000009999123100000010000000000000BRCSNAACNOR6261
012024092502EZTC3       010EZTEC       ON      NM   R$  000000000133900000000013940000000001335000000000136000000000013430000000001343000000000134506125000000000001963100000000002670605400000000000000009999123100000010000000000000BREZTCACNOR0126
012024092502FIQE3       010UNIFIQUE    ON      NM   R$  000000000037100000000003770000000000366000000000036900000000003660000000000366000000000036801358000000000000638400000000000235878900000000000000009999123100000010000000000000BRFIQEACNOR5107
012024092502ITUB3       010ITAUUNIBANCOON  EJ  N1   R$  000000000311200000000031460000000003112000000000313100000000031430000000003143000000000314702231000000000000561300000000001757949900000000000000009999123100000010000000000000BRITUBACNOR4341
012024092502AVLL3       010ALPHAVILLE  ON      NM   R$  000000000033200000000003320000000000326000000000032600000000003260000000000318000000000033000003000000000000001200000000000000391800000000000000009999123100000010000000000000BRAVLLACNOR5103
012024092502BBDC4       010BRADESCO    PN      N1   R$  000000000144000000000014530000000001435000000000144400000000014440000000001443000000000144440162000000000044200800000000063851994000000000000000009999123100000010000000000000BRBBDCACNPR8774
012024092502SNSY3       010SANSUY      ON           R$  000000000113500000000011470000000001135000000000114400000000011450000000001125000000000114500008000000000000001600000000000001831800000000000000009999123100000010000000000000BRSNSYACNOR2113
012024092502PRNR3       010PRINER      ON      NM   R$  000000000124600000000012530000000001201000000000121200000000012060000000001201000000000120700727000000000000256000000000000310476400000000000000009999123100000010000000000000BRPRNRACNOR4109
012024092502SBSP3       010SABESP      ON      NM   R$  000000000927600000000092810000000009109000000000915700000000091600000000009159000000000916312783000000000002446100000000022399537900000000000000009999123100000010000000000000BRSBSPACNOR5161
012024092502SHOW3       010TIME FOR FUNON      NM   R$  000000000010100000000001070000000000099000000000010300000000001020000000000099000000000010200623000000000000221300000000000022930400000000000000009999123100000010000000000000BRSHOWACNOR7105
012024092502ZAMP3       010ZAMP S.A.   ON           R$  000000000024700000000002510000000000235000000000024000000000002350000000000235000000000023601596000000000000977400000000000235153900000000000000009999123100000010000000000000BRZAMPACNOR5101
012024092507TXRX4       010TEX RENAUX  PN           R$  000000000022600000000002370000000000226000000000023100000000002370000000000226000000000023500002000000000000000200000000000000046300000000000000009999123100000010000000000000BRTXRXACNPR0142
012024092508AMER3       010AMERICANAS  ON      NM   R$  000000000056700000000005670000000000530000000000054000000000005320000000000532000000000053301936000000000001962100000000001060088400000000000000009999123100000010000000000000BRAMERACNOR6103
012024092508PMAM3       010PARANAPANEMAON      NM   R$  000000000018100000000001840000000000173000000000017500000000001770000000000175000000000017800265000000000000149900000000000026316500000000000000009999123100000010000000000000BRPMAMACNOR3039
012024092508RPMG3       010PET MANGUINHON           R$  000000000029400000000003010000000000292000000000029600000000002950000000000295000000000029700089000000000000044100000000000013057100000000000000009999123100000010000000000000BRRPMGACNOR9194
012024092508JFEN3       010JOAO FORTES ON           R$  000000000002800000000000290000000000026000000000002700000000000270000000000027000000000002800399000000000002226200000000000060757900000000000000009999123100000010000000000000BRJFENACNOR0059
012024092510CBEE1       010AMPLA ENERG DIR ORD      R$  000000000089000000000012800000000000849000000000098300000000008490000000000012000000000085000020000000000000005700000000000005606500000000000000009999123100000010000000000000BRCBEED07OR5159
012024092510ZAMP9       010ZAMP S.A.   ON  REC      R$  000000000028000000000002800000000000280000000000028000000000002800000000000000000000000027300001000000000000000500000000000000140000000000000000009999123100000010000000000000BRZAMPR01OR0100
012024092512KIVO11      010FII KIVO    CI           R$  000000000781200000000078670000000007700000000000774900000000077360000000007700000000000773602740000000000000009520000000000073772826000000000000009999123100000010000000000000BRKIVOCTF007130
012024092512NCRI11      010FII NAVI CRICI           R$  000000000094300000000009860000000000910000000000094400000000009500000000000914000000000095000313000000000000000510000000000000481566000000000000009999123100000010000000000000BRNCRICTF004121
012024092512BPFF11      010FII ABSOLUTOCI           R$  000000000666000000000067860000000006551000000000662000000000066910000000006640000000000669100335000000000000004893000000000032392740000000000000009999123100000010000000000000BRBPFFCTF002239
012024092502MTSA4       010METISA      PN  EJ       R$  000000000389800000000038980000000003840000000000387700000000038400000000003840000000000389700016000000000000002100000000000008142600000000000000009999123100000010000000000000BRMTSAACNPR9073
012024092502UCAS3       010UNICASA     ON      NM   R$  000000000022100000000002210000000000218000000000021900000000002200000000000218000000000022000035000000000000006600000000000001450500000000000000009999123100000010000000000000BRUCASACNOR1113
012024092502USIM3       010USIMINAS    ON      N1   R$  000000000059000000000006000000000000579000000000058400000000005820000000000582000000000058301719000000000000586900000000000342855900000000000000009999123100000010000000000000BRUSIMACNOR3167
012024092502BMEB3       010MERCANTIL   ON      N1   R$  000000000395000000000039500000000003826000000000387600000000038260000000003700000000000399500004000000000000000400000000000001550600000000000000009999123100000010000000000000BRBMEBACNOR8206
012024092502BPAC3       010BTGP BANCO  ON      N2   R$  000000000155700000000015590000000001543000000000155000000000015590000000001540000000000159000019000000000000002200000000000003411400000000000000009999123100000010000000000000BRBPACACNOR7134
012024092502CYRE3       010CYRELA REALTON      NM   R$  000000000204500000000020970000000002040000000000206000000000020450000000002045000000000205119541000000000007181700000000014800395000000000000000009999123100000010000000000000BRCYREACNOR7140
012024092502VVEO3       010VIVEO       ON      NM   R$  000000000019400000000001950000000000186000000000018900000000001880000000000187000000000018803726000000000001897800000000000360159600000000000000009999123100000010000000000000BRVVEOACNOR0104
012024092502EMAE4       010EMAE        PN  EJ       R$  000000000412000000000041200000000003932000000000401100000000040140000000004013000000000406000048000000000000011900000000000047741000000000000000009999123100000010000000000000BREMAEACNPR1126
012024092502IGTI11      010IGUATEMI S.AUNT     N1   R$  000000000213400000000021520000000002103000000000211600000000021070000000002102000000000210707163000000000003143400000000006653804600000000000000009999123100000010000000000000BRIGTICDAM16106
012024092502LVTC3       010WDC NETWORKSON      NM   R$  000000000041500000000004150000000000392000000000040200000000004000000000000400000000000040800026000000000000009500000000000003828200000000000000009999123100000010000000000000BRLVTCACNOR4102
012024092502CMIG4       010CEMIG       PN  EJ  N1   R$  000000000113400000000011490000000001128000000000113600000000011340000000001134000000000113536537000000000012275400000000013953072400000000000000009999123100000010000000000000BRCMIGACNPR3245
012024092502EUCA4       010EUCATEX     PN      N1   R$  000000000157500000000015900000000001510000000000153300000000015100000000001510000000000154200390000000000000097700000000000149823500000000000000009999123100000010000000000000BREUCAACNPR8044
012024092502FESA4       010FERBASA     PN      N1   R$  000000000080600000000008060000000000765000000000077400000000007660000000000765000000000076901807000000000000736200000000000570109700000000000000009999123100000010000000000000BRFESAACNPR5085
012024092502FLRY3       010FLEURY      ON      NM   R$  000000000160600000000016090000000001574000000000158700000000015870000000001579000000000158710243000000000002718700000000004315382600000000000000009999123100000010000000000000BRFLRYACNOR5139
012024092502ITUB4       010ITAUUNIBANCOPN  EJ  N1   R$  000000000357800000000036170000000003578000000000360200000000036160000000003615000000000361626831000000000021696900000000078163488100000000000000009999123100000010000000000000BRITUBACNPR1341
012024092502AZEV3       010AZEVEDO     ON           R$  000000000012000000000001290000000000117000000000012300000000001260000000000125000000000012600673000000000001188700000000000146803800000000000000009999123100000010000000000000BRAZEVACNOR0121
012024092502BRSR3       010BANRISUL    ON      N1   R$  000000000126900000000012730000000001255000000000126400000000012680000000001255000000000127100060000000000000009000000000000011383300000000000000009999123100000010000000000000BRBRSRACNOR3189
012024092502SNSY5       010SANSUY      PNA          R$  000000000057100000000005710000000000546000000000055400000000005680000000000547000000000056200007000000000000002300000000000001275900000000000000009999123100000010000000000000BRSNSYACNPA5111
012024092502PSSA3       010PORTO SEGUROON      NM   R$  000000000359600000000036340000000003576000000000359900000000035890000000003582000000000358906964000000000001563800000000005629069600000000000000009999123100000010000000000000BRPSSAACNOR7155
012024092502SCAR3       010SAO CARLOS  ON      NM   R$  000000000216600000000021990000000002135000000000217100000000021890000000002128000000000219000032000000000000008200000000000017805600000000000000009999123100000010000000000000BRSCARACNOR7131
012024092502SHUL4       010SCHULZ      PN           R$  000000000062800000000006380000000000623000000000062800000000006300000000000625000000000063000667000000000000220100000000000138438000000000000000009999123100000010000000000000BRSHULACNPR4156
012024092502PRIO3       010PETRORIO    ON      NM   R$  000000000464500000000046860000000004467000000000452900000000044810000000004480000000000448230593000000000011236200000000050897074600000000000000009999123100000010000000000000BRPRIOACNOR1107
012024092508NEXP3       010NEXPE       ON           R$  000000000040800000000004090000000000402000000000040600000000004070000000000401000000000040700004000000000000000500000000000000203400000000000000009999123100000010000000000000BRNEXPACNOR0101
012024092508AGXY3       010AGROGALAXY  ON      NM   R$  000000000006400000000000640000000000058000000000005900000000000600000000000059000000000006000459000000000001114100000000000066247400000000000000009999123100000010000000000000BRAGXYACNOR4103
012024092508RNEW11      010RENOVA      UNT     N2   R$  000000000028300000000003100000000000281000000000029700000000003030000000000302000000000030500062000000000000013900000000000004141500000000000000009999123100000010000000000000BRRNEWCDAM15110
012024092508RSID3       010ROSSI RESID ON      NM   R$  000000000031200000000003170000000000305000000000031000000000003100000000000307000000000031000071000000000000008800000000000002735000000000000000009999123100000010000000000000BRRSIDACNOR8120
012024092508OSXB3       010OSX BRASIL  ON      NM   R$  000000000039000000000004200000000000390000000000040500000000003940000000000394000000000040900015000000000000003600000000000001460000000000000000009999123100000010000000000000BROSXBACNOR8109
012024092510EQTL9       010EQUATORIAL  ON  REC NM   R$  000000000323900000000032500000000003200000000000324100000000032500000000003166000000000325000029000000000000007500000000000024312500000000000000009999123100000010000000000000BREQTLR04OR9130
012024092512KEVE11      010FII EVEN II CI           R$  000000011097900000001110000000000110979000000011099800000001110000000000109000000000011149000010000000000000000050000000000005549938000000000000009999123100000010000000000000BRKEVECTF007117
012024092512MXRF11      010FII MAXI RENCI           R$  000000000099900000000010000000000000998000000000099900000000009980000000000998000000000099952151000000000001160146000000001159347952000000000000009999123100000010000000000000BRMXRFCTF008256
012024092512NEWL11      010FII NEWPORT CI           R$  000000001135100000000114000000000011255000000001130100000000114000000000011331000000001140000295000000000000000723000000000008170785000000000000009999123100000010000000000000BRNEWLCTF004158
012024092502B3SA3       010B3          ON  EDJ NM   R$  000000000111800000000011250000000001073000000000108600000000010790000000001078000000000107948585000000000117931300000000128121765200000000000000009999123100000010000000000000BRB3SAACNOR6134
012024092502UNIP3       010UNIPAR      ON           R$  000000000471700000000047730000000004654000000000469500000000046540000000004654000000000467000057000000000000009100000000000042728900000000000000009999123100000010000000000000BRUNIPACNOR7206
012024092502VLID3       010VALID       ON      NM   R$  000000000227800000000022840000000002211000000000223700000000022420000000002225000000000224201609000000000000226000000000000505622100000000000000009999123100000010000000000000BRVLIDACNOR5144
012024092502BMGB4       010BANCO BMG   PN      N1   R$  000000000038100000000003850000000000377000000000037900000000003780000000000377000000000037800890000000000000368600000000000139784400000000000000009999123100000010000000000000BRBMGBACNPR0110
012024092502COCE5       010COELCE      PNA          R$  000000000283800000000028800000000002822000000000285400000000028220000000002803000000000287800090000000000000011000000000000031398500000000000000009999123100000010000000000000BRCOCEACNPA3147
012024092502VTRU3       010VITRUEDUCA  ON      NM   R$  000000000094800000000009600000000000908000000000093400000000009180000000000918000000000092600505000000000000147500000000000137840000000000000000009999123100000010000000000000BRVTRUACNOR3100
012024092502BRKM3       010BRASKEM     ON      N1   R$  000000000193300000000020090000000001933000000000198200000000020060000000001986000000000200600427000000000000062700000000000124312300000000000000009999123100000010000000000000BRBRKMACNOR1119
012024092502ENEV3       010ENEVA       ON      NM   R$  000000000141000000000014220000000001386000000000139500000000013910000000001391000000000139708433000000000004115500000000005743910000000000000000009999123100000010000000000000BRENEVACNOR8106
012024092502IGTI3       010IGUATEMI S.AON      N1   R$  000000000027000000000002700000000000262000000000026400000000002620000000000262000000000026500035000000000000008700000000000002299000000000000000009999123100000010000000000000BRIGTIACNOR8106
012024092502ORVR3       010ORIZON      ON      NM   R$  000000000490100000000049330000000004869000000000488900000000048970000000004895000000000491001949000000000000920700000000004501991300000000000000009999123100000010000000000000BRORVRACNOR0101
012024092502CSMG3       010COPASA      ON  EDJ NM   R$  000000000242600000000024440000000002388000000000240500000000024010000000002399000000000240304968000000000001191300000000002865288700000000000000009999123100000010000000000000BRCSMGACNOR5175
012024092502WEGE3       010WEG         ON      NM   R$  000000000555500000000055860000000005505000000000555200000000055680000000005563000000000556924025000000000006674000000000037056039800000000000000009999123100000010000000000000BRWEGEACNOR0224
012024092502FIEI3       010FICA        ON           R$  000000000092000000000009200000000000920000000000092000000000009200000000000833000000000093900001000000000000000100000000000000092000000000000000009999123100000010000000000000BRFIEIACNOR2100
012024092502ITSA4       010ITAUSA      PN  EJ  N1   R$  000000000109200000000011000000000001092000000000109700000000011000000000001100000000000110113720000000000016529500000000018137754800000000000000009999123100000010000000000000BRITSAACNPR7443
012024092502AURE3       010AUREN       ON      NM   R$  000000000104900000000010520000000001032000000000103700000000010320000000001032000000000103807037000000000003809000000000003952996100000000000000009999123100000010000000000000BRAUREACNOR9104
012024092502BBDC3       010BRADESCO    ON      N1   R$  000000000128800000000013040000000001287000000000129100000000012890000000001288000000000129307907000000000006128300000000007917134200000000000000009999123100000010000000000000BRBBDCACNOR1774
012024092502BSLI3       010BRB BANCO   ON           R$  000000000096100000000009610000000000961000000000096100000000009610000000000961000000000096200001000000000000000200000000000000192200000000000000009999123100000010000000000000BRBSLIACNOR5194
012024092502SRNA3       010SERENA      ON      NM   R$  000000000085000000000008590000000000830000000000083900000000008300000000000829000000000083003531000000000001392000000000001168280900000000000000009999123100000010000000000000BRSRNAACNOR4100
012024092502SBFG3       010GRUPO SBF   ON      NM   R$  000000000166100000000016830000000001628000000000164000000000016400000000001630000000000164104585000000000000963400000000001580473800000000000000009999123100000010000000000000BRSBFGACNOR1103
012024092502SEQL3       010SEQUOIA LOG ON      NM   R$  000000000042200000000004420000000000415000000000042500000000004300000000000425000000000043000914000000000000516500000000000219520500000000000000009999123100000010000000000000BRSEQLACNOR2103
012024092502VALE3       010VALE        ON      NM   R$  000000000607200000000061250000000006042000000000608100000000060610000000006061000000000606445468000000000021557700000000131101343100000000000000009999123100000010000000000000BRVALEACNOR0211
012024092507TXRX3       010TEX RENAUX  ON           R$  000000000100000000000010000000000001000000000000100000000000010000000000000200000000000100000001000000000000000100000000000000100000000000000000009999123100000010000000000000BRTXRXACNOR3142
012024092508CTSA4       010SANTANENSE  PN           R$  000000000011700000000001220000000000116000000000011800000000001220000000000118000000000012200103000000000000048200000000000005719200000000000000009999123100000010000000000000BRCTSAACNPR0062
012024092508OIBR4       010OI          PN      N1   R$  000000000113000000000012000000000001120000000000114400000000011400000000001140000000000115200046000000000000009700000000000011100000000000000000009999123100000010000000000000BROIBRACNPR8111
012024092508RNEW4       010RENOVA      PN      N2   R$  000000000009400000000001030000000000091000000000009900000000001020000000000102000000000010300831000000000000876500000000000086974600000000000000009999123100000010000000000000BRRNEWACNPR5110
012024092508HOOT4       010HOTEIS OTHONPN           R$  000000000022400000000002370000000000222000000000022400000000002230000000000223000000000022900005000000000000001700000000000000381700000000000000009999123100000010000000000000BRHOOTACNPR9015
012024092510BGIP2       010BANESE      DIR PRE      R$  000000000027000000000002700000000000270000000000027000000000002700000000000200000000000027000001000000000000000100000000000000027000000000000000009999123100000010000000000000BRBGIPD08PR8209
012024092510DASA1       010DASA        DIR ORD NM   R$  000000000000400000000000050000000000003000000000000300000000000030000000000003000000000000400197000000000001474400000000000005025700000000000000009999123100000010000000000000BRDASAD04OR0122
012024092512KISU11      010FII KILIMA  CI           R$  000000000079000000000007990000000000786000000000079200000000007930000000000792000000000079302432000000000000107863000000000085430985000000000000009999123100000010000000000000BRKISUCTF000147
012024092512NCHB11      010FII NCH BR  CI           R$  000000000090200000000009080000000000885000000000089600000000008990000000000896000000000089900381000000000000020888000000000018724583000000000000009999123100000010000000000000BRNCHBCTF000233
012024092512NSLU11      010FII LOURDES CI           R$  000000001782600000000178260000000017004000000001725100000000175240000000017466000000001752400110000000000000000804000000000013870585000000000000009999123100000010000000000000BRNSLUCTF008314
012024092502MULT3       010MULTIPLAN   ON      N2   R$  000000000265400000000026540000000002550000000000258200000000025700000000002556000000000257017568000000000004187200000000010811610900000000000000009999123100000010000000000000BRMULTACNOR5139
012024092502UGPA3       010ULTRAPAR    ON      NM   R$  000000000216500000000021650000000002080000000000210500000000020890000000002087000000000209017957000000000007407400000000015593055200000000000000009999123100000010000000000000BRUGPAACNOR8156
012024092502USIM5       010USIMINAS    PNA     N1   R$  000000000060800000000006180000000000595000000000060500000000006040000000000604000000000060517290000000000019218200000000011642570200000000000000009999123100000010000000000000BRUSIMACNPA6169
012024092502BMEB4       010MERCANTIL   PN      N1   R$  000000000419600000000042220000000004165000000000419000000000041760000000004160000000000418700131000000000000023100000000000096792300000000000000009999123100000010000000000000BRBMEBACNPR5211
012024092502BPAC5       010BTGP BANCO  PNA     N2   R$  000000000084800000000008640000000000846000000000085100000000008570000000000848000000000085700018000000000000001800000000000001533200000000000000009999123100000010000000000000BRBPACACNPA0134
012024092502VSTE3       010VESTE       ON      NM   R$  000000000127800000000012800000000001278000000000127900000000012800000000001253000000000128100005000000000000000600000000000000767800000000000000009999123100000010000000000000BRVSTEACNOR5103
012024092502BRIT3       010BRISANET    ON      NM   R$  000000000030200000000003100000000000302000000000030500000000003040000000000303000000000030400239000000000000178200000000000054509200000000000000009999123100000010000000000000BRBRITACNOR0103
012024092502EMBR3       010EMBRAER     ON      NM   R$  000000000504000000000050740000000004963000000000502100000000050160000000005015000000000501828780000000000006015500000000030208096700000000000000009999123100000010000000000000BREMBRACNOR4191
012024092502DASA3       010DASA        ON      NM   R$  000000000027800000000002790000000000270000000000027200000000002710000000000270000000000027101679000000000000567600000000000154774300000000000000009999123100000010000000000000BRDASAACNOR1123
012024092502LWSA3       010LWSA        ON      NM   R$  000000000042900000000004300000000000413000000000041700000000004170000000000414000000000041712326000000000005977000000000002498156800000000000000009999123100000010000000000000BRLWSAACNOR8103
012024092502CSED3       010CRUZEIRO EDUON      NM   R$  000000000034400000000003440000000000321000000000032500000000003300000000000330000000000033101203000000000000668200000000000217818400000000000000009999123100000010000000000000BRCSEDACNOR9105
012024092502EVEN3       010EVEN        ON      NM   R$  000000000063300000000006340000000000623000000000063000000000006290000000000629000000000063003186000000000000992700000000000625770800000000000000009999123100000010000000000000BREVENACNOR8119
012024092502FHER3       010FER HERINGERON      NM   R$  000000000039200000000003930000000000387000000000039000000000003870000000000387000000000038900016000000000000003500000000000001367700000000000000009999123100000010000000000000BRFHERACNOR5103
012024092502ITSA3       010ITAUSA      ON  EJ  N1   R$  000000000108700000000010960000000001085000000000109000000000010960000000001089000000000109600313000000000000082400000000000089869700000000000000009999123100000010000000000000BRITSAACNOR0443
012024092502ATOM3       010ATOMPAR     ON           R$  000000000023500000000002830000000000233000000000026500000000002670000000000256000000000026700281000000000000184300000000000048859200000000000000009999123100000010000000000000BRATOMACNOR1106
012024092502AZEV4       010AZEVEDO     PN           R$  000000000012100000000001300000000000120000000000012500000000001260000000000126000000000012701212000000000003394300000000000425629800000000000000009999123100000010000000000000BRAZEVACNPR7121
012024092502BRSR6       010BANRISUL    PNB     N1   R$  000000000115700000000011650000000001147000000000115200000000011500000000001149000000000115001888000000000000664600000000000766130300000000000000009999123100000010000000000000BRBRSRACNPB4192
012024092502SOJA3       010BOA SAFRA   ON      NM   R$  000000000119400000000012010000000001160000000000117100000000011600000000001159000000000116102723000000000000589700000000000690645900000000000000009999123100000010000000000000BRSOJAACNOR9105
012024092502SLCE3       010SLC AGRICOLAON      NM   R$  000000000173000000000017400000000001719000000000172600000000017240000000001724000000000172706388000000000004256400000000007348331600000000000000009999123100000010000000000000BRSLCEACNOR2125
012024092502SEER3       010SER EDUCA   ON      NM   R$  000000000062100000000006270000000000599000000000061100000000006090000000000604000000000060900736000000000000214100000000000130917400000000000000009999123100000010000000000000BRSEERACNOR5119
012024092502SIMH3       010SIMPAR      ON      NM   R$  000000000053100000000005490000000000518000000000052400000000005180000000000517000000000051805794000000000003884500000000002036550700000000000000009999123100000010000000000000BRSIMHACNOR0107
012024092507NUTR3       010NUTRIPLANT  ON      MA   R$  000000000047300000000004730000000000456000000000046300000000004600000000000460000000000046700009000000000000000900000000000000417500000000000000009999123100000010000000000000BRNUTRACNOR0104
012024092508CTSA3       010SANTANENSE  ON           R$  000000000026800000000002680000000000264000000000026600000000002640000000000263000000000026800002000000000000000200000000000000053200000000000000009999123100000010000000000000BRCTSAACNOR3062
012024092508OIBR3       010OI          ON      N1   R$  000000000053000000000005470000000000521000000000053100000000005300000000000529000000000053202091000000000001745500000000000927483400000000000000009999123100000010000000000000BROIBRACNOR1112
012024092508RNEW3       010RENOVA      ON      N2   R$  000000000009500000000001050000000000091000000000010000000000001010000000000098000000000010100482000000000000345000000000000034501000000000000000009999123100000010000000000000BRRNEWACNOR8110
012024092508LIGT3       010LIGHT S/A   ON      NM   R$  000000000071800000000007210000000000684000000000070000000000007010000000000701000000000070702709000000000000830500000000000581499800000000000000009999123100000010000000000000BRLIGTACNOR2124
012024092508ATMP3       010ATMASA      ON           R$  000000000015000000000001500000000000143000000000014600000000001490000000000145000000000014900018000000000000004000000000000000586300000000000000009999123100000010000000000000BRATMPACNOR8100
012024092510OIBR1       010OI          DIR ORD N1   R$  000000000000300000000000110000000000001000000000000500000000000020000000000002000000000000305743000000000136097800000000000782095600000000000000009999123100000010000000000000BROIBRD05OR7111
012024092512KFOF11      010FII KINEAFOFCI           R$  000000000839500000000084780000000008329000000000842500000000084780000000008435000000000847801201000000000000034736000000000292673381000000000000009999123100000010000000000000BRKFOFCTF006172
012024092512NAVT11      010FII NAVI TOTCI           R$  000000000869000000000087970000000008551000000000868200000000085550000000008555000000000868300137000000000000001468000000000012745659000000000000009999123100000010000000000000BRNAVTCTF015142
012024092512NEWU11      010FII NEWRU   CI           R$  000000000726000000000074000000000007260000000000737100000000072600000000007260000000000740000011000000000000000112000000000000825649000000000000009999123100000010000000000000BRNEWUCTF005124
012024092512CPFF11      010FII CAP REITCI           R$  000000000686400000000068670000000006815000000000683400000000068670000000006846000000000686700311000000000000001351000000000009233335000000000000009999123100000010000000000000BRCPFFCTF000159
012024092512DPRO11      010FII DEVA PROCI           R$  000000000064500000000006690000000000629000000000065400000000006290000000000631000000000066900009000000000000000027000000000000017667000000000000009999123100000010000000000000BRDPROCTF005127
012024092512GLOG11      010FII PLURAL LCI           R$  000000000589200000000060250000000005892000000000595400000000059890000000005934000000000594700017000000000000000067000000000000398983000000000000009999123100000010000000000000BRGLOGCTF000116
012024092512BBIG11      010FII BBIG    CI           R$  000000000093100000000009350000000000930000000000093000000000009310000000000930000000000093102297000000000000059934000000000055773415000000000000009999123100000010000000000000BRBBIGCTF004104
012024092512CXAG11      010FII CAIXA AGCI           R$  000000000753500000000075480000000007488000000000750900000000075000000000007499000000000750000098000000000000001120000000000008410764000000000000009999123100000010000000000000BRCXAGCTF003131
012024092512CXRI11      010FII CX RBRAVCI           R$  000000000759900000000075990000000007300000000000748200000000075860000000007430000000000758600055000000000000000343000000000002566664000000000000009999123100000010000000000000BRCXRICTF003231
012024092512GCRI11      010FII GLPG CRICI           R$  000000000689100000000069000000000006701000000000683900000000068000000000006800000000000684000146000000000000003441000000000023535027000000000000009999123100000010000000000000BRGCRICTF008147
012024092512CJCT11      010FII CJCTOWERCI           R$  000000000595900000000059600000000005950000000000595800000000059600000000005912000000000629100012000000000000000053000000000000315812000000000000009999123100000010000000000000BRCJCTCTF001118
012024092512CRFF11      010FII CX RBRA2CI           R$  000000000790000000000079000000000007846000000000789500000000078460000000007793000000000784600007000000000000000036000000000000284230000000000000009999123100000010000000000000BRCRFFCTF006164
012024092512MANA11      010FII MANATI  CI           R$  000000000088600000000008980000000000875000000000088000000000008780000000000877000000000087805576000000000000238072000000000209611359000000000000009999123100000010000000000000BRMANACTF006128
012024092512MCHY11      010FII MAUA HY CI  ER       R$  000000000090100000000009040000000000885000000000089200000000008910000000000890000000000089121211000000000000720009000000000642355933000000000000009999123100000010000000000000BRMCHYCTF004141
012024092512MGHT11      010FII MOGNO HTCI           R$  000000000192500000000019820000000001866000000000192200000000019450000000001909000000000194500540000000000000002197000000000004222978000000000000009999123100000010000000000000BRMGHTCTF005155
012024092512TMPS11      010FII ITAU TEMCI           R$  000000000911000000000092840000000009100000000000915800000000091100000000009111000000000914200059000000000000002022000000000018518236000000000000009999123100000010000000000000BRTMPSCTF003117
012024092512TRXB11      010FII TRX R IICI           R$  000000001313000000000131300000000012999000000001300300000000129990000000012901000000001300000008000000000000000033000000000000429113000000000000009999123100000010000000000000BRTRXBCTF002154
012024092512SNEL11      010FII SUNO EL CI  ER       R$  000000000092400000000009290000000000924000000000092600000000009260000000000925000000000092601087000000000000054973000000000050946208000000000000009999123100000010000000000000BRSNELCTF010112
012024092512BRCO11      010FII BRESCO  CI           R$  000000001099600000000110550000000010980000000001102100000000110320000000011027000000001103203106000000000000013206000000000145552811000000000000009999123100000010000000000000BRBRCOCTF007160
012024092512HCHG11      010FII HECT CRICI           R$  000000000690000000000069000000000006710000000000683100000000069000000000006731000000000689900012000000000000000056000000000000382542000000000000009999123100000010000000000000BRHCHGCTF001140
012024092512QAGR11      010FII QUASAR ACI           R$  000000000464900000000046490000000004610000000000462100000000046250000000004625000000000462900167000000000000001658000000000007662422000000000000009999123100000010000000000000BRQAGRCTF005158
012024092512KNHY11      010FII KINEA HYCI           R$  000000001061700000000106350000000010608000000001062400000000106170000000010614000000001063502614000000000000027354000000000290617579000000000000009999123100000010000000000000BRKNHYCTF005175
012024092512KNSC11      010FII KINEA SCCI           R$  000000000092500000000009260000000000921000000000092300000000009220000000000922000000000092311752000000000000394849000000000364528984000000000000009999123100000010000000000000BRKNSCCTF008151
012024092512HCTR11      010FII HECTARE CI           R$  000000000293700000000029450000000002900000000000292200000000029000000000002900000000000290807638000000000000033500000000000097887405000000000000009999123100000010000000000000BRHCTRCTF003173
012024092512HGCR11      010FII HGCR PAXCI           R$  000000001018500000000101990000000010156000000001018000000000101580000000010158000000001016504686000000000000032207000000000327883224000000000000009999123100000010000000000000BRHGCRCTF000249
012024092512HGPO11      010FII HGPO PAXCI           R$  000000002910000000000294000000000028892000000002912300000000294000000000029010000000002940000217000000000000001299000000000037831170000000000000009999123100000010000000000000BRHGPOCTF009164
012024092512HOFC11      010FII HOFFICEICI           R$  000000000269600000000026960000000002552000000000256200000000026550000000002552000000000265500196000000000000006520000000000016707218000000000000009999123100000010000000000000BRHOFCCTF009115
012024092512ALZC11      010FII ALIANZACCI  ER       R$  000000000940000000000101000000000009210000000000944400000000092600000000009261000000000950000038000000000000010974000000000103647998000000000000009999123100000010000000000000BRALZCCTF016107
012024092512APTO11      010FII NAVI RSDCI           R$  000000000097000000000009730000000000952000000000095700000000009700000000000969000000000097100145000000000000002301000000000002203849000000000000009999123100000010000000000000BRAPTOCTF007134
012024092512ARXD11      010FII ARXD R  CI           R$  000000000995000000000099500000000009950000000000995000000000099500000000009762000000000995000002000000000000000011000000000000109450000000000000009999123100000010000000000000BRARXDCTF008118
012024092512WPLZ11      010FII W PLAZA CI           R$  000000000585000000000058990000000005850000000000585100000000058990000000005850000000000589900005000000000000000078000000000000456397000000000000009999123100000010000000000000BRWPLZCTF004269
012024092512AJFI11      010FII AJ MALLSCI           R$  000000000078200000000007910000000000766000000000077100000000007720000000000772000000000077705253000000000000216560000000000167127281000000000000009999123100000010000000000000BRAJFICTF001110
012024092512XPCI11      010FII XP CRED CI           R$  000000000870000000000087510000000008658000000000871800000000087080000000008708000000000872005298000000000000019349000000000168687007000000000000009999123100000010000000000000BRXPCICTF007160
012024092512XPML11      010FII XP MALLSCI  ER       R$  000000001082900000000108550000000010671000000001076600000000107450000000010740000000001074531870000000000000200888000000002162875018000000000000009999123100000010000000000000BRXPMLCTF000188
012024092512BPML11      010FII BTG SHOPCI  ER       R$  000000000901900000000090190000000008838000000000894900000000089700000000008970000000000897904399000000000000228041000000002040855906000000000000009999123100000010000000000000BRBPMLCTF006134
012024092512CPSH11      010FII CPSH    CI  ER       R$  000000000104200000000010590000000001034000000000105500000000010480000000001040000000000104802902000000000000571661000000000603542594000000000000009999123100000010000000000000BRCPSHCTF017117
