00COTAHIST.2024BOVESPA 20240905                                                                                                                                                                                                                      
012024090502FIQE3       010UNIFIQUE    ON      NM   R$  000000000038100000000003880000000000378000000000038200000000003810000000000381000000000038300728000000000000366600000000000140396300000000000000009999123100000010000000000000BRFIQEACNOR5107
012024090502FLRY3       010FLEURY      ON      NM   R$  000000000166600000000016800000000001638000000000166600000000016800000000001668000000000168108450000000000002772000000000004618825600000000000000009999123100000010000000000000BRFLRYACNOR5139
012024090502FRAS3       010FRAS-LE     ON      N1   R$  000000000202900000000020290000000001984000000000200700000000020210000000002021000000000202201467000000000000299300000000000600768100000000000000009999123100000010000000000000BRFRASACNOR0160
012024090502FRIO3       010METALFRIO   ON      NM   R$  000000001107400000000113000000000009120000000000956000000000091200000000009120000000001149900018000000000000001900000000000018165400000000000000009999123100000010000000000000BRFRIOACNOR2111
012024090502ITSA3       010ITAUSA      ON  EJ  N1   R$  000000000111800000000011200000000001110000000000111400000000011160000000001116000000000112000316000000000000100000000000000111460400000000000000009999123100000010000000000000BRITSAACNOR0442
012024090502ITSA4       010ITAUSA      PN  EJ  N1   R$  000000000111300000000011230000000001106000000000111400000000011230000000001122000000000112321357000000000024076400000000026837106300000000000000009999123100000010000000000000BRITSAACNPR7442
012024090502MATD3       010MATER DEI   ON      NM   R$  000000000048900000000004910000000000470000000000047800000000004770000000000474000000000047701294000000000000310100000000000148514600000000000000009999123100000010000000000000BRMATDACNOR4104
012024090502PATI3       010PANATLANTICAON           R$  000000000444100000000045500000000004440000000000450200000000044500000000004450000000000457900030000000000000003600000000000016210500000000000000009999123100000010000000000000BRPATIACNOR6065
012024090502PATI4       010PANATLANTICAPN           R$  000000000449800000000045400000000004498000000000450500000000044980000000004260000000000454000008000000000000002200000000000009913000000000000000009999123100000010000000000000BRPATIACNPR3065
012024090502PCAR3       010P.ACUCAR-CBDON      NM   R$  000000000032300000000003280000000000314000000000032100000000003200000000000319000000000032105919000000000010785200000000003469348600000000000000009999123100000010000000000000BRPCARACNOR3167
012024090502SANB11      010SANTANDER BRUNT          R$  000000000316400000000031730000000003135000000000315400000000031590000000003158000000000316006120000000000001952600000000006159099300000000000000009999123100000010000000000000BRSANBCDAM13165
012024090502SANB3       010SANTANDER BRON           R$  000000000150800000000015110000000001492000000000149800000000014990000000001498000000000150100519000000000000079400000000000119001000000000000000009999123100000010000000000000BRSANBACNOR8172
012024090502SANB4       010SANTANDER BRPN           R$  000000000166300000000016630000000001642000000000165000000000016520000000001646000000000165400421000000000000057300000000000094580400000000000000009999123100000010000000000000BRSANBACNPR5172
012024090502SAPR11      010SANEPAR     UNT     N2   R$  000000000291200000000029810000000002901000000000294200000000029810000000002971000000000298106367000000000002034000000000005985248200000000000000009999123100000010000000000000BRSAPRCDAM13118
012024090502SAPR3       010SANEPAR     ON      N2   R$  000000000055800000000005700000000000553000000000056300000000005700000000000565000000000057000551000000000000171200000000000096451100000000000000009999123100000010000000000000BRSAPRACNOR9159
012024090502SAPR4       010SANEPAR     PN      N2   R$  000000000059100000000006000000000000584000000000059300000000006000000000000597000000000060002993000000000001694700000000001006460100000000000000009999123100000010000000000000BRSAPRACNPR6159
012024090502SBFG3       010GRUPO SBF   ON      NM   R$  000000000185100000000018660000000001823000000000184700000000018500000000001840000000000185007174000000000001479900000000002734036400000000000000009999123100000010000000000000BRSBFGACNOR1103
012024090502SBSP3       010SABESP      ON      NM   R$  000000000955500000000095820000000009482000000000952000000000095380000000009536000000000953813938000000000002619000000000024934025400000000000000009999123100000010000000000000BRSBSPACNOR5161
012024090502VALE3       010VALE        ON      NM   R$  000000000568900000000057640000000005673000000000573600000000057400000000005740000000000574133830000000000016585500000000095142367400000000000000009999123100000010000000000000BRVALEACNOR0211
012024090502CPFE3       010CPFL ENERGIAON      NM   R$  000000000343700000000035140000000003435000000000346700000000034740000000003466000000000347508224000000000001763700000000006116378800000000000000009999123100000010000000000000BRCPFEACNOR0137
012024090502CPLE3       010COPEL       ON      N2   R$  000000000097500000000009810000000000958000000000097300000000009800000000000979000000000098012873000000000008450700000000008223787900000000000000009999123100000010000000000000BRCPLEACNOR8149
012024090502CPLE5       010COPEL       PNA     N2   R$  000000000118900000000011970000000001189000000000119100000000011970000000001145000000000119700002000000000000000300000000000000357500000000000000009999123100000010000000000000BRCPLEACNPA1147
012024090502CPLE6       010COPEL       PNB     N2   R$  000000000108900000000010950000000001070000000000108500000000010920000000001092000000000109316474000000000017003200000000018461264000000000000000009999123100000010000000000000BRCPLEACNPB9146
012024090502EKTR4       010ELEKTRO     PN           R$  000000000429000000000043130000000004290000000000429700000000043130000000004281000000000432100003000000000000000300000000000001289300000000000000009999123100000010000000000000BREKTRACNPR7164
012024090502ELET3       010ELETROBRAS  ON      N1   R$  000000000426500000000042760000000004196000000000422500000000042380000000004237000000000423913325000000000003918300000000016557851500000000000000009999123100000010000000000000BRELETACNOR6160
012024090502ELET6       010ELETROBRAS  PNB     N1   R$  000000000472300000000047420000000004660000000000468600000000046850000000004681000000000468504416000000000000760500000000003564224100000000000000009999123100000010000000000000BRELETACNPB7077
012024090502AZZA3       010AZZAS 2154  ON      NM   R$  000000000479800000000048000000000004658000000000471700000000047500000000004750000000000475209675000000000003303500000000015583164200000000000000009999123100000010000000000000BRAZZAACNOR9100
012024090502AZUL4       010AZUL        PN  ATZ N2   R$  000000000048500000000004930000000000470000000000047800000000004740000000000473000000000047412355000000000022435400000000010728694100000000000000009999123100000010000000000000BRAZULACNPR4103
012024090502CMIN3       010CSNMINERACAOON      N2   R$  000000000056800000000005960000000000562000000000058500000000005930000000000593000000000059412287000000000016172600000000009468124600000000000000009999123100000010000000000000BRCMINACNOR2111
012024090502CYRE3       010CYRELA REALTON      NM   R$  000000000215900000000021820000000002145000000000216900000000021710000000002170000000000217213932000000000003320600000000007203117200000000000000009999123100000010000000000000BRCYREACNOR7140
012024090502DASA3       010DASA        ON      NM   R$  000000000031300000000003310000000000313000000000032100000000003180000000000318000000000032302403000000000000890400000000000286510900000000000000009999123100000010000000000000BRDASAACNOR1122
012024090502DESK3       010DESKTOP     ON      NM   R$  000000000153500000000015440000000001520000000000153100000000015390000000001529000000000153900451000000000000074300000000000113794500000000000000009999123100000010000000000000BRDESKACNOR2104
012024090502DEXP3       010DEXXOS PAR  ON      N1   R$  000000000096000000000009600000000000945000000000095200000000009510000000000949000000000095300183000000000000031200000000000029702900000000000000009999123100000010000000000000BRDEXPACNOR1105
012024090502DEXP4       010DEXXOS PAR  PN      N1   R$  000000000093000000000009300000000000923000000000092800000000009300000000000923000000000092900015000000000000003800000000000003526900000000000000009999123100000010000000000000BRDEXPACNPR8105
012024090502DIRR3       010DIRECIONAL  ON      NM   R$  000000000308500000000031000000000003045000000000308300000000030850000000003085000000000308809497000000000001782800000000005497198800000000000000009999123100000010000000000000BRDIRRACNOR0118
012024090502FESA3       010FERBASA     ON      N1   R$  000000000135200000000013520000000001352000000000135200000000013520000000001353000000000145800001000000000000000100000000000000135200000000000000009999123100000010000000000000BRFESAACNOR8188
012024090502FESA4       010FERBASA     PN      N1   R$  000000000079800000000008130000000000793000000000079900000000008000000000000798000000000080002362000000000000743300000000000594229200000000000000009999123100000010000000000000BRFESAACNPR5084
012024090502FHER3       010FER HERINGERON      NM   R$  000000000041200000000004130000000000408000000000041100000000004080000000000408000000000041300004000000000000000400000000000000164500000000000000009999123100000010000000000000BRFHERACNOR5103
012024090502MBLY3       010MOBLY       ON      NM   R$  000000000028800000000002910000000000273000000000028200000000002850000000000285000000000028700751000000000001008100000000000285049300000000000000009999123100000010000000000000BRMBLYACNOR5100
012024090502MDIA3       010M.DIASBRANCOON      NM   R$  000000000275200000000027890000000002725000000000276600000000027740000000002774000000000278903204000000000000726600000000002010365100000000000000009999123100000010000000000000BRMDIAACNOR7135
012024090502MDNE3       010MOURA DUBEUXON      NM   R$  000000000151800000000015300000000001486000000000151100000000015230000000001505000000000152302138000000000000374400000000000565839600000000000000009999123100000010000000000000BRMDNEACNOR9100
012024090502MEAL3       010IMC S/A     ON      NM   R$  000000000015100000000001550000000000151000000000015200000000001520000000000152000000000015300231000000000000258500000000000039421000000000000000009999123100000010000000000000BRMEALACNOR9105
012024090502MELK3       010MELNICK     ON      NM   R$  000000000034100000000003420000000000335000000000033500000000003370000000000337000000000033801630000000000009119400000000003061844600000000000000009999123100000010000000000000BRMELKACNOR8111
012024090502EQTL3       010EQUATORIAL  ON      NM   R$  000000000355500000000035560000000003471000000000350200000000035040000000003504000000000351221254000000000007609800000000026649950600000000000000009999123100000010000000000000BREQTLACNOR0131
012024090502AERI3       010AERIS       ON      NM   R$  000000000109000000000010900000000000950000000000098300000000009500000000000950000000000095501655000000000000694800000000000683221400000000000000009999123100000010000000000000BRAERIACNOR4102
012024090502AESB3       010AES BRASIL  ON  ES  NM   R$  000000000115400000000011560000000001147000000000115200000000011560000000001154000000000115603070000000000006697900000000007719961000000000000000009999123100000010000000000000BRAESBACNOR7107
012024090502AFLT3       010AFLUENTE T  ON           R$  000000000074900000000007490000000000749000000000074900000000007490000000000721000000000076300001000000000000000100000000000000074900000000000000009999123100000010000000000000BRAFLTACNOR1122
012024090502AGRO3       010BRASILAGRO  ON      NM   R$  000000000265100000000026840000000002646000000000266400000000026460000000002646000000000265501567000000000000259300000000000690981100000000000000009999123100000010000000000000BRAGROACNOR7114
012024090502IFCM3       010INFRACOMM   ON      NM   R$  000000000001500000000000150000000000014000000000001400000000000140000000000014000000000001502411000000000005504300000000000080110300000000000000009999123100000010000000000000BRIFCMACNOR8101
012024090502IGTI11      010IGUATEMI S.AUNT     N1   R$  000000000226000000000022710000000002217000000000223700000000022350000000002233000000000223609077000000000002960900000000006624779000000000000000009999123100000010000000000000BRIGTICDAM16106
012024090502IGTI3       010IGUATEMI S.AON      N1   R$  000000000027800000000002780000000000273000000000027500000000002780000000000272000000000027800043000000000000023000000000000006325300000000000000009999123100000010000000000000BRIGTIACNOR8106
012024090502IGTI4       010IGUATEMI S.APN      N1   R$  000000000099300000000009930000000000993000000000099300000000009930000000000009000000000109600001000000000000000200000000000000198600000000000000009999123100000010000000000000BRIGTIACNPR5106
012024090502LEVE3       010METAL LEVE  ON      NM   R$  000000000308500000000031050000000003048000000000307600000000030810000000003078000000000308703786000000000000597800000000001839403900000000000000009999123100000010000000000000BRLEVEACNOR2197
012024090502CAMB3       010CAMBUCI     ON           R$  000000000126100000000012610000000001239000000000124500000000012440000000001240000000000124900107000000000000041600000000000051814000000000000000009999123100000010000000000000BRCAMBACNOR4131
012024090502CAML3       010CAMIL       ON  EDJ NM   R$  000000000096100000000009790000000000959000000000097100000000009790000000000976000000000098001677000000000000432500000000000420201200000000000000009999123100000010000000000000BRCAMLACNOR3129
012024090502LJQQ3       010QUERO-QUERO ON      NM   R$  000000000043300000000004410000000000431000000000043600000000004390000000000437000000000044003488000000000001816400000000000793126200000000000000009999123100000010000000000000BRLJQQACNOR5104
012024090502LOGG3       010LOG COM PROPON      NM   R$  000000000230200000000023160000000002285000000000229700000000023010000000002293000000000230101983000000000000225700000000000518626300000000000000009999123100000010000000000000BRLOGGACNOR7107
012024090502LOGN3       010LOG-IN      ON      NM   R$  000000000361200000000036490000000003590000000000361600000000036480000000003591000000000365000042000000000000004700000000000016997300000000000000009999123100000010000000000000BRLOGNACNOR3105
012024090502LPSB3       010LOPES BRASILON      NM   R$  000000000016000000000001730000000000156000000000016700000000001680000000000164000000000016800491000000000001209000000000000202511200000000000000009999123100000010000000000000BRLPSBACNOR0114
012024090502LREN3       010LOJAS RENNERON      NM   R$  000000000174800000000018060000000001745000000000179000000000018030000000001800000000000180428440000000000017291800000000030959316500000000000000009999123100000010000000000000BRLRENACNOR1221
012024090502NGRD3       010NEOGRID     ON      NM   R$  000000000013200000000001320000000000126000000000012700000000001260000000000126000000000012700652000000000000290500000000000037097700000000000000009999123100000010000000000000BRNGRDACNOR3104
012024090502NINJ3       010GETNINJAS   ON      NM   R$  000000000046500000000004700000000000465000000000046600000000004700000000000460000000000047500034000000000000006300000000000002941600000000000000009999123100000010000000000000BRNINJACNOR5101
012024090502BSLI3       010BRB BANCO   ON           R$  000000000100000000000010120000000001000000000000100900000000010120000000000990000000000103500003000000000000001300000000000001312000000000000000009999123100000010000000000000BRBSLIACNOR5194
012024090502BSLI4       010BRB BANCO   PN           R$  000000000095200000000009520000000000950000000000095000000000009500000000000957000000000097300002000000000000001000000000000000950200000000000000009999123100000010000000000000BRBSLIACNPR2194
012024090502CASH3       010MELIUZ      ON  ER  NM   R$  000000000042400000000004420000000000424000000000043800000000004410000000000438000000000044204298000000000003326700000000001459960100000000000000009999123100000010000000000000BRCASHACNOR8107
012024090502ENEV3       010ENEVA       ON      NM   R$  000000000138700000000014020000000001381000000000139500000000013990000000001396000000000140215546000000000007804000000000010891550600000000000000009999123100000010000000000000BRENEVACNOR8106
012024090502ENGI11      010ENERGISA    UNT     N2   R$  000000000492600000000049590000000004783000000000488100000000048300000000004830000000000485010830000000000003984900000000019451607400000000000000009999123100000010000000000000BRENGICDAM16136
012024090502ENGI3       010ENERGISA    ON      N2   R$  000000000149600000000014960000000001443000000000146400000000014700000000001444000000000147000059000000000000007500000000000010985100000000000000009999123100000010000000000000BRENGIACNOR0146
012024090502ENGI4       010ENERGISA    PN      N2   R$  000000000083000000000008650000000000830000000000084000000000008490000000000835000000000085000055000000000000010500000000000008828600000000000000009999123100000010000000000000BRENGIACNPR7142
012024090502ENJU3       010ENJOEI      ON      NM   R$  000000000015600000000001720000000000154000000000015900000000001550000000000154000000000015501088000000000002392900000000000380893500000000000000009999123100000010000000000000BRENJUACNOR9100
012024090502ENMT4       010ENERGISA MT PN           R$  000000000789000000000078900000000007889000000000788900000000078890000000007412000000000789000003000000000000000300000000000002366700000000000000009999123100000010000000000000BRENMTACNPR2126
012024090502EPAR3       010EMBPAR S/A  ON           R$  000000000058600000000005940000000000578000000000058300000000005780000000000578000000000058300025000000000000011700000000000006832100000000000000009999123100000010000000000000BREPARACNOR9105
012024090502EQMA3B      010EQTLMARANHAOON      MB   R$  000000000255000000000025500000000002550000000000255000000000025500000000002501000000000255000001000000000000000100000000000000255000000000000000009999123100000010000000000000BREQMAACNOR8108
012024090502EQPA3       010EQTL PARA   ON           R$  000000000061800000000006200000000000614000000000061700000000006200000000000616000000000062000025000000000000008300000000000005125800000000000000009999123100000010000000000000BREQPAACNOR1111
012024090502AGXY3       010AGROGALAXY  ON      NM   R$  000000000011900000000001230000000000114000000000011800000000001220000000000121000000000012200362000000000000260500000000000030883400000000000000009999123100000010000000000000BRAGXYACNOR4103
012024090502ALLD3       010ALLIED      ON      NM   R$  000000000075800000000007900000000000758000000000077200000000007870000000000779000000000078700216000000000000086300000000000066665000000000000000009999123100000010000000000000BRALLDACNOR3106
012024090502ALOS3       010ALLOS       ON      NM   R$  000000000232400000000023400000000002294000000000232100000000023270000000002326000000000232813533000000000004371500000000010148477500000000000000009999123100000010000000000000BRALOSACNOR5101
012024090502ALPA3       010ALPARGATAS  ON      N1   R$  000000000076600000000007660000000000765000000000076500000000007650000000000765000000000076600019000000000000007800000000000005967600000000000000009999123100000010000000000000BRALPAACNOR0231
012024090502ALPA4       010ALPARGATAS  PN      N1   R$  000000000076700000000007720000000000737000000000075100000000007590000000000759000000000076016275000000000009944000000000007472509800000000000000009999123100000010000000000000BRALPAACNPR7232
012024090502BRSR3       010BANRISUL    ON      N1   R$  000000000135500000000013550000000001330000000000134600000000013520000000001345000000000135200053000000000000008100000000000010904600000000000000009999123100000010000000000000BRBRSRACNOR3188
012024090502BRSR6       010BANRISUL    PNB     N1   R$  000000000129000000000012960000000001265000000000127400000000012850000000001280000000000128502676000000000000693800000000000884231200000000000000009999123100000010000000000000BRBRSRACNPB4191
012024090502ABCB4       010ABC BRASIL  PN      N2   R$  000000000234400000000023710000000002337000000000235800000000023640000000002360000000000236503007000000000000688900000000001624567000000000000000009999123100000010000000000000BRABCBACNPR4146
012024090502ABEV3       010AMBEV S/A   ON           R$  000000000129400000000013020000000001292000000000129600000000012970000000001296000000000129716498000000000014577100000000018906117500000000000000009999123100000010000000000000BRABEVACNOR1128
012024090502GRND3       010GRENDENE    ON      NM   R$  000000000060600000000006150000000000604000000000060900000000006140000000000610000000000061403213000000000000850400000000000518267900000000000000009999123100000010000000000000BRGRNDACNOR3175
012024090502GUAR3       010GUARARAPES  ON      NM   R$  000000000090300000000009190000000000866000000000089400000000009090000000000900000000000090902623000000000001080900000000000967050400000000000000009999123100000010000000000000BRGUARACNOR4173
012024090502HAGA3       010HAGA S/A    ON           R$  000000000023400000000002380000000000234000000000023600000000002370000000000237000000000024000010000000000000003000000000000000710300000000000000009999123100000010000000000000BRHAGAACNOR7103
012024090502HAGA4       010HAGA S/A    PN           R$  000000000012000000000001200000000000117000000000011700000000001180000000000118000000000011900016000000000000004900000000000000576800000000000000009999123100000010000000000000BRHAGAACNPR4103
012024090502HAPV3       010HAPVIDA     ON      NM   R$  000000000044700000000004600000000000446000000000045400000000004550000000000455000000000045622500000000000050639200000000023030576200000000000000009999123100000010000000000000BRHAPVACNOR4114
012024090502JHSF3       010JHSF PART   ON  ED  NM   R$  000000000045000000000004530000000000447000000000044900000000004510000000000450000000000045102912000000000002990700000000001344825500000000000000009999123100000010000000000000BRJHSFACNOR2139
012024090502MRSA3B      010MRS LOGIST  ON      MB   R$  000000000293000000000029300000000002930000000000293000000000029300000000002911000000000310000002000000000000000300000000000000879000000000000000009999123100000010000000000000BRMRSAACNOR6125
012024090502MRSA5B      010MRS LOGIST  PNA     MB   R$  000000000290000000000029000000000002900000000000290000000000029000000000002850000000000325000001000000000000000300000000000000870000000000000000009999123100000010000000000000BRMRSAACNPA9125
012024090502MRVE3       010MRV         ON      NM   R$  000000000073600000000007850000000000735000000000077400000000007790000000000778000000000077918327000000000026506800000000020521049500000000000000009999123100000010000000000000BRMRVEACNOR2127
012024090502PETZ3       010PETZ        ON      NM   R$  000000000050000000000005090000000000493000000000049900000000004930000000000493000000000049405862000000000009462100000000004722196200000000000000009999123100000010000000000000BRPETZACNOR2110
012024090502BEES3       010BANESTES    ON  EJ       R$  000000000090100000000009020000000000895000000000089800000000009020000000000898000000000090200090000000000000014400000000000012935400000000000000009999123100000010000000000000BRBEESACNOR9395
012024090502BEES4       010BANESTES    PN  EJ       R$  000000000097000000000009700000000000960000000000096300000000009600000000000959000000000096300024000000000000004300000000000004143700000000000000009999123100000010000000000000BRBEESACNPR6320
012024090502BPAN4       010BANCO PAN   PN      N1   R$  000000000105700000000010700000000001057000000000106500000000010640000000001060000000000106504407000000000001978100000000002107312800000000000000009999123100000010000000000000BRBPANACNPR1115
012024090502BRAP3       010BRADESPAR   ON      N1   R$  000000000178900000000018100000000001778000000000179500000000018040000000001803000000000181000636000000000000096600000000000173425900000000000000009999123100000010000000000000BRBRAPACNOR5148
012024090502NTCO3       010GRUPO NATURAON      NM   R$  000000000135300000000014040000000001347000000000138000000000013990000000001396000000000139911383000000000006806600000000009399304400000000000000009999123100000010000000000000BRNTCOACNOR5106
012024090502AALR3       010ALLIAR      ON      NM   R$  000000000161200000000016120000000001564000000000158400000000015850000000001585000000000158600112000000000000020800000000000032951000000000000000009999123100000010000000000000BRAALRACNOR6102
012024090502BRAP4       010BRADESPAR   PN      N1   R$  000000000187100000000018970000000001870000000000188400000000018840000000001884000000000188806959000000000004123100000000007771512200000000000000009999123100000010000000000000BRBRAPACNPR2148
012024090502CRFB3       010CARREFOUR BRON      NM   R$  000000000094900000000009690000000000943000000000095600000000009570000000000956000000000095812493000000000007513300000000007186110400000000000000009999123100000010000000000000BRCRFBACNOR2116
012024090502CRPG5       010CRISTAL     PNA          R$  000000000288000000000029000000000002879000000000289000000000028800000000002880000000000290000011000000000000002800000000000008093900000000000000009999123100000010000000000000BRCRPGACNPA3119
012024090502CSAN3       010COSAN       ON      NM   R$  000000000133900000000013490000000001324000000000133400000000013420000000001341000000000134211610000000000010878800000000014522329200000000000000009999123100000010000000000000BRCSANACNOR6126
012024090502GGPS3       010GPS         ON      NM   R$  000000000179600000000018240000000001792000000000181300000000018220000000001813000000000182407532000000000002292900000000004157403400000000000000009999123100000010000000000000BRGGPSACNOR9103
012024090502BBSE3       010BBSEGURIDADEON      NM   R$  000000000374200000000037420000000003684000000000370400000000036950000000003694000000000369514628000000000003357200000000012436673600000000000000009999123100000010000000000000BRBBSEACNOR5125
012024090502COCE5       010COELCE      PNA          R$  000000000308000000000032390000000003080000000000316200000000032080000000003130000000000320900047000000000000010100000000000031945200000000000000009999123100000010000000000000BRCOCEACNPA3147
012024090502COGN3       010COGNA ON    ON      NM   R$  000000000013800000000001420000000000136000000000013900000000001410000000000141000000000014207145000000000032053100000000004473432300000000000000009999123100000010000000000000BRCOGNACNOR2105
012024090502GEPA3       010GER PARANAP ON           R$  000000000265000000000026500000000002650000000000265000000000026500000000002626000000000289000001000000000000000100000000000000265000000000000000009999123100000010000000000000BRGEPAACNOR2153
012024090502GFSA3       010GAFISA      ON      NM   R$  000000000025800000000002870000000000256000000000026900000000002740000000000274000000000027504469000000000005671400000000001531148200000000000000009999123100000010000000000000BRGFSAACNOR3125
012024090502GGBR3       010GERDAU      ON      N1   R$  000000000161500000000016480000000001615000000000163600000000016400000000001639000000000164000167000000000000023700000000000038786100000000000000009999123100000010000000000000BRGGBRACNOR1193
012024090502GGBR4       010GERDAU      PN      N1   R$  000000000181700000000018460000000001814000000000183300000000018400000000001839000000000184015421000000000009859600000000018076534000000000000000009999123100000010000000000000BRGGBRACNPR8193
012024090502ITUB3       010ITAUUNIBANCOON  EJ  N1   R$  000000000323100000000032760000000003212000000000325800000000032650000000003264000000000326502608000000000000614800000000002003173900000000000000009999123100000010000000000000BRITUBACNOR4340
012024090502ITUB4       010ITAUUNIBANCOPN  EJ  N1   R$  000000000373000000000037600000000003714000000000374000000000037480000000003746000000000374822663000000000011564300000000043255662000000000000000009999123100000010000000000000BRITUBACNPR1340
012024090502DMVF3       010D1000VFARMA ON      NM   R$  000000000070800000000007140000000000704000000000070700000000007040000000000703000000000070800189000000000000036800000000000026042600000000000000009999123100000010000000000000BRDMVFACNOR9100
012024090502DOHL4       010DOHLER      PN           R$  000000000043800000000004400000000000438000000000043800000000004400000000000422000000000044000002000000000000000300000000000000131600000000000000009999123100000010000000000000BRDOHLACNPR9066
012024090502DOTZ3       010DOTZ SA     ON      NM   R$  000000000078000000000008180000000000740000000000077100000000007640000000000763000000000079000148000000000000028800000000000022216200000000000000009999123100000010000000000000BRDOTZACNOR7101
012024090502DTCY3       010DTCOM-DIRECTON           R$  000000000045000000000004500000000000440000000000044600000000004500000000000430000000000045800003000000000000000300000000000000134000000000000000009999123100000010000000000000BRDTCYACNOR5109
012024090502DXCO3       010DEXCO       ON      NM   R$  000000000080600000000008110000000000794000000000080100000000008000000000000800000000000080204611000000000001961100000000001570939900000000000000009999123100000010000000000000BRDXCOACNOR8105
012024090502UNIP3       010UNIPAR      ON           R$  000000000478000000000049350000000004773000000000483600000000048330000000004810000000000483400041000000000000005700000000000027569700000000000000009999123100000010000000000000BRUNIPACNOR7206
012024090502UNIP6       010UNIPAR      PNB          R$  000000000493500000000049560000000004820000000000486200000000048410000000004840000000000484301090000000000000159400000000000775021200000000000000009999123100000010000000000000BRUNIPACNPB8206
012024090502USIM3       010USIMINAS    ON      N1   R$  000000000060000000000006100000000000597000000000060200000000006010000000000600000000000060100907000000000000240100000000000144571000000000000000009999123100000010000000000000BRUSIMACNOR3167
012024090502USIM5       010USIMINAS    PNA     N1   R$  000000000060600000000006220000000000602000000000060800000000006080000000000607000000000060808034000000000010259500000000006244679300000000000000009999123100000010000000000000BRUSIMACNPA6169
012024090502WEST3       010WESTWING    ON      NM   R$  000000000009200000000000920000000000088000000000008900000000000890000000000089000000000009000032000000000000014500000000000001297000000000000000009999123100000010000000000000BRWESTACNOR3100
012024090502WHRL3       010WHIRLPOOL   ON           R$  000000000043800000000004460000000000437000000000043700000000004460000000000436000000000044500007000000000000001100000000000000481700000000000000009999123100000010000000000000BRWHRLACNOR5128
012024090502WHRL4       010WHIRLPOOL   PN           R$  000000000045400000000004670000000000454000000000045700000000004620000000000462000000000046300032000000000000008500000000000003892900000000000000009999123100000010000000000000BRWHRLACNPR2128
012024090502WIZC3       010WIZ CO      ON      NM   R$  000000000061200000000006170000000000608000000000061100000000006170000000000608000000000061701876000000000000508500000000000310907500000000000000009999123100000010000000000000BRWIZCACNOR5102
012024090502WLMM3       010WLM IND COM ON           R$  000000000283000000000028300000000002825000000000282600000000028250000000002825000000000288000004000000000000001100000000000003109500000000000000009999123100000010000000000000BRWLMMACNOR6119
012024090502WLMM4       010WLM IND COM PN           R$  000000000348600000000035300000000003485000000000350700000000035300000000003351000000000358500009000000000000001000000000000003507800000000000000009999123100000010000000000000BRWLMMACNPR3119
012024090502HBOR3       010HELBOR      ON      NM   R$  000000000020700000000002110000000000205000000000020800000000002080000000000207000000000020800352000000000000291200000000000060600500000000000000009999123100000010000000000000BRHBORACNOR3118
012024090502HBRE3       010HBR REALTY  ON      NM   R$  000000000051400000000005260000000000514000000000052000000000005180000000000518000000000052000753000000000000208700000000000108628500000000000000009999123100000010000000000000BRHBREACNOR4100
012024090502HBSA3       010HIDROVIAS   ON      NM   R$  000000000034900000000003520000000000342000000000034700000000003470000000000347000000000035003594000000000000968000000000000336022100000000000000009999123100000010000000000000BRHBSAACNOR0100
012024090502HBTS5       010HABITASUL   PNA          R$  000000000393700000000039370000000003937000000000393700000000039370000000003800000000000410000001000000000000000100000000000000393700000000000000009999123100000010000000000000BRHBTSACNPA3128
012024090502HETA4       010HERCULES    PN           R$  000000000054800000000005500000000000548000000000054900000000005500000000000550000000000058900003000000000000000300000000000000164800000000000000009999123100000010000000000000BRHETAACNPR9136
012024090502YDUQ3       010YDUQS PART  ON      NM   R$  000000000101900000000010200000000000978000000000099900000000010010000000001001000000000100215270000000000009089000000000009081539100000000000000009999123100000010000000000000BRYDUQACNOR3105
012024090502ZAMP3       010ZAMP S.A.   ON           R$  000000000031200000000003180000000000306000000000031100000000003160000000000312000000000031602019000000000000498600000000000155243100000000000000009999123100000010000000000000BRZAMPACNOR5101
012024090502PFRM3       010PROFARMA    ON      NM   R$  000000000063100000000006460000000000626000000000063900000000006440000000000637000000000064400471000000000000120500000000000077024100000000000000009999123100000010000000000000BRPFRMACNOR1116
012024090502PGMN3       010PAGUE MENOS ON      NM   R$  000000000030500000000003120000000000305000000000030800000000003120000000000307000000000031202409000000000000657500000000000202789900000000000000009999123100000010000000000000BRPGMNACNOR8103
012024090502PINE3       010PINE        ON      N2   R$  000000000054700000000005470000000000517000000000052300000000005170000000000517000000000054600029000000000000005300000000000002775400000000000000009999123100000010000000000000BRPINEACNOR1150
012024090502PINE4       010PINE        PN      N2   R$  000000000047500000000004850000000000474000000000047900000000004840000000000482000000000048400477000000000000244900000000000117423700000000000000009999123100000010000000000000BRPINEACNPR8150
012024090502PLPL3       010PLANOEPLANO ON      NM   R$  000000000123300000000012750000000001226000000000125500000000012710000000001262000000000127202968000000000000740500000000000929811000000000000000009999123100000010000000000000BRPLPLACNOR5104
012024090502HYPE3       010HYPERA      ON      NM   R$  000000000283000000000028600000000002809000000000283400000000028600000000002848000000000286013622000000000003515900000000009964297300000000000000009999123100000010000000000000BRHYPEACNOR0143
012024090502PNVL3       010DIMED       ON      NM   R$  000000000100400000000010170000000000994000000000100600000000010110000000001011000000000101202468000000000000378400000000000380682000000000000000009999123100000010000000000000BRPNVLACNOR9207
012024090502POMO3       010MARCOPOLO   ON  EDJ N2   R$  000000000060200000000006180000000000601000000000061200000000006090000000000609000000000061001605000000000000687700000000000421204000000000000000009999123100000010000000000000BRPOMOACNOR0099
012024090502POMO4       010MARCOPOLO   PN  EDJ N2   R$  000000000078400000000008020000000000777000000000079100000000007920000000000791000000000079325975000000000016768300000000013267046300000000000000009999123100000010000000000000BRPOMOACNPR7099
012024090502PORT3       010WILSON SONS ON      NM   R$  000000000169500000000017020000000001670000000000167900000000016850000000001685000000000169102295000000000000644600000000001082896000000000000000009999123100000010000000000000BRPORTACNOR8109
012024090502POSI3       010POSITIVO TECON      NM   R$  000000000066300000000006700000000000645000000000065300000000006560000000000656000000000065703404000000000001486400000000000970647000000000000000009999123100000010000000000000BRPOSIACNOR9116
012024090502PRIO3       010PETRORIO    ON      NM   R$  000000000439600000000044210000000004352000000000438300000000043520000000004351000000000435228640000000000012276200000000053812272300000000000000009999123100000010000000000000BRPRIOACNOR1107
012024090502MTRE3       010MITRE REALTYON      NM   R$  000000000037800000000003840000000000374000000000037800000000003820000000000382000000000038301311000000000000931300000000000352259700000000000000009999123100000010000000000000BRMTREACNOR6114
012024090502MTSA4       010METISA      PN           R$  000000000436100000000044000000000004340000000000437500000000043980000000004300000000000439900013000000000000002000000000000008750400000000000000009999123100000010000000000000BRMTSAACNPR9072
012024090502MULT3       010MULTIPLAN   ON      N2   R$  000000000259400000000026130000000002569000000000259100000000025940000000002588000000000259709178000000000001674900000000004340449400000000000000009999123100000010000000000000BRMULTACNOR5139
012024090502MYPK3       010IOCHP-MAXIONON      NM   R$  000000000116800000000011680000000001141000000000114900000000011610000000001158000000000116103083000000000000890700000000001024198200000000000000009999123100000010000000000000BRMYPKACNOR7155
012024090502RRRP3       0103R PETROLEUMON      NM   R$  000000000246500000000024690000000002411000000000243700000000024220000000002422000000000242524483000000000013316900000000032463128300000000000000009999123100000010000000000000BRRRRPACNOR5103
012024090502TPIS3       010TRIUNFO PARTON      NM   R$  000000000050000000000005150000000000484000000000050000000000004950000000000494000000000049500252000000000000071500000000000035784400000000000000009999123100000010000000000000BRTPISACNOR8118
012024090502TRAD3       010TC          ON      NM   R$  000000000026600000000002740000000000253000000000026200000000002610000000000257000000000026100302000000000000160800000000000042137200000000000000009999123100000010000000000000BRTRADACNOR3102
012024090502TRIS3       010TRISUL      ON      NM   R$  000000000047400000000004750000000000461000000000046700000000004720000000000466000000000047200933000000000000299400000000000140109100000000000000009999123100000010000000000000BRTRISACNOR4118
012024090502TRPL3       010TRAN PAULISTON      N1   R$  000000000319200000000032000000000003187000000000319200000000032000000000003188000000000320000017000000000000002200000000000007023500000000000000009999123100000010000000000000BRTRPLACNOR4185
012024090502TRPL4       010TRAN PAULISTPN      N1   R$  000000000252200000000025350000000002508000000000251400000000025100000000002510000000000251406791000000000001846300000000004642844800000000000000009999123100000010000000000000BRTRPLACNPR1185
012024090502TTEN3       0103TENTOS     ON      NM   R$  000000000118900000000012020000000001174000000000118400000000011870000000001180000000000118807604000000000001268400000000001502460300000000000000009999123100000010000000000000BRTTENACNOR0103
012024090502NEOE3       010NEOENERGIA  ON      NM   R$  000000000204900000000020830000000002032000000000205900000000020620000000002055000000000206505449000000000001408800000000002900815200000000000000009999123100000010000000000000BRNEOEACNOR3123
012024090502TUPY3       010TUPY        ON      NM   R$  000000000281000000000028300000000002742000000000276200000000027600000000002759000000000276002117000000000000345700000000000954856200000000000000009999123100000010000000000000BRTUPYACNOR1184
012024090502UCAS3       010UNICASA     ON      NM   R$  000000000022700000000002270000000000224000000000022500000000002250000000000225000000000022600055000000000000013600000000000003072100000000000000009999123100000010000000000000BRUCASACNOR1113
012024090502UGPA3       010ULTRAPAR    ON      NM   R$  000000000228700000000023320000000002271000000000231400000000023320000000002331000000000233225317000000000005947500000000013763601700000000000000009999123100000010000000000000BRUGPAACNOR8156
012024090502TAEE11      010TAESA       UNT     N2   R$  000000000363000000000036500000000003582000000000359400000000035840000000003584000000000359505338000000000001324100000000004760108900000000000000009999123100000010000000000000BRTAEECDAM10148
012024090502TAEE3       010TAESA       ON      N2   R$  000000000120300000000012040000000001188000000000119400000000011880000000001188000000000119300417000000000000080000000000000095552300000000000000009999123100000010000000000000BRTAEEACNOR9148
012024090502TAEE4       010TAESA       PN      N2   R$  000000000121400000000012170000000001197000000000120300000000011970000000001197000000000120200614000000000000125600000000000151171700000000000000009999123100000010000000000000BRTAEEACNPR6148
012024090502VAMO3       010VAMOS       ON      NM   R$  000000000076200000000007780000000000753000000000076600000000007680000000000766000000000076809259000000000004092300000000003134913100000000000000009999123100000010000000000000BRVAMOACNOR7105
012024090502VBBR3       010VIBRA       ON      NM   R$  000000000261100000000027140000000002586000000000264200000000026500000000002650000000000266319270000000000007965700000000021050897600000000000000009999123100000010000000000000BRVBBRACNOR1108
012024090502RAIZ4       010RAIZEN      PN      N2   R$  000000000031400000000003180000000000312000000000031400000000003140000000000313000000000031407598000000000011152600000000003506583500000000000000009999123100000010000000000000BRRAIZACNPR6111
012024090502RANI3       010IRANI       ON      NM   R$  000000000079100000000007930000000000778000000000078100000000007780000000000778000000000077904742000000000001571900000000001227731500000000000000009999123100000010000000000000BRRANIACNOR5073
012024090502RAPT3       010RANDON PART ON      N1   R$  000000000089400000000008940000000000890000000000089200000000008920000000000891000000000089200036000000000000010700000000000009546100000000000000009999123100000010000000000000BRRAPTACNOR7163
012024090502RAPT4       010RANDON PART PN      N1   R$  000000000111800000000011300000000001087000000000111200000000011180000000001115000000000111806609000000000003454100000000003841535500000000000000009999123100000010000000000000BRRAPTACNPR4163
012024090502SNSY3       010SANSUY      ON           R$  000000000128000000000013100000000001275000000000129700000000013100000000001260000000000130800003000000000000000500000000000000648500000000000000009999123100000010000000000000BRSNSYACNOR2113
012024090502SNSY5       010SANSUY      PNA          R$  000000000057000000000005870000000000552000000000056500000000005520000000000552000000000056300040000000000000012400000000000007006600000000000000009999123100000010000000000000BRSNSYACNPA5111
012024090502SOJA3       010BOA SAFRA   ON      NM   R$  000000000130000000000013150000000001285000000000130100000000012850000000001285000000000129204173000000000000956300000000001244466300000000000000009999123100000010000000000000BRSOJAACNOR9105
012024090502SRNA3       010SERENA      ON      NM   R$  000000000084300000000008460000000000824000000000083900000000008410000000000841000000000084305623000000000003487100000000002926654900000000000000009999123100000010000000000000BRSRNAACNOR4100
012024090502STBP3       010SANTOS BRP  ON      NM   R$  000000000139600000000014070000000001359000000000136900000000013640000000001364000000000136612563000000000004876700000000006676892500000000000000009999123100000010000000000000BRSTBPACNOR3131
012024090502SUZB3       010SUZANO S.A. ON      NM   R$  000000000551000000000055470000000005451000000000549400000000055280000000005527000000000552918466000000000004787200000000026302535500000000000000009999123100000010000000000000BRSUZBACNOR0130
012024090502RADL3       010RAIADROGASILON      NM   R$  000000000273300000000028160000000002733000000000278800000000027910000000002789000000000279313890000000000005056100000000014097545200000000000000009999123100000010000000000000BRRADLACNOR0157
012024090502RAIL3       010RUMO S.A.   ON      NM   R$  000000000216800000000021880000000002144000000000217100000000021790000000002178000000000217918688000000000012702300000000027585765100000000000000009999123100000010000000000000BRRAILACNOR9105
012024090502SMFT3       010SMART FIT   ON      NM   R$  000000000222600000000022580000000002206000000000224000000000022410000000002241000000000225009838000000000001788800000000004007753300000000000000009999123100000010000000000000BRSMFTACNOR1112
012024090502SMTO3       010SAO MARTINHOON      NM   R$  000000000270000000000027550000000002676000000000269800000000026840000000002680000000000268909882000000000001589300000000004288827300000000000000009999123100000010000000000000BRSMTOACNOR3127
012024090502PDGR3       010PDG REALT   ON      NM   R$  000000000001600000000000160000000000015000000000001500000000000160000000000015000000000001600211000000000000326600000000000005167900000000000000009999123100000010000000000000BRPDGRACNOR8119
012024090502PDTC3       010PADTEC      ON      NM   R$  000000000020400000000002060000000000203000000000020400000000002060000000000204000000000020600059000000000000046000000000000009410500000000000000009999123100000010000000000000BRPDTCACNOR3101
012024090502PETR3       010PETROBRAS   ON      N2   R$  000000000422100000000042580000000004180000000000421600000000041900000000004188000000000419016714000000000005671500000000023913974200000000000000009999123100000010000000000000BRPETRACNOR9206
012024090502PETR4       010PETROBRAS   PN      N2   R$  000000000386500000000038890000000003830000000000385500000000038300000000003830000000000383444841000000000026206600000000101043685100000000000000009999123100000010000000000000BRPETRACNPR6214
012024090502PRNR3       010PRINER      ON      NM   R$  000000000130900000000013560000000001253000000000130300000000013350000000001335000000000134202227000000000000874000000000001139233500000000000000009999123100000010000000000000BRPRNRACNOR4109
012024090502PSSA3       010PORTO SEGUROON      NM   R$  000000000349000000000035030000000003454000000000348200000000035010000000003499000000000350205245000000000001052100000000003663538500000000000000009999123100000010000000000000BRPSSAACNOR7155
012024090502PTBL3       010PORTOBELLO  ON      NM   R$  000000000050100000000005100000000000490000000000049900000000005030000000000503000000000050701157000000000000512300000000000255864500000000000000009999123100000010000000000000BRPTBLACNOR8132
012024090502PTNT4       010PETTENATI   PN           R$  000000000073100000000007400000000000722000000000072700000000007400000000000722000000000074000022000000000000006000000000000004366700000000000000009999123100000010000000000000BRPTNTACNPR3047
012024090502QUAL3       010QUALICORP   ON      NM   R$  000000000021700000000002300000000000217000000000022200000000002220000000000219000000000022202581000000000004251700000000000945286000000000000000009999123100000010000000000000BRQUALACNOR6120
012024090502SCAR3       010SAO CARLOS  ON      NM   R$  000000000236300000000023750000000002321000000000234000000000023210000000002321000000000239600025000000000000003200000000000007490000000000000000009999123100000010000000000000BRSCARACNOR7131
012024090502SEER3       010SER EDUCA   ON      NM   R$  000000000063800000000006430000000000628000000000063600000000006360000000000635000000000063801376000000000000258800000000000164812500000000000000009999123100000010000000000000BRSEERACNOR5119
012024090502SEQL3       010SEQUOIA LOG ON      NM   R$  000000000059000000000006250000000000586000000000060400000000005880000000000588000000000059101766000000000000815700000000000493426900000000000000009999123100000010000000000000BRSEQLACNOR2103
012024090502SHOW3       010TIME FOR FUNON      NM   R$  000000000010000000000001010000000000097000000000009800000000000990000000000098000000000009900301000000000000156300000000000015384800000000000000009999123100000010000000000000BRSHOWACNOR7105
012024090502SHUL4       010SCHULZ      PN           R$  000000000066400000000006650000000000656000000000066100000000006650000000000658000000000066600258000000000000112500000000000074422800000000000000009999123100000010000000000000BRSHULACNPR4156
012024090502SIMH3       010SIMPAR      ON      NM   R$  000000000061100000000006230000000000604000000000061200000000006150000000000615000000000061603196000000000001906500000000001167638200000000000000009999123100000010000000000000BRSIMHACNOR0107
012024090502SLCE3       010SLC AGRICOLAON      NM   R$  000000000176000000000017700000000001752000000000175600000000017550000000001755000000000175805104000000000002123800000000003731469200000000000000009999123100000010000000000000BRSLCEACNOR2125
012024090502BAHI3       010BAHEMA      ON      MA   R$  000000000065500000000006940000000000655000000000067300000000006940000000000665000000000069400014000000000000007300000000000004919700000000000000009999123100000010000000000000BRBAHIACNOR1074
012024090502BALM4       010BAUMER      PN           R$  000000000106000000000010600000000001060000000000106000000000010600000000001060000000000111000001000000000000001300000000000001378000000000000000009999123100000010000000000000BRBALMACNPR2056
012024090502BAZA3       010AMAZONIA    ON           R$  000000000964900000000096490000000009566000000000960200000000096100000000009550000000000969000014000000000000001900000000000018245500000000000000009999123100000010000000000000BRBAZAACNOR0179
012024090502BBAS3       010BRASIL      ON      NM   R$  000000000290600000000029270000000002890000000000291200000000029250000000002924000000000292520960000000000008433600000000024565492300000000000000009999123100000010000000000000BRBBASACNOR3325
012024090502ODPV3       010ODONTOPREV  ON      NM   R$  000000000115800000000011720000000001142000000000115800000000011660000000001163000000000116603637000000000001254000000000001452756000000000000000009999123100000010000000000000BRODPVACNOR4203
012024090502OFSA3       010OUROFINO S/AON      NM   R$  000000000222600000000022440000000002226000000000223500000000022380000000002238000000000237400007000000000000002000000000000004470600000000000000009999123100000010000000000000BROFSAACNOR7118
012024090502ONCO3       010ONCOCLINICASON      NM   R$  000000000058400000000005850000000000551000000000056100000000005570000000000556000000000055704765000000000003731900000000002097106100000000000000009999123100000010000000000000BRONCOACNOR6101
012024090502OPCT3       010OCEANPACT   ON      NM   R$  000000000071500000000007210000000000700000000000070600000000007050000000000705000000000070903064000000000000633100000000000447533900000000000000009999123100000010000000000000BROPCTACNOR0100
012024090502ORVR3       010ORIZON      ON      NM   R$  000000000471000000000047100000000004531000000000458900000000046010000000004599000000000460102644000000000000456300000000002094403000000000000000009999123100000010000000000000BRORVRACNOR0101
012024090502BIOM3       010BIOMM       ON      MA   R$  000000000089500000000011400000000000895000000000103700000000010300000000001027000000000103001514000000000000413300000000000428597100000000000000009999123100000010000000000000BRBIOMACNOR2112
012024090502BLAU3       010BLAU        ON      NM   R$  000000000145200000000014580000000001405000000000143400000000014430000000001442000000000145201337000000000000232200000000000333150500000000000000009999123100000010000000000000BRBLAUACNOR8114
012024090502BMEB3       010MERCANTIL   ON      N1   R$  000000000360000000000036000000000003590000000000359200000000035900000000003522000000000359000002000000000000000400000000000001437000000000000000009999123100000010000000000000BRBMEBACNOR8206
012024090502BMEB4       010MERCANTIL   PN      N1   R$  000000000390100000000039550000000003860000000000390900000000039280000000003880000000000392800047000000000000006700000000000026194200000000000000009999123100000010000000000000BRBMEBACNPR5211
012024090502BMGB4       010BANCO BMG   PN      N1   R$  000000000038700000000003900000000000384000000000038700000000003880000000000387000000000038800757000000000000392400000000000152073500000000000000009999123100000010000000000000BRBMGBACNPR0110
012024090502BMIN4       010MERC INVEST PN           R$  000000000165000000000016500000000001650000000000165000000000016500000000001650000000000177500001000000000000000100000000000000165000000000000000009999123100000010000000000000BRBMINACNPR1176
012024090502BMKS3       010BIC MONARK  ON           R$  000000003400000000000345000000000031529000000003348900000000328000000000032002000000003400000020000000000000000104000000000003482899000000000000009999123100000010000000000000BRBMKSACNOR9166
012024090502BMOB3       010BEMOBI TECH ON      NM   R$  000000000154600000000015560000000001528000000000153800000000015390000000001534000000000154201375000000000000190100000000000292526400000000000000009999123100000010000000000000BRBMOBACNOR7103
012024090502BOBR4       010BOMBRIL     PN           R$  000000000023100000000002310000000000222000000000022300000000002240000000000223000000000022400071000000000000033900000000000007590700000000000000009999123100000010000000000000BRBOBRACNPR3128
012024090502BRIT3       010BRISANET    ON      NM   R$  000000000034700000000003470000000000336000000000033900000000003360000000000336000000000033701344000000000000496100000000000168317100000000000000009999123100000010000000000000BRBRITACNOR0103
012024090502BRKM3       010BRASKEM     ON      N1   R$  000000000190300000000019500000000001835000000000185700000000018820000000001857000000000186700299000000000000043200000000000080226100000000000000009999123100000010000000000000BRBRKMACNOR1119
012024090502BRKM5       010BRASKEM     PNA     N1   R$  000000000187000000000018860000000001808000000000182800000000018350000000001834000000000183508613000000000003041700000000005561554200000000000000009999123100000010000000000000BRBRKMACNPA4121
012024090502ELMD3       010ELETROMIDIA ON      NM   R$  000000000183500000000018500000000001797000000000182200000000018130000000001797000000000181400520000000000000064300000000000117209700000000000000009999123100000010000000000000BRELMDACNOR3101
012024090502EMAE4       010EMAE        PN           R$  000000000410000000000041000000000003970000000000404000000000039700000000003970000000000402900049000000000000008300000000000033536400000000000000009999123100000010000000000000BREMAEACNPR1125
012024090502EMBR3       010EMBRAER     ON      NM   R$  000000000492500000000049990000000004894000000000496600000000049790000000004978000000000497923455000000000005877100000000029187046000000000000000009999123100000010000000000000BREMBRACNOR4191
012024090502EALT3       010ACO ALTONA  ON           R$  000000000143000000000015500000000001430000000000150500000000015250000000001515000000000154900032000000000000010800000000000016258800000000000000009999123100000010000000000000BREALTACNOR4138
012024090502EALT4       010ACO ALTONA  PN           R$  000000000148600000000015720000000001486000000000153400000000015370000000001536000000000156100095000000000000033700000000000051714000000000000000009999123100000010000000000000BREALTACNPR1138
012024090502ECOR3       010ECORODOVIAS ON      NM   R$  000000000078100000000007970000000000774000000000078700000000007970000000000791000000000079703883000000000002026500000000001596320500000000000000009999123100000010000000000000BRECORACNOR8120
012024090502EGIE3       010ENGIE BRASILON      NM   R$  000000000451900000000045360000000004451000000000447900000000044880000000004480000000000448905136000000000000866300000000003880442400000000000000009999123100000010000000000000BREGIEACNOR9127
012024090502GMAT3       010GRUPO MATEUSON      NM   R$  000000000079600000000008030000000000788000000000079700000000008000000000000798000000000080304230000000000001355500000000001080353300000000000000009999123100000010000000000000BRGMATACNOR7102
012024090502GOAU3       010GERDAU MET  ON      N1   R$  000000000107500000000010850000000001070000000000107400000000010760000000001072000000000107700088000000000000013800000000000014833400000000000000009999123100000010000000000000BRGOAUACNOR1268
012024090502GOAU4       010GERDAU MET  PN      N1   R$  000000000105100000000010590000000001048000000000105400000000010570000000001056000000000105807540000000000004168300000000004393714800000000000000009999123100000010000000000000BRGOAUACNPR8269
012024090502JALL3       010JALLESMACHADON      NM   R$  000000000066300000000006700000000000653000000000065800000000006670000000000658000000000066701246000000000000614500000000000404895100000000000000009999123100000010000000000000BRJALLACNOR0106
012024090502JBSS3       010JBS         ON      NM   R$  000000000344600000000035340000000003422000000000348900000000034600000000003459000000000346125192000000000008739400000000030498087900000000000000009999123100000010000000000000BRJBSSACNOR8122
012024090502MILS3       010MILLS       ON      NM   R$  000000000112200000000011290000000001094000000000110400000000010980000000001098000000000110002992000000000000964700000000001065474200000000000000009999123100000010000000000000BRMILSACNOR2128
012024090502MLAS3       010MULTILASER  ON      NM   R$  000000000018900000000001930000000000187000000000019000000000001910000000000190000000000019102752000000000001174300000000000223132800000000000000009999123100000010000000000000BRMLASACNOR9101
012024090502MNDL3       010MUNDIAL     ON           R$  000000000144000000000015500000000001439000000000144500000000015500000000001342000000000155000010000000000000004700000000000006795800000000000000009999123100000010000000000000BRMNDLACNOR4109
012024090502MNPR3       010MINUPAR     ON           R$  000000000161800000000016190000000001610000000000161200000000016190000000001560000000000162000003000000000000000700000000000001128700000000000000009999123100000010000000000000BRMNPRACNOR5122
012024090502MOVI3       010MOVIDA      ON      NM   R$  000000000071500000000007250000000000703000000000071500000000007190000000000717000000000072006602000000000002729300000000001953192800000000000000009999123100000010000000000000BRMOVIACNOR0122
012024090502ATOM3       010ATOMPAR     ON           R$  000000000022200000000002220000000000215000000000021600000000002150000000000215000000000021800021000000000000008800000000000001904600000000000000009999123100000010000000000000BRATOMACNOR1106
012024090502AURE3       010AUREN       ON      NM   R$  000000000114300000000011430000000001125000000000113000000000011340000000001133000000000113409790000000000006197700000000007008200000000000000000009999123100000010000000000000BRAUREACNOR9104
012024090502AVLL3       010ALPHAVILLE  ON      NM   R$  000000000039500000000003950000000000395000000000039500000000003950000000000350000000000039500001000000000000000100000000000000039500000000000000009999123100000010000000000000BRAVLLACNOR5103
012024090502AZEV3       010AZEVEDO     ON           R$  000000000013800000000001390000000000134000000000013600000000001370000000000136000000000013700502000000000000517300000000000070655500000000000000009999123100000010000000000000BRAZEVACNOR0121
012024090502AZEV4       010AZEVEDO     PN           R$  000000000013400000000001370000000000132000000000013400000000001350000000000134000000000013502849000000000004983300000000000672171100000000000000009999123100000010000000000000BRAZEVACNPR7121
012024090502JSLG3       010JSL         ON      NM   R$  000000000099800000000010200000000000990000000000100600000000010120000000001012000000000101901578000000000000361800000000000364191800000000000000009999123100000010000000000000BRJSLGACNOR2121
012024090502KEPL3       010KEPLER WEBERON      NM   R$  000000000115300000000011570000000001130000000000113900000000011350000000001135000000000114202699000000000000717200000000000816972300000000000000009999123100000010000000000000BRKEPLACNOR1064
012024090502KLBN11      010KLABIN S/A  UNT     N2   R$  000000000219300000000022000000000002179000000000218600000000021880000000002187000000000218807077000000000001753800000000003834161700000000000000009999123100000010000000000000BRKLBNCDAM18143
012024090502KLBN3       010KLABIN S/A  ON      N2   R$  000000000044000000000004410000000000438000000000043800000000004390000000000438000000000043900369000000000000092800000000000040734800000000000000009999123100000010000000000000BRKLBNACNOR2171
012024090502KLBN4       010KLABIN S/A  PN      N2   R$  000000000043900000000004390000000000435000000000043600000000004370000000000437000000000043801200000000000000781700000000000341542500000000000000009999123100000010000000000000BRKLBNACNPR9171
012024090502B3SA3       010B3          ON      NM   R$  000000000125300000000012600000000001243000000000125400000000012590000000001256000000000125923709000000000018944700000000023763222000000000000000009999123100000010000000000000BRB3SAACNOR6133
012024090502BEEF3       010MINERVA     ON      NM   R$  000000000074000000000007430000000000711000000000072100000000007200000000000719000000000072208427000000000007404900000000005341251300000000000000009999123100000010000000000000BRBEEFACNOR6116
012024090502BPAC11      010BTGP BANCO  UNT     N2   R$  000000000354600000000035720000000003507000000000354300000000035580000000003549000000000355912639000000000004105900000000014548041600000000000000009999123100000010000000000000BRBPACUNT006119
012024090502BPAC3       010BTGP BANCO  ON      N2   R$  000000000166000000000016600000000001624000000000163400000000016370000000001636000000000166100011000000000000001300000000000002125300000000000000009999123100000010000000000000BRBPACACNOR7134
012024090502BPAC5       010BTGP BANCO  PNA     N2   R$  000000000094900000000009490000000000940000000000094300000000009490000000000935000000000095600009000000000000001400000000000001321000000000000000009999123100000010000000000000BRBPACACNPA0134
012024090502AMBP3       010AMBIPAR     ON      NM   R$  000000000649400000000064940000000006040000000000622800000000063990000000006320000000000640000826000000000000242000000000001507391500000000000000009999123100000010000000000000BRAMBPACNOR6103
012024090502ANIM3       010ANIMA       ON      NM   R$  000000000033900000000003480000000000335000000000033900000000003400000000000339000000000034105601000000000002832000000000000961974100000000000000009999123100000010000000000000BRANIMACNOR6109
012024090502ARML3       010ARMAC       ON      NM   R$  000000000086900000000008780000000000833000000000084500000000008410000000000840000000000084102834000000000000700900000000000592935300000000000000009999123100000010000000000000BRARMLACNOR1112
012024090502ASAI3       010ASSAI       ON      NM   R$  000000000099300000000010020000000000955000000000096600000000009590000000000959000000000096023117000000000022096900000000021361942000000000000000009999123100000010000000000000BRASAIACNOR0106
012024090502BBDC3       010BRADESCO    ON  EJ  N1   R$  000000000142900000000014480000000001426000000000143800000000014380000000001438000000000144006228000000000003444200000000004952899600000000000000009999123100000010000000000000BRBBDCACNOR1774
012024090502BBDC4       010BRADESCO    PN  EJ  N1   R$  000000000158300000000016150000000001578000000000160000000000016010000000001600000000000160129675000000000029843800000000047778852700000000000000009999123100000010000000000000BRBBDCACNPR8774
012024090502CBAV3       010CBA         ON      NM   R$  000000000048100000000004900000000000481000000000048500000000004850000000000484000000000048505286000000000001845300000000000895705000000000000000009999123100000010000000000000BRCBAVACNOR5104
012024090502CBEE3       010AMPLA ENERG ON           R$  000000000100000000000010000000000000990000000000099600000000009900000000000911000000000120000005000000000000000800000000000000797000000000000000009999123100000010000000000000BRCBEEACNOR3159
012024090502CCRO3       010CCR SA      ON      NM   R$  000000000135800000000013700000000001349000000000135800000000013610000000001360000000000136208341000000000003120100000000004239963100000000000000009999123100000010000000000000BRCCROACNOR2145
012024090502CEAB3       010CEA MODAS   ON      NM   R$  000000000100300000000010310000000001003000000000102100000000010300000000001026000000000103103535000000000001502700000000001534339300000000000000009999123100000010000000000000BRCEABACNOR1102
012024090502CEBR3       010CEB         ON           R$  000000000192700000000019390000000001918000000000192900000000019220000000001901000000000193700015000000000000001700000000000003279500000000000000009999123100000010000000000000BRCEBRACNOR5125
012024090502CEBR5       010CEB         PNA          R$  000000000168100000000016810000000001643000000000165700000000016430000000001643000000000167100031000000000000004700000000000007788200000000000000009999123100000010000000000000BRCEBRACNPA8124
012024090502CEBR6       010CEB         PNB          R$  000000000180400000000018100000000001788000000000179300000000017880000000001782000000000180000027000000000000004200000000000007534000000000000000009999123100000010000000000000BRCEBRACNPB6124
012024090502CEDO3       010CEDRO       ON      N1   R$  000000000256000000000025600000000002560000000000256000000000025600000000002500000000000280000001000000000000000200000000000000512000000000000000009999123100000010000000000000BRCEDOACNOR8096
012024090502CEEB3       010COELBA      ON           R$  000000000392000000000039200000000003850000000000388700000000038880000000003900000000000394800019000000000000008900000000000034595900000000000000009999123100000010000000000000BRCEEBACNOR3199
012024090502CGAS3       010COMGAS      ON           R$  000000001149900000000114990000000011499000000001149900000000114990000000011499000000001270500001000000000000000100000000000001149900000000000000009999123100000010000000000000BRCGASACNOR0164
012024090502CGAS5       010COMGAS      PNA          R$  000000001236600000000125000000000012366000000001242300000000124000000000012302000000001252000010000000000000001200000000000014907900000000000000009999123100000010000000000000BRCGASACNPA3161
012024090502CGRA3       010GRAZZIOTIN  ON           R$  000000000256000000000025640000000002540000000000255600000000025400000000002531000000000257900006000000000000000600000000000001533800000000000000009999123100000010000000000000BRCGRAACNOR2083
012024090502CGRA4       010GRAZZIOTIN  PN           R$  000000000254300000000025500000000002517000000000253300000000025300000000002530000000000254900034000000000000003900000000000009879800000000000000009999123100000010000000000000BRCGRAACNPR9083
012024090502CLSA3       010CLEARSALE   ON      NM   R$  000000000086500000000008680000000000810000000000082900000000008230000000000811000000000082305401000000000002535400000000002102886500000000000000009999123100000010000000000000BRCLSAACNOR0100
012024090502CLSC3       010CELESC      ON      N2   R$  000000000732800000000074800000000007328000000000735300000000074800000000007400000000000770000003000000000000000600000000000004412000000000000000009999123100000010000000000000BRCLSCACNOR6152
012024090502CLSC4       010CELESC      PN      N2   R$  000000000788000000000080910000000007878000000000799200000000080590000000007940000000000806000032000000000000005200000000000041560200000000000000009999123100000010000000000000BRCLSCACNPR3131
012024090502CMIG3       010CEMIG       ON      N1   R$  000000000148600000000014880000000001456000000000148500000000014880000000001488000000000148900733000000000000668400000000000993114300000000000000009999123100000010000000000000BRCMIGACNOR6243
012024090502CMIG4       010CEMIG       PN      N1   R$  000000000119500000000012040000000001180000000000119100000000011910000000001190000000000119120888000000000014362300000000017109970400000000000000009999123100000010000000000000BRCMIGACNPR3244
012024090502CSUD3       010CSU DIGITAL ON      NM   R$  000000000188600000000018900000000001847000000000186100000000018650000000001862000000000186500149000000000000022900000000000042634900000000000000009999123100000010000000000000BRCSUDACNOR5110
012024090502CURY3       010CURY S/A    ON      NM   R$  000000000245600000000024750000000002435000000000245700000000024600000000002460000000000246806754000000000001158100000000002845750800000000000000009999123100000010000000000000BRCURYACNOR3109
012024090502CVCB3       010CVC BRASIL  ON      NM   R$  000000000019300000000001950000000000188000000000019100000000001910000000000191000000000019205004000000000012631600000000002415661100000000000000009999123100000010000000000000BRCVCBACNOR1116
012024090502CXSE3       010CAIXA SEGURION      NM   R$  000000000158800000000015880000000001567000000000157900000000015850000000001584000000000158614731000000000004285200000000006767620600000000000000009999123100000010000000000000BRCXSEACNOR7107
012024090502ESPA3       010ESPACOLASER ON      NM   R$  000000000011500000000001180000000000115000000000011600000000001170000000000116000000000011700111000000000000197000000000000022920100000000000000009999123100000010000000000000BRESPAACNOR7103
012024090502ETER3       010ETERNIT     ON      NM   R$  000000000058100000000005970000000000581000000000058900000000005960000000000592000000000059600407000000000000229300000000000135213600000000000000009999123100000010000000000000BRETERACNOR3244
012024090502EUCA3       010EUCATEX     ON      N1   R$  000000000175000000000017500000000001706000000000173500000000017490000000001667000000000176900003000000000000000300000000000000520500000000000000009999123100000010000000000000BREUCAACNOR1157
012024090502EUCA4       010EUCATEX     PN      N1   R$  000000000158500000000016350000000001579000000000160500000000016080000000001608000000000161300241000000000000034500000000000055391300000000000000009999123100000010000000000000BREUCAACNPR8044
012024090502EVEN3       010EVEN        ON      NM   R$  000000000064900000000006660000000000649000000000065900000000006600000000000653000000000066003407000000000001077900000000000710929400000000000000009999123100000010000000000000BREVENACNOR8119
012024090502EZTC3       010EZTEC       ON      NM   R$  000000000140400000000014150000000001391000000000140400000000014090000000001404000000000141004270000000000001038900000000001458681300000000000000009999123100000010000000000000BREZTCACNOR0126
012024090502INEP3       010INEPAR      ON           R$  000000000019500000000002000000000000180000000000018500000000001800000000000178000000000018000332000000000000186800000000000034585000000000000000009999123100000010000000000000BRINEPACNOR1143
012024090502INEP4       010INEPAR      PN           R$  000000000020000000000002030000000000192000000000019500000000001930000000000193000000000019800088000000000000021500000000000004212300000000000000009999123100000010000000000000BRINEPACNPR8143
012024090502KRSA3       010KORA SAUDE  ON      NM   R$  000000000006100000000000640000000000059000000000006100000000000640000000000063000000000006400079000000000000140400000000000008583800000000000000009999123100000010000000000000BRKRSAACNOR0100
012024090502LAND3       010TERRASANTAPAON      NM   R$  000000000123600000000012530000000001211000000000123800000000012380000000001235000000000125100175000000000000029700000000000036774800000000000000009999123100000010000000000000BRLANDACNOR9103
012024090502LAVV3       010LAVVI       ON      NM   R$  000000000085800000000008620000000000848000000000085400000000008560000000000855000000000085802202000000000000410500000000000350831800000000000000009999123100000010000000000000BRLAVVACNOR4113
012024090502INTB3       010INTELBRAS   ON      NM   R$  000000000218900000000022130000000002163000000000217800000000021800000000002178000000000218002020000000000000320200000000000697710800000000000000009999123100000010000000000000BRINTBACNOR9112
012024090502IRBR3       010IRBBRASIL REON      NM   R$  000000000485200000000051720000000004852000000000504200000000051690000000005165000000000517009661000000000002171900000000010952309200000000000000009999123100000010000000000000BRIRBRACNOR4111
012024090502LUPA3       010LUPATECH    ON      NM   R$  000000000015300000000001530000000000148000000000015000000000001510000000000149000000000015100204000000000000094100000000000014198400000000000000009999123100000010000000000000BRLUPAACNOR8112
012024090502LVTC3       010WDC NETWORKSON      NM   R$  000000000035700000000003790000000000357000000000037000000000003730000000000370000000000037600082000000000000035200000000000013050100000000000000009999123100000010000000000000BRLVTCACNOR4102
012024090502LWSA3       010LWSA        ON      NM   R$  000000000044600000000004760000000000445000000000045500000000004500000000000450000000000045208048000000000005535900000000002521182100000000000000009999123100000010000000000000BRLWSAACNOR8103
012024090502RSUL4       010RIOSULENSE  PN           R$  000000000638700000000064560000000006350000000000639100000000064500000000006450000000000645700023000000000000003000000000000019173400000000000000009999123100000010000000000000BRRSULACNPR3114
012024090502BGIP3       010BANESE      ON           R$  000000000248700000000024870000000002487000000000248700000000024870000000002487000000000255000001000000000000000100000000000000248700000000000000009999123100000010000000000000BRBGIPACNOR1209
012024090502BGIP4       010BANESE      PN           R$  000000000245000000000025150000000002450000000000248700000000025150000000002444000000000251500009000000000000001100000000000002735800000000000000009999123100000010000000000000BRBGIPACNPR8209
012024090502BHIA3       010CASAS BAHIA ON      NM   R$  000000000066900000000006810000000000630000000000064600000000006410000000000641000000000064204338000000000004485100000000002900285500000000000000009999123100000010000000000000BRBHIAACNOR1102
012024090502VLID3       010VALID       ON      NM   R$  000000000229900000000023460000000002288000000000231600000000023160000000002316000000000232901238000000000000205800000000000476830800000000000000009999123100000010000000000000BRVLIDACNOR5144
012024090502VSTE3       010VESTE       ON      NM   R$  000000000131000000000013100000000001300000000000130900000000013000000000001295000000000130500002000000000000010300000000000013490000000000000000009999123100000010000000000000BRVSTEACNOR5103
012024090502VTRU3       010VITRUEDUCA  ON      NM   R$  000000000101300000000010440000000000979000000000100400000000010050000000000994000000000100900571000000000000125100000000000125608500000000000000009999123100000010000000000000BRVTRUACNOR3100
012024090502VULC3       010VULCABRAS   ON      NM   R$  000000000183100000000018590000000001818000000000184700000000018580000000001847000000000185803284000000000000704000000000001300912800000000000000009999123100000010000000000000BRVULCACNOR2161
012024090502VVEO3       010VIVEO       ON      NM   R$  000000000019000000000002070000000000190000000000019800000000002020000000000202000000000020405075000000000004414900000000000876278300000000000000009999123100000010000000000000BRVVEOACNOR0104
012024090502BRBI11      010BR PARTNERS UNT     N2   R$  000000000150300000000015370000000001503000000000152000000000015290000000001529000000000153701403000000000000276400000000000420318100000000000000009999123100000010000000000000BRBRBICDAM10110
012024090502BRFS3       010BRF SA      ON      NM   R$  000000000256500000000025770000000002510000000000253200000000025410000000002535000000000254210832000000000004204500000000010649625800000000000000009999123100000010000000000000BRBRFSACNOR8122
012024090502CSED3       010CRUZEIRO EDUON  ED  NM   R$  000000000037100000000003710000000000361000000000036500000000003690000000000363000000000036900788000000000000225700000000000082494300000000000000009999123100000010000000000000BRCSEDACNOR9105
012024090502CSMG3       010COPASA      ON      NM   R$  000000000244200000000025130000000002436000000000248000000000024860000000002486000000000249006174000000000001714500000000004252311300000000000000009999123100000010000000000000BRCSMGACNOR5174
012024090502CSNA3       010SID NACIONALON           R$  000000000113400000000011570000000001132000000000115000000000011530000000001150000000000115309117000000000005525300000000006354513000000000000000009999123100000010000000000000BRCSNAACNOR6261
012024090502WEGE3       010WEG         ON      NM   R$  000000000530200000000054100000000005286000000000537000000000053990000000005390000000000539916200000000000003816500000000020496393900000000000000009999123100000010000000000000BRWEGEACNOR0224
012024090502ROMI3       010ROMI        ON      NM   R$  000000000110000000000011200000000001100000000000111100000000011120000000001112000000000111600761000000000000128600000000000142924100000000000000009999123100000010000000000000BRROMIACNOR8195
012024090502TASA3       010TAURUS ARMASON      N2   R$  000000000112700000000011360000000001117000000000112300000000011360000000001124000000000113600056000000000000008100000000000009103800000000000000009999123100000010000000000000BRTASAACNOR7104
012024090502TASA4       010TAURUS ARMASPN      N2   R$  000000000111100000000011200000000001104000000000111100000000011200000000001119000000000112001745000000000000365000000000000405699200000000000000009999123100000010000000000000BRTASAACNPR4104
012024090502TCSA3       010TECNISA     ON      NM   R$  000000000019400000000001990000000000192000000000019500000000001990000000000198000000000019900150000000000000162800000000000031891000000000000000009999123100000010000000000000BRTCSAACNOR3112
012024090502TECN3       010TECHNOS     ON      NM   R$  000000000054000000000005450000000000524000000000053000000000005370000000000528000000000053700179000000000000089200000000000047347000000000000000009999123100000010000000000000BRTECNACNOR6109
012024090502TELB3       010TELEBRAS    ON           R$  000000000147500000000015210000000001461000000000147600000000014610000000001435000000000151500016000000000000002400000000000003543400000000000000009999123100000010000000000000BRTELBACNOR2140
012024090502TELB4       010TELEBRAS    PN           R$  000000000093900000000009800000000000939000000000096300000000009720000000000960000000000097900024000000000000003400000000000003277500000000000000009999123100000010000000000000BRTELBACNPR9140
012024090502TEND3       010TENDA       ON      NM   R$  000000000132400000000013580000000001300000000000133600000000013510000000001339000000000135204923000000000002180300000000002913808600000000000000009999123100000010000000000000BRTENDACNOR4111
012024090502TFCO4       010TRACK FIELD PN      N2   R$  000000000119200000000011930000000001174000000000118100000000011810000000001181000000000118700265000000000000040100000000000047360800000000000000009999123100000010000000000000BRTFCOACNPR8114
012024090502TGMA3       010TEGMA       ON      NM   R$  000000000270300000000027520000000002696000000000271600000000027450000000002745000000000275001097000000000000393500000000001069138500000000000000009999123100000010000000000000BRTGMAACNOR7145
012024090502TIMS3       010TIM         ON      NM   R$  000000000183200000000018670000000001831000000000185900000000018630000000001857000000000186310916000000000005516900000000010259825600000000000000009999123100000010000000000000BRTIMSACNOR5117
012024090502TOTS3       010TOTVS       ON      NM   R$  000000000296000000000030010000000002949000000000297700000000029780000000002975000000000298006180000000000001195000000000003558130700000000000000009999123100000010000000000000BRTOTSACNOR8145
012024090502MGEL4       010MANGELS INDLPN           R$  000000000110000000000011000000000001100000000000110000000000011000000000001100000000000115800001000000000000000100000000000000110000000000000000009999123100000010000000000000BRMGELACNPR3147
012024090502MGLU3       010MAGAZ LUIZA ON      NM   R$  000000000120400000000012360000000001162000000000120700000000012300000000001229000000000123026141000000000024837900000000029984394300000000000000009999123100000010000000000000BRMGLUACNOR2124
012024090502ALPK3       010ESTAPAR     ON      NM   R$  000000000034800000000003660000000000348000000000035800000000003590000000000357000000000035902216000000000000663900000000000238083900000000000000009999123100000010000000000000BRALPKACNOR9101
012024090502ALUP11      010ALUPAR      UNT     N2   R$  000000000319100000000032090000000003158000000000318100000000031890000000003178000000000319503527000000000001126000000000003582178400000000000000009999123100000010000000000000BRALUPCDAM15120
012024090502ALUP3       010ALUPAR      ON      N2   R$  000000000108600000000010860000000001067000000000107900000000010860000000001086000000000108700010000000000000002200000000000002374600000000000000009999123100000010000000000000BRALUPACNOR8120
012024090502ALUP4       010ALUPAR      PN      N2   R$  000000000105900000000010590000000001045000000000104900000000010480000000001045000000000104800030000000000000004700000000000004933800000000000000009999123100000010000000000000BRALUPACNPR5120
012024090502AMAR3       010LOJAS MARISAON      NM   R$  000000000011200000000001150000000000112000000000011300000000001130000000000113000000000011400416000000000000123200000000000013941000000000000000009999123100000010000000000000BRAMARACNOR4115
012024090502VITT3       010VITTIA      ON      NM   R$  000000000062000000000006390000000000614000000000062600000000006390000000000631000000000063901948000000000000289800000000000181607100000000000000009999123100000010000000000000BRVITTACNOR4107
012024090502VIVA3       010VIVARA S.A. ON      NM   R$  000000000274500000000027840000000002721000000000276400000000027840000000002770000000000278411112000000000003984700000000011016761700000000000000009999123100000010000000000000BRVIVAACNOR0107
012024090502VIVR3       010VIVER       ON      NM   R$  000000000022800000000002280000000000216000000000022200000000002210000000000219000000000022100075000000000000017800000000000003955500000000000000009999123100000010000000000000BRVIVRACNOR4123
012024090502VIVT3       010TELEF BRASILON  EJ       R$  000000000544100000000055640000000005416000000000553100000000055120000000005512000000000551515700000000000002627100000000014532371100000000000000009999123100000010000000000000BRVIVTACNOR0184
012024090502MRFG3       010MARFRIG     ON      NM   R$  000000000146700000000014850000000001454000000000146800000000014580000000001456000000000145819066000000000005638200000000008279527300000000000000009999123100000010000000000000BRMRFGACNOR0116
012024090502RCSL3       010RECRUSUL    ON           R$  000000000057100000000006660000000000570000000000062100000000006450000000000644000000000064504535000000000001711500000000001063824200000000000000009999123100000010000000000000BRRCSLACNOR4134
012024090502RCSL4       010RECRUSUL    PN           R$  000000000010500000000001090000000000104000000000010600000000001050000000000105000000000010600838000000000000829000000000000088089000000000000000009999123100000010000000000000BRRCSLACNPR1134
012024090502RDNI3       010RNI         ON      NM   R$  000000000032300000000003230000000000316000000000032000000000003210000000000321000000000033100015000000000000002200000000000000705500000000000000009999123100000010000000000000BRRDNIACNOR9116
012024090502RDOR3       010REDE D OR   ON      NM   R$  000000000332800000000033760000000003317000000000334000000000033170000000003316000000000331723436000000000008470800000000028299538000000000000000009999123100000010000000000000BRRDORACNOR8113
012024090502RECV3       010PETRORECSA  ON      NM   R$  000000000200500000000020250000000001998000000000200700000000020120000000002012000000000201307799000000000001482400000000002975804500000000000000009999123100000010000000000000BRRECVACNOR3107
012024090502REDE3       010REDE ENERGIAON           R$  000000000069100000000006980000000000691000000000069500000000006940000000000694000000000069800010000000000000001300000000000000904300000000000000009999123100000010000000000000BRREDEACNOR7128
012024090502RENT3       010LOCALIZA    ON      NM   R$  000000000420000000000042500000000004179000000000422500000000042490000000004243000000000425021960000000000005936700000000025086979600000000000000009999123100000010000000000000BRRENTACNOR4196
012024090502SYNE3       010SYN PROP TECON      NM   R$  000000000082000000000008250000000000799000000000080400000000008000000000000800000000000080101551000000000000829500000000000667085700000000000000009999123100000010000000000000BRSYNEACNOR2103
012024090507TXRX4       010TEX RENAUX  PN           R$  000000000022500000000002250000000000225000000000022500000000002250000000000226000000000023000001000000000000000100000000000000022500000000000000009999123100000010000000000000BRTXRXACNPR0142
012024090507NUTR3       010NUTRIPLANT  ON      MA   R$  000000000049000000000004900000000000470000000000047800000000004720000000000472000000000047600016000000000000001600000000000000765200000000000000009999123100000010000000000000BRNUTRACNOR0104
012024090508OSXB3       010OSX BRASIL  ON      NM   R$  000000000037700000000003860000000000377000000000038400000000003860000000000386000000000038800016000000000000004900000000000001883100000000000000009999123100000010000000000000BROSXBACNOR8109
012024090508LIGT3       010LIGHT S/A   ON      NM   R$  000000000066400000000009210000000000664000000000081300000000008100000000000805000000000081231630000000000012748700000000010365288400000000000000009999123100000010000000000000BRLIGTACNOR2124
012024090508JFEN3       010JOAO FORTES ON           R$  000000000002000000000000210000000000019000000000001900000000000190000000000019000000000002000143000000000000953500000000000018416500000000000000009999123100000010000000000000BRJFENACNOR0059
012024090508HOOT4       010HOTEIS OTHONPN           R$  000000000022900000000002390000000000226000000000022900000000002270000000000226000000000022700011000000000000003100000000000000711300000000000000009999123100000010000000000000BRHOOTACNPR9015
012024090508PMAM3       010PARANAPANEMAON      NM   R$  000000000017900000000001800000000000177000000000017800000000001800000000000178000000000018000097000000000000058800000000000010486300000000000000009999123100000010000000000000BRPMAMACNOR3039
012024090508RPMG3       010PET MANGUINHON           R$  000000000029400000000003040000000000285000000000029500000000003040000000000299000000000030500289000000000000039200000000000011600900000000000000009999123100000010000000000000BRRPMGACNOR9194
012024090508NEXP3       010NEXPE       ON           R$  000000000041700000000004170000000000404000000000041000000000004040000000000405000000000041500002000000000000000200000000000000082100000000000000009999123100000010000000000000BRNEXPACNOR0101
012024090508OIBR3       010OI          ON  ES  N1   R$  000000000051700000000005190000000000507000000000051200000000005160000000000515000000000051600784000000000000416900000000000213678500000000000000009999123100000010000000000000BROIBRACNOR1112
012024090508OIBR4       010OI          PN  ES  N1   R$  000000000121000000000012140000000001199000000000120900000000012100000000001210000000000121500025000000000000005300000000000006409600000000000000009999123100000010000000000000BROIBRACNPR8111
012024090508ATMP3       010ATMASA      ON           R$  000000000013800000000001380000000000130000000000013300000000001370000000000134000000000013800034000000000000030100000000000004027000000000000000009999123100000010000000000000BRATMPACNOR8100
012024090508AMER3       010AMERICANAS  ON  EG  NM   R$  000000000066000000000006840000000000651000000000066800000000006590000000000658000000000065905677000000000007262100000000004852560000000000000000009999123100000010000000000000BRAMERACNOR6103
012024090508CTSA3       010SANTANENSE  ON           R$  000000000027400000000002740000000000272000000000027300000000002720000000000272000000000027900006000000000000001200000000000000327600000000000000009999123100000010000000000000BRCTSAACNOR3062
012024090508CTSA4       010SANTANENSE  PN           R$  000000000013000000000001310000000000127000000000012900000000001310000000000127000000000013100108000000000000034300000000000004433500000000000000009999123100000010000000000000BRCTSAACNPR0062
012024090508RSID3       010ROSSI RESID ON      NM   R$  000000000037500000000003840000000000373000000000037600000000003800000000000374000000000038000050000000000000011800000000000004439900000000000000009999123100000010000000000000BRRSIDACNOR8120
012024090508RNEW11      010RENOVA      UNT     N2   R$  000000000030900000000003200000000000300000000000031300000000003130000000000313000000000031600050000000000000021000000000000006578900000000000000009999123100000010000000000000BRRNEWCDAM15110
012024090508RNEW3       010RENOVA      ON      N2   R$  000000000010300000000001040000000000101000000000010200000000001040000000000102000000000010400081000000000000029700000000000003054200000000000000009999123100000010000000000000BRRNEWACNOR8110
012024090508RNEW4       010RENOVA      PN      N2   R$  000000000010100000000001050000000000099000000000010300000000001050000000000104000000000010500154000000000000196000000000000020199700000000000000009999123100000010000000000000BRRNEWACNPR5110
012024090508TEKA4       010TEKA        PN           R$  000000000300000000000030000000000002800000000000292800000000029010000000002900000000000325000007000000000000000700000000000002050100000000000000009999123100000010000000000000BRTEKAACNPR3140
012024090510AESB1       010AES BRASIL  DIR ORD NM   R$  000000000004800000000000570000000000041000000000004600000000000430000000000043000000000004800145000000000000081900000000000003767400000000000000009999123100000010000000000000BRAESBD03OR8106
012024090510EQTL1       010EQUATORIAL  DIR ORD NM   R$  000000000035000000000003500000000000251000000000029100000000002990000000000286000000000029901640000000000000666400000000000193945300000000000000009999123100000010000000000000BREQTLD04OR9130
012024090510GFSA1       010GAFISA      DIR ORD NM   R$  000000000000100000000000020000000000001000000000000100000000000010000000000000000000000000100561000000000003079300000000000003094700000000000000009999123100000010000000000000BRGFSAD11OR7124
012024090510ZAMP9       010ZAMP S.A.   ON  REC      R$  000000000030900000000003090000000000297000000000030700000000002970000000000297000000000030800003000000000000001100000000000000338700000000000000009999123100000010000000000000BRZAMPR01OR0100
012024090510OIBR1       010OI          DIR ORD N1   R$  000000000001500000000000160000000000011000000000001300000000000120000000000012000000000001302485000000000008470000000000000110141500000000000000009999123100000010000000000000BROIBRD05OR7111
012024090510RENT9       010LOCALIZA    ON  REC NM   R$  000000000420000000000042500000000004200000000000424200000000042500000000004144000000000425000006000000000000000700000000000002969800000000000000009999123100000010000000000000BRRENTR06OR8195
012024090512FIIP11B     010FII RB CAP ICI  ER  MB   R$  000000001691500000000169750000000016817000000001693700000000169720000000016971000000001697500055000000000000000400000000000006774955000000000000009999123100000010000000000000BRFIIPCTF001277
012024090512FISC11      010FII SC 401  CI           R$  000000000610000000000061000000000006100000000000610000000000061000000000006100000000000620000002000000000000000016000000000000097600000000000000009999123100000010000000000000BRFISCCTF008138
012024090512FIVN11      010FII VIDANOVACI           R$  000000000028200000000002870000000000278000000000028500000000002790000000000278000000000028500018000000000000000117000000000000033388000000000000009999123100000010000000000000BRFIVNCTF009100
012024090512FLCR11      010FII FL RECEBCI           R$  000000000984900000000098750000000009798000000000983700000000098000000000009800000000000982000141000000000000001699000000000016714626000000000000009999123100000010000000000000BRFLCRCTF004144
012024090512FLMA11      010FII S F LIMACI           R$  000000001448500000000144850000000014200000000001435000000000143840000000014302000000001438400103000000000000000493000000000007074714000000000000009999123100000010000000000000BRFLMACTF009344
012024090512FLRP11      010FII FLORIPA CI  ER       R$  000000020300000000002030000000000200000000000020066100000002000000000000200000000000020299900013000000000000000037000000000007424469000000000000009999123100000010000000000000BRFLRPCTF006274
012024090512FMOF11      010FII MEMORIALCI           R$  000000000479800000000047980000000004797000000000479700000000047980000000004679000000000479800003000000000000000006000000000000028787000000000000009999123100000010000000000000BRFMOFCTF010258
012024090512FPNG11      010FII P NEGRA CI           R$  000000002000000000000200000000000020000000000002000000000000200000000000009000000000002000000002000000000000000002000000000000040000000000000000009999123100000010000000000000BRFPNGCTF005191
012024090512IRDM11      010FII IRIDIUM CI           R$  000000000723400000000072390000000007210000000000722500000000072190000000007218000000000721902835000000000000026671000000000192697984000000000000009999123100000010000000000000BRIRDMCTF004188
012024090512IRIM11      010FII IRIM    CI           R$  000000000740900000000074200000000007401000000000741500000000074200000000007391000000000742000030000000000000000882000000000006540299000000000000009999123100000010000000000000BRIRIMCTF003137
012024090512ITIP11      010FII INTER IPCI  ER       R$  000000000773000000000077300000000007400000000000750200000000074920000000007492000000000759900257000000000000001183000000000008875614000000000000009999123100000010000000000000BRITIPCTF002132
012024090512ITIT11      010FII INTER ITCI  ER       R$  000000000754900000000076800000000007500000000000753900000000076800000000007540000000000768000474000000000000002140000000000016133767000000000000009999123100000010000000000000BRITITCTF004132
012024090512ITRI11      010FII ITRI    CI  ER       R$  000000000911700000000091810000000009076000000000909900000000090940000000009076000000000909402500000000000000017586000000000160016040000000000000009999123100000010000000000000BRITRICTF008105
012024090512MALL11      010FII MALLS BPCI  ER       R$  000000001074200000000107420000000010700000000001071600000000107000000000010700000000001070804681000000000000013560000000000145317191000000000000009999123100000010000000000000BRMALLCTF007184
012024090512MANA11      010FII MANATI  CI  ER       R$  000000000091900000000009190000000000915000000000091600000000009170000000000915000000000091700504000000000000067306000000000061698494000000000000009999123100000010000000000000BRMANACTF006128
012024090512OUJP11      010FII OURI JPPCI  ER       R$  000000000797000000000079970000000007950000000000796400000000079700000000007970000000000798700552000000000000002385000000000018994479000000000000009999123100000010000000000000BROUJPCTF006190
012024090512OULG11      010FII OURILOG CI           R$  000000000296100000000029940000000002960000000000297700000000029700000000002971000000000299400019000000000000000123000000000000366188000000000000009999123100000010000000000000BROULGCTF001153
012024090512PABY11      010FII PANAMBY CI           R$  000000000144900000000014490000000001449000000000144900000000014490000000001251000000000145000004000000000000000006000000000000008694000000000000009999123100000010000000000000BRPABYCTF012158
012024090512PATC11      010FII PATRIA  CI  ER       R$  000000000360100000000036290000000003600000000000360500000000036030000000003601000000000364000054000000000000000344000000000001240192000000000000009999123100000010000000000000BRPATCCTF002173
012024090512PATL11      010FII PATLOGISCI  ER       R$  000000000608000000000061100000000006060000000000607800000000060600000000006060000000000611000781000000000000006091000000000037024620000000000000009999123100000010000000000000BRPATLCTF003149
012024090512SADI11      010FII SANT PAPCI  ER       R$  000000000897100000000089770000000008900000000000894000000000089420000000008918000000000894900245000000000000001673000000000014957070000000000000009999123100000010000000000000BRSADICTF007162
012024090512SAPI11      010FII SAPI    CI  ER       R$  000000000910200000000091950000000009102000000000914300000000091820000000009157000000000919400140000000000000002560000000000023406935000000000000009999123100000010000000000000BRSAPICTF001111
012024090512SARE11      010FII SANT RENCI  ER       R$  000000000388600000000038970000000003847000000000387300000000038800000000003883000000000388401898000000000000021887000000000084777150000000000000009999123100000010000000000000BRSARECTF006159
012024090512CPFF11      010FII CAP REITCI           R$  000000000709600000000070980000000007050000000000707800000000070960000000007096000000000709900204000000000000005426000000000038406592000000000000009999123100000010000000000000BRCPFFCTF000158
012024090512EGYR11      010FII ENERGY  CI           R$  000000000038700000000003930000000000380000000000038200000000003930000000000381000000000039300028000000000000000641000000000000245329000000000000009999123100000010000000000000BREGYRCTF001102
012024090512AZPL11      010FII AZPL    CI  ER       R$  000000000093600000000009900000000000845000000000089400000000008890000000000852000000000088900252000000000000035134000000000031442128000000000000009999123100000010000000000000BRAZPLCTF000103
012024090512CYCR11      010FII CYRELA  CI  ER       R$  000000000098500000000009880000000000980000000000098200000000009820000000000983000000000098805672000000000000027658000000000027168205000000000000009999123100000010000000000000BRCYCRCTF004142
012024090512DAMA11      010FII DAMA    CI           R$  000000000100000000000010000000000000980000000000099800000000009990000000000980000000000099900014000000000000000337000000000000336656000000000000009999123100000010000000000000BRDAMACTF007102
012024090512DEVA11      010FII DEVANT  CI           R$  000000000387600000000039050000000003865000000000389100000000039030000000003902000000000390301276000000000000021911000000000085264906000000000000009999123100000010000000000000BRDEVACTF000151
012024090512FAED11      010FII ANH EDUCCI           R$  000000001543900000000154470000000015317000000001539800000000154000000000015372000000001540000043000000000000000168000000000002586948000000000000009999123100000010000000000000BRFAEDCTF003280
012024090512FAMB11      010FII ALMIRANTCI           R$  000000013040100000001465000000000130401000000014264100000001465000000000141700000000014650000074000000000000000247000000000035232506000000000000009999123100000010000000000000BRFAMBCTF018316
012024090512FATN11      010FII ATHENA ICI           R$  000000000921600000000092290000000009195000000000921400000000092220000000009222000000000922801319000000000000007513000000000069229179000000000000009999123100000010000000000000BRFATNCTF000154
012024090512FCFL11      010FII CAMPUSFLCI           R$  000000001167900000000116980000000011613000000001166400000000116130000000011613000000001169501056000000000000001361000000000015875384000000000000009999123100000010000000000000BRFCFLCTF009272
012024090512FIGS11      010FII GEN SHOPCI  ER       R$  000000000529000000000053100000000005206000000000527600000000052980000000005296000000000529800187000000000000001855000000000009787013000000000000009999123100000010000000000000BRFIGSCTF009231
012024090512FIIB11      010FII INDL BR CI  ER       R$  000000005069900000000507000000000050205000000005039800000000503760000000050376000000005039700102000000000000000301000000000015170018000000000000009999123100000010000000000000BRFIIBCTF001254
012024090512MAXR11      010FII MAX RET CI           R$  000000000785100000000079150000000007830000000000785700000000078310000000007831000000000787400059000000000000000338000000000002655917000000000000009999123100000010000000000000BRMAXRCTF009270
012024090512MCCI11      010FII MAUA    CI           R$  000000000898500000000090670000000008963000000000900600000000089700000000008970000000000899202880000000000000023889000000000215157338000000000000009999123100000010000000000000BRMCCICTF008164
012024090512MCEM11      010FII MCEM    CI           R$  000000001077000000000109240000000010750000000001078000000000107930000000010770000000001079300005000000000000000013000000000000140147000000000000009999123100000010000000000000BRMCEMCTF006100
