00COTAHIST.2024BOVESPA 20240912                                                                                                                                                                                                                      
012024091202KEPL3       010KEPLER WEBERON      NM   R$  000000000111500000000011160000000001075000000000108700000000010760000000001075000000000108402392000000000000827300000000000899628800000000000000009999123100000010000000000000BRKEPLACNOR1064
012024091202KLBN11      010KLABIN S/A  UNT     N2   R$  000000000218200000000021930000000002165000000000217300000000021690000000002169000000000217312931000000000003635900000000007903933000000000000000009999123100000010000000000000BRKLBNCDAM18143
012024091202KLBN3       010KLABIN S/A  ON      N2   R$  000000000044200000000004420000000000435000000000043700000000004360000000000435000000000043600423000000000000122500000000000053550100000000000000009999123100000010000000000000BRKLBNACNOR2171
012024091202KLBN4       010KLABIN S/A  PN      N2   R$  000000000043900000000004390000000000433000000000043500000000004330000000000433000000000043401069000000000000533900000000000232370500000000000000009999123100000010000000000000BRKLBNACNPR9171
012024091202SAPR11      010SANEPAR     UNT     N2   R$  000000000317400000000032560000000003136000000000320900000000032300000000003230000000000323908232000000000001670100000000005360596900000000000000009999123100000010000000000000BRSAPRCDAM13118
012024091202SAPR3       010SANEPAR     ON      N2   R$  000000000059900000000006130000000000591000000000060300000000006040000000000604000000000061000972000000000000232200000000000140038600000000000000009999123100000010000000000000BRSAPRACNOR9159
012024091202SAPR4       010SANEPAR     PN      N2   R$  000000000064100000000006560000000000634000000000064600000000006560000000000654000000000065603519000000000001422700000000000919138000000000000000009999123100000010000000000000BRSAPRACNPR6159
012024091202SBFG3       010GRUPO SBF   ON      NM   R$  000000000174300000000017430000000001696000000000170900000000017210000000001718000000000172207568000000000001923300000000003288234600000000000000009999123100000010000000000000BRSBFGACNOR1103
012024091202SBSP3       010SABESP      ON      NM   R$  000000000943600000000094850000000009376000000000941000000000094390000000009438000000000944010854000000000005070900000000047718129800000000000000009999123100000010000000000000BRSBSPACNOR5161
012024091202PORT3       010WILSON SONS ON      NM   R$  000000000168500000000017230000000001679000000000168500000000016850000000001681000000000168501215000000000001076200000000001814332200000000000000009999123100000010000000000000BRPORTACNOR8109
012024091202POSI3       010POSITIVO TECON      NM   R$  000000000060400000000006050000000000596000000000060000000000005990000000000599000000000060002786000000000001651500000000000992115500000000000000009999123100000010000000000000BRPOSIACNOR9116
012024091202CGRA3       010GRAZZIOTIN  ON           R$  000000000249200000000025000000000002492000000000249700000000025000000000002500000000000252000007000000000000000900000000000002247800000000000000009999123100000010000000000000BRCGRAACNOR2083
012024091202CGRA4       010GRAZZIOTIN  PN           R$  000000000250500000000025050000000002500000000000250200000000025010000000002500000000000252200007000000000000000800000000000002002200000000000000009999123100000010000000000000BRCGRAACNPR9083
012024091202CLSA3       010CLEARSALE   ON      NM   R$  000000000087600000000008780000000000855000000000086600000000008650000000000865000000000087004457000000000001748000000000001514123100000000000000009999123100000010000000000000BRCLSAACNOR0100
012024091202ZAMP3       010ZAMP S.A.   ON           R$  000000000029700000000003000000000000295000000000029600000000002950000000000295000000000029801470000000000000532400000000000157730400000000000000009999123100000010000000000000BRZAMPACNOR5101
012024091202ODPV3       010ODONTOPREV  ON      NM   R$  000000000117000000000011790000000001134000000000115700000000011730000000001164000000000117304711000000000001131600000000001309804500000000000000009999123100000010000000000000BRODPVACNOR4203
012024091202OFSA3       010OUROFINO S/AON      NM   R$  000000000217500000000021770000000002175000000000217500000000021750000000002175000000000220900006000000000000008200000000000017835300000000000000009999123100000010000000000000BROFSAACNOR7118
012024091202NINJ3       010GETNINJAS   ON      NM   R$  000000000046600000000004750000000000466000000000047000000000004700000000000467000000000047500019000000000000003700000000000001739100000000000000009999123100000010000000000000BRNINJACNOR5101
012024091202NORD3       010NORDON MET  ON           R$  000000000126600000000012660000000001165000000000120700000000012660000000001176000000000126600005000000000000000500000000000000603600000000000000009999123100000010000000000000BRNORDACNOR7135
012024091202SANB11      010SANTANDER BRUNT          R$  000000000307500000000030790000000003042000000000306000000000030650000000003065000000000306708007000000000001843900000000005643774900000000000000009999123100000010000000000000BRSANBCDAM13165
012024091202SANB3       010SANTANDER BRON           R$  000000000147700000000014770000000001440000000000145500000000014570000000001456000000000146600599000000000000083500000000000121569600000000000000009999123100000010000000000000BRSANBACNOR8172
012024091202SANB4       010SANTANDER BRPN           R$  000000000160900000000016100000000001590000000000159700000000016040000000001601000000000160600575000000000000090500000000000144529000000000000000009999123100000010000000000000BRSANBACNPR5172
012024091202USIM3       010USIMINAS    ON      N1   R$  000000000059000000000005930000000000581000000000058800000000005860000000000586000000000058900544000000000000192700000000000113375300000000000000009999123100000010000000000000BRUSIMACNOR3167
012024091202USIM5       010USIMINAS    PNA     N1   R$  000000000059300000000005980000000000586000000000059200000000005910000000000591000000000059212195000000000011024900000000006535607500000000000000009999123100000010000000000000BRUSIMACNPA6169
012024091202PDGR3       010PDG REALT   ON      NM   R$  000000000001500000000000160000000000015000000000001500000000000160000000000015000000000001600173000000000000209100000000000003242500000000000000009999123100000010000000000000BRPDGRACNOR8119
012024091202PDTC3       010PADTEC      ON      NM   R$  000000000018900000000001900000000000186000000000018800000000001860000000000186000000000018800027000000000000010000000000000001881800000000000000009999123100000010000000000000BRPDTCACNOR3101
012024091202PEAB3       010PAR AL BAHIAON           R$  000000000430000000000043000000000004300000000000430000000000043000000000000000000000000439900001000000000000000200000000000000860000000000000000009999123100000010000000000000BRPEABACNOR3133
012024091202PETR3       010PETROBRAS   ON      N2   R$  000000000408100000000040990000000004024000000000405400000000040490000000004048000000000405315244000000000006583300000000026690842800000000000000009999123100000010000000000000BRPETRACNOR9206
012024091202PETR4       010PETROBRAS   PN      N2   R$  000000000372900000000037320000000003675000000000369400000000036870000000003687000000000368833514000000000022103300000000081654501700000000000000009999123100000010000000000000BRPETRACNPR6214
012024091202DOHL4       010DOHLER      PN           R$  000000000040800000000004220000000000401000000000041000000000004220000000000406000000000042500013000000000000003200000000000001312800000000000000009999123100000010000000000000BRDOHLACNPR9066
012024091202DOTZ3       010DOTZ SA     ON      NM   R$  000000000065600000000006570000000000632000000000064300000000006380000000000638000000000064400085000000000000024800000000000015969500000000000000009999123100000010000000000000BRDOTZACNOR7101
012024091202DXCO3       010DEXCO       ON      NM   R$  000000000078900000000007910000000000778000000000078300000000007810000000000779000000000078202782000000000001789800000000001402711200000000000000009999123100000010000000000000BRDXCOACNOR8105
012024091202VALE3       010VALE        ON      NM   R$  000000000581000000000058540000000005796000000000582500000000058110000000005810000000000581229648000000000017929800000000104447605000000000000000009999123100000010000000000000BRVALEACNOR0211
012024091202SIMH3       010SIMPAR      ON      NM   R$  000000000059500000000005990000000000575000000000058400000000005750000000000575000000000057604739000000000002509100000000001465646400000000000000009999123100000010000000000000BRSIMHACNOR0107
012024091202SHUL4       010SCHULZ      PN           R$  000000000065500000000006550000000000640000000000064700000000006480000000000647000000000064800850000000000000309800000000000200502800000000000000009999123100000010000000000000BRSHULACNPR4156
012024091202SHOW3       010TIME FOR FUNON      NM   R$  000000000009100000000000930000000000087000000000008900000000000890000000000088000000000008900426000000000000633500000000000056703100000000000000009999123100000010000000000000BRSHOWACNOR7105
012024091202SEQL3       010SEQUOIA LOG ON      NM   R$  000000000056500000000005830000000000551000000000056700000000005680000000000565000000000056800990000000000000526900000000000298908600000000000000009999123100000010000000000000BRSEQLACNOR2103
012024091202SEER3       010SER EDUCA   ON      NM   R$  000000000061600000000006490000000000614000000000063700000000006400000000000640000000000064503301000000000000886400000000000564895900000000000000009999123100000010000000000000BRSEERACNOR5119
012024091202SCAR3       010SAO CARLOS  ON      NM   R$  000000000228600000000023000000000002286000000000229200000000023000000000002278000000000230000011000000000000001200000000000002751300000000000000009999123100000010000000000000BRSCARACNOR7131
012024091202PRNR3       010PRINER      ON      NM   R$  000000000132800000000013280000000001297000000000130400000000013050000000001298000000000130600956000000000000177500000000000231609800000000000000009999123100000010000000000000BRPRNRACNOR4109
012024091202VBBR3       010VIBRA       ON      NM   R$  000000000256200000000025740000000002541000000000256200000000025690000000002568000000000257015778000000000004363400000000011179611800000000000000009999123100000010000000000000BRVBBRACNOR1108
012024091202VAMO3       010VAMOS       ON      NM   R$  000000000073200000000007370000000000717000000000072600000000007200000000000720000000000072209950000000000009661400000000007022637600000000000000009999123100000010000000000000BRVAMOACNOR7105
012024091202SLCE3       010SLC AGRICOLAON      NM   R$  000000000172100000000017230000000001705000000000171300000000017190000000001715000000000171905127000000000002879400000000004933303700000000000000009999123100000010000000000000BRSLCEACNOR2125
012024091202RADL3       010RAIADROGASILON      NM   R$  000000000268400000000027020000000002653000000000267100000000026950000000002685000000000269714744000000000010859700000000029008554600000000000000009999123100000010000000000000BRRADLACNOR0157
012024091202CASH3       010MELIUZ      ON  ER  NM   R$  000000000042800000000004370000000000423000000000043100000000004330000000000432000000000043302130000000000001515500000000000653417900000000000000009999123100000010000000000000BRCASHACNOR8107
012024091202CBAV3       010CBA         ON      NM   R$  000000000047000000000004820000000000465000000000047000000000004670000000000467000000000046804171000000000002414200000000001135534100000000000000009999123100000010000000000000BRCBAVACNOR5104
012024091202CBEE3       010AMPLA ENERG ON  ES       R$  000000000100000000000010000000000001000000000000100000000000010000000000000950000000000100000005000000000000001100000000000001100000000000000000009999123100000010000000000000BRCBEEACNOR3160
012024091202CCRO3       010CCR SA      ON      NM   R$  000000000128000000000012960000000001276000000000128300000000012790000000001276000000000128114106000000000006599500000000008470611500000000000000009999123100000010000000000000BRCCROACNOR2145
012024091202CEAB3       010CEA MODAS   ON      NM   R$  000000000100100000000010050000000000977000000000099300000000009950000000000993000000000099502497000000000001127400000000001119925500000000000000009999123100000010000000000000BRCEABACNOR1102
012024091202CEBR3       010CEB         ON           R$  000000000190700000000019130000000001894000000000190600000000018940000000001890000000000190000008000000000000001100000000000002097400000000000000009999123100000010000000000000BRCEBRACNOR5125
012024091202CEBR5       010CEB         PNA          R$  000000000165100000000016510000000001641000000000164800000000016410000000001640000000000168900004000000000000001300000000000002143300000000000000009999123100000010000000000000BRCEBRACNPA8124
012024091202CEBR6       010CEB         PNB          R$  000000000180200000000018030000000001780000000000179600000000018030000000001795000000000180600014000000000000003100000000000005570600000000000000009999123100000010000000000000BRCEBRACNPB6124
012024091202CEDO4       010CEDRO       PN      N1   R$  000000000250000000000025000000000002500000000000250000000000025000000000002446000000000252000001000000000000000100000000000000250000000000000000009999123100000010000000000000BRCEDOACNPR5128
012024091202CGAS5       010COMGAS      PNA          R$  000000001270900000000127240000000012680000000001269600000000127240000000012651000000001272500007000000000000000700000000000008887300000000000000009999123100000010000000000000BRCGASACNPA3161
012024091202CPFE3       010CPFL ENERGIAON      NM   R$  000000000339400000000034260000000003381000000000339400000000033810000000003381000000000338704181000000000000778800000000002643738800000000000000009999123100000010000000000000BRCPFEACNOR0137
012024091202CPLE3       010COPEL       ON      N2   R$  000000000096800000000009680000000000947000000000095500000000009620000000000959000000000096207804000000000007711400000000007366860500000000000000009999123100000010000000000000BRCPLEACNOR8149
012024091202CPLE5       010COPEL       PNA     N2   R$  000000000112800000000011280000000001128000000000112800000000011280000000001131000000000117000001000000000000000200000000000000225600000000000000009999123100000010000000000000BRCPLEACNPA1147
012024091202CPLE6       010COPEL       PNB     N2   R$  000000000107300000000010740000000001060000000000106500000000010680000000001067000000000106816146000000000011116700000000011845280900000000000000009999123100000010000000000000BRCPLEACNPB9146
012024091202GRND3       010GRENDENE    ON      NM   R$  000000000060700000000006110000000000602000000000060700000000006080000000000607000000000060801231000000000000466800000000000283579000000000000000009999123100000010000000000000BRGRNDACNOR3175
012024091202GUAR3       010GUARARAPES  ON      NM   R$  000000000085600000000008700000000000835000000000085700000000008620000000000861000000000086202596000000000000719300000000000616849800000000000000009999123100000010000000000000BRGUARACNOR4173
012024091202HAGA3       010HAGA S/A    ON           R$  000000000023800000000002430000000000238000000000024100000000002430000000000238000000000024200005000000000000001500000000000000362700000000000000009999123100000010000000000000BRHAGAACNOR7103
012024091202HAGA4       010HAGA S/A    PN           R$  000000000011800000000001180000000000118000000000011800000000001180000000000118000000000011900004000000000000001200000000000000141600000000000000009999123100000010000000000000BRHAGAACNPR4103
012024091202HAPV3       010HAPVIDA     ON      NM   R$  000000000044800000000004520000000000445000000000044700000000004490000000000449000000000045014964000000000033078100000000014803161100000000000000009999123100000010000000000000BRHAPVACNOR4114
012024091202HBOR3       010HELBOR      ON      NM   R$  000000000020200000000002020000000000197000000000019800000000001980000000000198000000000020000360000000000000337400000000000067092600000000000000009999123100000010000000000000BRHBORACNOR3118
012024091202HBRE3       010HBR REALTY  ON      NM   R$  000000000050100000000005030000000000483000000000049000000000004920000000000492000000000049600591000000000000321100000000000157561300000000000000009999123100000010000000000000BRHBREACNOR4100
012024091202HBSA3       010HIDROVIAS   ON      NM   R$  000000000034800000000003510000000000339000000000034900000000003500000000000349000000000035003144000000000003949100000000001380784000000000000000009999123100000010000000000000BRHBSAACNOR0100
012024091202ETER3       010ETERNIT     ON      NM   R$  000000000058900000000005890000000000575000000000057900000000005760000000000575000000000057700493000000000000343100000000000198817900000000000000009999123100000010000000000000BRETERACNOR3244
012024091202EUCA3       010EUCATEX     ON      N1   R$  000000000167100000000017970000000001665000000000173200000000017440000000001668000000000178900011000000000000002300000000000003985800000000000000009999123100000010000000000000BREUCAACNOR1157
012024091202EUCA4       010EUCATEX     PN      N1   R$  000000000162900000000016430000000001601000000000161400000000016030000000001603000000000160600209000000000000027100000000000043745600000000000000009999123100000010000000000000BREUCAACNPR8044
012024091202EVEN3       010EVEN        ON      NM   R$  000000000065500000000006550000000000640000000000064300000000006400000000000640000000000064401196000000000000287500000000000185065600000000000000009999123100000010000000000000BREVENACNOR8119
012024091202EZTC3       010EZTEC       ON      NM   R$  000000000136900000000013890000000001365000000000137800000000013790000000001379000000000138305952000000000001443400000000001989101800000000000000009999123100000010000000000000BREZTCACNOR0126
012024091202HETA4       010HERCULES    PN           R$  000000000070000000000007000000000000700000000000070000000000007000000000000640000000000069800001000000000000000100000000000000070000000000000000009999123100000010000000000000BRHETAACNPR9136
012024091202JALL3       010JALLESMACHADON      NM   R$  000000000065600000000006610000000000651000000000065600000000006530000000000653000000000065800970000000000000335100000000000219835500000000000000009999123100000010000000000000BRJALLACNOR0106
012024091202JBSS3       010JBS         ON      NM   R$  000000000333500000000033690000000003318000000000334900000000033490000000003349000000000335814437000000000005097900000000017075288400000000000000009999123100000010000000000000BRJBSSACNOR8122
012024091202MILS3       010MILLS       ON      NM   R$  000000000111000000000011130000000001102000000000110700000000011090000000001109000000000111001424000000000000352800000000000390787600000000000000009999123100000010000000000000BRMILSACNOR2128
012024091202MLAS3       010MULTILASER  ON      NM   R$  000000000018000000000001800000000000176000000000017800000000001780000000000178000000000017901421000000000001665800000000000297479400000000000000009999123100000010000000000000BRMLASACNOR9101
012024091202MNPR3       010MINUPAR     ON           R$  000000000160900000000016200000000001609000000000161200000000016200000000001000000000000162000003000000000000000400000000000000644900000000000000009999123100000010000000000000BRMNPRACNOR5122
012024091202ANIM3       010ANIMA       ON      NM   R$  000000000032800000000003310000000000309000000000031400000000003090000000000308000000000030907273000000000008848900000000002784053400000000000000009999123100000010000000000000BRANIMACNOR6109
012024091202ARML3       010ARMAC       ON      NM   R$  000000000089800000000009090000000000883000000000089700000000008930000000000889000000000089402788000000000000537900000000000482545700000000000000009999123100000010000000000000BRARMLACNOR1112
012024091202BBDC3       010BRADESCO    ON  EJ  N1   R$  000000000140000000000014000000000001376000000000138900000000013940000000001393000000000139506592000000000003954400000000005496140900000000000000009999123100000010000000000000BRBBDCACNOR1774
012024091202BBDC4       010BRADESCO    PN  EJ  N1   R$  000000000155600000000015670000000001538000000000155300000000015550000000001554000000000155522135000000000021793200000000033848008700000000000000009999123100000010000000000000BRBBDCACNPR8774
012024091202BRIT3       010BRISANET    ON      NM   R$  000000000034800000000003510000000000338000000000034200000000003380000000000338000000000034100945000000000000281000000000000096329800000000000000009999123100000010000000000000BRBRITACNOR0103
012024091202BRKM3       010BRASKEM     ON      N1   R$  000000000178200000000018120000000001774000000000178700000000018010000000001797000000000182600040000000000000005200000000000009294500000000000000009999123100000010000000000000BRBRKMACNOR1119
012024091202MOVI3       010MOVIDA      ON      NM   R$  000000000069600000000006990000000000670000000000067700000000006710000000000671000000000067605178000000000003370700000000002282277100000000000000009999123100000010000000000000BRMOVIACNOR0122
012024091202MRFG3       010MARFRIG     ON      NM   R$  000000000142400000000014450000000001404000000000143000000000014420000000001439000000000144210543000000000003320700000000004751099800000000000000009999123100000010000000000000BRMRFGACNOR0116
012024091202BRKM5       010BRASKEM     PNA     N1   R$  000000000179500000000018120000000001768000000000178800000000017980000000001798000000000180104159000000000001468800000000002627412100000000000000009999123100000010000000000000BRBRKMACNPA4121
012024091202BRKM6       010BRASKEM     PNB     N1   R$  000000000135000000000013500000000001350000000000135000000000013500000000001300000000000137000002000000000000000500000000000000675000000000000000009999123100000010000000000000BRBRKMACNPB2114
012024091202CSED3       010CRUZEIRO EDUON      NM   R$  000000000035700000000003650000000000351000000000035600000000003550000000000355000000000035900860000000000000440100000000000156907000000000000000009999123100000010000000000000BRCSEDACNOR9105
012024091202CSMG3       010COPASA      ON      NM   R$  000000000248800000000025100000000002468000000000249400000000024980000000002491000000000250003365000000000000756900000000001887763400000000000000009999123100000010000000000000BRCSMGACNOR5174
012024091202CSNA3       010SID NACIONALON           R$  000000000116100000000011800000000001150000000000116300000000011530000000001153000000000115508251000000000005661300000000006589443900000000000000009999123100000010000000000000BRCSNAACNOR6261
012024091202ENEV3       010ENEVA       ON      NM   R$  000000000139000000000014080000000001376000000000139600000000013950000000001395000000000139716274000000000005858500000000008182606700000000000000009999123100000010000000000000BRENEVACNOR8106
012024091202ENGI11      010ENERGISA    UNT     N2   R$  000000000473800000000048150000000004736000000000476900000000047620000000004762000000000477209184000000000001700600000000008110588400000000000000009999123100000010000000000000BRENGICDAM16136
012024091202ENGI3       010ENERGISA    ON      N2   R$  000000000142500000000014350000000001403000000000141900000000014030000000001382000000000144000030000000000000003300000000000004685600000000000000009999123100000010000000000000BRENGIACNOR0146
012024091202ENGI4       010ENERGISA    PN      N2   R$  000000000084200000000008470000000000826000000000083200000000008270000000000826000000000084000036000000000000007400000000000006162800000000000000009999123100000010000000000000BRENGIACNPR7142
012024091202ENJU3       010ENJOEI      ON      NM   R$  000000000014900000000001490000000000138000000000014200000000001380000000000138000000000014000850000000000000977300000000000138909400000000000000009999123100000010000000000000BRENJUACNOR9100
012024091202EPAR3       010EMBPAR S/A  ON           R$  000000000059000000000005900000000000580000000000058300000000005890000000000584000000000058900009000000000000002000000000000001167900000000000000009999123100000010000000000000BREPARACNOR9105
012024091202EQMA3B      010EQTLMARANHAOON      MB   R$  000000000249000000000024900000000002490000000000249000000000024900000000002462000000000249000001000000000000000900000000000002241000000000000000009999123100000010000000000000BREQMAACNOR8108
012024091202EQPA3       010EQTL PARA   ON           R$  000000000061100000000006110000000000602000000000060600000000006030000000000603000000000060800018000000000000003300000000000001999900000000000000009999123100000010000000000000BREQPAACNOR1111
012024091202EQTL3       010EQUATORIAL  ON      NM   R$  000000000340800000000034300000000003365000000000338800000000033800000000003379000000000338122405000000000007462300000000025289702400000000000000009999123100000010000000000000BREQTLACNOR0131
012024091202IFCM3       010INFRACOMM   ON      NM   R$  000000000001500000000000160000000000015000000000001500000000000160000000000015000000000001601061000000000005593400000000000086129200000000000000009999123100000010000000000000BRIFCMACNOR8101
012024091202IGTI11      010IGUATEMI S.AUNT     N1   R$  000000000217800000000022030000000002166000000000218500000000021900000000002190000000000219809136000000000001702800000000003721706900000000000000009999123100000010000000000000BRIGTICDAM16106
012024091202IGTI3       010IGUATEMI S.AON      N1   R$  000000000026900000000002730000000000265000000000026800000000002680000000000266000000000026800097000000000000027800000000000007468800000000000000009999123100000010000000000000BRIGTIACNOR8106
012024091202BEEF3       010MINERVA     ON      NM   R$  000000000070200000000007080000000000697000000000070200000000006980000000000698000000000069906665000000000006235400000000004382773500000000000000009999123100000010000000000000BRBEEFACNOR6116
012024091202COCE5       010COELCE      PNA          R$  000000000302100000000030210000000002956000000000297700000000029680000000002968000000000298800026000000000000003900000000000011611700000000000000009999123100000010000000000000BRCOCEACNPA3147
012024091202COGN3       010COGNA ON    ON      NM   R$  000000000014400000000001460000000000140000000000014200000000001400000000000140000000000014106777000000000022254400000000003172703700000000000000009999123100000010000000000000BRCOGNACNOR2105
012024091202EALT4       010ACO ALTONA  PN           R$  000000000147800000000014850000000001451000000000145900000000014570000000001455000000000146400065000000000000013400000000000019562200000000000000009999123100000010000000000000BREALTACNPR1138
012024091202ECOR3       010ECORODOVIAS ON      NM   R$  000000000075500000000007650000000000749000000000075700000000007520000000000752000000000075404542000000000002105900000000001595586800000000000000009999123100000010000000000000BRECORACNOR8120
012024091202INEP3       010INEPAR      ON           R$  000000000018300000000001840000000000179000000000018000000000001800000000000180000000000018100096000000000000026500000000000004788000000000000000009999123100000010000000000000BRINEPACNOR1143
012024091202INEP4       010INEPAR      PN           R$  000000000019000000000001900000000000185000000000018700000000001870000000000186000000000018700063000000000000021000000000000003929400000000000000009999123100000010000000000000BRINEPACNPR8143
012024091202INTB3       010INTELBRAS   ON      NM   R$  000000000220000000000022520000000002187000000000223200000000022440000000002236000000000224404856000000000001028400000000002295904300000000000000009999123100000010000000000000BRINTBACNOR9112
012024091202IRBR3       010IRBBRASIL REON      NM   R$  000000000459500000000047150000000004532000000000465300000000046850000000004685000000000468707338000000000001539800000000007165337500000000000000009999123100000010000000000000BRIRBRACNOR4111
012024091202EGIE3       010ENGIE BRASILON      NM   R$  000000000440000000000044400000000004390000000000440800000000043900000000004389000000000439705962000000000001051500000000004635116400000000000000009999123100000010000000000000BREGIEACNOR9127
012024091202EKTR4       010ELEKTRO     PN           R$  000000000441100000000046900000000004371000000000449400000000043710000000004371000000000455000009000000000000003000000000000013482300000000000000009999123100000010000000000000BREKTRACNPR7164
012024091202ELET3       010ELETROBRAS  ON      N1   R$  000000000411800000000041730000000004101000000000413500000000041300000000004129000000000413021990000000000008255000000000034141609200000000000000009999123100000010000000000000BRELETACNOR6160
012024091202ELET6       010ELETROBRAS  PNB     N1   R$  000000000459900000000046230000000004540000000000457100000000045650000000004562000000000458005887000000000000984000000000004498478200000000000000009999123100000010000000000000BRELETACNPB7077
012024091202GGPS3       010GPS         ON      NM   R$  000000000181800000000018340000000001806000000000182000000000018210000000001820000000000182103831000000000001435100000000002612403600000000000000009999123100000010000000000000BRGGPSACNOR9103
012024091202GMAT3       010GRUPO MATEUSON      NM   R$  000000000079500000000007960000000000764000000000077600000000007660000000000765000000000076706239000000000003111500000000002415420400000000000000009999123100000010000000000000BRGMATACNOR7102
012024091202GOAU3       010GERDAU MET  ON      N1   R$  000000000109100000000010910000000001080000000000108400000000010860000000001085000000000109000132000000000000036000000000000039049500000000000000009999123100000010000000000000BRGOAUACNOR1268
012024091202GOAU4       010GERDAU MET  PN      N1   R$  000000000107100000000010750000000001061000000000106800000000010650000000001065000000000106606916000000000004463300000000004768253100000000000000009999123100000010000000000000BRGOAUACNPR8269
012024091202AZZA3       010AZZAS 2154  ON      NM   R$  000000000482100000000048620000000004697000000000474800000000047550000000004750000000000475506121000000000002115700000000010045715000000000000000009999123100000010000000000000BRAZZAACNOR9100
012024091202CXSE3       010CAIXA SEGURION      NM   R$  000000000151200000000015160000000001497000000000150400000000015020000000001502000000000150707141000000000001940800000000002920342000000000000000009999123100000010000000000000BRCXSEACNOR7107
012024091202CYRE3       010CYRELA REALTON      NM   R$  000000000214000000000021610000000002130000000000214700000000021530000000002151000000000215412713000000000003433000000000007372275900000000000000009999123100000010000000000000BRCYREACNOR7140
012024091202PNVL3       010DIMED       ON      NM   R$  000000000099900000000010100000000000989000000000099600000000010100000000001008000000000101001588000000000000297600000000000296674700000000000000009999123100000010000000000000BRPNVLACNOR9207
012024091202POMO3       010MARCOPOLO   ON      N2   R$  000000000060300000000006030000000000596000000000059900000000005990000000000597000000000060000278000000000000097600000000000058471300000000000000009999123100000010000000000000BRPOMOACNOR0099
012024091202POMO4       010MARCOPOLO   PN      N2   R$  000000000077800000000007780000000000765000000000076900000000007690000000000769000000000077007685000000000007132800000000005491985300000000000000009999123100000010000000000000BRPOMOACNPR7099
012024091202REDE3       010REDE ENERGIAON           R$  000000000068800000000006940000000000688000000000069200000000006930000000000693000000000069500006000000000000000600000000000000415500000000000000009999123100000010000000000000BRREDEACNOR7128
012024091202RENT3       010LOCALIZA    ON      NM   R$  000000000419000000000042710000000004189000000000422800000000042250000000004221000000000422515581000000000004519000000000019106443600000000000000009999123100000010000000000000BRRENTACNOR4196
012024091202PRIO3       010PETRORIO    ON      NM   R$  000000000427800000000043230000000004200000000000425900000000042280000000004228000000000423021835000000000007297000000000031082472100000000000000009999123100000010000000000000BRPRIOACNOR1107
012024091202ROMI3       010ROMI        ON      NM   R$  000000000108100000000010860000000001078000000000108200000000010800000000001080000000000108500434000000000000061700000000000066774700000000000000009999123100000010000000000000BRROMIACNOR8195
012024091202B3SA3       010B3          ON      NM   R$  000000000121500000000012280000000001194000000000120600000000012050000000001204000000000120529260000000000047159100000000056880673600000000000000009999123100000010000000000000BRB3SAACNOR6133
012024091202CMIN3       010CSNMINERACAOON      N2   R$  000000000062000000000006370000000000617000000000062800000000006310000000000630000000000063116594000000000023195300000000014569570100000000000000009999123100000010000000000000BRCMINACNOR2111
012024091202DASA3       010DASA        ON      NM   R$  000000000030300000000003050000000000295000000000030000000000003000000000000300000000000030401403000000000000482100000000000144718200000000000000009999123100000010000000000000BRDASAACNOR1122
012024091202FESA4       010FERBASA     PN  EJ  N1   R$  000000000079800000000007990000000000786000000000079300000000007900000000000789000000000079201099000000000000477600000000000378800100000000000000009999123100000010000000000000BRFESAACNPR5085
012024091202FHER3       010FER HERINGERON      NM   R$  000000000040300000000004030000000000400000000000040000000000004010000000000400000000000040100012000000000000007700000000000003086700000000000000009999123100000010000000000000BRFHERACNOR5103
012024091202FIQE3       010UNIFIQUE    ON      NM   R$  000000000039500000000003950000000000388000000000039000000000003900000000000388000000000039001065000000000000654100000000000255314300000000000000009999123100000010000000000000BRFIQEACNOR5107
012024091202FLRY3       010FLEURY      ON      NM   R$  000000000165600000000016650000000001638000000000165400000000016600000000001654000000000166105923000000000001532500000000002535503300000000000000009999123100000010000000000000BRFLRYACNOR5139
012024091202FRAS3       010FRAS-LE     ON      N1   R$  000000000200900000000020100000000001984000000000200000000000020030000000002003000000000200801391000000000000246000000000000492011500000000000000009999123100000010000000000000BRFRASACNOR0160
012024091202FRIO3       010METALFRIO   ON      NM   R$  000000000930000000000093000000000009300000000000930000000000093000000000009300000000001100000002000000000000000200000000000001860000000000000000009999123100000010000000000000BRFRIOACNOR2111
012024091202GEPA3       010GER PARANAP ON           R$  000000000270000000000027000000000002700000000000270000000000027000000000002661000000000279700001000000000000000100000000000000270000000000000000009999123100000010000000000000BRGEPAACNOR2153
012024091202GEPA4       010GER PARANAP PN           R$  000000000284900000000028490000000002800000000000281600000000028000000000002800000000000284700003000000000000000300000000000000844900000000000000009999123100000010000000000000BRGEPAACNPR9160
012024091202EALT3       010ACO ALTONA  ON           R$  000000000151000000000015130000000001490000000000150200000000014900000000001490000000000153900011000000000000004000000000000006009700000000000000009999123100000010000000000000BREALTACNOR4138
012024091202GGBR3       010GERDAU      ON      N1   R$  000000000164600000000016650000000001646000000000165400000000016490000000001649000000000165500154000000000000023400000000000038721600000000000000009999123100000010000000000000BRGGBRACNOR1193
012024091202GGBR4       010GERDAU      PN      N1   R$  000000000186400000000018690000000001843000000000185600000000018600000000001858000000000186013187000000000009132100000000016953128000000000000000009999123100000010000000000000BRGGBRACNPR8193
012024091202ITUB3       010ITAUUNIBANCOON      N1   R$  000000000324500000000032490000000003205000000000322100000000032330000000003230000000000323301954000000000000430200000000001385956200000000000000009999123100000010000000000000BRITUBACNOR4340
012024091202ITUB4       010ITAUUNIBANCOPN      N1   R$  000000000372100000000037280000000003670000000000369700000000036970000000003695000000000369722449000000000014394900000000053232213500000000000000009999123100000010000000000000BRITUBACNPR1340
012024091202CAMB3       010CAMBUCI     ON           R$  000000000121100000000012350000000001190000000000121500000000012220000000001205000000000122200177000000000000048500000000000058942900000000000000009999123100000010000000000000BRCAMBACNOR4131
012024091202CAML3       010CAMIL       ON  EDJ NM   R$  000000000096800000000009680000000000933000000000093900000000009350000000000933000000000093501493000000000000356300000000000334916700000000000000009999123100000010000000000000BRCAMLACNOR3129
012024091202TTEN3       0103TENTOS     ON      NM   R$  000000000125000000000012550000000001212000000000122800000000012270000000001220000000000122704678000000000000931600000000001144360800000000000000009999123100000010000000000000BRTTENACNOR0103
012024091202TUPY3       010TUPY        ON      NM   R$  000000000270300000000027060000000002660000000000268600000000027040000000002699000000000270401895000000000000252300000000000677695700000000000000009999123100000010000000000000BRTUPYACNOR1184
012024091202YDUQ3       010YDUQS PART  ON      NM   R$  000000000104100000000010540000000001006000000000103300000000010410000000001041000000000104210470000000000004553200000000004704571900000000000000009999123100000010000000000000BRYDUQACNOR3105
012024091202BBSE3       010BBSEGURIDADEON      NM   R$  000000000362800000000036470000000003603000000000361700000000036100000000003610000000000361211471000000000002349500000000008498426300000000000000009999123100000010000000000000BRBBSEACNOR5125
012024091202BPAC11      010BTGP BANCO  UNT     N2   R$  000000000345100000000034510000000003395000000000341200000000034060000000003406000000000341414463000000000004928600000000016820251700000000000000009999123100000010000000000000BRBPACUNT006119
012024091202BPAC3       010BTGP BANCO  ON      N2   R$  000000000157500000000015910000000001575000000000158400000000015910000000001575000000000159100007000000000000000900000000000001425600000000000000009999123100000010000000000000BRBPACACNOR7134
012024091202BPAC5       010BTGP BANCO  PNA     N2   R$  000000000093000000000009340000000000902000000000091600000000009100000000000902000000000091800012000000000000001600000000000001467100000000000000009999123100000010000000000000BRBPACACNPA0134
012024091202CLSC4       010CELESC      PN      N2   R$  000000000816300000000081630000000008151000000000815500000000081520000000008082000000000815200005000000000000000500000000000004077900000000000000009999123100000010000000000000BRCLSCACNPR3131
012024091202CMIG3       010CEMIG       ON      N1   R$  000000000147700000000014770000000001446000000000145700000000014460000000001446000000000146000539000000000000099900000000000145569800000000000000009999123100000010000000000000BRCMIGACNOR6243
012024091202CMIG4       010CEMIG       PN      N1   R$  000000000117400000000011750000000001163000000000116900000000011700000000001170000000000117215823000000000009435800000000011035835000000000000000009999123100000010000000000000BRCMIGACNPR3244
012024091202UCAS3       010UNICASA     ON      NM   R$  000000000022200000000002240000000000220000000000022100000000002200000000000220000000000022300099000000000000024100000000000005328300000000000000009999123100000010000000000000BRUCASACNOR1113
012024091202UGPA3       010ULTRAPAR    ON      NM   R$  000000000228600000000023110000000002269000000000228400000000022820000000002281000000000228614615000000000004406300000000010068131000000000000000009999123100000010000000000000BRUGPAACNOR8156
012024091202UNIP3       010UNIPAR      ON           R$  000000000468500000000047250000000004650000000000467500000000046500000000004650000000000468000056000000000000008200000000000038337100000000000000009999123100000010000000000000BRUNIPACNOR7206
012024091202UNIP5       010UNIPAR      PNA          R$  000000000483000000000049900000000004785000000000491500000000047910000000004753000000000499000021000000000000002300000000000011305700000000000000009999123100000010000000000000BRUNIPACNPA0208
012024091202UNIP6       010UNIPAR      PNB          R$  000000000473200000000047680000000004669000000000469400000000046690000000004667000000000467001228000000000000180400000000000846848900000000000000009999123100000010000000000000BRUNIPACNPB8206
012024091202DESK3       010DESKTOP     ON      NM   R$  000000000151000000000015490000000001503000000000152300000000015400000000001527000000000154001164000000000000171500000000000261322000000000000000009999123100000010000000000000BRDESKACNOR2104
012024091202DEXP3       010DEXXOS PAR  ON      N1   R$  000000000091800000000009290000000000909000000000091600000000009130000000000913000000000092300205000000000000047100000000000043147000000000000000009999123100000010000000000000BRDEXPACNOR1105
012024091202DEXP4       010DEXXOS PAR  PN      N1   R$  000000000091800000000009260000000000911000000000091400000000009260000000000915000000000092400012000000000000003600000000000003290400000000000000009999123100000010000000000000BRDEXPACNPR8105
012024091202DIRR3       010DIRECIONAL  ON      NM   R$  000000000319800000000032370000000003172000000000321800000000032370000000003235000000000323811436000000000002112200000000006798296400000000000000009999123100000010000000000000BRDIRRACNOR0118
012024091202DMVF3       010D1000VFARMA ON      NM   R$  000000000065300000000006540000000000630000000000063600000000006390000000000639000000000064100363000000000000079200000000000050398500000000000000009999123100000010000000000000BRDMVFACNOR9100
012024091202LUPA3       010LUPATECH    ON      NM   R$  000000000014800000000001480000000000142000000000014400000000001440000000000144000000000014500286000000000000225900000000000032567800000000000000009999123100000010000000000000BRLUPAACNOR8112
012024091202LUXM4       010TREVISA     PN           R$  000000000134600000000013460000000001346000000000134600000000013460000000001202000000000139900001000000000000000200000000000000269200000000000000009999123100000010000000000000BRLUXMACNPR4052
012024091202ALPA3       010ALPARGATAS  ON      N1   R$  000000000072200000000007330000000000722000000000072700000000007300000000000730000000000074300008000000000000002100000000000001528200000000000000009999123100000010000000000000BRALPAACNOR0231
012024091202ALPA4       010ALPARGATAS  PN      N1   R$  000000000073200000000007380000000000725000000000073100000000007290000000000729000000000073006779000000000002077100000000001518420800000000000000009999123100000010000000000000BRALPAACNPR7232
012024091202ALPK3       010ESTAPAR     ON      NM   R$  000000000032900000000003360000000000324000000000032900000000003350000000000329000000000033500249000000000000111000000000000036614500000000000000009999123100000010000000000000BRALPKACNOR9101
012024091202ALUP11      010ALUPAR      UNT     N2   R$  000000000311200000000031270000000003106000000000311700000000031160000000003116000000000312102126000000000000338600000000001055567600000000000000009999123100000010000000000000BRALUPCDAM15120
012024091202ALUP3       010ALUPAR      ON      N2   R$  000000000106700000000010680000000001053000000000105900000000010590000000001055000000000106200029000000000000004400000000000004659900000000000000009999123100000010000000000000BRALUPACNOR8120
012024091202ALUP4       010ALUPAR      PN      N2   R$  000000000102800000000010350000000001025000000000102800000000010350000000001028000000000104000032000000000000007600000000000007814400000000000000009999123100000010000000000000BRALUPACNPR5120
012024091202AMAR3       010LOJAS MARISAON      NM   R$  000000000010600000000001080000000000105000000000010600000000001050000000000105000000000010600509000000000000178900000000000018983700000000000000009999123100000010000000000000BRAMARACNOR4115
012024091202AMBP3       010AMBIPAR     ON      NM   R$  000000000667900000000067600000000006529000000000668000000000067000000000006583000000000670001157000000000000483800000000003231871900000000000000009999123100000010000000000000BRAMBPACNOR6103
012024091202KRSA3       010KORA SAUDE  ON      NM   R$  000000000005700000000000580000000000054000000000005500000000000550000000000054000000000005501172000000000000832000000000000045900300000000000000009999123100000010000000000000BRKRSAACNOR0100
012024091202LAND3       010TERRASANTAPAON      NM   R$  000000000126100000000013070000000001250000000000127900000000012900000000001287000000000129800485000000000000101200000000000129440900000000000000009999123100000010000000000000BRLANDACNOR9103
012024091202LAVV3       010LAVVI       ON      NM   R$  000000000084300000000008460000000000830000000000083600000000008430000000000842000000000084301910000000000000327400000000000273715500000000000000009999123100000010000000000000BRLAVVACNOR4113
012024091202VULC3       010VULCABRAS   ON      NM   R$  000000000180700000000018070000000001768000000000177700000000017750000000001774000000000177501739000000000000426600000000000758226900000000000000009999123100000010000000000000BRVULCACNOR2161
012024091202VVEO3       010VIVEO       ON      NM   R$  000000000021200000000002250000000000207000000000021500000000002120000000000212000000000021304108000000000003325200000000000716754600000000000000009999123100000010000000000000BRVVEOACNOR0104
012024091202WEGE3       010WEG         ON      NM   R$  000000000533500000000054280000000005264000000000534700000000053310000000005331000000000533322350000000000006480500000000034651493000000000000000009999123100000010000000000000BRWEGEACNOR0224
012024091202MTRE3       010MITRE REALTYON      NM   R$  000000000037500000000003750000000000367000000000036900000000003680000000000368000000000036900744000000000000390500000000000144234100000000000000009999123100000010000000000000BRMTREACNOR6114
012024091202MTSA4       010METISA      PN           R$  000000000416800000000041680000000003950000000000400000000000039500000000003930000000000399000029000000000000004700000000000018800900000000000000009999123100000010000000000000BRMTSAACNPR9072
012024091202MULT3       010MULTIPLAN   ON      N2   R$  000000000267100000000026980000000002660000000000268500000000026900000000002689000000000269018235000000000003295900000000008851696200000000000000009999123100000010000000000000BRMULTACNOR5139
012024091202MYPK3       010IOCHP-MAXIONON      NM   R$  000000000112800000000011380000000001114000000000112700000000011280000000001124000000000112902580000000000000553500000000000624037600000000000000009999123100000010000000000000BRMYPKACNOR7155
012024091202NEOE3       010NEOENERGIA  ON      NM   R$  000000000195500000000019630000000001928000000000194500000000019400000000001939000000000195002773000000000001128800000000002196414900000000000000009999123100000010000000000000BRNEOEACNOR3123
012024091202NGRD3       010NEOGRID     ON      NM   R$  000000000011900000000001190000000000114000000000011600000000001170000000000116000000000011700603000000000000434100000000000050702100000000000000009999123100000010000000000000BRNGRDACNOR3104
012024091202RAIL3       010RUMO S.A.   ON      NM   R$  000000000214300000000021510000000002098000000000211300000000021100000000002110000000000211524044000000000010414900000000022012030600000000000000009999123100000010000000000000BRRAILACNOR9105
012024091202RAIZ4       010RAIZEN      PN      N2   R$  000000000030000000000003090000000000298000000000030400000000003060000000000306000000000030714380000000000019973100000000006085031900000000000000009999123100000010000000000000BRRAIZACNPR6111
012024091202SMFT3       010SMART FIT   ON      NM   R$  000000000228000000000022800000000002209000000000222700000000022340000000002231000000000223405702000000000001498600000000003337949100000000000000009999123100000010000000000000BRSMFTACNOR1112
012024091202SMTO3       010SAO MARTINHOON      NM   R$  000000000257900000000025890000000002541000000000257300000000025820000000002578000000000258204905000000000000939600000000002417962200000000000000009999123100000010000000000000BRSMTOACNOR3127
012024091202SNSY3       010SANSUY      ON           R$  000000000124900000000012490000000001249000000000124900000000012490000000001185000000000123000001000000000000000300000000000000374700000000000000009999123100000010000000000000BRSNSYACNOR2113
012024091202SNSY5       010SANSUY      PNA          R$  000000000057000000000005790000000000561000000000056500000000005620000000000562000000000056500027000000000000006800000000000003843700000000000000009999123100000010000000000000BRSNSYACNPA5111
012024091202SOJA3       010BOA SAFRA   ON      NM   R$  000000000127200000000012810000000001260000000000126600000000012660000000001265000000000126602325000000000000394800000000000499970400000000000000009999123100000010000000000000BRSOJAACNOR9105
012024091202SRNA3       010SERENA      ON      NM   R$  000000000088100000000008910000000000868000000000088000000000008850000000000885000000000088604229000000000002579900000000002271666700000000000000009999123100000010000000000000BRSRNAACNOR4100
012024091202STBP3       010SANTOS BRP  ON      NM   R$  000000000131000000000013180000000001301000000000130900000000013090000000001308000000000130907520000000000002909300000000003810205500000000000000009999123100000010000000000000BRSTBPACNOR3131
012024091202SUZB3       010SUZANO S.A. ON      NM   R$  000000000547500000000055310000000005420000000000544500000000054390000000005438000000000543915473000000000003523800000000019189442700000000000000009999123100000010000000000000BRSUZBACNOR0130
012024091202VITT3       010VITTIA      ON      NM   R$  000000000061700000000006230000000000610000000000061500000000006200000000000618000000000062101116000000000000290400000000000178671200000000000000009999123100000010000000000000BRVITTACNOR4107
012024091202VIVA3       010VIVARA S.A. ON      NM   R$  000000000280100000000028150000000002769000000000278700000000027960000000002778000000000279609622000000000002474900000000006898333800000000000000009999123100000010000000000000BRVIVAACNOR0107
012024091202VIVR3       010VIVER       ON      NM   R$  000000000020800000000002130000000000204000000000020600000000002040000000000203000000000020500126000000000000047100000000000009736200000000000000009999123100000010000000000000BRVIVRACNOR4123
012024091202VIVT3       010TELEF BRASILON           R$  000000000543000000000054880000000005407000000000546500000000054600000000005456000000000546210553000000000001869500000000010217162500000000000000009999123100000010000000000000BRVIVTACNOR0184
012024091202VLID3       010VALID       ON      NM   R$  000000000237800000000023950000000002222000000000226400000000022590000000002256000000000226103554000000000000582400000000001318772400000000000000009999123100000010000000000000BRVLIDACNOR5144
012024091202PSSA3       010PORTO SEGUROON      NM   R$  000000000343200000000034710000000003403000000000344000000000034710000000003468000000000347105434000000000001278800000000004399251900000000000000009999123100000010000000000000BRPSSAACNOR7155
012024091202PTBL3       010PORTOBELLO  ON      NM   R$  000000000050100000000005010000000000487000000000048900000000004900000000000488000000000049000643000000000000262500000000000128554900000000000000009999123100000010000000000000BRPTBLACNOR8132
012024091202PTNT4       010PETTENATI   PN           R$  000000000074600000000007460000000000727000000000073500000000007350000000000727000000000073500007000000000000003000000000000002206100000000000000009999123100000010000000000000BRPTNTACNPR3047
012024091202QUAL3       010QUALICORP   ON      NM   R$  000000000020900000000002160000000000203000000000020800000000002110000000000211000000000021202979000000000003805900000000000794697600000000000000009999123100000010000000000000BRQUALACNOR6120
012024091202MDIA3       010M.DIASBRANCOON      NM   R$  000000000277500000000027820000000002730000000000274300000000027330000000002732000000000273301899000000000000352800000000000968066400000000000000009999123100000010000000000000BRMDIAACNOR7135
012024091202MDNE3       010MOURA DUBEUXON      NM   R$  000000000148300000000014840000000001444000000000145500000000014500000000001450000000000145701722000000000000396100000000000576393400000000000000009999123100000010000000000000BRMDNEACNOR9100
012024091202MEAL3       010IMC S/A     ON      NM   R$  000000000014300000000001440000000000138000000000013900000000001380000000000137000000000013800220000000000000420300000000000058723800000000000000009999123100000010000000000000BRMEALACNOR9105
012024091202MELK3       010MELNICK     ON      NM   R$  000000000034000000000003500000000000335000000000034000000000003400000000000339000000000034002047000000000002070800000000000704742800000000000000009999123100000010000000000000BRMELKACNOR8111
012024091202GFSA3       010GAFISA      ON      NM   R$  000000000024500000000002570000000000241000000000024800000000002440000000000242000000000024402419000000000002861400000000000709948600000000000000009999123100000010000000000000BRGFSAACNOR3125
012024091202ITSA3       010ITAUSA      ON      N1   R$  000000000112500000000011250000000001112000000000111700000000011210000000001118000000000112400346000000000000075000000000000083843000000000000000009999123100000010000000000000BRITSAACNOR0442
012024091202ITSA4       010ITAUSA      PN      N1   R$  000000000111900000000011220000000001110000000000111700000000011200000000001120000000000112116859000000000019688900000000021995908000000000000000009999123100000010000000000000BRITSAACNPR7442
012024091202LVTC3       010WDC NETWORKSON      NM   R$  000000000039300000000004070000000000389000000000039600000000003900000000000390000000000040100071000000000000039500000000000015651100000000000000009999123100000010000000000000BRLVTCACNOR4102
012024091202LWSA3       010LWSA        ON      NM   R$  000000000044200000000004450000000000434000000000044000000000004410000000000440000000000044205207000000000002761800000000001217000800000000000000009999123100000010000000000000BRLWSAACNOR8103
012024091202MATD3       010MATER DEI   ON      NM   R$  000000000049900000000004990000000000475000000000048000000000004820000000000477000000000048201851000000000000455600000000000219036900000000000000009999123100000010000000000000BRMATDACNOR4104
012024091202MBLY3       010MOBLY       ON      NM   R$  000000000027600000000002840000000000273000000000027800000000002810000000000277000000000028100439000000000000245000000000000068230700000000000000009999123100000010000000000000BRMBLYACNOR5100
012024091202CSUD3       010CSU DIGITAL ON      NM   R$  000000000181000000000018210000000001715000000000174900000000018210000000001821000000000182401062000000000000187600000000000328116500000000000000009999123100000010000000000000BRCSUDACNOR5110
012024091202CURY3       010CURY S/A    ON      NM   R$  000000000250000000000025150000000002481000000000249400000000024960000000002495000000000249906839000000000002037500000000005081938800000000000000009999123100000010000000000000BRCURYACNOR3109
012024091202CVCB3       010CVC BRASIL  ON      NM   R$  000000000019600000000002030000000000182000000000019000000000001820000000000182000000000018310032000000000035440100000000006744024100000000000000009999123100000010000000000000BRCVCBACNOR1116
012024091202ESPA3       010ESPACOLASER ON      NM   R$  000000000011100000000001110000000000108000000000010900000000001110000000000108000000000011100059000000000000064700000000000007075800000000000000009999123100000010000000000000BRESPAACNOR7103
012024091202ESTR4       010ESTRELA     PN           R$  000000000025000000000004300000000000250000000000038500000000003770000000000361000000000037800184000000000000038900000000000015008700000000000000009999123100000010000000000000BRESTRACNPR0144
012024091202PFRM3       010PROFARMA    ON      NM   R$  000000000061300000000006140000000000602000000000060800000000006140000000000610000000000061400431000000000000094100000000000057290600000000000000009999123100000010000000000000BRPFRMACNOR1116
012024091202PGMN3       010PAGUE MENOS ON      NM   R$  000000000029500000000002950000000000286000000000028900000000002890000000000289000000000029002154000000000000675800000000000195385900000000000000009999123100000010000000000000BRPGMNACNOR8103
012024091202PINE3       010PINE        ON      N2   R$  000000000049100000000004910000000000479000000000048300000000004790000000000481000000000049300005000000000000001500000000000000725700000000000000009999123100000010000000000000BRPINEACNOR1150
012024091202PINE4       010PINE        PN      N2   R$  000000000048000000000004890000000000480000000000048400000000004880000000000487000000000048800482000000000000217200000000000105290500000000000000009999123100000010000000000000BRPINEACNPR8150
012024091202PLAS3       010PLASCAR PARTON           R$  000000000067500000000006750000000000675000000000067500000000006750000000000630000000000066700001000000000000000100000000000000067500000000000000009999123100000010000000000000BRPLASACNOR2106
012024091202PLPL3       010PLANOEPLANO ON      NM   R$  000000000123100000000012410000000001193000000000120800000000012070000000001200000000000120702197000000000000531700000000000642810000000000000000009999123100000010000000000000BRPLPLACNOR5104
012024091202TOTS3       010TOTVS       ON      NM   R$  000000000291400000000029600000000002903000000000293800000000029360000000002934000000000293606666000000000001125500000000003306779400000000000000009999123100000010000000000000BRTOTSACNOR8145
012024091202TPIS3       010TRIUNFO PARTON      NM   R$  000000000050200000000005150000000000495000000000050200000000005010000000000500000000000050700142000000000000039300000000000019731400000000000000009999123100000010000000000000BRTPISACNOR8118
012024091202TRAD3       010TC          ON      NM   R$  000000000028100000000003000000000000276000000000028700000000003000000000000288000000000030000263000000000000103000000000000029568000000000000000009999123100000010000000000000BRTRADACNOR3102
012024091202TRIS3       010TRISUL      ON      NM   R$  000000000046500000000004650000000000462000000000046200000000004620000000000462000000000046400272000000000000250700000000000115927200000000000000009999123100000010000000000000BRTRISACNOR4118
012024091202TRPL3       010TRAN PAULISTON      N1   R$  000000000319500000000031950000000003170000000000317400000000031730000000003172000000000318900016000000000000002600000000000008252800000000000000009999123100000010000000000000BRTRPLACNOR4185
012024091202TRPL4       010TRAN PAULISTPN      N1   R$  000000000247100000000024750000000002455000000000246500000000024710000000002471000000000247507514000000000001719600000000004239998400000000000000009999123100000010000000000000BRTRPLACNPR1185
012024091202PATI3       010PANATLANTICAON  ED       R$  000000000261100000000026120000000002611000000000261100000000026120000000002612000000000281400005000000000000000700000000000001828300000000000000009999123100000010000000000000BRPATIACNOR6066
012024091202PCAR3       010P.ACUCAR-CBDON      NM   R$  000000000030800000000003110000000000301000000000030600000000003050000000000305000000000030605912000000000003986800000000001221947700000000000000009999123100000010000000000000BRPCARACNOR3167
012024091202BMEB3       010MERCANTIL   ON      N1   R$  000000000369000000000037840000000003690000000000376000000000037840000000003700000000000378500004000000000000000400000000000001504200000000000000009999123100000010000000000000BRBMEBACNOR8206
012024091202BMEB4       010MERCANTIL   PN      N1   R$  000000000406600000000040820000000004026000000000405300000000040500000000004050000000000410000046000000000000006100000000000024724500000000000000009999123100000010000000000000BRBMEBACNPR5211
012024091202BMGB4       010BANCO BMG   PN      N1   R$  000000000038500000000003880000000000380000000000038300000000003870000000000386000000000038700786000000000000391500000000000150246600000000000000009999123100000010000000000000BRBMGBACNPR0110
012024091202BMIN4       010MERC INVEST PN           R$  000000000165000000000016500000000001650000000000165000000000016500000000001600000000000177000001000000000000000100000000000000165000000000000000009999123100000010000000000000BRBMINACNPR1176
012024091202BMKS3       010BIC MONARK  ON           R$  000000003210100000000334990000000032020000000003224900000000332900000000032020000000003329000018000000000000000100000000000003224963000000000000009999123100000010000000000000BRBMKSACNOR9166
012024091202BRAV3       010BRAVA       ON      NM   R$  000000000227600000000022800000000002139000000000217500000000021390000000002138000000000213916762000000000006958600000000015137361500000000000000009999123100000010000000000000BRBRAVACNOR3100
012024091202ELMD3       010ELETROMIDIA ON      NM   R$  000000000177200000000017870000000001736000000000175200000000017500000000001736000000000175000322000000000000053300000000000093389300000000000000009999123100000010000000000000BRELMDACNOR3101
012024091202EMAE4       010EMAE        PN           R$  000000000400000000000040000000000004000000000000400000000000040000000000004000000000000410000002000000000000000200000000000000800000000000000000009999123100000010000000000000BREMAEACNPR1125
012024091202EMBR3       010EMBRAER     ON      NM   R$  000000000494900000000050990000000004852000000000502400000000050950000000005092000000000509529775000000000008156200000000040977513900000000000000009999123100000010000000000000BREMBRACNOR4191
012024091202PETZ3       010PETZ        ON      NM   R$  000000000047100000000004780000000000466000000000047200000000004670000000000467000000000046906971000000000007884600000000003726366500000000000000009999123100000010000000000000BRPETZACNOR2110
012024091202JHSF3       010JHSF PART   ON      NM   R$  000000000045500000000004550000000000446000000000045000000000004500000000000450000000000045104076000000000002240600000000001009161100000000000000009999123100000010000000000000BRJHSFACNOR2139
012024091202MRSA3B      010MRS LOGIST  ON      MB   R$  000000000290000000000029990000000002900000000000294000000000029990000000002901000000000299900004000000000000000500000000000001470000000000000000009999123100000010000000000000BRMRSAACNOR6125
012024091202MRVE3       010MRV         ON      NM   R$  000000000077800000000007980000000000776000000000078600000000007820000000000781000000000078317312000000000011400200000000008968223100000000000000009999123100000010000000000000BRMRVEACNOR2127
012024091202RCSL3       010RECRUSUL    ON           R$  000000000078000000000008160000000000770000000000079000000000007810000000000781000000000078505250000000000002222100000000001756507000000000000000009999123100000010000000000000BRRCSLACNOR4134
012024091202RCSL4       010RECRUSUL    PN           R$  000000000011000000000001110000000000104000000000010600000000001040000000000104000000000010500319000000000000437200000000000046604300000000000000009999123100000010000000000000BRRCSLACNPR1134
012024091202RDNI3       010RNI         ON      NM   R$  000000000031000000000003160000000000310000000000031500000000003160000000000311000000000031600007000000000000001300000000000000410200000000000000009999123100000010000000000000BRRDNIACNOR9116
012024091202RDOR3       010REDE D OR   ON      NM   R$  000000000334200000000034020000000003319000000000337000000000033770000000003377000000000337912618000000000004727000000000015933652800000000000000009999123100000010000000000000BRRDORACNOR8113
012024091202RECV3       010PETRORECSA  ON      NM   R$  000000000189300000000018960000000001858000000000186800000000018610000000001860000000000186606491000000000001514600000000002830678700000000000000009999123100000010000000000000BRRECVACNOR3107
012024091202TASA3       010TAURUS ARMASON      N2   R$  000000000113300000000011330000000001112000000000112000000000011160000000001113000000000113100052000000000000012600000000000014114400000000000000009999123100000010000000000000BRTASAACNOR7104
012024091202TASA4       010TAURUS ARMASPN      N2   R$  000000000112500000000011290000000001115000000000111700000000011200000000001116000000000112000863000000000000200900000000000224595500000000000000009999123100000010000000000000BRTASAACNPR4104
012024091202TCSA3       010TECNISA     ON      NM   R$  000000000019800000000001980000000000187000000000019000000000001900000000000190000000000019100160000000000000128800000000000024504700000000000000009999123100000010000000000000BRTCSAACNOR3112
012024091202TECN3       010TECHNOS     ON      NM   R$  000000000050200000000005160000000000502000000000051200000000005160000000000506000000000051600160000000000000102800000000000052688600000000000000009999123100000010000000000000BRTECNACNOR6109
012024091202TELB3       010TELEBRAS    ON           R$  000000000137000000000014000000000001366000000000137900000000013710000000001370000000000138300013000000000000001700000000000002344600000000000000009999123100000010000000000000BRTELBACNOR2140
012024091202TELB4       010TELEBRAS    PN           R$  000000000092700000000009270000000000925000000000092500000000009250000000000925000000000093500003000000000000000600000000000000555200000000000000009999123100000010000000000000BRTELBACNPR9140
012024091202TEND3       010TENDA       ON      NM   R$  000000000128900000000013010000000001268000000000128200000000012850000000001281000000000128505755000000000001858900000000002383223100000000000000009999123100000010000000000000BRTENDACNOR4111
012024091202TFCO4       010TRACK FIELD PN      N2   R$  000000000117500000000011750000000001145000000000115000000000011490000000001144000000000114900426000000000000136400000000000156864800000000000000009999123100000010000000000000BRTFCOACNPR8114
012024091202TGMA3       010TEGMA       ON      NM   R$  000000000278000000000027800000000002730000000000275400000000027730000000002765000000000277401075000000000000188000000000000517808400000000000000009999123100000010000000000000BRTGMAACNOR7145
012024091202TIMS3       010TIM         ON      NM   R$  000000000182200000000018360000000001820000000000182600000000018200000000001820000000000182107177000000000002954100000000005396273300000000000000009999123100000010000000000000BRTIMSACNOR5117
012024091202WEST3       010WESTWING    ON      NM   R$  000000000008600000000000860000000000084000000000008400000000000850000000000085000000000008600019000000000000029000000000000002460500000000000000009999123100000010000000000000BRWESTACNOR3100
012024091202BIOM3       010BIOMM       ON      MA   R$  000000000100200000000010180000000000980000000000099300000000009800000000000973000000000098000294000000000000064000000000000063607000000000000000009999123100000010000000000000BRBIOMACNOR2112
012024091202WHRL3       010WHIRLPOOL   ON           R$  000000000047800000000005000000000000473000000000048600000000004780000000000474000000000047900053000000000000019100000000000009297600000000000000009999123100000010000000000000BRWHRLACNOR5128
012024091202WHRL4       010WHIRLPOOL   PN           R$  000000000049100000000005050000000000488000000000049700000000005000000000000500000000000050100168000000000000104100000000000051775100000000000000009999123100000010000000000000BRWHRLACNPR2128
012024091202WIZC3       010WIZ CO      ON      NM   R$  000000000060400000000006040000000000595000000000059700000000005960000000000596000000000059700750000000000000217100000000000129698900000000000000009999123100000010000000000000BRWIZCACNOR5102
012024091202WLMM4       010WLM IND COM PN           R$  000000000299500000000030830000000002993000000000304800000000030810000000002968000000000308500008000000000000000800000000000002438900000000000000009999123100000010000000000000BRWLMMACNPR3119
012024091202BLAU3       010BLAU        ON      NM   R$  000000000136900000000014060000000001358000000000137900000000013670000000001366000000000136902469000000000000302400000000000417069100000000000000009999123100000010000000000000BRBLAUACNOR8114
012024091202HYPE3       010HYPERA      ON      NM   R$  000000000289900000000029210000000002817000000000285000000000028370000000002835000000000283712953000000000003232300000000009212306800000000000000009999123100000010000000000000BRHYPEACNOR0143
012024091202ONCO3       010ONCOCLINICASON      NM   R$  000000000059700000000006220000000000580000000000060800000000006170000000000616000000000062009682000000000005768600000000003510755700000000000000009999123100000010000000000000BRONCOACNOR6101
012024091202OPCT3       010OCEANPACT   ON      NM   R$  000000000066900000000006780000000000669000000000067100000000006700000000000669000000000067001416000000000000365600000000000245602400000000000000009999123100000010000000000000BROPCTACNOR0100
012024091202ORVR3       010ORIZON      ON      NM   R$  000000000472800000000047360000000004642000000000469500000000047260000000004720000000000472702806000000000000430000000000002018985300000000000000009999123100000010000000000000BRORVRACNOR0101
012024091202AALR3       010ALLIAR      ON      NM   R$  000000000158300000000016200000000001565000000000159700000000015650000000001548000000000162000217000000000000043500000000000069490600000000000000009999123100000010000000000000BRAALRACNOR6102
012024091202ABCB4       010ABC BRASIL  PN      N2   R$  000000000230900000000023140000000002291000000000230300000000023040000000002303000000000231302071000000000000305900000000000704722700000000000000009999123100000010000000000000BRABCBACNPR4146
012024091202ABEV3       010AMBEV S/A   ON           R$  000000000129600000000012990000000001276000000000128500000000012910000000001291000000000129235924000000000034492700000000044328717900000000000000009999123100000010000000000000BRABEVACNOR1128
012024091202CRFB3       010CARREFOUR BRON      NM   R$  000000000095200000000009730000000000936000000000095400000000009360000000000936000000000093711715000000000007952100000000007589011700000000000000009999123100000010000000000000BRCRFBACNOR2116
012024091202CRPG5       010CRISTAL     PNA          R$  000000000287400000000029200000000002870000000000287900000000029200000000002851000000000292000012000000000000002800000000000008061900000000000000009999123100000010000000000000BRCRPGACNPA3119
012024091202CRPG6       010CRISTAL     PNB          R$  000000000280200000000028500000000002801000000000284800000000028500000000002802000000000289900103000000000000010500000000000029905400000000000000009999123100000010000000000000BRCRPGACNPB1119
012024091202CSAN3       010COSAN       ON      NM   R$  000000000129700000000013020000000001275000000000128500000000012840000000001284000000000128711964000000000006120300000000007864888200000000000000009999123100000010000000000000BRCSANACNOR6126
012024091202JOPA3       010JOSAPAR     ON           R$  000000000210000000000023000000000002100000000000216600000000023000000000002125000000000229900003000000000000000300000000000000650000000000000000009999123100000010000000000000BRJOPAACNOR5135
012024091202JSLG3       010JSL         ON      NM   R$  000000000097000000000009890000000000956000000000097100000000009560000000000956000000000096702441000000000000776000000000000753548400000000000000009999123100000010000000000000BRJSLGACNOR2121
012024091202MGLU3       010MAGAZ LUIZA ON  ATZ NM   R$  000000000113100000000011310000000001107000000000112100000000011170000000001117000000000111917796000000000012538400000000014057077200000000000000009999123100000010000000000000BRMGLUACNOR2125
012024091202ASAI3       010ASSAI       ON      NM   R$  000000000091000000000009200000000000900000000000091100000000009070000000000907000000000090916080000000000011088400000000010109519300000000000000009999123100000010000000000000BRASAIACNOR0106
012024091202ATOM3       010ATOMPAR     ON           R$  000000000021500000000002150000000000215000000000021500000000002150000000000215000000000021900016000000000000004200000000000000903000000000000000009999123100000010000000000000BRATOMACNOR1106
012024091202AURE3       010AUREN       ON      NM   R$  000000000110600000000011130000000001102000000000110700000000011060000000001106000000000110706318000000000002617900000000002900446500000000000000009999123100000010000000000000BRAUREACNOR9104
012024091202AVLL3       010ALPHAVILLE  ON      NM   R$  000000000037100000000003770000000000371000000000037500000000003770000000000350000000000037700004000000000000000900000000000000337500000000000000009999123100000010000000000000BRAVLLACNOR5103
012024091202AZEV3       010AZEVEDO     ON           R$  000000000013700000000001370000000000132000000000013300000000001320000000000132000000000013300547000000000000617200000000000082511400000000000000009999123100000010000000000000BRAZEVACNOR0121
012024091202AZEV4       010AZEVEDO     PN           R$  000000000013500000000001360000000000131000000000013200000000001320000000000131000000000013200858000000000002052800000000000272697900000000000000009999123100000010000000000000BRAZEVACNPR7121
012024091202AZUL4       010AZUL        PN      N2   R$  000000000041900000000004200000000000403000000000041000000000004040000000000403000000000040411150000000000023231400000000009532098100000000000000009999123100000010000000000000BRAZULACNPR4103
012024091202BRSR3       010BANRISUL    ON      N1   R$  000000000135800000000013670000000001321000000000133800000000013380000000001333000000000134100106000000000000017400000000000023288600000000000000009999123100000010000000000000BRBRSRACNOR3188
012024091202BRSR6       010BANRISUL    PNB     N1   R$  000000000127200000000012720000000001245000000000125200000000012490000000001248000000000124902497000000000000783700000000000981804000000000000000009999123100000010000000000000BRBRSRACNPB4191
012024091202BSLI3       010BRB BANCO   ON           R$  000000000095900000000010020000000000959000000000096100000000010020000000000958000000000099500003000000000000001800000000000001730500000000000000009999123100000010000000000000BRBSLIACNOR5194
012024091202BSLI4       010BRB BANCO   PN           R$  000000000094900000000009490000000000949000000000094900000000009490000000000933000000000094900001000000000000000100000000000000094900000000000000009999123100000010000000000000BRBSLIACNPR2194
012024091202RSUL4       010RIOSULENSE  PN           R$  000000000658600000000065860000000006452000000000653100000000064520000000006451000000000658700004000000000000000400000000000002612400000000000000009999123100000010000000000000BRRSULACNPR3114
012024091202LEVE3       010METAL LEVE  ON      NM   R$  000000000309700000000031040000000003048000000000307000000000030710000000003071000000000307402137000000000000371600000000001141140400000000000000009999123100000010000000000000BRLEVEACNOR2197
012024091202LJQQ3       010QUERO-QUERO ON      NM   R$  000000000041400000000004140000000000400000000000040300000000004020000000000401000000000040203027000000000002515600000000001015170700000000000000009999123100000010000000000000BRLJQQACNOR5104
012024091202LOGG3       010LOG COM PROPON      NM   R$  000000000227200000000023060000000002263000000000229500000000023060000000002289000000000230602171000000000000401500000000000921656900000000000000009999123100000010000000000000BRLOGGACNOR7107
012024091202LOGN3       010LOG-IN      ON      NM   R$  000000000354500000000035950000000003544000000000356600000000035720000000003562000000000359000030000000000000004600000000000016406200000000000000009999123100000010000000000000BRLOGNACNOR3105
012024091202LPSB3       010LOPES BRASILON      NM   R$  000000000021200000000002280000000000206000000000021800000000002150000000000212000000000021500770000000000000822400000000000179618900000000000000009999123100000010000000000000BRLPSBACNOR0114
012024091202LREN3       010LOJAS RENNERON      NM   R$  000000000180600000000018440000000001796000000000182600000000018380000000001837000000000183938916000000000018641900000000034053974400000000000000009999123100000010000000000000BRLRENACNOR1221
012024091202AERI3       010AERIS       ON      NM   R$  000000000085600000000008800000000000840000000000085500000000008400000000000840000000000084700605000000000000152700000000000130611300000000000000009999123100000010000000000000BRAERIACNOR4102
012024091202AESB3       010AES BRASIL  ON      NM   R$  000000000115600000000011600000000001156000000000115800000000011590000000001159000000000116002691000000000002946400000000003413024500000000000000009999123100000010000000000000BRAESBACNOR7107
012024091202AGRO3       010BRASILAGRO  ON      NM   R$  000000000263000000000026570000000002617000000000264300000000026450000000002645000000000265401255000000000000190700000000000504091000000000000000009999123100000010000000000000BRAGROACNOR7114
012024091202AGXY3       010AGROGALAXY  ON      NM   R$  000000000011200000000001150000000000110000000000011100000000001110000000000110000000000011100259000000000000201900000000000022478400000000000000009999123100000010000000000000BRAGXYACNOR4103
012024091202AHEB5       010SPTURIS     PNA          R$  000000000400000000000040000000000004000000000000400000000000040000000000004000000000000410000001000000000000000200000000000000800000000000000000009999123100000010000000000000BRAHEBACNPA3106
012024091202BAHI3       010BAHEMA      ON      MA   R$  000000000066900000000006690000000000661000000000066200000000006610000000000662000000000070000002000000000000000500000000000000331300000000000000009999123100000010000000000000BRBAHIACNOR1074
012024091202BAUH4       010EXCELSIOR   PN           R$  000000000798700000000079870000000007987000000000798700000000079870000000000000000000000798800001000000000000000200000000000001597400000000000000009999123100000010000000000000BRBAUHACNPR3118
012024091202BAZA3       010AMAZONIA    ON           R$  000000000960300000000096030000000009401000000000949600000000094010000000009400000000000966000009000000000000001000000000000009496300000000000000009999123100000010000000000000BRBAZAACNOR0179
012024091202BBAS3       010BRASIL      ON  EJ  NM   R$  000000000284000000000028450000000002802000000000281900000000028230000000002822000000000282425707000000000009920100000000027973456800000000000000009999123100000010000000000000BRBBASACNOR3326
012024091202BEES3       010BANESTES    ON  EJ       R$  000000000089700000000008990000000000891000000000089400000000008910000000000891000000000089500104000000000000018300000000000016369000000000000000009999123100000010000000000000BRBEESACNOR9395
012024091202BEES4       010BANESTES    PN  EJ       R$  000000000094800000000009780000000000946000000000095000000000009550000000000946000000000095500031000000000000007300000000000006938600000000000000009999123100000010000000000000BRBEESACNPR6320
012024091202BGIP4       010BANESE      PN  ES       R$  000000000264900000000026500000000002510000000000256800000000025100000000002300000000000259900019000000000000002300000000000005908300000000000000009999123100000010000000000000BRBGIPACNPR8210
012024091202BHIA3       010CASAS BAHIA ON      NM   R$  000000000059500000000006130000000000588000000000059700000000005930000000000592000000000059302913000000000002388700000000001426940200000000000000009999123100000010000000000000BRBHIAACNOR1102
012024091202BPAN4       010BANCO PAN   PN      N1   R$  000000000104500000000010500000000001007000000000103000000000010330000000001033000000000103704505000000000001799900000000001854037200000000000000009999123100000010000000000000BRBPANACNPR1115
012024091202BRAP3       010BRADESPAR   ON      N1   R$  000000000179000000000017900000000001769000000000177500000000017750000000001771000000000177600655000000000000090000000000000159759500000000000000009999123100000010000000000000BRBRAPACNOR5148
012024091202BRAP4       010BRADESPAR   PN      N1   R$  000000000188500000000018970000000001872000000000188300000000018720000000001872000000000187407395000000000002750900000000005182666200000000000000009999123100000010000000000000BRBRAPACNPR2148
012024091202ALLD3       010ALLIED      ON      NM   R$  000000000075800000000007680000000000754000000000075800000000007640000000000761000000000076400254000000000000051100000000000038741100000000000000009999123100000010000000000000BRALLDACNOR3106
012024091202ALOS3       010ALLOS       ON      NM   R$  000000000228600000000022870000000002263000000000227400000000022790000000002278000000000227912815000000000003696500000000008405856500000000000000009999123100000010000000000000BRALOSACNOR5101
012024091202BMOB3       010BEMOBI TECH ON      NM   R$  000000000151600000000015160000000001480000000000149200000000014940000000001490000000000149401074000000000000160600000000000239657800000000000000009999123100000010000000000000BRBMOBACNOR7103
012024091202BOBR4       010BOMBRIL     PN           R$  000000000022700000000002310000000000222000000000022800000000002250000000000223000000000022500093000000000000022800000000000005200500000000000000009999123100000010000000000000BRBOBRACNPR3128
012024091202BRBI11      010BR PARTNERS UNT     N2   R$  000000000155500000000015670000000001520000000000154700000000015580000000001551000000000155801232000000000000311300000000000481812200000000000000009999123100000010000000000000BRBRBICDAM10110
012024091202BRFS3       010BRF SA      ON      NM   R$  000000000239800000000024490000000002373000000000242200000000024340000000002431000000000243512481000000000004514400000000010934086300000000000000009999123100000010000000000000BRBRFSACNOR8122
012024091202NTCO3       010GRUPO NATURAON      NM   R$  000000000138800000000014530000000001385000000000142400000000014470000000001445000000000144811829000000000006855300000000009762522000000000000000009999123100000010000000000000BRNTCOACNOR5106
012024091202RANI3       010IRANI       ON      NM   R$  000000000076600000000007680000000000757000000000075900000000007580000000000758000000000076203023000000000000744100000000000565256900000000000000009999123100000010000000000000BRRANIACNOR5073
012024091202RAPT3       010RANDON PART ON      N1   R$  000000000088200000000008820000000000865000000000087500000000008650000000000864000000000087200883000000000000174200000000000152476300000000000000009999123100000010000000000000BRRAPTACNOR7163
012024091202RAPT4       010RANDON PART PN      N1   R$  000000000108800000000010900000000001077000000000108300000000010860000000001085000000000108603309000000000001826100000000001978695000000000000000009999123100000010000000000000BRRAPTACNPR4163
012024091202SYNE3       010SYN PROP TECON      NM   R$  000000000078500000000007850000000000765000000000077500000000007650000000000765000000000077301595000000000000553500000000000429160800000000000000009999123100000010000000000000BRSYNEACNOR2103
012024091202TAEE11      010TAESA       UNT     N2   R$  000000000353000000000035300000000003500000000000351000000000035000000000003500000000000351004753000000000001041900000000003657574200000000000000009999123100000010000000000000BRTAEECDAM10148
012024091202TAEE3       010TAESA       ON      N2   R$  000000000116600000000011680000000001156000000000116300000000011630000000001163000000000117000396000000000000073000000000000084946300000000000000009999123100000010000000000000BRTAEEACNOR9148
012024091202TAEE4       010TAESA       PN      N2   R$  000000000118100000000011820000000001174000000000117600000000011750000000001175000000000117700678000000000000128800000000000151568100000000000000009999123100000010000000000000BRTAEEACNPR6148
012024091202VSTE3       010VESTE       ON      NM   R$  000000000128000000000012800000000001272000000000127700000000012720000000001269000000000130700004000000000000000600000000000000766300000000000000009999123100000010000000000000BRVSTEACNOR5103
012024091202VTRU3       010VITRUEDUCA  ON      NM   R$  000000000099000000000010010000000000972000000000098300000000009720000000000972000000000097800473000000000000120400000000000118466000000000000000009999123100000010000000000000BRVTRUACNOR3100
012024091207NUTR3       010NUTRIPLANT  ON      MA   R$  000000000046300000000004770000000000463000000000046900000000004770000000000466000000000047700015000000000000001500000000000000704200000000000000009999123100000010000000000000BRNUTRACNOR0104
012024091208PMAM3       010PARANAPANEMAON      NM   R$  000000000017200000000001750000000000170000000000017200000000001750000000000174000000000017500053000000000000023000000000000003965300000000000000009999123100000010000000000000BRPMAMACNOR3039
012024091208RNEW11      010RENOVA      UNT     N2   R$  000000000030400000000003100000000000303000000000030600000000003030000000000296000000000030400009000000000000000900000000000000275500000000000000009999123100000010000000000000BRRNEWCDAM15110
012024091208RNEW3       010RENOVA      ON      N2   R$  000000000010300000000001040000000000099000000000010000000000000990000000000099000000000010000065000000000000043300000000000004366800000000000000009999123100000010000000000000BRRNEWACNOR8110
012024091208RNEW4       010RENOVA      PN      N2   R$  000000000010100000000001040000000000099000000000010100000000000990000000000099000000000010100088000000000000095800000000000009677100000000000000009999123100000010000000000000BRRNEWACNPR5110
012024091208AMER3       010AMERICANAS  ON      NM   R$  000000000066200000000006740000000000656000000000066200000000006640000000000661000000000066402382000000000002412200000000001598336800000000000000009999123100000010000000000000BRAMERACNOR6103
012024091208NEXP3       010NEXPE       ON           R$  000000000041000000000004100000000000405000000000040600000000004050000000000405000000000041000002000000000000000300000000000000122000000000000000009999123100000010000000000000BRNEXPACNOR0101
012024091208CTSA3       010SANTANENSE  ON           R$  000000000026500000000002650000000000265000000000026500000000002650000000000263000000000027700001000000000000000100000000000000026500000000000000009999123100000010000000000000BRCTSAACNOR3062
012024091208CTSA4       010SANTANENSE  PN           R$  000000000011800000000001190000000000115000000000011700000000001180000000000116000000000011900071000000000000015700000000000001840000000000000000009999123100000010000000000000BRCTSAACNPR0062
012024091208HOOT4       010HOTEIS OTHONPN           R$  000000000022600000000002260000000000225000000000022500000000002250000000000222000000000022900017000000000000002800000000000000631800000000000000009999123100000010000000000000BRHOOTACNPR9015
012024091208JFEN3       010JOAO FORTES ON           R$  000000000002300000000000240000000000021000000000002200000000000230000000000023000000000002400187000000000001259200000000000028497800000000000000009999123100000010000000000000BRJFENACNOR0059
012024091208TEKA4       010TEKA        PN           R$  000000000289900000000028990000000002899000000000289900000000028990000000002865000000000300000001000000000000000100000000000000289900000000000000009999123100000010000000000000BRTEKAACNPR3140
012024091208OIBR3       010OI          ON      N1   R$  000000000049500000000004980000000000486000000000049100000000004900000000000490000000000049300746000000000000364400000000000179154200000000000000009999123100000010000000000000BROIBRACNOR1112
012024091208OIBR4       010OI          PN      N1   R$  000000000113100000000011800000000001090000000000111600000000011250000000001106000000000118000058000000000000010900000000000012174900000000000000009999123100000010000000000000BROIBRACNPR8111
012024091208OSXB3       010OSX BRASIL  ON      NM   R$  000000000039300000000004160000000000390000000000040400000000004040000000000402000000000041500034000000000000006600000000000002667500000000000000009999123100000010000000000000BROSXBACNOR8109
012024091208ATMP3       010ATMASA      ON           R$  000000000013400000000001370000000000134000000000013400000000001370000000000133000000000013700008000000000000008400000000000001128100000000000000009999123100000010000000000000BRATMPACNOR8100
012024091208RPMG3       010PET MANGUINHON           R$  000000000029500000000002990000000000286000000000028800000000002890000000000286000000000028900074000000000000075900000000000021881300000000000000009999123100000010000000000000BRRPMGACNOR9194
012024091208RSID3       010ROSSI RESID ON      NM   R$  000000000039100000000004140000000000387000000000039400000000004080000000000388000000000040900124000000000000017400000000000006857800000000000000009999123100000010000000000000BRRSIDACNOR8120
012024091208LIGT3       010LIGHT S/A   ON      NM   R$  000000000079500000000008090000000000776000000000079000000000007830000000000782000000000079002868000000000000810400000000000640841100000000000000009999123100000010000000000000BRLIGTACNOR2124
012024091210EQTL1       010EQUATORIAL  DIR ORD NM   R$  000000000018300000000001830000000000135000000000014800000000001600000000000151000000000016001926000000000000941700000000000139737400000000000000009999123100000010000000000000BREQTLD04OR9130
012024091210RENT9       010LOCALIZA    ON  REC NM   R$  000000000423800000000042630000000004238000000000425000000000042630000000000000000000000426200002000000000000000200000000000000850100000000000000009999123100000010000000000000BRRENTR06OR8195
012024091210OIBR1       010OI          DIR ORD N1   R$  000000000000500000000000060000000000004000000000000400000000000050000000000005000000000000601260000000000004165800000000000020089800000000000000009999123100000010000000000000BROIBRD05OR7111
012024091210AESB1       010AES BRASIL  DIR ORD NM   R$  000000000004600000000000500000000000042000000000004500000000000450000000000045000000000005000071000000000000014600000000000000668500000000000000009999123100000010000000000000BRAESBD03OR8106
012024091212SJAU11      010FII SJ AU   CI           R$  000000000564600000000058840000000005645000000000569000000000058800000000005645000000000588000004000000000000000021000000000000119507000000000000009999123100000010000000000000BRSJAUCTF009102
012024091212SCPF11      010FII SCP     CI           R$  000000000025900000000002590000000000258000000000025800000000002590000000000258000000000025900053000000000000003438000000000000887177000000000000009999123100000010000000000000BRSCPFCTF003302
012024091212SEQR11      010FII SEQUOIA CI  ER       R$  000000000512400000000051240000000005040000000000507500000000050400000000005040000000000510001104000000000000003535000000000017940480000000000000009999123100000010000000000000BRSEQRCTF002146
012024091212SHOP11      010FII MULTSHOPCI           R$  000000000679900000000067990000000006799000000000679900000000067990000000000000000000000679900001000000000000000001000000000000006799000000000000009999123100000010000000000000BRSHOPCTF004102
012024091212SHPH11      010FII HIGIENOPCI           R$  000000008750000000000885500000000087201000000008732000000000872010000000087202000000008926800009000000000000000067000000000005850454000000000000009999123100000010000000000000BRSHPHCTF008353
012024091212JSRE11      010FII JS REAL CI           R$  000000000629300000000063380000000006293000000000631200000000063150000000006314000000000631503803000000000000021851000000000137944318000000000000009999123100000010000000000000BRJSRECTF007265
012024091212KCRE11      010FII KINEA CRCI           R$  000000000094600000000009500000000000930000000000094000000000009320000000000934000000000093900870000000000000056054000000000052704649000000000000009999123100000010000000000000BRKCRECTF009128
012024091212KEVE11      010FII EVEN II CI           R$  000000011190000000001119000000000111900000000011190000000001119000000000105100000000011189000001000000000000000001000000000000111900000000000000009999123100000010000000000000BRKEVECTF007117
012024091212KFOF11      010FII KINEAFOFCI           R$  000000000838800000000084160000000008320000000000835500000000083520000000008335000000000835200859000000000000016648000000000139106543000000000000009999123100000010000000000000BRKFOFCTF006172
012024091212KISU11      010FII KILIMA  CI           R$  000000000080000000000008070000000000799000000000080200000000008010000000000801000000000080401606000000000000066472000000000053375269000000000000009999123100000010000000000000BRKISUCTF000147
012024091212KIVO11      010FII KIVO    CI           R$  000000000798000000000079800000000007821000000000789900000000079000000000007900000000000792202000000000000000005908000000000046667862000000000000009999123100000010000000000000BRKIVOCTF007130
012024091212SAPI11      010FII SAPI    CI           R$  000000000917500000000091810000000009126000000000917400000000091800000000009129000000000918000299000000000000001865000000000017109669000000000000009999123100000010000000000000BRSAPICTF001111
012024091212SARE11      010FII SANT RENCI           R$  000000000394200000000039650000000003940000000000394800000000039400000000003940000000000395000703000000000000011742000000000046360689000000000000009999123100000010000000000000BRSARECTF006159
012024091212PORD11      010FII POLO CRICI           R$  000000000087700000000008770000000000872000000000087500000000008770000000000876000000000087700884000000000000066179000000000057933885000000000000009999123100000010000000000000BRPORDCTF005177
012024091212PQAG11      010FII PARQ ANHCI           R$  000000000594300000000059430000000005943000000000594300000000059430000000005900000000000594000001000000000000000001000000000000005943000000000000009999123100000010000000000000BRPQAGCTF009151
012024091212CJCT11      010FII CJCTOWERCI           R$  000000000600100000000060500000000006000000000000601700000000060500000000006050000000000615000045000000000000000129000000000000776280000000000000009999123100000010000000000000BRCJCTCTF001118
012024091212CLIN11      010FII CLAVE INCI  ER       R$  000000000948100000000095680000000009481000000000951600000000095070000000009506000000000950701765000000000000006983000000000066456613000000000000009999123100000010000000000000BRCLINCTF007111
012024091212CXAG11      010FII CAIXA AGCI           R$  000000000760600000000076770000000007573000000000761200000000075990000000007598000000000759900202000000000000002432000000000018513901000000000000009999123100000010000000000000BRCXAGCTF003131
012024091212CXCE11      010FII CX CEDAECI           R$  000000000401700000000040380000000004017000000000402800000000040200000000004026000000000403800012000000000000000217000000000000874216000000000000009999123100000010000000000000BRCXCECTF004272
012024091212CXCI11      010FII CAIXA CICI  ER       R$  000000000819800000000081980000000008101000000000817900000000081950000000008106000000000819500043000000000000001332000000000010894570000000000000009999123100000010000000000000BRCXCICTF005130
012024091212CXCO11      010FII CEF CORPCI           R$  000000000709500000000070950000000007000000000000703600000000070650000000007030000000000707400118000000000000001382000000000009725031000000000000009999123100000010000000000000BRCXCOCTF003141
012024091212CXRI11      010FII CX RBRAVCI  ER       R$  000000000779500000000079220000000007600000000000769400000000076000000000007600000000000781400063000000000000006145000000000047282219000000000000009999123100000010000000000000BRCXRICTF003231
012024091212ZAVC11      010FII ZAVIT C CI           R$  000000000104900000000010490000000001049000000000104900000000010490000000000990000000000104900001000000000000000002000000000000002098000000000000009999123100000010000000000000BRZAVCCTF007105
012024091212ZAVI11      010FII ZAVIT R CI           R$  000000001075900000000107590000000010629000000001067600000000106600000000010650000000001067000060000000000000000180000000000001921687000000000000009999123100000010000000000000BRZAVICTF004124
012024091212ZIFI11      010FII ZION    CI           R$  000000006600000000000677000000000065999000000006642400000000677000000000060000000000006820000004000000000000000004000000000000265699000000000000009999123100000010000000000000BRZIFICTF000103
012024091212NVHO11      010FII NOVOHORICI           R$  000000000125600000000013810000000001256000000000137300000000013810000000001310000000000138100009000000000000001441000000000001978668000000000000009999123100000010000000000000BRNVHOCTF003231
012024091212OCRE11      010FII OCTO    CI           R$  000000001000000000000100000000000009900000000000999700000000099000000000009900000000001009000004000000000000000115000000000001149700000000000000009999123100000010000000000000BROCRECTF001117
012024091212XPCI11      010FII XP CRED CI           R$  000000000873900000000087510000000008697000000000873000000000087340000000008734000000000874801936000000000000014676000000000128128479000000000000009999123100000010000000000000BRXPCICTF007160
012024091212XPCM11      010FII XP MACAECI           R$  000000000074000000000007480000000000740000000000074100000000007410000000000740000000000074100077000000000000001059000000000000785578000000000000009999123100000010000000000000BRXPCMCTF009230
012024091212XPIN11      010FII XP INDL CI           R$  000000000769900000000076990000000007678000000000768700000000076800000000007680000000000768400343000000000000002205000000000016951553000000000000009999123100000010000000000000BRXPINCTF004176
012024091212XPLG11      010FII XP LOG  CI           R$  000000001020300000000102150000000010149000000001018000000000101840000000010183000000001018404440000000000000029036000000000295606739000000000000009999123100000010000000000000BRXPLGCTF002181
012024091212XPML11      010FII XP MALLSCI           R$  000000001123100000000112500000000011196000000001121300000000112110000000011210000000001121110976000000000000094139000000001055660474000000000000009999123100000010000000000000BRXPMLCTF000187
012024091212XPPR11      010FII XP PROP CI           R$  000000000180100000000018060000000001781000000000178800000000017810000000001781000000000179300337000000000000004135000000000007393981000000000000009999123100000010000000000000BRXPPRCTF000158
012024091212XPSF11      010FII XP SELECCI           R$  000000000073800000000007430000000000732000000000073800000000007400000000000740000000000074102304000000000000072720000000000053690399000000000000009999123100000010000000000000BRXPSFCTF009159
012024091212NSLU11      010FII LOURDES CI           R$  000000001781900000000179000000000017780000000001785500000000179000000000017812000000001790000083000000000000000608000000000010856349000000000000009999123100000010000000000000BRNSLUCTF008314
012024091212SADI11      010FII SANT PAPCI           R$  000000000892600000000090260000000008925000000000895200000000089990000000008951000000000898700150000000000000001812000000000016221704000000000000009999123100000010000000000000BRSADICTF007162
012024091212TVRI11      010FII TIVIO RICI           R$  000000001011500000000101150000000009855000000000998900000000099730000000009973000000000999003893000000000000030005000000000299720120000000000000009999123100000010000000000000BRTVRICTF001111
012024091212URPR11      010FII URCA RENCI           R$  000000000808000000000081190000000008080000000000808600000000080820000000008082000000000808501020000000000000011955000000000096668977000000000000009999123100000010000000000000BRURPRCTF002161
012024091212DPRO11      010FII DEVA PROCI  ER       R$  000000000064700000000006470000000000643000000000064300000000006430000000000643000000000067900008000000000000001426000000000000916924000000000000009999123100000010000000000000BRDPROCTF005127
012024091212DRIT11      010FII MTGESTAOCI  ER       R$  000000001000000000000100000000000010000000000001000000000000100000000000008501000000001000000002000000000000000014000000000000140000000000000000009999123100000010000000000000BRDRITCTF009256
012024091212DVFF11      010FII DEVA FOFCI  ER       R$  000000000074100000000007410000000000730000000000073400000000007370000000000732000000000073700714000000000000002469000000000001812985000000000000009999123100000010000000000000BRDVFFCTF006141
012024091212CBOP11      010FII CBOP PAXCI           R$  000000000271500000000027400000000002715000000000272100000000027400000000002716000000000277400007000000000000000070000000000000190471000000000000009999123100000010000000000000BRCBOPCTF001233
012024091212CCME11      010FII CANUMA  CI  ER       R$  000000000096800000000009710000000000954000000000096000000000009660000000000958000000000096607718000000000000086167000000000082755394000000000000009999123100000010000000000000BRCCMECTF007126
012024091212CEOC11      010FII CEO CCP CI  ER       R$  000000000445000000000044720000000004342000000000442300000000043970000000004380000000000439700049000000000000001193000000000005277081000000000000009999123100000010000000000000BRCEOCCTF003218
012024091212CPFF11      010FII CAP REITCI           R$  000000000701800000000070180000000006986000000000699200000000070000000000007000000000000700900112000000000000005439000000000038034108000000000000009999123100000010000000000000BRCPFFCTF000159
