00COTAHIST.2024BOVESPA 20240913                                                                                                                                                                                                                      
012024091302PDGR3       010PDG REALT   ON      NM   R$  000000000001600000000000160000000000015000000000001500000000000160000000000015000000000001600217000000000000592400000000000009162000000000000000009999123100000010000000000000BRPDGRACNOR8119
012024091302PDTC3       010PADTEC      ON      NM   R$  000000000018600000000001900000000000186000000000018700000000001880000000000186000000000018800041000000000000018600000000000003494700000000000000009999123100000010000000000000BRPDTCACNOR3101
012024091302PEAB4       010PAR AL BAHIAPN           R$  000000000499900000000050000000000004999000000000499900000000050000000000000000000000000499900002000000000000000300000000000001499800000000000000009999123100000010000000000000BRPEABACNPR0133
012024091302RCSL4       010RECRUSUL    PN           R$  000000000010500000000001060000000000100000000000010200000000001010000000000100000000000010100194000000000000369800000000000037818700000000000000009999123100000010000000000000BRRCSLACNPR1134
012024091302RDNI3       010RNI         ON      NM   R$  000000000031600000000003190000000000311000000000031400000000003120000000000312000000000031500014000000000000001800000000000000566200000000000000009999123100000010000000000000BRRDNIACNOR9116
012024091302RDOR3       010REDE D OR   ON      NM   R$  000000000338000000000035100000000003380000000000345700000000034760000000003472000000000347629341000000000010815700000000037392728400000000000000009999123100000010000000000000BRRDORACNOR8113
012024091302RECV3       010PETRORECSA  ON      NM   R$  000000000187300000000019120000000001872000000000189900000000019040000000001903000000000190406049000000000002263100000000004299813900000000000000009999123100000010000000000000BRRECVACNOR3107
012024091302REDE3       010REDE ENERGIAON           R$  000000000069000000000006920000000000690000000000069000000000006920000000000692000000000069500002000000000000000300000000000000207200000000000000009999123100000010000000000000BRREDEACNOR7128
012024091302RENT3       010LOCALIZA    ON      NM   R$  000000000425300000000044200000000004223000000000437900000000044200000000004411000000000442030311000000000010511500000000046039249300000000000000009999123100000010000000000000BRRENTACNOR4196
012024091302VALE3       010VALE        ON      NM   R$  000000000581000000000059000000000005803000000000586400000000058500000000005850000000000585228998000000000015045100000000088233334800000000000000009999123100000010000000000000BRVALEACNOR0211
012024091302WEST3       010WESTWING    ON      NM   R$  000000000008500000000000880000000000085000000000008700000000000870000000000086000000000008700028000000000000035600000000000003100600000000000000009999123100000010000000000000BRWESTACNOR3100
012024091302WHRL3       010WHIRLPOOL   ON           R$  000000000047800000000005150000000000471000000000048700000000004830000000000483000000000049300182000000000000081300000000000039601500000000000000009999123100000010000000000000BRWHRLACNOR5128
012024091302WHRL4       010WHIRLPOOL   PN           R$  000000000050000000000005090000000000495000000000050300000000005080000000000507000000000050800145000000000000078100000000000039335800000000000000009999123100000010000000000000BRWHRLACNPR2128
012024091302WIZC3       010WIZ CO      ON      NM   R$  000000000059600000000006100000000000596000000000060500000000006100000000000610000000000061100809000000000000259900000000000157420500000000000000009999123100000010000000000000BRWIZCACNOR5102
012024091302WLMM4       010WLM IND COM PN           R$  000000000310000000000031350000000003100000000000312600000000031350000000003022000000000313500004000000000000000400000000000001250500000000000000009999123100000010000000000000BRWLMMACNPR3119
012024091302NGRD3       010NEOGRID     ON      NM   R$  000000000011700000000001210000000000115000000000011800000000001160000000000115000000000011600815000000000000517300000000000061458200000000000000009999123100000010000000000000BRNGRDACNOR3104
012024091302NINJ3       010GETNINJAS   ON      NM   R$  000000000047400000000004740000000000474000000000047400000000004740000000000467000000000047500001000000000000000200000000000000094800000000000000009999123100000010000000000000BRNINJACNOR5101
012024091302NTCO3       010GRUPO NATURAON      NM   R$  000000000145500000000014890000000001425000000000145500000000014250000000001425000000000143013337000000000007334800000000010676930700000000000000009999123100000010000000000000BRNTCOACNOR5106
012024091302RAIL3       010RUMO S.A.   ON      NM   R$  000000000212500000000021420000000002101000000000212100000000021160000000002114000000000211917450000000000015107800000000032051945900000000000000009999123100000010000000000000BRRAILACNOR9105
012024091302TTEN3       0103TENTOS     ON      NM   R$  000000000123700000000012680000000001230000000000124300000000012420000000001241000000000124504719000000000001162200000000001445106200000000000000009999123100000010000000000000BRTTENACNOR0103
012024091302TUPY3       010TUPY        ON      NM   R$  000000000268400000000027460000000002684000000000272600000000027240000000002723000000000273801742000000000000283700000000000773542600000000000000009999123100000010000000000000BRTUPYACNOR1184
012024091302UCAS3       010UNICASA     ON      NM   R$  000000000022200000000002250000000000222000000000022300000000002250000000000222000000000022600069000000000000015500000000000003468300000000000000009999123100000010000000000000BRUCASACNOR1113
012024091302UGPA3       010ULTRAPAR    ON      NM   R$  000000000231300000000023170000000002280000000000229800000000022800000000002279000000000228019607000000000004895100000000011253251800000000000000009999123100000010000000000000BRUGPAACNOR8156
012024091302FIQE3       010UNIFIQUE    ON      NM   R$  000000000039000000000004000000000000389000000000039400000000004000000000000399000000000040001255000000000001028200000000000405401000000000000000009999123100000010000000000000BRFIQEACNOR5107
012024091302FLRY3       010FLEURY      ON      NM   R$  000000000167200000000016790000000001654000000000166600000000016670000000001666000000000166705536000000000001480000000000002465820300000000000000009999123100000010000000000000BRFLRYACNOR5139
012024091302FRAS3       010FRAS-LE     ON      N1   R$  000000000200000000000020530000000002000000000000202300000000020410000000002039000000000204602532000000000001408200000000002848811400000000000000009999123100000010000000000000BRFRASACNOR0160
012024091302FRIO3       010METALFRIO   ON      NM   R$  000000001096500000000109650000000010965000000001096500000000109650000000009000000000001099900001000000000000000100000000000001096500000000000000009999123100000010000000000000BRFRIOACNOR2111
012024091302GEPA3       010GER PARANAP ON           R$  000000000279900000000029000000000002799000000000284900000000029000000000002725000000000289900002000000000000000200000000000000569900000000000000009999123100000010000000000000BRGEPAACNOR2153
012024091302GEPA4       010GER PARANAP PN           R$  000000000285000000000028500000000002849000000000284900000000028490000000002825000000000285000003000000000000000300000000000000854800000000000000009999123100000010000000000000BRGEPAACNPR9160
012024091302GFSA3       010GAFISA      ON      NM   R$  000000000024300000000002630000000000243000000000025500000000002580000000000258000000000025903029000000000004816200000000001228899500000000000000009999123100000010000000000000BRGFSAACNOR3125
012024091302GGBR3       010GERDAU      ON      N1   R$  000000000166200000000016840000000001662000000000167500000000016680000000001664000000000168400196000000000000033500000000000056124100000000000000009999123100000010000000000000BRGGBRACNOR1193
012024091302GGBR4       010GERDAU      PN      N1   R$  000000000187000000000018950000000001861000000000187800000000018800000000001879000000000188418583000000000011000600000000020666962100000000000000009999123100000010000000000000BRGGBRACNPR8193
012024091302ITSA3       010ITAUSA      ON      N1   R$  000000000112500000000011280000000001111000000000112000000000011170000000001117000000000112000435000000000000106800000000000119703900000000000000009999123100000010000000000000BRITSAACNOR0442
012024091302ITSA4       010ITAUSA      PN      N1   R$  000000000112300000000011310000000001111000000000111900000000011200000000001120000000000112121508000000000026409900000000029564023400000000000000009999123100000010000000000000BRITSAACNPR7442
012024091302B3SA3       010B3          ON      NM   R$  000000000121500000000012380000000001209000000000122400000000012130000000001213000000000121532103000000000064866300000000079422286600000000000000009999123100000010000000000000BRB3SAACNOR6133
012024091302BEEF3       010MINERVA     ON      NM   R$  000000000070100000000007080000000000680000000000069000000000006910000000000689000000000069209726000000000008101700000000005594592400000000000000009999123100000010000000000000BRBEEFACNOR6116
012024091302CEBR3       010CEB         ON           R$  000000000190000000000019130000000001852000000000188100000000018600000000001857000000000186000047000000000000011200000000000021075100000000000000009999123100000010000000000000BRCEBRACNOR5125
012024091302CEBR5       010CEB         PNA          R$  000000000164100000000016700000000001630000000000164100000000016700000000001635000000000167000011000000000000001200000000000001970000000000000000009999123100000010000000000000BRCEBRACNPA8124
012024091302CEBR6       010CEB         PNB          R$  000000000178500000000018010000000001785000000000180000000000018000000000001800000000000180100017000000000000005000000000000009002900000000000000009999123100000010000000000000BRCEBRACNPB6124
012024091302CGAS5       010COMGAS      PNA          R$  000000001270000000000127000000000012600000000001265800000000126000000000012601000000001274900005000000000000000600000000000007594900000000000000009999123100000010000000000000BRCGASACNPA3161
012024091302MYPK3       010IOCHP-MAXIONON      NM   R$  000000000112400000000011510000000001124000000000114200000000011470000000001147000000000115204147000000000000683600000000000780855800000000000000009999123100000010000000000000BRMYPKACNOR7155
012024091302PTBL3       010PORTOBELLO  ON      NM   R$  000000000048900000000005100000000000489000000000050300000000005080000000000506000000000050800853000000000000341900000000000172234100000000000000009999123100000010000000000000BRPTBLACNOR8132
012024091302PTNT3       010PETTENATI   ON           R$  000000000094500000000009450000000000945000000000094500000000009450000000000913000000000094600001000000000000000100000000000000094500000000000000009999123100000010000000000000BRPTNTACNOR6042
012024091302PTNT4       010PETTENATI   PN           R$  000000000073500000000007350000000000725000000000072800000000007350000000000731000000000073400013000000000000004100000000000002988200000000000000009999123100000010000000000000BRPTNTACNPR3047
012024091302QUAL3       010QUALICORP   ON      NM   R$  000000000021200000000002220000000000209000000000021700000000002150000000000215000000000021702582000000000003563300000000000775711700000000000000009999123100000010000000000000BRQUALACNOR6120
012024091302YDUQ3       010YDUQS PART  ON      NM   R$  000000000105100000000011100000000001045000000000109100000000010910000000001090000000000109210740000000000005746700000000006273192300000000000000009999123100000010000000000000BRYDUQACNOR3105
012024091302LUPA3       010LUPATECH    ON      NM   R$  000000000014500000000001470000000000143000000000014500000000001450000000000144000000000014500167000000000000109000000000000015813800000000000000009999123100000010000000000000BRLUPAACNOR8112
012024091302LVTC3       010WDC NETWORKSON      NM   R$  000000000038900000000004080000000000388000000000040100000000004070000000000397000000000040700064000000000000035200000000000014134000000000000000009999123100000010000000000000BRLVTCACNOR4102
012024091302LWSA3       010LWSA        ON      NM   R$  000000000044200000000004620000000000442000000000045500000000004540000000000453000000000045505223000000000003712300000000001691303400000000000000009999123100000010000000000000BRLWSAACNOR8103
012024091302ODPV3       010ODONTOPREV  ON      NM   R$  000000000117600000000011910000000001166000000000117500000000011800000000001172000000000118002171000000000000512900000000000603158100000000000000009999123100000010000000000000BRODPVACNOR4203
012024091302OFSA3       010OUROFINO S/AON      NM   R$  000000000217800000000021810000000002178000000000218000000000021800000000002180000000000222000010000000000000002200000000000004796000000000000000009999123100000010000000000000BROFSAACNOR7118
012024091302ONCO3       010ONCOCLINICASON      NM   R$  000000000062000000000006680000000000613000000000063500000000006200000000000620000000000062406863000000000006361600000000004042664200000000000000009999123100000010000000000000BRONCOACNOR6101
012024091302OPCT3       010OCEANPACT   ON      NM   R$  000000000066200000000007000000000000662000000000069200000000007000000000000692000000000070001723000000000000411400000000000284942700000000000000009999123100000010000000000000BROPCTACNOR0100
012024091302ORVR3       010ORIZON      ON      NM   R$  000000000478600000000049430000000004746000000000486900000000048860000000004868000000000488604342000000000000672100000000003272719900000000000000009999123100000010000000000000BRORVRACNOR0101
012024091302RADL3       010RAIADROGASILON      NM   R$  000000000274400000000027440000000002669000000000269800000000026700000000002670000000000267713496000000000005797700000000015647079400000000000000009999123100000010000000000000BRRADLACNOR0157
012024091302SLCE3       010SLC AGRICOLAON      NM   R$  000000000172900000000017460000000001718000000000172700000000017210000000001721000000000172605062000000000001844300000000003186656400000000000000009999123100000010000000000000BRSLCEACNOR2125
012024091302TFCO4       010TRACK FIELD PN      N2   R$  000000000115000000000011700000000001150000000000116000000000011600000000001153000000000116100623000000000000259800000000000301519400000000000000009999123100000010000000000000BRTFCOACNPR8114
012024091302TGMA3       010TEGMA       ON      NM   R$  000000000278200000000028280000000002782000000000281200000000028250000000002815000000000282500714000000000000098200000000000276165600000000000000009999123100000010000000000000BRTGMAACNOR7145
012024091302TIMS3       010TIM         ON      NM   R$  000000000184000000000018530000000001828000000000184200000000018400000000001840000000000184406723000000000004173700000000007691452800000000000000009999123100000010000000000000BRTIMSACNOR5117
012024091302TOTS3       010TOTVS       ON      NM   R$  000000000296800000000030670000000002952000000000302600000000030180000000003017000000000301914032000000000003535800000000010702631700000000000000009999123100000010000000000000BRTOTSACNOR8145
012024091302TPIS3       010TRIUNFO PARTON      NM   R$  000000000050100000000005440000000000498000000000052800000000005340000000000529000000000053500395000000000000116100000000000061379900000000000000009999123100000010000000000000BRTPISACNOR8118
012024091302TRAD3       010TC          ON      NM   R$  000000000029900000000003850000000000293000000000034300000000003850000000000377000000000038501202000000000000804500000000000276017100000000000000009999123100000010000000000000BRTRADACNOR3102
012024091302TRIS3       010TRISUL      ON      NM   R$  000000000046900000000004870000000000469000000000047900000000004860000000000485000000000048601091000000000000610700000000000292919300000000000000009999123100000010000000000000BRTRISACNOR4118
012024091302TRPL3       010TRAN PAULISTON      N1   R$  000000000317400000000031870000000003169000000000317500000000031710000000003170000000000318300020000000000000003200000000000010161300000000000000009999123100000010000000000000BRTRPLACNOR4185
012024091302TRPL4       010TRAN PAULISTPN      N1   R$  000000000247500000000024940000000002467000000000247500000000024700000000002469000000000247105854000000000001819200000000004504309300000000000000009999123100000010000000000000BRTRPLACNPR1185
012024091302VAMO3       010VAMOS       ON      NM   R$  000000000072200000000007540000000000720000000000073900000000007320000000000732000000000073311830000000000010175400000000007527595900000000000000009999123100000010000000000000BRVAMOACNOR7105
012024091302VBBR3       010VIBRA       ON      NM   R$  000000000255500000000026020000000002525000000000255800000000025280000000002528000000000253821945000000000008391300000000021469436600000000000000009999123100000010000000000000BRVBBRACNOR1108
012024091302JALL3       010JALLESMACHADON      NM   R$  000000000065400000000006740000000000654000000000066700000000006650000000000665000000000066700683000000000000254000000000000169457800000000000000009999123100000010000000000000BRJALLACNOR0106
012024091302JBSS3       010JBS         ON      NM   R$  000000000334500000000033860000000003248000000000330100000000033060000000003305000000000330624439000000000009431200000000031135550600000000000000009999123100000010000000000000BRJBSSACNOR8122
012024091302MRSA3B      010MRS LOGIST  ON      MB   R$  000000000299900000000031000000000002999000000000307900000000031000000000002910000000000329500003000000000000000500000000000001539900000000000000009999123100000010000000000000BRMRSAACNOR6125
012024091302MRVE3       010MRV         ON      NM   R$  000000000079000000000008160000000000782000000000080300000000008030000000000802000000000080515190000000000012759100000000010248369100000000000000009999123100000010000000000000BRMRVEACNOR2127
012024091302PRNR3       010PRINER      ON      NM   R$  000000000130700000000013350000000001307000000000132700000000013300000000001330000000000133201014000000000000172900000000000229478600000000000000009999123100000010000000000000BRPRNRACNOR4109
012024091302PSSA3       010PORTO SEGUROON      NM   R$  000000000348000000000035090000000003474000000000349200000000034910000000003487000000000349109403000000000001883600000000006579290400000000000000009999123100000010000000000000BRPSSAACNOR7155
012024091302SCAR3       010SAO CARLOS  ON      NM   R$  000000000231000000000023200000000002291000000000230600000000023200000000002292000000000232100014000000000000001700000000000003921000000000000000009999123100000010000000000000BRSCARACNOR7131
012024091302BGIP4       010BANESE      PN  ES       R$  000000000256000000000025600000000002510000000000251700000000025110000000002511000000000256500010000000000000001000000000000002517300000000000000009999123100000010000000000000BRBGIPACNPR8210
012024091302BHIA3       010CASAS BAHIA ON      NM   R$  000000000059800000000006250000000000597000000000061400000000006150000000000615000000000061602869000000000002799900000000001720159500000000000000009999123100000010000000000000BRBHIAACNOR1102
012024091302BPAN4       010BANCO PAN   PN      N1   R$  000000000103100000000010640000000001029000000000105500000000010610000000001060000000000106105360000000000001217900000000001285618700000000000000009999123100000010000000000000BRBPANACNPR1115
012024091302BRAP3       010BRADESPAR   ON      N1   R$  000000000177400000000017940000000001767000000000178500000000017890000000001789000000000179500600000000000000080100000000000143045500000000000000009999123100000010000000000000BRBRAPACNOR5148
012024091302BRAP4       010BRADESPAR   PN      N1   R$  000000000188200000000019060000000001874000000000189300000000018830000000001882000000000189506574000000000002941700000000005570130400000000000000009999123100000010000000000000BRBRAPACNPR2148
012024091302COCE5       010COELCE      PNA          R$  000000000295000000000029690000000002945000000000295200000000029450000000002945000000000296500085000000000000015300000000000045178200000000000000009999123100000010000000000000BRCOCEACNPA3147
012024091302COGN3       010COGNA ON    ON      NM   R$  000000000014000000000001500000000000140000000000014700000000001470000000000146000000000014713748000000000032696500000000004816090900000000000000009999123100000010000000000000BRCOGNACNOR2105
012024091302DASA3       010DASA        ON  ES  NM   R$  000000000030100000000003130000000000301000000000030600000000003010000000000301000000000030301461000000000000697000000000000213855000000000000000009999123100000010000000000000BRDASAACNOR1123
012024091302DESK3       010DESKTOP     ON      NM   R$  000000000153800000000015690000000001537000000000154900000000015550000000001540000000000155600769000000000000148200000000000229649400000000000000009999123100000010000000000000BRDESKACNOR2104
012024091302DEXP3       010DEXXOS PAR  ON      N1   R$  000000000091300000000009490000000000913000000000092300000000009290000000000919000000000093000368000000000000085900000000000079344500000000000000009999123100000010000000000000BRDEXPACNOR1105
012024091302DEXP4       010DEXXOS PAR  PN      N1   R$  000000000092200000000009240000000000919000000000092100000000009200000000000920000000000092700011000000000000002900000000000002671000000000000000009999123100000010000000000000BRDEXPACNPR8105
012024091302DIRR3       010DIRECIONAL  ON      NM   R$  000000000324900000000033580000000003241000000000333000000000033460000000003345000000000334815257000000000002756100000000009179775500000000000000009999123100000010000000000000BRDIRRACNOR0118
012024091302DMVF3       010D1000VFARMA ON      NM   R$  000000000063800000000006540000000000638000000000064600000000006420000000000642000000000064700341000000000000056900000000000036781600000000000000009999123100000010000000000000BRDMVFACNOR9100
012024091302ABCB4       010ABC BRASIL  PN      N2   R$  000000000230400000000023500000000002304000000000233500000000023500000000002335000000000235001904000000000000484900000000001132621800000000000000009999123100000010000000000000BRABCBACNPR4146
012024091302ABEV3       010AMBEV S/A   ON           R$  000000000129500000000013000000000001272000000000128100000000012730000000001273000000000127429033000000000021946500000000028115690200000000000000009999123100000010000000000000BRABEVACNOR1128
012024091302BPAC11      010BTGP BANCO  UNT     N2   R$  000000000340300000000034900000000003395000000000347100000000034900000000003485000000000349016121000000000005986100000000020783631200000000000000009999123100000010000000000000BRBPACUNT006119
012024091302BPAC3       010BTGP BANCO  ON      N2   R$  000000000156500000000016200000000001470000000000159200000000016120000000001543000000000161300036000000000000004700000000000007483600000000000000009999123100000010000000000000BRBPACACNOR7134
012024091302BPAC5       010BTGP BANCO  PNA     N2   R$  000000000091800000000009440000000000917000000000092200000000009240000000000915000000000093000012000000000000002000000000000001845900000000000000009999123100000010000000000000BRBPACACNPA0134
012024091302CMIN3       010CSNMINERACAOON      N2   R$  000000000063200000000006640000000000630000000000065200000000006640000000000663000000000066419151000000000020756300000000013533455500000000000000009999123100000010000000000000BRCMINACNOR2111
012024091302MATD3       010MATER DEI   ON      NM   R$  000000000048700000000004930000000000480000000000048600000000004830000000000483000000000049301061000000000000185000000000000090093300000000000000009999123100000010000000000000BRMATDACNOR4104
012024091302MBLY3       010MOBLY       ON      NM   R$  000000000028100000000002870000000000277000000000028200000000002780000000000278000000000028100413000000000000402500000000000113540300000000000000009999123100000010000000000000BRMBLYACNOR5100
012024091302MGLU3       010MAGAZ LUIZA ON  ATZ NM   R$  000000000112600000000011940000000001124000000000116500000000011600000000001160000000000116221799000000000017735700000000020679054400000000000000009999123100000010000000000000BRMGLUACNOR2125
012024091302PCAR3       010P.ACUCAR-CBDON      NM   R$  000000000030700000000003140000000000301000000000030600000000003040000000000303000000000030406903000000000006472200000000001983254700000000000000009999123100000010000000000000BRPCARACNOR3167
012024091302CGRA3       010GRAZZIOTIN  ON           R$  000000000253300000000025330000000002533000000000250900000000025330000000002506000000000252500004000000000000000800000000000002007500000000000000009999123100000010000000000000BRCGRAACNOR2083
012024091302CGRA4       010GRAZZIOTIN  PN           R$  000000000252000000000025240000000002489000000000250300000000024890000000002488000000000252000024000000000000004400000000000011014500000000000000009999123100000010000000000000BRCGRAACNPR9083
012024091302CLSA3       010CLEARSALE   ON      NM   R$  000000000087000000000008880000000000815000000000084700000000008330000000000828000000000083404492000000000001780800000000001509868300000000000000009999123100000010000000000000BRCLSAACNOR0100
012024091302CLSC4       010CELESC      PN      N2   R$  000000000816900000000082800000000008169000000000820800000000082800000000008185000000000828000017000000000000003300000000000027087800000000000000009999123100000010000000000000BRCLSCACNPR3131
012024091302CMIG3       010CEMIG       ON      N1   R$  000000000144600000000014820000000001446000000000147000000000014820000000001465000000000148200638000000000000104900000000000154203100000000000000009999123100000010000000000000BRCMIGACNOR6243
012024091302CMIG4       010CEMIG       PN      N1   R$  000000000117500000000011870000000001172000000000118100000000011770000000001177000000000117808708000000000005430100000000006417660600000000000000009999123100000010000000000000BRCMIGACNPR3244
012024091302CXSE3       010CAIXA SEGURION      NM   R$  000000000151000000000015200000000001501000000000150600000000015010000000001500000000000150407382000000000002675800000000004031991500000000000000009999123100000010000000000000BRCXSEACNOR7107
012024091302CYRE3       010CYRELA REALTON      NM   R$  000000000216400000000022400000000002164000000000222000000000022280000000002227000000000222814401000000000004635500000000010292572300000000000000009999123100000010000000000000BRCYREACNOR7140
012024091302EUCA3       010EUCATEX     ON      N1   R$  000000000176500000000017650000000001765000000000176500000000017650000000001681000000000176600001000000000000000100000000000000176500000000000000009999123100000010000000000000BREUCAACNOR1157
012024091302EUCA4       010EUCATEX     PN      N1   R$  000000000161400000000016250000000001605000000000161700000000016250000000001616000000000162500229000000000000042800000000000069218800000000000000009999123100000010000000000000BREUCAACNPR8044
012024091302EVEN3       010EVEN        ON      NM   R$  000000000064500000000006680000000000642000000000065800000000006570000000000657000000000065901874000000000000559300000000000368308100000000000000009999123100000010000000000000BREVENACNOR8119
012024091302EZTC3       010EZTEC       ON      NM   R$  000000000139500000000014850000000001395000000000146200000000014740000000001473000000000147409967000000000003180600000000004652618400000000000000009999123100000010000000000000BREZTCACNOR0126
012024091302FESA4       010FERBASA     PN  EJ  N1   R$  000000000079700000000008060000000000792000000000079900000000007960000000000795000000000080001051000000000000313100000000000250305400000000000000009999123100000010000000000000BRFESAACNPR5085
012024091302IFCM3       010INFRACOMM   ON      NM   R$  000000000001600000000000170000000000015000000000001600000000000170000000000016000000000001701972000000000009306500000000000149068100000000000000009999123100000010000000000000BRIFCMACNOR8101
012024091302IGTI11      010IGUATEMI S.AUNT     N1   R$  000000000220300000000022590000000002197000000000224000000000022330000000002228000000000223410158000000000002017700000000004521422400000000000000009999123100000010000000000000BRIGTICDAM16106
012024091302IGTI3       010IGUATEMI S.AON      N1   R$  000000000026800000000002900000000000268000000000027800000000002720000000000271000000000027400377000000000000112600000000000031344800000000000000009999123100000010000000000000BRIGTIACNOR8106
012024091302IGTI4       010IGUATEMI S.APN      N1   R$  000000000097600000000009760000000000976000000000097600000000009760000000000009000000000109600001000000000000000200000000000000195200000000000000009999123100000010000000000000BRIGTIACNPR5106
012024091302INEP3       010INEPAR      ON           R$  000000000018100000000001910000000000180000000000018600000000001850000000000182000000000018500150000000000000082600000000000015393900000000000000009999123100000010000000000000BRINEPACNOR1143
012024091302INEP4       010INEPAR      PN           R$  000000000018800000000001920000000000184000000000018700000000001850000000000185000000000018800071000000000000021200000000000003981300000000000000009999123100000010000000000000BRINEPACNPR8143
012024091302INTB3       010INTELBRAS   ON      NM   R$  000000000224600000000023180000000002246000000000229200000000022910000000002282000000000229104645000000000000892400000000002045681500000000000000009999123100000010000000000000BRINTBACNOR9112
012024091302IRBR3       010IRBBRASIL REON      NM   R$  000000000472000000000048560000000004718000000000477900000000047340000000004734000000000473705010000000000001002800000000004793097300000000000000009999123100000010000000000000BRIRBRACNOR4111
012024091302KRSA3       010KORA SAUDE  ON      NM   R$  000000000005500000000000550000000000052000000000005300000000000530000000000052000000000005300199000000000000434000000000000023157700000000000000009999123100000010000000000000BRKRSAACNOR0100
012024091302LAND3       010TERRASANTAPAON      NM   R$  000000000127800000000013800000000001278000000000133300000000013790000000001355000000000137900797000000000000249500000000000332776100000000000000009999123100000010000000000000BRLANDACNOR9103
012024091302LAVV3       010LAVVI       ON      NM   R$  000000000084200000000008740000000000842000000000086200000000008740000000000864000000000087401884000000000000558500000000000481899100000000000000009999123100000010000000000000BRLAVVACNOR4113
012024091302LEVE3       010METAL LEVE  ON      NM   R$  000000000307100000000031380000000003068000000000311400000000031310000000003131000000000313301639000000000000355100000000001105941500000000000000009999123100000010000000000000BRLEVEACNOR2197
012024091302LJQQ3       010QUERO-QUERO ON      NM   R$  000000000040600000000004160000000000405000000000041100000000004140000000000413000000000041403633000000000001712700000000000704634000000000000000009999123100000010000000000000BRLJQQACNOR5104
012024091302LOGG3       010LOG COM PROPON      NM   R$  000000000230000000000023300000000002300000000000231300000000023150000000002315000000000232001579000000000000203300000000000470234400000000000000009999123100000010000000000000BRLOGGACNOR7107
012024091302LOGN3       010LOG-IN      ON      NM   R$  000000000364600000000037960000000003577000000000367100000000037960000000003649000000000380000109000000000000016200000000000059471200000000000000009999123100000010000000000000BRLOGNACNOR3105
012024091302LPSB3       010LOPES BRASILON      NM   R$  000000000021500000000002320000000000191000000000020400000000001940000000000193000000000019400858000000000001166000000000000237927800000000000000009999123100000010000000000000BRLPSBACNOR0114
012024091302LREN3       010LOJAS RENNERON      NM   R$  000000000184200000000019120000000001838000000000189000000000018940000000001893000000000189531662000000000018886400000000035702887200000000000000009999123100000010000000000000BRLRENACNOR1221
012024091302AZZA3       010AZZAS 2154  ON      NM   R$  000000000482300000000048530000000004764000000000481300000000048340000000004825000000000483407061000000000002391700000000011511835100000000000000009999123100000010000000000000BRAZZAACNOR9100
012024091302BRSR3       010BANRISUL    ON  EJ  N1   R$  000000000133000000000013380000000001289000000000131600000000013000000000001300000000000131600081000000000000011700000000000015406000000000000000009999123100000010000000000000BRBRSRACNOR3189
012024091302BRSR6       010BANRISUL    PNB EJ  N1   R$  000000000122900000000012530000000001220000000000123100000000012330000000001231000000000123406833000000000001635700000000002014743600000000000000009999123100000010000000000000BRBRSRACNPB4192
012024091302CSNA3       010SID NACIONALON           R$  000000000116300000000012070000000001163000000000119100000000011900000000001190000000000119209441000000000009509200000000011326459400000000000000009999123100000010000000000000BRCSNAACNOR6261
012024091302ENEV3       010ENEVA       ON      NM   R$  000000000140700000000014370000000001398000000000142000000000014070000000001406000000000141524982000000000009440100000000013412297600000000000000009999123100000010000000000000BRENEVACNOR8106
012024091302BBDC3       010BRADESCO    ON      N1   R$  000000000139400000000014140000000001387000000000140000000000013950000000001391000000000139507066000000000003930700000000005506241700000000000000009999123100000010000000000000BRBBDCACNOR1774
012024091302BBDC4       010BRADESCO    PN      N1   R$  000000000155000000000015770000000001540000000000155500000000015550000000001554000000000155523477000000000027724900000000043126102700000000000000009999123100000010000000000000BRBBDCACNPR8774
012024091302BRIT3       010BRISANET    ON      NM   R$  000000000033500000000003430000000000335000000000033700000000003350000000000335000000000033801008000000000000370300000000000125147100000000000000009999123100000010000000000000BRBRITACNOR0103
012024091302BRKM3       010BRASKEM     ON      N1   R$  000000000182700000000019250000000001827000000000189900000000018920000000001887000000000192900229000000000000028400000000000053959400000000000000009999123100000010000000000000BRBRKMACNOR1119
012024091302BRKM5       010BRASKEM     PNA     N1   R$  000000000180700000000019460000000001803000000000190600000000019380000000001936000000000194012978000000000006012500000000011464640800000000000000009999123100000010000000000000BRBRKMACNPA4121
012024091302BRKM6       010BRASKEM     PNB     N1   R$  000000000130000000000013000000000001300000000000130000000000013000000000001316000000000138000002000000000000000200000000000000260000000000000000009999123100000010000000000000BRBRKMACNPB2114
012024091302CSED3       010CRUZEIRO EDUON      NM   R$  000000000035500000000003700000000000355000000000036500000000003630000000000363000000000036601126000000000000631000000000000230705200000000000000009999123100000010000000000000BRCSEDACNOR9105
012024091302CSMG3       010COPASA      ON      NM   R$  000000000251400000000025770000000002511000000000254900000000025440000000002543000000000254404937000000000005131700000000013083758100000000000000009999123100000010000000000000BRCSMGACNOR5174
012024091302ELMD3       010ELETROMIDIA ON      NM   R$  000000000177800000000018090000000001742000000000177100000000017800000000001764000000000178200333000000000000077700000000000137652400000000000000009999123100000010000000000000BRELMDACNOR3101
012024091302EMAE4       010EMAE        PN           R$  000000000409700000000042160000000004026000000000409000000000042160000000004001000000000422000013000000000000003200000000000013090500000000000000009999123100000010000000000000BREMAEACNPR1125
012024091302EMBR3       010EMBRAER     ON      NM   R$  000000000508100000000051930000000005081000000000514900000000051930000000005170000000000519528238000000000007269200000000037433761800000000000000009999123100000010000000000000BREMBRACNOR4191
012024091302HBOR3       010HELBOR      ON      NM   R$  000000000020000000000002050000000000199000000000020200000000002000000000000200000000000020100519000000000000670700000000000135523100000000000000009999123100000010000000000000BRHBORACNOR3118
012024091302HBRE3       010HBR REALTY  ON      NM   R$  000000000049200000000005180000000000492000000000050700000000005090000000000509000000000051400639000000000000270100000000000137174100000000000000009999123100000010000000000000BRHBREACNOR4100
012024091302HBSA3       010HIDROVIAS   ON      NM   R$  000000000034900000000003610000000000349000000000035400000000003520000000000351000000000035202987000000000000781300000000000276606500000000000000009999123100000010000000000000BRHBSAACNOR0100
012024091302HBTS5       010HABITASUL   PNA          R$  000000000381500000000038150000000003815000000000381500000000038150000000003861000000000413500001000000000000000100000000000000381500000000000000009999123100000010000000000000BRHBTSACNPA3128
012024091302HETA4       010HERCULES    PN           R$  000000000064200000000006500000000000641000000000064500000000006500000000000650000000000068300006000000000000000600000000000000387300000000000000009999123100000010000000000000BRHETAACNPR9136
012024091302HYPE3       010HYPERA      ON      NM   R$  000000000282900000000029380000000002819000000000289900000000029080000000002908000000000293716742000000000005926100000000017181157600000000000000009999123100000010000000000000BRHYPEACNOR0143
012024091302ATOM3       010ATOMPAR     ON           R$  000000000022000000000002200000000000220000000000022000000000002200000000000213000000000022000001000000000000000100000000000000022000000000000000009999123100000010000000000000BRATOMACNOR1106
012024091302AURE3       010AUREN       ON      NM   R$  000000000111200000000011170000000001106000000000111200000000011110000000001110000000000111307880000000000003690600000000004105282600000000000000009999123100000010000000000000BRAUREACNOR9104
012024091302AVLL3       010ALPHAVILLE  ON      NM   R$  000000000036800000000003700000000000360000000000036400000000003700000000000350000000000037400015000000000000003800000000000001385700000000000000009999123100000010000000000000BRAVLLACNOR5103
012024091302AZEV3       010AZEVEDO     ON           R$  000000000013300000000001350000000000131000000000013200000000001320000000000131000000000013200473000000000000659000000000000087334100000000000000009999123100000010000000000000BRAZEVACNOR0121
012024091302AZEV4       010AZEVEDO     PN           R$  000000000013300000000001350000000000131000000000013200000000001320000000000131000000000013200897000000000002171100000000000288186200000000000000009999123100000010000000000000BRAZEVACNPR7121
012024091302AZUL4       010AZUL        PN      N2   R$  000000000040700000000004950000000000406000000000046300000000004950000000000494000000000049527272000000000061954500000000028691642100000000000000009999123100000010000000000000BRAZULACNPR4103
012024091302BOBR4       010BOMBRIL     PN           R$  000000000022500000000002310000000000225000000000022800000000002280000000000226000000000022900080000000000000026000000000000005945800000000000000009999123100000010000000000000BRBOBRACNPR3128
012024091302BRBI11      010BR PARTNERS UNT     N2   R$  000000000156000000000015940000000001560000000000158000000000015680000000001568000000000158201648000000000000350300000000000553497200000000000000009999123100000010000000000000BRBRBICDAM10110
012024091302BRFS3       010BRF SA      ON      NM   R$  000000000243400000000024970000000002434000000000246200000000024670000000002465000000000246714840000000000009829700000000024203227000000000000000009999123100000010000000000000BRBRFSACNOR8122
012024091302CPLE3       010COPEL       ON      N2   R$  000000000096200000000009800000000000959000000000097500000000009790000000000976000000000097913046000000000004796100000000004680479800000000000000009999123100000010000000000000BRCPLEACNOR8149
012024091302CPLE6       010COPEL       PNB     N2   R$  000000000107400000000010910000000001073000000000108500000000010860000000001086000000000108813612000000000008662500000000009399447100000000000000009999123100000010000000000000BRCPLEACNPB9146
012024091302CRFB3       010CARREFOUR BRON      NM   R$  000000000092000000000009450000000000904000000000091800000000009110000000000910000000000091217015000000000015545000000000014280794600000000000000009999123100000010000000000000BRCRFBACNOR2116
012024091302MDIA3       010M.DIASBRANCOON      NM   R$  000000000275100000000027740000000002726000000000273900000000027350000000002735000000000274203031000000000000691300000000001893681700000000000000009999123100000010000000000000BRMDIAACNOR7135
012024091302MDNE3       010MOURA DUBEUXON      NM   R$  000000000145100000000014960000000001450000000000148000000000014810000000001470000000000148101743000000000000327100000000000484204100000000000000009999123100000010000000000000BRMDNEACNOR9100
012024091302MEAL3       010IMC S/A     ON      NM   R$  000000000013900000000001460000000000139000000000014300000000001430000000000142000000000014300589000000000000530100000000000075965500000000000000009999123100000010000000000000BRMEALACNOR9105
012024091302MELK3       010MELNICK     ON      NM   R$  000000000034000000000003540000000000339000000000034700000000003540000000000353000000000035401435000000000001433100000000000497455000000000000000009999123100000010000000000000BRMELKACNOR8111
012024091302MGEL4       010MANGELS INDLPN           R$  000000000111300000000011200000000001100000000000110800000000011000000000001100000000000116100004000000000000000400000000000000443300000000000000009999123100000010000000000000BRMGELACNPR3147
012024091302BBSE3       010BBSEGURIDADEON      NM   R$  000000000361700000000036580000000003616000000000363700000000036190000000003618000000000363111321000000000002221100000000008078815600000000000000009999123100000010000000000000BRBBSEACNOR5125
012024091302BSLI3       010BRB BANCO   ON           R$  000000000096000000000009680000000000957000000000095800000000009680000000000968000000000098000006000000000000001500000000000001438400000000000000009999123100000010000000000000BRBSLIACNOR5194
012024091302BSLI4       010BRB BANCO   PN           R$  000000000094900000000009490000000000949000000000094900000000009490000000000939000000000094900002000000000000000300000000000000284700000000000000009999123100000010000000000000BRBSLIACNPR2194
012024091302CAMB3       010CAMBUCI     ON           R$  000000000121800000000012300000000001208000000000121900000000012230000000001211000000000122300080000000000000012500000000000015246300000000000000009999123100000010000000000000BRCAMBACNOR4131
012024091302CAML3       010CAMIL       ON  EDJ NM   R$  000000000093500000000009490000000000935000000000094000000000009430000000000939000000000094301060000000000000264800000000000249137700000000000000009999123100000010000000000000BRCAMLACNOR3129
012024091302CASH3       010MELIUZ      ON      NM   R$  000000000043600000000004540000000000431000000000044200000000004370000000000435000000000043703558000000000002291500000000001014205600000000000000009999123100000010000000000000BRCASHACNOR8107
012024091302CBAV3       010CBA         ON      NM   R$  000000000046700000000004860000000000467000000000048000000000004840000000000481000000000048403538000000000002607700000000001253016900000000000000009999123100000010000000000000BRCBAVACNOR5104
012024091302CCRO3       010CCR SA      ON      NM   R$  000000000128100000000013300000000001281000000000131600000000013130000000001311000000000131307702000000000004320500000000005686131300000000000000009999123100000010000000000000BRCCROACNOR2145
012024091302CEAB3       010CEA MODAS   ON      NM   R$  000000000100400000000010620000000001004000000000104600000000010540000000001053000000000105804232000000000002443600000000002557252700000000000000009999123100000010000000000000BRCEABACNOR1102
012024091302CSUD3       010CSU DIGITAL ON      NM   R$  000000000182200000000018220000000001778000000000179700000000018100000000001807000000000182000225000000000000046900000000000084313800000000000000009999123100000010000000000000BRCSUDACNOR5110
012024091302CTKA4       010KARSTEN     PN           R$  000000000186300000000018630000000001863000000000186300000000018630000000001900000000000209500001000000000000000200000000000000372600000000000000009999123100000010000000000000BRCTKAACNPR7043
012024091302CURY3       010CURY S/A    ON      NM   R$  000000000249600000000025690000000002496000000000254800000000025490000000002549000000000255309668000000000002419100000000006163969100000000000000009999123100000010000000000000BRCURYACNOR3109
012024091302CVCB3       010CVC BRASIL  ON      NM   R$  000000000018400000000002140000000000184000000000020000000000002080000000000206000000000020818465000000000054403300000000010881176300000000000000009999123100000010000000000000BRCVCBACNOR1116
012024091302ENGI11      010ENERGISA    UNT     N2   R$  000000000480600000000048930000000004761000000000485900000000048310000000004828000000000485009375000000000001800900000000008751913400000000000000009999123100000010000000000000BRENGICDAM16136
012024091302ENGI3       010ENERGISA    ON      N2   R$  000000000142700000000014550000000001415000000000143900000000014420000000001441000000000145700030000000000000003900000000000005613100000000000000009999123100000010000000000000BRENGIACNOR0146
012024091302ENGI4       010ENERGISA    PN      N2   R$  000000000083100000000008600000000000831000000000085200000000008490000000000849000000000086000046000000000000008400000000000007163400000000000000009999123100000010000000000000BRENGIACNPR7142
012024091302ENJU3       010ENJOEI      ON      NM   R$  000000000013900000000001430000000000138000000000014000000000001390000000000139000000000014100458000000000000425500000000000059721700000000000000009999123100000010000000000000BRENJUACNOR9100
012024091302EPAR3       010EMBPAR S/A  ON           R$  000000000059300000000005930000000000581000000000058500000000005880000000000581000000000058800042000000000000013500000000000007903400000000000000009999123100000010000000000000BREPARACNOR9105
012024091302EQMA3B      010EQTLMARANHAOON      MB   R$  000000000249000000000024900000000002461000000000248600000000024610000000002453000000000248900002000000000000000900000000000002238100000000000000009999123100000010000000000000BREQMAACNOR8108
012024091302EQPA3       010EQTL PARA   ON           R$  000000000060800000000006100000000000606000000000060800000000006100000000000605000000000061100015000000000000002600000000000001581100000000000000009999123100000010000000000000BREQPAACNOR1111
012024091302EQTL3       010EQUATORIAL  ON      NM   R$  000000000340800000000034280000000003387000000000340800000000034000000000003400000000000340521369000000000009004500000000030693679900000000000000009999123100000010000000000000BREQTLACNOR0131
012024091302ESPA3       010ESPACOLASER ON      NM   R$  000000000011100000000001110000000000108000000000011000000000001110000000000110000000000011100088000000000000063800000000000007030700000000000000009999123100000010000000000000BRESPAACNOR7103
012024091302ESTR4       010ESTRELA     PN           R$  000000000037700000000005500000000000377000000000049600000000005290000000000493000000000053000221000000000000057800000000000028675300000000000000009999123100000010000000000000BRESTRACNPR0144
012024091302ETER3       010ETERNIT     ON      NM   R$  000000000057700000000005920000000000577000000000058400000000005820000000000582000000000058500586000000000000174900000000000102309100000000000000009999123100000010000000000000BRETERACNOR3244
012024091302JHSF3       010JHSF PART   ON      NM   R$  000000000045400000000004560000000000451000000000045300000000004540000000000451000000000045503632000000000003284900000000001489617100000000000000009999123100000010000000000000BRJHSFACNOR2139
012024091302JSLG3       010JSL         ON      NM   R$  000000000095600000000009790000000000956000000000096700000000009680000000000964000000000096802242000000000000940500000000000910162700000000000000009999123100000010000000000000BRJSLGACNOR2121
012024091302KEPL3       010KEPLER WEBERON      NM   R$  000000000109000000000011110000000001081000000000110200000000011070000000001107000000000111102018000000000000594700000000000655871000000000000000009999123100000010000000000000BRKEPLACNOR1064
012024091302KLBN11      010KLABIN S/A  UNT     N2   R$  000000000218200000000022020000000002169000000000218900000000021810000000002181000000000218809978000000000003344600000000007324334200000000000000009999123100000010000000000000BRKLBNCDAM18143
012024091302KLBN3       010KLABIN S/A  ON      N2   R$  000000000043600000000004430000000000436000000000044000000000004390000000000439000000000044000491000000000000140800000000000061980700000000000000009999123100000010000000000000BRKLBNACNOR2171
012024091302KLBN4       010KLABIN S/A  PN      N2   R$  000000000043400000000004390000000000433000000000043600000000004360000000000436000000000043801658000000000000845800000000000369419400000000000000009999123100000010000000000000BRKLBNACNPR9171
012024091302CRPG5       010CRISTAL     PNA          R$  000000000287600000000029190000000002860000000000288100000000029190000000002871000000000292800004000000000000000500000000000001440700000000000000009999123100000010000000000000BRCRPGACNPA3119
012024091302CRPG6       010CRISTAL     PNB          R$  000000000289900000000028990000000002849000000000285100000000028500000000002802000000000285000040000000000000004000000000000011404800000000000000009999123100000010000000000000BRCRPGACNPB1119
012024091302CSAN3       010COSAN       ON      NM   R$  000000000129000000000013260000000001290000000000131300000000013040000000001304000000000130810081000000000008353200000000010969080900000000000000009999123100000010000000000000BRCSANACNOR6126
012024091302ELET5       010ELETROBRAS  PNA     N1   R$  000000000950000000000095000000000009500000000000950000000000095000000000008500000000000000000001000000000000000200000000000001900000000000000000009999123100000010000000000000BRELETACNPA9077
012024091302ELET6       010ELETROBRAS  PNB     N1   R$  000000000458300000000046450000000004573000000000461900000000045990000000004598000000000459907062000000000001069600000000004940945500000000000000009999123100000010000000000000BRELETACNPB7077
012024091302GRND3       010GRENDENE    ON      NM   R$  000000000060300000000006200000000000603000000000061400000000006180000000000615000000000061801528000000000000648800000000000398972700000000000000009999123100000010000000000000BRGRNDACNOR3175
012024091302GUAR3       010GUARARAPES  ON      NM   R$  000000000086400000000008960000000000864000000000088800000000008930000000000891000000000089302298000000000000797800000000000708667600000000000000009999123100000010000000000000BRGUARACNOR4173
012024091302HAGA3       010HAGA S/A    ON           R$  000000000023800000000002410000000000238000000000023900000000002410000000000238000000000024200002000000000000000200000000000000047900000000000000009999123100000010000000000000BRHAGAACNOR7103
012024091302HAGA4       010HAGA S/A    PN           R$  000000000011800000000001190000000000116000000000011700000000001190000000000119000000000012000029000000000000020600000000000002417500000000000000009999123100000010000000000000BRHAGAACNPR4103
012024091302HAPV3       010HAPVIDA     ON      NM   R$  000000000045200000000004620000000000449000000000045700000000004600000000000459000000000046130294000000000045764100000000020954759900000000000000009999123100000010000000000000BRHAPVACNOR4114
012024091302ALPA3       010ALPARGATAS  ON      N1   R$  000000000074600000000007470000000000735000000000073800000000007450000000000735000000000074600017000000000000003800000000000002806800000000000000009999123100000010000000000000BRALPAACNOR0231
012024091302ALPA4       010ALPARGATAS  PN      N1   R$  000000000073500000000007500000000000733000000000074100000000007400000000000738000000000074204680000000000002156000000000001599183200000000000000009999123100000010000000000000BRALPAACNPR7232
012024091302ALPK3       010ESTAPAR     ON      NM   R$  000000000033200000000003400000000000325000000000033000000000003300000000000326000000000033000465000000000000232300000000000076788100000000000000009999123100000010000000000000BRALPKACNOR9101
012024091302ALUP11      010ALUPAR      UNT     N2   R$  000000000314200000000031650000000003109000000000313600000000031090000000003107000000000310902134000000000000449800000000001410775000000000000000009999123100000010000000000000BRALUPCDAM15120
012024091302ALUP3       010ALUPAR      ON      N2   R$  000000000106000000000010750000000001060000000000106600000000010600000000001060000000000107500012000000000000001400000000000001492400000000000000009999123100000010000000000000BRALUPACNOR8120
012024091302ALUP4       010ALUPAR      PN      N2   R$  000000000103000000000010420000000001030000000000103700000000010390000000001030000000000103900030000000000000006200000000000006433700000000000000009999123100000010000000000000BRALUPACNPR5120
012024091302AMAR3       010LOJAS MARISAON      NM   R$  000000000010700000000001180000000000106000000000011000000000001180000000000115000000000011800609000000000000409400000000000045100500000000000000009999123100000010000000000000BRAMARACNOR4115
012024091302AMBP3       010AMBIPAR     ON      NM   R$  000000000709900000000070990000000006480000000000684500000000067500000000006599000000000675001353000000000000412300000000002822539300000000000000009999123100000010000000000000BRAMBPACNOR6103
012024091302ANIM3       010ANIMA       ON      NM   R$  000000000031300000000003290000000000312000000000032100000000003170000000000316000000000031705807000000000010631100000000003412898300000000000000009999123100000010000000000000BRANIMACNOR6109
012024091302ARML3       010ARMAC       ON      NM   R$  000000000089700000000009370000000000895000000000092500000000009200000000000920000000000092502181000000000000415200000000000384420700000000000000009999123100000010000000000000BRARMLACNOR1112
012024091302PORT3       010WILSON SONS ON      NM   R$  000000000168800000000017070000000001688000000000169800000000017000000000001692000000000170002100000000000001061800000000001803377400000000000000009999123100000010000000000000BRPORTACNOR8109
012024091302POSI3       010POSITIVO TECON      NM   R$  000000000060100000000006240000000000601000000000061600000000006140000000000614000000000061603089000000000001600500000000000986604200000000000000009999123100000010000000000000BRPOSIACNOR9116
012024091302PRIO3       010PETRORIO    ON      NM   R$  000000000428400000000043890000000004273000000000434300000000043310000000004330000000000433623684000000000007559000000000032835332800000000000000009999123100000010000000000000BRPRIOACNOR1107
012024091302ZAMP3       010ZAMP S.A.   ON           R$  000000000029900000000003080000000000297000000000030100000000003050000000000301000000000030501281000000000000324800000000000097811900000000000000009999123100000010000000000000BRZAMPACNOR5101
012024091302SANB11      010SANTANDER BRUNT          R$  000000000307700000000031130000000003061000000000308300000000030770000000003075000000000308305536000000000001238700000000003819300200000000000000009999123100000010000000000000BRSANBCDAM13165
012024091302SANB3       010SANTANDER BRON           R$  000000000145700000000014830000000001457000000000146800000000014670000000001462000000000146700223000000000000028500000000000041854900000000000000009999123100000010000000000000BRSANBACNOR8172
012024091302SANB4       010SANTANDER BRPN           R$  000000000160900000000016250000000001603000000000161400000000016160000000001606000000000161600234000000000000038600000000000062321700000000000000009999123100000010000000000000BRSANBACNPR5172
012024091302SAPR11      010SANEPAR     UNT     N2   R$  000000000321800000000032690000000003211000000000323400000000032470000000003225000000000324708268000000000001875400000000006066719000000000000000009999123100000010000000000000BRSAPRCDAM13118
012024091302SAPR3       010SANEPAR     ON      N2   R$  000000000060500000000006180000000000605000000000061100000000006080000000000607000000000061200777000000000000176500000000000108004000000000000000009999123100000010000000000000BRSAPRACNOR9159
012024091302SAPR4       010SANEPAR     PN      N2   R$  000000000065600000000006600000000000648000000000065300000000006520000000000650000000000065303808000000000001630900000000001066066000000000000000009999123100000010000000000000BRSAPRACNPR6159
012024091302SBFG3       010GRUPO SBF   ON      NM   R$  000000000173300000000018010000000001718000000000177100000000017890000000001783000000000178906874000000000001776000000000003146177500000000000000009999123100000010000000000000BRSBFGACNOR1103
012024091302SBSP3       010SABESP      ON      NM   R$  000000000951500000000095250000000009451000000000948700000000094530000000009452000000000946007864000000000004309400000000040884033000000000000000009999123100000010000000000000BRSBSPACNOR5161
012024091302ROMI3       010ROMI        ON      NM   R$  000000000108100000000011080000000001081000000000110000000000011050000000001104000000000110600552000000000000112200000000000123461500000000000000009999123100000010000000000000BRROMIACNOR8195
012024091302RCSL3       010RECRUSUL    ON           R$  000000000078100000000007860000000000687000000000074200000000007350000000000734000000000073503433000000000001331700000000000988605500000000000000009999123100000010000000000000BRRCSLACNOR4134
012024091302VSTE3       010VESTE       ON      NM   R$  000000000129800000000013450000000001272000000000129900000000013220000000001300000000000132500044000000000000009100000000000011822700000000000000009999123100000010000000000000BRVSTEACNOR5103
012024091302VTRU3       010VITRUEDUCA  ON      NM   R$  000000000097400000000009930000000000958000000000097500000000009580000000000958000000000096000623000000000000175700000000000171438500000000000000009999123100000010000000000000BRVTRUACNOR3100
012024091302VULC3       010VULCABRAS   ON      NM   R$  000000000178000000000018070000000001778000000000179500000000017880000000001788000000000179401694000000000000401000000000000719808200000000000000009999123100000010000000000000BRVULCACNOR2161
012024091302DOHL4       010DOHLER      PN           R$  000000000041800000000004180000000000418000000000041800000000004180000000000406000000000041800002000000000000000200000000000000083600000000000000009999123100000010000000000000BRDOHLACNPR9066
012024091302DOTZ3       010DOTZ SA     ON      NM   R$  000000000065300000000006530000000000610000000000062200000000006300000000000620000000000063200122000000000000034700000000000021604300000000000000009999123100000010000000000000BRDOTZACNOR7101
012024091302DXCO3       010DEXCO       ON      NM   R$  000000000078100000000008100000000000781000000000079600000000008090000000000805000000000080904755000000000003604100000000002872334500000000000000009999123100000010000000000000BRDXCOACNOR8105
012024091302VVEO3       010VIVEO       ON      NM   R$  000000000021300000000002260000000000213000000000022000000000002240000000000222000000000022403767000000000003316200000000000730465800000000000000009999123100000010000000000000BRVVEOACNOR0104
012024091302WEGE3       010WEG         ON      NM   R$  000000000532600000000054150000000005298000000000536200000000053620000000005357000000000536311463000000000002955000000000015847546300000000000000009999123100000010000000000000BRWEGEACNOR0224
012024091302EALT3       010ACO ALTONA  ON           R$  000000000149200000000014990000000001491000000000149200000000014920000000001492000000000153000008000000000000000900000000000001343200000000000000009999123100000010000000000000BREALTACNOR4138
012024091302EALT4       010ACO ALTONA  PN           R$  000000000147200000000014730000000001434000000000145500000000014370000000001437000000000145500046000000000000007900000000000011501700000000000000009999123100000010000000000000BREALTACNPR1138
012024091302ECOR3       010ECORODOVIAS ON      NM   R$  000000000075400000000007990000000000754000000000079000000000007990000000000791000000000079905182000000000002710100000000002143067800000000000000009999123100000010000000000000BRECORACNOR8120
012024091302ITUB3       010ITAUUNIBANCOON      N1   R$  000000000323300000000032570000000003194000000000322000000000032340000000003224000000000323504548000000000000918900000000002959662400000000000000009999123100000010000000000000BRITUBACNOR4340
012024091302ITUB4       010ITAUUNIBANCOPN      N1   R$  000000000371600000000037330000000003658000000000369400000000037010000000003700000000000370234330000000000020220400000000074695344800000000000000009999123100000010000000000000BRITUBACNPR1340
012024091302AALR3       010ALLIAR      ON      NM   R$  000000000156600000000016200000000001566000000000160600000000016130000000001581000000000161400099000000000000011500000000000018477100000000000000009999123100000010000000000000BRAALRACNOR6102
012024091302FHER3       010FER HERINGERON      NM   R$  000000000040100000000004010000000000401000000000040100000000004010000000000400000000000040100001000000000000000100000000000000040100000000000000009999123100000010000000000000BRFHERACNOR5103
012024091302NEOE3       010NEOENERGIA  ON      NM   R$  000000000194000000000019800000000001940000000000196100000000019660000000001958000000000196802205000000000000403000000000000790604600000000000000009999123100000010000000000000BRNEOEACNOR3123
012024091302PETZ3       010PETZ        ON      NM   R$  000000000047000000000004870000000000470000000000047700000000004750000000000474000000000047505282000000000006047800000000002887420200000000000000009999123100000010000000000000BRPETZACNOR2110
012024091302RAIZ4       010RAIZEN      PN      N2   R$  000000000030800000000003140000000000306000000000030900000000003090000000000309000000000031207155000000000013100000000000004059386700000000000000009999123100000010000000000000BRRAIZACNPR6111
012024091302RANI3       010IRANI       ON      NM   R$  000000000075900000000007730000000000759000000000076800000000007690000000000767000000000076902012000000000000712400000000000547501500000000000000009999123100000010000000000000BRRANIACNOR5073
012024091302RAPT3       010RANDON PART ON      N1   R$  000000000087400000000008920000000000870000000000088100000000008840000000000876000000000088401736000000000000258700000000000228068300000000000000009999123100000010000000000000BRRAPTACNOR7163
012024091302RAPT4       010RANDON PART PN      N1   R$  000000000108200000000011200000000001082000000000110800000000011140000000001105000000000111405501000000000003859700000000004277429600000000000000009999123100000010000000000000BRRAPTACNPR4163
012024091302ALLD3       010ALLIED      ON      NM   R$  000000000076400000000008030000000000764000000000079200000000007920000000000788000000000079000240000000000000085200000000000067538000000000000000009999123100000010000000000000BRALLDACNOR3106
012024091302ALOS3       010ALLOS       ON      NM   R$  000000000229400000000023180000000002270000000000229300000000022840000000002281000000000228514973000000000004305200000000009872593400000000000000009999123100000010000000000000BRALOSACNOR5101
012024091302BAHI3       010BAHEMA      ON      MA   R$  000000000067000000000006700000000000665000000000066700000000006650000000000665000000000070000005000000000000001100000000000000734000000000000000009999123100000010000000000000BRBAHIACNOR1074
012024091302BAZA3       010AMAZONIA    ON           R$  000000000958400000000095840000000009423000000000944700000000094330000000009398000000000943400034000000000000003900000000000036844300000000000000009999123100000010000000000000BRBAZAACNOR0179
012024091302BBAS3       010BRASIL      ON  EJ  NM   R$  000000000283000000000028630000000002825000000000284200000000028420000000002841000000000284226490000000000009241700000000026271485600000000000000009999123100000010000000000000BRBBASACNOR3326
012024091302UNIP3       010UNIPAR      ON           R$  000000000466800000000047760000000004666000000000474700000000047590000000004739000000000476900058000000000000005900000000000028007400000000000000009999123100000010000000000000BRUNIPACNOR7206
012024091302UNIP5       010UNIPAR      PNA          R$  000000000499000000000049900000000004990000000000499000000000049900000000004990000000000519900003000000000000000300000000000001497000000000000000009999123100000010000000000000BRUNIPACNPA0208
012024091302UNIP6       010UNIPAR      PNB          R$  000000000472400000000048250000000004700000000000477900000000048210000000004821000000000482301139000000000000261300000000001248873100000000000000009999123100000010000000000000BRUNIPACNPB8206
012024091302USIM3       010USIMINAS    ON      N1   R$  000000000059000000000006060000000000590000000000060000000000006060000000000604000000000060600829000000000000285300000000000171458200000000000000009999123100000010000000000000BRUSIMACNOR3167
012024091302USIM5       010USIMINAS    PNA     N1   R$  000000000059300000000006180000000000591000000000060900000000006170000000000617000000000061809520000000000015106500000000009214027700000000000000009999123100000010000000000000BRUSIMACNPA6169
012024091302VITT3       010VITTIA      ON      NM   R$  000000000061900000000006290000000000619000000000062500000000006280000000000623000000000062800713000000000000108800000000000068098800000000000000009999123100000010000000000000BRVITTACNOR4107
012024091302VIVA3       010VIVARA S.A. ON      NM   R$  000000000280500000000028860000000002790000000000285900000000028570000000002848000000000285709608000000000002128200000000006086153800000000000000009999123100000010000000000000BRVIVAACNOR0107
012024091302VIVR3       010VIVER       ON      NM   R$  000000000020600000000002120000000000206000000000020700000000002070000000000206000000000020800087000000000000047700000000000009901000000000000000009999123100000010000000000000BRVIVRACNOR4123
012024091302VIVT3       010TELEF BRASILON           R$  000000000548900000000055420000000005459000000000549000000000054850000000005477000000000548510283000000000001855500000000010187900000000000000000009999123100000010000000000000BRVIVTACNOR0184
012024091302VLID3       010VALID       ON      NM   R$  000000000225500000000024270000000002240000000000238500000000024240000000002418000000000242403702000000000000927000000000002210991600000000000000009999123100000010000000000000BRVLIDACNOR5144
012024091302MTRE3       010MITRE REALTYON      NM   R$  000000000036900000000003850000000000369000000000038000000000003840000000000382000000000038400903000000000000786800000000000299394600000000000000009999123100000010000000000000BRMTREACNOR6114
012024091302MTSA4       010METISA      PN           R$  000000000409000000000040900000000004069000000000407600000000040690000000003975000000000407000004000000000000000400000000000001630700000000000000009999123100000010000000000000BRMTSAACNPR9072
012024091302MULT3       010MULTIPLAN   ON      N2   R$  000000000269700000000027600000000002697000000000274600000000027520000000002750000000000275325348000000000007031900000000019312823100000000000000009999123100000010000000000000BRMULTACNOR5139
012024091302MWET4       010WETZEL S/A  PN           R$  000000000085700000000008570000000000857000000000085700000000008570000000000857000000000091800003000000000000002100000000000001799700000000000000009999123100000010000000000000BRMWETACNPR3118
012024091302SEER3       010SER EDUCA   ON      NM   R$  000000000064000000000006980000000000640000000000068200000000006890000000000689000000000069002886000000000000873100000000000595985000000000000000009999123100000010000000000000BRSEERACNOR5119
012024091302SEQL3       010SEQUOIA LOG ON      NM   R$  000000000056700000000005870000000000560000000000057100000000005650000000000564000000000056500841000000000000469300000000000268224400000000000000009999123100000010000000000000BRSEQLACNOR2103
012024091302SHOW3       010TIME FOR FUNON      NM   R$  000000000008800000000000960000000000088000000000009200000000000960000000000093000000000009600648000000000000352800000000000032486500000000000000009999123100000010000000000000BRSHOWACNOR7105
012024091302SHUL4       010SCHULZ      PN           R$  000000000064600000000006580000000000646000000000065100000000006470000000000647000000000064800469000000000000233000000000000151729200000000000000009999123100000010000000000000BRSHULACNPR4156
012024091302SIMH3       010SIMPAR      ON      NM   R$  000000000058100000000006100000000000581000000000059700000000005960000000000595000000000059708570000000000003749300000000002239361100000000000000009999123100000010000000000000BRSIMHACNOR0107
012024091302SYNE3       010SYN PROP TECON      NM   R$  000000000076800000000007980000000000768000000000078700000000007950000000000793000000000079501221000000000000462600000000000364475100000000000000009999123100000010000000000000BRSYNEACNOR2103
012024091302TAEE11      010TAESA       UNT     N2   R$  000000000351100000000035460000000003511000000000352800000000035160000000003516000000000352504917000000000001183200000000004175073800000000000000009999123100000010000000000000BRTAEECDAM10148
012024091302TAEE3       010TAESA       ON      N2   R$  000000000116700000000011760000000001166000000000117200000000011750000000001170000000000117500358000000000000057100000000000066922800000000000000009999123100000010000000000000BRTAEEACNOR9148
012024091302TAEE4       010TAESA       PN      N2   R$  000000000117500000000011850000000001175000000000118000000000011820000000001177000000000118200635000000000000127100000000000149992400000000000000009999123100000010000000000000BRTAEEACNPR6148
012024091302TASA3       010TAURUS ARMASON      N2   R$  000000000112300000000011290000000001115000000000112100000000011190000000001119000000000112400055000000000000012300000000000013794000000000000000009999123100000010000000000000BRTASAACNOR7104
012024091302TASA4       010TAURUS ARMASPN      N2   R$  000000000112000000000011310000000001111000000000111800000000011150000000001115000000000112000885000000000000217600000000000243350000000000000000009999123100000010000000000000BRTASAACNPR4104
012024091302TCSA3       010TECNISA     ON      NM   R$  000000000019100000000001950000000000191000000000019300000000001930000000000193000000000019400129000000000000074300000000000014350400000000000000009999123100000010000000000000BRTCSAACNOR3112
012024091302TECN3       010TECHNOS     ON      NM   R$  000000000051200000000005230000000000508000000000051100000000005080000000000508000000000051200302000000000000117700000000000060238100000000000000009999123100000010000000000000BRTECNACNOR6109
012024091302TELB3       010TELEBRAS    ON           R$  000000000137100000000013850000000001360000000000137500000000013600000000001359000000000139500008000000000000000900000000000001237900000000000000009999123100000010000000000000BRTELBACNOR2140
012024091302TELB4       010TELEBRAS    PN           R$  000000000093500000000009400000000000927000000000093400000000009300000000000929000000000093800005000000000000000600000000000000560800000000000000009999123100000010000000000000BRTELBACNPR9140
012024091302TEND3       010TENDA       ON      NM   R$  000000000128500000000013600000000001285000000000133100000000013580000000001351000000000135908607000000000003145300000000004189467100000000000000009999123100000010000000000000BRTENDACNOR4111
012024091302MILS3       010MILLS       ON      NM   R$  000000000111500000000011430000000001115000000000112900000000011230000000001123000000000112602819000000000000920400000000001039598300000000000000009999123100000010000000000000BRMILSACNOR2128
012024091302MLAS3       010MULTILASER  ON      NM   R$  000000000018000000000001850000000000180000000000018300000000001820000000000182000000000018301897000000000001303800000000000238666700000000000000009999123100000010000000000000BRMLASACNOR9101
012024091302MNDL3       010MUNDIAL     ON           R$  000000000143900000000014900000000001439000000000144200000000014900000000001341000000000150000006000000000000002200000000000003172700000000000000009999123100000010000000000000BRMNDLACNOR4109
012024091302MNPR3       010MINUPAR     ON           R$  000000000152000000000016180000000001520000000000159000000000016180000000001400000000000162000005000000000000000500000000000000795100000000000000009999123100000010000000000000BRMNPRACNOR5122
012024091302MOVI3       010MOVIDA      ON      NM   R$  000000000068000000000007350000000000680000000000071900000000007210000000000720000000000072213154000000000006609900000000004757365800000000000000009999123100000010000000000000BRMOVIACNOR0122
012024091302MRFG3       010MARFRIG     ON      NM   R$  000000000145000000000014820000000001418000000000144800000000014420000000001441000000000144512476000000000004222600000000006116559600000000000000009999123100000010000000000000BRMRFGACNOR0116
012024091302BEES3       010BANESTES    ON           R$  000000000089600000000008990000000000894000000000089700000000008990000000000896000000000089900062000000000000010400000000000009330900000000000000009999123100000010000000000000BRBEESACNOR9395
012024091302BEES4       010BANESTES    PN           R$  000000000095500000000009790000000000952000000000096000000000009600000000000960000000000097400018000000000000001800000000000001728700000000000000009999123100000010000000000000BRBEESACNPR6320
012024091302ASAI3       010ASSAI       ON      NM   R$  000000000089400000000009220000000000880000000000089600000000008800000000000880000000000088117116000000000024428400000000021903919900000000000000009999123100000010000000000000BRASAIACNOR0106
012024091302BIOM3       010BIOMM       ON      MA   R$  000000000099900000000010150000000000984000000000100200000000009940000000000993000000000099900305000000000000075200000000000075357400000000000000009999123100000010000000000000BRBIOMACNOR2112
012024091302BLAU3       010BLAU        ON      NM   R$  000000000136600000000014240000000001366000000000140600000000014240000000001400000000000142401953000000000000246100000000000346053500000000000000009999123100000010000000000000BRBLAUACNOR8114
012024091302BMEB3       010MERCANTIL   ON      N1   R$  000000000385000000000038500000000003850000000000385000000000038500000000003725000000000395000002000000000000000200000000000000770000000000000000009999123100000010000000000000BRBMEBACNOR8206
012024091302BMEB4       010MERCANTIL   PN      N1   R$  000000000405100000000042000000000004051000000000414600000000041900000000004180000000000419500074000000000000013900000000000057630700000000000000009999123100000010000000000000BRBMEBACNPR5211
012024091302BMGB4       010BANCO BMG   PN      N1   R$  000000000038700000000003930000000000386000000000039000000000003910000000000390000000000039100759000000000000555200000000000216650100000000000000009999123100000010000000000000BRBMGBACNPR0110
012024091302BMKS3       010BIC MONARK  ON           R$  000000003319900000000334500000000033199000000003333200000000334500000000032398000000003345000010000000000000000337000000000011232896000000000000009999123100000010000000000000BRBMKSACNOR9166
012024091302BMOB3       010BEMOBI TECH ON      NM   R$  000000000148500000000015160000000001485000000000149900000000014970000000001494000000000149700756000000000000102000000000000152996500000000000000009999123100000010000000000000BRBMOBACNOR7103
012024091302BRAV3       010BRAVA       ON      NM   R$  000000000215300000000022150000000002151000000000218900000000022070000000002197000000000220710358000000000003574100000000007825927000000000000000009999123100000010000000000000BRBRAVACNOR3100
012024091302CPFE3       010CPFL ENERGIAON      NM   R$  000000000338100000000034430000000003381000000000341500000000034000000000003400000000000340606573000000000001701100000000005810016800000000000000009999123100000010000000000000BRCPFEACNOR0137
012024091302EGIE3       010ENGIE BRASILON      NM   R$  000000000439500000000044400000000004391000000000441500000000044120000000004409000000000441803613000000000000879500000000003883512200000000000000009999123100000010000000000000BREGIEACNOR9127
012024091302EKTR4       010ELEKTRO     PN           R$  000000000437100000000045530000000004371000000000449200000000045530000000004381000000000455300003000000000000000300000000000001347700000000000000009999123100000010000000000000BREKTRACNPR7164
012024091302ELET3       010ELETROBRAS  ON      N1   R$  000000000418000000000042040000000004152000000000417600000000041520000000004152000000000415418421000000000006599300000000027563150800000000000000009999123100000010000000000000BRELETACNOR6160
012024091302GGPS3       010GPS         ON      NM   R$  000000000182700000000018770000000001826000000000185500000000018560000000001855000000000186504379000000000001601400000000002972050500000000000000009999123100000010000000000000BRGGPSACNOR9103
012024091302GMAT3       010GRUPO MATEUSON      NM   R$  000000000076400000000007660000000000739000000000074900000000007470000000000745000000000074807681000000000005547600000000004156745800000000000000009999123100000010000000000000BRGMATACNOR7102
012024091302GOAU3       010GERDAU MET  ON      N1   R$  000000000108800000000010960000000001081000000000108800000000010880000000001088000000000109500141000000000000022600000000000024589000000000000000009999123100000010000000000000BRGOAUACNOR1268
012024091302GOAU4       010GERDAU MET  PN      N1   R$  000000000107000000000010840000000001068000000000107700000000010770000000001076000000000108009739000000000006264200000000006748362900000000000000009999123100000010000000000000BRGOAUACNPR8269
012024091302PETR3       010PETROBRAS   ON      N2   R$  000000000408300000000041170000000004031000000000406300000000040370000000004035000000000404711752000000000006627900000000026931562900000000000000009999123100000010000000000000BRPETRACNOR9206
012024091302PETR4       010PETROBRAS   PN      N2   R$  000000000371100000000037550000000003659000000000369800000000036700000000003670000000000367738026000000000034729600000000128444127400000000000000009999123100000010000000000000BRPETRACNPR6214
012024091302PFRM3       010PROFARMA    ON      NM   R$  000000000061400000000006200000000000607000000000061600000000006180000000000618000000000061900404000000000000084100000000000051869400000000000000009999123100000010000000000000BRPFRMACNOR1116
012024091302PGMN3       010PAGUE MENOS ON      NM   R$  000000000028900000000002990000000000289000000000029500000000002980000000000295000000000029801491000000000000416900000000000123166300000000000000009999123100000010000000000000BRPGMNACNOR8103
012024091302PINE3       010PINE        ON      N2   R$  000000000049900000000005000000000000499000000000049900000000005000000000000495000000000050000013000000000000003800000000000001899900000000000000009999123100000010000000000000BRPINEACNOR1150
012024091302PINE4       010PINE        PN      N2   R$  000000000049000000000004900000000000483000000000048600000000004840000000000484000000000048600192000000000000065800000000000031998500000000000000009999123100000010000000000000BRPINEACNPR8150
012024091302PLPL3       010PLANOEPLANO ON      NM   R$  000000000120800000000012580000000001208000000000124500000000012550000000001248000000000125501492000000000000379800000000000472894300000000000000009999123100000010000000000000BRPLPLACNOR5104
012024091302PNVL3       010DIMED       ON      NM   R$  000000000101000000000010340000000001006000000000102400000000010310000000001025000000000103101632000000000000342200000000000350431500000000000000009999123100000010000000000000BRPNVLACNOR9207
012024091302POMO3       010MARCOPOLO   ON      N2   R$  000000000060100000000006170000000000599000000000061400000000006130000000000610000000000061601130000000000000291400000000000179122000000000000000009999123100000010000000000000BRPOMOACNOR0099
012024091302POMO4       010MARCOPOLO   PN      N2   R$  000000000077100000000008020000000000770000000000078700000000008000000000000799000000000080008949000000000009610500000000007570558900000000000000009999123100000010000000000000BRPOMOACNPR7099
012024091302AERI3       010AERIS       ON      NM   R$  000000000084500000000008950000000000845000000000087100000000008610000000000860000000000087600752000000000000237000000000000206651500000000000000009999123100000010000000000000BRAERIACNOR4102
012024091302AESB3       010AES BRASIL  ON      NM   R$  000000000115800000000011620000000001158000000000116000000000011600000000001160000000000116101877000000000002530500000000002936509800000000000000009999123100000010000000000000BRAESBACNOR7107
012024091302AGRO3       010BRASILAGRO  ON      NM   R$  000000000265700000000026910000000002651000000000267600000000026620000000002662000000000267801093000000000000191600000000000512800200000000000000009999123100000010000000000000BRAGROACNOR7114
012024091302AGXY3       010AGROGALAXY  ON      NM   R$  000000000011100000000001130000000000111000000000011200000000001130000000000112000000000011300199000000000000087600000000000009831600000000000000009999123100000010000000000000BRAGXYACNOR4103
012024091302AHEB3       010SPTURIS     ON           R$  000000000372500000000037250000000003725000000000372500000000037250000000003250000000000395000001000000000000000100000000000000372500000000000000009999123100000010000000000000BRAHEBACNOR0106
012024091302RPAD6       010ALFA HOLDINGPNB          R$  000000000092800000000009280000000000928000000000092800000000009280000000000928000000000095000001000000000000000100000000000000092800000000000000009999123100000010000000000000BRRPADACNPB2198
012024091302RSUL4       010RIOSULENSE  PN           R$  000000000645200000000065840000000006350000000000646700000000065720000000006300000000000657300021000000000000002500000000000016168700000000000000009999123100000010000000000000BRRSULACNPR3114
012024091302SMFT3       010SMART FIT   ON      NM   R$  000000000223400000000023340000000002234000000000231700000000023120000000002312000000000233007352000000000002804400000000006497995600000000000000009999123100000010000000000000BRSMFTACNOR1112
012024091302SMTO3       010SAO MARTINHOON      NM   R$  000000000261100000000026550000000002592000000000262400000000026200000000002620000000000262809714000000000001729000000000004537867800000000000000009999123100000010000000000000BRSMTOACNOR3127
012024091302SNSY5       010SANSUY      PNA          R$  000000000056700000000005950000000000567000000000057600000000005800000000000573000000000059200033000000000000011500000000000006634800000000000000009999123100000010000000000000BRSNSYACNPA5111
012024091302SOJA3       010BOA SAFRA   ON      NM   R$  000000000127800000000013050000000001277000000000128900000000012850000000001284000000000129001529000000000000344400000000000444112800000000000000009999123100000010000000000000BRSOJAACNOR9105
012024091302SRNA3       010SERENA      ON      NM   R$  000000000088000000000009100000000000880000000000089700000000008910000000000891000000000090104677000000000005608100000000005030686800000000000000009999123100000010000000000000BRSRNAACNOR4100
012024091302STBP3       010SANTOS BRP  ON      NM   R$  000000000132500000000013580000000001317000000000133900000000013190000000001319000000000132307733000000000003467900000000004645638600000000000000009999123100000010000000000000BRSTBPACNOR3131
012024091302SUZB3       010SUZANO S.A. ON      NM   R$  000000000543900000000054980000000005416000000000544900000000054290000000005427000000000543010679000000000002673700000000014570855800000000000000009999123100000010000000000000BRSUZBACNOR0130
012024091307NUTR3       010NUTRIPLANT  ON      MA   R$  000000000047800000000004790000000000467000000000047400000000004790000000000474000000000048000017000000000000001900000000000000902200000000000000009999123100000010000000000000BRNUTRACNOR0104
012024091308OIBR3       010OI          ON      N1   R$  000000000049500000000005300000000000493000000000050900000000005230000000000520000000000052301856000000000001120000000000000570176600000000000000009999123100000010000000000000BROIBRACNOR1112
012024091308OIBR4       010OI          PN      N1   R$  000000000113600000000011410000000001110000000000112700000000011320000000001104000000000114000015000000000000001900000000000002142700000000000000009999123100000010000000000000BROIBRACNPR8111
012024091308OSXB3       010OSX BRASIL  ON      NM   R$  000000000040200000000004040000000000390000000000039600000000004040000000000397000000000040200023000000000000005400000000000002142500000000000000009999123100000010000000000000BROSXBACNOR8109
012024091308LIGT3       010LIGHT S/A   ON      NM   R$  000000000078700000000008230000000000787000000000080800000000008040000000000797000000000080404117000000000000973500000000000786947400000000000000009999123100000010000000000000BRLIGTACNOR2124
012024091308HOOT4       010HOTEIS OTHONPN           R$  000000000022600000000002260000000000225000000000022500000000002250000000000224000000000022900007000000000000001400000000000000315900000000000000009999123100000010000000000000BRHOOTACNPR9015
012024091308ATMP3       010ATMASA      ON           R$  000000000013300000000001390000000000133000000000013500000000001390000000000135000000000013900015000000000000020200000000000002732900000000000000009999123100000010000000000000BRATMPACNOR8100
012024091308CTSA3       010SANTANENSE  ON           R$  000000000027700000000002790000000000277000000000027800000000002770000000000263000000000027700009000000000000001400000000000000390100000000000000009999123100000010000000000000BRCTSAACNOR3062
012024091308CTSA4       010SANTANENSE  PN           R$  000000000011800000000001200000000000116000000000011800000000001190000000000117000000000011900184000000000000051600000000000006089400000000000000009999123100000010000000000000BRCTSAACNPR0062
012024091308JFEN3       010JOAO FORTES ON           R$  000000000002300000000000280000000000023000000000002600000000000280000000000028000000000002900782000000000006108300000000000158901500000000000000009999123100000010000000000000BRJFENACNOR0059
012024091308AMER3       010AMERICANAS  ON      NM   R$  000000000067000000000006720000000000655000000000066200000000006580000000000658000000000066002929000000000004628000000000003066824500000000000000009999123100000010000000000000BRAMERACNOR6103
012024091308RNEW11      010RENOVA      UNT     N2   R$  000000000029900000000003040000000000293000000000029700000000003030000000000300000000000030700028000000000000004500000000000001339000000000000000009999123100000010000000000000BRRNEWCDAM15110
012024091308RNEW3       010RENOVA      ON      N2   R$  000000000010100000000001020000000000097000000000009800000000001000000000000100000000000010100171000000000000170000000000000016823300000000000000009999123100000010000000000000BRRNEWACNOR8110
012024091308RNEW4       010RENOVA      PN      N2   R$  000000000010100000000001020000000000096000000000009900000000001020000000000099000000000010200242000000000000221400000000000021923300000000000000009999123100000010000000000000BRRNEWACNPR5110
012024091308NEXP3       010NEXPE       ON           R$  000000000040500000000004080000000000400000000000040400000000004080000000000403000000000040900007000000000000001100000000000000444900000000000000009999123100000010000000000000BRNEXPACNOR0101
012024091308PMAM3       010PARANAPANEMAON      NM   R$  000000000017700000000001770000000000172000000000017300000000001760000000000176000000000017700203000000000000043500000000000007542700000000000000009999123100000010000000000000BRPMAMACNOR3039
012024091308RPMG3       010PET MANGUINHON           R$  000000000029800000000003020000000000290000000000029700000000002980000000000294000000000030000201000000000000080600000000000023949900000000000000009999123100000010000000000000BRRPMGACNOR9194
012024091308RSID3       010ROSSI RESID ON      NM   R$  000000000041200000000004120000000000396000000000040200000000004000000000000400000000000041100038000000000000009400000000000003783900000000000000009999123100000010000000000000BRRSIDACNOR8120
012024091310RENT9       010LOCALIZA    ON  REC NM   R$  000000000437800000000043800000000004356000000000435800000000043800000000004310000000000000000010000000000000016200000000000070615400000000000000009999123100000010000000000000BRRENTR06OR8195
012024091310GFSA9       010GAFISA      ON  REC NM   R$  000000000021100000000002110000000000211000000000021100000000002110000000000211000000000024100001000000000000000100000000000000021100000000000000009999123100000010000000000000BRGFSAR11OR7124
012024091310OIBR1       010OI          DIR ORD N1   R$  000000000000500000000000070000000000005000000000000500000000000070000000000006000000000000702542000000000008364400000000000049221800000000000000009999123100000010000000000000BROIBRD05OR7111
012024091310BGIP2       010BANESE      DIR PRE      R$  000000000029800000000002980000000000270000000000028500000000002710000000000200000000000025000006000000000000001100000000000000314300000000000000009999123100000010000000000000BRBGIPD08PR8209
012024091310EQTL1       010EQUATORIAL  DIR ORD NM   R$  000000000016500000000001810000000000156000000000016700000000001660000000000166000000000018000689000000000000450500000000000075485200000000000000009999123100000010000000000000BREQTLD04OR9130
012024091310DASA1       010DASA        DIR ORD NM   R$  000000000001200000000000370000000000012000000000002100000000000130000000000012000000000001300098000000000000107600000000000002267500000000000000009999123100000010000000000000BRDASAD04OR0122
012024091310AESB1       010AES BRASIL  DIR ORD NM   R$  000000000005000000000000550000000000046000000000005000000000000550000000000050000000000005500055000000000000026500000000000001343200000000000000009999123100000010000000000000BRAESBD03OR8106
012024091312RECR11      010FII REC RECECI  ER       R$  000000000814500000000082800000000008131000000000821800000000082240000000008213000000000822404740000000000000027362000000000224869244000000000000009999123100000010000000000000BRRECRCTF004154
012024091312RECT11      010FII REC RENDCI  ER       R$  000000000335200000000033780000000003348000000000336100000000033660000000003366000000000336900855000000000000013134000000000044144265000000000000009999123100000010000000000000BRRECTCTF000170
012024091312RECX11      010FII REC FOF CI           R$  000000000630000000000064980000000006300000000000633900000000064980000000006252000000000649800005000000000000000374000000000002370802000000000000009999123100000010000000000000BRRECXCTF002140
012024091312RELG11      010FII REC LOG CI  ER       R$  000000000620400000000063100000000006114000000000622700000000062880000000006230000000000627000360000000000000001502000000000009353494000000000000009999123100000010000000000000BRRELGCTF008138
012024091312WHGR11      010FII WHG REALCI           R$  000000000096600000000009660000000000953000000000095700000000009530000000000953000000000095903028000000000000063706000000000061009993000000000000009999123100000010000000000000BRWHGRCTF008128
012024091312WPLZ11      010FII W PLAZA CI           R$  000000000592300000000059440000000005800000000000583300000000058000000000005800000000000594400009000000000000000059000000000000344163000000000000009999123100000010000000000000BRWPLZCTF004269
012024091312WSEC11      010FII WARREN  CI  ER       R$  000000000086500000000008680000000000827000000000086300000000008680000000000865000000000086600982000000000000007159000000000006179410000000000000009999123100000010000000000000BRWSECCTF010124
012024091312WTSP11      010FII WTC SP  CI           R$  000000000500000000000050000000000005000000000000500000000000050000000000005000000000000579400001000000000000000010000000000000050000000000000000009999123100000010000000000000BRWTSPCTF002165
012024091312XPCI11      010FII XP CRED CI           R$  000000000870800000000087660000000008708000000000874400000000087500000000008750000000000875502644000000000000016580000000000144983978000000000000009999123100000010000000000000BRXPCICTF007160
012024091312XPCM11      010FII XP MACAECI           R$  000000000074700000000007490000000000740000000000074400000000007490000000000747000000000074900158000000000000005480000000000004077904000000000000009999123100000010000000000000BRXPCMCTF009230
012024091312XPIN11      010FII XP INDL CI           R$  000000000769700000000076970000000007590000000000766100000000076800000000007656000000000767500922000000000000006505000000000049839609000000000000009999123100000010000000000000BRXPINCTF004176
012024091312NSLU11      010FII LOURDES CI           R$  000000001790000000000179000000000017851000000001789900000000179000000000017801000000001790000053000000000000000243000000000004349562000000000000009999123100000010000000000000BRNSLUCTF008314
012024091312TRXB11      010FII TRX R IICI           R$  000000001501500000000156500000000014104000000001452300000000156500000000014200000000001565000010000000000000000041000000000000595458000000000000009999123100000010000000000000BRTRXBCTF002154
012024091312TRXF11      010FII TRX REALCI           R$  000000001052900000000106000000000010501000000001054900000000105400000000010535000000001054012504000000000000094886000000001001028573000000000000009999123100000010000000000000BRTRXFCTF003167
012024091312TVRI11      010FII TIVIO RICI           R$  000000001000000000000100180000000009950000000000998200000000099590000000009957000000000995904980000000000000032671000000000326135304000000000000009999123100000010000000000000BRTVRICTF001111
012024091312FIIB11      010FII INDL BR CI           R$  000000005019000000000506000000000050114000000005044000000000503990000000050399000000005046900133000000000000000353000000000017805482000000000000009999123100000010000000000000BRFIIBCTF001254
012024091312FIIP11B     010FII RB CAP ICI      MB   R$  000000001719700000000171980000000016943000000001713000000000171860000000017140000000001718700038000000000000000288000000000004933452000000000000009999123100000010000000000000BRFIIPCTF001277
012024091312FISC11      010FII SC 401  CI  ER       R$  000000000716100000000075000000000007161000000000729200000000075000000000007500000000000950000004000000000000000016000000000000116681000000000000009999123100000010000000000000BRFISCCTF008139
012024091312FIVN11      010FII VIDANOVACI           R$  000000000027700000000002830000000000276000000000028000000000002780000000000276000000000027800018000000000000000074000000000000020762000000000000009999123100000010000000000000BRFIVNCTF009100
012024091312FLCR11      010FII FL RECEBCI  ER       R$  000000000971200000000097490000000009712000000000974300000000097460000000009746000000000974700063000000000000000428000000000004170424000000000000009999123100000010000000000000BRFLCRCTF004145
012024091312FLMA11      010FII S F LIMACI  ER       R$  000000001425100000000143700000000013855000000001407500000000139020000000013902000000001410000733000000000000001940000000000027305508000000000000009999123100000010000000000000BRFLMACTF009345
012024091312FLRP11      010FII FLORIPA CI           R$  000000020000000000002025990000000195101000000019935800000001954000000000195400000000020519900024000000000000000025000000000004983959000000000000009999123100000010000000000000BRFLRPCTF006274
012024091312FMOF11      010FII MEMORIALCI           R$  000000000474000000000047400000000004738000000000473800000000047380000000004236000000000473700006000000000000000052000000000000246379000000000000009999123100000010000000000000BRFMOFCTF010258
012024091312FPAB11      010FII A BRANCACI  ER       R$  000000002400000000000240000000000024000000000002400000000000240000000000023500000000002399500002000000000000000002000000000000048000000000000000009999123100000010000000000000BRFPABCTF011317
012024091312FVPQ11      010FII V PARQUECI           R$  000000000682700000000068290000000006750000000000678200000000067650000000006765000000000680500570000000000000000958000000000006497694000000000000009999123100000010000000000000BRFVPQCTF015262
012024091312GAME11      010FII GUARD MUCI  ER       R$  000000000091400000000009180000000000914000000000091600000000009160000000000916000000000091700346000000000000091383000000000083795817000000000000009999123100000010000000000000BRGAMECTF002135
012024091312GARE11      010FII GUARDIANCI           R$  000000000091700000000009200000000000915000000000091700000000009160000000000916000000000091727596000000000000567810000000000520974775000000000000009999123100000010000000000000BRGARECTF001107
012024091312GCRI11      010FII GLPG CRICI  ER       R$  000000000700000000000070260000000006945000000000697500000000069500000000006946000000000698400213000000000000002854000000000019907807000000000000009999123100000010000000000000BRGCRICTF008147
012024091312IRDM11      010FII IRIDIUM CI  ER       R$  000000000699500000000070250000000006991000000000700800000000070100000000007001000000000701004628000000000000045446000000000318491451000000000000009999123100000010000000000000BRIRDMCTF004189
012024091312IRIM11      010FII IRIM    CI  ER       R$  000000000739400000000073940000000007320000000000735800000000073580000000007335000000000735800027000000000000000255000000000001876303000000000000009999123100000010000000000000BRIRIMCTF003138
012024091312ITIP11      010FII INTER IPCI           R$  000000000739900000000073990000000007201000000000727300000000072010000000007201000000000727900141000000000000001140000000000008291972000000000000009999123100000010000000000000BRITIPCTF002132
012024091312ITIT11      010FII INTER ITCI           R$  000000000769000000000076900000000007602000000000761400000000076600000000007611000000000766100130000000000000000612000000000004660289000000000000009999123100000010000000000000BRITITCTF004132
012024091312ITRI11      010FII ITRI    CI           R$  000000000885700000000089210000000008829000000000886700000000088680000000008867000000000886801880000000000000012097000000000107275725000000000000009999123100000010000000000000BRITRICTF008105
012024091312BCFF11      010FII BC FFII CI  ER       R$  000000000082100000000008300000000000821000000000082400000000008230000000000823000000000082411641000000000000326440000000000269094364000000000000009999123100000010000000000000BRBCFFCTF000281
012024091312BCIA11      010FII BCIA    CI           R$  000000001011700000000102580000000010056000000001013700000000101590000000010105000000001015901040000000000000006827000000000069211013000000000000009999123100000010000000000000BRBCIACTF005213
012024091312BCRI11      010FII BEES CRICI           R$  000000000679700000000068590000000006797000000000683800000000068390000000006839000000000684900577000000000000005017000000000034311006000000000000009999123100000010000000000000BRBCRICTF009218
012024091312CEOC11      010FII CEO CCP CI  ER       R$  000000000439700000000044300000000004362000000000439400000000043990000000004364000000000439900039000000000000000623000000000002737704000000000000009999123100000010000000000000BRCEOCCTF003218
012024091312PULV11      010FII PULV    CI           R$  000000000095800000000009580000000000930000000000093000000000009310000000000930000000000093500038000000000000013084000000000012179093000000000000009999123100000010000000000000BRPULVCTF007104
012024091312PVBI11      010FII VBI PRI CI           R$  000000000908100000000091180000000008966000000000903200000000090360000000009036000000000903722941000000000000080964000000000731287686000000000000009999123100000010000000000000BRPVBICTF003155
012024091312QAGR11      010FII QUASAR ACI           R$  000000000470000000000047350000000004700000000000471300000000047220000000004711000000000472200283000000000000011269000000000053110814000000000000009999123100000010000000000000BRQAGRCTF005158
012024091312XPLG11      010FII XP LOG  CI           R$  000000001018300000000102100000000010164000000001018500000000101970000000010197000000001019806576000000000000028130000000000286523319000000000000009999123100000010000000000000BRXPLGCTF002181
012024091312XPML11      010FII XP MALLSCI           R$  000000001121100000000112440000000011190000000001120700000000112000000000011200000000001120123433000000000000165981000000001860314293000000000000009999123100000010000000000000BRXPMLCTF000187
012024091312XPPR11      010FII XP PROP CI           R$  000000000178100000000017970000000001781000000000178200000000017810000000001781000000000178400361000000000000006005000000000010702920000000000000009999123100000010000000000000BRXPPRCTF000158
012024091312XPSF11      010FII XP SELECCI           R$  000000000074500000000007450000000000730000000000074100000000007440000000000742000000000074407873000000000000165844000000000122897738000000000000009999123100000010000000000000BRXPSFCTF009159
012024091312LSPA11      010FII LESTE PACI           R$  000000000483000000000051390000000004402000000000459400000000045880000000004400000000000458800214000000000000001597000000000007337037000000000000009999123100000010000000000000BRLSPACTF005142
