00COTAHIST.2024BOVESPA 20240903                                                                                                                                                                                                                      
012024090302AALR3       010ALLIAR      ON      NM   R$  000000000160400000000016490000000001550000000000160600000000016000000000001551000000000160000154000000000000040800000000000065546000000000000000009999123100000010000000000000BRAALRACNOR6102
012024090302ABCB4       010ABC BRASIL  PN      N2   R$  000000000233100000000023480000000002300000000000233500000000023400000000002322000000000234003891000000000000775900000000001811840100000000000000009999123100000010000000000000BRABCBACNPR4146
012024090302ABEV3       010AMBEV S/A   ON           R$  000000000129100000000012950000000001278000000000128400000000012800000000001279000000000128315986000000000019701100000000025297634500000000000000009999123100000010000000000000BRABEVACNOR1128
012024090302BAHI3       010BAHEMA      ON      MA   R$  000000000065100000000006630000000000651000000000065800000000006630000000000663000000000067700008000000000000001500000000000000987500000000000000009999123100000010000000000000BRBAHIACNOR1074
012024090302BALM4       010BAUMER      PN           R$  000000000111000000000011150000000001060000000000108000000000010600000000001060000000000111000005000000000000002700000000000002918000000000000000009999123100000010000000000000BRBALMACNPR2056
012024090302BAZA3       010AMAZONIA    ON           R$  000000000930600000000096000000000009306000000000945600000000094220000000009422000000000958900035000000000000006500000000000061464100000000000000009999123100000010000000000000BRBAZAACNOR0179
012024090302BBAS3       010BRASIL      ON      NM   R$  000000000284400000000028770000000002838000000000286300000000028680000000002868000000000286933626000000000014433300000000041336265500000000000000009999123100000010000000000000BRBBASACNOR3325
012024090302BRBI11      010BR PARTNERS UNT     N2   R$  000000000151300000000015130000000001457000000000147600000000014700000000001470000000000147102302000000000000688000000000001015866300000000000000009999123100000010000000000000BRBRBICDAM10110
012024090302BRFS3       010BRF SA      ON      NM   R$  000000000247400000000024970000000002426000000000244300000000024470000000002446000000000244817153000000000006214100000000015181121900000000000000009999123100000010000000000000BRBRFSACNOR8122
012024090302CTKA4       010KARSTEN     PN           R$  000000000194900000000019490000000001900000000000191300000000019000000000001900000000000195000005000000000000000600000000000001147900000000000000009999123100000010000000000000BRCTKAACNPR7043
012024090302CURY3       010CURY S/A    ON      NM   R$  000000000239200000000024470000000002392000000000241500000000024070000000002407000000000242807999000000000003029700000000007317079400000000000000009999123100000010000000000000BRCURYACNOR3109
012024090302CVCB3       010CVC BRASIL  ON      NM   R$  000000000019300000000001990000000000188000000000019200000000001910000000000190000000000019109306000000000017743500000000003423394400000000000000009999123100000010000000000000BRCVCBACNOR1116
012024090302CXSE3       010CAIXA SEGURION      NM   R$  000000000161700000000016470000000001605000000000163600000000016380000000001638000000000163916147000000000005831000000000009543332900000000000000009999123100000010000000000000BRCXSEACNOR7107
012024090302ESPA3       010ESPACOLASER ON      NM   R$  000000000011600000000001190000000000112000000000011400000000001140000000000112000000000011400355000000000000466300000000000053515000000000000000009999123100000010000000000000BRESPAACNOR7103
012024090302ESTR4       010ESTRELA     PN           R$  000000000021800000000002250000000000207000000000021800000000002070000000000207000000000024700007000000000000000900000000000000196600000000000000009999123100000010000000000000BRESTRACNPR0144
012024090302ETER3       010ETERNIT     ON      NM   R$  000000000059000000000005920000000000572000000000058100000000005780000000000575000000000057800572000000000000231700000000000134720600000000000000009999123100000010000000000000BRETERACNOR3244
012024090302EUCA3       010EUCATEX     ON      N1   R$  000000000170100000000017010000000001700000000000170000000000017000000000001700000000000173900003000000000000000600000000000001020100000000000000009999123100000010000000000000BREUCAACNOR1157
012024090302EUCA4       010EUCATEX     PN      N1   R$  000000000155700000000015780000000001543000000000155400000000015600000000001560000000000156300185000000000000023700000000000036851700000000000000009999123100000010000000000000BREUCAACNPR8044
012024090302EVEN3       010EVEN        ON      NM   R$  000000000064600000000006640000000000641000000000065300000000006410000000000641000000000064904238000000000001483300000000000969197500000000000000009999123100000010000000000000BREVENACNOR8119
012024090302EZTC3       010EZTEC       ON      NM   R$  000000000138000000000014050000000001365000000000137900000000013730000000001369000000000137405047000000000001438200000000001984374400000000000000009999123100000010000000000000BREZTCACNOR0126
012024090302LUPA3       010LUPATECH    ON      NM   R$  000000000015000000000001540000000000150000000000015200000000001510000000000151000000000015200077000000000000083800000000000012745700000000000000009999123100000010000000000000BRLUPAACNOR8112
012024090302LUXM4       010TREVISA     PN           R$  000000000134600000000013460000000001346000000000134600000000013460000000001201000000000134600002000000000000000200000000000000269200000000000000009999123100000010000000000000BRLUXMACNPR4052
012024090302LVTC3       010WDC NETWORKSON      NM   R$  000000000036100000000003780000000000356000000000036500000000003600000000000360000000000037500054000000000000020700000000000007566700000000000000009999123100000010000000000000BRLVTCACNOR4102
012024090302LWSA3       010LWSA        ON      NM   R$  000000000046300000000004660000000000445000000000045200000000004470000000000446000000000044806864000000000003851200000000001742548600000000000000009999123100000010000000000000BRLWSAACNOR8103
012024090302BEES3       010BANESTES    ON  EJ       R$  000000000090000000000009030000000000893000000000089500000000008970000000000895000000000089700101000000000000018600000000000016654100000000000000009999123100000010000000000000BRBEESACNOR9395
012024090302BEES4       010BANESTES    PN  EJ       R$  000000000097900000000009790000000000941000000000095600000000009550000000000947000000000096100028000000000000007400000000000007078100000000000000009999123100000010000000000000BRBEESACNPR6320
012024090302BGIP3       010BANESE      ON           R$  000000000248700000000024870000000002487000000000248700000000024870000000002487000000000255000001000000000000000100000000000000248700000000000000009999123100000010000000000000BRBGIPACNOR1209
012024090302BGIP4       010BANESE      PN           R$  000000000245000000000024750000000002430000000000245300000000024300000000002430000000000248000005000000000000000500000000000001226500000000000000009999123100000010000000000000BRBGIPACNPR8209
012024090302BHIA3       010CASAS BAHIA ON      NM   R$  000000000070500000000007240000000000621000000000066000000000006220000000000621000000000062207430000000000007391700000000004885643200000000000000009999123100000010000000000000BRBHIAACNOR1102
012024090302BPAN4       010BANCO PAN   PN      N1   R$  000000000103000000000010340000000001012000000000102000000000010200000000001019000000000102003976000000000001185400000000001209251100000000000000009999123100000010000000000000BRBPANACNPR1115
012024090302SNSY5       010SANSUY      PNA          R$  000000000058400000000006050000000000584000000000059700000000006050000000000581000000000060500004000000000000001000000000000000597400000000000000009999123100000010000000000000BRSNSYACNPA5111
012024090302SOJA3       010BOA SAFRA   ON      NM   R$  000000000130000000000013080000000001283000000000128900000000012850000000001285000000000128803199000000000000674900000000000870379800000000000000009999123100000010000000000000BRSOJAACNOR9105
012024090302SRNA3       010SERENA      ON      NM   R$  000000000079600000000008200000000000795000000000080900000000008110000000000811000000000081307490000000000003986500000000003226795800000000000000009999123100000010000000000000BRSRNAACNOR4100
012024090302STBP3       010SANTOS BRP  ON      NM   R$  000000000132300000000013670000000001305000000000134000000000013430000000001340000000000134419467000000000006920000000000009276122700000000000000009999123100000010000000000000BRSTBPACNOR3131
012024090302SUZB3       010SUZANO S.A. ON      NM   R$  000000000548600000000055110000000005411000000000545900000000054590000000005458000000000546018708000000000004997200000000027282193600000000000000009999123100000010000000000000BRSUZBACNOR0130
012024090302WEGE3       010WEG         ON      NM   R$  000000000523800000000053110000000005220000000000527300000000052800000000005280000000000528220338000000000004760400000000025104394100000000000000009999123100000010000000000000BRWEGEACNOR0224
012024090302RAIL3       010RUMO S.A.   ON      NM   R$  000000000216400000000021730000000002138000000000214900000000021430000000002142000000000215228029000000000027721100000000059575533800000000000000009999123100000010000000000000BRRAILACNOR9105
012024090302RAIZ4       010RAIZEN      PN      N2   R$  000000000031700000000003190000000000312000000000031400000000003120000000000312000000000031306350000000000008074600000000002543439300000000000000009999123100000010000000000000BRRAIZACNPR6111
012024090302SEQL3       010SEQUOIA LOG ON      NM   R$  000000000062100000000006330000000000583000000000060000000000005840000000000583000000000058401143000000000000454200000000000272537100000000000000009999123100000010000000000000BRSEQLACNOR2103
012024090302SHOW3       010TIME FOR FUNON      NM   R$  000000000010800000000001080000000000101000000000010200000000001010000000000101000000000010200355000000000000437500000000000044987300000000000000009999123100000010000000000000BRSHOWACNOR7105
012024090302SHUL4       010SCHULZ      PN           R$  000000000066500000000006670000000000659000000000066300000000006590000000000658000000000065900342000000000000147000000000000097510300000000000000009999123100000010000000000000BRSHULACNPR4156
012024090302SIMH3       010SIMPAR      ON      NM   R$  000000000061400000000006270000000000598000000000060600000000006000000000000600000000000060205737000000000003563500000000002161949000000000000000009999123100000010000000000000BRSIMHACNOR0107
012024090302SLCE3       010SLC AGRICOLAON      NM   R$  000000000174200000000017530000000001734000000000174300000000017470000000001745000000000174705040000000000001651200000000002878798300000000000000009999123100000010000000000000BRSLCEACNOR2125
012024090302VBBR3       010VIBRA       ON      NM   R$  000000000254000000000025800000000002523000000000256600000000025720000000002568000000000257322065000000000009198500000000023605472900000000000000009999123100000010000000000000BRVBBRACNOR1108
012024090302HYPE3       010HYPERA      ON      NM   R$  000000000282100000000028470000000002788000000000280700000000028050000000002805000000000281013075000000000003616600000000010154060000000000000000009999123100000010000000000000BRHYPEACNOR0143
012024090302JHSF3       010JHSF PART   ON  ED  NM   R$  000000000044400000000004470000000000440000000000044300000000004440000000000444000000000044505134000000000003476000000000001540280700000000000000009999123100000010000000000000BRJHSFACNOR2139
012024090302MRSA3B      010MRS LOGIST  ON      MB   R$  000000000300000000000030000000000003000000000000300000000000030000000000002900000000000319000005000000000000000600000000000001800000000000000000009999123100000010000000000000BRMRSAACNOR6125
012024090302MRSA5B      010MRS LOGIST  PNA     MB   R$  000000000290000000000029000000000002900000000000290000000000029000000000002850000000000325000001000000000000000200000000000000580000000000000000009999123100000010000000000000BRMRSAACNPA9125
012024090302MRSA6B      010MRS LOGIST  PNB     MB   R$  000000000290000000000029000000000002900000000000290000000000029000000000002900000000000000000001000000000000000200000000000000580000000000000000009999123100000010000000000000BRMRSAACNPB7125
012024090302MRVE3       010MRV         ON      NM   R$  000000000073600000000007480000000000722000000000072900000000007230000000000723000000000072407834000000000008574500000000006251342100000000000000009999123100000010000000000000BRMRVEACNOR2127
012024090302MTRE3       010MITRE REALTYON  ED  NM   R$  000000000037400000000003830000000000371000000000037700000000003730000000000372000000000037302649000000000001179600000000000445288700000000000000009999123100000010000000000000BRMTREACNOR6114
012024090302MTSA4       010METISA      PN           R$  000000000431700000000043170000000004317000000000431700000000043170000000004295000000000431700007000000000000000900000000000003885300000000000000009999123100000010000000000000BRMTSAACNPR9072
012024090302MULT3       010MULTIPLAN   ON      N2   R$  000000000253700000000025710000000002533000000000255600000000025590000000002557000000000256313185000000000002679400000000006849575100000000000000009999123100000010000000000000BRMULTACNOR5139
012024090302ODPV3       010ODONTOPREV  ON  ED  NM   R$  000000000112500000000011470000000001120000000000113800000000011370000000001137000000000114204808000000000001183900000000001347929100000000000000009999123100000010000000000000BRODPVACNOR4203
012024090302OFSA3       010OUROFINO S/AON      NM   R$  000000000221100000000022500000000002211000000000223500000000022500000000002210000000000230000006000000000000002200000000000004917200000000000000009999123100000010000000000000BROFSAACNOR7118
012024090302ONCO3       010ONCOCLINICASON      NM   R$  000000000066200000000006790000000000600000000000063100000000006000000000000600000000000060603553000000000003394500000000002142954800000000000000009999123100000010000000000000BRONCOACNOR6101
012024090302PETZ3       010PETZ        ON      NM   R$  000000000049500000000005080000000000477000000000049400000000004850000000000485000000000048607764000000000012819700000000006333464900000000000000009999123100000010000000000000BRPETZACNOR2110
012024090302RANI3       010IRANI       ON      NM   R$  000000000078000000000008020000000000780000000000079200000000007920000000000791000000000079303267000000000001146700000000000908306700000000000000009999123100000010000000000000BRRANIACNOR5073
012024090302RAPT3       010RANDON PART ON      N1   R$  000000000089100000000009080000000000886000000000089700000000008860000000000886000000000089000105000000000000014000000000000012571800000000000000009999123100000010000000000000BRRAPTACNOR7163
012024090302RAPT4       010RANDON PART PN      N1   R$  000000000112100000000011560000000001109000000000113200000000011270000000001127000000000112805497000000000002491300000000002821239400000000000000009999123100000010000000000000BRRAPTACNPR4163
012024090302ROMI3       010ROMI        ON      NM   R$  000000000110500000000011150000000001091000000000110200000000011000000000001100000000000110100855000000000000172500000000000190115500000000000000009999123100000010000000000000BRROMIACNOR8195
012024090302RPAD5       010ALFA HOLDINGPNA          R$  000000000087500000000008750000000000875000000000087500000000008750000000000882000000000088900001000000000000000100000000000000087500000000000000009999123100000010000000000000BRRPADACNPA4219
012024090302RRRP3       0103R PETROLEUMON      NM   R$  000000000266200000000026840000000002540000000000257400000000025470000000002546000000000254725826000000000010628900000000027364126800000000000000009999123100000010000000000000BRRRRPACNOR5103
012024090302SYNE3       010SYN PROP TECON      NM   R$  000000000081700000000008200000000000796000000000080300000000008000000000000799000000000080002101000000000001240900000000000997102000000000000000009999123100000010000000000000BRSYNEACNOR2103
012024090302TAEE11      010TAESA       UNT     N2   R$  000000000354500000000035860000000003536000000000357100000000035710000000003565000000000357405612000000000001350000000000004821682400000000000000009999123100000010000000000000BRTAEECDAM10148
012024090302TAEE3       010TAESA       ON      N2   R$  000000000117600000000011860000000001173000000000118000000000011860000000001179000000000118600379000000000000067100000000000079229700000000000000009999123100000010000000000000BRTAEEACNOR9148
012024090302TAEE4       010TAESA       PN      N2   R$  000000000118500000000011990000000001185000000000119300000000011950000000001188000000000119500715000000000000203400000000000242675500000000000000009999123100000010000000000000BRTAEEACNPR6148
012024090302WEST3       010WESTWING    ON      NM   R$  000000000009200000000000920000000000085000000000008500000000000890000000000088000000000009000065000000000000196400000000000016868500000000000000009999123100000010000000000000BRWESTACNOR3100
012024090302RCSL3       010RECRUSUL    ON           R$  000000000066300000000007140000000000487000000000056000000000005000000000000500000000000051002907000000000001517900000000000850343600000000000000009999123100000010000000000000BRRCSLACNOR4134
012024090302RCSL4       010RECRUSUL    PN           R$  000000000010200000000001120000000000098000000000010400000000001010000000000100000000000010101187000000000001711100000000000179327500000000000000009999123100000010000000000000BRRCSLACNPR1134
012024090302RDNI3       010RNI         ON      NM   R$  000000000032400000000003240000000000313000000000031400000000003130000000000313000000000032000017000000000000005300000000000001665800000000000000009999123100000010000000000000BRRDNIACNOR9116
012024090302RDOR3       010REDE D OR   ON      NM   R$  000000000322000000000032690000000003172000000000323100000000032390000000003237000000000323924357000000000009612800000000031067990400000000000000009999123100000010000000000000BRRDORACNOR8113
012024090302RECV3       010PETRORECSA  ON      NM   R$  000000000202000000000020490000000001997000000000201000000000020020000000002002000000000201007671000000000002174500000000004371782400000000000000009999123100000010000000000000BRRECVACNOR3107
012024090302SMFT3       010SMART FIT   ON      NM   R$  000000000218700000000021940000000002118000000000214100000000021400000000002140000000000214212038000000000003692400000000007907337900000000000000009999123100000010000000000000BRSMFTACNOR1112
012024090302SMTO3       010SAO MARTINHOON      NM   R$  000000000271800000000027720000000002688000000000270300000000026880000000002688000000000269106241000000000001202300000000003249961900000000000000009999123100000010000000000000BRSMTOACNOR3127
012024090302VIVR3       010VIVER       ON      NM   R$  000000000023000000000002360000000000208000000000021600000000002140000000000214000000000021700360000000000000154200000000000033340000000000000000009999123100000010000000000000BRVIVRACNOR4123
012024090302VIVT3       010TELEF BRASILON  EJ       R$  000000000523000000000053530000000005217000000000531700000000053210000000005318000000000532116560000000000002452200000000013040393900000000000000009999123100000010000000000000BRVIVTACNOR0184
012024090302VLID3       010VALID       ON      NM   R$  000000000225700000000022930000000002244000000000226500000000022590000000002259000000000226502839000000000000438200000000000992552400000000000000009999123100000010000000000000BRVLIDACNOR5144
012024090302VSTE3       010VESTE       ON      NM   R$  000000000129500000000013100000000001295000000000129700000000013100000000001300000000000131000006000000000000002800000000000003632000000000000000009999123100000010000000000000BRVSTEACNOR5103
012024090302VTRU3       010VITRUEDUCA  ON      NM   R$  000000000097700000000010170000000000961000000000098900000000009720000000000972000000000098700709000000000000115600000000000114336800000000000000009999123100000010000000000000BRVTRUACNOR3100
012024090302VULC3       010VULCABRAS   ON      NM   R$  000000000178500000000018620000000001776000000000184600000000018200000000001818000000000182006973000000000003698000000000006827701100000000000000009999123100000010000000000000BRVULCACNOR2161
012024090302VVEO3       010VIVEO       ON      NM   R$  000000000018400000000001920000000000184000000000018900000000001900000000000190000000000019103304000000000001244900000000000235487500000000000000009999123100000010000000000000BRVVEOACNOR0104
012024090302WHRL3       010WHIRLPOOL   ON           R$  000000000043600000000004430000000000436000000000043900000000004400000000000436000000000044200012000000000000002600000000000001143100000000000000009999123100000010000000000000BRWHRLACNOR5128
012024090302WHRL4       010WHIRLPOOL   PN           R$  000000000045800000000004600000000000450000000000045600000000004580000000000457000000000046000027000000000000016200000000000007402600000000000000009999123100000010000000000000BRWHRLACNPR2128
012024090302WIZC3       010WIZ CO      ON      NM   R$  000000000062000000000006200000000000593000000000060300000000005960000000000596000000000059702276000000000000605000000000000365407700000000000000009999123100000010000000000000BRWIZCACNOR5102
012024090302WLMM3       010WLM IND COM ON           R$  000000000288000000000028800000000002880000000000288000000000028800000000002650000000000288000001000000000000000200000000000000576000000000000000009999123100000010000000000000BRWLMMACNOR6119
012024090302VITT3       010VITTIA      ON      NM   R$  000000000062000000000006430000000000620000000000063300000000006280000000000627000000000063301589000000000000497500000000000315302200000000000000009999123100000010000000000000BRVITTACNOR4107
012024090302VIVA3       010VIVARA S.A. ON      NM   R$  000000000265200000000026740000000002628000000000265300000000026470000000002647000000000264810041000000000002094400000000005557907500000000000000009999123100000010000000000000BRVIVAACNOR0107
012024090302QUAL3       010QUALICORP   ON      NM   R$  000000000022400000000002340000000000214000000000022300000000002200000000000219000000000022004384000000000005973700000000001332799300000000000000009999123100000010000000000000BRQUALACNOR6120
012024090302EPAR3       010EMBPAR S/A  ON           R$  000000000057900000000005970000000000576000000000058100000000005850000000000577000000000058500022000000000000004700000000000002731400000000000000009999123100000010000000000000BREPARACNOR9105
012024090302EQPA3       010EQTL PARA   ON           R$  000000000061800000000006240000000000608000000000061800000000006230000000000613000000000062200033000000000000010600000000000006554300000000000000009999123100000010000000000000BREQPAACNOR1111
012024090302EQTL3       010EQUATORIAL  ON      NM   R$  000000000343500000000034470000000003400000000000342500000000034220000000003418000000000342423946000000000008143200000000027894920700000000000000009999123100000010000000000000BREQTLACNOR0131
012024090302IFCM3       010INFRACOMM   ON      NM   R$  000000000001500000000000160000000000014000000000001400000000000150000000000014000000000001505142000000000014895100000000000222432500000000000000009999123100000010000000000000BRIFCMACNOR8101
012024090302IGTI11      010IGUATEMI S.AUNT     N1   R$  000000000218500000000022200000000002175000000000221200000000022140000000002213000000000221405625000000000006000800000000013275403700000000000000009999123100000010000000000000BRIGTICDAM16106
012024090302IGTI3       010IGUATEMI S.AON      N1   R$  000000000027500000000002780000000000273000000000027300000000002730000000000273000000000027400060000000000000016400000000000004492100000000000000009999123100000010000000000000BRIGTIACNOR8106
012024090302INEP3       010INEPAR      ON           R$  000000000020600000000002080000000000192000000000019900000000001990000000000196000000000019900147000000000000093700000000000018658100000000000000009999123100000010000000000000BRINEPACNOR1143
012024090302INEP4       010INEPAR      PN           R$  000000000021300000000002150000000000202000000000020300000000002080000000000205000000000020800047000000000000024700000000000005037500000000000000009999123100000010000000000000BRINEPACNPR8143
012024090302INTB3       010INTELBRAS   ON      NM   R$  000000000217000000000022010000000002163000000000218000000000021800000000002172000000000218403127000000000000805500000000001756001100000000000000009999123100000010000000000000BRINTBACNOR9112
012024090302IRBR3       010IRBBRASIL REON      NM   R$  000000000492800000000052500000000004906000000000513900000000051960000000005195000000000520013559000000000003413100000000017543170500000000000000009999123100000010000000000000BRIRBRACNOR4111
012024090302KRSA3       010KORA SAUDE  ON      NM   R$  000000000006000000000000600000000000057000000000005800000000000580000000000058000000000005900091000000000000182800000000000010610300000000000000009999123100000010000000000000BRKRSAACNOR0100
012024090302LAND3       010TERRASANTAPAON      NM   R$  000000000127300000000012990000000001229000000000126000000000012290000000001229000000000125000322000000000000090600000000000114180100000000000000009999123100000010000000000000BRLANDACNOR9103
012024090302LAVV3       010LAVVI       ON      NM   R$  000000000081400000000008500000000000814000000000083800000000008250000000000823000000000082505540000000000004147300000000003479082200000000000000009999123100000010000000000000BRLAVVACNOR4113
012024090302LEVE3       010METAL LEVE  ON      NM   R$  000000000318200000000031840000000003146000000000316300000000031610000000003159000000000316101657000000000000269000000000000850884200000000000000009999123100000010000000000000BRLEVEACNOR2197
012024090302LJQQ3       010QUERO-QUERO ON      NM   R$  000000000041100000000004400000000000411000000000042400000000004230000000000421000000000042405776000000000003729200000000001583568100000000000000009999123100000010000000000000BRLJQQACNOR5104
012024090302B3SA3       010B3          ON      NM   R$  000000000124500000000012520000000001212000000000122500000000012150000000001215000000000121640699000000000038221000000000046832239200000000000000009999123100000010000000000000BRB3SAACNOR6133
012024090302BEEF3       010MINERVA     ON      NM   R$  000000000072400000000007270000000000712000000000071500000000007140000000000713000000000071507415000000000009800300000000007015543400000000000000009999123100000010000000000000BRBEEFACNOR6116
012024090302BPAC11      010BTGP BANCO  UNT     N2   R$  000000000352900000000035580000000003514000000000353400000000035400000000003537000000000354022764000000000006531300000000023082665000000000000000009999123100000010000000000000BRBPACUNT006119
012024090302BPAC3       010BTGP BANCO  ON      N2   R$  000000000160800000000016360000000001608000000000161700000000016360000000001614000000000163600005000000000000000500000000000000808500000000000000009999123100000010000000000000BRBPACACNOR7134
012024090302BPAC5       010BTGP BANCO  PNA     N2   R$  000000000095600000000009570000000000947000000000095200000000009470000000000943000000000095500012000000000000002200000000000002094600000000000000009999123100000010000000000000BRBPACACNPA0134
012024090302CPFE3       010CPFL ENERGIAON      NM   R$  000000000332500000000033760000000003316000000000335600000000033540000000003354000000000335606600000000000002464600000000008271249000000000000000009999123100000010000000000000BRCPFEACNOR0137
012024090302CSED3       010CRUZEIRO EDUON  ED  NM   R$  000000000036300000000003700000000000355000000000036000000000003550000000000355000000000036000760000000000000282900000000000102050500000000000000009999123100000010000000000000BRCSEDACNOR9105
012024090302CSMG3       010COPASA      ON      NM   R$  000000000236100000000024160000000002360000000000239800000000024040000000002404000000000241005694000000000001048600000000002515530600000000000000009999123100000010000000000000BRCSMGACNOR5174
012024090302ENEV3       010ENEVA       ON      NM   R$  000000000133800000000013620000000001337000000000135000000000013500000000001347000000000135014029000000000007556400000000010205485300000000000000009999123100000010000000000000BRENEVACNOR8106
012024090302UCAS3       010UNICASA     ON      NM   R$  000000000022500000000002280000000000225000000000022600000000002270000000000225000000000022700059000000000000009100000000000002061900000000000000009999123100000010000000000000BRUCASACNOR1113
012024090302UGPA3       010ULTRAPAR    ON      NM   R$  000000000225600000000022850000000002248000000000226800000000022690000000002269000000000227017153000000000004553000000000010327556500000000000000009999123100000010000000000000BRUGPAACNOR8156
012024090302LOGG3       010LOG COM PROPON      NM   R$  000000000226500000000023170000000002265000000000229200000000022750000000002275000000000228901868000000000000223600000000000512712300000000000000009999123100000010000000000000BRLOGGACNOR7107
012024090302LOGN3       010LOG-IN      ON      NM   R$  000000000360100000000036010000000003501000000000354900000000036000000000003581000000000360000132000000000000017100000000000060698900000000000000009999123100000010000000000000BRLOGNACNOR3105
012024090302LPSB3       010LOPES BRASILON      NM   R$  000000000016300000000001660000000000149000000000015600000000001550000000000155000000000015700360000000000000351700000000000055049900000000000000009999123100000010000000000000BRLPSBACNOR0114
012024090302LREN3       010LOJAS RENNERON      NM   R$  000000000174300000000017640000000001721000000000173400000000017230000000001723000000000172431495000000000021781200000000037785736400000000000000009999123100000010000000000000BRLRENACNOR1221
012024090302TASA3       010TAURUS ARMASON      N2   R$  000000000114100000000011410000000001115000000000112600000000011210000000001117000000000113900059000000000000010500000000000011832700000000000000009999123100000010000000000000BRTASAACNOR7104
012024090302TASA4       010TAURUS ARMASPN      N2   R$  000000000111000000000011310000000001109000000000111800000000011170000000001112000000000111701503000000000000365900000000000409098700000000000000009999123100000010000000000000BRTASAACNPR4104
012024090302TCSA3       010TECNISA     ON      NM   R$  000000000019400000000001940000000000191000000000019200000000001920000000000191000000000019200120000000000000035900000000000006911500000000000000009999123100000010000000000000BRTCSAACNOR3112
012024090302TECN3       010TECHNOS     ON      NM   R$  000000000054200000000005430000000000522000000000053200000000005220000000000522000000000052500209000000000000129500000000000068947400000000000000009999123100000010000000000000BRTECNACNOR6109
012024090302TELB3       010TELEBRAS    ON           R$  000000000139900000000013990000000001382000000000138600000000013820000000001377000000000140000003000000000000000300000000000000415800000000000000009999123100000010000000000000BRTELBACNOR2140
012024090302TELB4       010TELEBRAS    PN           R$  000000000097900000000009890000000000937000000000094600000000009400000000000940000000000096400044000000000000009100000000000008612000000000000000009999123100000010000000000000BRTELBACNPR9140
012024090302TEND3       010TENDA       ON      NM   R$  000000000133100000000013400000000001300000000000131700000000013000000000001300000000000130505279000000000002190800000000002887236100000000000000009999123100000010000000000000BRTENDACNOR4111
012024090302TFCO4       010TRACK FIELD PN      N2   R$  000000000115200000000011720000000001150000000000116800000000011700000000001162000000000117100400000000000000119500000000000139584500000000000000009999123100000010000000000000BRTFCOACNPR8114
012024090302TGMA3       010TEGMA       ON      NM   R$  000000000263000000000026480000000002605000000000262400000000026480000000002637000000000264901026000000000000168100000000000441247100000000000000009999123100000010000000000000BRTGMAACNOR7145
012024090302TIMS3       010TIM         ON      NM   R$  000000000179000000000018230000000001781000000000180900000000018040000000001804000000000180911067000000000004516000000000008171307800000000000000009999123100000010000000000000BRTIMSACNOR5117
012024090302TOTS3       010TOTVS       ON      NM   R$  000000000292600000000029920000000002926000000000295600000000029350000000002933000000000293511660000000000002904400000000008586775500000000000000009999123100000010000000000000BRTOTSACNOR8145
012024090302TPIS3       010TRIUNFO PARTON      NM   R$  000000000046000000000004740000000000460000000000046800000000004650000000000464000000000046600089000000000000054700000000000025601500000000000000009999123100000010000000000000BRTPISACNOR8118
012024090302TRAD3       010TC          ON      NM   R$  000000000028000000000002800000000000242000000000025300000000002430000000000243000000000024500689000000000000504400000000000128117000000000000000009999123100000010000000000000BRTRADACNOR3102
012024090302ZAMP3       010ZAMP S.A.   ON           R$  000000000029700000000003060000000000294000000000030000000000003020000000000302000000000030302276000000000000600600000000000180479900000000000000009999123100000010000000000000BRZAMPACNOR5101
012024090302JSLG3       010JSL         ON      NM   R$  000000000098400000000010080000000000973000000000098500000000009740000000000973000000000098604830000000000000635200000000000626221000000000000000009999123100000010000000000000BRJSLGACNOR2121
012024090302KEPL3       010KEPLER WEBERON      NM   R$  000000000114000000000011510000000001113000000000112500000000011210000000001121000000000112604452000000000001174300000000001322245700000000000000009999123100000010000000000000BRKEPLACNOR1064
012024090302KLBN11      010KLABIN S/A  UNT     N2   R$  000000000214600000000021680000000002132000000000215200000000021530000000002152000000000215309160000000000004394600000000009460145700000000000000009999123100000010000000000000BRKLBNCDAM18143
012024090302KLBN3       010KLABIN S/A  ON      N2   R$  000000000043000000000004340000000000428000000000043000000000004320000000000430000000000043200582000000000000237500000000000102314700000000000000009999123100000010000000000000BRKLBNACNOR2171
012024090302KLBN4       010KLABIN S/A  PN      N2   R$  000000000042900000000004330000000000426000000000042900000000004310000000000430000000000043101733000000000000950900000000000408703200000000000000009999123100000010000000000000BRKLBNACNPR9171
012024090302MYPK3       010IOCHP-MAXIONON      NM   R$  000000000115000000000011640000000001147000000000115200000000011500000000001149000000000115504039000000000000985100000000001135528100000000000000009999123100000010000000000000BRMYPKACNOR7155
012024090302NEOE3       010NEOENERGIA  ON      NM   R$  000000000196700000000020140000000001965000000000200300000000020030000000001993000000000200304677000000000001019500000000002042674300000000000000009999123100000010000000000000BRNEOEACNOR3123
012024090302NGRD3       010NEOGRID     ON      NM   R$  000000000013600000000001360000000000129000000000013100000000001290000000000129000000000013101276000000000000570000000000000075016300000000000000009999123100000010000000000000BRNGRDACNOR3104
012024090302NINJ3       010GETNINJAS   ON      NM   R$  000000000047000000000004710000000000466000000000046800000000004700000000000454000000000047300037000000000000005400000000000002530200000000000000009999123100000010000000000000BRNINJACNOR5101
012024090302NORD3       010NORDON MET  ON           R$  000000000100100000000011090000000001001000000000108600000000010900000000001090000000000113300006000000000000001700000000000001846900000000000000009999123100000010000000000000BRNORDACNOR7135
012024090302YDUQ3       010YDUQS PART  ON      NM   R$  000000000101100000000010730000000000965000000000101100000000009850000000000980000000000098623484000000000015683900000000015869444100000000000000009999123100000010000000000000BRYDUQACNOR3105
012024090302OPCT3       010OCEANPACT   ON      NM   R$  000000000064900000000007000000000000648000000000067700000000007000000000000695000000000070107367000000000002753600000000001866295200000000000000009999123100000010000000000000BROPCTACNOR0100
012024090302ORVR3       010ORIZON      ON      NM   R$  000000000462500000000046980000000004538000000000464200000000046720000000004671000000000467305111000000000000787000000000003653467500000000000000009999123100000010000000000000BRORVRACNOR0101
012024090302BOBR4       010BOMBRIL     PN           R$  000000000021300000000002140000000000208000000000021100000000002140000000000213000000000021400032000000000000012000000000000002541800000000000000009999123100000010000000000000BRBOBRACNPR3128
012024090302BRIT3       010BRISANET    ON      NM   R$  000000000035300000000003560000000000345000000000034900000000003480000000000345000000000034800589000000000000525200000000000183696000000000000000009999123100000010000000000000BRBRITACNOR0103
012024090302BRKM3       010BRASKEM     ON      N1   R$  000000000178400000000018850000000001750000000000184700000000018630000000001854000000000186500136000000000000017200000000000031785400000000000000009999123100000010000000000000BRBRKMACNOR1119
012024090302BRKM5       010BRASKEM     PNA     N1   R$  000000000186700000000018910000000001796000000000185200000000018520000000001851000000000185316181000000000005104800000000009456094300000000000000009999123100000010000000000000BRBRKMACNPA4121
012024090302BRKM6       010BRASKEM     PNB     N1   R$  000000000139000000000013900000000001390000000000139000000000013900000000001300000000000139000001000000000000000100000000000000139000000000000000009999123100000010000000000000BRBRKMACNPB2114
012024090302GRND3       010GRENDENE    ON      NM   R$  000000000060000000000006120000000000597000000000060500000000006030000000000603000000000060503669000000000001256100000000000759996100000000000000009999123100000010000000000000BRGRNDACNOR3175
012024090302GUAR3       010GUARARAPES  ON      NM   R$  000000000087600000000009080000000000876000000000089700000000008970000000000895000000000090206554000000000001502100000000001348627200000000000000009999123100000010000000000000BRGUARACNOR4173
012024090302CYRE3       010CYRELA REALTON      NM   R$  000000000215800000000021670000000002101000000000212800000000021200000000002118000000000212117486000000000007026800000000014954452400000000000000009999123100000010000000000000BRCYREACNOR7140
012024090302FESA4       010FERBASA     PN      N1   R$  000000000080800000000008130000000000784000000000079300000000007840000000000784000000000078503069000000000001175000000000000932190700000000000000009999123100000010000000000000BRFESAACNPR5084
012024090302FHER3       010FER HERINGERON      NM   R$  000000000042800000000004290000000000415000000000042700000000004150000000000415000000000041900026000000000000013600000000000005812200000000000000009999123100000010000000000000BRFHERACNOR5103
012024090302ATOM3       010ATOMPAR     ON           R$  000000000021000000000002200000000000209000000000021500000000002150000000000215000000000021700033000000000000032500000000000007002100000000000000009999123100000010000000000000BRATOMACNOR1106
012024090302AURE3       010AUREN       ON      NM   R$  000000000114100000000011500000000001138000000000114200000000011400000000001139000000000114107121000000000003035400000000003468321700000000000000009999123100000010000000000000BRAUREACNOR9104
012024090302AZEV3       010AZEVEDO     ON           R$  000000000014800000000001480000000000142000000000014500000000001430000000000143000000000014400401000000000000400400000000000058096900000000000000009999123100000010000000000000BRAZEVACNOR0121
012024090302AZEV4       010AZEVEDO     PN           R$  000000000014700000000001490000000000143000000000014500000000001430000000000143000000000014401883000000000002752300000000000400913600000000000000009999123100000010000000000000BRAZEVACNPR7121
012024090302AZUL4       010AZUL        PN  ATZ N2   R$  000000000042600000000004980000000000403000000000046300000000004860000000000485000000000048628961000000000050875700000000023587064800000000000000009999123100000010000000000000BRAZULACNPR4103
012024090302FIEI3       010FICA        ON           R$  000000000085000000000008500000000000850000000000085000000000008500000000000800000000000084000002000000000000000400000000000000340000000000000000009999123100000010000000000000BRFIEIACNOR2100
012024090302FIQE3       010UNIFIQUE    ON      NM   R$  000000000037800000000003810000000000374000000000037800000000003780000000000375000000000037800610000000000000435600000000000164662000000000000000009999123100000010000000000000BRFIQEACNOR5107
012024090302FLRY3       010FLEURY      ON      NM   R$  000000000158500000000016210000000001575000000000160600000000016130000000001612000000000161610609000000000003056100000000004909254400000000000000009999123100000010000000000000BRFLRYACNOR5139
012024090302CBAV3       010CBA         ON      NM   R$  000000000049700000000005010000000000466000000000047600000000004750000000000474000000000047511005000000000006057900000000002884517100000000000000009999123100000010000000000000BRCBAVACNOR5104
012024090302CCRO3       010CCR SA      ON      NM   R$  000000000133900000000013650000000001332000000000134400000000013390000000001339000000000134009596000000000005612700000000007543607700000000000000009999123100000010000000000000BRCCROACNOR2145
012024090302CEAB3       010CEA MODAS   ON      NM   R$  000000000098200000000010260000000000979000000000100600000000009960000000000996000000000100407079000000000003313500000000003336142500000000000000009999123100000010000000000000BRCEABACNOR1102
012024090302DASA3       010DASA        ON      NM   R$  000000000031400000000003220000000000303000000000031100000000003110000000000311000000000031203598000000000000911200000000000283555500000000000000009999123100000010000000000000BRDASAACNOR1122
012024090302FRAS3       010FRAS-LE     ON      N1   R$  000000000195000000000019850000000001934000000000196100000000019650000000001965000000000196601698000000000000379000000000000743352900000000000000009999123100000010000000000000BRFRASACNOR0160
012024090302FRIO3       010METALFRIO   ON      NM   R$  000000001710300000000173080000000013129000000001355800000000131290000000012000000000001313000019000000000000002800000000000037963700000000000000009999123100000010000000000000BRFRIOACNOR2111
012024090302DESK3       010DESKTOP     ON      NM   R$  000000000152600000000015600000000001502000000000152900000000015100000000001510000000000151501162000000000000162500000000000248561600000000000000009999123100000010000000000000BRDESKACNOR2104
012024090302DEXP3       010DEXXOS PAR  ON      N1   R$  000000000095300000000009680000000000945000000000095500000000009450000000000945000000000095000289000000000000054400000000000052000300000000000000009999123100000010000000000000BRDEXPACNOR1105
012024090302DEXP4       010DEXXOS PAR  PN      N1   R$  000000000094900000000009490000000000935000000000094500000000009350000000000926000000000093700017000000000000008000000000000007560500000000000000009999123100000010000000000000BRDEXPACNPR8105
012024090302DIRR3       010DIRECIONAL  ON      NM   R$  000000000296100000000030340000000002953000000000301000000000030140000000003014000000000301508918000000000001854300000000005582297900000000000000009999123100000010000000000000BRDIRRACNOR0118
012024090302DMVF3       010D1000VFARMA ON      NM   R$  000000000072200000000007250000000000708000000000071300000000007120000000000712000000000071500222000000000000041800000000000029841400000000000000009999123100000010000000000000BRDMVFACNOR9100
012024090302DOHL4       010DOHLER      PN           R$  000000000043300000000004400000000000410000000000042200000000004350000000000412000000000043500007000000000000002100000000000000886400000000000000009999123100000010000000000000BRDOHLACNPR9066
012024090302GEPA3       010GER PARANAP ON           R$  000000000264900000000026500000000002649000000000264900000000026500000000002590000000000265000002000000000000000200000000000000529900000000000000009999123100000010000000000000BRGEPAACNOR2153
012024090302GEPA4       010GER PARANAP PN           R$  000000000274900000000027500000000002749000000000274900000000027500000000002675000000000279500004000000000000000600000000000001649600000000000000009999123100000010000000000000BRGEPAACNPR9160
012024090302GFSA3       010GAFISA      ON      NM   R$  000000000026300000000002700000000000256000000000026100000000002600000000000258000000000026002421000000000003706900000000000970076000000000000000009999123100000010000000000000BRGFSAACNOR3125
012024090302GGBR3       010GERDAU      ON      N1   R$  000000000160600000000016110000000001586000000000159500000000015910000000001587000000000159800375000000000000050500000000000080550800000000000000009999123100000010000000000000BRGGBRACNOR1193
012024090302GGBR4       010GERDAU      PN      N1   R$  000000000181800000000018250000000001770000000000178600000000017700000000001770000000000177319396000000000013578700000000024264117500000000000000009999123100000010000000000000BRGGBRACNPR8193
012024090302DOTZ3       010DOTZ SA     ON      NM   R$  000000000087400000000008740000000000789000000000081100000000007900000000000790000000000079600126000000000000041000000000000033268400000000000000009999123100000010000000000000BRDOTZACNOR7101
012024090302DXCO3       010DEXCO       ON      NM   R$  000000000080300000000008180000000000788000000000079800000000007910000000000791000000000079305310000000000001825300000000001456961700000000000000009999123100000010000000000000BRDXCOACNOR8105
012024090302ITSA3       010ITAUSA      ON  EJ  N1   R$  000000000109000000000011070000000001086000000000109900000000011070000000001106000000000110700471000000000000136100000000000149643700000000000000009999123100000010000000000000BRITSAACNOR0442
012024090302ITSA4       010ITAUSA      PN  EJ  N1   R$  000000000109000000000011070000000001088000000000110000000000011040000000001103000000000110515070000000000015009000000000016516327900000000000000009999123100000010000000000000BRITSAACNPR7442
012024090302EALT3       010ACO ALTONA  ON           R$  000000000147800000000014800000000001460000000000147400000000014800000000001460000000000148000021000000000000004800000000000007077100000000000000009999123100000010000000000000BREALTACNOR4138
012024090302EALT4       010ACO ALTONA  PN           R$  000000000146700000000014690000000001433000000000145500000000014680000000001447000000000146900108000000000000032300000000000047014800000000000000009999123100000010000000000000BREALTACNPR1138
012024090302ECOR3       010ECORODOVIAS ON      NM   R$  000000000077300000000007880000000000769000000000077500000000007710000000000771000000000077205615000000000003369800000000002614275000000000000000009999123100000010000000000000BRECORACNOR8120
012024090302MATD3       010MATER DEI   ON      NM   R$  000000000046600000000004890000000000460000000000048200000000004800000000000480000000000048502204000000000000531600000000000256234300000000000000009999123100000010000000000000BRMATDACNOR4104
012024090302MBLY3       010MOBLY       ON      NM   R$  000000000030000000000003000000000000287000000000029400000000002880000000000287000000000028800687000000000000426700000000000125635500000000000000009999123100000010000000000000BRMBLYACNOR5100
012024090302CAMB3       010CAMBUCI     ON           R$  000000000124600000000012580000000001240000000000124900000000012500000000001241000000000125000102000000000000016400000000000020492800000000000000009999123100000010000000000000BRCAMBACNOR4131
012024090302CAML3       010CAMIL       ON      NM   R$  000000000094600000000009580000000000937000000000095000000000009570000000000953000000000095801990000000000000532000000000000505552200000000000000009999123100000010000000000000BRCAMLACNOR3128
012024090302CASH3       010MELIUZ      ON  ER  NM   R$  000000000040700000000004440000000000394000000000042700000000004260000000000426000000000042809910000000000008114200000000003465573300000000000000009999123100000010000000000000BRCASHACNOR8107
012024090302EGIE3       010ENGIE BRASILON      NM   R$  000000000443100000000044940000000004431000000000446600000000044660000000004462000000000447004583000000000000768300000000003431863700000000000000009999123100000010000000000000BREGIEACNOR9127
012024090302GGPS3       010GPS         ON      NM   R$  000000000178000000000017900000000001756000000000177500000000017750000000001775000000000178304351000000000002247200000000003990397600000000000000009999123100000010000000000000BRGGPSACNOR9103
012024090302GMAT3       010GRUPO MATEUSON      NM   R$  000000000078300000000007960000000000774000000000078200000000007820000000000776000000000078204578000000000002489400000000001948330500000000000000009999123100000010000000000000BRGMATACNOR7102
012024090302GOAU3       010GERDAU MET  ON      N1   R$  000000000107000000000010700000000001044000000000105500000000010570000000001048000000000105800195000000000000045600000000000048119100000000000000009999123100000010000000000000BRGOAUACNOR1268
012024090302GOAU4       010GERDAU MET  PN      N1   R$  000000000104200000000010450000000001017000000000102600000000010170000000001017000000000102010372000000000007746600000000007949385800000000000000009999123100000010000000000000BRGOAUACNPR8269
012024090302MILS3       010MILLS       ON      NM   R$  000000000110000000000011140000000001091000000000109600000000010990000000001099000000000110104593000000000002327800000000002553505200000000000000009999123100000010000000000000BRMILSACNOR2128
012024090302ALPK3       010ESTAPAR     ON      NM   R$  000000000036800000000003730000000000350000000000035700000000003500000000000349000000000035001334000000000000309700000000000110763000000000000000009999123100000010000000000000BRALPKACNOR9101
012024090302ALUP11      010ALUPAR      UNT     N2   R$  000000000311600000000031490000000003116000000000313300000000031350000000003131000000000313505126000000000001531000000000004797248500000000000000009999123100000010000000000000BRALUPCDAM15120
012024090302ALUP3       010ALUPAR      ON      N2   R$  000000000104500000000010740000000001045000000000106100000000010600000000001049000000000106000047000000000000007000000000000007428600000000000000009999123100000010000000000000BRALUPACNOR8120
012024090302MDIA3       010M.DIASBRANCOON      NM   R$  000000000272700000000027270000000002667000000000270900000000026970000000002697000000000270403799000000000001325900000000003592532900000000000000009999123100000010000000000000BRMDIAACNOR7135
012024090302MDNE3       010MOURA DUBEUXON      NM   R$  000000000144600000000014940000000001442000000000146900000000014660000000001456000000000146602885000000000000450600000000000662112500000000000000009999123100000010000000000000BRMDNEACNOR9100
012024090302MEAL3       010IMC S/A     ON      NM   R$  000000000015500000000001560000000000151000000000015300000000001530000000000153000000000015400318000000000000468900000000000072208800000000000000009999123100000010000000000000BRMEALACNOR9105
012024090302MELK3       010MELNICK     ON      NM   R$  000000000034100000000003460000000000337000000000033900000000003370000000000337000000000033901215000000000001672800000000000568684000000000000000009999123100000010000000000000BRMELKACNOR8111
012024090302MGEL4       010MANGELS INDLPN           R$  000000000111000000000011100000000001110000000000111000000000011100000000001100000000000115800001000000000000000100000000000000111000000000000000009999123100000010000000000000BRMGELACNPR3147
012024090302MGLU3       010MAGAZ LUIZA ON      NM   R$  000000000121900000000012280000000001160000000000118800000000011680000000001167000000000116922109000000000020507800000000024365534900000000000000009999123100000010000000000000BRMGLUACNOR2124
012024090302BRAP3       010BRADESPAR   ON      N1   R$  000000000176600000000017660000000001733000000000174900000000017510000000001751000000000175801196000000000000226600000000000396508500000000000000009999123100000010000000000000BRBRAPACNOR5148
012024090302BRAP4       010BRADESPAR   PN      N1   R$  000000000190000000000019000000000001830000000000185400000000018420000000001839000000000184312491000000000005793100000000010745353500000000000000009999123100000010000000000000BRBRAPACNPR2148
012024090302CPLE3       010COPEL       ON      N2   R$  000000000094500000000009600000000000944000000000095400000000009570000000000956000000000095708099000000000005572400000000005319818200000000000000009999123100000010000000000000BRCPLEACNOR8149
012024090302CPLE5       010COPEL       PNA     N2   R$  000000000113000000000011700000000001130000000000113200000000011700000000001140000000000117000016000000000000003200000000000003625300000000000000009999123100000010000000000000BRCPLEACNPA1147
012024090302CPLE6       010COPEL       PNB     N2   R$  000000000105800000000010640000000001053000000000105900000000010630000000001062000000000106316326000000000015427400000000016341469200000000000000009999123100000010000000000000BRCPLEACNPB9146
012024090302CRFB3       010CARREFOUR BRON      NM   R$  000000000090100000000009260000000000898000000000091800000000009230000000000920000000000092316202000000000009223000000000008471882100000000000000009999123100000010000000000000BRCRFBACNOR2116
012024090302CRPG5       010CRISTAL     PNA          R$  000000000286400000000028640000000002830000000000284200000000028550000000002831000000000286000007000000000000001000000000000002842500000000000000009999123100000010000000000000BRCRPGACNPA3119
012024090302CSAN3       010COSAN       ON      NM   R$  000000000131600000000013250000000001305000000000131500000000013120000000001311000000000131413283000000000010084600000000013269051200000000000000009999123100000010000000000000BRCSANACNOR6126
012024090302CSNA3       010SID NACIONALON           R$  000000000116000000000011630000000001129000000000113900000000011330000000001132000000000113312642000000000007875100000000008970480300000000000000009999123100000010000000000000BRCSNAACNOR6261
012024090302CSUD3       010CSU DIGITAL ON      NM   R$  000000000186700000000018930000000001860000000000187400000000018600000000001859000000000187400163000000000000039000000000000073103800000000000000009999123100000010000000000000BRCSUDACNOR5110
012024090302ENGI11      010ENERGISA    UNT     N2   R$  000000000470000000000047770000000004687000000000474500000000047710000000004771000000000477712981000000000005892400000000027963365600000000000000009999123100000010000000000000BRENGICDAM16136
012024090302ENGI3       010ENERGISA    ON      N2   R$  000000000146700000000014860000000001434000000000145600000000014520000000001434000000000145200057000000000000006800000000000009907200000000000000009999123100000010000000000000BRENGIACNOR0146
012024090302ENGI4       010ENERGISA    PN      N2   R$  000000000081600000000008290000000000816000000000082300000000008170000000000817000000000082700033000000000000007200000000000005927100000000000000009999123100000010000000000000BRENGIACNPR7142
012024090302ENJU3       010ENJOEI      ON      NM   R$  000000000016000000000001620000000000153000000000015600000000001540000000000154000000000015500536000000000000668500000000000104484300000000000000009999123100000010000000000000BRENJUACNOR9100
012024090302ENMT4       010ENERGISA MT PN           R$  000000000810000000000081980000000007700000000000793600000000081980000000007800000000000819800017000000000000001700000000000013491300000000000000009999123100000010000000000000BRENMTACNPR2126
012024090302AZZA3       010AZZAS 2154  ON      NM   R$  000000000483000000000048510000000004720000000000477500000000047410000000004741000000000474309986000000000002250800000000010749194900000000000000009999123100000010000000000000BRAZZAACNOR9100
012024090302BBSE3       010BBSEGURIDADEON      NM   R$  000000000366700000000037100000000003650000000000369200000000036880000000003686000000000369016625000000000003860300000000014254280000000000000000009999123100000010000000000000BRBBSEACNOR5125
012024090302CMIN3       010CSNMINERACAOON      N2   R$  000000000056700000000005680000000000557000000000056100000000005590000000000559000000000056112002000000000010663800000000005990924600000000000000009999123100000010000000000000BRCMINACNOR2111
012024090302COCE3       010COELCE      ON           R$  000000000330000000000033000000000003300000000000330000000000033000000000003161000000000360000001000000000000000100000000000000330000000000000000009999123100000010000000000000BRCOCEACNOR0146
012024090302COCE5       010COELCE      PNA          R$  000000000315000000000031900000000003083000000000311000000000030830000000003055000000000308400049000000000000007400000000000023020000000000000000009999123100000010000000000000BRCOCEACNPA3147
012024090302COGN3       010COGNA ON    ON      NM   R$  000000000013700000000001420000000000135000000000013800000000001350000000000135000000000013612095000000000034718000000000004810824600000000000000009999123100000010000000000000BRCOGNACNOR2105
012024090302ELMD3       010ELETROMIDIA ON      NM   R$  000000000183500000000018520000000001797000000000181700000000018100000000001805000000000185000485000000000000062100000000000112894700000000000000009999123100000010000000000000BRELMDACNOR3101
012024090302EMAE4       010EMAE        PN           R$  000000000408000000000041440000000004080000000000412200000000041440000000004067000000000419800010000000000000001700000000000007008300000000000000009999123100000010000000000000BREMAEACNPR1125
012024090302EMBR3       010EMBRAER     ON      NM   R$  000000000459400000000046670000000004485000000000459500000000046420000000004640000000000464445146000000000010178100000000046776064000000000000000009999123100000010000000000000BREMBRACNOR4191
012024090302HBOR3       010HELBOR      ON      NM   R$  000000000020800000000002100000000000203000000000020500000000002050000000000204000000000020500858000000000000546600000000000112219300000000000000009999123100000010000000000000BRHBORACNOR3118
012024090302HBRE3       010HBR REALTY  ON      NM   R$  000000000052800000000005340000000000505000000000051500000000005070000000000506000000000050700874000000000000500500000000000257881100000000000000009999123100000010000000000000BRHBREACNOR4100
012024090302HBSA3       010HIDROVIAS   ON      NM   R$  000000000034300000000003460000000000339000000000034100000000003410000000000341000000000034303929000000000001862400000000000636103800000000000000009999123100000010000000000000BRHBSAACNOR0100
012024090302HETA4       010HERCULES    PN           R$  000000000056800000000005680000000000568000000000056800000000005680000000000506000000000059700001000000000000000200000000000000113600000000000000009999123100000010000000000000BRHETAACNPR9136
012024090302NTCO3       010GRUPO NATURAON      NM   R$  000000000131400000000013370000000001305000000000132100000000013320000000001330000000000133314823000000000010475700000000013841584600000000000000009999123100000010000000000000BRNTCOACNOR5106
012024090302PDGR3       010PDG REALT   ON      NM   R$  000000000001600000000000170000000000015000000000001500000000000160000000000015000000000001600338000000000004130600000000000065951800000000000000009999123100000010000000000000BRPDGRACNOR8119
012024090302PDTC3       010PADTEC      ON      NM   R$  000000000020800000000002110000000000205000000000020700000000002050000000000205000000000020900074000000000000039100000000000008130900000000000000009999123100000010000000000000BRPDTCACNOR3101
012024090302PETR3       010PETROBRAS   ON      N2   R$  000000000424000000000042510000000004199000000000422500000000042310000000004219000000000423125258000000000009984700000000042191757100000000000000009999123100000010000000000000BRPETRACNOR9206
012024090302PETR4       010PETROBRAS   PN      N2   R$  000000000387900000000038820000000003838000000000385500000000038530000000003853000000000385451639000000000035866300000000138287349000000000000000009999123100000010000000000000BRPETRACNPR6214
012024090302PFRM3       010PROFARMA    ON      NM   R$  000000000064000000000006460000000000624000000000063100000000006360000000000631000000000063600686000000000000139700000000000088176100000000000000009999123100000010000000000000BRPFRMACNOR1116
012024090302PGMN3       010PAGUE MENOS ON      NM   R$  000000000031000000000003140000000000302000000000030600000000003040000000000304000000000030603490000000000000907900000000000278354600000000000000009999123100000010000000000000BRPGMNACNOR8103
012024090302PINE3       010PINE        ON      N2   R$  000000000055900000000005590000000000547000000000055500000000005470000000000546000000000055500003000000000000000300000000000000166500000000000000009999123100000010000000000000BRPINEACNOR1150
012024090302PINE4       010PINE        PN      N2   R$  000000000048400000000004860000000000472000000000047900000000004740000000000474000000000047700769000000000000256300000000000122855300000000000000009999123100000010000000000000BRPINEACNPR8150
012024090302PLPL3       010PLANOEPLANO ON      NM   R$  000000000120000000000012300000000001187000000000120900000000012040000000001194000000000120403000000000000000831100000000001004877700000000000000009999123100000010000000000000BRPLPLACNOR5104
012024090302PNVL3       010DIMED       ON      NM   R$  000000000100300000000010230000000001002000000000101100000000010040000000001003000000000100902686000000000000351900000000000356001100000000000000009999123100000010000000000000BRPNVLACNOR9207
012024090302POMO3       010MARCOPOLO   ON  EDJ N2   R$  000000000059500000000006170000000000595000000000060800000000006040000000000604000000000060901964000000000001158200000000000705025600000000000000009999123100000010000000000000BRPOMOACNOR0099
012024090302POMO4       010MARCOPOLO   PN  EDJ N2   R$  000000000077400000000007960000000000763000000000078400000000007840000000000782000000000078526620000000000019508000000000015296220200000000000000009999123100000010000000000000BRPOMOACNPR7099
012024090302PORT3       010WILSON SONS ON      NM   R$  000000000173000000000017300000000001703000000000171300000000017050000000001704000000000170502916000000000000982900000000001683951500000000000000009999123100000010000000000000BRPORTACNOR8109
012024090302POSI3       010POSITIVO TECON      NM   R$  000000000064200000000006600000000000634000000000064500000000006350000000000634000000000063703833000000000001771000000000001143530000000000000000009999123100000010000000000000BRPOSIACNOR9116
012024090302PRIO3       010PETRORIO    ON      NM   R$  000000000463500000000046440000000004426000000000449400000000044300000000004430000000000443145051000000000017978600000000080796754400000000000000009999123100000010000000000000BRPRIOACNOR1107
012024090302SEER3       010SER EDUCA   ON      NM   R$  000000000064800000000006630000000000629000000000064000000000006290000000000629000000000063500811000000000000304200000000000194898100000000000000009999123100000010000000000000BRSEERACNOR5119
012024090302VALE3       010VALE        ON      NM   R$  000000000579500000000057950000000005647000000000569300000000056550000000005655000000000565649158000000000029504400000000167981851800000000000000009999123100000010000000000000BRVALEACNOR0211
012024090302VAMO3       010VAMOS       ON      NM   R$  000000000075500000000007680000000000754000000000076100000000007570000000000757000000000076009061000000000007067500000000005379610100000000000000009999123100000010000000000000BRVAMOACNOR7105
012024090302PRNR3       010PRINER      ON      NM   R$  000000000127800000000013170000000001278000000000129300000000012940000000001290000000000129401169000000000000203100000000000262784000000000000000009999123100000010000000000000BRPRNRACNOR4109
012024090302PSSA3       010PORTO SEGUROON      NM   R$  000000000346500000000035060000000003459000000000348600000000034740000000003473000000000347406937000000000001442700000000005029593000000000000000009999123100000010000000000000BRPSSAACNOR7155
012024090302PTBL3       010PORTOBELLO  ON      NM   R$  000000000050200000000005120000000000491000000000050400000000005050000000000503000000000050501383000000000000532800000000000268815200000000000000009999123100000010000000000000BRPTBLACNOR8132
012024090302PTNT3       010PETTENATI   ON           R$  000000000093500000000009470000000000935000000000093900000000009470000000000881000000000095800007000000000000000700000000000000657900000000000000009999123100000010000000000000BRPTNTACNOR6042
012024090302PTNT4       010PETTENATI   PN           R$  000000000073000000000007420000000000730000000000073500000000007310000000000731000000000074000024000000000000006800000000000005002100000000000000009999123100000010000000000000BRPTNTACNPR3047
012024090302PATI3       010PANATLANTICAON           R$  000000000405100000000042990000000004051000000000421100000000042990000000004299000000000430000036000000000000006400000000000026952900000000000000009999123100000010000000000000BRPATIACNOR6065
012024090302PATI4       010PANATLANTICAPN           R$  000000000420000000000043000000000004200000000000429000000000043000000000004200000000000000000002000000000000001000000000000004290000000000000000009999123100000010000000000000BRPATIACNPR3065
012024090302PCAR3       010P.ACUCAR-CBDON      NM   R$  000000000031100000000003170000000000294000000000030200000000002960000000000295000000000029607450000000000008050000000000002438668200000000000000009999123100000010000000000000BRPCARACNOR3167
012024090302REDE3       010REDE ENERGIAON           R$  000000000069900000000006990000000000686000000000069200000000006860000000000686000000000069700013000000000000001700000000000001177500000000000000009999123100000010000000000000BRREDEACNOR7128
012024090302RENT3       010LOCALIZA    ON      NM   R$  000000000418500000000042000000000004060000000000411000000000040700000000004069000000000407021236000000000005726300000000023536522900000000000000009999123100000010000000000000BRRENTACNOR4196
012024090302SANB11      010SANTANDER BRUNT          R$  000000000313900000000031550000000003120000000000314000000000031460000000003143000000000315007622000000000001621900000000005094314100000000000000009999123100000010000000000000BRSANBCDAM13165
012024090302SANB3       010SANTANDER BRON           R$  000000000149600000000015020000000001489000000000149700000000014930000000001492000000000149500836000000000000160100000000000239719500000000000000009999123100000010000000000000BRSANBACNOR8172
012024090302SANB4       010SANTANDER BRPN           R$  000000000163500000000016490000000001630000000000164100000000016360000000001636000000000164400820000000000000131800000000000216399100000000000000009999123100000010000000000000BRSANBACNPR5172
012024090302SAPR11      010SANEPAR     UNT     N2   R$  000000000287000000000029600000000002870000000000292500000000029350000000002933000000000293505060000000000001068700000000003126453700000000000000009999123100000010000000000000BRSAPRCDAM13118
012024090302SAPR3       010SANEPAR     ON      N2   R$  000000000054400000000005600000000000542000000000055200000000005600000000000553000000000056000561000000000000173700000000000096007400000000000000009999123100000010000000000000BRSAPRACNOR9159
012024090302SAPR4       010SANEPAR     PN      N2   R$  000000000058300000000005970000000000581000000000059000000000005900000000000590000000000059102117000000000001416900000000000836798900000000000000009999123100000010000000000000BRSAPRACNPR6159
012024090302UNIP3       010UNIPAR      ON           R$  000000000478800000000048180000000004785000000000479000000000048000000000004754000000000481500062000000000000010100000000000048385000000000000000009999123100000010000000000000BRUNIPACNOR7206
012024090302UNIP5       010UNIPAR      PNA          R$  000000000490000000000049000000000004840000000000486000000000048400000000004820000000000490000003000000000000000400000000000001944000000000000000009999123100000010000000000000BRUNIPACNPA0208
012024090302TTEN3       0103TENTOS     ON      NM   R$  000000000120800000000012120000000001188000000000119900000000011990000000001195000000000119906164000000000000974500000000001169204400000000000000009999123100000010000000000000BRTTENACNOR0103
012024090302TUPY3       010TUPY        ON      NM   R$  000000000274800000000027990000000002708000000000277400000000027910000000002774000000000279103864000000000000622900000000001728472900000000000000009999123100000010000000000000BRTUPYACNOR1184
012024090302UNIP6       010UNIPAR      PNB          R$  000000000481300000000048720000000004772000000000480500000000047850000000004785000000000478701145000000000000172600000000000829460900000000000000009999123100000010000000000000BRUNIPACNPB8206
012024090302USIM3       010USIMINAS    ON      N1   R$  000000000060700000000006070000000000585000000000059400000000005850000000000585000000000058601126000000000000492100000000000292444600000000000000009999123100000010000000000000BRUSIMACNOR3167
012024090302USIM5       010USIMINAS    PNA     N1   R$  000000000061300000000006160000000000594000000000060000000000005960000000000595000000000059619513000000000022110700000000013266587000000000000000009999123100000010000000000000BRUSIMACNPA6169
012024090302USIM6       010USIMINAS    PNB     N1   R$  000000000099000000000009900000000000990000000000099000000000009900000000000849000000000140000001000000000000000100000000000000099000000000000000009999123100000010000000000000BRUSIMACNPB4169
012024090302TRIS3       010TRISUL      ON      NM   R$  000000000045700000000004650000000000456000000000045800000000004560000000000456000000000046000775000000000000306100000000000140380200000000000000009999123100000010000000000000BRTRISACNOR4118
012024090302TRPL3       010TRAN PAULISTON      N1   R$  000000000320000000000032090000000003190000000000319900000000031910000000003191000000000320800025000000000000003700000000000011838800000000000000009999123100000010000000000000BRTRPLACNOR4185
012024090302TRPL4       010TRAN PAULISTPN      N1   R$  000000000247500000000024850000000002466000000000247600000000024760000000002476000000000248005639000000000001385900000000003431851000000000000000009999123100000010000000000000BRTRPLACNPR1185
012024090302HAGA3       010HAGA S/A    ON           R$  000000000024200000000002450000000000230000000000023500000000002340000000000234000000000023800018000000000000006500000000000001531100000000000000009999123100000010000000000000BRHAGAACNOR7103
012024090302HAGA4       010HAGA S/A    PN           R$  000000000011600000000001180000000000115000000000011700000000001180000000000117000000000011800021000000000000014400000000000001685900000000000000009999123100000010000000000000BRHAGAACNPR4103
012024090302HAPV3       010HAPVIDA     ON      NM   R$  000000000042800000000004420000000000428000000000043600000000004370000000000436000000000043833168000000000048524500000000021182512200000000000000009999123100000010000000000000BRHAPVACNOR4114
012024090302JALL3       010JALLESMACHADON      NM   R$  000000000066700000000006700000000000656000000000066100000000006580000000000658000000000066201753000000000000769300000000000509133300000000000000009999123100000010000000000000BRJALLACNOR0106
012024090302JBSS3       010JBS         ON      NM   R$  000000000343000000000034340000000003365000000000338800000000033850000000003383000000000338515980000000000005025600000000017028280700000000000000009999123100000010000000000000BRJBSSACNOR8122
012024090302MLAS3       010MULTILASER  ON      NM   R$  000000000019000000000001930000000000182000000000018600000000001820000000000182000000000018405314000000000004370500000000000813692500000000000000009999123100000010000000000000BRMLASACNOR9101
012024090302MNDL3       010MUNDIAL     ON           R$  000000000145000000000014500000000001335000000000142200000000014500000000001182000000000148000005000000000000000500000000000000711400000000000000009999123100000010000000000000BRMNDLACNOR4109
012024090302MNPR3       010MINUPAR     ON           R$  000000000161500000000016180000000001615000000000161600000000016180000000001550000000000161800003000000000000000400000000000000646600000000000000009999123100000010000000000000BRMNPRACNOR5122
012024090302MOVI3       010MOVIDA      ON      NM   R$  000000000069500000000007110000000000678000000000069000000000006890000000000688000000000068907034000000000003904400000000002694586700000000000000009999123100000010000000000000BRMOVIACNOR0122
012024090302MRFG3       010MARFRIG     ON      NM   R$  000000000139600000000013990000000001355000000000136600000000013670000000001360000000000136816117000000000005137500000000007019007000000000000000009999123100000010000000000000BRMRFGACNOR0116
012024090302ASAI3       010ASSAI       ON      NM   R$  000000000098600000000010130000000000980000000000099500000000010000000000000998000000000100021833000000000016401400000000016325501100000000000000009999123100000010000000000000BRASAIACNOR0106
012024090302ALUP4       010ALUPAR      PN      N2   R$  000000000103400000000010420000000001024000000000103300000000010420000000001032000000000104400048000000000000008000000000000008271400000000000000009999123100000010000000000000BRALUPACNPR5120
012024090302AMAR3       010LOJAS MARISAON      NM   R$  000000000011400000000001160000000000111000000000011300000000001130000000000112000000000011300639000000000000277800000000000031457200000000000000009999123100000010000000000000BRAMARACNOR4115
012024090302AMBP3       010AMBIPAR     ON      NM   R$  000000000690000000000069000000000006300000000000657000000000063000000000006215000000000630001271000000000000300400000000001973736300000000000000009999123100000010000000000000BRAMBPACNOR6103
012024090302ANIM3       010ANIMA       ON      NM   R$  000000000032300000000003360000000000323000000000032900000000003260000000000325000000000032707211000000000005334000000000001755849200000000000000009999123100000010000000000000BRANIMACNOR6109
012024090302APER3       010ALPER S.A.  ON           R$  000000000460000000000046750000000004600000000000465100000000046750000000004654000000000467500008000000000000001100000000000005116600000000000000009999123100000010000000000000BRAPERACNOR9106
012024090302ARML3       010ARMAC       ON      NM   R$  000000000084000000000008740000000000830000000000084100000000008300000000000830000000000083403543000000000000805700000000000678239200000000000000009999123100000010000000000000BRARMLACNOR1112
012024090302BBDC3       010BRADESCO    ON  EJ  N1   R$  000000000140400000000014240000000001401000000000141600000000014210000000001419000000000142110107000000000005143100000000007283325500000000000000009999123100000010000000000000BRBBDCACNOR1774
012024090302BBDC4       010BRADESCO    PN  EJ  N1   R$  000000000156000000000015890000000001560000000000157700000000015750000000001574000000000157536194000000000026984600000000042577206800000000000000009999123100000010000000000000BRBBDCACNPR8774
012024090302BRSR3       010BANRISUL    ON      N1   R$  000000000136000000000013870000000001335000000000136800000000013520000000001330000000000137000132000000000000026600000000000036413300000000000000009999123100000010000000000000BRBRSRACNOR3188
012024090302BRSR5       010BANRISUL    PNA     N1   R$  000000000169900000000016990000000001699000000000169900000000016990000000001601000000000169700002000000000000000600000000000001019400000000000000009999123100000010000000000000BRBRSRACNPA6192
012024090302BRSR6       010BANRISUL    PNB     N1   R$  000000000130300000000013350000000001270000000000130400000000012740000000001274000000000127508024000000000003066800000000003999241600000000000000009999123100000010000000000000BRBRSRACNPB4191
012024090302BSLI3       010BRB BANCO   ON           R$  000000000104000000000010400000000001040000000000104000000000010400000000000963000000000103500001000000000000000100000000000000104000000000000000009999123100000010000000000000BRBSLIACNOR5194
012024090302ITUB3       010ITAUUNIBANCOON  EJ  N1   R$  000000000316700000000032190000000003167000000000320300000000032190000000003206000000000321903889000000000001026800000000003289339700000000000000009999123100000010000000000000BRITUBACNOR4340
012024090302ITUB4       010ITAUUNIBANCOPN  EJ  N1   R$  000000000364900000000036990000000003636000000000368100000000036980000000003695000000000369929798000000000015736300000000057928712400000000000000009999123100000010000000000000BRITUBACNPR1340
012024090302CLSA3       010CLEARSALE   ON      NM   R$  000000000084500000000008730000000000835000000000085400000000008540000000000847000000000085406148000000000002465600000000002107738600000000000000009999123100000010000000000000BRCLSAACNOR0100
012024090302CLSC3       010CELESC      ON      N2   R$  000000000755000000000075500000000007550000000000755000000000075500000000007234000000000759900001000000000000000300000000000002265000000000000000009999123100000010000000000000BRCLSCACNOR6152
012024090302CLSC4       010CELESC      PN      N2   R$  000000000774000000000079220000000007740000000000785100000000079000000000007860000000000798800033000000000000004600000000000036118200000000000000009999123100000010000000000000BRCLSCACNPR3131
012024090302CMIG3       010CEMIG       ON  ED  N1   R$  000000000144900000000014770000000001448000000000146000000000014580000000001449000000000145801037000000000000202400000000000295649600000000000000009999123100000010000000000000BRCMIGACNOR6243
012024090302CMIG4       010CEMIG       PN  ED  N1   R$  000000000117400000000011780000000001158000000000116700000000011620000000001161000000000116214229000000000010662200000000012445608600000000000000009999123100000010000000000000BRCMIGACNPR3244
012024090302EKTR4       010ELEKTRO     PN           R$  000000000432200000000043220000000004322000000000432200000000043220000000004215000000000432200002000000000000000200000000000000864400000000000000009999123100000010000000000000BREKTRACNPR7164
012024090302ELET3       010ELETROBRAS  ON      N1   R$  000000000421300000000042160000000004147000000000417300000000041700000000004170000000000417515925000000000005407900000000022571154000000000000000009999123100000010000000000000BRELETACNOR6160
012024090302ELET6       010ELETROBRAS  PNB     N1   R$  000000000461500000000046600000000004602000000000462700000000046330000000004633000000000463503725000000000000679000000000003142026000000000000000009999123100000010000000000000BRELETACNPB7077
012024090302AERI3       010AERIS       ON      NM   R$  000000000113800000000011870000000001030000000000107800000000010550000000001055000000000105701560000000000000606600000000000654365500000000000000009999123100000010000000000000BRAERIACNOR4102
012024090302AESB3       010AES BRASIL  ON  ES  NM   R$  000000000114300000000011490000000001142000000000114600000000011470000000001147000000000114802930000000000002206400000000002529562800000000000000009999123100000010000000000000BRAESBACNOR7107
012024090302AFLT3       010AFLUENTE T  ON           R$  000000000074600000000007550000000000718000000000074200000000007390000000000716000000000073400006000000000000000700000000000000519600000000000000009999123100000010000000000000BRAFLTACNOR1122
012024090302AGRO3       010BRASILAGRO  ON      NM   R$  000000000258100000000025920000000002549000000000256600000000025530000000002551000000000256001598000000000000247600000000000635508200000000000000009999123100000010000000000000BRAGROACNOR7114
012024090302AGXY3       010AGROGALAXY  ON      NM   R$  000000000011800000000001200000000000115000000000011700000000001160000000000115000000000011600272000000000000136800000000000016120500000000000000009999123100000010000000000000BRAGXYACNOR4103
012024090302AHEB5       010SPTURIS     PNA          R$  000000000400000000000040000000000004000000000000400000000000040000000000001600000000000410000002000000000000000200000000000000800000000000000000009999123100000010000000000000BRAHEBACNPA3106
012024090302ALLD3       010ALLIED      ON      NM   R$  000000000074500000000007560000000000735000000000074600000000007430000000000742000000000074300251000000000000083000000000000061981200000000000000009999123100000010000000000000BRALLDACNOR3106
012024090302ALOS3       010ALLOS       ON      NM   R$  000000000228400000000022940000000002255000000000227700000000022800000000002279000000000228311283000000000006008900000000013687361800000000000000009999123100000010000000000000BRALOSACNOR5101
012024090302ALPA3       010ALPARGATAS  ON      N1   R$  000000000080300000000008030000000000768000000000077200000000007680000000000768000000000079800014000000000000003200000000000002473000000000000000009999123100000010000000000000BRALPAACNOR0231
012024090302ALPA4       010ALPARGATAS  PN      N1   R$  000000000076300000000007840000000000756000000000076300000000007600000000000759000000000076207890000000000006196200000000004729729100000000000000009999123100000010000000000000BRALPAACNPR7232
012024090302BIOM3       010BIOMM       ON      MA   R$  000000000084800000000008680000000000848000000000085500000000008550000000000855000000000086200236000000000000041000000000000035070700000000000000009999123100000010000000000000BRBIOMACNOR2112
012024090302BLAU3       010BLAU        ON      NM   R$  000000000140700000000014500000000001394000000000143200000000014360000000001436000000000144002008000000000000320800000000000459627200000000000000009999123100000010000000000000BRBLAUACNOR8114
012024090302BMEB3       010MERCANTIL   ON      N1   R$  000000000360000000000036000000000003600000000000360000000000036000000000003550000000000360000003000000000000000300000000000001080000000000000000009999123100000010000000000000BRBMEBACNOR8206
012024090302BMEB4       010MERCANTIL   PN      N1   R$  000000000393700000000040000000000003900000000000395200000000039600000000003900000000000396500084000000000000016600000000000065613100000000000000009999123100000010000000000000BRBMEBACNPR5211
012024090302BMGB4       010BANCO BMG   PN      N1   R$  000000000038300000000003840000000000377000000000038000000000003800000000000380000000000038100937000000000000408900000000000155601400000000000000009999123100000010000000000000BRBMGBACNPR0110
012024090302BMKS3       010BIC MONARK  ON           R$  000000003099900000000310000000000030559000000003093600000000306140000000030613000000003099900027000000000000000116000000000003588676000000000000009999123100000010000000000000BRBMKSACNOR9166
012024090302BMOB3       010BEMOBI TECH ON      NM   R$  000000000152400000000015650000000001523000000000153800000000015330000000001533000000000153502139000000000000292600000000000450288300000000000000009999123100000010000000000000BRBMOBACNOR7103
012024090302RADL3       010RAIADROGASILON      NM   R$  000000000273500000000027370000000002704000000000271900000000027080000000002706000000000271111645000000000005857700000000015932177700000000000000009999123100000010000000000000BRRADLACNOR0157
012024090302SBFG3       010GRUPO SBF   ON      NM   R$  000000000167800000000016960000000001649000000000167200000000016810000000001672000000000168306068000000000001305500000000002183912300000000000000009999123100000010000000000000BRSBFGACNOR1103
012024090302SBSP3       010SABESP      ON      NM   R$  000000000945300000000095550000000009404000000000948100000000094700000000009468000000000947015072000000000002595200000000024605889100000000000000009999123100000010000000000000BRSBSPACNOR5161
012024090302SCAR3       010SAO CARLOS  ON      NM   R$  000000000242500000000024440000000002350000000000236800000000023500000000002350000000000237800089000000000000022800000000000054011200000000000000009999123100000010000000000000BRSCARACNOR7131
012024090302RSUL4       010RIOSULENSE  PN           R$  000000000640400000000066490000000006381000000000643200000000063810000000006380000000000645000019000000000000002000000000000012865100000000000000009999123100000010000000000000BRRSULACNPR3114
012024090302CEBR3       010CEB         ON           R$  000000000191800000000019180000000001888000000000189900000000018990000000001886000000000190000008000000000000001000000000000001899800000000000000009999123100000010000000000000BRCEBRACNOR5125
012024090302CEBR5       010CEB         PNA          R$  000000000173800000000017380000000001654000000000167000000000016700000000001650000000000167300029000000000000005300000000000008856100000000000000009999123100000010000000000000BRCEBRACNPA8124
012024090302CEBR6       010CEB         PNB          R$  000000000180400000000018040000000001788000000000179400000000017940000000001776000000000179400018000000000000005000000000000008974900000000000000009999123100000010000000000000BRCEBRACNPB6124
012024090302CEED3       010CEEE-D      ON           R$  000000000112200000000011220000000001122000000000112200000000011220000000001122000000000139900002000000000000000300000000000000336600000000000000009999123100000010000000000000BRCEEDACNOR9103
012024090302CGAS3       010COMGAS      ON           R$  000000001150000000000115000000000011499000000001149900000000114990000000010900000000001149900002000000000000000200000000000002299900000000000000009999123100000010000000000000BRCGASACNOR0164
012024090302CGAS5       010COMGAS      PNA          R$  000000001238000000000124510000000012349000000001239700000000123490000000012200000000001235000012000000000000001500000000000018595700000000000000009999123100000010000000000000BRCGASACNPA3161
012024090302CGRA3       010GRAZZIOTIN  ON           R$  000000000255800000000025690000000002517000000000254500000000025380000000002510000000000253900012000000000000001200000000000003055100000000000000009999123100000010000000000000BRCGRAACNOR2083
012024090302CGRA4       010GRAZZIOTIN  PN           R$  000000000257800000000025790000000002538000000000254800000000025430000000002540000000000254300023000000000000003000000000000007646600000000000000009999123100000010000000000000BRCGRAACNPR9083
012024090307NUTR3       010NUTRIPLANT  ON      MA   R$  000000000046400000000004870000000000464000000000047600000000004830000000000476000000000048300025000000000000004200000000000001999800000000000000009999123100000010000000000000BRNUTRACNOR0104
012024090307TXRX4       010TEX RENAUX  PN           R$  000000000022800000000002280000000000225000000000022600000000002250000000000225000000000023200003000000000000001800000000000000408100000000000000009999123100000010000000000000BRTXRXACNPR0142
012024090308CTSA3       010SANTANENSE  ON           R$  000000000027200000000002720000000000269000000000027100000000002720000000000272000000000028200003000000000000000300000000000000081300000000000000009999123100000010000000000000BRCTSAACNOR3062
012024090308CTSA4       010SANTANENSE  PN           R$  000000000013300000000001330000000000124000000000012600000000001260000000000125000000000012600123000000000000070700000000000008945100000000000000009999123100000010000000000000BRCTSAACNPR0062
012024090308HOOT4       010HOTEIS OTHONPN           R$  000000000022200000000002260000000000222000000000022500000000002250000000000225000000000023000004000000000000001800000000000000405500000000000000009999123100000010000000000000BRHOOTACNPR9015
012024090308JFEN3       010JOAO FORTES ON           R$  000000000002100000000000220000000000020000000000002000000000000200000000000020000000000002100119000000000000469500000000000009758700000000000000009999123100000010000000000000BRJFENACNOR0059
012024090308OIBR3       010OI          ON  ES  N1   R$  000000000052400000000005380000000000506000000000051800000000005060000000000506000000000051201489000000000000998000000000000517030700000000000000009999123100000010000000000000BROIBRACNOR1112
012024090308OIBR4       010OI          PN  ES  N1   R$  000000000119300000000012500000000001193000000000120400000000012000000000001200000000000121400018000000000000002500000000000003010900000000000000009999123100000010000000000000BROIBRACNPR8111
012024090308RNEW11      010RENOVA      UNT     N2   R$  000000000031300000000003130000000000302000000000030500000000003050000000000302000000000030500030000000000000008000000000000002440800000000000000009999123100000010000000000000BRRNEWCDAM15110
012024090308RNEW3       010RENOVA      ON      N2   R$  000000000010000000000001050000000000100000000000010100000000001010000000000101000000000010200066000000000000018100000000000001839700000000000000009999123100000010000000000000BRRNEWACNOR8110
012024090308RNEW4       010RENOVA      PN      N2   R$  000000000010300000000001040000000000098000000000010000000000000990000000000099000000000010000149000000000000150200000000000015064400000000000000009999123100000010000000000000BRRNEWACNPR5110
012024090308RPMG3       010PET MANGUINHON           R$  000000000029200000000003090000000000292000000000029800000000002940000000000294000000000030000093000000000000027500000000000008205600000000000000009999123100000010000000000000BRRPMGACNOR9194
012024090308OSXB3       010OSX BRASIL  ON      NM   R$  000000000038000000000003810000000000380000000000038000000000003800000000000379000000000038100004000000000000000900000000000000342300000000000000009999123100000010000000000000BROSXBACNOR8109
012024090308LIGT3       010LIGHT S/A   ON      NM   R$  000000000064000000000006470000000000619000000000063200000000006300000000000627000000000063003531000000000001103500000000000698342600000000000000009999123100000010000000000000BRLIGTACNOR2124
012024090308BDLL3       010BARDELLA    ON           R$  000000000120000000000012000000000001200000000000120000000000012000000000001100000000000127000001000000000000000100000000000000120000000000000000009999123100000010000000000000BRBDLLACNOR1149
012024090308NEXP3       010NEXPE       ON           R$  000000000040800000000004090000000000399000000000040600000000003990000000000399000000000040700004000000000000000500000000000000203200000000000000009999123100000010000000000000BRNEXPACNOR0101
012024090308ATMP3       010ATMASA      ON           R$  000000000013500000000001400000000000135000000000013700000000001370000000000137000000000013900010000000000000008200000000000001125900000000000000009999123100000010000000000000BRATMPACNOR8100
012024090308PMAM3       010PARANAPANEMAON      NM   R$  000000000018300000000001840000000000179000000000018200000000001800000000000179000000000018100244000000000000157800000000000028816200000000000000009999123100000010000000000000BRPMAMACNOR3039
012024090308AMER3       010AMERICANAS  ON  EG  NM   R$  000000000071800000000007180000000000644000000000068300000000006440000000000643000000000064415103000000000016102100000000011000661600000000000000009999123100000010000000000000BRAMERACNOR6103
012024090308RSID3       010ROSSI RESID ON      NM   R$  000000000036400000000003740000000000363000000000036500000000003640000000000361000000000036400029000000000000004100000000000001498400000000000000009999123100000010000000000000BRRSIDACNOR8120
012024090310OIBR1       010OI          DIR ORD N1   R$  000000000002000000000000250000000000011000000000001600000000000190000000000018000000000001906894000000000015832000000000000261277900000000000000009999123100000010000000000000BROIBRD05OR7111
012024090310EQTL1       010EQUATORIAL  DIR ORD NM   R$  000000000021500000000002200000000000197000000000020900000000002190000000000198000000000021901319000000000000689900000000000144360400000000000000009999123100000010000000000000BREQTLD04OR9130
012024090310ZAMP9       010ZAMP S.A.   ON  REC      R$  000000000029300000000002930000000000293000000000029300000000002930000000000290000000000029900004000000000000002600000000000000761800000000000000009999123100000010000000000000BRZAMPR01OR0100
012024090310GFSA1       010GAFISA      DIR ORD NM   R$  000000000000200000000000020000000000001000000000000100000000000020000000000001000000000000200186000000000000859200000000000001299200000000000000009999123100000010000000000000BRGFSAD11OR7124
012024090310RENT9       010LOCALIZA    ON  REC NM   R$  000000000412100000000041470000000004015000000000411600000000040700000000000000000000000419400100000000000000020700000000000085201300000000000000009999123100000010000000000000BRRENTR06OR8195
012024090310AESB1       010AES BRASIL  DIR ORD NM   R$  000000000006500000000000830000000000022000000000004500000000000340000000000034000000000003900218000000000000139500000000000006393500000000000000009999123100000010000000000000BRAESBD03OR8106
012024090312ABCP11      010FII ABC IMOBCI  ER       R$  000000000717800000000072000000000007133000000000715300000000071530000000007153000000000716700105000000000000000708000000000005064380000000000000009999123100000010000000000000BRABCPCTF000342
012024090312BARI11      010FII BARIGUI CI  ER       R$  000000000790000000000079840000000007818000000000789800000000078890000000007828000000000788903181000000000000008678000000000068542382000000000000009999123100000010000000000000BRBARICTF003165
012024090312BRCO11      010FII BRESCO  CI  ER       R$  000000001142400000000114300000000011300000000001134900000000113300000000011324000000001133006593000000000000017347000000000196877877000000000000009999123100000010000000000000BRBRCOCTF007160
012024090312BRCR11      010FII BC FUND CI           R$  000000000506500000000050650000000005012000000000502800000000050140000000005014000000000502407746000000000000035595000000000178997721000000000000009999123100000010000000000000BRBRCRCTF000269
012024090312CTXT11      010FII C TEXTILCI           R$  000000000079800000000008130000000000797000000000079900000000008130000000000791000000000081300013000000000000000248000000000000198320000000000000009999123100000010000000000000BRCTXTCTF014207
012024090312CVBI11      010FII VBI CRI CI           R$  000000000940500000000094280000000009391000000000940900000000094010000000009401000000000941002466000000000000009389000000000088347642000000000000009999123100000010000000000000BRCVBICTF001168
012024090312CXAG11      010FII CAIXA AGCI  ER       R$  000000000760000000000077490000000007600000000000767600000000076750000000007666000000000767500253000000000000003953000000000030345839000000000000009999123100000010000000000000BRCXAGCTF003131
012024090312CXCE11      010FII CX CEDAECI  ER       R$  000000000402000000000040200000000004003000000000401400000000040200000000004022000000000404700016000000000000000087000000000000349234000000000000009999123100000010000000000000BRCXCECTF004272
012024090312CXCI11      010FII CAIXA CICI           R$  000000000821000000000082350000000008200000000000821000000000082000000000008172000000000820000028000000000000000928000000000007619511000000000000009999123100000010000000000000BRCXCICTF005129
012024090312CXCO11      010FII CEF CORPCI  ER       R$  000000000704000000000071240000000007010000000000703600000000070360000000007029000000000703600128000000000000001533000000000010787623000000000000009999123100000010000000000000BRCXCOCTF003141
012024090312CXRI11      010FII CX RBRAVCI  ER       R$  000000000759500000000080990000000007595000000000785300000000078970000000007848000000000805000013000000000000000132000000000001036719000000000000009999123100000010000000000000BRCXRICTF003231
012024090312EURO11      010FII EUROPAR CI  ER       R$  000000002458800000000252990000000024588000000002466500000000246000000000024548000000002460000015000000000000000042000000000001035954000000000000009999123100000010000000000000BREUROCTF011362
012024090312EVBI11      010FII VBI CON CI  ER       R$  000000000099200000000010020000000000990000000000099000000000009980000000000998000000000100200063000000000000002823000000000002797392000000000000009999123100000010000000000000BREVBICTF007153
012024090312EXES11      010FII EXES    CI           R$  000000000094900000000009490000000000942000000000094200000000009420000000000934000000000094200009000000000000000287000000000000270501000000000000009999123100000010000000000000BREXESCTF006128
012024090312FAED11      010FII ANH EDUCCI           R$  000000001530100000000153800000000015300000000001532600000000153100000000015305000000001531000031000000000000000286000000000004383494000000000000009999123100000010000000000000BRFAEDCTF003280
012024090312FAMB11      010FII ALMIRANTCI           R$  000000013650100000001419980000000136501000000013829800000001375000000000137500000000014190000033000000000000000131000000000018117105000000000000009999123100000010000000000000BRFAMBCTF018316
012024090312FATN11      010FII ATHENA ICI           R$  000000000920000000000092300000000009198000000000921000000000092210000000009219000000000922200422000000000000007163000000000065971920000000000000009999123100000010000000000000BRFATNCTF000154
012024090312FCFL11      010FII CAMPUSFLCI           R$  000000001151500000000115510000000011424000000001146100000000114500000000011451000000001148900038000000000000000395000000000004527144000000000000009999123100000010000000000000BRFCFLCTF009272
012024090312LSPA11      010FII LESTE PACI  EA       R$  000000000521000000000052980000000004801000000000504700000000051790000000004900000000000516000133000000000000000808000000000004078488000000000000009999123100000010000000000000BRLSPACTF005142
012024090312LUGG11      010FII LUGGO   CI  ER       R$  000000000733100000000073650000000007331000000000735800000000073550000000007352000000000736300060000000000000000208000000000001530589000000000000009999123100000010000000000000BRLUGGCTF007158
012024090312LVBI11      010FII VBI LOG CI  ER       R$  000000001098900000000110280000000010951000000001098900000000109870000000010987000000001099108890000000000000042325000000000465150422000000000000009999123100000010000000000000BRLVBICTF002172
012024090312SNCI11      010FII SUNO CRICI           R$  000000000968000000000098000000000009676000000000975400000000097660000000009766000000000976900405000000000000005507000000000053717553000000000000009999123100000010000000000000BRSNCICTF002138
012024090312SNEL11      010FII SUNO EL CI           R$  000000000091700000000009170000000000914000000000091500000000009150000000000914000000000091502512000000000000105321000000000096456417000000000000009999123100000010000000000000BRSNELCTF010111
012024090312SNFF11      010FII SUNOFOFICI  ES       R$  000000000914000000000091590000000009033000000000910000000000091180000000009118000000000911900420000000000000006304000000000057372305000000000000009999123100000010000000000000BRSNFFCTF001141
012024090312SNLG11      010FII SUNO LG CI           R$  000000000342900000000034320000000003364000000000340100000000034130000000003396000000000341300069000000000000001117000000000003799180000000000000009999123100000010000000000000BRSNLGCTF007106
012024090312SNME11      010FII SNME    CI           R$  000000000096900000000009710000000000960000000000096600000000009620000000000962000000000097100092000000000000003597000000000003476162000000000000009999123100000010000000000000BRSNMECTF000109
012024090312SPTW11      010FII SP DOWNTCI  ER       R$  000000000399000000000040000000000003985000000000399100000000039960000000003995000000000399600159000000000000001299000000000005184812000000000000009999123100000010000000000000BRSPTWCTF002238
012024090312SPXS11      010FII SPX SYN CI           R$  000000000094300000000009430000000000926000000000093300000000009300000000000926000000000093001665000000000000075307000000000070271684000000000000009999123100000010000000000000BRSPXSCTF002126
012024090312RBIR11      010FII RBRES IVCI           R$  000000000864000000000086430000000008500000000000860600000000086310000000008600000000000862800011000000000000000161000000000001385585000000000000009999123100000010000000000000BRRBIRCTF007112
012024090312RBLG11      010FII RBCAP LGCI  ER       R$  000000000672500000000067250000000006725000000000672500000000067250000000006800000000000790000006000000000000000047000000000000316075000000000000009999123100000010000000000000BRRBLGCTF004149
012024090312RBOP11      010FII MERC BR CI           R$  000000003747800000000386990000000037478000000003807400000000377010000000037702000000003830000028000000000000000054000000000002056005000000000000009999123100000010000000000000BRRBOPCTF009123
012024090312RBRD11      010FII RB II   CI  ER       R$  000000000395500000000039930000000003901000000000393700000000039430000000003906000000000394300089000000000000001251000000000004925577000000000000009999123100000010000000000000BRRBRDCTF008266
012024090312RBRF11      010FII RBRALPHACI           R$  000000000075300000000007540000000000746000000000074800000000007480000000000748000000000074907835000000000000390806000000000292550678000000000000009999123100000010000000000000BRRBRFCTF003189
012024090312RBRL11      010FII RBR LOG CI           R$  000000000800600000000080490000000007970000000000800400000000080120000000008006000000000801200270000000000000003449000000000027607632000000000000009999123100000010000000000000BRRBRLCTF001156
