00COTAHIST.2024BOVESPA 20240926                                                                                                                                                                                                                      
012024092602AZUL4       010AZUL        PN      N2   R$  000000000053100000000005850000000000531000000000056500000000005610000000000561000000000056322459000000000048890800000000027639058100000000000000009999123100000010000000000000BRAZULACNPR4103
012024092602VIVA3       010VIVARA S.A. ON      NM   R$  000000000277300000000027890000000002637000000000269400000000026640000000002662000000000267914074000000000005631600000000015174876100000000000000009999123100000010000000000000BRVIVAACNOR0107
012024092602AESB3       010AES BRASIL  ON      NM   R$  000000000116300000000011660000000001161000000000116300000000011660000000001162000000000116603205000000000003065800000000003566950000000000000000009999123100000010000000000000BRAESBACNOR7107
012024092602ALLD3       010ALLIED      ON      NM   R$  000000000075800000000007580000000000740000000000075000000000007550000000000745000000000075501052000000000000135000000000000101257700000000000000009999123100000010000000000000BRALLDACNOR3106
012024092602ALPA4       010ALPARGATAS  PN      N1   R$  000000000072000000000007330000000000710000000000071700000000007130000000000713000000000071505634000000000002468300000000001771697700000000000000009999123100000010000000000000BRALPAACNPR7232
012024092602HBRE3       010HBR REALTY  ON      NM   R$  000000000045800000000004690000000000458000000000046400000000004650000000000464000000000046501050000000000000282200000000000131063000000000000000009999123100000010000000000000BRHBREACNOR4100
012024092602ENGI11      010ENERGISA    UNT     N2   R$  000000000458200000000045850000000004491000000000454200000000045590000000004549000000000456009861000000000002204800000000010015985600000000000000009999123100000010000000000000BRENGICDAM16136
012024092602EPAR3       010EMBPAR S/A  ON           R$  000000000056900000000005740000000000569000000000057200000000005730000000000572000000000057300020000000000000003100000000000001775000000000000000009999123100000010000000000000BREPARACNOR9105
012024092602PLPL3       010PLANOEPLANO ON      NM   R$  000000000125600000000012590000000001208000000000123300000000012350000000001225000000000123502794000000000000569100000000000702225000000000000000009999123100000010000000000000BRPLPLACNOR5104
012024092602PORT3       010WILSON SONS ON      NM   R$  000000000173200000000017320000000001694000000000170000000000017100000000001705000000000171002893000000000004214700000000007168142200000000000000009999123100000010000000000000BRPORTACNOR8109
012024092602IFCM3       010INFRACOMM   ON      NM   R$  000000000001600000000000170000000000015000000000001500000000000160000000000015000000000001600831000000000007148900000000000113772600000000000000009999123100000010000000000000BRIFCMACNOR8101
012024092602INEP4       010INEPAR      PN           R$  000000000019700000000001970000000000186000000000018900000000001870000000000187000000000019100119000000000000021600000000000004092300000000000000009999123100000010000000000000BRINEPACNPR8143
012024092602TRPL3       010TRAN PAULISTON      N1   R$  000000000310800000000031400000000003107000000000311900000000031300000000003107000000000313000009000000000000001000000000000003119300000000000000009999123100000010000000000000BRTRPLACNOR4185
012024092602JSLG3       010JSL         ON      NM   R$  000000000091800000000009200000000000904000000000091200000000009120000000000912000000000091501196000000000000429900000000000392112100000000000000009999123100000010000000000000BRJSLGACNOR2121
012024092602MRVE3       010MRV         ON      NM   R$  000000000073500000000007440000000000722000000000072800000000007260000000000726000000000072709019000000000008159400000000005946146400000000000000009999123100000010000000000000BRMRVEACNOR2127
012024092602SHOW3       010TIME FOR FUNON      NM   R$  000000000010100000000001050000000000099000000000010000000000001000000000000099000000000010000284000000000000216300000000000021833600000000000000009999123100000010000000000000BRSHOWACNOR7105
012024092602SLCE3       010SLC AGRICOLAON      NM   R$  000000000173200000000017650000000001731000000000175200000000017630000000001759000000000176405988000000000002467500000000004323338600000000000000009999123100000010000000000000BRSLCEACNOR2125
012024092602WIZC3       010WIZ CO      ON      NM   R$  000000000058000000000005880000000000575000000000058000000000005760000000000576000000000058001561000000000000378500000000000219557300000000000000009999123100000010000000000000BRWIZCACNOR5102
012024092602UCAS3       010UNICASA     ON      NM   R$  000000000022000000000002210000000000218000000000021800000000002200000000000218000000000022000039000000000000006900000000000001508900000000000000009999123100000010000000000000BRUCASACNOR1113
012024092602PETZ3       010PETZ        ON      NM   R$  000000000048200000000004900000000000469000000000047400000000004710000000000471000000000047205378000000000008823700000000004187267800000000000000009999123100000010000000000000BRPETZACNOR2110
012024092602RDOR3       010REDE D OR   ON      NM   R$  000000000320300000000032190000000003119000000000316200000000031560000000003147000000000315714166000000000003187100000000010079037700000000000000009999123100000010000000000000BRRDORACNOR8113
012024092602TASA3       010TAURUS ARMASON      N2   R$  000000000109400000000011000000000001094000000000109600000000010980000000001096000000000111900045000000000000009000000000000009868800000000000000009999123100000010000000000000BRTASAACNOR7104
012024092602HAGA3       010HAGA S/A    ON           R$  000000000024600000000002560000000000241000000000024800000000002480000000000246000000000024800094000000000000023100000000000005749100000000000000009999123100000010000000000000BRHAGAACNOR7103
012024092602JBSS3       010JBS         ON      NM   R$  000000000312300000000031520000000003111000000000313300000000031380000000003135000000000313820951000000000006978000000000021864531500000000000000009999123100000010000000000000BRJBSSACNOR8122
012024092602RAPT4       010RANDON PART PN      N1   R$  000000000111200000000011250000000001085000000000109800000000010900000000001089000000000109707808000000000005215100000000005730158100000000000000009999123100000010000000000000BRRAPTACNPR4163
012024092602BBAS3       010BRASIL      ON      NM   R$  000000000274500000000027660000000002728000000000274700000000027480000000002748000000000275131820000000000013119200000000036047263800000000000000009999123100000010000000000000BRBBASACNOR3326
012024092602GMAT3       010GRUPO MATEUSON      NM   R$  000000000071800000000007430000000000715000000000073100000000007410000000000740000000000074105281000000000003413900000000002497793200000000000000009999123100000010000000000000BRGMATACNOR7102
012024092602MBLY3       010MOBLY       ON      NM   R$  000000000025800000000002620000000000252000000000025700000000002600000000000260000000000026100347000000000000182700000000000046993500000000000000009999123100000010000000000000BRMBLYACNOR5100
012024092602BRAP3       010BRADESPAR   ON      N1   R$  000000000182800000000019280000000001825000000000189600000000019070000000001905000000000192001050000000000000219600000000000416416500000000000000009999123100000010000000000000BRBRAPACNOR5148
012024092602CXSE3       010CAIXA SEGURION      NM   R$  000000000146500000000014830000000001459000000000146800000000014660000000001466000000000147616677000000000003817200000000005606194300000000000000009999123100000010000000000000BRCXSEACNOR7107
012024092602ITUB3       010ITAUUNIBANCOON  EJ  N1   R$  000000000315300000000031940000000003153000000000317900000000031870000000003183000000000318702068000000000000434100000000001380093500000000000000009999123100000010000000000000BRITUBACNOR4341
012024092602BRSR6       010BANRISUL    PNB     N1   R$  000000000115000000000011620000000001147000000000115200000000011520000000001151000000000115203083000000000000997700000000001149675900000000000000009999123100000010000000000000BRBRSRACNPB4192
012024092602PDGR3       010PDG REALT   ON      NM   R$  000000000000300000000000040000000000001000000000000100000000000020000000000001000000000000206214000000000394084000000000000569912900000000000000009999123100000010000000000000BRPDGRACNOR8119
012024092602AGRO3       010BRASILAGRO  ON      NM   R$  000000000258700000000025910000000002532000000000255700000000025320000000002531000000000256001407000000000000250500000000000640747600000000000000009999123100000010000000000000BRAGROACNOR7114
012024092602ALOS3       010ALLOS       ON      NM   R$  000000000220500000000022170000000002175000000000219300000000022000000000002200000000000220208133000000000002412400000000005291774800000000000000009999123100000010000000000000BRALOSACNOR5101
012024092602BRFS3       010BRF SA      ON      NM   R$  000000000254000000000025440000000002454000000000247000000000024640000000002463000000000246513106000000000005261500000000012999386100000000000000009999123100000010000000000000BRBRFSACNOR8122
012024092602CSED3       010CRUZEIRO EDUON      NM   R$  000000000033000000000003430000000000330000000000033900000000003390000000000339000000000034201308000000000000486900000000000165419200000000000000009999123100000010000000000000BRCSEDACNOR9105
012024092602ENGI4       010ENERGISA    PN      N2   R$  000000000079200000000008000000000000788000000000079200000000007970000000000791000000000079700051000000000000009600000000000007610300000000000000009999123100000010000000000000BRENGIACNPR7142
012024092602PINE3       010PINE        ON      N2   R$  000000000047800000000004820000000000478000000000047900000000004800000000000479000000000051000012000000000000002200000000000001055400000000000000009999123100000010000000000000BRPINEACNOR1150
012024092602POMO3       010MARCOPOLO   ON      N2   R$  000000000061600000000006180000000000601000000000060600000000006090000000000607000000000060900610000000000000299500000000000181589400000000000000009999123100000010000000000000BRPOMOACNOR0099
012024092602EQPA3       010EQTL PARA   ON           R$  000000000060900000000006120000000000604000000000060700000000006080000000000607000000000060800032000000000000008400000000000005104500000000000000009999123100000010000000000000BREQPAACNOR1111
012024092602IGTI3       010IGUATEMI S.AON      N1   R$  000000000026200000000002670000000000260000000000026400000000002610000000000261000000000026600074000000000000027000000000000007136700000000000000009999123100000010000000000000BRIGTIACNOR8106
012024092602TRAD3       010TC          ON      NM   R$  000000000048900000000005060000000000476000000000049000000000005050000000000498000000000050500407000000000000135900000000000066643300000000000000009999123100000010000000000000BRTRADACNOR3102
012024092602INTB3       010INTELBRAS   ON      NM   R$  000000000208400000000020950000000002038000000000205400000000020550000000002055000000000205604042000000000001010800000000002076247400000000000000009999123100000010000000000000BRINTBACNOR9112
012024092602SEER3       010SER EDUCA   ON      NM   R$  000000000060900000000006300000000000609000000000061300000000006090000000000608000000000060901485000000000000663200000000000406763500000000000000009999123100000010000000000000BRSEERACNOR5119
012024092602SIMH3       010SIMPAR      ON      NM   R$  000000000052300000000005340000000000515000000000052200000000005240000000000522000000000052405998000000000003476500000000001817361100000000000000009999123100000010000000000000BRSIMHACNOR0107
012024092602WHRL3       010WHIRLPOOL   ON           R$  000000000043700000000004390000000000437000000000043800000000004390000000000437000000000044000006000000000000001200000000000000526600000000000000009999123100000010000000000000BRWHRLACNOR5129
012024092602SANB3       010SANTANDER BRON           R$  000000000138600000000013990000000001375000000000138400000000013750000000001375000000000138200343000000000000048300000000000066882900000000000000009999123100000010000000000000BRSANBACNOR8172
012024092602UNIP3       010UNIPAR      ON           R$  000000000469500000000047300000000004689000000000470300000000046910000000004691000000000472600029000000000000003900000000000018344700000000000000009999123100000010000000000000BRUNIPACNOR7206
012024092602REDE3       010REDE ENERGIAON           R$  000000000068700000000006880000000000680000000000068400000000006870000000000683000000000068700030000000000000005000000000000003420800000000000000009999123100000010000000000000BRREDEACNOR7128
012024092602TCSA3       010TECNISA     ON      NM   R$  000000000018800000000001940000000000186000000000019000000000001900000000000186000000000019000155000000000000092900000000000017710700000000000000009999123100000010000000000000BRTCSAACNOR3112
012024092602HAPV3       010HAPVIDA     ON      NM   R$  000000000041400000000004220000000000404000000000041000000000004070000000000406000000000040742652000000000056971900000000023394356200000000000000009999123100000010000000000000BRHAPVACNOR4114
012024092602RANI3       010IRANI       ON      NM   R$  000000000073700000000007560000000000735000000000074600000000007500000000000750000000000075204085000000000001211400000000000904115400000000000000009999123100000010000000000000BRRANIACNOR5073
012024092602BAHI3       010BAHEMA      ON      MA   R$  000000000065200000000006800000000000652000000000067200000000006800000000000650000000000068800004000000000000000400000000000000269000000000000000009999123100000010000000000000BRBAHIACNOR1074
012024092602TAEE3       010TAESA       ON      N2   R$  000000000113400000000011420000000001132000000000113800000000011400000000001137000000000114000401000000000000061000000000000069432200000000000000009999123100000010000000000000BRTAEEACNOR9148
012024092602GOAU4       010GERDAU MET  PN      N1   R$  000000000107200000000011000000000001070000000000108900000000010970000000001092000000000109809593000000000007273300000000007924885100000000000000009999123100000010000000000000BRGOAUACNPR8269
012024092602BHIA3       010CASAS BAHIA ON      NM   R$  000000000052800000000005410000000000512000000000052100000000005170000000000516000000000051702588000000000002797800000000001459658200000000000000009999123100000010000000000000BRBHIAACNOR1102
012024092602COCE5       010COELCE      PNA          R$  000000000282600000000028730000000002825000000000285600000000028730000000002840000000000287300037000000000000011200000000000031995800000000000000009999123100000010000000000000BRCOCEACNPA3147
012024092602ITSA3       010ITAUSA      ON  EJ  N1   R$  000000000109600000000011140000000001092000000000110700000000011130000000001112000000000111500486000000000000103000000000000114077300000000000000009999123100000010000000000000BRITSAACNOR0443
012024092602LUPA3       010LUPATECH    ON      NM   R$  000000000014100000000001430000000000140000000000014100000000001420000000000140000000000014300075000000000000070400000000000009956300000000000000009999123100000010000000000000BRLUPAACNOR8112
012024092602BPAC5       010BTGP BANCO  PNA     N2   R$  000000000086200000000008830000000000860000000000086800000000008740000000000864000000000088200019000000000000002600000000000002257200000000000000009999123100000010000000000000BRBPACACNPA0134
012024092602CSUD3       010CSU DIGITAL ON      NM   R$  000000000179700000000018180000000001781000000000179600000000017990000000001790000000000179900220000000000000046600000000000083730400000000000000009999123100000010000000000000BRCSUDACNOR5110
012024092602BRSR3       010BANRISUL    ON      N1   R$  000000000126500000000012840000000001262000000000127000000000012660000000001266000000000127000043000000000000008000000000000010162400000000000000009999123100000010000000000000BRBRSRACNOR3189
012024092602PCAR3       010P.ACUCAR-CBDON      NM   R$  000000000028500000000002920000000000281000000000028400000000002810000000000281000000000028211048000000000008885700000000002525893000000000000000009999123100000010000000000000BRPCARACNOR3167
012024092602AFLT3       010AFLUENTE T  ON           R$  000000000071100000000007110000000000711000000000071100000000007110000000000704000000000072800002000000000000000200000000000000142200000000000000009999123100000010000000000000BRAFLTACNOR1122
012024092602BRBI11      010BR PARTNERS UNT     N2   R$  000000000152200000000015300000000001507000000000151800000000015260000000001523000000000152601955000000000000348400000000000529203700000000000000009999123100000010000000000000BRBRBICDAM10110
012024092602HBSA3       010HIDROVIAS   ON      NM   R$  000000000033700000000003440000000000328000000000033200000000003390000000000339000000000034003197000000000006347500000000002110497600000000000000009999123100000010000000000000BRHBSAACNOR0100
012024092602ENGI3       010ENERGISA    ON      N2   R$  000000000139700000000013970000000001340000000000135800000000013700000000001354000000000141700033000000000000003900000000000005298500000000000000009999123100000010000000000000BRENGIACNOR0146
012024092602EQMA3B      010EQTLMARANHAOON      MB   R$  000000000225900000000022990000000002258000000000227700000000022990000000002280000000000229800019000000000000002800000000000006378200000000000000009999123100000010000000000000BREQMAACNOR8108
012024092602PNVL3       010DIMED       ON      NM   R$  000000000100100000000010010000000000985000000000099300000000009950000000000995000000000099801386000000000000283600000000000281766600000000000000009999123100000010000000000000BRPNVLACNOR9207
012024092602HETA4       010HERCULES    PN           R$  000000000063100000000006310000000000622000000000062600000000006220000000000620000000000067500004000000000000000400000000000000250500000000000000009999123100000010000000000000BRHETAACNPR9136
012024092602IGTI11      010IGUATEMI S.AUNT     N1   R$  000000000212500000000021460000000002112000000000212900000000021210000000002121000000000213207504000000000001863400000000003968536900000000000000009999123100000010000000000000BRIGTICDAM16106
012024092602TPIS3       010TRIUNFO PARTON      NM   R$  000000000052600000000005450000000000520000000000053000000000005250000000000525000000000052800274000000000000078400000000000041603000000000000000009999123100000010000000000000BRTPISACNOR8118
012024092602TRPL4       010TRAN PAULISTPN      N1   R$  000000000244700000000024500000000002419000000000243100000000024330000000002433000000000243506523000000000001561600000000003797779100000000000000009999123100000010000000000000BRTRPLACNPR1185
012024092602SCAR3       010SAO CARLOS  ON      NM   R$  000000000221400000000022140000000002180000000000219200000000021890000000002167000000000219000016000000000000002000000000000004384600000000000000009999123100000010000000000000BRSCARACNOR7131
012024092602SHUL4       010SCHULZ      PN           R$  000000000063100000000006340000000000627000000000063000000000006290000000000628000000000062901093000000000000453900000000000286027500000000000000009999123100000010000000000000BRSHULACNPR4156
012024092602WEST3       010WESTWING    ON      NM   R$  000000000008300000000000840000000000083000000000008300000000000830000000000083000000000008400018000000000000018900000000000001583800000000000000009999123100000010000000000000BRWESTACNOR3100
012024092602SANB11      010SANTANDER BRUNT          R$  000000000293100000000029400000000002888000000000290100000000028910000000002888000000000289708827000000000002639400000000007659371800000000000000009999123100000010000000000000BRSANBCDAM13165
012024092602UGPA3       010ULTRAPAR    ON      NM   R$  000000000210400000000021300000000002087000000000211100000000021240000000002124000000000212512079000000000004219700000000008911014300000000000000009999123100000010000000000000BRUGPAACNOR8156
012024092602RECV3       010PETRORECSA  ON      NM   R$  000000000178500000000018140000000001772000000000178900000000017810000000001781000000000179009477000000000002879800000000005154276100000000000000009999123100000010000000000000BRRECVACNOR3107
012024092602TASA4       010TAURUS ARMASPN      N2   R$  000000000105200000000010630000000001038000000000105000000000010530000000001053000000000105701496000000000000315200000000000331162900000000000000009999123100000010000000000000BRTASAACNPR4104
012024092602HAGA4       010HAGA S/A    PN           R$  000000000011800000000001180000000000117000000000011700000000001180000000000116000000000011800005000000000000000900000000000000105500000000000000009999123100000010000000000000BRHAGAACNPR4103
012024092602TOTS3       010TOTVS       ON      NM   R$  000000000286300000000029010000000002804000000000283000000000028080000000002807000000000280913737000000000003077100000000008709558900000000000000009999123100000010000000000000BRTOTSACNOR8145
012024092602SYNE3       010SYN PROP TECON      NM   R$  000000000077500000000007800000000000770000000000077600000000007770000000000770000000000077702424000000000000762000000000000591417100000000000000009999123100000010000000000000BRSYNEACNOR2103
012024092602TAEE11      010TAESA       UNT     N2   R$  000000000340800000000034340000000003408000000000342400000000034220000000003421000000000342506204000000000001110700000000003804127000000000000000009999123100000010000000000000BRTAEECDAM10148
012024092602GOAU3       010GERDAU MET  ON      N1   R$  000000000107000000000010970000000001070000000000108700000000010820000000001082000000000108400298000000000000058000000000000063067800000000000000009999123100000010000000000000BRGOAUACNOR1268
012024092602BRAP4       010BRADESPAR   PN      N1   R$  000000000197000000000020580000000001970000000000202800000000020460000000002046000000000204716757000000000010566100000000021435247500000000000000009999123100000010000000000000BRBRAPACNPR2148
012024092602CYRE3       010CYRELA REALTON      NM   R$  000000000206900000000020990000000002062000000000208200000000020870000000002086000000000208714677000000000004185400000000008714166200000000000000009999123100000010000000000000BRCYREACNOR7140
012024092602ITUB4       010ITAUUNIBANCOPN  EJ  N1   R$  000000000365000000000036890000000003634000000000366700000000036620000000003662000000000366540580000000000037598800000000137876080500000000000000009999123100000010000000000000BRITUBACNPR1341
012024092602BPAC3       010BTGP BANCO  ON      N2   R$  000000000156900000000015700000000001545000000000155600000000015520000000001544000000000155500024000000000000002700000000000004202400000000000000009999123100000010000000000000BRBPACACNOR7134
012024092602CMIN3       010CSNMINERACAOON      N2   R$  000000000069200000000007200000000000688000000000070900000000007200000000000719000000000072016340000000000024346000000000017277731300000000000000009999123100000010000000000000BRCMINACNOR2111
012024092602FIEI3       010FICA        ON           R$  000000000087800000000008780000000000878000000000087800000000008780000000000877000000000093000001000000000000000100000000000000087800000000000000009999123100000010000000000000BRFIEIACNOR2100
012024092602MILS3       010MILLS       ON      NM   R$  000000000112100000000011280000000001104000000000111600000000011150000000001112000000000111802449000000000000673100000000000751404200000000000000009999123100000010000000000000BRMILSACNOR2128
012024092602LWSA3       010LWSA        ON      NM   R$  000000000041900000000004320000000000417000000000042400000000004280000000000427000000000042905814000000000004065400000000001726098500000000000000009999123100000010000000000000BRLWSAACNOR8103
012024092602BPAC11      010BTGP BANCO  UNT     N2   R$  000000000329600000000033500000000003268000000000330800000000033170000000003313000000000331822575000000000011265400000000037275083000000000000000009999123100000010000000000000BRBPACUNT006119
012024092602CMIG4       010CEMIG       PN  EJ  N1   R$  000000000113200000000011510000000001129000000000114100000000011460000000001145000000000114816339000000000011091100000000012659683800000000000000009999123100000010000000000000BRCMIGACNPR3245
012024092602CVCB3       010CVC BRASIL  ON      NM   R$  000000000018800000000001930000000000185000000000018800000000001860000000000185000000000018614841000000000017361600000000003264055100000000000000009999123100000010000000000000BRCVCBACNOR1116
012024092602HYPE3       010HYPERA      ON  EJ  NM   R$  000000000262200000000026680000000002610000000000262900000000026260000000002625000000000263208213000000000003333400000000008765768800000000000000009999123100000010000000000000BRHYPEACNOR0144
012024092602GEPA4       010GER PARANAP PN           R$  000000000298000000000030000000000002951000000000298800000000029510000000002950000000000300900006000000000000000700000000000002091800000000000000009999123100000010000000000000BRGEPAACNPR9160
012024092602RAIZ4       010RAIZEN      PN      N2   R$  000000000030400000000003110000000000303000000000030600000000003050000000000305000000000030606824000000000010502800000000003215264100000000000000009999123100000010000000000000BRRAIZACNPR6111
012024092602CEBR3       010CEB         ON           R$  000000000194800000000019510000000001935000000000194600000000019350000000001896000000000193500009000000000000001400000000000002725300000000000000009999123100000010000000000000BRCEBRACNOR5125
012024092602ESPA3       010ESPACOLASER ON      NM   R$  000000000010500000000001060000000000103000000000010400000000001050000000000103000000000010500183000000000000133200000000000013921200000000000000009999123100000010000000000000BRESPAACNOR7103
012024092602SAPR4       010SANEPAR     PN      N2   R$  000000000060900000000006090000000000599000000000060200000000006020000000000601000000000060202337000000000001015100000000000611304200000000000000009999123100000010000000000000BRSAPRACNPR6159
012024092602POSI3       010POSITIVO TECON      NM   R$  000000000056600000000005830000000000564000000000057600000000005820000000000580000000000058202827000000000001325700000000000763651100000000000000009999123100000010000000000000BRPOSIACNOR9116
012024092602NORD3       010NORDON MET  ON           R$  000000000108400000000010840000000001084000000000108400000000010840000000000980000000000108400001000000000000000100000000000000108400000000000000009999123100000010000000000000BRNORDACNOR7135
012024092602ECOR3       010ECORODOVIAS ON      NM   R$  000000000073600000000007440000000000720000000000072800000000007270000000000726000000000073005539000000000002062500000000001501976400000000000000009999123100000010000000000000BRECORACNOR8120
012024092602BBDC3       010BRADESCO    ON      N1   R$  000000000129600000000013170000000001296000000000131100000000013160000000001312000000000131709507000000000007960900000000010440872700000000000000009999123100000010000000000000BRBBDCACNOR1774
012024092602BRKM5       010BRASKEM     PNA     N1   R$  000000000206000000000020600000000001992000000000203200000000020490000000002047000000000204909969000000000003258200000000006623102000000000000000009999123100000010000000000000BRBRKMACNPA4121
012024092602EGIE3       010ENGIE BRASILON      NM   R$  000000000431400000000043400000000004289000000000430500000000043060000000004295000000000430603989000000000000628100000000002704355900000000000000009999123100000010000000000000BREGIEACNOR9127
012024092602RAIL3       010RUMO S.A.   ON      NM   R$  000000000199900000000020390000000001990000000000201700000000020180000000002017000000000201828541000000000013721700000000027677113400000000000000009999123100000010000000000000BRRAILACNOR9105
012024092602STBP3       010SANTOS BRP  ON      NM   R$  000000000148800000000014920000000001468000000000147500000000014850000000001485000000000148625759000000000023897000000000035250443900000000000000009999123100000010000000000000BRSTBPACNOR3131
012024092602MULT3       010MULTIPLAN   ON      N2   R$  000000000260000000000026000000000002548000000000257000000000025680000000002567000000000258014683000000000003920100000000010075856600000000000000009999123100000010000000000000BRMULTACNOR5139
012024092602PSSA3       010PORTO SEGUROON      NM   R$  000000000360100000000036380000000003591000000000361500000000036290000000003620000000000363009840000000000001881700000000006803982100000000000000009999123100000010000000000000BRPSSAACNOR7155
012024092602SMFT3       010SMART FIT   ON      NM   R$  000000000214500000000021680000000002125000000000214600000000021430000000002142000000000214405637000000000001383900000000002970875400000000000000009999123100000010000000000000BRSMFTACNOR1112
012024092602YDUQ3       010YDUQS PART  ON      NM   R$  000000000093500000000009950000000000922000000000096000000000009320000000000931000000000093322517000000000009755600000000009366998200000000000000009999123100000010000000000000BRYDUQACNOR3105
012024092602DESK3       010DESKTOP     ON      NM   R$  000000000155400000000015570000000001522000000000153500000000015300000000001530000000000153600829000000000000174500000000000268004600000000000000009999123100000010000000000000BRDESKACNOR2104
012024092602CRPG5       010CRISTAL     PNA          R$  000000000272500000000027250000000002706000000000271600000000027070000000002703000000000271400010000000000000001500000000000004074400000000000000009999123100000010000000000000BRCRPGACNPA3119
012024092602EMBR3       010EMBRAER     ON      NM   R$  000000000505000000000050840000000004985000000000502400000000050130000000005013000000000502016970000000000003690000000000018538701300000000000000009999123100000010000000000000BREMBRACNOR4191
012024092608CTSA3       010SANTANENSE  ON           R$  000000000026800000000002910000000000263000000000027400000000002730000000000264000000000027500036000000000000011200000000000003073400000000000000009999123100000010000000000000BRCTSAACNOR3062
012024092610ZAMP9       010ZAMP S.A.   ON  REC      R$  000000000025000000000002500000000000250000000000025000000000002500000000000234000000000025400001000000000000000100000000000000025000000000000000009999123100000010000000000000BRZAMPR01OR0100
012024092612BRLA11      010FII BRLPROIICI           R$  000000001700000000000170000000000017000000000001700000000000170000000000011282000000001700000001000000000000000008000000000000136000000000000000009999123100000010000000000000BRBRLACTF007150
012024092612VGIR11      010FII VALREIIICI           R$  000000000098700000000009900000000000981000000000098400000000009840000000000984000000000098729689000000000000653041000000000643113769000000000000009999123100000010000000000000BRVGIRCTF008180
012024092612VINO11      010FII VINCI OFCI           R$  000000000050700000000005110000000000500000000000050400000000005040000000000503000000000050403800000000000000263695000000000133011385000000000000009999123100000010000000000000BRVINOCTF001160
012024092612AFHI11      010FII AFHI CRICI           R$  000000000964900000000097000000000009633000000000966600000000096750000000009663000000000967502681000000000000010548000000000101959537000000000000009999123100000010000000000000BRAFHICTF005146
012024092602MLAS3       010MULTILASER  ON      NM   R$  000000000015000000000001600000000000150000000000015600000000001590000000000158000000000015902428000000000003537800000000000554147600000000000000009999123100000010000000000000BRMLASACNOR9101
012024092602GGBR3       010GERDAU      ON      N1   R$  000000000167600000000017020000000001641000000000168900000000016880000000001688000000000170000343000000000000297100000000000501987400000000000000009999123100000010000000000000BRGGBRACNOR1193
012024092602CCRO3       010CCR SA      ON      NM   R$  000000000125000000000012610000000001240000000000125200000000012530000000001248000000000125309515000000000003921900000000004910519200000000000000009999123100000010000000000000BRCCROACNOR2145
012024092602CEBR6       010CEB         PNB          R$  000000000180200000000018020000000001786000000000178900000000017860000000001786000000000179500015000000000000002400000000000004295300000000000000009999123100000010000000000000BRCEBRACNPB6124
012024092602SAPR11      010SANEPAR     UNT     N2   R$  000000000300100000000030200000000002971000000000298600000000029810000000002976000000000298104327000000000000713500000000002130883200000000000000009999123100000010000000000000BRSAPRCDAM13118
012024092602SBSP3       010SABESP      ON      NM   R$  000000000928000000000092800000000009090000000000913400000000091350000000009134000000000914614616000000000005009500000000045758218500000000000000009999123100000010000000000000BRSBSPACNOR5161
012024092602QUAL3       010QUALICORP   ON      NM   R$  000000000019200000000002020000000000192000000000019600000000001980000000000197000000000019802438000000000003527200000000000694087800000000000000009999123100000010000000000000BRQUALACNOR6120
012024092602BOBR4       010BOMBRIL     PN           R$  000000000021800000000002240000000000216000000000021800000000002160000000000215000000000021800068000000000000027600000000000006043600000000000000009999123100000010000000000000BRBOBRACNPR3128
012024092602ARML3       010ARMAC       ON      NM   R$  000000000085200000000008560000000000790000000000081100000000007960000000000796000000000079904741000000000001138200000000000923543000000000000000009999123100000010000000000000BRARMLACNOR1112
012024092602BRIT3       010BRISANET    ON      NM   R$  000000000030500000000003100000000000302000000000030400000000003050000000000305000000000030600335000000000000247300000000000075303900000000000000009999123100000010000000000000BRBRITACNOR0103
012024092602CPLE6       010COPEL       PNB     N2   R$  000000000102100000000010320000000001014000000000102300000000010300000000001030000000000103212588000000000013252600000000013565209500000000000000009999123100000010000000000000BRCPLEACNPB9146
012024092602ELET3       010ELETROBRAS  ON      N1   R$  000000000395100000000039860000000003897000000000395600000000039730000000003970000000000397521903000000000006463200000000025568974000000000000000009999123100000010000000000000BRELETACNOR6160
012024092602SOJA3       010BOA SAFRA   ON      NM   R$  000000000116500000000011830000000001162000000000117000000000011710000000001165000000000117202554000000000000501900000000000587641200000000000000009999123100000010000000000000BRSOJAACNOR9105
012024092602MTRE3       010MITRE REALTYON  ED  NM   R$  000000000036100000000003660000000000355000000000036000000000003630000000000359000000000036300776000000000000666400000000000240533700000000000000009999123100000010000000000000BRMTREACNOR6115
012024092602MYPK3       010IOCHP-MAXIONON      NM   R$  000000000108600000000011560000000001086000000000113000000000011140000000001112000000000111506114000000000006792700000000007679807400000000000000009999123100000010000000000000BRMYPKACNOR7155
012024092602PTNT3       010PETTENATI   ON           R$  000000000110000000000011700000000001080000000000110800000000011700000000000920000000000114000004000000000000000600000000000000665000000000000000009999123100000010000000000000BRPTNTACNOR6042
012024092602JHSF3       010JHSF PART   ON      NM   R$  000000000040800000000004140000000000407000000000041100000000004120000000000411000000000041202161000000000001968600000000000809157400000000000000009999123100000010000000000000BRJHSFACNOR2139
012024092602ZAMP3       010ZAMP S.A.   ON           R$  000000000024200000000002620000000000238000000000024600000000002490000000000249000000000025101677000000000000526200000000000129693200000000000000009999123100000010000000000000BRZAMPACNOR5101
012024092602DEXP4       010DEXXOS PAR  PN      N1   R$  000000000089000000000008970000000000879000000000088900000000008790000000000879000000000089600010000000000000003600000000000003200800000000000000009999123100000010000000000000BRDEXPACNPR8105
012024092602EALT4       010ACO ALTONA  PN           R$  000000000136000000000013640000000001346000000000135500000000013600000000001355000000000136000051000000000000009500000000000012875700000000000000009999123100000010000000000000BREALTACNPR1138
012024092602ELMD3       010ELETROMIDIA ON      NM   R$  000000000165200000000016940000000001652000000000167800000000016750000000001674000000000168800305000000000000055200000000000092660400000000000000009999123100000010000000000000BRELMDACNOR3101
012024092608AGXY3       010AGROGALAXY  ON      NM   R$  000000000005900000000000610000000000057000000000005900000000000600000000000059000000000006000311000000000000275600000000000016385000000000000000009999123100000010000000000000BRAGXYACNOR4103
012024092608JFEN3       010JOAO FORTES ON           R$  000000000002800000000000290000000000025000000000002600000000000260000000000026000000000002700419000000000002063300000000000054537600000000000000009999123100000010000000000000BRJFENACNOR0059
012024092612BIME11      010FII BRIO ME CI           R$  000000000073500000000007350000000000725000000000072700000000007280000000000726000000000072800156000000000000006738000000000004905009000000000000009999123100000010000000000000BRBIMECTF006135
012024092612BTAL11      010FII BTG AGROCI  ER       R$  000000000747000000000074980000000007372000000000743100000000074040000000007402000000000740402477000000000000013889000000000103214929000000000000009999123100000010000000000000BRBTALCTF003143
012024092612VIFI11      010FII VINCI IFCI           R$  000000000076800000000007800000000000760000000000076600000000007640000000000762000000000076400072000000000000001717000000000001316149000000000000009999123100000010000000000000BRVIFICTF009159
012024092612VIUR11      010FII VINCI IUCI           R$  000000000060600000000006170000000000599000000000060500000000006050000000000602000000000060501155000000000000061455000000000037224411000000000000009999123100000010000000000000BRVIURCTF009140
012024092612AJFI11      010FII AJ MALLSCI           R$  000000000077000000000007910000000000770000000000078000000000007720000000000772000000000078006129000000000000116017000000000090605702000000000000009999123100000010000000000000BRAJFICTF001110
012024092612BRCR11      010FII BC FUND CI           R$  000000000475000000000047690000000004701000000000472800000000047300000000004725000000000473007434000000000000026198000000000123884195000000000000009999123100000010000000000000BRBRCRCTF000270
012024092612PLRI11      010FII POLO I  CI           R$  000000000171000000000018000000000001710000000000178100000000017990000000001715000000000179900010000000000000000046000000000000081955000000000000009999123100000010000000000000BRPLRICTF000245
012024092612HCRI11      010FII CRIANCA CI           R$  000000002695200000000273990000000026952000000002721400000000270000000000026900000000002721500031000000000000000074000000000002013899000000000000009999123100000010000000000000BRHCRICTF006332
012024092612ALMI11      010FII TORRE ALCI           R$  000000005760000000000591990000000057588000000005835000000000575880000000057006000000006199900015000000000000000141000000000008227377000000000000009999123100000010000000000000BRALMICTF003251
012024092612EQIR11      010FII EQI RECECI  ER       R$  000000000089700000000008980000000000888000000000089200000000008970000000000889000000000089701360000000000000015396000000000013741489000000000000009999123100000010000000000000BREQIRCTF003136
012024092612PORD11      010FII POLO CRICI           R$  000000000085600000000008560000000000841000000000084400000000008450000000000842000000000084502634000000000000069878000000000058996578000000000000009999123100000010000000000000BRPORDCTF005177
012024092612HFOF11      010FII HTOPFOF3CI           R$  000000000675000000000067600000000006714000000000673600000000067600000000006740000000000676001565000000000000014019000000000094435248000000000000009999123100000010000000000000BRHFOFCTF002192
012024092612HGFF11      010FII HGFF PAXCI           R$  000000000794500000000080080000000007777000000000783900000000079190000000007855000000000791901908000000000000006161000000000048299339000000000000009999123100000010000000000000BRHGFFCTF008163
012024092612HGRE11      010FII HGRE PAXCI           R$  000000001026900000000103350000000010255000000001028600000000103180000000010318000000001033406193000000000000025490000000000262207121000000000000009999123100000010000000000000BRHGRECTF006295
012024092612IDGR11      010FII UNID II CI           R$  000000000062500000000006250000000000625000000000062500000000006250000000000625000000000065000001000000000000000007000000000000004375000000000000009999123100000010000000000000BRIDGRCTF006130
012024092612TRXB11      010FII TRX R IICI           R$  000000001300000000000130000000000012980000000001298600000000129800000000012682000000001298000003000000000000000003000000000000038960000000000000009999123100000010000000000000BRTRXBCTF002154
012024092612JSAF11      010FII JS A FINCI           R$  000000000931700000000095000000000009221000000000933600000000093970000000009350000000000939702698000000000000023568000000000220039282000000000000009999123100000010000000000000BRJSAFCTF000136
012024092612SHPH11      010FII HIGIENOPCI           R$  000000008999000000000909990000000087901000000008874700000000879010000000087900000000009389600034000000000000000114000000000010117234000000000000009999123100000010000000000000BRSHPHCTF008353
012024092612WHGR11      010FII WHG REALCI           R$  000000000093800000000009380000000000923000000000092900000000009380000000000927000000000093802936000000000000066541000000000061832046000000000000009999123100000010000000000000BRWHGRCTF008128
012024092612PATC11      010FII PATRIA  CI           R$  000000000351400000000035140000000003451000000000347500000000035000000000003500000000000350100140000000000000000453000000000001574297000000000000009999123100000010000000000000BRPATCCTF002173
012024092612RBHG11      010FII RBCRI IVCI           R$  000000000820000000000082060000000008158000000000818200000000081900000000008189000000000819700157000000000000001589000000000013001416000000000000009999123100000010000000000000BRRBHGCTF002137
012024092612RBOP11      010FII MERC BR CI           R$  000000003730000000000373000000000037004000000003719900000000372000000000037200000000003750000015000000000000000041000000000001525177000000000000009999123100000010000000000000BRRBOPCTF009124
012024092612RECT11      010FII REC RENDCI           R$  000000000323000000000032440000000003190000000000321300000000032240000000003213000000000322400685000000000000013864000000000044545055000000000000009999123100000010000000000000BRRECTCTF000170
012024092612JASC11      010FII JASC RENCI           R$  000000001030000000000103000000000010300000000001030000000000103000000000010300000000000000000002000000000000000045000000000000463500000000000000009999123100000010000000000000BRJASCCTF007127
012024092612KNCR11      010FII KINEA RICI           R$  000000001062400000000106990000000010579000000001064400000000106360000000010606000000001063613227000000000000141493000000001506148780000000000000009999123100000010000000000000BRKNCRCTF000243
012024092612KNRE11      010FII KII REALCI           R$  000000000003900000000000410000000000039000000000003900000000000400000000000039000000000004000026000000000000018850000000000000739694000000000000009999123100000010000000000000BRKNRECTF006129
012024092612MALL11      010FII MALLS BPCI           R$  000000001020000000000103660000000010037000000001022600000000102380000000010238000000001023903645000000000000030007000000000306876946000000000000009999123100000010000000000000BRMALLCTF007184
012024092612MCHY11      010FII MAUA HY CI  ER       R$  000000000089000000000008910000000000876000000000088000000000008810000000000879000000000088120131000000000000597511000000000526372135000000000000009999123100000010000000000000BRMCHYCTF004141
012024092612CXAG11      010FII CAIXA AGCI           R$  000000000750000000000075380000000007500000000000750800000000075170000000007516000000000752000087000000000000001294000000000009716490000000000000009999123100000010000000000000BRCXAGCTF003131
012024092612CXRI11      010FII CX RBRAVCI           R$  000000000758600000000075860000000007300000000000732300000000073510000000007351000000000750000107000000000000006401000000000046880172000000000000009999123100000010000000000000BRCXRICTF003231
012024092612IRIM11      010FII IRIM    CI           R$  000000000709000000000070900000000007023000000000706100000000070390000000007024000000000703600062000000000000000440000000000003107231000000000000009999123100000010000000000000BRIRIMCTF003138
012024092612LSPA11      010FII LESTE PACI           R$  000000000459000000000047490000000004492000000000462000000000045020000000004501000000000450200061000000000000000766000000000003539339000000000000009999123100000010000000000000BRLSPACTF005142
012024092612CTXT11      010FII C TEXTILCI           R$  000000000072000000000007500000000000720000000000073000000000007450000000000721000000000074600019000000000000000049000000000000035794000000000000009999123100000010000000000000BRCTXTCTF014207
012024092612HUSC11      010FII H UNIMEDCI           R$  000000001109900000000110990000000010800000000001081600000000108000000000010795000000001102100018000000000000000138000000000001492703000000000000009999123100000010000000000000BRHUSCCTF009155
012024092612GCRI11      010FII GLPG CRICI           R$  000000000675000000000068510000000006750000000000675600000000067630000000006750000000000676400091000000000000003475000000000023479950000000000000009999123100000010000000000000BRGCRICTF008147
012024092612CCME11      010FII CANUMA  CI           R$  000000000096300000000009630000000000944000000000094800000000009480000000000947000000000094808174000000000000080750000000000076571304000000000000009999123100000010000000000000BRCCMECTF007126
012024092612XPSF11      010FII XP SELECCI           R$  000000000071700000000007190000000000706000000000071100000000007150000000000713000000000071509596000000000000096802000000000068841696000000000000009999123100000010000000000000BRXPSFCTF009159
012024092612PQAG11      010FII PARQ ANHCI           R$  000000000580100000000058500000000005801000000000581900000000058500000000005800000000000589900004000000000000000027000000000000157126000000000000009999123100000010000000000000BRPQAGCTF009151
012024092612BNFS11      010FII BANRISULCI           R$  000000001168500000000117000000000011575000000001162500000000116330000000011618000000001163300129000000000000001171000000000013613804000000000000009999123100000010000000000000BRBNFSCTF000244
012024092602GFSA3       010GAFISA      ON      NM   R$  000000000023400000000002440000000000230000000000023700000000002330000000000233000000000023401882000000000003194800000000000757441000000000000000009999123100000010000000000000BRGFSAACNOR3125
012024092602CEBR5       010CEB         PNA          R$  000000000165100000000016510000000001629000000000164600000000016510000000001601000000000165100011000000000000001900000000000003128200000000000000009999123100000010000000000000BRCEBRACNPA8124
012024092602SBFG3       010GRUPO SBF   ON      NM   R$  000000000164400000000016580000000001614000000000163400000000016360000000001636000000000164005457000000000001019200000000001665740300000000000000009999123100000010000000000000BRSBFGACNOR1103
012024092602PRIO3       010PETRORIO    ON      NM   R$  000000000438200000000043910000000004246000000000429800000000042640000000004264000000000426549163000000000019360800000000083231426900000000000000009999123100000010000000000000BRPRIOACNOR1107
012024092602NTCO3       010GRUPO NATURAON      NM   R$  000000000133100000000013710000000001328000000000135300000000013670000000001363000000000136709709000000000004219500000000005713073300000000000000009999123100000010000000000000BRNTCOACNOR5106
012024092602ANIM3       010ANIMA       ON      NM   R$  000000000023600000000002500000000000235000000000024200000000002400000000000239000000000024009672000000000012174400000000002958263500000000000000009999123100000010000000000000BRANIMACNOR6109
012024092602BBDC4       010BRADESCO    PN      N1   R$  000000000145300000000014840000000001448000000000147400000000014810000000001480000000000148159678000000000058564400000000086328190600000000000000009999123100000010000000000000BRBBDCACNPR8774
012024092602CPLE3       010COPEL       ON      N2   R$  000000000091700000000009240000000000912000000000091800000000009240000000000920000000000092405200000000000004543200000000004172159300000000000000009999123100000010000000000000BRCPLEACNOR8149
012024092602EKTR4       010ELEKTRO     PN           R$  000000000455500000000045550000000004555000000000455500000000045550000000004500000000000455500006000000000000000700000000000003188500000000000000009999123100000010000000000000BREKTRACNPR7164
012024092602SNSY5       010SANSUY      PNA          R$  000000000056100000000005610000000000540000000000054100000000005590000000000541000000000055900008000000000000005400000000000002923700000000000000009999123100000010000000000000BRSNSYACNPA5111
012024092602SUZB3       010SUZANO S.A. ON      NM   R$  000000000522900000000054340000000005229000000000537300000000054240000000005420000000000542525656000000000006674600000000035866322600000000000000009999123100000010000000000000BRSUZBACNOR0130
012024092602MWET4       010WETZEL S/A  PN           R$  000000000085700000000008570000000000857000000000085700000000008570000000000857000000000091500001000000000000000100000000000000085700000000000000009999123100000010000000000000BRMWETACNPR3118
012024092602PTBL3       010PORTOBELLO  ON      NM   R$  000000000048300000000004910000000000482000000000048400000000004820000000000482000000000048400896000000000000255900000000000124033800000000000000009999123100000010000000000000BRPTBLACNOR8132
012024092602SMTO3       010SAO MARTINHOON      NM   R$  000000000272100000000027410000000002644000000000266900000000026630000000002651000000000266305413000000000001088300000000002905569400000000000000009999123100000010000000000000BRSMTOACNOR3127
012024092602CPFE3       010CPFL ENERGIAON      NM   R$  000000000334100000000033590000000003316000000000333500000000033420000000003342000000000335707276000000000002471600000000008243753000000000000000009999123100000010000000000000BRCPFEACNOR0137
012024092602DEXP3       010DEXXOS PAR  ON      N1   R$  000000000089300000000008930000000000879000000000088200000000008880000000000883000000000088800220000000000000052900000000000046692400000000000000009999123100000010000000000000BRDEXPACNOR1105
012024092602EALT3       010ACO ALTONA  ON           R$  000000000148100000000015400000000001481000000000152500000000015010000000001501000000000153900007000000000000001200000000000001830300000000000000009999123100000010000000000000BREALTACNOR4138
012024092602CSAN3       010COSAN       ON      NM   R$  000000000126000000000013020000000001258000000000128900000000012960000000001294000000000129614025000000000012326000000000015897652200000000000000009999123100000010000000000000BRCSANACNOR6126
012024092602ENEV3       010ENEVA       ON      NM   R$  000000000140900000000014150000000001392000000000139900000000013970000000001397000000000140212616000000000006905300000000009665153400000000000000009999123100000010000000000000BRENEVACNOR8106
012024092608CTSA4       010SANTANENSE  PN           R$  000000000012100000000001380000000000120000000000012900000000001310000000000127000000000013100191000000000000106500000000000013833500000000000000009999123100000010000000000000BRCTSAACNPR0062
012024092610EQTL9       010EQUATORIAL  ON  REC NM   R$  000000000325000000000032730000000003228000000000325900000000032380000000003100000000000326100053000000000000407800000000001329356300000000000000009999123100000010000000000000BREQTLR04OR9130
012024092612BROF11      010FII BROF    CI  ER       R$  000000000468400000000047370000000004661000000000470300000000047300000000004694000000000473000279000000000000004414000000000020760056000000000000009999123100000010000000000000BRBROFCTF000117
012024092612VGRI11      010FII VGRI    CI           R$  000000000090200000000009150000000000900000000000090200000000009000000000000900000000000090806916000000000000081239000000000073287578000000000000009999123100000010000000000000BRVGRICTF008107
012024092612VISC11      010FII VINCI SCCI           R$  000000001059000000000107250000000010588000000001068000000000107100000000010710000000001071405949000000000000046276000000000494229159000000000000009999123100000010000000000000BRVISCCTF005189
012024092612AIEC11      010FII AUTONOMYCI           R$  000000000539900000000054200000000005278000000000533600000000053390000000005339000000000534000698000000000000014728000000000078594449000000000000009999123100000010000000000000BRAIECCTF009148
012024092612BTLG11      010FII BTLG    CI           R$  000000000978400000000099000000000009712000000000979000000000098190000000009818000000000981918525000000000000104663000000001024659284000000000000009999123100000010000000000000BRBTLGCTF000166
012024092612BRCO11      010FII BRESCO  CI           R$  000000001099300000000111170000000010993000000001105900000000111000000000011096000000001110005197000000000000020838000000000230458904000000000000009999123100000010000000000000BRBRCOCTF007160
012024092612PLCR11      010FII PLURAL RCI           R$  000000000819400000000082570000000008155000000000818900000000081690000000008169000000000818100349000000000000004683000000000038351500000000000000009999123100000010000000000000BRPLCRCTF003158
012024092612RENV11      010FII RENV    CI           R$  000000000100100000000010350000000000972000000000103400000000010350000000000981000000000103400435000000000000038667000000000040017368000000000000009999123100000010000000000000BRRENVCTF003100
012024092612HGBL11      010FII HGBL    CI           R$  000000000101700000000010240000000001006000000000101500000000010100000000001013000000000101500146000000000000002745000000000002787586000000000000009999123100000010000000000000BRHGBLCTF005108
012024092612HGIC11      010FII HGI CRI CI           R$  000000000989900000000098990000000009899000000000989900000000098990000000009680000000000989900001000000000000000001000000000000009899000000000000009999123100000010000000000000BRHGICCTF009143
012024092612HGBS11      010FII HEDGEBS CI           R$  000000002030400000000203350000000020182000000002024500000000202120000000020211000000002022004088000000000000014727000000000298159281000000000000009999123100000010000000000000BRHGBSCTF000313
012024092612HGLG11      010FII HGLG PAXCI           R$  000000001583900000000158790000000015810000000001584000000000158410000000015841000000001584206701000000000000035793000000000566965255000000000000009999123100000010000000000000BRHGLGCTF004274
012024092612ICRI11      010FII CI IPCA CI           R$  000000000954500000000096440000000009401000000000945700000000094130000000009413000000000945400646000000000000012739000000000120473899000000000000009999123100000010000000000000BRICRICTF004107
012024092612RINV11      010FII REAL INVCI  ES       R$  000000001080000000000108230000000010740000000001076800000000107650000000010755000000001076500708000000000000012076000000000130045844000000000000009999123100000010000000000000BRRINVCTF004123
012024092612INLG11      010FII INTER LGCI           R$  000000000827000000000083000000000008245000000000826700000000083000000000008259000000000830000090000000000000000703000000000005812042000000000000009999123100000010000000000000BRINLGCTF008100
012024092612JSRE11      010FII JS REAL CI           R$  000000000624700000000062720000000006171000000000620600000000062440000000006215000000000624406510000000000000036780000000000228261829000000000000009999123100000010000000000000BRJSRECTF007265
012024092612SCPF11      010FII SCP     CI           R$  000000000024900000000002540000000000241000000000024900000000002520000000000250000000000025200066000000000000000717000000000000178958000000000000009999123100000010000000000000BRSCPFCTF003302
012024092612RBED11      010FII RIOB ED CI           R$  000000001290000000000129850000000012850000000001291000000000129580000000012933000000001295900145000000000000001335000000000017235474000000000000009999123100000010000000000000BRRBEDCTF006167
012024092612RBIR11      010FII RBRES IVCI           R$  000000000846100000000084700000000008352000000000839700000000084640000000008355000000000846400021000000000000000652000000000005475236000000000000009999123100000010000000000000BRRBIRCTF007112
012024092612REIT11      010FII REIT RIVCI           R$  000000001218900000000121890000000012189000000001218900000000121890000000012500000000001400000001000000000000000001000000000000012189000000000000009999123100000010000000000000BRREITCTF007143
012024092612HAAA11      010FII HEDGEAAACI           R$  000000000350600000000035060000000003506000000000350600000000035060000000003506000000000398500001000000000000000002000000000000007012000000000000009999123100000010000000000000BRHAAACTF003146
012024092612BARI11      010FII BARIGUI CI           R$  000000000746000000000075830000000007460000000000750100000000075020000000007502000000000754802198000000000000011473000000000086064523000000000000009999123100000010000000000000BRBARICTF003165
012024092612KNHY11      010FII KINEA HYCI           R$  000000001060200000000106250000000010559000000001061200000000105850000000010590000000001062507691000000000000060241000000000639289309000000000000009999123100000010000000000000BRKNHYCTF005175
012024092612KNSC11      010FII KINEA SCCI           R$  000000000092300000000009270000000000922000000000092500000000009270000000000926000000000092710753000000000000386445000000000357578131000000000000009999123100000010000000000000BRKNSCCTF008151
012024092612MAXR11      010FII MAX RET CI           R$  000000000740500000000075010000000007405000000000744400000000074710000000007418000000000749900052000000000000000759000000000005650615000000000000009999123100000010000000000000BRMAXRCTF009271
012024092612BPML11      010FII BTG SHOPCI  ER       R$  000000000895000000000089500000000008862000000000888400000000088810000000008875000000000892000986000000000000002683000000000023836262000000000000009999123100000010000000000000BRBPMLCTF006134
012024092612CXCI11      010FII CAIXA CICI           R$  000000000813000000000081300000000007922000000000800100000000080000000000008000000000000808000069000000000000003587000000000028702525000000000000009999123100000010000000000000BRCXCICTF005130
012024092612CYCR11      010FII CYRELA  CI           R$  000000000097800000000009790000000000972000000000097500000000009770000000000976000000000097701057000000000000047196000000000046060208000000000000009999123100000010000000000000BRCYCRCTF004142
012024092612ITIT11      010FII INTER ITCI           R$  000000000760400000000076040000000007552000000000757400000000075530000000007553000000000760200098000000000000000440000000000003332676000000000000009999123100000010000000000000BRITITCTF004132
012024092612LVBI11      010FII VBI LOG CI           R$  000000001076300000000108470000000010749000000001079500000000108400000000010825000000001084006423000000000000026864000000000290001257000000000000009999123100000010000000000000BRLVBICTF002172
012024092612FIGS11      010FII GEN SHOPCI           R$  000000000523200000000052320000000005100000000000518400000000052130000000005183000000000521500170000000000000001872000000000009705398000000000000009999123100000010000000000000BRFIGSCTF009231
012024092612BBFO11      010FII BB FOF  CI           R$  000000000714500000000071450000000007007000000000704800000000070420000000007012000000000704300240000000000000005658000000000039881503000000000000009999123100000010000000000000BRBBFOCTF004144
012024092612XPML11      010FII XP MALLSCI  ER       R$  000000001074900000000107950000000010695000000001074100000000107600000000010759000000001076026808000000000000148606000000001596202593000000000000009999123100000010000000000000BRXPMLCTF000188
012024092612SARE11      010FII SANT RENCI           R$  000000000398600000000040080000000003950000000000398000000000039500000000003950000000000399301206000000000000014822000000000059004547000000000000009999123100000010000000000000BRSARECTF006159
012024092612EDGA11      010FII GALERIA CI  ER       R$  000000000183100000000018310000000001800000000000181100000000018230000000001803000000000182800052000000000000001121000000000002030288000000000000009999123100000010000000000000BREDGACTF001245
012024092612ARRI11      010FII ATRIO   CI           R$  000000000088600000000008890000000000858000000000087600000000008790000000000879000000000088000753000000000000056009000000000049065585000000000000009999123100000010000000000000BRARRICTF009164
012024092612CPFF11      010FII CAP REITCI           R$  000000000690000000000069000000000006815000000000684600000000068150000000006815000000000686300082000000000000000555000000000003799623000000000000009999123100000010000000000000BRCPFFCTF000159
012024092612CPTS11      010FII CAPI SECCI           R$  000000000079400000000007970000000000781000000000078600000000007850000000000785000000000078625606000000000001386183000000001090795430000000000000009999123100000010000000000000BRCPTSCTF004234
012024092612SPXS11      010FII SPX SYN CI           R$  000000000091500000000009170000000000910000000000091200000000009100000000000910000000000091500771000000000000017292000000000015787212000000000000009999123100000010000000000000BRSPXSCTF002127
012024092612PULV11      010FII PULV    CI           R$  000000000098900000000009900000000000937000000000098500000000009900000000000947000000000099000039000000000000006424000000000006331860000000000000009999123100000010000000000000BRPULVCTF007104
012024092612IBCR11      010FII BREI    CI           R$  000000000642600000000064400000000006386000000000640400000000063860000000006386000000000639900728000000000000002713000000000017376223000000000000009999123100000010000000000000BRIBCRCTF009140
012024092612APTO11      010FII NAVI RSDCI           R$  000000000096900000000009690000000000960000000000096700000000009670000000000966000000000096700116000000000000001274000000000001232785000000000000009999123100000010000000000000BRAPTOCTF007134
012024092612BRIM11      010FII BRIO II CI           R$  000000012200000000001220000000000119500000000012006400000001200000000000110100000000012000000028000000000000000440000000000052828500000000000000009999123100000010000000000000BRBRIMCTF008130
012024092612CPOF11      010FII CPOF    CI  ER       R$  000000001084900000000108500000000010849000000001084900000000108500000000000000000000001085000002000000000000000004000000000000043398000000000000009999123100000010000000000000BRCPOFCTF002110
012024092612EGYR11      010FII ENERGY  CI           R$  000000000035500000000003590000000000355000000000035700000000003590000000000363000000000036800010000000000000001048000000000000375171000000000000009999123100000010000000000000BREGYRCTF001102
012024092612PRSN11      010FII PERSONALCI           R$  000000000012200000000001220000000000122000000000012200000000001220000000000106000000000012100002000000000000000020000000000000002440000000000000009999123100000010000000000000BRPRSNCTF005125
012024092612QAGR11      010FII QUASAR ACI           R$  000000000462000000000046430000000004610000000000461700000000046240000000004613000000000463000298000000000000004242000000000019586367000000000000009999123100000010000000000000BRQAGRCTF005158
012024092612SNCI11      010FII SUNO CRICI           R$  000000000900800000000091030000000009008000000000907200000000090800000000009079000000000908000809000000000000008966000000000081342633000000000000009999123100000010000000000000BRSNCICTF002139
012024092612SNME11      010FII SNME    CI           R$  000000000097500000000009750000000000960000000000097200000000009600000000000960000000000097000084000000000000002523000000000002452404000000000000009999123100000010000000000000BRSNMECTF000110
012024092612ZAVI11      010FII ZAVIT R CI           R$  000000001080200000000109160000000010758000000001078700000000109160000000010764000000001091600059000000000000000288000000000003106878000000000000009999123100000010000000000000BRZAVICTF004124
012024092613PLCA11      010FIAGRO PLUR CI           R$  000000000781400000000078150000000007700000000000775400000000077050000000007704000000000770500102000000000000002267000000000017579263000000000000009999123100000010000000000000BRPLCACTF009125
012024092613EGAF11      010FIAGRO ECO  CI           R$  000000000933000000000093300000000009182000000000924400000000092040000000009184000000000921603321000000000000012976000000000119959764000000000000009999123100000010000000000000BREGAFCTF006128
012024092613IAAG11      010FIAGRO IAAG CI           R$  000000000097900000000009950000000000960000000000097000000000009720000000000972000000000097300169000000000000005073000000000004924416000000000000009999123100000010000000000000BRIAAGCTF008115
012024092613SNFZ11      010FIAGRO SNFZ CI           R$  000000000100700000000010070000000000999000000000100500000000009990000000000999000000000100600073000000000000002051000000000002061970000000000000009999123100000010000000000000BRSNFZCTF009101
012024092614BITI11      010ETF GALAXY BCI           R$  000000000970000000000098000000000009584000000000972500000000096920000000009652000000000977900030000000000000005983000000000058187671000000000000009999123100000010000000000000BRBITICTF010100
012024092614BTEK11      010INVESTO BTEKCI           R$  000000000755200000000075520000000007490000000000749200000000075000000000007499000000000762900003000000000000000030000000000000224772000000000000009999123100000010000000000000BRBTEKCTF007100
012024092614HASH11      010HASHDEX NCI CI           R$  000000000499300000000050960000000004977000000000504600000000050290000000005029000000000503903718000000000000450085000000002271515889000000000000009999123100000010000000000000BRHASHCTF018100
012024092614REVE11      010IT NOW GREENCI           R$  000000000632000000000063200000000006280000000000629200000000062840000000006228000000000640000004000000000000000216000000000001359222000000000000009999123100000010000000000000BRREVECTF002100
012024092614JURO11      010SPARTA INFRACI           R$  000000001067700000000108250000000010671000000001075200000000107100000000010709000000001071009226000000000000089985000000000967526206000000000000009999123100000010000000000000BRJUROCTF002136
012024092614URET11      010TREND U REITCI           R$  000000000113500000000011350000000001121000000000112500000000011260000000001125000000000114900040000000000000069016000000000077695369000000000000009999123100000010000000000000BRURETCTF002100
012024092614COPN11      010FIP COPN    CI           R$  000000000994900000000099490000000009945000000000994500000000099450000000009946000000001001900002000000000000000050000000000000497258000000000000009999123100000010000000000000BRCOPNCTF006100
012024092614ISUS11      010IT NOW ISE  CI           R$  000000000362400000000036240000000003620000000000362200000000036230000000003623000000000400000004000000000000000113000000000000409385000000000000009999123100000010000000000000BRISUSCTF003100
012024092614BOVB11      010ETF BRA IBOVCI           R$  000000001343600000000135360000000013408000000001349800000000134990000000013499000000000000000006000000000000014355000000000193776744000000000000009999123100000010000000000000BRBOVBCTF001100
012024092614ESGE11      010TREND ESG E CI           R$  000000000088900000000009090000000000889000000000090700000000009090000000000908000000000091000017000000000000022681000000000020592704000000000000009999123100000010000000000000BRESGECTF001100
012024092614USTK11      010INVESTO USTKCI           R$  000000000144000000000014620000000001434000000000144900000000014490000000001426000000000144900033000000000000002959000000000004288814000000000000009999123100000010000000000000BRUSTKCTF007100
012024092614NSDV11      010NU IBOV DIV CI           R$  000000001226900000000123960000000012263000000001232800000000123670000000012301000000001250000060000000000000001254000000000015460050000000000000009999123100000010000000000000BRNSDVCTF003100
012024092614BNDX11      010INVESTO BNDXCI           R$  000000001045300000000104530000000010354000000001038600000000104020000000010402000000001042000034000000000000000791000000000008215832000000000000009999123100000010000000000000BRBNDXCTF005100
012024092614ELAS11      010SAFRAETFELASCI           R$  000000001292400000000129930000000012887000000001294000000000129780000000012346000000001297800453000000000000000748000000000009679333000000000000009999123100000010000000000000BRELASCTF009100
012024092614SPXB11      010BTG S&P 500 CI           R$  000000000135700000000013710000000001356000000000136200000000013620000000001360000000000136200133000000000000011964000000000016297814000000000000009999123100000010000000000000BRSPXBCTF008100
012024092614QDFI11      010QR DEFI     CI           R$  000000000035400000000003630000000000346000000000035900000000003630000000000359000000000036300037000000000000003455000000000001240513000000000000009999123100000010000000000000BRQDFICTF000100
012024092614ACWI11      010TREND ACWI  CI           R$  000000000134900000000013560000000001349000000000135500000000013560000000001355000000000135600085000000000000041706000000000056547129000000000000009999123100000010000000000000BRACWICTF001100
012024092614ECOO11      010ISHARES ECOOCI           R$  000000001118400000000111840000000011184000000001118400000000111840000000011052000000001215000001000000000000000033000000000000369072000000000000009999123100000010000000000000BRECOOCTF008100
012024092612HGRU11      010FII HGRU PAXCI           R$  000000001219500000000122740000000012101000000001218600000000122000000000012200000000001227206730000000000000039726000000000484106508000000000000009999123100000010000000000000BRHGRUCTF002180
012024092612RFOF11      010FII RB CFOF CI           R$  000000000689300000000068930000000006823000000000684400000000068380000000006828000000000683800047000000000000001350000000000009240698000000000000009999123100000010000000000000BRRFOFCTF001154
012024092612TRXF11      010FII TRX REALCI           R$  000000001050500000000105190000000010495000000001050300000000105150000000010512000000001051507092000000000000044184000000000464069048000000000000009999123100000010000000000000BRTRXFCTF003167
012024092612JSCR11      010FII JSCR    CI           R$  000000000900000000000095620000000009000000000000920500000000092000000000009200000000000932000033000000000000002291000000000021089929000000000000009999123100000010000000000000BRJSCRCTF001102
012024092612KEVE11      010FII EVEN II CI           R$  000000011149000000001114900000000111490000000011149000000001114900000000109000000000011149000001000000000000000001000000000000111490000000000000009999123100000010000000000000BRKEVECTF007117
012024092612URHF11      010FII URHF    CI           R$  000000001135000000000114000000000011350000000001138300000000114000000000009856000000001135000002000000000000000030000000000000341500000000000000009999123100000010000000000000BRURHFCTF004102
012024092612RBDS11      010FII RBRESID2CI           R$  000000000027500000000002750000000000265000000000027300000000002650000000000266000000000031000002000000000000000025000000000000006825000000000000009999123100000010000000000000BRRBDSCTF006179
012024092612RBHY11      010FII RB YIELDCI           R$  000000000868700000000086870000000008203000000000856800000000086240000000008561000000000862202026000000000000012085000000000103546438000000000000009999123100000010000000000000BRRBHYCTF005147
012024092612RBRD11      010FII RB II   CI           R$  000000000369900000000036990000000003600000000000364400000000036720000000003651000000000367300091000000000000000657000000000002394376000000000000009999123100000010000000000000BRRBRDCTF008266
012024092612RECX11      010FII REC FOF CI           R$  000000000621100000000062110000000006210000000000621000000000062100000000006210000000000642400002000000000000000014000000000000086950000000000000009999123100000010000000000000BRRECXCTF002140
012024092612TORD11      010FII TORDE EICI           R$  000000000010000000000001010000000000097000000000009900000000001000000000000099000000000010100971000000000000113534000000000011280248000000000000009999123100000010000000000000BRTORDCTF015138
012024092612KNHF11      010FII KINEA HFCI           R$  000000000947300000000094970000000009406000000000944400000000094350000000009419000000000943502510000000000000039755000000000375480982000000000000009999123100000010000000000000BRKNHFCTF004114
012024092612KNRI11      010FII KINEA   CI           R$  000000001379900000000138300000000013765000000001379600000000138200000000013802000000001382011669000000000000079344000000001094696694000000000000009999123100000010000000000000BRKNRICTF007267
012024092612MANA11      010FII MANATI  CI           R$  000000000087300000000009040000000000873000000000088400000000008810000000000880000000000088102054000000000000275168000000000243375301000000000000009999123100000010000000000000BRMANACTF006128
012024092612BPFF11      010FII ABSOLUTOCI           R$  000000000669100000000066910000000006595000000000662600000000066210000000006620000000000665200345000000000000003625000000000024019821000000000000009999123100000010000000000000BRBPFFCTF002239
012024092612CXCE11      010FII CX CEDAECI           R$  000000000403000000000040300000000004006000000000402900000000040300000000004011000000000403000012000000000000000063000000000000253842000000000000009999123100000010000000000000BRCXCECTF004272
012024092612CXTL11      010FII CX TRX  CI           R$  000000002262100000000226210000000022621000000002262100000000226210000000022620000000002320000002000000000000000003000000000000067863000000000000009999123100000010000000000000BRCXTLCTF003240
012024092612ITIP11      010FII INTER IPCI           R$  000000000721400000000072140000000007150000000000719100000000072020000000007178000000000720200608000000000000001114000000000008011538000000000000009999123100000010000000000000BRITIPCTF002132
012024092612LUGG11      010FII LUGGO   CI           R$  000000000732300000000073230000000007080000000000728600000000073000000000007080000000000730000101000000000000001108000000000008073218000000000000009999123100000010000000000000BRLUGGCTF007158
012024092612CVBI11      010FII VBI CRI CI           R$  000000000895800000000090450000000008905000000000893700000000089430000000008940000000000894305122000000000000020258000000000181051900000000000000009999123100000010000000000000BRCVBICTF001169
012024092612BBFI11      010FII BB PROGRCI           R$  000000004525600000000453000000000044502000000004469100000000451230000000044577000000004512400082000000000000000269000000000012022046000000000000009999123100000010000000000000BRBBFICTF006329
012024092612CCVA11      010FII CCVA    CI           R$  000000001000700000000100070000000010007000000001000700000000100070000000000000000000000000000011000000000000035000000000000350245000000000000000009999123100000010000000000000BRCCVACTF006103
012024092612XPLG11      010FII XP LOG  CI           R$  000000000999800000000100890000000009950000000001002000000000100620000000010061000000001006204690000000000000033213000000000332795646000000000000009999123100000010000000000000BRXPLGCTF002181
012024092612SAPI11      010FII SAPI    CI           R$  000000000894900000000089490000000008764000000000885100000000088920000000008768000000000889200298000000000000003813000000000033751014000000000000009999123100000010000000000000BRSAPICTF001111
012024092612PQDP11      010FII D PEDRO CI           R$  000000019289900000001930000000000191500000000019202800000001920000000000191506000000019497900015000000000000000469000000000090061217000000000000009999123100000010000000000000BRPQDPCTF004274
012024092612EDFO11      010FII OURINVESCI           R$  000000001680100000000168490000000016730000000001679000000000168490000000016700000000001685000005000000000000000012000000000000201490000000000000009999123100000010000000000000BREDFOCTF004326
012024092612AROA11      010FII AROA    CI           R$  000000000009800000000000990000000000097000000000009700000000000990000000000098000000000009900097000000000000002126000000000000208064000000000000009999123100000010000000000000BRAROACTF003121
012024092612BRIP11      010FII BRIO IIICI           R$  000000009689800000000968980000000096898000000009689800000000968980000000093001000000009689900001000000000000000001000000000000096898000000000000009999123100000010000000000000BRBRIPCTF001116
012024092612CPSH11      010FII CPSH    CI  ER       R$  000000000104900000000010490000000001025000000000103100000000010370000000001035000000000103700838000000000000055167000000000056908698000000000000009999123100000010000000000000BRCPSHCTF017117
012024092612SPTW11      010FII SP DOWNTCI           R$  000000000386900000000038690000000003701000000000380800000000038200000000003812000000000382000274000000000000006632000000000025258821000000000000009999123100000010000000000000BRSPTWCTF002238
012024092612PRSV11      010FII P VARGASCI           R$  000000000586000000000058600000000005801000000000583600000000058010000000005800000000000686400005000000000000000018000000000000105065000000000000009999123100000010000000000000BRPRSVCTF008226
012024092612SNFF11      010FII SUNOFOFICI           R$  000000000890000000000089210000000008853000000000889200000000088990000000008890000000000889900321000000000000003470000000000030856798000000000000009999123100000010000000000000BRSNFFCTF001142
012024092612DAMT11      010FII DIAMANTECI           R$  000000000098000000000009800000000000980000000000098000000000009800000000000840000000000096800003000000000000000007000000000000006860000000000000009999123100000010000000000000BRDAMTCTF007117
012024092613BTAG11      010FIAGRO BTAG CI           R$  000000000880000000000088000000000008515000000000862200000000086910000000008570000000000869103425000000000000009449000000000081472153000000000000009999123100000010000000000000BRBTAGCTF003131
012024092613KNCA11      010FIAGRO KINEACI           R$  000000001035800000000103730000000010310000000001033700000000103290000000010327000000001032903007000000000000021830000000000225675070000000000000009999123100000010000000000000BRKNCACTF006136
012024092613GCRA11      010FIAGRO GLPG CI           R$  000000000562100000000056630000000005510000000000561900000000056400000000005609000000000563500203000000000000002568000000000014429989000000000000009999123100000010000000000000BRGCRACTF005134
012024092613CPTR11      010FIAGRO CPTR CI           R$  000000000074900000000007540000000000733000000000073900000000007400000000000739000000000074007630000000000000326377000000000241435918000000000000009999123100000010000000000000BRCPTRCTF006129
012024092613JGPX11      010FIAGRO JGP  CI           R$  000000000701600000000070800000000006800000000000688100000000068150000000006815000000000683903980000000000000043304000000000297984673000000000000009999123100000010000000000000BRJGPXCTF006135
012024092614BIDB11      010FIC INTER   CI           R$  000000000908300000000091000000000009040000000000907000000000090590000000009045000000000905903113000000000000006877000000000062379701000000000000009999123100000010000000000000BRBIDBCTF001137
012024092614VIGT11      010FIP VINCI IECI           R$  000000000597500000000059750000000005812000000000592400000000058850000000005825000000000588500966000000000000012913000000000076504299000000000000009999123100000010000000000000BRVIGTCTF004118
012024092614BRAX11      010ISHARES BRAXCI           R$  000000001108000000000111280000000011054000000001109900000000111260000000010843000000001120000031000000000000002844000000000031566082000000000000009999123100000010000000000000BRBRAXCTF002100
012024092614IFRA11      010FI ITAUINFRACI           R$  000000001092400000000109600000000010775000000001085000000000107950000000010795000000001080005665000000000000022932000000000248816694000000000000009999123100000010000000000000BRIFRACTF004142
012024092614INFB11      010INFB INFRA  CI           R$  000000001032200000000103990000000010322000000001032400000000103990000000009975000000001040000005000000000000000296000000000003055928000000000000009999123100000010000000000000BRINFBCTF001100
012024092614SMAC11      010IT NOW SMALLCI           R$  000000000519200000000052080000000005165000000000517800000000051730000000005165000000000519200039000000000000003490000000000018073955000000000000009999123100000010000000000000BRSMACCTF001100
012024092614IVVB11      010ISHARE SP500CI           R$  000000003508700000000351240000000034702000000003487400000000348620000000034862000000003489006303000000000000177375000000006185864305000000000000009999123100000010000000000000BRIVVBCTF001100
012024092614MATB11      010IT NOW IMAT CI           R$  000000000559500000000057770000000005590000000000572100000000057620000000005705000000000576200161000000000000015233000000000087156942000000000000009999123100000010000000000000BRMATBCTF001100
012024092614BDIV11      010FIP BTGDV IECI           R$  000000001259000000000126820000000012580000000001262800000000126100000000012608000000001261000241000000000000004665000000000058913393000000000000009999123100000010000000000000BRBDIVCTF009117
012024092614BOVV11      010IT NOW IBOV CI           R$  000000001344000000000136060000000013439000000001354800000000135620000000013562000000001358532400000000000002377216000000032208073261000000000000009999123100000010000000000000BRBOVVCTF009102
012024092614MILL11      010DIGITAL LIFECI           R$  000000000664100000000066480000000006550000000000661800000000065500000000006549000000000668400005000000000000000068000000000000450047000000000000009999123100000010000000000000BRMILLCTF018100
012024092614ESGB11      010ETF ESG BTG CI           R$  000000001056300000000105900000000010563000000001058800000000105900000000010589000000001529200004000000000000000116000000000001228269000000000000009999123100000010000000000000BRESGBCTF007100
012024092614WEB311      010SMART HASH  CI           R$  000000000281300000000028980000000002811000000000284000000000028710000000002738000000000287100127000000000000008065000000000022911186000000000000009999123100000010000000000000BRWEB3CTF005100
012024092614BOVA11      010ISHARES BOVACI           R$  000000001290300000000129720000000012849000000001292800000000129330000000012933000000001293857476000000000005400992000000069826270592000000000000009999123100000010000000000000BRBOVACTF003109
012024092614GOVE11      010IT NOW IGCT CI           R$  000000000580100000000058120000000005793000000000580000000000058060000000005806000000000600000004000000000000000051000000000000295836000000000000009999123100000010000000000000BRGOVECTF004100
012024092614SPYI11      010ETF BV SPYI CI  ER       R$  000000001130000000000113390000000011180000000001123600000000112420000000011240000000001124200339000000000000011197000000000125817948000000000000009999123100000010000000000000BRSPYICTF001111
012024092614QQQI11      010ETF BV QQQI CI  ER       R$  000000000986500000000098650000000009717000000000976900000000097800000000009770000000000978000191000000000000004126000000000040307596000000000000009999123100000010000000000000BRQQQICTF009103
012024092614CORN11      010BB ETF MILHOCI           R$  000000000062900000000006390000000000629000000000063700000000006390000000000638000000000063900026000000000000001859000000000001184435000000000000009999123100000010000000000000BRCORNCTF002101
012024092614ENDD11      010FIP END DEBTCI           R$  000000001073000000000108300000000010730000000001076500000000107610000000010761000000001083000226000000000000000864000000000009300968000000000000009999123100000010000000000000BRENDDCTF001107
012024092622IFCM11      010INFRACOMM   BNS ORD NM   R$  000000000000300000000000030000000000002000000000000200000000000030000000000002000000000000300037000000000000862600000000000001751900000000000000009999123100000010000000000000BRIFCMN01OR2100
012024092622DASA11      010DASA        BNS ORD NM   R$  000000000014000000000001400000000000140000000000014000000000001400000000000050000000000012500001000000000000000100000000000000014000000000000000009999123100000010000000000000BRDASAN01OR5100
012024092634A2MB34      010AMBARELLA INDRN          R$  000000000120800000000012080000000001195000000000120700000000011950000000000904000000000000000002000000000000000221000000000000266955000000000000009999123100000010000000000000BRA2MBBDR004100
012024092634AALL34      010AMERICAN AIRDRN          R$  000000000590800000000064990000000005908000000000640400000000064990000000006160000000000649900065000000000000004485000000000028722146000000000000009999123100000010000000000000BRAALLBDR003115
012024092634BILB34      010BILBAOVIZ   DRN          R$  000000000605400000000060580000000006054000000000605700000000060580000000005300000000000605800005000000000000000095000000000000575434000000000000009999123100000010000000000000BRBILBBDR005108
012024092622BIOM11      010BIOMM       BNS ORD MA   R$  000000000007800000000000900000000000043000000000006500000000000590000000000055000000000005900024000000000000004700000000000000310100000000000000009999123100000010000000000000BRBIOMN02OR4100
012024092634A2FY34      010AFYA LTD    DRN          R$  000000000479900000000047990000000004650000000000467400000000046700000000004158000000000480000003000000000000000026000000000000121529000000000000009999123100000010000000000000BRA2FYBDR000100
012024092634A2RR34      010ARROWHEAD PHDRN          R$  000000000134100000000013410000000001305000000000132500000000013220000000001305000000000164900010000000000000000321000000000000425572000000000000009999123100000010000000000000BRA2RRBDR009100
012024092634ABBV34      010ABBVIE      DRN          R$  000000000653700000000065800000000006489000000000650400000000064960000000006482000000000657800142000000000000005202000000000033833837000000000000009999123100000010000000000000BRABBVBDR001135
012024092634ADBE34      010ADOBE INC   DRN          R$  000000000567600000000056880000000005577000000000560600000000056330000000005596000000000588000244000000000000010692000000000059939418000000000000009999123100000010000000000000BRADBEBDR003101
012024092634C1BL34      010CHUBB LTD   DRN          R$  000000003924000000000396800000000039240000000003947100000000394400000000039250000000004065900119000000000000000201000000000007933720000000000000009999123100000010000000000000BRC1BLBDR006119
012024092634C1CL34      010CARNIVAL CORDRN          R$  000000001019300000000101930000000010193000000001019300000000101930000000008810000000001080000001000000000000000020000000000000203860000000000000009999123100000010000000000000BRC1CLBDR004101
012024092634EQIX34      010EQUINIX INC DRN          R$  000000000597800000000060640000000005966000000000596800000000059660000000005950000000000000000012000000000000002040000000000012175082000000000000009999123100000010000000000000BREQIXBDR002123
012024092634TSMC34      010TAIWANSMFAC DRN          R$  000000001279000000000128630000000012504000000001273200000000127330000000012698000000001273300892000000000000160665000000002045737012000000000000009999123100000010000000000000BRTSMCBDR002121
012024092634K1BF34      010KB FINANCIALDRN ED       R$  000000000852300000000085240000000008523000000000852300000000085240000000008525000000000000000004000000000000000210000000000001789870000000000000009999123100000010000000000000BRK1BFBDR008114
012024092634K1IM34      010KIMCO REALTYDRN          R$  000000001247300000000124730000000012441000000001245700000000124410000000000000000000000000000002000000000000000002000000000000024914000000000000009999123100000010000000000000BRK1IMBDR009118
012024092634KHCB34      010KRAFT HEINZ DRN          R$  000000000471600000000047430000000004688000000000471700000000047170000000004716000000000492300040000000000000000772000000000003641680000000000000009999123100000010000000000000BRKHCBBDR007138
012024092634SLBG34      010SCHLUMBERGERDRN          R$  000000001139800000000113980000000011398000000001139800000000113980000000011002000000001150000001000000000000000013000000000000148174000000000000009999123100000010000000000000BRSLBGBDR003154
012024092634U2TH34      010UNITEDTHERAPDRN          R$  000000000987000000000098700000000009870000000000987000000000098700000000000000000000000000000001000000000000000250000000000002467500000000000000009999123100000010000000000000BRU2THBDR002100
012024092634REGN34      010REGENERON PHDRN          R$  000000000943200000000095130000000009398000000000947600000000094590000000007000000000006000000493000000000000001261000000000011949286000000000000009999123100000010000000000000BRREGNBDR005101
012024092634HALI34      010HALLIBURTON DRN          R$  000000001561900000000156190000000015124000000001530600000000151240000000014865000000001530000009000000000000000137000000000002096976000000000000009999123100000010000000000000BRHALIBDR004151
012024092634T1DG34      010TRANSDIGM GRDRN          R$  000000001561600000000156640000000015300000000001544400000000153000000000015200000000000000001643000000000000005737000000000088602582000000000000009999123100000010000000000000BRT1DGBDR003103
012024092634T1SS34      010TENARIS SA  DRN          R$  000000000832500000000083680000000008325000000000832500000000083680000000006400000000000880000003000000000000000081000000000000674368000000000000009999123100000010000000000000BRT1SSBDR006108
012024092634COPH34      010COPHILLIPS  DRN          R$  000000000479000000000047900000000004622000000000463700000000046220000000004622000000000474000073000000000000007868000000000036490914000000000000009999123100000010000000000000BRCOPHBDR009160
012024092634GMCO34      010GENERAL MOT DRN          R$  000000000625100000000063200000000006200000000000623000000000062520000000006210000000000638000085000000000000027241000000000169722271000000000000009999123100000010000000000000BRGMCOBDR008125
012024092634CNIC34      010CANAD NATIONDRN          R$  000000000265500000000026550000000002655000000000265500000000026550000000002520000000000282000001000000000000000005000000000000013275000000000000009999123100000010000000000000BRCNICBDR007122
012024092634BOXP34      010BXP INC     DRN          R$  000000000450400000000045040000000004428000000000443000000000044300000000004400000000000449500004000000000000000073000000000000323460000000000000009999123100000010000000000000BRBOXPBDR008136
012024092634MMMC34      0103M          DRN          R$  000000001874300000000190200000000018743000000001893600000000189300000000018770000000001900900032000000000000001840000000000034842646000000000000009999123100000010000000000000BRMMMCBDR000151
012024092634Y2PF34      010YPF SA      DRN          R$  000000001200000000000120000000000012000000000001200000000000120000000000011900000000000000000002000000000000000020000000000000240000000000000000009999123100000010000000000000BRY2PFBDR000100
012024092634W1MC34      010WASTE MANAG DRN          R$  000000005655600000000565560000000055822000000005603700000000559170000000051462000000000000000007000000000000000009000000000000504341000000000000009999123100000010000000000000BRW1MCBDR008119
012024092634RIOT34      010RIO TINTO   DRN          R$  000000003810200000000387690000000038102000000003857300000000387690000000035000000000003890000066000000000000001176000000000045362242000000000000009999123100000010000000000000BRRIOTBDR007110
012024092634S2GM34      010SIGMA LITHM DRN          R$  000000000226200000000023050000000002180000000000225900000000023050000000002260000000000230500289000000000000064757000000000146304389000000000000009999123100000010000000000000BRS2GMBDR003100
012024092634S2NW34      010SNOWFLAKE   DRN          R$  000000000156800000000015680000000001500000000000152900000000015440000000001500000000000159700013000000000000000929000000000001420881000000000000009999123100000010000000000000BRS2NWBDR008100
012024092634S2UI34      010SUN COMMUN  DRN          R$  000000000374000000000037680000000003720000000000372000000000037200000000003256000000000379700003000000000000000987000000000003672120000000000000009999123100000010000000000000BRS2UIBDR002113
012024092634R1IN34      010REALTY INCOMDRN          R$  000000001700100000000171660000000016947000000001700100000000169470000000016450000000001750000024000000000000000143000000000002431271000000000000009999123100000010000000000000BRR1INBDR000157
012024092634R2DF34      010REDFIN CORP DRN          R$  000000000111600000000011160000000001092000000000111400000000011150000000000851000000000000000005000000000000000105000000000000116978000000000000009999123100000010000000000000BRR2DFBDR005100
012024092602BIOM3       010BIOMM       ON      MA   R$  000000000100600000000010190000000000991000000000100400000000010100000000000994000000000101200158000000000000055600000000000055832000000000000000009999123100000010000000000000BRBIOMACNOR2112
012024092602VITT3       010VITTIA      ON      NM   R$  000000000055700000000005710000000000554000000000056100000000005600000000000557000000000056101645000000000000883900000000000496067000000000000000009999123100000010000000000000BRVITTACNOR4107
012024092602AERI3       010AERIS       ON      NM   R$  000000000061400000000006150000000000586000000000060000000000006010000000000600000000000060100901000000000000256400000000000153898700000000000000009999123100000010000000000000BRAERIACNOR4102
012024092602AHEB5       010SPTURIS     PNA          R$  000000000410000000000041000000000004100000000000410000000000041000000000002700000000000450000001000000000000000100000000000000410000000000000000009999123100000010000000000000BRAHEBACNPA3106
012024092602PETR4       010PETROBRAS   PN      N2   R$  000000000369200000000036920000000003597000000000362800000000036250000000003625000000000362673922000000000058048200000000210607586400000000000000009999123100000010000000000000BRPETRACNPR6214
012024092602ALPA3       010ALPARGATAS  ON      N1   R$  000000000069600000000006960000000000696000000000069600000000006960000000000696000000000072600007000000000000001700000000000001183200000000000000009999123100000010000000000000BRALPAACNOR0231
012024092602HBOR3       010HELBOR      ON      NM   R$  000000000018800000000001910000000000187000000000018800000000001870000000000187000000000018800262000000000000208200000000000039225800000000000000009999123100000010000000000000BRHBORACNOR3118
012024092602CSMG3       010COPASA      ON  EDJ NM   R$  000000000241100000000024130000000002366000000000238100000000023780000000002375000000000238504549000000000001028000000000002447814000000000000000009999123100000010000000000000BRCSMGACNOR5175
012024092602ENJU3       010ENJOEI      ON      NM   R$  000000000013700000000001420000000000137000000000013800000000001390000000000138000000000013901672000000000001199900000000000166764500000000000000009999123100000010000000000000BRENJUACNOR9100
012024092602PINE4       010PINE        PN      N2   R$  000000000047700000000004890000000000476000000000048200000000004830000000000481000000000048301311000000000000442800000000000213562600000000000000009999123100000010000000000000BRPINEACNPR8150
012024092602POMO4       010MARCOPOLO   PN      N2   R$  000000000078900000000007930000000000774000000000078700000000007900000000000790000000000079211601000000000008238200000000006484190900000000000000009999123100000010000000000000BRPOMOACNPR7099
012024092602EQTL3       010EQUATORIAL  ON      NM   R$  000000000325600000000032870000000003234000000000326000000000032550000000003253000000000325620641000000000006291600000000020515091200000000000000009999123100000010000000000000BREQTLACNOR0131
012024092602INEP3       010INEPAR      ON           R$  000000000019000000000001910000000000183000000000018500000000001860000000000185000000000018700154000000000000042500000000000007888700000000000000009999123100000010000000000000BRINEPACNOR1143
012024092602TRIS3       010TRISUL      ON      NM   R$  000000000048400000000004920000000000482000000000048500000000004870000000000483000000000048700971000000000000338900000000000164519400000000000000009999123100000010000000000000BRTRISACNOR4118
012024092602IRBR3       010IRBBRASIL REON      NM   R$  000000000463000000000046550000000004495000000000455500000000045500000000004549000000000455003069000000000000584200000000002661524900000000000000009999123100000010000000000000BRIRBRACNOR4111
012024092602KEPL3       010KEPLER WEBERON      NM   R$  000000000101100000000010120000000000999000000000100500000000010020000000001002000000000100302772000000000000520500000000000523434600000000000000009999123100000010000000000000BRKEPLACNOR1064
012024092602MRFG3       010MARFRIG     ON      NM   R$  000000000142000000000014310000000001369000000000138600000000013930000000001382000000000139318479000000000006857900000000009509898500000000000000009999123100000010000000000000BRMRFGACNOR0116
012024092602SEQL3       010SEQUOIA LOG ON      NM   R$  000000000042500000000004850000000000421000000000045500000000004620000000000452000000000046502239000000000000931400000000000424370000000000000000009999123100000010000000000000BRSEQLACNOR2103
012024092602ODPV3       010ODONTOPREV  ON      NM   R$  000000000113100000000011500000000001131000000000114000000000011340000000001133000000000113904161000000000000903800000000001031215000000000000000009999123100000010000000000000BRODPVACNOR4203
012024092602ORVR3       010ORIZON      ON      NM   R$  000000000495100000000049510000000004831000000000488200000000048710000000004871000000000488703212000000000000739000000000003608358300000000000000009999123100000010000000000000BRORVRACNOR0101
012024092602WHRL4       010WHIRLPOOL   PN           R$  000000000046800000000004680000000000457000000000046100000000004570000000000457000000000046300034000000000000008400000000000003876800000000000000009999123100000010000000000000BRWHRLACNPR2129
012024092602SANB4       010SANTANDER BRPN           R$  000000000153400000000015400000000001516000000000152200000000015160000000001516000000000152100369000000000000063000000000000095898600000000000000009999123100000010000000000000BRSANBACNPR5172
012024092602UNIP6       010UNIPAR      PNB          R$  000000000472100000000047970000000004711000000000475700000000047680000000004760000000000477000950000000000000146100000000000695098900000000000000009999123100000010000000000000BRUNIPACNPB8206
012024092602RDNI3       010RNI         ON      NM   R$  000000000031800000000003190000000000308000000000031100000000003120000000000311000000000031400034000000000000006000000000000001866500000000000000009999123100000010000000000000BRRDNIACNOR9116
012024092602RENT3       010LOCALIZA    ON  EJ  NM   R$  000000000420700000000042400000000004134000000000419200000000041800000000004176000000000418827228000000000007500200000000031442962000000000000000009999123100000010000000000000BRRENTACNOR4197
012024092602GRND3       010GRENDENE    ON      NM   R$  000000000056300000000005670000000000558000000000056200000000005620000000000562000000000056302320000000000000708700000000000398832000000000000000009999123100000010000000000000BRGRNDACNOR3175
012024092602JALL3       010JALLESMACHADON      NM   R$  000000000066600000000006710000000000646000000000065600000000006480000000000648000000000065001962000000000000667200000000000437834000000000000000009999123100000010000000000000BRJALLACNOR0106
012024092602RAPT3       010RANDON PART ON      N1   R$  000000000088700000000008980000000000875000000000088700000000008780000000000878000000000088800106000000000000026100000000000023166600000000000000009999123100000010000000000000BRRAPTACNOR7163
012024092602BAZA3       010AMAZONIA    ON           R$  000000000923000000000092500000000009190000000000921000000000091900000000009180000000000925000011000000000000001400000000000012895000000000000000009999123100000010000000000000BRBAZAACNOR0179
012024092602TAEE4       010TAESA       PN      N2   R$  000000000114200000000011500000000001141000000000114700000000011490000000001147000000000114900643000000000000145600000000000167009900000000000000009999123100000010000000000000BRTAEEACNPR6148
012024092602MATD3       010MATER DEI   ON      NM   R$  000000000044000000000004500000000000435000000000044000000000004430000000000438000000000044301722000000000000550700000000000242710500000000000000009999123100000010000000000000BRMATDACNOR4104
012024092612SMRE11      010FII SMRE    CI           R$  000000000987000000000099990000000009663000000000985500000000099990000000009998000000000999903375000000000000006737000000000066393927000000000000009999123100000010000000000000BRSMRECTF001105
012024092612SNEL11      010FII SUNO EL CI           R$  000000000092500000000009300000000000924000000000092800000000009280000000000926000000000092800708000000000000064075000000000059468371000000000000009999123100000010000000000000BRSNELCTF010112
