00COTAHIST.2024BOVESPA 20240927                                                                                                                                                                                                                      
012024092702BIOM3       010BIOMM       ON      MA   R$  000000000101000000000010170000000000974000000000099900000000010000000000000998000000000100000203000000000000047000000000000046975900000000000000009999123100000010000000000000BRBIOMACNOR2112
012024092702BMGB4       010BANCO BMG   PN      N1   R$  000000000037900000000003830000000000375000000000037700000000003780000000000376000000000037800934000000000000457200000000000172605400000000000000009999123100000010000000000000BRBMGBACNPR0110
012024092702CTKA4       010KARSTEN     PN           R$  000000000190000000000019000000000001900000000000190000000000019000000000001840000000000208900003000000000000000400000000000000760000000000000000009999123100000010000000000000BRCTKAACNPR7043
012024092702BBAS3       010BRASIL      ON      NM   R$  000000000274800000000027620000000002720000000000273400000000027250000000002725000000000273033896000000000014855700000000040623488800000000000000009999123100000010000000000000BRBBASACNOR3326
012024092702BHIA3       010CASAS BAHIA ON      NM   R$  000000000051500000000005270000000000508000000000051800000000005150000000000511000000000051502329000000000003023700000000001566640500000000000000009999123100000010000000000000BRBHIAACNOR1102
012024092702COCE3       010COELCE      ON           R$  000000000308100000000030810000000003080000000000308000000000030800000000003050000000000350000002000000000000000200000000000000616100000000000000009999123100000010000000000000BRCOCEACNOR0146
012024092702FHER3       010FER HERINGERON      NM   R$  000000000041300000000004190000000000401000000000040900000000004010000000000401000000000040600014000000000000002200000000000000899900000000000000009999123100000010000000000000BRFHERACNOR5103
012024092702PEAB3       010PAR AL BAHIAON           R$  000000000430000000000043000000000004300000000000430000000000043000000000004110000000000446000001000000000000000100000000000000430000000000000000009999123100000010000000000000BRPEABACNOR3133
012024092702PFRM3       010PROFARMA    ON      NM   R$  000000000055200000000005550000000000546000000000055100000000005550000000000550000000000055600623000000000000162700000000000089705400000000000000009999123100000010000000000000BRPFRMACNOR1116
012024092702RENT3       010LOCALIZA    ON  EJ  NM   R$  000000000416300000000042070000000004129000000000417300000000041370000000004137000000000414023113000000000009756300000000040716714000000000000000009999123100000010000000000000BRRENTACNOR4197
012024092702SANB3       010SANTANDER BRON           R$  000000000137000000000013840000000001360000000000137100000000013760000000001366000000000137600363000000000000054300000000000074484500000000000000009999123100000010000000000000BRSANBACNOR8172
012024092702SAPR4       010SANEPAR     PN      N2   R$  000000000060300000000006040000000000594000000000059700000000005940000000000594000000000059802782000000000001025800000000000613172700000000000000009999123100000010000000000000BRSAPRACNPR6159
012024092702TECN3       010TECHNOS     ON      NM   R$  000000000050000000000005070000000000486000000000049600000000005070000000000486000000000050700104000000000000039400000000000019560400000000000000009999123100000010000000000000BRTECNACNOR6109
012024092702TFCO4       010TRACK FIELD PN  EJ  N2   R$  000000000107500000000010900000000001060000000000106700000000010650000000001064000000000107501294000000000000208100000000000222176900000000000000009999123100000010000000000000BRTFCOACNPR8115
012024092702VLID3       010VALID       ON      NM   R$  000000000222000000000023230000000002203000000000228300000000022990000000002290000000000230202675000000000000534700000000001221025300000000000000009999123100000010000000000000BRVLIDACNOR5144
012024092702VVEO3       010VIVEO       ON      NM   R$  000000000018700000000001950000000000184000000000018800000000001870000000000187000000000018804889000000000003590000000000000676526800000000000000009999123100000010000000000000BRVVEOACNOR0104
012024092702RCSL4       010RECRUSUL    PN           R$  000000000009600000000000970000000000094000000000009500000000000950000000000094000000000009500125000000000000209500000000000019926800000000000000009999123100000010000000000000BRRCSLACNPR1134
012024092702MDIA3       010M.DIASBRANCOON      NM   R$  000000000250600000000025330000000002492000000000250700000000024950000000002494000000000251103341000000000000770100000000001930981300000000000000009999123100000010000000000000BRMDIAACNOR7136
012024092702MGEL4       010MANGELS INDLPN           R$  000000000111300000000011130000000001113000000000111300000000011130000000001113000000000117000001000000000000000100000000000000111300000000000000009999123100000010000000000000BRMGELACNPR3147
012024092702CPLE6       010COPEL       PNB     N2   R$  000000000103200000000010370000000001016000000000102400000000010190000000001018000000000102117180000000000012062000000000012361717000000000000000009999123100000010000000000000BRCPLEACNPB9146
012024092702SYNE3       010SYN PROP TECON      NM   R$  000000000077700000000007820000000000769000000000077400000000007700000000000770000000000077401829000000000000723300000000000559850500000000000000009999123100000010000000000000BRSYNEACNOR2103
012024092702CGRA4       010GRAZZIOTIN  PN           R$  000000000250300000000025130000000002503000000000250300000000025130000000002503000000000251500008000000000000001600000000000004006100000000000000009999123100000010000000000000BRCGRAACNPR9083
012024092702TAEE3       010TAESA       ON      N2   R$  000000000114000000000011460000000001135000000000113900000000011370000000001137000000000113800503000000000000060800000000000069257900000000000000009999123100000010000000000000BRTAEEACNOR9148
012024092702IFCM3       010INFRACOMM   ON      NM   R$  000000000001600000000000170000000000016000000000001600000000000160000000000016000000000001700380000000000005272300000000000084972200000000000000009999123100000010000000000000BRIFCMACNOR8101
012024092702INEP4       010INEPAR      PN           R$  000000000018800000000001940000000000180000000000018500000000001820000000000181000000000018600133000000000000043000000000000007958900000000000000009999123100000010000000000000BRINEPACNPR8143
012024092702KEPL3       010KEPLER WEBERON      NM   R$  000000000100200000000010170000000000992000000000100300000000009990000000000998000000000099902240000000000000793900000000000796921900000000000000009999123100000010000000000000BRKEPLACNOR1064
012024092702MYPK3       010IOCHP-MAXIONON      NM   R$  000000000112100000000011390000000001108000000000112300000000011110000000001111000000000111404169000000000001055200000000001185144200000000000000009999123100000010000000000000BRMYPKACNOR7155
012024092702NTCO3       010GRUPO NATURAON      NM   R$  000000000135500000000014230000000001355000000000139900000000014000000000001398000000000140312623000000000010435900000000014600977500000000000000009999123100000010000000000000BRNTCOACNOR5106
012024092702OPCT3       010OCEANPACT   ON      NM   R$  000000000066800000000006880000000000667000000000068000000000006780000000000677000000000068300836000000000000448100000000000304803000000000000000009999123100000010000000000000BROPCTACNOR0100
012024092702AVLL3       010ALPHAVILLE  ON      NM   R$  000000000031800000000003190000000000318000000000031800000000003190000000000318000000000032200017000000000000031600000000000010055100000000000000009999123100000010000000000000BRAVLLACNOR5103
012024092702AHEB3       010SPTURIS     ON           R$  000000000375000000000037500000000003750000000000375000000000037500000000003500000000000382500001000000000000000100000000000000375000000000000000009999123100000010000000000000BRAHEBACNOR0106
012024092702BMEB3       010MERCANTIL   ON      N1   R$  000000000389600000000038960000000003896000000000389600000000038960000000003850000000000399800001000000000000000100000000000000389600000000000000009999123100000010000000000000BRBMEBACNOR8206
012024092702CSNA3       010SID NACIONALON           R$  000000000133500000000013460000000001318000000000133000000000013250000000001324000000000132513962000000000007575000000000010081104700000000000000009999123100000010000000000000BRCSNAACNOR6261
012024092702BALM3       010BAUMER      ON           R$  000000000115500000000013000000000001155000000000122700000000013000000000001111000000000150000002000000000000000200000000000000245500000000000000009999123100000010000000000000BRBALMACNOR5055
012024092702BEES4       010BANESTES    PN           R$  000000000093700000000009450000000000935000000000093800000000009350000000000925000000000095800017000000000000002600000000000002438900000000000000009999123100000010000000000000BRBEESACNPR6320
012024092702BRAP3       010BRADESPAR   ON      N1   R$  000000000190200000000019270000000001881000000000190600000000018890000000001887000000000188900517000000000000104500000000000199225300000000000000009999123100000010000000000000BRBRAPACNOR5148
012024092702COGN3       010COGNA ON    ON      NM   R$  000000000013200000000001370000000000131000000000013300000000001330000000000132000000000013319979000000000029848500000000003980662100000000000000009999123100000010000000000000BRCOGNACNOR2105
012024092702PDGR3       010PDG REALT   ON      NM   R$  000000000000200000000000020000000000001000000000000100000000000010000000000001000000000000201980000000000097017500000000000154002800000000000000009999123100000010000000000000BRPDGRACNOR8119
012024092702PETR3       010PETROBRAS   ON      N2   R$  000000000397100000000039790000000003933000000000395600000000039520000000003951000000000395724281000000000008526600000000033732199900000000000000009999123100000010000000000000BRPETRACNOR9206
012024092702MBLY3       010MOBLY       ON      NM   R$  000000000026300000000002700000000000262000000000026600000000002700000000000266000000000027000613000000000000317300000000000084408600000000000000009999123100000010000000000000BRMBLYACNOR5100
012024092702RSUL4       010RIOSULENSE  PN           R$  000000000604700000000062000000000006045000000000612400000000062000000000006012000000000634700025000000000000002500000000000015311700000000000000009999123100000010000000000000BRRSULACNPR3114
012024092702SAPR11      010SANEPAR     UNT     N2   R$  000000000298500000000030000000000002937000000000295400000000029400000000002940000000000294703809000000000000765200000000002260975500000000000000009999123100000010000000000000BRSAPRCDAM13118
012024092702TASA4       010TAURUS ARMASPN      N2   R$  000000000105900000000010620000000001049000000000105300000000010520000000001052000000000105300756000000000000209200000000000220355800000000000000009999123100000010000000000000BRTASAACNPR4104
012024092702TELB4       010TELEBRAS    PN           R$  000000000098400000000009840000000000950000000000095700000000009630000000000945000000000097300031000000000000008000000000000007659800000000000000009999123100000010000000000000BRTELBACNPR9140
012024092702TIMS3       010TIM         ON  EJ  NM   R$  000000000185500000000018860000000001855000000000187200000000018710000000001871000000000187210148000000000004351700000000008147797300000000000000009999123100000010000000000000BRTIMSACNOR5118
012024092702VTRU3       010VITRUEDUCA  ON      NM   R$  000000000092400000000009400000000000903000000000091700000000009400000000000922000000000095500612000000000000183000000000000167850300000000000000009999123100000010000000000000BRVTRUACNOR3100
012024092702RAPT4       010RANDON PART PN      N1   R$  000000000109000000000011150000000001085000000000109200000000010900000000001090000000000109406493000000000004100500000000004481245900000000000000009999123100000010000000000000BRRAPTACNPR4163
012024092702RDOR3       010REDE D OR   ON  EJ  NM   R$  000000000313100000000032020000000003120000000000315100000000031510000000003144000000000315113141000000000003682900000000011607612300000000000000009999123100000010000000000000BRRDORACNOR8114
012024092702MEAL3       010IMC S/A     ON      NM   R$  000000000013200000000001370000000000132000000000013500000000001360000000000135000000000013600159000000000001242800000000000168832100000000000000009999123100000010000000000000BRMEALACNOR9105
012024092702ROMI3       010ROMI        ON  EJ  NM   R$  000000000110000000000011090000000001090000000000110000000000010950000000001095000000000110000575000000000000094100000000000103562900000000000000009999123100000010000000000000BRROMIACNOR8196
012024092702EMAE4       010EMAE        PN  EJ       R$  000000000391100000000040000000000003911000000000394600000000039280000000003920000000000394500031000000000000005600000000000022098200000000000000009999123100000010000000000000BREMAEACNPR1126
012024092702CGAS5       010COMGAS      PNA          R$  000000001263200000000128910000000012632000000001272500000000127010000000012700000000001290000005000000000000000500000000000006362500000000000000009999123100000010000000000000BRCGASACNPA3161
012024092702CLSC4       010CELESC      PN  EJ  N2   R$  000000000845100000000088160000000008299000000000846400000000084530000000008260000000000846000014000000000000001800000000000015235400000000000000009999123100000010000000000000BRCLSCACNPR3132
012024092702CMIG3       010CEMIG       ON  EJ  N1   R$  000000000143100000000014320000000001403000000000141800000000014200000000001415000000000142100902000000000000172400000000000244478100000000000000009999123100000010000000000000BRCMIGACNOR6244
012024092702IGTI3       010IGUATEMI S.AON      N1   R$  000000000026400000000002740000000000261000000000026500000000002650000000000263000000000026600186000000000000073400000000000019474400000000000000009999123100000010000000000000BRIGTIACNOR8106
012024092702JOPA3       010JOSAPAR     ON           R$  000000000211100000000022490000000002111000000000218000000000022490000000002115000000000224900002000000000000000200000000000000436000000000000000009999123100000010000000000000BRJOPAACNOR5135
012024092702KLBN3       010KLABIN S/A  ON      N2   R$  000000000042600000000004270000000000422000000000042300000000004220000000000422000000000042500286000000000000098100000000000041590500000000000000009999123100000010000000000000BRKLBNACNOR2171
012024092702NGRD3       010NEOGRID     ON      NM   R$  000000000011300000000001140000000000111000000000011300000000001140000000000112000000000011400913000000000000476300000000000053860800000000000000009999123100000010000000000000BRNGRDACNOR3104
012024092702OFSA3       010OUROFINO S/AON      NM   R$  000000000207800000000020990000000002075000000000209500000000020980000000001852000000000209900007000000000000003100000000000006495300000000000000009999123100000010000000000000BROFSAACNOR7118
012024092702ATOM3       010ATOMPAR     ON           R$  000000000025200000000002640000000000242000000000025100000000002600000000000250000000000026000105000000000000041800000000000010505700000000000000009999123100000010000000000000BRATOMACNOR1106
012024092702AZEV4       010AZEVEDO     PN           R$  000000000012400000000001370000000000124000000000013100000000001340000000000134000000000013501829000000000005090000000000000670731100000000000000009999123100000010000000000000BRAZEVACNPR7121
012024092702ALOS3       010ALLOS       ON      NM   R$  000000000219800000000022160000000002179000000000219000000000021870000000002186000000000219507529000000000002252900000000004935801300000000000000009999123100000010000000000000BRALOSACNOR5101
012024092702ABEV3       010AMBEV S/A   ON           R$  000000000128000000000012990000000001279000000000129000000000012920000000001291000000000129424838000000000024958600000000032220953700000000000000009999123100000010000000000000BRABEVACNOR1128
012024092702BMEB4       010MERCANTIL   PN      N1   R$  000000000415900000000041590000000004010000000000406400000000040200000000004012000000000405600205000000000000043700000000000177618900000000000000009999123100000010000000000000BRBMEBACNPR5211
012024092702CSUD3       010CSU DIGITAL ON      NM   R$  000000000181000000000018170000000001781000000000179200000000018100000000001791000000000181000178000000000000042100000000000075482800000000000000009999123100000010000000000000BRCSUDACNOR5110
012024092702BAZA3       010AMAZONIA    ON           R$  000000000919000000000092100000000009190000000000919800000000092100000000009195000000000949900004000000000000000700000000000006439000000000000000009999123100000010000000000000BRBAZAACNOR0179
012024092702BGIP4       010BANESE      PN           R$  000000000251400000000025400000000002500000000000252300000000025000000000002523000000000254900009000000000000001600000000000004037000000000000000009999123100000010000000000000BRBGIPACNPR8210
012024092702BRAP4       010BRADESPAR   PN      N1   R$  000000000205200000000020620000000002020000000000204300000000020300000000002029000000000203108555000000000003538100000000007230149800000000000000009999123100000010000000000000BRBRAPACNPR2148
012024092702FESA4       010FERBASA     PN      N1   R$  000000000078900000000007960000000000768000000000077600000000007680000000000768000000000077102636000000000000706000000000000548021400000000000000009999123100000010000000000000BRFESAACNPR5085
012024092702PDTC3       010PADTEC      ON      NM   R$  000000000018500000000001870000000000184000000000018400000000001850000000000184000000000018500037000000000000032100000000000005934700000000000000009999123100000010000000000000BRPDTCACNOR3101
012024092702PETR4       010PETROBRAS   PN      N2   R$  000000000363800000000036380000000003593000000000361500000000036110000000003610000000000361249927000000000034537400000000124884025300000000000000009999123100000010000000000000BRPETRACNPR6214
012024092702REDE3       010REDE ENERGIAON           R$  000000000068700000000006870000000000687000000000068700000000006870000000000685000000000068700002000000000000000200000000000000137400000000000000009999123100000010000000000000BRREDEACNOR7128
012024092702SANB11      010SANTANDER BRUNT          R$  000000000289100000000029130000000002853000000000287600000000028680000000002866000000000287506619000000000001913800000000005504764700000000000000009999123100000010000000000000BRSANBCDAM13165
012024092702SAPR3       010SANEPAR     ON      N2   R$  000000000057000000000005720000000000561000000000056500000000005680000000000563000000000056800518000000000000121400000000000068636100000000000000009999123100000010000000000000BRSAPRACNOR9159
012024092702TCSA3       010TECNISA     ON      NM   R$  000000000018900000000001990000000000187000000000019200000000001900000000000189000000000019000252000000000000192200000000000036946400000000000000009999123100000010000000000000BRTCSAACNOR3112
012024092702TEND3       010TENDA       ON      NM   R$  000000000125500000000012840000000001239000000000125200000000012400000000001239000000000124006000000000000001746900000000002187302800000000000000009999123100000010000000000000BRTENDACNOR4111
012024092702TOTS3       010TOTVS       ON      NM   R$  000000000280300000000028540000000002803000000000283200000000028280000000002827000000000282816533000000000003545100000000010042656700000000000000009999123100000010000000000000BRTOTSACNOR8145
012024092702VULC3       010VULCABRAS   ON  ED  NM   R$  000000000169200000000017240000000001687000000000169900000000016980000000001698000000000170002153000000000000529600000000000899887200000000000000009999123100000010000000000000BRVULCACNOR2162
012024092702RCSL3       010RECRUSUL    ON           R$  000000000057300000000006160000000000493000000000053400000000004960000000000496000000000049806253000000000003277200000000001751344100000000000000009999123100000010000000000000BRRCSLACNOR4134
012024092702RECV3       010PETRORECSA  ON      NM   R$  000000000177200000000018080000000001764000000000178300000000017850000000001784000000000178507612000000000001924900000000003433218500000000000000009999123100000010000000000000BRRECVACNOR3107
012024092702MELK3       010MELNICK     ON      NM   R$  000000000035300000000003560000000000349000000000035200000000003520000000000352000000000035501015000000000000495500000000000174746100000000000000009999123100000010000000000000BRMELKACNOR8111
012024092702CPLE3       010COPEL       ON      N2   R$  000000000092400000000009270000000000906000000000091000000000009090000000000908000000000090909530000000000010567900000000009625078500000000000000009999123100000010000000000000BRCPLEACNOR8149
012024092702EMBR3       010EMBRAER     ON      NM   R$  000000000504500000000050480000000004827000000000490900000000048270000000004827000000000483017369000000000004259100000000020911660600000000000000009999123100000010000000000000BREMBRACNOR4191
012024092702CGRA3       010GRAZZIOTIN  ON           R$  000000000250100000000025050000000002499000000000250000000000024990000000002499000000000251900006000000000000000600000000000001500400000000000000009999123100000010000000000000BRCGRAACNOR2083
012024092702TAEE11      010TAESA       UNT     N2   R$  000000000342500000000034470000000003409000000000342300000000034140000000003414000000000341705930000000000001185000000000004057100700000000000000009999123100000010000000000000BRTAEECDAM10148
012024092702CMIG4       010CEMIG       PN  EJ  N1   R$  000000000114600000000011480000000001126000000000113400000000011320000000001132000000000113620393000000000011375100000000012904257100000000000000009999123100000010000000000000BRCMIGACNPR3245
012024092702INEP3       010INEPAR      ON           R$  000000000018600000000001900000000000183000000000018500000000001850000000000185000000000018600051000000000000019400000000000003601200000000000000009999123100000010000000000000BRINEPACNOR1143
012024092702JSLG3       010JSL         ON      NM   R$  000000000091200000000009290000000000903000000000091200000000009080000000000906000000000091000972000000000000266100000000000242878200000000000000009999123100000010000000000000BRJSLGACNOR2121
012024092702KLBN4       010KLABIN S/A  PN      N2   R$  000000000042400000000004240000000000419000000000042100000000004200000000000420000000000042101062000000000000562000000000000236702100000000000000009999123100000010000000000000BRKLBNACNPR9171
012024092702NINJ3       010GETNINJAS   ON      NM   R$  000000000047000000000004700000000000463000000000046500000000004650000000000454000000000046900074000000000000046100000000000021439200000000000000009999123100000010000000000000BRNINJACNOR5101
012024092702ONCO3       010ONCOCLINICASON      NM   R$  000000000049100000000005150000000000484000000000049800000000004860000000000486000000000048906506000000000003763500000000001875458600000000000000009999123100000010000000000000BRONCOACNOR6101
012024092702AURE3       010AUREN       ON      NM   R$  000000000104000000000010560000000001040000000000104700000000010440000000001044000000000104607372000000000004300600000000004506421300000000000000009999123100000010000000000000BRAUREACNOR9104
012024092702AGRO3       010BRASILAGRO  ON      NM   R$  000000000253200000000025580000000002527000000000254200000000025580000000002542000000000255901454000000000000226900000000000576817900000000000000009999123100000010000000000000BRAGROACNOR7114
012024092702ALPA4       010ALPARGATAS  PN      N1   R$  000000000071300000000007250000000000710000000000071400000000007110000000000711000000000071306323000000000002115700000000001512599900000000000000009999123100000010000000000000BRALPAACNPR7232
012024092702DASA3       010DASA        ON      NM   R$  000000000027200000000002840000000000268000000000027500000000002720000000000272000000000027302048000000000001004300000000000276786900000000000000009999123100000010000000000000BRDASAACNOR1123
012024092702DIRR3       010DIRECIONAL  ON  ED  NM   R$  000000000311300000000031220000000003050000000000307700000000030650000000003064000000000306509754000000000001482600000000004562087300000000000000009999123100000010000000000000BRDIRRACNOR0119
012024092702GOAU4       010GERDAU MET  PN      N1   R$  000000000109700000000011040000000001080000000000109000000000010870000000001086000000000108807869000000000007239000000000007893100100000000000000009999123100000010000000000000BRGOAUACNPR8269
012024092702MLAS3       010MULTILASER  ON      NM   R$  000000000015700000000001670000000000157000000000016400000000001640000000000163000000000016502642000000000002184800000000000359218800000000000000009999123100000010000000000000BRMLASACNOR9101
012024092702MRSA3B      010MRS LOGIST  ON      MB   R$  000000000299900000000029990000000002901000000000296600000000029990000000002800000000000309000003000000000000000300000000000000889900000000000000009999123100000010000000000000BRMRSAACNOR6125
012024092702CXSE3       010CAIXA SEGURION      NM   R$  000000000145000000000014920000000001450000000000147500000000014740000000001474000000000147612879000000000002825200000000004169941400000000000000009999123100000010000000000000BRCXSEACNOR7107
012024092702GFSA3       010GAFISA      ON      NM   R$  000000000023300000000002390000000000229000000000023300000000002310000000000230000000000023201536000000000002030900000000000475175200000000000000009999123100000010000000000000BRGFSAACNOR3125
012024092702ABCB4       010ABC BRASIL  PN      N2   R$  000000000220200000000022150000000002184000000000219600000000021840000000002184000000000219002844000000000000530700000000001165840600000000000000009999123100000010000000000000BRABCBACNPR4146
012024092702FRAS3       010FRAS-LE     ON      N1   R$  000000000201600000000020450000000002014000000000203100000000020350000000002030000000000203700848000000000000166000000000000337205300000000000000009999123100000010000000000000BRFRASACNOR0160
012024092702ITUB3       010ITAUUNIBANCOON  EJ  N1   R$  000000000317100000000031910000000003168000000000317700000000031910000000003191000000000319301629000000000000537300000000001707335400000000000000009999123100000010000000000000BRITUBACNOR4341
012024092702BEEF3       010MINERVA     ON      NM   R$  000000000065700000000006630000000000646000000000065200000000006490000000000648000000000065208930000000000004667500000000003046459900000000000000009999123100000010000000000000BRBEEFACNOR6116
012024092702CMIN3       010CSNMINERACAOON      N2   R$  000000000072500000000007290000000000691000000000070500000000006910000000000690000000000069211549000000000011620700000000008202845700000000000000009999123100000010000000000000BRCMINACNOR2111
012024092702ESPA3       010ESPACOLASER ON      NM   R$  000000000010500000000001060000000000103000000000010400000000001050000000000104000000000010500303000000000000215500000000000022505300000000000000009999123100000010000000000000BRESPAACNOR7103
012024092702EVEN3       010EVEN        ON      NM   R$  000000000063600000000006430000000000628000000000063100000000006340000000000630000000000063401341000000000000461000000000000291283300000000000000009999123100000010000000000000BREVENACNOR8119
012024092702CEAB3       010CEA MODAS   ON      NM   R$  000000000104000000000010640000000001031000000000104600000000010460000000001045000000000105004557000000000001380700000000001444281100000000000000009999123100000010000000000000BRCEABACNOR1102
012024092702CEEB3       010COELBA      ON           R$  000000000385600000000038600000000003855000000000385600000000038560000000003821000000000390300004000000000000000400000000000001542700000000000000009999123100000010000000000000BRCEEBACNOR3199
012024092702LVTC3       010WDC NETWORKSON      NM   R$  000000000039000000000004160000000000390000000000040600000000004040000000000396000000000040400049000000000000014400000000000005852300000000000000009999123100000010000000000000BRLVTCACNOR4102
012024092702ENGI3       010ENERGISA    ON      N2   R$  000000000136300000000013800000000001349000000000136100000000013800000000001341000000000137800007000000000000000800000000000001089300000000000000009999123100000010000000000000BRENGIACNOR0146
012024092702EPAR3       010EMBPAR S/A  ON           R$  000000000057300000000005760000000000571000000000057200000000005710000000000570000000000057400019000000000000002000000000000001145500000000000000009999123100000010000000000000BREPARACNOR9105
012024092702CRPG5       010CRISTAL     PNA          R$  000000000270500000000027050000000002650000000000266700000000026610000000002661000000000269800018000000000000003000000000000008003900000000000000009999123100000010000000000000BRCRPGACNPA3119
012024092702PRNR3       010PRINER      ON      NM   R$  000000000118300000000012510000000001177000000000122100000000012290000000001223000000000123500439000000000000155200000000000189547000000000000000009999123100000010000000000000BRPRNRACNOR4109
012024092702INTB3       010INTELBRAS   ON      NM   R$  000000000203800000000020660000000002038000000000204900000000020400000000002040000000000205208064000000000001714900000000003514528100000000000000009999123100000010000000000000BRINTBACNOR9112
012024092702SMFT3       010SMART FIT   ON      NM   R$  000000000215300000000022010000000002139000000000216900000000021530000000002152000000000217207166000000000001716900000000003725207600000000000000009999123100000010000000000000BRSMFTACNOR1112
012024092702PINE4       010PINE        PN      N2   R$  000000000048800000000004880000000000471000000000047500000000004740000000000473000000000047400702000000000000293800000000000139580500000000000000009999123100000010000000000000BRPINEACNPR8150
012024092702VIVR3       010VIVER       ON      NM   R$  000000000018900000000001960000000000180000000000018400000000001870000000000187000000000018900223000000000000099500000000000018376400000000000000009999123100000010000000000000BRVIVRACNOR4123
012024092702POMO4       010MARCOPOLO   PN      N2   R$  000000000079400000000008080000000000790000000000080000000000008050000000000804000000000080610730000000000004599300000000003683269100000000000000009999123100000010000000000000BRPOMOACNPR7099
012024092702SHOW3       010TIME FOR FUNON      NM   R$  000000000010300000000001050000000000100000000000010200000000001050000000000103000000000010500206000000000000109500000000000011203900000000000000009999123100000010000000000000BRSHOWACNOR7105
012024092702SBSP3       010SABESP      ON      NM   R$  000000000912700000000091800000000008964000000000905100000000090080000000009004000000000900814436000000000005365900000000048570160700000000000000009999123100000010000000000000BRSBSPACNOR5161
012024092702UGPA3       010ULTRAPAR    ON      NM   R$  000000000212000000000021500000000002103000000000212400000000021340000000002133000000000213513619000000000007858900000000016693789400000000000000009999123100000010000000000000BRUGPAACNOR8156
012024092702UNIP5       010UNIPAR      PNA          R$  000000000489300000000048930000000004701000000000477700000000047010000000004701000000000484000003000000000000000500000000000002388900000000000000009999123100000010000000000000BRUNIPACNPA0208
012024092702ALPA3       010ALPARGATAS  ON      N1   R$  000000000070300000000007060000000000700000000000070000000000007000000000000702000000000071800007000000000000001900000000000001331500000000000000009999123100000010000000000000BRALPAACNOR0231
012024092702BOBR4       010BOMBRIL     PN           R$  000000000021600000000002220000000000215000000000021900000000002220000000000219000000000022200028000000000000007100000000000001560800000000000000009999123100000010000000000000BRBOBRACNPR3128
012024092702DEXP4       010DEXXOS PAR  PN      N1   R$  000000000089000000000009100000000000886000000000089000000000009000000000000891000000000090000017000000000000063700000000000056706100000000000000009999123100000010000000000000BRDEXPACNPR8105
012024092702GOAU3       010GERDAU MET  ON      N1   R$  000000000108500000000010980000000001065000000000107900000000010760000000001065000000000107600407000000000000099000000000000106842500000000000000009999123100000010000000000000BRGOAUACNOR1268
012024092702MILS3       010MILLS       ON      NM   R$  000000000111400000000011380000000001110000000000111800000000011100000000001110000000000111801998000000000000453600000000000507332000000000000000009999123100000010000000000000BRMILSACNOR2128
012024092702MRFG3       010MARFRIG     ON      NM   R$  000000000140200000000014030000000001362000000000138000000000013840000000001383000000000138512228000000000004312100000000005954433200000000000000009999123100000010000000000000BRMRFGACNOR0116
012024092702CVCB3       010CVC BRASIL  ON      NM   R$  000000000018500000000001910000000000184000000000018800000000001900000000000189000000000019005022000000000012956800000000002443835200000000000000009999123100000010000000000000BRCVCBACNOR1116
012024092702GEPA4       010GER PARANAP PN           R$  000000000295200000000030000000000002952000000000298000000000030000000000002951000000000300100006000000000000000600000000000001788100000000000000009999123100000010000000000000BRGEPAACNPR9160
012024092702AALR3       010ALLIAR      ON      NM   R$  000000000154700000000015480000000001500000000000153000000000015000000000001500000000000154800220000000000000027000000000000041315600000000000000009999123100000010000000000000BRAALRACNOR6102
012024092702FLRY3       010FLEURY      ON      NM   R$  000000000155500000000015720000000001553000000000155800000000015590000000001557000000000155909671000000000002022800000000003152793100000000000000009999123100000010000000000000BRFLRYACNOR5139
012024092702ITSA4       010ITAUSA      PN  EJ  N1   R$  000000000111600000000011230000000001108000000000111300000000011150000000001114000000000111520360000000000027326800000000030432020600000000000000009999123100000010000000000000BRITSAACNPR7443
012024092702CSMG3       010COPASA      ON  EDJ NM   R$  000000000238000000000023970000000002262000000000228800000000022670000000002265000000000227309636000000000002497000000000005714834800000000000000009999123100000010000000000000BRCSMGACNOR5175
012024092702BPAC5       010BTGP BANCO  PNA     N2   R$  000000000087500000000009100000000000856000000000088300000000008980000000000880000000000090600033000000000000005100000000000004503400000000000000009999123100000010000000000000BRBPACACNPA0134
012024092702EQTL3       010EQUATORIAL  ON      NM   R$  000000000326400000000032890000000003244000000000326100000000032440000000003243000000000326018204000000000007223500000000023562329000000000000000009999123100000010000000000000BREQTLACNOR0131
012024092702EUCA4       010EUCATEX     PN      N1   R$  000000000159300000000015930000000001542000000000155800000000015540000000001554000000000157000459000000000000071300000000000111106700000000000000009999123100000010000000000000BREUCAACNPR8044
012024092702CCRO3       010CCR SA      ON      NM   R$  000000000125100000000012570000000001239000000000124600000000012390000000001239000000000124012416000000000003635400000000004530801500000000000000009999123100000010000000000000BRCCROACNOR2145
012024092702CEBR6       010CEB         PNB          R$  000000000180000000000018000000000001785000000000178900000000017850000000001780000000000179700010000000000000001000000000000001789400000000000000009999123100000010000000000000BRCEBRACNPB6124
012024092702LUPA3       010LUPATECH    ON      NM   R$  000000000014200000000001450000000000141000000000014200000000001410000000000141000000000014200084000000000000080200000000000011418100000000000000009999123100000010000000000000BRLUPAACNOR8112
012024092702ENGI11      010ENERGISA    UNT     N2   R$  000000000451600000000045840000000004516000000000455000000000045290000000004525000000000453310403000000000001963300000000008933097400000000000000009999123100000010000000000000BRENGICDAM16136
012024092702ENMT4       010ENERGISA MT PN           R$  000000000818000000000081800000000008180000000000818000000000081800000000000000000000000835700001000000000000000100000000000000818000000000000000009999123100000010000000000000BRENMTACNPR2126
012024092702CRFB3       010CARREFOUR BRON      NM   R$  000000000087500000000009370000000000874000000000092300000000009280000000000927000000000092827780000000000013617500000000012569029100000000000000009999123100000010000000000000BRCRFBACNOR2116
012024092702WEGE3       010WEG         ON      NM   R$  000000000559500000000056090000000005551000000000559200000000056030000000005597000000000560420512000000000006450600000000036074362300000000000000009999123100000010000000000000BRWEGEACNOR0224
012024092702EZTC3       010EZTEC       ON      NM   R$  000000000135000000000013840000000001343000000000136100000000013470000000001346000000000135805877000000000001811900000000002467106000000000000000009999123100000010000000000000BREZTCACNOR0126
012024092702RANI3       010IRANI       ON      NM   R$  000000000074900000000007620000000000747000000000075700000000007580000000000756000000000075803406000000000001130600000000000856027900000000000000009999123100000010000000000000BRRANIACNOR5073
012024092702PINE3       010PINE        ON      N2   R$  000000000048100000000005400000000000470000000000050700000000005400000000000471000000000054000011000000000000001700000000000000863000000000000000009999123100000010000000000000BRPINEACNOR1150
012024092702VIVA3       010VIVARA S.A. ON      NM   R$  000000000264700000000027800000000002647000000000271900000000027110000000002698000000000271113051000000000003585000000000009750968700000000000000009999123100000010000000000000BRVIVAACNOR0107
012024092702POMO3       010MARCOPOLO   ON      N2   R$  000000000061100000000006220000000000605000000000061600000000006210000000000619000000000062300846000000000000163400000000000100790000000000000000009999123100000010000000000000BRPOMOACNOR0099
012024092702PRIO3       010PETRORIO    ON      NM   R$  000000000433000000000044130000000004269000000000436200000000043580000000004357000000000436541305000000000017558100000000076602696700000000000000009999123100000010000000000000BRPRIOACNOR1107
012024092702SBFG3       010GRUPO SBF   ON      NM   R$  000000000164700000000016950000000001636000000000167100000000016780000000001667000000000167805200000000000001362800000000002278075200000000000000009999123100000010000000000000BRSBFGACNOR1103
012024092702SEQL3       010SEQUOIA LOG ON      NM   R$  000000000045800000000004740000000000439000000000045400000000004550000000000453000000000045501040000000000000450200000000000204627100000000000000009999123100000010000000000000BRSEQLACNOR2103
012024092702SLCE3       010SLC AGRICOLAON      NM   R$  000000000178200000000018740000000001782000000000184700000000018660000000001865000000000187016891000000000007102500000000013125057900000000000000009999123100000010000000000000BRSLCEACNOR2125
012024092702BMOB3       010BEMOBI TECH ON      NM   R$  000000000137600000000013970000000001363000000000137300000000013730000000001372000000000138101390000000000001093100000000001501571700000000000000009999123100000010000000000000BRBMOBACNOR7103
012024092702DEXP3       010DEXXOS PAR  ON      N1   R$  000000000088700000000009260000000000883000000000089200000000009100000000000891000000000091000335000000000000092700000000000082765000000000000000009999123100000010000000000000BRDEXPACNOR1105
012024092702GMAT3       010GRUPO MATEUSON  EJ  NM   R$  000000000073300000000007640000000000733000000000075300000000007510000000000750000000000075208911000000000003108800000000002341027300000000000000009999123100000010000000000000BRGMATACNOR7103
012024092702JBSS3       010JBS         ON      NM   R$  000000000311200000000031510000000003083000000000311100000000031110000000003111000000000311720428000000000005592000000000017399540500000000000000009999123100000010000000000000BRJBSSACNOR8122
012024092702MOVI3       010MOVIDA      ON      NM   R$  000000000062800000000006430000000000624000000000063000000000006240000000000623000000000062804533000000000002864700000000001807159300000000000000009999123100000010000000000000BRMOVIACNOR0122
012024092702CURY3       010CURY S/A    ON      NM   R$  000000000229400000000023150000000002266000000000228200000000022700000000002270000000000227109311000000000001714000000000003911458800000000000000009999123100000010000000000000BRCURYACNOR3109
012024092702GEPA3       010GER PARANAP ON           R$  000000000294900000000029490000000002949000000000294900000000029490000000002851000000000318000001000000000000000100000000000000294900000000000000009999123100000010000000000000BRGEPAACNOR2153
012024092702GGBR4       010GERDAU      PN      N1   R$  000000000189800000000019250000000001888000000000190500000000019000000000001900000000000190121782000000000015025500000000028632413600000000000000009999123100000010000000000000BRGGBRACNPR8193
012024092702FIQE3       010UNIFIQUE    ON      NM   R$  000000000038000000000003820000000000374000000000037700000000003790000000000378000000000038000656000000000000214000000000000080874400000000000000009999123100000010000000000000BRFIQEACNOR5107
012024092702ITSA3       010ITAUSA      ON  EJ  N1   R$  000000000111200000000011180000000001096000000000111000000000011150000000001105000000000111500504000000000000135300000000000150200600000000000000009999123100000010000000000000BRITSAACNOR0443
012024092702CSED3       010CRUZEIRO EDUON      NM   R$  000000000033700000000003500000000000337000000000034200000000003440000000000341000000000034401323000000000000715800000000000245170900000000000000009999123100000010000000000000BRCSEDACNOR9105
012024092702BPAC3       010BTGP BANCO  ON      N2   R$  000000000154300000000015970000000001540000000000155500000000015970000000001573000000000159800038000000000000005600000000000008709900000000000000009999123100000010000000000000BRBPACACNOR7134
012024092702EQPA3       010EQTL PARA   ON           R$  000000000061000000000006140000000000610000000000061200000000006140000000000610000000000061400011000000000000005100000000000003123700000000000000009999123100000010000000000000BREQPAACNOR1111
012024092702ETER3       010ETERNIT     ON      NM   R$  000000000056900000000005770000000000564000000000056900000000005750000000000572000000000057500425000000000000154200000000000087741100000000000000009999123100000010000000000000BRETERACNOR3244
012024092702CBAV3       010CBA         ON      NM   R$  000000000055900000000005780000000000550000000000056200000000005500000000000549000000000055007523000000000003984800000000002239997300000000000000009999123100000010000000000000BRCBAVACNOR5104
012024092702CEBR5       010CEB         PNA          R$  000000000165000000000016510000000001650000000000165000000000016510000000001612000000000166100002000000000000000200000000000000330100000000000000009999123100000010000000000000BRCEBRACNPA8124
012024092702CEED4       010CEEE-D      PN           R$  000000000200000000000020000000000002000000000000200000000000020000000000001500000000000329700001000000000000000100000000000000200000000000000000009999123100000010000000000000BRCEEDACNPR6103
012024092702CPFE3       010CPFL ENERGIAON      NM   R$  000000000334400000000033860000000003344000000000336600000000033760000000003376000000000338006834000000000002837200000000009550379600000000000000009999123100000010000000000000BRCPFEACNOR0137
012024092702ENJU3       010ENJOEI      ON      NM   R$  000000000013800000000001420000000000137000000000013900000000001380000000000138000000000013900468000000000000437800000000000060902800000000000000009999123100000010000000000000BRENJUACNOR9100
012024092702B3SA3       010B3          ON  EDJ NM   R$  000000000108400000000010950000000001068000000000107800000000010730000000001073000000000107539978000000000064574600000000069612728600000000000000009999123100000010000000000000BRB3SAACNOR6134
012024092702ENEV3       010ENEVA       ON      NM   R$  000000000139400000000014230000000001394000000000140700000000014010000000001401000000000140313973000000000005463000000000007690975900000000000000009999123100000010000000000000BRENEVACNOR8106
012024092702PTBL3       010PORTOBELLO  ON      NM   R$  000000000048200000000004920000000000456000000000047200000000004640000000000462000000000046401448000000000000760100000000000359056500000000000000009999123100000010000000000000BRPTBLACNOR8132
012024092702RAIZ4       010RAIZEN      PN      N2   R$  000000000030500000000003200000000000304000000000031200000000003160000000000315000000000031613894000000000029030200000000009072626900000000000000009999123100000010000000000000BRRAIZACNPR6111
012024092702PGMN3       010PAGUE MENOS ON      NM   R$  000000000026500000000002700000000000263000000000026600000000002650000000000265000000000026700880000000000000237700000000000063444200000000000000009999123100000010000000000000BRPGMNACNOR8103
012024092702VITT3       010VITTIA      ON      NM   R$  000000000056900000000005740000000000560000000000056500000000005700000000000567000000000057400964000000000000746600000000000422305200000000000000009999123100000010000000000000BRVITTACNOR4107
012024092702PNVL3       010DIMED       ON      NM   R$  000000000099600000000010180000000000996000000000100800000000010160000000001014000000000101701825000000000000313800000000000316503100000000000000009999123100000010000000000000BRPNVLACNOR9207
012024092702POSI3       010POSITIVO TECON      NM   R$  000000000058200000000005930000000000582000000000058800000000005880000000000588000000000058902062000000000001002400000000000589816300000000000000009999123100000010000000000000BRPOSIACNOR9116
012024092702RAIL3       010RUMO S.A.   ON      NM   R$  000000000200900000000020350000000002004000000000201500000000020070000000002007000000000201715553000000000008055400000000016235640700000000000000009999123100000010000000000000BRRAILACNOR9105
012024092702SEER3       010SER EDUCA   ON      NM   R$  000000000061400000000006220000000000602000000000060900000000006060000000000606000000000060800508000000000000181700000000000110680200000000000000009999123100000010000000000000BRSEERACNOR5119
012024092702SIMH3       010SIMPAR      ON      NM   R$  000000000052500000000005410000000000522000000000053000000000005260000000000525000000000052704774000000000003200100000000001698562900000000000000009999123100000010000000000000BRSIMHACNOR0107
012024092702USIM3       010USIMINAS    ON      N1   R$  000000000061200000000006170000000000592000000000060200000000006010000000000592000000000060101384000000000000590000000000000355317600000000000000009999123100000010000000000000BRUSIMACNOR3167
012024092702BLAU3       010BLAU        ON  EJ  NM   R$  000000000131500000000013760000000001305000000000132900000000013760000000001340000000000137601068000000000000213600000000000284051700000000000000009999123100000010000000000000BRBLAUACNOR8115
012024092702BRAV3       010BRAVA       ON      NM   R$  000000000174200000000018390000000001725000000000178200000000017780000000001778000000000178021877000000000011539000000000020570774100000000000000009999123100000010000000000000BRBRAVACNOR3100
012024092702BAHI3       010BAHEMA      ON      MA   R$  000000000065200000000006690000000000652000000000065600000000006600000000000645000000000066000012000000000000004800000000000003153300000000000000009999123100000010000000000000BRBAHIACNOR1074
012024092702BEES3       010BANESTES    ON           R$  000000000089500000000009000000000000893000000000089500000000008950000000000894000000000090000044000000000000005500000000000004927800000000000000009999123100000010000000000000BRBEESACNOR9395
012024092702BPAN4       010BANCO PAN   PN      N1   R$  000000000102100000000010380000000001008000000000101600000000010150000000001014000000000101504975000000000001447900000000001471640300000000000000009999123100000010000000000000BRBPANACNPR1115
012024092702COCE5       010COELCE      PNA          R$  000000000287400000000028740000000002820000000000285300000000028250000000002825000000000287000020000000000000004500000000000012839300000000000000009999123100000010000000000000BRCOCEACNPA3147
012024092702PCAR3       010P.ACUCAR-CBDON      NM   R$  000000000028200000000002900000000000281000000000028600000000002850000000000285000000000028605680000000000005433700000000001554085500000000000000009999123100000010000000000000BRPCARACNOR3167
012024092702PEAB4       010PAR AL BAHIAPN           R$  000000000463200000000046320000000004632000000000463200000000046320000000000000000000000463200002000000000000000200000000000000926400000000000000009999123100000010000000000000BRPEABACNPR0133
012024092702MATD3       010MATER DEI   ON      NM   R$  000000000044300000000004510000000000443000000000044600000000004490000000000447000000000044900672000000000000245600000000000109751400000000000000009999123100000010000000000000BRMATDACNOR4104
012024092702YDUQ3       010YDUQS PART  ON      NM   R$  000000000093200000000009580000000000917000000000093300000000009270000000000925000000000092708985000000000003135000000000002927576000000000000000009999123100000010000000000000BRYDUQACNOR3105
012024092702SANB4       010SANTANDER BRPN           R$  000000000151600000000015280000000001497000000000150800000000015080000000001503000000000150900368000000000000052000000000000078455300000000000000009999123100000010000000000000BRSANBACNPR5172
012024092702TASA3       010TAURUS ARMASON      N2   R$  000000000109500000000010960000000001092000000000109200000000010930000000001092000000000109600041000000000000017700000000000019334300000000000000009999123100000010000000000000BRTASAACNOR7104
012024092702TELB3       010TELEBRAS    ON           R$  000000000154000000000015650000000001505000000000151300000000015400000000001490000000000154000008000000000000002300000000000003481500000000000000009999123100000010000000000000BRTELBACNOR2140
012024092702TGMA3       010TEGMA       ON      NM   R$  000000000271100000000027600000000002674000000000271300000000026850000000002685000000000269601216000000000000190800000000000517749100000000000000009999123100000010000000000000BRTGMAACNOR7145
012024092702VSTE3       010VESTE       ON      NM   R$  000000000123000000000012500000000001228000000000123900000000012410000000001229000000000124200016000000000000006000000000000007437200000000000000009999123100000010000000000000BRVSTEACNOR5103
012024092702RAPT3       010RANDON PART ON      N1   R$  000000000088000000000008900000000000880000000000088500000000008850000000000880000000000088500074000000000000016700000000000014787700000000000000009999123100000010000000000000BRRAPTACNOR7163
012024092702RDNI3       010RNI         ON      NM   R$  000000000030700000000003110000000000306000000000030800000000003110000000000307000000000031100017000000000000002500000000000000770000000000000000009999123100000010000000000000BRRDNIACNOR9116
012024092702MDNE3       010MOURA DUBEUXON      NM   R$  000000000141000000000014470000000001410000000000142600000000014200000000001420000000000143301761000000000000371100000000000529305100000000000000009999123100000010000000000000BRMDNEACNOR9100
012024092702MGLU3       010MAGAZ LUIZA ON      NM   R$  000000000098000000000010380000000000980000000000101200000000010000000000001000000000000100125797000000000022961600000000023252534200000000000000009999123100000010000000000000BRMGLUACNOR2125
012024092702ELMD3       010ELETROMIDIA ON      NM   R$  000000000167500000000016940000000001657000000000167300000000016680000000001668000000000167100300000000000000069600000000000116455300000000000000009999123100000010000000000000BRELMDACNOR3101
012024092702CGAS3       010COMGAS      ON           R$  000000001270000000000127000000000012700000000001270000000000127000000000011508000000001269000001000000000000000100000000000001270000000000000000009999123100000010000000000000BRCGASACNOR0164
012024092702CLSA3       010CLEARSALE   ON      NM   R$  000000000083400000000008800000000000833000000000085900000000008770000000000868000000000087704828000000000001860400000000001598581800000000000000009999123100000010000000000000BRCLSAACNOR0100
012024092702TAEE4       010TAESA       PN      N2   R$  000000000114900000000011540000000001141000000000114700000000011440000000001144000000000114700821000000000000141700000000000162569000000000000000009999123100000010000000000000BRTAEEACNPR6148
012024092702IGTI11      010IGUATEMI S.AUNT     N1   R$  000000000211000000000021560000000002110000000000213000000000021130000000002112000000000212107162000000000001862600000000003968218500000000000000009999123100000010000000000000BRIGTICDAM16106
012024092702HYPE3       010HYPERA      ON  EJ  NM   R$  000000000262500000000027070000000002625000000000267100000000026700000000002668000000000267111613000000000004376800000000011693848600000000000000009999123100000010000000000000BRHYPEACNOR0144
012024092702KLBN11      010KLABIN S/A  UNT     N2   R$  000000000212100000000021210000000002101000000000210900000000021070000000002107000000000211108504000000000002383200000000005026410700000000000000009999123100000010000000000000BRKLBNCDAM18143
012024092702NEOE3       010NEOENERGIA  ON      NM   R$  000000000197900000000019950000000001978000000000198700000000019920000000001991000000000199803697000000000001295300000000002574820200000000000000009999123100000010000000000000BRNEOEACNOR3123
012024092702ODPV3       010ODONTOPREV  ON      NM   R$  000000000114100000000011420000000001125000000000113100000000011290000000001127000000000113303460000000000000761600000000000861825600000000000000009999123100000010000000000000BRODPVACNOR4203
012024092702ORVR3       010ORIZON      ON      NM   R$  000000000490700000000049070000000004793000000000484200000000048050000000004788000000000480502042000000000000638200000000003090346900000000000000009999123100000010000000000000BRORVRACNOR0101
012024092702AZEV3       010AZEVEDO     ON           R$  000000000012400000000001370000000000124000000000013100000000001360000000000135000000000013600863000000000001530400000000000201869100000000000000009999123100000010000000000000BRAZEVACNOR0121
012024092702ALLD3       010ALLIED      ON      NM   R$  000000000075500000000007730000000000747000000000075700000000007640000000000759000000000076400791000000000000129500000000000098149100000000000000009999123100000010000000000000BRALLDACNOR3106
012024092702VALE3       010VALE        ON      NM   R$  000000000647000000000065040000000006317000000000643600000000063960000000006396000000000639764033000000000037237900000000239677039800000000000000009999123100000010000000000000BRVALEACNOR0211
012024092702RADL3       010RAIADROGASILON      NM   R$  000000000262000000000026520000000002542000000000258400000000025700000000002567000000000257015977000000000010671600000000027579179900000000000000009999123100000010000000000000BRRADLACNOR0157
012024092702PTNT4       010PETTENATI   PN           R$  000000000068000000000006800000000000660000000000066600000000006660000000000654000000000066700034000000000000022400000000000014939100000000000000009999123100000010000000000000BRPTNTACNPR3047
012024092702SRNA3       010SERENA      ON      NM   R$  000000000083100000000008500000000000830000000000084000000000008340000000000834000000000084105963000000000002372700000000001994229300000000000000009999123100000010000000000000BRSRNAACNOR4100
012024092702VBBR3       010VIBRA       ON  EJ  NM   R$  000000000239300000000024100000000002341000000000236900000000023620000000002362000000000236316786000000000006874700000000016290908300000000000000009999123100000010000000000000BRVBBRACNOR1109
012024092702BSLI4       010BRB BANCO   PN           R$  000000000090300000000009030000000000900000000000090100000000009000000000000900000000000094400002000000000000000700000000000000630900000000000000009999123100000010000000000000BRBSLIACNPR2194
012024092702KRSA3       010KORA SAUDE  ON      NM   R$  000000000004800000000000490000000000047000000000004800000000000480000000000048000000000004900051000000000000091500000000000004398100000000000000009999123100000010000000000000BRKRSAACNOR0100
012024092702LJQQ3       010QUERO-QUERO ON      NM   R$  000000000035000000000003560000000000340000000000034500000000003400000000000340000000000034104411000000000003313100000000001143067500000000000000009999123100000010000000000000BRLJQQACNOR5104
012024092702LREN3       010LOJAS RENNERON  EJ  NM   R$  000000000180100000000018230000000001757000000000178000000000017830000000001783000000000178620505000000000009425600000000016781429900000000000000009999123100000010000000000000BRLRENACNOR1222
012024092702HBOR3       010HELBOR      ON      NM   R$  000000000018800000000001910000000000187000000000018900000000001900000000000189000000000019000254000000000000215200000000000040702300000000000000009999123100000010000000000000BRHBORACNOR3118
012024092702TRAD3       010TC          ON      NM   R$  000000000049000000000005250000000000481000000000049900000000004900000000000490000000000049300613000000000000392600000000000196150300000000000000009999123100000010000000000000BRTRADACNOR3102
012024092702TTEN3       0103TENTOS     ON      NM   R$  000000000116000000000011650000000001142000000000115200000000011470000000001147000000000114903704000000000000978900000000001127775500000000000000009999123100000010000000000000BRTTENACNOR0103
012024092702HETA4       010HERCULES    PN           R$  000000000060000000000006000000000000600000000000060000000000006000000000000600000000000067500001000000000000000100000000000000060000000000000000009999123100000010000000000000BRHETAACNPR9136
012024092702WHRL4       010WHIRLPOOL   PN           R$  000000000046000000000004660000000000459000000000045900000000004650000000000461000000000046300018000000000000014700000000000006754000000000000000009999123100000010000000000000BRWHRLACNPR2129
012024092702ALUP11      010ALUPAR      UNT     N2   R$  000000000305900000000030760000000003038000000000305800000000030760000000003054000000000307603904000000000000949100000000002903023000000000000000009999123100000010000000000000BRALUPCDAM15120
012024092702AMBP3       010AMBIPAR     ON      NM   R$  000000001075000000000134500000000010610000000001213200000000134500000000013450000000001349002971000000000000577400000000007005328900000000000000009999123100000010000000000000BRAMBPACNOR6103
012024092702BBDC3       010BRADESCO    ON      N1   R$  000000000131600000000013430000000001311000000000133000000000013240000000001324000000000132509366000000000008444700000000011237134600000000000000009999123100000010000000000000BRBBDCACNOR1774
012024092702DMVF3       010D1000VFARMA ON      NM   R$  000000000064000000000006400000000000625000000000062900000000006260000000000625000000000062600274000000000000047000000000000029607900000000000000009999123100000010000000000000BRDMVFACNOR9100
012024092702DXCO3       010DEXCO       ON      NM   R$  000000000082500000000008370000000000820000000000082600000000008250000000000824000000000082607555000000000003108700000000002568407900000000000000009999123100000010000000000000BRDXCOACNOR8105
012024092702EGIE3       010ENGIE BRASILON      NM   R$  000000000429800000000043180000000004283000000000429500000000042920000000004291000000000430106000000000000001120000000000004811356200000000000000009999123100000010000000000000BREGIEACNOR9127
012024092702HAGA3       010HAGA S/A    ON           R$  000000000024800000000002720000000000245000000000025800000000002700000000000254000000000026400111000000000000029400000000000007600100000000000000009999123100000010000000000000BRHAGAACNOR7103
012024092702MTRE3       010MITRE REALTYON  ED  NM   R$  000000000036400000000003640000000000357000000000035900000000003600000000000359000000000036000631000000000000623600000000000224114400000000000000009999123100000010000000000000BRMTREACNOR6115
012024092702AERI3       010AERIS       ON      NM   R$  000000000061200000000006620000000000603000000000063500000000006370000000000636000000000063701265000000000000464200000000000294932400000000000000009999123100000010000000000000BRAERIACNOR4102
012024092707TXRX4       010TEX RENAUX  PN           R$  000000000022600000000002360000000000226000000000022900000000002360000000000227000000000023300003000000000000000300000000000000068900000000000000009999123100000010000000000000BRTXRXACNPR0142
012024092708RNEW3       010RENOVA      ON      N2   R$  000000000010500000000001180000000000105000000000011200000000001120000000000112000000000011300626000000000000477900000000000054002400000000000000009999123100000010000000000000BRRNEWACNOR8110
012024092708NEXP3       010NEXPE       ON           R$  000000000040600000000004110000000000402000000000040800000000004020000000000402000000000040900007000000000000001500000000000000612200000000000000009999123100000010000000000000BRNEXPACNOR0101
012024092708ATMP3       010ATMASA      ON           R$  000000000016100000000001650000000000157000000000015900000000001650000000000157000000000016400029000000000000024800000000000003945400000000000000009999123100000010000000000000BRATMPACNOR8100
012024092708AMER3       010AMERICANAS  ON      NM   R$  000000000051200000000005240000000000510000000000051500000000005150000000000514000000000051501469000000000001594500000000000821579300000000000000009999123100000010000000000000BRAMERACNOR6103
012024092710EQTL9       010EQUATORIAL  ON  REC NM   R$  000000000324800000000032980000000003164000000000320900000000031640000000003164000000000319000054000000000000008500000000000027277400000000000000009999123100000010000000000000BREQTLR04OR9130
012024092712BIME11      010FII BRIO ME CI           R$  000000000073000000000007380000000000729000000000073300000000007340000000000729000000000073400159000000000000007181000000000005269353000000000000009999123100000010000000000000BRBIMECTF006135
012024092712BLUR11      010FII BLUE RECCI           R$  000000000999900000000099990000000009999000000000999900000000099990000000007551000000000999700003000000000000000102000000000001019898000000000000009999123100000010000000000000BRBLURCTF005130
012024092702BRKM3       010BRASKEM     ON      N1   R$  000000000204000000000020860000000002003000000000204500000000020290000000002002000000000203000108000000000000012300000000000025156600000000000000009999123100000010000000000000BRBRKMACNOR1119
012024092702PETZ3       010PETZ        ON      NM   R$  000000000046900000000004910000000000468000000000048100000000004910000000000489000000000049108795000000000007244400000000003484917300000000000000009999123100000010000000000000BRPETZACNOR2110
012024092702SNSY5       010SANSUY      PNA          R$  000000000054500000000005600000000000544000000000055300000000005590000000000526000000000055900012000000000000004300000000000002378900000000000000009999123100000010000000000000BRSNSYACNPA5111
012024092702SUZB3       010SUZANO S.A. ON      NM   R$  000000000540200000000054930000000005394000000000544500000000054380000000005435000000000543817542000000000004778500000000026020594700000000000000009999123100000010000000000000BRSUZBACNOR0130
012024092702BRSR5       010BANRISUL    PNA     N1   R$  000000000173000000000017300000000001730000000000173000000000017300000000001732000000000195000001000000000000000100000000000000173000000000000000009999123100000010000000000000BRBRSRACNPA6193
012024092702CAML3       010CAMIL       ON      NM   R$  000000000087000000000008960000000000866000000000088300000000008790000000000879000000000088401524000000000000315300000000000278597300000000000000009999123100000010000000000000BRCAMLACNOR3129
012024092702LAVV3       010LAVVI       ON      NM   R$  000000000080500000000008150000000000796000000000080300000000008000000000000800000000000080401604000000000000332400000000000267241400000000000000009999123100000010000000000000BRLAVVACNOR4113
012024092702LOGN3       010LOG-IN      ON      NM   R$  000000000340000000000034100000000003350000000000338000000000033500000000003330000000000337800015000000000000001800000000000006084100000000000000009999123100000010000000000000BRLOGNACNOR3105
012024092702ELET3       010ELETROBRAS  ON      N1   R$  000000000396000000000040190000000003934000000000395800000000039490000000003947000000000396818840000000000005060300000000020033723200000000000000009999123100000010000000000000BRELETACNOR6160
012024092702QUAL3       010QUALICORP   ON      NM   R$  000000000019900000000002350000000000198000000000022000000000002310000000000230000000000023107642000000000013824200000000003052930300000000000000009999123100000010000000000000BRQUALACNOR6120
012024092702TRPL3       010TRAN PAULISTON      N1   R$  000000000314000000000031400000000003109000000000312600000000031100000000003111000000000314000007000000000000000800000000000002501000000000000000009999123100000010000000000000BRTRPLACNOR4185
012024092702HBSA3       010HIDROVIAS   ON      NM   R$  000000000033800000000003500000000000338000000000034600000000003440000000000343000000000034401973000000000001290600000000000446793300000000000000009999123100000010000000000000BRHBSAACNOR0100
012024092702WEST3       010WESTWING    ON      NM   R$  000000000008300000000000860000000000083000000000008500000000000840000000000084000000000008500020000000000000009200000000000000784000000000000000009999123100000010000000000000BRWESTACNOR3100
012024092702AZUL4       010AZUL        PN      N2   R$  000000000056000000000005990000000000542000000000057100000000005950000000000594000000000059521610000000000041318900000000023598723200000000000000009999123100000010000000000000BRAZULACNPR4103
012024092702ALUP4       010ALUPAR      PN      N2   R$  000000000101400000000010330000000001013000000000101400000000010130000000001013000000000102000149000000000000043700000000000044323200000000000000009999123100000010000000000000BRALUPACNPR5120
012024092702ARML3       010ARMAC       ON      NM   R$  000000000079600000000008360000000000785000000000081300000000008040000000000802000000000080403459000000000000908800000000000739561900000000000000009999123100000010000000000000BRARMLACNOR1112
012024092702BRBI11      010BR PARTNERS UNT     N2   R$  000000000153000000000015380000000001515000000000152700000000015300000000001525000000000153501074000000000000182300000000000278487100000000000000009999123100000010000000000000BRBRBICDAM10110
012024092702DOTZ3       010DOTZ SA     ON      NM   R$  000000000052000000000005380000000000491000000000050900000000005030000000000502000000000051000172000000000000035300000000000017975500000000000000009999123100000010000000000000BRDOTZACNOR7101
012024092702EALT4       010ACO ALTONA  PN           R$  000000000141500000000014600000000001345000000000138400000000014320000000001417000000000143200169000000000000034900000000000048306600000000000000009999123100000010000000000000BREALTACNPR1138
012024092702GSHP3       010GENERALSHOPPON           R$  000000000095000000000009500000000000950000000000095000000000009500000000000880000000000099900001000000000000000100000000000000095000000000000000009999123100000010000000000000BRGSHPACNOR7102
012024092702HAPV3       010HAPVIDA     ON      NM   R$  000000000040700000000004090000000000396000000000040100000000004000000000000399000000000040028946000000000066166800000000026580619400000000000000009999123100000010000000000000BRHAPVACNOR4114
012024092702MULT3       010MULTIPLAN   ON      N2   R$  000000000256500000000025960000000002548000000000256500000000025540000000002553000000000256208342000000000001810600000000004644326600000000000000009999123100000010000000000000BRMULTACNOR5139
012024092702AFLT3       010AFLUENTE T  ON           R$  000000000070600000000007060000000000706000000000070600000000007060000000000704000000000072300002000000000000000200000000000000141200000000000000009999123100000010000000000000BRAFLTACNOR1122
012024092708CTSA4       010SANTANENSE  PN           R$  000000000012800000000001330000000000128000000000013000000000001290000000000129000000000013200397000000000000142000000000000018517200000000000000009999123100000010000000000000BRCTSAACNPR0062
012024092708RPMG3       010PET MANGUINHON           R$  000000000029800000000003070000000000298000000000030200000000003030000000000300000000000030300061000000000000019800000000000005984500000000000000009999123100000010000000000000BRRPMGACNOR9194
012024092708OIBR4       010OI          PN      N1   R$  000000000111200000000011500000000001110000000000113100000000011350000000001111000000000114700015000000000000002300000000000002602800000000000000009999123100000010000000000000BROIBRACNPR8111
012024092708PMAM3       010PARANAPANEMAON  ES  NM   R$  000000000016800000000001740000000000156000000000016600000000001630000000000163000000000016700356000000000000199300000000000033279600000000000000009999123100000010000000000000BRPMAMACNOR3040
012024092710BGIP2       010BANESE      DIR PRE      R$  000000000027300000000002730000000000273000000000027300000000002730000000000200000000000035000001000000000000000300000000000000081900000000000000009999123100000010000000000000BRBGIPD08PR8209
012024092712ABCP11      010FII ABC IMOBCI           R$  000000000717700000000072390000000007109000000000720000000000072250000000007225000000000722600062000000000000000410000000000002952048000000000000009999123100000010000000000000BRABCPCTF000342
012024092712BLMG11      010FII BLUE LOGCI           R$  000000000392400000000039240000000003882000000000389800000000039120000000003901000000000391200506000000000000014637000000000057064610000000000000009999123100000010000000000000BRBLMGCTF005150
012024092712BPFF11      010FII ABSOLUTOCI           R$  000000000668900000000067190000000006609000000000666400000000066410000000006642000000000668001322000000000000003852000000000025670075000000000000009999123100000010000000000000BRBPFFCTF002239
012024092702USIM5       010USIMINAS    PNA     N1   R$  000000000064000000000006400000000000621000000000062800000000006240000000000623000000000062514871000000000012234900000000007694709500000000000000009999123100000010000000000000BRUSIMACNPA6169
012024092702BRKM5       010BRASKEM     PNA     N1   R$  000000000203300000000020980000000002029000000000205800000000020310000000002031000000000203308754000000000002659700000000005473832000000000000000009999123100000010000000000000BRBRKMACNPA4121
012024092702PTNT3       010PETTENATI   ON           R$  000000000105000000000010600000000001000000000000101800000000010550000000000988000000000105600029000000000000005900000000000006009200000000000000009999123100000010000000000000BRPTNTACNOR6042
012024092702SOJA3       010BOA SAFRA   ON      NM   R$  000000000117800000000012200000000001171000000000120300000000012000000000001200000000000120302641000000000000573100000000000689585900000000000000009999123100000010000000000000BRSOJAACNOR9105
012024092702VAMO3       010VAMOS       ON      NM   R$  000000000066100000000006720000000000649000000000065800000000006500000000000650000000000065112828000000000005348400000000003523950100000000000000009999123100000010000000000000BRVAMOACNOR7105
012024092702BRSR6       010BANRISUL    PNB     N1   R$  000000000115300000000011660000000001146000000000115400000000011500000000001150000000000115203736000000000001094800000000001263416600000000000000009999123100000010000000000000BRBRSRACNPB4192
012024092702CASH3       010MELIUZ      ON      NM   R$  000000000041600000000004230000000000412000000000041600000000004120000000000412000000000041600800000000000000427600000000000178082900000000000000009999123100000010000000000000BRCASHACNOR8107
012024092702LEVE3       010METAL LEVE  ON      NM   R$  000000000303500000000030630000000003027000000000303900000000030300000000003029000000000303001869000000000000344400000000001046904700000000000000009999123100000010000000000000BRLEVEACNOR2197
012024092702LPSB3       010LOPES BRASILON      NM   R$  000000000017600000000001790000000000174000000000017500000000001750000000000174000000000017500232000000000000193900000000000034090600000000000000009999123100000010000000000000BRLPSBACNOR0114
012024092702ELET6       010ELETROBRAS  PNB     N1   R$  000000000435500000000044440000000004355000000000440100000000043850000000004385000000000440003000000000000000599800000000002640219300000000000000009999123100000010000000000000BRELETACNPB7077
012024092702TPIS3       010TRIUNFO PARTON      NM   R$  000000000052500000000005300000000000514000000000052000000000005200000000000520000000000052600246000000000000059100000000000030756500000000000000009999123100000010000000000000BRTPISACNOR8118
012024092702TRPL4       010TRAN PAULISTPN      N1   R$  000000000243300000000024420000000002421000000000242700000000024220000000002421000000000242307399000000000001957700000000004753105500000000000000009999123100000010000000000000BRTRPLACNPR1185
012024092702HBTS5       010HABITASUL   PNA          R$  000000000376500000000037650000000003500000000000360300000000035500000000003300000000000354700033000000000000004400000000000015856600000000000000009999123100000010000000000000BRHBTSACNPA3128
012024092702WHRL3       010WHIRLPOOL   ON           R$  000000000043900000000004390000000000439000000000043900000000004390000000000438000000000043900002000000000000000200000000000000087800000000000000009999123100000010000000000000BRWHRLACNOR5129
012024092702ALPK3       010ESTAPAR     ON      NM   R$  000000000029600000000003050000000000295000000000030100000000002990000000000299000000000030300231000000000000139600000000000042075000000000000000009999123100000010000000000000BRALPKACNOR9101
012024092702AMAR3       010LOJAS MARISAON      NM   R$  000000000010800000000001100000000000105000000000010700000000001070000000000107000000000010800526000000000000259800000000000027856600000000000000009999123100000010000000000000BRAMARACNOR4115
012024092702ASAI3       010ASSAI       ON      NM   R$  000000000080000000000008220000000000800000000000081300000000008120000000000812000000000081315898000000000013583900000000011055369700000000000000009999123100000010000000000000BRASAIACNOR0106
012024092702BRFS3       010BRF SA      ON      NM   R$  000000000246100000000024690000000002419000000000243600000000024260000000002425000000000242712888000000000003958600000000009645685000000000000000009999123100000010000000000000BRBRFSACNOR8122
012024092702DTCY3       010DTCOM-DIRECTON           R$  000000000044700000000004470000000000445000000000044500000000004450000000000445000000000047500004000000000000000500000000000000222800000000000000009999123100000010000000000000BRDTCYACNOR5109
012024092702ECOR3       010ECORODOVIAS ON      NM   R$  000000000072500000000007320000000000714000000000072200000000007140000000000714000000000071502948000000000001546100000000001116636800000000000000009999123100000010000000000000BRECORACNOR8120
012024092702GUAR3       010GUARARAPES  ON      NM   R$  000000000079200000000008160000000000784000000000080000000000008090000000000802000000000080902514000000000000728800000000000583445400000000000000009999123100000010000000000000BRGUARACNOR4173
012024092702JHSF3       010JHSF PART   ON      NM   R$  000000000041200000000004160000000000409000000000041200000000004100000000000410000000000041103054000000000001662800000000000685508600000000000000009999123100000010000000000000BRJHSFACNOR2139
012024092702MWET4       010WETZEL S/A  PN           R$  000000000080000000000008000000000000800000000000080000000000008000000000000801000000000091500002000000000000000300000000000000240000000000000000009999123100000010000000000000BRMWETACNPR3118
012024092707NUTR3       010NUTRIPLANT  ON      MA   R$  000000000047400000000004740000000000466000000000046900000000004670000000000466000000000046900011000000000000001100000000000000516200000000000000009999123100000010000000000000BRNUTRACNOR0104
012024092708RNEW11      010RENOVA      UNT     N2   R$  000000000030700000000003450000000000307000000000032500000000003400000000000340000000000034200171000000000000046800000000000015250400000000000000009999123100000010000000000000BRRNEWCDAM15110
012024092708RSID3       010ROSSI RESID ON      NM   R$  000000000030800000000003160000000000308000000000030900000000003100000000000310000000000031400057000000000000011700000000000003622600000000000000009999123100000010000000000000BRRSIDACNOR8120
012024092708OSXB3       010OSX BRASIL  ON      NM   R$  000000000041800000000004200000000000400000000000041700000000004200000000000410000000000042000023000000000000006900000000000002883700000000000000009999123100000010000000000000BROSXBACNOR8109
012024092708LIGT3       010LIGHT S/A   ON      NM   R$  000000000070900000000007130000000000691000000000069800000000007010000000000699000000000070100930000000000000243300000000000169919200000000000000009999123100000010000000000000BRLIGTACNOR2124
012024092710DASA1       010DASA        DIR ORD NM   R$  000000000000300000000000030000000000002000000000000200000000000030000000000002000000000000300159000000000000474400000000000001285400000000000000009999123100000010000000000000BRDASAD04OR0122
012024092712BICR11      010FII INTER   CI           R$  000000000350300000000040000000000003503000000000397500000000040000000000004000000000000427400008000000000000000062000000000000246509000000000000009999123100000010000000000000BRBICRCTF009155
012024092712BLMO11      010FII BLUEMAC CI           R$  000000000722700000000073750000000006970000000000697300000000073750000000006970000000000737500006000000000000001028000000000007169062000000000000009999123100000010000000000000BRBLMOCTF009134
012024092702BMKS3       010BIC MONARK  ON           R$  000000003077900000000309990000000030500000000003078600000000307000000000030500000000003099900007000000000000000019000000000000584948000000000000009999123100000010000000000000BRBMKSACNOR9166
012024092702DESK3       010DESKTOP     ON      NM   R$  000000000152000000000015450000000001491000000000151400000000014910000000001491000000000150400865000000000000184700000000000279715400000000000000009999123100000010000000000000BRDESKACNOR2104
012024092702GGPS3       010GPS         ON      NM   R$  000000000186400000000019060000000001850000000000186800000000018560000000001855000000000187004564000000000001833300000000003424858400000000000000009999123100000010000000000000BRGGPSACNOR9103
012024092702JALL3       010JALLESMACHADON      NM   R$  000000000065100000000006650000000000648000000000065400000000006500000000000650000000000065400798000000000000323900000000000211988700000000000000009999123100000010000000000000BRJALLACNOR0106
012024092702MNPR3       010MINUPAR     ON           R$  000000000172000000000017830000000001720000000000174600000000017830000000001700000000000175000004000000000000000700000000000001222300000000000000009999123100000010000000000000BRMNPRACNOR5122
012024092702MRVE3       010MRV         ON      NM   R$  000000000072800000000007520000000000727000000000073700000000007340000000000733000000000073608875000000000008540900000000006301359700000000000000009999123100000010000000000000BRMRVEACNOR2127
012024092702CYRE3       010CYRELA REALTON      NM   R$  000000000208400000000021250000000002051000000000207800000000020700000000002070000000000207521191000000000008409600000000017481358700000000000000009999123100000010000000000000BRCYREACNOR7140
012024092702GGBR3       010GERDAU      ON      N1   R$  000000000169000000000017150000000001679000000000170000000000016820000000001675000000000169500192000000000000030400000000000051704400000000000000009999123100000010000000000000BRGGBRACNOR1193
012024092702FIEI3       010FICA        ON           R$  000000000094000000000009400000000000850000000000088000000000008500000000000833000000000091000003000000000000000300000000000000264000000000000000009999123100000010000000000000BRFIEIACNOR2100
012024092702FRIO3       010METALFRIO   ON      NM   R$  000000001650000000000165000000000013700000000001422900000000137000000000013600000000001399900020000000000000004500000000000064031400000000000000009999123100000010000000000000BRFRIOACNOR2111
012024092702ITUB4       010ITAUUNIBANCOPN  EJ  N1   R$  000000000365400000000036860000000003652000000000366800000000036760000000003675000000000367631785000000000027723900000000101694129900000000000000009999123100000010000000000000BRITUBACNPR1341
012024092702BPAC11      010BTGP BANCO  UNT     N2   R$  000000000327300000000034470000000003273000000000339200000000034100000000003409000000000341325483000000000023101800000000078374693000000000000000009999123100000010000000000000BRBPACUNT006119
012024092702EQMA3B      010EQTLMARANHAOON      MB   R$  000000000229900000000022990000000002299000000000229900000000022990000000002280000000000230100002000000000000000200000000000000459800000000000000009999123100000010000000000000BREQMAACNOR8108
012024092702ESTR4       010ESTRELA     PN           R$  000000000036000000000004050000000000360000000000038300000000003800000000000380000000000039100015000000000000002700000000000001035000000000000000009999123100000010000000000000BRESTRACNPR0144
012024092702BBSE3       010BBSEGURIDADEON      NM   R$  000000000353900000000035610000000003525000000000354000000000035370000000003536000000000353814947000000000003166500000000011211312900000000000000009999123100000010000000000000BRBBSEACNOR5125
012024092702CEBR3       010CEB         ON           R$  000000000193300000000019330000000001895000000000191300000000018950000000001895000000000195400018000000000000005000000000000009568900000000000000009999123100000010000000000000BRCEBRACNOR5125
012024092702CEEB5       010COELBA      PNA          R$  000000000350000000000039000000000003500000000000353600000000039000000000003500000000000000000004000000000000001100000000000003890000000000000000009999123100000010000000000000BRCEEBACNPA6193
012024092702LWSA3       010LWSA        ON      NM   R$  000000000042600000000004370000000000425000000000043200000000004300000000000430000000000043108714000000000004370300000000001888367600000000000000009999123100000010000000000000BRLWSAACNOR8103
012024092702ENGI4       010ENERGISA    PN      N2   R$  000000000079200000000007950000000000783000000000079000000000007940000000000783000000000080300024000000000000003500000000000002765900000000000000009999123100000010000000000000BRENGIACNPR7142
012024092702AZZA3       010AZZAS 2154  ON      NM   R$  000000000423300000000044440000000004213000000000433400000000042870000000004287000000000429410988000000000002086300000000009042463900000000000000009999123100000010000000000000BRAZZAACNOR9100
012024092702CSAN3       010COSAN       ON      NM   R$  000000000129300000000013280000000001292000000000130900000000013150000000001315000000000131621860000000000019988900000000026175792400000000000000009999123100000010000000000000BRCSANACNOR6126
012024092702PSSA3       010PORTO SEGUROON      NM   R$  000000000362700000000036480000000003605000000000362700000000036450000000003634000000000364506805000000000001442000000000005230783200000000000000009999123100000010000000000000BRPSSAACNOR7155
012024092702IRBR3       010IRBBRASIL REON      NM   R$  000000000455000000000046080000000004515000000000456600000000045550000000004555000000000456203157000000000000559500000000002554892000000000000000009999123100000010000000000000BRIRBRACNOR4111
012024092702SMTO3       010SAO MARTINHOON      NM   R$  000000000266000000000026890000000002636000000000266300000000026500000000002648000000000265204224000000000000769700000000002049979500000000000000009999123100000010000000000000BRSMTOACNOR3127
012024092702PLPL3       010PLANOEPLANO ON      NM   R$  000000000122500000000012400000000001214000000000122400000000012170000000001217000000000122001995000000000000574800000000000703839100000000000000009999123100000010000000000000BRPLPLACNOR5104
012024092702VIVT3       010TELEF BRASILON           R$  000000000551500000000056180000000005515000000000558200000000055600000000005558000000000556012136000000000001945900000000010863866700000000000000009999123100000010000000000000BRVIVTACNOR0184
012024092702PORT3       010WILSON SONS ON      NM   R$  000000000170800000000017270000000001706000000000171100000000017240000000001718000000000172602161000000000001814400000000003106058700000000000000009999123100000010000000000000BRPORTACNOR8109
012024092702SHUL4       010SCHULZ      PN  EJ       R$  000000000062200000000006310000000000618000000000062200000000006180000000000618000000000062000917000000000000286900000000000178488500000000000000009999123100000010000000000000BRSHULACNPR4157
012024092702SCAR3       010SAO CARLOS  ON      NM   R$  000000000221400000000022580000000002188000000000224800000000022580000000002250000000000225800034000000000000009600000000000021589500000000000000009999123100000010000000000000BRSCARACNOR7131
012024092702UNIP3       010UNIPAR      ON           R$  000000000468400000000047350000000004684000000000470900000000046900000000004690000000000473800037000000000000005300000000000024961800000000000000009999123100000010000000000000BRUNIPACNOR7206
012024092702UNIP6       010UNIPAR      PNB          R$  000000000476800000000048120000000004727000000000476700000000047500000000004750000000000475200942000000000000173300000000000826243900000000000000009999123100000010000000000000BRUNIPACNPB8206
012024092712BPRP11      010FII BRLPROP CI           R$  000000001075000000000107500000000010750000000001075000000000107500000000009001000000001075000002000000000000000020000000000000215000000000000000009999123100000010000000000000BRBPRPCTF006162
012024092712FATN11      010FII ATHENA ICI           R$  000000000904000000000090930000000009010000000000904300000000090850000000009082000000000908500927000000000000011500000000000104000863000000000000009999123100000010000000000000BRFATNCTF000155
012024092712PATL11      010FII PATLOGISCI           R$  000000000591000000000059510000000005882000000000591000000000058920000000005892000000000589701404000000000000015252000000000090153212000000000000009999123100000010000000000000BRPATLCTF003149
012024092712RECX11      010FII REC FOF CI           R$  000000000621000000000062120000000006210000000000621100000000062110000000006240000000000639900003000000000000000018000000000000111798000000000000009999123100000010000000000000BRRECXCTF002140
012024092712XPCM11      010FII XP MACAECI           R$  000000000073500000000007510000000000735000000000073700000000007370000000000738000000000074400105000000000000001237000000000000912405000000000000009999123100000010000000000000BRXPCMCTF009230
012024092712XPPR11      010FII XP PROP CI           R$  000000000167400000000017000000000001674000000000168100000000017000000000001676000000000170100682000000000000013529000000000022745399000000000000009999123100000010000000000000BRXPPRCTF000158
012024092712TEPP11      010FII TEL PROPCI           R$  000000000875100000000088180000000008702000000000873800000000087500000000008735000000000875702921000000000000005838000000000051014645000000000000009999123100000010000000000000BRTEPPCTF006153
012024092712VOTS11      010FII V MASTERCI           R$  000000000756400000000077100000000007528000000000757300000000076780000000007551000000000779900021000000000000000080000000000000605896000000000000009999123100000010000000000000BRVOTSCTF007173
012024092712VSLH11      010FII VERS CRICI           R$  000000000035000000000003520000000000346000000000034900000000003520000000000351000000000035201031000000000000030728000000000010734283000000000000009999123100000010000000000000BRVSLHCTF008146
012024092712VVMR11      010FII MULT RENCI           R$  000000000850300000000087510000000008464000000000868900000000087510000000008402000000000875100017000000000000000188000000000001633542000000000000009999123100000010000000000000BRVVMRCTF009108
012024092712RBHG11      010FII RBCRI IVCI           R$  000000000819000000000082780000000008162000000000823200000000082060000000008180000000000820501775000000000000006317000000000052002181000000000000009999123100000010000000000000BRRBHGCTF002137
012024092712RBOP11      010FII MERC BR CI           R$  000000003757200000000376000000000036997000000003738400000000375990000000037500000000003760000031000000000000000069000000000002579539000000000000009999123100000010000000000000BRRBOPCTF009124
012024092712RBRP11      010FII RBR PROPCI           R$  000000000531200000000053290000000005264000000000528400000000053070000000005299000000000530706771000000000000023086000000000122006982000000000000009999123100000010000000000000BRRBRPCTF002176
012024092712RBRY11      010FII RBR PCRICI           R$  000000000954800000000096000000000009530000000000956300000000096000000000009581000000000960008681000000000000031895000000000305012311000000000000009999123100000010000000000000BRRBRYCTF004171
012024092712RCRB11      010FII RIOB RC CI           R$  000000001299300000000131000000000012990000000001305000000000130500000000013050000000001309903455000000000000006027000000000078653219000000000000009999123100000010000000000000BRRCRBCTF000160
012024092712MCHY11      010FII MAUA HY CI           R$  000000000088100000000009000000000000871000000000088900000000008870000000000887000000000089331802000000000000760691000000000676376007000000000000009999123100000010000000000000BRMCHYCTF004141
012024092712MGHT11      010FII MOGNO HTCI           R$  000000000200000000000020280000000001885000000000192200000000018880000000001888000000000193100655000000000000007674000000000014750676000000000000009999123100000010000000000000BRMGHTCTF005155
012024092712RMAI11      010FII REAGMULTCI           R$  000000000757400000000077000000000007555000000000769100000000076950000000007517000000000769500110000000000000001385000000000010652418000000000000009999123100000010000000000000BRRMAICTF000137
012024092712IBCR11      010FII BREI    CI           R$  000000000644900000000064490000000006392000000000640100000000064000000000006399000000000642200084000000000000001242000000000007950400000000000000009999123100000010000000000000BRIBCRCTF009140
012024092712CJCT11      010FII CJCTOWERCI           R$  000000000596000000000059600000000005960000000000596000000000059600000000005901000000000596000004000000000000000023000000000000137080000000000000009999123100000010000000000000BRCJCTCTF001118
012024092712VCRR11      010FII VECT RENCI           R$  000000000664800000000067000000000006570000000000664700000000066830000000006646000000000668300317000000000000004966000000000033009231000000000000009999123100000010000000000000BRVCRRCTF008139
012024092712VGRI11      010FII VGRI    CI           R$  000000000090900000000009130000000000891000000000090100000000009020000000000895000000000090200431000000000000062005000000000055927455000000000000009999123100000010000000000000BRVGRICTF008107
012024092712HSRE11      010FII HSIRENDACI           R$  000000001019200000000101920000000009599000000000960400000000096000000000009501000000000960000153000000000000002548000000000024473478000000000000009999123100000010000000000000BRHSRECTF001144
012024092712HUSI11      010FII HUSI    CI           R$  000000012200000000001220000000000122000000000012200000000001220000000000110000000000000000000001000000000000000001000000000000122000000000000000009999123100000010000000000000BRHUSICTF006127
012024092712JSRE11      010FII JS REAL CI           R$  000000000623000000000063100000000006227000000000626400000000062950000000006285000000000629410717000000000000028109000000000176096867000000000000009999123100000010000000000000BRJSRECTF007265
012024092712KISU11      010FII KILIMA  CI           R$  000000000079100000000007910000000000785000000000078700000000007880000000000788000000000078903469000000000000082548000000000065043483000000000000009999123100000010000000000000BRKISUCTF000147
012024092712MXRF11      010FII MAXI RENCI           R$  000000000099800000000010000000000000996000000000099700000000009990000000000998000000000099943107000000000001500419000000001496807036000000000000009999123100000010000000000000BRMXRFCTF008256
012024092712NEWL11      010FII NEWPORT CI           R$  000000001152600000000115260000000011100000000001125800000000112800000000011280000000001139000593000000000000010151000000000114288725000000000000009999123100000010000000000000BRNEWLCTF004158
012024092712OCRE11      010FII OCTO    CI           R$  000000001008900000000100890000000010089000000001008900000000100890000000009801000000001008900001000000000000000010000000000000100890000000000000009999123100000010000000000000BROCRECTF001117
012024092712RZLC11      010FII RZLC    CI           R$  000000010091700000001009170000000100917000000010091700000001009170000000100916000000010091700003000000000000000014000000000001412838000000000000009999123100000010000000000000BRRZLCCTF002100
012024092712SADI11      010FII SANT PAPCI           R$  000000000888500000000089500000000008850000000000887700000000089490000000008915000000000894900307000000000000018521000000000164421475000000000000009999123100000010000000000000BRSADICTF007162
012024092712BPML11      010FII BTG SHOPCI  ER       R$  000000000891100000000090750000000008869000000000891300000000088690000000008869000000000891900695000000000000006081000000000054201508000000000000009999123100000010000000000000BRBPMLCTF006134
012024092712FAMB11      010FII ALMIRANTCI           R$  000000017510100000001804920000000175101000000017882400000001800000000000178003000000018042900032000000000000000108000000000019313012000000000000009999123100000010000000000000BRFAMBCTF018316
012024092712PATC11      010FII PATRIA  CI           R$  000000000349900000000035740000000003451000000000346700000000035740000000003457000000000357600050000000000000001147000000000003976828000000000000009999123100000010000000000000BRPATCCTF002173
012024092712MAXR11      010FII MAX RET CI           R$  000000000740500000000074880000000007405000000000742500000000074880000000007445000000000750000071000000000000000294000000000002183028000000000000009999123100000010000000000000BRMAXRCTF009271
012024092712XPCI11      010FII XP CRED CI           R$  000000000871300000000087450000000008693000000000872200000000087230000000008700000000000872306749000000000000018444000000000160880190000000000000009999123100000010000000000000BRXPCICTF007160
012024092712XPML11      010FII XP MALLSCI  ER       R$  000000001076700000000107980000000010680000000001071400000000107830000000010782000000001078330042000000000000552328000000005917991966000000000000009999123100000010000000000000BRXPMLCTF000188
012024092712SAPI11      010FII SAPI    CI           R$  000000000889300000000089120000000008799000000000886200000000089100000000008850000000000891000483000000000000002877000000000025498679000000000000009999123100000010000000000000BRSAPICTF001111
012024092712TORD11      010FII TORDE EICI           R$  000000000009900000000001000000000000097000000000009900000000001000000000000099000000000010002293000000000000080686000000000008012774000000000000009999123100000010000000000000BRTORDCTF015138
012024092712VSHO11      010FII VOT SHOPCI           R$  000000000727500000000072750000000007230000000000725900000000072620000000007250000000000726200064000000000000001146000000000008318933000000000000009999123100000010000000000000BRVSHOCTF002164
012024092712VVCR11      010FII V2 RECE CI  ER       R$  000000000097300000000009730000000000972000000000097200000000009730000000000972000000000097300022000000000000000822000000000000799379000000000000009999123100000010000000000000BRVVCRCTF000119
012024092712RBFF11      010FII RIOB FF CI           R$  000000000585800000000059940000000005787000000000588100000000059150000000005902000000000591501759000000000000012706000000000074730126000000000000009999123100000010000000000000BRRBFFCTF008163
012024092712RBLG11      010FII RBCAP LGCI           R$  000000000698000000000069800000000006980000000000698000000000069800000000006305000000000697000001000000000000000050000000000000349000000000000000009999123100000010000000000000BRRBLGCTF004149
012024092712RBRL11      010FII RBR LOG CI           R$  000000000774500000000077500000000007653000000000772000000000077480000000007743000000000774801501000000000000003694000000000028517983000000000000009999123100000010000000000000BRRBRLCTF001157
012024092712RBRX11      010FII RBR MULTCI           R$  000000000083200000000008470000000000832000000000083400000000008380000000000835000000000083807901000000000000094024000000000078454895000000000000009999123100000010000000000000BRRBRXCTF006132
012024092712RCFA11      010FII GP RCFA CI           R$  000000000010200000000001100000000000102000000000010700000000001040000000000104000000000010800015000000000000000164000000000000017692000000000000009999123100000010000000000000BRRCFACTF007101
012024092712MCCI11      010FII MAUA    CI           R$  000000000881600000000088810000000008752000000000879600000000088750000000008868000000000887511662000000000000049939000000000439296468000000000000009999123100000010000000000000BRMCCICTF008165
012024092712MFII11      010FII MERITO ICI           R$  000000001011300000000101390000000009900000000001005900000000101010000000010061000000001010102034000000000000021561000000000216898199000000000000009999123100000010000000000000BRMFIICTF008238
012024092712RINV11      010FII REAL INVCI  ES       R$  000000001076900000000107850000000010760000000001077000000000107750000000010766000000001077500460000000000000007868000000000084744040000000000000009999123100000010000000000000BRRINVCTF004123
012024092712CPFF11      010FII CAP REITCI           R$  000000000681600000000068530000000006815000000000681600000000068400000000006816000000000684000064000000000000002594000000000017680730000000000000009999123100000010000000000000BRCPFFCTF000159
012024092712CEOC11      010FII CEO CCP CI           R$  000000000429300000000043150000000004290000000000429800000000043140000000004300000000000431400024000000000000000202000000000000868204000000000000009999123100000010000000000000BRCEOCCTF003218
012024092712VCRI11      010FII VINCI CRCI           R$  000000000082000000000008250000000000819000000000082000000000008230000000000822000000000082500154000000000000033372000000000027383142000000000000009999123100000010000000000000BRVCRICTF007128
012024092712VGIR11      010FII VALREIIICI           R$  000000000098500000000009900000000000983000000000098500000000009850000000000985000000000098632105000000000000471995000000000465329808000000000000009999123100000010000000000000BRVGIRCTF008180
012024092712INLG11      010FII INTER LGCI           R$  000000000830100000000083010000000008215000000000824000000000082980000000008233000000000829800112000000000000001844000000000015195324000000000000009999123100000010000000000000BRINLGCTF008100
012024092712HUSC11      010FII H UNIMEDCI           R$  000000001084000000000108400000000010840000000001084000000000108400000000010797000000001102000001000000000000000001000000000000010840000000000000009999123100000010000000000000BRHUSCCTF009155
012024092712JSCR11      010FII JSCR    CI           R$  000000000932000000000094200000000009000000000000928400000000093240000000009010000000000934200019000000000000001734000000000016098626000000000000009999123100000010000000000000BRJSCRCTF001102
012024092712KFOF11      010FII KINEAFOFCI           R$  000000000839000000000086180000000008380000000000847500000000085070000000008507000000000855903441000000000000015688000000000132961250000000000000009999123100000010000000000000BRKFOFCTF006172
012024092712KNHF11      010FII KINEA HFCI           R$  000000000943500000000095880000000009411000000000949400000000095480000000009501000000000954806028000000000000042594000000000404428521000000000000009999123100000010000000000000BRKNHFCTF004114
012024092712NCRI11      010FII NAVI CRICI           R$  000000000097400000000009740000000000942000000000095400000000009530000000000934000000000095300048000000000000000240000000000000229119000000000000009999123100000010000000000000BRNCRICTF004121
012024092712NVHO11      010FII NOVOHORICI           R$  000000000127900000000013480000000001166000000000127600000000013470000000001300000000000134800021000000000000000068000000000000086816000000000000009999123100000010000000000000BRNVHOCTF003231
012024092712RZAT11      010FII ARCTIUM CI           R$  000000000965800000000098000000000009611000000000967700000000096570000000009613000000000965702108000000000000010257000000000099265361000000000000009999123100000010000000000000BRRZATCTF009121
012024092712OULG11      010FII OURILOG CI           R$  000000000289300000000029840000000002875000000000294000000000029630000000002962000000000297600008000000000000000023000000000000067633000000000000009999123100000010000000000000BROULGCTF001153
012024092712FAED11      010FII ANH EDUCCI           R$  000000001509300000000150940000000014980000000001502900000000150810000000015001000000001508300048000000000000000148000000000002224352000000000000009999123100000010000000000000BRFAEDCTF003281
012024092712PATA11      010FII PATA    CI           R$  000000000111700000000011170000000001099000000000111100000000010990000000001025000000000108900002000000000000000003000000000000003333000000000000009999123100000010000000000000BRPATACTF006101
