00COTAHIST.2024BOVESPA 20240924                                                                                                                                                                                                                      
012024092402ELET6       010ELETROBRAS  PNB     N1   R$  000000000444500000000045000000000004375000000000442400000000044100000000004410000000000441605451000000000001048300000000004638526500000000000000009999123100000010000000000000BRELETACNPB7077
012024092402HYPE3       010HYPERA      ON  EJ  NM   R$  000000000271500000000027270000000002680000000000269600000000026810000000002680000000000268709620000000000001841600000000004966172800000000000000009999123100000010000000000000BRHYPEACNOR0144
012024092402AALR3       010ALLIAR      ON      NM   R$  000000000154600000000015470000000001451000000000150500000000015300000000001514000000000153900185000000000000030300000000000045611300000000000000009999123100000010000000000000BRAALRACNOR6102
012024092402BMGB4       010BANCO BMG   PN      N1   R$  000000000038300000000003860000000000380000000000038300000000003810000000000381000000000038200489000000000000326000000000000124889500000000000000009999123100000010000000000000BRBMGBACNPR0110
012024092402BRBI11      010BR PARTNERS UNT     N2   R$  000000000153000000000015400000000001513000000000153000000000015400000000001535000000000154001138000000000000188300000000000288145400000000000000009999123100000010000000000000BRBRBICDAM10110
012024092402DTCY3       010DTCOM-DIRECTON           R$  000000000046000000000004600000000000450000000000045500000000004500000000000450000000000048000006000000000000000700000000000000318500000000000000009999123100000010000000000000BRDTCYACNOR5109
012024092402CRPG6       010CRISTAL     PNB          R$  000000000275700000000027570000000002751000000000275400000000027510000000002706000000000279900005000000000000000600000000000001652500000000000000009999123100000010000000000000BRCRPGACNPB1119
012024092402DEXP3       010DEXXOS PAR  ON      N1   R$  000000000089000000000008940000000000879000000000088500000000008860000000000885000000000088700201000000000000043100000000000038155800000000000000009999123100000010000000000000BRDEXPACNOR1105
012024092402GMAT3       010GRUPO MATEUSON      NM   R$  000000000071400000000007330000000000714000000000072600000000007300000000000730000000000073303530000000000002176200000000001582011700000000000000009999123100000010000000000000BRGMATACNOR7102
012024092402BEES4       010BANESTES    PN           R$  000000000094000000000009400000000000922000000000093600000000009380000000000930000000000093800036000000000000007200000000000006744600000000000000009999123100000010000000000000BRBEESACNPR6320
012024092402TASA4       010TAURUS ARMASPN      N2   R$  000000000110000000000011180000000001082000000000109400000000010850000000001084000000000108501233000000000000258700000000000283218600000000000000009999123100000010000000000000BRTASAACNPR4104
012024092402TELB4       010TELEBRAS    PN           R$  000000000091700000000009410000000000908000000000092400000000009300000000000925000000000093000021000000000000004800000000000004438000000000000000009999123100000010000000000000BRTELBACNPR9140
012024092402TIMS3       010TIM         ON  EJ  NM   R$  000000000185600000000018880000000001855000000000187700000000018790000000001878000000000187911268000000000006422900000000012057296600000000000000009999123100000010000000000000BRTIMSACNOR5118
012024092402TRIS3       010TRISUL      ON      NM   R$  000000000048700000000004970000000000483000000000048600000000004830000000000483000000000048600965000000000000619300000000000301037000000000000000009999123100000010000000000000BRTRISACNOR4118
012024092402NTCO3       010GRUPO NATURAON      NM   R$  000000000137700000000013800000000001346000000000136100000000013540000000001354000000000136010346000000000005086000000000006924349600000000000000009999123100000010000000000000BRNTCOACNOR5106
012024092402SANB3       010SANTANDER BRON           R$  000000000137400000000013900000000001372000000000137900000000013750000000001375000000000138000414000000000000079300000000000109404900000000000000009999123100000010000000000000BRSANBACNOR8172
012024092402VALE3       010VALE        ON      NM   R$  000000000602100000000060740000000005964000000000603500000000060340000000006032000000000603469451000000000044910100000000271063216700000000000000009999123100000010000000000000BRVALEACNOR0211
012024092402CMIG3       010CEMIG       ON  EJ  N1   R$  000000000143100000000014310000000001400000000000140900000000014140000000001401000000000141401745000000000000263700000000000371714800000000000000009999123100000010000000000000BRCMIGACNOR6244
012024092402RECV3       010PETRORECSA  ON      NM   R$  000000000187200000000018920000000001846000000000185900000000018550000000001855000000000185605944000000000001474800000000002742202000000000000000009999123100000010000000000000BRRECVACNOR3107
012024092402GGBR3       010GERDAU      ON      N1   R$  000000000159800000000016750000000001598000000000165800000000016610000000001659000000000166900355000000000000078200000000000129720600000000000000009999123100000010000000000000BRGGBRACNOR1193
012024092402PDTC3       010PADTEC      ON      NM   R$  000000000019000000000001930000000000187000000000018800000000001870000000000187000000000018800053000000000000040100000000000007556700000000000000009999123100000010000000000000BRPDTCACNOR3101
012024092402AZZA3       010AZZAS 2154  ON      NM   R$  000000000457700000000046250000000004471000000000451600000000044810000000004481000000000448506854000000000001733800000000007829890500000000000000009999123100000010000000000000BRAZZAACNOR9100
012024092402SAPR11      010SANEPAR     UNT     N2   R$  000000000311900000000031560000000003092000000000311700000000031060000000003106000000000311505661000000000001725800000000005379444100000000000000009999123100000010000000000000BRSAPRCDAM13118
012024092402UNIP3       010UNIPAR      ON           R$  000000000468600000000047690000000004686000000000473800000000047450000000004743000000000476900082000000000000010100000000000047862600000000000000009999123100000010000000000000BRUNIPACNOR7206
012024092402VIVA3       010VIVARA S.A. ON      NM   R$  000000000274400000000027820000000002713000000000275100000000027530000000002753000000000276010735000000000002464600000000006781421600000000000000009999123100000010000000000000BRVIVAACNOR0107
012024092402VSTE3       010VESTE       ON      NM   R$  000000000130100000000013010000000001270000000000128400000000012780000000001253000000000127900046000000000000010400000000000013356300000000000000009999123100000010000000000000BRVSTEACNOR5103
012024092402GGBR4       010GERDAU      PN      N1   R$  000000000182200000000018650000000001810000000000184400000000018480000000001848000000000184930452000000000016895300000000031165469300000000000000009999123100000010000000000000BRGGBRACNPR8193
012024092402ITUB4       010ITAUUNIBANCOPN  EJ  N1   R$  000000000360500000000036330000000003552000000000358400000000035710000000003571000000000357228687000000000024014400000000086077734100000000000000009999123100000010000000000000BRITUBACNPR1341
012024092402FESA3       010FERBASA     ON      N1   R$  000000000134100000000014050000000001341000000000139300000000014000000000001359000000000141600007000000000000001100000000000001533000000000000000009999123100000010000000000000BRFESAACNOR8189
012024092402BEEF3       010MINERVA     ON      NM   R$  000000000066100000000006710000000000657000000000066300000000006670000000000664000000000066711128000000000005647100000000003747345000000000000000009999123100000010000000000000BRBEEFACNOR6116
012024092402RCSL3       010RECRUSUL    ON           R$  000000000047900000000005070000000000476000000000048700000000005000000000000500000000000050102058000000000001111400000000000541483400000000000000009999123100000010000000000000BRRCSLACNOR4134
012024092402HBOR3       010HELBOR      ON      NM   R$  000000000019000000000001920000000000188000000000018900000000001880000000000188000000000018900292000000000000378200000000000071578700000000000000009999123100000010000000000000BRHBORACNOR3118
012024092402JHSF3       010JHSF PART   ON      NM   R$  000000000041400000000004160000000000409000000000041200000000004100000000000409000000000041102874000000000002855900000000001177650700000000000000009999123100000010000000000000BRJHSFACNOR2139
012024092402ABCB4       010ABC BRASIL  PN      N2   R$  000000000222000000000022400000000002200000000000221300000000022000000000002200000000000221202540000000000000479700000000001061637800000000000000009999123100000010000000000000BRABCBACNPR4146
012024092402BMKS3       010BIC MONARK  ON           R$  000000003109900000000311000000000030510000000003098700000000310000000000030750000000003144900017000000000000000101000000000003129749000000000000009999123100000010000000000000BRBMKSACNOR9166
012024092402DMVF3       010D1000VFARMA ON      NM   R$  000000000065300000000006580000000000615000000000063400000000006580000000000643000000000065800337000000000000064500000000000040949900000000000000009999123100000010000000000000BRDMVFACNOR9100
012024092402DXCO3       010DEXCO       ON      NM   R$  000000000078300000000008140000000000783000000000080300000000008080000000000808000000000080912105000000000004471900000000003594041100000000000000009999123100000010000000000000BRDXCOACNOR8105
012024092402CSAN3       010COSAN       ON      NM   R$  000000000124100000000012780000000001238000000000126600000000012720000000001271000000000127319799000000000009947600000000012597162900000000000000009999123100000010000000000000BRCSANACNOR6126
012024092402DEXP4       010DEXXOS PAR  PN      N1   R$  000000000088000000000008860000000000877000000000088300000000008860000000000880000000000088700007000000000000003700000000000003269400000000000000009999123100000010000000000000BRDEXPACNPR8105
012024092402GOAU3       010GERDAU MET  ON      N1   R$  000000000105500000000010900000000001055000000000108100000000010840000000001078000000000108500194000000000000032300000000000034939000000000000000009999123100000010000000000000BRGOAUACNOR1268
012024092402PATI3       010PANATLANTICAON           R$  000000000259500000000025950000000002502000000000253300000000025020000000002500000000000273900003000000000000000300000000000000760000000000000000009999123100000010000000000000BRPATIACNOR6066
012024092402TCSA3       010TECNISA     ON      NM   R$  000000000019000000000001930000000000187000000000019000000000001930000000000190000000000019300169000000000000066200000000000012580300000000000000009999123100000010000000000000BRTCSAACNOR3112
012024092402TEND3       010TENDA       ON      NM   R$  000000000129900000000013030000000001260000000000127900000000012860000000001278000000000128708471000000000002988900000000003824911200000000000000009999123100000010000000000000BRTENDACNOR4111
012024092402TOTS3       010TOTVS       ON      NM   R$  000000000289600000000029420000000002854000000000290300000000029010000000002901000000000290614280000000000003553700000000010318487500000000000000009999123100000010000000000000BRTOTSACNOR8145
012024092402NEOE3       010NEOENERGIA  ON      NM   R$  000000000196800000000019720000000001943000000000195300000000019510000000001947000000000195503137000000000000597200000000001166524500000000000000009999123100000010000000000000BRNEOEACNOR3123
012024092402BAZA3       010AMAZONIA    ON           R$  000000000923000000000093720000000009207000000000928000000000092070000000009206000000000937000013000000000000001800000000000016705200000000000000009999123100000010000000000000BRBAZAACNOR0179
012024092402SANB4       010SANTANDER BRPN           R$  000000000151800000000015250000000001511000000000151800000000015150000000001510000000000151700394000000000000083800000000000127278900000000000000009999123100000010000000000000BRSANBACNPR5172
012024092402BAHI3       010BAHEMA      ON      MA   R$  000000000065000000000006890000000000645000000000065500000000006770000000000677000000000068700048000000000000010800000000000007084100000000000000009999123100000010000000000000BRBAHIACNOR1074
012024092402CMIG4       010CEMIG       PN  EJ  N1   R$  000000000115000000000011520000000001128000000000113700000000011330000000001133000000000113418033000000000014215400000000016163916800000000000000009999123100000010000000000000BRCMIGACNPR3245
012024092402REDE3       010REDE ENERGIAON           R$  000000000069200000000006920000000000684000000000068800000000006900000000000685000000000069100008000000000000000800000000000000550900000000000000009999123100000010000000000000BRREDEACNOR7128
012024092402B3SA3       010B3          ON      NM   R$  000000000113600000000011420000000001117000000000113200000000011250000000001125000000000112640780000000000084784300000000095980665200000000000000009999123100000010000000000000BRB3SAACNOR6133
012024092402PETR3       010PETROBRAS   ON      N2   R$  000000000407200000000040900000000004030000000000405400000000040500000000004046000000000405122935000000000009218500000000037378328100000000000000009999123100000010000000000000BRPETRACNOR9206
012024092402BBSE3       010BBSEGURIDADEON      NM   R$  000000000353100000000035450000000003505000000000352900000000035420000000003531000000000354214929000000000007704200000000027191890300000000000000009999123100000010000000000000BRBBSEACNOR5125
012024092402SAPR3       010SANEPAR     ON      N2   R$  000000000059000000000005980000000000586000000000059100000000005930000000000589000000000059300455000000000000141800000000000083944300000000000000009999123100000010000000000000BRSAPRACNOR9159
012024092402UNIP5       010UNIPAR      PNA          R$  000000000485000000000049000000000004850000000000487500000000049000000000004820000000000490000033000000000000005900000000000028764200000000000000009999123100000010000000000000BRUNIPACNPA0208
012024092402VIVR3       010VIVER       ON      NM   R$  000000000020000000000002040000000000195000000000019600000000001960000000000196000000000019800136000000000000096600000000000019011600000000000000009999123100000010000000000000BRVIVRACNOR4123
012024092402VTRU3       010VITRUEDUCA  ON      NM   R$  000000000094200000000009810000000000927000000000094800000000009270000000000927000000000093200915000000000000391800000000000371485100000000000000009999123100000010000000000000BRVTRUACNOR3100
012024092402ITSA3       010ITAUSA      ON  EJ  N1   R$  000000000108400000000010990000000001083000000000108800000000010840000000001084000000000108800315000000000000066000000000000071822900000000000000009999123100000010000000000000BRITSAACNOR0443
012024092402PFRM3       010PROFARMA    ON      NM   R$  000000000056300000000005690000000000548000000000055800000000005640000000000557000000000056402311000000000000526500000000000293839600000000000000009999123100000010000000000000BRPFRMACNOR1116
012024092402FESA4       010FERBASA     PN      N1   R$  000000000077300000000008100000000000771000000000079200000000008000000000000799000000000080002865000000000001078100000000000854814000000000000000009999123100000010000000000000BRFESAACNPR5085
012024092402BPAC11      010BTGP BANCO  UNT     N2   R$  000000000329700000000033160000000003238000000000327500000000032700000000003268000000000327226675000000000008089000000000026499119800000000000000009999123100000010000000000000BRBPACUNT006119
012024092402RCSL4       010RECRUSUL    PN           R$  000000000009900000000001010000000000098000000000009900000000001000000000000099000000000010000342000000000000422600000000000042234600000000000000009999123100000010000000000000BRRCSLACNPR1134
012024092402TAEE11      010TAESA       UNT     N2   R$  000000000344000000000034670000000003416000000000343700000000034160000000003416000000000343105302000000000001560100000000005362765400000000000000009999123100000010000000000000BRTAEECDAM10148
012024092402KEPL3       010KEPLER WEBERON      NM   R$  000000000102100000000010210000000000997000000000100800000000010110000000001011000000000101402871000000000000925300000000000933160400000000000000009999123100000010000000000000BRKEPLACNOR1064
012024092402MATD3       010MATER DEI   ON      NM   R$  000000000045800000000004600000000000445000000000045000000000004470000000000446000000000045101125000000000000584500000000000263240700000000000000009999123100000010000000000000BRMATDACNOR4104
012024092402MEAL3       010IMC S/A     ON      NM   R$  000000000013200000000001370000000000131000000000013300000000001370000000000135000000000013700981000000000000480400000000000064030400000000000000009999123100000010000000000000BRMEALACNOR9105
012024092402LOGG3       010LOG COM PROPON      NM   R$  000000000220000000000022350000000002200000000000221600000000022180000000002200000000000221802276000000000000338300000000000749959300000000000000009999123100000010000000000000BRLOGGACNOR7107
012024092402ANIM3       010ANIMA       ON      NM   R$  000000000026700000000002670000000000242000000000024800000000002450000000000244000000000024509517000000000021401000000000005311149700000000000000009999123100000010000000000000BRANIMACNOR6109
012024092402BRSR3       010BANRISUL    ON  EJ  N1   R$  000000000127900000000013080000000001251000000000127400000000012600000000001260000000000129300114000000000000016700000000000021278500000000000000009999123100000010000000000000BRBRSRACNOR3189
012024092402ELMD3       010ELETROMIDIA ON      NM   R$  000000000174600000000017500000000001704000000000172300000000017280000000001719000000000172800430000000000000082100000000000141531300000000000000009999123100000010000000000000BRELMDACNOR3101
012024092402AESB3       010AES BRASIL  ON      NM   R$  000000000116800000000011680000000001163000000000116400000000011660000000001165000000000116602084000000000002544600000000002964047700000000000000009999123100000010000000000000BRAESBACNOR7107
012024092402ALOS3       010ALLOS       ON      NM   R$  000000000223100000000022510000000002204000000000222600000000022250000000002218000000000222508119000000000002301900000000005126120200000000000000009999123100000010000000000000BRALOSACNOR5101
012024092402ALUP11      010ALUPAR      UNT     N2   R$  000000000311500000000031150000000003064000000000307900000000030750000000003070000000000307802583000000000000476300000000001466658700000000000000009999123100000010000000000000BRALUPCDAM15120
012024092402AMBP3       010AMBIPAR     ON      NM   R$  000000000806800000000094440000000008068000000000879500000000092970000000009297000000000929903331000000000001089000000000009578303500000000000000009999123100000010000000000000BRAMBPACNOR6103
012024092402BRIT3       010BRISANET    ON      NM   R$  000000000030600000000003110000000000301000000000030300000000003010000000000300000000000030500437000000000000407200000000000123545200000000000000009999123100000010000000000000BRBRITACNOR0103
012024092402ECOR3       010ECORODOVIAS ON      NM   R$  000000000072700000000007340000000000715000000000072300000000007280000000000725000000000072803291000000000001837700000000001330113800000000000000009999123100000010000000000000BRECORACNOR8120
012024092402GUAR3       010GUARARAPES  ON      NM   R$  000000000082700000000008350000000000796000000000080800000000008050000000000801000000000080701822000000000000668300000000000540001400000000000000009999123100000010000000000000BRGUARACNOR4173
012024092402JALL3       010JALLESMACHADON      NM   R$  000000000067500000000006800000000000663000000000067300000000006740000000000674000000000067801560000000000000871800000000000587436300000000000000009999123100000010000000000000BRJALLACNOR0106
012024092402WHRL4       010WHIRLPOOL   PN  ED       R$  000000000045800000000004680000000000458000000000046200000000004650000000000460000000000046500030000000000000009000000000000004164400000000000000009999123100000010000000000000BRWHRLACNPR2129
012024092402BIOM3       010BIOMM       ON      MA   R$  000000000098800000000009950000000000970000000000098600000000009900000000000977000000000099200120000000000000029600000000000029195000000000000000009999123100000010000000000000BRBIOMACNOR2112
012024092402RAIZ4       010RAIZEN      PN      N2   R$  000000000030800000000003150000000000307000000000031100000000003100000000000309000000000031012216000000000016486900000000005137077800000000000000009999123100000010000000000000BRRAIZACNPR6111
012024092402COCE5       010COELCE      PNA          R$  000000000286200000000029000000000002822000000000285100000000028400000000002822000000000286900040000000000000004300000000000012260000000000000000009999123100000010000000000000BRCOCEACNPA3147
012024092402CURY3       010CURY S/A    ON      NM   R$  000000000236400000000023830000000002330000000000235500000000023450000000002344000000000234511596000000000003732700000000008792741400000000000000009999123100000010000000000000BRCURYACNOR3109
012024092402USIM5       010USIMINAS    PNA     N1   R$  000000000057800000000006040000000000572000000000059200000000006030000000000602000000000060317275000000000031398400000000018604769700000000000000009999123100000010000000000000BRUSIMACNPA6169
012024092402PINE3       010PINE        ON      N2   R$  000000000047700000000004820000000000477000000000047900000000004820000000000476000000000052500002000000000000000200000000000000095900000000000000009999123100000010000000000000BRPINEACNOR1150
012024092402PNVL3       010DIMED       ON      NM   R$  000000000101100000000010180000000000990000000000099900000000009960000000000996000000000099801753000000000000334600000000000334545600000000000000009999123100000010000000000000BRPNVLACNOR9207
012024092402MTSA4       010METISA      PN  EJ       R$  000000000401600000000041370000000003900000000000394400000000039000000000003890000000000393000036000000000000004900000000000019329600000000000000009999123100000010000000000000BRMTSAACNPR9073
012024092402POSI3       010POSITIVO TECON      NM   R$  000000000056500000000005760000000000559000000000056500000000005650000000000565000000000056702945000000000001226800000000000694279000000000000000009999123100000010000000000000BRPOSIACNOR9116
012024092402PTNT3       010PETTENATI   ON           R$  000000000119400000000011940000000001194000000000119400000000011940000000000955000000000117800001000000000000000100000000000000119400000000000000009999123100000010000000000000BRPTNTACNOR6042
012024092402RSUL4       010RIOSULENSE  PN           R$  000000000620000000000063940000000006013000000000605500000000060430000000006011000000000625900045000000000000004800000000000029066700000000000000009999123100000010000000000000BRRSULACNPR3114
012024092402TUPY3       010TUPY        ON      NM   R$  000000000261700000000026310000000002568000000000258600000000025680000000002568000000000257002700000000000000389100000000001006484400000000000000009999123100000010000000000000BRTUPYACNOR1184
012024092402VBBR3       010VIBRA       ON  EJ  NM   R$  000000000237300000000024300000000002357000000000240100000000024200000000002418000000000242219702000000000006331300000000015204043500000000000000009999123100000010000000000000BRVBBRACNOR1109
012024092402ODPV3       010ODONTOPREV  ON      NM   R$  000000000115000000000011500000000001123000000000113400000000011230000000001122000000000113302278000000000000475900000000000539961700000000000000009999123100000010000000000000BRODPVACNOR4203
012024092402ORVR3       010ORIZON      ON      NM   R$  000000000497900000000049800000000004885000000000491800000000049010000000004901000000000493603131000000000000468400000000002304018300000000000000009999123100000010000000000000BRORVRACNOR0101
012024092402SRNA3       010SERENA      ON      NM   R$  000000000084600000000008580000000000835000000000084700000000008440000000000843000000000084504123000000000001853700000000001570913500000000000000009999123100000010000000000000BRSRNAACNOR4100
012024092402MNPR3       010MINUPAR     ON           R$  000000000164100000000017980000000001630000000000174800000000017700000000001650000000000177000018000000000000003300000000000005770100000000000000009999123100000010000000000000BRMNPRACNOR5122
012024092402SLCE3       010SLC AGRICOLAON      NM   R$  000000000171700000000017420000000001714000000000172400000000017260000000001725000000000172606141000000000002096400000000003615525600000000000000009999123100000010000000000000BRSLCEACNOR2125
012024092402SEER3       010SER EDUCA   ON      NM   R$  000000000061500000000006300000000000615000000000062200000000006160000000000616000000000062000935000000000000304900000000000189717800000000000000009999123100000010000000000000BRSEERACNOR5119
012024092402CSED3       010CRUZEIRO EDUON      NM   R$  000000000033000000000003410000000000324000000000033400000000003380000000000333000000000033800691000000000000401500000000000134284900000000000000009999123100000010000000000000BRCSEDACNOR9105
012024092402EQMA3B      010EQTLMARANHAOON      MB   R$  000000000225000000000023390000000002225000000000225000000000022510000000002251000000000226500076000000000000454200000000001021993500000000000000009999123100000010000000000000BREQMAACNOR8108
012024092402BGIP3       010BANESE      ON           R$  000000000263900000000026800000000002639000000000266600000000026800000000002680000000000000000003000000000000000300000000000000799900000000000000009999123100000010000000000000BRBGIPACNOR1210
012024092402ETER3       010ETERNIT     ON      NM   R$  000000000057800000000005830000000000565000000000057100000000005720000000000571000000000057200523000000000000207700000000000118679500000000000000009999123100000010000000000000BRETERACNOR3244
012024092402BHIA3       010CASAS BAHIA ON      NM   R$  000000000053800000000005480000000000529000000000053700000000005380000000000533000000000053801821000000000001852500000000000994881700000000000000009999123100000010000000000000BRBHIAACNOR1102
012024092402CPFE3       010CPFL ENERGIAON      NM   R$  000000000335000000000033530000000003286000000000331500000000033240000000003320000000000332406546000000000001660600000000005505813100000000000000009999123100000010000000000000BRCPFEACNOR0137
012024092402AZEV3       010AZEVEDO     ON           R$  000000000012000000000001230000000000118000000000011900000000001200000000000119000000000012000378000000000000496000000000000059484800000000000000009999123100000010000000000000BRAZEVACNOR0121
012024092402CPLE6       010COPEL       PNB     N2   R$  000000000103800000000010430000000001023000000000103100000000010280000000001028000000000103015578000000000009256400000000009546045000000000000000009999123100000010000000000000BRCPLEACNPB9146
012024092402CAMB3       010CAMBUCI     ON           R$  000000000123000000000012330000000001199000000000121800000000012330000000001222000000000123300277000000000000058600000000000071396000000000000000009999123100000010000000000000BRCAMBACNOR4131
012024092402FRIO3       010METALFRIO   ON      NM   R$  000000001550000000000179000000000015500000000001694400000000174990000000015700000000001750000020000000000000002000000000000033888700000000000000009999123100000010000000000000BRFRIOACNOR2111
012024092402CEAB3       010CEA MODAS   ON      NM   R$  000000000103800000000010490000000001013000000000103000000000010350000000001026000000000103503994000000000001652000000000001702312900000000000000009999123100000010000000000000BRCEABACNOR1102
012024092402CEDO4       010CEDRO       PN      N1   R$  000000000240100000000024010000000002390000000000239800000000023900000000002390000000000246000004000000000000000600000000000001439100000000000000009999123100000010000000000000BRCEDOACNPR5128
012024092402ENGI3       010ENERGISA    ON      N2   R$  000000000141900000000014190000000001356000000000138000000000013610000000001361000000000140900026000000000000003300000000000004556100000000000000009999123100000010000000000000BRENGIACNOR0146
012024092402IGTI11      010IGUATEMI S.AUNT     N1   R$  000000000213500000000021620000000002111000000000212600000000021310000000002130000000000213210652000000000004064800000000008642069100000000000000009999123100000010000000000000BRIGTICDAM16106
012024092402INEP4       010INEPAR      PN           R$  000000000018600000000001950000000000186000000000018800000000001860000000000186000000000018800131000000000000028700000000000005414900000000000000009999123100000010000000000000BRINEPACNPR8143
012024092402LAND3       010TERRASANTAPAON      NM   R$  000000000131500000000013500000000001287000000000130600000000012870000000001286000000000131000188000000000000033800000000000044146100000000000000009999123100000010000000000000BRLANDACNOR9103
012024092407NUTR3       010NUTRIPLANT  ON      MA   R$  000000000046400000000004700000000000454000000000046500000000004700000000000456000000000047400018000000000000002600000000000001210900000000000000009999123100000010000000000000BRNUTRACNOR0104
012024092408AGXY3       010AGROGALAXY  ON      NM   R$  000000000006800000000000680000000000064000000000006500000000000640000000000064000000000006500404000000000000424800000000000027627800000000000000009999123100000010000000000000BRAGXYACNOR4103
012024092408RNEW11      010RENOVA      UNT     N2   R$  000000000028400000000002890000000000284000000000028500000000002890000000000285000000000028800007000000000000000700000000000000199900000000000000009999123100000010000000000000BRRNEWCDAM15110
012024092408RSID3       010ROSSI RESID ON      NM   R$  000000000031200000000003170000000000309000000000031100000000003100000000000310000000000031500066000000000000010000000000000003114500000000000000009999123100000010000000000000BRRSIDACNOR8120
012024092408ATMP3       010ATMASA      ON           R$  000000000014200000000001500000000000142000000000014800000000001500000000000145000000000015000013000000000000010600000000000001568800000000000000009999123100000010000000000000BRATMPACNOR8100
012024092410EQTL9       010EQUATORIAL  ON  REC NM   R$  000000000321900000000032190000000003219000000000321900000000032190000000003219000000000365500009000000000000015600000000000050216400000000000000009999123100000010000000000000BREQTLR04OR9130
012024092412HCHG11      010FII HECT CRICI           R$  000000000689900000000069000000000006899000000000689900000000069000000000006721000000000690000014000000000000000091000000000000627898000000000000009999123100000010000000000000BRHCHGCTF001140
012024092412HGBL11      010FII HGBL    CI           R$  000000000102400000000010300000000001001000000000102000000000010170000000001010000000000101700344000000000000006041000000000006167612000000000000009999123100000010000000000000BRHGBLCTF005108
012024092412HGIC11      010FII HGI CRI CI           R$  000000000968100000000096810000000009679000000000967900000000096790000000009091000000000968000006000000000000000013000000000000125836000000000000009999123100000010000000000000BRHGICCTF009143
012024092412HGRU11      010FII HGRU PAXCI           R$  000000001223800000000122950000000012144000000001220500000000122000000000012198000000001220005915000000000000038371000000000468336183000000000000009999123100000010000000000000BRHGRUCTF002180
012024092402TAEE3       010TAESA       ON      N2   R$  000000000114500000000011520000000001135000000000114500000000011410000000001141000000000114500468000000000000075300000000000086232400000000000000009999123100000010000000000000BRTAEEACNOR9148
012024092402KLBN11      010KLABIN S/A  UNT     N2   R$  000000000209400000000021150000000002082000000000210100000000021050000000002103000000000210513003000000000003852700000000008097567400000000000000009999123100000010000000000000BRKLBNCDAM18143
012024092402MBLY3       010MOBLY       ON      NM   R$  000000000024700000000002590000000000247000000000025400000000002590000000000257000000000025900493000000000000361800000000000092113900000000000000009999123100000010000000000000BRMBLYACNOR5100
012024092402MELK3       010MELNICK     ON      NM   R$  000000000034300000000003490000000000339000000000034300000000003400000000000340000000000034200545000000000000538300000000000184985000000000000000009999123100000010000000000000BRMELKACNOR8111
012024092402LOGN3       010LOG-IN      ON      NM   R$  000000000351600000000035560000000003506000000000353500000000035060000000003505000000000355600019000000000000002400000000000008485000000000000000009999123100000010000000000000BRLOGNACNOR3105
012024092402ARML3       010ARMAC       ON      NM   R$  000000000090400000000009240000000000880000000000089000000000008800000000000879000000000088003063000000000000573200000000000510643100000000000000009999123100000010000000000000BRARMLACNOR1112
012024092402BRSR6       010BANRISUL    PNB EJ  N1   R$  000000000116500000000011760000000001151000000000116000000000011570000000001155000000000116003252000000000001031200000000001196635100000000000000009999123100000010000000000000BRBRSRACNPB4192
012024092402EMAE4       010EMAE        PN  EJ       R$  000000000448300000000044970000000004100000000000418000000000041830000000004134000000000418300063000000000000009500000000000039714300000000000000009999123100000010000000000000BREMAEACNPR1126
012024092402AGRO3       010BRASILAGRO  ON      NM   R$  000000000259000000000025960000000002547000000000256800000000025740000000002560000000000257401491000000000000288400000000000740881500000000000000009999123100000010000000000000BRAGROACNOR7114
012024092402ALPA3       010ALPARGATAS  ON      N1   R$  000000000071700000000007200000000000705000000000071200000000007050000000000705000000000072800012000000000000002800000000000001996100000000000000009999123100000010000000000000BRALPAACNOR0231
012024092402ALUP3       010ALUPAR      ON      N2   R$  000000000103900000000010500000000001033000000000104100000000010460000000001040000000000107000032000000000000004600000000000004792300000000000000009999123100000010000000000000BRALUPACNOR8120
012024092402BBDC3       010BRADESCO    ON      N1   R$  000000000130100000000013080000000001282000000000129200000000012870000000001287000000000128808864000000000007796800000000010076075400000000000000009999123100000010000000000000BRBBDCACNOR1774
012024092402BRKM3       010BRASKEM     ON      N1   R$  000000000192100000000019670000000001921000000000194300000000019320000000001931000000000195100063000000000000011000000000000021380000000000000000009999123100000010000000000000BRBRKMACNOR1119
012024092402EGIE3       010ENGIE BRASILON      NM   R$  000000000434600000000043900000000004326000000000435400000000043600000000004356000000000436003922000000000000713500000000003107269800000000000000009999123100000010000000000000BREGIEACNOR9127
012024092402HAGA3       010HAGA S/A    ON           R$  000000000025100000000002710000000000249000000000026100000000002530000000000253000000000025800094000000000000025700000000000006717600000000000000009999123100000010000000000000BRHAGAACNOR7103
012024092402JBSS3       010JBS         ON      NM   R$  000000000323000000000032500000000003169000000000319700000000032020000000003185000000000320227889000000000008217900000000026279924700000000000000009999123100000010000000000000BRJBSSACNOR8122
012024092402WIZC3       010WIZ CO      ON      NM   R$  000000000057900000000005840000000000570000000000057800000000005840000000000582000000000058401048000000000000333800000000000193035800000000000000009999123100000010000000000000BRWIZCACNOR5102
012024092402BLAU3       010BLAU        ON      NM   R$  000000000134300000000013700000000001334000000000135000000000013440000000001343000000000134400992000000000000183600000000000247866700000000000000009999123100000010000000000000BRBLAUACNOR8114
012024092402RANI3       010IRANI       ON      NM   R$  000000000075300000000007610000000000751000000000075600000000007520000000000752000000000075403009000000000000845900000000000640274300000000000000009999123100000010000000000000BRRANIACNOR5073
012024092402COGN3       010COGNA ON    ON      NM   R$  000000000013200000000001330000000000129000000000013100000000001320000000000131000000000013211449000000000027833000000000003657272200000000000000009999123100000010000000000000BRCOGNACNOR2105
012024092402CVCB3       010CVC BRASIL  ON      NM   R$  000000000019100000000001950000000000186000000000018900000000001860000000000186000000000018705582000000000011277600000000002137422000000000000000009999123100000010000000000000BRCVCBACNOR1116
012024092402QUAL3       010QUALICORP   ON      NM   R$  000000000018100000000001960000000000180000000000018900000000001920000000000192000000000019304512000000000005782000000000001095392900000000000000009999123100000010000000000000BRQUALACNOR6120
012024092402PINE4       010PINE        PN      N2   R$  000000000048000000000004860000000000474000000000047900000000004750000000000475000000000048000332000000000000133100000000000063768300000000000000009999123100000010000000000000BRPINEACNPR8150
012024092402POMO3       010MARCOPOLO   ON      N2   R$  000000000061000000000006140000000000593000000000060200000000005930000000000593000000000060000538000000000000289600000000000174494500000000000000009999123100000010000000000000BRPOMOACNOR0099
012024092402MULT3       010MULTIPLAN   ON      N2   R$  000000000262400000000026560000000002599000000000262400000000026280000000002620000000000262915151000000000003714000000000009746140300000000000000009999123100000010000000000000BRMULTACNOR5139
012024092402PRIO3       010PETRORIO    ON      NM   R$  000000000455200000000046610000000004531000000000460500000000046540000000004653000000000465433568000000000016508700000000076025208800000000000000009999123100000010000000000000BRPRIOACNOR1107
012024092402PTNT4       010PETTENATI   PN           R$  000000000070800000000007140000000000700000000000070800000000007110000000000703000000000071200018000000000000007300000000000005170700000000000000009999123100000010000000000000BRPTNTACNPR3047
012024092402TRPL3       010TRAN PAULISTON      N1   R$  000000000313700000000031400000000003116000000000312900000000031170000000003116000000000312800023000000000000003500000000000010952300000000000000009999123100000010000000000000BRTRPLACNOR4185
012024092402UCAS3       010UNICASA     ON      NM   R$  000000000021800000000002200000000000216000000000021800000000002200000000000219000000000022000071000000000000017300000000000003777700000000000000009999123100000010000000000000BRUCASACNOR1113
012024092402LUPA3       010LUPATECH    ON      NM   R$  000000000014000000000001420000000000140000000000014000000000001420000000000141000000000014200052000000000000059400000000000008339200000000000000009999123100000010000000000000BRLUPAACNOR8112
012024092402OFSA3       010OUROFINO S/AON      NM   R$  000000000214100000000021420000000002061000000000209200000000020610000000002061000000000215000007000000000000001100000000000002301500000000000000009999123100000010000000000000BROFSAACNOR7118
012024092412HPDP11      010FII HEDGEPDPCI           R$  000000000887600000000088760000000008869000000000887000000000088700000000008791000000000887000005000000000000000007000000000000062091000000000000009999123100000010000000000000BRHPDPCTF003155
012024092412HSLG11      010FII HSI LOG CI           R$  000000000849700000000085000000000008361000000000841900000000084190000000008398000000000841902119000000000000008668000000000072978371000000000000009999123100000010000000000000BRHSLGCTF009145
012024092412HUSC11      010FII H UNIMEDCI           R$  000000001117900000000111800000000011179000000001117900000000111800000000010854000000001118000003000000000000000005000000000000055899000000000000009999123100000010000000000000BRHUSCCTF009155
012024092412BMLC11      010FII BMBRC LCCI           R$  000000001005000000000100700000000010050000000001005500000000100700000000009725000000001007100004000000000000000273000000000002745070000000000000009999123100000010000000000000BRBMLCCTF004254
012024092412DPRO11      010FII DEVA PROCI           R$  000000000064700000000006470000000000638000000000063800000000006380000000000630000000000067000008000000000000000452000000000000288530000000000000009999123100000010000000000000BRDPROCTF005127
012024092412DAMT11      010FII DIAMANTECI           R$  000000000099200000000009920000000000980000000000098200000000009800000000000980000000000120000004000000000000000012000000000000011784000000000000009999123100000010000000000000BRDAMTCTF007117
012024092412PATL11      010FII PATLOGISCI           R$  000000000600900000000060140000000005951000000000597700000000059520000000005951000000000597801188000000000000006486000000000038767640000000000000009999123100000010000000000000BRPATLCTF003149
012024092412TMPS11      010FII ITAU TEMCI           R$  000000000928900000000092890000000009105000000000916500000000091190000000009110000000000912000022000000000000000908000000000008322621000000000000009999123100000010000000000000BRTMPSCTF003117
012024092412NCHB11      010FII NCH BR  CI           R$  000000000090200000000009090000000000900000000000090300000000009040000000000901000000000090400254000000000000020554000000000018567528000000000000009999123100000010000000000000BRNCHBCTF000233
012024092412NSLU11      010FII LOURDES CI           R$  000000001782700000000178880000000017551000000001771300000000177540000000017523000000001775400069000000000000000593000000000010503894000000000000009999123100000010000000000000BRNSLUCTF008314
012024092412RECR11      010FII REC RECECI           R$  000000000817500000000082490000000008175000000000820800000000082020000000008201000000000820203851000000000000030006000000000246295298000000000000009999123100000010000000000000BRRECRCTF004154
012024092412GARE11      010FII GUARDIANCI           R$  000000000090700000000009120000000000902000000000090500000000009020000000000902000000000090522326000000000000944428000000000855533848000000000000009999123100000010000000000000BRGARECTF001107
012024092412BCIA11      010FII BCIA    CI           R$  000000000942400000000094480000000009275000000000941200000000094270000000009427000000000942801993000000000000013125000000000123543534000000000000009999123100000010000000000000BRBCIACTF005213
012024092412ITIP11      010FII INTER IPCI           R$  000000000720700000000073270000000007203000000000723000000000072210000000007221000000000723400651000000000000001257000000000009088712000000000000009999123100000010000000000000BRITIPCTF002132
012024092412BBIG11      010FII BBIG    CI           R$  000000000093000000000009360000000000930000000000093000000000009310000000000930000000000093103113000000000000114502000000000106549102000000000000009999123100000010000000000000BRBBIGCTF004104
012024092412SARE11      010FII SANT RENCI           R$  000000000391000000000040080000000003910000000000398000000000039910000000003991000000000400701933000000000000049605000000000197476234000000000000009999123100000010000000000000BRSARECTF006159
012024092412VILG11      010FII VINCI LGCI           R$  000000000850000000000085700000000008440000000000849700000000084400000000008440000000000846005068000000000000018870000000000160354897000000000000009999123100000010000000000000BRVILGCTF001174
012024092412VOTS11      010FII V MASTERCI           R$  000000000774800000000077480000000007603000000000768900000000076030000000007602000000000774800014000000000000000022000000000000169179000000000000009999123100000010000000000000BRVOTSCTF007173
012024092412VSLH11      010FII VERS CRICI           R$  000000000034800000000003510000000000348000000000034900000000003510000000000350000000000035100946000000000000044714000000000015626531000000000000009999123100000010000000000000BRVSLHCTF008146
012024092412VVMR11      010FII MULT RENCI           R$  000000000869200000000087510000000008679000000000871900000000087510000000008653000000000875100004000000000000000016000000000000139507000000000000009999123100000010000000000000BRVVMRCTF009108
012024092412FIGS11      010FII GEN SHOPCI           R$  000000000522000000000052820000000005200000000000522400000000052700000000005219000000000526900172000000000000004774000000000024943762000000000000009999123100000010000000000000BRFIGSCTF009231
012024092412FLCR11      010FII FL RECEBCI           R$  000000000983000000000098300000000009789000000000981600000000097890000000009789000000000980900049000000000000000476000000000004672462000000000000009999123100000010000000000000BRFLCRCTF004145
012024092412RBRP11      010FII RBR PROPCI           R$  000000000544100000000055350000000005413000000000546500000000054500000000005450000000000545502653000000000000016346000000000089335217000000000000009999123100000010000000000000BRRBRPCTF002176
012024092412RBRY11      010FII RBR PCRICI           R$  000000000965700000000097070000000009560000000000962800000000096030000000009603000000000963505322000000000000034737000000000334454075000000000000009999123100000010000000000000BRRBRYCTF004171
012024092412RCFA11      010FII GP RCFA CI           R$  000000000010700000000001100000000000100000000000010100000000001060000000000102000000000010600013000000000000000161000000000000016372000000000000009999123100000010000000000000BRRCFACTF007101
012024092412JSCR11      010FII JSCR    CI           R$  000000000927900000000094190000000008801000000000921500000000092600000000008811000000000939900055000000000000003405000000000031379701000000000000009999123100000010000000000000BRJSCRCTF001102
012024092412KFOF11      010FII KINEAFOFCI           R$  000000000835000000000084210000000008348000000000839000000000084200000000008401000000000842100783000000000000016765000000000140673418000000000000009999123100000010000000000000BRKFOFCTF006172
012024092412KNHF11      010FII KINEA HFCI           R$  000000000949000000000095770000000009450000000000951100000000095000000000009500000000000950402316000000000000062764000000000596975325000000000000009999123100000010000000000000BRKNHFCTF004114
012024092412MALL11      010FII MALLS BPCI           R$  000000001025500000000103000000000010226000000001026800000000102850000000010265000000001028502560000000000000016509000000000169524902000000000000009999123100000010000000000000BRMALLCTF007184
012024092412MCEM11      010FII MCEM    CI           R$  000000001090000000000110000000000010900000000001092000000000110000000000010900000000001100000003000000000000000005000000000000054600000000000000009999123100000010000000000000BRMCEMCTF006100
012024092412MFII11      010FII MERITO ICI           R$  000000001016900000000101700000000010114000000001014200000000101300000000010128000000001013000552000000000000013629000000000138235374000000000000009999123100000010000000000000BRMFIICTF008238
012024092402SMTO3       010SAO MARTINHOON      NM   R$  000000000269700000000027500000000002697000000000272400000000027140000000002711000000000271506219000000000001409000000000003839380400000000000000009999123100000010000000000000BRSMTOACNOR3127
012024092402STBP3       010SANTOS BRP  ON      NM   R$  000000000147900000000014890000000001462000000000147400000000014860000000001477000000000148616844000000000009373300000000013825388000000000000000009999123100000010000000000000BRSTBPACNOR3131
012024092402MOVI3       010MOVIDA      ON      NM   R$  000000000067000000000006750000000000643000000000064900000000006440000000000643000000000064404880000000000003731100000000002423975300000000000000009999123100000010000000000000BRMOVIACNOR0122
012024092402ZAMP3       010ZAMP S.A.   ON           R$  000000000025300000000002620000000000246000000000025100000000002460000000000246000000000024702055000000000000829100000000000208729100000000000000009999123100000010000000000000BRZAMPACNOR5101
012024092402SEQL3       010SEQUOIA LOG ON      NM   R$  000000000045500000000004650000000000423000000000044200000000004260000000000425000000000042601173000000000000665900000000000294820200000000000000009999123100000010000000000000BRSEQLACNOR2103
012024092402CSMG3       010COPASA      ON  EDJ NM   R$  000000000247500000000024800000000002415000000000243700000000024260000000002425000000000242905743000000000001489300000000003629470800000000000000009999123100000010000000000000BRCSMGACNOR5175
012024092402EQPA3       010EQTL PARA   ON           R$  000000000060200000000006080000000000602000000000060600000000006050000000000605000000000060800015000000000000002400000000000001454500000000000000009999123100000010000000000000BREQPAACNOR1111
012024092402BGIP4       010BANESE      PN           R$  000000000245000000000024800000000002438000000000245700000000024380000000002436000000000248000006000000000000001000000000000002457600000000000000009999123100000010000000000000BRBGIPACNPR8210
012024092402EUCA3       010EUCATEX     ON      N1   R$  000000000170900000000017090000000001709000000000170900000000017090000000001572000000000173800001000000000000000100000000000000170900000000000000009999123100000010000000000000BREUCAACNOR1157
012024092402BPAN4       010BANCO PAN   PN      N1   R$  000000000103600000000010680000000001026000000000104800000000010530000000001046000000000105305367000000000002122000000000002225791000000000000000009999123100000010000000000000BRBPANACNPR1115
012024092402ATOM3       010ATOMPAR     ON           R$  000000000023200000000002450000000000222000000000023700000000002330000000000232000000000024600081000000000000046900000000000011118400000000000000009999123100000010000000000000BRATOMACNOR1106
012024092402AZEV4       010AZEVEDO     PN           R$  000000000012000000000001230000000000119000000000012000000000001200000000000120000000000012100828000000000001540300000000000185598000000000000000009999123100000010000000000000BRAZEVACNPR7121
012024092402CXSE3       010CAIXA SEGURION      NM   R$  000000000145000000000014570000000001433000000000144300000000014450000000001445000000000144611950000000000003877600000000005597068100000000000000009999123100000010000000000000BRCXSEACNOR7107
012024092402CAML3       010CAMIL       ON      NM   R$  000000000089500000000009100000000000883000000000090100000000009080000000000903000000000090802146000000000000478300000000000431298000000000000000009999123100000010000000000000BRCAMLACNOR3129
012024092402CBAV3       010CBA         ON      NM   R$  000000000050000000000005400000000000494000000000051900000000005380000000000536000000000053809748000000000009214000000000004788929100000000000000009999123100000010000000000000BRCBAVACNOR5104
012024092402CEBR3       010CEB         ON           R$  000000000194800000000019630000000001900000000000192600000000019500000000001896000000000196000052000000000000007500000000000014451200000000000000009999123100000010000000000000BRCEBRACNOR5125
012024092402CEEB3       010COELBA      ON           R$  000000000377700000000038800000000003777000000000379800000000037780000000003777000000000390600005000000000000000500000000000001899000000000000000009999123100000010000000000000BRCEEBACNOR3199
012024092402ENGI4       010ENERGISA    PN      N2   R$  000000000079000000000008100000000000783000000000079000000000007930000000000792000000000080900039000000000000006200000000000004901700000000000000009999123100000010000000000000BRENGIACNPR7142
012024092402IGTI3       010IGUATEMI S.AON      N1   R$  000000000026700000000002680000000000262000000000026400000000002670000000000263000000000026700050000000000000022400000000000005926000000000000000009999123100000010000000000000BRIGTIACNOR8106
012024092402INTB3       010INTELBRAS   ON      NM   R$  000000000211100000000021580000000002098000000000212300000000021300000000002119000000000213003798000000000001888300000000004010101500000000000000009999123100000010000000000000BRINTBACNOR9112
012024092402LAVV3       010LAVVI       ON      NM   R$  000000000082200000000008290000000000808000000000081500000000008180000000000815000000000081802195000000000000627400000000000511461200000000000000009999123100000010000000000000BRLAVVACNOR4113
012024092408JFEN3       010JOAO FORTES ON           R$  000000000002800000000000290000000000026000000000002700000000000280000000000027000000000002800459000000000002700700000000000074790700000000000000009999123100000010000000000000BRJFENACNOR0059
012024092408CTSA3       010SANTANENSE  ON           R$  000000000026500000000002650000000000263000000000026300000000002630000000000264000000000026800004000000000000001000000000000000263800000000000000009999123100000010000000000000BRCTSAACNOR3062
012024092408RNEW3       010RENOVA      ON      N2   R$  000000000009600000000000960000000000094000000000009500000000000950000000000095000000000009600065000000000000076000000000000007287500000000000000009999123100000010000000000000BRRNEWACNOR8110
012024092408OIBR3       010OI          ON      N1   R$  000000000052200000000005300000000000515000000000052300000000005300000000000526000000000053000814000000000000808300000000000423285400000000000000009999123100000010000000000000BROIBRACNOR1112
012024092408LIGT3       010LIGHT S/A   ON      NM   R$  000000000078300000000007850000000000716000000000073100000000007220000000000721000000000072203024000000000000922700000000000675129300000000000000009999123100000010000000000000BRLIGTACNOR2124
012024092410BGIP2       010BANESE      DIR PRE      R$  000000000027300000000002730000000000273000000000027300000000002730000000000200000000000035000003000000000000000300000000000000081900000000000000009999123100000010000000000000BRBGIPD08PR8209
012024092412HCRI11      010FII CRIANCA CI  ER       R$  000000002769900000000277210000000027500000000002765200000000275060000000027505000000002760000020000000000000000077000000000002129206000000000000009999123100000010000000000000BRHCRICTF006332
012024092412HGBS11      010FII HEDGEBS CI           R$  000000002045500000000204960000000020321000000002037400000000203210000000020322000000002033006277000000000000020849000000000424794053000000000000009999123100000010000000000000BRHGBSCTF000313
012024092412HGLG11      010FII HGLG PAXCI           R$  000000001581500000000158820000000015808000000001583800000000158250000000015824000000001582507996000000000000039919000000000632276580000000000000009999123100000010000000000000BRHGLGCTF004274
012024092412HLOG11      010FII HEDGELOGCI           R$  000000000839000000000084990000000008390000000000839500000000084410000000008441000000000845000076000000000000011035000000000092645534000000000000009999123100000010000000000000BRHLOGCTF008159
012024092412AROA11      010FII AROA    CI           R$  000000000009900000000001000000000000097000000000009800000000001000000000000099000000000010000117000000000000002802000000000000277382000000000000009999123100000010000000000000BRAROACTF003121
012024092412BROF11      010FII BROF    CI  ER       R$  000000000474000000000047700000000004660000000000469800000000047350000000004721000000000476600547000000000000037915000000000178125160000000000000009999123100000010000000000000BRBROFCTF000117
012024092412BTLG11      010FII BTLG    CI  ER       R$  000000000990000000000099000000000009785000000000984800000000097850000000009782000000000978518721000000000000121965000000001201158046000000000000009999123100000010000000000000BRBTLGCTF000166
012024092412AFHI11      010FII AFHI CRICI  ER       R$  000000000967900000000096880000000009664000000000967100000000096740000000009664000000000967400963000000000000013382000000000129426446000000000000009999123100000010000000000000BRAFHICTF005146
012024092412ALZC11      010FII ALIANZACCI  ER       R$  000000000940000000000102000000000009103000000000945100000000091280000000009128000000000940000012000000000000002720000000000025707489000000000000009999123100000010000000000000BRALZCCTF016107
012024092412BRIP11      010FII BRIO IIICI           R$  000000009740000000000974000000000095000000000009604400000000969000000000092001000000009690000006000000000000000027000000000002593200000000000000009999123100000010000000000000BRBRIPCTF001116
012024092412GTWR11      010FII G TOWERSCI           R$  000000000807000000000080700000000008000000000000801800000000080000000000008000000000000800101700000000000000013220000000000105998459000000000000009999123100000010000000000000BRGTWRCTF003166
012024092412WHGR11      010FII WHG REALCI           R$  000000000093800000000009500000000000927000000000094000000000009500000000000941000000000095000646000000000000059558000000000056007551000000000000009999123100000010000000000000BRWHGRCTF008128
012024092412XPCI11      010FII XP CRED CI           R$  000000000868100000000087290000000008648000000000869900000000087110000000008700000000000871104437000000000000018992000000000165225635000000000000009999123100000010000000000000BRXPCICTF007160
012024092412XPML11      010FII XP MALLSCI  ER       R$  000000001086300000000109120000000010812000000001085600000000108210000000010821000000001083824762000000000000141682000000001538136394000000000000009999123100000010000000000000BRXPMLCTF000188
012024092412BIME11      010FII BRIO ME CI           R$  000000000073300000000007390000000000730000000000073400000000007320000000000730000000000073400177000000000000006120000000000004497085000000000000009999123100000010000000000000BRBIMECTF006135
012024092412CPLG11      010FII CPLG    CI           R$  000000000100500000000010600000000001005000000000105900000000010600000000001012000000000106000006000000000001415111000000001500017605000000000000009999123100000010000000000000BRCPLGCTF006100
012024092412CRFF11      010FII CX RBRA2CI           R$  000000000772500000000079360000000007663000000000777100000000079360000000007676000000000793600021000000000000000523000000000004064628000000000000009999123100000010000000000000BRCRFFCTF006164
012024092412RBHG11      010FII RBCRI IVCI           R$  000000000827200000000082720000000008204000000000822900000000082120000000008212000000000827100426000000000000002257000000000018573138000000000000009999123100000010000000000000BRRBHGCTF002137
012024092412RBOP11      010FII MERC BR CI           R$  000000003700000000000373440000000037000000000003729300000000373430000000037201000000003734200008000000000000000014000000000000522112000000000000009999123100000010000000000000BRRBOPCTF009124
012024092412CTXT11      010FII C TEXTILCI           R$  000000000077600000000007760000000000730000000000074900000000007690000000000738000000000077000021000000000000000085000000000000063701000000000000009999123100000010000000000000BRCTXTCTF014207
012024092412FAMB11      010FII ALMIRANTCI           R$  000000017460000000001768990000000173652000000017505100000001760010000000176001000000017681800031000000000000000094000000000016454838000000000000009999123100000010000000000000BRFAMBCTF018316
012024092412VCRI11      010FII VINCI CRCI           R$  000000000081900000000008260000000000819000000000082100000000008240000000000821000000000082400639000000000000020220000000000016610532000000000000009999123100000010000000000000BRVCRICTF007128
012024092412VGIR11      010FII VALREIIICI           R$  000000000098600000000009910000000000983000000000098600000000009860000000000985000000000098633302000000000000741566000000000731324861000000000000009999123100000010000000000000BRVGIRCTF008180
012024092412PMIS11      010FII PMIS    CI           R$  000000000092700000000009290000000000914000000000092000000000009270000000000919000000000092700960000000000000062480000000000057493378000000000000009999123100000010000000000000BRPMISCTF006110
012024092412PQAG11      010FII PARQ ANHCI           R$  000000000584500000000058450000000005845000000000584500000000058450000000005743000000000588800001000000000000000001000000000000005845000000000000009999123100000010000000000000BRPQAGCTF009151
012024092412RINV11      010FII REAL INVCI  ERS      R$  000000001088800000000108990000000010816000000001084800000000108350000000010819000000001083300163000000000000002476000000000026861743000000000000009999123100000010000000000000BRRINVCTF004123
012024092412PVBI11      010FII VBI PRI CI           R$  000000000881600000000088380000000008626000000000875300000000087140000000008714000000000871512583000000000000053030000000000464201711000000000000009999123100000010000000000000BRPVBICTF003155
012024092412RRCI11      010FII RBCAP RICI           R$  000000000766900000000076750000000007631000000000764900000000076710000000007601000000000764600029000000000000000904000000000006915563000000000000009999123100000010000000000000BRRRCICTF005145
012024092412RZLC11      010FII RZLC    CI           R$  000000010078400000001007840000000100784000000010078400000001007840000000100783000000010078400002000000000000000012000000000001209408000000000000009999123100000010000000000000BRRZLCCTF002100
012024092412TRXF11      010FII TRX REALCI           R$  000000001051500000000105300000000010504000000001051700000000105190000000010515000000001051906017000000000000048237000000000507315298000000000000009999123100000010000000000000BRTRXFCTF003167
012024092412LVBI11      010FII VBI LOG CI           R$  000000001078800000000108990000000010730000000001080900000000107990000000010770000000001079905782000000000000029683000000000320861402000000000000009999123100000010000000000000BRLVBICTF002172
012024092412PABY11      010FII PANAMBY CI           R$  000000000136800000000014490000000001363000000000138600000000014490000000001388000000000144900006000000000000000029000000000000040211000000000000009999123100000010000000000000BRPABYCTF012158
012024092412SNEL11      010FII SUNO EL CI  ER       R$  000000000091900000000009260000000000916000000000092200000000009250000000000924000000000092500483000000000000032995000000000030438858000000000000009999123100000010000000000000BRSNELCTF010112
012024092412SPTW11      010FII SP DOWNTCI           R$  000000000397300000000040000000000003942000000000396900000000039570000000003957000000000395900174000000000000001730000000000006867813000000000000009999123100000010000000000000BRSPTWCTF002238
012024092412PRSV11      010FII P VARGASCI           R$  000000000600100000000060990000000006001000000000606500000000060990000000006073000000000686400011000000000000000129000000000000782497000000000000009999123100000010000000000000BRPRSVCTF008226
012024092412ZAVI11      010FII ZAVIT R CI           R$  000000001084100000000111490000000010720000000001096500000000108620000000010861000000001093900254000000000000002074000000000022743425000000000000009999123100000010000000000000BRZAVICTF004124
012024092412SHPH11      010FII HIGIENOPCI           R$  000000008720300000000894930000000087201000000008773900000000894930000000087204000000008940000023000000000000000193000000000016933674000000000000009999123100000010000000000000BRSHPHCTF008353
012024092412EVBI11      010FII VBI CON CI           R$  000000000097000000000009710000000000940000000000095200000000009660000000000941000000000096600057000000000000002047000000000001950360000000000000009999123100000010000000000000BREVBICTF007153
012024092412ASMT11      010FII ASA MET CI           R$  000000000387000000000038700000000003870000000000387000000000038700000000003870000000000409100001000000000000000001000000000000003870000000000000009999123100000010000000000000BRASMTCTF005107
012024092412CXAG11      010FII CAIXA AGCI           R$  000000000749000000000075460000000007472000000000749400000000075050000000007489000000000753700156000000000000002607000000000019536909000000000000009999123100000010000000000000BRCXAGCTF003131
012024092412CXRI11      010FII CX RBRAVCI           R$  000000000773900000000077980000000007085000000000727300000000076000000000007311000000000760000055000000000000003067000000000022308512000000000000009999123100000010000000000000BRCXRICTF003231
012024092412CARE11      010FII DEA CARECI           R$  000000000015900000000001610000000000156000000000015700000000001590000000000156000000000016000113000000000000005928000000000000935989000000000000009999123100000010000000000000BRCARECTF000112
012024092412CCME11      010FII CANUMA  CI           R$  000000000096500000000009660000000000953000000000096000000000009660000000000966000000000096905584000000000000051623000000000049574167000000000000009999123100000010000000000000BRCCMECTF007126
012024092412IDGR11      010FII UNID II CI           R$  000000000075000000000007500000000000701000000000074000000000007010000000000650000000000075000002000000000000000005000000000000003701000000000000009999123100000010000000000000BRIDGRCTF006130
012024092412LASC11      010FII LEGATUS CI           R$  000000001102400000000111000000000011024000000001107300000000110950000000010964000000001110100010000000000000000016000000000000177169000000000000009999123100000010000000000000BRLASCCTF003156
012024092413HGAG11      010FIAGRO HIGH CI           R$  000000000194900000000019490000000001750000000000188600000000018410000000001750000000000184100015000000000000000171000000000000322619000000000000009999123100000010000000000000BRHGAGCTF007129
012024092413DCRA11      010FIAGRO DEVANCI           R$  000000000083500000000008390000000000829000000000083200000000008300000000000830000000000083501942000000000000015820000000000013166299000000000000009999123100000010000000000000BRDCRACTF002131
012024092413BBGO11      010FIAGRO BBGO CI           R$  000000000790000000000079520000000007885000000000791900000000079260000000007926000000000794900484000000000000005639000000000044658558000000000000009999123100000010000000000000BRBBGOCTF002132
012024092413IAAG11      010FIAGRO IAAG CI           R$  000000000098300000000009950000000000960000000000097100000000009600000000000965000000000097000538000000000000014917000000000014495520000000000000009999123100000010000000000000BRIAAGCTF008115
012024092413EGAF11      010FIAGRO ECO  CI           R$  000000000938900000000093900000000009300000000000933300000000093490000000009344000000000934900483000000000000009595000000000089550229000000000000009999123100000010000000000000BREGAFCTF006128
012024092413CRAA11      010FIAGRO CRAA CI           R$  000000001037500000000103830000000010321000000001033600000000103830000000010334000000001038200429000000000000013649000000000141087284000000000000009999123100000010000000000000BRCRAACTF008119
012024092413RURA11      010FIAGRO RURA CI           R$  000000000097800000000009820000000000970000000000097600000000009770000000000976000000000097707089000000000000341695000000000333522974000000000000009999123100000010000000000000BRRURACTF004132
012024092413SNAG11      010FIAGRO SUNO CI  ER       R$  000000000100800000000010090000000001005000000000100600000000010060000000001006000000000100703311000000000000108647000000000109381575000000000000009999123100000010000000000000BRSNAGCTF000129
012024092413KOPA11      010FIAGRO KOPA CI  ER       R$  000000010010000000001019940000000100010000000010030500000001010000000000100020000000010100000020000000000000000175000000000017553406000000000000009999123100000010000000000000BRKOPACTF006109
012024092414HTEK11      010IT NOW HCARECI           R$  000000000550300000000055030000000005436000000000545900000000054360000000005436000000000550300010000000000000000464000000000002533333000000000000009999123100000010000000000000BRHTEKCTF004100
012024092414BODB11      010FIC FI BCNA CI           R$  000000000087500000000008790000000000870000000000087400000000008720000000000872000000000087317004000000000000254832000000000222739204000000000000009999123100000010000000000000BRBODBCTF009138
012024092414DIVO11      010IT NOW IDIV CI           R$  000000000953500000000096080000000009535000000000957200000000096080000000009559000000000960802032000000000000030735000000000294212624000000000000009999123100000010000000000000BRDIVOCTF002100
012024092414TECK11      010IT NOW TECK CI           R$  000000000826000000000082600000000008048000000000812800000000081600000000008160000000000825000066000000000000038363000000000311850812000000000000009999123100000010000000000000BRTECKCTF005100
012024092414NDIV11      010NU REND IBOVCI           R$  000000001125900000000113200000000011240000000001127800000000112750000000011275000000001129500233000000000000002494000000000028127678000000000000009999123100000010000000000000BRNDIVCTF004111
012024092414UTEC11      010TREND US TECCI           R$  000000000191900000000019190000000001863000000000188500000000018860000000001867000000000188700015000000000000163358000000000307980878000000000000009999123100000010000000000000BRUTECCTF004100
012024092414BCIC11      010B INDEX CICLCI           R$  000000001203700000000120370000000012037000000001203700000000120370000000011714000000001203700001000000000000000100000000000001203700000000000000009999123100000010000000000000BRBCICCTF001100
012024092414BBOV11      010BB ETF IBOV CI           R$  000000000688700000000069220000000006867000000000690300000000068870000000006876000000000688700478000000000000800586000000005526546707000000000000009999123100000010000000000000BRBBOVCTF001100
012024092414VIGT11      010FIP VINCI IECI           R$  000000000596000000000060000000000005960000000000598800000000059790000000005979000000000598000130000000000000006409000000000038379140000000000000009999123100000010000000000000BRVIGTCTF004118
012024092414FDES11      010FUNDES      CI           R$  000000000003800000000000380000000000038000000000003800000000000380000000000038000000000004200001000000000000001000000000000000038000000000000000009999123100000010000000000000BRFDESCTF005100
012024092414BDOM11      010INVESTO BDOMCI           R$  000000001134000000000116210000000011289000000001129300000000113080000000010950000000001130800026000000000000000951000000000010739829000000000000009999123100000010000000000000BRBDOMCTF006100
012024092414BOVX11      010TREND IBOVX CI           R$  000000000133700000000013490000000001336000000000134200000000013430000000001341000000000134301152000000000000546020000000000733074605000000000000009999123100000010000000000000BRBOVXCTF005100
012024092412HRDF11      010FII HREALTY CI           R$  000000000031100000000003120000000000311000000000031100000000003110000000000311000000000034400004000000000000000125000000000000038922000000000000009999123100000010000000000000BRHRDFCTF000103
012024092412HSML11      010FII HSI MALLCI           R$  000000000910800000000091480000000008963000000000904800000000090150000000009011000000000901509521000000000000053719000000000486100812000000000000009999123100000010000000000000BRHSMLCTF007164
012024092412JFLL11      010FII JFL LIV CI           R$  000000000711900000000071190000000006990000000000709900000000071000000000007100000000000711701269000000000000012241000000000086903187000000000000009999123100000010000000000000BRJFLLCTF002143
012024092412BNFS11      010FII BANRISULCI           R$  000000001178000000000117990000000011645000000001174000000000117000000000011706000000001174000204000000000000001594000000000018714638000000000000009999123100000010000000000000BRBNFSCTF000244
012024092412DRIT11      010FII MTGESTAOCI           R$  000000000850300000000085030000000008502000000000850200000000085020000000008502000000000902000003000000000000000003000000000000025508000000000000009999123100000010000000000000BRDRITCTF009256
012024092412DEVA11      010FII DEVANT  CI           R$  000000000375000000000037580000000003725000000000374700000000037300000000003731000000000373501470000000000000018038000000000067603310000000000000009999123100000010000000000000BRDEVACTF000152
012024092412TEPP11      010FII TEL PROPCI           R$  000000000874500000000089000000000008741000000000885000000000088040000000008804000000000881101678000000000000023465000000000207675533000000000000009999123100000010000000000000BRTEPPCTF006153
012024092412TORD11      010FII TORDE EICI           R$  000000000010000000000001020000000000100000000000010000000000001020000000000101000000000010200328000000000000060593000000000006116607000000000000009999123100000010000000000000BRTORDCTF015138
012024092412NCRI11      010FII NAVI CRICI           R$  000000000091000000000009890000000000910000000000095200000000009430000000000914000000000098700487000000000000000541000000000000515124000000000000009999123100000010000000000000BRNCRICTF004121
012024092412BARI11      010FII BARIGUI CI           R$  000000000751200000000075480000000007460000000000750300000000075020000000007471000000000750200934000000000000007676000000000057594159000000000000009999123100000010000000000000BRBARICTF003165
012024092412RECT11      010FII REC RENDCI           R$  000000000326900000000032970000000003260000000000326600000000032600000000003260000000000326400410000000000000007902000000000025809135000000000000009999123100000010000000000000BRRECTCTF000170
012024092412GCDL11      010FII GCDL    CI           R$  000000001010800000000101080000000010108000000001010800000000101080000000010000000000000000000001000000000000000050000000000000505400000000000000009999123100000010000000000000BRGCDLCTF002100
012024092412BCRI11      010FII BEES CRICI           R$  000000000667100000000067230000000006600000000000665100000000067230000000006662000000000672301807000000000000009911000000000065922636000000000000009999123100000010000000000000BRBCRICTF009218
012024092412PEMA11      010FII PERFORMACI           R$  000000000350000000000035000000000003500000000000350000000000035000000000003500000000000360000005000000000000000033000000000000115500000000000000009999123100000010000000000000BRPEMACTF003138
012024092412BBRC11      010FII BB CORP CI           R$  000000001150500000000115250000000011503000000001150600000000115160000000011504000000001151600052000000000000000820000000000009435306000000000000009999123100000010000000000000BRBBRCCTF004256
012024092412URHF11      010FII URHF    CI           R$  000000001140000000000114000000000009854000000001083500000000112850000000009856000000001130000009000000000000000051000000000000552588000000000000009999123100000010000000000000BRURHFCTF004102
012024092412VINO11      010FII VINCI OFCI           R$  000000000051300000000005140000000000501000000000050600000000005010000000000501000000000050303019000000000000183912000000000093226108000000000000009999123100000010000000000000BRVINOCTF001160
012024092412VRTA11      010FII FATOR VECI           R$  000000000866000000000086820000000008550000000000859500000000085850000000008570000000000858502748000000000000027841000000000239301292000000000000009999123100000010000000000000BRVRTACTF008263
012024092412VTLT11      010FII VOT LOG CI           R$  000000000947500000000094980000000009395000000000946300000000093960000000009396000000000949500272000000000000000552000000000005223895000000000000009999123100000010000000000000BRVTLTCTF001175
012024092412VVRI11      010FII V2 RENDACI  ER       R$  000000000970000000000097000000000009700000000000970000000000097000000000009114000000000980000001000000000000000001000000000000009700000000000000009999123100000010000000000000BRVVRICTF007119
012024092412FIIB11      010FII INDL BR CI           R$  000000004954200000000495430000000049000000000004924000000000492500000000049100000000004925000209000000000000001103000000000054312718000000000000009999123100000010000000000000BRFIIBCTF001254
012024092412FLMA11      010FII S F LIMACI           R$  000000001410000000000141490000000013954000000001405500000000141000000000014101000000001414000085000000000000000169000000000002375350000000000000009999123100000010000000000000BRFLMACTF009345
012024092412RBRR11      010FII RBRHGRADCI           R$  000000000877700000000088710000000008777000000000882700000000088640000000008862000000000886410291000000000000039524000000000348891828000000000000009999123100000010000000000000BRRBRRCTF008183
012024092412RBTS11      010FII RB TFO  CI           R$  000000006020100000000610000000000060000000000006069400000000610000000000057800000000006160000005000000000000000017000000000001031803000000000000009999123100000010000000000000BRRBTSCTF002119
012024092412RCRB11      010FII RIOB RC CI           R$  000000001284300000000129720000000012818000000001290400000000128390000000012840000000001292902937000000000000007287000000000094033275000000000000009999123100000010000000000000BRRCRBCTF000160
012024092412JSRE11      010FII JS REAL CI           R$  000000000628700000000063110000000006200000000000623500000000062250000000006224000000000622506186000000000000037336000000000232796031000000000000009999123100000010000000000000BRJSRECTF007265
012024092412KISU11      010FII KILIMA  CI           R$  000000000078700000000007920000000000785000000000078700000000007860000000000785000000000078601986000000000000089589000000000070554906000000000000009999123100000010000000000000BRKISUCTF000147
012024092412KNHY11      010FII KINEA HYCI           R$  000000001062400000000106500000000010602000000001062600000000106170000000010616000000001062305472000000000000020764000000000220641548000000000000009999123100000010000000000000BRKNHYCTF005175
012024092412MANA11      010FII MANATI  CI           R$  000000000089100000000008950000000000877000000000088300000000008820000000000882000000000088305259000000000000130956000000000115685074000000000000009999123100000010000000000000BRMANACTF006128
012024092412MCHY11      010FII MAUA HY CI  ER       R$  000000000090600000000009140000000000901000000000090800000000009030000000000902000000000090318209000000000000542887000000000493181368000000000000009999123100000010000000000000BRMCHYCTF004141
012024092412MGHT11      010FII MOGNO HTCI           R$  000000000195800000000019800000000001861000000000192400000000019050000000001906000000000194100569000000000000002743000000000005279065000000000000009999123100000010000000000000BRMGHTCTF005155
012024092414KDIF11      010KINEA INFRAFCI           R$  000000001343200000000135000000000013420000000001346800000000134480000000013442000000001344802899000000000000013782000000000185620876000000000000009999123100000010000000000000BRKDIFCTF003144
012024092414BRZP11      010FIP BRZ IE  CI           R$  000000001057400000000105740000000010201000000001044100000000103190000000010319000000001048900955000000000000006449000000000067340191000000000000009999123100000010000000000000BRBRZPCTF005154
012024092414ACWI11      010TREND ACWI  CI           R$  000000000135500000000013550000000001341000000000135000000000013510000000001351000000000135900097000000000000311909000000000421374236000000000000009999123100000010000000000000BRACWICTF001100
012024092414ECOO11      010ISHARES ECOOCI           R$  000000001117000000000111770000000011170000000001117000000000111770000000011029000000001215000002000000000000000172000000000001921324000000000000009999123100000010000000000000BRECOOCTF008100
012024092414IVVB11      010ISHARE SP500CI           R$  000000003503100000000350460000000034691000000003488700000000349770000000034977000000003498005095000000000000192109000000006702202386000000000000009999123100000010000000000000BRIVVBCTF001100
012024092414XINA11      010TREND CHINA CI           R$  000000000063100000000006550000000000628000000000064500000000006510000000000639000000000065106445000000000000639661000000000413067140000000000000009999123100000010000000000000BRXINACTF006100
012024092414BIDB11      010FIC INTER   CI           R$  000000000907600000000090760000000009030000000000904200000000090750000000009051000000000907503915000000000000012969000000000117275260000000000000009999123100000010000000000000BRBIDBCTF001137
012024092414CPTI11      010FIC IE CAP  CI           R$  000000000955000000000095650000000009434000000000949600000000094390000000009443000000000947008210000000000000116443000000001105805160000000000000009999123100000010000000000000BRCPTICTF005147
012024092414QDFI11      010QR DEFI     CI           R$  000000000036700000000003670000000000340000000000035400000000003450000000000345000000000035000049000000000000004127000000000001461402000000000000009999123100000010000000000000BRQDFICTF000100
012024092414PIBB11      010IT NOW PIBB CI           R$  000000002301300000000233520000000023013000000002330400000000233000000000023300000000002332500102000000000000002731000000000063645465000000000000009999123100000010000000000000BRPIBBCTF005101
012024092414QBTC11      010QR BITCOIN  CI           R$  000000000213200000000021340000000002094000000000211300000000021300000000002121000000000213003087000000000000141336000000000298753882000000000000009999123100000010000000000000BRQBTCCTF008100
012024092414SNID11      010SUNO FIC FI CI  ER       R$  000000000104100000000010460000000001025000000000103200000000010390000000001039000000000104000404000000000000034403000000000035518195000000000000009999123100000010000000000000BRSNIDCTF018122
012024092414SPYI11      010ETF BV SPYI CI           R$  000000001147000000000114780000000011314000000001135900000000114100000000011410000000001144000393000000000000019139000000000217401592000000000000009999123100000010000000000000BRSPYICTF001110
012024092414SMAL11      010ISHARES SMALCI           R$  000000000993200000000100020000000009868000000000993100000000099300000000009919000000000996635234000000000002622920000000026049333184000000000000009999123100000010000000000000BRSMALCTF002101
012024092414ESGE11      010TREND ESG E CI           R$  000000000087700000000008890000000000877000000000088800000000008890000000000888000000000088900011000000000000017898000000000015907046000000000000009999123100000010000000000000BRESGECTF001100
012024092414COPN11      010FIP COPN    CI           R$  000000001002000000000100200000000010020000000001002000000000100200000000009949000000001002000001000000000000000004000000000000040080000000000000009999123100000010000000000000BRCOPNCTF006100
012024092414FNOR11      010FINOR       CI *         R$  000000000009100000000000940000000000091000000000009300000000000930000000000092000000000009300012000000000000038000000000000000003535000000000000009999123100010000000000000000BRFNORCTF013002
012024092414FSRF11      010FISET FL REFCI           R$  000000000001700000000000170000000000017000000000001700000000000170000000000017000000000001800001000000000000001000000000000000017000000000000000009999123100000010000000000000BRFSRFCTF010002
012024092414IFRI11      010FI ITAU IFRICI           R$  000000001050000000000107860000000010461000000001059000000000107000000000010600000000001070001718000000000000022057000000000233594744000000000000009999123100000010000000000000BRIFRICTF007103
012024092422BIOM11      010BIOMM       BNS ORD MA   R$  000000000004700000000000470000000000047000000000004700000000000470000000000040000000000004500003000000000000000400000000000000018800000000000000009999123100000010000000000000BRBIOMN02OR4100
012024092434HOME34      010HOME DEPOT  DRN          R$  000000000775000000000078240000000007742000000000777400000000078160000000007470000000000799900649000000000000002301000000000017889937000000000000009999123100000010000000000000BRHOMEBDR002151
012024092434MRCK34      010MERCK       DRN ED       R$  000000000810000000000081000000000007840000000000790700000000078400000000007822000000000785000027000000000000001550000000000012256751000000000000009999123100000010000000000000BRMRCKBDR003158
012024092434A1SN34      010ASCENDIS PHADRN          R$  000000000526000000000052600000000005260000000000526000000000052600000000002643000000000000000001000000000000000001000000000000005260000000000000009999123100000010000000000000BRA1SNBDR008100
012024092434A1WK34      010AMERICAN WATDRN          R$  000000002015000000000201500000000020150000000002015000000000201500000000000000000000000000000001000000000000000015000000000000302250000000000000009999123100000010000000000000BRA1WKBDR006119
012024092434A2XO34      010AXON ENTERPRDRN          R$  000000001204800000000120480000000011880000000001195800000000119880000000000000000000000000000254000000000000000452000000000005405424000000000000009999123100000010000000000000BRA2XOBDR004100
012024092434BOAC34      010BANK AMERICADRN          R$  000000000550000000000055000000000005355000000000539300000000053810000000005379000000000541000140000000000000071956000000000388066819000000000000009999123100000010000000000000BRBOACBDR004157
012024092434DUKB34      010DUKE ENERGY DRN          R$  000000006422000000000642200000000064220000000006422000000000642200000000042500000000000000000001000000000000000001000000000000064220000000000000009999123100000010000000000000BRDUKBBDR008132
012024092434E1MR34      010EMERSON ELECDRN          R$  000000005759400000000575940000000057594000000005759400000000575940000000000000000000005895600001000000000000000030000000000001727820000000000000009999123100000010000000000000BRE1MRBDR008119
012024092434E1WL34      010EDWARDS LIFEDRN          R$  000000000908100000000090810000000009081000000000908100000000090810000000007501000000000912700001000000000000000027000000000000245187000000000000009999123100000010000000000000BRE1WLBDR000101
012024092434EAIN34      010ELECTR ARTS DRN          R$  000000003887300000000388730000000038384000000003852900000000386600000000038384000000004100000005000000000000000207000000000007975621000000000000009999123100000010000000000000BREAINBDR007116
012024092434D1VN34      010DEVON ENERGYDRN          R$  000000002247100000000224710000000022471000000002247100000000224710000000022212000000000000000002000000000000000006000000000000134826000000000000009999123100000010000000000000BRD1VNBDR009120
012024092412ARRI11      010FII ATRIO   CI           R$  000000000089200000000008920000000000885000000000088900000000008900000000000889000000000089000448000000000000022698000000000020190522000000000000009999123100000010000000000000BRARRICTF009164
012024092412BTAL11      010FII BTG AGROCI  ER       R$  000000000751800000000075670000000007509000000000752400000000075110000000007511000000000755500934000000000000004634000000000034866481000000000000009999123100000010000000000000BRBTALCTF003143
012024092412BTRA11      010FII BTG TAGRCI  ER       R$  000000000422300000000042460000000004150000000000420100000000042090000000004200000000000420900258000000000000004372000000000018367526000000000000009999123100000010000000000000BRBTRACTF000140
012024092412AIEC11      010FII AUTONOMYCI           R$  000000000541700000000054170000000005320000000000536000000000053570000000005338000000000535700556000000000000007941000000000042565016000000000000009999123100000010000000000000BRAIECCTF009148
012024092412ALZM11      010FII ALIANZMECI  ER       R$  000000000075700000000007570000000000745000000000074700000000007530000000000746000000000075303122000000000000028086000000000021007446000000000000009999123100000010000000000000BRALZMCTF007126
012024092412EDFO11      010FII OURINVESCI           R$  000000001699900000000170000000000016999000000001699900000000170000000000016900000000001699900003000000000000000008000000000000135994000000000000009999123100000010000000000000BREDFOCTF004326
012024092412GZIT11      010FII GAZIT   CI  ER       R$  000000000565000000000056680000000005567000000000560100000000055700000000005569000000000557001422000000000000017605000000000098620990000000000000009999123100000010000000000000BRGZITCTF005111
012024092412WPLZ11      010FII W PLAZA CI           R$  000000000586600000000058660000000005750000000000583200000000057500000000005750000000000585000012000000000000000073000000000000425761000000000000009999123100000010000000000000BRWPLZCTF004269
012024092412XPCM11      010FII XP MACAECI           R$  000000000074600000000007630000000000746000000000075100000000007460000000000746000000000075400082000000000000001021000000000000767161000000000000009999123100000010000000000000BRXPCMCTF009230
012024092412XPPR11      010FII XP PROP CI           R$  000000000170500000000017200000000001680000000000169300000000017100000000001710000000000172000576000000000000011406000000000019312162000000000000009999123100000010000000000000BRXPPRCTF000158
012024092412BLCA11      010FII BLUE AAACI           R$  000000000988700000000100000000000009757000000000999200000000098810000000009881000000000995000825000000000000008479000000000084728687000000000000009999123100000010000000000000BRBLCACTF009134
012024092412CPOF11      010FII CPOF    CI  ER       R$  000000001085000000000108500000000010850000000001085000000000108500000000000000000000001084900001000000000000000001000000000000010850000000000000009999123100000010000000000000BRCPOFCTF002110
012024092412RBDS11      010FII RBRESID2CI           R$  000000000028500000000002950000000000285000000000028600000000002900000000000281000000000030500005000000000000000046000000000000013185000000000000009999123100000010000000000000BRRBDSCTF006179
012024092412RBHY11      010FII RB YIELDCI           R$  000000000880600000000088850000000008719000000000875900000000087660000000008725000000000876601838000000000000003600000000000031535412000000000000009999123100000010000000000000BRRBHYCTF005147
012024092412RBRD11      010FII RB II   CI           R$  000000000374800000000037500000000003685000000000370100000000036950000000003689000000000369500109000000000000002051000000000007591090000000000000009999123100000010000000000000BRRBRDCTF008266
012024092412CVBI11      010FII VBI CRI CI           R$  000000000920000000000092390000000009030000000000915500000000090500000000009050000000000905404414000000000000021960000000000201057533000000000000009999123100000010000000000000BRCVBICTF001169
012024092412FATN11      010FII ATHENA ICI           R$  000000000910300000000091200000000009076000000000909500000000090910000000009080000000000909100733000000000000005995000000000054529852000000000000009999123100000010000000000000BRFATNCTF000155
012024092412VCRR11      010FII VECT RENCI           R$  000000000665000000000067490000000006649000000000672500000000067200000000006708000000000672001432000000000000002908000000000019557236000000000000009999123100000010000000000000BRVCRRCTF008139
012024092412VGRI11      010FII VGRI    CI           R$  000000000091400000000009180000000000905000000000090800000000009100000000000905000000000091001122000000000000025806000000000023447057000000000000009999123100000010000000000000BRVGRICTF008107
012024092412PORD11      010FII POLO CRICI           R$  000000000085700000000008610000000000851000000000085500000000008510000000000851000000000085802005000000000000074326000000000063616394000000000000009999123100000010000000000000BRPORDCTF005177
012024092412PQDP11      010FII D PEDRO CI           R$  000000019200100000001921000000000191202000000019203500000001921000000000191204000000019210000037000000000000000193000000000037062834000000000000009999123100000010000000000000BRPQDPCTF004274
012024092412RMAI11      010FII REAGMULTCI           R$  000000000752500000000075330000000007525000000000752900000000075320000000007098000000000753700005000000000000000007000000000000052705000000000000009999123100000010000000000000BRRMAICTF000137
012024092412QAGR11      010FII QUASAR ACI           R$  000000000465000000000046510000000004610000000000462000000000046200000000004620000000000463300299000000000000005350000000000024719914000000000000009999123100000010000000000000BRQAGRCTF005158
012024092412RVBI11      010FII VBI REITCI           R$  000000000727800000000073060000000007220000000000726100000000072690000000007268000000000726902898000000000000039015000000000283288010000000000000009999123100000010000000000000BRRVBICTF009155
012024092412RZTR11      010FII RIZA TX CI           R$  000000000908600000000091200000000009050000000000908200000000090890000000009065000000000908906893000000000000041575000000000377588372000000000000009999123100000010000000000000BRRZTRCTF003151
012024092412TVRI11      010FII TIVIO RICI           R$  000000000999000000000099940000000009851000000000992500000000099000000000009893000000000990001451000000000000011660000000000115736717000000000000009999123100000010000000000000BRTVRICTF001111
012024092412NVHO11      010FII NOVOHORICI           R$  000000000130000000000013000000000001252000000000125300000000012520000000001253000000000130000014000000000000000269000000000000337122000000000000009999123100000010000000000000BRNVHOCTF003231
012024092412PATC11      010FII PATRIA  CI           R$  000000000351700000000035170000000003501000000000350100000000035010000000003501000000000350200039000000000000000758000000000002654339000000000000009999123100000010000000000000BRPATCCTF002173
012024092412SNFF11      010FII SUNOFOFICI  ER       R$  000000000888200000000089050000000008830000000000888000000000088870000000008887000000000888800364000000000000003248000000000028842396000000000000009999123100000010000000000000BRSNFFCTF001142
012024092412SPXS11      010FII SPX SYN CI           R$  000000000091900000000009190000000000910000000000091300000000009170000000000910000000000091702237000000000000038206000000000034899313000000000000009999123100000010000000000000BRSPXSCTF002127
012024092412SJAU11      010FII SJ AU   CI           R$  000000000595000000000059500000000005950000000000595000000000059500000000005005000000000595000002000000000000000008000000000000047600000000000000009999123100000010000000000000BRSJAUCTF009102
012024092434DEAI34      010DELTA       DRN          R$  000000002608800000000260880000000026088000000002608800000000260880000000021000000000000000000001000000000000000005000000000000130440000000000000009999123100000010000000000000BRDEAIBDR008121
012024092434DHER34      010DANAHER CORPDRN          R$  000000000527000000000056540000000005270000000000560700000000056540000000005270000000000565500003000000000000000062000000000000347640000000000000009999123100000010000000000000BRDHERBDR004139
012024092434A1EG34      010AEGON LTD   DRN          R$  000000000347700000000035060000000003477000000000350400000000034890000000003468000000000348900004000000000000000040000000000000140177000000000000009999123100000010000000000000BRA1EGBDR002108
012024092434A1JG34      010ARTHUR J GALDRN          R$  000000007640000000000764000000000076400000000007640000000000764000000000001000000000000000000001000000000000000015000000000001146000000000000000009999123100000010000000000000BRA1JGBDR001119
012024092434A1MD34      010ADVANCED MICDRN          R$  000000001088900000000108890000000010525000000001075300000000108310000000010762000000001083102452000000000000060740000000000653190132000000000000009999123100000010000000000000BRA1MDBDR002101
012024092434TEXA34      010TEXAS INC   DRN          R$  000000000748000000000075190000000007480000000000751200000000074880000000007251000000000760000005000000000000047514000000000356925348000000000000009999123100000010000000000000BRTEXABDR003137
012024092434TMOS34      010THERMFISCHERDRN          R$  000000000691100000000070000000000006910000000000692800000000069450000000006800000000000716000106000000000000000337000000000002334867000000000000009999123100000010000000000000BRTMOSBDR007135
012024092434N1XP34      010NXP SEMICONDDRN          R$  000000006425200000000643840000000064252000000006431800000000643840000000000000000000000000000002000000000000000006000000000000385908000000000000009999123100000010000000000000BRN1XPBDR008119
012024092434NEXT34      010NEXTERA ENERDRN          R$  000000001165200000000116580000000011444000000001149700000000114850000000011472000000001190000020000000000000000416000000000004782810000000000000009999123100000010000000000000BRNEXTBDR006122
012024092434NOCG34      010NORTHROP GRUDRN          R$  000000005934200000000593420000000059342000000005934200000000593420000000000000000000005985000001000000000000000001000000000000059342000000000000009999123100000010000000000000BRNOCGBDR006121
012024092434M1HK34      010MOHAWK INDUSDRN          R$  000000000331500000000033210000000003312000000000331600000000033120000000000000000000000000000003000000000000000035000000000000116070000000000000009999123100000010000000000000BRM1HKBDR003101
012024092434M1TT34      010MARRIOTT INTDRN          R$  000000003362500000000336250000000033625000000003362500000000336250000000023992000000000000000001000000000000000005000000000000168125000000000000009999123100000010000000000000BRM1TTBDR009111
012024092434S2FM34      010SPROUTS FARMDRN          R$  000000002014000000000201400000000019700000000001978600000000197260000000000000000000000000000019000000000000003030000000000059952530000000000000009999123100000010000000000000BRS2FMBDR005100
012024092434S2NA34      010SNAP INC    DRN          R$  000000000094700000000009710000000000943000000000095300000000009710000000000740000000000000000013000000000000004613000000000004397249000000000000009999123100000010000000000000BRS2NABDR004100
012024092434S2TA34      010STAG INDUSTRDRN          R$  000000000436000000000043600000000004311000000000433600000000043440000000004296000000000446200008000000000000000056000000000000242865000000000000009999123100000010000000000000BRS2TABDR001131
012024092434V1TA34      010VENTAS INC  DRN          R$  000000001751400000000175140000000017514000000001751400000000175140000000016000000000000000000001000000000000000010000000000000175140000000000000009999123100000010000000000000BRV1TABDR008028
012024092434CLOV34      010CLOVERHEALTHDRN          R$  000000000155200000000015940000000001552000000000158300000000015940000000000340000000000174900003000000000000000613000000000000970480000000000000009999123100000010000000000000BRCLOVBDR009100
012024092434G2WR34      010GUIDEWIRE SWDRN          R$  000000000798500000000079850000000007985000000000798500000000079850000000000000000000000000000001000000000000000030000000000000239550000000000000009999123100000010000000000000BRG2WRBDR003100
012024092434BBYY34      010BEST BUY    DRN ED       R$  000000005378400000000537840000000053784000000005378400000000537840000000024500000000000000000001000000000000000010000000000000537840000000000000009999123100000010000000000000BRBBYYBDR005130
012024092434CHVX34      010CHEVRON     DRN          R$  000000000818000000000081800000000008025000000000803500000000080440000000007905000000000812900067000000000000009588000000000077047102000000000000009999123100000010000000000000BRCHVXBDR008155
012024092434UPSS34      010UPS         DRN          R$  000000000439200000000044020000000004392000000000439200000000044020000000004325000000000454600002000000000000000017000000000000074674000000000000009999123100000010000000000000BRUPSSBDR009151
012024092434W1BD34      010WARNER DISCODRN          R$  000000000447000000000044700000000004470000000000447000000000044700000000003739000000000490000001000000000000000001000000000000004470000000000000009999123100000010000000000000BRW1BDBDR009100
012024092434PGCO34      010PG          DRN          R$  000000000674300000000068040000000006732000000000679300000000067550000000006749000000000680500039000000000000227196000000001543545236000000000000009999123100000010000000000000BRPGCOBDR001156
012024092434W1MC34      010WASTE MANAG DRN          R$  000000005665800000000566580000000056658000000005665800000000566580000000051462000000000000000001000000000000000019000000000001076502000000000000009999123100000010000000000000BRW1MCBDR008119
012024092434B1BW34      010BATHBODY    DRN          R$  000000000414500000000041450000000004145000000000414500000000041450000000000000000000000672000001000000000000000100000000000000414500000000000000009999123100000010000000000000BRB1BWBDR012113
012024092434B1LL34      010BALL CORP   DRN          R$  000000001860000000000186000000000018382000000001850100000000183820000000000000000000000000000005000000000000000008000000000000148012000000000000009999123100000010000000000000BRB1LLBDR006119
012024092434B1SA34      010BANCO SANTANDRN          R$  000000000561600000000056930000000005616000000000567900000000056760000000005652000000000000000003000000000000000007000000000000039757000000000000009999123100000010000000000000BRB1SABDR004105
012024092434B2HI34      010BILL HOLD   DRN          R$  000000000016500000000001660000000000159000000000016000000000001660000000000160000000000016600006000000000000000134000000000000021466000000000000009999123100000010000000000000BRB2HIBDR008101
012024092434T1AL34      010TAL EDUCATIODRN          R$  000000000046500000000004740000000000456000000000047100000000004690000000000446000000000047300013000000000000004516000000000002130993000000000000009999123100000010000000000000BRT1ALBDR009100
012024092434T1OW34      010AMERICAN TOWDRN          R$  000000000539000000000054050000000005325000000000535700000000053950000000005050000000000552800008000000000000000037000000000000198239000000000000009999123100000010000000000000BRT1OWBDR007119
012024092434T2ND34      010TAND DIABETEDRN          R$  000000000164900000000016490000000001649000000000164900000000016490000000000000000000000000000001000000000000000740000000000001220260000000000000009999123100000010000000000000BRT2NDBDR007100
012024092412SCPF11      010FII SCP     CI           R$  000000000025100000000002560000000000251000000000025100000000002540000000000251000000000025200042000000000000000732000000000000184111000000000000009999123100000010000000000000BRSCPFCTF003302
012024092412EQIR11      010FII EQI RECECI  ER       R$  000000000089900000000009000000000000889000000000089400000000008990000000000890000000000089901354000000000000013388000000000011975169000000000000009999123100000010000000000000BREQIRCTF003136
