00COTAHIST.2024BOVESPA 20240919                                                                                                                                                                                                                      
012024091902VALE3       010VALE        ON      NM   R$  000000000585700000000058850000000005817000000000584300000000058230000000005823000000000582854040000000000019328400000000112946906400000000000000009999123100000010000000000000BRVALEACNOR0211
012024091902MILS3       010MILLS       ON      NM   R$  000000000113400000000011460000000001122000000000112800000000011220000000001121000000000112901807000000000000643000000000000725935400000000000000009999123100000010000000000000BRMILSACNOR2128
012024091902MLAS3       010MULTILASER  ON      NM   R$  000000000018000000000001810000000000167000000000017100000000001680000000000167000000000016804373000000000008564300000000001470815500000000000000009999123100000010000000000000BRMLASACNOR9101
012024091902MNDL3       010MUNDIAL     ON           R$  000000000150000000000015200000000001500000000000151000000000015200000000001182000000000157000002000000000000000200000000000000302000000000000000009999123100000010000000000000BRMNDLACNOR4109
012024091902HYPE3       010HYPERA      ON      NM   R$  000000000290500000000029120000000002828000000000286400000000028280000000002828000000000283007250000000000001716100000000004916003600000000000000009999123100000010000000000000BRHYPEACNOR0143
012024091902ATOM3       010ATOMPAR     ON           R$  000000000021400000000002250000000000214000000000022000000000002210000000000215000000000022200034000000000000018300000000000004038500000000000000009999123100000010000000000000BRATOMACNOR1106
012024091902AURE3       010AUREN       ON      NM   R$  000000000110000000000011030000000001082000000000109200000000010860000000001085000000000108610136000000000005444700000000005949147400000000000000009999123100000010000000000000BRAUREACNOR9104
012024091902AVLL3       010ALPHAVILLE  ON      NM   R$  000000000034700000000003470000000000340000000000034200000000003400000000000340000000000034500008000000000000001100000000000000377200000000000000009999123100000010000000000000BRAVLLACNOR5103
012024091902BGIP4       010BANESE      PN           R$  000000000251500000000025390000000002505000000000251600000000025390000000002510000000000254000004000000000000000400000000000001006400000000000000009999123100000010000000000000BRBGIPACNPR8210
012024091902BHIA3       010CASAS BAHIA ON      NM   R$  000000000060100000000006150000000000570000000000058700000000005770000000000575000000000057703650000000000003210100000000001885952700000000000000009999123100000010000000000000BRBHIAACNOR1102
012024091902PINE3       010PINE        ON      N2   R$  000000000050900000000005100000000000506000000000050700000000005060000000000485000000000051600009000000000000001800000000000000913100000000000000009999123100000010000000000000BRPINEACNOR1150
012024091902PINE4       010PINE        PN      N2   R$  000000000051100000000005210000000000509000000000051500000000005160000000000514000000000051601007000000000000330600000000000170461200000000000000009999123100000010000000000000BRPINEACNPR8150
012024091902PLAS3       010PLASCAR PARTON           R$  000000000065900000000006590000000000605000000000064000000000006070000000000605000000000065900008000000000000003300000000000002114400000000000000009999123100000010000000000000BRPLASACNOR2106
012024091902PLPL3       010PLANOEPLANO ON      NM   R$  000000000130000000000013430000000001286000000000131400000000013030000000001303000000000130703090000000000000887100000000001166028800000000000000009999123100000010000000000000BRPLPLACNOR5104
012024091902PNVL3       010DIMED       ON      NM   R$  000000000104200000000010420000000001019000000000102700000000010190000000001019000000000102801820000000000000401300000000000412435500000000000000009999123100000010000000000000BRPNVLACNOR9207
012024091902POMO3       010MARCOPOLO   ON      N2   R$  000000000061900000000006250000000000607000000000061300000000006100000000000609000000000061000766000000000000234000000000000143630400000000000000009999123100000010000000000000BRPOMOACNOR0099
012024091902POMO4       010MARCOPOLO   PN      N2   R$  000000000080300000000008090000000000785000000000079200000000007890000000000789000000000079013546000000000005802800000000004599336100000000000000009999123100000010000000000000BRPOMOACNPR7099
012024091902RAIZ4       010RAIZEN      PN      N2   R$  000000000031300000000003140000000000307000000000030900000000003070000000000307000000000030807029000000000007206400000000002227525600000000000000009999123100000010000000000000BRRAIZACNPR6111
012024091902BLAU3       010BLAU        ON      NM   R$  000000000139300000000013940000000001350000000000137100000000013500000000001348000000000135001555000000000000273500000000000375062800000000000000009999123100000010000000000000BRBLAUACNOR8114
012024091902BMEB3       010MERCANTIL   ON      N1   R$  000000000399900000000039990000000003999000000000399900000000039990000000003955000000000399900002000000000000000200000000000000799800000000000000009999123100000010000000000000BRBMEBACNOR8206
012024091902BMEB4       010MERCANTIL   PN      N1   R$  000000000417100000000041970000000004165000000000418000000000041800000000004179000000000419200125000000000000013400000000000056017700000000000000009999123100000010000000000000BRBMEBACNPR5211
012024091902BMGB4       010BANCO BMG   PN      N1   R$  000000000039300000000003940000000000388000000000039100000000003900000000000390000000000039201465000000000000508100000000000198675200000000000000009999123100000010000000000000BRBMGBACNPR0110
012024091902BMIN4       010MERC INVEST PN           R$  000000000165000000000016500000000001650000000000165000000000016500000000001650000000000177000001000000000000000100000000000000165000000000000000009999123100000010000000000000BRBMINACNPR1176
012024091902BMKS3       010BIC MONARK  ON           R$  000000003290000000000329000000000030300000000003073500000000319880000000030800000000003198700043000000000000000947000000000029106152000000000000009999123100000010000000000000BRBMKSACNOR9166
012024091902BMOB3       010BEMOBI TECH ON      NM   R$  000000000146100000000014610000000001420000000000143400000000014290000000001425000000000143001230000000000000186900000000000268124600000000000000009999123100000010000000000000BRBMOBACNOR7103
012024091902BOBR4       010BOMBRIL     PN           R$  000000000022900000000002390000000000227000000000023300000000002340000000000234000000000023500076000000000000031700000000000007397100000000000000009999123100000010000000000000BRBOBRACNPR3128
012024091902RCSL3       010RECRUSUL    ON           R$  000000000066900000000006910000000000526000000000061000000000005890000000000588000000000058905863000000000002304900000000001406780200000000000000009999123100000010000000000000BRRCSLACNOR4134
012024091902RCSL4       010RECRUSUL    PN           R$  000000000010100000000001010000000000097000000000009900000000001010000000000099000000000010100369000000000000268600000000000026621500000000000000009999123100000010000000000000BRRCSLACNPR1134
012024091902RDNI3       010RNI         ON      NM   R$  000000000031000000000003300000000000310000000000032400000000003250000000000312000000000032700032000000000000014200000000000004611900000000000000009999123100000010000000000000BRRDNIACNOR9116
012024091902RDOR3       010REDE D OR   ON      NM   R$  000000000347000000000034700000000003323000000000336200000000033470000000003336000000000334916305000000000004369100000000014690228300000000000000009999123100000010000000000000BRRDORACNOR8113
012024091902RECV3       010PETRORECSA  ON      NM   R$  000000000190200000000019030000000001850000000000186300000000018520000000001851000000000185706174000000000001730800000000003225001400000000000000009999123100000010000000000000BRRECVACNOR3107
012024091902REDE3       010REDE ENERGIAON           R$  000000000068900000000006980000000000688000000000069500000000006950000000000695000000000069800017000000000000002900000000000002015900000000000000009999123100000010000000000000BRREDEACNOR7128
012024091902SUZB3       010SUZANO S.A. ON      NM   R$  000000000525100000000052900000000005239000000000526000000000052570000000005254000000000526718051000000000005174600000000027221368500000000000000009999123100000010000000000000BRSUZBACNOR0130
012024091902CLSA3       010CLEARSALE   ON      NM   R$  000000000081700000000008250000000000782000000000079800000000007930000000000790000000000079303697000000000001613100000000001288539600000000000000009999123100000010000000000000BRCLSAACNOR0100
012024091902CLSC4       010CELESC      PN      N2   R$  000000000840600000000084950000000008405000000000845700000000084080000000008406000000000845000009000000000000001000000000000008457700000000000000009999123100000010000000000000BRCLSCACNPR3131
012024091902CMIG3       010CEMIG       ON      N1   R$  000000000147000000000014740000000001440000000000145200000000014400000000001439000000000144700462000000000000070000000000000101650000000000000000009999123100000010000000000000BRCMIGACNOR6243
012024091902CMIG4       010CEMIG       PN      N1   R$  000000000118200000000011820000000001160000000000116500000000011610000000001160000000000116216302000000000011185100000000013041563300000000000000009999123100000010000000000000BRCMIGACNPR3244
012024091902CSUD3       010CSU DIGITAL ON      NM   R$  000000000178800000000018010000000001776000000000178400000000017760000000001775000000000178000075000000000000015300000000000027307500000000000000009999123100000010000000000000BRCSUDACNOR5110
012024091902VSTE3       010VESTE       ON      NM   R$  000000000134700000000013660000000001338000000000134300000000013380000000001330000000000134900014000000000000001700000000000002284400000000000000009999123100000010000000000000BRVSTEACNOR5103
012024091902VTRU3       010VITRUEDUCA  ON      NM   R$  000000000093100000000009630000000000928000000000094200000000009310000000000931000000000094100542000000000000136000000000000128165100000000000000009999123100000010000000000000BRVTRUACNOR3100
012024091902CXSE3       010CAIXA SEGURION      NM   R$  000000000149300000000015000000000001474000000000148700000000014740000000001474000000000147910895000000000004254500000000006329266100000000000000009999123100000010000000000000BRCXSEACNOR7107
012024091902CYRE3       010CYRELA REALTON      NM   R$  000000000224500000000022570000000002179000000000220400000000021830000000002182000000000218812215000000000004519900000000009962893500000000000000009999123100000010000000000000BRCYREACNOR7140
012024091902ENJU3       010ENJOEI      ON      NM   R$  000000000016400000000001640000000000148000000000015400000000001480000000000148000000000014901661000000000001829600000000000283044900000000000000009999123100000010000000000000BRENJUACNOR9100
012024091902EPAR3       010EMBPAR S/A  ON           R$  000000000058000000000005800000000000575000000000057700000000005780000000000574000000000057800015000000000000003900000000000002252300000000000000009999123100000010000000000000BREPARACNOR9105
012024091902EQMA3B      010EQTLMARANHAOON      MB   R$  000000000238000000000024000000000002380000000000239000000000024000000000002389000000000244900004000000000000002900000000000006931900000000000000009999123100000010000000000000BREQMAACNOR8108
012024091902EQPA3       010EQTL PARA   ON           R$  000000000061200000000006170000000000609000000000061200000000006110000000000611000000000061500027000000000000008400000000000005146700000000000000009999123100000010000000000000BREQPAACNOR1111
012024091902EQTL3       010EQUATORIAL  ON      NM   R$  000000000338700000000033930000000003334000000000335200000000033370000000003337000000000333815435000000000004435100000000014870065400000000000000009999123100000010000000000000BREQTLACNOR0131
012024091902VULC3       010VULCABRAS   ON      NM   R$  000000000180600000000018070000000001781000000000179200000000017820000000001781000000000178202903000000000000782700000000001402749700000000000000009999123100000010000000000000BRVULCACNOR2161
012024091902VVEO3       010VIVEO       ON      NM   R$  000000000023500000000002430000000000219000000000022800000000002190000000000219000000000022104085000000000002044800000000000467861400000000000000009999123100000010000000000000BRVVEOACNOR0104
012024091902IFCM3       010INFRACOMM   ON      NM   R$  000000000002200000000000220000000000017000000000001800000000000170000000000017000000000001802240000000000027442000000000000510844000000000000000009999123100000010000000000000BRIFCMACNOR8101
012024091902IGTI11      010IGUATEMI S.AUNT     N1   R$  000000000227300000000022810000000002195000000000221800000000021950000000002194000000000220408664000000000003329400000000007385217700000000000000009999123100000010000000000000BRIGTICDAM16106
012024091902IGTI3       010IGUATEMI S.AON      N1   R$  000000000027900000000002830000000000271000000000027400000000002710000000000270000000000027100084000000000000029400000000000008070700000000000000009999123100000010000000000000BRIGTIACNOR8106
012024091902IGTI4       010IGUATEMI S.APN      N1   R$  000000000099300000000009980000000000991000000000099400000000009970000000000009000000000109600004000000000000000800000000000000795800000000000000009999123100000010000000000000BRIGTIACNPR5106
012024091902ALPK3       010ESTAPAR     ON      NM   R$  000000000032500000000003300000000000316000000000032300000000003200000000000317000000000032100312000000000000130500000000000042161400000000000000009999123100000010000000000000BRALPKACNOR9101
012024091902ALUP11      010ALUPAR      UNT     N2   R$  000000000316700000000031730000000003109000000000312900000000031240000000003124000000000313004186000000000000861200000000002694813400000000000000009999123100000010000000000000BRALUPCDAM15120
012024091902ALUP3       010ALUPAR      ON      N2   R$  000000000108800000000010880000000001057000000000107000000000010580000000001057000000000108800033000000000000004800000000000005136100000000000000009999123100000010000000000000BRALUPACNOR8120
012024091902ALUP4       010ALUPAR      PN      N2   R$  000000000104600000000010460000000001028000000000103300000000010300000000001030000000000104000044000000000000010000000000000010337800000000000000009999123100000010000000000000BRALUPACNPR5120
012024091902AMAR3       010LOJAS MARISAON      NM   R$  000000000011500000000001150000000000110000000000011200000000001110000000000110000000000011100366000000000000314100000000000035196500000000000000009999123100000010000000000000BRAMARACNOR4115
012024091902AMBP3       010AMBIPAR     ON      NM   R$  000000000693700000000076090000000006937000000000718500000000073890000000007389000000000739301807000000000000650600000000004674640600000000000000009999123100000010000000000000BRAMBPACNOR6103
012024091902BEES3       010BANESTES    ON           R$  000000000089700000000008990000000000895000000000089600000000008950000000000895000000000089900046000000000000006000000000000005379600000000000000009999123100000010000000000000BRBEESACNOR9395
012024091902BEES4       010BANESTES    PN           R$  000000000095400000000009640000000000950000000000095300000000009510000000000951000000000096200019000000000000002400000000000002287600000000000000009999123100000010000000000000BRBEESACNPR6320
012024091902BPAC11      010BTGP BANCO  UNT     N2   R$  000000000354000000000035450000000003470000000000348800000000034710000000003470000000000348316819000000000006572700000000022925857800000000000000009999123100000010000000000000BRBPACUNT006119
012024091902BPAC3       010BTGP BANCO  ON      N2   R$  000000000165200000000016650000000001622000000000164600000000016350000000001630000000000166100030000000000000003500000000000005763700000000000000009999123100000010000000000000BRBPACACNOR7134
012024091902BPAC5       010BTGP BANCO  PNA     N2   R$  000000000092100000000009210000000000910000000000091500000000009150000000000910000000000093100022000000000000003800000000000003477300000000000000009999123100000010000000000000BRBPACACNPA0134
012024091902CPFE3       010CPFL ENERGIAON      NM   R$  000000000337800000000033860000000003342000000000335700000000033470000000003346000000000336104458000000000001142200000000003835135900000000000000009999123100000010000000000000BRCPFEACNOR0137
012024091902CPLE3       010COPEL       ON      N2   R$  000000000097300000000009730000000000955000000000095800000000009560000000000956000000000095705294000000000003089500000000002962791000000000000000009999123100000010000000000000BRCPLEACNOR8149
012024091902CPLE6       010COPEL       PNB     N2   R$  000000000107800000000010800000000001063000000000106800000000010650000000001065000000000106613116000000000008944900000000009556896100000000000000009999123100000010000000000000BRCPLEACNPB9146
012024091902EGIE3       010ENGIE BRASILON      NM   R$  000000000439800000000044070000000004346000000000437200000000043460000000004346000000000434704724000000000001002200000000004381865100000000000000009999123100000010000000000000BREGIEACNOR9127
012024091902AERI3       010AERIS       ON      NM   R$  000000000082200000000008220000000000728000000000076400000000007280000000000728000000000073501506000000000000588300000000000449519700000000000000009999123100000010000000000000BRAERIACNOR4102
012024091902WEGE3       010WEG         ON      NM   R$  000000000533000000000053500000000005282000000000531500000000053260000000005319000000000532817090000000000004842400000000025740705200000000000000009999123100000010000000000000BRWEGEACNOR0224
012024091902AESB3       010AES BRASIL  ON      NM   R$  000000000116600000000011680000000001165000000000116600000000011670000000001167000000000116802179000000000002125500000000002479072700000000000000009999123100000010000000000000BRAESBACNOR7107
012024091902AFLT3       010AFLUENTE T  ON           R$  000000000071000000000007100000000000710000000000071000000000007100000000000710000000000072800001000000000000000300000000000000213000000000000000009999123100000010000000000000BRAFLTACNOR1122
012024091902AGRO3       010BRASILAGRO  ON      NM   R$  000000000268100000000026820000000002591000000000263400000000026400000000002610000000000264001719000000000000379200000000000999103700000000000000009999123100000010000000000000BRAGROACNOR7114
012024091902ALLD3       010ALLIED      ON      NM   R$  000000000076100000000007660000000000746000000000075400000000007470000000000746000000000075800143000000000000038200000000000028821300000000000000009999123100000010000000000000BRALLDACNOR3106
012024091902ALOS3       010ALLOS       ON      NM   R$  000000000231600000000023180000000002282000000000229600000000022900000000002290000000000229110715000000000003660300000000008405909300000000000000009999123100000010000000000000BRALOSACNOR5101
012024091902VITT3       010VITTIA      ON      NM   R$  000000000061300000000006160000000000590000000000060300000000005900000000000590000000000059301186000000000001357000000000000818308600000000000000009999123100000010000000000000BRVITTACNOR4107
012024091902VIVA3       010VIVARA S.A. ON      NM   R$  000000000290300000000029100000000002854000000000288200000000028670000000002866000000000287513454000000000002679800000000007723526500000000000000009999123100000010000000000000BRVIVAACNOR0107
012024091902VIVR3       010VIVER       ON      NM   R$  000000000020400000000002070000000000198000000000020100000000001980000000000198000000000020300141000000000000095300000000000019225300000000000000009999123100000010000000000000BRVIVRACNOR4123
012024091902VIVT3       010TELEF BRASILON           R$  000000000559000000000056000000000005511000000000554200000000055200000000005518000000000554013884000000000002055400000000011393067900000000000000009999123100000010000000000000BRVIVTACNOR0184
012024091902VLID3       010VALID       ON      NM   R$  000000000238400000000023910000000002301000000000232900000000023140000000002304000000000231402473000000000000398800000000000928822700000000000000009999123100000010000000000000BRVLIDACNOR5144
012024091902BAHI3       010BAHEMA      ON      MA   R$  000000000066900000000007000000000000660000000000067100000000007000000000000677000000000070000014000000000000005900000000000003960300000000000000009999123100000010000000000000BRBAHIACNOR1074
012024091902BAUH4       010EXCELSIOR   PN           R$  000000000794900000000079490000000007949000000000794900000000079490000000007750000000000795000001000000000000000400000000000003179600000000000000009999123100000010000000000000BRBAUHACNPR3118
012024091902BAZA3       010AMAZONIA    ON           R$  000000000956500000000096580000000009300000000000941900000000093000000000009280000000000959800015000000000000001900000000000017896500000000000000009999123100000010000000000000BRBAZAACNOR0179
012024091902BBAS3       010BRASIL      ON  EJ  NM   R$  000000000283600000000028440000000002791000000000280600000000027910000000002791000000000279524247000000000014963300000000041987812800000000000000009999123100000010000000000000BRBBASACNOR3326
012024091902BEEF3       010MINERVA     ON      NM   R$  000000000067300000000006820000000000667000000000067200000000006690000000000669000000000067007716000000000006790000000000004564457800000000000000009999123100000010000000000000BRBEEFACNOR6116
012024091902DESK3       010DESKTOP     ON      NM   R$  000000000160600000000016740000000001605000000000165700000000016740000000001645000000000167401121000000000000364000000000000603169600000000000000009999123100000010000000000000BRDESKACNOR2104
012024091902DEXP3       010DEXXOS PAR  ON      N1   R$  000000000091400000000009170000000000898000000000090400000000009030000000000903000000000091200432000000000000214900000000000194398400000000000000009999123100000010000000000000BRDEXPACNOR1105
012024091902DEXP4       010DEXXOS PAR  PN      N1   R$  000000000092000000000009200000000000894000000000090400000000008940000000000894000000000090500030000000000000007900000000000007147700000000000000009999123100000010000000000000BRDEXPACNPR8105
012024091902DIRR3       010DIRECIONAL  ON  ED  NM   R$  000000000328300000000032940000000003215000000000325400000000032440000000003241000000000324407508000000000001265900000000004119274600000000000000009999123100000010000000000000BRDIRRACNOR0119
012024091902SANB11      010SANTANDER BRUNT          R$  000000000304100000000030450000000003018000000000303000000000030180000000003017000000000302008146000000000001397800000000004236035300000000000000009999123100000010000000000000BRSANBCDAM13165
012024091902SANB3       010SANTANDER BRON           R$  000000000145700000000014570000000001441000000000144800000000014500000000001444000000000145000338000000000000052300000000000075740900000000000000009999123100000010000000000000BRSANBACNOR8172
012024091902SANB4       010SANTANDER BRPN           R$  000000000158500000000015880000000001577000000000158100000000015810000000001577000000000158100370000000000000073900000000000116909300000000000000009999123100000010000000000000BRSANBACNPR5172
012024091902SAPR11      010SANEPAR     UNT     N2   R$  000000000321400000000032250000000003143000000000316800000000031700000000003165000000000317006366000000000001460400000000004627616200000000000000009999123100000010000000000000BRSAPRCDAM13118
012024091902SAPR3       010SANEPAR     ON      N2   R$  000000000060300000000006080000000000591000000000059900000000006040000000000599000000000060400997000000000000230500000000000138230700000000000000009999123100000010000000000000BRSAPRACNOR9159
012024091902SAPR4       010SANEPAR     PN      N2   R$  000000000064900000000006510000000000635000000000063800000000006400000000000639000000000064104877000000000001388300000000000886221400000000000000009999123100000010000000000000BRSAPRACNPR6159
012024091902TIMS3       010TIM         ON      NM   R$  000000000187700000000018810000000001848000000000185500000000018490000000001848000000000185020793000000000009540400000000017700811900000000000000009999123100000010000000000000BRTIMSACNOR5117
012024091902TOTS3       010TOTVS       ON      NM   R$  000000000299000000000030060000000002958000000000298300000000029790000000002974000000000298007710000000000002592800000000007735945100000000000000009999123100000010000000000000BRTOTSACNOR8145
012024091902TPIS3       010TRIUNFO PARTON      NM   R$  000000000050100000000005150000000000495000000000050300000000004950000000000492000000000051000117000000000000034400000000000017309800000000000000009999123100000010000000000000BRTPISACNOR8118
012024091902TRAD3       010TC          ON      NM   R$  000000000050600000000005200000000000456000000000047600000000004600000000000460000000000046900850000000000000350800000000000167142000000000000000009999123100000010000000000000BRTRADACNOR3102
012024091902TRIS3       010TRISUL      ON      NM   R$  000000000051900000000005270000000000511000000000051500000000005120000000000511000000000051201486000000000000630800000000000325395000000000000000009999123100000010000000000000BRTRISACNOR4118
012024091902TRPL3       010TRAN PAULISTON      N1   R$  000000000317000000000031800000000003159000000000317000000000031800000000003155000000000318800011000000000000001300000000000004121100000000000000009999123100000010000000000000BRTRPLACNOR4185
012024091902TRPL4       010TRAN PAULISTPN      N1   R$  000000000247000000000024720000000002452000000000245900000000024560000000002456000000000245807555000000000002210700000000005436154200000000000000009999123100000010000000000000BRTRPLACNPR1185
012024091902JHSF3       010JHSF PART   ON      NM   R$  000000000045600000000004580000000000434000000000044400000000004340000000000434000000000043502894000000000003363000000000001494028600000000000000009999123100000010000000000000BRJHSFACNOR2139
012024091902JSLG3       010JSL         ON      NM   R$  000000000094200000000009480000000000927000000000093200000000009360000000000929000000000093702023000000000000745200000000000694828700000000000000009999123100000010000000000000BRJSLGACNOR2121
012024091902MOVI3       010MOVIDA      ON      NM   R$  000000000072500000000007280000000000684000000000069600000000006870000000000686000000000068705884000000000003409900000000002374613200000000000000009999123100000010000000000000BRMOVIACNOR0122
012024091902RAIL3       010RUMO S.A.   ON      NM   R$  000000000206800000000020760000000002038000000000205200000000020480000000002040000000000204820266000000000008858100000000018182507200000000000000009999123100000010000000000000BRRAILACNOR9105
012024091902VAMO3       010VAMOS       ON      NM   R$  000000000072100000000007250000000000689000000000070000000000006890000000000689000000000069013957000000000009918700000000006943390700000000000000009999123100000010000000000000BRVAMOACNOR7105
012024091902WEST3       010WESTWING    ON      NM   R$  000000000008600000000000860000000000085000000000008500000000000850000000000085000000000008600019000000000000026000000000000002215600000000000000009999123100000010000000000000BRWESTACNOR3100
012024091902WHRL3       010WHIRLPOOL   ON  ED       R$  000000000043500000000004510000000000435000000000044100000000004440000000000437000000000044400028000000000000004300000000000001899500000000000000009999123100000010000000000000BRWHRLACNOR5129
012024091902WHRL4       010WHIRLPOOL   PN  ED       R$  000000000047000000000004790000000000462000000000046400000000004620000000000462000000000046600057000000000000017000000000000007902000000000000000009999123100000010000000000000BRWHRLACNPR2129
012024091902WIZC3       010WIZ CO      ON      NM   R$  000000000059000000000005950000000000584000000000058700000000005850000000000585000000000058601431000000000000521400000000000306140600000000000000009999123100000010000000000000BRWIZCACNOR5102
012024091902WLMM4       010WLM IND COM PN           R$  000000000308000000000031460000000003068000000000311400000000031430000000002968000000000314400012000000000000001400000000000004360300000000000000009999123100000010000000000000BRWLMMACNPR3119
012024091902KEPL3       010KEPLER WEBERON      NM   R$  000000000109300000000011000000000001055000000000106900000000010550000000001054000000000106002574000000000000835400000000000893053300000000000000009999123100000010000000000000BRKEPLACNOR1064
012024091902LUPA3       010LUPATECH    ON      NM   R$  000000000014200000000001490000000000142000000000014400000000001420000000000142000000000014400117000000000000096900000000000013984800000000000000009999123100000010000000000000BRLUPAACNOR8112
012024091902LVTC3       010WDC NETWORKSON      NM   R$  000000000041200000000004160000000000393000000000040300000000003930000000000391000000000039700068000000000000023600000000000009529800000000000000009999123100000010000000000000BRLVTCACNOR4102
012024091902LWSA3       010LWSA        ON      NM   R$  000000000045600000000004560000000000435000000000044500000000004360000000000435000000000043612393000000000005966700000000002657915400000000000000009999123100000010000000000000BRLWSAACNOR8103
012024091902MAPT4       010CEMEPE      PN           R$  000000000055000000000005590000000000486000000000052700000000004900000000000460000000000050000005000000000000000500000000000000263500000000000000009999123100000010000000000000BRMAPTACNPR5106
012024091902MATD3       010MATER DEI   ON      NM   R$  000000000050000000000005000000000000465000000000047700000000004650000000000465000000000046702624000000000000462100000000000220697600000000000000009999123100000010000000000000BRMATDACNOR4104
012024091902ROMI3       010ROMI        ON      NM   R$  000000000117100000000011710000000001141000000000115100000000011410000000001141000000000114501063000000000000235700000000000271300700000000000000009999123100000010000000000000BRROMIACNOR8195
012024091902TASA3       010TAURUS ARMASON      N2   R$  000000000111200000000011120000000001100000000000110600000000011100000000001105000000000111200088000000000000017900000000000019806700000000000000009999123100000010000000000000BRTASAACNOR7104
012024091902TASA4       010TAURUS ARMASPN      N2   R$  000000000110000000000011030000000001092000000000109700000000010950000000001095000000000109701233000000000000284000000000000311786500000000000000009999123100000010000000000000BRTASAACNPR4104
012024091902TCSA3       010TECNISA     ON      NM   R$  000000000019800000000001980000000000190000000000019400000000001900000000000190000000000019300408000000000000216300000000000041990500000000000000009999123100000010000000000000BRTCSAACNOR3112
012024091902TECN3       010TECHNOS     ON      NM   R$  000000000051100000000005110000000000500000000000050100000000005040000000000500000000000050400156000000000000060700000000000030447600000000000000009999123100000010000000000000BRTECNACNOR6109
012024091902TELB3       010TELEBRAS    ON           R$  000000000139900000000013990000000001389000000000139500000000013890000000001368000000000139500005000000000000000500000000000000697800000000000000009999123100000010000000000000BRTELBACNOR2140
012024091902TELB4       010TELEBRAS    PN           R$  000000000089900000000008990000000000889000000000089200000000008910000000000891000000000089600014000000000000003600000000000003214400000000000000009999123100000010000000000000BRTELBACNPR9140
012024091902TEND3       010TENDA       ON      NM   R$  000000000147100000000014750000000001407000000000142900000000014200000000001420000000000142209500000000000003936100000000005625409300000000000000009999123100000010000000000000BRTENDACNOR4111
012024091902TFCO4       010TRACK FIELD PN      N2   R$  000000000114200000000011420000000001122000000000113300000000011300000000001130000000000113800819000000000000138600000000000157072200000000000000009999123100000010000000000000BRTFCOACNPR8114
012024091902TGMA3       010TEGMA       ON      NM   R$  000000000274800000000027850000000002715000000000274100000000027450000000002720000000000274600868000000000000159800000000000438021300000000000000009999123100000010000000000000BRTGMAACNOR7145
012024091902MTRE3       010MITRE REALTYON      NM   R$  000000000039800000000004010000000000380000000000039000000000003800000000000380000000000038301219000000000000567700000000000221625700000000000000009999123100000010000000000000BRMTREACNOR6114
012024091902MTSA4       010METISA      PN           R$  000000000403400000000040580000000004033000000000404400000000040480000000004010000000000404900008000000000000000800000000000003235400000000000000009999123100000010000000000000BRMTSAACNPR9072
012024091902MULT3       010MULTIPLAN   ON      N2   R$  000000000270500000000027070000000002654000000000267900000000026540000000002652000000000265718126000000000004381100000000011740141300000000000000009999123100000010000000000000BRMULTACNOR5139
012024091902MYPK3       010IOCHP-MAXIONON      NM   R$  000000000119800000000011980000000001157000000000117200000000011630000000001163000000000116503261000000000000602000000000000705979000000000000000009999123100000010000000000000BRMYPKACNOR7155
012024091902AZZA3       010AZZAS 2154  ON      NM   R$  000000000481500000000048590000000004630000000000473400000000046300000000004630000000000463506374000000000001548700000000007332571100000000000000009999123100000010000000000000BRAZZAACNOR9100
012024091902CEBR3       010CEB         ON           R$  000000000188400000000018840000000001883000000000188300000000018830000000001883000000000188400005000000000000000500000000000000941800000000000000009999123100000010000000000000BRCEBRACNOR5125
012024091902CEBR5       010CEB         PNA          R$  000000000163000000000016670000000001617000000000162200000000016170000000001601000000000164700017000000000000004500000000000007302000000000000000009999123100000010000000000000BRCEBRACNPA8124
012024091902CEBR6       010CEB         PNB          R$  000000000180000000000018080000000001795000000000179800000000017950000000001795000000000180000004000000000000001100000000000001978300000000000000009999123100000010000000000000BRCEBRACNPB6124
012024091902CEEB3       010COELBA      ON           R$  000000000392000000000039400000000003920000000000393500000000039390000000003853000000000392900006000000000000000600000000000002361400000000000000009999123100000010000000000000BRCEEBACNOR3199
012024091902CGAS5       010COMGAS      PNA          R$  000000001280100000000128010000000012801000000001280100000000128010000000012801000000001285000001000000000000000100000000000001280100000000000000009999123100000010000000000000BRCGASACNPA3161
012024091902CGRA3       010GRAZZIOTIN  ON           R$  000000000251000000000025100000000002499000000000250500000000024990000000002499000000000253300006000000000000001100000000000002756000000000000000009999123100000010000000000000BRCGRAACNOR2083
012024091902CGRA4       010GRAZZIOTIN  PN           R$  000000000252600000000025280000000002481000000000249900000000024810000000002480000000000252300034000000000000005000000000000012495100000000000000009999123100000010000000000000BRCGRAACNPR9083
012024091902CURY3       010CURY S/A    ON      NM   R$  000000000255500000000025680000000002511000000000254100000000025240000000002524000000000252604849000000000002672700000000006791470000000000000000009999123100000010000000000000BRCURYACNOR3109
012024091902CVCB3       010CVC BRASIL  ON      NM   R$  000000000020900000000002140000000000198000000000020400000000002010000000000201000000000020214439000000000037203100000000007592058700000000000000009999123100000010000000000000BRCVCBACNOR1116
012024091902ENEV3       010ENEVA       ON      NM   R$  000000000140700000000014220000000001401000000000140600000000014030000000001401000000000140322567000000000006895100000000009695146800000000000000009999123100000010000000000000BRENEVACNOR8106
012024091902ENGI11      010ENERGISA    UNT     N2   R$  000000000482500000000048570000000004704000000000474400000000047260000000004705000000000472906840000000000001378600000000006540818500000000000000009999123100000010000000000000BRENGICDAM16136
012024091902ENGI3       010ENERGISA    ON      N2   R$  000000000145500000000014550000000001401000000000141700000000014010000000001401000000000148900034000000000000004800000000000006802600000000000000009999123100000010000000000000BRENGIACNOR0146
012024091902ENGI4       010ENERGISA    PN      N2   R$  000000000084500000000008560000000000818000000000082800000000008180000000000818000000000082800043000000000000008400000000000006961000000000000000009999123100000010000000000000BRENGIACNPR7142
012024091902SNSY3       010SANSUY      ON           R$  000000000123200000000012320000000001232000000000123200000000012320000000001185000000000123000002000000000000000400000000000000492800000000000000009999123100000010000000000000BRSNSYACNOR2113
012024091902SNSY5       010SANSUY      PNA          R$  000000000056500000000005740000000000552000000000055800000000005560000000000555000000000056900018000000000000006000000000000003353400000000000000009999123100000010000000000000BRSNSYACNPA5111
012024091902SOJA3       010BOA SAFRA   ON      NM   R$  000000000128000000000012900000000001235000000000125200000000012350000000001235000000000124103494000000000000787000000000000985602900000000000000009999123100000010000000000000BRSOJAACNOR9105
012024091902SRNA3       010SERENA      ON      NM   R$  000000000090000000000009050000000000885000000000089700000000008870000000000887000000000089004252000000000003159500000000002834111400000000000000009999123100000010000000000000BRSRNAACNOR4100
012024091902STBP3       010SANTOS BRP  ON      NM   R$  000000000134100000000013460000000001296000000000130700000000013000000000001299000000000130110080000000000004765900000000006232250000000000000000009999123100000010000000000000BRSTBPACNOR3131
012024091902BBDC3       010BRADESCO    ON      N1   R$  000000000136500000000013710000000001348000000000135500000000013480000000001347000000000134906621000000000004085300000000005539381100000000000000009999123100000010000000000000BRBBDCACNOR1774
012024091902BBDC4       010BRADESCO    PN      N1   R$  000000000153000000000015300000000001499000000000150800000000015030000000001503000000000150452634000000000038153100000000057571234400000000000000009999123100000010000000000000BRBBDCACNPR8774
012024091902CAMB3       010CAMBUCI     ON           R$  000000000119600000000012210000000001170000000000119700000000011900000000001169000000000119200207000000000000084500000000000101204200000000000000009999123100000010000000000000BRCAMBACNOR4131
012024091902CAML3       010CAMIL       ON      NM   R$  000000000094000000000009460000000000905000000000092400000000009050000000000904000000000090502321000000000000564100000000000521388900000000000000009999123100000010000000000000BRCAMLACNOR3129
012024091902CASH3       010MELIUZ      ON      NM   R$  000000000041900000000004300000000000411000000000041800000000004110000000000411000000000041402086000000000001133400000000000474468800000000000000009999123100000010000000000000BRCASHACNOR8107
012024091902CBAV3       010CBA         ON      NM   R$  000000000050300000000005090000000000484000000000049300000000004840000000000484000000000048905197000000000002362800000000001165919400000000000000009999123100000010000000000000BRCBAVACNOR5104
012024091902ITSA3       010ITAUSA      ON      N1   R$  000000000111500000000011250000000001109000000000111500000000011160000000001116000000000111700349000000000000127900000000000142729500000000000000009999123100000010000000000000BRITSAACNOR0442
012024091902ITSA4       010ITAUSA      PN      N1   R$  000000000111400000000011280000000001109000000000111900000000011140000000001114000000000111643946000000000054898200000000061466428200000000000000009999123100000010000000000000BRITSAACNPR7442
012024091902KLBN11      010KLABIN S/A  UNT     N2   R$  000000000213500000000021500000000002117000000000212800000000021290000000002123000000000213013082000000000004047800000000008617691800000000000000009999123100000010000000000000BRKLBNCDAM18143
012024091902KLBN3       010KLABIN S/A  ON      N2   R$  000000000043300000000004330000000000426000000000042800000000004270000000000427000000000043000380000000000000168900000000000072444500000000000000009999123100000010000000000000BRKLBNACNOR2171
012024091902KLBN4       010KLABIN S/A  PN      N2   R$  000000000042600000000004300000000000422000000000042400000000004220000000000422000000000042401426000000000001125500000000000477591900000000000000009999123100000010000000000000BRKLBNACNPR9171
012024091902CCRO3       010CCR SA      ON      NM   R$  000000000132000000000013200000000001286000000000129600000000012860000000001286000000000129006396000000000003478300000000004509043200000000000000009999123100000010000000000000BRCCROACNOR2145
012024091902CEAB3       010CEA MODAS   ON      NM   R$  000000000109100000000011080000000001069000000000108500000000010750000000001073000000000107605587000000000003128500000000003395961300000000000000009999123100000010000000000000BRCEABACNOR1102
012024091902CSNA3       010SID NACIONALON           R$  000000000121000000000012330000000001202000000000121200000000012050000000001204000000000120609616000000000004376400000000005307016900000000000000009999123100000010000000000000BRCSNAACNOR6261
012024091902ELMD3       010ELETROMIDIA ON      NM   R$  000000000182400000000018440000000001751000000000178800000000017820000000001752000000000178400459000000000000174600000000000312270700000000000000009999123100000010000000000000BRELMDACNOR3101
012024091902EMAE4       010EMAE        PN           R$  000000000465000000000046500000000004381000000000451700000000045100000000004440000000000451000035000000000000007900000000000035688700000000000000009999123100000010000000000000BREMAEACNPR1125
012024091902EMBR3       010EMBRAER     ON      NM   R$  000000000477500000000047880000000004694000000000473200000000047490000000004731000000000474917363000000000003924700000000018573052800000000000000009999123100000010000000000000BREMBRACNOR4191
012024091902HBOR3       010HELBOR      ON      NM   R$  000000000020100000000002030000000000195000000000019800000000001950000000000195000000000019600432000000000000601600000000000119680300000000000000009999123100000010000000000000BRHBORACNOR3118
012024091902HBRE3       010HBR REALTY  ON      NM   R$  000000000050100000000005010000000000487000000000049200000000004940000000000489000000000049500746000000000000406300000000000199970300000000000000009999123100000010000000000000BRHBREACNOR4100
012024091902HBSA3       010HIDROVIAS   ON      NM   R$  000000000034600000000003510000000000341000000000034400000000003440000000000342000000000034402893000000000001464300000000000504604700000000000000009999123100000010000000000000BRHBSAACNOR0100
012024091902NEOE3       010NEOENERGIA  ON      NM   R$  000000000197800000000020280000000001978000000000200100000000019960000000001990000000000199607718000000000001937400000000003877034000000000000000009999123100000010000000000000BRNEOEACNOR3123
012024091902NGRD3       010NEOGRID     ON      NM   R$  000000000011600000000001170000000000114000000000011400000000001140000000000114000000000011500418000000000000279300000000000032112600000000000000009999123100000010000000000000BRNGRDACNOR3104
012024091902NINJ3       010GETNINJAS   ON      NM   R$  000000000046700000000004770000000000465000000000046800000000004700000000000454000000000047900024000000000000004800000000000002248500000000000000009999123100000010000000000000BRNINJACNOR5101
012024091902CSED3       010CRUZEIRO EDUON      NM   R$  000000000034800000000003570000000000347000000000035000000000003570000000000347000000000035700677000000000000304800000000000106978300000000000000009999123100000010000000000000BRCSEDACNOR9105
012024091902CSMG3       010COPASA      ON  EDJ NM   R$  000000000256100000000025610000000002507000000000252400000000025120000000002512000000000251604733000000000001021800000000002579827700000000000000009999123100000010000000000000BRCSMGACNOR5175
012024091902GRND3       010GRENDENE    ON      NM   R$  000000000060700000000006090000000000592000000000059800000000005920000000000592000000000059402107000000000001162800000000000696282500000000000000009999123100000010000000000000BRGRNDACNOR3175
012024091902NTCO3       010GRUPO NATURAON      NM   R$  000000000143000000000014580000000001417000000000143500000000014230000000001422000000000143313432000000000005829000000000008367610800000000000000009999123100000010000000000000BRNTCOACNOR5106
012024091902PRNR3       010PRINER      ON      NM   R$  000000000132400000000013310000000001300000000000130900000000013000000000001300000000000131400802000000000000219600000000000287576700000000000000009999123100000010000000000000BRPRNRACNOR4109
012024091902PSSA3       010PORTO SEGUROON      NM   R$  000000000357500000000036180000000003545000000000356500000000035600000000003557000000000356108239000000000001798600000000006413480200000000000000009999123100000010000000000000BRPSSAACNOR7155
012024091902PTBL3       010PORTOBELLO  ON      NM   R$  000000000049500000000004970000000000487000000000048900000000004880000000000487000000000048801854000000000000594400000000000290944400000000000000009999123100000010000000000000BRPTBLACNOR8132
012024091902PTNT3       010PETTENATI   ON           R$  000000000093800000000009800000000000938000000000095800000000009710000000000945000000000097100014000000000000004400000000000004217300000000000000009999123100000010000000000000BRPTNTACNOR6042
012024091902PTNT4       010PETTENATI   PN           R$  000000000072000000000007200000000000680000000000070000000000007200000000000680000000000072000059000000000000022700000000000015890300000000000000009999123100000010000000000000BRPTNTACNPR3047
012024091902GUAR3       010GUARARAPES  ON      NM   R$  000000000089800000000009040000000000861000000000087500000000008720000000000870000000000087203227000000000000835700000000000731940500000000000000009999123100000010000000000000BRGUARACNOR4173
012024091902HAGA3       010HAGA S/A    ON           R$  000000000026500000000002750000000000246000000000025800000000002550000000000247000000000025600107000000000000045700000000000011820700000000000000009999123100000010000000000000BRHAGAACNOR7103
012024091902HAGA4       010HAGA S/A    PN           R$  000000000011600000000001180000000000115000000000011700000000001170000000000116000000000011700031000000000000023100000000000002709600000000000000009999123100000010000000000000BRHAGAACNPR4103
012024091902HAPV3       010HAPVIDA     ON      NM   R$  000000000047000000000004710000000000447000000000045400000000004470000000000447000000000044826483000000000053423800000000024275622100000000000000009999123100000010000000000000BRHAPVACNOR4114
012024091902QUAL3       010QUALICORP   ON      NM   R$  000000000021500000000002160000000000200000000000020700000000002000000000000200000000000020203790000000000004700200000000000976367000000000000000009999123100000010000000000000BRQUALACNOR6120
012024091902SBFG3       010GRUPO SBF   ON      NM   R$  000000000177000000000017900000000001722000000000175300000000017430000000001739000000000174304324000000000000967800000000001697276700000000000000009999123100000010000000000000BRSBFGACNOR1103
012024091902SBSP3       010SABESP      ON      NM   R$  000000000960900000000096680000000009497000000000955500000000094970000000009491000000000949714455000000000002257200000000021568996000000000000000009999123100000010000000000000BRSBSPACNOR5161
012024091902TTEN3       0103TENTOS     ON      NM   R$  000000000120000000000012110000000001190000000000120000000000011900000000001190000000000119903716000000000000691400000000000830066900000000000000009999123100000010000000000000BRTTENACNOR0103
012024091902ANIM3       010ANIMA       ON      NM   R$  000000000031900000000003200000000000298000000000030500000000002980000000000298000000000029908182000000000010648600000000003248057400000000000000009999123100000010000000000000BRANIMACNOR6109
012024091902ARML3       010ARMAC       ON      NM   R$  000000000089900000000009200000000000890000000000090100000000008950000000000888000000000089502206000000000000564300000000000508696000000000000000009999123100000010000000000000BRARMLACNOR1112
012024091902ASAI3       010ASSAI       ON      NM   R$  000000000088100000000008840000000000824000000000084700000000008240000000000824000000000082520284000000000019129200000000016220359300000000000000009999123100000010000000000000BRASAIACNOR0106
012024091902PATI3       010PANATLANTICAON           R$  000000000273300000000027330000000002566000000000263600000000026490000000002611000000000269900007000000000000000700000000000001845300000000000000009999123100000010000000000000BRPATIACNOR6066
012024091902PFRM3       010PROFARMA    ON      NM   R$  000000000062300000000006290000000000609000000000061600000000006130000000000610000000000061300571000000000000127600000000000078648000000000000000009999123100000010000000000000BRPFRMACNOR1116
012024091902PGMN3       010PAGUE MENOS ON      NM   R$  000000000029400000000002940000000000273000000000028000000000002730000000000273000000000027801986000000000000865200000000000242777200000000000000009999123100000010000000000000BRPGMNACNOR8103
012024091902TUPY3       010TUPY        ON      NM   R$  000000000276600000000027660000000002684000000000270400000000026840000000002684000000000269601805000000000000280600000000000758893600000000000000009999123100000010000000000000BRTUPYACNOR1184
012024091902UCAS3       010UNICASA     ON      NM   R$  000000000022300000000002250000000000221000000000022200000000002220000000000222000000000022300071000000000000010900000000000002426700000000000000009999123100000010000000000000BRUCASACNOR1113
012024091902UGPA3       010ULTRAPAR    ON      NM   R$  000000000226000000000022640000000002204000000000222000000000022120000000002211000000000221213728000000000005214300000000011580198200000000000000009999123100000010000000000000BRUGPAACNOR8156
012024091902MBLY3       010MOBLY       ON      NM   R$  000000000026300000000002630000000000237000000000024600000000002440000000000244000000000024501344000000000001204900000000000296889500000000000000009999123100000010000000000000BRMBLYACNOR5100
012024091902MDIA3       010M.DIASBRANCOON  EJ  NM   R$  000000000267800000000026960000000002612000000000263600000000026370000000002635000000000263703553000000000000792700000000002089949900000000000000009999123100000010000000000000BRMDIAACNOR7136
012024091902MDNE3       010MOURA DUBEUXON      NM   R$  000000000157100000000015720000000001492000000000151800000000015050000000001495000000000150502572000000000000500600000000000760159400000000000000009999123100000010000000000000BRMDNEACNOR9100
012024091902MEAL3       010IMC S/A     ON      NM   R$  000000000014300000000001430000000000136000000000013800000000001360000000000136000000000013800883000000000000662800000000000092026400000000000000009999123100000010000000000000BRMEALACNOR9105
012024091902MELK3       010MELNICK     ON      NM   R$  000000000036800000000003750000000000360000000000036400000000003610000000000360000000000036100915000000000000797500000000000291078100000000000000009999123100000010000000000000BRMELKACNOR8111
012024091902INTB3       010INTELBRAS   ON      NM   R$  000000000225700000000022760000000002228000000000224900000000022360000000002226000000000223702590000000000000518600000000001166832500000000000000009999123100000010000000000000BRINTBACNOR9112
012024091902IRBR3       010IRBBRASIL REON      NM   R$  000000000461100000000046890000000004524000000000458600000000045800000000004580000000000458304028000000000000796800000000003654641500000000000000009999123100000010000000000000BRIRBRACNOR4111
012024091902MGEL4       010MANGELS INDLPN           R$  000000000120100000000012010000000001200000000000120000000000012000000000001200000000000125700005000000000000000500000000000000600200000000000000009999123100000010000000000000BRMGELACNPR3147
012024091902MGLU3       010MAGAZ LUIZA ON  ATZ NM   R$  000000000116900000000011780000000001114000000000113700000000011160000000001115000000000111722567000000000020178600000000022958184100000000000000009999123100000010000000000000BRMGLUACNOR2125
012024091902RSUL4       010RIOSULENSE  PN           R$  000000000621700000000065890000000006216000000000629400000000062400000000006240000000000634000044000000000000005100000000000032104200000000000000009999123100000010000000000000BRRSULACNPR3114
012024091902AZEV3       010AZEVEDO     ON           R$  000000000013300000000001360000000000127000000000012900000000001270000000000127000000000012800633000000000001327900000000000172477800000000000000009999123100000010000000000000BRAZEVACNOR0121
012024091902AZEV4       010AZEVEDO     PN           R$  000000000013400000000001360000000000126000000000012900000000001260000000000126000000000012702003000000000004268500000000000551468000000000000000009999123100000010000000000000BRAZEVACNPR7121
012024091902AZUL4       010AZUL        PN      N2   R$  000000000058000000000005960000000000548000000000057200000000005610000000000560000000000056125298000000000050332000000000028798183000000000000000009999123100000010000000000000BRAZULACNPR4103
012024091902BIOM3       010BIOMM       ON      MA   R$  000000000104100000000010510000000000992000000000102400000000010180000000001017000000000103300323000000000000067700000000000069374000000000000000009999123100000010000000000000BRBIOMACNOR2112
012024091902BRAV3       010BRAVA       ON      NM   R$  000000000207000000000020840000000001820000000000191700000000018890000000001889000000000189046207000000000027311500000000052372804000000000000000009999123100000010000000000000BRBRAVACNOR3100
012024091902BRSR3       010BANRISUL    ON  EJ  N1   R$  000000000130600000000013190000000001291000000000130300000000013100000000001307000000000131000044000000000000006500000000000008471500000000000000009999123100000010000000000000BRBRSRACNOR3189
012024091902BRSR6       010BANRISUL    PNB EJ  N1   R$  000000000122700000000012270000000001188000000000119700000000011940000000001192000000000119404006000000000001377600000000001649880800000000000000009999123100000010000000000000BRBRSRACNPB4192
012024091902BSLI3       010BRB BANCO   ON           R$  000000000093100000000009310000000000925000000000092600000000009250000000000925000000000100100004000000000000001000000000000000926600000000000000009999123100000010000000000000BRBSLIACNOR5194
012024091902BSLI4       010BRB BANCO   PN           R$  000000000093300000000009370000000000930000000000093200000000009300000000000931000000000094600011000000000000003000000000000002798600000000000000009999123100000010000000000000BRBSLIACNPR2194
012024091902BPAN4       010BANCO PAN   PN      N1   R$  000000000106800000000010780000000001036000000000105500000000010360000000001035000000000104204645000000000001723100000000001818880700000000000000009999123100000010000000000000BRBPANACNPR1115
012024091902BRAP3       010BRADESPAR   ON      N1   R$  000000000176700000000017880000000001749000000000176300000000017490000000001749000000000176100771000000000000134600000000000237419200000000000000009999123100000010000000000000BRBRAPACNOR5148
012024091902BRAP4       010BRADESPAR   PN      N1   R$  000000000188500000000019040000000001869000000000188200000000018700000000001869000000000187008020000000000002860800000000005386281100000000000000009999123100000010000000000000BRBRAPACNPR2148
012024091902BRIT3       010BRISANET    ON      NM   R$  000000000033900000000003410000000000321000000000032800000000003210000000000320000000000032101100000000000000346900000000000113947900000000000000009999123100000010000000000000BRBRITACNOR0103
012024091902BRKM3       010BRASKEM     ON      N1   R$  000000000198200000000020300000000001919000000000198200000000019190000000001915000000000194700278000000000000044100000000000087431500000000000000009999123100000010000000000000BRBRKMACNOR1119
012024091902BRKM5       010BRASKEM     PNA     N1   R$  000000000204800000000020520000000001910000000000196600000000019100000000001910000000000191215039000000000005166400000000010157722500000000000000009999123100000010000000000000BRBRKMACNPA4121
012024091902BRKM6       010BRASKEM     PNB     N1   R$  000000000140200000000014020000000001313000000000132400000000013130000000001312000000000143000005000000000000000800000000000001059300000000000000009999123100000010000000000000BRBRKMACNPB2114
012024091902CRFB3       010CARREFOUR BRON      NM   R$  000000000092500000000009250000000000891000000000089900000000008920000000000891000000000089208182000000000008548200000000007686615600000000000000009999123100000010000000000000BRCRFBACNOR2116
012024091902CRPG5       010CRISTAL     PNA          R$  000000000283000000000028300000000002816000000000282200000000028160000000002816000000000284900011000000000000002000000000000005645600000000000000009999123100000010000000000000BRCRPGACNPA3119
012024091902CSAN3       010COSAN       ON      NM   R$  000000000132300000000013290000000001298000000000130900000000012990000000001299000000000130013674000000000008827300000000011557463500000000000000009999123100000010000000000000BRCSANACNOR6126
012024091902EKTR4       010ELEKTRO     PN           R$  000000000454500000000045450000000004535000000000454100000000045350000000004400000000000455500002000000000000000300000000000001362500000000000000009999123100000010000000000000BREKTRACNPR7164
012024091902ELET3       010ELETROBRAS  ON      N1   R$  000000000422000000000042370000000004120000000000417500000000041200000000004120000000000412823202000000000010337200000000043158080300000000000000009999123100000010000000000000BRELETACNOR6160
012024091902ELET6       010ELETROBRAS  PNB     N1   R$  000000000460100000000046570000000004551000000000459400000000045740000000004574000000000457509777000000000001709000000000007851947900000000000000009999123100000010000000000000BRELETACNPB7077
012024091902GGPS3       010GPS         ON      NM   R$  000000000192600000000019340000000001907000000000191900000000019200000000001920000000000192108542000000000002960600000000005683526700000000000000009999123100000010000000000000BRGGPSACNOR9103
012024091902GMAT3       010GRUPO MATEUSON      NM   R$  000000000075200000000007520000000000714000000000072500000000007200000000000720000000000072104049000000000002221100000000001610333200000000000000009999123100000010000000000000BRGMATACNOR7102
012024091902GOAU3       010GERDAU MET  ON      N1   R$  000000000108000000000011000000000001080000000000109000000000010830000000001077000000000108400103000000000000015900000000000017345400000000000000009999123100000010000000000000BRGOAUACNOR1268
012024091902GOAU4       010GERDAU MET  PN      N1   R$  000000000107100000000010900000000001065000000000107300000000010670000000001067000000000106808581000000000006012900000000006456836600000000000000009999123100000010000000000000BRGOAUACNPR8269
012024091902ALPA3       010ALPARGATAS  ON      N1   R$  000000000074000000000007400000000000725000000000072700000000007250000000000725000000000073700024000000000000012800000000000009305700000000000000009999123100000010000000000000BRALPAACNOR0231
012024091902ALPA4       010ALPARGATAS  PN      N1   R$  000000000074000000000007440000000000721000000000073100000000007250000000000724000000000072604213000000000002210800000000001616208600000000000000009999123100000010000000000000BRALPAACNPR7232
012024091902ESPA3       010ESPACOLASER ON      NM   R$  000000000011000000000001120000000000108000000000010900000000001100000000000108000000000011000352000000000000169600000000000018505600000000000000009999123100000010000000000000BRESPAACNOR7103
012024091902ESTR4       010ESTRELA     PN           R$  000000000045000000000004650000000000390000000000041200000000003900000000000321000000000039000069000000000000040100000000000016547300000000000000009999123100000010000000000000BRESTRACNPR0144
012024091902ETER3       010ETERNIT     ON      NM   R$  000000000059600000000006000000000000579000000000058600000000005860000000000586000000000058700546000000000000355600000000000208436200000000000000009999123100000010000000000000BRETERACNOR3244
012024091902EUCA4       010EUCATEX     PN      N1   R$  000000000163500000000016630000000001630000000000164500000000016500000000001647000000000165100265000000000000032400000000000053303600000000000000009999123100000010000000000000BREUCAACNPR8044
012024091902ABCB4       010ABC BRASIL  PN      N2   R$  000000000230800000000023170000000002285000000000230000000000022880000000002288000000000228901798000000000000297500000000000684394500000000000000009999123100000010000000000000BRABCBACNPR4146
012024091902ABEV3       010AMBEV S/A   ON           R$  000000000130000000000013110000000001289000000000130000000000012950000000001294000000000129632587000000000044713200000000058154149100000000000000009999123100000010000000000000BRABEVACNOR1128
012024091902BBSE3       010BBSEGURIDADEON      NM   R$  000000000357200000000035740000000003536000000000356200000000035360000000003536000000000354515437000000000008368500000000029810596400000000000000009999123100000010000000000000BRBBSEACNOR5125
012024091902EVEN3       010EVEN        ON      NM   R$  000000000067000000000006770000000000644000000000065400000000006440000000000644000000000064903320000000000000820300000000000537188400000000000000009999123100000010000000000000BREVENACNOR8119
012024091902EZTC3       010EZTEC       ON      NM   R$  000000000150000000000015150000000001445000000000146700000000014450000000001444000000000145005111000000000001531500000000002247448900000000000000009999123100000010000000000000BREZTCACNOR0126
012024091902COCE5       010COELCE      PNA          R$  000000000295000000000029670000000002938000000000294500000000029670000000002967000000000296900019000000000000033200000000000097781100000000000000009999123100000010000000000000BRCOCEACNPA3147
012024091902COGN3       010COGNA ON    ON      NM   R$  000000000014600000000001500000000000140000000000014400000000001410000000000140000000000014125932000000000032224600000000004656628500000000000000009999123100000010000000000000BRCOGNACNOR2105
012024091902DASA3       010DASA        ON  ES  NM   R$  000000000030800000000003090000000000298000000000030200000000002980000000000298000000000029901961000000000000801700000000000242784000000000000000009999123100000010000000000000BRDASAACNOR1123
012024091902AALR3       010ALLIAR      ON      NM   R$  000000000152900000000015490000000001451000000000148500000000015000000000001463000000000150000126000000000000020600000000000030594500000000000000009999123100000010000000000000BRAALRACNOR6102
012024091902FESA4       010FERBASA     PN      N1   R$  000000000079700000000008030000000000790000000000079500000000007950000000000795000000000079601524000000000000533300000000000424352400000000000000009999123100000010000000000000BRFESAACNPR5085
012024091902FHER3       010FER HERINGERON      NM   R$  000000000039600000000004060000000000392000000000039700000000003990000000000399000000000040100019000000000000003900000000000001548400000000000000009999123100000010000000000000BRFHERACNOR5103
012024091902INEP3       010INEPAR      ON           R$  000000000019600000000001970000000000190000000000019200000000001900000000000188000000000019000040000000000000016900000000000003246200000000000000009999123100000010000000000000BRINEPACNOR1143
012024091902INEP4       010INEPAR      PN           R$  000000000020000000000002050000000000195000000000019700000000001950000000000194000000000020300189000000000000032100000000000006355300000000000000009999123100000010000000000000BRINEPACNPR8143
012024091902DMVF3       010D1000VFARMA ON      NM   R$  000000000067800000000006890000000000665000000000068000000000006710000000000670000000000068000323000000000000062700000000000042658700000000000000009999123100000010000000000000BRDMVFACNOR9100
012024091902DOHL4       010DOHLER      PN           R$  000000000040200000000004150000000000402000000000041100000000004150000000000404000000000042100004000000000000000400000000000000164600000000000000009999123100000010000000000000BRDOHLACNPR9066
012024091902DOTZ3       010DOTZ SA     ON      NM   R$  000000000057200000000005890000000000560000000000056900000000005610000000000560000000000056100106000000000000036400000000000020745200000000000000009999123100000010000000000000BRDOTZACNOR7101
012024091902DTCY3       010DTCOM-DIRECTON           R$  000000000042600000000004260000000000426000000000042600000000004260000000000415000000000045500001000000000000000100000000000000042600000000000000009999123100000010000000000000BRDTCYACNOR5109
012024091902DXCO3       010DEXCO       ON      NM   R$  000000000080100000000008240000000000796000000000081100000000008080000000000808000000000081004979000000000002607700000000002116787000000000000000009999123100000010000000000000BRDXCOACNOR8105
012024091902EALT3       010ACO ALTONA  ON           R$  000000000150500000000015400000000001505000000000151700000000015390000000001490000000000154000005000000000000001100000000000001668900000000000000009999123100000010000000000000BREALTACNOR4138
012024091902EALT4       010ACO ALTONA  PN           R$  000000000139300000000014400000000001393000000000142300000000014330000000001423000000000143300052000000000000014500000000000020642100000000000000009999123100000010000000000000BREALTACNPR1138
012024091902ECOR3       010ECORODOVIAS ON      NM   R$  000000000078700000000007880000000000747000000000075900000000007470000000000747000000000075108443000000000003694700000000002807867900000000000000009999123100000010000000000000BRECORACNOR8120
012024091902FIEI3       010FICA        ON           R$  000000000080100000000010000000000000800000000000088800000000008350000000000824000000000090000027000000000000013100000000000011637100000000000000009999123100000010000000000000BRFIEIACNOR2100
012024091902FIQE3       010UNIFIQUE    ON      NM   R$  000000000040500000000004050000000000400000000000040300000000004050000000000403000000000040500931000000000000436300000000000176235100000000000000009999123100000010000000000000BRFIQEACNOR5107
012024091902FLRY3       010FLEURY      ON      NM   R$  000000000166600000000016720000000001648000000000165800000000016540000000001654000000000165510036000000000002045000000000003391689500000000000000009999123100000010000000000000BRFLRYACNOR5139
012024091902FRAS3       010FRAS-LE     ON      N1   R$  000000000209500000000021020000000002063000000000207300000000020650000000002064000000000206801654000000000000370200000000000767518400000000000000009999123100000010000000000000BRFRASACNOR0160
012024091902FRIO3       010METALFRIO   ON      NM   R$  000000001130000000000122000000000011300000000001190400000000113600000000011200000000001200000015000000000000001600000000000019047900000000000000009999123100000010000000000000BRFRIOACNOR2111
012024091902GFSA3       010GAFISA      ON      NM   R$  000000000026000000000002600000000000243000000000024800000000002430000000000243000000000024402778000000000002932700000000000730011700000000000000009999123100000010000000000000BRGFSAACNOR3125
012024091902GGBR3       010GERDAU      ON      N1   R$  000000000164800000000016940000000001642000000000166100000000016420000000001642000000000165400301000000000000049200000000000081735500000000000000009999123100000010000000000000BRGGBRACNOR1193
012024091902GGBR4       010GERDAU      PN      N1   R$  000000000185400000000018760000000001843000000000185200000000018450000000001844000000000184710856000000000007441600000000013784550500000000000000009999123100000010000000000000BRGGBRACNPR8193
012024091902ITUB3       010ITAUUNIBANCOON      N1   R$  000000000321300000000032150000000003170000000000318900000000031760000000003175000000000317603503000000000000788300000000002514244300000000000000009999123100000010000000000000BRITUBACNOR4340
012024091902ITUB4       010ITAUUNIBANCOPN      N1   R$  000000000368000000000036880000000003637000000000366100000000036600000000003660000000000366138709000000000023841600000000087303600200000000000000009999123100000010000000000000BRITUBACNPR1340
012024091902PETZ3       010PETZ        ON      NM   R$  000000000047700000000004770000000000460000000000046900000000004640000000000464000000000046507075000000000010395300000000004876834700000000000000009999123100000010000000000000BRPETZACNOR2110
012024091902RADL3       010RAIADROGASILON      NM   R$  000000000274400000000027660000000002713000000000274800000000027410000000002741000000000274220820000000000007560000000000020780738100000000000000009999123100000010000000000000BRRADLACNOR0157
012024091902SCAR3       010SAO CARLOS  ON      NM   R$  000000000234500000000023880000000002255000000000230500000000022800000000002280000000000229000258000000000000056200000000000129560600000000000000009999123100000010000000000000BRSCARACNOR7131
012024091902SEER3       010SER EDUCA   ON      NM   R$  000000000072800000000007290000000000678000000000070000000000006790000000000678000000000068001269000000000000350600000000000245529400000000000000009999123100000010000000000000BRSEERACNOR5119
012024091902SEQL3       010SEQUOIA LOG ON      NM   R$  000000000050500000000005200000000000472000000000048600000000004720000000000472000000000047801262000000000000652700000000000317337500000000000000009999123100000010000000000000BRSEQLACNOR2103
012024091902SHOW3       010TIME FOR FUNON      NM   R$  000000000010700000000001110000000000105000000000010700000000001050000000000105000000000010700289000000000000131000000000000014089800000000000000009999123100000010000000000000BRSHOWACNOR7105
012024091902SHUL4       010SCHULZ      PN           R$  000000000064700000000006550000000000636000000000064200000000006410000000000640000000000064101236000000000000473000000000000303679100000000000000009999123100000010000000000000BRSHULACNPR4156
012024091902SIMH3       010SIMPAR      ON      NM   R$  000000000059000000000005980000000000566000000000057700000000005670000000000567000000000056905692000000000003141700000000001814195500000000000000009999123100000010000000000000BRSIMHACNOR0107
012024091902SLCE3       010SLC AGRICOLAON      NM   R$  000000000171800000000017340000000001708000000000171900000000017080000000001708000000000171104883000000000001842600000000003167800900000000000000009999123100000010000000000000BRSLCEACNOR2125
012024091902UNIP3       010UNIPAR      ON           R$  000000000474000000000047800000000004703000000000473700000000047030000000004700000000000474000046000000000000006200000000000029371300000000000000009999123100000010000000000000BRUNIPACNOR7206
012024091902UNIP5       010UNIPAR      PNA          R$  000000000487900000000048790000000004786000000000486900000000048300000000004830000000000492600081000000000000015900000000000077423500000000000000009999123100000010000000000000BRUNIPACNPA0208
012024091902UNIP6       010UNIPAR      PNB          R$  000000000488300000000049520000000004855000000000490400000000048720000000004871000000000489901434000000000000216800000000001063210100000000000000009999123100000010000000000000BRUNIPACNPB8206
012024091902USIM3       010USIMINAS    ON      N1   R$  000000000062000000000006280000000000607000000000061600000000006070000000000607000000000061000907000000000000337900000000000208375200000000000000009999123100000010000000000000BRUSIMACNOR3167
012024091902USIM5       010USIMINAS    PNA     N1   R$  000000000063100000000006440000000000621000000000063200000000006230000000000622000000000062310119000000000012678100000000008015517100000000000000009999123100000010000000000000BRUSIMACNPA6169
012024091902VBBR3       010VIBRA       ON      NM   R$  000000000247100000000024780000000002434000000000245100000000024500000000002445000000000245115936000000000005620800000000013780080900000000000000009999123100000010000000000000BRVBBRACNOR1108
012024091902PETR3       010PETROBRAS   ON      N2   R$  000000000402000000000040290000000003955000000000397400000000039700000000003964000000000397015193000000000008486400000000033726711800000000000000009999123100000010000000000000BRPETRACNOR9206
012024091902PETR4       010PETROBRAS   PN      N2   R$  000000000365700000000036780000000003619000000000363500000000036270000000003626000000000362743834000000000025059700000000091094461700000000000000009999123100000010000000000000BRPETRACNPR6214
012024091902RENT3       010LOCALIZA    ON      NM   R$  000000000455800000000045710000000004425000000000448300000000044310000000004430000000000443327716000000000006541100000000029324735000000000000000009999123100000010000000000000BRRENTACNOR4196
012024091902SYNE3       010SYN PROP TECON      NM   R$  000000000080600000000008060000000000781000000000079000000000007840000000000782000000000078402519000000000000586500000000000463449900000000000000009999123100000010000000000000BRSYNEACNOR2103
012024091902YDUQ3       010YDUQS PART  ON      NM   R$  000000000108700000000011080000000001054000000000108200000000010540000000001054000000000105912036000000000004811400000000005210013500000000000000009999123100000010000000000000BRYDUQACNOR3105
012024091902ZAMP3       010ZAMP S.A.   ON           R$  000000000031100000000003110000000000295000000000030100000000002950000000000295000000000029602075000000000000490100000000000147772600000000000000009999123100000010000000000000BRZAMPACNOR5101
012024091902TAEE11      010TAESA       UNT     N2   R$  000000000345500000000034740000000003439000000000345600000000034390000000003439000000000344009817000000000002091500000000007230102400000000000000009999123100000010000000000000BRTAEECDAM10148
012024091902TAEE3       010TAESA       ON      N2   R$  000000000115000000000011580000000001141000000000114800000000011450000000001144000000000114700573000000000000116000000000000133197300000000000000009999123100000010000000000000BRTAEEACNOR9148
012024091902TAEE4       010TAESA       PN      N2   R$  000000000115600000000011620000000001149000000000115400000000011490000000001149000000000115000943000000000000218400000000000252162000000000000000009999123100000010000000000000BRTAEEACNPR6148
012024091902JALL3       010JALLESMACHADON      NM   R$  000000000067900000000006800000000000664000000000066900000000006700000000000667000000000067001228000000000000443600000000000297103600000000000000009999123100000010000000000000BRJALLACNOR0106
012024091902JBSS3       010JBS         ON      NM   R$  000000000329500000000033520000000003242000000000328300000000032840000000003283000000000328520615000000000009621600000000031590634200000000000000009999123100000010000000000000BRJBSSACNOR8122
012024091902KRSA3       010KORA SAUDE  ON      NM   R$  000000000005000000000000500000000000048000000000004900000000000490000000000048000000000004900137000000000000231300000000000011352000000000000000009999123100000010000000000000BRKRSAACNOR0100
012024091902LAND3       010TERRASANTAPAON      NM   R$  000000000138000000000014200000000001374000000000140000000000013920000000001379000000000139300140000000000000088200000000000123559500000000000000009999123100000010000000000000BRLANDACNOR9103
012024091902LAVV3       010LAVVI       ON      NM   R$  000000000088700000000008870000000000853000000000086100000000008590000000000854000000000086001535000000000000656100000000000565321700000000000000009999123100000010000000000000BRLAVVACNOR4113
012024091902LEVE3       010METAL LEVE  ON      NM   R$  000000000316500000000031980000000003129000000000314600000000031340000000003130000000000313401672000000000000270100000000000849996400000000000000009999123100000010000000000000BRLEVEACNOR2197
012024091902LJQQ3       010QUERO-QUERO ON      NM   R$  000000000039900000000004030000000000384000000000039200000000003850000000000384000000000038604971000000000004179500000000001641951300000000000000009999123100000010000000000000BRLJQQACNOR5104
012024091902LOGG3       010LOG COM PROPON      NM   R$  000000000233900000000023390000000002240000000000227200000000022550000000002255000000000225602032000000000000302100000000000686535200000000000000009999123100000010000000000000BRLOGGACNOR7107
012024091902LOGN3       010LOG-IN      ON      NM   R$  000000000360000000000036130000000003500000000000355400000000036130000000003519000000000361700064000000000000008700000000000030924600000000000000009999123100000010000000000000BRLOGNACNOR3105
012024091902LPSB3       010LOPES BRASILON      NM   R$  000000000018200000000001870000000000175000000000017800000000001770000000000175000000000017700333000000000000256300000000000045636200000000000000009999123100000010000000000000BRLPSBACNOR0114
012024091902LREN3       010LOJAS RENNERON      NM   R$  000000000191500000000019170000000001866000000000189100000000018860000000001885000000000188626681000000000017802400000000033668200700000000000000009999123100000010000000000000BRLRENACNOR1221
012024091902MRVE3       010MRV         ON      NM   R$  000000000080300000000008090000000000768000000000078000000000007680000000000768000000000077216732000000000011749600000000009171544700000000000000009999123100000010000000000000BRMRVEACNOR2127
012024091902PCAR3       010P.ACUCAR-CBDON      NM   R$  000000000030800000000003100000000000292000000000029800000000002940000000000294000000000029511044000000000012755900000000003812865300000000000000009999123100000010000000000000BRPCARACNOR3167
012024091902PDGR3       010PDG REALT   ON      NM   R$  000000000001600000000000160000000000015000000000001500000000000150000000000015000000000001600194000000000000464200000000000007177000000000000000009999123100000010000000000000BRPDGRACNOR8119
012024091902PDTC3       010PADTEC      ON      NM   R$  000000000019000000000001910000000000188000000000018900000000001890000000000188000000000018900023000000000000007900000000000001493500000000000000009999123100000010000000000000BRPDTCACNOR3101
012024091902PEAB3       010PAR AL BAHIAON           R$  000000000400000000000043000000000004000000000000420000000000043000000000004015000000000444900002000000000000000300000000000001260000000000000000009999123100000010000000000000BRPEABACNOR3133
012024091902PORT3       010WILSON SONS ON      NM   R$  000000000173100000000017400000000001715000000000172800000000017280000000001722000000000172901687000000000000501400000000000866652400000000000000009999123100000010000000000000BRPORTACNOR8109
012024091902POSI3       010POSITIVO TECON      NM   R$  000000000061400000000006160000000000596000000000060100000000005960000000000596000000000059803239000000000001877100000000001129055700000000000000009999123100000010000000000000BRPOSIACNOR9116
012024091902PRIO3       010PETRORIO    ON      NM   R$  000000000440600000000044370000000004292000000000437500000000044010000000004400000000000440133912000000000018121400000000079290072600000000000000009999123100000010000000000000BRPRIOACNOR1107
012024091902B3SA3       010B3          ON      NM   R$  000000000122200000000012260000000001200000000000120700000000012000000000001199000000000120229304000000000051993800000000062789939500000000000000009999123100000010000000000000BRB3SAACNOR6133
012024091902BRBI11      010BR PARTNERS UNT     N2   R$  000000000155600000000015750000000001552000000000156300000000015520000000001552000000000156201031000000000000164600000000000257336300000000000000009999123100000010000000000000BRBRBICDAM10110
012024091902BRFS3       010BRF SA      ON      NM   R$  000000000242400000000025090000000002420000000000248000000000025050000000002501000000000250521524000000000009959900000000024701690000000000000000009999123100000010000000000000BRBRFSACNOR8122
012024091902CMIN3       010CSNMINERACAOON      N2   R$  000000000064200000000006620000000000639000000000064900000000006410000000000639000000000064114686000000000017124300000000011124241800000000000000009999123100000010000000000000BRCMINACNOR2111
012024091902MRFG3       010MARFRIG     ON      NM   R$  000000000139700000000014540000000001397000000000143800000000014500000000001450000000000145220457000000000007397200000000010641846300000000000000009999123100000010000000000000BRMRFGACNOR0116
012024091902ODPV3       010ODONTOPREV  ON      NM   R$  000000000120000000000012000000000001143000000000115700000000011430000000001143000000000114903920000000000000873700000000001010993600000000000000009999123100000010000000000000BRODPVACNOR4203
012024091902OFSA3       010OUROFINO S/AON      NM   R$  000000000215500000000021550000000002151000000000215400000000021550000000002011000000000220400006000000000000001900000000000004094000000000000000009999123100000010000000000000BROFSAACNOR7118
012024091902ONCO3       010ONCOCLINICASON      NM   R$  000000000056900000000005690000000000544000000000055700000000005440000000000544000000000054905701000000000003294200000000001835022200000000000000009999123100000010000000000000BRONCOACNOR6101
012024091902OPCT3       010OCEANPACT   ON      NM   R$  000000000068700000000006910000000000670000000000067800000000006790000000000672000000000067901338000000000000393000000000000266511700000000000000009999123100000010000000000000BROPCTACNOR0100
012024091902ORVR3       010ORIZON      ON      NM   R$  000000000468500000000047130000000004622000000000466500000000046400000000004640000000000464202846000000000000522500000000002437840500000000000000009999123100000010000000000000BRORVRACNOR0101
012024091902RANI3       010IRANI       ON      NM   R$  000000000077300000000007840000000000768000000000077300000000007680000000000768000000000077302433000000000000695200000000000537621700000000000000009999123100000010000000000000BRRANIACNOR5073
012024091902RAPT3       010RANDON PART ON      N1   R$  000000000087700000000008970000000000877000000000088600000000008900000000000885000000000089000190000000000000064700000000000057371800000000000000009999123100000010000000000000BRRAPTACNOR7163
012024091902RAPT4       010RANDON PART PN      N1   R$  000000000110500000000011500000000001105000000000113900000000011360000000001136000000000113707004000000000003658300000000004166810400000000000000009999123100000010000000000000BRRAPTACNPR4163
012024091902SMFT3       010SMART FIT   ON      NM   R$  000000000235600000000023560000000002286000000000231300000000022950000000002290000000000230007997000000000001894800000000004384127300000000000000009999123100000010000000000000BRSMFTACNOR1112
012024091902SMTO3       010SAO MARTINHOON      NM   R$  000000000279500000000028240000000002697000000000274400000000027030000000002702000000000270614812000000000002736000000000007510244000000000000000009999123100000010000000000000BRSMTOACNOR3127
012024091907TXRX4       010TEX RENAUX  PN           R$  000000000022600000000002290000000000225000000000022600000000002290000000000226000000000022800005000000000000000500000000000000113100000000000000009999123100000010000000000000BRTXRXACNPR0142
012024091907NUTR3       010NUTRIPLANT  ON      MA   R$  000000000047400000000004750000000000464000000000046900000000004640000000000464000000000047000014000000000000001400000000000000657800000000000000009999123100000010000000000000BRNUTRACNOR0104
012024091908ATMP3       010ATMASA      ON           R$  000000000015600000000001560000000000148000000000014900000000001480000000000148000000000015200033000000000000017800000000000002662800000000000000009999123100000010000000000000BRATMPACNOR8100
012024091908PMAM3       010PARANAPANEMAON      NM   R$  000000000017700000000001820000000000175000000000017800000000001770000000000177000000000017800082000000000000026500000000000004731500000000000000009999123100000010000000000000BRPMAMACNOR3039
012024091908CTSA3       010SANTANENSE  ON           R$  000000000027600000000002760000000000265000000000026700000000002650000000000264000000000027000004000000000000000600000000000000160600000000000000009999123100000010000000000000BRCTSAACNOR3062
012024091908AGXY3       010AGROGALAXY  ON      NM   R$  000000000008000000000000830000000000073000000000007600000000000730000000000073000000000007403086000000000004082400000000000313191500000000000000009999123100000010000000000000BRAGXYACNOR4103
012024091908JFEN3       010JOAO FORTES ON           R$  000000000003000000000000390000000000030000000000003300000000000300000000000030000000000003102847000000000012560600000000000421295300000000000000009999123100000010000000000000BRJFENACNOR0059
012024091908RNEW11      010RENOVA      UNT     N2   R$  000000000029700000000002970000000000288000000000029000000000002880000000000288000000000029700040000000000000015700000000000004562400000000000000009999123100000010000000000000BRRNEWCDAM15110
012024091908RNEW3       010RENOVA      ON      N2   R$  000000000009700000000001010000000000096000000000009700000000000960000000000096000000000009800069000000000000027200000000000002648000000000000000009999123100000010000000000000BRRNEWACNOR8110
012024091908RNEW4       010RENOVA      PN      N2   R$  000000000009800000000001000000000000096000000000009700000000000970000000000096000000000009700098000000000000090600000000000008809500000000000000009999123100000010000000000000BRRNEWACNPR5110
012024091908RPMG3       010PET MANGUINHON           R$  000000000029800000000003050000000000294000000000029900000000003010000000000299000000000030100152000000000000030600000000000009170700000000000000009999123100000010000000000000BRRPMGACNOR9194
012024091908RSID3       010ROSSI RESID ON      NM   R$  000000000034600000000003460000000000320000000000032700000000003200000000000320000000000032400153000000000000095200000000000031151800000000000000009999123100000010000000000000BRRSIDACNOR8120
012024091908CTSA4       010SANTANENSE  PN           R$  000000000011900000000001210000000000116000000000011700000000001160000000000116000000000011800028000000000000007800000000000000918600000000000000009999123100000010000000000000BRCTSAACNPR0062
012024091908NEXP3       010NEXPE       ON           R$  000000000041000000000004110000000000403000000000041000000000004030000000000402000000000041000007000000000000002800000000000001148600000000000000009999123100000010000000000000BRNEXPACNOR0101
012024091908AMER3       010AMERICANAS  ON      NM   R$  000000000065200000000006580000000000619000000000064000000000006230000000000622000000000062302233000000000002418100000000001549936100000000000000009999123100000010000000000000BRAMERACNOR6103
012024091908HOOT4       010HOTEIS OTHONPN           R$  000000000022500000000002250000000000224000000000022400000000002240000000000224000000000022500018000000000000003300000000000000741300000000000000009999123100000010000000000000BRHOOTACNPR9015
012024091908LIGT3       010LIGHT S/A   ON      NM   R$  000000000080400000000008040000000000773000000000078800000000007900000000000783000000000079102065000000000000481700000000000379853700000000000000009999123100000010000000000000BRLIGTACNOR2124
012024091908OIBR3       010OI          ON      N1   R$  000000000051800000000005270000000000518000000000052100000000005200000000000519000000000052000715000000000000318800000000000166386800000000000000009999123100000010000000000000BROIBRACNOR1112
012024091908OIBR4       010OI          PN      N1   R$  000000000117400000000011740000000001136000000000114600000000011360000000001135000000000114100009000000000000001600000000000001834800000000000000009999123100000010000000000000BROIBRACNPR8111
012024091908OSXB3       010OSX BRASIL  ON      NM   R$  000000000039200000000004000000000000392000000000039500000000004000000000000391000000000039900005000000000000000700000000000000276900000000000000009999123100000010000000000000BROSXBACNOR8109
012024091910AESB1       010AES BRASIL  DIR ORD NM   R$  000000000006300000000000720000000000050000000000005500000000000560000000000050000000000005600139000000000000125700000000000006914000000000000000009999123100000010000000000000BRAESBD03OR8106
012024091910CBEE1       010AMPLA ENERG DIR ORD      R$  000000000003400000000000690000000000034000000000003800000000000690000000000075000000000009900027000000000000005800000000000000224000000000000000009999123100000010000000000000BRCBEED07OR5159
012024091910DASA1       010DASA        DIR ORD NM   R$  000000000000700000000000070000000000005000000000000500000000000050000000000005000000000000600561000000000002399700000000000012988700000000000000009999123100000010000000000000BRDASAD04OR0122
012024091910ZAMP9       010ZAMP S.A.   ON  REC      R$  000000000031500000000003150000000000294000000000030200000000002940000000000294000000000030500005000000000000000500000000000000151200000000000000009999123100000010000000000000BRZAMPR01OR0100
012024091910OIBR1       010OI          DIR ORD N1   R$  000000000000500000000000070000000000005000000000000500000000000050000000000005000000000000600547000000000004641400000000000025249600000000000000009999123100000010000000000000BROIBRD05OR7111
012024091912MINT11      010FII MINT EDUCI           R$  000000000962400000000096240000000009624000000000962400000000096240000000009531000000000969900001000000000000000006000000000000057744000000000000009999123100000010000000000000BRMINTCTF009103
012024091912HUCG11      010FII UNIMED CCI           R$  000000000823100000000082310000000008231000000000823100000000082310000000008231000000000912600001000000000000000001000000000000008231000000000000009999123100000010000000000000BRHUCGCTF004120
012024091912HUSC11      010FII H UNIMEDCI           R$  000000001080000000000108000000000010800000000001080000000000108000000000010929000000001115000001000000000000000001000000000000010800000000000000009999123100000010000000000000BRHUSCCTF009155
012024091912HUSI11      010FII HUSI    CI           R$  000000012000000000001200000000000120000000000012000000000001200000000000077700000000012000000001000000000000000001000000000000120000000000000000009999123100000010000000000000BRHUSICTF006127
012024091912ASMT11      010FII ASA MET CI           R$  000000000395000000000039500000000003950000000000395000000000039500000000003870000000000414900001000000000000000007000000000000027650000000000000009999123100000010000000000000BRASMTCTF005107
012024091912PLCR11      010FII PLURAL RCI           R$  000000000854900000000085490000000008262000000000834500000000082820000000008282000000000833101167000000000000007716000000000064396810000000000000009999123100000010000000000000BRPLCRCTF003158
012024091912PLRI11      010FII POLO I  CI           R$  000000000172300000000017350000000001649000000000166700000000016490000000001432000000000164900018000000000000000262000000000000436923000000000000009999123100000010000000000000BRPLRICTF000245
012024091912PMIS11      010FII PMIS    CI           R$  000000000091800000000009450000000000914000000000092700000000009400000000000930000000000094001541000000000000061184000000000056733194000000000000009999123100000010000000000000BRPMISCTF006110
012024091912BLCA11      010FII BLUE AAACI  ER       R$  000000000994500000000100100000000009941000000000996300000000099790000000009942000000000998000010000000000000000027000000000000269006000000000000009999123100000010000000000000BRBLCACTF009134
012024091912BLMG11      010FII BLUE LOGCI           R$  000000000400000000000040140000000003909000000000396500000000039130000000003912000000000395001349000000000000021606000000000085671304000000000000009999123100000010000000000000BRBLMGCTF005150
012024091912BLMO11      010FII BLUEMAC CI           R$  000000000787500000000078750000000007375000000000737500000000073750000000007300000000000737500007000000000000002189000000000016145075000000000000009999123100000010000000000000BRBLMOCTF009134
012024091912BLUR11      010FII BLUE RECCI  ER       R$  000000000840000000000089000000000008400000000000848300000000084000000000008400000000000999900005000000000000000006000000000000050900000000000000009999123100000010000000000000BRBLURCTF005130
012024091912BMLC11      010FII BMBRC LCCI           R$  000000001010000000000101850000000010100000000001008000000000101000000000010079000000001010000007000000000000000196000000000001975780000000000000009999123100000010000000000000BRBMLCCTF004254
012024091912BNFS11      010FII BANRISULCI           R$  000000001185500000000119150000000011790000000001183800000000118300000000011820000000001183000169000000000000001793000000000021226845000000000000009999123100000010000000000000BRBNFSCTF000244
012024091912RBVO11      010FII RIOBCRI2CI           R$  000000000134500000000013900000000001300000000000135000000000013240000000001325000000000135200319000000000000006483000000000008756552000000000000009999123100000010000000000000BRRBVOCTF007245
012024091912RCFA11      010FII GP RCFA CI           R$  000000000011500000000001150000000000109000000000010900000000001090000000000105000000000010900009000000000000000030000000000000003289000000000000009999123100000010000000000000BRRCFACTF007101
012024091912RCRB11      010FII RIOB RC CI           R$  000000001290100000000132000000000012818000000001289700000000132000000000012980000000001321402283000000000000037082000000000478247077000000000000009999123100000010000000000000BRRCRBCTF000160
012024091912RECR11      010FII REC RECECI           R$  000000000828500000000083110000000008268000000000828600000000082760000000008276000000000829907099000000000000035703000000000295867006000000000000009999123100000010000000000000BRRECRCTF004154
012024091912RECT11      010FII REC RENDCI           R$  000000000333700000000033500000000003330000000000333900000000033330000000003333000000000333500614000000000000008418000000000028112718000000000000009999123100000010000000000000BRRECTCTF000170
012024091912RECX11      010FII REC FOF CI           R$  000000000622300000000062990000000006202000000000622000000000062020000000006210000000000638000008000000000000000034000000000000211482000000000000009999123100000010000000000000BRRECXCTF002140
012024091912CJCT11      010FII CJCTOWERCI           R$  000000000595200000000059630000000005951000000000595300000000059550000000005914000000000629900044000000000000000158000000000000940692000000000000009999123100000010000000000000BRCJCTCTF001118
012024091912CLIN11      010FII CLAVE INCI  ER       R$  000000000934300000000093650000000009297000000000932400000000093300000000009310000000000933001817000000000000009793000000000091317402000000000000009999123100000010000000000000BRCLINCTF007111
012024091912VSHO11      010FII VOT SHOPCI           R$  000000000734800000000074000000000007345000000000737300000000073990000000007356000000000741900094000000000000001039000000000007661167000000000000009999123100000010000000000000BRVSHOCTF002164
012024091912VSLH11      010FII VERS CRICI           R$  000000000035300000000003530000000000351000000000035100000000003510000000000351000000000035200950000000000000035822000000000012602990000000000000009999123100000010000000000000BRVSLHCTF008146
012024091912VTLT11      010FII VOT LOG CI           R$  000000000938100000000094120000000009360000000000937400000000093600000000009360000000000939300540000000000000000802000000000007517972000000000000009999123100000010000000000000BRVTLTCTF001175
012024091912CXRI11      010FII CX RBRAVCI           R$  000000000769200000000076920000000007600000000000760000000000076000000000007502000000000760000013000000000000003070000000000023334208000000000000009999123100000010000000000000BRCXRICTF003231
012024091912CXTL11      010FII CX TRX  CI           R$  000000002330000000000233000000000023300000000002330000000000233000000000022621000000002320000003000000000000000007000000000000163100000000000000009999123100000010000000000000BRCXTLCTF003240
012024091912CYCR11      010FII CYRELA  CI           R$  000000000098200000000009900000000000977000000000098100000000009800000000000977000000000098006676000000000000030388000000000029815368000000000000009999123100000010000000000000BRCYCRCTF004142
012024091912EQIR11      010FII EQI RECECI  ER       R$  000000000090000000000009170000000000880000000000090100000000009020000000000898000000000090308622000000000000063539000000000057310451000000000000009999123100000010000000000000BREQIRCTF003136
012024091912ICRI11      010FII CI IPCA CI           R$  000000000969000000000096990000000009618000000000966600000000096400000000009626000000000964002147000000000000011512000000000111281569000000000000009999123100000010000000000000BRICRICTF004107
012024091912IDFI11      010FII UNIDADESCI           R$  000000000082100000000008210000000000700000000000077400000000007010000000000700000000000070100039000000000000000204000000000000157913000000000000009999123100000010000000000000BRIDFICTF007135
012024091912IDGR11      010FII UNID II CI           R$  000000000060500000000006780000000000600000000000060300000000006500000000000600000000000065000007000000000000000626000000000000377993000000000000009999123100000010000000000000BRIDGRCTF006130
012024091912VVCO11      010FII V2EDCORPCI           R$  000000000128700000000013030000000001286000000000129300000000013000000000001300000000000130400156000000000000003023000000000003910561000000000000009999123100000010000000000000BRVVCOCTF007101
012024091912VVCR11      010FII V2 RECE CI  ER       R$  000000000100000000000010000000000000988000000000098800000000009880000000000988000000000099900056000000000000002235000000000002208199000000000000009999123100000010000000000000BRVVCRCTF000119
012024091912VVMR11      010FII MULT RENCI           R$  000000000870100000000087510000000008700000000000872200000000087000000000008700000000000875100010000000000000000227000000000001980119000000000000009999123100000010000000000000BRVVMRCTF009108
012024091912VVRI11      010FII V2 RENDACI  ER       R$  000000001000000000000100000000000010000000000001000000000000100000000000009103000000001000500104000000000000001000000000000010000000000000000000009999123100000010000000000000BRVVRICTF007119
012024091912ALZC11      010FII ALIANZACCI  ER       R$  000000000940000000000095990000000009400000000000940000000000095990000000009130000000000959900002000000000000000973000000000009146598000000000000009999123100000010000000000000BRALZCCTF016107
012024091912ALZM11      010FII ALIANZMECI  ER       R$  000000000075800000000007580000000000750000000000075100000000007540000000000751000000000075401362000000000000028331000000000021287935000000000000009999123100000010000000000000BRALZMCTF007126
012024091912ALZR11      010FII ALIANZA CI  ER       R$  000000001064300000000106760000000010600000000001062800000000106440000000010644000000001064501936000000000000017379000000000184712563000000000000009999123100000010000000000000BRALZRCTF006186
012024091912CPFF11      010FII CAP REITCI           R$  000000000682000000000069000000000006815000000000682800000000068300000000006830000000000688101200000000000000006678000000000045601003000000000000009999123100000010000000000000BRCPFFCTF000159
012024091912EDFO11      010FII OURINVESCI           R$  000000001699800000000169990000000016998000000001699800000000169990000000016700000000001700000003000000000000000003000000000000050996000000000000009999123100000010000000000000BREDFOCTF004326
012024091912EDGA11      010FII GALERIA CI           R$  000000000183000000000018300000000001810000000000181500000000018100000000001810000000000182100028000000000000001449000000000002631281000000000000009999123100000010000000000000BREDGACTF001244
012024091912VCJR11      010FII VECTIS  CI           R$  000000000905000000000091000000000009050000000000906800000000090500000000009050000000000908507151000000000000022853000000000207240166000000000000009999123100000010000000000000BRVCJRCTF005158
012024091912VCRI11      010FII VINCI CRCI           R$  000000000083000000000008300000000000816000000000082100000000008180000000000818000000000082100764000000000000076202000000000062567892000000000000009999123100000010000000000000BRVCRICTF007128
012024091912VCRR11      010FII VECT RENCI           R$  000000000662700000000067000000000006515000000000664100000000066980000000006649000000000669500114000000000000001969000000000013077580000000000000009999123100000010000000000000BRVCRRCTF008139
012024091912VGHF11      010FII VALOR HECI           R$  000000000088000000000008820000000000878000000000088000000000008780000000000878000000000087908064000000000000322048000000000283547331000000000000009999123100000010000000000000BRVGHFCTF005147
012024091912VGIP11      010FII VALORAIPCI  ER       R$  000000000867800000000087250000000008676000000000870500000000086900000000008690000000000870104212000000000000016616000000000144656115000000000000009999123100000010000000000000BRVGIPCTF002159
012024091912VGIR11      010FII VALREIIICI  ER       R$  000000000098800000000009910000000000982000000000098300000000009830000000000983000000000098421573000000000000847625000000000834007941000000000000009999123100000010000000000000BRVGIRCTF008180
012024091912VGRI11      010FII VGRI    CI           R$  000000000092500000000009250000000000907000000000091500000000009180000000000917000000000092201654000000000000024710000000000022615521000000000000009999123100000010000000000000BRVGRICTF008107
