00COTAHIST.2024BOVESPA 20240918                                                                                                                                                                                                                      
012024091802LUPA3       010LUPATECH    ON      NM   R$  000000000014300000000001450000000000141000000000014300000000001440000000000142000000000014400188000000000000144200000000000020624300000000000000009999123100000010000000000000BRLUPAACNOR8112
012024091802LVTC3       010WDC NETWORKSON      NM   R$  000000000042000000000004300000000000403000000000041500000000004100000000000410000000000041600094000000000000036000000000000014971400000000000000009999123100000010000000000000BRLVTCACNOR4102
012024091802LWSA3       010LWSA        ON      NM   R$  000000000045000000000004700000000000444000000000045300000000004510000000000448000000000045207677000000000004019700000000001821697100000000000000009999123100000010000000000000BRLWSAACNOR8103
012024091802BOBR4       010BOMBRIL     PN           R$  000000000023000000000002350000000000229000000000023300000000002300000000000230000000000023300067000000000000034700000000000008086500000000000000009999123100000010000000000000BRBOBRACNPR3128
012024091802BRAV3       010BRAVA       ON      NM   R$  000000000212000000000021690000000002084000000000210400000000020850000000002085000000000208715806000000000007599900000000015991938200000000000000009999123100000010000000000000BRBRAVACNOR3100
012024091802BRSR3       010BANRISUL    ON  EJ  N1   R$  000000000129900000000013200000000001296000000000130800000000013050000000001303000000000131500061000000000000006900000000000009028600000000000000009999123100000010000000000000BRBRSRACNOR3189
012024091802BRSR5       010BANRISUL    PNA EJ  N1   R$  000000000170100000000019360000000001701000000000176700000000017320000000001505000000000180900008000000000000000800000000000001413600000000000000009999123100000010000000000000BRBRSRACNPA6193
012024091802NGRD3       010NEOGRID     ON      NM   R$  000000000011300000000001180000000000111000000000011500000000001160000000000114000000000011600736000000000000437900000000000050420300000000000000009999123100000010000000000000BRNGRDACNOR3104
012024091802NINJ3       010GETNINJAS   ON      NM   R$  000000000046600000000004820000000000462000000000046800000000004700000000000463000000000048000044000000000000031300000000000014672600000000000000009999123100000010000000000000BRNINJACNOR5101
012024091802NTCO3       010GRUPO NATURAON      NM   R$  000000000143200000000014650000000001421000000000143900000000014240000000001424000000000142917125000000000010100500000000014539223000000000000000009999123100000010000000000000BRNTCOACNOR5106
012024091802PRNR3       010PRINER      ON      NM   R$  000000000130900000000013380000000001293000000000131700000000013240000000001320000000000132501170000000000000250100000000000329613400000000000000009999123100000010000000000000BRPRNRACNOR4109
012024091802PSSA3       010PORTO SEGUROON      NM   R$  000000000348100000000036180000000003462000000000357800000000035800000000003579000000000358013913000000000002524200000000009033210400000000000000009999123100000010000000000000BRPSSAACNOR7155
012024091802PTBL3       010PORTOBELLO  ON      NM   R$  000000000049100000000005070000000000490000000000049500000000004900000000000490000000000049300945000000000000389900000000000193066100000000000000009999123100000010000000000000BRPTBLACNOR8132
012024091802SAPR3       010SANEPAR     ON      N2   R$  000000000060000000000006100000000000596000000000060200000000006030000000000602000000000060700495000000000000105400000000000063542900000000000000009999123100000010000000000000BRSAPRACNOR9159
012024091802SAPR4       010SANEPAR     PN      N2   R$  000000000065200000000006550000000000644000000000064900000000006500000000000650000000000065101812000000000000962000000000000624830100000000000000009999123100000010000000000000BRSAPRACNPR6159
012024091802SBFG3       010GRUPO SBF   ON      NM   R$  000000000176500000000017980000000001741000000000175900000000017730000000001754000000000177306749000000000005285000000000009299597400000000000000009999123100000010000000000000BRSBFGACNOR1103
012024091802SBSP3       010SABESP      ON      NM   R$  000000000957200000000096870000000009552000000000962800000000096070000000009607000000000961013756000000000002265300000000021811246800000000000000009999123100000010000000000000BRSBSPACNOR5161
012024091802TTEN3       0103TENTOS     ON      NM   R$  000000000124300000000012470000000001191000000000121000000000011940000000001194000000000119805300000000000001444200000000001747952100000000000000009999123100000010000000000000BRTTENACNOR0103
012024091802TUPY3       010TUPY        ON      NM   R$  000000000273000000000027660000000002708000000000273100000000027200000000002704000000000272002043000000000000342500000000000935693700000000000000009999123100000010000000000000BRTUPYACNOR1184
012024091802UCAS3       010UNICASA     ON      NM   R$  000000000022100000000002250000000000220000000000022100000000002200000000000220000000000022400076000000000000017600000000000003904400000000000000009999123100000010000000000000BRUCASACNOR1113
012024091802UGPA3       010ULTRAPAR    ON      NM   R$  000000000229600000000023020000000002238000000000226100000000022380000000002238000000000224120756000000000006928000000000015665862900000000000000009999123100000010000000000000BRUGPAACNOR8156
012024091802GRND3       010GRENDENE    ON      NM   R$  000000000061300000000006180000000000607000000000061200000000006070000000000607000000000061101209000000000000547900000000000335678000000000000000009999123100000010000000000000BRGRNDACNOR3175
012024091802GUAR3       010GUARARAPES  ON      NM   R$  000000000087800000000009180000000000878000000000089800000000008920000000000890000000000089202501000000000000738700000000000663709100000000000000009999123100000010000000000000BRGUARACNOR4173
012024091802HAGA3       010HAGA S/A    ON           R$  000000000024400000000002630000000000244000000000024700000000002620000000000247000000000026200172000000000000068600000000000016987200000000000000009999123100000010000000000000BRHAGAACNOR7103
012024091802HAGA4       010HAGA S/A    PN           R$  000000000011700000000001190000000000116000000000011600000000001160000000000116000000000011700039000000000000028500000000000003315200000000000000009999123100000010000000000000BRHAGAACNPR4103
012024091802HAPV3       010HAPVIDA     ON      NM   R$  000000000046100000000004740000000000456000000000046300000000004660000000000465000000000046644076000000000106491700000000049329150300000000000000009999123100000010000000000000BRHAPVACNOR4114
012024091802BBDC3       010BRADESCO    ON      N1   R$  000000000137000000000013830000000001362000000000137000000000013620000000001361000000000136407337000000000003663000000000005018338500000000000000009999123100000010000000000000BRBBDCACNOR1774
012024091802BBDC4       010BRADESCO    PN      N1   R$  000000000152500000000015430000000001517000000000152600000000015240000000001521000000000152435867000000000032088700000000048977940800000000000000009999123100000010000000000000BRBBDCACNPR8774
012024091802ODPV3       010ODONTOPREV  ON      NM   R$  000000000116000000000012020000000001160000000000118800000000011830000000001182000000000118702900000000000000667000000000000793061400000000000000009999123100000010000000000000BRODPVACNOR4203
012024091802OFSA3       010OUROFINO S/AON      NM   R$  000000000219000000000021910000000002190000000000219000000000021910000000002190000000000220000002000000000000000900000000000001971800000000000000009999123100000010000000000000BROFSAACNOR7118
012024091802ONCO3       010ONCOCLINICASON      NM   R$  000000000055700000000005840000000000550000000000057200000000005590000000000559000000000056504355000000000002897900000000001658568300000000000000009999123100000010000000000000BRONCOACNOR6101
012024091802OPCT3       010OCEANPACT   ON      NM   R$  000000000068600000000006990000000000678000000000069100000000006870000000000685000000000068801152000000000000364600000000000252233000000000000000009999123100000010000000000000BROPCTACNOR0100
012024091802BRSR6       010BANRISUL    PNB EJ  N1   R$  000000000120600000000012210000000001205000000000121100000000012100000000001210000000000121104475000000000001535100000000001859226300000000000000009999123100000010000000000000BRBRSRACNPB4192
012024091802BSLI4       010BRB BANCO   PN           R$  000000000093500000000009350000000000931000000000093200000000009310000000000931000000000093500003000000000000000300000000000000279700000000000000009999123100000010000000000000BRBSLIACNPR2194
012024091802JHSF3       010JHSF PART   ON      NM   R$  000000000044800000000004560000000000447000000000045200000000004560000000000455000000000045602333000000000003679300000000001665458500000000000000009999123100000010000000000000BRJHSFACNOR2139
012024091802KRSA3       010KORA SAUDE  ON      NM   R$  000000000005100000000000510000000000049000000000004900000000000500000000000049000000000005000139000000000000515600000000000025774900000000000000009999123100000010000000000000BRKRSAACNOR0100
012024091802LAND3       010TERRASANTAPAON      NM   R$  000000000140200000000014380000000001387000000000141000000000013880000000001388000000000141500165000000000000026300000000000037085400000000000000009999123100000010000000000000BRLANDACNOR9103
012024091802LAVV3       010LAVVI       ON      NM   R$  000000000087000000000008920000000000860000000000087500000000008740000000000869000000000087501548000000000000617600000000000540505800000000000000009999123100000010000000000000BRLAVVACNOR4113
012024091802LEVE3       010METAL LEVE  ON      NM   R$  000000000316000000000031990000000003135000000000316000000000031600000000003154000000000316001591000000000000266700000000000842785100000000000000009999123100000010000000000000BRLEVEACNOR2197
012024091802MRVE3       010MRV         ON      NM   R$  000000000080000000000008200000000000789000000000080300000000007950000000000794000000000079612729000000000010797400000000008677618400000000000000009999123100000010000000000000BRMRVEACNOR2127
012024091802ROMI3       010ROMI        ON      NM   R$  000000000111300000000011770000000001112000000000115300000000011610000000001161000000000116201635000000000000987200000000001138733000000000000000009999123100000010000000000000BRROMIACNOR8195
012024091802TASA3       010TAURUS ARMASON      N2   R$  000000000111100000000011230000000001106000000000111100000000011120000000001106000000000111800089000000000000012600000000000014005700000000000000009999123100000010000000000000BRTASAACNOR7104
012024091802TASA4       010TAURUS ARMASPN      N2   R$  000000000110700000000011130000000001097000000000110200000000010970000000001097000000000110101307000000000000378000000000000416731100000000000000009999123100000010000000000000BRTASAACNPR4104
012024091802TCSA3       010TECNISA     ON      NM   R$  000000000019300000000001960000000000190000000000019300000000001900000000000190000000000019400215000000000000092300000000000017856400000000000000009999123100000010000000000000BRTCSAACNOR3112
012024091802TECN3       010TECHNOS     ON      NM   R$  000000000050900000000005120000000000501000000000050500000000005060000000000504000000000050600189000000000000089500000000000045256200000000000000009999123100000010000000000000BRTECNACNOR6109
012024091802TELB3       010TELEBRAS    ON           R$  000000000136000000000014090000000001353000000000136700000000013700000000001366000000000138900011000000000000001300000000000001777100000000000000009999123100000010000000000000BRTELBACNOR2140
012024091802TELB4       010TELEBRAS    PN           R$  000000000092000000000009200000000000899000000000090600000000008990000000000899000000000091700020000000000000008200000000000007433600000000000000009999123100000010000000000000BRTELBACNPR9140
012024091802TEND3       010TENDA       ON      NM   R$  000000000144500000000014970000000001432000000000146200000000014570000000001455000000000145809197000000000003237100000000004734019100000000000000009999123100000010000000000000BRTENDACNOR4111
012024091802TFCO4       010TRACK FIELD PN      N2   R$  000000000115500000000011590000000001147000000000115100000000011470000000001145000000000114700302000000000000088000000000000101342900000000000000009999123100000010000000000000BRTFCOACNPR8114
012024091802TGMA3       010TEGMA       ON      NM   R$  000000000280000000000028250000000002776000000000278800000000027790000000002779000000000278100507000000000000110800000000000308956400000000000000009999123100000010000000000000BRTGMAACNOR7145
012024091802TIMS3       010TIM         ON      NM   R$  000000000184800000000018960000000001848000000000187800000000018760000000001876000000000187913030000000000004345700000000008163132300000000000000009999123100000010000000000000BRTIMSACNOR5117
012024091802WEST3       010WESTWING    ON      NM   R$  000000000008600000000000880000000000085000000000008500000000000860000000000085000000000008600030000000000000067600000000000005772900000000000000009999123100000010000000000000BRWESTACNOR3100
012024091802WHRL3       010WHIRLPOOL   ON  ED       R$  000000000044300000000004470000000000443000000000044500000000004440000000000443000000000044600013000000000000001700000000000000757800000000000000009999123100000010000000000000BRWHRLACNOR5129
012024091802WHRL4       010WHIRLPOOL   PN  ED       R$  000000000046500000000004800000000000465000000000046900000000004680000000000468000000000047200031000000000000006800000000000003192200000000000000009999123100000010000000000000BRWHRLACNPR2129
012024091802WIZC3       010WIZ CO      ON      NM   R$  000000000059200000000006000000000000586000000000059200000000005900000000000590000000000059101027000000000000263000000000000155764200000000000000009999123100000010000000000000BRWIZCACNOR5102
012024091802WLMM4       010WLM IND COM PN           R$  000000000318700000000031870000000003150000000000315600000000031500000000003051000000000317900004000000000000000600000000000001893700000000000000009999123100000010000000000000BRWLMMACNPR3119
012024091802BIOM3       010BIOMM       ON      MA   R$  000000000101900000000010500000000001008000000000102800000000010300000000001030000000000104200332000000000000085900000000000088348500000000000000009999123100000010000000000000BRBIOMACNOR2112
012024091802BPAN4       010BANCO PAN   PN      N1   R$  000000000107200000000010940000000001067000000000108000000000010740000000001074000000000107504325000000000001451300000000001567717400000000000000009999123100000010000000000000BRBPANACNPR1115
012024091802BRAP3       010BRADESPAR   ON      N1   R$  000000000177100000000017710000000001747000000000175600000000017470000000001747000000000175700648000000000000096800000000000170057300000000000000009999123100000010000000000000BRBRAPACNOR5148
012024091802BRAP4       010BRADESPAR   PN      N1   R$  000000000187000000000018770000000001855000000000186200000000018550000000001855000000000185806406000000000003011500000000005607584700000000000000009999123100000010000000000000BRBRAPACNPR2148
012024091802MEAL3       010IMC S/A     ON      NM   R$  000000000014300000000001460000000000139000000000014200000000001400000000000140000000000014100507000000000000429700000000000061291900000000000000009999123100000010000000000000BRMEALACNOR9105
012024091802MELK3       010MELNICK     ON      NM   R$  000000000036300000000003790000000000362000000000037000000000003680000000000368000000000037201924000000000001346800000000000498991900000000000000009999123100000010000000000000BRMELKACNOR8111
012024091802MGEL4       010MANGELS INDLPN           R$  000000000121100000000012110000000001200000000000120300000000012000000000001200000000000124500009000000000000001100000000000001324100000000000000009999123100000010000000000000BRMGELACNPR3147
012024091802MGLU3       010MAGAZ LUIZA ON  ATZ NM   R$  000000000117400000000012210000000001152000000000117800000000011520000000001152000000000115325446000000000021568500000000025426543900000000000000009999123100000010000000000000BRMGLUACNOR2125
012024091802ORVR3       010ORIZON      ON      NM   R$  000000000477300000000048670000000004651000000000471400000000046840000000004681000000000469004056000000000000868800000000004096223400000000000000009999123100000010000000000000BRORVRACNOR0101
012024091802PATI3       010PANATLANTICAON           R$  000000000253200000000025320000000002532000000000253200000000025320000000002584000000000273400002000000000000000400000000000001012800000000000000009999123100000010000000000000BRPATIACNOR6066
012024091802PATI4       010PANATLANTICAPN           R$  000000000290000000000029000000000002900000000000290000000000029000000000002915000000000399900002000000000000000200000000000000580000000000000000009999123100000010000000000000BRPATIACNPR3066
012024091802PCAR3       010P.ACUCAR-CBDON      NM   R$  000000000030800000000003160000000000304000000000030900000000003050000000000305000000000030607401000000000009532300000000002951612000000000000000009999123100000010000000000000BRPCARACNOR3167
012024091802RADL3       010RAIADROGASILON      NM   R$  000000000269200000000027660000000002691000000000273300000000027370000000002736000000000274018348000000000007504500000000020516494800000000000000009999123100000010000000000000BRRADLACNOR0157
012024091802SCAR3       010SAO CARLOS  ON      NM   R$  000000000237000000000023980000000002366000000000237700000000023980000000002368000000000239900009000000000000002300000000000005468900000000000000009999123100000010000000000000BRSCARACNOR7131
012024091802SEER3       010SER EDUCA   ON      NM   R$  000000000071100000000007200000000000687000000000070700000000007200000000000714000000000072001343000000000000340800000000000241071300000000000000009999123100000010000000000000BRSEERACNOR5119
012024091802SEQL3       010SEQUOIA LOG ON      NM   R$  000000000049500000000005260000000000495000000000051200000000004970000000000497000000000050001405000000000000954000000000000488622000000000000000009999123100000010000000000000BRSEQLACNOR2103
012024091802SHOW3       010TIME FOR FUNON      NM   R$  000000000012300000000001230000000000108000000000011300000000001080000000000108000000000010900731000000000000597700000000000068103600000000000000009999123100000010000000000000BRSHOWACNOR7105
012024091802SHUL4       010SCHULZ      PN           R$  000000000065000000000006580000000000646000000000065200000000006490000000000647000000000065002507000000000000663400000000000432921700000000000000009999123100000010000000000000BRSHULACNPR4156
012024091802SIMH3       010SIMPAR      ON      NM   R$  000000000059900000000006180000000000585000000000059700000000005870000000000586000000000058703588000000000003022100000000001806111900000000000000009999123100000010000000000000BRSIMHACNOR0107
012024091802BLAU3       010BLAU        ON      NM   R$  000000000145400000000014540000000001398000000000141900000000013980000000001398000000000140001128000000000000173600000000000246360600000000000000009999123100000010000000000000BRBLAUACNOR8114
012024091802BMEB3       010MERCANTIL   ON      N1   R$  000000000399900000000039990000000003998000000000399800000000039990000000003902000000000399900006000000000000000600000000000002399100000000000000009999123100000010000000000000BRBMEBACNOR8206
012024091802BMEB4       010MERCANTIL   PN      N1   R$  000000000410300000000042000000000004100000000000417300000000041990000000004182000000000420000175000000000000022700000000000094733600000000000000009999123100000010000000000000BRBMEBACNPR5211
012024091802BMGB4       010BANCO BMG   PN      N1   R$  000000000039400000000003960000000000389000000000039100000000003900000000000390000000000039101371000000000000465700000000000182483200000000000000009999123100000010000000000000BRBMGBACNPR0110
012024091802BMKS3       010BIC MONARK  ON           R$  000000003330000000000334000000000031100000000003226400000000329990000000031300000000003299800049000000000000000591000000000019068032000000000000009999123100000010000000000000BRBMKSACNOR9166
012024091802BMOB3       010BEMOBI TECH ON      NM   R$  000000000145100000000014700000000001437000000000145400000000014620000000001462000000000146301374000000000000254200000000000369853200000000000000009999123100000010000000000000BRBMOBACNOR7103
012024091802LJQQ3       010QUERO-QUERO ON      NM   R$  000000000039800000000004110000000000391000000000039800000000003960000000000396000000000039804572000000000005027200000000002003391200000000000000009999123100000010000000000000BRLJQQACNOR5104
012024091802LOGG3       010LOG COM PROPON      NM   R$  000000000229100000000023170000000002279000000000229900000000022850000000002285000000000229402548000000000000373000000000000857698700000000000000009999123100000010000000000000BRLOGGACNOR7107
012024091802LOGN3       010LOG-IN      ON      NM   R$  000000000355500000000036000000000003539000000000356800000000036000000000003538000000000360000038000000000000004900000000000017484100000000000000009999123100000010000000000000BRLOGNACNOR3105
012024091802LPSB3       010LOPES BRASILON      NM   R$  000000000017900000000001840000000000177000000000018000000000001810000000000180000000000018100326000000000000223000000000000040323100000000000000009999123100000010000000000000BRLPSBACNOR0114
012024091802LREN3       010LOJAS RENNERON      NM   R$  000000000188900000000019360000000001880000000000191200000000019000000000001899000000000190024026000000000012455500000000023817276000000000000000009999123100000010000000000000BRLRENACNOR1221
012024091802AZZA3       010AZZAS 2154  ON      NM   R$  000000000469100000000048850000000004689000000000480900000000047770000000004775000000000477711689000000000003879900000000018660078300000000000000009999123100000010000000000000BRAZZAACNOR9100
012024091802NEOE3       010NEOENERGIA  ON      NM   R$  000000000197500000000019810000000001961000000000197100000000019750000000001975000000000197602288000000000000463700000000000914348500000000000000009999123100000010000000000000BRNEOEACNOR3123
012024091802RPAD3       010ALFA HOLDINGON           R$  000000000091100000000009110000000000911000000000091100000000009110000000000911000000000095500001000000000000000100000000000000091100000000000000009999123100000010000000000000BRRPADACNOR1198
012024091802RPAD5       010ALFA HOLDINGPNA          R$  000000000088500000000008850000000000885000000000088500000000008850000000000887000000000089900001000000000000000300000000000000265500000000000000009999123100000010000000000000BRRPADACNPA4219
012024091802RPAD6       010ALFA HOLDINGPNB          R$  000000000090200000000009020000000000902000000000090200000000009020000000000902000000000095900001000000000000000100000000000000090200000000000000009999123100000010000000000000BRRPADACNPB2198
012024091802RSUL4       010RIOSULENSE  PN           R$  000000000629900000000065530000000006180000000000628300000000061800000000006149000000000650000018000000000000001800000000000011310000000000000000009999123100000010000000000000BRRSULACNPR3114
012024091802HYPE3       010HYPERA      ON      NM   R$  000000000290000000000029600000000002887000000000291500000000028960000000002893000000000290207785000000000001524000000000004443409900000000000000009999123100000010000000000000BRHYPEACNOR0143
012024091802IBOV11      010IBOVESPA    IBO          R$  000001344130000000134413000000013441300000001344130000000134413000000000000000000000000000000369000000000000061149000000821922053700000000000000009999123100000010000000000000BRIBOVINDM18012
012024091802SANB11      010SANTANDER BRUNT          R$  000000000306600000000030740000000003038000000000305300000000030400000000003039000000000304007168000000000001245700000000003804345100000000000000009999123100000010000000000000BRSANBCDAM13165
012024091802SANB3       010SANTANDER BRON           R$  000000000146000000000014760000000001439000000000145800000000014580000000001452000000000145800462000000000000066300000000000096701700000000000000009999123100000010000000000000BRSANBACNOR8172
012024091802SANB4       010SANTANDER BRPN           R$  000000000160500000000016050000000001583000000000159400000000015830000000001582000000000158900452000000000000091600000000000146100600000000000000009999123100000010000000000000BRSANBACNPR5172
012024091802PTNT4       010PETTENATI   PN           R$  000000000073100000000007360000000000730000000000072800000000007360000000000732000000000073500010000000000000005600000000000004081400000000000000009999123100000010000000000000BRPTNTACNPR3047
012024091802QUAL3       010QUALICORP   ON      NM   R$  000000000021400000000002240000000000210000000000021400000000002120000000000212000000000021302274000000000003915000000000000840167900000000000000009999123100000010000000000000BRQUALACNOR6120
012024091802SAPR11      010SANEPAR     UNT     N2   R$  000000000323900000000032440000000003184000000000321900000000032130000000003212000000000321704001000000000000943400000000003037430900000000000000009999123100000010000000000000BRSAPRCDAM13118
012024091802MTRE3       010MITRE REALTYON      NM   R$  000000000038800000000004040000000000386000000000039600000000003980000000000395000000000039800903000000000000496600000000000196684400000000000000009999123100000010000000000000BRMTREACNOR6114
012024091802MTSA4       010METISA      PN           R$  000000000409600000000041270000000004011000000000406700000000040110000000004010000000000407800043000000000000009000000000000036604100000000000000009999123100000010000000000000BRMTSAACNPR9072
012024091802MULT3       010MULTIPLAN   ON      N2   R$  000000000268900000000027450000000002669000000000271700000000027040000000002702000000000270415888000000000002961000000000008045865800000000000000009999123100000010000000000000BRMULTACNOR5139
012024091802MYPK3       010IOCHP-MAXIONON      NM   R$  000000000119500000000012170000000001177000000000119400000000011770000000001177000000000118503639000000000000811000000000000968468900000000000000009999123100000010000000000000BRMYPKACNOR7155
012024091802YDUQ3       010YDUQS PART  ON      NM   R$  000000000110200000000011180000000001082000000000109700000000010820000000001082000000000108512408000000000005168000000000005669819300000000000000009999123100000010000000000000BRYDUQACNOR3105
012024091802ZAMP3       010ZAMP S.A.   ON           R$  000000000031400000000003170000000000305000000000031000000000003110000000000308000000000031101269000000000000259700000000000080645700000000000000009999123100000010000000000000BRZAMPACNOR5101
012024091802BHIA3       010CASAS BAHIA ON      NM   R$  000000000061500000000006300000000000596000000000061100000000005960000000000596000000000059804287000000000004212700000000002574410100000000000000009999123100000010000000000000BRBHIAACNOR1102
012024091802ANIM3       010ANIMA       ON      NM   R$  000000000031800000000003300000000000313000000000031800000000003170000000000315000000000031708931000000000007782300000000002478441900000000000000009999123100000010000000000000BRANIMACNOR6109
012024091802ARML3       010ARMAC       ON      NM   R$  000000000090000000000009290000000000894000000000090800000000009010000000000898000000000090102549000000000000543400000000000493434700000000000000009999123100000010000000000000BRARMLACNOR1112
012024091802ASAI3       010ASSAI       ON      NM   R$  000000000088200000000009040000000000874000000000088800000000008740000000000874000000000087518846000000000022128100000000019664678600000000000000009999123100000010000000000000BRASAIACNOR0106
012024091802BEEF3       010MINERVA     ON      NM   R$  000000000069000000000006940000000000668000000000067500000000006690000000000668000000000066908218000000000008283500000000005599361400000000000000009999123100000010000000000000BRBEEFACNOR6116
012024091802BPAC11      010BTGP BANCO  UNT     N2   R$  000000000348500000000035900000000003485000000000353200000000035210000000003521000000000352215966000000000007930900000000028012257100000000000000009999123100000010000000000000BRBPACUNT006119
012024091802BPAC3       010BTGP BANCO  ON      N2   R$  000000000164300000000016660000000001643000000000165200000000016540000000001615000000000166800023000000000000003000000000000004956200000000000000009999123100000010000000000000BRBPACACNOR7134
012024091802BPAC5       010BTGP BANCO  PNA     N2   R$  000000000092800000000009500000000000928000000000094000000000009300000000000919000000000095400011000000000000002000000000000001881300000000000000009999123100000010000000000000BRBPACACNPA0134
012024091802DXCO3       010DEXCO       ON      NM   R$  000000000081000000000008110000000000791000000000079800000000007950000000000795000000000079803484000000000001687600000000001347488900000000000000009999123100000010000000000000BRDXCOACNOR8105
012024091802EALT3       010ACO ALTONA  ON           R$  000000000148000000000015000000000001470000000000147500000000015000000000001499000000000153700009000000000000005300000000000007819100000000000000009999123100000010000000000000BREALTACNOR4138
012024091802EALT4       010ACO ALTONA  PN           R$  000000000136000000000014270000000001360000000000140200000000013890000000001389000000000143000106000000000000032000000000000044869500000000000000009999123100000010000000000000BREALTACNPR1138
012024091802ECOR3       010ECORODOVIAS ON      NM   R$  000000000078600000000007950000000000775000000000078300000000007800000000000775000000000078003336000000000001623400000000001272551800000000000000009999123100000010000000000000BRECORACNOR8120
012024091802EGIE3       010ENGIE BRASILON      NM   R$  000000000441500000000044260000000004366000000000439400000000043660000000004366000000000438004851000000000000957500000000004207348600000000000000009999123100000010000000000000BREGIEACNOR9127
012024091802FESA3       010FERBASA     ON      N1   R$  000000000131500000000013150000000001315000000000131500000000013150000000001297000000000144900001000000000000000100000000000000131500000000000000009999123100000010000000000000BRFESAACNOR8189
012024091802FESA4       010FERBASA     PN      N1   R$  000000000079000000000008070000000000786000000000079500000000007970000000000795000000000079701387000000000000483200000000000384241600000000000000009999123100000010000000000000BRFESAACNPR5085
012024091802FHER3       010FER HERINGERON      NM   R$  000000000039300000000004080000000000393000000000040300000000003960000000000394000000000039600012000000000000001700000000000000685300000000000000009999123100000010000000000000BRFHERACNOR5103
012024091802FIEI3       010FICA        ON           R$  000000000080100000000008010000000000800000000000080000000000008000000000000800000000000083000005000000000000010500000000000008400800000000000000009999123100000010000000000000BRFIEIACNOR2100
012024091802FIQE3       010UNIFIQUE    ON      NM   R$  000000000040400000000004050000000000398000000000040400000000004000000000000399000000000040000773000000000000892400000000000360709100000000000000009999123100000010000000000000BRFIQEACNOR5107
012024091802FLRY3       010FLEURY      ON      NM   R$  000000000164500000000016770000000001645000000000166100000000016610000000001653000000000166207707000000000001492200000000002479471700000000000000009999123100000010000000000000BRFLRYACNOR5139
012024091802FRAS3       010FRAS-LE     ON      N1   R$  000000000206400000000021000000000002064000000000207300000000020660000000002064000000000207501752000000000000462100000000000958174700000000000000009999123100000010000000000000BRFRASACNOR0160
012024091802FRIO3       010METALFRIO   ON      NM   R$  000000001119400000000111940000000010700000000001085600000000107000000000010500000000001090000007000000000000000700000000000007599300000000000000009999123100000010000000000000BRFRIOACNOR2111
012024091802GFSA3       010GAFISA      ON      NM   R$  000000000025700000000002660000000000248000000000025600000000002520000000000252000000000025502320000000000003866100000000000990269000000000000000009999123100000010000000000000BRGFSAACNOR3125
012024091802CRFB3       010CARREFOUR BRON      NM   R$  000000000090700000000009410000000000905000000000092000000000009150000000000915000000000091615068000000000012958900000000011923014900000000000000009999123100000010000000000000BRCRFBACNOR2116
012024091802CRPG5       010CRISTAL     PNA          R$  000000000283500000000028790000000002829000000000283700000000028290000000002828000000000283000017000000000000002200000000000006243200000000000000009999123100000010000000000000BRCRPGACNPA3119
012024091802CSAN3       010COSAN       ON      NM   R$  000000000133200000000013440000000001310000000000132200000000013100000000001310000000000131217810000000000012119200000000016031623400000000000000009999123100000010000000000000BRCSANACNOR6126
012024091802EKTR4       010ELEKTRO     PN           R$  000000000450000000000045310000000004500000000000452700000000045300000000004300000000000453100009000000000000001000000000000004527100000000000000009999123100000010000000000000BREKTRACNPR7164
012024091802ELET3       010ELETROBRAS  ON      N1   R$  000000000418500000000042360000000004150000000000419000000000041790000000004175000000000418120521000000000007374800000000030902273200000000000000009999123100000010000000000000BRELETACNOR6160
012024091802ELET6       010ELETROBRAS  PNB     N1   R$  000000000463900000000046780000000004596000000000463300000000046210000000004619000000000462705667000000000001055900000000004892124700000000000000009999123100000010000000000000BRELETACNPB7077
012024091802GGPS3       010GPS         ON      NM   R$  000000000191500000000019600000000001914000000000193700000000019250000000001922000000000192510070000000000003154300000000006111668700000000000000009999123100000010000000000000BRGGPSACNOR9103
012024091802GMAT3       010GRUPO MATEUSON      NM   R$  000000000074100000000007500000000000733000000000074000000000007400000000000740000000000074305582000000000006087200000000004508884600000000000000009999123100000010000000000000BRGMATACNOR7102
012024091802GOAU3       010GERDAU MET  ON      N1   R$  000000000108300000000010920000000001077000000000108200000000010800000000001075000000000108000124000000000000020000000000000021658600000000000000009999123100000010000000000000BRGOAUACNOR1268
012024091802GOAU4       010GERDAU MET  PN      N1   R$  000000000105800000000010800000000001058000000000106800000000010640000000001062000000000106410527000000000005882700000000006283600500000000000000009999123100000010000000000000BRGOAUACNPR8269
012024091802ITUB3       010ITAUUNIBANCOON      N1   R$  000000000322000000000032250000000003187000000000320300000000031990000000003192000000000319902270000000000000474600000000001520605800000000000000009999123100000010000000000000BRITUBACNOR4340
012024091802ITUB4       010ITAUUNIBANCOPN      N1   R$  000000000368500000000037030000000003656000000000367800000000036700000000003668000000000367331312000000000016508200000000060718283100000000000000009999123100000010000000000000BRITUBACNPR1340
012024091802RCSL3       010RECRUSUL    ON           R$  000000000066800000000006970000000000624000000000066800000000006690000000000669000000000067305924000000000002424700000000001620394600000000000000009999123100000010000000000000BRRCSLACNOR4134
012024091802RCSL4       010RECRUSUL    PN           R$  000000000010000000000001010000000000097000000000009800000000001000000000000098000000000010000259000000000000243400000000000023966700000000000000009999123100000010000000000000BRRCSLACNPR1134
012024091802RDNI3       010RNI         ON      NM   R$  000000000031300000000003150000000000311000000000031200000000003120000000000311000000000031400006000000000000019700000000000006147200000000000000009999123100000010000000000000BRRDNIACNOR9116
012024091802RDOR3       010REDE D OR   ON      NM   R$  000000000336900000000034950000000003369000000000344400000000034410000000003440000000000344121520000000000008312000000000028631739200000000000000009999123100000010000000000000BRRDORACNOR8113
012024091802RECV3       010PETRORECSA  ON      NM   R$  000000000187800000000019150000000001869000000000188200000000018770000000001876000000000187806370000000000001718000000000003233426200000000000000009999123100000010000000000000BRRECVACNOR3107
012024091802REDE3       010REDE ENERGIAON           R$  000000000069200000000006950000000000689000000000069100000000006900000000000690000000000069500013000000000000001700000000000001175400000000000000009999123100000010000000000000BRREDEACNOR7128
012024091802RENT3       010LOCALIZA    ON      NM   R$  000000000438800000000045970000000004380000000000451000000000044820000000004470000000000448239378000000000011250200000000050743486900000000000000009999123100000010000000000000BRRENTACNOR4196
012024091802SNSY3       010SANSUY      ON           R$  000000000125000000000012590000000001250000000000125400000000012590000000001201000000000125500004000000000000001100000000000001380400000000000000009999123100000010000000000000BRSNSYACNOR2113
012024091802SNSY5       010SANSUY      PNA          R$  000000000058000000000005800000000000579000000000057900000000005790000000000562000000000057900003000000000000001400000000000000810700000000000000009999123100000010000000000000BRSNSYACNPA5111
012024091802SOJA3       010BOA SAFRA   ON      NM   R$  000000000129800000000013070000000001272000000000128500000000012750000000001275000000000128702276000000000000631700000000000812021000000000000000009999123100000010000000000000BRSOJAACNOR9105
012024091802SRNA3       010SERENA      ON      NM   R$  000000000090100000000009160000000000896000000000090400000000008990000000000899000000000090104058000000000001931500000000001746272000000000000000009999123100000010000000000000BRSRNAACNOR4100
012024091802STBP3       010SANTOS BRP  ON      NM   R$  000000000134800000000013750000000001328000000000134300000000013320000000001331000000000133209064000000000002812600000000003778324100000000000000009999123100000010000000000000BRSTBPACNOR3131
012024091802SUZB3       010SUZANO S.A. ON      NM   R$  000000000530200000000053510000000005243000000000529800000000052600000000005250000000000526017636000000000003951900000000020940756900000000000000009999123100000010000000000000BRSUZBACNOR0130
012024091802VLID3       010VALID       ON      NM   R$  000000000239100000000024200000000002351000000000238200000000023840000000002370000000000238401566000000000000321500000000000766079500000000000000009999123100000010000000000000BRVLIDACNOR5144
012024091802VSTE3       010VESTE       ON      NM   R$  000000000132900000000013660000000001322000000000134100000000013450000000001300000000000134500052000000000000025600000000000034342200000000000000009999123100000010000000000000BRVSTEACNOR5103
012024091802VTRU3       010VITRUEDUCA  ON      NM   R$  000000000093300000000009480000000000928000000000093600000000009410000000000929000000000094200543000000000000144100000000000134997200000000000000009999123100000010000000000000BRVTRUACNOR3100
012024091802VULC3       010VULCABRAS   ON      NM   R$  000000000180700000000018250000000001789000000000180500000000018000000000001798000000000180002060000000000000443500000000000800586300000000000000009999123100000010000000000000BRVULCACNOR2161
012024091802VVEO3       010VIVEO       ON      NM   R$  000000000024400000000002480000000000235000000000024000000000002350000000000235000000000023604203000000000002536600000000000609481300000000000000009999123100000010000000000000BRVVEOACNOR0104
012024091802WEGE3       010WEG         ON      NM   R$  000000000532000000000054270000000005295000000000535000000000053360000000005328000000000533819138000000000006973800000000037310396700000000000000009999123100000010000000000000BRWEGEACNOR0224
012024091802ATOM3       010ATOMPAR     ON           R$  000000000021300000000002140000000000211000000000021100000000002110000000000211000000000021700013000000000000001400000000000000296100000000000000009999123100000010000000000000BRATOMACNOR1106
012024091802AURE3       010AUREN       ON      NM   R$  000000000110700000000011100000000001096000000000110100000000010990000000001099000000000110007190000000000004385100000000004830848000000000000000009999123100000010000000000000BRAUREACNOR9104
012024091802AVLL3       010ALPHAVILLE  ON      NM   R$  000000000034900000000003500000000000340000000000034900000000003400000000000340000000000034900023000000000000021400000000000007473600000000000000009999123100000010000000000000BRAVLLACNOR5103
012024091802AZEV3       010AZEVEDO     ON           R$  000000000013100000000001390000000000130000000000013400000000001330000000000132000000000013300640000000000000957100000000000128283600000000000000009999123100000010000000000000BRAZEVACNOR0121
012024091802AZEV4       010AZEVEDO     PN           R$  000000000013100000000001390000000000131000000000013400000000001330000000000133000000000013401257000000000004386700000000000591443500000000000000009999123100000010000000000000BRAZEVACNPR7121
012024091802AZUL4       010AZUL        PN      N2   R$  000000000062500000000006870000000000562000000000061500000000005620000000000561000000000056243803000000000080226600000000049351130900000000000000009999123100000010000000000000BRAZULACNPR4103
012024091802BEES3       010BANESTES    ON           R$  000000000089600000000009000000000000896000000000089700000000008990000000000897000000000089900039000000000000006300000000000005655300000000000000009999123100000010000000000000BRBEESACNOR9395
012024091802BEES4       010BANESTES    PN           R$  000000000095100000000009570000000000950000000000095200000000009510000000000950000000000095100025000000000000004800000000000004572100000000000000009999123100000010000000000000BRBEESACNPR6320
012024091802BGIP3       010BANESE      ON           R$  000000000264600000000026460000000002646000000000264600000000026460000000002400000000000000000001000000000000000100000000000000264600000000000000009999123100000010000000000000BRBGIPACNOR1210
012024091802BGIP4       010BANESE      PN           R$  000000000257000000000025700000000002570000000000257000000000025700000000002510000000000257000001000000000000000200000000000000514000000000000000009999123100000010000000000000BRBGIPACNPR8210
012024091802PDGR3       010PDG REALT   ON      NM   R$  000000000001600000000000170000000000015000000000001500000000000150000000000015000000000001600789000000000005100200000000000081413100000000000000009999123100000010000000000000BRPDGRACNOR8119
012024091802PDTC3       010PADTEC      ON      NM   R$  000000000018700000000001910000000000186000000000018800000000001870000000000187000000000018800113000000000000035600000000000006714000000000000000009999123100000010000000000000BRPDTCACNOR3101
012024091802PETR3       010PETROBRAS   ON      N2   R$  000000000402000000000040320000000003946000000000397500000000039820000000003981000000000398223137000000000016947900000000067370012800000000000000009999123100000010000000000000BRPETRACNOR9206
012024091802PETR4       010PETROBRAS   PN      N2   R$  000000000369100000000036930000000003615000000000363700000000036150000000003615000000000361765556000000000038777000000000141051767500000000000000009999123100000010000000000000BRPETRACNPR6214
012024091802ALPA3       010ALPARGATAS  ON      N1   R$  000000000074000000000007580000000000726000000000073900000000007400000000000740000000000075800020000000000000007500000000000005549700000000000000009999123100000010000000000000BRALPAACNOR0231
012024091802ALPA4       010ALPARGATAS  PN      N1   R$  000000000073700000000007570000000000731000000000074100000000007350000000000734000000000073505019000000000002358300000000001749430600000000000000009999123100000010000000000000BRALPAACNPR7232
012024091802ALPK3       010ESTAPAR     ON      NM   R$  000000000033600000000003390000000000322000000000033100000000003220000000000322000000000033000291000000000000117300000000000038885100000000000000009999123100000010000000000000BRALPKACNOR9101
012024091802ALUP11      010ALUPAR      UNT     N2   R$  000000000314200000000031870000000003130000000000315400000000031670000000003163000000000316707040000000000003326000000000010490698500000000000000009999123100000010000000000000BRALUPCDAM15120
012024091802ALUP3       010ALUPAR      ON      N2   R$  000000000106700000000010900000000001053000000000107700000000010900000000001061000000000109000047000000000000006000000000000006467700000000000000009999123100000010000000000000BRALUPACNOR8120
012024091802ALUP4       010ALUPAR      PN      N2   R$  000000000103400000000010500000000001024000000000104000000000010460000000001045000000000104600060000000000000012900000000000013417700000000000000009999123100000010000000000000BRALUPACNPR5120
012024091802AMAR3       010LOJAS MARISAON      NM   R$  000000000011000000000001120000000000108000000000011000000000001100000000000110000000000011100318000000000000385500000000000042537800000000000000009999123100000010000000000000BRAMARACNOR4115
012024091802AMBP3       010AMBIPAR     ON      NM   R$  000000000689700000000072100000000006824000000000699300000000069830000000006982000000000699801136000000000000744600000000005207092000000000000000009999123100000010000000000000BRAMBPACNOR6103
012024091802RAIL3       010RUMO S.A.   ON      NM   R$  000000000208400000000021050000000002065000000000208300000000020650000000002064000000000206827995000000000017708700000000036898890500000000000000009999123100000010000000000000BRRAILACNOR9105
012024091802RAIZ4       010RAIZEN      PN      N2   R$  000000000031300000000003170000000000309000000000031100000000003100000000000310000000000031109635000000000017521900000000005459542400000000000000009999123100000010000000000000BRRAIZACNPR6111
012024091802COCE5       010COELCE      PNA          R$  000000000294300000000029740000000002931000000000295000000000029310000000002930000000000296900024000000000000019400000000000057230400000000000000009999123100000010000000000000BRCOCEACNPA3147
012024091802COGN3       010COGNA ON    ON      NM   R$  000000000014700000000001530000000000144000000000014700000000001440000000000144000000000014513767000000000043373600000000006404518800000000000000009999123100000010000000000000BRCOGNACNOR2105
012024091802SLCE3       010SLC AGRICOLAON      NM   R$  000000000172200000000017360000000001718000000000172300000000017230000000001721000000000172604809000000000001790400000000003085923100000000000000009999123100000010000000000000BRSLCEACNOR2125
012024091802AERI3       010AERIS       ON      NM   R$  000000000082300000000008320000000000798000000000081400000000008140000000000801000000000081400881000000000000284300000000000231450700000000000000009999123100000010000000000000BRAERIACNOR4102
012024091802AESB3       010AES BRASIL  ON      NM   R$  000000000116500000000011670000000001164000000000116500000000011670000000001165000000000116702159000000000003716300000000004329886000000000000000009999123100000010000000000000BRAESBACNOR7107
012024091802AFLT3       010AFLUENTE T  ON           R$  000000000071200000000007120000000000710000000000071000000000007100000000000710000000000072800006000000000000000900000000000000639600000000000000009999123100000010000000000000BRAFLTACNOR1122
012024091802AGRO3       010BRASILAGRO  ON      NM   R$  000000000269300000000027100000000002660000000000268600000000026700000000002661000000000267001572000000000000242700000000000652029900000000000000009999123100000010000000000000BRAGROACNOR7114
012024091802AGXY3       010AGROGALAXY  ON      NM   R$  000000000011200000000001150000000000098000000000010400000000000980000000000097000000000009800566000000000000883200000000000092669500000000000000009999123100000010000000000000BRAGXYACNOR4103
012024091802ALLD3       010ALLIED      ON      NM   R$  000000000078100000000007870000000000734000000000075600000000007560000000000756000000000076000498000000000000107000000000000080991400000000000000009999123100000010000000000000BRALLDACNOR3106
012024091802ALOS3       010ALLOS       ON      NM   R$  000000000228200000000023520000000002268000000000232000000000023140000000002313000000000231514460000000000004830900000000011210880600000000000000009999123100000010000000000000BRALOSACNOR5101
012024091802BAHI3       010BAHEMA      ON      MA   R$  000000000066500000000006650000000000665000000000066500000000006650000000000645000000000070000002000000000000001000000000000000665000000000000000009999123100000010000000000000BRBAHIACNOR1074
012024091802BAZA3       010AMAZONIA    ON           R$  000000000957300000000096290000000009549000000000956200000000096290000000009566000000000965800009000000000000001500000000000014343800000000000000009999123100000010000000000000BRBAZAACNOR0179
012024091802BBAS3       010BRASIL      ON  EJ  NM   R$  000000000282700000000028540000000002814000000000283000000000028250000000002825000000000282721796000000000008611400000000024376343600000000000000009999123100000010000000000000BRBBASACNOR3326
012024091802BRIT3       010BRISANET    ON      NM   R$  000000000033500000000003430000000000330000000000033700000000003390000000000338000000000033900932000000000000321600000000000108451700000000000000009999123100000010000000000000BRBRITACNOR0103
012024091802BRKM3       010BRASKEM     ON      N1   R$  000000000189000000000020250000000001890000000000198100000000019820000000001961000000000198200301000000000000050100000000000099275600000000000000009999123100000010000000000000BRBRKMACNOR1119
012024091802BRKM5       010BRASKEM     PNA     N1   R$  000000000196700000000020590000000001960000000000200800000000019790000000001978000000000198127393000000000010711700000000021513425700000000000000009999123100000010000000000000BRBRKMACNPA4121
012024091802BRKM6       010BRASKEM     PNB     N1   R$  000000000135000000000014000000000001350000000000138600000000014000000000001355000000000142000008000000000000001500000000000002080400000000000000009999123100000010000000000000BRBRKMACNPB2114
012024091802CMIN3       010CSNMINERACAOON      N2   R$  000000000067400000000006800000000000633000000000065300000000006330000000000632000000000063313159000000000016474400000000010763201100000000000000009999123100000010000000000000BRCMINACNOR2111
012024091802CXSE3       010CAIXA SEGURION      NM   R$  000000000150100000000015170000000001482000000000149900000000014870000000001487000000000148910213000000000003234700000000004848952800000000000000009999123100000010000000000000BRCXSEACNOR7107
012024091802CYRE3       010CYRELA REALTON      NM   R$  000000000224200000000022790000000002221000000000224600000000022340000000002234000000000223515540000000000004268700000000009587610000000000000000009999123100000010000000000000BRCYREACNOR7140
012024091802ENJU3       010ENJOEI      ON      NM   R$  000000000015200000000001670000000000149000000000015800000000001610000000000161000000000016201480000000000001623600000000000257955200000000000000009999123100000010000000000000BRENJUACNOR9100
012024091802EPAR3       010EMBPAR S/A  ON           R$  000000000058200000000005820000000000578000000000057800000000005780000000000578000000000058000012000000000000018300000000000010583400000000000000009999123100000010000000000000BREPARACNOR9105
012024091802EQMA3B      010EQTLMARANHAOON      MB   R$  000000000240200000000024020000000002300000000000234700000000023890000000002351000000000239900026000000000000005900000000000013851500000000000000009999123100000010000000000000BREQMAACNOR8108
012024091802EQPA3       010EQTL PARA   ON           R$  000000000061500000000006150000000000612000000000061300000000006120000000000612000000000061500022000000000000007400000000000004538400000000000000009999123100000010000000000000BREQPAACNOR1111
012024091802EQTL3       010EQUATORIAL  ON      NM   R$  000000000337000000000034240000000003354000000000338700000000033710000000003370000000000337121669000000000006307400000000021368154000000000000000009999123100000010000000000000BREQTLACNOR0131
012024091802AALR3       010ALLIAR      ON      NM   R$  000000000156400000000015640000000001457000000000151500000000015300000000001489000000000153000194000000000000032300000000000048963700000000000000009999123100000010000000000000BRAALRACNOR6102
012024091802ABCB4       010ABC BRASIL  PN      N2   R$  000000000232000000000023320000000002305000000000231700000000023050000000002304000000000230502313000000000000352500000000000816773100000000000000009999123100000010000000000000BRABCBACNPR4146
012024091802ABEV3       010AMBEV S/A   ON           R$  000000000128600000000013140000000001285000000000130400000000012980000000001298000000000130023126000000000026897100000000035078467400000000000000009999123100000010000000000000BRABEVACNOR1128
012024091802IRBR3       010IRBBRASIL REON      NM   R$  000000000461500000000047100000000004610000000000464900000000046120000000004610000000000461504065000000000000804500000000003740589400000000000000009999123100000010000000000000BRIRBRACNOR4111
012024091802MAPT4       010CEMEPE      PN           R$  000000000048000000000004800000000000480000000000048000000000004800000000000470000000000056000001000000000000000200000000000000096000000000000000009999123100000010000000000000BRMAPTACNPR5106
012024091802MATD3       010MATER DEI   ON      NM   R$  000000000048900000000005020000000000477000000000049200000000004900000000000487000000000049001349000000000000340900000000000167778400000000000000009999123100000010000000000000BRMATDACNOR4104
012024091802MBLY3       010MOBLY       ON      NM   R$  000000000026600000000002690000000000260000000000026200000000002600000000000260000000000026300246000000000000257300000000000067517200000000000000009999123100000010000000000000BRMBLYACNOR5100
012024091802MDIA3       010M.DIASBRANCOON  EJ  NM   R$  000000000266300000000027000000000002660000000000267900000000026770000000002668000000000267803261000000000000466900000000001251036600000000000000009999123100000010000000000000BRMDIAACNOR7136
012024091802MDNE3       010MOURA DUBEUXON      NM   R$  000000000147600000000015800000000001471000000000152700000000015430000000001533000000000154504072000000000000877900000000001340864700000000000000009999123100000010000000000000BRMDNEACNOR9100
012024091802TAEE11      010TAESA       UNT     N2   R$  000000000346500000000034870000000003443000000000346600000000034430000000003443000000000345908609000000000001642800000000005694854100000000000000009999123100000010000000000000BRTAEECDAM10148
012024091802TAEE3       010TAESA       ON      N2   R$  000000000115500000000011570000000001149000000000115200000000011500000000001149000000000115000440000000000000066500000000000076639300000000000000009999123100000010000000000000BRTAEEACNOR9148
012024091802TAEE4       010TAESA       PN      N2   R$  000000000116000000000011650000000001153000000000115900000000011580000000001158000000000116000900000000000000213500000000000247654300000000000000009999123100000010000000000000BRTAEEACNPR6148
012024091802VALE3       010VALE        ON      NM   R$  000000000575900000000058170000000005745000000000576800000000057540000000005753000000000575543256000000000014429800000000083233812600000000000000009999123100000010000000000000BRVALEACNOR0211
012024091802EMAE4       010EMAE        PN           R$  000000000424900000000046370000000004249000000000449600000000044790000000004479000000000452900051000000000000013100000000000058899900000000000000009999123100000010000000000000BREMAEACNPR1125
012024091802EMBR3       010EMBRAER     ON      NM   R$  000000000483900000000048410000000004733000000000477900000000047450000000004744000000000474521862000000000004881900000000023332629400000000000000009999123100000010000000000000BREMBRACNOR4191
012024091802HBOR3       010HELBOR      ON      NM   R$  000000000020200000000002060000000000200000000000020200000000002000000000000200000000000020100392000000000000484800000000000097981000000000000000009999123100000010000000000000BRHBORACNOR3118
012024091802HBRE3       010HBR REALTY  ON      NM   R$  000000000051100000000005140000000000499000000000050200000000005000000000000500000000000050100717000000000000270400000000000135978500000000000000009999123100000010000000000000BRHBREACNOR4100
012024091802HBSA3       010HIDROVIAS   ON      NM   R$  000000000034700000000003540000000000345000000000034800000000003460000000000346000000000034702418000000000002084900000000000727270800000000000000009999123100000010000000000000BRHBSAACNOR0100
012024091802HETA4       010HERCULES    PN           R$  000000000069900000000006990000000000699000000000069900000000006990000000000650000000000068900001000000000000000100000000000000069900000000000000009999123100000010000000000000BRHETAACNPR9136
012024091802ITSA3       010ITAUSA      ON      N1   R$  000000000111500000000011180000000001104000000000111200000000011090000000001108000000000110900338000000000000104500000000000116242700000000000000009999123100000010000000000000BRITSAACNOR0442
012024091802ITSA4       010ITAUSA      PN      N1   R$  000000000111000000000011210000000001106000000000111100000000011100000000001110000000000111123357000000000025776600000000028647179700000000000000009999123100000010000000000000BRITSAACNPR7442
012024091802MILS3       010MILLS       ON      NM   R$  000000000112600000000011480000000001116000000000113300000000011280000000001127000000000113102411000000000000764300000000000865974400000000000000009999123100000010000000000000BRMILSACNOR2128
012024091802MLAS3       010MULTILASER  ON      NM   R$  000000000017900000000001830000000000175000000000017800000000001760000000000176000000000017701769000000000004099800000000000732853700000000000000009999123100000010000000000000BRMLASACNOR9101
012024091802MOVI3       010MOVIDA      ON      NM   R$  000000000072900000000007440000000000708000000000072600000000007110000000000710000000000071106838000000000004062200000000002951051500000000000000009999123100000010000000000000BRMOVIACNOR0122
012024091802PFRM3       010PROFARMA    ON      NM   R$  000000000061300000000006290000000000607000000000061700000000006230000000000622000000000062700329000000000000087700000000000054165400000000000000009999123100000010000000000000BRPFRMACNOR1116
012024091802PGMN3       010PAGUE MENOS ON      NM   R$  000000000028600000000002950000000000285000000000028900000000002870000000000287000000000028801237000000000000530600000000000153790200000000000000009999123100000010000000000000BRPGMNACNOR8103
012024091802PINE3       010PINE        ON      N2   R$  000000000051900000000005240000000000505000000000050600000000005060000000000506000000000052300008000000000000004500000000000002279100000000000000009999123100000010000000000000BRPINEACNOR1150
012024091802PINE4       010PINE        PN      N2   R$  000000000050600000000005120000000000497000000000050500000000005080000000000507000000000050900650000000000000185100000000000093650600000000000000009999123100000010000000000000BRPINEACNPR8150
012024091802PLPL3       010PLANOEPLANO ON      NM   R$  000000000129500000000013450000000001281000000000131700000000013070000000001300000000000130702804000000000000772400000000001017829800000000000000009999123100000010000000000000BRPLPLACNOR5104
012024091802PNVL3       010DIMED       ON      NM   R$  000000000103500000000010430000000001019000000000103400000000010380000000001032000000000103902277000000000000381900000000000394959500000000000000009999123100000010000000000000BRPNVLACNOR9207
012024091802POMO3       010MARCOPOLO   ON      N2   R$  000000000060000000000006250000000000598000000000062000000000006190000000000613000000000061902565000000000001195200000000000741218900000000000000009999123100000010000000000000BRPOMOACNOR0099
012024091802JSLG3       010JSL         ON      NM   R$  000000000096400000000009700000000000935000000000094900000000009420000000000936000000000094201577000000000000524600000000000498168800000000000000009999123100000010000000000000BRJSLGACNOR2121
012024091802KEPL3       010KEPLER WEBERON      NM   R$  000000000110000000000011120000000001088000000000109900000000010920000000001092000000000109401837000000000000522800000000000574794600000000000000009999123100000010000000000000BRKEPLACNOR1064
012024091802B3SA3       010B3          ON      NM   R$  000000000121800000000012380000000001209000000000121900000000012130000000001213000000000121423032000000000042205300000000051476225200000000000000009999123100000010000000000000BRB3SAACNOR6133
012024091802BBSE3       010BBSEGURIDADEON      NM   R$  000000000358500000000036000000000003552000000000357500000000035590000000003556000000000355915810000000000002818600000000010078049600000000000000009999123100000010000000000000BRBBSEACNOR5125
012024091802BRBI11      010BR PARTNERS UNT     N2   R$  000000000156800000000015720000000001538000000000155500000000015560000000001551000000000155600962000000000000149700000000000232846400000000000000009999123100000010000000000000BRBRBICDAM10110
012024091802BRFS3       010BRF SA      ON      NM   R$  000000000248700000000024960000000002404000000000243200000000024040000000002404000000000240619411000000000005966000000000014513006400000000000000009999123100000010000000000000BRBRFSACNOR8122
012024091802CEBR3       010CEB         ON           R$  000000000186300000000018810000000001859000000000187000000000018800000000001847000000000188000013000000000000001900000000000003554000000000000000009999123100000010000000000000BRCEBRACNOR5125
012024091802CEBR5       010CEB         PNA          R$  000000000166900000000016690000000001630000000000164800000000016300000000001624000000000166800010000000000000001400000000000002307200000000000000009999123100000010000000000000BRCEBRACNPA8124
012024091802CEBR6       010CEB         PNB          R$  000000000183700000000018370000000001800000000000180500000000018000000000001795000000000180100014000000000000005300000000000009569100000000000000009999123100000010000000000000BRCEBRACNPB6124
012024091802CEEB3       010COELBA      ON           R$  000000000384000000000038400000000003840000000000384000000000038400000000003749000000000391700001000000000000000100000000000000384000000000000000009999123100000010000000000000BRCEEBACNOR3199
012024091802CGAS5       010COMGAS      PNA          R$  000000001270000000000128010000000012600000000001272200000000128010000000012801000000001300000008000000000000000900000000000011450100000000000000009999123100000010000000000000BRCGASACNPA3161
012024091802CGRA3       010GRAZZIOTIN  ON           R$  000000000253500000000025350000000002535000000000253500000000025350000000002500000000000253300001000000000000000100000000000000253500000000000000009999123100000010000000000000BRCGRAACNOR2083
012024091802CGRA4       010GRAZZIOTIN  PN           R$  000000000251000000000025200000000002510000000000251600000000025200000000002520000000000253900011000000000000001500000000000003775300000000000000009999123100000010000000000000BRCGRAACNPR9083
012024091802CLSA3       010CLEARSALE   ON      NM   R$  000000000079800000000008520000000000783000000000082500000000008190000000000818000000000081904232000000000001397600000000001153953000000000000000009999123100000010000000000000BRCLSAACNOR0100
012024091802CLSC4       010CELESC      PN      N2   R$  000000000832800000000084290000000008328000000000837700000000084230000000008354000000000842300014000000000000001600000000000013403300000000000000009999123100000010000000000000BRCLSCACNPR3131
012024091802CMIG3       010CEMIG       ON      N1   R$  000000000148200000000014820000000001463000000000147400000000014630000000001462000000000147200596000000000000085500000000000126028500000000000000009999123100000010000000000000BRCMIGACNOR6243
012024091802CMIG4       010CEMIG       PN      N1   R$  000000000117500000000011870000000001166000000000117500000000011710000000001171000000000117215669000000000009428800000000011085319100000000000000009999123100000010000000000000BRCMIGACNPR3244
012024091802CSUD3       010CSU DIGITAL ON      NM   R$  000000000180500000000018050000000001781000000000179400000000017890000000001789000000000179700075000000000000011700000000000021000300000000000000009999123100000010000000000000BRCSUDACNOR5110
012024091802CURY3       010CURY S/A    ON      NM   R$  000000000255000000000025930000000002544000000000256400000000025520000000002550000000000255508879000000000003393800000000008703153800000000000000009999123100000010000000000000BRCURYACNOR3109
012024091802CVCB3       010CVC BRASIL  ON      NM   R$  000000000020800000000002240000000000206000000000021400000000002070000000000207000000000020811091000000000038050200000000008158794000000000000000009999123100000010000000000000BRCVCBACNOR1116
012024091802ENEV3       010ENEVA       ON      NM   R$  000000000140300000000014230000000001401000000000140800000000014010000000001401000000000140516790000000000007413400000000010444466700000000000000009999123100000010000000000000BRENEVACNOR8106
012024091802ENGI11      010ENERGISA    UNT     N2   R$  000000000481700000000048600000000004797000000000482700000000048190000000004803000000000481907203000000000001284000000000006198884300000000000000009999123100000010000000000000BRENGICDAM16136
012024091802ENGI3       010ENERGISA    ON      N2   R$  000000000145200000000014520000000001431000000000143600000000014370000000001437000000000144000017000000000000001900000000000002730100000000000000009999123100000010000000000000BRENGIACNOR0146
012024091802ENGI4       010ENERGISA    PN      N2   R$  000000000085300000000008680000000000842000000000084500000000008420000000000841000000000085500021000000000000004300000000000003637100000000000000009999123100000010000000000000BRENGIACNPR7142
012024091802CAMB3       010CAMBUCI     ON           R$  000000000118600000000012040000000001172000000000118500000000011750000000001175000000000118400302000000000000068300000000000080985600000000000000009999123100000010000000000000BRCAMBACNOR4131
012024091802CAML3       010CAMIL       ON      NM   R$  000000000095200000000009620000000000939000000000094700000000009390000000000939000000000094601732000000000000406900000000000385727900000000000000009999123100000010000000000000BRCAMLACNOR3129
012024091802CASH3       010MELIUZ      ON      NM   R$  000000000043100000000004370000000000416000000000042200000000004190000000000419000000000042103612000000000002148900000000000907478800000000000000009999123100000010000000000000BRCASHACNOR8107
012024091802CBAV3       010CBA         ON      NM   R$  000000000049600000000005120000000000490000000000049900000000004960000000000496000000000049803148000000000002421600000000001209525600000000000000009999123100000010000000000000BRCBAVACNOR5104
012024091802CCRO3       010CCR SA      ON      NM   R$  000000000129800000000013280000000001298000000000131200000000013040000000001301000000000131007672000000000002923700000000003838550900000000000000009999123100000010000000000000BRCCROACNOR2145
012024091802CEAB3       010CEA MODAS   ON      NM   R$  000000000105800000000011200000000001048000000000109400000000010790000000001079000000000108504440000000000002495300000000002730876600000000000000009999123100000010000000000000BRCEABACNOR1102
012024091802CSED3       010CRUZEIRO EDUON      NM   R$  000000000035000000000003560000000000345000000000034800000000003510000000000348000000000035101131000000000001033100000000000359803700000000000000009999123100000010000000000000BRCSEDACNOR9105
012024091802CSMG3       010COPASA      ON  EDJ NM   R$  000000000254300000000025820000000002523000000000255600000000025610000000002550000000000256203716000000000000805600000000002059405900000000000000009999123100000010000000000000BRCSMGACNOR5175
012024091802CSNA3       010SID NACIONALON           R$  000000000118800000000012110000000001182000000000119200000000011890000000001188000000000118912683000000000006291500000000007501862000000000000000009999123100000010000000000000BRCSNAACNOR6261
012024091802ELMD3       010ELETROMIDIA ON      NM   R$  000000000185500000000018560000000001790000000000181600000000018170000000001809000000000181800371000000000000088700000000000161103400000000000000009999123100000010000000000000BRELMDACNOR3101
012024091802EUCA4       010EUCATEX     PN      N1   R$  000000000162900000000016400000000001614000000000162800000000016350000000001635000000000163600179000000000000019000000000000030932800000000000000009999123100000010000000000000BREUCAACNPR8044
012024091802EVEN3       010EVEN        ON      NM   R$  000000000066700000000006780000000000655000000000066700000000006650000000000664000000000066502805000000000000752600000000000502457500000000000000009999123100000010000000000000BREVENACNOR8119
012024091802EZTC3       010EZTEC       ON      NM   R$  000000000148700000000015320000000001472000000000150000000000014860000000001486000000000148905667000000000001528900000000002293608400000000000000009999123100000010000000000000BREZTCACNOR0126
012024091802DMVF3       010D1000VFARMA ON      NM   R$  000000000066500000000006880000000000656000000000067100000000006730000000000672000000000068100304000000000000053500000000000035913000000000000000009999123100000010000000000000BRDMVFACNOR9100
012024091802DOTZ3       010DOTZ SA     ON      NM   R$  000000000066600000000006740000000000570000000000060500000000005870000000000580000000000058700331000000000000098600000000000059678400000000000000009999123100000010000000000000BRDOTZACNOR7101
012024091802ESPA3       010ESPACOLASER ON      NM   R$  000000000011000000000001120000000000109000000000011000000000001110000000000110000000000011100379000000000000138100000000000015292600000000000000009999123100000010000000000000BRESPAACNOR7103
012024091802ESTR4       010ESTRELA     PN           R$  000000000050000000000005000000000000441000000000046400000000004790000000000453000000000047900018000000000000005000000000000002322400000000000000009999123100000010000000000000BRESTRACNPR0144
012024091802ETER3       010ETERNIT     ON      NM   R$  000000000058500000000005920000000000576000000000058500000000005910000000000591000000000059200584000000000000305300000000000178821500000000000000009999123100000010000000000000BRETERACNOR3244
012024091802IFCM3       010INFRACOMM   ON      NM   R$  000000000001900000000000240000000000018000000000002100000000000220000000000021000000000002203790000000000045431100000000000959477700000000000000009999123100000010000000000000BRIFCMACNOR8101
012024091802IGTI11      010IGUATEMI S.AUNT     N1   R$  000000000221200000000022880000000002208000000000226000000000022670000000002264000000000226710685000000000002876300000000006501804100000000000000009999123100000010000000000000BRIGTICDAM16106
012024091802IGTI3       010IGUATEMI S.AON      N1   R$  000000000027600000000002810000000000273000000000027600000000002800000000000275000000000028000115000000000000051400000000000014215100000000000000009999123100000010000000000000BRIGTIACNOR8106
012024091802INEP3       010INEPAR      ON           R$  000000000019200000000001970000000000192000000000019300000000001920000000000192000000000019400116000000000000054100000000000010486800000000000000009999123100000010000000000000BRINEPACNOR1143
012024091802INEP4       010INEPAR      PN           R$  000000000019600000000002040000000000194000000000020000000000002020000000000200000000000020400332000000000000090200000000000018066300000000000000009999123100000010000000000000BRINEPACNPR8143
012024091802INTB3       010INTELBRAS   ON      NM   R$  000000000229800000000022980000000002247000000000227000000000022570000000002253000000000225904249000000000000720700000000001636624600000000000000009999123100000010000000000000BRINTBACNOR9112
012024091802UNIP3       010UNIPAR      ON           R$  000000000469100000000047390000000004675000000000471400000000047010000000004700000000000475000048000000000000006600000000000031114000000000000000009999123100000010000000000000BRUNIPACNOR7206
012024091802UNIP5       010UNIPAR      PNA          R$  000000000483300000000050000000000004833000000000493700000000050000000000004831000000000534900005000000000000000500000000000002468700000000000000009999123100000010000000000000BRUNIPACNPA0208
012024091802UNIP6       010UNIPAR      PNB          R$  000000000482400000000049380000000004808000000000487500000000048450000000004845000000000484800841000000000000133700000000000651800700000000000000009999123100000010000000000000BRUNIPACNPB8206
012024091802USIM3       010USIMINAS    ON      N1   R$  000000000059500000000006220000000000595000000000061000000000006100000000000608000000000061201061000000000000350400000000000214038500000000000000009999123100000010000000000000BRUSIMACNOR3167
012024091802USIM5       010USIMINAS    PNA     N1   R$  000000000060500000000006400000000000604000000000062600000000006260000000000626000000000062711641000000000022010100000000013783982300000000000000009999123100000010000000000000BRUSIMACNPA6169
012024091802CPFE3       010CPFL ENERGIAON      NM   R$  000000000340100000000034250000000003375000000000339600000000033750000000003375000000000338903417000000000000609300000000002069333800000000000000009999123100000010000000000000BRCPFEACNOR0137
012024091802CPLE3       010COPEL       ON      N2   R$  000000000097500000000009750000000000959000000000096700000000009700000000000968000000000097110409000000000003084200000000002985337200000000000000009999123100000010000000000000BRCPLEACNOR8149
012024091802CPLE5       010COPEL       PNA     N2   R$  000000000115000000000011500000000001150000000000115000000000011500000000001120000000000117000001000000000000000100000000000000115000000000000000009999123100000010000000000000BRCPLEACNPA1147
012024091802CPLE6       010COPEL       PNB     N2   R$  000000000107100000000010850000000001068000000000107600000000010780000000001078000000000107915903000000000009987600000000010749080600000000000000009999123100000010000000000000BRCPLEACNPB9146
012024091802GGBR3       010GERDAU      ON      N1   R$  000000000164100000000016600000000001640000000000164500000000016420000000001642000000000164501179000000000000238700000000000392753000000000000000009999123100000010000000000000BRGGBRACNOR1193
012024091802GGBR4       010GERDAU      PN      N1   R$  000000000183000000000018630000000001830000000000184400000000018420000000001840000000000184228683000000000023546700000000043426271600000000000000009999123100000010000000000000BRGGBRACNPR8193
012024091802KLBN11      010KLABIN S/A  UNT     N2   R$  000000000215100000000021630000000002128000000000214200000000021340000000002130000000000213812241000000000003556400000000007619321200000000000000009999123100000010000000000000BRKLBNCDAM18143
012024091802KLBN3       010KLABIN S/A  ON      N2   R$  000000000043300000000004350000000000427000000000043100000000004280000000000428000000000043000600000000000000264100000000000114026100000000000000009999123100000010000000000000BRKLBNACNOR2171
012024091802KLBN4       010KLABIN S/A  PN      N2   R$  000000000043000000000004320000000000425000000000042800000000004260000000000426000000000042702204000000000001506800000000000645620100000000000000009999123100000010000000000000BRKLBNACNPR9171
012024091802MRFG3       010MARFRIG     ON      NM   R$  000000000145200000000014730000000001390000000000141500000000013900000000001390000000000139515226000000000005966200000000008443664800000000000000009999123100000010000000000000BRMRFGACNOR0116
012024091802PORT3       010WILSON SONS ON      NM   R$  000000000174000000000017420000000001720000000000172900000000017250000000001720000000000173002898000000000004639900000000008025439100000000000000009999123100000010000000000000BRPORTACNOR8109
012024091802POSI3       010POSITIVO TECON      NM   R$  000000000061700000000006260000000000604000000000061200000000006050000000000605000000000060802621000000000001671900000000001024527900000000000000009999123100000010000000000000BRPOSIACNOR9116
012024091802SMFT3       010SMART FIT   ON      NM   R$  000000000228800000000023660000000002288000000000232300000000023160000000002314000000000231808131000000000001676000000000003893857100000000000000009999123100000010000000000000BRSMFTACNOR1112
012024091802PRIO3       010PETRORIO    ON      NM   R$  000000000431000000000043700000000004270000000000432100000000043190000000004318000000000432017422000000000005663400000000024475314100000000000000009999123100000010000000000000BRPRIOACNOR1107
012024091802SYNE3       010SYN PROP TECON      NM   R$  000000000079000000000008040000000000790000000000079600000000007950000000000792000000000079501513000000000000442300000000000352395900000000000000009999123100000010000000000000BRSYNEACNOR2103
012024091802POMO4       010MARCOPOLO   PN      N2   R$  000000000079200000000008160000000000790000000000080600000000007970000000000793000000000079712495000000000009135900000000007369115100000000000000009999123100000010000000000000BRPOMOACNPR7099
012024091802JALL3       010JALLESMACHADON      NM   R$  000000000067000000000006830000000000665000000000067300000000006710000000000671000000000067401483000000000000522600000000000352157300000000000000009999123100000010000000000000BRJALLACNOR0106
012024091802JBSS3       010JBS         ON      NM   R$  000000000339700000000033990000000003266000000000330800000000032700000000003269000000000327021829000000000007273300000000024060585400000000000000009999123100000010000000000000BRJBSSACNOR8122
012024091802PETZ3       010PETZ        ON      NM   R$  000000000046800000000004920000000000461000000000047800000000004670000000000466000000000046708284000000000009855100000000004717355600000000000000009999123100000010000000000000BRPETZACNOR2110
012024091802RANI3       010IRANI       ON      NM   R$  000000000077700000000007890000000000771000000000078000000000007720000000000772000000000077702941000000000001075500000000000839857900000000000000009999123100000010000000000000BRRANIACNOR5073
012024091802RAPT3       010RANDON PART ON      N1   R$  000000000088400000000008880000000000870000000000088000000000008750000000000875000000000087600265000000000000125000000000000110048300000000000000009999123100000010000000000000BRRAPTACNOR7163
012024091802RAPT4       010RANDON PART PN      N1   R$  000000000110200000000011350000000001102000000000112000000000011150000000001112000000000111505686000000000002946700000000003302617400000000000000009999123100000010000000000000BRRAPTACNPR4163
012024091802SMTO3       010SAO MARTINHOON      NM   R$  000000000260700000000027220000000002583000000000265900000000026750000000002675000000000267616698000000000003594900000000009561994100000000000000009999123100000010000000000000BRSMTOACNOR3127
012024091802VITT3       010VITTIA      ON      NM   R$  000000000061900000000006250000000000614000000000061700000000006150000000000614000000000061900724000000000000182500000000000112615000000000000000009999123100000010000000000000BRVITTACNOR4107
012024091802VIVA3       010VIVARA S.A. ON      NM   R$  000000000283900000000029270000000002831000000000288400000000028690000000002867000000000287016523000000000003797200000000010954537900000000000000009999123100000010000000000000BRVIVAACNOR0107
012024091802VIVR3       010VIVER       ON      NM   R$  000000000020700000000002130000000000202000000000020400000000002030000000000201000000000020400162000000000000114900000000000023467600000000000000009999123100000010000000000000BRVIVRACNOR4123
012024091802VIVT3       010TELEF BRASILON           R$  000000000552300000000056320000000005523000000000559800000000055810000000005577000000000558112827000000000002017000000000011292753700000000000000009999123100000010000000000000BRVIVTACNOR0184
012024091802VAMO3       010VAMOS       ON      NM   R$  000000000073100000000007500000000000711000000000072700000000007160000000000713000000000071613316000000000010313100000000007499548900000000000000009999123100000010000000000000BRVAMOACNOR7105
012024091802VBBR3       010VIBRA       ON      NM   R$  000000000246000000000025040000000002454000000000247600000000024660000000002462000000000246726613000000000007502700000000018580629100000000000000009999123100000010000000000000BRVBBRACNOR1108
012024091802DASA3       010DASA        ON  ES  NM   R$  000000000031300000000003140000000000304000000000030900000000003060000000000306000000000030702080000000000000945400000000000292159200000000000000009999123100000010000000000000BRDASAACNOR1123
012024091802DESK3       010DESKTOP     ON      NM   R$  000000000159700000000016400000000001584000000000160500000000016000000000001592000000000160200704000000000000423300000000000679603800000000000000009999123100000010000000000000BRDESKACNOR2104
012024091802DEXP3       010DEXXOS PAR  ON      N1   R$  000000000091500000000009240000000000898000000000090500000000009060000000000903000000000090600568000000000000296100000000000268111700000000000000009999123100000010000000000000BRDEXPACNOR1105
012024091802DEXP4       010DEXXOS PAR  PN      N1   R$  000000000092200000000009220000000000905000000000091100000000009100000000000904000000000091000017000000000000005400000000000004921600000000000000009999123100000010000000000000BRDEXPACNPR8105
012024091802DIRR3       010DIRECIONAL  ON  ED  NM   R$  000000000327100000000033200000000003260000000000328400000000032800000000003277000000000328011288000000000003176500000000010433329000000000000000009999123100000010000000000000BRDIRRACNOR0119
012024091802TKNO4       010TEKNO       PN           R$  000000000850000000000085000000000008500000000000850000000000085000000000005000000000001120000001000000000000000100000000000000850000000000000000009999123100000010000000000000BRTKNOACNPR5075
012024091802TOTS3       010TOTVS       ON      NM   R$  000000000297800000000030100000000002954000000000297700000000029630000000002958000000000296413074000000000002546400000000007581135700000000000000009999123100000010000000000000BRTOTSACNOR8145
012024091802TPIS3       010TRIUNFO PARTON      NM   R$  000000000051800000000005200000000000501000000000051000000000005010000000000501000000000051500142000000000000040400000000000020608000000000000000009999123100000010000000000000BRTPISACNOR8118
012024091802TRAD3       010TC          ON      NM   R$  000000000049100000000005400000000000485000000000050900000000005020000000000501000000000050201627000000000000662400000000000337719500000000000000009999123100000010000000000000BRTRADACNOR3102
012024091802TRIS3       010TRISUL      ON      NM   R$  000000000051200000000005290000000000507000000000052000000000005230000000000520000000000052401344000000000000966900000000000503461300000000000000009999123100000010000000000000BRTRISACNOR4118
012024091802TRPL3       010TRAN PAULISTON      N1   R$  000000000318600000000031900000000003168000000000317900000000031780000000003171000000000317700017000000000000002000000000000006358500000000000000009999123100000010000000000000BRTRPLACNOR4185
012024091802TRPL4       010TRAN PAULISTPN      N1   R$  000000000249700000000025000000000002463000000000247900000000024670000000002467000000000246914079000000000003546800000000008792915700000000000000009999123100000010000000000000BRTRPLACNPR1185
012024091807TXRX4       010TEX RENAUX  PN           R$  000000000022600000000002290000000000226000000000022800000000002290000000000226000000000023000003000000000000000300000000000000068400000000000000009999123100000010000000000000BRTXRXACNPR0142
012024091807NUTR3       010NUTRIPLANT  ON      MA   R$  000000000045300000000004730000000000453000000000046500000000004670000000000467000000000047400014000000000000001500000000000000697500000000000000009999123100000010000000000000BRNUTRACNOR0104
012024091808NEXP3       010NEXPE       ON           R$  000000000041000000000004100000000000404000000000040700000000004040000000000403000000000041000005000000000000000900000000000000366400000000000000009999123100000010000000000000BRNEXPACNOR0101
012024091808OIBR3       010OI          ON      N1   R$  000000000052200000000005250000000000512000000000051900000000005150000000000515000000000052000864000000000000635400000000000329973300000000000000009999123100000010000000000000BROIBRACNOR1112
012024091808OIBR4       010OI          PN      N1   R$  000000000111300000000011740000000001103000000000111700000000011470000000001120000000000114700016000000000000002900000000000003240800000000000000009999123100000010000000000000BROIBRACNPR8111
012024091808JFEN3       010JOAO FORTES ON           R$  000000000003100000000000360000000000029000000000003100000000000300000000000029000000000003001181000000000008446600000000000269759100000000000000009999123100000010000000000000BRJFENACNOR0059
012024091808LIGT3       010LIGHT S/A   ON      NM   R$  000000000082400000000008240000000000794000000000080300000000007940000000000793000000000079401841000000000000526900000000000423326400000000000000009999123100000010000000000000BRLIGTACNOR2124
012024091808RNEW11      010RENOVA      UNT     N2   R$  000000000029900000000002990000000000290000000000029100000000002920000000000292000000000029800024000000000000010800000000000003148200000000000000009999123100000010000000000000BRRNEWCDAM15110
012024091808RNEW3       010RENOVA      ON      N2   R$  000000000009900000000001000000000000095000000000009700000000000970000000000097000000000009900107000000000000107400000000000010434200000000000000009999123100000010000000000000BRRNEWACNOR8110
012024091808RNEW4       010RENOVA      PN      N2   R$  000000000009800000000001010000000000098000000000009800000000000980000000000098000000000009900161000000000000149300000000000014754200000000000000009999123100000010000000000000BRRNEWACNPR5110
012024091808TEKA4       010TEKA        PN           R$  000000000286500000000028650000000002865000000000286500000000028650000000002610000000000306900001000000000000000100000000000000286500000000000000009999123100000010000000000000BRTEKAACNPR3140
012024091808OSXB3       010OSX BRASIL  ON      NM   R$  000000000039100000000004060000000000390000000000039600000000004000000000000394000000000040300014000000000000005500000000000002180700000000000000009999123100000010000000000000BROSXBACNOR8109
012024091808HOOT4       010HOTEIS OTHONPN           R$  000000000022800000000002280000000000226000000000022600000000002260000000000225000000000022600003000000000000000600000000000000136000000000000000009999123100000010000000000000BRHOOTACNPR9015
012024091808RPMG3       010PET MANGUINHON           R$  000000000029700000000003050000000000297000000000030200000000003000000000000300000000000030400032000000000000006800000000000002057300000000000000009999123100000010000000000000BRRPMGACNOR9194
012024091808RSID3       010ROSSI RESID ON      NM   R$  000000000036400000000003670000000000331000000000034700000000003530000000000350000000000035300275000000000000094700000000000032935000000000000000009999123100000010000000000000BRRSIDACNOR8120
012024091808AMER3       010AMERICANAS  ON      NM   R$  000000000065700000000006610000000000648000000000065400000000006520000000000651000000000065201657000000000002717400000000001779398300000000000000009999123100000010000000000000BRAMERACNOR6103
012024091808ATMP3       010ATMASA      ON           R$  000000000013900000000001580000000000136000000000015200000000001570000000000150000000000015600132000000000000117800000000000018000000000000000000009999123100000010000000000000BRATMPACNOR8100
012024091808PMAM3       010PARANAPANEMAON      NM   R$  000000000018200000000001840000000000179000000000018100000000001820000000000181000000000018200065000000000000023500000000000004258600000000000000009999123100000010000000000000BRPMAMACNOR3039
012024091808CTSA3       010SANTANENSE  ON           R$  000000000026800000000002720000000000268000000000026900000000002720000000000265000000000028000004000000000000001200000000000000323000000000000000009999123100000010000000000000BRCTSAACNOR3062
012024091808CTSA4       010SANTANENSE  PN           R$  000000000011900000000001210000000000116000000000011700000000001210000000000117000000000012100316000000000000055400000000000006535300000000000000009999123100000010000000000000BRCTSAACNPR0062
012024091810OIBR1       010OI          DIR ORD N1   R$  000000000000600000000000060000000000005000000000000500000000000050000000000005000000000000600548000000000004218300000000000024585400000000000000009999123100000010000000000000BROIBRD05OR7111
012024091810BGIP2       010BANESE      DIR PRE      R$  000000000024600000000002460000000000246000000000024600000000002460000000000247000000000027100004000000000000001000000000000000246000000000000000009999123100000010000000000000BRBGIPD08PR8209
012024091810AESB1       010AES BRASIL  DIR ORD NM   R$  000000000005900000000000750000000000059000000000006700000000000620000000000062000000000007100092000000000000029400000000000001970700000000000000009999123100000010000000000000BRAESBD03OR8106
012024091810CBEE1       010AMPLA ENERG DIR ORD      R$  000000000003700000000000370000000000034000000000003500000000000340000000000012000000000003400016000000000000003100000000000000110500000000000000009999123100000010000000000000BRCBEED07OR5159
012024091810DASA1       010DASA        DIR ORD NM   R$  000000000000900000000000090000000000006000000000000700000000000060000000000006000000000000700925000000000002123200000000000015266400000000000000009999123100000010000000000000BRDASAD04OR0122
012024091812LSPA11      010FII LESTE PACI           R$  000000000449800000000048990000000004498000000000467700000000045880000000004505000000000471900075000000000000000863000000000004037083000000000000009999123100000010000000000000BRLSPACTF005142
012024091812LUGG11      010FII LUGGO   CI           R$  000000000740900000000074090000000007317000000000736000000000073470000000007322000000000734700056000000000000000224000000000001648821000000000000009999123100000010000000000000BRLUGGCTF007158
012024091812LVBI11      010FII VBI LOG CI           R$  000000001100000000000110110000000010903000000001095900000000109460000000010946000000001095609452000000000000045131000000000494616213000000000000009999123100000010000000000000BRLVBICTF002172
012024091812NEWL11      010FII NEWPORT CI           R$  000000001138000000000114000000000011336000000001137600000000113800000000011370000000001138000089000000000000000460000000000005233026000000000000009999123100000010000000000000BRNEWLCTF004158
012024091812BNFS11      010FII BANRISULCI           R$  000000001192900000000119290000000011856000000001188100000000118920000000011892000000001189300132000000000000000677000000000008043657000000000000009999123100000010000000000000BRBNFSCTF000244
012024091812BRLA11      010FII BRLPROIICI  ER       R$  000000001700000000000170000000000017000000000001700000000000170000000000011400000000001700000001000000000000000010000000000000170000000000000000009999123100000010000000000000BRBRLACTF007150
012024091812BROF11      010FII BROF    CI  ER       R$  000000000465300000000047380000000004640000000000469500000000046400000000004640000000000471701365000000000000006449000000000030282917000000000000009999123100000010000000000000BRBROFCTF000117
012024091812NSLU11      010FII LOURDES CI           R$  000000001790100000000179950000000017831000000001792900000000179880000000017901000000001799500131000000000000000496000000000008893247000000000000009999123100000010000000000000BRNSLUCTF008314
012024091812PRSN11      010FII PERSONALCI           R$  000000000010600000000001200000000000106000000000011800000000001180000000000118000000000014900020000000000000002771000000000000328020000000000000009999123100000010000000000000BRPRSNCTF005125
012024091812PRSV11      010FII P VARGASCI           R$  000000000586200000000058620000000005821000000000582700000000058620000000005821000000000586200006000000000000000020000000000000116543000000000000009999123100000010000000000000BRPRSVCTF008226
012024091812SARE11      010FII SANT RENCI           R$  000000000391400000000040200000000003913000000000397600000000039990000000003982000000000399901253000000000000048574000000000193160254000000000000009999123100000010000000000000BRSARECTF006159
012024091812TRXB11      010FII TRX R IICI           R$  000000001486400000000148640000000014864000000001486400000000148640000000014101000000001548600003000000000000000013000000000000193232000000000000009999123100000010000000000000BRTRXBCTF002154
012024091812TRXF11      010FII TRX REALCI           R$  000000001051700000000105320000000010488000000001051100000000105030000000010502000000001050306127000000000000060100000000000631729574000000000000009999123100000010000000000000BRTRXFCTF003167
012024091812TVRI11      010FII TIVIO RICI           R$  000000001001000000000100900000000009999000000001003100000000100550000000010055000000001007400916000000000000012248000000000122871788000000000000009999123100000010000000000000BRTVRICTF001111
012024091812GSFI11      010FII GENERAL CI           R$  000000000077300000000007840000000000760000000000077500000000007840000000000764000000000078500059000000000000003087000000000002394744000000000000009999123100000010000000000000BRGSFICTF009103
012024091812GTWR11      010FII G TOWERSCI           R$  000000000810900000000081260000000008085000000000809900000000081000000000008100000000000810801444000000000000009052000000000073316235000000000000009999123100000010000000000000BRGTWRCTF003166
012024091812GZIT11      010FII GAZIT   CI           R$  000000000579900000000057990000000005700000000000571900000000057000000000005700000000000571403326000000000000009662000000000055265497000000000000009999123100000010000000000000BRGZITCTF005110
012024091812HABT11      010FII HABIT IICI           R$  000000000867700000000087500000000008677000000000871500000000087220000000008721000000000872201509000000000000008438000000000073538639000000000000009999123100000010000000000000BRHABTCTF001163
012024091812OCRE11      010FII OCTO    CI           R$  000000001008900000000100900000000010008000000001008200000000100900000000010090000000001010000003000000000000000142000000000001431684000000000000009999123100000010000000000000BROCRECTF001117
012024091812BTAL11      010FII BTG AGROCI           R$  000000000783900000000078430000000007800000000000782300000000078160000000007816000000000781801391000000000000010429000000000081591294000000000000009999123100000010000000000000BRBTALCTF003142
012024091812BTCI11      010FII BTG CRI CI  ER       R$  000000000099500000000009990000000000993000000000099600000000009960000000000996000000000099707622000000000000140145000000000139644015000000000000009999123100000010000000000000BRBTCICTF005123
012024091812BTHI11      010BTG HOTEL FICI           R$  000000000397400000000039990000000003941000000000396800000000039990000000003980000000000399900007000000000000000055000000000000218273000000000000009999123100000010000000000000BRBTHICTF004112
012024091812BTLG11      010FII BTLG    CI  ER       R$  000000001001900000000100210000000009992000000001000700000000100040000000010000000000001000417014000000000000109705000000001097835690000000000000009999123100000010000000000000BRBTLGCTF000166
012024091812BTRA11      010FII BTG TAGRCI           R$  000000000444200000000044450000000004411000000000442300000000044120000000004412000000000443800557000000000000004345000000000019220155000000000000009999123100000010000000000000BRBTRACTF000139
012024091812JFLL11      010FII JFL LIV CI           R$  000000000701100000000071100000000006961000000000700100000000070300000000006982000000000703000496000000000000001163000000000008142177000000000000009999123100000010000000000000BRJFLLCTF002143
012024091812JPPA11      010FII JPPA CRICI           R$  000000000820300000000082340000000008203000000000822900000000082300000000008227000000000823000082000000000000000455000000000003744515000000000000009999123100000010000000000000BRJPPACTF005164
012024091812KNRI11      010FII KINEA   CI           R$  000000001477700000000148230000000014660000000001474000000000147280000000014728000000001473705448000000000000044551000000000656695385000000000000009999123100000010000000000000BRKNRICTF007267
012024091812KNSC11      010FII KINEA SCCI           R$  000000000092500000000009270000000000923000000000092500000000009260000000000925000000000092607485000000000000346644000000000320919797000000000000009999123100000010000000000000BRKNSCCTF008151
012024091812KNUQ11      010FII KINEA UNCI           R$  000000001052400000000105810000000010500000000001055500000000105740000000010573000000001057404847000000000000018252000000000192657442000000000000009999123100000010000000000000BRKNUQCTF004116
012024091812KORE11      010FII KORE    CI           R$  000000001026500000000102900000000010213000000001027100000000102860000000010269000000001028605418000000000000023389000000000240237655000000000000009999123100000010000000000000BRKORECTF012109
012024091812LASC11      010FII LEGATUS CI           R$  000000001110100000000111010000000011101000000001110100000000111010000000010969000000001110300001000000000000000005000000000000055505000000000000009999123100000010000000000000BRLASCCTF003156
012024091812LFTT11      010FII LOFT II CI  EA       R$  000000000122500000000012350000000001150000000000120500000000012300000000001201000000000123000064000000000000001115000000000001344321000000000000009999123100000010000000000000BRLFTTCTF004135
012024091812LGCP11      010FII LGCP INTCI           R$  000000000834900000000083670000000008300000000000831600000000083200000000008300000000000832300128000000000000001198000000000009963667000000000000009999123100000010000000000000BRLGCPCTF006160
012024091812LIFE11      010FII LIFE    CI           R$  000000000104000000000010490000000001038000000000104300000000010440000000001040000000000104400446000000000000028420000000000029650743000000000000009999123100000010000000000000BRLIFECTF017133
012024091812RENV11      010FII RENV    CI           R$  000000000098100000000011000000000000971000000000103100000000010350000000000977000000000103500330000000000000029817000000000030765341000000000000009999123100000010000000000000BRRENVCTF003100
012024091812RFOF11      010FII RB CFOF CI           R$  000000000690000000000069400000000006850000000000689000000000069200000000006907000000000692700116000000000000001579000000000010879351000000000000009999123100000010000000000000BRRFOFCTF001154
012024091812RINV11      010FII REAL INVCI  ER       R$  000000001087000000000108700000000010835000000001085500000000108600000000010840000000001086000198000000000000002676000000000029049930000000000000009999123100000010000000000000BRRINVCTF004122
012024091812RMAI11      010FII REAGMULTCI           R$  000000000754900000000075490000000007538000000000754500000000075460000000007493000000000754500003000000000000000005000000000000037725000000000000009999123100000010000000000000BRRMAICTF000137
012024091812RNDP11      010FII BB R PAPCI           R$  000000000578000000000058110000000005780000000000580200000000058110000000005811000000000629800005000000000000000047000000000000272695000000000000009999123100000010000000000000BRRNDPCTF007251
012024091812RNGO11      010FII RIONEGROCI           R$  000000000468900000000046990000000004677000000000468700000000046890000000004688000000000468900044000000000000002311000000000010833686000000000000009999123100000010000000000000BRRNGOCTF003246
012024091812TEPP11      010FII TEL PROPCI           R$  000000000875000000000088500000000008750000000000879800000000088100000000008799000000000881002403000000000000008476000000000074577730000000000000009999123100000010000000000000BRTEPPCTF006153
012024091812TGAR11      010FII TG ATIVOCI           R$  000000001156800000000115690000000011230000000001139500000000112710000000011271000000001129917175000000000000141806000000001615957725000000000000009999123100000010000000000000BRTGARCTF009194
012024091812WHGR11      010FII WHG REALCI           R$  000000000095200000000009520000000000939000000000094500000000009470000000000943000000000094700654000000000000023198000000000021937121000000000000009999123100000010000000000000BRWHGRCTF008128
012024091812WPLZ11      010FII W PLAZA CI           R$  000000000580000000000058500000000005750000000000581400000000058400000000005800000000000584900020000000000000000235000000000001366496000000000000009999123100000010000000000000BRWPLZCTF004269
012024091812WSEC11      010FII WARREN  CI  ER       R$  000000000088800000000008880000000000869000000000088000000000008690000000000866000000000086900022000000000000000298000000000000262370000000000000009999123100000010000000000000BRWSECCTF010124
012024091812BICR11      010FII INTER   CI           R$  000000000384100000000038410000000003839000000000384000000000038400000000003840000000000410000007000000000000000020000000000000076802000000000000009999123100000010000000000000BRBICRCTF009155
012024091812BIME11      010FII BRIO ME CI           R$  000000000072800000000007360000000000728000000000073000000000007300000000000730000000000073200224000000000000018540000000000013535879000000000000009999123100000010000000000000BRBIMECTF006135
