00COTAHIST.2024BOVESPA 20240902                                                                                                                                                                                                                      
012024090202DMVF3       010D1000VFARMA ON      NM   R$  000000000071200000000007390000000000685000000000070100000000007360000000000712000000000073600853000000000000144900000000000101606800000000000000009999123100000010000000000000BRDMVFACNOR9100
012024090202DOHL4       010DOHLER      PN           R$  000000000042300000000004400000000000423000000000043200000000004400000000000407000000000043900005000000000000000500000000000000216100000000000000009999123100000010000000000000BRDOHLACNPR9066
012024090202DOTZ3       010DOTZ SA     ON      NM   R$  000000000087600000000008790000000000850000000000086800000000008500000000000847000000000085900091000000000000022700000000000019709700000000000000009999123100000010000000000000BRDOTZACNOR7101
012024090202DXCO3       010DEXCO       ON      NM   R$  000000000082200000000008220000000000799000000000080600000000008050000000000802000000000080505030000000000001752000000000001412849200000000000000009999123100000010000000000000BRDXCOACNOR8105
012024090202GGPS3       010GPS         ON      NM   R$  000000000181600000000018170000000001758000000000177100000000017660000000001758000000000176905695000000000001911300000000003386324700000000000000009999123100000010000000000000BRGGPSACNOR9103
012024090202GMAT3       010GRUPO MATEUSON      NM   R$  000000000078200000000007920000000000767000000000078000000000007890000000000789000000000079007605000000000002284600000000001782254300000000000000009999123100000010000000000000BRGMATACNOR7102
012024090202GOAU3       010GERDAU MET  ON      N1   R$  000000000105600000000010720000000001055000000000106500000000010720000000001068000000000107300171000000000000033400000000000035575600000000000000009999123100000010000000000000BRGOAUACNOR1268
012024090202GOAU4       010GERDAU MET  PN      N1   R$  000000000104900000000010500000000001037000000000104400000000010430000000001043000000000104408212000000000004891600000000005109310500000000000000009999123100000010000000000000BRGOAUACNPR8269
012024090202MILS3       010MILLS       ON      NM   R$  000000000109000000000010990000000001087000000000109200000000010990000000001096000000000109902908000000000000486900000000000531822500000000000000009999123100000010000000000000BRMILSACNOR2128
012024090202MLAS3       010MULTILASER  ON      NM   R$  000000000018600000000001900000000000184000000000018700000000001900000000000188000000000019002018000000000001422900000000000266872000000000000000009999123100000010000000000000BRMLASACNOR9101
012024090202MNDL3       010MUNDIAL     ON           R$  000000000141100000000014370000000001411000000000142300000000014370000000001411000000000143700009000000000000004800000000000006831900000000000000009999123100000010000000000000BRMNDLACNOR4109
012024090202MNPR3       010MINUPAR     ON           R$  000000000161800000000016180000000001618000000000161800000000016180000000001550000000000160900001000000000000000100000000000000161800000000000000009999123100000010000000000000BRMNPRACNOR5122
012024090202MOVI3       010MOVIDA      ON      NM   R$  000000000071200000000007120000000000696000000000070100000000006960000000000696000000000069803544000000000002140500000000001501755400000000000000009999123100000010000000000000BRMOVIACNOR0122
012024090202MRFG3       010MARFRIG     ON      NM   R$  000000000145400000000014540000000001385000000000140200000000013940000000001394000000000139515580000000000004771000000000006690901400000000000000009999123100000010000000000000BRMRFGACNOR0116
012024090202ALPK3       010ESTAPAR     ON      NM   R$  000000000037400000000003780000000000360000000000036600000000003700000000000366000000000037000614000000000000125000000000000045759000000000000000009999123100000010000000000000BRALPKACNOR9101
012024090202ALUP11      010ALUPAR      UNT     N2   R$  000000000316000000000032010000000003129000000000314600000000031300000000003130000000000315103266000000000000889400000000002798198400000000000000009999123100000010000000000000BRALUPCDAM15120
012024090202ALUP3       010ALUPAR      ON      N2   R$  000000000108000000000011140000000001035000000000107800000000010350000000001035000000000104000244000000000000041700000000000044970900000000000000009999123100000010000000000000BRALUPACNOR8120
012024090202ALUP4       010ALUPAR      PN      N2   R$  000000000104500000000010460000000001016000000000103200000000010200000000001020000000000104500188000000000000038200000000000039452100000000000000009999123100000010000000000000BRALUPACNPR5120
012024090202AMAR3       010LOJAS MARISAON      NM   R$  000000000011700000000001190000000000113000000000011400000000001140000000000113000000000011400875000000000000280500000000000032190400000000000000009999123100000010000000000000BRAMARACNOR4115
012024090202AMBP3       010AMBIPAR     ON      NM   R$  000000000709800000000072040000000006396000000000665600000000066300000000006600000000000664702557000000000000555700000000003699147300000000000000009999123100000010000000000000BRAMBPACNOR6103
012024090202ANIM3       010ANIMA       ON      NM   R$  000000000032600000000003330000000000320000000000032800000000003240000000000324000000000032908654000000000005960000000000001955280700000000000000009999123100000010000000000000BRANIMACNOR6109
012024090202BRSR3       010BANRISUL    ON      N1   R$  000000000136500000000013750000000001348000000000135900000000013600000000001360000000000136400128000000000000031900000000000043377400000000000000009999123100000010000000000000BRBRSRACNOR3188
012024090202BRSR6       010BANRISUL    PNB     N1   R$  000000000126600000000013070000000001263000000000128700000000013000000000001298000000000130005081000000000001458800000000001877565800000000000000009999123100000010000000000000BRBRSRACNPB4191
012024090202CXSE3       010CAIXA SEGURION      NM   R$  000000000163000000000016420000000001602000000000162000000000016230000000001615000000000162312787000000000003764400000000006101919100000000000000009999123100000010000000000000BRCXSEACNOR7107
012024090202CYRE3       010CYRELA REALTON      NM   R$  000000000216200000000021890000000002145000000000215600000000021600000000002157000000000216017345000000000003259900000000007030154100000000000000009999123100000010000000000000BRCYREACNOR7140
012024090202GEPA3       010GER PARANAP ON           R$  000000000264500000000026500000000002645000000000264800000000026490000000002590000000000264900004000000000000000500000000000001324400000000000000009999123100000010000000000000BRGEPAACNOR2153
012024090202GEPA4       010GER PARANAP PN           R$  000000000267500000000027000000000002675000000000268700000000027000000000002651000000000274900004000000000000000400000000000001075000000000000000009999123100000010000000000000BRGEPAACNPR9160
012024090202GFSA3       010GAFISA      ON      NM   R$  000000000026400000000002670000000000256000000000026100000000002600000000000260000000000026202408000000000002891800000000000757108400000000000000009999123100000010000000000000BRGFSAACNOR3125
012024090202GGBR3       010GERDAU      ON      N1   R$  000000000162100000000016250000000001601000000000161600000000016060000000001606000000000162500206000000000000028400000000000045898100000000000000009999123100000010000000000000BRGGBRACNOR1193
012024090202GGBR4       010GERDAU      PN      N1   R$  000000000181800000000018390000000001811000000000182900000000018320000000001830000000000183310675000000000004610100000000008432440700000000000000009999123100000010000000000000BRGGBRACNPR8193
012024090202ITUB3       010ITAUUNIBANCOON  EJ  N1   R$  000000000318000000000031860000000003161000000000316700000000031670000000003167000000000316901074000000000000608700000000001928054900000000000000009999123100000010000000000000BRITUBACNOR4340
012024090202ITUB4       010ITAUUNIBANCOPN  EJ  N1   R$  000000000365700000000036700000000003634000000000365100000000036390000000003638000000000363921511000000000010168000000000037127459500000000000000009999123100000010000000000000BRITUBACNPR1340
012024090202AERI3       010AERIS       ON      NM   R$  000000000124000000000012400000000001100000000000115800000000011380000000001130000000000113802704000000000000907300000000001050671100000000000000009999123100000010000000000000BRAERIACNOR4102
012024090202AESB3       010AES BRASIL  ON  ES  NM   R$  000000000114200000000011450000000001137000000000114000000000011450000000001142000000000114503910000000000006287000000000007167383100000000000000009999123100000010000000000000BRAESBACNOR7107
012024090202AFLT3       010AFLUENTE T  ON           R$  000000000074500000000007500000000000727000000000074900000000007270000000000720000000000074900004000000000000019500000000000014619200000000000000009999123100000010000000000000BRAFLTACNOR1122
012024090202AGRO3       010BRASILAGRO  ON      NM   R$  000000000252800000000025740000000002498000000000253800000000025740000000002574000000000257502128000000000000449100000000001139889600000000000000009999123100000010000000000000BRAGROACNOR7114
012024090202SNSY3       010SANSUY      ON           R$  000000000127500000000013180000000001275000000000131000000000013180000000001270000000000131800003000000000000000600000000000000786200000000000000009999123100000010000000000000BRSNSYACNOR2113
012024090202SNSY5       010SANSUY      PNA          R$  000000000059700000000006140000000000597000000000060500000000006140000000000567000000000061400002000000000000000200000000000000121100000000000000009999123100000010000000000000BRSNSYACNPA5111
012024090202SOJA3       010BOA SAFRA   ON      NM   R$  000000000129100000000013040000000001275000000000129100000000013040000000001296000000000130402902000000000001104100000000001425535300000000000000009999123100000010000000000000BRSOJAACNOR9105
012024090202SRNA3       010SERENA      ON      NM   R$  000000000081000000000008100000000000792000000000079800000000007960000000000796000000000079906758000000000001939900000000001549620900000000000000009999123100000010000000000000BRSRNAACNOR4100
012024090202VVEO3       010VIVEO       ON      NM   R$  000000000018600000000001910000000000181000000000018500000000001850000000000185000000000018703054000000000002437300000000000452368800000000000000009999123100000010000000000000BRVVEOACNOR0104
012024090202WEGE3       010WEG         ON      NM   R$  000000000544900000000054590000000005217000000000527900000000052350000000005235000000000524018348000000000005049200000000026655140600000000000000009999123100000010000000000000BRWEGEACNOR0224
012024090202WEST3       010WESTWING    ON      NM   R$  000000000009000000000000930000000000089000000000009000000000000920000000000090000000000009200042000000000000035800000000000003254400000000000000009999123100000010000000000000BRWESTACNOR3100
012024090202WHRL3       010WHIRLPOOL   ON           R$  000000000043100000000004360000000000431000000000043200000000004320000000000431000000000043200015000000000000002900000000000001255200000000000000009999123100000010000000000000BRWHRLACNOR5128
012024090202STBP3       010SANTOS BRP  ON      NM   R$  000000000130700000000013280000000001298000000000130800000000013060000000001298000000000130616818000000000006420700000000008399342200000000000000009999123100000010000000000000BRSTBPACNOR3131
012024090202SUZB3       010SUZANO S.A. ON      NM   R$  000000000547300000000055980000000005473000000000553900000000055090000000005505000000000550913104000000000003703900000000020518782400000000000000009999123100000010000000000000BRSUZBACNOR0130
012024090202RADL3       010RAIADROGASILON      NM   R$  000000000275300000000027640000000002713000000000272500000000027180000000002718000000000272010725000000000002377300000000006479109500000000000000009999123100000010000000000000BRRADLACNOR0157
012024090202RAIL3       010RUMO S.A.   ON      NM   R$  000000000217000000000021770000000002138000000000214900000000021480000000002147000000000214820388000000000010663700000000022925813000000000000000009999123100000010000000000000BRRAILACNOR9105
012024090202SMFT3       010SMART FIT   ON      NM   R$  000000000223400000000022350000000002186000000000219100000000021870000000002187000000000219706654000000000001798300000000003941711800000000000000009999123100000010000000000000BRSMFTACNOR1112
012024090202SMTO3       010SAO MARTINHOON      NM   R$  000000000273900000000027530000000002686000000000271300000000027330000000002720000000000273307412000000000001384700000000003757375400000000000000009999123100000010000000000000BRSMTOACNOR3127
012024090202PTBL3       010PORTOBELLO  ON      NM   R$  000000000048700000000005060000000000483000000000049400000000005000000000000499000000000050001890000000000000594800000000000294228300000000000000009999123100000010000000000000BRPTBLACNOR8132
012024090202PTNT3       010PETTENATI   ON           R$  000000000094900000000009490000000000949000000000094900000000009490000000000925000000000094000001000000000000000100000000000000094900000000000000009999123100000010000000000000BRPTNTACNOR6042
012024090202PTNT4       010PETTENATI   PN           R$  000000000073000000000007400000000000725000000000073100000000007400000000000725000000000074000030000000000000017700000000000012941000000000000000009999123100000010000000000000BRPTNTACNPR3047
012024090202WHRL4       010WHIRLPOOL   PN           R$  000000000045800000000004620000000000449000000000045800000000004520000000000451000000000045700032000000000000007700000000000003531000000000000000009999123100000010000000000000BRWHRLACNPR2128
012024090202WIZC3       010WIZ CO      ON      NM   R$  000000000062100000000006230000000000606000000000061000000000006090000000000609000000000061201908000000000000384200000000000234698300000000000000009999123100000010000000000000BRWIZCACNOR5102
012024090202WLMM3       010WLM IND COM ON           R$  000000000277600000000027760000000002776000000000277600000000027760000000002650000000000290000001000000000000000100000000000000277600000000000000009999123100000010000000000000BRWLMMACNOR6119
012024090202SEER3       010SER EDUCA   ON      NM   R$  000000000064800000000006540000000000628000000000064000000000006540000000000653000000000065400979000000000000286900000000000183813000000000000000009999123100000010000000000000BRSEERACNOR5119
012024090202SEQL3       010SEQUOIA LOG ON      NM   R$  000000000063200000000006650000000000624000000000063900000000006240000000000621000000000062401506000000000000667100000000000426285700000000000000009999123100000010000000000000BRSEQLACNOR2103
012024090202SHOW3       010TIME FOR FUNON      NM   R$  000000000010800000000001130000000000103000000000010600000000001080000000000104000000000010800503000000000000455800000000000048420000000000000000009999123100000010000000000000BRSHOWACNOR7105
012024090202SHUL4       010SCHULZ      PN           R$  000000000066900000000006690000000000657000000000066100000000006670000000000667000000000066800495000000000000155200000000000102697300000000000000009999123100000010000000000000BRSHULACNPR4156
012024090202SIMH3       010SIMPAR      ON      NM   R$  000000000061000000000006180000000000608000000000061200000000006110000000000611000000000061403276000000000001909600000000001170290800000000000000009999123100000010000000000000BRSIMHACNOR0107
012024090202SLCE3       010SLC AGRICOLAON      NM   R$  000000000178500000000017850000000001734000000000174700000000017420000000001742000000000174307022000000000002485000000000004342178200000000000000009999123100000010000000000000BRSLCEACNOR2125
012024090202PRNR3       010PRINER      ON      NM   R$  000000000132300000000013280000000001280000000000129900000000013030000000001290000000000130402023000000000000385000000000000500475900000000000000009999123100000010000000000000BRPRNRACNOR4109
012024090202YDUQ3       010YDUQS PART  ON      NM   R$  000000000098600000000010040000000000967000000000097900000000009670000000000967000000000096806475000000000003387800000000003319861000000000000000009999123100000010000000000000BRYDUQACNOR3105
012024090202MYPK3       010IOCHP-MAXIONON      NM   R$  000000000116500000000011650000000001149000000000115300000000011500000000001150000000000115504104000000000000801200000000000924524400000000000000009999123100000010000000000000BRMYPKACNOR7155
012024090202NEOE3       010NEOENERGIA  ON      NM   R$  000000000199000000000019950000000001965000000000197600000000019650000000001965000000000197904410000000000000728700000000001440295400000000000000009999123100000010000000000000BRNEOEACNOR3123
012024090202NGRD3       010NEOGRID     ON      NM   R$  000000000013000000000001350000000000129000000000013100000000001340000000000133000000000013401731000000000000493900000000000065109400000000000000009999123100000010000000000000BRNGRDACNOR3104
012024090202NINJ3       010GETNINJAS   ON      NM   R$  000000000046500000000004700000000000465000000000046700000000004700000000000465000000000047500016000000000000004100000000000001918100000000000000009999123100000010000000000000BRNINJACNOR5101
012024090202NTCO3       010GRUPO NATURAON      NM   R$  000000000135000000000013540000000001311000000000132400000000013110000000001311000000000131318210000000000006460900000000008559046000000000000000009999123100000010000000000000BRNTCOACNOR5106
012024090202RCSL3       010RECRUSUL    ON           R$  000000000048200000000006890000000000481000000000061300000000006570000000000656000000000065706753000000000002520200000000001546318300000000000000009999123100000010000000000000BRRCSLACNOR4134
012024090202RCSL4       010RECRUSUL    PN           R$  000000000009000000000001070000000000089000000000010000000000001010000000000101000000000010201292000000000002905700000000000293043200000000000000009999123100000010000000000000BRRCSLACNPR1134
012024090202RDNI3       010RNI         ON      NM   R$  000000000033000000000003300000000000324000000000032500000000003240000000000324000000000032700006000000000000000600000000000000195400000000000000009999123100000010000000000000BRRDNIACNOR9116
012024090202RDOR3       010REDE D OR   ON      NM   R$  000000000316300000000031860000000003137000000000316200000000031670000000003167000000000316814361000000000003177900000000010050865100000000000000009999123100000010000000000000BRRDORACNOR8113
012024090202RECV3       010PETRORECSA  ON      NM   R$  000000000204000000000020670000000002020000000000204800000000020450000000002045000000000204606116000000000001325300000000002715532600000000000000009999123100000010000000000000BRRECVACNOR3107
012024090202ROMI3       010ROMI        ON      NM   R$  000000000110300000000011030000000001085000000000109400000000010890000000001089000000000109401061000000000000232300000000000254269400000000000000009999123100000010000000000000BRROMIACNOR8195
012024090202TASA3       010TAURUS ARMASON      N2   R$  000000000114100000000011480000000001119000000000113200000000011210000000001120000000000112900125000000000000022100000000000025026300000000000000009999123100000010000000000000BRTASAACNOR7104
012024090202TASA4       010TAURUS ARMASPN      N2   R$  000000000113000000000011410000000001103000000000111900000000011100000000001110000000000111301979000000000000419900000000000470269400000000000000009999123100000010000000000000BRTASAACNPR4104
012024090202TCSA3       010TECNISA     ON      NM   R$  000000000019600000000001960000000000193000000000019300000000001930000000000193000000000019400163000000000000110100000000000021304400000000000000009999123100000010000000000000BRTCSAACNOR3112
012024090202TECN3       010TECHNOS     ON      NM   R$  000000000053900000000005490000000000531000000000053700000000005310000000000531000000000053300280000000000000103900000000000055810700000000000000009999123100000010000000000000BRTECNACNOR6109
012024090202REDE3       010REDE ENERGIAON           R$  000000000070000000000007000000000000692000000000069700000000006990000000000692000000000070000009000000000000000900000000000000628000000000000000009999123100000010000000000000BRREDEACNOR7128
012024090202RENT3       010LOCALIZA    ON      NM   R$  000000000412100000000041550000000004060000000000412600000000041250000000004123000000000412518510000000000004839700000000019971785200000000000000009999123100000010000000000000BRRENTACNOR4196
012024090202SYNE3       010SYN PROP TECON      NM   R$  000000000080600000000008130000000000798000000000080300000000008060000000000800000000000080602724000000000001121800000000000901695900000000000000009999123100000010000000000000BRSYNEACNOR2103
012024090202TELB3       010TELEBRAS    ON           R$  000000000137200000000013880000000001372000000000137300000000013740000000001374000000000139700010000000000000001400000000000001923400000000000000009999123100000010000000000000BRTELBACNOR2140
012024090202TELB4       010TELEBRAS    PN           R$  000000000093000000000009890000000000930000000000096000000000009560000000000956000000000098000037000000000000008500000000000008166000000000000000009999123100000010000000000000BRTELBACNPR9140
012024090202TEND3       010TENDA       ON      NM   R$  000000000133300000000013540000000001318000000000133100000000013280000000001328000000000133205765000000000001499300000000001995655800000000000000009999123100000010000000000000BRTENDACNOR4111
012024090202TFCO4       010TRACK FIELD PN      N2   R$  000000000117500000000011750000000001151000000000115900000000011550000000001153000000000116500409000000000000084100000000000097491100000000000000009999123100000010000000000000BRTFCOACNPR8114
012024090202TGMA3       010TEGMA       ON      NM   R$  000000000262600000000026400000000002565000000000259300000000026030000000002603000000000260800975000000000000146500000000000379932100000000000000009999123100000010000000000000BRTGMAACNOR7145
012024090202TIMS3       010TIM         ON      NM   R$  000000000178400000000017850000000001757000000000176700000000017800000000001766000000000178009041000000000003555800000000006284076100000000000000009999123100000010000000000000BRTIMSACNOR5117
012024090202TAEE11      010TAESA       UNT     N2   R$  000000000351900000000035600000000003519000000000354300000000035430000000003543000000000354705726000000000001256800000000004453694200000000000000009999123100000010000000000000BRTAEECDAM10148
012024090202TAEE3       010TAESA       ON      N2   R$  000000000117700000000011780000000001163000000000117200000000011720000000001171000000000117600516000000000000105900000000000124198500000000000000009999123100000010000000000000BRTAEEACNOR9148
012024090202TAEE4       010TAESA       PN      N2   R$  000000000118500000000011910000000001178000000000118500000000011900000000001189000000000119000813000000000000179000000000000212246600000000000000009999123100000010000000000000BRTAEEACNPR6148
012024090202VAMO3       010VAMOS       ON      NM   R$  000000000075500000000007600000000000744000000000075100000000007520000000000751000000000075210309000000000005645700000000004241008700000000000000009999123100000010000000000000BRVAMOACNOR7105
012024090202RAIZ4       010RAIZEN      PN      N2   R$  000000000031900000000003200000000000316000000000031700000000003180000000000318000000000031906722000000000005522000000000001755317400000000000000009999123100000010000000000000BRRAIZACNPR6111
012024090202RANI3       010IRANI       ON      NM   R$  000000000080000000000008050000000000776000000000079000000000007760000000000776000000000077706161000000000002900900000000002292662300000000000000009999123100000010000000000000BRRANIACNOR5073
012024090202RAPT3       010RANDON PART ON      N1   R$  000000000089300000000008970000000000884000000000089200000000008900000000000890000000000089500110000000000000016800000000000014996100000000000000009999123100000010000000000000BRRAPTACNOR7163
012024090202RAPT4       010RANDON PART PN      N1   R$  000000000111100000000011230000000001089000000000111000000000011210000000001121000000000112205252000000000001771200000000001966241300000000000000009999123100000010000000000000BRRAPTACNPR4163
012024090202TOTS3       010TOTVS       ON      NM   R$  000000000299000000000029970000000002922000000000294000000000029260000000002926000000000293508427000000000001537600000000004521337300000000000000009999123100000010000000000000BRTOTSACNOR8145
012024090202VBBR3       010VIBRA       ON      NM   R$  000000000255300000000025760000000002526000000000254300000000025400000000002537000000000254019904000000000006880600000000017499484200000000000000009999123100000010000000000000BRVBBRACNOR1108
012024090202BEEF3       010MINERVA     ON      NM   R$  000000000074500000000007450000000000720000000000072600000000007240000000000723000000000072406842000000000007587900000000005509402200000000000000009999123100000010000000000000BRBEEFACNOR6116
012024090202BPAC11      010BTGP BANCO  UNT     N2   R$  000000000356500000000035720000000003496000000000352400000000035300000000003530000000000353114325000000000003523700000000012419647000000000000000009999123100000010000000000000BRBPACUNT006119
012024090202FRAS3       010FRAS-LE     ON      N1   R$  000000000197400000000019770000000001936000000000194700000000019530000000001939000000000195401911000000000000541300000000001054303100000000000000009999123100000010000000000000BRFRASACNOR0160
012024090202FRIO3       010METALFRIO   ON      NM   R$  000000001775400000000190000000000016020000000001759900000000160200000000012100000000001900000037000000000000005200000000000091519400000000000000009999123100000010000000000000BRFRIOACNOR2111
012024090202BMEB4       010MERCANTIL   PN      N1   R$  000000000382000000000039450000000003800000000000386300000000039450000000003887000000000394500079000000000000014900000000000057573200000000000000009999123100000010000000000000BRBMEBACNPR5211
012024090202BMGB4       010BANCO BMG   PN      N1   R$  000000000037500000000003840000000000375000000000037600000000003800000000000380000000000038200876000000000000786900000000000296544300000000000000009999123100000010000000000000BRBMGBACNPR0110
012024090202BMKS3       010BIC MONARK  ON           R$  000000003075100000000310000000000030503000000003070500000000306100000000030610000000003099900018000000000000000026000000000000798355000000000000009999123100000010000000000000BRBMKSACNOR9166
012024090202BMOB3       010BEMOBI TECH ON      NM   R$  000000000159300000000015930000000001536000000000155100000000015480000000001535000000000155002177000000000000288400000000000447346000000000000000009999123100000010000000000000BRBMOBACNOR7103
012024090202BOBR4       010BOMBRIL     PN           R$  000000000021400000000002140000000000209000000000021000000000002090000000000209000000000021000004000000000000002100000000000000442500000000000000009999123100000010000000000000BRBOBRACNPR3128
012024090202BRIT3       010BRISANET    ON      NM   R$  000000000035300000000003550000000000351000000000035200000000003520000000000351000000000035200915000000000000325200000000000114549800000000000000009999123100000010000000000000BRBRITACNOR0103
012024090202BRKM3       010BRASKEM     ON      N1   R$  000000000182800000000018500000000001790000000000181600000000018040000000001790000000000185000082000000000000014600000000000026527400000000000000009999123100000010000000000000BRBRKMACNOR1119
012024090202BRKM5       010BRASKEM     PNA     N1   R$  000000000180500000000018570000000001790000000000182000000000018090000000001808000000000180907218000000000002409000000000004385632000000000000000009999123100000010000000000000BRBRKMACNPA4121
012024090202CSUD3       010CSU DIGITAL ON      NM   R$  000000000193800000000019380000000001865000000000188900000000018710000000001871000000000188100400000000000000047800000000000090309600000000000000009999123100000010000000000000BRCSUDACNOR5110
012024090202CURY3       010CURY S/A    ON      NM   R$  000000000237300000000024380000000002373000000000240600000000024020000000002402000000000240905826000000000001124200000000002705534400000000000000009999123100000010000000000000BRCURYACNOR3109
012024090202CVCB3       010CVC BRASIL  ON      NM   R$  000000000019600000000001970000000000191000000000019300000000001920000000000192000000000019304475000000000008069700000000001564376800000000000000009999123100000010000000000000BRCVCBACNOR1116
012024090202FESA3       010FERBASA     ON      N1   R$  000000000135100000000013510000000001350000000000135000000000013500000000001350000000000149900002000000000000000400000000000000540200000000000000009999123100000010000000000000BRFESAACNOR8188
012024090202FESA4       010FERBASA     PN      N1   R$  000000000083100000000008330000000000806000000000081500000000008080000000000808000000000081001595000000000000439000000000000358111300000000000000009999123100000010000000000000BRFESAACNPR5084
012024090202FHER3       010FER HERINGERON      NM   R$  000000000041500000000004280000000000411000000000041800000000004220000000000422000000000042600015000000000000004100000000000001716100000000000000009999123100000010000000000000BRFHERACNOR5103
012024090202FIEI3       010FICA        ON           R$  000000000083000000000008300000000000800000000000080400000000008060000000000750000000000083000010000000000000002300000000000001849300000000000000009999123100000010000000000000BRFIEIACNOR2100
012024090202FIQE3       010UNIFIQUE    ON      NM   R$  000000000038300000000003830000000000376000000000037900000000003800000000000378000000000038103337000000000000611100000000000232014100000000000000009999123100000010000000000000BRFIQEACNOR5107
012024090202FLRY3       010FLEURY      ON      NM   R$  000000000160800000000016080000000001560000000000157700000000015770000000001574000000000157807423000000000002538200000000004003099300000000000000009999123100000010000000000000BRFLRYACNOR5139
012024090202PSSA3       010PORTO SEGUROON      NM   R$  000000000340000000000034930000000003382000000000345400000000034790000000003469000000000347906583000000000001570500000000005424619300000000000000009999123100000010000000000000BRPSSAACNOR7155
012024090202SAPR11      010SANEPAR     UNT     N2   R$  000000000286000000000028780000000002850000000000286300000000028690000000002869000000000287302789000000000000435600000000001247389400000000000000009999123100000010000000000000BRSAPRCDAM13118
012024090202SAPR3       010SANEPAR     ON      N2   R$  000000000054200000000005450000000000538000000000054100000000005440000000000542000000000054400339000000000000108300000000000058622100000000000000009999123100000010000000000000BRSAPRACNOR9159
012024090202SAPR4       010SANEPAR     PN      N2   R$  000000000058400000000005840000000000575000000000057900000000005830000000000582000000000058301653000000000000797100000000000461534600000000000000009999123100000010000000000000BRSAPRACNPR6159
012024090202SBFG3       010GRUPO SBF   ON      NM   R$  000000000173500000000017350000000001662000000000168300000000016830000000001680000000000168305173000000000000993100000000001671440900000000000000009999123100000010000000000000BRSBFGACNOR1103
012024090202SBSP3       010SABESP      ON      NM   R$  000000000945600000000094850000000009315000000000937200000000094360000000009432000000000943810742000000000002739400000000025674104600000000000000009999123100000010000000000000BRSBSPACNOR5161
012024090202VALE3       010VALE        ON      NM   R$  000000000588200000000058880000000005842000000000586200000000058740000000005870000000000587431477000000000013155000000000077117655700000000000000009999123100000010000000000000BRVALEACNOR0211
012024090202PDGR3       010PDG REALT   ON      NM   R$  000000000001600000000000170000000000015000000000001600000000000160000000000015000000000001600406000000000002394500000000000038398400000000000000009999123100000010000000000000BRPDGRACNOR8119
012024090202PDTC3       010PADTEC      ON      NM   R$  000000000020900000000002100000000000205000000000020500000000002070000000000206000000000020700054000000000000032600000000000006714300000000000000009999123100000010000000000000BRPDTCACNOR3101
012024090202PEAB4       010PAR AL BAHIAPN           R$  000000000484800000000048500000000004848000000000484900000000048500000000000000000000000489900003000000000000000500000000000002424600000000000000009999123100000010000000000000BRPEABACNPR0133
012024090202PETR3       010PETROBRAS   ON  EDJ N2   R$  000000000428000000000043240000000004241000000000426900000000042760000000004272000000000427918196000000000005276000000000022526147200000000000000009999123100000010000000000000BRPETRACNOR9206
012024090202PETR4       010PETROBRAS   PN  EDJ N2   R$  000000000393300000000039400000000003889000000000390500000000039000000000003900000000000390134889000000000015288400000000059712071100000000000000009999123100000010000000000000BRPETRACNPR6214
012024090202RSUL4       010RIOSULENSE  PN           R$  000000000649000000000066960000000006450000000000650100000000064980000000006405000000000649900009000000000000001000000000000006501500000000000000009999123100000010000000000000BRRSULACNPR3114
012024090202EVEN3       010EVEN        ON      NM   R$  000000000063600000000006460000000000633000000000063800000000006400000000000640000000000064503061000000000000675600000000000431422200000000000000009999123100000010000000000000BREVENACNOR8119
012024090202EZTC3       010EZTEC       ON      NM   R$  000000000139100000000013980000000001371000000000138100000000013710000000001371000000000137405159000000000001500800000000002073806700000000000000009999123100000010000000000000BREZTCACNOR0126
012024090202LUPA3       010LUPATECH    ON      NM   R$  000000000015300000000001530000000000150000000000015000000000001520000000000151000000000015200067000000000000082800000000000012488500000000000000009999123100000010000000000000BRLUPAACNOR8112
012024090202LUXM4       010TREVISA     PN           R$  000000000134700000000013470000000001290000000000131600000000012900000000001207000000000134600008000000000000001000000000000001316000000000000000009999123100000010000000000000BRLUXMACNPR4052
012024090202ITSA3       010ITAUSA      ON  EJ  N1   R$  000000000109700000000010990000000001088000000000109200000000010910000000001088000000000109100448000000000000102200000000000111627400000000000000009999123100000010000000000000BRITSAACNOR0442
012024090202ITSA4       010ITAUSA      PN  EJ  N1   R$  000000000109800000000010990000000001085000000000108900000000010870000000001086000000000108718035000000000018387300000000020035526400000000000000009999123100000010000000000000BRITSAACNPR7442
012024090202MGLU3       010MAGAZ LUIZA ON      NM   R$  000000000120000000000012200000000001183000000000120400000000011970000000001197000000000119917061000000000013191900000000015885287800000000000000009999123100000010000000000000BRMGLUACNOR2124
012024090202AALR3       010ALLIAR      ON      NM   R$  000000000158700000000016400000000001519000000000158900000000015940000000001539000000000159500092000000000000023900000000000037995100000000000000009999123100000010000000000000BRAALRACNOR6102
012024090202ABCB4       010ABC BRASIL  PN      N2   R$  000000000232500000000023500000000002282000000000230000000000023500000000002337000000000235003456000000000000711200000000001635843100000000000000009999123100000010000000000000BRABCBACNPR4146
012024090202ABEV3       010AMBEV S/A   ON           R$  000000000128100000000012890000000001270000000000128100000000012870000000001285000000000128718860000000000012639100000000016200291600000000000000009999123100000010000000000000BRABEVACNOR1128
012024090202BAHI3       010BAHEMA      ON      MA   R$  000000000067700000000006770000000000677000000000067700000000006770000000000677000000000069500004000000000000002000000000000001354000000000000000009999123100000010000000000000BRBAHIACNOR1074
012024090202BALM4       010BAUMER      PN           R$  000000000111000000000011150000000001110000000000111100000000011150000000001070000000000111000003000000000000000300000000000000333500000000000000009999123100000010000000000000BRBALMACNPR2056
012024090202BAZA3       010AMAZONIA    ON           R$  000000000940500000000098500000000009150000000000929500000000092450000000009245000000000929000159000000000000035600000000000330908200000000000000009999123100000010000000000000BRBAZAACNOR0179
012024090202BBAS3       010BRASIL      ON  EX  NM   R$  000000000283800000000028540000000002815000000000283400000000028420000000002842000000000284329686000000000011920800000000033784493300000000000000009999123100000010000000000000BRBBASACNOR3325
012024090202HYPE3       010HYPERA      ON      NM   R$  000000000285400000000028630000000002799000000000282200000000028150000000002814000000000281512191000000000002909300000000008211029200000000000000009999123100000010000000000000BRHYPEACNOR0143
012024090202BHIA3       010CASAS BAHIA ON      NM   R$  000000000074000000000007400000000000696000000000071600000000007000000000000699000000000070004621000000000004246600000000003042567700000000000000009999123100000010000000000000BRBHIAACNOR1102
012024090202BRBI11      010BR PARTNERS UNT     N2   R$  000000000152200000000015230000000001481000000000149600000000014960000000001495000000000150404240000000000001016600000000001521283900000000000000009999123100000010000000000000BRBRBICDAM10110
012024090202BRFS3       010BRF SA      ON      NM   R$  000000000262000000000026200000000002461000000000249100000000024650000000002464000000000246520497000000000006576300000000016384454600000000000000009999123100000010000000000000BRBRFSACNOR8122
012024090202CSED3       010CRUZEIRO EDUON  ED  NM   R$  000000000036600000000003660000000000356000000000035800000000003590000000000359000000000036101651000000000000442700000000000158753400000000000000009999123100000010000000000000BRCSEDACNOR9105
012024090202CSMG3       010COPASA      ON      NM   R$  000000000232200000000023710000000002307000000000234400000000023710000000002369000000000237106295000000000001234800000000002894408600000000000000009999123100000010000000000000BRCSMGACNOR5174
012024090202CSNA3       010SID NACIONALON           R$  000000000116900000000011770000000001163000000000116900000000011750000000001174000000000117507374000000000003389600000000003963734700000000000000009999123100000010000000000000BRCSNAACNOR6261
012024090202EQMA3B      010EQTLMARANHAOON      MB   R$  000000000255000000000025500000000002550000000000255000000000025500000000002501000000000255000001000000000000001300000000000003315000000000000000009999123100000010000000000000BREQMAACNOR8108
012024090202JHSF3       010JHSF PART   ON  ED  NM   R$  000000000043500000000004450000000000434000000000043800000000004450000000000443000000000044504562000000000003863300000000001695487100000000000000009999123100000010000000000000BRJHSFACNOR2139
012024090202JOPA3       010JOSAPAR     ON           R$  000000000213100000000021310000000002131000000000213100000000021310000000002125000000000220000001000000000000000100000000000000213100000000000000009999123100000010000000000000BRJOPAACNOR5135
012024090202JSLG3       010JSL         ON      NM   R$  000000000099100000000009990000000000965000000000098200000000009960000000000974000000000099603093000000000000478000000000000469789300000000000000009999123100000010000000000000BRJSLGACNOR2121
012024090202EQPA3       010EQTL PARA   ON           R$  000000000060600000000006400000000000606000000000061400000000006070000000000606000000000062000142000000000000027100000000000016646400000000000000009999123100000010000000000000BREQPAACNOR1111
012024090202EQTL3       010EQUATORIAL  ON      NM   R$  000000000340100000000034680000000003389000000000341800000000034110000000003408000000000341819987000000000006595100000000022543534900000000000000009999123100000010000000000000BREQTLACNOR0131
012024090202ESPA3       010ESPACOLASER ON      NM   R$  000000000010600000000001200000000000104000000000011300000000001150000000000114000000000011502655000000000002153700000000000244312000000000000000009999123100000010000000000000BRESPAACNOR7103
012024090202ESTR4       010ESTRELA     PN           R$  000000000021200000000002330000000000212000000000022400000000002200000000000209000000000023200010000000000000002700000000000000606400000000000000009999123100000010000000000000BRESTRACNPR0144
012024090202ETER3       010ETERNIT     ON      NM   R$  000000000058600000000005910000000000582000000000058500000000005860000000000586000000000058900370000000000000104600000000000061291100000000000000009999123100000010000000000000BRETERACNOR3244
012024090202EUCA3       010EUCATEX     ON      N1   R$  000000000175000000000017500000000001740000000000174800000000017400000000001671000000000173000003000000000000000500000000000000874000000000000000009999123100000010000000000000BREUCAACNOR1157
012024090202EUCA4       010EUCATEX     PN      N1   R$  000000000156500000000015650000000001539000000000154800000000015620000000001562000000000156300273000000000000034000000000000052654700000000000000009999123100000010000000000000BREUCAACNPR8044
012024090202KEPL3       010KEPLER WEBERON      NM   R$  000000000111800000000011560000000001110000000000114500000000011510000000001150000000000115103895000000000001515300000000001735535000000000000000009999123100000010000000000000BRKEPLACNOR1064
012024090202KLBN11      010KLABIN S/A  UNT     N2   R$  000000000216300000000021650000000002142000000000215200000000021420000000002142000000000214708106000000000001883400000000004054187200000000000000009999123100000010000000000000BRKLBNCDAM18143
012024090202KLBN3       010KLABIN S/A  ON      N2   R$  000000000042900000000004340000000000428000000000043100000000004280000000000428000000000043100792000000000000246200000000000106193300000000000000009999123100000010000000000000BRKLBNACNOR2171
012024090202KLBN4       010KLABIN S/A  PN      N2   R$  000000000043900000000004390000000000428000000000043200000000004290000000000428000000000042902246000000000001261300000000000545495700000000000000009999123100000010000000000000BRKLBNACNPR9171
012024090202MTSA4       010METISA      PN           R$  000000000450900000000045090000000004300000000000434700000000043170000000004222000000000431800032000000000000003500000000000015215100000000000000009999123100000010000000000000BRMTSAACNPR9072
012024090202MULT3       010MULTIPLAN   ON      N2   R$  000000000256800000000025760000000002518000000000253200000000025350000000002522000000000253914476000000000002413600000000006113354100000000000000009999123100000010000000000000BRMULTACNOR5139
012024090202MRSA3B      010MRS LOGIST  ON      MB   R$  000000000325000000000032500000000003250000000000325000000000032500000000002950000000000325000001000000000000000100000000000000325000000000000000009999123100000010000000000000BRMRSAACNOR6125
012024090202MRVE3       010MRV         ON      NM   R$  000000000074200000000007430000000000727000000000073200000000007300000000000730000000000073107639000000000007057200000000005169942700000000000000009999123100000010000000000000BRMRVEACNOR2127
012024090202SANB11      010SANTANDER BRUNT          R$  000000000312400000000031400000000003105000000000312100000000031400000000003129000000000314005030000000000001551100000000004841749500000000000000009999123100000010000000000000BRSANBCDAM13165
012024090202SANB3       010SANTANDER BRON           R$  000000000149400000000014950000000001480000000000148700000000014810000000001480000000000149100649000000000000092800000000000138009100000000000000009999123100000010000000000000BRSANBACNOR8172
012024090202SANB4       010SANTANDER BRPN           R$  000000000163200000000016340000000001614000000000162700000000016260000000001626000000000163300738000000000000108300000000000176249100000000000000009999123100000010000000000000BRSANBACNPR5172
012024090202UCAS3       010UNICASA     ON      NM   R$  000000000023000000000002300000000000224000000000022600000000002280000000000227000000000022800088000000000000011200000000000002533600000000000000009999123100000010000000000000BRUCASACNOR1113
012024090202UGPA3       010ULTRAPAR    ON      NM   R$  000000000234100000000023420000000002257000000000227400000000022620000000002261000000000226310335000000000003278800000000007458777800000000000000009999123100000010000000000000BRUGPAACNOR8156
012024090202UNIP3       010UNIPAR      ON           R$  000000000477100000000048080000000004749000000000476900000000047860000000004768000000000478600086000000000000010100000000000048175100000000000000009999123100000010000000000000BRUNIPACNOR7206
012024090202UNIP5       010UNIPAR      PNA          R$  000000000480100000000048010000000004800000000000480000000000048000000000004840000000000493300003000000000000000500000000000002400100000000000000009999123100000010000000000000BRUNIPACNPA0208
012024090202UNIP6       010UNIPAR      PNB          R$  000000000479400000000048400000000004742000000000479100000000048130000000004799000000000481301190000000000000201300000000000964453700000000000000009999123100000010000000000000BRUNIPACNPB8206
012024090202USIM3       010USIMINAS    ON      N1   R$  000000000060900000000006090000000000600000000000060200000000006070000000000601000000000060700823000000000000311700000000000187702200000000000000009999123100000010000000000000BRUSIMACNOR3167
012024090202USIM5       010USIMINAS    PNA     N1   R$  000000000061900000000006210000000000615000000000061700000000006160000000000616000000000061708296000000000006460300000000003987515100000000000000009999123100000010000000000000BRUSIMACNPA6169
012024090202ZAMP3       010ZAMP S.A.   ON           R$  000000000030900000000003090000000000290000000000029600000000002910000000000291000000000029403556000000000000917500000000000272486900000000000000009999123100000010000000000000BRZAMPACNOR5101
012024090202LVTC3       010WDC NETWORKSON      NM   R$  000000000036800000000003730000000000362000000000036700000000003690000000000363000000000036900031000000000000013100000000000004814000000000000000009999123100000010000000000000BRLVTCACNOR4102
012024090202LWSA3       010LWSA        ON      NM   R$  000000000045300000000004620000000000451000000000045600000000004600000000000458000000000046007466000000000003007000000000001372129100000000000000009999123100000010000000000000BRLWSAACNOR8103
012024090202DESK3       010DESKTOP     ON      NM   R$  000000000157500000000015750000000001512000000000152200000000015210000000001515000000000152601019000000000000168800000000000256961900000000000000009999123100000010000000000000BRDESKACNOR2104
012024090202DEXP3       010DEXXOS PAR  ON      N1   R$  000000000096500000000009650000000000949000000000095600000000009490000000000948000000000095600442000000000000068300000000000065335900000000000000009999123100000010000000000000BRDEXPACNOR1105
012024090202DEXP4       010DEXXOS PAR  PN      N1   R$  000000000093800000000009380000000000938000000000093800000000009380000000000938000000000095500003000000000000000600000000000000562800000000000000009999123100000010000000000000BRDEXPACNPR8105
012024090202DIRR3       010DIRECIONAL  ON      NM   R$  000000000289300000000029610000000002877000000000293400000000029610000000002955000000000296208108000000000001436900000000004216267500000000000000009999123100000010000000000000BRDIRRACNOR0118
012024090202AGXY3       010AGROGALAXY  ON      NM   R$  000000000012400000000001240000000000110000000000011400000000001180000000000117000000000011800665000000000000710000000000000081306200000000000000009999123100000010000000000000BRAGXYACNOR4103
012024090202ALLD3       010ALLIED      ON      NM   R$  000000000075000000000007620000000000734000000000074400000000007340000000000734000000000073800634000000000000127600000000000094965400000000000000009999123100000010000000000000BRALLDACNOR3106
012024090202ALOS3       010ALLOS       ON      NM   R$  000000000224800000000022640000000002217000000000224500000000022630000000002261000000000226319249000000000006485000000000014564479000000000000000009999123100000010000000000000BRALOSACNOR5101
012024090202ALPA3       010ALPARGATAS  ON      N1   R$  000000000077500000000007750000000000743000000000076400000000007650000000000765000000000078300017000000000000006200000000000004742200000000000000009999123100000010000000000000BRALPAACNOR0231
012024090202ALPA4       010ALPARGATAS  PN      N1   R$  000000000076800000000007720000000000732000000000074600000000007630000000000755000000000076409726000000000006046900000000004512439100000000000000009999123100000010000000000000BRALPAACNPR7232
012024090202PFRM3       010PROFARMA    ON      NM   R$  000000000064000000000006450000000000626000000000063200000000006400000000000633000000000064001287000000000000447300000000000283036400000000000000009999123100000010000000000000BRPFRMACNOR1116
012024090202PGMN3       010PAGUE MENOS ON      NM   R$  000000000030300000000003140000000000301000000000030800000000003100000000000310000000000031203350000000000000900600000000000278159000000000000000009999123100000010000000000000BRPGMNACNOR8103
012024090202PINE3       010PINE        ON      N2   R$  000000000055200000000005520000000000550000000000055000000000005500000000000546000000000055900004000000000000000400000000000000220300000000000000009999123100000010000000000000BRPINEACNOR1150
012024090202PINE4       010PINE        PN      N2   R$  000000000049000000000004920000000000483000000000048700000000004830000000000483000000000048400604000000000000190200000000000092641000000000000000009999123100000010000000000000BRPINEACNPR8150
012024090202PLPL3       010PLANOEPLANO ON      NM   R$  000000000119000000000012050000000001168000000000118900000000012050000000001199000000000120502742000000000000577100000000000686717800000000000000009999123100000010000000000000BRPLPLACNOR5104
012024090202PNVL3       010DIMED       ON      NM   R$  000000000100700000000010070000000000990000000000099700000000010010000000001001000000000100202674000000000000397400000000000396363400000000000000009999123100000010000000000000BRPNVLACNOR9207
012024090202POMO3       010MARCOPOLO   ON  EDJ N2   R$  000000000057600000000006000000000000567000000000059100000000005980000000000597000000000059800725000000000000465200000000000275356000000000000000009999123100000010000000000000BRPOMOACNOR0099
012024090202POMO4       010MARCOPOLO   PN  EDJ N2   R$  000000000074600000000007740000000000739000000000075800000000007670000000000766000000000076817825000000000017149900000000013000646600000000000000009999123100000010000000000000BRPOMOACNPR7099
012024090202PORT3       010WILSON SONS ON      NM   R$  000000000171500000000017350000000001700000000000172100000000017290000000001716000000000173403084000000000000584000000000001005475500000000000000009999123100000010000000000000BRPORTACNOR8109
012024090202POSI3       010POSITIVO TECON      NM   R$  000000000065300000000006530000000000639000000000064400000000006410000000000641000000000064202894000000000001123200000000000723462600000000000000009999123100000010000000000000BRPOSIACNOR9116
012024090202BIOM3       010BIOMM       ON      MA   R$  000000000092500000000009250000000000859000000000089200000000008590000000000854000000000088300237000000000000052800000000000047138000000000000000009999123100000010000000000000BRBIOMACNOR2112
012024090202BLAU3       010BLAU        ON      NM   R$  000000000139500000000014070000000001361000000000136900000000013940000000001383000000000139401769000000000001238500000000001695655800000000000000009999123100000010000000000000BRBLAUACNOR8114
012024090202KRSA3       010KORA SAUDE  ON      NM   R$  000000000006200000000000620000000000057000000000005800000000000590000000000058000000000005900255000000000000159800000000000009395500000000000000009999123100000010000000000000BRKRSAACNOR0100
012024090202LAND3       010TERRASANTAPAON      NM   R$  000000000127000000000013210000000001270000000000128600000000012740000000001274000000000129000371000000000000087500000000000112553100000000000000009999123100000010000000000000BRLANDACNOR9103
012024090202LAVV3       010LAVVI       ON      NM   R$  000000000083000000000008310000000000795000000000080600000000008150000000000815000000000081704969000000000001947400000000001570735700000000000000009999123100000010000000000000BRLAVVACNOR4113
012024090202LEVE3       010METAL LEVE  ON      NM   R$  000000000320000000000032090000000003156000000000317400000000031600000000003160000000000316102096000000000000297500000000000944473600000000000000009999123100000010000000000000BRLEVEACNOR2197
012024090202LJQQ3       010QUERO-QUERO ON      NM   R$  000000000042200000000004240000000000412000000000041400000000004150000000000413000000000041604289000000000002065800000000000857145600000000000000009999123100000010000000000000BRLJQQACNOR5104
012024090202BBSE3       010BBSEGURIDADEON      NM   R$  000000000368700000000036960000000003629000000000365800000000036710000000003661000000000367114244000000000003416800000000012500061700000000000000009999123100000010000000000000BRBBSEACNOR5125
012024090202CMIN3       010CSNMINERACAOON      N2   R$  000000000055700000000005740000000000555000000000056700000000005710000000000570000000000057112096000000000009141200000000005185600500000000000000009999123100000010000000000000BRCMINACNOR2111
012024090202COCE5       010COELCE      PNA          R$  000000000319300000000032190000000003122000000000317100000000031500000000003149000000000319100073000000000000008800000000000027909900000000000000009999123100000010000000000000BRCOCEACNPA3147
012024090202COGN3       010COGNA ON    ON      NM   R$  000000000013700000000001380000000000134000000000013600000000001360000000000135000000000013609226000000000020676200000000002814462800000000000000009999123100000010000000000000BRCOGNACNOR2105
012024090202ELET6       010ELETROBRAS  PNB     N1   R$  000000000457900000000046840000000004579000000000464100000000046470000000004647000000000464805845000000000001117800000000005188218200000000000000009999123100000010000000000000BRELETACNPB7077
012024090202HBRE3       010HBR REALTY  ON      NM   R$  000000000053100000000005370000000000525000000000052800000000005280000000000528000000000053100448000000000000260300000000000137626200000000000000009999123100000010000000000000BRHBREACNOR4100
012024090202HBSA3       010HIDROVIAS   ON      NM   R$  000000000034900000000003510000000000339000000000034200000000003430000000000342000000000034306850000000000002550800000000000874606600000000000000009999123100000010000000000000BRHBSAACNOR0100
012024090202TRPL3       010TRAN PAULISTON      N1   R$  000000000323500000000032350000000003200000000000320200000000032090000000003200000000000320900019000000000000003900000000000012490900000000000000009999123100000010000000000000BRTRPLACNOR4185
012024090202TRPL4       010TRAN PAULISTPN      N1   R$  000000000247700000000024800000000002452000000000246800000000024740000000002473000000000247406410000000000001397400000000003449286100000000000000009999123100000010000000000000BRTRPLACNPR1185
012024090202TTEN3       0103TENTOS     ON      NM   R$  000000000119600000000012270000000001175000000000121100000000012080000000001208000000000121507474000000000001398700000000001694008400000000000000009999123100000010000000000000BRTTENACNOR0103
012024090202TUPY3       010TUPY        ON      NM   R$  000000000270000000000027650000000002688000000000273500000000027650000000002737000000000276503846000000000000517600000000001415817800000000000000009999123100000010000000000000BRTUPYACNOR1184
012024090202VIVR3       010VIVER       ON      NM   R$  000000000023500000000002350000000000227000000000022900000000002290000000000229000000000023100076000000000000101400000000000023306000000000000000009999123100000010000000000000BRVIVRACNOR4123
012024090202VIVT3       010TELEF BRASILON  EJ       R$  000000000518200000000052220000000005143000000000518400000000052220000000005196000000000522210802000000000002026500000000010506915600000000000000009999123100000010000000000000BRVIVTACNOR0184
012024090202VLID3       010VALID       ON      NM   R$  000000000227400000000023130000000002239000000000227200000000022650000000002265000000000228903397000000000000627100000000001425062300000000000000009999123100000010000000000000BRVLIDACNOR5144
012024090202VSTE3       010VESTE       ON      NM   R$  000000000127800000000013050000000001278000000000128800000000012900000000001290000000000130500009000000000000001100000000000001417700000000000000009999123100000010000000000000BRVSTEACNOR5103
012024090202VTRU3       010VITRUEDUCA  ON      NM   R$  000000000102500000000010310000000000969000000000099100000000009780000000000971000000000098300424000000000000073800000000000073140200000000000000009999123100000010000000000000BRVTRUACNOR3100
012024090202VULC3       010VULCABRAS   ON      NM   R$  000000000177800000000018370000000001772000000000179300000000018090000000001791000000000180904517000000000001020500000000001830256700000000000000009999123100000010000000000000BRVULCACNOR2161
012024090202VITT3       010VITTIA      ON      NM   R$  000000000062800000000006290000000000607000000000061800000000006210000000000621000000000062602330000000000000560500000000000346641500000000000000009999123100000010000000000000BRVITTACNOR4107
012024090202VIVA3       010VIVARA S.A. ON      NM   R$  000000000260100000000026760000000002601000000000264400000000026580000000002652000000000265810829000000000002544400000000006729735200000000000000009999123100000010000000000000BRVIVAACNOR0107
012024090202PRIO3       010PETRORIO    ON      NM   R$  000000000468000000000047120000000004627000000000466300000000046710000000004670000000000467213761000000000003755700000000017516388400000000000000009999123100000010000000000000BRPRIOACNOR1107
012024090202RPAD3       010ALFA HOLDINGON           R$  000000000092500000000009400000000000925000000000092800000000009400000000000930000000000095300003000000000000000400000000000000371500000000000000009999123100000010000000000000BRRPADACNOR1198
012024090202RPAD5       010ALFA HOLDINGPNA          R$  000000000089000000000008920000000000885000000000088900000000008850000000000885000000000088900014000000000000031300000000000027835100000000000000009999123100000010000000000000BRRPADACNPA4219
012024090202RRRP3       0103R PETROLEUMON      NM   R$  000000000264000000000027220000000002608000000000265600000000026890000000002688000000000268910316000000000003209200000000008525676500000000000000009999123100000010000000000000BRRRRPACNOR5103
012024090202TPIS3       010TRIUNFO PARTON      NM   R$  000000000044900000000004760000000000447000000000046300000000004560000000000455000000000045600288000000000000136700000000000063421600000000000000009999123100000010000000000000BRTPISACNOR8118
012024090202TRAD3       010TC          ON      NM   R$  000000000031500000000003150000000000271000000000028600000000002790000000000278000000000027900900000000000000492100000000000140754500000000000000009999123100000010000000000000BRTRADACNOR3102
012024090202TRIS3       010TRISUL      ON      NM   R$  000000000046100000000004620000000000455000000000045800000000004580000000000455000000000045800956000000000000307100000000000140747200000000000000009999123100000010000000000000BRTRISACNOR4118
012024090202AURE3       010AUREN       ON      NM   R$  000000000114500000000011470000000001136000000000114100000000011400000000001139000000000114007496000000000005681100000000006482458800000000000000009999123100000010000000000000BRAUREACNOR9104
012024090202BBDC3       010BRADESCO    ON      N1   R$  000000000140300000000014090000000001397000000000140200000000014020000000001400000000000140307288000000000002879800000000004038933200000000000000009999123100000010000000000000BRBBDCACNOR1773
012024090202BBDC4       010BRADESCO    PN      N1   R$  000000000155000000000015630000000001545000000000155400000000015600000000001557000000000156038362000000000017133800000000026626240100000000000000009999123100000010000000000000BRBBDCACNPR8773
012024090202CAMB3       010CAMBUCI     ON           R$  000000000125100000000012590000000001228000000000124200000000012490000000001246000000000125900150000000000000026200000000000032552900000000000000009999123100000010000000000000BRCAMBACNOR4131
012024090202CAML3       010CAMIL       ON      NM   R$  000000000095300000000009560000000000933000000000094100000000009460000000000945000000000095002859000000000000651200000000000613166100000000000000009999123100000010000000000000BRCAMLACNOR3128
012024090202CASH3       010MELIUZ      ON      NM   R$  000000000069800000000006990000000000655000000000067500000000006580000000000657000000000065808215000000000004238200000000002863590800000000000000009999123100000010000000000000BRCASHACNOR8106
012024090202CBAV3       010CBA         ON      NM   R$  000000000049700000000005010000000000488000000000049500000000004970000000000497000000000050003832000000000001399400000000000692779700000000000000009999123100000010000000000000BRCBAVACNOR5104
012024090202CBEE3       010AMPLA ENERG ON           R$  000000000099000000000009900000000000990000000000099000000000009900000000000995000000000149600001000000000000000100000000000000099000000000000000009999123100000010000000000000BRCBEEACNOR3159
012024090202CGRA3       010GRAZZIOTIN  ON           R$  000000000256300000000025630000000002517000000000252600000000025170000000002517000000000254400015000000000000002000000000000005053100000000000000009999123100000010000000000000BRCGRAACNOR2083
012024090202CGRA4       010GRAZZIOTIN  PN           R$  000000000254400000000025940000000002524000000000255100000000025790000000002558000000000257900029000000000000004500000000000011483500000000000000009999123100000010000000000000BRCGRAACNPR9083
012024090202CLSA3       010CLEARSALE   ON      NM   R$  000000000084000000000008540000000000832000000000084000000000008400000000000840000000000084504062000000000001326200000000001114035000000000000000009999123100000010000000000000BRCLSAACNOR0100
012024090202CLSC3       010CELESC      ON      N2   R$  000000000769000000000076900000000007690000000000769000000000076900000000007300000000000760000001000000000000000100000000000000769000000000000000009999123100000010000000000000BRCLSCACNOR6152
012024090202CLSC4       010CELESC      PN      N2   R$  000000000782100000000079190000000007604000000000773500000000077130000000007713000000000774000261000000000000028600000000000221236300000000000000009999123100000010000000000000BRCLSCACNPR3131
012024090202CMIG3       010CEMIG       ON  ED  N1   R$  000000000143800000000014530000000001422000000000143700000000014490000000001446000000000144900707000000000000155400000000000223459200000000000000009999123100000010000000000000BRCMIGACNOR6243
012024090202CMIG4       010CEMIG       PN  ED  N1   R$  000000000116300000000011700000000001153000000000116200000000011690000000001164000000000117012121000000000006052400000000007034565700000000000000009999123100000010000000000000BRCMIGACNPR3244
012024090202JALL3       010JALLESMACHADON      NM   R$  000000000067200000000006730000000000658000000000066300000000006600000000000660000000000066502125000000000000866800000000000575183400000000000000009999123100000010000000000000BRJALLACNOR0106
012024090202JBSS3       010JBS         ON      NM   R$  000000000348300000000034830000000003385000000000341100000000034280000000003420000000000342815306000000000004143900000000014137686900000000000000009999123100000010000000000000BRJBSSACNOR8122
012024090202APER3       010ALPER S.A.  ON           R$  000000000460000000000046400000000004576000000000461000000000045760000000004576000000000462000010000000000000001700000000000007837100000000000000009999123100000010000000000000BRAPERACNOR9106
012024090202ARML3       010ARMAC       ON      NM   R$  000000000084600000000008580000000000842000000000085100000000008500000000000845000000000085402039000000000000314600000000000267975100000000000000009999123100000010000000000000BRARMLACNOR1112
012024090202ASAI3       010ASSAI       ON      NM   R$  000000000097900000000009840000000000951000000000097300000000009800000000000980000000000098120791000000000014187600000000013813534900000000000000009999123100000010000000000000BRASAIACNOR0106
012024090202ATOM3       010ATOMPAR     ON           R$  000000000020700000000002140000000000206000000000020900000000002100000000000209000000000021200029000000000000016600000000000003475700000000000000009999123100000010000000000000BRATOMACNOR1106
012024090202AZEV3       010AZEVEDO     ON           R$  000000000015000000000001500000000000143000000000014500000000001470000000000146000000000014700498000000000000405700000000000059146900000000000000009999123100000010000000000000BRAZEVACNOR0121
012024090202AZEV4       010AZEVEDO     PN           R$  000000000015100000000001510000000000143000000000014600000000001460000000000146000000000014803019000000000003047200000000000444916100000000000000009999123100000010000000000000BRAZEVACNPR7121
012024090202AZUL4       010AZUL        PN  ATZ N2   R$  000000000054300000000005450000000000441000000000045900000000004410000000000441000000000044224565000000000043579700000000020037372900000000000000009999123100000010000000000000BRAZULACNPR4103
012024090202CEBR3       010CEB         ON           R$  000000000188200000000019170000000001851000000000188000000000018860000000001885000000000193800033000000000000007100000000000013352400000000000000009999123100000010000000000000BRCEBRACNOR5125
012024090202CEBR5       010CEB         PNA          R$  000000000166000000000016700000000001660000000000166700000000016600000000001660000000000169000014000000000000005600000000000009336000000000000000009999123100000010000000000000BRCEBRACNPA8124
012024090202CEBR6       010CEB         PNB          R$  000000000180500000000018380000000001772000000000179200000000017740000000001774000000000180000032000000000000008100000000000014522000000000000000009999123100000010000000000000BRCEBRACNPB6124
012024090202CEEB3       010COELBA      ON           R$  000000000398400000000039840000000003910000000000393800000000039200000000003920000000000397200027000000000000132900000000000523387400000000000000009999123100000010000000000000BRCEEBACNOR3199
012024090202CEEB5       010COELBA      PNA          R$  000000000390000000000039000000000003900000000000390000000000039000000000003100000000000500000001000000000000003000000000000011700000000000000000009999123100000010000000000000BRCEEBACNPA6193
012024090202CGAS3       010COMGAS      ON           R$  000000001090000000000109000000000010900000000001090000000000109000000000011500000000001245800001000000000000000100000000000001090000000000000000009999123100000010000000000000BRCGASACNOR0164
012024090202CGAS5       010COMGAS      PNA          R$  000000001238200000000123830000000012382000000001238200000000123830000000012250000000001240000002000000000000000200000000000002476500000000000000009999123100000010000000000000BRCGASACNPA3161
012024090202GRND3       010GRENDENE    ON  ED  NM   R$  000000000059600000000006080000000000592000000000060400000000006060000000000603000000000060604142000000000001307500000000000789853700000000000000009999123100000010000000000000BRGRNDACNOR3175
012024090202GSHP3       010GENERALSHOPPON           R$  000000000112700000000011270000000001127000000000112700000000011270000000001050000000000109900001000000000000000100000000000000112700000000000000009999123100000010000000000000BRGSHPACNOR7102
012024090202GUAR3       010GUARARAPES  ON      NM   R$  000000000085400000000008910000000000854000000000087800000000008780000000000878000000000087905211000000000001144600000000001005078000000000000000009999123100000010000000000000BRGUARACNOR4173
012024090202EALT3       010ACO ALTONA  ON           R$  000000000150000000000015000000000001390000000000147500000000014550000000001422000000000146000040000000000000009800000000000014459300000000000000009999123100000010000000000000BREALTACNOR4138
012024090202EALT4       010ACO ALTONA  PN           R$  000000000135500000000014900000000001355000000000145000000000014690000000001450000000000146900389000000000000089000000000000129065200000000000000009999123100000010000000000000BREALTACNPR1138
012024090202ECOR3       010ECORODOVIAS ON      NM   R$  000000000078300000000007830000000000763000000000077000000000007730000000000767000000000077306590000000000002452800000000001889553100000000000000009999123100000010000000000000BRECORACNOR8120
012024090202EGIE3       010ENGIE BRASILON  ED  NM   R$  000000000453000000000045410000000004433000000000446500000000044400000000004440000000000445504157000000000000755600000000003374373900000000000000009999123100000010000000000000BREGIEACNOR9127
012024090202EKTR4       010ELEKTRO     PN           R$  000000000437400000000044100000000004321000000000432900000000043220000000004277000000000432200034000000000000004900000000000021213500000000000000009999123100000010000000000000BREKTRACNPR7164
012024090202ELET3       010ELETROBRAS  ON      N1   R$  000000000414500000000042390000000004126000000000419000000000041900000000004187000000000419223426000000000007647100000000032047712500000000000000009999123100000010000000000000BRELETACNOR6160
012024090202CCRO3       010CCR SA      ON      NM   R$  000000000132500000000013380000000001307000000000132500000000013380000000001331000000000133810006000000000004901100000000006496831700000000000000009999123100000010000000000000BRCCROACNOR2145
012024090202CEAB3       010CEA MODAS   ON      NM   R$  000000000099500000000010090000000000973000000000098200000000009750000000000975000000000097704988000000000002102800000000002066781200000000000000009999123100000010000000000000BRCEABACNOR1102
012024090202DASA3       010DASA        ON      NM   R$  000000000030200000000003150000000000296000000000030600000000003100000000000310000000000031403630000000000000936700000000000287507900000000000000009999123100000010000000000000BRDASAACNOR1122
012024090202HAGA3       010HAGA S/A    ON           R$  000000000023900000000002420000000000239000000000024000000000002410000000000240000000000024200007000000000000001700000000000000409100000000000000009999123100000010000000000000BRHAGAACNOR7103
012024090202HAGA4       010HAGA S/A    PN           R$  000000000011600000000001190000000000116000000000011600000000001180000000000116000000000011800018000000000000016600000000000001933200000000000000009999123100000010000000000000BRHAGAACNPR4103
012024090202HAPV3       010HAPVIDA     ON      NM   R$  000000000042300000000004310000000000417000000000042400000000004280000000000428000000000042922896000000000029747600000000012614534500000000000000009999123100000010000000000000BRHAPVACNOR4114
012024090202HBOR3       010HELBOR      ON      NM   R$  000000000020700000000002090000000000205000000000020700000000002080000000000207000000000020800413000000000000271800000000000056277700000000000000009999123100000010000000000000BRHBORACNOR3118
012024090202MELK3       010MELNICK     ON      NM   R$  000000000034000000000003420000000000335000000000033900000000003410000000000340000000000034101942000000000000743800000000000252380900000000000000009999123100000010000000000000BRMELKACNOR8111
012024090202B3SA3       010B3          ON      NM   R$  000000000125900000000012640000000001237000000000124500000000012430000000001243000000000124429435000000000015680500000000019528817200000000000000009999123100000010000000000000BRB3SAACNOR6133
012024090202BEES3       010BANESTES    ON           R$  000000000090000000000009020000000000897000000000089900000000009020000000000900000000000090200123000000000000019900000000000017898900000000000000009999123100000010000000000000BRBEESACNOR9394
012024090202BEES4       010BANESTES    PN           R$  000000000098600000000009900000000000936000000000096500000000009660000000000960000000000097800040000000000000012100000000000011686300000000000000009999123100000010000000000000BRBEESACNPR6319
012024090202BRAP3       010BRADESPAR   ON      N1   R$  000000000178500000000017920000000001765000000000177700000000017910000000001781000000000179200514000000000000091000000000000161721100000000000000009999123100000010000000000000BRBRAPACNOR5148
012024090202BRAP4       010BRADESPAR   PN      N1   R$  000000000192500000000019310000000001916000000000192200000000019160000000001916000000000192205427000000000002334100000000004487132600000000000000009999123100000010000000000000BRBRAPACNPR2148
012024090202CRFB3       010CARREFOUR BRON      NM   R$  000000000090100000000009050000000000886000000000089100000000008910000000000890000000000089106545000000000005353200000000004771291300000000000000009999123100000010000000000000BRCRFBACNOR2116
012024090202CRPG5       010CRISTAL     PNA          R$  000000000283200000000028700000000002830000000000283800000000028310000000002825000000000289500009000000000000001300000000000003689500000000000000009999123100000010000000000000BRCRPGACNPA3119
012024090202CRPG6       010CRISTAL     PNB          R$  000000000285100000000028510000000002850000000000285000000000028500000000002805000000000289900002000000000000000400000000000001140100000000000000009999123100000010000000000000BRCRPGACNPB1119
012024090202CSAN3       010COSAN       ON      NM   R$  000000000133400000000013390000000001309000000000132100000000013110000000001310000000000131113624000000000005717900000000007557897800000000000000009999123100000010000000000000BRCSANACNOR6126
012024090202MTRE3       010MITRE REALTYON  ED  NM   R$  000000000037200000000003740000000000366000000000036900000000003740000000000372000000000037401987000000000000930300000000000343955900000000000000009999123100000010000000000000BRMTREACNOR6114
012024090202PETZ3       010PETZ        ON      NM   R$  000000000048100000000005020000000000481000000000049300000000004920000000000492000000000049608480000000000010815800000000005337586900000000000000009999123100000010000000000000BRPETZACNOR2110
012024090202ENEV3       010ENEVA       ON      NM   R$  000000000132300000000013390000000001312000000000132700000000013350000000001335000000000133715568000000000006837800000000009079338100000000000000009999123100000010000000000000BRENEVACNOR8106
012024090202ENGI11      010ENERGISA    UNT     N2   R$  000000000473000000000047470000000004685000000000471300000000047300000000004730000000000473207715000000000001362200000000006421134600000000000000009999123100000010000000000000BRENGICDAM16136
012024090202ENGI3       010ENERGISA    ON      N2   R$  000000000145500000000014560000000001428000000000144100000000014480000000001448000000000146800027000000000000004100000000000005909700000000000000009999123100000010000000000000BRENGIACNOR0146
012024090202ENGI4       010ENERGISA    PN      N2   R$  000000000082300000000008240000000000812000000000081800000000008190000000000816000000000081900036000000000000008000000000000006547200000000000000009999123100000010000000000000BRENGIACNPR7142
012024090202ENJU3       010ENJOEI      ON      NM   R$  000000000016800000000001680000000000160000000000016200000000001600000000000160000000000016100967000000000000626700000000000101984800000000000000009999123100000010000000000000BRENJUACNOR9100
012024090202EPAR3       010EMBPAR S/A  ON           R$  000000000059300000000005930000000000577000000000058500000000005860000000000579000000000058500025000000000000004600000000000002694900000000000000009999123100000010000000000000BREPARACNOR9105
012024090202IFCM3       010INFRACOMM   ON      NM   R$  000000000001400000000000150000000000013000000000001400000000000150000000000014000000000001513826000000000035312300000000000500812600000000000000009999123100000010000000000000BRIFCMACNOR8101
012024090202ONCO3       010ONCOCLINICASON      NM   R$  000000000066400000000006770000000000646000000000066300000000006560000000000652000000000065603636000000000001933700000000001283575000000000000000009999123100000010000000000000BRONCOACNOR6101
012024090202OPCT3       010OCEANPACT   ON      NM   R$  000000000064400000000006500000000000627000000000063800000000006460000000000642000000000064602598000000000000453600000000000289522000000000000000009999123100000010000000000000BROPCTACNOR0100
012024090202ORVR3       010ORIZON      ON      NM   R$  000000000462700000000046270000000004511000000000456600000000045960000000004596000000000459703035000000000000456300000000002083891100000000000000009999123100000010000000000000BRORVRACNOR0101
012024090202QUAL3       010QUALICORP   ON      NM   R$  000000000022700000000002420000000000223000000000023200000000002240000000000224000000000022507166000000000011527000000000002677367100000000000000009999123100000010000000000000BRQUALACNOR6120
012024090202SCAR3       010SAO CARLOS  ON      NM   R$  000000000240000000000024250000000002376000000000240500000000024200000000002320000000000242000125000000000000038500000000000092619000000000000000009999123100000010000000000000BRSCARACNOR7131
012024090202BPAC3       010BTGP BANCO  ON      N2   R$  000000000167700000000016770000000001595000000000162500000000016390000000001620000000000164900015000000000000001900000000000003087500000000000000009999123100000010000000000000BRBPACACNOR7134
012024090202BPAC5       010BTGP BANCO  PNA     N2   R$  000000000095900000000009590000000000941000000000095300000000009490000000000943000000000095500017000000000000002400000000000002288200000000000000009999123100000010000000000000BRBPACACNPA0134
012024090202CPFE3       010CPFL ENERGIAON      NM   R$  000000000335300000000033710000000003319000000000334000000000033220000000003322000000000333307971000000000001553900000000005190139200000000000000009999123100000010000000000000BRCPFEACNOR0137
012024090202CPLE3       010COPEL       ON      N2   R$  000000000094100000000009490000000000924000000000093900000000009490000000000948000000000095005747000000000003330200000000003129310400000000000000009999123100000010000000000000BRCPLEACNOR8149
012024090202CPLE5       010COPEL       PNA     N2   R$  000000000119900000000012000000000001162000000000116800000000011620000000001162000000000120000020000000000000006000000000000007009500000000000000009999123100000010000000000000BRCPLEACNPA1147
012024090202CPLE6       010COPEL       PNB     N2   R$  000000000103800000000010580000000001030000000000104500000000010550000000001054000000000105515200000000000010113900000000010576671800000000000000009999123100000010000000000000BRCPLEACNPB9146
012024090202ELMD3       010ELETROMIDIA ON      NM   R$  000000000179100000000018460000000001761000000000179800000000018460000000001805000000000184600491000000000000057800000000000103957300000000000000009999123100000010000000000000BRELMDACNOR3101
012024090202EMAE4       010EMAE        PN           R$  000000000407500000000041000000000004061000000000407400000000040800000000004080000000000413000019000000000000002400000000000009777600000000000000009999123100000010000000000000BREMAEACNPR1125
012024090202EMBR3       010EMBRAER     ON      NM   R$  000000000468300000000047070000000004561000000000464300000000045610000000004560000000000456124664000000000005585200000000025936021100000000000000009999123100000010000000000000BREMBRACNOR4191
012024090202PATI3       010PANATLANTICAON           R$  000000000405000000000041400000000004009000000000405100000000040500000000004050000000000415000018000000000000003700000000000014991500000000000000009999123100000010000000000000BRPATIACNOR6065
012024090202PATI4       010PANATLANTICAPN           R$  000000000420000000000042000000000004200000000000420000000000042000000000003950000000000430000001000000000000000200000000000000840000000000000000009999123100000010000000000000BRPATIACNPR3065
012024090202PCAR3       010P.ACUCAR-CBDON      NM   R$  000000000031200000000003130000000000307000000000031000000000003090000000000309000000000031004263000000000004707200000000001459452800000000000000009999123100000010000000000000BRPCARACNOR3167
012024090202AZZA3       010AZZAS 2154  ON      NM   R$  000000000487400000000049130000000004750000000000479700000000048000000000004800000000000480608793000000000001921100000000009216952900000000000000009999123100000010000000000000BRAZZAACNOR9100
012024090202IGTI11      010IGUATEMI S.AUNT     N1   R$  000000000222300000000022230000000002174000000000218800000000021850000000002180000000000219307007000000000001728200000000003782824300000000000000009999123100000010000000000000BRIGTICDAM16106
012024090202IGTI3       010IGUATEMI S.AON      N1   R$  000000000027500000000002780000000000272000000000027400000000002740000000000272000000000027400065000000000000020100000000000005513600000000000000009999123100000010000000000000BRIGTIACNOR8106
012024090202INEP3       010INEPAR      ON           R$  000000000020700000000002090000000000201000000000020300000000002010000000000201000000000020200069000000000000017000000000000003453000000000000000009999123100000010000000000000BRINEPACNOR1143
012024090202INEP4       010INEPAR      PN           R$  000000000021400000000002140000000000206000000000020700000000002110000000000205000000000021300021000000000000006200000000000001285800000000000000009999123100000010000000000000BRINEPACNPR8143
012024090202INTB3       010INTELBRAS   ON      NM   R$  000000000219600000000021980000000002153000000000217500000000021800000000002180000000000218402334000000000000933800000000002031491300000000000000009999123100000010000000000000BRINTBACNOR9112
012024090202IRBR3       010IRBBRASIL REON      NM   R$  000000000498600000000050780000000004825000000000495000000000049320000000004930000000000493509416000000000002081100000000010301838600000000000000009999123100000010000000000000BRIRBRACNOR4111
012024090202LOGG3       010LOG COM PROPON      NM   R$  000000000234800000000023480000000002284000000000229900000000022920000000002287000000000229201624000000000000444100000000001021001800000000000000009999123100000010000000000000BRLOGGACNOR7107
012024090202LOGN3       010LOG-IN      ON      NM   R$  000000000353300000000036180000000003511000000000356000000000036180000000003550000000000361800108000000000000015300000000000054482700000000000000009999123100000010000000000000BRLOGNACNOR3105
012024090202LPSB3       010LOPES BRASILON      NM   R$  000000000016500000000001680000000000161000000000016300000000001620000000000162000000000016400358000000000000170200000000000027779200000000000000009999123100000010000000000000BRLPSBACNOR0114
012024090202LREN3       010LOJAS RENNERON      NM   R$  000000000169300000000017090000000001677000000000169600000000016940000000001693000000000169521784000000000013546000000000022985223900000000000000009999123100000010000000000000BRLRENACNOR1221
012024090202ODPV3       010ODONTOPREV  ON  ED  NM   R$  000000000112700000000011270000000001113000000000111800000000011140000000001114000000000111802783000000000000493300000000000551956300000000000000009999123100000010000000000000BRODPVACNOR4203
012024090202OFSA3       010OUROFINO S/AON      NM   R$  000000000220900000000022500000000002209000000000222800000000022500000000002222000000000224500012000000000000004700000000000010475800000000000000009999123100000010000000000000BROFSAACNOR7118
012024090202BGIP4       010BANESE      PN           R$  000000000232500000000025280000000002325000000000240300000000024500000000002325000000000244000007000000000000000700000000000001682500000000000000009999123100000010000000000000BRBGIPACNPR8209
012024090202BPAN4       010BANCO PAN   PN      N1   R$  000000000099400000000010580000000000982000000000102000000000010250000000001024000000000102508316000000000002932500000000002993090700000000000000009999123100000010000000000000BRBPANACNPR1115
012024090202MAPT4       010CEMEPE      PN           R$  000000000050000000000005000000000000500000000000050000000000005000000000000500000000000053000001000000000000000100000000000000050000000000000000009999123100000010000000000000BRMAPTACNPR5106
012024090202MATD3       010MATER DEI   ON      NM   R$  000000000045300000000004740000000000453000000000046500000000004610000000000461000000000047104056000000000001114400000000000519140700000000000000009999123100000010000000000000BRMATDACNOR4104
012024090202MBLY3       010MOBLY       ON      NM   R$  000000000029000000000003020000000000285000000000029300000000002980000000000291000000000029801687000000000000759500000000000222971200000000000000009999123100000010000000000000BRMBLYACNOR5100
012024090202MDIA3       010M.DIASBRANCOON      NM   R$  000000000275000000000027700000000002686000000000271600000000027100000000002699000000000271002540000000000000554100000000001505269000000000000000009999123100000010000000000000BRMDIAACNOR7135
012024090202MDNE3       010MOURA DUBEUXON      NM   R$  000000000144100000000014720000000001392000000000143600000000014650000000001460000000000146502480000000000000426200000000000612023200000000000000009999123100000010000000000000BRMDNEACNOR9100
012024090202MEAL3       010IMC S/A     ON      NM   R$  000000000016000000000001690000000000153000000000015700000000001550000000000155000000000015600360000000000000694200000000000109209300000000000000009999123100000010000000000000BRMEALACNOR9105
012024090207NUTR3       010NUTRIPLANT  ON      MA   R$  000000000046600000000004870000000000466000000000047700000000004750000000000470000000000048000022000000000000003200000000000001527000000000000000009999123100000010000000000000BRNUTRACNOR0104
012024090207TXRX4       010TEX RENAUX  PN           R$  000000000022800000000002280000000000228000000000022800000000002280000000000228000000000023400001000000000000000300000000000000068400000000000000009999123100000010000000000000BRTXRXACNPR0142
012024090208AMER3       010AMERICANAS  ON  EG  NM   R$  000000000057700000000007250000000000577000000000067200000000006980000000000697000000000069820348000000000017826600000000011980913100000000000000009999123100000010000000000000BRAMERACNOR6103
012024090208NEXP3       010NEXPE       ON           R$  000000000040700000000004100000000000407000000000040800000000004090000000000392000000000041000005000000000000002100000000000000858600000000000000009999123100000010000000000000BRNEXPACNOR0101
012024090208RNEW11      010RENOVA      UNT     N2   R$  000000000029800000000003200000000000298000000000030800000000003200000000000307000000000032100050000000000000008500000000000002623600000000000000009999123100000010000000000000BRRNEWCDAM15110
012024090208RNEW3       010RENOVA      ON      N2   R$  000000000009900000000001080000000000099000000000010200000000000990000000000099000000000010200194000000000000080700000000000008301900000000000000009999123100000010000000000000BRRNEWACNOR8110
012024090208RNEW4       010RENOVA      PN      N2   R$  000000000010000000000001060000000000100000000000010200000000001010000000000101000000000010200186000000000000126700000000000012929800000000000000009999123100000010000000000000BRRNEWACNPR5110
012024090208CTSA3       010SANTANENSE  ON           R$  000000000027400000000002740000000000272000000000027200000000002720000000000273000000000028600002000000000000000400000000000000109000000000000000009999123100000010000000000000BRCTSAACNOR3062
012024090208CTSA4       010SANTANENSE  PN           R$  000000000013800000000001380000000000130000000000013200000000001330000000000131000000000013300036000000000000021200000000000002802800000000000000009999123100000010000000000000BRCTSAACNPR0062
012024090208RSID3       010ROSSI RESID ON      NM   R$  000000000038300000000003870000000000365000000000037800000000003650000000000365000000000037000282000000000000051500000000000019479700000000000000009999123100000010000000000000BRRSIDACNOR8120
012024090208JFEN3       010JOAO FORTES ON           R$  000000000002200000000000220000000000021000000000002100000000000210000000000021000000000002200134000000000000492800000000000010633300000000000000009999123100000010000000000000BRJFENACNOR0059
012024090208PMAM3       010PARANAPANEMAON      NM   R$  000000000018300000000001850000000000182000000000018300000000001830000000000183000000000018400121000000000000059100000000000010846700000000000000009999123100000010000000000000BRPMAMACNOR3039
012024090208LIGT3       010LIGHT S/A   ON      NM   R$  000000000064000000000006540000000000633000000000063900000000006410000000000640000000000064402449000000000000494600000000000316242000000000000000009999123100000010000000000000BRLIGTACNOR2124
012024090208HOOT4       010HOTEIS OTHONPN           R$  000000000022600000000002270000000000223000000000022300000000002230000000000223000000000023700012000000000000009700000000000002172100000000000000009999123100000010000000000000BRHOOTACNPR9015
012024090208RPMG3       010PET MANGUINHON           R$  000000000030500000000003050000000000291000000000029800000000003050000000000297000000000030500219000000000000034700000000000010369800000000000000009999123100000010000000000000BRRPMGACNOR9194
012024090208ATMP3       010ATMASA      ON           R$  000000000013600000000001380000000000135000000000013500000000001370000000000136000000000013800022000000000000014300000000000001944300000000000000009999123100000010000000000000BRATMPACNOR8100
012024090208OIBR3       010OI          ON  ES  N1   R$  000000000049000000000005220000000000472000000000049600000000005220000000000522000000000052301296000000000001014900000000000503623700000000000000009999123100000010000000000000BROIBRACNOR1112
012024090208OIBR4       010OI          PN  ES  N1   R$  000000000120600000000012490000000001193000000000121400000000012100000000001202000000000122100023000000000000003100000000000003765200000000000000009999123100000010000000000000BROIBRACNPR8111
012024090208OSXB3       010OSX BRASIL  ON      NM   R$  000000000038100000000003820000000000376000000000037900000000003820000000000379000000000038500006000000000000001100000000000000417100000000000000009999123100000010000000000000BROSXBACNOR8109
012024090210GFSA1       010GAFISA      DIR ORD NM   R$  000000000000200000000000020000000000001000000000000100000000000020000000000001000000000000200288000000000000923800000000000001598500000000000000009999123100000010000000000000BRGFSAD11OR7124
012024090210AESB1       010AES BRASIL  DIR ORD NM   R$  000000000001900000000000600000000000018000000000002600000000000590000000000048000000000005900273000000000000205400000000000005410200000000000000009999123100000010000000000000BRAESBD03OR8106
012024090210RENT9       010LOCALIZA    ON  REC NM   R$  000000000410000000000041200000000004067000000000410500000000041200000000003950000000000439900010000000000000001500000000000006157500000000000000009999123100000010000000000000BRRENTR06OR8195
012024090210EQTL1       010EQUATORIAL  DIR ORD NM   R$  000000000019500000000002180000000000191000000000020600000000002180000000000206000000000021800571000000000000274200000000000056738900000000000000009999123100000010000000000000BREQTLD04OR9130
012024090210OIBR1       010OI          DIR ORD N1   R$  000000000000600000000000500000000000004000000000002100000000000400000000000036000000000004005408000000000004852500000000000102705900000000000000009999123100000010000000000000BROIBRD05OR7111
012024090212DPRO11      010FII DEVA PROCI           R$  000000000074400000000007440000000000709000000000073200000000007090000000000645000000000070800024000000000000000171000000000000125246000000000000009999123100000010000000000000BRDPROCTF005126
012024090212DRIT11      010FII MTGESTAOCI           R$  000000000976100000000098000000000009750000000000976600000000097500000000009750000000001092300009000000000000000029000000000000283238000000000000009999123100000010000000000000BRDRITCTF009255
012024090212DVFF11      010FII DEVA FOFCI           R$  000000000077000000000007700000000000755000000000075700000000007560000000000755000000000075700119000000000000005043000000000003821267000000000000009999123100000010000000000000BRDVFFCTF006140
012024090212GGRC11      010FII GGRCOVEPCI           R$  000000000109600000000010960000000001089000000000109200000000010930000000001092000000000109308099000000000000129478000000000141397439000000000000009999123100000010000000000000BRGGRCCTF002196
012024090212GLOG11      010FII PLURAL LCI  ER       R$  000000000622000000000062590000000006100000000000620400000000062590000000006181000000000626200039000000000000000870000000000005398033000000000000009999123100000010000000000000BRGLOGCTF000116
012024090212ALZC11      010FII ALIANZACCI           R$  000000000960000000000096000000000009419000000000951600000000096000000000009119000000000960000005000000000000000026000000000000247428000000000000009999123100000010000000000000BRALZCCTF016106
012024090212ALZM11      010FII ALIANZMECI           R$  000000000077900000000007790000000000770000000000077300000000007730000000000772000000000077301594000000000000018995000000000014690587000000000000009999123100000010000000000000BRALZMCTF007125
012024090212ALZR11      010FII ALIANZA CI           R$  000000001077300000000108210000000010773000000001079800000000107960000000010795000000001081402517000000000000018917000000000204272684000000000000009999123100000010000000000000BRALZRCTF006185
012024090212BRLA11      010FII BRLPROIICI           R$  000000001645000000000164500000000016450000000001645000000000164500000000015201000000000000000002000000000000001448000000000023819600000000000000009999123100000010000000000000BRBRLACTF007149
012024090212BROF11      010FII BROF    CI           R$  000000000466200000000047930000000004662000000000474200000000047190000000004720000000000474300943000000000000001963000000000009308680000000000000009999123100000010000000000000BRBROFCTF000116
012024090212BTAL11      010FII BTG AGROCI           R$  000000000774900000000078470000000007729000000000775900000000077760000000007775000000000777600965000000000000008497000000000065932514000000000000009999123100000010000000000000BRBTALCTF003142
012024090212BTCI11      010FII BTG CRI CI           R$  000000000100200000000010050000000000998000000000100100000000010000000000001000000000000100305818000000000000159863000000000160111267000000000000009999123100000010000000000000BRBTCICTF005122
012024090212BTHI11      010BTG HOTEL FICI           R$  000000000418900000000041970000000004146000000000417000000000041890000000004070000000000413900017000000000000000107000000000000446258000000000000009999123100000010000000000000BRBTHICTF004111
012024090212BTLG11      010FII BTLG    CI           R$  000000001029000000000103000000000010216000000001027700000000102160000000010216000000001022915819000000000000129752000000001333528314000000000000009999123100000010000000000000BRBTLGCTF000165
012024090212BTRA11      010FII BTG TAGRCI  ER       R$  000000000451200000000045990000000004510000000000452300000000045300000000004521000000000453000240000000000000002681000000000012128116000000000000009999123100000010000000000000BRBTRACTF000139
012024090212CXAG11      010FII CAIXA AGCI  ER       R$  000000000763100000000077000000000007600000000000761300000000076010000000007601000000000761000142000000000000001347000000000010255634000000000000009999123100000010000000000000BRCXAGCTF003131
012024090212CXCE11      010FII CX CEDAECI  ER       R$  000000000410000000000041000000000004000000000000400700000000040000000000004002000000000404400057000000000000001302000000000005218014000000000000009999123100000010000000000000BRCXCECTF004272
012024090212CXCI11      010FII CAIXA CICI           R$  000000000815800000000082990000000008158000000000817300000000082360000000008166000000000823600069000000000000003365000000000027502555000000000000009999123100000010000000000000BRCXCICTF005129
012024090212CXCO11      010FII CEF CORPCI  ER       R$  000000000707800000000071330000000007001000000000706400000000070400000000007002000000000704001249000000000000005704000000000040295017000000000000009999123100000010000000000000BRCXCOCTF003141
012024090212CXRI11      010FII CX RBRAVCI           R$  000000000796600000000079660000000007858000000000789900000000079540000000007858000000000795400011000000000000000115000000000000908457000000000000009999123100000010000000000000BRCXRICTF003230
012024090212CXTL11      010FII CX TRX  CI  ER       R$  000000002220000000000223250000000021864000000002207200000000218640000000021721000000002471100007000000000000000009000000000000198653000000000000009999123100000010000000000000BRCXTLCTF003240
012024090212CYCR11      010FII CYRELA  CI  ER       R$  000000000098600000000009930000000000972000000000097900000000009780000000000978000000000098001191000000000000068886000000000067465087000000000000009999123100000010000000000000BRCYCRCTF004142
012024090212GAME11      010FII GUARD MUCI           R$  000000000091600000000009200000000000915000000000091600000000009170000000000917000000000091800377000000000000013356000000000012242462000000000000009999123100000010000000000000BRGAMECTF002134
012024090212GARE11      010FII GUARDIANCI  ER       R$  000000000091000000000009210000000000907000000000091400000000009150000000000914000000000091516654000000000001069070000000000977279277000000000000009999123100000010000000000000BRGARECTF001107
012024090212GCRI11      010FII GLPG CRICI           R$  000000000715000000000071890000000007131000000000715100000000071380000000007136000000000713800078000000000000000934000000000006679164000000000000009999123100000010000000000000BRGCRICTF008146
012024090212AFHI11      010FII AFHI CRICI           R$  000000000970300000000097510000000009685000000000973200000000097300000000009730000000000974002044000000000000012273000000000119443720000000000000009999123100000010000000000000BRAFHICTF005145
012024090212SNLG11      010FII SUNO LG CI           R$  000000000340700000000034780000000003372000000000342000000000034000000000003383000000000340000083000000000000001788000000000006116048000000000000009999123100000010000000000000BRSNLGCTF007106
012024090212SNME11      010FII SNME    CI           R$  000000000096500000000009680000000000964000000000096500000000009680000000000965000000000096800080000000000000003815000000000003685067000000000000009999123100000010000000000000BRSNMECTF000109
012024090212SPTW11      010FII SP DOWNTCI  ER       R$  000000000401700000000040170000000003970000000000399200000000039900000000003990000000000401300330000000000000003551000000000014176381000000000000009999123100000010000000000000BRSPTWCTF002238
012024090212SPXS11      010FII SPX SYN CI           R$  000000000094300000000009430000000000933000000000093700000000009350000000000935000000000094101142000000000000044334000000000041575566000000000000009999123100000010000000000000BRSPXSCTF002126
012024090212VVCR11      010FII V2 RECE CI           R$  000000000099000000000009970000000000990000000000099100000000009950000000000990000000000099500049000000000000000899000000000000891421000000000000009999123100000010000000000000BRVVCRCTF000118
012024090212VVMR11      010FII MULT RENCI           R$  000000000892700000000089990000000008927000000000897300000000089990000000008877000000000900000014000000000000000105000000000000942220000000000000009999123100000010000000000000BRVVMRCTF009108
012024090212VVRI11      010FII V2 RENDACI           R$  000000001000000000000100500000000010000000000001000000000000100500000000010000000000001005000007000000000000000051000000000000510050000000000000009999123100000010000000000000BRVVRICTF007118
012024090212WHGR11      010FII WHG REALCI  ER       R$  000000000097000000000009700000000000964000000000096800000000009640000000000965000000000096801270000000000000023959000000000023197919000000000000009999123100000010000000000000BRWHGRCTF008128
012024090212SMRE11      010FII SMRE    CI  ERS      R$  000000001000000000000100000000000010000000000001000000000000100000000000009853000000000998700003000000000000000250000000000002500000000000000000009999123100000010000000000000BRSMRECTF001105
012024090212WPLZ11      010FII W PLAZA CI  ER       R$  000000000605000000000061000000000006050000000000606400000000060500000000005604000000000605000009000000000000000139000000000000842900000000000000009999123100000010000000000000BRWPLZCTF004269
012024090212WSEC11      010FII WARREN  CI  EB       R$  000000000087400000000008740000000000872000000000087300000000008740000000000872000000000087400026000000000000002081000000000001818774000000000000009999123100000010000000000000BRWSECCTF010123
012024090212WTSP11      010FII WTC SP  CI           R$  000000000486200000000048620000000004862000000000486200000000048620000000004860000000000568400024000000000000001950000000000009480900000000000000009999123100000010000000000000BRWTSPCTF002165
012024090212XPCI11      010FII XP CRED CI  ER       R$  000000000871100000000087200000000008627000000000866200000000086700000000008669000000000867208096000000000000029174000000000252717303000000000000009999123100000010000000000000BRXPCICTF007160
012024090212XPCM11      010FII XP MACAECI           R$  000000000076200000000007640000000000744000000000075500000000007550000000000754000000000075500115000000000000002476000000000001869572000000000000009999123100000010000000000000BRXPCMCTF009230
