00COTAHIST.2024BOVESPA 20240710                                                                                                                                                                                                                      
012024071002CCRO3       010CCR SA      ON      NM   R$  000000000127000000000012890000000001263000000000127800000000012780000000001277000000000127922560000000000011799000000000015087566200000000000000009999123100000010000000000000BRCCROACNOR2145
012024071002CSUD3       010CSU DIGITAL ON  EJ  NM   R$  000000000199900000000020180000000001971000000000199600000000019710000000001970000000000197500235000000000000039500000000000078878700000000000000009999123100000010000000000000BRCSUDACNOR5110
012024071002CTKA3       010KARSTEN     ON           R$  000000000216000000000021600000000002160000000000216000000000021600000000001000000000000216000001000000000000000100000000000000216000000000000000009999123100000010000000000000BRCTKAACNOR0043
012024071002CURY3       010CURY S/A    ON      NM   R$  000000000216100000000022320000000002161000000000219000000000021950000000002192000000000219507067000000000001450500000000003177777100000000000000009999123100000010000000000000BRCURYACNOR3109
012024071002CVCB3       010CVC BRASIL  ON      NM   R$  000000000021700000000002220000000000211000000000021500000000002110000000000211000000000021208858000000000016036600000000003454698400000000000000009999123100000010000000000000BRCVCBACNOR1116
012024071002ELMD3       010ELETROMIDIA ON      NM   R$  000000000187700000000018850000000001842000000000185900000000018420000000001839000000000186900263000000000000038700000000000071975400000000000000009999123100000010000000000000BRELMDACNOR3101
012024071002EMAE4       010EMAE        PN           R$  000000000475300000000047820000000004720000000000474400000000047200000000004715000000000478000029000000000000003200000000000015183700000000000000009999123100000010000000000000BREMAEACNPR1125
012024071002EMBR3       010EMBRAER     ON      NM   R$  000000000388500000000040100000000003885000000000395500000000039720000000003972000000000397336542000000000014249300000000056368043400000000000000009999123100000010000000000000BREMBRACNOR4191
012024071002IGTI11      010IGUATEMI S.AUNT     N1   R$  000000000220900000000022200000000002175000000000218700000000021750000000002175000000000218607837000000000001419200000000003104757500000000000000009999123100000010000000000000BRIGTICDAM16106
012024071002IGTI3       010IGUATEMI S.AON      N1   R$  000000000027200000000002770000000000268000000000027100000000002700000000000268000000000027000169000000000000060500000000000016447300000000000000009999123100000010000000000000BRIGTIACNOR8106
012024071002IGTI4       010IGUATEMI S.APN      N1   R$  000000000096600000000009660000000000966000000000096600000000009660000000000900000000000108500001000000000000000100000000000000096600000000000000009999123100000010000000000000BRIGTIACNPR5106
012024071002INEP3       010INEPAR      ON           R$  000000000019900000000002030000000000194000000000019800000000002000000000000197000000000020000100000000000000058600000000000011632500000000000000009999123100000010000000000000BRINEPACNOR1143
012024071002INEP4       010INEPAR      PN           R$  000000000019100000000001930000000000185000000000018700000000001890000000000187000000000018900083000000000000040300000000000007569400000000000000009999123100000010000000000000BRINEPACNPR8143
012024071002INTB3       010INTELBRAS   ON      NM   R$  000000000229600000000023380000000002284000000000230200000000023000000000002290000000000230005492000000000001518800000000003496371800000000000000009999123100000010000000000000BRINTBACNOR9111
012024071002IRBR3       010IRBBRASIL REON      NM   R$  000000000306100000000031070000000003061000000000309000000000030960000000003096000000000309803032000000000000637000000000001968817900000000000000009999123100000010000000000000BRIRBRACNOR4111
012024071002BSLI4       010BRB BANCO   PN           R$  000000000101200000000010120000000001011000000000101100000000010110000000001011000000000103900002000000000000000200000000000000202300000000000000009999123100000010000000000000BRBSLIACNPR2194
012024071002LREN3       010LOJAS RENNERON      NM   R$  000000000134600000000013860000000001326000000000134700000000013300000000001329000000000133131201000000000016093300000000021682432100000000000000009999123100000010000000000000BRLRENACNOR1221
012024071002MTRE3       010MITRE REALTYON      NM   R$  000000000040600000000004150000000000402000000000040800000000004110000000000410000000000041102195000000000000888000000000000363022800000000000000009999123100000010000000000000BRMTREACNOR6112
012024071002MTSA4       010METISA      PN           R$  000000000450500000000045300000000004449000000000449600000000044490000000004202000000000445000054000000000000006000000000000026981200000000000000009999123100000010000000000000BRMTSAACNPR9072
012024071002MULT3       010MULTIPLAN   ON      N2   R$  000000000243800000000024490000000002417000000000243100000000024300000000002428000000000243722391000000000004293100000000010437398800000000000000009999123100000010000000000000BRMULTACNOR5139
012024071002MYPK3       010IOCHP-MAXIONON  EJ  NM   R$  000000000116800000000011780000000001151000000000116000000000011580000000001158000000000116004291000000000000966500000000001121836200000000000000009999123100000010000000000000BRMYPKACNOR7155
012024071002BAHI3       010BAHEMA      ON      MA   R$  000000000064000000000006600000000000632000000000064000000000006350000000000635000000000067200019000000000000008700000000000005568700000000000000009999123100000010000000000000BRBAHIACNOR1074
012024071002BALM4       010BAUMER      PN           R$  000000000102500000000010300000000001025000000000102500000000010250000000001025000000000103000003000000000000000600000000000000615500000000000000009999123100000010000000000000BRBALMACNPR2056
012024071002BAZA3       010AMAZONIA    ON           R$  000000000977100000000098500000000009654000000000978100000000098430000000009655000000000993900011000000000000001200000000000011737800000000000000009999123100000010000000000000BRBAZAACNOR0179
012024071002BBAS3       010BRASIL      ON      NM   R$  000000000263200000000026620000000002624000000000264600000000026610000000002660000000000266148053000000000020180600000000053405277900000000000000009999123100000010000000000000BRBBASACNOR3324
012024071002KRSA3       010KORA SAUDE  ON      NM   R$  000000000006800000000000690000000000067000000000006700000000000670000000000067000000000006800750000000000000339800000000000022966600000000000000009999123100000010000000000000BRKRSAACNOR0100
012024071002LAND3       010TERRASANTAPAON      NM   R$  000000000142300000000014390000000001400000000000140800000000014000000000001398000000000141000278000000000000066500000000000093692200000000000000009999123100000010000000000000BRLANDACNOR9103
012024071002LAVV3       010LAVVI       ON      NM   R$  000000000091000000000009150000000000904000000000090900000000009100000000000908000000000091001644000000000000462900000000000420832000000000000000009999123100000010000000000000BRLAVVACNOR4112
012024071002LEVE3       010METAL LEVE  ON      NM   R$  000000000332200000000033420000000003306000000000332500000000033100000000003310000000000332401380000000000000233200000000000775407600000000000000009999123100000010000000000000BRLEVEACNOR2197
012024071002LJQQ3       010QUERO-QUERO ON      NM   R$  000000000043100000000004490000000000430000000000043900000000004430000000000442000000000044306349000000000003706800000000001630653100000000000000009999123100000010000000000000BRLJQQACNOR5104
012024071002LOGG3       010LOG COM PROPON      NM   R$  000000000246600000000025080000000002374000000000243400000000023740000000002374000000000237501271000000000000175200000000000426609800000000000000009999123100000010000000000000BRLOGGACNOR7107
012024071002LOGN3       010LOG-IN      ON      NM   R$  000000000426300000000043460000000004094000000000419500000000040940000000004094000000000416900162000000000000020900000000000087682300000000000000009999123100000010000000000000BRLOGNACNOR3105
012024071002LPSB3       010LOPES BRASILON      NM   R$  000000000019100000000002010000000000190000000000019500000000001920000000000192000000000019300309000000000000106800000000000020906000000000000000009999123100000010000000000000BRLPSBACNOR0114
012024071002BIOM3       010BIOMM       ON      MA   R$  000000000147900000000014890000000001434000000000145600000000014620000000001440000000000146200333000000000000053700000000000078202000000000000000009999123100000010000000000000BRBIOMACNOR2112
012024071002BLAU3       010BLAU        ON      NM   R$  000000000119900000000012160000000001175000000000119400000000011990000000001199000000000120001094000000000000181200000000000216477800000000000000009999123100000010000000000000BRBLAUACNOR8114
012024071002BMEB3       010MERCANTIL   ON      N1   R$  000000000266700000000026680000000002667000000000266700000000026680000000002630000000000279800002000000000000000200000000000000533500000000000000009999123100000010000000000000BRBMEBACNOR8205
012024071002BRIT3       010BRISANET    ON      NM   R$  000000000041500000000004150000000000402000000000040700000000004060000000000405000000000040600473000000000000455200000000000185331300000000000000009999123100000010000000000000BRBRITACNOR0103
012024071002BRKM3       010BRASKEM     ON      N1   R$  000000000184900000000019100000000001833000000000187600000000019100000000001873000000000194500060000000000000011600000000000021770900000000000000009999123100000010000000000000BRBRKMACNOR1119
012024071002BRKM5       010BRASKEM     PNA     N1   R$  000000000185700000000018760000000001841000000000186100000000018660000000001866000000000187008088000000000002158500000000004017153900000000000000009999123100000010000000000000BRBRKMACNPA4121
012024071002BRSR3       010BANRISUL    ON      N1   R$  000000000126100000000012610000000001248000000000125300000000012480000000001247000000000126200016000000000000001800000000000002256200000000000000009999123100000010000000000000BRBRSRACNOR3188
012024071002BRSR6       010BANRISUL    PNB     N1   R$  000000000118600000000011870000000001162000000000117000000000011700000000001169000000000117006858000000000004233600000000004956202600000000000000009999123100000010000000000000BRBRSRACNPB4191
012024071002EKTR4       010ELEKTRO     PN           R$  000000000395000000000039500000000003950000000000395000000000039500000000003931000000000395000004000000000000000400000000000001580000000000000000009999123100000010000000000000BREKTRACNPR7163
012024071002ELET3       010ELETROBRAS  ON      N1   R$  000000000387200000000039160000000003823000000000384900000000038230000000003823000000000383618931000000000006719600000000025870104600000000000000009999123100000010000000000000BRELETACNOR6160
012024071002ELET6       010ELETROBRAS  PNB     N1   R$  000000000428200000000043450000000004255000000000427700000000042640000000004264000000000427004924000000000001083700000000004635882000000000000000009999123100000010000000000000BRELETACNPB7077
012024071002HBSA3       010HIDROVIAS   ON      NM   R$  000000000040000000000004040000000000390000000000039500000000003920000000000390000000000039306392000000000002068000000000000816941000000000000000009999123100000010000000000000BRHBSAACNOR0100
012024071002HETA4       010HERCULES    PN           R$  000000000052900000000005300000000000529000000000052900000000005300000000000521000000000058900002000000000000000200000000000000105900000000000000009999123100000010000000000000BRHETAACNPR9136
012024071002JOPA3       010JOSAPAR     ON           R$  000000000210000000000021000000000002100000000000210000000000021000000000002100000000000230000001000000000000000900000000000001890000000000000000009999123100000010000000000000BRJOPAACNOR5135
012024071002BRBI11      010BR PARTNERS UNT     N2   R$  000000000143100000000014630000000001430000000000144200000000014300000000001430000000000144401471000000000000305800000000000441242000000000000000009999123100000010000000000000BRBRBICDAM10109
012024071002BRFS3       010BRF SA      ON      NM   R$  000000000221800000000022290000000002179000000000220600000000021930000000002192000000000219819600000000000007401400000000016334429900000000000000009999123100000010000000000000BRBRFSACNOR8122
012024071002CSED3       010CRUZEIRO EDUON      NM   R$  000000000042200000000004310000000000415000000000042000000000004180000000000418000000000041900570000000000000199400000000000083916500000000000000009999123100000010000000000000BRCSEDACNOR9104
012024071002CSMG3       010COPASA      ON      NM   R$  000000000207000000000020970000000002059000000000207500000000020750000000002068000000000207503125000000000000641300000000001331207700000000000000009999123100000010000000000000BRCSMGACNOR5174
012024071002CSNA3       010SID NACIONALON           R$  000000000131000000000013190000000001288000000000129600000000012890000000001289000000000129009416000000000003163200000000004099685900000000000000009999123100000010000000000000BRCSNAACNOR6261
012024071002HAPV3       010HAPVIDA     ON      NM   R$  000000000041000000000004160000000000400000000000040600000000004070000000000406000000000040731208000000000043592200000000017704798300000000000000009999123100000010000000000000BRHAPVACNOR4114
012024071002HBOR3       010HELBOR      ON      NM   R$  000000000022500000000002310000000000224000000000022700000000002280000000000227000000000022800428000000000000322600000000000073413800000000000000009999123100000010000000000000BRHBORACNOR3118
012024071002HBRE3       010HBR REALTY  ON      NM   R$  000000000055700000000005780000000000557000000000057000000000005730000000000569000000000057300467000000000000230700000000000131592000000000000000009999123100000010000000000000BRHBREACNOR4100
012024071002JHSF3       010JHSF PART   ON  ED  NM   R$  000000000042600000000004320000000000423000000000042700000000004250000000000425000000000042603101000000000003013500000000001288387300000000000000009999123100000010000000000000BRJHSFACNOR2137
012024071002MILS3       010MILLS       ON      NM   R$  000000000115200000000011710000000001125000000000114100000000011260000000001126000000000112903836000000000000864100000000000986215100000000000000009999123100000010000000000000BRMILSACNOR2127
012024071002MLAS3       010MULTILASER  ON      NM   R$  000000000021700000000002230000000000215000000000021700000000002170000000000216000000000021804183000000000001785400000000000389083200000000000000009999123100000010000000000000BRMLASACNOR9101
012024071002MAPT4       010CEMEPE      PN           R$  000000000055000000000005900000000000550000000000057300000000005900000000000500000000000056000003000000000000000300000000000000172000000000000000009999123100000010000000000000BRMAPTACNPR5106
012024071002MATD3       010MATER DEI   ON      NM   R$  000000000050900000000005200000000000496000000000050800000000005020000000000502000000000050701382000000000000514800000000000261604800000000000000009999123100000010000000000000BRMATDACNOR4104
012024071002MBLY3       010MOBLY       ON      NM   R$  000000000024900000000002620000000000245000000000025500000000002570000000000255000000000025701769000000000000849600000000000216997000000000000000009999123100000010000000000000BRMBLYACNOR5100
012024071002MNDL3       010MUNDIAL     ON           R$  000000000134900000000013900000000001349000000000135200000000013900000000001200000000000139900007000000000000005700000000000007706800000000000000009999123100000010000000000000BRMNDLACNOR4109
012024071002MNPR3       010MINUPAR     ON           R$  000000000130000000000013500000000001299000000000132600000000013500000000001272000000000137000012000000000000003900000000000005171600000000000000009999123100000010000000000000BRMNPRACNOR5122
012024071002MOVI3       010MOVIDA      ON      NM   R$  000000000069500000000007020000000000671000000000068900000000006900000000000690000000000069110399000000000006510800000000004486617200000000000000009999123100000010000000000000BRMOVIACNOR0122
012024071002MRFG3       010MARFRIG     ON      NM   R$  000000000118800000000012080000000001167000000000119200000000011910000000001191000000000119714230000000000004108000000000004899683800000000000000009999123100000010000000000000BRMRFGACNOR0116
012024071002PLPL3       010PLANOEPLANO ON      NM   R$  000000000101000000000010480000000001002000000000101700000000010140000000001010000000000101504284000000000001498500000000001525469500000000000000009999123100000010000000000000BRPLPLACNOR5104
012024071002PNVL3       010DIMED       ON      NM   R$  000000000099600000000010220000000000973000000000098900000000009750000000000975000000000097703148000000000000535300000000000529579000000000000000009999123100000010000000000000BRPNVLACNOR9207
012024071002POMO3       010MARCOPOLO   ON      N2   R$  000000000051500000000005180000000000501000000000050900000000005100000000000510000000000051100678000000000000340500000000000173323500000000000000009999123100000010000000000000BRPOMOACNOR0098
012024071002POMO4       010MARCOPOLO   PN      N2   R$  000000000065500000000006630000000000639000000000064900000000006430000000000643000000000064412338000000000004996800000000003246205500000000000000009999123100000010000000000000BRPOMOACNPR7098
012024071002PORT3       010WILSON SONS ON      NM   R$  000000000157100000000015780000000001556000000000156600000000015620000000001562000000000156301189000000000000216100000000000338518700000000000000009999123100000010000000000000BRPORTACNOR8108
012024071002POSI3       010POSITIVO TECON      NM   R$  000000000085000000000008680000000000839000000000085000000000008450000000000840000000000084502602000000000000815900000000000694053400000000000000009999123100000010000000000000BRPOSIACNOR9116
012024071002PRIO3       010PETRORIO    ON      NM   R$  000000000454100000000045900000000004480000000000453900000000045470000000004543000000000454827006000000000006014800000000027306700000000000000000009999123100000010000000000000BRPRIOACNOR1106
012024071002RSUL4       010RIOSULENSE  PN           R$  000000000683100000000069860000000006783000000000688800000000069860000000006531000000000698700030000000000000004200000000000028931800000000000000009999123100000010000000000000BRRSULACNPR3114
012024071002SANB11      010SANTANDER BRUNT          R$  000000000268500000000027790000000002676000000000274200000000027710000000002766000000000277113444000000000003868700000000010610482100000000000000009999123100000010000000000000BRSANBCDAM13164
012024071002SANB3       010SANTANDER BRON           R$  000000000126000000000013140000000001260000000000129700000000013100000000001310000000000131201494000000000000265300000000000344157300000000000000009999123100000010000000000000BRSANBACNOR8171
012024071002SANB4       010SANTANDER BRPN           R$  000000000142100000000014620000000001417000000000143600000000014580000000001455000000000145801600000000000000465500000000000668586600000000000000009999123100000010000000000000BRSANBACNPR5171
012024071002SAPR11      010SANEPAR     UNT EJ  N2   R$  000000000271000000000027350000000002692000000000271000000000026970000000002697000000000270303237000000000000553100000000001499383000000000000000009999123100000010000000000000BRSAPRCDAM13118
012024071002SAPR3       010SANEPAR     ON  EJ  N2   R$  000000000051300000000005210000000000513000000000051600000000005130000000000513000000000051400355000000000000106300000000000054943100000000000000009999123100000010000000000000BRSAPRACNOR9159
012024071002SAPR4       010SANEPAR     PN  EJ  N2   R$  000000000055400000000005550000000000548000000000055100000000005490000000000549000000000055001509000000000000517400000000000285355600000000000000009999123100000010000000000000BRSAPRACNPR6159
012024071002JSLG3       010JSL         ON      NM   R$  000000000098100000000009940000000000963000000000097300000000009790000000000971000000000097902724000000000000699600000000000681173100000000000000009999123100000010000000000000BRJSLGACNOR2121
012024071002KEPL3       010KEPLER WEBERON  ED  NM   R$  000000000097700000000009910000000000975000000000098300000000009780000000000978000000000098302463000000000000726400000000000714086800000000000000009999123100000010000000000000BRKEPLACNOR1063
012024071002KLBN11      010KLABIN S/A  UNT     N2   R$  000000000208800000000020920000000002070000000000208000000000020820000000002081000000000208218220000000000003932200000000008182445300000000000000009999123100000010000000000000BRKLBNCDAM18142
012024071002KLBN3       010KLABIN S/A  ON      N2   R$  000000000041900000000004210000000000416000000000041800000000004170000000000417000000000041900592000000000000234200000000000098018500000000000000009999123100000010000000000000BRKLBNACNOR2170
012024071002KLBN4       010KLABIN S/A  PN      N2   R$  000000000041600000000004180000000000414000000000041600000000004160000000000416000000000041701775000000000001041600000000000433456200000000000000009999123100000010000000000000BRKLBNACNPR9170
012024071002MRVE3       010MRV         ON      NM   R$  000000000070400000000007180000000000688000000000070100000000007060000000000706000000000070716801000000000010531800000000007392643500000000000000009999123100000010000000000000BRMRVEACNOR2127
012024071002B3SA3       010B3          ON      NM   R$  000000000107000000000010730000000001063000000000106800000000010730000000001072000000000107344519000000000044543000000000047609262900000000000000009999123100000010000000000000BRB3SAACNOR6133
012024071002BEES3       010BANESTES    ON  EJ       R$  000000000090200000000009110000000000896000000000090100000000008990000000000899000000000090300074000000000000015200000000000013701600000000000000009999123100000010000000000000BRBEESACNOR9393
012024071002BEES4       010BANESTES    PN  EJ       R$  000000000096700000000009800000000000967000000000097200000000009710000000000969000000000097800023000000000000002400000000000002333200000000000000009999123100000010000000000000BRBEESACNPR6318
012024071002BGIP4       010BANESE      PN           R$  000000000230700000000023150000000002307000000000231100000000023150000000002240000000000231400002000000000000000200000000000000462200000000000000009999123100000010000000000000BRBGIPACNPR8208
012024071002BHIA3       010CASAS BAHIA ON      NM   R$  000000000058000000000006070000000000561000000000057600000000005620000000000562000000000056304777000000000004030400000000002324938600000000000000009999123100000010000000000000BRBHIAACNOR1102
012024071002MDIA3       010M.DIASBRANCOON      NM   R$  000000000279100000000028240000000002784000000000280500000000027950000000002795000000000279703073000000000000652800000000001831612000000000000000009999123100000010000000000000BRMDIAACNOR7135
012024071002MDNE3       010MOURA DUBEUXON      NM   R$  000000000135000000000013790000000001333000000000135900000000013730000000001370000000000137404432000000000000953100000000001295875000000000000000009999123100000010000000000000BRMDNEACNOR9100
012024071002MEAL3       010IMC S/A     ON      NM   R$  000000000015400000000001580000000000152000000000015400000000001550000000000154000000000015500353000000000000333700000000000051576500000000000000009999123100000010000000000000BRMEALACNOR9105
012024071002MELK3       010MELNICK     ON      NM   R$  000000000038400000000003860000000000374000000000037700000000003740000000000374000000000037700263000000000000135400000000000051151800000000000000009999123100000010000000000000BRMELKACNOR8111
012024071002PATI3       010PANATLANTICAON           R$  000000000250600000000025060000000002506000000000250600000000025060000000002506000000000260000002000000000000000200000000000000501200000000000000009999123100000010000000000000BRPATIACNOR6065
012024071002PCAR3       010P.ACUCAR-CBDON      NM   R$  000000000032500000000003340000000000320000000000032500000000003220000000000321000000000032309871000000000017382200000000005665635000000000000000009999123100000010000000000000BRPCARACNOR3167
012024071002GUAR3       010GUARARAPES  ON      NM   R$  000000000074200000000007650000000000728000000000074700000000007360000000000732000000000073704751000000000001472900000000001100753000000000000000009999123100000010000000000000BRGUARACNOR4173
012024071002HAGA3       010HAGA S/A    ON           R$  000000000026000000000002740000000000258000000000026200000000002650000000000260000000000026500097000000000000026300000000000006893500000000000000009999123100000010000000000000BRHAGAACNOR7103
012024071002HAGA4       010HAGA S/A    PN           R$  000000000011700000000001180000000000117000000000011700000000001180000000000117000000000011900008000000000000002200000000000000257600000000000000009999123100000010000000000000BRHAGAACNPR4103
012024071002GEPA4       010GER PARANAP PN           R$  000000000265000000000026500000000002650000000000265000000000026500000000002600000000000265000002000000000000000200000000000000530000000000000000009999123100000010000000000000BRGEPAACNPR9160
012024071002GFSA3       010GAFISA      ON      NM   R$  000000000034600000000003720000000000343000000000035800000000003610000000000360000000000036103324000000000005431200000000001948688200000000000000009999123100000010000000000000BRGFSAACNOR3124
012024071002GGBR3       010GERDAU      ON      N1   R$  000000000161000000000016190000000001592000000000160000000000015950000000001595000000000159900212000000000000040400000000000064642700000000000000009999123100000010000000000000BRGGBRACNOR1192
012024071002GGBR4       010GERDAU      PN      N1   R$  000000000179500000000017970000000001774000000000178100000000017880000000001787000000000178917314000000000004984900000000008881530200000000000000009999123100000010000000000000BRGGBRACNPR8192
012024071002ALPA3       010ALPARGATAS  ON      N1   R$  000000000097200000000009720000000000921000000000094000000000009300000000000928000000000093000307000000000000062600000000000058900400000000000000009999123100000010000000000000BRALPAACNOR0231
012024071002ALPA4       010ALPARGATAS  PN      N1   R$  000000000096000000000009810000000000937000000000095000000000009430000000000943000000000094407143000000000002008900000000001910265400000000000000009999123100000010000000000000BRALPAACNPR7232
012024071002ALPK3       010ESTAPAR     ON      NM   R$  000000000034400000000003620000000000336000000000035400000000003600000000000357000000000036000681000000000000188300000000000066841100000000000000009999123100000010000000000000BRALPKACNOR9101
012024071002ALUP11      010ALUPAR      UNT     N2   R$  000000000310900000000031640000000003109000000000314700000000031400000000003140000000000315104289000000000000809400000000002547370600000000000000009999123100000010000000000000BRALUPCDAM15119
012024071002ALUP3       010ALUPAR      ON      N2   R$  000000000108000000000010940000000001051000000000107500000000010740000000001063000000000109300135000000000000020400000000000021940300000000000000009999123100000010000000000000BRALUPACNOR8119
012024071002ALUP4       010ALUPAR      PN      N2   R$  000000000102800000000010450000000001028000000000103500000000010360000000001028000000000103700100000000000000015000000000000015525100000000000000009999123100000010000000000000BRALUPACNPR5119
012024071002AMAR3       010LOJAS MARISAON      NM   R$  000000000014900000000001530000000000145000000000014700000000001460000000000145000000000014601083000000000000857600000000000126739400000000000000009999123100000010000000000000BRAMARACNOR4115
012024071002AMBP3       010AMBIPAR     ON      NM   R$  000000000201600000000021790000000002002000000000209000000000021140000000002111000000000211409316000000000004709000000000009843520700000000000000009999123100000010000000000000BRAMBPACNOR6103
012024071002ANIM3       010ANIMA       ON      NM   R$  000000000039300000000003950000000000379000000000038300000000003800000000000379000000000038207087000000000005072100000000001947178900000000000000009999123100000010000000000000BRANIMACNOR6107
012024071002ARML3       010ARMAC       ON  EDJ NM   R$  000000000109500000000011110000000001084000000000109400000000010840000000001084000000000108702810000000000000521500000000000570783700000000000000009999123100000010000000000000BRARMLACNOR1112
012024071002ARZZ3       010AREZZO CO   ON      NM   R$  000000000542900000000055170000000005363000000000542800000000053750000000005372000000000538008095000000000001805200000000009798731700000000000000009999123100000010000000000000BRARZZACNOR3146
012024071002COCE5       010COELCE      PNA          R$  000000000301000000000030900000000003010000000000304100000000030780000000003030000000000307900087000000000000012500000000000038014100000000000000009999123100000010000000000000BRCOCEACNPA3147
012024071002COGN3       010COGNA ON    ON      NM   R$  000000000019000000000001970000000000185000000000019000000000001850000000000185000000000018614362000000000024561000000000004672093200000000000000009999123100000010000000000000BRCOGNACNOR2104
012024071002FESA4       010FERBASA     PN      N1   R$  000000000089000000000008980000000000878000000000089000000000008900000000000890000000000089302115000000000000610900000000000544101700000000000000009999123100000010000000000000BRFESAACNPR5084
012024071002FHER3       010FER HERINGERON      NM   R$  000000000040700000000004200000000000400000000000040900000000004140000000000408000000000041400063000000000000021400000000000008772300000000000000009999123100000010000000000000BRFHERACNOR5103
012024071002FIEI3       010FICA        ON           R$  000000000110000000000011000000000001100000000000110000000000011000000000001000000000000115000001000000000000005000000000000005500000000000000000009999123100000010000000000000BRFIEIACNOR2100
012024071002FIQE3       010UNIFIQUE    ON      NM   R$  000000000034400000000003450000000000339000000000034200000000003400000000000340000000000034100899000000000000565300000000000193591900000000000000009999123100000010000000000000BRFIQEACNOR5107
012024071002FLRY3       010FLEURY      ON      NM   R$  000000000155000000000015650000000001539000000000154600000000015430000000001542000000000154505818000000000001318000000000002037641400000000000000009999123100000010000000000000BRFLRYACNOR5138
012024071002ITUB3       010ITAUUNIBANCOON  EJ  N1   R$  000000000286000000000028850000000002848000000000286300000000028590000000002859000000000286710307000000000001484900000000004251599800000000000000009999123100000010000000000000BRITUBACNOR4338
012024071002ITUB4       010ITAUUNIBANCOPN  EJ  N1   R$  000000000331800000000033480000000003310000000000333600000000033450000000003345000000000334670015000000000034365600000000114675362800000000000000009999123100000010000000000000BRITUBACNPR1338
012024071002MGLU3       010MAGAZ LUIZA ON      NM   R$  000000000139000000000014140000000001342000000000137900000000013470000000001347000000000134824981000000000022283100000000030736429800000000000000009999123100000010000000000000BRMGLUACNOR2124
012024071002PDGR3       010PDG REALT   ON      NM   R$  000000000001900000000000190000000000017000000000001800000000000180000000000018000000000001900345000000000001811900000000000032716800000000000000009999123100000010000000000000BRPDGRACNOR8118
012024071002PDTC3       010PADTEC      ON      NM   R$  000000000019600000000002000000000000193000000000019500000000001960000000000196000000000019800072000000000000052600000000000010306200000000000000009999123100000010000000000000BRPDTCACNOR3101
012024071002PETR3       010PETROBRAS   ON      N2   R$  000000000411400000000041140000000004060000000000407900000000040770000000004077000000000407836974000000000009802400000000039993641900000000000000009999123100000010000000000000BRPETRACNOR9205
012024071002PETR4       010PETROBRAS   PN      N2   R$  000000000384900000000038560000000003798000000000382300000000038070000000003807000000000380856610000000000032899700000000125792198800000000000000009999123100000010000000000000BRPETRACNPR6213
012024071002AERI3       010AERIS       ON      NM   R$  000000000063700000000006970000000000637000000000067700000000006850000000000684000000000068500936000000000000455600000000000308498800000000000000009999123100000010000000000000BRAERIACNOR4102
012024071002AESB3       010AES BRASIL  ON      NM   R$  000000000114000000000011410000000001136000000000113800000000011400000000001139000000000114004509000000000003120000000000003551743100000000000000009999123100000010000000000000BRAESBACNOR7106
012024071002AFLT3       010AFLUENTE T  ON           R$  000000000071800000000007200000000000718000000000071900000000007200000000000718000000000072400002000000000000000200000000000000143800000000000000009999123100000010000000000000BRAFLTACNOR1122
012024071002AGRO3       010BRASILAGRO  ON      NM   R$  000000000269800000000026990000000002669000000000268200000000026740000000002670000000000267801088000000000000138500000000000371578200000000000000009999123100000010000000000000BRAGROACNOR7114
012024071002AGXY3       010AGROGALAXY  ON      NM   R$  000000000018300000000001870000000000165000000000017000000000001660000000000166000000000016700967000000000000878000000000000149827300000000000000009999123100000010000000000000BRAGXYACNOR4103
012024071002ALLD3       010ALLIED      ON      NM   R$  000000000078000000000007920000000000774000000000078200000000007800000000000778000000000078100356000000000000087700000000000068659300000000000000009999123100000010000000000000BRALLDACNOR3106
012024071002ALOS3       010ALLOS       ON      NM   R$  000000000222500000000022380000000002178000000000219900000000021900000000002190000000000219811158000000000004609200000000010139774200000000000000009999123100000010000000000000BRALOSACNOR5101
012024071002BBDC3       010BRADESCO    ON  EJ  N1   R$  000000000114000000000011600000000001137000000000115200000000011550000000001154000000000115509952000000000006957400000000008015544600000000000000009999123100000010000000000000BRBBDCACNOR1772
012024071002BBDC4       010BRADESCO    PN  EJ  N1   R$  000000000125500000000012720000000001249000000000126500000000012670000000001267000000000126929868000000000032909900000000041634011200000000000000009999123100000010000000000000BRBBDCACNPR8772
012024071002CMIN3       010CSNMINERACAOON      N2   R$  000000000052900000000005350000000000521000000000052600000000005280000000000527000000000052913461000000000008413100000000004433101700000000000000009999123100000010000000000000BRCMINACNOR2111
012024071002EQMA3B      010EQTLMARANHAOON      MB   R$  000000000259900000000025990000000002599000000000259900000000025990000000002551000000000259900002000000000000000500000000000001299500000000000000009999123100000010000000000000BREQMAACNOR8108
012024071002EQPA3       010EQTL PARA   ON           R$  000000000068900000000007080000000000689000000000070400000000007080000000000706000000000071100010000000000000001900000000000001339400000000000000009999123100000010000000000000BREQPAACNOR1111
012024071002EQTL3       010EQUATORIAL  ON      NM   R$  000000000337100000000034060000000003347000000000336300000000033630000000003357000000000336429036000000000007085400000000023829529900000000000000009999123100000010000000000000BREQTLACNOR0130
012024071002ESPA3       010ESPACOLASER ON      NM   R$  000000000010500000000001070000000000105000000000010600000000001050000000000105000000000010600223000000000000246500000000000026141800000000000000009999123100000010000000000000BRESPAACNOR7103
012024071002TECN3       010TECHNOS     ON      NM   R$  000000000053500000000005720000000000529000000000055800000000005290000000000529000000000053501866000000000000816200000000000455664100000000000000009999123100000010000000000000BRTECNACNOR6109
012024071002TELB4       010TELEBRAS    PN           R$  000000000087500000000009000000000000875000000000088600000000008880000000000871000000000088800014000000000000004400000000000003902100000000000000009999123100000010000000000000BRTELBACNPR9140
012024071002TEND3       010TENDA       ON      NM   R$  000000000121500000000012410000000001192000000000121700000000012360000000001236000000000123708852000000000002471600000000003009927500000000000000009999123100000010000000000000BRTENDACNOR4111
012024071002TFCO4       010TRACK FIELD PN      N2   R$  000000000112800000000011450000000001108000000000113000000000011200000000001119000000000113101086000000000000263400000000000297665500000000000000009999123100000010000000000000BRTFCOACNPR8114
012024071002TGMA3       010TEGMA       ON      NM   R$  000000000258100000000025990000000002554000000000256600000000025550000000002552000000000256800853000000000000119500000000000306742300000000000000009999123100000010000000000000BRTGMAACNOR7144
012024071002TIMS3       010TIM         ON      NM   R$  000000000159000000000016220000000001581000000000160400000000016100000000001608000000000161020433000000000008888200000000014261154500000000000000009999123100000010000000000000BRTIMSACNOR5117
012024071002TOTS3       010TOTVS       ON      NM   R$  000000000299400000000030180000000002957000000000299000000000030180000000003006000000000301807776000000000001634600000000004888826000000000000000009999123100000010000000000000BRTOTSACNOR8144
012024071002TPIS3       010TRIUNFO PARTON      NM   R$  000000000038300000000003870000000000381000000000038300000000003810000000000381000000000038400059000000000000017500000000000006711800000000000000009999123100000010000000000000BRTPISACNOR8118
012024071002TRAD3       010TC          ON      NM   R$  000000000005700000000000620000000000057000000000005900000000000600000000000059000000000006000375000000000000622000000000000036868300000000000000009999123100000010000000000000BRTRADACNOR3101
012024071002TRIS3       010TRISUL      ON      NM   R$  000000000051000000000005180000000000508000000000051200000000005080000000000508000000000051001203000000000000372300000000000190628200000000000000009999123100000010000000000000BRTRISACNOR4118
012024071002TRPL3       010TRAN PAULISTON      N1   R$  000000000344600000000034460000000003409000000000343800000000034410000000003400000000000344100010000000000000001200000000000004126200000000000000009999123100000010000000000000BRTRPLACNOR4185
012024071002TRPL4       010TRAN PAULISTPN      N1   R$  000000000273500000000027690000000002735000000000275700000000027520000000002752000000000276007657000000000001446000000000003987450300000000000000009999123100000010000000000000BRTRPLACNPR1185
012024071002VLID3       010VALID       ON      NM   R$  000000000160500000000016280000000001553000000000157700000000015640000000001559000000000156402985000000000000376900000000000594613900000000000000009999123100000010000000000000BRVLIDACNOR5143
012024071002VSTE3       010VESTE       ON      NM   R$  000000000144700000000014800000000001430000000000144400000000014300000000001430000000000146700043000000000000005800000000000008377000000000000000009999123100000010000000000000BRVSTEACNOR5103
012024071002VTRU3       010VITRUEDUCA  ON      NM   R$  000000000140400000000014220000000001381000000000139500000000013810000000001380000000000139800378000000000000051300000000000071611700000000000000009999123100000010000000000000BRVTRUACNOR3100
012024071002VULC3       010VULCABRAS   ON      NM   R$  000000000156900000000015780000000001524000000000154600000000015240000000001523000000000153203653000000000000783800000000001211997300000000000000009999123100000010000000000000BRVULCACNOR2159
012024071002VVEO3       010VIVEO       ON      NM   R$  000000000031500000000003150000000000263000000000028000000000002630000000000263000000000026509376000000000006149000000000001727226300000000000000009999123100000010000000000000BRVVEOACNOR0104
012024071002WEGE3       010WEG         ON  EJ  NM   R$  000000000445500000000044840000000004392000000000440800000000044050000000004405000000000440619474000000000004993800000000022015702100000000000000009999123100000010000000000000BRWEGEACNOR0223
012024071002PETZ3       010PETZ        ON      NM   R$  000000000039300000000004040000000000387000000000039700000000003970000000000397000000000039813457000000000009505600000000003781518300000000000000009999123100000010000000000000BRPETZACNOR2110
012024071002SYNE3       010SYN PROP TECON      NM   R$  000000000101500000000010400000000001015000000000103100000000010200000000001020000000000103200771000000000000196100000000000202224700000000000000009999123100000010000000000000BRSYNEACNOR2102
012024071002TAEE11      010TAESA       UNT     N2   R$  000000000347700000000034990000000003471000000000348700000000034890000000003489000000000349005996000000000001070000000000003731312800000000000000009999123100000010000000000000BRTAEECDAM10147
012024071002TAEE3       010TAESA       ON      N2   R$  000000000114800000000011550000000001146000000000115100000000011550000000001150000000000115500332000000000000074500000000000085766200000000000000009999123100000010000000000000BRTAEEACNOR9147
012024071002TAEE4       010TAESA       PN      N2   R$  000000000116500000000011700000000001162000000000116700000000011690000000001168000000000116900455000000000000110500000000000129040700000000000000009999123100000010000000000000BRTAEEACNPR6147
012024071002TASA3       010TAURUS ARMASON      N2   R$  000000000126400000000012750000000001256000000000126800000000012560000000001250000000000126000081000000000000017000000000000021566800000000000000009999123100000010000000000000BRTASAACNOR7104
012024071002TASA4       010TAURUS ARMASPN      N2   R$  000000000124900000000012740000000001242000000000125400000000012430000000001242000000000124301985000000000000366300000000000459494400000000000000009999123100000010000000000000BRTASAACNPR4104
012024071002TCSA3       010TECNISA     ON      NM   R$  000000000020600000000002350000000000206000000000021800000000002350000000000234000000000023500398000000000000244700000000000053586800000000000000009999123100000010000000000000BRTCSAACNOR3112
012024071002VBBR3       010VIBRA       ON  EJ  NM   R$  000000000223000000000022630000000002224000000000224500000000022480000000002248000000000225124875000000000005981600000000013432744900000000000000009999123100000010000000000000BRVBBRACNOR1108
012024071002VITT3       010VITTIA      ON      NM   R$  000000000060000000000006040000000000590000000000059200000000005900000000000590000000000059501381000000000000246700000000000146253000000000000000009999123100000010000000000000BRVITTACNOR4107
012024071002VIVA3       010VIVARA S.A. ON      NM   R$  000000000227800000000023110000000002193000000000223900000000022350000000002235000000000224411656000000000003388700000000007587546700000000000000009999123100000010000000000000BRVIVAACNOR0107
012024071002VIVR3       010VIVER       ON      NM   R$  000000000025300000000002560000000000245000000000025000000000002500000000000245000000000025000097000000000000031500000000000007896700000000000000009999123100000010000000000000BRVIVRACNOR4123
012024071002VIVT3       010TELEF BRASILON           R$  000000000468300000000047680000000004676000000000472200000000047450000000004735000000000474612748000000000002188700000000010336917800000000000000009999123100000010000000000000BRVIVTACNOR0182
012024071002RECV3       010PETRORECSA  ON      NM   R$  000000000207500000000020780000000002046000000000206100000000020590000000002059000000000206505341000000000000927600000000001912021200000000000000009999123100000010000000000000BRRECVACNOR3107
012024071002REDE3       010REDE ENERGIAON  ED       R$  000000000069700000000007110000000000697000000000070300000000006970000000000699000000000070500013000000000000001400000000000000984400000000000000009999123100000010000000000000BRREDEACNOR7128
012024071002SNSY3       010SANSUY      ON           R$  000000000132000000000013400000000001260000000000129600000000012890000000001245000000000129500012000000000000001500000000000001945200000000000000009999123100000010000000000000BRSNSYACNOR2113
012024071002SNSY5       010SANSUY      PNA          R$  000000000058900000000006040000000000589000000000059400000000006000000000000600000000000060400008000000000000003900000000000002320200000000000000009999123100000010000000000000BRSNSYACNPA5111
012024071002SOJA3       010BOA SAFRA   ON      NM   R$  000000000153100000000015380000000001514000000000152500000000015220000000001521000000000152802573000000000000377100000000000575397200000000000000009999123100000010000000000000BRSOJAACNOR9105
012024071002SOMA3       010GRUPO SOMA  ON      NM   R$  000000000065000000000006610000000000637000000000064700000000006430000000000639000000000064312970000000000006429100000000004160179300000000000000009999123100000010000000000000BRSOMAACNOR3102
012024071002PRNR3       010PRINER      ON      NM   R$  000000000109900000000011030000000001068000000000107600000000010680000000001068000000000106901139000000000000446200000000000480444300000000000000009999123100000010000000000000BRPRNRACNOR4109
012024071002PSSA3       010PORTO SEGUROON  EJ  NM   R$  000000000293500000000029630000000002917000000000294500000000029440000000002944000000000294504575000000000001044600000000003076573600000000000000009999123100000010000000000000BRPSSAACNOR7155
012024071002PTBL3       010PORTOBELLO  ON      NM   R$  000000000049500000000004980000000000485000000000048900000000004850000000000485000000000048602343000000000000679400000000000332652800000000000000009999123100000010000000000000BRPTBLACNOR8132
012024071002PTNT3       010PETTENATI   ON           R$  000000000094900000000009730000000000947000000000095200000000009470000000000946000000000097400009000000000000000900000000000000857500000000000000009999123100000010000000000000BRPTNTACNOR6042
012024071002PTNT4       010PETTENATI   PN           R$  000000000060600000000006240000000000605000000000061500000000006240000000000610000000000061900010000000000000003500000000000002155600000000000000009999123100000010000000000000BRPTNTACNPR3047
012024071002QUAL3       010QUALICORP   ON      NM   R$  000000000018200000000001900000000000182000000000018600000000001840000000000184000000000018504289000000000004398600000000000820814700000000000000009999123100000010000000000000BRQUALACNOR6120
012024071002SEQL3       010SEQUOIA LOG ON      NM   R$  000000000046500000000004850000000000456000000000046400000000004560000000000456000000000046000383000000000000170600000000000079194900000000000000009999123100000010000000000000BRSEQLACNOR2103
012024071002SHOW3       010TIME FOR FUNON      NM   R$  000000000017400000000001760000000000171000000000017300000000001740000000000172000000000017400216000000000000066000000000000011430400000000000000009999123100000010000000000000BRSHOWACNOR7105
012024071002SHUL4       010SCHULZ      PN           R$  000000000065000000000006530000000000643000000000064800000000006480000000000647000000000065000893000000000000360400000000000233806500000000000000009999123100000010000000000000BRSHULACNPR4156
012024071002SIMH3       010SIMPAR      ON      NM   R$  000000000070000000000007040000000000681000000000069400000000006890000000000689000000000069206798000000000003694800000000002565615600000000000000009999123100000010000000000000BRSIMHACNOR0107
012024071002SLCE3       010SLC AGRICOLAON      NM   R$  000000000191100000000019270000000001890000000000191300000000019120000000001911000000000191207149000000000001673700000000003203096800000000000000009999123100000010000000000000BRSLCEACNOR2125
012024071002SBFG3       010GRUPO SBF   ON      NM   R$  000000000135000000000013640000000001313000000000133400000000013350000000001322000000000133505948000000000001442500000000001925131900000000000000009999123100000010000000000000BRSBFGACNOR1103
012024071002SBSP3       010SABESP      ON      NM   R$  000000000843600000000085700000000008373000000000850400000000085100000000008508000000000851831603000000000005056400000000043001528100000000000000009999123100000010000000000000BRSBSPACNOR5161
012024071002SCAR3       010SAO CARLOS  ON      NM   R$  000000000229900000000023000000000002265000000000228100000000022990000000002298000000000231000019000000000000002100000000000004790800000000000000009999123100000010000000000000BRSCARACNOR7131
012024071002SEER3       010SER EDUCA   ON      NM   R$  000000000056600000000005740000000000537000000000055000000000005400000000000540000000000054303674000000000000728800000000000400929300000000000000009999123100000010000000000000BRSEERACNOR5119
012024071002VALE3       010VALE        ON      NM   R$  000000000626700000000062750000000006184000000000622000000000062170000000006213000000000621746977000000000017384000000000108131262600000000000000009999123100000010000000000000BRVALEACNOR0210
012024071002WEST3       010WESTWING    ON      NM   R$  000000000009500000000000960000000000092000000000009400000000000940000000000092000000000009400100000000000000066800000000000006280800000000000000009999123100000010000000000000BRWESTACNOR3100
012024071002WHRL4       010WHIRLPOOL   PN           R$  000000000045800000000004630000000000451000000000045700000000004520000000000452000000000045700029000000000000027000000000000012347200000000000000009999123100000010000000000000BRWHRLACNPR2128
012024071002WIZC3       010WIZ CO      ON      NM   R$  000000000059000000000006010000000000585000000000059200000000005900000000000586000000000059001877000000000000473800000000000280877400000000000000009999123100000010000000000000BRWIZCACNOR5102
012024071002YDUQ3       010YDUQS PART  ON      NM   R$  000000000122500000000012490000000001186000000000120500000000011900000000001189000000000119512478000000000004962900000000005982832100000000000000009999123100000010000000000000BRYDUQACNOR3105
012024071002EUCA3       010EUCATEX     ON      N1   R$  000000000164300000000016440000000001643000000000164300000000016440000000001570000000000162800002000000000000000200000000000000328700000000000000009999123100000010000000000000BREUCAACNOR1157
012024071002EUCA4       010EUCATEX     PN      N1   R$  000000000156100000000016470000000001553000000000160300000000015980000000001598000000000160600510000000000000080300000000000128779400000000000000009999123100000010000000000000BREUCAACNPR8044
012024071002EVEN3       010EVEN        ON      NM   R$  000000000065700000000006740000000000648000000000065700000000006480000000000648000000000064902876000000000000552900000000000363274200000000000000009999123100000010000000000000BREVENACNOR8119
012024071002EZTC3       010EZTEC       ON      NM   R$  000000000139000000000014310000000001390000000000142000000000014250000000001421000000000142609204000000000003499900000000004972538600000000000000009999123100000010000000000000BREZTCACNOR0125
012024071002ITSA3       010ITAUSA      ON      N1   R$  000000000099500000000010110000000000993000000000100600000000010080000000001008000000000101000373000000000000105500000000000106154000000000000000009999123100000010000000000000BRITSAACNOR0441
012024071002ITSA4       010ITAUSA      PN      N1   R$  000000000099900000000010110000000000996000000000100500000000010110000000001010000000000101137258000000000029051300000000029198884500000000000000009999123100000010000000000000BRITSAACNPR7441
012024071002HYPE3       010HYPERA      ON      NM   R$  000000000291400000000029590000000002891000000000291700000000029210000000002910000000000292209223000000000001498600000000004372314600000000000000009999123100000010000000000000BRHYPEACNOR0142
012024071002TTEN3       0103TENTOS     ON      NM   R$  000000000106600000000010690000000001050000000000105900000000010500000000001050000000000105404012000000000000670400000000000710038700000000000000009999123100000010000000000000BRTTENACNOR0103
012024071002TUPY3       010TUPY        ON      NM   R$  000000000249400000000025190000000002454000000000248800000000024540000000002454000000000245702946000000000000441600000000001099121100000000000000009999123100000010000000000000BRTUPYACNOR1184
012024071002UCAS3       010UNICASA     ON      NM   R$  000000000022500000000002270000000000223000000000022300000000002250000000000223000000000022500149000000000000026100000000000005845500000000000000009999123100000010000000000000BRUCASACNOR1113
012024071002UGPA3       010ULTRAPAR    ON      NM   R$  000000000232300000000023390000000002270000000000229900000000023000000000002291000000000230120195000000000005481700000000012604381900000000000000009999123100000010000000000000BRUGPAACNOR8155
012024071002UNIP3       010UNIPAR      ON           R$  000000000512500000000051260000000005008000000000507900000000050980000000004980000000000509900060000000000000006600000000000033525500000000000000009999123100000010000000000000BRUNIPACNOR7206
012024071002UNIP5       010UNIPAR      PNA          R$  000000000511600000000051160000000005116000000000511600000000051160000000005117000000000532000001000000000000000100000000000000511600000000000000009999123100000010000000000000BRUNIPACNPA0208
012024071002UNIP6       010UNIPAR      PNB          R$  000000000522100000000052800000000005151000000000519400000000051550000000005153000000000516000920000000000000131900000000000685177500000000000000009999123100000010000000000000BRUNIPACNPB8206
012024071002USIM3       010USIMINAS    ON      N1   R$  000000000076100000000007650000000000745000000000075300000000007450000000000745000000000075101123000000000000231000000000000174152900000000000000009999123100000010000000000000BRUSIMACNOR3167
012024071002USIM5       010USIMINAS    PNA     N1   R$  000000000080100000000008050000000000787000000000079200000000007920000000000791000000000079309296000000000007950100000000006302438300000000000000009999123100000010000000000000BRUSIMACNPA6169
012024071002ZAMP3       010ZAMP S.A.   ON           R$  000000000035200000000003670000000000351000000000035800000000003530000000000352000000000035401819000000000000358700000000000128419900000000000000009999123100000010000000000000BRZAMPACNOR5100
012024071002PFRM3       010PROFARMA    ON      NM   R$  000000000055100000000005650000000000542000000000055200000000005610000000000555000000000056100553000000000000222800000000000123120400000000000000009999123100000010000000000000BRPFRMACNOR1116
012024071002PGMN3       010PAGUE MENOS ON      NM   R$  000000000026800000000002780000000000267000000000027200000000002760000000000271000000000027601097000000000000802600000000000218926600000000000000009999123100000010000000000000BRPGMNACNOR8103
012024071002PINE3       010PINE        ON  EJ  N2   R$  000000000056000000000006000000000000560000000000057900000000006000000000000600000000000000000018000000000000003500000000000002027100000000000000009999123100000010000000000000BRPINEACNOR1150
012024071002PINE4       010PINE        PN  EJ  N2   R$  000000000043500000000004400000000000430000000000043400000000004300000000000430000000000043200228000000000000091000000000000039543200000000000000009999123100000010000000000000BRPINEACNPR8150
012024071002PLAS3       010PLASCAR PARTON           R$  000000000056000000000005600000000000560000000000056000000000005600000000000551000000000060000003000000000000001000000000000000560000000000000000009999123100000010000000000000BRPLASACNOR2106
012024071002ROMI3       010ROMI        ON      NM   R$  000000000110300000000011150000000001098000000000110800000000010980000000001098000000000110901676000000000000256900000000000284673700000000000000009999123100000010000000000000BRROMIACNOR8195
012024071002RPAD3       010ALFA HOLDINGON           R$  000000000088000000000008800000000000880000000000088000000000008800000000000852000000000095500001000000000000000200000000000000176000000000000000009999123100000010000000000000BRRPADACNOR1198
012024071002RRRP3       0103R PETROLEUMON      NM   R$  000000000281900000000028280000000002780000000000279400000000027800000000002780000000000278208395000000000002206200000000006164415100000000000000009999123100000010000000000000BRRRRPACNOR5103
012024071002RENT3       010LOCALIZA    ON      NM   R$  000000000449500000000046090000000004473000000000453700000000045250000000004523000000000452931307000000000008892700000000040354531300000000000000009999123100000010000000000000BRRENTACNOR4196
012024071002VAMO3       010VAMOS       ON      NM   R$  000000000094600000000009590000000000916000000000093200000000009240000000000923000000000092521786000000000012452700000000011607263700000000000000009999123100000010000000000000BRVAMOACNOR7105
012024071002ODPV3       010ODONTOPREV  ON      NM   R$  000000000117700000000011890000000001170000000000118100000000011800000000001180000000000118705711000000000001205900000000001424574200000000000000009999123100000010000000000000BRODPVACNOR4202
012024071002OFSA3       010OUROFINO S/AON      NM   R$  000000000187500000000018800000000001854000000000187400000000018800000000001860000000000188000018000000000000004900000000000009185700000000000000009999123100000010000000000000BROFSAACNOR7118
012024071002ONCO3       010ONCOCLINICASON      NM   R$  000000000081900000000008250000000000793000000000080700000000007950000000000795000000000079805276000000000002987700000000002412379900000000000000009999123100000010000000000000BRONCOACNOR6101
012024071002OPCT3       010OCEANPACT   ON      NM   R$  000000000067000000000006900000000000670000000000067900000000006730000000000673000000000068003712000000000000888600000000000604120600000000000000009999123100000010000000000000BROPCTACNOR0100
012024071002ORVR3       010ORIZON      ON      NM   R$  000000000418600000000042520000000004164000000000419400000000041910000000004183000000000419301691000000000000245400000000001029279800000000000000009999123100000010000000000000BRORVRACNOR0101
012024071002RANI3       010IRANI       ON      NM   R$  000000000089500000000009010000000000878000000000088600000000008790000000000878000000000088001920000000000000683300000000000605839700000000000000009999123100000010000000000000BRRANIACNOR5072
012024071002RAPT3       010RANDON PART ON      N1   R$  000000000100400000000010160000000000998000000000100800000000010160000000001006000000000101800085000000000000016400000000000016534600000000000000009999123100000010000000000000BRRAPTACNOR7162
012024071002RAPT4       010RANDON PART PN      N1   R$  000000000116200000000011950000000001162000000000118500000000011770000000001177000000000118806867000000000001973400000000002339308400000000000000009999123100000010000000000000BRRAPTACNPR4162
012024071002RCSL3       010RECRUSUL    ON           R$  000000000031300000000003170000000000302000000000031100000000003140000000000314000000000031500661000000000000357800000000000111398700000000000000009999123100000010000000000000BRRCSLACNOR4134
012024071002RCSL4       010RECRUSUL    PN           R$  000000000011500000000001220000000000113000000000011900000000001200000000000119000000000012002346000000000002152400000000000256138200000000000000009999123100000010000000000000BRRCSLACNPR1134
012024071002RDNI3       010RNI         ON      NM   R$  000000000030900000000003150000000000306000000000030900000000003070000000000307000000000031300035000000000000012700000000000003928900000000000000009999123100000010000000000000BRRDNIACNOR9116
012024071002RDOR3       010REDE D OR   ON  EJ  NM   R$  000000000288100000000029100000000002844000000000286400000000028650000000002863000000000286814258000000000003363000000000009634694900000000000000009999123100000010000000000000BRRDORACNOR8113
012024071002EALT4       010ACO ALTONA  PN           R$  000000000112200000000011220000000001110000000000111100000000011110000000001109000000000111100013000000000000001900000000000002112600000000000000009999123100000010000000000000BREALTACNPR1138
012024071002ECOR3       010ECORODOVIAS ON      NM   R$  000000000076000000000007820000000000751000000000075900000000007550000000000754000000000075511258000000000003769500000000002861884500000000000000009999123100000010000000000000BRECORACNOR8120
012024071002EGIE3       010ENGIE BRASILON      NM   R$  000000000459100000000046100000000004574000000000458900000000045780000000004578000000000458104495000000000000775700000000003559892800000000000000009999123100000010000000000000BREGIEACNOR9126
012024071002SRNA3       010SERENA      ON      NM   R$  000000000093300000000009580000000000926000000000094100000000009370000000000926000000000093708172000000000003802000000000003581404400000000000000009999123100000010000000000000BRSRNAACNOR4100
012024071002STBP3       010SANTOS BRP  ON      NM   R$  000000000144200000000014650000000001421000000000143600000000014260000000001425000000000143410486000000000003697800000000005312803600000000000000009999123100000010000000000000BRSTBPACNOR3130
012024071002SUZB3       010SUZANO S.A. ON      NM   R$  000000000529500000000053080000000005205000000000524000000000052450000000005245000000000525035185000000000008742400000000045810716200000000000000009999123100000010000000000000BRSUZBACNOR0130
012024071002NEOE3       010NEOENERGIA  ON  EJ  NM   R$  000000000193000000000019480000000001913000000000193500000000019130000000001912000000000191505206000000000001715700000000003320549500000000000000009999123100000010000000000000BRNEOEACNOR3123
012024071002NGRD3       010NEOGRID     ON      NM   R$  000000000009300000000000970000000000092000000000009400000000000950000000000094000000000009500461000000000000448800000000000042571500000000000000009999123100000010000000000000BRNGRDACNOR3104
012024071002NINJ3       010GETNINJAS   ON      NM   R$  000000000046400000000004810000000000460000000000047000000000004620000000000461000000000046500055000000000000012900000000000006070700000000000000009999123100000010000000000000BRNINJACNOR5101
012024071002NORD3       010NORDON MET  ON           R$  000000000055000000000005500000000000550000000000055000000000005500000000000551000000000060300002000000000000000200000000000000110000000000000000009999123100000010000000000000BRNORDACNOR7135
012024071002NTCO3       010GRUPO NATURAON      NM   R$  000000000160900000000016090000000001560000000000157300000000015600000000001560000000000156413823000000000005151300000000008105440100000000000000009999123100000010000000000000BRNTCOACNOR5106
012024071002RADL3       010RAIADROGASILON  EJ  NM   R$  000000000252400000000025400000000002500000000000251500000000025140000000002508000000000251416783000000000003874700000000009746140400000000000000009999123100000010000000000000BRRADLACNOR0157
012024071002RAIL3       010RUMO S.A.   ON      NM   R$  000000000219400000000022360000000002191000000000221700000000022350000000002230000000000223634423000000000019541300000000043336952400000000000000009999123100000010000000000000BRRAILACNOR9105
012024071002RAIZ4       010RAIZEN      PN      N2   R$  000000000030500000000003080000000000298000000000030100000000003020000000000301000000000030217923000000000015804200000000004761508900000000000000009999123100000010000000000000BRRAIZACNPR6110
012024071002SMFT3       010SMART FIT   ON      NM   R$  000000000227200000000023390000000002272000000000230600000000023000000000002300000000000230907779000000000001361300000000003139918500000000000000009999123100000010000000000000BRSMFTACNOR1112
012024071002SMTO3       010SAO MARTINHOON      NM   R$  000000000327300000000032870000000003231000000000325300000000032370000000003234000000000324205097000000000000983900000000003200894100000000000000009999123100000010000000000000BRSMTOACNOR3126
012024071002GRND3       010GRENDENE    ON      NM   R$  000000000060700000000006200000000000605000000000061100000000006050000000000605000000000060803765000000000001157900000000000708135200000000000000009999123100000010000000000000BRGRNDACNOR3174
012024071002DMVF3       010D1000VFARMA ON      NM   R$  000000000075600000000007660000000000740000000000075900000000007510000000000749000000000076300253000000000000047100000000000035768000000000000000009999123100000010000000000000BRDMVFACNOR9100
012024071002DOHL4       010DOHLER      PN           R$  000000000039600000000003960000000000396000000000039600000000003960000000000391000000000039900001000000000000000100000000000000039600000000000000009999123100000010000000000000BRDOHLACNPR9066
012024071002DOTZ3       010DOTZ SA     ON      NM   R$  000000000063600000000006740000000000636000000000064600000000006490000000000635000000000067000066000000000000016500000000000010675000000000000000009999123100000010000000000000BRDOTZACNOR7101
012024071002DTCY3       010DTCOM-DIRECTON           R$  000000000062400000000006290000000000624000000000062600000000006290000000000000000000000062800006000000000000001100000000000000689400000000000000009999123100000010000000000000BRDTCYACNOR5109
012024071002DXCO3       010DEXCO       ON      NM   R$  000000000071000000000007110000000000688000000000069800000000007010000000000701000000000070208295000000000003034000000000002118809500000000000000009999123100000010000000000000BRDXCOACNOR8105
012024071002GGPS3       010GPS         ON      NM   R$  000000000169500000000017420000000001695000000000172300000000017250000000001723000000000173406455000000000001977000000000003407251800000000000000009999123100000010000000000000BRGGPSACNOR9103
012024071002DESK3       010DESKTOP     ON      NM   R$  000000000151400000000015280000000001486000000000150000000000014990000000001495000000000149900628000000000000139300000000000208960800000000000000009999123100000010000000000000BRDESKACNOR2104
012024071002DEXP3       010DEXXOS PAR  ON      N1   R$  000000000102300000000010470000000001007000000000101700000000010350000000001024000000000103600386000000000000144400000000000146888400000000000000009999123100000010000000000000BRDEXPACNOR1105
012024071002DEXP4       010DEXXOS PAR  PN      N1   R$  000000000103000000000010300000000001017000000000102300000000010260000000001020000000000102600011000000000000007900000000000008082200000000000000009999123100000010000000000000BRDEXPACNPR8105
012024071002DIRR3       010DIRECIONAL  ON  ED  NM   R$  000000000269600000000027470000000002688000000000272400000000027410000000002739000000000274111192000000000002037500000000005551395100000000000000009999123100000010000000000000BRDIRRACNOR0118
012024071002AALR3       010ALLIAR      ON      NM   R$  000000000150100000000016500000000001500000000000159200000000016330000000001610000000000163300527000000000000134800000000000214606100000000000000009999123100000010000000000000BRAALRACNOR6102
012024071002ABCB4       010ABC BRASIL  PN  EJ  N2   R$  000000000226000000000022850000000002250000000000226300000000022500000000002250000000000226302001000000000000319200000000000722533500000000000000009999123100000010000000000000BRABCBACNPR4146
012024071002ABEV3       010AMBEV S/A   ON           R$  000000000113200000000011460000000001124000000000113500000000011400000000001139000000000114135349000000000029040100000000032979722600000000000000009999123100000010000000000000BRABEVACNOR1127
012024071002GMAT3       010GRUPO MATEUSON      NM   R$  000000000073100000000007380000000000722000000000072800000000007250000000000725000000000072706670000000000004520400000000003293832400000000000000009999123100000010000000000000BRGMATACNOR7102
012024071002GOAU3       010GERDAU MET  ON      N1   R$  000000000106900000000010770000000001063000000000106800000000010770000000001065000000000107800132000000000000020200000000000021581800000000000000009999123100000010000000000000BRGOAUACNOR1267
012024071002GOAU4       010GERDAU MET  PN      N1   R$  000000000105800000000010630000000001049000000000105200000000010520000000001051000000000105207440000000000003541400000000003725921200000000000000009999123100000010000000000000BRGOAUACNPR8268
012024071002JALL3       010JALLESMACHADON      NM   R$  000000000075700000000007650000000000750000000000075400000000007510000000000750000000000075302697000000000000597400000000000450720000000000000000009999123100000010000000000000BRJALLACNOR0105
012024071002JBSS3       010JBS         ON      NM   R$  000000000309600000000031180000000003038000000000307800000000030820000000003079000000000308517631000000000004806000000000014793869500000000000000009999123100000010000000000000BRJBSSACNOR8121
012024071002ASAI3       010ASSAI       ON      NM   R$  000000000115500000000011600000000001126000000000113600000000011300000000001130000000000113134134000000000014212100000000016155851500000000000000009999123100000010000000000000BRASAIACNOR0106
012024071002ATOM3       010ATOMPAR     ON           R$  000000000020400000000002060000000000202000000000020400000000002060000000000203000000000020700015000000000000005600000000000001143800000000000000009999123100000010000000000000BRATOMACNOR1106
012024071002BRAP3       010BRADESPAR   ON      N1   R$  000000000185500000000018590000000001835000000000184500000000018450000000001845000000000184600373000000000000057200000000000105542200000000000000009999123100000010000000000000BRBRAPACNOR5148
012024071002BRAP4       010BRADESPAR   PN      N1   R$  000000000190600000000019190000000001893000000000190200000000018970000000001897000000000189806654000000000003033400000000005771730700000000000000009999123100000010000000000000BRBRAPACNPR2148
012024071002CRFB3       010CARREFOUR BRON      NM   R$  000000000104200000000010710000000001036000000000104900000000010400000000001039000000000104015115000000000009669500000000010150940500000000000000009999123100000010000000000000BRCRFBACNOR2116
012024071002CRPG5       010CRISTAL     PNA          R$  000000000290500000000029440000000002903000000000291100000000029110000000002909000000000294900016000000000000001800000000000005240900000000000000009999123100000010000000000000BRCRPGACNPA3119
012024071002AURE3       010AUREN       ON      NM   R$  000000000124400000000012560000000001239000000000124400000000012410000000001241000000000124507427000000000003023400000000003762830700000000000000009999123100000010000000000000BRAUREACNOR9104
012024071002BBSE3       010BBSEGURIDADEON      NM   R$  000000000332500000000033430000000003316000000000333300000000033320000000003331000000000333509981000000000002371600000000007905518300000000000000009999123100000010000000000000BRBBSEACNOR5124
012024071002BEEF3       010MINERVA     ON      NM   R$  000000000067800000000006830000000000664000000000067000000000006670000000000666000000000066707080000000000003580300000000002400883300000000000000009999123100000010000000000000BRBEEFACNOR6116
012024071002BPAN4       010BANCO PAN   PN      N1   R$  000000000084500000000008550000000000830000000000083800000000008310000000000830000000000083304388000000000001398800000000001172663000000000000000009999123100000010000000000000BRBPANACNPR1115
012024071002CRPG6       010CRISTAL     PNB          R$  000000000288000000000028800000000002880000000000288000000000028800000000002863000000000291900001000000000000000100000000000000288000000000000000009999123100000010000000000000BRCRPGACNPB1119
012024071002CSAN3       010COSAN       ON      NM   R$  000000000143100000000014430000000001394000000000141500000000014030000000001403000000000140418969000000000011085300000000015695494200000000000000009999123100000010000000000000BRCSANACNOR6126
012024071002DASA3       010DASA        ON      NM   R$  000000000035200000000003690000000000345000000000035600000000003450000000000345000000000034802634000000000001644900000000000586580500000000000000009999123100000010000000000000BRDASAACNOR1122
012024071002BPAC11      010BTGP BANCO  UNT EJ  N2   R$  000000000322000000000032330000000003158000000000318300000000031710000000003171000000000317336052000000000009493100000000030219350700000000000000009999123100000010000000000000BRBPACUNT006119
012024071002BPAC3       010BTGP BANCO  ON  EJ  N2   R$  000000000155600000000015610000000001539000000000154900000000015390000000001530000000000156000027000000000000003400000000000005269800000000000000009999123100000010000000000000BRBPACACNOR7134
012024071002BPAC5       010BTGP BANCO  PNA EJ  N2   R$  000000000081500000000008180000000000805000000000080900000000008100000000000805000000000082100027000000000000004000000000000003238400000000000000009999123100000010000000000000BRBPACACNPA0134
012024071002CPFE3       010CPFL ENERGIAON      NM   R$  000000000334100000000033840000000003341000000000335700000000033460000000003344000000000335206005000000000001224100000000004109566400000000000000009999123100000010000000000000BRCPFEACNOR0137
012024071002CPLE3       010COPEL       ON      N2   R$  000000000089000000000008990000000000885000000000089100000000008910000000000890000000000089106043000000000002365500000000002108017900000000000000009999123100000010000000000000BRCPLEACNOR8149
012024071002CPLE6       010COPEL       PNB     N2   R$  000000000100600000000010120000000000994000000000100100000000009980000000000998000000000099925779000000000013430400000000013449512500000000000000009999123100000010000000000000BRCPLEACNPB9146
012024071002FRAS3       010FRAS-LE     ON      N1   R$  000000000203200000000020350000000002012000000000202300000000020120000000002012000000000202901330000000000000292000000000000590762700000000000000009999123100000010000000000000BRFRASACNOR0159
012024071002FRIO3       010METALFRIO   ON      NM   R$  000000002550000000000255000000000025000000000002525000000000250000000000024492000000002550000002000000000000000200000000000005050000000000000000009999123100000010000000000000BRFRIOACNOR2111
012024071002CLSA3       010CLEARSALE   ON      NM   R$  000000000090000000000009050000000000851000000000087700000000008940000000000881000000000089407238000000000001916500000000001680907100000000000000009999123100000010000000000000BRCLSAACNOR0100
012024071002CLSC4       010CELESC      PN      N2   R$  000000000775100000000077510000000007751000000000775100000000077510000000007526000000000774900001000000000000000100000000000000775100000000000000009999123100000010000000000000BRCLSCACNPR3131
012024071002CMIG3       010CEMIG       ON      N1   R$  000000000129200000000012920000000001264000000000128000000000012830000000001280000000000128400819000000000000122100000000000156320600000000000000009999123100000010000000000000BRCMIGACNOR6242
012024071002CMIG4       010CEMIG       PN      N1   R$  000000000104900000000010540000000001023000000000104400000000010460000000001045000000000104837806000000000012515400000000013077984300000000000000009999123100000010000000000000BRCMIGACNPR3243
012024071002CXSE3       010CAIXA SEGURION      NM   R$  000000000143100000000014310000000001420000000000142500000000014300000000001428000000000143008208000000000002554300000000003642031200000000000000009999123100000010000000000000BRCXSEACNOR7106
012024071002CEAB3       010CEA MODAS   ON      NM   R$  000000000100300000000010540000000001003000000000102900000000010290000000001029000000000103005970000000000002911700000000002998479600000000000000009999123100000010000000000000BRCEABACNOR1102
012024071002CEBR3       010CEB         ON           R$  000000000209100000000020940000000002057000000000208000000000020930000000002001000000000209400039000000000000010000000000000020809600000000000000009999123100000010000000000000BRCEBRACNOR5125
012024071002CEBR5       010CEB         PNA          R$  000000000183800000000018380000000001838000000000183800000000018380000000001814000000000183800001000000000000000100000000000000183800000000000000009999123100000010000000000000BRCEBRACNPA8124
012024071002CEBR6       010CEB         PNB          R$  000000000192400000000019590000000001922000000000194200000000019400000000001930000000000198200031000000000000005700000000000011074900000000000000009999123100000010000000000000BRCEBRACNPB6124
012024071002CGAS3       010COMGAS      ON           R$  000000001097100000000109710000000010971000000001097100000000109710000000010600000000001099900001000000000000000100000000000001097100000000000000009999123100000010000000000000BRCGASACNOR0163
012024071002CGAS5       010COMGAS      PNA          R$  000000001133100000000113770000000011265000000001130300000000112650000000011210000000001150000030000000000000003200000000000036169600000000000000009999123100000010000000000000BRCGASACNPA3160
012024071002CGRA3       010GRAZZIOTIN  ON           R$  000000000254000000000025400000000002540000000000254000000000025400000000002509000000000255800004000000000000000400000000000001016000000000000000009999123100000010000000000000BRCGRAACNOR2083
012024071002CGRA4       010GRAZZIOTIN  PN           R$  000000000256800000000025890000000002544000000000255700000000025440000000002544000000000259400018000000000000003600000000000009206800000000000000009999123100000010000000000000BRCGRAACNPR9083
012024071002CIEL3       010CIELO       ON      NM   R$  000000000057200000000005730000000000570000000000057100000000005720000000000572000000000057309329000000000013974100000000007989569500000000000000009999123100000010000000000000BRCIELACNOR3157
012024071002CYRE3       010CYRELA REALTON      NM   R$  000000000202100000000020780000000002021000000000205100000000020550000000002050000000000205517960000000000005894200000000012091405900000000000000009999123100000010000000000000BRCYREACNOR7140
012024071002ENAT3       010ENAUTA PART ON      NM   R$  000000000225600000000022720000000002237000000000225200000000022370000000002236000000000224203677000000000000729900000000001643790000000000000000009999123100000010000000000000BRENATACNOR0104
012024071002ENEV3       010ENEVA       ON      NM   R$  000000000132300000000013500000000001323000000000133700000000013410000000001336000000000134114885000000000005292800000000007079532300000000000000009999123100000010000000000000BRENEVACNOR8106
012024071002ENGI11      010ENERGISA    UNT     N2   R$  000000000475900000000048200000000004738000000000475900000000047500000000004750000000000476010519000000000003095000000000014732096800000000000000009999123100000010000000000000BRENGICDAM16135
012024071002ENGI3       010ENERGISA    ON      N2   R$  000000000156100000000015610000000001524000000000153700000000015250000000001520000000000152600018000000000000001900000000000002921500000000000000009999123100000010000000000000BRENGIACNOR0145
012024071002ENGI4       010ENERGISA    PN      N2   R$  000000000081000000000008200000000000801000000000080500000000008020000000000800000000000080900010000000000000002300000000000001852000000000000000009999123100000010000000000000BRENGIACNPR7141
012024071002ENJU3       010ENJOEI      ON      NM   R$  000000000022200000000002250000000000216000000000021900000000002160000000000215000000000021600613000000000000427100000000000093892600000000000000009999123100000010000000000000BRENJUACNOR9100
012024071002ENMT4       010ENERGISA MT PN  ED       R$  000000000745500000000074550000000007455000000000745500000000074550000000006000000000000752000006000000000000000800000000000005964000000000000000009999123100000010000000000000BRENMTACNPR2126
012024071002EPAR3       010EMBPAR S/A  ON           R$  000000000062900000000006300000000000629000000000062900000000006290000000000629000000000063000013000000000000001700000000000001069800000000000000009999123100000010000000000000BREPARACNOR9105
012024071002IFCM3       010INFRACOMM   ON      NM   R$  000000000004500000000000490000000000043000000000004500000000000440000000000044000000000004504508000000000019249500000000000879720600000000000000009999123100000010000000000000BRIFCMACNOR8101
012024071002LUPA3       010LUPATECH    ON      NM   R$  000000000017000000000001740000000000160000000000016500000000001670000000000167000000000016800272000000000000377200000000000062366700000000000000009999123100000010000000000000BRLUPAACNOR8112
012024071002LVTC3       010WDC NETWORKSON      NM   R$  000000000038000000000003800000000000366000000000037000000000003660000000000366000000000037000027000000000000010500000000000003890400000000000000009999123100000010000000000000BRLVTCACNOR4102
012024071002LWSA3       010LWSA        ON      NM   R$  000000000046300000000004760000000000454000000000046400000000004650000000000465000000000046615263000000000013643900000000006338546900000000000000009999123100000010000000000000BRLWSAACNOR8103
012024071002BMEB4       010MERCANTIL   PN      N1   R$  000000000295000000000029750000000002918000000000294600000000029450000000002938000000000294600029000000000000005100000000000015027300000000000000009999123100000010000000000000BRBMEBACNPR5210
012024071002BMGB4       010BANCO BMG   PN      N1   R$  000000000035600000000003580000000000353000000000035600000000003560000000000355000000000035600641000000000000309200000000000110077100000000000000009999123100000010000000000000BRBMGBACNPR0109
012024071002BMKS3       010BIC MONARK  ON           R$  000000003489900000000348990000000032537000000003289700000000329010000000032901000000003389900015000000000000000042000000000001381715000000000000009999123100000010000000000000BRBMKSACNOR9166
012024071002BMOB3       010BEMOBI TECH ON      NM   R$  000000000144300000000015000000000001443000000000148800000000014850000000001485000000000149503072000000000000569100000000000847100200000000000000009999123100000010000000000000BRBMOBACNOR7103
012024071002AVLL3       010ALPHAVILLE  ON      NM   R$  000000000033000000000003300000000000328000000000032900000000003280000000000320000000000033000002000000000000000200000000000000065800000000000000009999123100000010000000000000BRAVLLACNOR5103
012024071002AZEV3       010AZEVEDO     ON           R$  000000000015800000000001670000000000155000000000015900000000001600000000000159000000000016000665000000000000927800000000000148379600000000000000009999123100000010000000000000BRAZEVACNOR0121
012024071002AZEV4       010AZEVEDO     PN           R$  000000000015400000000001650000000000152000000000015800000000001590000000000159000000000016002653000000000006873200000000001087555700000000000000009999123100000010000000000000BRAZEVACNPR7121
012024071002AZUL4       010AZUL        PN      N2   R$  000000000088300000000008960000000000846000000000086700000000008470000000000847000000000084815056000000000017079400000000014811834300000000000000009999123100000010000000000000BRAZULACNPR4102
012024071002BOBR4       010BOMBRIL     PN           R$  000000000020600000000002090000000000205000000000020600000000002060000000000203000000000020500038000000000000025600000000000005278100000000000000009999123100000010000000000000BRBOBRACNPR3128
012024071002CAMB3       010CAMBUCI     ON           R$  000000000106500000000010900000000001065000000000108200000000010900000000001088000000000109000069000000000000042100000000000045554300000000000000009999123100000010000000000000BRCAMBACNOR4130
012024071002CAML3       010CAMIL       ON      NM   R$  000000000086200000000008690000000000853000000000086100000000008550000000000855000000000085902118000000000000548300000000000472614800000000000000009999123100000010000000000000BRCAMLACNOR3128
012024071002CASH3       010MELIUZ      ON      NM   R$  000000000061500000000006250000000000600000000000060700000000006040000000000604000000000060702942000000000001176600000000000714913900000000000000009999123100000010000000000000BRCASHACNOR8106
012024071002CBAV3       010CBA         ON      NM   R$  000000000073500000000007460000000000726000000000073300000000007340000000000732000000000073408915000000000003174900000000002328125700000000000000009999123100000010000000000000BRCBAVACNOR5104
012024071007TXRX4       010TEX RENAUX  PN           R$  000000000024900000000002580000000000239000000000024600000000002390000000000241000000000024600011000000000000002800000000000000689200000000000000009999123100000010000000000000BRTXRXACNPR0142
012024071007NUTR3       010NUTRIPLANT  ON      MA   R$  000000000049600000000005000000000000487000000000049200000000004890000000000489000000000049500019000000000000002300000000000001133500000000000000009999123100000010000000000000BRNUTRACNOR0104
012024071008CTNM4       010COTEMINAS   PN           R$  000000000007400000000000740000000000074000000000007400000000000740000000000074000000000007500019000000000000008400000000000000621600000000000000009999123100000010000000000000BRCTNMACNPR6129
012024071008CTSA3       010SANTANENSE  ON           R$  000000000023000000000002840000000000230000000000026500000000002670000000000267000000000026800161000000000000054000000000000014326500000000000000009999123100000010000000000000BRCTSAACNOR3062
012024071008CTSA4       010SANTANENSE  PN           R$  000000000008500000000001150000000000085000000000010400000000001150000000000111000000000011500462000000000000312000000000000032722000000000000000009999123100000010000000000000BRCTSAACNPR0062
012024071008LIGT3       010LIGHT S/A   ON      NM   R$  000000000050200000000005120000000000502000000000050700000000005110000000000510000000000051102296000000000000528000000000000268065700000000000000009999123100000010000000000000BRLIGTACNOR2124
012024071008JFEN3       010JOAO FORTES ON           R$  000000000003500000000000380000000000034000000000003600000000000350000000000034000000000003501611000000000001769400000000000063699600000000000000009999123100000010000000000000BRJFENACNOR0059
012024071008PMAM3       010PARANAPANEMAON      NM   R$  000000000024400000000002450000000000238000000000024100000000002410000000000240000000000024100112000000000000031500000000000007617100000000000000009999123100000010000000000000BRPMAMACNOR3039
012024071008AMER3       010AMERICANAS  ON      NM   R$  000000000007500000000000880000000000073000000000007900000000000760000000000075000000000007615099000000000116606700000000009324752900000000000000009999123100000010000000000000BRAMERACNOR6102
012024071008ETER3       010ETERNIT     ON      NM   R$  000000000063600000000006400000000000616000000000062400000000006230000000000618000000000062300572000000000000161300000000000100741700000000000000009999123100000010000000000000BRETERACNOR3243
012024071008RSID3       010ROSSI RESID ON      NM   R$  000000000050500000000005090000000000488000000000049700000000005050000000000505000000000050600161000000000000039100000000000019442400000000000000009999123100000010000000000000BRRSIDACNOR8120
012024071008RNEW11      010RENOVA      UNT     N2   R$  000000000027400000000002740000000000272000000000027300000000002740000000000275000000000027800013000000000000007100000000000001940100000000000000009999123100000010000000000000BRRNEWCDAM15110
012024071008RNEW3       010RENOVA      ON      N2   R$  000000000009200000000000920000000000091000000000009100000000000920000000000091000000000009200028000000000000009600000000000000881800000000000000009999123100000010000000000000BRRNEWACNOR8110
012024071008RNEW4       010RENOVA      PN      N2   R$  000000000009100000000000920000000000090000000000009000000000000900000000000090000000000009200122000000000000187000000000000016908700000000000000009999123100000010000000000000BRRNEWACNPR5110
012024071008SGPS3       010SPRINGS     ON  EG  NM   R$  000000000019800000000001980000000000198000000000019800000000001980000000000195000000000019800025000000000000031700000000000006276600000000000000009999123100000010000000000000BRSGPSACNOR4105
012024071008HOOT4       010HOTEIS OTHONPN           R$  000000000025600000000002560000000000256000000000025600000000002560000000000255000000000026000003000000000000000300000000000000076800000000000000009999123100000010000000000000BRHOOTACNPR9015
012024071008RPMG3       010PET MANGUINHON           R$  000000000026200000000002690000000000259000000000026200000000002590000000000258000000000026600125000000000000021300000000000005598900000000000000009999123100000010000000000000BRRPMGACNOR9194
012024071008OIBR3       010OI          ON      N1   R$  000000000057100000000006170000000000571000000000060200000000005970000000000597000000000060402102000000000001583300000000000954111700000000000000009999123100000010000000000000BROIBRACNOR1111
012024071008OIBR4       010OI          PN      N1   R$  000000000146200000000015200000000001462000000000150100000000015200000000001502000000000152000074000000000000017000000000000025525200000000000000009999123100000010000000000000BROIBRACNPR8110
012024071008OSXB3       010OSX BRASIL  ON      NM   R$  000000000038300000000003860000000000381000000000038300000000003840000000000381000000000038500006000000000000001300000000000000499000000000000000009999123100000010000000000000BROSXBACNOR8109
012024071008NEXP3       010NEXPE       ON           R$  000000000042500000000004250000000000425000000000042500000000004250000000000418000000000043000002000000000000000200000000000000085000000000000000009999123100000010000000000000BRNEXPACNOR0101
012024071008ATMP3       010ATMASA      ON           R$  000000000019800000000002000000000000192000000000019500000000001980000000000194000000000019800027000000000000011300000000000002207700000000000000009999123100000010000000000000BRATMPACNOR8100
012024071010AMAR1       010LOJAS MARISADIR ORD NM   R$  000000000000100000000000010000000000001000000000000100000000000010000000000000000000000000100055000000000000199600000000000000199600000000000000009999123100000010000000000000BRAMARD02OR7114
012024071010EQTL9       010EQUATORIAL  ON  REC NM   R$  000000000334900000000033850000000003301000000000333100000000033010000000003260000000000338500032000000000000005000000000000016655900000000000000009999123100000010000000000000BREQTLR03OR1129
012024071010VIVR1       010VIVER       DIR ORD NM   R$  000000000000100000000000010000000000001000000000000100000000000010000000000000000000000000100012000000000000009800000000000000009800000000000000009999123100000010000000000000BRVIVRD18OR3122
012024071010RENT1       010LOCALIZA    DIR ORD NM   R$  000000000120000000000013050000000001200000000000126300000000012300000000001230000000000125400231000000000000044000000000000055601200000000000000009999123100000010000000000000BRRENTD06OR8195
012024071010BSLI10      010BRB BANCO   PN  REC      R$  000000000084000000000008500000000000840000000000084500000000008500000000000840000000000089000002000000000000000400000000000000338000000000000000009999123100000010000000000000BRBSLIR02PR5192
012024071012CTXT11      010FII C TEXTILCI           R$  000000000082700000000008540000000000827000000000083200000000008540000000000826000000000085500004000000000000000005000000000000004162000000000000009999123100000010000000000000BRCTXTCTF014207
012024071012CVBI11      010FII VBI CRI CI  ER       R$  000000000915400000000091870000000009100000000000912500000000091510000000009150000000000915105472000000000000025827000000000235691520000000000000009999123100000010000000000000BRCVBICTF001167
012024071012LSPA11      010FII LESTE PACI  EA       R$  000000000702000000000076000000000007000000000000712700000000070500000000007000000000000705000133000000000000001245000000000008874142000000000000009999123100000010000000000000BRLSPACTF005140
012024071012LUGG11      010FII LUGGO   CI  ER       R$  000000000743200000000074800000000007375000000000743100000000074750000000007454000000000748000131000000000000000980000000000007282898000000000000009999123100000010000000000000BRLUGGCTF007156
012024071012BTAL11      010FII BTG AGROCI           R$  000000000761000000000076980000000007592000000000763800000000076630000000007662000000000768300991000000000000009116000000000069632856000000000000009999123100000010000000000000BRBTALCTF003140
012024071012BTCI11      010FII BTG CRI CI  ER       R$  000000000099300000000009930000000000987000000000099000000000009900000000000989000000000099020931000000000000104020000000000102995667000000000000009999123100000010000000000000BRBTCICTF005121
012024071012BTHI11      010BTG HOTEL FICI  ER       R$  000000000381800000000038680000000003808000000000382400000000038080000000003808000000000386000035000000000000000719000000000002749625000000000000009999123100000010000000000000BRBTHICTF004110
012024071012BTLG11      010FII BTLG    CI           R$  000000001014600000000102300000000010145000000001019500000000102000000000010200000000001020115505000000000000108113000000001102243857000000000000009999123100000010000000000000BRBTLGCTF000163
012024071012BTRA11      010FII BTG TAGRCI           R$  000000000548100000000054830000000005275000000000540200000000053290000000005329000000000535300249000000000000003196000000000017265346000000000000009999123100000010000000000000BRBTRACTF000137
012024071012ICRI11      010FII CI IPCA CI  ER       R$  000000000967000000000096750000000009628000000000965300000000096360000000009635000000000966000174000000000000006707000000000064743697000000000000009999123100000010000000000000BRICRICTF004105
012024071012IDFI11      010FII UNIDADESCI  ERA      R$  000000000094300000000009430000000000940000000000094200000000009400000000000939000000000094000039000000000000001487000000000001400812000000000000009999123100000010000000000000BRIDFICTF007133
012024071012KNCR11      010FII KINEA RICI  ER       R$  000000001050800000000105350000000010400000000001044200000000104190000000010404000000001041910900000000000000088508000000000924254077000000000000009999123100000010000000000000BRKNCRCTF000241
012024071012KNHF11      010FII KINEA HFCI  ER       R$  000000000971500000000098090000000009691000000000971700000000097220000000009698000000000972203143000000000000034741000000000337586652000000000000009999123100000010000000000000BRKNHFCTF004112
012024071012KNHY11      010FII KINEA HYCI  ER       R$  000000001049600000000105000000000010452000000001047200000000104870000000010474000000001048704237000000000000031144000000000326144621000000000000009999123100000010000000000000BRKNHYCTF005173
012024071012KNIP11      010FII KINEA IPCI  ER       R$  000000000945200000000094800000000009425000000000944300000000094310000000009430000000000943110038000000000000033428000000000315660935000000000000009999123100000010000000000000BRKNIPCTF001194
012024071012KNRE11      010FII KII REALCI           R$  000000000004300000000000430000000000042000000000004200000000000430000000000042000000000004300027000000000000001845000000000000077598000000000000009999123100000010000000000000BRKNRECTF006129
012024071012KNRI11      010FII KINEA   CI  ER       R$  000000001585000000000158900000000015766000000001583500000000158490000000015831000000001584902336000000000000019023000000000301235010000000000000009999123100000010000000000000BRKNRICTF007265
012024071012KNSC11      010FII KINEA SCCI  ER       R$  000000000091900000000009190000000000913000000000091500000000009170000000000916000000000091707496000000000000273203000000000250253243000000000000009999123100000010000000000000BRKNSCCTF008148
012024071012KNUQ11      010FII KINEA UNCI  ER       R$  000000001048000000000105270000000010380000000001044300000000103910000000010391000000001043502860000000000000027624000000000288501354000000000000009999123100000010000000000000BRKNUQCTF004114
012024071012KORE11      010FII KORE    CI  ER       R$  000000001033500000000103950000000010300000000001035500000000103870000000010323000000001038704854000000000000029704000000000307605145000000000000009999123100000010000000000000BRKORECTF012107
012024071012MXRF11      010FII MAXI RENCI  ER       R$  000000000101500000000010170000000001012000000000101400000000010140000000001013000000000101422978000000000001149012000000001165242556000000000000009999123100000010000000000000BRMXRFCTF008254
012024071012BARI11      010FII BARIGUI CI  ER       R$  000000000819400000000083040000000008194000000000826800000000082150000000008215000000000824003927000000000000012946000000000107049948000000000000009999123100000010000000000000BRBARICTF003163
012024071012BICR11      010FII INTER   CI  ER       R$  000000000580600000000058060000000005805000000000580500000000058050000000004953000000000580000003000000000000000011000000000000063857000000000000009999123100000010000000000000BRBICRCTF009153
012024071012LFTT11      010FII LOFT II CI  EA       R$  000000000250200000000025020000000002200000000000223300000000022000000000002000000000000220000032000000000000001267000000000002830162000000000000009999123100000010000000000000BRLFTTCTF004133
012024071012LGCP11      010FII LGCP INTCI  ER       R$  000000000867500000000086750000000008623000000000864600000000086320000000008628000000000863200161000000000000000648000000000005603139000000000000009999123100000010000000000000BRLGCPCTF006157
012024071012LIFE11      010FII LIFE    CI  ER       R$  000000000102000000000010220000000001015000000000101900000000010210000000001020000000000102100216000000000000007686000000000007834493000000000000009999123100000010000000000000BRLIFECTF017130
012024071012BIME11      010FII BRIO ME CI  ER       R$  000000000072300000000007230000000000720000000000072100000000007220000000000720000000000072200133000000000000001625000000000001172990000000000000009999123100000010000000000000BRBIMECTF006133
012024071012BLCA11      010FII BLUE AAACI  ER       R$  000000001010000000000101000000000009799000000000992500000000100000000000009800000000001000000038000000000000000276000000000002739540000000000000009999123100000010000000000000BRBLCACTF009132
012024071012BLMG11      010FII BLUE LOGCI           R$  000000000390400000000039060000000003860000000000388900000000038660000000003866000000000387200815000000000000013809000000000053705009000000000000009999123100000010000000000000BRBLMGCTF005147
012024071012BLMO11      010FII BLUEMAC CI  ER       R$  000000000782900000000078290000000007750000000000779600000000078290000000007829000000000880000008000000000000000037000000000000288488000000000000009999123100000010000000000000BRBLMOCTF009132
012024071012BRIP11      010FII BRIO IIICI  ER       R$  000000009700000000000970000000000097000000000009700000000000970000000000089005000000009675000001000000000000000005000000000000485000000000000000009999123100000010000000000000BRBRIPCTF001114
012024071012BROF11      010FII BROF    CI           R$  000000000512500000000051710000000005096000000000512000000000051500000000005150000000000516000633000000000000010941000000000056020991000000000000009999123100000010000000000000BRBROFCTF000114
012024071012EGYR11      010FII ENERGY  CI           R$  000000000032400000000003250000000000320000000000032400000000003230000000000320000000000032200010000000000000000056000000000000018144000000000000009999123100000010000000000000BREGYRCTF001102
012024071012HCHG11      010FII HECT CRICI  ER       R$  000000000700000000000070000000000007000000000000700000000000070000000000006964000000000709400005000000000000000020000000000000140000000000000000009999123100000010000000000000BRHCHGCTF001138
012024071012HCRI11      010FII CRIANCA CI           R$  000000002710000000000272970000000027100000000002720100000000271970000000027197000000002729700023000000000000000082000000000002230530000000000000009999123100000010000000000000BRHCRICTF006329
012024071012HCTR11      010FII HECTARE CI  ER       R$  000000000327000000000033050000000003054000000000320800000000030690000000003069000000000307605627000000000000070926000000000227558703000000000000009999123100000010000000000000BRHCTRCTF003171
012024071012HDEL11      010FII HEDGE DVCI  ER       R$  000000001099900000000110000000000010999000000001099900000000109990000000000000000000001099900012000000000000000090000000000000989911000000000000009999123100000010000000000000BRHDELCTF006104
012024071012HFOF11      010FII HTOPFOF3CI  ER       R$  000000000703500000000070500000000007002000000000703300000000070350000000007010000000000703506422000000000000018196000000000127979475000000000000009999123100000010000000000000BRHFOFCTF002190
012024071012HGBL11      010FII HGBL    CI  ER       R$  000000000103500000000010350000000001030000000000103400000000010350000000001034000000000103500061000000000000001535000000000001588432000000000000009999123100000010000000000000BRHGBLCTF005105
012024071012HGBS11      010FII HEDGEBS CI  ER       R$  000000002130000000000216000000000021225000000002133200000000216000000000021550000000002160007147000000000000015324000000000326898332000000000000009999123100000010000000000000BRHGBSCTF000311
012024071012HGCR11      010FII HGCR PAXCI  ER       R$  000000001039100000000104800000000010355000000001039600000000103830000000010375000000001038305171000000000000025558000000000265714070000000000000009999123100000010000000000000BRHGCRCTF000247
012024071012IBCR11      010FII BREI    CI  ER       R$  000000000717500000000071960000000007081000000000711000000000070870000000007090000000000710000354000000000000001848000000000013139611000000000000009999123100000010000000000000BRIBCRCTF009138
012024071012JPPA11      010FII JPPA CRICI  ER       R$  000000000829000000000083020000000008185000000000821900000000081860000000008186000000000824700332000000000000005879000000000048319628000000000000009999123100000010000000000000BRJPPACTF005162
012024071012JSAF11      010FII JS A FINCI  ER       R$  000000000946500000000095000000000009360000000000944300000000094690000000009456000000000946902936000000000000029185000000000275618247000000000000009999123100000010000000000000BRJSAFCTF000134
