00COTAHIST.2024BOVESPA 20240717                                                                                                                                                                                                                      
012024071702PDTC3       010PADTEC      ON      NM   R$  000000000019100000000001930000000000188000000000018900000000001920000000000188000000000019200050000000000000018800000000000003562800000000000000009999123100000010000000000000BRPDTCACNOR3101
012024071702PETR3       010PETROBRAS   ON      N2   R$  000000000411700000000041670000000004117000000000414600000000041550000000004151000000000415610346000000000005024400000000020834000200000000000000009999123100000010000000000000BRPETRACNOR9205
012024071702PETR4       010PETROBRAS   PN      N2   R$  000000000384300000000038690000000003834000000000385000000000038600000000003860000000000386140286000000000024606100000000094733760400000000000000009999123100000010000000000000BRPETRACNPR6213
012024071702PFRM3       010PROFARMA    ON      NM   R$  000000000052500000000005510000000000525000000000053500000000005350000000000535000000000053600856000000000000296300000000000158796000000000000000009999123100000010000000000000BRPFRMACNOR1116
012024071702PGMN3       010PAGUE MENOS ON      NM   R$  000000000028700000000003020000000000283000000000029400000000002990000000000298000000000029902840000000000002849000000000000840353300000000000000009999123100000010000000000000BRPGMNACNOR8103
012024071702PINE3       010PINE        ON  EJ  N2   R$  000000000058700000000005870000000000554000000000056600000000005540000000000543000000000056400013000000000000002000000000000001133200000000000000009999123100000010000000000000BRPINEACNOR1150
012024071702PINE4       010PINE        PN  EJ  N2   R$  000000000043000000000004300000000000416000000000042100000000004240000000000420000000000042400364000000000000195500000000000082331100000000000000009999123100000010000000000000BRPINEACNPR8150
012024071702LJQQ3       010QUERO-QUERO ON      NM   R$  000000000044300000000004620000000000440000000000044700000000004440000000000444000000000044610851000000000005131900000000002298533800000000000000009999123100000010000000000000BRLJQQACNOR5104
012024071702AGXY3       010AGROGALAXY  ON      NM   R$  000000000015400000000001540000000000149000000000015100000000001500000000000150000000000015100465000000000000349400000000000052912400000000000000009999123100000010000000000000BRAGXYACNOR4103
012024071702ALLD3       010ALLIED      ON      NM   R$  000000000082700000000008500000000000824000000000083700000000008500000000000845000000000085000205000000000000075400000000000063154200000000000000009999123100000010000000000000BRALLDACNOR3106
012024071702ALOS3       010ALLOS       ON      NM   R$  000000000221500000000022460000000002211000000000223500000000022390000000002232000000000223910370000000000002613800000000005843164900000000000000009999123100000010000000000000BRALOSACNOR5101
012024071702ALPA3       010ALPARGATAS  ON      N1   R$  000000000091000000000009180000000000910000000000091300000000009150000000000915000000000091700049000000000000010100000000000009221600000000000000009999123100000010000000000000BRALPAACNOR0231
012024071702ALPA4       010ALPARGATAS  PN      N1   R$  000000000092100000000009470000000000908000000000093300000000009280000000000928000000000092910236000000000002694200000000002513990600000000000000009999123100000010000000000000BRALPAACNPR7232
012024071702ALPK3       010ESTAPAR     ON      NM   R$  000000000035500000000003550000000000342000000000034600000000003470000000000342000000000034700276000000000000109000000000000037784700000000000000009999123100000010000000000000BRALPKACNOR9101
012024071702ALUP11      010ALUPAR      UNT     N2   R$  000000000311400000000031570000000003110000000000313700000000031560000000003143000000000315704457000000000001219600000000003826676200000000000000009999123100000010000000000000BRALUPCDAM15119
012024071702ALUP3       010ALUPAR      ON      N2   R$  000000000106800000000010760000000001055000000000106400000000010760000000001067000000000107000062000000000000007600000000000008092000000000000000009999123100000010000000000000BRALUPACNOR8119
012024071702ALUP4       010ALUPAR      PN      N2   R$  000000000103900000000010390000000001022000000000103100000000010390000000001037000000000103900085000000000000013700000000000014127900000000000000009999123100000010000000000000BRALUPACNPR5119
012024071702BMEB3       010MERCANTIL   ON      N1   R$  000000000276600000000030240000000002766000000000297300000000028000000000002780000000000280000011000000000000002100000000000006245000000000000000009999123100000010000000000000BRBMEBACNOR8205
012024071702BMEB4       010MERCANTIL   PN      N1   R$  000000000293800000000029800000000002928000000000295300000000029800000000002911000000000298000033000000000000008400000000000024809800000000000000009999123100000010000000000000BRBMEBACNPR5210
012024071702BMGB4       010BANCO BMG   PN      N1   R$  000000000037200000000003780000000000367000000000037300000000003710000000000370000000000037100833000000000000606700000000000226656400000000000000009999123100000010000000000000BRBMGBACNPR0109
012024071702BMIN3       010MERC INVEST ON           R$  000000000196200000000019620000000001962000000000196200000000019620000000001961000000000236000001000000000000000100000000000000196200000000000000009999123100000010000000000000BRBMINACNOR4170
012024071702BMIN4       010MERC INVEST PN           R$  000000000156000000000015600000000001560000000000156000000000015600000000001545000000000161100002000000000000000300000000000000468000000000000000009999123100000010000000000000BRBMINACNPR1176
012024071702BMKS3       010BIC MONARK  ON           R$  000000003427000000000342700000000034199000000003424100000000342700000000033000000000003427000005000000000000000010000000000000342417000000000000009999123100000010000000000000BRBMKSACNOR9166
012024071702BMOB3       010BEMOBI TECH ON      NM   R$  000000000150800000000015270000000001503000000000151200000000015070000000001503000000000151101018000000000000134600000000000203537600000000000000009999123100000010000000000000BRBMOBACNOR7103
012024071702BOBR4       010BOMBRIL     PN           R$  000000000020800000000002130000000000208000000000021000000000002130000000000208000000000021300019000000000000003700000000000000780100000000000000009999123100000010000000000000BRBOBRACNPR3128
012024071702BRIT3       010BRISANET    ON      NM   R$  000000000044600000000004580000000000436000000000044700000000004360000000000435000000000043600641000000000000411500000000000183984000000000000000009999123100000010000000000000BRBRITACNOR0103
012024071702BRKM3       010BRASKEM     ON      N1   R$  000000000195400000000019540000000001900000000000192600000000019000000000001890000000000197000013000000000000001400000000000002697300000000000000009999123100000010000000000000BRBRKMACNOR1119
012024071702BRKM5       010BRASKEM     PNA     N1   R$  000000000194500000000019640000000001907000000000193000000000019170000000001916000000000191804867000000000001231400000000002376682000000000000000009999123100000010000000000000BRBRKMACNPA4121
012024071702BRKM6       010BRASKEM     PNB     N1   R$  000000000154900000000015490000000001549000000000154900000000015490000000001300000000000155000001000000000000000100000000000000154900000000000000009999123100000010000000000000BRBRKMACNPB2114
012024071702CSED3       010CRUZEIRO EDUON      NM   R$  000000000041800000000004190000000000409000000000041400000000004120000000000411000000000041200467000000000000148100000000000061393400000000000000009999123100000010000000000000BRCSEDACNOR9104
012024071702CSMG3       010COPASA      ON      NM   R$  000000000206400000000020720000000002053000000000206200000000020610000000002061000000000206503347000000000000690100000000001423314600000000000000009999123100000010000000000000BRCSMGACNOR5174
012024071702CSNA3       010SID NACIONALON           R$  000000000130100000000013280000000001295000000000131900000000013180000000001317000000000132009338000000000004980000000000006572654900000000000000009999123100000010000000000000BRCSNAACNOR6261
012024071702ENAT3       010ENAUTA PART ON      NM   R$  000000000221200000000022350000000002205000000000221400000000022130000000002210000000000221305586000000000001108700000000002455411000000000000000009999123100000010000000000000BRENATACNOR0104
012024071702ENEV3       010ENEVA       ON      NM   R$  000000000133600000000013370000000001297000000000130700000000013080000000001302000000000130821892000000000012377300000000016184849900000000000000009999123100000010000000000000BRENEVACNOR8106
012024071702ENGI11      010ENERGISA    UNT     N2   R$  000000000472100000000047800000000004721000000000476100000000047540000000004752000000000476510652000000000001692600000000008059420100000000000000009999123100000010000000000000BRENGICDAM16135
012024071702ENGI3       010ENERGISA    ON      N2   R$  000000000148600000000015160000000001486000000000150200000000014950000000001495000000000149600022000000000000003500000000000005259700000000000000009999123100000010000000000000BRENGIACNOR0145
012024071702ENGI4       010ENERGISA    PN      N2   R$  000000000081600000000008180000000000801000000000081400000000008140000000000814000000000081500023000000000000004200000000000003421800000000000000009999123100000010000000000000BRENGIACNPR7141
012024071702ENJU3       010ENJOEI      ON      NM   R$  000000000020400000000002080000000000200000000000020300000000002000000000000200000000000020200508000000000000429700000000000087474600000000000000009999123100000010000000000000BRENJUACNOR9100
012024071702ENMT4       010ENERGISA MT PN           R$  000000000786800000000078680000000007868000000000786800000000078680000000000000000000000786900002000000000000000200000000000001573600000000000000009999123100000010000000000000BRENMTACNPR2126
012024071702EPAR3       010EMBPAR S/A  ON           R$  000000000063000000000006300000000000607000000000061600000000006100000000000606000000000061000069000000000000021800000000000013436100000000000000009999123100000010000000000000BREPARACNOR9105
012024071702IBOV11      010IBOVESPA    IBO          R$  000001295350000000129535000000012953500000001295350000000129535000000000000000000000000000000377000000000000068201000000883441653500000000000000009999123100000010000000000000BRIBOVINDM18012
012024071702JHSF3       010JHSF PART   ON      NM   R$  000000000042400000000004250000000000419000000000042200000000004230000000000422000000000042302811000000000003959600000000001671132200000000000000009999123100000010000000000000BRJHSFACNOR2137
012024071702JSLG3       010JSL         ON      NM   R$  000000000100900000000010380000000000999000000000102500000000010320000000001032000000000103701446000000000000229200000000000234978900000000000000009999123100000010000000000000BRJSLGACNOR2121
012024071702KEPL3       010KEPLER WEBERON      NM   R$  000000000100500000000010270000000001005000000000102000000000010260000000001026000000000102702791000000000000981100000000001000875500000000000000009999123100000010000000000000BRKEPLACNOR1063
012024071702KLBN11      010KLABIN S/A  UNT     N2   R$  000000000215000000000021720000000002133000000000215900000000021550000000002154000000000215509045000000000003050800000000006587845400000000000000009999123100000010000000000000BRKLBNCDAM18142
012024071702KLBN3       010KLABIN S/A  ON      N2   R$  000000000043000000000004370000000000429000000000043300000000004310000000000431000000000043400597000000000000205600000000000089109700000000000000009999123100000010000000000000BRKLBNACNOR2170
012024071702KLBN4       010KLABIN S/A  PN      N2   R$  000000000042600000000004330000000000426000000000043000000000004310000000000430000000000043102025000000000001005800000000000433101100000000000000009999123100000010000000000000BRKLBNACNPR9170
012024071702AERI3       010AERIS       ON      NM   R$  000000000067600000000007000000000000662000000000068100000000006620000000000662000000000067000433000000000000115200000000000078521000000000000000009999123100000010000000000000BRAERIACNOR4102
012024071702AESB3       010AES BRASIL  ON      NM   R$  000000000114000000000011400000000001136000000000113800000000011400000000001139000000000114002816000000000003013800000000003431458500000000000000009999123100000010000000000000BRAESBACNOR7106
012024071702AGRO3       010BRASILAGRO  ON      NM   R$  000000000269800000000028450000000002673000000000278700000000028200000000002810000000000282003276000000000000602500000000001679247300000000000000009999123100000010000000000000BRAGROACNOR7114
012024071702GEPA4       010GER PARANAP PN           R$  000000000260000000000026500000000002600000000000261600000000026500000000002625000000000264900004000000000000000600000000000001570000000000000000009999123100000010000000000000BRGEPAACNPR9160
012024071702GFSA3       010GAFISA      ON      NM   R$  000000000038400000000003920000000000371000000000038100000000003730000000000373000000000037402665000000000002567600000000000978362300000000000000009999123100000010000000000000BRGFSAACNOR3124
012024071702GGBR3       010GERDAU      ON      N1   R$  000000000168000000000017000000000001672000000000168200000000016890000000001674000000000169000210000000000000041000000000000068978100000000000000009999123100000010000000000000BRGGBRACNOR1192
012024071702GGBR4       010GERDAU      PN      N1   R$  000000000190000000000019130000000001879000000000190000000000019020000000001901000000000190218887000000000008924500000000016962640200000000000000009999123100000010000000000000BRGGBRACNPR8192
012024071702ITSA3       010ITAUSA      ON      N1   R$  000000000102200000000010350000000001022000000000103000000000010330000000001033000000000103400309000000000000101000000000000104034700000000000000009999123100000010000000000000BRITSAACNOR0441
012024071702ITSA4       010ITAUSA      PN      N1   R$  000000000102500000000010370000000001018000000000103100000000010360000000001035000000000103622919000000000022237900000000022939394200000000000000009999123100000010000000000000BRITSAACNPR7441
012024071702LUPA3       010LUPATECH    ON      NM   R$  000000000019900000000002090000000000180000000000019800000000001800000000000180000000000018500989000000000001295800000000000257291400000000000000009999123100000010000000000000BRLUPAACNOR8112
012024071702LVTC3       010WDC NETWORKSON      NM   R$  000000000037500000000003830000000000371000000000037600000000003720000000000372000000000037900025000000000000004500000000000001693100000000000000009999123100000010000000000000BRLVTCACNOR4102
012024071702LWSA3       010LWSA        ON      NM   R$  000000000046200000000004680000000000454000000000045900000000004600000000000459000000000046109260000000000009500500000000004365927400000000000000009999123100000010000000000000BRLWSAACNOR8103
012024071702LOGG3       010LOG COM PROPON      NM   R$  000000000229500000000023600000000002295000000000234100000000023510000000002336000000000235200947000000000000129900000000000304133300000000000000009999123100000010000000000000BRLOGGACNOR7107
012024071702LOGN3       010LOG-IN      ON      NM   R$  000000000412900000000041700000000004129000000000415100000000041700000000004145000000000418600061000000000000008600000000000035705700000000000000009999123100000010000000000000BRLOGNACNOR3105
012024071702LPSB3       010LOPES BRASILON      NM   R$  000000000019800000000001980000000000195000000000019600000000001950000000000195000000000019600215000000000000116600000000000022872300000000000000009999123100000010000000000000BRLPSBACNOR0114
012024071702LREN3       010LOJAS RENNERON      NM   R$  000000000136700000000013870000000001360000000000137100000000013650000000001364000000000136515469000000000008658900000000011875482700000000000000009999123100000010000000000000BRLRENACNOR1221
012024071702BHIA3       010CASAS BAHIA ON      NM   R$  000000000053600000000005390000000000517000000000052500000000005180000000000518000000000051904705000000000005270600000000002767189200000000000000009999123100000010000000000000BRBHIAACNOR1102
012024071702BPAN4       010BANCO PAN   PN      N1   R$  000000000086000000000008850000000000855000000000087500000000008830000000000880000000000088304131000000000001159300000000001014786100000000000000009999123100000010000000000000BRBPANACNPR1115
012024071702BRAP3       010BRADESPAR   ON      N1   R$  000000000187600000000018840000000001865000000000187300000000018840000000001882000000000188500204000000000000031200000000000058453400000000000000009999123100000010000000000000BRBRAPACNOR5148
012024071702BRAP4       010BRADESPAR   PN      N1   R$  000000000193500000000019490000000001925000000000194000000000019490000000001945000000000195007338000000000004776300000000009268043900000000000000009999123100000010000000000000BRBRAPACNPR2148
012024071702CPFE3       010CPFL ENERGIAON      NM   R$  000000000336800000000033850000000003344000000000336800000000033700000000003369000000000337605700000000000001242400000000004184605900000000000000009999123100000010000000000000BRCPFEACNOR0137
012024071702CPLE3       010COPEL       ON      N2   R$  000000000092000000000009200000000000905000000000091100000000009140000000000912000000000091405274000000000003624100000000003304472700000000000000009999123100000010000000000000BRCPLEACNOR8149
012024071702CPLE6       010COPEL       PNB     N2   R$  000000000102600000000010330000000001023000000000102700000000010290000000001026000000000103014020000000000011042200000000011348642400000000000000009999123100000010000000000000BRCPLEACNPB9146
012024071702CRFB3       010CARREFOUR BRON      NM   R$  000000000109200000000011110000000001074000000000109600000000010740000000001073000000000107713126000000000005412000000000005934575300000000000000009999123100000010000000000000BRCRFBACNOR2116
012024071702HAGA3       010HAGA S/A    ON           R$  000000000027500000000002840000000000271000000000027800000000002760000000000272000000000027700025000000000000009400000000000002619700000000000000009999123100000010000000000000BRHAGAACNOR7103
012024071702HAGA4       010HAGA S/A    PN           R$  000000000011900000000001190000000000118000000000011800000000001180000000000118000000000011900007000000000000001600000000000000190300000000000000009999123100000010000000000000BRHAGAACNPR4103
012024071702HAPV3       010HAPVIDA     ON      NM   R$  000000000041800000000004180000000000405000000000041000000000004060000000000406000000000040723013000000000049318600000000020268443600000000000000009999123100000010000000000000BRHAPVACNOR4114
012024071702HBOR3       010HELBOR      ON      NM   R$  000000000024300000000002430000000000236000000000023900000000002360000000000236000000000023800408000000000000293200000000000070177400000000000000009999123100000010000000000000BRHBORACNOR3118
012024071702HBRE3       010HBR REALTY  ON      NM   R$  000000000058000000000005900000000000570000000000057800000000005720000000000570000000000057200627000000000000301500000000000174288900000000000000009999123100000010000000000000BRHBREACNOR4100
012024071702HBSA3       010HIDROVIAS   ON      NM   R$  000000000039000000000003960000000000387000000000039100000000003940000000000391000000000039406003000000000003246900000000001271301900000000000000009999123100000010000000000000BRHBSAACNOR0100
012024071702HETA4       010HERCULES    PN           R$  000000000055400000000005540000000000530000000000053700000000005300000000000530000000000055400006000000000000000600000000000000322600000000000000009999123100000010000000000000BRHETAACNPR9136
012024071702BEEF3       010MINERVA     ON      NM   R$  000000000068400000000007000000000000684000000000069300000000006900000000000690000000000069206395000000000004972700000000003447016100000000000000009999123100000010000000000000BRBEEFACNOR6116
012024071702RADL3       010RAIADROGASILON      NM   R$  000000000257500000000025840000000002533000000000256200000000025610000000002561000000000256411661000000000003645100000000009341609600000000000000009999123100000010000000000000BRRADLACNOR0157
012024071702RAIL3       010RUMO S.A.   ON      NM   R$  000000000228800000000022880000000002257000000000227300000000022740000000002273000000000227823654000000000009882900000000022470551400000000000000009999123100000010000000000000BRRAILACNOR9105
012024071702SCAR3       010SAO CARLOS  ON      NM   R$  000000000223100000000022470000000002220000000000223100000000022470000000002214000000000224800020000000000000003000000000000006694100000000000000009999123100000010000000000000BRSCARACNOR7131
012024071702SEER3       010SER EDUCA   ON      NM   R$  000000000056900000000005850000000000567000000000057500000000005720000000000570000000000057402198000000000000363400000000000208998900000000000000009999123100000010000000000000BRSEERACNOR5119
012024071702SEQL3       010SEQUOIA LOG ON      NM   R$  000000000048000000000005220000000000475000000000049900000000004800000000000479000000000048000760000000000000426800000000000213036700000000000000009999123100000010000000000000BRSEQLACNOR2103
012024071702SHOW3       010TIME FOR FUNON      NM   R$  000000000016600000000001700000000000162000000000016500000000001640000000000162000000000016400311000000000000189500000000000031409200000000000000009999123100000010000000000000BRSHOWACNOR7105
012024071702BPAC11      010BTGP BANCO  UNT     N2   R$  000000000318400000000032590000000003184000000000323400000000032480000000003244000000000324917779000000000005915500000000019132320800000000000000009999123100000010000000000000BRBPACUNT006119
012024071702BPAC3       010BTGP BANCO  ON      N2   R$  000000000156900000000015700000000001551000000000156000000000015620000000001562000000000160200013000000000000002700000000000004213800000000000000009999123100000010000000000000BRBPACACNOR7134
012024071702BPAC5       010BTGP BANCO  PNA     N2   R$  000000000082100000000008340000000000817000000000082600000000008340000000000827000000000083400012000000000000001200000000000000991900000000000000009999123100000010000000000000BRBPACACNPA0134
012024071702EKTR4       010ELEKTRO     PN           R$  000000000395500000000039550000000003955000000000395500000000039550000000003951000000000395500015000000000000004000000000000015820000000000000000009999123100000010000000000000BREKTRACNPR7163
012024071702ELET3       010ELETROBRAS  ON      N1   R$  000000000389600000000039070000000003858000000000388000000000038580000000003858000000000386614844000000000004214500000000016355317800000000000000009999123100000010000000000000BRELETACNOR6160
012024071702ELET6       010ELETROBRAS  PNB     N1   R$  000000000430000000000043540000000004300000000000432800000000043200000000004318000000000432005898000000000001538000000000006657739800000000000000009999123100000010000000000000BRELETACNPB7077
012024071702GGPS3       010GPS         ON      NM   R$  000000000173900000000017550000000001725000000000173400000000017330000000001732000000000173603397000000000001049500000000001820345800000000000000009999123100000010000000000000BRGGPSACNOR9103
012024071702SHUL4       010SCHULZ      PN           R$  000000000068600000000007030000000000680000000000068800000000006880000000000687000000000068800855000000000000340100000000000234149900000000000000009999123100000010000000000000BRSHULACNPR4156
012024071702SIMH3       010SIMPAR      ON      NM   R$  000000000068200000000006870000000000674000000000067800000000006780000000000678000000000068004677000000000002192300000000001487687500000000000000009999123100000010000000000000BRSIMHACNOR0107
012024071702SLCE3       010SLC AGRICOLAON      NM   R$  000000000193500000000019490000000001921000000000193100000000019380000000001932000000000193806243000000000001488000000000002874676500000000000000009999123100000010000000000000BRSLCEACNOR2125
012024071702VALE3       010VALE        ON      NM   R$  000000000618800000000062020000000006158000000000617500000000061750000000006172000000000617544125000000000023145000000000142936819400000000000000009999123100000010000000000000BRVALEACNOR0210
012024071702MILS3       010MILLS       ON      NM   R$  000000000113100000000011460000000001130000000000113600000000011450000000001145000000000114603543000000000001711200000000001945491100000000000000009999123100000010000000000000BRMILSACNOR2127
012024071702MLAS3       010MULTILASER  ON      NM   R$  000000000021900000000002210000000000206000000000021200000000002130000000000212000000000021303226000000000002735500000000000580183700000000000000009999123100000010000000000000BRMLASACNOR9101
012024071702GMAT3       010GRUPO MATEUSON      NM   R$  000000000074000000000007510000000000733000000000074200000000007380000000000737000000000073905478000000000002825900000000002099639600000000000000009999123100000010000000000000BRGMATACNOR7102
012024071702GOAU3       010GERDAU MET  ON      N1   R$  000000000111300000000011300000000001104000000000112200000000011160000000001116000000000112700287000000000000058100000000000065218200000000000000009999123100000010000000000000BRGOAUACNOR1267
012024071702GOAU4       010GERDAU MET  PN      N1   R$  000000000111500000000011230000000001108000000000111700000000011170000000001116000000000111813877000000000003976300000000004443165900000000000000009999123100000010000000000000BRGOAUACNPR8268
012024071702GRND3       010GRENDENE    ON      NM   R$  000000000062000000000006200000000000614000000000061700000000006160000000000616000000000061801852000000000000528500000000000326194000000000000000009999123100000010000000000000BRGRNDACNOR3174
012024071702GUAR3       010GUARARAPES  ON      NM   R$  000000000078000000000007940000000000759000000000077500000000007680000000000766000000000077104948000000000001485300000000001152002700000000000000009999123100000010000000000000BRGUARACNOR4173
012024071702RRRP3       0103R PETROLEUMON      NM   R$  000000000279100000000027950000000002753000000000276300000000027610000000002761000000000276212084000000000002664800000000007364416800000000000000009999123100000010000000000000BRRRRPACNOR5103
012024071702SYNE3       010SYN PROP TECON      NM   R$  000000000100900000000010400000000001004000000000102300000000010210000000001021000000000102601186000000000000272100000000000278419400000000000000009999123100000010000000000000BRSYNEACNOR2102
012024071702PATI3       010PANATLANTICAON           R$  000000000250000000000025000000000002500000000000250000000000025000000000002400000000000250000001000000000000000100000000000000250000000000000000009999123100000010000000000000BRPATIACNOR6065
012024071702PCAR3       010P.ACUCAR-CBDON      NM   R$  000000000031200000000003210000000000306000000000031200000000003080000000000307000000000030810301000000000009182900000000002872277400000000000000009999123100000010000000000000BRPCARACNOR3167
012024071702PETZ3       010PETZ        ON      NM   R$  000000000040500000000004150000000000403000000000040800000000004080000000000407000000000040907172000000000005825500000000002379589900000000000000009999123100000010000000000000BRPETZACNOR2110
012024071702REDE3       010REDE ENERGIAON           R$  000000000070500000000007060000000000697000000000070000000000006980000000000695000000000069900017000000000000002100000000000001471600000000000000009999123100000010000000000000BRREDEACNOR7128
012024071702RENT3       010LOCALIZA    ON      NM   R$  000000000460000000000046230000000004501000000000453800000000045130000000004511000000000451521220000000000004662200000000021158357800000000000000009999123100000010000000000000BRRENTACNOR4196
012024071702STBP3       010SANTOS BRP  ON      NM   R$  000000000143300000000014580000000001427000000000144800000000014510000000001450000000000145112116000000000014534700000000021047908600000000000000009999123100000010000000000000BRSTBPACNOR3130
012024071702SUZB3       010SUZANO S.A. ON      NM   R$  000000000539100000000054920000000005386000000000543000000000054170000000005413000000000541817930000000000005182800000000028144732200000000000000009999123100000010000000000000BRSUZBACNOR0130
012024071702MDIA3       010M.DIASBRANCOON      NM   R$  000000000279900000000028730000000002799000000000283900000000028730000000002873000000000287402732000000000000697000000000001979304700000000000000009999123100000010000000000000BRMDIAACNOR7135
012024071702MDNE3       010MOURA DUBEUXON      NM   R$  000000000137200000000013930000000001357000000000137500000000013770000000001368000000000137702383000000000000468800000000000644830800000000000000009999123100000010000000000000BRMDNEACNOR9100
012024071702MEAL3       010IMC S/A     ON      NM   R$  000000000016000000000001610000000000150000000000015400000000001520000000000152000000000015300865000000000001422800000000000220091000000000000000009999123100000010000000000000BRMEALACNOR9105
012024071702MELK3       010MELNICK     ON      NM   R$  000000000038000000000003860000000000372000000000037600000000003730000000000373000000000037700311000000000000150200000000000056500900000000000000009999123100000010000000000000BRMELKACNOR8111
012024071702MGEL4       010MANGELS INDLPN           R$  000000000135000000000013500000000001350000000000135000000000013500000000001316000000000139700001000000000000000300000000000000405000000000000000009999123100000010000000000000BRMGELACNPR3147
012024071702MGLU3       010MAGAZ LUIZA ON      NM   R$  000000000136000000000013870000000001336000000000135800000000013460000000001346000000000134720213000000000018666300000000025361994800000000000000009999123100000010000000000000BRMGLUACNOR2124
012024071702ATOM3       010ATOMPAR     ON           R$  000000000020100000000002040000000000200000000000020100000000002020000000000200000000000020200014000000000000006200000000000001247600000000000000009999123100000010000000000000BRATOMACNOR1106
012024071702AURE3       010AUREN       ON      NM   R$  000000000125000000000012550000000001242000000000124600000000012440000000001244000000000124505566000000000001841400000000002295261900000000000000009999123100000010000000000000BRAUREACNOR9104
012024071702AVLL3       010ALPHAVILLE  ON      NM   R$  000000000033100000000003360000000000331000000000033400000000003350000000000331000000000034100015000000000000021600000000000007235300000000000000009999123100000010000000000000BRAVLLACNOR5103
012024071702AZEV3       010AZEVEDO     ON           R$  000000000017800000000001800000000000164000000000017100000000001650000000000165000000000016800677000000000000740900000000000127011600000000000000009999123100000010000000000000BRAZEVACNOR0121
012024071702AZEV4       010AZEVEDO     PN           R$  000000000017900000000001810000000000162000000000017000000000001650000000000164000000000016502601000000000005317700000000000904873700000000000000009999123100000010000000000000BRAZEVACNPR7121
012024071702AZUL4       010AZUL        PN      N2   R$  000000000089900000000009180000000000889000000000090200000000008890000000000888000000000088909357000000000011443100000000010322418900000000000000009999123100000010000000000000BRAZULACNPR4102
012024071702CMIG3       010CEMIG       ON      N1   R$  000000000134000000000013740000000001326000000000135300000000013610000000001361000000000137000871000000000000150500000000000203735000000000000000009999123100000010000000000000BRCMIGACNOR6242
012024071702ROMI3       010ROMI        ON      NM   R$  000000000109400000000011120000000001070000000000109900000000011080000000001100000000000110801855000000000000394400000000000433518300000000000000009999123100000010000000000000BRROMIACNOR8195
012024071702RPAD5       010ALFA HOLDINGPNA          R$  000000000086000000000008600000000000860000000000086000000000008600000000000852000000000086000002000000000000000200000000000000172000000000000000009999123100000010000000000000BRRPADACNPA4218
012024071702ORVR3       010ORIZON      ON      NM   R$  000000000424900000000042790000000004156000000000425000000000042780000000004262000000000427903714000000000000949700000000004037140600000000000000009999123100000010000000000000BRORVRACNOR0101
012024071702CMIG4       010CEMIG       PN      N1   R$  000000000109500000000011310000000001093000000000111400000000011180000000001117000000000111922109000000000015296400000000017047823200000000000000009999123100000010000000000000BRCMIGACNPR3243
012024071702CMIN3       010CSNMINERACAOON      N2   R$  000000000054200000000005450000000000538000000000054100000000005390000000000539000000000054006880000000000004537400000000002457286100000000000000009999123100000010000000000000BRCMINACNOR2111
012024071702DASA3       010DASA        ON      NM   R$  000000000038500000000003950000000000370000000000038100000000003700000000000370000000000037102207000000000001385600000000000528000900000000000000009999123100000010000000000000BRDASAACNOR1122
012024071702SANB11      010SANTANDER BRUNT          R$  000000000286100000000029150000000002853000000000289400000000029070000000002905000000000290711023000000000003648500000000010560385300000000000000009999123100000010000000000000BRSANBCDAM13164
012024071702SANB3       010SANTANDER BRON           R$  000000000135300000000013830000000001351000000000137400000000013790000000001378000000000137900622000000000000121300000000000166734100000000000000009999123100000010000000000000BRSANBACNOR8171
012024071702SANB4       010SANTANDER BRPN           R$  000000000150000000000015300000000001498000000000151800000000015270000000001523000000000152700581000000000000102300000000000155357300000000000000009999123100000010000000000000BRSANBACNPR5171
012024071702SAPR11      010SANEPAR     UNT     N2   R$  000000000270100000000027470000000002697000000000271600000000026980000000002698000000000271202962000000000000596900000000001621190000000000000000009999123100000010000000000000BRSAPRCDAM13118
012024071702SAPR3       010SANEPAR     ON      N2   R$  000000000051500000000005210000000000513000000000051700000000005150000000000514000000000051600334000000000000196200000000000101444100000000000000009999123100000010000000000000BRSAPRACNOR9159
012024071702VITT3       010VITTIA      ON      NM   R$  000000000062500000000006370000000000617000000000062800000000006240000000000624000000000062901248000000000000176300000000000110791500000000000000009999123100000010000000000000BRVITTACNOR4107
012024071702TAEE11      010TAESA       UNT     N2   R$  000000000353100000000035310000000003507000000000351700000000035100000000003510000000000351704464000000000000728700000000002563036200000000000000009999123100000010000000000000BRTAEECDAM10147
012024071702TFCO4       010TRACK FIELD PN      N2   R$  000000000112300000000011500000000001123000000000114200000000011500000000001143000000000115000214000000000000166700000000000190489800000000000000009999123100000010000000000000BRTFCOACNPR8114
012024071702TGMA3       010TEGMA       ON      NM   R$  000000000258200000000026210000000002571000000000260000000000025990000000002593000000000259901084000000000000257600000000000669975400000000000000009999123100000010000000000000BRTGMAACNOR7144
012024071702TIMS3       010TIM         ON      NM   R$  000000000168900000000017140000000001684000000000170300000000017040000000001703000000000170613601000000000004404500000000007501661000000000000000009999123100000010000000000000BRTIMSACNOR5117
012024071702TOTS3       010TOTVS       ON      NM   R$  000000000285600000000029070000000002849000000000288700000000028930000000002882000000000289513856000000000002400200000000006930882800000000000000009999123100000010000000000000BRTOTSACNOR8144
012024071702TPIS3       010TRIUNFO PARTON      NM   R$  000000000039200000000003920000000000385000000000038600000000003870000000000386000000000038900030000000000000005300000000000002048000000000000000009999123100000010000000000000BRTPISACNOR8118
012024071702TRAD3       010TC          ON      NM   R$  000000000006300000000000650000000000060000000000006200000000000640000000000063000000000006400085000000000000155300000000000009663900000000000000009999123100000010000000000000BRTRADACNOR3101
012024071702TRIS3       010TRISUL      ON      NM   R$  000000000052500000000005250000000000509000000000051500000000005200000000000516000000000052000892000000000000516000000000000265884300000000000000009999123100000010000000000000BRTRISACNOR4118
012024071702TRPL3       010TRAN PAULISTON      N1   R$  000000000325900000000032780000000003250000000000326000000000032500000000003240000000000326700029000000000000005400000000000017605200000000000000009999123100000010000000000000BRTRPLACNOR4185
012024071702TRPL4       010TRAN PAULISTPN      N1   R$  000000000262000000000026400000000002580000000000260000000000026060000000002605000000000260913149000000000002653600000000006901068800000000000000009999123100000010000000000000BRTRPLACNPR1185
012024071702VAMO3       010VAMOS       ON      NM   R$  000000000092800000000009350000000000915000000000092700000000009280000000000928000000000092913635000000000006623200000000006146040400000000000000009999123100000010000000000000BRVAMOACNOR7105
012024071702MATD3       010MATER DEI   ON      NM   R$  000000000048300000000004870000000000480000000000048200000000004870000000000482000000000048700690000000000000894500000000000431440400000000000000009999123100000010000000000000BRMATDACNOR4104
012024071702ODPV3       010ODONTOPREV  ON      NM   R$  000000000122400000000012240000000001197000000000120400000000011970000000001196000000000120506127000000000001244800000000001499267400000000000000009999123100000010000000000000BRODPVACNOR4202
012024071702OFSA3       010OUROFINO S/AON      NM   R$  000000000190200000000019020000000001902000000000190200000000019020000000001902000000000191600008000000000000003500000000000006657000000000000000009999123100000010000000000000BROFSAACNOR7118
012024071702ONCO3       010ONCOCLINICASON      NM   R$  000000000074000000000007490000000000725000000000073400000000007250000000000725000000000073007724000000000003050400000000002239364700000000000000009999123100000010000000000000BRONCOACNOR6101
012024071702OPCT3       010OCEANPACT   ON      NM   R$  000000000068500000000006910000000000675000000000068100000000006790000000000675000000000067902323000000000000527600000000000359797900000000000000009999123100000010000000000000BROPCTACNOR0100
012024071702VIVA3       010VIVARA S.A. ON      NM   R$  000000000234100000000023850000000002336000000000235700000000023480000000002347000000000235107908000000000001805200000000004255487600000000000000009999123100000010000000000000BRVIVAACNOR0107
012024071702VIVR3       010VIVER       ON      NM   R$  000000000025000000000002530000000000242000000000024700000000002420000000000242000000000024700069000000000000081700000000000020201600000000000000009999123100000010000000000000BRVIVRACNOR4123
012024071702VIVT3       010TELEF BRASILON           R$  000000000489300000000050060000000004890000000000497500000000049870000000004975000000000498709405000000000002634300000000013106454000000000000000009999123100000010000000000000BRVIVTACNOR0182
012024071702VLID3       010VALID       ON      NM   R$  000000000161200000000016560000000001608000000000163300000000016510000000001650000000000165103523000000000000606000000000000989622300000000000000009999123100000010000000000000BRVLIDACNOR5143
012024071702PLAS3       010PLASCAR PARTON           R$  000000000055200000000005520000000000552000000000055200000000005520000000000560000000000059700002000000000000000200000000000000110400000000000000009999123100000010000000000000BRPLASACNOR2106
012024071702PLPL3       010PLANOEPLANO ON      NM   R$  000000000109900000000011500000000001095000000000112200000000011500000000001150000000000115104450000000000001763800000000001979249600000000000000009999123100000010000000000000BRPLPLACNOR5104
012024071702PNVL3       010DIMED       ON      NM   R$  000000000103500000000010390000000001025000000000103200000000010280000000001028000000000103502130000000000000598400000000000617934700000000000000009999123100000010000000000000BRPNVLACNOR9207
012024071702POMO3       010MARCOPOLO   ON      N2   R$  000000000052100000000005380000000000513000000000052900000000005380000000000530000000000053800370000000000000120400000000000063731000000000000000009999123100000010000000000000BRPOMOACNOR0098
012024071702POMO4       010MARCOPOLO   PN      N2   R$  000000000065800000000006910000000000657000000000068200000000006870000000000686000000000068715518000000000006478600000000004423020100000000000000009999123100000010000000000000BRPOMOACNPR7098
012024071702NEOE3       010NEOENERGIA  ON      NM   R$  000000000186100000000019020000000001861000000000188600000000018990000000001890000000000190004618000000000001240900000000002341254300000000000000009999123100000010000000000000BRNEOEACNOR3123
012024071702NGRD3       010NEOGRID     ON      NM   R$  000000000010900000000001180000000000109000000000011400000000001130000000000113000000000011401417000000000001765800000000000202922100000000000000009999123100000010000000000000BRNGRDACNOR3104
012024071702NINJ3       010GETNINJAS   ON      NM   R$  000000000046800000000004680000000000454000000000045600000000004600000000000433000000000046000033000000000000007300000000000003335000000000000000009999123100000010000000000000BRNINJACNOR5101
012024071702DESK3       010DESKTOP     ON      NM   R$  000000000155200000000015880000000001545000000000157100000000015720000000001572000000000157300353000000000000152400000000000239501600000000000000009999123100000010000000000000BRDESKACNOR2104
012024071702DEXP3       010DEXXOS PAR  ON      N1   R$  000000000104500000000010490000000001033000000000104000000000010430000000001036000000000104300173000000000000039300000000000040882200000000000000009999123100000010000000000000BRDEXPACNOR1105
012024071702DEXP4       010DEXXOS PAR  PN      N1   R$  000000000102400000000010250000000001023000000000102400000000010240000000001011000000000102900014000000000000009600000000000009833300000000000000009999123100000010000000000000BRDEXPACNPR8105
012024071702DIRR3       010DIRECIONAL  ON      NM   R$  000000000276600000000028340000000002766000000000281500000000028330000000002831000000000283307499000000000001349300000000003799131700000000000000009999123100000010000000000000BRDIRRACNOR0118
012024071702FRAS3       010FRAS-LE     ON      N1   R$  000000000203400000000020500000000002014000000000203100000000020500000000002050000000000205101413000000000000419400000000000851992900000000000000009999123100000010000000000000BRFRASACNOR0159
012024071702GEPA3       010GER PARANAP ON           R$  000000000260000000000026000000000002600000000000260000000000026000000000002502000000000264900002000000000000000300000000000000780000000000000000009999123100000010000000000000BRGEPAACNOR2153
012024071702NORD3       010NORDON MET  ON           R$  000000000059500000000005950000000000540000000000056100000000005700000000000568000000000061800011000000000000001500000000000000842500000000000000009999123100000010000000000000BRNORDACNOR7135
012024071702NTCO3       010GRUPO NATURAON      NM   R$  000000000157600000000015900000000001547000000000157600000000015870000000001584000000000158815190000000000004522900000000007131084300000000000000009999123100000010000000000000BRNTCOACNOR5106
012024071702RAPT3       010RANDON PART ON      N1   R$  000000000102000000000010400000000001015000000000102600000000010400000000001040000000000104100190000000000000043700000000000044845300000000000000009999123100000010000000000000BRRAPTACNOR7162
012024071702RAPT4       010RANDON PART PN      N1   R$  000000000122000000000012520000000001212000000000123900000000012350000000001235000000000123704538000000000001600500000000001983674000000000000000009999123100000010000000000000BRRAPTACNPR4162
012024071702PORT3       010WILSON SONS ON  ED  NM   R$  000000000158100000000016010000000001576000000000159100000000016010000000001595000000000160200868000000000000164300000000000261557900000000000000009999123100000010000000000000BRPORTACNOR8109
012024071702POSI3       010POSITIVO TECON      NM   R$  000000000079800000000008000000000000774000000000078100000000007810000000000780000000000078205452000000000001921700000000001502444100000000000000009999123100000010000000000000BRPOSIACNOR9116
012024071702PRIO3       010PETRORIO    ON  ATZ NM   R$  000000000458000000000046170000000004562000000000458800000000046170000000004613000000000461711978000000000004112300000000018870071100000000000000009999123100000010000000000000BRPRIOACNOR1107
012024071702RSUL4       010RIOSULENSE  PN           R$  000000000687900000000068790000000006500000000000665600000000065000000000006500000000000670000073000000000000009300000000000061904500000000000000009999123100000010000000000000BRRSULACNPR3114
012024071702TAEE3       010TAESA       ON      N2   R$  000000000116800000000011680000000001159000000000116300000000011620000000001162000000000116500441000000000000064800000000000075373700000000000000009999123100000010000000000000BRTAEEACNOR9147
012024071702TAEE4       010TAESA       PN      N2   R$  000000000118300000000011830000000001175000000000117900000000011790000000001179000000000118200732000000000000151600000000000178787500000000000000009999123100000010000000000000BRTAEEACNPR6147
012024071702TASA3       010TAURUS ARMASON      N2   R$  000000000127200000000012750000000001260000000000126800000000012730000000001273000000000127600029000000000000006300000000000007992000000000000000009999123100000010000000000000BRTASAACNOR7104
012024071702TASA4       010TAURUS ARMASPN      N2   R$  000000000126000000000012740000000001255000000000126700000000012710000000001266000000000127100773000000000000118100000000000149703300000000000000009999123100000010000000000000BRTASAACNPR4104
012024071702TCSA3       010TECNISA     ON      NM   R$  000000000023200000000002380000000000227000000000023100000000002280000000000229000000000023000141000000000000043900000000000010172900000000000000009999123100000010000000000000BRTCSAACNOR3112
012024071702TECN3       010TECHNOS     ON      NM   R$  000000000060600000000006190000000000598000000000061300000000006070000000000607000000000061402317000000000001281300000000000785724700000000000000009999123100000010000000000000BRTECNACNOR6109
012024071702TELB3       010TELEBRAS    ON           R$  000000000138500000000014000000000001336000000000137300000000014000000000001360000000000140700017000000000000001700000000000002334200000000000000009999123100000010000000000000BRTELBACNOR2140
012024071702TELB4       010TELEBRAS    PN           R$  000000000095500000000009550000000000930000000000094000000000009500000000000949000000000095000034000000000000004900000000000004607400000000000000009999123100000010000000000000BRTELBACNPR9140
012024071702TEND3       010TENDA       ON      NM   R$  000000000128900000000013120000000001275000000000128900000000012940000000001290000000000129404447000000000003256500000000004197853600000000000000009999123100000010000000000000BRTENDACNOR4111
012024071702TTEN3       0103TENTOS     ON      NM   R$  000000000108800000000010960000000001080000000000109000000000010900000000001088000000000109002424000000000000316300000000000344930400000000000000009999123100000010000000000000BRTTENACNOR0103
012024071702TUPY3       010TUPY        ON      NM   R$  000000000257200000000026800000000002572000000000264600000000026540000000002654000000000267504696000000000000875800000000002317809700000000000000009999123100000010000000000000BRTUPYACNOR1184
012024071702FIQE3       010UNIFIQUE    ON      NM   R$  000000000034100000000003420000000000338000000000034000000000003420000000000340000000000034200732000000000000627100000000000213231200000000000000009999123100000010000000000000BRFIQEACNOR5107
012024071702FLRY3       010FLEURY      ON      NM   R$  000000000156300000000015730000000001533000000000155800000000015600000000001560000000000156810886000000000002168700000000003379664900000000000000009999123100000010000000000000BRFLRYACNOR5138
012024071702AMAR3       010LOJAS MARISAON      NM   R$  000000000014700000000001480000000000144000000000014500000000001460000000000145000000000014600544000000000000508000000000000074055300000000000000009999123100000010000000000000BRAMARACNOR4115
012024071702AMBP3       010AMBIPAR     ON      NM   R$  000000000229800000000024290000000002277000000000237600000000024000000000002398000000000240009801000000000004266800000000010141972900000000000000009999123100000010000000000000BRAMBPACNOR6103
012024071702ANIM3       010ANIMA       ON      NM   R$  000000000038000000000003830000000000370000000000037500000000003740000000000372000000000037407482000000000003849400000000001443997600000000000000009999123100000010000000000000BRANIMACNOR6107
012024071702ARML3       010ARMAC       ON      NM   R$  000000000103900000000010430000000001005000000000101800000000010140000000001007000000000101503707000000000000890500000000000906540500000000000000009999123100000010000000000000BRARMLACNOR1112
012024071702ARZZ3       010AREZZO CO   ON  ED  NM   R$  000000000536700000000054150000000005319000000000537900000000053900000000005383000000000539605979000000000000996600000000005361562900000000000000009999123100000010000000000000BRARZZACNOR3147
012024071702BBDC3       010BRADESCO    ON      N1   R$  000000000115800000000011720000000001154000000000116400000000011720000000001170000000000117207111000000000005025400000000005851458200000000000000009999123100000010000000000000BRBBDCACNOR1772
012024071702BBDC4       010BRADESCO    PN      N1   R$  000000000126400000000012800000000001261000000000127200000000012800000000001279000000000128029250000000000023144800000000029443680200000000000000009999123100000010000000000000BRBBDCACNPR8772
012024071702BRSR3       010BANRISUL    ON      N1   R$  000000000126700000000012700000000001261000000000126400000000012610000000001261000000000126600019000000000000002700000000000003413400000000000000009999123100000010000000000000BRBRSRACNOR3188
012024071702UCAS3       010UNICASA     ON      NM   R$  000000000023900000000002410000000000232000000000023600000000002390000000000235000000000023900208000000000000073000000000000017240400000000000000009999123100000010000000000000BRUCASACNOR1113
012024071702UGPA3       010ULTRAPAR    ON      NM   R$  000000000226800000000023230000000002250000000000230300000000023210000000002318000000000232222472000000000004324100000000009960803600000000000000009999123100000010000000000000BRUGPAACNOR8155
012024071702VBBR3       010VIBRA       ON      NM   R$  000000000227500000000023380000000002272000000000232300000000023310000000002331000000000233416248000000000004537000000000010539574900000000000000009999123100000010000000000000BRVBBRACNOR1108
012024071702PDGR3       010PDG REALT   ON      NM   R$  000000000001900000000000200000000000018000000000001900000000000190000000000018000000000001900379000000000001557500000000000029917200000000000000009999123100000010000000000000BRPDGRACNOR8118
012024071702BIOM3       010BIOMM       ON      MA   R$  000000000128400000000013080000000001247000000000128000000000012670000000001267000000000127600455000000000000107900000000000138152800000000000000009999123100000010000000000000BRBIOMACNOR2112
012024071702SAPR4       010SANEPAR     PN      N2   R$  000000000054800000000005540000000000547000000000055000000000005480000000000548000000000054901720000000000000678500000000000373549500000000000000009999123100000010000000000000BRSAPRACNPR6159
012024071702UNIP3       010UNIPAR      ON           R$  000000000511000000000051290000000005104000000000512300000000051280000000005116000000000512800019000000000000002000000000000010246800000000000000009999123100000010000000000000BRUNIPACNOR7206
012024071702UNIP5       010UNIPAR      PNA          R$  000000000515200000000051520000000005053000000000511900000000051400000000005088000000000519900016000000000000003900000000000019964200000000000000009999123100000010000000000000BRUNIPACNPA0208
012024071702UNIP6       010UNIPAR      PNB          R$  000000000518000000000052080000000005144000000000517800000000051810000000005179000000000518100639000000000000088600000000000458790300000000000000009999123100000010000000000000BRUNIPACNPB8206
012024071702USIM3       010USIMINAS    ON      N1   R$  000000000075900000000008020000000000757000000000078900000000007980000000000795000000000079801282000000000000365900000000000288912200000000000000009999123100000010000000000000BRUSIMACNOR3167
012024071702USIM5       010USIMINAS    PNA     N1   R$  000000000080400000000008550000000000804000000000083900000000008550000000000854000000000085516471000000000015980700000000013421716300000000000000009999123100000010000000000000BRUSIMACNPA6169
012024071702BRSR6       010BANRISUL    PNB     N1   R$  000000000119200000000012050000000001185000000000119900000000011970000000001197000000000120002969000000000000771900000000000925953400000000000000009999123100000010000000000000BRBRSRACNPB4191
012024071702BSLI3       010BRB BANCO   ON           R$  000000000096900000000009690000000000959000000000096400000000009590000000000959000000000099900005000000000000000600000000000000578700000000000000009999123100000010000000000000BRBSLIACNOR5194
012024071702BSLI4       010BRB BANCO   PN           R$  000000000100100000000010010000000000980000000000099000000000009800000000000981000000000104100004000000000000001000000000000000990600000000000000009999123100000010000000000000BRBSLIACNPR2194
012024071702BLAU3       010BLAU        ON      NM   R$  000000000123000000000012470000000001164000000000122100000000012050000000001200000000000120501637000000000000225100000000000274937400000000000000009999123100000010000000000000BRBLAUACNOR8114
012024071702BRBI11      010BR PARTNERS UNT     N2   R$  000000000145500000000014750000000001455000000000146800000000014650000000001464000000000147800717000000000000226300000000000332232400000000000000009999123100000010000000000000BRBRBICDAM10109
012024071702BRFS3       010BRF SA      ON      NM   R$  000000000225500000000022840000000002238000000000225600000000022590000000002259000000000226010519000000000003136500000000007078299400000000000000009999123100000010000000000000BRBRFSACNOR8122
012024071702CRPG5       010CRISTAL     PNA          R$  000000000297700000000030270000000002951000000000297700000000029510000000002925000000000298400006000000000000000600000000000001786700000000000000009999123100000010000000000000BRCRPGACNPA3119
012024071702CSAN3       010COSAN       ON      NM   R$  000000000143400000000014450000000001426000000000143200000000014300000000001429000000000143013282000000000011602000000000016617437300000000000000009999123100000010000000000000BRCSANACNOR6126
012024071702ELMD3       010ELETROMIDIA ON      NM   R$  000000000181900000000018880000000001819000000000186800000000018680000000001845000000000186800372000000000000104900000000000195989600000000000000009999123100000010000000000000BRELMDACNOR3101
012024071702EMAE4       010EMAE        PN           R$  000000000508100000000050810000000005040000000000506800000000050730000000004800000000000507300004000000000000000400000000000002027200000000000000009999123100000010000000000000BREMAEACNPR1125
012024071702EMBR3       010EMBRAER     ON      NM   R$  000000000408900000000041380000000004024000000000406200000000040450000000004036000000000404624827000000000005735900000000023300270200000000000000009999123100000010000000000000BREMBRACNOR4191
012024071702CAMB3       010CAMBUCI     ON           R$  000000000112000000000011700000000001102000000000114500000000011460000000001135000000000115800265000000000000039800000000000045576700000000000000009999123100000010000000000000BRCAMBACNOR4130
012024071702CAML3       010CAMIL       ON      NM   R$  000000000090500000000009200000000000893000000000090800000000009030000000000903000000000090602353000000000000508500000000000461962700000000000000009999123100000010000000000000BRCAMLACNOR3128
012024071702CASH3       010MELIUZ      ON      NM   R$  000000000061400000000006280000000000606000000000061800000000006260000000000619000000000062602474000000000001582100000000000978463500000000000000009999123100000010000000000000BRCASHACNOR8106
012024071702CBAV3       010CBA         ON      NM   R$  000000000072600000000007420000000000690000000000071000000000006940000000000694000000000069509388000000000004786200000000003399371600000000000000009999123100000010000000000000BRCBAVACNOR5104
012024071702CSRN3       010COSERN      ON           R$  000000000228900000000023000000000002289000000000229300000000022990000000002155000000000229900004000000000000000500000000000001146800000000000000009999123100000010000000000000BRCSRNACNOR0193
012024071702CSUD3       010CSU DIGITAL ON      NM   R$  000000000205000000000020760000000002028000000000205200000000020700000000002033000000000207300174000000000000023300000000000047831500000000000000009999123100000010000000000000BRCSUDACNOR5110
012024071702CURY3       010CURY S/A    ON      NM   R$  000000000216900000000022190000000002166000000000219100000000021770000000002177000000000218409743000000000001754100000000003843924900000000000000009999123100000010000000000000BRCURYACNOR3109
012024071702CVCB3       010CVC BRASIL  ON      NM   R$  000000000020600000000002090000000000194000000000019900000000001960000000000195000000000019611290000000000017014300000000003398600500000000000000009999123100000010000000000000BRCVCBACNOR1116
012024071702RCSL3       010RECRUSUL    ON           R$  000000000029300000000002960000000000282000000000028600000000002820000000000282000000000028500262000000000000216600000000000062062900000000000000009999123100000010000000000000BRRCSLACNOR4134
012024071702RCSL4       010RECRUSUL    PN           R$  000000000011300000000001140000000000108000000000011000000000001090000000000108000000000010900495000000000000601100000000000066286700000000000000009999123100000010000000000000BRRCSLACNPR1134
012024071702HYPE3       010HYPERA      ON      NM   R$  000000000288000000000029140000000002853000000000288700000000028780000000002876000000000288018749000000000004395900000000012692091300000000000000009999123100000010000000000000BRHYPEACNOR0142
012024071702JALL3       010JALLESMACHADON      NM   R$  000000000076100000000007710000000000757000000000076200000000007660000000000760000000000076701947000000000000320600000000000244416100000000000000009999123100000010000000000000BRJALLACNOR0105
012024071702JBSS3       010JBS         ON      NM   R$  000000000318500000000032430000000003160000000000321900000000032240000000003223000000000322413054000000000005299700000000017063953100000000000000009999123100000010000000000000BRJBSSACNOR8121
012024071702EQMA3B      010EQTLMARANHAOON      MB   R$  000000000254900000000025500000000002549000000000254900000000025490000000002525000000000254900005000000000000002400000000000006119500000000000000009999123100000010000000000000BREQMAACNOR8108
012024071702EQPA3       010EQTL PARA   ON           R$  000000000073900000000007590000000000739000000000075100000000007590000000000750000000000075800005000000000000000500000000000000375500000000000000009999123100000010000000000000BREQPAACNOR1111
012024071702EQPA6       010EQTL PARA   PNB          R$  000000000080000000000008000000000000800000000000080000000000008000000000000730000000000100400001000000000000000100000000000000080000000000000000009999123100000010000000000000BREQPAACNPB2111
012024071702EQTL3       010EQUATORIAL  ON      NM   R$  000000000335300000000033800000000003306000000000334800000000033370000000003337000000000334020035000000000007330800000000024549263100000000000000009999123100000010000000000000BREQTLACNOR0130
012024071702ESPA3       010ESPACOLASER ON      NM   R$  000000000010600000000001070000000000105000000000010500000000001070000000000106000000000010700409000000000000514600000000000054361700000000000000009999123100000010000000000000BRESPAACNOR7103
012024071702ESTR4       010ESTRELA     PN           R$  000000000019000000000001910000000000190000000000019000000000001910000000000190000000000019100002000000000000000800000000000000152600000000000000009999123100000010000000000000BRESTRACNPR0144
012024071702EUCA3       010EUCATEX     ON      N1   R$  000000000171000000000017520000000001710000000000173400000000017400000000001720000000000174000009000000000000001400000000000002428200000000000000009999123100000010000000000000BREUCAACNOR1157
012024071702RDNI3       010RNI         ON      NM   R$  000000000031400000000003160000000000311000000000031400000000003160000000000311000000000031600013000000000000001700000000000000533800000000000000009999123100000010000000000000BRRDNIACNOR9116
012024071702RDOR3       010REDE D OR   ON      NM   R$  000000000297500000000029800000000002918000000000294300000000029180000000002917000000000292511141000000000003660200000000010773068100000000000000009999123100000010000000000000BRRDORACNOR8113
012024071702RECV3       010PETRORECSA  ON      NM   R$  000000000211400000000021450000000002104000000000213200000000021270000000002127000000000213404371000000000001308600000000002790669600000000000000009999123100000010000000000000BRRECVACNOR3107
012024071702SMFT3       010SMART FIT   ON      NM   R$  000000000227500000000023140000000002258000000000228100000000022800000000002262000000000228108607000000000002501400000000005705902800000000000000009999123100000010000000000000BRSMFTACNOR1112
012024071702SMTO3       010SAO MARTINHOON      NM   R$  000000000328300000000032870000000003223000000000324100000000032280000000003227000000000322805984000000000001030400000000003339634700000000000000009999123100000010000000000000BRSMTOACNOR3126
012024071702AALR3       010ALLIAR      ON      NM   R$  000000000123200000000012680000000001195000000000123900000000012610000000001241000000000126200406000000000000068400000000000084806500000000000000009999123100000010000000000000BRAALRACNOR6102
012024071702ABCB4       010ABC BRASIL  PN      N2   R$  000000000230200000000023070000000002271000000000228600000000022960000000002287000000000229704338000000000000649100000000001484278500000000000000009999123100000010000000000000BRABCBACNPR4146
012024071702EUCA4       010EUCATEX     PN      N1   R$  000000000162500000000016450000000001624000000000163600000000016450000000001626000000000164500106000000000000020500000000000033538700000000000000009999123100000010000000000000BREUCAACNPR8044
012024071702IFCM3       010INFRACOMM   ON      NM   R$  000000000003800000000000390000000000037000000000003700000000000370000000000037000000000003803652000000000010032300000000000379634500000000000000009999123100000010000000000000BRIFCMACNOR8101
012024071702IGTI11      010IGUATEMI S.AUNT     N1   R$  000000000219700000000022000000000002163000000000217300000000021680000000002168000000000217111013000000000002548700000000005540370200000000000000009999123100000010000000000000BRIGTICDAM16106
012024071702IGTI3       010IGUATEMI S.AON      N1   R$  000000000027200000000002770000000000267000000000027100000000002750000000000271000000000027500320000000000000087000000000000023577700000000000000009999123100000010000000000000BRIGTIACNOR8106
012024071702IGTI4       010IGUATEMI S.APN      N1   R$  000000000095600000000009560000000000956000000000095600000000009560000000000900000000000108500001000000000000000100000000000000095600000000000000009999123100000010000000000000BRIGTIACNPR5106
012024071702INEP3       010INEPAR      ON           R$  000000000019300000000001930000000000184000000000018600000000001870000000000186000000000018900120000000000000054800000000000010242500000000000000009999123100000010000000000000BRINEPACNOR1143
012024071702INEP4       010INEPAR      PN           R$  000000000018800000000001880000000000181000000000018300000000001820000000000181000000000018500082000000000000025500000000000004679000000000000000009999123100000010000000000000BRINEPACNPR8143
012024071702SNSY3       010SANSUY      ON           R$  000000000127500000000012750000000001275000000000127500000000012750000000001235000000000127500001000000000000000100000000000000127500000000000000009999123100000010000000000000BRSNSYACNOR2113
012024071702SNSY5       010SANSUY      PNA          R$  000000000057900000000005940000000000579000000000058100000000005940000000000572000000000058900004000000000000001200000000000000697300000000000000009999123100000010000000000000BRSNSYACNPA5111
012024071702SOJA3       010BOA SAFRA   ON      NM   R$  000000000157700000000015770000000001549000000000155400000000015510000000001551000000000155303552000000000000502900000000000781749800000000000000009999123100000010000000000000BRSOJAACNOR9105
012024071702SOMA3       010GRUPO SOMA  ON      NM   R$  000000000064000000000006450000000000634000000000064000000000006410000000000640000000000064109677000000000005049100000000003233949100000000000000009999123100000010000000000000BRSOMAACNOR3102
012024071702SRNA3       010SERENA      ON      NM   R$  000000000092300000000009340000000000913000000000092500000000009260000000000925000000000092704044000000000001505400000000001393553100000000000000009999123100000010000000000000BRSRNAACNOR4100
012024071702ABEV3       010AMBEV S/A   ON  ATZ      R$  000000000117100000000011910000000001166000000000118400000000011820000000001182000000000118321598000000000030589900000000036219654100000000000000009999123100000010000000000000BRABEVACNOR1128
012024071702BAHI3       010BAHEMA      ON      MA   R$  000000000066500000000006900000000000640000000000064900000000006500000000000640000000000065000032000000000000012500000000000008114300000000000000009999123100000010000000000000BRBAHIACNOR1074
012024071702BALM4       010BAUMER      PN           R$  000000000102500000000010250000000001025000000000102500000000010250000000001005000000000103000002000000000000000200000000000000205000000000000000009999123100000010000000000000BRBALMACNPR2056
012024071702BAUH4       010EXCELSIOR   PN           R$  000000000775100000000079490000000007751000000000788300000000079490000000007750000000000795000003000000000000000300000000000002364900000000000000009999123100000010000000000000BRBAUHACNPR3118
012024071702BAZA3       010AMAZONIA    ON           R$  000000000987200000000099270000000009635000000000978900000000097850000000009635000000000978600013000000000000001400000000000013704900000000000000009999123100000010000000000000BRBAZAACNOR0179
012024071702BBAS3       010BRASIL      ON      NM   R$  000000000271500000000027390000000002697000000000272100000000027310000000002730000000000273228517000000000009615100000000026165092800000000000000009999123100000010000000000000BRBBASACNOR3324
012024071702BEES3       010BANESTES    ON           R$  000000000090400000000009100000000000902000000000090600000000009090000000000907000000000090900058000000000000007300000000000006615500000000000000009999123100000010000000000000BRBEESACNOR9393
012024071702BEES4       010BANESTES    PN           R$  000000000098200000000009820000000000975000000000097800000000009760000000000975000000000098000014000000000000001600000000000001564800000000000000009999123100000010000000000000BRBEESACNPR6318
012024071702INTB3       010INTELBRAS   ON      NM   R$  000000000225800000000022750000000002238000000000225100000000022470000000002246000000000224704177000000000000945600000000002129408500000000000000009999123100000010000000000000BRINTBACNOR9111
012024071702IRBR3       010IRBBRASIL REON      NM   R$  000000000321300000000032380000000003167000000000321100000000032340000000003234000000000323603227000000000000668200000000002146097400000000000000009999123100000010000000000000BRIRBRACNOR4111
012024071702BGIP4       010BANESE      PN           R$  000000000225000000000022500000000002250000000000225000000000022500000000002234000000000229800001000000000000000100000000000000225000000000000000009999123100000010000000000000BRBGIPACNPR8208
012024071702KRSA3       010KORA SAUDE  ON      NM   R$  000000000006800000000000700000000000068000000000006800000000000700000000000069000000000007000773000000000004484200000000000309344500000000000000009999123100000010000000000000BRKRSAACNOR0100
012024071702LAND3       010TERRASANTAPAON      NM   R$  000000000149300000000014950000000001445000000000145700000000014490000000001447000000000144900235000000000000026200000000000038188400000000000000009999123100000010000000000000BRLANDACNOR9103
012024071702LAVV3       010LAVVI       ON      NM   R$  000000000094000000000009630000000000928000000000094100000000009300000000000930000000000093502829000000000001424800000000001341888600000000000000009999123100000010000000000000BRLAVVACNOR4112
012024071702LEVE3       010METAL LEVE  ON      NM   R$  000000000340500000000034780000000003379000000000344100000000034760000000003471000000000347602041000000000000426900000000001469194900000000000000009999123100000010000000000000BRLEVEACNOR2197
012024071702B3SA3       010B3          ON      NM   R$  000000000115100000000011560000000001140000000000114700000000011490000000001148000000000114938083000000000032806900000000037640472300000000000000009999123100000010000000000000BRB3SAACNOR6133
012024071702BBSE3       010BBSEGURIDADEON      NM   R$  000000000342500000000034500000000003406000000000343500000000034470000000003442000000000344710398000000000003469600000000011919122100000000000000009999123100000010000000000000BRBBSEACNOR5124
012024071702COCE5       010COELCE      PNA          R$  000000000321300000000032130000000003152000000000317500000000032000000000003150000000000324200010000000000000001200000000000003810800000000000000009999123100000010000000000000BRCOCEACNPA3147
012024071702COGN3       010COGNA ON    ON      NM   R$  000000000018500000000001860000000000180000000000018200000000001810000000000180000000000018221301000000000018647200000000003409637600000000000000009999123100000010000000000000BRCOGNACNOR2104
012024071702DMVF3       010D1000VFARMA ON      NM   R$  000000000077500000000007900000000000771000000000077700000000007710000000000771000000000078200203000000000000054300000000000042222000000000000000009999123100000010000000000000BRDMVFACNOR9100
012024071702DOHL4       010DOHLER      PN           R$  000000000040500000000004190000000000403000000000040700000000004030000000000397000000000040000008000000000000001400000000000000569800000000000000009999123100000010000000000000BRDOHLACNPR9066
012024071702DOTZ3       010DOTZ SA     ON      NM   R$  000000000065000000000006770000000000646000000000065800000000006520000000000652000000000066600023000000000000006400000000000004214200000000000000009999123100000010000000000000BRDOTZACNOR7101
012024071702DXCO3       010DEXCO       ON      NM   R$  000000000070200000000007090000000000692000000000069700000000006930000000000693000000000069408078000000000002553400000000001781092000000000000000009999123100000010000000000000BRDXCOACNOR8105
012024071702EALT3       010ACO ALTONA  ON           R$  000000000108000000000010800000000001080000000000108000000000010800000000001034000000000108000001000000000000000100000000000000108000000000000000009999123100000010000000000000BREALTACNOR4138
012024071702EALT4       010ACO ALTONA  PN           R$  000000000112800000000011420000000001123000000000113300000000011420000000001129000000000114200013000000000000002600000000000002946100000000000000009999123100000010000000000000BREALTACNPR1138
012024071702ECOR3       010ECORODOVIAS ON      NM   R$  000000000074600000000007500000000000732000000000073900000000007440000000000741000000000074406964000000000002927800000000002164160800000000000000009999123100000010000000000000BRECORACNOR8120
012024071702EGIE3       010ENGIE BRASILON      NM   R$  000000000466400000000046750000000004625000000000465000000000046530000000004651000000000465404502000000000000881600000000004099593400000000000000009999123100000010000000000000BREGIEACNOR9126
012024071702ITUB3       010ITAUUNIBANCOON      N1   R$  000000000288900000000029300000000002875000000000291900000000029300000000002926000000000293001107000000000000293200000000000855886800000000000000009999123100000010000000000000BRITUBACNOR4338
012024071702ITUB4       010ITAUUNIBANCOPN      N1   R$  000000000337200000000034250000000003361000000000340300000000034160000000003415000000000341637499000000000016329000000000055576973100000000000000009999123100000010000000000000BRITUBACNPR1338
012024071702MBLY3       010MOBLY       ON      NM   R$  000000000025700000000002670000000000255000000000026000000000002620000000000260000000000026300518000000000000215800000000000056173900000000000000009999123100000010000000000000BRMBLYACNOR5100
012024071702VSTE3       010VESTE       ON      NM   R$  000000000141500000000014200000000001395000000000141200000000013950000000001395000000000141500045000000000000009900000000000013984100000000000000009999123100000010000000000000BRVSTEACNOR5103
012024071702VTRU3       010VITRUEDUCA  ON      NM   R$  000000000138100000000014050000000001300000000000133300000000013030000000001301000000000130300673000000000000215100000000000286912700000000000000009999123100000010000000000000BRVTRUACNOR3100
012024071702VULC3       010VULCABRAS   ON      NM   R$  000000000159000000000015970000000001575000000000158300000000015800000000001579000000000158701668000000000000312800000000000495190300000000000000009999123100000010000000000000BRVULCACNOR2159
012024071702VVEO3       010VIVEO       ON      NM   R$  000000000024800000000002530000000000238000000000024300000000002400000000000239000000000024003306000000000001644400000000000400193300000000000000009999123100000010000000000000BRVVEOACNOR0104
012024071702WEGE3       010WEG         ON      NM   R$  000000000468800000000047360000000004655000000000470600000000047050000000004705000000000470921580000000000005579100000000026260643500000000000000009999123100000010000000000000BRWEGEACNOR0223
012024071702YDUQ3       010YDUQS PART  ON      NM   R$  000000000119800000000012130000000001165000000000119100000000011900000000001187000000000119108701000000000003359400000000004001463600000000000000009999123100000010000000000000BRYDUQACNOR3105
012024071702MRFG3       010MARFRIG     ON      NM   R$  000000000121100000000012440000000001211000000000123300000000012340000000001233000000000123411986000000000003905100000000004817128500000000000000009999123100000010000000000000BRMRFGACNOR0116
012024071702MRSA3B      010MRS LOGIST  ON      MB   R$  000000000300000000000030000000000003000000000000300000000000030000000000003000000000000310000003000000000000000300000000000000900000000000000000009999123100000010000000000000BRMRSAACNOR6125
012024071702MRSA6B      010MRS LOGIST  PNB     MB   R$  000000000280000000000028000000000002800000000000280000000000028000000000002656000000000000000001000000000000000200000000000000560000000000000000009999123100000010000000000000BRMRSAACNPB7125
012024071702MRVE3       010MRV         ON      NM   R$  000000000070300000000007130000000000697000000000070300000000006990000000000698000000000069913626000000000007283000000000005121310100000000000000009999123100000010000000000000BRMRVEACNOR2127
012024071702ASAI3       010ASSAI       ON      NM   R$  000000000111000000000011170000000001075000000000109500000000010750000000001074000000000107613908000000000008121300000000008893560300000000000000009999123100000010000000000000BRASAIACNOR0106
012024071702CCRO3       010CCR SA      ON      NM   R$  000000000130000000000013000000000001288000000000129200000000012940000000001294000000000129506473000000000002528300000000003268933700000000000000009999123100000010000000000000BRCCROACNOR2145
012024071702CEAB3       010CEA MODAS   ON      NM   R$  000000000101700000000010280000000000977000000000099300000000009860000000000985000000000098706770000000000002370500000000002355524900000000000000009999123100000010000000000000BRCEABACNOR1102
012024071702CEBR3       010CEB         ON           R$  000000000209300000000021380000000002070000000000209900000000021210000000002092000000000213700016000000000000001900000000000003989900000000000000009999123100000010000000000000BRCEBRACNOR5125
012024071702CEBR5       010CEB         PNA          R$  000000000183400000000018350000000001812000000000182500000000018350000000001808000000000183500005000000000000000900000000000001642700000000000000009999123100000010000000000000BRCEBRACNPA8124
012024071702CEBR6       010CEB         PNB          R$  000000000194000000000019550000000001929000000000193600000000019400000000001930000000000195400016000000000000002100000000000004067600000000000000009999123100000010000000000000BRCEBRACNPB6124
012024071702CEDO4       010CEDRO       PN      N1   R$  000000000223500000000022350000000002235000000000223500000000022350000000002200000000000243800001000000000000000100000000000000223500000000000000009999123100000010000000000000BRCEDOACNPR5128
012024071702CEEB3       010COELBA      ON           R$  000000000431500000000044090000000004035000000000414900000000040400000000004038000000000419800008000000000000000900000000000003734800000000000000009999123100000010000000000000BRCEEBACNOR3199
012024071702CGAS5       010COMGAS      PNA          R$  000000001149800000000116790000000011330000000001149200000000113500000000011270000000001150000007000000000000000900000000000010343300000000000000009999123100000010000000000000BRCGASACNPA3160
012024071702CGRA3       010GRAZZIOTIN  ON           R$  000000000254300000000025460000000002494000000000252000000000025450000000002500000000000254600012000000000000001400000000000003529300000000000000009999123100000010000000000000BRCGRAACNOR2083
012024071702CGRA4       010GRAZZIOTIN  PN           R$  000000000259300000000025950000000002574000000000258600000000025900000000002581000000000259500016000000000000001800000000000004654900000000000000009999123100000010000000000000BRCGRAACNPR9083
012024071702CIEL3       010CIELO       ON      NM   R$  000000000057300000000005740000000000572000000000057300000000005740000000000573000000000057405560000000000012612600000000007229023300000000000000009999123100000010000000000000BRCIELACNOR3157
012024071702CLSA3       010CLEARSALE   ON      NM   R$  000000000074600000000007710000000000714000000000073700000000007280000000000725000000000072805039000000000002478900000000001829011400000000000000009999123100000010000000000000BRCLSAACNOR0100
012024071702CLSC3       010CELESC      ON      N2   R$  000000000720000000000072000000000007200000000000720000000000072000000000006610000000000799700001000000000000000100000000000000720000000000000000009999123100000010000000000000BRCLSCACNOR6152
012024071702CLSC4       010CELESC      PN      N2   R$  000000000768300000000077800000000007680000000000769900000000077800000000007733000000000779000013000000000000001700000000000013089700000000000000009999123100000010000000000000BRCLSCACNPR3131
012024071702CXSE3       010CAIXA SEGURION      NM   R$  000000000145700000000014780000000001441000000000146500000000014760000000001474000000000147607182000000000002428700000000003558807500000000000000009999123100000010000000000000BRCXSEACNOR7106
012024071702CYRE3       010CYRELA REALTON      NM   R$  000000000208800000000021090000000002066000000000208100000000020690000000002068000000000206913044000000000003825200000000007963349800000000000000009999123100000010000000000000BRCYREACNOR7140
012024071702EVEN3       010EVEN        ON      NM   R$  000000000064500000000006600000000000636000000000065200000000006520000000000646000000000065201956000000000000351500000000000229224300000000000000009999123100000010000000000000BREVENACNOR8119
012024071702EZTC3       010EZTEC       ON      NM   R$  000000000147500000000015100000000001455000000000147800000000014680000000001468000000000147107808000000000002681500000000003964996400000000000000009999123100000010000000000000BREZTCACNOR0125
012024071702FESA3       010FERBASA     ON      N1   R$  000000000136900000000013900000000001350000000000136500000000013640000000001357000000000139000007000000000000003200000000000004368900000000000000009999123100000010000000000000BRFESAACNOR8188
012024071702FESA4       010FERBASA     PN      N1   R$  000000000088200000000009060000000000878000000000089700000000009000000000000899000000000090002213000000000000543400000000000487623400000000000000009999123100000010000000000000BRFESAACNPR5084
012024071702FHER3       010FER HERINGERON      NM   R$  000000000041100000000004110000000000405000000000040900000000004070000000000407000000000041500016000000000000005400000000000002210200000000000000009999123100000010000000000000BRFHERACNOR5103
012024071702ZAMP3       010ZAMP S.A.   ON           R$  000000000036700000000003770000000000355000000000036500000000003560000000000356000000000035801539000000000000456600000000000167041200000000000000009999123100000010000000000000BRZAMPACNOR5100
012024071702MTRE3       010MITRE REALTYON      NM   R$  000000000043600000000004430000000000426000000000043300000000004270000000000426000000000042701462000000000000729400000000000316474800000000000000009999123100000010000000000000BRMTREACNOR6112
012024071702MTSA4       010METISA      PN           R$  000000000435000000000043990000000004350000000000438200000000043990000000004250000000000440000003000000000000000300000000000001314800000000000000009999123100000010000000000000BRMTSAACNPR9072
012024071702MULT3       010MULTIPLAN   ON      N2   R$  000000000249800000000025100000000002489000000000250000000000025070000000002501000000000250814382000000000002688100000000006721907600000000000000009999123100000010000000000000BRMULTACNOR5139
012024071702MYPK3       010IOCHP-MAXIONON      NM   R$  000000000118400000000012600000000001184000000000123400000000012450000000001243000000000124505458000000000001359600000000001678136900000000000000009999123100000010000000000000BRMYPKACNOR7155
012024071702RAIZ4       010RAIZEN      PN      N2   R$  000000000030700000000003200000000000307000000000031400000000003180000000000317000000000031825689000000000022525000000000007091070900000000000000009999123100000010000000000000BRRAIZACNPR6110
012024071702RANI3       010IRANI       ON      NM   R$  000000000089800000000009220000000000895000000000091300000000009220000000000919000000000092203117000000000001471200000000001343522400000000000000009999123100000010000000000000BRRANIACNOR5072
012024071702WEST3       010WESTWING    ON      NM   R$  000000000009400000000000940000000000091000000000009200000000000930000000000092000000000009300013000000000000005300000000000000490200000000000000009999123100000010000000000000BRWESTACNOR3100
012024071702WHRL4       010WHIRLPOOL   PN           R$  000000000045400000000004670000000000454000000000046200000000004540000000000454000000000046300020000000000000007400000000000003425900000000000000009999123100000010000000000000BRWHRLACNPR2128
012024071702WIZC3       010WIZ CO      ON      NM   R$  000000000060000000000006100000000000599000000000060400000000006020000000000600000000000060201136000000000000275900000000000166716300000000000000009999123100000010000000000000BRWIZCACNOR5102
012024071702WLMM4       010WLM IND COM PN           R$  000000000314900000000031900000000003111000000000315200000000031310000000003130000000000314700005000000000000000600000000000001891600000000000000009999123100000010000000000000BRWLMMACNPR3118
012024071702MNDL3       010MUNDIAL     ON           R$  000000000133100000000014500000000001330000000000142700000000014500000000001200000000000145000005000000000000001600000000000002284200000000000000009999123100000010000000000000BRMNDLACNOR4109
012024071702MNPR3       010MINUPAR     ON           R$  000000000131100000000013480000000001311000000000133500000000013480000000001306000000000134800003000000000000000300000000000000400600000000000000009999123100000010000000000000BRMNPRACNOR5122
012024071702MOVI3       010MOVIDA      ON      NM   R$  000000000068100000000006930000000000665000000000067300000000006730000000000669000000000067306388000000000003111000000000002094126300000000000000009999123100000010000000000000BRMOVIACNOR0122
012024071702PRNR3       010PRINER      ON      NM   R$  000000000107200000000010940000000001048000000000106900000000010800000000001080000000000108301690000000000000380100000000000406459000000000000000009999123100000010000000000000BRPRNRACNOR4109
012024071702PSSA3       010PORTO SEGUROON      NM   R$  000000000306300000000030860000000003063000000000307600000000030850000000003075000000000308604815000000000000852200000000002621596000000000000000009999123100000010000000000000BRPSSAACNOR7155
012024071702PTBL3       010PORTOBELLO  ON      NM   R$  000000000050300000000005030000000000493000000000049800000000004960000000000496000000000050000580000000000000183500000000000091481000000000000000009999123100000010000000000000BRPTBLACNOR8132
012024071702PTNT3       010PETTENATI   ON           R$  000000000097400000000009750000000000954000000000096700000000009540000000000953000000000097400003000000000000000300000000000000290300000000000000009999123100000010000000000000BRPTNTACNOR6042
012024071702PTNT4       010PETTENATI   PN           R$  000000000062500000000006400000000000622000000000063500000000006400000000000625000000000064000007000000000000002000000000000001271600000000000000009999123100000010000000000000BRPTNTACNPR3047
012024071702QUAL3       010QUALICORP   ON      NM   R$  000000000018000000000001870000000000179000000000018200000000001790000000000179000000000018002035000000000003543800000000000646907200000000000000009999123100000010000000000000BRQUALACNOR6120
012024071702SBFG3       010GRUPO SBF   ON      NM   R$  000000000141900000000014900000000001419000000000146700000000014580000000001458000000000146008030000000000002231100000000003273167000000000000000009999123100000010000000000000BRSBFGACNOR1103
012024071702SBSP3       010SABESP      ON      NM   R$  000000000810000000000084110000000008100000000000831000000000083200000000008312000000000832026805000000000006146200000000051076200600000000000000009999123100000010000000000000BRSBSPACNOR5161
012024071707NUTR3       010NUTRIPLANT  ON      MA   R$  000000000046300000000004650000000000438000000000045400000000004650000000000452000000000046800039000000000000008100000000000003683100000000000000009999123100000010000000000000BRNUTRACNOR0104
012024071707TXRX4       010TEX RENAUX  PN           R$  000000000023600000000002360000000000236000000000023600000000002360000000000231000000000024400001000000000000000300000000000000070800000000000000009999123100000010000000000000BRTXRXACNPR0142
012024071708LIGT3       010LIGHT S/A   ON      NM   R$  000000000049700000000004970000000000490000000000049100000000004900000000000490000000000049301610000000000000745100000000000366442200000000000000009999123100000010000000000000BRLIGTACNOR2124
012024071708JFEN3       010JOAO FORTES ON           R$  000000000002700000000000270000000000022000000000002300000000000230000000000022000000000002300923000000000003718800000000000087097500000000000000009999123100000010000000000000BRJFENACNOR0059
012024071708SGPS3       010SPRINGS     ON      NM   R$  000000000022800000000002280000000000228000000000022800000000002280000000000222000000000022800022000000000000009800000000000002234400000000000000009999123100000010000000000000BRSGPSACNOR4105
012024071708RPMG3       010PET MANGUINHON           R$  000000000031000000000003240000000000302000000000031100000000003090000000000303000000000030900254000000000000170400000000000052997400000000000000009999123100000010000000000000BRRPMGACNOR9194
012024071708ATMP3       010ATMASA      ON           R$  000000000019700000000001980000000000196000000000019700000000001980000000000193000000000019800005000000000000001000000000000000197000000000000000009999123100000010000000000000BRATMPACNOR8100
012024071708RNEW11      010RENOVA      UNT     N2   R$  000000000027100000000002850000000000270000000000027500000000002790000000000273000000000028000045000000000000010200000000000002809800000000000000009999123100000010000000000000BRRNEWCDAM15110
012024071708RNEW3       010RENOVA      ON      N2   R$  000000000009000000000000960000000000088000000000009100000000000920000000000091000000000009200115000000000000113100000000000010393800000000000000009999123100000010000000000000BRRNEWACNOR8110
012024071708RNEW4       010RENOVA      PN      N2   R$  000000000008900000000000940000000000089000000000009100000000000920000000000091000000000009200137000000000000166500000000000015225100000000000000009999123100000010000000000000BRRNEWACNPR5110
012024071708OSXB3       010OSX BRASIL  ON      NM   R$  000000000038700000000003910000000000378000000000038400000000003780000000000381000000000038700015000000000000003300000000000001268200000000000000009999123100000010000000000000BROSXBACNOR8109
012024071708OIBR3       010OI          ON      N1   R$  000000000060000000000006140000000000504000000000055000000000005120000000000512000000000051404608000000000003572900000000001967692200000000000000009999123100000010000000000000BROIBRACNOR1111
012024071708OIBR4       010OI          PN      N1   R$  000000000157300000000015750000000001392000000000145400000000013920000000001391000000000139200161000000000000054200000000000078811500000000000000009999123100000010000000000000BROIBRACNPR8110
012024071708PMAM3       010PARANAPANEMAON      NM   R$  000000000024300000000002430000000000239000000000024000000000002420000000000239000000000024200052000000000000013500000000000003252500000000000000009999123100000010000000000000BRPMAMACNOR3039
012024071708NEXP3       010NEXPE       ON           R$  000000000041400000000004280000000000414000000000042200000000004180000000000418000000000042600012000000000000001800000000000000760600000000000000009999123100000010000000000000BRNEXPACNOR0101
012024071708RSID3       010ROSSI RESID ON      NM   R$  000000000045200000000004600000000000431000000000044700000000004550000000000445000000000045500131000000000000040100000000000017925500000000000000009999123100000010000000000000BRRSIDACNOR8120
012024071708TEKA4       010TEKA        PN           R$  000000000310000000000031000000000003100000000000310000000000031000000000002800000000000315000003000000000000001000000000000003100000000000000000009999123100000010000000000000BRTEKAACNPR3140
012024071708AMER3       010AMERICANAS  ON      NM   R$  000000000006800000000000750000000000066000000000007100000000000730000000000072000000000007307839000000000049931500000000003549734000000000000000009999123100000010000000000000BRAMERACNOR6102
012024071708CTNM4       010COTEMINAS   PN           R$  000000000009000000000000900000000000090000000000009000000000000900000000000090000000000009100022000000000000018400000000000001656000000000000000009999123100000010000000000000BRCTNMACNPR6129
012024071708CTSA3       010SANTANENSE  ON           R$  000000000024500000000002450000000000241000000000024300000000002410000000000241000000000024400009000000000000001100000000000000268100000000000000009999123100000010000000000000BRCTSAACNOR3062
012024071708CTSA4       010SANTANENSE  PN           R$  000000000010700000000001090000000000103000000000010400000000001040000000000103000000000010500107000000000000025300000000000002655600000000000000009999123100000010000000000000BRCTSAACNPR0062
012024071708ETER3       010ETERNIT     ON      NM   R$  000000000062600000000006330000000000623000000000062700000000006290000000000625000000000062900352000000000000109300000000000068636300000000000000009999123100000010000000000000BRETERACNOR3243
012024071710RENT1       010LOCALIZA    DIR ORD NM   R$  000000000130600000000013060000000001213000000000122300000000012300000000001230000000000125100159000000000000048000000000000058711000000000000000009999123100000010000000000000BRRENTD06OR8195
012024071712LFTT11      010FII LOFT II CI  EA       R$  000000000217100000000021710000000001870000000000197200000000020000000000001900000000000200000141000000000000004633000000000009136683000000000000009999123100000010000000000000BRLFTTCTF004133
012024071712LGCP11      010FII LGCP INTCI  ES       R$  000000000850000000000085000000000008452000000000847200000000084670000000008466000000000846700152000000000000001155000000000009785362000000000000009999123100000010000000000000BRLGCPCTF006158
012024071712LIFE11      010FII LIFE    CI           R$  000000000102800000000010320000000001019000000000102400000000010260000000001026000000000102800439000000000000029899000000000030624953000000000000009999123100000010000000000000BRLIFECTF017130
012024071712AIEC11      010FII AUTONOMYCI           R$  000000000539000000000054070000000005365000000000539300000000054000000000005400000000000540700303000000000000006814000000000036754663000000000000009999123100000010000000000000BRAIECCTF009146
012024071712AJFI11      010FII AJ MALLSCI  ER       R$  000000000086000000000008800000000000860000000000086500000000008750000000000870000000000087502102000000000000034684000000000030004712000000000000009999123100000010000000000000BRAJFICTF001108
012024071712BLCA11      010FII BLUE AAACI  ER       R$  000000001000000000000100970000000010000000000001000800000000100000000000009995000000001000000063000000000000000279000000000002792432000000000000009999123100000010000000000000BRBLCACTF009132
012024071712BLMG11      010FII BLUE LOGCI           R$  000000000390200000000039020000000003860000000000387300000000038720000000003870000000000387200258000000000000007550000000000029244665000000000000009999123100000010000000000000BRBLMGCTF005147
012024071712BLMO11      010FII BLUEMAC CI           R$  000000000830000000000083000000000007831000000000827900000000083000000000007830000000000879900005000000000000000023000000000000190431000000000000009999123100000010000000000000BRBLMOCTF009132
012024071712BLUR11      010FII BLUE RECCI  ER       R$  000000000933100000000093310000000009331000000000933100000000093310000000007994000000000000000001000000000000000001000000000000009331000000000000009999123100000010000000000000BRBLURCTF005128
012024071712BMLC11      010FII BMBRC LCCI  ER       R$  000000000980000000000099810000000009785000000000988900000000099810000000009785000000000998100005000000000000000012000000000000118671000000000000009999123100000010000000000000BRBMLCCTF004252
012024071712BNFS11      010FII BANRISULCI           R$  000000001191000000000119730000000011801000000001187800000000118710000000011871000000001189900083000000000000000485000000000005761058000000000000009999123100000010000000000000BRBNFSCTF000242
012024071712BRIP11      010FII BRIO IIICI  ER       R$  000000009600000000000960000000000096000000000009600000000000960000000000089006000000009600000003000000000000000007000000000000672000000000000000009999123100000010000000000000BRBRIPCTF001114
012024071712IBCR11      010FII BREI    CI  ER       R$  000000000718100000000071870000000007173000000000717600000000071750000000007173000000000717500045000000000000000630000000000004521076000000000000009999123100000010000000000000BRIBCRCTF009138
012024071712JCCJ11      010FII JHSF CJ CI  ER       R$  000000001380000000000145000000000013800000000001386700000000145000000000013200000000001450000003000000000000000166000000000002302000000000000000009999123100000010000000000000BRJCCJCTF002112
012024071712JFLL11      010FII JFL LIV CI           R$  000000000730900000000074470000000007308000000000736900000000073360000000007336000000000744700033000000000000000783000000000005770483000000000000009999123100000010000000000000BRJFLLCTF002141
012024071712JPPA11      010FII JPPA CRICI           R$  000000000825800000000082580000000008204000000000823000000000082250000000008225000000000822900177000000000000002678000000000022042002000000000000009999123100000010000000000000BRJPPACTF005162
012024071712JSAF11      010FII JS A FINCI           R$  000000000950000000000095960000000009441000000000953400000000095960000000009530000000000959600762000000000000005620000000000053583755000000000000009999123100000010000000000000BRJSAFCTF000134
012024071712JSRE11      010FII JS REAL CI           R$  000000000664600000000067750000000006644000000000668600000000067120000000006706000000000671206087000000000000024562000000000164231970000000000000009999123100000010000000000000BRJSRECTF007263
012024071712KCRE11      010FII KINEA CRCI           R$  000000000095700000000009620000000000956000000000095800000000009570000000000957000000000096000476000000000000050274000000000048196665000000000000009999123100000010000000000000BRKCRECTF009126
012024071712KEVE11      010FII EVEN II CI           R$  000000011000300000001101000000000110000000000011001400000001101000000000110100000000011480000005000000000000000022000000000002420319000000000000009999123100000010000000000000BRKEVECTF007115
012024071712KFOF11      010FII KINEAFOFCI           R$  000000000908000000000091010000000009062000000000908800000000090880000000009088000000000908901120000000000000008584000000000078012394000000000000009999123100000010000000000000BRKFOFCTF006170
012024071712KISU11      010FII KILIMA  CI           R$  000000000083000000000008370000000000828000000000083300000000008330000000000833000000000083402098000000000000074843000000000062354537000000000000009999123100000010000000000000BRKISUCTF000145
012024071712KIVO11      010FII KIVO    CI           R$  000000000831000000000084180000000008305000000000836000000000083900000000008362000000000839000259000000000000002438000000000020382330000000000000009999123100000010000000000000BRKIVOCTF007128
012024071712AFHI11      010FII AFHI CRICI  ER       R$  000000000966500000000096970000000009617000000000965800000000096690000000009669000000000967001312000000000000010721000000000103550604000000000000009999123100000010000000000000BRAFHICTF005144
012024071712IRDM11      010FII IRIDIUM CI  ER       R$  000000000740000000000074210000000007387000000000740600000000074140000000007413000000000741404018000000000000041019000000000303800310000000000000009999123100000010000000000000BRIRDMCTF004187
012024071712IRIM11      010FII IRIM    CI  ER       R$  000000000747200000000074950000000007400000000000741000000000074430000000007443000000000748000099000000000000005516000000000040877375000000000000009999123100000010000000000000BRIRIMCTF003136
012024071712ITIP11      010FII INTER IPCI           R$  000000000810200000000082240000000008102000000000819200000000082240000000008200000000000821500140000000000000000756000000000006193398000000000000009999123100000010000000000000BRITIPCTF002130
012024071712ITIT11      010FII INTER ITCI           R$  000000000750900000000075300000000007482000000000750600000000074990000000007493000000000749900117000000000000003722000000000027938653000000000000009999123100000010000000000000BRITITCTF004130
012024071712ITRI11      010FII ITRI    CI           R$  000000000932000000000096630000000009213000000000942900000000095120000000009457000000000957702956000000000000030236000000000285123632000000000000009999123100000010000000000000BRITRICTF008103
012024071712LSPA11      010FII LESTE PACI           R$  000000000784900000000078490000000007151000000000725300000000074310000000007190000000000743200067000000000000001017000000000007376586000000000000009999123100000010000000000000BRLSPACTF005140
012024071712LUGG11      010FII LUGGO   CI           R$  000000000740500000000074050000000007378000000000739600000000074000000000007385000000000740000100000000000000000576000000000004260453000000000000009999123100000010000000000000BRLUGGCTF007156
012024071712LVBI11      010FII VBI LOG CI           R$  000000001144000000000117420000000011417000000001164400000000116710000000011650000000001167110259000000000000088081000000001025624727000000000000009999123100000010000000000000BRLVBICTF002170
012024071712BPFF11      010FII ABSOLUTOCI           R$  000000000709900000000071000000000007011000000000705200000000070250000000007025000000000705500378000000000000003121000000000022009542000000000000009999123100000010000000000000BRBPFFCTF002237
012024071712BPML11      010FII BTG SHOPCI           R$  000000000916200000000092000000000009120000000000916200000000092000000000009200000000000922501381000000000000008569000000000078513465000000000000009999123100000010000000000000BRBPMLCTF006131
012024071712CPFF11      010FII CAP REITCI           R$  000000000728900000000073000000000007270000000000728100000000072720000000007272000000000729500341000000000000000628000000000004572960000000000000009999123100000010000000000000BRCPFFCTF000157
012024071712CPLG11      010FII CPLG    CI           R$  000000000105000000000010500000000001050000000000105000000000010500000000000000000000000105000001000000000000000002000000000000002100000000000000009999123100000010000000000000BRCPLGCTF006100
012024071712CPOF11      010FII CPOF    CI  ER       R$  000000001085000000000108500000000010850000000001085000000000108500000000000000000000001085000001000000000000000200000000000002170000000000000000009999123100000010000000000000BRCPOFCTF002108
