00COTAHIST.2024BOVESPA 20240729                                                                                                                                                                                                                      
012024072902ITSA3       010ITAUSA      ON      N1   R$  000000000102500000000010360000000001025000000000103200000000010300000000001030000000000103200316000000000000139300000000000143820300000000000000009999123100000010000000000000BRITSAACNOR0441
012024072902ITSA4       010ITAUSA      PN      N1   R$  000000000102700000000010350000000001025000000000103100000000010330000000001032000000000103318647000000000022454400000000023159242800000000000000009999123100000010000000000000BRITSAACNPR7441
012024072902ROMI3       010ROMI        ON      NM   R$  000000000107400000000010740000000001048000000000105400000000010480000000001048000000000105100796000000000000162100000000000170943400000000000000009999123100000010000000000000BRROMIACNOR8195
012024072902RPAD5       010ALFA HOLDINGPNA          R$  000000000084400000000008440000000000844000000000084400000000008440000000000853000000000089900001000000000000000100000000000000084400000000000000009999123100000010000000000000BRRPADACNPA4218
012024072902RRRP3       0103R PETROLEUMON      NM   R$  000000000257500000000026660000000002557000000000264200000000026400000000002640000000000265014277000000000005635300000000014892667600000000000000009999123100000010000000000000BRRRRPACNOR5103
012024072902BIOM3       010BIOMM       ON      MA   R$  000000000111000000000011100000000001000000000000103400000000010230000000001015000000000102300435000000000000082400000000000085225900000000000000009999123100000010000000000000BRBIOMACNOR2112
012024072902BLAU3       010BLAU        ON      NM   R$  000000000114000000000011400000000001076000000000109300000000010810000000001081000000000109000769000000000000140100000000000153143700000000000000009999123100000010000000000000BRBLAUACNOR8114
012024072902BMEB3       010MERCANTIL   ON      N1   R$  000000000318000000000032510000000003100000000000318000000000031230000000003112000000000319000021000000000000003200000000000010176700000000000000009999123100000010000000000000BRBMEBACNOR8205
012024072902BMEB4       010MERCANTIL   PN      N1   R$  000000000340100000000035490000000003401000000000348000000000035490000000003520000000000354900138000000000000027600000000000096067000000000000000009999123100000010000000000000BRBMEBACNPR5210
012024072902BMGB4       010BANCO BMG   PN  EJ  N1   R$  000000000035000000000003520000000000341000000000034300000000003460000000000346000000000034700697000000000000304000000000000104536500000000000000009999123100000010000000000000BRBMGBACNPR0110
012024072902BMIN4       010MERC INVEST PN           R$  000000000166700000000016670000000001663000000000166500000000016630000000001600000000000166300003000000000000000300000000000000499700000000000000009999123100000010000000000000BRBMINACNPR1176
012024072902BMKS3       010BIC MONARK  ON           R$  000000003300000000000330000000000032304000000003233400000000323040000000032200000000003300000007000000000000000026000000000000840697000000000000009999123100000010000000000000BRBMKSACNOR9166
012024072902BMOB3       010BEMOBI TECH ON      NM   R$  000000000143300000000014490000000001430000000000143900000000014420000000001441000000000144200718000000000000129300000000000186138000000000000000009999123100000010000000000000BRBMOBACNOR7103
012024072902BNBR3       010NORD BRASIL ON           R$  000000000967500000000099000000000009650000000000974500000000096500000000009410000000000980000005000000000000000500000000000004872500000000000000009999123100000010000000000000BRBNBRACNOR8208
012024072902BOBR4       010BOMBRIL     PN           R$  000000000020000000000002010000000000197000000000019900000000002000000000000200000000000020100023000000000000007800000000000001555200000000000000009999123100000010000000000000BRBOBRACNPR3128
012024072902BRSR3       010BANRISUL    ON      N1   R$  000000000122600000000012260000000001202000000000122200000000012230000000001194000000000122200009000000000000001500000000000001833500000000000000009999123100000010000000000000BRBRSRACNOR3188
012024072902BRSR6       010BANRISUL    PNB     N1   R$  000000000114600000000011480000000001133000000000113700000000011360000000001135000000000113803084000000000000749400000000000852674800000000000000009999123100000010000000000000BRBRSRACNPB4191
012024072902BSLI3       010BRB BANCO   ON           R$  000000000096400000000009640000000000958000000000096000000000009580000000000957000000000100100003000000000000000300000000000000288000000000000000009999123100000010000000000000BRBSLIACNOR5194
012024072902B3SA3       010B3          ON      NM   R$  000000000109500000000010980000000001082000000000108600000000010850000000001084000000000108622416000000000016649600000000018095747300000000000000009999123100000010000000000000BRB3SAACNOR6133
012024072902BEES3       010BANESTES    ON           R$  000000000090500000000009050000000000890000000000089500000000008920000000000890000000000089200064000000000000009300000000000008325200000000000000009999123100000010000000000000BRBEESACNOR9393
012024072902BEES4       010BANESTES    PN           R$  000000000097300000000009890000000000971000000000097400000000009710000000000971000000000099700019000000000000004100000000000003994600000000000000009999123100000010000000000000BRBEESACNPR6318
012024072902BGIP4       010BANESE      PN           R$  000000000225000000000023000000000002250000000000227100000000022600000000002230000000000229900005000000000000000500000000000001135900000000000000009999123100000010000000000000BRBGIPACNPR8208
012024072902DOTZ3       010DOTZ SA     ON      NM   R$  000000000067100000000006710000000000644000000000066000000000006540000000000654000000000067100027000000000000007200000000000004752900000000000000009999123100000010000000000000BRDOTZACNOR7101
012024072902DXCO3       010DEXCO       ON      NM   R$  000000000071600000000007230000000000710000000000071500000000007150000000000714000000000071603570000000000001314500000000000940379700000000000000009999123100000010000000000000BRDXCOACNOR8105
012024072902ITUB3       010ITAUUNIBANCOON      N1   R$  000000000293100000000029650000000002931000000000295200000000029540000000002954000000000296201173000000000000247600000000000731139200000000000000009999123100000010000000000000BRITUBACNOR4338
012024072902ITUB4       010ITAUUNIBANCOPN      N1   R$  000000000342800000000034610000000003425000000000344700000000034490000000003449000000000345228184000000000015134500000000052172080600000000000000009999123100000010000000000000BRITUBACNPR1338
012024072902BAHI3       010BAHEMA      ON      MA   R$  000000000064800000000006480000000000648000000000064800000000006480000000000630000000000064800001000000000000001100000000000000712800000000000000009999123100000010000000000000BRBAHIACNOR1074
012024072902BALM4       010BAUMER      PN           R$  000000000102500000000010290000000001025000000000102700000000010290000000000995000000000103000002000000000000000200000000000000205400000000000000009999123100000010000000000000BRBALMACNPR2056
012024072902BAZA3       010AMAZONIA    ON           R$  000000000942000000000094200000000009200000000000924500000000092000000000008909000000000920000010000000000000001400000000000012943800000000000000009999123100000010000000000000BRBAZAACNOR0179
012024072902BBAS3       010BRASIL      ON      NM   R$  000000000272100000000027210000000002694000000000270300000000027160000000002715000000000271622818000000000018350200000000049603904900000000000000009999123100000010000000000000BRBBASACNOR3324
012024072902CCRO3       010CCR SA      ON      NM   R$  000000000125700000000012590000000001241000000000124500000000012410000000001241000000000124206552000000000003436200000000004281434500000000000000009999123100000010000000000000BRCCROACNOR2145
012024072902CPFE3       010CPFL ENERGIAON      NM   R$  000000000328800000000033010000000003265000000000328700000000032880000000003286000000000329904004000000000000974700000000003203909400000000000000009999123100000010000000000000BRCPFEACNOR0137
012024072902ELMD3       010ELETROMIDIA ON      NM   R$  000000000178400000000017850000000001738000000000175200000000017630000000001739000000000176600330000000000000040300000000000070606500000000000000009999123100000010000000000000BRELMDACNOR3101
012024072902EMAE4       010EMAE        PN           R$  000000000469900000000047990000000004301000000000453100000000044300000000004400000000000453700036000000000000006300000000000028546800000000000000009999123100000010000000000000BREMAEACNPR1125
012024072902EMBR3       010EMBRAER     ON      NM   R$  000000000414900000000041730000000004054000000000410800000000041100000000004109000000000411216705000000000003876300000000015927321300000000000000009999123100000010000000000000BREMBRACNOR4191
012024072902ENAT3       010ENAUTA PART ON      NM   R$  000000000204000000000021420000000002040000000000212400000000021370000000002131000000000213905152000000000001253800000000002663240100000000000000009999123100000010000000000000BRENATACNOR0104
012024072902ENEV3       010ENEVA       ON      NM   R$  000000000127500000000012890000000001275000000000128200000000012800000000001280000000000128610862000000000002849900000000003656125200000000000000009999123100000010000000000000BRENEVACNOR8106
012024072902FRIO3       010METALFRIO   ON      NM   R$  000000001800000000000180000000000018000000000001800000000000180000000000016000000000001800000002000000000000000200000000000003600000000000000000009999123100000010000000000000BRFRIOACNOR2111
012024072902EKTR4       010ELEKTRO     PN  ED       R$  000000000421000000000042100000000004029000000000417400000000041500000000004002000000000414900009000000000000001600000000000006679300000000000000009999123100000010000000000000BREKTRACNPR7164
012024072902ELET3       010ELETROBRAS  ON      N1   R$  000000000382600000000038540000000003806000000000382300000000038190000000003819000000000382515604000000000006743200000000025784813100000000000000009999123100000010000000000000BRELETACNOR6160
012024072902ELET6       010ELETROBRAS  PNB     N1   R$  000000000427000000000042830000000004235000000000425300000000042530000000004252000000000425502964000000000000700300000000002978461800000000000000009999123100000010000000000000BRELETACNPB7077
012024072902ENGI11      010ENERGISA    UNT     N2   R$  000000000448900000000044890000000004428000000000445400000000044470000000004447000000000447507960000000000001668900000000007433332700000000000000009999123100000010000000000000BRENGICDAM16135
012024072902ENGI3       010ENERGISA    ON      N2   R$  000000000139200000000013920000000001362000000000137000000000013690000000001369000000000141900025000000000000003300000000000004523000000000000000009999123100000010000000000000BRENGIACNOR0145
012024072902ENGI4       010ENERGISA    PN      N2   R$  000000000077900000000007790000000000765000000000077100000000007670000000000767000000000077200026000000000000005100000000000003932600000000000000009999123100000010000000000000BRENGIACNPR7141
012024072902ENJU3       010ENJOEI      ON      NM   R$  000000000018300000000001860000000000174000000000017700000000001740000000000174000000000017600457000000000000316000000000000056049200000000000000009999123100000010000000000000BRENJUACNOR9100
012024072902ENMT3       010ENERGISA MT ON           R$  000000000780000000000084500000000007800000000000814700000000084500000000006000000000000000000006000000000000000600000000000004888200000000000000009999123100000010000000000000BRENMTACNOR5121
012024072902EPAR3       010EMBPAR S/A  ON           R$  000000000060000000000006000000000000585000000000059400000000005970000000000597000000000060000026000000000000006300000000000003746600000000000000009999123100000010000000000000BREPARACNOR9105
012024072902EQMA3B      010EQTLMARANHAOON      MB   R$  000000000255500000000025550000000002530000000000254000000000025480000000002530000000000254900003000000000000000400000000000001016300000000000000009999123100000010000000000000BREQMAACNOR8108
012024072902EQPA3       010EQTL PARA   ON           R$  000000000073600000000007620000000000736000000000074400000000007400000000000739000000000075600014000000000000001600000000000001191100000000000000009999123100000010000000000000BREQPAACNOR1111
012024072902EQTL3       010EQUATORIAL  ON      NM   R$  000000000325000000000032670000000003228000000000324100000000032370000000003236000000000323913207000000000003337600000000010820194500000000000000009999123100000010000000000000BREQTLACNOR0130
012024072902GEPA4       010GER PARANAP PN           R$  000000000264800000000026490000000002580000000000262500000000025800000000002600000000000265400005000000000000000500000000000001312600000000000000009999123100000010000000000000BRGEPAACNPR9160
012024072902GFSA3       010GAFISA      ON      NM   R$  000000000033800000000003420000000000328000000000033200000000003290000000000329000000000033001683000000000001457400000000000483859500000000000000009999123100000010000000000000BRGFSAACNOR3124
012024072902GGBR3       010GERDAU      ON      N1   R$  000000000161800000000016260000000001594000000000160300000000016000000000001600000000000161800114000000000000017000000000000027264600000000000000009999123100000010000000000000BRGGBRACNOR1192
012024072902GGBR4       010GERDAU      PN      N1   R$  000000000184000000000018400000000001799000000000181300000000018120000000001811000000000181215291000000000009933700000000018011630300000000000000009999123100000010000000000000BRGGBRACNPR8192
012024072902BHIA3       010CASAS BAHIA ON      NM   R$  000000000047600000000004780000000000450000000000045900000000004610000000000460000000000046203667000000000004421500000000002032152700000000000000009999123100000010000000000000BRBHIAACNOR1102
012024072902BRBI11      010BR PARTNERS UNT     N2   R$  000000000143700000000014370000000001393000000000140500000000014070000000001400000000000140801069000000000000181200000000000254699700000000000000009999123100000010000000000000BRBRBICDAM10109
012024072902BRFS3       010BRF SA      ON      NM   R$  000000000215700000000022000000000002132000000000216000000000021320000000002131000000000213213629000000000005052800000000010917216500000000000000009999123100000010000000000000BRBRFSACNOR8122
012024072902CSRN3       010COSERN      ON  ED       R$  000000000204900000000020600000000001950000000000201800000000019500000000001900000000000199800071000000000000018400000000000037138000000000000000009999123100000010000000000000BRCSRNACNOR0194
012024072902CSRN5       010COSERN      PNA ED       R$  000000000220000000000022500000000002000000000000205700000000020070000000002007000000000225000011000000000000001300000000000002675100000000000000009999123100000010000000000000BRCSRNACNPA3194
012024072902CSRN6       010COSERN      PNB ED       R$  000000000200000000000020160000000002000000000000200100000000020160000000002015000000000235000002000000000000001100000000000002201600000000000000009999123100000010000000000000BRCSRNACNPB1195
012024072902CSUD3       010CSU DIGITAL ON      NM   R$  000000000194100000000019640000000001913000000000193700000000019400000000001922000000000194000160000000000000024600000000000047659900000000000000009999123100000010000000000000BRCSUDACNOR5110
012024072902POMO4       010MARCOPOLO   PN      N2   R$  000000000062900000000006330000000000618000000000062200000000006190000000000619000000000062207380000000000004035600000000002511621200000000000000009999123100000010000000000000BRPOMOACNPR7098
012024072902PORT3       010WILSON SONS ON      NM   R$  000000000160500000000016200000000001577000000000158700000000015770000000001577000000000158802523000000000000697100000000001106873700000000000000009999123100000010000000000000BRPORTACNOR8109
012024072902ATOM3       010ATOMPAR     ON           R$  000000000019800000000002010000000000196000000000019900000000002010000000000200000000000020100022000000000000003400000000000000678500000000000000009999123100000010000000000000BRATOMACNOR1106
012024072902AURE3       010AUREN       ON      NM   R$  000000000120500000000012100000000001192000000000119700000000011940000000001194000000000119706893000000000001916200000000002293888900000000000000009999123100000010000000000000BRAUREACNOR9104
012024072902AVLL3       010ALPHAVILLE  ON      NM   R$  000000000037100000000003710000000000355000000000036700000000003700000000000350000000000037000005000000000000000500000000000000183600000000000000009999123100000010000000000000BRAVLLACNOR5103
012024072902AZEV3       010AZEVEDO     ON           R$  000000000014300000000001450000000000134000000000013700000000001380000000000138000000000013900650000000000000707800000000000097372600000000000000009999123100000010000000000000BRAZEVACNOR0121
012024072902AZEV4       010AZEVEDO     PN           R$  000000000014200000000001430000000000134000000000013700000000001370000000000136000000000013701536000000000003194000000000000438393800000000000000009999123100000010000000000000BRAZEVACNPR7121
012024072902AZUL4       010AZUL        PN      N2   R$  000000000083100000000008350000000000792000000000080100000000007970000000000797000000000079808271000000000012845500000000010300097800000000000000009999123100000010000000000000BRAZULACNPR4102
012024072902BRIT3       010BRISANET    ON      NM   R$  000000000041000000000004120000000000395000000000039900000000003950000000000395000000000039700689000000000000243500000000000097374400000000000000009999123100000010000000000000BRBRITACNOR0103
012024072902BRKM3       010BRASKEM     ON      N1   R$  000000000181300000000018130000000001779000000000180800000000018120000000001787000000000181200017000000000000006900000000000012481500000000000000009999123100000010000000000000BRBRKMACNOR1119
012024072902BRKM5       010BRASKEM     PNA     N1   R$  000000000181400000000018300000000001783000000000179200000000017890000000001786000000000179103671000000000001257400000000002254029200000000000000009999123100000010000000000000BRBRKMACNPA4121
012024072902CXSE3       010CAIXA SEGURION      NM   R$  000000000146300000000014740000000001445000000000146200000000014630000000001462000000000146604435000000000001333700000000001951032900000000000000009999123100000010000000000000BRCXSEACNOR7106
012024072902CYRE3       010CYRELA REALTON      NM   R$  000000000198200000000019870000000001941000000000195500000000019550000000001954000000000195806394000000000002439300000000004769954700000000000000009999123100000010000000000000BRCYREACNOR7140
012024072902CEAB3       010CEA MODAS   ON      NM   R$  000000000085800000000008860000000000831000000000084600000000008400000000000838000000000084003680000000000001787300000000001512554100000000000000009999123100000010000000000000BRCEABACNOR1102
012024072902CEBR3       010CEB         ON           R$  000000000200100000000020020000000001976000000000198500000000020020000000001985000000000209000037000000000000005700000000000011317200000000000000009999123100000010000000000000BRCEBRACNOR5125
012024072902CEBR5       010CEB         PNA          R$  000000000177800000000018000000000001752000000000177800000000018000000000001759000000000180000014000000000000002600000000000004622900000000000000009999123100000010000000000000BRCEBRACNPA8124
012024072902CEBR6       010CEB         PNB          R$  000000000188000000000018800000000001856000000000186100000000018560000000001856000000000186000022000000000000002900000000000005397400000000000000009999123100000010000000000000BRCEBRACNPB6124
012024072902CEDO4       010CEDRO       PN      N1   R$  000000000241100000000024110000000002411000000000241100000000024110000000002411000000000243100001000000000000000100000000000000241100000000000000009999123100000010000000000000BRCEDOACNPR5128
012024072902CEEB3       010COELBA      ON           R$  000000000397100000000041000000000003971000000000403500000000041000000000003975000000000419900002000000000000000200000000000000807100000000000000009999123100000010000000000000BRCEEBACNOR3199
012024072902CGAS5       010COMGAS      PNA          R$  000000001128900000000113000000000011289000000001129600000000112990000000011020000000001140000003000000000000000400000000000004518700000000000000009999123100000010000000000000BRCGASACNPA3160
012024072902CGRA3       010GRAZZIOTIN  ON           R$  000000000250200000000025030000000002493000000000249800000000024930000000002475000000000250200007000000000000000700000000000001748700000000000000009999123100000010000000000000BRCGRAACNOR2083
012024072902CGRA4       010GRAZZIOTIN  PN           R$  000000000253000000000025560000000002471000000000249600000000024800000000002480000000000252100070000000000000012200000000000030453200000000000000009999123100000010000000000000BRCGRAACNPR9083
012024072902CIEL3       010CIELO       ON      NM   R$  000000000057500000000005760000000000575000000000057500000000005760000000000575000000000057604973000000000005897500000000003392578000000000000000009999123100000010000000000000BRCIELACNOR3157
012024072902BEEF3       010MINERVA     ON      NM   R$  000000000063000000000006380000000000619000000000062500000000006200000000000620000000000062104459000000000003486900000000002182666200000000000000009999123100000010000000000000BRBEEFACNOR6116
012024072902BPAN4       010BANCO PAN   PN      N1   R$  000000000085400000000008550000000000840000000000084600000000008440000000000842000000000084402235000000000000546600000000000462909000000000000000009999123100000010000000000000BRBPANACNPR1115
012024072902BRAP3       010BRADESPAR   ON      N1   R$  000000000179200000000017970000000001772000000000178200000000017740000000001773000000000177400410000000000000063800000000000113704900000000000000009999123100000010000000000000BRBRAPACNOR5148
012024072902BRAP4       010BRADESPAR   PN      N1   R$  000000000186700000000018670000000001836000000000184500000000018460000000001846000000000184806495000000000002048200000000003780960800000000000000009999123100000010000000000000BRBRAPACNPR2148
012024072902LUPA3       010LUPATECH    ON      NM   R$  000000000018000000000001800000000000172000000000017500000000001740000000000174000000000017500137000000000000095000000000000016691200000000000000009999123100000010000000000000BRLUPAACNOR8112
012024072902LVTC3       010WDC NETWORKSON      NM   R$  000000000034300000000003700000000000343000000000035600000000003650000000000353000000000036700070000000000000019100000000000006817800000000000000009999123100000010000000000000BRLVTCACNOR4102
012024072902LWSA3       010LWSA        ON      NM   R$  000000000044200000000004480000000000425000000000043100000000004260000000000425000000000042604845000000000004078200000000001759012200000000000000009999123100000010000000000000BRLWSAACNOR8103
012024072902PDGR3       010PDG REALT   ON      NM   R$  000000000001800000000000190000000000017000000000001700000000000180000000000017000000000001800274000000000000968900000000000017428900000000000000009999123100000010000000000000BRPDGRACNOR8118
012024072902PDTC3       010PADTEC      ON      NM   R$  000000000018700000000001900000000000187000000000018800000000001890000000000188000000000018900029000000000000013700000000000002579500000000000000009999123100000010000000000000BRPDTCACNOR3101
012024072902PETR3       010PETROBRAS   ON      N2   R$  000000000410000000000041000000000003940000000000398700000000039820000000003980000000000398322462000000000007725400000000030806991800000000000000009999123100000010000000000000BRPETRACNOR9205
012024072902PETR4       010PETROBRAS   PN      N2   R$  000000000375100000000037720000000003642000000000368800000000036880000000003686000000000368886970000000000039790000000000146777528000000000000000009999123100000010000000000000BRPETRACNPR6213
012024072902PFRM3       010PROFARMA    ON      NM   R$  000000000057800000000005930000000000570000000000058200000000005920000000000592000000000059300394000000000000104500000000000060903800000000000000009999123100000010000000000000BRPFRMACNOR1116
012024072902CLSA3       010CLEARSALE   ON      NM   R$  000000000083400000000008400000000000751000000000079500000000008400000000000827000000000084005096000000000002135800000000001699131500000000000000009999123100000010000000000000BRCLSAACNOR0100
012024072902CLSC4       010CELESC      PN      N2   R$  000000000762600000000076260000000007526000000000757800000000076060000000007542000000000761000005000000000000000700000000000005304900000000000000009999123100000010000000000000BRCLSCACNPR3131
012024072902CMIG3       010CEMIG       ON      N1   R$  000000000128900000000012890000000001265000000000127400000000012850000000001278000000000128700637000000000000125800000000000160291400000000000000009999123100000010000000000000BRCMIGACNOR6242
012024072902CMIG4       010CEMIG       PN      N1   R$  000000000107900000000010990000000001074000000000108800000000010940000000001093000000000109515376000000000008140500000000008861232500000000000000009999123100000010000000000000BRCMIGACNPR3243
012024072902EALT4       010ACO ALTONA  PN           R$  000000000115100000000011690000000001150000000000116400000000011690000000001160000000000116900016000000000000002500000000000002910900000000000000009999123100000010000000000000BREALTACNPR1138
012024072902ECOR3       010ECORODOVIAS ON      NM   R$  000000000070300000000007110000000000698000000000070200000000007020000000000700000000000070303172000000000002624900000000001843800900000000000000009999123100000010000000000000BRECORACNOR8120
012024072902EGIE3       010ENGIE BRASILON      NM   R$  000000000447000000000044790000000004432000000000446500000000044740000000004474000000000448002489000000000000430300000000001921308700000000000000009999123100000010000000000000BREGIEACNOR9126
012024072902EKTR3       010ELEKTRO     ON  ED       R$  000000000375100000000037510000000003751000000000375100000000037510000000003749000000000420000001000000000000000100000000000000375100000000000000009999123100000010000000000000BREKTRACNOR0164
012024072902PGMN3       010PAGUE MENOS ON      NM   R$  000000000025900000000002590000000000246000000000024900000000002480000000000248000000000024901697000000000000692000000000000172824700000000000000009999123100000010000000000000BRPGMNACNOR8103
012024072902PINE3       010PINE        ON      N2   R$  000000000055900000000005880000000000551000000000056000000000005730000000000551000000000057400011000000000000003900000000000002186700000000000000009999123100000010000000000000BRPINEACNOR1150
012024072902PINE4       010PINE        PN      N2   R$  000000000041700000000004260000000000413000000000041800000000004180000000000416000000000041800297000000000000105000000000000043987900000000000000009999123100000010000000000000BRPINEACNPR8150
012024072902PLPL3       010PLANOEPLANO ON      NM   R$  000000000112500000000011380000000001113000000000112500000000011350000000001119000000000113501588000000000000543600000000000611602000000000000000009999123100000010000000000000BRPLPLACNOR5104
012024072902PNVL3       010DIMED       ON      NM   R$  000000000101500000000010190000000001007000000000101100000000010110000000001008000000000101201045000000000000294100000000000297381000000000000000009999123100000010000000000000BRPNVLACNOR9207
012024072902POMO3       010MARCOPOLO   ON      N2   R$  000000000049500000000004960000000000481000000000048500000000004820000000000482000000000048600171000000000000045200000000000021950600000000000000009999123100000010000000000000BRPOMOACNOR0098
012024072902KRSA3       010KORA SAUDE  ON      NM   R$  000000000007100000000000710000000000067000000000006800000000000700000000000069000000000007000199000000000000398900000000000027405000000000000000009999123100000010000000000000BRKRSAACNOR0100
012024072902LAND3       010TERRASANTAPAON      NM   R$  000000000146600000000014890000000001444000000000146700000000014700000000001467000000000147000238000000000000136700000000000200665200000000000000009999123100000010000000000000BRLANDACNOR9103
012024072902LAVV3       010LAVVI       ON      NM   R$  000000000089700000000008990000000000877000000000088400000000008830000000000883000000000088701461000000000000288000000000000254605300000000000000009999123100000010000000000000BRLAVVACNOR4112
012024072902LEVE3       010METAL LEVE  ON      NM   R$  000000000331100000000033150000000003255000000000328100000000032880000000003287000000000328801233000000000000240100000000000787847600000000000000009999123100000010000000000000BRLEVEACNOR2197
012024072902LJQQ3       010QUERO-QUERO ON      NM   R$  000000000040600000000004110000000000391000000000039500000000003910000000000391000000000039403392000000000001288300000000000508961600000000000000009999123100000010000000000000BRLJQQACNOR5104
012024072902LOGG3       010LOG COM PROPON      NM   R$  000000000213400000000021440000000002106000000000211700000000021320000000002124000000000213201685000000000000569100000000001205351200000000000000009999123100000010000000000000BRLOGGACNOR7107
012024072902LOGN3       010LOG-IN      ON      NM   R$  000000000389400000000038940000000003640000000000375500000000036400000000003640000000000364600097000000000000011600000000000043565500000000000000009999123100000010000000000000BRLOGNACNOR3105
012024072902LPSB3       010LOPES BRASILON      NM   R$  000000000017900000000001790000000000171000000000017400000000001710000000000171000000000017300143000000000000058600000000000010240100000000000000009999123100000010000000000000BRLPSBACNOR0114
012024072902LREN3       010LOJAS RENNERON      NM   R$  000000000133100000000013650000000001331000000000135200000000013510000000001351000000000135521544000000000018950700000000025622218800000000000000009999123100000010000000000000BRLRENACNOR1221
012024072902ODPV3       010ODONTOPREV  ON      NM   R$  000000000116400000000011640000000001149000000000115400000000011490000000001149000000000115002483000000000000515100000000000594798100000000000000009999123100000010000000000000BRODPVACNOR4202
012024072902OFSA3       010OUROFINO S/AON      NM   R$  000000000196500000000019650000000001903000000000192400000000019600000000001921000000000195400016000000000000002000000000000003848700000000000000009999123100000010000000000000BROFSAACNOR7118
012024072902ONCO3       010ONCOCLINICASON      NM   R$  000000000072400000000007270000000000682000000000070200000000006820000000000682000000000068304073000000000002375800000000001668724000000000000000009999123100000010000000000000BRONCOACNOR6101
012024072902OPCT3       010OCEANPACT   ON      NM   R$  000000000066000000000006600000000000629000000000063600000000006380000000000635000000000063801949000000000000564700000000000359220100000000000000009999123100000010000000000000BROPCTACNOR0100
012024072902ORVR3       010ORIZON      ON      NM   R$  000000000439500000000043950000000004282000000000432000000000043250000000004318000000000432501957000000000000332800000000001437754300000000000000009999123100000010000000000000BRORVRACNOR0101
012024072902PATI3       010PANATLANTICAON           R$  000000000250000000000025000000000002500000000000250000000000025000000000002450000000000250000001000000000000000100000000000000250000000000000000009999123100000010000000000000BRPATIACNOR6065
012024072902PCAR3       010P.ACUCAR-CBDON      NM   R$  000000000028700000000002880000000000272000000000027600000000002740000000000273000000000027405782000000000013357100000000003692264800000000000000009999123100000010000000000000BRPCARACNOR3167
012024072902PETZ3       010PETZ        ON      NM   R$  000000000037200000000003780000000000355000000000036100000000003550000000000355000000000035604396000000000004123900000000001491290500000000000000009999123100000010000000000000BRPETZACNOR2110
012024072902ANIM3       010ANIMA       ON  ATZ NM   R$  000000000034600000000003510000000000338000000000034200000000003450000000000344000000000034504587000000000002327800000000000798093500000000000000009999123100000010000000000000BRANIMACNOR6108
012024072902APER3       010ALPER S.A.  ON           R$  000000000450600000000045090000000004500000000000450400000000045070000000004500000000000453900014000000000000002500000000000011260500000000000000009999123100000010000000000000BRAPERACNOR9106
012024072902ARML3       010ARMAC       ON      NM   R$  000000000095900000000009630000000000919000000000093400000000009190000000000919000000000092703915000000000001007200000000000941519200000000000000009999123100000010000000000000BRARMLACNOR1112
012024072902ARZZ3       010AREZZO CO   ON      NM   R$  000000000510000000000051480000000004965000000000500000000000049760000000004972000000000497602974000000000000932600000000004663859300000000000000009999123100000010000000000000BRARZZACNOR3147
012024072902ASAI3       010ASSAI       ON      NM   R$  000000000098800000000009960000000000940000000000095700000000009550000000000954000000000095520055000000000014084800000000013490503900000000000000009999123100000010000000000000BRASAIACNOR0106
012024072902BBSE3       010BBSEGURIDADEON      NM   R$  000000000346700000000034900000000003448000000000347000000000034680000000003467000000000347209321000000000004568900000000015858266400000000000000009999123100000010000000000000BRBBSEACNOR5124
012024072902BPAC11      010BTGP BANCO  UNT     N2   R$  000000000324500000000032560000000003222000000000323700000000032300000000003230000000000323316542000000000006230500000000020170102500000000000000009999123100000010000000000000BRBPACUNT006119
012024072902BPAC3       010BTGP BANCO  ON      N2   R$  000000000157000000000015700000000001545000000000154800000000015500000000001545000000000156900034000000000000004900000000000007585300000000000000009999123100000010000000000000BRBPACACNOR7134
012024072902BPAC5       010BTGP BANCO  PNA     N2   R$  000000000084300000000008520000000000822000000000084000000000008390000000000839000000000085500026000000000000004100000000000003445300000000000000009999123100000010000000000000BRBPACACNPA0134
012024072902CSED3       010CRUZEIRO EDUON      NM   R$  000000000040000000000004070000000000393000000000039800000000003950000000000394000000000039600592000000000000172300000000000068696200000000000000009999123100000010000000000000BRCSEDACNOR9104
012024072902CSMG3       010COPASA      ON      NM   R$  000000000220900000000022270000000002169000000000220200000000022090000000002208000000000221904868000000000000905500000000001994191400000000000000009999123100000010000000000000BRCSMGACNOR5174
012024072902CSNA3       010SID NACIONALON           R$  000000000120800000000012140000000001178000000000119200000000011920000000001191000000000119208395000000000011756600000000014023354200000000000000009999123100000010000000000000BRCSNAACNOR6261
012024072902GRND3       010GRENDENE    ON      NM   R$  000000000059500000000005960000000000588000000000058900000000005920000000000591000000000059202040000000000000564500000000000333032700000000000000009999123100000010000000000000BRGRNDACNOR3174
012024072902ZAMP3       010ZAMP S.A.   ON  ES       R$  000000000035000000000003590000000000337000000000034400000000003510000000000349000000000035102296000000000000672600000000000231487700000000000000009999123100000010000000000000BRZAMPACNOR5101
012024072902MILS3       010MILLS       ON      NM   R$  000000000112900000000011300000000001114000000000111900000000011140000000001114000000000112501680000000000000473800000000000530428400000000000000009999123100000010000000000000BRMILSACNOR2127
012024072902MLAS3       010MULTILASER  ON      NM   R$  000000000019900000000002000000000000192000000000019400000000001920000000000192000000000019402447000000000001204100000000000233859300000000000000009999123100000010000000000000BRMLASACNOR9101
012024072902MNDL3       010MUNDIAL     ON           R$  000000000157900000000015990000000001579000000000158600000000015990000000001400000000000159900003000000000000000300000000000000475800000000000000009999123100000010000000000000BRMNDLACNOR4109
012024072902MNPR3       010MINUPAR     ON           R$  000000000137700000000015000000000001377000000000143800000000014880000000001408000000000148900035000000000000006500000000000009349900000000000000009999123100000010000000000000BRMNPRACNOR5122
012024072902MOVI3       010MOVIDA      ON      NM   R$  000000000063500000000006550000000000619000000000062900000000006200000000000619000000000062008712000000000004450000000000002802685000000000000000009999123100000010000000000000BRMOVIACNOR0122
012024072902MRFG3       010MARFRIG     ON      NM   R$  000000000113600000000011520000000001119000000000113400000000011200000000001119000000000112210842000000000004366200000000004953679800000000000000009999123100000010000000000000BRMRFGACNOR0116
012024072902SAPR11      010SANEPAR     UNT     N2   R$  000000000267100000000026790000000002649000000000265900000000026560000000002655000000000266203251000000000000678200000000001803651300000000000000009999123100000010000000000000BRSAPRCDAM13118
012024072902SAPR3       010SANEPAR     ON      N2   R$  000000000050700000000005070000000000497000000000050000000000005010000000000500000000000050300617000000000000189900000000000095002900000000000000009999123100000010000000000000BRSAPRACNOR9159
012024072902SAPR4       010SANEPAR     PN      N2   R$  000000000054200000000005450000000000536000000000053900000000005410000000000541000000000054202382000000000001249300000000000674588100000000000000009999123100000010000000000000BRSAPRACNPR6159
012024072902SBFG3       010GRUPO SBF   ON      NM   R$  000000000145300000000015160000000001405000000000146400000000014980000000001498000000000150010909000000000004512100000000006607221500000000000000009999123100000010000000000000BRSBFGACNOR1103
012024072902SBSP3       010SABESP      ON      NM   R$  000000000866000000000087050000000008574000000000863100000000086560000000008656000000000865811119000000000002791200000000024091451400000000000000009999123100000010000000000000BRSBSPACNOR5161
012024072902WEST3       010WESTWING    ON      NM   R$  000000000008500000000000870000000000085000000000008500000000000870000000000085000000000008700046000000000000028900000000000002478400000000000000009999123100000010000000000000BRWESTACNOR3100
012024072902WHRL4       010WHIRLPOOL   PN           R$  000000000044500000000004540000000000445000000000044800000000004480000000000446000000000044800009000000000000001100000000000000493400000000000000009999123100000010000000000000BRWHRLACNPR2128
012024072902WIZC3       010WIZ CO      ON      NM   R$  000000000058800000000005950000000000580000000000058300000000005850000000000584000000000058500879000000000000240000000000000140157600000000000000009999123100000010000000000000BRWIZCACNOR5102
012024072902WLMM4       010WLM IND COM PN           R$  000000000315000000000031870000000003042000000000312400000000031870000000002700000000000316200005000000000000000500000000000001562300000000000000009999123100000010000000000000BRWLMMACNPR3118
012024072902RSUL4       010RIOSULENSE  PN           R$  000000000610000000000062000000000006050000000000608200000000060930000000006021000000000609900041000000000000004700000000000028587300000000000000009999123100000010000000000000BRRSULACNPR3114
012024072902SANB11      010SANTANDER BRUNT EJ       R$  000000000279200000000028550000000002792000000000282000000000028540000000002852000000000285404551000000000003850900000000010861199600000000000000009999123100000010000000000000BRSANBCDAM13165
012024072902SANB3       010SANTANDER BRON  EJ       R$  000000000132900000000013640000000001324000000000134000000000013640000000001356000000000136400452000000000000068300000000000091523800000000000000009999123100000010000000000000BRSANBACNOR8172
012024072902SANB4       010SANTANDER BRPN  EJ       R$  000000000149600000000014970000000001464000000000148000000000014960000000001490000000000149700496000000000000068200000000000100988000000000000000009999123100000010000000000000BRSANBACNPR5172
012024072902TTEN3       0103TENTOS     ON      NM   R$  000000000110400000000011090000000001067000000000107900000000010670000000001067000000000107402665000000000000525500000000000567502000000000000000009999123100000010000000000000BRTTENACNOR0103
012024072902TUPY3       010TUPY        ON      NM   R$  000000000252400000000025320000000002483000000000249800000000024930000000002485000000000249301594000000000000281900000000000704233000000000000000009999123100000010000000000000BRTUPYACNOR1184
012024072902UCAS3       010UNICASA     ON      NM   R$  000000000023100000000002310000000000226000000000022700000000002270000000000226000000000022700069000000000000011600000000000002640600000000000000009999123100000010000000000000BRUCASACNOR1113
012024072902UGPA3       010ULTRAPAR    ON      NM   R$  000000000227000000000022840000000002256000000000226800000000022670000000002266000000000227307044000000000001857400000000004213149100000000000000009999123100000010000000000000BRUGPAACNOR8155
012024072902UNIP3       010UNIPAR      ON           R$  000000000497000000000050120000000004956000000000498500000000049750000000004974000000000497600045000000000000005800000000000028913600000000000000009999123100000010000000000000BRUNIPACNOR7206
012024072902UNIP6       010UNIPAR      PNB          R$  000000000506500000000050650000000004995000000000502500000000050310000000005031000000000503900720000000000000140300000000000705090300000000000000009999123100000010000000000000BRUNIPACNPB8206
012024072902USIM3       010USIMINAS    ON      N1   R$  000000000060500000000006150000000000562000000000057500000000005760000000000576000000000057705452000000000002407400000000001386613800000000000000009999123100000010000000000000BRUSIMACNOR3167
012024072902USIM5       010USIMINAS    PNA     N1   R$  000000000063700000000006500000000000598000000000061000000000006050000000000605000000000060640933000000000065303000000000039849192600000000000000009999123100000010000000000000BRUSIMACNPA6169
012024072902VLID3       010VALID       ON      NM   R$  000000000170100000000017050000000001658000000000167100000000016630000000001663000000000167501082000000000000175100000000000292689400000000000000009999123100000010000000000000BRVLIDACNOR5143
012024072902VSTE3       010VESTE       ON      NM   R$  000000000138800000000014080000000001383000000000139100000000013830000000001383000000000142000030000000000000005700000000000007929900000000000000009999123100000010000000000000BRVSTEACNOR5103
012024072902VTRU3       010VITRUEDUCA  ON      NM   R$  000000000130500000000013400000000001285000000000130300000000012850000000001285000000000129500245000000000000061200000000000079747400000000000000009999123100000010000000000000BRVTRUACNOR3100
012024072902VULC3       010VULCABRAS   ON      NM   R$  000000000155800000000015700000000001533000000000154500000000015560000000001544000000000155702476000000000000441300000000000681842000000000000000009999123100000010000000000000BRVULCACNOR2159
012024072902VVEO3       010VIVEO       ON      NM   R$  000000000022300000000002260000000000215000000000021900000000002190000000000219000000000022102760000000000001696800000000000373190800000000000000009999123100000010000000000000BRVVEOACNOR0104
012024072902MERC4       010MERC FINANC PN           R$  000000000103500000000010350000000001035000000000103500000000010350000000000901000000000103400001000000000000000100000000000000103500000000000000009999123100000010000000000000BRMERCACNPR9180
012024072902MGEL4       010MANGELS INDLPN           R$  000000000135400000000013550000000001317000000000134800000000013180000000001317000000000134500016000000000000012400000000000016724800000000000000009999123100000010000000000000BRMGELACNPR3147
012024072902MGLU3       010MAGAZ LUIZA ON      NM   R$  000000000119500000000011980000000001107000000000113600000000011200000000001120000000000112123924000000000026819200000000030476998500000000000000009999123100000010000000000000BRMGLUACNOR2124
012024072902POSI3       010POSITIVO TECON      NM   R$  000000000069500000000007030000000000668000000000067700000000006720000000000671000000000067204857000000000001953500000000001324426900000000000000009999123100000010000000000000BRPOSIACNOR9116
012024072902PRIO3       010PETRORIO    ON      NM   R$  000000000476200000000048680000000004691000000000475100000000047180000000004718000000000473025256000000000009700800000000046097312300000000000000009999123100000010000000000000BRPRIOACNOR1107
012024072902QUAL3       010QUALICORP   ON      NM   R$  000000000015700000000001590000000000150000000000015300000000001520000000000151000000000015201475000000000001561800000000000239122600000000000000009999123100000010000000000000BRQUALACNOR6120
012024072902RADL3       010RAIADROGASILON      NM   R$  000000000271200000000027600000000002711000000000273100000000027300000000002727000000000273013607000000000005952900000000016259727000000000000000009999123100000010000000000000BRRADLACNOR0157
012024072902SMFT3       010SMART FIT   ON      NM   R$  000000000212500000000021610000000002097000000000213100000000021450000000002144000000000215007364000000000003001700000000006398494200000000000000009999123100000010000000000000BRSMFTACNOR1112
012024072902SMTO3       010SAO MARTINHOON  ED  NM   R$  000000000302900000000030300000000002946000000000297000000000029730000000002973000000000297704708000000000000999600000000002969787900000000000000009999123100000010000000000000BRSMTOACNOR3127
012024072902VALE3       010VALE        ON      NM   R$  000000000616900000000061800000000006115000000000614400000000061580000000006157000000000615858855000000000028005900000000172075233800000000000000009999123100000010000000000000BRVALEACNOR0210
012024072902VITT3       010VITTIA      ON      NM   R$  000000000062300000000006230000000000607000000000061200000000006100000000000610000000000061301840000000000000259900000000000159115500000000000000009999123100000010000000000000BRVITTACNOR4107
012024072902GSHP3       010GENERALSHOPPON           R$  000000000105000000000010500000000001050000000000105000000000010500000000001050000000000149200001000000000000000100000000000000105000000000000000009999123100000010000000000000BRGSHPACNOR7102
012024072902GUAR3       010GUARARAPES  ON      NM   R$  000000000070700000000007110000000000682000000000069000000000006870000000000687000000000068802100000000000000765200000000000528265400000000000000009999123100000010000000000000BRGUARACNOR4173
012024072902HAGA3       010HAGA S/A    ON           R$  000000000027000000000002840000000000259000000000027100000000002650000000000265000000000027000091000000000000027300000000000007417400000000000000009999123100000010000000000000BRHAGAACNOR7103
012024072902ALLD3       010ALLIED      ON      NM   R$  000000000079500000000007960000000000760000000000077300000000007720000000000766000000000077200323000000000000072100000000000055739600000000000000009999123100000010000000000000BRALLDACNOR3106
012024072902ALOS3       010ALLOS       ON      NM   R$  000000000216700000000021800000000002141000000000215500000000021610000000002160000000000216507922000000000001939000000000004180145000000000000000009999123100000010000000000000BRALOSACNOR5101
012024072902ALPA3       010ALPARGATAS  ON      N1   R$  000000000082800000000008440000000000815000000000081700000000008150000000000811000000000084400013000000000000005400000000000004412500000000000000009999123100000010000000000000BRALPAACNOR0231
012024072902ALPA4       010ALPARGATAS  PN      N1   R$  000000000086100000000008730000000000857000000000086300000000008650000000000865000000000086704761000000000001523700000000001315037100000000000000009999123100000010000000000000BRALPAACNPR7232
012024072902ALPK3       010ESTAPAR     ON      NM   R$  000000000035500000000003600000000000349000000000035200000000003540000000000349000000000035400210000000000000088700000000000031253200000000000000009999123100000010000000000000BRALPKACNOR9101
012024072902ALUP11      010ALUPAR      UNT     N2   R$  000000000311900000000031380000000003111000000000312200000000031180000000003115000000000312203307000000000000561700000000001753772600000000000000009999123100000010000000000000BRALUPCDAM15119
012024072902ALUP3       010ALUPAR      ON      N2   R$  000000000107300000000010780000000001055000000000106100000000010560000000001055000000000106900038000000000000004200000000000004459800000000000000009999123100000010000000000000BRALUPACNOR8119
012024072902ALUP4       010ALUPAR      PN      N2   R$  000000000102400000000010340000000001020000000000102700000000010250000000001018000000000102600051000000000000009100000000000009350800000000000000009999123100000010000000000000BRALUPACNPR5119
012024072902AMAR3       010LOJAS MARISAON      NM   R$  000000000014200000000001440000000000141000000000014200000000001430000000000141000000000014300270000000000000114800000000000016311500000000000000009999123100000010000000000000BRAMARACNOR4115
012024072902AMBP3       010AMBIPAR     ON      NM   R$  000000000411000000000043460000000004017000000000415600000000040170000000004017000000000404817060000000000005086500000000021142997400000000000000009999123100000010000000000000BRAMBPACNOR6103
012024072902HAGA4       010HAGA S/A    PN           R$  000000000011800000000001200000000000115000000000011600000000001150000000000115000000000011800018000000000000008100000000000000945500000000000000009999123100000010000000000000BRHAGAACNPR4103
012024072902HAPV3       010HAPVIDA     ON      NM   R$  000000000041800000000004250000000000411000000000041700000000004160000000000416000000000041716555000000000034669200000000014487716700000000000000009999123100000010000000000000BRHAPVACNOR4114
012024072902HBOR3       010HELBOR      ON      NM   R$  000000000022800000000002330000000000223000000000022700000000002250000000000225000000000022600300000000000000283400000000000064556400000000000000009999123100000010000000000000BRHBORACNOR3118
012024072902HBRE3       010HBR REALTY  ON      NM   R$  000000000055900000000005590000000000538000000000054400000000005420000000000542000000000054400466000000000000253500000000000138057400000000000000009999123100000010000000000000BRHBREACNOR4100
012024072902HBSA3       010HIDROVIAS   ON      NM   R$  000000000035800000000003600000000000346000000000035200000000003550000000000355000000000035605524000000000005037800000000001775003500000000000000009999123100000010000000000000BRHBSAACNOR0100
012024072902JOPA3       010JOSAPAR     ON           R$  000000000228700000000022890000000002287000000000228800000000022890000000002110000000000228900002000000000000000200000000000000457600000000000000009999123100000010000000000000BRJOPAACNOR5135
012024072902JSLG3       010JSL         ON      NM   R$  000000000096500000000009750000000000931000000000094500000000009370000000000933000000000093700728000000000000155400000000000146970000000000000000009999123100000010000000000000BRJSLGACNOR2121
012024072902VIVA3       010VIVARA S.A. ON      NM   R$  000000000231000000000023280000000002267000000000229900000000023110000000002311000000000231907043000000000002036000000000004682094700000000000000009999123100000010000000000000BRVIVAACNOR0107
012024072902VIVR3       010VIVER       ON      NM   R$  000000000022800000000002600000000000228000000000025000000000002590000000000258000000000025900624000000000000316500000000000079256200000000000000009999123100000010000000000000BRVIVRACNOR4123
012024072902VIVT3       010TELEF BRASILON  EJ       R$  000000000481100000000048650000000004792000000000482100000000048250000000004825000000000482710721000000000002277900000000010982273800000000000000009999123100000010000000000000BRVIVTACNOR0183
012024072902RECV3       010PETRORECSA  ON      NM   R$  000000000210400000000021130000000002037000000000205900000000020500000000002050000000000205405059000000000001376900000000002835232100000000000000009999123100000010000000000000BRRECVACNOR3107
012024072902REDE3       010REDE ENERGIAON           R$  000000000069500000000006950000000000688000000000068900000000006880000000000689000000000069200022000000000000003800000000000002620500000000000000009999123100000010000000000000BRREDEACNOR7128
012024072902RENT3       010LOCALIZA    ON      NM   R$  000000000439200000000044280000000004254000000000428900000000042600000000004258000000000426320846000000000005681300000000024371000900000000000000009999123100000010000000000000BRRENTACNOR4196
012024072902SYNE3       010SYN PROP TECON      NM   R$  000000000102000000000010340000000001015000000000102300000000010150000000001015000000000102501063000000000000176000000000000180206800000000000000009999123100000010000000000000BRSYNEACNOR2102
012024072902KEPL3       010KEPLER WEBERON      NM   R$  000000000106400000000010660000000001028000000000104200000000010340000000001034000000000103602873000000000001037100000000001081001000000000000000009999123100000010000000000000BRKEPLACNOR1063
012024072902KLBN11      010KLABIN S/A  UNT     N2   R$  000000000213700000000022040000000002120000000000217100000000021880000000002187000000000218812354000000000006415200000000013930245200000000000000009999123100000010000000000000BRKLBNCDAM18142
012024072902KLBN3       010KLABIN S/A  ON      N2   R$  000000000042800000000004420000000000425000000000043300000000004420000000000439000000000044200976000000000000452500000000000196291000000000000000009999123100000010000000000000BRKLBNACNOR2170
012024072902KLBN4       010KLABIN S/A  PN      N2   R$  000000000042600000000004390000000000424000000000043100000000004380000000000437000000000043802605000000000001497000000000000646132800000000000000009999123100000010000000000000BRKLBNACNPR9170
012024072902TAEE11      010TAESA       UNT     N2   R$  000000000338700000000033940000000003376000000000338400000000033840000000003384000000000338503966000000000000780200000000002640684100000000000000009999123100000010000000000000BRTAEECDAM10147
012024072902TAEE3       010TAESA       ON      N2   R$  000000000112200000000011270000000001121000000000112300000000011230000000001123000000000112500467000000000000088000000000000098839700000000000000009999123100000010000000000000BRTAEEACNOR9147
012024072902MYPK3       010IOCHP-MAXIONON      NM   R$  000000000127400000000013000000000001221000000000125300000000012210000000001221000000000122304640000000000001307300000000001639198700000000000000009999123100000010000000000000BRMYPKACNOR7155
012024072902GGPS3       010GPS         ON      NM   R$  000000000170100000000017290000000001688000000000169300000000016910000000001690000000000169206329000000000003493100000000005916313100000000000000009999123100000010000000000000BRGGPSACNOR9103
012024072902GMAT3       010GRUPO MATEUSON      NM   R$  000000000069400000000006950000000000666000000000067200000000006670000000000667000000000066805099000000000004852500000000003264484100000000000000009999123100000010000000000000BRGMATACNOR7102
012024072902GOAU3       010GERDAU MET  ON      N1   R$  000000000108000000000010800000000001058000000000106400000000010690000000001065000000000106900132000000000000024200000000000025768700000000000000009999123100000010000000000000BRGOAUACNOR1267
012024072902GOAU4       010GERDAU MET  PN      N1   R$  000000000106200000000010660000000001048000000000105500000000010570000000001057000000000105805644000000000003453000000000003645566600000000000000009999123100000010000000000000BRGOAUACNPR8268
012024072902JHSF3       010JHSF PART   ON      NM   R$  000000000040200000000004030000000000397000000000040000000000004010000000000401000000000040202608000000000002281900000000000913000800000000000000009999123100000010000000000000BRJHSFACNOR2137
012024072902MRVE3       010MRV         ON      NM   R$  000000000067300000000006780000000000653000000000065700000000006550000000000655000000000065608908000000000011477400000000007542757600000000000000009999123100000010000000000000BRMRVEACNOR2127
012024072902NEOE3       010NEOENERGIA  ON      NM   R$  000000000182000000000018390000000001809000000000182800000000018390000000001839000000000184002909000000000000873900000000001598343900000000000000009999123100000010000000000000BRNEOEACNOR3123
012024072902AALR3       010ALLIAR      ON      NM   R$  000000000111500000000011280000000001090000000000112200000000010960000000001094000000000111500089000000000000063200000000000070972400000000000000009999123100000010000000000000BRAALRACNOR6102
012024072902ABCB4       010ABC BRASIL  PN      N2   R$  000000000224000000000022440000000002214000000000222400000000022380000000002237000000000223901586000000000000230000000000000511603800000000000000009999123100000010000000000000BRABCBACNPR4146
012024072902ABEV3       010AMBEV S/A   ON           R$  000000000118700000000011880000000001176000000000118200000000011820000000001181000000000118221530000000000038125500000000045067676900000000000000009999123100000010000000000000BRABEVACNOR1128
012024072902BBDC3       010BRADESCO    ON      N1   R$  000000000113300000000011370000000001123000000000113000000000011330000000001132000000000113311496000000000004760600000000005379960500000000000000009999123100000010000000000000BRBBDCACNOR1772
012024072902BBDC4       010BRADESCO    PN      N1   R$  000000000124500000000012520000000001235000000000124400000000012500000000001249000000000125017929000000000020952000000000026080710100000000000000009999123100000010000000000000BRBBDCACNPR8772
012024072902NGRD3       010NEOGRID     ON      NM   R$  000000000011100000000001130000000000109000000000011000000000001120000000000111000000000011200365000000000000391900000000000043482800000000000000009999123100000010000000000000BRNGRDACNOR3104
012024072902NINJ3       010GETNINJAS   ON      NM   R$  000000000046900000000004740000000000467000000000047100000000004740000000000467000000000047400020000000000000003100000000000001461000000000000000009999123100000010000000000000BRNINJACNOR5101
012024072902NORD3       010NORDON MET  ON           R$  000000000094100000000009410000000000711000000000080800000000007870000000000719000000000087000025000000000000002600000000000002101200000000000000009999123100000010000000000000BRNORDACNOR7135
012024072902NTCO3       010GRUPO NATURAON      NM   R$  000000000152500000000015400000000001521000000000153000000000015310000000001530000000000153116094000000000008289100000000012685717900000000000000009999123100000010000000000000BRNTCOACNOR5106
012024072902SCAR3       010SAO CARLOS  ON      NM   R$  000000000238000000000024500000000002364000000000239200000000023800000000002330000000000238000050000000000000010400000000000024885300000000000000009999123100000010000000000000BRSCARACNOR7131
012024072902CPLE3       010COPEL       ON      N2   R$  000000000090400000000009090000000000892000000000090200000000009040000000000903000000000090507095000000000004935300000000004453158200000000000000009999123100000010000000000000BRCPLEACNOR8149
012024072902CPLE6       010COPEL       PNB     N2   R$  000000000100800000000010140000000000999000000000100800000000010120000000001012000000000101313661000000000011710600000000011815195100000000000000009999123100000010000000000000BRCPLEACNPB9146
012024072902CRFB3       010CARREFOUR BRON      NM   R$  000000000091300000000009210000000000890000000000089700000000008950000000000895000000000089613078000000000005630300000000005052188800000000000000009999123100000010000000000000BRCRFBACNOR2116
012024072902CRPG5       010CRISTAL     PNA          R$  000000000294500000000029450000000002903000000000291800000000029030000000002901000000000293000006000000000000000600000000000001750900000000000000009999123100000010000000000000BRCRPGACNPA3119
012024072902CSAN3       010COSAN       ON      NM   R$  000000000137000000000013730000000001340000000000134600000000013440000000001344000000000134610493000000000004689300000000006312356400000000000000009999123100000010000000000000BRCSANACNOR6126
012024072902SEER3       010SER EDUCA   ON      NM   R$  000000000053000000000005330000000000507000000000051400000000005080000000000508000000000051300747000000000000181100000000000093170800000000000000009999123100000010000000000000BRSEERACNOR5119
012024072902SEQL3       010SEQUOIA LOG ON      NM   R$  000000000039200000000004080000000000389000000000039900000000003900000000000388000000000039000469000000000000234400000000000093606700000000000000009999123100000010000000000000BRSEQLACNOR2103
012024072902SHOW3       010TIME FOR FUNON      NM   R$  000000000015400000000001540000000000152000000000015200000000001520000000000152000000000015300153000000000000032300000000000004923800000000000000009999123100000010000000000000BRSHOWACNOR7105
012024072902SHUL4       010SCHULZ      PN           R$  000000000063400000000006340000000000608000000000061500000000006120000000000612000000000061401095000000000000549600000000000338067200000000000000009999123100000010000000000000BRSHULACNPR4156
012024072902SIMH3       010SIMPAR      ON      NM   R$  000000000064000000000006630000000000616000000000063000000000006160000000000616000000000062003864000000000002682200000000001692304300000000000000009999123100000010000000000000BRSIMHACNOR0107
012024072902SLCE3       010SLC AGRICOLAON      NM   R$  000000000183300000000018430000000001820000000000182400000000018200000000001820000000000182103398000000000000817700000000001491867300000000000000009999123100000010000000000000BRSLCEACNOR2125
012024072902AERI3       010AERIS       ON      NM   R$  000000000058700000000006000000000000554000000000057100000000005540000000000554000000000056300608000000000000197900000000000113042700000000000000009999123100000010000000000000BRAERIACNOR4102
012024072902AESB3       010AES BRASIL  ON      NM   R$  000000000113700000000011380000000001134000000000113500000000011380000000001136000000000113801550000000000003395800000000003856593900000000000000009999123100000010000000000000BRAESBACNOR7106
012024072902AGRO3       010BRASILAGRO  ON      NM   R$  000000000268700000000026870000000002636000000000265300000000026360000000002636000000000264400957000000000000125300000000000332504300000000000000009999123100000010000000000000BRAGROACNOR7114
012024072902AGXY3       010AGROGALAXY  ON      NM   R$  000000000014000000000001480000000000139000000000014200000000001420000000000141000000000014200418000000000000194000000000000027603800000000000000009999123100000010000000000000BRAGXYACNOR4103
012024072902YDUQ3       010YDUQS PART  ON      NM   R$  000000000109600000000011120000000001083000000000109700000000010910000000001090000000000109408460000000000004065200000000004460207800000000000000009999123100000010000000000000BRYDUQACNOR3105
012024072902MTRE3       010MITRE REALTYON  ED  NM   R$  000000000039600000000003960000000000380000000000038600000000003800000000000380000000000038400980000000000000459100000000000177214500000000000000009999123100000010000000000000BRMTREACNOR6113
012024072902MTSA4       010METISA      PN           R$  000000000423200000000043050000000004231000000000426400000000042900000000004236000000000429000018000000000000002400000000000010233700000000000000009999123100000010000000000000BRMTSAACNPR9072
012024072902MULT3       010MULTIPLAN   ON      N2   R$  000000000242600000000024260000000002374000000000239100000000023920000000002391000000000239908776000000000002033500000000004863148100000000000000009999123100000010000000000000BRMULTACNOR5139
012024072902WEGE3       010WEG         ON      NM   R$  000000000467300000000047020000000004640000000000464800000000046480000000004647000000000465013184000000000003952200000000018372054600000000000000009999123100000010000000000000BRWEGEACNOR0223
012024072902TASA3       010TAURUS ARMASON      N2   R$  000000000118400000000011840000000001151000000000115800000000011540000000001153000000000116000049000000000000009800000000000011350400000000000000009999123100000010000000000000BRTASAACNOR7104
012024072902TASA4       010TAURUS ARMASPN      N2   R$  000000000117400000000011740000000001140000000000114600000000011420000000001142000000000114400947000000000000202100000000000231772000000000000000009999123100000010000000000000BRTASAACNPR4104
012024072902TCSA3       010TECNISA     ON      NM   R$  000000000021800000000002220000000000213000000000021600000000002140000000000214000000000021600106000000000000051500000000000011171200000000000000009999123100000010000000000000BRTCSAACNOR3112
012024072902IFCM3       010INFRACOMM   ON      NM   R$  000000000003600000000000370000000000035000000000003500000000000350000000000035000000000003601667000000000003091400000000000110093300000000000000009999123100000010000000000000BRIFCMACNOR8101
012024072902IGTI11      010IGUATEMI S.AUNT     N1   R$  000000000210300000000021080000000002085000000000209700000000021000000000002100000000000210506789000000000003525800000000007394135500000000000000009999123100000010000000000000BRIGTICDAM16106
012024072902IGTI3       010IGUATEMI S.AON      N1   R$  000000000026400000000002640000000000261000000000026100000000002620000000000261000000000026200060000000000000020600000000000005393000000000000000009999123100000010000000000000BRIGTIACNOR8106
012024072902IGTI4       010IGUATEMI S.APN      N1   R$  000000000092000000000009240000000000920000000000092200000000009240000000000900000000000108500002000000000000000200000000000000184400000000000000009999123100000010000000000000BRIGTIACNPR5106
012024072902INEP3       010INEPAR      ON           R$  000000000020000000000002030000000000194000000000019700000000001950000000000193000000000019500083000000000000061200000000000012083300000000000000009999123100000010000000000000BRINEPACNOR1143
012024072902INEP4       010INEPAR      PN           R$  000000000020400000000002050000000000195000000000020100000000001950000000000195000000000019700027000000000000008800000000000001769700000000000000009999123100000010000000000000BRINEPACNPR8143
012024072902INTB3       010INTELBRAS   ON      NM   R$  000000000224000000000022600000000002195000000000221800000000021950000000002194000000000220503631000000000000937900000000002080759000000000000000009999123100000010000000000000BRINTBACNOR9111
012024072902IRBR3       010IRBBRASIL REON      NM   R$  000000000292100000000029350000000002872000000000289300000000029070000000002902000000000290802386000000000000703900000000002036842300000000000000009999123100000010000000000000BRIRBRACNOR4111
012024072902TECN3       010TECHNOS     ON      NM   R$  000000000052200000000005500000000000522000000000053900000000005390000000000536000000000053900417000000000000130800000000000070518500000000000000009999123100000010000000000000BRTECNACNOR6109
012024072902TELB3       010TELEBRAS    ON           R$  000000000131400000000013140000000001300000000000130500000000013000000000001300000000000132400005000000000000000700000000000000913500000000000000009999123100000010000000000000BRTELBACNOR2140
012024072902TELB4       010TELEBRAS    PN           R$  000000000091300000000009300000000000905000000000091600000000009050000000000905000000000091800023000000000000004000000000000003664300000000000000009999123100000010000000000000BRTELBACNPR9140
012024072902TEND3       010TENDA       ON      NM   R$  000000000130000000000013030000000001246000000000126700000000012680000000001265000000000126802919000000000001227700000000001556556800000000000000009999123100000010000000000000BRTENDACNOR4111
012024072902TFCO4       010TRACK FIELD PN      N2   R$  000000000112700000000011290000000001109000000000112000000000011180000000001117000000000111800691000000000000118000000000000132189000000000000000009999123100000010000000000000BRTFCOACNPR8114
012024072902TGMA3       010TEGMA       ON      NM   R$  000000000248600000000024860000000002432000000000244500000000024390000000002439000000000245700732000000000000107200000000000262201300000000000000009999123100000010000000000000BRTGMAACNOR7144
012024072902TIMS3       010TIM         ON      NM   R$  000000000163500000000016380000000001597000000000161000000000016110000000001611000000000161617668000000000011759400000000018935540400000000000000009999123100000010000000000000BRTIMSACNOR5117
012024072902TOTS3       010TOTVS       ON      NM   R$  000000000279100000000028050000000002745000000000276100000000027680000000002767000000000278308113000000000002076500000000005735076600000000000000009999123100000010000000000000BRTOTSACNOR8144
012024072902TPIS3       010TRIUNFO PARTON      NM   R$  000000000037700000000003770000000000370000000000037200000000003700000000000370000000000037400038000000000000009300000000000003461100000000000000009999123100000010000000000000BRTPISACNOR8118
012024072902TRAD3       010TC          ON  EG  NM   R$  000000000037300000000003850000000000371000000000037500000000003730000000000370000000000037300189000000000000071900000000000026984400000000000000009999123100000010000000000000BRTRADACNOR3102
012024072902TRIS3       010TRISUL      ON      NM   R$  000000000050100000000005020000000000489000000000049200000000004890000000000489000000000049300900000000000000270100000000000133094800000000000000009999123100000010000000000000BRTRISACNOR4118
012024072902TRPL3       010TRAN PAULISTON      N1   R$  000000000320000000000032000000000003182000000000319800000000031990000000003184000000000322000018000000000000002100000000000006716100000000000000009999123100000010000000000000BRTRPLACNOR4185
012024072902TRPL4       010TRAN PAULISTPN      N1   R$  000000000247300000000024870000000002465000000000247600000000024800000000002480000000000248107461000000000002130500000000005275177900000000000000009999123100000010000000000000BRTRPLACNPR1185
012024072902VBBR3       010VIBRA       ON      NM   R$  000000000231700000000023450000000002297000000000231200000000023100000000002309000000000232009159000000000003315700000000007666635300000000000000009999123100000010000000000000BRVBBRACNOR1108
012024072902MATD3       010MATER DEI   ON      NM   R$  000000000049100000000004920000000000474000000000047900000000004740000000000474000000000047500950000000000000304500000000000146102500000000000000009999123100000010000000000000BRMATDACNOR4104
012024072902MBLY3       010MOBLY       ON      NM   R$  000000000027500000000003030000000000270000000000029100000000002970000000000297000000000029801226000000000001201900000000000350844000000000000000009999123100000010000000000000BRMBLYACNOR5100
012024072902MDIA3       010M.DIASBRANCOON      NM   R$  000000000277600000000028070000000002758000000000277300000000027580000000002758000000000276601312000000000000274400000000000761114700000000000000009999123100000010000000000000BRMDIAACNOR7135
012024072902MDNE3       010MOURA DUBEUXON      NM   R$  000000000137800000000013920000000001354000000000137000000000013750000000001368000000000137501603000000000000258100000000000353691700000000000000009999123100000010000000000000BRMDNEACNOR9100
012024072902MEAL3       010IMC S/A     ON      NM   R$  000000000015700000000001600000000000153000000000015700000000001600000000000157000000000016002048000000000000752400000000000118431900000000000000009999123100000010000000000000BRMEALACNOR9105
012024072902MELK3       010MELNICK     ON      NM   R$  000000000034600000000003500000000000339000000000034200000000003450000000000342000000000034500293000000000000173700000000000059451800000000000000009999123100000010000000000000BRMELKACNOR8111
012024072902TAEE4       010TAESA       PN      N2   R$  000000000113100000000011350000000001130000000000113200000000011330000000001130000000000113300807000000000000194600000000000220425800000000000000009999123100000010000000000000BRTAEEACNPR6147
012024072902VAMO3       010VAMOS       ON      NM   R$  000000000089800000000009040000000000853000000000086400000000008550000000000855000000000085809654000000000006422500000000005553754700000000000000009999123100000010000000000000BRVAMOACNOR7105
012024072902RANI3       010IRANI       ON      NM   R$  000000000087800000000008780000000000855000000000085900000000008550000000000855000000000085701824000000000000513200000000000441346000000000000000009999123100000010000000000000BRRANIACNOR5072
012024072902RAPT3       010RANDON PART ON  EJ  N1   R$  000000000094500000000009450000000000919000000000092900000000009360000000000924000000000093700115000000000000030200000000000028068000000000000000009999123100000010000000000000BRRAPTACNOR7163
012024072902RAPT4       010RANDON PART PN  EJ  N1   R$  000000000110500000000011050000000001059000000000107200000000010760000000001071000000000107702871000000000001306400000000001401516000000000000000009999123100000010000000000000BRRAPTACNPR4163
012024072902JALL3       010JALLESMACHADON  ED  NM   R$  000000000070700000000007070000000000686000000000069100000000006900000000000688000000000069001382000000000000352800000000000244107400000000000000009999123100000010000000000000BRJALLACNOR0106
012024072902JBSS3       010JBS         ON      NM   R$  000000000332500000000033680000000003286000000000334000000000033580000000003353000000000335918764000000000006489000000000021677822900000000000000009999123100000010000000000000BRJBSSACNOR8121
012024072902CMIN3       010CSNMINERACAOON      N2   R$  000000000050100000000005040000000000497000000000050000000000005020000000000501000000000050305449000000000004785100000000002395034800000000000000009999123100000010000000000000BRCMINACNOR2111
012024072902COCE5       010COELCE      PNA          R$  000000000304500000000031020000000003011000000000306000000000030110000000003011000000000311300064000000000000009800000000000029996200000000000000009999123100000010000000000000BRCOCEACNPA3147
012024072902COGN3       010COGNA ON    ON      NM   R$  000000000015800000000001610000000000154000000000015600000000001560000000000156000000000015711667000000000017593300000000002750990600000000000000009999123100000010000000000000BRCOGNACNOR2104
012024072902ESPA3       010ESPACOLASER ON      NM   R$  000000000009800000000000990000000000096000000000009700000000000980000000000097000000000009801523000000000000755000000000000073380800000000000000009999123100000010000000000000BRESPAACNOR7103
012024072902RCSL3       010RECRUSUL    ON           R$  000000000029400000000002950000000000280000000000028400000000002820000000000282000000000028400239000000000000109200000000000031051900000000000000009999123100000010000000000000BRRCSLACNOR4134
012024072902RCSL4       010RECRUSUL    PN           R$  000000000010400000000001060000000000103000000000010400000000001040000000000103000000000010401129000000000000613900000000000064065600000000000000009999123100000010000000000000BRRCSLACNPR1134
012024072902RDNI3       010RNI         ON      NM   R$  000000000031400000000003210000000000307000000000031600000000003170000000000309000000000031600064000000000000018500000000000005862600000000000000009999123100000010000000000000BRRDNIACNOR9116
012024072902RDOR3       010REDE D OR   ON      NM   R$  000000000282900000000028570000000002794000000000282000000000028250000000002825000000000282612766000000000003566500000000010058178100000000000000009999123100000010000000000000BRRDORACNOR8113
012024072902RAIL3       010RUMO S.A.   ON      NM   R$  000000000226200000000022710000000002234000000000224600000000022440000000002243000000000224717378000000000004213900000000009468068900000000000000009999123100000010000000000000BRRAILACNOR9105
012024072902RAIZ4       010RAIZEN      PN      N2   R$  000000000030500000000003080000000000299000000000030100000000003010000000000300000000000030112659000000000014916000000000004490438900000000000000009999123100000010000000000000BRRAIZACNPR6110
012024072902SNSY3       010SANSUY      ON           R$  000000000126000000000012650000000001245000000000125500000000012650000000001210000000000126500007000000000000001300000000000001632000000000000000009999123100000010000000000000BRSNSYACNOR2113
012024072902SNSY5       010SANSUY      PNA          R$  000000000056000000000005760000000000560000000000056500000000005760000000000551000000000057500004000000000000000600000000000000339500000000000000009999123100000010000000000000BRSNSYACNPA5111
012024072902SOJA3       010BOA SAFRA   ON      NM   R$  000000000153500000000015440000000001500000000000151700000000015020000000001501000000000150401011000000000000275400000000000417851200000000000000009999123100000010000000000000BRSOJAACNOR9105
012024072902SOMA3       010GRUPO SOMA  ON      NM   R$  000000000061700000000006230000000000602000000000060600000000006020000000000602000000000060404992000000000002130500000000001292997400000000000000009999123100000010000000000000BRSOMAACNOR3102
012024072902SRNA3       010SERENA      ON      NM   R$  000000000087000000000008770000000000863000000000086800000000008680000000000867000000000087006027000000000002403000000000002085864600000000000000009999123100000010000000000000BRSRNAACNOR4100
012024072902STBP3       010SANTOS BRP  ON      NM   R$  000000000137300000000013760000000001339000000000134700000000013440000000001344000000000134608849000000000004361200000000005878305600000000000000009999123100000010000000000000BRSTBPACNOR3130
012024072902SUZB3       010SUZANO S.A. ON      NM   R$  000000000517200000000053260000000005145000000000525900000000052780000000005275000000000527818451000000000005174400000000027214316500000000000000009999123100000010000000000000BRSUZBACNOR0130
012024072902PRNR3       010PRINER      ON      NM   R$  000000000107100000000010710000000001024000000000103900000000010410000000001038000000000104200941000000000000231300000000000240460500000000000000009999123100000010000000000000BRPRNRACNOR4109
012024072902PSSA3       010PORTO SEGUROON      NM   R$  000000000302100000000030280000000002997000000000301400000000030270000000003027000000000302802759000000000001027100000000003096060400000000000000009999123100000010000000000000BRPSSAACNOR7155
012024072902PTBL3       010PORTOBELLO  ON      NM   R$  000000000049500000000004950000000000483000000000048600000000004860000000000485000000000048602364000000000000384900000000000187259600000000000000009999123100000010000000000000BRPTBLACNOR8132
012024072902PTNT3       010PETTENATI   ON           R$  000000000095100000000009610000000000930000000000094400000000009300000000000930000000000094600014000000000000001900000000000001793900000000000000009999123100000010000000000000BRPTNTACNOR6042
012024072902PTNT4       010PETTENATI   PN           R$  000000000067000000000006700000000000649000000000065500000000006490000000000642000000000065000020000000000000005000000000000003279300000000000000009999123100000010000000000000BRPTNTACNPR3047
012024072902EUCA3       010EUCATEX     ON      N1   R$  000000000162500000000016250000000001625000000000162500000000016250000000001625000000000179800001000000000000000200000000000000325000000000000000009999123100000010000000000000BREUCAACNOR1157
012024072902EUCA4       010EUCATEX     PN      N1   R$  000000000156300000000015630000000001516000000000153100000000015350000000001535000000000154000315000000000000047100000000000072147300000000000000009999123100000010000000000000BREUCAACNPR8044
012024072902EVEN3       010EVEN        ON      NM   R$  000000000062500000000006250000000000605000000000061000000000006080000000000608000000000061201372000000000000374500000000000228500600000000000000009999123100000010000000000000BREVENACNOR8119
012024072902EZTC3       010EZTEC       ON      NM   R$  000000000135100000000013620000000001338000000000134400000000013430000000001343000000000134502699000000000000792300000000001065110000000000000000009999123100000010000000000000BREZTCACNOR0125
012024072902FESA4       010FERBASA     PN      N1   R$  000000000081700000000008210000000000798000000000080400000000008000000000000800000000000080101713000000000000646400000000000519916800000000000000009999123100000010000000000000BRFESAACNPR5084
012024072902FHER3       010FER HERINGERON      NM   R$  000000000040800000000004480000000000403000000000043500000000004330000000000427000000000043300146000000000000060100000000000026165900000000000000009999123100000010000000000000BRFHERACNOR5103
012024072902FIEI3       010FICA        ON           R$  000000000129900000000012990000000001299000000000129900000000012990000000001100000000000130000001000000000000000100000000000000129900000000000000009999123100000010000000000000BRFIEIACNOR2100
012024072902FIQE3       010UNIFIQUE    ON      NM   R$  000000000034200000000003420000000000338000000000033900000000003390000000000338000000000033901012000000000000422400000000000143483200000000000000009999123100000010000000000000BRFIQEACNOR5107
012024072902FLRY3       010FLEURY      ON      NM   R$  000000000152700000000015400000000001517000000000153100000000015310000000001530000000000153105034000000000001432200000000002193492100000000000000009999123100000010000000000000BRFLRYACNOR5138
012024072902FRAS3       010FRAS-LE     ON  EJ  N1   R$  000000000194400000000019440000000001890000000000190100000000018980000000001890000000000189802211000000000000551300000000001048301900000000000000009999123100000010000000000000BRFRASACNOR0160
012024072902CAMB3       010CAMBUCI     ON           R$  000000000112300000000011590000000001121000000000114800000000011590000000001150000000000115900270000000000000036500000000000041926900000000000000009999123100000010000000000000BRCAMBACNOR4130
012024072902CAML3       010CAMIL       ON      NM   R$  000000000088300000000008840000000000862000000000087200000000008700000000000870000000000087801768000000000000430500000000000375465700000000000000009999123100000010000000000000BRCAMLACNOR3128
012024072902CASH3       010MELIUZ      ON      NM   R$  000000000058500000000005850000000000573000000000057600000000005740000000000574000000000057601040000000000000531300000000000306173600000000000000009999123100000010000000000000BRCASHACNOR8106
012024072902CBAV3       010CBA         ON      NM   R$  000000000052800000000005390000000000523000000000052800000000005250000000000524000000000052504359000000000001815700000000000959609300000000000000009999123100000010000000000000BRCBAVACNOR5104
012024072902DASA3       010DASA        ON      NM   R$  000000000029500000000002950000000000274000000000027800000000002750000000000274000000000027502467000000000001645500000000000458021100000000000000009999123100000010000000000000BRDASAACNOR1122
012024072902DESK3       010DESKTOP     ON      NM   R$  000000000160300000000016540000000001603000000000162900000000016290000000001625000000000163002013000000000000359400000000000585651800000000000000009999123100000010000000000000BRDESKACNOR2104
012024072902DEXP3       010DEXXOS PAR  ON      N1   R$  000000000102600000000010450000000001023000000000103200000000010450000000001035000000000104500140000000000000030500000000000031485300000000000000009999123100000010000000000000BRDEXPACNOR1105
012024072902DEXP4       010DEXXOS PAR  PN      N1   R$  000000000102100000000010210000000001019000000000102100000000010200000000001016000000000102000012000000000000010400000000000010625000000000000000009999123100000010000000000000BRDEXPACNPR8105
012024072902DIRR3       010DIRECIONAL  ON      NM   R$  000000000281400000000028420000000002776000000000280600000000028050000000002805000000000280605412000000000001008100000000002829125300000000000000009999123100000010000000000000BRDIRRACNOR0118
012024072902DMVF3       010D1000VFARMA ON      NM   R$  000000000075600000000007880000000000751000000000077500000000007800000000000776000000000078000516000000000000071100000000000055129400000000000000009999123100000010000000000000BRDMVFACNOR9100
012024072902DOHL4       010DOHLER      PN           R$  000000000041700000000004170000000000417000000000041700000000004170000000000401000000000041700001000000000000000100000000000000041700000000000000009999123100000010000000000000BRDOHLACNPR9066
012024072902CURY3       010CURY S/A    ON      NM   R$  000000000215000000000021590000000002113000000000213400000000021330000000002133000000000214003935000000000000728700000000001555383400000000000000009999123100000010000000000000BRCURYACNOR3109
012024072902CVCB3       010CVC BRASIL  ON      NM   R$  000000000018500000000001880000000000181000000000018300000000001830000000000183000000000018404228000000000006152000000000001128713100000000000000009999123100000010000000000000BRCVCBACNOR1116
012024072902HBTS5       010HABITASUL   PNA          R$  000000000399900000000039990000000003999000000000399900000000039990000000003950000000000440100001000000000000000100000000000000399900000000000000009999123100000010000000000000BRHBTSACNPA3128
012024072902HYPE3       010HYPERA      ON  EJ  NM   R$  000000000291000000000029660000000002910000000000293800000000029450000000002936000000000294516702000000000006940400000000020396790500000000000000009999123100000010000000000000BRHYPEACNOR0143
012024072907NUTR3       010NUTRIPLANT  ON      MA   R$  000000000052700000000005390000000000504000000000052200000000005340000000000516000000000053700067000000000000011200000000000005853500000000000000009999123100000010000000000000BRNUTRACNOR0104
012024072908RNEW11      010RENOVA      UNT     N2   R$  000000000026600000000002680000000000265000000000026500000000002680000000000265000000000026900015000000000000009900000000000002629100000000000000009999123100000010000000000000BRRNEWCDAM15110
012024072908RNEW3       010RENOVA      ON      N2   R$  000000000008900000000000900000000000087000000000008800000000000870000000000087000000000008900037000000000000061200000000000005426300000000000000009999123100000010000000000000BRRNEWACNOR8110
012024072908RNEW4       010RENOVA      PN      N2   R$  000000000008800000000000900000000000087000000000008800000000000880000000000088000000000008900073000000000000071900000000000006359500000000000000009999123100000010000000000000BRRNEWACNPR5110
012024072908RPMG3       010PET MANGUINHON           R$  000000000030300000000003080000000000293000000000030000000000002930000000000288000000000029700167000000000000021900000000000006572500000000000000009999123100000010000000000000BRRPMGACNOR9194
012024072908CTNM4       010COTEMINAS   PN           R$  000000000011000000000001100000000000110000000000011000000000001100000000000106000000000011000030000000000000087800000000000009658000000000000000009999123100000010000000000000BRCTNMACNPR6129
012024072908CTSA3       010SANTANENSE  ON           R$  000000000031500000000003800000000000277000000000032300000000002770000000000276000000000028500256000000000000079900000000000025861500000000000000009999123100000010000000000000BRCTSAACNOR3062
012024072908CTSA4       010SANTANENSE  PN           R$  000000000017500000000002140000000000158000000000018200000000001610000000000161000000000016300875000000000000530200000000000096595100000000000000009999123100000010000000000000BRCTSAACNPR0062
012024072908ATMP3       010ATMASA      ON           R$  000000000019600000000001960000000000190000000000018800000000001900000000000190000000000019100011000000000000004000000000000000754000000000000000009999123100000010000000000000BRATMPACNOR8100
012024072908PMAM3       010PARANAPANEMAON      NM   R$  000000000023900000000002400000000000235000000000023600000000002360000000000236000000000023700099000000000000048900000000000011565100000000000000009999123100000010000000000000BRPMAMACNOR3039
012024072908LIGT3       010LIGHT S/A   ON      NM   R$  000000000042800000000004390000000000423000000000042800000000004230000000000423000000000042502724000000000000746000000000000319363300000000000000009999123100000010000000000000BRLIGTACNOR2124
012024072908OIBR3       010OI          ON      N1   R$  000000000044500000000004450000000000422000000000043000000000004220000000000422000000000042500840000000000000989800000000000426281000000000000000009999123100000010000000000000BROIBRACNOR1111
012024072908OIBR4       010OI          PN      N1   R$  000000000126800000000012690000000001230000000000123700000000012300000000001225000000000125500016000000000000002900000000000003588900000000000000009999123100000010000000000000BROIBRACNPR8110
012024072908OSXB3       010OSX BRASIL  ON      NM   R$  000000000038200000000003900000000000381000000000038500000000003820000000000381000000000038200020000000000000005500000000000002120900000000000000009999123100000010000000000000BROSXBACNOR8109
012024072908AMER3       010AMERICANAS  ON      NM   R$  000000000007000000000000720000000000063000000000006500000000000630000000000063000000000006404437000000000033728900000000002223000500000000000000009999123100000010000000000000BRAMERACNOR6102
012024072908RSID3       010ROSSI RESID ON      NM   R$  000000000040600000000004160000000000405000000000040900000000004100000000000410000000000041200051000000000000021000000000000008609100000000000000009999123100000010000000000000BRRSIDACNOR8120
012024072908JFEN3       010JOAO FORTES ON           R$  000000000003900000000000400000000000034000000000003600000000000340000000000033000000000003401146000000000003645300000000000132254200000000000000009999123100000010000000000000BRJFENACNOR0059
012024072908NEXP3       010NEXPE       ON           R$  000000000041200000000004120000000000407000000000040900000000004070000000000408000000000042100006000000000000000700000000000000286400000000000000009999123100000010000000000000BRNEXPACNOR0101
012024072908SGPS3       010SPRINGS     ON      NM   R$  000000000022300000000002230000000000223000000000022300000000002230000000000220000000000022300015000000000000015400000000000003434200000000000000009999123100000010000000000000BRSGPSACNOR4105
012024072908ETER3       010ETERNIT     ON      NM   R$  000000000056100000000005630000000000541000000000055000000000005410000000000541000000000054200752000000000000250800000000000137987700000000000000009999123100000010000000000000BRETERACNOR3243
012024072908HOOT4       010HOTEIS OTHONPN           R$  000000000022800000000002310000000000228000000000022900000000002310000000000237000000000024200002000000000000000200000000000000045900000000000000009999123100000010000000000000BRHOOTACNPR9015
012024072910RENT1       010LOCALIZA    DIR ORD NM   R$  000000000104500000000011200000000000990000000000101800000000010100000000000982000000000101000316000000000000125600000000000127862300000000000000009999123100000010000000000000BRRENTD06OR8195
012024072910ZAMP1       010ZAMP S.A.   DIR ORD      R$  000000000001200000000000300000000000010000000000002100000000000160000000000016000000000002100055000000000000018000000000000000394800000000000000009999123100000010000000000000BRZAMPD01OR0100
012024072912IRDM11      010FII IRIDIUM CI           R$  000000000721500000000072150000000007150000000000718400000000071570000000007156000000000715705886000000000000055900000000000401587321000000000000009999123100000010000000000000BRIRDMCTF004187
012024072912IRIM11      010FII IRIM    CI           R$  000000000739700000000073970000000007299000000000730900000000073680000000007300000000000736800193000000000000002275000000000016628160000000000000009999123100000010000000000000BRIRIMCTF003136
012024072912ITIP11      010FII INTER IPCI           R$  000000000800200000000080730000000008000000000000804500000000080500000000008050000000000807400182000000000000001073000000000008632829000000000000009999123100000010000000000000BRITIPCTF002130
012024072912ITIT11      010FII INTER ITCI           R$  000000000748100000000075000000000007458000000000747700000000074600000000007459000000000746000085000000000000000957000000000007156065000000000000009999123100000010000000000000BRITITCTF004130
012024072912ITRI11      010FII ITRI    CI           R$  000000000946500000000096950000000009429000000000956300000000094360000000009440000000000957103289000000000000028597000000000273492047000000000000009999123100000010000000000000BRITRICTF008103
012024072912RFOF11      010FII RB CFOF CI           R$  000000000728600000000072940000000007206000000000724200000000072780000000007260000000000727800177000000000000000457000000000003309709000000000000009999123100000010000000000000BRRFOFCTF001152
012024072912RINV11      010FII REAL INVCI           R$  000000001107500000000110850000000011031000000001105500000000110310000000011031000000001103800346000000000000003369000000000037245197000000000000009999123100000010000000000000BRRINVCTF004120
012024072912RNDP11      010FII BB R PAPCI           R$  000000000657000000000065700000000006405000000000643200000000064100000000006326000000000657000013000000000000000265000000000001704723000000000000009999123100000010000000000000BRRNDPCTF007249
012024072912RNGO11      010FII RIONEGROCI           R$  000000000456000000000045830000000004530000000000454700000000045500000000004535000000000455000040000000000000000468000000000002128000000000000000009999123100000010000000000000BRRNGOCTF003244
012024072912RPRI11      010FII RBR PR  CI           R$  000000000940000000000094500000000009398000000000941400000000094500000000009421000000000946000206000000000000004724000000000044474035000000000000009999123100000010000000000000BRRPRICTF007129
012024072912RRCI11      010FII RBCAP RICI           R$  000000000774000000000077440000000007700000000000773100000000077440000000007741000000000774400044000000000000000350000000000002706174000000000000009999123100000010000000000000BRRRCICTF005143
012024072912BIME11      010FII BRIO ME CI           R$  000000000072100000000007230000000000718000000000072000000000007180000000000719000000000072200181000000000000010557000000000007610944000000000000009999123100000010000000000000BRBIMECTF006133
012024072912BLCA11      010FII BLUE AAACI           R$  000000001010000000000104100000000010000000000001011000000000100000000000009936000000001022900024000000000000000092000000000000930148000000000000009999123100000010000000000000BRBLCACTF009132
012024072912BLMG11      010FII BLUE LOGCI  EA       R$  000000000380500000000038300000000003789000000000379700000000037970000000003797000000000379800228000000000000004568000000000017348603000000000000009999123100000010000000000000BRBLMGCTF005148
012024072912BLMO11      010FII BLUEMAC CI           R$  000000000830000000000083000000000007950000000000827800000000083000000000007950000000000830000007000000000000000016000000000000132450000000000000009999123100000010000000000000BRBLMOCTF009132
012024072912BLUR11      010FII BLUE RECCI           R$  000000000888700000000088870000000008887000000000888700000000088870000000008680000000000888700002000000000000000008000000000000071096000000000000009999123100000010000000000000BRBLURCTF005128
012024072912BMLC11      010FII BMBRC LCCI           R$  000000000999800000000099990000000009763000000000992400000000099990000000009771000000001000000005000000000000000016000000000000158798000000000000009999123100000010000000000000BRBMLCCTF004252
012024072912BNFS11      010FII BANRISULCI           R$  000000001209300000000121000000000012003000000001206800000000120700000000012020000000001206900071000000000000000397000000000004791168000000000000009999123100000010000000000000BRBNFSCTF000242
012024072912BROF11      010FII BROF    CI           R$  000000000501500000000050180000000004951000000000496600000000049510000000004951000000000496901141000000000000002572000000000012772954000000000000009999123100000010000000000000BRBROFCTF000115
012024072912BTAL11      010FII BTG AGROCI  ER       R$  000000000787100000000079090000000007803000000000783700000000078290000000007810000000000782901225000000000000010762000000000084348416000000000000009999123100000010000000000000BRBTALCTF003141
012024072912BTCI11      010FII BTG CRI CI           R$  000000000099800000000009980000000000991000000000099400000000009910000000000991000000000099307767000000000000123981000000000123242544000000000000009999123100000010000000000000BRBTCICTF005121
012024072912BTHI11      010BTG HOTEL FICI           R$  000000000410900000000041090000000004045000000000404900000000040620000000004042000000000410000010000000000000000141000000000000571044000000000000009999123100000010000000000000BRBTHICTF004110
012024072912BTLG11      010FII BTLG    CI           R$  000000001010000000000101440000000009959000000001003400000000099990000000009999000000001000023659000000000000143914000000001444085087000000000000009999123100000010000000000000BRBTLGCTF000164
012024072912BTRA11      010FII BTG TAGRCI  ER       R$  000000000526400000000053440000000005200000000000526300000000052000000000005200000000000522700324000000000000005173000000000027228316000000000000009999123100000010000000000000BRBTRACTF000138
012024072912DPRO11      010FII DEVA PROCI           R$  000000000070000000000007200000000000690000000000071700000000007190000000000687000000000071900013000000000000001077000000000000772423000000000000009999123100000010000000000000BRDPROCTF005125
012024072912DRIT11      010FII MTGESTAOCI           R$  000000000920000000000092930000000009151000000000925000000000092930000000009140000000000999800004000000000000000009000000000000083258000000000000009999123100000010000000000000BRDRITCTF009254
012024072912DVFF11      010FII DEVA FOFCI           R$  000000000074100000000007410000000000735000000000073700000000007380000000000737000000000073800078000000000000004803000000000003542857000000000000009999123100000010000000000000BRDVFFCTF006139
012024072912ICRI11      010FII CI IPCA CI           R$  000000000964100000000097200000000009641000000000967600000000096670000000009641000000000968000638000000000000004356000000000042149057000000000000009999123100000010000000000000BRICRICTF004105
012024072912IDFI11      010FII UNIDADESCI           R$  000000000093000000000009300000000000930000000000093000000000009300000000000928000000000093000013000000000000000561000000000000521730000000000000009999123100000010000000000000BRIDFICTF007133
012024072912IDGR11      010FII UNID II CI           R$  000000000082500000000008250000000000825000000000082500000000008250000000000701000000000082100001000000000000000001000000000000000825000000000000009999123100000010000000000000BRIDGRCTF006128
012024072912BARI11      010FII BARIGUI CI           R$  000000000815500000000083200000000008110000000000823800000000081770000000008151000000000817701776000000000000013695000000000112824772000000000000009999123100000010000000000000BRBARICTF003163
012024072912CBOP11      010FII CBOP PAXCI           R$  000000000280000000000028190000000002800000000000280200000000028190000000002801000000000281900008000000000000000279000000000000781773000000000000009999123100000010000000000000BRCBOPCTF001231
012024072912CCME11      010FII CANUMA  CI           R$  000000000105900000000010640000000001050000000000105400000000010530000000001053000000000106109787000000000000139516000000000147183801000000000000009999123100000010000000000000BRCCMECTF007124
012024072912FVPQ11      010FII V PARQUECI           R$  000000000764700000000076580000000007536000000000759100000000075720000000007572000000000764900562000000000000001083000000000008221933000000000000009999123100000010000000000000BRFVPQCTF015260
012024072912EQIR11      010FII EQI RECECI  ER       R$  000000000090300000000009030000000000898000000000089900000000009010000000000899000000000090100180000000000000029896000000000026900746000000000000009999123100000010000000000000BREQIRCTF003134
012024072912GAME11      010FII GUARD MUCI           R$  000000000091100000000009140000000000909000000000091100000000009110000000000910000000000091100309000000000000005075000000000004626570000000000000009999123100000010000000000000BRGAMECTF002133
012024072912GARE11      010FII GUARDIANCI           R$  000000000090900000000009100000000000904000000000090600000000009070000000000907000000000090842565000000000000825248000000000748280594000000000000009999123100000010000000000000BRGARECTF001105
012024072912GCRI11      010FII GLPG CRICI           R$  000000000708500000000071100000000007000000000000704000000000070100000000007006000000000701000159000000000000002433000000000017129555000000000000009999123100000010000000000000BRGCRICTF008145
012024072912BICR11      010FII INTER   CI           R$  000000000590000000000059000000000005800000000000584700000000058290000000005829000000000590000009000000000000000020000000000000116948000000000000009999123100000010000000000000BRBICRCTF009153
012024072912BRIM11      010FII BRIO II CI           R$  000000009692200000000989000000000091687000000009583600000000989000000000091687000000014140000003000000000000000006000000000000575018000000000000009999123100000010000000000000BRBRIMCTF008128
012024072912BRIP11      010FII BRIO IIICI           R$  000000009370000000000937000000000092000000000009256600000000920000000000086716000000009350000002000000000000000003000000000000277700000000000000009999123100000010000000000000BRBRIPCTF001114
012024072912BRCO11      010FII BRESCO  CI           R$  000000001178000000000117800000000011681000000001173400000000117490000000011700000000001174906765000000000000018650000000000218847004000000000000009999123100000010000000000000BRBRCOCTF007158
