00COTAHIST.2024BOVESPA 20240702                                                                                                                                                                                                                      
012024070202BRAP3       010BRADESPAR   ON      N1   R$  000000000181900000000018280000000001805000000000181400000000018160000000001816000000000182000365000000000000078600000000000142624700000000000000009999123100000010000000000000BRBRAPACNOR5148
012024070202BRAP4       010BRADESPAR   PN      N1   R$  000000000188600000000018980000000001873000000000188100000000018760000000001875000000000188504945000000000002310700000000004346720900000000000000009999123100000010000000000000BRBRAPACNPR2148
012024070202CSED3       010CRUZEIRO EDUON      NM   R$  000000000037800000000003800000000000366000000000037000000000003680000000000368000000000037000922000000000000257000000000000095315700000000000000009999123100000010000000000000BRCSEDACNOR9104
012024070202CSMG3       010COPASA      ON  EDJ NM   R$  000000000199100000000020200000000001988000000000200100000000020050000000002004000000000201707066000000000002087200000000004178306500000000000000009999123100000010000000000000BRCSMGACNOR5174
012024070202CSNA3       010SID NACIONALON           R$  000000000129400000000013090000000001283000000000129400000000012990000000001298000000000129909315000000000004590200000000005941445800000000000000009999123100000010000000000000BRCSNAACNOR6261
012024070202FESA3       010FERBASA     ON      N1   R$  000000000135300000000013550000000001353000000000135400000000013550000000001355000000000145000002000000000000000200000000000000270800000000000000009999123100000010000000000000BRFESAACNOR8188
012024070202FESA4       010FERBASA     PN      N1   R$  000000000079900000000008100000000000797000000000080300000000008040000000000804000000000080701878000000000000572000000000000459701000000000000000009999123100000010000000000000BRFESAACNPR5084
012024070202FHER3       010FER HERINGERON      NM   R$  000000000038900000000003890000000000380000000000038300000000003800000000000378000000000038000014000000000000002700000000000001036700000000000000009999123100000010000000000000BRFHERACNOR5103
012024070202GFSA3       010GAFISA      ON      NM   R$  000000000032400000000003290000000000320000000000032400000000003240000000000323000000000032401583000000000001959600000000000635003500000000000000009999123100000010000000000000BRGFSAACNOR3124
012024070202GGBR3       010GERDAU      ON      N1   R$  000000000160200000000016470000000001602000000000163500000000016350000000001635000000000164000245000000000000050000000000000081771700000000000000009999123100000010000000000000BRGGBRACNOR1192
012024070202GGBR4       010GERDAU      PN      N1   R$  000000000183700000000018580000000001833000000000184800000000018480000000001846000000000184817992000000000009765900000000018056043500000000000000009999123100000010000000000000BRGGBRACNPR8192
012024070202MILS3       010MILLS       ON  EJ  NM   R$  000000000102800000000010370000000001022000000000102900000000010240000000001024000000000103302976000000000000861000000000000886204900000000000000009999123100000010000000000000BRMILSACNOR2127
012024070202MLAS3       010MULTILASER  ON      NM   R$  000000000019100000000001940000000000189000000000019100000000001910000000000191000000000019202882000000000002016100000000000386050800000000000000009999123100000010000000000000BRMLASACNOR9101
012024070202MNDL3       010MUNDIAL     ON           R$  000000000125600000000012990000000001220000000000125500000000012990000000001260000000000134800013000000000000002500000000000003138300000000000000009999123100000010000000000000BRMNDLACNOR4109
012024070202MNPR3       010MINUPAR     ON           R$  000000000125800000000013480000000001235000000000127800000000013480000000001260000000000134000015000000000000003500000000000004474300000000000000009999123100000010000000000000BRMNPRACNOR5122
012024070202MOVI3       010MOVIDA      ON      NM   R$  000000000059900000000005990000000000578000000000058700000000005900000000000589000000000059010432000000000006121200000000003594614000000000000000009999123100000010000000000000BRMOVIACNOR0122
012024070202MRFG3       010MARFRIG     ON      NM   R$  000000000125100000000012980000000001251000000000128200000000012850000000001284000000000128519691000000000006840300000000008774663500000000000000009999123100000010000000000000BRMRFGACNOR0116
012024070202ALPK3       010ESTAPAR     ON      NM   R$  000000000032300000000003230000000000307000000000031200000000003110000000000311000000000031600554000000000000141800000000000044281800000000000000009999123100000010000000000000BRALPKACNOR9101
012024070202PCAR3       010P.ACUCAR-CBDON      NM   R$  000000000026200000000002660000000000258000000000026200000000002630000000000263000000000026508562000000000012123600000000003183331100000000000000009999123100000010000000000000BRPCARACNOR3167
012024070202PFRM3       010PROFARMA    ON      NM   R$  000000000051000000000005180000000000508000000000051300000000005130000000000513000000000051700622000000000000161800000000000083054500000000000000009999123100000010000000000000BRPFRMACNOR1116
012024070202PGMN3       010PAGUE MENOS ON      NM   R$  000000000025500000000002580000000000249000000000025200000000002540000000000253000000000025401019000000000000628000000000000158838400000000000000009999123100000010000000000000BRPGMNACNOR8103
012024070202BEEF3       010MINERVA     ON      NM   R$  000000000066800000000006990000000000668000000000068800000000006850000000000684000000000068511305000000000010840000000000007461885600000000000000009999123100000010000000000000BRBEEFACNOR6116
012024070202BPAN4       010BANCO PAN   PN      N1   R$  000000000079900000000008110000000000796000000000080400000000008040000000000804000000000080503175000000000001017400000000000818392300000000000000009999123100000010000000000000BRBPANACNPR1115
012024070202B3SA3       010B3          ON      NM   R$  000000000104900000000010550000000001041000000000104700000000010450000000001045000000000104931265000000000044061200000000046164309500000000000000009999123100000010000000000000BRB3SAACNOR6133
012024070202BEES3       010BANESTES    ON  EJ       R$  000000000091300000000009130000000000894000000000090400000000009000000000000900000000000090700113000000000000019100000000000017276700000000000000009999123100000010000000000000BRBEESACNOR9393
012024070202BEES4       010BANESTES    PN  EJ       R$  000000000098500000000009870000000000967000000000097300000000009670000000000900000000000098100030000000000000005900000000000005743600000000000000009999123100000010000000000000BRBEESACNPR6318
012024070202CURY3       010CURY S/A    ON      NM   R$  000000000205800000000021070000000002044000000000208100000000020800000000002076000000000208008083000000000003140900000000006536728700000000000000009999123100000010000000000000BRCURYACNOR3109
012024070202CVCB3       010CVC BRASIL  ON  ATZ NM   R$  000000000019600000000001960000000000180000000000018600000000001800000000000180000000000018107184000000000022209300000000004138349600000000000000009999123100000010000000000000BRCVCBACNOR1116
012024070202CXSE3       010CAIXA SEGURION      NM   R$  000000000142800000000014400000000001414000000000142700000000014280000000001428000000000143508314000000000002749300000000003923819100000000000000009999123100000010000000000000BRCXSEACNOR7106
012024070202BGIP4       010BANESE      PN           R$  000000000224500000000022450000000002245000000000224500000000022450000000002245000000000226000001000000000000000100000000000000224500000000000000009999123100000010000000000000BRBGIPACNPR8208
012024070202BHIA3       010CASAS BAHIA ON  ATZ NM   R$  000000000051500000000005210000000000493000000000050500000000005150000000000512000000000051605690000000000006208800000000003138393400000000000000009999123100000010000000000000BRBHIAACNOR1102
012024070202BRIT3       010BRISANET    ON      NM   R$  000000000039600000000004040000000000395000000000039800000000003950000000000395000000000039701009000000000000554600000000000220815800000000000000009999123100000010000000000000BRBRITACNOR0103
012024070202BRKM3       010BRASKEM     ON      N1   R$  000000000180500000000018160000000001773000000000179000000000018000000000001788000000000180000061000000000000011900000000000021302000000000000000009999123100000010000000000000BRBRKMACNOR1119
012024070202BRKM5       010BRASKEM     PNA     N1   R$  000000000176600000000017720000000001736000000000175700000000017620000000001762000000000176507097000000000002565800000000004509080200000000000000009999123100000010000000000000BRBRKMACNPA4121
012024070202DASA3       010DASA        ON      NM   R$  000000000028700000000002890000000000279000000000028300000000002830000000000282000000000028302033000000000001161500000000000329606400000000000000009999123100000010000000000000BRDASAACNOR1122
012024070202DESK3       010DESKTOP     ON      NM   R$  000000000143500000000014700000000001379000000000141600000000014080000000001407000000000141702067000000000000672300000000000952550800000000000000009999123100000010000000000000BRDESKACNOR2104
012024070202DEXP3       010DEXXOS PAR  ON      N1   R$  000000000103300000000010500000000001020000000000103300000000010320000000001032000000000103300255000000000000041000000000000042386500000000000000009999123100000010000000000000BRDEXPACNOR1105
012024070202DIRR3       010DIRECIONAL  ON      NM   R$  000000000274900000000027770000000002714000000000274700000000027450000000002744000000000274719288000000000004165200000000011442903800000000000000009999123100000010000000000000BRDIRRACNOR0117
012024070202DMFN3       010DMFINANCEIRAON           R$  000000000140000000000014000000000001400000000000140000000000014000000000001250000000000230000001000000000000000100000000000000140000000000000000009999123100000010000000000000BRDMFNACNOR6103
012024070202DMVF3       010D1000VFARMA ON      NM   R$  000000000071700000000007350000000000715000000000072600000000007150000000000715000000000073200472000000000000079100000000000057499900000000000000009999123100000010000000000000BRDMVFACNOR9100
012024070202DOHL3       010DOHLER      ON           R$  000000000101700000000010170000000001017000000000101700000000010170000000000600000000000101700002000000000000000200000000000000203400000000000000009999123100000010000000000000BRDOHLACNOR2063
012024070202DOHL4       010DOHLER      PN           R$  000000000039800000000003990000000000398000000000039800000000003990000000000376000000000039900003000000000000001400000000000000558200000000000000009999123100000010000000000000BRDOHLACNPR9066
012024070202DOTZ3       010DOTZ SA     ON      NM   R$  000000000064500000000006600000000000640000000000064300000000006400000000000630000000000065300033000000000000009300000000000005983500000000000000009999123100000010000000000000BRDOTZACNOR7101
012024070202GOAU3       010GERDAU MET  ON      N1   R$  000000000107700000000010870000000001075000000000108100000000010800000000001080000000000109000123000000000000021100000000000022809500000000000000009999123100000010000000000000BRGOAUACNOR1267
012024070202GOAU4       010GERDAU MET  PN      N1   R$  000000000106600000000010820000000001066000000000107600000000010820000000001081000000000108308164000000000004091100000000004402882700000000000000009999123100000010000000000000BRGOAUACNPR8268
012024070202GRND3       010GRENDENE    ON      NM   R$  000000000057500000000005810000000000570000000000057500000000005760000000000575000000000057603909000000000001523400000000000876854300000000000000009999123100000010000000000000BRGRNDACNOR3174
012024070202SANB11      010SANTANDER BRUNT          R$  000000000273600000000027540000000002720000000000273800000000027420000000002740000000000275106090000000000001961000000000005370307100000000000000009999123100000010000000000000BRSANBCDAM13164
012024070202SANB3       010SANTANDER BRON           R$  000000000129600000000013050000000001292000000000129700000000012970000000001297000000000130400355000000000000066800000000000086690100000000000000009999123100000010000000000000BRSANBACNOR8171
012024070202SANB4       010SANTANDER BRPN           R$  000000000144200000000014500000000001431000000000143800000000014500000000001441000000000145000392000000000000072400000000000104134300000000000000009999123100000010000000000000BRSANBACNPR5171
012024070202TOTS3       010TOTVS       ON      NM   R$  000000000297700000000029940000000002927000000000295000000000029270000000002926000000000293110336000000000003458500000000010202764900000000000000009999123100000010000000000000BRTOTSACNOR8144
012024070202TPIS3       010TRIUNFO PARTON      NM   R$  000000000040400000000004060000000000385000000000039600000000003880000000000388000000000039600755000000000000146900000000000058180600000000000000009999123100000010000000000000BRTPISACNOR8118
012024070202TRAD3       010TC          ON      NM   R$  000000000004900000000000510000000000047000000000004800000000000500000000000049000000000005000532000000000001930200000000000093871400000000000000009999123100000010000000000000BRTRADACNOR3101
012024070202TRIS3       010TRISUL      ON      NM   R$  000000000047900000000004940000000000476000000000048600000000004940000000000491000000000049401023000000000000578100000000000281331200000000000000009999123100000010000000000000BRTRISACNOR4118
012024070202TRPL3       010TRAN PAULISTON      N1   R$  000000000342100000000034220000000003389000000000341400000000034150000000003390000000000345000008000000000000001800000000000006145600000000000000009999123100000010000000000000BRTRPLACNOR4185
012024070202TRPL4       010TRAN PAULISTPN      N1   R$  000000000265500000000026890000000002655000000000267500000000026800000000002675000000000268408935000000000001701300000000004552610300000000000000009999123100000010000000000000BRTRPLACNPR1185
012024070202TTEN3       0103TENTOS     ON      NM   R$  000000000102800000000010550000000001014000000000103000000000010210000000001021000000000102505232000000000000910600000000000938234300000000000000009999123100000010000000000000BRTTENACNOR0103
012024070202WEGE3       010WEG         ON  EJ  NM   R$  000000000420200000000042390000000004195000000000421100000000042030000000004203000000000420713105000000000005461800000000023004976800000000000000009999123100000010000000000000BRWEGEACNOR0223
012024070202WEST3       010WESTWING    ON      NM   R$  000000000008600000000000890000000000085000000000008800000000000890000000000087000000000008900069000000000000031800000000000002802600000000000000009999123100000010000000000000BRWESTACNOR3100
012024070202ROMI3       010ROMI        ON      NM   R$  000000000104100000000010520000000001038000000000104700000000010450000000001045000000000105000743000000000000124200000000000130089700000000000000009999123100000010000000000000BRROMIACNOR8195
012024070202RRRP3       0103R PETROLEUMON      NM   R$  000000000279600000000028350000000002775000000000280300000000028030000000002800000000000280413000000000000006355100000000017814216800000000000000009999123100000010000000000000BRRRRPACNOR5103
012024070202TAEE11      010TAESA       UNT     N2   R$  000000000343700000000034630000000003430000000000344300000000034400000000003440000000000344504616000000000001335800000000004599520500000000000000009999123100000010000000000000BRTAEECDAM10147
012024070202TAEE3       010TAESA       ON      N2   R$  000000000113800000000011430000000001132000000000113700000000011380000000001138000000000114100547000000000000117400000000000133599600000000000000009999123100000010000000000000BRTAEEACNOR9147
012024070202TAEE4       010TAESA       PN      N2   R$  000000000115000000000011600000000001149000000000115300000000011560000000001154000000000115600689000000000000135100000000000155807200000000000000009999123100000010000000000000BRTAEEACNPR6147
012024070202TASA3       010TAURUS ARMASON      N2   R$  000000000120700000000012390000000001207000000000122400000000012330000000001224000000000123400034000000000000004700000000000005756700000000000000009999123100000010000000000000BRTASAACNOR7104
012024070202TASA4       010TAURUS ARMASPN      N2   R$  000000000120600000000012200000000001185000000000119800000000011870000000001186000000000119701423000000000000300100000000000359520700000000000000009999123100000010000000000000BRTASAACNPR4104
012024070202TCSA3       010TECNISA     ON      NM   R$  000000000019700000000002000000000000195000000000019700000000001960000000000196000000000019800118000000000000057000000000000011233300000000000000009999123100000010000000000000BRTCSAACNOR3112
012024070202TECN3       010TECHNOS     ON      NM   R$  000000000048600000000005140000000000482000000000049900000000005140000000000507000000000051401548000000000000847100000000000423044800000000000000009999123100000010000000000000BRTECNACNOR6109
012024070202TELB3       010TELEBRAS    ON           R$  000000000127700000000012810000000001277000000000127700000000012810000000001275000000000128100007000000000000000800000000000001021900000000000000009999123100000010000000000000BRTELBACNOR2140
012024070202TELB4       010TELEBRAS    PN           R$  000000000086900000000008880000000000864000000000087600000000008720000000000872000000000087700022000000000000003200000000000002805300000000000000009999123100000010000000000000BRTELBACNPR9140
012024070202TEND3       010TENDA       ON      NM   R$  000000000106800000000010900000000001046000000000106400000000010710000000001064000000000107204148000000000001475300000000001569882000000000000000009999123100000010000000000000BRTENDACNOR4111
012024070202TFCO4       010TRACK FIELD PN  EJ  N2   R$  000000000108100000000010810000000001058000000000106600000000010650000000001065000000000107300433000000000000077900000000000083098100000000000000009999123100000010000000000000BRTFCOACNPR8114
012024070202TGMA3       010TEGMA       ON      NM   R$  000000000245600000000024570000000002435000000000244500000000024420000000002442000000000245900740000000000000098400000000000240635900000000000000009999123100000010000000000000BRTGMAACNOR7144
012024070202TIMS3       010TIM         ON  EJ  NM   R$  000000000160500000000016070000000001573000000000158700000000015790000000001578000000000158015040000000000007680500000000012189990500000000000000009999123100000010000000000000BRTIMSACNOR5117
012024070202VITT3       010VITTIA      ON      NM   R$  000000000060800000000006150000000000597000000000060400000000006000000000000599000000000060401379000000000000238700000000000144221000000000000000009999123100000010000000000000BRVITTACNOR4107
012024070202VIVA3       010VIVARA S.A. ON      NM   R$  000000000212000000000021390000000002076000000000209700000000020800000000002077000000000208007403000000000003684900000000007730538900000000000000009999123100000010000000000000BRVIVAACNOR0107
012024070202VIVR3       010VIVER       ON      NM   R$  000000000023800000000002400000000000235000000000023700000000002360000000000236000000000023700070000000000000032900000000000007821600000000000000009999123100000010000000000000BRVIVRACNOR4123
012024070202VIVT3       010TELEF BRASILON  EJ       R$  000000000457000000000046310000000004548000000000457900000000045480000000004546000000000457707892000000000001739600000000007965668200000000000000009999123100000010000000000000BRVIVTACNOR0182
012024070202VLID3       010VALID       ON      NM   R$  000000000152000000000015380000000001505000000000152600000000015180000000001518000000000154102422000000000000351300000000000536292000000000000000009999123100000010000000000000BRVLIDACNOR5143
012024070202VSTE3       010VESTE       ON      NM   R$  000000000164000000000016400000000001570000000000159800000000015700000000001568000000000159700044000000000000005600000000000008952800000000000000009999123100000010000000000000BRVSTEACNOR5103
012024070202VTRU3       010VITRUEDUCA  ON      NM   R$  000000000129900000000013870000000001297000000000136200000000013740000000001360000000000137400563000000000000089900000000000122465800000000000000009999123100000010000000000000BRVTRUACNOR3100
012024070202VULC3       010VULCABRAS   ON      NM   R$  000000000145400000000014600000000001437000000000144600000000014530000000001453000000000145402725000000000000557700000000000806675600000000000000009999123100000010000000000000BRVULCACNOR2159
012024070202VVEO3       010VIVEO       ON      NM   R$  000000000021700000000002400000000000212000000000022800000000002400000000000240000000000024103903000000000002025500000000000461836900000000000000009999123100000010000000000000BRVVEOACNOR0104
012024070202NGRD3       010NEOGRID     ON      NM   R$  000000000009000000000000950000000000088000000000009100000000000920000000000092000000000009301819000000000001086200000000000099643000000000000000009999123100000010000000000000BRNGRDACNOR3104
012024070202NINJ3       010GETNINJAS   ON      NM   R$  000000000044700000000004540000000000433000000000043900000000004330000000000433000000000044000150000000000000044400000000000019528200000000000000009999123100000010000000000000BRNINJACNOR5101
012024070202NORD3       010NORDON MET  ON           R$  000000000060500000000006050000000000605000000000060500000000006050000000000490000000000059500001000000000000000100000000000000060500000000000000009999123100000010000000000000BRNORDACNOR7135
012024070202VAMO3       010VAMOS       ON      NM   R$  000000000076100000000007650000000000750000000000075500000000007540000000000751000000000075408947000000000004181100000000003157107000000000000000009999123100000010000000000000BRVAMOACNOR7105
012024070202VBBR3       010VIBRA       ON  EJ  NM   R$  000000000199500000000020400000000001993000000000202100000000020300000000002030000000000203417524000000000005768400000000011662488000000000000000009999123100000010000000000000BRVBBRACNOR1108
012024070202ALUP11      010ALUPAR      UNT     N2   R$  000000000299100000000030210000000002987000000000300500000000030000000000002997000000000301502248000000000000391200000000001175661900000000000000009999123100000010000000000000BRALUPCDAM15119
012024070202ALUP3       010ALUPAR      ON      N2   R$  000000000101700000000010230000000001017000000000101800000000010230000000001018000000000102300034000000000000006000000000000006108600000000000000009999123100000010000000000000BRALUPACNOR8119
012024070202ALUP4       010ALUPAR      PN      N2   R$  000000000100000000000010000000000000989000000000099300000000009940000000000993000000000100000062000000000000010800000000000010732300000000000000009999123100000010000000000000BRALUPACNPR5119
012024070202AMAR3       010LOJAS MARISAON      NM   R$  000000000013500000000001380000000000135000000000013600000000001350000000000135000000000013700577000000000000263500000000000035978200000000000000009999123100000010000000000000BRAMARACNOR4115
012024070202AMBP3       010AMBIPAR     ON      NM   R$  000000000143000000000017150000000001416000000000156700000000016650000000001663000000000166515823000000000007787700000000012204736600000000000000009999123100000010000000000000BRAMBPACNOR6103
012024070202ANIM3       010ANIMA       ON      NM   R$  000000000031500000000003220000000000309000000000031400000000003160000000000316000000000031805981000000000004735400000000001490094200000000000000009999123100000010000000000000BRANIMACNOR6107
012024070202NTCO3       010GRUPO NATURAON      NM   R$  000000000154600000000015640000000001531000000000154900000000015550000000001555000000000155720615000000000005342900000000008277097200000000000000009999123100000010000000000000BRNTCOACNOR5106
012024070202PETZ3       010PETZ        ON      NM   R$  000000000037100000000003750000000000360000000000036800000000003680000000000368000000000036907057000000000005784700000000002130941300000000000000009999123100000010000000000000BRPETZACNOR2110
012024070202BRBI11      010BR PARTNERS UNT     N2   R$  000000000143800000000014380000000001406000000000141700000000014060000000001406000000000141501218000000000000184400000000000261471200000000000000009999123100000010000000000000BRBRBICDAM10109
012024070202BRFS3       010BRF SA      ON      NM   R$  000000000230400000000023680000000002301000000000234600000000023610000000002359000000000236318024000000000007755400000000018197775000000000000000009999123100000010000000000000BRBRFSACNOR8122
012024070202CSRN3       010COSERN      ON  EJ       R$  000000000226300000000022630000000002101000000000219500000000021950000000002120000000000219600009000000000000001500000000000003293400000000000000009999123100000010000000000000BRCSRNACNOR0193
012024070202CSUD3       010CSU DIGITAL ON  EJ  NM   R$  000000000188000000000019090000000001848000000000187300000000018630000000001863000000000187300501000000000000079300000000000148605700000000000000009999123100000010000000000000BRCSUDACNOR5110
012024070202CRFB3       010CARREFOUR BRON      NM   R$  000000000089500000000009130000000000883000000000089700000000009050000000000904000000000090518256000000000010722800000000009627433900000000000000009999123100000010000000000000BRCRFBACNOR2116
012024070202CRPG5       010CRISTAL     PNA          R$  000000000291600000000029160000000002903000000000290800000000029030000000002901000000000293000012000000000000001300000000000003780900000000000000009999123100000010000000000000BRCRPGACNPA3119
012024070202CSAN3       010COSAN       ON      NM   R$  000000000136400000000013780000000001347000000000135700000000013470000000001347000000000135318053000000000013192900000000017911139100000000000000009999123100000010000000000000BRCSANACNOR6126
012024070202EQMA3B      010EQTLMARANHAOON      MB   R$  000000000264500000000026450000000002600000000000260300000000026000000000002551000000000260000004000000000000001200000000000003124500000000000000009999123100000010000000000000BREQMAACNOR8108
012024070202EQPA3       010EQTL PARA   ON           R$  000000000071300000000007220000000000703000000000071000000000007100000000000709000000000071900031000000000000004300000000000003056300000000000000009999123100000010000000000000BREQPAACNOR1111
012024070202EQTL3       010EQUATORIAL  ON      NM   R$  000000000321800000000032390000000003150000000000317200000000031500000000003150000000000315428585000000000008212300000000026050558400000000000000009999123100000010000000000000BREQTLACNOR0130
012024070202ATOM3       010ATOMPAR     ON           R$  000000000019800000000001980000000000192000000000019500000000001920000000000192000000000019700032000000000000010300000000000002012100000000000000009999123100000010000000000000BRATOMACNOR1106
012024070202AURE3       010AUREN       ON      NM   R$  000000000123400000000012440000000001218000000000122800000000012190000000001219000000000122509160000000000003791000000000004655607400000000000000009999123100000010000000000000BRAUREACNOR9104
012024070202AZEV3       010AZEVEDO     ON           R$  000000000015300000000001570000000000149000000000015300000000001530000000000152000000000015300450000000000000622000000000000095315800000000000000009999123100000010000000000000BRAZEVACNOR0121
012024070202AZEV4       010AZEVEDO     PN           R$  000000000014800000000001500000000000143000000000014500000000001440000000000143000000000014401755000000000002264900000000000330034700000000000000009999123100000010000000000000BRAZEVACNPR7121
012024070202AZUL4       010AZUL        PN      N2   R$  000000000073500000000007370000000000702000000000071900000000007230000000000722000000000072309338000000000013820400000000009949513800000000000000009999123100000010000000000000BRAZULACNPR4102
012024070202ESPA3       010ESPACOLASER ON      NM   R$  000000000010100000000001010000000000097000000000009900000000001000000000000099000000000010000160000000000000367500000000000036466700000000000000009999123100000010000000000000BRESPAACNOR7103
012024070202EUCA4       010EUCATEX     PN      N1   R$  000000000150800000000015240000000001480000000000150800000000015240000000001494000000000152400373000000000000064700000000000097591500000000000000009999123100000010000000000000BREUCAACNPR8044
012024070202EVEN3       010EVEN        ON      NM   R$  000000000064000000000006450000000000629000000000063700000000006420000000000642000000000064602675000000000000522000000000000332917600000000000000009999123100000010000000000000BREVENACNOR8119
012024070202EZTC3       010EZTEC       ON      NM   R$  000000000130800000000013140000000001290000000000130100000000013020000000001302000000000130505307000000000001727200000000002247373300000000000000009999123100000010000000000000BREZTCACNOR0125
012024070202ITUB3       010ITAUUNIBANCOON  EJ  N1   R$  000000000278800000000028130000000002783000000000280400000000028030000000002802000000000280301013000000000000209500000000000587594200000000000000009999123100000010000000000000BRITUBACNOR4338
012024070202ITUB4       010ITAUUNIBANCOPN  EJ  N1   R$  000000000322800000000032660000000003223000000000325200000000032660000000003260000000000326634327000000000030447800000000099023919000000000000000009999123100000010000000000000BRITUBACNPR1338
012024070202AERI3       010AERIS       ON      NM   R$  000000000051200000000005390000000000508000000000051800000000005350000000000534000000000053500551000000000000213600000000000110829700000000000000009999123100000010000000000000BRAERIACNOR4102
012024070202AESB3       010AES BRASIL  ON      NM   R$  000000000113600000000011400000000001132000000000113500000000011380000000001137000000000113802205000000000003213100000000003649233700000000000000009999123100000010000000000000BRAESBACNOR7106
012024070202AFLT3       010AFLUENTE T  ON  EJ       R$  000000000071900000000007190000000000719000000000071900000000007190000000000718000000000071900004000000000000000900000000000000647100000000000000009999123100000010000000000000BRAFLTACNOR1122
012024070202AGRO3       010BRASILAGRO  ON      NM   R$  000000000257900000000026040000000002579000000000259200000000025820000000002581000000000260401217000000000000173300000000000449241700000000000000009999123100000010000000000000BRAGROACNOR7114
012024070202AGXY3       010AGROGALAXY  ON      NM   R$  000000000011700000000001410000000000117000000000013000000000001390000000000138000000000013901365000000000001420000000000000185493400000000000000009999123100000010000000000000BRAGXYACNOR4103
012024070202ALLD3       010ALLIED      ON      NM   R$  000000000074600000000007770000000000740000000000076300000000007680000000000761000000000076800776000000000000172900000000000131961800000000000000009999123100000010000000000000BRALLDACNOR3106
012024070202ALOS3       010ALLOS       ON      NM   R$  000000000209800000000021180000000002071000000000208400000000020770000000002076000000000207713910000000000004843300000000010096101000000000000000009999123100000010000000000000BRALOSACNOR5101
012024070202ALPA3       010ALPARGATAS  ON      N1   R$  000000000093500000000009550000000000935000000000093600000000009350000000000935000000000095500013000000000000002000000000000001873700000000000000009999123100000010000000000000BRALPAACNOR0231
012024070202ALPA4       010ALPARGATAS  PN      N1   R$  000000000090000000000009090000000000884000000000089400000000008900000000000889000000000089108056000000000004135900000000003698396900000000000000009999123100000010000000000000BRALPAACNPR7232
012024070202CPFE3       010CPFL ENERGIAON      NM   R$  000000000328100000000032930000000003250000000000326700000000032640000000003263000000000327405999000000000001236500000000004039787600000000000000009999123100000010000000000000BRCPFEACNOR0137
012024070202CPLE3       010COPEL       ON      N2   R$  000000000083000000000008410000000000824000000000083300000000008350000000000834000000000083608007000000000003636800000000003032545200000000000000009999123100000010000000000000BRCPLEACNOR8149
012024070202CPLE6       010COPEL       PNB     N2   R$  000000000093400000000009470000000000927000000000093600000000009370000000000936000000000094014285000000000008283900000000007759628400000000000000009999123100000010000000000000BRCPLEACNPB9146
012024070202ENAT3       010ENAUTA PART ON      NM   R$  000000000227000000000022930000000002235000000000226200000000022520000000002252000000000225305895000000000001763900000000003989955300000000000000009999123100000010000000000000BRENATACNOR0104
012024070202ENEV3       010ENEVA       ON      NM   R$  000000000126900000000012840000000001260000000000127000000000012670000000001267000000000127314812000000000005694500000000007232419900000000000000009999123100000010000000000000BRENEVACNOR8106
012024070202ENGI11      010ENERGISA    UNT     N2   R$  000000000459000000000046020000000004451000000000451400000000044950000000004491000000000449516406000000000003426600000000015468401500000000000000009999123100000010000000000000BRENGICDAM16135
012024070202ENGI3       010ENERGISA    ON      N2   R$  000000000147300000000014740000000001407000000000142300000000014070000000001407000000000145500033000000000000003600000000000005125300000000000000009999123100000010000000000000BRENGIACNOR0145
012024070202ENGI4       010ENERGISA    PN      N2   R$  000000000078700000000007870000000000769000000000077600000000007690000000000769000000000077300049000000000000013400000000000010403100000000000000009999123100000010000000000000BRENGIACNPR7141
012024070202ENJU3       010ENJOEI      ON      NM   R$  000000000020200000000002080000000000183000000000019200000000001880000000000186000000000018801489000000000002072200000000000398750600000000000000009999123100000010000000000000BRENJUACNOR9100
012024070202ENMT4       010ENERGISA MT PN           R$  000000000752400000000075240000000007500000000000750800000000075000000000007400000000000752000003000000000000000500000000000003754300000000000000009999123100000010000000000000BRENMTACNPR2125
012024070202EPAR3       010EMBPAR S/A  ON           R$  000000000062800000000006300000000000628000000000062800000000006290000000000629000000000063000021000000000000005600000000000003522000000000000000009999123100000010000000000000BREPARACNOR9105
012024070202BBSE3       010BBSEGURIDADEON      NM   R$  000000000328200000000032970000000003261000000000328400000000032830000000003283000000000328911576000000000007094300000000023304306800000000000000009999123100000010000000000000BRBBSEACNOR5124
012024070202ITSA3       010ITAUSA      ON  EJ  N1   R$  000000000097700000000009860000000000977000000000098200000000009840000000000984000000000098600244000000000000058600000000000057545900000000000000009999123100000010000000000000BRITSAACNOR0441
012024070202ITSA4       010ITAUSA      PN  EJ  N1   R$  000000000097700000000009860000000000975000000000098100000000009830000000000983000000000098417827000000000017816800000000017493606700000000000000009999123100000010000000000000BRITSAACNPR7441
012024070202MDNE3       010MOURA DUBEUXON      NM   R$  000000000114300000000011870000000001143000000000116100000000011670000000001157000000000116803636000000000000952200000000001106363900000000000000009999123100000010000000000000BRMDNEACNOR9100
012024070202MEAL3       010IMC S/A     ON      NM   R$  000000000012800000000001290000000000123000000000012500000000001280000000000128000000000012900665000000000000607700000000000076513000000000000000009999123100000010000000000000BRMEALACNOR9105
012024070202MELK3       010MELNICK     ON      NM   R$  000000000035100000000003580000000000346000000000035000000000003560000000000353000000000035600614000000000000200600000000000070242900000000000000009999123100000010000000000000BRMELKACNOR8111
012024070202MERC4       010MERC FINANC PN           R$  000000000088000000000008800000000000870000000000087900000000008800000000000880000000000092000009000000000000002100000000000001847000000000000000009999123100000010000000000000BRMERCACNPR9180
012024070202GUAR3       010GUARARAPES  ON      NM   R$  000000000065000000000006860000000000650000000000066600000000006630000000000663000000000066605840000000000001936200000000001290146300000000000000009999123100000010000000000000BRGUARACNOR4173
012024070202HAGA3       010HAGA S/A    ON           R$  000000000025900000000002600000000000259000000000025900000000002600000000000253000000000025900006000000000000001400000000000000363500000000000000009999123100000010000000000000BRHAGAACNOR7103
012024070202HAGA4       010HAGA S/A    PN           R$  000000000011500000000001170000000000114000000000011500000000001150000000000114000000000011500038000000000000011000000000000001266000000000000000009999123100000010000000000000BRHAGAACNPR4103
012024070202HAPV3       010HAPVIDA     ON      NM   R$  000000000037700000000003790000000000368000000000037100000000003720000000000372000000000037416294000000000042325300000000015739242900000000000000009999123100000010000000000000BRHAPVACNOR4114
012024070202JHSF3       010JHSF PART   ON  ED  NM   R$  000000000039500000000003990000000000391000000000039400000000003960000000000396000000000039702723000000000002493700000000000983749200000000000000009999123100000010000000000000BRJHSFACNOR2137
012024070202SLCE3       010SLC AGRICOLAON      NM   R$  000000000187100000000019390000000001871000000000192300000000019150000000001913000000000191712359000000000005668800000000010904596000000000000000009999123100000010000000000000BRSLCEACNOR2125
012024070202VALE3       010VALE        ON      NM   R$  000000000630800000000063340000000006246000000000628500000000062930000000006293000000000629436121000000000024335300000000152966075200000000000000009999123100000010000000000000BRVALEACNOR0210
012024070202SAPR11      010SANEPAR     UNT EJ  N2   R$  000000000262800000000026380000000002592000000000260600000000026110000000002607000000000261104042000000000001163400000000003032019800000000000000009999123100000010000000000000BRSAPRCDAM13118
012024070202SAPR3       010SANEPAR     ON  EJ  N2   R$  000000000049900000000005010000000000493000000000049600000000004950000000000495000000000049900956000000000000535200000000000265682900000000000000009999123100000010000000000000BRSAPRACNOR9159
012024070202SAPR4       010SANEPAR     PN  EJ  N2   R$  000000000053500000000005380000000000528000000000053100000000005300000000000530000000000053303164000000000001364000000000000724362500000000000000009999123100000010000000000000BRSAPRACNPR6159
012024070202SBFG3       010GRUPO SBF   ON      NM   R$  000000000119000000000012100000000001174000000000119200000000011970000000001191000000000119804714000000000001220000000000001454825400000000000000009999123100000010000000000000BRSBFGACNOR1103
012024070202SBSP3       010SABESP      ON      NM   R$  000000000781200000000079200000000007742000000000780600000000077850000000007785000000000779818012000000000006189400000000048316335700000000000000009999123100000010000000000000BRSBSPACNOR5161
012024070202NEOE3       010NEOENERGIA  ON  EJ  NM   R$  000000000185100000000018550000000001823000000000183500000000018290000000001829000000000184103547000000000000892300000000001637876600000000000000009999123100000010000000000000BRNEOEACNOR3123
012024070202TUPY3       010TUPY        ON      NM   R$  000000000235400000000023960000000002339000000000237900000000023730000000002373000000000238802739000000000000453800000000001079869100000000000000009999123100000010000000000000BRTUPYACNOR1184
012024070202UCAS3       010UNICASA     ON      NM   R$  000000000021700000000002220000000000215000000000021800000000002150000000000215000000000021800102000000000000033700000000000007347000000000000000009999123100000010000000000000BRUCASACNOR1113
012024070202UGPA3       010ULTRAPAR    ON      NM   R$  000000000217400000000021770000000002138000000000215400000000021510000000002151000000000215811916000000000002809000000000006052338700000000000000009999123100000010000000000000BRUGPAACNOR8155
012024070202UNIP3       010UNIPAR      ON           R$  000000000486300000000049070000000004830000000000487300000000048400000000004835000000000499900047000000000000006200000000000030212700000000000000009999123100000010000000000000BRUNIPACNOR7206
012024070202UNIP5       010UNIPAR      PNA          R$  000000000493800000000049400000000004900000000000492100000000049000000000004900000000000494000008000000000000001100000000000005413500000000000000009999123100000010000000000000BRUNIPACNPA0208
012024070202UNIP6       010UNIPAR      PNB          R$  000000000486500000000049130000000004844000000000487800000000048690000000004866000000000487100631000000000000090600000000000441982000000000000000009999123100000010000000000000BRUNIPACNPB8206
012024070202USIM3       010USIMINAS    ON      N1   R$  000000000074500000000007580000000000742000000000075100000000007550000000000755000000000075800851000000000000210300000000000157995200000000000000009999123100000010000000000000BRUSIMACNOR3167
012024070202USIM5       010USIMINAS    PNA     N1   R$  000000000078800000000008000000000000786000000000079300000000007970000000000797000000000079812184000000000008034000000000006373930500000000000000009999123100000010000000000000BRUSIMACNPA6169
012024070202WHRL3       010WHIRLPOOL   ON           R$  000000000045000000000004500000000000450000000000044800000000004500000000000445000000000045000003000000000000000300000000000000134500000000000000009999123100000010000000000000BRWHRLACNOR5128
012024070202WHRL4       010WHIRLPOOL   PN           R$  000000000045500000000004600000000000452000000000045600000000004580000000000453000000000045800011000000000000001500000000000000684300000000000000009999123100000010000000000000BRWHRLACNPR2128
012024070202WIZC3       010WIZ CO      ON      NM   R$  000000000056900000000005740000000000562000000000056600000000005620000000000562000000000056501800000000000000381200000000000215976700000000000000009999123100000010000000000000BRWIZCACNOR5102
012024070202WLMM4       010WLM IND COM PN           R$  000000000322700000000032270000000003100000000000311600000000031010000000003100000000000318700021000000000000002400000000000007479100000000000000009999123100000010000000000000BRWLMMACNPR3118
012024070202RCSL4       010RECRUSUL    PN           R$  000000000011800000000001220000000000117000000000011800000000001180000000000118000000000011900895000000000000641000000000000075923400000000000000009999123100000010000000000000BRRCSLACNPR1134
012024070202RDNI3       010RNI         ON      NM   R$  000000000030600000000003100000000000306000000000030600000000003060000000000306000000000030900009000000000000001900000000000000582500000000000000009999123100000010000000000000BRRDNIACNOR9116
012024070202RDOR3       010REDE D OR   ON  EJ  NM   R$  000000000267000000000027100000000002652000000000268500000000026910000000002691000000000270013541000000000005753700000000015452024300000000000000009999123100000010000000000000BRRDORACNOR8113
012024070202RECV3       010PETRORECSA  ON      NM   R$  000000000193600000000020500000000001936000000000201900000000020370000000002037000000000203913455000000000004838200000000009773150700000000000000009999123100000010000000000000BRRECVACNOR3107
012024070202REDE3       010REDE ENERGIAON           R$  000000000068000000000006950000000000680000000000069000000000006950000000000685000000000069600048000000000000007800000000000005382800000000000000009999123100000010000000000000BRREDEACNOR7127
012024070202YDUQ3       010YDUQS PART  ON      NM   R$  000000000106000000000010660000000001036000000000104700000000010400000000001039000000000104205460000000000002713600000000002842428800000000000000009999123100000010000000000000BRYDUQACNOR3105
012024070202ZAMP3       010ZAMP S.A.   ON           R$  000000000037200000000003730000000000364000000000036700000000003670000000000366000000000036801058000000000000192100000000000070581400000000000000009999123100000010000000000000BRZAMPACNOR5100
012024070202RSUL4       010RIOSULENSE  PN           R$  000000000685000000000068870000000006732000000000677900000000068000000000006732000000000688700011000000000000001200000000000008134900000000000000009999123100000010000000000000BRRSULACNPR3114
012024070202COCE5       010COELCE      PNA          R$  000000000294400000000029580000000002925000000000293800000000029400000000002925000000000295600293000000000000056400000000000165721200000000000000009999123100000010000000000000BRCOCEACNPA3147
012024070202COGN3       010COGNA ON    ON      NM   R$  000000000017700000000001770000000000165000000000016800000000001660000000000166000000000016711897000000000055554900000000009377816800000000000000009999123100000010000000000000BRCOGNACNOR2104
012024070202ELMD3       010ELETROMIDIA ON      NM   R$  000000000175000000000018370000000001741000000000176700000000017590000000001707000000000183400381000000000000083000000000000146678100000000000000009999123100000010000000000000BRELMDACNOR3101
012024070202EMAE4       010EMAE        PN           R$  000000000475300000000047570000000004651000000000472900000000047560000000004669000000000475600023000000000000002900000000000013714500000000000000009999123100000010000000000000BREMAEACNPR1125
012024070202EMBR3       010EMBRAER     ON      NM   R$  000000000367000000000036700000000003581000000000363500000000036560000000003655000000000365718495000000000004244000000000015428091800000000000000009999123100000010000000000000BREMBRACNOR4191
012024070202IFCM3       010INFRACOMM   ON      NM   R$  000000000003400000000000340000000000033000000000003300000000000340000000000033000000000003401770000000000002291000000000000076665800000000000000009999123100000010000000000000BRIFCMACNOR8101
012024070202IGTI11      010IGUATEMI S.AUNT     N1   R$  000000000207200000000020980000000002069000000000208100000000020740000000002070000000000207411613000000000003589800000000007470602300000000000000009999123100000010000000000000BRIGTICDAM16106
012024070202IGTI3       010IGUATEMI S.AON      N1   R$  000000000026300000000002640000000000260000000000026200000000002600000000000260000000000026200076000000000000024000000000000006288200000000000000009999123100000010000000000000BRIGTIACNOR8106
012024070202INEP3       010INEPAR      ON           R$  000000000019700000000002000000000000190000000000019500000000001930000000000193000000000019700083000000000000022100000000000004323300000000000000009999123100000010000000000000BRINEPACNOR1143
012024070202INEP4       010INEPAR      PN           R$  000000000018500000000001890000000000178000000000018000000000001790000000000178000000000017900054000000000000041400000000000007482000000000000000009999123100000010000000000000BRINEPACNPR8143
012024070202INTB3       010INTELBRAS   ON      NM   R$  000000000226000000000022750000000002217000000000223800000000022530000000002248000000000225707025000000000001278500000000002861574600000000000000009999123100000010000000000000BRINTBACNOR9111
012024070202IRBR3       010IRBBRASIL REON      NM   R$  000000000312100000000031590000000003078000000000311400000000030780000000003078000000000307903030000000000000841100000000002619948800000000000000009999123100000010000000000000BRIRBRACNOR4111
012024070202LUPA3       010LUPATECH    ON      NM   R$  000000000015700000000001570000000000155000000000015600000000001560000000000155000000000015700068000000000000142100000000000022173700000000000000009999123100000010000000000000BRLUPAACNOR8112
012024070202LVTC3       010WDC NETWORKSON      NM   R$  000000000034000000000003510000000000340000000000034500000000003440000000000343000000000034400033000000000000013100000000000004531900000000000000009999123100000010000000000000BRLVTCACNOR4102
012024070202LWSA3       010LWSA        ON      NM   R$  000000000040000000000004010000000000390000000000039300000000003900000000000390000000000039205658000000000006188900000000002436216000000000000000009999123100000010000000000000BRLWSAACNOR8103
012024070202MAPT4       010CEMEPE      PN           R$  000000000050200000000005020000000000493000000000049700000000004930000000000490000000000054800005000000000000000700000000000000348000000000000000009999123100000010000000000000BRMAPTACNPR5106
012024070202MATD3       010MATER DEI   ON      NM   R$  000000000045600000000004650000000000445000000000045500000000004530000000000453000000000046501423000000000000517800000000000235802300000000000000009999123100000010000000000000BRMATDACNOR4104
012024070202MBLY3       010MOBLY       ON      NM   R$  000000000021000000000002110000000000206000000000020700000000002090000000000208000000000020900476000000000000234900000000000048789600000000000000009999123100000010000000000000BRMBLYACNOR5100
012024070202MDIA3       010M.DIASBRANCOON      NM   R$  000000000275300000000027530000000002641000000000268600000000027210000000002721000000000274809143000000000002337900000000006281031700000000000000009999123100000010000000000000BRMDIAACNOR7135
012024070202CEAB3       010CEA MODAS   ON      NM   R$  000000000093700000000009640000000000915000000000092900000000009180000000000918000000000091906786000000000003229800000000003000895100000000000000009999123100000010000000000000BRCEABACNOR1102
012024070202CEBR3       010CEB         ON           R$  000000000203000000000020300000000001991000000000201000000000019920000000001992000000000200000029000000000000003600000000000007238100000000000000009999123100000010000000000000BRCEBRACNOR5125
012024070202CEBR5       010CEB         PNA          R$  000000000182000000000018490000000001800000000000181600000000018260000000001802000000000182600012000000000000001700000000000003087600000000000000009999123100000010000000000000BRCEBRACNPA8124
012024070202CEBR6       010CEB         PNB          R$  000000000199400000000019940000000001940000000000195500000000019560000000001940000000000195600012000000000000001700000000000003324700000000000000009999123100000010000000000000BRCEBRACNPB6124
012024070202CEDO3       010CEDRO       ON      N1   R$  000000000267500000000026750000000002674000000000267400000000026740000000002500000000000293000002000000000000000900000000000002407400000000000000009999123100000010000000000000BRCEDOACNOR8096
012024070202CEDO4       010CEDRO       PN      N1   R$  000000000224100000000022410000000002230000000000223900000000022300000000002250000000000241500003000000000000001100000000000002462900000000000000009999123100000010000000000000BRCEDOACNPR5128
012024070202CEEB3       010COELBA      ON  EJ       R$  000000000397200000000039740000000003915000000000393700000000039150000000003915000000000397400010000000000000001000000000000003937600000000000000009999123100000010000000000000BRCEEBACNOR3199
012024070202CGAS5       010COMGAS      PNA          R$  000000001120500000000112800000000011201000000001121600000000112010000000011200000000001148000006000000000000000600000000000006729700000000000000009999123100000010000000000000BRCGASACNPA3160
012024070202CGRA3       010GRAZZIOTIN  ON  EJ       R$  000000000246300000000025170000000002463000000000249300000000025000000000002500000000000251800010000000000000001500000000000003739900000000000000009999123100000010000000000000BRCGRAACNOR2083
012024070202CGRA4       010GRAZZIOTIN  PN  EJ       R$  000000000251000000000025610000000002501000000000251100000000025010000000002501000000000254200046000000000000008300000000000020848600000000000000009999123100000010000000000000BRCGRAACNPR9083
012024070202CIEL3       010CIELO       ON      NM   R$  000000000056400000000005660000000000563000000000056400000000005660000000000565000000000056606699000000000018819400000000010626646300000000000000009999123100000010000000000000BRCIELACNOR3157
012024070202CLSA3       010CLEARSALE   ON      NM   R$  000000000074300000000007540000000000726000000000074100000000007500000000000748000000000075003406000000000000927300000000000687264500000000000000009999123100000010000000000000BRCLSAACNOR0100
012024070202CLSC4       010CELESC      PN  EJ  N2   R$  000000000735000000000075940000000007350000000000750500000000075940000000007430000000000759500013000000000000001500000000000011258300000000000000009999123100000010000000000000BRCLSCACNPR3131
012024070202CMIG3       010CEMIG       ON  EJ  N1   R$  000000000125500000000012610000000001236000000000124500000000012480000000001248000000000125200812000000000000141900000000000176670900000000000000009999123100000010000000000000BRCMIGACNOR6242
012024070202CMIG4       010CEMIG       PN  EJ  N1   R$  000000000102000000000010250000000000998000000000101000000000010080000000001008000000000101026107000000000012208400000000012330625700000000000000009999123100000010000000000000BRCMIGACNPR3243
012024070202ELET3       010ELETROBRAS  ON      N1   R$  000000000365100000000037350000000003641000000000370300000000037180000000003718000000000372037111000000000015250300000000056473213200000000000000009999123100000010000000000000BRELETACNOR6160
012024070202ELET6       010ELETROBRAS  PNB     N1   R$  000000000408400000000041340000000004056000000000411000000000041110000000004110000000000411105981000000000001343200000000005520876400000000000000009999123100000010000000000000BRELETACNPB7077
012024070202LAND3       010TERRASANTAPAON      NM   R$  000000000144700000000014650000000001417000000000143700000000014650000000001419000000000146500269000000000000030800000000000044267900000000000000009999123100000010000000000000BRLANDACNOR9103
012024070202LAVV3       010LAVVI       ON      NM   R$  000000000084900000000008620000000000836000000000085300000000008540000000000846000000000085404513000000000000878100000000000749385100000000000000009999123100000010000000000000BRLAVVACNOR4112
012024070202LEVE3       010METAL LEVE  ON      NM   R$  000000000316300000000032150000000003162000000000319700000000031990000000003195000000000319901532000000000000256200000000000819233400000000000000009999123100000010000000000000BRLEVEACNOR2197
012024070202LIPR3       010ELETROPAR   ON           R$  000000000488200000000048820000000004882000000000488200000000048820000000004862000000000517900001000000000000000100000000000000488200000000000000009999123100000010000000000000BRLIPRACNOR7122
012024070202LJQQ3       010QUERO-QUERO ON      NM   R$  000000000037000000000003770000000000368000000000037100000000003760000000000375000000000037606943000000000003500000000000001300728000000000000000009999123100000010000000000000BRLJQQACNOR5104
012024070202LOGG3       010LOG COM PROPON      NM   R$  000000000231800000000023750000000002311000000000232600000000023210000000002320000000000232902493000000000000553800000000001288457900000000000000009999123100000010000000000000BRLOGGACNOR7107
012024070202LOGN3       010LOG-IN      ON      NM   R$  000000000360000000000037590000000003570000000000364400000000036930000000003632000000000369500253000000000000040100000000000146134800000000000000009999123100000010000000000000BRLOGNACNOR3105
012024070202LPSB3       010LOPES BRASILON      NM   R$  000000000018100000000001840000000000180000000000018200000000001840000000000181000000000018400190000000000000057900000000000010552100000000000000009999123100000010000000000000BRLPSBACNOR0114
012024070202LREN3       010LOJAS RENNERON  EJ  NM   R$  000000000125500000000012550000000001210000000000122100000000012160000000001215000000000121614760000000000013297300000000016247970200000000000000009999123100000010000000000000BRLRENACNOR1221
012024070202PDGR3       010PDG REALT   ON      NM   R$  000000000001800000000000190000000000017000000000001800000000000180000000000017000000000001800247000000000000645800000000000011625900000000000000009999123100000010000000000000BRPDGRACNOR8118
012024070202PDTC3       010PADTEC      ON      NM   R$  000000000020000000000002020000000000195000000000019800000000001970000000000195000000000019700052000000000000051100000000000010161600000000000000009999123100000010000000000000BRPDTCACNOR3101
012024070202PEAB3       010PAR AL BAHIAON           R$  000000000452500000000045250000000004525000000000452500000000045250000000004200000000000475000001000000000000000200000000000000905000000000000000009999123100000010000000000000BRPEABACNOR3133
012024070202PEAB4       010PAR AL BAHIAPN           R$  000000000508000000000050800000000005080000000000508000000000050800000000003500000000000549900001000000000000000100000000000000508000000000000000009999123100000010000000000000BRPEABACNPR0133
012024070202PETR3       010PETROBRAS   ON      N2   R$  000000000410500000000041530000000004092000000000411400000000040980000000004097000000000410216997000000000007729900000000031802801500000000000000009999123100000010000000000000BRPETRACNOR9205
012024070202PETR4       010PETROBRAS   PN      N2   R$  000000000388300000000039100000000003844000000000387600000000038510000000003851000000000385766049000000000033346200000000129261934800000000000000009999123100000010000000000000BRPETRACNPR6213
012024070202PNVL3       010DIMED       ON  EJ  NM   R$  000000000097900000000009830000000000963000000000097000000000009700000000000970000000000098000930000000000000154200000000000149715600000000000000009999123100000010000000000000BRPNVLACNOR9207
012024070202POMO3       010MARCOPOLO   ON      N2   R$  000000000046700000000004840000000000467000000000047700000000004790000000000479000000000048400822000000000000168900000000000080644600000000000000009999123100000010000000000000BRPOMOACNOR0098
012024070202POMO4       010MARCOPOLO   PN      N2   R$  000000000061200000000006300000000000604000000000062000000000006230000000000622000000000062411260000000000007084300000000004395243000000000000000009999123100000010000000000000BRPOMOACNPR7098
012024070202PORT3       010WILSON SONS ON      NM   R$  000000000150600000000015200000000001485000000000149500000000014880000000001488000000000149901934000000000000663800000000000992485800000000000000009999123100000010000000000000BRPORTACNOR8108
012024070202POSI3       010POSITIVO TECON      NM   R$  000000000078000000000007880000000000765000000000077500000000007800000000000779000000000078007684000000000001978700000000001533816500000000000000009999123100000010000000000000BRPOSIACNOR9116
012024070202PRIO3       010PETRORIO    ON      NM   R$  000000000453600000000046300000000004517000000000458900000000045740000000004573000000000458028009000000000013692300000000062846688700000000000000009999123100000010000000000000BRPRIOACNOR1106
012024070202PINE3       010PINE        ON      N2   R$  000000000050000000000005470000000000476000000000050400000000004990000000000480000000000050000041000000000000008600000000000004340600000000000000009999123100000010000000000000BRPINEACNOR1149
012024070202PINE4       010PINE        PN      N2   R$  000000000041500000000004350000000000414000000000042700000000004320000000000432000000000043300776000000000000408800000000000174835900000000000000009999123100000010000000000000BRPINEACNPR8149
012024070202PLAS3       010PLASCAR PARTON           R$  000000000050000000000005000000000000500000000000050000000000005000000000000500000000000055000002000000000000000200000000000000100000000000000000009999123100000010000000000000BRPLASACNOR2106
012024070202PLPL3       010PLANOEPLANO ON      NM   R$  000000000099400000000010150000000000969000000000098200000000009690000000000969000000000097202893000000000000843700000000000829227700000000000000009999123100000010000000000000BRPLPLACNOR5104
012024070202RAIZ4       010RAIZEN      PN      N2   R$  000000000029600000000003030000000000294000000000029900000000002990000000000299000000000030014044000000000019768600000000005911296200000000000000009999123100000010000000000000BRRAIZACNPR6110
012024070202RANI3       010IRANI       ON      NM   R$  000000000086400000000008750000000000856000000000086600000000008720000000000866000000000087202818000000000000791500000000000685927500000000000000009999123100000010000000000000BRRANIACNOR5072
012024070202RAPT3       010RANDON PART ON      N1   R$  000000000094400000000009590000000000935000000000094700000000009590000000000945000000000095900081000000000000017000000000000016115600000000000000009999123100000010000000000000BRRAPTACNOR7162
012024070202RAPT4       010RANDON PART PN      N1   R$  000000000113700000000011450000000001117000000000112800000000011170000000001116000000000112106608000000000001913700000000002158771500000000000000009999123100000010000000000000BRRAPTACNPR4162
012024070202RCSL3       010RECRUSUL    ON           R$  000000000028300000000002830000000000274000000000027600000000002750000000000275000000000027600111000000000000072800000000000020115900000000000000009999123100000010000000000000BRRCSLACNOR4134
012024070202STBP3       010SANTOS BRP  ON      NM   R$  000000000130400000000013390000000001295000000000132300000000013210000000001320000000000132111236000000000003466800000000004588844600000000000000009999123100000010000000000000BRSTBPACNOR3130
012024070202SUZB3       010SUZANO S.A. ON      NM   R$  000000000575000000000058090000000005706000000000575700000000057600000000005757000000000576223625000000000007265800000000041831109600000000000000009999123100000010000000000000BRSUZBACNOR0130
012024070202QUAL3       010QUALICORP   ON      NM   R$  000000000014000000000001430000000000139000000000014000000000001400000000000140000000000014101246000000000002345900000000000330216800000000000000009999123100000010000000000000BRQUALACNOR6120
012024070202RADL3       010RAIADROGASILON      NM   R$  000000000256800000000025680000000002523000000000253800000000025320000000002530000000000255311344000000000003496200000000008876735500000000000000009999123100000010000000000000BRRADLACNOR0156
012024070202RAIL3       010RUMO S.A.   ON      NM   R$  000000000206200000000021060000000002062000000000208000000000020690000000002068000000000207820033000000000012111700000000025195766500000000000000009999123100000010000000000000BRRAILACNOR9105
012024070202SMFT3       010SMART FIT   ON  EJ  NM   R$  000000000218100000000022050000000002101000000000213200000000021010000000002101000000000210509749000000000004290900000000009151197500000000000000009999123100000010000000000000BRSMFTACNOR1112
012024070202SMTO3       010SAO MARTINHOON  EJ  NM   R$  000000000336500000000033890000000003181000000000325100000000032430000000003240000000000324320500000000000004938200000000016056067500000000000000009999123100000010000000000000BRSMTOACNOR3126
012024070202SNSY3       010SANSUY      ON           R$  000000000125000000000012900000000001235000000000126800000000012800000000001235000000000128300013000000000000001300000000000001649400000000000000009999123100000010000000000000BRSNSYACNOR2113
012024070202SNSY5       010SANSUY      PNA          R$  000000000059000000000006250000000000570000000000059600000000006190000000000595000000000062300015000000000000006700000000000003996800000000000000009999123100000010000000000000BRSNSYACNPA5111
012024070202SOJA3       010BOA SAFRA   ON      NM   R$  000000000149100000000015120000000001481000000000148900000000014840000000001484000000000149202258000000000000503900000000000750442100000000000000009999123100000010000000000000BRSOJAACNOR9105
012024070202SOMA3       010GRUPO SOMA  ON      NM   R$  000000000060400000000006080000000000593000000000059700000000005940000000000593000000000059516602000000000008875900000000005303374100000000000000009999123100000010000000000000BRSOMAACNOR3102
012024070202SRNA3       010SERENA      ON      NM   R$  000000000088600000000008960000000000866000000000087600000000008690000000000869000000000087304627000000000001668700000000001463428400000000000000009999123100000010000000000000BRSRNAACNOR4100
012024070202PRNR3       010PRINER      ON      NM   R$  000000000105400000000010710000000001051000000000106100000000010610000000001060000000000106201155000000000000270400000000000286923000000000000000009999123100000010000000000000BRPRNRACNOR4109
012024070202PSSA3       010PORTO SEGUROON  EJ  NM   R$  000000000306100000000030630000000003005000000000304000000000030380000000003038000000000303904896000000000001667600000000005071129400000000000000009999123100000010000000000000BRPSSAACNOR7155
012024070202PTBL3       010PORTOBELLO  ON      NM   R$  000000000045500000000004660000000000449000000000045400000000004570000000000454000000000045700821000000000000460700000000000209510600000000000000009999123100000010000000000000BRPTBLACNOR8132
012024070202PTNT3       010PETTENATI   ON           R$  000000000096400000000009740000000000943000000000096100000000009430000000000942000000000097100003000000000000000400000000000000384500000000000000009999123100000010000000000000BRPTNTACNOR6042
012024070202PTNT4       010PETTENATI   PN           R$  000000000061400000000006160000000000612000000000061300000000006160000000000595000000000061600012000000000000005400000000000003313000000000000000009999123100000010000000000000BRPTNTACNPR3047
012024070202SCAR3       010SAO CARLOS  ON      NM   R$  000000000230800000000023510000000002271000000000228900000000022800000000002280000000000233400028000000000000003900000000000008929700000000000000009999123100000010000000000000BRSCARACNOR7131
012024070202SEER3       010SER EDUCA   ON      NM   R$  000000000047000000000004860000000000470000000000047800000000004800000000000480000000000048202308000000000000508000000000000243052300000000000000009999123100000010000000000000BRSEERACNOR5119
012024070202SEQL3       010SEQUOIA LOG ON      NM   R$  000000000042600000000004300000000000386000000000040500000000003970000000000396000000000039701309000000000000537400000000000217828400000000000000009999123100000010000000000000BRSEQLACNOR2103
012024070202SHOW3       010TIME FOR FUNON      NM   R$  000000000014700000000001540000000000147000000000015100000000001540000000000149000000000015400197000000000000086700000000000013094400000000000000009999123100000010000000000000BRSHOWACNOR7105
012024070202SHUL4       010SCHULZ      PN  EJ       R$  000000000060200000000006130000000000600000000000060500000000006020000000000601000000000060901620000000000000384900000000000233121100000000000000009999123100000010000000000000BRSHULACNPR4156
012024070202SIMH3       010SIMPAR      ON      NM   R$  000000000053800000000005450000000000528000000000053400000000005330000000000532000000000053707884000000000003759600000000002011082900000000000000009999123100000010000000000000BRSIMHACNOR0107
012024070202MGEL4       010MANGELS INDLPN           R$  000000000128100000000012810000000001280000000000128000000000012800000000001262000000000130000002000000000000000200000000000000256100000000000000009999123100000010000000000000BRMGELACNPR3147
012024070202MGLU3       010MAGAZ LUIZA ON      NM   R$  000000000121000000000012330000000001195000000000121400000000012170000000001217000000000121815489000000000015119100000000018363616700000000000000009999123100000010000000000000BRMGLUACNOR2124
012024070202CYRE3       010CYRELA REALTON      NM   R$  000000000186100000000019000000000001845000000000187900000000018850000000001885000000000189013578000000000005025200000000009444044000000000000000009999123100000010000000000000BRCYREACNOR7140
012024070202GGPS3       010GPS         ON      NM   R$  000000000168900000000017050000000001674000000000168500000000016740000000001674000000000167608882000000000003386100000000005706524800000000000000009999123100000010000000000000BRGGPSACNOR9103
012024070202GMAT3       010GRUPO MATEUSON      NM   R$  000000000068200000000006920000000000676000000000068300000000006850000000000685000000000069106514000000000002969100000000002030846400000000000000009999123100000010000000000000BRGMATACNOR7102
012024070202JALL3       010JALLESMACHADON      NM   R$  000000000074800000000007800000000000748000000000076800000000007750000000000771000000000077503683000000000002361800000000001816140800000000000000009999123100000010000000000000BRJALLACNOR0105
012024070202JBSS3       010JBS         ON      NM   R$  000000000326700000000033300000000003267000000000329300000000032800000000003278000000000328315085000000000004658600000000015341472800000000000000009999123100000010000000000000BRJBSSACNOR8121
012024070202MRVE3       010MRV         ON      NM   R$  000000000065700000000006660000000000645000000000065200000000006500000000000649000000000065012798000000000008947400000000005836232300000000000000009999123100000010000000000000BRMRVEACNOR2127
012024070202ASAI3       010ASSAI       ON      NM   R$  000000000099800000000010040000000000978000000000099000000000009900000000000989000000000099238809000000000021630700000000021421669100000000000000009999123100000010000000000000BRASAIACNOR0106
012024070202ODPV3       010ODONTOPREV  ON  EJ  NM   R$  000000000115500000000011740000000001139000000000115300000000011500000000001150000000000115304550000000000001366600000000001576353000000000000000009999123100000010000000000000BRODPVACNOR4202
012024070202OFSA3       010OUROFINO S/AON      NM   R$  000000000191900000000019290000000001919000000000192000000000019190000000001886000000000192000009000000000000003000000000000005762100000000000000009999123100000010000000000000BROFSAACNOR7118
012024070202ONCO3       010ONCOCLINICASON      NM   R$  000000000059300000000006410000000000591000000000062300000000006380000000000632000000000063906961000000000003194800000000001992969100000000000000009999123100000010000000000000BRONCOACNOR6101
012024070202OPCT3       010OCEANPACT   ON      NM   R$  000000000063200000000006420000000000627000000000063300000000006410000000000634000000000064100974000000000000308200000000000195326600000000000000009999123100000010000000000000BROPCTACNOR0100
012024070202ORVR3       010ORIZON      ON      NM   R$  000000000383100000000039160000000003831000000000385500000000038490000000003845000000000386301649000000000000273900000000001056012600000000000000009999123100000010000000000000BRORVRACNOR0101
012024070202ECOR3       010ECORODOVIAS ON      NM   R$  000000000066500000000006860000000000663000000000067500000000006730000000000672000000000067807743000000000003269100000000002208349300000000000000009999123100000010000000000000BRECORACNOR8120
012024070202EGIE3       010ENGIE BRASILON      NM   R$  000000000444400000000044660000000004419000000000444400000000044340000000004433000000000444004581000000000001027200000000004565856300000000000000009999123100000010000000000000BREGIEACNOR9126
012024070202HBOR3       010HELBOR      ON      NM   R$  000000000020500000000002080000000000203000000000020400000000002030000000000202000000000020500542000000000000294400000000000060139600000000000000009999123100000010000000000000BRHBORACNOR3118
012024070202HBRE3       010HBR REALTY  ON      NM   R$  000000000050600000000005180000000000504000000000050700000000005080000000000508000000000051300728000000000000220700000000000112057300000000000000009999123100000010000000000000BRHBREACNOR4100
012024070202HBSA3       010HIDROVIAS   ON      NM   R$  000000000037000000000003900000000000370000000000037600000000003810000000000381000000000038703250000000000003838100000000001444992400000000000000009999123100000010000000000000BRHBSAACNOR0100
012024070202HETA4       010HERCULES    PN           R$  000000000052700000000005270000000000527000000000052700000000005270000000000501000000000063300002000000000000000700000000000000368900000000000000009999123100000010000000000000BRHETAACNPR9136
012024070202HYPE3       010HYPERA      ON  EJ  NM   R$  000000000287100000000029290000000002865000000000287900000000028700000000002870000000000287809020000000000002376600000000006842234700000000000000009999123100000010000000000000BRHYPEACNOR0142
012024070202JSLG3       010JSL         ON      NM   R$  000000000093000000000009460000000000926000000000093600000000009400000000000938000000000094201134000000000000304600000000000285241100000000000000009999123100000010000000000000BRJSLGACNOR2121
012024070202BRSR3       010BANRISUL    ON      N1   R$  000000000119400000000012050000000001192000000000119700000000012050000000001195000000000120500022000000000000004200000000000005031500000000000000009999123100000010000000000000BRBRSRACNOR3188
012024070202BRSR6       010BANRISUL    PNB     N1   R$  000000000112700000000011440000000001127000000000113600000000011360000000001136000000000114005353000000000001122000000000001274994400000000000000009999123100000010000000000000BRBRSRACNPB4191
012024070202BSLI3       010BRB BANCO   ON           R$  000000000096000000000010000000000000959000000000096400000000009600000000000960000000000099900006000000000000001600000000000001543700000000000000009999123100000010000000000000BRBSLIACNOR5194
012024070202KEPL3       010KEPLER WEBERON  ED  NM   R$  000000000092700000000009380000000000919000000000093000000000009300000000000930000000000093503537000000000000765500000000000712230700000000000000009999123100000010000000000000BRKEPLACNOR1063
012024070202KLBN11      010KLABIN S/A  UNT     N2   R$  000000000219000000000022020000000002155000000000217400000000021700000000002170000000000217113151000000000003973900000000008640204200000000000000009999123100000010000000000000BRKLBNCDAM18142
012024070202KLBN3       010KLABIN S/A  ON      N2   R$  000000000043600000000004420000000000431000000000043500000000004320000000000432000000000043600626000000000000299000000000000130308500000000000000009999123100000010000000000000BRKLBNACNOR2170
012024070202KLBN4       010KLABIN S/A  PN      N2   R$  000000000043400000000004390000000000431000000000043400000000004320000000000432000000000043301550000000000000972600000000000422473100000000000000009999123100000010000000000000BRKLBNACNPR9170
012024070202KRSA3       010KORA SAUDE  ON      NM   R$  000000000006900000000000720000000000066000000000006900000000000700000000000070000000000007100530000000000001026400000000000071141900000000000000009999123100000010000000000000BRKRSAACNOR0100
012024070202RENT3       010LOCALIZA    ON  EJS NM   R$  000000000418200000000041980000000004102000000000416300000000041700000000004170000000000417520695000000000007536200000000031374945200000000000000009999123100000010000000000000BRRENTACNOR4196
012024070202SYNE3       010SYN PROP TECON      NM   R$  000000000091800000000009350000000000918000000000092700000000009330000000000927000000000093301648000000000000318700000000000295461000000000000000009999123100000010000000000000BRSYNEACNOR2102
012024070202CAMB3       010CAMBUCI     ON           R$  000000000103000000000010440000000001026000000000103100000000010370000000001027000000000103700102000000000000044500000000000045898200000000000000009999123100000010000000000000BRCAMBACNOR4130
012024070202CAML3       010CAMIL       ON      NM   R$  000000000083500000000008350000000000820000000000082800000000008340000000000834000000000083502154000000000000507000000000000419936700000000000000009999123100000010000000000000BRCAMLACNOR3128
012024070202CASH3       010MELIUZ      ON      NM   R$  000000000055500000000005600000000000542000000000055000000000005460000000000545000000000054803427000000000001410500000000000775962100000000000000009999123100000010000000000000BRCASHACNOR8106
012024070202CBAV3       010CBA         ON      NM   R$  000000000068600000000007010000000000673000000000068600000000006870000000000686000000000069004948000000000002072000000000001423319600000000000000009999123100000010000000000000BRCBAVACNOR5104
012024070202CCRO3       010CCR SA      ON      NM   R$  000000000114700000000011600000000001140000000000114600000000011410000000001140000000000114609831000000000006106400000000007003486900000000000000009999123100000010000000000000BRCCROACNOR2145
012024070202DXCO3       010DEXCO       ON      NM   R$  000000000065300000000006610000000000641000000000065100000000006490000000000648000000000065307695000000000005796000000000003774301800000000000000009999123100000010000000000000BRDXCOACNOR8105
012024070202AALR3       010ALLIAR      ON      NM   R$  000000000107000000000010790000000001012000000000105700000000010770000000001066000000000107900315000000000000073700000000000077920900000000000000009999123100000010000000000000BRAALRACNOR6102
012024070202ABCB4       010ABC BRASIL  PN  EJ  N2   R$  000000000211500000000021470000000002114000000000213200000000021380000000002126000000000213803045000000000000526600000000001122825900000000000000009999123100000010000000000000BRABCBACNPR4146
012024070202ABEV3       010AMBEV S/A   ON           R$  000000000114500000000011580000000001139000000000114800000000011460000000001146000000000115220661000000000020259500000000023264462200000000000000009999123100000010000000000000BRABEVACNOR1127
012024070202BBDC3       010BRADESCO    ON  EJ  N1   R$  000000000111000000000011160000000001103000000000111100000000011130000000001113000000000111613143000000000006537100000000007266008500000000000000009999123100000010000000000000BRBBDCACNOR1772
012024070202BBDC4       010BRADESCO    PN  EJ  N1   R$  000000000122600000000012340000000001220000000000122400000000012230000000001223000000000122423547000000000026562800000000032529300400000000000000009999123100000010000000000000BRBBDCACNPR8772
012024070202CMIN3       010CSNMINERACAOON      N2   R$  000000000054700000000005520000000000532000000000054000000000005420000000000541000000000054213371000000000013354400000000007213993200000000000000009999123100000010000000000000BRCMINACNOR2111
012024070202BMKS3       010BIC MONARK  ON           R$  000000003300000000000330000000000033000000000003300000000000330000000000032999000000003398000001000000000000000001000000000000033000000000000000009999123100000010000000000000BRBMKSACNOR9166
012024070202BMOB3       010BEMOBI TECH ON      NM   R$  000000000133000000000013480000000001323000000000133500000000013350000000001335000000000133801458000000000000253300000000000338210300000000000000009999123100000010000000000000BRBMOBACNOR7103
012024070202BOBR4       010BOMBRIL     PN           R$  000000000020400000000002040000000000201000000000020300000000002010000000000200000000000020200015000000000000004500000000000000913600000000000000009999123100000010000000000000BRBOBRACNPR3128
012024070202EALT4       010ACO ALTONA  PN           R$  000000000109400000000011340000000001094000000000110800000000011130000000001106000000000111900043000000000000007000000000000007757600000000000000009999123100000010000000000000BREALTACNPR1138
012024070202BALM4       010BAUMER      PN           R$  000000000100000000000010350000000001000000000000102000000000010350000000000990000000000104500003000000000000000300000000000000306000000000000000009999123100000010000000000000BRBALMACNPR2056
012024070202BAUH4       010EXCELSIOR   PN           R$  000000000790000000000079000000000007900000000000790000000000079000000000007750000000000000000001000000000000000100000000000000790000000000000000009999123100000010000000000000BRBAUHACNPR3118
012024070202BAZA3       010AMAZONIA    ON           R$  000000000990000000000101620000000009900000000001002700000000100500000000009703000000001005000010000000000000001300000000000013035400000000000000009999123100000010000000000000BRBAZAACNOR0179
012024070202BBAS3       010BRASIL      ON      NM   R$  000000000264200000000026560000000002638000000000264500000000026450000000002645000000000264625564000000000016107800000000042616211300000000000000009999123100000010000000000000BRBBASACNOR3324
012024070202BIOM3       010BIOMM       ON      MA   R$  000000000144200000000014420000000001390000000000140800000000013900000000001390000000000140700383000000000000062600000000000088197700000000000000009999123100000010000000000000BRBIOMACNOR2112
012024070202ARML3       010ARMAC       ON      NM   R$  000000000099000000000010120000000000972000000000099500000000010020000000001002000000000100402213000000000000502000000000000499858000000000000000009999123100000010000000000000BRARMLACNOR1111
012024070202ARZZ3       010AREZZO CO   ON      NM   R$  000000000510000000000051430000000005047000000000508400000000050810000000005079000000000508806890000000000001233500000000006272061800000000000000009999123100000010000000000000BRARZZACNOR3146
012024070202BPAC11      010BTGP BANCO  UNT     N2   R$  000000000311400000000031460000000003081000000000312200000000031310000000003131000000000314026263000000000008642800000000026983363000000000000000009999123100000010000000000000BRBPACUNT006118
012024070202BPAC3       010BTGP BANCO  ON      N2   R$  000000000151500000000015460000000001510000000000152900000000015280000000001511000000000154000011000000000000001100000000000001682300000000000000009999123100000010000000000000BRBPACACNOR7133
012024070202BPAC5       010BTGP BANCO  PNA     N2   R$  000000000078700000000008000000000000772000000000078200000000007970000000000781000000000079700019000000000000003700000000000002894300000000000000009999123100000010000000000000BRBPACACNPA0133
012024070202MTRE3       010MITRE REALTYON  ED  NM   R$  000000000035700000000003590000000000353000000000035500000000003580000000000358000000000035901313000000000000592900000000000211019500000000000000009999123100000010000000000000BRMTREACNOR6112
012024070202MTSA4       010METISA      PN           R$  000000000439300000000044740000000004393000000000443900000000044500000000004372000000000446900037000000000000004100000000000018200200000000000000009999123100000010000000000000BRMTSAACNPR9072
012024070202MULT3       010MULTIPLAN   ON  EJ  N2   R$  000000000225000000000022980000000002250000000000227600000000022580000000002258000000000227212917000000000003513200000000007996628100000000000000009999123100000010000000000000BRMULTACNOR5139
012024070202MWET4       010WETZEL S/A  PN           R$  000000000084000000000008400000000000828000000000083700000000008280000000000830000000000089900002000000000000000500000000000000418800000000000000009999123100000010000000000000BRMWETACNPR3118
012024070202MYPK3       010IOCHP-MAXIONON  EJ  NM   R$  000000000116100000000011660000000001126000000000113800000000011320000000001132000000000114405983000000000001266900000000001442993500000000000000009999123100000010000000000000BRMYPKACNOR7155
012024070202FIQE3       010UNIFIQUE    ON      NM   R$  000000000034900000000003520000000000346000000000035000000000003500000000000349000000000035101106000000000000366500000000000128525100000000000000009999123100000010000000000000BRFIQEACNOR5107
012024070202FLRY3       010FLEURY      ON      NM   R$  000000000153700000000015500000000001502000000000151700000000015070000000001506000000000151008718000000000004010800000000006087268200000000000000009999123100000010000000000000BRFLRYACNOR5138
012024070202FRAS3       010FRAS-LE     ON      N1   R$  000000000194700000000019510000000001925000000000193600000000019370000000001936000000000193801634000000000000246400000000000477194800000000000000009999123100000010000000000000BRFRASACNOR0159
012024070202BLAU3       010BLAU        ON  EJ  NM   R$  000000000101500000000010690000000001015000000000105200000000010500000000001050000000000105901135000000000000211200000000000222311500000000000000009999123100000010000000000000BRBLAUACNOR8114
012024070202BMEB3       010MERCANTIL   ON      N1   R$  000000000252100000000025210000000002520000000000252000000000025210000000002511000000000264900003000000000000001100000000000002772600000000000000009999123100000010000000000000BRBMEBACNOR8205
012024070202BMEB4       010MERCANTIL   PN      N1   R$  000000000282500000000029000000000002825000000000285900000000029000000000002854000000000290000046000000000000006300000000000018015200000000000000009999123100000010000000000000BRBMEBACNPR5210
012024070202BMGB4       010BANCO BMG   PN      N1   R$  000000000033600000000003390000000000334000000000033500000000003370000000000334000000000033700784000000000000393900000000000132347300000000000000009999123100000010000000000000BRBMGBACNPR0109
012024070207NUTR3       010NUTRIPLANT  ON      MA   R$  000000000049800000000005270000000000498000000000051200000000005270000000000504000000000052700018000000000000002900000000000001485700000000000000009999123100000010000000000000BRNUTRACNOR0104
012024070208CTNM4       010COTEMINAS   PN           R$  000000000006700000000000670000000000067000000000006700000000000670000000000067000000000007300014000000000000062500000000000004187500000000000000009999123100000010000000000000BRCTNMACNPR6129
012024070208CTSA3       010SANTANENSE  ON           R$  000000000022800000000002310000000000228000000000022900000000002300000000000225000000000023200005000000000000001000000000000000229400000000000000009999123100000010000000000000BRCTSAACNOR3062
012024070208CTSA4       010SANTANENSE  PN           R$  000000000008100000000000840000000000081000000000008300000000000840000000000083000000000008500013000000000000013600000000000001131800000000000000009999123100000010000000000000BRCTSAACNPR0062
012024070208RNEW11      010RENOVA      UNT     N2   R$  000000000027300000000002790000000000272000000000027400000000002790000000000275000000000027900019000000000000005700000000000001564700000000000000009999123100000010000000000000BRRNEWCDAM15110
012024070208RNEW3       010RENOVA      ON      N2   R$  000000000009000000000000930000000000089000000000009100000000000920000000000091000000000009200067000000000000036500000000000003322000000000000000009999123100000010000000000000BRRNEWACNOR8110
012024070208RNEW4       010RENOVA      PN      N2   R$  000000000009200000000000950000000000090000000000009200000000000930000000000092000000000009400097000000000000125100000000000011621100000000000000009999123100000010000000000000BRRNEWACNPR5110
012024070208RPMG3       010PET MANGUINHON           R$  000000000026300000000002880000000000253000000000027100000000002800000000000280000000000029000244000000000000112200000000000030480900000000000000009999123100000010000000000000BRRPMGACNOR9194
012024070208TEKA4       010TEKA        PN           R$  000000000265100000000031570000000002651000000000290400000000031570000000002550000000000315800002000000000000000200000000000000580800000000000000009999123100000010000000000000BRTEKAACNPR3140
012024070208NEXP3       010NEXPE       ON           R$  000000000043800000000004590000000000421000000000043500000000004210000000000417000000000043400025000000000000004800000000000002089300000000000000009999123100000010000000000000BRNEXPACNOR0101
012024070208AMER3       010AMERICANAS  ON      NM   R$  000000000004100000000000410000000000039000000000003900000000000390000000000039000000000004001598000000000012145300000000000478925600000000000000009999123100000010000000000000BRAMERACNOR6102
012024070208ATMP3       010ATMASA      ON           R$  000000000018200000000001820000000000181000000000018100000000001810000000000182000000000018700011000000000000001400000000000000253600000000000000009999123100000010000000000000BRATMPACNOR8100
012024070208ETER3       010ETERNIT     ON      NM   R$  000000000059400000000005940000000000584000000000058700000000005880000000000587000000000059000386000000000000110400000000000064891900000000000000009999123100000010000000000000BRETERACNOR3243
012024070208JFEN3       010JOAO FORTES ON           R$  000000000005000000000000510000000000046000000000004800000000000460000000000046000000000004800493000000000000296400000000000014319700000000000000009999123100000010000000000000BRJFENACNOR0059
012024070208RSID3       010ROSSI RESID ON      NM   R$  000000000051300000000005130000000000497000000000050500000000005100000000000510000000000051700092000000000000025500000000000012880200000000000000009999123100000010000000000000BRRSIDACNOR8120
012024070208LIGT3       010LIGHT S/A   ON      NM   R$  000000000049300000000005040000000000492000000000049800000000004990000000000499000000000050203778000000000000734600000000000366379900000000000000009999123100000010000000000000BRLIGTACNOR2124
012024070208PMAM3       010PARANAPANEMAON      NM   R$  000000000023600000000002390000000000234000000000023500000000002370000000000237000000000024000231000000000000044900000000000010583600000000000000009999123100000010000000000000BRPMAMACNOR3039
012024070208SGPS3       010SPRINGS     ON  EG  NM   R$  000000000015100000000001510000000000151000000000015100000000001510000000000151000000000018000020000000000000012600000000000001902600000000000000009999123100000010000000000000BRSGPSACNOR4105
012024070208OIBR3       010OI          ON      N1   R$  000000000060500000000006420000000000588000000000062400000000006220000000000620000000000062203561000000000002139600000000001335747400000000000000009999123100000010000000000000BROIBRACNOR1111
012024070208OIBR4       010OI          PN      N1   R$  000000000159900000000016460000000001579000000000161800000000016010000000001610000000000162000153000000000000029900000000000048401800000000000000009999123100000010000000000000BROIBRACNPR8110
012024070208OSXB3       010OSX BRASIL  ON      NM   R$  000000000038200000000003820000000000377000000000037900000000003770000000000377000000000038800010000000000000002100000000000000796900000000000000009999123100000010000000000000BROSXBACNOR8109
012024070208HOOT4       010HOTEIS OTHONPN           R$  000000000025100000000002760000000000251000000000026800000000002760000000000254000000000027500005000000000000000700000000000000188200000000000000009999123100000010000000000000BRHOOTACNPR9015
012024070210VIVR1       010VIVER       DIR ORD NM   R$  000000000000100000000000010000000000001000000000000100000000000010000000000000000000000000100029000000000000981300000000000000981300000000000000009999123100000010000000000000BRVIVRD18OR3122
012024070210AMAR1       010LOJAS MARISADIR ORD NM   R$  000000000000100000000000010000000000001000000000000100000000000010000000000000000000000000100050000000000000142600000000000000142600000000000000009999123100000010000000000000BRAMARD02OR7114
012024070210EQTL9       010EQUATORIAL  ON  REC NM   R$  000000000321000000000032100000000003137000000000319400000000031370000000003137000000000339900024000000000000005600000000000017888400000000000000009999123100000010000000000000BREQTLR03OR1129
012024070210BSLI10      010BRB BANCO   PN  REC      R$  000000000085000000000008500000000000850000000000085000000000008500000000000800000000000088000001000000000000000100000000000000085000000000000000009999123100000010000000000000BRBSLIR02PR5192
012024070210RENT1       010LOCALIZA    DIR ORD NM   R$  000000000097200000000010440000000000900000000000095900000000010000000000000953000000000100000723000000000000094500000000000090671000000000000000009999123100000010000000000000BRRENTD06OR8195
012024070210BODB12      010FIC FI BCNA DIR          R$  000000000000200000000000020000000000001000000000000100000000000010000000000000000000000000100121000000000000389191000000000000444705000000000000009999123100000010000000000000BRBODBD04M10134
012024070212BPML11      010FII BTG SHOPCI           R$  000000000940500000000095140000000009205000000000939100000000095000000000009500000000000960001672000000000000006110000000000057383195000000000000009999123100000010000000000000BRBPMLCTF006131
012024070212BPRP11      010FII BRLPROP CI           R$  000000001090000000000109000000000010900000000001090000000000109000000000010201000000001085000001000000000000000001000000000000010900000000000000009999123100000010000000000000BRBPRPCTF006159
012024070212FAED11      010FII ANH EDUCCI           R$  000000001549600000000154990000000015248000000001530000000000154990000000015402000000001549900082000000000000000898000000000013739699000000000000009999123100000010000000000000BRFAEDCTF003278
012024070212FAMB11      010FII ALMIRANTCI           R$  000000005900000000000590000000000058000000000005838400000000581040000000057666000000005950000018000000000000000052000000000003035969000000000000009999123100000010000000000000BRFAMBCTF018316
012024070212FATN11      010FII ATHENA ICI           R$  000000000921400000000092370000000009179000000000920100000000091790000000009179000000000919001816000000000000008928000000000082148466000000000000009999123100000010000000000000BRFATNCTF000152
012024070212FCFL11      010FII CAMPUSFLCI           R$  000000001155000000000115500000000010864000000001130800000000114990000000011411000000001149900314000000000000007834000000000088590068000000000000009999123100000010000000000000BRFCFLCTF009270
012024070212FIGS11      010FII GEN SHOPCI  ER       R$  000000000549300000000055040000000005456000000000546100000000054930000000005456000000000549300094000000000000001393000000000007608218000000000000009999123100000010000000000000BRFIGSCTF009229
012024070212FIIB11      010FII INDL BR CI  ER       R$  000000005028000000000502990000000049500000000004980200000000496490000000049557000000004960000134000000000000000362000000000018028389000000000000009999123100000010000000000000BRFIIBCTF001252
012024070212FIIP11B     010FII RB CAP ICI  ER  MB   R$  000000001721500000000180770000000017210000000001734100000000173000000000017300000000001742800055000000000000000496000000000008601444000000000000009999123100000010000000000000BRFIIPCTF001275
012024070212OUFF11      010FII OURI FOFCI           R$  000000000600000000000060500000000005999000000000601600000000060150000000006010000000000601500164000000000000004829000000000029055092000000000000009999123100000010000000000000BROUFFCTF005160
012024070212OUJP11      010FII OURI JPPCI  ER       R$  000000000823200000000082630000000008106000000000819800000000081990000000008199000000000822901678000000000000010296000000000084408518000000000000009999123100000010000000000000BROUJPCTF006188
012024070212OULG11      010FII OURILOG CI           R$  000000000285300000000028530000000002771000000000281800000000028190000000002819000000000282000674000000000000002310000000000006509784000000000000009999123100000010000000000000BROULGCTF001153
012024070212OURE11      010FII OU RENDACI           R$  000000000766600000000076760000000007605000000000763200000000076310000000007606000000000763000073000000000000000511000000000003900193000000000000009999123100000010000000000000BROURECTF003143
012024070212MMVE11      010FII MMVE OP CI           R$  000000001618700000000161870000000016187000000001618700000000161870000000008500000000000000000002000000000000000002000000000000032374000000000000009999123100000010000000000000BRMMVECTF006100
012024070212PABY11      010FII PANAMBY CI           R$  000000000131200000000013120000000001310000000000131100000000013120000000001267000000000131200007000000000000000100000000000000131192000000000000009999123100000010000000000000BRPABYCTF012158
012024070212PATC11      010FII PATRIA  CI  ER       R$  000000000350100000000035010000000003476000000000349300000000035000000000003485000000000350000113000000000000002261000000000007898656000000000000009999123100000010000000000000BRPATCCTF002171
012024070212PATL11      010FII PATLOGISCI  ER       R$  000000000600100000000060350000000006000000000000600600000000060110000000006003000000000601100709000000000000005239000000000031468571000000000000009999123100000010000000000000BRPATLCTF003147
012024070212BCRI11      010FII BEES CRICI  ER       R$  000000000659200000000066150000000006570000000000659100000000065900000000006589000000000659402681000000000000012249000000000080737867000000000000009999123100000010000000000000BRBCRICTF009216
012024070212BPFF11      010FII ABSOLUTOCI  ER       R$  000000000690600000000069550000000006870000000000690400000000069070000000006900000000000690700494000000000000004052000000000027975578000000000000009999123100000010000000000000BRBPFFCTF002237
012024070212CTXT11      010FII C TEXTILCI           R$  000000000084100000000008660000000000841000000000085700000000008650000000000841000000000086400005000000000000000006000000000000005143000000000000009999123100000010000000000000BRCTXTCTF014207
012024070212CVBI11      010FII VBI CRI CI           R$  000000000953900000000095650000000009327000000000940200000000093760000000009365000000000937608782000000000000044140000000000415031403000000000000009999123100000010000000000000BRCVBICTF001166
012024070212CXAG11      010FII CAIXA AGCI  ER       R$  000000000759000000000075900000000007550000000000756700000000075760000000007572000000000757900088000000000000001259000000000009527092000000000000009999123100000010000000000000BRCXAGCTF003129
012024070212CXCE11      010FII CX CEDAECI  ER       R$  000000000396800000000040050000000003968000000000399100000000040050000000004000000000000400500017000000000000000236000000000000942012000000000000009999123100000010000000000000BRCXCECTF004270
012024070212CXCI11      010FII CAIXA CICI           R$  000000000823600000000082360000000008005000000000806500000000081010000000008100000000000813700184000000000000002457000000000019817938000000000000009999123100000010000000000000BRCXCICTF005127
012024070212CXCO11      010FII CEF CORPCI  ER       R$  000000000751400000000075330000000007505000000000752000000000075270000000007527000000000753000077000000000000001231000000000009257185000000000000009999123100000010000000000000BRCXCOCTF003139
012024070212BRIM11      010FII BRIO II CI  ER       R$  000000010819200000001081920000000108192000000010819200000001081920000000055000000000011040000001000000000000000001000000000000108192000000000000009999123100000010000000000000BRBRIMCTF008128
012024070212DAMA11      010FII DAMA    CI           R$  000000000101600000000010160000000001015000000000101500000000010150000000000960000000000100000021000000000000064602000000000065631532000000000000009999123100000010000000000000BRDAMACTF007100
012024070212DAMT11      010FII DIAMANTECI           R$  000000000090000000000009000000000000900000000000090000000000009000000000000900000000000098000001000000000000000001000000000000000900000000000000009999123100000010000000000000BRDAMTCTF007117
012024070212DEVA11      010FII DEVANT  CI           R$  000000000396800000000040000000000003968000000000398200000000039900000000003990000000000399501263000000000000018318000000000072943162000000000000009999123100000010000000000000BRDEVACTF000149
012024070212DPRO11      010FII DEVA PROCI           R$  000000000066000000000006700000000000660000000000066900000000006700000000000653000000000067000009000000000000000021000000000000014060000000000000009999123100000010000000000000BRDPROCTF005124
012024070212SADI11      010FII SANT PAPCI  ER       R$  000000000897000000000089960000000008950000000000897500000000089720000000008950000000000897200157000000000000001322000000000011865703000000000000009999123100000010000000000000BRSADICTF007160
012024070212TMPS11      010FII ITAU TEMCI  ER       R$  000000000956300000000095630000000009560000000000956000000000095600000000009560000000000956800006000000000000000120000000000001147253000000000000009999123100000010000000000000BRTMPSCTF003115
012024070212TORD11      010FII TORDE EICI           R$  000000000014400000000001450000000000143000000000014300000000001440000000000143000000000014400403000000000000042321000000000006088956000000000000009999123100000010000000000000BRTORDCTF015138
012024070212TRBL11      010FII SDI LOG CI  ER       R$  000000000975000000000098260000000009657000000000972900000000096800000000009680000000000970001315000000000000005703000000000055485306000000000000009999123100000010000000000000BRTRBLCTF007113
012024070212TRNT11      010FII TORRE NOCI           R$  000000001090000000000114950000000010900000000001108200000000112000000000010727000000001140000012000000000000000021000000000000232732000000000000009999123100000010000000000000BRTRNTCTF013341
012024070212TRXB11      010FII TRX R IICI  ER       R$  000000001495200000000149520000000014952000000001495200000000149520000000013737000000001495200002000000000000000003000000000000044856000000000000009999123100000010000000000000BRTRXBCTF002152
012024070212TRXF11      010FII TRX REALCI  ER       R$  000000001041900000000104350000000010388000000001041500000000104000000000010400000000001040306920000000000000299252000000003116755579000000000000009999123100000010000000000000BRTRXFCTF003165
012024070212RFOF11      010FII RB CFOF CI  ER       R$  000000000710100000000071900000000007100000000000715100000000071400000000007140000000000717500054000000000000000628000000000004491386000000000000009999123100000010000000000000BRRFOFCTF001152
012024070212RINV11      010FII REAL INVCI           R$  000000001116500000000111920000000011071000000001113400000000111010000000011101000000001119900673000000000000003542000000000039437121000000000000009999123100000010000000000000BRRINVCTF004119
012024070212RMAI11      010FII REAGMULTCI  ER       R$  000000000713700000000071800000000007116000000000717200000000071800000000006438000000000718000023000000000000000023000000000000164968000000000000009999123100000010000000000000BRRMAICTF000135
012024070212RNDP11      010FII BB R PAPCI  ER       R$  000000000649300000000065250000000006336000000000649300000000063360000000006304000000000652500011000000000000000045000000000000292225000000000000009999123100000010000000000000BRRNDPCTF007249
012024070212RNGO11      010FII RIONEGROCI  ER       R$  000000000466000000000047250000000004640000000000467700000000046710000000004641000000000467900118000000000000003802000000000017785557000000000000009999123100000010000000000000BRRNGOCTF003244
