00COTAHIST.2024BOVESPA 20240716                                                                                                                                                                                                                      
012024071602BLAU3       010BLAU        ON      NM   R$  000000000122000000000012440000000001204000000000122500000000012290000000001229000000000123000789000000000000120500000000000147654600000000000000009999123100000010000000000000BRBLAUACNOR8114
012024071602QUAL3       010QUALICORP   ON      NM   R$  000000000018000000000001880000000000178000000000018200000000001790000000000179000000000018001905000000000003377200000000000617934500000000000000009999123100000010000000000000BRQUALACNOR6120
012024071602RADL3       010RAIADROGASILON      NM   R$  000000000258000000000026090000000002559000000000257700000000025590000000002559000000000256509471000000000003843900000000009907931900000000000000009999123100000010000000000000BRRADLACNOR0157
012024071602VALE3       010VALE        ON      NM   R$  000000000622900000000062340000000006137000000000618900000000062330000000006230000000000623349776000000000022363900000000138419229900000000000000009999123100000010000000000000BRVALEACNOR0210
012024071602JHSF3       010JHSF PART   ON      NM   R$  000000000042600000000004280000000000418000000000042200000000004230000000000423000000000042403121000000000002969700000000001256029500000000000000009999123100000010000000000000BRJHSFACNOR2137
012024071602MILS3       010MILLS       ON      NM   R$  000000000113300000000011650000000001094000000000114900000000011390000000001138000000000114003316000000000000984000000000001131106400000000000000009999123100000010000000000000BRMILSACNOR2127
012024071602MLAS3       010MULTILASER  ON      NM   R$  000000000021600000000002240000000000215000000000022000000000002190000000000217000000000021903468000000000001820300000000000400683200000000000000009999123100000010000000000000BRMLASACNOR9101
012024071602MNDL3       010MUNDIAL     ON           R$  000000000139800000000014500000000001398000000000141100000000014450000000001390000000000144500006000000000000001200000000000001693700000000000000009999123100000010000000000000BRMNDLACNOR4109
012024071602MNPR3       010MINUPAR     ON           R$  000000000132200000000013220000000001300000000000131600000000013010000000001300000000000133600007000000000000002400000000000003158600000000000000009999123100000010000000000000BRMNPRACNOR5122
012024071602MOVI3       010MOVIDA      ON      NM   R$  000000000066300000000006940000000000659000000000068300000000006800000000000680000000000068108320000000000004162500000000002845494700000000000000009999123100000010000000000000BRMOVIACNOR0122
012024071602MRFG3       010MARFRIG     ON      NM   R$  000000000123100000000012370000000001210000000000122000000000012200000000001219000000000122108802000000000003064500000000003741052600000000000000009999123100000010000000000000BRMRFGACNOR0116
012024071602PRNR3       010PRINER      ON      NM   R$  000000000106100000000010850000000001047000000000106600000000010850000000001072000000000108501043000000000000246200000000000262570000000000000000009999123100000010000000000000BRPRNRACNOR4109
012024071602PSSA3       010PORTO SEGUROON      NM   R$  000000000307400000000030950000000003063000000000307500000000030630000000003063000000000307604880000000000001281800000000003941979800000000000000009999123100000010000000000000BRPSSAACNOR7155
012024071602PTBL3       010PORTOBELLO  ON      NM   R$  000000000051300000000005180000000000501000000000050900000000005030000000000503000000000050400843000000000000402900000000000205196400000000000000009999123100000010000000000000BRPTBLACNOR8132
012024071602PTNT3       010PETTENATI   ON           R$  000000000096100000000009760000000000961000000000096600000000009630000000000953000000000097700003000000000000000300000000000000290000000000000000009999123100000010000000000000BRPTNTACNOR6042
012024071602PTNT4       010PETTENATI   PN           R$  000000000062500000000006250000000000616000000000062100000000006250000000000611000000000062500013000000000000002900000000000001801600000000000000009999123100000010000000000000BRPTNTACNPR3047
012024071602SAPR11      010SANEPAR     UNT     N2   R$  000000000268400000000027230000000002671000000000269700000000027010000000002701000000000270304505000000000002279900000000006149099600000000000000009999123100000010000000000000BRSAPRCDAM13118
012024071602SAPR3       010SANEPAR     ON      N2   R$  000000000051100000000005180000000000510000000000051400000000005120000000000512000000000051700461000000000000141400000000000072694800000000000000009999123100000010000000000000BRSAPRACNOR9159
012024071602SAPR4       010SANEPAR     PN      N2   R$  000000000054500000000005500000000000543000000000054700000000005500000000000548000000000055001865000000000000856400000000000468652300000000000000009999123100000010000000000000BRSAPRACNPR6159
012024071602SBFG3       010GRUPO SBF   ON      NM   R$  000000000137500000000014420000000001375000000000142000000000014300000000001424000000000143011845000000000004464500000000006342239800000000000000009999123100000010000000000000BRSBFGACNOR1103
012024071602SBSP3       010SABESP      ON      NM   R$  000000000812200000000082000000000008060000000000812000000000081550000000008153000000000815927738000000000007329200000000059514206200000000000000009999123100000010000000000000BRSBSPACNOR5161
012024071602TIMS3       010TIM         ON      NM   R$  000000000166900000000017030000000001659000000000168600000000016780000000001678000000000168216009000000000006352100000000010715440600000000000000009999123100000010000000000000BRTIMSACNOR5117
012024071602TOTS3       010TOTVS       ON      NM   R$  000000000296000000000029720000000002847000000000287700000000028560000000002856000000000286012966000000000004190800000000012059034700000000000000009999123100000010000000000000BRTOTSACNOR8144
012024071602TPIS3       010TRIUNFO PARTON      NM   R$  000000000039000000000003910000000000388000000000038900000000003900000000000388000000000039000010000000000000004300000000000001673800000000000000009999123100000010000000000000BRTPISACNOR8118
012024071602TRAD3       010TC          ON      NM   R$  000000000006400000000000650000000000061000000000006200000000000640000000000062000000000006400173000000000000362700000000000022696600000000000000009999123100000010000000000000BRTRADACNOR3101
012024071602LAND3       010TERRASANTAPAON      NM   R$  000000000145900000000014960000000001436000000000146400000000014740000000001449000000000147500209000000000000023400000000000034278200000000000000009999123100000010000000000000BRLANDACNOR9103
012024071602LAVV3       010LAVVI       ON      NM   R$  000000000093000000000009390000000000923000000000092900000000009300000000000929000000000093001620000000000000470400000000000437128500000000000000009999123100000010000000000000BRLAVVACNOR4112
012024071602TRIS3       010TRISUL      ON      NM   R$  000000000051100000000005190000000000508000000000051200000000005140000000000514000000000051501096000000000000272400000000000139533800000000000000009999123100000010000000000000BRTRISACNOR4118
012024071602TRPL3       010TRAN PAULISTON      N1   R$  000000000329000000000032900000000003255000000000326900000000032590000000003253000000000327700030000000000000006500000000000021254400000000000000009999123100000010000000000000BRTRPLACNOR4185
012024071602TRPL4       010TRAN PAULISTPN      N1   R$  000000000257800000000026390000000002565000000000260000000000026390000000002635000000000263914691000000000002899300000000007538290500000000000000009999123100000010000000000000BRTRPLACNPR1185
012024071602UNIP3       010UNIPAR      ON           R$  000000000508500000000051380000000005077000000000510000000000051100000000005081000000000514900030000000000000003300000000000016832400000000000000009999123100000010000000000000BRUNIPACNOR7206
012024071602UNIP5       010UNIPAR      PNA          R$  000000000521800000000052180000000005218000000000521800000000052180000000005218000000000536200001000000000000000100000000000000521800000000000000009999123100000010000000000000BRUNIPACNPA0208
012024071602UNIP6       010UNIPAR      PNB          R$  000000000520000000000052140000000005137000000000516600000000051380000000005138000000000516000742000000000000110800000000000572481500000000000000009999123100000010000000000000BRUNIPACNPB8206
012024071602USIM3       010USIMINAS    ON      N1   R$  000000000076300000000007740000000000757000000000076500000000007590000000000758000000000076600478000000000000135100000000000103445000000000000000009999123100000010000000000000BRUSIMACNOR3167
012024071602LEVE3       010METAL LEVE  ON      NM   R$  000000000340400000000034330000000003387000000000340800000000034050000000003399000000000340500932000000000000197800000000000674126600000000000000009999123100000010000000000000BRLEVEACNOR2197
012024071602LJQQ3       010QUERO-QUERO ON      NM   R$  000000000044400000000004600000000000440000000000045000000000004430000000000443000000000044705553000000000002886100000000001299122400000000000000009999123100000010000000000000BRLJQQACNOR5104
012024071602LOGG3       010LOG COM PROPON      NM   R$  000000000233000000000023500000000002309000000000233600000000023140000000002312000000000231900918000000000004631000000000010820987300000000000000009999123100000010000000000000BRLOGGACNOR7107
012024071602LOGN3       010LOG-IN      ON      NM   R$  000000000414900000000041690000000004110000000000413800000000041550000000004094000000000416000057000000000000006800000000000028140400000000000000009999123100000010000000000000BRLOGNACNOR3105
012024071602LPSB3       010LOPES BRASILON      NM   R$  000000000019300000000001960000000000192000000000019400000000001950000000000195000000000019600136000000000000064700000000000012590000000000000000009999123100000010000000000000BRLPSBACNOR0114
012024071602LREN3       010LOJAS RENNERON      NM   R$  000000000137400000000014080000000001365000000000138500000000013720000000001372000000000137319148000000000011507200000000015945832400000000000000009999123100000010000000000000BRLRENACNOR1221
012024071602USIM5       010USIMINAS    PNA     N1   R$  000000000081200000000008200000000000803000000000081000000000008140000000000810000000000081406787000000000007939000000000006438023200000000000000009999123100000010000000000000BRUSIMACNPA6169
012024071602VLID3       010VALID       ON      NM   R$  000000000158100000000015880000000001561000000000157600000000015740000000001574000000000158302059000000000000279300000000000440218500000000000000009999123100000010000000000000BRVLIDACNOR5143
012024071602VSTE3       010VESTE       ON      NM   R$  000000000141300000000014300000000001413000000000141900000000014200000000001420000000000142900027000000000000003900000000000005534200000000000000009999123100000010000000000000BRVSTEACNOR5103
012024071602VTRU3       010VITRUEDUCA  ON      NM   R$  000000000138500000000013980000000001374000000000138800000000013900000000001378000000000139000318000000000000052400000000000072744200000000000000009999123100000010000000000000BRVTRUACNOR3100
012024071602VULC3       010VULCABRAS   ON      NM   R$  000000000158500000000016400000000001582000000000160400000000015900000000001590000000000159105271000000000000962800000000001544706500000000000000009999123100000010000000000000BRVULCACNOR2159
012024071602VVEO3       010VIVEO       ON      NM   R$  000000000025600000000002610000000000242000000000025100000000002470000000000247000000000024804603000000000003094400000000000778032000000000000000009999123100000010000000000000BRVVEOACNOR0104
012024071602WEGE3       010WEG         ON      NM   R$  000000000465700000000047210000000004639000000000467700000000046680000000004666000000000467023464000000000008663600000000040523714400000000000000009999123100000010000000000000BRWEGEACNOR0223
012024071602AALR3       010ALLIAR      ON      NM   R$  000000000141500000000014370000000001236000000000130300000000012470000000001242000000000125000514000000000000114300000000000148997400000000000000009999123100000010000000000000BRAALRACNOR6102
012024071602RSUL4       010RIOSULENSE  PN           R$  000000000680000000000068550000000006800000000000681900000000068280000000006700000000000682900019000000000000002300000000000015685700000000000000009999123100000010000000000000BRRSULACNPR3114
012024071602ABCB4       010ABC BRASIL  PN      N2   R$  000000000232500000000023350000000002269000000000230300000000022960000000002290000000000229602229000000000001629900000000003754408100000000000000009999123100000010000000000000BRABCBACNPR4146
012024071602ABEV3       010AMBEV S/A   ON  ATZ      R$  000000000116300000000011700000000001158000000000116500000000011700000000001166000000000117021579000000000019050600000000022199834700000000000000009999123100000010000000000000BRABEVACNOR1128
012024071602BBAS3       010BRASIL      ON      NM   R$  000000000269900000000027140000000002691000000000270200000000027040000000002704000000000270525085000000000011135300000000030095946300000000000000009999123100000010000000000000BRBBASACNOR3324
012024071602BHIA3       010CASAS BAHIA ON      NM   R$  000000000057300000000005830000000000529000000000054700000000005350000000000535000000000053607613000000000006386600000000003497182600000000000000009999123100000010000000000000BRBHIAACNOR1102
012024071602BRBI11      010BR PARTNERS UNT     N2   R$  000000000145200000000014750000000001451000000000146500000000014650000000001465000000000147101705000000000000292000000000000427836800000000000000009999123100000010000000000000BRBRBICDAM10109
012024071602BRFS3       010BRF SA      ON      NM   R$  000000000225000000000022620000000002234000000000224900000000022520000000002252000000000225309003000000000003558800000000008005263800000000000000009999123100000010000000000000BRBRFSACNOR8122
012024071602BRIT3       010BRISANET    ON      NM   R$  000000000043700000000004440000000000435000000000043800000000004440000000000443000000000044500391000000000000269400000000000118232700000000000000009999123100000010000000000000BRBRITACNOR0103
012024071602BRKM3       010BRASKEM     ON      N1   R$  000000000194800000000019790000000001948000000000195400000000019540000000001954000000000196000044000000000000010200000000000019937600000000000000009999123100000010000000000000BRBRKMACNOR1119
012024071602BRKM5       010BRASKEM     PNA     N1   R$  000000000195300000000019840000000001944000000000196000000000019490000000001949000000000195006510000000000001859300000000003644420700000000000000009999123100000010000000000000BRBRKMACNPA4121
012024071602CSED3       010CRUZEIRO EDUON      NM   R$  000000000042300000000004270000000000416000000000042000000000004170000000000417000000000041800493000000000000185000000000000077768800000000000000009999123100000010000000000000BRCSEDACNOR9104
012024071602CSMG3       010COPASA      ON      NM   R$  000000000203900000000020570000000002028000000000204400000000020560000000002056000000000205703522000000000002361900000000004829411500000000000000009999123100000010000000000000BRCSMGACNOR5174
012024071602CSNA3       010SID NACIONALON           R$  000000000133600000000013450000000001303000000000131500000000013100000000001310000000000131111500000000000007030700000000009251024400000000000000009999123100000010000000000000BRCSNAACNOR6261
012024071602ENAT3       010ENAUTA PART ON      NM   R$  000000000220300000000022410000000002201000000000222100000000022120000000002212000000000222804634000000000001064500000000002365096700000000000000009999123100000010000000000000BRENATACNOR0104
012024071602ENEV3       010ENEVA       ON      NM   R$  000000000133300000000013600000000001327000000000134100000000013280000000001328000000000133330823000000000012264200000000016448248500000000000000009999123100000010000000000000BRENEVACNOR8106
012024071602ENGI11      010ENERGISA    UNT     N2   R$  000000000475000000000048150000000004750000000000478200000000047670000000004764000000000476708105000000000001378400000000006591516100000000000000009999123100000010000000000000BRENGICDAM16135
012024071602ENGI3       010ENERGISA    ON      N2   R$  000000000148900000000015080000000001477000000000150100000000015080000000001508000000000152700035000000000000004700000000000007054700000000000000009999123100000010000000000000BRENGIACNOR0145
012024071602JSLG3       010JSL         ON      NM   R$  000000000101100000000010200000000000998000000000100800000000010090000000001000000000000100900824000000000000128300000000000129350200000000000000009999123100000010000000000000BRJSLGACNOR2121
012024071602BAHI3       010BAHEMA      ON      MA   R$  000000000066000000000006600000000000660000000000066000000000006600000000000656000000000067900001000000000000001000000000000000660000000000000000009999123100000010000000000000BRBAHIACNOR1074
012024071602BALM4       010BAUMER      PN           R$  000000000103000000000010300000000001030000000000103000000000010300000000001005000000000102500001000000000000000100000000000000103000000000000000009999123100000010000000000000BRBALMACNPR2056
012024071602BAUH4       010EXCELSIOR   PN           R$  000000000794800000000079480000000007948000000000794800000000079480000000007751000000000794900001000000000000000100000000000000794800000000000000009999123100000010000000000000BRBAUHACNPR3118
012024071602BAZA3       010AMAZONIA    ON           R$  000000000971800000000099370000000009710000000000975900000000097660000000009715000000000995300019000000000000003300000000000032206800000000000000009999123100000010000000000000BRBAZAACNOR0179
012024071602BEES3       010BANESTES    ON           R$  000000000090700000000009100000000000906000000000090700000000009070000000000906000000000090700044000000000000006400000000000005806900000000000000009999123100000010000000000000BRBEESACNOR9393
012024071602BEES4       010BANESTES    PN           R$  000000000097700000000009790000000000971000000000097500000000009710000000000971000000000097600008000000000000001200000000000001170500000000000000009999123100000010000000000000BRBEESACNPR6318
012024071602BGIP4       010BANESE      PN           R$  000000000230000000000023000000000002300000000000230000000000023000000000002221000000000240000003000000000000000500000000000001150000000000000000009999123100000010000000000000BRBGIPACNPR8208
012024071602CRFB3       010CARREFOUR BRON      NM   R$  000000000108800000000011110000000001082000000000109600000000010980000000001097000000000109913599000000000006903300000000007571409900000000000000009999123100000010000000000000BRCRFBACNOR2116
012024071602CRPG5       010CRISTAL     PNA          R$  000000000299000000000030000000000002970000000000298600000000029760000000002951000000000299900012000000000000001200000000000003584100000000000000009999123100000010000000000000BRCRPGACNPA3119
012024071602CRPG6       010CRISTAL     PNB          R$  000000000299900000000029990000000002951000000000298900000000029990000000002951000000000304900005000000000000000500000000000001494700000000000000009999123100000010000000000000BRCRPGACNPB1119
012024071602CSAN3       010COSAN       ON      NM   R$  000000000143000000000014430000000001422000000000143200000000014330000000001431000000000143311744000000000005582400000000007997777000000000000000009999123100000010000000000000BRCSANACNOR6126
012024071602ELMD3       010ELETROMIDIA ON      NM   R$  000000000184100000000018500000000001828000000000184100000000018500000000001835000000000185500138000000000000016100000000000029643100000000000000009999123100000010000000000000BRELMDACNOR3101
012024071602EMAE4       010EMAE        PN           R$  000000000509000000000050900000000005081000000000508500000000050810000000004800000000000508800002000000000000000200000000000001017100000000000000009999123100000010000000000000BREMAEACNPR1125
012024071602EMBR3       010EMBRAER     ON      NM   R$  000000000408600000000041290000000004033000000000406400000000040680000000004067000000000406817944000000000004748400000000019298016800000000000000009999123100000010000000000000BREMBRACNOR4191
012024071602HBRE3       010HBR REALTY  ON      NM   R$  000000000059400000000005960000000000571000000000057900000000005790000000000579000000000058000595000000000000282100000000000163510000000000000000009999123100000010000000000000BRHBREACNOR4100
012024071602HBSA3       010HIDROVIAS   ON      NM   R$  000000000039000000000004010000000000390000000000039600000000003950000000000395000000000039601883000000000000887400000000000352093000000000000000009999123100000010000000000000BRHBSAACNOR0100
012024071602ALPA4       010ALPARGATAS  PN      N1   R$  000000000094000000000009480000000000920000000000093100000000009200000000000920000000000092406200000000000001734000000000001616065500000000000000009999123100000010000000000000BRALPAACNPR7232
012024071602ALPK3       010ESTAPAR     ON      NM   R$  000000000035500000000003550000000000347000000000035100000000003540000000000351000000000035400267000000000000092900000000000032647400000000000000009999123100000010000000000000BRALPKACNOR9101
012024071602ALUP11      010ALUPAR      UNT     N2   R$  000000000314100000000031750000000003141000000000315700000000031540000000003154000000000316501929000000000000454000000000001433649700000000000000009999123100000010000000000000BRALUPCDAM15119
012024071602ALUP3       010ALUPAR      ON      N2   R$  000000000106900000000010700000000001053000000000105900000000010690000000001061000000000107000043000000000000010900000000000011553200000000000000009999123100000010000000000000BRALUPACNOR8119
012024071602ALUP4       010ALUPAR      PN      N2   R$  000000000103800000000010560000000001038000000000104300000000010410000000001040000000000104700059000000000000009200000000000009602000000000000000009999123100000010000000000000BRALUPACNPR5119
012024071602AMAR3       010LOJAS MARISAON      NM   R$  000000000014300000000001500000000000140000000000014600000000001480000000000145000000000014800913000000000001132500000000000165413800000000000000009999123100000010000000000000BRAMARACNOR4115
012024071602AMBP3       010AMBIPAR     ON      NM   R$  000000000212900000000023170000000002088000000000219900000000022890000000002289000000000229416528000000000006570600000000014454386600000000000000009999123100000010000000000000BRAMBPACNOR6103
012024071602ANIM3       010ANIMA       ON      NM   R$  000000000039500000000003980000000000381000000000038700000000003820000000000382000000000038505378000000000003496400000000001356040500000000000000009999123100000010000000000000BRANIMACNOR6107
012024071602BBDC3       010BRADESCO    ON      N1   R$  000000000115100000000011630000000001150000000000115800000000011580000000001158000000000116009027000000000003988500000000004619780000000000000000009999123100000010000000000000BRBBDCACNOR1772
012024071602BBDC4       010BRADESCO    PN      N1   R$  000000000126200000000012690000000001254000000000126300000000012650000000001265000000000126625470000000000028351100000000035812952500000000000000009999123100000010000000000000BRBBDCACNPR8772
012024071602KRSA3       010KORA SAUDE  ON      NM   R$  000000000006600000000000690000000000066000000000006700000000000690000000000068000000000006900127000000000000463200000000000031290500000000000000009999123100000010000000000000BRKRSAACNOR0100
012024071602B3SA3       010B3          ON      NM   R$  000000000114500000000011690000000001145000000000115600000000011480000000001148000000000115140066000000000027642600000000031963563600000000000000009999123100000010000000000000BRB3SAACNOR6133
012024071602BEEF3       010MINERVA     ON      NM   R$  000000000068300000000006910000000000679000000000068500000000006870000000000686000000000068704414000000000003805700000000002609844900000000000000009999123100000010000000000000BRBEEFACNOR6116
012024071602VIVA3       010VIVARA S.A. ON      NM   R$  000000000235700000000024180000000002350000000000238600000000023650000000002365000000000236612521000000000004251900000000010146528800000000000000009999123100000010000000000000BRVIVAACNOR0107
012024071602VIVR3       010VIVER       ON      NM   R$  000000000025500000000002550000000000248000000000025000000000002480000000000250000000000025200065000000000000037300000000000009360800000000000000009999123100000010000000000000BRVIVRACNOR4123
012024071602VIVT3       010TELEF BRASILON           R$  000000000491000000000049680000000004896000000000492400000000049060000000004904000000000491509093000000000002031900000000010005397100000000000000009999123100000010000000000000BRVIVTACNOR0182
012024071602PFRM3       010PROFARMA    ON      NM   R$  000000000053000000000005380000000000523000000000052900000000005300000000000526000000000053000770000000000000411000000000000217697000000000000000009999123100000010000000000000BRPFRMACNOR1116
012024071602PGMN3       010PAGUE MENOS ON      NM   R$  000000000028200000000002880000000000279000000000028400000000002850000000000285000000000028601069000000000000430900000000000122449800000000000000009999123100000010000000000000BRPGMNACNOR8103
012024071602PINE3       010PINE        ON  EJ  N2   R$  000000000058700000000005870000000000587000000000058700000000005870000000000555000000000058700015000000000000005100000000000002993700000000000000009999123100000010000000000000BRPINEACNOR1150
012024071602PINE4       010PINE        PN  EJ  N2   R$  000000000042500000000004320000000000422000000000042500000000004290000000000425000000000042900276000000000000119500000000000050859500000000000000009999123100000010000000000000BRPINEACNPR8150
012024071602PLAS3       010PLASCAR PARTON           R$  000000000055200000000005520000000000552000000000055200000000005520000000000531000000000056000001000000000000000100000000000000055200000000000000009999123100000010000000000000BRPLASACNOR2106
012024071602BPAN4       010BANCO PAN   PN      N1   R$  000000000085200000000008620000000000848000000000085600000000008600000000000859000000000086004216000000000001195900000000001024218500000000000000009999123100000010000000000000BRBPANACNPR1115
012024071602BRAP3       010BRADESPAR   ON      N1   R$  000000000187900000000018790000000001858000000000186800000000018770000000001873000000000187700258000000000000037100000000000069305300000000000000009999123100000010000000000000BRBRAPACNOR5148
012024071602BRAP4       010BRADESPAR   PN      N1   R$  000000000193500000000019440000000001919000000000193100000000019440000000001942000000000194404642000000000001822100000000003519566000000000000000009999123100000010000000000000BRBRAPACNPR2148
012024071602CPFE3       010CPFL ENERGIAON      NM   R$  000000000332400000000033640000000003315000000000334300000000033460000000003346000000000334905506000000000001506500000000005037171000000000000000009999123100000010000000000000BRCPFEACNOR0137
012024071602CPLE3       010COPEL       ON      N2   R$  000000000090100000000009170000000000897000000000091200000000009140000000000913000000000091506496000000000003870300000000003530709100000000000000009999123100000010000000000000BRCPLEACNOR8149
012024071602CPLE5       010COPEL       PNA     N2   R$  000000000137000000000014000000000001370000000000138500000000014000000000001240000000000147500002000000000000000200000000000000277000000000000000009999123100000010000000000000BRCPLEACNPA1147
012024071602PLPL3       010PLANOEPLANO ON      NM   R$  000000000113100000000011380000000001085000000000110600000000011100000000001099000000000111005698000000000002118800000000002344027600000000000000009999123100000010000000000000BRPLPLACNOR5104
012024071602PNVL3       010DIMED       ON      NM   R$  000000000103100000000010410000000001018000000000102800000000010300000000001025000000000103002087000000000000359900000000000370272700000000000000009999123100000010000000000000BRPNVLACNOR9207
012024071602POMO3       010MARCOPOLO   ON      N2   R$  000000000052200000000005240000000000512000000000051700000000005200000000000516000000000052000531000000000000120200000000000062251200000000000000009999123100000010000000000000BRPOMOACNOR0098
012024071602POMO4       010MARCOPOLO   PN      N2   R$  000000000066300000000006670000000000650000000000066000000000006640000000000663000000000066408874000000000004103700000000002712486900000000000000009999123100000010000000000000BRPOMOACNPR7098
012024071602PORT3       010WILSON SONS ON  ED  NM   R$  000000000160900000000016090000000001580000000000158700000000015900000000001581000000000159001214000000000000398700000000000632976100000000000000009999123100000010000000000000BRPORTACNOR8109
012024071602POSI3       010POSITIVO TECON      NM   R$  000000000079700000000008130000000000787000000000079800000000007990000000000797000000000079904293000000000002072300000000001655091400000000000000009999123100000010000000000000BRPOSIACNOR9116
012024071602CPLE6       010COPEL       PNB     N2   R$  000000000101700000000010310000000001016000000000102600000000010290000000001028000000000102916747000000000010105800000000010376452800000000000000009999123100000010000000000000BRCPLEACNPB9146
012024071602GRND3       010GRENDENE    ON      NM   R$  000000000060800000000006190000000000608000000000061300000000006180000000000616000000000061801875000000000000774200000000000475326500000000000000009999123100000010000000000000BRGRNDACNOR3174
012024071602PRIO3       010PETRORIO    ON  ATZ NM   R$  000000000461600000000046410000000004545000000000458000000000045450000000004544000000000455012598000000000004101800000000018789959000000000000000009999123100000010000000000000BRPRIOACNOR1107
012024071602ROMI3       010ROMI        ON      NM   R$  000000000110700000000011180000000001094000000000110200000000010950000000001094000000000109501004000000000000199000000000000219417400000000000000009999123100000010000000000000BRROMIACNOR8195
012024071602RPAD5       010ALFA HOLDINGPNA          R$  000000000086000000000008600000000000860000000000086000000000008600000000000853000000000086000007000000000000009700000000000008342000000000000000009999123100000010000000000000BRRPADACNPA4218
012024071602GUAR3       010GUARARAPES  ON      NM   R$  000000000076800000000007950000000000767000000000078400000000007760000000000776000000000078004117000000000001358800000000001065676300000000000000009999123100000010000000000000BRGUARACNOR4173
012024071602HAGA3       010HAGA S/A    ON           R$  000000000032400000000003240000000000275000000000028500000000002750000000000275000000000027900140000000000000030500000000000008722500000000000000009999123100000010000000000000BRHAGAACNOR7103
012024071602RRRP3       0103R PETROLEUMON      NM   R$  000000000277000000000028010000000002760000000000277700000000027720000000002771000000000277408274000000000002020600000000005612636400000000000000009999123100000010000000000000BRRRRPACNOR5103
012024071602SYNE3       010SYN PROP TECON      NM   R$  000000000099700000000010300000000000997000000000101400000000010060000000001006000000000101001108000000000000217800000000000221013900000000000000009999123100000010000000000000BRSYNEACNOR2102
012024071602HAGA4       010HAGA S/A    PN           R$  000000000012000000000001200000000000117000000000011700000000001180000000000117000000000011900032000000000000012300000000000001448000000000000000009999123100000010000000000000BRHAGAACNPR4103
012024071602HAPV3       010HAPVIDA     ON      NM   R$  000000000041500000000004240000000000413000000000041900000000004160000000000415000000000041717800000000000053880300000000022582445300000000000000009999123100000010000000000000BRHAPVACNOR4114
012024071602HBOR3       010HELBOR      ON      NM   R$  000000000023500000000002470000000000233000000000023900000000002420000000000239000000000024201091000000000001429700000000000342359100000000000000009999123100000010000000000000BRHBORACNOR3118
012024071602JALL3       010JALLESMACHADON      NM   R$  000000000077100000000007760000000000764000000000076800000000007680000000000765000000000076800677000000000000163100000000000125411200000000000000009999123100000010000000000000BRJALLACNOR0105
012024071602JBSS3       010JBS         ON      NM   R$  000000000320200000000032200000000003161000000000317500000000031720000000003172000000000317313701000000000004336600000000013768932200000000000000009999123100000010000000000000BRJBSSACNOR8121
012024071602TAEE11      010TAESA       UNT     N2   R$  000000000351200000000035310000000003509000000000351900000000035130000000003513000000000352604435000000000000953100000000003354482700000000000000009999123100000010000000000000BRTAEECDAM10147
012024071602TAEE3       010TAESA       ON      N2   R$  000000000116300000000011690000000001159000000000116400000000011590000000001159000000000116000520000000000000099600000000000115999600000000000000009999123100000010000000000000BRTAEEACNOR9147
012024071602TAEE4       010TAESA       PN      N2   R$  000000000117700000000011830000000001176000000000117800000000011830000000001183000000000118400701000000000000202400000000000238598900000000000000009999123100000010000000000000BRTAEEACNPR6147
012024071602VAMO3       010VAMOS       ON      NM   R$  000000000092600000000009430000000000924000000000093000000000009280000000000927000000000092916018000000000007180700000000006684780800000000000000009999123100000010000000000000BRVAMOACNOR7105
012024071602VBBR3       010VIBRA       ON      NM   R$  000000000226700000000023200000000002267000000000229100000000022830000000002279000000000228418107000000000004946100000000011335909800000000000000009999123100000010000000000000BRVBBRACNOR1108
012024071602BBSE3       010BBSEGURIDADEON      NM   R$  000000000340400000000034250000000003402000000000341600000000034210000000003420000000000342108760000000000002999300000000010247482700000000000000009999123100000010000000000000BRBBSEACNOR5124
012024071602BPAC11      010BTGP BANCO  UNT     N2   R$  000000000323000000000032350000000003195000000000321000000000032050000000003205000000000320714012000000000008137100000000026123722500000000000000009999123100000010000000000000BRBPACUNT006119
012024071602BPAC3       010BTGP BANCO  ON      N2   R$  000000000156600000000015700000000001554000000000156100000000015690000000001554000000000157000017000000000000002000000000000003123800000000000000009999123100000010000000000000BRBPACACNOR7134
012024071602BPAC5       010BTGP BANCO  PNA     N2   R$  000000000082500000000008250000000000821000000000082300000000008210000000000820000000000082500009000000000000001600000000000001318200000000000000009999123100000010000000000000BRBPACACNPA0134
012024071602EGIE3       010ENGIE BRASILON      NM   R$  000000000463500000000046660000000004634000000000464800000000046450000000004645000000000464904290000000000000843400000000003920388400000000000000009999123100000010000000000000BREGIEACNOR9126
012024071602EKTR4       010ELEKTRO     PN           R$  000000000395500000000039550000000003955000000000395500000000039550000000003940000000000395500010000000000000004300000000000017006500000000000000009999123100000010000000000000BREKTRACNPR7163
012024071602ELET3       010ELETROBRAS  ON      N1   R$  000000000388100000000039140000000003867000000000389500000000039000000000003898000000000390014872000000000006021400000000023457991600000000000000009999123100000010000000000000BRELETACNOR6160
012024071602ELET6       010ELETROBRAS  PNB     N1   R$  000000000430200000000043480000000004301000000000431800000000043160000000004316000000000431804180000000000000791300000000003417243000000000000000009999123100000010000000000000BRELETACNPB7077
012024071602GGPS3       010GPS         ON      NM   R$  000000000172000000000017670000000001720000000000175300000000017500000000001750000000000175304603000000000001566900000000002748020200000000000000009999123100000010000000000000BRGGPSACNOR9103
012024071602GMAT3       010GRUPO MATEUSON      NM   R$  000000000072700000000007390000000000721000000000073400000000007390000000000739000000000074004193000000000002340200000000001718182700000000000000009999123100000010000000000000BRGMATACNOR7102
012024071602GOAU3       010GERDAU MET  ON      N1   R$  000000000110000000000011130000000001095000000000110400000000011120000000001107000000000111200201000000000000037500000000000041414800000000000000009999123100000010000000000000BRGOAUACNOR1267
012024071602GOAU4       010GERDAU MET  PN      N1   R$  000000000110100000000011150000000001091000000000110400000000011150000000001113000000000111613879000000000005671900000000006266126800000000000000009999123100000010000000000000BRGOAUACNPR8268
012024071602PDGR3       010PDG REALT   ON      NM   R$  000000000001900000000000200000000000019000000000001900000000000190000000000019000000000002000335000000000002113000000000000040503700000000000000009999123100000010000000000000BRPDGRACNOR8118
012024071602AZUL4       010AZUL        PN      N2   R$  000000000089500000000009210000000000890000000000090900000000009090000000000908000000000090909330000000000011633700000000010580976800000000000000009999123100000010000000000000BRAZULACNPR4102
012024071602CMIN3       010CSNMINERACAOON      N2   R$  000000000055200000000005530000000000539000000000054400000000005420000000000542000000000054408906000000000007678700000000004180053600000000000000009999123100000010000000000000BRCMINACNOR2111
012024071602COCE5       010COELCE      PNA          R$  000000000315900000000031600000000003082000000000313100000000031580000000003104000000000317100082000000000000011300000000000035384200000000000000009999123100000010000000000000BRCOCEACNPA3147
012024071602COGN3       010COGNA ON    ON      NM   R$  000000000019200000000001940000000000185000000000018700000000001850000000000185000000000018613053000000000024945800000000004679213300000000000000009999123100000010000000000000BRCOGNACNOR2104
012024071602DEXP3       010DEXXOS PAR  ON      N1   R$  000000000104600000000010540000000001039000000000104300000000010420000000001039000000000104700156000000000000029900000000000031210600000000000000009999123100000010000000000000BRDEXPACNOR1105
012024071602DEXP4       010DEXXOS PAR  PN      N1   R$  000000000102500000000010250000000001024000000000102400000000010240000000001015000000000102000003000000000000000300000000000000307400000000000000009999123100000010000000000000BRDEXPACNPR8105
012024071602BIOM3       010BIOMM       ON      MA   R$  000000000132900000000013290000000001272000000000128900000000012720000000001271000000000129400256000000000000047400000000000061118400000000000000009999123100000010000000000000BRBIOMACNOR2112
012024071602EALT3       010ACO ALTONA  ON           R$  000000000108000000000010800000000001080000000000108000000000010800000000001034000000000108000003000000000000000700000000000000756000000000000000009999123100000010000000000000BREALTACNOR4138
012024071602EALT4       010ACO ALTONA  PN           R$  000000000113100000000011420000000001126000000000113900000000011420000000001123000000000114200017000000000000006500000000000007409100000000000000009999123100000010000000000000BREALTACNPR1138
012024071602EZTC3       010EZTEC       ON      NM   R$  000000000148700000000015290000000001481000000000149800000000014900000000001490000000000149108275000000000002426000000000003635571900000000000000009999123100000010000000000000BREZTCACNOR0125
012024071602BMEB3       010MERCANTIL   ON      N1   R$  000000000280000000000028000000000002800000000000280000000000028000000000002550000000000280200001000000000000000200000000000000560000000000000000009999123100000010000000000000BRBMEBACNOR8205
012024071602BMEB4       010MERCANTIL   PN      N1   R$  000000000294300000000029440000000002869000000000291500000000029380000000002879000000000296300021000000000000002600000000000007580300000000000000009999123100000010000000000000BRBMEBACNPR5210
012024071602BMGB4       010BANCO BMG   PN      N1   R$  000000000036500000000003750000000000365000000000037000000000003750000000000374000000000037500856000000000000501600000000000185823500000000000000009999123100000010000000000000BRBMGBACNPR0109
012024071602BMKS3       010BIC MONARK  ON           R$  000000003429000000000342900000000034290000000003429000000000342900000000033000000000003427500002000000000000000002000000000000068580000000000000009999123100000010000000000000BRBMKSACNOR9166
012024071602BMOB3       010BEMOBI TECH ON      NM   R$  000000000147700000000015190000000001477000000000150800000000015120000000001503000000000151302156000000000000326200000000000492015800000000000000009999123100000010000000000000BRBMOBACNOR7103
012024071602BOBR4       010BOMBRIL     PN           R$  000000000020500000000002140000000000205000000000020900000000002080000000000206000000000020800041000000000000026000000000000005445400000000000000009999123100000010000000000000BRBOBRACNPR3128
012024071602BRSR3       010BANRISUL    ON      N1   R$  000000000125900000000012790000000001259000000000126600000000012700000000001266000000000127000015000000000000002800000000000003547400000000000000009999123100000010000000000000BRBRSRACNOR3188
012024071602BRSR6       010BANRISUL    PNB     N1   R$  000000000119000000000012060000000001182000000000119300000000011910000000001191000000000119404746000000000001295600000000001546487900000000000000009999123100000010000000000000BRBRSRACNPB4191
012024071602BSLI3       010BRB BANCO   ON           R$  000000000097300000000009990000000000960000000000098000000000009990000000000963000000000100000004000000000000000400000000000000392000000000000000009999123100000010000000000000BRBSLIACNOR5194
012024071602BSLI4       010BRB BANCO   PN           R$  000000000102900000000010300000000001029000000000102900000000010300000000000998000000000103500004000000000000000800000000000000823900000000000000009999123100000010000000000000BRBSLIACNPR2194
012024071602MAPT3       010CEMEPE      ON           R$  000000000048000000000004800000000000480000000000048000000000004800000000000362000000000055000001000000000000000100000000000000048000000000000000009999123100000010000000000000BRMAPTACNOR8106
012024071602MATD3       010MATER DEI   ON      NM   R$  000000000048900000000004980000000000483000000000048700000000004830000000000482000000000048301741000000000000435800000000000212573200000000000000009999123100000010000000000000BRMATDACNOR4104
012024071602MBLY3       010MOBLY       ON      NM   R$  000000000025800000000002640000000000251000000000025900000000002640000000000264000000000026500401000000000000202700000000000052659300000000000000009999123100000010000000000000BRMBLYACNOR5100
012024071602MDIA3       010M.DIASBRANCOON      NM   R$  000000000279900000000028350000000002799000000000281200000000028240000000002822000000000282402224000000000000472700000000001329314700000000000000009999123100000010000000000000BRMDIAACNOR7135
012024071602MDNE3       010MOURA DUBEUXON      NM   R$  000000000133900000000013800000000001339000000000135600000000013800000000001380000000000138102806000000000000531900000000000721464500000000000000009999123100000010000000000000BRMDNEACNOR9100
012024071602MEAL3       010IMC S/A     ON      NM   R$  000000000015900000000001640000000000157000000000016100000000001620000000000161000000000016200386000000000000653000000000000105324000000000000000009999123100000010000000000000BRMEALACNOR9105
012024071602MELK3       010MELNICK     ON      NM   R$  000000000037900000000003880000000000375000000000037900000000003750000000000375000000000037700448000000000000196200000000000074532800000000000000009999123100000010000000000000BRMELKACNOR8111
012024071602MGEL4       010MANGELS INDLPN           R$  000000000135000000000013500000000001350000000000135000000000013500000000001313000000000139700016000000000000003000000000000004050000000000000000009999123100000010000000000000BRMGELACNPR3147
012024071602MGLU3       010MAGAZ LUIZA ON      NM   R$  000000000142900000000014420000000001354000000000139300000000013630000000001361000000000136326249000000000027058500000000037694280900000000000000009999123100000010000000000000BRMGLUACNOR2124
012024071602ALPA3       010ALPARGATAS  ON      N1   R$  000000000091000000000009190000000000895000000000090300000000009000000000000900000000000090600096000000000000014700000000000013286700000000000000009999123100000010000000000000BRALPAACNOR0231
012024071602CAMB3       010CAMBUCI     ON           R$  000000000112400000000011330000000001121000000000112900000000011270000000001120000000000112700029000000000000014000000000000015818900000000000000009999123100000010000000000000BRCAMBACNOR4130
012024071602CAML3       010CAMIL       ON      NM   R$  000000000092500000000009300000000000902000000000091100000000009050000000000905000000000091002109000000000000415500000000000378641900000000000000009999123100000010000000000000BRCAMLACNOR3128
012024071602ECOR3       010ECORODOVIAS ON      NM   R$  000000000074200000000007590000000000741000000000074800000000007460000000000745000000000074904481000000000003121300000000002335352100000000000000009999123100000010000000000000BRECORACNOR8120
012024071602ITUB3       010ITAUUNIBANCOON      N1   R$  000000000287900000000028960000000002871000000000288400000000028890000000002885000000000288900668000000000000160700000000000463560600000000000000009999123100000010000000000000BRITUBACNOR4338
012024071602ITUB4       010ITAUUNIBANCOPN      N1   R$  000000000335600000000033850000000003352000000000337200000000033790000000003379000000000338028657000000000019471900000000065670176500000000000000009999123100000010000000000000BRITUBACNPR1338
012024071602APER3       010ALPER S.A.  ON           R$  000000000450300000000045030000000004503000000000450300000000045030000000004550000000000462100002000000000000000300000000000001350900000000000000009999123100000010000000000000BRAPERACNOR9106
012024071602ARML3       010ARMAC       ON      NM   R$  000000000104100000000010660000000001039000000000104900000000010390000000001039000000000104302768000000000000812300000000000852560300000000000000009999123100000010000000000000BRARMLACNOR1112
012024071602ARZZ3       010AREZZO CO   ON  ED  NM   R$  000000000538500000000054180000000005271000000000532400000000053380000000005338000000000533909080000000000001494600000000007958467300000000000000009999123100000010000000000000BRARZZACNOR3147
012024071602ASAI3       010ASSAI       ON      NM   R$  000000000111100000000011250000000001104000000000111100000000011110000000001110000000000111115925000000000009437300000000010493700100000000000000009999123100000010000000000000BRASAIACNOR0106
012024071602CEBR3       010CEB         ON           R$  000000000208200000000021060000000002082000000000209500000000020930000000002092000000000209700023000000000000003500000000000007333100000000000000009999123100000010000000000000BRCEBRACNOR5125
012024071602CEBR5       010CEB         PNA          R$  000000000183400000000018350000000001828000000000183300000000018350000000001808000000000183500005000000000000001200000000000002200700000000000000009999123100000010000000000000BRCEBRACNPA8124
012024071602CEBR6       010CEB         PNB          R$  000000000193400000000019400000000001925000000000193000000000019290000000001929000000000194700011000000000000001400000000000002702500000000000000009999123100000010000000000000BRCEBRACNPB6124
012024071602CEDO4       010CEDRO       PN      N1   R$  000000000219900000000022500000000002199000000000222100000000022350000000001939000000000223500006000000000000000700000000000001555300000000000000009999123100000010000000000000BRCEDOACNPR5128
012024071602CEEB3       010COELBA      ON           R$  000000000401500000000041970000000004015000000000405900000000040170000000004016000000000450000009000000000000001200000000000004870900000000000000009999123100000010000000000000BRCEEBACNOR3199
012024071602CGAS3       010COMGAS      ON           R$  000000001099900000000109990000000010999000000001099900000000109990000000010601000000001100000001000000000000000100000000000001099900000000000000009999123100000010000000000000BRCGASACNOR0163
012024071602CGRA4       010GRAZZIOTIN  PN           R$  000000000259400000000025940000000002582000000000258500000000025930000000002586000000000259300008000000000000001100000000000002843700000000000000009999123100000010000000000000BRCGRAACNPR9083
012024071602CIEL3       010CIELO       ON      NM   R$  000000000057300000000005740000000000572000000000057200000000005730000000000572000000000057305790000000000018917300000000010833800900000000000000009999123100000010000000000000BRCIELACNOR3157
012024071602CLSA3       010CLEARSALE   ON      NM   R$  000000000070300000000007950000000000695000000000075800000000007650000000000764000000000076506397000000000002994200000000002270735300000000000000009999123100000010000000000000BRCLSAACNOR0100
012024071602CLSC4       010CELESC      PN      N2   R$  000000000776900000000078000000000007652000000000774500000000077690000000007653000000000777000009000000000000001000000000000007745600000000000000009999123100000010000000000000BRCLSCACNPR3131
012024071602DIRR3       010DIRECIONAL  ON  ED  NM   R$  000000000278200000000028070000000002751000000000278300000000027940000000002793000000000279407040000000000001400000000000003897556300000000000000009999123100000010000000000000BRDIRRACNOR0118
012024071602DMVF3       010D1000VFARMA ON      NM   R$  000000000079700000000007970000000000776000000000078100000000007760000000000776000000000077700196000000000000042400000000000033130700000000000000009999123100000010000000000000BRDMVFACNOR9100
012024071602DOHL4       010DOHLER      PN           R$  000000000040000000000004000000000000400000000000040000000000004000000000000394000000000040000001000000000000000100000000000000040000000000000000009999123100000010000000000000BRDOHLACNPR9066
012024071602DOTZ3       010DOTZ SA     ON      NM   R$  000000000065500000000006770000000000640000000000066100000000006580000000000644000000000067700050000000000000010400000000000006876400000000000000009999123100000010000000000000BRDOTZACNOR7101
012024071602DXCO3       010DEXCO       ON      NM   R$  000000000070400000000007190000000000704000000000071000000000007090000000000708000000000071004532000000000001687200000000001199142300000000000000009999123100000010000000000000BRDXCOACNOR8105
012024071602RCSL3       010RECRUSUL    ON           R$  000000000030100000000003020000000000286000000000029100000000002900000000000289000000000029000474000000000000373600000000000108890100000000000000009999123100000010000000000000BRRCSLACNOR4134
012024071602RCSL4       010RECRUSUL    PN           R$  000000000011700000000001170000000000112000000000011300000000001120000000000111000000000011200546000000000000490500000000000055810100000000000000009999123100000010000000000000BRRCSLACNPR1134
012024071602RDNI3       010RNI         ON      NM   R$  000000000031100000000003140000000000311000000000031200000000003130000000000312000000000031400009000000000000001700000000000000531600000000000000009999123100000010000000000000BRRDNIACNOR9116
012024071602RDOR3       010REDE D OR   ON      NM   R$  000000000295500000000030160000000002930000000000296400000000029500000000002947000000000295216638000000000003676600000000010897938200000000000000009999123100000010000000000000BRRDORACNOR8113
012024071602SMFT3       010SMART FIT   ON      NM   R$  000000000230000000000023600000000002275000000000227800000000022750000000002274000000000228305825000000000017066600000000038878038600000000000000009999123100000010000000000000BRSMFTACNOR1112
012024071602ZAMP3       010ZAMP S.A.   ON           R$  000000000035600000000003630000000000351000000000035800000000003630000000000363000000000036401064000000000000330100000000000118461800000000000000009999123100000010000000000000BRZAMPACNOR5100
012024071602MTRE3       010MITRE REALTYON      NM   R$  000000000043000000000004400000000000430000000000043500000000004360000000000436000000000043900872000000000000384200000000000167397700000000000000009999123100000010000000000000BRMTREACNOR6112
012024071602MTSA4       010METISA      PN           R$  000000000441200000000044490000000004353000000000440300000000044400000000004354000000000444000022000000000000002300000000000010127200000000000000009999123100000010000000000000BRMTSAACNPR9072
012024071602MULT3       010MULTIPLAN   ON      N2   R$  000000000247700000000025100000000002470000000000248500000000024880000000002482000000000248913973000000000003369900000000008375297300000000000000009999123100000010000000000000BRMULTACNOR5139
012024071602MWET4       010WETZEL S/A  PN           R$  000000000089500000000011000000000000895000000000104600000000011000000000000847000000000110000015000000000000007400000000000007741800000000000000009999123100000010000000000000BRMWETACNPR3118
012024071602MYPK3       010IOCHP-MAXIONON      NM   R$  000000000118000000000012060000000001180000000000119700000000012020000000001202000000000120303560000000000000896900000000001074050300000000000000009999123100000010000000000000BRMYPKACNOR7155
012024071602RAIL3       010RUMO S.A.   ON      NM   R$  000000000232400000000023570000000002281000000000231200000000022810000000002281000000000228526728000000000012138100000000028069357800000000000000009999123100000010000000000000BRRAILACNOR9105
012024071602RAIZ4       010RAIZEN      PN      N2   R$  000000000030900000000003120000000000305000000000030800000000003100000000000309000000000031011770000000000010904200000000003361699600000000000000009999123100000010000000000000BRRAIZACNPR6110
012024071602SCAR3       010SAO CARLOS  ON      NM   R$  000000000222600000000022670000000002226000000000224600000000022300000000002210000000000224000017000000000000003500000000000007862000000000000000009999123100000010000000000000BRSCARACNOR7131
012024071602SEER3       010SER EDUCA   ON      NM   R$  000000000058400000000006090000000000571000000000058700000000005710000000000571000000000057203240000000000000798800000000000469433700000000000000009999123100000010000000000000BRSEERACNOR5119
012024071602ATOM3       010ATOMPAR     ON           R$  000000000020300000000002060000000000200000000000020300000000002010000000000201000000000020400029000000000000009000000000000001827600000000000000009999123100000010000000000000BRATOMACNOR1106
012024071602AURE3       010AUREN       ON      NM   R$  000000000124700000000012580000000001244000000000125100000000012500000000001250000000000125105479000000000002113500000000002645387000000000000000009999123100000010000000000000BRAUREACNOR9104
012024071602AVLL3       010ALPHAVILLE  ON      NM   R$  000000000032900000000003360000000000329000000000033400000000003350000000000329000000000033500038000000000000066400000000000022194600000000000000009999123100000010000000000000BRAVLLACNOR5103
012024071602AZEV3       010AZEVEDO     ON           R$  000000000018900000000001920000000000173000000000017800000000001760000000000175000000000017601057000000000001621600000000000289955700000000000000009999123100000010000000000000BRAZEVACNOR0121
012024071602AZEV4       010AZEVEDO     PN           R$  000000000019000000000001910000000000172000000000018000000000001770000000000177000000000017803143000000000006550500000000001183465000000000000000009999123100000010000000000000BRAZEVACNPR7121
012024071602SEQL3       010SEQUOIA LOG ON      NM   R$  000000000048700000000004940000000000470000000000047800000000004720000000000472000000000047500326000000000000230200000000000110130500000000000000009999123100000010000000000000BRSEQLACNOR2103
012024071602SHOW3       010TIME FOR FUNON      NM   R$  000000000016900000000001790000000000166000000000017000000000001660000000000166000000000016700304000000000000215500000000000036652200000000000000009999123100000010000000000000BRSHOWACNOR7105
012024071602SHUL4       010SCHULZ      PN           R$  000000000067100000000007010000000000671000000000068900000000006890000000000687000000000069001326000000000000459900000000000317022200000000000000009999123100000010000000000000BRSHULACNPR4156
012024071602SIMH3       010SIMPAR      ON      NM   R$  000000000067500000000006910000000000672000000000068200000000006780000000000678000000000067903626000000000001757900000000001199175800000000000000009999123100000010000000000000BRSIMHACNOR0107
012024071602SLCE3       010SLC AGRICOLAON      NM   R$  000000000189300000000019370000000001887000000000192100000000019350000000001935000000000193707758000000000002874700000000005523224000000000000000009999123100000010000000000000BRSLCEACNOR2125
012024071602WEST3       010WESTWING    ON      NM   R$  000000000009300000000000940000000000091000000000009200000000000940000000000092000000000009400033000000000000023400000000000002165100000000000000009999123100000010000000000000BRWESTACNOR3100
012024071602EUCA3       010EUCATEX     ON      N1   R$  000000000168400000000016990000000001664000000000168400000000016990000000001690000000000170000006000000000000000600000000000001010900000000000000009999123100000010000000000000BREUCAACNOR1157
012024071602EUCA4       010EUCATEX     PN      N1   R$  000000000161400000000016350000000001601000000000161700000000016350000000001615000000000163500143000000000000019500000000000031543700000000000000009999123100000010000000000000BREUCAACNPR8044
012024071602IFCM3       010INFRACOMM   ON      NM   R$  000000000004200000000000440000000000039000000000004100000000000390000000000039000000000004004298000000000015553700000000000640313500000000000000009999123100000010000000000000BRIFCMACNOR8101
012024071602IGTI11      010IGUATEMI S.AUNT     N1   R$  000000000219500000000022160000000002181000000000219400000000021870000000002186000000000219604480000000000001345100000000002951360500000000000000009999123100000010000000000000BRIGTICDAM16106
012024071602WHRL3       010WHIRLPOOL   ON           R$  000000000045000000000004510000000000445000000000045000000000004510000000000444000000000045100005000000000000001600000000000000720200000000000000009999123100000010000000000000BRWHRLACNOR5128
012024071602WHRL4       010WHIRLPOOL   PN           R$  000000000045700000000004570000000000453000000000045500000000004530000000000454000000000045700003000000000000000600000000000000273000000000000000009999123100000010000000000000BRWHRLACNPR2128
012024071602WIZC3       010WIZ CO      ON      NM   R$  000000000059200000000006110000000000592000000000060200000000006010000000000600000000000060502069000000000000442500000000000266682000000000000000009999123100000010000000000000BRWIZCACNOR5102
012024071602WLMM4       010WLM IND COM PN           R$  000000000315000000000031500000000003150000000000315000000000031500000000002700000000000314900001000000000000000100000000000000315000000000000000009999123100000010000000000000BRWLMMACNPR3118
012024071602IGTI3       010IGUATEMI S.AON      N1   R$  000000000027300000000002740000000000268000000000027000000000002720000000000269000000000027200112000000000000023500000000000006357800000000000000009999123100000010000000000000BRIGTIACNOR8106
012024071602IGTI4       010IGUATEMI S.APN      N1   R$  000000000095600000000009630000000000956000000000095900000000009630000000000956000000000108500002000000000000000200000000000000191900000000000000009999123100000010000000000000BRIGTIACNPR5106
012024071602INEP3       010INEPAR      ON           R$  000000000019300000000001960000000000190000000000019100000000001900000000000190000000000019200086000000000000058900000000000011289200000000000000009999123100000010000000000000BRINEPACNOR1143
012024071602INEP4       010INEPAR      PN           R$  000000000018500000000001890000000000184000000000018500000000001880000000000184000000000018800032000000000000020100000000000003721100000000000000009999123100000010000000000000BRINEPACNPR8143
012024071602INTB3       010INTELBRAS   ON      NM   R$  000000000227000000000022860000000002231000000000225800000000022580000000002256000000000225805385000000000001085100000000002450267800000000000000009999123100000010000000000000BRINTBACNOR9111
012024071602IRBR3       010IRBBRASIL REON      NM   R$  000000000315900000000032660000000003159000000000322100000000032110000000003210000000000321104226000000000001030600000000003320194700000000000000009999123100000010000000000000BRIRBRACNOR4111
012024071602YDUQ3       010YDUQS PART  ON      NM   R$  000000000123500000000012520000000001190000000000121500000000012050000000001204000000000120513067000000000003707300000000004505737100000000000000009999123100000010000000000000BRYDUQACNOR3105
012024071602KEPL3       010KEPLER WEBERON      NM   R$  000000000100600000000010120000000000999000000000100500000000010120000000001005000000000101202058000000000000556000000000000558973800000000000000009999123100000010000000000000BRKEPLACNOR1063
012024071602HYPE3       010HYPERA      ON      NM   R$  000000000288700000000029190000000002880000000000290300000000029000000000002897000000000290112463000000000005017300000000014567497300000000000000009999123100000010000000000000BRHYPEACNOR0142
012024071602KLBN11      010KLABIN S/A  UNT     N2   R$  000000000213300000000021500000000002120000000000213900000000021360000000002135000000000213609165000000000002666100000000005704564400000000000000009999123100000010000000000000BRKLBNCDAM18142
012024071602KLBN3       010KLABIN S/A  ON      N2   R$  000000000042700000000004320000000000425000000000042900000000004290000000000429000000000043000468000000000000170600000000000073310900000000000000009999123100000010000000000000BRKLBNACNOR2170
012024071602KLBN4       010KLABIN S/A  PN      N2   R$  000000000042600000000004290000000000424000000000042700000000004260000000000426000000000042701438000000000000663400000000000283339400000000000000009999123100000010000000000000BRKLBNACNPR9170
012024071602MRSA3B      010MRS LOGIST  ON      MB   R$  000000000290000000000029000000000002900000000000290000000000029000000000002901000000000300000002000000000000000700000000000002030000000000000000009999123100000010000000000000BRMRSAACNOR6125
012024071602MRVE3       010MRV         ON      NM   R$  000000000071700000000007220000000000704000000000071100000000007080000000000708000000000071008902000000000008089200000000005757189300000000000000009999123100000010000000000000BRMRVEACNOR2127
012024071602SANB11      010SANTANDER BRUNT          R$  000000000283400000000028780000000002834000000000286500000000028780000000002874000000000288004176000000000001776300000000005090126700000000000000009999123100000010000000000000BRSANBCDAM13164
012024071602SANB3       010SANTANDER BRON           R$  000000000134500000000013590000000001345000000000135400000000013580000000001355000000000135900326000000000000056200000000000076122500000000000000009999123100000010000000000000BRSANBACNOR8171
012024071602SANB4       010SANTANDER BRPN           R$  000000000148900000000015050000000001487000000000149800000000015050000000001502000000000150500338000000000000057600000000000086288400000000000000009999123100000010000000000000BRSANBACNPR5171
012024071602TASA3       010TAURUS ARMASON      N2   R$  000000000127800000000012800000000001263000000000127000000000012740000000001268000000000127400026000000000000004000000000000005082200000000000000009999123100000010000000000000BRTASAACNOR7104
012024071602TASA4       010TAURUS ARMASPN      N2   R$  000000000126500000000012790000000001263000000000127100000000012630000000001263000000000126500890000000000000161500000000000205283100000000000000009999123100000010000000000000BRTASAACNPR4104
012024071602TCSA3       010TECNISA     ON      NM   R$  000000000023200000000002410000000000231000000000023600000000002310000000000231000000000023200200000000000000124900000000000029539500000000000000009999123100000010000000000000BRTCSAACNOR3112
012024071602TECN3       010TECHNOS     ON      NM   R$  000000000058900000000006290000000000578000000000060500000000006060000000000605000000000060602253000000000001150000000000000695805500000000000000009999123100000010000000000000BRTECNACNOR6109
012024071602TELB3       010TELEBRAS    ON           R$  000000000134500000000014800000000001331000000000141000000000013310000000001326000000000137700056000000000000008400000000000011845100000000000000009999123100000010000000000000BRTELBACNOR2140
012024071602TELB4       010TELEBRAS    PN           R$  000000000096500000000010340000000000928000000000096600000000009390000000000938000000000095500157000000000000026000000000000025120300000000000000009999123100000010000000000000BRTELBACNPR9140
012024071602TEND3       010TENDA       ON      NM   R$  000000000131000000000013200000000001284000000000130200000000013020000000001302000000000130605837000000000001682600000000002192369500000000000000009999123100000010000000000000BRTENDACNOR4111
012024071602TFCO4       010TRACK FIELD PN      N2   R$  000000000114000000000011500000000001130000000000113900000000011400000000001135000000000114000450000000000000085900000000000097881400000000000000009999123100000010000000000000BRTFCOACNPR8114
012024071602TGMA3       010TEGMA       ON      NM   R$  000000000258200000000026100000000002572000000000258800000000025900000000002580000000000259000599000000000000085400000000000221046800000000000000009999123100000010000000000000BRTGMAACNOR7144
012024071602TTEN3       0103TENTOS     ON      NM   R$  000000000109600000000011050000000001087000000000109500000000010880000000001086000000000108804062000000000000637500000000000698385700000000000000009999123100000010000000000000BRTTENACNOR0103
012024071602TUPY3       010TUPY        ON      NM   R$  000000000255500000000026180000000002555000000000259500000000025910000000002591000000000260402669000000000000435400000000001130089300000000000000009999123100000010000000000000BRTUPYACNOR1184
012024071602UCAS3       010UNICASA     ON      NM   R$  000000000023600000000002450000000000234000000000023700000000002420000000000239000000000024200287000000000000098700000000000023472100000000000000009999123100000010000000000000BRUCASACNOR1113
012024071602UGPA3       010ULTRAPAR    ON      NM   R$  000000000224200000000022920000000002242000000000226300000000022540000000002253000000000226114333000000000004107100000000009294837400000000000000009999123100000010000000000000BRUGPAACNOR8155
012024071602VITT3       010VITTIA      ON      NM   R$  000000000062700000000006360000000000625000000000062900000000006250000000000625000000000062901299000000000000221400000000000139363500000000000000009999123100000010000000000000BRVITTACNOR4107
012024071602CMIG3       010CEMIG       ON      N1   R$  000000000130300000000013400000000001301000000000131800000000013400000000001316000000000134000634000000000000155500000000000204989100000000000000009999123100000010000000000000BRCMIGACNOR6242
012024071602CMIG4       010CEMIG       PN      N1   R$  000000000107400000000010950000000001073000000000108600000000010870000000001087000000000109016647000000000008699600000000009449484700000000000000009999123100000010000000000000BRCMIGACNPR3243
012024071602CYRE3       010CYRELA REALTON      NM   R$  000000000206200000000020870000000002050000000000207300000000020870000000002086000000000208717411000000000004945400000000010254986200000000000000009999123100000010000000000000BRCYREACNOR7140
012024071602GEPA4       010GER PARANAP PN           R$  000000000262500000000026500000000002625000000000264100000000026500000000002600000000000265000003000000000000000300000000000000792500000000000000009999123100000010000000000000BRGEPAACNPR9160
012024071602GFSA3       010GAFISA      ON      NM   R$  000000000039900000000004140000000000383000000000039400000000003860000000000385000000000038604231000000000005327500000000002099425000000000000000009999123100000010000000000000BRGFSAACNOR3124
012024071602GGBR3       010GERDAU      ON      N1   R$  000000000163500000000016720000000001628000000000164700000000016720000000001669000000000167200248000000000000042500000000000070034600000000000000009999123100000010000000000000BRGGBRACNOR1192
012024071602GGBR4       010GERDAU      PN      N1   R$  000000000184500000000019000000000001840000000000187600000000019000000000001895000000000190018546000000000010707100000000020094320600000000000000009999123100000010000000000000BRGGBRACNPR8192
012024071602DASA3       010DASA        ON      NM   R$  000000000036400000000004050000000000364000000000038500000000003850000000000383000000000038502363000000000002112870000000000814367850000000000000009999123100000010000000000000BRDASAACNOR1122
012024071602DESK3       010DESKTOP     ON      NM   R$  000000000153800000000016070000000001538000000000157500000000015700000000001570000000000157100751000000000000202100000000000318440800000000000000009999123100000010000000000000BRDESKACNOR2104
012024071602FRAS3       010FRAS-LE     ON      N1   R$  000000000203300000000020420000000002025000000000203200000000020330000000002032000000000203400820000000000000166600000000000338588000000000000000009999123100000010000000000000BRFRASACNOR0159
012024071602CURY3       010CURY S/A    ON      NM   R$  000000000212900000000021830000000002125000000000216200000000021740000000002168000000000217408587000000000001781500000000003852224500000000000000009999123100000010000000000000BRCURYACNOR3109
012024071602CVCB3       010CVC BRASIL  ON      NM   R$  000000000020800000000002140000000000206000000000020900000000002080000000000207000000000020804675000000000008370900000000001752556500000000000000009999123100000010000000000000BRCVCBACNOR1116
012024071602CXSE3       010CAIXA SEGURION      NM   R$  000000000144600000000014620000000001440000000000144800000000014400000000001440000000000144506563000000000002124800000000003077976700000000000000009999123100000010000000000000BRCXSEACNOR7106
012024071602EVEN3       010EVEN        ON      NM   R$  000000000064200000000006550000000000640000000000064500000000006410000000000640000000000064301472000000000000391200000000000252711500000000000000009999123100000010000000000000BREVENACNOR8119
012024071602ITSA3       010ITAUSA      ON      N1   R$  000000000102100000000010300000000001019000000000102400000000010210000000001021000000000102600727000000000000154500000000000158361200000000000000009999123100000010000000000000BRITSAACNOR0441
012024071602ITSA4       010ITAUSA      PN      N1   R$  000000000102200000000010270000000001019000000000102200000000010250000000001023000000000102527662000000000021967500000000022471605800000000000000009999123100000010000000000000BRITSAACNPR7441
012024071602PDTC3       010PADTEC      ON      NM   R$  000000000019600000000001970000000000190000000000019200000000001910000000000190000000000019100103000000000000055000000000000010585300000000000000009999123100000010000000000000BRPDTCACNOR3101
012024071602PETR3       010PETROBRAS   ON      N2   R$  000000000414200000000041490000000004098000000000411700000000041250000000004116000000000412522560000000000006624000000000027274039000000000000000009999123100000010000000000000BRPETRACNOR9205
012024071602PETR4       010PETROBRAS   PN      N2   R$  000000000383500000000038500000000003811000000000383000000000038400000000003840000000000384143585000000000019637000000000075210740400000000000000009999123100000010000000000000BRPETRACNPR6213
012024071602SUZB3       010SUZANO S.A. ON      NM   R$  000000000545000000000055190000000005405000000000544300000000054160000000005410000000000541624834000000000005570200000000030321269700000000000000009999123100000010000000000000BRSUZBACNOR0130
012024071602FESA4       010FERBASA     PN      N1   R$  000000000087600000000008890000000000873000000000088100000000008830000000000882000000000088301196000000000000359200000000000316571700000000000000009999123100000010000000000000BRFESAACNPR5084
012024071602FHER3       010FER HERINGERON      NM   R$  000000000039700000000004200000000000395000000000041000000000004100000000000410000000000041100059000000000000011200000000000004601300000000000000009999123100000010000000000000BRFHERACNOR5103
012024071602FIQE3       010UNIFIQUE    ON      NM   R$  000000000034200000000003420000000000338000000000033900000000003390000000000339000000000034000826000000000000577500000000000195959800000000000000009999123100000010000000000000BRFIQEACNOR5107
012024071602FLRY3       010FLEURY      ON      NM   R$  000000000157000000000015760000000001555000000000156600000000015700000000001567000000000157007738000000000001710000000000002679379300000000000000009999123100000010000000000000BRFLRYACNOR5138
012024071602ODPV3       010ODONTOPREV  ON      NM   R$  000000000119000000000012420000000001190000000000122000000000012190000000001215000000000122507151000000000001532300000000001870714200000000000000009999123100000010000000000000BRODPVACNOR4202
012024071602OFSA3       010OUROFINO S/AON      NM   R$  000000000190200000000019020000000001902000000000190200000000019020000000001900000000000193900002000000000000000600000000000001141200000000000000009999123100000010000000000000BROFSAACNOR7118
012024071602ONCO3       010ONCOCLINICASON      NM   R$  000000000076600000000007800000000000744000000000075600000000007480000000000748000000000075003523000000000002021100000000001529601700000000000000009999123100000010000000000000BRONCOACNOR6101
012024071602OPCT3       010OCEANPACT   ON      NM   R$  000000000066200000000006890000000000662000000000067800000000006830000000000677000000000068303492000000000000653100000000000443383300000000000000009999123100000010000000000000BROPCTACNOR0100
012024071602ORVR3       010ORIZON      ON      NM   R$  000000000418000000000042410000000004172000000000420300000000042140000000004209000000000421403525000000000000568000000000002387838800000000000000009999123100000010000000000000BRORVRACNOR0101
012024071602LUPA3       010LUPATECH    ON      NM   R$  000000000017000000000002000000000000170000000000018800000000001950000000000194000000000019500951000000000001325700000000000250359100000000000000009999123100000010000000000000BRLUPAACNOR8112
012024071602LUXM4       010TREVISA     PN           R$  000000000149600000000014960000000001496000000000149600000000014960000000001200000000000149700001000000000000000100000000000000149600000000000000009999123100000010000000000000BRLUXMACNPR4052
012024071602LVTC3       010WDC NETWORKSON      NM   R$  000000000036700000000003800000000000367000000000037500000000003750000000000371000000000037500022000000000000005800000000000002179300000000000000009999123100000010000000000000BRLVTCACNOR4102
012024071602LWSA3       010LWSA        ON      NM   R$  000000000046500000000004880000000000465000000000047400000000004660000000000465000000000046609966000000000007747700000000003677402100000000000000009999123100000010000000000000BRLWSAACNOR8103
012024071602AERI3       010AERIS       ON      NM   R$  000000000069400000000007160000000000679000000000069300000000006890000000000682000000000069000410000000000000168500000000000116922500000000000000009999123100000010000000000000BRAERIACNOR4102
012024071602AESB3       010AES BRASIL  ON      NM   R$  000000000114100000000011420000000001138000000000113900000000011410000000001139000000000114103102000000000007870000000000008964449200000000000000009999123100000010000000000000BRAESBACNOR7106
012024071602AFLT3       010AFLUENTE T  ON           R$  000000000072300000000007230000000000723000000000072300000000007230000000000723000000000075000001000000000000000100000000000000072300000000000000009999123100000010000000000000BRAFLTACNOR1122
012024071602AGRO3       010BRASILAGRO  ON      NM   R$  000000000271000000000027170000000002683000000000269500000000026960000000002692000000000269601056000000000000164400000000000443181200000000000000009999123100000010000000000000BRAGROACNOR7114
012024071602AGXY3       010AGROGALAXY  ON      NM   R$  000000000015300000000001580000000000153000000000015400000000001530000000000153000000000015400290000000000000172900000000000026751100000000000000009999123100000010000000000000BRAGXYACNOR4103
012024071602ALLD3       010ALLIED      ON      NM   R$  000000000081400000000008290000000000814000000000082100000000008270000000000825000000000082700158000000000000059300000000000048723100000000000000009999123100000010000000000000BRALLDACNOR3106
012024071602ALOS3       010ALLOS       ON      NM   R$  000000000223700000000022560000000002218000000000223400000000022280000000002227000000000222808664000000000002489700000000005563286500000000000000009999123100000010000000000000BRALOSACNOR5101
012024071602CASH3       010MELIUZ      ON      NM   R$  000000000060000000000006140000000000600000000000060900000000006140000000000612000000000061401874000000000000639700000000000389916500000000000000009999123100000010000000000000BRCASHACNOR8106
012024071602CBAV3       010CBA         ON      NM   R$  000000000074700000000007620000000000726000000000073800000000007280000000000728000000000072905960000000000002772200000000002048044700000000000000009999123100000010000000000000BRCBAVACNOR5104
012024071602CBEE3       010AMPLA ENERG ON           R$  000000000100000000000010000000000001000000000000100000000000010000000000000980000000000104000001000000000000000100000000000000100000000000000000009999123100000010000000000000BRCBEEACNOR3159
012024071602CCRO3       010CCR SA      ON      NM   R$  000000000128400000000013170000000001284000000000130200000000012940000000001293000000000129511349000000000004840800000000006305417900000000000000009999123100000010000000000000BRCCROACNOR2145
012024071602CEAB3       010CEA MODAS   ON      NM   R$  000000000106300000000010680000000001010000000000103200000000010150000000001014000000000101503979000000000001952400000000002015022800000000000000009999123100000010000000000000BRCEABACNOR1102
012024071602PCAR3       010P.ACUCAR-CBDON      NM   R$  000000000033000000000003340000000000311000000000031900000000003130000000000312000000000031312309000000000025674500000000008204111400000000000000009999123100000010000000000000BRPCARACNOR3167
012024071602PETZ3       010PETZ        ON      NM   R$  000000000042300000000004280000000000407000000000041400000000004070000000000407000000000040808584000000000005904200000000002448191700000000000000009999123100000010000000000000BRPETZACNOR2110
012024071602RECV3       010PETRORECSA  ON      NM   R$  000000000210000000000021300000000002095000000000211000000000021070000000002107000000000210906233000000000001800800000000003800612800000000000000009999123100000010000000000000BRRECVACNOR3107
012024071602REDE3       010REDE ENERGIAON  ED       R$  000000000069900000000007050000000000699000000000070200000000007000000000000699000000000070000005000000000000000600000000000000421400000000000000009999123100000010000000000000BRREDEACNOR7128
012024071602RENT3       010LOCALIZA    ON      NM   R$  000000000463500000000047100000000004586000000000462200000000045860000000004585000000000459013027000000000003308300000000015291380800000000000000009999123100000010000000000000BRRENTACNOR4196
012024071602SMTO3       010SAO MARTINHOON      NM   R$  000000000333900000000033550000000003242000000000327200000000032500000000003250000000000325208761000000000001332000000000004359593400000000000000009999123100000010000000000000BRSMTOACNOR3126
012024071602SNSY3       010SANSUY      ON           R$  000000000126000000000012640000000001260000000000126300000000012640000000001223000000000126500002000000000000000500000000000000631600000000000000009999123100000010000000000000BRSNSYACNOR2113
012024071602SNSY5       010SANSUY      PNA          R$  000000000055600000000005800000000000556000000000057100000000005800000000000562000000000058000014000000000000002700000000000001541700000000000000009999123100000010000000000000BRSNSYACNPA5111
012024071602SOJA3       010BOA SAFRA   ON      NM   R$  000000000157000000000015830000000001553000000000156600000000015700000000001568000000000157001182000000000000201700000000000316016300000000000000009999123100000010000000000000BRSOJAACNOR9105
012024071602SOMA3       010GRUPO SOMA  ON      NM   R$  000000000064400000000006490000000000631000000000063800000000006400000000000639000000000064111322000000000007714800000000004922844100000000000000009999123100000010000000000000BRSOMAACNOR3102
012024071602SRNA3       010SERENA      ON      NM   R$  000000000093800000000009530000000000922000000000093000000000009250000000000925000000000093003244000000000000916200000000000852641100000000000000009999123100000010000000000000BRSRNAACNOR4100
012024071602STBP3       010SANTOS BRP  ON      NM   R$  000000000148000000000014920000000001422000000000144700000000014360000000001435000000000143920427000000000006799900000000009845264900000000000000009999123100000010000000000000BRSTBPACNOR3130
012024071602CSRN3       010COSERN      ON           R$  000000000224600000000023000000000002150000000000222600000000023000000000002248000000000225800008000000000000001100000000000002449400000000000000009999123100000010000000000000BRCSRNACNOR0193
012024071602CSRN5       010COSERN      PNA          R$  000000000215300000000021530000000002153000000000215300000000021530000000002105000000000218000001000000000000000100000000000000215300000000000000009999123100000010000000000000BRCSRNACNPA3193
012024071602CSUD3       010CSU DIGITAL ON      NM   R$  000000000204000000000020640000000002038000000000205200000000020590000000002050000000000205900120000000000000019900000000000040844700000000000000009999123100000010000000000000BRCSUDACNOR5110
012024071602ENGI4       010ENERGISA    PN      N2   R$  000000000082200000000008360000000000817000000000082000000000008200000000000820000000000082200031000000000000008500000000000006978000000000000000009999123100000010000000000000BRENGIACNPR7141
012024071602NEOE3       010NEOENERGIA  ON      NM   R$  000000000185300000000018980000000001853000000000187400000000018650000000001865000000000187505038000000000001119100000000002097718600000000000000009999123100000010000000000000BRNEOEACNOR3123
012024071602ENJU3       010ENJOEI      ON      NM   R$  000000000020700000000002120000000000203000000000020600000000002030000000000203000000000020500674000000000000682900000000000140807800000000000000009999123100000010000000000000BRENJUACNOR9100
012024071602ENMT4       010ENERGISA MT PN  ED       R$  000000000788900000000078890000000007889000000000788800000000078890000000007500000000000789000005000000000000000600000000000004733200000000000000009999123100000010000000000000BRENMTACNPR2126
012024071602EPAR3       010EMBPAR S/A  ON           R$  000000000063000000000006300000000000628000000000062900000000006300000000000626000000000063000022000000000000005900000000000003716800000000000000009999123100000010000000000000BREPARACNOR9105
012024071602EQMA3B      010EQTLMARANHAOON      MB   R$  000000000255000000000025500000000002549000000000254900000000025490000000002516000000000254900003000000000000001200000000000003059800000000000000009999123100000010000000000000BREQMAACNOR8108
012024071602EQPA3       010EQTL PARA   ON           R$  000000000074200000000007870000000000726000000000074900000000007340000000000727000000000073400020000000000000002700000000000002023100000000000000009999123100000010000000000000BREQPAACNOR1111
012024071602EQTL3       010EQUATORIAL  ON      NM   R$  000000000337500000000034090000000003368000000000338200000000033680000000003367000000000338120039000000000007574300000000025618598100000000000000009999123100000010000000000000BREQTLACNOR0130
012024071602ESPA3       010ESPACOLASER ON      NM   R$  000000000010800000000001080000000000105000000000010600000000001060000000000105000000000010600381000000000000538400000000000057078500000000000000009999123100000010000000000000BRESPAACNOR7103
012024071602ESTR4       010ESTRELA     PN           R$  000000000018100000000001810000000000181000000000018100000000001810000000000184000000000019000001000000000000000500000000000000090500000000000000009999123100000010000000000000BRESTRACNPR0144
012024071602NGRD3       010NEOGRID     ON      NM   R$  000000000010200000000001120000000000099000000000010700000000001090000000000109000000000011007844000000000002625000000000000281197800000000000000009999123100000010000000000000BRNGRDACNOR3104
012024071602NINJ3       010GETNINJAS   ON      NM   R$  000000000045200000000004600000000000446000000000045500000000004600000000000442000000000046000051000000000000013000000000000005925900000000000000009999123100000010000000000000BRNINJACNOR5101
012024071602NTCO3       010GRUPO NATURAON      NM   R$  000000000160000000000016150000000001566000000000158200000000015660000000001566000000000157009601000000000003874500000000006132466600000000000000009999123100000010000000000000BRNTCOACNOR5106
012024071602RANI3       010IRANI       ON      NM   R$  000000000090000000000009060000000000893000000000090000000000009050000000000900000000000090501400000000000000412500000000000371554500000000000000009999123100000010000000000000BRRANIACNOR5072
012024071602RAPT3       010RANDON PART ON      N1   R$  000000000102800000000010310000000001011000000000102300000000010310000000001013000000000103300118000000000000037100000000000037971600000000000000009999123100000010000000000000BRRAPTACNOR7162
012024071602RAPT4       010RANDON PART PN      N1   R$  000000000123100000000012450000000001217000000000122600000000012210000000001221000000000122804308000000000001319100000000001618269300000000000000009999123100000010000000000000BRRAPTACNPR4162
012024071607NUTR3       010NUTRIPLANT  ON      MA   R$  000000000046900000000004690000000000430000000000045700000000004650000000000462000000000046700030000000000000006000000000000002747800000000000000009999123100000010000000000000BRNUTRACNOR0104
012024071608JFEN3       010JOAO FORTES ON           R$  000000000002900000000000300000000000026000000000002700000000000260000000000025000000000002701058000000000002172300000000000059180400000000000000009999123100000010000000000000BRJFENACNOR0059
012024071608LIGT3       010LIGHT S/A   ON      NM   R$  000000000050300000000005030000000000493000000000049600000000004960000000000496000000000049801810000000000001171600000000000582259600000000000000009999123100000010000000000000BRLIGTACNOR2124
012024071608RSID3       010ROSSI RESID ON      NM   R$  000000000049700000000005020000000000460000000000047600000000004600000000000460000000000046900233000000000000076600000000000036528200000000000000009999123100000010000000000000BRRSIDACNOR8120
012024071608HOOT4       010HOTEIS OTHONPN           R$  000000000025900000000002590000000000245000000000024700000000002480000000000245000000000025900010000000000000002500000000000000618100000000000000009999123100000010000000000000BRHOOTACNPR9015
012024071608AMER3       010AMERICANAS  ON      NM   R$  000000000006200000000000680000000000062000000000006500000000000670000000000067000000000006805462000000000053444300000000003485803300000000000000009999123100000010000000000000BRAMERACNOR6102
012024071608PMAM3       010PARANAPANEMAON      NM   R$  000000000024000000000002460000000000239000000000024100000000002410000000000241000000000024400133000000000000127400000000000030744800000000000000009999123100000010000000000000BRPMAMACNOR3039
012024071608RNEW11      010RENOVA      UNT     N2   R$  000000000027100000000002720000000000270000000000027000000000002700000000000270000000000027200040000000000000011000000000000002972300000000000000009999123100000010000000000000BRRNEWCDAM15110
012024071608RNEW3       010RENOVA      ON      N2   R$  000000000009000000000000920000000000089000000000008900000000000890000000000089000000000009100093000000000000044900000000000004012300000000000000009999123100000010000000000000BRRNEWACNOR8110
012024071608RNEW4       010RENOVA      PN      N2   R$  000000000009000000000000910000000000087000000000008800000000000890000000000089000000000009000141000000000000141600000000000012520100000000000000009999123100000010000000000000BRRNEWACNPR5110
012024071608RPMG3       010PET MANGUINHON           R$  000000000029000000000003040000000000283000000000029800000000003040000000000301000000000030400167000000000000088200000000000026284400000000000000009999123100000010000000000000BRRPMGACNOR9194
012024071608ATMP3       010ATMASA      ON           R$  000000000019600000000002000000000000193000000000019800000000001980000000000195000000000019900006000000000000002000000000000000396300000000000000009999123100000010000000000000BRATMPACNOR8100
012024071608SGPS3       010SPRINGS     ON      NM   R$  000000000022800000000002280000000000228000000000022800000000002280000000000212000000000022800030000000000000059700000000000013611600000000000000009999123100000010000000000000BRSGPSACNOR4105
012024071608ETER3       010ETERNIT     ON      NM   R$  000000000063200000000006350000000000624000000000062800000000006300000000000624000000000063000425000000000000174100000000000109437900000000000000009999123100000010000000000000BRETERACNOR3243
012024071608OIBR3       010OI          ON      N1   R$  000000000063900000000006560000000000594000000000061500000000005960000000000596000000000059702225000000000001577500000000000971430400000000000000009999123100000010000000000000BROIBRACNOR1111
012024071608OIBR4       010OI          PN      N1   R$  000000000157200000000015960000000001499000000000154200000000015600000000001531000000000158000091000000000000014300000000000022056100000000000000009999123100000010000000000000BROIBRACNPR8110
012024071608OSXB3       010OSX BRASIL  ON      NM   R$  000000000038400000000003910000000000380000000000038500000000003820000000000384000000000038900018000000000000005800000000000002237700000000000000009999123100000010000000000000BROSXBACNOR8109
012024071608CTNM3       010COTEMINAS   ON           R$  000000000079900000000007990000000000799000000000079900000000007990000000000600000000000080000002000000000000000500000000000000399500000000000000009999123100000010000000000000BRCTNMACNOR9130
012024071608CTNM4       010COTEMINAS   PN           R$  000000000008900000000000890000000000089000000000008900000000000890000000000089000000000009000031000000000000053100000000000004725900000000000000009999123100000010000000000000BRCTNMACNPR6129
012024071608CTSA3       010SANTANENSE  ON           R$  000000000024400000000002440000000000244000000000024400000000002440000000000244000000000024600003000000000000000300000000000000073200000000000000009999123100000010000000000000BRCTSAACNOR3062
012024071608CTSA4       010SANTANENSE  PN           R$  000000000010800000000001090000000000103000000000010500000000001080000000000105000000000010800166000000000000060000000000000006344900000000000000009999123100000010000000000000BRCTSAACNPR0062
012024071608NEXP3       010NEXPE       ON           R$  000000000042200000000004220000000000412000000000041300000000004120000000000411000000000041300010000000000000001600000000000000662300000000000000009999123100000010000000000000BRNEXPACNOR0101
012024071610RENT1       010LOCALIZA    DIR ORD NM   R$  000000000136700000000014110000000001294000000000134300000000013200000000001320000000000133100434000000000000073000000000000098097400000000000000009999123100000010000000000000BRRENTD06OR8195
012024071610EQTL9       010EQUATORIAL  ON  REC NM   R$  000000000335600000000034120000000003350000000000335200000000033920000000003300000000000349900007000000000000009600000000000032184100000000000000009999123100000010000000000000BREQTLR03OR1129
012024071612BLCA11      010FII BLUE AAACI  ER       R$  000000000995100000000100150000000009950000000000998100000000099500000000009951000000001001400025000000000000000050000000000000499068000000000000009999123100000010000000000000BRBLCACTF009132
012024071612BLMG11      010FII BLUE LOGCI           R$  000000000389300000000038990000000003880000000000388800000000038920000000003898000000000389900205000000000000002764000000000010748100000000000000009999123100000010000000000000BRBLMGCTF005147
012024071612BLMO11      010FII BLUEMAC CI           R$  000000000830000000000083000000000008195000000000829300000000083000000000007910000000000885000006000000000000000046000000000000381491000000000000009999123100000010000000000000BRBLMOCTF009132
012024071612JCCJ11      010FII JHSF CJ CI  ER       R$  000000001459900000000145990000000014599000000001459900000000145990000000013200000000001459900001000000000000000090000000000001313910000000000000009999123100000010000000000000BRJCCJCTF002112
012024071612JFLL11      010FII JFL LIV CI           R$  000000000747500000000074750000000007228000000000734100000000073060000000007306000000000738000084000000000000000735000000000005396364000000000000009999123100000010000000000000BRJFLLCTF002141
012024071612MINT11      010FII MINT EDUCI           R$  000000000986400000000099700000000009864000000000996100000000099700000000009101000000000986400010000000000000000100000000000000996140000000000000009999123100000010000000000000BRMINTCTF009103
012024071612PRSN11      010FII PERSONALCI  ER       R$  000000000010600000000001100000000000105000000000010600000000001090000000000104000000000010900021000000000000000780000000000000082829000000000000009999123100000010000000000000BRPRSNCTF005125
012024071612PRSV11      010FII P VARGASCI           R$  000000000630200000000063020000000006200000000000625000000000062000000000005890000000000659900003000000000000000020000000000000125019000000000000009999123100000010000000000000BRPRSVCTF008226
012024071612PULV11      010FII PULV    CI           R$  000000000100000000000010000000000000990000000000099400000000009950000000000992000000000099500013000000000000001159000000000001152830000000000000009999123100000010000000000000BRPULVCTF007102
012024071612PVBI11      010FII VBI PRI CI           R$  000000000946600000000096850000000009432000000000956000000000095900000000009516000000000959012168000000000000058472000000000558995524000000000000009999123100000010000000000000BRPVBICTF003153
012024071612SAPI11      010FII SAPI    CI           R$  000000000924900000000093480000000009175000000000926500000000092000000000009200000000000928800381000000000000004467000000000041388297000000000000009999123100000010000000000000BRSAPICTF001109
012024071612SARE11      010FII SANT RENCI           R$  000000000430000000000043100000000004270000000000429700000000043000000000004291000000000430801564000000000000013651000000000058660940000000000000009999123100000010000000000000BRSARECTF006157
012024071612TMPS11      010FII ITAU TEMCI           R$  000000000960400000000096980000000009504000000000958400000000095580000000009558000000000962700088000000000000002967000000000028437693000000000000009999123100000010000000000000BRTMPSCTF003115
012024071612TORD11      010FII TORDE EICI           R$  000000000014600000000001520000000000146000000000014800000000001500000000000149000000000015000593000000000000064882000000000009634301000000000000009999123100000010000000000000BRTORDCTF015138
012024071612TRBL11      010FII SDI LOG CI           R$  000000000981800000000099350000000009801000000000987700000000098120000000009812000000000985000998000000000000006812000000000067285268000000000000009999123100000010000000000000BRTRBLCTF007113
012024071612LASC11      010FII LEGATUS CI           R$  000000001103900000000114500000000011039000000001118600000000114490000000011110000000001144900014000000000000000051000000000000570533000000000000009999123100000010000000000000BRLASCCTF003154
012024071612TRNT11      010FII TORRE NOCI           R$  000000001043900000000109000000000010439000000001079300000000108000000000010441000000001080000005000000000000000010000000000000107939000000000000009999123100000010000000000000BRTRNTCTF013341
012024071612URPR11      010FII URCA RENCI           R$  000000000818500000000082190000000008170000000000819200000000082100000000008201000000000821001254000000000000010384000000000085067304000000000000009999123100000010000000000000BRURPRCTF002159
012024071612LFTT11      010FII LOFT II CI  EA       R$  000000000217500000000021750000000002171000000000217400000000021710000000001946000000000217100008000000000000000033000000000000071761000000000000009999123100000010000000000000BRLFTTCTF004133
012024071612LGCP11      010FII LGCP INTCI           R$  000000000854000000000085400000000008478000000000849700000000085000000000008495000000000850000260000000000000003528000000000029978007000000000000009999123100000010000000000000BRLGCPCTF006157
012024071612LIFE11      010FII LIFE    CI           R$  000000000102900000000010320000000001010000000000102100000000010280000000001018000000000102800430000000000000053578000000000054719087000000000000009999123100000010000000000000BRLIFECTF017130
012024071612VOTS11      010FII V MASTERCI           R$  000000000810100000000081490000000007965000000000798500000000081490000000008018000000000814900024000000000000000158000000000001261691000000000000009999123100000010000000000000BRVOTSCTF007171
012024071612VRTA11      010FII FATOR VECI           R$  000000000883000000000089520000000008830000000000889800000000089400000000008939000000000894002474000000000000020122000000000179047416000000000000009999123100000010000000000000BRVRTACTF008261
012024071612VRTM11      010FII VRTM    CI           R$  000000000105500000000010760000000001055000000000106700000000010750000000001071000000000107500034000000000000000611000000000000652503000000000000009999123100000010000000000000BRVRTMCTF003109
012024071612VSHO11      010FII VOT SHOPCI           R$  000000000725000000000073120000000007250000000000727300000000072500000000007251000000000731100034000000000000000641000000000004662609000000000000009999123100000010000000000000BRVSHOCTF002162
012024071612VSLH11      010FII VERS CRICI  ER       R$  000000000034200000000003460000000000341000000000034400000000003460000000000345000000000034601414000000000000062201000000000021404697000000000000009999123100000010000000000000BRVSLHCTF008144
012024071612VTLT11      010FII VOT LOG CI           R$  000000000950000000000095350000000009495000000000950200000000095100000000009504000000000951000068000000000000001406000000000013360353000000000000009999123100000010000000000000BRVTLTCTF001173
012024071612VVCO11      010FII V2EDCORPCI           R$  000000000127000000000012720000000001270000000000127000000000012700000000001270000000000129000058000000000000001282000000000001628581000000000000009999123100000010000000000000BRVVCOCTF007101
012024071612VVCR11      010FII V2 RECE CI           R$  000000000099500000000009970000000000979000000000098900000000009960000000000995000000000099600052000000000000001338000000000001324396000000000000009999123100000010000000000000BRVVCRCTF000116
012024071612VVRI11      010FII V2 RENDACI           R$  000000000995100000000100700000000009951000000000999000000000100700000000010200000000001099100002000000000000000003000000000000029972000000000000009999123100000010000000000000BRVVRICTF007116
012024071612RVBI11      010FII VBI REITCI  ER       R$  000000000738900000000073950000000007356000000000737000000000073930000000007370000000000739303302000000000000018559000000000136786565000000000000009999123100000010000000000000BRRVBICTF009153
012024071612RZAK11      010FII RIZA AKNCI  ER       R$  000000000828100000000083200000000008266000000000829100000000083200000000008300000000000832002406000000000000017366000000000143985278000000000000009999123100000010000000000000BRRZAKCTF008145
012024071612RZAT11      010FII ARCTIUM CI  ER       R$  000000000989900000000098990000000009751000000000979200000000097910000000009791000000000981503129000000000000013259000000000129843572000000000000009999123100000010000000000000BRRZATCTF009118
012024071612RZTR11      010FII RIZA TX CI           R$  000000000942100000000094990000000009403000000000944400000000094130000000009413000000000941609447000000000000061269000000000578638176000000000000009999123100000010000000000000BRRZTRCTF003149
012024071612ABCP11      010FII ABC IMOBCI           R$  000000000673500000000067350000000006680000000000671900000000067080000000006708000000000671500071000000000000000433000000000002909330000000000000009999123100000010000000000000BRABCPCTF000340
012024071612BICR11      010FII INTER   CI           R$  000000000600000000000060000000000006000000000000600000000000060000000000005260000000000599800004000000000000000010000000000000060000000000000000009999123100000010000000000000BRBICRCTF009153
012024071612BRCO11      010FII BRESCO  CI           R$  000000001147100000000115000000000011430000000001146500000000114440000000011444000000001144504674000000000000016272000000000186570675000000000000009999123100000010000000000000BRBRCOCTF007158
012024071612BRCR11      010FII BC FUND CI  ER       R$  000000000513300000000051630000000005105000000000514100000000051430000000005154000000000515704987000000000000017840000000000091719837000000000000009999123100000010000000000000BRBRCRCTF000268
012024071612CPSH11      010FII CPSH    CI           R$  000000000111400000000011140000000001104000000000110800000000011130000000001107000000000111311059000000000000100837000000000111750025000000000000009999123100000010000000000000BRCPSHCTF017114
