00COTAHIST.2024BOVESPA 20240723                                                                                                                                                                                                                      
012024072302SANB11      010SANTANDER BRUNT EJ       R$  000000000287000000000028880000000002819000000000283300000000028310000000002831000000000283208641000000000002735500000000007751609900000000000000009999123100000010000000000000BRSANBCDAM13165
012024072302SANB3       010SANTANDER BRON  EJ       R$  000000000135000000000013560000000001334000000000134400000000013360000000001335000000000134100374000000000000061800000000000083111600000000000000009999123100000010000000000000BRSANBACNOR8172
012024072302VITT3       010VITTIA      ON      NM   R$  000000000063600000000006360000000000607000000000061000000000006090000000000607000000000061100885000000000000151900000000000092680900000000000000009999123100000010000000000000BRVITTACNOR4107
012024072302VIVA3       010VIVARA S.A. ON      NM   R$  000000000229300000000023010000000002258000000000228200000000022820000000002281000000000228410039000000000002026100000000004624861200000000000000009999123100000010000000000000BRVIVAACNOR0107
012024072302VIVR3       010VIVER       ON      NM   R$  000000000023900000000002410000000000230000000000023300000000002300000000000230000000000023400096000000000000032100000000000007496500000000000000009999123100000010000000000000BRVIVRACNOR4123
012024072302VIVT3       010TELEF BRASILON           R$  000000000495500000000049880000000004857000000000488700000000048570000000004855000000000487009943000000000002048500000000010012583800000000000000009999123100000010000000000000BRVIVTACNOR0182
012024072302RECV3       010PETRORECSA  ON      NM   R$  000000000209800000000021350000000002045000000000209000000000020470000000002046000000000204709307000000000003894300000000008139469900000000000000009999123100000010000000000000BRRECVACNOR3107
012024072302REDE3       010REDE ENERGIAON           R$  000000000069600000000006960000000000692000000000069200000000006930000000000692000000000069400014000000000000001900000000000001316600000000000000009999123100000010000000000000BRREDEACNOR7128
012024072302TAEE11      010TAESA       UNT     N2   R$  000000000340800000000034230000000003385000000000339800000000033850000000003385000000000339208440000000000001571000000000005339309900000000000000009999123100000010000000000000BRTAEECDAM10147
012024072302TAEE3       010TAESA       ON      N2   R$  000000000113800000000011380000000001122000000000112600000000011290000000001124000000000113000803000000000000136100000000000153353800000000000000009999123100000010000000000000BRTAEEACNOR9147
012024072302TAEE4       010TAESA       PN      N2   R$  000000000114500000000011480000000001135000000000113900000000011350000000001135000000000113801026000000000000244800000000000279057000000000000000009999123100000010000000000000BRTAEEACNPR6147
012024072302VAMO3       010VAMOS       ON      NM   R$  000000000089700000000009000000000000876000000000088800000000008900000000000889000000000089012464000000000004913300000000004363273300000000000000009999123100000010000000000000BRVAMOACNOR7105
012024072302RANI3       010IRANI       ON      NM   R$  000000000090300000000009040000000000874000000000088200000000008780000000000875000000000087902342000000000000789300000000000696251000000000000000009999123100000010000000000000BRRANIACNOR5072
012024072302RAPT3       010RANDON PART ON  EJ  N1   R$  000000000096400000000009750000000000960000000000096700000000009750000000000969000000000097500096000000000000016300000000000015769200000000000000009999123100000010000000000000BRRAPTACNOR7163
012024072302RAPT4       010RANDON PART PN  EJ  N1   R$  000000000117300000000011770000000001151000000000115800000000011510000000001151000000000116003836000000000001450300000000001679613900000000000000009999123100000010000000000000BRRAPTACNPR4163
012024072302BRAP3       010BRADESPAR   ON      N1   R$  000000000182000000000018240000000001795000000000180300000000017950000000001795000000000180100327000000000000071700000000000129330900000000000000009999123100000010000000000000BRBRAPACNOR5148
012024072302BRAP4       010BRADESPAR   PN      N1   R$  000000000188100000000018820000000001858000000000186800000000018640000000001864000000000186505508000000000002572900000000004806778700000000000000009999123100000010000000000000BRBRAPACNPR2148
012024072302CSED3       010CRUZEIRO EDUON      NM   R$  000000000039300000000004000000000000385000000000039200000000003860000000000386000000000038900752000000000000395700000000000155262100000000000000009999123100000010000000000000BRCSEDACNOR9104
012024072302CSMG3       010COPASA      ON      NM   R$  000000000212800000000022140000000002116000000000218900000000022080000000002206000000000220806398000000000001565200000000003427761200000000000000009999123100000010000000000000BRCSMGACNOR5174
012024072302CSNA3       010SID NACIONALON           R$  000000000125600000000012560000000001204000000000122000000000012040000000001204000000000120513772000000000006595000000000008049037200000000000000009999123100000010000000000000BRCSNAACNOR6261
012024072302HYPE3       010HYPERA      ON      NM   R$  000000000288800000000029080000000002823000000000285200000000028690000000002860000000000286911365000000000004081000000000011641445200000000000000009999123100000010000000000000BRHYPEACNOR0142
012024072302CEAB3       010CEA MODAS   ON      NM   R$  000000000093900000000009390000000000892000000000090700000000008920000000000891000000000089406516000000000003005900000000002727144800000000000000009999123100000010000000000000BRCEABACNOR1102
012024072302CEBR3       010CEB         ON           R$  000000000201300000000020490000000002013000000000201900000000020380000000002010000000000203800011000000000000002300000000000004643700000000000000009999123100000010000000000000BRCEBRACNOR5125
012024072302CEBR5       010CEB         PNA          R$  000000000183400000000018340000000001782000000000180500000000018000000000001791000000000182200014000000000000003200000000000005777300000000000000009999123100000010000000000000BRCEBRACNPA8124
012024072302CEBR6       010CEB         PNB          R$  000000000187000000000019100000000001870000000000188400000000018900000000001885000000000190400040000000000000012100000000000022806000000000000000009999123100000010000000000000BRCEBRACNPB6124
012024072302CEDO3       010CEDRO       ON      N1   R$  000000000308000000000030800000000003080000000000308000000000030800000000000002000000000319900002000000000000000200000000000000616000000000000000009999123100000010000000000000BRCEDOACNOR8096
012024072302CEDO4       010CEDRO       PN      N1   R$  000000000229900000000023000000000002299000000000229900000000023000000000002300000000000243800006000000000000001900000000000004369900000000000000009999123100000010000000000000BRCEDOACNPR5128
012024072302CGAS3       010COMGAS      ON           R$  000000001120000000000112000000000011200000000001120000000000112000000000010600000000001199900001000000000000000100000000000001120000000000000000009999123100000010000000000000BRCGASACNOR0163
012024072302CGAS5       010COMGAS      PNA          R$  000000001166500000000116650000000011520000000001157100000000115790000000011499000000001224400003000000000000000400000000000004628400000000000000009999123100000010000000000000BRCGASACNPA3160
012024072302KRSA3       010KORA SAUDE  ON      NM   R$  000000000007100000000000710000000000069000000000007000000000000700000000000070000000000007100070000000000000391000000000000027405200000000000000009999123100000010000000000000BRKRSAACNOR0100
012024072302DIRR3       010DIRECIONAL  ON      NM   R$  000000000288000000000028830000000002830000000000284800000000028430000000002839000000000284305607000000000001088900000000003102051100000000000000009999123100000010000000000000BRDIRRACNOR0118
012024072302DMVF3       010D1000VFARMA ON      NM   R$  000000000078800000000007990000000000784000000000079300000000007860000000000785000000000079600240000000000000045700000000000036251000000000000000009999123100000010000000000000BRDMVFACNOR9100
012024072302DOHL4       010DOHLER      PN           R$  000000000040500000000004070000000000397000000000040400000000004070000000000397000000000040700011000000000000002800000000000001133100000000000000009999123100000010000000000000BRDOHLACNPR9066
012024072302DOTZ3       010DOTZ SA     ON      NM   R$  000000000064100000000006650000000000641000000000065000000000006580000000000644000000000065800039000000000000008900000000000005792700000000000000009999123100000010000000000000BRDOTZACNOR7101
012024072302DXCO3       010DEXCO       ON      NM   R$  000000000072300000000007240000000000708000000000071500000000007080000000000708000000000071006941000000000002491900000000001783634800000000000000009999123100000010000000000000BRDXCOACNOR8105
012024072302LAND3       010TERRASANTAPAON      NM   R$  000000000147300000000014730000000001394000000000140800000000013950000000001392000000000139500388000000000000061000000000000085922300000000000000009999123100000010000000000000BRLANDACNOR9103
012024072302LAVV3       010LAVVI       ON      NM   R$  000000000092800000000009290000000000912000000000091600000000009120000000000911000000000091201051000000000000300300000000000275133500000000000000009999123100000010000000000000BRLAVVACNOR4112
012024072302LEVE3       010METAL LEVE  ON      NM   R$  000000000333900000000033390000000003300000000000330700000000033050000000003305000000000332501104000000000000224600000000000742850300000000000000009999123100000010000000000000BRLEVEACNOR2197
012024072302LJQQ3       010QUERO-QUERO ON      NM   R$  000000000042000000000004200000000000407000000000041200000000004070000000000407000000000040803248000000000001455800000000000600140200000000000000009999123100000010000000000000BRLJQQACNOR5104
012024072302LOGG3       010LOG COM PROPON      NM   R$  000000000227700000000022830000000002172000000000221800000000021720000000002172000000000217502171000000000000406100000000000900816800000000000000009999123100000010000000000000BRLOGGACNOR7107
012024072302LOGN3       010LOG-IN      ON      NM   R$  000000000406300000000040840000000003960000000000398700000000039600000000003960000000000403400111000000000000026000000000000103673800000000000000009999123100000010000000000000BRLOGNACNOR3105
012024072302LPSB3       010LOPES BRASILON      NM   R$  000000000018700000000001890000000000183000000000018500000000001860000000000184000000000018600096000000000000044000000000000008157600000000000000009999123100000010000000000000BRLPSBACNOR0114
012024072302ESPA3       010ESPACOLASER ON      NM   R$  000000000010200000000001030000000000099000000000009900000000000990000000000099000000000010100300000000000001273200000000000127150700000000000000009999123100000010000000000000BRESPAACNOR7103
012024072302ESTR4       010ESTRELA     PN           R$  000000000019600000000001960000000000196000000000019600000000001960000000000200000000000020500001000000000000000100000000000000019600000000000000009999123100000010000000000000BRESTRACNPR0144
012024072302EUCA3       010EUCATEX     ON      N1   R$  000000000163700000000016420000000001625000000000163300000000016250000000001625000000000169700008000000000000001000000000000001633000000000000000009999123100000010000000000000BREUCAACNOR1157
012024072302EUCA4       010EUCATEX     PN      N1   R$  000000000161700000000016220000000001580000000000158500000000015800000000001573000000000158000247000000000000044100000000000069936900000000000000009999123100000010000000000000BREUCAACNPR8044
012024072302LREN3       010LOJAS RENNERON      NM   R$  000000000134300000000013460000000001313000000000132600000000013180000000001318000000000132116835000000000009223800000000012235715400000000000000009999123100000010000000000000BRLRENACNOR1221
012024072302ODPV3       010ODONTOPREV  ON      NM   R$  000000000119400000000011950000000001171000000000117900000000011730000000001172000000000118202007000000000000560700000000000661134800000000000000009999123100000010000000000000BRODPVACNOR4202
012024072302OFSA3       010OUROFINO S/AON      NM   R$  000000000192500000000019490000000001902000000000192600000000019350000000001902000000000203700016000000000000004400000000000008476700000000000000009999123100000010000000000000BROFSAACNOR7118
012024072302EVEN3       010EVEN        ON      NM   R$  000000000062900000000006380000000000623000000000063000000000006280000000000627000000000063402864000000000000894000000000000564033500000000000000009999123100000010000000000000BREVENACNOR8119
012024072302EZTC3       010EZTEC       ON      NM   R$  000000000146000000000014680000000001427000000000143900000000014270000000001425000000000143005657000000000001468300000000002113639100000000000000009999123100000010000000000000BREZTCACNOR0125
012024072302FESA3       010FERBASA     ON      N1   R$  000000000132000000000013200000000001320000000000132000000000013200000000001306000000000139000001000000000000000300000000000000396000000000000000009999123100000010000000000000BRFESAACNOR8188
012024072302FESA4       010FERBASA     PN      N1   R$  000000000086000000000008600000000000837000000000084400000000008390000000000838000000000084101389000000000000349200000000000294836200000000000000009999123100000010000000000000BRFESAACNPR5084
012024072302FHER3       010FER HERINGERON      NM   R$  000000000040900000000004140000000000397000000000040900000000003970000000000397000000000040600024000000000000007400000000000003033500000000000000009999123100000010000000000000BRFHERACNOR5103
012024072302CYRE3       010CYRELA REALTON      NM   R$  000000000208500000000020850000000002002000000000202700000000020150000000002015000000000201613502000000000003402600000000006899355300000000000000009999123100000010000000000000BRCYREACNOR7140
012024072302ENAT3       010ENAUTA PART ON      NM   R$  000000000217300000000021730000000002119000000000213400000000021280000000002121000000000212806882000000000001682300000000003591404300000000000000009999123100000010000000000000BRENATACNOR0104
012024072302ENEV3       010ENEVA       ON      NM   R$  000000000128700000000012980000000001265000000000127800000000012650000000001265000000000127315787000000000004929800000000006301487600000000000000009999123100000010000000000000BRENEVACNOR8106
012024072302ENGI11      010ENERGISA    UNT     N2   R$  000000000467400000000046970000000004555000000000460900000000045630000000004562000000000457009734000000000004357500000000020084272000000000000000009999123100000010000000000000BRENGICDAM16135
012024072302ENGI3       010ENERGISA    ON      N2   R$  000000000146600000000014660000000001413000000000143200000000014130000000001413000000000141500022000000000000002400000000000003436800000000000000009999123100000010000000000000BRENGIACNOR0145
012024072302ENGI4       010ENERGISA    PN      N2   R$  000000000080400000000008060000000000789000000000079600000000007890000000000788000000000079900023000000000000004200000000000003344300000000000000009999123100000010000000000000BRENGIACNPR7141
012024072302ENJU3       010ENJOEI      ON      NM   R$  000000000018600000000001900000000000184000000000018600000000001860000000000186000000000018700631000000000000340300000000000063317500000000000000009999123100000010000000000000BRENJUACNOR9100
012024072302ENMT4       010ENERGISA MT PN           R$  000000000789900000000078990000000007899000000000789900000000078990000000005000000000000794900002000000000000000200000000000001579900000000000000009999123100000010000000000000BRENMTACNPR2126
012024072302EPAR3       010EMBPAR S/A  ON           R$  000000000059500000000005990000000000594000000000059400000000005990000000000593000000000059900021000000000000004800000000000002854000000000000000009999123100000010000000000000BREPARACNOR9105
012024072302EQPA3       010EQTL PARA   ON           R$  000000000073600000000007380000000000715000000000073100000000007180000000000718000000000074100034000000000000010100000000000007389600000000000000009999123100000010000000000000BREQPAACNOR1111
012024072302EQTL3       010EQUATORIAL  ON      NM   R$  000000000331500000000033260000000003273000000000328900000000032740000000003273000000000327515766000000000003915700000000012882644900000000000000009999123100000010000000000000BREQTLACNOR0130
012024072302INEP3       010INEPAR      ON           R$  000000000019400000000002050000000000192000000000019800000000001920000000000191000000000019500205000000000000165000000000000032748500000000000000009999123100000010000000000000BRINEPACNOR1143
012024072302INEP4       010INEPAR      PN           R$  000000000019000000000002000000000000188000000000019400000000001920000000000189000000000019200141000000000000100900000000000019588500000000000000009999123100000010000000000000BRINEPACNPR8143
012024072302INTB3       010INTELBRAS   ON      NM   R$  000000000223000000000022330000000002210000000000221900000000022150000000002215000000000222103134000000000000651500000000001445932000000000000000009999123100000010000000000000BRINTBACNOR9111
012024072302IRBR3       010IRBBRASIL REON      NM   R$  000000000308900000000030890000000002965000000000300800000000029670000000002967000000000297504001000000000000886900000000002668315300000000000000009999123100000010000000000000BRIRBRACNOR4111
012024072302ONCO3       010ONCOCLINICASON      NM   R$  000000000072000000000007230000000000710000000000071600000000007120000000000709000000000071205927000000000002310600000000001655442500000000000000009999123100000010000000000000BRONCOACNOR6101
012024072302OPCT3       010OCEANPACT   ON      NM   R$  000000000063900000000006390000000000628000000000063100000000006300000000000629000000000063200957000000000000335500000000000211729400000000000000009999123100000010000000000000BROPCTACNOR0100
012024072302ORVR3       010ORIZON      ON      NM   R$  000000000436800000000043680000000004264000000000429500000000042950000000004292000000000429501570000000000000240700000000001033999200000000000000009999123100000010000000000000BRORVRACNOR0101
012024072302PCAR3       010P.ACUCAR-CBDON      NM   R$  000000000028200000000002930000000000278000000000028700000000002900000000000289000000000029008618000000000012980300000000003732344700000000000000009999123100000010000000000000BRPCARACNOR3167
012024072302PFRM3       010PROFARMA    ON      NM   R$  000000000055800000000005640000000000548000000000055700000000005630000000000560000000000056300510000000000000204000000000000113722600000000000000009999123100000010000000000000BRPFRMACNOR1116
012024072302PGMN3       010PAGUE MENOS ON      NM   R$  000000000027400000000002740000000000264000000000026700000000002640000000000264000000000026500795000000000000824200000000000220697600000000000000009999123100000010000000000000BRPGMNACNOR8103
012024072302AERI3       010AERIS       ON      NM   R$  000000000058900000000005890000000000565000000000057200000000005710000000000568000000000057100359000000000000098000000000000056101600000000000000009999123100000010000000000000BRAERIACNOR4102
012024072302AESB3       010AES BRASIL  ON      NM   R$  000000000113700000000011390000000001137000000000113700000000011390000000001137000000000113902057000000000001091600000000001242110000000000000000009999123100000010000000000000BRAESBACNOR7106
012024072302AGRO3       010BRASILAGRO  ON      NM   R$  000000000273300000000027330000000002680000000000269700000000026950000000002688000000000269501009000000000000183400000000000494721100000000000000009999123100000010000000000000BRAGROACNOR7114
012024072302AGXY3       010AGROGALAXY  ON      NM   R$  000000000014000000000001410000000000137000000000013800000000001390000000000138000000000013900278000000000000129800000000000018032400000000000000009999123100000010000000000000BRAGXYACNOR4103
012024072302AHEB3       010SPTURIS     ON           R$  000000000350000000000035000000000003500000000000350000000000035000000000003500000000000400000001000000000000000100000000000000350000000000000000009999123100000010000000000000BRAHEBACNOR0106
012024072302ALLD3       010ALLIED      ON      NM   R$  000000000079100000000007930000000000775000000000078300000000007840000000000780000000000078400200000000000000067500000000000052862500000000000000009999123100000010000000000000BRALLDACNOR3106
012024072302ALOS3       010ALLOS       ON      NM   R$  000000000220900000000022190000000002176000000000219500000000021910000000002190000000000219111905000000000002956000000000006489964700000000000000009999123100000010000000000000BRALOSACNOR5101
012024072302ALPA3       010ALPARGATAS  ON      N1   R$  000000000089900000000008990000000000867000000000088000000000008670000000000862000000000087900019000000000000002800000000000002464500000000000000009999123100000010000000000000BRALPAACNOR0231
012024072302ALPA4       010ALPARGATAS  PN      N1   R$  000000000088900000000008900000000000847000000000086000000000008530000000000853000000000085408622000000000003521400000000003030785900000000000000009999123100000010000000000000BRALPAACNPR7232
012024072302ALPK3       010ESTAPAR     ON      NM   R$  000000000035200000000003590000000000348000000000035500000000003510000000000351000000000035500347000000000000094100000000000033448100000000000000009999123100000010000000000000BRALPKACNOR9101
012024072302BPAC11      010BTGP BANCO  UNT     N2   R$  000000000320800000000032330000000003201000000000321500000000032200000000003215000000000322111814000000000006108600000000019644222800000000000000009999123100000010000000000000BRBPACUNT006119
012024072302BPAC3       010BTGP BANCO  ON      N2   R$  000000000156000000000015710000000001542000000000155500000000015530000000001550000000000159900024000000000000004700000000000007313100000000000000009999123100000010000000000000BRBPACACNOR7134
012024072302BPAC5       010BTGP BANCO  PNA     N2   R$  000000000082700000000008330000000000816000000000082300000000008200000000000819000000000082400014000000000000002300000000000001894700000000000000009999123100000010000000000000BRBPACACNPA0134
012024072302CRFB3       010CARREFOUR BRON      NM   R$  000000000108800000000010980000000001023000000000104100000000010340000000001033000000000103822200000000000015316800000000015944935800000000000000009999123100000010000000000000BRCRFBACNOR2116
012024072302CRPG5       010CRISTAL     PNA          R$  000000000297700000000030000000000002950000000000296300000000029500000000002950000000000301500019000000000000002700000000000008000300000000000000009999123100000010000000000000BRCRPGACNPA3119
012024072302CSAN3       010COSAN       ON      NM   R$  000000000140000000000014060000000001367000000000137600000000013690000000001368000000000137014014000000000005348900000000007364331900000000000000009999123100000010000000000000BRCSANACNOR6126
012024072302GRND3       010GRENDENE    ON      NM   R$  000000000060900000000006090000000000593000000000059700000000005930000000000593000000000059701325000000000000491400000000000293637900000000000000009999123100000010000000000000BRGRNDACNOR3174
012024072302GUAR3       010GUARARAPES  ON      NM   R$  000000000072800000000007360000000000718000000000072700000000007220000000000721000000000072801893000000000000792600000000000576622900000000000000009999123100000010000000000000BRGUARACNOR4173
012024072302HAGA3       010HAGA S/A    ON           R$  000000000027800000000002920000000000264000000000027000000000002680000000000266000000000026800049000000000000025000000000000006769000000000000000009999123100000010000000000000BRHAGAACNOR7103
012024072302HAGA4       010HAGA S/A    PN           R$  000000000011500000000001180000000000115000000000011500000000001180000000000116000000000011900007000000000000002100000000000000243300000000000000009999123100000010000000000000BRHAGAACNPR4103
012024072302HAPV3       010HAPVIDA     ON      NM   R$  000000000039400000000003980000000000387000000000039200000000003920000000000392000000000039319498000000000043416900000000017030824500000000000000009999123100000010000000000000BRHAPVACNOR4114
012024072302HBOR3       010HELBOR      ON      NM   R$  000000000023600000000002360000000000230000000000023300000000002300000000000230000000000023100346000000000000249700000000000058242800000000000000009999123100000010000000000000BRHBORACNOR3118
012024072302HBRE3       010HBR REALTY  ON      NM   R$  000000000057200000000005790000000000567000000000057300000000005690000000000569000000000057000829000000000000302000000000000173137600000000000000009999123100000010000000000000BRHBREACNOR4100
012024072302HBSA3       010HIDROVIAS   ON      NM   R$  000000000037700000000003790000000000372000000000037400000000003760000000000375000000000037603727000000000005127700000000001919277200000000000000009999123100000010000000000000BRHBSAACNOR0100
012024072302JSLG3       010JSL         ON      NM   R$  000000000098900000000009930000000000964000000000097700000000009700000000000969000000000097000960000000000000220100000000000215211600000000000000009999123100000010000000000000BRJSLGACNOR2121
012024072302COCE5       010COELCE      PNA          R$  000000000307600000000031480000000003028000000000305400000000030430000000003042000000000314000030000000000000004300000000000013132800000000000000009999123100000010000000000000BRCOCEACNPA3147
012024072302COGN3       010COGNA ON    ON      NM   R$  000000000016800000000001690000000000163000000000016500000000001640000000000163000000000016413421000000000027755100000000004600905000000000000000009999123100000010000000000000BRCOGNACNOR2104
012024072302ELET6       010ELETROBRAS  PNB     N1   R$  000000000420900000000042100000000004136000000000415800000000041630000000004162000000000416305049000000000000972300000000004043491600000000000000009999123100000010000000000000BRELETACNPB7077
012024072302JALL3       010JALLESMACHADON      NM   R$  000000000073200000000007320000000000711000000000071600000000007110000000000710000000000071301647000000000000640400000000000458691100000000000000009999123100000010000000000000BRJALLACNOR0105
012024072302MNPR3       010MINUPAR     ON           R$  000000000124900000000013600000000001249000000000131600000000013490000000001304000000000136500060000000000000015000000000000019746300000000000000009999123100000010000000000000BRMNPRACNOR5122
012024072302MOVI3       010MOVIDA      ON      NM   R$  000000000062200000000006370000000000612000000000062400000000006120000000000612000000000061305162000000000003174800000000001983317100000000000000009999123100000010000000000000BRMOVIACNOR0122
012024072302MRFG3       010MARFRIG     ON      NM   R$  000000000112700000000011300000000001096000000000110700000000011040000000001104000000000110508780000000000002910400000000003224261600000000000000009999123100000010000000000000BRMRFGACNOR0116
012024072302CGRA3       010GRAZZIOTIN  ON           R$  000000000257800000000025780000000002550000000000256400000000025500000000002508000000000256900002000000000000000200000000000000512800000000000000009999123100000010000000000000BRCGRAACNOR2083
012024072302CGRA4       010GRAZZIOTIN  PN           R$  000000000258800000000025880000000002566000000000257700000000025660000000002565000000000258900006000000000000000600000000000001546300000000000000009999123100000010000000000000BRCGRAACNPR9083
012024072302CIEL3       010CIELO       ON      NM   R$  000000000057500000000005750000000000574000000000057400000000005750000000000574000000000057507567000000000007810500000000004488683300000000000000009999123100000010000000000000BRCIELACNOR3157
012024072302CLSA3       010CLEARSALE   ON      NM   R$  000000000082400000000008290000000000801000000000081600000000008290000000000826000000000082903521000000000001200200000000000979921100000000000000009999123100000010000000000000BRCLSAACNOR0100
012024072302CLSC3       010CELESC      ON      N2   R$  000000000700100000000070010000000007001000000000700100000000070010000000006810000000000719800001000000000000000500000000000003500500000000000000009999123100000010000000000000BRCLSCACNOR6152
012024072302CLSC4       010CELESC      PN      N2   R$  000000000762800000000076730000000007618000000000763900000000076690000000007590000000000774800009000000000000001700000000000012986800000000000000009999123100000010000000000000BRCLSCACNPR3131
012024072302CMIG3       010CEMIG       ON      N1   R$  000000000129600000000013190000000001284000000000129600000000012950000000001284000000000129500415000000000000095700000000000124071500000000000000009999123100000010000000000000BRCMIGACNOR6242
012024072302CMIG4       010CEMIG       PN      N1   R$  000000000108100000000010850000000001064000000000107400000000010680000000001067000000000106815999000000000008200600000000008809320800000000000000009999123100000010000000000000BRCMIGACNPR3243
012024072302CMIN3       010CSNMINERACAOON      N2   R$  000000000051400000000005150000000000492000000000050000000000004950000000000495000000000049613658000000000014815700000000007420374800000000000000009999123100000010000000000000BRCMINACNOR2111
012024072302EALT4       010ACO ALTONA  PN           R$  000000000115500000000011550000000001143000000000114600000000011500000000001139000000000115000024000000000000006300000000000007221600000000000000009999123100000010000000000000BREALTACNPR1138
012024072302ECOR3       010ECORODOVIAS ON      NM   R$  000000000070700000000007160000000000695000000000070100000000006970000000000696000000000069704722000000000002176300000000001527624600000000000000009999123100000010000000000000BRECORACNOR8120
012024072302EGIE3       010ENGIE BRASILON      NM   R$  000000000456900000000045840000000004543000000000456100000000045510000000004550000000000455305130000000000000857900000000003913046800000000000000009999123100000010000000000000BREGIEACNOR9126
012024072302EKTR4       010ELEKTRO     PN           R$  000000000395500000000043000000000003955000000000411700000000042300000000004201000000000429000050000000000000010300000000000042408700000000000000009999123100000010000000000000BREKTRACNPR7163
012024072302ELET3       010ELETROBRAS  ON      N1   R$  000000000378700000000037950000000003695000000000372100000000037250000000003725000000000372719830000000000006810800000000025348240200000000000000009999123100000010000000000000BRELETACNOR6160
012024072302FIEI3       010FICA        ON           R$  000000000120000000000012000000000001200000000000120000000000012000000000001000000000000130000002000000000000000700000000000000840000000000000000009999123100000010000000000000BRFIEIACNOR2100
012024072302FIQE3       010UNIFIQUE    ON      NM   R$  000000000034000000000003410000000000338000000000033900000000003390000000000338000000000033900706000000000000533800000000000181067400000000000000009999123100000010000000000000BRFIQEACNOR5107
012024072302FLRY3       010FLEURY      ON      NM   R$  000000000155100000000015570000000001539000000000154600000000015470000000001543000000000154707208000000000001581600000000002446252800000000000000009999123100000010000000000000BRFLRYACNOR5138
012024072302FRAS3       010FRAS-LE     ON  EJ  N1   R$  000000000202200000000020220000000001990000000000199900000000019900000000001990000000000199501703000000000000528200000000001056301500000000000000009999123100000010000000000000BRFRASACNOR0160
012024072302FRIO3       010METALFRIO   ON      NM   R$  000000001800100000000180010000000018001000000001817500000000180010000000018000000000002399900002000000000000000200000000000003635100000000000000009999123100000010000000000000BRFRIOACNOR2111
012024072302GEPA3       010GER PARANAP ON           R$  000000000260400000000026040000000002604000000000260400000000026040000000002551000000000260400001000000000000000100000000000000260400000000000000009999123100000010000000000000BRGEPAACNOR2153
012024072302GEPA4       010GER PARANAP PN           R$  000000000258000000000025900000000002580000000000258100000000025900000000002600000000000264800005000000000000001000000000000002581000000000000000009999123100000010000000000000BRGEPAACNPR9160
012024072302GFSA3       010GAFISA      ON      NM   R$  000000000034000000000003440000000000335000000000033700000000003390000000000338000000000033902421000000000002511300000000000848336700000000000000009999123100000010000000000000BRGFSAACNOR3124
012024072302GGBR3       010GERDAU      ON      N1   R$  000000000165000000000016520000000001591000000000160700000000016030000000001596000000000160900287000000000000040400000000000064934900000000000000009999123100000010000000000000BRGGBRACNOR1192
012024072302GGBR4       010GERDAU      PN      N1   R$  000000000187900000000018790000000001794000000000181400000000018040000000001803000000000180424833000000000019559500000000035492539000000000000000009999123100000010000000000000BRGGBRACNPR8192
012024072302ITUB3       010ITAUUNIBANCOON      N1   R$  000000000292500000000029500000000002922000000000293300000000029240000000002923000000000293401055000000000000225800000000000662338600000000000000009999123100000010000000000000BRITUBACNOR4338
012024072302ITUB4       010ITAUUNIBANCOPN      N1   R$  000000000342100000000034400000000003410000000000342300000000034190000000003419000000000342021511000000000016920900000000057920792100000000000000009999123100000010000000000000BRITUBACNPR1338
012024072302RENT3       010LOCALIZA    ON      NM   R$  000000000428000000000043420000000004230000000000428900000000043380000000004336000000000434032512000000000013656800000000058582002000000000000000009999123100000010000000000000BRRENTACNOR4196
012024072302SYNE3       010SYN PROP TECON      NM   R$  000000000102800000000010400000000001023000000000103000000000010310000000001023000000000103100525000000000000169800000000000174955800000000000000009999123100000010000000000000BRSYNEACNOR2102
012024072302CXSE3       010CAIXA SEGURION      NM   R$  000000000147500000000014780000000001441000000000145200000000014410000000001441000000000144308262000000000002950800000000004286625000000000000000009999123100000010000000000000BRCXSEACNOR7106
012024072302MATD3       010MATER DEI   ON      NM   R$  000000000045800000000004660000000000454000000000046000000000004580000000000458000000000046101866000000000001752500000000000806209100000000000000009999123100000010000000000000BRMATDACNOR4104
012024072302MGEL4       010MANGELS INDLPN           R$  000000000131300000000013180000000001311000000000131400000000013170000000001317000000000135700009000000000000001000000000000001314800000000000000009999123100000010000000000000BRMGELACNPR3147
012024072302MGLU3       010MAGAZ LUIZA ON      NM   R$  000000000122400000000012470000000001215000000000123000000000012180000000001217000000000121818000000000000018691900000000022997785700000000000000009999123100000010000000000000BRMGLUACNOR2124
012024072302RSUL4       010RIOSULENSE  PN           R$  000000000643200000000065410000000006350000000000638600000000063500000000006320000000000650000034000000000000003700000000000023628200000000000000009999123100000010000000000000BRRSULACNPR3114
012024072302DASA3       010DASA        ON      NM   R$  000000000035300000000003530000000000330000000000033800000000003340000000000334000000000033501603000000000000772400000000000261182600000000000000009999123100000010000000000000BRDASAACNOR1122
012024072302DESK3       010DESKTOP     ON      NM   R$  000000000157400000000016200000000001550000000000157600000000015530000000001550000000000155500619000000000000302200000000000476386900000000000000009999123100000010000000000000BRDESKACNOR2104
012024072302DEXP3       010DEXXOS PAR  ON      N1   R$  000000000103700000000010400000000001016000000000102800000000010230000000001019000000000102300189000000000000030800000000000031662600000000000000009999123100000010000000000000BRDEXPACNOR1105
012024072302DEXP4       010DEXXOS PAR  PN      N1   R$  000000000102500000000010250000000001012000000000101500000000010210000000001015000000000102100006000000000000001500000000000001523900000000000000009999123100000010000000000000BRDEXPACNPR8105
012024072302RCSL3       010RECRUSUL    ON           R$  000000000028800000000002970000000000278000000000028700000000002820000000000281000000000028200518000000000000300400000000000086475100000000000000009999123100000010000000000000BRRCSLACNOR4134
012024072302RCSL4       010RECRUSUL    PN           R$  000000000010700000000001070000000000102000000000010400000000001030000000000102000000000010300527000000000000264700000000000027687400000000000000009999123100000010000000000000BRRCSLACNPR1134
012024072302RDNI3       010RNI         ON      NM   R$  000000000030700000000003150000000000305000000000030500000000003050000000000305000000000030800039000000000000020800000000000006363500000000000000009999123100000010000000000000BRRDNIACNOR9116
012024072302RDOR3       010REDE D OR   ON      NM   R$  000000000281600000000028180000000002747000000000277300000000027800000000002778000000000278514112000000000004145300000000011497944200000000000000009999123100000010000000000000BRRDORACNOR8113
012024072302SRNA3       010SERENA      ON      NM   R$  000000000088600000000008950000000000878000000000088700000000008850000000000884000000000088805743000000000001065500000000000945649200000000000000009999123100000010000000000000BRSRNAACNOR4100
012024072302STBP3       010SANTOS BRP  ON      NM   R$  000000000144800000000014500000000001407000000000142600000000014210000000001416000000000142212133000000000003455600000000004928336300000000000000009999123100000010000000000000BRSTBPACNOR3130
012024072302SUZB3       010SUZANO S.A. ON      NM   R$  000000000531400000000053890000000005291000000000532200000000053110000000005309000000000531121901000000000005380000000000028635656000000000000000009999123100000010000000000000BRSUZBACNOR0130
012024072302RADL3       010RAIADROGASILON      NM   R$  000000000259200000000026410000000002591000000000260900000000026090000000002607000000000260914988000000000005702500000000014877896300000000000000009999123100000010000000000000BRRADLACNOR0157
012024072302RAIL3       010RUMO S.A.   ON      NM   R$  000000000225600000000022770000000002225000000000224200000000022370000000002235000000000223819604000000000006033100000000013531638000000000000000009999123100000010000000000000BRRAILACNOR9105
012024072302RAIZ4       010RAIZEN      PN      N2   R$  000000000030800000000003100000000000303000000000030500000000003040000000000303000000000030415376000000000018002900000000005503834800000000000000009999123100000010000000000000BRRAIZACNPR6110
012024072302SMFT3       010SMART FIT   ON      NM   R$  000000000222300000000022280000000002184000000000220900000000022000000000002199000000000220009248000000000002133500000000004713868400000000000000009999123100000010000000000000BRSMFTACNOR1112
012024072302SMTO3       010SAO MARTINHOON      NM   R$  000000000312000000000031440000000003046000000000307900000000030780000000003076000000000308007826000000000001702500000000005243555900000000000000009999123100000010000000000000BRSMTOACNOR3126
012024072302CALI3       010CONST A LINDON           R$  000000000260000000000026000000000002600000000000260000000000026000000000001500000000000350000001000000000000000100000000000000260000000000000000009999123100000010000000000000BRCALIACNOR1137
012024072302CAMB3       010CAMBUCI     ON           R$  000000000113800000000011400000000001112000000000113000000000011250000000001117000000000112500075000000000000032700000000000036969600000000000000009999123100000010000000000000BRCAMBACNOR4130
012024072302CAML3       010CAMIL       ON      NM   R$  000000000090400000000009050000000000880000000000088900000000008800000000000879000000000088600837000000000000225200000000000200324700000000000000009999123100000010000000000000BRCAMLACNOR3128
012024072302CASH3       010MELIUZ      ON      NM   R$  000000000058000000000005890000000000572000000000058000000000005890000000000585000000000058901127000000000000691400000000000401662900000000000000009999123100000010000000000000BRCASHACNOR8106
012024072302CBAV3       010CBA         ON      NM   R$  000000000064600000000006480000000000563000000000059200000000005670000000000567000000000056815030000000000013068000000000007737289700000000000000009999123100000010000000000000BRCBAVACNOR5104
012024072302CCRO3       010CCR SA      ON      NM   R$  000000000125800000000012620000000001229000000000123900000000012300000000001229000000000123107914000000000003305600000000004096500000000000000000009999123100000010000000000000BRCCROACNOR2145
012024072302PSSA3       010PORTO SEGUROON      NM   R$  000000000304700000000030650000000003000000000000301900000000030200000000003019000000000302004569000000000001098700000000003317520900000000000000009999123100000010000000000000BRPSSAACNOR7155
012024072302PTBL3       010PORTOBELLO  ON      NM   R$  000000000050000000000005000000000000484000000000048700000000004840000000000483000000000048402226000000000000517100000000000251957200000000000000009999123100000010000000000000BRPTBLACNOR8132
012024072302PTNT3       010PETTENATI   ON           R$  000000000099400000000009940000000000994000000000099400000000009940000000000969000000000098900001000000000000000100000000000000099400000000000000009999123100000010000000000000BRPTNTACNOR6042
012024072302PTNT4       010PETTENATI   PN           R$  000000000068000000000006800000000000650000000000065900000000006500000000000642000000000067900018000000000000005100000000000003361100000000000000009999123100000010000000000000BRPTNTACNPR3047
012024072302QUAL3       010QUALICORP   ON      NM   R$  000000000016400000000001660000000000159000000000016100000000001590000000000159000000000016002590000000000003179400000000000513092100000000000000009999123100000010000000000000BRQUALACNOR6120
012024072302SEER3       010SER EDUCA   ON      NM   R$  000000000051700000000005180000000000502000000000051100000000005020000000000502000000000051201577000000000000322600000000000164881600000000000000009999123100000010000000000000BRSEERACNOR5119
012024072302SEQL3       010SEQUOIA LOG ON      NM   R$  000000000040900000000004100000000000396000000000040000000000003970000000000396000000000039700482000000000000327000000000000131068300000000000000009999123100000010000000000000BRSEQLACNOR2103
012024072302YDUQ3       010YDUQS PART  ON      NM   R$  000000000114100000000011410000000001100000000000111400000000011020000000001101000000000110208837000000000003126900000000003485398500000000000000009999123100000010000000000000BRYDUQACNOR3105
012024072302ZAMP3       010ZAMP S.A.   ON           R$  000000000035000000000003500000000000336000000000034100000000003360000000000336000000000033701160000000000000263800000000000090044600000000000000009999123100000010000000000000BRZAMPACNOR5100
012024072302PINE3       010PINE        ON      N2   R$  000000000056000000000005600000000000560000000000056000000000005600000000000539000000000059200001000000000000000100000000000000056000000000000000009999123100000010000000000000BRPINEACNOR1150
012024072302PINE4       010PINE        PN      N2   R$  000000000042100000000004230000000000415000000000041800000000004150000000000415000000000041800314000000000000094300000000000039482500000000000000009999123100000010000000000000BRPINEACNPR8150
012024072302PLAS3       010PLASCAR PARTON           R$  000000000052000000000005200000000000520000000000052000000000005200000000000521000000000059700002000000000000000400000000000000208000000000000000009999123100000010000000000000BRPLASACNOR2106
012024072302ITSA3       010ITAUSA      ON      N1   R$  000000000103200000000010390000000001027000000000103100000000010310000000001029000000000103100212000000000000063900000000000065925800000000000000009999123100000010000000000000BRITSAACNOR0441
012024072302ROMI3       010ROMI        ON      NM   R$  000000000110000000000011030000000001080000000000108900000000010800000000001080000000000108900702000000000000104900000000000114303600000000000000009999123100000010000000000000BRROMIACNOR8195
012024072302RPAD3       010ALFA HOLDINGON           R$  000000000090000000000009000000000000900000000000090000000000009000000000000900000000000094500001000000000000000600000000000000540000000000000000009999123100000010000000000000BRRPADACNOR1198
012024072302RRRP3       0103R PETROLEUMON      NM   R$  000000000270500000000027110000000002648000000000266600000000026680000000002667000000000266814278000000000004130400000000011011679300000000000000009999123100000010000000000000BRRRRPACNOR5103
012024072302TASA3       010TAURUS ARMASON      N2   R$  000000000121300000000012440000000001208000000000121600000000012120000000001212000000000121900064000000000000019800000000000024086100000000000000009999123100000010000000000000BRTASAACNOR7104
012024072302TASA4       010TAURUS ARMASPN      N2   R$  000000000123300000000012330000000001198000000000121000000000011980000000001197000000000120201339000000000000227000000000000274785800000000000000009999123100000010000000000000BRTASAACNPR4104
012024072302TCSA3       010TECNISA     ON      NM   R$  000000000023000000000002320000000000222000000000022700000000002250000000000225000000000022800152000000000000101500000000000023048700000000000000009999123100000010000000000000BRTCSAACNOR3112
012024072302TECN3       010TECHNOS     ON      NM   R$  000000000060300000000006250000000000602000000000061500000000006100000000000609000000000061000651000000000000165300000000000101745900000000000000009999123100000010000000000000BRTECNACNOR6109
012024072302TELB3       010TELEBRAS    ON           R$  000000000136000000000013650000000001342000000000135600000000013500000000001345000000000135400014000000000000002000000000000002712000000000000000009999123100000010000000000000BRTELBACNOR2140
012024072302TELB4       010TELEBRAS    PN           R$  000000000093500000000009350000000000929000000000093400000000009300000000000922000000000093500006000000000000003600000000000003364200000000000000009999123100000010000000000000BRTELBACNPR9140
012024072302TEND3       010TENDA       ON      NM   R$  000000000123400000000012700000000001228000000000125300000000012630000000001260000000000126305522000000000001465200000000001836772900000000000000009999123100000010000000000000BRTENDACNOR4111
012024072302TFCO4       010TRACK FIELD PN      N2   R$  000000000113000000000011300000000001109000000000111800000000011150000000001114000000000112000553000000000000116700000000000130515400000000000000009999123100000010000000000000BRTFCOACNPR8114
012024072302TGMA3       010TEGMA       ON      NM   R$  000000000252400000000025240000000002475000000000248900000000024800000000002480000000000249100703000000000000120500000000000299961000000000000000009999123100000010000000000000BRTGMAACNOR7144
012024072302TIMS3       010TIM         ON      NM   R$  000000000169200000000016960000000001660000000000166900000000016600000000001659000000000166309022000000000002621500000000004376647800000000000000009999123100000010000000000000BRTIMSACNOR5117
012024072302TKNO4       010TEKNO       PN           R$  000000000840000000000084000000000008400000000000840000000000084000000000008400000000001050000001000000000000000100000000000000840000000000000000009999123100000010000000000000BRTKNOACNPR5075
012024072302TOTS3       010TOTVS       ON      NM   R$  000000000285900000000028620000000002803000000000281500000000028130000000002811000000000281510046000000000001864800000000005250689700000000000000009999123100000010000000000000BRTOTSACNOR8144
012024072302TPIS3       010TRIUNFO PARTON      NM   R$  000000000038100000000003850000000000379000000000038100000000003810000000000381000000000038400039000000000000021000000000000008017900000000000000009999123100000010000000000000BRTPISACNOR8118
012024072302TRAD3       010TC          ON  EG  NM   R$  000000000039700000000004150000000000372000000000039500000000004000000000000380000000000040000281000000000000085400000000000033769600000000000000009999123100000010000000000000BRTRADACNOR3102
012024072302TRIS3       010TRISUL      ON      NM   R$  000000000051500000000005150000000000508000000000051100000000005110000000000511000000000051200805000000000000336900000000000172321000000000000000009999123100000010000000000000BRTRISACNOR4118
012024072302VBBR3       010VIBRA       ON      NM   R$  000000000233000000000023310000000002287000000000229400000000022910000000002291000000000229415728000000000007362600000000016894572800000000000000009999123100000010000000000000BRVBBRACNOR1108
012024072302BRKM5       010BRASKEM     PNA     N1   R$  000000000188700000000018870000000001812000000000182700000000018180000000001818000000000182406179000000000001617500000000002956184600000000000000009999123100000010000000000000BRBRKMACNPA4121
012024072302CSRN3       010COSERN      ON           R$  000000000211500000000021940000000002075000000000216000000000021000000000002100000000000219200016000000000000002700000000000005832100000000000000009999123100000010000000000000BRCSRNACNOR0193
012024072302CSRN5       010COSERN      PNA          R$  000000000228000000000022800000000002150000000000224500000000022500000000000000000000000224900006000000000000000900000000000002020900000000000000009999123100000010000000000000BRCSRNACNPA3193
012024072302CSRN6       010COSERN      PNB          R$  000000000235000000000023500000000002106000000000232400000000021060000000002105000000000230000007000000000000001200000000000002789500000000000000009999123100000010000000000000BRCSRNACNPB1194
012024072302CSUD3       010CSU DIGITAL ON      NM   R$  000000000195000000000019610000000001900000000000193200000000019500000000001950000000000195500230000000000000043700000000000084439500000000000000009999123100000010000000000000BRCSUDACNOR5110
012024072302CURY3       010CURY S/A    ON      NM   R$  000000000218300000000021950000000002157000000000217200000000021700000000002168000000000217004202000000000000739900000000001607525000000000000000009999123100000010000000000000BRCURYACNOR3109
012024072302CVCB3       010CVC BRASIL  ON      NM   R$  000000000018700000000001880000000000183000000000018400000000001840000000000184000000000018505867000000000010364000000000001916857100000000000000009999123100000010000000000000BRCVCBACNOR1116
012024072302ELMD3       010ELETROMIDIA ON      NM   R$  000000000187300000000018740000000001813000000000183100000000018200000000001810000000000182000408000000000000048700000000000089207300000000000000009999123100000010000000000000BRELMDACNOR3101
012024072302LUPA3       010LUPATECH    ON      NM   R$  000000000018900000000001890000000000176000000000018100000000001800000000000178000000000018000189000000000000205800000000000037283700000000000000009999123100000010000000000000BRLUPAACNOR8112
012024072302LVTC3       010WDC NETWORKSON      NM   R$  000000000035300000000003550000000000345000000000034700000000003450000000000345000000000035000076000000000000043400000000000015060600000000000000009999123100000010000000000000BRLVTCACNOR4102
012024072302LWSA3       010LWSA        ON      NM   R$  000000000044700000000004490000000000437000000000044000000000004380000000000437000000000043813640000000000006516100000000002868796700000000000000009999123100000010000000000000BRLWSAACNOR8103
012024072302PDGR3       010PDG REALT   ON      NM   R$  000000000001800000000000190000000000017000000000001800000000000180000000000018000000000001900436000000000002362500000000000043007700000000000000009999123100000010000000000000BRPDGRACNOR8118
012024072302PDTC3       010PADTEC      ON      NM   R$  000000000018500000000001960000000000184000000000019100000000001920000000000190000000000019300089000000000000031400000000000006011800000000000000009999123100000010000000000000BRPDTCACNOR3101
012024072302PEAB3       010PAR AL BAHIAON           R$  000000000435000000000043500000000004300000000000433300000000043000000000004300000000000445000002000000000000000300000000000001300000000000000000009999123100000010000000000000BRPEABACNOR3133
012024072302PETR3       010PETROBRAS   ON      N2   R$  000000000410100000000041080000000004049000000000406900000000040490000000004049000000000406818149000000000007938000000000032302241800000000000000009999123100000010000000000000BRPETRACNOR9205
012024072302PETR4       010PETROBRAS   PN      N2   R$  000000000379200000000038000000000003743000000000375800000000037430000000003743000000000374547264000000000025284700000000095025969900000000000000009999123100000010000000000000BRPETRACNPR6213
012024072302ALUP11      010ALUPAR      UNT     N2   R$  000000000314300000000031520000000003110000000000312300000000031220000000003116000000000312304058000000000000659100000000002058392200000000000000009999123100000010000000000000BRALUPCDAM15119
012024072302ALUP3       010ALUPAR      ON      N2   R$  000000000107100000000010930000000001069000000000108100000000010930000000001070000000000109300056000000000000006900000000000007465100000000000000009999123100000010000000000000BRALUPACNOR8119
012024072302BEEF3       010MINERVA     ON      NM   R$  000000000065200000000006530000000000630000000000063600000000006320000000000631000000000063206901000000000004776500000000003041261700000000000000009999123100000010000000000000BRBEEFACNOR6116
012024072302BRBI11      010BR PARTNERS UNT     N2   R$  000000000145100000000014640000000001408000000000142900000000014120000000001411000000000141201357000000000000243300000000000347857500000000000000009999123100000010000000000000BRBRBICDAM10109
012024072302BRFS3       010BRF SA      ON      NM   R$  000000000211100000000021280000000002084000000000209700000000020940000000002091000000000209518879000000000005004500000000010498032900000000000000009999123100000010000000000000BRBRFSACNOR8122
012024072302BRIT3       010BRISANET    ON      NM   R$  000000000043600000000004440000000000425000000000043300000000004250000000000425000000000043000381000000000000296400000000000128598500000000000000009999123100000010000000000000BRBRITACNOR0103
012024072302BRKM3       010BRASKEM     ON      N1   R$  000000000183600000000018520000000001827000000000183600000000018490000000001827000000000184900028000000000000004900000000000008998400000000000000009999123100000010000000000000BRBRKMACNOR1119
012024072302BAUH4       010EXCELSIOR   PN           R$  000000000795000000000079500000000007950000000000795000000000079500000000007751000000000795000002000000000000000200000000000001590000000000000000009999123100000010000000000000BRBAUHACNPR3118
012024072302BAZA3       010AMAZONIA    ON           R$  000000000926400000000092770000000009200000000000922000000000092000000000009180000000000930000015000000000000001500000000000013830100000000000000009999123100000010000000000000BRBAZAACNOR0179
012024072302BBAS3       010BRASIL      ON      NM   R$  000000000271500000000027220000000002693000000000270700000000026980000000002698000000000269927854000000000010978000000000029722152200000000000000009999123100000010000000000000BRBBASACNOR3324
012024072302BLAU3       010BLAU        ON      NM   R$  000000000117400000000011780000000001131000000000115200000000011310000000001131000000000114400583000000000000108300000000000124835600000000000000009999123100000010000000000000BRBLAUACNOR8114
012024072302BMEB4       010MERCANTIL   PN      N1   R$  000000000306400000000031090000000003064000000000308100000000030650000000003064000000000307000014000000000000001600000000000004930100000000000000009999123100000010000000000000BRBMEBACNPR5210
012024072302BMGB4       010BANCO BMG   PN  EJ  N1   R$  000000000036400000000003640000000000352000000000035600000000003550000000000354000000000035500971000000000000433400000000000154298700000000000000009999123100000010000000000000BRBMGBACNPR0110
012024072302BMKS3       010BIC MONARK  ON           R$  000000003349000000000335000000000032050000000003275100000000325000000000032400000000003250000030000000000000000157000000000005142010000000000000009999123100000010000000000000BRBMKSACNOR9166
012024072302BMOB3       010BEMOBI TECH ON      NM   R$  000000000147800000000014850000000001445000000000145700000000014450000000001445000000000145500652000000000000119800000000000174623800000000000000009999123100000010000000000000BRBMOBACNOR7103
012024072302BOBR4       010BOMBRIL     PN           R$  000000000020300000000002060000000000201000000000020200000000002040000000000202000000000020300023000000000000004200000000000000849200000000000000009999123100000010000000000000BRBOBRACNPR3128
012024072302SHOW3       010TIME FOR FUNON      NM   R$  000000000015900000000001600000000000155000000000015700000000001560000000000155000000000015600246000000000000101200000000000015943600000000000000009999123100000010000000000000BRSHOWACNOR7105
012024072302SHUL4       010SCHULZ      PN           R$  000000000064600000000006500000000000646000000000064700000000006490000000000646000000000064900353000000000000215000000000000139313300000000000000009999123100000010000000000000BRSHULACNPR4156
012024072302SIMH3       010SIMPAR      ON      NM   R$  000000000063000000000006390000000000610000000000062100000000006120000000000611000000000061204159000000000002503900000000001556555800000000000000009999123100000010000000000000BRSIMHACNOR0107
012024072302SLCE3       010SLC AGRICOLAON      NM   R$  000000000189300000000018990000000001869000000000187800000000018700000000001870000000000187105985000000000001741700000000003272450900000000000000009999123100000010000000000000BRSLCEACNOR2125
012024072302SBFG3       010GRUPO SBF   ON      NM   R$  000000000137300000000013730000000001342000000000135800000000013640000000001356000000000136503510000000000000740500000000001005938100000000000000009999123100000010000000000000BRSBFGACNOR1103
012024072302SBSP3       010SABESP      ON      NM   R$  000000000866100000000088640000000008452000000000878700000000088640000000008842000000000886435102000000000023477300000000206305526700000000000000009999123100000010000000000000BRSBSPACNOR5161
012024072302EMAE4       010EMAE        PN           R$  000000000470000000000047480000000004612000000000467300000000046120000000004585000000000469000037000000000000004300000000000020096000000000000000009999123100000010000000000000BREMAEACNPR1125
012024072302EMBR3       010EMBRAER     ON      NM   R$  000000000388800000000041930000000003877000000000407600000000041870000000004186000000000418739622000000000014713500000000059985656700000000000000009999123100000010000000000000BREMBRACNOR4191
012024072302IFCM3       010INFRACOMM   ON      NM   R$  000000000003600000000000370000000000035000000000003600000000000360000000000035000000000003602038000000000004277800000000000154336000000000000000009999123100000010000000000000BRIFCMACNOR8101
012024072302IGTI11      010IGUATEMI S.AUNT     N1   R$  000000000218000000000021950000000002139000000000216000000000021430000000002143000000000214808729000000000001868500000000004036971500000000000000009999123100000010000000000000BRIGTICDAM16106
012024072302IGTI3       010IGUATEMI S.AON      N1   R$  000000000027300000000002730000000000264000000000026600000000002640000000000264000000000026600241000000000000075500000000000020144100000000000000009999123100000010000000000000BRIGTIACNOR8106
012024072302IGTI4       010IGUATEMI S.APN      N1   R$  000000000095700000000009570000000000957000000000095700000000009570000000000937000000000108500001000000000000000100000000000000095700000000000000009999123100000010000000000000BRIGTIACNPR5106
012024072302AZUL4       010AZUL        PN      N2   R$  000000000082800000000008330000000000804000000000081700000000008110000000000811000000000081210455000000000010852000000000008869616400000000000000009999123100000010000000000000BRAZULACNPR4102
012024072302KEPL3       010KEPLER WEBERON      NM   R$  000000000105700000000010610000000001039000000000104500000000010390000000001038000000000103901858000000000000695500000000000726909400000000000000009999123100000010000000000000BRKEPLACNOR1063
012024072302KLBN11      010KLABIN S/A  UNT     N2   R$  000000000219500000000022150000000002150000000000218400000000021720000000002171000000000217214771000000000004504700000000009840257000000000000000009999123100000010000000000000BRKLBNCDAM18142
012024072302KLBN3       010KLABIN S/A  ON      N2   R$  000000000043800000000004440000000000432000000000043800000000004320000000000432000000000043300685000000000000313100000000000137412800000000000000009999123100000010000000000000BRKLBNACNOR2170
012024072302KLBN4       010KLABIN S/A  PN      N2   R$  000000000043800000000004420000000000430000000000043700000000004300000000000430000000000043101871000000000001077100000000000470884300000000000000009999123100000010000000000000BRKLBNACNPR9170
012024072302MYPK3       010IOCHP-MAXIONON      NM   R$  000000000119300000000012340000000001192000000000120600000000011980000000001197000000000119803242000000000000861600000000001039093400000000000000009999123100000010000000000000BRMYPKACNOR7155
012024072302BSLI3       010BRB BANCO   ON           R$  000000000100100000000010010000000000938000000000097100000000009790000000000923000000000100100004000000000000000400000000000000388600000000000000009999123100000010000000000000BRBSLIACNOR5194
012024072302BSLI4       010BRB BANCO   PN           R$  000000000101200000000010120000000001012000000000101200000000010120000000000981000000000104500001000000000000000100000000000000101200000000000000009999123100000010000000000000BRBSLIACNPR2194
012024072302NEOE3       010NEOENERGIA  ON      NM   R$  000000000186100000000018690000000001841000000000185000000000018530000000001848000000000185304391000000000000773300000000001430670300000000000000009999123100000010000000000000BRNEOEACNOR3123
012024072302NGRD3       010NEOGRID     ON      NM   R$  000000000010900000000001150000000000106000000000011000000000001090000000000109000000000011201234000000000001134200000000000125061400000000000000009999123100000010000000000000BRNGRDACNOR3104
012024072302NINJ3       010GETNINJAS   ON      NM   R$  000000000046100000000004740000000000457000000000046400000000004650000000000457000000000046900053000000000000011000000000000005112200000000000000009999123100000010000000000000BRNINJACNOR5101
012024072302NORD3       010NORDON MET  ON           R$  000000000055000000000005500000000000550000000000055000000000005500000000000550000000000061900001000000000000000100000000000000055000000000000000009999123100000010000000000000BRNORDACNOR7135
012024072302NTCO3       010GRUPO NATURAON      NM   R$  000000000149300000000015200000000001491000000000150100000000014990000000001498000000000149915326000000000005309500000000007973697500000000000000009999123100000010000000000000BRNTCOACNOR5106
012024072302PETZ3       010PETZ        ON      NM   R$  000000000038800000000003890000000000375000000000037900000000003750000000000375000000000037607124000000000006740700000000002559916000000000000000009999123100000010000000000000BRPETZACNOR2110
012024072302AALR3       010ALLIAR      ON      NM   R$  000000000117200000000011870000000001086000000000112200000000011040000000001102000000000110400558000000000000084900000000000095259200000000000000009999123100000010000000000000BRAALRACNOR6102
012024072302ALUP4       010ALUPAR      PN      N2   R$  000000000103400000000010350000000001010000000000101600000000010100000000001010000000000101900121000000000000023200000000000023574600000000000000009999123100000010000000000000BRALUPACNPR5119
012024072302AMAR3       010LOJAS MARISAON      NM   R$  000000000014300000000001460000000000142000000000014300000000001440000000000144000000000014600358000000000000372900000000000053515000000000000000009999123100000010000000000000BRAMARACNOR4115
012024072302AMBP3       010AMBIPAR     ON      NM   R$  000000000330000000000033070000000003059000000000320900000000033070000000003300000000000330715313000000000006490700000000020834257700000000000000009999123100000010000000000000BRAMBPACNOR6103
012024072302ANIM3       010ANIMA       ON  ATZ NM   R$  000000000035700000000003610000000000344000000000034900000000003450000000000345000000000034607892000000000004127600000000001441331600000000000000009999123100000010000000000000BRANIMACNOR6108
012024072302ARML3       010ARMAC       ON      NM   R$  000000000099300000000009930000000000965000000000097700000000009750000000000975000000000097701710000000000000351100000000000343356700000000000000009999123100000010000000000000BRARMLACNOR1112
012024072302ABCB4       010ABC BRASIL  PN      N2   R$  000000000231700000000023650000000002316000000000233700000000023310000000002330000000000233103376000000000000636300000000001487528700000000000000009999123100000010000000000000BRABCBACNPR4146
012024072302ABEV3       010AMBEV S/A   ON           R$  000000000118100000000011830000000001174000000000117800000000011780000000001178000000000117925055000000000020161400000000023751636900000000000000009999123100000010000000000000BRABEVACNOR1128
012024072302BBDC3       010BRADESCO    ON      N1   R$  000000000115200000000011540000000001138000000000114300000000011390000000001139000000000114109361000000000005098300000000005830861000000000000000009999123100000010000000000000BRBBDCACNOR1772
012024072302BBDC4       010BRADESCO    PN      N1   R$  000000000126100000000012630000000001251000000000125800000000012540000000001254000000000125538089000000000022575300000000028401618900000000000000009999123100000010000000000000BRBBDCACNPR8772
012024072302CPFE3       010CPFL ENERGIAON      NM   R$  000000000330600000000033120000000003264000000000328400000000032800000000003280000000000328608388000000000002281800000000007493964000000000000000009999123100000010000000000000BRCPFEACNOR0137
012024072302CPLE3       010COPEL       ON      N2   R$  000000000091500000000009150000000000900000000000090400000000009030000000000902000000000090503516000000000005150000000000004658009500000000000000009999123100000010000000000000BRCPLEACNOR8149
012024072302CPLE6       010COPEL       PNB     N2   R$  000000000103000000000010320000000001015000000000102100000000010190000000001018000000000101920858000000000015600300000000015929671400000000000000009999123100000010000000000000BRCPLEACNPB9146
012024072302ARZZ3       010AREZZO CO   ON      NM   R$  000000000531800000000053260000000005255000000000527600000000052610000000005260000000000526505239000000000000891500000000004704215500000000000000009999123100000010000000000000BRARZZACNOR3147
012024072302BBSE3       010BBSEGURIDADEON      NM   R$  000000000344300000000034620000000003406000000000342800000000034160000000003416000000000341915076000000000003836500000000013152242500000000000000009999123100000010000000000000BRBBSEACNOR5124
012024072302BPAN4       010BANCO PAN   PN      N1   R$  000000000087700000000009010000000000875000000000089100000000008940000000000893000000000089403178000000000001099400000000000980636500000000000000009999123100000010000000000000BRBPANACNPR1115
012024072302GGPS3       010GPS         ON      NM   R$  000000000170800000000017490000000001703000000000171400000000017080000000001705000000000171604141000000000001157100000000001983589800000000000000009999123100000010000000000000BRGGPSACNOR9103
012024072302GMAT3       010GRUPO MATEUSON      NM   R$  000000000072300000000007240000000000710000000000071400000000007120000000000712000000000071703429000000000001440400000000001029721000000000000000009999123100000010000000000000BRGMATACNOR7102
012024072302GOAU3       010GERDAU MET  ON      N1   R$  000000000111000000000011100000000001070000000000108200000000010820000000001072000000000108300256000000000000051000000000000055196500000000000000009999123100000010000000000000BRGOAUACNOR1267
012024072302GOAU4       010GERDAU MET  PN      N1   R$  000000000110800000000011080000000001056000000000106700000000010570000000001057000000000105912395000000000007853600000000008387172100000000000000009999123100000010000000000000BRGOAUACNPR8268
012024072302JBSS3       010JBS         ON      NM   R$  000000000312000000000031390000000003042000000000307200000000030580000000003057000000000306115697000000000005295700000000016273351300000000000000009999123100000010000000000000BRJBSSACNOR8121
012024072302JHSF3       010JHSF PART   ON      NM   R$  000000000041200000000004120000000000405000000000040800000000004060000000000406000000000040703326000000000002794800000000001140960300000000000000009999123100000010000000000000BRJHSFACNOR2137
012024072302MRSA3B      010MRS LOGIST  ON      MB   R$  000000000270000000000027000000000002700000000000270000000000027000000000002650000000000299900002000000000000000700000000000001890000000000000000009999123100000010000000000000BRMRSAACNOR6125
012024072302MRVE3       010MRV         ON      NM   R$  000000000067800000000006790000000000665000000000066900000000006660000000000665000000000066709367000000000006312800000000004224982800000000000000009999123100000010000000000000BRMRVEACNOR2127
012024072302MTRE3       010MITRE REALTYON  ED  NM   R$  000000000040500000000004080000000000396000000000040100000000003960000000000395000000000039600854000000000000467500000000000187583800000000000000009999123100000010000000000000BRMTREACNOR6113
012024072302MTSA4       010METISA      PN           R$  000000000432400000000043390000000004276000000000431300000000043390000000004163000000000434000009000000000000001000000000000004313700000000000000009999123100000010000000000000BRMTSAACNPR9072
012024072302MULT3       010MULTIPLAN   ON      N2   R$  000000000254300000000025890000000002519000000000255300000000025260000000002522000000000253132879000000000007588800000000019378799700000000000000009999123100000010000000000000BRMULTACNOR5139
012024072302BEES3       010BANESTES    ON           R$  000000000090500000000009110000000000905000000000090700000000009100000000000907000000000091000052000000000000009500000000000008625800000000000000009999123100000010000000000000BRBEESACNOR9393
012024072302BEES4       010BANESTES    PN           R$  000000000097000000000009750000000000970000000000097200000000009750000000000971000000000097500013000000000000001600000000000001555300000000000000009999123100000010000000000000BRBEESACNPR6318
012024072302UGPA3       010ULTRAPAR    ON      NM   R$  000000000232500000000023380000000002269000000000228800000000022830000000002282000000000228317535000000000004563900000000010445060300000000000000009999123100000010000000000000BRUGPAACNOR8155
012024072302VLID3       010VALID       ON      NM   R$  000000000171800000000017520000000001714000000000173200000000017300000000001730000000000173502683000000000000458700000000000794684700000000000000009999123100000010000000000000BRVLIDACNOR5143
012024072302VSTE3       010VESTE       ON      NM   R$  000000000141900000000014190000000001375000000000138700000000013930000000001392000000000140500023000000000000003600000000000004993400000000000000009999123100000010000000000000BRVSTEACNOR5103
012024072302VTRU3       010VITRUEDUCA  ON      NM   R$  000000000139000000000013990000000001333000000000136300000000013330000000001333000000000135900207000000000000034500000000000047057300000000000000009999123100000010000000000000BRVTRUACNOR3100
012024072302VULC3       010VULCABRAS   ON      NM   R$  000000000156000000000015600000000001510000000000152500000000015100000000001510000000000152002069000000000000489100000000000746015400000000000000009999123100000010000000000000BRVULCACNOR2159
012024072302VVEO3       010VIVEO       ON      NM   R$  000000000025000000000002500000000000232000000000023800000000002320000000000232000000000023303248000000000001439500000000000343812700000000000000009999123100000010000000000000BRVVEOACNOR0104
012024072302BGIP3       010BANESE      ON           R$  000000000241500000000024150000000002415000000000241500000000024150000000002400000000000245000001000000000000000100000000000000241500000000000000009999123100000010000000000000BRBGIPACNOR1208
012024072302BGIP4       010BANESE      PN           R$  000000000222000000000022230000000002203000000000221600000000022030000000002205000000000224000007000000000000000700000000000001551300000000000000009999123100000010000000000000BRBGIPACNPR8208
012024072302BHIA3       010CASAS BAHIA ON      NM   R$  000000000048100000000004830000000000474000000000047800000000004770000000000477000000000047803260000000000004016700000000001920877300000000000000009999123100000010000000000000BRBHIAACNOR1102
012024072302WEGE3       010WEG         ON      NM   R$  000000000468000000000047370000000004680000000000471200000000047050000000004705000000000471016587000000000004935300000000023256796800000000000000009999123100000010000000000000BRWEGEACNOR0223
012024072302BIOM3       010BIOMM       ON      MA   R$  000000000121000000000012410000000001196000000000121500000000012010000000001201000000000120500354000000000000092600000000000112561700000000000000009999123100000010000000000000BRBIOMACNOR2112
012024072302BRSR3       010BANRISUL    ON      N1   R$  000000000123800000000012470000000001222000000000123500000000012460000000001234000000000124700016000000000000002600000000000003213400000000000000009999123100000010000000000000BRBRSRACNOR3188
012024072302BRSR6       010BANRISUL    PNB     N1   R$  000000000117000000000011750000000001164000000000116700000000011660000000001166000000000116902022000000000000565500000000000660343000000000000000009999123100000010000000000000BRBRSRACNPB4191
012024072302SANB4       010SANTANDER BRPN  EJ       R$  000000000150100000000015050000000001482000000000149300000000014840000000001483000000000148400316000000000000065100000000000097225200000000000000009999123100000010000000000000BRSANBACNPR5172
012024072302SAPR11      010SANEPAR     UNT     N2   R$  000000000264500000000026770000000002628000000000264500000000026380000000002638000000000263903485000000000000935900000000002476108000000000000000009999123100000010000000000000BRSAPRCDAM13118
012024072302SAPR3       010SANEPAR     ON      N2   R$  000000000051000000000005120000000000504000000000050600000000005070000000000505000000000050800319000000000000085300000000000043237000000000000000009999123100000010000000000000BRSAPRACNOR9159
012024072302SAPR4       010SANEPAR     PN      N2   R$  000000000054200000000005430000000000533000000000053700000000005330000000000533000000000053402259000000000001024500000000000550326700000000000000009999123100000010000000000000BRSAPRACNPR6159
012024072302UNIP3       010UNIPAR      ON           R$  000000000514000000000051400000000005010000000000504900000000050200000000005010000000000503300046000000000000007900000000000039890100000000000000009999123100000010000000000000BRUNIPACNOR7206
012024072302UNIP5       010UNIPAR      PNA          R$  000000000519000000000051900000000005187000000000518800000000051870000000005106000000000528300004000000000000000500000000000002594100000000000000009999123100000010000000000000BRUNIPACNPA0208
012024072302UNIP6       010UNIPAR      PNB          R$  000000000523100000000052550000000005145000000000518400000000051500000000005150000000000516601071000000000000168700000000000874658200000000000000009999123100000010000000000000BRUNIPACNPB8206
012024072302TRPL3       010TRAN PAULISTON      N1   R$  000000000319300000000032280000000003193000000000320200000000031930000000003171000000000319300017000000000000002300000000000007365700000000000000009999123100000010000000000000BRTRPLACNOR4185
012024072302TRPL4       010TRAN PAULISTPN      N1   R$  000000000247000000000024770000000002449000000000246100000000024590000000002458000000000245923234000000000006839100000000016832162700000000000000009999123100000010000000000000BRTRPLACNPR1185
012024072302USIM3       010USIMINAS    ON      N1   R$  000000000079200000000007970000000000762000000000077500000000007700000000000769000000000077000687000000000000365400000000000283250200000000000000009999123100000010000000000000BRUSIMACNOR3167
012024072302USIM5       010USIMINAS    PNA     N1   R$  000000000084900000000008530000000000821000000000083200000000008290000000000826000000000082915007000000000011073200000000009217109800000000000000009999123100000010000000000000BRUSIMACNPA6169
012024072302WEST3       010WESTWING    ON      NM   R$  000000000008700000000000890000000000085000000000008600000000000880000000000085000000000008800137000000000000060900000000000005291000000000000000009999123100000010000000000000BRWESTACNOR3100
012024072302WHRL3       010WHIRLPOOL   ON           R$  000000000044600000000004460000000000443000000000044300000000004430000000000443000000000045000008000000000000001500000000000000665800000000000000009999123100000010000000000000BRWHRLACNOR5128
012024072302WHRL4       010WHIRLPOOL   PN           R$  000000000045300000000004530000000000452000000000045200000000004520000000000452000000000045400007000000000000005900000000000002672400000000000000009999123100000010000000000000BRWHRLACNPR2128
012024072302WIZC3       010WIZ CO      ON      NM   R$  000000000060000000000006000000000000583000000000058800000000005830000000000583000000000058401200000000000000210000000000000123526000000000000000009999123100000010000000000000BRWIZCACNOR5102
012024072302ITSA4       010ITAUSA      PN      N1   R$  000000000103600000000010370000000001026000000000102800000000010270000000001027000000000102917599000000000014354800000000014771088200000000000000009999123100000010000000000000BRITSAACNPR7441
012024072302B3SA3       010B3          ON      NM   R$  000000000112900000000011320000000001117000000000112400000000011180000000001118000000000112021699000000000020302200000000022833496500000000000000009999123100000010000000000000BRB3SAACNOR6133
012024072302TTEN3       0103TENTOS     ON      NM   R$  000000000108900000000011150000000001062000000000107600000000010680000000001063000000000107106740000000000001169100000000001258114900000000000000009999123100000010000000000000BRTTENACNOR0103
012024072302TUPY3       010TUPY        ON      NM   R$  000000000261700000000026190000000002565000000000259100000000025650000000002565000000000257302849000000000000437000000000001132509200000000000000009999123100000010000000000000BRTUPYACNOR1184
012024072302UCAS3       010UNICASA     ON      NM   R$  000000000022900000000002380000000000229000000000023300000000002380000000000234000000000023800172000000000000055800000000000013001500000000000000009999123100000010000000000000BRUCASACNOR1113
012024072302PLPL3       010PLANOEPLANO ON      NM   R$  000000000117900000000011900000000001118000000000114300000000011240000000001122000000000112403434000000000001210100000000001384134600000000000000009999123100000010000000000000BRPLPLACNOR5104
012024072302PNVL3       010DIMED       ON      NM   R$  000000000101000000000010170000000000995000000000100300000000009950000000000994000000000099800739000000000000103700000000000104081100000000000000009999123100000010000000000000BRPNVLACNOR9207
012024072302POMO3       010MARCOPOLO   ON      N2   R$  000000000051700000000005170000000000498000000000050300000000004980000000000498000000000050000336000000000000087300000000000043933300000000000000009999123100000010000000000000BRPOMOACNOR0098
012024072302POMO4       010MARCOPOLO   PN      N2   R$  000000000065200000000006520000000000639000000000064500000000006450000000000644000000000064507145000000000003261600000000002104895000000000000000009999123100000010000000000000BRPOMOACNPR7098
012024072302PORT3       010WILSON SONS ON  ED  NM   R$  000000000160000000000016140000000001591000000000160100000000016010000000001601000000000160800858000000000000258700000000000414216600000000000000009999123100000010000000000000BRPORTACNOR8109
012024072302POSI3       010POSITIVO TECON      NM   R$  000000000075400000000007540000000000735000000000074000000000007360000000000735000000000073601892000000000000772500000000000571992200000000000000009999123100000010000000000000BRPOSIACNOR9116
012024072302PRIO3       010PETRORIO    ON  ATZ NM   R$  000000000445000000000044600000000004362000000000440100000000043800000000004376000000000438518390000000000006044300000000026604213100000000000000009999123100000010000000000000BRPRIOACNOR1107
012024072302SNSY3       010SANSUY      ON           R$  000000000128900000000012890000000001220000000000123700000000012340000000001213000000000123500012000000000000002000000000000002475900000000000000009999123100000010000000000000BRSNSYACNOR2113
012024072302SNSY5       010SANSUY      PNA          R$  000000000056700000000005840000000000566000000000057000000000005750000000000563000000000058400007000000000000001200000000000000684000000000000000009999123100000010000000000000BRSNSYACNPA5111
012024072302SOJA3       010BOA SAFRA   ON      NM   R$  000000000155000000000015560000000001525000000000153800000000015350000000001533000000000154401628000000000000433600000000000667110900000000000000009999123100000010000000000000BRSOJAACNOR9105
012024072302SOMA3       010GRUPO SOMA  ON      NM   R$  000000000063700000000006400000000000628000000000063300000000006350000000000634000000000063610644000000000004612100000000002920961200000000000000009999123100000010000000000000BRSOMAACNOR3102
012024072302MILS3       010MILLS       ON      NM   R$  000000000114900000000011490000000001128000000000113400000000011320000000001132000000000113302694000000000000550500000000000624510700000000000000009999123100000010000000000000BRMILSACNOR2127
012024072302MLAS3       010MULTILASER  ON      NM   R$  000000000020300000000002030000000000190000000000019300000000001920000000000191000000000019203333000000000005938300000000001147138800000000000000009999123100000010000000000000BRMLASACNOR9101
012024072302MNDL3       010MUNDIAL     ON           R$  000000000152400000000015600000000001524000000000154700000000015590000000001250000000000156000010000000000000001300000000000002011500000000000000009999123100000010000000000000BRMNDLACNOR4109
012024072302PRNR3       010PRINER      ON      NM   R$  000000000107100000000010740000000001061000000000106700000000010690000000001067000000000106900700000000000000190800000000000203733600000000000000009999123100000010000000000000BRPRNRACNOR4109
012024072302MBLY3       010MOBLY       ON      NM   R$  000000000025600000000002600000000000255000000000025600000000002590000000000258000000000025900304000000000000277800000000000071264500000000000000009999123100000010000000000000BRMBLYACNOR5100
012024072302MDIA3       010M.DIASBRANCOON      NM   R$  000000000287000000000028710000000002838000000000285300000000028510000000002851000000000286001331000000000000356900000000001018554400000000000000009999123100000010000000000000BRMDIAACNOR7135
012024072302MDNE3       010MOURA DUBEUXON      NM   R$  000000000134400000000013850000000001331000000000134500000000013320000000001332000000000133302360000000000000768400000000001034035600000000000000009999123100000010000000000000BRMDNEACNOR9100
012024072302MEAL3       010IMC S/A     ON      NM   R$  000000000015400000000001560000000000152000000000015400000000001560000000000154000000000015600503000000000000443200000000000068533200000000000000009999123100000010000000000000BRMEALACNOR9105
012024072302MELK3       010MELNICK     ON      NM   R$  000000000036900000000003690000000000360000000000036100000000003600000000000359000000000036000209000000000000160000000000000057874800000000000000009999123100000010000000000000BRMELKACNOR8111
012024072302SCAR3       010SAO CARLOS  ON      NM   R$  000000000225300000000022610000000002233000000000224700000000022330000000002233000000000225900069000000000000014200000000000031919600000000000000009999123100000010000000000000BRSCARACNOR7131
012024072302VALE3       010VALE        ON      NM   R$  000000000606000000000060600000000006000000000000602300000000060230000000006023000000000602449320000000000022512000000000135602639500000000000000009999123100000010000000000000BRVALEACNOR0210
012024072302WLMM3       010WLM IND COM ON           R$  000000000255000000000026000000000002550000000000258300000000026000000000002500000000000265000004000000000000000600000000000001550000000000000000009999123100000010000000000000BRWLMMACNOR6118
012024072302WLMM4       010WLM IND COM PN           R$  000000000313000000000031300000000003100000000000311500000000031000000000002702000000000314800002000000000000000200000000000000623000000000000000009999123100000010000000000000BRWLMMACNPR3118
012024072302ASAI3       010ASSAI       ON      NM   R$  000000000107000000000010710000000001043000000000104800000000010480000000001047000000000104823815000000000016508700000000017307796100000000000000009999123100000010000000000000BRASAIACNOR0106
012024072302ATOM3       010ATOMPAR     ON           R$  000000000020100000000002020000000000201000000000020100000000002010000000000201000000000020200011000000000000004900000000000000985600000000000000009999123100000010000000000000BRATOMACNOR1106
012024072302AURE3       010AUREN       ON      NM   R$  000000000124800000000012480000000001230000000000123400000000012300000000001229000000000123305362000000000001486200000000001835306100000000000000009999123100000010000000000000BRAUREACNOR9104
012024072302AVLL3       010ALPHAVILLE  ON      NM   R$  000000000035500000000003550000000000355000000000035500000000003550000000000320000000000035500001000000000000000200000000000000071000000000000000009999123100000010000000000000BRAVLLACNOR5103
012024072302AZEV3       010AZEVEDO     ON           R$  000000000015700000000001680000000000156000000000016200000000001620000000000162000000000016300533000000000000518300000000000084228600000000000000009999123100000010000000000000BRAZEVACNOR0121
012024072302AZEV4       010AZEVEDO     PN           R$  000000000015900000000001680000000000155000000000016200000000001670000000000165000000000016701680000000000005273900000000000857498300000000000000009999123100000010000000000000BRAZEVACNPR7121
012024072307NUTR3       010NUTRIPLANT  ON      MA   R$  000000000047300000000004730000000000454000000000046700000000004600000000000461000000000047100026000000000000007100000000000003320700000000000000009999123100000010000000000000BRNUTRACNOR0104
012024072307TXRX4       010TEX RENAUX  PN           R$  000000000023000000000002410000000000230000000000023600000000002410000000000230000000000024300004000000000000000400000000000000094700000000000000009999123100000010000000000000BRTXRXACNPR0142
012024072308LIGT3       010LIGHT S/A   ON      NM   R$  000000000043100000000004330000000000413000000000042100000000004180000000000418000000000042101758000000000000818500000000000344812900000000000000009999123100000010000000000000BRLIGTACNOR2124
012024072308ETER3       010ETERNIT     ON      NM   R$  000000000059200000000005920000000000579000000000058300000000005790000000000578000000000058200733000000000000222400000000000129712800000000000000009999123100000010000000000000BRETERACNOR3243
012024072308OIBR3       010OI          ON      N1   R$  000000000043500000000004620000000000432000000000044300000000004400000000000439000000000044001295000000000001221600000000000541570800000000000000009999123100000010000000000000BROIBRACNOR1111
012024072308OIBR4       010OI          PN      N1   R$  000000000124700000000012970000000001247000000000128900000000012900000000001290000000000129600017000000000000003000000000000003869100000000000000009999123100000010000000000000BROIBRACNPR8110
012024072308OSXB3       010OSX BRASIL  ON      NM   R$  000000000038000000000003850000000000380000000000038300000000003840000000000383000000000038400009000000000000001500000000000000574900000000000000009999123100000010000000000000BROSXBACNOR8109
012024072308RSID3       010ROSSI RESID ON      NM   R$  000000000044500000000004610000000000433000000000043800000000004370000000000431000000000044800071000000000000010500000000000004601600000000000000009999123100000010000000000000BRRSIDACNOR8120
012024072308RNEW11      010RENOVA      UNT     N2   R$  000000000026700000000002800000000000265000000000026800000000002800000000000280000000000028100039000000000000013000000000000003485300000000000000009999123100000010000000000000BRRNEWCDAM15110
012024072308RNEW3       010RENOVA      ON      N2   R$  000000000009100000000000920000000000088000000000008900000000000900000000000089000000000009000070000000000000039500000000000003544600000000000000009999123100000010000000000000BRRNEWACNOR8110
012024072308RNEW4       010RENOVA      PN      N2   R$  000000000008800000000000900000000000086000000000008700000000000880000000000087000000000008900092000000000000076500000000000006661800000000000000009999123100000010000000000000BRRNEWACNPR5110
012024072308RPMG3       010PET MANGUINHON           R$  000000000031100000000003310000000000305000000000031500000000003150000000000310000000000031400203000000000000033600000000000010611800000000000000009999123100000010000000000000BRRPMGACNOR9194
012024072308CTNM4       010COTEMINAS   PN           R$  000000000009700000000000970000000000097000000000009700000000000970000000000097000000000009800006000000000000005500000000000000533500000000000000009999123100000010000000000000BRCTNMACNPR6129
012024072308CTSA3       010SANTANENSE  ON           R$  000000000023300000000002350000000000231000000000023100000000002320000000000231000000000023600006000000000000001000000000000000231800000000000000009999123100000010000000000000BRCTSAACNOR3062
012024072308CTSA4       010SANTANENSE  PN           R$  000000000010000000000001070000000000100000000000010300000000001010000000000101000000000010300154000000000000027900000000000002876400000000000000009999123100000010000000000000BRCTSAACNPR0062
012024072308SGPS3       010SPRINGS     ON      NM   R$  000000000022800000000002280000000000228000000000022800000000002280000000000228000000000022900014000000000000011200000000000002553600000000000000009999123100000010000000000000BRSGPSACNOR4105
012024072308NEXP3       010NEXPE       ON           R$  000000000042700000000004270000000000407000000000041200000000004150000000000409000000000042300009000000000000001100000000000000454000000000000000009999123100000010000000000000BRNEXPACNOR0101
012024072308AMER3       010AMERICANAS  ON      NM   R$  000000000007700000000000870000000000077000000000008100000000000780000000000078000000000007908717000000000058903700000000004803247600000000000000009999123100000010000000000000BRAMERACNOR6102
012024072308JFEN3       010JOAO FORTES ON           R$  000000000003500000000000410000000000033000000000003600000000000340000000000034000000000003505004000000000029611600000000001088435400000000000000009999123100000010000000000000BRJFENACNOR0059
012024072308PMAM3       010PARANAPANEMAON      NM   R$  000000000024000000000002450000000000237000000000024100000000002370000000000237000000000024000094000000000000042400000000000010246400000000000000009999123100000010000000000000BRPMAMACNOR3039
012024072308ATMP3       010ATMASA      ON           R$  000000000019800000000001990000000000191000000000019500000000001970000000000193000000000019700012000000000000005700000000000001115100000000000000009999123100000010000000000000BRATMPACNOR8100
012024072310RENT1       010LOCALIZA    DIR ORD NM   R$  000000000103600000000012000000000000956000000000101100000000012000000000001061000000000125100074000000000000019100000000000019312600000000000000009999123100000010000000000000BRRENTD06OR8195
012024072312SADI11      010FII SANT PAPCI           R$  000000000900400000000090310000000008951000000000898500000000089600000000008960000000000900002245000000000000003554000000000031933807000000000000009999123100000010000000000000BRSADICTF007160
012024072312VILG11      010FII VINCI LGCI           R$  000000000921900000000092200000000009110000000000916900000000091470000000009131000000000914703068000000000000016750000000000153587037000000000000009999123100000010000000000000BRVILGCTF001172
012024072312VINO11      010FII VINCI OFCI           R$  000000000064300000000006450000000000632000000000063700000000006400000000000639000000000064004361000000000000147915000000000094342141000000000000009999123100000010000000000000BRVINOCTF001158
012024072312VISC11      010FII VINCI SCCI           R$  000000001148500000000115000000000011339000000001142500000000113820000000011382000000001140005278000000000000044735000000000511113622000000000000009999123100000010000000000000BRVISCCTF005187
012024072312VIUR11      010FII VINCI IUCI           R$  000000000066800000000006690000000000666000000000066800000000006690000000000668000000000066900821000000000000030484000000000020364066000000000000009999123100000010000000000000BRVIURCTF009138
012024072312RECR11      010FII REC RECECI           R$  000000000851000000000085350000000008504000000000851900000000085150000000008515000000000852002496000000000000025821000000000219984184000000000000009999123100000010000000000000BRRECRCTF004152
012024072312RECT11      010FII REC RENDCI           R$  000000000351000000000035600000000003509000000000352500000000035150000000003513000000000351500472000000000000006825000000000024058905000000000000009999123100000010000000000000BRRECTCTF000168
012024072312RECX11      010FII REC FOF CI  ER       R$  000000000661700000000066480000000006616000000000664500000000066480000000006605000000000669900005000000000000000064000000000000425343000000000000009999123100000010000000000000BRRECXCTF002140
012024072312RBDS11      010FII RBRESID2CI           R$  000000000028700000000003020000000000287000000000029000000000002900000000000284000000000028900003000000000000000029000000000000008419000000000000009999123100000010000000000000BRRBDSCTF006179
012024072312RBED11      010FII RIOB ED CI           R$  000000001379500000000137950000000013700000000001374600000000137320000000013745000000001375600089000000000000000589000000000008096945000000000000009999123100000010000000000000BRRBEDCTF006165
012024072312RBFF11      010FII RIOB FF CI           R$  000000000612000000000061200000000006100000000000610100000000061000000000006100000000000610100204000000000000003229000000000019702529000000000000009999123100000010000000000000BRRBFFCTF008161
012024072312RBHG11      010FII RBCRI IVCI           R$  000000000864000000000086410000000008570000000000859400000000085820000000008582000000000859301033000000000000004312000000000037058575000000000000009999123100000010000000000000BRRBHGCTF002135
012024072312RBHY11      010FII RB YIELDCI           R$  000000000904500000000090450000000009003000000000900700000000090030000000009003000000000900500047000000000000000465000000000004188421000000000000009999123100000010000000000000BRRBHYCTF005145
012024072312BPFF11      010FII ABSOLUTOCI           R$  000000000699000000000070240000000006961000000000699100000000069650000000006965000000000699400368000000000000003350000000000023421730000000000000009999123100000010000000000000BRBPFFCTF002237
012024072312BPML11      010FII BTG SHOPCI  ER       R$  000000000901000000000090190000000008811000000000892800000000088600000000008860000000000890503499000000000000015859000000000141602581000000000000009999123100000010000000000000BRBPMLCTF006132
012024072312HGCR11      010FII HGCR PAXCI           R$  000000001044600000000104750000000010402000000001043200000000104350000000010415000000001043503249000000000000028439000000000296688453000000000000009999123100000010000000000000BRHGCRCTF000247
012024072312HGFF11      010FII HGFF PAXCI           R$  000000000872500000000087650000000008719000000000872700000000087190000000008719000000000873500301000000000000004606000000000040198941000000000000009999123100000010000000000000BRHGFFCTF008161
012024072312HGIC11      010FII HGI CRI CI           R$  000000000970000000000097000000000009700000000000970000000000097000000000009162000000000970000015000000000000000023000000000000223100000000000000009999123100000010000000000000BRHGICCTF009141
012024072312HGLG11      010FII HGLG PAXCI           R$  000000001625200000000163490000000016240000000001631000000000163070000000016301000000001630706227000000000000033814000000000551533998000000000000009999123100000010000000000000BRHGLGCTF004272
012024072312HGPO11      010FII HGPO PAXCI           R$  000000003082500000000308990000000030727000000003082000000000307280000000030728000000003080000438000000000000005118000000000157739591000000000000009999123100000010000000000000BRHGPOCTF009162
012024072312HGRE11      010FII HGRE PAXCI           R$  000000001173700000000117840000000011735000000001176600000000117600000000011755000000001176001268000000000000007889000000000092828494000000000000009999123100000010000000000000BRHGRECTF006293
012024072312HGRU11      010FII HGRU PAXCI           R$  000000001289000000000129130000000012857000000001288800000000128910000000012891000000001290202982000000000000019767000000000254775716000000000000009999123100000010000000000000BRHGRUCTF002177
012024072312HLOG11      010FII HEDGELOGCI           R$  000000000839900000000084000000000008330000000000833700000000083950000000008330000000000840000026000000000000001824000000000015208317000000000000009999123100000010000000000000BRHLOGCTF008157
012024072312HOFC11      010FII HOFFICEICI           R$  000000000282500000000028780000000002805000000000281200000000028780000000002805000000000287800064000000000000001528000000000004297583000000000000009999123100000010000000000000BRHOFCCTF009115
012024072312HOSI11      010FII HOUSI   CI           R$  000000000963400000000096340000000009634000000000963400000000096340000000009518000000000963400003000000000000000004000000000000038536000000000000009999123100000010000000000000BRHOSICTF009146
012024072312HRDF11      010FII HREALTY CI           R$  000000000033400000000003340000000000333000000000033300000000003330000000000333000000000034900007000000000000000071000000000000023650000000000000009999123100000010000000000000BRHRDFCTF000103
012024072312HREC11      010FII HEDGERECCI           R$  000000000087300000000008730000000000857000000000086400000000008690000000000862000000000086902613000000000000349738000000000302412416000000000000009999123100000010000000000000BRHRECCTF005150
012024072312HSAF11      010FII HSI CRI CI           R$  000000000856700000000086380000000008559000000000858900000000086100000000008602000000000862500252000000000000001695000000000014559312000000000000009999123100000010000000000000BRHSAFCTF004149
012024072312HSLG11      010FII HSI LOG CI           R$  000000000882000000000088480000000008758000000000880400000000087770000000008777000000000877801024000000000000005494000000000048370312000000000000009999123100000010000000000000BRHSLGCTF009143
012024072312HSML11      010FII HSI MALLCI           R$  000000000972400000000097280000000009694000000000970700000000097050000000009705000000000971003224000000000000029265000000000284078107000000000000009999123100000010000000000000BRHSMLCTF007162
012024072312HSRE11      010FII HSIRENDACI           R$  000000001073600000000108940000000010700000000001075800000000108940000000010736000000001089800006000000000000000018000000000000193660000000000000009999123100000010000000000000BRHSRECTF001142
012024072312HTMX11      010FII HOTEL MXCI           R$  000000001794400000000180980000000017929000000001798800000000179660000000017966000000001799900770000000000000003613000000000064992902000000000000009999123100000010000000000000BRHTMXCTF000281
012024072312HUCG11      010FII UNIMED CCI           R$  000000000852400000000094850000000008524000000000892600000000094500000000008400000000000945000015000000000000000059000000000000526678000000000000009999123100000010000000000000BRHUCGCTF004120
012024072312HUSC11      010FII H UNIMEDCI           R$  000000001106200000000112500000000011062000000001123000000000112500000000010920000000001124900007000000000000000020000000000000224619000000000000009999123100000010000000000000BRHUSCCTF009153
012024072312HUSI11      010FII HUSI    CI           R$  000000010900000000001090000000000109000000000010900000000001090000000000090000000000012999900003000000000000000006000000000000654000000000000000009999123100000010000000000000BRHUSICTF006125
012024072312CEOC11      010FII CEO CCP CI           R$  000000000439600000000044170000000004385000000000438900000000043920000000004394000000000440700031000000000000000279000000000001224767000000000000009999123100000010000000000000BRCEOCCTF003216
012024072312IBCR11      010FII BREI    CI           R$  000000000710400000000071310000000007025000000000709600000000071260000000007103000000000712900119000000000000001500000000000010644881000000000000009999123100000010000000000000BRIBCRCTF009138
012024072312KNCR11      010FII KINEA RICI           R$  000000001048700000000104970000000010431000000001045700000000104590000000010459000000001046409903000000000000095882000000001002676265000000000000009999123100000010000000000000BRKNCRCTF000241
012024072312KNHF11      010FII KINEA HFCI           R$  000000000968000000000097180000000009643000000000967200000000097020000000009682000000000970201243000000000000029230000000000282723154000000000000009999123100000010000000000000BRKNHFCTF004112
