00COTAHIST.2024BOVESPA 20240703                                                                                                                                                                                                                      
012024070302NEOE3       010NEOENERGIA  ON  EJ  NM   R$  000000000182500000000018590000000001825000000000184800000000018370000000001837000000000184102337000000000000676000000000001249583800000000000000009999123100000010000000000000BRNEOEACNOR3123
012024070302NGRD3       010NEOGRID     ON      NM   R$  000000000009400000000000950000000000091000000000009300000000000940000000000093000000000009400609000000000000489000000000000045638900000000000000009999123100000010000000000000BRNGRDACNOR3104
012024070302NINJ3       010GETNINJAS   ON      NM   R$  000000000044000000000004450000000000433000000000044000000000004440000000000441000000000045500041000000000000008200000000000003610700000000000000009999123100000010000000000000BRNINJACNOR5101
012024070302NORD3       010NORDON MET  ON           R$  000000000059500000000006000000000000538000000000056800000000005610000000000545000000000062400020000000000000002800000000000001592500000000000000009999123100000010000000000000BRNORDACNOR7135
012024070302NTCO3       010GRUPO NATURAON      NM   R$  000000000155800000000016250000000001558000000000158100000000015650000000001563000000000156516353000000000006443400000000010189027800000000000000009999123100000010000000000000BRNTCOACNOR5106
012024070302AERI3       010AERIS       ON      NM   R$  000000000053500000000006130000000000535000000000058200000000005660000000000566000000000057001360000000000000677000000000000394206900000000000000009999123100000010000000000000BRAERIACNOR4102
012024070302AESB3       010AES BRASIL  ON      NM   R$  000000000113900000000011410000000001136000000000113800000000011380000000001137000000000113802474000000000003242900000000003690710500000000000000009999123100000010000000000000BRAESBACNOR7106
012024070302AFLT3       010AFLUENTE T  ON  EJ       R$  000000000071900000000007380000000000719000000000072800000000007380000000000716000000000073900004000000000000000400000000000000291400000000000000009999123100000010000000000000BRAFLTACNOR1122
012024070302AGRO3       010BRASILAGRO  ON      NM   R$  000000000258900000000026280000000002589000000000261200000000026270000000002614000000000262701214000000000000195800000000000511493900000000000000009999123100000010000000000000BRAGROACNOR7114
012024070302AGXY3       010AGROGALAXY  ON      NM   R$  000000000014100000000001920000000000141000000000017000000000001850000000000185000000000018803849000000000003183700000000000543383800000000000000009999123100000010000000000000BRAGXYACNOR4103
012024070302AHEB3       010SPTURIS     ON           R$  000000000350000000000035000000000003500000000000350000000000035000000000003500000000000400000002000000000000000500000000000001750000000000000000009999123100000010000000000000BRAHEBACNOR0106
012024070302ALLD3       010ALLIED      ON      NM   R$  000000000077100000000007820000000000765000000000077200000000007750000000000770000000000077500299000000000000097500000000000075361100000000000000009999123100000010000000000000BRALLDACNOR3106
012024070302ALOS3       010ALLOS       ON      NM   R$  000000000209900000000021310000000002095000000000211500000000021240000000002123000000000212411296000000000004139600000000008758256500000000000000009999123100000010000000000000BRALOSACNOR5101
012024070302ALPA3       010ALPARGATAS  ON      N1   R$  000000000093800000000009400000000000938000000000093900000000009390000000000939000000000094000006000000000000001900000000000001784200000000000000009999123100000010000000000000BRALPAACNOR0231
012024070302BBDC3       010BRADESCO    ON  EJ  N1   R$  000000000111900000000011300000000001115000000000112200000000011210000000001120000000000112211360000000000006055200000000006794121500000000000000009999123100000010000000000000BRBBDCACNOR1772
012024070302BBDC4       010BRADESCO    PN  EJ  N1   R$  000000000123200000000012380000000001223000000000123000000000012270000000001227000000000122831886000000000031060900000000038220680700000000000000009999123100000010000000000000BRBBDCACNPR8772
012024070302CMIN3       010CSNMINERACAOON      N2   R$  000000000054900000000005640000000000549000000000055700000000005540000000000553000000000055512392000000000014759900000000008229294500000000000000009999123100000010000000000000BRCMINACNOR2111
012024070302COCE3       010COELCE      ON           R$  000000000325100000000032510000000003251000000000325100000000032510000000003255000000000400000001000000000000000100000000000000325100000000000000009999123100000010000000000000BRCOCEACNOR0146
012024070302COCE5       010COELCE      PNA          R$  000000000301000000000030200000000002959000000000298200000000029850000000002977000000000299000159000000000000055700000000000166139200000000000000009999123100000010000000000000BRCOCEACNPA3147
012024070302COGN3       010COGNA ON    ON      NM   R$  000000000016800000000001770000000000167000000000017300000000001760000000000176000000000017711814000000000040898300000000007097955700000000000000009999123100000010000000000000BRCOGNACNOR2104
012024070302EGIE3       010ENGIE BRASILON      NM   R$  000000000443400000000045300000000004434000000000449800000000045120000000004512000000000451504799000000000000835600000000003759213600000000000000009999123100000010000000000000BREGIEACNOR9126
012024070302EKTR4       010ELEKTRO     PN  EJ       R$  000000000395400000000039550000000003954000000000395400000000039550000000003902000000000395500006000000000000002200000000000008700900000000000000009999123100000010000000000000BREKTRACNPR7163
012024070302ELET3       010ELETROBRAS  ON      N1   R$  000000000374400000000038190000000003733000000000376700000000037350000000003735000000000373627583000000000008408800000000031678429700000000000000009999123100000010000000000000BRELETACNOR6160
012024070302ELET6       010ELETROBRAS  PNB     N1   R$  000000000413400000000042150000000004133000000000417700000000041480000000004147000000000414807397000000000001264800000000005283516600000000000000009999123100000010000000000000BRELETACNPB7077
012024070302GRND3       010GRENDENE    ON      NM   R$  000000000057800000000005850000000000578000000000058200000000005820000000000582000000000058405112000000000001473300000000000857787900000000000000009999123100000010000000000000BRGRNDACNOR3174
012024070302GSHP3       010GENERALSHOPPON           R$  000000000105000000000010500000000001050000000000105000000000010500000000001050000000000149200002000000000000000400000000000000420000000000000000009999123100000010000000000000BRGSHPACNOR7102
012024070302GUAR3       010GUARARAPES  ON      NM   R$  000000000066600000000006910000000000665000000000068100000000006730000000000673000000000067703000000000000001030900000000000702772000000000000000009999123100000010000000000000BRGUARACNOR4173
012024070302HAGA3       010HAGA S/A    ON           R$  000000000025900000000002620000000000256000000000025900000000002620000000000258000000000026700006000000000000001100000000000000284900000000000000009999123100000010000000000000BRHAGAACNOR7103
012024070302HAGA4       010HAGA S/A    PN           R$  000000000011400000000001150000000000113000000000011300000000001130000000000113000000000011500021000000000000009400000000000001070300000000000000009999123100000010000000000000BRHAGAACNPR4103
012024070302HAPV3       010HAPVIDA     ON      NM   R$  000000000037500000000003930000000000374000000000038700000000003890000000000388000000000038921604000000000053710700000000020812250000000000000000009999123100000010000000000000BRHAPVACNOR4114
012024070302HBOR3       010HELBOR      ON      NM   R$  000000000020600000000002150000000000206000000000021100000000002130000000000212000000000021300461000000000000485100000000000102449200000000000000009999123100000010000000000000BRHBORACNOR3118
012024070302HBRE3       010HBR REALTY  ON      NM   R$  000000000050800000000005290000000000508000000000052300000000005210000000000521000000000052300772000000000000329800000000000172523200000000000000009999123100000010000000000000BRHBREACNOR4100
012024070302JBSS3       010JBS         ON      NM   R$  000000000330700000000033330000000003118000000000317000000000031210000000003121000000000312524283000000000008150700000000025844184200000000000000009999123100000010000000000000BRJBSSACNOR8121
012024070302JHSF3       010JHSF PART   ON  ED  NM   R$  000000000039800000000004050000000000397000000000040100000000004050000000000404000000000040502918000000000001897400000000000761471000000000000000009999123100000010000000000000BRJHSFACNOR2137
012024070302MRVE3       010MRV         ON      NM   R$  000000000065900000000006820000000000657000000000067100000000006690000000000669000000000067009459000000000008314700000000005585559000000000000000009999123100000010000000000000BRMRVEACNOR2127
012024070302AALR3       010ALLIAR      ON      NM   R$  000000000107600000000010800000000001057000000000107400000000010800000000001079000000000108200191000000000000025800000000000027726700000000000000009999123100000010000000000000BRAALRACNOR6102
012024070302ABCB4       010ABC BRASIL  PN  EJ  N2   R$  000000000214600000000021600000000002132000000000214700000000021400000000002140000000000214601695000000000000422900000000000908208000000000000000009999123100000010000000000000BRABCBACNPR4146
012024070302ABEV3       010AMBEV S/A   ON           R$  000000000115400000000011570000000001136000000000114400000000011380000000001137000000000113925155000000000032807200000000037548028200000000000000009999123100000010000000000000BRABEVACNOR1127
012024070302CBAV3       010CBA         ON      NM   R$  000000000069600000000007160000000000690000000000070100000000006960000000000695000000000069606259000000000003233000000000002267152000000000000000009999123100000010000000000000BRCBAVACNOR5104
012024070302CBEE3       010AMPLA ENERG ON           R$  000000000100000000000010000000000000990000000000099500000000009900000000000990000000000108000002000000000000000200000000000000199000000000000000009999123100000010000000000000BRCBEEACNOR3159
012024070302CCRO3       010CCR SA      ON      NM   R$  000000000114800000000012010000000001147000000000118300000000011960000000001195000000000119714948000000000008234600000000009748007800000000000000009999123100000010000000000000BRCCROACNOR2145
012024070302CEAB3       010CEA MODAS   ON      NM   R$  000000000092700000000009800000000000927000000000096300000000009600000000000960000000000096107795000000000003434600000000003309136600000000000000009999123100000010000000000000BRCEABACNOR1102
012024070302CEBR3       010CEB         ON           R$  000000000202000000000020450000000002020000000000203800000000020390000000002001000000000204500009000000000000001600000000000003262200000000000000009999123100000010000000000000BRCEBRACNOR5125
012024070302CEBR5       010CEB         PNA          R$  000000000180400000000018400000000001804000000000181700000000018300000000001808000000000183000015000000000000001800000000000003271300000000000000009999123100000010000000000000BRCEBRACNPA8124
012024070302CEBR6       010CEB         PNB          R$  000000000198500000000019850000000001941000000000197000000000019500000000001945000000000195000021000000000000003000000000000005911800000000000000009999123100000010000000000000BRCEBRACNPB6124
012024070302CEDO4       010CEDRO       PN      N1   R$  000000000223000000000022300000000002230000000000223000000000022300000000002200000000000241500002000000000000000800000000000001784000000000000000009999123100000010000000000000BRCEDOACNPR5128
012024070302CEEB3       010COELBA      ON  EJ       R$  000000000391500000000039690000000003915000000000395000000000039680000000003900000000000396900008000000000000001000000000000003950400000000000000009999123100000010000000000000BRCEEBACNOR3199
012024070302CGAS5       010COMGAS      PNA          R$  000000001126100000000116010000000011261000000001151000000000113210000000011203000000001180000007000000000000000700000000000008057100000000000000009999123100000010000000000000BRCGASACNPA3160
012024070302CGRA3       010GRAZZIOTIN  ON  EJ       R$  000000000250200000000025090000000002502000000000250500000000025090000000002500000000000251900002000000000000000200000000000000501100000000000000009999123100000010000000000000BRCGRAACNOR2083
012024070302CGRA4       010GRAZZIOTIN  PN  EJ       R$  000000000253200000000025340000000002511000000000252100000000025110000000002511000000000252900028000000000000004900000000000012353400000000000000009999123100000010000000000000BRCGRAACNPR9083
012024070302CIEL3       010CIELO       ON      NM   R$  000000000056500000000005660000000000565000000000056500000000005660000000000565000000000056605155000000000009859100000000005575801000000000000000009999123100000010000000000000BRCIELACNOR3157
012024070302CLSA3       010CLEARSALE   ON      NM   R$  000000000075000000000007750000000000748000000000075700000000007500000000000749000000000075003802000000000001201500000000000910613200000000000000009999123100000010000000000000BRCLSAACNOR0100
012024070302CLSC3       010CELESC      ON  EJ  N2   R$  000000000701500000000072000000000007015000000000713800000000072000000000006600000000000729900002000000000000000300000000000002141500000000000000009999123100000010000000000000BRCLSCACNOR6152
012024070302CLSC4       010CELESC      PN  EJ  N2   R$  000000000750800000000076620000000007481000000000758300000000075700000000007561000000000766400024000000000000002800000000000021233600000000000000009999123100000010000000000000BRCLSCACNPR3131
012024070302CMIG3       010CEMIG       ON  EJ  N1   R$  000000000124900000000012680000000001230000000000126000000000012590000000001257000000000126300543000000000000096200000000000121249600000000000000009999123100000010000000000000BRCMIGACNOR6242
012024070302CMIG4       010CEMIG       PN  EJ  N1   R$  000000000101300000000010420000000001012000000000103300000000010360000000001034000000000103734750000000000010176900000000010516697000000000000000009999123100000010000000000000BRCMIGACNPR3243
012024070302DEXP3       010DEXXOS PAR  ON      N1   R$  000000000103300000000010610000000001033000000000105200000000010500000000001042000000000105000160000000000000036900000000000038852700000000000000009999123100000010000000000000BRDEXPACNOR1105
012024070302DEXP4       010DEXXOS PAR  PN      N1   R$  000000000102500000000010250000000001000000000000101900000000010200000000001011000000000102000020000000000000019900000000000020287400000000000000009999123100000010000000000000BRDEXPACNPR8105
012024070302DIRR3       010DIRECIONAL  ON      NM   R$  000000000275000000000028100000000002750000000000277900000000027820000000002782000000000278407429000000000003060400000000008507855600000000000000009999123100000010000000000000BRDIRRACNOR0117
012024070302DMVF3       010D1000VFARMA ON      NM   R$  000000000072000000000007360000000000718000000000072600000000007270000000000720000000000072700345000000000000056200000000000040814800000000000000009999123100000010000000000000BRDMVFACNOR9100
012024070302DOHL4       010DOHLER      PN           R$  000000000039900000000003990000000000391000000000039700000000003950000000000391000000000039900019000000000000013700000000000005451500000000000000009999123100000010000000000000BRDOHLACNPR9066
012024070302DOTZ3       010DOTZ SA     ON      NM   R$  000000000063600000000006820000000000626000000000063700000000006340000000000630000000000063500060000000000000031500000000000020082500000000000000009999123100000010000000000000BRDOTZACNOR7101
012024070302DXCO3       010DEXCO       ON      NM   R$  000000000065600000000006690000000000654000000000066200000000006600000000000659000000000066109105000000000002384800000000001579416300000000000000009999123100000010000000000000BRDXCOACNOR8105
012024070302ZAMP3       010ZAMP S.A.   ON           R$  000000000037200000000003800000000000370000000000037500000000003740000000000373000000000037400985000000000000236900000000000089017200000000000000009999123100000010000000000000BRZAMPACNOR5100
012024070302ONCO3       010ONCOCLINICASON      NM   R$  000000000064400000000006810000000000640000000000066600000000006810000000000679000000000068105919000000000002571400000000001713969900000000000000009999123100000010000000000000BRONCOACNOR6101
012024070302OPCT3       010OCEANPACT   ON      NM   R$  000000000064500000000006750000000000640000000000066300000000006730000000000666000000000067302456000000000000778700000000000516416000000000000000009999123100000010000000000000BROPCTACNOR0100
012024070302ORVR3       010ORIZON      ON      NM   R$  000000000383500000000039740000000003835000000000394500000000039670000000003949000000000396801981000000000000343200000000001353943700000000000000009999123100000010000000000000BRORVRACNOR0101
012024070302PCAR3       010P.ACUCAR-CBDON      NM   R$  000000000026600000000002790000000000265000000000027300000000002730000000000273000000000027407179000000000012394700000000003384979100000000000000009999123100000010000000000000BRPCARACNOR3167
012024070302PDGR3       010PDG REALT   ON      NM   R$  000000000001800000000000190000000000017000000000001800000000000180000000000017000000000001800225000000000000605400000000000011012100000000000000009999123100000010000000000000BRPDGRACNOR8118
012024070302PDTC3       010PADTEC      ON      NM   R$  000000000019700000000002010000000000196000000000019700000000002000000000000196000000000020000065000000000000017100000000000003378700000000000000009999123100000010000000000000BRPDTCACNOR3101
012024070302PEAB3       010PAR AL BAHIAON           R$  000000000440000000000044000000000004400000000000440000000000044000000000004312000000000460000003000000000000000700000000000003080000000000000000009999123100000010000000000000BRPEABACNOR3133
012024070302PEAB4       010PAR AL BAHIAPN           R$  000000000475000000000047500000000004750000000000475000000000047500000000004730000000000550000006000000000000001300000000000006175000000000000000009999123100000010000000000000BRPEABACNPR0133
012024070302PETR3       010PETROBRAS   ON      N2   R$  000000000410600000000041460000000004013000000000408100000000040130000000004013000000000401527844000000000011636300000000047490568100000000000000009999123100000010000000000000BRPETRACNOR9205
012024070302PETR4       010PETROBRAS   PN      N2   R$  000000000387000000000038790000000003776000000000381400000000037840000000003783000000000378589613000000000038509400000000146889545500000000000000009999123100000010000000000000BRPETRACNPR6213
012024070302SAPR11      010SANEPAR     UNT EJ  N2   R$  000000000262800000000026980000000002620000000000267300000000026750000000002673000000000267703522000000000000639400000000001709372900000000000000009999123100000010000000000000BRSAPRCDAM13118
012024070302SAPR3       010SANEPAR     ON  EJ  N2   R$  000000000050000000000005120000000000500000000000050600000000005090000000000507000000000051000428000000000000154500000000000078291300000000000000009999123100000010000000000000BRSAPRACNOR9159
012024070302SAPR4       010SANEPAR     PN  EJ  N2   R$  000000000053400000000005480000000000534000000000054200000000005420000000000541000000000054201794000000000000741700000000000402280400000000000000009999123100000010000000000000BRSAPRACNPR6159
012024070302SBFG3       010GRUPO SBF   ON      NM   R$  000000000119900000000012460000000001199000000000122400000000012360000000001226000000000123606748000000000003200700000000003919023500000000000000009999123100000010000000000000BRSBFGACNOR1103
012024070302SBSP3       010SABESP      ON      NM   R$  000000000782000000000081090000000007798000000000797900000000080650000000008050000000000806518169000000000003802200000000030340164200000000000000009999123100000010000000000000BRSBSPACNOR5161
012024070302UCAS3       010UNICASA     ON      NM   R$  000000000021700000000002220000000000217000000000022000000000002200000000000219000000000022000110000000000000028800000000000006336700000000000000009999123100000010000000000000BRUCASACNOR1113
012024070302UGPA3       010ULTRAPAR    ON      NM   R$  000000000215700000000022160000000002156000000000219900000000021870000000002182000000000218711936000000000002893400000000006363019300000000000000009999123100000010000000000000BRUGPAACNOR8155
012024070302UNIP3       010UNIPAR      ON           R$  000000000484000000000050580000000004840000000000493700000000050580000000004901000000000527000061000000000000007600000000000037521300000000000000009999123100000010000000000000BRUNIPACNOR7206
012024070302UNIP6       010UNIPAR      PNB          R$  000000000487000000000050410000000004870000000000497800000000050410000000004983000000000504100935000000000000149900000000000746231900000000000000009999123100000010000000000000BRUNIPACNPB8206
012024070302HBTS5       010HABITASUL   PNA          R$  000000000362100000000036370000000003621000000000362900000000036370000000003636000000000418000002000000000000000200000000000000725800000000000000009999123100000010000000000000BRHBTSACNPA3128
012024070302SRNA3       010SERENA      ON      NM   R$  000000000086900000000008960000000000869000000000088800000000008890000000000889000000000089004819000000000001507100000000001339263000000000000000009999123100000010000000000000BRSRNAACNOR4100
012024070302STBP3       010SANTOS BRP  ON      NM   R$  000000000132200000000013590000000001322000000000133700000000013360000000001333000000000133909971000000000002207900000000002952149500000000000000009999123100000010000000000000BRSTBPACNOR3130
012024070302SUZB3       010SUZANO S.A. ON      NM   R$  000000000576200000000058120000000005637000000000571800000000057340000000005733000000000573436785000000000009695100000000055437206200000000000000009999123100000010000000000000BRSUZBACNOR0130
012024070302VTRU3       010VITRUEDUCA  ON      NM   R$  000000000141000000000014150000000001337000000000138200000000013420000000001342000000000135500385000000000000047900000000000066211100000000000000009999123100000010000000000000BRVTRUACNOR3100
012024070302VULC3       010VULCABRAS   ON      NM   R$  000000000145300000000014910000000001451000000000146700000000014660000000001455000000000146602365000000000000517800000000000759941800000000000000009999123100000010000000000000BRVULCACNOR2159
012024070302VVEO3       010VIVEO       ON      NM   R$  000000000024500000000002730000000000243000000000025900000000002480000000000247000000000025106261000000000004153800000000001079782100000000000000009999123100000010000000000000BRVVEOACNOR0104
012024070302WEGE3       010WEG         ON  EJ  NM   R$  000000000423200000000042580000000004200000000000422900000000042110000000004211000000000421215422000000000004894700000000020699718400000000000000009999123100000010000000000000BRWEGEACNOR0223
012024070302WHRL3       010WHIRLPOOL   ON           R$  000000000045000000000004500000000000450000000000045000000000004500000000000452000000000045900004000000000000000900000000000000405000000000000000009999123100000010000000000000BRWHRLACNOR5128
012024070302WHRL4       010WHIRLPOOL   PN           R$  000000000045200000000004580000000000451000000000045300000000004580000000000452000000000045800018000000000000004500000000000002041000000000000000009999123100000010000000000000BRWHRLACNPR2128
012024070302WIZC3       010WIZ CO      ON      NM   R$  000000000057200000000005920000000000572000000000058500000000005920000000000587000000000059201703000000000000376300000000000220164800000000000000009999123100000010000000000000BRWIZCACNOR5102
012024070302WLMM3       010WLM IND COM ON           R$  000000000250000000000025000000000002500000000000250000000000025000000000002321000000000260000003000000000000000300000000000000750000000000000000009999123100000010000000000000BRWLMMACNOR6118
012024070302WLMM4       010WLM IND COM PN           R$  000000000311300000000031760000000003113000000000315100000000031500000000003122000000000317000007000000000000000700000000000002206200000000000000009999123100000010000000000000BRWLMMACNPR3118
012024070302YDUQ3       010YDUQS PART  ON      NM   R$  000000000105800000000011180000000001058000000000109800000000011150000000001111000000000111512923000000000006657700000000007316761900000000000000009999123100000010000000000000BRYDUQACNOR3105
012024070302PGMN3       010PAGUE MENOS ON      NM   R$  000000000025400000000002700000000000254000000000026400000000002670000000000266000000000026801594000000000001401300000000000370454500000000000000009999123100000010000000000000BRPGMNACNOR8103
012024070302PINE3       010PINE        ON      N2   R$  000000000049900000000005360000000000481000000000049700000000004910000000000491000000000050200024000000000000010700000000000005322600000000000000009999123100000010000000000000BRPINEACNOR1149
012024070302PINE4       010PINE        PN      N2   R$  000000000043500000000004520000000000435000000000044500000000004410000000000440000000000044100475000000000000255700000000000113985500000000000000009999123100000010000000000000BRPINEACNPR8149
012024070302PLAS3       010PLASCAR PARTON           R$  000000000050000000000005110000000000498000000000050000000000005000000000000500000000000059900010000000000000004600000000000002302300000000000000009999123100000010000000000000BRPLASACNOR2106
012024070302PLPL3       010PLANOEPLANO ON      NM   R$  000000000097700000000010260000000000965000000000098100000000010220000000001021000000000102203324000000000002587000000000002538971500000000000000009999123100000010000000000000BRPLPLACNOR5104
012024070302PNVL3       010DIMED       ON  EJ  NM   R$  000000000098200000000009920000000000969000000000098200000000009690000000000969000000000097401117000000000000211300000000000207553400000000000000009999123100000010000000000000BRPNVLACNOR9207
012024070302POMO3       010MARCOPOLO   ON      N2   R$  000000000048200000000004890000000000481000000000048600000000004840000000000484000000000048600562000000000000144600000000000070304500000000000000009999123100000010000000000000BRPOMOACNOR0098
012024070302POMO4       010MARCOPOLO   PN      N2   R$  000000000062600000000006340000000000621000000000062700000000006270000000000627000000000062818706000000000006536000000000004100305000000000000000009999123100000010000000000000BRPOMOACNPR7098
012024070302PORT3       010WILSON SONS ON      NM   R$  000000000149100000000015240000000001487000000000151200000000015140000000001514000000000151700977000000000000244400000000000369652400000000000000009999123100000010000000000000BRPORTACNOR8108
012024070302POSI3       010POSITIVO TECON      NM   R$  000000000078500000000008180000000000785000000000080800000000008180000000000812000000000081803551000000000001253900000000001013760400000000000000009999123100000010000000000000BRPOSIACNOR9116
012024070302PRIO3       010PETRORIO    ON      NM   R$  000000000459400000000046670000000004586000000000462800000000046090000000004607000000000461018865000000000006309600000000029202437000000000000000009999123100000010000000000000BRPRIOACNOR1106
012024070302RSUL4       010RIOSULENSE  PN           R$  000000000672100000000069570000000006703000000000679700000000069570000000006752000000000699000019000000000000002400000000000016314400000000000000009999123100000010000000000000BRRSULACNPR3114
012024070302SANB11      010SANTANDER BRUNT          R$  000000000275400000000027760000000002729000000000275400000000027580000000002756000000000276206094000000000001605100000000004420579700000000000000009999123100000010000000000000BRSANBCDAM13164
012024070302SANB3       010SANTANDER BRON           R$  000000000129700000000013190000000001295000000000130200000000013100000000001306000000000131000397000000000000070800000000000092251700000000000000009999123100000010000000000000BRSANBACNOR8171
012024070302SANB4       010SANTANDER BRPN           R$  000000000145000000000014610000000001438000000000145100000000014500000000001450000000000145500437000000000000073200000000000106231400000000000000009999123100000010000000000000BRSANBACNPR5171
012024070302TIMS3       010TIM         ON  EJ  NM   R$  000000000158900000000016080000000001565000000000158300000000015650000000001564000000000157215656000000000007673400000000012148842800000000000000009999123100000010000000000000BRTIMSACNOR5117
012024070302TASA3       010TAURUS ARMASON      N2   R$  000000000124000000000012450000000001200000000000122600000000012370000000001233000000000123700033000000000000005200000000000006379500000000000000009999123100000010000000000000BRTASAACNOR7104
012024070302TASA4       010TAURUS ARMASPN      N2   R$  000000000119000000000012240000000001190000000000121100000000012030000000001202000000000120501264000000000000296000000000000358650300000000000000009999123100000010000000000000BRTASAACNPR4104
012024070302TCSA3       010TECNISA     ON      NM   R$  000000000019600000000002020000000000196000000000019800000000001970000000000197000000000019900181000000000000055100000000000010958300000000000000009999123100000010000000000000BRTCSAACNOR3112
012024070302TECN3       010TECHNOS     ON      NM   R$  000000000051500000000005390000000000494000000000052300000000005250000000000521000000000052504206000000000001874200000000000981101400000000000000009999123100000010000000000000BRTECNACNOR6109
012024070302TELB3       010TELEBRAS    ON           R$  000000000125200000000012790000000001252000000000126500000000012790000000001260000000000129400002000000000000000200000000000000253100000000000000009999123100000010000000000000BRTELBACNOR2140
012024070302TELB4       010TELEBRAS    PN           R$  000000000087200000000008780000000000870000000000087300000000008780000000000870000000000088000007000000000000000800000000000000698500000000000000009999123100000010000000000000BRTELBACNPR9140
012024070302TEND3       010TENDA       ON      NM   R$  000000000108100000000011130000000001076000000000109900000000011040000000001104000000000110504624000000000001611600000000001772036500000000000000009999123100000010000000000000BRTENDACNOR4111
012024070302TFCO4       010TRACK FIELD PN  EJ  N2   R$  000000000107600000000011090000000001065000000000109200000000011090000000001109000000000111000883000000000000168700000000000184241400000000000000009999123100000010000000000000BRTFCOACNPR8114
012024070302TGMA3       010TEGMA       ON      NM   R$  000000000246400000000025050000000002461000000000249500000000025050000000002502000000000250500564000000000000085700000000000213839900000000000000009999123100000010000000000000BRTGMAACNOR7144
012024070302VAMO3       010VAMOS       ON      NM   R$  000000000076300000000008080000000000763000000000079400000000008070000000000806000000000080813404000000000007044000000000005593754200000000000000009999123100000010000000000000BRVAMOACNOR7105
012024070302VBBR3       010VIBRA       ON  EJ  NM   R$  000000000203600000000021280000000002036000000000210300000000021020000000002102000000000211421548000000000006509500000000013693455600000000000000009999123100000010000000000000BRVBBRACNOR1108
012024070302BBSE3       010BBSEGURIDADEON      NM   R$  000000000329900000000033150000000003286000000000330100000000032970000000003296000000000329715492000000000007384100000000024375708500000000000000009999123100000010000000000000BRBBSEACNOR5124
012024070302BPAC11      010BTGP BANCO  UNT     N2   R$  000000000316000000000032570000000003158000000000322700000000032290000000003227000000000323247276000000000012432700000000040132609200000000000000009999123100000010000000000000BRBPACUNT006118
012024070302BPAC3       010BTGP BANCO  ON      N2   R$  000000000158900000000016010000000001555000000000156400000000016010000000001561000000000160300052000000000000006100000000000009545600000000000000009999123100000010000000000000BRBPACACNOR7133
012024070302BPAC5       010BTGP BANCO  PNA     N2   R$  000000000079700000000008380000000000797000000000081800000000008170000000000817000000000082500091000000000000023400000000000019159400000000000000009999123100000010000000000000BRBPACACNPA0133
012024070302CPFE3       010CPFL ENERGIAON      NM   R$  000000000328000000000033290000000003277000000000331000000000033090000000003303000000000331005165000000000001059000000000003505456400000000000000009999123100000010000000000000BRCPFEACNOR0137
012024070302CPLE3       010COPEL       ON      N2   R$  000000000083500000000008510000000000835000000000084600000000008440000000000843000000000084505410000000000002688000000000002274283400000000000000009999123100000010000000000000BRCPLEACNOR8149
012024070302EZTC3       010EZTEC       ON      NM   R$  000000000130700000000013290000000001300000000000131100000000013000000000001300000000000130403703000000000001499900000000001967446200000000000000009999123100000010000000000000BREZTCACNOR0125
012024070302TOTS3       010TOTVS       ON      NM   R$  000000000295400000000030000000000002953000000000298100000000029650000000002964000000000297009684000000000001876500000000005594171700000000000000009999123100000010000000000000BRTOTSACNOR8144
012024070302TPIS3       010TRIUNFO PARTON      NM   R$  000000000038900000000003990000000000378000000000038300000000003850000000000385000000000038800341000000000000105400000000000040382000000000000000009999123100000010000000000000BRTPISACNOR8118
012024070302TRAD3       010TC          ON      NM   R$  000000000005000000000000520000000000049000000000005000000000000520000000000051000000000005200235000000000000818300000000000041546300000000000000009999123100000010000000000000BRTRADACNOR3101
012024070302TRIS3       010TRISUL      ON      NM   R$  000000000049100000000005090000000000491000000000050200000000005010000000000500000000000050401933000000000000946500000000000475745600000000000000009999123100000010000000000000BRTRISACNOR4118
012024070302TRPL3       010TRAN PAULISTON      N1   R$  000000000341500000000034150000000003400000000000341200000000034000000000003366000000000344900004000000000000000500000000000001706000000000000000009999123100000010000000000000BRTRPLACNOR4185
012024070302TRPL4       010TRAN PAULISTPN      N1   R$  000000000268400000000026980000000002670000000000268200000000026700000000002670000000000267406927000000000001250200000000003353425600000000000000009999123100000010000000000000BRTRPLACNPR1185
012024070302TTEN3       0103TENTOS     ON      NM   R$  000000000102100000000010430000000001020000000000102700000000010200000000001020000000000102503278000000000000561500000000000576964100000000000000009999123100000010000000000000BRTTENACNOR0103
012024070302TUPY3       010TUPY        ON      NM   R$  000000000238100000000024590000000002379000000000243000000000024380000000002436000000000245003266000000000000575500000000001398469200000000000000009999123100000010000000000000BRTUPYACNOR1184
012024070302VITT3       010VITTIA      ON      NM   R$  000000000060700000000006080000000000590000000000059700000000005920000000000591000000000059702830000000000000638900000000000381674500000000000000009999123100000010000000000000BRVITTACNOR4107
012024070302VIVA3       010VIVARA S.A. ON      NM   R$  000000000211000000000021790000000002110000000000215500000000021630000000002161000000000216408611000000000002695700000000005809940200000000000000009999123100000010000000000000BRVIVAACNOR0107
012024070302VIVR3       010VIVER       ON      NM   R$  000000000023600000000002400000000000234000000000023600000000002380000000000235000000000023800076000000000000024000000000000005673700000000000000009999123100000010000000000000BRVIVRACNOR4123
012024070302VIVT3       010TELEF BRASILON  EJ       R$  000000000457200000000046520000000004540000000000458400000000045500000000004546000000000455011590000000000002271200000000010413260200000000000000009999123100000010000000000000BRVIVTACNOR0182
012024070302PFRM3       010PROFARMA    ON      NM   R$  000000000051000000000005270000000000510000000000052200000000005190000000000519000000000052000346000000000000110400000000000057656400000000000000009999123100000010000000000000BRPFRMACNOR1116
012024070302ROMI3       010ROMI        ON      NM   R$  000000000104600000000010990000000001046000000000107800000000010960000000001094000000000109601284000000000000338200000000000364831500000000000000009999123100000010000000000000BRROMIACNOR8195
012024070302ESPA3       010ESPACOLASER ON      NM   R$  000000000010000000000001020000000000099000000000010000000000001020000000000101000000000010200196000000000000636900000000000064201000000000000000009999123100000010000000000000BRESPAACNOR7103
012024070302EUCA3       010EUCATEX     ON      N1   R$  000000000150100000000015010000000001501000000000150100000000015010000000001505000000000158000001000000000000000100000000000000150100000000000000009999123100000010000000000000BREUCAACNOR1157
012024070302EUCA4       010EUCATEX     PN      N1   R$  000000000152700000000015410000000001506000000000152700000000015260000000001526000000000153600119000000000000018900000000000028864800000000000000009999123100000010000000000000BREUCAACNPR8044
012024070302EVEN3       010EVEN        ON      NM   R$  000000000064700000000006640000000000647000000000065700000000006560000000000655000000000065902561000000000000649300000000000426788800000000000000009999123100000010000000000000BREVENACNOR8119
012024070302RRRP3       0103R PETROLEUMON      NM   R$  000000000280000000000028600000000002800000000000282100000000028040000000002804000000000280512102000000000002575000000000007264440600000000000000009999123100000010000000000000BRRRRPACNOR5103
012024070302TAEE11      010TAESA       UNT     N2   R$  000000000344700000000034730000000003447000000000346000000000034570000000003456000000000345704702000000000001110700000000003843308100000000000000009999123100000010000000000000BRTAEECDAM10147
012024070302TAEE3       010TAESA       ON      N2   R$  000000000114000000000011480000000001140000000000114400000000011470000000001144000000000114700416000000000000105000000000000120214700000000000000009999123100000010000000000000BRTAEEACNOR9147
012024070302TAEE4       010TAESA       PN      N2   R$  000000000115500000000011620000000001155000000000115800000000011560000000001156000000000115800574000000000000148900000000000172481400000000000000009999123100000010000000000000BRTAEEACNPR6147
012024070302EALT3       010ACO ALTONA  ON           R$  000000000110200000000011020000000001102000000000110200000000011020000000000000000000000110300002000000000000000300000000000000330600000000000000009999123100000010000000000000BREALTACNOR4138
012024070302EALT4       010ACO ALTONA  PN           R$  000000000112500000000011250000000001111000000000111800000000011220000000001111000000000112200021000000000000008700000000000009730400000000000000009999123100000010000000000000BREALTACNPR1138
012024070302ECOR3       010ECORODOVIAS ON      NM   R$  000000000067600000000007250000000000676000000000071200000000007220000000000721000000000072209022000000000005745700000000004091753600000000000000009999123100000010000000000000BRECORACNOR8120
012024070302GGPS3       010GPS         ON      NM   R$  000000000167000000000017220000000001670000000000170200000000016990000000001699000000000170009869000000000004590800000000007816249900000000000000009999123100000010000000000000BRGGPSACNOR9103
012024070302GMAT3       010GRUPO MATEUSON      NM   R$  000000000068700000000007130000000000686000000000070100000000006980000000000694000000000069908135000000000006751800000000004733566900000000000000009999123100000010000000000000BRGMATACNOR7102
012024070302GOAU3       010GERDAU MET  ON      N1   R$  000000000108100000000011020000000001080000000000108600000000010810000000001080000000000108600125000000000000044300000000000048137300000000000000009999123100000010000000000000BRGOAUACNOR1267
012024070302GOAU4       010GERDAU MET  PN      N1   R$  000000000109000000000010970000000001069000000000107900000000010720000000001071000000000107314487000000000007954700000000008589670700000000000000009999123100000010000000000000BRGOAUACNPR8268
012024070302CXSE3       010CAIXA SEGURION      NM   R$  000000000143200000000014620000000001432000000000144300000000014350000000001434000000000143509726000000000002952100000000004260922900000000000000009999123100000010000000000000BRCXSEACNOR7106
012024070302FESA4       010FERBASA     PN      N1   R$  000000000080600000000008280000000000805000000000081800000000008150000000000814000000000081501613000000000000553000000000000452388500000000000000009999123100000010000000000000BRFESAACNPR5084
012024070302FHER3       010FER HERINGERON      NM   R$  000000000037800000000003820000000000375000000000037800000000003820000000000379000000000038200029000000000000010300000000000003895000000000000000009999123100000010000000000000BRFHERACNOR5103
012024070302FIEI3       010FICA        ON           R$  000000000110000000000011000000000001100000000000110000000000011000000000001050000000000115000001000000000000003000000000000003300000000000000000009999123100000010000000000000BRFIEIACNOR2100
012024070302JALL3       010JALLESMACHADON      NM   R$  000000000076500000000007710000000000742000000000075100000000007510000000000750000000000075102668000000000000855600000000000643234100000000000000009999123100000010000000000000BRJALLACNOR0105
012024070302MILS3       010MILLS       ON  EJ  NM   R$  000000000104900000000010810000000001042000000000106500000000010660000000001065000000000106603647000000000001054800000000001124241500000000000000009999123100000010000000000000BRMILSACNOR2127
012024070302MLAS3       010MULTILASER  ON      NM   R$  000000000019300000000002010000000000193000000000019600000000001980000000000197000000000019904072000000000002906800000000000570344500000000000000009999123100000010000000000000BRMLASACNOR9101
012024070302MNDL3       010MUNDIAL     ON           R$  000000000122100000000012990000000001221000000000127200000000012990000000001223000000000136300005000000000000000600000000000000763600000000000000009999123100000010000000000000BRMNDLACNOR4109
012024070302MNPR3       010MINUPAR     ON           R$  000000000133400000000014000000000001250000000000131600000000013200000000001244000000000132200065000000000000015900000000000020932900000000000000009999123100000010000000000000BRMNPRACNOR5122
012024070302MOVI3       010MOVIDA      ON      NM   R$  000000000059700000000006230000000000597000000000061400000000006110000000000611000000000061408447000000000005510000000000003384492600000000000000009999123100000010000000000000BRMOVIACNOR0122
012024070302MRFG3       010MARFRIG     ON      NM   R$  000000000129500000000012990000000001201000000000123300000000012020000000001202000000000120320208000000000008903600000000010979144000000000000000009999123100000010000000000000BRMRFGACNOR0116
012024070302BMEB4       010MERCANTIL   PN      N1   R$  000000000285600000000028940000000002782000000000285000000000028230000000002780000000000287400053000000000000008200000000000023371100000000000000009999123100000010000000000000BRBMEBACNPR5210
012024070302BMGB4       010BANCO BMG   PN      N1   R$  000000000033800000000003420000000000337000000000033900000000003400000000000340000000000034100791000000000000467500000000000158763700000000000000009999123100000010000000000000BRBMGBACNPR0109
012024070302BMIN4       010MERC INVEST PN           R$  000000000153600000000015360000000001536000000000153600000000015360000000001548000000000161100001000000000000000100000000000000153600000000000000009999123100000010000000000000BRBMINACNPR1176
012024070302BMKS3       010BIC MONARK  ON           R$  000000003300000000000354900000000033000000000003385800000000354900000000032421000000003549000012000000000000000029000000000000981900000000000000009999123100000010000000000000BRBMKSACNOR9166
012024070302BMOB3       010BEMOBI TECH ON      NM   R$  000000000133800000000013800000000001338000000000137200000000013760000000001376000000000138201319000000000000196100000000000269099500000000000000009999123100000010000000000000BRBMOBACNOR7103
012024070302BOBR4       010BOMBRIL     PN           R$  000000000020100000000002040000000000200000000000020100000000002020000000000201000000000020200036000000000000021200000000000004265100000000000000009999123100000010000000000000BRBOBRACNPR3128
012024070302BRSR3       010BANRISUL    ON      N1   R$  000000000120500000000012100000000001201000000000120400000000012100000000001204000000000121400038000000000000011200000000000013487600000000000000009999123100000010000000000000BRBRSRACNOR3188
012024070302BRSR6       010BANRISUL    PNB     N1   R$  000000000113600000000011550000000001136000000000114400000000011410000000001141000000000114303207000000000000782700000000000895760500000000000000009999123100000010000000000000BRBRSRACNPB4191
012024070302BSLI3       010BRB BANCO   ON           R$  000000000099700000000009970000000000997000000000099700000000009970000000000954000000000099900001000000000000000100000000000000099700000000000000009999123100000010000000000000BRBSLIACNOR5194
012024070302BSLI4       010BRB BANCO   PN           R$  000000000097500000000011120000000000975000000000110500000000011120000000001112000000000129500016000000000000002200000000000002432500000000000000009999123100000010000000000000BRBSLIACNPR2194
012024070302CAMB3       010CAMBUCI     ON           R$  000000000102800000000010400000000001026000000000103400000000010350000000001033000000000103500078000000000000021000000000000021734200000000000000009999123100000010000000000000BRCAMBACNOR4130
012024070302CAML3       010CAMIL       ON      NM   R$  000000000083700000000008460000000000831000000000083800000000008350000000000835000000000083701550000000000000490400000000000411298900000000000000009999123100000010000000000000BRCAMLACNOR3128
012024070302CASH3       010MELIUZ      ON      NM   R$  000000000055100000000005800000000000551000000000056800000000005730000000000567000000000057304223000000000001985600000000001129771200000000000000009999123100000010000000000000BRCASHACNOR8106
012024070302CYRE3       010CYRELA REALTON      NM   R$  000000000189700000000019340000000001897000000000191800000000019110000000001910000000000191211495000000000004694900000000009005744600000000000000009999123100000010000000000000BRCYREACNOR7140
012024070302DASA3       010DASA        ON      NM   R$  000000000028600000000002940000000000285000000000028900000000002920000000000289000000000029202344000000000001265000000000000366527000000000000000009999123100000010000000000000BRDASAACNOR1122
012024070302DESK3       010DESKTOP     ON      NM   R$  000000000141200000000014590000000001412000000000143900000000014510000000001445000000000145301235000000000000398600000000000573950800000000000000009999123100000010000000000000BRDESKACNOR2104
012024070302GGBR3       010GERDAU      ON      N1   R$  000000000163900000000016650000000001625000000000164700000000016290000000001629000000000163400170000000000000031100000000000051252500000000000000009999123100000010000000000000BRGGBRACNOR1192
012024070302GGBR4       010GERDAU      PN      N1   R$  000000000186300000000018840000000001828000000000185400000000018340000000001833000000000183424125000000000011540000000000021396834400000000000000009999123100000010000000000000BRGGBRACNPR8192
012024070302PTBL3       010PORTOBELLO  ON      NM   R$  000000000045600000000004760000000000456000000000046800000000004680000000000467000000000047300998000000000000504400000000000236282800000000000000009999123100000010000000000000BRPTBLACNOR8132
012024070302PTNT3       010PETTENATI   ON           R$  000000000097900000000009790000000000944000000000096700000000009790000000000951000000000097700003000000000000000300000000000000290200000000000000009999123100000010000000000000BRPTNTACNOR6042
012024070302PTNT4       010PETTENATI   PN           R$  000000000061200000000006160000000000610000000000061200000000006160000000000602000000000062800007000000000000001500000000000000919300000000000000009999123100000010000000000000BRPTNTACNPR3047
012024070302QUAL3       010QUALICORP   ON      NM   R$  000000000014100000000001570000000000141000000000015000000000001560000000000155000000000015703595000000000008786800000000001321452600000000000000009999123100000010000000000000BRQUALACNOR6120
012024070302RADL3       010RAIADROGASILON      NM   R$  000000000255000000000025870000000002535000000000256300000000025640000000002554000000000256412272000000000005888600000000015098060900000000000000009999123100000010000000000000BRRADLACNOR0156
012024070302PRNR3       010PRINER      ON      NM   R$  000000000106000000000010820000000001054000000000107000000000010720000000001070000000000107301149000000000000266100000000000284955600000000000000009999123100000010000000000000BRPRNRACNOR4109
012024070302PSSA3       010PORTO SEGUROON  EJ  NM   R$  000000000302900000000030480000000003003000000000302400000000030060000000003003000000000301206000000000000001032400000000003122736400000000000000009999123100000010000000000000BRPSSAACNOR7155
012024070302SCAR3       010SAO CARLOS  ON      NM   R$  000000000231200000000023380000000002300000000000232800000000023380000000002325000000000234500021000000000000003400000000000007916400000000000000009999123100000010000000000000BRSCARACNOR7131
012024070302SEER3       010SER EDUCA   ON      NM   R$  000000000048000000000005190000000000480000000000050500000000005110000000000511000000000051701475000000000000672200000000000339962100000000000000009999123100000010000000000000BRSEERACNOR5119
012024070302SEQL3       010SEQUOIA LOG ON      NM   R$  000000000040000000000004800000000000398000000000045100000000004700000000000468000000000047001895000000000001032100000000000465581200000000000000009999123100000010000000000000BRSEQLACNOR2103
012024070302SHOW3       010TIME FOR FUNON      NM   R$  000000000015400000000001580000000000151000000000015400000000001520000000000152000000000015400334000000000000304700000000000047008900000000000000009999123100000010000000000000BRSHOWACNOR7105
012024070302SHUL4       010SCHULZ      PN  EJ       R$  000000000060100000000006180000000000601000000000061200000000006130000000000613000000000061700728000000000000234300000000000143505000000000000000009999123100000010000000000000BRSHULACNPR4156
012024070302SIMH3       010SIMPAR      ON      NM   R$  000000000053900000000005860000000000539000000000056900000000005860000000000582000000000058607252000000000005362300000000003053236700000000000000009999123100000010000000000000BRSIMHACNOR0107
012024070302SLCE3       010SLC AGRICOLAON      NM   R$  000000000191900000000019360000000001888000000000190400000000018880000000001888000000000189507497000000000002341500000000004459464000000000000000009999123100000010000000000000BRSLCEACNOR2125
012024070302VALE3       010VALE        ON      NM   R$  000000000634600000000064840000000006345000000000643500000000064180000000006417000000000642070607000000000029884200000000192326648700000000000000009999123100000010000000000000BRVALEACNOR0210
012024070302WEST3       010WESTWING    ON      NM   R$  000000000009200000000000920000000000087000000000008900000000000910000000000090000000000009100243000000000000114800000000000010250900000000000000009999123100000010000000000000BRWESTACNOR3100
012024070302IFCM3       010INFRACOMM   ON      NM   R$  000000000003400000000000350000000000032000000000003300000000000330000000000032000000000003302241000000000013760800000000000456234300000000000000009999123100000010000000000000BRIFCMACNOR8101
012024070302IGTI11      010IGUATEMI S.AUNT     N1   R$  000000000208100000000021200000000002068000000000209400000000020930000000002092000000000209412734000000000002613000000000005473134800000000000000009999123100000010000000000000BRIGTICDAM16106
012024070302IGTI3       010IGUATEMI S.AON      N1   R$  000000000026000000000002660000000000260000000000026200000000002620000000000262000000000026400099000000000000046700000000000012278100000000000000009999123100000010000000000000BRIGTIACNOR8106
012024070302IGTI4       010IGUATEMI S.APN      N1   R$  000000000090800000000009080000000000908000000000090800000000009080000000000771000000000108600001000000000000000200000000000000181600000000000000009999123100000010000000000000BRIGTIACNPR5106
012024070302INEP3       010INEPAR      ON           R$  000000000019200000000001960000000000185000000000018900000000001880000000000186000000000019000203000000000000133200000000000025289500000000000000009999123100000010000000000000BRINEPACNOR1143
012024070302INEP4       010INEPAR      PN           R$  000000000017600000000001830000000000176000000000017800000000001760000000000176000000000017900083000000000000045000000000000008022600000000000000009999123100000010000000000000BRINEPACNPR8143
012024070302INTB3       010INTELBRAS   ON      NM   R$  000000000228100000000023000000000002252000000000227900000000022810000000002278000000000229304045000000000000833200000000001899576500000000000000009999123100000010000000000000BRINTBACNOR9111
012024070302IRBR3       010IRBBRASIL REON      NM   R$  000000000309500000000031570000000003095000000000313900000000031310000000003126000000000313202837000000000000662600000000002080129800000000000000009999123100000010000000000000BRIRBRACNOR4111
012024070302LUPA3       010LUPATECH    ON      NM   R$  000000000015800000000001620000000000157000000000015900000000001610000000000160000000000016100206000000000000242900000000000038764900000000000000009999123100000010000000000000BRLUPAACNOR8112
012024070302LVTC3       010WDC NETWORKSON      NM   R$  000000000034400000000003580000000000343000000000035000000000003500000000000349000000000035000054000000000000013000000000000004561300000000000000009999123100000010000000000000BRLVTCACNOR4102
012024070302LWSA3       010LWSA        ON      NM   R$  000000000039500000000004100000000000395000000000040400000000004060000000000406000000000040806791000000000006601200000000002670797800000000000000009999123100000010000000000000BRLWSAACNOR8103
012024070302ASAI3       010ASSAI       ON      NM   R$  000000000100000000000010640000000001000000000000104200000000010500000000001050000000000105238871000000000029182300000000030431449000000000000000009999123100000010000000000000BRASAIACNOR0106
012024070302ATOM3       010ATOMPAR     ON           R$  000000000019300000000002000000000000193000000000019800000000001970000000000196000000000019700023000000000000023800000000000004718100000000000000009999123100000010000000000000BRATOMACNOR1106
012024070302AURE3       010AUREN       ON      NM   R$  000000000122500000000012340000000001221000000000122700000000012210000000001221000000000122205247000000000002265800000000002780609400000000000000009999123100000010000000000000BRAUREACNOR9104
012024070302AZEV3       010AZEVEDO     ON           R$  000000000015400000000001580000000000153000000000015500000000001550000000000155000000000015600492000000000000395400000000000061521600000000000000009999123100000010000000000000BRAZEVACNOR0121
012024070302AZEV4       010AZEVEDO     PN           R$  000000000014500000000001530000000000145000000000014900000000001510000000000150000000000015101422000000000003494600000000000522930600000000000000009999123100000010000000000000BRAZEVACNPR7121
012024070302CPLE6       010COPEL       PNB     N2   R$  000000000094000000000009560000000000939000000000095100000000009490000000000947000000000094914457000000000006532500000000006215197000000000000000009999123100000010000000000000BRCPLEACNPB9146
012024070302CRFB3       010CARREFOUR BRON      NM   R$  000000000091100000000009660000000000911000000000095100000000009630000000000963000000000096423060000000000009879200000000009395618200000000000000009999123100000010000000000000BRCRFBACNOR2116
012024070302CRPG5       010CRISTAL     PNA          R$  000000000293800000000029380000000002907000000000291200000000029070000000002907000000000294500013000000000000002100000000000006115400000000000000009999123100000010000000000000BRCRPGACNPA3119
012024070302CRPG6       010CRISTAL     PNB          R$  000000000294900000000029500000000002949000000000294900000000029500000000002940000000000299700002000000000000000200000000000000589900000000000000009999123100000010000000000000BRCRPGACNPB1119
012024070302CSAN3       010COSAN       ON      NM   R$  000000000136700000000014040000000001366000000000139100000000013900000000001389000000000139119470000000000008970000000000012477804700000000000000009999123100000010000000000000BRCSANACNOR6126
012024070302ELMD3       010ELETROMIDIA ON      NM   R$  000000000177100000000017810000000001737000000000175300000000017370000000001736000000000175500356000000000000093400000000000163811700000000000000009999123100000010000000000000BRELMDACNOR3101
012024070302EMAE4       010EMAE        PN           R$  000000000473900000000048000000000004730000000000475500000000047680000000004677000000000476900017000000000000003500000000000016645700000000000000009999123100000010000000000000BREMAEACNPR1125
012024070302EMBR3       010EMBRAER     ON      NM   R$  000000000367600000000037620000000003659000000000372600000000037500000000003748000000000375014567000000000004228000000000015756964100000000000000009999123100000010000000000000BREMBRACNOR4191
012024070302KRSA3       010KORA SAUDE  ON      NM   R$  000000000006400000000000650000000000060000000000006200000000000620000000000062000000000006301252000000000002698200000000000169309200000000000000009999123100000010000000000000BRKRSAACNOR0100
012024070302LAND3       010TERRASANTAPAON      NM   R$  000000000146900000000014970000000001449000000000147800000000014850000000001482000000000148500246000000000000056300000000000083265300000000000000009999123100000010000000000000BRLANDACNOR9103
012024070302LAVV3       010LAVVI       ON      NM   R$  000000000085100000000008700000000000851000000000086000000000008590000000000859000000000086302199000000000000980700000000000843621800000000000000009999123100000010000000000000BRLAVVACNOR4112
012024070302LEVE3       010METAL LEVE  ON      NM   R$  000000000320900000000032700000000003209000000000325100000000032650000000003253000000000326501642000000000000336700000000001094789300000000000000009999123100000010000000000000BRLEVEACNOR2197
012024070302LJQQ3       010QUERO-QUERO ON      NM   R$  000000000038000000000004070000000000379000000000039500000000003970000000000396000000000039806833000000000006182300000000002447547900000000000000009999123100000010000000000000BRLJQQACNOR5104
012024070302LOGG3       010LOG COM PROPON      NM   R$  000000000232700000000023850000000002318000000000234900000000023610000000002361000000000236702134000000000000270600000000000635797000000000000000009999123100000010000000000000BRLOGGACNOR7107
012024070302LOGN3       010LOG-IN      ON      NM   R$  000000000372400000000038720000000003724000000000382200000000038370000000003832000000000385100152000000000000020300000000000077599800000000000000009999123100000010000000000000BRLOGNACNOR3105
012024070302LPSB3       010LOPES BRASILON      NM   R$  000000000018000000000001910000000000180000000000018700000000001890000000000186000000000018900155000000000000058700000000000010978700000000000000009999123100000010000000000000BRLPSBACNOR0114
012024070302LREN3       010LOJAS RENNERON  EJ  NM   R$  000000000122800000000012710000000001225000000000125500000000012430000000001242000000000124346135000000000021174400000000026582964500000000000000009999123100000010000000000000BRLRENACNOR1221
012024070302USIM3       010USIMINAS    ON      N1   R$  000000000075500000000007790000000000755000000000077300000000007690000000000768000000000077201111000000000000349000000000000270071700000000000000009999123100000010000000000000BRUSIMACNOR3167
012024070302USIM5       010USIMINAS    PNA     N1   R$  000000000080700000000008140000000000799000000000080500000000007990000000000798000000000079909039000000000006412200000000005165478400000000000000009999123100000010000000000000BRUSIMACNPA6169
012024070302VLID3       010VALID       ON      NM   R$  000000000153900000000015670000000001536000000000155000000000015510000000001551000000000155203204000000000000404500000000000627209800000000000000009999123100000010000000000000BRVLIDACNOR5143
012024070302VSTE3       010VESTE       ON      NM   R$  000000000157000000000015760000000001509000000000154900000000015090000000001509000000000151000053000000000000006000000000000009299700000000000000009999123100000010000000000000BRVSTEACNOR5103
012024070302ODPV3       010ODONTOPREV  ON  EJ  NM   R$  000000000115100000000011840000000001151000000000116600000000011840000000001176000000000118402388000000000001563800000000001823428600000000000000009999123100000010000000000000BRODPVACNOR4202
012024070302OFSA3       010OUROFINO S/AON      NM   R$  000000000192000000000019200000000001895000000000189800000000018990000000001898000000000190800014000000000000002400000000000004557300000000000000009999123100000010000000000000BROFSAACNOR7118
012024070302ALPA4       010ALPARGATAS  PN      N1   R$  000000000089700000000009100000000000894000000000090200000000008980000000000898000000000089907382000000000002421100000000002184929200000000000000009999123100000010000000000000BRALPAACNPR7232
012024070302ALPK3       010ESTAPAR     ON      NM   R$  000000000031300000000003290000000000312000000000032100000000003290000000000323000000000032900371000000000000114700000000000036839200000000000000009999123100000010000000000000BRALPKACNOR9101
012024070302ALUP11      010ALUPAR      UNT     N2   R$  000000000299200000000030400000000002992000000000303100000000030300000000003024000000000303002282000000000000451500000000001368804300000000000000009999123100000010000000000000BRALUPCDAM15119
012024070302ALUP3       010ALUPAR      ON      N2   R$  000000000102100000000010310000000001010000000000102600000000010310000000001030000000000103100144000000000000026400000000000027106100000000000000009999123100000010000000000000BRALUPACNOR8119
012024070302ALUP4       010ALUPAR      PN      N2   R$  000000000099900000000010080000000000999000000000100200000000010000000000001000000000000100800117000000000000025000000000000025068200000000000000009999123100000010000000000000BRALUPACNPR5119
012024070302AMAR3       010LOJAS MARISAON      NM   R$  000000000013700000000001450000000000137000000000014000000000001410000000000141000000000014300945000000000000492400000000000069409100000000000000009999123100000010000000000000BRAMARACNOR4115
012024070302AMBP3       010AMBIPAR     ON      NM   R$  000000000167100000000017650000000001564000000000168900000000016800000000001678000000000168019620000000000010122200000000017096711900000000000000009999123100000010000000000000BRAMBPACNOR6103
012024070302ANIM3       010ANIMA       ON      NM   R$  000000000032500000000003470000000000321000000000033800000000003430000000000343000000000034419704000000000008584000000000002905523300000000000000009999123100000010000000000000BRANIMACNOR6107
012024070302APER3       010ALPER S.A.  ON           R$  000000000443500000000045310000000004435000000000449900000000045310000000004575000000000460000003000000000000000300000000000001349700000000000000009999123100000010000000000000BRAPERACNOR9106
012024070302ARML3       010ARMAC       ON      NM   R$  000000000101400000000010790000000001005000000000106000000000010580000000001056000000000105906592000000000001860200000000001972212500000000000000009999123100000010000000000000BRARMLACNOR1111
012024070302ARZZ3       010AREZZO CO   ON      NM   R$  000000000514000000000052030000000005100000000000514200000000051360000000005121000000000513807847000000000001595300000000008203343600000000000000009999123100000010000000000000BRARZZACNOR3146
012024070302HBSA3       010HIDROVIAS   ON      NM   R$  000000000037800000000003940000000000378000000000039000000000003860000000000385000000000038805401000000000002000400000000000780413800000000000000009999123100000010000000000000BRHBSAACNOR0100
012024070302HYPE3       010HYPERA      ON  EJ  NM   R$  000000000289100000000029210000000002862000000000289400000000028880000000002885000000000289011582000000000003188600000000009227844900000000000000009999123100000010000000000000BRHYPEACNOR0142
012024070302PETZ3       010PETZ        ON      NM   R$  000000000037100000000003820000000000367000000000037400000000003760000000000374000000000037607725000000000006736000000000002524084600000000000000009999123100000010000000000000BRPETZACNOR2110
012024070302SYNE3       010SYN PROP TECON      NM   R$  000000000093300000000009500000000000922000000000093200000000009270000000000926000000000092702068000000000000532000000000000496252300000000000000009999123100000010000000000000BRSYNEACNOR2102
012024070302RAPT3       010RANDON PART ON      N1   R$  000000000095800000000010000000000000958000000000097800000000010000000000001000000000000100200406000000000000129800000000000126964900000000000000009999123100000010000000000000BRRAPTACNOR7162
012024070302RAPT4       010RANDON PART PN      N1   R$  000000000111600000000011680000000001116000000000115200000000011610000000001160000000000116108658000000000002423000000000002793287100000000000000009999123100000010000000000000BRRAPTACNPR4162
012024070302JSLG3       010JSL         ON      NM   R$  000000000093900000000009750000000000939000000000096300000000009730000000000966000000000097301545000000000000420800000000000405286900000000000000009999123100000010000000000000BRJSLGACNOR2121
012024070302KEPL3       010KEPLER WEBERON  ED  NM   R$  000000000093500000000009730000000000932000000000096000000000009700000000000967000000000097002123000000000000706800000000000679059300000000000000009999123100000010000000000000BRKEPLACNOR1063
012024070302KLBN11      010KLABIN S/A  UNT     N2   R$  000000000218100000000022040000000002132000000000215600000000021460000000002144000000000214716885000000000005361600000000011559877600000000000000009999123100000010000000000000BRKLBNCDAM18142
012024070302KLBN3       010KLABIN S/A  ON      N2   R$  000000000043300000000004420000000000427000000000043200000000004280000000000428000000000042900849000000000000332000000000000143733400000000000000009999123100000010000000000000BRKLBNACNOR2170
012024070302KLBN4       010KLABIN S/A  PN      N2   R$  000000000043300000000004400000000000427000000000043100000000004270000000000427000000000042801678000000000001193200000000000514795900000000000000009999123100000010000000000000BRKLBNACNPR9170
012024070302MTRE3       010MITRE REALTYON      NM   R$  000000000035900000000003740000000000359000000000036400000000003680000000000367000000000036801799000000000001141000000000000416021000000000000000009999123100000010000000000000BRMTREACNOR6112
012024070302MTSA4       010METISA      PN           R$  000000000453700000000045370000000004410000000000448000000000045200000000004100000000000452000014000000000000001800000000000008064500000000000000009999123100000010000000000000BRMTSAACNPR9072
012024070302MULT3       010MULTIPLAN   ON  EJ  N2   R$  000000000227600000000023270000000002274000000000231000000000023180000000002315000000000232316564000000000004803800000000011098586300000000000000009999123100000010000000000000BRMULTACNOR5139
012024070302MWET4       010WETZEL S/A  PN           R$  000000000083500000000008370000000000835000000000083600000000008370000000000837000000000086000003000000000000002100000000000001757500000000000000009999123100000010000000000000BRMWETACNPR3118
012024070302MYPK3       010IOCHP-MAXIONON  EJ  NM   R$  000000000113000000000011780000000001130000000000116600000000011750000000001169000000000117505026000000000001060000000000001236726200000000000000009999123100000010000000000000BRMYPKACNOR7155
012024070302RCSL3       010RECRUSUL    ON           R$  000000000027800000000002840000000000276000000000027900000000002800000000000280000000000028100270000000000000136800000000000038263100000000000000009999123100000010000000000000BRRCSLACNOR4134
012024070302RCSL4       010RECRUSUL    PN           R$  000000000011900000000001270000000000119000000000012300000000001260000000000125000000000012602278000000000002226000000000000275424500000000000000009999123100000010000000000000BRRCSLACNPR1134
012024070302RDNI3       010RNI         ON      NM   R$  000000000030600000000003090000000000306000000000030600000000003060000000000306000000000030900009000000000000002100000000000000643200000000000000009999123100000010000000000000BRRDNIACNOR9116
012024070302RDOR3       010REDE D OR   ON  EJ  NM   R$  000000000271500000000027650000000002689000000000272700000000027450000000002744000000000274514554000000000005416500000000014773380400000000000000009999123100000010000000000000BRRDORACNOR8113
012024070302RECV3       010PETRORECSA  ON      NM   R$  000000000203700000000020800000000002021000000000205400000000020350000000002035000000000203808298000000000002110900000000004336145100000000000000009999123100000010000000000000BRRECVACNOR3107
012024070302REDE3       010REDE ENERGIAON           R$  000000000069400000000007260000000000693000000000071800000000007250000000000719000000000072500063000000000000010000000000000007183400000000000000009999123100000010000000000000BRREDEACNOR7127
012024070302RENT3       010LOCALIZA    ON  EJS NM   R$  000000000421300000000042970000000004205000000000425200000000042150000000004213000000000421929473000000000006503500000000027658730000000000000000009999123100000010000000000000BRRENTACNOR4196
012024070302RAIL3       010RUMO S.A.   ON      NM   R$  000000000209500000000021170000000002070000000000210700000000021150000000002115000000000211617761000000000008030300000000016925473100000000000000009999123100000010000000000000BRRAILACNOR9105
012024070302RAIZ4       010RAIZEN      PN      N2   R$  000000000030100000000003060000000000301000000000030300000000003010000000000301000000000030210962000000000009354100000000002836896600000000000000009999123100000010000000000000BRRAIZACNPR6110
012024070302RANI3       010IRANI       ON      NM   R$  000000000087300000000008920000000000873000000000088100000000008840000000000881000000000088403031000000000001030400000000000908096700000000000000009999123100000010000000000000BRRANIACNOR5072
012024070302SMFT3       010SMART FIT   ON  EJ  NM   R$  000000000211900000000022370000000002112000000000219300000000022060000000002206000000000220709368000000000002328500000000005106800100000000000000009999123100000010000000000000BRSMFTACNOR1112
012024070302SMTO3       010SAO MARTINHOON      NM   R$  000000000322000000000033090000000003220000000000326500000000032720000000003272000000000327808250000000000001747500000000005706536900000000000000009999123100000010000000000000BRSMTOACNOR3126
012024070302SNSY3       010SANSUY      ON           R$  000000000128000000000013340000000001240000000000128100000000012750000000001241000000000127300052000000000000006200000000000007947000000000000000009999123100000010000000000000BRSNSYACNOR2113
012024070302SOJA3       010BOA SAFRA   ON      NM   R$  000000000148300000000015290000000001479000000000150700000000015140000000001503000000000151402433000000000000474000000000000714519600000000000000009999123100000010000000000000BRSOJAACNOR9105
012024070302SOMA3       010GRUPO SOMA  ON      NM   R$  000000000059600000000006140000000000596000000000060600000000006070000000000607000000000060811446000000000007717400000000004680690700000000000000009999123100000010000000000000BRSOMAACNOR3102
012024070302B3SA3       010B3          ON      NM   R$  000000000105900000000010630000000001042000000000105100000000010430000000001043000000000104444968000000000053846200000000056611851200000000000000009999123100000010000000000000BRB3SAACNOR6133
012024070302BEES3       010BANESTES    ON  EJ       R$  000000000090200000000009080000000000901000000000090400000000009010000000000901000000000091000049000000000000011700000000000010582000000000000000009999123100000010000000000000BRBEESACNOR9393
012024070302BEES4       010BANESTES    PN  EJ       R$  000000000096700000000009840000000000955000000000096900000000009730000000000901000000000097400034000000000000005800000000000005623200000000000000009999123100000010000000000000BRBEESACNPR6318
012024070302ITSA3       010ITAUSA      ON      N1   R$  000000000098500000000010050000000000984000000000099700000000009930000000000993000000000099900444000000000000152500000000000152061700000000000000009999123100000010000000000000BRITSAACNOR0441
012024070302ITSA4       010ITAUSA      PN      N1   R$  000000000098800000000010050000000000986000000000099900000000009970000000000997000000000099823321000000000014958600000000014943845000000000000000009999123100000010000000000000BRITSAACNPR7441
012024070302BHIA3       010CASAS BAHIA ON  ATZ NM   R$  000000000051500000000005380000000000515000000000052600000000005210000000000521000000000052404968000000000005484700000000002889524000000000000000009999123100000010000000000000BRBHIAACNOR1102
012024070302BRBI11      010BR PARTNERS UNT     N2   R$  000000000142900000000014480000000001402000000000142400000000014300000000001429000000000143002088000000000000443000000000000631122900000000000000009999123100000010000000000000BRBRBICDAM10109
012024070302BRFS3       010BRF SA      ON      NM   R$  000000000237500000000023880000000002265000000000229800000000022750000000002275000000000228319330000000000007581800000000017429164700000000000000009999123100000010000000000000BRBRFSACNOR8122
012024070302CSED3       010CRUZEIRO EDUON      NM   R$  000000000037600000000003940000000000374000000000038500000000003910000000000388000000000039100881000000000000336700000000000129719900000000000000009999123100000010000000000000BRCSEDACNOR9104
012024070302CSMG3       010COPASA      ON  EDJ NM   R$  000000000201100000000020420000000002010000000000202900000000020250000000002024000000000203004821000000000001074200000000002179653500000000000000009999123100000010000000000000BRCSMGACNOR5174
012024070302CSNA3       010SID NACIONALON           R$  000000000132900000000013420000000001315000000000132500000000013150000000001313000000000131714799000000000008041300000000010662583200000000000000009999123100000010000000000000BRCSNAACNOR6261
012024070302CSUD3       010CSU DIGITAL ON  EJ  NM   R$  000000000186300000000019430000000001863000000000192300000000019270000000001913000000000192700329000000000000069200000000000133124500000000000000009999123100000010000000000000BRCSUDACNOR5110
012024070302CURY3       010CURY S/A    ON      NM   R$  000000000208000000000021490000000002080000000000211900000000021400000000002138000000000214006475000000000002381900000000005047264400000000000000009999123100000010000000000000BRCURYACNOR3109
012024070302CVCB3       010CVC BRASIL  ON  ATZ NM   R$  000000000018200000000001900000000000180000000000018400000000001870000000000187000000000018806046000000000020278900000000003745167200000000000000009999123100000010000000000000BRCVCBACNOR1116
012024070302GEPA3       010GER PARANAP ON           R$  000000000261000000000026100000000002610000000000261000000000026100000000002520000000000264900001000000000000000100000000000000261000000000000000009999123100000010000000000000BRGEPAACNOR2153
012024070302GEPA4       010GER PARANAP PN           R$  000000000260000000000026000000000002600000000000260000000000026000000000002575000000000264000001000000000000000100000000000000260000000000000000009999123100000010000000000000BRGEPAACNPR9160
012024070302GFSA3       010GAFISA      ON      NM   R$  000000000032400000000003400000000000324000000000033300000000003350000000000334000000000033502466000000000002658500000000000887508200000000000000009999123100000010000000000000BRGFSAACNOR3124
012024070302ITUB3       010ITAUUNIBANCOON  EJ  N1   R$  000000000281900000000028660000000002814000000000284200000000028320000000002830000000000284401226000000000000288300000000000819515500000000000000009999123100000010000000000000BRITUBACNOR4338
012024070302ITUB4       010ITAUUNIBANCOPN  EJ  N1   R$  000000000328600000000033290000000003276000000000330800000000032860000000003285000000000328735033000000000025232900000000083480663300000000000000009999123100000010000000000000BRITUBACNPR1338
012024070302BLAU3       010BLAU        ON  EJ  NM   R$  000000000104800000000010850000000001048000000000107300000000010700000000001070000000000107800781000000000000123700000000000132737100000000000000009999123100000010000000000000BRBLAUACNOR8114
012024070302BRIT3       010BRISANET    ON      NM   R$  000000000039700000000004030000000000393000000000039800000000003980000000000397000000000039802295000000000000919500000000000366690800000000000000009999123100000010000000000000BRBRITACNOR0103
012024070302BRKM3       010BRASKEM     ON      N1   R$  000000000180400000000018700000000001795000000000182900000000018700000000001840000000000185000064000000000000013100000000000023962200000000000000009999123100000010000000000000BRBRKMACNOR1119
012024070302BRKM5       010BRASKEM     PNA     N1   R$  000000000176800000000018690000000001767000000000182600000000018230000000001822000000000182811262000000000003175200000000005799745600000000000000009999123100000010000000000000BRBRKMACNPA4121
012024070302CSRN3       010COSERN      ON  EJ       R$  000000000216900000000022100000000002151000000000217200000000022100000000002149000000000223500008000000000000001100000000000002390000000000000000009999123100000010000000000000BRCSRNACNOR0193
012024070302FIQE3       010UNIFIQUE    ON      NM   R$  000000000035500000000003550000000000343000000000034900000000003430000000000342000000000034401246000000000001372800000000000479272900000000000000009999123100000010000000000000BRFIQEACNOR5107
012024070302FLRY3       010FLEURY      ON      NM   R$  000000000151000000000015210000000001497000000000150400000000015030000000001500000000000150308838000000000004844400000000007286338200000000000000009999123100000010000000000000BRFLRYACNOR5138
012024070302FRAS3       010FRAS-LE     ON      N1   R$  000000000195400000000019800000000001942000000000196000000000019800000000001980000000000198101655000000000000365000000000000715502200000000000000009999123100000010000000000000BRFRASACNOR0159
012024070302BGIP4       010BANESE      PN           R$  000000000225000000000022700000000002250000000000226300000000022700000000002249000000000228000007000000000000000700000000000001584400000000000000009999123100000010000000000000BRBGIPACNPR8208
012024070302BALM3       010BAUMER      ON           R$  000000000114000000000011400000000001140000000000114000000000011400000000001140000000000124900001000000000000000100000000000000114000000000000000009999123100000010000000000000BRBALMACNOR5055
012024070302BALM4       010BAUMER      PN           R$  000000000100000000000010000000000001000000000000100000000000010000000000001000000000000103000001000000000000000200000000000000200000000000000000009999123100000010000000000000BRBALMACNPR2056
012024070302BAZA3       010AMAZONIA    ON           R$  000000000994000000000099400000000009860000000000990100000000098620000000009861000000001000000007000000000000001100000000000010891200000000000000009999123100000010000000000000BRBAZAACNOR0179
012024070302BBAS3       010BRASIL      ON      NM   R$  000000000265500000000026880000000002648000000000266800000000026710000000002670000000000267131050000000000014438300000000038532146500000000000000009999123100000010000000000000BRBBASACNOR3324
012024070302BIOM3       010BIOMM       ON      MA   R$  000000000140900000000014430000000001380000000000140500000000013900000000001388000000000140000580000000000000095700000000000134506800000000000000009999123100000010000000000000BRBIOMACNOR2112
012024070302MAPT4       010CEMEPE      PN           R$  000000000050300000000005030000000000502000000000050200000000005020000000000500000000000057700002000000000000000200000000000000100500000000000000009999123100000010000000000000BRMAPTACNPR5106
012024070302MATD3       010MATER DEI   ON      NM   R$  000000000045500000000004810000000000455000000000047600000000004770000000000476000000000047901310000000000000472000000000000224685800000000000000009999123100000010000000000000BRMATDACNOR4104
012024070302MBLY3       010MOBLY       ON      NM   R$  000000000020700000000002150000000000207000000000021300000000002130000000000212000000000021300404000000000000368300000000000078458400000000000000009999123100000010000000000000BRMBLYACNOR5100
012024070302MDIA3       010M.DIASBRANCOON      NM   R$  000000000273300000000027950000000002733000000000275800000000027340000000002734000000000273703581000000000000776700000000002142648600000000000000009999123100000010000000000000BRMDIAACNOR7135
012024070302MDNE3       010MOURA DUBEUXON      NM   R$  000000000116400000000012130000000001164000000000119400000000012130000000001204000000000121302588000000000000558900000000000667857400000000000000009999123100000010000000000000BRMDNEACNOR9100
012024070302MEAL3       010IMC S/A     ON      NM   R$  000000000012700000000001330000000000127000000000013000000000001310000000000131000000000013200563000000000000848400000000000110427900000000000000009999123100000010000000000000BRMEALACNOR9105
012024070302MELK3       010MELNICK     ON      NM   R$  000000000035600000000003650000000000356000000000036000000000003610000000000360000000000036300257000000000000180500000000000065108800000000000000009999123100000010000000000000BRMELKACNOR8111
012024070302MGEL4       010MANGELS INDLPN           R$  000000000126500000000012650000000001250000000000125100000000012500000000001240000000000127900011000000000000006000000000000007509800000000000000009999123100000010000000000000BRMGELACNPR3147
012024070302MGLU3       010MAGAZ LUIZA ON      NM   R$  000000000122600000000012730000000001226000000000125700000000012580000000001257000000000125817114000000000017333200000000021797006300000000000000009999123100000010000000000000BRMGLUACNOR2124
012024070302AZUL4       010AZUL        PN      N2   R$  000000000074000000000007700000000000740000000000075600000000007490000000000749000000000075013256000000000022208100000000016801821100000000000000009999123100000010000000000000BRAZULACNPR4102
012024070302BEEF3       010MINERVA     ON      NM   R$  000000000069300000000006950000000000664000000000067900000000006700000000000669000000000067109877000000000007306000000000004968018000000000000000009999123100000010000000000000BRBEEFACNOR6116
012024070302BPAN4       010BANCO PAN   PN      N1   R$  000000000080500000000008290000000000805000000000081500000000008080000000000808000000000081505431000000000001281500000000001045267900000000000000009999123100000010000000000000BRBPANACNPR1115
012024070302BRAP3       010BRADESPAR   ON      N1   R$  000000000183500000000018600000000001831000000000185000000000018500000000001850000000000185800295000000000000044500000000000082333000000000000000009999123100000010000000000000BRBRAPACNOR5148
012024070302BRAP4       010BRADESPAR   PN      N1   R$  000000000189400000000019270000000001890000000000191600000000019150000000001914000000000191507182000000000002757300000000005285139100000000000000009999123100000010000000000000BRBRAPACNPR2148
012024070302ENAT3       010ENAUTA PART ON      NM   R$  000000000227700000000023060000000002231000000000226200000000022430000000002243000000000224806542000000000001525800000000003452111900000000000000009999123100000010000000000000BRENATACNOR0104
012024070302ENEV3       010ENEVA       ON      NM   R$  000000000127900000000012980000000001278000000000128700000000012810000000001280000000000128813346000000000003677900000000004736895600000000000000009999123100000010000000000000BRENEVACNOR8106
012024070302ENGI11      010ENERGISA    UNT     N2   R$  000000000453400000000046210000000004510000000000456800000000045640000000004564000000000456514345000000000007929100000000036224459400000000000000009999123100000010000000000000BRENGICDAM16135
012024070302ENGI3       010ENERGISA    ON      N2   R$  000000000143300000000014500000000001414000000000143700000000014430000000001435000000000144400024000000000000002500000000000003594100000000000000009999123100000010000000000000BRENGIACNOR0145
012024070302ENGI4       010ENERGISA    PN      N2   R$  000000000077600000000007950000000000772000000000078300000000007910000000000782000000000079300039000000000000007600000000000005953900000000000000009999123100000010000000000000BRENGIACNPR7141
012024070302ENJU3       010ENJOEI      ON      NM   R$  000000000019300000000002080000000000188000000000020000000000002050000000000204000000000020501055000000000001905400000000000381501700000000000000009999123100000010000000000000BRENJUACNOR9100
012024070302ENMT3       010ENERGISA MT ON           R$  000000000810000000000085000000000008100000000000823300000000085000000000007184000000000000000003000000000000000300000000000002470000000000000000009999123100000010000000000000BRENMTACNOR5120
012024070302ENMT4       010ENERGISA MT PN           R$  000000000742000000000075250000000007420000000000748800000000075190000000004996000000000751900003000000000000000300000000000002246400000000000000009999123100000010000000000000BRENMTACNPR2125
012024070302EPAR3       010EMBPAR S/A  ON           R$  000000000063000000000006300000000000629000000000062900000000006300000000000629000000000063000015000000000000002800000000000001762000000000000000009999123100000010000000000000BREPARACNOR9105
012024070302EQMA3B      010EQTLMARANHAOON      MB   R$  000000000260000000000026000000000002512000000000256500000000025120000000002526000000000259900004000000000000000400000000000001026300000000000000009999123100000010000000000000BREQMAACNOR8108
012024070302EQPA3       010EQTL PARA   ON           R$  000000000070000000000007150000000000700000000000070400000000007030000000000692000000000070300020000000000000003400000000000002395700000000000000009999123100000010000000000000BREQPAACNOR1111
012024070302EQTL3       010EQUATORIAL  ON      NM   R$  000000000317000000000032500000000003170000000000321800000000032020000000003202000000000320524947000000000008478500000000027285105500000000000000009999123100000010000000000000BREQTLACNOR0130
012024070307TXRX3       010TEX RENAUX  ON           R$  000000000088900000000008890000000000889000000000088900000000008890000000000200000000000095000001000000000000000100000000000000088900000000000000009999123100000010000000000000BRTXRXACNOR3142
012024070307TXRX4       010TEX RENAUX  PN           R$  000000000022600000000002260000000000226000000000022600000000002260000000000227000000000023400002000000000000000200000000000000045200000000000000009999123100000010000000000000BRTXRXACNPR0142
012024070307NUTR3       010NUTRIPLANT  ON      MA   R$  000000000052600000000005260000000000503000000000050900000000005050000000000504000000000051800026000000000000003900000000000001988500000000000000009999123100000010000000000000BRNUTRACNOR0104
012024070308NEXP3       010NEXPE       ON           R$  000000000043400000000004340000000000414000000000041700000000004160000000000417000000000043300009000000000000001300000000000000542100000000000000009999123100000010000000000000BRNEXPACNOR0101
012024070308JFEN3       010JOAO FORTES ON           R$  000000000004600000000000480000000000044000000000004500000000000440000000000044000000000004501435000000000000562900000000000025503900000000000000009999123100000010000000000000BRJFENACNOR0059
012024070308OSXB3       010OSX BRASIL  ON      NM   R$  000000000037800000000003870000000000378000000000038500000000003870000000000379000000000039300006000000000000001200000000000000462600000000000000009999123100000010000000000000BROSXBACNOR8109
012024070308PMAM3       010PARANAPANEMAON      NM   R$  000000000023500000000002410000000000235000000000023700000000002360000000000236000000000023800128000000000000050000000000000011865700000000000000009999123100000010000000000000BRPMAMACNOR3039
012024070308RSID3       010ROSSI RESID ON      NM   R$  000000000051000000000005250000000000505000000000051300000000005250000000000507000000000052500064000000000000009100000000000004671700000000000000009999123100000010000000000000BRRSIDACNOR8120
012024070308RNEW11      010RENOVA      UNT     N2   R$  000000000027500000000002830000000000275000000000027600000000002800000000000273000000000028100029000000000000008000000000000002212900000000000000009999123100000010000000000000BRRNEWCDAM15110
012024070308RNEW3       010RENOVA      ON      N2   R$  000000000009100000000000940000000000090000000000009100000000000920000000000092000000000009300039000000000000023700000000000002166500000000000000009999123100000010000000000000BRRNEWACNOR8110
012024070308RNEW4       010RENOVA      PN      N2   R$  000000000009400000000000940000000000092000000000009200000000000920000000000092000000000009300087000000000000082000000000000007586000000000000000009999123100000010000000000000BRRNEWACNPR5110
012024070308ETER3       010ETERNIT     ON      NM   R$  000000000059500000000006080000000000587000000000060200000000006080000000000603000000000060800556000000000000185500000000000111793200000000000000009999123100000010000000000000BRETERACNOR3243
012024070308RPMG3       010PET MANGUINHON           R$  000000000028100000000002900000000000267000000000027800000000002760000000000272000000000027500415000000000000070600000000000019640500000000000000009999123100000010000000000000BRRPMGACNOR9194
012024070308SGPS3       010SPRINGS     ON  EG  NM   R$  000000000015200000000001520000000000152000000000015200000000001520000000000151000000000015300039000000000000029500000000000004484000000000000000009999123100000010000000000000BRSGPSACNOR4105
012024070308ATMP3       010ATMASA      ON           R$  000000000018200000000001890000000000182000000000018700000000001870000000000183000000000018700024000000000000011200000000000002094600000000000000009999123100000010000000000000BRATMPACNOR8100
012024070308LIGT3       010LIGHT S/A   ON      NM   R$  000000000049800000000005110000000000498000000000050100000000004990000000000499000000000050203670000000000000738800000000000370651900000000000000009999123100000010000000000000BRLIGTACNOR2124
012024070308OIBR3       010OI          ON      N1   R$  000000000064400000000006540000000000601000000000062900000000006350000000000634000000000063503708000000000002730500000000001719256800000000000000009999123100000010000000000000BROIBRACNOR1111
012024070308OIBR4       010OI          PN      N1   R$  000000000169400000000016940000000001520000000000154600000000015600000000001550000000000156000232000000000000052600000000000081349000000000000000009999123100000010000000000000BROIBRACNPR8110
012024070308AMER3       010AMERICANAS  ON      NM   R$  000000000004000000000000420000000000039000000000004000000000000390000000000039000000000004001457000000000017746600000000000711412700000000000000009999123100000010000000000000BRAMERACNOR6102
012024070308CTNM4       010COTEMINAS   PN           R$  000000000006900000000000690000000000069000000000006900000000000690000000000069000000000007000019000000000000077400000000000005340600000000000000009999123100000010000000000000BRCTNMACNPR6129
012024070308CTSA3       010SANTANENSE  ON           R$  000000000022700000000002270000000000222000000000022400000000002220000000000223000000000023200009000000000000001100000000000000246600000000000000009999123100000010000000000000BRCTSAACNOR3062
012024070308CTSA4       010SANTANENSE  PN           R$  000000000008400000000000850000000000083000000000008300000000000850000000000083000000000008500018000000000000005600000000000000469700000000000000009999123100000010000000000000BRCTSAACNPR0062
012024070310VIVR1       010VIVER       DIR ORD NM   R$  000000000000100000000000010000000000001000000000000100000000000010000000000000000000000000100017000000000000099800000000000000099800000000000000009999123100000010000000000000BRVIVRD18OR3122
012024070310BODB12      010FIC FI BCNA DIR          R$  000000000000100000000000010000000000001000000000000100000000000010000000000000000000000000100060000000000000089959000000000000089959000000000000009999123100000010000000000000BRBODBD04M10134
012024070310BSLI10      010BRB BANCO   PN  REC      R$  000000000089400000000008940000000000880000000000088700000000008800000000000801000000000088000002000000000000000200000000000000177400000000000000009999123100000010000000000000BRBSLIR02PR5192
012024070310AMAR1       010LOJAS MARISADIR ORD NM   R$  000000000000100000000000010000000000001000000000000100000000000010000000000000000000000000100059000000000000321500000000000000321500000000000000009999123100000010000000000000BRAMARD02OR7114
012024070310RENT1       010LOCALIZA    DIR ORD NM   R$  000000000097600000000010490000000000909000000000097800000000009550000000000955000000000097000343000000000000075000000000000073394100000000000000009999123100000010000000000000BRRENTD06OR8195
012024070310EQTL9       010EQUATORIAL  ON  REC NM   R$  000000000321500000000032630000000003215000000000322800000000032410000000002911000000000339900005000000000000000600000000000001936900000000000000009999123100000010000000000000BREQTLR03OR1129
012024070312NAVT11      010FII NAVI TOTCI           R$  000000000914900000000093990000000009072000000000913700000000090990000000009095000000000909900340000000000000003330000000000030427245000000000000009999123100000010000000000000BRNAVTCTF015139
012024070312NCHB11      010FII NCH BR  CI           R$  000000000092100000000009290000000000921000000000092400000000009270000000000926000000000092700187000000000000011858000000000010967639000000000000009999123100000010000000000000BRNCHBCTF000230
012024070312NCRI11      010FII NAVI CRICI           R$  000000000085000000000008530000000000847000000000084800000000008530000000000853000000000085800015000000000000000057000000000000048376000000000000009999123100000010000000000000BRNCRICTF004118
012024070312NEWL11      010FII NEWPORT CI  ER       R$  000000001194300000000119990000000011850000000001191200000000119990000000011980000000001200000173000000000000001188000000000014151606000000000000009999123100000010000000000000BRNEWLCTF004156
012024070312NSLU11      010FII LOURDES CI  ER       R$  000000001808800000000181000000000018050000000001808500000000180500000000018050000000001814400023000000000000000083000000000001501132000000000000009999123100000010000000000000BRNSLUCTF008312
012024070312AFHI11      010FII AFHI CRICI           R$  000000000969400000000096980000000009609000000000963400000000096830000000009650000000000968310570000000000000050087000000000482555117000000000000009999123100000010000000000000BRAFHICTF005143
012024070312AIEC11      010FII AUTONOMYCI  ER       R$  000000000528500000000054500000000005270000000000535500000000053050000000005305000000000532800331000000000000005427000000000029062617000000000000009999123100000010000000000000BRAIECCTF009146
012024070312AJFI11      010FII AJ MALLSCI           R$  000000000081400000000008210000000000810000000000081500000000008150000000000815000000000081701780000000000000073917000000000060274859000000000000009999123100000010000000000000BRAJFICTF001107
012024070312ALMI11      010FII TORRE ALCI  ER       R$  000000006310800000000631080000000059333000000006071400000000600000000000060000000000006088800027000000000000000039000000000002367874000000000000009999123100000010000000000000BRALMICTF003251
012024070312CNES11      010FII CENESP  CI           R$  000000000015200000000001540000000000151000000000015200000000001530000000000152000000000015301379000000000000034830000000000005300976000000000000009999123100000010000000000000BRCNESCTF001260
012024070312EDGA11      010FII GALERIA CI  ER       R$  000000000186400000000018930000000001821000000000185000000000018550000000001825000000000185500484000000000000000823000000000001522932000000000000009999123100000010000000000000BREDGACTF001242
012024070312EGYR11      010FII ENERGY  CI           R$  000000000032800000000003290000000000315000000000031800000000003150000000000317000000000032400029000000000000000272000000000000086639000000000000009999123100000010000000000000BREGYRCTF001102
012024070312GSFI11      010FII GENERAL CI           R$  000000000077600000000007760000000000758000000000076700000000007750000000000764000000000077500054000000000000000403000000000000309471000000000000009999123100000010000000000000BRGSFICTF009102
012024070312GTWR11      010FII G TOWERSCI  ER       R$  000000000826500000000082940000000008076000000000813100000000081400000000008126000000000814007926000000000000053190000000000432505950000000000000009999123100000010000000000000BRGTWRCTF003164
012024070312GZIT11      010FII GAZIT   CI  ER       R$  000000000555000000000056690000000005500000000000557100000000055650000000005565000000000558900692000000000000011075000000000061709061000000000000009999123100000010000000000000BRGZITCTF005108
012024070312HAAA11      010FII HEDGEAAACI  ER       R$  000000000360000000000037000000000003370000000000368600000000037000000000003700000000000385000031000000000000000139000000000000512479000000000000009999123100000010000000000000BRHAAACTF003144
012024070312HABT11      010FII HABIT IICI  ER       R$  000000000867300000000087030000000008620000000000866200000000086490000000008637000000000864901620000000000000013511000000000117035049000000000000009999123100000010000000000000BRHABTCTF001161
012024070312JFLL11      010FII JFL LIV CI  ER       R$  000000000733500000000074000000000007281000000000738900000000074000000000007308000000000744500080000000000000011305000000000083533295000000000000009999123100000010000000000000BRJFLLCTF002141
012024070312ABCP11      010FII ABC IMOBCI  ER       R$  000000000682100000000068420000000006770000000000683600000000067700000000006771000000000684100045000000000000000184000000000001257985000000000000009999123100000010000000000000BRABCPCTF000340
012024070312CBOP11      010FII C BRANCOCI  ER       R$  000000000275300000000027690000000002720000000000276000000000027660000000002717000000000276600007000000000000000037000000000000102123000000000000009999123100000010000000000000BRCBOPCTF001231
012024070312CCME11      010FII CANUMA  CI           R$  000000000118000000000012150000000001180000000000120400000000011950000000001192000000000119500563000000000000001284000000000001547156000000000000009999123100000010000000000000BRCCMECTF007123
012024070312CEOC11      010FII CEO CCP CI           R$  000000000434100000000043860000000004330000000000436600000000043380000000004332000000000437700036000000000000000329000000000001436658000000000000009999123100000010000000000000BRCEOCCTF003215
012024070312CJCT11      010FII CJCTOWERCI  ER       R$  000000000649900000000064990000000006499000000000649900000000064990000000006367000000000649900001000000000000000002000000000000012998000000000000009999123100000010000000000000BRCJCTCTF001116
012024070312CLIN11      010FII CLAVE INCI           R$  000000000946100000000095680000000009461000000000949800000000094990000000009499000000000950503670000000000000014287000000000135710818000000000000009999123100000010000000000000BRCLINCTF007108
012024070312DEVA11      010FII DEVANT  CI           R$  000000000399000000000040310000000003990000000000401200000000040220000000004022000000000402701363000000000000022072000000000088553505000000000000009999123100000010000000000000BRDEVACTF000149
012024070312DPRO11      010FII DEVA PROCI           R$  000000000067000000000006700000000000643000000000066300000000006430000000000643000000000065300022000000000000000050000000000000033175000000000000009999123100000010000000000000BRDPROCTF005124
012024070312DRIT11      010FII MTGESTAOCI           R$  000000000889700000000088970000000008897000000000889700000000088970000000008301000000000910500003000000000000000007000000000000062279000000000000009999123100000010000000000000BRDRITCTF009253
012024070312DVFF11      010FII DEVA FOFCI           R$  000000000074700000000007500000000000739000000000074100000000007490000000000739000000000074800061000000000000000429000000000000318252000000000000009999123100000010000000000000BRDVFFCTF006138
012024070312ZAGH11      010FII ZAGH    CI  EB       R$  000000000120000000000012000000000001200000000000120000000000012000000000001100000000000120000020000000000000000321000000000000385200000000000000009999123100000010000000000000BRZAGHCTF007104
012024070312ZAVI11      010FII ZAVIT R CI  ER       R$  000000001079300000000111120000000010702000000001092000000000108790000000010879000000001105000332000000000000001262000000000013781493000000000000009999123100000010000000000000BRZAVICTF004122
012024070312ZIFI11      010FII ZION    CI           R$  000000006980000000000698000000000069800000000006980000000000698000000000030600000000006979400001000000000000000001000000000000069800000000000000009999123100000010000000000000BRZIFICTF000103
012024070312OUFF11      010FII OURI FOFCI           R$  000000000600200000000060710000000006002000000000604700000000060350000000006035000000000606700149000000000000001195000000000007227017000000000000009999123100000010000000000000BROUFFCTF005160
