00COTAHIST.2024BOVESPA 20240726                                                                                                                                                                                                                      
012024072602MAPT4       010CEMEPE      PN           R$  000000000064500000000006450000000000645000000000064500000000006450000000000550000000000064600001000000000000000100000000000000064500000000000000009999123100000010000000000000BRMAPTACNPR5106
012024072602MATD3       010MATER DEI   ON      NM   R$  000000000049500000000004950000000000483000000000048800000000004910000000000485000000000049101069000000000000283800000000000138758800000000000000009999123100000010000000000000BRMATDACNOR4104
012024072602MBLY3       010MOBLY       ON      NM   R$  000000000026100000000002750000000000259000000000026300000000002750000000000275000000000027701111000000000001293700000000000341163100000000000000009999123100000010000000000000BRMBLYACNOR5100
012024072602MDIA3       010M.DIASBRANCOON      NM   R$  000000000278100000000028170000000002769000000000278800000000027830000000002783000000000278901667000000000000349700000000000975063700000000000000009999123100000010000000000000BRMDIAACNOR7135
012024072602MDNE3       010MOURA DUBEUXON      NM   R$  000000000136200000000013820000000001347000000000136600000000013810000000001374000000000138202615000000000000411000000000000561584100000000000000009999123100000010000000000000BRMDNEACNOR9100
012024072602MEAL3       010IMC S/A     ON      NM   R$  000000000015400000000001590000000000154000000000015700000000001570000000000156000000000015700575000000000000361600000000000056945400000000000000009999123100000010000000000000BRMEALACNOR9105
012024072602MELK3       010MELNICK     ON      NM   R$  000000000034600000000003460000000000338000000000034100000000003420000000000341000000000034200330000000000000224500000000000076566500000000000000009999123100000010000000000000BRMELKACNOR8111
012024072602MGLU3       010MAGAZ LUIZA ON      NM   R$  000000000116500000000011980000000001145000000000117400000000011890000000001189000000000119018194000000000018085500000000021248444600000000000000009999123100000010000000000000BRMGLUACNOR2124
012024072602CLSA3       010CLEARSALE   ON      NM   R$  000000000082400000000008500000000000807000000000083100000000008400000000000839000000000084002869000000000000917900000000000762853700000000000000009999123100000010000000000000BRCLSAACNOR0100
012024072602CLSC4       010CELESC      PN      N2   R$  000000000762500000000076250000000007523000000000758500000000076170000000007551000000000761800012000000000000001400000000000010619700000000000000009999123100000010000000000000BRCLSCACNPR3131
012024072602CMIG3       010CEMIG       ON      N1   R$  000000000126600000000012900000000001265000000000128200000000012900000000001281000000000129000402000000000000082500000000000105813100000000000000009999123100000010000000000000BRCMIGACNOR6242
012024072602ABCB4       010ABC BRASIL  PN      N2   R$  000000000224000000000022470000000002218000000000223200000000022360000000002232000000000224001155000000000000174700000000000389931100000000000000009999123100000010000000000000BRABCBACNPR4146
012024072602ABEV3       010AMBEV S/A   ON           R$  000000000118200000000011880000000001175000000000118400000000011880000000001187000000000118821856000000000023201600000000027474655900000000000000009999123100000010000000000000BRABEVACNOR1128
012024072602BBDC3       010BRADESCO    ON      N1   R$  000000000112500000000011350000000001120000000000112800000000011330000000001132000000000113505313000000000002786100000000003143983100000000000000009999123100000010000000000000BRBBDCACNOR1772
012024072602BBDC4       010BRADESCO    PN      N1   R$  000000000123600000000012480000000001231000000000124100000000012450000000001245000000000124615787000000000045675500000000056702369700000000000000009999123100000010000000000000BRBBDCACNPR8772
012024072602CPFE3       010CPFL ENERGIAON      NM   R$  000000000324000000000032820000000003231000000000326900000000032800000000003275000000000328004777000000000000977900000000003197670600000000000000009999123100000010000000000000BRCPFEACNOR0137
012024072602ELMD3       010ELETROMIDIA ON      NM   R$  000000000173400000000017940000000001734000000000176300000000017940000000001767000000000179400375000000000000046400000000000081818800000000000000009999123100000010000000000000BRELMDACNOR3101
012024072602EMAE4       010EMAE        PN           R$  000000000464900000000046500000000004600000000000462900000000046400000000004625000000000466000012000000000000001500000000000006944300000000000000009999123100000010000000000000BREMAEACNPR1125
012024072602EMBR3       010EMBRAER     ON      NM   R$  000000000406000000000041580000000004045000000000413100000000041520000000004151000000000415222680000000000005594400000000023115415700000000000000009999123100000010000000000000BREMBRACNOR4191
012024072602HYPE3       010HYPERA      ON  EJ  NM   R$  000000000281000000000029510000000002738000000000286100000000029510000000002948000000000295125017000000000018065500000000051692381500000000000000009999123100000010000000000000BRHYPEACNOR0143
012024072602KEPL3       010KEPLER WEBERON      NM   R$  000000000102500000000010700000000001014000000000105300000000010570000000001056000000000106302114000000000001028600000000001084106600000000000000009999123100000010000000000000BRKEPLACNOR1063
012024072602PCAR3       010P.ACUCAR-CBDON      NM   R$  000000000028400000000002900000000000283000000000028600000000002860000000000285000000000028604113000000000007743800000000002218643900000000000000009999123100000010000000000000BRPCARACNOR3167
012024072602ENAT3       010ENAUTA PART ON      NM   R$  000000000207000000000020880000000002020000000000203400000000020610000000002057000000000206209408000000000008097800000000016478239000000000000000009999123100000010000000000000BRENATACNOR0104
012024072602ENEV3       010ENEVA       ON      NM   R$  000000000127400000000012910000000001263000000000128100000000012860000000001285000000000128609714000000000003614900000000004634228200000000000000009999123100000010000000000000BRENEVACNOR8106
012024072602IFCM3       010INFRACOMM   ON      NM   R$  000000000003600000000000370000000000035000000000003500000000000360000000000035000000000003602185000000000006161900000000000221598100000000000000009999123100000010000000000000BRIFCMACNOR8101
012024072602IGTI11      010IGUATEMI S.AUNT     N1   R$  000000000208200000000021220000000002078000000000210100000000021020000000002102000000000211105193000000000001621000000000003405789100000000000000009999123100000010000000000000BRIGTICDAM16106
012024072602IGTI3       010IGUATEMI S.AON      N1   R$  000000000026100000000002650000000000261000000000026200000000002630000000000263000000000026400077000000000000024900000000000006535900000000000000009999123100000010000000000000BRIGTIACNOR8106
012024072602IGTI4       010IGUATEMI S.APN      N1   R$  000000000092400000000009240000000000900000000000091200000000009000000000000900000000000108500002000000000000000200000000000000182400000000000000009999123100000010000000000000BRIGTIACNPR5106
012024072602INEP3       010INEPAR      ON           R$  000000000019900000000002040000000000198000000000020100000000002000000000000200000000000020100098000000000000050400000000000010145900000000000000009999123100000010000000000000BRINEPACNOR1143
012024072602BAHI3       010BAHEMA      ON      MA   R$  000000000065300000000006530000000000647000000000064900000000006480000000000648000000000067000004000000000000002500000000000001622900000000000000009999123100000010000000000000BRBAHIACNOR1074
012024072602BAZA3       010AMAZONIA    ON           R$  000000000910100000000096000000000008900000000000908500000000094000000000009200000000000950000059000000000000011300000000000102670600000000000000009999123100000010000000000000BRBAZAACNOR0179
012024072602BBAS3       010BRASIL      ON      NM   R$  000000000268900000000027160000000002672000000000269800000000027120000000002711000000000271321663000000000010544500000000028452475500000000000000009999123100000010000000000000BRBBASACNOR3324
012024072602BMKS3       010BIC MONARK  ON           R$  000000003249600000000334500000000032403000000003246600000000334500000000032140000000003300000004000000000000000030000000000000973981000000000000009999123100000010000000000000BRBMKSACNOR9166
012024072602INEP4       010INEPAR      PN           R$  000000000020000000000002060000000000196000000000020000000000002030000000000197000000000020300069000000000000085000000000000017027900000000000000009999123100000010000000000000BRINEPACNPR8143
012024072602INTB3       010INTELBRAS   ON      NM   R$  000000000224100000000022620000000002221000000000223800000000022210000000002221000000000223102072000000000000451100000000001009670500000000000000009999123100000010000000000000BRINTBACNOR9111
012024072602IRBR3       010IRBBRASIL REON      NM   R$  000000000285100000000029450000000002842000000000289500000000029210000000002915000000000292103162000000000000692500000000002004876500000000000000009999123100000010000000000000BRIRBRACNOR4111
012024072602LUPA3       010LUPATECH    ON      NM   R$  000000000018100000000001820000000000177000000000017800000000001790000000000179000000000018000197000000000000081000000000000014473800000000000000009999123100000010000000000000BRLUPAACNOR8112
012024072602LVTC3       010WDC NETWORKSON      NM   R$  000000000034500000000003560000000000344000000000034700000000003440000000000344000000000035100036000000000000009900000000000003443100000000000000009999123100000010000000000000BRLVTCACNOR4102
012024072602LWSA3       010LWSA        ON      NM   R$  000000000044500000000004530000000000443000000000044600000000004450000000000445000000000044603846000000000002805700000000001252055900000000000000009999123100000010000000000000BRLWSAACNOR8103
012024072602BMOB3       010BEMOBI TECH ON      NM   R$  000000000144200000000014570000000001411000000000143700000000014370000000001436000000000144500888000000000000139000000000000199793100000000000000009999123100000010000000000000BRBMOBACNOR7103
012024072602BNBR3       010NORD BRASIL ON           R$  000000001090000000000110000000000009900000000001040200000000099000000000009700000000001000000021000000000000002300000000000023926400000000000000009999123100000010000000000000BRBNBRACNOR8208
012024072602BOBR4       010BOMBRIL     PN           R$  000000000020100000000002040000000000199000000000019900000000002000000000000200000000000020100044000000000000030300000000000006051000000000000000009999123100000010000000000000BRBOBRACNPR3128
012024072602EZTC3       010EZTEC       ON      NM   R$  000000000134500000000013670000000001345000000000135400000000013490000000001349000000000135403014000000000000933000000000001263820900000000000000009999123100000010000000000000BREZTCACNOR0125
012024072602SNSY5       010SANSUY      PNA          R$  000000000055300000000005740000000000553000000000056700000000005740000000000550000000000057100003000000000000000300000000000000170100000000000000009999123100000010000000000000BRSNSYACNPA5111
012024072602SOJA3       010BOA SAFRA   ON      NM   R$  000000000152600000000015350000000001511000000000152300000000015270000000001527000000000153401043000000000000176400000000000268758400000000000000009999123100000010000000000000BRSOJAACNOR9105
012024072602SOMA3       010GRUPO SOMA  ON      NM   R$  000000000060700000000006200000000000600000000000061200000000006170000000000617000000000061805275000000000002901800000000001777595100000000000000009999123100000010000000000000BRSOMAACNOR3102
012024072602SRNA3       010SERENA      ON      NM   R$  000000000086100000000008780000000000859000000000087000000000008700000000000870000000000087405404000000000001852600000000001612412300000000000000009999123100000010000000000000BRSRNAACNOR4100
012024072602STBP3       010SANTOS BRP  ON      NM   R$  000000000139900000000014080000000001374000000000138800000000013810000000001381000000000138513159000000000004989500000000006929099000000000000000009999123100000010000000000000BRSTBPACNOR3130
012024072602VALE3       010VALE        ON      NM   R$  000000000614500000000061740000000006101000000000614600000000061470000000006147000000000614944665000000000072721200000000446952536800000000000000009999123100000010000000000000BRVALEACNOR0210
012024072602YDUQ3       010YDUQS PART  ON      NM   R$  000000000106100000000011040000000001045000000000108300000000011000000000001095000000000110010764000000000003512400000000003804287400000000000000009999123100000010000000000000BRYDUQACNOR3105
012024072602ZAMP3       010ZAMP S.A.   ON           R$  000000000033600000000003550000000000336000000000034900000000003500000000000347000000000035001394000000000000437800000000000153184700000000000000009999123100000010000000000000BRZAMPACNOR5100
012024072602PRNR3       010PRINER      ON      NM   R$  000000000103400000000010700000000001029000000000105500000000010700000000001060000000000107100646000000000000122500000000000129319500000000000000009999123100000010000000000000BRPRNRACNOR4109
012024072602PSSA3       010PORTO SEGUROON      NM   R$  000000000302600000000030380000000003003000000000302700000000030210000000003019000000000302707503000000000002533700000000007669835800000000000000009999123100000010000000000000BRPSSAACNOR7155
012024072602PTBL3       010PORTOBELLO  ON      NM   R$  000000000047700000000004960000000000476000000000048800000000004930000000000490000000000049300868000000000000328500000000000160338600000000000000009999123100000010000000000000BRPTBLACNOR8132
012024072602PTNT3       010PETTENATI   ON           R$  000000000094200000000009860000000000923000000000094600000000009700000000000921000000000097000033000000000000006900000000000006527700000000000000009999123100000010000000000000BRPTNTACNOR6042
012024072602PTNT4       010PETTENATI   PN           R$  000000000064100000000006770000000000641000000000066200000000006660000000000642000000000066900246000000000000034600000000000022923000000000000000009999123100000010000000000000BRPTNTACNPR3047
012024072602QUAL3       010QUALICORP   ON      NM   R$  000000000015400000000001600000000000153000000000015600000000001570000000000157000000000015800970000000000001697900000000000266473600000000000000009999123100000010000000000000BRQUALACNOR6120
012024072602WEST3       010WESTWING    ON      NM   R$  000000000008600000000000870000000000085000000000008500000000000850000000000085000000000008600047000000000000037300000000000003195800000000000000009999123100000010000000000000BRWESTACNOR3100
012024072602WHRL4       010WHIRLPOOL   PN           R$  000000000043800000000004560000000000438000000000045000000000004450000000000446000000000045300016000000000000002400000000000001081900000000000000009999123100000010000000000000BRWHRLACNPR2128
012024072602WIZC3       010WIZ CO      ON      NM   R$  000000000058000000000005970000000000579000000000058900000000005880000000000588000000000059001300000000000000301000000000000177403700000000000000009999123100000010000000000000BRWIZCACNOR5102
012024072602WLMM4       010WLM IND COM PN           R$  000000000311700000000031170000000003117000000000311700000000031170000000002700000000000311000001000000000000000100000000000000311700000000000000009999123100000010000000000000BRWLMMACNPR3118
012024072602PFRM3       010PROFARMA    ON      NM   R$  000000000055400000000005840000000000554000000000057100000000005780000000000578000000000057900432000000000000114400000000000065359900000000000000009999123100000010000000000000BRPFRMACNOR1116
012024072602PGMN3       010PAGUE MENOS ON      NM   R$  000000000025200000000002620000000000251000000000025700000000002590000000000259000000000026200515000000000000383800000000000098965400000000000000009999123100000010000000000000BRPGMNACNOR8103
012024072602PINE3       010PINE        ON      N2   R$  000000000059100000000005980000000000584000000000059400000000005980000000000558000000000060800003000000000000000600000000000000356700000000000000009999123100000010000000000000BRPINEACNOR1150
012024072602PINE4       010PINE        PN      N2   R$  000000000041400000000004170000000000409000000000041200000000004170000000000417000000000041800488000000000000115000000000000047405800000000000000009999123100000010000000000000BRPINEACNPR8150
012024072602SCAR3       010SAO CARLOS  ON      NM   R$  000000000230100000000023500000000002301000000000234500000000023500000000002232000000000239000028000000000000005800000000000013602900000000000000009999123100000010000000000000BRSCARACNOR7131
012024072602SEER3       010SER EDUCA   ON      NM   R$  000000000051000000000005400000000000503000000000052600000000005310000000000524000000000053202614000000000000805000000000000424143700000000000000009999123100000010000000000000BRSEERACNOR5119
012024072602SEQL3       010SEQUOIA LOG ON      NM   R$  000000000039200000000003970000000000386000000000038900000000003910000000000389000000000039100239000000000000109000000000000042418500000000000000009999123100000010000000000000BRSEQLACNOR2103
012024072602SHOW3       010TIME FOR FUNON      NM   R$  000000000015200000000001550000000000151000000000015200000000001540000000000152000000000015400204000000000000029700000000000004538300000000000000009999123100000010000000000000BRSHOWACNOR7105
012024072602SHUL4       010SCHULZ      PN           R$  000000000062400000000006360000000000620000000000062700000000006300000000000628000000000063000562000000000000274200000000000172184100000000000000009999123100000010000000000000BRSHULACNPR4156
012024072602SIMH3       010SIMPAR      ON      NM   R$  000000000060300000000006400000000000601000000000062300000000006390000000000637000000000063904672000000000003162700000000001973515800000000000000009999123100000010000000000000BRSIMHACNOR0107
012024072602SLCE3       010SLC AGRICOLAON      NM   R$  000000000182700000000018400000000001815000000000182900000000018320000000001831000000000183902912000000000000790600000000001446606900000000000000009999123100000010000000000000BRSLCEACNOR2125
012024072602VLID3       010VALID       ON      NM   R$  000000000170500000000017120000000001662000000000168400000000016950000000001691000000000169601787000000000000263000000000000442903000000000000000009999123100000010000000000000BRVLIDACNOR5143
012024072602VSTE3       010VESTE       ON      NM   R$  000000000138300000000014000000000001377000000000138900000000013770000000001376000000000138400018000000000000003000000000000004167600000000000000009999123100000010000000000000BRVSTEACNOR5103
012024072602VTRU3       010VITRUEDUCA  ON      NM   R$  000000000130500000000013580000000001283000000000130100000000013000000000001283000000000130000305000000000000069400000000000090337000000000000000009999123100000010000000000000BRVTRUACNOR3100
012024072602NGRD3       010NEOGRID     ON      NM   R$  000000000010800000000001120000000000108000000000010900000000001110000000000110000000000011100543000000000000331200000000000036431900000000000000009999123100000010000000000000BRNGRDACNOR3104
012024072602NINJ3       010GETNINJAS   ON      NM   R$  000000000046200000000004760000000000460000000000046700000000004700000000000470000000000047100077000000000000018100000000000008470500000000000000009999123100000010000000000000BRNINJACNOR5101
012024072602NORD3       010NORDON MET  ON           R$  000000000088200000000013800000000000882000000000116500000000009410000000000930000000000108400091000000000000023300000000000027153000000000000000009999123100000010000000000000BRNORDACNOR7135
012024072602NTCO3       010GRUPO NATURAON      NM   R$  000000000148700000000015330000000001484000000000151400000000015300000000001529000000000153011373000000000003755300000000005688233400000000000000009999123100000010000000000000BRNTCOACNOR5106
012024072602AALR3       010ALLIAR      ON      NM   R$  000000000107200000000011300000000001071000000000110300000000011000000000001100000000000110500134000000000000022200000000000024496700000000000000009999123100000010000000000000BRAALRACNOR6102
012024072602BLAU3       010BLAU        ON      NM   R$  000000000113000000000011360000000001109000000000112500000000011290000000001128000000000113200567000000000000085600000000000096333200000000000000009999123100000010000000000000BRBLAUACNOR8114
012024072602BMEB3       010MERCANTIL   ON      N1   R$  000000000310000000000031000000000003100000000000310000000000031000000000003101000000000318500004000000000000000400000000000001240000000000000000009999123100000010000000000000BRBMEBACNOR8205
012024072602BMEB4       010MERCANTIL   PN      N1   R$  000000000340000000000035200000000003370000000000344400000000033750000000003375000000000337800140000000000000042800000000000147417100000000000000009999123100000010000000000000BRBMEBACNPR5210
012024072602BMGB4       010BANCO BMG   PN  EJ  N1   R$  000000000034800000000003500000000000344000000000034500000000003480000000000347000000000034800534000000000000336200000000000116275700000000000000009999123100000010000000000000BRBMGBACNPR0110
012024072602BRSR3       010BANRISUL    ON      N1   R$  000000000117000000000012170000000001170000000000120700000000012150000000001176000000000121500015000000000000002700000000000003260500000000000000009999123100000010000000000000BRBRSRACNOR3188
012024072602BRSR5       010BANRISUL    PNA     N1   R$  000000000160000000000016000000000001600000000000160000000000016000000000001500000000000169900002000000000000000200000000000000320000000000000000009999123100000010000000000000BRBRSRACNPA6192
012024072602BRSR6       010BANRISUL    PNB     N1   R$  000000000113400000000011500000000001129000000000113600000000011460000000001144000000000114803051000000000001151400000000001308922400000000000000009999123100000010000000000000BRBRSRACNPB4191
012024072602BSLI3       010BRB BANCO   ON           R$  000000000100100000000010010000000001001000000000100100000000010010000000000958000000000100100001000000000000000100000000000000100100000000000000009999123100000010000000000000BRBSLIACNOR5194
012024072602BSLI4       010BRB BANCO   PN           R$  000000000102800000000010280000000001000000000000100900000000010000000000000982000000000103900002000000000000000300000000000000302800000000000000009999123100000010000000000000BRBSLIACNPR2194
012024072602DASA3       010DASA        ON      NM   R$  000000000029600000000002990000000000286000000000029300000000002920000000000292000000000029502215000000000001437600000000000421413900000000000000009999123100000010000000000000BRDASAACNOR1122
012024072602GFSA3       010GAFISA      ON      NM   R$  000000000034200000000003420000000000336000000000033700000000003370000000000337000000000033801472000000000001693500000000000572319300000000000000009999123100000010000000000000BRGFSAACNOR3124
012024072602GGBR3       010GERDAU      ON      N1   R$  000000000162500000000016250000000001590000000000160300000000016180000000001610000000000161800180000000000000026000000000000041685300000000000000009999123100000010000000000000BRGGBRACNOR1192
012024072602GGBR4       010GERDAU      PN      N1   R$  000000000181200000000018390000000001793000000000181500000000018320000000001831000000000183220514000000000011820100000000021462276000000000000000009999123100000010000000000000BRGGBRACNPR8192
012024072602MILS3       010MILLS       ON      NM   R$  000000000112100000000011310000000001105000000000112100000000011300000000001128000000000113002334000000000000513300000000000575446800000000000000009999123100000010000000000000BRMILSACNOR2127
012024072602MLAS3       010MULTILASER  ON      NM   R$  000000000019300000000001990000000000192000000000019600000000001990000000000198000000000019901999000000000001595400000000000313252400000000000000009999123100000010000000000000BRMLASACNOR9101
012024072602MNDL3       010MUNDIAL     ON           R$  000000000159900000000016000000000001473000000000155800000000015980000000001400000000000159800015000000000000002500000000000003895300000000000000009999123100000010000000000000BRMNDLACNOR4109
012024072602MNPR3       010MINUPAR     ON           R$  000000000134000000000013780000000001335000000000135400000000013780000000001250000000000138000015000000000000001900000000000002573000000000000000009999123100000010000000000000BRMNPRACNOR5122
012024072602MOVI3       010MOVIDA      ON      NM   R$  000000000059600000000006490000000000591000000000062400000000006350000000000634000000000063607151000000000006703100000000004188669300000000000000009999123100000010000000000000BRMOVIACNOR0122
012024072602MRFG3       010MARFRIG     ON      NM   R$  000000000111100000000011430000000001098000000000112400000000011350000000001134000000000113913187000000000004613200000000005185559100000000000000009999123100000010000000000000BRMRFGACNOR0116
012024072602ALPK3       010ESTAPAR     ON      NM   R$  000000000034900000000003600000000000348000000000035400000000003550000000000353000000000035500236000000000000091300000000000032392800000000000000009999123100000010000000000000BRALPKACNOR9101
012024072602AZUL4       010AZUL        PN      N2   R$  000000000078400000000008260000000000773000000000080200000000008250000000000824000000000082609835000000000013765100000000011052803200000000000000009999123100000010000000000000BRAZULACNPR4102
012024072602BBSE3       010BBSEGURIDADEON      NM   R$  000000000341300000000034690000000003412000000000344800000000034600000000003459000000000346210845000000000003752900000000012940499800000000000000009999123100000010000000000000BRBBSEACNOR5124
012024072602ODPV3       010ODONTOPREV  ON      NM   R$  000000000112100000000011620000000001121000000000114300000000011540000000001154000000000115602735000000000000783900000000000896657600000000000000009999123100000010000000000000BRODPVACNOR4202
012024072602OFSA3       010OUROFINO S/AON      NM   R$  000000000188300000000019390000000001856000000000190400000000019100000000001910000000000194700023000000000000044700000000000085122900000000000000009999123100000010000000000000BROFSAACNOR7118
012024072602ONCO3       010ONCOCLINICASON      NM   R$  000000000072200000000007280000000000717000000000072200000000007250000000000721000000000072502510000000000002118600000000001531612000000000000000009999123100000010000000000000BRONCOACNOR6101
012024072602OPCT3       010OCEANPACT   ON      NM   R$  000000000065700000000006610000000000655000000000065800000000006600000000000653000000000066000893000000000000257800000000000169835200000000000000009999123100000010000000000000BROPCTACNOR0100
012024072602ASAI3       010ASSAI       ON      NM   R$  000000000099300000000009960000000000961000000000097900000000009840000000000984000000000098520041000000000012849500000000012585059000000000000000009999123100000010000000000000BRASAIACNOR0106
012024072602ATOM3       010ATOMPAR     ON           R$  000000000020100000000002040000000000197000000000019900000000001970000000000197000000000019800027000000000000008100000000000001618000000000000000009999123100000010000000000000BRATOMACNOR1106
012024072602AURE3       010AUREN       ON      NM   R$  000000000121300000000012130000000001201000000000120600000000012050000000001205000000000120807530000000000001725600000000002081257200000000000000009999123100000010000000000000BRAUREACNOR9104
012024072602AVLL3       010ALPHAVILLE  ON      NM   R$  000000000035500000000003700000000000355000000000035700000000003700000000000320000000000038000007000000000000001600000000000000572500000000000000009999123100000010000000000000BRAVLLACNOR5103
012024072602AZEV3       010AZEVEDO     ON           R$  000000000014700000000001510000000000143000000000014600000000001430000000000143000000000014500494000000000000568700000000000083447000000000000000009999123100000010000000000000BRAZEVACNOR0121
012024072602AZEV4       010AZEVEDO     PN           R$  000000000014500000000001500000000000141000000000014400000000001420000000000141000000000014201378000000000003930500000000000569463200000000000000009999123100000010000000000000BRAZEVACNPR7121
012024072602B3SA3       010B3          ON      NM   R$  000000000108800000000011040000000001081000000000109500000000010950000000001095000000000109618629000000000019124000000000020947445000000000000000009999123100000010000000000000BRB3SAACNOR6133
012024072602BIOM3       010BIOMM       ON      MA   R$  000000000110500000000011100000000001054000000000108300000000010840000000001082000000000108400293000000000000097500000000000105619900000000000000009999123100000010000000000000BRBIOMACNOR2112
012024072602ARML3       010ARMAC       ON      NM   R$  000000000094500000000009730000000000945000000000095900000000009630000000000958000000000096404561000000000001003800000000000963111200000000000000009999123100000010000000000000BRARMLACNOR1112
012024072602ARZZ3       010AREZZO CO   ON      NM   R$  000000000502000000000051300000000004980000000000506600000000050840000000005083000000000511203490000000000000797100000000004038497400000000000000009999123100000010000000000000BRARZZACNOR3147
012024072602BPAC11      010BTGP BANCO  UNT     N2   R$  000000000322000000000032750000000003203000000000324900000000032580000000003257000000000325816139000000000006504700000000021135399600000000000000009999123100000010000000000000BRBPACUNT006119
012024072602BPAC3       010BTGP BANCO  ON      N2   R$  000000000157200000000015730000000001561000000000156800000000015700000000001561000000000157000016000000000000001600000000000002509900000000000000009999123100000010000000000000BRBPACACNOR7134
012024072602BEEF3       010MINERVA     ON      NM   R$  000000000062400000000006370000000000615000000000062900000000006320000000000631000000000063304343000000000004531500000000002853240800000000000000009999123100000010000000000000BRBEEFACNOR6116
012024072602BPAN4       010BANCO PAN   PN      N1   R$  000000000085500000000008710000000000842000000000085300000000008540000000000850000000000085403838000000000001577300000000001346901600000000000000009999123100000010000000000000BRBPANACNPR1115
012024072602BRAP3       010BRADESPAR   ON      N1   R$  000000000182200000000018220000000001783000000000179200000000017830000000001783000000000178900424000000000000082800000000000148437300000000000000009999123100000010000000000000BRBRAPACNOR5148
012024072602BRAP4       010BRADESPAR   PN      N1   R$  000000000186200000000018690000000001838000000000185200000000018570000000001855000000000185704948000000000003471500000000006429815500000000000000009999123100000010000000000000BRBRAPACNPR2148
012024072602CSRN3       010COSERN      ON  ED       R$  000000000210800000000021390000000002051000000000210900000000021390000000002062000000000210000023000000000000003700000000000007806000000000000000009999123100000010000000000000BRCSRNACNOR0194
012024072602CSRN5       010COSERN      PNA ED       R$  000000000226300000000022630000000002263000000000226300000000022630000000002008000000000225000002000000000000000200000000000000452600000000000000009999123100000010000000000000BRCSRNACNPA3194
012024072602CSRN6       010COSERN      PNB ED       R$  000000000200000000000020000000000002000000000000200000000000020000000000002024000000000235000003000000000000001000000000000002000000000000000000009999123100000010000000000000BRCSRNACNPB1195
012024072602CSUD3       010CSU DIGITAL ON      NM   R$  000000000191700000000019540000000001917000000000193600000000019400000000001940000000000195400076000000000000013900000000000026916200000000000000009999123100000010000000000000BRCSUDACNOR5110
012024072602CTKA4       010KARSTEN     PN           R$  000000000180800000000019700000000001808000000000181400000000019700000000001760000000000200000003000000000000002600000000000004717000000000000000009999123100000010000000000000BRCTKAACNPR7043
012024072602ALUP11      010ALUPAR      UNT     N2   R$  000000000312900000000031450000000003100000000000312800000000031350000000003135000000000313902562000000000000789900000000002470827300000000000000009999123100000010000000000000BRALUPCDAM15119
012024072602ALUP3       010ALUPAR      ON      N2   R$  000000000104000000000010680000000001030000000000104300000000010620000000001049000000000106200045000000000000006400000000000006677000000000000000009999123100000010000000000000BRALUPACNOR8119
012024072602ALUP4       010ALUPAR      PN      N2   R$  000000000102600000000010350000000001025000000000103100000000010320000000001025000000000103300066000000000000009700000000000010001000000000000000009999123100000010000000000000BRALUPACNPR5119
012024072602AMAR3       010LOJAS MARISAON      NM   R$  000000000014400000000001450000000000141000000000014300000000001430000000000143000000000014400246000000000000251400000000000036061400000000000000009999123100000010000000000000BRAMARACNOR4115
012024072602AMBP3       010AMBIPAR     ON      NM   R$  000000000367600000000043870000000003594000000000384600000000043870000000004345000000000438717603000000000005746400000000022106077000000000000000009999123100000010000000000000BRAMBPACNOR6103
012024072602ANIM3       010ANIMA       ON  ATZ NM   R$  000000000034500000000003510000000000344000000000034800000000003490000000000348000000000035003443000000000002960900000000001030864000000000000000009999123100000010000000000000BRANIMACNOR6108
012024072602APER3       010ALPER S.A.  ON           R$  000000000450000000000045000000000004500000000000450000000000045000000000004501000000000457000002000000000000000300000000000001350000000000000000009999123100000010000000000000BRAPERACNOR9106
012024072602FESA3       010FERBASA     ON      N1   R$  000000000130200000000013020000000001301000000000130100000000013010000000001301000000000135000004000000000000000500000000000000650600000000000000009999123100000010000000000000BRFESAACNOR8188
012024072602FESA4       010FERBASA     PN      N1   R$  000000000082700000000008270000000000810000000000081700000000008220000000000821000000000082201230000000000000312500000000000255596300000000000000009999123100000010000000000000BRFESAACNPR5084
012024072602FHER3       010FER HERINGERON      NM   R$  000000000040100000000004110000000000401000000000040400000000004080000000000406000000000040800014000000000000003400000000000001375200000000000000009999123100000010000000000000BRFHERACNOR5103
012024072602FIEI3       010FICA        ON           R$  000000000119900000000011990000000001199000000000119900000000011990000000001100000000000129900001000000000000000100000000000000119900000000000000009999123100000010000000000000BRFIEIACNOR2100
012024072602FIQE3       010UNIFIQUE    ON      NM   R$  000000000033700000000003450000000000337000000000034000000000003410000000000341000000000034200708000000000000991300000000000337961800000000000000009999123100000010000000000000BRFIQEACNOR5107
012024072602CURY3       010CURY S/A    ON      NM   R$  000000000214500000000021730000000002126000000000215600000000021580000000002149000000000215903354000000000000751700000000001621093900000000000000009999123100000010000000000000BRCURYACNOR3109
012024072602CVCB3       010CVC BRASIL  ON      NM   R$  000000000018300000000001890000000000182000000000018400000000001860000000000186000000000018703971000000000007979900000000001475985200000000000000009999123100000010000000000000BRCVCBACNOR1116
012024072602FRAS3       010FRAS-LE     ON  EJ  N1   R$  000000000192900000000019450000000001922000000000193200000000019340000000001930000000000194000830000000000000204100000000000394357500000000000000009999123100000010000000000000BRFRASACNOR0160
012024072602MAPT3       010CEMEPE      ON           R$  000000000042000000000004600000000000420000000000043000000000004600000000000412000000000055000003000000000000000400000000000000172000000000000000009999123100000010000000000000BRMAPTACNOR8106
012024072602KLBN11      010KLABIN S/A  UNT     N2   R$  000000000214000000000021440000000002118000000000212600000000021200000000002119000000000212008009000000000003224400000000006856246900000000000000009999123100000010000000000000BRKLBNCDAM18142
012024072602KLBN3       010KLABIN S/A  ON      N2   R$  000000000042900000000004300000000000425000000000042700000000004250000000000425000000000042700478000000000000234600000000000100207400000000000000009999123100000010000000000000BRKLBNACNOR2170
012024072602KLBN4       010KLABIN S/A  PN      N2   R$  000000000043000000000004300000000000424000000000042600000000004240000000000423000000000042401406000000000000711700000000000303219300000000000000009999123100000010000000000000BRKLBNACNPR9170
012024072602KRSA3       010KORA SAUDE  ON      NM   R$  000000000007000000000000710000000000069000000000006900000000000710000000000069000000000007100108000000000000400400000000000027954100000000000000009999123100000010000000000000BRKRSAACNOR0100
012024072602CMIG4       010CEMIG       PN      N1   R$  000000000106300000000010850000000001063000000000107900000000010780000000001078000000000107923264000000000007694500000000008304272600000000000000009999123100000010000000000000BRCMIGACNPR3243
012024072602CMIN3       010CSNMINERACAOON      N2   R$  000000000050600000000005080000000000500000000000050100000000005000000000000500000000000050109234000000000007563900000000003796852100000000000000009999123100000010000000000000BRCMINACNOR2111
012024072602COCE5       010COELCE      PNA          R$  000000000308700000000031240000000003040000000000309600000000030400000000003013000000000304000037000000000000005200000000000016103600000000000000009999123100000010000000000000BRCOCEACNPA3147
012024072602COGN3       010COGNA ON    ON      NM   R$  000000000015800000000001630000000000155000000000015900000000001580000000000158000000000015912025000000000029351700000000004678213300000000000000009999123100000010000000000000BRCOGNACNOR2104
012024072602PDGR3       010PDG REALT   ON      NM   R$  000000000001800000000000190000000000017000000000001800000000000180000000000018000000000001900311000000000002045500000000000037075900000000000000009999123100000010000000000000BRPDGRACNOR8118
012024072602PDTC3       010PADTEC      ON      NM   R$  000000000018800000000001900000000000185000000000018500000000001870000000000184000000000018800076000000000000025800000000000004798000000000000000009999123100000010000000000000BRPDTCACNOR3101
012024072602PETR3       010PETROBRAS   ON      N2   R$  000000000406500000000041180000000004052000000000408500000000040850000000004083000000000408814216000000000006957100000000028424650600000000000000009999123100000010000000000000BRPETRACNOR9205
012024072602PETR4       010PETROBRAS   PN      N2   R$  000000000376700000000038130000000003742000000000377100000000037640000000003764000000000376535332000000000032043200000000120855802600000000000000009999123100000010000000000000BRPETRACNPR6213
012024072602PLPL3       010PLANOEPLANO ON      NM   R$  000000000114900000000011550000000001128000000000113800000000011300000000001127000000000113402700000000000000756600000000000861456200000000000000009999123100000010000000000000BRPLPLACNOR5104
012024072602PNVL3       010DIMED       ON      NM   R$  000000000100500000000010230000000000995000000000101500000000010230000000001015000000000102301225000000000000333800000000000339003800000000000000009999123100000010000000000000BRPNVLACNOR9207
012024072602POMO3       010MARCOPOLO   ON      N2   R$  000000000048700000000004960000000000484000000000048900000000004960000000000489000000000049600308000000000000064000000000000031353200000000000000009999123100000010000000000000BRPOMOACNOR0098
012024072602POMO4       010MARCOPOLO   PN      N2   R$  000000000061900000000006340000000000619000000000062800000000006320000000000630000000000063208197000000000005056600000000003179311300000000000000009999123100000010000000000000BRPOMOACNPR7098
012024072602PORT3       010WILSON SONS ON      NM   R$  000000000159100000000016190000000001590000000000160900000000016180000000001617000000000161900771000000000000166500000000000267967600000000000000009999123100000010000000000000BRPORTACNOR8109
012024072602POSI3       010POSITIVO TECON      NM   R$  000000000069800000000007130000000000698000000000070300000000007000000000000699000000000070003641000000000001694700000000001193021300000000000000009999123100000010000000000000BRPOSIACNOR9116
012024072602PRIO3       010PETRORIO    ON      NM   R$  000000000458800000000047890000000004582000000000469700000000047500000000004749000000000475025822000000000010335400000000048550547800000000000000009999123100000010000000000000BRPRIOACNOR1107
012024072602LAND3       010TERRASANTAPAON      NM   R$  000000000143300000000015000000000001433000000000147600000000014700000000001470000000000148000158000000000000037900000000000055949500000000000000009999123100000010000000000000BRLANDACNOR9103
012024072602LAVV3       010LAVVI       ON      NM   R$  000000000088600000000009080000000000885000000000089800000000008990000000000899000000000090101208000000000000265200000000000238301500000000000000009999123100000010000000000000BRLAVVACNOR4112
012024072602LEVE3       010METAL LEVE  ON      NM   R$  000000000325700000000033100000000003249000000000327700000000033100000000003301000000000331101096000000000000232400000000000761667100000000000000009999123100000010000000000000BRLEVEACNOR2197
012024072602LJQQ3       010QUERO-QUERO ON      NM   R$  000000000040000000000004160000000000394000000000040600000000004070000000000406000000000040702797000000000001554200000000000632347800000000000000009999123100000010000000000000BRLJQQACNOR5104
012024072602LOGG3       010LOG COM PROPON      NM   R$  000000000215100000000021650000000002116000000000214400000000021450000000002145000000000215602031000000000000301900000000000647346300000000000000009999123100000010000000000000BRLOGGACNOR7107
012024072602LOGN3       010LOG-IN      ON      NM   R$  000000000375000000000038250000000003725000000000377600000000038250000000003757000000000382500033000000000000003900000000000014728700000000000000009999123100000010000000000000BRLOGNACNOR3105
012024072602LPSB3       010LOPES BRASILON      NM   R$  000000000018100000000001850000000000176000000000017900000000001760000000000176000000000018100152000000000000055800000000000010041000000000000000009999123100000010000000000000BRLPSBACNOR0114
012024072602LREN3       010LOJAS RENNERON      NM   R$  000000000132000000000013440000000001295000000000132600000000013330000000001333000000000133416089000000000012720700000000016873026500000000000000009999123100000010000000000000BRLRENACNOR1221
012024072602ORVR3       010ORIZON      ON      NM   R$  000000000429900000000043920000000004292000000000437100000000043840000000004371000000000438401550000000000000636900000000002784422200000000000000009999123100000010000000000000BRORVRACNOR0101
012024072602FLRY3       010FLEURY      ON      NM   R$  000000000151500000000015430000000001505000000000152400000000015320000000001531000000000153206497000000000001576000000000002402511500000000000000009999123100000010000000000000BRFLRYACNOR5138
012024072602ITUB3       010ITAUUNIBANCOON      N1   R$  000000000291300000000029400000000002904000000000292600000000029330000000002929000000000293300837000000000000225900000000000661116200000000000000009999123100000010000000000000BRITUBACNOR4338
012024072602ITUB4       010ITAUUNIBANCOPN      N1   R$  000000000339200000000034340000000003392000000000341700000000034240000000003423000000000342719539000000000011181500000000038212178300000000000000009999123100000010000000000000BRITUBACNPR1338
012024072602AERI3       010AERIS       ON      NM   R$  000000000056600000000006120000000000561000000000059300000000005980000000000596000000000059800730000000000000264900000000000157279100000000000000009999123100000010000000000000BRAERIACNOR4102
012024072602AESB3       010AES BRASIL  ON      NM   R$  000000000113700000000011390000000001134000000000113600000000011390000000001136000000000113901151000000000002640200000000003000357300000000000000009999123100000010000000000000BRAESBACNOR7106
012024072602AGRO3       010BRASILAGRO  ON      NM   R$  000000000264500000000026830000000002637000000000266200000000026660000000002666000000000267000824000000000000114800000000000305626500000000000000009999123100000010000000000000BRAGROACNOR7114
012024072602GRND3       010GRENDENE    ON      NM   R$  000000000058900000000005980000000000586000000000059200000000005930000000000592000000000059501493000000000000470200000000000278452300000000000000009999123100000010000000000000BRGRNDACNOR3174
012024072602GUAR3       010GUARARAPES  ON      NM   R$  000000000068400000000007040000000000681000000000069500000000007040000000000695000000000070503227000000000001004400000000000698058500000000000000009999123100000010000000000000BRGUARACNOR4173
012024072602HAGA3       010HAGA S/A    ON           R$  000000000027700000000002820000000000262000000000026900000000002620000000000262000000000027000053000000000000012100000000000003259100000000000000009999123100000010000000000000BRHAGAACNOR7103
012024072602HAGA4       010HAGA S/A    PN           R$  000000000011800000000001180000000000117000000000011700000000001170000000000117000000000011800010000000000000005500000000000000644500000000000000009999123100000010000000000000BRHAGAACNPR4103
012024072602HAPV3       010HAPVIDA     ON      NM   R$  000000000040400000000004200000000000403000000000041300000000004180000000000418000000000041938183000000000041805200000000017288462500000000000000009999123100000010000000000000BRHAPVACNOR4114
012024072602JHSF3       010JHSF PART   ON      NM   R$  000000000039900000000004040000000000395000000000040000000000004000000000000399000000000040004740000000000003463000000000001385293900000000000000009999123100000010000000000000BRJHSFACNOR2137
012024072602JSLG3       010JSL         ON      NM   R$  000000000095500000000009740000000000943000000000096000000000009610000000000961000000000096601097000000000000198500000000000190700300000000000000009999123100000010000000000000BRJSLGACNOR2121
012024072602MTSA4       010METISA      PN           R$  000000000420100000000043770000000004201000000000430000000000043090000000004214000000000431000009000000000000001000000000000004300200000000000000009999123100000010000000000000BRMTSAACNPR9072
012024072602MULT3       010MULTIPLAN   ON      N2   R$  000000000238700000000024310000000002373000000000240500000000024170000000002416000000000242212890000000000003518600000000008465229000000000000000009999123100000010000000000000BRMULTACNOR5139
012024072602MYPK3       010IOCHP-MAXIONON      NM   R$  000000000119800000000012250000000001188000000000120500000000012250000000001225000000000122602850000000000000730600000000000880512800000000000000009999123100000010000000000000BRMYPKACNOR7155
012024072602AGXY3       010AGROGALAXY  ON      NM   R$  000000000014400000000001440000000000140000000000014100000000001400000000000140000000000014100241000000000000114100000000000016133500000000000000009999123100000010000000000000BRAGXYACNOR4103
012024072602ALLD3       010ALLIED      ON      NM   R$  000000000079800000000008000000000000785000000000079100000000007850000000000785000000000078600207000000000000045400000000000035925600000000000000009999123100000010000000000000BRALLDACNOR3106
012024072602ALOS3       010ALLOS       ON      NM   R$  000000000214600000000021750000000002135000000000216000000000021670000000002166000000000216706232000000000002145500000000004635721800000000000000009999123100000010000000000000BRALOSACNOR5101
012024072602ALPA3       010ALPARGATAS  ON      N1   R$  000000000084000000000008430000000000840000000000084000000000008430000000000841000000000084800016000000000000003900000000000003276700000000000000009999123100000010000000000000BRALPAACNOR0231
012024072602ALPA4       010ALPARGATAS  PN      N1   R$  000000000085500000000008750000000000851000000000086500000000008660000000000865000000000086703708000000000001809700000000001566238800000000000000009999123100000010000000000000BRALPAACNPR7232
012024072602CPLE3       010COPEL       ON      N2   R$  000000000089000000000009090000000000883000000000090100000000009050000000000903000000000090609609000000000006742300000000006079804100000000000000009999123100000010000000000000BRCPLEACNOR8149
012024072602CPLE6       010COPEL       PNB     N2   R$  000000000100300000000010140000000000994000000000100700000000010120000000001011000000000101318478000000000013159400000000013259244100000000000000009999123100000010000000000000BRCPLEACNPB9146
012024072602CRFB3       010CARREFOUR BRON      NM   R$  000000000093300000000009360000000000913000000000091800000000009170000000000917000000000091809870000000000006962300000000006395516200000000000000009999123100000010000000000000BRCRFBACNOR2116
012024072602CRPG5       010CRISTAL     PNA          R$  000000000293600000000029490000000002901000000000291300000000029010000000002901000000000294000028000000000000003700000000000010779600000000000000009999123100000010000000000000BRCRPGACNPA3119
012024072602CSAN3       010COSAN       ON      NM   R$  000000000135900000000013880000000001340000000000136300000000013700000000001369000000000137013607000000000009196700000000012540252300000000000000009999123100000010000000000000BRCSANACNOR6126
012024072602ENGI11      010ENERGISA    UNT     N2   R$  000000000442100000000044690000000004372000000000443300000000044500000000004447000000000446209327000000000002543500000000011277400500000000000000009999123100000010000000000000BRENGICDAM16135
012024072602ENGI3       010ENERGISA    ON      N2   R$  000000000136200000000013790000000001362000000000136800000000013790000000001370000000000139900016000000000000001700000000000002325700000000000000009999123100000010000000000000BRENGIACNOR0145
012024072602ENGI4       010ENERGISA    PN      N2   R$  000000000078900000000007900000000000758000000000076800000000007680000000000767000000000078300030000000000000006500000000000004992600000000000000009999123100000010000000000000BRENGIACNPR7141
012024072602NEOE3       010NEOENERGIA  ON      NM   R$  000000000178900000000018270000000001781000000000181200000000018170000000001815000000000181703037000000000000817900000000001482485100000000000000009999123100000010000000000000BRNEOEACNOR3123
012024072602PETZ3       010PETZ        ON      NM   R$  000000000036500000000003820000000000361000000000037100000000003710000000000370000000000037108080000000000011461500000000004262104500000000000000009999123100000010000000000000BRPETZACNOR2110
012024072602BEES3       010BANESTES    ON           R$  000000000089100000000009080000000000890000000000089600000000008930000000000892000000000089300053000000000000011500000000000010312500000000000000009999123100000010000000000000BRBEESACNOR9393
012024072602BEES4       010BANESTES    PN           R$  000000000097200000000009900000000000972000000000097800000000009770000000000973000000000098900009000000000000001000000000000000978200000000000000009999123100000010000000000000BRBEESACNPR6318
012024072602BGIP4       010BANESE      PN           R$  000000000225000000000022500000000002250000000000225000000000022500000000002226000000000228800001000000000000000100000000000000225000000000000000009999123100000010000000000000BRBGIPACNPR8208
012024072602BHIA3       010CASAS BAHIA ON      NM   R$  000000000049000000000004910000000000474000000000047800000000004750000000000475000000000047602216000000000003287900000000001573444400000000000000009999123100000010000000000000BRBHIAACNOR1102
012024072602BRBI11      010BR PARTNERS UNT     N2   R$  000000000144000000000014400000000001385000000000140700000000014200000000001412000000000142001401000000000000253800000000000357264100000000000000009999123100000010000000000000BRBRBICDAM10109
012024072602BRFS3       010BRF SA      ON      NM   R$  000000000212700000000021850000000002115000000000215500000000021590000000002157000000000216016287000000000006959900000000015000850800000000000000009999123100000010000000000000BRBRFSACNOR8122
012024072602BRIT3       010BRISANET    ON      NM   R$  000000000040500000000004100000000000403000000000040600000000004070000000000404000000000040700741000000000000310200000000000126012800000000000000009999123100000010000000000000BRBRITACNOR0103
012024072602BRKM3       010BRASKEM     ON      N1   R$  000000000179500000000018610000000001795000000000181400000000018130000000001797000000000181300048000000000000006000000000000010886800000000000000009999123100000010000000000000BRBRKMACNOR1119
012024072602BRKM5       010BRASKEM     PNA     N1   R$  000000000180300000000018710000000001781000000000181000000000018180000000001815000000000181807087000000000002666200000000004826526800000000000000009999123100000010000000000000BRBRKMACNPA4121
012024072602BRKM6       010BRASKEM     PNB     N1   R$  000000000137300000000013730000000001373000000000137300000000013730000000001330000000000149900001000000000000000200000000000000274600000000000000009999123100000010000000000000BRBRKMACNPB2114
012024072602CXSE3       010CAIXA SEGURION      NM   R$  000000000144700000000014510000000001438000000000144500000000014430000000001442000000000144405959000000000001496000000000002162195200000000000000009999123100000010000000000000BRCXSEACNOR7106
012024072602CYRE3       010CYRELA REALTON      NM   R$  000000000196200000000019800000000001940000000000196300000000019660000000001966000000000196808496000000000002977100000000005845946100000000000000009999123100000010000000000000BRCYREACNOR7140
012024072602GGPS3       010GPS         ON      NM   R$  000000000170200000000017350000000001694000000000171100000000017240000000001723000000000172703692000000000004209100000000007203770800000000000000009999123100000010000000000000BRGGPSACNOR9103
012024072602BPAC5       010BTGP BANCO  PNA     N2   R$  000000000082700000000008400000000000820000000000083200000000008310000000000827000000000084500019000000000000002800000000000002330900000000000000009999123100000010000000000000BRBPACACNPA0134
012024072602CSED3       010CRUZEIRO EDUON      NM   R$  000000000038400000000004040000000000382000000000039600000000004040000000000398000000000040400662000000000000275400000000000109280200000000000000009999123100000010000000000000BRCSEDACNOR9104
012024072602CSMG3       010COPASA      ON      NM   R$  000000000218200000000022040000000002164000000000218500000000021810000000002181000000000218305369000000000001049500000000002293535000000000000000009999123100000010000000000000BRCSMGACNOR5174
012024072602CSNA3       010SID NACIONALON           R$  000000000119600000000012090000000001167000000000119300000000012030000000001203000000000120412432000000000007290500000000008700100100000000000000009999123100000010000000000000BRCSNAACNOR6261
012024072602EUCA4       010EUCATEX     PN      N1   R$  000000000152400000000015640000000001524000000000154600000000015640000000001546000000000156500138000000000000024400000000000037729700000000000000009999123100000010000000000000BREUCAACNPR8044
012024072602EVEN3       010EVEN        ON      NM   R$  000000000060900000000006240000000000604000000000061400000000006210000000000616000000000062102093000000000000458700000000000281706600000000000000009999123100000010000000000000BREVENACNOR8119
012024072602VULC3       010VULCABRAS   ON      NM   R$  000000000153500000000015660000000001531000000000154800000000015560000000001546000000000155604582000000000000933100000000001445016100000000000000009999123100000010000000000000BRVULCACNOR2159
012024072602VVEO3       010VIVEO       ON      NM   R$  000000000022700000000002370000000000220000000000022400000000002200000000000220000000000022101971000000000001158400000000000259497900000000000000009999123100000010000000000000BRVVEOACNOR0104
012024072602CAMB3       010CAMBUCI     ON           R$  000000000113100000000011360000000001115000000000112900000000011320000000001124000000000113200232000000000000034700000000000039200800000000000000009999123100000010000000000000BRCAMBACNOR4130
012024072602CAML3       010CAMIL       ON      NM   R$  000000000088000000000008880000000000872000000000088000000000008830000000000882000000000088300872000000000000172900000000000152256900000000000000009999123100000010000000000000BRCAMLACNOR3128
012024072602CASH3       010MELIUZ      ON      NM   R$  000000000057500000000005840000000000572000000000057700000000005840000000000578000000000058400980000000000000435100000000000251358700000000000000009999123100000010000000000000BRCASHACNOR8106
012024072602CBAV3       010CBA         ON      NM   R$  000000000055600000000005650000000000532000000000054100000000005320000000000532000000000053304818000000000003753700000000002033302000000000000000009999123100000010000000000000BRCBAVACNOR5104
012024072602CCRO3       010CCR SA      ON      NM   R$  000000000122600000000012520000000001223000000000123900000000012480000000001247000000000124911680000000000007385300000000009150891800000000000000009999123100000010000000000000BRCCROACNOR2145
012024072602WEGE3       010WEG         ON      NM   R$  000000000460500000000046960000000004595000000000465700000000046920000000004685000000000469315072000000000005986900000000027886544700000000000000009999123100000010000000000000BRWEGEACNOR0223
012024072602SAPR11      010SANEPAR     UNT     N2   R$  000000000266300000000026980000000002650000000000267600000000026770000000002677000000000268102891000000000000529900000000001418353800000000000000009999123100000010000000000000BRSAPRCDAM13118
012024072602SAPR3       010SANEPAR     ON      N2   R$  000000000050200000000005100000000000499000000000050300000000005030000000000503000000000050400428000000000000140300000000000070634700000000000000009999123100000010000000000000BRSAPRACNOR9159
012024072602SAPR4       010SANEPAR     PN      N2   R$  000000000053900000000005460000000000539000000000054200000000005410000000000541000000000054202607000000000001779500000000000964743400000000000000009999123100000010000000000000BRSAPRACNPR6159
012024072602SBFG3       010GRUPO SBF   ON      NM   R$  000000000133200000000013850000000001296000000000135400000000013610000000001361000000000136204843000000000001595400000000002160478400000000000000009999123100000010000000000000BRSBFGACNOR1103
012024072602SBSP3       010SABESP      ON      NM   R$  000000000862000000000087010000000008530000000000862700000000086800000000008676000000000868020065000000000004322200000000037291114400000000000000009999123100000010000000000000BRSBSPACNOR5161
012024072602CEAB3       010CEA MODAS   ON      NM   R$  000000000084200000000008600000000000835000000000085000000000008530000000000845000000000085305249000000000002119900000000001802196800000000000000009999123100000010000000000000BRCEABACNOR1102
012024072602CEBR3       010CEB         ON           R$  000000000199300000000020570000000001976000000000198800000000020010000000001985000000000203000022000000000000004100000000000008153600000000000000009999123100000010000000000000BRCEBRACNOR5125
012024072602CEBR5       010CEB         PNA          R$  000000000180000000000018000000000001778000000000178200000000017780000000001778000000000179000007000000000000000800000000000001426200000000000000009999123100000010000000000000BRCEBRACNPA8124
012024072602CEBR6       010CEB         PNB          R$  000000000190900000000019090000000001851000000000187900000000018960000000001853000000000188600021000000000000003600000000000006767500000000000000009999123100000010000000000000BRCEBRACNPB6124
012024072602CEDO3       010CEDRO       ON      N1   R$  000000000298600000000029860000000002766000000000281900000000027660000000000002000000000285000006000000000000000600000000000001691800000000000000009999123100000010000000000000BRCEDOACNOR8096
012024072602CGAS5       010COMGAS      PNA          R$  000000001096000000000112990000000010900000000001113500000000112990000000011299000000001149800008000000000000001000000000000011135200000000000000009999123100000010000000000000BRCGASACNPA3160
012024072602CGRA3       010GRAZZIOTIN  ON           R$  000000000252400000000025240000000002524000000000252400000000025240000000002520000000000258900001000000000000000100000000000000252400000000000000009999123100000010000000000000BRCGRAACNOR2083
012024072602CGRA4       010GRAZZIOTIN  PN           R$  000000000256600000000025660000000002531000000000254300000000025430000000002529000000000254300011000000000000002100000000000005341900000000000000009999123100000010000000000000BRCGRAACNPR9083
012024072602CIEL3       010CIELO       ON      NM   R$  000000000057500000000005760000000000574000000000057500000000005760000000000575000000000057604398000000000006793900000000003908241600000000000000009999123100000010000000000000BRCIELACNOR3157
012024072602UCAS3       010UNICASA     ON      NM   R$  000000000022500000000002310000000000225000000000022800000000002310000000000229000000000023100055000000000000011800000000000002692300000000000000009999123100000010000000000000BRUCASACNOR1113
012024072602UGPA3       010ULTRAPAR    ON      NM   R$  000000000221700000000022900000000002200000000000225900000000022900000000002288000000000229114200000000000004217300000000009528626900000000000000009999123100000010000000000000BRUGPAACNOR8155
012024072602UNIP3       010UNIPAR      ON           R$  000000000497600000000050150000000004972000000000499800000000050150000000004998000000000501500025000000000000002800000000000013994400000000000000009999123100000010000000000000BRUNIPACNOR7206
012024072602UNIP6       010UNIPAR      PNB          R$  000000000503500000000050700000000005012000000000503200000000050250000000005024000000000502501367000000000000351000000000001766531800000000000000009999123100000010000000000000BRUNIPACNPB8206
012024072602USIM3       010USIMINAS    ON      N1   R$  000000000070000000000007060000000000600000000000062900000000006050000000000604000000000060506980000000000003463400000000002181289600000000000000009999123100000010000000000000BRUSIMACNOR3167
012024072602USIM5       010USIMINAS    PNA     N1   R$  000000000073000000000007350000000000630000000000067100000000006330000000000633000000000063475666000000000112126500000000075275683400000000000000009999123100000010000000000000BRUSIMACNPA6169
012024072602EGIE3       010ENGIE BRASILON      NM   R$  000000000441700000000044690000000004408000000000445200000000044550000000004455000000000445604786000000000000748800000000003333667800000000000000009999123100000010000000000000BREGIEACNOR9126
012024072602EKTR4       010ELEKTRO     PN  ED       R$  000000000410000000000042550000000004100000000000411900000000042550000000004200000000000425500023000000000000002800000000000011535100000000000000009999123100000010000000000000BREKTRACNPR7164
012024072602ELET3       010ELETROBRAS  ON      N1   R$  000000000376100000000038520000000003761000000000382600000000038370000000003837000000000384718260000000000007506500000000028726257900000000000000009999123100000010000000000000BRELETACNOR6160
012024072602ELET6       010ELETROBRAS  PNB     N1   R$  000000000419600000000042840000000004186000000000425800000000042700000000004269000000000427704214000000000001993100000000008488227400000000000000009999123100000010000000000000BRELETACNPB7077
012024072602HBOR3       010HELBOR      ON      NM   R$  000000000022200000000002300000000000222000000000022700000000002300000000000230000000000023100347000000000000294700000000000067021000000000000000009999123100000010000000000000BRHBORACNOR3118
012024072602HBRE3       010HBR REALTY  ON      NM   R$  000000000055400000000005580000000000547000000000055500000000005560000000000552000000000055600275000000000000169000000000000093829200000000000000009999123100000010000000000000BRHBREACNOR4100
012024072602HBSA3       010HIDROVIAS   ON      NM   R$  000000000035900000000003640000000000349000000000035600000000003600000000000360000000000036204744000000000002691600000000000959958900000000000000009999123100000010000000000000BRHBSAACNOR0100
012024072602VITT3       010VITTIA      ON      NM   R$  000000000060000000000006290000000000598000000000061800000000006290000000000614000000000062900743000000000000217500000000000134483700000000000000009999123100000010000000000000BRVITTACNOR4107
012024072602VIVA3       010VIVARA S.A. ON      NM   R$  000000000226700000000023470000000002251000000000230200000000023160000000002316000000000231809203000000000004077100000000009388862500000000000000009999123100000010000000000000BRVIVAACNOR0107
012024072602VIVR3       010VIVER       ON      NM   R$  000000000022800000000002280000000000224000000000022500000000002260000000000226000000000022700030000000000000009800000000000002207400000000000000009999123100000010000000000000BRVIVRACNOR4123
012024072602VIVT3       010TELEF BRASILON           R$  000000000487900000000049080000000004865000000000488100000000048700000000004869000000000487009539000000000001803500000000008803737700000000000000009999123100000010000000000000BRVIVTACNOR0182
012024072602RSUL4       010RIOSULENSE  PN           R$  000000000610100000000061990000000006057000000000609400000000060570000000006057000000000617000034000000000000003700000000000022549000000000000000009999123100000010000000000000BRRSULACNPR3114
012024072602DESK3       010DESKTOP     ON      NM   R$  000000000159900000000016270000000001577000000000161100000000016150000000001615000000000161600279000000000000066700000000000107466600000000000000009999123100000010000000000000BRDESKACNOR2104
012024072602DEXP3       010DEXXOS PAR  ON      N1   R$  000000000101700000000010450000000001017000000000103700000000010340000000001034000000000104600302000000000000046200000000000047941600000000000000009999123100000010000000000000BRDEXPACNOR1105
012024072602DEXP4       010DEXXOS PAR  PN      N1   R$  000000000100500000000010240000000001001000000000102100000000010230000000001015000000000102300015000000000000020900000000000021357300000000000000009999123100000010000000000000BRDEXPACNPR8105
012024072602DIRR3       010DIRECIONAL  ON      NM   R$  000000000285800000000028580000000002799000000000281600000000028300000000002830000000000283305877000000000001546800000000004356861400000000000000009999123100000010000000000000BRDIRRACNOR0118
012024072602DMVF3       010D1000VFARMA ON      NM   R$  000000000076800000000007680000000000741000000000075500000000007600000000000754000000000076000306000000000000066400000000000050169700000000000000009999123100000010000000000000BRDMVFACNOR9100
012024072602DOHL4       010DOHLER      PN           R$  000000000041900000000004190000000000419000000000041900000000004190000000000401000000000041500001000000000000000100000000000000041900000000000000009999123100000010000000000000BRDOHLACNPR9066
012024072602DOTZ3       010DOTZ SA     ON      NM   R$  000000000064800000000006690000000000644000000000066100000000006670000000000647000000000066800031000000000000007700000000000005092700000000000000009999123100000010000000000000BRDOTZACNOR7101
012024072602DXCO3       010DEXCO       ON      NM   R$  000000000070300000000007210000000000691000000000070700000000007190000000000717000000000072004508000000000002642500000000001869664800000000000000009999123100000010000000000000BRDXCOACNOR8105
012024072602SANB11      010SANTANDER BRUNT EJ       R$  000000000277300000000028250000000002753000000000279000000000028220000000002816000000000282305944000000000001842000000000005140566500000000000000009999123100000010000000000000BRSANBCDAM13165
012024072602SANB3       010SANTANDER BRON  EJ       R$  000000000132600000000013390000000001307000000000132200000000013390000000001330000000000133900383000000000000063000000000000083295300000000000000009999123100000010000000000000BRSANBACNOR8172
012024072602SANB4       010SANTANDER BRPN  EJ       R$  000000000145500000000014800000000001447000000000146400000000014800000000001479000000000148200376000000000000062000000000000090799700000000000000009999123100000010000000000000BRSANBACNPR5172
012024072602TOTS3       010TOTVS       ON      NM   R$  000000000275800000000028130000000002734000000000277700000000028130000000002811000000000281407167000000000002362600000000006561428500000000000000009999123100000010000000000000BRTOTSACNOR8144
012024072602EALT4       010ACO ALTONA  PN           R$  000000000114300000000011550000000001130000000000114500000000011550000000001122000000000115500016000000000000004900000000000005614800000000000000009999123100000010000000000000BREALTACNPR1138
012024072602ECOR3       010ECORODOVIAS ON      NM   R$  000000000068600000000007070000000000685000000000069600000000007070000000000706000000000070806843000000000003696800000000002574186500000000000000009999123100000010000000000000BRECORACNOR8120
012024072602TPIS3       010TRIUNFO PARTON      NM   R$  000000000037300000000003780000000000373000000000037700000000003740000000000374000000000037800035000000000000023200000000000008756000000000000000009999123100000010000000000000BRTPISACNOR8118
012024072602TRAD3       010TC          ON  EG  NM   R$  000000000038900000000003890000000000371000000000037600000000003820000000000374000000000038200095000000000000064900000000000024452800000000000000009999123100000010000000000000BRTRADACNOR3102
012024072602TRIS3       010TRISUL      ON      NM   R$  000000000049800000000005030000000000491000000000049700000000005010000000000498000000000050100841000000000000468600000000000233142700000000000000009999123100000010000000000000BRTRISACNOR4118
012024072602TRPL3       010TRAN PAULISTON      N1   R$  000000000318100000000032200000000003160000000000319000000000031800000000003181000000000321900022000000000000002500000000000007975000000000000000009999123100000010000000000000BRTRPLACNOR4185
012024072602TRPL4       010TRAN PAULISTPN      N1   R$  000000000244200000000024790000000002441000000000246500000000024680000000002467000000000246808603000000000001952800000000004813765500000000000000009999123100000010000000000000BRTRPLACNPR1185
012024072602TTEN3       0103TENTOS     ON      NM   R$  000000000107600000000011040000000001068000000000108900000000011040000000001103000000000110505111000000000000951800000000001037449100000000000000009999123100000010000000000000BRTTENACNOR0103
012024072602TUPY3       010TUPY        ON      NM   R$  000000000250500000000025210000000002489000000000250600000000025130000000002510000000000252402256000000000000452000000000001132958200000000000000009999123100000010000000000000BRTUPYACNOR1184
012024072602GMAT3       010GRUPO MATEUSON      NM   R$  000000000069700000000006980000000000683000000000069100000000006910000000000691000000000069407668000000000004156100000000002872733800000000000000009999123100000010000000000000BRGMATACNOR7102
012024072602GOAU3       010GERDAU MET  ON      N1   R$  000000000107800000000010780000000001055000000000106300000000010710000000001067000000000107200176000000000000026100000000000027747200000000000000009999123100000010000000000000BRGOAUACNOR1267
012024072602GOAU4       010GERDAU MET  PN      N1   R$  000000000106500000000010660000000001042000000000105400000000010620000000001061000000000106307051000000000004703100000000004959334800000000000000009999123100000010000000000000BRGOAUACNPR8268
012024072602JALL3       010JALLESMACHADON  ED  NM   R$  000000000069200000000007080000000000689000000000070200000000007040000000000703000000000070400848000000000000319300000000000224198300000000000000009999123100000010000000000000BRJALLACNOR0106
012024072602JBSS3       010JBS         ON      NM   R$  000000000320500000000033490000000003205000000000329200000000033020000000003301000000000331025400000000000009296400000000030608889600000000000000009999123100000010000000000000BRJBSSACNOR8121
012024072602MRVE3       010MRV         ON      NM   R$  000000000066400000000006810000000000655000000000067000000000006730000000000672000000000067309943000000000006910500000000004636468200000000000000009999123100000010000000000000BRMRVEACNOR2127
012024072602MTRE3       010MITRE REALTYON  ED  NM   R$  000000000038800000000003960000000000384000000000038900000000003960000000000392000000000039600846000000000000326700000000000127200300000000000000009999123100000010000000000000BRMTREACNOR6113
012024072602ROMI3       010ROMI        ON      NM   R$  000000000106000000000010860000000001052000000000106900000000010800000000001077000000000108000729000000000000152700000000000163360300000000000000009999123100000010000000000000BRROMIACNOR8195
012024072602RRRP3       0103R PETROLEUMON      NM   R$  000000000258900000000026110000000002522000000000254800000000025680000000002568000000000257221263000000000013272100000000033829358600000000000000009999123100000010000000000000BRRRRPACNOR5103
012024072602TASA3       010TAURUS ARMASON      N2   R$  000000000118100000000011850000000001171000000000117400000000011840000000001180000000000118500047000000000000056100000000000065902600000000000000009999123100000010000000000000BRTASAACNOR7104
012024072602TASA4       010TAURUS ARMASPN      N2   R$  000000000116500000000011800000000001155000000000116900000000011720000000001171000000000117800657000000000000101300000000000118440000000000000000009999123100000010000000000000BRTASAACNPR4104
012024072602TCSA3       010TECNISA     ON      NM   R$  000000000022300000000002240000000000221000000000022200000000002210000000000221000000000022400102000000000000034000000000000007548100000000000000009999123100000010000000000000BRTCSAACNOR3112
012024072602TECN3       010TECHNOS     ON      NM   R$  000000000051700000000005430000000000517000000000053100000000005290000000000529000000000053000275000000000000129500000000000068823900000000000000009999123100000010000000000000BRTECNACNOR6109
012024072602TELB3       010TELEBRAS    ON           R$  000000000132700000000013270000000001325000000000132600000000013270000000001313000000000133700005000000000000000600000000000000795900000000000000009999123100000010000000000000BRTELBACNOR2140
012024072602TELB4       010TELEBRAS    PN           R$  000000000091300000000009350000000000912000000000092300000000009160000000000911000000000092700029000000000000004100000000000003788000000000000000009999123100000010000000000000BRTELBACNPR9140
012024072602TEND3       010TENDA       ON      NM   R$  000000000128000000000012910000000001255000000000127800000000012850000000001280000000000128502613000000000000884800000000001131340000000000000000009999123100000010000000000000BRTENDACNOR4111
012024072602TFCO4       010TRACK FIELD PN      N2   R$  000000000109700000000011380000000001093000000000112200000000011380000000001115000000000113800539000000000000099900000000000112182100000000000000009999123100000010000000000000BRTFCOACNPR8114
012024072602TGMA3       010TEGMA       ON      NM   R$  000000000244000000000024820000000002437000000000246400000000024820000000002470000000000248300353000000000000049000000000000120772400000000000000009999123100000010000000000000BRTGMAACNOR7144
012024072602TIMS3       010TIM         ON      NM   R$  000000000163000000000016410000000001620000000000163000000000016280000000001628000000000163116536000000000009246800000000015079407100000000000000009999123100000010000000000000BRTIMSACNOR5117
012024072602RECV3       010PETRORECSA  ON      NM   R$  000000000206300000000021040000000002050000000000208800000000021040000000002101000000000210508103000000000001789100000000003736840700000000000000009999123100000010000000000000BRRECVACNOR3107
012024072602REDE3       010REDE ENERGIAON           R$  000000000068900000000006970000000000689000000000069200000000006950000000000689000000000069400011000000000000001400000000000000969600000000000000009999123100000010000000000000BRREDEACNOR7128
012024072602RENT3       010LOCALIZA    ON      NM   R$  000000000428500000000044040000000004242000000000432900000000043930000000004390000000000439323158000000000006019600000000026062015800000000000000009999123100000010000000000000BRRENTACNOR4196
012024072602ENJU3       010ENJOEI      ON      NM   R$  000000000018100000000001860000000000180000000000018300000000001830000000000182000000000018300423000000000000346300000000000063531200000000000000009999123100000010000000000000BRENJUACNOR9100
012024072602EPAR3       010EMBPAR S/A  ON           R$  000000000059400000000005990000000000592000000000059400000000005920000000000585000000000059900010000000000000004400000000000002613900000000000000009999123100000010000000000000BREPARACNOR9105
012024072602EQPA3       010EQTL PARA   ON           R$  000000000076500000000007850000000000731000000000074900000000007350000000000744000000000077700028000000000000003100000000000002323800000000000000009999123100000010000000000000BREQPAACNOR1111
012024072602EQTL3       010EQUATORIAL  ON      NM   R$  000000000322800000000032860000000003225000000000326300000000032670000000003267000000000327415186000000000004422500000000014433416300000000000000009999123100000010000000000000BREQTLACNOR0130
012024072602ESPA3       010ESPACOLASER ON      NM   R$  000000000010000000000001000000000000097000000000009700000000000990000000000097000000000009901484000000000000645500000000000063240800000000000000009999123100000010000000000000BRESPAACNOR7103
012024072602SYNE3       010SYN PROP TECON      NM   R$  000000000102100000000010320000000001012000000000102500000000010290000000001020000000000103001127000000000000430300000000000441105900000000000000009999123100000010000000000000BRSYNEACNOR2102
012024072602TAEE11      010TAESA       UNT     N2   R$  000000000338200000000033920000000003371000000000338400000000033850000000003384000000000338804045000000000000722200000000002444535000000000000000009999123100000010000000000000BRTAEECDAM10147
012024072602TAEE3       010TAESA       ON      N2   R$  000000000113200000000011320000000001117000000000112200000000011220000000001121000000000112500400000000000000061600000000000069134100000000000000009999123100000010000000000000BRTAEEACNOR9147
012024072602TAEE4       010TAESA       PN      N2   R$  000000000113200000000011360000000001130000000000113300000000011330000000001132000000000113300647000000000000136200000000000154371600000000000000009999123100000010000000000000BRTAEEACNPR6147
012024072602RANI3       010IRANI       ON      NM   R$  000000000086700000000008750000000000864000000000086900000000008730000000000873000000000087501501000000000000419600000000000364884500000000000000009999123100000010000000000000BRRANIACNOR5072
012024072602RAPT3       010RANDON PART ON  EJ  N1   R$  000000000094000000000009550000000000923000000000094000000000009550000000000948000000000095500254000000000000038300000000000036019200000000000000009999123100000010000000000000BRRAPTACNOR7163
012024072602RAPT4       010RANDON PART PN  EJ  N1   R$  000000000107600000000010980000000001066000000000108400000000010980000000001092000000000109803235000000000002435100000000002640437800000000000000009999123100000010000000000000BRRAPTACNPR4163
012024072602ITSA3       010ITAUSA      ON      N1   R$  000000000101900000000010290000000001012000000000102100000000010240000000001024000000000103000292000000000000085000000000000086836500000000000000009999123100000010000000000000BRITSAACNOR0441
012024072602ITSA4       010ITAUSA      PN      N1   R$  000000000101900000000010290000000001012000000000102200000000010290000000001029000000000103013916000000000009386600000000009595798600000000000000009999123100000010000000000000BRITSAACNPR7441
012024072602RCSL3       010RECRUSUL    ON           R$  000000000028900000000002980000000000282000000000029300000000002980000000000291000000000029800090000000000000040700000000000011952700000000000000009999123100000010000000000000BRRCSLACNOR4134
012024072602RCSL4       010RECRUSUL    PN           R$  000000000010300000000001060000000000103000000000010300000000001050000000000104000000000010601154000000000000793500000000000082128500000000000000009999123100000010000000000000BRRCSLACNPR1134
012024072602RDNI3       010RNI         ON      NM   R$  000000000030700000000003180000000000306000000000030900000000003100000000000307000000000031400102000000000000015100000000000004674700000000000000009999123100000010000000000000BRRDNIACNOR9116
012024072602RDOR3       010REDE D OR   ON      NM   R$  000000000271500000000028160000000002713000000000278800000000028080000000002806000000000281016282000000000003908600000000010900736000000000000000009999123100000010000000000000BRRDORACNOR8113
012024072602SUZB3       010SUZANO S.A. ON      NM   R$  000000000525000000000052590000000005167000000000519500000000051790000000005178000000000518018729000000000008078500000000041970160100000000000000009999123100000010000000000000BRSUZBACNOR0130
012024072602RADL3       010RAIADROGASILON      NM   R$  000000000260000000000027040000000002600000000000268000000000027000000000002700000000000270418578000000000006937000000000018591446200000000000000009999123100000010000000000000BRRADLACNOR0157
012024072602RAIL3       010RUMO S.A.   ON      NM   R$  000000000222400000000022730000000002212000000000225500000000022580000000002257000000000225812714000000000005352900000000012072129900000000000000009999123100000010000000000000BRRAILACNOR9105
012024072602RAIZ4       010RAIZEN      PN      N2   R$  000000000030700000000003130000000000304000000000030800000000003060000000000306000000000030711366000000000013300500000000004103655300000000000000009999123100000010000000000000BRRAIZACNPR6110
012024072602SMFT3       010SMART FIT   ON      NM   R$  000000000211300000000021380000000002101000000000211600000000021100000000002110000000000211105837000000000002180300000000004614984300000000000000009999123100000010000000000000BRSMFTACNOR1112
012024072602SMTO3       010SAO MARTINHOON      NM   R$  000000000304300000000030700000000003025000000000304800000000030480000000003046000000000305202985000000000000634600000000001934323700000000000000009999123100000010000000000000BRSMTOACNOR3126
012024072602VAMO3       010VAMOS       ON      NM   R$  000000000088000000000008940000000000864000000000088100000000008940000000000893000000000089508495000000000004118500000000003630961300000000000000009999123100000010000000000000BRVAMOACNOR7105
012024072602VBBR3       010VIBRA       ON      NM   R$  000000000228000000000023320000000002231000000000229200000000023240000000002323000000000232512545000000000005090300000000011670745100000000000000009999123100000010000000000000BRVBBRACNOR1108
012024072607NUTR3       010NUTRIPLANT  ON      MA   R$  000000000049700000000005270000000000497000000000051100000000005240000000000504000000000052400055000000000000006400000000000003275300000000000000009999123100000010000000000000BRNUTRACNOR0104
012024072607TXRX4       010TEX RENAUX  PN           R$  000000000022600000000002260000000000225000000000022500000000002250000000000226000000000023500023000000000000004500000000000001013300000000000000009999123100000010000000000000BRTXRXACNPR0142
012024072608SGPS3       010SPRINGS     ON      NM   R$  000000000023000000000002300000000000230000000000023000000000002300000000000230000000000023300027000000000000019300000000000004439000000000000000009999123100000010000000000000BRSGPSACNOR4105
012024072608OIBR3       010OI          ON      N1   R$  000000000044600000000004530000000000436000000000044300000000004400000000000439000000000044000640000000000000539300000000000239324500000000000000009999123100000010000000000000BROIBRACNOR1111
012024072608OIBR4       010OI          PN      N1   R$  000000000129600000000012970000000001277000000000128400000000012780000000001277000000000127800021000000000000003400000000000004366000000000000000009999123100000010000000000000BROIBRACNPR8110
012024072608ATMP3       010ATMASA      ON           R$  000000000019600000000001960000000000190000000000019100000000001960000000000193000000000019800009000000000000002300000000000000440000000000000000009999123100000010000000000000BRATMPACNOR8100
012024072608CTNM4       010COTEMINAS   PN           R$  000000000011000000000001100000000000110000000000011000000000001100000000000110000000000011100053000000000000047200000000000005192000000000000000009999123100000010000000000000BRCTNMACNPR6129
012024072608CTSA3       010SANTANENSE  ON           R$  000000000024000000000003370000000000240000000000029200000000003090000000000293000000000030900374000000000000108700000000000031803800000000000000009999123100000010000000000000BRCTSAACNOR3062
012024072608CTSA4       010SANTANENSE  PN           R$  000000000011800000000001800000000000118000000000015600000000001750000000000173000000000017500778000000000000551800000000000086508900000000000000009999123100000010000000000000BRCTSAACNPR0062
012024072608AMER3       010AMERICANAS  ON      NM   R$  000000000007700000000000810000000000070000000000007400000000000700000000000069000000000007004731000000000044384900000000003317825000000000000000009999123100000010000000000000BRAMERACNOR6102
012024072608HOOT4       010HOTEIS OTHONPN           R$  000000000022700000000002270000000000227000000000022700000000002270000000000229000000000024300002000000000000000400000000000000090800000000000000009999123100000010000000000000BRHOOTACNPR9015
012024072608PMAM3       010PARANAPANEMAON      NM   R$  000000000024100000000002410000000000238000000000024000000000002400000000000240000000000024100029000000000000007300000000000001752500000000000000009999123100000010000000000000BRPMAMACNOR3039
012024072608LIGT3       010LIGHT S/A   ON      NM   R$  000000000044100000000004430000000000431000000000043800000000004400000000000440000000000044201560000000000000437300000000000191680700000000000000009999123100000010000000000000BRLIGTACNOR2124
012024072608OSXB3       010OSX BRASIL  ON      NM   R$  000000000038200000000003890000000000370000000000037600000000003820000000000382000000000038500025000000000000008500000000000003198000000000000000009999123100000010000000000000BROSXBACNOR8109
012024072608JFEN3       010JOAO FORTES ON           R$  000000000003700000000000400000000000033000000000003600000000000370000000000036000000000003702134000000000009605900000000000355322000000000000000009999123100000010000000000000BRJFENACNOR0059
012024072608NEXP3       010NEXPE       ON           R$  000000000042400000000004240000000000415000000000041800000000004150000000000410000000000041700004000000000000000400000000000000167500000000000000009999123100000010000000000000BRNEXPACNOR0101
012024072608ETER3       010ETERNIT     ON      NM   R$  000000000055800000000005700000000000537000000000055800000000005610000000000557000000000056101416000000000000724100000000000404317100000000000000009999123100000010000000000000BRETERACNOR3243
012024072608RSID3       010ROSSI RESID ON      NM   R$  000000000042100000000004250000000000361000000000039200000000004100000000000410000000000042500272000000000001805100000000000707735200000000000000009999123100000010000000000000BRRSIDACNOR8120
012024072608RNEW11      010RENOVA      UNT     N2   R$  000000000026900000000002700000000000265000000000026600000000002650000000000265000000000026900011000000000000001300000000000000346000000000000000009999123100000010000000000000BRRNEWCDAM15110
012024072608RNEW3       010RENOVA      ON      N2   R$  000000000009000000000000900000000000088000000000008800000000000890000000000088000000000008900056000000000000026200000000000002326100000000000000009999123100000010000000000000BRRNEWACNOR8110
012024072608RNEW4       010RENOVA      PN      N2   R$  000000000009000000000000910000000000088000000000008900000000000880000000000088000000000008900063000000000000043800000000000003900600000000000000009999123100000010000000000000BRRNEWACNPR5110
012024072608RPMG3       010PET MANGUINHON           R$  000000000029900000000003080000000000283000000000029300000000003010000000000300000000000030900227000000000000026900000000000007887300000000000000009999123100000010000000000000BRRPMGACNOR9194
012024072610BSLI10      010BRB BANCO   PN  REC      R$  000000000088900000000009000000000000889000000000089200000000009000000000000000000000000096900003000000000000000700000000000000624500000000000000009999123100000010000000000000BRBSLIR02PR5192
012024072610RENT1       010LOCALIZA    DIR ORD NM   R$  000000000105900000000011390000000000973000000000103200000000011350000000001135000000000113600215000000000000081900000000000084595600000000000000009999123100000010000000000000BRRENTD06OR8195
012024072612MAXR11      010FII MAX RET CI           R$  000000000819800000000081990000000008150000000000819400000000081900000000008150000000000819700014000000000000000066000000000000540804000000000000009999123100000010000000000000BRMAXRCTF009269
012024072612MCCI11      010FII MAUA    CI           R$  000000000925800000000093460000000009220000000000928400000000093280000000009328000000000932913524000000000000059119000000000548876145000000000000009999123100000010000000000000BRMCCICTF008163
012024072612MCEM11      010FII MCEM    CI           R$  000000001080100000000109970000000010801000000001082800000000109970000000010801000000001099700003000000000000000008000000000000086628000000000000009999123100000010000000000000BRMCEMCTF006100
012024072612MCHY11      010FII MAUA HY CI           R$  000000000095100000000009510000000000942000000000094400000000009440000000000943000000000094428036000000000000393283000000000371538998000000000000009999123100000010000000000000BRMCHYCTF004139
012024072612MFAI11      010FII MERITOFACI           R$  000000000609700000000062010000000006076000000000616500000000061140000000006114000000000621400023000000000000001067000000000006578832000000000000009999123100000010000000000000BRMFAICTF005152
012024072612MFCR11      010FII MERITO RCI           R$  000000000275200000000027530000000002610000000000270100000000026640000000002611000000000270000019000000000000000029000000000000078339000000000000009999123100000010000000000000BRMFCRCTF002125
012024072612MFII11      010FII MERITO ICI           R$  000000001012500000000101500000000010108000000001011900000000101500000000010122000000001015000430000000000000005588000000000056548141000000000000009999123100000010000000000000BRMFIICTF008236
012024072612MGHT11      010FII MOGNO HTCI           R$  000000000222200000000022890000000002222000000000226200000000022510000000002252000000000228400149000000000000001002000000000002266635000000000000009999123100000010000000000000BRMGHTCTF005155
012024072612CLIN11      010FII CLAVE INCI           R$  000000000951400000000095850000000009514000000000954400000000095670000000009554000000000956714827000000000000053568000000000511258301000000000000009999123100000010000000000000BRCLINCTF007109
012024072612ABCP11      010FII ABC IMOBCI           R$  000000000667500000000066900000000006656000000000667600000000066760000000006676000000000667800037000000000000000252000000000001682521000000000000009999123100000010000000000000BRABCPCTF000340
012024072612HTMX11      010FII HOTEL MXCI           R$  000000001790800000000180990000000017890000000001803400000000180400000000018040000000001808800529000000000000002055000000000037060725000000000000009999123100000010000000000000BRHTMXCTF000281
012024072612HUCG11      010FII UNIMED CCI           R$  000000000890000000000089000000000008897000000000889800000000088970000000008402000000000889400002000000000000000002000000000000017797000000000000009999123100000010000000000000BRHUCGCTF004120
012024072612HUSC11      010FII H UNIMEDCI           R$  000000001124800000000112480000000011248000000001124800000000112480000000011001000000001124800001000000000000000001000000000000011248000000000000009999123100000010000000000000BRHUSCCTF009153
012024072612JSRE11      010FII JS REAL CI           R$  000000000676700000000068950000000006732000000000683100000000068000000000006800000000000680605361000000000000020004000000000136655990000000000000009999123100000010000000000000BRJSRECTF007263
012024072612KCRE11      010FII KINEA CRCI           R$  000000000095800000000009610000000000957000000000095900000000009600000000000959000000000096100246000000000000019539000000000018748404000000000000009999123100000010000000000000BRKCRECTF009126
012024072612KFOF11      010FII KINEAFOFCI           R$  000000000907500000000090750000000009011000000000902800000000090350000000009023000000000903500868000000000000004265000000000038506181000000000000009999123100000010000000000000BRKFOFCTF006170
012024072612PABY11      010FII PANAMBY CI           R$  000000000134200000000013420000000001342000000000134200000000013420000000001252000000000134200001000000000000000005000000000000006710000000000000009999123100000010000000000000BRPABYCTF012158
012024072612PATC11      010FII PATRIA  CI           R$  000000000358700000000036080000000003587000000000359200000000035920000000003592000000000360800047000000000000000243000000000000872950000000000000009999123100000010000000000000BRPATCCTF002171
012024072612PATL11      010FII PATLOGISCI           R$  000000000619900000000061990000000006161000000000618100000000061880000000006180000000000618800702000000000000004813000000000029751118000000000000009999123100000010000000000000BRPATLCTF003147
012024072612ICRI11      010FII CI IPCA CI           R$  000000000966900000000097000000000009623000000000966000000000096410000000009640000000000965000208000000000000005615000000000054242547000000000000009999123100000010000000000000BRICRICTF004105
012024072612IDFI11      010FII UNIDADESCI           R$  000000000093000000000009300000000000845000000000092400000000009280000000000928000000000093000015000000000000000708000000000000654195000000000000009999123100000010000000000000BRIDFICTF007133
012024072612IDGR11      010FII UNID II CI           R$  000000000082500000000008250000000000825000000000082500000000008250000000000700000000000082500002000000000000001000000000000000825000000000000000009999123100000010000000000000BRIDGRCTF006128
012024072612BARI11      010FII BARIGUI CI           R$  000000000816400000000082370000000008127000000000818600000000081640000000008164000000000823002128000000000000004915000000000040235697000000000000009999123100000010000000000000BRBARICTF003163
012024072612LSPA11      010FII LESTE PACI           R$  000000000740000000000080990000000007187000000000736100000000073000000000007210000000000730000066000000000000000330000000000002429449000000000000009999123100000010000000000000BRLSPACTF005140
012024072612LUGG11      010FII LUGGO   CI           R$  000000000734100000000074060000000007340000000000736300000000073460000000007344000000000737400065000000000000000214000000000001575761000000000000009999123100000010000000000000BRLUGGCTF007156
012024072612LVBI11      010FII VBI LOG CI           R$  000000001159100000000117740000000011591000000001169600000000116610000000011661000000001170005205000000000000027474000000000321360025000000000000009999123100000010000000000000BRLVBICTF002170
012024072612BMLC11      010FII BMBRC LCCI           R$  000000000999800000000099980000000009964000000000997000000000099640000000009764000000000999500004000000000000000015000000000000149562000000000000009999123100000010000000000000BRBMLCCTF004252
012024072612BNFS11      010FII BANRISULCI           R$  000000001200000000000121000000000011941000000001204900000000120880000000012030000000001208800105000000000000000549000000000006615393000000000000009999123100000010000000000000BRBNFSCTF000242
012024072612EXES11      010FII EXES    CI  ERS      R$  000000000098000000000009900000000000980000000000098700000000009900000000000941000000000099100004000000000000000148000000000000146170000000000000009999123100000010000000000000BREXESCTF006127
012024072612EXES12      010FII EXES    DIR          R$  000000000000200000000000020000000000001000000000000100000000000020000000000001000000000000200333000000000000410876000000000000640763000000000000009999123100000010000000000000BREXESD01M19126
012024072612FAED11      010FII ANH EDUCCI           R$  000000001537000000000153700000000015000000000001505700000000151600000000015018000000001516000109000000000000001068000000000016081790000000000000009999123100000010000000000000BRFAEDCTF003279
012024072612FAMB11      010FII ALMIRANTCI           R$  000000005110000000000520000000000051000000000005132000000000520000000000051000000000005430000005000000000000000005000000000000256601000000000000009999123100000010000000000000BRFAMBCTF018316
012024072612FATN11      010FII ATHENA ICI           R$  000000000920900000000092100000000009195000000000920400000000092080000000009205000000000920800599000000000000008621000000000079348753000000000000009999123100000010000000000000BRFATNCTF000153
012024072612SNEL11      010FII SUNO EL CI           R$  000000000093500000000009390000000000930000000000093500000000009300000000000930000000000093700683000000000000050407000000000047148158000000000000009999123100000010000000000000BRSNELCTF010110
012024072612SNFF11      010FII SUNOFOFICI           R$  000000000865100000000087090000000008644000000000866400000000087080000000008708000000000871000598000000000000004474000000000038764752000000000000009999123100000010000000000000BRSNFFCTF001139
012024072612SNLG11      010FII SUNO LG CI           R$  000000000329700000000033000000000003261000000000329400000000032980000000003279000000000329800058000000000000001670000000000005502335000000000000009999123100000010000000000000BRSNLGCTF007105
012024072612SNME11      010FII SNME    CI           R$  000000000097000000000009700000000000960000000000096500000000009680000000000967000000000096800078000000000000005711000000000005515317000000000000009999123100000010000000000000BRSNMECTF000108
012024072612SPGM11      010FII SPGM    CI           R$  000000000106700000000010670000000001067000000000106700000000010670000000001067000000000000000024000000000000002240000000000002390080000000000000009999123100000010000000000000BRSPGMCTF000100
012024072612SPGM15      010FII SPGM    CI           R$  000000000115500000000011550000000001155000000000115500000000011550000000000000000000000115500032000000000000030396000000000035107380000000000000009999123100000010000000000000BRSPGMCTF018100
012024072612SPGM16      010FII SPGM    CI           R$  000000000100000000000010000000000001000000000000100000000000010000000000001000000000000000000025000000000000000225000000000000225000000000000000009999123100000010000000000000BRSPGMCTF026100
012024072612SPTW11      010FII SP DOWNTCI           R$  000000000411000000000041100000000004100000000000410500000000041040000000004103000000000410400140000000000000002055000000000008435981000000000000009999123100000010000000000000BRSPTWCTF002236
012024072612SPXS11      010FII SPX SYN CI           R$  000000000094300000000009430000000000936000000000093900000000009400000000000939000000000094007347000000000000057944000000000054412406000000000000009999123100000010000000000000BRSPXSCTF002125
012024072612ZAGH11      010FII ZAGH    CI           R$  000000000120000000000012000000000001200000000000120000000000012000000000000880000000000120000006000000000000000227000000000000272400000000000000009999123100000010000000000000BRZAGHCTF007105
012024072612ZAVI11      010FII ZAVIT R CI           R$  000000001013800000000102940000000010120000000001025600000000102700000000010175000000001027300288000000000000001167000000000011969279000000000000009999123100000010000000000000BRZAVICTF004122
012024072612PRSN11      010FII PERSONALCI           R$  000000000011000000000001100000000000110000000000011000000000001100000000000106000000000011000003000000000000000052000000000000005720000000000000009999123100000010000000000000BRPRSNCTF005125
012024072612PRSV11      010FII P VARGASCI           R$  000000000628500000000062850000000006284000000000628400000000062840000000005890000000000628500002000000000000000010000000000000062849000000000000009999123100000010000000000000BRPRSVCTF008226
012024072612PULV11      010FII PULV    CI           R$  000000000084100000000009600000000000841000000000088400000000009600000000000870000000000096001091000000000000025928000000000022939266000000000000009999123100000010000000000000BRPULVCTF007102
012024072612PVBI11      010FII VBI PRI CI           R$  000000000959000000000096480000000009510000000000957600000000096480000000009646000000000964812209000000000000035909000000000343895438000000000000009999123100000010000000000000BRPVBICTF003153
012024072612QAGR11      010FII QUASAR ACI           R$  000000000463000000000046960000000004630000000000465500000000046600000000004660000000000469000322000000000000003199000000000014892220000000000000009999123100000010000000000000BRQAGRCTF005156
012024072612WHGR11      010FII WHG REALCI           R$  000000000097100000000009800000000000971000000000097600000000009790000000000977000000000097900274000000000000015100000000000014742104000000000000009999123100000010000000000000BRWHGRCTF008126
012024072612WPLZ11      010FII W PLAZA CI           R$  000000000620000000000062000000000006100000000000612400000000061460000000006110000000000623100016000000000000000361000000000002211081000000000000009999123100000010000000000000BRWPLZCTF004267
