00COTAHIST.2024BOVESPA 20240706                                                                                                                                                                                                                      
012024070502BIOM3       010BIOMM       ON      MA   R$  000000000140000000000015010000000001396000000000145400000000014490000000001449000000000145100666000000000000118200000000000171911400000000000000009999123100000010000000000000BRBIOMACNOR2112
012024070502VLID3       010VALID       ON      NM   R$  000000000158300000000015850000000001533000000000156000000000015710000000001570000000000158504291000000000000550100000000000858257500000000000000009999123100000010000000000000BRVLIDACNOR5143
012024070502VVEO3       010VIVEO       ON      NM   R$  000000000026700000000002850000000000249000000000026300000000002850000000000284000000000028503977000000000003064100000000000806907700000000000000009999123100000010000000000000BRVVEOACNOR0104
012024070502PINE3       010PINE        ON      N2   R$  000000000051800000000005850000000000518000000000055500000000005300000000000530000000000054200053000000000000018800000000000010444000000000000000009999123100000010000000000000BRPINEACNOR1149
012024070502CAML3       010CAMIL       ON      NM   R$  000000000085700000000008580000000000838000000000084800000000008530000000000853000000000085801853000000000000459400000000000389743600000000000000009999123100000010000000000000BRCAMLACNOR3128
012024070502CCRO3       010CCR SA      ON      NM   R$  000000000120900000000012210000000001196000000000120900000000012140000000001214000000000121914459000000000006617300000000008005363800000000000000009999123100000010000000000000BRCCROACNOR2145
012024070502PORT3       010WILSON SONS ON      NM   R$  000000000153800000000015570000000001515000000000153400000000015560000000001556000000000155802244000000000000415200000000000637001900000000000000009999123100000010000000000000BRPORTACNOR8108
012024070502SANB11      010SANTANDER BRUNT          R$  000000000276500000000027680000000002711000000000272600000000027110000000002710000000000271510288000000000003456200000000009423187500000000000000009999123100000010000000000000BRSANBCDAM13164
012024070502DEXP4       010DEXXOS PAR  PN      N1   R$  000000000105000000000010510000000001012000000000103000000000010120000000001010000000000102000032000000000000005200000000000005359700000000000000009999123100000010000000000000BRDEXPACNPR8105
012024070502SAPR11      010SANEPAR     UNT EJ  N2   R$  000000000272100000000027490000000002701000000000273000000000027290000000002729000000000274102956000000000000541000000000001477112900000000000000009999123100000010000000000000BRSAPRCDAM13118
012024070502TKNO4       010TEKNO       PN           R$  000000000700000000000070000000000007000000000000700000000000070000000000006205000000000800000001000000000000000200000000000001400000000000000000009999123100000010000000000000BRTKNOACNPR5075
012024070502SCAR3       010SAO CARLOS  ON      NM   R$  000000000233900000000024190000000002320000000000234200000000023200000000002320000000000239000035000000000000007100000000000016630800000000000000009999123100000010000000000000BRSCARACNOR7131
012024070502TRPL3       010TRAN PAULISTON      N1   R$  000000000344900000000034600000000003449000000000345300000000034540000000003392000000000346000009000000000000000900000000000003108200000000000000009999123100000010000000000000BRTRPLACNOR4185
012024070502SEER3       010SER EDUCA   ON      NM   R$  000000000053800000000005610000000000534000000000055200000000005600000000000553000000000056001980000000000000701500000000000387282900000000000000009999123100000010000000000000BRSEERACNOR5119
012024070502UNIP3       010UNIPAR      ON           R$  000000000514200000000051540000000005046000000000510200000000051450000000005098000000000514900060000000000000006400000000000032656500000000000000009999123100000010000000000000BRUNIPACNOR7206
012024070502AURE3       010AUREN       ON      NM   R$  000000000123900000000012430000000001227000000000123300000000012350000000001234000000000123706284000000000001833200000000002261461400000000000000009999123100000010000000000000BRAUREACNOR9104
012024070502AZUL4       010AZUL        PN      N2   R$  000000000078300000000008330000000000754000000000079300000000008220000000000822000000000082322778000000000027291300000000021649093400000000000000009999123100000010000000000000BRAZULACNPR4102
012024070502RDNI3       010RNI         ON      NM   R$  000000000031200000000003180000000000308000000000031000000000003080000000000308000000000031400031000000000000005500000000000001707100000000000000009999123100000010000000000000BRRDNIACNOR9116
012024070502SOJA3       010BOA SAFRA   ON      NM   R$  000000000154800000000015500000000001482000000000150900000000015120000000001507000000000151204253000000000000865000000000001305711500000000000000009999123100000010000000000000BRSOJAACNOR9105
012024070502SUZB3       010SUZANO S.A. ON      NM   R$  000000000568900000000056890000000005456000000000556000000000054750000000005473000000000547549703000000000017055700000000094841586000000000000000009999123100000010000000000000BRSUZBACNOR0130
012024070502SMTO3       010SAO MARTINHOON      NM   R$  000000000328000000000033200000000003252000000000327600000000032630000000003261000000000327104380000000000000944200000000003094057000000000000000009999123100000010000000000000BRSMTOACNOR3126
012024070502PTBL3       010PORTOBELLO  ON      NM   R$  000000000049700000000005020000000000485000000000049100000000004910000000000490000000000049101072000000000000534400000000000262853700000000000000009999123100000010000000000000BRPTBLACNOR8132
012024070502VIVA3       010VIVARA S.A. ON      NM   R$  000000000223600000000022880000000002185000000000224500000000022780000000002273000000000228113634000000000003649000000000008192554400000000000000009999123100000010000000000000BRVIVAACNOR0107
012024070502SHOW3       010TIME FOR FUNON      NM   R$  000000000015900000000001680000000000152000000000016300000000001650000000000163000000000016500558000000000000168000000000000027487400000000000000009999123100000010000000000000BRSHOWACNOR7105
012024070502VALE3       010VALE        ON      NM   R$  000000000633000000000063850000000006319000000000635500000000063600000000006360000000000636132084000000000013138400000000083504751000000000000000009999123100000010000000000000BRVALEACNOR0210
012024070502WIZC3       010WIZ CO      ON      NM   R$  000000000059700000000006000000000000579000000000059000000000006000000000000598000000000060001867000000000000367600000000000216916600000000000000009999123100000010000000000000BRWIZCACNOR5102
012024070502INEP4       010INEPAR      PN           R$  000000000018100000000002040000000000181000000000018900000000001880000000000188000000000019100130000000000000208500000000000039410500000000000000009999123100000010000000000000BRINEPACNPR8143
012024070502ONCO3       010ONCOCLINICASON      NM   R$  000000000070500000000007350000000000693000000000071100000000007060000000000706000000000070903931000000000001910000000000001359124700000000000000009999123100000010000000000000BRONCOACNOR6101
012024070502BRAP3       010BRADESPAR   ON      N1   R$  000000000185300000000018530000000001830000000000183700000000018480000000001838000000000184800314000000000000044500000000000081790200000000000000009999123100000010000000000000BRBRAPACNOR5148
012024070502CSNA3       010SID NACIONALON           R$  000000000132100000000013290000000001297000000000130800000000013020000000001302000000000131012673000000000005442000000000007120426900000000000000009999123100000010000000000000BRCSNAACNOR6261
012024070502ENAT3       010ENAUTA PART ON      NM   R$  000000000220600000000023190000000002206000000000226800000000023100000000002310000000000231606556000000000001603200000000003636728600000000000000009999123100000010000000000000BRENATACNOR0104
012024070502USIM3       010USIMINAS    ON      N1   R$  000000000076900000000007840000000000759000000000076700000000007710000000000771000000000077201313000000000000316200000000000242774300000000000000009999123100000010000000000000BRUSIMACNOR3167
012024070502VTRU3       010VITRUEDUCA  ON      NM   R$  000000000139900000000014120000000001363000000000139100000000014120000000001395000000000141200502000000000000081300000000000113117800000000000000009999123100000010000000000000BRVTRUACNOR3100
012024070502PFRM3       010PROFARMA    ON      NM   R$  000000000054200000000005520000000000537000000000054200000000005390000000000537000000000053900401000000000000102700000000000055715900000000000000009999123100000010000000000000BRPFRMACNOR1116
012024070502PLPL3       010PLANOEPLANO ON      NM   R$  000000000108000000000010860000000001030000000000104200000000010360000000001036000000000104002730000000000001053900000000001098174300000000000000009999123100000010000000000000BRPLPLACNOR5104
012024070502CBAV3       010CBA         ON      NM   R$  000000000070000000000007160000000000695000000000070800000000007070000000000706000000000070806780000000000003576000000000002534403400000000000000009999123100000010000000000000BRCBAVACNOR5104
012024070502POMO3       010MARCOPOLO   ON      N2   R$  000000000050900000000005090000000000495000000000050200000000005050000000000505000000000050600527000000000000112200000000000056335500000000000000009999123100000010000000000000BRPOMOACNOR0098
012024070502PRIO3       010PETRORIO    ON      NM   R$  000000000463500000000046660000000004588000000000462600000000046550000000004654000000000465621843000000000005461300000000025267538900000000000000009999123100000010000000000000BRPRIOACNOR1106
012024070502DESK3       010DESKTOP     ON      NM   R$  000000000150900000000015450000000001467000000000150600000000015130000000001512000000000151301044000000000000347300000000000523115000000000000000009999123100000010000000000000BRDESKACNOR2104
012024070502DMVF3       010D1000VFARMA ON      NM   R$  000000000073900000000007730000000000735000000000075400000000007630000000000746000000000076300383000000000000104900000000000079165800000000000000009999123100000010000000000000BRDMVFACNOR9100
012024070502SAPR4       010SANEPAR     PN  EJ  N2   R$  000000000055300000000005550000000000547000000000055100000000005530000000000552000000000055402630000000000000855600000000000471513400000000000000009999123100000010000000000000BRSAPRACNPR6159
012024070502YDUQ3       010YDUQS PART  ON      NM   R$  000000000116000000000011710000000001128000000000115200000000011710000000001168000000000117109490000000000003567000000000004110100600000000000000009999123100000010000000000000BRYDUQACNOR3105
012024070502TRAD3       010TC          ON      NM   R$  000000000005600000000000570000000000053000000000005500000000000560000000000055000000000005600167000000000000292100000000000016080500000000000000009999123100000010000000000000BRTRADACNOR3101
012024070502TTEN3       0103TENTOS     ON      NM   R$  000000000104100000000010650000000001033000000000104800000000010650000000001064000000000106503430000000000000526200000000000551789300000000000000009999123100000010000000000000BRTTENACNOR0103
012024070502UCAS3       010UNICASA     ON      NM   R$  000000000023000000000002310000000000220000000000022300000000002210000000000221000000000022400221000000000000070300000000000015705600000000000000009999123100000010000000000000BRUCASACNOR1113
012024070502UNIP6       010UNIPAR      PNB          R$  000000000523700000000052520000000005079000000000516900000000052290000000005229000000000523701215000000000000158500000000000819438900000000000000009999123100000010000000000000BRUNIPACNPB8206
012024070502AZEV3       010AZEVEDO     ON           R$  000000000016000000000001640000000000154000000000015900000000001620000000000161000000000016200560000000000000519300000000000082922100000000000000009999123100000010000000000000BRAZEVACNOR0121
012024070502RCSL3       010RECRUSUL    ON           R$  000000000028000000000002980000000000278000000000028700000000002940000000000294000000000029800921000000000000476500000000000137170300000000000000009999123100000010000000000000BRRCSLACNOR4134
012024070502SNSY3       010SANSUY      ON           R$  000000000126500000000013000000000001260000000000129500000000013000000000001259000000000129500004000000000000001500000000000001942500000000000000009999123100000010000000000000BRSNSYACNOR2113
012024070502SRNA3       010SERENA      ON      NM   R$  000000000090100000000009620000000000901000000000093400000000009320000000000930000000000095008312000000000003069600000000002867252200000000000000009999123100000010000000000000BRSRNAACNOR4100
012024070502RAIL3       010RUMO S.A.   ON      NM   R$  000000000211800000000021520000000002114000000000213300000000021500000000002150000000000215214009000000000004954500000000010568446600000000000000009999123100000010000000000000BRRAILACNOR9105
012024070502PRNR3       010PRINER      ON      NM   R$  000000000112500000000011450000000001093000000000111500000000011410000000001139000000000114300769000000000000185300000000000206755400000000000000009999123100000010000000000000BRPRNRACNOR4109
012024070502PTNT4       010PETTENATI   PN           R$  000000000061200000000006150000000000606000000000061000000000006150000000000615000000000062800011000000000000002900000000000001771100000000000000009999123100000010000000000000BRPTNTACNPR3047
012024070502VIVT3       010TELEF BRASILON  EJ       R$  000000000461500000000047000000000004610000000000463400000000046420000000004624000000000464409343000000000002752600000000012755984100000000000000009999123100000010000000000000BRVIVTACNOR0182
012024070502SIMH3       010SIMPAR      ON      NM   R$  000000000066000000000006980000000000643000000000067700000000006880000000000688000000000069008436000000000006906800000000004679463100000000000000009999123100000010000000000000BRSIMHACNOR0107
012024070502WHRL3       010WHIRLPOOL   ON           R$  000000000044600000000004490000000000445000000000044600000000004490000000000445000000000044900004000000000000000700000000000000312300000000000000009999123100000010000000000000BRWHRLACNOR5128
012024070502IGTI4       010IGUATEMI S.APN      N1   R$  000000000095400000000009540000000000954000000000095400000000009540000000000900000000000108600001000000000000000200000000000000190800000000000000009999123100000010000000000000BRIGTIACNPR5106
012024070502IRBR3       010IRBBRASIL REON      NM   R$  000000000312200000000031330000000003033000000000306400000000030600000000003060000000000306104308000000000001028900000000003152952400000000000000009999123100000010000000000000BRIRBRACNOR4111
012024070502ORVR3       010ORIZON      ON      NM   R$  000000000401500000000040740000000004000000000000404400000000040480000000004048000000000405401636000000000000279000000000001128387100000000000000009999123100000010000000000000BRORVRACNOR0101
012024070502CSED3       010CRUZEIRO EDUON      NM   R$  000000000041400000000004170000000000406000000000041100000000004130000000000411000000000041300697000000000000173400000000000071341300000000000000009999123100000010000000000000BRCSEDACNOR9104
012024070502EMAE4       010EMAE        PN           R$  000000000485000000000048500000000004824000000000484300000000048240000000004677000000000482000006000000000000000600000000000002906300000000000000009999123100000010000000000000BREMAEACNPR1125
012024070502KRSA3       010KORA SAUDE  ON      NM   R$  000000000006200000000000660000000000062000000000006300000000000660000000000065000000000006600128000000000000910500000000000058171800000000000000009999123100000010000000000000BRKRSAACNOR0100
012024070502USIM5       010USIMINAS    PNA     N1   R$  000000000081500000000008210000000000789000000000080000000000007990000000000798000000000079912831000000000008730900000000006991971100000000000000009999123100000010000000000000BRUSIMACNPA6169
012024070502VULC3       010VULCABRAS   ON      NM   R$  000000000153500000000015350000000001482000000000149900000000015030000000001503000000000151502623000000000000579700000000000869138300000000000000009999123100000010000000000000BRVULCACNOR2159
012024070502PGMN3       010PAGUE MENOS ON      NM   R$  000000000027200000000002790000000000269000000000027400000000002730000000000273000000000027501147000000000000833900000000000228798200000000000000009999123100000010000000000000BRPGMNACNOR8103
012024070502CAMB3       010CAMBUCI     ON           R$  000000000106000000000010680000000001052000000000105800000000010530000000001053000000000106000139000000000000033300000000000035252400000000000000009999123100000010000000000000BRCAMBACNOR4130
012024070502CBEE3       010AMPLA ENERG ON           R$  000000000098000000000009800000000000980000000000098000000000009800000000000900000000000107000001000000000000000100000000000000098000000000000000009999123100000010000000000000BRCBEEACNOR3159
012024070502POMO4       010MARCOPOLO   PN      N2   R$  000000000065800000000006630000000000643000000000065200000000006520000000000652000000000065915984000000000005371300000000003503522500000000000000009999123100000010000000000000BRPOMOACNPR7098
012024070502DASA3       010DASA        ON      NM   R$  000000000029900000000003200000000000289000000000030200000000003180000000000317000000000031903198000000000001607200000000000485586700000000000000009999123100000010000000000000BRDASAACNOR1122
012024070502DEXP3       010DEXXOS PAR  ON      N1   R$  000000000105000000000010570000000001040000000000104700000000010420000000001042000000000104900189000000000000027600000000000028898700000000000000009999123100000010000000000000BRDEXPACNOR1105
012024070502SANB4       010SANTANDER BRPN           R$  000000000145500000000014600000000001431000000000143700000000014400000000001437000000000144000916000000000000168700000000000242477500000000000000009999123100000010000000000000BRSANBACNPR5171
012024070502SBFG3       010GRUPO SBF   ON      NM   R$  000000000126000000000013200000000001239000000000127500000000013200000000001310000000000132107621000000000002749800000000003506652000000000000000009999123100000010000000000000BRSBFGACNOR1103
012024070502SBSP3       010SABESP      ON      NM   R$  000000000818700000000082320000000008110000000000818300000000082080000000008205000000000821221823000000000006118900000000050071510300000000000000009999123100000010000000000000BRSBSPACNOR5161
012024070502TRIS3       010TRISUL      ON      NM   R$  000000000050700000000005200000000000503000000000051300000000005150000000000515000000000051901236000000000000413500000000000212143100000000000000009999123100000010000000000000BRTRISACNOR4118
012024070502TUPY3       010TUPY        ON      NM   R$  000000000250000000000025150000000002452000000000248000000000024920000000002485000000000249802470000000000000445800000000001105760400000000000000009999123100000010000000000000BRTUPYACNOR1184
012024070502UGPA3       010ULTRAPAR    ON      NM   R$  000000000220000000000022220000000002173000000000219200000000022100000000002210000000000221113595000000000002706700000000005935174700000000000000009999123100000010000000000000BRUGPAACNOR8155
012024070502ATOM3       010ATOMPAR     ON           R$  000000000019900000000002140000000000198000000000020300000000002020000000000202000000000020500054000000000000023000000000000004685800000000000000009999123100000010000000000000BRATOMACNOR1106
012024070502AZEV4       010AZEVEDO     PN           R$  000000000015500000000001600000000000152000000000015600000000001580000000000157000000000015801586000000000005049000000000000791841200000000000000009999123100000010000000000000BRAZEVACNPR7121
012024070502RCSL4       010RECRUSUL    PN           R$  000000000011200000000001130000000000106000000000010800000000001090000000000109000000000011000675000000000000614400000000000066846300000000000000009999123100000010000000000000BRRCSLACNPR1134
012024070502SNSY5       010SANSUY      PNA          R$  000000000061000000000006270000000000610000000000061800000000006210000000000597000000000061900013000000000000004200000000000002598900000000000000009999123100000010000000000000BRSNSYACNPA5111
012024070502STBP3       010SANTOS BRP  ON      NM   R$  000000000140600000000014550000000001398000000000142600000000014430000000001442000000000145009893000000000005594300000000007978541700000000000000009999123100000010000000000000BRSTBPACNOR3130
012024070502SMFT3       010SMART FIT   ON      NM   R$  000000000228500000000023360000000002248000000000230600000000023050000000002304000000000230608481000000000001623400000000003743889500000000000000009999123100000010000000000000BRSMFTACNOR1112
012024070502PSSA3       010PORTO SEGUROON  EJ  NM   R$  000000000302300000000030330000000002973000000000299200000000029900000000002990000000000299806677000000000001208800000000003617735200000000000000009999123100000010000000000000BRPSSAACNOR7155
012024070502VITT3       010VITTIA      ON      NM   R$  000000000059700000000006040000000000587000000000059600000000005970000000000597000000000060101787000000000000329100000000000196436200000000000000009999123100000010000000000000BRVITTACNOR4107
012024070502QUAL3       010QUALICORP   ON      NM   R$  000000000017300000000001800000000000169000000000017500000000001770000000000176000000000017703174000000000004398400000000000772011200000000000000009999123100000010000000000000BRQUALACNOR6120
012024070502SLCE3       010SLC AGRICOLAON      NM   R$  000000000189900000000019080000000001865000000000187800000000018800000000001880000000000188106737000000000001959400000000003680002400000000000000009999123100000010000000000000BRSLCEACNOR2125
012024070502WHRL4       010WHIRLPOOL   PN           R$  000000000045500000000004580000000000452000000000045400000000004580000000000452000000000045800009000000000000001300000000000000590700000000000000009999123100000010000000000000BRWHRLACNPR2128
012024070502INEP3       010INEPAR      ON           R$  000000000019600000000002080000000000188000000000019900000000001990000000000197000000000019900361000000000000163600000000000032590500000000000000009999123100000010000000000000BRINEPACNOR1143
012024070502ODPV3       010ODONTOPREV  ON      NM   R$  000000000119400000000012060000000001172000000000119000000000012010000000001195000000000120303028000000000000729200000000000868277900000000000000009999123100000010000000000000BRODPVACNOR4202
012024070502BPAN4       010BANCO PAN   PN      N1   R$  000000000081600000000008310000000000803000000000081700000000008310000000000826000000000083103763000000000001265400000000001034653900000000000000009999123100000010000000000000BRBPANACNPR1115
012024070502CSMG3       010COPASA      ON  EDJ NM   R$  000000000204100000000020790000000002041000000000206900000000020690000000002067000000000207103502000000000000774000000000001601669400000000000000009999123100000010000000000000BRCSMGACNOR5174
012024070502EMBR3       010EMBRAER     ON      NM   R$  000000000375800000000037750000000003580000000000364800000000035820000000003582000000000358616776000000000004044200000000014755998200000000000000009999123100000010000000000000BREMBRACNOR4191
012024070502LAND3       010TERRASANTAPAON      NM   R$  000000000155800000000015580000000001463000000000147700000000014630000000001461000000000147600279000000000000073500000000000108578400000000000000009999123100000010000000000000BRLANDACNOR9103
012024070502LAVV3       010LAVVI       ON      NM   R$  000000000088400000000008880000000000867000000000087600000000008880000000000881000000000088804800000000000001155900000000001013199300000000000000009999123100000010000000000000BRLAVVACNOR4112
012024070502LOGN3       010LOG-IN      ON      NM   R$  000000000389900000000039880000000003854000000000392600000000039880000000003950000000000398900160000000000000023600000000000092674400000000000000009999123100000010000000000000BRLOGNACNOR3105
012024070502REDE3       010REDE ENERGIAON  ED       R$  000000000075000000000007500000000000686000000000069700000000006980000000000698000000000070600098000000000000014500000000000010107200000000000000009999123100000010000000000000BRREDEACNOR7128
012024070502RAPT3       010RANDON PART ON      N1   R$  000000000099800000000010100000000000992000000000100100000000010100000000000995000000000101400063000000000000015900000000000015923900000000000000009999123100000010000000000000BRRAPTACNOR7162
012024070502FRAS3       010FRAS-LE     ON      N1   R$  000000000202500000000020460000000002011000000000202500000000020250000000002025000000000202601570000000000000331900000000000672419800000000000000009999123100000010000000000000BRFRASACNOR0159
012024070502TAEE11      010TAESA       UNT     N2   R$  000000000346100000000034820000000003448000000000346200000000034730000000003473000000000347604925000000000001712900000000005930641900000000000000009999123100000010000000000000BRTAEECDAM10147
012024070502TASA4       010TAURUS ARMASPN      N2   R$  000000000122800000000012420000000001219000000000123300000000012420000000001240000000000124201250000000000000226400000000000279328600000000000000009999123100000010000000000000BRTASAACNPR4104
012024070502TELB4       010TELEBRAS    PN           R$  000000000087200000000008760000000000869000000000087000000000008710000000000871000000000087300015000000000000003900000000000003396600000000000000009999123100000010000000000000BRTELBACNPR9140
012024070502TIMS3       010TIM         ON      NM   R$  000000000159700000000015970000000001572000000000157900000000015720000000001572000000000157511372000000000004951700000000007821136000000000000000009999123100000010000000000000BRTIMSACNOR5117
012024070502CPLE3       010COPEL       ON      N2   R$  000000000086100000000008740000000000855000000000086400000000008650000000000864000000000086607508000000000012383500000000010706784800000000000000009999123100000010000000000000BRCPLEACNOR8149
012024070502DOTZ3       010DOTZ SA     ON      NM   R$  000000000063700000000006550000000000631000000000064000000000006550000000000632000000000065600022000000000000005000000000000003203000000000000000009999123100000010000000000000BRDOTZACNOR7101
012024070502ECOR3       010ECORODOVIAS ON      NM   R$  000000000074500000000007480000000000710000000000072100000000007250000000000725000000000072607737000000000004718400000000003403472100000000000000009999123100000010000000000000BRECORACNOR8120
012024070502GGBR3       010GERDAU      ON      N1   R$  000000000163600000000016400000000001596000000000161400000000016160000000001615000000000161700348000000000000050300000000000081225900000000000000009999123100000010000000000000BRGGBRACNOR1192
012024070502CRFB3       010CARREFOUR BRON      NM   R$  000000000101200000000010240000000000972000000000100200000000010140000000001014000000000101519024000000000009540900000000009567479600000000000000009999123100000010000000000000BRCRFBACNOR2116
012024070502VBBR3       010VIBRA       ON  EJ  NM   R$  000000000220100000000022300000000002161000000000219700000000022110000000002208000000000221228944000000000008564300000000018817126600000000000000009999123100000010000000000000BRVBBRACNOR1108
012024070502NINJ3       010GETNINJAS   ON      NM   R$  000000000045100000000004660000000000450000000000045800000000004580000000000437000000000046200085000000000000014100000000000006461700000000000000009999123100000010000000000000BRNINJACNOR5101
012024070502SYNE3       010SYN PROP TECON      NM   R$  000000000094300000000009940000000000943000000000097500000000009890000000000985000000000099001423000000000000452600000000000441303200000000000000009999123100000010000000000000BRSYNEACNOR2102
012024070502BPAC5       010BTGP BANCO  PNA EJ  N2   R$  000000000082600000000008480000000000821000000000083100000000008480000000000828000000000085000034000000000000006300000000000005237400000000000000009999123100000010000000000000BRBPACACNPA0134
012024070502MRFG3       010MARFRIG     ON      NM   R$  000000000120600000000012490000000001205000000000123400000000012330000000001233000000000123415936000000000005804000000000007165449900000000000000009999123100000010000000000000BRMRFGACNOR0116
012024070502COGN3       010COGNA ON    ON      NM   R$  000000000018300000000001870000000000180000000000018300000000001870000000000186000000000018716144000000000030106100000000005527927500000000000000009999123100000010000000000000BRCOGNACNOR2104
012024070502GOAU4       010GERDAU MET  PN      N1   R$  000000000106800000000010690000000001047000000000105500000000010590000000001057000000000105910672000000000004903400000000005174142700000000000000009999123100000010000000000000BRGOAUACNPR8268
012024070502JBSS3       010JBS         ON      NM   R$  000000000316400000000031880000000003106000000000313800000000031200000000003118000000000312111652000000000003344600000000010496198700000000000000009999123100000010000000000000BRJBSSACNOR8121
012024070502CEAB3       010CEA MODAS   ON      NM   R$  000000000100200000000010290000000000985000000000100000000000009990000000000999000000000100305505000000000001839600000000001841249500000000000000009999123100000010000000000000BRCEABACNOR1102
012024070502CEDO3       010CEDRO       ON      N1   R$  000000000265000000000027300000000002650000000000266700000000027300000000000002000000000281000003000000000000001500000000000004000500000000000000009999123100000010000000000000BRCEDOACNOR8096
012024070502CGRA3       010GRAZZIOTIN  ON  EJ       R$  000000000251100000000025200000000002510000000000251300000000025100000000002509000000000253500005000000000000000500000000000001256500000000000000009999123100000010000000000000BRCGRAACNOR2083
012024070502CLSC4       010CELESC      PN  EJ  N2   R$  000000000769800000000076980000000007549000000000760700000000076240000000007620000000000769900012000000000000001200000000000009129300000000000000009999123100000010000000000000BRCLSCACNPR3131
012024070502BALM3       010BAUMER      ON           R$  000000000121900000000012190000000001219000000000121900000000012190000000001050000000000124900003000000000000000300000000000000365700000000000000009999123100000010000000000000BRBALMACNOR5055
012024070502BLAU3       010BLAU        ON  EJ  NM   R$  000000000116300000000011970000000001156000000000118000000000011800000000001176000000000118201442000000000000226300000000000267249900000000000000009999123100000010000000000000BRBLAUACNOR8114
012024070502BMIN4       010MERC INVEST PN           R$  000000000156100000000015610000000001561000000000156100000000015610000000001530000000000161100001000000000000000100000000000000156100000000000000009999123100000010000000000000BRBMINACNPR1176
012024070502BSLI3       010BRB BANCO   ON           R$  000000000099900000000010000000000000999000000000099900000000009990000000000955000000000100000003000000000000000300000000000000299800000000000000009999123100000010000000000000BRBSLIACNOR5194
012024070502ITSA3       010ITAUSA      ON      N1   R$  000000000100100000000010060000000000990000000000099500000000009940000000000993000000000099700304000000000000080500000000000080116500000000000000009999123100000010000000000000BRITSAACNOR0441
012024070502LJQQ3       010QUERO-QUERO ON      NM   R$  000000000041200000000004210000000000395000000000041000000000004150000000000415000000000041710642000000000005127800000000002103735000000000000000009999123100000010000000000000BRLJQQACNOR5104
012024070502LREN3       010LOJAS RENNERON  EJ  NM   R$  000000000131700000000013460000000001298000000000132000000000013350000000001335000000000133726846000000000015728500000000020765693400000000000000009999123100000010000000000000BRLRENACNOR1221
012024070502RAIZ4       010RAIZEN      PN      N2   R$  000000000030100000000003100000000000301000000000030600000000003080000000000308000000000030911955000000000015703400000000004805813200000000000000009999123100000010000000000000BRRAIZACNPR6110
012024070502FIQE3       010UNIFIQUE    ON      NM   R$  000000000034300000000003470000000000340000000000034200000000003400000000000340000000000034100878000000000000745400000000000255113900000000000000009999123100000010000000000000BRFIQEACNOR5107
012024070502PETZ3       010PETZ        ON      NM   R$  000000000038100000000003860000000000371000000000037800000000003750000000000375000000000037608877000000000008507800000000003216985200000000000000009999123100000010000000000000BRPETZACNOR2110
012024070502TAEE4       010TAESA       PN      N2   R$  000000000116000000000011640000000001155000000000115900000000011640000000001162000000000116400639000000000000141500000000000164095900000000000000009999123100000010000000000000BRTAEEACNPR6147
012024070502TECN3       010TECHNOS     ON      NM   R$  000000000054200000000005420000000000521000000000052800000000005210000000000520000000000052100385000000000000106000000000000056043700000000000000009999123100000010000000000000BRTECNACNOR6109
012024070502TFCO4       010TRACK FIELD PN  EJ  N2   R$  000000000112700000000011400000000001100000000000112100000000011400000000001120000000000114000743000000000000136100000000000152653000000000000000009999123100000010000000000000BRTFCOACNPR8114
012024070502ARZZ3       010AREZZO CO   ON      NM   R$  000000000517900000000053300000000005149000000000524100000000052780000000005278000000000529904367000000000000881800000000004622283500000000000000009999123100000010000000000000BRARZZACNOR3146
012024070502CPLE6       010COPEL       PNB     N2   R$  000000000097100000000009830000000000962000000000097100000000009740000000000971000000000097419361000000000015178800000000014741426000000000000000009999123100000010000000000000BRCPLEACNPB9146
012024070502EALT3       010ACO ALTONA  ON           R$  000000000109300000000010930000000001093000000000109300000000010930000000001063000000000110200001000000000000000100000000000000109300000000000000009999123100000010000000000000BREALTACNOR4138
012024070502GEPA4       010GER PARANAP PN           R$  000000000261000000000026100000000002609000000000260900000000026090000000002610000000000265000002000000000000000600000000000001565800000000000000009999123100000010000000000000BRGEPAACNPR9160
012024070502ITUB3       010ITAUUNIBANCOON  EJ  N1   R$  000000000284400000000028520000000002814000000000282600000000028280000000002827000000000283901194000000000000291100000000000822885800000000000000009999123100000010000000000000BRITUBACNOR4338
012024070502CRPG6       010CRISTAL     PNB          R$  000000000296100000000029610000000002950000000000295700000000029500000000002950000000000297000003000000000000000300000000000000887100000000000000009999123100000010000000000000BRCRPGACNPB1119
012024070502HETA4       010HERCULES    PN           R$  000000000053800000000005480000000000538000000000054200000000005480000000000501000000000054800004000000000000000500000000000000271000000000000000009999123100000010000000000000BRHETAACNPR9136
012024070502ROMI3       010ROMI        ON      NM   R$  000000000110200000000011100000000001091000000000109800000000011090000000001102000000000110900894000000000000150200000000000165047700000000000000009999123100000010000000000000BRROMIACNOR8195
012024070502BPAC11      010BTGP BANCO  UNT EJ  N2   R$  000000000323700000000032760000000003194000000000324300000000032570000000003256000000000325918878000000000006120000000000019849401700000000000000009999123100000010000000000000BRBPACUNT006119
012024070502MOAR3       010MONT ARANHA ON           R$  000000003899900000000390010000000038999000000003899900000000390000000000012100000000003900000009000000000000001100000000000042899800000000000000009999123100000010000000000000BRMOARACNOR5234
012024070502AESB3       010AES BRASIL  ON      NM   R$  000000000113800000000011400000000001137000000000113800000000011390000000001139000000000114002135000000000001903600000000002167970900000000000000009999123100000010000000000000BRAESBACNOR7106
012024070502GMAT3       010GRUPO MATEUSON      NM   R$  000000000071400000000007400000000000705000000000072900000000007320000000000731000000000073606683000000000003389300000000002473595100000000000000009999123100000010000000000000BRGMATACNOR7102
012024070502GRND3       010GRENDENE    ON      NM   R$  000000000059000000000006000000000000584000000000059100000000006000000000000595000000000060002381000000000000900600000000000533137900000000000000009999123100000010000000000000BRGRNDACNOR3174
012024070502ABCB4       010ABC BRASIL  PN  EJ  N2   R$  000000000221200000000022560000000002197000000000223600000000022480000000002247000000000225302653000000000000594700000000001330200000000000000000009999123100000010000000000000BRABCBACNPR4146
012024070502CEBR5       010CEB         PNA          R$  000000000181600000000018250000000001816000000000181800000000018160000000001815000000000183100006000000000000000700000000000001273100000000000000009999123100000010000000000000BRCEBRACNPA8124
012024070502CEEB3       010COELBA      ON  EJ       R$  000000000390000000000039000000000003900000000000390000000000039000000000003720000000000397500001000000000000000100000000000000390000000000000000009999123100000010000000000000BRCEEBACNOR3199
012024070502CIEL3       010CIELO       ON      NM   R$  000000000056600000000005680000000000565000000000056600000000005680000000000567000000000056809002000000000006461800000000003662234600000000000000009999123100000010000000000000BRCIELACNOR3157
012024070502CMIG4       010CEMIG       PN      N1   R$  000000000103700000000010460000000001027000000000103600000000010370000000001036000000000103724966000000000010450100000000010828328600000000000000009999123100000010000000000000BRCMIGACNPR3243
012024070502BAZA3       010AMAZONIA    ON           R$  000000000996600000000100000000000009920000000000995700000000099200000000009751000000000991900009000000000000001000000000000009957700000000000000009999123100000010000000000000BRBAZAACNOR0179
012024070502BMEB4       010MERCANTIL   PN      N1   R$  000000000286000000000028600000000002778000000000281200000000028310000000002802000000000283200045000000000000009300000000000026154900000000000000009999123100000010000000000000BRBMEBACNPR5210
012024070502BMOB3       010BEMOBI TECH ON      NM   R$  000000000138700000000014080000000001387000000000139900000000014050000000001396000000000140501604000000000000315400000000000441339800000000000000009999123100000010000000000000BRBMOBACNOR7103
012024070502FESA3       010FERBASA     ON      N1   R$  000000000135700000000013690000000001357000000000136400000000013680000000001361000000000141700003000000000000000300000000000000409400000000000000009999123100000010000000000000BRFESAACNOR8188
012024070502MATD3       010MATER DEI   ON      NM   R$  000000000050600000000005090000000000488000000000050000000000004970000000000496000000000050301309000000000000254800000000000127406400000000000000009999123100000010000000000000BRMATDACNOR4104
012024070502LOGG3       010LOG COM PROPON      NM   R$  000000000243800000000024970000000002438000000000247900000000024740000000002474000000000248501818000000000000221700000000000549783200000000000000009999123100000010000000000000BRLOGGACNOR7107
012024070502RECV3       010PETRORECSA  ON      NM   R$  000000000201300000000020840000000002013000000000205900000000020840000000002080000000000208408138000000000001731300000000003565009000000000000000009999123100000010000000000000BRRECVACNOR3107
012024070502RANI3       010IRANI       ON      NM   R$  000000000088000000000009010000000000875000000000089100000000009000000000000900000000000090102754000000000000740500000000000659795500000000000000009999123100000010000000000000BRRANIACNOR5072
012024070502FLRY3       010FLEURY      ON      NM   R$  000000000150500000000015110000000001498000000000150400000000015070000000001503000000000150707186000000000002341000000000003523133500000000000000009999123100000010000000000000BRFLRYACNOR5138
012024070502RSUL4       010RIOSULENSE  PN           R$  000000000682000000000069500000000006687000000000682600000000069500000000006950000000000695700017000000000000001700000000000011604900000000000000009999123100000010000000000000BRRSULACNPR3114
012024070502TASA3       010TAURUS ARMASON      N2   R$  000000000123100000000012670000000001231000000000124600000000012450000000001247000000000125900053000000000000007300000000000009098900000000000000009999123100000010000000000000BRTASAACNOR7104
012024070502TELB3       010TELEBRAS    ON           R$  000000000129200000000012930000000001292000000000129200000000012930000000001265000000000129300002000000000000000200000000000000258500000000000000009999123100000010000000000000BRTELBACNOR2140
012024070502TGMA3       010TEGMA       ON      NM   R$  000000000255300000000025800000000002531000000000255600000000025640000000002564000000000257400909000000000000122300000000000312712900000000000000009999123100000010000000000000BRTGMAACNOR7144
012024070502CPFE3       010CPFL ENERGIAON      NM   R$  000000000335500000000033680000000003295000000000331500000000033080000000003308000000000331704526000000000000996800000000003305001500000000000000009999123100000010000000000000BRCPFEACNOR0137
012024070502DOHL4       010DOHLER      PN           R$  000000000039900000000003990000000000390000000000039100000000003900000000000389000000000039600004000000000000000500000000000000195900000000000000009999123100000010000000000000BRDOHLACNPR9066
012024070502EALT4       010ACO ALTONA  PN           R$  000000000111700000000011320000000001117000000000112300000000011190000000001119000000000113000022000000000000002300000000000002584800000000000000009999123100000010000000000000BREALTACNPR1138
012024070502GFSA3       010GAFISA      ON      NM   R$  000000000035500000000003600000000000343000000000035000000000003560000000000355000000000035603047000000000003409200000000001193427200000000000000009999123100000010000000000000BRGFSAACNOR3124
012024070502ITUB4       010ITAUUNIBANCOPN  EJ  N1   R$  000000000330000000000033080000000003261000000000328100000000032930000000003289000000000329332250000000000016825500000000055206092300000000000000009999123100000010000000000000BRITUBACNPR1338
012024070502CSAN3       010COSAN       ON      NM   R$  000000000141300000000014310000000001403000000000141300000000014100000000001410000000000141115758000000000007999000000000011304277700000000000000009999123100000010000000000000BRCSANACNOR6126
012024070502NGRD3       010NEOGRID     ON      NM   R$  000000000009500000000000970000000000092000000000009400000000000920000000000092000000000009300340000000000000204000000000000019258100000000000000009999123100000010000000000000BRNGRDACNOR3104
012024070502RRRP3       0103R PETROLEUMON      NM   R$  000000000277100000000028700000000002771000000000283200000000028600000000002859000000000286414095000000000003256500000000009224114400000000000000009999123100000010000000000000BRRRRPACNOR5103
012024070502BPAC3       010BTGP BANCO  ON  EJ  N2   R$  000000000155700000000015700000000001555000000000156400000000015700000000001568000000000157000034000000000000004600000000000007195900000000000000009999123100000010000000000000BRBPACACNOR7134
012024070502MOVI3       010MOVIDA      ON      NM   R$  000000000067000000000006840000000000661000000000067100000000006690000000000669000000000067010858000000000007199700000000004834366500000000000000009999123100000010000000000000BRMOVIACNOR0122
012024070502COCE5       010COELCE      PNA          R$  000000000301700000000030530000000003000000000000301000000000030000000000003000000000000302900052000000000000009200000000000027697000000000000000009999123100000010000000000000BRCOCEACNPA3147
012024070502GOAU3       010GERDAU MET  ON      N1   R$  000000000109000000000010900000000001062000000000107000000000010800000000001064000000000108000125000000000000023600000000000025271000000000000000009999123100000010000000000000BRGOAUACNOR1267
012024070502JALL3       010JALLESMACHADON      NM   R$  000000000075100000000007890000000000751000000000077600000000007890000000000789000000000079003143000000000000817100000000000634503900000000000000009999123100000010000000000000BRJALLACNOR0105
012024070502ABEV3       010AMBEV S/A   ON           R$  000000000114500000000011480000000001123000000000113000000000011320000000001132000000000113442867000000000039021700000000044095383300000000000000009999123100000010000000000000BRABEVACNOR1127
012024070502CEBR6       010CEB         PNB          R$  000000000194900000000019490000000001925000000000193100000000019250000000001925000000000193100021000000000000006600000000000012747900000000000000009999123100000010000000000000BRCEBRACNPB6124
012024070502CGAS5       010COMGAS      PNA          R$  000000001179400000000117940000000011750000000001178300000000117940000000011700000000001179400004000000000000000400000000000004713200000000000000009999123100000010000000000000BRCGASACNPA3160
012024070502CLSA3       010CLEARSALE   ON      NM   R$  000000000078100000000008120000000000776000000000079100000000007830000000000775000000000078305221000000000001374700000000001088736700000000000000009999123100000010000000000000BRCLSAACNOR0100
012024070502BAHI3       010BAHEMA      ON      MA   R$  000000000067200000000006720000000000645000000000065800000000006450000000000620000000000069000004000000000000001200000000000000790200000000000000009999123100000010000000000000BRBAHIACNOR1074
012024070502BBAS3       010BRASIL      ON      NM   R$  000000000268500000000026870000000002653000000000266600000000026730000000002672000000000267336117000000000011971800000000031917880700000000000000009999123100000010000000000000BRBBASACNOR3324
012024070502BMGB4       010BANCO BMG   PN      N1   R$  000000000035000000000003530000000000345000000000034600000000003490000000000348000000000034901312000000000000637800000000000221196100000000000000009999123100000010000000000000BRBMGBACNPR0109
012024070502BOBR4       010BOMBRIL     PN           R$  000000000020600000000002100000000000205000000000020700000000002090000000000205000000000020900039000000000000013000000000000002698200000000000000009999123100000010000000000000BRBOBRACNPR3128
012024070502FESA4       010FERBASA     PN      N1   R$  000000000086000000000008620000000000848000000000085500000000008620000000000862000000000086301766000000000000426400000000000364740500000000000000009999123100000010000000000000BRFESAACNPR5084
012024070502MBLY3       010MOBLY       ON      NM   R$  000000000021400000000002200000000000211000000000021500000000002140000000000214000000000022000548000000000000490500000000000105842300000000000000009999123100000010000000000000BRMBLYACNOR5100
012024070502NEOE3       010NEOENERGIA  ON  EJ  NM   R$  000000000187900000000018790000000001838000000000184900000000018450000000001845000000000185105184000000000001307700000000002418708000000000000000009999123100000010000000000000BRNEOEACNOR3123
012024070502VSTE3       010VESTE       ON      NM   R$  000000000149000000000015380000000001460000000000148900000000014600000000001460000000000149800027000000000000005600000000000008342300000000000000009999123100000010000000000000BRVSTEACNOR5103
012024070502WEGE3       010WEG         ON  EJ  NM   R$  000000000420200000000042430000000004197000000000422200000000042190000000004219000000000422013089000000000003948100000000016671991400000000000000009999123100000010000000000000BRWEGEACNOR0223
012024070502PINE4       010PINE        PN      N2   R$  000000000044800000000004560000000000443000000000044700000000004460000000000445000000000044600602000000000000357600000000000159908700000000000000009999123100000010000000000000BRPINEACNPR8149
012024070502CASH3       010MELIUZ      ON      NM   R$  000000000060200000000006380000000000600000000000061900000000006190000000000614000000000061906202000000000003678800000000002278264400000000000000009999123100000010000000000000BRCASHACNOR8106
012024070502PNVL3       010DIMED       ON  EJ  NM   R$  000000000099000000000010140000000000984000000000099900000000010140000000001007000000000101400991000000000000206300000000000206213000000000000000009999123100000010000000000000BRPNVLACNOR9207
012024070502POSI3       010POSITIVO TECON      NM   R$  000000000086000000000008720000000000842000000000085400000000008570000000000857000000000086202909000000000000928800000000000793896400000000000000009999123100000010000000000000BRPOSIACNOR9116
012024070502SANB3       010SANTANDER BRON           R$  000000000130600000000013110000000001286000000000129200000000012880000000001288000000000129100891000000000000172200000000000222551800000000000000009999123100000010000000000000BRSANBACNOR8171
012024070502DIRR3       010DIRECIONAL  ON  ED  NM   R$  000000000268300000000027280000000002661000000000268000000000026790000000002676000000000268108193000000000002135100000000005723277200000000000000009999123100000010000000000000BRDIRRACNOR0118
012024070502SAPR3       010SANEPAR     ON  EJ  N2   R$  000000000051900000000005190000000000514000000000051700000000005160000000000516000000000051900586000000000000132700000000000068611400000000000000009999123100000010000000000000BRSAPRACNOR9159
012024070502TOTS3       010TOTVS       ON      NM   R$  000000000298000000000030230000000002950000000000297900000000029500000000002950000000000296709849000000000002245000000000006689102400000000000000009999123100000010000000000000BRTOTSACNOR8144
012024070502TPIS3       010TRIUNFO PARTON      NM   R$  000000000038800000000003970000000000385000000000039100000000003850000000000385000000000039100135000000000000044400000000000017390700000000000000009999123100000010000000000000BRTPISACNOR8118
012024070502TRPL4       010TRAN PAULISTPN      N1   R$  000000000269500000000027040000000002673000000000269500000000026980000000002698000000000270207417000000000001363300000000003675111700000000000000009999123100000010000000000000BRTRPLACNPR1185
012024070502SEQL3       010SEQUOIA LOG ON      NM   R$  000000000049800000000005180000000000470000000000049100000000004700000000000470000000000047901605000000000000614900000000000302412300000000000000009999123100000010000000000000BRSEQLACNOR2103
012024070502UNIP5       010UNIPAR      PNA          R$  000000000510000000000051000000000005100000000000510000000000051000000000005011000000000538600001000000000000000100000000000000510000000000000000009999123100000010000000000000BRUNIPACNPA0208
012024070502AVLL3       010ALPHAVILLE  ON      NM   R$  000000000033500000000003350000000000333000000000033400000000003330000000000318000000000033500003000000000000001600000000000000535400000000000000009999123100000010000000000000BRAVLLACNOR5103
012024070502BBSE3       010BBSEGURIDADEON      NM   R$  000000000331200000000033220000000003293000000000330900000000033170000000003316000000000331816520000000000006548400000000021669290800000000000000009999123100000010000000000000BRBBSEACNOR5124
012024070502RDOR3       010REDE D OR   ON  EJ  NM   R$  000000000279200000000028080000000002726000000000275700000000027700000000002770000000000277613340000000000003330900000000009185116600000000000000009999123100000010000000000000BRRDORACNOR8113
012024070502SOMA3       010GRUPO SOMA  ON      NM   R$  000000000061800000000006310000000000611000000000062200000000006300000000000627000000000063007280000000000002850100000000001775250200000000000000009999123100000010000000000000BRSOMAACNOR3102
012024070502RADL3       010RAIADROGASILON  EJ  NM   R$  000000000252500000000025600000000002520000000000253300000000025290000000002528000000000253314704000000000004429700000000011222134700000000000000009999123100000010000000000000BRRADLACNOR0157
012024070502ZAMP3       010ZAMP S.A.   ON           R$  000000000038700000000003930000000000381000000000038700000000003910000000000389000000000039201025000000000000267100000000000103399700000000000000009999123100000010000000000000BRZAMPACNOR5100
012024070502PTNT3       010PETTENATI   ON           R$  000000000096300000000009810000000000958000000000096600000000009580000000000934000000000097800003000000000000000400000000000000386500000000000000009999123100000010000000000000BRPTNTACNOR6042
012024070502VIVR3       010VIVER       ON      NM   R$  000000000023600000000002400000000000234000000000023700000000002380000000000235000000000023800064000000000000020100000000000004780800000000000000009999123100000010000000000000BRVIVRACNOR4123
012024070502SHUL4       010SCHULZ      PN  EJ       R$  000000000061600000000006270000000000614000000000061700000000006200000000000617000000000062001164000000000000250900000000000155017300000000000000009999123100000010000000000000BRSHULACNPR4156
012024070502WEST3       010WESTWING    ON      NM   R$  000000000009300000000000950000000000093000000000009400000000000940000000000094000000000009500045000000000000012400000000000001166100000000000000009999123100000010000000000000BRWESTACNOR3100
012024070502WLMM4       010WLM IND COM PN           R$  000000000313900000000031390000000003105000000000311900000000031050000000003105000000000316000006000000000000000600000000000001871400000000000000009999123100000010000000000000BRWLMMACNPR3118
012024070502INTB3       010INTELBRAS   ON      NM   R$  000000000229300000000023130000000002268000000000228100000000022710000000002271000000000228603415000000000000619500000000001413680000000000000000009999123100000010000000000000BRINTBACNOR9111
012024070502OPCT3       010OCEANPACT   ON      NM   R$  000000000065700000000006690000000000655000000000066300000000006600000000000660000000000066600692000000000000169700000000000112548600000000000000009999123100000010000000000000BROPCTACNOR0100
012024070502BRAP4       010BRADESPAR   PN      N1   R$  000000000191700000000019200000000001898000000000191000000000019120000000001912000000000191606600000000000002583700000000004936393600000000000000009999123100000010000000000000BRBRAPACNPR2148
012024070502ELMD3       010ELETROMIDIA ON      NM   R$  000000000178600000000018780000000001780000000000185600000000018750000000001858000000000187500608000000000000088900000000000165001400000000000000009999123100000010000000000000BRELMDACNOR3101
012024070502IFCM3       010INFRACOMM   ON      NM   R$  000000000003800000000000380000000000035000000000003600000000000370000000000036000000000003702473000000000010452000000000000377227200000000000000009999123100000010000000000000BRIFCMACNOR8101
012024070502MDIA3       010M.DIASBRANCOON      NM   R$  000000000281200000000028380000000002741000000000277600000000027570000000002755000000000275704823000000000001099300000000003052326400000000000000009999123100000010000000000000BRMDIAACNOR7135
012024070502MGEL4       010MANGELS INDLPN           R$  000000000125200000000013130000000001250000000000126600000000013130000000001261000000000131300010000000000000002800000000000003546100000000000000009999123100000010000000000000BRMGELACNPR3147
012024070502PEAB3       010PAR AL BAHIAON           R$  000000000430000000000046000000000004300000000000442700000000046000000000004311000000000460000003000000000000000700000000000003098900000000000000009999123100000010000000000000BRPEABACNOR3133
012024070502AFLT3       010AFLUENTE T  ON  EJ       R$  000000000073900000000007540000000000738000000000074600000000007380000000000728000000000074800009000000000000001300000000000000969900000000000000009999123100000010000000000000BRAFLTACNOR1122
012024070502ALOS3       010ALLOS       ON      NM   R$  000000000219100000000022250000000002168000000000220700000000022200000000002217000000000222015161000000000004285900000000009459247100000000000000009999123100000010000000000000BRALOSACNOR5101
012024070502B3SA3       010B3          ON      NM   R$  000000000106400000000010640000000001040000000000104900000000010520000000001052000000000105330441000000000024797300000000026031496200000000000000009999123100000010000000000000BRB3SAACNOR6133
012024070502BGIP4       010BANESE      PN           R$  000000000227600000000022800000000002276000000000228000000000022800000000002221000000000229000006000000000000000600000000000001368500000000000000009999123100000010000000000000BRBGIPACNPR8208
012024070502CSRN3       010COSERN      ON  EJ       R$  000000000219900000000022000000000002199000000000219900000000022000000000002160000000000228000002000000000000000200000000000000439900000000000000009999123100000010000000000000BRCSRNACNOR0193
012024070502AMAR3       010LOJAS MARISAON      NM   R$  000000000014200000000001470000000000142000000000014500000000001460000000000144000000000014600990000000000000734500000000000106764900000000000000009999123100000010000000000000BRAMARACNOR4115
012024070502ARML3       010ARMAC       ON  EDJ NM   R$  000000000105300000000010800000000001042000000000105100000000010490000000001049000000000105002472000000000000755200000000000793730500000000000000009999123100000010000000000000BRARMLACNOR1112
012024070502ENEV3       010ENEVA       ON      NM   R$  000000000130100000000013150000000001292000000000130500000000013140000000001306000000000131415357000000000003836000000000005007895800000000000000009999123100000010000000000000BRENEVACNOR8106
012024070502ENJU3       010ENJOEI      ON      NM   R$  000000000021200000000002140000000000202000000000020600000000002030000000000203000000000020501090000000000000895600000000000184774000000000000000009999123100000010000000000000BRENJUACNOR9100
012024070502EQPA3       010EQTL PARA   ON           R$  000000000071000000000007240000000000705000000000071200000000007170000000000708000000000071700007000000000000001700000000000001211900000000000000009999123100000010000000000000BREQPAACNOR1111
012024070502IGTI3       010IGUATEMI S.AON      N1   R$  000000000027000000000002760000000000268000000000027200000000002730000000000268000000000027300104000000000000025300000000000006886500000000000000009999123100000010000000000000BRIGTIACNOR8106
012024070502MULT3       010MULTIPLAN   ON  EJ  N2   R$  000000000236200000000024340000000002362000000000240700000000024170000000002415000000000241723076000000000004881800000000011751611200000000000000009999123100000010000000000000BRMULTACNOR5139
012024070502ALUP11      010ALUPAR      UNT     N2   R$  000000000303800000000030720000000003011000000000303900000000030720000000003046000000000307202993000000000000629400000000001912964700000000000000009999123100000010000000000000BRALUPCDAM15119
012024070502MLAS3       010MULTILASER  ON      NM   R$  000000000020700000000002180000000000204000000000021100000000002180000000000216000000000021802817000000000002481400000000000524226600000000000000009999123100000010000000000000BRMLASACNOR9101
012024070502KLBN3       010KLABIN S/A  ON      N2   R$  000000000043000000000004300000000000420000000000042300000000004200000000000420000000000042200878000000000000359800000000000152330600000000000000009999123100000010000000000000BRKLBNACNOR2170
012024070502HAPV3       010HAPVIDA     ON      NM   R$  000000000039500000000003990000000000390000000000039400000000003950000000000395000000000039631294000000000037566100000000014806391400000000000000009999123100000010000000000000BRHAPVACNOR4114
012024070502BRIT3       010BRISANET    ON      NM   R$  000000000040800000000004160000000000403000000000040800000000004110000000000407000000000041102431000000000000537300000000000219352700000000000000009999123100000010000000000000BRBRITACNOR0103
012024070502BRSR6       010BANRISUL    PNB     N1   R$  000000000117000000000011700000000001146000000000115200000000011530000000001153000000000115403478000000000000768800000000000885991200000000000000009999123100000010000000000000BRBRSRACNPB4191
012024070502ELET6       010ELETROBRAS  PNB     N1   R$  000000000422400000000042850000000004211000000000424200000000042400000000004225000000000424007282000000000001473400000000006250806500000000000000009999123100000010000000000000BRELETACNPB7077
012024070502ESPA3       010ESPACOLASER ON      NM   R$  000000000010300000000001050000000000102000000000010300000000001050000000000104000000000010500267000000000000318900000000000033143100000000000000009999123100000010000000000000BRESPAACNOR7103
012024070502EZTC3       010EZTEC       ON      NM   R$  000000000137000000000013750000000001333000000000135100000000013640000000001362000000000136403470000000000001366400000000001846718700000000000000009999123100000010000000000000BREZTCACNOR0125
012024070507TXRX4       010TEX RENAUX  PN           R$  000000000022700000000002350000000000226000000000022600000000002350000000000226000000000023500004000000000000001200000000000000272300000000000000009999123100000010000000000000BRTXRXACNPR0142
012024070508SGPS3       010SPRINGS     ON  EG  NM   R$  000000000014900000000001490000000000149000000000014900000000001490000000000149000000000015000014000000000000006800000000000001013200000000000000009999123100000010000000000000BRSGPSACNOR4105
012024070508OIBR4       010OI          PN      N1   R$  000000000153100000000015610000000001531000000000154600000000015380000000001537000000000156000104000000000000015100000000000023354700000000000000009999123100000010000000000000BROIBRACNPR8110
012024070508RNEW11      010RENOVA      UNT     N2   R$  000000000027400000000002800000000000274000000000027700000000002800000000000276000000000027900011000000000000002600000000000000722700000000000000009999123100000010000000000000BRRNEWCDAM15110
012024070508AMER3       010AMERICANAS  ON      NM   R$  000000000004000000000000490000000000040000000000004400000000000450000000000045000000000004603147000000000045596100000000002030793400000000000000009999123100000010000000000000BRAMERACNOR6102
012024070508CTSA4       010SANTANENSE  PN           R$  000000000008300000000000840000000000081000000000008300000000000820000000000081000000000008200022000000000000005400000000000000449400000000000000009999123100000010000000000000BRCTSAACNPR0062
012024070510RENT1       010LOCALIZA    DIR ORD NM   R$  000000000109200000000011790000000001020000000000108300000000011780000000001149000000000118000575000000000000304900000000000330437000000000000000009999123100000010000000000000BRRENTD06OR8195
012024070502MELK3       010MELNICK     ON      NM   R$  000000000037700000000003850000000000375000000000038000000000003820000000000381000000000038200314000000000000159400000000000060720000000000000000009999123100000010000000000000BRMELKACNOR8111
012024070502PDTC3       010PADTEC      ON      NM   R$  000000000020100000000002040000000000199000000000020000000000002010000000000198000000000020100043000000000000029600000000000005929800000000000000009999123100000010000000000000BRPDTCACNOR3101
012024070502PETR4       010PETROBRAS   PN      N2   R$  000000000374500000000037650000000003711000000000374200000000037520000000003750000000000375257303000000000032758800000000122595584100000000000000009999123100000010000000000000BRPETRACNPR6213
012024070502ALLD3       010ALLIED      ON      NM   R$  000000000077400000000007800000000000764000000000077000000000007710000000000768000000000077300362000000000000095300000000000073439500000000000000009999123100000010000000000000BRALLDACNOR3106
012024070502CMIN3       010CSNMINERACAOON      N2   R$  000000000053900000000005470000000000536000000000054300000000005430000000000543000000000054408432000000000006465500000000003514233400000000000000009999123100000010000000000000BRCMINACNOR2111
012024070502HYPE3       010HYPERA      ON      NM   R$  000000000290900000000029500000000002870000000000290600000000028950000000002895000000000291109825000000000001860500000000005407638700000000000000009999123100000010000000000000BRHYPEACNOR0142
012024070502BRFS3       010BRF SA      ON      NM   R$  000000000229500000000023290000000002280000000000229800000000022830000000002283000000000228511810000000000004001900000000009198400600000000000000009999123100000010000000000000BRBRFSACNOR8122
012024070502ALUP4       010ALUPAR      PN      N2   R$  000000000101000000000010150000000000980000000000099500000000010140000000000997000000000101500115000000000000020600000000000020507500000000000000009999123100000010000000000000BRALUPACNPR5119
012024070502APER3       010ALPER S.A.  ON           R$  000000000457800000000046000000000004523000000000457500000000046000000000004533000000000459900010000000000000001200000000000005490900000000000000009999123100000010000000000000BRAPERACNOR9106
012024070502CVCB3       010CVC BRASIL  ON      NM   R$  000000000018800000000002060000000000185000000000019400000000002060000000000205000000000020611093000000000033459800000000006499803300000000000000009999123100000010000000000000BRCVCBACNOR1116
012024070502ENGI4       010ENERGISA    PN      N2   R$  000000000079500000000007980000000000786000000000079200000000007860000000000786000000000079600017000000000000002800000000000002218600000000000000009999123100000010000000000000BRENGIACNPR7141
012024070502EQMA3B      010EQTLMARANHAOON      MB   R$  000000000260000000000026000000000002600000000000260000000000026000000000002575000000000260000003000000000000001200000000000003120000000000000000009999123100000010000000000000BREQMAACNOR8108
012024070502IGTI11      010IGUATEMI S.AUNT     N1   R$  000000000217100000000022050000000002146000000000217900000000021870000000002186000000000220510382000000000003437600000000007492526400000000000000009999123100000010000000000000BRIGTICDAM16106
012024070502MTSA4       010METISA      PN           R$  000000000445000000000044690000000004379000000000442200000000044620000000004320000000000446200056000000000000006200000000000027419800000000000000009999123100000010000000000000BRMTSAACNPR9072
012024070502ALPK3       010ESTAPAR     ON      NM   R$  000000000033300000000003460000000000331000000000033900000000003390000000000338000000000034200577000000000000143700000000000048769500000000000000009999123100000010000000000000BRALPKACNOR9101
012024070502MILS3       010MILLS       ON  EJ  NM   R$  000000000112300000000011300000000001090000000000111200000000011300000000001122000000000113004262000000000001544900000000001718856500000000000000009999123100000010000000000000BRMILSACNOR2127
012024070502KLBN11      010KLABIN S/A  UNT     N2   R$  000000000214700000000021470000000002090000000000211400000000020900000000002090000000000209414265000000000006267900000000013255097900000000000000009999123100000010000000000000BRKLBNCDAM18142
012024070502HAGA4       010HAGA S/A    PN           R$  000000000011600000000001160000000000115000000000011500000000001150000000000115000000000011600022000000000000018000000000000002076800000000000000009999123100000010000000000000BRHAGAACNPR4103
012024070502HBSA3       010HIDROVIAS   ON      NM   R$  000000000039000000000004000000000000385000000000039300000000004000000000000399000000000040004811000000000002438100000000000958492500000000000000009999123100000010000000000000BRHBSAACNOR0100
012024070502BRSR3       010BANRISUL    ON      N1   R$  000000000123900000000012550000000001214000000000122800000000012200000000001219000000000122800038000000000000005600000000000006881500000000000000009999123100000010000000000000BRBRSRACNOR3188
012024070502ELET3       010ELETROBRAS  ON      N1   R$  000000000381900000000038920000000003794000000000383600000000037940000000003794000000000379831978000000000009690600000000037181113200000000000000009999123100000010000000000000BRELETACNOR6160
012024070502CYRE3       010CYRELA REALTON      NM   R$  000000000198200000000020100000000001945000000000199100000000019990000000001999000000000200016074000000000011831800000000023565993000000000000000009999123100000010000000000000BRCYREACNOR7140
012024070502EVEN3       010EVEN        ON      NM   R$  000000000067400000000006810000000000658000000000067000000000006730000000000673000000000067802791000000000000580900000000000389550900000000000000009999123100000010000000000000BREVENACNOR8119
012024070502LWSA3       010LWSA        ON      NM   R$  000000000041500000000004470000000000411000000000043400000000004470000000000446000000000044710621000000000008159700000000003544511600000000000000009999123100000010000000000000BRLWSAACNOR8103
012024070508PMAM3       010PARANAPANEMAON      NM   R$  000000000023600000000002500000000000236000000000024100000000002420000000000240000000000024200113000000000000043700000000000010536700000000000000009999123100000010000000000000BRPMAMACNOR3039
012024070508OIBR3       010OI          ON      N1   R$  000000000063900000000006500000000000616000000000062900000000006240000000000620000000000062401660000000000000820400000000000516186400000000000000009999123100000010000000000000BROIBRACNOR1111
012024070508HOOT4       010HOTEIS OTHONPN           R$  000000000027400000000002740000000000256000000000026000000000002560000000000255000000000027500002000000000000000400000000000000104200000000000000009999123100000010000000000000BRHOOTACNPR9015
012024070508RPMG3       010PET MANGUINHON           R$  000000000027700000000002870000000000271000000000027700000000002730000000000270000000000027400290000000000000042400000000000011763200000000000000009999123100000010000000000000BRRPMGACNOR9194
012024070508CTSA3       010SANTANENSE  ON           R$  000000000022600000000002260000000000223000000000022300000000002230000000000222000000000022700004000000000000000700000000000000156500000000000000009999123100000010000000000000BRCTSAACNOR3062
012024070510VIVR1       010VIVER       DIR ORD NM   R$  000000000000100000000000010000000000001000000000000100000000000010000000000000000000000000100006000000000000007100000000000000007100000000000000009999123100000010000000000000BRVIVRD18OR3122
012024070510EQTL9       010EQUATORIAL  ON  REC NM   R$  000000000333100000000033310000000003331000000000333100000000033310000000003330000000000339900002000000000000000600000000000001998600000000000000009999123100000010000000000000BREQTLR03OR1129
012024070502MEAL3       010IMC S/A     ON      NM   R$  000000000013300000000001440000000000133000000000013800000000001420000000000142000000000014300468000000000000741200000000000102364400000000000000009999123100000010000000000000BRMEALACNOR9105
012024070502PDGR3       010PDG REALT   ON      NM   R$  000000000001800000000000190000000000018000000000001800000000000180000000000018000000000001900186000000000000561900000000000010495100000000000000009999123100000010000000000000BRPDGRACNOR8118
012024070502PETR3       010PETROBRAS   ON      N2   R$  000000000397900000000040440000000003966000000000401500000000040280000000004023000000000402850050000000000021835400000000087675388300000000000000009999123100000010000000000000BRPETRACNOR9205
012024070502AGXY3       010AGROGALAXY  ON      NM   R$  000000000016100000000001690000000000138000000000015100000000001460000000000145000000000014601971000000000002200600000000000332909000000000000000009999123100000010000000000000BRAGXYACNOR4103
012024070502BBDC4       010BRADESCO    PN  EJ  N1   R$  000000000123400000000012500000000001225000000000123400000000012460000000001246000000000124829056000000000041410800000000051123327700000000000000009999123100000010000000000000BRBBDCACNPR8772
012024070502BEES4       010BANESTES    PN  EJ       R$  000000000096300000000009680000000000960000000000096200000000009650000000000939000000000096900012000000000000001900000000000001828700000000000000009999123100000010000000000000BRBEESACNPR6318
012024070502BRBI11      010BR PARTNERS UNT     N2   R$  000000000142100000000014410000000001397000000000142300000000014390000000001433000000000143901811000000000000385400000000000548593500000000000000009999123100000010000000000000BRBRBICDAM10109
012024070502JSLG3       010JSL         ON      NM   R$  000000000102100000000010270000000000995000000000100500000000009990000000000996000000000100201088000000000000269800000000000271155700000000000000009999123100000010000000000000BRJSLGACNOR2121
012024070502ANIM3       010ANIMA       ON      NM   R$  000000000037000000000003730000000000361000000000036400000000003610000000000361000000000036205131000000000004327000000000001578871900000000000000009999123100000010000000000000BRANIMACNOR6107
012024070502CURY3       010CURY S/A    ON      NM   R$  000000000221400000000022330000000002168000000000217900000000021720000000002170000000000218208104000000000001734300000000003780625100000000000000009999123100000010000000000000BRCURYACNOR3109
012024070502ENGI3       010ENERGISA    ON      N2   R$  000000000145200000000014880000000001447000000000146100000000014470000000001447000000000149300032000000000000004700000000000006867400000000000000009999123100000010000000000000BRENGIACNOR0145
012024070502EPAR3       010EMBPAR S/A  ON           R$  000000000063000000000006300000000000622000000000062800000000006280000000000625000000000062800022000000000000005500000000000003456500000000000000009999123100000010000000000000BREPARACNOR9105
012024070502EQTL3       010EQUATORIAL  ON      NM   R$  000000000326600000000033280000000003236000000000328300000000032580000000003258000000000326036695000000000011975700000000039323234500000000000000009999123100000010000000000000BREQTLACNOR0130
012024070502MTRE3       010MITRE REALTYON      NM   R$  000000000038800000000004050000000000378000000000039300000000004010000000000400000000000040202203000000000001097000000000000431200900000000000000009999123100000010000000000000BRMTREACNOR6112
012024070502ALPA4       010ALPARGATAS  PN      N1   R$  000000000092800000000009350000000000914000000000092500000000009340000000000926000000000093404086000000000001247400000000001154621000000000000000009999123100000010000000000000BRALPAACNPR7232
012024070502JHSF3       010JHSF PART   ON  ED  NM   R$  000000000041700000000004260000000000413000000000041900000000004260000000000424000000000042603300000000000002620900000000001098468200000000000000009999123100000010000000000000BRJHSFACNOR2137
012024070502KEPL3       010KEPLER WEBERON  ED  NM   R$  000000000099200000000009980000000000972000000000098300000000009870000000000986000000000098702613000000000000921800000000000906847600000000000000009999123100000010000000000000BRKEPLACNOR1063
012024070502HAGA3       010HAGA S/A    ON           R$  000000000026600000000002660000000000254000000000025900000000002570000000000256000000000026100037000000000000013600000000000003525000000000000000009999123100000010000000000000BRHAGAACNOR7103
012024070502HBRE3       010HBR REALTY  ON      NM   R$  000000000053000000000005660000000000530000000000055000000000005580000000000558000000000056500943000000000000438200000000000241356800000000000000009999123100000010000000000000BRHBREACNOR4100
012024070502BRKM5       010BRASKEM     PNA     N1   R$  000000000183200000000018420000000001801000000000182200000000018310000000001831000000000183306538000000000002104500000000003834940100000000000000009999123100000010000000000000BRBRKMACNPA4121
012024070502EKTR4       010ELEKTRO     PN  EJ       R$  000000000395500000000039550000000003954000000000395400000000039550000000003901000000000395500009000000000000001200000000000004745900000000000000009999123100000010000000000000BREKTRACNPR7163
012024070502CXSE3       010CAIXA SEGURION      NM   R$  000000000146200000000014640000000001421000000000143300000000014360000000001436000000000143908444000000000003149500000000004516138800000000000000009999123100000010000000000000BRCXSEACNOR7106
012024070502EUCA4       010EUCATEX     PN      N1   R$  000000000159400000000015940000000001542000000000155900000000015550000000001544000000000155500248000000000000046500000000000072501300000000000000009999123100000010000000000000BREUCAACNPR8044
012024070502LVTC3       010WDC NETWORKSON      NM   R$  000000000035300000000003640000000000345000000000035300000000003520000000000348000000000036400036000000000000018200000000000006436400000000000000009999123100000010000000000000BRLVTCACNOR4102
012024070508NEXP3       010NEXPE       ON           R$  000000000043800000000004380000000000414000000000041900000000004150000000000414000000000042100005000000000000000500000000000000209700000000000000009999123100000010000000000000BRNEXPACNOR0101
012024070508ATMP3       010ATMASA      ON           R$  000000000019100000000001940000000000188000000000019000000000001940000000000190000000000019400022000000000000010200000000000001947200000000000000009999123100000010000000000000BRATMPACNOR8100
012024070508RSID3       010ROSSI RESID ON      NM   R$  000000000053600000000005450000000000534000000000053800000000005380000000000510000000000053800049000000000000007800000000000004204000000000000000009999123100000010000000000000BRRSIDACNOR8120
012024070508RNEW4       010RENOVA      PN      N2   R$  000000000009200000000000920000000000091000000000009100000000000910000000000091000000000009200062000000000000047600000000000004364800000000000000009999123100000010000000000000BRRNEWACNPR5110
012024070508CTNM4       010COTEMINAS   PN           R$  000000000007000000000000700000000000070000000000007000000000000700000000000069000000000007000018000000000000100800000000000007056000000000000000009999123100000010000000000000BRCTNMACNPR6129
012024070508ETER3       010ETERNIT     ON      NM   R$  000000000061800000000006320000000000615000000000062200000000006230000000000623000000000062900603000000000000162100000000000100863800000000000000009999123100000010000000000000BRETERACNOR3243
012024070510AMAR1       010LOJAS MARISADIR ORD NM   R$  000000000000100000000000010000000000001000000000000100000000000010000000000000000000000000100055000000000000143800000000000000143800000000000000009999123100000010000000000000BRAMARD02OR7114
012024070502LEVE3       010METAL LEVE  ON      NM   R$  000000000335600000000033790000000003310000000000334200000000033500000000003350000000000335901668000000000000250100000000000836020500000000000000009999123100000010000000000000BRLEVEACNOR2197
012024070502LPSB3       010LOPES BRASILON      NM   R$  000000000019100000000001920000000000184000000000018800000000001920000000000189000000000019100099000000000000022400000000000004232200000000000000009999123100000010000000000000BRLPSBACNOR0114
012024070502RENT3       010LOCALIZA    ON  EJS NM   R$  000000000434700000000043990000000004291000000000436600000000043740000000004371000000000438123036000000000007454700000000032548281000000000000000009999123100000010000000000000BRRENTACNOR4196
012024070502RAPT4       010RANDON PART PN      N1   R$  000000000118500000000012090000000001175000000000119000000000011750000000001174000000000117905602000000000001615800000000001923309100000000000000009999123100000010000000000000BRRAPTACNPR4162
012024070502PCAR3       010P.ACUCAR-CBDON      NM   R$  000000000029600000000003200000000000292000000000031000000000003150000000000314000000000031514161000000000030277500000000009388202700000000000000009999123100000010000000000000BRPCARACNOR3167
012024070502TAEE3       010TAESA       ON      N2   R$  000000000114400000000011500000000001139000000000114300000000011480000000001147000000000114800478000000000000081100000000000092697500000000000000009999123100000010000000000000BRTAEEACNOR9147
012024070502TCSA3       010TECNISA     ON      NM   R$  000000000019900000000002090000000000198000000000020300000000002090000000000206000000000020900129000000000000060800000000000012362200000000000000009999123100000010000000000000BRTCSAACNOR3112
012024070502TEND3       010TENDA       ON      NM   R$  000000000119500000000012110000000001143000000000118800000000012110000000001210000000000121205771000000000002429100000000002886054500000000000000009999123100000010000000000000BRTENDACNOR4111
012024070502VAMO3       010VAMOS       ON      NM   R$  000000000087500000000009010000000000859000000000088400000000009000000000000898000000000090014610000000000007882000000000006970466000000000000000009999123100000010000000000000BRVAMOACNOR7105
012024070502CPLE5       010COPEL       PNA     N2   R$  000000000154000000000015400000000001400000000000141200000000014000000000001400000000000154600016000000000000003600000000000005083500000000000000009999123100000010000000000000BRCPLEACNPA1147
012024070502DXCO3       010DEXCO       ON      NM   R$  000000000067400000000006870000000000664000000000067500000000006850000000000685000000000068605662000000000002156400000000001455689900000000000000009999123100000010000000000000BRDXCOACNOR8105
012024070502FHER3       010FER HERINGERON      NM   R$  000000000039600000000004120000000000393000000000039700000000003930000000000392000000000040800054000000000000015300000000000006080700000000000000009999123100000010000000000000BRFHERACNOR5103
012024070502GGBR4       010GERDAU      PN      N1   R$  000000000182800000000018280000000001775000000000179600000000018000000000001800000000000180119934000000000011034900000000019822578100000000000000009999123100000010000000000000BRGGBRACNPR8192
012024070502CRPG5       010CRISTAL     PNA          R$  000000000294000000000029400000000002915000000000292500000000029320000000002915000000000294100010000000000000001000000000000002925700000000000000009999123100000010000000000000BRCRPGACNPA3119
012024070502MYPK3       010IOCHP-MAXIONON  EJ  NM   R$  000000000120000000000012190000000001194000000000120400000000011970000000001197000000000121003294000000000000739800000000000891092200000000000000009999123100000010000000000000BRMYPKACNOR7155
012024070502NTCO3       010GRUPO NATURAON      NM   R$  000000000154400000000015700000000001534000000000155400000000015700000000001564000000000157115641000000000007850400000000012203347000000000000000009999123100000010000000000000BRNTCOACNOR5106
012024070502ASAI3       010ASSAI       ON      NM   R$  000000000110800000000011540000000001100000000000112900000000011450000000001144000000000114633947000000000025549700000000028858458000000000000000009999123100000010000000000000BRASAIACNOR0106
012024070502MNPR3       010MINUPAR     ON           R$  000000000136900000000013690000000001272000000000129200000000013170000000001286000000000131800024000000000000004700000000000006076100000000000000009999123100000010000000000000BRMNPRACNOR5122
012024070502AERI3       010AERIS       ON      NM   R$  000000000058300000000006100000000000562000000000058400000000006100000000000601000000000061000758000000000000303400000000000177308800000000000000009999123100000010000000000000BRAERIACNOR4102
012024070502GGPS3       010GPS         ON      NM   R$  000000000167900000000017230000000001678000000000170400000000017190000000001716000000000171906194000000000001569300000000002674939700000000000000009999123100000010000000000000BRGGPSACNOR9103
012024070502BEEF3       010MINERVA     ON      NM   R$  000000000068100000000006910000000000678000000000068500000000006860000000000685000000000068608111000000000003972500000000002723680900000000000000009999123100000010000000000000BRBEEFACNOR6116
012024070502AALR3       010ALLIAR      ON      NM   R$  000000000115000000000012650000000001150000000000121800000000012650000000001234000000000127600419000000000000153800000000000187383100000000000000009999123100000010000000000000BRAALRACNOR6102
012024070502CEBR3       010CEB         ON           R$  000000000201700000000020190000000001980000000000199800000000020110000000001980000000000201100017000000000000003000000000000005996900000000000000009999123100000010000000000000BRCEBRACNOR5125
012024070502CEDO4       010CEDRO       PN      N1   R$  000000000223000000000022300000000002150000000000216300000000021500000000002151000000000222000008000000000000000800000000000001730400000000000000009999123100000010000000000000BRCEDOACNPR5128
012024070502CGRA4       010GRAZZIOTIN  PN  EJ       R$  000000000258100000000025810000000002506000000000252800000000025590000000002552000000000259900040000000000000005200000000000013146500000000000000009999123100000010000000000000BRCGRAACNPR9083
012024070502CMIG3       010CEMIG       ON      N1   R$  000000000129000000000012900000000001269000000000127600000000012790000000001273000000000127900508000000000000074900000000000095609700000000000000009999123100000010000000000000BRCMIGACNOR6242
012024070502BALM4       010BAUMER      PN           R$  000000000101000000000010250000000001010000000000101800000000010190000000001002000000000102500003000000000000000300000000000000305400000000000000009999123100000010000000000000BRBALMACNPR2056
012024070502BMEB3       010MERCANTIL   ON      N1   R$  000000000269900000000027000000000002650000000000269200000000027000000000002561000000000279800012000000000000002000000000000005384300000000000000009999123100000010000000000000BRBMEBACNOR8205
012024070502BMKS3       010BIC MONARK  ON           R$  000000003498900000000349890000000034900000000003494400000000349000000000032600000000003490000002000000000000000002000000000000069889000000000000009999123100000010000000000000BRBMKSACNOR9166
012024070502BSLI4       010BRB BANCO   PN           R$  000000000100100000000010600000000001000000000000102000000000010110000000001005000000000105700013000000000000002100000000000002143100000000000000009999123100000010000000000000BRBSLIACNPR2194
012024070502ITSA4       010ITAUSA      PN      N1   R$  000000000100200000000010030000000000985000000000099200000000009950000000000995000000000099621898000000000016301900000000016171546900000000000000009999123100000010000000000000BRITSAACNPR7441
012024070512BIME11      010FII BRIO ME CI  ER       R$  000000000072300000000007230000000000717000000000071900000000007190000000000718000000000071900371000000000000021140000000000015206717000000000000009999123100000010000000000000BRBIMECTF006133
012024070512NEWL11      010FII NEWPORT CI  ER       R$  000000001200000000000120250000000011950000000001198600000000120250000000011976000000001200000116000000000000000802000000000009613008000000000000009999123100000010000000000000BRNEWLCTF004156
012024070512VRTM11      010FII VRTM    CI  ER       R$  000000000109000000000010900000000001077000000000108900000000010890000000001052000000000109000006000000000000000242000000000000263766000000000000009999123100000010000000000000BRVRTMCTF003109
012024070512BTAL11      010FII BTG AGROCI           R$  000000000756500000000076850000000007549000000000760100000000076770000000007656000000000768401023000000000000007525000000000057204013000000000000009999123100000010000000000000BRBTALCTF003140
012024070512BTRA11      010FII BTG TAGRCI           R$  000000000536600000000054990000000005290000000000536000000000054990000000005388000000000549900769000000000000009073000000000048634920000000000000009999123100000010000000000000BRBTRACTF000137
012024070512PLCR11      010FII PLURAL RCI  ER       R$  000000000849300000000085200000000008472000000000849600000000084970000000008497000000000851700351000000000000002630000000000022345101000000000000009999123100000010000000000000BRPLCRCTF003156
012024070512CBOP11      010FII C BRANCOCI  ER       R$  000000000280500000000028400000000002805000000000282400000000028200000000002723000000000280000007000000000000000015000000000000042374000000000000009999123100000010000000000000BRCBOPCTF001231
012024070512PQAG11      010FII PARQ ANHCI  ER       R$  000000000594900000000059490000000005946000000000594600000000059460000000005900000000000594600003000000000000000006000000000000035679000000000000009999123100000010000000000000BRPQAGCTF009149
012024070512SADI11      010FII SANT PAPCI  ER       R$  000000000898200000000089930000000008975000000000898600000000089750000000008970000000000897500094000000000000001080000000000009705642000000000000009999123100000010000000000000BRSADICTF007160
012024070512TMPS11      010FII ITAU TEMCI  ER       R$  000000000957800000000096170000000009382000000000947100000000094600000000009451000000000946000194000000000000006101000000000057787671000000000000009999123100000010000000000000BRTMPSCTF003115
012024070512XPLG11      010FII XP LOG  CI  ER       R$  000000001004000000000101670000000010035000000001006000000000101500000000010149000000001015007766000000000000044704000000000449740243000000000000009999123100000010000000000000BRXPLGCTF002179
012024070512TRBL11      010FII SDI LOG CI  ER       R$  000000000974500000000097980000000009672000000000973400000000097650000000009765000000000977501343000000000000013148000000000127994900000000000000009999123100000010000000000000BRTRBLCTF007113
012024070512SCPF11      010FII SCP     CI           R$  000000000028600000000002870000000000278000000000027900000000002850000000000281000000000028400069000000000000005459000000000001523286000000000000009999123100000010000000000000BRSCPFCTF003302
012024070512VCRI11      010FII VINCI CRCI  ER       R$  000000000086400000000008710000000000860000000000086700000000008710000000000868000000000087100309000000000000008063000000000006992140000000000000009999123100000010000000000000BRVCRICTF007126
012024070512VGIR11      010FII VALREIIICI           R$  000000000100300000000010050000000001000000000000100300000000010050000000001003000000000100524779000000000000329544000000000330670859000000000000009999123100000010000000000000BRVGIRCTF008176
012024070512VINO11      010FII VINCI OFCI  ER       R$  000000000067800000000006800000000000673000000000067600000000006780000000000678000000000067905753000000000000107039000000000072407939000000000000009999123100000010000000000000BRVINOCTF001158
012024070512ASMT11      010FII ASA MET CI           R$  000000000409900000000041000000000003912000000000408700000000039510000000003950000000000410000010000000000000000218000000000000891146000000000000009999123100000010000000000000BRASMTCTF005107
012024070512BBIG11      010FII BBIG    CI  ER       R$  000000000092000000000009280000000000916000000000092200000000009270000000000926000000000092701093000000000000164305000000000151601728000000000000009999123100000010000000000000BRBBIGCTF004102
012024070512RBHY11      010FII RB YIELDCI  ER       R$  000000000904800000000090480000000008902000000000895300000000089980000000008972000000000899800128000000000000001406000000000012588922000000000000009999123100000010000000000000BRRBHYCTF005145
012024070512RBRF11      010FII RBRALPHACI           R$  000000000073300000000007520000000000731000000000074600000000007520000000000751000000000075228018000000000000407360000000000303944375000000000000009999123100000010000000000000BRRBRFCTF003187
012024070512RBRS11      010FII RIOB RR CI           R$  000000000435200000000044050000000004352000000000440400000000044050000000004405000000000449000163000000000000001615000000000007113302000000000000009999123100000010000000000000BRRBRSCTF006138
012024070512RBVA11      010FII RIOB VA CI  ER       R$  000000001041300000000105360000000010413000000001048200000000104800000000010480000000001050702822000000000000007781000000000081560879000000000000009999123100000010000000000000BRRBVACTF006166
012024070512SNCI11      010FII SUNO CRICI           R$  000000000956000000000096000000000009463000000000957300000000095990000000009591000000000959900419000000000000005996000000000057404594000000000000009999123100000010000000000000BRSNCICTF002136
012024070512SNME11      010FII SNME    CI           R$  000000000096800000000009680000000000911000000000096000000000009110000000000921000000000095000177000000000000016152000000000015509671000000000000009999123100000010000000000000BRSNMECTF000107
012024070512ZAGH11      010FII ZAGH    CI  EB       R$  000000000120000000000012000000000001100000000000119300000000012000000000000000000000000120000022000000000000000161000000000000192210000000000000009999123100000010000000000000BRZAGHCTF007104
012024070512PRSV11      010FII P VARGASCI           R$  000000000684500000000068450000000006845000000000684500000000068450000000006400000000000684600001000000000000000002000000000000013690000000000000009999123100000010000000000000BRPRSVCTF008226
012024070512OULG11      010FII OURILOG CI           R$  000000000282000000000028940000000002819000000000287300000000028940000000002845000000000289400100000000000000001564000000000004493630000000000000009999123100000010000000000000BROULGCTF001153
012024070512SHPH11      010FII HIGIENOPCI  ER       R$  000000008650000000000867000000000086500000000008655000000000865000000000086500000000008700000004000000000000000008000000000000692400000000000000009999123100000010000000000000BRSHPHCTF008351
012024070512WSEC11      010FII WARREN  CI           R$  000000000884700000000088470000000008835000000000884500000000088470000000008840000000000884700014000000000000000056000000000000495332000000000000009999123100000010000000000000BRWSECCTF010120
012024070512BPFF11      010FII ABSOLUTOCI  ER       R$  000000000692900000000070000000000006906000000000696500000000069330000000006924000000000693301158000000000000003877000000000027003804000000000000009999123100000010000000000000BRBPFFCTF002237
012024070512IDFI11      010FII UNIDADESCI  ERA      R$  000000000094500000000009450000000000925000000000094200000000009450000000000944000000000094500039000000000000000937000000000000883511000000000000009999123100000010000000000000BRIDFICTF007133
012024070512NCRI11      010FII NAVI CRICI  ER       R$  000000000084300000000008500000000000843000000000084300000000008500000000000846000000000086200014000000000000000061000000000000051463000000000000009999123100000010000000000000BRNCRICTF004119
012024070512VRTA11      010FII FATOR VECI  ER       R$  000000000870000000000087500000000008660000000000869900000000087500000000008730000000000875002680000000000000029989000000000260886332000000000000009999123100000010000000000000BRVRTACTF008261
012024070512VTLT11      010FII VOT LOG CI  ER       R$  000000000931700000000093190000000009273000000000930100000000092730000000009290000000000930200251000000000000002065000000000019207677000000000000009999123100000010000000000000BRVTLTCTF001173
012024070512BTLG11      010FII BTLG    CI           R$  000000001010100000000101650000000010100000000001012500000000101040000000010104000000001011117488000000000000089969000000000910947662000000000000009999123100000010000000000000BRBTLGCTF000163
012024070512VXXV11      010FII VX XVI  CI           R$  000000006730000000000673000000000067300000000006730000000000673000000000000000000000000000000001000000000000000750000000000050475000000000000000009999123100000010000000000000BRVXXVCTF004109
012024070512CARE11      010FII DEA CARECI           R$  000000000016700000000001680000000000160000000000016200000000001630000000000162000000000016300103000000000000004260000000000000693766000000000000009999123100000010000000000000BRCARECTF000112
012024070512PORD11      010FII POLO CRICI  ER       R$  000000000089500000000008950000000000891000000000089300000000008930000000000892000000000089303239000000000000044327000000000039590393000000000000009999123100000010000000000000BRPORDCTF005175
012024070512DAMT11      010FII DIAMANTECI           R$  000000000091100000000009110000000000911000000000091100000000009110000000000911000000000097000001000000000000000001000000000000000911000000000000009999123100000010000000000000BRDAMTCTF007117
012024070512SARE11      010FII SANT RENCI  ER       R$  000000000424500000000042990000000004225000000000425500000000042880000000004275000000000428802911000000000000011709000000000049824786000000000000009999123100000010000000000000BRSARECTF006157
012024070512XPIN11      010FII XP INDL CI           R$  000000000754000000000077100000000007540000000000762400000000076000000000007600000000000771800603000000000000005617000000000042827485000000000000009999123100000010000000000000BRXPINCTF004174
012024070512XPSF11      010FII XP SELECCI  ER       R$  000000000076300000000007660000000000760000000000076200000000007630000000000763000000000076504092000000000000047517000000000036234039000000000000009999123100000010000000000000BRXPSFCTF009157
012024070512TRXF11      010FII TRX REALCI  ER       R$  000000001048500000000105990000000010470000000001049900000000105900000000010586000000001059010023000000000000266037000000002793171439000000000000009999123100000010000000000000BRTRXFCTF003165
012024070512VCJR11      010FII VECTIS  CI  ER       R$  000000000906800000000090680000000009039000000000905400000000090510000000009050000000000906007665000000000000019946000000000180606990000000000000009999123100000010000000000000BRVCJRCTF005156
012024070512VGIP11      010FII VALORAIPCI           R$  000000000884200000000088780000000008834000000000886200000000088650000000008855000000000886503165000000000000015315000000000135722185000000000000009999123100000010000000000000BRVGIPCTF002156
012024070512VILG11      010FII VINCI LGCI  ER       R$  000000000870600000000090000000000008706000000000892500000000089900000000008988000000000899004997000000000000024260000000000216533796000000000000009999123100000010000000000000BRVILGCTF001172
012024070512OUJP11      010FII OURI JPPCI  ER       R$  000000000819100000000083440000000008157000000000827300000000082220000000008222000000000830803011000000000000006952000000000057519779000000000000009999123100000010000000000000BROUJPCTF006188
012024070512BBFO11      010FII BB FOF  CI  ER       R$  000000000703000000000071000000000007017000000000704200000000070990000000007080000000000712800552000000000000012168000000000085690131000000000000009999123100000010000000000000BRBBFOCTF004142
012024070512RBHG11      010FII RBCRI IVCI  ER       R$  000000000859800000000086520000000008557000000000859600000000086200000000008612000000000862004315000000000000007514000000000064595221000000000000009999123100000010000000000000BRRBHGCTF002135
012024070512RBRD11      010FII RB II   CI  ER       R$  000000000380300000000038030000000003711000000000376600000000037610000000003760000000000376100090000000000000000994000000000003743809000000000000009999123100000010000000000000BRRBRDCTF008264
012024070512RBRR11      010FII RBRHGRADCI           R$  000000000919800000000092070000000009138000000000917000000000091610000000009161000000000918905804000000000000019764000000000181237715000000000000009999123100000010000000000000BRRBRRCTF008180
012024070512RBTS11      010FII RB TFO  CI           R$  000000008049900000000804990000000080499000000008049900000000804990000000075000000000008040000001000000000000000010000000000000804990000000000000009999123100000010000000000000BRRBTSCTF002117
012024070512RCRB11      010FII RIOB RC CI           R$  000000001373900000000139990000000013520000000001378300000000139000000000013865000000001394401999000000000000006031000000000083130338000000000000009999123100000010000000000000BRRCRBCTF000157
012024070512SNLG11      010FII SUNO LG CI           R$  000000000317700000000031940000000003105000000000311800000000031100000000003110000000000318400298000000000000002101000000000006552522000000000000009999123100000010000000000000BRSNLGCTF007104
012024070512SMRE11      010FII SMRE    CI  ER       R$  000000001000000000000100000000000010000000000001000000000000100000000000009900000000001000000001000000000000000007000000000000070000000000000000009999123100000010000000000000BRSMRECTF001102
012024070512PRSN11      010FII PERSONALCI           R$  000000000011600000000001170000000000104000000000011500000000001150000000000104000000000011500035000000000000002182000000000000252900000000000000009999123100000010000000000000BRPRSNCTF005124
012024070512VIUR11      010FII VINCI IUCI  ER       R$  000000000067500000000006990000000000673000000000068400000000006860000000000684000000000068601488000000000000055622000000000038049941000000000000009999123100000010000000000000BRVIURCTF009138
012024070512SHOP11      010FII MULTSHOPCI           R$  000000000679900000000067990000000006799000000000679900000000067990000000000000000000000679900001000000000000000029000000000000197171000000000000009999123100000010000000000000BRSHOPCTF004102
012024070512WPLZ11      010FII W PLAZA CI  ER       R$  000000000602200000000060220000000005933000000000594400000000059330000000005923000000000593300013000000000000000081000000000000481480000000000000009999123100000010000000000000BRWPLZCTF004267
012024070512NVHO11      010FII NOVOHORICI  ER       R$  000000000108400000000010850000000001084000000000108400000000010840000000001084000000000108500008000000000000000032000000000000034705000000000000009999123100000010000000000000BRNVHOCTF003229
012024070512ICRI11      010FII CI IPCA CI  ER       R$  000000000960900000000096900000000009590000000000961100000000095950000000009596000000000960800265000000000000007043000000000067690342000000000000009999123100000010000000000000BRICRICTF004105
012024070512KNIP11      010FII KINEA IPCI  ER       R$  000000000944300000000094670000000009438000000000945000000000094390000000009439000000000944814635000000000000091859000000000868117611000000000000009999123100000010000000000000BRKNIPCTF001194
012024070512NCHB11      010FII NCH BR  CI           R$  000000000093300000000009350000000000930000000000093200000000009330000000000931000000000093300352000000000000016534000000000015416938000000000000009999123100000010000000000000BRNCHBCTF000230
012024070512VOTS11      010FII V MASTERCI  ER       R$  000000000817300000000081730000000007952000000000804300000000081430000000008059000000000816700027000000000000000080000000000000643477000000000000009999123100000010000000000000BRVOTSCTF007171
