00COTAHIST.2024BOVESPA 20240718                                                                                                                                                                                                                      
012024071802ROMI3       010ROMI        ON      NM   R$  000000000110700000000011070000000001081000000000108900000000010810000000001081000000000108701597000000000000254000000000000276785500000000000000009999123100000010000000000000BRROMIACNOR8195
012024071802RPAD5       010ALFA HOLDINGPNA          R$  000000000085400000000008560000000000852000000000085200000000008560000000000852000000000089900005000000000000004900000000000004176400000000000000009999123100000010000000000000BRRPADACNPA4218
012024071802RRRP3       0103R PETROLEUMON      NM   R$  000000000275000000000027780000000002706000000000272800000000027290000000002728000000000272910344000000000003379700000000009222914600000000000000009999123100000010000000000000BRRRRPACNOR5103
012024071802RSUL4       010RIOSULENSE  PN           R$  000000000659900000000065990000000006400000000000650000000000064900000000006380000000000654900023000000000000003200000000000020801300000000000000009999123100000010000000000000BRRSULACNPR3114
012024071802ODPV3       010ODONTOPREV  ON      NM   R$  000000000119800000000012000000000001168000000000118000000000011790000000001171000000000117907362000000000002163000000000002553139700000000000000009999123100000010000000000000BRODPVACNOR4202
012024071802OFSA3       010OUROFINO S/AON      NM   R$  000000000190100000000019020000000001901000000000190100000000019020000000001902000000000190400006000000000000000900000000000001711700000000000000009999123100000010000000000000BROFSAACNOR7118
012024071802ONCO3       010ONCOCLINICASON      NM   R$  000000000071700000000007210000000000688000000000070200000000007040000000000703000000000070907586000000000002635800000000001852248700000000000000009999123100000010000000000000BRONCOACNOR6101
012024071802OPCT3       010OCEANPACT   ON      NM   R$  000000000067500000000006780000000000643000000000065400000000006430000000000643000000000064802225000000000000714200000000000467257100000000000000009999123100000010000000000000BROPCTACNOR0100
012024071802ORVR3       010ORIZON      ON      NM   R$  000000000428300000000042920000000004219000000000424100000000042400000000004240000000000424503376000000000000590500000000002504482600000000000000009999123100000010000000000000BRORVRACNOR0101
012024071802VBBR3       010VIBRA       ON      NM   R$  000000000232300000000023470000000002301000000000231200000000023060000000002304000000000231015200000000000003600700000000008326189400000000000000009999123100000010000000000000BRVBBRACNOR1108
012024071802MILS3       010MILLS       ON      NM   R$  000000000115000000000011500000000001117000000000112500000000011270000000001126000000000112805031000000000001382900000000001556012300000000000000009999123100000010000000000000BRMILSACNOR2127
012024071802MLAS3       010MULTILASER  ON      NM   R$  000000000020900000000002120000000000201000000000020400000000002030000000000203000000000020404783000000000003936100000000000804151200000000000000009999123100000010000000000000BRMLASACNOR9101
012024071802MNDL3       010MUNDIAL     ON           R$  000000000145000000000015300000000001450000000000150900000000015300000000001343000000000153000004000000000000001200000000000001811800000000000000009999123100000010000000000000BRMNDLACNOR4109
012024071802MNPR3       010MINUPAR     ON           R$  000000000130600000000013150000000001226000000000128500000000013150000000001231000000000131400021000000000000005600000000000007198100000000000000009999123100000010000000000000BRMNPRACNOR5122
012024071802MOVI3       010MOVIDA      ON      NM   R$  000000000067100000000006710000000000630000000000064200000000006340000000000632000000000063609100000000000004584300000000002945349700000000000000009999123100000010000000000000BRMOVIACNOR0122
012024071802MRFG3       010MARFRIG     ON      NM   R$  000000000122400000000012270000000001117000000000115300000000011220000000001121000000000112228036000000000012427400000000014330619000000000000000009999123100000010000000000000BRMRFGACNOR0116
012024071802POMO4       010MARCOPOLO   PN      N2   R$  000000000068500000000006850000000000658000000000066600000000006610000000000660000000000066215051000000000005034700000000003353707400000000000000009999123100000010000000000000BRPOMOACNPR7098
012024071802PORT3       010WILSON SONS ON  ED  NM   R$  000000000160000000000016000000000001572000000000158200000000015810000000001581000000000158202879000000000000435900000000000689623800000000000000009999123100000010000000000000BRPORTACNOR8109
012024071802POSI3       010POSITIVO TECON      NM   R$  000000000078000000000007830000000000744000000000075400000000007440000000000743000000000074407230000000000002578900000000001946729100000000000000009999123100000010000000000000BRPOSIACNOR9116
012024071802PRIO3       010PETRORIO    ON  ATZ NM   R$  000000000461200000000046750000000004509000000000456800000000045470000000004546000000000454715978000000000005709300000000026083174000000000000000009999123100000010000000000000BRPRIOACNOR1107
012024071802SANB11      010SANTANDER BRUNT          R$  000000000290900000000029090000000002876000000000289200000000028930000000002891000000000289305932000000000001389800000000004020348200000000000000009999123100000010000000000000BRSANBCDAM13164
012024071802SANB3       010SANTANDER BRON           R$  000000000137900000000013790000000001365000000000137200000000013700000000001370000000000137400486000000000000077300000000000106094900000000000000009999123100000010000000000000BRSANBACNOR8171
012024071802SANB4       010SANTANDER BRPN           R$  000000000153100000000015310000000001510000000000151800000000015200000000001517000000000152200444000000000000070200000000000106605800000000000000009999123100000010000000000000BRSANBACNPR5171
012024071802TCSA3       010TECNISA     ON      NM   R$  000000000022700000000002300000000000215000000000022100000000002150000000000215000000000021800156000000000000072700000000000016112800000000000000009999123100000010000000000000BRTCSAACNOR3112
012024071802TECN3       010TECHNOS     ON      NM   R$  000000000060900000000006250000000000601000000000061800000000006110000000000607000000000061205097000000000002838100000000001754508800000000000000009999123100000010000000000000BRTECNACNOR6109
012024071802TELB3       010TELEBRAS    ON           R$  000000000142000000000014310000000001370000000000140400000000013700000000001370000000000140000019000000000000004900000000000006881300000000000000009999123100000010000000000000BRTELBACNOR2140
012024071802TELB4       010TELEBRAS    PN           R$  000000000095000000000009590000000000937000000000094100000000009380000000000936000000000094800033000000000000005300000000000004989900000000000000009999123100000010000000000000BRTELBACNPR9140
012024071802TEND3       010TENDA       ON      NM   R$  000000000128000000000012910000000001200000000000122800000000012260000000001222000000000122710368000000000003384500000000004157992700000000000000009999123100000010000000000000BRTENDACNOR4111
012024071802TFCO4       010TRACK FIELD PN      N2   R$  000000000114300000000011430000000001108000000000111400000000011100000000001109000000000111700367000000000000103100000000000114887000000000000000009999123100000010000000000000BRTFCOACNPR8114
012024071802TGMA3       010TEGMA       ON      NM   R$  000000000259500000000025950000000002525000000000255000000000025250000000002525000000000253301048000000000000162900000000000415465400000000000000009999123100000010000000000000BRTGMAACNOR7144
012024071802PATI3       010PANATLANTICAON           R$  000000000250000000000025000000000002500000000000250000000000025000000000002450000000000250000001000000000000000200000000000000500000000000000000009999123100000010000000000000BRPATIACNOR6065
012024071802PCAR3       010P.ACUCAR-CBDON      NM   R$  000000000030700000000003090000000000291000000000029800000000002910000000000291000000000029210861000000000012278700000000003663509000000000000000009999123100000010000000000000BRPCARACNOR3167
012024071802PETZ3       010PETZ        ON      NM   R$  000000000040700000000004100000000000390000000000039800000000003920000000000391000000000039212659000000000006985200000000002782760600000000000000009999123100000010000000000000BRPETZACNOR2110
012024071802RANI3       010IRANI       ON      NM   R$  000000000092300000000009250000000000882000000000089200000000008840000000000884000000000088504620000000000000997700000000000890779800000000000000009999123100000010000000000000BRRANIACNOR5072
012024071802RCSL3       010RECRUSUL    ON           R$  000000000028500000000002850000000000272000000000027600000000002740000000000274000000000027700341000000000000226700000000000062718600000000000000009999123100000010000000000000BRRCSLACNOR4134
012024071802CIEL3       010CIELO       ON      NM   R$  000000000057300000000005740000000000573000000000057300000000005740000000000573000000000057414536000000000006453600000000003701400400000000000000009999123100000010000000000000BRCIELACNOR3157
012024071802CLSA3       010CLEARSALE   ON      NM   R$  000000000072300000000007320000000000687000000000071000000000007130000000000710000000000071304693000000000002379100000000001689973100000000000000009999123100000010000000000000BRCLSAACNOR0100
012024071802CLSC4       010CELESC      PN      N2   R$  000000000769100000000076910000000007680000000000768500000000076800000000007611000000000775000002000000000000000200000000000001537100000000000000009999123100000010000000000000BRCLSCACNPR3131
012024071802CMIG3       010CEMIG       ON      N1   R$  000000000136000000000013600000000001319000000000133000000000013190000000001319000000000133100671000000000000135300000000000180048300000000000000009999123100000010000000000000BRCMIGACNOR6242
012024071802CMIG4       010CEMIG       PN      N1   R$  000000000110700000000011170000000001089000000000110200000000010930000000001092000000000109524571000000000016487100000000018177911100000000000000009999123100000010000000000000BRCMIGACNPR3243
012024071802TIMS3       010TIM         ON      NM   R$  000000000169500000000017020000000001674000000000168400000000016750000000001673000000000167610579000000000003331600000000005611980900000000000000009999123100000010000000000000BRTIMSACNOR5117
012024071802TKNO4       010TEKNO       PN           R$  000000000770000000000077000000000007700000000000770000000000077000000000006500000000000850000001000000000000000100000000000000770000000000000000009999123100000010000000000000BRTKNOACNPR5075
012024071802TOTS3       010TOTVS       ON      NM   R$  000000000288300000000028830000000002795000000000281300000000028040000000002800000000000280413701000000000003160900000000008893367400000000000000009999123100000010000000000000BRTOTSACNOR8144
012024071802TPIS3       010TRIUNFO PARTON      NM   R$  000000000038700000000003870000000000377000000000037900000000003770000000000377000000000038000048000000000000012600000000000004782700000000000000009999123100000010000000000000BRTPISACNOR8118
012024071802TRAD3       010TC          ON      NM   R$  000000000006400000000000640000000000058000000000005900000000000580000000000057000000000005800148000000000000469600000000000027959900000000000000009999123100000010000000000000BRTRADACNOR3101
012024071802PFRM3       010PROFARMA    ON      NM   R$  000000000053600000000005430000000000528000000000053600000000005430000000000536000000000054300914000000000000158900000000000085197300000000000000009999123100000010000000000000BRPFRMACNOR1116
012024071802TAEE4       010TAESA       PN      N2   R$  000000000118300000000011830000000001161000000000116700000000011630000000001162000000000116301185000000000000243200000000000284027700000000000000009999123100000010000000000000BRTAEEACNPR6147
012024071802TASA3       010TAURUS ARMASON      N2   R$  000000000127900000000012790000000001250000000000126300000000012540000000001252000000000125600042000000000000005800000000000007327600000000000000009999123100000010000000000000BRTASAACNOR7104
012024071802TASA4       010TAURUS ARMASPN      N2   R$  000000000127400000000012740000000001231000000000124600000000012350000000001235000000000123901582000000000000221400000000000275955200000000000000009999123100000010000000000000BRTASAACNPR4104
012024071802LEVE3       010METAL LEVE  ON      NM   R$  000000000346900000000034690000000003309000000000334800000000033280000000003327000000000334002361000000000000775400000000002596325400000000000000009999123100000010000000000000BRLEVEACNOR2197
012024071802LJQQ3       010QUERO-QUERO ON      NM   R$  000000000044600000000004460000000000410000000000041800000000004160000000000415000000000041710399000000000003420800000000001432606100000000000000009999123100000010000000000000BRLJQQACNOR5104
012024071802SAPR11      010SANEPAR     UNT     N2   R$  000000000270000000000027090000000002631000000000265900000000026580000000002650000000000265805930000000000002075400000000005518568200000000000000009999123100000010000000000000BRSAPRCDAM13118
012024071802SAPR3       010SANEPAR     ON      N2   R$  000000000051500000000005150000000000502000000000050900000000005050000000000503000000000050500765000000000000265900000000000135383300000000000000009999123100000010000000000000BRSAPRACNOR9159
012024071802SAPR4       010SANEPAR     PN      N2   R$  000000000055000000000005500000000000536000000000053900000000005380000000000537000000000053803096000000000002217500000000001196350300000000000000009999123100000010000000000000BRSAPRACNPR6159
012024071802SBFG3       010GRUPO SBF   ON      NM   R$  000000000145700000000014570000000001370000000000139300000000013940000000001385000000000139407226000000000001812200000000002525798400000000000000009999123100000010000000000000BRSBFGACNOR1103
012024071802SBSP3       010SABESP      ON      NM   R$  000000000826500000000083800000000008177000000000825500000000082020000000008200000000000820222461000000000006437800000000053144314200000000000000009999123100000010000000000000BRSBSPACNOR5161
012024071802TRIS3       010TRISUL      ON      NM   R$  000000000051800000000005180000000000502000000000050600000000005030000000000502000000000050501718000000000000460400000000000233402200000000000000009999123100000010000000000000BRTRISACNOR4118
012024071802TRPL3       010TRAN PAULISTON      N1   R$  000000000323600000000032360000000003200000000000321700000000032100000000003210000000000322000025000000000000003000000000000009651100000000000000009999123100000010000000000000BRTRPLACNOR4185
012024071802TRPL4       010TRAN PAULISTPN      N1   R$  000000000258000000000025870000000002528000000000254400000000025340000000002534000000000254015858000000000003680100000000009364862000000000000000009999123100000010000000000000BRTRPLACNPR1185
012024071802GEPA4       010GER PARANAP PN           R$  000000000264900000000026490000000002600000000000261800000000026000000000002600000000000264900004000000000000000400000000000001047400000000000000009999123100000010000000000000BRGEPAACNPR9160
012024071802GFSA3       010GAFISA      ON      NM   R$  000000000037300000000003730000000000349000000000035700000000003520000000000351000000000035204049000000000004085700000000001460028600000000000000009999123100000010000000000000BRGFSAACNOR3124
012024071802GGBR3       010GERDAU      ON      N1   R$  000000000166100000000016800000000001638000000000166000000000016380000000001637000000000165300173000000000000033500000000000055622300000000000000009999123100000010000000000000BRGGBRACNOR1192
012024071802GGBR4       010GERDAU      PN      N1   R$  000000000189600000000019040000000001865000000000187900000000018680000000001868000000000187014844000000000007058700000000013267988300000000000000009999123100000010000000000000BRGGBRACNPR8192
012024071802ITSA3       010ITAUSA      ON      N1   R$  000000000103300000000010390000000001020000000000102600000000010250000000001023000000000102500282000000000000050300000000000051652800000000000000009999123100000010000000000000BRITSAACNOR0441
012024071802ITSA4       010ITAUSA      PN      N1   R$  000000000103200000000010380000000001019000000000102400000000010260000000001025000000000102620685000000000018162300000000018610736600000000000000009999123100000010000000000000BRITSAACNPR7441
012024071802AMBP3       010AMBIPAR     ON      NM   R$  000000000240500000000024500000000002331000000000240300000000024090000000002405000000000241011704000000000006059800000000014562349200000000000000009999123100000010000000000000BRAMBPACNOR6103
012024071802ATOM3       010ATOMPAR     ON           R$  000000000020100000000002020000000000199000000000019900000000001990000000000198000000000020100026000000000000004100000000000000819900000000000000009999123100000010000000000000BRATOMACNOR1106
012024071802BRSR3       010BANRISUL    ON      N1   R$  000000000125000000000012740000000001243000000000125500000000012440000000001243000000000125700032000000000000005500000000000006907100000000000000009999123100000010000000000000BRBRSRACNOR3188
012024071802BRSR6       010BANRISUL    PNB     N1   R$  000000000119700000000011970000000001174000000000118200000000011790000000001177000000000118005239000000000001240000000000001466340200000000000000009999123100000010000000000000BRBRSRACNPB4191
012024071802BSLI3       010BRB BANCO   ON           R$  000000000095900000000009840000000000959000000000097100000000009840000000000923000000000099900002000000000000000200000000000000194300000000000000009999123100000010000000000000BRBSLIACNOR5194
012024071802BSLI4       010BRB BANCO   PN           R$  000000000103300000000010330000000001014000000000102400000000010140000000000979000000000103400003000000000000000300000000000000307400000000000000009999123100000010000000000000BRBSLIACNPR2194
012024071802ANIM3       010ANIMA       ON      NM   R$  000000000037500000000003760000000000350000000000035500000000003550000000000352000000000035507813000000000004654100000000001656347200000000000000009999123100000010000000000000BRANIMACNOR6107
012024071802APER3       010ALPER S.A.  ON           R$  000000000452700000000045600000000004527000000000453500000000045600000000004526000000000462000002000000000000000400000000000001814100000000000000009999123100000010000000000000BRAPERACNOR9106
012024071802ARML3       010ARMAC       ON      NM   R$  000000000101800000000010190000000000961000000000097600000000009790000000000971000000000097905731000000000001320200000000001289418700000000000000009999123100000010000000000000BRARMLACNOR1112
012024071802ARZZ3       010AREZZO CO   ON  ED  NM   R$  000000000540000000000054000000000005218000000000527600000000052580000000005254000000000525908110000000000002117800000000011175002800000000000000009999123100000010000000000000BRARZZACNOR3147
012024071802BBDC3       010BRADESCO    ON      N1   R$  000000000116900000000011720000000001149000000000115700000000011500000000001150000000000115209394000000000003988900000000004615420700000000000000009999123100000010000000000000BRBBDCACNOR1772
012024071802BBDC4       010BRADESCO    PN      N1   R$  000000000127600000000012800000000001256000000000126300000000012560000000001256000000000125729152000000000022829000000000028848642200000000000000009999123100000010000000000000BRBBDCACNPR8772
012024071802BLAU3       010BLAU        ON      NM   R$  000000000119500000000012000000000001145000000000116300000000011580000000001150000000000115801033000000000000154800000000000180175500000000000000009999123100000010000000000000BRBLAUACNOR8114
012024071802BMEB3       010MERCANTIL   ON      N1   R$  000000000265000000000026540000000002650000000000265000000000026540000000002653000000000277800011000000000000001200000000000003180500000000000000009999123100000010000000000000BRBMEBACNOR8205
012024071802BMEB4       010MERCANTIL   PN      N1   R$  000000000299400000000030450000000002984000000000300500000000030450000000003012000000000317600050000000000000009500000000000028552300000000000000009999123100000010000000000000BRBMEBACNPR5210
012024071802BMGB4       010BANCO BMG   PN      N1   R$  000000000037500000000003760000000000363000000000036800000000003650000000000365000000000036600895000000000000611300000000000225413700000000000000009999123100000010000000000000BRBMGBACNPR0109
012024071802BMKS3       010BIC MONARK  ON           R$  000000003433900000000343390000000031500000000003193100000000334990000000032501000000003428000017000000000000000113000000000003608242000000000000009999123100000010000000000000BRBMKSACNOR9166
012024071802BMOB3       010BEMOBI TECH ON      NM   R$  000000000150300000000015030000000001449000000000146100000000014590000000001456000000000146002268000000000000297200000000000434265900000000000000009999123100000010000000000000BRBMOBACNOR7103
012024071802BOBR4       010BOMBRIL     PN           R$  000000000021200000000002130000000000206000000000021000000000002070000000000206000000000020700023000000000000013000000000000002738900000000000000009999123100000010000000000000BRBOBRACNPR3128
012024071802GRND3       010GRENDENE    ON      NM   R$  000000000061500000000006170000000000605000000000061000000000006050000000000605000000000061105550000000000001000900000000000611232800000000000000009999123100000010000000000000BRGRNDACNOR3174
012024071802AURE3       010AUREN       ON      NM   R$  000000000125000000000012520000000001237000000000124300000000012420000000001242000000000124308902000000000002719000000000003379917700000000000000009999123100000010000000000000BRAUREACNOR9104
012024071802AVLL3       010ALPHAVILLE  ON      NM   R$  000000000033500000000003600000000000335000000000034300000000003600000000000318000000000036000003000000000000000300000000000000103000000000000000009999123100000010000000000000BRAVLLACNOR5103
012024071802AZEV3       010AZEVEDO     ON           R$  000000000016500000000001660000000000155000000000016000000000001600000000000160000000000016100946000000000001140900000000000182705500000000000000009999123100000010000000000000BRAZEVACNOR0121
012024071802AZEV4       010AZEVEDO     PN           R$  000000000016500000000001650000000000155000000000016000000000001630000000000163000000000016402832000000000004599300000000000737653700000000000000009999123100000010000000000000BRAZEVACNPR7121
012024071802BRIT3       010BRISANET    ON      NM   R$  000000000044000000000004400000000000422000000000043000000000004350000000000431000000000043500599000000000000331200000000000142640300000000000000009999123100000010000000000000BRBRITACNOR0103
012024071802BRKM3       010BRASKEM     ON      N1   R$  000000000191100000000019110000000001827000000000184500000000018450000000001845000000000185000043000000000000009000000000000016612700000000000000009999123100000010000000000000BRBRKMACNOR1119
012024071802BRKM5       010BRASKEM     PNA     N1   R$  000000000191500000000019160000000001822000000000184700000000018410000000001840000000000184207276000000000002420400000000004470900900000000000000009999123100000010000000000000BRBRKMACNPA4121
012024071802COCE5       010COELCE      PNA          R$  000000000320100000000032010000000003082000000000312800000000031250000000003125000000000320000046000000000000005300000000000016582500000000000000009999123100000010000000000000BRCOCEACNPA3147
012024071802COGN3       010COGNA ON    ON      NM   R$  000000000018000000000001810000000000171000000000017400000000001720000000000172000000000017333564000000000033771900000000005895869200000000000000009999123100000010000000000000BRCOGNACNOR2104
012024071802AZUL4       010AZUL        PN      N2   R$  000000000087000000000008840000000000801000000000083100000000008190000000000817000000000081917586000000000020872800000000017356877500000000000000009999123100000010000000000000BRAZULACNPR4102
012024071802CASH3       010MELIUZ      ON      NM   R$  000000000062500000000006250000000000575000000000059000000000005750000000000575000000000057604715000000000003081400000000001820954600000000000000009999123100000010000000000000BRCASHACNOR8106
012024071802CBAV3       010CBA         ON      NM   R$  000000000069400000000006990000000000674000000000068300000000006810000000000680000000000068106268000000000002492300000000001702390700000000000000009999123100000010000000000000BRCBAVACNOR5104
012024071802CBEE3       010AMPLA ENERG ON           R$  000000000098000000000009800000000000980000000000098000000000009800000000000960000000000104000001000000000000000100000000000000098000000000000000009999123100000010000000000000BRCBEEACNOR3159
012024071802CCRO3       010CCR SA      ON      NM   R$  000000000128700000000012930000000001256000000000126700000000012560000000001255000000000126912911000000000006051900000000007668491000000000000000009999123100000010000000000000BRCCROACNOR2145
012024071802CEAB3       010CEA MODAS   ON      NM   R$  000000000098100000000009810000000000912000000000092800000000009220000000000922000000000092311128000000000004583000000000004256388400000000000000009999123100000010000000000000BRCEABACNOR1102
012024071802CPFE3       010CPFL ENERGIAON      NM   R$  000000000337200000000033790000000003320000000000333800000000033320000000003330000000000333404623000000000000943100000000003148324800000000000000009999123100000010000000000000BRCPFEACNOR0137
012024071802CPLE3       010COPEL       ON      N2   R$  000000000091200000000009140000000000894000000000089900000000008960000000000896000000000089804585000000000004786500000000004303306600000000000000009999123100000010000000000000BRCPLEACNOR8149
012024071802CPLE6       010COPEL       PNB     N2   R$  000000000102700000000010290000000001010000000000101800000000010150000000001013000000000101513747000000000009197900000000009366419500000000000000009999123100000010000000000000BRCPLEACNPB9146
012024071802EALT4       010ACO ALTONA  PN           R$  000000000114200000000011450000000001131000000000113600000000011400000000001127000000000114000018000000000000007500000000000008523900000000000000009999123100000010000000000000BREALTACNPR1138
012024071802ECOR3       010ECORODOVIAS ON      NM   R$  000000000074200000000007420000000000700000000000071200000000007100000000000707000000000071107713000000000004331800000000003086444000000000000000009999123100000010000000000000BRECORACNOR8120
012024071802EGIE3       010ENGIE BRASILON      NM   R$  000000000466800000000046690000000004605000000000462600000000046070000000004605000000000461105851000000000001199700000000005550678900000000000000009999123100000010000000000000BREGIEACNOR9126
012024071802ASAI3       010ASSAI       ON      NM   R$  000000000107500000000010750000000001037000000000104600000000010410000000001040000000000104217300000000000010952400000000011464092500000000000000009999123100000010000000000000BRASAIACNOR0106
012024071802PGMN3       010PAGUE MENOS ON      NM   R$  000000000030100000000003020000000000280000000000028700000000002820000000000282000000000028303258000000000001636500000000000471221700000000000000009999123100000010000000000000BRPGMNACNOR8103
012024071802PINE3       010PINE        ON  EJ  N2   R$  000000000054200000000005420000000000539000000000053900000000005390000000000539000000000058900004000000000000000700000000000000377600000000000000009999123100000010000000000000BRPINEACNOR1150
012024071802PINE4       010PINE        PN  EJ  N2   R$  000000000042500000000004250000000000420000000000042200000000004220000000000422000000000042300526000000000000133500000000000056375800000000000000009999123100000010000000000000BRPINEACNPR8150
012024071802PLPL3       010PLANOEPLANO ON      NM   R$  000000000115000000000011580000000001077000000000111300000000011140000000001110000000000111404996000000000001515700000000001687225600000000000000009999123100000010000000000000BRPLPLACNOR5104
012024071802PNVL3       010DIMED       ON      NM   R$  000000000104000000000010400000000000985000000000099700000000009890000000000985000000000099003256000000000000539100000000000537688200000000000000009999123100000010000000000000BRPNVLACNOR9207
012024071802POMO3       010MARCOPOLO   ON      N2   R$  000000000053800000000005380000000000513000000000052400000000005130000000000512000000000051500330000000000000138500000000000072659000000000000000009999123100000010000000000000BRPOMOACNOR0098
012024071802RAPT3       010RANDON PART ON      N1   R$  000000000104000000000010470000000001014000000000102500000000010270000000001014000000000102700249000000000000060000000000000061536700000000000000009999123100000010000000000000BRRAPTACNOR7162
012024071802RAPT4       010RANDON PART PN      N1   R$  000000000124100000000012410000000001176000000000119100000000011870000000001183000000000118707188000000000004843700000000005770458200000000000000009999123100000010000000000000BRRAPTACNPR4162
012024071802FESA4       010FERBASA     PN      N1   R$  000000000089700000000009060000000000878000000000088500000000008830000000000882000000000088503094000000000001137400000000001006755100000000000000009999123100000010000000000000BRFESAACNPR5084
012024071802FHER3       010FER HERINGERON      NM   R$  000000000040500000000004120000000000401000000000040600000000004050000000000405000000000040600019000000000000005100000000000002071900000000000000009999123100000010000000000000BRFHERACNOR5103
012024071802FIQE3       010UNIFIQUE    ON      NM   R$  000000000034200000000003420000000000330000000000033800000000003360000000000335000000000033602181000000000001145000000000000387015600000000000000009999123100000010000000000000BRFIQEACNOR5107
012024071802FLRY3       010FLEURY      ON      NM   R$  000000000155900000000015630000000001534000000000154500000000015390000000001533000000000153912338000000000002795100000000004319043500000000000000009999123100000010000000000000BRFLRYACNOR5138
012024071802TAEE11      010TAESA       UNT     N2   R$  000000000351500000000035260000000003438000000000347200000000034380000000003438000000000343908683000000000001817600000000006311580000000000000000009999123100000010000000000000BRTAEECDAM10147
012024071802TAEE3       010TAESA       ON      N2   R$  000000000116200000000011650000000001147000000000115200000000011500000000001147000000000115100825000000000000128500000000000148071800000000000000009999123100000010000000000000BRTAEEACNOR9147
012024071802VALE3       010VALE        ON      NM   R$  000000000617000000000061910000000006106000000000614000000000061170000000006116000000000611744959000000000020625500000000126654940000000000000000009999123100000010000000000000BRVALEACNOR0210
012024071802LUPA3       010LUPATECH    ON      NM   R$  000000000018700000000001870000000000172000000000017800000000001750000000000174000000000017500357000000000000276300000000000049319400000000000000009999123100000010000000000000BRLUPAACNOR8112
012024071802KEPL3       010KEPLER WEBERON      NM   R$  000000000102500000000010250000000001003000000000101200000000010170000000001017000000000101803205000000000000995500000000001008426700000000000000009999123100000010000000000000BRKEPLACNOR1063
012024071802KLBN11      010KLABIN S/A  UNT     N2   R$  000000000215600000000021600000000002133000000000214500000000021410000000002140000000000214208055000000000002310400000000004955930200000000000000009999123100000010000000000000BRKLBNCDAM18142
012024071802KLBN3       010KLABIN S/A  ON      N2   R$  000000000043100000000004350000000000429000000000043100000000004290000000000429000000000043100420000000000000165100000000000071167100000000000000009999123100000010000000000000BRKLBNACNOR2170
012024071802KLBN4       010KLABIN S/A  PN      N2   R$  000000000043100000000004320000000000425000000000042800000000004260000000000426000000000042701612000000000000947700000000000405619800000000000000009999123100000010000000000000BRKLBNACNPR9170
012024071802AERI3       010AERIS       ON      NM   R$  000000000066200000000006770000000000606000000000063100000000006090000000000608000000000061200755000000000000230000000000000145191400000000000000009999123100000010000000000000BRAERIACNOR4102
012024071802AESB3       010AES BRASIL  ON      NM   R$  000000000113900000000011390000000001135000000000113600000000011350000000001135000000000113704380000000000003425100000000003893031000000000000000009999123100000010000000000000BRAESBACNOR7106
012024071802AFLT3       010AFLUENTE T  ON           R$  000000000072100000000007210000000000721000000000072100000000007210000000000722000000000076900002000000000000000300000000000000216300000000000000009999123100000010000000000000BRAFLTACNOR1122
012024071802BAZA3       010AMAZONIA    ON           R$  000000000985700000000098570000000009451000000000956300000000094510000000009450000000000950300011000000000000001100000000000010519600000000000000009999123100000010000000000000BRBAZAACNOR0179
012024071802BBAS3       010BRASIL      ON      NM   R$  000000000273400000000027630000000002714000000000272800000000027190000000002719000000000272023871000000000010820600000000029522538700000000000000009999123100000010000000000000BRBBASACNOR3324
012024071802BEES3       010BANESTES    ON           R$  000000000090700000000009080000000000900000000000090200000000009000000000000900000000000090400055000000000000007900000000000007127700000000000000009999123100000010000000000000BRBEESACNOR9393
012024071802BEES4       010BANESTES    PN           R$  000000000097600000000009770000000000967000000000097200000000009720000000000968000000000097200015000000000000002200000000000002139900000000000000009999123100000010000000000000BRBEESACNPR6318
012024071802RENT3       010LOCALIZA    ON      NM   R$  000000000450200000000045020000000004300000000000436500000000043470000000004345000000000434727315000000000009506300000000041502368200000000000000009999123100000010000000000000BRRENTACNOR4196
012024071802SYNE3       010SYN PROP TECON      NM   R$  000000000102000000000010300000000001010000000000101900000000010200000000001015000000000102201203000000000000221700000000000226021300000000000000009999123100000010000000000000BRSYNEACNOR2102
012024071802BGIP4       010BANESE      PN           R$  000000000225000000000022500000000002250000000000225000000000022500000000002241000000000230000002000000000000000200000000000000450000000000000000009999123100000010000000000000BRBGIPACNPR8208
012024071802BHIA3       010CASAS BAHIA ON      NM   R$  000000000052400000000005260000000000500000000000050800000000005050000000000504000000000050503700000000000004815100000000002447498300000000000000009999123100000010000000000000BRBHIAACNOR1102
012024071802BRAP3       010BRADESPAR   ON      N1   R$  000000000188400000000018840000000001819000000000183900000000018190000000001819000000000182901178000000000000133500000000000245563600000000000000009999123100000010000000000000BRBRAPACNOR5148
012024071802BRAP4       010BRADESPAR   PN      N1   R$  000000000194600000000019500000000001891000000000191300000000018920000000001891000000000189309122000000000004222400000000008078485000000000000000009999123100000010000000000000BRBRAPACNPR2148
012024071802CSRN3       010COSERN      ON           R$  000000000229800000000023000000000002298000000000229900000000023000000000002178000000000229800003000000000000000500000000000001149700000000000000009999123100000010000000000000BRCSRNACNOR0193
012024071802CSRN5       010COSERN      PNA          R$  000000000215200000000021530000000002152000000000215200000000021530000000002105000000000220000004000000000000000400000000000000860900000000000000009999123100000010000000000000BRCSRNACNPA3193
012024071802CSUD3       010CSU DIGITAL ON      NM   R$  000000000206900000000020700000000001985000000000201200000000020250000000002025000000000202600203000000000000026300000000000052940300000000000000009999123100000010000000000000BRCSUDACNOR5110
012024071802CTKA4       010KARSTEN     PN           R$  000000000190000000000019000000000001900000000000190000000000019000000000001701000000000200000001000000000000000100000000000000190000000000000000009999123100000010000000000000BRCTKAACNPR7043
012024071802CURY3       010CURY S/A    ON      NM   R$  000000000217500000000021800000000002132000000000214600000000021500000000002149000000000215007804000000000001573800000000003378378200000000000000009999123100000010000000000000BRCURYACNOR3109
012024071802CVCB3       010CVC BRASIL  ON      NM   R$  000000000019400000000001940000000000186000000000018900000000001870000000000186000000000018712348000000000017040900000000003228458000000000000000009999123100000010000000000000BRCVCBACNOR1116
012024071802YDUQ3       010YDUQS PART  ON      NM   R$  000000000117600000000011770000000001141000000000115800000000011510000000001150000000000115309803000000000003239300000000003751622500000000000000009999123100000010000000000000BRYDUQACNOR3105
012024071802ZAMP3       010ZAMP S.A.   ON           R$  000000000036100000000003610000000000330000000000034800000000003450000000000345000000000034705285000000000003508500000000001222161100000000000000009999123100000010000000000000BRZAMPACNOR5100
012024071802ITUB3       010ITAUUNIBANCOON      N1   R$  000000000292800000000029280000000002897000000000290700000000029100000000002907000000000291001162000000000000336900000000000979467400000000000000009999123100000010000000000000BRITUBACNOR4338
012024071802ITUB4       010ITAUUNIBANCOPN      N1   R$  000000000340700000000034210000000003377000000000339600000000034000000000003399000000000340031980000000000015688400000000053286995200000000000000009999123100000010000000000000BRITUBACNPR1338
012024071802ENAT3       010ENAUTA PART ON      NM   R$  000000000220900000000022220000000002163000000000218000000000021780000000002177000000000217807514000000000001414100000000003084095300000000000000009999123100000010000000000000BRENATACNOR0104
012024071802ENEV3       010ENEVA       ON      NM   R$  000000000130200000000013020000000001275000000000128300000000012830000000001283000000000128514219000000000004559300000000005851016000000000000000009999123100000010000000000000BRENEVACNOR8106
012024071802ENGI11      010ENERGISA    UNT     N2   R$  000000000475000000000047680000000004682000000000471800000000046990000000004696000000000470607894000000000001483700000000007000735400000000000000009999123100000010000000000000BRENGICDAM16135
012024071802ENGI3       010ENERGISA    ON      N2   R$  000000000149500000000015250000000001481000000000149700000000014870000000001487000000000150700045000000000000006400000000000009585900000000000000009999123100000010000000000000BRENGIACNOR0145
012024071802ENGI4       010ENERGISA    PN      N2   R$  000000000081200000000008120000000000800000000000080500000000008010000000000800000000000080800043000000000000010600000000000008541500000000000000009999123100000010000000000000BRENGIACNPR7141
012024071802ENJU3       010ENJOEI      ON      NM   R$  000000000020200000000002080000000000197000000000020100000000001980000000000198000000000019901981000000000001301700000000000262424200000000000000009999123100000010000000000000BRENJUACNOR9100
012024071802EPAR3       010EMBPAR S/A  ON           R$  000000000060800000000006110000000000595000000000060200000000005950000000000595000000000059900122000000000000048700000000000029362700000000000000009999123100000010000000000000BREPARACNOR9105
012024071802EQMA3B      010EQTLMARANHAOON      MB   R$  000000000254900000000025500000000002549000000000254900000000025500000000002526000000000255000003000000000000001300000000000003313800000000000000009999123100000010000000000000BREQMAACNOR8108
012024071802EQPA3       010EQTL PARA   ON           R$  000000000075000000000007500000000000741000000000074600000000007420000000000741000000000074200019000000000000004900000000000003658500000000000000009999123100000010000000000000BREQPAACNOR1111
012024071802EQTL3       010EQUATORIAL  ON      NM   R$  000000000333200000000033500000000003272000000000330600000000032800000000003279000000000328820345000000000007626100000000025214605700000000000000009999123100000010000000000000BREQTLACNOR0130
012024071802JHSF3       010JHSF PART   ON      NM   R$  000000000042300000000004230000000000408000000000041200000000004100000000000409000000000041007906000000000006166700000000002542346200000000000000009999123100000010000000000000BRJHSFACNOR2137
012024071802HAGA3       010HAGA S/A    ON           R$  000000000027600000000002900000000000262000000000027900000000002620000000000261000000000026700123000000000000029600000000000008279600000000000000009999123100000010000000000000BRHAGAACNOR7103
012024071802HAGA4       010HAGA S/A    PN           R$  000000000011800000000001180000000000116000000000011700000000001170000000000116000000000011700015000000000000005800000000000000681200000000000000009999123100000010000000000000BRHAGAACNPR4103
012024071802HAPV3       010HAPVIDA     ON      NM   R$  000000000040200000000004050000000000391000000000039700000000003940000000000393000000000039430171000000000053777000000000021379036400000000000000009999123100000010000000000000BRHAPVACNOR4114
012024071802PDGR3       010PDG REALT   ON      NM   R$  000000000001900000000000190000000000018000000000001800000000000190000000000018000000000001900223000000000000622300000000000011409400000000000000009999123100000010000000000000BRPDGRACNOR8118
012024071802PDTC3       010PADTEC      ON      NM   R$  000000000019200000000001940000000000188000000000019000000000001880000000000187000000000018800049000000000000026700000000000005087400000000000000009999123100000010000000000000BRPDTCACNOR3101
012024071802PETR3       010PETROBRAS   ON      N2   R$  000000000413600000000041800000000004130000000000415700000000041600000000004159000000000416019753000000000007096100000000029502485700000000000000009999123100000010000000000000BRPETRACNOR9205
012024071802PETR4       010PETROBRAS   PN      N2   R$  000000000385000000000038660000000003835000000000385000000000038530000000003852000000000385434130000000000021315500000000082073668600000000000000009999123100000010000000000000BRPETRACNPR6213
012024071802RCSL4       010RECRUSUL    PN           R$  000000000010800000000001090000000000105000000000010700000000001060000000000104000000000010600207000000000000207100000000000022174700000000000000009999123100000010000000000000BRRCSLACNPR1134
012024071802RDNI3       010RNI         ON      NM   R$  000000000031600000000003160000000000313000000000031400000000003140000000000313000000000031600008000000000000002400000000000000753900000000000000009999123100000010000000000000BRRDNIACNOR9116
012024071802RDOR3       010REDE D OR   ON      NM   R$  000000000291800000000029180000000002806000000000284000000000028340000000002834000000000284014275000000000005006100000000014218405500000000000000009999123100000010000000000000BRRDORACNOR8113
012024071802RECV3       010PETRORECSA  ON      NM   R$  000000000212100000000021270000000002066000000000208200000000020840000000002080000000000208508576000000000002112000000000004398526700000000000000009999123100000010000000000000BRRECVACNOR3107
012024071802REDE3       010REDE ENERGIAON           R$  000000000069900000000007010000000000693000000000069700000000006930000000000692000000000069900011000000000000001300000000000000906700000000000000009999123100000010000000000000BRREDEACNOR7128
012024071802SEER3       010SER EDUCA   ON      NM   R$  000000000057200000000005720000000000526000000000054000000000005300000000000530000000000053302076000000000000596200000000000322318800000000000000009999123100000010000000000000BRSEERACNOR5119
012024071802SEQL3       010SEQUOIA LOG ON      NM   R$  000000000048200000000004820000000000438000000000045700000000004380000000000438000000000043900581000000000000368800000000000168890400000000000000009999123100000010000000000000BRSEQLACNOR2103
012024071802SHOW3       010TIME FOR FUNON      NM   R$  000000000016400000000001670000000000161000000000016300000000001640000000000162000000000016400245000000000000055600000000000009069800000000000000009999123100000010000000000000BRSHOWACNOR7105
012024071802SHUL4       010SCHULZ      PN           R$  000000000068800000000006880000000000665000000000066900000000006650000000000664000000000066500892000000000000318000000000000212984100000000000000009999123100000010000000000000BRSHULACNPR4156
012024071802UNIP3       010UNIPAR      ON           R$  000000000511900000000051190000000005011000000000504700000000050120000000005019000000000507000031000000000000003200000000000016150500000000000000009999123100000010000000000000BRUNIPACNOR7206
012024071802UNIP6       010UNIPAR      PNB          R$  000000000516600000000051790000000005004000000000505300000000050440000000005041000000000504901692000000000000434600000000002196089100000000000000009999123100000010000000000000BRUNIPACNPB8206
012024071802USIM3       010USIMINAS    ON      N1   R$  000000000080200000000008110000000000779000000000079200000000007790000000000778000000000078002247000000000000552500000000000437789500000000000000009999123100000010000000000000BRUSIMACNOR3167
012024071802USIM5       010USIMINAS    PNA     N1   R$  000000000085500000000008700000000000837000000000084700000000008400000000000839000000000084117864000000000012097900000000010254319100000000000000009999123100000010000000000000BRUSIMACNPA6169
012024071802VITT3       010VITTIA      ON      NM   R$  000000000062200000000006230000000000594000000000060600000000005990000000000599000000000060101400000000000000284700000000000172669800000000000000009999123100000010000000000000BRVITTACNOR4107
012024071802VIVA3       010VIVARA S.A. ON      NM   R$  000000000237300000000023730000000002275000000000230300000000022850000000002285000000000229012574000000000003847900000000008862898200000000000000009999123100000010000000000000BRVIVAACNOR0107
012024071802VIVR3       010VIVER       ON      NM   R$  000000000024400000000002470000000000237000000000024100000000002410000000000238000000000024100079000000000000028400000000000006870300000000000000009999123100000010000000000000BRVIVRACNOR4123
012024071802VIVT3       010TELEF BRASILON           R$  000000000498700000000050100000000004930000000000495500000000049390000000004938000000000494007877000000000001646500000000008158489900000000000000009999123100000010000000000000BRVIVTACNOR0182
012024071802LAND3       010TERRASANTAPAON      NM   R$  000000000146600000000014660000000001419000000000144000000000014240000000001423000000000143300274000000000000033800000000000048673200000000000000009999123100000010000000000000BRLANDACNOR9103
012024071802LAVV3       010LAVVI       ON      NM   R$  000000000093600000000009360000000000911000000000091700000000009210000000000919000000000092103355000000000000566800000000000519902000000000000000009999123100000010000000000000BRLAVVACNOR4112
012024071802TTEN3       0103TENTOS     ON      NM   R$  000000000109000000000010910000000001074000000000108000000000010800000000001075000000000108005740000000000001844000000000001991998200000000000000009999123100000010000000000000BRTTENACNOR0103
012024071802TUPY3       010TUPY        ON      NM   R$  000000000265300000000026770000000002572000000000260100000000025790000000002579000000000259203714000000000000993900000000002585258600000000000000009999123100000010000000000000BRTUPYACNOR1184
012024071802UCAS3       010UNICASA     ON      NM   R$  000000000023900000000002390000000000225000000000023100000000002250000000000225000000000022900128000000000000043700000000000010100200000000000000009999123100000010000000000000BRUCASACNOR1113
012024071802UGPA3       010ULTRAPAR    ON      NM   R$  000000000229800000000023140000000002257000000000227900000000022570000000002255000000000226215831000000000003938300000000008978465000000000000000009999123100000010000000000000BRUGPAACNOR8155
012024071802VAMO3       010VAMOS       ON      NM   R$  000000000092200000000009220000000000865000000000088300000000008770000000000875000000000087721096000000000010123800000000008948419100000000000000009999123100000010000000000000BRVAMOACNOR7105
012024071802KRSA3       010KORA SAUDE  ON      NM   R$  000000000007000000000000720000000000069000000000007000000000000710000000000069000000000007100139000000000000421700000000000029761100000000000000009999123100000010000000000000BRKRSAACNOR0100
012024071802RADL3       010RAIADROGASILON      NM   R$  000000000253700000000025750000000002533000000000255900000000025660000000002565000000000256610197000000000004902100000000012546982900000000000000009999123100000010000000000000BRRADLACNOR0157
012024071802SIMH3       010SIMPAR      ON      NM   R$  000000000066800000000006730000000000630000000000064300000000006360000000000636000000000063808515000000000003688700000000002375067100000000000000009999123100000010000000000000BRSIMHACNOR0107
012024071802SLCE3       010SLC AGRICOLAON      NM   R$  000000000193700000000019370000000001908000000000192700000000019310000000001930000000000193207633000000000002825700000000005446688400000000000000009999123100000010000000000000BRSLCEACNOR2125
012024071802VLID3       010VALID       ON      NM   R$  000000000165300000000016690000000001608000000000163100000000016080000000001608000000000161603308000000000000450300000000000734519500000000000000009999123100000010000000000000BRVLIDACNOR5143
012024071802VSTE3       010VESTE       ON      NM   R$  000000000139100000000013940000000001380000000000138200000000013800000000001375000000000139100022000000000000003500000000000004839200000000000000009999123100000010000000000000BRVSTEACNOR5103
012024071802VTRU3       010VITRUEDUCA  ON      NM   R$  000000000131800000000013510000000001284000000000132200000000013270000000001318000000000132700762000000000000186900000000000247127400000000000000009999123100000010000000000000BRVTRUACNOR3100
012024071802VULC3       010VULCABRAS   ON      NM   R$  000000000158000000000015870000000001559000000000157400000000015800000000001574000000000158003651000000000000518400000000000816349600000000000000009999123100000010000000000000BRVULCACNOR2159
012024071802VVEO3       010VIVEO       ON      NM   R$  000000000023900000000002400000000000228000000000023300000000002320000000000231000000000023208644000000000003038100000000000708330400000000000000009999123100000010000000000000BRVVEOACNOR0104
012024071802SRNA3       010SERENA      ON      NM   R$  000000000091700000000009260000000000887000000000089600000000008920000000000890000000000089208429000000000002074400000000001859998100000000000000009999123100000010000000000000BRSRNAACNOR4100
012024071802STBP3       010SANTOS BRP  ON      NM   R$  000000000145000000000014610000000001420000000000144100000000014410000000001441000000000144222017000000000006428600000000009269362100000000000000009999123100000010000000000000BRSTBPACNOR3130
012024071802SUZB3       010SUZANO S.A. ON      NM   R$  000000000543200000000054660000000005368000000000540800000000053880000000005387000000000538818987000000000005815100000000031452103500000000000000009999123100000010000000000000BRSUZBACNOR0130
012024071802WEST3       010WESTWING    ON      NM   R$  000000000009300000000000930000000000085000000000008900000000000920000000000089000000000009200068000000000000069200000000000006205300000000000000009999123100000010000000000000BRWESTACNOR3100
012024071802WHRL4       010WHIRLPOOL   PN           R$  000000000045700000000004630000000000453000000000045700000000004540000000000454000000000045800011000000000000005700000000000002606700000000000000009999123100000010000000000000BRWHRLACNPR2128
012024071802WIZC3       010WIZ CO      ON      NM   R$  000000000060000000000006010000000000587000000000059200000000005880000000000588000000000059102232000000000000385200000000000228053500000000000000009999123100000010000000000000BRWIZCACNOR5102
012024071802WLMM4       010WLM IND COM PN           R$  000000000316000000000031600000000003160000000000316000000000031600000000003072000000000318000001000000000000000100000000000000316000000000000000009999123100000010000000000000BRWLMMACNPR3118
012024071802WEGE3       010WEG         ON      NM   R$  000000000469800000000047400000000004655000000000471700000000047400000000004738000000000474016647000000000007334900000000034600452000000000000000009999123100000010000000000000BRWEGEACNOR0223
012024071802LOGG3       010LOG COM PROPON      NM   R$  000000000236300000000023900000000002331000000000235300000000023490000000002349000000000235601786000000000000416900000000000981057900000000000000009999123100000010000000000000BRLOGGACNOR7107
012024071802LOGN3       010LOG-IN      ON      NM   R$  000000000410300000000041470000000004050000000000409100000000040760000000004056000000000413700150000000000000019400000000000079384100000000000000009999123100000010000000000000BRLOGNACNOR3105
012024071802LPSB3       010LOPES BRASILON      NM   R$  000000000019400000000001940000000000191000000000019300000000001920000000000191000000000019400111000000000000035300000000000006814400000000000000009999123100000010000000000000BRLPSBACNOR0114
012024071802LREN3       010LOJAS RENNERON      NM   R$  000000000136500000000013650000000001297000000000131600000000013160000000001315000000000131717215000000000012130000000000015972359500000000000000009999123100000010000000000000BRLRENACNOR1221
012024071802MRSA3B      010MRS LOGIST  ON      MB   R$  000000000265700000000026570000000002657000000000266200000000026570000000002699000000000290000006000000000000000800000000000002129800000000000000009999123100000010000000000000BRMRSAACNOR6125
012024071802MRSA5B      010MRS LOGIST  PNA     MB   R$  000000000270000000000027000000000002656000000000267000000000026560000000002606000000000000000002000000000000000300000000000000801200000000000000009999123100000010000000000000BRMRSAACNPA9125
012024071802MRSA6B      010MRS LOGIST  PNB     MB   R$  000000000265600000000026560000000002656000000000265600000000026560000000002606000000000000000001000000000000000200000000000000531200000000000000009999123100000010000000000000BRMRSAACNPB7125
012024071802MRVE3       010MRV         ON      NM   R$  000000000069400000000006950000000000671000000000067900000000006760000000000675000000000067714167000000000011092000000000007542421800000000000000009999123100000010000000000000BRMRVEACNOR2127
012024071802PRNR3       010PRINER      ON      NM   R$  000000000108000000000010800000000001055000000000105900000000010580000000001057000000000105800851000000000000271300000000000287486500000000000000009999123100000010000000000000BRPRNRACNOR4109
012024071802PSSA3       010PORTO SEGUROON      NM   R$  000000000310000000000031030000000003067000000000308800000000030930000000003087000000000309308453000000000002444800000000007551448000000000000000009999123100000010000000000000BRPSSAACNOR7155
012024071802LVTC3       010WDC NETWORKSON      NM   R$  000000000037200000000003780000000000368000000000037100000000003680000000000368000000000037100026000000000000004900000000000001819600000000000000009999123100000010000000000000BRLVTCACNOR4102
012024071802LWSA3       010LWSA        ON      NM   R$  000000000045700000000004580000000000438000000000044400000000004450000000000442000000000044513995000000000007625500000000003388498100000000000000009999123100000010000000000000BRLWSAACNOR8103
012024071802MTRE3       010MITRE REALTYON      NM   R$  000000000042900000000004290000000000400000000000040900000000004000000000000400000000000040203236000000000001307300000000000534767600000000000000009999123100000010000000000000BRMTREACNOR6112
012024071802MTSA4       010METISA      PN           R$  000000000436900000000043970000000004369000000000438000000000043970000000004310000000000440000009000000000000001300000000000005695100000000000000009999123100000010000000000000BRMTSAACNPR9072
012024071802MULT3       010MULTIPLAN   ON      N2   R$  000000000250700000000025080000000002438000000000246000000000024380000000002436000000000244612819000000000003824500000000009409537200000000000000009999123100000010000000000000BRMULTACNOR5139
012024071802MYPK3       010IOCHP-MAXIONON      NM   R$  000000000124500000000012450000000001187000000000120100000000011950000000001195000000000119705036000000000001219100000000001464947600000000000000009999123100000010000000000000BRMYPKACNOR7155
012024071802CRFB3       010CARREFOUR BRON      NM   R$  000000000107600000000010900000000001022000000000104300000000010240000000001023000000000102714614000000000009552900000000009969593000000000000000009999123100000010000000000000BRCRFBACNOR2116
012024071802CRPG5       010CRISTAL     PNA          R$  000000000299900000000029990000000002920000000000295100000000029520000000002951000000000296600023000000000000002800000000000008265200000000000000009999123100000010000000000000BRCRPGACNPA3119
012024071802CSAN3       010COSAN       ON      NM   R$  000000000142800000000014330000000001381000000000139700000000013880000000001388000000000138918196000000000008296800000000011590737100000000000000009999123100000010000000000000BRCSANACNOR6126
012024071802EKTR4       010ELEKTRO     PN           R$  000000000395500000000039550000000003950000000000395400000000039500000000003904000000000395500012000000000000002200000000000008700500000000000000009999123100000010000000000000BREKTRACNPR7163
012024071802ELET3       010ELETROBRAS  ON      N1   R$  000000000386100000000038770000000003749000000000379100000000037610000000003761000000000376628528000000000008949600000000033929851600000000000000009999123100000010000000000000BRELETACNOR6160
012024071802ELET6       010ELETROBRAS  PNB     N1   R$  000000000432000000000043280000000004201000000000423800000000042260000000004226000000000422905176000000000001409800000000005976138400000000000000009999123100000010000000000000BRELETACNPB7077
012024071802GGPS3       010GPS         ON      NM   R$  000000000173300000000017330000000001691000000000170100000000016980000000001693000000000169909252000000000002466100000000004195668200000000000000009999123100000010000000000000BRGGPSACNOR9103
012024071802GMAT3       010GRUPO MATEUSON      NM   R$  000000000074100000000007410000000000706000000000071500000000007160000000000716000000000071709124000000000006983000000000004993359100000000000000009999123100000010000000000000BRGMATACNOR7102
012024071802GOAU3       010GERDAU MET  ON      N1   R$  000000000111100000000011220000000001102000000000111200000000011150000000001102000000000111500164000000000000045900000000000051058300000000000000009999123100000010000000000000BRGOAUACNOR1267
012024071802GOAU4       010GERDAU MET  PN      N1   R$  000000000111200000000011150000000001093000000000110100000000010990000000001098000000000110012574000000000006357000000000007001193600000000000000009999123100000010000000000000BRGOAUACNPR8268
012024071802NEOE3       010NEOENERGIA  ON      NM   R$  000000000190400000000019050000000001871000000000188100000000018710000000001870000000000187102719000000000000576700000000001084870900000000000000009999123100000010000000000000BRNEOEACNOR3123
012024071802QUAL3       010QUALICORP   ON      NM   R$  000000000018200000000001820000000000163000000000016800000000001640000000000163000000000016405188000000000005315400000000000894177700000000000000009999123100000010000000000000BRQUALACNOR6120
012024071802B3SA3       010B3          ON      NM   R$  000000000114200000000011510000000001113000000000113000000000011170000000001116000000000111843620000000000046897800000000052997804000000000000000009999123100000010000000000000BRB3SAACNOR6133
012024071802CEBR3       010CEB         ON           R$  000000000212100000000021210000000002088000000000211000000000021000000000002088000000000214900017000000000000002600000000000005488300000000000000009999123100000010000000000000BRCEBRACNOR5125
012024071802CEBR5       010CEB         PNA          R$  000000000180800000000018080000000001802000000000180600000000018080000000001802000000000180800011000000000000001500000000000002709800000000000000009999123100000010000000000000BRCEBRACNPA8124
012024071802CEBR6       010CEB         PNB          R$  000000000194400000000019810000000001928000000000195000000000019550000000001950000000000195500035000000000000006200000000000012095300000000000000009999123100000010000000000000BRCEBRACNPB6124
012024071802CEEB3       010COELBA      ON           R$  000000000404300000000040430000000004040000000000404000000000040400000000004040000000000417900005000000000000000600000000000002424500000000000000009999123100000010000000000000BRCEEBACNOR3199
012024071802CGAS3       010COMGAS      ON           R$  000000001050100000000105010000000010501000000001050100000000105010000000010600000000001100000001000000000000000100000000000001050100000000000000009999123100000010000000000000BRCGASACNOR0163
012024071802CGAS5       010COMGAS      PNA          R$  000000001150000000000116500000000011500000000001157500000000116500000000011351000000001166000002000000000000000200000000000002315000000000000000009999123100000010000000000000BRCGASACNPA3160
012024071802CGRA3       010GRAZZIOTIN  ON           R$  000000000251200000000025120000000002496000000000250200000000024960000000002495000000000251500006000000000000000700000000000001752000000000000000009999123100000010000000000000BRCGRAACNOR2083
012024071802CGRA4       010GRAZZIOTIN  PN           R$  000000000258400000000025920000000002551000000000257300000000025510000000002536000000000257500015000000000000001700000000000004375500000000000000009999123100000010000000000000BRCGRAACNPR9083
012024071802PTBL3       010PORTOBELLO  ON      NM   R$  000000000049700000000004970000000000472000000000048100000000004760000000000476000000000047802385000000000000697900000000000336383900000000000000009999123100000010000000000000BRPTBLACNOR8132
012024071802PTNT3       010PETTENATI   ON           R$  000000000096700000000009670000000000954000000000096000000000009540000000000953000000000096700002000000000000000200000000000000192100000000000000009999123100000010000000000000BRPTNTACNOR6042
012024071802PTNT4       010PETTENATI   PN           R$  000000000064000000000006420000000000640000000000064000000000006420000000000610000000000064000004000000000000000600000000000000384200000000000000009999123100000010000000000000BRPTNTACNPR3047
012024071802SCAR3       010SAO CARLOS  ON      NM   R$  000000000222000000000022540000000002220000000000223900000000022540000000002212000000000225400021000000000000002800000000000006271900000000000000009999123100000010000000000000BRSCARACNOR7131
012024071802CAMB3       010CAMBUCI     ON           R$  000000000116000000000011600000000001111000000000112500000000011290000000001112000000000112900092000000000000026600000000000029945800000000000000009999123100000010000000000000BRCAMBACNOR4130
012024071802CAML3       010CAMIL       ON      NM   R$  000000000090200000000009060000000000866000000000088100000000008870000000000882000000000088706178000000000000848000000000000747666800000000000000009999123100000010000000000000BRCAMLACNOR3128
012024071802DASA3       010DASA        ON      NM   R$  000000000037100000000003740000000000346000000000035600000000003490000000000348000000000034903337000000000001086700000000000387033400000000000000009999123100000010000000000000BRDASAACNOR1122
012024071802DESK3       010DESKTOP     ON      NM   R$  000000000155900000000015850000000001534000000000155900000000015650000000001543000000000156500823000000000000266800000000000416009200000000000000009999123100000010000000000000BRDESKACNOR2104
012024071802DEXP3       010DEXXOS PAR  ON      N1   R$  000000000104300000000010470000000001010000000000102800000000010140000000001014000000000101600292000000000000066700000000000068586200000000000000009999123100000010000000000000BRDEXPACNOR1105
012024071802DEXP4       010DEXXOS PAR  PN      N1   R$  000000000102400000000010240000000001020000000000102000000000010200000000001015000000000102000008000000000000004000000000000004080900000000000000009999123100000010000000000000BRDEXPACNPR8105
012024071802DIRR3       010DIRECIONAL  ON      NM   R$  000000000281200000000028120000000002754000000000278800000000028010000000002799000000000280113241000000000003188700000000008891797100000000000000009999123100000010000000000000BRDIRRACNOR0118
012024071802DMVF3       010D1000VFARMA ON      NM   R$  000000000076400000000007920000000000764000000000077900000000007870000000000783000000000078700363000000000000079100000000000061672600000000000000009999123100000010000000000000BRDMVFACNOR9100
012024071802DOHL4       010DOHLER      PN           R$  000000000040000000000004190000000000396000000000040200000000004140000000000395000000000041400018000000000000008600000000000003463000000000000000009999123100000010000000000000BRDOHLACNPR9066
012024071802DOTZ3       010DOTZ SA     ON      NM   R$  000000000065400000000006680000000000641000000000065800000000006410000000000641000000000066700047000000000000014500000000000009542200000000000000009999123100000010000000000000BRDOTZACNOR7101
012024071802DXCO3       010DEXCO       ON      NM   R$  000000000068600000000006920000000000675000000000068100000000006800000000000680000000000068309287000000000004369600000000002977696700000000000000009999123100000010000000000000BRDXCOACNOR8105
012024071802MATD3       010MATER DEI   ON      NM   R$  000000000049000000000004920000000000460000000000046900000000004640000000000464000000000046502052000000000000637000000000000298781800000000000000009999123100000010000000000000BRMATDACNOR4104
012024071802MBLY3       010MOBLY       ON      NM   R$  000000000026300000000002690000000000254000000000025900000000002620000000000256000000000026200991000000000000459900000000000119299400000000000000009999123100000010000000000000BRMBLYACNOR5100
012024071802MDIA3       010M.DIASBRANCOON      NM   R$  000000000287300000000028930000000002835000000000287200000000028810000000002879000000000288404410000000000001221900000000003509900800000000000000009999123100000010000000000000BRMDIAACNOR7135
012024071802MDNE3       010MOURA DUBEUXON      NM   R$  000000000136500000000013720000000001304000000000132000000000013220000000001322000000000132302906000000000000551300000000000728160900000000000000009999123100000010000000000000BRMDNEACNOR9100
012024071802FRAS3       010FRAS-LE     ON      N1   R$  000000000206100000000020610000000002022000000000203300000000020350000000002035000000000203602382000000000000488700000000000993539300000000000000009999123100000010000000000000BRFRASACNOR0159
012024071802INEP3       010INEPAR      ON           R$  000000000018800000000001880000000000181000000000018200000000001850000000000182000000000018500116000000000000079700000000000014563800000000000000009999123100000010000000000000BRINEPACNOR1143
012024071802INEP4       010INEPAR      PN           R$  000000000018100000000001880000000000175000000000018300000000001800000000000179000000000018000078000000000000041600000000000007638300000000000000009999123100000010000000000000BRINEPACNPR8143
012024071802INTB3       010INTELBRAS   ON      NM   R$  000000000223800000000022420000000002187000000000220200000000021880000000002187000000000220006627000000000002468800000000005436924700000000000000009999123100000010000000000000BRINTBACNOR9111
012024071802IRBR3       010IRBBRASIL REON      NM   R$  000000000320500000000032370000000003140000000000318200000000031400000000003140000000000314303506000000000000758600000000002414479500000000000000009999123100000010000000000000BRIRBRACNOR4111
012024071802AGRO3       010BRASILAGRO  ON      NM   R$  000000000279800000000028000000000002733000000000276400000000027790000000002772000000000277902015000000000000384300000000001062382600000000000000009999123100000010000000000000BRAGROACNOR7114
012024071802AGXY3       010AGROGALAXY  ON      NM   R$  000000000014800000000001500000000000142000000000014400000000001430000000000143000000000014500392000000000000288700000000000041731000000000000000009999123100000010000000000000BRAGXYACNOR4103
012024071802ALLD3       010ALLIED      ON      NM   R$  000000000085000000000008500000000000819000000000083200000000008390000000000836000000000083900295000000000000068900000000000057381700000000000000009999123100000010000000000000BRALLDACNOR3106
012024071802ALOS3       010ALLOS       ON      NM   R$  000000000220900000000022300000000002153000000000217600000000021680000000002168000000000217219417000000000005024400000000010937257700000000000000009999123100000010000000000000BRALOSACNOR5101
012024071802ALPA3       010ALPARGATAS  ON      N1   R$  000000000091000000000009100000000000892000000000090400000000008920000000000891000000000091300016000000000000004800000000000004340800000000000000009999123100000010000000000000BRALPAACNOR0231
012024071802ALPA4       010ALPARGATAS  PN      N1   R$  000000000092400000000009260000000000890000000000090000000000008910000000000891000000000089307461000000000002341500000000002109651500000000000000009999123100000010000000000000BRALPAACNPR7232
012024071802ALPK3       010ESTAPAR     ON      NM   R$  000000000034200000000003460000000000327000000000033100000000003330000000000329000000000033300551000000000000141300000000000046909600000000000000009999123100000010000000000000BRALPKACNOR9101
012024071802ALUP11      010ALUPAR      UNT     N2   R$  000000000314000000000031530000000003116000000000313100000000031350000000003130000000000313505259000000000000825000000000002583361000000000000000009999123100000010000000000000BRALUPCDAM15119
012024071802ALUP3       010ALUPAR      ON      N2   R$  000000000106100000000010660000000001057000000000106200000000010650000000001060000000000106600014000000000000002200000000000002337200000000000000009999123100000010000000000000BRALUPACNOR8119
012024071802ALUP4       010ALUPAR      PN      N2   R$  000000000102900000000010390000000001029000000000103100000000010300000000001030000000000103500030000000000000004600000000000004746600000000000000009999123100000010000000000000BRALUPACNPR5119
012024071802AMAR3       010LOJAS MARISAON      NM   R$  000000000014500000000001450000000000143000000000014300000000001440000000000143000000000014400489000000000000236200000000000033944000000000000000009999123100000010000000000000BRAMARACNOR4115
012024071802BIOM3       010BIOMM       ON      MA   R$  000000000128200000000012820000000001224000000000124500000000012400000000001240000000000124100262000000000000044100000000000054925800000000000000009999123100000010000000000000BRBIOMACNOR2112
012024071802BRBI11      010BR PARTNERS UNT     N2   R$  000000000147100000000014850000000001447000000000146400000000014540000000001450000000000145701253000000000000239900000000000351294900000000000000009999123100000010000000000000BRBRBICDAM10109
012024071802BRFS3       010BRF SA      ON      NM   R$  000000000218500000000021880000000002074000000000210900000000020810000000002081000000000208428691000000000015005900000000031648183100000000000000009999123100000010000000000000BRBRFSACNOR8122
012024071802CXSE3       010CAIXA SEGURION      NM   R$  000000000147600000000015040000000001471000000000149000000000014900000000001488000000000149011548000000000003550500000000005291397600000000000000009999123100000010000000000000BRCXSEACNOR7106
012024071802CYRE3       010CYRELA REALTON      NM   R$  000000000205300000000020590000000001969000000000199800000000019850000000001984000000000198919831000000000007914000000000015814830100000000000000009999123100000010000000000000BRCYREACNOR7140
012024071802ESPA3       010ESPACOLASER ON      NM   R$  000000000010600000000001060000000000103000000000010400000000001040000000000104000000000010500662000000000000654300000000000068093300000000000000009999123100000010000000000000BRESPAACNOR7103
012024071802ESTR4       010ESTRELA     PN           R$  000000000018900000000001910000000000189000000000019000000000001910000000000189000000000019700003000000000000000400000000000000076000000000000000009999123100000010000000000000BRESTRACNPR0144
012024071802EUCA3       010EUCATEX     ON      N1   R$  000000000172000000000017200000000001605000000000163200000000016490000000001643000000000172800011000000000000002000000000000003264900000000000000009999123100000010000000000000BREUCAACNOR1157
012024071802EUCA4       010EUCATEX     PN      N1   R$  000000000164400000000016440000000001604000000000161900000000016210000000001620000000000162100293000000000000039900000000000064613100000000000000009999123100000010000000000000BREUCAACNPR8044
012024071802EVEN3       010EVEN        ON      NM   R$  000000000066000000000006600000000000626000000000063300000000006340000000000632000000000063505969000000000000912000000000000577502800000000000000009999123100000010000000000000BREVENACNOR8119
012024071802EZTC3       010EZTEC       ON      NM   R$  000000000145000000000014700000000001424000000000144600000000014300000000001430000000000143608530000000000002164900000000003130639400000000000000009999123100000010000000000000BREZTCACNOR0125
012024071802IFCM3       010INFRACOMM   ON      NM   R$  000000000003700000000000380000000000035000000000003500000000000350000000000035000000000003608560000000000007260900000000000260023700000000000000009999123100000010000000000000BRIFCMACNOR8101
012024071802IGTI11      010IGUATEMI S.AUNT     N1   R$  000000000216000000000021600000000002115000000000213000000000021400000000002139000000000214312824000000000002656500000000005658346600000000000000009999123100000010000000000000BRIGTICDAM16106
012024071802IGTI3       010IGUATEMI S.AON      N1   R$  000000000027700000000002770000000000266000000000026800000000002690000000000266000000000026900087000000000000021300000000000005715800000000000000009999123100000010000000000000BRIGTIACNOR8106
012024071802JSLG3       010JSL         ON      NM   R$  000000000102500000000010330000000000961000000000098500000000009710000000000971000000000097302010000000000000909300000000000896443900000000000000009999123100000010000000000000BRJSLGACNOR2121
012024071802AALR3       010ALLIAR      ON      NM   R$  000000000125200000000012840000000001235000000000125900000000012410000000001234000000000124200278000000000000051000000000000064259000000000000000009999123100000010000000000000BRAALRACNOR6102
012024071802ABCB4       010ABC BRASIL  PN      N2   R$  000000000229400000000022940000000002253000000000226700000000022590000000002259000000000226002744000000000000430600000000000976352900000000000000009999123100000010000000000000BRABCBACNPR4146
012024071802ABEV3       010AMBEV S/A   ON  ATZ      R$  000000000117600000000011860000000001164000000000117200000000011670000000001167000000000116821877000000000030271600000000035488324400000000000000009999123100000010000000000000BRABEVACNOR1128
012024071802BAHI3       010BAHEMA      ON      MA   R$  000000000063500000000006350000000000601000000000062200000000006200000000000615000000000064300035000000000000012400000000000007715000000000000000009999123100000010000000000000BRBAHIACNOR1074
012024071802BEEF3       010MINERVA     ON      NM   R$  000000000068900000000006890000000000657000000000066700000000006590000000000658000000000065910122000000000008798800000000005877139000000000000000009999123100000010000000000000BRBEEFACNOR6116
012024071802BPAC3       010BTGP BANCO  ON      N2   R$  000000000155600000000015560000000001517000000000153300000000015290000000001517000000000153900032000000000000003700000000000005673600000000000000009999123100000010000000000000BRBPACACNOR7134
012024071802BPAC5       010BTGP BANCO  PNA     N2   R$  000000000083200000000008330000000000814000000000082100000000008190000000000819000000000082400032000000000000005800000000000004766800000000000000009999123100000010000000000000BRBPACACNPA0134
012024071802BPAN4       010BANCO PAN   PN      N1   R$  000000000088300000000008840000000000858000000000086500000000008620000000000861000000000086306701000000000003355200000000002904943600000000000000009999123100000010000000000000BRBPANACNPR1115
012024071802ELMD3       010ELETROMIDIA ON      NM   R$  000000000188700000000018870000000001806000000000182900000000018220000000001820000000000182200486000000000000123600000000000226113000000000000000009999123100000010000000000000BRELMDACNOR3101
012024071802EMAE4       010EMAE        PN           R$  000000000496500000000050390000000004965000000000497900000000050320000000004800000000000503200006000000000000001000000000000004979100000000000000009999123100000010000000000000BREMAEACNPR1125
012024071802EMBR3       010EMBRAER     ON      NM   R$  000000000404900000000041050000000004039000000000407600000000041050000000004102000000000410518826000000000004813600000000019624188800000000000000009999123100000010000000000000BREMBRACNOR4191
012024071802HBOR3       010HELBOR      ON      NM   R$  000000000023600000000002370000000000224000000000022800000000002270000000000227000000000022800446000000000000418800000000000095510900000000000000009999123100000010000000000000BRHBORACNOR3118
012024071802HBRE3       010HBR REALTY  ON      NM   R$  000000000057400000000005740000000000552000000000055900000000005650000000000564000000000056501023000000000000483300000000000270564500000000000000009999123100000010000000000000BRHBREACNOR4100
012024071802HBSA3       010HIDROVIAS   ON      NM   R$  000000000039400000000003940000000000381000000000038700000000003880000000000380000000000038810957000000000009838400000000003809762900000000000000009999123100000010000000000000BRHBSAACNOR0100
012024071802HBTS5       010HABITASUL   PNA          R$  000000000409600000000040960000000004096000000000409600000000040960000000003899000000000409600001000000000000000100000000000000409600000000000000009999123100000010000000000000BRHBTSACNPA3128
012024071802HYPE3       010HYPERA      ON      NM   R$  000000000287300000000028830000000002815000000000284300000000028170000000002816000000000281807159000000000002020900000000005745472100000000000000009999123100000010000000000000BRHYPEACNOR0142
012024071802JALL3       010JALLESMACHADON      NM   R$  000000000075900000000007620000000000742000000000075000000000007500000000000746000000000075001683000000000000358800000000000269292000000000000000009999123100000010000000000000BRJALLACNOR0105
012024071802JBSS3       010JBS         ON      NM   R$  000000000320700000000032210000000003093000000000313800000000031450000000003145000000000315017948000000000006222600000000019527263100000000000000009999123100000010000000000000BRJBSSACNOR8121
012024071802BBSE3       010BBSEGURIDADEON      NM   R$  000000000344500000000034750000000003437000000000345000000000034380000000003437000000000344011652000000000002750600000000009489613100000000000000009999123100000010000000000000BRBBSEACNOR5124
012024071802BPAC11      010BTGP BANCO  UNT     N2   R$  000000000322000000000032490000000003155000000000317800000000031680000000003167000000000316814949000000000007159700000000022755914900000000000000009999123100000010000000000000BRBPACUNT006119
012024071802CMIN3       010CSNMINERACAOON      N2   R$  000000000053900000000005400000000000520000000000052700000000005210000000000521000000000052211101000000000006310000000000003329016500000000000000009999123100000010000000000000BRCMINACNOR2111
012024071802CSED3       010CRUZEIRO EDUON      NM   R$  000000000042000000000004200000000000388000000000039600000000003960000000000392000000000039701087000000000000321100000000000127163400000000000000009999123100000010000000000000BRCSEDACNOR9104
012024071802CSMG3       010COPASA      ON      NM   R$  000000000206700000000020670000000002020000000000203700000000020340000000002033000000000203405616000000000001267100000000002581677600000000000000009999123100000010000000000000BRCSMGACNOR5174
012024071802CSNA3       010SID NACIONALON           R$  000000000130800000000013140000000001263000000000128100000000012640000000001264000000000126512032000000000005818800000000007459430100000000000000009999123100000010000000000000BRCSNAACNOR6261
012024071802GUAR3       010GUARARAPES  ON      NM   R$  000000000077600000000007760000000000710000000000072700000000007140000000000713000000000071507117000000000002412900000000001756511900000000000000009999123100000010000000000000BRGUARACNOR4173
012024071802MEAL3       010IMC S/A     ON      NM   R$  000000000015100000000001510000000000145000000000014700000000001460000000000145000000000014600327000000000000598300000000000088167700000000000000009999123100000010000000000000BRMEALACNOR9105
012024071802MELK3       010MELNICK     ON      NM   R$  000000000037000000000003730000000000365000000000036800000000003650000000000365000000000036700609000000000000207000000000000076242000000000000000009999123100000010000000000000BRMELKACNOR8111
012024071802MERC4       010MERC FINANC PN           R$  000000000090000000000009000000000000900000000000090000000000009000000000000900000000000093000002000000000000000200000000000000180000000000000000009999123100000010000000000000BRMERCACNPR9180
012024071802MGEL4       010MANGELS INDLPN           R$  000000000132200000000013220000000001322000000000131900000000013220000000001316000000000138900002000000000000000200000000000000263800000000000000009999123100000010000000000000BRMGELACNPR3147
012024071802MGLU3       010MAGAZ LUIZA ON      NM   R$  000000000135000000000013570000000001257000000000129300000000012670000000001266000000000126728029000000000026549000000000034340972400000000000000009999123100000010000000000000BRMGLUACNOR2124
012024071802NGRD3       010NEOGRID     ON      NM   R$  000000000011300000000001180000000000108000000000011200000000001120000000000111000000000011202426000000000002495200000000000279834700000000000000009999123100000010000000000000BRNGRDACNOR3104
012024071802NINJ3       010GETNINJAS   ON      NM   R$  000000000045900000000004660000000000451000000000045900000000004580000000000458000000000046700077000000000000022800000000000010477100000000000000009999123100000010000000000000BRNINJACNOR5101
012024071802NORD3       010NORDON MET  ON           R$  000000000057500000000005750000000000570000000000057100000000005700000000000540000000000062000002000000000000000300000000000000171500000000000000009999123100000010000000000000BRNORDACNOR7135
012024071802NTCO3       010GRUPO NATURAON      NM   R$  000000000157300000000015800000000001514000000000153800000000015140000000001514000000000151914223000000000006587800000000010132155300000000000000009999123100000010000000000000BRNTCOACNOR5106
012024071802RAIL3       010RUMO S.A.   ON      NM   R$  000000000227000000000022770000000002240000000000225700000000022650000000002263000000000226625430000000000009993000000000022557867400000000000000009999123100000010000000000000BRRAILACNOR9105
012024071802RAIZ4       010RAIZEN      PN      N2   R$  000000000031800000000003180000000000311000000000031300000000003120000000000311000000000031214133000000000013601300000000004264597200000000000000009999123100000010000000000000BRRAIZACNPR6110
012024071802SMFT3       010SMART FIT   ON      NM   R$  000000000228100000000022860000000002215000000000223700000000022300000000002220000000000223111729000000000002102700000000004705150600000000000000009999123100000010000000000000BRSMFTACNOR1112
012024071802SMTO3       010SAO MARTINHOON      NM   R$  000000000320300000000032430000000003192000000000321900000000032200000000003210000000000322009191000000000001923800000000006194626900000000000000009999123100000010000000000000BRSMTOACNOR3126
012024071802SNSY3       010SANSUY      ON           R$  000000000124700000000013090000000001230000000000127000000000012690000000001220000000000126500024000000000000004700000000000005969200000000000000009999123100000010000000000000BRSNSYACNOR2113
012024071802SNSY5       010SANSUY      PNA          R$  000000000059400000000005940000000000570000000000058300000000005860000000000569000000000058600011000000000000002600000000000001518100000000000000009999123100000010000000000000BRSNSYACNPA5111
012024071802SOJA3       010BOA SAFRA   ON      NM   R$  000000000155100000000015510000000001517000000000152600000000015270000000001520000000000152701284000000000000575900000000000878988500000000000000009999123100000010000000000000BRSOJAACNOR9105
012024071802SOMA3       010GRUPO SOMA  ON      NM   R$  000000000063900000000006400000000000621000000000062800000000006300000000000629000000000063015852000000000006639200000000004170824600000000000000009999123100000010000000000000BRSOMAACNOR3102
012024071807NUTR3       010NUTRIPLANT  ON      MA   R$  000000000046700000000004770000000000443000000000045600000000004430000000000442000000000046800030000000000000009000000000000004106100000000000000009999123100000010000000000000BRNUTRACNOR0104
012024071808RNEW3       010RENOVA      ON      N2   R$  000000000009300000000000950000000000090000000000009100000000000900000000000089000000000009000159000000000000140100000000000012823800000000000000009999123100000010000000000000BRRNEWACNOR8110
012024071808RNEW4       010RENOVA      PN      N2   R$  000000000009300000000000940000000000085000000000008800000000000890000000000088000000000008900266000000000000272700000000000024160100000000000000009999123100000010000000000000BRRNEWACNPR5110
012024071808RPMG3       010PET MANGUINHON           R$  000000000030900000000003170000000000296000000000030500000000003070000000000300000000000030700146000000000000040200000000000012272000000000000000009999123100000010000000000000BRRPMGACNOR9194
012024071808RSID3       010ROSSI RESID ON      NM   R$  000000000044500000000004540000000000443000000000044700000000004500000000000441000000000045000024000000000000003900000000000001744100000000000000009999123100000010000000000000BRRSIDACNOR8120
012024071808OIBR3       010OI          ON      N1   R$  000000000050000000000005020000000000454000000000047300000000004640000000000463000000000046404281000000000003036000000000001439002900000000000000009999123100000010000000000000BROIBRACNOR1111
012024071808OIBR4       010OI          PN      N1   R$  000000000140100000000014150000000001304000000000135500000000013400000000001320000000000134500142000000000000040200000000000054497800000000000000009999123100000010000000000000BROIBRACNPR8110
012024071808OSXB3       010OSX BRASIL  ON      NM   R$  000000000038800000000003920000000000380000000000038300000000003800000000000379000000000038800021000000000000005700000000000002185400000000000000009999123100000010000000000000BROSXBACNOR8109
012024071808RNEW11      010RENOVA      UNT     N2   R$  000000000027900000000002850000000000270000000000027100000000002700000000000270000000000027200108000000000000030400000000000008241500000000000000009999123100000010000000000000BRRNEWCDAM15110
012024071808LIGT3       010LIGHT S/A   ON      NM   R$  000000000048900000000004920000000000480000000000048200000000004800000000000480000000000048101712000000000000598100000000000288514500000000000000009999123100000010000000000000BRLIGTACNOR2124
012024071808ATMP3       010ATMASA      ON           R$  000000000019300000000001990000000000193000000000019300000000001990000000000194000000000019900004000000000000000700000000000000135700000000000000009999123100000010000000000000BRATMPACNOR8100
012024071808AMER3       010AMERICANAS  ON      NM   R$  000000000007800000000000800000000000074000000000007600000000000750000000000075000000000007604608000000000034448600000000002631086000000000000000009999123100000010000000000000BRAMERACNOR6102
012024071808PMAM3       010PARANAPANEMAON      NM   R$  000000000024500000000002500000000000239000000000024300000000002400000000000240000000000024100126000000000000059100000000000014411100000000000000009999123100000010000000000000BRPMAMACNOR3039
012024071808CTNM4       010COTEMINAS   PN           R$  000000000009300000000000930000000000093000000000009300000000000930000000000093000000000009400018000000000000014100000000000001311300000000000000009999123100000010000000000000BRCTNMACNPR6129
012024071808CTSA3       010SANTANENSE  ON           R$  000000000024200000000002420000000000236000000000023800000000002360000000000235000000000023600008000000000000000900000000000000214800000000000000009999123100000010000000000000BRCTSAACNOR3062
012024071808CTSA4       010SANTANENSE  PN           R$  000000000010400000000001070000000000103000000000010400000000001050000000000103000000000010500042000000000000010700000000000001113200000000000000009999123100000010000000000000BRCTSAACNPR0062
012024071808JFEN3       010JOAO FORTES ON           R$  000000000002200000000000230000000000019000000000002000000000000200000000000019000000000002001334000000000005087100000000000102276300000000000000009999123100000010000000000000BRJFENACNOR0059
012024071808SGPS3       010SPRINGS     ON      NM   R$  000000000023300000000002330000000000233000000000023300000000002330000000000233000000000023500026000000000000019300000000000004496900000000000000009999123100000010000000000000BRSGPSACNOR4105
012024071808ETER3       010ETERNIT     ON      NM   R$  000000000062600000000006260000000000596000000000060500000000005960000000000596000000000060000578000000000000192600000000000116710300000000000000009999123100000010000000000000BRETERACNOR3243
012024071808HOOT4       010HOTEIS OTHONPN           R$  000000000024500000000002450000000000244000000000024400000000002440000000000231000000000025900006000000000000001500000000000000367100000000000000009999123100000010000000000000BRHOOTACNPR9015
012024071808NEXP3       010NEXPE       ON           R$  000000000042200000000004220000000000413000000000041700000000004130000000000413000000000042000003000000000000000300000000000000125300000000000000009999123100000010000000000000BRNEXPACNOR0101
012024071810RENT1       010LOCALIZA    DIR ORD NM   R$  000000000121100000000012110000000001006000000000105400000000010940000000001040000000000109400598000000000000097100000000000102414900000000000000009999123100000010000000000000BRRENTD06OR8195
012024071810EQTL9       010EQUATORIAL  ON  REC NM   R$  000000000327500000000032800000000003275000000000327700000000032800000000002715000000000349900002000000000000000200000000000000655500000000000000009999123100000010000000000000BREQTLR03OR1129
012024071812RNGO11      010FII RIONEGROCI           R$  000000000467000000000046800000000004641000000000465600000000046500000000004650000000000466100136000000000000001256000000000005848666000000000000009999123100000010000000000000BRRNGOCTF003244
012024071812RPRI11      010FII RBR PR  CI           R$  000000000937500000000093880000000009310000000000936100000000093390000000009340000000000934400219000000000000003571000000000033429282000000000000009999123100000010000000000000BRRPRICTF007129
012024071812RRCI11      010FII RBCAP RICI           R$  000000000772900000000077290000000007679000000000768100000000076790000000007679000000000769900409000000000000000465000000000003572088000000000000009999123100000010000000000000BRRRCICTF005143
012024071812RVBI11      010FII VBI REITCI  ER       R$  000000000738200000000074020000000007363000000000737600000000073750000000007362000000000737500790000000000000013146000000000096974108000000000000009999123100000010000000000000BRRVBICTF009153
012024071812OUFF11      010FII OURI FOFCI  ER       R$  000000000625500000000062550000000006160000000000619300000000061600000000006160000000000617500211000000000000002220000000000013749833000000000000009999123100000010000000000000BROUFFCTF005161
012024071812OUJP11      010FII OURI JPPCI           R$  000000000807500000000081000000000008010000000000805400000000080500000000008048000000000805001486000000000000004063000000000032724643000000000000009999123100000010000000000000BROUJPCTF006188
012024071812OULG11      010FII OURILOG CI           R$  000000000291800000000029230000000002903000000000290500000000029050000000002905000000000291400073000000000000000605000000000001757606000000000000009999123100000010000000000000BROULGCTF001153
012024071812OURE11      010FII OU RENDACI  ER       R$  000000000798000000000080400000000007963000000000797600000000079660000000007966000000000800000378000000000000003042000000000024265907000000000000009999123100000010000000000000BROURECTF003144
012024071812MINT11      010FII MINT EDUCI           R$  000000000997000000000099700000000009864000000000994300000000098640000000009201000000000986400002000000000000000004000000000000039774000000000000009999123100000010000000000000BRMINTCTF009103
012024071812PORD11      010FII POLO CRICI           R$  000000000091400000000009150000000000906000000000090800000000009060000000000905000000000090605549000000000000029709000000000026995691000000000000009999123100000010000000000000BRPORDCTF005175
012024071812PQAG11      010FII PARQ ANHCI           R$  000000000597800000000059780000000005978000000000597800000000059780000000005878000000000597800001000000000000000002000000000000011956000000000000009999123100000010000000000000BRPQAGCTF009149
012024071812PQDP11      010FII D PEDRO CI           R$  000000019200000000001925990000000191128000000019190200000001915000000000191222000000019200000021000000000000000041000000000007868006000000000000009999123100000010000000000000BRPQDPCTF004272
012024071812RFOF11      010FII RB CFOF CI           R$  000000000736000000000073600000000007298000000000732200000000073120000000007312000000000732800059000000000000001066000000000007805463000000000000009999123100000010000000000000BRRFOFCTF001152
012024071812RINV11      010FII REAL INVCI  ER       R$  000000001116000000000111600000000011097000000001112300000000111180000000011117000000001111900195000000000000003858000000000042914945000000000000009999123100000010000000000000BRRINVCTF004120
012024071812RMAI11      010FII REAGMULTCI           R$  000000000718500000000071850000000007090000000000710200000000071780000000007015000000000717800013000000000000000203000000000001441820000000000000009999123100000010000000000000BRRMAICTF000135
012024071812RNDP11      010FII BB R PAPCI           R$  000000000657000000000065710000000006570000000000657000000000065710000000006571000000000668800004000000000000000013000000000000085420000000000000009999123100000010000000000000BRRNDPCTF007249
012024071812RZAK11      010FII RIZA AKNCI  ER       R$  000000000831500000000083190000000008281000000000829900000000082880000000008289000000000831802448000000000000019628000000000162901822000000000000009999123100000010000000000000BRRZAKCTF008145
012024071812RZAT11      010FII ARCTIUM CI  ER       R$  000000000980000000000098510000000009751000000000978800000000097510000000009751000000000979301337000000000000006588000000000064483822000000000000009999123100000010000000000000BRRZATCTF009118
012024071812RZTR11      010FII RIZA TX CI           R$  000000000947000000000095180000000009392000000000944000000000094140000000009413000000000941405368000000000000037980000000000358536379000000000000009999123100000010000000000000BRRZTRCTF003149
012024071812SADI11      010FII SANT PAPCI           R$  000000000906900000000090750000000008990000000000902500000000090250000000009025000000000903000286000000000000002497000000000022536654000000000000009999123100000010000000000000BRSADICTF007160
012024071812TEPP11      010FII TEL PROPCI           R$  000000000906900000000090760000000009030000000000904600000000090430000000009043000000000904501953000000000000011488000000000103924978000000000000009999123100000010000000000000BRTEPPCTF006151
012024071812TGAR11      010FII TG ATIVOCI           R$  000000001200000000000120710000000011965000000001202000000000120060000000012000000000001200607621000000000000069806000000000839133633000000000000009999123100000010000000000000BRTGARCTF009192
012024071812PABY11      010FII PANAMBY CI           R$  000000000133300000000013330000000001333000000000133300000000013330000000001251000000000131700001000000000000000001000000000000001333000000000000009999123100000010000000000000BRPABYCTF012158
012024071812PATC11      010FII PATRIA  CI           R$  000000000362000000000036200000000003584000000000359900000000036160000000003616000000000363700048000000000000013283000000000047814473000000000000009999123100000010000000000000BRPATCCTF002171
012024071812PATL11      010FII PATLOGISCI           R$  000000000606500000000061140000000006022000000000607100000000060720000000006072000000000608501084000000000000005572000000000033831848000000000000009999123100000010000000000000BRPATLCTF003147
012024071812RBRS11      010FII RIOB RR CI           R$  000000000437200000000043720000000004372000000000437200000000043720000000004340000000000440400001000000000000000001000000000000004372000000000000009999123100000010000000000000BRRBRSCTF006138
012024071812RBRX11      010FII RBR MULTCI  ER       R$  000000000091200000000009140000000000907000000000090800000000009080000000000908000000000091008852000000000000114368000000000103948468000000000000009999123100000010000000000000BRRBRXCTF006130
012024071812RBRY11      010FII RBR PCRICI  ER       R$  000000000967200000000097080000000009652000000000967000000000096910000000009663000000000969106141000000000000026808000000000259243754000000000000009999123100000010000000000000BRRBRYCTF004169
012024071812RBTS11      010FII RB TFO  CI           R$  000000007459300000000745930000000074593000000007502100000000745930000000072205000000007545000002000000000000000002000000000000150043000000000000009999123100000010000000000000BRRBTSCTF002117
012024071812RBVA11      010FII RIOB VA CI           R$  000000001076600000000107930000000010641000000001071900000000106410000000010641000000001067001427000000000000007641000000000081905703000000000000009999123100000010000000000000BRRBVACTF006166
012024071812RBVO11      010FII RIOBCRI2CI           R$  000000000255600000000027000000000002510000000000262000000000026300000000002630000000000263100487000000000000008058000000000021117196000000000000009999123100000010000000000000BRRBVOCTF007244
012024071812RCFA11      010FII GP RCFA CI           R$  000000000009900000000001030000000000099000000000010100000000001030000000000102000000000010300006000000000000000106000000000000010801000000000000009999123100000010000000000000BRRCFACTF007101
012024071812RCRB11      010FII RIOB RC CI           R$  000000001409100000000142080000000013807000000001398700000000140980000000014008000000001409800800000000000000004697000000000065697031000000000000009999123100000010000000000000BRRCRBCTF000158
012024071812SPTW11      010FII SP DOWNTCI           R$  000000000413500000000041600000000004126000000000414400000000041410000000004141000000000414200139000000000000000874000000000003622226000000000000009999123100000010000000000000BRSPTWCTF002236
012024071812SPXS11      010FII SPX SYN CI           R$  000000000094200000000009450000000000940000000000094200000000009450000000000943000000000094502966000000000000036184000000000034095834000000000000009999123100000010000000000000BRSPXSCTF002125
012024071812CJCT11      010FII CJCTOWERCI           R$  000000000640000000000064000000000006400000000000640000000000064000000000006400000000000647900002000000000000000060000000000000384000000000000000009999123100000010000000000000BRCJCTCTF001116
012024071812CLIN11      010FII CLAVE INCI  ER       R$  000000000968200000000097490000000009680000000000969600000000096800000000009679000000000970401346000000000000005461000000000052955055000000000000009999123100000010000000000000BRCLINCTF007109
012024071812CPSH11      010FII CPSH    CI  ER       R$  000000000110700000000011140000000001107000000000110700000000011100000000001110000000000111101546000000000000034509000000000038224831000000000000009999123100000010000000000000BRCPSHCTF017115
012024071812CPTS11      010FII CAPI SECCI  ER       R$  000000000083700000000008390000000000834000000000083600000000008380000000000838000000000083917564000000000000881994000000000737518751000000000000009999123100000010000000000000BRCPTSCTF004232
012024071812TMPS11      010FII ITAU TEMCI           R$  000000000962000000000096670000000009583000000000959900000000096000000000009583000000000964700057000000000000002285000000000021934859000000000000009999123100000010000000000000BRTMPSCTF003115
012024071812TORD11      010FII TORDE EICI           R$  000000000014700000000001490000000000146000000000014700000000001490000000000148000000000014900388000000000000053016000000000007812883000000000000009999123100000010000000000000BRTORDCTF015138
012024071812LFTT11      010FII LOFT II CI  EA       R$  000000000200000000000020000000000001802000000000187000000000018650000000001760000000000186500094000000000000003658000000000006842722000000000000009999123100000010000000000000BRLFTTCTF004133
012024071812LGCP11      010FII LGCP INTCI  ES       R$  000000000847500000000084990000000008461000000000847700000000084990000000008471000000000849900136000000000000001482000000000012564248000000000000009999123100000010000000000000BRLGCPCTF006158
012024071812LIFE11      010FII LIFE    CI           R$  000000000102900000000010560000000001026000000000103400000000010390000000001027000000000103900408000000000000055245000000000057155057000000000000009999123100000010000000000000BRLIFECTF017130
