00COTAHIST.2024BOVESPA 20240708                                                                                                                                                                                                                      
012024070802ROMI3       010ROMI        ON      NM   R$  000000000110900000000011100000000001090000000000109800000000010900000000001090000000000110200750000000000000119900000000000131729500000000000000009999123100000010000000000000BRROMIACNOR8195
012024070802RRRP3       0103R PETROLEUMON      NM   R$  000000000287500000000028950000000002788000000000283600000000028200000000002807000000000282013378000000000003892200000000011041096400000000000000009999123100000010000000000000BRRRRPACNOR5103
012024070802TASA3       010TAURUS ARMASON      N2   R$  000000000124500000000012630000000001230000000000123800000000012410000000001242000000000124900031000000000000006800000000000008419500000000000000009999123100000010000000000000BRTASAACNOR7104
012024070802TASA4       010TAURUS ARMASPN      N2   R$  000000000124200000000012420000000001229000000000123300000000012320000000001232000000000123500663000000000000112800000000000139123400000000000000009999123100000010000000000000BRTASAACNPR4104
012024070802TCSA3       010TECNISA     ON      NM   R$  000000000020400000000002090000000000204000000000020600000000002080000000000205000000000020900105000000000000042800000000000008822300000000000000009999123100000010000000000000BRTCSAACNOR3112
012024070802TECN3       010TECHNOS     ON      NM   R$  000000000052900000000005500000000000515000000000054500000000005440000000000538000000000054401505000000000000830400000000000452764500000000000000009999123100000010000000000000BRTECNACNOR6109
012024070802TELB4       010TELEBRAS    PN           R$  000000000087500000000008750000000000866000000000087000000000008730000000000866000000000087200006000000000000000900000000000000783800000000000000009999123100000010000000000000BRTELBACNPR9140
012024070802TEND3       010TENDA       ON      NM   R$  000000000119500000000012210000000001180000000000119800000000011930000000001193000000000119406084000000000001626600000000001949490500000000000000009999123100000010000000000000BRTENDACNOR4111
012024070802TFCO4       010TRACK FIELD PN  EJ  N2   R$  000000000112800000000011320000000001101000000000112000000000011010000000001101000000000110400956000000000000751300000000000841961700000000000000009999123100000010000000000000BRTFCOACNPR8114
012024070802TGMA3       010TEGMA       ON      NM   R$  000000000257900000000025980000000002546000000000257000000000025750000000002563000000000257600756000000000000116800000000000300181000000000000000009999123100000010000000000000BRTGMAACNOR7144
012024070802TIMS3       010TIM         ON      NM   R$  000000000157600000000015930000000001557000000000157600000000015910000000001585000000000159213310000000000007482800000000011793943000000000000000009999123100000010000000000000BRTIMSACNOR5117
012024070802SANB11      010SANTANDER BRUNT          R$  000000000275500000000027550000000002654000000000268500000000026540000000002653000000000265513399000000000005466900000000014678882000000000000000009999123100000010000000000000BRSANBCDAM13164
012024070802SANB3       010SANTANDER BRON           R$  000000000129000000000013030000000001253000000000126500000000012530000000001253000000000125502512000000000000428100000000000541677100000000000000009999123100000010000000000000BRSANBACNOR8171
012024070802SANB4       010SANTANDER BRPN           R$  000000000144200000000014500000000001405000000000141800000000014080000000001408000000000141402423000000000000465100000000000659691600000000000000009999123100000010000000000000BRSANBACNPR5171
012024070802TOTS3       010TOTVS       ON      NM   R$  000000000295000000000029900000000002914000000000295900000000029900000000002978000000000299007861000000000001732600000000005128329000000000000000009999123100000010000000000000BRTOTSACNOR8144
012024070802TPIS3       010TRIUNFO PARTON      NM   R$  000000000038800000000003880000000000375000000000037800000000003750000000000375000000000037700680000000000000087500000000000033079400000000000000009999123100000010000000000000BRTPISACNOR8118
012024070802TRAD3       010TC          ON      NM   R$  000000000005600000000000570000000000053000000000005500000000000560000000000055000000000005600189000000000000572100000000000031663900000000000000009999123100000010000000000000BRTRADACNOR3101
012024070802VITT3       010VITTIA      ON      NM   R$  000000000059800000000005990000000000580000000000058700000000005880000000000588000000000059302079000000000000449300000000000263962800000000000000009999123100000010000000000000BRVITTACNOR4107
012024070802DMVF3       010D1000VFARMA ON      NM   R$  000000000075100000000007670000000000750000000000075800000000007500000000000747000000000075000177000000000000032300000000000024499900000000000000009999123100000010000000000000BRDMVFACNOR9100
012024070802DOHL4       010DOHLER      PN           R$  000000000039600000000003980000000000395000000000039500000000003960000000000382000000000039500004000000000000000800000000000000316700000000000000009999123100000010000000000000BRDOHLACNPR9066
012024070802DOTZ3       010DOTZ SA     ON      NM   R$  000000000063800000000006560000000000638000000000064700000000006460000000000639000000000066000021000000000000005400000000000003495300000000000000009999123100000010000000000000BRDOTZACNOR7101
012024070802DXCO3       010DEXCO       ON      NM   R$  000000000068500000000006900000000000675000000000068200000000006850000000000685000000000068606355000000000002470500000000001685285400000000000000009999123100000010000000000000BRDXCOACNOR8105
012024070802GMAT3       010GRUPO MATEUSON      NM   R$  000000000072800000000007520000000000728000000000073800000000007360000000000735000000000073606076000000000006765600000000004994033200000000000000009999123100000010000000000000BRGMATACNOR7102
012024070802TRIS3       010TRISUL      ON      NM   R$  000000000052000000000005260000000000507000000000051100000000005070000000000507000000000050801131000000000000461600000000000236124300000000000000009999123100000010000000000000BRTRISACNOR4118
012024070802TRPL3       010TRAN PAULISTON      N1   R$  000000000345100000000034510000000003451000000000345100000000034510000000003401000000000345100001000000000000000200000000000000690200000000000000009999123100000010000000000000BRTRPLACNOR4185
012024070802TRPL4       010TRAN PAULISTPN      N1   R$  000000000269700000000027150000000002680000000000270200000000026960000000002695000000000270007709000000000001476800000000003990878100000000000000009999123100000010000000000000BRTRPLACNPR1185
012024070802TTEN3       0103TENTOS     ON      NM   R$  000000000104500000000010690000000001045000000000105700000000010540000000001054000000000106203757000000000000568300000000000600846200000000000000009999123100000010000000000000BRTTENACNOR0103
012024070802TUPY3       010TUPY        ON      NM   R$  000000000249200000000025190000000002455000000000248500000000024800000000002457000000000248002595000000000000546700000000001358566800000000000000009999123100000010000000000000BRTUPYACNOR1184
012024070802VIVA3       010VIVARA S.A. ON      NM   R$  000000000227800000000022890000000002217000000000223000000000022290000000002227000000000223105773000000000001658900000000003700759700000000000000009999123100000010000000000000BRVIVAACNOR0107
012024070802VIVR3       010VIVER       ON      NM   R$  000000000023700000000002400000000000236000000000023800000000002400000000000239000000000024000026000000000000012600000000000003009600000000000000009999123100000010000000000000BRVIVRACNOR4123
012024070802VIVT3       010TELEF BRASILON  EJ       R$  000000000463100000000046580000000004573000000000462100000000046520000000004623000000000465309871000000000002097900000000009694755000000000000000009999123100000010000000000000BRVIVTACNOR0182
012024070802VLID3       010VALID       ON      NM   R$  000000000160500000000016050000000001554000000000156400000000015550000000001555000000000156302101000000000000245000000000000383385100000000000000009999123100000010000000000000BRVLIDACNOR5143
012024070802RECV3       010PETRORECSA  ON      NM   R$  000000000211000000000021500000000002057000000000208700000000020700000000002070000000000207110037000000000002551400000000005324991400000000000000009999123100000010000000000000BRRECVACNOR3107
012024070802REDE3       010REDE ENERGIAON  ED       R$  000000000070000000000007000000000000690000000000069600000000007000000000000693000000000069900025000000000000003100000000000002158300000000000000009999123100000010000000000000BRREDEACNOR7128
012024070802JALL3       010JALLESMACHADON      NM   R$  000000000077500000000007850000000000774000000000077900000000007830000000000779000000000078301203000000000000436000000000000340040300000000000000009999123100000010000000000000BRJALLACNOR0105
012024070802JBSS3       010JBS         ON      NM   R$  000000000311900000000031290000000003077000000000310500000000031190000000003117000000000311910307000000000002887600000000008966360100000000000000009999123100000010000000000000BRJBSSACNOR8121
012024070802MRFG3       010MARFRIG     ON      NM   R$  000000000125100000000012540000000001205000000000121700000000012140000000001209000000000121409529000000000002987700000000003638122900000000000000009999123100000010000000000000BRMRFGACNOR0116
012024070802MRVE3       010MRV         ON      NM   R$  000000000069600000000006970000000000678000000000068300000000006810000000000680000000000068108909000000000007617200000000005203314100000000000000009999123100000010000000000000BRMRVEACNOR2127
012024070802ALPA3       010ALPARGATAS  ON      N1   R$  000000000092400000000009260000000000906000000000091400000000009060000000000906000000000093600011000000000000004300000000000003933600000000000000009999123100000010000000000000BRALPAACNOR0231
012024070802ALPA4       010ALPARGATAS  PN      N1   R$  000000000093300000000009380000000000920000000000092500000000009240000000000923000000000092503461000000000001104000000000001021450600000000000000009999123100000010000000000000BRALPAACNPR7232
012024070802ALPK3       010ESTAPAR     ON      NM   R$  000000000034100000000003470000000000332000000000033900000000003400000000000333000000000034000242000000000000069300000000000023508800000000000000009999123100000010000000000000BRALPKACNOR9101
012024070802UCAS3       010UNICASA     ON      NM   R$  000000000022300000000002280000000000220000000000022400000000002270000000000223000000000022700088000000000000053700000000000012050900000000000000009999123100000010000000000000BRUCASACNOR1113
012024070802UGPA3       010ULTRAPAR    ON      NM   R$  000000000223000000000022590000000002174000000000222800000000022590000000002253000000000225911095000000000003218200000000007170664600000000000000009999123100000010000000000000BRUGPAACNOR8155
012024070802VSTE3       010VESTE       ON      NM   R$  000000000146000000000014920000000001441000000000145800000000014410000000001430000000000144100042000000000000006100000000000008893900000000000000009999123100000010000000000000BRVSTEACNOR5103
012024070802VTRU3       010VITRUEDUCA  ON      NM   R$  000000000142400000000014450000000001397000000000141400000000014000000000001399000000000140000519000000000000303000000000000428587000000000000000009999123100000010000000000000BRVTRUACNOR3100
012024070802VULC3       010VULCABRAS   ON      NM   R$  000000000150000000000015430000000001483000000000152300000000015430000000001540000000000154502153000000000000544200000000000829107100000000000000009999123100000010000000000000BRVULCACNOR2159
012024070802RENT3       010LOCALIZA    ON  EJS NM   R$  000000000437700000000043910000000004315000000000436600000000043640000000004362000000000436513279000000000003866900000000016885966000000000000000009999123100000010000000000000BRRENTACNOR4196
012024070802SYNE3       010SYN PROP TECON      NM   R$  000000000099900000000010150000000000983000000000100100000000010150000000001013000000000101801121000000000000356200000000000356759300000000000000009999123100000010000000000000BRSYNEACNOR2102
012024070802VVEO3       010VIVEO       ON      NM   R$  000000000028100000000003150000000000275000000000029700000000003140000000000313000000000031404736000000000003080900000000000916083600000000000000009999123100000010000000000000BRVVEOACNOR0104
012024070802TAEE11      010TAESA       UNT     N2   R$  000000000348000000000035100000000003450000000000346500000000034500000000003450000000000346006198000000000001604000000000005559373000000000000000009999123100000010000000000000BRTAEECDAM10147
012024070802TAEE3       010TAESA       ON      N2   R$  000000000114800000000011590000000001141000000000114500000000011410000000001141000000000114300589000000000000095700000000000109638000000000000000009999123100000010000000000000BRTAEEACNOR9147
012024070802TAEE4       010TAESA       PN      N2   R$  000000000116800000000011750000000001156000000000116200000000011560000000001156000000000115900900000000000000192700000000000224046700000000000000009999123100000010000000000000BRTAEEACNPR6147
012024070802VAMO3       010VAMOS       ON      NM   R$  000000000089800000000009010000000000878000000000088800000000008910000000000889000000000089114944000000000007727900000000006867457500000000000000009999123100000010000000000000BRVAMOACNOR7105
012024070802VBBR3       010VIBRA       ON  EJ  NM   R$  000000000220600000000022220000000002184000000000220100000000022020000000002201000000000220713942000000000004813200000000010597850400000000000000009999123100000010000000000000BRVBBRACNOR1108
012024070802RANI3       010IRANI       ON      NM   R$  000000000089900000000009080000000000887000000000089900000000009080000000000908000000000090902133000000000000995000000000000895293900000000000000009999123100000010000000000000BRRANIACNOR5072
012024070802RAPT3       010RANDON PART ON      N1   R$  000000000100700000000010070000000000973000000000098200000000009830000000000974000000000098400168000000000000048300000000000047434800000000000000009999123100000010000000000000BRRAPTACNOR7162
012024070802RAPT4       010RANDON PART PN      N1   R$  000000000117500000000011790000000001136000000000115100000000011550000000001155000000000115606030000000000002316900000000002668491800000000000000009999123100000010000000000000BRRAPTACNPR4162
012024070802WEGE3       010WEG         ON  EJ  NM   R$  000000000421900000000044470000000004218000000000438700000000044470000000004436000000000444841571000000000011694400000000051314597300000000000000009999123100000010000000000000BRWEGEACNOR0223
012024070802ODPV3       010ODONTOPREV  ON      NM   R$  000000000117900000000011920000000001156000000000117100000000011700000000001170000000000117202133000000000000597100000000000699454300000000000000009999123100000010000000000000BRODPVACNOR4202
012024070802OFSA3       010OUROFINO S/AON      NM   R$  000000000187000000000018700000000001870000000000187000000000018700000000001868000000000193900005000000000000003100000000000005797000000000000000009999123100000010000000000000BROFSAACNOR7118
012024070802PETZ3       010PETZ        ON      NM   R$  000000000037500000000003760000000000365000000000036900000000003740000000000373000000000037406082000000000006731000000000002485312200000000000000009999123100000010000000000000BRPETZACNOR2110
012024070802RCSL3       010RECRUSUL    ON           R$  000000000029400000000003090000000000291000000000030000000000003090000000000309000000000031000996000000000000592400000000000178183600000000000000009999123100000010000000000000BRRCSLACNOR4134
012024070802RCSL4       010RECRUSUL    PN           R$  000000000010900000000001110000000000106000000000010800000000001090000000000109000000000011000813000000000000970600000000000105534000000000000000009999123100000010000000000000BRRCSLACNPR1134
012024070802RDNI3       010RNI         ON      NM   R$  000000000030900000000003120000000000306000000000030600000000003080000000000306000000000031000020000000000000005900000000000001809400000000000000009999123100000010000000000000BRRDNIACNOR9116
012024070802RDOR3       010REDE D OR   ON  EJ  NM   R$  000000000273100000000027850000000002721000000000276500000000027760000000002769000000000277817574000000000006513500000000018010603300000000000000009999123100000010000000000000BRRDORACNOR8113
012024070802RADL3       010RAIADROGASILON  EJ  NM   R$  000000000253900000000025470000000002509000000000252000000000025150000000002512000000000251809845000000000002898500000000007306225900000000000000009999123100000010000000000000BRRADLACNOR0157
012024070802RAIL3       010RUMO S.A.   ON      NM   R$  000000000214500000000021500000000002123000000000213900000000021400000000002140000000000214209618000000000010985100000000023500549800000000000000009999123100000010000000000000BRRAILACNOR9105
012024070802RAIZ4       010RAIZEN      PN      N2   R$  000000000031100000000003110000000000301000000000030400000000003050000000000305000000000030608871000000000012219800000000003724496300000000000000009999123100000010000000000000BRRAIZACNPR6110
012024070802CPFE3       010CPFL ENERGIAON      NM   R$  000000000330800000000033460000000003292000000000333300000000033460000000003337000000000334807429000000000001635500000000005451558200000000000000009999123100000010000000000000BRCPFEACNOR0137
012024070802BAZA3       010AMAZONIA    ON           R$  000000000999800000000099980000000009900000000000993400000000099000000000009500000000000990000006000000000000000800000000000007947200000000000000009999123100000010000000000000BRBAZAACNOR0179
012024070802BBAS3       010BRASIL      ON      NM   R$  000000000266900000000026690000000002619000000000263200000000026290000000002629000000000263049131000000000019760700000000052024042400000000000000009999123100000010000000000000BRBBASACNOR3324
012024070802BIOM3       010BIOMM       ON      MA   R$  000000000145000000000014790000000001435000000000146000000000014510000000001450000000000147700367000000000000044300000000000064698000000000000000009999123100000010000000000000BRBIOMACNOR2112
012024070802BLAU3       010BLAU        ON  EJ  NM   R$  000000000120000000000012000000000001158000000000117600000000011770000000001176000000000117801073000000000000156500000000000184179300000000000000009999123100000010000000000000BRBLAUACNOR8114
012024070802BMEB4       010MERCANTIL   PN      N1   R$  000000000286900000000028690000000002820000000000283400000000028400000000002815000000000289600021000000000000003500000000000009920500000000000000009999123100000010000000000000BRBMEBACNPR5210
012024070802BMGB4       010BANCO BMG   PN      N1   R$  000000000035000000000003550000000000346000000000035100000000003550000000000354000000000035501393000000000000693000000000000243559600000000000000009999123100000010000000000000BRBMGBACNPR0109
012024070802BMKS3       010BIC MONARK  ON           R$  000000003490000000000349900000000034899000000003497400000000349900000000033050000000003499000007000000000000000024000000000000839399000000000000009999123100000010000000000000BRBMKSACNOR9166
012024070802BMOB3       010BEMOBI TECH ON      NM   R$  000000000139300000000014210000000001392000000000140400000000013990000000001398000000000140001245000000000000267800000000000376120400000000000000009999123100000010000000000000BRBMOBACNOR7103
012024070802BOBR4       010BOMBRIL     PN           R$  000000000020500000000002140000000000204000000000020500000000002060000000000204000000000020600036000000000000024800000000000005094500000000000000009999123100000010000000000000BRBOBRACNPR3128
012024070802BSLI3       010BRB BANCO   ON           R$  000000000100200000000010020000000001002000000000100200000000010020000000000955000000000100200001000000000000000100000000000000100200000000000000009999123100000010000000000000BRBSLIACNOR5194
012024070802BSLI4       010BRB BANCO   PN           R$  000000000106000000000010600000000001040000000000105200000000010400000000001014000000000105900004000000000000000400000000000000420900000000000000009999123100000010000000000000BRBSLIACNPR2194
012024070802COCE3       010COELCE      ON           R$  000000000327000000000032700000000003255000000000326500000000032550000000003016000000000350000002000000000000000300000000000000979500000000000000009999123100000010000000000000BRCOCEACNOR0146
012024070802COCE5       010COELCE      PNA          R$  000000000298100000000030490000000002972000000000300600000000029720000000002972000000000302000085000000000000012500000000000037577900000000000000009999123100000010000000000000BRCOCEACNPA3147
012024070802COGN3       010COGNA ON    ON      NM   R$  000000000018600000000001880000000000183000000000018400000000001840000000000184000000000018509708000000000015206900000000002802234900000000000000009999123100000010000000000000BRCOGNACNOR2104
012024070802GGPS3       010GPS         ON      NM   R$  000000000171900000000017250000000001686000000000169500000000016980000000001698000000000169904580000000000001610700000000002731413500000000000000009999123100000010000000000000BRGGPSACNOR9103
012024070802MILS3       010MILLS       ON  EJ  NM   R$  000000000112800000000011280000000001101000000000111600000000011220000000001122000000000112302474000000000001206300000000001346516000000000000000009999123100000010000000000000BRMILSACNOR2127
012024070802MLAS3       010MULTILASER  ON      NM   R$  000000000021400000000002200000000000211000000000021400000000002110000000000211000000000021503334000000000001862500000000000400260000000000000000009999123100000010000000000000BRMLASACNOR9101
012024070802MNDL3       010MUNDIAL     ON           R$  000000000129800000000013500000000001296000000000130300000000013500000000001280000000000135000004000000000000004100000000000005343400000000000000009999123100000010000000000000BRMNDLACNOR4109
012024070802MNPR3       010MINUPAR     ON           R$  000000000130000000000013000000000001300000000000130000000000013000000000001240000000000130000002000000000000000600000000000000780000000000000000009999123100000010000000000000BRMNPRACNOR5122
012024070802MOAR3       010MONT ARANHA ON           R$  000000003950000000000395000000000039500000000003950000000000395000000000012100000000003950000001000000000000000100000000000003950000000000000000009999123100000010000000000000BRMOARACNOR5234
012024070802KEPL3       010KEPLER WEBERON  ED  NM   R$  000000000098700000000009940000000000970000000000098300000000009790000000000979000000000098002398000000000000954300000000000938737800000000000000009999123100000010000000000000BRKEPLACNOR1063
012024070802KLBN11      010KLABIN S/A  UNT     N2   R$  000000000209100000000021040000000002071000000000208300000000020870000000002086000000000208816494000000000004298200000000008953482800000000000000009999123100000010000000000000BRKLBNCDAM18142
012024070802KLBN3       010KLABIN S/A  ON      N2   R$  000000000042100000000004220000000000415000000000041700000000004190000000000419000000000042000826000000000000235600000000000098377700000000000000009999123100000010000000000000BRKLBNACNOR2170
012024070802KLBN4       010KLABIN S/A  PN      N2   R$  000000000042000000000004230000000000414000000000041600000000004190000000000416000000000041902189000000000001245100000000000519127400000000000000009999123100000010000000000000BRKLBNACNPR9170
012024070802MTRE3       010MITRE REALTYON      NM   R$  000000000040300000000004150000000000396000000000040500000000004020000000000402000000000040701576000000000000762200000000000308726000000000000000009999123100000010000000000000BRMTREACNOR6112
012024070802MTSA4       010METISA      PN           R$  000000000446600000000045300000000004406000000000446500000000045300000000004461000000000454300051000000000000005500000000000024557700000000000000009999123100000010000000000000BRMTSAACNPR9072
012024070802MULT3       010MULTIPLAN   ON  EJ  N2   R$  000000000241800000000024360000000002403000000000242300000000024190000000002417000000000242124411000000000006451800000000015638695500000000000000009999123100000010000000000000BRMULTACNOR5139
012024070802MYPK3       010IOCHP-MAXIONON  EJ  NM   R$  000000000119000000000012060000000001177000000000118600000000011940000000001188000000000119402878000000000000747900000000000887639900000000000000009999123100000010000000000000BRMYPKACNOR7155
012024070802SNSY3       010SANSUY      ON           R$  000000000131000000000013300000000001270000000000129700000000013110000000001255000000000130000014000000000000001700000000000002205000000000000000009999123100000010000000000000BRSNSYACNOR2113
012024070802SNSY5       010SANSUY      PNA          R$  000000000061800000000006180000000000618000000000061700000000006180000000000589000000000061800003000000000000001600000000000000987700000000000000009999123100000010000000000000BRSNSYACNPA5111
012024070802SOJA3       010BOA SAFRA   ON      NM   R$  000000000151500000000015260000000001505000000000151900000000015230000000001523000000000152502115000000000000360300000000000547461300000000000000009999123100000010000000000000BRSOJAACNOR9105
012024070802SOMA3       010GRUPO SOMA  ON      NM   R$  000000000063700000000006390000000000624000000000063100000000006330000000000630000000000063307491000000000004659100000000002940568400000000000000009999123100000010000000000000BRSOMAACNOR3102
012024070802SRNA3       010SERENA      ON      NM   R$  000000000092500000000009430000000000900000000000092100000000009140000000000914000000000091504055000000000006745700000000006219047200000000000000009999123100000010000000000000BRSRNAACNOR4100
012024070802STBP3       010SANTOS BRP  ON      NM   R$  000000000144800000000014520000000001414000000000142700000000014310000000001423000000000143208014000000000004079100000000005824545500000000000000009999123100000010000000000000BRSTBPACNOR3130
012024070802SUZB3       010SUZANO S.A. ON      NM   R$  000000000546200000000054690000000005314000000000535800000000053220000000005322000000000532638951000000000013585700000000072796127500000000000000009999123100000010000000000000BRSUZBACNOR0130
012024070802PRNR3       010PRINER      ON      NM   R$  000000000114100000000011410000000001090000000000110500000000011070000000001105000000000110701835000000000000575400000000000636049100000000000000009999123100000010000000000000BRPRNRACNOR4109
012024070802PSSA3       010PORTO SEGUROON  EJ  NM   R$  000000000299000000000029900000000002938000000000295400000000029590000000002957000000000295906273000000000001442300000000004261075700000000000000009999123100000010000000000000BRPSSAACNOR7155
012024070802PTBL3       010PORTOBELLO  ON      NM   R$  000000000048300000000004900000000000475000000000048100000000004790000000000479000000000048200865000000000000385200000000000185662400000000000000009999123100000010000000000000BRPTBLACNOR8132
012024070802PTNT3       010PETTENATI   ON           R$  000000000094400000000009680000000000943000000000095000000000009680000000000943000000000096900004000000000000000400000000000000380300000000000000009999123100000010000000000000BRPTNTACNOR6042
012024070802PTNT4       010PETTENATI   PN           R$  000000000061600000000006290000000000615000000000061800000000006150000000000615000000000062500010000000000000001800000000000001114100000000000000009999123100000010000000000000BRPTNTACNPR3047
012024070802QUAL3       010QUALICORP   ON      NM   R$  000000000017600000000001800000000000174000000000017700000000001770000000000177000000000017801559000000000002047500000000000363727900000000000000009999123100000010000000000000BRQUALACNOR6120
012024070802SMFT3       010SMART FIT   ON      NM   R$  000000000231100000000023150000000002254000000000227500000000022710000000002260000000000227306098000000000001593100000000003624604600000000000000009999123100000010000000000000BRSMFTACNOR1112
012024070802SMTO3       010SAO MARTINHOON      NM   R$  000000000325500000000033230000000003203000000000327800000000033000000000003300000000000330311633000000000002444800000000008014504500000000000000009999123100000010000000000000BRSMTOACNOR3126
012024070802ZAMP3       010ZAMP S.A.   ON           R$  000000000036600000000003730000000000353000000000035900000000003570000000000357000000000035802152000000000001358500000000000488873000000000000000009999123100000010000000000000BRZAMPACNOR5100
012024070802HYPE3       010HYPERA      ON      NM   R$  000000000289500000000029220000000002841000000000287100000000028730000000002863000000000287313977000000000003860600000000011084030600000000000000009999123100000010000000000000BRHYPEACNOR0142
012024070802JHSF3       010JHSF PART   ON  ED  NM   R$  000000000042000000000004250000000000419000000000042200000000004200000000000420000000000042202146000000000001717300000000000725606300000000000000009999123100000010000000000000BRJHSFACNOR2137
012024070802JSLG3       010JSL         ON      NM   R$  000000000100700000000010070000000000972000000000097800000000009730000000000973000000000097801125000000000000518900000000000507954600000000000000009999123100000010000000000000BRJSLGACNOR2121
012024070802NEOE3       010NEOENERGIA  ON  EJ  NM   R$  000000000185900000000019010000000001842000000000188100000000018820000000001878000000000188604324000000000000899000000000001691471400000000000000009999123100000010000000000000BRNEOEACNOR3123
012024070802APER3       010ALPER S.A.  ON           R$  000000000465000000000046700000000004650000000000465800000000046510000000004650000000000468800011000000000000002000000000000009316800000000000000009999123100000010000000000000BRAPERACNOR9106
012024070802ARML3       010ARMAC       ON  EDJ NM   R$  000000000105100000000010750000000001026000000000105900000000010750000000001075000000000107802088000000000000658500000000000697635300000000000000009999123100000010000000000000BRARMLACNOR1112
012024070802ARZZ3       010AREZZO CO   ON      NM   R$  000000000528200000000053620000000005222000000000530200000000053120000000005311000000000531507400000000000001348900000000007152873900000000000000009999123100000010000000000000BRARZZACNOR3146
012024070802ASAI3       010ASSAI       ON      NM   R$  000000000113100000000011700000000001131000000000115700000000011630000000001162000000000116324641000000000012616400000000014599822200000000000000009999123100000010000000000000BRASAIACNOR0106
012024070802BBDC3       010BRADESCO    ON  EJ  N1   R$  000000000113100000000011470000000001127000000000113600000000011340000000001133000000000113410466000000000006213600000000007060136800000000000000009999123100000010000000000000BRBBDCACNOR1772
012024070802BBDC4       010BRADESCO    PN  EJ  N1   R$  000000000124100000000012610000000001238000000000124900000000012460000000001245000000000124640522000000000033661100000000042063650400000000000000009999123100000010000000000000BRBBDCACNPR8772
012024070802MOVI3       010MOVIDA      ON      NM   R$  000000000067600000000006930000000000657000000000067700000000006860000000000685000000000068606806000000000004127300000000002797228400000000000000009999123100000010000000000000BRMOVIACNOR0122
012024070802SCAR3       010SAO CARLOS  ON      NM   R$  000000000233300000000023330000000002246000000000227400000000022460000000002245000000000231000046000000000000010200000000000023203000000000000000009999123100000010000000000000BRSCARACNOR7131
012024070802SEER3       010SER EDUCA   ON      NM   R$  000000000055000000000005600000000000537000000000054500000000005430000000000543000000000054801247000000000000379300000000000206745000000000000000009999123100000010000000000000BRSEERACNOR5119
012024070802SEQL3       010SEQUOIA LOG ON      NM   R$  000000000044700000000004950000000000433000000000046500000000004710000000000471000000000047200751000000000000516000000000000240329300000000000000009999123100000010000000000000BRSEQLACNOR2103
012024070802SHOW3       010TIME FOR FUNON      NM   R$  000000000016800000000001760000000000162000000000017000000000001690000000000164000000000016900325000000000000127300000000000021736800000000000000009999123100000010000000000000BRSHOWACNOR7105
012024070802SHUL4       010SCHULZ      PN  EJ       R$  000000000061400000000006300000000000614000000000062500000000006300000000000630000000000063101281000000000000357000000000000223342700000000000000009999123100000010000000000000BRSHULACNPR4156
012024070802SIMH3       010SIMPAR      ON      NM   R$  000000000068800000000006960000000000664000000000067700000000006710000000000670000000000067108929000000000004354100000000002948940200000000000000009999123100000010000000000000BRSIMHACNOR0107
012024070802SLCE3       010SLC AGRICOLAON      NM   R$  000000000187800000000019020000000001876000000000189500000000019020000000001897000000000190305447000000000002257100000000004277702700000000000000009999123100000010000000000000BRSLCEACNOR2125
012024070802VALE3       010VALE        ON      NM   R$  000000000630800000000063240000000006267000000000629200000000063100000000006298000000000631134967000000000018662500000000117434038100000000000000009999123100000010000000000000BRVALEACNOR0210
012024070802WEST3       010WESTWING    ON      NM   R$  000000000009500000000000960000000000093000000000009400000000000960000000000092000000000009600040000000000000044700000000000004202700000000000000009999123100000010000000000000BRWESTACNOR3100
012024070802ALLD3       010ALLIED      ON      NM   R$  000000000078000000000007950000000000777000000000078200000000007890000000000780000000000078900537000000000000149700000000000117201600000000000000009999123100000010000000000000BRALLDACNOR3106
012024070802ALOS3       010ALLOS       ON      NM   R$  000000000219800000000022220000000002192000000000220300000000022000000000002197000000000220006192000000000002614800000000005760890500000000000000009999123100000010000000000000BRALOSACNOR5101
012024070802CEAB3       010CEA MODAS   ON      NM   R$  000000000099900000000010000000000000963000000000097500000000009860000000000982000000000098703582000000000005497000000000005361848100000000000000009999123100000010000000000000BRCEABACNOR1102
012024070802CEBR3       010CEB         ON           R$  000000000199900000000019990000000001980000000000198100000000019800000000001980000000000199700032000000000000006400000000000012679900000000000000009999123100000010000000000000BRCEBRACNOR5125
012024070802CEBR5       010CEB         PNA          R$  000000000181300000000018130000000001803000000000180400000000018030000000001803000000000183700010000000000000001600000000000002886800000000000000009999123100000010000000000000BRCEBRACNPA8124
012024070802CEBR6       010CEB         PNB          R$  000000000192500000000019480000000001915000000000192400000000019460000000001916000000000194600034000000000000005900000000000011355100000000000000009999123100000010000000000000BRCEBRACNPB6124
012024070802CEDO3       010CEDRO       ON      N1   R$  000000000273000000000027300000000002730000000000273000000000027300000000002730000000000280000002000000000000000200000000000000546000000000000000009999123100000010000000000000BRCEDOACNOR8096
012024070802CEDO4       010CEDRO       PN      N1   R$  000000000215900000000021600000000002159000000000215900000000021600000000002050000000000243800002000000000000000700000000000001511900000000000000009999123100000010000000000000BRCEDOACNPR5128
012024070802CMIG3       010CEMIG       ON      N1   R$  000000000126700000000012810000000001263000000000127300000000012690000000001269000000000127200524000000000000088700000000000112917400000000000000009999123100000010000000000000BRCMIGACNOR6242
012024070802CMIG4       010CEMIG       PN      N1   R$  000000000104200000000010640000000001035000000000105100000000010540000000001053000000000105532377000000000009612700000000010111863700000000000000009999123100000010000000000000BRCMIGACNPR3243
012024070802FIQE3       010UNIFIQUE    ON      NM   R$  000000000034400000000003470000000000339000000000034100000000003390000000000339000000000034100779000000000000663400000000000226423600000000000000009999123100000010000000000000BRFIQEACNOR5107
012024070802FLRY3       010FLEURY      ON      NM   R$  000000000150500000000015100000000001494000000000150200000000015050000000001503000000000150505251000000000001780300000000002675604900000000000000009999123100000010000000000000BRFLRYACNOR5138
012024070802FRAS3       010FRAS-LE     ON      N1   R$  000000000202500000000020340000000001993000000000200700000000020180000000002004000000000201801683000000000000476600000000000956792200000000000000009999123100000010000000000000BRFRASACNOR0159
012024070802FRIO3       010METALFRIO   ON      NM   R$  000000002610000000000261000000000026100000000002610000000000261000000000025500000000002780000001000000000000000200000000000005220000000000000000009999123100000010000000000000BRFRIOACNOR2111
012024070802WHRL4       010WHIRLPOOL   PN           R$  000000000045800000000004580000000000458000000000045800000000004580000000000455000000000045800005000000000000001300000000000000595400000000000000009999123100000010000000000000BRWHRLACNPR2128
012024070802WIZC3       010WIZ CO      ON      NM   R$  000000000058800000000006000000000000588000000000059300000000005910000000000591000000000059301306000000000000239200000000000142049300000000000000009999123100000010000000000000BRWIZCACNOR5102
012024070802WLMM3       010WLM IND COM ON           R$  000000000240000000000025000000000002400000000000247100000000025000000000002500000000000260000004000000000000000700000000000001730000000000000000009999123100000010000000000000BRWLMMACNOR6118
012024070802WLMM4       010WLM IND COM PN           R$  000000000314000000000031400000000003025000000000309300000000031000000000003100000000000310500011000000000000001300000000000004021600000000000000009999123100000010000000000000BRWLMMACNPR3118
012024070802YDUQ3       010YDUQS PART  ON      NM   R$  000000000116400000000011840000000001137000000000116400000000011830000000001180000000000118408046000000000003216900000000003747463300000000000000009999123100000010000000000000BRYDUQACNOR3105
012024070802CEEB3       010COELBA      ON           R$  000000000390100000000039750000000003900000000000392500000000039750000000003901000000000399800008000000000000001100000000000004317800000000000000009999123100000010000000000000BRCEEBACNOR3199
012024070802CGAS3       010COMGAS      ON           R$  000000001061300000000106130000000010613000000001061300000000106130000000010600000000001099900001000000000000000100000000000001061300000000000000009999123100000010000000000000BRCGASACNOR0163
012024070802CGAS5       010COMGAS      PNA          R$  000000001180000000000118000000000011202000000001144400000000112020000000011115000000001200000019000000000000002300000000000026321300000000000000009999123100000010000000000000BRCGASACNPA3160
012024070802CGRA3       010GRAZZIOTIN  ON           R$  000000000253800000000025400000000002512000000000252600000000025300000000002510000000000254000010000000000000001100000000000002779400000000000000009999123100000010000000000000BRCGRAACNOR2083
012024070802CGRA4       010GRAZZIOTIN  PN           R$  000000000258300000000025950000000002547000000000257500000000025690000000002531000000000259900057000000000000011400000000000029363200000000000000009999123100000010000000000000BRCGRAACNPR9083
012024070802CIEL3       010CIELO       ON      NM   R$  000000000056900000000005720000000000569000000000057000000000005710000000000570000000000057107783000000000014801000000000008440400800000000000000009999123100000010000000000000BRCIELACNOR3157
012024070802CLSA3       010CLEARSALE   ON      NM   R$  000000000078300000000008440000000000768000000000081700000000008340000000000834000000000083505384000000000002494700000000002040117300000000000000009999123100000010000000000000BRCLSAACNOR0100
012024070802CLSC4       010CELESC      PN  EJ  N2   R$  000000000769500000000077430000000007675000000000769200000000077430000000007610000000000774900008000000000000000800000000000006154000000000000000009999123100000010000000000000BRCLSCACNPR3131
012024070802DASA3       010DASA        ON      NM   R$  000000000032000000000003500000000000315000000000033800000000003370000000000337000000000033902822000000000001618800000000000547824900000000000000009999123100000010000000000000BRDASAACNOR1122
012024070802DESK3       010DESKTOP     ON      NM   R$  000000000153800000000015770000000001515000000000154300000000015240000000001524000000000152800754000000000000234500000000000361872600000000000000009999123100000010000000000000BRDESKACNOR2104
012024070802DEXP3       010DEXXOS PAR  ON      N1   R$  000000000104100000000010490000000001025000000000103400000000010250000000001024000000000103000146000000000000027300000000000028244400000000000000009999123100000010000000000000BRDEXPACNOR1105
012024070802DIRR3       010DIRECIONAL  ON  ED  NM   R$  000000000267400000000026860000000002608000000000262800000000026300000000002625000000000263107043000000000001452200000000003816433200000000000000009999123100000010000000000000BRDIRRACNOR0118
012024070802GEPA3       010GER PARANAP ON           R$  000000000260000000000026000000000002600000000000260000000000026000000000002521000000000264900003000000000000000700000000000001820000000000000000009999123100000010000000000000BRGEPAACNOR2153
012024070802GEPA4       010GER PARANAP PN           R$  000000000262000000000026200000000002609000000000261200000000026090000000002600000000000262000002000000000000000300000000000000783800000000000000009999123100000010000000000000BRGEPAACNPR9160
012024070802GFSA3       010GAFISA      ON      NM   R$  000000000035500000000003560000000000337000000000034200000000003380000000000338000000000033902565000000000004065700000000001392505300000000000000009999123100000010000000000000BRGFSAACNOR3124
012024070802GGBR3       010GERDAU      ON      N1   R$  000000000161500000000016250000000001591000000000160100000000015930000000001591000000000159600258000000000000039600000000000063410700000000000000009999123100000010000000000000BRGGBRACNOR1192
012024070802ALUP11      010ALUPAR      UNT     N2   R$  000000000306000000000030860000000003036000000000306400000000030760000000003075000000000307902619000000000000764900000000002343654800000000000000009999123100000010000000000000BRALUPCDAM15119
012024070802ALUP3       010ALUPAR      ON      N2   R$  000000000102600000000010550000000001016000000000102900000000010450000000001033000000000105500064000000000000007700000000000007928300000000000000009999123100000010000000000000BRALUPACNOR8119
012024070802ALUP4       010ALUPAR      PN      N2   R$  000000000101500000000010170000000001002000000000101200000000010140000000001014000000000101600090000000000000016900000000000017113100000000000000009999123100000010000000000000BRALUPACNPR5119
012024070802AMAR3       010LOJAS MARISAON      NM   R$  000000000014600000000001490000000000144000000000014600000000001480000000000146000000000014800720000000000000442800000000000065021100000000000000009999123100000010000000000000BRAMARACNOR4115
012024070802AMBP3       010AMBIPAR     ON      NM   R$  000000000197000000000019900000000001851000000000192800000000019250000000001921000000000192511154000000000007258400000000013999441900000000000000009999123100000010000000000000BRAMBPACNOR6103
012024070802ANIM3       010ANIMA       ON      NM   R$  000000000035800000000003780000000000354000000000036600000000003660000000000365000000000036607358000000000015006900000000005493085600000000000000009999123100000010000000000000BRANIMACNOR6107
012024070802CMIN3       010CSNMINERACAOON      N2   R$  000000000053800000000005390000000000521000000000052700000000005280000000000528000000000052910050000000000009787800000000005162591700000000000000009999123100000010000000000000BRCMINACNOR2111
012024070802GGBR4       010GERDAU      PN      N1   R$  000000000179100000000018080000000001770000000000177900000000017800000000001779000000000178015779000000000007197500000000012809043100000000000000009999123100000010000000000000BRGGBRACNPR8192
012024070802AALR3       010ALLIAR      ON      NM   R$  000000000127200000000013520000000001272000000000132700000000013390000000001338000000000133900608000000000000130800000000000173696700000000000000009999123100000010000000000000BRAALRACNOR6102
012024070802ABCB4       010ABC BRASIL  PN  EJ  N2   R$  000000000224800000000022670000000002224000000000225500000000022670000000002244000000000226701873000000000000486800000000001097774000000000000000009999123100000010000000000000BRABCBACNPR4146
012024070802ABEV3       010AMBEV S/A   ON           R$  000000000113300000000011350000000001124000000000112800000000011250000000001125000000000112617373000000000028570100000000032236778800000000000000009999123100000010000000000000BRABEVACNOR1127
012024070802BAHI3       010BAHEMA      ON      MA   R$  000000000064500000000006450000000000620000000000063500000000006200000000000620000000000065100007000000000000001100000000000000699300000000000000009999123100000010000000000000BRBAHIACNOR1074
012024070802BALM4       010BAUMER      PN           R$  000000000100200000000010060000000001002000000000100500000000010060000000001006000000000102500004000000000000000500000000000000502500000000000000009999123100000010000000000000BRBALMACNPR2056
012024070802PRIO3       010PETRORIO    ON      NM   R$  000000000463700000000046650000000004505000000000454900000000045350000000004534000000000453618539000000000005709000000000025972761400000000000000009999123100000010000000000000BRPRIOACNOR1106
012024070802SAPR11      010SANEPAR     UNT EJ  N2   R$  000000000274000000000027450000000002702000000000272000000000027260000000002725000000000272702364000000000000468500000000001274627000000000000000009999123100000010000000000000BRSAPRCDAM13118
012024070802SAPR3       010SANEPAR     ON  EJ  N2   R$  000000000051700000000005190000000000513000000000051500000000005130000000000513000000000051500293000000000000105600000000000054475200000000000000009999123100000010000000000000BRSAPRACNOR9159
012024070802SAPR4       010SANEPAR     PN  EJ  N2   R$  000000000055500000000005560000000000548000000000055100000000005520000000000550000000000055201882000000000000584100000000000322174900000000000000009999123100000010000000000000BRSAPRACNPR6159
012024070802SBFG3       010GRUPO SBF   ON      NM   R$  000000000131200000000013350000000001296000000000130900000000013100000000001309000000000131004035000000000001029000000000001347032300000000000000009999123100000010000000000000BRSBFGACNOR1103
012024070802SBSP3       010SABESP      ON      NM   R$  000000000824500000000084000000000008221000000000832200000000083110000000008310000000000831117329000000000003859100000000032118837700000000000000009999123100000010000000000000BRSBSPACNOR5161
012024070802UNIP3       010UNIPAR      ON           R$  000000000517400000000051950000000005032000000000511000000000050340000000005020000000000508000057000000000000006500000000000033219600000000000000009999123100000010000000000000BRUNIPACNOR7206
012024070802UNIP6       010UNIPAR      PNB          R$  000000000522800000000052690000000005126000000000519400000000052140000000005214000000000521701104000000000000166500000000000864900300000000000000009999123100000010000000000000BRUNIPACNPB8206
012024070802USIM3       010USIMINAS    ON      N1   R$  000000000077400000000007740000000000749000000000075600000000007500000000000750000000000075201043000000000000274100000000000207467900000000000000009999123100000010000000000000BRUSIMACNOR3167
012024070802USIM5       010USIMINAS    PNA     N1   R$  000000000079700000000007980000000000781000000000078700000000007870000000000785000000000078709797000000000006611300000000005206440400000000000000009999123100000010000000000000BRUSIMACNPA6169
012024070802PFRM3       010PROFARMA    ON      NM   R$  000000000053900000000005390000000000528000000000053200000000005330000000000529000000000053300615000000000000184300000000000098171400000000000000009999123100000010000000000000BRPFRMACNOR1116
012024070802PGMN3       010PAGUE MENOS ON      NM   R$  000000000027300000000002750000000000264000000000026700000000002700000000000269000000000027001337000000000000451200000000000120894000000000000000009999123100000010000000000000BRPGMNACNOR8103
012024070802PINE3       010PINE        ON      N2   R$  000000000053100000000005990000000000530000000000057900000000005890000000000545000000000058900035000000000000010300000000000005971400000000000000009999123100000010000000000000BRPINEACNOR1149
012024070802PINE4       010PINE        PN      N2   R$  000000000044900000000004550000000000440000000000044800000000004420000000000442000000000044400549000000000000293700000000000131731600000000000000009999123100000010000000000000BRPINEACNPR8149
012024070802PLAS3       010PLASCAR PARTON           R$  000000000052000000000005980000000000520000000000058100000000005980000000000575000000000059900019000000000000002400000000000001395700000000000000009999123100000010000000000000BRPLASACNOR2106
012024070802PLPL3       010PLANOEPLANO ON      NM   R$  000000000102900000000010350000000001002000000000101300000000010050000000001005000000000100601908000000000000540400000000000547901200000000000000009999123100000010000000000000BRPLPLACNOR5104
012024070802PNVL3       010DIMED       ON  EJ  NM   R$  000000000101300000000010130000000000995000000000100300000000010070000000000999000000000100700782000000000000189300000000000189885100000000000000009999123100000010000000000000BRPNVLACNOR9207
012024070802POMO3       010MARCOPOLO   ON      N2   R$  000000000050800000000005160000000000493000000000051000000000005160000000000506000000000051601466000000000000610300000000000311390000000000000000009999123100000010000000000000BRPOMOACNOR0098
012024070802POMO4       010MARCOPOLO   PN      N2   R$  000000000065200000000006560000000000633000000000064900000000006550000000000654000000000065510222000000000006144900000000003989152300000000000000009999123100000010000000000000BRPOMOACNPR7098
012024070802PORT3       010WILSON SONS ON      NM   R$  000000000154700000000015530000000001538000000000154500000000015450000000001545000000000154801193000000000000217200000000000335692500000000000000009999123100000010000000000000BRPORTACNOR8108
012024070802POSI3       010POSITIVO TECON      NM   R$  000000000085000000000008730000000000843000000000085500000000008440000000000843000000000084701819000000000000757900000000000648078600000000000000009999123100000010000000000000BRPOSIACNOR9116
012024070802AERI3       010AERIS       ON      NM   R$  000000000060700000000006620000000000589000000000063900000000006360000000000636000000000063700934000000000000465100000000000297236300000000000000009999123100000010000000000000BRAERIACNOR4102
012024070802AESB3       010AES BRASIL  ON      NM   R$  000000000113900000000011410000000001136000000000113700000000011370000000001137000000000113903050000000000002894900000000003293581400000000000000009999123100000010000000000000BRAESBACNOR7106
012024070802AFLT3       010AFLUENTE T  ON           R$  000000000073800000000007380000000000738000000000073800000000007380000000000725000000000075900001000000000000000100000000000000073800000000000000009999123100000010000000000000BRAFLTACNOR1122
012024070802AGRO3       010BRASILAGRO  ON      NM   R$  000000000270600000000027060000000002670000000000269300000000026930000000002691000000000269301129000000000000167800000000000451941800000000000000009999123100000010000000000000BRAGROACNOR7114
012024070802AGXY3       010AGROGALAXY  ON      NM   R$  000000000015300000000001740000000000151000000000016500000000001660000000000166000000000016701436000000000001493300000000000247171900000000000000009999123100000010000000000000BRAGXYACNOR4103
012024070802AHEB3       010SPTURIS     ON           R$  000000000350000000000035000000000003500000000000350000000000035000000000003500000000000400000001000000000000000100000000000000350000000000000000009999123100000010000000000000BRAHEBACNOR0106
012024070802GOAU3       010GERDAU MET  ON      N1   R$  000000000107600000000010760000000001061000000000106500000000010670000000001061000000000106800154000000000000025400000000000027054500000000000000009999123100000010000000000000BRGOAUACNOR1267
012024070802GOAU4       010GERDAU MET  PN      N1   R$  000000000105900000000010630000000001044000000000105200000000010530000000001050000000000105309007000000000009116800000000009591144500000000000000009999123100000010000000000000BRGOAUACNPR8268
012024070802GRND3       010GRENDENE    ON      NM   R$  000000000059600000000006000000000000591000000000059600000000005990000000000599000000000060002443000000000001182100000000000705020100000000000000009999123100000010000000000000BRGRNDACNOR3174
012024070802GUAR3       010GUARARAPES  ON      NM   R$  000000000073600000000007460000000000724000000000073000000000007260000000000725000000000072703046000000000001130200000000000825575400000000000000009999123100000010000000000000BRGUARACNOR4173
012024070802HAGA3       010HAGA S/A    ON           R$  000000000025600000000002630000000000256000000000025800000000002580000000000255000000000025800017000000000000017700000000000004574200000000000000009999123100000010000000000000BRHAGAACNOR7103
012024070802BRIT3       010BRISANET    ON      NM   R$  000000000040700000000004160000000000404000000000041300000000004160000000000412000000000041600928000000000000800500000000000330667900000000000000009999123100000010000000000000BRBRITACNOR0103
012024070802BRKM3       010BRASKEM     ON      N1   R$  000000000185000000000018580000000001831000000000185200000000018550000000001855000000000187200018000000000000004900000000000009078900000000000000009999123100000010000000000000BRBRKMACNOR1119
012024070802BRKM5       010BRASKEM     PNA     N1   R$  000000000183300000000018550000000001807000000000183600000000018550000000001853000000000185507756000000000002148300000000003945111900000000000000009999123100000010000000000000BRBRKMACNPA4121
012024070802BRSR3       010BANRISUL    ON      N1   R$  000000000123000000000012550000000001230000000000124700000000012510000000001251000000000128100032000000000000003900000000000004863600000000000000009999123100000010000000000000BRBRSRACNOR3188
012024070802BRSR6       010BANRISUL    PNB     N1   R$  000000000118200000000012080000000001169000000000118700000000011980000000001187000000000119806222000000000002525800000000002998433600000000000000009999123100000010000000000000BRBRSRACNPB4191
012024070802CXSE3       010CAIXA SEGURION      NM   R$  000000000143600000000014380000000001412000000000142000000000014250000000001423000000000142509809000000000004047700000000005749699500000000000000009999123100000010000000000000BRCXSEACNOR7106
012024070802CYRE3       010CYRELA REALTON      NM   R$  000000000200500000000020090000000001956000000000196900000000019730000000001970000000000197307753000000000005777100000000011375601100000000000000009999123100000010000000000000BRCYREACNOR7140
012024070802ENGI11      010ENERGISA    UNT     N2   R$  000000000464900000000047410000000004637000000000471500000000047320000000004727000000000473419369000000000004076700000000019223446700000000000000009999123100000010000000000000BRENGICDAM16135
012024070802ENGI3       010ENERGISA    ON      N2   R$  000000000146700000000014930000000001467000000000148600000000014860000000001467000000000148700024000000000000003500000000000005202800000000000000009999123100000010000000000000BRENGIACNOR0145
012024070802ENGI4       010ENERGISA    PN      N2   R$  000000000078600000000008100000000000786000000000080200000000008100000000000805000000000081400034000000000000006400000000000005136300000000000000009999123100000010000000000000BRENGIACNPR7141
012024070802ENJU3       010ENJOEI      ON      NM   R$  000000000020500000000002100000000000199000000000020100000000002000000000000200000000000020101278000000000001194300000000000240840900000000000000009999123100000010000000000000BRENJUACNOR9100
012024070802EPAR3       010EMBPAR S/A  ON           R$  000000000063000000000006300000000000625000000000062900000000006250000000000626000000000063000014000000000000003600000000000002266100000000000000009999123100000010000000000000BREPARACNOR9105
012024070802EQMA3B      010EQTLMARANHAOON      MB   R$  000000000260000000000026000000000002550000000000256600000000025500000000002550000000000259900008000000000000002900000000000007443800000000000000009999123100000010000000000000BREQMAACNOR8108
012024070802EQPA3       010EQTL PARA   ON           R$  000000000072500000000007250000000000705000000000071700000000007210000000000721000000000072500016000000000000002600000000000001865700000000000000009999123100000010000000000000BREQPAACNOR1111
012024070802EQTL3       010EQUATORIAL  ON      NM   R$  000000000326000000000033050000000003260000000000328200000000032750000000003275000000000328818980000000000004751700000000015597657300000000000000009999123100000010000000000000BREQTLACNOR0130
012024070802INEP3       010INEPAR      ON           R$  000000000019700000000001980000000000193000000000019500000000001950000000000194000000000019500088000000000000033600000000000006554800000000000000009999123100000010000000000000BRINEPACNOR1143
012024070802CAMB3       010CAMBUCI     ON           R$  000000000106600000000010720000000001050000000000106100000000010500000000001050000000000106000056000000000000015800000000000016768400000000000000009999123100000010000000000000BRCAMBACNOR4130
012024070802CAML3       010CAMIL       ON      NM   R$  000000000085200000000008690000000000846000000000085900000000008690000000000867000000000086901877000000000000534000000000000459044400000000000000009999123100000010000000000000BRCAMLACNOR3128
012024070802CASH3       010MELIUZ      ON      NM   R$  000000000061300000000006250000000000599000000000061600000000006220000000000617000000000062203099000000000001224100000000000754629900000000000000009999123100000010000000000000BRCASHACNOR8106
012024070802CBAV3       010CBA         ON      NM   R$  000000000070700000000007230000000000702000000000071000000000007120000000000708000000000071204783000000000002480800000000001762685000000000000000009999123100000010000000000000BRCBAVACNOR5104
012024070802CCRO3       010CCR SA      ON      NM   R$  000000000122200000000012480000000001211000000000123400000000012450000000001243000000000124521727000000000008407600000000010379417400000000000000009999123100000010000000000000BRCCROACNOR2145
012024070802INEP4       010INEPAR      PN           R$  000000000018800000000001930000000000186000000000018700000000001880000000000187000000000018800042000000000000016700000000000003135300000000000000009999123100000010000000000000BRINEPACNPR8143
012024070802INTB3       010INTELBRAS   ON      NM   R$  000000000226800000000022820000000002238000000000226200000000022670000000002245000000000226803890000000000000678000000000001534101200000000000000009999123100000010000000000000BRINTBACNOR9111
012024070802IRBR3       010IRBBRASIL REON      NM   R$  000000000305400000000030800000000003019000000000304500000000030300000000003030000000000303203293000000000000830700000000002529975600000000000000009999123100000010000000000000BRIRBRACNOR4111
012024070802ESPA3       010ESPACOLASER ON      NM   R$  000000000010300000000001050000000000103000000000010400000000001050000000000104000000000010500358000000000000368500000000000038341300000000000000009999123100000010000000000000BRESPAACNOR7103
012024070802ESTR4       010ESTRELA     PN           R$  000000000018400000000001840000000000184000000000018400000000001840000000000181000000000018400001000000000000000100000000000000018400000000000000009999123100000010000000000000BRESTRACNPR0144
012024070802EUCA3       010EUCATEX     ON      N1   R$  000000000162000000000016420000000001602000000000162500000000016020000000001527000000000164400005000000000000000500000000000000812600000000000000009999123100000010000000000000BREUCAACNOR1157
012024070802EUCA4       010EUCATEX     PN      N1   R$  000000000154100000000015650000000001520000000000154500000000015530000000001538000000000155300292000000000000045500000000000070329900000000000000009999123100000010000000000000BREUCAACNPR8044
012024070802EVEN3       010EVEN        ON      NM   R$  000000000068000000000006800000000000651000000000065900000000006550000000000655000000000065701756000000000000397000000000000261698300000000000000009999123100000010000000000000BREVENACNOR8119
012024070802EZTC3       010EZTEC       ON      NM   R$  000000000135600000000013630000000001335000000000134600000000013490000000001348000000000134902678000000000001206300000000001623828900000000000000009999123100000010000000000000BREZTCACNOR0125
012024070802MATD3       010MATER DEI   ON      NM   R$  000000000049900000000005070000000000489000000000049800000000005000000000000499000000000050000951000000000000186400000000000092955700000000000000009999123100000010000000000000BRMATDACNOR4104
012024070802MBLY3       010MOBLY       ON      NM   R$  000000000021800000000002300000000000215000000000022200000000002220000000000220000000000022200395000000000000882800000000000196017500000000000000009999123100000010000000000000BRMBLYACNOR5100
012024070802MDIA3       010M.DIASBRANCOON      NM   R$  000000000278000000000028010000000002741000000000278200000000027930000000002786000000000279303099000000000000567000000000001577912700000000000000009999123100000010000000000000BRMDIAACNOR7135
012024070802MDNE3       010MOURA DUBEUXON      NM   R$  000000000128600000000013110000000001270000000000128500000000012850000000001282000000000128602444000000000000488500000000000627898800000000000000009999123100000010000000000000BRMDNEACNOR9100
012024070802MEAL3       010IMC S/A     ON      NM   R$  000000000014400000000001570000000000141000000000015000000000001570000000000154000000000015701027000000000001840000000000000276825800000000000000009999123100000010000000000000BRMEALACNOR9105
012024070802MELK3       010MELNICK     ON      NM   R$  000000000038800000000003880000000000372000000000037400000000003720000000000372000000000037300456000000000000262700000000000098495600000000000000009999123100000010000000000000BRMELKACNOR8111
012024070802MGLU3       010MAGAZ LUIZA ON      NM   R$  000000000134800000000013590000000001277000000000131900000000012890000000001288000000000129021664000000000024871900000000032819280800000000000000009999123100000010000000000000BRMGLUACNOR2124
012024070802ONCO3       010ONCOCLINICASON      NM   R$  000000000070600000000007700000000000701000000000074700000000007580000000000758000000000075907607000000000004445300000000003324317200000000000000009999123100000010000000000000BRONCOACNOR6101
012024070802FESA3       010FERBASA     ON      N1   R$  000000000136800000000013680000000001368000000000136800000000013680000000001360000000000145000001000000000000000200000000000000273600000000000000009999123100000010000000000000BRFESAACNOR8188
012024070802FESA4       010FERBASA     PN      N1   R$  000000000086300000000008760000000000852000000000086600000000008730000000000873000000000087402780000000000000748600000000000648491400000000000000009999123100000010000000000000BRFESAACNPR5084
012024070802FHER3       010FER HERINGERON      NM   R$  000000000041300000000004200000000000398000000000040400000000004010000000000401000000000040200054000000000000016100000000000006515400000000000000009999123100000010000000000000BRFHERACNOR5103
012024070802ITSA3       010ITAUSA      ON      N1   R$  000000000099600000000009980000000000983000000000099000000000009850000000000985000000000099400452000000000000117000000000000115917200000000000000009999123100000010000000000000BRITSAACNOR0441
012024070802ITSA4       010ITAUSA      PN      N1   R$  000000000099500000000009960000000000985000000000099000000000009910000000000990000000000099230332000000000016748500000000016586094200000000000000009999123100000010000000000000BRITSAACNPR7441
012024070802ITUB3       010ITAUUNIBANCOON  EJ  N1   R$  000000000283000000000028410000000002811000000000282600000000028360000000002828000000000283700957000000000000235900000000000666744600000000000000009999123100000010000000000000BRITUBACNOR4338
012024070802ITUB4       010ITAUUNIBANCOPN  EJ  N1   R$  000000000328300000000033000000000003260000000000327800000000032870000000003276000000000328730939000000000017394700000000057023626300000000000000009999123100000010000000000000BRITUBACNPR1338
012024070802OPCT3       010OCEANPACT   ON      NM   R$  000000000067000000000006700000000000656000000000065900000000006590000000000658000000000066200591000000000000368800000000000243394100000000000000009999123100000010000000000000BROPCTACNOR0100
012024070802ORVR3       010ORIZON      ON      NM   R$  000000000400900000000040620000000004009000000000403800000000040430000000004038000000000404300882000000000000165900000000000669982300000000000000009999123100000010000000000000BRORVRACNOR0101
012024070802PDGR3       010PDG REALT   ON      NM   R$  000000000001900000000000190000000000017000000000001800000000000180000000000018000000000001900311000000000000866500000000000015707500000000000000009999123100000010000000000000BRPDGRACNOR8118
012024070802PDTC3       010PADTEC      ON      NM   R$  000000000020000000000002020000000000198000000000019900000000001990000000000198000000000019900046000000000000032500000000000006493400000000000000009999123100000010000000000000BRPDTCACNOR3101
012024070802PETR3       010PETROBRAS   ON      N2   R$  000000000403400000000041360000000003993000000000409100000000041220000000004120000000000413034965000000000013644300000000055819620500000000000000009999123100000010000000000000BRPETRACNOR9205
012024070802PETR4       010PETROBRAS   PN      N2   R$  000000000374800000000038520000000003729000000000380900000000038440000000003844000000000384589250000000000048845900000000186092137700000000000000009999123100000010000000000000BRPETRACNPR6213
012024070802BEES3       010BANESTES    ON  EJ       R$  000000000091500000000009150000000000904000000000090800000000009050000000000905000000000090800060000000000000008500000000000007723700000000000000009999123100000010000000000000BRBEESACNOR9393
012024070802BEES4       010BANESTES    PN  EJ       R$  000000000096400000000009770000000000953000000000096500000000009770000000000967000000000099900015000000000000003300000000000003185200000000000000009999123100000010000000000000BRBEESACNPR6318
012024070802PCAR3       010P.ACUCAR-CBDON      NM   R$  000000000031200000000003160000000000305000000000031100000000003120000000000310000000000031209533000000000010158400000000003161817600000000000000009999123100000010000000000000BRPCARACNOR3167
012024070802BGIP3       010BANESE      ON           R$  000000000248700000000024870000000002487000000000248700000000024870000000002400000000000350000001000000000000000100000000000000248700000000000000009999123100000010000000000000BRBGIPACNOR1208
012024070802BHIA3       010CASAS BAHIA ON      NM   R$  000000000059100000000005910000000000567000000000057400000000005680000000000568000000000056902749000000000002591500000000001488573100000000000000009999123100000010000000000000BRBHIAACNOR1102
012024070802B3SA3       010B3          ON      NM   R$  000000000104300000000010760000000001043000000000106400000000010690000000001068000000000106936450000000000045874000000000048831637300000000000000009999123100000010000000000000BRB3SAACNOR6133
012024070802KRSA3       010KORA SAUDE  ON      NM   R$  000000000006500000000000670000000000064000000000006500000000000670000000000066000000000006700289000000000000531000000000000034999600000000000000009999123100000010000000000000BRKRSAACNOR0100
012024070802BEEF3       010MINERVA     ON      NM   R$  000000000068600000000006890000000000674000000000068200000000006890000000000687000000000068906300000000000004443100000000003030340400000000000000009999123100000010000000000000BRBEEFACNOR6116
012024070802BRBI11      010BR PARTNERS UNT     N2   R$  000000000143100000000014590000000001415000000000144000000000014350000000001435000000000144200955000000000000218300000000000314378800000000000000009999123100000010000000000000BRBRBICDAM10109
012024070802BRFS3       010BRF SA      ON      NM   R$  000000000226700000000022930000000002234000000000226400000000022780000000002276000000000227811738000000000004004400000000009067912200000000000000009999123100000010000000000000BRBRFSACNOR8122
012024070802CSNA3       010SID NACIONALON           R$  000000000129000000000012980000000001275000000000129100000000012970000000001293000000000129809689000000000004614200000000005959436200000000000000009999123100000010000000000000BRCSNAACNOR6261
012024070802LAND3       010TERRASANTAPAON      NM   R$  000000000149400000000014940000000001420000000000143800000000014200000000001419000000000142000294000000000000055800000000000080241500000000000000009999123100000010000000000000BRLANDACNOR9103
012024070802LAVV3       010LAVVI       ON      NM   R$  000000000088800000000008960000000000877000000000088700000000008960000000000891000000000089604458000000000000923700000000000819776600000000000000009999123100000010000000000000BRLAVVACNOR4112
012024070802LEVE3       010METAL LEVE  ON      NM   R$  000000000335000000000033680000000003311000000000334000000000033490000000003349000000000335002057000000000000355400000000001187342900000000000000009999123100000010000000000000BRLEVEACNOR2197
012024070802LJQQ3       010QUERO-QUERO ON      NM   R$  000000000041500000000004250000000000404000000000041600000000004210000000000421000000000042306199000000000003092200000000001287789900000000000000009999123100000010000000000000BRLJQQACNOR5104
012024070802CSRN3       010COSERN      ON           R$  000000000220100000000022500000000002200000000000220400000000022500000000002200000000000227300005000000000000001300000000000002865200000000000000009999123100000010000000000000BRCSRNACNOR0193
012024070802CSRN5       010COSERN      PNA          R$  000000000217000000000021700000000002120000000000214800000000021200000000002120000000000217000003000000000000000500000000000001074000000000000000009999123100000010000000000000BRCSRNACNPA3193
012024070802CSUD3       010CSU DIGITAL ON  EJ  NM   R$  000000000195000000000019990000000001941000000000196700000000019870000000001979000000000198700254000000000000047000000000000092452100000000000000009999123100000010000000000000BRCSUDACNOR5110
012024070802CTKA3       010KARSTEN     ON           R$  000000000199900000000019990000000001999000000000199900000000019990000000001000000000000210000001000000000000000100000000000000199900000000000000009999123100000010000000000000BRCTKAACNOR0043
012024070802CTKA4       010KARSTEN     PN           R$  000000000187900000000018790000000001879000000000187900000000018790000000001712000000000187900001000000000000000100000000000000187900000000000000009999123100000010000000000000BRCTKAACNPR7043
012024070802CURY3       010CURY S/A    ON      NM   R$  000000000217500000000021810000000002127000000000214200000000021450000000002133000000000214706691000000000001429200000000003061820900000000000000009999123100000010000000000000BRCURYACNOR3109
012024070802CVCB3       010CVC BRASIL  ON      NM   R$  000000000020500000000002060000000000198000000000020000000000002000000000000200000000000020106859000000000012178300000000002446108300000000000000009999123100000010000000000000BRCVCBACNOR1116
012024070802ELMD3       010ELETROMIDIA ON      NM   R$  000000000187500000000019010000000001852000000000187600000000018730000000001873000000000187500373000000000000063200000000000118598300000000000000009999123100000010000000000000BRELMDACNOR3101
012024070802LOGG3       010LOG COM PROPON      NM   R$  000000000248400000000025030000000002425000000000246000000000024400000000002429000000000244001099000000000000173200000000000426132300000000000000009999123100000010000000000000BRLOGGACNOR7107
012024070802LOGN3       010LOG-IN      ON      NM   R$  000000000398100000000041430000000003960000000000407700000000041250000000004093000000000412500196000000000000080000000000000326194400000000000000009999123100000010000000000000BRLOGNACNOR3105
012024070802LPSB3       010LOPES BRASILON      NM   R$  000000000019200000000001950000000000191000000000019300000000001940000000000194000000000019500094000000000000129900000000000025173100000000000000009999123100000010000000000000BRLPSBACNOR0114
012024070802LREN3       010LOJAS RENNERON      NM   R$  000000000133000000000013330000000001302000000000131100000000013100000000001306000000000131017855000000000019274700000000025275005400000000000000009999123100000010000000000000BRLRENACNOR1221
012024070802ATOM3       010ATOMPAR     ON           R$  000000000020900000000002090000000000199000000000020200000000002060000000000202000000000020500016000000000000005000000000000001010900000000000000009999123100000010000000000000BRATOMACNOR1106
012024070802AURE3       010AUREN       ON      NM   R$  000000000123800000000012410000000001221000000000123300000000012340000000001234000000000123506715000000000002888000000000003561914100000000000000009999123100000010000000000000BRAUREACNOR9104
012024070802EMAE4       010EMAE        PN           R$  000000000481700000000048230000000004725000000000478800000000047990000000004750000000000480000008000000000000001100000000000005267200000000000000009999123100000010000000000000BREMAEACNPR1125
012024070802EMBR3       010EMBRAER     ON      NM   R$  000000000359000000000036690000000003590000000000362800000000036640000000003663000000000366417673000000000005527700000000020059440000000000000000009999123100000010000000000000BREMBRACNOR4191
012024070802ENAT3       010ENAUTA PART ON      NM   R$  000000000231000000000023160000000002248000000000227100000000022480000000002248000000000225003956000000000001124000000000002553371300000000000000009999123100000010000000000000BRENATACNOR0104
012024070802ENEV3       010ENEVA       ON      NM   R$  000000000130900000000013120000000001270000000000128000000000012760000000001276000000000127718105000000000008682500000000011121571000000000000000009999123100000010000000000000BRENEVACNOR8106
012024070802IFCM3       010INFRACOMM   ON      NM   R$  000000000003700000000000400000000000036000000000003800000000000380000000000038000000000003902668000000000009413900000000000357736400000000000000009999123100000010000000000000BRIFCMACNOR8101
012024070802IGTI11      010IGUATEMI S.AUNT     N1   R$  000000000219000000000022040000000002162000000000217800000000021700000000002170000000000218707079000000000001668900000000003635741600000000000000009999123100000010000000000000BRIGTICDAM16106
012024070802IGTI3       010IGUATEMI S.AON      N1   R$  000000000027300000000002740000000000269000000000027100000000002700000000000268000000000027300106000000000000023900000000000006479700000000000000009999123100000010000000000000BRIGTIACNOR8106
012024070802AVLL3       010ALPHAVILLE  ON      NM   R$  000000000033400000000003340000000000333000000000033300000000003330000000000318000000000033400002000000000000041100000000000013686400000000000000009999123100000010000000000000BRAVLLACNOR5103
012024070802AZEV3       010AZEVEDO     ON           R$  000000000016000000000001630000000000155000000000015800000000001570000000000157000000000015800472000000000000529900000000000084097900000000000000009999123100000010000000000000BRAZEVACNOR0121
012024070802AZEV4       010AZEVEDO     PN           R$  000000000015700000000001590000000000153000000000015500000000001540000000000154000000000015500892000000000002184400000000000339699300000000000000009999123100000010000000000000BRAZEVACNPR7121
012024070802AZUL4       010AZUL        PN      N2   R$  000000000082000000000008700000000000809000000000084600000000008630000000000862000000000086315972000000000017192600000000014553982100000000000000009999123100000010000000000000BRAZULACNPR4102
012024070802BPAC11      010BTGP BANCO  UNT EJ  N2   R$  000000000320900000000032800000000003206000000000325100000000032390000000003238000000000323919161000000000009729900000000031634581800000000000000009999123100000010000000000000BRBPACUNT006119
012024070802BPAC3       010BTGP BANCO  ON  EJ  N2   R$  000000000155300000000016060000000001540000000000156700000000015790000000001540000000000159000043000000000000006300000000000009878200000000000000009999123100000010000000000000BRBPACACNOR7134
012024070802LUPA3       010LUPATECH    ON      NM   R$  000000000016900000000001710000000000167000000000016800000000001690000000000168000000000016900082000000000000065600000000000011069300000000000000009999123100000010000000000000BRLUPAACNOR8112
012024070802LVTC3       010WDC NETWORKSON      NM   R$  000000000034900000000003800000000000349000000000037000000000003790000000000363000000000037900042000000000000020900000000000007741400000000000000009999123100000010000000000000BRLVTCACNOR4102
012024070802LWSA3       010LWSA        ON      NM   R$  000000000044400000000004580000000000443000000000045000000000004480000000000448000000000044909420000000000008324600000000003753724700000000000000009999123100000010000000000000BRLWSAACNOR8103
012024070802NGRD3       010NEOGRID     ON      NM   R$  000000000009200000000000970000000000092000000000009500000000000940000000000093000000000009400455000000000000303200000000000028854400000000000000009999123100000010000000000000BRNGRDACNOR3104
012024070802BPAC5       010BTGP BANCO  PNA EJ  N2   R$  000000000083400000000008570000000000828000000000083900000000008390000000000830000000000084900031000000000000005200000000000004365300000000000000009999123100000010000000000000BRBPACACNPA0134
012024070802CPLE3       010COPEL       ON      N2   R$  000000000086900000000008820000000000861000000000087400000000008730000000000872000000000087406696000000000003024500000000002646278200000000000000009999123100000010000000000000BRCPLEACNOR8149
012024070802CPLE6       010COPEL       PNB     N2   R$  000000000097600000000009970000000000970000000000098500000000009840000000000983000000000098517983000000000010829200000000010671103000000000000000009999123100000010000000000000BRCPLEACNPB9146
012024070802CRFB3       010CARREFOUR BRON      NM   R$  000000000101300000000010360000000001003000000000102500000000010350000000001033000000000103513552000000000007549800000000007743414800000000000000009999123100000010000000000000BRCRFBACNOR2116
012024070802CRPG5       010CRISTAL     PNA          R$  000000000292100000000029210000000002895000000000290500000000028950000000002900000000000291800013000000000000001300000000000003777000000000000000009999123100000010000000000000BRCRPGACNPA3119
012024070802CRPG6       010CRISTAL     PNB          R$  000000000294900000000029490000000002949000000000293300000000029490000000002930000000000295000003000000000000000300000000000000880000000000000000009999123100000010000000000000BRCRPGACNPB1119
012024070802NINJ3       010GETNINJAS   ON      NM   R$  000000000045300000000004620000000000453000000000045700000000004570000000000453000000000046000052000000000000015500000000000007095300000000000000009999123100000010000000000000BRNINJACNOR5101
012024070802NORD3       010NORDON MET  ON           R$  000000000062000000000006200000000000580000000000060800000000005800000000000564000000000058500007000000000000001100000000000000669800000000000000009999123100000010000000000000BRNORDACNOR7135
012024070802NTCO3       010GRUPO NATURAON      NM   R$  000000000157500000000015970000000001555000000000157900000000015900000000001587000000000159108422000000000005964300000000009418773200000000000000009999123100000010000000000000BRNTCOACNOR5106
012024070802BBSE3       010BBSEGURIDADEON      NM   R$  000000000332000000000033280000000003298000000000330900000000033190000000003318000000000331910498000000000002715000000000008984673900000000000000009999123100000010000000000000BRBBSEACNOR5124
012024070802BPAN4       010BANCO PAN   PN      N1   R$  000000000083000000000008360000000000819000000000082600000000008300000000000823000000000083003714000000000001350900000000001117139400000000000000009999123100000010000000000000BRBPANACNPR1115
012024070802BRAP3       010BRADESPAR   ON      N1   R$  000000000184800000000018500000000001817000000000183600000000018500000000001850000000000185200405000000000000084500000000000155217400000000000000009999123100000010000000000000BRBRAPACNOR5148
012024070802BRAP4       010BRADESPAR   PN      N1   R$  000000000190300000000019110000000001890000000000189800000000018990000000001899000000000190005845000000000002277100000000004322307200000000000000009999123100000010000000000000BRBRAPACNPR2148
012024070802CSAN3       010COSAN       ON      NM   R$  000000000141400000000014240000000001382000000000139600000000013970000000001395000000000139713617000000000013020000000000018180387300000000000000009999123100000010000000000000BRCSANACNOR6126
012024070802CSED3       010CRUZEIRO EDUON      NM   R$  000000000042000000000004220000000000407000000000041100000000004110000000000411000000000041201706000000000000330500000000000136029100000000000000009999123100000010000000000000BRCSEDACNOR9104
012024070802CSMG3       010COPASA      ON      NM   R$  000000000207400000000021000000000002056000000000208500000000020900000000002075000000000209003879000000000000818000000000001706174900000000000000009999123100000010000000000000BRCSMGACNOR5174
012024070802EALT4       010ACO ALTONA  PN           R$  000000000112500000000011470000000001123000000000112700000000011350000000001122000000000113400008000000000000001000000000000001127400000000000000009999123100000010000000000000BREALTACNPR1138
012024070802ECOR3       010ECORODOVIAS ON      NM   R$  000000000072100000000007350000000000716000000000072400000000007350000000000725000000000073507511000000000004076100000000002951896400000000000000009999123100000010000000000000BRECORACNOR8120
012024070802EGIE3       010ENGIE BRASILON      NM   R$  000000000453000000000045680000000004513000000000455200000000045610000000004556000000000456102927000000000000637200000000002900665100000000000000009999123100000010000000000000BREGIEACNOR9126
012024070802EKTR4       010ELEKTRO     PN           R$  000000000395500000000039550000000003950000000000395200000000039500000000003912000000000395000015000000000000003600000000000014229100000000000000009999123100000010000000000000BREKTRACNPR7163
012024070802HAGA4       010HAGA S/A    PN           R$  000000000011600000000001170000000000116000000000011600000000001170000000000115000000000011700011000000000000002800000000000000326600000000000000009999123100000010000000000000BRHAGAACNPR4103
012024070802HAPV3       010HAPVIDA     ON      NM   R$  000000000039300000000004000000000000392000000000039500000000003930000000000393000000000039415940000000000029688000000000011742986800000000000000009999123100000010000000000000BRHAPVACNOR4114
012024070802HBOR3       010HELBOR      ON      NM   R$  000000000022600000000002270000000000221000000000022300000000002210000000000221000000000022400649000000000000267000000000000059702600000000000000009999123100000010000000000000BRHBORACNOR3118
012024070802HBRE3       010HBR REALTY  ON      NM   R$  000000000055800000000005630000000000543000000000054900000000005430000000000543000000000054500826000000000000275100000000000151039700000000000000009999123100000010000000000000BRHBREACNOR4100
012024070802ELET3       010ELETROBRAS  ON      N1   R$  000000000382300000000038620000000003776000000000380600000000037880000000003787000000000378817529000000000006444000000000024529253800000000000000009999123100000010000000000000BRELETACNOR6160
012024070802ELET6       010ELETROBRAS  PNB     N1   R$  000000000424100000000042830000000004203000000000422600000000042130000000004213000000000421704669000000000000976200000000004126169600000000000000009999123100000010000000000000BRELETACNPB7077
012024070802HBSA3       010HIDROVIAS   ON      NM   R$  000000000039800000000004040000000000387000000000039300000000003990000000000398000000000040202390000000000002538700000000001000001800000000000000009999123100000010000000000000BRHBSAACNOR0100
012024070802HETA4       010HERCULES    PN           R$  000000000053500000000005350000000000535000000000053500000000005350000000000527000000000062700001000000000000000100000000000000053500000000000000009999123100000010000000000000BRHETAACNPR9136
012024070807TXRX4       010TEX RENAUX  PN           R$  000000000022600000000002350000000000226000000000022600000000002270000000000228000000000023500004000000000000001700000000000000385200000000000000009999123100000010000000000000BRTXRXACNPR0142
012024070807NUTR3       010NUTRIPLANT  ON      MA   R$  000000000048600000000005040000000000486000000000049700000000005010000000000495000000000050100020000000000000002400000000000001194100000000000000009999123100000010000000000000BRNUTRACNOR0104
012024070808HOOT4       010HOTEIS OTHONPN           R$  000000000025600000000002560000000000256000000000025600000000002560000000000257000000000027500002000000000000000300000000000000076800000000000000009999123100000010000000000000BRHOOTACNPR9015
012024070808RPMG3       010PET MANGUINHON           R$  000000000028000000000002840000000000273000000000027800000000002730000000000273000000000027400084000000000000020400000000000005689900000000000000009999123100000010000000000000BRRPMGACNOR9194
012024070808JFEN3       010JOAO FORTES ON           R$  000000000003600000000000390000000000034000000000003600000000000360000000000036000000000003702927000000000001524300000000000055196500000000000000009999123100000010000000000000BRJFENACNOR0059
012024070808OIBR3       010OI          ON      N1   R$  000000000062500000000006290000000000614000000000062000000000006140000000000614000000000061801037000000000000527100000000000327255100000000000000009999123100000010000000000000BROIBRACNOR1111
012024070808RNEW11      010RENOVA      UNT     N2   R$  000000000027700000000002790000000000276000000000027700000000002760000000000274000000000027600005000000000000000500000000000000138800000000000000009999123100000010000000000000BRRNEWCDAM15110
012024070808RNEW3       010RENOVA      ON      N2   R$  000000000009000000000000930000000000090000000000009100000000000920000000000092000000000009300035000000000000021900000000000002002200000000000000009999123100000010000000000000BRRNEWACNOR8110
012024070808RNEW4       010RENOVA      PN      N2   R$  000000000009100000000000920000000000090000000000009100000000000910000000000090000000000009200065000000000000027000000000000002461900000000000000009999123100000010000000000000BRRNEWACNPR5110
012024070808SGPS3       010SPRINGS     ON  EG  NM   R$  000000000017800000000001780000000000178000000000017800000000001780000000000170000000000017800025000000000000011600000000000002064800000000000000009999123100000010000000000000BRSGPSACNOR4105
012024070808AMER3       010AMERICANAS  ON      NM   R$  000000000004600000000000500000000000046000000000004800000000000500000000000050000000000005103879000000000033040200000000001595782100000000000000009999123100000010000000000000BRAMERACNOR6102
012024070808PMAM3       010PARANAPANEMAON      NM   R$  000000000024200000000002450000000000241000000000024200000000002440000000000243000000000024500072000000000000023600000000000005730500000000000000009999123100000010000000000000BRPMAMACNOR3039
012024070808RSID3       010ROSSI RESID ON      NM   R$  000000000053200000000005440000000000532000000000053600000000005400000000000526000000000054000079000000000000011700000000000006281500000000000000009999123100000010000000000000BRRSIDACNOR8120
012024070808ETER3       010ETERNIT     ON      NM   R$  000000000061800000000006290000000000616000000000062100000000006220000000000618000000000062200367000000000000093100000000000057839700000000000000009999123100000010000000000000BRETERACNOR3243
012024070808OIBR4       010OI          PN      N1   R$  000000000152100000000015320000000001519000000000152800000000015230000000001522000000000153000035000000000000003900000000000005959400000000000000009999123100000010000000000000BROIBRACNPR8110
012024070808OSXB3       010OSX BRASIL  ON      NM   R$  000000000038500000000003850000000000375000000000037800000000003830000000000377000000000038300007000000000000001500000000000000567500000000000000009999123100000010000000000000BROSXBACNOR8109
012024070808LIGT3       010LIGHT S/A   ON      NM   R$  000000000049600000000005070000000000496000000000050300000000005030000000000503000000000050401168000000000000346100000000000174185700000000000000009999123100000010000000000000BRLIGTACNOR2124
012024070808CTNM4       010COTEMINAS   PN           R$  000000000007000000000000700000000000070000000000007000000000000700000000000065000000000007000008000000000000010700000000000000749000000000000000009999123100000010000000000000BRCTNMACNPR6129
012024070808CTSA3       010SANTANENSE  ON           R$  000000000022900000000002290000000000229000000000022900000000002290000000000223000000000022800001000000000000000200000000000000045800000000000000009999123100000010000000000000BRCTSAACNOR3062
012024070808CTSA4       010SANTANENSE  PN           R$  000000000008400000000000840000000000084000000000008400000000000840000000000083000000000008400007000000000000002400000000000000201600000000000000009999123100000010000000000000BRCTSAACNPR0062
012024070808ATMP3       010ATMASA      ON           R$  000000000019400000000001940000000000190000000000019100000000001930000000000189000000000019100015000000000000015300000000000002928200000000000000009999123100000010000000000000BRATMPACNOR8100
012024070808NEXP3       010NEXPE       ON           R$  000000000041600000000004200000000000416000000000041900000000004200000000000415000000000043000004000000000000000500000000000000209600000000000000009999123100000010000000000000BRNEXPACNOR0101
012024070810VIVR1       010VIVER       DIR ORD NM   R$  000000000000100000000000010000000000001000000000000100000000000010000000000000000000000000100006000000000000009800000000000000009800000000000000009999123100000010000000000000BRVIVRD18OR3122
012024070810RENT1       010LOCALIZA    DIR ORD NM   R$  000000000117800000000011780000000001105000000000112700000000011400000000001117000000000114200071000000000000011300000000000012740500000000000000009999123100000010000000000000BRRENTD06OR8195
012024070810BODB12      010FIC FI BCNA DIR          R$  000000000000100000000000010000000000001000000000000100000000000010000000000000000000000000100019000000000000026856000000000000026856000000000000009999123100000010000000000000BRBODBD04M10134
012024070810BSLI10      010BRB BANCO   PN  REC      R$  000000000089000000000008900000000000890000000000089000000000008900000000000801000000000089000001000000000000000200000000000000178000000000000000009999123100000010000000000000BRBSLIR02PR5192
012024070810AMAR1       010LOJAS MARISADIR ORD NM   R$  000000000000100000000000010000000000001000000000000100000000000010000000000000000000000000100066000000000000230600000000000000230600000000000000009999123100000010000000000000BRAMARD02OR7114
012024070812HGRU11      010FII HGRU PAXCI  ER       R$  000000001287900000000129350000000012690000000001279900000000128000000000012790000000001280008118000000000000033388000000000427333412000000000000009999123100000010000000000000BRHGRUCTF002177
012024070812HLOG11      010FII HEDGELOGCI  ER       R$  000000000817500000000081900000000008172000000000818400000000081900000000008158000000000819000022000000000000000532000000000004354395000000000000009999123100000010000000000000BRHLOGCTF008157
012024070812HOFC11      010FII HOFFICEICI  ER       R$  000000000304000000000030990000000002931000000000299000000000030990000000003010000000000309900079000000000000001792000000000005358732000000000000009999123100000010000000000000BRHOFCCTF009115
012024070812HOSI11      010FII HOUSI   CI  ER       R$  000000000964800000000098060000000009647000000000975700000000097950000000009650000000000979500006000000000000000011000000000000107332000000000000009999123100000010000000000000BRHOSICTF009146
012024070812HPDP11      010FII HEDGEPDPCI  ER       R$  000000000858100000000087070000000008581000000000865200000000086510000000008650000000000889400004000000000000000009000000000000077870000000000000009999123100000010000000000000BRHPDPCTF003153
012024070812HRDF11      010FII HREALTY CI           R$  000000000035900000000003590000000000359000000000035900000000003590000000000341000000000035500001000000000000000030000000000000010770000000000000009999123100000010000000000000BRHRDFCTF000103
012024070812HREC11      010FII HEDGERECCI  ER       R$  000000000084700000000008570000000000840000000000084600000000008570000000000844000000000085700080000000000000015050000000000012744488000000000000009999123100000010000000000000BRHRECCTF005150
012024070812HSAF11      010FII HSI CRI CI  ER       R$  000000000842600000000085900000000008405000000000844200000000084380000000008432000000000845700913000000000000004087000000000034503533000000000000009999123100000010000000000000BRHSAFCTF004149
012024070812HSLG11      010FII HSI LOG CI  ER       R$  000000000851700000000087200000000008500000000000862100000000085610000000008560000000000856101351000000000000009287000000000080071064000000000000009999123100000010000000000000BRHSLGCTF009143
012024070812HSML11      010FII HSI MALLCI  ER       R$  000000000932000000000094860000000009320000000000943900000000094720000000009470000000000947209962000000000000056137000000000529888662000000000000009999123100000010000000000000BRHSMLCTF007162
012024070812HSRE11      010FII HSIRENDACI  ER       R$  000000001089900000000109000000000010899000000001089900000000109000000000010660000000001090000010000000000000000032000000000000348798000000000000009999123100000010000000000000BRHSRECTF001142
012024070812RNGO11      010FII RIONEGROCI  ER       R$  000000000455000000000046180000000004530000000000455100000000046010000000004600000000000465000149000000000000003445000000000015680208000000000000009999123100000010000000000000BRRNGOCTF003244
012024070812RPRI11      010FII RBR PR  CI  ER       R$  000000000935100000000094960000000009351000000000939900000000094250000000009400000000000942400426000000000000001150000000000010808998000000000000009999123100000010000000000000BRRPRICTF007129
012024070812RRCI11      010FII RBCAP RICI  ER       R$  000000000769000000000077250000000007640000000000766400000000076700000000007670000000000772500019000000000000000461000000000003533140000000000000009999123100000010000000000000BRRRCICTF005143
012024070812TEPP11      010FII TEL PROPCI  ER       R$  000000000919500000000092240000000009104000000000917100000000091050000000009105000000000915803838000000000000010313000000000094586492000000000000009999123100000010000000000000BRTEPPCTF006151
012024070812TGAR11      010FII TG ATIVOCI  ER       R$  000000001199800000000120150000000011851000000001193000000000118800000000011872000000001188013802000000000000079709000000000950934903000000000000009999123100000010000000000000BRTGARCTF009192
012024070812TJKB11      010FII TJK RENDCI           R$  000000002830000000000283000000000028300000000002830000000000283000000000026699000000002830000001000000000000000017000000000000481100000000000000009999123100000010000000000000BRTJKBCTF006130
012024070812TMPS11      010FII ITAU TEMCI  ER       R$  000000000950600000000095780000000009505000000000951700000000095780000000009508000000000957800022000000000000000992000000000009441663000000000000009999123100000010000000000000BRTMPSCTF003115
012024070812VCJR11      010FII VECTIS  CI  ER       R$  000000000906400000000090640000000009039000000000905500000000090560000000009045000000000905606308000000000000032437000000000293735655000000000000009999123100000010000000000000BRVCJRCTF005156
012024070812VCRI11      010FII VINCI CRCI  ER       R$  000000000087300000000008730000000000868000000000086900000000008680000000000868000000000087100267000000000000010815000000000009402969000000000000009999123100000010000000000000BRVCRICTF007126
012024070812SADI11      010FII SANT PAPCI  ER       R$  000000000897500000000090000000000008971000000000898200000000089750000000008974000000000897500112000000000000001097000000000009853695000000000000009999123100000010000000000000BRSADICTF007160
012024070812TORD11      010FII TORDE EICI           R$  000000000014400000000001450000000000143000000000014400000000001450000000000144000000000014500393000000000000031540000000000004555287000000000000009999123100000010000000000000BRTORDCTF015138
012024070812TRBL11      010FII SDI LOG CI  ER       R$  000000000978500000000099000000000009550000000000964900000000096110000000009611000000000966303319000000000000036078000000000348118223000000000000009999123100000010000000000000BRTRBLCTF007113
012024070812VCRR11      010FII VECT RENCI  ER       R$  000000000636000000000063600000000006215000000000625000000000062400000000006241000000000625002448000000000000005614000000000035088460000000000000009999123100000010000000000000BRVCRRCTF008137
012024070812VGHF11      010FII VALOR HECI  ER       R$  000000000088100000000008830000000000872000000000087800000000008780000000000877000000000087818795000000000000751086000000000659572181000000000000009999123100000010000000000000BRVGHFCTF005145
012024070812VGIP11      010FII VALORAIPCI           R$  000000000886700000000091300000000008867000000000904500000000090720000000009032000000000907207756000000000000045050000000000407497110000000000000009999123100000010000000000000BRVGIPCTF002156
012024070812VGIR11      010FII VALREIIICI           R$  000000000100600000000010150000000001005000000000101000000000010150000000001014000000000101531503000000000000502445000000000507488366000000000000009999123100000010000000000000BRVGIRCTF008176
012024070812VGRI11      010FII VGRI    CI  ER       R$  000000000095900000000009590000000000922000000000093300000000009220000000000922000000000093601732000000000000047970000000000044787442000000000000009999123100000010000000000000BRVGRICTF008104
012024070812VIFI11      010FII VINCI IFCI  ER       R$  000000000079600000000007990000000000793000000000079500000000007990000000000798000000000079900073000000000000000525000000000000417688000000000000009999123100000010000000000000BRVIFICTF009157
012024070812VILG11      010FII VINCI LGCI  ER       R$  000000000899000000000090680000000008956000000000903000000000089750000000008975000000000899003834000000000000022671000000000204733510000000000000009999123100000010000000000000BRVILGCTF001172
012024070812VINO11      010FII VINCI OFCI  ER       R$  000000000067700000000006790000000000640000000000065200000000006400000000000640000000000064510065000000000000531644000000000347024596000000000000009999123100000010000000000000BRVINOCTF001158
012024070812VISC11      010FII VINCI SCCI  ER       R$  000000001153700000000115760000000011351000000001147700000000114980000000011487000000001149814362000000000000075183000000000862889541000000000000009999123100000010000000000000BRVISCCTF005187
012024070812VIUR11      010FII VINCI IUCI  ER       R$  000000000068800000000006940000000000683000000000068800000000006880000000000686000000000068802383000000000000034117000000000023501939000000000000009999123100000010000000000000BRVIURCTF009138
012024070812DPRO11      010FII DEVA PROCI  ER       R$  000000000067300000000007490000000000673000000000072800000000007200000000000668000000000072000011000000000000000026000000000000018953000000000000009999123100000010000000000000BRDPROCTF005125
012024070812DRIT11      010FII MTGESTAOCI  ER       R$  000000000867300000000086730000000008500000000000862200000000085000000000008301000000000896900004000000000000000017000000000000146576000000000000009999123100000010000000000000BRDRITCTF009254
012024070812DVFF11      010FII DEVA FOFCI  ER       R$  000000000075500000000007690000000000743000000000075700000000007440000000000743000000000075500037000000000000000324000000000000245576000000000000009999123100000010000000000000BRDVFFCTF006139
012024070812GGRC11      010FII GGRCOVEPCI  ER       R$  000000000110700000000011080000000001100000000000110200000000011030000000001102000000000110310269000000000000134746000000000148554880000000000000009999123100000010000000000000BRGGRCCTF002195
012024070812GLOG11      010FII PLURAL LCI  ER       R$  000000000632000000000063480000000006257000000000628700000000063240000000006260000000000632000023000000000000001866000000000011732971000000000000009999123100000010000000000000BRGLOGCTF000114
012024070812TRNT11      010FII TORRE NOCI           R$  000000001068700000000106870000000010687000000001068700000000106870000000011000000000001140000001000000000000000001000000000000010687000000000000009999123100000010000000000000BRTRNTCTF013341
012024070812TRXB11      010FII TRX R IICI  ER       R$  000000001465200000000146520000000014430000000001456600000000144300000000013501000000001465200007000000000000000013000000000000189366000000000000009999123100000010000000000000BRTRXBCTF002152
