00COTAHIST.2024BOVESPA 20240704                                                                                                                                                                                                                      
012024070402ALPK3       010ESTAPAR     ON      NM   R$  000000000032200000000003330000000000322000000000033000000000003320000000000331000000000033200247000000000000080600000000000026623700000000000000009999123100000010000000000000BRALPKACNOR9101
012024070402AMAR3       010LOJAS MARISAON      NM   R$  000000000014200000000001470000000000142000000000014400000000001450000000000144000000000014500783000000000000410100000000000059215700000000000000009999123100000010000000000000BRAMARACNOR4115
012024070402ARML3       010ARMAC       ON  EDJ NM   R$  000000000105000000000010800000000001049000000000106200000000010700000000001068000000000107002220000000000000489200000000000519822100000000000000009999123100000010000000000000BRARMLACNOR1112
012024070402CPLE5       010COPEL       PNA     N2   R$  000000000155000000000015500000000001550000000000155000000000015500000000001500000000000155000002000000000000000200000000000000310000000000000000009999123100000010000000000000BRCPLEACNPA1147
012024070402NGRD3       010NEOGRID     ON      NM   R$  000000000009500000000000980000000000092000000000009400000000000940000000000093000000000009400578000000000000434400000000000041124800000000000000009999123100000010000000000000BRNGRDACNOR3104
012024070402OPCT3       010OCEANPACT   ON      NM   R$  000000000067900000000006790000000000661000000000066700000000006650000000000665000000000066801022000000000000449300000000000300095400000000000000009999123100000010000000000000BROPCTACNOR0100
012024070402NTCO3       010GRUPO NATURAON      NM   R$  000000000156800000000015860000000001525000000000155400000000015250000000001525000000000154014533000000000010605700000000016485463500000000000000009999123100000010000000000000BRNTCOACNOR5106
012024070402BPAC5       010BTGP BANCO  PNA EJ  N2   R$  000000000081500000000008390000000000815000000000083000000000008320000000000820000000000083200067000000000000013200000000000010968300000000000000009999123100000010000000000000BRBPACACNPA0134
012024070402AURE3       010AUREN       ON      NM   R$  000000000122900000000012410000000001227000000000123300000000012350000000001235000000000123604400000000000001433700000000001769020500000000000000009999123100000010000000000000BRAUREACNOR9104
012024070402ROMI3       010ROMI        ON      NM   R$  000000000111000000000011110000000001100000000000110500000000011030000000001103000000000110801013000000000000216400000000000239319900000000000000009999123100000010000000000000BRROMIACNOR8195
012024070402REDE3       010REDE ENERGIAON           R$  000000000074000000000007930000000000726000000000075900000000007760000000000752000000000078000084000000000000018100000000000013739500000000000000009999123100000010000000000000BRREDEACNOR7127
012024070402SRNA3       010SERENA      ON      NM   R$  000000000088900000000009150000000000889000000000090900000000009100000000000907000000000091205413000000000001838700000000001671985300000000000000009999123100000010000000000000BRSRNAACNOR4100
012024070402RAPT3       010RANDON PART ON      N1   R$  000000000099300000000010090000000000987000000000100100000000010070000000001004000000000100800127000000000000025600000000000025647000000000000000009999123100000010000000000000BRRAPTACNOR7162
012024070402BRAP4       010BRADESPAR   PN      N1   R$  000000000193500000000019350000000001913000000000192400000000019250000000001925000000000192705620000000000002394600000000004609472700000000000000009999123100000010000000000000BRBRAPACNPR2148
012024070402CSMG3       010COPASA      ON  EDJ NM   R$  000000000203400000000020880000000002034000000000205600000000020370000000002037000000000204005675000000000001002100000000002060643300000000000000009999123100000010000000000000BRCSMGACNOR5174
012024070402RCSL3       010RECRUSUL    ON           R$  000000000028400000000002960000000000278000000000028700000000002800000000000280000000000028200833000000000000437400000000000125596700000000000000009999123100000010000000000000BRRCSLACNOR4134
012024070402SMFT3       010SMART FIT   ON      NM   R$  000000000223900000000023010000000002217000000000227900000000022760000000002275000000000227808322000000000001868500000000004259078900000000000000009999123100000010000000000000BRSMFTACNOR1112
012024070402LOGN3       010LOG-IN      ON      NM   R$  000000000379700000000039000000000003797000000000387100000000039000000000003869000000000390000051000000000000008600000000000033296900000000000000009999123100000010000000000000BRLOGNACNOR3105
012024070402SOJA3       010BOA SAFRA   ON      NM   R$  000000000151700000000015290000000001503000000000151200000000015190000000001519000000000152002527000000000000372700000000000563871200000000000000009999123100000010000000000000BRSOJAACNOR9105
012024070402RAIZ4       010RAIZEN      PN      N2   R$  000000000030500000000003060000000000296000000000030200000000002990000000000299000000000030007380000000000015373500000000004646065900000000000000009999123100000010000000000000BRRAIZACNPR6110
012024070402PRNR3       010PRINER      ON      NM   R$  000000000108000000000011200000000001073000000000109500000000011200000000001120000000000112101358000000000000259200000000000283827500000000000000009999123100000010000000000000BRPRNRACNOR4109
012024070402PTNT4       010PETTENATI   PN           R$  000000000060300000000006180000000000603000000000061100000000006170000000000609000000000061800006000000000000000900000000000000549900000000000000009999123100000010000000000000BRPTNTACNPR3047
012024070402SEQL3       010SEQUOIA LOG ON      NM   R$  000000000048000000000005270000000000452000000000049800000000005080000000000504000000000050801810000000000001198000000000000597107400000000000000009999123100000010000000000000BRSEQLACNOR2103
012024070402SLCE3       010SLC AGRICOLAON      NM   R$  000000000189300000000019190000000001887000000000190000000000019050000000001904000000000190504496000000000001402800000000002666609900000000000000009999123100000010000000000000BRSLCEACNOR2125
012024070402SBSP3       010SABESP      ON      NM   R$  000000000810800000000083150000000008108000000000822400000000081700000000008170000000000817223680000000000006091800000000050099512900000000000000009999123100000010000000000000BRSBSPACNOR5161
012024070402UGPA3       010ULTRAPAR    ON      NM   R$  000000000221100000000022270000000002186000000000220200000000021870000000002187000000000219006964000000000002138900000000004709999700000000000000009999123100000010000000000000BRUGPAACNOR8155
012024070402VVEO3       010VIVEO       ON      NM   R$  000000000025500000000002740000000000236000000000025800000000002660000000000266000000000026705673000000000003858000000000000995753500000000000000009999123100000010000000000000BRVVEOACNOR0104
012024070402CRPG5       010CRISTAL     PNA          R$  000000000291000000000029300000000002900000000000291400000000029200000000002902000000000292700027000000000000004200000000000012240700000000000000009999123100000010000000000000BRCRPGACNPA3119
012024070402ELET3       010ELETROBRAS  ON      N1   R$  000000000375700000000038350000000003736000000000379400000000038200000000003820000000000382121173000000000006854700000000026008440400000000000000009999123100000010000000000000BRELETACNOR6160
012024070402HBSA3       010HIDROVIAS   ON      NM   R$  000000000039200000000003970000000000387000000000039000000000003910000000000389000000000039303033000000000003624400000000001414726900000000000000009999123100000010000000000000BRHBSAACNOR0100
012024070402KLBN11      010KLABIN S/A  UNT     N2   R$  000000000216000000000021690000000002127000000000214500000000021450000000002144000000000214612573000000000004046600000000008681950200000000000000009999123100000010000000000000BRKLBNCDAM18142
012024070402MULT3       010MULTIPLAN   ON  EJ  N2   R$  000000000234900000000023880000000002344000000000237000000000023780000000002367000000000237818227000000000004837200000000011466438200000000000000009999123100000010000000000000BRMULTACNOR5139
012024070402ALUP4       010ALUPAR      PN      N2   R$  000000000099900000000010150000000000999000000000101000000000010020000000001001000000000100700071000000000000011600000000000011727100000000000000009999123100000010000000000000BRALUPACNPR5119
012024070402APER3       010ALPER S.A.  ON           R$  000000000448500000000045790000000004485000000000454100000000045790000000004530000000000459000003000000000000000300000000000001362500000000000000009999123100000010000000000000BRAPERACNOR9106
012024070402CPLE3       010COPEL       ON      N2   R$  000000000084700000000008660000000000847000000000086000000000008610000000000860000000000086204429000000000003321700000000002857799600000000000000009999123100000010000000000000BRCPLEACNOR8149
012024070402NEOE3       010NEOENERGIA  ON  EJ  NM   R$  000000000185000000000018700000000001841000000000185800000000018670000000001867000000000186802708000000000000468900000000000871487300000000000000009999123100000010000000000000BRNEOEACNOR3123
012024070402ONCO3       010ONCOCLINICASON      NM   R$  000000000068900000000007220000000000674000000000070400000000007070000000000700000000000070708158000000000003679500000000002590920700000000000000009999123100000010000000000000BRONCOACNOR6101
012024070402NORD3       010NORDON MET  ON           R$  000000000059000000000006000000000000580000000000059700000000005800000000000562000000000062200004000000000000001300000000000000776700000000000000009999123100000010000000000000BRNORDACNOR7135
012024070402BPAC3       010BTGP BANCO  ON  EJ  N2   R$  000000000159400000000015940000000001551000000000157300000000015730000000001572000000000159000065000000000000010900000000000017155800000000000000009999123100000010000000000000BRBPACACNOR7134
012024070402ATOM3       010ATOMPAR     ON           R$  000000000020000000000002000000000000198000000000019900000000001980000000000198000000000019900016000000000000003400000000000000679000000000000000009999123100000010000000000000BRATOMACNOR1106
012024070402AZEV4       010AZEVEDO     PN           R$  000000000015900000000001590000000000150000000000015400000000001550000000000154000000000015501930000000000004710100000000000727825800000000000000009999123100000010000000000000BRAZEVACNPR7121
012024070402RECV3       010PETRORECSA  ON      NM   R$  000000000203500000000020650000000002018000000000203900000000020210000000002021000000000202304314000000000000913600000000001863371100000000000000009999123100000010000000000000BRRECVACNOR3107
012024070402BBSE3       010BBSEGURIDADEON      NM   R$  000000000330500000000033220000000003301000000000331000000000033160000000003310000000000331608379000000000001925200000000006374192400000000000000009999123100000010000000000000BRBBSEACNOR5124
012024070402RANI3       010IRANI       ON      NM   R$  000000000088400000000008950000000000873000000000088200000000008810000000000881000000000088202863000000000001219500000000001075772700000000000000009999123100000010000000000000BRRANIACNOR5072
012024070402BRAP3       010BRADESPAR   ON      N1   R$  000000000186700000000018670000000001846000000000185300000000018550000000001852000000000185500363000000000000061500000000000113988900000000000000009999123100000010000000000000BRBRAPACNOR5148
012024070402CSED3       010CRUZEIRO EDUON      NM   R$  000000000038400000000004120000000000384000000000040200000000004090000000000408000000000040900918000000000000497500000000000200216700000000000000009999123100000010000000000000BRCSEDACNOR9104
012024070402EMBR3       010EMBRAER     ON      NM   R$  000000000377400000000038040000000003712000000000374200000000037510000000003745000000000375206621000000000001861600000000006967709400000000000000009999123100000010000000000000BREMBRACNOR4191
012024070402RDOR3       010REDE D OR   ON  EJ  NM   R$  000000000277500000000028170000000002755000000000278600000000027720000000002772000000000277409621000000000003883200000000010821088800000000000000009999123100000010000000000000BRRDORACNOR8113
012024070402LOGG3       010LOG COM PROPON      NM   R$  000000000236300000000024780000000002363000000000244400000000024510000000002451000000000247003186000000000000489800000000001197309100000000000000009999123100000010000000000000BRLOGGACNOR7107
012024070402SNSY3       010SANSUY      ON           R$  000000000127900000000013100000000001279000000000129600000000013100000000001280000000000131000008000000000000001000000000000001296200000000000000009999123100000010000000000000BRSNSYACNOR2113
012024070402RAIL3       010RUMO S.A.   ON      NM   R$  000000000212000000000021470000000002114000000000213600000000021350000000002135000000000214208094000000000003681800000000007866567200000000000000009999123100000010000000000000BRRAILACNOR9105
012024070402VALE3       010VALE        ON      NM   R$  000000000646400000000064700000000006383000000000640100000000063860000000006386000000000638721560000000000007984300000000051115140800000000000000009999123100000010000000000000BRVALEACNOR0210
012024070402PTNT3       010PETTENATI   ON           R$  000000000098800000000009880000000000988000000000098800000000009880000000000935000000000097500001000000000000000100000000000000098800000000000000009999123100000010000000000000BRPTNTACNOR6042
012024070402SEER3       010SER EDUCA   ON      NM   R$  000000000051000000000005390000000000510000000000053100000000005360000000000530000000000053601163000000000000398900000000000211982900000000000000009999123100000010000000000000BRSEERACNOR5119
012024070402SIMH3       010SIMPAR      ON      NM   R$  000000000059900000000006650000000000597000000000063800000000006600000000000659000000000066009438000000000007490600000000004784351000000000000000009999123100000010000000000000BRSIMHACNOR0107
012024070402SBFG3       010GRUPO SBF   ON      NM   R$  000000000125300000000012800000000001253000000000126500000000012610000000001255000000000126404883000000000001487600000000001882909800000000000000009999123100000010000000000000BRSBFGACNOR1103
012024070402UCAS3       010UNICASA     ON      NM   R$  000000000022200000000002290000000000220000000000022500000000002280000000000226000000000022800085000000000000034800000000000007839000000000000000009999123100000010000000000000BRUCASACNOR1113
012024070402UNIP6       010UNIPAR      PNB          R$  000000000505100000000052790000000005051000000000519200000000052370000000005237000000000524401515000000000000228500000000001186462600000000000000009999123100000010000000000000BRUNIPACNPB8206
012024070402CRFB3       010CARREFOUR BRON      NM   R$  000000000100500000000010200000000000987000000000100200000000010120000000001011000000000101409979000000000007454600000000007470646600000000000000009999123100000010000000000000BRCRFBACNOR2116
012024070402EKTR4       010ELEKTRO     PN  EJ       R$  000000000395500000000039550000000003950000000000395400000000039550000000003856000000000395500013000000000000001600000000000006327300000000000000009999123100000010000000000000BREKTRACNPR7163
012024070402HBRE3       010HBR REALTY  ON      NM   R$  000000000052000000000005350000000000514000000000052700000000005350000000000533000000000053600989000000000000555900000000000293148400000000000000009999123100000010000000000000BRHBREACNOR4100
012024070402HYPE3       010HYPERA      ON      NM   R$  000000000292400000000029240000000002860000000000289400000000028830000000002876000000000289307158000000000001602200000000004637185600000000000000009999123100000010000000000000BRHYPEACNOR0142
012024070402MTRE3       010MITRE REALTYON      NM   R$  000000000037200000000003950000000000369000000000038200000000003880000000000388000000000039002315000000000001357200000000000518622100000000000000009999123100000010000000000000BRMTREACNOR6112
012024070402ALUP11      010ALUPAR      UNT     N2   R$  000000000303000000000030700000000003030000000000305300000000030530000000003035000000000305403400000000000000602100000000001838638700000000000000009999123100000010000000000000BRALUPCDAM15119
012024070402AMBP3       010AMBIPAR     ON      NM   R$  000000000163000000000017100000000001587000000000166600000000017000000000001684000000000170410681000000000006077500000000010128757900000000000000009999123100000010000000000000BRAMBPACNOR6103
012024070402ARZZ3       010AREZZO CO   ON      NM   R$  000000000519700000000052500000000005169000000000520700000000051870000000005187000000000520006934000000000001282700000000006680001700000000000000009999123100000010000000000000BRARZZACNOR3146
012024070402CPLE6       010COPEL       PNB     N2   R$  000000000095300000000009720000000000952000000000096600000000009710000000000968000000000097115554000000000006823800000000006594843400000000000000009999123100000010000000000000BRCPLEACNPB9146
012024070402ODPV3       010ODONTOPREV  ON  EJ  NM   R$  000000000118800000000012130000000001157000000000119900000000011940000000001190000000000119502525000000000000584200000000000700587700000000000000009999123100000010000000000000BRODPVACNOR4202
012024070402ORVR3       010ORIZON      ON      NM   R$  000000000402800000000040840000000003990000000000405000000000040500000000004050000000000405102822000000000000463800000000001878757900000000000000009999123100000010000000000000BRORVRACNOR0101
012024070402ASAI3       010ASSAI       ON      NM   R$  000000000108400000000011130000000001074000000000109700000000011030000000001102000000000110431252000000000016102500000000017666416100000000000000009999123100000010000000000000BRASAIACNOR0106
012024070402BPAN4       010BANCO PAN   PN      N1   R$  000000000081500000000008400000000000812000000000083000000000008260000000000826000000000082703290000000000001087900000000000903976800000000000000009999123100000010000000000000BRBPANACNPR1115
012024070402AVLL3       010ALPHAVILLE  ON      NM   R$  000000000034000000000003400000000000332000000000033800000000003320000000000331000000000033500003000000000000001200000000000000406300000000000000009999123100000010000000000000BRAVLLACNOR5103
012024070402VAMO3       010VAMOS       ON      NM   R$  000000000083000000000008880000000000830000000000086100000000008750000000000874000000000087619000000000000016897700000000014556774000000000000000009999123100000010000000000000BRVAMOACNOR7105
012024070402RENT3       010LOCALIZA    ON  EJS NM   R$  000000000425700000000044000000000004257000000000436100000000043600000000004355000000000436028176000000000010443600000000045554958900000000000000009999123100000010000000000000BRRENTACNOR4196
012024070402STBP3       010SANTOS BRP  ON      NM   R$  000000000136000000000014090000000001359000000000139200000000014090000000001406000000000141010734000000000005090800000000007091241300000000000000009999123100000010000000000000BRSTBPACNOR3130
012024070402RAPT4       010RANDON PART PN      N1   R$  000000000115800000000012060000000001158000000000119300000000011960000000001195000000000120104613000000000001557600000000001858653200000000000000009999123100000010000000000000BRRAPTACNPR4162
012024070402BRBI11      010BR PARTNERS UNT     N2   R$  000000000143100000000014450000000001420000000000143700000000014210000000001421000000000142901003000000000000297900000000000428286900000000000000009999123100000010000000000000BRBRBICDAM10109
012024070402ELMD3       010ELETROMIDIA ON      NM   R$  000000000171900000000017890000000001719000000000176500000000017860000000001757000000000178600333000000000000053600000000000094640200000000000000009999123100000010000000000000BRELMDACNOR3101
012024070402RCSL4       010RECRUSUL    PN           R$  000000000012500000000001260000000000113000000000011600000000001130000000000113000000000011402057000000000002745500000000000320436000000000000000009999123100000010000000000000BRRCSLACNPR1134
012024070402SMTO3       010SAO MARTINHOON      NM   R$  000000000326700000000033540000000003238000000000328400000000032650000000003264000000000326806648000000000001287800000000004229919400000000000000009999123100000010000000000000BRSMTOACNOR3126
012024070402LPSB3       010LOPES BRASILON      NM   R$  000000000018900000000001920000000000183000000000018900000000001910000000000189000000000019100201000000000000078300000000000014816300000000000000009999123100000010000000000000BRLPSBACNOR0114
012024070402SOMA3       010GRUPO SOMA  ON      NM   R$  000000000061500000000006260000000000612000000000062000000000006180000000000618000000000062009951000000000007013400000000004349585200000000000000009999123100000010000000000000BRSOMAACNOR3102
012024070402MWET4       010WETZEL S/A  PN           R$  000000000083700000000008370000000000837000000000083700000000008370000000000838000000000088900001000000000000000300000000000000251100000000000000009999123100000010000000000000BRMWETACNPR3118
012024070402PSSA3       010PORTO SEGUROON  EJ  NM   R$  000000000300600000000030470000000003001000000000301800000000030140000000003014000000000301804935000000000000695300000000002098901900000000000000009999123100000010000000000000BRPSSAACNOR7155
012024070402QUAL3       010QUALICORP   ON      NM   R$  000000000015600000000001780000000000156000000000016900000000001780000000000176000000000017803925000000000008887800000000001510827600000000000000009999123100000010000000000000BRQUALACNOR6120
012024070402SHOW3       010TIME FOR FUNON      NM   R$  000000000015500000000001590000000000153000000000015600000000001590000000000157000000000015800304000000000000253300000000000039612900000000000000009999123100000010000000000000BRSHOWACNOR7105
012024070402USIM3       010USIMINAS    ON      N1   R$  000000000076900000000007820000000000768000000000077500000000007680000000000768000000000076900953000000000000276100000000000214073500000000000000009999123100000010000000000000BRUSIMACNOR3167
012024070402TTEN3       0103TENTOS     ON      NM   R$  000000000103000000000010580000000001024000000000104300000000010490000000001047000000000104903518000000000000636500000000000663942400000000000000009999123100000010000000000000BRTTENACNOR0103
012024070402UNIP3       010UNIPAR      ON           R$  000000000506000000000052010000000005045000000000513500000000052010000000005200000000000527000051000000000000006200000000000031837600000000000000009999123100000010000000000000BRUNIPACNOR7206
012024070402WEGE3       010WEG         ON  EJ  NM   R$  000000000423000000000042310000000004176000000000419300000000041890000000004187000000000418908708000000000003864100000000016202421100000000000000009999123100000010000000000000BRWEGEACNOR0223
012024070402CRPG6       010CRISTAL     PNB          R$  000000000299900000000029990000000002999000000000299900000000029990000000002931000000000299800001000000000000000100000000000000299900000000000000009999123100000010000000000000BRCRPGACNPB1119
012024070402ELET6       010ELETROBRAS  PNB     N1   R$  000000000416200000000042370000000004152000000000420600000000042130000000004213000000000421405181000000000001095300000000004606914200000000000000009999123100000010000000000000BRELETACNPB7077
012024070402HBTS5       010HABITASUL   PNA          R$  000000000399900000000039990000000003999000000000399900000000039990000000003672000000000447800001000000000000000100000000000000399900000000000000009999123100000010000000000000BRHBTSACNPA3128
012024070402MTSA4       010METISA      PN           R$  000000000445700000000045420000000004400000000000447300000000044000000000004101000000000443800052000000000000007600000000000034000100000000000000009999123100000010000000000000BRMTSAACNPR9072
012024070402ALUP3       010ALUPAR      ON      N2   R$  000000000103000000000010330000000001020000000000102900000000010280000000001016000000000102800083000000000000009900000000000010188800000000000000009999123100000010000000000000BRALUPACNOR8119
012024070402ANIM3       010ANIMA       ON      NM   R$  000000000035000000000003760000000000350000000000037000000000003690000000000369000000000037406683000000000008731300000000003234344500000000000000009999123100000010000000000000BRANIMACNOR6107
012024070402CPFE3       010CPFL ENERGIAON      NM   R$  000000000332800000000033600000000003317000000000333700000000033340000000003334000000000333903254000000000000783200000000002613797900000000000000009999123100000010000000000000BRCPFEACNOR0137
012024070402DXCO3       010DEXCO       ON      NM   R$  000000000066500000000006850000000000665000000000067700000000006770000000000677000000000067804090000000000003018700000000002044411300000000000000009999123100000010000000000000BRDXCOACNOR8105
012024070402OFSA3       010OUROFINO S/AON      NM   R$  000000000190000000000019000000000001863000000000189400000000018630000000001862000000000190000008000000000000007200000000000013640100000000000000009999123100000010000000000000BROFSAACNOR7118
012024070402NINJ3       010GETNINJAS   ON      NM   R$  000000000045000000000004600000000000444000000000045100000000004480000000000448000000000045800098000000000000018600000000000008397900000000000000009999123100000010000000000000BRNINJACNOR5101
012024070402BPAC11      010BTGP BANCO  UNT EJ  N2   R$  000000000326000000000032720000000003215000000000325000000000032380000000003233000000000323819723000000000013211900000000042948815900000000000000009999123100000010000000000000BRBPACUNT006119
012024070402PCAR3       010P.ACUCAR-CBDON      NM   R$  000000000028000000000002950000000000276000000000028600000000002930000000000293000000000029408628000000000016561200000000004740187300000000000000009999123100000010000000000000BRPCARACNOR3167
012024070402AZEV3       010AZEVEDO     ON           R$  000000000016500000000001680000000000156000000000015900000000001580000000000157000000000015800871000000000001181100000000000188948500000000000000009999123100000010000000000000BRAZEVACNOR0121
012024070402PETZ3       010PETZ        ON      NM   R$  000000000037900000000003850000000000371000000000037800000000003800000000000380000000000038104730000000000004745200000000001796914600000000000000009999123100000010000000000000BRPETZACNOR2110
012024070402AZUL4       010AZUL        PN      N2   R$  000000000077500000000007850000000000752000000000076900000000007800000000000780000000000078112827000000000015715600000000012091359400000000000000009999123100000010000000000000BRAZULACNPR4102
012024070402SUZB3       010SUZANO S.A. ON      NM   R$  000000000577300000000057730000000005600000000000566300000000057000000000005672000000000570129503000000000009528500000000053962901200000000000000009999123100000010000000000000BRSUZBACNOR0130
012024070402BEEF3       010MINERVA     ON      NM   R$  000000000067400000000006890000000000673000000000068100000000006780000000000678000000000067914210000000000005581600000000003803533800000000000000009999123100000010000000000000BRBEEFACNOR6116
012024070402BRFS3       010BRF SA      ON      NM   R$  000000000226400000000023030000000002247000000000228100000000022900000000002286000000000229009596000000000004425200000000010097640200000000000000009999123100000010000000000000BRBRFSACNOR8122
012024070402EMAE4       010EMAE        PN           R$  000000000472200000000047990000000004722000000000474400000000047990000000004732000000000479900005000000000000000800000000000003795800000000000000009999123100000010000000000000BREMAEACNPR1125
012024070402RDNI3       010RNI         ON      NM   R$  000000000030600000000003200000000000306000000000031300000000003140000000000313000000000031700027000000000000038300000000000011988500000000000000009999123100000010000000000000BRRDNIACNOR9116
012024070402LJQQ3       010QUERO-QUERO ON      NM   R$  000000000040500000000004120000000000397000000000040500000000004090000000000409000000000041007402000000000004389700000000001778447700000000000000009999123100000010000000000000BRLJQQACNOR5104
012024070402LREN3       010LOJAS RENNERON  EJ  NM   R$  000000000126400000000013380000000001260000000000130400000000013230000000001322000000000132533851000000000019685600000000025674903400000000000000009999123100000010000000000000BRLRENACNOR1221
012024070402RADL3       010RAIADROGASILON  EJ  NM   R$  000000000258800000000025880000000002502000000000253100000000025140000000002513000000000251813680000000000004933900000000012489688300000000000000009999123100000010000000000000BRRADLACNOR0157
012024070402MYPK3       010IOCHP-MAXIONON  EJ  NM   R$  000000000117200000000012170000000001172000000000120500000000012030000000001203000000000120905352000000000001110300000000001338070000000000000000009999123100000010000000000000BRMYPKACNOR7155
012024070402PTBL3       010PORTOBELLO  ON      NM   R$  000000000047600000000004980000000000475000000000048900000000004920000000000492000000000049701502000000000000805000000000000393656800000000000000009999123100000010000000000000BRPTBLACNOR8132
012024070402SCAR3       010SAO CARLOS  ON      NM   R$  000000000233800000000024380000000002320000000000234200000000023200000000002320000000000242800036000000000000007500000000000017565100000000000000009999123100000010000000000000BRSCARACNOR7131
012024070402SHUL4       010SCHULZ      PN  EJ       R$  000000000061400000000006270000000000614000000000061900000000006210000000000619000000000062201004000000000000272500000000000168844200000000000000009999123100000010000000000000BRSHULACNPR4156
012024070402USIM5       010USIMINAS    PNA     N1   R$  000000000080400000000008160000000000804000000000080900000000008150000000000814000000000081507506000000000006025500000000004877339200000000000000009999123100000010000000000000BRUSIMACNPA6169
012024070402TUPY3       010TUPY        ON      NM   R$  000000000244700000000025150000000002447000000000248900000000025150000000002515000000000251802977000000000000558300000000001389609200000000000000009999123100000010000000000000BRTUPYACNOR1184
012024070402UNIP5       010UNIPAR      PNA          R$  000000000506900000000051500000000005069000000000512300000000051500000000005150000000000549400003000000000000000300000000000001536900000000000000009999123100000010000000000000BRUNIPACNPA0208
012024070402ZAMP3       010ZAMP S.A.   ON           R$  000000000038500000000003900000000000384000000000038600000000003870000000000385000000000038700894000000000000200800000000000077578900000000000000009999123100000010000000000000BRZAMPACNOR5100
012024070402CSAN3       010COSAN       ON      NM   R$  000000000140000000000014210000000001394000000000141100000000014140000000001414000000000141516225000000000009901100000000013975560200000000000000009999123100000010000000000000BRCSANACNOR6126
012024070402HBOR3       010HELBOR      ON      NM   R$  000000000021500000000002230000000000214000000000021900000000002210000000000221000000000022200544000000000000530900000000000116753400000000000000009999123100000010000000000000BRHBORACNOR3118
012024070402HETA4       010HERCULES    PN           R$  000000000052700000000005270000000000527000000000052700000000005270000000000501000000000053800001000000000000000100000000000000052700000000000000009999123100000010000000000000BRHETAACNPR9136
012024070402KRSA3       010KORA SAUDE  ON      NM   R$  000000000006300000000000640000000000062000000000006200000000000630000000000062000000000006300290000000000000390500000000000024509800000000000000009999123100000010000000000000BRKRSAACNOR0100
012024070402HAGA3       010HAGA S/A    ON           R$  000000000025500000000002780000000000255000000000026500000000002670000000000260000000000026900021000000000000005400000000000001431800000000000000009999123100000010000000000000BRHAGAACNOR7103
012024070402GFSA3       010GAFISA      ON      NM   R$  000000000034100000000003620000000000338000000000035000000000003550000000000355000000000035602606000000000003778700000000001323508100000000000000009999123100000010000000000000BRGFSAACNOR3124
012024070402JHSF3       010JHSF PART   ON  ED  NM   R$  000000000040400000000004210000000000404000000000041600000000004200000000000419000000000042003274000000000003981000000000001656705400000000000000009999123100000010000000000000BRJHSFACNOR2137
012024070402BMIN4       010MERC INVEST PN           R$  000000000153600000000015610000000001536000000000154800000000015610000000001536000000000156100002000000000000000200000000000000309700000000000000009999123100000010000000000000BRBMINACNPR1176
012024070402KEPL3       010KEPLER WEBERON  ED  NM   R$  000000000097000000000010000000000000970000000000099400000000009920000000000988000000000099205213000000000001614900000000001605245100000000000000009999123100000010000000000000BRKEPLACNOR1063
012024070402AESB3       010AES BRASIL  ON      NM   R$  000000000113900000000011420000000001137000000000113800000000011390000000001139000000000114001723000000000001858100000000002116317000000000000000009999123100000010000000000000BRAESBACNOR7106
012024070402ALOS3       010ALLOS       ON      NM   R$  000000000215600000000022070000000002147000000000218300000000021850000000002182000000000218513784000000000005584300000000012192963800000000000000009999123100000010000000000000BRALOSACNOR5101
012024070402BBDC4       010BRADESCO    PN  EJ  N1   R$  000000000123800000000012380000000001224000000000122900000000012320000000001231000000000123216948000000000013768400000000016929460500000000000000009999123100000010000000000000BRBBDCACNPR8772
012024070402GGPS3       010GPS         ON      NM   R$  000000000172500000000017340000000001692000000000170800000000016970000000001696000000000169907682000000000002085400000000003562445100000000000000009999123100000010000000000000BRGGPSACNOR9103
012024070402JALL3       010JALLESMACHADON      NM   R$  000000000076300000000007740000000000750000000000076400000000007600000000000760000000000076201789000000000000650800000000000497382000000000000000009999123100000010000000000000BRJALLACNOR0105
012024070402MNDL3       010MUNDIAL     ON           R$  000000000136200000000013630000000001362000000000136200000000013620000000001200000000000136300004000000000000001100000000000001499000000000000000009999123100000010000000000000BRMNDLACNOR4109
012024070402ABCB4       010ABC BRASIL  PN  EJ  N2   R$  000000000214900000000022190000000002149000000000219900000000022100000000002210000000000221102224000000000000456100000000001003143000000000000000009999123100000010000000000000BRABCBACNPR4146
012024070402CMIG3       010CEMIG       ON      N1   R$  000000000125900000000012890000000001259000000000127900000000012810000000001280000000000128100652000000000000103800000000000132842600000000000000009999123100000010000000000000BRCMIGACNOR6242
012024070402CGRA3       010GRAZZIOTIN  ON  EJ       R$  000000000251000000000025300000000002509000000000252000000000025300000000002509000000000258100007000000000000000900000000000002268600000000000000009999123100000010000000000000BRCGRAACNOR2083
012024070402DOHL4       010DOHLER      PN           R$  000000000039400000000003990000000000394000000000039700000000003990000000000393000000000039900006000000000000001200000000000000476500000000000000009999123100000010000000000000BRDOHLACNPR9066
012024070402FHER3       010FER HERINGERON      NM   R$  000000000038500000000004170000000000385000000000039900000000004120000000000400000000000041200059000000000000018200000000000007275100000000000000009999123100000010000000000000BRFHERACNOR5103
012024070402SANB3       010SANTANDER BRON           R$  000000000132000000000013290000000001302000000000131800000000013080000000001308000000000131000292000000000000047800000000000063012700000000000000009999123100000010000000000000BRSANBACNOR8171
012024070402TAEE3       010TAESA       ON      N2   R$  000000000114700000000011500000000001142000000000114700000000011430000000001143000000000114700409000000000000096400000000000110588600000000000000009999123100000010000000000000BRTAEEACNOR9147
012024070402BLAU3       010BLAU        ON  EJ  NM   R$  000000000109700000000011610000000001090000000000113500000000011560000000001156000000000116001402000000000000330800000000000375681700000000000000009999123100000010000000000000BRBLAUACNOR8114
012024070402BRSR3       010BANRISUL    ON      N1   R$  000000000121000000000012500000000001205000000000123100000000012500000000001235000000000125500048000000000000011500000000000014159300000000000000009999123100000010000000000000BRBRSRACNOR3188
012024070402MDIA3       010M.DIASBRANCOON      NM   R$  000000000277700000000028550000000002722000000000280300000000028310000000002830000000000283104068000000000000717400000000002011311800000000000000009999123100000010000000000000BRMDIAACNOR7135
012024070402CAMB3       010CAMBUCI     ON           R$  000000000103200000000010650000000001028000000000104400000000010650000000001059000000000106500215000000000000050700000000000052971900000000000000009999123100000010000000000000BRCAMBACNOR4130
012024070402CXSE3       010CAIXA SEGURION      NM   R$  000000000143900000000014700000000001439000000000145900000000014650000000001457000000000146506952000000000002101500000000003066371200000000000000009999123100000010000000000000BRCXSEACNOR7106
012024070402CBAV3       010CBA         ON      NM   R$  000000000070200000000007170000000000698000000000070600000000006980000000000698000000000069903926000000000002338500000000001651656700000000000000009999123100000010000000000000BRCBAVACNOR5104
012024070402CEBR3       010CEB         ON           R$  000000000203000000000020300000000002000000000000201300000000020170000000002008000000000201700019000000000000002600000000000005236300000000000000009999123100000010000000000000BRCEBRACNOR5125
012024070402BIOM3       010BIOMM       ON      MA   R$  000000000141000000000014170000000001386000000000139800000000013900000000001390000000000140800472000000000000084400000000000118019600000000000000009999123100000010000000000000BRBIOMACNOR2112
012024070402ECOR3       010ECORODOVIAS ON      NM   R$  000000000073000000000007540000000000730000000000074500000000007490000000000744000000000074907730000000000004580000000000003413558700000000000000009999123100000010000000000000BRECORACNOR8120
012024070402GUAR3       010GUARARAPES  ON      NM   R$  000000000068000000000007290000000000680000000000071500000000007090000000000709000000000071804386000000000001977800000000001415738600000000000000009999123100000010000000000000BRGUARACNOR4173
012024070402MGLU3       010MAGAZ LUIZA ON      NM   R$  000000000128500000000013460000000001283000000000131400000000013180000000001318000000000131925633000000000023480800000000030866158900000000000000009999123100000010000000000000BRMGLUACNOR2124
012024070402VIVA3       010VIVARA S.A. ON      NM   R$  000000000220600000000022490000000002185000000000222700000000022420000000002237000000000224312449000000000003173700000000007068729200000000000000009999123100000010000000000000BRVIVAACNOR0107
012024070402LAND3       010TERRASANTAPAON      NM   R$  000000000146700000000015430000000001467000000000151900000000015200000000001519000000000152000302000000000000054300000000000082533700000000000000009999123100000010000000000000BRLANDACNOR9103
012024070402HAGA4       010HAGA S/A    PN           R$  000000000011400000000001160000000000114000000000011500000000001150000000000114000000000011500015000000000000004200000000000000483300000000000000009999123100000010000000000000BRHAGAACNPR4103
012024070402GGBR3       010GERDAU      ON      N1   R$  000000000163000000000016470000000001625000000000163500000000016250000000001624000000000163500119000000000000020600000000000033698300000000000000009999123100000010000000000000BRGGBRACNOR1192
012024070402JSLG3       010JSL         ON      NM   R$  000000000098500000000010200000000000979000000000100000000000010120000000001011000000000101802382000000000000488000000000000488258900000000000000009999123100000010000000000000BRJSLGACNOR2121
012024070402BMKS3       010BIC MONARK  ON           R$  000000003549000000000354900000000034990000000003527500000000349900000000032606000000003490000003000000000000000007000000000000246930000000000000009999123100000010000000000000BRBMKSACNOR9166
012024070402MRFG3       010MARFRIG     ON      NM   R$  000000000120100000000012180000000001191000000000120800000000012050000000001204000000000120508571000000000003606900000000004360229300000000000000009999123100000010000000000000BRMRFGACNOR0116
012024070402AGRO3       010BRASILAGRO  ON      NM   R$  000000000262700000000027130000000002617000000000267800000000027060000000002695000000000270601860000000000000346500000000000928017600000000000000009999123100000010000000000000BRAGROACNOR7114
012024070402ALPA3       010ALPARGATAS  ON      N1   R$  000000000092200000000009220000000000922000000000092200000000009220000000000922000000000095900015000000000000004000000000000003688000000000000000009999123100000010000000000000BRALPAACNOR0231
012024070402COCE3       010COELCE      ON           R$  000000000329100000000032910000000003291000000000329100000000032910000000003295000000000351000001000000000000000100000000000000329100000000000000009999123100000010000000000000BRCOCEACNOR0146
012024070402GMAT3       010GRUPO MATEUSON      NM   R$  000000000070400000000007210000000000704000000000071300000000007140000000000713000000000071403417000000000002178200000000001554780400000000000000009999123100000010000000000000BRGMATACNOR7102
012024070402JBSS3       010JBS         ON      NM   R$  000000000314100000000031710000000003107000000000313500000000031360000000003136000000000313812432000000000004591300000000014396247700000000000000009999123100000010000000000000BRJBSSACNOR8121
012024070402MNPR3       010MINUPAR     ON           R$  000000000134000000000013800000000001340000000000136700000000013800000000001252000000000134500010000000000000002500000000000003419300000000000000009999123100000010000000000000BRMNPRACNOR5122
012024070402ABEV3       010AMBEV S/A   ON           R$  000000000114500000000011460000000001137000000000114100000000011450000000001143000000000114513514000000000007438600000000008490496000000000000000009999123100000010000000000000BRABEVACNOR1127
012024070402CMIG4       010CEMIG       PN      N1   R$  000000000103800000000010580000000001036000000000104600000000010370000000001037000000000103823656000000000006542800000000006847305600000000000000009999123100000010000000000000BRCMIGACNPR3243
012024070402CGRA4       010GRAZZIOTIN  PN  EJ       R$  000000000251100000000025900000000002508000000000254800000000025790000000002571000000000257900053000000000000013500000000000034404700000000000000009999123100000010000000000000BRCGRAACNPR9083
012024070402DOTZ3       010DOTZ SA     ON      NM   R$  000000000062600000000006550000000000626000000000064000000000006400000000000636000000000065600028000000000000007500000000000004802800000000000000009999123100000010000000000000BRDOTZACNOR7101
012024070402FIQE3       010UNIFIQUE    ON      NM   R$  000000000034500000000003470000000000340000000000034300000000003430000000000343000000000034401106000000000001385000000000000475588600000000000000009999123100000010000000000000BRFIQEACNOR5107
012024070402RRRP3       0103R PETROLEUMON      NM   R$  000000000281700000000028230000000002756000000000278300000000027930000000002790000000000279311173000000000003034600000000008447576100000000000000009999123100000010000000000000BRRRRPACNOR5103
012024070402TAEE4       010TAESA       PN      N2   R$  000000000116000000000011660000000001156000000000116000000000011600000000001158000000000116100542000000000000115000000000000133508400000000000000009999123100000010000000000000BRTAEEACNPR6147
012024070402BMEB3       010MERCANTIL   ON      N1   R$  000000000252100000000025210000000002520000000000252000000000025200000000002517000000000265000003000000000000002200000000000005544200000000000000009999123100000010000000000000BRBMEBACNOR8205
012024070402BRSR6       010BANRISUL    PNB     N1   R$  000000000114400000000011790000000001143000000000116700000000011700000000001169000000000117003904000000000000976100000000001139797700000000000000009999123100000010000000000000BRBRSRACNPB4191
012024070402MDNE3       010MOURA DUBEUXON      NM   R$  000000000122400000000012800000000001217000000000125400000000012800000000001280000000000128102790000000000000573100000000000718820100000000000000009999123100000010000000000000BRMDNEACNOR9100
012024070402CAML3       010CAMIL       ON      NM   R$  000000000083900000000008630000000000836000000000085300000000008590000000000859000000000086301508000000000000558300000000000476722300000000000000009999123100000010000000000000BRCAMLACNOR3128
012024070402BSLI3       010BRB BANCO   ON           R$  000000000096000000000010000000000000960000000000099100000000010000000000000960000000000100000004000000000000000500000000000000495900000000000000009999123100000010000000000000BRBSLIACNOR5194
012024070402CBEE3       010AMPLA ENERG ON           R$  000000000099000000000009900000000000990000000000099000000000009900000000000890000000000107000001000000000000000100000000000000099000000000000000009999123100000010000000000000BRCBEEACNOR3159
012024070402CEBR5       010CEB         PNA          R$  000000000183400000000018350000000001811000000000182700000000018310000000001815000000000183600010000000000000002000000000000003655600000000000000009999123100000010000000000000BRCEBRACNPA8124
012024070402MATD3       010MATER DEI   ON      NM   R$  000000000047700000000005140000000000475000000000049700000000005020000000000498000000000050202270000000000000616300000000000306649000000000000000009999123100000010000000000000BRMATDACNOR4104
012024070402EGIE3       010ENGIE BRASILON      NM   R$  000000000451700000000045690000000004517000000000453600000000045370000000004525000000000453703161000000000000528300000000002396381000000000000000009999123100000010000000000000BREGIEACNOR9126
012024070402BAHI3       010BAHEMA      ON      MA   R$  000000000067200000000006720000000000670000000000067100000000006720000000000650000000000067200005000000000000000800000000000000537400000000000000009999123100000010000000000000BRBAHIACNOR1074
012024070402TRIS3       010TRISUL      ON      NM   R$  000000000050100000000005170000000000501000000000051300000000005120000000000512000000000051501380000000000000706900000000000362730700000000000000009999123100000010000000000000BRTRISACNOR4118
012024070402VIVR3       010VIVER       ON      NM   R$  000000000023700000000002400000000000233000000000023600000000002360000000000236000000000023800121000000000000047100000000000011131800000000000000009999123100000010000000000000BRVIVRACNOR4123
012024070402KLBN3       010KLABIN S/A  ON      N2   R$  000000000042900000000004340000000000427000000000042900000000004300000000000428000000000043000489000000000000208500000000000089646600000000000000009999123100000010000000000000BRKLBNACNOR2170
012024070402LAVV3       010LAVVI       ON      NM   R$  000000000085900000000008800000000000858000000000086300000000008730000000000869000000000087304115000000000001999400000000001726026800000000000000009999123100000010000000000000BRLAVVACNOR4112
012024070402HAPV3       010HAPVIDA     ON      NM   R$  000000000039300000000004030000000000391000000000039900000000003970000000000396000000000039821263000000000048420600000000019327635700000000000000009999123100000010000000000000BRHAPVACNOR4114
012024070402GGBR4       010GERDAU      PN      N1   R$  000000000184700000000018500000000001818000000000183000000000018240000000001824000000000182714092000000000006349200000000011622734900000000000000009999123100000010000000000000BRGGBRACNPR8192
012024070402BAZA3       010AMAZONIA    ON           R$  000000000987400000000099410000000009800000000000986600000000099410000000009761000000000994600018000000000000003000000000000029600100000000000000009999123100000010000000000000BRBAZAACNOR0179
012024070402BMOB3       010BEMOBI TECH ON      NM   R$  000000000137000000000013990000000001370000000000139000000000013960000000001396000000000139801416000000000000201600000000000280233200000000000000009999123100000010000000000000BRBMOBACNOR7103
012024070402MRVE3       010MRV         ON      NM   R$  000000000068600000000007040000000000682000000000069100000000006890000000000688000000000068907901000000000010007500000000006924868600000000000000009999123100000010000000000000BRMRVEACNOR2127
012024070402AGXY3       010AGROGALAXY  ON      NM   R$  000000000019000000000002190000000000159000000000018700000000001610000000000161000000000016204086000000000003805700000000000711913700000000000000009999123100000010000000000000BRAGXYACNOR4103
012024070402ALPA4       010ALPARGATAS  PN      N1   R$  000000000090900000000009300000000000904000000000092000000000009280000000000927000000000092805918000000000002379700000000002190977700000000000000009999123100000010000000000000BRALPAACNPR7232
012024070402COCE5       010COELCE      PNA          R$  000000000302100000000030590000000003001000000000301800000000030010000000003001000000000301800040000000000000004700000000000014187600000000000000009999123100000010000000000000BRCOCEACNPA3147
012024070402GOAU3       010GERDAU MET  ON      N1   R$  000000000108100000000010900000000001073000000000108300000000010820000000001075000000000108500128000000000000023200000000000025135200000000000000009999123100000010000000000000BRGOAUACNOR1267
012024070402MILS3       010MILLS       ON  EJ  NM   R$  000000000108700000000011320000000001077000000000111700000000011210000000001120000000000112204973000000000001536100000000001715887000000000000000009999123100000010000000000000BRMILSACNOR2127
012024070402MOVI3       010MOVIDA      ON      NM   R$  000000000063000000000006990000000000624000000000067500000000006860000000000686000000000068916029000000000011401000000000007701240500000000000000009999123100000010000000000000BRMOVIACNOR0122
012024070402CLSA3       010CLEARSALE   ON      NM   R$  000000000075000000000007830000000000750000000000076700000000007820000000000778000000000078202555000000000001212800000000000930629100000000000000009999123100000010000000000000BRCLSAACNOR0100
012024070402CMIN3       010CSNMINERACAOON      N2   R$  000000000055700000000005590000000000543000000000054900000000005430000000000543000000000054410305000000000006552000000000003597253200000000000000009999123100000010000000000000BRCMINACNOR2111
012024070402CIEL3       010CIELO       ON      NM   R$  000000000056600000000005670000000000565000000000056600000000005660000000000566000000000056704862000000000007935800000000004493374300000000000000009999123100000010000000000000BRCIELACNOR3157
012024070402EZTC3       010EZTEC       ON      NM   R$  000000000132500000000013780000000001325000000000135700000000013670000000001367000000000136905247000000000002511100000000003407862700000000000000009999123100000010000000000000BREZTCACNOR0125
012024070402FLRY3       010FLEURY      ON      NM   R$  000000000151400000000015140000000001497000000000150400000000015040000000001502000000000150407083000000000002604100000000003918824200000000000000009999123100000010000000000000BRFLRYACNOR5138
012024070402SYNE3       010SYN PROP TECON      NM   R$  000000000092700000000009500000000000927000000000094200000000009500000000000945000000000095002050000000000000515300000000000485827500000000000000009999123100000010000000000000BRSYNEACNOR2102
012024070402VBBR3       010VIBRA       ON  EJ  NM   R$  000000000212400000000021720000000002117000000000215300000000021490000000002149000000000215419581000000000005276200000000011360661500000000000000009999123100000010000000000000BRVBBRACNOR1108
012024070402BMEB4       010MERCANTIL   PN      N1   R$  000000000283400000000028600000000002795000000000284000000000028600000000002840000000000289900046000000000000006400000000000018178600000000000000009999123100000010000000000000BRBMEBACNPR5210
012024070402ITSA3       010ITAUSA      ON      N1   R$  000000000100000000000010070000000000999000000000100100000000010000000000001000000000000100400240000000000000070800000000000070937900000000000000009999123100000010000000000000BRITSAACNOR0441
012024070402MEAL3       010IMC S/A     ON      NM   R$  000000000013100000000001350000000000131000000000013200000000001330000000000133000000000013500467000000000000419500000000000055655100000000000000009999123100000010000000000000BRMEALACNOR9105
012024070402CURY3       010CURY S/A    ON      NM   R$  000000000214700000000022200000000002147000000000220400000000022070000000002206000000000221004134000000000001075200000000002370598400000000000000009999123100000010000000000000BRCURYACNOR3109
012024070402BSLI4       010BRB BANCO   PN           R$  000000000120000000000012000000000001051000000000110700000000010510000000001000000000000120000007000000000000000800000000000000885800000000000000009999123100000010000000000000BRBSLIACNPR2194
012024070402CCRO3       010CCR SA      ON      NM   R$  000000000120400000000012200000000001200000000000120900000000012140000000001209000000000121408190000000000004065400000000004918178000000000000000009999123100000010000000000000BRCCROACNOR2145
012024070402CEBR6       010CEB         PNB          R$  000000000195100000000019510000000001909000000000192700000000019240000000001924000000000195000043000000000000006800000000000013106000000000000000009999123100000010000000000000BRCEBRACNPB6124
012024070402MBLY3       010MOBLY       ON      NM   R$  000000000021300000000002160000000000213000000000021500000000002160000000000215000000000021600540000000000001400800000000000301722000000000000000009999123100000010000000000000BRMBLYACNOR5100
012024070402GRND3       010GRENDENE    ON      NM   R$  000000000058300000000005980000000000583000000000059300000000005920000000000592000000000059502776000000000001064300000000000631464700000000000000009999123100000010000000000000BRGRNDACNOR3174
012024070402BALM4       010BAUMER      PN           R$  000000000101000000000010100000000001010000000000101000000000010100000000001002000000000102500001000000000000000200000000000000202000000000000000009999123100000010000000000000BRBALMACNPR2056
012024070402TRPL3       010TRAN PAULISTON      N1   R$  000000000340800000000034410000000003400000000000340800000000034410000000003351000000000344900006000000000000001200000000000004089600000000000000009999123100000010000000000000BRTRPLACNOR4185
012024070402KLBN4       010KLABIN S/A  PN      N2   R$  000000000043000000000004330000000000426000000000042800000000004300000000000428000000000043001174000000000000852800000000000365508100000000000000009999123100000010000000000000BRKLBNACNPR9170
012024070402LEVE3       010METAL LEVE  ON      NM   R$  000000000326600000000034000000000003266000000000336200000000033650000000003365000000000336902485000000000000471000000000001583822000000000000000009999123100000010000000000000BRLEVEACNOR2197
012024070402GEPA4       010GER PARANAP PN           R$  000000000261000000000026100000000002600000000000260600000000026100000000002575000000000264900005000000000000000500000000000001303000000000000000009999123100000010000000000000BRGEPAACNPR9160
012024070402BAUH4       010EXCELSIOR   PN           R$  000000000790000000000079000000000007900000000000790000000000079000000000007750000000000798800002000000000000000200000000000001580000000000000000009999123100000010000000000000BRBAUHACNPR3118
012024070402BBAS3       010BRASIL      ON      NM   R$  000000000269000000000026970000000002661000000000268000000000026850000000002680000000000268518739000000000010529500000000028221886700000000000000009999123100000010000000000000BRBBASACNOR3324
012024070402BOBR4       010BOMBRIL     PN           R$  000000000020400000000002060000000000203000000000020400000000002040000000000203000000000020400030000000000000007600000000000001556300000000000000009999123100000010000000000000BRBOBRACNPR3128
012024070402AERI3       010AERIS       ON      NM   R$  000000000057500000000005810000000000554000000000056900000000005800000000000576000000000058000662000000000000285100000000000162424300000000000000009999123100000010000000000000BRAERIACNOR4102
012024070402ALLD3       010ALLIED      ON      NM   R$  000000000077500000000007900000000000758000000000077600000000007740000000000770000000000077400405000000000000120800000000000093831700000000000000009999123100000010000000000000BRALLDACNOR3106
012024070402BBDC3       010BRADESCO    ON  EJ  N1   R$  000000000112600000000011290000000001120000000000112300000000011240000000001122000000000112403625000000000002272200000000002552128500000000000000009999123100000010000000000000BRBBDCACNOR1772
012024070402COGN3       010COGNA ON    ON      NM   R$  000000000018000000000001860000000000179000000000018200000000001840000000000184000000000018508455000000000022788800000000004167589700000000000000009999123100000010000000000000BRCOGNACNOR2104
012024070402GOAU4       010GERDAU MET  PN      N1   R$  000000000107900000000010790000000001065000000000107000000000010680000000001068000000000107007256000000000003950600000000004230266900000000000000009999123100000010000000000000BRGOAUACNPR8268
012024070402MLAS3       010MULTILASER  ON      NM   R$  000000000020100000000002120000000000201000000000020700000000002090000000000209000000000021002351000000000003411500000000000708926000000000000000009999123100000010000000000000BRMLASACNOR9101
012024070402AALR3       010ALLIAR      ON      NM   R$  000000000108000000000011500000000001074000000000112100000000011500000000001123000000000115000148000000000000039100000000000043867700000000000000009999123100000010000000000000BRAALRACNOR6102
012024070402CLSC4       010CELESC      PN  EJ  N2   R$  000000000759000000000076650000000007590000000000765200000000076650000000007501000000000770000013000000000000001500000000000011478100000000000000009999123100000010000000000000BRCLSCACNPR3131
012024070402CGAS5       010COMGAS      PNA          R$  000000001140000000000114000000000011400000000001140000000000114000000000011250000000001140000003000000000000000300000000000003420000000000000000009999123100000010000000000000BRCGASACNPA3160
012024070402DMVF3       010D1000VFARMA ON      NM   R$  000000000072100000000007420000000000721000000000073400000000007410000000000731000000000074100455000000000000101500000000000074560900000000000000009999123100000010000000000000BRDMVFACNOR9100
012024070402FESA4       010FERBASA     PN      N1   R$  000000000081700000000008620000000000817000000000084600000000008570000000000854000000000085702606000000000000919800000000000778747400000000000000009999123100000010000000000000BRFESAACNPR5084
012024070402SANB11      010SANTANDER BRUNT          R$  000000000278000000000028000000000002755000000000277500000000027580000000002756000000000275802485000000000000945400000000002624032700000000000000009999123100000010000000000000BRSANBCDAM13164
012024070402TAEE11      010TAESA       UNT     N2   R$  000000000345700000000034800000000003451000000000346600000000034600000000003457000000000346003058000000000000734400000000002545862200000000000000009999123100000010000000000000BRTAEECDAM10147
012024070402VITT3       010VITTIA      ON      NM   R$  000000000059700000000006020000000000582000000000059000000000005920000000000592000000000059602396000000000000555600000000000327830800000000000000009999123100000010000000000000BRVITTACNOR4107
012024070402BMGB4       010BANCO BMG   PN      N1   R$  000000000034100000000003500000000000341000000000034500000000003480000000000346000000000034801159000000000000698600000000000241283500000000000000009999123100000010000000000000BRBMGBACNPR0109
012024070402ITSA4       010ITAUSA      PN      N1   R$  000000000101000000000010100000000000996000000000100000000000010000000000000999000000000100011249000000000010016400000000010022684400000000000000009999123100000010000000000000BRITSAACNPR7441
012024070402MELK3       010MELNICK     ON      NM   R$  000000000036100000000003850000000000361000000000037500000000003820000000000378000000000038300352000000000000272500000000000102252900000000000000009999123100000010000000000000BRMELKACNOR8111
012024070402CVCB3       010CVC BRASIL  ON  ATZ NM   R$  000000000019100000000001970000000000185000000000019000000000001870000000000187000000000018806215000000000028551200000000005437022500000000000000009999123100000010000000000000BRCVCBACNOR1116
012024070402CASH3       010MELIUZ      ON      NM   R$  000000000057500000000006020000000000575000000000059000000000006020000000000597000000000060203561000000000002081400000000001230055900000000000000009999123100000010000000000000BRCASHACNOR8106
012024070402CEAB3       010CEA MODAS   ON      NM   R$  000000000097000000000010140000000000970000000000100000000000010020000000001002000000000100305659000000000002003900000000002004994500000000000000009999123100000010000000000000BRCEABACNOR1102
012024070402CEEB3       010COELBA      ON  EJ       R$  000000000396800000000039750000000003965000000000396900000000039750000000003921000000000397500004000000000000000400000000000001587600000000000000009999123100000010000000000000BRCEEBACNOR3199
012024070402EALT4       010ACO ALTONA  PN           R$  000000000112100000000011350000000001121000000000112800000000011250000000001123000000000113500028000000000000004100000000000004626000000000000000009999123100000010000000000000BREALTACNPR1138
012024070402GSHP3       010GENERALSHOPPON           R$  000000000105700000000010570000000001057000000000105700000000010570000000001050000000000149000001000000000000000100000000000000105700000000000000009999123100000010000000000000BRGSHPACNOR7102
012024070402MGEL4       010MANGELS INDLPN           R$  000000000125100000000012510000000001250000000000125000000000012500000000001251000000000129000002000000000000000300000000000000375100000000000000009999123100000010000000000000BRMGELACNPR3147
012024070402TRPL4       010TRAN PAULISTPN      N1   R$  000000000267100000000026970000000002671000000000268800000000026910000000002687000000000269504844000000000001031200000000002772794800000000000000009999123100000010000000000000BRTRPLACNPR1185
012024070402CYRE3       010CYRELA REALTON      NM   R$  000000000194000000000019950000000001939000000000197500000000019820000000001977000000000198221381000000000007156700000000014141506500000000000000009999123100000010000000000000BRCYREACNOR7140
012024070402EQPA3       010EQTL PARA   ON           R$  000000000070400000000007200000000000704000000000071200000000007130000000000712000000000071900011000000000000002300000000000001639500000000000000009999123100000010000000000000BREQPAACNOR1111
012024070402VTRU3       010VITRUEDUCA  ON      NM   R$  000000000133500000000014150000000001322000000000137700000000014150000000001380000000000141500481000000000000084400000000000116242200000000000000009999123100000010000000000000BRVTRUACNOR3100
012024070402WHRL4       010WHIRLPOOL   PN           R$  000000000045200000000004580000000000452000000000045300000000004530000000000453000000000045700017000000000000003800000000000001723600000000000000009999123100000010000000000000BRWHRLACNPR2128
012024070402ESTR4       010ESTRELA     PN           R$  000000000018100000000001810000000000181000000000018100000000001810000000000181000000000018400002000000000000000300000000000000054300000000000000009999123100000010000000000000BRESTRACNPR0144
012024070402BHIA3       010CASAS BAHIA ON  ATZ NM   R$  000000000052700000000005540000000000522000000000053800000000005420000000000542000000000054503590000000000004922300000000002650877700000000000000009999123100000010000000000000BRBHIAACNOR1102
012024070402CSNA3       010SID NACIONALON           R$  000000000132300000000013340000000001310000000000132300000000013290000000001328000000000132904366000000000002253700000000002983887700000000000000009999123100000010000000000000BRCSNAACNOR6261
012024070402PFRM3       010PROFARMA    ON      NM   R$  000000000051700000000005480000000000517000000000053700000000005480000000000544000000000054800354000000000000085100000000000045783500000000000000009999123100000010000000000000BRPFRMACNOR1116
012024070402B3SA3       010B3          ON      NM   R$  000000000104900000000010650000000001046000000000105700000000010580000000001057000000000105939117000000000042220000000000044633051900000000000000009999123100000010000000000000BRB3SAACNOR6133
012024070402PNVL3       010DIMED       ON  EJ  NM   R$  000000000097200000000009950000000000972000000000099000000000009900000000000990000000000099301090000000000000189300000000000187430600000000000000009999123100000010000000000000BRPNVLACNOR9207
012024070402POSI3       010POSITIVO TECON      NM   R$  000000000082100000000008700000000000815000000000084400000000008700000000000865000000000087003772000000000001503200000000001269967000000000000000009999123100000010000000000000BRPOSIACNOR9116
012024070402CTKA4       010KARSTEN     PN           R$  000000000165000000000017000000000001650000000000168200000000017000000000001410000000000170000003000000000000000400000000000000673000000000000000009999123100000010000000000000BRCTKAACNPR7043
012024070402ENGI3       010ENERGISA    ON      N2   R$  000000000143100000000014800000000001431000000000146900000000014740000000001433000000000147500023000000000000003100000000000004554500000000000000009999123100000010000000000000BRENGIACNOR0145
012024070402IGTI3       010IGUATEMI S.AON      N1   R$  000000000026600000000002730000000000265000000000026900000000002690000000000266000000000027200178000000000000048600000000000013102600000000000000009999123100000010000000000000BRIGTIACNOR8106
012024070402INTB3       010INTELBRAS   ON      NM   R$  000000000228100000000023320000000002281000000000230600000000022930000000002293000000000230003621000000000000607800000000001402155800000000000000009999123100000010000000000000BRINTBACNOR9111
012024070402DEXP3       010DEXXOS PAR  ON      N1   R$  000000000105400000000010750000000001044000000000105800000000010440000000001044000000000105600383000000000000078400000000000082963900000000000000009999123100000010000000000000BRDEXPACNOR1105
012024070402ITUB3       010ITAUUNIBANCOON  EJ  N1   R$  000000000285400000000028630000000002837000000000284900000000028500000000002846000000000285100977000000000000188500000000000537089900000000000000009999123100000010000000000000BRITUBACNOR4338
012024070402PEAB3       010PAR AL BAHIAON           R$  000000000460000000000046000000000004600000000000460000000000046000000000000000000000000469900001000000000000000200000000000000920000000000000000009999123100000010000000000000BRPEABACNOR3133
012024070402SANB4       010SANTANDER BRPN           R$  000000000145000000000014690000000001450000000000145900000000014520000000001450000000000145900317000000000000047600000000000069457100000000000000009999123100000010000000000000BRSANBACNPR5171
012024070402TASA3       010TAURUS ARMASON      N2   R$  000000000123900000000012990000000001203000000000125300000000012410000000001231000000000125900075000000000000009300000000000011658000000000000000009999123100000010000000000000BRTASAACNOR7104
012024070402TELB3       010TELEBRAS    ON           R$  000000000126500000000012900000000001260000000000127500000000012900000000001271000000000129400007000000000000000800000000000001020400000000000000009999123100000010000000000000BRTELBACNOR2140
012024070402LVTC3       010WDC NETWORKSON      NM   R$  000000000035600000000003640000000000352000000000035500000000003530000000000355000000000036300036000000000000009600000000000003411100000000000000009999123100000010000000000000BRLVTCACNOR4102
012024070402TIMS3       010TIM         ON      NM   R$  000000000157500000000015950000000001568000000000158300000000015890000000001580000000000158907014000000000003749000000000005936272600000000000000009999123100000010000000000000BRTIMSACNOR5117
012024070407TXRX3       010TEX RENAUX  ON           R$  000000000095000000000009500000000000950000000000095000000000009500000000000200000000000340000001000000000000000100000000000000095000000000000000009999123100000010000000000000BRTXRXACNOR3142
012024070408NEXP3       010NEXPE       ON           R$  000000000041500000000004200000000000414000000000041500000000004140000000000416000000000043700006000000000000000600000000000000249200000000000000009999123100000010000000000000BRNEXPACNOR0101
012024070408ATMP3       010ATMASA      ON           R$  000000000018600000000001920000000000186000000000018700000000001920000000000185000000000019300017000000000000005500000000000001032200000000000000009999123100000010000000000000BRATMPACNOR8100
012024070408JFEN3       010JOAO FORTES ON           R$  000000000004400000000000450000000000038000000000004000000000000400000000000039000000000004001152000000000001158600000000000046433500000000000000009999123100000010000000000000BRJFENACNOR0059
012024070408ETER3       010ETERNIT     ON      NM   R$  000000000061000000000006290000000000608000000000061800000000006290000000000625000000000063000534000000000000168000000000000103911300000000000000009999123100000010000000000000BRETERACNOR3243
012024070408CTSA4       010SANTANENSE  PN           R$  000000000008500000000000850000000000082000000000008200000000000830000000000081000000000008300027000000000000017400000000000001440200000000000000009999123100000010000000000000BRCTSAACNPR0062
012024070410BODB12      010FIC FI BCNA DIR          R$  000000000000100000000000010000000000001000000000000100000000000010000000000000000000000000100064000000000000324336000000000000324336000000000000009999123100000010000000000000BRBODBD04M10134
012024070412LFTT11      010FII LOFT II CI           R$  000000000230000000000023010000000002300000000000230000000000023000000000002222000000000230000009000000000000002488000000000005722416000000000000009999123100000010000000000000BRLFTTCTF004132
012024070402ENJU3       010ENJOEI      ON      NM   R$  000000000020500000000002140000000000203000000000020800000000002140000000000212000000000021400714000000000000813000000000000169691100000000000000009999123100000010000000000000BRENJUACNOR9100
012024070402EQPA7       010EQTL PARA   PNC          R$  000000000082400000000008240000000000824000000000082400000000008240000000000700000000000150000001000000000000000200000000000000164800000000000000009999123100000010000000000000BREQPAACNPC0111
012024070402VULC3       010VULCABRAS   ON      NM   R$  000000000148100000000015410000000001475000000000151100000000015410000000001530000000000154103848000000000000699400000000001057467900000000000000009999123100000010000000000000BRVULCACNOR2159
012024070402WIZC3       010WIZ CO      ON      NM   R$  000000000059000000000005980000000000587000000000059400000000005980000000000595000000000059801734000000000000391800000000000232784000000000000000009999123100000010000000000000BRWIZCACNOR5102
012024070402EUCA3       010EUCATEX     ON      N1   R$  000000000154500000000015840000000001543000000000154900000000015840000000001530000000000172200004000000000000000800000000000001239700000000000000009999123100000010000000000000BREUCAACNOR1157
012024070402BRIT3       010BRISANET    ON      NM   R$  000000000040000000000004170000000000399000000000041100000000004120000000000407000000000041204536000000000001391000000000000571998600000000000000009999123100000010000000000000BRBRITACNOR0103
012024070402CSRN3       010COSERN      ON  EJ       R$  000000000230000000000023030000000002300000000000230100000000023030000000002160000000000230000004000000000000000400000000000000920600000000000000009999123100000010000000000000BRCSRNACNOR0193
012024070402PGMN3       010PAGUE MENOS ON      NM   R$  000000000027000000000002740000000000265000000000027100000000002710000000000271000000000027201008000000000000940800000000000255573200000000000000009999123100000010000000000000BRPGMNACNOR8103
012024070402BEES3       010BANESTES    ON  EJ       R$  000000000090500000000009200000000000905000000000091100000000009200000000000910000000000092000070000000000000014700000000000013399100000000000000009999123100000010000000000000BRBEESACNOR9393
012024070402POMO3       010MARCOPOLO   ON      N2   R$  000000000048400000000005150000000000483000000000050200000000005100000000000510000000000051102283000000000000848300000000000426665400000000000000009999123100000010000000000000BRPOMOACNOR0098
012024070402PRIO3       010PETRORIO    ON      NM   R$  000000000459500000000046860000000004543000000000462400000000046400000000004637000000000464418905000000000006507900000000030094104100000000000000009999123100000010000000000000BRPRIOACNOR1106
012024070402ENAT3       010ENAUTA PART ON      NM   R$  000000000226100000000022680000000002203000000000223000000000022300000000002221000000000223105489000000000001501300000000003349250000000000000000009999123100000010000000000000BRENATACNOR0104
012024070402ENGI4       010ENERGISA    PN      N2   R$  000000000079100000000007980000000000782000000000079200000000007950000000000788000000000079900031000000000000005700000000000004516300000000000000009999123100000010000000000000BRENGIACNPR7141
012024070402IGTI4       010IGUATEMI S.APN      N1   R$  000000000094500000000009540000000000945000000000094900000000009540000000000900000000000108600004000000000000000800000000000000759800000000000000009999123100000010000000000000BRIGTIACNPR5106
012024070402IRBR3       010IRBBRASIL REON      NM   R$  000000000315300000000031800000000003105000000000313500000000031200000000003118000000000312403327000000000000677600000000002124386300000000000000009999123100000010000000000000BRIRBRACNOR4111
012024070402DEXP4       010DEXXOS PAR  PN      N1   R$  000000000102200000000010300000000001013000000000102100000000010200000000001020000000000109800083000000000000029400000000000030026300000000000000009999123100000010000000000000BRDEXPACNPR8105
012024070402ITUB4       010ITAUUNIBANCOPN  EJ  N1   R$  000000000331700000000033240000000003290000000000330300000000032910000000003290000000000329122156000000000010038200000000033165971800000000000000009999123100000010000000000000BRITUBACNPR1338
012024070402PETR3       010PETROBRAS   ON      N2   R$  000000000403100000000040430000000003948000000000397800000000039590000000003958000000000396523154000000000006219800000000024746086500000000000000009999123100000010000000000000BRPETRACNOR9205
012024070402SAPR11      010SANEPAR     UNT EJ  N2   R$  000000000267700000000027440000000002677000000000272900000000027410000000002732000000000274103435000000000000655600000000001789181700000000000000009999123100000010000000000000BRSAPRCDAM13118
012024070402TASA4       010TAURUS ARMASPN      N2   R$  000000000121100000000012470000000001208000000000122600000000012260000000001226000000000123101452000000000000301800000000000370013300000000000000009999123100000010000000000000BRTASAACNPR4104
012024070402TELB4       010TELEBRAS    PN           R$  000000000087800000000008780000000000870000000000087300000000008730000000000872000000000087600009000000000000001800000000000001572500000000000000009999123100000010000000000000BRTELBACNPR9140
012024070402LWSA3       010LWSA        ON      NM   R$  000000000041300000000004230000000000408000000000041400000000004190000000000419000000000042006474000000000005757900000000002385787200000000000000009999123100000010000000000000BRLWSAACNOR8103
012024070402TOTS3       010TOTVS       ON      NM   R$  000000000299000000000029930000000002943000000000296300000000029670000000002967000000000296806013000000000001368800000000004055991900000000000000009999123100000010000000000000BRTOTSACNOR8144
012024070407TXRX4       010TEX RENAUX  PN           R$  000000000022600000000002260000000000226000000000022600000000002260000000000227000000000023500001000000000000000100000000000000022600000000000000009999123100000010000000000000BRTXRXACNPR0142
012024070408OIBR3       010OI          ON      N1   R$  000000000066000000000006680000000000637000000000065400000000006380000000000638000000000063901931000000000001381300000000000903732500000000000000009999123100000010000000000000BROIBRACNOR1111
012024070408RNEW4       010RENOVA      PN      N2   R$  000000000009300000000000940000000000090000000000009200000000000910000000000091000000000009200102000000000000099800000000000009193200000000000000009999123100000010000000000000BRRNEWACNPR5110
012024070408RPMG3       010PET MANGUINHON           R$  000000000026600000000002880000000000263000000000028000000000002750000000000270000000000028000279000000000000054400000000000015241100000000000000009999123100000010000000000000BRRPMGACNOR9194
012024070408PMAM3       010PARANAPANEMAON      NM   R$  000000000023800000000002430000000000234000000000023700000000002350000000000235000000000023600183000000000000040400000000000009587000000000000000009999123100000010000000000000BRPMAMACNOR3039
012024070408RSID3       010ROSSI RESID ON      NM   R$  000000000052900000000005450000000000525000000000053500000000005420000000000538000000000054200224000000000000030300000000000016216700000000000000009999123100000010000000000000BRRSIDACNOR8120
012024070410BSLI10      010BRB BANCO   PN  REC      R$  000000000089400000000008940000000000894000000000089400000000008940000000000850000000000089400002000000000000000300000000000000268200000000000000009999123100000010000000000000BRBSLIR02PR5192
012024070412ALZC11      010FII ALIANZACCI           R$  000000000970000000000097000000000009700000000000970000000000097000000000009511000000000970000001000000000000000001000000000000009700000000000000009999123100000010000000000000BRALZCCTF016104
012024070402VIVT3       010TELEF BRASILON  EJ       R$  000000000458800000000046310000000004577000000000460300000000046150000000004612000000000461504530000000000001022800000000004707998200000000000000009999123100000010000000000000BRVIVTACNOR0182
012024070402EPAR3       010EMBPAR S/A  ON           R$  000000000062900000000006300000000000629000000000062900000000006300000000000629000000000063000031000000000000014100000000000008882300000000000000009999123100000010000000000000BREPARACNOR9105
012024070402EQTL3       010EQUATORIAL  ON      NM   R$  000000000323000000000032690000000003230000000000325200000000032500000000003249000000000325016292000000000007015700000000022817410100000000000000009999123100000010000000000000BREQTLACNOR0130
012024070402WEST3       010WESTWING    ON      NM   R$  000000000009100000000000960000000000091000000000009300000000000930000000000093000000000009500204000000000000210600000000000019659200000000000000009999123100000010000000000000BRWESTACNOR3100
012024070402WLMM4       010WLM IND COM PN           R$  000000000318000000000031800000000003078000000000310100000000030780000000003050000000000307900027000000000000003600000000000011164700000000000000009999123100000010000000000000BRWLMMACNPR3118
012024070402EUCA4       010EUCATEX     PN      N1   R$  000000000152600000000015940000000001515000000000154700000000015940000000001570000000000159400211000000000000047400000000000073364800000000000000009999123100000010000000000000BREUCAACNPR8044
012024070402BRKM3       010BRASKEM     ON      N1   R$  000000000185700000000018650000000001833000000000183800000000018500000000001840000000000186300048000000000000010400000000000019124900000000000000009999123100000010000000000000BRBRKMACNOR1119
012024070402CSRN5       010COSERN      PNA EJ       R$  000000000215000000000022000000000002150000000000215900000000021700000000002150000000000222000008000000000000001300000000000002807000000000000000009999123100000010000000000000BRCSRNACNPA3193
012024070402PINE3       010PINE        ON      N2   R$  000000000052000000000005200000000000505000000000051100000000005120000000000512000000000051800009000000000000001300000000000000664300000000000000009999123100000010000000000000BRPINEACNOR1149
012024070402BEES4       010BANESTES    PN  EJ       R$  000000000096800000000009700000000000967000000000096800000000009690000000000900000000000096900010000000000000001800000000000001743000000000000000009999123100000010000000000000BRBEESACNPR6318
012024070402POMO4       010MARCOPOLO   PN      N2   R$  000000000062900000000006730000000000629000000000065700000000006570000000000657000000000065808704000000000005683300000000003737790900000000000000009999123100000010000000000000BRPOMOACNPR7098
012024070402CSUD3       010CSU DIGITAL ON  EJ  NM   R$  000000000187700000000019720000000001877000000000195100000000019540000000001953000000000195400143000000000000038900000000000075928900000000000000009999123100000010000000000000BRCSUDACNOR5110
012024070402ENEV3       010ENEVA       ON      NM   R$  000000000130000000000013030000000001285000000000129600000000012920000000001292000000000129807377000000000006138500000000007957456900000000000000009999123100000010000000000000BRENEVACNOR8106
012024070402IFCM3       010INFRACOMM   ON      NM   R$  000000000003300000000000380000000000032000000000003500000000000380000000000037000000000003803558000000000022886900000000000809876600000000000000009999123100000010000000000000BRIFCMACNOR8101
012024070402INEP3       010INEPAR      ON           R$  000000000018900000000001950000000000186000000000019000000000001910000000000190000000000019200156000000000000053000000000000010110600000000000000009999123100000010000000000000BRINEPACNOR1143
012024070402DASA3       010DASA        ON      NM   R$  000000000030000000000003020000000000294000000000029800000000002940000000000294000000000029502279000000000001451900000000000432976200000000000000009999123100000010000000000000BRDASAACNOR1122
012024070402DIRR3       010DIRECIONAL  ON      NM   R$  000000000283500000000029280000000002834000000000289000000000028800000000002880000000000288911008000000000003148900000000009102124100000000000000009999123100000010000000000000BRDIRRACNOR0117
012024070402PDGR3       010PDG REALT   ON      NM   R$  000000000001800000000000190000000000017000000000001800000000000190000000000018000000000001900246000000000001069400000000000019460900000000000000009999123100000010000000000000BRPDGRACNOR8118
012024070402PETR4       010PETROBRAS   PN      N2   R$  000000000379000000000037960000000003712000000000374100000000037320000000003731000000000373351484000000000032698800000000122348818600000000000000009999123100000010000000000000BRPETRACNPR6213
012024070402SAPR3       010SANEPAR     ON  EJ  N2   R$  000000000051200000000005200000000000508000000000051600000000005190000000000517000000000051900384000000000000169600000000000087572500000000000000009999123100000010000000000000BRSAPRACNOR9159
012024070402TCSA3       010TECNISA     ON      NM   R$  000000000019700000000002030000000000197000000000020000000000001990000000000199000000000020200132000000000000062000000000000012449800000000000000009999123100000010000000000000BRTCSAACNOR3112
012024070402TEND3       010TENDA       ON      NM   R$  000000000111100000000011950000000001111000000000116900000000011860000000001170000000000118608778000000000002493300000000002915809500000000000000009999123100000010000000000000BRTENDACNOR4111
012024070402TFCO4       010TRACK FIELD PN  EJ  N2   R$  000000000110100000000011350000000001101000000000112500000000011310000000001123000000000113100390000000000000139300000000000156801400000000000000009999123100000010000000000000BRTFCOACNPR8114
012024070402TPIS3       010TRIUNFO PARTON      NM   R$  000000000038500000000003970000000000385000000000039100000000003870000000000387000000000039500207000000000000059800000000000023403300000000000000009999123100000010000000000000BRTPISACNOR8118
012024070407NUTR3       010NUTRIPLANT  ON      MA   R$  000000000050500000000005270000000000505000000000051200000000005190000000000506000000000051900053000000000000014600000000000007481300000000000000009999123100000010000000000000BRNUTRACNOR0104
012024070408OIBR4       010OI          PN      N1   R$  000000000160000000000016200000000001530000000000158800000000015410000000001541000000000154500096000000000000018500000000000029387100000000000000009999123100000010000000000000BROIBRACNPR8110
012024070408LIGT3       010LIGHT S/A   ON      NM   R$  000000000050100000000005130000000000501000000000050700000000005070000000000504000000000050703370000000000000603300000000000306215400000000000000009999123100000010000000000000BRLIGTACNOR2124
012024070408RNEW11      010RENOVA      UNT     N2   R$  000000000028100000000002810000000000274000000000027700000000002770000000000275000000000027800010000000000000001700000000000000472100000000000000009999123100000010000000000000BRRNEWCDAM15110
012024070408CTNM4       010COTEMINAS   PN           R$  000000000007000000000000700000000000070000000000007000000000000700000000000070000000000007300013000000000000017900000000000001253000000000000000009999123100000010000000000000BRCTNMACNPR6129
012024070410AMAR1       010LOJAS MARISADIR ORD NM   R$  000000000000100000000000010000000000001000000000000100000000000010000000000000000000000000100061000000000000148300000000000000148300000000000000009999123100000010000000000000BRAMARD02OR7114
012024070410VIVR1       010VIVER       DIR ORD NM   R$  000000000000100000000000010000000000001000000000000100000000000010000000000000000000000000100012000000000000006500000000000000006500000000000000009999123100000010000000000000BRVIVRD18OR3122
012024070402VLID3       010VALID       ON      NM   R$  000000000155500000000016050000000001555000000000158800000000015830000000001582000000000159702855000000000000370500000000000588405100000000000000009999123100000010000000000000BRVLIDACNOR5143
012024070402EQMA3B      010EQTLMARANHAOON      MB   R$  000000000259900000000025990000000002599000000000259900000000025990000000002551000000000264900001000000000000000100000000000000259900000000000000009999123100000010000000000000BREQMAACNOR8108
012024070402VSTE3       010VESTE       ON      NM   R$  000000000153800000000015390000000001500000000000151500000000015000000000001500000000000152900047000000000000006500000000000009851200000000000000009999123100000010000000000000BRVSTEACNOR5103
012024070402WHRL3       010WHIRLPOOL   ON           R$  000000000045000000000004500000000000450000000000045000000000004500000000000450000000000046200001000000000000000300000000000000135000000000000000009999123100000010000000000000BRWHRLACNOR5128
012024070402ESPA3       010ESPACOLASER ON      NM   R$  000000000010100000000001060000000000101000000000010200000000001030000000000103000000000010500374000000000000493700000000000050796400000000000000009999123100000010000000000000BRESPAACNOR7103
012024070402EVEN3       010EVEN        ON      NM   R$  000000000066200000000006840000000000662000000000067400000000006720000000000672000000000067503664000000000000693300000000000467638300000000000000009999123100000010000000000000BREVENACNOR8119
012024070402BRKM5       010BRASKEM     PNA     N1   R$  000000000184800000000018570000000001824000000000183800000000018250000000001825000000000182603398000000000001143400000000002102364700000000000000009999123100000010000000000000BRBRKMACNPA4121
012024070402YDUQ3       010YDUQS PART  ON      NM   R$  000000000112700000000011700000000001127000000000115000000000011700000000001164000000000117007924000000000004058400000000004669595700000000000000009999123100000010000000000000BRYDUQACNOR3105
012024070402PINE4       010PINE        PN      N2   R$  000000000044800000000004540000000000446000000000044700000000004470000000000446000000000044700318000000000000174100000000000077990400000000000000009999123100000010000000000000BRPINEACNPR8149
012024070402PLPL3       010PLANOEPLANO ON      NM   R$  000000000103000000000010750000000001029000000000105600000000010620000000001051000000000106202018000000000000508900000000000537770900000000000000009999123100000010000000000000BRPLPLACNOR5104
012024070402PORT3       010WILSON SONS ON      NM   R$  000000000150600000000015440000000001506000000000153500000000015370000000001531000000000153801094000000000000570200000000000875383000000000000000009999123100000010000000000000BRPORTACNOR8108
012024070402CTKA3       010KARSTEN     ON           R$  000000000189900000000020000000000001899000000000193300000000020000000000001500000000000199900003000000000000000300000000000000579900000000000000009999123100000010000000000000BRCTKAACNOR0043
012024070402ENGI11      010ENERGISA    UNT     N2   R$  000000000459900000000046480000000004594000000000462900000000046260000000004625000000000462913993000000000003122100000000014453675800000000000000009999123100000010000000000000BRENGICDAM16135
012024070402IGTI11      010IGUATEMI S.AUNT     N1   R$  000000000209900000000021790000000002099000000000215700000000021610000000002150000000000216111665000000000004989100000000010765827900000000000000009999123100000010000000000000BRIGTICDAM16106
012024070402INEP4       010INEPAR      PN           R$  000000000017900000000001870000000000178000000000018100000000001810000000000178000000000018100047000000000000024500000000000004438400000000000000009999123100000010000000000000BRINEPACNPR8143
012024070402DESK3       010DESKTOP     ON      NM   R$  000000000145600000000015200000000001410000000000146200000000015050000000001505000000000150801517000000000000554400000000000810581100000000000000009999123100000010000000000000BRDESKACNOR2104
012024070402FRAS3       010FRAS-LE     ON      N1   R$  000000000199000000000020250000000001989000000000201600000000020250000000002016000000000202501740000000000000519100000000001046599300000000000000009999123100000010000000000000BRFRASACNOR0159
012024070402PDTC3       010PADTEC      ON      NM   R$  000000000019700000000002040000000000197000000000020000000000002010000000000201000000000020200072000000000000061100000000000012269900000000000000009999123100000010000000000000BRPDTCACNOR3101
012024070402RSUL4       010RIOSULENSE  PN           R$  000000000700000000000070000000000006777000000000689400000000067770000000006760000000000685000030000000000000003500000000000024129100000000000000009999123100000010000000000000BRRSULACNPR3114
012024070402SAPR4       010SANEPAR     PN  EJ  N2   R$  000000000054200000000005550000000000542000000000055200000000005520000000000551000000000055301908000000000000786200000000000433983000000000000000009999123100000010000000000000BRSAPRACNPR6159
012024070402TECN3       010TECHNOS     ON      NM   R$  000000000052500000000005440000000000525000000000053800000000005400000000000538000000000054000963000000000000639900000000000344659100000000000000009999123100000010000000000000BRTECNACNOR6109
012024070402LUPA3       010LUPATECH    ON      NM   R$  000000000016200000000001680000000000159000000000016500000000001670000000000166000000000016700295000000000000361900000000000059743900000000000000009999123100000010000000000000BRLUPAACNOR8112
012024070402TGMA3       010TEGMA       ON      NM   R$  000000000251700000000025650000000002514000000000255000000000025600000000002560000000000256800798000000000000154400000000000393755000000000000000009999123100000010000000000000BRTGMAACNOR7144
012024070402TRAD3       010TC          ON      NM   R$  000000000005300000000000560000000000052000000000005300000000000560000000000055000000000005600358000000000000784800000000000042139100000000000000009999123100000010000000000000BRTRADACNOR3101
012024070408AMER3       010AMERICANAS  ON      NM   R$  000000000004000000000000420000000000039000000000004000000000000400000000000040000000000004101568000000000019877000000000000810226300000000000000009999123100000010000000000000BRAMERACNOR6102
012024070408OSXB3       010OSX BRASIL  ON      NM   R$  000000000037800000000003780000000000377000000000037700000000003770000000000380000000000038400003000000000000000500000000000000188900000000000000009999123100000010000000000000BROSXBACNOR8109
012024070408SGPS3       010SPRINGS     ON  EG  NM   R$  000000000014800000000001480000000000148000000000014800000000001480000000000136000000000014800030000000000000020000000000000002960000000000000000009999123100000010000000000000BRSGPSACNOR4105
012024070408RNEW3       010RENOVA      ON      N2   R$  000000000009200000000000940000000000090000000000009100000000000930000000000091000000000009200041000000000000024200000000000002220200000000000000009999123100000010000000000000BRRNEWACNOR8110
012024070408CTSA3       010SANTANENSE  ON           R$  000000000022200000000002220000000000222000000000022200000000002220000000000222000000000022300010000000000000002000000000000000444000000000000000009999123100000010000000000000BRCTSAACNOR3062
012024070410RENT1       010LOCALIZA    DIR ORD NM   R$  000000000095000000000011800000000000941000000000108800000000011190000000001083000000000112400262000000000000166400000000000181134100000000000000009999123100000010000000000000BRRENTD06OR8195
012024070410EQTL9       010EQUATORIAL  ON  REC NM   R$  000000000328300000000032830000000003221000000000322800000000032750000000003100000000000339900015000000000000005400000000000017435200000000000000009999123100000010000000000000BREQTLR03OR1129
012024070412APTO11      010FII NAVI RSDCI  ER       R$  000000000094500000000009510000000000943000000000094600000000009510000000000951000000000095500102000000000000000757000000000000716696000000000000009999123100000010000000000000BRAPTOCTF007132
012024070412CPFF11      010FII CAP REITCI           R$  000000000731500000000073150000000007260000000000726000000000072610000000007261000000000726703957000000000000006858000000000049794914000000000000009999123100000010000000000000BRCPFFCTF000156
012024070412NCHB11      010FII NCH BR  CI           R$  000000000092700000000009330000000000923000000000092800000000009320000000000931000000000093300278000000000000016973000000000015761393000000000000009999123100000010000000000000BRNCHBCTF000230
012024070412OCRE11      010FII OCTO    CI  ER       R$  000000001010000000000101000000000010000000000001007600000000101000000000010100000000001013400007000000000000000501000000000005048307000000000000009999123100000010000000000000BROCRECTF001115
012024070412BBFI11      010FII BB PROGRCI  EA       R$  000000006670700000000679980000000066003000000006729200000000679670000000067505000000006796700133000000000000000438000000000029474212000000000000009999123100000010000000000000BRBBFICTF006329
012024070412OURE11      010FII OU RENDACI           R$  000000000768700000000077410000000007650000000000770100000000077410000000007732000000000774100064000000000000000925000000000007123831000000000000009999123100000010000000000000BROURECTF003143
012024070412CPLG11      010FII CPLG    CI           R$  000000000104000000000010400000000001040000000000104000000000010400000000000000000000000104500003000000000000480770000000000500000800000000000000009999123100000010000000000000BRCPLGCTF006100
012024070412ASMT11      010FII ASA MET CI           R$  000000000400000000000042000000000004000000000000414200000000040000000000003901000000000400000006000000000000001101000000000004560782000000000000009999123100000010000000000000BRASMTCTF005107
012024070412RECT11      010FII REC RENDCI           R$  000000000349400000000035100000000003463000000000348900000000035080000000003504000000000351000597000000000000015975000000000055746076000000000000009999123100000010000000000000BRRECTCTF000167
012024070412BBRC11      010FII BB CORP CI  ER       R$  000000001080000000000108000000000010750000000001079600000000108000000000010795000000001080000076000000000000000645000000000006963946000000000000009999123100000010000000000000BRBBRCCTF004254
012024070412SPXS11      010FII SPX SYN CI           R$  000000000093400000000009380000000000934000000000093600000000009380000000000937000000000093801438000000000000022512000000000021081627000000000000009999123100000010000000000000BRSPXSCTF002124
012024070412BPML11      010FII BTG SHOPCI           R$  000000000947000000000094700000000009205000000000935600000000093640000000009362000000000936400971000000000000010606000000000099236557000000000000009999123100000010000000000000BRBPMLCTF006131
012024070412RBIR11      010FII RBRES IVCI  EA       R$  000000000841100000000084110000000008411000000000841100000000084110000000008300000000000839700001000000000000000001000000000000008411000000000000009999123100000010000000000000BRRBIRCTF007112
012024070412RBRL11      010FII RBR LOG CI           R$  000000000759000000000076720000000007552000000000760500000000076280000000007600000000000764401518000000000000007416000000000056401771000000000000009999123100000010000000000000BRRBRLCTF001154
012024070412RBRX11      010FII RBR MULTCI           R$  000000000089900000000009120000000000899000000000090400000000009110000000000907000000000091103965000000000000088572000000000080076447000000000000009999123100000010000000000000BRRBRXCTF006129
012024070412BRCR11      010FII BC FUND CI           R$  000000000501100000000050200000000004999000000000500500000000050090000000005009000000000501606091000000000000029137000000000145838373000000000000009999123100000010000000000000BRBRCRCTF000267
012024070412SMRE11      010FII SMRE    CI  ER       R$  000000001000000000000100000000000010000000000001000000000000100000000000009900000000001000000026000000000000000260000000000002600000000000000000009999123100000010000000000000BRSMRECTF001102
012024070412IBCR11      010FII BREI    CI           R$  000000000727400000000072740000000007140000000000717100000000071520000000007152000000000716202864000000000000003334000000000023909482000000000000009999123100000010000000000000BRIBCRCTF009137
012024070412LIFE11      010FII LIFE    CI  ER       R$  000000000100300000000010200000000000998000000000100700000000010200000000001020000000000103000301000000000000008164000000000008228736000000000000009999123100000010000000000000BRLIFECTF017130
012024070412NAVT11      010FII NAVI TOTCI           R$  000000000915900000000092170000000009048000000000910300000000091580000000009107000000000915900181000000000000001987000000000018088239000000000000009999123100000010000000000000BRNAVTCTF015139
012024070412QAGR11      010FII QUASAR ACI  ER       R$  000000000460300000000046520000000004591000000000461400000000046490000000004649000000000466102471000000000000006224000000000028722282000000000000009999123100000010000000000000BRQAGRCTF005156
012024070412SHPH11      010FII HIGIENOPCI  ER       R$  000000008600000000000861990000000085500000000008601000000000860000000000086000000000008620000004000000000000000009000000000000774097000000000000009999123100000010000000000000BRSHPHCTF008351
012024070412TRXB11      010FII TRX R IICI  ER       R$  000000001465200000000154000000000014652000000001483000000000146520000000014652000000001485000005000000000000000012000000000000177964000000000000009999123100000010000000000000BRTRXBCTF002152
012024070412VVCR11      010FII V2 RECE CI           R$  000000000099800000000009980000000000947000000000099600000000009960000000000996000000000099700379000000000000280548000000000279676874000000000000009999123100000010000000000000BRVVCRCTF000116
012024070412ZAVI11      010FII ZAVIT R CI  ER       R$  000000001078000000000110500000000010780000000001086000000000109060000000010784000000001090600080000000000000001421000000000015433242000000000000009999123100000010000000000000BRZAVICTF004122
012024070412HCHG11      010FII HECT CRICI  ER       R$  000000000698700000000069870000000006905000000000691400000000069050000000006910000000000700000006000000000000000054000000000000373359000000000000009999123100000010000000000000BRHCHGCTF001138
012024070412HFOF11      010FII HTOPFOF3CI  ER       R$  000000000691500000000070400000000006915000000000698700000000070050000000007003000000000703803360000000000000048319000000000337633770000000000000009999123100000010000000000000BRHFOFCTF002190
012024070412HGFF11      010FII HGFF PAXCI  ER       R$  000000000810100000000081510000000008100000000000811700000000081440000000008105000000000814400480000000000000015411000000000125104241000000000000009999123100000010000000000000BRHGFFCTF008161
012024070412HGRE11      010FII HG REAL CI  ER       R$  000000001152400000000116430000000011524000000001158300000000115900000000011590000000001160801446000000000000009691000000000112258120000000000000009999123100000010000000000000BRHGRECTF006293
012024070412HOSI11      010FII HOUSI   CI  ER       R$  000000000972600000000099500000000009305000000000945200000000096450000000009491000000000960000070000000000000002508000000000023707946000000000000009999123100000010000000000000BRHOSICTF009146
012024070412HSAF11      010FII HSI CRI CI  ER       R$  000000000840800000000084710000000008380000000000842400000000083890000000008389000000000840201937000000000000006843000000000057648662000000000000009999123100000010000000000000BRHSAFCTF004149
012024070412HUCG11      010FII UNIMED CCI           R$  000000000850000000000085000000000008398000000000845400000000084000000000008350000000000840000021000000000000000477000000000004032968000000000000009999123100000010000000000000BRHUCGCTF004120
012024070412KNIP11      010FII KINEA IPCI  ER       R$  000000000948900000000094890000000009437000000000945500000000094430000000009439000000000944311520000000000000080839000000000764406711000000000000009999123100000010000000000000BRKNIPCTF001194
