00COTAHIST.2024BOVESPA 20241002                                                                                                                                                                                                                      
012024100202CAMB3       010CAMBUCI     ON           R$  000000000125800000000012670000000001237000000000125400000000012370000000001235000000000124900328000000000000058900000000000073882000000000000000009999123100000010000000000000BRCAMBACNOR4131
012024100202CAML3       010CAMIL       ON      NM   R$  000000000084400000000008750000000000839000000000085200000000008390000000000839000000000084504032000000000001039400000000000885999900000000000000009999123100000010000000000000BRCAMLACNOR3129
012024100202CASH3       010MELIUZ      ON      NM   R$  000000000039800000000004000000000000387000000000039100000000003870000000000387000000000038902355000000000000992900000000000388602200000000000000009999123100000010000000000000BRCASHACNOR8107
012024100202CBAV3       010CBA         ON      NM   R$  000000000055800000000005830000000000557000000000057600000000005780000000000578000000000058108881000000000004199200000000002418790500000000000000009999123100000010000000000000BRCBAVACNOR5104
012024100202CRFB3       010CARREFOUR BRON      NM   R$  000000000094000000000009500000000000907000000000092800000000009070000000000907000000000091309638000000000007775700000000007216119100000000000000009999123100000010000000000000BRCRFBACNOR2116
012024100202CRPG3       010CRISTAL     ON           R$  000000000285400000000028540000000002854000000000285400000000028540000000002800000000000330000002000000000000000200000000000000570800000000000000009999123100000010000000000000BRCRPGACNOR0119
012024100202CRPG5       010CRISTAL     PNA          R$  000000000261200000000026640000000002600000000000262900000000026640000000002620000000000266400049000000000000017900000000000047067300000000000000009999123100000010000000000000BRCRPGACNPA3119
012024100202CRPG6       010CRISTAL     PNB          R$  000000000265300000000027490000000002601000000000264700000000027490000000002651000000000274900014000000000000001500000000000003971500000000000000009999123100000010000000000000BRCRPGACNPB1119
012024100202CSAN3       010COSAN       ON      NM   R$  000000000134000000000013760000000001340000000000135900000000013530000000001351000000000135415367000000000010345200000000014065499100000000000000009999123100000010000000000000BRCSANACNOR6126
012024100202ELMD3       010ELETROMIDIA ON      NM   R$  000000000165100000000016880000000001651000000000167500000000016600000000001659000000000168400211000000000000039100000000000065507600000000000000009999123100000010000000000000BRELMDACNOR3101
012024100202EMAE4       010EMAE        PN  EJ       R$  000000000393900000000039690000000003900000000000392900000000039680000000003910000000000397000012000000000000001400000000000005501700000000000000009999123100000010000000000000BREMAEACNPR1126
012024100202EMBR3       010EMBRAER     ON      NM   R$  000000000479600000000048000000000004633000000000468800000000046330000000004633000000000464223077000000000004975100000000023324752000000000000000009999123100000010000000000000BREMBRACNOR4191
012024100202HBOR3       010HELBOR      ON      NM   R$  000000000019000000000001980000000000190000000000019500000000001950000000000193000000000019500299000000000000228800000000000044772000000000000000009999123100000010000000000000BRHBORACNOR3118
012024100202HBRE3       010HBR REALTY  ON      NM   R$  000000000047700000000004890000000000471000000000047700000000004710000000000471000000000047401920000000000000755000000000000360672200000000000000009999123100000010000000000000BRHBREACNOR4100
012024100202HBSA3       010HIDROVIAS   ON  ES  NM   R$  000000000033700000000003490000000000337000000000034300000000003400000000000339000000000034004947000000000003093200000000001061583100000000000000009999123100000010000000000000BRHBSAACNOR0101
012024100202HBTS5       010HABITASUL   PNA          R$  000000000335000000000033500000000003000000000000301500000000030000000000003000000000000320000032000000000000005600000000000016888200000000000000009999123100000010000000000000BRHBTSACNPA3128
012024100202HYPE3       010HYPERA      ON  EJ  NM   R$  000000000272100000000027360000000002666000000000268400000000026720000000002672000000000268012956000000000003610300000000009690574400000000000000009999123100000010000000000000BRHYPEACNOR0144
012024100202JHSF3       010JHSF PART   ON  ED  NM   R$  000000000043200000000004470000000000432000000000043900000000004360000000000434000000000043707095000000000004949900000000002177738800000000000000009999123100000010000000000000BRJHSFACNOR2140
012024100202BIOM3       010BIOMM       ON      MA   R$  000000000098600000000009990000000000979000000000098700000000009790000000000979000000000098800252000000000000059000000000000058291200000000000000009999123100000010000000000000BRBIOMACNOR2112
012024100202BRAV3       010BRAVA       ON      NM   R$  000000000183600000000018600000000001715000000000176400000000017550000000001754000000000175525405000000000015962200000000028164942300000000000000009999123100000010000000000000BRBRAVACNOR3100
012024100202JSLG3       010JSL         ON      NM   R$  000000000090000000000009060000000000835000000000086700000000008350000000000834000000000084401694000000000000557800000000000483854500000000000000009999123100000010000000000000BRJSLGACNOR2121
012024100202KEPL3       010KEPLER WEBERON      NM   R$  000000000098600000000010010000000000978000000000098700000000009860000000000985000000000098806738000000000002220600000000002192992900000000000000009999123100000010000000000000BRKEPLACNOR1064
012024100202ANIM3       010ANIMA       ON      NM   R$  000000000024000000000002490000000000235000000000024200000000002370000000000236000000000023814167000000000010607200000000002571785000000000000000009999123100000010000000000000BRANIMACNOR6109
012024100202ITSA4       010ITAUSA      PN      N1   R$  000000000110000000000011100000000001092000000000109700000000010930000000001093000000000109419676000000000014088400000000015468428500000000000000009999123100000010000000000000BRITSAACNPR7443
012024100202MDIA3       010M.DIASBRANCOON      NM   R$  000000000251500000000026310000000002511000000000259900000000026160000000002611000000000262703086000000000000557200000000001448354000000000000000009999123100000010000000000000BRMDIAACNOR7136
012024100202MDNE3       010MOURA DUBEUXON      NM   R$  000000000144500000000015470000000001445000000000151300000000015200000000001515000000000152004234000000000001039400000000001572759800000000000000009999123100000010000000000000BRMDNEACNOR9100
012024100202MEAL3       010IMC S/A     ON      NM   R$  000000000013100000000001340000000000128000000000013000000000001280000000000128000000000012901466000000000000657000000000000085955500000000000000009999123100000010000000000000BRMEALACNOR9105
012024100202MELK3       010MELNICK     ON      NM   R$  000000000035800000000003680000000000355000000000036100000000003580000000000357000000000035800860000000000000668100000000000241266500000000000000009999123100000010000000000000BRMELKACNOR8111
012024100202DASA3       010DASA        ON      NM   R$  000000000028100000000003000000000000280000000000029100000000002910000000000290000000000029102379000000000001110900000000000323531400000000000000009999123100000010000000000000BRDASAACNOR1123
012024100202ITSA3       010ITAUSA      ON      N1   R$  000000000109000000000011050000000001090000000000109800000000010900000000001090000000000109500563000000000000164300000000000180433000000000000000009999123100000010000000000000BRITSAACNOR0443
012024100202BLAU3       010BLAU        ON  EJ  NM   R$  000000000131500000000013550000000001315000000000133700000000013250000000001324000000000132900948000000000000138100000000000184702100000000000000009999123100000010000000000000BRBLAUACNOR8115
012024100202BMEB3       010MERCANTIL   ON      N1   R$  000000000387200000000038720000000003872000000000387200000000038720000000003872000000000399800001000000000000000100000000000000387200000000000000009999123100000010000000000000BRBMEBACNOR8206
012024100202BMEB4       010MERCANTIL   PN      N1   R$  000000000379000000000039960000000003790000000000390000000000039300000000003900000000000393500231000000000000040200000000000156816700000000000000009999123100000010000000000000BRBMEBACNPR5211
012024100202BMGB4       010BANCO BMG   PN      N1   R$  000000000040100000000004080000000000399000000000040400000000004050000000000404000000000040501621000000000000811900000000000328313900000000000000009999123100000010000000000000BRBMGBACNPR0110
012024100202BMKS3       010BIC MONARK  ON           R$  000000003099800000000309980000000030511000000003078400000000306000000000030511000000003099800006000000000000000006000000000000184705000000000000009999123100000010000000000000BRBMKSACNOR9166
012024100202BMOB3       010BEMOBI TECH ON      NM   R$  000000000141400000000014550000000001414000000000144400000000014500000000001434000000000145000913000000000000142100000000000205282500000000000000009999123100000010000000000000BRBMOBACNOR7103
012024100202BNBR3       010NORD BRASIL ON           R$  000000001040000000000104000000000010400000000001040000000000104000000000010339000000001085500001000000000000000100000000000001040000000000000000009999123100000010000000000000BRBNBRACNOR8209
012024100202BOBR4       010BOMBRIL     PN           R$  000000000023000000000002380000000000230000000000023400000000002320000000000232000000000023300029000000000000012100000000000002832000000000000000009999123100000010000000000000BRBOBRACNPR3128
012024100202DESK3       010DESKTOP     ON      NM   R$  000000000144900000000014780000000001445000000000145900000000014450000000001445000000000146400565000000000000128600000000000187673200000000000000009999123100000010000000000000BRDESKACNOR2104
012024100202DEXP3       010DEXXOS PAR  ON      N1   R$  000000000089900000000009160000000000892000000000090400000000009040000000000895000000000090400328000000000000066800000000000060428400000000000000009999123100000010000000000000BRDEXPACNOR1105
012024100202DEXP4       010DEXXOS PAR  PN      N1   R$  000000000090400000000009150000000000900000000000090000000000009000000000000890000000000091000012000000000000007400000000000006665700000000000000009999123100000010000000000000BRDEXPACNPR8105
012024100202DIRR3       010DIRECIONAL  ON      NM   R$  000000000304700000000031130000000003047000000000308400000000030810000000003081000000000308708619000000000002043000000000006302481300000000000000009999123100000010000000000000BRDIRRACNOR0119
012024100202DMVF3       010D1000VFARMA ON      NM   R$  000000000060700000000006120000000000603000000000060700000000006070000000000607000000000061100227000000000000042200000000000025629500000000000000009999123100000010000000000000BRDMVFACNOR9100
012024100202DOHL4       010DOHLER      PN           R$  000000000041800000000004180000000000418000000000041800000000004180000000000405000000000041800001000000000000000100000000000000041800000000000000009999123100000010000000000000BRDOHLACNPR9066
012024100202DOTZ3       010DOTZ SA     ON      NM   R$  000000000048100000000004930000000000480000000000048400000000004810000000000480000000000048600046000000000000011000000000000005327700000000000000009999123100000010000000000000BRDOTZACNOR7101
012024100202DXCO3       010DEXCO       ON      NM   R$  000000000087700000000008940000000000863000000000087500000000008750000000000874000000000087607178000000000002540300000000002223112400000000000000009999123100000010000000000000BRDXCOACNOR8105
012024100202EALT3       010ACO ALTONA  ON           R$  000000000151400000000015140000000001460000000000147000000000014600000000001460000000000151000005000000000000000900000000000001323500000000000000009999123100000010000000000000BREALTACNOR4138
012024100202EALT4       010ACO ALTONA  PN           R$  000000000142400000000014300000000001400000000000140500000000014090000000001407000000000141800053000000000000021800000000000030631300000000000000009999123100000010000000000000BREALTACNPR1138
012024100202ECOR3       010ECORODOVIAS ON      NM   R$  000000000070000000000007190000000000698000000000070800000000007080000000000706000000000070804542000000000003395800000000002407101800000000000000009999123100000010000000000000BRECORACNOR8120
012024100202AALR3       010ALLIAR      ON      NM   R$  000000000149300000000015390000000001490000000000151100000000014960000000001495000000000153300254000000000000029300000000000044289100000000000000009999123100000010000000000000BRAALRACNOR6102
012024100202GEPA3       010GER PARANAP ON           R$  000000000298400000000029840000000002984000000000298400000000029840000000002984000000000305000001000000000000000100000000000000298400000000000000009999123100000010000000000000BRGEPAACNOR2153
012024100202GEPA4       010GER PARANAP PN           R$  000000000299900000000030000000000002999000000000299900000000030000000000003000000000000301000005000000000000000800000000000002399700000000000000009999123100000010000000000000BRGEPAACNPR9160
012024100202GFSA3       010GAFISA      ON      NM   R$  000000000022600000000002390000000000222000000000022900000000002220000000000222000000000022302976000000000004743100000000001087091400000000000000009999123100000010000000000000BRGFSAACNOR3125
012024100202GGBR3       010GERDAU      ON      N1   R$  000000000169200000000017450000000001692000000000172400000000017170000000001717000000000172500511000000000000074800000000000128967800000000000000009999123100000010000000000000BRGGBRACNOR1193
012024100202GGBR4       010GERDAU      PN      N1   R$  000000000192700000000019680000000001923000000000194800000000019370000000001936000000000193824581000000000017920000000000034910981100000000000000009999123100000010000000000000BRGGBRACNPR8193
012024100202ITUB3       010ITAUUNIBANCOON  EJ  N1   R$  000000000309000000000031430000000003090000000000311600000000031090000000003109000000000311201396000000000000346500000000001079953200000000000000009999123100000010000000000000BRITUBACNOR4342
012024100202ITUB4       010ITAUUNIBANCOPN  EJ  N1   R$  000000000358700000000036260000000003552000000000357800000000035720000000003572000000000357441945000000000020768200000000074321431300000000000000009999123100000010000000000000BRITUBACNPR1342
012024100202ABCB4       010ABC BRASIL  PN      N2   R$  000000000220300000000022140000000002178000000000219100000000021780000000002178000000000219104671000000000000787100000000001725110100000000000000009999123100000010000000000000BRABCBACNPR4146
012024100202ABEV3       010AMBEV S/A   ON           R$  000000000137000000000013850000000001361000000000137600000000013720000000001372000000000137339936000000000051056800000000070301146500000000000000009999123100000010000000000000BRABEVACNOR1128
012024100202BAHI3       010BAHEMA      ON      MA   R$  000000000060500000000006100000000000599000000000060300000000006000000000000599000000000060600017000000000000006100000000000003680600000000000000009999123100000010000000000000BRBAHIACNOR1074
012024100202BALM3       010BAUMER      ON           R$  000000000150800000000019000000000001269000000000161100000000016200000000001620000000000180000025000000000000002500000000000004027600000000000000009999123100000010000000000000BRBALMACNOR5055
012024100202BALM4       010BAUMER      PN           R$  000000000110000000000011490000000001025000000000107100000000010500000000001050000000000106200045000000000000005800000000000006217400000000000000009999123100000010000000000000BRBALMACNPR2056
012024100202BAZA3       010AMAZONIA    ON           R$  000000000928700000000094170000000009200000000000931700000000092000000000009200000000000939900020000000000000002400000000000022362600000000000000009999123100000010000000000000BRBAZAACNOR0179
012024100202BBAS3       010BRASIL      ON      NM   R$  000000000273000000000027520000000002715000000000272800000000027150000000002715000000000272336483000000000012662400000000034545600200000000000000009999123100000010000000000000BRBBASACNOR3326
012024100202NGRD3       010NEOGRID     ON      NM   R$  000000000010800000000001180000000000108000000000011300000000001150000000000113000000000011501145000000000000963300000000000109475700000000000000009999123100000010000000000000BRNGRDACNOR3104
012024100202NINJ3       010GETNINJAS   ON      NM   R$  000000000047300000000004730000000000465000000000046600000000004650000000000461000000000047000010000000000000001900000000000000886000000000000000009999123100000010000000000000BRNINJACNOR5101
012024100202NORD3       010NORDON MET  ON           R$  000000000101500000000010150000000001015000000000101500000000010150000000000954000000000099900001000000000000000100000000000000101500000000000000009999123100000010000000000000BRNORDACNOR7135
012024100202NTCO3       010GRUPO NATURAON      NM   R$  000000000143000000000014620000000001416000000000143200000000014260000000001425000000000142711298000000000005032000000000007207031200000000000000009999123100000010000000000000BRNTCOACNOR5106
012024100202RAIZ4       010RAIZEN      PN      N2   R$  000000000031300000000003240000000000313000000000031800000000003160000000000316000000000031711962000000000012512800000000003990693800000000000000009999123100000010000000000000BRRAIZACNPR6111
012024100202RANI3       010IRANI       ON      NM   R$  000000000075900000000008010000000000759000000000078100000000007790000000000777000000000078004445000000000001774200000000001387186400000000000000009999123100000010000000000000BRRANIACNOR5073
012024100202SYNE3       010SYN PROP TECON      NM   R$  000000000077300000000007840000000000772000000000077800000000007800000000000780000000000078201721000000000000546200000000000425256900000000000000009999123100000010000000000000BRSYNEACNOR2103
012024100202RSUL4       010RIOSULENSE  PN           R$  000000000625400000000062550000000006150000000000620100000000061980000000006021000000000620000052000000000000006200000000000038448900000000000000009999123100000010000000000000BRRSULACNPR3114
012024100202USIM3       010USIMINAS    ON      N1   R$  000000000060200000000006200000000000602000000000061500000000006140000000000614000000000061700674000000000000237000000000000145904500000000000000009999123100000010000000000000BRUSIMACNOR3167
012024100202USIM5       010USIMINAS    PNA     N1   R$  000000000063100000000006390000000000630000000000063300000000006310000000000630000000000063111971000000000014514000000000009199113000000000000000009999123100000010000000000000BRUSIMACNPA6169
012024100202WEST3       010WESTWING    ON      NM   R$  000000000008500000000000850000000000082000000000008300000000000840000000000083000000000008400024000000000000081900000000000006864900000000000000009999123100000010000000000000BRWESTACNOR3100
012024100202WHRL3       010WHIRLPOOL   ON           R$  000000000044500000000004500000000000440000000000044300000000004400000000000440000000000044500004000000000000000400000000000000177500000000000000009999123100000010000000000000BRWHRLACNOR5129
012024100202WHRL4       010WHIRLPOOL   PN           R$  000000000046700000000004680000000000460000000000046300000000004630000000000463000000000046700028000000000000026100000000000012107800000000000000009999123100000010000000000000BRWHRLACNPR2129
012024100202WIZC3       010WIZ CO      ON      NM   R$  000000000058600000000005940000000000582000000000058600000000005830000000000583000000000058501153000000000000331700000000000194463400000000000000009999123100000010000000000000BRWIZCACNOR5102
012024100202WLMM4       010WLM IND COM PN           R$  000000000310000000000031280000000003100000000000311400000000031280000000003088000000000312800002000000000000000200000000000000622800000000000000009999123100000010000000000000BRWLMMACNPR3119
012024100202SANB11      010SANTANDER BRUNT          R$  000000000288100000000029210000000002872000000000290900000000029100000000002910000000000291108373000000000002120800000000006170779200000000000000009999123100000010000000000000BRSANBCDAM13165
012024100202SANB3       010SANTANDER BRON           R$  000000000137000000000013980000000001370000000000138600000000013800000000001380000000000138900431000000000000078400000000000108664100000000000000009999123100000010000000000000BRSANBACNOR8172
012024100202SANB4       010SANTANDER BRPN           R$  000000000149500000000015260000000001495000000000151800000000015230000000001518000000000152400500000000000000088700000000000134710500000000000000009999123100000010000000000000BRSANBACNPR5172
012024100202TTEN3       0103TENTOS     ON      NM   R$  000000000111000000000011260000000001087000000000110100000000010910000000001091000000000110107388000000000001351900000000001489406700000000000000009999123100000010000000000000BRTTENACNOR0103
012024100202TUPY3       010TUPY        ON      NM   R$  000000000254300000000025780000000002539000000000255600000000025400000000002540000000000255901390000000000000246100000000000629109600000000000000009999123100000010000000000000BRTUPYACNOR1184
012024100202UCAS3       010UNICASA     ON      NM   R$  000000000021900000000002220000000000217000000000021900000000002170000000000217000000000022000080000000000000027900000000000006116200000000000000009999123100000010000000000000BRUCASACNOR1113
012024100202UGPA3       010ULTRAPAR    ON      NM   R$  000000000218500000000021930000000002149000000000217000000000021490000000002149000000000215616136000000000004650100000000010091038800000000000000009999123100000010000000000000BRUGPAACNOR8156
012024100202UNIP3       010UNIPAR      ON           R$  000000000455300000000046480000000004522000000000458900000000045450000000004545000000000462300065000000000000009300000000000042683000000000000000009999123100000010000000000000BRUNIPACNOR7206
012024100202UNIP5       010UNIPAR      PNA          R$  000000000463000000000046300000000004620000000000462300000000046210000000004602000000000473800004000000000000000400000000000001849200000000000000009999123100000010000000000000BRUNIPACNPA0208
012024100202UNIP6       010UNIPAR      PNB          R$  000000000460000000000046720000000004562000000000460600000000045830000000004580000000000458301163000000000000184300000000000848963700000000000000009999123100000010000000000000BRUNIPACNPB8206
012024100202B3SA3       010B3          ON  EDJ NM   R$  000000000109000000000010980000000001078000000000108500000000010940000000001093000000000109442195000000000061962200000000067264036900000000000000009999123100000010000000000000BRB3SAACNOR6134
012024100202BEEF3       010MINERVA     ON      NM   R$  000000000065300000000006720000000000643000000000065200000000006460000000000645000000000064608827000000000006834700000000004458539400000000000000009999123100000010000000000000BRBEEFACNOR6116
012024100202BPAC11      010BTGP BANCO  UNT     N2   R$  000000000334700000000034040000000003245000000000329100000000032450000000003244000000000324518578000000000013286500000000043729947000000000000000009999123100000010000000000000BRBPACUNT006119
012024100202BPAC3       010BTGP BANCO  ON      N2   R$  000000000159200000000016250000000001553000000000159100000000015530000000001550000000000157400033000000000000003500000000000005571300000000000000009999123100000010000000000000BRBPACACNOR7134
012024100202BPAC5       010BTGP BANCO  PNA     N2   R$  000000000086100000000008930000000000845000000000085500000000008450000000000845000000000086200071000000000000017200000000000014717400000000000000009999123100000010000000000000BRBPACACNPA0134
012024100202CLSC4       010CELESC      PN  EJ  N2   R$  000000000828100000000082810000000008111000000000817200000000081420000000008142000000000820100020000000000000002400000000000019614500000000000000009999123100000010000000000000BRCLSCACNPR3132
012024100202CMIG3       010CEMIG       ON  EJ  N1   R$  000000000147000000000014760000000001447000000000145300000000014490000000001448000000000145901400000000000001060500000000001541016200000000000000009999123100000010000000000000BRCMIGACNOR6244
012024100202CMIG4       010CEMIG       PN  EJ  N1   R$  000000000115300000000011590000000001140000000000114700000000011400000000001140000000000114318187000000000008115800000000009314085900000000000000009999123100000010000000000000BRCMIGACNPR3245
012024100202CMIN3       010CSNMINERACAOON      N2   R$  000000000072000000000007400000000000720000000000073200000000007340000000000733000000000073415110000000000013376300000000009803692500000000000000009999123100000010000000000000BRCMINACNOR2111
012024100202CSUD3       010CSU DIGITAL ON  EJ  NM   R$  000000000173500000000017550000000001732000000000174600000000017500000000001732000000000175200158000000000000031000000000000054141100000000000000009999123100000010000000000000BRCSUDACNOR5111
012024100202CURY3       010CURY S/A    ON      NM   R$  000000000230400000000023480000000002303000000000232600000000023300000000002327000000000233008718000000000002502300000000005821092300000000000000009999123100000010000000000000BRCURYACNOR3109
012024100202ESPA3       010ESPACOLASER ON      NM   R$  000000000010200000000001040000000000102000000000010300000000001040000000000102000000000010400091000000000000300800000000000030995700000000000000009999123100000010000000000000BRESPAACNOR7103
012024100202ESTR4       010ESTRELA     PN           R$  000000000038000000000004100000000000362000000000038800000000003830000000000364000000000038300013000000000000002200000000000000854000000000000000009999123100000010000000000000BRESTRACNPR0144
012024100202ETER3       010ETERNIT     ON      NM   R$  000000000057100000000005930000000000571000000000058200000000005790000000000579000000000058000512000000000000190300000000000110789600000000000000009999123100000010000000000000BRETERACNOR3244
012024100202EUCA3       010EUCATEX     ON      N1   R$  000000000170000000000017050000000001700000000000170300000000017050000000001567000000000170000003000000000000000300000000000000510900000000000000009999123100000010000000000000BREUCAACNOR1157
012024100202EUCA4       010EUCATEX     PN      N1   R$  000000000156000000000015750000000001546000000000155800000000015600000000001552000000000156000259000000000000041200000000000064216200000000000000009999123100000010000000000000BREUCAACNPR8044
012024100202EVEN3       010EVEN        ON      NM   R$  000000000067000000000006820000000000667000000000067400000000006730000000000669000000000067303921000000000001096700000000000739711800000000000000009999123100000010000000000000BREVENACNOR8119
012024100202EZTC3       010EZTEC       ON      NM   R$  000000000140000000000014760000000001400000000000144900000000014410000000001440000000000144207836000000000002384100000000003455047100000000000000009999123100000010000000000000BREZTCACNOR0126
012024100202IFCM3       010INFRACOMM   ON      NM   R$  000000000001700000000000180000000000016000000000001600000000000170000000000016000000000001700813000000000017628500000000000299547600000000000000009999123100000010000000000000BRIFCMACNOR8101
012024100202IGTI11      010IGUATEMI S.AUNT     N1   R$  000000000212000000000021390000000002108000000000212100000000021080000000002108000000000210911555000000000003041700000000006451580500000000000000009999123100000010000000000000BRIGTICDAM16106
012024100202IGTI3       010IGUATEMI S.AON      N1   R$  000000000026500000000002680000000000264000000000026400000000002680000000000265000000000026800028000000000000011300000000000002990700000000000000009999123100000010000000000000BRIGTIACNOR8106
012024100202INEP3       010INEPAR      ON           R$  000000000019500000000001960000000000188000000000018900000000001880000000000188000000000019000061000000000000042300000000000008033000000000000000009999123100000010000000000000BRINEPACNOR1143
012024100202INEP4       010INEPAR      PN           R$  000000000019200000000001930000000000186000000000018800000000001870000000000186000000000018800189000000000000061400000000000011563600000000000000009999123100000010000000000000BRINEPACNPR8143
012024100202INTB3       010INTELBRAS   ON      NM   R$  000000000203800000000020770000000002036000000000205900000000020650000000002065000000000206704197000000000002661000000000005480780400000000000000009999123100000010000000000000BRINTBACNOR9112
012024100202AZZA3       010AZZAS 2154  ON      NM   R$  000000000420000000000043000000000004168000000000423200000000042330000000004216000000000423313244000000000004913600000000020795556200000000000000009999123100000010000000000000BRAZZAACNOR9100
012024100202BBSE3       010BBSEGURIDADEON      NM   R$  000000000359000000000036220000000003546000000000357200000000035460000000003546000000000355418483000000000004887000000000017457731300000000000000009999123100000010000000000000BRBBSEACNOR5125
012024100202TAEE11      010TAESA       UNT     N2   R$  000000000343700000000034690000000003436000000000345600000000034470000000003446000000000345304832000000000000996800000000003445615300000000000000009999123100000010000000000000BRTAEECDAM10148
012024100202TAEE3       010TAESA       ON      N2   R$  000000000114300000000011540000000001143000000000114900000000011480000000001147000000000115200290000000000000058500000000000067272400000000000000009999123100000010000000000000BRTAEEACNOR9148
012024100202TAEE4       010TAESA       PN      N2   R$  000000000115000000000011630000000001150000000000115800000000011560000000001155000000000115900561000000000000124900000000000144679900000000000000009999123100000010000000000000BRTAEEACNPR6148
012024100202TASA3       010TAURUS ARMASON      N2   R$  000000000108300000000010940000000001081000000000109000000000010920000000001091000000000109200087000000000000018400000000000020070800000000000000009999123100000010000000000000BRTASAACNOR7104
012024100202TASA4       010TAURUS ARMASPN      N2   R$  000000000105700000000010850000000001057000000000107800000000010780000000001078000000000108001056000000000000214500000000000231271800000000000000009999123100000010000000000000BRTASAACNPR4104
012024100202TCSA3       010TECNISA     ON      NM   R$  000000000018600000000001890000000000184000000000018500000000001850000000000184000000000018500109000000000000055500000000000010302900000000000000009999123100000010000000000000BRTCSAACNOR3112
012024100202TECN3       010TECHNOS     ON      NM   R$  000000000048200000000004960000000000466000000000048200000000004850000000000480000000000048600495000000000000191900000000000092634000000000000000009999123100000010000000000000BRTECNACNOR6109
012024100202TELB3       010TELEBRAS    ON           R$  000000000142000000000014860000000001411000000000143600000000014450000000001410000000000151000007000000000000001100000000000001579600000000000000009999123100000010000000000000BRTELBACNOR2140
012024100202TELB4       010TELEBRAS    PN           R$  000000000094000000000009580000000000940000000000095000000000009580000000000936000000000095500006000000000000001200000000000001140100000000000000009999123100000010000000000000BRTELBACNPR9140
012024100202TEND3       010TENDA       ON      NM   R$  000000000130600000000013890000000001306000000000136500000000013760000000001376000000000138311670000000000003896500000000005321047500000000000000009999123100000010000000000000BRTENDACNOR4111
012024100202CCRO3       010CCR SA      ON      NM   R$  000000000122800000000012670000000001227000000000124800000000012370000000001237000000000124123362000000000014418900000000017999602500000000000000009999123100000010000000000000BRCCROACNOR2145
012024100202CEAB3       010CEA MODAS   ON      NM   R$  000000000104600000000010920000000001032000000000106000000000010410000000001041000000000104207803000000000003120000000000003307258900000000000000009999123100000010000000000000BRCEABACNOR1102
012024100202CEBR3       010CEB         ON           R$  000000000192100000000019210000000001898000000000190800000000018980000000001875000000000189800014000000000000001800000000000003434400000000000000009999123100000010000000000000BRCEBRACNOR5125
012024100202CEBR5       010CEB         PNA          R$  000000000162900000000016290000000001600000000000160500000000016000000000001593000000000160000024000000000000004500000000000007226000000000000000009999123100000010000000000000BRCEBRACNPA8124
012024100202CEBR6       010CEB         PNB          R$  000000000180100000000018120000000001772000000000179600000000017730000000001780000000000180800021000000000000004000000000000007186100000000000000009999123100000010000000000000BRCEBRACNPB6124
012024100202CEDO3       010CEDRO       ON      N1   R$  000000000230100000000023010000000002300000000000230000000000023000000000002300000000000236900009000000000000005800000000000013340100000000000000009999123100000010000000000000BRCEDOACNOR8096
012024100202CEEB3       010COELBA      ON  EJ       R$  000000000389300000000039260000000003893000000000391200000000039260000000003850000000000396800015000000000000002700000000000010564200000000000000009999123100000010000000000000BRCEEBACNOR3200
012024100202CEEB5       010COELBA      PNA EJ       R$  000000000389900000000039000000000003899000000000389900000000039000000000003910000000000000000002000000000000000200000000000000779900000000000000009999123100000010000000000000BRCEEBACNPA6194
012024100202CGAS3       010COMGAS      ON           R$  000000001200000000000120000000000011505000000001175200000000115050000000011508000000001261100002000000000000000200000000000002350500000000000000009999123100000010000000000000BRCGASACNOR0164
012024100202CGAS5       010COMGAS      PNA          R$  000000001280500000000128500000000012805000000001284800000000128500000000012850000000001290900006000000000000000600000000000007708900000000000000009999123100000010000000000000BRCGASACNPA3161
012024100202CGRA3       010GRAZZIOTIN  ON           R$  000000000250800000000025080000000002505000000000250600000000025050000000002500000000000252100003000000000000000300000000000000751800000000000000009999123100000010000000000000BRCGRAACNOR2083
012024100202CGRA4       010GRAZZIOTIN  PN           R$  000000000250500000000025100000000002500000000000250300000000025100000000002511000000000251500017000000000000003400000000000008512300000000000000009999123100000010000000000000BRCGRAACNPR9083
012024100202CLSA3       010CLEARSALE   ON      NM   R$  000000000088000000000009050000000000859000000000088000000000008610000000000860000000000086505334000000000002437500000000002145542600000000000000009999123100000010000000000000BRCLSAACNOR0100
012024100202CSED3       010CRUZEIRO EDUON      NM   R$  000000000033100000000003360000000000325000000000032900000000003270000000000327000000000033000823000000000000553800000000000182729800000000000000009999123100000010000000000000BRCSEDACNOR9105
012024100202CSMG3       010COPASA      ON      NM   R$  000000000232000000000023860000000002320000000000235900000000023440000000002343000000000234805177000000000001173800000000002770082400000000000000009999123100000010000000000000BRCSMGACNOR5175
012024100202CSNA3       010SID NACIONALON           R$  000000000132000000000013540000000001320000000000133800000000013300000000001330000000000133212504000000000007989300000000010695398600000000000000009999123100000010000000000000BRCSNAACNOR6261
012024100202ENEV3       010ENEVA       ON      NM   R$  000000000141400000000014330000000001401000000000142100000000014260000000001421000000000142715645000000000006391100000000009083042300000000000000009999123100000010000000000000BRENEVACNOR8106
012024100202ENGI11      010ENERGISA    UNT     N2   R$  000000000455000000000045740000000004459000000000450600000000044750000000004475000000000447910362000000000002321100000000010459158600000000000000009999123100000010000000000000BRENGICDAM16136
012024100202ENGI3       010ENERGISA    ON      N2   R$  000000000134200000000013690000000001330000000000134300000000013690000000001330000000000137000043000000000000004600000000000006180300000000000000009999123100000010000000000000BRENGIACNOR0146
012024100202ENGI4       010ENERGISA    PN      N2   R$  000000000078700000000008040000000000782000000000079100000000007820000000000781000000000079800043000000000000006800000000000005383600000000000000009999123100000010000000000000BRENGIACNPR7142
012024100202ENJU3       010ENJOEI      ON      NM   R$  000000000013700000000001440000000000134000000000013800000000001390000000000138000000000013902116000000000001208000000000000167564900000000000000009999123100000010000000000000BRENJUACNOR9100
012024100202ENMT3       010ENERGISA MT ON           R$  000000000850500000000085050000000008505000000000850500000000085050000000000000000000000850500001000000000000000100000000000000850500000000000000009999123100000010000000000000BRENMTACNOR5121
012024100202ENMT4       010ENERGISA MT PN           R$  000000000835600000000085000000000008356000000000837300000000085000000000008000000000000844900008000000000000001100000000000009210400000000000000009999123100000010000000000000BRENMTACNPR2126
012024100202EPAR3       010EMBPAR S/A  ON           R$  000000000057000000000005730000000000562000000000056600000000005630000000000563000000000057200027000000000000005500000000000003114300000000000000009999123100000010000000000000BREPARACNOR9105
012024100202EQMA3B      010EQTLMARANHAOON      MB   R$  000000000225000000000022800000000002240000000000226000000000022620000000002260000000000228900011000000000000001100000000000002486500000000000000009999123100000010000000000000BREQMAACNOR8108
012024100202EQPA3       010EQTL PARA   ON           R$  000000000060200000000006170000000000596000000000060200000000006050000000000605000000000060800015000000000000003400000000000002049800000000000000009999123100000010000000000000BREQPAACNOR1111
012024100202EQTL3       010EQUATORIAL  ON      NM   R$  000000000327900000000033030000000003239000000000326500000000032520000000003252000000000325419763000000000005719400000000018678030400000000000000009999123100000010000000000000BREQTLACNOR0131
012024100202KLBN11      010KLABIN S/A  UNT     N2   R$  000000000211000000000021540000000002110000000000213300000000021280000000002127000000000213110052000000000004921400000000010501627200000000000000009999123100000010000000000000BRKLBNCDAM18143
012024100202KLBN3       010KLABIN S/A  ON      N2   R$  000000000042200000000004310000000000422000000000042800000000004240000000000424000000000042800580000000000000308000000000000131902200000000000000009999123100000010000000000000BRKLBNACNOR2171
012024100202KLBN4       010KLABIN S/A  PN      N2   R$  000000000042100000000004300000000000421000000000042600000000004250000000000425000000000042601390000000000001249100000000000532935100000000000000009999123100000010000000000000BRKLBNACNPR9171
012024100202KRSA3       010KORA SAUDE  ON      NM   R$  000000000004900000000000490000000000048000000000004800000000000480000000000048000000000004900035000000000000090600000000000004414400000000000000009999123100000010000000000000BRKRSAACNOR0100
012024100202LAND3       010TERRASANTAPAON      NM   R$  000000000123300000000013070000000001223000000000126700000000012870000000001280000000000129200173000000000000033500000000000042462900000000000000009999123100000010000000000000BRLANDACNOR9103
012024100202LAVV3       010LAVVI       ON      NM   R$  000000000080700000000008280000000000806000000000081800000000008190000000000817000000000081903037000000000000705600000000000577860800000000000000009999123100000010000000000000BRLAVVACNOR4113
012024100202LEVE3       010METAL LEVE  ON      NM   R$  000000000305300000000031000000000003050000000000307400000000030710000000003065000000000307101781000000000000355700000000001093430500000000000000009999123100000010000000000000BRLEVEACNOR2197
012024100202ATOM3       010ATOMPAR     ON           R$  000000000025600000000002630000000000256000000000025900000000002600000000000260000000000026200031000000000000012500000000000003241200000000000000009999123100000010000000000000BRATOMACNOR1106
012024100202AURE3       010AUREN       ON      NM   R$  000000000105600000000010640000000001043000000000105300000000010430000000001043000000000104905560000000000003567400000000003757773900000000000000009999123100000010000000000000BRAUREACNOR9104
012024100202AZEV3       010AZEVEDO     ON           R$  000000000013100000000001330000000000129000000000013100000000001300000000000130000000000013100428000000000000445100000000000058357800000000000000009999123100000010000000000000BRAZEVACNOR0121
012024100202AZEV4       010AZEVEDO     PN           R$  000000000013000000000001320000000000126000000000012800000000001280000000000127000000000012801601000000000004203500000000000541741900000000000000009999123100000010000000000000BRAZEVACNPR7121
012024100202AZUL4       010AZUL        PN      N2   R$  000000000059900000000006240000000000597000000000061300000000006240000000000623000000000062415571000000000028196000000000017311135400000000000000009999123100000010000000000000BRAZULACNPR4103
012024100202BRSR3       010BANRISUL    ON      N1   R$  000000000126900000000012990000000001269000000000128500000000012930000000001285000000000129500080000000000000010100000000000012987800000000000000009999123100000010000000000000BRBRSRACNOR3189
012024100202BRSR6       010BANRISUL    PNB     N1   R$  000000000114500000000011590000000001141000000000114900000000011470000000001146000000000114704300000000000001421800000000001634155100000000000000009999123100000010000000000000BRBRSRACNPB4192
012024100202BSLI4       010BRB BANCO   PN           R$  000000000090200000000009020000000000866000000000087200000000008660000000000854000000000094900005000000000000000600000000000000523200000000000000009999123100000010000000000000BRBSLIACNPR2194
012024100202ARML3       010ARMAC       ON      NM   R$  000000000082400000000008420000000000817000000000083000000000008340000000000829000000000083402380000000000000615600000000000511009400000000000000009999123100000010000000000000BRARMLACNOR1112
012024100202ASAI3       010ASSAI       ON      NM   R$  000000000072700000000007430000000000715000000000072400000000007150000000000715000000000071819975000000000028582100000000020714010800000000000000009999123100000010000000000000BRASAIACNOR0106
012024100202BRIT3       010BRISANET    ON      NM   R$  000000000030200000000003120000000000300000000000030400000000003040000000000302000000000030401331000000000000385800000000000117627600000000000000009999123100000010000000000000BRBRITACNOR0103
012024100202BRKM3       010BRASKEM     ON      N1   R$  000000000200000000000020300000000001989000000000202200000000020240000000001984000000000202500081000000000000010300000000000020833700000000000000009999123100000010000000000000BRBRKMACNOR1119
012024100202BRKM5       010BRASKEM     PNA     N1   R$  000000000201800000000020640000000002010000000000203900000000020280000000002028000000000203107345000000000002838600000000005788636900000000000000009999123100000010000000000000BRBRKMACNPA4121
012024100202CPFE3       010CPFL ENERGIAON      NM   R$  000000000340100000000034450000000003395000000000341300000000033950000000003395000000000339805721000000000001367800000000004669536800000000000000009999123100000010000000000000BRCPFEACNOR0137
012024100202CPLE3       010COPEL       ON  EDJ N2   R$  000000000090600000000009180000000000904000000000091000000000009090000000000905000000000090902944000000000002503000000000002279553000000000000000009999123100000010000000000000BRCPLEACNOR8150
012024100202CPLE5       010COPEL       PNA EDJ N2   R$  000000000125000000000012500000000001250000000000125000000000012500000000001250000000000140000002000000000000000400000000000000500000000000000000009999123100000010000000000000BRCPLEACNPA1148
012024100202CPLE6       010COPEL       PNB EDJ N2   R$  000000000101400000000010210000000001010000000000101500000000010150000000001015000000000101618067000000000010788000000000010951199500000000000000009999123100000010000000000000BRCPLEACNPB9147
012024100202GRND3       010GRENDENE    ON      NM   R$  000000000056200000000005790000000000562000000000057300000000005750000000000574000000000057502309000000000000811400000000000465720900000000000000009999123100000010000000000000BRGRNDACNOR3175
012024100202GSHP3       010GENERALSHOPPON           R$  000000000099700000000009970000000000997000000000099700000000009970000000000862000000000099500001000000000000000100000000000000099700000000000000009999123100000010000000000000BRGSHPACNOR7102
012024100202GUAR3       010GUARARAPES  ON      NM   R$  000000000078600000000008090000000000781000000000079500000000007890000000000789000000000079306859000000000001817500000000001444964500000000000000009999123100000010000000000000BRGUARACNOR4173
012024100202HAGA3       010HAGA S/A    ON           R$  000000000027600000000002760000000000251000000000025500000000002590000000000256000000000025900028000000000000007300000000000001865300000000000000009999123100000010000000000000BRHAGAACNOR7103
012024100202HAGA4       010HAGA S/A    PN           R$  000000000011900000000001200000000000118000000000011800000000001180000000000116000000000011900013000000000000011700000000000001388600000000000000009999123100000010000000000000BRHAGAACNPR4103
012024100202HAPV3       010HAPVIDA     ON      NM   R$  000000000040900000000004210000000000408000000000041300000000004140000000000413000000000041528179000000000076631000000000031713215600000000000000009999123100000010000000000000BRHAPVACNOR4114
012024100202JALL3       010JALLESMACHADON      NM   R$  000000000065300000000006670000000000638000000000064700000000006450000000000644000000000064602404000000000001368800000000000886054400000000000000009999123100000010000000000000BRJALLACNOR0106
012024100202JBSS3       010JBS         ON      NM   R$  000000000331600000000033600000000003260000000000330100000000033050000000003303000000000330733226000000000012037300000000039746542200000000000000009999123100000010000000000000BRJBSSACNOR8122
012024100202ALPA3       010ALPARGATAS  ON      N1   R$  000000000069200000000006940000000000692000000000069200000000006930000000000693000000000071900009000000000000002000000000000001385800000000000000009999123100000010000000000000BRALPAACNOR0231
012024100202ALPA4       010ALPARGATAS  PN      N1   R$  000000000070000000000007220000000000696000000000070900000000007130000000000710000000000071307315000000000003984300000000002827779800000000000000009999123100000010000000000000BRALPAACNPR7232
012024100202ALPK3       010ESTAPAR     ON      NM   R$  000000000028400000000002890000000000283000000000028600000000002890000000000286000000000028900260000000000000179000000000000051335500000000000000009999123100000010000000000000BRALPKACNOR9101
012024100202ALUP11      010ALUPAR      UNT     N2   R$  000000000304000000000030510000000002998000000000301800000000029980000000002996000000000300903051000000000000452100000000001364826800000000000000009999123100000010000000000000BRALUPCDAM15120
012024100202ALUP3       010ALUPAR      ON      N2   R$  000000000102100000000010340000000001012000000000102200000000010130000000001012000000000104400033000000000000005300000000000005418500000000000000009999123100000010000000000000BRALUPACNOR8120
012024100202ALUP4       010ALUPAR      PN      N2   R$  000000000101600000000010160000000000999000000000100200000000009990000000000998000000000099900099000000000000017100000000000017146500000000000000009999123100000010000000000000BRALUPACNPR5120
012024100202AMAR3       010LOJAS MARISAON      NM   R$  000000000010500000000001080000000000104000000000010500000000001050000000000104000000000010600473000000000000277300000000000029238900000000000000009999123100000010000000000000BRAMARACNOR4115
012024100202AMBP3       010AMBIPAR     ON      NM   R$  000000001380000000000147430000000013600000000001412300000000139870000000013880000000001398702212000000000000444300000000006275059000000000000000009999123100000010000000000000BRAMBPACNOR6103
012024100202BBDC3       010BRADESCO    ON  EJ  N1   R$  000000000133000000000013540000000001327000000000134500000000013380000000001338000000000134010404000000000008598900000000011568150600000000000000009999123100000010000000000000BRBBDCACNOR1776
012024100202BBDC4       010BRADESCO    PN  EJ  N1   R$  000000000150300000000015310000000001501000000000152000000000015200000000001520000000000152245504000000000048598900000000073912393600000000000000009999123100000010000000000000BRBBDCACNPR8776
012024100202BRBI11      010BR PARTNERS UNT     N2   R$  000000000151600000000015690000000001516000000000154400000000015600000000001550000000000156001685000000000000343600000000000530638500000000000000009999123100000010000000000000BRBRBICDAM10110
012024100202BRFS3       010BRF SA      ON      NM   R$  000000000245100000000024750000000002378000000000240900000000023860000000002384000000000238618806000000000006832600000000016460746300000000000000009999123100000010000000000000BRBRFSACNOR8122
012024100202EGIE3       010ENGIE BRASILON      NM   R$  000000000430800000000043250000000004258000000000427900000000042580000000004258000000000426904755000000000001036600000000004436059900000000000000009999123100000010000000000000BREGIEACNOR9127
012024100202EKTR4       010ELEKTRO     PN  EJ       R$  000000000454500000000045450000000004545000000000454500000000045450000000004501000000000454500004000000000000000400000000000001818000000000000000009999123100000010000000000000BREKTRACNPR7165
012024100202ELET3       010ELETROBRAS  ON      N1   R$  000000000398600000000040080000000003930000000000395400000000039310000000003930000000000394113966000000000006034500000000023865819500000000000000009999123100000010000000000000BRELETACNOR6160
012024100202ELET6       010ELETROBRAS  PNB     N1   R$  000000000442300000000044390000000004372000000000440600000000043720000000004372000000000437402757000000000000413600000000001822443400000000000000009999123100000010000000000000BRELETACNPB7077
012024100202GGPS3       010GPS         ON      NM   R$  000000000185400000000018740000000001838000000000185300000000018390000000001839000000000184108664000000000002177300000000004036112000000000000000009999123100000010000000000000BRGGPSACNOR9103
012024100202GMAT3       010GRUPO MATEUSON  EJ  NM   R$  000000000073100000000007570000000000731000000000074600000000007520000000000752000000000075305167000000000003275900000000002446167300000000000000009999123100000010000000000000BRGMATACNOR7103
012024100202GOAU3       010GERDAU MET  ON      N1   R$  000000000106800000000010900000000001068000000000108100000000010730000000001070000000000107300354000000000000083000000000000089753100000000000000009999123100000010000000000000BRGOAUACNOR1268
012024100202GOAU4       010GERDAU MET  PN      N1   R$  000000000110000000000011260000000001100000000000111400000000011100000000001108000000000111113703000000000007535700000000008396150100000000000000009999123100000010000000000000BRGOAUACNPR8269
012024100202MILS3       010MILLS       ON      NM   R$  000000000110300000000011220000000001092000000000110300000000011000000000001099000000000110001496000000000000422500000000000466018800000000000000009999123100000010000000000000BRMILSACNOR2128
012024100202MLAS3       010MULTILASER  ON      NM   R$  000000000016900000000001730000000000166000000000016900000000001680000000000168000000000016903377000000000002134200000000000362062900000000000000009999123100000010000000000000BRMLASACNOR9101
012024100202AERI3       010AERIS       ON      NM   R$  000000000061000000000006430000000000610000000000062600000000006320000000000624000000000063201036000000000000285300000000000178807300000000000000009999123100000010000000000000BRAERIACNOR4102
012024100202AESB3       010AES BRASIL  ON      NM   R$  000000000116600000000011700000000001166000000000116800000000011680000000001167000000000117003232000000000004138100000000004834980600000000000000009999123100000010000000000000BRAESBACNOR7107
012024100202AGRO3       010BRASILAGRO  ON      NM   R$  000000000252800000000025600000000002528000000000254700000000025560000000002544000000000255701016000000000000175800000000000447916500000000000000009999123100000010000000000000BRAGROACNOR7114
012024100202AHEB5       010SPTURIS     PNA          R$  000000000410000000000041000000000004100000000000410000000000041000000000002700000000000410000001000000000000000100000000000000410000000000000000009999123100000010000000000000BRAHEBACNPA3106
012024100202ALLD3       010ALLIED      ON      NM   R$  000000000078200000000007980000000000775000000000078800000000007920000000000792000000000079400488000000000000102400000000000080724600000000000000009999123100000010000000000000BRALLDACNOR3106
012024100202ALOS3       010ALLOS       ON      NM   R$  000000000221300000000022470000000002208000000000221900000000022210000000002216000000000222212133000000000004989700000000011073770600000000000000009999123100000010000000000000BRALOSACNOR5101
012024100202IRBR3       010IRBBRASIL REON      NM   R$  000000000451100000000046060000000004484000000000454400000000045130000000004508000000000451905048000000000000840500000000003819656500000000000000009999123100000010000000000000BRIRBRACNOR4111
012024100202LJQQ3       010QUERO-QUERO ON      NM   R$  000000000033400000000003420000000000316000000000032500000000003160000000000316000000000031711728000000000006953800000000002262711800000000000000009999123100000010000000000000BRLJQQACNOR5104
012024100202LOGG3       010LOG COM PROPON      NM   R$  000000000223200000000022940000000002232000000000227200000000022870000000002275000000000228801525000000000000207100000000000470671000000000000000009999123100000010000000000000BRLOGGACNOR7107
012024100202LOGN3       010LOG-IN      ON      NM   R$  000000000317800000000032700000000003178000000000320100000000032010000000003200000000000321500043000000000000071500000000000228897200000000000000009999123100000010000000000000BRLOGNACNOR3105
012024100202LPSB3       010LOPES BRASILON      NM   R$  000000000017700000000001820000000000173000000000017700000000001820000000000178000000000018200248000000000000171600000000000030490200000000000000009999123100000010000000000000BRLPSBACNOR0114
012024100202LREN3       010LOJAS RENNERON  EJ  NM   R$  000000000182800000000018480000000001810000000000183000000000018350000000001825000000000183523514000000000015156400000000027745862200000000000000009999123100000010000000000000BRLRENACNOR1222
012024100202MTRE3       010MITRE REALTYON  ED  NM   R$  000000000036100000000003910000000000361000000000037900000000003900000000000388000000000039001751000000000001720300000000000652138600000000000000009999123100000010000000000000BRMTREACNOR6115
012024100202MTSA4       010METISA      PN  EJ       R$  000000000385900000000038710000000003830000000000384500000000038300000000003830000000000394000012000000000000001500000000000005768800000000000000009999123100000010000000000000BRMTSAACNPR9073
012024100202MULT3       010MULTIPLAN   ON      N2   R$  000000000258700000000025940000000002553000000000256700000000025640000000002563000000000256811374000000000002846800000000007310365000000000000000009999123100000010000000000000BRMULTACNOR5139
012024100202VLID3       010VALID       ON      NM   R$  000000000225300000000023860000000002253000000000234400000000023860000000002351000000000238602110000000000000306200000000000717919100000000000000009999123100000010000000000000BRVLIDACNOR5144
012024100202VSTE3       010VESTE       ON      NM   R$  000000000120400000000012500000000001173000000000121400000000011730000000001173000000000118900168000000000000052900000000000064249300000000000000009999123100000010000000000000BRVSTEACNOR5103
012024100202VTRU3       010VITRUEDUCA  ON      NM   R$  000000000094300000000009590000000000908000000000092700000000009080000000000908000000000091800448000000000000141300000000000131037800000000000000009999123100000010000000000000BRVTRUACNOR3100
012024100202VULC3       010VULCABRAS   ON      NM   R$  000000000172300000000017570000000001723000000000174200000000017280000000001728000000000173003430000000000000619900000000001080447700000000000000009999123100000010000000000000BRVULCACNOR2162
012024100202VVEO3       010VIVEO       ON      NM   R$  000000000018100000000001880000000000180000000000018300000000001820000000000182000000000018303830000000000002445300000000000449724200000000000000009999123100000010000000000000BRVVEOACNOR0104
012024100202WEGE3       010WEG         ON  EJ  NM   R$  000000000561300000000056370000000005514000000000555900000000055350000000005531000000000553519381000000000005130300000000028523257600000000000000009999123100000010000000000000BRWEGEACNOR0225
012024100202PDGR3       010PDG REALT   ON      NM   R$  000000000000200000000000020000000000001000000000000100000000000020000000000001000000000000200921000000000025987800000000000050437900000000000000009999123100000010000000000000BRPDGRACNOR8119
012024100202PDTC3       010PADTEC      ON      NM   R$  000000000018500000000001890000000000184000000000018600000000001880000000000186000000000018800024000000000000008700000000000001618900000000000000009999123100000010000000000000BRPDTCACNOR3101
012024100202PEAB3       010PAR AL BAHIAON           R$  000000000410000000000041000000000004100000000000410000000000041000000000004050000000000444700001000000000000000100000000000000410000000000000000009999123100000010000000000000BRPEABACNOR3133
012024100202PETR3       010PETROBRAS   ON      N2   R$  000000000409100000000041360000000004062000000000409700000000040790000000004075000000000408116309000000000006233500000000025541114600000000000000009999123100000010000000000000BRPETRACNOR9206
012024100202PETR4       010PETROBRAS   PN      N2   R$  000000000377500000000037930000000003735000000000376200000000037480000000003746000000000374854744000000000032014500000000120466557700000000000000009999123100000010000000000000BRPETRACNPR6214
012024100202PFRM3       010PROFARMA    ON      NM   R$  000000000055100000000005740000000000551000000000056600000000005660000000000565000000000057001567000000000000270200000000000153116000000000000000009999123100000010000000000000BRPFRMACNOR1116
012024100202PGMN3       010PAGUE MENOS ON      NM   R$  000000000026700000000002750000000000266000000000027100000000002720000000000271000000000027201037000000000000342900000000000093234300000000000000009999123100000010000000000000BRPGMNACNOR8103
012024100202PINE3       010PINE        ON      N2   R$  000000000058000000000005840000000000530000000000055100000000005340000000000534000000000055400062000000000000012700000000000007002900000000000000009999123100000010000000000000BRPINEACNOR1150
012024100202PINE4       010PINE        PN      N2   R$  000000000048000000000004900000000000476000000000048100000000004850000000000483000000000048500392000000000000170700000000000082264100000000000000009999123100000010000000000000BRPINEACNPR8150
012024100202PLAS3       010PLASCAR PARTON           R$  000000000068900000000006900000000000670000000000068100000000006900000000000608000000000067000005000000000000000500000000000000340900000000000000009999123100000010000000000000BRPLASACNOR2106
012024100202PLPL3       010PLANOEPLANO ON      NM   R$  000000000127300000000013490000000001273000000000132700000000013340000000001334000000000134003690000000000000942600000000001251395200000000000000009999123100000010000000000000BRPLPLACNOR5104
012024100202PNVL3       010DIMED       ON      NM   R$  000000000104600000000010670000000001043000000000105600000000010600000000001056000000000106001920000000000000358100000000000378447100000000000000009999123100000010000000000000BRPNVLACNOR9207
012024100202POMO3       010MARCOPOLO   ON      N2   R$  000000000064000000000006400000000000630000000000063600000000006400000000000640000000000064100225000000000000081600000000000051926800000000000000009999123100000010000000000000BRPOMOACNOR0099
012024100202POMO4       010MARCOPOLO   PN      N2   R$  000000000081300000000008230000000000806000000000081600000000008210000000000820000000000082120004000000000009066800000000007401430200000000000000009999123100000010000000000000BRPOMOACNPR7099
012024100202RECV3       010PETRORECSA  ON      NM   R$  000000000181500000000018480000000001791000000000181500000000018050000000001803000000000180507660000000000002544600000000004619400900000000000000009999123100000010000000000000BRRECVACNOR3107
012024100202TRAD3       010TC          ON      NM   R$  000000000049000000000004980000000000480000000000048700000000004840000000000482000000000048500190000000000000073700000000000035951300000000000000009999123100000010000000000000BRTRADACNOR3102
012024100202TRIS3       010TRISUL      ON      NM   R$  000000000050000000000005080000000000495000000000050400000000005070000000000504000000000050700945000000000000290800000000000146655400000000000000009999123100000010000000000000BRTRISACNOR4118
012024100202TRPL3       010TRAN PAULISTON      N1   R$  000000000313400000000031340000000003111000000000313400000000031340000000003113000000000313400012000000000000001700000000000005328500000000000000009999123100000010000000000000BRTRPLACNOR4185
012024100202TRPL4       010TRAN PAULISTPN      N1   R$  000000000243500000000024600000000002431000000000244500000000024430000000002442000000000244307838000000000001920100000000004694855200000000000000009999123100000010000000000000BRTRPLACNPR1185
012024100202FLRY3       010FLEURY      ON      NM   R$  000000000152100000000015280000000001510000000000151800000000015210000000001519000000000152217967000000000005787700000000008789278600000000000000009999123100000010000000000000BRFLRYACNOR5139
012024100202FRAS3       010FRAS-LE     ON      N1   R$  000000000208100000000021260000000002081000000000211000000000021200000000002118000000000212701621000000000000321100000000000677664100000000000000009999123100000010000000000000BRFRASACNOR0160
012024100202FRIO3       010METALFRIO   ON      NM   R$  000000001410600000000141060000000013116000000001353300000000131160000000013030000000001499900003000000000000000300000000000004059900000000000000009999123100000010000000000000BRFRIOACNOR2111
012024100202BGIP3       010BANESE      ON           R$  000000000266400000000026640000000002664000000000266400000000026640000000002350000000000000000001000000000000000100000000000000266400000000000000009999123100000010000000000000BRBGIPACNOR1210
012024100202BGIP4       010BANESE      PN           R$  000000000249500000000024950000000002495000000000249500000000024950000000002410000000000249300001000000000000000100000000000000249500000000000000009999123100000010000000000000BRBGIPACNPR8210
012024100202BHIA3       010CASAS BAHIA ON      NM   R$  000000000046500000000004770000000000449000000000046000000000004530000000000452000000000045305479000000000003975600000000001831847100000000000000009999123100000010000000000000BRBHIAACNOR1102
012024100202BPAN4       010BANCO PAN   PN      N1   R$  000000000096500000000009750000000000955000000000096200000000009650000000000965000000000096610304000000000004213800000000004056231600000000000000009999123100000010000000000000BRBPANACNPR1115
012024100202BEES3       010BANESTES    ON  EJ       R$  000000000089300000000009300000000000882000000000089600000000008930000000000893000000000089500141000000000000022900000000000020530500000000000000009999123100000010000000000000BRBEESACNOR9396
012024100202BEES4       010BANESTES    PN  EJ       R$  000000000092800000000009530000000000927000000000094100000000009270000000000920000000000095100047000000000000005800000000000005457800000000000000009999123100000010000000000000BRBEESACNPR6321
012024100202FESA3       010FERBASA     ON      N1   R$  000000000126400000000012640000000001263000000000126300000000012630000000001265000000000136700006000000000000001000000000000001263600000000000000009999123100000010000000000000BRFESAACNOR8189
012024100202FESA4       010FERBASA     PN      N1   R$  000000000077400000000008000000000000773000000000079200000000008000000000000798000000000080003126000000000001108900000000000878669900000000000000009999123100000010000000000000BRFESAACNPR5085
012024100202FHER3       010FER HERINGERON      NM   R$  000000000040900000000004090000000000392000000000040000000000003920000000000389000000000039300017000000000000003300000000000001322900000000000000009999123100000010000000000000BRFHERACNOR5103
012024100202FIEI3       010FICA        ON           R$  000000000090100000000010000000000000900000000000090200000000010000000000000900000000000100000005000000000000010300000000000009292600000000000000009999123100000010000000000000BRFIEIACNOR2100
012024100202FIQE3       010UNIFIQUE    ON      NM   R$  000000000037800000000003950000000000375000000000038600000000003920000000000390000000000039201725000000000000670100000000000258794900000000000000009999123100000010000000000000BRFIQEACNOR5107
012024100202BRAP3       010BRADESPAR   ON      N1   R$  000000000186600000000018980000000001866000000000188200000000018720000000001871000000000187800325000000000000056600000000000106531800000000000000009999123100000010000000000000BRBRAPACNOR5148
012024100202BRAP4       010BRADESPAR   PN      N1   R$  000000000204500000000020680000000002025000000000204400000000020280000000002028000000000202906366000000000002326600000000004757488400000000000000009999123100000010000000000000BRBRAPACNPR2148
012024100202COCE3       010COELCE      ON           R$  000000000308000000000030800000000003080000000000308000000000030800000000002901000000000350000001000000000000000100000000000000308000000000000000009999123100000010000000000000BRCOCEACNOR0146
012024100202COCE5       010COELCE      PNA          R$  000000000277500000000028390000000002720000000000277700000000027260000000002720000000000272800077000000000000018100000000000050263900000000000000009999123100000010000000000000BRCOCEACNPA3147
012024100202COGN3       010COGNA ON    ON      NM   R$  000000000013000000000001330000000000126000000000012900000000001270000000000127000000000012814792000000000030400300000000003924468400000000000000009999123100000010000000000000BRCOGNACNOR2105
012024100202CVCB3       010CVC BRASIL  ON      NM   R$  000000000018800000000001900000000000185000000000018700000000001870000000000186000000000018709536000000000013121800000000002458465900000000000000009999123100000010000000000000BRCVCBACNOR1116
012024100202VITT3       010VITTIA      ON      NM   R$  000000000056600000000005840000000000566000000000057600000000005730000000000570000000000057401579000000000000288300000000000166104700000000000000009999123100000010000000000000BRVITTACNOR4107
012024100202VIVA3       010VIVARA S.A. ON      NM   R$  000000000276200000000028570000000002762000000000283600000000028280000000002828000000000284015114000000000002961400000000008400446300000000000000009999123100000010000000000000BRVIVAACNOR0107
012024100202VIVR3       010VIVER       ON      NM   R$  000000000018200000000001850000000000179000000000018000000000001810000000000180000000000018100101000000000000032300000000000005834300000000000000009999123100000010000000000000BRVIVRACNOR4123
012024100202VIVT3       010TELEF BRASILON           R$  000000000566500000000056650000000005557000000000559500000000056090000000005606000000000561011515000000000001808400000000010119719100000000000000009999123100000010000000000000BRVIVTACNOR0184
012024100202PETZ3       010PETZ        ON      NM   R$  000000000049400000000005030000000000487000000000049500000000004870000000000487000000000048807818000000000009760900000000004833020300000000000000009999123100000010000000000000BRPETZACNOR2110
012024100202RAPT3       010RANDON PART ON      N1   R$  000000000088300000000008920000000000882000000000088700000000008860000000000886000000000089100061000000000000014500000000000012866200000000000000009999123100000010000000000000BRRAPTACNOR7163
012024100202RAPT4       010RANDON PART PN      N1   R$  000000000109900000000011140000000001086000000000109800000000010860000000001086000000000108706762000000000002376400000000002610645300000000000000009999123100000010000000000000BRRAPTACNPR4163
012024100202REDE3       010REDE ENERGIAON           R$  000000000069600000000007000000000000688000000000069300000000006880000000000688000000000069300012000000000000002000000000000001387000000000000000009999123100000010000000000000BRREDEACNOR7128
012024100202RENT3       010LOCALIZA    ON  EJ  NM   R$  000000000415500000000042430000000004145000000000419800000000041790000000004177000000000417916333000000000005038600000000021152392900000000000000009999123100000010000000000000BRRENTACNOR4197
012024100202TGMA3       010TEGMA       ON      NM   R$  000000000264600000000026950000000002646000000000267700000000026880000000002671000000000268800719000000000000108600000000000290799000000000000000009999123100000010000000000000BRTGMAACNOR7145
012024100202TIMS3       010TIM         ON  EJ  NM   R$  000000000187400000000018860000000001861000000000187300000000018750000000001874000000000187713137000000000008314400000000015574576500000000000000009999123100000010000000000000BRTIMSACNOR5118
012024100202TOTS3       010TOTVS       ON      NM   R$  000000000292300000000029570000000002905000000000294000000000029450000000002936000000000294812140000000000002750100000000008086072000000000000000009999123100000010000000000000BRTOTSACNOR8145
012024100202TPIS3       010TRIUNFO PARTON      NM   R$  000000000052300000000005370000000000517000000000052300000000005350000000000524000000000053500279000000000000079400000000000041557400000000000000009999123100000010000000000000BRTPISACNOR8118
012024100202MGEL4       010MANGELS INDLPN           R$  000000000110000000000011000000000001100000000000110000000000011000000000001000000000000115900003000000000000000300000000000000330000000000000000009999123100000010000000000000BRMGELACNPR3147
012024100202MGLU3       010MAGAZ LUIZA ON      NM   R$  000000000098300000000010120000000000974000000000099100000000009850000000000984000000000098622506000000000024958100000000024739223300000000000000009999123100000010000000000000BRMGLUACNOR2125
012024100202ODPV3       010ODONTOPREV  ON  EJ  NM   R$  000000000110700000000011210000000001090000000000110200000000011030000000001099000000000110305514000000000001292500000000001424999700000000000000009999123100000010000000000000BRODPVACNOR4204
012024100202OFSA3       010OUROFINO S/AON      NM   R$  000000000205100000000020510000000002051000000000205100000000020510000000002050000000000208100001000000000000001100000000000002256100000000000000009999123100000010000000000000BROFSAACNOR7118
012024100202ONCO3       010ONCOCLINICASON      NM   R$  000000000045700000000004590000000000444000000000045100000000004490000000000449000000000045005746000000000004583800000000002068534300000000000000009999123100000010000000000000BRONCOACNOR6101
012024100202OPCT3       010OCEANPACT   ON      NM   R$  000000000069300000000007010000000000686000000000069400000000006880000000000688000000000069101524000000000000535200000000000371730800000000000000009999123100000010000000000000BROPCTACNOR0100
012024100202ORVR3       010ORIZON      ON      NM   R$  000000000467500000000047540000000004648000000000468100000000046700000000004668000000000467902367000000000000411400000000001926024600000000000000009999123100000010000000000000BRORVRACNOR0101
012024100202PATI3       010PANATLANTICAON           R$  000000000244900000000024490000000002449000000000244900000000024490000000002351000000000290100002000000000000000200000000000000489800000000000000009999123100000010000000000000BRPATIACNOR6066
012024100202PATI4       010PANATLANTICAPN           R$  000000000295000000000029500000000002950000000000295000000000029500000000002950000000000383000001000000000000000100000000000000295000000000000000009999123100000010000000000000BRPATIACNPR3066
012024100202PCAR3       010P.ACUCAR-CBDON      NM   R$  000000000028000000000002980000000000279000000000028900000000002960000000000296000000000029719039000000000015264100000000004416675500000000000000009999123100000010000000000000BRPCARACNOR3167
012024100202LWSA3       010LWSA        ON      NM   R$  000000000042100000000004340000000000414000000000042200000000004190000000000417000000000042009651000000000004498600000000001901181300000000000000009999123100000010000000000000BRLWSAACNOR8103
012024100202MAPT4       010CEMEPE      PN           R$  000000000045000000000004500000000000450000000000045000000000004500000000000400000000000056000001000000000000000100000000000000045000000000000000009999123100000010000000000000BRMAPTACNPR5106
012024100202MATD3       010MATER DEI   ON      NM   R$  000000000044200000000004540000000000440000000000044600000000004540000000000450000000000045401469000000000000458500000000000204747800000000000000009999123100000010000000000000BRMATDACNOR4104
012024100202MBLY3       010MOBLY       ON      NM   R$  000000000025700000000002660000000000257000000000026300000000002640000000000263000000000026400687000000000000564500000000000148516700000000000000009999123100000010000000000000BRMBLYACNOR5100
012024100202MYPK3       010IOCHP-MAXIONON  EJ  NM   R$  000000000108500000000011130000000001070000000000108700000000010720000000001072000000000107605243000000000001475200000000001603980200000000000000009999123100000010000000000000BRMYPKACNOR7156
012024100202NEOE3       010NEOENERGIA  ON      NM   R$  000000000191700000000019690000000001917000000000195100000000019390000000001939000000000194204155000000000000896200000000001748511000000000000000009999123100000010000000000000BRNEOEACNOR3123
012024100202RADL3       010RAIADROGASILON      NM   R$  000000000267700000000026770000000002611000000000263200000000026300000000002630000000000263111030000000000003574300000000009409731300000000000000009999123100000010000000000000BRRADLACNOR0157
012024100202RAIL3       010RUMO S.A.   ON      NM   R$  000000000200400000000020120000000001989000000000200300000000020050000000002004000000000200516233000000000011942400000000023922664400000000000000009999123100000010000000000000BRRAILACNOR9105
012024100202SMFT3       010SMART FIT   ON      NM   R$  000000000216500000000022050000000002149000000000218200000000021750000000002172000000000217508184000000000002018800000000004405854400000000000000009999123100000010000000000000BRSMFTACNOR1112
012024100202SMTO3       010SAO MARTINHOON      NM   R$  000000000262800000000027460000000002628000000000272300000000027460000000002732000000000274706475000000000001106100000000003012908500000000000000009999123100000010000000000000BRSMTOACNOR3127
012024100202SNSY3       010SANSUY      ON           R$  000000000118500000000012890000000001185000000000126400000000012890000000001195000000000128500003000000000000000600000000000000758600000000000000009999123100000010000000000000BRSNSYACNOR2113
012024100202SNSY5       010SANSUY      PNA          R$  000000000054200000000005500000000000540000000000054000000000005480000000000527000000000054600009000000000000003700000000000002000800000000000000009999123100000010000000000000BRSNSYACNPA5111
012024100202SOJA3       010BOA SAFRA   ON      NM   R$  000000000118800000000012100000000001188000000000120000000000011900000000001190000000000120101619000000000000425700000000000511012000000000000000009999123100000010000000000000BRSOJAACNOR9105
012024100202SRNA3       010SERENA      ON      NM   R$  000000000082800000000008460000000000825000000000083600000000008370000000000825000000000083704769000000000002708500000000002264927200000000000000009999123100000010000000000000BRSRNAACNOR4100
012024100202STBP3       010SANTOS BRP  ON      NM   R$  000000000148000000000014800000000001470000000000147400000000014700000000001470000000000147411729000000000013899700000000020495236000000000000000009999123100000010000000000000BRSTBPACNOR3131
012024100202SUZB3       010SUZANO S.A. ON      NM   R$  000000000552500000000055770000000005481000000000552600000000055100000000005510000000000551112516000000000004127600000000022811910500000000000000009999123100000010000000000000BRSUZBACNOR0130
012024100202PRNR3       010PRINER      ON      NM   R$  000000000119300000000012310000000001192000000000121100000000012230000000001215000000000122401133000000000000253400000000000306936600000000000000009999123100000010000000000000BRPRNRACNOR4109
012024100202PSSA3       010PORTO SEGUROON  EJ  NM   R$  000000000363300000000037240000000003625000000000369400000000037190000000003700000000000371912181000000000002687500000000009929857200000000000000009999123100000010000000000000BRPSSAACNOR7156
012024100202PTBL3       010PORTOBELLO  ON      NM   R$  000000000046800000000004800000000000466000000000047200000000004660000000000466000000000047100544000000000000209400000000000099044300000000000000009999123100000010000000000000BRPTBLACNOR8132
012024100202PTNT3       010PETTENATI   ON           R$  000000000097300000000009730000000000931000000000095900000000009310000000000930000000000095500011000000000000001200000000000001151900000000000000009999123100000010000000000000BRPTNTACNOR6042
012024100202PTNT4       010PETTENATI   PN           R$  000000000066000000000006670000000000645000000000065500000000006450000000000644000000000066000039000000000000028600000000000018740300000000000000009999123100000010000000000000BRPTNTACNPR3047
012024100202QUAL3       010QUALICORP   ON      NM   R$  000000000022300000000002460000000000216000000000023200000000002440000000000243000000000024509077000000000013962000000000003248859400000000000000009999123100000010000000000000BRQUALACNOR6120
012024100202SCAR3       010SAO CARLOS  ON      NM   R$  000000000231800000000023240000000002292000000000230600000000023240000000002258000000000233000007000000000000000800000000000001845500000000000000009999123100000010000000000000BRSCARACNOR7131
012024100202SEER3       010SER EDUCA   ON      NM   R$  000000000059200000000006120000000000589000000000060000000000006000000000000597000000000060000886000000000000304200000000000182538000000000000000009999123100000010000000000000BRSEERACNOR5119
012024100202SEQL3       010SEQUOIA LOG ON      NM   R$  000000000044700000000004740000000000442000000000045300000000004500000000000449000000000045001516000000000000603600000000000273868200000000000000009999123100000010000000000000BRSEQLACNOR2103
012024100202SHOW3       010TIME FOR FUNON      NM   R$  000000000009900000000001030000000000099000000000010000000000000990000000000099000000000010000271000000000000104700000000000010518700000000000000009999123100000010000000000000BRSHOWACNOR7105
012024100202SHUL4       010SCHULZ      PN  EJ       R$  000000000061900000000006340000000000619000000000062800000000006280000000000626000000000062801062000000000000375800000000000236120500000000000000009999123100000010000000000000BRSHULACNPR4157
012024100202SIMH3       010SIMPAR      ON      NM   R$  000000000058600000000005920000000000543000000000056300000000005430000000000542000000000054307723000000000006011600000000003389702300000000000000009999123100000010000000000000BRSIMHACNOR0107
012024100202SLCE3       010SLC AGRICOLAON      NM   R$  000000000185600000000018770000000001850000000000186100000000018530000000001852000000000185707282000000000001914700000000003563962600000000000000009999123100000010000000000000BRSLCEACNOR2125
012024100202VALE3       010VALE        ON      NM   R$  000000000644200000000065350000000006397000000000645700000000064170000000006413000000000641735190000000000020310600000000131156016000000000000000009999123100000010000000000000BRVALEACNOR0211
012024100202ZAMP3       010ZAMP S.A.   ON           R$  000000000026800000000002770000000000264000000000027100000000002750000000000274000000000027501768000000000000521900000000000141779800000000000000009999123100000010000000000000BRZAMPACNOR5101
012024100202MNDL3       010MUNDIAL     ON           R$  000000000156900000000016450000000001569000000000158600000000016450000000001182000000000165000009000000000000002800000000000004440900000000000000009999123100000010000000000000BRMNDLACNOR4109
012024100202MNPR3       010MINUPAR     ON           R$  000000000168000000000017780000000001645000000000168100000000016450000000001645000000000176500013000000000000001500000000000002522300000000000000009999123100000010000000000000BRMNPRACNOR5122
012024100202MOAR3       010MONT ARANHA ON           R$  000000003500000000000399510000000035000000000003746000000000399510000000035000000000004000000005000000000000000500000000000018730200000000000000009999123100000010000000000000BRMOARACNOR5234
012024100202MOVI3       010MOVIDA      ON      NM   R$  000000000062500000000006390000000000608000000000062300000000006080000000000608000000000060909140000000000006338400000000003953730900000000000000009999123100000010000000000000BRMOVIACNOR0122
012024100202MRFG3       010MARFRIG     ON      NM   R$  000000000139000000000014120000000001372000000000138300000000013800000000001380000000000138212436000000000003877300000000005366103700000000000000009999123100000010000000000000BRMRFGACNOR0116
012024100202MRVE3       010MRV         ON      NM   R$  000000000077000000000008060000000000770000000000079100000000007890000000000789000000000079219626000000000015271600000000012093166500000000000000009999123100000010000000000000BRMRVEACNOR2127
012024100202SAPR11      010SANEPAR     UNT     N2   R$  000000000292100000000029740000000002916000000000294600000000029280000000002928000000000293003737000000000000713700000000002103251300000000000000009999123100000010000000000000BRSAPRCDAM13118
012024100202SAPR3       010SANEPAR     ON      N2   R$  000000000055900000000005660000000000555000000000056200000000005610000000000560000000000056100341000000000000087400000000000049132000000000000000009999123100000010000000000000BRSAPRACNOR9159
012024100202SAPR4       010SANEPAR     PN      N2   R$  000000000058900000000005990000000000589000000000059400000000005920000000000591000000000059201947000000000000913500000000000543183800000000000000009999123100000010000000000000BRSAPRACNPR6159
012024100202SBFG3       010GRUPO SBF   ON      NM   R$  000000000163100000000016440000000001549000000000157200000000015500000000001548000000000155409118000000000002942300000000004625423200000000000000009999123100000010000000000000BRSBFGACNOR1103
012024100202SBSP3       010SABESP      ON      NM   R$  000000000915000000000091500000000008997000000000903400000000090110000000009010000000000901411744000000000002596400000000023456353600000000000000009999123100000010000000000000BRSBSPACNOR5161
012024100202YDUQ3       010YDUQS PART  ON      NM   R$  000000000091000000000009350000000000910000000000092300000000009220000000000922000000000092712592000000000004994500000000004611653700000000000000009999123100000010000000000000BRYDUQACNOR3105
012024100202PORT3       010WILSON SONS ON      NM   R$  000000000172100000000017380000000001664000000000168000000000016800000000001680000000000168403589000000000002247900000000003776515900000000000000009999123100000010000000000000BRPORTACNOR8109
012024100202POSI3       010POSITIVO TECON      NM   R$  000000000059000000000006050000000000586000000000059500000000005900000000000590000000000059303669000000000001958400000000001166353900000000000000009999123100000010000000000000BRPOSIACNOR9116
012024100202PRIO3       010PETRORIO    ON      NM   R$  000000000451500000000045680000000004412000000000447300000000044120000000004412000000000441737759000000000012500100000000055918123700000000000000009999123100000010000000000000BRPRIOACNOR1107
012024100202LUPA3       010LUPATECH    ON      NM   R$  000000000014000000000001430000000000140000000000014100000000001400000000000140000000000014100058000000000000104600000000000014757400000000000000009999123100000010000000000000BRLUPAACNOR8112
012024100202LVTC3       010WDC NETWORKSON      NM   R$  000000000038700000000003950000000000385000000000038700000000003900000000000390000000000039500038000000000000015400000000000005968700000000000000009999123100000010000000000000BRLVTCACNOR4102
012024100202ROMI3       010ROMI        ON  EJ  NM   R$  000000000111500000000011290000000001105000000000111600000000011080000000001108000000000111001107000000000000223200000000000249149800000000000000009999123100000010000000000000BRROMIACNOR8196
012024100202RCSL3       010RECRUSUL    ON           R$  000000000051000000000005800000000000503000000000054200000000005710000000000571000000000057206533000000000002522500000000001368466100000000000000009999123100000010000000000000BRRCSLACNOR4134
012024100202RCSL4       010RECRUSUL    PN           R$  000000000009600000000000970000000000095000000000009500000000000960000000000095000000000009600238000000000000171200000000000016397700000000000000009999123100000010000000000000BRRCSLACNPR1134
012024100202RDNI3       010RNI         ON      NM   R$  000000000030600000000003140000000000306000000000030900000000003070000000000307000000000031200015000000000000001900000000000000588300000000000000009999123100000010000000000000BRRDNIACNOR9116
012024100202RDOR3       010REDE D OR   ON  EJ  NM   R$  000000000310600000000031300000000003000000000000304700000000030430000000003042000000000304313616000000000004672500000000014238331300000000000000009999123100000010000000000000BRRDORACNOR8114
012024100202TFCO4       010TRACK FIELD PN  EJ  N2   R$  000000000108100000000010920000000001065000000000107500000000010740000000001069000000000107400663000000000000131200000000000141064600000000000000009999123100000010000000000000BRTFCOACNPR8115
012024100202VAMO3       010VAMOS       ON      NM   R$  000000000065300000000006610000000000602000000000062200000000006030000000000603000000000060422034000000000021167000000000013180391000000000000000009999123100000010000000000000BRVAMOACNOR7105
012024100202VBBR3       010VIBRA       ON  EJ  NM   R$  000000000236200000000023700000000002320000000000234400000000023390000000002335000000000233916342000000000003767500000000008831333000000000000000009999123100000010000000000000BRVBBRACNOR1109
012024100202CXSE3       010CAIXA SEGURION      NM   R$  000000000145700000000014660000000001445000000000145300000000014470000000001446000000000145009829000000000002718600000000003951436700000000000000009999123100000010000000000000BRCXSEACNOR7107
012024100202CYRE3       010CYRELA REALTON      NM   R$  000000000208200000000021680000000002082000000000214800000000021540000000002152000000000215424197000000000008740000000000018774833600000000000000009999123100000010000000000000BRCYREACNOR7140
012024100207TXRX4       010TEX RENAUX  PN           R$  000000000022600000000002320000000000226000000000022900000000002320000000000226000000000023300002000000000000000200000000000000045800000000000000009999123100000010000000000000BRTXRXACNPR0142
012024100207NUTR3       010NUTRIPLANT  ON      MA   R$  000000000046400000000004690000000000464000000000046700000000004680000000000467000000000046800014000000000000001600000000000000748100000000000000009999123100000010000000000000BRNUTRACNOR0104
012024100208HOOT4       010HOTEIS OTHONPN           R$  000000000023700000000002370000000000224000000000022600000000002240000000000224000000000022900004000000000000000500000000000000113300000000000000009999123100000010000000000000BRHOOTACNPR9015
012024100208JFEN3       010JOAO FORTES ON           R$  000000000003100000000000330000000000029000000000003000000000000300000000000030000000000003100444000000000002565400000000000079082000000000000000009999123100000010000000000000BRJFENACNOR0059
012024100208AMER3       010AMERICANAS  ON      NM   R$  000000000046200000000004650000000000444000000000045200000000004460000000000446000000000044801963000000000001690400000000000764285400000000000000009999123100000010000000000000BRAMERACNOR6103
012024100208CTSA3       010SANTANENSE  ON           R$  000000000025500000000002730000000000255000000000026400000000002730000000000256000000000027000002000000000000000200000000000000052800000000000000009999123100000010000000000000BRCTSAACNOR3062
012024100208CTSA4       010SANTANENSE  PN           R$  000000000013200000000001320000000000128000000000012900000000001300000000000128000000000013000126000000000000044500000000000005754500000000000000009999123100000010000000000000BRCTSAACNPR0062
012024100208ATMP3       010ATMASA      ON           R$  000000000016200000000001620000000000155000000000015600000000001550000000000155000000000015600005000000000000002000000000000000312400000000000000009999123100000010000000000000BRATMPACNOR8100
012024100208AGXY3       010AGROGALAXY  ON      NM   R$  000000000006700000000000710000000000060000000000006400000000000620000000000062000000000006300562000000000001106600000000000070935400000000000000009999123100000010000000000000BRAGXYACNOR4103
012024100208LIGT3       010LIGHT S/A   ON      NM   R$  000000000068600000000006980000000000677000000000068200000000006800000000000680000000000068501575000000000000353700000000000241336300000000000000009999123100000010000000000000BRLIGTACNOR2124
012024100208PMAM3       010PARANAPANEMAON  ES  NM   R$  000000000015900000000001590000000000150000000000015400000000001530000000000153000000000015400160000000000000093100000000000014395300000000000000009999123100000010000000000000BRPMAMACNOR3040
012024100208OIBR3       010OI          ON      N1   R$  000000000052800000000005380000000000509000000000051700000000005110000000000510000000000051100977000000000000824900000000000426681300000000000000009999123100000010000000000000BROIBRACNOR1112
012024100208OIBR4       010OI          PN      N1   R$  000000000118500000000011850000000001122000000000113900000000011380000000001138000000000116100009000000000000001200000000000001367300000000000000009999123100000010000000000000BROIBRACNPR8111
012024100208OSXB3       010OSX BRASIL  ON      NM   R$  000000000043000000000004690000000000420000000000044500000000004660000000000452000000000046600044000000000000014400000000000006412700000000000000009999123100000010000000000000BROSXBACNOR8109
012024100208NEXP3       010NEXPE       ON           R$  000000000041300000000004130000000000408000000000041000000000004080000000000401000000000040900003000000000000000400000000000000164100000000000000009999123100000010000000000000BRNEXPACNOR0101
012024100208RNEW11      010RENOVA      UNT     N2   R$  000000000032600000000003260000000000300000000000030900000000003140000000000306000000000031200051000000000000010500000000000003249800000000000000009999123100000010000000000000BRRNEWCDAM15110
012024100208RNEW3       010RENOVA      ON      N2   R$  000000000010600000000001090000000000100000000000010300000000001030000000000103000000000010400137000000000000106900000000000011033100000000000000009999123100000010000000000000BRRNEWACNOR8110
012024100208RNEW4       010RENOVA      PN      N2   R$  000000000010400000000001080000000000101000000000010400000000001040000000000104000000000010500284000000000000202400000000000021054600000000000000009999123100000010000000000000BRRNEWACNPR5110
012024100208RPMG3       010PET MANGUINHON           R$  000000000030700000000003150000000000300000000000030600000000003150000000000309000000000031500385000000000000109000000000000033356500000000000000009999123100000010000000000000BRRPMGACNOR9194
012024100208RSID3       010ROSSI RESID ON      NM   R$  000000000032300000000003320000000000321000000000032500000000003280000000000327000000000032900073000000000000010400000000000003389500000000000000009999123100000010000000000000BRRSIDACNOR8120
012024100210HBSA1       010HIDROVIAS   DIR ORD NM   R$  000000000001700000000000250000000000010000000000001200000000000140000000000014000000000001500295000000000000229000000000000002881700000000000000009999123100000010000000000000BRHBSAD01OR5100
012024100210DASA1       010DASA        DIR ORD NM   R$  000000000000300000000000030000000000002000000000000200000000000030000000000002000000000000300189000000000000428500000000000001089000000000000000009999123100000010000000000000BRDASAD04OR0122
012024100210EQTL9       010EQUATORIAL  ON  REC NM   R$  000000000326000000000032990000000003205000000000326600000000032700000000003165000000000327000168000000000000629400000000002056162900000000000000009999123100000010000000000000BREQTLR04OR9130
012024100210PMAM1       010PARANAPANEMADIR ORD NM   R$  000000000000100000000000010000000000001000000000000100000000000010000000000000000000000000100120000000000000447800000000000000447800000000000000009999123100000010000000000000BRPMAMD05OR9039
012024100210BGIP2       010BANESE      DIR PRE      R$  000000000019000000000002200000000000190000000000021300000000002200000000000220000000000035000005000000000000000500000000000000106800000000000000009999123100000010000000000000BRBGIPD08PR8209
012024100210ZAMP9       010ZAMP S.A.   ON  REC      R$  000000000026400000000002640000000000256000000000026300000000002560000000000240000000000029900008000000000000006700000000000001764400000000000000009999123100000010000000000000BRZAMPR01OR0100
012024100212BTHI11      010BTG HOTEL FICI           R$  000000000380200000000038150000000003556000000000374700000000037750000000003769000000000399900158000000000000001193000000000004470850000000000000009999123100000010000000000000BRBTHICTF004112
012024100212BTLG11      010FII BTLG    CI           R$  000000000981600000000100490000000009791000000000994100000000100020000000010002000000001002018639000000000000222051000000002207620070000000000000009999123100000010000000000000BRBTLGCTF000166
012024100212BTRA11      010FII BTG TAGRCI  ER       R$  000000000382300000000041000000000003803000000000402000000000039890000000003938000000000398900556000000000000019982000000000080331076000000000000009999123100000010000000000000BRBTRACTF000140
012024100212BTSI11      010FII BTSP II CI  ER       R$  000000001123500000000112350000000011235000000001123500000000112350000000008500000000001123500001000000000000000002000000000000022470000000000000009999123100000010000000000000BRBTSICTF001126
012024100212BTWR11      010FII BTOWERS CI  ER       R$  000000001188400000000118840000000011884000000001188400000000118840000000000000000000001188400005000000000000002091000000000024849444000000000000009999123100000010000000000000BRBTWRCTF004140
012024100212CACR11      010CARTESIA FIICI  ER       R$  000000001052300000000105280000000010450000000001047100000000104570000000010457000000001045801188000000000000011650000000000121988464000000000000009999123100000010000000000000BRCACRCTF004137
012024100212CARE11      010FII DEA CARECI           R$  000000000015400000000001580000000000150000000000015100000000001540000000000152000000000015400151000000000000015491000000000002345724000000000000009999123100000010000000000000BRCARECTF000112
012024100212CPLG11      010FII CPLG    CI           R$  000000000101000000000010700000000001010000000000106900000000010680000000001068000000000107000013000000000003773591000000004037742118000000000000009999123100000010000000000000BRCPLGCTF006100
012024100212CPOF11      010FII CPOF    CI           R$  000000001085000000000108500000000010850000000001085000000000108500000000000000000000001085000001000000000000000002000000000000021700000000000000009999123100000010000000000000BRCPOFCTF002110
012024100212CPSH11      010FII CPSH    CI           R$  000000000101800000000010180000000001003000000000101300000000010070000000001007000000000100904242000000000000474425000000000480874192000000000000009999123100000010000000000000BRCPSHCTF017117
012024100212CPTS11      010FII CAPI SECCI           R$  000000000077900000000007800000000000766000000000077300000000007770000000000776000000000077723363000000000003814890000000002951426049000000000000009999123100000010000000000000BRCPTSCTF004234
012024100212CRFF11      010FII CX RBRA2CI  ER       R$  000000000762800000000079000000000007628000000000766100000000079000000000007900000000000796000015000000000000019222000000000147271345000000000000009999123100000010000000000000BRCRFFCTF006165
012024100212HCHG11      010FII HECT CRICI  ER       R$  000000000682600000000069000000000006700000000000671200000000067780000000006778000000000687900049000000000000016908000000000113502554000000000000009999123100000010000000000000BRHCHGCTF001141
012024100212HCRI11      010FII CRIANCA CI           R$  000000002700000000000274990000000026900000000002710800000000270000000000027000000000002719900059000000000000000348000000000009433926000000000000009999123100000010000000000000BRHCRICTF006332
012024100212HCST11      010FII HECT DESCI           R$  000000000496500000000049650000000004965000000000496500000000049650000000004965000000000736700001000000000000000002000000000000009930000000000000009999123100000010000000000000BRHCSTCTF001101
012024100212HCTR11      010FII HECTARE CI           R$  000000000293900000000029610000000002927000000000294400000000029430000000002943000000000294701358000000000000026639000000000078427170000000000000009999123100000010000000000000BRHCTRCTF003173
012024100212HFOF11      010FII HTOPFOF3CI  ER       R$  000000000664600000000066460000000006497000000000653600000000065690000000006503000000000656905313000000000000024721000000000161580328000000000000009999123100000010000000000000BRHFOFCTF002193
012024100212HGBL11      010FII HGBL    CI  ER       R$  000000000102400000000010300000000001011000000000102400000000010290000000001014000000000103000085000000000000003912000000000004007103000000000000009999123100000010000000000000BRHGBLCTF005109
012024100212HGBS11      010FII HEDGEBS CI  ER       R$  000000002025200000000204490000000019846000000002012500000000198920000000019892000000001989312747000000000000052669000000001059968942000000000000009999123100000010000000000000BRHGBSCTF000314
012024100212HGCR11      010FII HGCR PAXCI  ER       R$  000000001007500000000102210000000010066000000001013100000000101600000000010152000000001016006806000000000000053145000000000538453805000000000000009999123100000010000000000000BRHGCRCTF000250
012024100212HGFF11      010FII HGFF PAXCI  ER       R$  000000000761600000000076760000000007555000000000762200000000075730000000007573000000000760901129000000000000003997000000000030467601000000000000009999123100000010000000000000BRHGFFCTF008164
012024100212HGIC11      010FII HGI CRI CI           R$  000000000969600000000097770000000009613000000000967200000000097770000000009777000000000989900007000000000000000012000000000000116075000000000000009999123100000010000000000000BRHGICCTF009143
012024100212HGLG11      010FII HGLG PAXCI  ER       R$  000000001577000000000158490000000015712000000001575400000000158480000000015810000000001584813140000000000000051238000000000807220184000000000000009999123100000010000000000000BRHGLGCTF004275
012024100212HGPO11      010FII HGPO PAXCI  ER       R$  000000002933100000000299000000000029239000000002941300000000299000000000029527000000002960100338000000000000003241000000000095330045000000000000009999123100000010000000000000BRHGPOCTF009165
012024100212HGRE11      010FII HGRE PAXCI  ER       R$  000000001025000000000103500000000010250000000001031000000000103190000000010310000000001031905611000000000000018274000000000188422977000000000000009999123100000010000000000000BRHGRECTF006296
012024100212HGRU11      010FII HGRU PAXCI  ER       R$  000000001206600000000122750000000012059000000001215500000000121420000000012141000000001214208507000000000000066780000000000811736947000000000000009999123100000010000000000000BRHGRUCTF002181
012024100212HLOG11      010FII HEDGELOGCI  ER       R$  000000000857300000000085940000000008510000000000854400000000085900000000008513000000000859000049000000000000000500000000000004272416000000000000009999123100000010000000000000BRHLOGCTF008160
012024100212HOFC11      010FII HOFFICEICI           R$  000000000272300000000027230000000002601000000000265200000000026980000000002698000000000269900031000000000000001048000000000002779540000000000000009999123100000010000000000000BRHOFCCTF009115
012024100212HOSI11      010FII HOUSI   CI  ER       R$  000000000949700000000094980000000009256000000000941900000000094570000000009457000000000949800010000000000000000048000000000000452143000000000000009999123100000010000000000000BRHOSICTF009149
012024100212HPDP11      010FII HEDGEPDPCI  ER       R$  000000000882900000000088290000000008700000000000877400000000088070000000008565000000000880900012000000000000000025000000000000219362000000000000009999123100000010000000000000BRHPDPCTF003156
012024100212HRDF11      010FII HREALTY CI           R$  000000000031500000000003310000000000315000000000032500000000003270000000000310000000000032700004000000000000000059000000000000019197000000000000009999123100000010000000000000BRHRDFCTF000103
012024100212HREC11      010FII HEDGERECCI  ER       R$  000000000084500000000008500000000000839000000000084400000000008440000000000841000000000084400060000000000000018277000000000015436683000000000000009999123100000010000000000000BRHRECCTF005154
