00COTAHIST.2024BOVESPA 20241014                                                                                                                                                                                                                      
012024101402BRIT3       010BRISANET    ON      NM   R$  000000000030300000000003130000000000303000000000030800000000003080000000000308000000000031300552000000000000277300000000000085456200000000000000009999123100000010000000000000BRBRITACNOR0103
012024101402BRKM3       010BRASKEM     ON      N1   R$  000000000183600000000018360000000001794000000000182700000000018270000000001827000000000183600102000000000000024400000000000044587300000000000000009999123100000010000000000000BRBRKMACNOR1119
012024101402BRKM5       010BRASKEM     PNA     N1   R$  000000000188400000000018990000000001857000000000187800000000018820000000001878000000000188406154000000000001447400000000002719129000000000000000009999123100000010000000000000BRBRKMACNPA4121
012024101402BRSR3       010BANRISUL    ON      N1   R$  000000000130900000000013600000000001309000000000133100000000013350000000001335000000000133900100000000000000018600000000000024774700000000000000009999123100000010000000000000BRBRSRACNOR3189
012024101402CSED3       010CRUZEIRO EDUON      NM   R$  000000000031600000000003250000000000315000000000032100000000003200000000000320000000000032200668000000000000221500000000000071303200000000000000009999123100000010000000000000BRCSEDACNOR9105
012024101402CSMG3       010COPASA      ON      NM   R$  000000000220000000000022200000000002182000000000220100000000021940000000002192000000000219506721000000000001628500000000003584550800000000000000009999123100000010000000000000BRCSMGACNOR5175
012024101402CSNA3       010SID NACIONALON           R$  000000000119000000000011990000000001173000000000118400000000011840000000001184000000000118510639000000000006283600000000007440002300000000000000009999123100000010000000000000BRCSNAACNOR6261
012024101402HYPE3       010HYPERA      ON      NM   R$  000000000268100000000027580000000002665000000000271800000000027130000000002713000000000272116164000000000004610600000000012533861500000000000000009999123100000010000000000000BRHYPEACNOR0144
012024101402EQMA3B      010EQTLMARANHAOON      MB   R$  000000000235400000000023540000000002300000000000231400000000023270000000002301000000000234900008000000000000001100000000000002545500000000000000009999123100000010000000000000BREQMAACNOR8108
012024101402EQPA3       010EQTL PARA   ON           R$  000000000059800000000006080000000000598000000000060300000000006050000000000604000000000060800011000000000000001900000000000001147100000000000000009999123100000010000000000000BREQPAACNOR1111
012024101402EQTL3       010EQUATORIAL  ON      NM   R$  000000000317400000000032780000000003171000000000325200000000032690000000003268000000000327036439000000000011138100000000036221206300000000000000009999123100000010000000000000BREQTLACNOR0131
012024101402AZZA3       010AZZAS 2154  ON      NM   R$  000000000418000000000042150000000004100000000000418000000000042040000000004203000000000420505507000000000000940400000000003931684300000000000000009999123100000010000000000000BRAZZAACNOR9100
012024101402NEOE3       010NEOENERGIA  ON      NM   R$  000000000190000000000019060000000001877000000000189100000000019030000000001903000000000190703212000000000000852200000000001611835700000000000000009999123100000010000000000000BRNEOEACNOR3123
012024101402NGRD3       010NEOGRID     ON  EBG NM   R$  000000000314500000000032000000000003100000000000315300000000031550000000003150000000000319600123000000000000050200000000000158309800000000000000009999123100000010000000000000BRNGRDACNOR3106
012024101402NINJ3       010GETNINJAS   ON      NM   R$  000000000047000000000004700000000000470000000000047000000000004700000000000466000000000047000002000000000000000200000000000000094000000000000000009999123100000010000000000000BRNINJACNOR5101
012024101402NTCO3       010GRUPO NATURAON      NM   R$  000000000149600000000015590000000001490000000000153400000000015420000000001541000000000154213037000000000004551400000000006985462000000000000000009999123100000010000000000000BRNTCOACNOR5106
012024101402RADL3       010RAIADROGASILON  EDJ NM   R$  000000000251000000000025200000000002469000000000249000000000024690000000002468000000000248021389000000000007457800000000018575466300000000000000009999123100000010000000000000BRRADLACNOR0158
012024101402SYNE3       010SYN PROP TECON      NM   R$  000000000076700000000007820000000000759000000000077200000000007720000000000771000000000077402402000000000000664600000000000513439100000000000000009999123100000010000000000000BRSYNEACNOR2103
012024101402JALL3       010JALLESMACHADON      NM   R$  000000000061700000000006500000000000617000000000063800000000006440000000000643000000000064402923000000000001081500000000000690879200000000000000009999123100000010000000000000BRJALLACNOR0106
012024101402JBSS3       010JBS         ON      NM   R$  000000000317000000000032780000000003170000000000324500000000032740000000003270000000000327517714000000000004119200000000013367157200000000000000009999123100000010000000000000BRJBSSACNOR8122
012024101402LUPA3       010LUPATECH    ON      NM   R$  000000000014000000000001450000000000140000000000014100000000001420000000000140000000000014200213000000000000238500000000000033687600000000000000009999123100000010000000000000BRLUPAACNOR8112
012024101402LVTC3       010WDC NETWORKSON      NM   R$  000000000037400000000003800000000000371000000000037400000000003710000000000371000000000037200032000000000000007800000000000002922100000000000000009999123100000010000000000000BRLVTCACNOR4102
012024101402CURY3       010CURY S/A    ON  ED  NM   R$  000000000220900000000022610000000002209000000000224100000000022360000000002235000000000224806561000000000001546600000000003467245400000000000000009999123100000010000000000000BRCURYACNOR3110
012024101402CVCB3       010CVC BRASIL  ON      NM   R$  000000000018100000000001880000000000179000000000018300000000001850000000000185000000000018604568000000000013083700000000002405408100000000000000009999123100000010000000000000BRCVCBACNOR1116
012024101402ENEV3       010ENEVA       ON      NM   R$  000000000138500000000014140000000001385000000000140400000000014030000000001403000000000141015777000000000006157000000000008646141400000000000000009999123100000010000000000000BRENEVACNOR8106
012024101402ENGI11      010ENERGISA    UNT     N2   R$  000000000433000000000044120000000004308000000000436100000000044010000000004401000000000440213115000000000003296400000000014375958900000000000000009999123100000010000000000000BRENGICDAM16136
012024101402ENGI3       010ENERGISA    ON      N2   R$  000000000130600000000013200000000001300000000000130900000000013170000000001300000000000131700025000000000000003300000000000004322400000000000000009999123100000010000000000000BRENGIACNOR0146
012024101402ENGI4       010ENERGISA    PN      N2   R$  000000000076000000000007780000000000756000000000076800000000007700000000000762000000000078000021000000000000003300000000000002534800000000000000009999123100000010000000000000BRENGIACNPR7142
012024101402ENJU3       010ENJOEI      ON      NM   R$  000000000012600000000001360000000000125000000000013200000000001310000000000131000000000013400364000000000000778000000000000103021200000000000000009999123100000010000000000000BRENJUACNOR9100
012024101402EPAR3       010EMBPAR S/A  ON           R$  000000000055500000000005550000000000545000000000055000000000005450000000000545000000000054900029000000000000007000000000000003854200000000000000009999123100000010000000000000BREPARACNOR9105
012024101402SNSY5       010SANSUY      PNA          R$  000000000051400000000005200000000000510000000000051500000000005200000000000488000000000051900011000000000000006000000000000003095500000000000000009999123100000010000000000000BRSNSYACNPA5111
012024101402SOJA3       010BOA SAFRA   ON  EJ  NM   R$  000000000122500000000012390000000001206000000000122300000000012170000000001217000000000122102671000000000000476100000000000582686800000000000000009999123100000010000000000000BRSOJAACNOR9106
012024101402SAPR11      010SANEPAR     UNT     N2   R$  000000000273000000000027970000000002724000000000276000000000027850000000002773000000000278605610000000000001160400000000003202976600000000000000009999123100000010000000000000BRSAPRCDAM13118
012024101402SAPR3       010SANEPAR     ON      N2   R$  000000000052100000000005340000000000519000000000052600000000005340000000000531000000000053400523000000000000175200000000000092212200000000000000009999123100000010000000000000BRSAPRACNOR9159
012024101402SAPR4       010SANEPAR     PN      N2   R$  000000000055700000000005660000000000554000000000055800000000005650000000000563000000000056502175000000000001043100000000000582851600000000000000009999123100000010000000000000BRSAPRACNPR6159
012024101402SBFG3       010GRUPO SBF   ON      NM   R$  000000000147200000000015180000000001454000000000148800000000015010000000001500000000000150110140000000000002660500000000003959850100000000000000009999123100000010000000000000BRSBFGACNOR1103
012024101402SBSP3       010SABESP      ON      NM   R$  000000000885200000000090070000000008840000000000894200000000090010000000008982000000000900415688000000000003858500000000034504371700000000000000009999123100000010000000000000BRSBSPACNOR5161
012024101402YDUQ3       010YDUQS PART  ON      NM   R$  000000000103000000000010610000000001006000000000103700000000010490000000001049000000000105611651000000000004245200000000004405101200000000000000009999123100000010000000000000BRYDUQACNOR3105
012024101402ZAMP3       010ZAMP S.A.   ON           R$  000000000024900000000002600000000000246000000000025200000000002500000000000250000000000025201179000000000000391800000000000099092200000000000000009999123100000010000000000000BRZAMPACNOR5101
012024101402ROMI3       010ROMI        ON      NM   R$  000000000107800000000010920000000001069000000000107900000000010850000000001084000000000108900854000000000000131900000000000142363600000000000000009999123100000010000000000000BRROMIACNOR8196
012024101402RPAD5       010ALFA HOLDINGPNA          R$  000000000072600000000007260000000000726000000000072600000000007260000000000725000000000086000002000000000000000200000000000000145200000000000000009999123100000010000000000000BRRPADACNPA4219
012024101402RSUL4       010RIOSULENSE  PN           R$  000000000613500000000061500000000006135000000000614600000000061500000000006050000000000615000004000000000000000400000000000002458500000000000000009999123100000010000000000000BRRSULACNPR3114
012024101402CRPG5       010CRISTAL     PNA          R$  000000000256000000000025660000000002560000000000256300000000025660000000002562000000000259500002000000000000000200000000000000512600000000000000009999123100000010000000000000BRCRPGACNPA3119
012024101402CSAN3       010COSAN       ON      NM   R$  000000000121000000000012290000000001202000000000121700000000012240000000001223000000000122517004000000000008337600000000010150756000000000000000009999123100000010000000000000BRCSANACNOR6126
012024101402ELMD3       010ELETROMIDIA ON      NM   R$  000000000165400000000017030000000001626000000000166700000000016800000000001675000000000168000288000000000000058900000000000098202000000000000000009999123100000010000000000000BRELMDACNOR3101
012024101402EMAE4       010EMAE        PN           R$  000000000394200000000039420000000003942000000000394200000000039420000000003915000000000398600001000000000000000200000000000000788400000000000000009999123100000010000000000000BREMAEACNPR1126
012024101402EMBR3       010EMBRAER     ON      NM   R$  000000000451800000000046600000000004517000000000460900000000046230000000004622000000000462417947000000000005496900000000025336074200000000000000009999123100000010000000000000BREMBRACNOR4191
012024101402HBOR3       010HELBOR      ON      NM   R$  000000000018800000000001920000000000185000000000018900000000001910000000000190000000000019100237000000000000257100000000000048668600000000000000009999123100000010000000000000BRHBORACNOR3118
012024101402HBRE3       010HBR REALTY  ON      NM   R$  000000000045100000000004590000000000446000000000045200000000004590000000000459000000000046000550000000000000333700000000000151050800000000000000009999123100000010000000000000BRHBREACNOR4100
012024101402HBSA3       010HIDROVIAS   ON      NM   R$  000000000032400000000003290000000000322000000000032300000000003220000000000322000000000032304117000000000004294200000000001389039700000000000000009999123100000010000000000000BRHBSAACNOR0101
012024101402HETA4       010HERCULES    PN           R$  000000000065000000000006980000000000650000000000066200000000006980000000000539000000000068900003000000000000000400000000000000265000000000000000009999123100000010000000000000BRHETAACNPR9136
012024101402LWSA3       010LWSA        ON      NM   R$  000000000040600000000004320000000000406000000000042200000000004270000000000427000000000042806514000000000004107500000000001733436300000000000000009999123100000010000000000000BRLWSAACNOR8103
012024101402MRVE3       010MRV         ON      NM   R$  000000000073000000000007560000000000724000000000074600000000007460000000000746000000000075215783000000000012346200000000009215772600000000000000009999123100000010000000000000BRMRVEACNOR2127
012024101402MTRE3       010MITRE REALTYON      NM   R$  000000000036200000000003750000000000359000000000036700000000003730000000000372000000000037300795000000000000382000000000000140496400000000000000009999123100000010000000000000BRMTREACNOR6115
012024101402MTSA4       010METISA      PN           R$  000000000362500000000037990000000003625000000000363300000000037990000000003600000000000380000006000000000000011700000000000042516300000000000000009999123100000010000000000000BRMTSAACNPR9073
012024101402MULT3       010MULTIPLAN   ON      N2   R$  000000000255800000000026130000000002553000000000258400000000025860000000002586000000000258912204000000000002065400000000005338802800000000000000009999123100000010000000000000BRMULTACNOR5139
012024101402PRNR3       010PRINER      ON      NM   R$  000000000119500000000012950000000001195000000000125500000000012680000000001268000000000127601203000000000000215400000000000270349600000000000000009999123100000010000000000000BRPRNRACNOR4109
012024101402PSSA3       010PORTO SEGUROON      NM   R$  000000000364100000000036800000000003616000000000365900000000036610000000003660000000000367811122000000000002815400000000010303620700000000000000009999123100000010000000000000BRPSSAACNOR7156
012024101402PTBL3       010PORTOBELLO  ON      NM   R$  000000000045900000000004850000000000459000000000047300000000004840000000000481000000000048400856000000000000290500000000000137585400000000000000009999123100000010000000000000BRPTBLACNOR8132
012024101402PTNT3       010PETTENATI   ON           R$  000000000095500000000009550000000000955000000000095500000000009550000000000940000000000095500001000000000000000100000000000000095500000000000000009999123100000010000000000000BRPTNTACNOR6042
012024101402PTNT4       010PETTENATI   PN           R$  000000000064600000000006550000000000644000000000065000000000006550000000000652000000000065500020000000000000008600000000000005596100000000000000009999123100000010000000000000BRPTNTACNPR3047
012024101402QUAL3       010QUALICORP   ON      NM   R$  000000000021900000000002280000000000218000000000022300000000002240000000000223000000000022402724000000000002824500000000000630738700000000000000009999123100000010000000000000BRQUALACNOR6120
012024101402SMFT3       010SMART FIT   ON      NM   R$  000000000219000000000022490000000002184000000000222500000000022230000000002222000000000223007076000000000001606300000000003574369500000000000000009999123100000010000000000000BRSMFTACNOR1112
012024101402SMTO3       010SAO MARTINHOON      NM   R$  000000000262700000000026990000000002627000000000266600000000026460000000002645000000000264605961000000000000859400000000002292014000000000000000009999123100000010000000000000BRSMTOACNOR3127
012024101402SRNA3       010SERENA      ON      NM   R$  000000000079500000000008200000000000785000000000080500000000008040000000000804000000000081305620000000000001897200000000001528571000000000000000009999123100000010000000000000BRSRNAACNOR4100
012024101402STBP3       010SANTOS BRP  ON      NM   R$  000000000147800000000014800000000001467000000000147600000000014780000000001478000000000147905416000000000012935900000000019106320100000000000000009999123100000010000000000000BRSTBPACNOR3131
012024101402SUZB3       010SUZANO S.A. ON      NM   R$  000000000541000000000055130000000005370000000000543300000000054690000000005468000000000547018275000000000003669100000000019936737700000000000000009999123100000010000000000000BRSUZBACNOR0130
012024101402ITUB4       010ITAUUNIBANCOPN      N1   R$  000000000347400000000035070000000003462000000000348200000000034850000000003485000000000348825965000000000014436100000000050277491200000000000000009999123100000010000000000000BRITUBACNPR1342
012024101402MRFG3       010MARFRIG     ON      NM   R$  000000000127400000000013310000000001260000000000130000000000013170000000001317000000000132012794000000000004686500000000006095070200000000000000009999123100000010000000000000BRMRFGACNOR0116
012024101402GMAT3       010GRUPO MATEUSON      NM   R$  000000000072500000000007360000000000721000000000072700000000007250000000000725000000000072808246000000000002995700000000002179599000000000000000009999123100000010000000000000BRGMATACNOR7103
012024101402GOAU3       010GERDAU MET  ON      N1   R$  000000000102800000000010350000000001012000000000101900000000010350000000001034000000000103500309000000000000062300000000000063528700000000000000009999123100000010000000000000BRGOAUACNOR1268
012024101402GOAU4       010GERDAU MET  PN      N1   R$  000000000104500000000010570000000001021000000000103900000000010540000000001053000000000105414038000000000014210500000000014767955000000000000000009999123100000010000000000000BRGOAUACNPR8269
012024101402ARML3       010ARMAC       ON  EJ  NM   R$  000000000080500000000008230000000000783000000000080400000000008140000000000813000000000081502185000000000000408300000000000328528500000000000000009999123100000010000000000000BRARMLACNOR1113
012024101402ASAI3       010ASSAI       ON      NM   R$  000000000070300000000007220000000000686000000000070600000000007140000000000713000000000071431526000000000042118900000000029738668400000000000000009999123100000010000000000000BRASAIACNOR0106
012024101402BIOM3       010BIOMM       ON      MA   R$  000000000088700000000009030000000000887000000000089500000000008900000000000889000000000090000083000000000000020000000000000017913100000000000000009999123100000010000000000000BRBIOMACNOR2112
012024101402BLAU3       010BLAU        ON      NM   R$  000000000131000000000013680000000001296000000000134100000000013680000000001346000000000136800731000000000000317000000000000425224700000000000000009999123100000010000000000000BRBLAUACNOR8115
012024101402COCE3       010COELCE      ON           R$  000000000291500000000029150000000002915000000000291500000000029150000000002915000000000350000001000000000000000100000000000000291500000000000000009999123100000010000000000000BRCOCEACNOR0146
012024101402COCE5       010COELCE      PNA          R$  000000000264000000000027000000000002630000000000267300000000026410000000002640000000000269600052000000000000016400000000000043840400000000000000009999123100000010000000000000BRCOCEACNPA3147
012024101402COGN3       010COGNA ON    ON      NM   R$  000000000013200000000001380000000000130000000000013400000000001350000000000135000000000013614551000000000053573600000000007192279400000000000000009999123100000010000000000000BRCOGNACNOR2105
012024101402DASA3       010DASA        ON      NM   R$  000000000029500000000003030000000000295000000000029800000000002960000000000296000000000029801677000000000000608100000000000181437100000000000000009999123100000010000000000000BRDASAACNOR1123
012024101402DESK3       010DESKTOP     ON      NM   R$  000000000135400000000013780000000001342000000000136200000000013650000000001364000000000137300796000000000000171300000000000233317200000000000000009999123100000010000000000000BRDESKACNOR2104
012024101402DEXP3       010DEXXOS PAR  ON      N1   R$  000000000087500000000008900000000000868000000000087700000000008870000000000884000000000088800302000000000000057600000000000050539800000000000000009999123100000010000000000000BRDEXPACNOR1105
012024101402DEXP4       010DEXXOS PAR  PN      N1   R$  000000000088100000000008980000000000880000000000089300000000008980000000000881000000000089700008000000000000001600000000000001429400000000000000009999123100000010000000000000BRDEXPACNPR8105
012024101402DIRR3       010DIRECIONAL  ON      NM   R$  000000000290700000000030200000000002891000000000297400000000029740000000002972000000000297607484000000000001803900000000005366488600000000000000009999123100000010000000000000BRDIRRACNOR0119
012024101402DMVF3       010D1000VFARMA ON      NM   R$  000000000067000000000006960000000000657000000000068700000000006950000000000689000000000069500376000000000000301800000000000207539400000000000000009999123100000010000000000000BRDMVFACNOR9100
012024101402CAMB3       010CAMBUCI     ON           R$  000000000122000000000012500000000001205000000000122500000000012500000000001220000000000125000101000000000000020000000000000024508600000000000000009999123100000010000000000000BRCAMBACNOR4131
012024101402CAML3       010CAMIL       ON      NM   R$  000000000082700000000008280000000000808000000000081900000000008210000000000821000000000082302731000000000000881300000000000722254100000000000000009999123100000010000000000000BRCAMLACNOR3129
012024101402CASH3       010MELIUZ      ON      NM   R$  000000000035000000000003700000000000344000000000036200000000003690000000000365000000000036902456000000000001418900000000000513921300000000000000009999123100000010000000000000BRCASHACNOR8107
012024101402CBAV3       010CBA         ON      NM   R$  000000000057900000000005860000000000561000000000057500000000005670000000000566000000000056707469000000000004453500000000002564996200000000000000009999123100000010000000000000BRCBAVACNOR5104
012024101402CSUD3       010CSU DIGITAL ON      NM   R$  000000000169700000000017280000000001662000000000169300000000017120000000001712000000000172800374000000000000043400000000000073485000000000000000009999123100000010000000000000BRCSUDACNOR5111
012024101402CTKA4       010KARSTEN     PN           R$  000000000188100000000018810000000001880000000000188000000000018800000000001880000000000199800003000000000000000800000000000001504100000000000000009999123100000010000000000000BRCTKAACNPR7043
012024101402BRAP3       010BRADESPAR   ON      N1   R$  000000000180600000000018080000000001783000000000180000000000018010000000001800000000000180600258000000000000049700000000000089467900000000000000009999123100000010000000000000BRBRAPACNOR5148
012024101402BRAP4       010BRADESPAR   PN      N1   R$  000000000195300000000019620000000001928000000000194700000000019450000000001945000000000195307031000000000003316100000000006458505600000000000000009999123100000010000000000000BRBRAPACNPR2148
012024101402CLSC4       010CELESC      PN      N2   R$  000000000817100000000081720000000008041000000000810600000000080410000000008040000000000817200004000000000000000400000000000003242500000000000000009999123100000010000000000000BRCLSCACNPR3132
012024101402CMIG3       010CEMIG       ON      N1   R$  000000000141300000000014310000000001406000000000141600000000014210000000001411000000000142100803000000000000204900000000000290327600000000000000009999123100000010000000000000BRCMIGACNOR6244
012024101402CMIG4       010CEMIG       PN      N1   R$  000000000110200000000011150000000001098000000000110500000000011110000000001111000000000111215605000000000017462100000000019297520900000000000000009999123100000010000000000000BRCMIGACNPR3245
012024101402CMIN3       010CSNMINERACAOON  EDJ N2   R$  000000000059400000000005980000000000586000000000059200000000005980000000000596000000000059807155000000000005313300000000003150132500000000000000009999123100000010000000000000BRCMINACNOR2112
012024101402CYRE3       010CYRELA REALTON      NM   R$  000000000214000000000021860000000002123000000000215700000000021670000000002167000000000217614879000000000004712900000000010169548800000000000000009999123100000010000000000000BRCYREACNOR7140
012024101402DOHL4       010DOHLER      PN           R$  000000000040200000000004140000000000402000000000040700000000004130000000000403000000000041200006000000000000000900000000000000366400000000000000009999123100000010000000000000BRDOHLACNPR9066
012024101402DOTZ3       010DOTZ SA     ON      NM   R$  000000000058400000000006230000000000580000000000060000000000005970000000000590000000000060000168000000000000054200000000000032561400000000000000009999123100000010000000000000BRDOTZACNOR7101
012024101402DXCO3       010DEXCO       ON      NM   R$  000000000079500000000008270000000000789000000000081300000000008180000000000818000000000082207353000000000002138200000000001739569200000000000000009999123100000010000000000000BRDXCOACNOR8105
012024101402EALT3       010ACO ALTONA  ON           R$  000000000147900000000014790000000001479000000000147900000000014790000000001404000000000149500001000000000000000100000000000000147900000000000000009999123100000010000000000000BREALTACNOR4138
012024101402EALT4       010ACO ALTONA  PN           R$  000000000136800000000013740000000001349000000000135300000000013600000000001352000000000136300036000000000000006200000000000008389800000000000000009999123100000010000000000000BREALTACNPR1138
012024101402ECOR3       010ECORODOVIAS ON      NM   R$  000000000071200000000007270000000000697000000000071300000000007170000000000717000000000071905460000000000003175700000000002265191700000000000000009999123100000010000000000000BRECORACNOR8120
012024101402SANB11      010SANTANDER BRUNT          R$  000000000286000000000029070000000002854000000000288300000000028910000000002884000000000289806736000000000001380100000000003979313800000000000000009999123100000010000000000000BRSANBCDAM13165
012024101402SANB3       010SANTANDER BRON           R$  000000000136900000000013820000000001356000000000137400000000013760000000001376000000000138000230000000000000090000000000000123743900000000000000009999123100000010000000000000BRSANBACNOR8172
012024101402SANB4       010SANTANDER BRPN           R$  000000000149500000000015220000000001490000000000150500000000015200000000001511000000000152000228000000000000055800000000000083999900000000000000009999123100000010000000000000BRSANBACNPR5172
012024101402SCAR3       010SAO CARLOS  ON      NM   R$  000000000218700000000022240000000002187000000000220500000000022240000000002206000000000224700010000000000000019000000000000041901900000000000000009999123100000010000000000000BRSCARACNOR7131
012024101402BPAC11      010BTGP BANCO  UNT     N2   R$  000000000322100000000032760000000003192000000000324400000000032620000000003262000000000326316265000000000005747200000000018647467900000000000000009999123100000010000000000000BRBPACUNT006119
012024101402BPAC3       010BTGP BANCO  ON      N2   R$  000000000149100000000015780000000001491000000000154100000000015780000000001560000000000158900038000000000000007200000000000011100400000000000000009999123100000010000000000000BRBPACACNOR7134
012024101402BPAC5       010BTGP BANCO  PNA     N2   R$  000000000084300000000008470000000000836000000000084300000000008460000000000838000000000084700044000000000000005700000000000004806100000000000000009999123100000010000000000000BRBPACACNPA0134
012024101402CCRO3       010CCR SA      ON      NM   R$  000000000121000000000012410000000001206000000000122700000000012320000000001232000000000123311178000000000007663700000000009406516500000000000000009999123100000010000000000000BRCCROACNOR2145
012024101402CEAB3       010CEA MODAS   ON      NM   R$  000000000111900000000011850000000001089000000000115000000000011650000000001165000000000117014031000000000005861500000000006742618400000000000000009999123100000010000000000000BRCEABACNOR1102
012024101402CEBR3       010CEB         ON           R$  000000000188600000000018980000000001869000000000187800000000018980000000001850000000000189800007000000000000000900000000000001690800000000000000009999123100000010000000000000BRCEBRACNOR5125
012024101402CEBR5       010CEB         PNA          R$  000000000160700000000016410000000001602000000000163200000000016400000000001605000000000166800008000000000000001000000000000001632400000000000000009999123100000010000000000000BRCEBRACNPA8124
012024101402CEBR6       010CEB         PNB          R$  000000000178900000000017890000000001751000000000176900000000017510000000001750000000000178800033000000000000005700000000000010083400000000000000009999123100000010000000000000BRCEBRACNPB6124
012024101402CEDO3       010CEDRO       ON      N1   R$  000000000220000000000022000000000002200000000000220000000000022000000000001537000000000250000004000000000000001300000000000002860000000000000000009999123100000010000000000000BRCEDOACNOR8096
012024101402CEDO4       010CEDRO       PN      N1   R$  000000000223600000000022360000000002236000000000223600000000022360000000002286000000000237400002000000000000000200000000000000447200000000000000009999123100000010000000000000BRCEDOACNPR5128
012024101402CEGR3       010CEG         ON           R$  000000000700000000000070000000000007000000000000700000000000070000000000000000000000000000000004000000000000000700000000000004900000000000000000009999123100000010000000000000BRCEGRACNOR4145
012024101402SEER3       010SER EDUCA   ON      NM   R$  000000000057800000000005890000000000565000000000057800000000005850000000000582000000000058501659000000000000406200000000000234943800000000000000009999123100000010000000000000BRSEERACNOR5119
012024101402SEQL3       010SEQUOIA LOG ON      NM   R$  000000000043300000000004400000000000407000000000041800000000004070000000000406000000000040701655000000000001304200000000000545781000000000000000009999123100000010000000000000BRSEQLACNOR2103
012024101402SHOW3       010TIME FOR FUNON      NM   R$  000000000009500000000000970000000000094000000000009500000000000970000000000095000000000009700440000000000000117100000000000011169300000000000000009999123100000010000000000000BRSHOWACNOR7105
012024101402SHUL4       010SCHULZ      PN           R$  000000000062000000000006230000000000611000000000061700000000006150000000000615000000000062200907000000000000313600000000000193507700000000000000009999123100000010000000000000BRSHULACNPR4157
012024101402SIMH3       010SIMPAR      ON      NM   R$  000000000049800000000005310000000000489000000000051000000000005200000000000520000000000052106781000000000004951600000000002529264800000000000000009999123100000010000000000000BRSIMHACNOR0107
012024101402SLCE3       010SLC AGRICOLAON      NM   R$  000000000171400000000017320000000001700000000000171700000000017160000000001716000000000171906088000000000001972400000000003388578900000000000000009999123100000010000000000000BRSLCEACNOR2125
012024101402ITSA3       010ITAUSA      ON      N1   R$  000000000104600000000010620000000001046000000000105700000000010550000000001055000000000105600303000000000000100700000000000106456200000000000000009999123100000010000000000000BRITSAACNOR0443
012024101402VALE3       010VALE        ON      NM   R$  000000000623200000000062520000000006133000000000619700000000061930000000006191000000000619334360000000000044954000000000278582250800000000000000009999123100000010000000000000BRVALEACNOR0211
012024101402WEST3       010WESTWING    ON      NM   R$  000000000007900000000000830000000000078000000000007900000000000830000000000079000000000008300037000000000000046600000000000003726300000000000000009999123100000010000000000000BRWESTACNOR3100
012024101402WHRL3       010WHIRLPOOL   ON           R$  000000000041900000000004200000000000416000000000041700000000004180000000000415000000000041800013000000000000003100000000000001293900000000000000009999123100000010000000000000BRWHRLACNOR5129
012024101402WHRL4       010WHIRLPOOL   PN           R$  000000000044700000000004500000000000441000000000044500000000004420000000000441000000000044200040000000000000010900000000000004850500000000000000009999123100000010000000000000BRWHRLACNPR2129
012024101402WIZC3       010WIZ CO      ON      NM   R$  000000000060000000000006100000000000596000000000060200000000006100000000000605000000000061001529000000000000424300000000000255644500000000000000009999123100000010000000000000BRWIZCACNOR5102
012024101402WLMM4       010WLM IND COM PN           R$  000000000323400000000032360000000003230000000000323300000000032300000000003131000000000323000007000000000000000800000000000002586700000000000000009999123100000010000000000000BRWLMMACNPR3119
012024101402BRAV3       010BRAVA       ON      NM   R$  000000000172000000000017520000000001707000000000173000000000017280000000001727000000000172808515000000000003672400000000006355034300000000000000009999123100000010000000000000BRBRAVACNOR3100
012024101402PORT3       010WILSON SONS ON      NM   R$  000000000164100000000016480000000001615000000000162500000000016250000000001623000000000162504557000000000000988900000000001607934900000000000000009999123100000010000000000000BRPORTACNOR8109
012024101402POSI3       010POSITIVO TECON      NM   R$  000000000059100000000006110000000000587000000000060100000000006060000000000605000000000060603148000000000001529800000000000920323000000000000000009999123100000010000000000000BRPOSIACNOR9116
012024101402PRIO3       010PETRORIO    ON      NM   R$  000000000437000000000044260000000004343000000000438000000000043430000000004343000000000434523528000000000006977900000000030565961300000000000000009999123100000010000000000000BRPRIOACNOR1107
012024101402USIM3       010USIMINAS    ON      N1   R$  000000000060900000000006200000000000602000000000061300000000006200000000000617000000000062000950000000000000302700000000000185826500000000000000009999123100000010000000000000BRUSIMACNOR3167
012024101402USIM5       010USIMINAS    PNA     N1   R$  000000000062600000000006320000000000619000000000062500000000006270000000000627000000000062809042000000000008452500000000005290242100000000000000009999123100000010000000000000BRUSIMACNPA6169
012024101402GEPA3       010GER PARANAP ON  ED       R$  000000000268000000000026800000000002680000000000268000000000026800000000002680000000000287900001000000000000000100000000000000268000000000000000009999123100000010000000000000BRGEPAACNOR2154
012024101402GEPA4       010GER PARANAP PN  ED       R$  000000000283300000000029300000000002775000000000284500000000029300000000002776000000000293000015000000000000001500000000000004268500000000000000009999123100000010000000000000BRGEPAACNPR9161
012024101402GFSA3       010GAFISA      ON      NM   R$  000000000019000000000002000000000000190000000000019400000000001930000000000193000000000019402736000000000006143700000000001191901800000000000000009999123100000010000000000000BRGFSAACNOR3125
012024101402GGBR3       010GERDAU      ON      N1   R$  000000000164600000000016530000000001609000000000162900000000016460000000001646000000000165900189000000000000026800000000000043673200000000000000009999123100000010000000000000BRGGBRACNOR1193
012024101402GGBR4       010GERDAU      PN      N1   R$  000000000183100000000018570000000001812000000000183400000000018460000000001846000000000185223667000000000017232500000000031615114200000000000000009999123100000010000000000000BRGGBRACNPR8193
012024101402ITSA4       010ITAUSA      PN      N1   R$  000000000104500000000010620000000001044000000000105400000000010560000000001056000000000105823444000000000019024500000000020054811300000000000000009999123100000010000000000000BRITSAACNPR7443
012024101402ITUB3       010ITAUUNIBANCOON      N1   R$  000000000301700000000030420000000003017000000000303000000000030320000000003027000000000303301323000000000000273000000000000827451600000000000000009999123100000010000000000000BRITUBACNOR4342
012024101402MILS3       010MILLS       ON      NM   R$  000000000106200000000010820000000001050000000000106400000000010680000000001068000000000106906518000000000002138600000000002277546600000000000000009999123100000010000000000000BRMILSACNOR2128
012024101402MLAS3       010MULTILASER  ON      NM   R$  000000000016200000000001640000000000158000000000016200000000001620000000000162000000000016302538000000000001794800000000000291489200000000000000009999123100000010000000000000BRMLASACNOR9101
012024101402MNPR3       010MINUPAR     ON           R$  000000000188200000000019370000000001862000000000188700000000018620000000001862000000000190100027000000000000006200000000000011699800000000000000009999123100000010000000000000BRMNPRACNOR5122
012024101402TTEN3       0103TENTOS     ON      NM   R$  000000000106600000000010740000000001047000000000106100000000010570000000001056000000000105705379000000000001085400000000001152050900000000000000009999123100000010000000000000BRTTENACNOR0103
012024101402TUPY3       010TUPY        ON      NM   R$  000000000243900000000024450000000002406000000000242500000000024210000000002421000000000243302843000000000000445400000000001080317600000000000000009999123100000010000000000000BRTUPYACNOR1184
012024101402UCAS3       010UNICASA     ON      NM   R$  000000000021400000000002160000000000212000000000021400000000002120000000000212000000000021400066000000000000020900000000000004477300000000000000009999123100000010000000000000BRUCASACNOR1113
012024101402UGPA3       010ULTRAPAR    ON      NM   R$  000000000208000000000020970000000002049000000000207900000000020970000000002079000000000209710911000000000003832900000000007970512300000000000000009999123100000010000000000000BRUGPAACNOR8156
012024101402BAHI3       010BAHEMA      ON      MA   R$  000000000054900000000005490000000000500000000000050800000000005130000000000451000000000051500041000000000000017100000000000008697500000000000000009999123100000010000000000000BRBAHIACNOR1074
012024101402BALM4       010BAUMER      PN           R$  000000000102000000000010200000000001020000000000102000000000010200000000001001000000000102000002000000000000000200000000000000204000000000000000009999123100000010000000000000BRBALMACNPR2056
012024101402BAUH4       010EXCELSIOR   PN           R$  000000000789800000000078980000000007898000000000789800000000078980000000000000000000000789800002000000000000000200000000000001579600000000000000009999123100000010000000000000BRBAUHACNPR3118
012024101402BAZA3       010AMAZONIA    ON           R$  000000000918000000000092950000000009179000000000921900000000092300000000009230000000000935000013000000000000001400000000000012907400000000000000009999123100000010000000000000BRBAZAACNOR0179
012024101402BBAS3       010BRASIL      ON      NM   R$  000000000264100000000026580000000002628000000000264600000000026520000000002651000000000265325214000000000011953100000000031631046100000000000000009999123100000010000000000000BRBBASACNOR3326
012024101402UNIP3       010UNIPAR      ON           R$  000000000461400000000046830000000004613000000000465300000000046830000000004630000000000468400028000000000000003600000000000016751700000000000000009999123100000010000000000000BRUNIPACNOR7206
012024101402UNIP5       010UNIPAR      PNA          R$  000000000480000000000048000000000004800000000000480000000000048000000000004740000000000484900006000000000000000800000000000003840000000000000000009999123100000010000000000000BRUNIPACNPA0208
012024101402UNIP6       010UNIPAR      PNB          R$  000000000465700000000047000000000004610000000000466700000000046700000000004670000000000468500845000000000000114700000000000535355800000000000000009999123100000010000000000000BRUNIPACNPB8206
012024101402VITT3       010VITTIA      ON      NM   R$  000000000056600000000005700000000000555000000000056200000000005610000000000561000000000056401116000000000000481600000000000271043200000000000000009999123100000010000000000000BRVITTACNOR4107
012024101402VIVA3       010VIVARA S.A. ON      NM   R$  000000000269500000000027070000000002633000000000267700000000026800000000002680000000000268511133000000000002299100000000006156269600000000000000009999123100000010000000000000BRVIVAACNOR0107
012024101402VIVR3       010VIVER       ON      NM   R$  000000000018400000000001840000000000177000000000017900000000001790000000000178000000000017900119000000000000089100000000000016033300000000000000009999123100000010000000000000BRVIVRACNOR4123
012024101402VIVT3       010TELEF BRASILON           R$  000000000526400000000053260000000005256000000000529000000000053190000000005312000000000532014000000000000003336200000000017651419700000000000000009999123100000010000000000000BRVIVTACNOR0184
012024101402VLID3       010VALID       ON      NM   R$  000000000212000000000021200000000002014000000000205100000000020600000000002048000000000206104484000000000000660000000000001354004000000000000000009999123100000010000000000000BRVLIDACNOR5144
012024101402JSLG3       010JSL         ON      NM   R$  000000000076000000000007700000000000750000000000076000000000007670000000000765000000000076702680000000000000484200000000000368135100000000000000009999123100000010000000000000BRJSLGACNOR2121
012024101402KEPL3       010KEPLER WEBERON      NM   R$  000000000094200000000009430000000000922000000000093000000000009290000000000929000000000093003422000000000001194900000000001111431700000000000000009999123100000010000000000000BRKEPLACNOR1064
012024101402KLBN11      010KLABIN S/A  UNT     N2   R$  000000000201500000000020210000000001990000000000200700000000020170000000002017000000000201814174000000000005072900000000010183104700000000000000009999123100000010000000000000BRKLBNCDAM18143
012024101402KLBN3       010KLABIN S/A  ON      N2   R$  000000000040400000000004060000000000398000000000040100000000004030000000000403000000000040701434000000000000595800000000000239202900000000000000009999123100000010000000000000BRKLBNACNOR2171
012024101402KLBN4       010KLABIN S/A  PN      N2   R$  000000000040400000000004050000000000399000000000040100000000004050000000000404000000000040503827000000000003452400000000001387278100000000000000009999123100000010000000000000BRKLBNACNPR9171
012024101402ODPV3       010ODONTOPREV  ON      NM   R$  000000000102500000000010490000000001014000000000102700000000010230000000001023000000000102906870000000000001531700000000001574018800000000000000009999123100000010000000000000BRODPVACNOR4204
012024101402OFSA3       010OUROFINO S/AON      NM   R$  000000000211200000000021210000000002112000000000212000000000021210000000002120000000000216000002000000000000005600000000000011874900000000000000009999123100000010000000000000BROFSAACNOR7118
012024101402ONCO3       010ONCOCLINICASON      NM   R$  000000000045300000000004720000000000445000000000046100000000004650000000000465000000000046602935000000000001618100000000000746353600000000000000009999123100000010000000000000BRONCOACNOR6101
012024101402OPCT3       010OCEANPACT   ON      NM   R$  000000000067800000000006970000000000674000000000069000000000006930000000000691000000000069601370000000000000440800000000000304442600000000000000009999123100000010000000000000BROPCTACNOR0100
012024101402ORVR3       010ORIZON      ON      NM   R$  000000000455700000000045900000000004519000000000455400000000045510000000004549000000000457001136000000000000180300000000000821178500000000000000009999123100000010000000000000BRORVRACNOR0101
012024101402PCAR3       010P.ACUCAR-CBDON      NM   R$  000000000032600000000003450000000000323000000000033600000000003270000000000327000000000032826757000000000025609800000000008610945600000000000000009999123100000010000000000000BRPCARACNOR3167
012024101402RANI3       010IRANI       ON      NM   R$  000000000075000000000007560000000000738000000000074700000000007550000000000751000000000075504109000000000001020900000000000762943200000000000000009999123100000010000000000000BRRANIACNOR5073
012024101402RAPT3       010RANDON PART ON      N1   R$  000000000087300000000008940000000000873000000000088400000000008940000000000886000000000089700077000000000000018000000000000015919200000000000000009999123100000010000000000000BRRAPTACNOR7163
012024101402RAPT4       010RANDON PART PN      N1   R$  000000000107200000000011030000000001062000000000108700000000010930000000001091000000000109604487000000000001536800000000001671751400000000000000009999123100000010000000000000BRRAPTACNPR4163
012024101402TGMA3       010TEGMA       ON      NM   R$  000000000261700000000026640000000002583000000000263200000000026460000000002641000000000265401332000000000000212100000000000558348700000000000000009999123100000010000000000000BRTGMAACNOR7145
012024101402TIMS3       010TIM         ON      NM   R$  000000000169700000000017070000000001687000000000169400000000016900000000001689000000000169213397000000000007305700000000012381427400000000000000009999123100000010000000000000BRTIMSACNOR5118
012024101402TOTS3       010TOTVS       ON      NM   R$  000000000280000000000028860000000002776000000000283200000000028270000000002827000000000283511113000000000004748000000000013446745700000000000000009999123100000010000000000000BRTOTSACNOR8145
012024101402TPIS3       010TRIUNFO PARTON      NM   R$  000000000060400000000006180000000000580000000000060000000000006040000000000602000000000060400530000000000000124100000000000074494500000000000000009999123100000010000000000000BRTPISACNOR8118
012024101402TRAD3       010TC          ON      NM   R$  000000000064900000000006790000000000620000000000066100000000006700000000000664000000000067000576000000000000231700000000000153205600000000000000009999123100000010000000000000BRTRADACNOR3102
012024101402BSLI4       010BRB BANCO   PN           R$  000000000085200000000008890000000000852000000000086200000000008640000000000864000000000088900007000000000000001200000000000001035400000000000000009999123100000010000000000000BRBSLIACNPR2194
012024101402B3SA3       010B3          ON      NM   R$  000000000106900000000010980000000001066000000000108200000000010880000000001087000000000108825810000000000035854800000000038825204400000000000000009999123100000010000000000000BRB3SAACNOR6134
012024101402BBSE3       010BBSEGURIDADEON      NM   R$  000000000338500000000034090000000003381000000000339400000000033970000000003393000000000339708489000000000002643400000000008973545800000000000000009999123100000010000000000000BRBBSEACNOR5125
012024101402JHSF3       010JHSF PART   ON      NM   R$  000000000042300000000004360000000000422000000000042900000000004360000000000433000000000043604188000000000002544500000000001091604200000000000000009999123100000010000000000000BRJHSFACNOR2140
012024101402MOVI3       010MOVIDA      ON      NM   R$  000000000055100000000005790000000000550000000000056600000000005710000000000570000000000057407594000000000004767000000000002700093200000000000000009999123100000010000000000000BRMOVIACNOR0122
012024101402ALPA3       010ALPARGATAS  ON      N1   R$  000000000067200000000006740000000000655000000000066700000000006580000000000658000000000069100005000000000000001500000000000001001600000000000000009999123100000010000000000000BRALPAACNOR0231
012024101402ALPA4       010ALPARGATAS  PN      N1   R$  000000000069100000000006990000000000684000000000069200000000006930000000000693000000000069504589000000000001909200000000001322484800000000000000009999123100000010000000000000BRALPAACNPR7232
012024101402ALPK3       010ESTAPAR     ON      NM   R$  000000000026500000000002750000000000264000000000026800000000002670000000000266000000000026700244000000000000199200000000000053503200000000000000009999123100000010000000000000BRALPKACNOR9101
012024101402ALUP11      010ALUPAR      UNT     N2   R$  000000000293000000000029450000000002918000000000293200000000029300000000002928000000000294803864000000000000649900000000001905509600000000000000009999123100000010000000000000BRALUPCDAM15120
012024101402ALUP3       010ALUPAR      ON      N2   R$  000000000100800000000010080000000000997000000000100100000000010000000000000992000000000100000018000000000000001900000000000001903200000000000000009999123100000010000000000000BRALUPACNOR8120
012024101402ALUP4       010ALUPAR      PN      N2   R$  000000000095500000000009740000000000955000000000096400000000009730000000000968000000000097300054000000000000008000000000000007715600000000000000009999123100000010000000000000BRALUPACNPR5120
012024101402AMAR3       010LOJAS MARISAON      NM   R$  000000000010100000000001030000000000101000000000010100000000001020000000000101000000000010200413000000000000141200000000000014354500000000000000009999123100000010000000000000BRAMARACNOR4115
012024101402AMBP3       010AMBIPAR     ON      NM   R$  000000001360000000000138880000000012908000000001335100000000133230000000013280000000001332301349000000000000205100000000002738355100000000000000009999123100000010000000000000BRAMBPACNOR6103
012024101402ANIM3       010ANIMA       ON      NM   R$  000000000023400000000002460000000000231000000000024000000000002450000000000243000000000024509275000000000010804400000000002595548700000000000000009999123100000010000000000000BRANIMACNOR6109
012024101402BEES3       010BANESTES    ON           R$  000000000088400000000008860000000000882000000000088300000000008840000000000881000000000088300074000000000000013200000000000011665500000000000000009999123100000010000000000000BRBEESACNOR9396
012024101402BEES4       010BANESTES    PN           R$  000000000091700000000009260000000000917000000000092200000000009200000000000919000000000092300015000000000000001900000000000001752000000000000000009999123100000010000000000000BRBEESACNPR6321
012024101402FESA4       010FERBASA     PN      N1   R$  000000000076400000000007790000000000762000000000077000000000007720000000000772000000000077502295000000000000615600000000000474404200000000000000009999123100000010000000000000BRFESAACNPR5085
012024101402FHER3       010FER HERINGERON      NM   R$  000000000038000000000003980000000000380000000000038100000000003800000000000376000000000037900017000000000000008400000000000003201000000000000000009999123100000010000000000000BRFHERACNOR5103
012024101402FIEI3       010FICA        ON           R$  000000000115000000000011500000000001150000000000115000000000011500000000000927000000000115000004000000000000002000000000000002300000000000000000009999123100000010000000000000BRFIEIACNOR2100
012024101402BRBI11      010BR PARTNERS UNT     N2   R$  000000000152300000000015330000000001496000000000151100000000014960000000001496000000000150902338000000000000643400000000000972766800000000000000009999123100000010000000000000BRBRBICDAM10110
012024101402BRFS3       010BRF SA      ON      NM   R$  000000000226700000000023180000000002256000000000229300000000022960000000002294000000000230208987000000000002729400000000006260695500000000000000009999123100000010000000000000BRBRFSACNOR8122
012024101402CPLE3       010COPEL       ON      N2   R$  000000000090000000000009090000000000895000000000090500000000009080000000000908000000000090905698000000000002217100000000002006658600000000000000009999123100000010000000000000BRCPLEACNOR8150
012024101402CPLE6       010COPEL       PNB     N2   R$  000000000099900000000010160000000000999000000000100900000000010120000000001012000000000101320085000000000014571500000000014702807200000000000000009999123100000010000000000000BRCPLEACNPB9147
012024101402FIQE3       010UNIFIQUE    ON      NM   R$  000000000038700000000003980000000000381000000000039000000000003920000000000392000000000039301161000000000000442200000000000172783000000000000000009999123100000010000000000000BRFIQEACNOR5107
012024101402FLRY3       010FLEURY      ON      NM   R$  000000000148000000000014850000000001463000000000147600000000014800000000001480000000000148108066000000000002228100000000003289375300000000000000009999123100000010000000000000BRFLRYACNOR5139
012024101402FRAS3       010FRAS-LE     ON      N1   R$  000000000207500000000021120000000002062000000000209500000000021020000000002092000000000210201501000000000000230900000000000483773600000000000000009999123100000010000000000000BRFRASACNOR0160
012024101402FRIO3       010METALFRIO   ON      NM   R$  000000000864600000000102000000000008646000000000980100000000102000000000010200000000001120000012000000000000001300000000000012741600000000000000009999123100000010000000000000BRFRIOACNOR2111
012024101402BGIP4       010BANESE      PN           R$  000000000240000000000024000000000002380000000000239300000000023800000000002360000000000242000005000000000000000900000000000002154100000000000000009999123100000010000000000000BRBGIPACNPR8210
012024101402BHIA3       010CASAS BAHIA ON      NM   R$  000000000042600000000004570000000000425000000000044100000000004480000000000446000000000044803139000000000002428300000000001071141700000000000000009999123100000010000000000000BRBHIAACNOR1102
012024101402BPAN4       010BANCO PAN   PN      N1   R$  000000000094700000000009620000000000936000000000094500000000009560000000000954000000000095704039000000000002987400000000002823449500000000000000009999123100000010000000000000BRBPANACNPR1115
012024101402GRND3       010GRENDENE    ON      NM   R$  000000000054600000000005460000000000538000000000054200000000005460000000000543000000000054602929000000000000835000000000000452817000000000000000009999123100000010000000000000BRGRNDACNOR3175
012024101402GUAR3       010GUARARAPES  ON      NM   R$  000000000083200000000008400000000000812000000000082600000000008220000000000821000000000082705038000000000001383500000000001143766700000000000000009999123100000010000000000000BRGUARACNOR4173
012024101402LPSB3       010LOPES BRASILON      NM   R$  000000000017000000000001730000000000170000000000017100000000001730000000000171000000000017300116000000000000034900000000000006000300000000000000009999123100000010000000000000BRLPSBACNOR0114
012024101402LREN3       010LOJAS RENNERON      NM   R$  000000000187900000000018910000000001841000000000187100000000018910000000001891000000000189222331000000000012808900000000023967894400000000000000009999123100000010000000000000BRLRENACNOR1222
012024101402ATOM3       010ATOMPAR     ON           R$  000000000027300000000002730000000000257000000000026300000000002690000000000265000000000027000084000000000000031500000000000008297000000000000000009999123100000010000000000000BRATOMACNOR1106
012024101402AURE3       010AUREN       ON      NM   R$  000000000100600000000010210000000001006000000000101400000000010150000000001014000000000101506575000000000003961500000000004018620300000000000000009999123100000010000000000000BRAUREACNOR9104
012024101402AVLL3       010ALPHAVILLE  ON      NM   R$  000000000031600000000003160000000000309000000000030900000000003110000000000291000000000031100008000000000000023100000000000007144600000000000000009999123100000010000000000000BRAVLLACNOR5103
012024101402AZEV3       010AZEVEDO     ON           R$  000000000012600000000001330000000000123000000000012700000000001310000000000129000000000013100508000000000000912400000000000116671400000000000000009999123100000010000000000000BRAZEVACNOR0121
012024101402AZEV4       010AZEVEDO     PN           R$  000000000012400000000001330000000000123000000000012800000000001310000000000131000000000013201436000000000002787600000000000358222700000000000000009999123100000010000000000000BRAZEVACNPR7121
012024101402AZUL4       010AZUL        PN      N2   R$  000000000059300000000006060000000000580000000000059400000000006060000000000604000000000060610813000000000020492900000000012176116100000000000000009999123100000010000000000000BRAZULACNPR4103
012024101402BBDC3       010BRADESCO    ON      N1   R$  000000000130000000000013210000000001297000000000131000000000013170000000001316000000000131706430000000000003830100000000005018214800000000000000009999123100000010000000000000BRBBDCACNOR1776
012024101402BBDC4       010BRADESCO    PN      N1   R$  000000000147900000000015080000000001478000000000149800000000015020000000001502000000000150437734000000000022762100000000034106536500000000000000009999123100000010000000000000BRBBDCACNPR8776
012024101402BMEB3       010MERCANTIL   ON      N1   R$  000000000394000000000039400000000003671000000000378100000000036710000000003000000000000380000009000000000000001100000000000004159500000000000000009999123100000010000000000000BRBMEBACNOR8206
012024101402BMEB4       010MERCANTIL   PN      N1   R$  000000000395600000000039560000000003930000000000394000000000039500000000003947000000000395000127000000000000015800000000000062265300000000000000009999123100000010000000000000BRBMEBACNPR5211
012024101402BMGB4       010BANCO BMG   PN      N1   R$  000000000042400000000004380000000000416000000000042900000000004350000000000435000000000043702318000000000001126400000000000483970600000000000000009999123100000010000000000000BRBMGBACNPR0110
012024101402BMKS3       010BIC MONARK  ON           R$  000000003099900000000309990000000030411000000003065900000000309980000000030414000000003099800007000000000000000037000000000001134401000000000000009999123100000010000000000000BRBMKSACNOR9166
012024101402BMOB3       010BEMOBI TECH ON      NM   R$  000000000144200000000014590000000001406000000000143700000000014470000000001438000000000144801597000000000000209600000000000301363600000000000000009999123100000010000000000000BRBMOBACNOR7103
012024101402BOBR4       010BOMBRIL     PN           R$  000000000023700000000002430000000000231000000000023800000000002360000000000236000000000023900219000000000000094700000000000022539000000000000000009999123100000010000000000000BRBOBRACNPR3128
012024101402CPFE3       010CPFL ENERGIAON      NM   R$  000000000325400000000032850000000003243000000000326500000000032670000000003266000000000326705220000000000001050000000000003429019100000000000000009999123100000010000000000000BRCPFEACNOR0137
012024101402EGIE3       010ENGIE BRASILON      NM   R$  000000000405900000000040920000000004046000000000407100000000040750000000004074000000000408206009000000000001210100000000004927211700000000000000009999123100000010000000000000BREGIEACNOR9127
012024101402GGPS3       010GPS         ON      NM   R$  000000000180200000000018350000000001769000000000181400000000018240000000001824000000000183405773000000000001748300000000003171538500000000000000009999123100000010000000000000BRGGPSACNOR9103
012024101402HAGA3       010HAGA S/A    ON           R$  000000000025100000000002560000000000244000000000025000000000002530000000000246000000000025300066000000000000040100000000000010038900000000000000009999123100000010000000000000BRHAGAACNOR7103
012024101402HAGA4       010HAGA S/A    PN           R$  000000000011800000000001220000000000117000000000011900000000001200000000000117000000000011900044000000000000052100000000000006205400000000000000009999123100000010000000000000BRHAGAACNPR4103
012024101402HAPV3       010HAPVIDA     ON  ATZ NM   R$  000000000038700000000003920000000000382000000000038600000000003850000000000385000000000038637037000000000069614300000000026936716600000000000000009999123100000010000000000000BRHAPVACNOR4115
012024101402LOGG3       010LOG COM PROPON      NM   R$  000000000218300000000022620000000002177000000000222200000000022290000000002228000000000222901725000000000000222800000000000495119400000000000000009999123100000010000000000000BRLOGGACNOR7107
012024101402LOGN3       010LOG-IN      ON      NM   R$  000000000300200000000031720000000003002000000000308100000000031190000000003081000000000312000155000000000000019400000000000059773100000000000000009999123100000010000000000000BRLOGNACNOR3105
012024101402CRFB3       010CARREFOUR BRON      NM   R$  000000000073900000000007590000000000720000000000073800000000007420000000000741000000000074417508000000000014174500000000010465445500000000000000009999123100000010000000000000BRCRFBACNOR2116
012024101402EKTR4       010ELEKTRO     PN           R$  000000000453500000000045350000000004535000000000453500000000045350000000004311000000000453500001000000000000000100000000000000453500000000000000009999123100000010000000000000BREKTRACNPR7165
012024101402ELET3       010ELETROBRAS  ON      N1   R$  000000000382400000000039060000000003818000000000387600000000038920000000003891000000000389223131000000000008025900000000031116060500000000000000009999123100000010000000000000BRELETACNOR6160
012024101402ELET6       010ELETROBRAS  PNB     N1   R$  000000000422300000000043050000000004214000000000428000000000042870000000004286000000000428705255000000000001049400000000004492207500000000000000009999123100000010000000000000BRELETACNPB7077
012024101402IGTI11      010IGUATEMI S.AUNT     N1   R$  000000000212900000000021440000000002103000000000212600000000021320000000002130000000000213407103000000000001381000000000002936192600000000000000009999123100000010000000000000BRIGTICDAM16106
012024101402IGTI3       010IGUATEMI S.AON      N1   R$  000000000025500000000002600000000000255000000000025700000000002600000000000258000000000026000048000000000000023300000000000005991900000000000000009999123100000010000000000000BRIGTIACNOR8106
012024101402IGTI4       010IGUATEMI S.APN      N1   R$  000000000092700000000009400000000000927000000000093300000000009400000000000881000000000105000002000000000000000200000000000000186700000000000000009999123100000010000000000000BRIGTIACNPR5106
012024101402INEP3       010INEPAR      ON           R$  000000000017800000000001850000000000173000000000017800000000001730000000000173000000000017900087000000000000026200000000000004689700000000000000009999123100000010000000000000BRINEPACNOR1143
012024101402INEP4       010INEPAR      PN           R$  000000000017200000000001770000000000172000000000017500000000001750000000000175000000000017700044000000000000021800000000000003820700000000000000009999123100000010000000000000BRINEPACNPR8143
012024101402INTB3       010INTELBRAS   ON      NM   R$  000000000201800000000020710000000002011000000000204600000000020470000000002045000000000205703411000000000000527600000000001079519200000000000000009999123100000010000000000000BRINTBACNOR9112
012024101402IRBR3       010IRBBRASIL REON      NM   R$  000000000433900000000044310000000004310000000000438300000000044000000000004393000000000440106046000000000000987800000000004329626500000000000000009999123100000010000000000000BRIRBRACNOR4111
012024101402AALR3       010ALLIAR      ON      NM   R$  000000000150000000000015150000000001446000000000148000000000014700000000001470000000000147300141000000000000019300000000000028567500000000000000009999123100000010000000000000BRAALRACNOR6102
012024101402ABCB4       010ABC BRASIL  PN      N2   R$  000000000210100000000021350000000002093000000000211500000000021160000000002116000000000212502711000000000000485400000000001026621300000000000000009999123100000010000000000000BRABCBACNPR4146
012024101402ABEV3       010AMBEV S/A   ON           R$  000000000128600000000012970000000001284000000000129200000000012920000000001291000000000129222824000000000021045900000000027194709900000000000000009999123100000010000000000000BRABEVACNOR1128
012024101402AERI3       010AERIS       ON      NM   R$  000000000061900000000006630000000000616000000000064400000000006460000000000645000000000064601129000000000000327000000000000210795800000000000000009999123100000010000000000000BRAERIACNOR4102
012024101402AESB3       010AES BRASIL  ON      NM   R$  000000000117300000000011770000000001173000000000117400000000011750000000001175000000000117602885000000000005548500000000006516897700000000000000009999123100000010000000000000BRAESBACNOR7107
012024101402AGRO3       010BRASILAGRO  ON      NM   R$  000000000247400000000025230000000002467000000000249600000000025000000000002499000000000251401279000000000000203200000000000507223200000000000000009999123100000010000000000000BRAGROACNOR7114
012024101402AHEB3       010SPTURIS     ON           R$  000000000380000000000038000000000003800000000000380000000000038000000000003300000000000380000001000000000000000100000000000000380000000000000000009999123100000010000000000000BRAHEBACNOR0106
012024101402ALLD3       010ALLIED      ON      NM   R$  000000000076800000000007750000000000750000000000076300000000007620000000000761000000000077000286000000000000061100000000000046661000000000000000009999123100000010000000000000BRALLDACNOR3106
012024101402ALOS3       010ALLOS       ON  ED  NM   R$  000000000221100000000022470000000002188000000000222600000000022320000000002231000000000223309420000000000002902400000000006461098800000000000000009999123100000010000000000000BRALOSACNOR5102
012024101402CGAS5       010COMGAS      PNA          R$  000000001270100000000129890000000012650000000001276000000000129890000000012700000000001299000004000000000000000400000000000005104000000000000000009999123100000010000000000000BRCGASACNPA3161
012024101402CGRA3       010GRAZZIOTIN  ON           R$  000000000251500000000025680000000002505000000000253600000000025600000000002505000000000256900012000000000000002000000000000005073900000000000000009999123100000010000000000000BRCGRAACNOR2083
012024101402CGRA4       010GRAZZIOTIN  PN           R$  000000000252200000000025250000000002517000000000252100000000025170000000002510000000000252000004000000000000000400000000000001008400000000000000009999123100000010000000000000BRCGRAACNPR9083
012024101402CLSA3       010CLEARSALE   ON      NM   R$  000000000095400000000009580000000000944000000000095000000000009470000000000946000000000094804904000000000002741000000000002605749700000000000000009999123100000010000000000000BRCLSAACNOR0100
012024101402CLSC3       010CELESC      ON      N2   R$  000000000745000000000074500000000007401000000000744500000000074010000000007401000000000745000003000000000000001200000000000008935100000000000000009999123100000010000000000000BRCLSCACNOR6153
012024101402CXSE3       010CAIXA SEGURION      NM   R$  000000000142300000000014510000000001423000000000144200000000014400000000001439000000000144210735000000000004506000000000006498880600000000000000009999123100000010000000000000BRCXSEACNOR7107
012024101402ESPA3       010ESPACOLASER ON      NM   R$  000000000009600000000000980000000000095000000000009600000000000980000000000096000000000009800219000000000000228200000000000022042600000000000000009999123100000010000000000000BRESPAACNOR7103
012024101402ESTR4       010ESTRELA     PN           R$  000000000035000000000003500000000000350000000000035000000000003500000000000352000000000039800002000000000000000300000000000000105000000000000000009999123100000010000000000000BRESTRACNPR0144
012024101402ETER3       010ETERNIT     ON      NM   R$  000000000056000000000005610000000000553000000000055700000000005610000000000558000000000056100470000000000000133100000000000074239900000000000000009999123100000010000000000000BRETERACNOR3244
012024101402EUCA3       010EUCATEX     ON      N1   R$  000000000162000000000016200000000001615000000000161800000000016150000000001615000000000171900003000000000000000300000000000000485500000000000000009999123100000010000000000000BREUCAACNOR1157
012024101402EUCA4       010EUCATEX     PN      N1   R$  000000000149300000000015130000000001467000000000148900000000014970000000001496000000000149700248000000000000057600000000000085815500000000000000009999123100000010000000000000BREUCAACNPR8044
012024101402EVEN3       010EVEN        ON  ED  NM   R$  000000000062200000000006540000000000622000000000064400000000006500000000000648000000000065105085000000000001533500000000000988887700000000000000009999123100000010000000000000BREVENACNOR8120
012024101402EZTC3       010EZTEC       ON      NM   R$  000000000142500000000014380000000001385000000000141400000000014220000000001422000000000142707916000000000002654000000000003754941800000000000000009999123100000010000000000000BREZTCACNOR0126
012024101402IFCM3       010INFRACOMM   ON      NM   R$  000000000001600000000000170000000000016000000000001600000000000170000000000016000000000001702357000000000001841700000000000030545400000000000000009999123100000010000000000000BRIFCMACNOR8101
012024101402BEEF3       010MINERVA     ON      NM   R$  000000000055400000000005590000000000542000000000055000000000005550000000000555000000000055614114000000000013825600000000007615780600000000000000009999123100000010000000000000BRBEEFACNOR6116
012024101402BRSR6       010BANRISUL    PNB     N1   R$  000000000111500000000011300000000001109000000000111800000000011280000000001127000000000112804431000000000001057000000000001182469500000000000000009999123100000010000000000000BRBRSRACNPB4192
012024101402VSTE3       010VESTE       ON      NM   R$  000000000100000000000010160000000000997000000000099900000000010090000000000998000000000100700007000000000000002100000000000002099000000000000000009999123100000010000000000000BRVSTEACNOR5103
012024101402VTRU3       010VITRUEDUCA  ON      NM   R$  000000000093400000000009760000000000919000000000094700000000009760000000000962000000000097800437000000000000121500000000000115131600000000000000009999123100000010000000000000BRVTRUACNOR3100
012024101402VULC3       010VULCABRAS   ON      NM   R$  000000000163500000000016790000000001632000000000165800000000016600000000001660000000000166102887000000000000422400000000000700687700000000000000009999123100000010000000000000BRVULCACNOR2162
012024101402VVEO3       010VIVEO       ON      NM   R$  000000000017800000000001850000000000177000000000018000000000001790000000000179000000000018102549000000000002168600000000000391464300000000000000009999123100000010000000000000BRVVEOACNOR0104
012024101402WEGE3       010WEG         ON      NM   R$  000000000541700000000055040000000005370000000000546100000000055040000000005503000000000550416753000000000005422800000000029617456400000000000000009999123100000010000000000000BRWEGEACNOR0225
012024101402KRSA3       010KORA SAUDE  ON  EG  NM   R$  000000000045500000000004550000000000424000000000043200000000004240000000000422000000000042400113000000000000061300000000000026509800000000000000009999123100000010000000000000BRKRSAACNOR0101
012024101402LAND3       010TERRASANTAPAON      NM   R$  000000000134000000000013540000000001316000000000133700000000013440000000001335000000000134400130000000000000023800000000000031823300000000000000009999123100000010000000000000BRLANDACNOR9103
012024101402LAVV3       010LAVVI       ON      NM   R$  000000000081500000000008180000000000806000000000081200000000008120000000000811000000000081302562000000000000753400000000000612356500000000000000009999123100000010000000000000BRLAVVACNOR4113
012024101402LEVE3       010METAL LEVE  ON      NM   R$  000000000303000000000030360000000003000000000000301800000000030230000000003023000000000303501854000000000000326400000000000985308300000000000000009999123100000010000000000000BRLEVEACNOR2197
012024101402LJQQ3       010QUERO-QUERO ON      NM   R$  000000000028900000000002980000000000286000000000029200000000002900000000000290000000000029106638000000000005926900000000001731116400000000000000009999123100000010000000000000BRLJQQACNOR5104
012024101402PDGR3       010PDG REALT   ON      NM   R$  000000000000100000000000020000000000001000000000000100000000000010000000000001000000000000200909000000000102676200000000000109855700000000000000009999123100000010000000000000BRPDGRACNOR8119
012024101402PDTC3       010PADTEC      ON      NM   R$  000000000018900000000001890000000000185000000000018700000000001890000000000185000000000018900032000000000000014500000000000002725900000000000000009999123100000010000000000000BRPDTCACNOR3101
012024101402PEAB4       010PAR AL BAHIAPN           R$  000000000490000000000049000000000004900000000000490000000000049000000000000000000000000490000001000000000000000100000000000000490000000000000000009999123100000010000000000000BRPEABACNPR0133
012024101402PETR3       010PETROBRAS   ON      N2   R$  000000000412400000000041600000000004113000000000413800000000041370000000004135000000000413711819000000000005507400000000022791904300000000000000009999123100000010000000000000BRPETRACNOR9206
012024101402PETR4       010PETROBRAS   PN      N2   R$  000000000374700000000037900000000003735000000000376600000000037710000000003770000000000377133351000000000022279000000000083914516100000000000000009999123100000010000000000000BRPETRACNPR6214
012024101402PFRM3       010PROFARMA    ON      NM   R$  000000000057000000000005990000000000560000000000057700000000005990000000000591000000000059900915000000000000656200000000000379003700000000000000009999123100000010000000000000BRPFRMACNOR1116
012024101402PGMN3       010PAGUE MENOS ON      NM   R$  000000000026800000000002850000000000268000000000027700000000002850000000000282000000000028502250000000000000791400000000000219333000000000000000009999123100000010000000000000BRPGMNACNOR8103
012024101402PINE3       010PINE        ON  EJS N2   R$  000000000050200000000005020000000000495000000000049800000000005000000000000500000000000050700028000000000000005700000000000002844000000000000000009999123100000010000000000000BRPINEACNOR1151
012024101402PINE4       010PINE        PN  EJS N2   R$  000000000048800000000005120000000000486000000000049800000000005070000000000506000000000050700958000000000000381400000000000189948600000000000000009999123100000010000000000000BRPINEACNPR8151
012024101402PLAS3       010PLASCAR PARTON           R$  000000000060000000000006000000000000600000000000060000000000006000000000000510000000000066900001000000000000000100000000000000060000000000000000009999123100000010000000000000BRPLASACNOR2106
012024101402PLPL3       010PLANOEPLANO ON      NM   R$  000000000133600000000013800000000001313000000000135400000000013710000000001371000000000137602864000000000000581700000000000787627100000000000000009999123100000010000000000000BRPLPLACNOR5104
012024101402PNVL3       010DIMED       ON  EJ  NM   R$  000000000101500000000010200000000001000000000000101100000000010100000000001010000000000101401353000000000000199200000000000201561800000000000000009999123100000010000000000000BRPNVLACNOR9208
012024101402POMO3       010MARCOPOLO   ON      N2   R$  000000000061000000000006320000000000607000000000062100000000006310000000000628000000000063300726000000000000421700000000000262068100000000000000009999123100000010000000000000BRPOMOACNOR0099
012024101402POMO4       010MARCOPOLO   PN      N2   R$  000000000081100000000008450000000000808000000000083300000000008390000000000838000000000083917224000000000012326900000000010271907900000000000000009999123100000010000000000000BRPOMOACNPR7099
012024101402RCSL3       010RECRUSUL    ON           R$  000000000045700000000004710000000000457000000000046200000000004570000000000457000000000046001239000000000000601500000000000278030200000000000000009999123100000010000000000000BRRCSLACNOR4134
012024101402RCSL4       010RECRUSUL    PN           R$  000000000012400000000001370000000000122000000000012900000000001280000000000128000000000012903306000000000002776100000000000359932800000000000000009999123100000010000000000000BRRCSLACNPR1134
012024101402RDNI3       010RNI         ON      NM   R$  000000000031400000000003240000000000314000000000031900000000003190000000000316000000000032000016000000000000008300000000000002648500000000000000009999123100000010000000000000BRRDNIACNOR9116
012024101402RDOR3       010REDE D OR   ON      NM   R$  000000000299100000000030260000000002960000000000299900000000029970000000002995000000000299813293000000000002685100000000008052811800000000000000009999123100000010000000000000BRRDORACNOR8114
012024101402RECV3       010PETRORECSA  ON      NM   R$  000000000179800000000018180000000001783000000000179600000000017900000000001790000000000179205937000000000001413600000000002539032100000000000000009999123100000010000000000000BRRECVACNOR3107
012024101402REDE3       010REDE ENERGIAON           R$  000000000068800000000006880000000000685000000000068700000000006850000000000685000000000069200013000000000000002400000000000001650400000000000000009999123100000010000000000000BRREDEACNOR7128
012024101402RENT3       010LOCALIZA    ON      NM   R$  000000000415700000000042860000000004093000000000420800000000042460000000004245000000000424821814000000000006389500000000026890197800000000000000009999123100000010000000000000BRRENTACNOR4197
012024101402TRIS3       010TRISUL      ON      NM   R$  000000000049000000000005110000000000490000000000050100000000005020000000000502000000000050701388000000000000404500000000000202659900000000000000009999123100000010000000000000BRTRISACNOR4118
012024101402TRPL3       010TRAN PAULISTON      N1   R$  000000000316700000000031670000000003160000000000316300000000031610000000003150000000000321400008000000000000001100000000000003479800000000000000009999123100000010000000000000BRTRPLACNOR4185
012024101402TRPL4       010TRAN PAULISTPN      N1   R$  000000000247100000000024860000000002451000000000246800000000024840000000002477000000000248509269000000000002093900000000005169710200000000000000009999123100000010000000000000BRTRPLACNPR1185
012024101402VBBR3       010VIBRA       ON      NM   R$  000000000228700000000022970000000002255000000000228300000000022900000000002285000000000229214923000000000009041600000000020646714100000000000000009999123100000010000000000000BRVBBRACNOR1109
012024101402MATD3       010MATER DEI   ON      NM   R$  000000000044500000000004460000000000435000000000043800000000004380000000000437000000000044000873000000000000298400000000000130991100000000000000009999123100000010000000000000BRMATDACNOR4104
012024101402MBLY3       010MOBLY       ON      NM   R$  000000000021500000000002180000000000211000000000021500000000002180000000000216000000000021800190000000000000140900000000000030325300000000000000009999123100000010000000000000BRMBLYACNOR5100
012024101402MDIA3       010M.DIASBRANCOON      NM   R$  000000000250500000000025320000000002488000000000251600000000025220000000002515000000000252203727000000000000685200000000001724617300000000000000009999123100000010000000000000BRMDIAACNOR7136
012024101402MDNE3       010MOURA DUBEUXON      NM   R$  000000000152400000000015710000000001490000000000152700000000015450000000001544000000000154505333000000000000968100000000001478747400000000000000009999123100000010000000000000BRMDNEACNOR9100
012024101402MEAL3       010IMC S/A     ON      NM   R$  000000000013500000000001420000000000135000000000013600000000001370000000000136000000000013700168000000000000325200000000000044381400000000000000009999123100000010000000000000BRMEALACNOR9105
012024101402MELK3       010MELNICK     ON      NM   R$  000000000035600000000003600000000000354000000000035600000000003570000000000356000000000035700540000000000000279700000000000099809900000000000000009999123100000010000000000000BRMELKACNOR8111
012024101402MERC4       010MERC FINANC PN           R$  000000000101000000000010100000000001010000000000101000000000010100000000000870000000000101300001000000000000000100000000000000101000000000000000009999123100000010000000000000BRMERCACNPR9180
012024101402MGEL4       010MANGELS INDLPN           R$  000000000102700000000010270000000000995000000000099800000000010000000000001000000000000102500014000000000000004100000000000004093900000000000000009999123100000010000000000000BRMGELACNPR3147
012024101402MGLU3       010MAGAZ LUIZA ON      NM   R$  000000000094100000000010060000000000930000000000096700000000009800000000000979000000000098026724000000000024673000000000023867751200000000000000009999123100000010000000000000BRMGLUACNOR2125
012024101402PETZ3       010PETZ        ON      NM   R$  000000000049000000000005180000000000486000000000050300000000004980000000000498000000000049912606000000000011090700000000005583399300000000000000009999123100000010000000000000BRPETZACNOR2110
012024101402RAIL3       010RUMO S.A.   ON      NM   R$  000000000191300000000019180000000001893000000000190700000000019100000000001910000000000191419778000000000009679200000000018464225100000000000000009999123100000010000000000000BRRAILACNOR9105
012024101402RAIZ4       010RAIZEN      PN      N2   R$  000000000029400000000002980000000000290000000000029400000000002960000000000296000000000029707537000000000012104800000000003563534300000000000000009999123100000010000000000000BRRAIZACNPR6111
012024101402TAEE11      010TAESA       UNT     N2   R$  000000000341800000000034540000000003418000000000343800000000034450000000003443000000000344707382000000000001325400000000004557266200000000000000009999123100000010000000000000BRTAEECDAM10148
012024101402TAEE3       010TAESA       ON      N2   R$  000000000113900000000011500000000001139000000000114400000000011480000000001146000000000114900271000000000000058500000000000066930800000000000000009999123100000010000000000000BRTAEEACNOR9148
012024101402TAEE4       010TAESA       PN      N2   R$  000000000114700000000011570000000001145000000000115100000000011570000000001156000000000115700444000000000000099700000000000114786100000000000000009999123100000010000000000000BRTAEEACNPR6148
012024101402TASA3       010TAURUS ARMASON      N2   R$  000000000103900000000010500000000001035000000000104300000000010470000000001046000000000106500124000000000000017900000000000018670900000000000000009999123100000010000000000000BRTASAACNOR7104
012024101402TASA4       010TAURUS ARMASPN      N2   R$  000000000100300000000010120000000001000000000000100400000000010000000000001000000000000100701217000000000000255800000000000256906300000000000000009999123100000010000000000000BRTASAACNPR4104
012024101402TCSA3       010TECNISA     ON      NM   R$  000000000017100000000001740000000000171000000000017200000000001720000000000172000000000017300094000000000000037100000000000006399000000000000000009999123100000010000000000000BRTCSAACNOR3112
012024101402TECN3       010TECHNOS     ON      NM   R$  000000000054000000000005550000000000531000000000054300000000005550000000000546000000000055500293000000000000055200000000000029987800000000000000009999123100000010000000000000BRTECNACNOR6109
012024101402TELB3       010TELEBRAS    ON           R$  000000000152500000000015250000000001452000000000147600000000014840000000001437000000000148500005000000000000000500000000000000738400000000000000009999123100000010000000000000BRTELBACNOR2140
012024101402TEND3       010TENDA       ON      NM   R$  000000000134500000000013730000000001326000000000135200000000013580000000001356000000000136005940000000000003163900000000004280593400000000000000009999123100000010000000000000BRTENDACNOR4111
012024101402TFCO4       010TRACK FIELD PN      N2   R$  000000000103500000000010380000000001014000000000102300000000010200000000001020000000000102200734000000000000307500000000000314592500000000000000009999123100000010000000000000BRTFCOACNPR8115
012024101402VAMO3       010VAMOS       ON      NM   R$  000000000056000000000005770000000000546000000000056100000000005660000000000565000000000056713183000000000011109900000000006235867800000000000000009999123100000010000000000000BRVAMOACNOR7105
012024101402MWET4       010WETZEL S/A  PN           R$  000000000091400000000009140000000000914000000000091400000000009140000000000815000000000091000001000000000000000100000000000000091400000000000000009999123100000010000000000000BRMWETACNPR3118
012024101402MYPK3       010IOCHP-MAXIONON      NM   R$  000000000102800000000010650000000001028000000000104400000000010650000000001060000000000106505714000000000001613400000000001684977500000000000000009999123100000010000000000000BRMYPKACNOR7156
012024101407TXRX4       010TEX RENAUX  PN           R$  000000000022500000000002360000000000225000000000023200000000002360000000000227000000000023400008000000000000000900000000000000209100000000000000009999123100000010000000000000BRTXRXACNPR0142
012024101407NUTR3       010NUTRIPLANT  ON      MA   R$  000000000045100000000004510000000000450000000000045000000000004510000000000450000000000045100012000000000000001200000000000000540700000000000000009999123100000010000000000000BRNUTRACNOR0104
012024101408JFEN3       010JOAO FORTES ON           R$  000000000002600000000000270000000000025000000000002500000000000260000000000025000000000002600105000000000000482100000000000012325900000000000000009999123100000010000000000000BRJFENACNOR0059
012024101408NEXP3       010NEXPE       ON           R$  000000000040800000000004080000000000401000000000040400000000004010000000000400000000000040900002000000000000000200000000000000080900000000000000009999123100000010000000000000BRNEXPACNOR0101
012024101408CTSA3       010SANTANENSE  ON           R$  000000000021600000000002160000000000216000000000021600000000002160000000000215000000000025500004000000000000001200000000000000259200000000000000009999123100000010000000000000BRCTSAACNOR3062
012024101408CTSA4       010SANTANENSE  PN           R$  000000000010200000000001020000000000102000000000010200000000001020000000000102000000000011000023000000000000059400000000000006058800000000000000009999123100000010000000000000BRCTSAACNPR0062
012024101408RNEW3       010RENOVA      ON      N2   R$  000000000010900000000001150000000000109000000000011200000000001130000000000111000000000011300097000000000000040700000000000004565600000000000000009999123100000010000000000000BRRNEWACNOR8110
012024101408RNEW4       010RENOVA      PN      N2   R$  000000000011400000000001160000000000110000000000011300000000001160000000000114000000000011600155000000000000125600000000000014243400000000000000009999123100000010000000000000BRRNEWACNPR5110
012024101408RPMG3       010PET MANGUINHON           R$  000000000030300000000003070000000000294000000000030000000000003070000000000302000000000030700087000000000000019700000000000005924700000000000000009999123100000010000000000000BRRPMGACNOR9194
012024101408RSID3       010ROSSI RESID ON      NM   R$  000000000029800000000003120000000000293000000000029900000000003120000000000296000000000031200108000000000000018300000000000005478100000000000000009999123100000010000000000000BRRSIDACNOR8120
012024101408HOOT4       010HOTEIS OTHONPN           R$  000000000022500000000002250000000000224000000000022400000000002240000000000224000000000022600042000000000000017700000000000003973400000000000000009999123100000010000000000000BRHOOTACNPR9015
012024101408RNEW11      010RENOVA      UNT     N2   R$  000000000034500000000003470000000000334000000000034200000000003450000000000333000000000035000047000000000000011600000000000003974000000000000000009999123100000010000000000000BRRNEWCDAM15110
012024101408OIBR3       010OI          ON      N1   R$  000000000047200000000004760000000000460000000000046600000000004600000000000460000000000046500486000000000000303900000000000141893900000000000000009999123100000010000000000000BROIBRACNOR1112
012024101408OIBR4       010OI          PN      N1   R$  000000000108700000000011410000000001074000000000108400000000010740000000001074000000000113500017000000000000004300000000000004663100000000000000009999123100000010000000000000BROIBRACNPR8111
012024101408OSXB3       010OSX BRASIL  ON      NM   R$  000000000045900000000004930000000000458000000000047200000000004620000000000458000000000048200059000000000000013100000000000006194900000000000000009999123100000010000000000000BROSXBACNOR8109
012024101408AMER3       010AMERICANAS  ON      NM   R$  000000000041600000000004160000000000391000000000039800000000003970000000000397000000000039803464000000000003552700000000001413995500000000000000009999123100000010000000000000BRAMERACNOR6103
012024101408ATMP3       010ATMASA      ON           R$  000000000014300000000001470000000000143000000000014500000000001460000000000143000000000014700016000000000000003300000000000000479000000000000000009999123100000010000000000000BRATMPACNOR8100
012024101408AGXY3       010AGROGALAXY  ON      NM   R$  000000000005300000000000540000000000052000000000005200000000000530000000000052000000000005300190000000000000168200000000000008869500000000000000009999123100000010000000000000BRAGXYACNOR4103
012024101408LIGT3       010LIGHT S/A   ON      NM   R$  000000000063900000000006540000000000629000000000064500000000006470000000000647000000000064901670000000000000449300000000000289811500000000000000009999123100000010000000000000BRLIGTACNOR2124
012024101408PMAM3       010PARANAPANEMAON      NM   R$  000000000013500000000001370000000000130000000000013200000000001310000000000130000000000013100181000000000000146700000000000019400500000000000000009999123100000010000000000000BRPMAMACNOR3040
012024101410EQTL9       010EQUATORIAL  ON  REC NM   R$  000000000314600000000032640000000003146000000000322600000000032400000000003240000000000327600285000000000000074600000000000240715700000000000000009999123100000010000000000000BREQTLR04OR9130
012024101410ZAMP9       010ZAMP S.A.   ON  REC      R$  000000000024500000000002490000000000245000000000024700000000002490000000000230000000000024500004000000000000001500000000000000371500000000000000009999123100000010000000000000BRZAMPR01OR0100
012024101410HBSA1       010HIDROVIAS   DIR ORD NM   R$  000000000000100000000000020000000000001000000000000100000000000020000000000001000000000000200110000000000002922000000000000003231700000000000000009999123100000010000000000000BRHBSAD01OR5100
012024101410CBEE1       010AMPLA ENERG DIR ORD      R$  000000000009900000000001000000000000089000000000009400000000000890000000000012000000000010000009000000000000001100000000000000103700000000000000009999123100000010000000000000BRCBEED07OR5159
012024101410PINE1       010PINE        DIR ORD N2   R$  000000000004800000000000480000000000043000000000004600000000000440000000000040000000000004700011000000000000001300000000000000060600000000000000009999123100000010000000000000BRPINED04OR0150
012024101410PMAM1       010PARANAPANEMADIR ORD NM   R$  000000000000100000000000010000000000001000000000000100000000000010000000000000000000000000100377000000000000681500000000000000681500000000000000009999123100000010000000000000BRPMAMD05OR9039
012024101412BRIM11      010FII BRIO II CI           R$  000000011670000000001168000000000110000000000011474500000001100000000000109700000000011600000022000000000000000052000000000005966785000000000000009999123100000010000000000000BRBRIMCTF008131
012024101412BRIP11      010FII BRIO IIICI  ER       R$  000000009498700000000949880000000094987000000009498700000000949880000000090100000000009498800004000000000000000007000000000000664914000000000000009999123100000010000000000000BRBRIPCTF001117
012024101412BROF11      010FII BROF    CI           R$  000000000460200000000047300000000004602000000000466800000000046680000000004668000000000472400160000000000000001211000000000005653854000000000000009999123100000010000000000000BRBROFCTF000117
012024101412HTMX11      010FII HOTEL MXCI           R$  000000001969700000000197690000000019501000000001957000000000195630000000019516000000001956300834000000000000003572000000000069905113000000000000009999123100000010000000000000BRHTMXCTF000284
012024101412HUCG11      010FII UNIMED CCI           R$  000000000835200000000083530000000008352000000000835200000000083530000000008360000000000940300002000000000000000002000000000000016705000000000000009999123100000010000000000000BRHUCGCTF004120
012024101412HUSC11      010FII H UNIMEDCI           R$  000000001090000000000109010000000010900000000001090000000000109010000000010715000000001199100002000000000000000007000000000000076306000000000000009999123100000010000000000000BRHUSCCTF009156
012024101412IBCR11      010FII BREI    CI  ER       R$  000000000600300000000060500000000006000000000000600700000000060000000000006000000000000601800115000000000000002333000000000014016596000000000000009999123100000010000000000000BRIBCRCTF009141
012024101412JFLL11      010FII JFL LIV CI           R$  000000000702400000000070700000000007024000000000703000000000070440000000007033000000000704400086000000000000001094000000000007691808000000000000009999123100000010000000000000BRJFLLCTF002144
012024101412NEWL11      010FII NEWPORT CI           R$  000000001088000000000109650000000010880000000001090600000000109000000000010899000000001090000132000000000000000757000000000008256489000000000000009999123100000010000000000000BRNEWLCTF004159
012024101412NEWU11      010FII NEWRU   CI           R$  000000000744200000000078020000000007400000000000773400000000077940000000007301000000000779400018000000000000000255000000000001972191000000000000009999123100000010000000000000BRNEWUCTF005125
012024101412NSLU11      010FII LOURDES CI           R$  000000001750200000000175030000000017089000000001745300000000175020000000017331000000001749900040000000000000000118000000000002059546000000000000009999123100000010000000000000BRNSLUCTF008315
012024101412HSLG11      010FII HSI LOG CI           R$  000000000788000000000081790000000007880000000000801600000000080560000000008057000000000809902444000000000000013464000000000107931952000000000000009999123100000010000000000000BRHSLGCTF009146
012024101412HSML11      010FII HSI MALLCI           R$  000000000863000000000087350000000008627000000000865700000000086400000000008637000000000864005575000000000000043232000000000374289557000000000000009999123100000010000000000000BRHSMLCTF007165
012024101412HSRE11      010FII HSIRENDACI           R$  000000000967200000000096720000000009504000000000959100000000095990000000009503000000000987200003000000000000000003000000000000028775000000000000009999123100000010000000000000BRHSRECTF001145
012024101412LSPA11      010FII LESTE PACI           R$  000000000333000000000039990000000003200000000000330500000000032350000000003200000000000359800055000000000000000262000000000000866033000000000000009999123100000010000000000000BRLSPACTF005143
012024101412LVBI11      010FII VBI LOG CI           R$  000000001043600000000107900000000010323000000001065400000000105350000000010535000000001057306752000000000000064482000000000687047775000000000000009999123100000010000000000000BRLVBICTF002173
012024101412CTXT11      010FII C TEXTILCI           R$  000000000072800000000007280000000000713000000000071700000000007170000000000717000000000074800041000000000000001454000000000001042682000000000000009999123100000010000000000000BRCTXTCTF014207
012024101412CVBI11      010FII VBI CRI CI  ER       R$  000000000873900000000087910000000008646000000000871500000000087080000000008708000000000873802958000000000000024919000000000217173032000000000000009999123100000010000000000000BRCVBICTF001170
012024101412EMET11      010FII EMET    CI           R$  000000000099100000000010000000000000990000000000099100000000010000000000000900000000000100000129000000000000005600000000000005550000000000000000009999123100000010000000000000BREMETCTF007100
012024101412EQIR11      010FII EQI RECECI           R$  000000000087200000000009340000000000860000000000088300000000009000000000000899000000000090001702000000000000135200000000000119414537000000000000009999123100000010000000000000BREQIRCTF003136
012024101412SNCI11      010FII SUNO CRICI           R$  000000000905900000000091410000000009059000000000909700000000090990000000009096000000000910000666000000000000009753000000000088730171000000000000009999123100000010000000000000BRSNCICTF002139
012024101412SNEL11      010FII SUNO EL CI           R$  000000000093100000000009650000000000914000000000092900000000009200000000000920000000000092102366000000000000241927000000000224828755000000000000009999123100000010000000000000BRSNELCTF010112
012024101412SNFF11      010FII SUNOFOFICI           R$  000000000875400000000087980000000008739000000000876000000000087890000000008785000000000878900697000000000000008945000000000078362065000000000000009999123100000010000000000000BRSNFFCTF001142
012024101412SNLG11      010FII SUNO LG CI           R$  000000000306000000000030600000000002960000000000301200000000030150000000002996000000000301500089000000000000001008000000000003036317000000000000009999123100000010000000000000BRSNLGCTF007107
012024101412SNME11      010FII SNME    CI           R$  000000000094800000000009660000000000948000000000096400000000009650000000000965000000000096600084000000000000001536000000000001480931000000000000009999123100000010000000000000BRSNMECTF000110
012024101412SPTW11      010FII SP DOWNTCI           R$  000000000369200000000037120000000003680000000000369700000000037050000000003691000000000370600252000000000000001609000000000005949786000000000000009999123100000010000000000000BRSPTWCTF002239
012024101412SARE11      010FII SANT RENCI           R$  000000000390800000000039650000000003831000000000390400000000039110000000003911000000000395101998000000000000027951000000000109123915000000000000009999123100000010000000000000BRSARECTF006160
012024101412XPIN11      010FII XP INDL CI           R$  000000000722000000000072790000000007220000000000725400000000072480000000007248000000000725000599000000000000006641000000000048174838000000000000009999123100000010000000000000BRXPINCTF004177
012024101412XPLG11      010FII XP LOG  CI           R$  000000000966700000000097500000000009651000000000969900000000096800000000009680000000000968308019000000000000056671000000000549702961000000000000009999123100000010000000000000BRXPLGCTF002182
012024101412XPML11      010FII XP MALLSCI           R$  000000001052200000000106500000000010521000000001060700000000105800000000010580000000001059916892000000000000108080000000001146504059000000000000009999123100000010000000000000BRXPMLCTF000188
012024101412XPPR11      010FII XP PROP CI           R$  000000000156500000000015810000000001565000000000156500000000015670000000001565000000000156700443000000000000006662000000000010429038000000000000009999123100000010000000000000BRXPPRCTF000159
012024101412XPSF11      010FII XP SELECCI           R$  000000000068100000000006820000000000680000000000068100000000006810000000000681000000000068203309000000000000116118000000000079152260000000000000009999123100000010000000000000BRXPSFCTF009160
012024101412ZAGH11      010FII ZAGH    CI  ER       R$  000000000120500000000012050000000001200000000000120400000000012000000000001200000000000120500004000000000000000005000000000000006020000000000000009999123100000010000000000000BRZAGHCTF007109
012024101412ZAVI11      010FII ZAVIT R CI           R$  000000001081800000000109440000000010818000000001084300000000109430000000010819000000001093500090000000000000000237000000000002569792000000000000009999123100000010000000000000BRZAVICTF004125
012024101412RNGO11      010FII RIONEGROCI           R$  000000000470000000000047400000000004696000000000470200000000047000000000004700000000000472200165000000000000002486000000000011689906000000000000009999123100000010000000000000BRRNGOCTF003247
012024101412RPRI11      010FII RBR PR  CI           R$  000000000884800000000088480000000008582000000000872200000000086880000000008671000000000873500046000000000000001335000000000011644505000000000000009999123100000010000000000000BRRPRICTF007132
012024101412RRCI11      010FII RBCAP RICI           R$  000000000763600000000076360000000007450000000000746600000000074510000000007451000000000747500426000000000000000651000000000004860411000000000000009999123100000010000000000000BRRRCICTF005146
012024101412RVBI11      010FII VBI REITCI  ER       R$  000000000687000000000069480000000006860000000000689400000000068610000000006861000000000690102269000000000000030556000000000210668351000000000000009999123100000010000000000000BRRVBICTF009156
012024101412RZAK11      010FII RIZA AKNCI           R$  000000000790100000000079500000000007882000000000786200000000079000000000007900000000000791204797000000000000064073000000000503788348000000000000009999123100000010000000000000BRRZAKCTF008147
012024101412RZAT11      010FII ARCTIUM CI           R$  000000000955900000000099820000000009350000000000980600000000098200000000009805000000000982004428000000000000146147000000001433120925000000000000009999123100000010000000000000BRRZATCTF009121
012024101412RZLC11      010FII RZLC    CI  ER       R$  000000010039900000001003990000000100399000000010039900000001003990000000100398000000010039900001000000000000000500000000000050199500000000000000009999123100000010000000000000BRRZLCCTF002101
012024101412RZTR11      010FII RIZA TX CI           R$  000000000879400000000088500000000008600000000000871800000000086920000000008690000000000869211918000000000000090021000000000784836693000000000000009999123100000010000000000000BRRZTRCTF003152
012024101412CRFF11      010FII CX RBRA2CI           R$  000000000765100000000079800000000007528000000000779800000000079800000000007505000000000798000015000000000000000042000000000000327556000000000000009999123100000010000000000000BRCRFFCTF006165
