00COTAHIST.2024BOVESPA 20241008                                                                                                                                                                                                                      
012024100802BRFS3       010BRF SA      ON      NM   R$  000000000227400000000023370000000002270000000000231700000000023190000000002319000000000232512601000000000003563400000000008258705400000000000000009999123100000010000000000000BRBRFSACNOR8122
012024100802CSUD3       010CSU DIGITAL ON  EJ  NM   R$  000000000175400000000017540000000001707000000000171900000000017150000000001715000000000171600181000000000000037300000000000064131300000000000000009999123100000010000000000000BRCSUDACNOR5111
012024100802CURY3       010CURY S/A    ON  ED  NM   R$  000000000224700000000022840000000002226000000000226300000000022480000000002248000000000226708658000000000002539600000000005748046700000000000000009999123100000010000000000000BRCURYACNOR3110
012024100802CVCB3       010CVC BRASIL  ON      NM   R$  000000000018300000000001860000000000181000000000018300000000001840000000000183000000000018405054000000000012311800000000002256288900000000000000009999123100000010000000000000BRCVCBACNOR1116
012024100802BLAU3       010BLAU        ON  EJ  NM   R$  000000000129300000000013210000000001283000000000130600000000013210000000001321000000000132201086000000000000156100000000000203894300000000000000009999123100000010000000000000BRBLAUACNOR8115
012024100802FESA4       010FERBASA     PN      N1   R$  000000000077500000000007760000000000765000000000076900000000007720000000000772000000000077301611000000000000471200000000000362566800000000000000009999123100000010000000000000BRFESAACNPR5085
012024100802FHER3       010FER HERINGERON      NM   R$  000000000038200000000003860000000000381000000000038100000000003820000000000382000000000038500023000000000000003500000000000001335700000000000000009999123100000010000000000000BRFHERACNOR5103
012024100802FIEI3       010FICA        ON           R$  000000000092100000000010000000000000921000000000097700000000010000000000000925000000000129800004000000000000000700000000000000684100000000000000009999123100000010000000000000BRFIEIACNOR2100
012024100802FIQE3       010UNIFIQUE    ON      NM   R$  000000000037900000000003890000000000377000000000038400000000003890000000000387000000000038900493000000000000194700000000000074880300000000000000009999123100000010000000000000BRFIQEACNOR5107
012024100802FLRY3       010FLEURY      ON      NM   R$  000000000149300000000015150000000001492000000000150900000000015150000000001513000000000151508100000000000002624200000000003961263800000000000000009999123100000010000000000000BRFLRYACNOR5139
012024100802FRAS3       010FRAS-LE     ON      N1   R$  000000000210600000000021180000000002076000000000210100000000021010000000002101000000000210901266000000000000220100000000000462431900000000000000009999123100000010000000000000BRFRASACNOR0160
012024100802NTCO3       010GRUPO NATURAON      NM   R$  000000000150100000000015850000000001500000000000156100000000015750000000001575000000000157919947000000000013006200000000020308785800000000000000009999123100000010000000000000BRNTCOACNOR5106
012024100802PETZ3       010PETZ        ON      NM   R$  000000000047600000000004860000000000476000000000048100000000004820000000000482000000000048304935000000000003383800000000001630624100000000000000009999123100000010000000000000BRPETZACNOR2110
012024100802RANI3       010IRANI       ON      NM   R$  000000000076900000000007770000000000766000000000076900000000007670000000000767000000000076802642000000000000986600000000000759386500000000000000009999123100000010000000000000BRRANIACNOR5073
012024100802RAPT3       010RANDON PART ON      N1   R$  000000000088000000000008880000000000872000000000087700000000008880000000000878000000000088800054000000000000013900000000000012194000000000000000009999123100000010000000000000BRRAPTACNOR7163
012024100802RAPT4       010RANDON PART PN      N1   R$  000000000105300000000010650000000001042000000000105700000000010600000000001058000000000106106706000000000002144200000000002267725300000000000000009999123100000010000000000000BRRAPTACNPR4163
012024100802RCSL3       010RECRUSUL    ON           R$  000000000048000000000004900000000000469000000000047700000000004690000000000468000000000046901905000000000001082400000000000516962900000000000000009999123100000010000000000000BRRCSLACNOR4134
012024100802RCSL4       010RECRUSUL    PN           R$  000000000010000000000001190000000000099000000000010600000000001050000000000105000000000010605020000000000003643100000000000387400700000000000000009999123100000010000000000000BRRCSLACNPR1134
012024100802RDNI3       010RNI         ON      NM   R$  000000000031200000000003140000000000305000000000030700000000003050000000000305000000000030800012000000000000001400000000000000430200000000000000009999123100000010000000000000BRRDNIACNOR9116
012024100802RDOR3       010REDE D OR   ON  EJ  NM   R$  000000000300100000000030750000000003001000000000304600000000030610000000003060000000000306118059000000000004607000000000014033395000000000000000009999123100000010000000000000BRRDORACNOR8114
012024100802RECV3       010PETRORECSA  ON      NM   R$  000000000182000000000018380000000001808000000000181800000000018170000000001815000000000181706861000000000001898700000000003452533700000000000000009999123100000010000000000000BRRECVACNOR3107
012024100802REDE3       010REDE ENERGIAON           R$  000000000068500000000006880000000000681000000000068500000000006840000000000684000000000068800012000000000000001800000000000001233100000000000000009999123100000010000000000000BRREDEACNOR7128
012024100802TASA3       010TAURUS ARMASON      N2   R$  000000000106200000000010880000000001046000000000106400000000010860000000001073000000000108600062000000000000010800000000000011494200000000000000009999123100000010000000000000BRTASAACNOR7104
012024100802TASA4       010TAURUS ARMASPN      N2   R$  000000000103800000000010620000000001025000000000104400000000010520000000001050000000000105201331000000000000351300000000000366865700000000000000009999123100000010000000000000BRTASAACNPR4104
012024100802TCSA3       010TECNISA     ON      NM   R$  000000000017500000000001760000000000172000000000017400000000001720000000000172000000000017500252000000000000091700000000000015962000000000000000009999123100000010000000000000BRTCSAACNOR3112
012024100802TECN3       010TECHNOS     ON      NM   R$  000000000049200000000005250000000000492000000000051400000000005250000000000520000000000052500434000000000000149000000000000076594400000000000000009999123100000010000000000000BRTECNACNOR6109
012024100802TELB4       010TELEBRAS    PN           R$  000000000093500000000009400000000000928000000000093200000000009280000000000925000000000094000020000000000000003100000000000002891500000000000000009999123100000010000000000000BRTELBACNPR9140
012024100802TEND3       010TENDA       ON      NM   R$  000000000136400000000013990000000001350000000000137800000000013850000000001385000000000138805465000000000001758900000000002424184900000000000000009999123100000010000000000000BRTENDACNOR4111
012024100802TFCO4       010TRACK FIELD PN  EJ  N2   R$  000000000104100000000010580000000001035000000000104600000000010450000000001040000000000104700500000000000000095400000000000099867100000000000000009999123100000010000000000000BRTFCOACNPR8115
012024100802TGMA3       010TEGMA       ON      NM   R$  000000000261000000000026150000000002583000000000260100000000026000000000002589000000000260200673000000000000086900000000000226076800000000000000009999123100000010000000000000BRTGMAACNOR7145
012024100802TIMS3       010TIM         ON      NM   R$  000000000174000000000017690000000001733000000000175600000000017520000000001752000000000175914954000000000005861100000000010297220600000000000000009999123100000010000000000000BRTIMSACNOR5118
012024100802VAMO3       010VAMOS       ON      NM   R$  000000000056500000000005690000000000558000000000056400000000005680000000000566000000000056813896000000000010046800000000005672728300000000000000009999123100000010000000000000BRVAMOACNOR7105
012024100802VBBR3       010VIBRA       ON      NM   R$  000000000230600000000023380000000002282000000000232100000000023280000000002326000000000233121809000000000008181700000000018992471600000000000000009999123100000010000000000000BRVBBRACNOR1109
012024100802MTRE3       010MITRE REALTYON      NM   R$  000000000037800000000003860000000000376000000000038100000000003780000000000377000000000037800482000000000000325800000000000124330800000000000000009999123100000010000000000000BRMTREACNOR6115
012024100802MTSA4       010METISA      PN           R$  000000000385900000000038590000000003706000000000375800000000037060000000003705000000000377000014000000000000001800000000000006765900000000000000009999123100000010000000000000BRMTSAACNPR9073
012024100802MULT3       010MULTIPLAN   ON      N2   R$  000000000258000000000025950000000002546000000000257500000000025740000000002565000000000257619041000000000003790800000000009765020800000000000000009999123100000010000000000000BRMULTACNOR5139
012024100802MYPK3       010IOCHP-MAXIONON  EJ  NM   R$  000000000103400000000010400000000001003000000000101400000000010160000000001010000000000101608142000000000002231400000000002264553600000000000000009999123100000010000000000000BRMYPKACNOR7156
012024100802BGIP4       010BANESE      PN           R$  000000000245000000000024500000000002440000000000244300000000024400000000002408000000000249000003000000000000000300000000000000733100000000000000009999123100000010000000000000BRBGIPACNPR8210
012024100802BHIA3       010CASAS BAHIA ON      NM   R$  000000000044800000000004570000000000440000000000044600000000004410000000000441000000000044203689000000000003193500000000001425048900000000000000009999123100000010000000000000BRBHIAACNOR1102
012024100802BPAN4       010BANCO PAN   PN      N1   R$  000000000096600000000009870000000000962000000000097700000000009760000000000971000000000097703443000000000001163100000000001136933100000000000000009999123100000010000000000000BRBPANACNPR1115
012024100802BRAP3       010BRADESPAR   ON      N1   R$  000000000179700000000017970000000001770000000000177900000000017730000000001772000000000178000656000000000000123800000000000220285500000000000000009999123100000010000000000000BRBRAPACNOR5148
012024100802BRAP4       010BRADESPAR   PN      N1   R$  000000000193000000000019370000000001921000000000192800000000019360000000001934000000000193609335000000000003920900000000007562758400000000000000009999123100000010000000000000BRBRAPACNPR2148
012024100802NEOE3       010NEOENERGIA  ON      NM   R$  000000000190100000000019110000000001874000000000190000000000019000000000001899000000000190702127000000000000468000000000000889366800000000000000009999123100000010000000000000BRNEOEACNOR3123
012024100802SYNE3       010SYN PROP TECON      NM   R$  000000000076000000000007830000000000755000000000077100000000007740000000000770000000000077401805000000000000649800000000000501317500000000000000009999123100000010000000000000BRSYNEACNOR2103
012024100802ENGI11      010ENERGISA    UNT     N2   R$  000000000433800000000044070000000004333000000000438400000000044000000000004400000000000440309282000000000002954300000000012954516400000000000000009999123100000010000000000000BRENGICDAM16136
012024100802ENGI3       010ENERGISA    ON      N2   R$  000000000131800000000013390000000001311000000000132400000000013270000000001327000000000133000022000000000000002600000000000003444000000000000000009999123100000010000000000000BRENGIACNOR0146
012024100802ENGI4       010ENERGISA    PN      N2   R$  000000000077000000000007700000000000760000000000076400000000007680000000000767000000000076900048000000000000008800000000000006727700000000000000009999123100000010000000000000BRENGIACNPR7142
012024100802ENJU3       010ENJOEI      ON      NM   R$  000000000012600000000001290000000000125000000000012700000000001250000000000125000000000012600360000000000000882700000000000112221100000000000000009999123100000010000000000000BRENJUACNOR9100
012024100802EPAR3       010EMBPAR S/A  ON           R$  000000000055200000000005620000000000552000000000055300000000005530000000000553000000000055900016000000000000005800000000000003210500000000000000009999123100000010000000000000BREPARACNOR9105
012024100802EQMA3B      010EQTLMARANHAOON      MB   R$  000000000235000000000023700000000002350000000000235600000000023700000000002321000000000239300003000000000000000500000000000001178000000000000000009999123100000010000000000000BREQMAACNOR8108
012024100802EQPA3       010EQTL PARA   ON           R$  000000000061100000000006110000000000603000000000060700000000006060000000000602000000000060600015000000000000004000000000000002431800000000000000009999123100000010000000000000BREQPAACNOR1111
012024100802EQTL3       010EQUATORIAL  ON      NM   R$  000000000320800000000032900000000003200000000000326800000000032800000000003280000000000328122517000000000007249300000000023695540000000000000000009999123100000010000000000000BREQTLACNOR0131
012024100802IFCM3       010INFRACOMM   ON      NM   R$  000000000001900000000000200000000000017000000000001800000000000170000000000017000000000001804640000000000026878500000000000498114900000000000000009999123100000010000000000000BRIFCMACNOR8101
012024100802IGTI11      010IGUATEMI S.AUNT     N1   R$  000000000214800000000021720000000002119000000000215400000000021590000000002145000000000215913199000000000007042600000000015174063400000000000000009999123100000010000000000000BRIGTICDAM16106
012024100802IGTI3       010IGUATEMI S.AON      N1   R$  000000000026600000000002690000000000260000000000026100000000002600000000000260000000000026400079000000000000028400000000000007436200000000000000009999123100000010000000000000BRIGTIACNOR8106
012024100802INEP3       010INEPAR      ON           R$  000000000018300000000001850000000000180000000000018200000000001840000000000182000000000018400130000000000000035700000000000006516000000000000000009999123100000010000000000000BRINEPACNOR1143
012024100802INEP4       010INEPAR      PN           R$  000000000018200000000001840000000000181000000000018200000000001810000000000181000000000018300029000000000000007500000000000001366300000000000000009999123100000010000000000000BRINEPACNPR8143
012024100802INTB3       010INTELBRAS   ON      NM   R$  000000000202400000000020750000000001991000000000204200000000020750000000002068000000000207606700000000000001026900000000002096969500000000000000009999123100000010000000000000BRINTBACNOR9112
012024100802IRBR3       010IRBBRASIL REON      NM   R$  000000000436500000000044610000000004351000000000440900000000044000000000004392000000000440003718000000000000662500000000002921033000000000000000009999123100000010000000000000BRIRBRACNOR4111
012024100802FRIO3       010METALFRIO   ON      NM   R$  000000001142000000000114200000000010000000000001040800000000100000000000009950000000001000000025000000000000003200000000000033305600000000000000009999123100000010000000000000BRFRIOACNOR2111
012024100802BMEB4       010MERCANTIL   PN      N1   R$  000000000394500000000039610000000003888000000000392700000000039150000000003900000000000391600138000000000000016000000000000062844800000000000000009999123100000010000000000000BRBMEBACNPR5211
012024100802BMGB4       010BANCO BMG   PN      N1   R$  000000000041100000000004130000000000406000000000041000000000004110000000000411000000000041201910000000000000626500000000000257270700000000000000009999123100000010000000000000BRBMGBACNPR0110
012024100802BMIN4       010MERC INVEST PN           R$  000000000170000000000017000000000001700000000000170000000000017000000000001612000000000170000001000000000000000400000000000000680000000000000000009999123100000010000000000000BRBMINACNPR1176
012024100802BMKS3       010BIC MONARK  ON           R$  000000003080500000000310000000000030805000000003097700000000310000000000030650000000003100000010000000000000000034000000000001053220000000000000009999123100000010000000000000BRBMKSACNOR9166
012024100802BMOB3       010BEMOBI TECH ON      NM   R$  000000000144500000000014560000000001427000000000144000000000014400000000001432000000000144101019000000000000125500000000000180835600000000000000009999123100000010000000000000BRBMOBACNOR7103
012024100802BNBR3       010NORD BRASIL ON           R$  000000001045000000000113990000000010450000000001083500000000113990000000010600000000001114000006000000000000000900000000000009752200000000000000009999123100000010000000000000BRBNBRACNOR8209
012024100802EVEN3       010EVEN        ON      NM   R$  000000000072400000000007340000000000710000000000072300000000007200000000000720000000000072106797000000000002524200000000001825719700000000000000009999123100000010000000000000BREVENACNOR8119
012024100802EZTC3       010EZTEC       ON      NM   R$  000000000138000000000014300000000001368000000000141300000000014280000000001422000000000142805859000000000001454900000000002056440800000000000000009999123100000010000000000000BREZTCACNOR0126
012024100802ITUB3       010ITAUUNIBANCOON  EJ  N1   R$  000000000303000000000030880000000003028000000000307200000000030740000000003068000000000308101473000000000000291100000000000894323700000000000000009999123100000010000000000000BRITUBACNOR4342
012024100802ITUB4       010ITAUUNIBANCOPN  EJ  N1   R$  000000000349300000000035520000000003490000000000353600000000035350000000003535000000000353733539000000000023103400000000081703149400000000000000009999123100000010000000000000BRITUBACNPR1342
012024100802AERI3       010AERIS       ON      NM   R$  000000000061200000000006500000000000603000000000062800000000006300000000000630000000000063400741000000000000202500000000000127249700000000000000009999123100000010000000000000BRAERIACNOR4102
012024100802AESB3       010AES BRASIL  ON      NM   R$  000000000117100000000011730000000001169000000000117100000000011720000000001172000000000117303016000000000003320400000000003890334400000000000000009999123100000010000000000000BRAESBACNOR7107
012024100802ABCB4       010ABC BRASIL  PN      N2   R$  000000000212800000000021500000000002121000000000213600000000021290000000002129000000000214501992000000000000422000000000000901568900000000000000009999123100000010000000000000BRABCBACNPR4146
012024100802ABEV3       010AMBEV S/A   ON           R$  000000000131500000000013170000000001294000000000130500000000013080000000001308000000000131134313000000000035995700000000046999172700000000000000009999123100000010000000000000BRABEVACNOR1128
012024100802BAHI3       010BAHEMA      ON      MA   R$  000000000060900000000006090000000000609000000000060900000000006090000000000594000000000060800003000000000000000300000000000000182700000000000000009999123100000010000000000000BRBAHIACNOR1074
012024100802BALM3       010BAUMER      ON           R$  000000000162000000000016200000000001620000000000162000000000016200000000001150000000000165000002000000000000000200000000000000324000000000000000009999123100000010000000000000BRBALMACNOR5055
012024100802BAZA3       010AMAZONIA    ON           R$  000000000919700000000092180000000009197000000000920700000000092150000000009160000000000921800008000000000000001000000000000009207900000000000000009999123100000010000000000000BRBAZAACNOR0179
012024100802BBAS3       010BRASIL      ON      NM   R$  000000000269000000000026990000000002678000000000268900000000026980000000002695000000000269828915000000000011728700000000031549179100000000000000009999123100000010000000000000BRBBASACNOR3326
012024100802BEES3       010BANESTES    ON  EJ       R$  000000000089000000000008930000000000888000000000088900000000008880000000000888000000000089000084000000000000018300000000000016280900000000000000009999123100000010000000000000BRBEESACNOR9396
012024100802BEES4       010BANESTES    PN  EJ       R$  000000000093900000000009410000000000930000000000093400000000009300000000000930000000000094100015000000000000002100000000000001961400000000000000009999123100000010000000000000BRBEESACNPR6321
012024100802BEEF3       010MINERVA     ON      NM   R$  000000000062100000000006240000000000612000000000061600000000006150000000000614000000000061507921000000000004851200000000002992817500000000000000009999123100000010000000000000BRBEEFACNOR6116
012024100802BPAC3       010BTGP BANCO  ON      N2   R$  000000000155500000000015920000000001553000000000157400000000015730000000001540000000000159200020000000000000002100000000000003305900000000000000009999123100000010000000000000BRBPACACNOR7134
012024100802BPAC5       010BTGP BANCO  PNA     N2   R$  000000000083600000000008450000000000832000000000084000000000008340000000000832000000000084200018000000000000003100000000000002604000000000000000009999123100000010000000000000BRBPACACNPA0134
012024100802COCE3       010COELCE      ON           R$  000000000291600000000029160000000002916000000000291600000000029160000000002915000000000300000001000000000000000100000000000000291600000000000000009999123100000010000000000000BRCOCEACNOR0146
012024100802COCE5       010COELCE      PNA          R$  000000000267400000000027000000000002674000000000269700000000027000000000002685000000000270000009000000000000002100000000000005664900000000000000009999123100000010000000000000BRCOCEACNPA3147
012024100802COGN3       010COGNA ON    ON      NM   R$  000000000013300000000001440000000000131000000000013700000000001420000000000141000000000014219795000000000088671200000000012205948400000000000000009999123100000010000000000000BRCOGNACNOR2105
012024100802CPLE3       010COPEL       ON  EDJ N2   R$  000000000089900000000009180000000000896000000000091400000000009180000000000913000000000091911545000000000004016900000000003672170000000000000000009999123100000010000000000000BRCPLEACNOR8150
012024100802CPLE5       010COPEL       PNA EDJ N2   R$  000000000117600000000012810000000001176000000000122800000000012810000000001178000000000131800005000000000000000600000000000000737100000000000000009999123100000010000000000000BRCPLEACNPA1148
012024100802CPLE6       010COPEL       PNB EDJ N2   R$  000000000100200000000010200000000000999000000000101500000000010200000000001020000000000102122252000000000012633400000000012827400200000000000000009999123100000010000000000000BRCPLEACNPB9147
012024100802CRFB3       010CARREFOUR BRON      NM   R$  000000000078600000000007990000000000778000000000079000000000007920000000000791000000000079215158000000000010160300000000008030909300000000000000009999123100000010000000000000BRCRFBACNOR2116
012024100802CRPG3       010CRISTAL     ON           R$  000000000265100000000026510000000002651000000000265100000000026510000000002650000000000330000001000000000000000100000000000000265100000000000000009999123100000010000000000000BRCRPGACNOR0119
012024100802CRPG5       010CRISTAL     PNA          R$  000000000258100000000025900000000002579000000000258200000000025790000000002550000000000257900011000000000000002100000000000005423600000000000000009999123100000010000000000000BRCRPGACNPA3119
012024100802CSAN3       010COSAN       ON      NM   R$  000000000129900000000013000000000001270000000000128100000000012800000000001279000000000128114126000000000008599200000000011020434500000000000000009999123100000010000000000000BRCSANACNOR6126
012024100802ELMD3       010ELETROMIDIA ON      NM   R$  000000000165800000000016920000000001640000000000165900000000016830000000001681000000000169000374000000000000054800000000000090952900000000000000009999123100000010000000000000BRELMDACNOR3101
012024100802EMAE4       010EMAE        PN           R$  000000000398800000000039880000000003910000000000393400000000039690000000003912000000000396000007000000000000000900000000000003541100000000000000009999123100000010000000000000BREMAEACNPR1126
012024100802EMBR3       010EMBRAER     ON      NM   R$  000000000459000000000047050000000004565000000000463400000000045930000000004593000000000462216081000000000004465900000000020699031700000000000000009999123100000010000000000000BREMBRACNOR4191
012024100802KRSA3       010KORA SAUDE  ON      NM   R$  000000000004900000000000500000000000048000000000004900000000000490000000000048000000000004900063000000000000095900000000000004705000000000000000009999123100000010000000000000BRKRSAACNOR0100
012024100802B3SA3       010B3          ON      NM   R$  000000000104900000000010780000000001039000000000106200000000010700000000001069000000000107032486000000000046497200000000049390929500000000000000009999123100000010000000000000BRB3SAACNOR6134
012024100802BPAC11      010BTGP BANCO  UNT     N2   R$  000000000323200000000032740000000003216000000000324700000000032610000000003254000000000326117505000000000006160600000000020008480800000000000000009999123100000010000000000000BRBPACUNT006119
012024100802CMIN3       010CSNMINERACAOON  EDJ N2   R$  000000000061000000000006110000000000599000000000060400000000006050000000000605000000000060610214000000000011401000000000006890866300000000000000009999123100000010000000000000BRCMINACNOR2112
012024100802CPFE3       010CPFL ENERGIAON      NM   R$  000000000340000000000034260000000003393000000000341400000000034040000000003403000000000342009787000000000004304500000000014697221700000000000000009999123100000010000000000000BRCPFEACNOR0137
012024100802ELET3       010ELETROBRAS  ON      N1   R$  000000000381300000000038960000000003795000000000386100000000038700000000003863000000000387119696000000000007209900000000027841974400000000000000009999123100000010000000000000BRELETACNOR6160
012024100802ELET6       010ELETROBRAS  PNB     N1   R$  000000000422400000000043150000000004224000000000428300000000042850000000004285000000000428604229000000000000703600000000003014005900000000000000009999123100000010000000000000BRELETACNPB7077
012024100802HBRE3       010HBR REALTY  ON      NM   R$  000000000046100000000004690000000000455000000000046200000000004620000000000461000000000046200711000000000000285700000000000132041700000000000000009999123100000010000000000000BRHBREACNOR4100
012024100802HBSA3       010HIDROVIAS   ON  ES  NM   R$  000000000033800000000003410000000000335000000000033700000000003360000000000335000000000033603569000000000001695100000000000571925100000000000000009999123100000010000000000000BRHBSAACNOR0101
012024100802HBTS5       010HABITASUL   PNA          R$  000000000310000000000031000000000003100000000000310000000000031000000000002501000000000310000001000000000000000100000000000000310000000000000000009999123100000010000000000000BRHBTSACNPA3128
012024100802HETA4       010HERCULES    PN           R$  000000000065100000000006980000000000651000000000065500000000006510000000000599000000000067900003000000000000001000000000000000655700000000000000009999123100000010000000000000BRHETAACNPR9136
012024100802HYPE3       010HYPERA      ON      NM   R$  000000000271200000000027650000000002690000000000274400000000027550000000002755000000000276012182000000000003831400000000010514281200000000000000009999123100000010000000000000BRHYPEACNOR0144
012024100802JSLG3       010JSL         ON      NM   R$  000000000074500000000007450000000000721000000000073200000000007370000000000737000000000073802859000000000000656400000000000480548000000000000000009999123100000010000000000000BRJSLGACNOR2121
012024100802KEPL3       010KEPLER WEBERON      NM   R$  000000000097000000000009750000000000958000000000096500000000009600000000000960000000000096901945000000000000577400000000000557452700000000000000009999123100000010000000000000BRKEPLACNOR1064
012024100802KLBN11      010KLABIN S/A  UNT     N2   R$  000000000212000000000021320000000002097000000000211800000000021300000000002130000000000213117346000000000004912100000000010408669000000000000000009999123100000010000000000000BRKLBNCDAM18143
012024100802KLBN3       010KLABIN S/A  ON      N2   R$  000000000042800000000004280000000000422000000000042500000000004280000000000426000000000042900375000000000000169200000000000071943200000000000000009999123100000010000000000000BRKLBNACNOR2171
012024100802KLBN4       010KLABIN S/A  PN      N2   R$  000000000042500000000004260000000000419000000000042300000000004250000000000424000000000042501183000000000000814000000000000344374300000000000000009999123100000010000000000000BRKLBNACNPR9171
012024100802BBSE3       010BBSEGURIDADEON      NM   R$  000000000343600000000034520000000003422000000000343800000000034300000000003430000000000343911859000000000003883400000000013353289000000000000000009999123100000010000000000000BRBBSEACNOR5125
012024100802CAMB3       010CAMBUCI     ON           R$  000000000123900000000012650000000001215000000000123800000000012490000000001235000000000124900130000000000000043800000000000054224800000000000000009999123100000010000000000000BRCAMBACNOR4131
012024100802CAML3       010CAMIL       ON      NM   R$  000000000085100000000008570000000000840000000000085000000000008520000000000849000000000085201334000000000000257000000000000218462700000000000000009999123100000010000000000000BRCAMLACNOR3129
012024100802CASH3       010MELIUZ      ON      NM   R$  000000000036600000000003700000000000360000000000036500000000003620000000000361000000000036201352000000000000595300000000000217553900000000000000009999123100000010000000000000BRCASHACNOR8107
012024100802CBAV3       010CBA         ON      NM   R$  000000000058400000000006030000000000572000000000058400000000005750000000000575000000000057610674000000000006881300000000004023355300000000000000009999123100000010000000000000BRCBAVACNOR5104
012024100802DASA3       010DASA        ON      NM   R$  000000000030100000000003120000000000298000000000030700000000003100000000000309000000000031101528000000000000638300000000000196183800000000000000009999123100000010000000000000BRDASAACNOR1123
012024100802DESK3       010DESKTOP     ON      NM   R$  000000000140200000000014340000000001398000000000141700000000014090000000001408000000000141900565000000000000082500000000000116966000000000000000009999123100000010000000000000BRDESKACNOR2104
012024100802DEXP3       010DEXXOS PAR  ON      N1   R$  000000000087500000000008860000000000868000000000087600000000008750000000000875000000000088100275000000000000058200000000000051018400000000000000009999123100000010000000000000BRDEXPACNOR1105
012024100802DEXP4       010DEXXOS PAR  PN      N1   R$  000000000089700000000008990000000000893000000000089700000000008930000000000880000000000089400009000000000000001800000000000001615500000000000000009999123100000010000000000000BRDEXPACNPR8105
012024100802DIRR3       010DIRECIONAL  ON      NM   R$  000000000298200000000030680000000002952000000000302900000000030400000000003040000000000304810073000000000001877700000000005688208900000000000000009999123100000010000000000000BRDIRRACNOR0119
012024100802DMVF3       010D1000VFARMA ON      NM   R$  000000000063300000000006360000000000615000000000062200000000006310000000000622000000000063200217000000000000055300000000000034407700000000000000009999123100000010000000000000BRDMVFACNOR9100
012024100802DOHL4       010DOHLER      PN           R$  000000000041800000000004180000000000418000000000041800000000004180000000000405000000000041800001000000000000000100000000000000041800000000000000009999123100000010000000000000BRDOHLACNPR9066
012024100802DOTZ3       010DOTZ SA     ON      NM   R$  000000000054500000000005990000000000525000000000055700000000005760000000000556000000000057600184000000000000043500000000000024260300000000000000009999123100000010000000000000BRDOTZACNOR7101
012024100802DXCO3       010DEXCO       ON      NM   R$  000000000081900000000008370000000000806000000000082600000000008260000000000826000000000082708702000000000003575900000000002953872000000000000000009999123100000010000000000000BRDXCOACNOR8105
012024100802GGPS3       010GPS         ON      NM   R$  000000000184400000000018520000000001823000000000183900000000018390000000001839000000000184004862000000000000861100000000001584305900000000000000009999123100000010000000000000BRGGPSACNOR9103
012024100802GMAT3       010GRUPO MATEUSON  EJ  NM   R$  000000000072100000000007450000000000721000000000073700000000007390000000000736000000000073905738000000000002282500000000001683110100000000000000009999123100000010000000000000BRGMATACNOR7103
012024100802GOAU3       010GERDAU MET  ON      N1   R$  000000000103800000000010430000000001030000000000103500000000010420000000001037000000000104200282000000000000050900000000000052707400000000000000009999123100000010000000000000BRGOAUACNOR1268
012024100802GOAU4       010GERDAU MET  PN      N1   R$  000000000106900000000010780000000001059000000000107100000000010740000000001074000000000107609210000000000005723200000000006131802600000000000000009999123100000010000000000000BRGOAUACNPR8269
012024100802JALL3       010JALLESMACHADON      NM   R$  000000000064400000000006450000000000638000000000064100000000006400000000000640000000000064200773000000000000279800000000000179496800000000000000009999123100000010000000000000BRJALLACNOR0106
012024100802JBSS3       010JBS         ON      NM   R$  000000000320400000000032540000000003200000000000323200000000032350000000003231000000000323717251000000000004223400000000013651824100000000000000009999123100000010000000000000BRJBSSACNOR8122
012024100802MILS3       010MILLS       ON      NM   R$  000000000109300000000011010000000001079000000000109200000000010840000000001084000000000108503574000000000000793600000000000867141800000000000000009999123100000010000000000000BRMILSACNOR2128
012024100802MLAS3       010MULTILASER  ON      NM   R$  000000000016100000000001650000000000158000000000016200000000001640000000000163000000000016502779000000000001764700000000000286903400000000000000009999123100000010000000000000BRMLASACNOR9101
012024100802MNDL3       010MUNDIAL     ON           R$  000000000170000000000017000000000001600000000000164000000000016600000000001427000000000171600006000000000000000700000000000001148000000000000000009999123100000010000000000000BRMNDLACNOR4109
012024100802MNPR3       010MINUPAR     ON           R$  000000000182100000000018500000000001775000000000182700000000018500000000001820000000000188000011000000000000002200000000000004019400000000000000009999123100000010000000000000BRMNPRACNOR5122
012024100802MOVI3       010MOVIDA      ON      NM   R$  000000000059300000000006090000000000585000000000060200000000006070000000000607000000000060807884000000000004013200000000002416210300000000000000009999123100000010000000000000BRMOVIACNOR0122
012024100802MRFG3       010MARFRIG     ON      NM   R$  000000000133700000000013580000000001323000000000134000000000013460000000001344000000000134611914000000000005261500000000007053511800000000000000009999123100000010000000000000BRMRFGACNOR0116
012024100802ASAI3       010ASSAI       ON      NM   R$  000000000067100000000006860000000000668000000000067900000000006820000000000681000000000068223466000000000017971800000000012216758800000000000000009999123100000010000000000000BRASAIACNOR0106
012024100802ATOM3       010ATOMPAR     ON           R$  000000000024200000000002820000000000238000000000026600000000002780000000000263000000000027800247000000000000176800000000000047104200000000000000009999123100000010000000000000BRATOMACNOR1106
012024100802AURE3       010AUREN       ON      NM   R$  000000000102600000000010290000000001014000000000102200000000010220000000001022000000000102506714000000000003933600000000004020249700000000000000009999123100000010000000000000BRAUREACNOR9104
012024100802BBDC3       010BRADESCO    ON  EJ  N1   R$  000000000132000000000013440000000001320000000000133300000000013370000000001335000000000133707723000000000005212400000000006953173000000000000000009999123100000010000000000000BRBBDCACNOR1776
012024100802BBDC4       010BRADESCO    PN  EJ  N1   R$  000000000150600000000015350000000001506000000000152300000000015220000000001521000000000152240699000000000022407600000000034145686700000000000000009999123100000010000000000000BRBBDCACNPR8776
012024100802BRIT3       010BRISANET    ON      NM   R$  000000000029800000000003160000000000298000000000030700000000003070000000000307000000000031000590000000000000436900000000000134197600000000000000009999123100000010000000000000BRBRITACNOR0103
012024100802BRKM3       010BRASKEM     ON      N1   R$  000000000193200000000019400000000001921000000000193000000000019290000000001921000000000193400030000000000000007500000000000014477400000000000000009999123100000010000000000000BRBRKMACNOR1119
012024100802BRKM5       010BRASKEM     PNA     N1   R$  000000000199600000000020240000000001938000000000196700000000019380000000001938000000000194009152000000000003356200000000006603666200000000000000009999123100000010000000000000BRBRKMACNPA4121
012024100802CXSE3       010CAIXA SEGURION      NM   R$  000000000142600000000014400000000001416000000000143000000000014320000000001430000000000143207572000000000002266200000000003241410300000000000000009999123100000010000000000000BRCXSEACNOR7107
012024100802LAND3       010TERRASANTAPAON      NM   R$  000000000129900000000013200000000001262000000000129500000000013200000000001298000000000132000145000000000000020300000000000026302100000000000000009999123100000010000000000000BRLANDACNOR9103
012024100802LAVV3       010LAVVI       ON      NM   R$  000000000081100000000008250000000000803000000000081700000000008140000000000814000000000081802027000000000000655300000000000535877300000000000000009999123100000010000000000000BRLAVVACNOR4113
012024100802LEVE3       010METAL LEVE  ON      NM   R$  000000000307600000000030840000000003029000000000304800000000030290000000003029000000000304001865000000000000382800000000001166910100000000000000009999123100000010000000000000BRLEVEACNOR2197
012024100802LJQQ3       010QUERO-QUERO ON      NM   R$  000000000030500000000003100000000000299000000000030200000000003000000000000299000000000030006442000000000004837600000000001463869200000000000000009999123100000010000000000000BRLJQQACNOR5104
012024100802LOGG3       010LOG COM PROPON      NM   R$  000000000231900000000023500000000002292000000000231800000000023130000000002305000000000232201332000000000000171900000000000398506300000000000000009999123100000010000000000000BRLOGGACNOR7107
012024100802LOGN3       010LOG-IN      ON      NM   R$  000000000327100000000034190000000003271000000000331800000000032750000000003275000000000330600176000000000000025000000000000082955300000000000000009999123100000010000000000000BRLOGNACNOR3105
012024100802LPSB3       010LOPES BRASILON      NM   R$  000000000017300000000001780000000000173000000000017600000000001780000000000176000000000017800156000000000000075800000000000013404600000000000000009999123100000010000000000000BRLPSBACNOR0114
012024100802TAEE11      010TAESA       UNT     N2   R$  000000000346000000000034630000000003430000000000344800000000034450000000003445000000000345407408000000000001605200000000005536090200000000000000009999123100000010000000000000BRTAEECDAM10148
012024100802TAEE3       010TAESA       ON      N2   R$  000000000114900000000011520000000001143000000000114800000000011520000000001147000000000115200241000000000000042800000000000049175300000000000000009999123100000010000000000000BRTAEEACNOR9148
012024100802TAEE4       010TAESA       PN      N2   R$  000000000115600000000011580000000001149000000000115400000000011550000000001152000000000115600431000000000000091700000000000105881700000000000000009999123100000010000000000000BRTAEEACNPR6148
012024100802AGRO3       010BRASILAGRO  ON      NM   R$  000000000252500000000025250000000002500000000000251200000000025000000000002500000000000252300835000000000000142900000000000358981300000000000000009999123100000010000000000000BRAGROACNOR7114
012024100802AHEB3       010SPTURIS     ON           R$  000000000375000000000038000000000003750000000000378700000000038000000000003500000000000380000003000000000000000400000000000001515000000000000000009999123100000010000000000000BRAHEBACNOR0106
012024100802ALLD3       010ALLIED      ON      NM   R$  000000000077000000000007730000000000760000000000076500000000007620000000000762000000000076500107000000000000038400000000000029411900000000000000009999123100000010000000000000BRALLDACNOR3106
012024100802ALOS3       010ALLOS       ON  ED  NM   R$  000000000224600000000022810000000002246000000000226600000000022590000000002256000000000225919621000000000006666400000000015109087100000000000000009999123100000010000000000000BRALOSACNOR5102
012024100802BIOM3       010BIOMM       ON      MA   R$  000000000096400000000009680000000000941000000000095000000000009510000000000951000000000095600326000000000000092300000000000087751100000000000000009999123100000010000000000000BRBIOMACNOR2112
012024100802BOBR4       010BOMBRIL     PN           R$  000000000023300000000002350000000000224000000000022900000000002260000000000225000000000022800203000000000000062400000000000014344500000000000000009999123100000010000000000000BRBOBRACNPR3128
012024100802BRAV3       010BRAVA       ON      NM   R$  000000000179300000000018030000000001767000000000178600000000017910000000001790000000000179112789000000000005488200000000009802435000000000000000009999123100000010000000000000BRBRAVACNOR3100
012024100802CSMG3       010COPASA      ON      NM   R$  000000000228300000000023010000000002254000000000228200000000022820000000002282000000000228504157000000000000815100000000001860769500000000000000009999123100000010000000000000BRCSMGACNOR5175
012024100802CSNA3       010SID NACIONALON           R$  000000000122700000000012320000000001208000000000121700000000012160000000001215000000000121615722000000000010274200000000012511528000000000000000009999123100000010000000000000BRCSNAACNOR6261
012024100802ESPA3       010ESPACOLASER ON      NM   R$  000000000009900000000001000000000000096000000000009800000000000990000000000098000000000009900510000000000000426200000000000041810700000000000000009999123100000010000000000000BRESPAACNOR7103
012024100802ETER3       010ETERNIT     ON      NM   R$  000000000056300000000005670000000000561000000000056400000000005640000000000564000000000056600346000000000000086500000000000048833800000000000000009999123100000010000000000000BRETERACNOR3244
012024100802EUCA3       010EUCATEX     ON      N1   R$  000000000170000000000017270000000001700000000000170900000000017270000000001542000000000179700003000000000000000300000000000000512700000000000000009999123100000010000000000000BREUCAACNOR1157
012024100802EUCA4       010EUCATEX     PN      N1   R$  000000000159900000000016200000000001557000000000156900000000015680000000001560000000000156800213000000000000045900000000000072019900000000000000009999123100000010000000000000BREUCAACNPR8044
012024100802MELK3       010MELNICK     ON      NM   R$  000000000035700000000003640000000000357000000000036000000000003610000000000361000000000036400631000000000000260400000000000093951300000000000000009999123100000010000000000000BRMELKACNOR8111
012024100802MGEL4       010MANGELS INDLPN           R$  000000000110500000000011050000000001020000000000109400000000011000000000001100000000000110500012000000000000005500000000000006017600000000000000009999123100000010000000000000BRMGELACNPR3147
012024100802MGLU3       010MAGAZ LUIZA ON      NM   R$  000000000094500000000009630000000000933000000000095200000000009570000000000956000000000095818650000000000018588400000000017703540900000000000000009999123100000010000000000000BRMGLUACNOR2125
012024100802SCAR3       010SAO CARLOS  ON      NM   R$  000000000220000000000022380000000002198000000000223300000000022350000000002190000000000225900019000000000000007700000000000017195200000000000000009999123100000010000000000000BRSCARACNOR7131
012024100802SEER3       010SER EDUCA   ON      NM   R$  000000000058900000000006090000000000588000000000060000000000006040000000000602000000000060500897000000000000228100000000000137056500000000000000009999123100000010000000000000BRSEERACNOR5119
012024100802SEQL3       010SEQUOIA LOG ON      NM   R$  000000000044300000000004480000000000435000000000044000000000004370000000000437000000000044400984000000000000330800000000000145747500000000000000009999123100000010000000000000BRSEQLACNOR2103
012024100802SHOW3       010TIME FOR FUNON      NM   R$  000000000009700000000001000000000000097000000000009800000000000990000000000099000000000010000198000000000000066800000000000006604700000000000000009999123100000010000000000000BRSHOWACNOR7105
012024100802SHUL4       010SCHULZ      PN  EJ       R$  000000000061400000000006230000000000611000000000061800000000006200000000000620000000000062300878000000000000188600000000000116674700000000000000009999123100000010000000000000BRSHULACNPR4157
012024100802SIMH3       010SIMPAR      ON      NM   R$  000000000051600000000005220000000000502000000000051000000000005170000000000514000000000051708221000000000006987900000000003568231100000000000000009999123100000010000000000000BRSIMHACNOR0107
012024100802SLCE3       010SLC AGRICOLAON      NM   R$  000000000175300000000017790000000001740000000000176300000000017670000000001761000000000176806562000000000002610100000000004603917900000000000000009999123100000010000000000000BRSLCEACNOR2125
012024100802VALE3       010VALE        ON      NM   R$  000000000610100000000061120000000006060000000000608800000000061120000000006112000000000611462388000000000038028100000000231540567300000000000000009999123100000010000000000000BRVALEACNOR0211
012024100802ZAMP3       010ZAMP S.A.   ON           R$  000000000025600000000002630000000000254000000000025700000000002550000000000255000000000025601024000000000000405700000000000104422100000000000000009999123100000010000000000000BRZAMPACNOR5101
012024100802LUPA3       010LUPATECH    ON      NM   R$  000000000015100000000001510000000000141000000000014400000000001410000000000141000000000014300379000000000000437800000000000063102500000000000000009999123100000010000000000000BRLUPAACNOR8112
012024100802LVTC3       010WDC NETWORKSON      NM   R$  000000000037300000000003840000000000373000000000037800000000003830000000000371000000000038500023000000000000004200000000000001591700000000000000009999123100000010000000000000BRLVTCACNOR4102
012024100802LWSA3       010LWSA        ON      NM   R$  000000000041600000000004320000000000411000000000042400000000004270000000000427000000000042806005000000000003375500000000001434444100000000000000009999123100000010000000000000BRLWSAACNOR8103
012024100802SAPR11      010SANEPAR     UNT     N2   R$  000000000282300000000028390000000002786000000000282700000000028360000000002836000000000283805293000000000000919800000000002600664700000000000000009999123100000010000000000000BRSAPRCDAM13118
012024100802SAPR3       010SANEPAR     ON      N2   R$  000000000053900000000005460000000000533000000000054000000000005460000000000545000000000054600414000000000000123000000000000066530100000000000000009999123100000010000000000000BRSAPRACNOR9159
012024100802SAPR4       010SANEPAR     PN      N2   R$  000000000057000000000005760000000000565000000000057200000000005760000000000574000000000057602317000000000000811800000000000464855700000000000000009999123100000010000000000000BRSAPRACNPR6159
012024100802SBFG3       010GRUPO SBF   ON      NM   R$  000000000144400000000014880000000001428000000000146600000000014880000000001481000000000148806744000000000001739300000000002550444200000000000000009999123100000010000000000000BRSBFGACNOR1103
012024100802SBSP3       010SABESP      ON      NM   R$  000000000887600000000090390000000008868000000000899500000000090320000000009030000000000903913906000000000002999500000000026980665100000000000000009999123100000010000000000000BRSBSPACNOR5161
012024100802WEST3       010WESTWING    ON      NM   R$  000000000008300000000000830000000000081000000000008000000000000810000000000080000000000008200041000000000000061000000000000004933800000000000000009999123100000010000000000000BRWESTACNOR3100
012024100802WHRL3       010WHIRLPOOL   ON           R$  000000000042700000000004270000000000416000000000041900000000004180000000000417000000000041800042000000000000011300000000000004743200000000000000009999123100000010000000000000BRWHRLACNOR5129
012024100802WHRL4       010WHIRLPOOL   PN           R$  000000000044900000000004490000000000430000000000043500000000004340000000000433000000000043700090000000000000040800000000000017769400000000000000009999123100000010000000000000BRWHRLACNPR2129
012024100802WIZC3       010WIZ CO      ON      NM   R$  000000000060800000000006130000000000601000000000060700000000006060000000000602000000000060601171000000000000414400000000000251544800000000000000009999123100000010000000000000BRWIZCACNOR5102
012024100802YDUQ3       010YDUQS PART  ON      NM   R$  000000000100900000000010720000000000996000000000104800000000010690000000001068000000000107017553000000000009180000000000009624558200000000000000009999123100000010000000000000BRYDUQACNOR3105
012024100802PDGR3       010PDG REALT   ON      NM   R$  000000000000100000000000020000000000001000000000000100000000000010000000000001000000000000200926000000000046382400000000000052377800000000000000009999123100000010000000000000BRPDGRACNOR8119
012024100802PDTC3       010PADTEC      ON      NM   R$  000000000018800000000001900000000000184000000000018500000000001850000000000183000000000018500031000000000000017300000000000003210200000000000000009999123100000010000000000000BRPDTCACNOR3101
012024100802PETR3       010PETROBRAS   ON      N2   R$  000000000413500000000041540000000004075000000000411300000000041150000000004112000000000411514965000000000007578700000000031178225800000000000000009999123100000010000000000000BRPETRACNOR9206
012024100802PETR4       010PETROBRAS   PN      N2   R$  000000000378000000000037870000000003731000000000375600000000037600000000003759000000000376052011000000000034142000000000128239415100000000000000009999123100000010000000000000BRPETRACNPR6214
012024100802PNVL3       010DIMED       ON  EJ  NM   R$  000000000103000000000010480000000001015000000000103700000000010440000000001039000000000104501318000000000000219100000000000227393100000000000000009999123100000010000000000000BRPNVLACNOR9208
012024100802POMO3       010MARCOPOLO   ON      N2   R$  000000000061500000000006240000000000603000000000061200000000006240000000000616000000000062402694000000000001196200000000000732916600000000000000009999123100000010000000000000BRPOMOACNOR0099
012024100802POMO4       010MARCOPOLO   PN      N2   R$  000000000080300000000008150000000000788000000000080300000000008150000000000813000000000081509919000000000007434900000000005974872500000000000000009999123100000010000000000000BRPOMOACNPR7099
012024100802PORT3       010WILSON SONS ON      NM   R$  000000000167900000000016790000000001640000000000164800000000016450000000001640000000000164501847000000000000655400000000001080111500000000000000009999123100000010000000000000BRPORTACNOR8109
012024100802POSI3       010POSITIVO TECON      NM   R$  000000000059500000000006090000000000584000000000060000000000006080000000000606000000000060803543000000000001478200000000000887465900000000000000009999123100000010000000000000BRPOSIACNOR9116
012024100802PRIO3       010PETRORIO    ON      NM   R$  000000000441700000000044760000000004389000000000442600000000044110000000004411000000000441922922000000000010127500000000044828044500000000000000009999123100000010000000000000BRPRIOACNOR1107
012024100802ROMI3       010ROMI        ON      NM   R$  000000000109400000000011040000000001086000000000109500000000010990000000001094000000000110000516000000000000083000000000000090931300000000000000009999123100000010000000000000BRROMIACNOR8196
012024100802RPAD5       010ALFA HOLDINGPNA          R$  000000000087000000000008700000000000870000000000087000000000008700000000000725000000000087000001000000000000000100000000000000087000000000000000009999123100000010000000000000BRRPADACNPA4219
012024100802ITSA3       010ITAUSA      ON      N1   R$  000000000106300000000010750000000001057000000000106900000000010660000000001065000000000106600448000000000000071500000000000076481600000000000000009999123100000010000000000000BRITSAACNOR0443
012024100802ITSA4       010ITAUSA      PN      N1   R$  000000000106000000000010750000000001059000000000106800000000010660000000001066000000000106722783000000000017511500000000018712369800000000000000009999123100000010000000000000BRITSAACNPR7443
012024100802MATD3       010MATER DEI   ON      NM   R$  000000000045000000000004680000000000450000000000046400000000004640000000000460000000000046401442000000000000508000000000000235725900000000000000009999123100000010000000000000BRMATDACNOR4104
012024100802AALR3       010ALLIAR      ON      NM   R$  000000000153300000000015490000000001505000000000154000000000015230000000001504000000000152300137000000000000066500000000000102441400000000000000009999123100000010000000000000BRAALRACNOR6102
012024100802VTRU3       010VITRUEDUCA  ON      NM   R$  000000000091000000000009390000000000903000000000091800000000009390000000000917000000000093900615000000000000381800000000000350659800000000000000009999123100000010000000000000BRVTRUACNOR3100
012024100802VULC3       010VULCABRAS   ON      NM   R$  000000000166000000000016700000000001646000000000165900000000016700000000001665000000000167001712000000000000301900000000000501017400000000000000009999123100000010000000000000BRVULCACNOR2162
012024100802VVEO3       010VIVEO       ON      NM   R$  000000000018200000000001850000000000181000000000018200000000001810000000000181000000000018201231000000000001412900000000000258488500000000000000009999123100000010000000000000BRVVEOACNOR0104
012024100802WEGE3       010WEG         ON  EJ  NM   R$  000000000534000000000054570000000005339000000000541600000000054310000000005430000000000543222001000000000006798000000000036821316500000000000000009999123100000010000000000000BRWEGEACNOR0225
012024100802ODPV3       010ODONTOPREV  ON  EJ  NM   R$  000000000114100000000011410000000001092000000000110600000000010920000000001092000000000109403864000000000000960600000000001063056700000000000000009999123100000010000000000000BRODPVACNOR4204
012024100802OFSA3       010OUROFINO S/AON      NM   R$  000000000200600000000020740000000002006000000000206700000000020740000000002074000000000215900012000000000000005600000000000011577800000000000000009999123100000010000000000000BROFSAACNOR7118
012024100802ONCO3       010ONCOCLINICASON      NM   R$  000000000048100000000004860000000000465000000000047100000000004660000000000466000000000046804334000000000006160600000000002902850100000000000000009999123100000010000000000000BRONCOACNOR6101
012024100802OPCT3       010OCEANPACT   ON      NM   R$  000000000069200000000006980000000000680000000000068800000000006910000000000686000000000069100643000000000000201500000000000138636500000000000000009999123100000010000000000000BROPCTACNOR0100
012024100802ORVR3       010ORIZON      ON      NM   R$  000000000459600000000046440000000004546000000000461600000000046160000000004616000000000462401639000000000000264100000000001219136900000000000000009999123100000010000000000000BRORVRACNOR0101
012024100802PCAR3       010P.ACUCAR-CBDON      NM   R$  000000000028500000000003010000000000283000000000029300000000003000000000000299000000000030012622000000000015241900000000004480433300000000000000009999123100000010000000000000BRPCARACNOR3167
012024100802PFRM3       010PROFARMA    ON      NM   R$  000000000055200000000005680000000000550000000000055900000000005590000000000559000000000056500500000000000000134000000000000075015500000000000000009999123100000010000000000000BRPFRMACNOR1116
012024100802PGMN3       010PAGUE MENOS ON      NM   R$  000000000027100000000002760000000000267000000000027300000000002750000000000273000000000027500742000000000000345700000000000094553500000000000000009999123100000010000000000000BRPGMNACNOR8103
012024100802PINE3       010PINE        ON      N2   R$  000000000053500000000005520000000000520000000000053400000000005250000000000520000000000052500041000000000000009900000000000005289800000000000000009999123100000010000000000000BRPINEACNOR1150
012024100802PINE4       010PINE        PN      N2   R$  000000000053600000000005390000000000521000000000052900000000005220000000000521000000000052200671000000000000366500000000000193988100000000000000009999123100000010000000000000BRPINEACNPR8150
012024100802PLAS3       010PLASCAR PARTON           R$  000000000066000000000006600000000000660000000000066000000000006600000000000608000000000066000001000000000000000100000000000000066000000000000000009999123100000010000000000000BRPLASACNOR2106
012024100802PLPL3       010PLANOEPLANO ON      NM   R$  000000000129300000000013310000000001276000000000131200000000013190000000001319000000000132201632000000000000399300000000000524259900000000000000009999123100000010000000000000BRPLPLACNOR5104
012024100802RENT3       010LOCALIZA    ON      NM   R$  000000000415000000000043040000000004112000000000422400000000042860000000004286000000000429318271000000000006254000000000026419965300000000000000009999123100000010000000000000BRRENTACNOR4197
012024100802TOTS3       010TOTVS       ON      NM   R$  000000000280000000000028650000000002775000000000283900000000028300000000002829000000000283814878000000000002360700000000006702427400000000000000009999123100000010000000000000BRTOTSACNOR8145
012024100802TPIS3       010TRIUNFO PARTON      NM   R$  000000000054300000000005630000000000536000000000055100000000005550000000000551000000000055500270000000000000053300000000000029389800000000000000009999123100000010000000000000BRTPISACNOR8118
012024100802TRAD3       010TC          ON      NM   R$  000000000049700000000006320000000000497000000000057700000000005840000000000580000000000058401651000000000000659200000000000380817200000000000000009999123100000010000000000000BRTRADACNOR3102
012024100802TRIS3       010TRISUL      ON      NM   R$  000000000048900000000004970000000000483000000000049100000000004910000000000491000000000049300657000000000000764000000000000375592800000000000000009999123100000010000000000000BRTRISACNOR4118
012024100802TRPL3       010TRAN PAULISTON      N1   R$  000000000314900000000031490000000003101000000000310700000000031070000000003108000000000314100015000000000000001600000000000004972000000000000000009999123100000010000000000000BRTRPLACNOR4185
012024100802TRPL4       010TRAN PAULISTPN      N1   R$  000000000241500000000024210000000002401000000000241200000000024050000000002405000000000240809980000000000002677800000000006459285300000000000000009999123100000010000000000000BRTRPLACNPR1185
012024100802TTEN3       0103TENTOS     ON      NM   R$  000000000110000000000011100000000001085000000000110100000000011070000000001103000000000110703423000000000000714100000000000786642800000000000000009999123100000010000000000000BRTTENACNOR0103
012024100802TUPY3       010TUPY        ON      NM   R$  000000000251500000000025220000000002491000000000250600000000024910000000002490000000000250802488000000000000459100000000001150560200000000000000009999123100000010000000000000BRTUPYACNOR1184
012024100802VITT3       010VITTIA      ON      NM   R$  000000000057200000000005830000000000572000000000057900000000005800000000000579000000000058100846000000000000152400000000000088326300000000000000009999123100000010000000000000BRVITTACNOR4107
012024100802RAIL3       010RUMO S.A.   ON      NM   R$  000000000198100000000019980000000001959000000000197200000000019650000000001961000000000196518712000000000010457100000000020623844800000000000000009999123100000010000000000000BRRAILACNOR9105
012024100802RAIZ4       010RAIZEN      PN      N2   R$  000000000030200000000003040000000000299000000000030100000000003020000000000302000000000030311541000000000010704000000000003230583400000000000000009999123100000010000000000000BRRAIZACNPR6111
012024100802SMTO3       010SAO MARTINHOON      NM   R$  000000000278100000000028390000000002760000000000281100000000028280000000002822000000000282807068000000000001094700000000003077350900000000000000009999123100000010000000000000BRSMTOACNOR3127
012024100802SNSY5       010SANSUY      PNA          R$  000000000055000000000005500000000000526000000000054600000000005420000000000523000000000054200010000000000000010400000000000005679300000000000000009999123100000010000000000000BRSNSYACNPA5111
012024100802SOJA3       010BOA SAFRA   ON  EJ  NM   R$  000000000124300000000012440000000001202000000000121400000000012090000000001209000000000121702236000000000000460500000000000559499700000000000000009999123100000010000000000000BRSOJAACNOR9106
012024100802SRNA3       010SERENA      ON      NM   R$  000000000080300000000008170000000000793000000000080800000000008080000000000808000000000081304148000000000001184100000000000957160600000000000000009999123100000010000000000000BRSRNAACNOR4100
012024100802STBP3       010SANTOS BRP  ON      NM   R$  000000000146100000000014660000000001455000000000146200000000014650000000001464000000000146610393000000000007953100000000011633980000000000000000009999123100000010000000000000BRSTBPACNOR3131
012024100802SUZB3       010SUZANO S.A. ON      NM   R$  000000000554800000000055810000000005458000000000554300000000055700000000005570000000000557517718000000000006838000000000037903972600000000000000009999123100000010000000000000BRSUZBACNOR0130
012024100802ALPA3       010ALPARGATAS  ON      N1   R$  000000000069100000000006920000000000676000000000068300000000006760000000000675000000000069100016000000000000006400000000000004374200000000000000009999123100000010000000000000BRALPAACNOR0231
012024100802ALPA4       010ALPARGATAS  PN      N1   R$  000000000070000000000007040000000000687000000000069900000000007020000000000701000000000070305640000000000002423300000000001694768700000000000000009999123100000010000000000000BRALPAACNPR7232
012024100802ALPK3       010ESTAPAR     ON      NM   R$  000000000027600000000002850000000000276000000000028100000000002840000000000282000000000028400197000000000000118600000000000033379900000000000000009999123100000010000000000000BRALPKACNOR9101
012024100802ALUP11      010ALUPAR      UNT     N2   R$  000000000292000000000029580000000002905000000000294000000000029450000000002943000000000294904976000000000000898500000000002642224000000000000000009999123100000010000000000000BRALUPCDAM15120
012024100802ALUP3       010ALUPAR      ON      N2   R$  000000000100400000000010090000000000986000000000099200000000010090000000001009000000000102000059000000000000008300000000000008236100000000000000009999123100000010000000000000BRALUPACNOR8120
012024100802ALUP4       010ALUPAR      PN      N2   R$  000000000096800000000009740000000000963000000000096600000000009740000000000969000000000097400087000000000000021900000000000021176300000000000000009999123100000010000000000000BRALUPACNPR5120
012024100802AMAR3       010LOJAS MARISAON      NM   R$  000000000010400000000001050000000000103000000000010300000000001030000000000103000000000010400401000000000000122800000000000012696800000000000000009999123100000010000000000000BRAMARACNOR4115
012024100802AMBP3       010AMBIPAR     ON      NM   R$  000000001262100000000136410000000012500000000001307900000000125000000000012480000000001250001211000000000000170700000000002232651900000000000000009999123100000010000000000000BRAMBPACNOR6103
012024100802ANIM3       010ANIMA       ON      NM   R$  000000000023400000000002480000000000234000000000024100000000002430000000000243000000000024506064000000000006632500000000001602415000000000000000009999123100000010000000000000BRANIMACNOR6109
012024100802ARML3       010ARMAC       ON  EJ  NM   R$  000000000083400000000008340000000000800000000000081000000000008120000000000812000000000081502008000000000000541900000000000439088900000000000000009999123100000010000000000000BRARMLACNOR1113
012024100802BRBI11      010BR PARTNERS UNT     N2   R$  000000000152500000000015280000000001508000000000152000000000015280000000001528000000000152900819000000000000115400000000000175488700000000000000009999123100000010000000000000BRBRBICDAM10110
012024100802LREN3       010LOJAS RENNERON      NM   R$  000000000177200000000018000000000001748000000000178700000000018000000000001799000000000180017293000000000006917500000000012362721600000000000000009999123100000010000000000000BRLRENACNOR1222
012024100802AZZA3       010AZZAS 2154  ON      NM   R$  000000000404300000000041830000000004031000000000412600000000041830000000004183000000000418608668000000000001815300000000007491237300000000000000009999123100000010000000000000BRAZZAACNOR9100
012024100802CSED3       010CRUZEIRO EDUON      NM   R$  000000000032300000000003330000000000319000000000032600000000003280000000000327000000000032800671000000000000400100000000000130547100000000000000009999123100000010000000000000BRCSEDACNOR9105
012024100802ENEV3       010ENEVA       ON      NM   R$  000000000139100000000014120000000001371000000000139900000000014060000000001406000000000140715211000000000008371400000000011716342700000000000000009999123100000010000000000000BRENEVACNOR8106
012024100802CCRO3       010CCR SA      ON      NM   R$  000000000122000000000012340000000001211000000000122000000000012130000000001213000000000121512127000000000008581600000000010477931700000000000000009999123100000010000000000000BRCCROACNOR2145
012024100802CEAB3       010CEA MODAS   ON      NM   R$  000000000095900000000009780000000000945000000000096300000000009740000000000972000000000097404634000000000001840800000000001774354200000000000000009999123100000010000000000000BRCEABACNOR1102
012024100802CEBR3       010CEB         ON           R$  000000000187000000000018740000000001870000000000187200000000018740000000001870000000000187400002000000000000000300000000000000561800000000000000009999123100000010000000000000BRCEBRACNOR5125
012024100802CEBR5       010CEB         PNA          R$  000000000165100000000016840000000001651000000000166400000000016840000000001644000000000168400009000000000000001100000000000001830700000000000000009999123100000010000000000000BRCEBRACNPA8124
012024100802CEBR6       010CEB         PNB          R$  000000000179000000000018080000000001779000000000178700000000018010000000001780000000000180100024000000000000005300000000000009475400000000000000009999123100000010000000000000BRCEBRACNPB6124
012024100802CEEB3       010COELBA      ON  EJ       R$  000000000387000000000038800000000003820000000000384500000000038710000000003870000000000398600009000000000000000900000000000003461100000000000000009999123100000010000000000000BRCEEBACNOR3200
012024100802CGAS5       010COMGAS      PNA          R$  000000001277500000000127750000000012775000000001277500000000127750000000012775000000001299000001000000000000000100000000000001277500000000000000009999123100000010000000000000BRCGASACNPA3161
012024100802CGRA3       010GRAZZIOTIN  ON           R$  000000000252300000000025230000000002508000000000251700000000025080000000002510000000000256600003000000000000000300000000000000755300000000000000009999123100000010000000000000BRCGRAACNOR2083
012024100802CGRA4       010GRAZZIOTIN  PN           R$  000000000253500000000025500000000002526000000000253600000000025500000000002539000000000255000007000000000000000700000000000001775300000000000000009999123100000010000000000000BRCGRAACNPR9083
012024100802CLSA3       010CLEARSALE   ON      NM   R$  000000000095000000000009660000000000946000000000095500000000009520000000000952000000000095504517000000000002586300000000002472176500000000000000009999123100000010000000000000BRCLSAACNOR0100
012024100802CLSC4       010CELESC      PN      N2   R$  000000000817000000000081700000000008170000000000817000000000081700000000008120000000000821900001000000000000000100000000000000817000000000000000009999123100000010000000000000BRCLSCACNPR3132
012024100802CMIG3       010CEMIG       ON      N1   R$  000000000143800000000014380000000001410000000000142000000000014200000000001419000000000142400567000000000000121600000000000172736600000000000000009999123100000010000000000000BRCMIGACNOR6244
012024100802CMIG4       010CEMIG       PN      N1   R$  000000000111400000000011200000000001107000000000111400000000011160000000001115000000000111621425000000000010417200000000011612374100000000000000009999123100000010000000000000BRCMIGACNPR3245
012024100802EALT3       010ACO ALTONA  ON           R$  000000000146000000000014600000000001460000000000146000000000014600000000001460000000000149500005000000000000000800000000000001168000000000000000009999123100000010000000000000BREALTACNOR4138
012024100802EALT4       010ACO ALTONA  PN           R$  000000000138800000000013880000000001376000000000138200000000013850000000001376000000000138500034000000000000005100000000000007050400000000000000009999123100000010000000000000BREALTACNPR1138
012024100802ECOR3       010ECORODOVIAS ON      NM   R$  000000000068300000000006930000000000672000000000068400000000006900000000000689000000000069205798000000000002771300000000001897629500000000000000009999123100000010000000000000BRECORACNOR8120
012024100802EGIE3       010ENGIE BRASILON      NM   R$  000000000418100000000042160000000004162000000000419400000000041760000000004176000000000419206733000000000001217400000000005105880400000000000000009999123100000010000000000000BREGIEACNOR9127
012024100802GRND3       010GRENDENE    ON      NM   R$  000000000056500000000005660000000000557000000000055900000000005580000000000558000000000056102444000000000000787800000000000440893600000000000000009999123100000010000000000000BRGRNDACNOR3175
012024100802GUAR3       010GUARARAPES  ON      NM   R$  000000000075000000000007900000000000735000000000077100000000007700000000000770000000000077703118000000000001079700000000000832835300000000000000009999123100000010000000000000BRGUARACNOR4173
012024100802HAGA3       010HAGA S/A    ON           R$  000000000024000000000002500000000000240000000000024600000000002500000000000244000000000024900012000000000000001400000000000000344800000000000000009999123100000010000000000000BRHAGAACNOR7103
012024100802HAGA4       010HAGA S/A    PN           R$  000000000011800000000001180000000000117000000000011700000000001170000000000116000000000011800023000000000000006300000000000000741200000000000000009999123100000010000000000000BRHAGAACNPR4103
012024100802HAPV3       010HAPVIDA     ON  ATZ NM   R$  000000000039300000000004040000000000390000000000039700000000003940000000000394000000000039543937000000000045168300000000017958955000000000000000009999123100000010000000000000BRHAPVACNOR4115
012024100802HBOR3       010HELBOR      ON      NM   R$  000000000019000000000001940000000000186000000000018900000000001870000000000187000000000018800385000000000000590000000000000111946800000000000000009999123100000010000000000000BRHBORACNOR3118
012024100802JHSF3       010JHSF PART   ON  ED  NM   R$  000000000044300000000004580000000000437000000000044900000000004510000000000450000000000045209045000000000005365600000000002413379200000000000000009999123100000010000000000000BRJHSFACNOR2140
012024100802MRVE3       010MRV         ON      NM   R$  000000000076400000000007930000000000759000000000078200000000007890000000000786000000000078917756000000000012412400000000009713282900000000000000009999123100000010000000000000BRMRVEACNOR2127
012024100802AVLL3       010ALPHAVILLE  ON      NM   R$  000000000031200000000003140000000000312000000000031200000000003140000000000307000000000031800018000000000000030200000000000009422800000000000000009999123100000010000000000000BRAVLLACNOR5103
012024100802AZEV3       010AZEVEDO     ON           R$  000000000012900000000001310000000000128000000000012900000000001290000000000129000000000013000485000000000000412800000000000053368400000000000000009999123100000010000000000000BRAZEVACNOR0121
012024100802AZEV4       010AZEVEDO     PN           R$  000000000012600000000001280000000000124000000000012600000000001260000000000126000000000012701195000000000001808000000000000228326200000000000000009999123100000010000000000000BRAZEVACNPR7121
012024100802AZUL4       010AZUL        PN      N2   R$  000000000066000000000007000000000000618000000000066300000000006180000000000618000000000061930851000000000071867100000000047674210500000000000000009999123100000010000000000000BRAZULACNPR4103
012024100802BRSR3       010BANRISUL    ON      N1   R$  000000000134500000000013450000000001313000000000132100000000013310000000001317000000000133100052000000000000008200000000000010833400000000000000009999123100000010000000000000BRBRSRACNOR3189
012024100802BRSR5       010BANRISUL    PNA     N1   R$  000000000173000000000017300000000001730000000000173000000000017300000000001505000000000173000001000000000000000100000000000000173000000000000000009999123100000010000000000000BRBRSRACNPA6193
012024100802BRSR6       010BANRISUL    PNB     N1   R$  000000000112500000000011350000000001116000000000112400000000011170000000001117000000000112004087000000000001130400000000001270781900000000000000009999123100000010000000000000BRBRSRACNPB4192
012024100802BSLI3       010BRB BANCO   ON           R$  000000000096100000000009610000000000961000000000096100000000009610000000000908000000000096200002000000000000000200000000000000192200000000000000009999123100000010000000000000BRBSLIACNOR5194
012024100802BSLI4       010BRB BANCO   PN           R$  000000000094800000000009480000000000948000000000094800000000009480000000000870000000000093900001000000000000000200000000000000189600000000000000009999123100000010000000000000BRBSLIACNPR2194
012024100802CYRE3       010CYRELA REALTON      NM   R$  000000000210900000000021830000000002098000000000216300000000021820000000002176000000000218313413000000000005545700000000011999960800000000000000009999123100000010000000000000BRCYREACNOR7140
012024100802GFSA3       010GAFISA      ON      NM   R$  000000000020000000000002040000000000197000000000020000000000001990000000000198000000000019902259000000000004172900000000000835281600000000000000009999123100000010000000000000BRGFSAACNOR3125
012024100802GGBR3       010GERDAU      ON      N1   R$  000000000171000000000017100000000001672000000000168200000000016770000000001677000000000169000195000000000000022800000000000038372300000000000000009999123100000010000000000000BRGGBRACNOR1193
012024100802GGBR4       010GERDAU      PN      N1   R$  000000000189800000000019190000000001885000000000190800000000019080000000001907000000000191319706000000000011291200000000021544888500000000000000009999123100000010000000000000BRGGBRACNPR8193
012024100802PRNR3       010PRINER      ON      NM   R$  000000000122900000000012320000000001210000000000122000000000012250000000001220000000000122600690000000000000218800000000000267109400000000000000009999123100000010000000000000BRPRNRACNOR4109
012024100802PSSA3       010PORTO SEGUROON  EJ  NM   R$  000000000371000000000037420000000003695000000000372800000000037340000000003732000000000374106710000000000001569900000000005852942000000000000000009999123100000010000000000000BRPSSAACNOR7156
012024100802PTBL3       010PORTOBELLO  ON      NM   R$  000000000045200000000004720000000000452000000000046400000000004690000000000467000000000046900642000000000000167300000000000077732800000000000000009999123100000010000000000000BRPTBLACNOR8132
012024100802PTNT3       010PETTENATI   ON           R$  000000000095400000000009830000000000954000000000096800000000009830000000000941000000000097600002000000000000000200000000000000193700000000000000009999123100000010000000000000BRPTNTACNOR6042
012024100802PTNT4       010PETTENATI   PN           R$  000000000065700000000006580000000000642000000000065000000000006420000000000642000000000065000027000000000000007400000000000004814500000000000000009999123100000010000000000000BRPTNTACNPR3047
012024100802QUAL3       010QUALICORP   ON      NM   R$  000000000020200000000002080000000000199000000000020400000000002060000000000205000000000020603446000000000004745500000000000970422100000000000000009999123100000010000000000000BRQUALACNOR6120
012024100802RADL3       010RAIADROGASILON  EDJ NM   R$  000000000250100000000025330000000002493000000000251000000000024940000000002494000000000249517067000000000004964600000000012465555800000000000000009999123100000010000000000000BRRADLACNOR0158
012024100802SMFT3       010SMART FIT   ON      NM   R$  000000000215000000000022360000000002142000000000221900000000022300000000002229000000000223405789000000000001148800000000002550293700000000000000009999123100000010000000000000BRSMFTACNOR1112
012024100802MBLY3       010MOBLY       ON      NM   R$  000000000023000000000002360000000000228000000000023000000000002320000000000231000000000023200393000000000000324200000000000074870500000000000000009999123100000010000000000000BRMBLYACNOR5100
012024100802MDIA3       010M.DIASBRANCOON      NM   R$  000000000265900000000026820000000002612000000000265200000000026620000000002662000000000266403718000000000000781100000000002072228200000000000000009999123100000010000000000000BRMDIAACNOR7136
012024100802MDNE3       010MOURA DUBEUXON      NM   R$  000000000160900000000016350000000001553000000000158400000000015810000000001579000000000158206817000000000001771400000000002807381000000000000000009999123100000010000000000000BRMDNEACNOR9100
012024100802MEAL3       010IMC S/A     ON      NM   R$  000000000013900000000001420000000000137000000000013900000000001370000000000137000000000013800198000000000000342200000000000047568400000000000000009999123100000010000000000000BRMEALACNOR9105
012024100802RSUL4       010RIOSULENSE  PN           R$  000000000617000000000061850000000006149000000000616300000000061490000000006003000000000615000016000000000000002700000000000016641100000000000000009999123100000010000000000000BRRSULACNPR3114
012024100802SANB11      010SANTANDER BRUNT          R$  000000000286900000000028690000000002833000000000285400000000028680000000002856000000000286808868000000000001571200000000004484255200000000000000009999123100000010000000000000BRSANBCDAM13165
012024100802SANB3       010SANTANDER BRON           R$  000000000136100000000013700000000001350000000000135800000000013700000000001364000000000137000192000000000000024600000000000033407500000000000000009999123100000010000000000000BRSANBACNOR8172
012024100802SANB4       010SANTANDER BRPN           R$  000000000150300000000015030000000001484000000000149500000000014930000000001493000000000150300208000000000000032200000000000048148700000000000000009999123100000010000000000000BRSANBACNPR5172
012024100802UCAS3       010UNICASA     ON      NM   R$  000000000021900000000002200000000000217000000000021800000000002190000000000218000000000021900046000000000000011800000000000002574100000000000000009999123100000010000000000000BRUCASACNOR1113
012024100802UGPA3       010ULTRAPAR    ON      NM   R$  000000000209200000000021210000000002080000000000209300000000020980000000002094000000000209810084000000000003565200000000007464840100000000000000009999123100000010000000000000BRUGPAACNOR8156
012024100802UNIP3       010UNIPAR      ON           R$  000000000463300000000046710000000004567000000000459600000000045800000000004571000000000460500036000000000000003800000000000017466800000000000000009999123100000010000000000000BRUNIPACNOR7206
012024100802UNIP5       010UNIPAR      PNA          R$  000000000470000000000047000000000004700000000000472000000000047000000000004700000000000476000003000000000000000300000000000001416000000000000000009999123100000010000000000000BRUNIPACNPA0208
012024100802UNIP6       010UNIPAR      PNB          R$  000000000464000000000046920000000004587000000000463900000000046280000000004616000000000462800938000000000000150900000000000700079200000000000000009999123100000010000000000000BRUNIPACNPB8206
012024100802USIM3       010USIMINAS    ON      N1   R$  000000000060200000000006030000000000581000000000059000000000005910000000000589000000000059201087000000000000585200000000000345407300000000000000009999123100000010000000000000BRUSIMACNOR3167
012024100802USIM5       010USIMINAS    PNA     N1   R$  000000000061200000000006140000000000596000000000060100000000006020000000000602000000000060312880000000000021941200000000013199559100000000000000009999123100000010000000000000BRUSIMACNPA6169
012024100802VSTE3       010VESTE       ON      NM   R$  000000000106000000000010790000000001040000000000105100000000010400000000001020000000000104000069000000000000018800000000000019768600000000000000009999123100000010000000000000BRVSTEACNOR5103
012024100802VIVA3       010VIVARA S.A. ON      NM   R$  000000000275100000000028190000000002742000000000279500000000028090000000002806000000000280907007000000000001672500000000004675868700000000000000009999123100000010000000000000BRVIVAACNOR0107
012024100802VIVR3       010VIVER       ON      NM   R$  000000000017200000000001730000000000170000000000017100000000001710000000000171000000000017200034000000000000018400000000000003153500000000000000009999123100000010000000000000BRVIVRACNOR4123
012024100802VIVT3       010TELEF BRASILON           R$  000000000538400000000054630000000005352000000000542100000000054130000000005412000000000542711731000000000002170200000000011765225100000000000000009999123100000010000000000000BRVIVTACNOR0184
012024100802VLID3       010VALID       ON      NM   R$  000000000228200000000022820000000002215000000000223100000000022150000000002215000000000223001754000000000000244300000000000545095600000000000000009999123100000010000000000000BRVLIDACNOR5144
012024100802NGRD3       010NEOGRID     ON  EBG NM   R$  000000000280000000000031040000000002771000000000295600000000031000000000003100000000000312600813000000000000121800000000000360097700000000000000009999123100000010000000000000BRNGRDACNOR3106
012024100802NINJ3       010GETNINJAS   ON      NM   R$  000000000047000000000004720000000000468000000000046900000000004720000000000469000000000047200029000000000000005700000000000002675800000000000000009999123100000010000000000000BRNINJACNOR5101
012024100802NORD3       010NORDON MET  ON           R$  000000000082000000000008200000000000820000000000082000000000008200000000000820000000000089900005000000000000001400000000000001148000000000000000009999123100000010000000000000BRNORDACNOR7135
012024100807NUTR3       010NUTRIPLANT  ON      MA   R$  000000000045900000000004630000000000458000000000046000000000004590000000000458000000000046200014000000000000001400000000000000644200000000000000009999123100000010000000000000BRNUTRACNOR0104
012024100807TXRX4       010TEX RENAUX  PN           R$  000000000022600000000002290000000000226000000000022700000000002290000000000227000000000023000002000000000000000200000000000000045500000000000000009999123100000010000000000000BRTXRXACNPR0142
012024100808CTSA3       010SANTANENSE  ON           R$  000000000022100000000002210000000000221000000000022100000000002210000000000221000000000022300006000000000000000900000000000000198900000000000000009999123100000010000000000000BRCTSAACNOR3062
012024100808CTSA4       010SANTANENSE  PN           R$  000000000011900000000001190000000000119000000000011900000000001190000000000119000000000012000011000000000000004300000000000000511700000000000000009999123100000010000000000000BRCTSAACNPR0062
012024100808HOOT4       010HOTEIS OTHONPN           R$  000000000022400000000002240000000000224000000000022400000000002240000000000224000000000022500006000000000000003900000000000000873600000000000000009999123100000010000000000000BRHOOTACNPR9015
012024100808ATMP3       010ATMASA      ON           R$  000000000014000000000001470000000000140000000000014300000000001470000000000142000000000014500015000000000000012500000000000001799900000000000000009999123100000010000000000000BRATMPACNOR8100
012024100808LIGT3       010LIGHT S/A   ON      NM   R$  000000000065000000000006590000000000633000000000064200000000006330000000000633000000000063401358000000000000330600000000000212395100000000000000009999123100000010000000000000BRLIGTACNOR2124
012024100808AGXY3       010AGROGALAXY  ON      NM   R$  000000000005800000000000590000000000058000000000005800000000000590000000000058000000000005900179000000000000064200000000000003745900000000000000009999123100000010000000000000BRAGXYACNOR4103
012024100808PMAM3       010PARANAPANEMAON  ES  NM   R$  000000000013900000000001400000000000135000000000013600000000001350000000000134000000000013500233000000000000178800000000000024467900000000000000009999123100000010000000000000BRPMAMACNOR3040
012024100808RNEW11      010RENOVA      UNT     N2   R$  000000000030700000000003110000000000306000000000030800000000003100000000000306000000000032000032000000000000006600000000000002036600000000000000009999123100000010000000000000BRRNEWCDAM15110
012024100808RNEW3       010RENOVA      ON      N2   R$  000000000010500000000001060000000000101000000000010200000000001010000000000101000000000010300115000000000000082100000000000008421500000000000000009999123100000010000000000000BRRNEWACNOR8110
012024100808RNEW4       010RENOVA      PN      N2   R$  000000000010500000000001050000000000100000000000010200000000001020000000000102000000000010300226000000000000342000000000000034886700000000000000009999123100000010000000000000BRRNEWACNPR5110
012024100808RPMG3       010PET MANGUINHON           R$  000000000030200000000003090000000000300000000000030200000000003050000000000300000000000030500086000000000000021800000000000006604300000000000000009999123100000010000000000000BRRPMGACNOR9194
012024100808OIBR3       010OI          ON      N1   R$  000000000048600000000004960000000000485000000000049000000000004930000000000487000000000049300439000000000000190300000000000093307800000000000000009999123100000010000000000000BROIBRACNOR1112
012024100808OIBR4       010OI          PN      N1   R$  000000000112900000000011300000000001100000000000111500000000011160000000001116000000000112400015000000000000001600000000000001784600000000000000009999123100000010000000000000BROIBRACNPR8111
012024100808OSXB3       010OSX BRASIL  ON      NM   R$  000000000042100000000004560000000000421000000000044400000000004520000000000452000000000045700024000000000000005100000000000002264900000000000000009999123100000010000000000000BROSXBACNOR8109
012024100808AMER3       010AMERICANAS  ON      NM   R$  000000000041100000000004160000000000400000000000040600000000004040000000000403000000000040402167000000000001932500000000000786488400000000000000009999123100000010000000000000BRAMERACNOR6103
012024100808JFEN3       010JOAO FORTES ON           R$  000000000002700000000000270000000000025000000000002600000000000260000000000026000000000002700358000000000001429000000000000037387300000000000000009999123100000010000000000000BRJFENACNOR0059
012024100808RSID3       010ROSSI RESID ON      NM   R$  000000000031000000000003160000000000302000000000030500000000003050000000000305000000000031000149000000000000044400000000000013571600000000000000009999123100000010000000000000BRRSIDACNOR8120
012024100808NEXP3       010NEXPE       ON           R$  000000000040300000000004030000000000400000000000040000000000004030000000000400000000000040400006000000000000001300000000000000521000000000000000009999123100000010000000000000BRNEXPACNOR0101
012024100810EQTL9       010EQUATORIAL  ON  REC NM   R$  000000000319000000000033000000000003190000000000324600000000033000000000003231000000000330000548000000000000542700000000001762041400000000000000009999123100000010000000000000BREQTLR04OR9130
012024100810HBSA1       010HIDROVIAS   DIR ORD NM   R$  000000000001000000000000110000000000008000000000000900000000000080000000000008000000000000900899000000000001432800000000000013335600000000000000009999123100000010000000000000BRHBSAD01OR5100
012024100810CBEE1       010AMPLA ENERG DIR ORD      R$  000000000042400000000004240000000000300000000000034900000000003000000000000012000000000024000005000000000000000600000000000000209800000000000000009999123100000010000000000000BRCBEED07OR5159
012024100810DASA1       010DASA        DIR ORD NM   R$  000000000000100000000000010000000000001000000000000100000000000010000000000000000000000000100161000000000001672800000000000001672800000000000000009999123100000010000000000000BRDASAD04OR0122
012024100810PMAM1       010PARANAPANEMADIR ORD NM   R$  000000000000100000000000010000000000001000000000000100000000000010000000000000000000000000100077000000000000104200000000000000104200000000000000009999123100000010000000000000BRPMAMD05OR9039
012024100812BRCO11      010FII BRESCO  CI  ER       R$  000000001097000000000110000000000010903000000001092600000000109170000000010903000000001091706033000000000000020357000000000222438624000000000000009999123100000010000000000000BRBRCOCTF007161
012024100812BRCR11      010FII BC FUND CI  ER       R$  000000000448000000000045230000000004439000000000448000000000045030000000004503000000000451405497000000000000028993000000000129895644000000000000009999123100000010000000000000BRBRCRCTF000271
012024100812CTXT11      010FII C TEXTILCI           R$  000000000071200000000007220000000000712000000000072000000000007210000000000713000000000072100012000000000000000231000000000000166457000000000000009999123100000010000000000000BRCTXTCTF014207
012024100812CVBI11      010FII VBI CRI CI           R$  000000000891500000000089520000000008865000000000892000000000088650000000008860000000000886501887000000000000018427000000000164378248000000000000009999123100000010000000000000BRCVBICTF001169
012024100812BLMG11      010FII BLUE LOGCI  ER       R$  000000000384100000000038850000000003810000000000384200000000038200000000003811000000000382000441000000000000009384000000000036054333000000000000009999123100000010000000000000BRBLMGCTF005151
012024100812BLMO11      010FII BLUEMAC CI  ER       R$  000000000814800000000081480000000008142000000000814200000000081420000000008142000000000814800006000000000000000098000000000000797958000000000000009999123100000010000000000000BRBLMOCTF009135
012024100812FAED11      010FII ANH EDUCCI  ER       R$  000000001465600000000147760000000014494000000001452000000000145000000000014500000000001459700324000000000000000675000000000009801590000000000000009999123100000010000000000000BRFAEDCTF003282
012024100812FAMB11      010FII ALMIRANTCI           R$  000000018909800000001900000000000181300000000018634100000001832900000000183290000000018900000131000000000000000313000000000058324839000000000000009999123100000010000000000000BRFAMBCTF018316
012024100812FATN11      010FII ATHENA ICI  ER       R$  000000000905000000000090840000000009015000000000903800000000090150000000009006000000000901500397000000000000003041000000000027486356000000000000009999123100000010000000000000BRFATNCTF000156
012024100812FCFL11      010FII CAMPUSFLCI           R$  000000001136000000000114210000000011300000000001135500000000113090000000011303000000001135400147000000000000002452000000000027843945000000000000009999123100000010000000000000BRFCFLCTF009273
012024100812FIGS11      010FII GEN SHOPCI  ER       R$  000000000515000000000051500000000005065000000000509600000000050900000000005072000000000509000215000000000000001780000000000009072286000000000000009999123100000010000000000000BRFIGSCTF009232
012024100812FIIB11      010FII INDL BR CI  ER       R$  000000004951000000000497840000000049500000000004966100000000495000000000049500000000004974800093000000000000000331000000000016438100000000000000009999123100000010000000000000BRFIIBCTF001255
012024100812FIIP11B     010FII RB CAP ICI  ER  MB   R$  000000001676800000000167690000000016607000000001674900000000167390000000016606000000001673900024000000000000000086000000000001440421000000000000009999123100000010000000000000BRFIIPCTF001278
012024100812FIVN11      010FII VIDANOVACI           R$  000000000029300000000002950000000000277000000000028100000000002790000000000279000000000028900015000000000000000140000000000000039395000000000000009999123100000010000000000000BRFIVNCTF009100
012024100812FLCR11      010FII FL RECEBCI  ER       R$  000000000970500000000098400000000009619000000000970700000000096650000000009665000000000971500367000000000000002339000000000022704808000000000000009999123100000010000000000000BRFLCRCTF004146
012024100812FLMA11      010FII S F LIMACI  ER       R$  000000001389800000000138980000000013750000000001379300000000137610000000013761000000001382800053000000000000000274000000000003779448000000000000009999123100000010000000000000BRFLMACTF009346
012024100812FLRP11      010FII FLORIPA CI  ER       R$  000000020249800000002050000000000202498000000020366200000002049690000000200001000000020479400005000000000000000009000000000001832964000000000000009999123100000010000000000000BRFLRPCTF006275
012024100812FPAB11      010FII A BRANCACI           R$  000000002280100000000229990000000022500000000002267600000000229990000000021601000000002400000004000000000000000013000000000000294800000000000000009999123100000010000000000000BRFPABCTF011317
012024100812NSLU11      010FII LOURDES CI  ER       R$  000000001693500000000169980000000016600000000001673400000000168300000000016830000000001683900112000000000000002160000000000036145750000000000000009999123100000010000000000000BRNSLUCTF008315
012024100812RBDS11      010FII RBRESID2CI           R$  000000000025300000000002600000000000253000000000025900000000002600000000000280000000000031100003000000000000000012000000000000003113000000000000009999123100000010000000000000BRRBDSCTF006179
012024100812RBED11      010FII RIOB ED CI  ER       R$  000000001289000000000129980000000012876000000001290700000000128930000000012893000000001293100117000000000000000830000000000010712895000000000000009999123100000010000000000000BRRBEDCTF006168
012024100812RBFF11      010FII RIOB FF CI  ER       R$  000000000570000000000058810000000005500000000000563500000000055500000000005540000000000555001090000000000000015877000000000089472386000000000000009999123100000010000000000000BRRBFFCTF008164
012024100812RBHG11      010FII RBCRI IVCI  ER       R$  000000000803500000000081720000000007990000000000807800000000080050000000007993000000000800500384000000000000004753000000000038394819000000000000009999123100000010000000000000BRRBHGCTF002138
012024100812RBHY11      010FII RB YIELDCI  ER       R$  000000000864000000000086400000000008502000000000854300000000085770000000008520000000000857700104000000000000001202000000000010269372000000000000009999123100000010000000000000BRRBHYCTF005148
012024100812RBIR11      010FII RBRES IVCI  ER       R$  000000000823000000000082980000000008156000000000821100000000082000000000008179000000000829900014000000000000000278000000000002282679000000000000009999123100000010000000000000BRRBIRCTF007113
012024100812RBLG11      010FII RBCAP LGCI  ER       R$  000000000600000000000060000000000006000000000000600000000000060000000000005500000000000600000001000000000000000005000000000000030000000000000000009999123100000010000000000000BRRBLGCTF004150
012024100812RBOP11      010FII MERC BR CI  ER       R$  000000003680100000000378000000000036800000000003704000000000368010000000036810000000003715000029000000000000000099000000000003667032000000000000009999123100000010000000000000BRRBOPCTF009125
012024100812RBRD11      010FII RB II   CI  ER       R$  000000000368000000000036950000000003563000000000361100000000035820000000003582000000000362200128000000000000001116000000000004030501000000000000009999123100000010000000000000BRRBRDCTF008267
012024100812RBRF11      010FII RBRALPHACI           R$  000000000070400000000007080000000000702000000000070400000000007020000000000702000000000070510668000000000000572622000000000403189806000000000000009999123100000010000000000000BRRBRFCTF003190
012024100812RBRL11      010FII RBR LOG CI  ER       R$  000000000765000000000077000000000007593000000000764300000000075980000000007598000000000761000768000000000000004008000000000030635231000000000000009999123100000010000000000000BRRBRLCTF001158
012024100812RBRP11      010FII RBR PROPCI  ER       R$  000000000516300000000052310000000005155000000000519100000000051610000000005161000000000517503453000000000000021654000000000112412013000000000000009999123100000010000000000000BRRBRPCTF002177
012024100812RBRR11      010FII RBRHGRADCI           R$  000000000874400000000087990000000008690000000000874400000000087150000000008694000000000871503618000000000000040237000000000351839836000000000000009999123100000010000000000000BRRBRRCTF008183
012024100812RBRS11      010FII RIOB RR CI           R$  000000000420000000000042000000000004196000000000419600000000041960000000004196000000000420000003000000000000000159000000000000667212000000000000009999123100000010000000000000BRRBRSCTF006138
012024100812RBRX11      010FII RBR MULTCI           R$  000000000085000000000008500000000000834000000000083600000000008400000000000834000000000084005607000000000000048498000000000040577245000000000000009999123100000010000000000000BRRBRXCTF006132
012024100812RBRY11      010FII RBR PCRICI           R$  000000000960000000000096140000000009540000000000956400000000095400000000009540000000000955907318000000000000029111000000000278429640000000000000009999123100000010000000000000BRRBRYCTF004171
012024100812RBTS11      010FII RB TFO  CI  EA       R$  000000005999800000000600000000000059998000000005999900000000600000000000055007000000005999700004000000000000000010000000000000599992000000000000009999123100000010000000000000BRRBTSCTF002120
012024100812RBVA11      010FII RIOB VA CI  ER       R$  000000001015100000000101950000000010151000000001017000000000101700000000010169000000001017001312000000000000007827000000000079603687000000000000009999123100000010000000000000BRRBVACTF006170
012024100812RBVO11      010FII RIOBCRI2CI           R$  000000000103000000000010300000000000851000000000091200000000008900000000000888000000000089000572000000000000017551000000000016014856000000000000009999123100000010000000000000BRRBVOCTF007245
012024100812RCFA11      010FII GP RCFA CI           R$  000000000010800000000001080000000000104000000000010500000000001080000000000104000000000010800008000000000000000113000000000000011968000000000000009999123100000010000000000000BRRCFACTF007101
012024100812RCRB11      010FII RIOB RC CI  ER       R$  000000001289600000000130970000000012896000000001296600000000129640000000012964000000001304900422000000000000002785000000000036110756000000000000009999123100000010000000000000BRRCRBCTF000161
012024100812RECR11      010FII REC RECECI  ER       R$  000000000778700000000078500000000007600000000000766200000000076160000000007616000000000761705551000000000000052669000000000403580211000000000000009999123100000010000000000000BRRECRCTF004155
012024100812RECT11      010FII REC RENDCI  ER       R$  000000000320000000000032330000000003155000000000318500000000031600000000003160000000000316200612000000000000007268000000000023151406000000000000009999123100000010000000000000BRRECTCTF000171
012024100812RECX11      010FII REC FOF CI           R$  000000000679900000000067990000000006500000000000659700000000067990000000006500000000000679900012000000000000000926000000000006109352000000000000009999123100000010000000000000BRRECXCTF002140
012024100812RELG11      010FII REC LOG CI  ER       R$  000000000555400000000059000000000005554000000000566200000000056700000000005672000000000571900084000000000000001127000000000006381844000000000000009999123100000010000000000000BRRELGCTF008139
012024100812TEPP11      010FII TEL PROPCI  ER       R$  000000000860100000000086500000000008537000000000859000000000085890000000008588000000000858902931000000000000008404000000000072194774000000000000009999123100000010000000000000BRTEPPCTF006154
012024100812TGAR11      010FII TG ATIVOCI  ER       R$  000000001080100000000108210000000010605000000001071400000000106090000000010609000000001062912774000000000000093096000000000997469344000000000000009999123100000010000000000000BRTGARCTF009195
012024100812MXRF11      010FII MAXI RENCI  ER       R$  000000000099000000000009930000000000985000000000098700000000009860000000000986000000000098741098000000000001240212000000001225042884000000000000009999123100000010000000000000BRMXRFCTF008257
012024100812NAVT11      010FII NAVI TOTCI           R$  000000000854900000000086000000000008450000000000848900000000085000000000008460000000000851200095000000000000001613000000000013693960000000000000009999123100000010000000000000BRNAVTCTF015142
012024100812BPFF11      010FII ABSOLUTOCI  ER       R$  000000000646000000000065510000000006424000000000645800000000064240000000006420000000000642400362000000000000004120000000000026608791000000000000009999123100000010000000000000BRBPFFCTF002240
012024100812BPML11      010FII BTG SHOPCI           R$  000000000840000000000084000000000008228000000000827600000000082280000000008228000000000823201175000000000000007472000000000061838856000000000000009999123100000010000000000000BRBPMLCTF006134
