00COTAHIST.2024BOVESPA 20241030                                                                                                                                                                                                                      
012024103002MATD3       010MATER DEI   ON      NM   R$  000000000041900000000004330000000000417000000000042800000000004270000000000427000000000043201127000000000000367600000000000157635500000000000000009999123100000010000000000000BRMATDACNOR4104
012024103002SNSY3       010SANSUY      ON           R$  000000000115000000000011980000000001100000000000112500000000011300000000001090000000000113000014000000000000003600000000000004052800000000000000009999123100000010000000000000BRSNSYACNOR2113
012024103002SNSY5       010SANSUY      PNA          R$  000000000046200000000005000000000000462000000000049400000000004990000000000482000000000049900017000000000000005700000000000002818100000000000000009999123100000010000000000000BRSNSYACNPA5111
012024103002SOJA3       010BOA SAFRA   ON      NM   R$  000000000123500000000012630000000001229000000000124900000000012380000000001238000000000123902353000000000000507200000000000633645600000000000000009999123100000010000000000000BRSOJAACNOR9106
012024103002SRNA3       010SERENA      ON      NM   R$  000000000083700000000008520000000000835000000000084200000000008410000000000837000000000084205047000000000002255600000000001899987800000000000000009999123100000010000000000000BRSRNAACNOR4100
012024103002ZAMP3       010ZAMP S.A.   ON           R$  000000000024400000000002490000000000242000000000024400000000002430000000000242000000000024400998000000000000321600000000000078689500000000000000009999123100000010000000000000BRZAMPACNOR5101
012024103002SAPR11      010SANEPAR     UNT     N2   R$  000000000270300000000027320000000002699000000000271500000000027070000000002707000000000271502562000000000000396200000000001075946700000000000000009999123100000010000000000000BRSAPRCDAM13118
012024103002SAPR3       010SANEPAR     ON      N2   R$  000000000051000000000005270000000000510000000000051800000000005270000000000516000000000052700324000000000000102900000000000053364100000000000000009999123100000010000000000000BRSAPRACNOR9159
012024103002SAPR4       010SANEPAR     PN      N2   R$  000000000055000000000005540000000000548000000000055000000000005500000000000549000000000055103174000000000001134200000000000624244900000000000000009999123100000010000000000000BRSAPRACNPR6159
012024103002SBFG3       010GRUPO SBF   ON      NM   R$  000000000143900000000014820000000001437000000000146700000000014650000000001465000000000147003853000000000001048700000000001539336900000000000000009999123100000010000000000000BRSBFGACNOR1103
012024103002SBSP3       010SABESP      ON      NM   R$  000000000919100000000093170000000009191000000000925700000000092700000000009269000000000927011311000000000002249700000000020825575500000000000000009999123100000010000000000000BRSBSPACNOR5161
012024103002VALE3       010VALE        ON      NM   R$  000000000625000000000062690000000006212000000000624300000000062470000000006247000000000624822559000000000012263300000000076567534700000000000000009999123100000010000000000000BRVALEACNOR0211
012024103002WEST3       010WESTWING    ON      NM   R$  000000000008300000000000830000000000075000000000007700000000000790000000000078000000000007900130000000000000321100000000000024843700000000000000009999123100000010000000000000BRWESTACNOR3100
012024103002WHRL3       010WHIRLPOOL   ON           R$  000000000041500000000004160000000000413000000000041400000000004160000000000414000000000041600009000000000000003200000000000001326400000000000000009999123100000010000000000000BRWHRLACNOR5129
012024103002WHRL4       010WHIRLPOOL   PN           R$  000000000044500000000004490000000000444000000000044500000000004440000000000444000000000044800027000000000000003500000000000001558300000000000000009999123100000010000000000000BRWHRLACNPR2129
012024103002WIZC3       010WIZ CO      ON      NM   R$  000000000057700000000005860000000000577000000000058300000000005840000000000584000000000058600959000000000000252600000000000147307300000000000000009999123100000010000000000000BRWIZCACNOR5102
012024103002WLMM3       010WLM IND COM ON           R$  000000000269800000000027000000000002698000000000269900000000027000000000002550000000000280000003000000000000001500000000000004048600000000000000009999123100000010000000000000BRWLMMACNOR6119
012024103002WLMM4       010WLM IND COM PN           R$  000000000302300000000031000000000003023000000000307400000000031000000000003100000000000319000003000000000000000300000000000000922300000000000000009999123100000010000000000000BRWLMMACNPR3119
012024103002YDUQ3       010YDUQS PART  ON      NM   R$  000000000105400000000011030000000001054000000000108800000000010850000000001085000000000108707193000000000002724400000000002965381400000000000000009999123100000010000000000000BRYDUQACNOR3105
012024103002DASA3       010DASA        ON      NM   R$  000000000026000000000002630000000000257000000000026000000000002630000000000261000000000026301169000000000000499800000000000130211100000000000000009999123100000010000000000000BRDASAACNOR1123
012024103002ITSA4       010ITAUSA      PN      N1   R$  000000000106800000000010760000000001064000000000106700000000010670000000001067000000000106816175000000000012675500000000013531024500000000000000009999123100000010000000000000BRITSAACNPR7443
012024103002MELK3       010MELNICK     ON      NM   R$  000000000035800000000003650000000000357000000000036100000000003650000000000364000000000036500386000000000000207500000000000075068700000000000000009999123100000010000000000000BRMELKACNOR8111
012024103002MGEL4       010MANGELS INDLPN           R$  000000000083400000000008340000000000781000000000079900000000007840000000000783000000000079800005000000000000000500000000000000399900000000000000009999123100000010000000000000BRMGELACNPR3147
012024103002MGLU3       010MAGAZ LUIZA ON      NM   R$  000000000092500000000009680000000000917000000000094800000000009600000000000959000000000096016898000000000025399500000000024078750300000000000000009999123100000010000000000000BRMGLUACNOR2125
012024103002BLAU3       010BLAU        ON      NM   R$  000000000143000000000014820000000001425000000000146100000000014680000000001461000000000146901117000000000000168500000000000246336600000000000000009999123100000010000000000000BRBLAUACNOR8115
012024103002AALR3       010ALLIAR      ON      NM   R$  000000000150400000000015180000000001470000000000150000000000014970000000001470000000000149800387000000000000050900000000000076384100000000000000009999123100000010000000000000BRAALRACNOR6102
012024103002ABCB4       010ABC BRASIL  PN      N2   R$  000000000211000000000021240000000002104000000000211700000000021120000000002112000000000212002098000000000000442700000000000937345700000000000000009999123100000010000000000000BRABCBACNPR4146
012024103002BMEB3       010MERCANTIL   ON      N1   R$  000000000373700000000037370000000003610000000000363100000000036200000000003502000000000360000009000000000000001200000000000004357400000000000000009999123100000010000000000000BRBMEBACNOR8206
012024103002BMEB4       010MERCANTIL   PN      N1   R$  000000000394900000000042270000000003948000000000407300000000042270000000004154000000000423000175000000000000022900000000000093292800000000000000009999123100000010000000000000BRBMEBACNPR5211
012024103002BMGB4       010BANCO BMG   PN  EJ  N1   R$  000000000040300000000004180000000000403000000000040900000000004090000000000407000000000040901532000000000000555000000000000227425200000000000000009999123100000010000000000000BRBMGBACNPR0111
012024103002BMOB3       010BEMOBI TECH ON      NM   R$  000000000151800000000015780000000001518000000000155900000000015620000000001554000000000156301457000000000000216800000000000338158600000000000000009999123100000010000000000000BRBMOBACNOR7103
012024103002ABEV3       010AMBEV S/A   ON           R$  000000000130500000000013090000000001290000000000129600000000012930000000001293000000000129423694000000000021176300000000027464760700000000000000009999123100000010000000000000BRABEVACNOR1128
012024103002BIOM3       010BIOMM       ON      MA   R$  000000000088800000000009050000000000880000000000089300000000008840000000000884000000000088900183000000000000048300000000000043174400000000000000009999123100000010000000000000BRBIOMACNOR2112
012024103002BOBR4       010BOMBRIL     PN           R$  000000000027700000000002850000000000277000000000028000000000002800000000000279000000000028000050000000000000024700000000000006937400000000000000009999123100000010000000000000BRBOBRACNPR3128
012024103002BRIT3       010BRISANET    ON      NM   R$  000000000032500000000003250000000000315000000000032000000000003200000000000320000000000032100535000000000000288900000000000092533000000000000000009999123100000010000000000000BRBRITACNOR0103
012024103002BRKM3       010BRASKEM     ON      N1   R$  000000000173200000000017450000000001715000000000173600000000017150000000001715000000000173900143000000000000035200000000000061132100000000000000009999123100000010000000000000BRBRKMACNOR1119
012024103002BRKM5       010BRASKEM     PNA     N1   R$  000000000179900000000018030000000001761000000000178000000000017680000000001768000000000176903966000000000001660700000000002957677700000000000000009999123100000010000000000000BRBRKMACNPA4121
012024103002EQMA3B      010EQTLMARANHAOON      MB   R$  000000000229000000000022900000000002251000000000226100000000022520000000002264000000000229900004000000000000000400000000000000904500000000000000009999123100000010000000000000BREQMAACNOR8108
012024103002EQPA3       010EQTL PARA   ON           R$  000000000058500000000005970000000000583000000000058900000000005830000000000583000000000059400010000000000000001100000000000000648200000000000000009999123100000010000000000000BREQPAACNOR1111
012024103002EQTL3       010EQUATORIAL  ON      NM   R$  000000000322100000000032520000000003199000000000322500000000032310000000003230000000000323114444000000000007092100000000022878912500000000000000009999123100000010000000000000BREQTLACNOR0131
012024103002IFCM3       010INFRACOMM   ON      NM   R$  000000000001400000000000140000000000013000000000001300000000000140000000000013000000000001400627000000000001835000000000000025127700000000000000009999123100000010000000000000BRIFCMACNOR8101
012024103002IGTI11      010IGUATEMI S.AUNT     N1   R$  000000000210000000000021350000000002100000000000212200000000021200000000002119000000000212105846000000000001772600000000003763122900000000000000009999123100000010000000000000BRIGTICDAM16106
012024103002IGTI3       010IGUATEMI S.AON      N1   R$  000000000025400000000002600000000000254000000000025700000000002600000000000255000000000026000058000000000000034800000000000008962200000000000000009999123100000010000000000000BRIGTIACNOR8106
012024103002INEP3       010INEPAR      ON           R$  000000000015500000000001660000000000153000000000015500000000001530000000000152000000000015300070000000000000036800000000000005726700000000000000009999123100000010000000000000BRINEPACNOR1143
012024103002INEP4       010INEPAR      PN           R$  000000000015400000000001600000000000152000000000015300000000001520000000000152000000000015400039000000000000021500000000000003309300000000000000009999123100000010000000000000BRINEPACNPR8143
012024103002CXSE3       010CAIXA SEGURION      NM   R$  000000000144800000000014660000000001445000000000145200000000014450000000001445000000000145008016000000000002661100000000003866197300000000000000009999123100000010000000000000BRCXSEACNOR7107
012024103002CYRE3       010CYRELA REALTON      NM   R$  000000000212200000000021870000000002119000000000216600000000021870000000002183000000000218718258000000000011706600000000025362800600000000000000009999123100000010000000000000BRCYREACNOR7140
012024103002ENEV3       010ENEVA       ON      NM   R$  000000000132300000000013350000000001315000000000132000000000013210000000001317000000000132309190000000000012097100000000015972105400000000000000009999123100000010000000000000BRENEVACNOR8106
012024103002ENGI11      010ENERGISA    UNT     N2   R$  000000000425800000000043330000000004258000000000430700000000042990000000004296000000000429907716000000000001599500000000006890620500000000000000009999123100000010000000000000BRENGICDAM16136
012024103002ENGI3       010ENERGISA    ON      N2   R$  000000000129400000000012980000000001275000000000128800000000012750000000001275000000000130800021000000000000002300000000000002962400000000000000009999123100000010000000000000BRENGIACNOR0146
012024103002ENGI4       010ENERGISA    PN      N2   R$  000000000075000000000007600000000000750000000000075500000000007590000000000752000000000076000035000000000000010000000000000007554700000000000000009999123100000010000000000000BRENGIACNPR7142
012024103002ENJU3       010ENJOEI      ON      NM   R$  000000000012500000000001280000000000124000000000012700000000001280000000000127000000000012800630000000000000255700000000000032483300000000000000009999123100000010000000000000BRENJUACNOR9100
012024103002EPAR3       010EMBPAR S/A  ON           R$  000000000056300000000005630000000000554000000000055500000000005580000000000555000000000055800020000000000000006800000000000003777000000000000000009999123100000010000000000000BREPARACNOR9105
012024103002INTB3       010INTELBRAS   ON      NM   R$  000000000198000000000019930000000001938000000000195700000000019410000000001940000000000194105526000000000001634200000000003198783300000000000000009999123100000010000000000000BRINTBACNOR9112
012024103002IRBR3       010IRBBRASIL REON      NM   R$  000000000439000000000044800000000004296000000000436100000000043140000000004312000000000431503857000000000000905600000000003950028100000000000000009999123100000010000000000000BRIRBRACNOR4111
012024103002BEES3       010BANESTES    ON           R$  000000000086800000000008740000000000864000000000086900000000008660000000000866000000000087300060000000000000008000000000000006957400000000000000009999123100000010000000000000BRBEESACNOR9396
012024103002BEES4       010BANESTES    PN           R$  000000000090000000000009050000000000887000000000089300000000008870000000000885000000000089200017000000000000002300000000000002054200000000000000009999123100000010000000000000BRBEESACNPR6321
012024103002BHIA3       010CASAS BAHIA ON      NM   R$  000000000040900000000004180000000000406000000000041300000000004170000000000416000000000041701569000000000002305000000000000953625700000000000000009999123100000010000000000000BRBHIAACNOR1102
012024103002BRBI11      010BR PARTNERS UNT     N2   R$  000000000149800000000015090000000001482000000000149400000000015050000000001502000000000150501163000000000000188300000000000281357600000000000000009999123100000010000000000000BRBRBICDAM10110
012024103002BRFS3       010BRF SA      ON      NM   R$  000000000256500000000026040000000002534000000000255500000000025500000000002550000000000255812317000000000004825200000000012332107500000000000000009999123100000010000000000000BRBRFSACNOR8122
012024103002CSUD3       010CSU DIGITAL ON      NM   R$  000000000173500000000017850000000001714000000000176100000000017850000000001755000000000179000155000000000000026500000000000046689500000000000000009999123100000010000000000000BRCSUDACNOR5111
012024103002CURY3       010CURY S/A    ON      NM   R$  000000000252600000000025370000000002508000000000252200000000025170000000002517000000000252208202000000000002177900000000005493959700000000000000009999123100000010000000000000BRCURYACNOR3110
012024103002CVCB3       010CVC BRASIL  ON      NM   R$  000000000020600000000002170000000000200000000000021000000000002160000000000216000000000021707305000000000022352300000000004710133400000000000000009999123100000010000000000000BRCVCBACNOR1116
012024103002ELMD3       010ELETROMIDIA ON      NM   R$  000000000180200000000018250000000001793000000000180900000000018120000000001797000000000181300466000000000000096000000000000173722200000000000000009999123100000010000000000000BRELMDACNOR3101
012024103002EMAE4       010EMAE        PN           R$  000000000395700000000040140000000003957000000000397300000000040140000000003950000000000401500004000000000000000400000000000001589400000000000000009999123100000010000000000000BREMAEACNPR1126
012024103002MWET4       010WETZEL S/A  PN           R$  000000000107900000000010950000000001000000000000103200000000010340000000000980000000000108700006000000000000000700000000000000722800000000000000009999123100000010000000000000BRMWETACNPR3118
012024103002MYPK3       010IOCHP-MAXIONON      NM   R$  000000000102000000000010480000000001020000000000103900000000010390000000001033000000000103902172000000000000539400000000000560763400000000000000009999123100000010000000000000BRMYPKACNOR7156
012024103002NEOE3       010NEOENERGIA  ON      NM   R$  000000000192500000000019320000000001901000000000191000000000019100000000001907000000000191302821000000000000653900000000001249476700000000000000009999123100000010000000000000BRNEOEACNOR3123
012024103002NGRD3       010NEOGRID     ON      NM   R$  000000000242200000000024750000000002380000000000243500000000024010000000002400000000000247700063000000000000020200000000000049191800000000000000009999123100000010000000000000BRNGRDACNOR3106
012024103002NINJ3       010GETNINJAS   ON      NM   R$  000000000044900000000004600000000000447000000000044900000000004570000000000434000000000045700036000000000000429900000000000193082700000000000000009999123100000010000000000000BRNINJACNOR5101
012024103002NTCO3       010GRUPO NATURAON      NM   R$  000000000140700000000014290000000001397000000000140700000000014020000000001402000000000140309654000000000007294500000000010267859800000000000000009999123100000010000000000000BRNTCOACNOR5106
012024103002AZZA3       010AZZAS 2154  ON      NM   R$  000000000403100000000040780000000004015000000000405200000000040700000000004066000000000407304670000000000001411900000000005722212600000000000000009999123100000010000000000000BRAZZAACNOR9100
012024103002B3SA3       010B3          ON      NM   R$  000000000108500000000010870000000001072000000000107700000000010780000000001076000000000107820923000000000026539600000000028596113200000000000000009999123100000010000000000000BRB3SAACNOR6134
012024103002BBSE3       010BBSEGURIDADEON      NM   R$  000000000345000000000034670000000003442000000000345300000000034500000000003450000000000345110821000000000003191400000000011020469100000000000000009999123100000010000000000000BRBBSEACNOR5125
012024103002RAPT4       010RANDON PART PN      N1   R$  000000000108000000000010920000000001079000000000108500000000010860000000001085000000000108603980000000000001003600000000001089767000000000000000009999123100000010000000000000BRRAPTACNPR4163
012024103002SYNE3       010SYN PROP TECON      NM   R$  000000000083800000000008440000000000836000000000084200000000008440000000000841000000000084400382000000000000154300000000000129984300000000000000009999123100000010000000000000BRSYNEACNOR2103
012024103002TAEE11      010TAESA       UNT     N2   R$  000000000345000000000034810000000003449000000000347200000000034780000000003477000000000348003848000000000001025300000000003560075900000000000000009999123100000010000000000000BRTAEECDAM10148
012024103002TAEE3       010TAESA       ON      N2   R$  000000000114100000000011520000000001141000000000114800000000011510000000001147000000000115100247000000000000053100000000000060972500000000000000009999123100000010000000000000BRTAEEACNOR9148
012024103002TAEE4       010TAESA       PN      N2   R$  000000000115100000000011590000000001151000000000115500000000011550000000001155000000000115800413000000000000110200000000000127295100000000000000009999123100000010000000000000BRTAEEACNPR6148
012024103002VAMO3       010VAMOS       ON      NM   R$  000000000062500000000006440000000000621000000000063600000000006380000000000638000000000063910207000000000007690400000000004891977700000000000000009999123100000010000000000000BRVAMOACNOR7105
012024103002VBBR3       010VIBRA       ON      NM   R$  000000000222500000000022560000000002222000000000224100000000022310000000002231000000000223212483000000000004407000000000009879479900000000000000009999123100000010000000000000BRVBBRACNOR1109
012024103002MBLY3       010MOBLY       ON  ES  NM   R$  000000000022000000000002270000000000218000000000022300000000002260000000000225000000000022600296000000000000347300000000000077793900000000000000009999123100000010000000000000BRMBLYACNOR5101
012024103002MDIA3       010M.DIASBRANCOON      NM   R$  000000000250500000000025280000000002494000000000250700000000025010000000002497000000000250501829000000000000371100000000000930578000000000000000009999123100000010000000000000BRMDIAACNOR7136
012024103002MDNE3       010MOURA DUBEUXON      NM   R$  000000000155600000000015890000000001555000000000157600000000015820000000001572000000000158203387000000000000597900000000000942743200000000000000009999123100000010000000000000BRMDNEACNOR9100
012024103002MEAL3       010IMC S/A     ON      NM   R$  000000000013900000000001400000000000132000000000013500000000001330000000000132000000000013300315000000000000840900000000000113846700000000000000009999123100000010000000000000BRMEALACNOR9105
012024103002PDGR3       010PDG REALT   ON      NM   R$  000000000000100000000000020000000000001000000000000100000000000010000000000001000000000000200658000000000140383100000000000143695000000000000000009999123100000010000000000000BRPDGRACNOR8119
012024103002PDTC3       010PADTEC      ON      NM   R$  000000000020500000000002090000000000201000000000020400000000002010000000000201000000000020500050000000000000016800000000000003436200000000000000009999123100000010000000000000BRPDTCACNOR3101
012024103002PEAB4       010PAR AL BAHIAPN           R$  000000000450300000000045030000000004500000000000450000000000045000000000004500000000000480000005000000000000000900000000000004050500000000000000009999123100000010000000000000BRPEABACNPR0133
012024103002PETR3       010PETROBRAS   ON      N2   R$  000000000393100000000039580000000003885000000000390900000000038880000000003888000000000388922522000000000007560600000000029559597500000000000000009999123100000010000000000000BRPETRACNOR9206
012024103002PETR4       010PETROBRAS   PN      N2   R$  000000000361200000000036370000000003585000000000361000000000035850000000003585000000000358648324000000000026144700000000094406940700000000000000009999123100000010000000000000BRPETRACNPR6214
012024103002PTNT3       010PETTENATI   ON  EDJ      R$  000000000093600000000009360000000000936000000000093600000000009360000000000936000000000099000002000000000000000200000000000000187200000000000000009999123100000010000000000000BRPTNTACNOR6043
012024103002PTNT4       010PETTENATI   PN  EDJ      R$  000000000063600000000006360000000000600000000000061700000000006300000000000617000000000063000162000000000000034300000000000021176600000000000000009999123100000010000000000000BRPTNTACNPR3048
012024103002SEER3       010SER EDUCA   ON      NM   R$  000000000063600000000006810000000000633000000000066400000000006760000000000676000000000067802654000000000000772900000000000513688100000000000000009999123100000010000000000000BRSEERACNOR5119
012024103002SHOW3       010TIME FOR FUNON      NM   R$  000000000009300000000000950000000000091000000000009100000000000910000000000091000000000009300201000000000000142500000000000013082200000000000000009999123100000010000000000000BRSHOWACNOR7105
012024103002SHUL4       010SCHULZ      PN           R$  000000000063200000000006330000000000620000000000062600000000006200000000000620000000000062600313000000000000167500000000000104899200000000000000009999123100000010000000000000BRSHULACNPR4157
012024103002SIMH3       010SIMPAR      ON      NM   R$  000000000053800000000005510000000000531000000000054500000000005480000000000546000000000054803334000000000001981400000000001080625200000000000000009999123100000010000000000000BRSIMHACNOR0107
012024103002SLCE3       010SLC AGRICOLAON      NM   R$  000000000171100000000017410000000001711000000000173300000000017350000000001732000000000173507371000000000001736700000000003011428800000000000000009999123100000010000000000000BRSLCEACNOR2125
012024103002QUAL3       010QUALICORP   ON      NM   R$  000000000020800000000002270000000000208000000000022100000000002270000000000225000000000022703528000000000008433600000000001868622200000000000000009999123100000010000000000000BRQUALACNOR6120
012024103002RADL3       010RAIADROGASILON      NM   R$  000000000239300000000024640000000002383000000000243600000000024600000000002453000000000246113908000000000005161900000000012578406100000000000000009999123100000010000000000000BRRADLACNOR0158
012024103002SMFT3       010SMART FIT   ON      NM   R$  000000000216200000000022170000000002152000000000220400000000022070000000002205000000000221505142000000000001617000000000003564945300000000000000009999123100000010000000000000BRSMFTACNOR1112
012024103002SMTO3       010SAO MARTINHOON      NM   R$  000000000253900000000026110000000002538000000000258800000000025870000000002587000000000258804785000000000000912000000000002360691100000000000000009999123100000010000000000000BRSMTOACNOR3127
012024103002PTBL3       010PORTOBELLO  ON      NM   R$  000000000042300000000004290000000000420000000000042300000000004200000000000420000000000042401234000000000000364900000000000154626400000000000000009999123100000010000000000000BRPTBLACNOR8132
012024103002SCAR3       010SAO CARLOS  ON      NM   R$  000000000211200000000022390000000002110000000000218700000000022390000000002100000000000223900068000000000000020800000000000045493400000000000000009999123100000010000000000000BRSCARACNOR7131
012024103002AZUL4       010AZUL        PN      N2   R$  000000000058500000000005990000000000573000000000058600000000005790000000000578000000000057908417000000000021445000000000012575330700000000000000009999123100000010000000000000BRAZULACNPR4103
012024103002CMIN3       010CSNMINERACAOON      N2   R$  000000000060100000000006110000000000601000000000060600000000006070000000000606000000000060805466000000000005903000000000003582179300000000000000009999123100000010000000000000BRCMINACNOR2112
012024103002COCE5       010COELCE      PNA          R$  000000000272500000000027600000000002616000000000264600000000026500000000002635000000000265000196000000000000029700000000000078596500000000000000009999123100000010000000000000BRCOCEACNPA3147
012024103002COGN3       010COGNA ON    ON      NM   R$  000000000014200000000001500000000000141000000000014600000000001460000000000145000000000014606910000000000025852100000000003782105700000000000000009999123100000010000000000000BRCOGNACNOR2105
012024103002GGPS3       010GPS         ON      NM   R$  000000000174300000000017440000000001708000000000172000000000017140000000001714000000000171806773000000000001869000000000003215789000000000000000009999123100000010000000000000BRGGPSACNOR9103
012024103002GMAT3       010GRUPO MATEUSON      NM   R$  000000000072000000000007510000000000720000000000074300000000007470000000000747000000000074804634000000000002555500000000001901029400000000000000009999123100000010000000000000BRGMATACNOR7103
012024103002GOAU3       010GERDAU MET  ON      N1   R$  000000000100600000000010200000000001006000000000101500000000010170000000001011000000000101700100000000000000016500000000000016754600000000000000009999123100000010000000000000BRGOAUACNOR1268
012024103002ALUP11      010ALUPAR      UNT     N2   R$  000000000291000000000029350000000002910000000000292600000000029350000000002935000000000293603599000000000000894000000000002616491800000000000000009999123100000010000000000000BRALUPCDAM15120
012024103002ALUP3       010ALUPAR      ON      N2   R$  000000000100000000000010040000000000990000000000099800000000010000000000000990000000000100000017000000000000003600000000000003595700000000000000009999123100000010000000000000BRALUPACNOR8120
012024103002ALUP4       010ALUPAR      PN      N2   R$  000000000095600000000009670000000000956000000000096300000000009610000000000960000000000096500036000000000000006300000000000006068400000000000000009999123100000010000000000000BRALUPACNPR5120
012024103002AMAR3       010LOJAS MARISAON      NM   R$  000000000009500000000000990000000000095000000000009600000000000960000000000096000000000009700609000000000000429200000000000041583200000000000000009999123100000010000000000000BRAMARACNOR4115
012024103002AMBP3       010AMBIPAR     ON      NM   R$  000000001323000000000137600000000013025000000001336400000000134750000000013475000000001353901273000000000000203300000000002716934500000000000000009999123100000010000000000000BRAMBPACNOR6103
012024103002ANIM3       010ANIMA       ON      NM   R$  000000000025100000000002670000000000251000000000026000000000002610000000000261000000000026203246000000000006024900000000001568929800000000000000009999123100000010000000000000BRANIMACNOR6109
012024103002GEPA4       010GER PARANAP PN           R$  000000000303100000000030310000000003031000000000303100000000030310000000002925000000000302900001000000000000000100000000000000303100000000000000009999123100000010000000000000BRGEPAACNPR9161
012024103002GFSA3       010GAFISA      ON      NM   R$  000000000016000000000001640000000000158000000000016000000000001590000000000158000000000015901610000000000004854100000000000780354200000000000000009999123100000010000000000000BRGFSAACNOR3125
012024103002GGBR3       010GERDAU      ON      N1   R$  000000000175400000000017800000000001733000000000175800000000017710000000001767000000000177100577000000000000171100000000000300855900000000000000009999123100000010000000000000BRGGBRACNOR1193
012024103002GGBR4       010GERDAU      PN      N1   R$  000000000184800000000018560000000001833000000000184000000000018420000000001841000000000184215499000000000007538800000000013878575200000000000000009999123100000010000000000000BRGGBRACNPR8193
012024103002ITUB3       010ITAUUNIBANCOON      N1   R$  000000000304500000000030640000000003032000000000304200000000030380000000003038000000000304401506000000000000351700000000001069894300000000000000009999123100000010000000000000BRITUBACNOR4342
012024103002ITUB4       010ITAUUNIBANCOPN      N1   R$  000000000353400000000035590000000003513000000000352800000000035250000000003524000000000352622717000000000010662900000000037628626800000000000000009999123100000010000000000000BRITUBACNPR1342
012024103002CEAB3       010CEA MODAS   ON      NM   R$  000000000123500000000013480000000001235000000000131800000000013200000000001320000000000132916819000000000005623200000000007416197600000000000000009999123100000010000000000000BRCEABACNOR1102
012024103002CEBR3       010CEB         ON           R$  000000000190000000000019000000000001866000000000188900000000019000000000001858000000000190000011000000000000001700000000000003212500000000000000009999123100000010000000000000BRCEBRACNOR5125
012024103002CEBR5       010CEB         PNA          R$  000000000166900000000016690000000001645000000000165200000000016450000000001625000000000165900012000000000000003600000000000005950100000000000000009999123100000010000000000000BRCEBRACNPA8124
012024103002CEBR6       010CEB         PNB          R$  000000000179400000000018280000000001794000000000180200000000018000000000001794000000000180000027000000000000006600000000000011894700000000000000009999123100000010000000000000BRCEBRACNPB6124
012024103002CGAS5       010COMGAS      PNA          R$  000000001270000000000128000000000012700000000001275000000000128000000000012670000000001290000002000000000000000200000000000002550000000000000000009999123100000010000000000000BRCGASACNPA3161
012024103002CGRA3       010GRAZZIOTIN  ON           R$  000000000257200000000025750000000002570000000000257200000000025700000000002504000000000257500005000000000000000600000000000001543500000000000000009999123100000010000000000000BRCGRAACNOR2083
012024103002CGRA4       010GRAZZIOTIN  PN           R$  000000000251000000000025290000000002509000000000251300000000025090000000002508000000000251500009000000000000001100000000000002764700000000000000009999123100000010000000000000BRCGRAACNPR9083
012024103002CLSA3       010CLEARSALE   ON      NM   R$  000000000093900000000009540000000000937000000000094500000000009500000000000948000000000095001384000000000001189900000000001125162100000000000000009999123100000010000000000000BRCLSAACNOR0100
012024103002GOAU4       010GERDAU MET  PN      N1   R$  000000000102400000000010360000000001021000000000102800000000010290000000001027000000000103006658000000000006154500000000006331893600000000000000009999123100000010000000000000BRGOAUACNPR8269
012024103002MILS3       010MILLS       ON      NM   R$  000000000105800000000010630000000001049000000000105300000000010540000000001054000000000105902674000000000000764300000000000805436000000000000000009999123100000010000000000000BRMILSACNOR2128
012024103002MLAS3       010MULTILASER  ON      NM   R$  000000000016300000000001670000000000163000000000016500000000001660000000000165000000000016601708000000000001167500000000000193465800000000000000009999123100000010000000000000BRMLASACNOR9101
012024103002MNDL3       010MUNDIAL     ON           R$  000000000164500000000016500000000001561000000000162600000000015610000000001550000000000165000003000000000000000400000000000000650600000000000000009999123100000010000000000000BRMNDLACNOR4109
012024103002MNPR3       010MINUPAR     ON           R$  000000000195100000000019800000000001925000000000194100000000019250000000001925000000000198000019000000000000003600000000000006990300000000000000009999123100000010000000000000BRMNPRACNOR5122
012024103002MOVI3       010MOVIDA      ON  ATZ NM   R$  000000000060100000000006210000000000597000000000061400000000006190000000000617000000000062006808000000000003791100000000002329952100000000000000009999123100000010000000000000BRMOVIACNOR0123
012024103002ALPA3       010ALPARGATAS  ON      N1   R$  000000000064800000000006480000000000640000000000064000000000006400000000000639000000000064000016000000000000035700000000000022850100000000000000009999123100000010000000000000BRALPAACNOR0231
012024103002ALPA4       010ALPARGATAS  PN      N1   R$  000000000071300000000007250000000000713000000000072100000000007250000000000722000000000072503444000000000001289200000000000930238300000000000000009999123100000010000000000000BRALPAACNPR7232
012024103002ALPK3       010ESTAPAR     ON      NM   R$  000000000029100000000003010000000000290000000000029400000000002960000000000295000000000029600324000000000000126700000000000037345000000000000000009999123100000010000000000000BRALPKACNOR9101
012024103002BEEF3       010MINERVA     ON  ATZ NM   R$  000000000058000000000005990000000000580000000000059100000000005960000000000595000000000059612359000000000010158700000000006008722500000000000000009999123100000010000000000000BRBEEFACNOR6117
012024103002BPAC11      010BTGP BANCO  UNT     N2   R$  000000000330400000000033040000000003258000000000327200000000032650000000003265000000000326608496000000000003195000000000010454173000000000000000009999123100000010000000000000BRBPACUNT006119
012024103002BPAC3       010BTGP BANCO  ON      N2   R$  000000000155000000000015710000000001532000000000155300000000015320000000001532000000000156200019000000000000002300000000000003572600000000000000009999123100000010000000000000BRBPACACNOR7134
012024103002BPAC5       010BTGP BANCO  PNA     N2   R$  000000000086100000000008680000000000854000000000085600000000008540000000000855000000000086700007000000000000001700000000000001455700000000000000009999123100000010000000000000BRBPACACNPA0134
012024103002BPAN4       010BANCO PAN   PN      N1   R$  000000000085800000000008700000000000850000000000085700000000008560000000000851000000000085603181000000000001514800000000001298314000000000000000009999123100000010000000000000BRBPANACNPR1115
012024103002RCSL4       010RECRUSUL    PN           R$  000000000019600000000002040000000000181000000000019200000000001900000000000189000000000019005964000000000006847000000000001320001700000000000000009999123100000010000000000000BRRCSLACNPR1134
012024103002RDNI3       010RNI         ON      NM   R$  000000000030200000000003090000000000302000000000030600000000003080000000000307000000000031300006000000000000000600000000000000183800000000000000009999123100000010000000000000BRRDNIACNOR9116
012024103002RDOR3       010REDE D OR   ON      NM   R$  000000000302300000000030230000000002911000000000296000000000029620000000002962000000000296612822000000000004499900000000013319812600000000000000009999123100000010000000000000BRRDORACNOR8114
012024103002RECV3       010PETRORECSA  ON      NM   R$  000000000167600000000017270000000001676000000000170900000000016990000000001698000000000170404304000000000001078100000000001842921400000000000000009999123100000010000000000000BRRECVACNOR3107
012024103002REDE3       010REDE ENERGIAON           R$  000000000067500000000006760000000000675000000000067500000000006760000000000676000000000068000004000000000000000600000000000000405100000000000000009999123100000010000000000000BRREDEACNOR7128
012024103002RENT3       010LOCALIZA    ON      NM   R$  000000000419500000000042860000000004190000000000425000000000042630000000004260000000000427017551000000000007929600000000033704443600000000000000009999123100000010000000000000BRRENTACNOR4197
012024103002TASA3       010TAURUS ARMASON      N2   R$  000000000099900000000010130000000000987000000000099400000000009870000000000987000000000099100059000000000000011700000000000011632500000000000000009999123100000010000000000000BRTASAACNOR7104
012024103002TASA4       010TAURUS ARMASPN      N2   R$  000000000095900000000009680000000000943000000000095400000000009430000000000942000000000094701356000000000000308300000000000294307800000000000000009999123100000010000000000000BRTASAACNPR4104
012024103002TCSA3       010TECNISA     ON      NM   R$  000000000013700000000001410000000000137000000000013900000000001380000000000138000000000013900123000000000000181100000000000025217700000000000000009999123100000010000000000000BRTCSAACNOR3112
012024103002JHSF3       010JHSF PART   ON      NM   R$  000000000043100000000004450000000000431000000000044100000000004410000000000441000000000044404265000000000001924800000000000850230800000000000000009999123100000010000000000000BRJHSFACNOR2140
012024103002JSLG3       010JSL         ON      NM   R$  000000000078200000000007920000000000777000000000078600000000007900000000000789000000000079201428000000000000358700000000000282015300000000000000009999123100000010000000000000BRJSLGACNOR2121
012024103002VSTE3       010VESTE       ON      NM   R$  000000000095900000000009970000000000925000000000095300000000009250000000000925000000000095900085000000000000016400000000000015630500000000000000009999123100000010000000000000BRVSTEACNOR5103
012024103002VTRU3       010VITRUEDUCA  ON      NM   R$  000000000093500000000009920000000000935000000000095900000000009420000000000942000000000096001278000000000000397900000000000381786700000000000000009999123100000010000000000000BRVTRUACNOR3100
012024103002VULC3       010VULCABRAS   ON      NM   R$  000000000163000000000016850000000001625000000000166300000000016640000000001660000000000166402398000000000000549400000000000913752300000000000000009999123100000010000000000000BRVULCACNOR2163
012024103002RAIZ4       010RAIZEN      PN      N2   R$  000000000028300000000002860000000000282000000000028300000000002840000000000284000000000028520268000000000010440400000000002959841800000000000000009999123100000010000000000000BRRAIZACNPR6111
012024103002RANI3       010IRANI       ON      NM   R$  000000000075800000000007960000000000758000000000078400000000007860000000000785000000000078603020000000000001248900000000000979376300000000000000009999123100000010000000000000BRRANIACNOR5073
012024103002RAPT3       010RANDON PART ON      N1   R$  000000000092400000000009410000000000922000000000093000000000009410000000000928000000000094100060000000000000014600000000000013578100000000000000009999123100000010000000000000BRRAPTACNOR7163
012024103002DESK3       010DESKTOP     ON      NM   R$  000000000132200000000013490000000001322000000000133500000000013340000000001326000000000133600520000000000000098400000000000131374100000000000000009999123100000010000000000000BRDESKACNOR2104
012024103002DEXP3       010DEXXOS PAR  ON      N1   R$  000000000088500000000009120000000000884000000000089800000000008970000000000897000000000090400357000000000000052600000000000047247700000000000000009999123100000010000000000000BRDEXPACNOR1105
012024103002DEXP4       010DEXXOS PAR  PN      N1   R$  000000000087500000000009000000000000875000000000089400000000009000000000000877000000000091800012000000000000002400000000000002147000000000000000009999123100000010000000000000BRDEXPACNPR8105
012024103002DIRR3       010DIRECIONAL  ON      NM   R$  000000000312500000000031630000000003102000000000314100000000031350000000003135000000000313608432000000000001390000000000004366570700000000000000009999123100000010000000000000BRDIRRACNOR0119
012024103002DMVF3       010D1000VFARMA ON      NM   R$  000000000066200000000006920000000000654000000000067700000000006870000000000682000000000068700232000000000000068100000000000046146600000000000000009999123100000010000000000000BRDMVFACNOR9100
012024103002DOHL4       010DOHLER      PN           R$  000000000040000000000004080000000000400000000000040200000000004060000000000401000000000040800007000000000000001100000000000000442700000000000000009999123100000010000000000000BRDOHLACNPR9066
012024103002DOTZ3       010DOTZ SA     ON      NM   R$  000000000054600000000005460000000000515000000000052900000000005240000000000524000000000052700040000000000000008500000000000004501300000000000000009999123100000010000000000000BRDOTZACNOR7101
012024103002LAND3       010TERRASANTAPAON      NM   R$  000000000133500000000013450000000001270000000000129600000000012770000000001275000000000128800302000000000000068200000000000088392700000000000000009999123100000010000000000000BRLANDACNOR9103
012024103002LAVV3       010LAVVI       ON      NM   R$  000000000081800000000008590000000000813000000000085000000000008470000000000844000000000084702762000000000000775300000000000659026300000000000000009999123100000010000000000000BRLAVVACNOR4113
012024103002LEVE3       010METAL LEVE  ON      NM   R$  000000000301000000000030320000000003005000000000301300000000030050000000003004000000000300502497000000000000379900000000001144880600000000000000009999123100000010000000000000BRLEVEACNOR2197
012024103002PRIO3       010PETRORIO    ON      NM   R$  000000000409900000000041560000000004090000000000412300000000041210000000004119000000000412120799000000000007537500000000031077318900000000000000009999123100000010000000000000BRPRIOACNOR1107
012024103002ROMI3       010ROMI        ON      NM   R$  000000000100600000000010130000000001004000000000100900000000010080000000001008000000000100900538000000000000092700000000000093564100000000000000009999123100000010000000000000BRROMIACNOR8196
012024103002RPAD3       010ALFA HOLDINGON           R$  000000000077000000000007940000000000700000000000071300000000007940000000000701000000000079500014000000000000003700000000000002640900000000000000009999123100000010000000000000BRRPADACNOR1198
012024103002RPAD6       010ALFA HOLDINGPNB          R$  000000000070200000000007020000000000702000000000070200000000007020000000000702000000000095000009000000000000001900000000000001333800000000000000009999123100000010000000000000BRRPADACNPB2198
012024103002RSUL4       010RIOSULENSE  PN           R$  000000000601800000000061480000000005970000000000601600000000059700000000005904000000000606900019000000000000002200000000000013237300000000000000009999123100000010000000000000BRRSULACNPR3114
012024103002SANB11      010SANTANDER BRUNT          R$  000000000276000000000028070000000002755000000000278900000000027950000000002793000000000279515787000000000005134000000000014322196600000000000000009999123100000010000000000000BRSANBCDAM13166
012024103002SANB3       010SANTANDER BRON           R$  000000000132000000000013420000000001306000000000132500000000013260000000001320000000000132700490000000000000108700000000000144099000000000000000009999123100000010000000000000BRSANBACNOR8173
012024103002SANB4       010SANTANDER BRPN           R$  000000000144000000000014730000000001439000000000145700000000014580000000001458000000000146100505000000000000109500000000000159629300000000000000009999123100000010000000000000BRSANBACNPR5173
012024103002KEPL3       010KEPLER WEBERON      NM   R$  000000000099400000000010210000000000994000000000100800000000010180000000001013000000000101802528000000000000942000000000000950389300000000000000009999123100000010000000000000BRKEPLACNOR1064
012024103002MTRE3       010MITRE REALTYON  ED  NM   R$  000000000036000000000003790000000000360000000000037100000000003780000000000375000000000037800663000000000000472100000000000175572700000000000000009999123100000010000000000000BRMTREACNOR6116
012024103002MTSA4       010METISA      PN           R$  000000000366200000000036620000000003553000000000359000000000036200000000003600000000000362100042000000000000005700000000000020466000000000000000009999123100000010000000000000BRMTSAACNPR9073
012024103002MULT3       010MULTIPLAN   ON      N2   R$  000000000250400000000025650000000002500000000000254400000000025460000000002545000000000254809853000000000003128500000000007959267100000000000000009999123100000010000000000000BRMULTACNOR5139
012024103002UCAS3       010UNICASA     ON      NM   R$  000000000021500000000002200000000000213000000000021600000000002180000000000216000000000021900083000000000000027000000000000005845500000000000000009999123100000010000000000000BRUCASACNOR1113
012024103002UGPA3       010ULTRAPAR    ON      NM   R$  000000000210000000000021380000000002080000000000210100000000020820000000002081000000000208411116000000000003597300000000007558377500000000000000009999123100000010000000000000BRUGPAACNOR8156
012024103002UNIP3       010UNIPAR      ON           R$  000000000453000000000045590000000004446000000000452100000000044460000000004446000000000453400022000000000000002400000000000010852200000000000000009999123100000010000000000000BRUNIPACNOR7206
012024103002CPFE3       010CPFL ENERGIAON      NM   R$  000000000325700000000032900000000003250000000000327500000000032740000000003273000000000328105083000000000001152100000000003774021600000000000000009999123100000010000000000000BRCPFEACNOR0137
012024103002CPLE3       010COPEL       ON      N2   R$  000000000087700000000008820000000000870000000000087500000000008760000000000873000000000087705302000000000003396300000000002972737300000000000000009999123100000010000000000000BRCPLEACNOR8150
012024103002CPLE5       010COPEL       PNA     N2   R$  000000000115200000000011520000000001100000000000110900000000011000000000001080000000000113000008000000000000001100000000000001220400000000000000009999123100000010000000000000BRCPLEACNPA1148
012024103002CPLE6       010COPEL       PNB     N2   R$  000000000098400000000009930000000000978000000000098300000000009850000000000985000000000098611715000000000011717700000000011528450900000000000000009999123100000010000000000000BRCPLEACNPB9147
012024103002UNIP5       010UNIPAR      PNA          R$  000000000479800000000048400000000004798000000000481000000000048400000000004690000000000482500006000000000000001300000000000006253800000000000000009999123100000010000000000000BRUNIPACNPA0208
012024103002UNIP6       010UNIPAR      PNB          R$  000000000452200000000046200000000004513000000000455600000000045150000000004515000000000451600992000000000000147900000000000673942300000000000000009999123100000010000000000000BRUNIPACNPB8206
012024103002USIM3       010USIMINAS    ON      N1   R$  000000000062400000000006410000000000623000000000063500000000006330000000000633000000000063600845000000000000190900000000000121233700000000000000009999123100000010000000000000BRUSIMACNOR3167
012024103002USIM5       010USIMINAS    PNA     N1   R$  000000000064300000000006620000000000639000000000065400000000006570000000000656000000000065807520000000000010583600000000006923118000000000000000009999123100000010000000000000BRUSIMACNPA6169
012024103002PFRM3       010PROFARMA    ON      NM   R$  000000000061200000000006440000000000612000000000063200000000006440000000000636000000000064400440000000000000166900000000000105587000000000000000009999123100000010000000000000BRPFRMACNOR1116
012024103002PGMN3       010PAGUE MENOS ON      NM   R$  000000000028400000000002890000000000282000000000028700000000002830000000000283000000000028700504000000000000222900000000000064000500000000000000009999123100000010000000000000BRPGMNACNOR8103
012024103002PINE3       010PINE        ON      N2   R$  000000000045900000000004640000000000453000000000045600000000004570000000000455000000000045700019000000000000007000000000000003193100000000000000009999123100000010000000000000BRPINEACNOR1152
012024103002PINE4       010PINE        PN      N2   R$  000000000045600000000004620000000000453000000000045600000000004550000000000455000000000045900200000000000000080500000000000036782700000000000000009999123100000010000000000000BRPINEACNPR8152
012024103002PLPL3       010PLANOEPLANO ON      NM   R$  000000000138500000000014370000000001370000000000140000000000013930000000001391000000000139305274000000000001193300000000001670917800000000000000009999123100000010000000000000BRPLPLACNOR5104
012024103002PNVL3       010DIMED       ON      NM   R$  000000000100700000000010390000000001004000000000102400000000010240000000001019000000000102601876000000000000391300000000000400869300000000000000009999123100000010000000000000BRPNVLACNOR9208
012024103002POMO3       010MARCOPOLO   ON      N2   R$  000000000065700000000006750000000000655000000000066200000000006550000000000655000000000066001010000000000000575900000000000381535100000000000000009999123100000010000000000000BRPOMOACNOR0099
012024103002DXCO3       010DEXCO       ON      NM   R$  000000000085400000000008600000000000828000000000083800000000008370000000000833000000000083710600000000000005358900000000004495655600000000000000009999123100000010000000000000BRDXCOACNOR8105
012024103002GRND3       010GRENDENE    ON      NM   R$  000000000052200000000005330000000000522000000000052600000000005220000000000522000000000052601830000000000000868800000000000457673600000000000000009999123100000010000000000000BRGRNDACNOR3175
012024103002GUAR3       010GUARARAPES  ON      NM   R$  000000000082400000000008630000000000821000000000084900000000008550000000000849000000000085502048000000000000766400000000000651044400000000000000009999123100000010000000000000BRGUARACNOR4173
012024103002HAGA3       010HAGA S/A    ON           R$  000000000025300000000002760000000000245000000000026500000000002640000000000264000000000026700111000000000000020600000000000005464700000000000000009999123100000010000000000000BRHAGAACNOR7103
012024103002HAGA4       010HAGA S/A    PN           R$  000000000012900000000001310000000000129000000000012900000000001310000000000128000000000013000012000000000000018800000000000002432000000000000000009999123100000010000000000000BRHAGAACNPR4103
012024103002HAPV3       010HAPVIDA     ON      NM   R$  000000000036200000000003620000000000353000000000035600000000003600000000000359000000000036077914000000000069132100000000024642856000000000000000009999123100000010000000000000BRHAPVACNOR4115
012024103002CLSC3       010CELESC      ON      N2   R$  000000000760000000000076000000000007600000000000760000000000076000000000007401000000000761900001000000000000000100000000000000760000000000000000009999123100000010000000000000BRCLSCACNOR6153
012024103002CLSC4       010CELESC      PN      N2   R$  000000000799600000000079960000000007803000000000784200000000078080000000007807000000000784400044000000000000006500000000000050976300000000000000009999123100000010000000000000BRCLSCACNPR3132
012024103002CMIG3       010CEMIG       ON      N1   R$  000000000147200000000014850000000001455000000000146700000000014600000000001460000000000146800476000000000000090500000000000132846200000000000000009999123100000010000000000000BRCMIGACNOR6244
012024103002CMIG4       010CEMIG       PN      N1   R$  000000000113900000000011500000000001132000000000113800000000011380000000001138000000000113917510000000000011176700000000012726554200000000000000009999123100000010000000000000BRCMIGACNPR3245
012024103002FHER3       010FER HERINGERON      NM   R$  000000000036500000000003650000000000362000000000036300000000003650000000000364000000000036600016000000000000003400000000000001236000000000000000009999123100000010000000000000BRFHERACNOR5103
012024103002FIQE3       010UNIFIQUE    ON      NM   R$  000000000038800000000003940000000000386000000000039000000000003890000000000389000000000039100213000000000000142300000000000055579500000000000000009999123100000010000000000000BRFIQEACNOR5107
012024103002FLRY3       010FLEURY      ON      NM   R$  000000000148000000000014940000000001470000000000148400000000014900000000001488000000000149205506000000000001570900000000002332662600000000000000009999123100000010000000000000BRFLRYACNOR5139
012024103002FRAS3       010FRAS-LE     ON      N1   R$  000000000221500000000022460000000002215000000000222700000000022160000000002216000000000222600945000000000000142500000000000317366100000000000000009999123100000010000000000000BRFRASACNOR0160
012024103002FRIO3       010METALFRIO   ON      NM   R$  000000001300000000000155000000000012998000000001404800000000147000000000013500000000001470000159000000000000038100000000000535238800000000000000009999123100000010000000000000BRFRIOACNOR2111
012024103002CRFB3       010CARREFOUR BRON      NM   R$  000000000072000000000007540000000000719000000000074500000000007470000000000746000000000074713029000000000009523900000000007101062500000000000000009999123100000010000000000000BRCRFBACNOR2116
012024103002CRPG5       010CRISTAL     PNA          R$  000000000252800000000025280000000002510000000000252700000000025280000000002510000000000252800007000000000000001800000000000004548600000000000000009999123100000010000000000000BRCRPGACNPA3119
012024103002CSAN3       010COSAN       ON      NM   R$  000000000121100000000012280000000001203000000000121300000000012030000000001203000000000120510360000000000006114100000000007419663300000000000000009999123100000010000000000000BRCSANACNOR6126
012024103002EALT4       010ACO ALTONA  PN           R$  000000000131000000000013210000000001304000000000131100000000013090000000001308000000000131000035000000000000005400000000000007083300000000000000009999123100000010000000000000BREALTACNPR1138
012024103002ECOR3       010ECORODOVIAS ON      NM   R$  000000000070400000000007170000000000687000000000070300000000007000000000000699000000000070004620000000000005012500000000003524846900000000000000009999123100000010000000000000BRECORACNOR8120
012024103002EGIE3       010ENGIE BRASILON      NM   R$  000000000408000000000041330000000004078000000000411700000000041250000000004124000000000412504654000000000001607200000000006617591000000000000000009999123100000010000000000000BREGIEACNOR9127
012024103002EKTR4       010ELEKTRO     PN  ED       R$  000000000420000000000042000000000004120000000000416400000000041200000000004169000000000418900004000000000000000400000000000001665800000000000000009999123100000010000000000000BREKTRACNPR7166
012024103002ELET3       010ELETROBRAS  ON      N1   R$  000000000380900000000038370000000003791000000000381800000000038220000000003821000000000382216948000000000004406400000000016826114200000000000000009999123100000010000000000000BRELETACNOR6160
012024103002HBOR3       010HELBOR      ON      NM   R$  000000000018900000000001940000000000187000000000019100000000001910000000000191000000000019300369000000000000635200000000000121614400000000000000009999123100000010000000000000BRHBORACNOR3118
012024103002HBRE3       010HBR REALTY  ON      NM   R$  000000000045700000000004690000000000453000000000046000000000004640000000000459000000000046400753000000000000388800000000000179168800000000000000009999123100000010000000000000BRHBREACNOR4100
012024103002HBSA3       010HIDROVIAS   ON      NM   R$  000000000031600000000003220000000000314000000000031800000000003180000000000317000000000031803651000000000002269700000000000722859300000000000000009999123100000010000000000000BRHBSAACNOR0101
012024103002HBTS5       010HABITASUL   PNA          R$  000000000301000000000031000000000003010000000000305500000000031000000000003025000000000319900002000000000000000200000000000000611000000000000000009999123100000010000000000000BRHBTSACNPA3128
012024103002HETA4       010HERCULES    PN           R$  000000000061100000000006300000000000611000000000062300000000006240000000000622000000000068900005000000000000000800000000000000498700000000000000009999123100000010000000000000BRHETAACNPR9136
012024103002HYPE3       010HYPERA      ON      NM   R$  000000000244900000000024560000000002391000000000241600000000024100000000002408000000000241010927000000000003670000000000008868953500000000000000009999123100000010000000000000BRHYPEACNOR0144
012024103002JALL3       010JALLESMACHADON      NM   R$  000000000060800000000006150000000000605000000000061200000000006110000000000611000000000061501022000000000000500400000000000306349000000000000000009999123100000010000000000000BRJALLACNOR0106
012024103002JBSS3       010JBS         ON      NM   R$  000000000366000000000036790000000003582000000000363600000000036700000000003669000000000367123499000000000007808800000000028392938500000000000000009999123100000010000000000000BRJBSSACNOR8122
012024103002MRFG3       010MARFRIG     ON      NM   R$  000000000152000000000015420000000001502000000000152400000000015410000000001541000000000154213020000000000005814300000000008862077400000000000000009999123100000010000000000000BRMRFGACNOR0116
012024103002MRVE3       010MRV         ON      NM   R$  000000000069400000000007260000000000692000000000071600000000007170000000000716000000000071714140000000000011658100000000008347417100000000000000009999123100000010000000000000BRMRVEACNOR2127
012024103002PETZ3       010PETZ        ON      NM   R$  000000000049100000000005000000000000490000000000049600000000004990000000000498000000000049903785000000000003625300000000001799494400000000000000009999123100000010000000000000BRPETZACNOR2110
012024103002AERI3       010AERIS       ON      NM   R$  000000000062400000000006400000000000623000000000063100000000006300000000000629000000000063000422000000000000147800000000000093312500000000000000009999123100000010000000000000BRAERIACNOR4102
012024103002AESB3       010AES BRASIL  ON      NM   R$  000000000087400000000008770000000000820000000000084100000000008200000000000820000000000082608573000000000003489200000000002936630100000000000000009999123100000010000000000000BRAESBACNOR7107
012024103002AFLT3       010AFLUENTE T  ON           R$  000000000070000000000007040000000000700000000000070200000000007040000000000697000000000073700004000000000000000500000000000000351200000000000000009999123100000010000000000000BRAFLTACNOR1122
012024103002AGRO3       010BRASILAGRO  ON  ED  NM   R$  000000000235800000000023740000000002358000000000236600000000023710000000002364000000000237100951000000000000163400000000000386735900000000000000009999123100000010000000000000BRAGROACNOR7115
012024103002ALLD3       010ALLIED      ON      NM   R$  000000000075700000000007660000000000756000000000076300000000007620000000000762000000000076600120000000000000070900000000000054154200000000000000009999123100000010000000000000BRALLDACNOR3106
012024103002ALOS3       010ALLOS       ON  ED  NM   R$  000000000220300000000022330000000002191000000000221900000000022130000000002213000000000221506885000000000002440900000000005418294100000000000000009999123100000010000000000000BRALOSACNOR5103
012024103002BRSR3       010BANRISUL    ON      N1   R$  000000000126500000000012700000000001262000000000126500000000012660000000001262000000000126600016000000000000004000000000000005060300000000000000009999123100000010000000000000BRBRSRACNOR3189
012024103002BRSR6       010BANRISUL    PNB     N1   R$  000000000112000000000011410000000001117000000000113000000000011240000000001123000000000112503012000000000000654100000000000739466600000000000000009999123100000010000000000000BRBRSRACNPB4192
012024103002BSLI3       010BRB BANCO   ON           R$  000000000092000000000009200000000000890000000000089400000000008900000000000886000000000090000005000000000000000600000000000000536800000000000000009999123100000010000000000000BRBSLIACNOR5194
012024103002BSLI4       010BRB BANCO   PN           R$  000000000099900000000010190000000000950000000000096700000000010190000000000952000000000101700007000000000000000700000000000000677300000000000000009999123100000010000000000000BRBSLIACNPR2194
012024103002CAMB3       010CAMBUCI     ON           R$  000000000120000000000012350000000001195000000000122500000000012290000000001229000000000123600176000000000000062400000000000076463100000000000000009999123100000010000000000000BRCAMBACNOR4131
012024103002CAML3       010CAMIL       ON      NM   R$  000000000080800000000008170000000000806000000000081100000000008100000000000810000000000081401011000000000000228700000000000185638000000000000000009999123100000010000000000000BRCAMLACNOR3129
012024103002CASH3       010MELIUZ      ON      NM   R$  000000000034200000000003490000000000342000000000034500000000003420000000000342000000000034300760000000000000494700000000000170848300000000000000009999123100000010000000000000BRCASHACNOR8107
012024103002CBAV3       010CBA         ON      NM   R$  000000000058900000000006060000000000580000000000058600000000005800000000000579000000000058003668000000000003292500000000001930684000000000000000009999123100000010000000000000BRCBAVACNOR5104
012024103002ESPA3       010ESPACOLASER ON      NM   R$  000000000009500000000000970000000000095000000000009500000000000950000000000095000000000009600055000000000000215800000000000020603400000000000000009999123100000010000000000000BRESPAACNOR7103
012024103002ESTR4       010ESTRELA     PN           R$  000000000036400000000003680000000000360000000000036200000000003680000000000365000000000039800007000000000000003500000000000001267900000000000000009999123100000010000000000000BRESTRACNPR0144
012024103002ETER3       010ETERNIT     ON      NM   R$  000000000052100000000005230000000000515000000000051900000000005190000000000519000000000052100783000000000000268600000000000139560800000000000000009999123100000010000000000000BRETERACNOR3244
012024103002EUCA3       010EUCATEX     ON      N1   R$  000000000161000000000016100000000001610000000000161000000000016100000000001575000000000160900001000000000000000100000000000000161000000000000000009999123100000010000000000000BREUCAACNOR1157
012024103002EUCA4       010EUCATEX     PN      N1   R$  000000000143300000000014640000000001433000000000144700000000014360000000001435000000000145000202000000000000024500000000000035463200000000000000009999123100000010000000000000BREUCAACNPR8044
012024103002EVEN3       010EVEN        ON      NM   R$  000000000060200000000006210000000000602000000000061200000000006120000000000612000000000061903332000000000000731000000000000448026200000000000000009999123100000010000000000000BREVENACNOR8120
012024103002EZTC3       010EZTEC       ON      NM   R$  000000000137000000000014310000000001366000000000139700000000013820000000001381000000000138209808000000000003616800000000005055749000000000000000009999123100000010000000000000BREZTCACNOR0126
012024103002FESA4       010FERBASA     PN      N1   R$  000000000075700000000007650000000000753000000000075800000000007530000000000753000000000075900824000000000000228700000000000173507000000000000000009999123100000010000000000000BRFESAACNPR5085
012024103002ITSA3       010ITAUSA      ON      N1   R$  000000000106800000000010770000000001065000000000107100000000010650000000001065000000000106900241000000000000058600000000000062765000000000000000009999123100000010000000000000BRITSAACNOR0443
012024103002EMBR3       010EMBRAER     ON      NM   R$  000000000502200000000050530000000004908000000000497400000000049080000000004908000000000491916010000000000004220900000000020998611500000000000000009999123100000010000000000000BREMBRACNOR4191
012024103002LJQQ3       010QUERO-QUERO ON      NM   R$  000000000028100000000002990000000000281000000000029200000000002940000000000294000000000029603832000000000004154300000000001215908500000000000000009999123100000010000000000000BRLJQQACNOR5104
012024103002LOGG3       010LOG COM PROPON      NM   R$  000000000223800000000022990000000002238000000000227900000000022800000000002279000000000228001225000000000000158200000000000360600100000000000000009999123100000010000000000000BRLOGGACNOR7107
012024103002LOGN3       010LOG-IN      ON      NM   R$  000000000259700000000026440000000002502000000000258300000000025020000000002502000000000253000272000000000000043000000000000111090000000000000000009999123100000010000000000000BRLOGNACNOR3105
012024103002LPSB3       010LOPES BRASILON      NM   R$  000000000016200000000001670000000000160000000000016200000000001600000000000159000000000016400249000000000000166200000000000027005900000000000000009999123100000010000000000000BRLPSBACNOR0114
012024103002LREN3       010LOJAS RENNERON      NM   R$  000000000184200000000018800000000001842000000000186600000000018620000000001862000000000186312101000000000005190900000000009690515900000000000000009999123100000010000000000000BRLRENACNOR1222
012024103002ODPV3       010ODONTOPREV  ON      NM   R$  000000000103600000000010480000000001028000000000103600000000010470000000001045000000000104803438000000000001986800000000002059769500000000000000009999123100000010000000000000BRODPVACNOR4204
012024103002OFSA3       010OUROFINO S/AON      NM   R$  000000000225000000000023400000000002155000000000221700000000022590000000002180000000000226000059000000000000015300000000000033920500000000000000009999123100000010000000000000BROFSAACNOR7118
012024103002ONCO3       010ONCOCLINICASON      NM   R$  000000000044900000000004650000000000446000000000045600000000004550000000000453000000000045501519000000000001251300000000000570764900000000000000009999123100000010000000000000BRONCOACNOR6101
012024103002OPCT3       010OCEANPACT   ON      NM   R$  000000000063200000000006380000000000619000000000063000000000006320000000000629000000000063201569000000000000384100000000000242252300000000000000009999123100000010000000000000BROPCTACNOR0100
012024103002ORVR3       010ORIZON      ON      NM   R$  000000000463700000000046780000000004602000000000463000000000046150000000004615000000000463201661000000000000277600000000001285294400000000000000009999123100000010000000000000BRORVRACNOR0101
012024103002PATI3       010PANATLANTICAON  ED       R$  000000000265700000000026600000000002657000000000265800000000026600000000002360000000000285000003000000000000000300000000000000797600000000000000009999123100000010000000000000BRPATIACNOR6067
012024103002PCAR3       010P.ACUCAR-CBDON      NM   R$  000000000030500000000003190000000000303000000000031100000000003120000000000312000000000031305500000000000009650400000000003004445700000000000000009999123100000010000000000000BRPCARACNOR3167
012024103002PRNR3       010PRINER      ON      NM   R$  000000000134700000000013830000000001344000000000137200000000013770000000001371000000000137700885000000000000218700000000000300099300000000000000009999123100000010000000000000BRPRNRACNOR4109
012024103002PSSA3       010PORTO SEGUROON      NM   R$  000000000385600000000038940000000003850000000000387500000000038750000000003875000000000387708376000000000001553000000000006018830800000000000000009999123100000010000000000000BRPSSAACNOR7156
012024103002BAHI3       010BAHEMA      ON      MA   R$  000000000044300000000004510000000000440000000000044200000000004500000000000440000000000045000016000000000000005600000000000002479000000000000000009999123100000010000000000000BRBAHIACNOR1074
012024103002BAUH4       010EXCELSIOR   PN           R$  000000000780000000000078900000000007800000000000783000000000078900000000000000000000000789000002000000000000000300000000000002349000000000000000009999123100000010000000000000BRBAUHACNPR3118
012024103002BAZA3       010AMAZONIA    ON           R$  000000000919800000000091980000000009079000000000910500000000091300000000009062000000000913000011000000000000001500000000000013657900000000000000009999123100000010000000000000BRBAZAACNOR0179
012024103002BBAS3       010BRASIL      ON      NM   R$  000000000261800000000026390000000002609000000000263200000000026370000000002636000000000263727792000000000014377600000000037844899900000000000000009999123100000010000000000000BRBBASACNOR3326
012024103002RAIL3       010RUMO S.A.   ON      NM   R$  000000000198000000000020140000000001978000000000199100000000019780000000001978000000000198025265000000000013460400000000026807082900000000000000009999123100000010000000000000BRRAILACNOR9105
012024103002BRAP3       010BRADESPAR   ON      N1   R$  000000000183200000000018370000000001813000000000182600000000018130000000001813000000000181800256000000000000035700000000000065190900000000000000009999123100000010000000000000BRBRAPACNOR5148
012024103002BRAP4       010BRADESPAR   PN      N1   R$  000000000196600000000019800000000001960000000000197300000000019710000000001971000000000197233287000000000005947900000000011740613600000000000000009999123100000010000000000000BRBRAPACNPR2148
012024103002BRAV3       010BRAVA       ON      NM   R$  000000000170400000000017500000000001701000000000172300000000017030000000001702000000000170310658000000000004918500000000008477678900000000000000009999123100000010000000000000BRBRAVACNOR3100
012024103002CSED3       010CRUZEIRO EDUON      NM   R$  000000000033500000000003510000000000335000000000034200000000003400000000000340000000000034101240000000000000575500000000000197174100000000000000009999123100000010000000000000BRCSEDACNOR9105
012024103002CSMG3       010COPASA      ON      NM   R$  000000000228900000000023090000000002264000000000228600000000022900000000002290000000000229603967000000000000891100000000002037662600000000000000009999123100000010000000000000BRCSMGACNOR5175
012024103002CSNA3       010SID NACIONALON           R$  000000000117200000000011900000000001172000000000118100000000011780000000001177000000000117807376000000000003761700000000004445921800000000000000009999123100000010000000000000BRCSNAACNOR6261
012024103002ELET6       010ELETROBRAS  PNB     N1   R$  000000000423000000000042480000000004207000000000423200000000042350000000004235000000000423602425000000000000531200000000002248340800000000000000009999123100000010000000000000BRELETACNPB7077
012024103002STBP3       010SANTOS BRP  ON  EDJ NM   R$  000000000125900000000012650000000001255000000000125800000000012590000000001258000000000126004457000000000009144900000000011511484900000000000000009999123100000010000000000000BRSTBPACNOR3133
012024103002SUZB3       010SUZANO S.A. ON      NM   R$  000000000593200000000060390000000005932000000000601400000000060390000000006036000000000603919328000000000005863100000000035264127400000000000000009999123100000010000000000000BRSUZBACNOR0130
012024103002LUPA3       010LUPATECH    ON      NM   R$  000000000014700000000001490000000000144000000000014500000000001450000000000145000000000014700122000000000000075900000000000011080500000000000000009999123100000010000000000000BRLUPAACNOR8112
012024103002LUXM4       010TREVISA     PN           R$  000000000137100000000013710000000001371000000000137100000000013710000000001280000000000137000001000000000000000100000000000000137100000000000000009999123100000010000000000000BRLUXMACNPR4052
012024103002LVTC3       010WDC NETWORKSON      NM   R$  000000000035700000000003650000000000357000000000036200000000003610000000000361000000000036500065000000000000022000000000000007979200000000000000009999123100000010000000000000BRLVTCACNOR4102
012024103002LWSA3       010LWSA        ON      NM   R$  000000000043000000000004310000000000418000000000042300000000004240000000000420000000000042406823000000000007015700000000002969687300000000000000009999123100000010000000000000BRLWSAACNOR8103
012024103002KLBN11      010KLABIN S/A  UNT     N2   R$  000000000207100000000021040000000002062000000000207600000000020790000000002075000000000207909487000000000005110200000000010609055700000000000000009999123100000010000000000000BRKLBNCDAM18143
012024103002KLBN3       010KLABIN S/A  ON      N2   R$  000000000041100000000004220000000000410000000000041600000000004140000000000414000000000041700511000000000000204700000000000085203100000000000000009999123100000010000000000000BRKLBNACNOR2171
012024103002KLBN4       010KLABIN S/A  PN      N2   R$  000000000041200000000004200000000000411000000000041400000000004130000000000413000000000041401881000000000002026300000000000840026100000000000000009999123100000010000000000000BRKLBNACNPR9171
012024103002KRSA3       010KORA SAUDE  ON      NM   R$  000000000055000000000005550000000000531000000000053800000000005310000000000531000000000053400037000000000000011500000000000006196000000000000000009999123100000010000000000000BRKRSAACNOR0101
012024103002POMO4       010MARCOPOLO   PN      N2   R$  000000000085500000000008820000000000848000000000086300000000008500000000000850000000000085112188000000000007827300000000006759973600000000000000009999123100000010000000000000BRPOMOACNPR7099
012024103002PORT3       010WILSON SONS ON      NM   R$  000000000158000000000015920000000001576000000000158300000000015820000000001580000000000159002038000000000001008900000000001597797400000000000000009999123100000010000000000000BRPORTACNOR8110
012024103002POSI3       010POSITIVO TECON      NM   R$  000000000063300000000006580000000000625000000000064800000000006570000000000657000000000065802242000000000001085500000000000704264400000000000000009999123100000010000000000000BRPOSIACNOR9116
012024103002TOTS3       010TOTVS       ON      NM   R$  000000000291500000000029670000000002903000000000294500000000029500000000002948000000000295005695000000000001327200000000003908748200000000000000009999123100000010000000000000BRTOTSACNOR8145
012024103002TPIS3       010TRIUNFO PARTON      NM   R$  000000000066500000000006830000000000658000000000067100000000006680000000000663000000000066800243000000000000052900000000000035496300000000000000009999123100000010000000000000BRTPISACNOR8118
012024103002TRAD3       010TC          ON      NM   R$  000000000055400000000005780000000000548000000000056300000000005650000000000565000000000056900239000000000000062000000000000034950700000000000000009999123100000010000000000000BRTRADACNOR3102
012024103002TRIS3       010TRISUL      ON      NM   R$  000000000053500000000005480000000000535000000000054200000000005400000000000540000000000054401064000000000000419300000000000227432500000000000000009999123100000010000000000000BRTRISACNOR4118
012024103002TRPL3       010TRAN PAULISTON      N1   R$  000000000305100000000030770000000003024000000000304700000000030680000000003030000000000309000011000000000000001100000000000003352300000000000000009999123100000010000000000000BRTRPLACNOR4185
012024103002TRPL4       010TRAN PAULISTPN      N1   R$  000000000243900000000024480000000002431000000000243900000000024430000000002443000000000244506459000000000001406700000000003432089900000000000000009999123100000010000000000000BRTRPLACNPR1185
012024103002TTEN3       0103TENTOS     ON      NM   R$  000000000113900000000011490000000001131000000000113900000000011310000000001131000000000113803063000000000000502200000000000572260900000000000000009999123100000010000000000000BRTTENACNOR0103
012024103002TUPY3       010TUPY        ON      NM   R$  000000000232500000000023680000000002325000000000235000000000023450000000002345000000000235501883000000000000270300000000000635324300000000000000009999123100000010000000000000BRTUPYACNOR1184
012024103002VVEO3       010VIVEO       ON      NM   R$  000000000020000000000002080000000000194000000000020100000000002070000000000206000000000020702297000000000002195400000000000442633700000000000000009999123100000010000000000000BRVVEOACNOR0104
012024103002WEGE3       010WEG         ON      NM   R$  000000000552700000000055380000000005345000000000540300000000054000000000005393000000000540046872000000000020716600000000111946639100000000000000009999123100000010000000000000BRWEGEACNOR0225
012024103002ATOM3       010ATOMPAR     ON           R$  000000000039500000000004100000000000390000000000039800000000003990000000000395000000000039900115000000000000058700000000000023381200000000000000009999123100000010000000000000BRATOMACNOR1106
012024103002AURE3       010AUREN       ON      NM   R$  000000000103500000000010610000000001035000000000104900000000010440000000001043000000000104415656000000000007598800000000007976558700000000000000009999123100000010000000000000BRAUREACNOR9104
012024103002AVLL3       010ALPHAVILLE  ON      NM   R$  000000000029500000000002960000000000292000000000029500000000002960000000000281000000000029600008000000000000003100000000000000916200000000000000009999123100000010000000000000BRAVLLACNOR5103
012024103002AZEV3       010AZEVEDO     ON           R$  000000000011900000000001200000000000117000000000011800000000001180000000000117000000000011800221000000000000394100000000000046583400000000000000009999123100000010000000000000BRAZEVACNOR0121
012024103002AZEV4       010AZEVEDO     PN           R$  000000000011900000000001210000000000118000000000011800000000001180000000000118000000000011900660000000000001217500000000000144659800000000000000009999123100000010000000000000BRAZEVACNPR7121
012024103002ARML3       010ARMAC       ON      NM   R$  000000000071900000000007710000000000717000000000075400000000007710000000000769000000000077203177000000000000954100000000000720230000000000000000009999123100000010000000000000BRARMLACNOR1113
012024103002ASAI3       010ASSAI       ON      NM   R$  000000000075500000000007840000000000748000000000076900000000007680000000000768000000000076918257000000000017976200000000013831731700000000000000009999123100000010000000000000BRASAIACNOR0106
012024103002BBDC3       010BRADESCO    ON      N1   R$  000000000131500000000013220000000001309000000000131700000000013190000000001318000000000131906207000000000006977800000000009193489400000000000000009999123100000010000000000000BRBBDCACNOR1776
012024103002BBDC4       010BRADESCO    PN      N1   R$  000000000150000000000015050000000001488000000000149900000000015030000000001502000000000150327491000000000028738700000000043099010900000000000000009999123100000010000000000000BRBBDCACNPR8776
012024103002CCRO3       010CCR SA      ON      NM   R$  000000000122100000000012260000000001206000000000121700000000012170000000001215000000000121716292000000000008752800000000010657272500000000000000009999123100000010000000000000BRCCROACNOR2145
012024103002RCSL3       010RECRUSUL    ON           R$  000000000038500000000004060000000000374000000000038500000000004040000000000401000000000040401114000000000000797400000000000307742600000000000000009999123100000010000000000000BRRCSLACNOR4134
012024103002TECN3       010TECHNOS     ON      NM   R$  000000000057800000000005800000000000563000000000056600000000005630000000000562000000000056900083000000000000016800000000000009509000000000000000009999123100000010000000000000BRTECNACNOR6109
012024103002TELB4       010TELEBRAS    PN           R$  000000000091600000000009160000000000915000000000091500000000009150000000000910000000000091500002000000000000000200000000000000183100000000000000009999123100000010000000000000BRTELBACNPR9140
012024103002TEND3       010TENDA       ON      NM   R$  000000000146700000000015150000000001467000000000149800000000015060000000001504000000000150708304000000000003768000000000005646007900000000000000009999123100000010000000000000BRTENDACNOR4111
012024103002TFCO4       010TRACK FIELD PN      N2   R$  000000000103700000000010440000000001034000000000103900000000010390000000001039000000000104200764000000000000199000000000000206796200000000000000009999123100000010000000000000BRTFCOACNPR8115
012024103002TGMA3       010TEGMA       ON      NM   R$  000000000290700000000029710000000002893000000000293300000000029350000000002922000000000293501337000000000000248200000000000728123700000000000000009999123100000010000000000000BRTGMAACNOR7145
012024103002TIMS3       010TIM         ON      NM   R$  000000000163700000000016760000000001620000000000165800000000016630000000001659000000000166320528000000000008819900000000014628267700000000000000009999123100000010000000000000BRTIMSACNOR5118
012024103002VITT3       010VITTIA      ON  EJ  NM   R$  000000000054400000000005580000000000539000000000055300000000005580000000000556000000000055800584000000000000103700000000000057449000000000000000009999123100000010000000000000BRVITTACNOR4108
012024103002VIVA3       010VIVARA S.A. ON      NM   R$  000000000251100000000025780000000002495000000000255800000000025650000000002562000000000257511762000000000003142200000000008038827000000000000000009999123100000010000000000000BRVIVAACNOR0107
012024103002VIVR3       010VIVER       ON      NM   R$  000000000015600000000001580000000000153000000000015600000000001540000000000154000000000015500074000000000000091300000000000014242800000000000000009999123100000010000000000000BRVIVRACNOR4123
012024103002VIVT3       010TELEF BRASILON           R$  000000000518800000000053000000000005188000000000526800000000052680000000005268000000000527014500000000000002811700000000014813188100000000000000009999123100000010000000000000BRVIVTACNOR0184
012024103002VLID3       010VALID       ON      NM   R$  000000000228200000000023640000000002282000000000233600000000023640000000002360000000000236402174000000000000368100000000000860098200000000000000009999123100000010000000000000BRVLIDACNOR5144
012024103007SEQL3       010SEQUOIA LOG ON      NM   R$  000000000042000000000004220000000000385000000000039600000000003850000000000385000000000039202864000000000001909400000000000757853000000000000000009999123100000010000000000000BRSEQLACNOR2103
012024103007TXRX4       010TEX RENAUX  PN           R$  000000000021600000000002160000000000215000000000021500000000002150000000000216000000000021900004000000000000000600000000000000129500000000000000009999123100000010000000000000BRTXRXACNPR0142
012024103007NUTR3       010NUTRIPLANT  ON      MA   R$  000000000040700000000004080000000000388000000000039300000000003890000000000393000000000039700034000000000000005300000000000002086900000000000000009999123100000010000000000000BRNUTRACNOR0104
012024103008CTSA4       010SANTANENSE  PN           R$  000000000010500000000001050000000000105000000000010500000000001050000000000104000000000010500004000000000000002000000000000000210000000000000000009999123100000010000000000000BRCTSAACNPR0062
012024103008NEXP3       010NEXPE       ON           R$  000000000045100000000004510000000000451000000000045100000000004510000000000440000000000045100001000000000000000100000000000000045100000000000000009999123100000010000000000000BRNEXPACNOR0101
012024103008AMER3       010AMERICANAS  ON      NM   R$  000000000038500000000004110000000000385000000000039700000000003880000000000388000000000038904642000000000004715900000000001875621300000000000000009999123100000010000000000000BRAMERACNOR6103
012024103008JFEN3       010JOAO FORTES ON           R$  000000000002700000000000280000000000027000000000002700000000000270000000000027000000000002800081000000000000240300000000000006509700000000000000009999123100000010000000000000BRJFENACNOR0059
012024103008LIGT3       010LIGHT S/A   ON  ES  NM   R$  000000000058500000000005970000000000486000000000052900000000005120000000000511000000000051208558000000000005708700000000003020956100000000000000009999123100000010000000000000BRLIGTACNOR2125
012024103008RNEW11      010RENOVA      UNT     N2   R$  000000000031900000000003270000000000317000000000032300000000003240000000000318000000000032400030000000000000010000000000000003230500000000000000009999123100000010000000000000BRRNEWCDAM15110
012024103008RNEW3       010RENOVA      ON      N2   R$  000000000010600000000001070000000000103000000000010400000000001050000000000105000000000010600098000000000000130600000000000013624700000000000000009999123100000010000000000000BRRNEWACNOR8110
012024103008RNEW4       010RENOVA      PN      N2   R$  000000000010700000000001100000000000104000000000010700000000001070000000000107000000000010800201000000000000137300000000000014732900000000000000009999123100000010000000000000BRRNEWACNPR5110
012024103008RPMG3       010PET MANGUINHON           R$  000000000029700000000003010000000000297000000000029900000000003010000000000298000000000030100027000000000000006800000000000002039100000000000000009999123100000010000000000000BRRPMGACNOR9194
012024103008RSID3       010ROSSI RESID ON      NM   R$  000000000030300000000003080000000000295000000000029900000000003050000000000298000000000030500038000000000000013300000000000003986800000000000000009999123100000010000000000000BRRSIDACNOR8120
012024103008PMAM3       010PARANAPANEMAON      NM   R$  000000000009300000000001270000000000092000000000010300000000001030000000000102000000000010301566000000000001476800000000000152936300000000000000009999123100000010000000000000BRPMAMACNOR3040
012024103008HOOT4       010HOTEIS OTHONPN           R$  000000000022900000000002290000000000228000000000022800000000002290000000000229000000000023300003000000000000006000000000000001369600000000000000009999123100000010000000000000BRHOOTACNPR9015
012024103008AGXY3       010AGROGALAXY  ON      NM   R$  000000000004000000000000410000000000039000000000004000000000000410000000000040000000000004100182000000000000120500000000000004885900000000000000009999123100000010000000000000BRAGXYACNOR4103
012024103008OIBR3       010OI          ON      N1   R$  000000000045500000000004620000000000450000000000045500000000004550000000000453000000000045501540000000000000654300000000000297940500000000000000009999123100000010000000000000BROIBRACNOR1112
012024103008OIBR4       010OI          PN      N1   R$  000000000113900000000011390000000001100000000000111800000000011000000000001070000000000111700006000000000000000600000000000000671000000000000000009999123100000010000000000000BROIBRACNPR8111
012024103008OSXB3       010OSX BRASIL  ON      NM   R$  000000000044400000000004590000000000433000000000044300000000004590000000000439000000000045300018000000000000002400000000000001063800000000000000009999123100000010000000000000BROSXBACNOR8109
012024103008ATMP3       010ATMASA      ON           R$  000000000013300000000001330000000000131000000000013100000000001310000000000134000000000013600008000000000000002500000000000000329900000000000000009999123100000010000000000000BRATMPACNOR8100
012024103010MBLY1       010MOBLY       DIR ORD NM   R$  000000000000100000000000010000000000001000000000000100000000000010000000000000000000000000100022000000000000060100000000000000060100000000000000009999123100000010000000000000BRMBLYD01OR0100
012024103010MBLY11      010MOBLY       DIR     NM   R$  000000000002100000000000210000000000016000000000001600000000000160000000000016000000000001900019000000000000013600000000000000227200000000000000009999123100000010000000000000BRMBLYD01M18100
012024103010LIGT11      010LIGHT S/A   DIR     NM   R$  000000000019000000000001900000000000050000000000008000000000000500000000000045000000000005000251000000000002498700000000000201893500000000000000009999123100000010000000000000BRLIGTD01M16124
012024103010LIGT13      010LIGHT S/A   DIR     NM   R$  000000000018400000000001840000000000050000000000008000000000000500000000000002000000000005000111000000000001229100000000000098930200000000000000009999123100000010000000000000BRLIGTD02M15124
012024103010PINE1       010PINE        DIR ORD N2   R$  000000000002500000000000250000000000010000000000001400000000000100000000000008000000000001000089000000000000072200000000000001060400000000000000009999123100000010000000000000BRPINED04OR0150
012024103010PINE2       010PINE        DIR PRE N2   R$  000000000001700000000000300000000000017000000000001800000000000200000000000020000000000004000043000000000000023700000000000000449900000000000000009999123100000010000000000000BRPINED06PR2150
012024103010HBSA1       010HIDROVIAS   DIR ORD NM   R$  000000000000200000000000020000000000001000000000000100000000000020000000000001000000000000200071000000000000309600000000000000576100000000000000009999123100000010000000000000BRHBSAD01OR5100
012024103012MALL11      010FII MALLS BPCI           R$  000000001005500000000101050000000009978000000001002600000000101050000000010105000000001011104823000000000000027839000000000279115869000000000000009999123100000010000000000000BRMALLCTF007185
012024103012MANA11      010FII MANATI  CI           R$  000000000085200000000008580000000000844000000000085100000000008570000000000855000000000085705768000000000000129795000000000110494904000000000000009999123100000010000000000000BRMANACTF006129
012024103012MAXR11      010FII MAX RET CI           R$  000000000667200000000066720000000006650000000000666500000000066710000000006653000000000667100028000000000000000100000000000000666579000000000000009999123100000010000000000000BRMAXRCTF009272
012024103012SNLG11      010FII SUNO LG CI           R$  000000000299000000000029900000000002884000000000293300000000029770000000002977000000000298000040000000000000000625000000000001833365000000000000009999123100000010000000000000BRSNLGCTF007108
012024103012SNME11      010FII SNME    CI           R$  000000000091400000000009350000000000909000000000091500000000009280000000000913000000000093100082000000000000006662000000000006098819000000000000009999123100000010000000000000BRSNMECTF000111
012024103012SPTW11      010FII SP DOWNTCI           R$  000000000365900000000036590000000003630000000000364200000000036300000000003630000000000363900282000000000000001516000000000005521446000000000000009999123100000010000000000000BRSPTWCTF002239
012024103012SPXS11      010FII SPX SYN CI           R$  000000000093200000000009400000000000920000000000093300000000009290000000000924000000000092906628000000000000169706000000000158445646000000000000009999123100000010000000000000BRSPXSCTF002128
012024103012ZAGH11      010FII ZAGH    CI           R$  000000000125000000000013000000000001250000000000128300000000013000000000001250000000000130000002000000000000000003000000000000003850000000000000009999123100000010000000000000BRZAGHCTF007109
012024103012ZAVC11      010FII ZAVIT C CI           R$  000000000101900000000010190000000001019000000000101900000000010190000000000884000000000101800001000000000000000001000000000000001019000000000000009999123100000010000000000000BRZAVCCTF007106
012024103012ZAVI11      010FII ZAVIT R CI           R$  000000001041100000000105980000000010336000000001044200000000104930000000010332000000001053900162000000000000000835000000000008719880000000000000009999123100000010000000000000BRZAVICTF004125
012024103012SAPI11      010FII SAPI    CI           R$  000000000085800000000008650000000000850000000000085900000000008640000000000850000000000086500125000000000000024865000000000021364923000000000000009999123100000010000000000000BRSAPICTF001113
012024103012SARE11      010FII SANT RENCI           R$  000000000039100000000003960000000000388000000000039200000000003960000000000394000000000039601122000000000000135453000000000053119296000000000000009999123100000010000000000000BRSARECTF006161
012024103012WHGR11      010FII WHG REALCI           R$  000000000089200000000008920000000000883000000000088700000000008900000000000888000000000089008017000000000000085923000000000076290681000000000000009999123100000010000000000000BRWHGRCTF008129
012024103012WPLZ11      010FII W PLAZA CI           R$  000000000561400000000056440000000005614000000000562900000000056440000000005550000000000569800002000000000000000002000000000000011258000000000000009999123100000010000000000000BRWPLZCTF004270
012024103012WSEC11      010FII WARREN  CI           R$  000000000080300000000008250000000000803000000000082400000000008250000000000803000000000082500002000000000000001001000000000000825803000000000000009999123100000010000000000000BRWSECCTF010125
012024103012WTSP11      010FII WTC SP  CI           R$  000000000559900000000055990000000005599000000000559900000000055990000000005121000000000559900003000000000000000007000000000000039193000000000000009999123100000010000000000000BRWTSPCTF002168
012024103012XPCI11      010FII XP CRED CI           R$  000000000795400000000080000000000007953000000000797500000000079610000000007961000000000797704152000000000000022936000000000182918596000000000000009999123100000010000000000000BRXPCICTF007161
012024103012XPCM11      010FII XP MACAECI           R$  000000000071100000000007350000000000711000000000072100000000007300000000000721000000000073000093000000000000002738000000000001974628000000000000009999123100000010000000000000BRXPCMCTF009230
012024103012XPIN11      010FII XP INDL CI  ER       R$  000000000739900000000074050000000007252000000000731900000000072620000000007255000000000726200589000000000000004972000000000036393788000000000000009999123100000010000000000000BRXPINCTF004178
012024103012XPLG11      010FII XP LOG  CI           R$  000000000960400000000097840000000009594000000000967800000000097400000000009734000000000974005546000000000000036190000000000350268628000000000000009999123100000010000000000000BRXPLGCTF002182
012024103012XPML11      010FII XP MALLSCI  ER       R$  000000001037000000000104370000000010350000000001039000000000103920000000010392000000001042620490000000000000113259000000001176847902000000000000009999123100000010000000000000BRXPMLCTF000189
012024103012XPPR11      010FII XP PROP CI           R$  000000000150200000000015100000000001479000000000149600000000014990000000001489000000000149900600000000000000008868000000000013266829000000000000009999123100000010000000000000BRXPPRCTF000159
012024103012XPSF11      010FII XP SELECCI           R$  000000000067900000000006840000000000670000000000067700000000006720000000000672000000000067502381000000000000057983000000000039296503000000000000009999123100000010000000000000BRXPSFCTF009160
012024103012PQAG11      010FII PARQ ANHCI           R$  000000000570900000000057090000000005708000000000570800000000057090000000005765000000000579500004000000000000000010000000000000057085000000000000009999123100000010000000000000BRPQAGCTF009152
012024103012DAMA11      010FII DAMA    CI           R$  000000000091000000000009600000000000910000000000093500000000009600000000000945000000000096000010000000000000000080000000000000074800000000000000009999123100000010000000000000BRDAMACTF007105
012024103012DAMT11      010FII DIAMANTECI           R$  000000000108000000000011000000000000820000000000084300000000008200000000000820000000000110000013000000000000000098000000000000082680000000000000009999123100000010000000000000BRDAMTCTF007117
012024103012MFCR11      010FII MERITO RCI           R$  000000000256100000000025620000000002491000000000255600000000024910000000002499000000000255000010000000000000000033000000000000084354000000000000009999123100000010000000000000BRMFCRCTF002128
012024103012MFII11      010FII MERITO ICI           R$  000000001000000000000100990000000009950000000001002400000000100990000000009996000000001009900914000000000000015531000000000155683360000000000000009999123100000010000000000000BRMFIICTF008239
012024103012MGHT11      010FII MOGNO HTCI           R$  000000000177000000000018090000000001764000000000177100000000017640000000001763000000000176400060000000000000000728000000000001289813000000000000009999123100000010000000000000BRMGHTCTF005155
012024103012BLCA11      010FII BLUE AAACI           R$  000000000994800000000099480000000009860000000000986100000000098600000000009860000000000989000191000000000000000233000000000002297654000000000000009999123100000010000000000000BRBLCACTF009135
012024103012BLMG11      010FII BLUE LOGCI           R$  000000000335300000000033530000000003330000000000334100000000033300000000003330000000000334001377000000000000012000000000000040100459000000000000009999123100000010000000000000BRBLMGCTF005151
012024103012BLMO11      010FII BLUEMAC CI           R$  000000000720100000000072010000000007200000000000720000000000072000000000007200000000000729000004000000000000000018000000000000129609000000000000009999123100000010000000000000BRBLMOCTF009135
012024103012BLOG11      010FII BLOG    CI           R$  000000000105000000000010500000000001050000000000105000000000010500000000001030000000000105000002000000000000000020000000000000021000000000000000009999123100000010000000000000BRBLOGCTF001105
012024103012ABCP11      010FII ABC IMOBCI           R$  000000000756600000000077400000000007566000000000766500000000077270000000007727000000000774000072000000000000000438000000000003357652000000000000009999123100000010000000000000BRABCPCTF000343
012024103012BLUR11      010FII BLUE RECCI           R$  000000000898200000000089820000000008892000000000897000000000088920000000006826000000000969700002000000000000000008000000000000071766000000000000009999123100000010000000000000BRBLURCTF005131
012024103012BMLC11      010FII BMBRC LCCI           R$  000000000972400000000097240000000009500000000000953500000000096000000000009500000000000960000010000000000000000132000000000001258710000000000000009999123100000010000000000000BRBMLCCTF004255
012024103012BNFS11      010FII BANRISULCI           R$  000000001116500000000113470000000011153000000001118800000000112110000000011153000000001121200108000000000000000573000000000006411187000000000000009999123100000010000000000000BRBNFSCTF000245
012024103012BIME11      010FII BRIO ME CI           R$  000000000071700000000007270000000000717000000000072300000000007180000000000718000000000072001171000000000000010213000000000007387148000000000000009999123100000010000000000000BRBIMECTF006136
012024103012BRIM11      010FII BRIO II CI           R$  000000011312500000001140000000000110000000000011175800000001100000000000110000000000011350000009000000000000000014000000000001564625000000000000009999123100000010000000000000BRBRIMCTF008131
012024103012BRIP11      010FII BRIO IIICI           R$  000000009050200000000947990000000090502000000009209300000000947990000000091001000000009479900011000000000000000015000000000001381402000000000000009999123100000010000000000000BRBRIPCTF001117
012024103012CXAG11      010FII CAIXA AGCI           R$  000000000734300000000073430000000007200000000000725300000000072300000000007235000000000729400128000000000000002606000000000018901585000000000000009999123100000010000000000000BRCXAGCTF003132
012024103012CXCE11      010FII CX CEDAECI           R$  000000000400200000000040380000000004001000000000400400000000040100000000004010000000000403000020000000000000000393000000000001573661000000000000009999123100000010000000000000BRCXCECTF004273
012024103012ICRI11      010FII CI IPCA CI           R$  000000000945000000000095290000000009450000000000949200000000094930000000009451000000000949300635000000000000012990000000000123301604000000000000009999123100000010000000000000BRICRICTF004108
012024103012IDGR11      010FII UNID II CI           R$  000000000035000000000003500000000000350000000000035000000000003500000000000350000000000041000004000000000000000202000000000000070700000000000000009999123100000010000000000000BRIDGRCTF006131
012024103012CXCI11      010FII CAIXA CICI           R$  000000000739400000000074670000000007389000000000739200000000073920000000007390000000000739200018000000000000000184000000000001360194000000000000009999123100000010000000000000BRCXCICTF005131
012024103012CXCO11      010FII CEF CORPCI           R$  000000000616500000000061650000000006131000000000615200000000061390000000006139000000000616300092000000000000001527000000000009395110000000000000009999123100000010000000000000BRCXCOCTF003142
012024103012CXRI11      010FII CX RBRAVCI           R$  000000000691200000000069890000000006912000000000694600000000069890000000006731000000000698900006000000000000000029000000000000201450000000000000009999123100000010000000000000BRCXRICTF003232
012024103012CYCR11      010FII CYRELA  CI           R$  000000000085000000000008650000000000850000000000085800000000008650000000000864000000000086502033000000000000034926000000000029984914000000000000009999123100000010000000000000BRCYCRCTF004143
