00COTAHIST.2024BOVESPA 20241011                                                                                                                                                                                                                      
012024101102BEES3       010BANESTES    ON  EJ       R$  000000000088500000000008940000000000883000000000088600000000008840000000000884000000000088700085000000000000022000000000000019509500000000000000009999123100000010000000000000BRBEESACNOR9396
012024101102BEES4       010BANESTES    PN  EJ       R$  000000000092400000000009250000000000920000000000092200000000009200000000000918000000000094700016000000000000004200000000000003874200000000000000009999123100000010000000000000BRBEESACNPR6321
012024101102AZEV4       010AZEVEDO     PN           R$  000000000012500000000001270000000000121000000000012300000000001240000000000123000000000012402587000000000002852700000000000351642500000000000000009999123100000010000000000000BRAZEVACNPR7121
012024101102AZUL4       010AZUL        PN      N2   R$  000000000058500000000006050000000000565000000000058100000000005930000000000593000000000059415649000000000033522700000000019486781500000000000000009999123100000010000000000000BRAZULACNPR4103
012024101102BRIT3       010BRISANET    ON      NM   R$  000000000030300000000003080000000000300000000000030300000000003080000000000305000000000030800258000000000000179100000000000054283700000000000000009999123100000010000000000000BRBRITACNOR0103
012024101102BRKM3       010BRASKEM     ON      N1   R$  000000000184700000000018710000000001832000000000184600000000018360000000001830000000000185500078000000000000011600000000000021422100000000000000009999123100000010000000000000BRBRKMACNOR1119
012024101102BRKM5       010BRASKEM     PNA     N1   R$  000000000189800000000019260000000001871000000000189500000000018900000000001889000000000189005670000000000001656000000000003139035000000000000000009999123100000010000000000000BRBRKMACNPA4121
012024101102BRKM6       010BRASKEM     PNB     N1   R$  000000000130100000000013010000000001300000000000130000000000013000000000001296000000000140000003000000000000000300000000000000390100000000000000009999123100000010000000000000BRBRKMACNPB2114
012024101102CSED3       010CRUZEIRO EDUON      NM   R$  000000000031100000000003280000000000303000000000031800000000003180000000000316000000000031801389000000000000681000000000000216787500000000000000009999123100000010000000000000BRCSEDACNOR9105
012024101102CSMG3       010COPASA      ON      NM   R$  000000000223600000000022360000000002181000000000219100000000021910000000002191000000000219503991000000000000825000000000001808116900000000000000009999123100000010000000000000BRCSMGACNOR5175
012024101102BGIP4       010BANESE      PN           R$  000000000241800000000024180000000002350000000000238200000000023500000000002362000000000245000005000000000000000600000000000001429600000000000000009999123100000010000000000000BRBGIPACNPR8210
012024101102BHIA3       010CASAS BAHIA ON      NM   R$  000000000042500000000004330000000000420000000000042600000000004290000000000428000000000042901576000000000001549200000000000660873000000000000000009999123100000010000000000000BRBHIAACNOR1102
012024101102BPAC11      010BTGP BANCO  UNT     N2   R$  000000000320600000000032360000000003167000000000320200000000032150000000003215000000000321911592000000000003156800000000010108405900000000000000009999123100000010000000000000BRBPACUNT006119
012024101102BPAC3       010BTGP BANCO  ON      N2   R$  000000000152400000000015370000000001514000000000151900000000015350000000001510000000000154300029000000000000005200000000000007902700000000000000009999123100000010000000000000BRBPACACNOR7134
012024101102CSNA3       010SID NACIONALON           R$  000000000118200000000011900000000001154000000000117100000000011870000000001187000000000118814448000000000013481700000000015798817800000000000000009999123100000010000000000000BRCSNAACNOR6261
012024101102ENJU3       010ENJOEI      ON      NM   R$  000000000012200000000001270000000000121000000000012400000000001260000000000126000000000012700280000000000000305500000000000037966500000000000000009999123100000010000000000000BRENJUACNOR9100
012024101102EPAR3       010EMBPAR S/A  ON           R$  000000000055300000000005530000000000550000000000055100000000005530000000000550000000000055300009000000000000001300000000000000717200000000000000009999123100000010000000000000BREPARACNOR9105
012024101102EQMA3B      010EQTLMARANHAOON      MB   R$  000000000238500000000023850000000002385000000000238500000000023850000000002360000000000238600001000000000000000100000000000000238500000000000000009999123100000010000000000000BREQMAACNOR8108
012024101102EQPA3       010EQTL PARA   ON           R$  000000000060000000000006070000000000597000000000060200000000006050000000000601000000000060500021000000000000006900000000000004154000000000000000009999123100000010000000000000BREQPAACNOR1111
012024101102EQTL3       010EQUATORIAL  ON      NM   R$  000000000319500000000032010000000003136000000000315900000000031840000000003184000000000318826334000000000009907300000000031305590900000000000000009999123100000010000000000000BREQTLACNOR0131
012024101102BPAC5       010BTGP BANCO  PNA     N2   R$  000000000083400000000008400000000000827000000000083100000000008400000000000832000000000084300030000000000000004100000000000003411100000000000000009999123100000010000000000000BRBPACACNPA0134
012024101102COCE5       010COELCE      PNA          R$  000000000266600000000026870000000002632000000000265500000000026450000000002641000000000267500056000000000000007300000000000019382500000000000000009999123100000010000000000000BRCOCEACNPA3147
012024101102COGN3       010COGNA ON    ON      NM   R$  000000000013200000000001340000000000129000000000013100000000001330000000000132000000000013317954000000000027358800000000003589969500000000000000009999123100000010000000000000BRCOGNACNOR2105
012024101102KRSA3       010KORA SAUDE  ON  EG  NM   R$  000000000046400000000004700000000000453000000000046400000000004550000000000454000000000045500151000000000000084600000000000039282600000000000000009999123100000010000000000000BRKRSAACNOR0101
012024101102EALT3       010ACO ALTONA  ON           R$  000000000145000000000014500000000001450000000000145000000000014500000000001450000000000149500001000000000000000100000000000000145000000000000000009999123100000010000000000000BREALTACNOR4138
012024101102EALT4       010ACO ALTONA  PN           R$  000000000133100000000013820000000001322000000000134600000000013820000000001370000000000138200042000000000000007300000000000009828000000000000000009999123100000010000000000000BREALTACNPR1138
012024101102ECOR3       010ECORODOVIAS ON      NM   R$  000000000070800000000007120000000000693000000000070500000000007120000000000709000000000071206662000000000003631500000000002560386200000000000000009999123100000010000000000000BRECORACNOR8120
012024101102EGIE3       010ENGIE BRASILON      NM   R$  000000000409400000000041160000000004057000000000406700000000040590000000004058000000000406804311000000000000791400000000003219148500000000000000009999123100000010000000000000BREGIEACNOR9127
012024101102GGPS3       010GPS         ON      NM   R$  000000000177900000000017920000000001762000000000177700000000017880000000001786000000000179504603000000000001173600000000002086540800000000000000009999123100000010000000000000BRGGPSACNOR9103
012024101102ATOM3       010ATOMPAR     ON           R$  000000000027600000000002760000000000266000000000026800000000002720000000000266000000000027400037000000000000011700000000000003141600000000000000009999123100000010000000000000BRATOMACNOR1106
012024101102AURE3       010AUREN       ON      NM   R$  000000000101500000000010150000000001003000000000100600000000010060000000001006000000000100806140000000000003301200000000003324103200000000000000009999123100000010000000000000BRAUREACNOR9104
012024101102AVLL3       010ALPHAVILLE  ON      NM   R$  000000000030300000000003090000000000294000000000030300000000003090000000000291000000000031900040000000000000041000000000000012439400000000000000009999123100000010000000000000BRAVLLACNOR5103
012024101102BRBI11      010BR PARTNERS UNT     N2   R$  000000000151500000000015230000000001500000000000151500000000015200000000001518000000000152101255000000000000230700000000000349549300000000000000009999123100000010000000000000BRBRBICDAM10110
012024101102GMAT3       010GRUPO MATEUSON      NM   R$  000000000072100000000007310000000000706000000000072300000000007280000000000728000000000073011687000000000004141500000000002995663700000000000000009999123100000010000000000000BRGMATACNOR7103
012024101102GOAU3       010GERDAU MET  ON      N1   R$  000000000105400000000010540000000001025000000000102900000000010280000000001028000000000103000254000000000000068300000000000070348000000000000000009999123100000010000000000000BRGOAUACNOR1268
012024101102GOAU4       010GERDAU MET  PN      N1   R$  000000000108000000000010840000000001047000000000105600000000010470000000001047000000000105112011000000000011580500000000012240009500000000000000009999123100000010000000000000BRGOAUACNPR8269
012024101102MTRE3       010MITRE REALTYON      NM   R$  000000000035600000000003650000000000353000000000035700000000003620000000000362000000000036500492000000000000228900000000000081910000000000000000009999123100000010000000000000BRMTREACNOR6115
012024101102MTSA4       010METISA      PN           R$  000000000369300000000037270000000003600000000000365700000000036000000000003575000000000385000031000000000000004100000000000014994800000000000000009999123100000010000000000000BRMTSAACNPR9073
012024101102MULT3       010MULTIPLAN   ON      N2   R$  000000000259400000000025940000000002539000000000255600000000025600000000002560000000000256209395000000000002003200000000005120637500000000000000009999123100000010000000000000BRMULTACNOR5139
012024101102MYPK3       010IOCHP-MAXIONON  EJ  NM   R$  000000000100800000000010470000000001007000000000102800000000010290000000001029000000000103805560000000000001136300000000001168193100000000000000009999123100000010000000000000BRMYPKACNOR7156
012024101102BRFS3       010BRF SA      ON      NM   R$  000000000231000000000023100000000002251000000000227200000000022770000000002275000000000227814044000000000004943800000000011237010400000000000000009999123100000010000000000000BRBRFSACNOR8122
012024101102ENEV3       010ENEVA       ON      NM   R$  000000000138700000000013950000000001373000000000138400000000013930000000001389000000000139417007000000000007038100000000009744478400000000000000009999123100000010000000000000BRENEVACNOR8106
012024101102ENGI11      010ENERGISA    UNT     N2   R$  000000000432600000000043510000000004265000000000430200000000043390000000004322000000000433914893000000000003144100000000013529011300000000000000009999123100000010000000000000BRENGICDAM16136
012024101102ENGI3       010ENERGISA    ON      N2   R$  000000000130900000000013110000000001305000000000130700000000013050000000001305000000000131100031000000000000003700000000000004836200000000000000009999123100000010000000000000BRENGIACNOR0146
012024101102ENGI4       010ENERGISA    PN      N2   R$  000000000076100000000007640000000000742000000000075100000000007580000000000758000000000076200071000000000000013200000000000009924900000000000000009999123100000010000000000000BRENGIACNPR7142
012024101102MRVE3       010MRV         ON      NM   R$  000000000077700000000007770000000000736000000000074700000000007360000000000736000000000073819216000000000014936800000000011171754200000000000000009999123100000010000000000000BRMRVEACNOR2127
012024101102RADL3       010RAIADROGASILON  EDJ NM   R$  000000000245000000000024640000000002410000000000242900000000024380000000002435000000000243812428000000000004099400000000009959856400000000000000009999123100000010000000000000BRRADLACNOR0158
012024101102SMFT3       010SMART FIT   ON      NM   R$  000000000220100000000022020000000002147000000000218500000000021900000000002190000000000220004670000000000001153300000000002520603900000000000000009999123100000010000000000000BRSMFTACNOR1112
012024101102SMTO3       010SAO MARTINHOON      NM   R$  000000000266700000000026670000000002609000000000264400000000026420000000002642000000000264306369000000000001114300000000002946334300000000000000009999123100000010000000000000BRSMTOACNOR3127
012024101102JSLG3       010JSL         ON      NM   R$  000000000076600000000007660000000000746000000000075700000000007550000000000754000000000076102297000000000000495400000000000375488400000000000000009999123100000010000000000000BRJSLGACNOR2121
012024101102VITT3       010VITTIA      ON      NM   R$  000000000057700000000005790000000000565000000000057200000000005720000000000570000000000057301029000000000000307000000000000175890000000000000000009999123100000010000000000000BRVITTACNOR4107
012024101102KEPL3       010KEPLER WEBERON      NM   R$  000000000094500000000009460000000000931000000000093800000000009410000000000941000000000094302498000000000000788700000000000740336700000000000000009999123100000010000000000000BRKEPLACNOR1064
012024101102KLBN11      010KLABIN S/A  UNT     N2   R$  000000000204600000000020560000000002005000000000202400000000020150000000002015000000000201617133000000000007076000000000014328313100000000000000009999123100000010000000000000BRKLBNCDAM18143
012024101102KLBN3       010KLABIN S/A  ON      N2   R$  000000000041200000000004130000000000401000000000040500000000004030000000000403000000000040402258000000000000858700000000000348132700000000000000009999123100000010000000000000BRKLBNACNOR2171
012024101102KLBN4       010KLABIN S/A  PN      N2   R$  000000000041100000000004120000000000402000000000040400000000004030000000000403000000000040404864000000000003808700000000001541933400000000000000009999123100000010000000000000BRKLBNACNPR9171
012024101102ALPK3       010ESTAPAR     ON      NM   R$  000000000026400000000002660000000000259000000000026300000000002610000000000261000000000026500362000000000000170700000000000044953800000000000000009999123100000010000000000000BRALPKACNOR9101
012024101102ALUP11      010ALUPAR      UNT     N2   R$  000000000295300000000029540000000002913000000000293200000000029300000000002930000000000294702371000000000000503900000000001477540600000000000000009999123100000010000000000000BRALUPCDAM15120
012024101102ALUP3       010ALUPAR      ON      N2   R$  000000000099800000000010090000000000992000000000099800000000009940000000000994000000000101000038000000000000005800000000000005789600000000000000009999123100000010000000000000BRALUPACNOR8120
012024101102ALUP4       010ALUPAR      PN      N2   R$  000000000097400000000009740000000000960000000000096400000000009600000000000959000000000096900101000000000000019400000000000018703500000000000000009999123100000010000000000000BRALUPACNPR5120
012024101102VIVA3       010VIVARA S.A. ON      NM   R$  000000000269400000000027030000000002653000000000267300000000026920000000002672000000000269211485000000000002930400000000007834145300000000000000009999123100000010000000000000BRVIVAACNOR0107
012024101102VIVR3       010VIVER       ON      NM   R$  000000000019000000000001960000000000180000000000018600000000001810000000000181000000000018300252000000000000205700000000000038398300000000000000009999123100000010000000000000BRVIVRACNOR4123
012024101102VIVT3       010TELEF BRASILON           R$  000000000536300000000053790000000005255000000000529500000000052670000000005267000000000527211280000000000001891500000000010016191800000000000000009999123100000010000000000000BRVIVTACNOR0184
012024101102PRNR3       010PRINER      ON      NM   R$  000000000121100000000012310000000001194000000000120600000000012060000000001205000000000121101270000000000000299000000000000360867200000000000000009999123100000010000000000000BRPRNRACNOR4109
012024101102PSSA3       010PORTO SEGUROON      NM   R$  000000000365500000000036860000000003545000000000361200000000036260000000003623000000000363016531000000000004672200000000016877935400000000000000009999123100000010000000000000BRPSSAACNOR7156
012024101102PTBL3       010PORTOBELLO  ON      NM   R$  000000000045500000000004630000000000451000000000045500000000004630000000000460000000000046300923000000000000255400000000000116335500000000000000009999123100000010000000000000BRPTBLACNOR8132
012024101102PTNT3       010PETTENATI   ON           R$  000000000096000000000009600000000000960000000000096000000000009600000000000940000000000095900001000000000000000100000000000000096000000000000000009999123100000010000000000000BRPTNTACNOR6042
012024101102PTNT4       010PETTENATI   PN           R$  000000000065000000000006540000000000643000000000064900000000006540000000000639000000000065500020000000000000005900000000000003830900000000000000009999123100000010000000000000BRPTNTACNPR3047
012024101102AMAR3       010LOJAS MARISAON      NM   R$  000000000010200000000001030000000000101000000000010100000000001010000000000101000000000010200399000000000000093000000000000009429300000000000000009999123100000010000000000000BRAMARACNOR4115
012024101102AMBP3       010AMBIPAR     ON      NM   R$  000000001282400000000138000000000012644000000001332000000000133010000000013301000000001340001344000000000000596800000000007949588500000000000000009999123100000010000000000000BRAMBPACNOR6103
012024101102ANIM3       010ANIMA       ON      NM   R$  000000000022400000000002320000000000221000000000022600000000002310000000000230000000000023107407000000000008195700000000001854305600000000000000009999123100000010000000000000BRANIMACNOR6109
012024101102ARML3       010ARMAC       ON  EJ  NM   R$  000000000079000000000008020000000000759000000000078300000000008010000000000796000000000080201799000000000000459400000000000359834600000000000000009999123100000010000000000000BRARMLACNOR1113
012024101102ODPV3       010ODONTOPREV  ON  EJ  NM   R$  000000000105300000000010530000000001024000000000103300000000010240000000001023000000000102903319000000000000879900000000000909276500000000000000009999123100000010000000000000BRODPVACNOR4204
012024101102OFSA3       010OUROFINO S/AON      NM   R$  000000000209000000000021150000000002090000000000211200000000021150000000002110000000000215800009000000000000005600000000000011830800000000000000009999123100000010000000000000BROFSAACNOR7118
012024101102ONCO3       010ONCOCLINICASON      NM   R$  000000000045100000000004600000000000442000000000045000000000004550000000000452000000000045502012000000000001149700000000000518454300000000000000009999123100000010000000000000BRONCOACNOR6101
012024101102OPCT3       010OCEANPACT   ON      NM   R$  000000000066900000000006850000000000663000000000067800000000006850000000000676000000000068500961000000000000272900000000000185229200000000000000009999123100000010000000000000BROPCTACNOR0100
012024101102ORVR3       010ORIZON      ON      NM   R$  000000000459000000000045900000000004505000000000454100000000045320000000004532000000000457501994000000000000363200000000001649378300000000000000009999123100000010000000000000BRORVRACNOR0101
012024101102PCAR3       010P.ACUCAR-CBDON      NM   R$  000000000031400000000003290000000000311000000000032200000000003270000000000326000000000032715202000000000022154100000000007151467300000000000000009999123100000010000000000000BRPCARACNOR3167
012024101102CAMB3       010CAMBUCI     ON           R$  000000000123100000000012370000000001220000000000122800000000012200000000001218000000000123100058000000000000012000000000000014737100000000000000009999123100000010000000000000BRCAMBACNOR4131
012024101102CAML3       010CAMIL       ON      NM   R$  000000000087400000000008790000000000814000000000082900000000008240000000000823000000000082404118000000000001794500000000001489046900000000000000009999123100000010000000000000BRCAMLACNOR3129
012024101102CASH3       010MELIUZ      ON      NM   R$  000000000034100000000003500000000000332000000000033900000000003500000000000350000000000035102660000000000001041300000000000353477400000000000000009999123100000010000000000000BRCASHACNOR8107
012024101102CBAV3       010CBA         ON      NM   R$  000000000056500000000005800000000000561000000000057000000000005750000000000573000000000057505343000000000004349300000000002480530400000000000000009999123100000010000000000000BRCBAVACNOR5104
012024101102CSUD3       010CSU DIGITAL ON      NM   R$  000000000170000000000017000000000001675000000000168800000000016980000000001697000000000169900271000000000000043300000000000073120900000000000000009999123100000010000000000000BRCSUDACNOR5111
012024101102AERI3       010AERIS       ON      NM   R$  000000000062700000000006310000000000615000000000062200000000006270000000000624000000000062700304000000000000096000000000000059765300000000000000009999123100000010000000000000BRAERIACNOR4102
012024101102AESB3       010AES BRASIL  ON      NM   R$  000000000117200000000011760000000001172000000000117300000000011740000000001172000000000117402551000000000006977200000000008189149700000000000000009999123100000010000000000000BRAESBACNOR7107
012024101102AGRO3       010BRASILAGRO  ON      NM   R$  000000000247400000000024850000000002462000000000247100000000024740000000002465000000000247600866000000000000144400000000000356830500000000000000009999123100000010000000000000BRAGROACNOR7114
012024101102AHEB3       010SPTURIS     ON           R$  000000000380000000000038000000000003800000000000380000000000038000000000003301000000000390000003000000000000000300000000000001140000000000000000009999123100000010000000000000BRAHEBACNOR0106
012024101102ALLD3       010ALLIED      ON      NM   R$  000000000076000000000007690000000000750000000000075500000000007600000000000755000000000075900133000000000000037300000000000028177500000000000000009999123100000010000000000000BRALLDACNOR3106
012024101102CURY3       010CURY S/A    ON  ED  NM   R$  000000000223500000000022380000000002184000000000221500000000022210000000002214000000000222412459000000000003041300000000006738786900000000000000009999123100000010000000000000BRCURYACNOR3110
012024101102CVCB3       010CVC BRASIL  ON      NM   R$  000000000018400000000001840000000000179000000000018100000000001820000000000181000000000018204357000000000006820100000000001236146200000000000000009999123100000010000000000000BRCVCBACNOR1116
012024101102ESPA3       010ESPACOLASER ON      NM   R$  000000000009600000000000970000000000091000000000009400000000000970000000000095000000000009700549000000000000688500000000000065259700000000000000009999123100000010000000000000BRESPAACNOR7103
012024101102ESTR4       010ESTRELA     PN           R$  000000000033400000000003400000000000334000000000033800000000003400000000000340000000000038700004000000000000000400000000000000135400000000000000009999123100000010000000000000BRESTRACNPR0144
012024101102ETER3       010ETERNIT     ON      NM   R$  000000000056000000000005640000000000555000000000055800000000005600000000000555000000000056000381000000000000082200000000000045888000000000000000009999123100000010000000000000BRETERACNOR3244
012024101102EUCA3       010EUCATEX     ON      N1   R$  000000000162000000000016200000000001620000000000162000000000016200000000001615000000000172600001000000000000000100000000000000162000000000000000009999123100000010000000000000BREUCAACNOR1157
012024101102EUCA4       010EUCATEX     PN      N1   R$  000000000153000000000015400000000001479000000000150000000000015000000000001498000000000150000230000000000000045900000000000068881200000000000000009999123100000010000000000000BREUCAACNPR8044
012024101102EVEN3       010EVEN        ON  ED  NM   R$  000000000064000000000006440000000000628000000000063400000000006300000000000630000000000063602185000000000000529600000000000335817200000000000000009999123100000010000000000000BREVENACNOR8120
012024101102ALOS3       010ALLOS       ON  ED  NM   R$  000000000222100000000022220000000002202000000000221100000000022120000000002211000000000221511015000000000003214300000000007107368600000000000000009999123100000010000000000000BRALOSACNOR5102
012024101102ALPA3       010ALPARGATAS  ON      N1   R$  000000000065900000000006740000000000653000000000067000000000006740000000000651000000000067400018000000000000005600000000000003756800000000000000009999123100000010000000000000BRALPAACNOR0231
012024101102ALPA4       010ALPARGATAS  PN      N1   R$  000000000069200000000006970000000000683000000000068800000000006890000000000687000000000069005773000000000002650800000000001826335200000000000000009999123100000010000000000000BRALPAACNPR7232
012024101102BPAN4       010BANCO PAN   PN      N1   R$  000000000095900000000009640000000000941000000000094900000000009410000000000940000000000094101985000000000000840200000000000797960800000000000000009999123100000010000000000000BRBPANACNPR1115
012024101102BRAP3       010BRADESPAR   ON      N1   R$  000000000178100000000018040000000001768000000000178900000000018040000000001795000000000180400335000000000000090800000000000162484300000000000000009999123100000010000000000000BRBRAPACNOR5148
012024101102BRAP4       010BRADESPAR   PN      N1   R$  000000000192500000000019590000000001921000000000194600000000019450000000001945000000000194708741000000000003235800000000006298322400000000000000009999123100000010000000000000BRBRAPACNPR2148
012024101102DASA3       010DASA        ON      NM   R$  000000000029400000000003040000000000291000000000029700000000002980000000000298000000000030201812000000000000508500000000000151380400000000000000009999123100000010000000000000BRDASAACNOR1123
012024101102DESK3       010DESKTOP     ON      NM   R$  000000000137700000000013770000000001353000000000136100000000013530000000001353000000000136200431000000000000081600000000000111069700000000000000009999123100000010000000000000BRDESKACNOR2104
012024101102DEXP3       010DEXXOS PAR  ON      N1   R$  000000000089000000000008930000000000870000000000087900000000008700000000000870000000000087400349000000000000048800000000000042913000000000000000009999123100000010000000000000BRDEXPACNOR1105
012024101102DIRR3       010DIRECIONAL  ON      NM   R$  000000000297900000000029810000000002874000000000290500000000029050000000002902000000000290612931000000000003514400000000010210975400000000000000009999123100000010000000000000BRDIRRACNOR0119
012024101102EZTC3       010EZTEC       ON      NM   R$  000000000138900000000014160000000001382000000000139900000000014120000000001407000000000141503727000000000001011300000000001415788300000000000000009999123100000010000000000000BREZTCACNOR0126
012024101102FESA3       010FERBASA     ON      N1   R$  000000000132000000000013200000000001320000000000132000000000013200000000001240000000000133000002000000000000000300000000000000396000000000000000009999123100000010000000000000BRFESAACNOR8189
012024101102CPFE3       010CPFL ENERGIAON      NM   R$  000000000326600000000032820000000003240000000000325400000000032520000000003251000000000325906852000000000001672900000000005444324200000000000000009999123100000010000000000000BRCPFEACNOR0137
012024101102CPLE3       010COPEL       ON      N2   R$  000000000091500000000009150000000000894000000000090000000000009000000000000900000000000090111300000000000004186200000000003769257900000000000000009999123100000010000000000000BRCPLEACNOR8150
012024101102CPLE6       010COPEL       PNB     N2   R$  000000000100800000000010080000000000993000000000100000000000010020000000001000000000000100213562000000000013762300000000013767406900000000000000009999123100000010000000000000BRCPLEACNPB9147
012024101102EKTR4       010ELEKTRO     PN           R$  000000000453000000000045450000000004530000000000453600000000045350000000004501000000000453500004000000000000000600000000000002722100000000000000009999123100000010000000000000BREKTRACNPR7165
012024101102ELET3       010ELETROBRAS  ON      N1   R$  000000000380400000000038190000000003768000000000379400000000038130000000003811000000000381514056000000000004151000000000015749220900000000000000009999123100000010000000000000BRELETACNOR6160
012024101102ELET6       010ELETROBRAS  PNB     N1   R$  000000000423900000000042400000000004175000000000420400000000042200000000004217000000000422003974000000000000719400000000003024497800000000000000009999123100000010000000000000BRELETACNPB7077
012024101102FESA4       010FERBASA     PN      N1   R$  000000000077400000000007740000000000763000000000076600000000007660000000000765000000000076600858000000000000256600000000000196769800000000000000009999123100000010000000000000BRFESAACNPR5085
012024101102FHER3       010FER HERINGERON      NM   R$  000000000038200000000003820000000000380000000000038000000000003800000000000380000000000040300007000000000000001600000000000000608800000000000000009999123100000010000000000000BRFHERACNOR5103
012024101102FIEI3       010FICA        ON           R$  000000000100000000000010000000000001000000000000100000000000010000000000001000000000000110000003000000000000015000000000000015000000000000000000009999123100000010000000000000BRFIEIACNOR2100
012024101102FIQE3       010UNIFIQUE    ON      NM   R$  000000000038200000000003870000000000380000000000038200000000003870000000000382000000000038700371000000000000154000000000000058862700000000000000009999123100000010000000000000BRFIQEACNOR5107
012024101102IFCM3       010INFRACOMM   ON      NM   R$  000000000001600000000000170000000000016000000000001600000000000160000000000016000000000001702620000000000002988100000000000048359600000000000000009999123100000010000000000000BRIFCMACNOR8101
012024101102GRND3       010GRENDENE    ON      NM   R$  000000000054700000000005490000000000540000000000054300000000005460000000000545000000000054601624000000000000490200000000000266650200000000000000009999123100000010000000000000BRGRNDACNOR3175
012024101102GUAR3       010GUARARAPES  ON      NM   R$  000000000077000000000008220000000000756000000000078900000000008160000000000816000000000081704426000000000001455800000000001149741900000000000000009999123100000010000000000000BRGUARACNOR4173
012024101102IGTI11      010IGUATEMI S.AUNT     N1   R$  000000000214400000000021480000000002100000000000212100000000021200000000002120000000000212210332000000000002664100000000005651972000000000000000009999123100000010000000000000BRIGTICDAM16106
012024101102IGTI3       010IGUATEMI S.AON      N1   R$  000000000026100000000002650000000000254000000000025700000000002570000000000256000000000025700098000000000000070200000000000018060900000000000000009999123100000010000000000000BRIGTIACNOR8106
012024101102INEP3       010INEPAR      ON           R$  000000000017900000000001870000000000179000000000018200000000001790000000000179000000000018400189000000000000031800000000000005804400000000000000009999123100000010000000000000BRINEPACNOR1143
012024101102INEP4       010INEPAR      PN           R$  000000000017300000000001800000000000170000000000017300000000001700000000000170000000000017500105000000000000038700000000000006701300000000000000009999123100000010000000000000BRINEPACNPR8143
012024101102INTB3       010INTELBRAS   ON      NM   R$  000000000200600000000020370000000001996000000000201900000000020370000000002028000000000203701328000000000000246900000000000498615300000000000000009999123100000010000000000000BRINTBACNOR9112
012024101102IRBR3       010IRBBRASIL REON      NM   R$  000000000431500000000043690000000004273000000000432500000000043470000000004345000000000434903549000000000000615700000000002662909500000000000000009999123100000010000000000000BRIRBRACNOR4111
012024101102AZEV3       010AZEVEDO     ON           R$  000000000012900000000001290000000000120000000000012300000000001250000000000124000000000012501115000000000002449100000000000301319600000000000000009999123100000010000000000000BRAZEVACNOR0121
012024101102HAGA3       010HAGA S/A    ON           R$  000000000025500000000002550000000000247000000000024800000000002510000000000245000000000025000015000000000000005900000000000001467600000000000000009999123100000010000000000000BRHAGAACNOR7103
012024101102HAGA4       010HAGA S/A    PN           R$  000000000011600000000001170000000000116000000000011600000000001170000000000116000000000011800004000000000000000500000000000000058100000000000000009999123100000010000000000000BRHAGAACNPR4103
012024101102HAPV3       010HAPVIDA     ON  ATZ NM   R$  000000000037900000000003900000000000375000000000038200000000003870000000000387000000000038932745000000000054536400000000020877838300000000000000009999123100000010000000000000BRHAPVACNOR4115
012024101102SANB11      010SANTANDER BRUNT          R$  000000000287400000000028850000000002852000000000286100000000028580000000002857000000000286107410000000000004622300000000013226029700000000000000009999123100000010000000000000BRSANBCDAM13165
012024101102SANB3       010SANTANDER BRON           R$  000000000137200000000013790000000001362000000000136700000000013650000000001363000000000136700306000000000000069600000000000095206000000000000000009999123100000010000000000000BRSANBACNOR8172
012024101102SANB4       010SANTANDER BRPN           R$  000000000150000000000015060000000001491000000000149900000000014950000000001493000000000149500242000000000000055800000000000083666400000000000000009999123100000010000000000000BRSANBACNPR5172
012024101102SAPR11      010SANEPAR     UNT     N2   R$  000000000272100000000027450000000002718000000000273300000000027360000000002735000000000273603170000000000000637800000000001743117900000000000000009999123100000010000000000000BRSAPRCDAM13118
012024101102SAPR3       010SANEPAR     ON      N2   R$  000000000052300000000005280000000000519000000000052200000000005240000000000523000000000052800409000000000000147100000000000076877500000000000000009999123100000010000000000000BRSAPRACNOR9159
012024101102SAPR4       010SANEPAR     PN      N2   R$  000000000055600000000005580000000000551000000000055400000000005550000000000555000000000055701623000000000000824700000000000457481000000000000000009999123100000010000000000000BRSAPRACNPR6159
012024101102PDGR3       010PDG REALT   ON      NM   R$  000000000000100000000000020000000000001000000000000100000000000010000000000001000000000000200782000000000104281800000000000106551300000000000000009999123100000010000000000000BRPDGRACNOR8119
012024101102PDTC3       010PADTEC      ON      NM   R$  000000000018200000000001890000000000182000000000018600000000001890000000000189000000000019000033000000000000027600000000000005143100000000000000009999123100000010000000000000BRPDTCACNOR3101
012024101102PEAB3       010PAR AL BAHIAON           R$  000000000440000000000044000000000004400000000000440000000000044000000000004050000000000455000001000000000000000300000000000001320000000000000000009999123100000010000000000000BRPEABACNOR3133
012024101102PEAB4       010PAR AL BAHIAPN           R$  000000000490000000000049000000000004900000000000490000000000049000000000000000000000000509700002000000000000000200000000000000980000000000000000009999123100000010000000000000BRPEABACNPR0133
012024101102PETR3       010PETROBRAS   ON      N2   R$  000000000413900000000041550000000004122000000000413900000000041440000000004141000000000414412630000000000004513400000000018684757200000000000000009999123100000010000000000000BRPETRACNOR9206
012024101102PETR4       010PETROBRAS   PN      N2   R$  000000000376000000000037650000000003732000000000375000000000037620000000003760000000000376230750000000000016335000000000061266794800000000000000009999123100000010000000000000BRPETRACNPR6214
012024101102PFRM3       010PROFARMA    ON      NM   R$  000000000055600000000005700000000000552000000000056100000000005700000000000562000000000057000697000000000000204300000000000114612600000000000000009999123100000010000000000000BRPFRMACNOR1116
012024101102PGMN3       010PAGUE MENOS ON      NM   R$  000000000026900000000002710000000000266000000000026800000000002700000000000268000000000027000911000000000000304100000000000081548600000000000000009999123100000010000000000000BRPGMNACNOR8103
012024101102PINE3       010PINE        ON  EJS N2   R$  000000000050300000000005140000000000485000000000050300000000005020000000000493000000000050200029000000000000004900000000000002467000000000000000009999123100000010000000000000BRPINEACNOR1151
012024101102PINE4       010PINE        PN  EJS N2   R$  000000000051000000000005100000000000488000000000049600000000004880000000000488000000000049200491000000000000236200000000000117303600000000000000009999123100000010000000000000BRPINEACNPR8151
012024101102PLAS3       010PLASCAR PARTON           R$  000000000060000000000006000000000000600000000000060000000000006000000000000520000000000065900001000000000000000300000000000000180000000000000000009999123100000010000000000000BRPLASACNOR2106
012024101102PLPL3       010PLANOEPLANO ON      NM   R$  000000000132100000000013420000000001296000000000131500000000013280000000001324000000000132802124000000000000501900000000000660479600000000000000009999123100000010000000000000BRPLPLACNOR5104
012024101102PNVL3       010DIMED       ON  EJ  NM   R$  000000000101500000000010160000000001003000000000101000000000010150000000001006000000000101501288000000000000245500000000000247997800000000000000009999123100000010000000000000BRPNVLACNOR9208
012024101102POMO3       010MARCOPOLO   ON      N2   R$  000000000061600000000006180000000000604000000000061100000000006100000000000610000000000061301192000000000000967500000000000591490600000000000000009999123100000010000000000000BRPOMOACNOR0099
012024101102POMO4       010MARCOPOLO   PN      N2   R$  000000000081900000000008210000000000801000000000081000000000008110000000000810000000000081218172000000000008857500000000007181113700000000000000009999123100000010000000000000BRPOMOACNPR7099
012024101102PORT3       010WILSON SONS ON      NM   R$  000000000162200000000016250000000001606000000000161400000000016250000000001623000000000162502468000000000000794100000000001282205600000000000000009999123100000010000000000000BRPORTACNOR8109
012024101102POSI3       010POSITIVO TECON      NM   R$  000000000059100000000005950000000000584000000000058900000000005910000000000589000000000059301662000000000000723300000000000426270800000000000000009999123100000010000000000000BRPOSIACNOR9116
012024101102PRIO3       010PETRORIO    ON      NM   R$  000000000445100000000044750000000004410000000000443500000000044260000000004425000000000443221912000000000006111800000000027109109100000000000000009999123100000010000000000000BRPRIOACNOR1107
012024101102ROMI3       010ROMI        ON      NM   R$  000000000108800000000010880000000001079000000000108200000000010870000000001082000000000108700559000000000000082800000000000089654600000000000000009999123100000010000000000000BRROMIACNOR8196
012024101102TPIS3       010TRIUNFO PARTON      NM   R$  000000000056200000000006060000000000562000000000059300000000006050000000000594000000000060500766000000000000195900000000000116256200000000000000009999123100000010000000000000BRTPISACNOR8118
012024101102TRAD3       010TC          ON      NM   R$  000000000059100000000006470000000000540000000000059500000000006420000000000642000000000064300953000000000000409400000000000243657400000000000000009999123100000010000000000000BRTRADACNOR3102
012024101102TRIS3       010TRISUL      ON      NM   R$  000000000049200000000004970000000000485000000000049100000000004930000000000493000000000049700725000000000000214100000000000105301100000000000000009999123100000010000000000000BRTRISACNOR4118
012024101102TRPL3       010TRAN PAULISTON      N1   R$  000000000321900000000032200000000003165000000000317900000000031670000000003152000000000316700008000000000000000800000000000002543200000000000000009999123100000010000000000000BRTRPLACNOR4185
012024101102TRPL4       010TRAN PAULISTPN      N1   R$  000000000249300000000025340000000002451000000000247300000000024710000000002470000000000247113770000000000003647900000000009022643400000000000000009999123100000010000000000000BRTRPLACNPR1185
012024101102TTEN3       0103TENTOS     ON      NM   R$  000000000106000000000010650000000001043000000000105500000000010650000000001059000000000106503951000000000000800000000000000844754700000000000000009999123100000010000000000000BRTTENACNOR0103
012024101102TUPY3       010TUPY        ON      NM   R$  000000000245600000000024570000000002422000000000243500000000024300000000002430000000000243802691000000000000443600000000001080314200000000000000009999123100000010000000000000BRTUPYACNOR1184
012024101102BBDC3       010BRADESCO    ON  EJ  N1   R$  000000000130300000000013140000000001291000000000130000000000012990000000001299000000000130006536000000000004387200000000005703856400000000000000009999123100000010000000000000BRBBDCACNOR1776
012024101102BBDC4       010BRADESCO    PN  EJ  N1   R$  000000000149800000000015000000000001473000000000148200000000014800000000001479000000000148132888000000000035332100000000052363046100000000000000009999123100000010000000000000BRBBDCACNPR8776
012024101102RCSL3       010RECRUSUL    ON           R$  000000000046400000000004690000000000424000000000044000000000004530000000000452000000000045302846000000000001442300000000000636029700000000000000009999123100000010000000000000BRRCSLACNOR4134
012024101102RCSL4       010RECRUSUL    PN           R$  000000000011000000000001240000000000107000000000011500000000001210000000000120000000000012103774000000000003060100000000000354259900000000000000009999123100000010000000000000BRRCSLACNPR1134
012024101102RDNI3       010RNI         ON      NM   R$  000000000031000000000003180000000000310000000000031300000000003180000000000311000000000031900013000000000000002800000000000000879000000000000000009999123100000010000000000000BRRDNIACNOR9116
012024101102LAVV3       010LAVVI       ON      NM   R$  000000000080300000000008100000000000791000000000079800000000008100000000000810000000000081101705000000000000462600000000000369540400000000000000009999123100000010000000000000BRLAVVACNOR4113
012024101102LEVE3       010METAL LEVE  ON      NM   R$  000000000302100000000030380000000003010000000000302000000000030230000000003022000000000302301538000000000000235300000000000710839900000000000000009999123100000010000000000000BRLEVEACNOR2197
012024101102LJQQ3       010QUERO-QUERO ON      NM   R$  000000000028300000000002900000000000278000000000028300000000002890000000000287000000000028904234000000000003374500000000000957981300000000000000009999123100000010000000000000BRLJQQACNOR5104
012024101102LOGG3       010LOG COM PROPON      NM   R$  000000000222100000000022280000000002150000000000219400000000021830000000002182000000000218302168000000000004554600000000009993691400000000000000009999123100000010000000000000BRLOGGACNOR7107
012024101102LOGN3       010LOG-IN      ON      NM   R$  000000000313800000000031990000000003013000000000309700000000030130000000003012000000000307000211000000000000028900000000000089521800000000000000009999123100000010000000000000BRLOGNACNOR3105
012024101102LPSB3       010LOPES BRASILON      NM   R$  000000000017300000000001730000000000167000000000017000000000001710000000000171000000000017300178000000000000098800000000000016837700000000000000009999123100000010000000000000BRLPSBACNOR0114
012024101102LREN3       010LOJAS RENNERON      NM   R$  000000000184200000000018790000000001796000000000183800000000018710000000001870000000000187124829000000000020439600000000037585321200000000000000009999123100000010000000000000BRLRENACNOR1222
012024101102SEER3       010SER EDUCA   ON      NM   R$  000000000057000000000005790000000000564000000000057100000000005780000000000576000000000057800833000000000000215400000000000123001800000000000000009999123100000010000000000000BRSEERACNOR5119
012024101102SEQL3       010SEQUOIA LOG ON      NM   R$  000000000043700000000004490000000000429000000000043900000000004490000000000448000000000044900614000000000000311400000000000136757200000000000000009999123100000010000000000000BRSEQLACNOR2103
012024101102SHOW3       010TIME FOR FUNON      NM   R$  000000000009700000000000980000000000095000000000009600000000000950000000000095000000000009600261000000000000169400000000000016289100000000000000009999123100000010000000000000BRSHOWACNOR7105
012024101102SHUL4       010SCHULZ      PN           R$  000000000062000000000006200000000000608000000000061400000000006180000000000618000000000061901210000000000000447900000000000275458400000000000000009999123100000010000000000000BRSHULACNPR4157
012024101102SIMH3       010SIMPAR      ON      NM   R$  000000000049700000000004990000000000484000000000049100000000004990000000000496000000000049906206000000000004602900000000002261082400000000000000009999123100000010000000000000BRSIMHACNOR0107
012024101102LAND3       010TERRASANTAPAON      NM   R$  000000000131700000000013470000000001285000000000131600000000013390000000001310000000000133900179000000000000022300000000000029367000000000000000009999123100000010000000000000BRLANDACNOR9103
012024101102CMIG3       010CEMIG       ON      N1   R$  000000000142700000000014270000000001406000000000141300000000014160000000001415000000000142200573000000000000086300000000000121980200000000000000009999123100000010000000000000BRCMIGACNOR6244
012024101102CMIG4       010CEMIG       PN      N1   R$  000000000111200000000011150000000001093000000000110000000000011020000000001101000000000110414738000000000012321600000000013563734500000000000000009999123100000010000000000000BRCMIGACNPR3245
012024101102CMIN3       010CSNMINERACAOON  EDJ N2   R$  000000000058600000000005940000000000581000000000058800000000005940000000000593000000000059506445000000000005592400000000003290922200000000000000009999123100000010000000000000BRCMINACNOR2112
012024101102MDNE3       010MOURA DUBEUXON      NM   R$  000000000155700000000015680000000001532000000000154700000000015370000000001537000000000155002943000000000000697500000000001079115000000000000000009999123100000010000000000000BRMDNEACNOR9100
012024101102MEAL3       010IMC S/A     ON      NM   R$  000000000013600000000001370000000000134000000000013500000000001370000000000136000000000013700139000000000000218900000000000029594000000000000000009999123100000010000000000000BRMEALACNOR9105
012024101102MELK3       010MELNICK     ON      NM   R$  000000000035300000000003590000000000345000000000035200000000003540000000000354000000000035500775000000000000733900000000000258919500000000000000009999123100000010000000000000BRMELKACNOR8111
012024101102MGLU3       010MAGAZ LUIZA ON      NM   R$  000000000092200000000009470000000000893000000000091600000000009450000000000945000000000094619021000000000028486200000000026103866800000000000000009999123100000010000000000000BRMGLUACNOR2125
012024101102RDOR3       010REDE D OR   ON      NM   R$  000000000300100000000030130000000002951000000000297300000000029960000000002994000000000299611830000000000003576800000000010637362500000000000000009999123100000010000000000000BRRDORACNOR8114
012024101102RECV3       010PETRORECSA  ON      NM   R$  000000000181000000000018190000000001787000000000180600000000018190000000001818000000000181904478000000000001119000000000002021142800000000000000009999123100000010000000000000BRRECVACNOR3107
012024101102REDE3       010REDE ENERGIAON           R$  000000000068900000000006890000000000681000000000068500000000006870000000000687000000000068800016000000000000002300000000000001576300000000000000009999123100000010000000000000BRREDEACNOR7128
012024101102RENT3       010LOCALIZA    ON      NM   R$  000000000409500000000041880000000004049000000000414500000000041580000000004156000000000416519437000000000006397300000000026518705300000000000000009999123100000010000000000000BRRENTACNOR4197
012024101102TASA3       010TAURUS ARMASON      N2   R$  000000000106200000000010620000000001031000000000104800000000010370000000001036000000000104500075000000000000009000000000000009432500000000000000009999123100000010000000000000BRTASAACNOR7104
012024101102TASA4       010TAURUS ARMASPN      N2   R$  000000000100600000000010150000000001003000000000100700000000010050000000001005000000000100800651000000000000121400000000000122264100000000000000009999123100000010000000000000BRTASAACNPR4104
012024101102TCSA3       010TECNISA     ON      NM   R$  000000000017100000000001750000000000171000000000017100000000001710000000000171000000000017200094000000000000067000000000000011519400000000000000009999123100000010000000000000BRTCSAACNOR3112
012024101102TECN3       010TECHNOS     ON      NM   R$  000000000056000000000005650000000000537000000000054500000000005460000000000541000000000054600239000000000000055200000000000030114900000000000000009999123100000010000000000000BRTECNACNOR6109
012024101102TELB3       010TELEBRAS    ON           R$  000000000157000000000015700000000001485000000000153900000000014850000000001465000000000154000010000000000000001600000000000002462700000000000000009999123100000010000000000000BRTELBACNOR2140
012024101102SNSY5       010SANSUY      PNA          R$  000000000051500000000005150000000000514000000000051400000000005140000000000486000000000051500003000000000000001100000000000000565500000000000000009999123100000010000000000000BRSNSYACNPA5111
012024101102SOJA3       010BOA SAFRA   ON  EJ  NM   R$  000000000119000000000012250000000001186000000000120900000000012250000000001223000000000122501609000000000000378400000000000457700600000000000000009999123100000010000000000000BRSOJAACNOR9106
012024101102SRNA3       010SERENA      ON      NM   R$  000000000079000000000007960000000000779000000000078800000000007910000000000791000000000079603683000000000001001200000000000789869500000000000000009999123100000010000000000000BRSRNAACNOR4100
012024101102STBP3       010SANTOS BRP  ON      NM   R$  000000000146500000000014770000000001463000000000146900000000014730000000001470000000000147306920000000000006030500000000008862155400000000000000009999123100000010000000000000BRSTBPACNOR3131
012024101102YDUQ3       010YDUQS PART  ON      NM   R$  000000000100200000000010350000000000984000000000101200000000010320000000001031000000000103212700000000000005696900000000005765811700000000000000009999123100000010000000000000BRYDUQACNOR3105
012024101102ZAMP3       010ZAMP S.A.   ON           R$  000000000024900000000002510000000000245000000000024700000000002490000000000248000000000024900941000000000000226200000000000056041700000000000000009999123100000010000000000000BRZAMPACNOR5101
012024101102PETZ3       010PETZ        ON      NM   R$  000000000047500000000004950000000000474000000000048400000000004880000000000488000000000049007002000000000005973400000000002891755600000000000000009999123100000010000000000000BRPETZACNOR2110
012024101102RANI3       010IRANI       ON      NM   R$  000000000076100000000007610000000000746000000000075000000000007470000000000746000000000075001929000000000000543500000000000408015900000000000000009999123100000010000000000000BRRANIACNOR5073
012024101102RAPT3       010RANDON PART ON      N1   R$  000000000087900000000008830000000000872000000000087400000000008740000000000874000000000088300034000000000000011100000000000009710400000000000000009999123100000010000000000000BRRAPTACNOR7163
012024101102RAPT4       010RANDON PART PN      N1   R$  000000000106100000000010730000000001042000000000106300000000010730000000001071000000000107304368000000000001325900000000001409920500000000000000009999123100000010000000000000BRRAPTACNPR4163
012024101102VALE3       010VALE        ON      NM   R$  000000000609900000000062270000000006098000000000618700000000062130000000006210000000000621441746000000000020933200000000129514344500000000000000009999123100000010000000000000BRVALEACNOR0211
012024101102WEST3       010WESTWING    ON      NM   R$  000000000008100000000000810000000000079000000000007900000000000790000000000079000000000008000034000000000000038100000000000003023300000000000000009999123100000010000000000000BRWESTACNOR3100
012024101102WHRL3       010WHIRLPOOL   ON           R$  000000000041800000000004180000000000416000000000041600000000004160000000000417000000000042800006000000000000001100000000000000458300000000000000009999123100000010000000000000BRWHRLACNOR5129
012024101102WHRL4       010WHIRLPOOL   PN           R$  000000000044000000000004430000000000438000000000044000000000004430000000000443000000000044700015000000000000014600000000000006434300000000000000009999123100000010000000000000BRWHRLACNPR2129
012024101102WIZC3       010WIZ CO      ON      NM   R$  000000000059400000000006030000000000594000000000059800000000006000000000000599000000000060000924000000000000209300000000000125341000000000000000009999123100000010000000000000BRWIZCACNOR5102
012024101102TELB4       010TELEBRAS    PN           R$  000000000094900000000009490000000000935000000000094100000000009430000000000930000000000094900008000000000000001800000000000001694300000000000000009999123100000010000000000000BRTELBACNPR9140
012024101102TEND3       010TENDA       ON      NM   R$  000000000133000000000013420000000001293000000000131900000000013410000000001335000000000134107482000000000002122200000000002801292300000000000000009999123100000010000000000000BRTENDACNOR4111
012024101102TFCO4       010TRACK FIELD PN      N2   R$  000000000101300000000010390000000000990000000000101900000000010390000000001039000000000104001303000000000000390000000000000397775500000000000000009999123100000010000000000000BRTFCOACNPR8115
012024101102TGMA3       010TEGMA       ON      NM   R$  000000000259100000000026070000000002543000000000257700000000026000000000002600000000000260601089000000000000213100000000000549193400000000000000009999123100000010000000000000BRTGMAACNOR7145
012024101102TIMS3       010TIM         ON      NM   R$  000000000171000000000017220000000001698000000000170700000000016980000000001698000000000170010675000000000005374500000000009177640400000000000000009999123100000010000000000000BRTIMSACNOR5118
012024101102WLMM4       010WLM IND COM PN           R$  000000000324600000000032460000000003229000000000323800000000032390000000003001000000000323500005000000000000000500000000000001619000000000000000009999123100000010000000000000BRWLMMACNPR3119
012024101102RAIL3       010RUMO S.A.   ON      NM   R$  000000000193400000000019360000000001897000000000190800000000019130000000001906000000000191419941000000000011685100000000022300809600000000000000009999123100000010000000000000BRRAILACNOR9105
012024101102RAIZ4       010RAIZEN      PN      N2   R$  000000000029700000000002980000000000289000000000029200000000002950000000000295000000000029614113000000000011809800000000003456098400000000000000009999123100000010000000000000BRRAIZACNPR6111
012024101102DMVF3       010D1000VFARMA ON      NM   R$  000000000066000000000006740000000000633000000000066100000000006570000000000657000000000067000571000000000000340600000000000225270300000000000000009999123100000010000000000000BRDMVFACNOR9100
012024101102DOHL4       010DOHLER      PN           R$  000000000041200000000004120000000000411000000000041100000000004110000000000399000000000041200002000000000000000500000000000000205700000000000000009999123100000010000000000000BRDOHLACNPR9066
012024101102DOTZ3       010DOTZ SA     ON      NM   R$  000000000058800000000006210000000000561000000000057900000000005680000000000568000000000057000157000000000000046900000000000027194200000000000000009999123100000010000000000000BRDOTZACNOR7101
012024101102DXCO3       010DEXCO       ON      NM   R$  000000000078900000000008050000000000784000000000079600000000008030000000000800000000000080403425000000000001216700000000000969220700000000000000009999123100000010000000000000BRDXCOACNOR8105
012024101102ITUB3       010ITAUUNIBANCOON      N1   R$  000000000303900000000030470000000003016000000000303000000000030170000000003015000000000302301307000000000000264000000000000800029900000000000000009999123100000010000000000000BRITUBACNOR4342
012024101102ITUB4       010ITAUUNIBANCOPN      N1   R$  000000000348300000000034970000000003455000000000347100000000034630000000003462000000000346329848000000000016965500000000058888013000000000000000009999123100000010000000000000BRITUBACNPR1342
012024101102SUZB3       010SUZANO S.A. ON      NM   R$  000000000541300000000055250000000005386000000000545400000000054200000000005420000000000543024652000000000005491800000000029956736100000000000000009999123100000010000000000000BRSUZBACNOR0130
012024101102UCAS3       010UNICASA     ON      NM   R$  000000000021700000000002170000000000211000000000021300000000002130000000000213000000000021400087000000000000050800000000000010822200000000000000009999123100000010000000000000BRUCASACNOR1113
012024101102UGPA3       010ULTRAPAR    ON      NM   R$  000000000206900000000020880000000002064000000000207600000000020840000000002083000000000209009735000000000002076400000000004311573600000000000000009999123100000010000000000000BRUGPAACNOR8156
012024101102UNIP3       010UNIPAR      ON           R$  000000000462800000000046600000000004575000000000462200000000046220000000004631000000000467100126000000000000274600000000001269363100000000000000009999123100000010000000000000BRUNIPACNOR7206
012024101102UNIP5       010UNIPAR      PNA          R$  000000000480000000000048210000000004799000000000480300000000048200000000004820000000000499000017000000000000002000000000000009606000000000000000009999123100000010000000000000BRUNIPACNPA0208
012024101102UNIP6       010UNIPAR      PNB          R$  000000000464000000000046580000000004585000000000463500000000046580000000004652000000000465800878000000000000110100000000000510325100000000000000009999123100000010000000000000BRUNIPACNPB8206
012024101102USIM3       010USIMINAS    ON      N1   R$  000000000060600000000006120000000000602000000000060700000000006080000000000608000000000061200536000000000000200200000000000121584000000000000000009999123100000010000000000000BRUSIMACNOR3167
012024101102CXSE3       010CAIXA SEGURION      NM   R$  000000000141100000000014240000000001404000000000141700000000014210000000001420000000000142407820000000000002367300000000003355961600000000000000009999123100000010000000000000BRCXSEACNOR7107
012024101102CYRE3       010CYRELA REALTON      NM   R$  000000000217600000000021760000000002122000000000214000000000021400000000002140000000000214218513000000000004644800000000009942764400000000000000009999123100000010000000000000BRCYREACNOR7140
012024101102FLRY3       010FLEURY      ON      NM   R$  000000000148000000000014820000000001456000000000147200000000014810000000001480000000000148107076000000000001978700000000002913452100000000000000009999123100000010000000000000BRFLRYACNOR5139
012024101102TOTS3       010TOTVS       ON      NM   R$  000000000280100000000028270000000002751000000000278100000000028000000000002800000000000281012116000000000003966600000000011033549200000000000000009999123100000010000000000000BRTOTSACNOR8145
012024101102FRAS3       010FRAS-LE     ON      N1   R$  000000000205800000000020880000000002051000000000207100000000020840000000002074000000000208501204000000000000185500000000000384275100000000000000009999123100000010000000000000BRFRASACNOR0160
012024101102FRIO3       010METALFRIO   ON      NM   R$  000000000916500000000094300000000008500000000000899100000000085000000000008100000000000890000015000000000000001800000000000016184700000000000000009999123100000010000000000000BRFRIOACNOR2111
012024101102GEPA3       010GER PARANAP ON  ED       R$  000000000284800000000028480000000002671000000000278900000000026710000000002661000000000284500002000000000000000300000000000000836700000000000000009999123100000010000000000000BRGEPAACNOR2154
012024101102GFSA3       010GAFISA      ON      NM   R$  000000000019000000000001940000000000187000000000019000000000001900000000000190000000000019101988000000000002811500000000000535184300000000000000009999123100000010000000000000BRGFSAACNOR3125
012024101102GGBR3       010GERDAU      ON      N1   R$  000000000166400000000016860000000001620000000000164800000000016460000000001632000000000164600317000000000000041400000000000068234500000000000000009999123100000010000000000000BRGGBRACNOR1193
012024101102GGBR4       010GERDAU      PN      N1   R$  000000000190900000000019140000000001828000000000185600000000018430000000001843000000000184645944000000000041742200000000077497545700000000000000009999123100000010000000000000BRGGBRACNPR8193
012024101102MATD3       010MATER DEI   ON      NM   R$  000000000044300000000004560000000000433000000000044600000000004450000000000442000000000044502437000000000000638300000000000285283700000000000000009999123100000010000000000000BRMATDACNOR4104
012024101102MBLY3       010MOBLY       ON      NM   R$  000000000021300000000002150000000000209000000000021100000000002140000000000212000000000021400317000000000000178100000000000037705600000000000000009999123100000010000000000000BRMBLYACNOR5100
012024101102MDIA3       010M.DIASBRANCOON      NM   R$  000000000250000000000025450000000002477000000000252000000000025290000000002526000000000253002912000000000000503600000000001269108400000000000000009999123100000010000000000000BRMDIAACNOR7136
012024101102MILS3       010MILLS       ON      NM   R$  000000000105200000000010610000000001043000000000105500000000010610000000001061000000000106203674000000000000914000000000000964320100000000000000009999123100000010000000000000BRMILSACNOR2128
012024101102MLAS3       010MULTILASER  ON      NM   R$  000000000015800000000001610000000000155000000000015800000000001610000000000159000000000016101792000000000001022100000000000161629300000000000000009999123100000010000000000000BRMLASACNOR9101
012024101102MNPR3       010MINUPAR     ON           R$  000000000183900000000018930000000001810000000000181900000000018780000000001811000000000187900028000000000000007000000000000012737800000000000000009999123100000010000000000000BRMNPRACNOR5122
012024101102B3SA3       010B3          ON      NM   R$  000000000107200000000010750000000001054000000000106400000000010690000000001068000000000107018335000000000025477300000000027108726000000000000000009999123100000010000000000000BRB3SAACNOR6134
012024101102CLSA3       010CLEARSALE   ON      NM   R$  000000000095200000000009580000000000946000000000095100000000009540000000000950000000000095402219000000000002093600000000001991293100000000000000009999123100000010000000000000BRCLSAACNOR0100
012024101102CLSC3       010CELESC      ON      N2   R$  000000000740200000000074020000000007402000000000740200000000074020000000007401000000000760000001000000000000000100000000000000740200000000000000009999123100000010000000000000BRCLSCACNOR6153
012024101102CLSC4       010CELESC      PN      N2   R$  000000000804000000000081720000000008040000000000811200000000081720000000008040000000000820100006000000000000000600000000000004867300000000000000009999123100000010000000000000BRCLSCACNPR3132
012024101102CCRO3       010CCR SA      ON      NM   R$  000000000121000000000012110000000001187000000000120100000000012110000000001204000000000121108980000000000008772800000000010539326200000000000000009999123100000010000000000000BRCCROACNOR2145
012024101102CEAB3       010CEA MODAS   ON      NM   R$  000000000102900000000011310000000001029000000000109300000000011020000000001102000000000110610266000000000006474300000000007082591300000000000000009999123100000010000000000000BRCEABACNOR1102
012024101102CEBR3       010CEB         ON           R$  000000000188500000000019000000000001882000000000188900000000019000000000001874000000000190000008000000000000001000000000000001889000000000000000009999123100000010000000000000BRCEBRACNOR5125
012024101102CEBR5       010CEB         PNA          R$  000000000163300000000016490000000001618000000000162700000000016350000000001620000000000163500009000000000000003500000000000005697100000000000000009999123100000010000000000000BRCEBRACNPA8124
012024101102CEBR6       010CEB         PNB          R$  000000000177800000000017930000000001775000000000178200000000017900000000001783000000000179200007000000000000001400000000000002495000000000000000009999123100000010000000000000BRCEBRACNPB6124
012024101102CEDO3       010CEDRO       ON      N1   R$  000000000220000000000022000000000002200000000000220000000000022000000000002100000000000220000002000000000000002900000000000006380000000000000000009999123100000010000000000000BRCEDOACNOR8096
012024101102CEDO4       010CEDRO       PN      N1   R$  000000000223600000000022360000000002236000000000223600000000022360000000002236000000000237400001000000000000000400000000000000894400000000000000009999123100000010000000000000BRCEDOACNPR5128
012024101102CGAS5       010COMGAS      PNA          R$  000000001289000000000129000000000012650000000001287600000000126500000000012600000000001290000010000000000000001200000000000015451700000000000000009999123100000010000000000000BRCGASACNPA3161
012024101102CGRA3       010GRAZZIOTIN  ON           R$  000000000250500000000025280000000002505000000000251700000000025280000000002515000000000253100004000000000000010600000000000026690200000000000000009999123100000010000000000000BRCGRAACNOR2083
012024101102CGRA4       010GRAZZIOTIN  PN           R$  000000000251500000000025400000000002509000000000251500000000025400000000002502000000000253500014000000000000034900000000000087786200000000000000009999123100000010000000000000BRCGRAACNPR9083
012024101102USIM5       010USIMINAS    PNA     N1   R$  000000000062700000000006270000000000617000000000062100000000006250000000000625000000000062607623000000000008909200000000005537050000000000000000009999123100000010000000000000BRUSIMACNPA6169
012024101102VLID3       010VALID       ON      NM   R$  000000000220500000000022130000000002120000000000214300000000021290000000002122000000000212902415000000000000370700000000000794549700000000000000009999123100000010000000000000BRVLIDACNOR5144
012024101102VSTE3       010VESTE       ON      NM   R$  000000000100200000000010370000000000988000000000100400000000010100000000000993000000000104100025000000000000007500000000000007536700000000000000009999123100000010000000000000BRVSTEACNOR5103
012024101102VTRU3       010VITRUEDUCA  ON      NM   R$  000000000094300000000009430000000000918000000000092600000000009290000000000924000000000092900422000000000000115900000000000107372700000000000000009999123100000010000000000000BRVTRUACNOR3100
012024101102VULC3       010VULCABRAS   ON      NM   R$  000000000164400000000016440000000001616000000000162900000000016350000000001633000000000163501305000000000000251000000000000409118400000000000000009999123100000010000000000000BRVULCACNOR2162
012024101102VVEO3       010VIVEO       ON      NM   R$  000000000018000000000001830000000000175000000000017800000000001780000000000178000000000018001601000000000002186900000000000389587600000000000000009999123100000010000000000000BRVVEOACNOR0104
012024101102ITSA3       010ITAUSA      ON      N1   R$  000000000105800000000010580000000001046000000000104900000000010490000000001048000000000105000324000000000000079100000000000083019500000000000000009999123100000010000000000000BRITSAACNOR0443
012024101102ITSA4       010ITAUSA      PN      N1   R$  000000000105200000000010540000000001044000000000104800000000010470000000001047000000000104817764000000000011656900000000012218436800000000000000009999123100000010000000000000BRITSAACNPR7443
012024101102LUPA3       010LUPATECH    ON      NM   R$  000000000014000000000001430000000000139000000000014100000000001430000000000141000000000014300113000000000000154200000000000021863500000000000000009999123100000010000000000000BRLUPAACNOR8112
012024101102LVTC3       010WDC NETWORKSON      NM   R$  000000000038400000000003840000000000373000000000037400000000003730000000000373000000000038300030000000000000006800000000000002548100000000000000009999123100000010000000000000BRLVTCACNOR4102
012024101102LWSA3       010LWSA        ON      NM   R$  000000000041400000000004220000000000403000000000040800000000004060000000000405000000000040807112000000000003734200000000001525521900000000000000009999123100000010000000000000BRLWSAACNOR8103
012024101102ASAI3       010ASSAI       ON      NM   R$  000000000066400000000006750000000000643000000000065600000000006720000000000670000000000067217339000000000016985100000000011159182000000000000000009999123100000010000000000000BRASAIACNOR0106
012024101102WEGE3       010WEG         ON      NM   R$  000000000541900000000054380000000005363000000000541100000000054170000000005415000000000541713883000000000003283500000000017767459700000000000000009999123100000010000000000000BRWEGEACNOR0225
012024101102BAHI3       010BAHEMA      ON      MA   R$  000000000056900000000005690000000000569000000000056900000000005690000000000531000000000059900001000000000000000100000000000000056900000000000000009999123100000010000000000000BRBAHIACNOR1074
012024101102BAZA3       010AMAZONIA    ON           R$  000000000919200000000092950000000009137000000000919700000000092950000000009150000000000930000019000000000000002400000000000022072800000000000000009999123100000010000000000000BRBAZAACNOR0179
012024101102BBAS3       010BRASIL      ON      NM   R$  000000000262800000000026460000000002617000000000263100000000026330000000002633000000000263525954000000000012175200000000032041575800000000000000009999123100000010000000000000BRBBASACNOR3326
012024101102BIOM3       010BIOMM       ON      MA   R$  000000000088200000000009180000000000882000000000090100000000008900000000000890000000000089700171000000000000034600000000000031176400000000000000009999123100000010000000000000BRBIOMACNOR2112
012024101102BLAU3       010BLAU        ON      NM   R$  000000000129500000000013120000000001295000000000130300000000013100000000001301000000000131000517000000000000078200000000000101927100000000000000009999123100000010000000000000BRBLAUACNOR8115
012024101102BMEB4       010MERCANTIL   PN      N1   R$  000000000390900000000039700000000003901000000000394200000000039580000000003940000000000396000161000000000000017400000000000068594500000000000000009999123100000010000000000000BRBMEBACNPR5211
012024101102BEEF3       010MINERVA     ON      NM   R$  000000000058000000000005810000000000544000000000055500000000005540000000000553000000000055415426000000000017922600000000009955521000000000000000009999123100000010000000000000BRBEEFACNOR6116
012024101102BMGB4       010BANCO BMG   PN      N1   R$  000000000041200000000004240000000000409000000000041700000000004240000000000421000000000042402575000000000000791400000000000330476400000000000000009999123100000010000000000000BRBMGBACNPR0110
012024101102BMKS3       010BIC MONARK  ON           R$  000000003100000000000310000000000030400000000003058500000000310000000000030403000000003100000025000000000000000195000000000005964198000000000000009999123100000010000000000000BRBMKSACNOR9166
012024101102BMOB3       010BEMOBI TECH ON      NM   R$  000000000140600000000014310000000001391000000000141100000000014310000000001413000000000143100707000000000000088300000000000124601700000000000000009999123100000010000000000000BRBMOBACNOR7103
012024101102BOBR4       010BOMBRIL     PN           R$  000000000023300000000002380000000000228000000000023400000000002340000000000234000000000023700216000000000000070400000000000016511000000000000000009999123100000010000000000000BRBOBRACNPR3128
012024101102BRAV3       010BRAVA       ON      NM   R$  000000000173700000000017540000000001712000000000173200000000017440000000001744000000000174608997000000000004002400000000006934546800000000000000009999123100000010000000000000BRBRAVACNOR3100
012024101102CRFB3       010CARREFOUR BRON      NM   R$  000000000075400000000007540000000000717000000000072800000000007350000000000734000000000073514778000000000010681200000000007779094500000000000000009999123100000010000000000000BRCRFBACNOR2116
012024101102CRPG5       010CRISTAL     PNA          R$  000000000252300000000025500000000002523000000000253700000000025500000000002510000000000259900009000000000000001300000000000003299200000000000000009999123100000010000000000000BRCRPGACNPA3119
012024101102CSAN3       010COSAN       ON      NM   R$  000000000124000000000012460000000001196000000000121100000000012100000000001210000000000121220224000000000019750400000000023925871800000000000000009999123100000010000000000000BRCSANACNOR6126
012024101102ELMD3       010ELETROMIDIA ON      NM   R$  000000000163000000000017000000000001595000000000166200000000016370000000001637000000000165300909000000000000165800000000000275697800000000000000009999123100000010000000000000BRELMDACNOR3101
012024101102EMAE4       010EMAE        PN           R$  000000000399900000000039990000000003926000000000395900000000039870000000003915000000000398800006000000000000000600000000000002375700000000000000009999123100000010000000000000BREMAEACNPR1126
012024101102SYNE3       010SYN PROP TECON      NM   R$  000000000077600000000007770000000000763000000000076900000000007700000000000764000000000077000798000000000000276300000000000212537000000000000000009999123100000010000000000000BRSYNEACNOR2103
012024101102TAEE11      010TAESA       UNT     N2   R$  000000000344400000000034520000000003418000000000342800000000034180000000003418000000000342605930000000000001221500000000004187364100000000000000009999123100000010000000000000BRTAEECDAM10148
012024101102TAEE3       010TAESA       ON      N2   R$  000000000114900000000011490000000001138000000000114100000000011440000000001140000000000114400353000000000000076300000000000087117500000000000000009999123100000010000000000000BRTAEEACNOR9148
012024101102TAEE4       010TAESA       PN      N2   R$  000000000115000000000011540000000001146000000000114900000000011520000000001147000000000115200441000000000000090000000000000103431100000000000000009999123100000010000000000000BRTAEEACNPR6148
012024101102EMBR3       010EMBRAER     ON      NM   R$  000000000468200000000046990000000004537000000000460800000000045370000000004537000000000454715766000000000004587700000000021141874400000000000000009999123100000010000000000000BREMBRACNOR4191
012024101102HBOR3       010HELBOR      ON      NM   R$  000000000018600000000001890000000000186000000000018700000000001860000000000185000000000018600280000000000000174000000000000032589800000000000000009999123100000010000000000000BRHBORACNOR3118
012024101102HBRE3       010HBR REALTY  ON      NM   R$  000000000044800000000004530000000000445000000000044900000000004510000000000450000000000045400648000000000000344800000000000155110200000000000000009999123100000010000000000000BRHBREACNOR4100
012024101102HBSA3       010HIDROVIAS   ON  ES  NM   R$  000000000032500000000003270000000000318000000000032300000000003260000000000325000000000032602429000000000003195800000000001032249700000000000000009999123100000010000000000000BRHBSAACNOR0101
012024101102HETA4       010HERCULES    PN           R$  000000000064000000000006400000000000640000000000064000000000006400000000000581000000000066000002000000000000000200000000000000128000000000000000009999123100000010000000000000BRHETAACNPR9136
012024101102MOVI3       010MOVIDA      ON      NM   R$  000000000054800000000005650000000000528000000000054800000000005520000000000552000000000055609989000000000008002800000000004392452300000000000000009999123100000010000000000000BRMOVIACNOR0122
012024101102MRFG3       010MARFRIG     ON      NM   R$  000000000131400000000013140000000001270000000000127900000000012700000000001269000000000127009999000000000004320700000000005530045500000000000000009999123100000010000000000000BRMRFGACNOR0116
012024101102AZZA3       010AZZAS 2154  ON      NM   R$  000000000410000000000041870000000004061000000000411700000000041800000000004180000000000418106412000000000001401500000000005769986000000000000000009999123100000010000000000000BRAZZAACNOR9100
012024101102BRSR3       010BANRISUL    ON      N1   R$  000000000131900000000013360000000001300000000000131900000000013360000000001319000000000133700063000000000000008600000000000011344800000000000000009999123100000010000000000000BRBRSRACNOR3189
012024101102BRSR5       010BANRISUL    PNA     N1   R$  000000000173000000000017300000000001730000000000173000000000017300000000001505000000000173000001000000000000000100000000000000173000000000000000009999123100000010000000000000BRBRSRACNPA6193
012024101102BRSR6       010BANRISUL    PNB     N1   R$  000000000111700000000011210000000001108000000000111300000000011140000000001111000000000111402769000000000000901000000000001002867100000000000000009999123100000010000000000000BRBRSRACNPB4192
012024101102BSLI4       010BRB BANCO   PN           R$  000000000090000000000009000000000000900000000000090000000000009000000000000870000000000091300005000000000000000700000000000000630000000000000000009999123100000010000000000000BRBSLIACNPR2194
012024101102HYPE3       010HYPERA      ON      NM   R$  000000000264500000000027000000000002637000000000268100000000026620000000002661000000000267013221000000000004102100000000011000950600000000000000009999123100000010000000000000BRHYPEACNOR0144
012024101102JHSF3       010JHSF PART   ON      NM   R$  000000000043500000000004350000000000423000000000042700000000004230000000000423000000000042502552000000000002263300000000000968628800000000000000009999123100000010000000000000BRJHSFACNOR2140
012024101102JALL3       010JALLESMACHADON      NM   R$  000000000062000000000006210000000000610000000000061400000000006170000000000615000000000061801573000000000000571200000000000350894700000000000000009999123100000010000000000000BRJALLACNOR0106
012024101102JBSS3       010JBS         ON      NM   R$  000000000323700000000032370000000003154000000000317800000000031870000000003187000000000318817558000000000005080500000000016150259400000000000000009999123100000010000000000000BRJBSSACNOR8122
012024101102NEOE3       010NEOENERGIA  ON      NM   R$  000000000190000000000019000000000001871000000000188100000000018900000000001890000000000189102103000000000000519700000000000977918900000000000000009999123100000010000000000000BRNEOEACNOR3123
012024101102NGRD3       010NEOGRID     ON  EBG NM   R$  000000000300000000000031970000000002999000000000309100000000031500000000003072000000000316000116000000000000025600000000000079140400000000000000009999123100000010000000000000BRNGRDACNOR3106
012024101102NINJ3       010GETNINJAS   ON      NM   R$  000000000046400000000004710000000000462000000000046500000000004700000000000462000000000047200035000000000000006800000000000003168200000000000000009999123100000010000000000000BRNINJACNOR5101
012024101102NORD3       010NORDON MET  ON           R$  000000000082100000000008210000000000821000000000082100000000008210000000000802000000000085900001000000000000000200000000000000164200000000000000009999123100000010000000000000BRNORDACNOR7135
012024101102NTCO3       010GRUPO NATURAON      NM   R$  000000000150300000000015190000000001478000000000149900000000014900000000001490000000000149214406000000000006808000000000010205523600000000000000009999123100000010000000000000BRNTCOACNOR5106
012024101102AALR3       010ALLIAR      ON      NM   R$  000000000147000000000014950000000001461000000000148200000000014950000000001468000000000149800094000000000000012100000000000017938700000000000000009999123100000010000000000000BRAALRACNOR6102
012024101102ABCB4       010ABC BRASIL  PN      N2   R$  000000000207400000000021280000000002074000000000211000000000021220000000002108000000000212303045000000000000664400000000001402450200000000000000009999123100000010000000000000BRABCBACNPR4146
012024101102ABEV3       010AMBEV S/A   ON           R$  000000000130900000000013120000000001284000000000129500000000012880000000001286000000000128830218000000000031193700000000040403174600000000000000009999123100000010000000000000BRABEVACNOR1128
012024101102QUAL3       010QUALICORP   ON      NM   R$  000000000020900000000002250000000000208000000000021600000000002210000000000220000000000022103195000000000006155600000000001332847600000000000000009999123100000010000000000000BRQUALACNOR6120
012024101102SLCE3       010SLC AGRICOLAON      NM   R$  000000000172400000000017290000000001704000000000171400000000017100000000001710000000000171206978000000000001712400000000002935638000000000000000009999123100000010000000000000BRSLCEACNOR2125
012024101102VAMO3       010VAMOS       ON      NM   R$  000000000055100000000005600000000000538000000000055500000000005600000000000559000000000056008592000000000011995100000000006664175000000000000000009999123100000010000000000000BRVAMOACNOR7105
012024101102VBBR3       010VIBRA       ON      NM   R$  000000000227800000000022870000000002255000000000227900000000022870000000002285000000000228713159000000000005746800000000013101291700000000000000009999123100000010000000000000BRVBBRACNOR1109
012024101102BBSE3       010BBSEGURIDADEON      NM   R$  000000000338500000000033950000000003364000000000337900000000033860000000003385000000000338813093000000000003554700000000012011870800000000000000009999123100000010000000000000BRBBSEACNOR5125
012024101102SBFG3       010GRUPO SBF   ON      NM   R$  000000000145700000000014860000000001435000000000146700000000014800000000001480000000000148107177000000000001762800000000002586637500000000000000009999123100000010000000000000BRSBFGACNOR1103
012024101102SBSP3       010SABESP      ON      NM   R$  000000000883700000000088900000000008753000000000880300000000088100000000008800000000000881011861000000000002735400000000024080504000000000000000009999123100000010000000000000BRSBSPACNOR5161
012024101102SCAR3       010SAO CARLOS  ON      NM   R$  000000000222100000000022390000000002186000000000220100000000021950000000002195000000000223000089000000000000019900000000000043811400000000000000009999123100000010000000000000BRSCARACNOR7131
012024101102RSUL4       010RIOSULENSE  PN           R$  000000000623300000000062330000000006121000000000617700000000061210000000006120000000000623500002000000000000000200000000000001235400000000000000009999123100000010000000000000BRRSULACNPR3114
012024101107NUTR3       010NUTRIPLANT  ON      MA   R$  000000000045500000000004550000000000448000000000045100000000004520000000000449000000000045100012000000000000001200000000000000541700000000000000009999123100000010000000000000BRNUTRACNOR0104
012024101107TXRX4       010TEX RENAUX  PN           R$  000000000022600000000002260000000000226000000000022600000000002260000000000226000000000022800001000000000000000100000000000000022600000000000000009999123100000010000000000000BRTXRXACNPR0142
012024101108ATMP3       010ATMASA      ON           R$  000000000014600000000001510000000000146000000000014700000000001510000000000144000000000015100009000000000000005300000000000000784100000000000000009999123100000010000000000000BRATMPACNOR8100
012024101108AMER3       010AMERICANAS  ON      NM   R$  000000000039700000000004170000000000391000000000040200000000004160000000000413000000000041601824000000000002359500000000000950489500000000000000009999123100000010000000000000BRAMERACNOR6103
012024101108OIBR3       010OI          ON      N1   R$  000000000048200000000004850000000000470000000000047600000000004710000000000471000000000047200495000000000000357800000000000170651700000000000000009999123100000010000000000000BROIBRACNOR1112
012024101108OIBR4       010OI          PN      N1   R$  000000000111300000000011140000000001108000000000111200000000011080000000001105000000000110700005000000000000000500000000000000556100000000000000009999123100000010000000000000BROIBRACNPR8111
012024101108OSXB3       010OSX BRASIL  ON      NM   R$  000000000049400000000005000000000000456000000000047600000000004740000000000474000000000048700063000000000000009400000000000004482500000000000000009999123100000010000000000000BROSXBACNOR8109
012024101108CTSA3       010SANTANENSE  ON           R$  000000000021700000000002170000000000217000000000021700000000002170000000000216000000000021700004000000000000001900000000000000412300000000000000009999123100000010000000000000BRCTSAACNOR3062
012024101108CTSA4       010SANTANENSE  PN           R$  000000000011500000000001150000000000115000000000011500000000001150000000000114000000000011500015000000000000014200000000000001633000000000000000009999123100000010000000000000BRCTSAACNPR0062
012024101108AGXY3       010AGROGALAXY  ON      NM   R$  000000000005500000000000560000000000052000000000005300000000000530000000000053000000000005400216000000000000149500000000000008040800000000000000009999123100000010000000000000BRAGXYACNOR4103
012024101108PMAM3       010PARANAPANEMAON      NM   R$  000000000013800000000001380000000000133000000000013400000000001370000000000134000000000013800069000000000000032900000000000004427800000000000000009999123100000010000000000000BRPMAMACNOR3040
012024101108RNEW11      010RENOVA      UNT     N2   R$  000000000033900000000003520000000000333000000000034000000000003360000000000330000000000033600043000000000000007100000000000002414000000000000000009999123100000010000000000000BRRNEWCDAM15110
012024101108RNEW3       010RENOVA      ON      N2   R$  000000000011800000000001200000000000109000000000011300000000001100000000000110000000000011300155000000000000120900000000000013678300000000000000009999123100000010000000000000BRRNEWACNOR8110
012024101108RNEW4       010RENOVA      PN      N2   R$  000000000011700000000001190000000000112000000000011400000000001130000000000112000000000011300264000000000000299500000000000034332600000000000000009999123100000010000000000000BRRNEWACNPR5110
012024101108RPMG3       010PET MANGUINHON           R$  000000000030300000000003130000000000301000000000030500000000003020000000000302000000000030800037000000000000008200000000000002507100000000000000009999123100000010000000000000BRRPMGACNOR9194
012024101108LIGT3       010LIGHT S/A   ON      NM   R$  000000000063200000000006390000000000618000000000062900000000006350000000000630000000000063501867000000000000364700000000000229430700000000000000009999123100000010000000000000BRLIGTACNOR2124
012024101108TEKA4       010TEKA        PN           R$  000000000290000000000029000000000002900000000000290000000000029000000000002644000000000290000001000000000000000100000000000000290000000000000000009999123100000010000000000000BRTEKAACNPR3140
012024101108HOOT4       010HOTEIS OTHONPN           R$  000000000022400000000002240000000000224000000000022400000000002240000000000224000000000023700007000000000000001100000000000000246400000000000000009999123100000010000000000000BRHOOTACNPR9015
012024101108JFEN3       010JOAO FORTES ON           R$  000000000002600000000000270000000000025000000000002500000000000260000000000025000000000002600089000000000000403700000000000010427400000000000000009999123100000010000000000000BRJFENACNOR0059
012024101108NEXP3       010NEXPE       ON           R$  000000000040100000000004010000000000400000000000040000000000004000000000000401000000000040600002000000000000000200000000000000080100000000000000009999123100000010000000000000BRNEXPACNOR0101
012024101108RSID3       010ROSSI RESID ON      NM   R$  000000000030700000000003090000000000290000000000029400000000002970000000000297000000000030000188000000000000046900000000000013798100000000000000009999123100000010000000000000BRRSIDACNOR8120
012024101110EQTL9       010EQUATORIAL  ON  REC NM   R$  000000000317700000000032560000000003140000000000316700000000032270000000003172000000000322700026000000000000005900000000000018687300000000000000009999123100000010000000000000BREQTLR04OR9130
012024101110PMAM1       010PARANAPANEMADIR ORD NM   R$  000000000000100000000000010000000000001000000000000100000000000010000000000000000000000000100111000000000000899900000000000000899900000000000000009999123100000010000000000000BRPMAMD05OR9039
012024101110ZAMP9       010ZAMP S.A.   ON  REC      R$  000000000024000000000002440000000000238000000000023900000000002380000000000233000000000024600015000000000000007000000000000001676000000000000000009999123100000010000000000000BRZAMPR01OR0100
012024101110CBEE1       010AMPLA ENERG DIR ORD      R$  000000000018000000000001800000000000180000000000018000000000001800000000000150000000000025000004000000000000000400000000000000072000000000000000009999123100000010000000000000BRCBEED07OR5159
012024101110HBSA1       010HIDROVIAS   DIR ORD NM   R$  000000000000200000000000020000000000001000000000000100000000000010000000000001000000000000200129000000000001162000000000000001572700000000000000009999123100000010000000000000BRHBSAD01OR5100
012024101112AZPL11      010FII AZPL    CI           R$  000000000077400000000007980000000000765000000000077100000000007650000000000765000000000076900960000000000000039469000000000030451772000000000000009999123100000010000000000000BRAZPLCTF000104
012024101112BRIM11      010FII BRIO II CI           R$  000000012000000000001200000000000110000000000011250200000001100000000000108000000000011890000029000000000000000031000000000003487589000000000000009999123100000010000000000000BRBRIMCTF008131
012024101112BRIP11      010FII BRIO IIICI  ER       R$  000000009490000000000949890000000094900000000009497100000000949890000000092000000000009485000002000000000000000005000000000000474856000000000000009999123100000010000000000000BRBRIPCTF001117
012024101112EQIR11      010FII EQI RECECI           R$  000000000087000000000008730000000000863000000000086900000000008700000000000870000000000087201124000000000000008534000000000007423589000000000000009999123100000010000000000000BREQIRCTF003136
012024101112ERPA11      010FII EUROPA  CI  ER       R$  000000001320000000000132000000000012500000000001309000000000130000000000012000000000001300000007000000000000005072000000000066396000000000000000009999123100000010000000000000BRERPACTF002133
012024101112CNES11      010FII CENESP  CI           R$  000000000012400000000001260000000000123000000000012400000000001250000000000124000000000012500483000000000000032444000000000004038759000000000000009999123100000010000000000000BRCNESCTF001263
012024101112KNCR11      010FII KINEA RICI           R$  000000001039200000000104640000000010368000000001042200000000104210000000010401000000001042111184000000000000103641000000001080234964000000000000009999123100000010000000000000BRKNCRCTF000244
012024101112KNHF11      010FII KINEA HFCI           R$  000000000911000000000091610000000009100000000000912300000000091300000000009125000000000913003442000000000000028897000000000263634572000000000000009999123100000010000000000000BRKNHFCTF004115
012024101112KNHY11      010FII KINEA HYCI           R$  000000001035500000000103800000000010301000000001033300000000103730000000010345000000001037306751000000000000058129000000000600648299000000000000009999123100000010000000000000BRKNHYCTF005176
012024101112KNIP11      010FII KINEA IPCI           R$  000000000914100000000091980000000009113000000000916200000000091600000000009160000000000918011874000000000000072215000000000661680255000000000000009999123100000010000000000000BRKNIPCTF001197
012024101112KNRE11      010FII KII REALCI           R$  000000000002500000000000280000000000024000000000002500000000000280000000000024000000000002801671000000000000008545000000000000221043000000000000009999123100000010000000000000BRKNRECTF006129
012024101112KNRI11      010FII KINEA   CI           R$  000000001369500000000138000000000013680000000001370500000000137380000000013700000000001373807800000000000000047906000000000656564998000000000000009999123100000010000000000000BRKNRICTF007268
012024101112KNSC11      010FII KINEA SCCI           R$  000000000090200000000009110000000000901000000000090400000000009060000000000906000000000090708490000000000000472830000000000427605987000000000000009999123100000010000000000000BRKNSCCTF008152
012024101112KNUQ11      010FII KINEA UNCI           R$  000000001028500000000102910000000010272000000001027600000000102900000000010273000000001029002862000000000000029530000000000303457329000000000000009999123100000010000000000000BRKNUQCTF004117
012024101112KORE11      010FII KORE    CI           R$  000000000900000000000091000000000008950000000000900200000000090380000000009036000000000903801411000000000000039598000000000356489414000000000000009999123100000010000000000000BRKORECTF012110
012024101112EDFO11      010FII OURINVESCI           R$  000000001630000000000163000000000015641000000001575700000000156410000000015641000000001610000022000000000000000211000000000003324894000000000000009999123100000010000000000000BREDFOCTF004327
012024101112EDGA11      010FII GALERIA CI           R$  000000000180600000000018600000000001806000000000185800000000018600000000001815000000000185500013000000000000000784000000000001457252000000000000009999123100000010000000000000BREDGACTF001245
012024101112GGRC11      010FII GGRCOVEPCI  ER       R$  000000000103000000000010360000000001026000000000102900000000010280000000001028000000000103004965000000000000127547000000000131364391000000000000009999123100000010000000000000BRGGRCCTF002199
012024101112GLOG11      010FII PLURAL LCI           R$  000000000586000000000059600000000005717000000000585800000000058530000000005721000000000585400043000000000000000306000000000001792814000000000000009999123100000010000000000000BRGLOGCTF000117
012024101112ASMT11      010FII ASA MET CI           R$  000000000370500000000037070000000003705000000000370600000000037070000000003715000000000398800005000000000000000049000000000000181636000000000000009999123100000010000000000000BRASMTCTF005107
012024101112ATSA11      010FII HATRIUM CI           R$  000000000535400000000053540000000005354000000000535400000000053540000000005300000000000535400001000000000000000001000000000000005354000000000000009999123100000010000000000000BRATSACTF000145
012024101112BRCO11      010FII BRESCO  CI           R$  000000001065100000000107000000000010538000000001062900000000106350000000010635000000001065005710000000000000035399000000000376270210000000000000009999123100000010000000000000BRBRCOCTF007161
012024101112BRCR11      010FII BC FUND CI  ER       R$  000000000446000000000045150000000004423000000000448600000000044800000000004480000000000449004852000000000000033528000000000150436461000000000000009999123100000010000000000000BRBRCRCTF000271
012024101112MXRF11      010FII MAXI RENCI           R$  000000000097800000000009810000000000976000000000097700000000009770000000000977000000000097845933000000000001395064000000001364251501000000000000009999123100000010000000000000BRMXRFCTF008257
012024101112IBCR11      010FII BREI    CI  ER       R$  000000000606600000000060660000000006024000000000604600000000060500000000006025000000000604900078000000000000000894000000000005405355000000000000009999123100000010000000000000BRIBCRCTF009141
012024101112SMRE11      010FII SMRE    CI           R$  000000001000100000000100010000000010000000000001000000000000100010000000010000000000001040000126000000000000002867000000000028670152000000000000009999123100000010000000000000BRSMRECTF001106
012024101112VCJR11      010FII VECTIS  CI           R$  000000000880000000000088670000000008748000000000882200000000088670000000008867000000000886809059000000000000022138000000000195312441000000000000009999123100000010000000000000BRVCJRCTF005159
012024101112VCRI11      010FII VINCI CRCI           R$  000000000079900000000007990000000000790000000000079200000000007950000000000791000000000079500244000000000000011366000000000009006532000000000000009999123100000010000000000000BRVCRICTF007129
012024101112JPPA11      010FII JPPA CRICI           R$  000000000808900000000082010000000008085000000000815400000000082000000000008200000000000820700100000000000000001391000000000011342692000000000000009999123100000010000000000000BRJPPACTF005165
012024101112JPPC11      010FII JPP CAPICI           R$  000000001820100000000182010000000018201000000001820100000000182010000000018168000000003750000001000000000000000001000000000000018201000000000000009999123100000010000000000000BRJPPCCTF001124
012024101112JSAF11      010FII JS A FINCI           R$  000000000907300000000094140000000009073000000000927700000000094060000000009390000000000940601765000000000000018917000000000175505996000000000000009999123100000010000000000000BRJSAFCTF000137
012024101112JSCR11      010FII JSCR    CI           R$  000000000838000000000085850000000008380000000000847400000000085850000000008450000000000858500022000000000000004040000000000034238610000000000000009999123100000010000000000000BRJSCRCTF001103
012024101112JSRE11      010FII JS REAL CI           R$  000000000599500000000061460000000005943000000000601200000000059970000000005995000000000599706354000000000000062651000000000376713734000000000000009999123100000010000000000000BRJSRECTF007266
012024101112KCRE11      010FII KINEA CRCI           R$  000000000090000000000009000000000000896000000000089800000000008990000000000898000000000089900566000000000000067769000000000060891370000000000000009999123100000010000000000000BRKCRECTF009129
012024101112VCRR11      010FII VECT RENCI           R$  000000000647500000000064800000000006410000000000647200000000064800000000006455000000000648000752000000000000005429000000000035138408000000000000009999123100000010000000000000BRVCRRCTF008140
012024101112VGHF11      010FII VALOR HECI           R$  000000000077500000000007780000000000768000000000077000000000007710000000000770000000000077115144000000000000534976000000000412410366000000000000009999123100000010000000000000BRVGHFCTF005148
012024101112VGIP11      010FII VALORAIPCI  ER       R$  000000000839900000000085490000000008212000000000837600000000084740000000008467000000000847405344000000000000044360000000000371596892000000000000009999123100000010000000000000BRVGIPCTF002160
012024101112VGIR11      010FII VALREIIICI  ER       R$  000000000097600000000009800000000000972000000000097600000000009770000000000976000000000097716872000000000000461489000000000450782254000000000000009999123100000010000000000000BRVGIRCTF008181
012024101112VGRI11      010FII VGRI    CI           R$  000000000089300000000008970000000000883000000000089000000000008960000000000890000000000089600571000000000000018432000000000016414531000000000000009999123100000010000000000000BRVGRICTF008108
012024101112VIFI11      010FII VINCI IFCI           R$  000000000072500000000007400000000000717000000000072200000000007250000000000721000000000072500470000000000000015965000000000011529037000000000000009999123100000010000000000000BRVIFICTF009160
012024101112VILG11      010FII VINCI LGCI           R$  000000000828500000000082900000000008190000000000824700000000082000000000008192000000000822003793000000000000014556000000000120049710000000000000009999123100000010000000000000BRVILGCTF001175
012024101112VINO11      010FII VINCI OFCI           R$  000000000050000000000005030000000000497000000000050000000000005020000000000501000000000050203646000000000000148386000000000074234770000000000000009999123100000010000000000000BRVINOCTF001161
012024101112VISC11      010FII VINCI SCCI           R$  000000001015000000000104470000000010102000000001025200000000104250000000010422000000001042511410000000000000059876000000000613886638000000000000009999123100000010000000000000BRVISCCTF005190
012024101112VIUR11      010FII VINCI IUCI           R$  000000000061300000000006150000000000608000000000061100000000006140000000000614000000000061500569000000000000009580000000000005860271000000000000009999123100000010000000000000BRVIURCTF009141
012024101112KFOF11      010FII KINEAFOFCI           R$  000000000785000000000078500000000007700000000000777000000000078000000000007795000000000780004803000000000000030019000000000233259881000000000000009999123100000010000000000000BRKFOFCTF006173
012024101112KISU11      010FII KILIMA  CI           R$  000000000074000000000007420000000000729000000000073700000000007380000000000738000000000074002777000000000000143676000000000105938595000000000000009999123100000010000000000000BRKISUCTF000148
012024101112KIVO11      010FII KIVO    CI           R$  000000000720000000000073310000000007198000000000723700000000072740000000007274000000000730900340000000000000003601000000000026061525000000000000009999123100000010000000000000BRKIVOCTF007131
012024101112ALZC11      010FII ALIANZACCI           R$  000000000940000000000094000000000009400000000000940000000000094000000000009251000000000959400001000000000000000001000000000000009400000000000000009999123100000010000000000000BRALZCCTF016107
012024101112ALZM11      010FII ALIANZMECI           R$  000000000073900000000007440000000000725000000000073400000000007390000000000735000000000073804401000000000000042204000000000030979672000000000000009999123100000010000000000000BRALZMCTF007126
012024101112PRSN11      010FII PERSONALCI           R$  000000000011800000000001180000000000118000000000011800000000001180000000000119000000000013800001000000000000000001000000000000000118000000000000009999123100000010000000000000BRPRSNCTF005125
