00COTAHIST.2024BOVESPA 20241025                                                                                                                                                                                                                      
012024102502GEPA3       010GER PARANAP ON           R$  000000000290000000000029000000000002900000000000290000000000029000000000002825000000000297600002000000000000000500000000000001450000000000000000009999123100000010000000000000BRGEPAACNOR2154
012024102502GEPA4       010GER PARANAP PN           R$  000000000287500000000029500000000002875000000000289300000000029500000000002860000000000299900003000000000000000400000000000001157500000000000000009999123100000010000000000000BRGEPAACNPR9161
012024102502GFSA3       010GAFISA      ON      NM   R$  000000000017300000000001750000000000165000000000016800000000001660000000000166000000000016701584000000000004326300000000000730927900000000000000009999123100000010000000000000BRGFSAACNOR3125
012024102502INEP3       010INEPAR      ON           R$  000000000016300000000001640000000000158000000000015900000000001590000000000157000000000016100070000000000000026900000000000004287800000000000000009999123100000010000000000000BRINEPACNOR1143
012024102502INEP4       010INEPAR      PN           R$  000000000016900000000001690000000000165000000000016600000000001680000000000165000000000016800055000000000000014400000000000002392000000000000000009999123100000010000000000000BRINEPACNPR8143
012024102502INTB3       010INTELBRAS   ON      NM   R$  000000000201200000000020360000000002000000000000201600000000020200000000002010000000000202203200000000000001346100000000002714805800000000000000009999123100000010000000000000BRINTBACNOR9112
012024102502IRBR3       010IRBBRASIL REON      NM   R$  000000000446600000000044950000000004132000000000427800000000041350000000004135000000000413908561000000000002334800000000009989926400000000000000009999123100000010000000000000BRIRBRACNOR4111
012024102502BIOM3       010BIOMM       ON      MA   R$  000000000090700000000009080000000000880000000000089000000000008800000000000879000000000088700096000000000000021500000000000019144300000000000000009999123100000010000000000000BRBIOMACNOR2112
012024102502BLAU3       010BLAU        ON      NM   R$  000000000146700000000014690000000001418000000000144600000000014180000000001418000000000143400961000000000000259300000000000375019600000000000000009999123100000010000000000000BRBLAUACNOR8115
012024102502BMEB3       010MERCANTIL   ON      N1   R$  000000000359800000000037690000000003598000000000368300000000037690000000003499000000000399700002000000000000000200000000000000736700000000000000009999123100000010000000000000BRBMEBACNOR8206
012024102502BMEB4       010MERCANTIL   PN      N1   R$  000000000394100000000041550000000003877000000000402200000000041070000000004100000000000414300244000000000000032100000000000129125200000000000000009999123100000010000000000000BRBMEBACNPR5211
012024102502BMGB4       010BANCO BMG   PN  EJ  N1   R$  000000000041500000000004200000000000406000000000041100000000004090000000000409000000000041000706000000000000345100000000000141858400000000000000009999123100000010000000000000BRBMGBACNPR0111
012024102502BMIN3       010MERC INVEST ON           R$  000000000205000000000020500000000002050000000000205000000000020500000000002000000000000219800001000000000000000100000000000000205000000000000000009999123100000010000000000000BRBMINACNOR4170
012024102502BMKS3       010BIC MONARK  ON           R$  000000003070300000000307030000000030703000000003070300000000307030000000030703000000003120000001000000000000000001000000000000030703000000000000009999123100000010000000000000BRBMKSACNOR9166
012024102502BMOB3       010BEMOBI TECH ON      NM   R$  000000000153300000000015370000000001515000000000152400000000015190000000001519000000000152900895000000000000135900000000000207138700000000000000009999123100000010000000000000BRBMOBACNOR7103
012024102502BOBR4       010BOMBRIL     PN           R$  000000000029000000000002910000000000283000000000028500000000002840000000000283000000000028600052000000000000014000000000000003998500000000000000009999123100000010000000000000BRBOBRACNPR3128
012024102502BRBI11      010BR PARTNERS UNT     N2   R$  000000000152500000000015250000000001487000000000149600000000014870000000001487000000000149101685000000000000387600000000000580076400000000000000009999123100000010000000000000BRBRBICDAM10110
012024102502BRFS3       010BRF SA      ON      NM   R$  000000000244900000000024660000000002412000000000244400000000024410000000002441000000000244215585000000000006729300000000016452029000000000000000009999123100000010000000000000BRBRFSACNOR8122
012024102502CSUD3       010CSU DIGITAL ON      NM   R$  000000000170800000000017310000000001693000000000171200000000017100000000001710000000000172200065000000000000013600000000000023295700000000000000009999123100000010000000000000BRCSUDACNOR5111
012024102502CTKA3       010KARSTEN     ON           R$  000000000199000000000019900000000001990000000000199000000000019900000000001920000000000198900001000000000000000100000000000000199000000000000000009999123100000010000000000000BRCTKAACNOR0043
012024102502CTKA4       010KARSTEN     PN           R$  000000000190000000000019000000000001900000000000190000000000019000000000001870000000000198000001000000000000000100000000000000190000000000000000009999123100000010000000000000BRCTKAACNPR7043
012024102502CURY3       010CURY S/A    ON      NM   R$  000000000244200000000024700000000002422000000000245200000000024550000000002455000000000245807584000000000001705800000000004183095800000000000000009999123100000010000000000000BRCURYACNOR3110
012024102502CVCB3       010CVC BRASIL  ON      NM   R$  000000000019800000000002140000000000198000000000020800000000002080000000000208000000000020910743000000000026415800000000005500607400000000000000009999123100000010000000000000BRCVCBACNOR1116
012024102502CXSE3       010CAIXA SEGURION      NM   R$  000000000143900000000014600000000001433000000000145100000000014490000000001447000000000144910302000000000003639300000000005282707700000000000000009999123100000010000000000000BRCXSEACNOR7107
012024102502IFCM3       010INFRACOMM   ON      NM   R$  000000000001400000000000140000000000013000000000001300000000000140000000000013000000000001400329000000000001780400000000000024514200000000000000009999123100000010000000000000BRIFCMACNOR8101
012024102502IGTI11      010IGUATEMI S.AUNT     N1   R$  000000000211000000000021380000000002094000000000210600000000021060000000002105000000000210705415000000000005614300000000011823920500000000000000009999123100000010000000000000BRIGTICDAM16106
012024102502IGTI3       010IGUATEMI S.AON      N1   R$  000000000025500000000002580000000000252000000000025500000000002550000000000254000000000025500079000000000000070100000000000017893300000000000000009999123100000010000000000000BRIGTIACNOR8106
012024102502JHSF3       010JHSF PART   ON      NM   R$  000000000044800000000004510000000000440000000000044300000000004400000000000440000000000044204826000000000002488900000000001102634800000000000000009999123100000010000000000000BRJHSFACNOR2140
012024102502JSLG3       010JSL         ON      NM   R$  000000000076900000000007720000000000750000000000075800000000007550000000000753000000000075501081000000000000353100000000000267730400000000000000009999123100000010000000000000BRJSLGACNOR2121
012024102502PNVL3       010DIMED       ON      NM   R$  000000000100100000000010150000000000990000000000100100000000010050000000001000000000000100701372000000000000271800000000000272283000000000000000009999123100000010000000000000BRPNVLACNOR9208
012024102502POMO3       010MARCOPOLO   ON      N2   R$  000000000065000000000006600000000000649000000000065300000000006590000000000657000000000065900655000000000000518100000000000338685600000000000000009999123100000010000000000000BRPOMOACNOR0099
012024102502POMO4       010MARCOPOLO   PN      N2   R$  000000000084400000000008600000000000844000000000085100000000008550000000000855000000000085610268000000000005682700000000004839087100000000000000009999123100000010000000000000BRPOMOACNPR7099
012024102502PORT3       010WILSON SONS ON  ED  NM   R$  000000000159000000000015940000000001578000000000158400000000015940000000001582000000000159401795000000000001978900000000003135807000000000000000009999123100000010000000000000BRPORTACNOR8110
012024102502POSI3       010POSITIVO TECON      NM   R$  000000000064900000000006600000000000642000000000064800000000006460000000000645000000000064602733000000000001199300000000000777874900000000000000009999123100000010000000000000BRPOSIACNOR9116
012024102502PRIO3       010PETRORIO    ON      NM   R$  000000000421500000000042390000000004136000000000416800000000041650000000004163000000000416521937000000000011596600000000048335708800000000000000009999123100000010000000000000BRPRIOACNOR1107
012024102502RECV3       010PETRORECSA  ON      NM   R$  000000000170500000000017230000000001688000000000169600000000016960000000001692000000000169606773000000000001357900000000002304353100000000000000009999123100000010000000000000BRRECVACNOR3107
012024102502REDE3       010REDE ENERGIAON           R$  000000000068200000000006820000000000671000000000067700000000006740000000000674000000000067800014000000000000002000000000000001354900000000000000009999123100000010000000000000BRREDEACNOR7128
012024102502RENT3       010LOCALIZA    ON      NM   R$  000000000433800000000043590000000004212000000000425300000000042130000000004212000000000421522995000000000006875000000000029241841700000000000000009999123100000010000000000000BRRENTACNOR4197
012024102502SYNE3       010SYN PROP TECON      NM   R$  000000000082900000000008370000000000818000000000082700000000008370000000000833000000000083700771000000000000237500000000000196614000000000000000009999123100000010000000000000BRSYNEACNOR2103
012024102502HAGA3       010HAGA S/A    ON           R$  000000000025800000000002650000000000250000000000025300000000002520000000000252000000000025600137000000000000071700000000000018168600000000000000009999123100000010000000000000BRHAGAACNOR7103
012024102502HAGA4       010HAGA S/A    PN           R$  000000000012800000000001280000000000124000000000012500000000001280000000000126000000000012800042000000000000020500000000000002579600000000000000009999123100000010000000000000BRHAGAACNPR4103
012024102502HAPV3       010HAPVIDA     ON      NM   R$  000000000037700000000003810000000000362000000000037000000000003640000000000363000000000036423556000000000059711900000000022151030000000000000000009999123100000010000000000000BRHAPVACNOR4115
012024102502ALUP3       010ALUPAR      ON      N2   R$  000000000100000000000010000000000000992000000000099600000000009990000000000992000000000100100035000000000000005300000000000005279300000000000000009999123100000010000000000000BRALUPACNOR8120
012024102502ALUP4       010ALUPAR      PN      N2   R$  000000000096700000000009670000000000951000000000096000000000009650000000000961000000000096600132000000000000022700000000000021792400000000000000009999123100000010000000000000BRALUPACNPR5120
012024102502AMAR3       010LOJAS MARISAON      NM   R$  000000000009500000000000970000000000094000000000009500000000000970000000000095000000000009700295000000000000163900000000000015703300000000000000009999123100000010000000000000BRAMARACNOR4115
012024102502AMBP3       010AMBIPAR     ON      NM   R$  000000001326000000000137000000000013025000000001334900000000131550000000013155000000001316700999000000000000150100000000002003834700000000000000009999123100000010000000000000BRAMBPACNOR6103
012024102502ANIM3       010ANIMA       ON      NM   R$  000000000026000000000002640000000000251000000000025600000000002550000000000254000000000025505861000000000009050900000000002323537400000000000000009999123100000010000000000000BRANIMACNOR6109
012024102502ARML3       010ARMAC       ON      NM   R$  000000000075400000000007550000000000714000000000072600000000007140000000000714000000000071503087000000000000935600000000000679547600000000000000009999123100000010000000000000BRARMLACNOR1113
012024102502ASAI3       010ASSAI       ON      NM   R$  000000000075100000000007530000000000725000000000073400000000007270000000000726000000000072713120000000000015268000000000011212700500000000000000009999123100000010000000000000BRASAIACNOR0106
012024102502CEAB3       010CEA MODAS   ON      NM   R$  000000000122100000000013200000000001221000000000128800000000012910000000001290000000000129115696000000000007031400000000009057463700000000000000009999123100000010000000000000BRCEABACNOR1102
012024102502CEBR3       010CEB         ON           R$  000000000186200000000019050000000001830000000000187000000000019000000000001840000000000190200027000000000000004100000000000007668500000000000000009999123100000010000000000000BRCEBRACNOR5125
012024102502CEBR5       010CEB         PNA          R$  000000000162200000000016490000000001611000000000162800000000016490000000001638000000000165000012000000000000001500000000000002442000000000000000009999123100000010000000000000BRCEBRACNPA8124
012024102502CEBR6       010CEB         PNB          R$  000000000176100000000017740000000001761000000000176600000000017640000000001761000000000177300006000000000000001500000000000002650300000000000000009999123100000010000000000000BRCEBRACNPB6124
012024102502CEEB3       010COELBA      ON           R$  000000000398900000000039890000000003989000000000398900000000039890000000003855000000000398900002000000000000000200000000000000797800000000000000009999123100000010000000000000BRCEEBACNOR3200
012024102502CEEB5       010COELBA      PNA          R$  000000000357000000000035700000000003570000000000357000000000035700000000003571000000000000000001000000000000000100000000000000357000000000000000009999123100000010000000000000BRCEEBACNPA6194
012024102502CGAS3       010COMGAS      ON           R$  000000001270000000000127000000000012700000000001270000000000127000000000012488000000001360000002000000000000000600000000000007620000000000000000009999123100000010000000000000BRCGASACNOR0164
012024102502CGAS5       010COMGAS      PNA          R$  000000001310000000000131000000000013100000000001310000000000131000000000012600000000001310000003000000000000001900000000000024890000000000000000009999123100000010000000000000BRCGASACNPA3161
012024102502CGRA3       010GRAZZIOTIN  ON           R$  000000000251000000000025100000000002502000000000250600000000025020000000002502000000000257000002000000000000000200000000000000501200000000000000009999123100000010000000000000BRCGRAACNOR2083
012024102502CGRA4       010GRAZZIOTIN  PN           R$  000000000250800000000025090000000002485000000000249800000000025010000000002501000000000251000026000000000000004000000000000009992900000000000000009999123100000010000000000000BRCGRAACNPR9083
012024102502CLSA3       010CLEARSALE   ON      NM   R$  000000000094800000000009490000000000938000000000094100000000009430000000000940000000000094301632000000000000432400000000000407219900000000000000009999123100000010000000000000BRCLSAACNOR0100
012024102502CLSC4       010CELESC      PN      N2   R$  000000000785200000000080120000000007852000000000794800000000079870000000007855000000000801300031000000000000003100000000000024641300000000000000009999123100000010000000000000BRCLSCACNPR3132
012024102502CMIG3       010CEMIG       ON      N1   R$  000000000143800000000014580000000001423000000000143800000000014400000000001435000000000144101070000000000000212600000000000305920600000000000000009999123100000010000000000000BRCMIGACNOR6244
012024102502CMIG4       010CEMIG       PN      N1   R$  000000000112200000000011250000000001105000000000111200000000011150000000001115000000000111614485000000000011764700000000013092652700000000000000009999123100000010000000000000BRCMIGACNPR3245
012024102502DEXP4       010DEXXOS PAR  PN      N1   R$  000000000089600000000008960000000000864000000000088100000000008640000000000864000000000088900016000000000000020800000000000018344400000000000000009999123100000010000000000000BRDEXPACNPR8105
012024102502DIRR3       010DIRECIONAL  ON      NM   R$  000000000307100000000031080000000003045000000000306800000000030710000000003068000000000307106300000000000001042000000000003197526000000000000000009999123100000010000000000000BRDIRRACNOR0119
012024102502DMVF3       010D1000VFARMA ON      NM   R$  000000000064400000000006730000000000635000000000065500000000006600000000000658000000000066000464000000000000094300000000000061843000000000000000009999123100000010000000000000BRDMVFACNOR9100
012024102502DOHL3       010DOHLER      ON           R$  000000000099900000000009990000000000999000000000099900000000009990000000000500000000000090000001000000000000000100000000000000099900000000000000009999123100000010000000000000BRDOHLACNOR2063
012024102502DOHL4       010DOHLER      PN           R$  000000000040100000000004150000000000401000000000041000000000004150000000000404000000000041400003000000000000000300000000000000123000000000000000009999123100000010000000000000BRDOHLACNPR9066
012024102502DOTZ3       010DOTZ SA     ON      NM   R$  000000000053800000000005500000000000538000000000054300000000005480000000000540000000000054800033000000000000007100000000000003856900000000000000009999123100000010000000000000BRDOTZACNOR7101
012024102502DXCO3       010DEXCO       ON      NM   R$  000000000083800000000008500000000000833000000000084400000000008450000000000843000000000084607928000000000002375900000000002005573000000000000000009999123100000010000000000000BRDXCOACNOR8105
012024102502EALT3       010ACO ALTONA  ON           R$  000000000154000000000015400000000001540000000000154000000000015400000000001426000000000153000001000000000000000300000000000000462000000000000000009999123100000010000000000000BREALTACNOR4138
012024102502EALT4       010ACO ALTONA  PN           R$  000000000133800000000013500000000001330000000000134100000000013500000000001335000000000135000018000000000000002400000000000003220500000000000000009999123100000010000000000000BREALTACNPR1138
012024102502ECOR3       010ECORODOVIAS ON      NM   R$  000000000072300000000007250000000000689000000000070000000000006890000000000689000000000069602576000000000002208700000000001546807500000000000000009999123100000010000000000000BRECORACNOR8120
012024102502EGIE3       010ENGIE BRASILON      NM   R$  000000000414000000000041400000000004080000000000409700000000040800000000004080000000000409104985000000000000848800000000003477653500000000000000009999123100000010000000000000BREGIEACNOR9127
012024102502GGPS3       010GPS         ON      NM   R$  000000000178600000000017860000000001735000000000174800000000017440000000001733000000000174405512000000000003546300000000006200906600000000000000009999123100000010000000000000BRGGPSACNOR9103
012024102502GMAT3       010GRUPO MATEUSON      NM   R$  000000000074600000000007480000000000727000000000073000000000007280000000000727000000000073204677000000000005724800000000004180429900000000000000009999123100000010000000000000BRGMATACNOR7103
012024102502GOAU3       010GERDAU MET  ON      N1   R$  000000000100600000000010140000000000999000000000100500000000010060000000001004000000000100800322000000000000050900000000000051176500000000000000009999123100000010000000000000BRGOAUACNOR1268
012024102502GOAU4       010GERDAU MET  PN      N1   R$  000000000101100000000010210000000001004000000000100900000000010080000000001008000000000100907477000000000006580400000000006642313400000000000000009999123100000010000000000000BRGOAUACNPR8269
012024102502ITSA4       010ITAUSA      PN      N1   R$  000000000107400000000010760000000001063000000000106900000000010650000000001065000000000106617958000000000025528600000000027290994500000000000000009999123100000010000000000000BRITSAACNPR7443
012024102502ITUB3       010ITAUUNIBANCOON      N1   R$  000000000308000000000030910000000003039000000000305300000000030510000000003048000000000305201403000000000000287300000000000877403700000000000000009999123100000010000000000000BRITUBACNOR4342
012024102502ITUB4       010ITAUUNIBANCOPN      N1   R$  000000000357000000000035780000000003522000000000354100000000035300000000003530000000000353324977000000000015339600000000054328407800000000000000009999123100000010000000000000BRITUBACNPR1342
012024102502MGEL4       010MANGELS INDLPN           R$  000000000080200000000008020000000000798000000000080000000000007980000000000775000000000083300003000000000000000400000000000000320200000000000000009999123100000010000000000000BRMGELACNPR3147
012024102502MGLU3       010MAGAZ LUIZA ON      NM   R$  000000000094600000000009520000000000913000000000092700000000009130000000000913000000000091420203000000000020478600000000018988255800000000000000009999123100000010000000000000BRMGLUACNOR2125
012024102502AERI3       010AERIS       ON      NM   R$  000000000062500000000006450000000000617000000000062600000000006200000000000619000000000062000435000000000000108100000000000067720200000000000000009999123100000010000000000000BRAERIACNOR4102
012024102502AESB3       010AES BRASIL  ON      NM   R$  000000000117600000000011790000000001149000000000116900000000011510000000001151000000000115801862000000000011466700000000013410668900000000000000009999123100000010000000000000BRAESBACNOR7107
012024102502PGMN3       010PAGUE MENOS ON      NM   R$  000000000028600000000002930000000000282000000000028500000000002820000000000282000000000028400457000000000000214800000000000061258800000000000000009999123100000010000000000000BRPGMNACNOR8103
012024102502PINE3       010PINE        ON      N2   R$  000000000046300000000004800000000000463000000000047100000000004800000000000466000000000048000003000000000000000400000000000000188600000000000000009999123100000010000000000000BRPINEACNOR1152
012024102502PINE4       010PINE        PN      N2   R$  000000000047800000000004800000000000466000000000047000000000004680000000000467000000000046800195000000000000079800000000000037532200000000000000009999123100000010000000000000BRPINEACNPR8152
012024102502PLAS3       010PLASCAR PARTON           R$  000000000060000000000006000000000000600000000000060000000000006000000000000522000000000063000001000000000000000200000000000000120000000000000000009999123100000010000000000000BRPLASACNOR2106
012024102502PLPL3       010PLANOEPLANO ON      NM   R$  000000000138800000000014090000000001349000000000137500000000013780000000001373000000000137902241000000000000905000000000001244873100000000000000009999123100000010000000000000BRPLPLACNOR5104
012024102502TCSA3       010TECNISA     ON      NM   R$  000000000014000000000001460000000000138000000000014000000000001400000000000140000000000014200277000000000000109500000000000015342300000000000000009999123100000010000000000000BRTCSAACNOR3112
012024102502TECN3       010TECHNOS     ON      NM   R$  000000000055800000000005920000000000558000000000057600000000005890000000000582000000000058900322000000000000133300000000000076879700000000000000009999123100000010000000000000BRTECNACNOR6109
012024102502TELB3       010TELEBRAS    ON           R$  000000000144400000000014790000000001444000000000145900000000014500000000001435000000000146800018000000000000003400000000000004963600000000000000009999123100000010000000000000BRTELBACNOR2140
012024102502TELB4       010TELEBRAS    PN           R$  000000000090600000000009200000000000905000000000090900000000009200000000000910000000000092500006000000000000000600000000000000545600000000000000009999123100000010000000000000BRTELBACNPR9140
012024102502TEND3       010TENDA       ON      NM   R$  000000000145800000000014690000000001432000000000144300000000014510000000001443000000000145206781000000000001876100000000002708714300000000000000009999123100000010000000000000BRTENDACNOR4111
012024102502TFCO4       010TRACK FIELD PN      N2   R$  000000000107400000000010760000000001051000000000106000000000010540000000001053000000000106100826000000000000227200000000000241035900000000000000009999123100000010000000000000BRTFCOACNPR8115
012024102502TGMA3       010TEGMA       ON      NM   R$  000000000292500000000029660000000002905000000000292900000000029050000000002905000000000292401052000000000000165600000000000485082500000000000000009999123100000010000000000000BRTGMAACNOR7145
012024102502TIMS3       010TIM         ON      NM   R$  000000000172000000000017310000000001695000000000171200000000016950000000001694000000000169510723000000000005586100000000009564006700000000000000009999123100000010000000000000BRTIMSACNOR5118
012024102502TOTS3       010TOTVS       ON      NM   R$  000000000284500000000028920000000002845000000000287300000000028870000000002885000000000288708784000000000002473700000000007107960500000000000000009999123100000010000000000000BRTOTSACNOR8145
012024102502TPIS3       010TRIUNFO PARTON      NM   R$  000000000070200000000007390000000000650000000000069800000000006510000000000651000000000066000532000000000000319700000000000223270000000000000000009999123100000010000000000000BRTPISACNOR8118
012024102502TRAD3       010TC          ON      NM   R$  000000000056500000000005920000000000563000000000057500000000005630000000000563000000000057400604000000000000152100000000000087522900000000000000009999123100000010000000000000BRTRADACNOR3102
012024102502TRIS3       010TRISUL      ON      NM   R$  000000000052500000000005310000000000521000000000052700000000005270000000000526000000000052701767000000000000636500000000000335941200000000000000009999123100000010000000000000BRTRISACNOR4118
012024102502TRPL3       010TRAN PAULISTON      N1   R$  000000000309500000000030950000000003063000000000307700000000030750000000003063000000000307500014000000000000001900000000000005847500000000000000009999123100000010000000000000BRTRPLACNOR4185
012024102502TRPL4       010TRAN PAULISTPN      N1   R$  000000000245500000000024650000000002426000000000243600000000024430000000002436000000000244407842000000000001465100000000003570210600000000000000009999123100000010000000000000BRTRPLACNPR1185
012024102502SANB11      010SANTANDER BRUNT EDJ      R$  000000000286300000000028800000000002850000000000285900000000028560000000002855000000000285706607000000000001244300000000003557672300000000000000009999123100000010000000000000BRSANBCDAM13166
012024102502SANB3       010SANTANDER BRON  EDJ      R$  000000000136000000000013720000000001352000000000135700000000013630000000001354000000000136300322000000000000135700000000000184233600000000000000009999123100000010000000000000BRSANBACNOR8173
012024102502SANB4       010SANTANDER BRPN  EDJ      R$  000000000150400000000015070000000001491000000000149700000000015020000000001494000000000150200242000000000000125900000000000188502700000000000000009999123100000010000000000000BRSANBACNPR5173
012024102502TTEN3       0103TENTOS     ON      NM   R$  000000000111100000000011310000000001104000000000111800000000011180000000001118000000000111904321000000000000719700000000000804676500000000000000009999123100000010000000000000BRTTENACNOR0103
012024102502TUPY3       010TUPY        ON      NM   R$  000000000233300000000023420000000002310000000000232200000000023250000000002320000000000232602317000000000000392700000000000911880400000000000000009999123100000010000000000000BRTUPYACNOR1184
012024102502LAND3       010TERRASANTAPAON      NM   R$  000000000136300000000013670000000001300000000000132000000000013160000000001316000000000134200219000000000000032200000000000042532300000000000000009999123100000010000000000000BRLANDACNOR9103
012024102502LAVV3       010LAVVI       ON      NM   R$  000000000081000000000008240000000000806000000000081000000000008130000000000808000000000081301562000000000000337900000000000274011700000000000000009999123100000010000000000000BRLAVVACNOR4113
012024102502LEVE3       010METAL LEVE  ON      NM   R$  000000000305500000000030850000000003008000000000303500000000030200000000003019000000000302001709000000000000327100000000000993026400000000000000009999123100000010000000000000BRLEVEACNOR2197
012024102502LJQQ3       010QUERO-QUERO ON      NM   R$  000000000030000000000003030000000000284000000000029100000000002840000000000284000000000028604695000000000004368700000000001274309300000000000000009999123100000010000000000000BRLJQQACNOR5104
012024102502UCAS3       010UNICASA     ON      NM   R$  000000000021700000000002180000000000212000000000021400000000002180000000000215000000000021700085000000000000029400000000000006292300000000000000009999123100000010000000000000BRUCASACNOR1113
012024102502UGPA3       010ULTRAPAR    ON      NM   R$  000000000204100000000020480000000002006000000000201800000000020100000000002010000000000201111050000000000003538100000000007140541500000000000000009999123100000010000000000000BRUGPAACNOR8156
012024102502VAMO3       010VAMOS       ON      NM   R$  000000000063900000000006440000000000620000000000062700000000006320000000000629000000000063208321000000000005564200000000003494095300000000000000009999123100000010000000000000BRVAMOACNOR7105
012024102502VBBR3       010VIBRA       ON      NM   R$  000000000221800000000022280000000002175000000000219200000000021910000000002184000000000219212927000000000003564600000000007816896300000000000000009999123100000010000000000000BRVBBRACNOR1109
012024102502PFRM3       010PROFARMA    ON      NM   R$  000000000060400000000006280000000000604000000000061700000000006280000000000618000000000062800408000000000000104800000000000064753900000000000000009999123100000010000000000000BRPFRMACNOR1116
012024102502LPSB3       010LOPES BRASILON      NM   R$  000000000016500000000001670000000000162000000000016400000000001630000000000162000000000016500188000000000000063100000000000010401000000000000000009999123100000010000000000000BRLPSBACNOR0114
012024102502LREN3       010LOJAS RENNERON      NM   R$  000000000189500000000018950000000001844000000000185700000000018470000000001844000000000184819139000000000011370000000000021123681400000000000000009999123100000010000000000000BRLRENACNOR1222
012024102502ODPV3       010ODONTOPREV  ON      NM   R$  000000000105500000000010590000000001035000000000104300000000010350000000001035000000000104103754000000000000596300000000000622153400000000000000009999123100000010000000000000BRODPVACNOR4204
012024102502OFSA3       010OUROFINO S/AON      NM   R$  000000000216000000000021610000000002160000000000216000000000021610000000002160000000000220000002000000000000006300000000000013614100000000000000009999123100000010000000000000BROFSAACNOR7118
012024102502MDNE3       010MOURA DUBEUXON      NM   R$  000000000151800000000015500000000001491000000000152500000000015500000000001539000000000155001931000000000000449200000000000685331500000000000000009999123100000010000000000000BRMDNEACNOR9100
012024102502MEAL3       010IMC S/A     ON      NM   R$  000000000014200000000001420000000000138000000000013900000000001400000000000139000000000014000137000000000000153800000000000021385200000000000000009999123100000010000000000000BRMEALACNOR9105
012024102502MELK3       010MELNICK     ON      NM   R$  000000000035800000000003630000000000354000000000035700000000003580000000000358000000000036100946000000000000715500000000000255984400000000000000009999123100000010000000000000BRMELKACNOR8111
012024102502PATI4       010PANATLANTICAPN  ED       R$  000000000350000000000035000000000003500000000000350000000000035000000000003151000000000350000001000000000000000100000000000000350000000000000000009999123100000010000000000000BRPATIACNPR3067
012024102502PCAR3       010P.ACUCAR-CBDON      NM   R$  000000000032400000000003250000000000316000000000031900000000003170000000000316000000000031705761000000000007322200000000002339950300000000000000009999123100000010000000000000BRPCARACNOR3167
012024102502PDGR3       010PDG REALT   ON      NM   R$  000000000000200000000000020000000000001000000000000100000000000010000000000001000000000000201212000000000169975600000000000208677900000000000000009999123100000010000000000000BRPDGRACNOR8119
012024102502PDTC3       010PADTEC      ON      NM   R$  000000000019400000000001970000000000188000000000019200000000001890000000000188000000000019200057000000000000044900000000000008633300000000000000009999123100000010000000000000BRPDTCACNOR3101
012024102502PEAB4       010PAR AL BAHIAPN           R$  000000000470000000000047000000000004700000000000470000000000047000000000000000000000000500000001000000000000000600000000000002820000000000000000009999123100000010000000000000BRPEABACNPR0133
012024102502PETR3       010PETROBRAS   ON      N2   R$  000000000390100000000039620000000003899000000000392700000000039400000000003937000000000394213188000000000007829100000000030746238100000000000000009999123100000010000000000000BRPETRACNOR9206
012024102502PETR4       010PETROBRAS   PN      N2   R$  000000000359600000000036490000000003585000000000361300000000036150000000003615000000000361837422000000000032567000000000117693482000000000000000009999123100000010000000000000BRPETRACNPR6214
012024102502AALR3       010ALLIAR      ON      NM   R$  000000000143600000000014640000000001410000000000144200000000014640000000001449000000000146500147000000000000019700000000000028416000000000000000009999123100000010000000000000BRAALRACNOR6102
012024102502ABCB4       010ABC BRASIL  PN      N2   R$  000000000214000000000021480000000002126000000000213500000000021350000000002130000000000213502505000000000000461100000000000984469400000000000000009999123100000010000000000000BRABCBACNPR4146
012024102502ABEV3       010AMBEV S/A   ON           R$  000000000128200000000012840000000001273000000000127600000000012750000000001275000000000127615754000000000019204000000000024512039700000000000000009999123100000010000000000000BRABEVACNOR1128
012024102502BRIT3       010BRISANET    ON      NM   R$  000000000030100000000003030000000000299000000000030000000000003020000000000300000000000030200325000000000000125600000000000037734400000000000000009999123100000010000000000000BRBRITACNOR0103
012024102502BRKM3       010BRASKEM     ON      N1   R$  000000000171000000000017400000000001701000000000171500000000017020000000001702000000000172800143000000000000021000000000000036022600000000000000009999123100000010000000000000BRBRKMACNOR1119
012024102502BRKM5       010BRASKEM     PNA     N1   R$  000000000174300000000017650000000001726000000000174100000000017330000000001729000000000173306170000000000002222400000000003869406000000000000000009999123100000010000000000000BRBRKMACNPA4121
012024102502CYRE3       010CYRELA REALTON      NM   R$  000000000216500000000021790000000002107000000000212700000000021150000000002110000000000211910193000000000002991700000000006364184600000000000000009999123100000010000000000000BRCYREACNOR7140
012024102502DASA3       010DASA        ON      NM   R$  000000000027100000000002730000000000264000000000026700000000002660000000000265000000000026601074000000000000637900000000000170668000000000000000009999123100000010000000000000BRDASAACNOR1123
012024102502DESK3       010DESKTOP     ON      NM   R$  000000000136300000000013680000000001330000000000134300000000013300000000001330000000000134000484000000000000364500000000000489802800000000000000009999123100000010000000000000BRDESKACNOR2104
012024102502DEXP3       010DEXXOS PAR  ON      N1   R$  000000000087200000000008850000000000870000000000087500000000008700000000000870000000000087800363000000000000049200000000000043060900000000000000009999123100000010000000000000BRDEXPACNOR1105
012024102502FESA3       010FERBASA     ON      N1   R$  000000000125300000000012800000000001253000000000126600000000012800000000001253000000000132700002000000000000000200000000000000253300000000000000009999123100000010000000000000BRFESAACNOR8189
012024102502FESA4       010FERBASA     PN      N1   R$  000000000073800000000007550000000000738000000000074900000000007460000000000746000000000074900914000000000000283000000000000211983300000000000000009999123100000010000000000000BRFESAACNPR5085
012024102502FHER3       010FER HERINGERON      NM   R$  000000000036800000000003740000000000362000000000036700000000003700000000000370000000000037900013000000000000002700000000000000993400000000000000009999123100000010000000000000BRFHERACNOR5103
012024102502FIEI3       010FICA        ON           R$  000000000106000000000010600000000001060000000000106000000000010600000000000920000000000114900001000000000000000100000000000000106000000000000000009999123100000010000000000000BRFIEIACNOR2100
012024102502FIQE3       010UNIFIQUE    ON      NM   R$  000000000038700000000003870000000000377000000000038000000000003820000000000379000000000038200736000000000000346400000000000131953500000000000000009999123100000010000000000000BRFIQEACNOR5107
012024102502FLRY3       010FLEURY      ON      NM   R$  000000000151500000000015230000000001498000000000150500000000015030000000001501000000000150506047000000000001535200000000002311162200000000000000009999123100000010000000000000BRFLRYACNOR5139
012024102502FRAS3       010FRAS-LE     ON      N1   R$  000000000224800000000022510000000002222000000000223400000000022330000000002232000000000224201192000000000000194900000000000435428100000000000000009999123100000010000000000000BRFRASACNOR0160
012024102502FRIO3       010METALFRIO   ON      NM   R$  000000001520000000000152000000000013000000000001418800000000145000000000012500000000001450000075000000000000016100000000000228428600000000000000009999123100000010000000000000BRFRIOACNOR2111
012024102502KEPL3       010KEPLER WEBERON      NM   R$  000000000093100000000009540000000000923000000000094200000000009400000000000940000000000094203608000000000001328900000000001252915900000000000000009999123100000010000000000000BRKEPLACNOR1064
012024102502KLBN11      010KLABIN S/A  UNT     N2   R$  000000000204900000000020960000000002049000000000208000000000020840000000002084000000000208515709000000000004515400000000009393336400000000000000009999123100000010000000000000BRKLBNCDAM18143
012024102502KLBN3       010KLABIN S/A  ON      N2   R$  000000000041100000000004200000000000411000000000041600000000004140000000000414000000000041500602000000000000312700000000000130273600000000000000009999123100000010000000000000BRKLBNACNOR2171
012024102502KLBN4       010KLABIN S/A  PN      N2   R$  000000000041300000000004190000000000411000000000041500000000004160000000000416000000000041701699000000000001697600000000000705868700000000000000009999123100000010000000000000BRKLBNACNPR9171
012024102502MTRE3       010MITRE REALTYON  ED  NM   R$  000000000036400000000003690000000000359000000000036200000000003610000000000360000000000036100588000000000000372100000000000135001100000000000000009999123100000010000000000000BRMTREACNOR6116
012024102502MTSA4       010METISA      PN           R$  000000000355200000000035520000000003500000000000351600000000035010000000003501000000000360000023000000000000003700000000000013009600000000000000009999123100000010000000000000BRMTSAACNPR9073
012024102502MULT3       010MULTIPLAN   ON      N2   R$  000000000254000000000025760000000002496000000000251600000000025100000000002510000000000251519335000000000004184300000000010530240200000000000000009999123100000010000000000000BRMULTACNOR5139
012024102502KRSA3       010KORA SAUDE  ON      NM   R$  000000000051600000000005320000000000516000000000052800000000005300000000000512000000000053000042000000000000022600000000000011934700000000000000009999123100000010000000000000BRKRSAACNOR0101
012024102502NEOE3       010NEOENERGIA  ON      NM   R$  000000000190800000000019230000000001895000000000190600000000019050000000001905000000000190702564000000000000787700000000001501371500000000000000009999123100000010000000000000BRNEOEACNOR3123
012024102502NGRD3       010NEOGRID     ON      NM   R$  000000000240100000000024760000000002330000000000239200000000024760000000002410000000000248300096000000000000023600000000000056455500000000000000009999123100000010000000000000BRNGRDACNOR3106
012024102502NINJ3       010GETNINJAS   ON      NM   R$  000000000044300000000004520000000000433000000000044100000000004510000000000451000000000045800045000000000000015200000000000006711400000000000000009999123100000010000000000000BRNINJACNOR5101
012024102502NORD3       010NORDON MET  ON           R$  000000000084300000000009590000000000760000000000086800000000008000000000000750000000000083900040000000000000005900000000000005123400000000000000009999123100000010000000000000BRNORDACNOR7135
012024102502NTCO3       010GRUPO NATURAON      NM   R$  000000000142800000000014380000000001402000000000141100000000014060000000001404000000000140621094000000000016377400000000023111736300000000000000009999123100000010000000000000BRNTCOACNOR5106
012024102502BAHI3       010BAHEMA      ON      MA   R$  000000000048900000000004890000000000420000000000044400000000004200000000000415000000000042000069000000000000023600000000000010491900000000000000009999123100000010000000000000BRBAHIACNOR1074
012024102502BALM4       010BAUMER      PN           R$  000000000102500000000010250000000001025000000000102500000000010250000000001001000000000104000002000000000000000200000000000000205000000000000000009999123100000010000000000000BRBALMACNPR2056
012024102502BAZA3       010AMAZONIA    ON           R$  000000000888800000000089000000000008628000000000884000000000088990000000008837000000000889900030000000000000004500000000000039780400000000000000009999123100000010000000000000BRBAZAACNOR0179
012024102502BBAS3       010BRASIL      ON      NM   R$  000000000263600000000026500000000002625000000000263300000000026370000000002636000000000263721855000000000007807800000000020563134300000000000000009999123100000010000000000000BRBBASACNOR3326
012024102502BEES3       010BANESTES    ON           R$  000000000087500000000008820000000000875000000000087800000000008820000000000876000000000088000063000000000000010600000000000009316500000000000000009999123100000010000000000000BRBEESACNOR9396
012024102502BEES4       010BANESTES    PN           R$  000000000088800000000008960000000000888000000000089100000000008900000000000890000000000089200028000000000000008400000000000007484500000000000000009999123100000010000000000000BRBEESACNPR6321
012024102502BGIP3       010BANESE      ON           R$  000000000260000000000026000000000002600000000000260000000000026000000000002550000000000260000001000000000000000100000000000000260000000000000000009999123100000010000000000000BRBGIPACNOR1210
012024102502BGIP4       010BANESE      PN           R$  000000000235500000000024250000000002332000000000234900000000023850000000002328000000000245000016000000000000002500000000000005873100000000000000009999123100000010000000000000BRBGIPACNPR8210
012024102502BHIA3       010CASAS BAHIA ON      NM   R$  000000000043000000000004360000000000420000000000042700000000004210000000000420000000000042201430000000000001520700000000000649706400000000000000009999123100000010000000000000BRBHIAACNOR1102
012024102502BRAV3       010BRAVA       ON      NM   R$  000000000171400000000017190000000001693000000000170400000000017030000000001703000000000170410298000000000005206500000000008876008000000000000000009999123100000010000000000000BRBRAVACNOR3100
012024102502CSED3       010CRUZEIRO EDUON      NM   R$  000000000034500000000003450000000000333000000000033700000000003430000000000338000000000034300894000000000000305800000000000103250500000000000000009999123100000010000000000000BRCSEDACNOR9105
012024102502CSMG3       010COPASA      ON      NM   R$  000000000225500000000022700000000002238000000000225400000000022550000000002253000000000225504409000000000000912800000000002057557600000000000000009999123100000010000000000000BRCSMGACNOR5175
012024102502CSNA3       010SID NACIONALON           R$  000000000118000000000011970000000001177000000000118200000000011800000000001179000000000118209994000000000011425300000000013514035200000000000000009999123100000010000000000000BRCSNAACNOR6261
012024102502ESPA3       010ESPACOLASER ON      NM   R$  000000000009500000000000960000000000094000000000009400000000000940000000000094000000000009500144000000000000188300000000000017838700000000000000009999123100000010000000000000BRESPAACNOR7103
012024102502ESTR4       010ESTRELA     PN           R$  000000000035000000000003500000000000350000000000035000000000003500000000000350000000000036900001000000000000000100000000000000035000000000000000009999123100000010000000000000BRESTRACNPR0144
012024102502ETER3       010ETERNIT     ON      NM   R$  000000000052700000000005310000000000521000000000052500000000005210000000000521000000000052600358000000000000088700000000000046612900000000000000009999123100000010000000000000BRETERACNOR3244
012024102502EUCA3       010EUCATEX     ON      N1   R$  000000000158800000000016300000000001588000000000160900000000016300000000001595000000000164900002000000000000000200000000000000321800000000000000009999123100000010000000000000BREUCAACNOR1157
012024102502EUCA4       010EUCATEX     PN      N1   R$  000000000143500000000014680000000001426000000000144000000000014260000000001424000000000143000236000000000000041200000000000059336200000000000000009999123100000010000000000000BREUCAACNPR8044
012024102502MWET4       010WETZEL S/A  PN           R$  000000000090000000000009100000000000900000000000090600000000009100000000000904000000000092000004000000000000001100000000000000997500000000000000009999123100000010000000000000BRMWETACNPR3118
012024102502MYPK3       010IOCHP-MAXIONON      NM   R$  000000000103800000000010510000000001004000000000101500000000010060000000001006000000000100907140000000000001562900000000001587443700000000000000009999123100000010000000000000BRMYPKACNOR7156
012024102502MRVE3       010MRV         ON      NM   R$  000000000070900000000007180000000000694000000000070100000000006980000000000697000000000069911983000000000007198500000000005046558100000000000000009999123100000010000000000000BRMRVEACNOR2127
012024102502PETZ3       010PETZ        ON      NM   R$  000000000047900000000004900000000000479000000000048500000000004860000000000485000000000048707954000000000004477000000000002172082500000000000000009999123100000010000000000000BRPETZACNOR2110
012024102502EVEN3       010EVEN        ON      NM   R$  000000000061900000000006230000000000609000000000061300000000006100000000000608000000000061002456000000000000601900000000000369080400000000000000009999123100000010000000000000BREVENACNOR8120
012024102502EZTC3       010EZTEC       ON      NM   R$  000000000136200000000013830000000001337000000000135100000000013420000000001342000000000134503545000000000000865100000000001169556500000000000000009999123100000010000000000000BREZTCACNOR0126
012024102502ONCO3       010ONCOCLINICASON      NM   R$  000000000046400000000004730000000000456000000000046000000000004580000000000457000000000045801406000000000000915500000000000421855000000000000000009999123100000010000000000000BRONCOACNOR6101
012024102502OPCT3       010OCEANPACT   ON      NM   R$  000000000067400000000006740000000000637000000000064600000000006370000000000637000000000064201488000000000000559900000000000361744100000000000000009999123100000010000000000000BROPCTACNOR0100
012024102502ORVR3       010ORIZON      ON      NM   R$  000000000469700000000046980000000004632000000000467100000000046720000000004670000000000468001386000000000000450000000000002101964000000000000000009999123100000010000000000000BRORVRACNOR0101
012024102502SAPR11      010SANEPAR     UNT     N2   R$  000000000275900000000027590000000002709000000000272100000000027090000000002706000000000272302384000000000000451800000000001229442600000000000000009999123100000010000000000000BRSAPRCDAM13118
012024102502SAPR3       010SANEPAR     ON      N2   R$  000000000052700000000005280000000000519000000000052200000000005190000000000519000000000052100404000000000000108900000000000056914100000000000000009999123100000010000000000000BRSAPRACNOR9159
012024102502ROMI3       010ROMI        ON      NM   R$  000000000100800000000010130000000000999000000000100400000000010050000000001001000000000100500852000000000000144100000000000144772200000000000000009999123100000010000000000000BRROMIACNOR8196
012024102502RSUL4       010RIOSULENSE  PN           R$  000000000619000000000061900000000006150000000000615600000000061500000000006060000000000618900004000000000000002000000000000012313000000000000000009999123100000010000000000000BRRSULACNPR3114
012024102502BBSE3       010BBSEGURIDADEON      NM   R$  000000000343000000000034420000000003415000000000342800000000034300000000003428000000000343008790000000000004008700000000013742254500000000000000009999123100000010000000000000BRBBSEACNOR5125
012024102502BPAC11      010BTGP BANCO  UNT     N2   R$  000000000325000000000032670000000003238000000000325300000000032570000000003248000000000325711387000000000003936300000000012805401500000000000000009999123100000010000000000000BRBPACUNT006119
012024102502BPAC3       010BTGP BANCO  ON      N2   R$  000000000152500000000015500000000001520000000000153100000000015260000000001524000000000155000017000000000000002100000000000003215900000000000000009999123100000010000000000000BRBPACACNOR7134
012024102502BPAC5       010BTGP BANCO  PNA     N2   R$  000000000086000000000008600000000000851000000000085500000000008510000000000847000000000086000002000000000000000400000000000000342200000000000000009999123100000010000000000000BRBPACACNPA0134
012024102502VALE3       010VALE        ON      NM   R$  000000000605700000000062470000000006052000000000617200000000061730000000006173000000000617975718000000000038438200000000237251443700000000000000009999123100000010000000000000BRVALEACNOR0211
012024102502VITT3       010VITTIA      ON  EJ  NM   R$  000000000054200000000005520000000000537000000000054300000000005440000000000542000000000054501380000000000000235500000000000127950200000000000000009999123100000010000000000000BRVITTACNOR4108
012024102502VIVA3       010VIVARA S.A. ON      NM   R$  000000000256700000000025830000000002464000000000248800000000024710000000002466000000000247307890000000000002648100000000006589992900000000000000009999123100000010000000000000BRVIVAACNOR0107
012024102502VIVR3       010VIVER       ON      NM   R$  000000000016200000000001630000000000155000000000015800000000001570000000000155000000000015700072000000000000079600000000000012636400000000000000009999123100000010000000000000BRVIVRACNOR4123
012024102502VIVT3       010TELEF BRASILON           R$  000000000537900000000053910000000005314000000000534700000000053430000000005333000000000534410027000000000001759300000000009408283900000000000000009999123100000010000000000000BRVIVTACNOR0184
012024102502VLID3       010VALID       ON      NM   R$  000000000233000000000023300000000002287000000000230100000000022870000000002287000000000230101424000000000000235500000000000542033100000000000000009999123100000010000000000000BRVLIDACNOR5144
012024102502CPFE3       010CPFL ENERGIAON      NM   R$  000000000331000000000033100000000003265000000000327400000000032710000000003270000000000327904631000000000002419000000000007920975600000000000000009999123100000010000000000000BRCPFEACNOR0137
012024102502CPLE3       010COPEL       ON      N2   R$  000000000087600000000008760000000000863000000000086700000000008700000000000868000000000087004362000000000003253000000000002821522100000000000000009999123100000010000000000000BRCPLEACNOR8150
012024102502CPLE5       010COPEL       PNA     N2   R$  000000000119900000000012000000000001199000000000119900000000012000000000001100000000000120000003000000000000000400000000000000479900000000000000009999123100000010000000000000BRCPLEACNPA1148
012024102502CPLE6       010COPEL       PNB     N2   R$  000000000097700000000009800000000000970000000000097400000000009750000000000974000000000097615979000000000028012200000000027293804600000000000000009999123100000010000000000000BRCPLEACNPB9147
012024102502ELMD3       010ELETROMIDIA ON      NM   R$  000000000174700000000017690000000001704000000000174000000000017400000000001725000000000174000362000000000000077200000000000134346400000000000000009999123100000010000000000000BRELMDACNOR3101
012024102502EMAE4       010EMAE        PN           R$  000000000391700000000040000000000003915000000000393800000000039150000000003901000000000399900016000000000000002100000000000008270500000000000000009999123100000010000000000000BREMAEACNPR1126
012024102502EMBR3       010EMBRAER     ON      NM   R$  000000000495000000000050590000000004915000000000499100000000049560000000004955000000000496717775000000000004297300000000021451341100000000000000009999123100000010000000000000BREMBRACNOR4191
012024102502MILS3       010MILLS       ON      NM   R$  000000000105900000000010680000000001048000000000105500000000010560000000001054000000000105902995000000000001070800000000001130626400000000000000009999123100000010000000000000BRMILSACNOR2128
012024102502MLAS3       010MULTILASER  ON      NM   R$  000000000016300000000001680000000000162000000000016500000000001620000000000162000000000016402039000000000001240400000000000204937500000000000000009999123100000010000000000000BRMLASACNOR9101
012024102502MNDL3       010MUNDIAL     ON           R$  000000000165000000000016500000000001650000000000165000000000016500000000001600000000000170000001000000000000000200000000000000330000000000000000009999123100000010000000000000BRMNDLACNOR4109
012024102502MNPR3       010MINUPAR     ON           R$  000000000195000000000020060000000001947000000000199200000000019550000000001900000000000200000016000000000000004100000000000008170900000000000000009999123100000010000000000000BRMNPRACNOR5122
012024102502RCSL3       010RECRUSUL    ON           R$  000000000042900000000004290000000000402000000000041600000000004070000000000406000000000040701193000000000001034100000000000430586800000000000000009999123100000010000000000000BRRCSLACNOR4134
012024102502RCSL4       010RECRUSUL    PN           R$  000000000018300000000001910000000000160000000000017600000000001710000000000170000000000017107887000000000007324200000000001295049400000000000000009999123100000010000000000000BRRCSLACNPR1134
012024102502RDNI3       010RNI         ON      NM   R$  000000000031400000000003140000000000304000000000030600000000003080000000000305000000000031000011000000000000001600000000000000490900000000000000009999123100000010000000000000BRRDNIACNOR9116
012024102502RDOR3       010REDE D OR   ON      NM   R$  000000000299000000000030030000000002906000000000293500000000029120000000002910000000000291411408000000000013961200000000040976550800000000000000009999123100000010000000000000BRRDORACNOR8114
012024102502VSTE3       010VESTE       ON      NM   R$  000000000097300000000010150000000000970000000000099800000000009700000000000950000000000100000053000000000000028100000000000028045700000000000000009999123100000010000000000000BRVSTEACNOR5103
012024102502VTRU3       010VITRUEDUCA  ON      NM   R$  000000000094400000000009530000000000901000000000091600000000009010000000000901000000000091300366000000000000089600000000000082112900000000000000009999123100000010000000000000BRVTRUACNOR3100
012024102502VULC3       010VULCABRAS   ON  ED  NM   R$  000000000166000000000016680000000001613000000000163000000000016230000000001615000000000162301210000000000000291100000000000474782400000000000000009999123100000010000000000000BRVULCACNOR2163
012024102502VVEO3       010VIVEO       ON      NM   R$  000000000019700000000002060000000000193000000000019800000000001930000000000193000000000019402702000000000003692700000000000732385000000000000000009999123100000010000000000000BRVVEOACNOR0104
012024102502MOVI3       010MOVIDA      ON      NM   R$  000000000060600000000006190000000000588000000000059700000000005900000000000589000000000059205790000000000003710200000000002217442200000000000000009999123100000010000000000000BRMOVIACNOR0122
012024102502ATOM3       010ATOMPAR     ON           R$  000000000041600000000004240000000000385000000000039800000000003950000000000389000000000039500188000000000000086500000000000034450700000000000000009999123100000010000000000000BRATOMACNOR1106
012024102502AURE3       010AUREN       ON      NM   R$  000000000102600000000010410000000001021000000000103400000000010380000000001036000000000103815111000000000007372700000000007625051400000000000000009999123100000010000000000000BRAUREACNOR9104
012024102502AVLL3       010ALPHAVILLE  ON      NM   R$  000000000029800000000002990000000000292000000000029800000000002990000000000292000000000029900008000000000000002900000000000000864600000000000000009999123100000010000000000000BRAVLLACNOR5103
012024102502AZEV3       010AZEVEDO     ON           R$  000000000012900000000001290000000000121000000000012400000000001210000000000120000000000012100277000000000000498700000000000061966600000000000000009999123100000010000000000000BRAZEVACNOR0121
012024102502AZEV4       010AZEVEDO     PN           R$  000000000012800000000001290000000000121000000000012400000000001210000000000121000000000012201088000000000004295000000000000533932400000000000000009999123100000010000000000000BRAZEVACNPR7121
012024102502WEGE3       010WEG         ON      NM   R$  000000000561500000000056280000000005543000000000557200000000055470000000005546000000000554715183000000000003795800000000021150257200000000000000009999123100000010000000000000BRWEGEACNOR0225
012024102502SCAR3       010SAO CARLOS  ON      NM   R$  000000000208000000000020980000000002060000000000208000000000020980000000002060000000000210000009000000000000000900000000000001872000000000000000009999123100000010000000000000BRSCARACNOR7131
012024102502SEER3       010SER EDUCA   ON      NM   R$  000000000060400000000006120000000000593000000000059800000000005930000000000593000000000059400849000000000000207500000000000124271900000000000000009999123100000010000000000000BRSEERACNOR5119
012024102502AZUL4       010AZUL        PN      N2   R$  000000000054800000000005550000000000530000000000054000000000005360000000000535000000000053612141000000000017069600000000009221327800000000000000009999123100000010000000000000BRAZULACNPR4103
012024102502CMIN3       010CSNMINERACAOON      N2   R$  000000000058600000000005980000000000586000000000059300000000005950000000000594000000000059507827000000000006926000000000004111515100000000000000009999123100000010000000000000BRCMINACNOR2112
012024102502COCE5       010COELCE      PNA          R$  000000000268400000000028000000000002684000000000275900000000027650000000002756000000000278900077000000000000011800000000000032557400000000000000009999123100000010000000000000BRCOCEACNPA3147
012024102502COGN3       010COGNA ON    ON      NM   R$  000000000014800000000001510000000000142000000000014600000000001430000000000143000000000014412924000000000032227700000000004717170600000000000000009999123100000010000000000000BRCOGNACNOR2105
012024102502ELET3       010ELETROBRAS  ON      N1   R$  000000000383800000000038390000000003778000000000379700000000037950000000003795000000000379812164000000000007737500000000029381426000000000000000009999123100000010000000000000BRELETACNOR6160
012024102502ELET6       010ELETROBRAS  PNB     N1   R$  000000000424600000000042590000000004194000000000421400000000042190000000004218000000000421903691000000000000635100000000002676617100000000000000009999123100000010000000000000BRELETACNPB7077
012024102502GRND3       010GRENDENE    ON      NM   R$  000000000052800000000005320000000000521000000000052400000000005240000000000523000000000052401751000000000000774200000000000406070000000000000000009999123100000010000000000000BRGRNDACNOR3175
012024102502SHOW3       010TIME FOR FUNON      NM   R$  000000000009300000000000940000000000093000000000009300000000000930000000000093000000000009400180000000000000052500000000000004910600000000000000009999123100000010000000000000BRSHOWACNOR7105
012024102502SHUL4       010SCHULZ      PN           R$  000000000062000000000006260000000000613000000000061900000000006180000000000618000000000062400813000000000000284800000000000176329400000000000000009999123100000010000000000000BRSHULACNPR4157
012024102502SIMH3       010SIMPAR      ON      NM   R$  000000000054600000000005540000000000526000000000053500000000005300000000000530000000000053103607000000000002413400000000001292186800000000000000009999123100000010000000000000BRSIMHACNOR0107
012024102502SLCE3       010SLC AGRICOLAON      NM   R$  000000000173200000000017390000000001722000000000172900000000017220000000001722000000000172406517000000000002312600000000003999325600000000000000009999123100000010000000000000BRSLCEACNOR2125
012024102502LOGG3       010LOG COM PROPON      NM   R$  000000000227900000000022860000000002231000000000225700000000022310000000002230000000000225000936000000000000106800000000000241065900000000000000009999123100000010000000000000BRLOGGACNOR7107
012024102502LOGN3       010LOG-IN      ON      NM   R$  000000000263700000000026620000000002609000000000263400000000026090000000002605000000000265300066000000000000009700000000000025553600000000000000009999123100000010000000000000BRLOGNACNOR3105
012024102502GUAR3       010GUARARAPES  ON      NM   R$  000000000083000000000008510000000000815000000000083100000000008150000000000815000000000082103017000000000000866400000000000720071000000000000000009999123100000010000000000000BRGUARACNOR4173
012024102502TAEE11      010TAESA       UNT     N2   R$  000000000344700000000034480000000003423000000000343100000000034350000000003432000000000343504059000000000000717300000000002461190400000000000000009999123100000010000000000000BRTAEECDAM10148
012024102502TAEE3       010TAESA       ON      N2   R$  000000000114100000000011440000000001140000000000114100000000011420000000001140000000000114200193000000000000040300000000000046017700000000000000009999123100000010000000000000BRTAEEACNOR9148
012024102502TAEE4       010TAESA       PN      N2   R$  000000000115100000000011530000000001148000000000114900000000011480000000001148000000000114900305000000000000068600000000000078870600000000000000009999123100000010000000000000BRTAEEACNPR6148
012024102502TASA3       010TAURUS ARMASON      N2   R$  000000000100600000000010190000000000992000000000100300000000009980000000000998000000000100900041000000000000006600000000000006622200000000000000009999123100000010000000000000BRTASAACNOR7104
012024102502TASA4       010TAURUS ARMASPN      N2   R$  000000000097500000000009950000000000975000000000098300000000009810000000000977000000000098101204000000000000184400000000000181363200000000000000009999123100000010000000000000BRTASAACNPR4104
012024102502RAIZ4       010RAIZEN      PN      N2   R$  000000000029300000000002970000000000282000000000028600000000002830000000000283000000000028429116000000000016871500000000004834998100000000000000009999123100000010000000000000BRRAIZACNPR6111
012024102502RANI3       010IRANI       ON      NM   R$  000000000074200000000007600000000000742000000000075300000000007580000000000755000000000075801419000000000000792300000000000597351200000000000000009999123100000010000000000000BRRANIACNOR5073
012024102502RAPT3       010RANDON PART ON      N1   R$  000000000093000000000009390000000000922000000000093400000000009390000000000931000000000093900098000000000000024800000000000023166100000000000000009999123100000010000000000000BRRAPTACNOR7163
012024102502RAPT4       010RANDON PART PN      N1   R$  000000000109300000000011220000000001091000000000110800000000010930000000001092000000000109305294000000000001810500000000002006642900000000000000009999123100000010000000000000BRRAPTACNPR4163
012024102502WHRL3       010WHIRLPOOL   ON           R$  000000000041500000000004160000000000413000000000041300000000004130000000000413000000000041600007000000000000001500000000000000620600000000000000009999123100000010000000000000BRWHRLACNOR5129
012024102502WHRL4       010WHIRLPOOL   PN           R$  000000000043900000000004460000000000439000000000044400000000004450000000000445000000000044600028000000000000011100000000000004933000000000000000009999123100000010000000000000BRWHRLACNPR2129
012024102502WIZC3       010WIZ CO      ON      NM   R$  000000000058700000000005870000000000579000000000058100000000005810000000000581000000000058201074000000000000245700000000000142823700000000000000009999123100000010000000000000BRWIZCACNOR5102
012024102502WLMM3       010WLM IND COM ON           R$  000000000255000000000025500000000002550000000000255000000000025500000000002550000000000269900001000000000000000200000000000000510000000000000000009999123100000010000000000000BRWLMMACNOR6119
012024102502YDUQ3       010YDUQS PART  ON      NM   R$  000000000110600000000011150000000001041000000000106700000000010680000000001065000000000106811625000000000005174500000000005523412200000000000000009999123100000010000000000000BRYDUQACNOR3105
012024102502ZAMP3       010ZAMP S.A.   ON           R$  000000000025400000000002590000000000250000000000025200000000002500000000000250000000000025201335000000000000893800000000000225610100000000000000009999123100000010000000000000BRZAMPACNOR5101
012024102502RADL3       010RAIADROGASILON      NM   R$  000000000249000000000025070000000002443000000000246900000000024440000000002443000000000244511230000000000006027300000000014884981900000000000000009999123100000010000000000000BRRADLACNOR0158
012024102502RAIL3       010RUMO S.A.   ON      NM   R$  000000000190000000000019220000000001882000000000190600000000019220000000001922000000000192324443000000000022295900000000042500490800000000000000009999123100000010000000000000BRRAILACNOR9105
012024102502SNSY5       010SANSUY      PNA          R$  000000000050200000000005020000000000478000000000048300000000004970000000000466000000000049700010000000000000001800000000000000870500000000000000009999123100000010000000000000BRSNSYACNPA5111
012024102502SOJA3       010BOA SAFRA   ON      NM   R$  000000000121000000000012330000000001209000000000122300000000012140000000001214000000000121502436000000000000410200000000000501991300000000000000009999123100000010000000000000BRSOJAACNOR9106
012024102502B3SA3       010B3          ON      NM   R$  000000000107500000000010800000000001063000000000106900000000010710000000001070000000000107226979000000000026409700000000028232538200000000000000009999123100000010000000000000BRB3SAACNOR6134
012024102502BEEF3       010MINERVA     ON      NM   R$  000000000055600000000005620000000000547000000000055100000000005490000000000549000000000055012447000000000012167200000000006709471000000000000000009999123100000010000000000000BRBEEFACNOR6116
012024102502BPAN4       010BANCO PAN   PN      N1   R$  000000000090800000000009120000000000887000000000089700000000009000000000000899000000000090003171000000000001154700000000001036386800000000000000009999123100000010000000000000BRBPANACNPR1115
012024102502BRAP3       010BRADESPAR   ON      N1   R$  000000000176400000000018000000000001764000000000178900000000017980000000001790000000000179800391000000000000072000000000000128839300000000000000009999123100000010000000000000BRBRAPACNOR5148
012024102502BRAP4       010BRADESPAR   PN      N1   R$  000000000190500000000019640000000001899000000000194100000000019380000000001937000000000194016950000000000005401900000000010489117900000000000000009999123100000010000000000000BRBRAPACNPR2148
012024102502CRFB3       010CARREFOUR BRON      NM   R$  000000000074600000000007530000000000701000000000071500000000007010000000000701000000000070212893000000000010156400000000007268639500000000000000009999123100000010000000000000BRCRFBACNOR2116
012024102502CRPG5       010CRISTAL     PNA          R$  000000000253900000000025390000000002509000000000252400000000025090000000002508000000000253900002000000000000000200000000000000504800000000000000009999123100000010000000000000BRCRPGACNPA3119
012024102502CSAN3       010COSAN       ON      NM   R$  000000000118600000000011880000000001166000000000117600000000011750000000001175000000000117912907000000000007370400000000008668804900000000000000009999123100000010000000000000BRCSANACNOR6126
012024102502ENEV3       010ENEVA       ON      NM   R$  000000000136700000000013710000000001338000000000134600000000013380000000001338000000000134318340000000000007237700000000009744487100000000000000009999123100000010000000000000BRENEVACNOR8106
012024102502ENGI11      010ENERGISA    UNT     N2   R$  000000000430200000000043450000000004275000000000430000000000043040000000004300000000000430912614000000000005515800000000023720792100000000000000009999123100000010000000000000BRENGICDAM16136
012024102502ENGI3       010ENERGISA    ON      N2   R$  000000000130000000000013000000000001259000000000127800000000012590000000001259000000000128200052000000000000009000000000000011509900000000000000009999123100000010000000000000BRENGIACNOR0146
012024102502ENGI4       010ENERGISA    PN      N2   R$  000000000075500000000007580000000000750000000000075200000000007580000000000750000000000075800030000000000000007500000000000005640800000000000000009999123100000010000000000000BRENGIACNPR7142
012024102502ENJU3       010ENJOEI      ON      NM   R$  000000000012800000000001320000000000125000000000012900000000001250000000000125000000000012800321000000000000358900000000000046398700000000000000009999123100000010000000000000BRENJUACNOR9100
012024102502EPAR3       010EMBPAR S/A  ON           R$  000000000057500000000005750000000000563000000000056700000000005670000000000564000000000057200022000000000000006500000000000003685900000000000000009999123100000010000000000000BREPARACNOR9105
012024102502EQMA3B      010EQTLMARANHAOON      MB   R$  000000000229800000000022980000000002249000000000228100000000022980000000002275000000000234000007000000000000001200000000000002738100000000000000009999123100000010000000000000BREQMAACNOR8108
012024102502EQPA3       010EQTL PARA   ON           R$  000000000059500000000005950000000000570000000000058000000000005800000000000580000000000058500057000000000000019400000000000011266500000000000000009999123100000010000000000000BREQPAACNOR1111
012024102502EQTL3       010EQUATORIAL  ON      NM   R$  000000000320900000000032250000000003167000000000318500000000031790000000003178000000000318016381000000000004130800000000013159389200000000000000009999123100000010000000000000BREQTLACNOR0131
012024102502HBOR3       010HELBOR      ON      NM   R$  000000000019000000000001910000000000181000000000018100000000001810000000000181000000000018200566000000000003717000000000000675392400000000000000009999123100000010000000000000BRHBORACNOR3118
012024102502HBRE3       010HBR REALTY  ON      NM   R$  000000000047300000000004770000000000460000000000046400000000004600000000000460000000000046100960000000000000426100000000000197979400000000000000009999123100000010000000000000BRHBREACNOR4100
012024102502HBSA3       010HIDROVIAS   ON      NM   R$  000000000032600000000003290000000000321000000000032200000000003210000000000321000000000032202496000000000002091600000000000675417000000000000000009999123100000010000000000000BRHBSAACNOR0101
012024102502SAPR4       010SANEPAR     PN      N2   R$  000000000055500000000005570000000000551000000000055300000000005520000000000551000000000055201607000000000000825000000000000456390800000000000000009999123100000010000000000000BRSAPRACNPR6159
012024102502SBFG3       010GRUPO SBF   ON      NM   R$  000000000142000000000014340000000001391000000000140000000000013950000000001395000000000139705581000000000002035100000000002849310200000000000000009999123100000010000000000000BRSBFGACNOR1103
012024102502SBSP3       010SABESP      ON      NM   R$  000000000909100000000092280000000009014000000000913400000000091300000000009127000000000913014136000000000002350000000000021466591100000000000000009999123100000010000000000000BRSBSPACNOR5161
012024102502UNIP3       010UNIPAR      ON           R$  000000000450500000000046000000000004411000000000449000000000044500000000004450000000000450400168000000000000029200000000000131131700000000000000009999123100000010000000000000BRUNIPACNOR7206
012024102502UNIP5       010UNIPAR      PNA          R$  000000000462000000000047980000000004620000000000477800000000047900000000004621000000000479900005000000000000001300000000000006211700000000000000009999123100000010000000000000BRUNIPACNPA0208
012024102502UNIP6       010UNIPAR      PNB          R$  000000000451100000000046240000000004511000000000458100000000046020000000004575000000000460200740000000000000097700000000000447570000000000000000009999123100000010000000000000BRUNIPACNPB8206
012024102502USIM3       010USIMINAS    ON      N1   R$  000000000062500000000006600000000000625000000000064700000000006460000000000643000000000064602079000000000000982900000000000636485800000000000000009999123100000010000000000000BRUSIMACNOR3167
012024102502USIM5       010USIMINAS    PNA     N1   R$  000000000066300000000006860000000000657000000000067100000000006640000000000663000000000066422556000000000046616900000000031281656400000000000000009999123100000010000000000000BRUSIMACNPA6169
012024102502SRNA3       010SERENA      ON      NM   R$  000000000083200000000008450000000000822000000000082600000000008250000000000825000000000082902921000000000001499900000000001240221100000000000000009999123100000010000000000000BRSRNAACNOR4100
012024102502STBP3       010SANTOS BRP  ON  ER  NM   R$  000000000128100000000012840000000001277000000000127900000000012820000000001279000000000128205869000000000008014000000000010256941200000000000000009999123100000010000000000000BRSTBPACNOR3132
012024102502SUZB3       010SUZANO S.A. ON      NM   R$  000000000583000000000059920000000005818000000000590900000000059000000000005900000000000590133617000000000011847500000000070013529400000000000000009999123100000010000000000000BRSUZBACNOR0130
012024102502WEST3       010WESTWING    ON      NM   R$  000000000007900000000000800000000000079000000000007900000000000800000000000079000000000008000021000000000000022400000000000001771400000000000000009999123100000010000000000000BRWESTACNOR3100
012024102502PRNR3       010PRINER      ON      NM   R$  000000000126000000000012940000000001255000000000127900000000012900000000001290000000000129201045000000000000270300000000000345948500000000000000009999123100000010000000000000BRPRNRACNOR4109
012024102502PSSA3       010PORTO SEGUROON      NM   R$  000000000383800000000038450000000003812000000000382900000000038340000000003831000000000383805657000000000000996900000000003817699500000000000000009999123100000010000000000000BRPSSAACNOR7156
012024102502PTBL3       010PORTOBELLO  ON      NM   R$  000000000044500000000004450000000000428000000000043100000000004280000000000428000000000043101119000000000000279400000000000120697700000000000000009999123100000010000000000000BRPTBLACNOR8132
012024102502PTNT3       010PETTENATI   ON           R$  000000000092900000000009550000000000928000000000093100000000009330000000000926000000000093000011000000000000001300000000000001211200000000000000009999123100000010000000000000BRPTNTACNOR6042
012024102502PTNT4       010PETTENATI   PN           R$  000000000064600000000006600000000000635000000000064500000000006350000000000633000000000063500033000000000000025900000000000016719500000000000000009999123100000010000000000000BRPTNTACNPR3047
012024102502QUAL3       010QUALICORP   ON      NM   R$  000000000021700000000002180000000000212000000000021400000000002130000000000213000000000021401032000000000001734500000000000372344800000000000000009999123100000010000000000000BRQUALACNOR6120
012024102502SMFT3       010SMART FIT   ON      NM   R$  000000000219300000000021930000000002131000000000214300000000021400000000002134000000000214705618000000000001161900000000002490909200000000000000009999123100000010000000000000BRSMFTACNOR1112
012024102502SMTO3       010SAO MARTINHOON      NM   R$  000000000257700000000026040000000002545000000000256000000000025540000000002548000000000255403397000000000000611700000000001566223300000000000000009999123100000010000000000000BRSMTOACNOR3127
012024102502HYPE3       010HYPERA      ON      NM   R$  000000000275000000000027620000000002591000000000262900000000026200000000002615000000000262023769000000000013657200000000035906596700000000000000009999123100000010000000000000BRHYPEACNOR0144
012024102502JALL3       010JALLESMACHADON      NM   R$  000000000061000000000006130000000000600000000000060200000000006010000000000601000000000060201113000000000000471100000000000284038900000000000000009999123100000010000000000000BRJALLACNOR0106
012024102502JBSS3       010JBS         ON      NM   R$  000000000343800000000035050000000003405000000000345400000000034620000000003462000000000346731565000000000008783900000000030347216400000000000000009999123100000010000000000000BRJBSSACNOR8122
012024102502MRFG3       010MARFRIG     ON      NM   R$  000000000144800000000014640000000001421000000000144100000000014450000000001445000000000144710631000000000003361300000000004846623300000000000000009999123100000010000000000000BRMRFGACNOR0116
012024102502AZZA3       010AZZAS 2154  ON      NM   R$  000000000411100000000041740000000004029000000000406200000000040530000000004050000000000405706381000000000001345100000000005464961500000000000000009999123100000010000000000000BRAZZAACNOR9100
012024102502AGRO3       010BRASILAGRO  ON  ED  NM   R$  000000000234100000000023640000000002341000000000235400000000023530000000002349000000000235401008000000000000153900000000000362392100000000000000009999123100000010000000000000BRAGROACNOR7115
012024102502ALLD3       010ALLIED      ON      NM   R$  000000000076300000000007640000000000755000000000076000000000007630000000000757000000000076300065000000000000012400000000000009424100000000000000009999123100000010000000000000BRALLDACNOR3106
012024102502ALOS3       010ALLOS       ON  ED  NM   R$  000000000220400000000022240000000002186000000000219600000000021900000000002190000000000219309803000000000003149900000000006919293300000000000000009999123100000010000000000000BRALOSACNOR5103
012024102502ALPA3       010ALPARGATAS  ON      N1   R$  000000000065100000000006510000000000649000000000064900000000006490000000000643000000000065000007000000000000001300000000000000844400000000000000009999123100000010000000000000BRALPAACNOR0231
012024102502ALPA4       010ALPARGATAS  PN      N1   R$  000000000072600000000007290000000000713000000000072000000000007130000000000712000000000071305181000000000001535200000000001105584000000000000000009999123100000010000000000000BRALPAACNPR7232
012024102502ALPK3       010ESTAPAR     ON      NM   R$  000000000028500000000002850000000000275000000000027900000000002750000000000275000000000027800246000000000000150900000000000042189000000000000000009999123100000010000000000000BRALPKACNOR9101
012024102502ALUP11      010ALUPAR      UNT     N2   R$  000000000294200000000029420000000002910000000000292100000000029240000000002913000000000292501880000000000000388100000000001133989100000000000000009999123100000010000000000000BRALUPCDAM15120
012024102502BBDC3       010BRADESCO    ON      N1   R$  000000000132400000000013240000000001302000000000130800000000013110000000001310000000000131206534000000000004239100000000005545566400000000000000009999123100000010000000000000BRBBDCACNOR1776
012024102502BBDC4       010BRADESCO    PN      N1   R$  000000000151600000000015210000000001487000000000149400000000014930000000001492000000000149330208000000000031627800000000047270911100000000000000009999123100000010000000000000BRBBDCACNPR8776
012024102502BRSR3       010BANRISUL    ON      N1   R$  000000000130700000000013090000000001290000000000129700000000012900000000001290000000000129400028000000000000003400000000000004411800000000000000009999123100000010000000000000BRBRSRACNOR3189
012024102502BRSR6       010BANRISUL    PNB     N1   R$  000000000111700000000011170000000001107000000000111200000000011090000000001109000000000111001926000000000000530500000000000589928600000000000000009999123100000010000000000000BRBRSRACNPB4192
012024102502BSLI3       010BRB BANCO   ON           R$  000000000087600000000008770000000000875000000000087600000000008770000000000877000000000092100005000000000000003700000000000003243200000000000000009999123100000010000000000000BRBSLIACNOR5194
012024102502CAMB3       010CAMBUCI     ON           R$  000000000121500000000012200000000001209000000000121500000000012200000000001215000000000122000061000000000000015100000000000018356800000000000000009999123100000010000000000000BRCAMBACNOR4131
012024102502CAML3       010CAMIL       ON      NM   R$  000000000080600000000008130000000000788000000000079600000000007940000000000790000000000079401133000000000000385800000000000307318800000000000000009999123100000010000000000000BRCAMLACNOR3129
012024102502CASH3       010MELIUZ      ON      NM   R$  000000000035200000000003540000000000345000000000034800000000003510000000000348000000000035100659000000000000409300000000000142599400000000000000009999123100000010000000000000BRCASHACNOR8107
012024102502CBAV3       010CBA         ON      NM   R$  000000000058200000000006020000000000582000000000059400000000005930000000000591000000000059305528000000000003244200000000001930235200000000000000009999123100000010000000000000BRCBAVACNOR5104
012024102502CBEE3       010AMPLA ENERG ON           R$  000000000131500000000013150000000001300000000000130100000000013000000000001100000000000187400008000000000000001200000000000001561500000000000000009999123100000010000000000000BRCBEEACNOR3160
012024102502CCRO3       010CCR SA      ON      NM   R$  000000000122100000000012260000000001201000000000120700000000012060000000001206000000000120715076000000000006159900000000007440540100000000000000009999123100000010000000000000BRCCROACNOR2145
012024102502GGBR3       010GERDAU      ON      N1   R$  000000000170800000000017330000000001705000000000172800000000017300000000001730000000000173200348000000000000100200000000000173190600000000000000009999123100000010000000000000BRGGBRACNOR1193
012024102502GGBR4       010GERDAU      PN      N1   R$  000000000179900000000018230000000001789000000000180100000000017990000000001795000000000179915835000000000007552000000000013607006900000000000000009999123100000010000000000000BRGGBRACNPR8193
012024102502ITSA3       010ITAUSA      ON      N1   R$  000000000107300000000010760000000001061000000000106800000000010610000000001061000000000106500318000000000000097500000000000104192900000000000000009999123100000010000000000000BRITSAACNOR0443
012024102502LUPA3       010LUPATECH    ON      NM   R$  000000000015100000000001620000000000150000000000015500000000001500000000000150000000000015300189000000000000248200000000000038494700000000000000009999123100000010000000000000BRLUPAACNOR8112
012024102502LUXM4       010TREVISA     PN           R$  000000000138000000000013800000000001380000000000138000000000013800000000001202000000000138000002000000000000000300000000000000414000000000000000009999123100000010000000000000BRLUXMACNPR4052
012024102502LVTC3       010WDC NETWORKSON      NM   R$  000000000037000000000003740000000000361000000000036700000000003610000000000361000000000036800032000000000000007500000000000002757400000000000000009999123100000010000000000000BRLVTCACNOR4102
012024102502LWSA3       010LWSA        ON      NM   R$  000000000044100000000004460000000000427000000000043500000000004330000000000429000000000043308847000000000004632800000000002016071700000000000000009999123100000010000000000000BRLWSAACNOR8103
012024102502MAPT4       010CEMEPE      PN           R$  000000000050900000000005090000000000500000000000050400000000005000000000000420000000000050900002000000000000000200000000000000100900000000000000009999123100000010000000000000BRMAPTACNPR5106
012024102502MATD3       010MATER DEI   ON      NM   R$  000000000043000000000004300000000000413000000000041800000000004180000000000417000000000041900548000000000000367800000000000153888600000000000000009999123100000010000000000000BRMATDACNOR4104
012024102502MBLY3       010MOBLY       ON  ES  NM   R$  000000000020800000000002100000000000203000000000020700000000002090000000000209000000000021000216000000000000106800000000000022203900000000000000009999123100000010000000000000BRMBLYACNOR5101
012024102502MDIA3       010M.DIASBRANCOON      NM   R$  000000000252100000000025560000000002460000000000248100000000024600000000002459000000000246103114000000000000894200000000002218905000000000000000009999123100000010000000000000BRMDIAACNOR7136
012024102507TXRX4       010TEX RENAUX  PN           R$  000000000022600000000002260000000000224000000000022500000000002240000000000218000000000022400002000000000000000200000000000000045000000000000000009999123100000010000000000000BRTXRXACNPR0142
012024102507NUTR3       010NUTRIPLANT  ON      MA   R$  000000000042500000000004400000000000425000000000043200000000004360000000000431000000000043900021000000000000004600000000000001988600000000000000009999123100000010000000000000BRNUTRACNOR0104
012024102507SEQL3       010SEQUOIA LOG ON      NM   R$  000000000044200000000004510000000000398000000000041700000000003990000000000399000000000040002348000000000001497200000000000625380100000000000000009999123100000010000000000000BRSEQLACNOR2103
012024102508CTSA3       010SANTANENSE  ON           R$  000000000020200000000002020000000000202000000000020200000000002020000000000202000000000024300002000000000000000200000000000000040400000000000000009999123100000010000000000000BRCTSAACNOR3062
012024102508CTSA4       010SANTANENSE  PN           R$  000000000010800000000001080000000000108000000000010800000000001080000000000108000000000010900011000000000000002200000000000000237600000000000000009999123100000010000000000000BRCTSAACNPR0062
012024102508JFEN3       010JOAO FORTES ON           R$  000000000002600000000000270000000000025000000000002600000000000270000000000026000000000002700108000000000000309300000000000008055500000000000000009999123100000010000000000000BRJFENACNOR0059
012024102508AMER3       010AMERICANAS  ON      NM   R$  000000000037300000000003910000000000373000000000038100000000003860000000000386000000000038701502000000000001265600000000000482845800000000000000009999123100000010000000000000BRAMERACNOR6103
012024102508PMAM3       010PARANAPANEMAON      NM   R$  000000000012000000000001200000000000109000000000011100000000001090000000000108000000000010900202000000000000224800000000000025008100000000000000009999123100000010000000000000BRPMAMACNOR3040
012024102508LIGT3       010LIGHT S/A   ON      NM   R$  000000000062800000000006280000000000600000000000061200000000006000000000000600000000000060601620000000000000443800000000000272018200000000000000009999123100000010000000000000BRLIGTACNOR2124
012024102508OIBR3       010OI          ON      N1   R$  000000000045500000000004840000000000439000000000045900000000004410000000000440000000000044101498000000000001004300000000000461379700000000000000009999123100000010000000000000BROIBRACNOR1112
012024102508NEXP3       010NEXPE       ON           R$  000000000044800000000004480000000000448000000000044800000000004480000000000436000000000044800001000000000000001300000000000000582400000000000000009999123100000010000000000000BRNEXPACNOR0101
012024102508OIBR4       010OI          PN      N1   R$  000000000105300000000010730000000001047000000000105000000000010580000000001047000000000105800014000000000000002600000000000002731600000000000000009999123100000010000000000000BROIBRACNPR8111
012024102508OSXB3       010OSX BRASIL  ON      NM   R$  000000000044400000000004500000000000432000000000043800000000004500000000000426000000000045100015000000000000001700000000000000745500000000000000009999123100000010000000000000BROSXBACNOR8109
012024102508RNEW11      010RENOVA      UNT     N2   R$  000000000035100000000003540000000000336000000000034100000000003480000000000340000000000034200042000000000000010800000000000003688500000000000000009999123100000010000000000000BRRNEWCDAM15110
012024102508RNEW3       010RENOVA      ON      N2   R$  000000000011500000000001180000000000111000000000011400000000001170000000000114000000000011700206000000000000118800000000000013599500000000000000009999123100000010000000000000BRRNEWACNOR8110
012024102508RNEW4       010RENOVA      PN      N2   R$  000000000011600000000001190000000000112000000000011500000000001150000000000114000000000011500442000000000000256200000000000029675400000000000000009999123100000010000000000000BRRNEWACNPR5110
012024102508RPMG3       010PET MANGUINHON           R$  000000000030000000000003000000000000295000000000029800000000002960000000000296000000000030000020000000000000004700000000000001403000000000000000009999123100000010000000000000BRRPMGACNOR9194
012024102508RSID3       010ROSSI RESID ON      NM   R$  000000000028800000000002920000000000287000000000028700000000002870000000000287000000000028800038000000000000015400000000000004429700000000000000009999123100000010000000000000BRRSIDACNOR8120
012024102508ATMP3       010ATMASA      ON           R$  000000000013500000000001360000000000135000000000013500000000001350000000000135000000000013700007000000000000000700000000000000094700000000000000009999123100000010000000000000BRATMPACNOR8100
012024102508BDLL4       010BARDELLA    PN           R$  000000000089000000000008900000000000890000000000089000000000008900000000000900000000000096500001000000000000000100000000000000089000000000000000009999123100000010000000000000BRBDLLACNPR8151
012024102508HOOT4       010HOTEIS OTHONPN           R$  000000000022700000000002270000000000226000000000022600000000002260000000000226000000000022900002000000000000003000000000000000678300000000000000009999123100000010000000000000BRHOOTACNPR9015
012024102508AGXY3       010AGROGALAXY  ON      NM   R$  000000000004500000000000450000000000041000000000004200000000000430000000000042000000000004300268000000000000291600000000000012455600000000000000009999123100000010000000000000BRAGXYACNOR4103
012024102510PINE1       010PINE        DIR ORD N2   R$  000000000007400000000000740000000000037000000000004400000000000390000000000039000000000004500089000000000000016600000000000000736200000000000000009999123100000010000000000000BRPINED04OR0150
012024102510PINE2       010PINE        DIR PRE N2   R$  000000000009500000000001000000000000095000000000009800000000001000000000000070000000000010000005000000000000001300000000000000128500000000000000009999123100000010000000000000BRPINED06PR2150
012024102510HBSA1       010HIDROVIAS   DIR ORD NM   R$  000000000000300000000000030000000000001000000000000200000000000020000000000001000000000000200087000000000001750500000000000003518900000000000000009999123100000010000000000000BRHBSAD01OR5100
012024102510MBLY1       010MOBLY       DIR ORD NM   R$  000000000000100000000000020000000000001000000000000100000000000020000000000001000000000000200070000000000000252300000000000000304800000000000000009999123100000010000000000000BRMBLYD01OR0100
012024102510MBLY11      010MOBLY       DIR     NM   R$  000000000000600000000000230000000000005000000000001300000000000170000000000009000000000001700055000000000000018500000000000000243700000000000000009999123100000010000000000000BRMBLYD01M18100
012024102512GARE11      010FII GUARDIANCI           R$  000000000088900000000008950000000000884000000000088800000000008880000000000887000000000088825827000000000000828414000000000736425872000000000000009999123100000010000000000000BRGARECTF001108
012024102512GCRI11      010FII GLPG CRICI           R$  000000000646200000000064630000000006401000000000644200000000064530000000006406000000000646100059000000000000000585000000000003768749000000000000009999123100000010000000000000BRGCRICTF008148
012024102512INLG11      010FII INTER LGCI           R$  000000000795000000000080490000000007950000000000798000000000079660000000007955000000000796600104000000000000001753000000000013989324000000000000009999123100000010000000000000BRINLGCTF008101
012024102512INRD11      010FII INTER RDCI           R$  000000000709500000000071050000000007056000000000710100000000071030000000007103000000000710500032000000000000000944000000000006703472000000000000009999123100000010000000000000BRINRDCTF002101
012024102512BICR11      010FII INTER   CI           R$  000000000348100000000034810000000003223000000000334100000000034240000000003450000000000480000013000000000000000020000000000000066831000000000000009999123100000010000000000000BRBICRCTF009156
012024102512BIME11      010FII BRIO ME CI           R$  000000000071400000000007200000000000714000000000071600000000007170000000000716000000000071700127000000000000005753000000000004121060000000000000009999123100000010000000000000BRBIMECTF006136
012024102512BLCA11      010FII BLUE AAACI           R$  000000000988600000000099480000000009860000000000987100000000098600000000009860000000000994800140000000000000000240000000000002369207000000000000009999123100000010000000000000BRBLCACTF009135
012024102512BLMG11      010FII BLUE LOGCI           R$  000000000343900000000034390000000003395000000000340600000000034000000000003400000000000343901178000000000000023700000000000080740813000000000000009999123100000010000000000000BRBLMGCTF005151
012024102512BLMO11      010FII BLUEMAC CI           R$  000000000720000000000072990000000007200000000000724200000000072990000000007202000000000729900005000000000000000226000000000001636904000000000000009999123100000010000000000000BRBLMOCTF009135
012024102512BLOG11      010FII BLOG    CI           R$  000000000105000000000010500000000001050000000000105000000000010500000000001030000000000105000003000000000000000011000000000000011550000000000000009999123100000010000000000000BRBLOGCTF001105
012024102512BMLC11      010FII BMBRC LCCI           R$  000000000997900000000099790000000009390000000000946100000000096000000000009300000000000960000083000000000000001980000000000018734256000000000000009999123100000010000000000000BRBMLCCTF004255
012024102512BNFS11      010FII BANRISULCI           R$  000000001080100000000112000000000010801000000001099600000000112000000000010995000000001118900152000000000000001295000000000014240975000000000000009999123100000010000000000000BRBNFSCTF000245
012024102512BRCO11      010FII BRESCO  CI           R$  000000001064500000000106600000000010540000000001058900000000105790000000010579000000001059503328000000000000030054000000000318258537000000000000009999123100000010000000000000BRBRCOCTF007161
012024102512BRCR11      010FII BC FUND CI           R$  000000000447100000000044960000000004302000000000443000000000044500000000004450000000000445204735000000000000045702000000000202460226000000000000009999123100000010000000000000BRBRCRCTF000271
012024102512CTXT11      010FII C TEXTILCI           R$  000000000071800000000007180000000000707000000000070700000000007070000000000710000000000071700003000000000000000018000000000000012737000000000000009999123100000010000000000000BRCTXTCTF014207
012024102512CVBI11      010FII VBI CRI CI           R$  000000000835000000000084290000000008300000000000837000000000084000000000008400000000000841204565000000000000035442000000000296679214000000000000009999123100000010000000000000BRCVBICTF001170
012024102512CXAG11      010FII CAIXA AGCI           R$  000000000728000000000074480000000007280000000000739300000000073920000000007373000000000739100116000000000000001636000000000012095106000000000000009999123100000010000000000000BRCXAGCTF003132
012024102512CXCE11      010FII CX CEDAECI           R$  000000000400900000000040440000000004005000000000401700000000040090000000004008000000000400900024000000000000000175000000000000703061000000000000009999123100000010000000000000BRCXCECTF004273
012024102512CXCI11      010FII CAIXA CICI           R$  000000000730900000000073350000000007178000000000721500000000073090000000007200000000000730900052000000000000001517000000000010945678000000000000009999123100000010000000000000BRCXCICTF005131
012024102512CXCO11      010FII CEF CORPCI           R$  000000000620200000000062840000000006201000000000623900000000062150000000006215000000000622000132000000000000001682000000000010494949000000000000009999123100000010000000000000BRCXCOCTF003142
012024102512CXRI11      010FII CX RBRAVCI           R$  000000000669600000000068800000000006695000000000686500000000068800000000006703000000000688000004000000000000000038000000000000260881000000000000009999123100000010000000000000BRCXRICTF003232
012024102512ICRI11      010FII CI IPCA CI           R$  000000000930200000000095940000000009300000000000939200000000093700000000009370000000000940900566000000000000025081000000000235576593000000000000009999123100000010000000000000BRICRICTF004108
012024102512IDGR11      010FII UNID II CI           R$  000000000030000000000003600000000000281000000000030000000000003600000000000310000000000036000016000000000000001454000000000000436280000000000000009999123100000010000000000000BRIDGRCTF006131
012024102512KNCR11      010FII KINEA RICI  ES       R$  000000001038000000000104560000000010358000000001037900000000104070000000010407000000001044520322000000000000117942000000001224149196000000000000009999123100000010000000000000BRKNCRCTF000245
012024102512KNCR12      010FII KINEA RIDIR          R$  000000000004100000000000450000000000018000000000003500000000000310000000000030000000000003313023000000000000388991000000000014001521000000000000009999123100000010000000000000BRKNCRD02M15244
012024102512KNHF11      010FII KINEA HFCI           R$  000000000876500000000088770000000008750000000000879700000000088000000000008800000000000881004664000000000000065891000000000579706330000000000000009999123100000010000000000000BRKNHFCTF004115
012024102512KNHY11      010FII KINEA HYCI           R$  000000001025000000000102800000000010219000000001024100000000102340000000010234000000001024701461000000000000031641000000000324066013000000000000009999123100000010000000000000BRKNHYCTF005176
012024102512KNIP11      010FII KINEA IPCI           R$  000000000915700000000092110000000009123000000000915800000000092100000000009210000000000921406194000000000000127788000000001170282752000000000000009999123100000010000000000000BRKNIPCTF001197
012024102512KNRE11      010FII KII REALCI           R$  000000000002500000000000270000000000025000000000002500000000000250000000000025000000000002700025000000000000002172000000000000055710000000000000009999123100000010000000000000BRKNRECTF006129
012024102512IBCR11      010FII BREI    CI           R$  000000000566500000000056650000000005601000000000563300000000056330000000005603000000000563300068000000000000000854000000000004810806000000000000009999123100000010000000000000BRIBCRCTF009141
012024102512JFLL11      010FII JFL LIV CI           R$  000000000695300000000070170000000006953000000000699900000000070080000000007001000000000700800021000000000000000194000000000001357983000000000000009999123100000010000000000000BRJFLLCTF002144
012024102512JPPA11      010FII JPPA CRICI           R$  000000000820700000000082140000000008103000000000818400000000081750000000008125000000000817500106000000000000000723000000000005917176000000000000009999123100000010000000000000BRJPPACTF005165
012024102512JSAF11      010FII JS A FINCI           R$  000000000860000000000086690000000008493000000000856000000000085390000000008520000000000853902227000000000000024442000000000209237911000000000000009999123100000010000000000000BRJSAFCTF000137
012024102512JSCR11      010FII JSCR    CI           R$  000000000944000000000094750000000009115000000000939000000000094750000000009250000000000947500013000000000000001365000000000012818622000000000000009999123100000010000000000000BRJSCRCTF001103
012024102512JSRE11      010FII JS REAL CI           R$  000000000606900000000060730000000006004000000000604100000000060500000000006050000000000606504622000000000000024275000000000146652588000000000000009999123100000010000000000000BRJSRECTF007266
012024102512KCRE11      010FII KINEA CRCI           R$  000000000088500000000009000000000000884000000000089300000000008930000000000886000000000089300434000000000000030520000000000027265607000000000000009999123100000010000000000000BRKCRECTF009129
012024102512PMIS11      010FII PMIS    CI           R$  000000000087800000000009220000000000876000000000089900000000009060000000000900000000000091203906000000000000089512000000000080521577000000000000009999123100000010000000000000BRPMISCTF006111
012024102512PORD11      010FII POLO CRICI           R$  000000000079700000000008020000000000787000000000079200000000007930000000000789000000000079303483000000000000067498000000000053470468000000000000009999123100000010000000000000BRPORDCTF005178
012024102512PQDP11      010FII D PEDRO CI           R$  000000020300100000002051810000000201202000000020278900000002030000000000203000000000020499200059000000000000000081000000000016425973000000000000009999123100000010000000000000BRPQDPCTF004275
