00COTAHIST.2024BOVESPA 20241009                                                                                                                                                                                                                      
012024100902ODPV3       010ODONTOPREV  ON  EJ  NM   R$  000000000109200000000010940000000001074000000000108100000000010740000000001074000000000108303938000000000001040100000000001125074200000000000000009999123100000010000000000000BRODPVACNOR4204
012024100902OFSA3       010OUROFINO S/AON      NM   R$  000000000203200000000020750000000002032000000000207000000000020750000000002025000000000214900008000000000000003200000000000006626200000000000000009999123100000010000000000000BROFSAACNOR7118
012024100902ONCO3       010ONCOCLINICASON      NM   R$  000000000046600000000004710000000000455000000000046000000000004550000000000455000000000045703039000000000002319300000000001068233300000000000000009999123100000010000000000000BRONCOACNOR6101
012024100902OPCT3       010OCEANPACT   ON      NM   R$  000000000069300000000006930000000000664000000000067000000000006700000000000670000000000067101588000000000000581500000000000390033500000000000000009999123100000010000000000000BROPCTACNOR0100
012024100902ORVR3       010ORIZON      ON      NM   R$  000000000460300000000046160000000004540000000000456000000000045570000000004557000000000456003428000000000000583900000000002662946200000000000000009999123100000010000000000000BRORVRACNOR0101
012024100902ALLD3       010ALLIED      ON      NM   R$  000000000076700000000007670000000000750000000000075900000000007660000000000758000000000076600165000000000000048300000000000036667400000000000000009999123100000010000000000000BRALLDACNOR3106
012024100902ALOS3       010ALLOS       ON  ED  NM   R$  000000000223300000000022420000000002180000000000220300000000022010000000002200000000000220130289000000000008931200000000019675732800000000000000009999123100000010000000000000BRALOSACNOR5102
012024100902BIOM3       010BIOMM       ON      MA   R$  000000000094500000000009450000000000907000000000091600000000009160000000000916000000000092300231000000000000041200000000000037749200000000000000009999123100000010000000000000BRBIOMACNOR2112
012024100902BRAP3       010BRADESPAR   ON      N1   R$  000000000177700000000017790000000001762000000000177000000000017690000000001769000000000177400314000000000000051900000000000091912000000000000000009999123100000010000000000000BRBRAPACNOR5148
012024100902BRAP4       010BRADESPAR   PN      N1   R$  000000000192800000000019280000000001914000000000191900000000019140000000001914000000000191606828000000000001891000000000003630172400000000000000009999123100000010000000000000BRBRAPACNPR2148
012024100902BRAV3       010BRAVA       ON      NM   R$  000000000177300000000017910000000001751000000000176900000000017750000000001772000000000177510455000000000004996400000000008843137700000000000000009999123100000010000000000000BRBRAVACNOR3100
012024100902PCAR3       010P.ACUCAR-CBDON      NM   R$  000000000029800000000003170000000000297000000000031000000000003110000000000311000000000031222025000000000022412400000000006967194600000000000000009999123100000010000000000000BRPCARACNOR3167
012024100902PFRM3       010PROFARMA    ON      NM   R$  000000000055500000000005630000000000554000000000055600000000005630000000000557000000000056300265000000000000430300000000000239435500000000000000009999123100000010000000000000BRPFRMACNOR1116
012024100902TOTS3       010TOTVS       ON      NM   R$  000000000279000000000028410000000002788000000000281000000000028200000000002820000000000282214258000000000002697700000000007581773300000000000000009999123100000010000000000000BRTOTSACNOR8145
012024100902TPIS3       010TRIUNFO PARTON      NM   R$  000000000056000000000005650000000000523000000000054400000000005400000000000539000000000054000353000000000000072300000000000039335600000000000000009999123100000010000000000000BRTPISACNOR8118
012024100902TRAD3       010TC          ON      NM   R$  000000000059000000000006460000000000572000000000061400000000006250000000000615000000000062500931000000000000409600000000000251748800000000000000009999123100000010000000000000BRTRADACNOR3102
012024100902TRIS3       010TRISUL      ON      NM   R$  000000000049000000000004910000000000481000000000048500000000004870000000000487000000000048800975000000000000336600000000000163416300000000000000009999123100000010000000000000BRTRISACNOR4118
012024100902VALE3       010VALE        ON      NM   R$  000000000606700000000061060000000006025000000000606400000000060960000000006096000000000609742897000000000022758400000000138026917900000000000000009999123100000010000000000000BRVALEACNOR0211
012024100902WEST3       010WESTWING    ON      NM   R$  000000000008000000000000810000000000079000000000007900000000000790000000000079000000000008100031000000000000026000000000000002077000000000000000009999123100000010000000000000BRWESTACNOR3100
012024100902WHRL3       010WHIRLPOOL   ON           R$  000000000042000000000004200000000000420000000000041900000000004200000000000418000000000042000005000000000000000500000000000000209800000000000000009999123100000010000000000000BRWHRLACNOR5129
012024100902WHRL4       010WHIRLPOOL   PN           R$  000000000043400000000004440000000000434000000000043700000000004400000000000434000000000044000024000000000000004500000000000001968800000000000000009999123100000010000000000000BRWHRLACNPR2129
012024100902WIZC3       010WIZ CO      ON      NM   R$  000000000060600000000006060000000000590000000000059800000000006010000000000600000000000060100930000000000000313100000000000187294000000000000000009999123100000010000000000000BRWIZCACNOR5102
012024100902AMAR3       010LOJAS MARISAON      NM   R$  000000000010400000000001040000000000101000000000010100000000001010000000000101000000000010200497000000000000235700000000000023987400000000000000009999123100000010000000000000BRAMARACNOR4115
012024100902AMBP3       010AMBIPAR     ON      NM   R$  000000001280100000000128010000000011965000000001247300000000128000000000012500000000001282000841000000000000144500000000001802441300000000000000009999123100000010000000000000BRAMBPACNOR6103
012024100902ANIM3       010ANIMA       ON      NM   R$  000000000024200000000002420000000000230000000000023300000000002310000000000230000000000023207109000000000006687500000000001564740300000000000000009999123100000010000000000000BRANIMACNOR6109
012024100902RCSL3       010RECRUSUL    ON           R$  000000000047000000000004850000000000468000000000047500000000004700000000000468000000000047001490000000000000600300000000000285589100000000000000009999123100000010000000000000BRRCSLACNOR4134
012024100902RCSL4       010RECRUSUL    PN           R$  000000000010300000000001130000000000102000000000010700000000001070000000000106000000000010704618000000000003917500000000000421953800000000000000009999123100000010000000000000BRRCSLACNPR1134
012024100902RDNI3       010RNI         ON      NM   R$  000000000030300000000003150000000000303000000000031100000000003110000000000306000000000031200011000000000000001200000000000000373300000000000000009999123100000010000000000000BRRDNIACNOR9116
012024100902RDOR3       010REDE D OR   ON      NM   R$  000000000302100000000030360000000002976000000000299800000000030060000000003001000000000300817212000000000003476900000000010426060600000000000000009999123100000010000000000000BRRDORACNOR8114
012024100902RECV3       010PETRORECSA  ON      NM   R$  000000000180400000000018080000000001763000000000178000000000017670000000001767000000000177906707000000000002125700000000003785281100000000000000009999123100000010000000000000BRRECVACNOR3107
012024100902REDE3       010REDE ENERGIAON           R$  000000000069000000000006900000000000684000000000068600000000006870000000000685000000000068800011000000000000002600000000000001786100000000000000009999123100000010000000000000BRREDEACNOR7128
012024100902RENT3       010LOCALIZA    ON      NM   R$  000000000425000000000042600000000004110000000000415100000000041480000000004145000000000414924309000000000007619100000000031633845900000000000000009999123100000010000000000000BRRENTACNOR4197
012024100902TASA3       010TAURUS ARMASON      N2   R$  000000000108000000000010800000000001051000000000107100000000010730000000001070000000000107300071000000000000012800000000000013712500000000000000009999123100000010000000000000BRTASAACNOR7104
012024100902TASA4       010TAURUS ARMASPN      N2   R$  000000000104900000000010490000000001017000000000102700000000010170000000001017000000000102201039000000000000274400000000000282030200000000000000009999123100000010000000000000BRTASAACNPR4104
012024100902TCSA3       010TECNISA     ON      NM   R$  000000000017000000000001770000000000170000000000017400000000001770000000000172000000000017700142000000000000034900000000000006094300000000000000009999123100000010000000000000BRTCSAACNOR3112
012024100902TECN3       010TECHNOS     ON      NM   R$  000000000052500000000005460000000000525000000000053600000000005420000000000535000000000054200448000000000000129600000000000069520900000000000000009999123100000010000000000000BRTECNACNOR6109
012024100902MOVI3       010MOVIDA      ON      NM   R$  000000000060000000000006070000000000587000000000059300000000005880000000000587000000000058805536000000000004293400000000002546443500000000000000009999123100000010000000000000BRMOVIACNOR0122
012024100902SCAR3       010SAO CARLOS  ON      NM   R$  000000000223500000000022350000000002218000000000222800000000022300000000002176000000000223000007000000000000001300000000000002897100000000000000009999123100000010000000000000BRSCARACNOR7131
012024100902SEER3       010SER EDUCA   ON      NM   R$  000000000060000000000006030000000000582000000000058800000000005860000000000583000000000058600748000000000000294000000000000173065900000000000000009999123100000010000000000000BRSEERACNOR5119
012024100902SEQL3       010SEQUOIA LOG ON      NM   R$  000000000044200000000004450000000000425000000000043200000000004280000000000428000000000043001119000000000000342600000000000148254000000000000000009999123100000010000000000000BRSEQLACNOR2103
012024100902SHOW3       010TIME FOR FUNON      NM   R$  000000000010000000000001020000000000097000000000009900000000000970000000000097000000000009900267000000000000118700000000000011764100000000000000009999123100000010000000000000BRSHOWACNOR7105
012024100902SHUL4       010SCHULZ      PN           R$  000000000061600000000006350000000000614000000000062500000000006230000000000621000000000062301448000000000000442800000000000277032900000000000000009999123100000010000000000000BRSHULACNPR4157
012024100902SIMH3       010SIMPAR      ON      NM   R$  000000000051200000000005150000000000500000000000050500000000005000000000000500000000000050106050000000000005171400000000002611938100000000000000009999123100000010000000000000BRSIMHACNOR0107
012024100902SLCE3       010SLC AGRICOLAON      NM   R$  000000000176400000000017760000000001746000000000176300000000017530000000001751000000000175606382000000000001766300000000003114577900000000000000009999123100000010000000000000BRSLCEACNOR2125
012024100902CPFE3       010CPFL ENERGIAON      NM   R$  000000000339100000000034090000000003288000000000337200000000032880000000003288000000000329013276000000000005312000000000017914192500000000000000009999123100000010000000000000BRCPFEACNOR0137
012024100902CPLE3       010COPEL       ON  EDJ N2   R$  000000000091100000000009140000000000906000000000091000000000009110000000000910000000000091310832000000000005322600000000004848576600000000000000009999123100000010000000000000BRCPLEACNOR8150
012024100902CPLE6       010COPEL       PNB EDJ N2   R$  000000000101500000000010200000000001005000000000101000000000010110000000001011000000000101220619000000000017418200000000017600975100000000000000009999123100000010000000000000BRCPLEACNPB9147
012024100902HBOR3       010HELBOR      ON      NM   R$  000000000018800000000001890000000000186000000000018700000000001870000000000186000000000018700265000000000000208300000000000038979100000000000000009999123100000010000000000000BRHBORACNOR3118
012024100902HBRE3       010HBR REALTY  ON      NM   R$  000000000046300000000004630000000000451000000000045300000000004530000000000452000000000045300756000000000000357500000000000162283400000000000000009999123100000010000000000000BRHBREACNOR4100
012024100902HBSA3       010HIDROVIAS   ON  ES  NM   R$  000000000033500000000003360000000000322000000000032800000000003230000000000322000000000032304209000000000004865000000000001599441900000000000000009999123100000010000000000000BRHBSAACNOR0101
012024100902HETA4       010HERCULES    PN           R$  000000000065100000000006510000000000651000000000065100000000006510000000000577000000000067600001000000000000000100000000000000065100000000000000009999123100000010000000000000BRHETAACNPR9136
012024100902PDGR3       010PDG REALT   ON      NM   R$  000000000000200000000000020000000000001000000000000100000000000010000000000001000000000000201528000000000073952800000000000105671500000000000000009999123100000010000000000000BRPDGRACNOR8119
012024100902PDTC3       010PADTEC      ON      NM   R$  000000000018500000000001890000000000183000000000018500000000001860000000000183000000000018600018000000000000010800000000000002001600000000000000009999123100000010000000000000BRPDTCACNOR3101
012024100902PETR3       010PETROBRAS   ON      N2   R$  000000000409500000000041100000000004067000000000408400000000040830000000004083000000000408616978000000000007448600000000030424581400000000000000009999123100000010000000000000BRPETRACNOR9206
012024100902PETR4       010PETROBRAS   PN      N2   R$  000000000373700000000037520000000003701000000000371700000000037220000000003721000000000372357316000000000030789800000000114470064700000000000000009999123100000010000000000000BRPETRACNPR6214
012024100902PGMN3       010PAGUE MENOS ON      NM   R$  000000000027400000000002760000000000270000000000027200000000002710000000000271000000000027400849000000000000398900000000000108843700000000000000009999123100000010000000000000BRPGMNACNOR8103
012024100902COCE5       010COELCE      PNA          R$  000000000269200000000027000000000002685000000000269900000000027000000000002665000000000270000044000000000000021500000000000058037200000000000000009999123100000010000000000000BRCOCEACNPA3147
012024100902COGN3       010COGNA ON    ON      NM   R$  000000000014000000000001400000000000132000000000013500000000001330000000000132000000000013334228000000000052963800000000007166979000000000000000009999123100000010000000000000BRCOGNACNOR2105
012024100902EALT3       010ACO ALTONA  ON           R$  000000000146000000000014600000000001460000000000146000000000014600000000001460000000000149500002000000000000000300000000000000438000000000000000009999123100000010000000000000BREALTACNOR4138
012024100902EALT4       010ACO ALTONA  PN           R$  000000000139200000000013950000000001370000000000137700000000013710000000001370000000000137900035000000000000005500000000000007576900000000000000009999123100000010000000000000BREALTACNPR1138
012024100902BMKS3       010BIC MONARK  ON           R$  000000003025100000000310000000000030251000000003089400000000305000000000030510000000003099900012000000000000000064000000000001977254000000000000009999123100000010000000000000BRBMKSACNOR9166
012024100902BMOB3       010BEMOBI TECH ON      NM   R$  000000000144000000000014420000000001407000000000141600000000014140000000001410000000000141800838000000000000156600000000000221851300000000000000009999123100000010000000000000BRBMOBACNOR7103
012024100902BNBR3       010NORD BRASIL ON           R$  000000001060000000000106000000000010400000000001046600000000104000000000010400000000001086900002000000000000000300000000000003140000000000000000009999123100000010000000000000BRBNBRACNOR8209
012024100902BOBR4       010BOMBRIL     PN           R$  000000000022900000000002340000000000227000000000023000000000002320000000000230000000000023200206000000000000059900000000000013788300000000000000009999123100000010000000000000BRBOBRACNPR3128
012024100902EKTR4       010ELEKTRO     PN  EJ       R$  000000000454300000000045430000000004530000000000453300000000045300000000004342000000000453000004000000000000000400000000000001813300000000000000009999123100000010000000000000BREKTRACNPR7165
012024100902ELET3       010ELETROBRAS  ON      N1   R$  000000000384000000000038460000000003800000000000381800000000038190000000003817000000000382023779000000000007155500000000027322783200000000000000009999123100000010000000000000BRELETACNOR6160
012024100902ELET6       010ELETROBRAS  PNB     N1   R$  000000000425600000000042740000000004212000000000423200000000042370000000004235000000000423805838000000000000950000000000004020763500000000000000009999123100000010000000000000BRELETACNPB7077
012024100902SAPR11      010SANEPAR     UNT     N2   R$  000000000283400000000028340000000002755000000000278000000000027700000000002763000000000277105119000000000000834600000000002320403800000000000000009999123100000010000000000000BRSAPRCDAM13118
012024100902SAPR3       010SANEPAR     ON      N2   R$  000000000054600000000005460000000000528000000000053200000000005280000000000528000000000053100540000000000000144600000000000077030400000000000000009999123100000010000000000000BRSAPRACNOR9159
012024100902SAPR4       010SANEPAR     PN      N2   R$  000000000057500000000005750000000000559000000000056400000000005590000000000559000000000056002457000000000000993100000000000560820300000000000000009999123100000010000000000000BRSAPRACNPR6159
012024100902SBFG3       010GRUPO SBF   ON      NM   R$  000000000148300000000014830000000001424000000000143600000000014360000000001435000000000143906453000000000001261300000000001811401700000000000000009999123100000010000000000000BRSBFGACNOR1103
012024100902SBSP3       010SABESP      ON      NM   R$  000000000897000000000090260000000008865000000000893400000000088950000000008890000000000889516902000000000003485100000000031139094300000000000000009999123100000010000000000000BRSBSPACNOR5161
012024100902AERI3       010AERIS       ON      NM   R$  000000000063800000000006450000000000617000000000062900000000006220000000000622000000000062700501000000000000155500000000000097873600000000000000009999123100000010000000000000BRAERIACNOR4102
012024100902AESB3       010AES BRASIL  ON      NM   R$  000000000117100000000011730000000001171000000000117100000000011710000000001171000000000117203407000000000004189100000000004908913400000000000000009999123100000010000000000000BRAESBACNOR7107
012024100902AFLT3       010AFLUENTE T  ON           R$  000000000070300000000007030000000000703000000000070300000000007030000000000695000000000072200001000000000000000100000000000000070300000000000000009999123100000010000000000000BRAFLTACNOR1122
012024100902AGRO3       010BRASILAGRO  ON      NM   R$  000000000250200000000025250000000002490000000000250000000000024900000000002490000000000249601435000000000000233100000000000582753200000000000000009999123100000010000000000000BRAGROACNOR7114
012024100902AHEB3       010SPTURIS     ON           R$  000000000380000000000038000000000003800000000000380000000000038000000000003250000000000385000002000000000000000500000000000001900000000000000000009999123100000010000000000000BRAHEBACNOR0106
012024100902ECOR3       010ECORODOVIAS ON      NM   R$  000000000068300000000006830000000000668000000000067300000000006730000000000670000000000067408554000000000003354200000000002260152800000000000000009999123100000010000000000000BRECORACNOR8120
012024100902EGIE3       010ENGIE BRASILON      NM   R$  000000000418000000000041820000000004100000000000413100000000041000000000004100000000000410605911000000000001231000000000005086347800000000000000009999123100000010000000000000BREGIEACNOR9127
012024100902GOAU3       010GERDAU MET  ON      N1   R$  000000000104100000000010460000000001036000000000104400000000010450000000001041000000000104800135000000000000027900000000000029132500000000000000009999123100000010000000000000BRGOAUACNOR1268
012024100902GOAU4       010GERDAU MET  PN      N1   R$  000000000107000000000010870000000001066000000000107900000000010800000000001080000000000108111136000000000005202300000000005615851700000000000000009999123100000010000000000000BRGOAUACNPR8269
012024100902MGLU3       010MAGAZ LUIZA ON      NM   R$  000000000094700000000009520000000000924000000000093400000000009240000000000923000000000092418416000000000017146700000000016019139400000000000000009999123100000010000000000000BRMGLUACNOR2125
012024100902BAHI3       010BAHEMA      ON      MA   R$  000000000059400000000006050000000000580000000000058200000000005800000000000572000000000058900021000000000000008300000000000004835100000000000000009999123100000010000000000000BRBAHIACNOR1074
012024100902BAUH4       010EXCELSIOR   PN           R$  000000000789800000000078980000000007898000000000789800000000078980000000007600000000000789900001000000000000000200000000000001579600000000000000009999123100000010000000000000BRBAUHACNPR3118
012024100902BAZA3       010AMAZONIA    ON           R$  000000000915900000000091670000000009150000000000916300000000091600000000009124000000000919400009000000000000001400000000000012828800000000000000009999123100000010000000000000BRBAZAACNOR0179
012024100902TRPL3       010TRAN PAULISTON      N1   R$  000000000310500000000031400000000003101000000000311600000000031010000000003101000000000311000024000000000000003200000000000009973700000000000000009999123100000010000000000000BRTRPLACNOR4185
012024100902TRPL4       010TRAN PAULISTPN      N1   R$  000000000240600000000024090000000002374000000000239100000000023780000000002378000000000238513854000000000003420600000000008181706300000000000000009999123100000010000000000000BRTRPLACNPR1185
012024100902TTEN3       0103TENTOS     ON      NM   R$  000000000110700000000011070000000001066000000000107500000000010780000000001076000000000107906559000000000000922000000000000992018800000000000000009999123100000010000000000000BRTTENACNOR0103
012024100902TUPY3       010TUPY        ON      NM   R$  000000000249000000000024900000000002447000000000246400000000024480000000002445000000000244801857000000000000374700000000000923480100000000000000009999123100000010000000000000BRTUPYACNOR1184
012024100902ZAMP3       010ZAMP S.A.   ON           R$  000000000025200000000002560000000000248000000000025100000000002540000000000249000000000025401011000000000000359500000000000090451500000000000000009999123100000010000000000000BRZAMPACNOR5101
012024100902BBAS3       010BRASIL      ON      NM   R$  000000000268000000000026910000000002635000000000265300000000026430000000002643000000000264446510000000000019545500000000051865359800000000000000009999123100000010000000000000BRBBASACNOR3326
012024100902BEEF3       010MINERVA     ON      NM   R$  000000000061700000000006190000000000590000000000059900000000005930000000000592000000000059314538000000000012215100000000007322682100000000000000009999123100000010000000000000BRBEEFACNOR6116
012024100902BPAC11      010BTGP BANCO  UNT     N2   R$  000000000322000000000032580000000003206000000000323100000000032420000000003229000000000324219714000000000005255200000000016982656000000000000000009999123100000010000000000000BRBPACUNT006119
012024100902BPAC3       010BTGP BANCO  ON      N2   R$  000000000157300000000015900000000001534000000000155200000000015340000000001525000000000155600039000000000000004300000000000006676300000000000000009999123100000010000000000000BRBPACACNOR7134
012024100902CMIN3       010CSNMINERACAOON  EDJ N2   R$  000000000060000000000006010000000000589000000000059200000000005900000000000589000000000059113004000000000009106300000000005398669800000000000000009999123100000010000000000000BRCMINACNOR2112
012024100902CYRE3       010CYRELA REALTON      NM   R$  000000000219000000000022440000000002142000000000217900000000021710000000002170000000000217127394000000000010844100000000023633718800000000000000009999123100000010000000000000BRCYREACNOR7140
012024100902FESA4       010FERBASA     PN      N1   R$  000000000077200000000007720000000000761000000000076600000000007650000000000764000000000076901405000000000000472100000000000361743300000000000000009999123100000010000000000000BRFESAACNPR5085
012024100902FHER3       010FER HERINGERON      NM   R$  000000000038200000000003820000000000382000000000038200000000003820000000000382000000000038700005000000000000001300000000000000496600000000000000009999123100000010000000000000BRFHERACNOR5103
012024100902FIEI3       010FICA        ON           R$  000000000098800000000010000000000000988000000000099800000000010000000000001000000000000110000002000000000000001100000000000001098800000000000000009999123100000010000000000000BRFIEIACNOR2100
012024100902FIQE3       010UNIFIQUE    ON      NM   R$  000000000038900000000003890000000000381000000000038500000000003820000000000382000000000038500536000000000000237200000000000091330300000000000000009999123100000010000000000000BRFIQEACNOR5107
012024100902FLRY3       010FLEURY      ON      NM   R$  000000000150600000000015060000000001485000000000149300000000014950000000001491000000000149510414000000000003546000000000005294544500000000000000009999123100000010000000000000BRFLRYACNOR5139
012024100902FRAS3       010FRAS-LE     ON      N1   R$  000000000211200000000021120000000002060000000000206900000000020650000000002065000000000207201541000000000000317000000000000655901300000000000000009999123100000010000000000000BRFRASACNOR0160
012024100902FRIO3       010METALFRIO   ON      NM   R$  000000000990100000000099300000000009500000000000974600000000095000000000009006000000001040000005000000000000000500000000000004873200000000000000009999123100000010000000000000BRFRIOACNOR2111
012024100902GEPA3       010GER PARANAP ON  ED       R$  000000000265000000000026500000000002650000000000265000000000026500000000002651000000000284000001000000000000000100000000000000265000000000000000009999123100000010000000000000BRGEPAACNOR2154
012024100902GEPA4       010GER PARANAP PN  ED       R$  000000000283200000000029000000000002832000000000285400000000029000000000002775000000000289900003000000000000000300000000000000856400000000000000009999123100000010000000000000BRGEPAACNPR9161
012024100902GFSA3       010GAFISA      ON      NM   R$  000000000020000000000002000000000000189000000000019300000000001910000000000190000000000019102265000000000004011500000000000776410200000000000000009999123100000010000000000000BRGFSAACNOR3125
012024100902GGBR3       010GERDAU      ON      N1   R$  000000000168200000000016970000000001664000000000168600000000016800000000001674000000000168300178000000000000022800000000000038450800000000000000009999123100000010000000000000BRGGBRACNOR1193
012024100902GGBR4       010GERDAU      PN      N1   R$  000000000189400000000019300000000001886000000000191500000000019110000000001911000000000191324329000000000009197600000000017613625200000000000000009999123100000010000000000000BRGGBRACNPR8193
012024100902ITSA3       010ITAUSA      ON      N1   R$  000000000106300000000010630000000001046000000000105300000000010460000000001046000000000105000578000000000000118200000000000124481300000000000000009999123100000010000000000000BRITSAACNOR0443
012024100902ITSA4       010ITAUSA      PN      N1   R$  000000000106100000000010620000000001044000000000105100000000010470000000001047000000000104831605000000000023495900000000024701140000000000000000009999123100000010000000000000BRITSAACNPR7443
012024100902LUPA3       010LUPATECH    ON      NM   R$  000000000014300000000001440000000000140000000000014100000000001410000000000141000000000014200146000000000000132500000000000018729900000000000000009999123100000010000000000000BRLUPAACNOR8112
012024100902LVTC3       010WDC NETWORKSON      NM   R$  000000000038400000000003840000000000375000000000037700000000003750000000000374000000000037500035000000000000014300000000000005393900000000000000009999123100000010000000000000BRLVTCACNOR4102
012024100902LWSA3       010LWSA        ON      NM   R$  000000000042400000000004250000000000414000000000041800000000004150000000000414000000000041606873000000000003402900000000001423290400000000000000009999123100000010000000000000BRLWSAACNOR8103
012024100902YDUQ3       010YDUQS PART  ON      NM   R$  000000000105200000000010590000000000994000000000101900000000010000000000001000000000000100310909000000000005492100000000005596616000000000000000009999123100000010000000000000BRYDUQACNOR3105
012024100902MTRE3       010MITRE REALTYON      NM   R$  000000000037900000000003800000000000367000000000037200000000003670000000000367000000000036800665000000000000477000000000000177737500000000000000009999123100000010000000000000BRMTREACNOR6115
012024100902MTSA4       010METISA      PN           R$  000000000374900000000037490000000003646000000000370800000000037440000000003640000000000375000021000000000000003100000000000011497100000000000000009999123100000010000000000000BRMTSAACNPR9073
012024100902MULT3       010MULTIPLAN   ON      N2   R$  000000000255400000000025560000000002522000000000253900000000025440000000002538000000000254814912000000000004700900000000011939387600000000000000009999123100000010000000000000BRMULTACNOR5139
012024100902WLMM4       010WLM IND COM PN           R$  000000000320000000000033540000000003104000000000320700000000032500000000003240000000000335000015000000000000002300000000000007377800000000000000009999123100000010000000000000BRWLMMACNPR3119
012024100902MWET4       010WETZEL S/A  PN           R$  000000000080500000000008570000000000805000000000083100000000008570000000000822000000000091500002000000000000000200000000000000166200000000000000009999123100000010000000000000BRMWETACNPR3118
012024100902MYPK3       010IOCHP-MAXIONON  EJ  NM   R$  000000000101500000000010350000000001006000000000101900000000010100000000001010000000000101205541000000000001187000000000001210216300000000000000009999123100000010000000000000BRMYPKACNOR7156
012024100902AVLL3       010ALPHAVILLE  ON      NM   R$  000000000031400000000003140000000000314000000000031400000000003140000000000307000000000031700005000000000000020000000000000006280000000000000000009999123100000010000000000000BRAVLLACNOR5103
012024100902AZEV3       010AZEVEDO     ON           R$  000000000012900000000001310000000000128000000000012900000000001300000000000129000000000013000468000000000000377800000000000048966600000000000000009999123100000010000000000000BRAZEVACNOR0121
012024100902AZEV4       010AZEVEDO     PN           R$  000000000012700000000001280000000000125000000000012600000000001270000000000126000000000012701040000000000001291500000000000163093300000000000000009999123100000010000000000000BRAZEVACNPR7121
012024100902AZUL4       010AZUL        PN      N2   R$  000000000062000000000006500000000000611000000000062500000000006180000000000617000000000061818646000000000029340700000000018361384700000000000000009999123100000010000000000000BRAZULACNPR4103
012024100902BRIT3       010BRISANET    ON      NM   R$  000000000031000000000003150000000000309000000000031100000000003110000000000309000000000031100384000000000000333200000000000103807400000000000000009999123100000010000000000000BRBRITACNOR0103
012024100902KLBN11      010KLABIN S/A  UNT     N2   R$  000000000212000000000021300000000002088000000000210200000000020980000000002094000000000210119049000000000005839300000000012279369600000000000000009999123100000010000000000000BRKLBNCDAM18143
012024100902KLBN3       010KLABIN S/A  ON      N2   R$  000000000042700000000004270000000000419000000000042200000000004200000000000420000000000042200450000000000000215800000000000091169000000000000000009999123100000010000000000000BRKLBNACNOR2171
012024100902KLBN4       010KLABIN S/A  PN      N2   R$  000000000042400000000004250000000000417000000000042000000000004190000000000418000000000041901417000000000001085200000000000456290800000000000000009999123100000010000000000000BRKLBNACNPR9171
012024100902ARML3       010ARMAC       ON  EJ  NM   R$  000000000081000000000008160000000000788000000000079100000000007880000000000788000000000079401750000000000000637600000000000504827600000000000000009999123100000010000000000000BRARMLACNOR1113
012024100902ASAI3       010ASSAI       ON      NM   R$  000000000067800000000006780000000000650000000000066100000000006500000000000649000000000065227726000000000021063300000000013934565100000000000000009999123100000010000000000000BRASAIACNOR0106
012024100902BRKM3       010BRASKEM     ON      N1   R$  000000000193700000000019370000000001858000000000186700000000018600000000001858000000000186000078000000000000009900000000000018491200000000000000009999123100000010000000000000BRBRKMACNOR1119
012024100902BRKM5       010BRASKEM     PNA     N1   R$  000000000193200000000019370000000001867000000000189400000000018670000000001867000000000187009336000000000002867300000000005431786700000000000000009999123100000010000000000000BRBRKMACNPA4121
012024100902ENEV3       010ENEVA       ON      NM   R$  000000000139800000000014030000000001383000000000139200000000013880000000001386000000000138819552000000000008729400000000012153629000000000000000009999123100000010000000000000BRENEVACNOR8106
012024100902ENGI11      010ENERGISA    UNT     N2   R$  000000000436600000000043830000000004317000000000434400000000043480000000004337000000000435216388000000000003305600000000014361607200000000000000009999123100000010000000000000BRENGICDAM16136
012024100902ENGI3       010ENERGISA    ON      N2   R$  000000000131400000000013210000000001307000000000131100000000013110000000001310000000000133700026000000000000003300000000000004329100000000000000009999123100000010000000000000BRENGIACNOR0146
012024100902ENGI4       010ENERGISA    PN      N2   R$  000000000076400000000007640000000000755000000000075900000000007560000000000757000000000076200053000000000000009500000000000007212500000000000000009999123100000010000000000000BRENGIACNPR7142
012024100902JHSF3       010JHSF PART   ON  ED  NM   R$  000000000045100000000004510000000000440000000000044400000000004400000000000440000000000044304160000000000002297500000000001021126700000000000000009999123100000010000000000000BRJHSFACNOR2140
012024100902JSLG3       010JSL         ON      NM   R$  000000000073100000000007380000000000723000000000072900000000007330000000000733000000000073401766000000000000463300000000000338154700000000000000009999123100000010000000000000BRJSLGACNOR2121
012024100902KEPL3       010KEPLER WEBERON      NM   R$  000000000096700000000009680000000000941000000000094800000000009420000000000942000000000094702934000000000000846200000000000802938500000000000000009999123100000010000000000000BRKEPLACNOR1064
012024100902GRND3       010GRENDENE    ON      NM   R$  000000000055800000000005580000000000549000000000055100000000005490000000000549000000000055201826000000000000871900000000000481093900000000000000009999123100000010000000000000BRGRNDACNOR3175
012024100902GUAR3       010GUARARAPES  ON      NM   R$  000000000076200000000007690000000000754000000000076200000000007670000000000764000000000076702315000000000000594700000000000453300300000000000000009999123100000010000000000000BRGUARACNOR4173
012024100902HAGA3       010HAGA S/A    ON           R$  000000000024200000000002580000000000242000000000024900000000002520000000000245000000000025200032000000000000006400000000000001596400000000000000009999123100000010000000000000BRHAGAACNOR7103
012024100902HAGA4       010HAGA S/A    PN           R$  000000000011600000000001170000000000115000000000011500000000001170000000000116000000000011700014000000000000003400000000000000392000000000000000009999123100000010000000000000BRHAGAACNPR4103
012024100902HAPV3       010HAPVIDA     ON  ATZ NM   R$  000000000039100000000003960000000000386000000000039100000000003890000000000389000000000039065790000000000086147700000000033722558500000000000000009999123100000010000000000000BRHAPVACNOR4115
012024100902TELB3       010TELEBRAS    ON           R$  000000000149000000000014900000000001480000000000148500000000014800000000001415000000000148000002000000000000000200000000000000297000000000000000009999123100000010000000000000BRTELBACNOR2140
012024100902TELB4       010TELEBRAS    PN           R$  000000000094000000000009400000000000928000000000093000000000009280000000000928000000000093900008000000000000001700000000000001581600000000000000009999123100000010000000000000BRTELBACNPR9140
012024100902TEND3       010TENDA       ON      NM   R$  000000000138000000000014070000000001353000000000137800000000013660000000001362000000000136809871000000000004376100000000006034076800000000000000009999123100000010000000000000BRTENDACNOR4111
012024100902TFCO4       010TRACK FIELD PN      N2   R$  000000000103700000000010460000000001025000000000103500000000010330000000001032000000000103801018000000000000260900000000000270285600000000000000009999123100000010000000000000BRTFCOACNPR8115
012024100902TGMA3       010TEGMA       ON      NM   R$  000000000257000000000025780000000002520000000000254900000000025570000000002540000000000255700901000000000000182200000000000464491100000000000000009999123100000010000000000000BRTGMAACNOR7145
012024100902TIMS3       010TIM         ON      NM   R$  000000000173100000000017470000000001728000000000173700000000017300000000001729000000000173017306000000000006216100000000010798752100000000000000009999123100000010000000000000BRTIMSACNOR5118
012024100902ATOM3       010ATOMPAR     ON           R$  000000000027400000000002750000000000260000000000026200000000002650000000000260000000000026500045000000000000018600000000000004887100000000000000009999123100000010000000000000BRATOMACNOR1106
012024100902AURE3       010AUREN       ON      NM   R$  000000000102500000000010250000000001004000000000101000000000010090000000001009000000000101008990000000000005855700000000005914786400000000000000009999123100000010000000000000BRAUREACNOR9104
012024100902BBDC3       010BRADESCO    ON  EJ  N1   R$  000000000133200000000013350000000001299000000000131000000000013060000000001306000000000130811026000000000008053100000000010554183600000000000000009999123100000010000000000000BRBBDCACNOR1776
012024100902BBDC4       010BRADESCO    PN  EJ  N1   R$  000000000151200000000015200000000001483000000000149500000000014920000000001491000000000149238164000000000031287500000000046775500500000000000000009999123100000010000000000000BRBBDCACNPR8776
012024100902BRBI11      010BR PARTNERS UNT     N2   R$  000000000152900000000015330000000001502000000000150900000000015040000000001503000000000151601543000000000000228900000000000345458400000000000000009999123100000010000000000000BRBRBICDAM10110
012024100902BRFS3       010BRF SA      ON      NM   R$  000000000230100000000023040000000002243000000000226200000000022620000000002262000000000227014866000000000005066500000000011463794900000000000000009999123100000010000000000000BRBRFSACNOR8122
012024100902BSLI3       010BRB BANCO   ON           R$  000000000096200000000009620000000000962000000000096200000000009620000000000962000000000099900001000000000000000200000000000000192400000000000000009999123100000010000000000000BRBSLIACNOR5194
012024100902CRFB3       010CARREFOUR BRON      NM   R$  000000000079000000000008040000000000768000000000078200000000007740000000000774000000000077518136000000000010411000000000008145289500000000000000009999123100000010000000000000BRCRFBACNOR2116
012024100902CRPG5       010CRISTAL     PNA          R$  000000000257900000000025790000000002520000000000255500000000025250000000002525000000000254900014000000000000002900000000000007409500000000000000009999123100000010000000000000BRCRPGACNPA3119
012024100902CRPG6       010CRISTAL     PNB          R$  000000000256000000000025600000000002560000000000256000000000025600000000002523000000000259900002000000000000000800000000000002048000000000000000009999123100000010000000000000BRCRPGACNPB1119
012024100902CSAN3       010COSAN       ON      NM   R$  000000000127100000000012760000000001235000000000125000000000012440000000001244000000000124527289000000000012893500000000016120560400000000000000009999123100000010000000000000BRCSANACNOR6126
012024100902ELMD3       010ELETROMIDIA ON      NM   R$  000000000168200000000017130000000001655000000000169800000000017130000000001701000000000171300398000000000000121200000000000205854500000000000000009999123100000010000000000000BRELMDACNOR3101
012024100902EMAE4       010EMAE        PN           R$  000000000397000000000039700000000003904000000000391800000000039040000000003904000000000398000015000000000000001900000000000007445800000000000000009999123100000010000000000000BREMAEACNPR1126
012024100902EMBR3       010EMBRAER     ON      NM   R$  000000000458000000000046640000000004572000000000462100000000045980000000004598000000000460017799000000000004475600000000020682531300000000000000009999123100000010000000000000BREMBRACNOR4191
012024100902HYPE3       010HYPERA      ON      NM   R$  000000000272800000000027400000000002678000000000270700000000026880000000002685000000000268820101000000000004360100000000011803349600000000000000009999123100000010000000000000BRHYPEACNOR0144
012024100902CAMB3       010CAMBUCI     ON           R$  000000000122300000000012310000000001221000000000122500000000012310000000001220000000000123300061000000000000014800000000000018139600000000000000009999123100000010000000000000BRCAMBACNOR4131
012024100902CAML3       010CAMIL       ON      NM   R$  000000000085300000000008530000000000837000000000084400000000008390000000000839000000000084601736000000000000343500000000000290029100000000000000009999123100000010000000000000BRCAMLACNOR3129
012024100902CSED3       010CRUZEIRO EDUON      NM   R$  000000000032400000000003330000000000313000000000031700000000003130000000000313000000000031401031000000000000371900000000000118167300000000000000009999123100000010000000000000BRCSEDACNOR9105
012024100902CSMG3       010COPASA      ON      NM   R$  000000000227500000000022770000000002226000000000224000000000022300000000002230000000000223404685000000000001079600000000002418414800000000000000009999123100000010000000000000BRCSMGACNOR5175
012024100902BLAU3       010BLAU        ON      NM   R$  000000000129700000000013290000000001290000000000130500000000013050000000001298000000000130601608000000000000302800000000000395328300000000000000009999123100000010000000000000BRBLAUACNOR8115
012024100902BMEB4       010MERCANTIL   PN      N1   R$  000000000391500000000039150000000003827000000000388600000000038980000000003865000000000389900204000000000000023700000000000092115600000000000000009999123100000010000000000000BRBMEBACNPR5211
012024100902BMGB4       010BANCO BMG   PN      N1   R$  000000000041100000000004140000000000404000000000040900000000004060000000000406000000000040801619000000000000521100000000000213417200000000000000009999123100000010000000000000BRBMGBACNPR0110
012024100902CSNA3       010SID NACIONALON           R$  000000000121000000000012270000000001206000000000121700000000012140000000001213000000000121513255000000000005982900000000007285291300000000000000009999123100000010000000000000BRCSNAACNOR6261
012024100902ENJU3       010ENJOEI      ON      NM   R$  000000000012500000000001260000000000121000000000012300000000001220000000000121000000000012200343000000000000770500000000000095071700000000000000009999123100000010000000000000BRENJUACNOR9100
012024100902ENMT4       010ENERGISA MT PN           R$  000000000820100000000082010000000008100000000000813300000000081000000000007437000000000849500003000000000000000300000000000002440100000000000000009999123100000010000000000000BRENMTACNPR2126
012024100902EPAR3       010EMBPAR S/A  ON           R$  000000000057100000000005710000000000550000000000055400000000005510000000000551000000000055500023000000000000005500000000000003049300000000000000009999123100000010000000000000BREPARACNOR9105
012024100902EQPA3       010EQTL PARA   ON           R$  000000000060800000000006090000000000598000000000060500000000006000000000000602000000000060700026000000000000005100000000000003085700000000000000009999123100000010000000000000BREQPAACNOR1111
012024100902EQTL3       010EQUATORIAL  ON      NM   R$  000000000325300000000032600000000003217000000000323700000000032450000000003239000000000324631595000000000008338100000000026995341400000000000000009999123100000010000000000000BREQTLACNOR0131
012024100902IFCM3       010INFRACOMM   ON      NM   R$  000000000001700000000000180000000000016000000000001600000000000160000000000016000000000001701805000000000006464400000000000107886000000000000000009999123100000010000000000000BRIFCMACNOR8101
012024100902IGTI11      010IGUATEMI S.AUNT     N1   R$  000000000213700000000021490000000002096000000000211200000000021100000000002108000000000211011676000000000002906800000000006139649400000000000000009999123100000010000000000000BRIGTICDAM16106
012024100902IGTI3       010IGUATEMI S.AON      N1   R$  000000000026300000000002630000000000257000000000025900000000002580000000000257000000000025800051000000000000034300000000000008884700000000000000009999123100000010000000000000BRIGTIACNOR8106
012024100902IGTI4       010IGUATEMI S.APN      N1   R$  000000000093000000000009300000000000930000000000093000000000009300000000000851000000000100000001000000000000000100000000000000093000000000000000009999123100000010000000000000BRIGTIACNPR5106
012024100902INEP3       010INEPAR      ON           R$  000000000018300000000001850000000000180000000000018000000000001800000000000180000000000018500039000000000000031700000000000005737600000000000000009999123100000010000000000000BRINEPACNOR1143
012024100902INEP4       010INEPAR      PN           R$  000000000018100000000001830000000000178000000000017900000000001800000000000180000000000018100050000000000000017900000000000003211100000000000000009999123100000010000000000000BRINEPACNPR8143
012024100902INTB3       010INTELBRAS   ON      NM   R$  000000000207500000000020890000000002025000000000204400000000020530000000002045000000000205303542000000000000565200000000001155565900000000000000009999123100000010000000000000BRINTBACNOR9112
012024100902IRBR3       010IRBBRASIL REON      NM   R$  000000000439900000000044170000000004290000000000433300000000042940000000004292000000000429403958000000000000708400000000003069812600000000000000009999123100000010000000000000BRIRBRACNOR4111
012024100902KRSA3       010KORA SAUDE  ON      NM   R$  000000000004900000000000500000000000048000000000004800000000000490000000000048000000000004900048000000000000095400000000000004603800000000000000009999123100000010000000000000BRKRSAACNOR0100
012024100902LAND3       010TERRASANTAPAON      NM   R$  000000000133300000000013330000000001271000000000130300000000013000000000001290000000000130000147000000000000018800000000000024499200000000000000009999123100000010000000000000BRLANDACNOR9103
012024100902LAVV3       010LAVVI       ON      NM   R$  000000000081400000000008160000000000804000000000080700000000008060000000000806000000000080901373000000000000922200000000000744461800000000000000009999123100000010000000000000BRLAVVACNOR4113
012024100902LEVE3       010METAL LEVE  ON      NM   R$  000000000303500000000030390000000003018000000000302800000000030250000000003025000000000302901351000000000000220000000000000666284500000000000000009999123100000010000000000000BRLEVEACNOR2197
012024100902LJQQ3       010QUERO-QUERO ON      NM   R$  000000000029900000000003010000000000286000000000029200000000002860000000000286000000000028713573000000000006255700000000001827602300000000000000009999123100000010000000000000BRLJQQACNOR5104
012024100902TAEE3       010TAESA       ON      N2   R$  000000000115200000000011520000000001140000000000114300000000011450000000001144000000000114500416000000000000069100000000000079021700000000000000009999123100000010000000000000BRTAEEACNOR9148
012024100902TAEE4       010TAESA       PN      N2   R$  000000000115600000000011560000000001147000000000115000000000011500000000001150000000000115100546000000000000105600000000000121447500000000000000009999123100000010000000000000BRTAEEACNPR6148
012024100902USIM3       010USIMINAS    ON      N1   R$  000000000060000000000006320000000000599000000000061700000000006120000000000611000000000061201122000000000000654400000000000403917700000000000000009999123100000010000000000000BRUSIMACNOR3167
012024100902USIM5       010USIMINAS    PNA     N1   R$  000000000062000000000006490000000000617000000000063500000000006290000000000629000000000063031487000000000030687900000000019488672900000000000000009999123100000010000000000000BRUSIMACNPA6169
012024100902VLID3       010VALID       ON      NM   R$  000000000221500000000022620000000002206000000000224400000000022590000000002242000000000225901368000000000000232800000000000522635700000000000000009999123100000010000000000000BRVLIDACNOR5144
012024100902PINE3       010PINE        ON      N2   R$  000000000053400000000005340000000000495000000000050600000000005090000000000497000000000050900056000000000000024600000000000012467100000000000000009999123100000010000000000000BRPINEACNOR1150
012024100902PINE4       010PINE        PN      N2   R$  000000000052200000000005220000000000508000000000051300000000005180000000000516000000000051800641000000000000304100000000000156025000000000000000009999123100000010000000000000BRPINEACNPR8150
012024100902PLAS3       010PLASCAR PARTON           R$  000000000060800000000006200000000000600000000000060700000000006000000000000595000000000064000010000000000000002400000000000001457700000000000000009999123100000010000000000000BRPLASACNOR2106
012024100902PLPL3       010PLANOEPLANO ON      NM   R$  000000000131200000000013200000000001284000000000129900000000012840000000001282000000000128401124000000000000277900000000000361114300000000000000009999123100000010000000000000BRPLPLACNOR5104
012024100902PNVL3       010DIMED       ON  EJ  NM   R$  000000000104600000000010460000000001019000000000102400000000010270000000001027000000000103401832000000000000335800000000000344153900000000000000009999123100000010000000000000BRPNVLACNOR9208
012024100902POMO3       010MARCOPOLO   ON      N2   R$  000000000061000000000006120000000000604000000000060700000000006080000000000607000000000060900496000000000000342300000000000207823600000000000000009999123100000010000000000000BRPOMOACNOR0099
012024100902POMO4       010MARCOPOLO   PN      N2   R$  000000000081400000000008140000000000792000000000079800000000008020000000000799000000000080209436000000000006348500000000005070822700000000000000009999123100000010000000000000BRPOMOACNPR7099
012024100902PORT3       010WILSON SONS ON      NM   R$  000000000164000000000016450000000001599000000000161200000000016100000000001610000000000161603316000000000001053500000000001698478300000000000000009999123100000010000000000000BRPORTACNOR8109
012024100902MDNE3       010MOURA DUBEUXON      NM   R$  000000000157400000000016020000000001546000000000157900000000015850000000001584000000000159402471000000000000450800000000000712075200000000000000009999123100000010000000000000BRMDNEACNOR9100
012024100902MEAL3       010IMC S/A     ON      NM   R$  000000000013600000000001410000000000133000000000013600000000001360000000000136000000000013700226000000000000450200000000000061490400000000000000009999123100000010000000000000BRMEALACNOR9105
012024100902MELK3       010MELNICK     ON      NM   R$  000000000036200000000003640000000000352000000000035600000000003550000000000355000000000035700558000000000000449700000000000160395000000000000000009999123100000010000000000000BRMELKACNOR8111
012024100902NGRD3       010NEOGRID     ON  EBG NM   R$  000000000309200000000033950000000002963000000000313600000000031300000000003130000000000316000757000000000000124600000000000390863400000000000000009999123100000010000000000000BRNGRDACNOR3106
012024100902POSI3       010POSITIVO TECON      NM   R$  000000000060700000000006070000000000587000000000059300000000005880000000000587000000000058802114000000000001090700000000000646871000000000000000009999123100000010000000000000BRPOSIACNOR9116
012024100902PRIO3       010PETRORIO    ON      NM   R$  000000000442100000000044320000000004355000000000439000000000043700000000004370000000000438025477000000000007041100000000030912710000000000000000009999123100000010000000000000BRPRIOACNOR1107
012024100902NEOE3       010NEOENERGIA  ON      NM   R$  000000000190200000000019030000000001873000000000188500000000018950000000001881000000000189703413000000000005325800000000010043429800000000000000009999123100000010000000000000BRNEOEACNOR3123
012024100902RAIZ4       010RAIZEN      PN      N2   R$  000000000030100000000003020000000000296000000000029800000000002980000000000297000000000029815697000000000011235800000000003349886800000000000000009999123100000010000000000000BRRAIZACNPR6111
012024100902RANI3       010IRANI       ON      NM   R$  000000000076400000000007670000000000748000000000075800000000007500000000000750000000000075603209000000000001446100000000001096501300000000000000009999123100000010000000000000BRRANIACNOR5073
012024100902SYNE3       010SYN PROP TECON      NM   R$  000000000078000000000007800000000000765000000000076800000000007720000000000769000000000077201050000000000000290800000000000223441300000000000000009999123100000010000000000000BRSYNEACNOR2103
012024100902ROMI3       010ROMI        ON      NM   R$  000000000109900000000010990000000001084000000000108800000000010870000000001086000000000108700641000000000000137200000000000149407500000000000000009999123100000010000000000000BRROMIACNOR8196
012024100902RSUL4       010RIOSULENSE  PN           R$  000000000618000000000062000000000006180000000000618600000000062000000000006101000000000619500002000000000000000300000000000001856000000000000000009999123100000010000000000000BRRSULACNPR3114
012024100902TAEE11      010TAESA       UNT     N2   R$  000000000344500000000034540000000003419000000000343300000000034190000000003418000000000343109138000000000001529400000000005250848700000000000000009999123100000010000000000000BRTAEECDAM10148
012024100902SANB11      010SANTANDER BRUNT          R$  000000000286100000000028740000000002838000000000285000000000028410000000002838000000000284910442000000000001883900000000005369969600000000000000009999123100000010000000000000BRSANBCDAM13165
012024100902SANB3       010SANTANDER BRON           R$  000000000137000000000013700000000001351000000000135800000000013510000000001351000000000136000235000000000000036900000000000050145800000000000000009999123100000010000000000000BRSANBACNOR8172
012024100902SANB4       010SANTANDER BRPN           R$  000000000149300000000015030000000001483000000000149100000000015000000000001486000000000150100234000000000000038200000000000056985100000000000000009999123100000010000000000000BRSANBACNPR5172
012024100902UCAS3       010UNICASA     ON      NM   R$  000000000021800000000002200000000000216000000000021700000000002160000000000216000000000021700061000000000000013800000000000003006700000000000000009999123100000010000000000000BRUCASACNOR1113
012024100902UGPA3       010ULTRAPAR    ON      NM   R$  000000000208000000000020850000000002046000000000206100000000020690000000002066000000000206918675000000000004018100000000008281773200000000000000009999123100000010000000000000BRUGPAACNOR8156
012024100902UNIP3       010UNIPAR      ON           R$  000000000454500000000045920000000004545000000000456600000000045680000000004550000000000458800042000000000000006000000000000027401300000000000000009999123100000010000000000000BRUNIPACNOR7206
012024100902UNIP5       010UNIPAR      PNA          R$  000000000480000000000048000000000004800000000000480000000000048000000000004700000000000480000001000000000000000100000000000000480000000000000000009999123100000010000000000000BRUNIPACNPA0208
012024100902UNIP6       010UNIPAR      PNB          R$  000000000462700000000046270000000004580000000000459500000000045840000000004584000000000459500570000000000000083600000000000384175300000000000000009999123100000010000000000000BRUNIPACNPB8206
012024100902AALR3       010ALLIAR      ON      NM   R$  000000000148000000000015250000000001461000000000149100000000014700000000001465000000000151000241000000000000027000000000000040266900000000000000009999123100000010000000000000BRAALRACNOR6102
012024100902DASA3       010DASA        ON      NM   R$  000000000031300000000003130000000000300000000000030600000000003020000000000302000000000030301675000000000000615700000000000188520300000000000000009999123100000010000000000000BRDASAACNOR1123
012024100902DESK3       010DESKTOP     ON      NM   R$  000000000141200000000014140000000001380000000000139000000000013820000000001382000000000138500607000000000000113600000000000157915700000000000000009999123100000010000000000000BRDESKACNOR2104
012024100902DEXP3       010DEXXOS PAR  ON      N1   R$  000000000087500000000008770000000000865000000000086900000000008680000000000868000000000087500288000000000000050000000000000043480100000000000000009999123100000010000000000000BRDEXPACNOR1105
012024100902BGIP4       010BANESE      PN           R$  000000000245100000000024510000000002400000000000240900000000024010000000002301000000000247900004000000000000000600000000000001445500000000000000009999123100000010000000000000BRBGIPACNPR8210
012024100902ABCB4       010ABC BRASIL  PN      N2   R$  000000000212000000000021240000000002066000000000208800000000020700000000002069000000000207003266000000000000626900000000001309527300000000000000009999123100000010000000000000BRABCBACNPR4146
012024100902ABEV3       010AMBEV S/A   ON           R$  000000000129500000000013150000000001295000000000130400000000013080000000001308000000000130929670000000000028383000000000037017912700000000000000009999123100000010000000000000BRABEVACNOR1128
012024100902BEES3       010BANESTES    ON  EJ       R$  000000000089000000000008930000000000885000000000088900000000008860000000000885000000000089000058000000000000010600000000000009424500000000000000009999123100000010000000000000BRBEESACNOR9396
012024100902BEES4       010BANESTES    PN  EJ       R$  000000000093000000000009440000000000920000000000092800000000009210000000000920000000000093300034000000000000004800000000000004458000000000000000009999123100000010000000000000BRBEESACNPR6321
012024100902DXCO3       010DEXCO       ON      NM   R$  000000000082600000000008260000000000798000000000080400000000008040000000000798000000000080407130000000000002579000000000002074729300000000000000009999123100000010000000000000BRDXCOACNOR8105
012024100902GGPS3       010GPS         ON      NM   R$  000000000182200000000018380000000001807000000000181200000000018080000000001807000000000181207193000000000001377200000000002496518300000000000000009999123100000010000000000000BRGGPSACNOR9103
012024100902GMAT3       010GRUPO MATEUSON      NM   R$  000000000073800000000007380000000000722000000000072600000000007240000000000724000000000072605670000000000001860900000000001352610700000000000000009999123100000010000000000000BRGMATACNOR7103
012024100902ITUB3       010ITAUUNIBANCOON  EJ  N1   R$  000000000306500000000030650000000003020000000000302900000000030240000000003024000000000304001361000000000000382300000000001158291600000000000000009999123100000010000000000000BRITUBACNOR4342
012024100902ITUB4       010ITAUUNIBANCOPN  EJ  N1   R$  000000000351100000000035200000000003463000000000348500000000034700000000003470000000000347535673000000000020924100000000072926841300000000000000009999123100000010000000000000BRITUBACNPR1342
012024100902BHIA3       010CASAS BAHIA ON      NM   R$  000000000043500000000004390000000000422000000000042800000000004240000000000423000000000042504278000000000003620100000000001552447900000000000000009999123100000010000000000000BRBHIAACNOR1102
012024100902BPAC5       010BTGP BANCO  PNA     N2   R$  000000000083200000000008440000000000830000000000083200000000008370000000000837000000000084100038000000000000006200000000000005162700000000000000009999123100000010000000000000BRBPACACNPA0134
012024100902BPAN4       010BANCO PAN   PN      N1   R$  000000000097600000000009760000000000946000000000095400000000009460000000000946000000000094703187000000000001128100000000001076812100000000000000009999123100000010000000000000BRBPANACNPR1115
012024100902NINJ3       010GETNINJAS   ON      NM   R$  000000000046700000000004730000000000467000000000046900000000004720000000000469000000000047200021000000000000003500000000000001643200000000000000009999123100000010000000000000BRNINJACNOR5101
012024100902NORD3       010NORDON MET  ON           R$  000000000082100000000008210000000000821000000000082100000000008210000000000821000000000093300002000000000000000200000000000000164200000000000000009999123100000010000000000000BRNORDACNOR7135
012024100902NTCO3       010GRUPO NATURAON      NM   R$  000000000156300000000015690000000001524000000000154300000000015460000000001545000000000154617825000000000006703800000000010344127900000000000000009999123100000010000000000000BRNTCOACNOR5106
012024100902PETZ3       010PETZ        ON      NM   R$  000000000048100000000004840000000000472000000000047600000000004720000000000472000000000047307469000000000005965300000000002842464700000000000000009999123100000010000000000000BRPETZACNOR2110
012024100902RAPT3       010RANDON PART ON      N1   R$  000000000087900000000008810000000000870000000000087300000000008750000000000875000000000087700105000000000000021600000000000018866100000000000000009999123100000010000000000000BRRAPTACNOR7163
012024100902RAPT4       010RANDON PART PN      N1   R$  000000000106000000000010600000000001041000000000104600000000010480000000001046000000000104808511000000000002033300000000002127614600000000000000009999123100000010000000000000BRRAPTACNPR4163
012024100902DEXP4       010DEXXOS PAR  PN      N1   R$  000000000089200000000008920000000000880000000000089000000000008800000000000867000000000089200003000000000000000600000000000000534000000000000000009999123100000010000000000000BRDEXPACNPR8105
012024100902DIRR3       010DIRECIONAL  ON      NM   R$  000000000303900000000030390000000002961000000000298200000000029960000000002996000000000299705535000000000001160700000000003462009700000000000000009999123100000010000000000000BRDIRRACNOR0119
012024100902DMVF3       010D1000VFARMA ON      NM   R$  000000000062500000000006440000000000610000000000063500000000006400000000000636000000000064200325000000000000502900000000000319669500000000000000009999123100000010000000000000BRDMVFACNOR9100
012024100902DOHL4       010DOHLER      PN           R$  000000000041600000000004170000000000393000000000040400000000004150000000000405000000000041400013000000000000004300000000000001739100000000000000009999123100000010000000000000BRDOHLACNPR9066
012024100902DOTZ3       010DOTZ SA     ON      NM   R$  000000000058000000000006970000000000577000000000062100000000006380000000000638000000000063900373000000000000117300000000000072861900000000000000009999123100000010000000000000BRDOTZACNOR7101
012024100902DTCY3       010DTCOM-DIRECTON           R$  000000000044500000000004450000000000445000000000044500000000004450000000000400000000000044600001000000000000000100000000000000044500000000000000009999123100000010000000000000BRDTCYACNOR5109
012024100902MATD3       010MATER DEI   ON      NM   R$  000000000045900000000004590000000000436000000000044400000000004360000000000436000000000043801384000000000000277600000000000123403200000000000000009999123100000010000000000000BRMATDACNOR4104
012024100902MBLY3       010MOBLY       ON      NM   R$  000000000023100000000002320000000000217000000000022100000000002200000000000220000000000022100301000000000000436400000000000096865000000000000000009999123100000010000000000000BRMBLYACNOR5100
012024100902MDIA3       010M.DIASBRANCOON      NM   R$  000000000266200000000026780000000002607000000000262900000000026150000000002613000000000261504392000000000003296900000000008668908300000000000000009999123100000010000000000000BRMDIAACNOR7136
012024100902VSTE3       010VESTE       ON      NM   R$  000000000102800000000010700000000001015000000000105200000000010390000000001017000000000104000019000000000000004400000000000004632600000000000000009999123100000010000000000000BRVSTEACNOR5103
012024100902VTRU3       010VITRUEDUCA  ON      NM   R$  000000000093700000000009390000000000912000000000091800000000009120000000000912000000000091800351000000000000115200000000000105864500000000000000009999123100000010000000000000BRVTRUACNOR3100
012024100902VULC3       010VULCABRAS   ON      NM   R$  000000000167600000000016760000000001631000000000164000000000016470000000001647000000000164803165000000000000522400000000000856911500000000000000009999123100000010000000000000BRVULCACNOR2162
012024100902VVEO3       010VIVEO       ON      NM   R$  000000000018300000000001840000000000177000000000017900000000001780000000000177000000000017801538000000000002350200000000000421545900000000000000009999123100000010000000000000BRVVEOACNOR0104
012024100902WEGE3       010WEG         ON  EJ  NM   R$  000000000539200000000054310000000005329000000000539200000000054000000000005399000000000540118269000000000005806100000000031307165100000000000000009999123100000010000000000000BRWEGEACNOR0225
012024100902MRSA3B      010MRS LOGIST  ON      MB   R$  000000000299900000000029990000000002950000000000295500000000029500000000002803000000000299900003000000000000000900000000000002659900000000000000009999123100000010000000000000BRMRSAACNOR6125
012024100902MRSA6B      010MRS LOGIST  PNB     MB   R$  000000000280000000000028000000000002800000000000280000000000028000000000002750000000000000000001000000000000000200000000000000560000000000000000009999123100000010000000000000BRMRSAACNPB7125
012024100902MRVE3       010MRV         ON      NM   R$  000000000081500000000008220000000000774000000000078800000000007800000000000780000000000078122450000000000018214000000000014355440300000000000000009999123100000010000000000000BRMRVEACNOR2127
012024100902RADL3       010RAIADROGASILON  EDJ NM   R$  000000000247500000000025010000000002450000000000249000000000024960000000002496000000000249815162000000000007402800000000018433650100000000000000009999123100000010000000000000BRRADLACNOR0158
012024100902RAIL3       010RUMO S.A.   ON      NM   R$  000000000195000000000019550000000001918000000000192900000000019240000000001924000000000192523357000000000015516100000000029945509300000000000000009999123100000010000000000000BRRAILACNOR9105
012024100902SMFT3       010SMART FIT   ON      NM   R$  000000000219000000000022340000000002190000000000221700000000022200000000002219000000000222408916000000000002063200000000004574344000000000000000009999123100000010000000000000BRSMFTACNOR1112
012024100902SMTO3       010SAO MARTINHOON      NM   R$  000000000282200000000028220000000002693000000000272800000000027160000000002715000000000271708794000000000001455400000000003971204300000000000000009999123100000010000000000000BRSMTOACNOR3127
012024100902SNSY5       010SANSUY      PNA          R$  000000000052400000000005240000000000500000000000051000000000005010000000000495000000000050400022000000000000012600000000000006426800000000000000009999123100000010000000000000BRSNSYACNPA5111
012024100902SOJA3       010BOA SAFRA   ON  EJ  NM   R$  000000000121100000000012500000000001195000000000121200000000012320000000001228000000000123203625000000000001077700000000001306888400000000000000009999123100000010000000000000BRSOJAACNOR9106
012024100902SRNA3       010SERENA      ON      NM   R$  000000000080800000000008080000000000777000000000078400000000007840000000000783000000000078505249000000000002303200000000001806393900000000000000009999123100000010000000000000BRSRNAACNOR4100
012024100902STBP3       010SANTOS BRP  ON      NM   R$  000000000146800000000014690000000001460000000000146400000000014680000000001463000000000146812218000000000009248300000000013542673000000000000000009999123100000010000000000000BRSTBPACNOR3131
012024100902SUZB3       010SUZANO S.A. ON      NM   R$  000000000553200000000055700000000005433000000000549200000000054380000000005436000000000543926100000000000006277700000000034479248000000000000000009999123100000010000000000000BRSUZBACNOR0130
012024100902VITT3       010VITTIA      ON      NM   R$  000000000058000000000005800000000000568000000000057100000000005700000000000570000000000057100956000000000000212500000000000121398700000000000000009999123100000010000000000000BRVITTACNOR4107
012024100902VIVA3       010VIVARA S.A. ON      NM   R$  000000000278700000000027900000000002684000000000271800000000027100000000002710000000000271214772000000000005111800000000013894420400000000000000009999123100000010000000000000BRVIVAACNOR0107
012024100902VIVR3       010VIVER       ON      NM   R$  000000000017100000000001720000000000154000000000016200000000001720000000000171000000000017200269000000000000153300000000000024874600000000000000009999123100000010000000000000BRVIVRACNOR4123
012024100902VIVT3       010TELEF BRASILON           R$  000000000538300000000054250000000005374000000000539600000000053890000000005388000000000539010783000000000001575600000000008503420000000000000000009999123100000010000000000000BRVIVTACNOR0184
012024100902BBSE3       010BBSEGURIDADEON      NM   R$  000000000342400000000034260000000003375000000000339300000000033850000000003385000000000338718752000000000004739400000000016083482800000000000000009999123100000010000000000000BRBBSEACNOR5125
012024100902MRFG3       010MARFRIG     ON      NM   R$  000000000134400000000013440000000001299000000000131000000000013000000000001300000000000130511036000000000004821000000000006318637200000000000000009999123100000010000000000000BRMRFGACNOR0116
012024100902PRNR3       010PRINER      ON      NM   R$  000000000123400000000012370000000001197000000000121100000000012150000000001215000000000121601382000000000000418100000000000506583800000000000000009999123100000010000000000000BRPRNRACNOR4109
012024100902PSSA3       010PORTO SEGUROON  EJ  NM   R$  000000000373200000000037320000000003666000000000369400000000036900000000003688000000000369108126000000000001546000000000005711091200000000000000009999123100000010000000000000BRPSSAACNOR7156
012024100902PTBL3       010PORTOBELLO  ON      NM   R$  000000000046400000000004700000000000461000000000046400000000004620000000000462000000000046800739000000000000147000000000000068295600000000000000009999123100000010000000000000BRPTBLACNOR8132
012024100902PTNT3       010PETTENATI   ON           R$  000000000096400000000009640000000000964000000000096400000000009640000000000921000000000097700001000000000000000100000000000000096400000000000000009999123100000010000000000000BRPTNTACNOR6042
012024100902PTNT4       010PETTENATI   PN           R$  000000000064200000000006700000000000642000000000065800000000006550000000000646000000000065500028000000000000007100000000000004677900000000000000009999123100000010000000000000BRPTNTACNPR3047
012024100902QUAL3       010QUALICORP   ON      NM   R$  000000000020600000000002140000000000203000000000020800000000002060000000000206000000000020802329000000000005844800000000001217153400000000000000009999123100000010000000000000BRQUALACNOR6120
012024100902VAMO3       010VAMOS       ON      NM   R$  000000000056500000000005670000000000552000000000055700000000005550000000000555000000000055712599000000000010710700000000005972532400000000000000009999123100000010000000000000BRVAMOACNOR7105
012024100902VBBR3       010VIBRA       ON      NM   R$  000000000230500000000023210000000002279000000000229500000000022850000000002282000000000229217319000000000006007200000000013792471400000000000000009999123100000010000000000000BRVBBRACNOR1109
012024100902MILS3       010MILLS       ON      NM   R$  000000000108400000000010850000000001052000000000106700000000010520000000001052000000000105803255000000000001076700000000001148978000000000000000009999123100000010000000000000BRMILSACNOR2128
012024100902MLAS3       010MULTILASER  ON      NM   R$  000000000016300000000001640000000000158000000000016000000000001580000000000158000000000015901294000000000001225500000000000196467000000000000000009999123100000010000000000000BRMLASACNOR9101
012024100902MNDL3       010MUNDIAL     ON           R$  000000000168900000000017160000000001600000000000167700000000016800000000001427000000000171600007000000000000002000000000000003355000000000000000009999123100000010000000000000BRMNDLACNOR4109
012024100902MNPR3       010MINUPAR     ON           R$  000000000189700000000018970000000001810000000000183200000000018400000000001820000000000186000028000000000000005200000000000009528300000000000000009999123100000010000000000000BRMNPRACNOR5122
012024100902JALL3       010JALLESMACHADON      NM   R$  000000000064100000000006410000000000625000000000063000000000006260000000000626000000000062801540000000000000580800000000000366478700000000000000009999123100000010000000000000BRJALLACNOR0106
012024100902JBSS3       010JBS         ON      NM   R$  000000000321500000000032590000000003168000000000321400000000032590000000003249000000000325928273000000000009910200000000031854442500000000000000009999123100000010000000000000BRJBSSACNOR8122
012024100902ALPA3       010ALPARGATAS  ON      N1   R$  000000000067600000000006760000000000667000000000066800000000006670000000000667000000000068300007000000000000001200000000000000802200000000000000009999123100000010000000000000BRALPAACNOR0231
012024100902ALPA4       010ALPARGATAS  PN      N1   R$  000000000069500000000007040000000000682000000000069000000000006830000000000682000000000068606373000000000002913900000000002010651700000000000000009999123100000010000000000000BRALPAACNPR7232
012024100902ALPK3       010ESTAPAR     ON      NM   R$  000000000028300000000002830000000000273000000000027600000000002760000000000276000000000027800304000000000000218300000000000060381100000000000000009999123100000010000000000000BRALPKACNOR9101
012024100902ALUP11      010ALUPAR      UNT     N2   R$  000000000294500000000029470000000002910000000000293100000000029400000000002929000000000294005319000000000001132000000000003318991500000000000000009999123100000010000000000000BRALUPCDAM15120
012024100902ALUP3       010ALUPAR      ON      N2   R$  000000000100900000000010140000000000983000000000099700000000009900000000000990000000000101000075000000000000012500000000000012474600000000000000009999123100000010000000000000BRALUPACNOR8120
012024100902ALUP4       010ALUPAR      PN      N2   R$  000000000097300000000009730000000000964000000000096300000000009650000000000964000000000096500140000000000000036700000000000035365600000000000000009999123100000010000000000000BRALUPACNPR5120
012024100902B3SA3       010B3          ON      NM   R$  000000000106100000000010740000000001058000000000106800000000010680000000001068000000000107028891000000000045895200000000049018008300000000000000009999123100000010000000000000BRB3SAACNOR6134
012024100902CASH3       010MELIUZ      ON      NM   R$  000000000036200000000003620000000000349000000000035300000000003490000000000348000000000034901438000000000000856300000000000302816400000000000000009999123100000010000000000000BRCASHACNOR8107
012024100902CBAV3       010CBA         ON      NM   R$  000000000056400000000005740000000000555000000000056000000000005580000000000557000000000055906942000000000003758700000000002105811900000000000000009999123100000010000000000000BRCBAVACNOR5104
012024100902CCRO3       010CCR SA      ON      NM   R$  000000000120500000000012230000000001195000000000120400000000011970000000001197000000000119814898000000000013691600000000016491613300000000000000009999123100000010000000000000BRCCROACNOR2145
012024100902CEAB3       010CEA MODAS   ON      NM   R$  000000000096400000000009890000000000964000000000097700000000009850000000000977000000000098504259000000000001510000000000001476721400000000000000009999123100000010000000000000BRCEABACNOR1102
012024100902CEBR3       010CEB         ON           R$  000000000187000000000018990000000001870000000000188600000000018850000000001870000000000191000013000000000000001600000000000003018500000000000000009999123100000010000000000000BRCEBRACNOR5125
012024100902CEBR5       010CEB         PNA          R$  000000000165900000000016680000000001631000000000164000000000016310000000001608000000000167500007000000000000000700000000000001148200000000000000009999123100000010000000000000BRCEBRACNPA8124
012024100902CEBR6       010CEB         PNB          R$  000000000180200000000018030000000001770000000000178300000000017970000000001781000000000179700037000000000000004400000000000007849000000000000000009999123100000010000000000000BRCEBRACNPB6124
012024100902CEDO4       010CEDRO       PN      N1   R$  000000000230400000000023040000000002304000000000230400000000023040000000002236000000000237400001000000000000000400000000000000921600000000000000009999123100000010000000000000BRCEDOACNPR5128
012024100902CEEB3       010COELBA      ON  EJ       R$  000000000387000000000038700000000003870000000000387000000000038700000000003830000000000398600002000000000000000200000000000000774000000000000000009999123100000010000000000000BRCEEBACNOR3200
012024100902CGAS3       010COMGAS      ON           R$  000000001200100000000120010000000012000000000001200000000000120000000000011750000000001270000002000000000000000200000000000002400100000000000000009999123100000010000000000000BRCGASACNOR0164
012024100902CGAS5       010COMGAS      PNA          R$  000000001270000000000127000000000012622000000001266100000000126220000000012600000000001280000002000000000000000400000000000005064400000000000000009999123100000010000000000000BRCGASACNPA3161
012024100902CGRA3       010GRAZZIOTIN  ON           R$  000000000251300000000025150000000002507000000000250800000000025070000000002505000000000255900004000000000000001400000000000003511200000000000000009999123100000010000000000000BRCGRAACNOR2083
012024100902CGRA4       010GRAZZIOTIN  PN           R$  000000000253900000000025510000000002513000000000253300000000025130000000002506000000000251700015000000000000001800000000000004560100000000000000009999123100000010000000000000BRCGRAACNPR9083
012024100902CLSA3       010CLEARSALE   ON      NM   R$  000000000095000000000009640000000000950000000000095600000000009580000000000952000000000095806439000000000001746200000000001669424600000000000000009999123100000010000000000000BRCLSAACNOR0100
012024100902CLSC4       010CELESC      PN      N2   R$  000000000821100000000082620000000008120000000000821900000000081200000000008079000000000819900007000000000000001600000000000013151900000000000000009999123100000010000000000000BRCLSCACNPR3132
012024100902CMIG3       010CEMIG       ON      N1   R$  000000000143000000000014300000000001408000000000141500000000014230000000001417000000000142300575000000000000101800000000000144071700000000000000009999123100000010000000000000BRCMIGACNOR6244
012024100902CMIG4       010CEMIG       PN      N1   R$  000000000111300000000011200000000001104000000000110900000000011040000000001104000000000110715708000000000009043700000000010033468500000000000000009999123100000010000000000000BRCMIGACNPR3245
012024100902CSUD3       010CSU DIGITAL ON  EJ  NM   R$  000000000170800000000017080000000001680000000000169200000000016810000000001681000000000168500297000000000000047700000000000080727300000000000000009999123100000010000000000000BRCSUDACNOR5111
012024100902CTKA3       010KARSTEN     ON           R$  000000000180000000000018000000000001800000000000180000000000018000000000001800000000000192000001000000000000000100000000000000180000000000000000009999123100000010000000000000BRCTKAACNOR0043
012024100902CURY3       010CURY S/A    ON  ED  NM   R$  000000000225300000000022620000000002210000000000222800000000022170000000002215000000000223006500000000000001726600000000003847589700000000000000009999123100000010000000000000BRCURYACNOR3110
012024100902CVCB3       010CVC BRASIL  ON      NM   R$  000000000018400000000001850000000000180000000000018100000000001810000000000181000000000018209300000000000009139700000000001660063200000000000000009999123100000010000000000000BRCVCBACNOR1116
012024100902CXSE3       010CAIXA SEGURION      NM   R$  000000000143200000000014320000000001401000000000140800000000014010000000001401000000000140313712000000000003713600000000005230297400000000000000009999123100000010000000000000BRCXSEACNOR7107
012024100902ESPA3       010ESPACOLASER ON      NM   R$  000000000009900000000001000000000000096000000000009600000000000960000000000096000000000009700118000000000000248300000000000024065200000000000000009999123100000010000000000000BRESPAACNOR7103
012024100902ESTR4       010ESTRELA     PN           R$  000000000035900000000004250000000000359000000000038300000000003800000000000380000000000039500024000000000000004400000000000001689500000000000000009999123100000010000000000000BRESTRACNPR0144
012024100902ETER3       010ETERNIT     ON      NM   R$  000000000056700000000005670000000000558000000000056100000000005610000000000558000000000056100401000000000000153100000000000086041000000000000000009999123100000010000000000000BRETERACNOR3244
012024100902EUCA4       010EUCATEX     PN      N1   R$  000000000156000000000015730000000001515000000000154000000000015150000000001515000000000153000217000000000000038700000000000059615200000000000000009999123100000010000000000000BREUCAACNPR8044
012024100902EVEN3       010EVEN        ON  ED  NM   R$  000000000066500000000006680000000000632000000000065300000000006500000000000650000000000065403202000000000001440800000000000941360300000000000000009999123100000010000000000000BREVENACNOR8120
012024100902EZTC3       010EZTEC       ON      NM   R$  000000000142000000000014330000000001366000000000138600000000013960000000001392000000000139605988000000000001588100000000002202342700000000000000009999123100000010000000000000BREZTCACNOR0126
012024100902FESA3       010FERBASA     ON      N1   R$  000000000126300000000012650000000001263000000000126400000000012650000000001227000000000133900002000000000000000800000000000001011800000000000000009999123100000010000000000000BRFESAACNOR8189
012024100902LOGG3       010LOG COM PROPON      NM   R$  000000000230600000000023060000000002230000000000225900000000022630000000002244000000000226401317000000000000155300000000000350856300000000000000009999123100000010000000000000BRLOGGACNOR7107
012024100902LOGN3       010LOG-IN      ON      NM   R$  000000000325800000000032850000000003156000000000319300000000031560000000003150000000000315600092000000000000025700000000000082074100000000000000009999123100000010000000000000BRLOGNACNOR3105
012024100902LPSB3       010LOPES BRASILON      NM   R$  000000000017800000000001790000000000175000000000017600000000001770000000000176000000000017800157000000000000065300000000000011527500000000000000009999123100000010000000000000BRLPSBACNOR0114
012024100902LREN3       010LOJAS RENNERON      NM   R$  000000000179000000000017970000000001741000000000176000000000017640000000001759000000000176522727000000000011962400000000021055119000000000000000009999123100000010000000000000BRLRENACNOR1222
012024100902AZZA3       010AZZAS 2154  ON      NM   R$  000000000414600000000041490000000004057000000000410800000000041350000000004127000000000413509532000000000001835500000000007542046800000000000000009999123100000010000000000000BRAZZAACNOR9100
012024100902BRSR3       010BANRISUL    ON      N1   R$  000000000131400000000013290000000001296000000000131100000000013200000000001311000000000132000053000000000000008200000000000010755100000000000000009999123100000010000000000000BRBRSRACNOR3189
012024100902BRSR6       010BANRISUL    PNB     N1   R$  000000000111600000000011210000000001110000000000111300000000011100000000001110000000000111103208000000000001124200000000001251664800000000000000009999123100000010000000000000BRBRSRACNPB4192
012024100907NUTR3       010NUTRIPLANT  ON      MA   R$  000000000045900000000004610000000000454000000000045800000000004560000000000453000000000047400012000000000000001200000000000000549700000000000000009999123100000010000000000000BRNUTRACNOR0104
012024100907TXRX4       010TEX RENAUX  PN           R$  000000000022600000000002260000000000226000000000022600000000002260000000000226000000000022900001000000000000000100000000000000022600000000000000009999123100000010000000000000BRTXRXACNPR0142
012024100908OIBR3       010OI          ON      N1   R$  000000000049100000000005000000000000490000000000049400000000004940000000000494000000000049500378000000000000198900000000000098275800000000000000009999123100000010000000000000BROIBRACNOR1112
012024100908OIBR4       010OI          PN      N1   R$  000000000107500000000011430000000001075000000000112100000000011290000000001090000000000113500015000000000000002400000000000002691800000000000000009999123100000010000000000000BROIBRACNPR8111
012024100908OSXB3       010OSX BRASIL  ON      NM   R$  000000000043800000000004680000000000438000000000045900000000004680000000000438000000000047000019000000000000005900000000000002708700000000000000009999123100000010000000000000BROSXBACNOR8109
012024100908AMER3       010AMERICANAS  ON      NM   R$  000000000040000000000004010000000000380000000000038900000000003840000000000383000000000038402770000000000002378700000000000927620500000000000000009999123100000010000000000000BRAMERACNOR6103
012024100908HOOT4       010HOTEIS OTHONPN           R$  000000000022300000000002240000000000223000000000022300000000002230000000000223000000000022400007000000000000010300000000000002297000000000000000009999123100000010000000000000BRHOOTACNPR9015
012024100908AGXY3       010AGROGALAXY  ON      NM   R$  000000000005900000000000600000000000057000000000005800000000000570000000000057000000000005800239000000000000267800000000000015582700000000000000009999123100000010000000000000BRAGXYACNOR4103
012024100908BDLL4       010BARDELLA    PN           R$  000000000093000000000009300000000000930000000000093000000000009300000000000800000000000096500001000000000000000100000000000000093000000000000000009999123100000010000000000000BRBDLLACNPR8151
012024100908ATMP3       010ATMASA      ON           R$  000000000014600000000001460000000000144000000000014500000000001440000000000143000000000014500010000000000000003900000000000000567400000000000000009999123100000010000000000000BRATMPACNOR8100
012024100908JFEN3       010JOAO FORTES ON           R$  000000000002600000000000270000000000025000000000002600000000000270000000000026000000000002700183000000000001206000000000000031397100000000000000009999123100000010000000000000BRJFENACNOR0059
012024100908LIGT3       010LIGHT S/A   ON      NM   R$  000000000063300000000006330000000000616000000000062100000000006230000000000616000000000062301302000000000000284300000000000176645500000000000000009999123100000010000000000000BRLIGTACNOR2124
012024100908PMAM3       010PARANAPANEMAON      NM   R$  000000000013500000000001350000000000130000000000013100000000001320000000000132000000000013300108000000000000071000000000000009344900000000000000009999123100000010000000000000BRPMAMACNOR3040
012024100908NEXP3       010NEXPE       ON           R$  000000000040500000000004050000000000397000000000040300000000004040000000000399000000000041100004000000000000000500000000000000201600000000000000009999123100000010000000000000BRNEXPACNOR0101
012024100908RNEW11      010RENOVA      UNT     N2   R$  000000000031400000000003140000000000306000000000030900000000003110000000000310000000000031200018000000000000003900000000000001207100000000000000009999123100000010000000000000BRRNEWCDAM15110
012024100908RNEW3       010RENOVA      ON      N2   R$  000000000010100000000001040000000000101000000000010200000000001020000000000102000000000010400087000000000000082900000000000008503000000000000000009999123100000010000000000000BRRNEWACNOR8110
012024100908RNEW4       010RENOVA      PN      N2   R$  000000000010200000000001070000000000102000000000010300000000001050000000000103000000000010500591000000000000364400000000000037860100000000000000009999123100000010000000000000BRRNEWACNPR5110
012024100908RPMG3       010PET MANGUINHON           R$  000000000030500000000003140000000000303000000000030700000000003080000000000303000000000030700066000000000000033700000000000010375200000000000000009999123100000010000000000000BRRPMGACNOR9194
012024100908RSID3       010ROSSI RESID ON      NM   R$  000000000030900000000003220000000000292000000000030100000000003060000000000292000000000030600169000000000000049100000000000014823500000000000000009999123100000010000000000000BRRSIDACNOR8120
012024100908CTSA3       010SANTANENSE  ON           R$  000000000022100000000002210000000000221000000000022100000000002210000000000221000000000022700004000000000000000800000000000000176800000000000000009999123100000010000000000000BRCTSAACNOR3062
012024100908CTSA4       010SANTANENSE  PN           R$  000000000011800000000001180000000000118000000000011800000000001180000000000118000000000011900007000000000000003600000000000000424800000000000000009999123100000010000000000000BRCTSAACNPR0062
012024100910HBSA1       010HIDROVIAS   DIR ORD NM   R$  000000000000800000000000080000000000001000000000000200000000000020000000000002000000000000301275000000000012278600000000000032223600000000000000009999123100000010000000000000BRHBSAD01OR5100
012024100910EQTL9       010EQUATORIAL  ON  REC NM   R$  000000000322300000000032600000000003201000000000321800000000032210000000003221000000000325500173000000000000030500000000000098158900000000000000009999123100000010000000000000BREQTLR04OR9130
012024100910PMAM1       010PARANAPANEMADIR ORD NM   R$  000000000000100000000000010000000000001000000000000100000000000010000000000000000000000000100110000000000000225000000000000000225000000000000000009999123100000010000000000000BRPMAMD05OR9039
012024100910ZAMP9       010ZAMP S.A.   ON  REC      R$  000000000024100000000002420000000000236000000000024100000000002360000000000230000000000024900005000000000000003000000000000000723000000000000000009999123100000010000000000000BRZAMPR01OR0100
012024100910DASA1       010DASA        DIR ORD NM   R$  000000000000100000000000010000000000001000000000000100000000000010000000000000000000000000100090000000000000483200000000000000483200000000000000009999123100000010000000000000BRDASAD04OR0122
012024100910CBEE1       010AMPLA ENERG DIR ORD      R$  000000000029000000000002900000000000240000000000024600000000002430000000000012000000000024400006000000000000001000000000000000246900000000000000009999123100000010000000000000BRCBEED07OR5159
012024100912OUJP11      010FII OURI JPPCI  ER       R$  000000000788000000000078800000000007721000000000779800000000078250000000007825000000000783401242000000000000009865000000000076928243000000000000009999123100000010000000000000BROUJPCTF006191
012024100912OULG11      010FII OURILOG CI           R$  000000000305000000000031200000000003050000000000306500000000030600000000003050000000000306400047000000000000002737000000000008390658000000000000009999123100000010000000000000BROULGCTF001153
012024100912AJFI11      010FII AJ MALLSCI  ER       R$  000000000074300000000007530000000000736000000000073900000000007370000000000737000000000074006259000000000000065162000000000048190033000000000000009999123100000010000000000000BRAJFICTF001111
012024100912ALMI11      010FII TORRE ALCI  ER       R$  000000005800000000000600000000000058000000000005833300000000600000000000057338000000006189900005000000000000000009000000000000524997000000000000009999123100000010000000000000BRALMICTF003252
012024100912BICR11      010FII INTER   CI  ER       R$  000000000420200000000042020000000004202000000000420200000000042020000000004032000000000420200005000000000000000005000000000000021010000000000000009999123100000010000000000000BRBICRCTF009156
012024100912BIME11      010FII BRIO ME CI  ER       R$  000000000072900000000007330000000000723000000000072800000000007300000000000728000000000073001531000000000000024079000000000017551216000000000000009999123100000010000000000000BRBIMECTF006136
012024100912BPFF11      010FII ABSOLUTOCI  ER       R$  000000000642400000000064770000000006403000000000644000000000064500000000006452000000000646800674000000000000002949000000000018993374000000000000009999123100000010000000000000BRBPFFCTF002240
012024100912BPML11      010FII BTG SHOPCI           R$  000000000822600000000082260000000008000000000000805900000000080990000000008099000000000810300660000000000000013009000000000104840719000000000000009999123100000010000000000000BRBPMLCTF006134
012024100912CNES11      010FII CENESP  CI           R$  000000000012400000000001260000000000123000000000012400000000001260000000000125000000000012601423000000000000031114000000000003867806000000000000009999123100000010000000000000BRCNESCTF001263
012024100912PABY11      010FII PANAMBY CI           R$  000000000145900000000014590000000001458000000000145800000000014580000000001475000000000150200002000000000000000013000000000000018963000000000000009999123100000010000000000000BRPABYCTF012158
012024100912PATA11      010FII PATA    CI  ER       R$  000000000101700000000010170000000001017000000000101700000000010170000000000000000000000104000001000000000000000003000000000000003051000000000000009999123100000010000000000000BRPATACTF006102
012024100912PATC11      010FII PATRIA  CI  ER       R$  000000000350200000000035020000000003395000000000344600000000034580000000003428000000000348700275000000000000003882000000000013378635000000000000009999123100000010000000000000BRPATCCTF002174
012024100912PATL11      010FII PATLOGISCI  ER       R$  000000000583700000000059300000000005717000000000578900000000057470000000005748000000000577200808000000000000007393000000000042801653000000000000009999123100000010000000000000BRPATLCTF003150
012024100912TRBL11      010FII SDI LOG CI  ER       R$  000000000903900000000091320000000009000000000000903500000000090200000000009011000000000902000650000000000000008063000000000072850313000000000000009999123100000010000000000000BRTRBLCTF007116
012024100912TORD11      010FII TORDE EICI           R$  000000000010000000000001010000000000099000000000009900000000001010000000000099000000000010101062000000000000180472000000000018013346000000000000009999123100000010000000000000BRTORDCTF015138
012024100912WHGR11      010FII WHG REALCI  ER       R$  000000000094400000000009490000000000932000000000093600000000009390000000000937000000000093901263000000000000018585000000000017407873000000000000009999123100000010000000000000BRWHGRCTF008129
012024100912ALZR11      010FII ALIANZA CI           R$  000000001044000000000104480000000010336000000001039200000000103520000000010352000000001035603205000000000000016590000000000172416394000000000000009999123100000010000000000000BRALZRCTF006186
012024100912APTO11      010FII NAVI RSDCI  ER       R$  000000000095300000000009550000000000936000000000094400000000009400000000000939000000000094300128000000000000001267000000000001196308000000000000009999123100000010000000000000BRAPTOCTF007135
012024100912RECR11      010FII REC RECECI  ER       R$  000000000758400000000076150000000007355000000000742500000000075000000000007500000000000752507583000000000000109983000000000816691968000000000000009999123100000010000000000000BRRECRCTF004155
012024100912RECT11      010FII REC RENDCI  ER       R$  000000000316000000000031670000000003110000000000314200000000031250000000003119000000000312500603000000000000011075000000000034800540000000000000009999123100000010000000000000BRRECTCTF000171
012024100912RELG11      010FII REC LOG CI  ER       R$  000000000565000000000057000000000005400000000000550900000000055110000000005511000000000554900065000000000000001325000000000007300592000000000000009999123100000010000000000000BRRELGCTF008139
012024100912SCPF11      010FII SCP     CI           R$  000000000023500000000002400000000000232000000000023300000000002400000000000234000000000024000047000000000000000590000000000000138028000000000000009999123100000010000000000000BRSCPFCTF003302
012024100912SEQR11      010FII SEQUOIA CI  ER       R$  000000000509000000000050900000000005065000000000507300000000050700000000005070000000000508600073000000000000001226000000000006219761000000000000009999123100000010000000000000BRSEQRCTF002147
012024100912SHPH11      010FII HIGIENOPCI  ER       R$  000000008600000000000860000000000086000000000008600000000000860000000000085501000000008698900004000000000000000005000000000000430000000000000000009999123100000010000000000000BRSHPHCTF008354
012024100912SJAU11      010FII SJ AU   CI           R$  000000000500000000000050010000000005000000000000500000000000050010000000005001000000000599700003000000000000000012000000000000060004000000000000009999123100000010000000000000BRSJAUCTF009102
012024100912CPFF11      010FII CAP REITCI           R$  000000000672600000000067260000000006660000000000666100000000066600000000006660000000000666900124000000000000005735000000000038204234000000000000009999123100000010000000000000BRCPFFCTF000160
012024100912HBCR11      010FII HBC REN CI  ER       R$  000000001360000000000136000000000013600000000001360000000000136000000000013400000000000000000002000000000000036765000000000500004000000000000000009999123100000010000000000000BRHBCRCTF001146
012024100912HCHG11      010FII HECT CRICI  ER       R$  000000000672000000000068000000000006720000000000672600000000067990000000006720000000000679700004000000000000000029000000000000195069000000000000009999123100000010000000000000BRHCHGCTF001141
012024100912HCRI11      010FII CRIANCA CI           R$  000000002720000000000273700000000027200000000002729900000000273700000000027203000000002737000020000000000000000082000000000002238532000000000000009999123100000010000000000000BRHCRICTF006332
012024100912HCTR11      010FII HECTARE CI  ER       R$  000000000290000000000029000000000002881000000000288800000000028990000000002885000000000290002511000000000000025112000000000072541760000000000000009999123100000010000000000000BRHCTRCTF003174
012024100912HDEL11      010FII HEDGE DVCI           R$  000000001160000000000116000000000011600000000001160000000000116000000000011600000000000000000001000000000000000001000000000000011600000000000000009999123100000010000000000000BRHDELCTF006104
012024100912HFOF11      010FII HTOPFOF3CI  ER       R$  000000000643800000000064900000000006295000000000634600000000063000000000006300000000000632803856000000000000064794000000000411187175000000000000009999123100000010000000000000BRHFOFCTF002193
012024100912HGBL11      010FII HGBL    CI  ER       R$  000000000102500000000010250000000001017000000000102400000000010250000000001019000000000102500140000000000000002351000000000002407740000000000000009999123100000010000000000000BRHGBLCTF005109
012024100912HGBS11      010FII HEDGEBS CI  ER       R$  000000002002200000000201000000000019950000000002002200000000200780000000019996000000002007807790000000000000030333000000000607334369000000000000009999123100000010000000000000BRHGBSCTF000314
012024100912HGCR11      010FII HGCR PAXCI  ER       R$  000000001005800000000100890000000009970000000001002100000000099990000000009999000000001002506093000000000000039717000000000398020714000000000000009999123100000010000000000000BRHGCRCTF000250
012024100912HGFF11      010FII HGFF PAXCI  ER       R$  000000000757400000000076340000000007510000000000754200000000075500000000007518000000000755000225000000000000003151000000000023767384000000000000009999123100000010000000000000BRHGFFCTF008164
012024100912HGIC11      010FII HGI CRI CI  ER       R$  000000000941700000000094170000000009417000000000941700000000094170000000008704000000000959900001000000000000000002000000000000018834000000000000009999123100000010000000000000BRHGICCTF009144
012024100912HGLG11      010FII HGLG PAXCI  ER       R$  000000001575400000000157880000000015650000000001570600000000156630000000015663000000001566408029000000000000049639000000000779644944000000000000009999123100000010000000000000BRHGLGCTF004275
012024100912HGPO11      010FII HGPO PAXCI  ER       R$  000000003000200000000302000000000030000000000003000200000000300000000000030000000000003007800314000000000000012597000000000377936738000000000000009999123100000010000000000000BRHGPOCTF009165
012024100912HGRE11      010FII HGRE PAXCI  ER       R$  000000001033000000000103980000000010230000000001027900000000102700000000010270000000001027702857000000000000015619000000000160556397000000000000009999123100000010000000000000BRHGRECTF006296
012024100912HGRU11      010FII HGRU PAXCI  ER       R$  000000001208000000000121220000000012005000000001206700000000120660000000012050000000001206604583000000000000024617000000000297071245000000000000009999123100000010000000000000BRHGRUCTF002181
