00COTAHIST.2024BOVESPA 20241024                                                                                                                                                                                                                      
012024102402BPAC11      010BTGP BANCO  UNT     N2   R$  000000000321500000000032770000000003202000000000324400000000032610000000003261000000000326515057000000000004792200000000015547912400000000000000009999123100000010000000000000BRBPACUNT006119
012024102402BPAC3       010BTGP BANCO  ON      N2   R$  000000000152300000000015570000000001522000000000154000000000015300000000001490000000000155900028000000000000005400000000000008316600000000000000009999123100000010000000000000BRBPACACNOR7134
012024102402BPAC5       010BTGP BANCO  PNA     N2   R$  000000000085700000000008580000000000857000000000085700000000008580000000000845000000000087400002000000000000000400000000000000343000000000000000009999123100000010000000000000BRBPACACNPA0134
012024102402CPFE3       010CPFL ENERGIAON      NM   R$  000000000329200000000033040000000003262000000000328400000000033040000000003294000000000330505059000000000000939200000000003084776700000000000000009999123100000010000000000000BRCPFEACNOR0137
012024102402KLBN11      010KLABIN S/A  UNT     N2   R$  000000000206200000000020620000000002042000000000204800000000020430000000002043000000000205510077000000000003529100000000007230223800000000000000009999123100000010000000000000BRKLBNCDAM18143
012024102402KLBN3       010KLABIN S/A  ON      N2   R$  000000000041300000000004130000000000410000000000041100000000004100000000000410000000000041300326000000000000121200000000000049837200000000000000009999123100000010000000000000BRKLBNACNOR2171
012024102402KLBN4       010KLABIN S/A  PN      N2   R$  000000000041200000000004120000000000409000000000041000000000004100000000000410000000000041201150000000000000864000000000000354489300000000000000009999123100000010000000000000BRKLBNACNPR9171
012024102402MTRE3       010MITRE REALTYON      NM   R$  000000000036500000000003700000000000359000000000036500000000003680000000000368000000000037000720000000000000593900000000000217194400000000000000009999123100000010000000000000BRMTREACNOR6115
012024102402MTSA4       010METISA      PN           R$  000000000353500000000035350000000003535000000000353300000000035350000000003534000000000364800004000000000000000400000000000001413400000000000000009999123100000010000000000000BRMTSAACNPR9073
012024102402MULT3       010MULTIPLAN   ON      N2   R$  000000000253200000000025470000000002495000000000252200000000025110000000002511000000000251716226000000000006505000000000016406764600000000000000009999123100000010000000000000BRMULTACNOR5139
012024102402MYPK3       010IOCHP-MAXIONON      NM   R$  000000000102800000000010410000000001016000000000103000000000010330000000001033000000000103403563000000000000724500000000000746795500000000000000009999123100000010000000000000BRMYPKACNOR7156
012024102402BRAV3       010BRAVA       ON      NM   R$  000000000170000000000017200000000001682000000000170000000000017020000000001701000000000170316885000000000009042000000000015375351700000000000000009999123100000010000000000000BRBRAVACNOR3100
012024102402CSAN3       010COSAN       ON      NM   R$  000000000117700000000011820000000001158000000000117300000000011820000000001181000000000118210537000000000009434700000000011068261000000000000000009999123100000010000000000000BRCSANACNOR6126
012024102402EKTR4       010ELEKTRO     PN           R$  000000000444000000000048550000000004440000000000468300000000048550000000004850000000000485500040000000000000008700000000000040745900000000000000009999123100000010000000000000BREKTRACNPR7165
012024102402ELET3       010ELETROBRAS  ON      N1   R$  000000000382000000000038350000000003741000000000378800000000038300000000003828000000000383116206000000000006577100000000024916343600000000000000009999123100000010000000000000BRELETACNOR6160
012024102402ELET6       010ELETROBRAS  PNB     N1   R$  000000000420900000000042650000000004157000000000421300000000042460000000004245000000000425004639000000000001219100000000005137000100000000000000009999123100000010000000000000BRELETACNPB7077
012024102402HBOR3       010HELBOR      ON      NM   R$  000000000018900000000001900000000000184000000000018600000000001880000000000188000000000018900639000000000000967300000000000179923700000000000000009999123100000010000000000000BRHBORACNOR3118
012024102402HBRE3       010HBR REALTY  ON      NM   R$  000000000044900000000004750000000000446000000000046200000000004730000000000471000000000047300956000000000000716300000000000330975800000000000000009999123100000010000000000000BRHBREACNOR4100
012024102402HBSA3       010HIDROVIAS   ON      NM   R$  000000000033400000000003340000000000324000000000032700000000003260000000000326000000000032702626000000000001776800000000000581798600000000000000009999123100000010000000000000BRHBSAACNOR0101
012024102402YDUQ3       010YDUQS PART  ON      NM   R$  000000000108000000000011320000000001049000000000109500000000011030000000001103000000000110412573000000000005081500000000005568811000000000000000009999123100000010000000000000BRYDUQACNOR3105
012024102402PETZ3       010PETZ        ON      NM   R$  000000000047300000000004790000000000469000000000047400000000004780000000000476000000000047904853000000000003673500000000001742246800000000000000009999123100000010000000000000BRPETZACNOR2110
012024102402PFRM3       010PROFARMA    ON      NM   R$  000000000060000000000006180000000000598000000000061200000000006150000000000615000000000061800364000000000000165700000000000101517600000000000000009999123100000010000000000000BRPFRMACNOR1116
012024102402PGMN3       010PAGUE MENOS ON      NM   R$  000000000028200000000002880000000000277000000000028400000000002860000000000286000000000028700494000000000000374600000000000106414100000000000000009999123100000010000000000000BRPGMNACNOR8103
012024102402ROMI3       010ROMI        ON      NM   R$  000000000100300000000010160000000000998000000000100400000000010050000000001005000000000101001097000000000000199500000000000200476200000000000000009999123100000010000000000000BRROMIACNOR8196
012024102402TRPL4       010TRAN PAULISTPN      N1   R$  000000000244000000000024600000000002437000000000244700000000024600000000002458000000000246005827000000000001262700000000003090845900000000000000009999123100000010000000000000BRTRPLACNPR1185
012024102402TTEN3       0103TENTOS     ON      NM   R$  000000000107100000000011100000000001051000000000108100000000011000000000001100000000000110206287000000000001219200000000001318630500000000000000009999123100000010000000000000BRTTENACNOR0103
012024102402TUPY3       010TUPY        ON      NM   R$  000000000234400000000023570000000002313000000000232500000000023330000000002333000000000233503706000000000000792100000000001841866000000000000000009999123100000010000000000000BRTUPYACNOR1184
012024102402UCAS3       010UNICASA     ON      NM   R$  000000000021800000000002180000000000214000000000021500000000002170000000000215000000000021700055000000000000011600000000000002503100000000000000009999123100000010000000000000BRUCASACNOR1113
012024102402UGPA3       010ULTRAPAR    ON      NM   R$  000000000203200000000020500000000002013000000000203400000000020430000000002043000000000204412725000000000004726400000000009617056100000000000000009999123100000010000000000000BRUGPAACNOR8156
012024102402VLID3       010VALID       ON      NM   R$  000000000233500000000023350000000002282000000000231000000000023250000000002300000000000232502747000000000000403100000000000931216100000000000000009999123100000010000000000000BRVLIDACNOR5144
012024102402VSTE3       010VESTE       ON      NM   R$  000000000099100000000009910000000000990000000000099000000000009900000000000973000000000098900004000000000000000700000000000000693500000000000000009999123100000010000000000000BRVSTEACNOR5103
012024102402VTRU3       010VITRUEDUCA  ON      NM   R$  000000000090000000000009440000000000883000000000091300000000009440000000000922000000000094600316000000000000087300000000000079765100000000000000009999123100000010000000000000BRVTRUACNOR3100
012024102402VULC3       010VULCABRAS   ON  ED  NM   R$  000000000162200000000016690000000001603000000000163800000000016500000000001649000000000165103030000000000000541300000000000886895000000000000000009999123100000010000000000000BRVULCACNOR2163
012024102402VVEO3       010VIVEO       ON      NM   R$  000000000018500000000001980000000000182000000000019000000000001970000000000196000000000019703221000000000002557400000000000487661900000000000000009999123100000010000000000000BRVVEOACNOR0104
012024102402AERI3       010AERIS       ON      NM   R$  000000000062500000000006450000000000610000000000063000000000006380000000000636000000000063800503000000000000155700000000000098132000000000000000009999123100000010000000000000BRAERIACNOR4102
012024102402AESB3       010AES BRASIL  ON      NM   R$  000000000117900000000011800000000001176000000000117700000000011760000000001176000000000117901685000000000007948000000000009355987200000000000000009999123100000010000000000000BRAESBACNOR7107
012024102402AFLT3       010AFLUENTE T  ON           R$  000000000071200000000007120000000000692000000000070400000000006920000000000692000000000070500004000000000000000400000000000000281800000000000000009999123100000010000000000000BRAFLTACNOR1122
012024102402AGRO3       010BRASILAGRO  ON  ED  NM   R$  000000000230800000000023420000000002297000000000232200000000023420000000002341000000000234301840000000000000347800000000000807767800000000000000009999123100000010000000000000BRAGROACNOR7115
012024102402ALLD3       010ALLIED      ON      NM   R$  000000000075000000000007630000000000750000000000075600000000007550000000000755000000000076300103000000000000018100000000000013687100000000000000009999123100000010000000000000BRALLDACNOR3106
012024102402ALOS3       010ALLOS       ON  ED  NM   R$  000000000220300000000022160000000002177000000000220200000000022100000000002209000000000221012929000000000003760600000000008282676200000000000000009999123100000010000000000000BRALOSACNOR5103
012024102402BBDC3       010BRADESCO    ON      N1   R$  000000000131300000000013300000000001309000000000132100000000013260000000001324000000000132606700000000000004015300000000005307228500000000000000009999123100000010000000000000BRBBDCACNOR1776
012024102402BBDC4       010BRADESCO    PN      N1   R$  000000000150500000000015290000000001503000000000151700000000015150000000001515000000000151629868000000000024512500000000037187619400000000000000009999123100000010000000000000BRBBDCACNPR8776
012024102402BRSR3       010BANRISUL    ON      N1   R$  000000000129900000000013040000000001278000000000129000000000013040000000001282000000000130700038000000000000006100000000000007873500000000000000009999123100000010000000000000BRBRSRACNOR3189
012024102402BRSR6       010BANRISUL    PNB     N1   R$  000000000111400000000011170000000001104000000000110700000000011100000000001105000000000111003684000000000001134100000000001255764900000000000000009999123100000010000000000000BRBRSRACNPB4192
012024102402BSLI3       010BRB BANCO   ON           R$  000000000091600000000009160000000000886000000000089100000000008860000000000854000000000090900003000000000000000600000000000000534700000000000000009999123100000010000000000000BRBSLIACNOR5194
012024102402BSLI4       010BRB BANCO   PN           R$  000000000090100000000009010000000000900000000000090000000000009000000000000850000000000091800002000000000000001300000000000001170100000000000000009999123100000010000000000000BRBSLIACNPR2194
012024102402CAMB3       010CAMBUCI     ON           R$  000000000120500000000012150000000001197000000000120800000000012150000000001202000000000121500067000000000000013800000000000016676600000000000000009999123100000010000000000000BRCAMBACNOR4131
012024102402CAML3       010CAMIL       ON      NM   R$  000000000080400000000008080000000000793000000000080000000000008060000000000806000000000080701958000000000000416300000000000333218900000000000000009999123100000010000000000000BRCAMLACNOR3129
012024102402CASH3       010MELIUZ      ON      NM   R$  000000000034500000000003540000000000345000000000035000000000003490000000000349000000000035300761000000000000364700000000000127660500000000000000009999123100000010000000000000BRCASHACNOR8107
012024102402CBAV3       010CBA         ON      NM   R$  000000000059000000000005990000000000575000000000058500000000005800000000000580000000000058208483000000000003477300000000002034908600000000000000009999123100000010000000000000BRCBAVACNOR5104
012024102402CCRO3       010CCR SA      ON      NM   R$  000000000120700000000012260000000001198000000000121200000000012150000000001214000000000121808742000000000005939700000000007202538600000000000000009999123100000010000000000000BRCCROACNOR2145
012024102402ENGI3       010ENERGISA    ON      N2   R$  000000000128000000000013090000000001263000000000128900000000013090000000001271000000000132800017000000000000002200000000000002836300000000000000009999123100000010000000000000BRENGIACNOR0146
012024102402ENGI4       010ENERGISA    PN      N2   R$  000000000074500000000007570000000000741000000000074700000000007570000000000757000000000075800022000000000000004300000000000003213000000000000000009999123100000010000000000000BRENGIACNPR7142
012024102402ENJU3       010ENJOEI      ON      NM   R$  000000000012100000000001290000000000121000000000012500000000001290000000000129000000000013000266000000000000409300000000000051460000000000000000009999123100000010000000000000BRENJUACNOR9100
012024102402ENMT4       010ENERGISA MT PN           R$  000000000849400000000084940000000008494000000000849400000000084940000000006000000000000849600001000000000000000100000000000000849400000000000000009999123100000010000000000000BRENMTACNPR2126
012024102402EPAR3       010EMBPAR S/A  ON           R$  000000000057500000000005750000000000556000000000057100000000005750000000000569000000000057500020000000000000012000000000000006859500000000000000009999123100000010000000000000BREPARACNOR9105
012024102402EQMA3B      010EQTLMARANHAOON      MB   R$  000000000226000000000022980000000002254000000000226500000000022980000000002250000000000229700005000000000000000500000000000001132600000000000000009999123100000010000000000000BREQMAACNOR8108
012024102402EQPA3       010EQTL PARA   ON           R$  000000000058800000000005900000000000580000000000058900000000005900000000000586000000000059000039000000000000014000000000000008250900000000000000009999123100000010000000000000BREQPAACNOR1111
012024102402EQTL3       010EQUATORIAL  ON      NM   R$  000000000319000000000032280000000003166000000000319900000000032240000000003219000000000322416766000000000005204500000000016651773800000000000000009999123100000010000000000000BREQTLACNOR0131
012024102402ESPA3       010ESPACOLASER ON      NM   R$  000000000009400000000000950000000000093000000000009300000000000950000000000094000000000009500081000000000000186300000000000017503400000000000000009999123100000010000000000000BRESPAACNOR7103
012024102402ESTR4       010ESTRELA     PN           R$  000000000035200000000003520000000000352000000000035200000000003520000000000328000000000035000001000000000000000300000000000000105600000000000000009999123100000010000000000000BRESTRACNPR0144
012024102402ETER3       010ETERNIT     ON      NM   R$  000000000053300000000005350000000000522000000000052500000000005260000000000526000000000052800430000000000000182000000000000095655400000000000000009999123100000010000000000000BRETERACNOR3244
012024102402EUCA3       010EUCATEX     ON      N1   R$  000000000163000000000016300000000001630000000000163000000000016300000000001643000000000166900002000000000000000300000000000000489000000000000000009999123100000010000000000000BREUCAACNOR1157
012024102402EUCA4       010EUCATEX     PN      N1   R$  000000000143600000000014500000000001427000000000143600000000014330000000001430000000000144400151000000000000025000000000000035902300000000000000009999123100000010000000000000BREUCAACNPR8044
012024102402IFCM3       010INFRACOMM   ON      NM   R$  000000000001400000000000150000000000013000000000001300000000000140000000000013000000000001400409000000000005950700000000000083053300000000000000009999123100000010000000000000BRIFCMACNOR8101
012024102402IGTI11      010IGUATEMI S.AUNT     N1   R$  000000000209900000000021340000000002085000000000211000000000021220000000002121000000000212306442000000000001913700000000004038369300000000000000009999123100000010000000000000BRIGTICDAM16106
012024102402IGTI3       010IGUATEMI S.AON      N1   R$  000000000025500000000002570000000000250000000000025200000000002530000000000253000000000025500134000000000000084100000000000021229500000000000000009999123100000010000000000000BRIGTIACNOR8106
012024102402INEP3       010INEPAR      ON           R$  000000000016200000000001660000000000159000000000016100000000001600000000000159000000000016000070000000000000020900000000000003375400000000000000009999123100000010000000000000BRINEPACNOR1143
012024102402INEP4       010INEPAR      PN           R$  000000000016500000000001700000000000164000000000016700000000001700000000000165000000000017000021000000000000018900000000000003165700000000000000009999123100000010000000000000BRINEPACNPR8143
012024102402INTB3       010INTELBRAS   ON      NM   R$  000000000201000000000020230000000001987000000000200900000000020200000000002020000000000202303290000000000000881200000000001770734600000000000000009999123100000010000000000000BRINTBACNOR9112
012024102402IRBR3       010IRBBRASIL REON      NM   R$  000000000479100000000048450000000004422000000000454000000000044220000000004422000000000442411860000000000002824100000000012821802800000000000000009999123100000010000000000000BRIRBRACNOR4111
012024102402ODPV3       010ODONTOPREV  ON      NM   R$  000000000105500000000010590000000001041000000000104800000000010540000000001050000000000105406034000000000001118900000000001173320100000000000000009999123100000010000000000000BRODPVACNOR4204
012024102402OFSA3       010OUROFINO S/AON      NM   R$  000000000221000000000022100000000002110000000000215700000000021600000000002160000000000220000016000000000000008900000000000019197900000000000000009999123100000010000000000000BROFSAACNOR7118
012024102402CXSE3       010CAIXA SEGURION      NM   R$  000000000143800000000014450000000001432000000000143700000000014340000000001433000000000143410531000000000002680800000000003854978300000000000000009999123100000010000000000000BRCXSEACNOR7107
012024102402CYRE3       010CYRELA REALTON      NM   R$  000000000212200000000021650000000002089000000000212900000000021650000000002149000000000216512026000000000005158700000000010984995900000000000000009999123100000010000000000000BRCYREACNOR7140
012024102402FRAS3       010FRAS-LE     ON      N1   R$  000000000223800000000022480000000002223000000000223400000000022480000000002230000000000224801095000000000000229600000000000513146700000000000000009999123100000010000000000000BRFRASACNOR0160
012024102402FRIO3       010METALFRIO   ON      NM   R$  000000001441400000000151970000000013500000000001462600000000151970000000015100000000001519800018000000000000001800000000000026328500000000000000009999123100000010000000000000BRFRIOACNOR2111
012024102402TAEE11      010TAESA       UNT     N2   R$  000000000343700000000034450000000003421000000000343200000000034450000000003439000000000344505041000000000001173600000000004028835300000000000000009999123100000010000000000000BRTAEECDAM10148
012024102402TAEE3       010TAESA       ON      N2   R$  000000000114400000000011440000000001139000000000114100000000011410000000001140000000000114400160000000000000029200000000000033328400000000000000009999123100000010000000000000BRTAEEACNOR9148
012024102402TAEE4       010TAESA       PN      N2   R$  000000000115500000000011550000000001146000000000114800000000011480000000001148000000000114900346000000000000088900000000000102125600000000000000009999123100000010000000000000BRTAEEACNPR6148
012024102402VAMO3       010VAMOS       ON      NM   R$  000000000062600000000006450000000000612000000000063200000000006390000000000639000000000064014286000000000010139400000000006411673100000000000000009999123100000010000000000000BRVAMOACNOR7105
012024102402VBBR3       010VIBRA       ON      NM   R$  000000000220500000000022540000000002192000000000222400000000022170000000002217000000000221917489000000000007714800000000017161518400000000000000009999123100000010000000000000BRVBBRACNOR1109
012024102402BAHI3       010BAHEMA      ON      MA   R$  000000000048400000000004840000000000470000000000047200000000004800000000000465000000000048000007000000000000002900000000000001371300000000000000009999123100000010000000000000BRBAHIACNOR1074
012024102402BALM4       010BAUMER      PN           R$  000000000100200000000010020000000001002000000000100200000000010020000000001010000000000104000001000000000000000100000000000000100200000000000000009999123100000010000000000000BRBALMACNPR2056
012024102402BAZA3       010AMAZONIA    ON           R$  000000000894000000000089700000000008900000000000892600000000089350000000008890000000000894000020000000000000003400000000000030348700000000000000009999123100000010000000000000BRBAZAACNOR0179
012024102402BBAS3       010BRASIL      ON      NM   R$  000000000264100000000026460000000002625000000000263800000000026360000000002636000000000263918930000000000008727600000000023024537300000000000000009999123100000010000000000000BRBBASACNOR3326
012024102402BRBI11      010BR PARTNERS UNT     N2   R$  000000000150600000000015250000000001494000000000150800000000015250000000001510000000000152501147000000000000200400000000000302341000000000000000009999123100000010000000000000BRBRBICDAM10110
012024102402BRFS3       010BRF SA      ON      NM   R$  000000000244000000000024520000000002417000000000243800000000024430000000002439000000000244414609000000000007513300000000018320106300000000000000009999123100000010000000000000BRBRFSACNOR8122
012024102402BRIT3       010BRISANET    ON      NM   R$  000000000029700000000003050000000000297000000000029900000000003010000000000301000000000030400396000000000000335400000000000100413600000000000000009999123100000010000000000000BRBRITACNOR0103
012024102402BRKM3       010BRASKEM     ON      N1   R$  000000000170500000000017900000000001701000000000173600000000017040000000001703000000000174800133000000000000017500000000000030389500000000000000009999123100000010000000000000BRBRKMACNOR1119
012024102402BRKM5       010BRASKEM     PNA     N1   R$  000000000183000000000018350000000001716000000000175100000000017400000000001740000000000174409799000000000004033700000000007066154000000000000000009999123100000010000000000000BRBRKMACNPA4121
012024102402RADL3       010RAIADROGASILON      NM   R$  000000000246000000000025030000000002450000000000247800000000025000000000002496000000000250315416000000000005371200000000013311883200000000000000009999123100000010000000000000BRRADLACNOR0158
012024102402RAIL3       010RUMO S.A.   ON      NM   R$  000000000190000000000019170000000001878000000000190000000000019100000000001910000000000191321046000000000013823000000000026275782000000000000000009999123100000010000000000000BRRAILACNOR9105
012024102402STBP3       010SANTOS BRP  ON  ER  NM   R$  000000000128000000000012850000000001258000000000127500000000012800000000001279000000000128008775000000000007663800000000009776833600000000000000009999123100000010000000000000BRSTBPACNOR3132
012024102402SUZB3       010SUZANO S.A. ON      NM   R$  000000000574000000000057970000000005718000000000576000000000057400000000005738000000000576720121000000000005484200000000031589074000000000000000009999123100000010000000000000BRSUZBACNOR0130
012024102402BEES3       010BANESTES    ON           R$  000000000087800000000008810000000000875000000000087700000000008750000000000875000000000087700059000000000000010500000000000009209200000000000000009999123100000010000000000000BRBEESACNOR9396
012024102402BEES4       010BANESTES    PN           R$  000000000090000000000009000000000000885000000000089200000000008850000000000883000000000089500024000000000000004300000000000003837300000000000000009999123100000010000000000000BRBEESACNPR6321
012024102402BGIP4       010BANESE      PN           R$  000000000236500000000023650000000002340000000000236200000000023650000000002369000000000240000006000000000000000700000000000001653400000000000000009999123100000010000000000000BRBGIPACNPR8210
012024102402BHIA3       010CASAS BAHIA ON      NM   R$  000000000042400000000004350000000000416000000000042600000000004320000000000431000000000043201727000000000001730800000000000737864700000000000000009999123100000010000000000000BRBHIAACNOR1102
012024102402BIOM3       010BIOMM       ON      MA   R$  000000000090600000000009150000000000880000000000089800000000009000000000000886000000000090000153000000000000032200000000000028922600000000000000009999123100000010000000000000BRBIOMACNOR2112
012024102402SMFT3       010SMART FIT   ON      NM   R$  000000000213800000000021900000000002102000000000215600000000021800000000002178000000000218508399000000000002409100000000005195155700000000000000009999123100000010000000000000BRSMFTACNOR1112
012024102402SMTO3       010SAO MARTINHOON      NM   R$  000000000257100000000025990000000002551000000000257700000000025750000000002574000000000257504475000000000000941500000000002426402100000000000000009999123100000010000000000000BRSMTOACNOR3127
012024102402SNSY5       010SANSUY      PNA          R$  000000000051600000000005160000000000480000000000049000000000004800000000000480000000000050000022000000000000011700000000000005738700000000000000009999123100000010000000000000BRSNSYACNPA5111
012024102402SOJA3       010BOA SAFRA   ON      NM   R$  000000000120000000000012140000000001185000000000119800000000012050000000001204000000000121202266000000000000372300000000000446286900000000000000009999123100000010000000000000BRSOJAACNOR9106
012024102402SRNA3       010SERENA      ON      NM   R$  000000000081800000000008350000000000805000000000082000000000008330000000000833000000000083505621000000000002066100000000001694427800000000000000009999123100000010000000000000BRSRNAACNOR4100
012024102402AZZA3       010AZZAS 2154  ON      NM   R$  000000000404000000000041710000000004004000000000408100000000041490000000004147000000000415806365000000000001257000000000005130178600000000000000009999123100000010000000000000BRAZZAACNOR9100
012024102402USIM3       010USIMINAS    ON      N1   R$  000000000060800000000006170000000000603000000000061100000000006130000000000613000000000061600823000000000000297300000000000181727900000000000000009999123100000010000000000000BRUSIMACNOR3167
012024102402USIM5       010USIMINAS    PNA     N1   R$  000000000062500000000006370000000000621000000000063000000000006370000000000637000000000063812162000000000017568900000000011069034800000000000000009999123100000010000000000000BRUSIMACNPA6169
012024102402WEST3       010WESTWING    ON      NM   R$  000000000008000000000000820000000000080000000000008000000000000800000000000080000000000008200021000000000000008100000000000000653100000000000000009999123100000010000000000000BRWESTACNOR3100
012024102402WHRL3       010WHIRLPOOL   ON           R$  000000000041400000000004150000000000414000000000041400000000004140000000000413000000000041500005000000000000001500000000000000621300000000000000009999123100000010000000000000BRWHRLACNOR5129
012024102402WHRL4       010WHIRLPOOL   PN           R$  000000000043900000000004430000000000439000000000044100000000004430000000000443000000000044400012000000000000001400000000000000617600000000000000009999123100000010000000000000BRWHRLACNPR2129
012024102402WIZC3       010WIZ CO      ON      NM   R$  000000000058500000000005870000000000578000000000058100000000005840000000000584000000000058601094000000000000213800000000000124381700000000000000009999123100000010000000000000BRWIZCACNOR5102
012024102402WLMM3       010WLM IND COM ON           R$  000000000265100000000026510000000002651000000000265100000000026510000000002603000000000280000004000000000000000500000000000001325500000000000000009999123100000010000000000000BRWLMMACNOR6119
012024102402WLMM4       010WLM IND COM PN           R$  000000000312200000000031940000000003061000000000309600000000030610000000003060000000000317000016000000000000002300000000000007121700000000000000009999123100000010000000000000BRWLMMACNPR3119
012024102402AMBP3       010AMBIPAR     ON      NM   R$  000000001317500000000133500000000012670000000001304900000000131060000000013071000000001316700807000000000000167100000000002180651900000000000000009999123100000010000000000000BRAMBPACNOR6103
012024102402ANIM3       010ANIMA       ON      NM   R$  000000000024800000000002590000000000242000000000025100000000002590000000000258000000000025909068000000000010015100000000002518506900000000000000009999123100000010000000000000BRANIMACNOR6109
012024102402ARML3       010ARMAC       ON      NM   R$  000000000076400000000007690000000000742000000000074900000000007500000000000747000000000075005080000000000001554900000000001165493200000000000000009999123100000010000000000000BRARMLACNOR1113
012024102402ASAI3       010ASSAI       ON      NM   R$  000000000072300000000007490000000000715000000000073500000000007470000000000745000000000074716152000000000017525100000000012893732800000000000000009999123100000010000000000000BRASAIACNOR0106
012024102402ITSA3       010ITAUSA      ON      N1   R$  000000000106600000000010790000000001062000000000107000000000010720000000001072000000000107700237000000000000057600000000000061688600000000000000009999123100000010000000000000BRITSAACNOR0443
012024102402ITSA4       010ITAUSA      PN      N1   R$  000000000106500000000010780000000001062000000000107000000000010760000000001075000000000107630405000000000026724500000000028610288500000000000000009999123100000010000000000000BRITSAACNPR7443
012024102402ITUB3       010ITAUUNIBANCOON      N1   R$  000000000306200000000030930000000003048000000000306900000000030800000000003080000000000308202211000000000000547000000000001679017400000000000000009999123100000010000000000000BRITUBACNOR4342
012024102402MEAL3       010IMC S/A     ON      NM   R$  000000000013800000000001420000000000138000000000014000000000001420000000000141000000000014200157000000000000313800000000000044016600000000000000009999123100000010000000000000BRMEALACNOR9105
012024102402MELK3       010MELNICK     ON      NM   R$  000000000035400000000003580000000000351000000000035400000000003550000000000355000000000035700547000000000000387000000000000137046400000000000000009999123100000010000000000000BRMELKACNOR8111
012024102402MGEL4       010MANGELS INDLPN           R$  000000000083400000000008350000000000834000000000083400000000008340000000000803000000000084900004000000000000000700000000000000584100000000000000009999123100000010000000000000BRMGELACNPR3147
012024102402MGLU3       010MAGAZ LUIZA ON      NM   R$  000000000091800000000009510000000000908000000000092700000000009480000000000947000000000094821424000000000025145900000000023315073700000000000000009999123100000010000000000000BRMGLUACNOR2125
012024102402ALPA3       010ALPARGATAS  ON      N1   R$  000000000065300000000006530000000000649000000000065000000000006490000000000649000000000067000010000000000000004500000000000002926500000000000000009999123100000010000000000000BRALPAACNOR0231
012024102402ALPA4       010ALPARGATAS  PN      N1   R$  000000000071000000000007240000000000706000000000071400000000007240000000000722000000000072405528000000000001743300000000001246057300000000000000009999123100000010000000000000BRALPAACNPR7232
012024102402ALPK3       010ESTAPAR     ON      NM   R$  000000000028700000000002950000000000274000000000028100000000002790000000000279000000000028200438000000000000355300000000000099996500000000000000009999123100000010000000000000BRALPKACNOR9101
012024102402ALUP11      010ALUPAR      UNT     N2   R$  000000000289100000000029410000000002882000000000291700000000029270000000002927000000000294404647000000000000680900000000001986357700000000000000009999123100000010000000000000BRALUPCDAM15120
012024102402ALUP3       010ALUPAR      ON      N2   R$  000000000099100000000010100000000000980000000000099100000000010100000000000981000000000101000034000000000000005200000000000005155300000000000000009999123100000010000000000000BRALUPACNOR8120
012024102402ALUP4       010ALUPAR      PN      N2   R$  000000000094200000000009650000000000942000000000095500000000009650000000000961000000000096500141000000000000021400000000000020446100000000000000009999123100000010000000000000BRALUPACNPR5120
012024102402AMAR3       010LOJAS MARISAON      NM   R$  000000000009700000000000970000000000094000000000009500000000000940000000000094000000000009500423000000000000166200000000000015829200000000000000009999123100000010000000000000BRAMARACNOR4115
012024102402CEAB3       010CEA MODAS   ON      NM   R$  000000000113500000000012000000000001121000000000117100000000011970000000001193000000000119710306000000000002823700000000003306929600000000000000009999123100000010000000000000BRCEABACNOR1102
012024102402CEBR3       010CEB         ON           R$  000000000185400000000018790000000001820000000000184000000000018790000000001838000000000190400009000000000000001000000000000001840600000000000000009999123100000010000000000000BRCEBRACNOR5125
012024102402CEBR5       010CEB         PNA          R$  000000000161800000000016580000000001618000000000163800000000016580000000001615000000000165800002000000000000000200000000000000327600000000000000009999123100000010000000000000BRCEBRACNPA8124
012024102402CEBR6       010CEB         PNB          R$  000000000175100000000017700000000001745000000000176000000000017680000000001754000000000177100010000000000000001300000000000002289000000000000000009999123100000010000000000000BRCEBRACNPB6124
012024102402CEDO3       010CEDRO       ON      N1   R$  000000000270000000000027010000000002400000000000260000000000026000000000002360000000000259000004000000000000000400000000000001040100000000000000009999123100000010000000000000BRCEDOACNOR8096
012024102402CEDO4       010CEDRO       PN      N1   R$  000000000244500000000024680000000002445000000000244800000000024460000000002400000000000244600004000000000000000800000000000001958900000000000000009999123100000010000000000000BRCEDOACNPR5128
012024102402CEEB3       010COELBA      ON           R$  000000000383100000000039020000000003831000000000386700000000039020000000003901000000000399900005000000000000000500000000000001933600000000000000009999123100000010000000000000BRCEEBACNOR3200
012024102402CGAS5       010COMGAS      PNA          R$  000000001280000000000128000000000012800000000001280000000000128000000000012700000000001310000001000000000000000100000000000001280000000000000000009999123100000010000000000000BRCGASACNPA3161
012024102402CGRA4       010GRAZZIOTIN  PN           R$  000000000254800000000025490000000002516000000000252900000000025160000000002501000000000253000010000000000000001200000000000003035200000000000000009999123100000010000000000000BRCGRAACNPR9083
012024102402CLSA3       010CLEARSALE   ON      NM   R$  000000000094400000000009510000000000936000000000094200000000009490000000000944000000000094902240000000000001640900000000001546038800000000000000009999123100000010000000000000BRCLSAACNOR0100
012024102402CLSC4       010CELESC      PN      N2   R$  000000000792700000000079510000000007850000000000788200000000078990000000007850000000000790000020000000000000002600000000000020493900000000000000009999123100000010000000000000BRCLSCACNPR3132
012024102402CMIG3       010CEMIG       ON      N1   R$  000000000140200000000014390000000001402000000000142600000000014390000000001434000000000143900650000000000000129700000000000184954500000000000000009999123100000010000000000000BRCMIGACNOR6244
012024102402CMIG4       010CEMIG       PN      N1   R$  000000000110500000000011220000000001101000000000111200000000011220000000001122000000000112311331000000000008443800000000009394456000000000000000009999123100000010000000000000BRCMIGACNPR3245
012024102402EVEN3       010EVEN        ON      NM   R$  000000000061800000000006200000000000603000000000061000000000006200000000000616000000000062002095000000000000814900000000000497891500000000000000009999123100000010000000000000BREVENACNOR8120
012024102402EZTC3       010EZTEC       ON      NM   R$  000000000135100000000013700000000001335000000000135300000000013620000000001362000000000136405366000000000001599300000000002164803300000000000000009999123100000010000000000000BREZTCACNOR0126
012024102402FESA3       010FERBASA     ON      N1   R$  000000000131700000000013240000000001300000000000131600000000013000000000001227000000000129900008000000000000001000000000000001316000000000000000009999123100000010000000000000BRFESAACNOR8189
012024102402FESA4       010FERBASA     PN      N1   R$  000000000073900000000007480000000000729000000000073700000000007410000000000740000000000074501589000000000000586900000000000432776800000000000000009999123100000010000000000000BRFESAACNPR5085
012024102402FHER3       010FER HERINGERON      NM   R$  000000000036900000000003870000000000367000000000036800000000003670000000000367000000000038700034000000000000006500000000000002394800000000000000009999123100000010000000000000BRFHERACNOR5103
012024102402FIEI3       010FICA        ON           R$  000000000114900000000011490000000001149000000000114900000000011490000000001060000000000115000001000000000000000100000000000000114900000000000000009999123100000010000000000000BRFIEIACNOR2100
012024102402FIQE3       010UNIFIQUE    ON      NM   R$  000000000038400000000003870000000000378000000000038000000000003870000000000385000000000038700631000000000000935200000000000355762200000000000000009999123100000010000000000000BRFIQEACNOR5107
012024102402WEGE3       010WEG         ON      NM   R$  000000000562500000000056600000000005550000000000559500000000056270000000005622000000000562815601000000000003520800000000019699501000000000000000009999123100000010000000000000BRWEGEACNOR0225
012024102402BLAU3       010BLAU        ON      NM   R$  000000000142100000000014740000000001413000000000144800000000014740000000001457000000000147400864000000000000120300000000000174314100000000000000009999123100000010000000000000BRBLAUACNOR8115
012024102402BMEB3       010MERCANTIL   ON      N1   R$  000000000352000000000035210000000003520000000000352000000000035210000000003400000000000355000004000000000000000600000000000002112300000000000000009999123100000010000000000000BRBMEBACNOR8206
012024102402BMEB4       010MERCANTIL   PN      N1   R$  000000000383500000000040240000000003786000000000389700000000039630000000003963000000000398400212000000000000029800000000000116158100000000000000009999123100000010000000000000BRBMEBACNPR5211
012024102402BMGB4       010BANCO BMG   PN  EJ  N1   R$  000000000040900000000004150000000000406000000000040900000000004150000000000414000000000041500669000000000000423000000000000173317900000000000000009999123100000010000000000000BRBMGBACNPR0111
012024102402BMIN3       010MERC INVEST ON           R$  000000000205100000000020510000000002051000000000205100000000020510000000002052000000000219800001000000000000000100000000000000205100000000000000009999123100000010000000000000BRBMINACNOR4170
012024102402BMIN4       010MERC INVEST PN           R$  000000000164800000000016480000000001648000000000164800000000016480000000001630000000000178000001000000000000000100000000000000164800000000000000009999123100000010000000000000BRBMINACNPR1176
012024102402BMKS3       010BIC MONARK  ON           R$  000000003079900000000314500000000030702000000003083000000000307020000000030702000000003139000007000000000000000021000000000000647448000000000000009999123100000010000000000000BRBMKSACNOR9166
012024102402BMOB3       010BEMOBI TECH ON      NM   R$  000000000152400000000015270000000001496000000000151500000000015270000000001512000000000152700642000000000000103200000000000156360400000000000000009999123100000010000000000000BRBMOBACNOR7103
012024102402BOBR4       010BOMBRIL     PN           R$  000000000029500000000002950000000000282000000000028700000000002900000000000286000000000029000156000000000000050100000000000014396900000000000000009999123100000010000000000000BRBOBRACNPR3128
012024102402CSED3       010CRUZEIRO EDUON      NM   R$  000000000032300000000003450000000000316000000000033200000000003450000000000343000000000034500946000000000000409900000000000136309600000000000000009999123100000010000000000000BRCSEDACNOR9105
012024102402CSMG3       010COPASA      ON      NM   R$  000000000223000000000022610000000002207000000000223600000000022520000000002251000000000225804763000000000001122800000000002510768000000000000000009999123100000010000000000000BRCSMGACNOR5175
012024102402CSNA3       010SID NACIONALON           R$  000000000114300000000011700000000001132000000000115300000000011690000000001166000000000116908682000000000006109000000000007044692000000000000000009999123100000010000000000000BRCSNAACNOR6261
012024102402CSUD3       010CSU DIGITAL ON      NM   R$  000000000168900000000017200000000001670000000000170100000000017200000000001711000000000172000154000000000000036400000000000061933800000000000000009999123100000010000000000000BRCSUDACNOR5111
012024102402ELMD3       010ELETROMIDIA ON      NM   R$  000000000170400000000017280000000001673000000000169900000000017210000000001711000000000172100205000000000000034100000000000057957800000000000000009999123100000010000000000000BRELMDACNOR3101
012024102402JHSF3       010JHSF PART   ON      NM   R$  000000000044200000000004490000000000435000000000044000000000004490000000000447000000000044904450000000000002720100000000001197036300000000000000009999123100000010000000000000BRJHSFACNOR2140
012024102402GEPA3       010GER PARANAP ON           R$  000000000286900000000029000000000002869000000000288400000000029000000000002644000000000290000003000000000000000400000000000001153800000000000000009999123100000010000000000000BRGEPAACNOR2154
012024102402GEPA4       010GER PARANAP PN           R$  000000000293000000000029300000000002930000000000293000000000029300000000002901000000000304500001000000000000000100000000000000293000000000000000009999123100000010000000000000BRGEPAACNPR9161
012024102402GFSA3       010GAFISA      ON      NM   R$  000000000017200000000001740000000000169000000000017100000000001710000000000171000000000017201913000000000004899800000000000839202600000000000000009999123100000010000000000000BRGFSAACNOR3125
012024102402GGBR3       010GERDAU      ON      N1   R$  000000000170000000000017090000000001690000000000170600000000017080000000001700000000000170900447000000000000454300000000000775342600000000000000009999123100000010000000000000BRGGBRACNOR1193
012024102402GGBR4       010GERDAU      PN      N1   R$  000000000179500000000018040000000001783000000000179100000000017920000000001791000000000179313428000000000007632000000000013676340200000000000000009999123100000010000000000000BRGGBRACNPR8193
012024102402AALR3       010ALLIAR      ON      NM   R$  000000000140000000000014300000000001348000000000140300000000014300000000001390000000000143600238000000000000038500000000000054024600000000000000009999123100000010000000000000BRAALRACNOR6102
012024102402ABCB4       010ABC BRASIL  PN      N2   R$  000000000215100000000021520000000002126000000000213700000000021400000000002136000000000214003461000000000000551900000000001179909600000000000000009999123100000010000000000000BRABCBACNPR4146
012024102402ABEV3       010AMBEV S/A   ON           R$  000000000127200000000012890000000001268000000000128100000000012830000000001283000000000128420547000000000019295300000000024722690700000000000000009999123100000010000000000000BRABEVACNOR1128
012024102402EMAE4       010EMAE        PN           R$  000000000395200000000039520000000003952000000000395200000000039520000000003900000000000400000001000000000000000100000000000000395200000000000000009999123100000010000000000000BREMAEACNPR1126
012024102402EMBR3       010EMBRAER     ON      NM   R$  000000000491000000000050030000000004882000000000496500000000049520000000004952000000000496216567000000000004904700000000024354130200000000000000009999123100000010000000000000BREMBRACNOR4191
012024102402LAND3       010TERRASANTAPAON      NM   R$  000000000136400000000013640000000001253000000000133000000000013640000000001350000000000136400251000000000000046200000000000061481800000000000000009999123100000010000000000000BRLANDACNOR9103
012024102402LAVV3       010LAVVI       ON      NM   R$  000000000080100000000008210000000000795000000000080100000000008160000000000816000000000081901917000000000000906400000000000726809500000000000000009999123100000010000000000000BRLAVVACNOR4113
012024102402LEVE3       010METAL LEVE  ON      NM   R$  000000000302200000000030590000000003012000000000303200000000030540000000003049000000000305901677000000000000289600000000000878217900000000000000009999123100000010000000000000BRLEVEACNOR2197
012024102402KRSA3       010KORA SAUDE  ON      NM   R$  000000000048000000000005340000000000480000000000050100000000005130000000000513000000000051800145000000000000090100000000000045220900000000000000009999123100000010000000000000BRKRSAACNOR0101
012024102402LJQQ3       010QUERO-QUERO ON      NM   R$  000000000029000000000003000000000000285000000000029400000000002980000000000297000000000029808717000000000004951300000000001459154600000000000000009999123100000010000000000000BRLJQQACNOR5104
012024102402LOGG3       010LOG COM PROPON      NM   R$  000000000223500000000022770000000002197000000000224500000000022730000000002260000000000227401825000000000000235600000000000529132800000000000000009999123100000010000000000000BRLOGGACNOR7107
012024102402LOGN3       010LOG-IN      ON      NM   R$  000000000249000000000026370000000002481000000000255800000000026370000000002601000000000263700239000000000000036300000000000092858100000000000000009999123100000010000000000000BRLOGNACNOR3105
012024102402LPSB3       010LOPES BRASILON      NM   R$  000000000016200000000001670000000000162000000000016400000000001670000000000165000000000016700135000000000000053400000000000008793900000000000000009999123100000010000000000000BRLPSBACNOR0114
012024102402LREN3       010LOJAS RENNERON      NM   R$  000000000180000000000018900000000001783000000000184700000000018830000000001880000000000188330963000000000021882000000000040422823500000000000000009999123100000010000000000000BRLRENACNOR1222
012024102402NEOE3       010NEOENERGIA  ON      NM   R$  000000000190800000000019310000000001876000000000189400000000019100000000001910000000000191304383000000000001000100000000001894812300000000000000009999123100000010000000000000BRNEOEACNOR3123
012024102402ENEV3       010ENEVA       ON      NM   R$  000000000138300000000013860000000001349000000000136300000000013660000000001365000000000136728667000000000009429400000000012860568500000000000000009999123100000010000000000000BRENEVACNOR8106
012024102402ENGI11      010ENERGISA    UNT     N2   R$  000000000427300000000043380000000004233000000000428500000000043370000000004337000000000434012391000000000003034000000000013001617500000000000000009999123100000010000000000000BRENGICDAM16136
012024102402FLRY3       010FLEURY      ON      NM   R$  000000000151200000000015160000000001498000000000150900000000015140000000001513000000000151505589000000000002314400000000003493944600000000000000009999123100000010000000000000BRFLRYACNOR5139
012024102402LUPA3       010LUPATECH    ON      NM   R$  000000000015100000000001640000000000146000000000015400000000001510000000000150000000000015100365000000000000523500000000000080932000000000000000009999123100000010000000000000BRLUPAACNOR8112
012024102402LVTC3       010WDC NETWORKSON      NM   R$  000000000036500000000003760000000000359000000000036600000000003760000000000365000000000037600027000000000000008200000000000003008700000000000000009999123100000010000000000000BRLVTCACNOR4102
012024102402LWSA3       010LWSA        ON      NM   R$  000000000042900000000004470000000000419000000000043300000000004420000000000441000000000044208348000000000006634500000000002875441900000000000000009999123100000010000000000000BRLWSAACNOR8103
012024102402MATD3       010MATER DEI   ON      NM   R$  000000000042400000000004290000000000416000000000042400000000004250000000000424000000000042500423000000000000166900000000000070777600000000000000009999123100000010000000000000BRMATDACNOR4104
012024102402MBLY3       010MOBLY       ON  ES  NM   R$  000000000020300000000002080000000000200000000000020200000000002080000000000205000000000020800594000000000002831000000000000572555800000000000000009999123100000010000000000000BRMBLYACNOR5101
012024102402MDIA3       010M.DIASBRANCOON      NM   R$  000000000248200000000025610000000002482000000000253100000000025440000000002535000000000254603135000000000000660000000000001670592900000000000000009999123100000010000000000000BRMDIAACNOR7136
012024102402MDNE3       010MOURA DUBEUXON      NM   R$  000000000149800000000015210000000001477000000000150800000000015210000000001521000000000152201667000000000000475100000000000716671200000000000000009999123100000010000000000000BRMDNEACNOR9100
012024102402PDGR3       010PDG REALT   ON      NM   R$  000000000000100000000000020000000000001000000000000100000000000010000000000001000000000000200995000000000077052500000000000085531600000000000000009999123100000010000000000000BRPDGRACNOR8119
012024102402PDTC3       010PADTEC      ON      NM   R$  000000000019000000000001970000000000186000000000018900000000001940000000000188000000000019400044000000000000026100000000000004948100000000000000009999123100000010000000000000BRPDTCACNOR3101
012024102402PEAB3       010PAR AL BAHIAON           R$  000000000410000000000041000000000004000000000000402500000000040000000000004000000000000419000004000000000000000400000000000001610000000000000000009999123100000010000000000000BRPEABACNOR3133
012024102402PETR3       010PETROBRAS   ON      N2   R$  000000000390000000000039120000000003872000000000389300000000039010000000003898000000000390214300000000000007272300000000028314188800000000000000009999123100000010000000000000BRPETRACNOR9206
012024102402PETR4       010PETROBRAS   PN      N2   R$  000000000358500000000036030000000003556000000000358200000000035900000000003590000000000359139442000000000023058900000000082604023000000000000000009999123100000010000000000000BRPETRACNPR6214
012024102402PINE3       010PINE        ON  EJ  N2   R$  000000000047000000000004710000000000470000000000047000000000004710000000000471000000000048000002000000000000000400000000000000188200000000000000009999123100000010000000000000BRPINEACNOR1152
012024102402PINE4       010PINE        PN  EJ  N2   R$  000000000046500000000004730000000000460000000000046500000000004700000000000469000000000047500235000000000000120500000000000056056800000000000000009999123100000010000000000000BRPINEACNPR8152
012024102402PLPL3       010PLANOEPLANO ON      NM   R$  000000000137600000000014000000000001337000000000137000000000013960000000001396000000000139803308000000000000984400000000001349201200000000000000009999123100000010000000000000BRPLPLACNOR5104
012024102402PNVL3       010DIMED       ON      NM   R$  000000000100000000000010030000000000979000000000098900000000010030000000001003000000000100401518000000000000330700000000000327328600000000000000009999123100000010000000000000BRPNVLACNOR9208
012024102402POMO3       010MARCOPOLO   ON      N2   R$  000000000065400000000006540000000000635000000000064600000000006520000000000649000000000065201104000000000000355300000000000229716900000000000000009999123100000010000000000000BRPOMOACNOR0099
012024102402POMO4       010MARCOPOLO   PN      N2   R$  000000000086000000000008610000000000833000000000084400000000008440000000000844000000000084612657000000000008759600000000007395243400000000000000009999123100000010000000000000BRPOMOACNPR7099
012024102402PORT3       010WILSON SONS ON  ED  NM   R$  000000000159300000000015990000000001578000000000158400000000015800000000001580000000000159005325000000000003064700000000004855750800000000000000009999123100000010000000000000BRPORTACNOR8110
012024102402POSI3       010POSITIVO TECON      NM   R$  000000000065000000000006540000000000636000000000064500000000006490000000000648000000000065204416000000000001700500000000001097439000000000000000009999123100000010000000000000BRPOSIACNOR9116
012024102402PRIO3       010PETRORIO    ON      NM   R$  000000000414400000000042060000000004107000000000416200000000041960000000004196000000000419818225000000000005877100000000024461088500000000000000009999123100000010000000000000BRPRIOACNOR1107
012024102402GGPS3       010GPS         ON      NM   R$  000000000178800000000017900000000001748000000000177300000000017830000000001776000000000178609167000000000004132800000000007329481100000000000000009999123100000010000000000000BRGGPSACNOR9103
012024102402GMAT3       010GRUPO MATEUSON      NM   R$  000000000074400000000007480000000000730000000000074000000000007430000000000742000000000074407409000000000004547300000000003368900400000000000000009999123100000010000000000000BRGMATACNOR7103
012024102402GOAU3       010GERDAU MET  ON      N1   R$  000000000100500000000010080000000000995000000000100100000000010070000000001003000000000100700226000000000000049900000000000049962400000000000000009999123100000010000000000000BRGOAUACNOR1268
012024102402GOAU4       010GERDAU MET  PN      N1   R$  000000000101000000000010100000000001001000000000100600000000010080000000001008000000000101009464000000000007069400000000007112033100000000000000009999123100000010000000000000BRGOAUACNPR8269
012024102402ITUB4       010ITAUUNIBANCOPN      N1   R$  000000000353800000000035830000000003529000000000356200000000035700000000003569000000000357041308000000000021391700000000076214442100000000000000009999123100000010000000000000BRITUBACNPR1342
012024102402ATOM3       010ATOMPAR     ON           R$  000000000038100000000004380000000000380000000000041300000000004160000000000408000000000041600596000000000000364000000000000150363400000000000000009999123100000010000000000000BRATOMACNOR1106
012024102402AURE3       010AUREN       ON      NM   R$  000000000101900000000010310000000001013000000000102400000000010260000000001025000000000102706221000000000006272200000000006423546200000000000000009999123100000010000000000000BRAUREACNOR9104
012024102402AVLL3       010ALPHAVILLE  ON      NM   R$  000000000029000000000002980000000000287000000000029500000000002980000000000293000000000029800006000000000000001000000000000000295300000000000000009999123100000010000000000000BRAVLLACNOR5103
012024102402AZEV3       010AZEVEDO     ON           R$  000000000012700000000001290000000000123000000000012500000000001270000000000127000000000012801815000000000000590000000000000073846500000000000000009999123100000010000000000000BRAZEVACNOR0121
012024102402AZEV4       010AZEVEDO     PN           R$  000000000012600000000001290000000000124000000000012600000000001290000000000128000000000012900543000000000001631100000000000206631500000000000000009999123100000010000000000000BRAZEVACNPR7121
012024102402AZUL4       010AZUL        PN      N2   R$  000000000054800000000005680000000000539000000000055200000000005510000000000550000000000055114529000000000024840800000000013714852700000000000000009999123100000010000000000000BRAZULACNPR4103
012024102402CMIN3       010CSNMINERACAOON      N2   R$  000000000058500000000005880000000000578000000000058200000000005840000000000584000000000058506493000000000004724200000000002753566900000000000000009999123100000010000000000000BRCMINACNOR2112
012024102402COCE5       010COELCE      PNA          R$  000000000268200000000028000000000002665000000000274800000000028000000000002723000000000280200025000000000000002800000000000007694700000000000000009999123100000010000000000000BRCOCEACNPA3147
012024102402COGN3       010COGNA ON    ON      NM   R$  000000000014100000000001520000000000139000000000014500000000001480000000000148000000000014912778000000000047762600000000006968334300000000000000009999123100000010000000000000BRCOGNACNOR2105
012024102402CURY3       010CURY S/A    ON      NM   R$  000000000237500000000024610000000002351000000000241100000000024410000000002440000000000244510802000000000002550200000000006149978200000000000000009999123100000010000000000000BRCURYACNOR3110
012024102402CVCB3       010CVC BRASIL  ON      NM   R$  000000000018900000000001980000000000187000000000019300000000001980000000000197000000000019804839000000000009012300000000001739576300000000000000009999123100000010000000000000BRCVCBACNOR1116
012024102402RAIZ4       010RAIZEN      PN      N2   R$  000000000028800000000002950000000000284000000000028900000000002920000000000292000000000029310952000000000012679700000000003675596000000000000000009999123100000010000000000000BRRAIZACNPR6111
012024102402RANI3       010IRANI       ON      NM   R$  000000000073000000000007400000000000730000000000073300000000007380000000000738000000000073902274000000000000833900000000000611987000000000000000009999123100000010000000000000BRRANIACNOR5073
012024102402RAPT3       010RANDON PART ON      N1   R$  000000000092600000000009300000000000914000000000092400000000009300000000000930000000000093200042000000000000017100000000000015802400000000000000009999123100000010000000000000BRRAPTACNOR7163
012024102402RAPT4       010RANDON PART PN      N1   R$  000000000109000000000010950000000001078000000000108700000000010930000000001093000000000109403591000000000001296000000000001410033900000000000000009999123100000010000000000000BRRAPTACNPR4163
012024102402DEXP4       010DEXXOS PAR  PN      N1   R$  000000000087800000000008780000000000878000000000087800000000008780000000000878000000000089500001000000000000000100000000000000087800000000000000009999123100000010000000000000BRDEXPACNPR8105
012024102402DIRR3       010DIRECIONAL  ON      NM   R$  000000000301900000000030900000000002976000000000304500000000030710000000003070000000000307606417000000000001344300000000004093977200000000000000009999123100000010000000000000BRDIRRACNOR0119
012024102402DMVF3       010D1000VFARMA ON      NM   R$  000000000063000000000006440000000000630000000000063700000000006420000000000638000000000064200175000000000000035800000000000022818700000000000000009999123100000010000000000000BRDMVFACNOR9100
012024102402DOHL4       010DOHLER      PN           R$  000000000041000000000004100000000000401000000000040700000000004100000000000402000000000041000005000000000000000500000000000000203600000000000000009999123100000010000000000000BRDOHLACNPR9066
012024102402DOTZ3       010DOTZ SA     ON      NM   R$  000000000054300000000005540000000000539000000000054600000000005420000000000542000000000055000041000000000000008800000000000004807300000000000000009999123100000010000000000000BRDOTZACNOR7101
012024102402DTCY3       010DTCOM-DIRECTON           R$  000000000041000000000004100000000000410000000000041000000000004100000000000370000000000041000001000000000000000100000000000000041000000000000000009999123100000010000000000000BRDTCYACNOR5109
012024102402JSLG3       010JSL         ON      NM   R$  000000000075000000000007700000000000745000000000075400000000007700000000000760000000000077001214000000000000291600000000000220122600000000000000009999123100000010000000000000BRJSLGACNOR2121
012024102402KEPL3       010KEPLER WEBERON      NM   R$  000000000091600000000009330000000000910000000000092200000000009290000000000928000000000092903031000000000000854200000000000787593100000000000000009999123100000010000000000000BRKEPLACNOR1064
012024102402QUAL3       010QUALICORP   ON      NM   R$  000000000021600000000002200000000000212000000000021600000000002170000000000216000000000021801891000000000002715600000000000587521100000000000000009999123100000010000000000000BRQUALACNOR6120
012024102402DASA3       010DASA        ON      NM   R$  000000000026900000000002750000000000267000000000027000000000002700000000000268000000000027001502000000000000641100000000000173511100000000000000009999123100000010000000000000BRDASAACNOR1123
012024102402HYPE3       010HYPERA      ON      NM   R$  000000000253300000000028590000000002531000000000272700000000027740000000002773000000000277476291000000000037160400000000101346534500000000000000009999123100000010000000000000BRHYPEACNOR0144
012024102402JALL3       010JALLESMACHADON      NM   R$  000000000060700000000006090000000000602000000000060600000000006090000000000606000000000060901778000000000000517000000000000313303300000000000000009999123100000010000000000000BRJALLACNOR0106
012024102402JBSS3       010JBS         ON      NM   R$  000000000350000000000035320000000003445000000000348900000000034750000000003471000000000347524661000000000008126000000000028355008100000000000000009999123100000010000000000000BRJBSSACNOR8122
012024102402MRSA3B      010MRS LOGIST  ON      MB   R$  000000000290000000000029000000000002900000000000290000000000029000000000002700000000000300000001000000000000000400000000000001160000000000000000009999123100000010000000000000BRMRSAACNOR6125
012024102402MRVE3       010MRV         ON      NM   R$  000000000069600000000007090000000000684000000000069600000000007070000000000707000000000070812203000000000009650500000000006722435000000000000000009999123100000010000000000000BRMRVEACNOR2127
012024102402BEEF3       010MINERVA     ON      NM   R$  000000000055700000000005640000000000553000000000055600000000005550000000000555000000000055710268000000000006271300000000003491347200000000000000009999123100000010000000000000BRBEEFACNOR6116
012024102402CPLE3       010COPEL       ON      N2   R$  000000000087500000000008790000000000861000000000086900000000008740000000000873000000000087408854000000000012061600000000010484002500000000000000009999123100000010000000000000BRCPLEACNOR8150
012024102402CPLE6       010COPEL       PNB     N2   R$  000000000098200000000009840000000000966000000000097400000000009800000000000979000000000098018062000000000016283000000000015867709200000000000000009999123100000010000000000000BRCPLEACNPB9147
012024102402CRFB3       010CARREFOUR BRON      NM   R$  000000000073900000000007470000000000716000000000073300000000007470000000000737000000000074718661000000000018246400000000013379282900000000000000009999123100000010000000000000BRCRFBACNOR2116
012024102402DESK3       010DESKTOP     ON      NM   R$  000000000131100000000013630000000001306000000000134400000000013610000000001350000000000136100471000000000000077300000000000103913900000000000000009999123100000010000000000000BRDESKACNOR2104
012024102402DEXP3       010DEXXOS PAR  ON      N1   R$  000000000088000000000008890000000000863000000000087200000000008630000000000863000000000088900384000000000000091700000000000079969000000000000000009999123100000010000000000000BRDEXPACNOR1105
012024102402ONCO3       010ONCOCLINICASON      NM   R$  000000000046500000000004700000000000457000000000046300000000004650000000000465000000000046901839000000000001600100000000000741384800000000000000009999123100000010000000000000BRONCOACNOR6101
012024102402OPCT3       010OCEANPACT   ON      NM   R$  000000000064400000000006700000000000638000000000065700000000006700000000000660000000000067101621000000000000587900000000000386625300000000000000009999123100000010000000000000BROPCTACNOR0100
012024102402ORVR3       010ORIZON      ON      NM   R$  000000000478000000000047800000000004622000000000467300000000046750000000004675000000000468103368000000000000769800000000003597895600000000000000009999123100000010000000000000BRORVRACNOR0101
012024102402PATI3       010PANATLANTICAON  ED       R$  000000000265100000000028550000000002651000000000277400000000026570000000002655000000000285400005000000000000000500000000000001387100000000000000009999123100000010000000000000BRPATIACNOR6067
012024102402PCAR3       010P.ACUCAR-CBDON      NM   R$  000000000033300000000003360000000000321000000000032600000000003230000000000323000000000032410368000000000014670500000000004784872500000000000000009999123100000010000000000000BRPCARACNOR3167
012024102402DXCO3       010DEXCO       ON      NM   R$  000000000080000000000008430000000000795000000000082800000000008400000000000839000000000084013382000000000005570600000000004616850700000000000000009999123100000010000000000000BRDXCOACNOR8105
012024102402EALT4       010ACO ALTONA  PN           R$  000000000132100000000013750000000001320000000000133000000000013360000000001332000000000134100040000000000000007200000000000009578900000000000000009999123100000010000000000000BREALTACNPR1138
012024102402ECOR3       010ECORODOVIAS ON      NM   R$  000000000071000000000007240000000000700000000000071200000000007240000000000720000000000072404655000000000003322200000000002368627000000000000000009999123100000010000000000000BRECORACNOR8120
012024102402RCSL3       010RECRUSUL    ON           R$  000000000042300000000004250000000000414000000000041900000000004210000000000420000000000042100677000000000000342500000000000143554500000000000000009999123100000010000000000000BRRCSLACNOR4134
012024102402RCSL4       010RECRUSUL    PN           R$  000000000016300000000001890000000000155000000000017400000000001820000000000182000000000018307012000000000006007500000000001049961200000000000000009999123100000010000000000000BRRCSLACNPR1134
012024102402RDNI3       010RNI         ON      NM   R$  000000000030900000000003090000000000302000000000030500000000003090000000000305000000000031000008000000000000001000000000000000305700000000000000009999123100000010000000000000BRRDNIACNOR9116
012024102402RDOR3       010REDE D OR   ON      NM   R$  000000000291600000000030020000000002910000000000297100000000029960000000002995000000000299709812000000000002696300000000008012089300000000000000009999123100000010000000000000BRRDORACNOR8114
012024102402RECV3       010PETRORECSA  ON      NM   R$  000000000169200000000017170000000001679000000000169400000000017070000000001707000000000170905242000000000001430200000000002424188800000000000000009999123100000010000000000000BRRECVACNOR3107
012024102402REDE3       010REDE ENERGIAON           R$  000000000067900000000006820000000000679000000000068000000000006800000000000679000000000068100007000000000000000800000000000000544700000000000000009999123100000010000000000000BRREDEACNOR7128
012024102402RENT3       010LOCALIZA    ON      NM   R$  000000000422900000000043650000000004228000000000429400000000043500000000004350000000000435418039000000000005447500000000023396940900000000000000009999123100000010000000000000BRRENTACNOR4197
012024102402TASA3       010TAURUS ARMASON      N2   R$  000000000100100000000010180000000001000000000000100500000000010060000000001006000000000102000035000000000000007700000000000007740500000000000000009999123100000010000000000000BRTASAACNOR7104
012024102402TASA4       010TAURUS ARMASPN      N2   R$  000000000098100000000009840000000000970000000000097500000000009770000000000974000000000097701374000000000000270100000000000263347700000000000000009999123100000010000000000000BRTASAACNPR4104
012024102402TCSA3       010TECNISA     ON      NM   R$  000000000014700000000001490000000000140000000000014300000000001400000000000139000000000014000222000000000000186700000000000026801700000000000000009999123100000010000000000000BRTCSAACNOR3112
012024102402HAGA3       010HAGA S/A    ON           R$  000000000025900000000002590000000000259000000000025900000000002590000000000253000000000025900001000000000000000100000000000000025900000000000000009999123100000010000000000000BRHAGAACNOR7103
012024102402HAGA4       010HAGA S/A    PN           R$  000000000012900000000001300000000000122000000000012500000000001280000000000125000000000012800109000000000000085200000000000010664900000000000000009999123100000010000000000000BRHAGAACNPR4103
012024102402HAPV3       010HAPVIDA     ON      NM   R$  000000000038100000000003820000000000369000000000037400000000003780000000000377000000000037830061000000000082475900000000030903264400000000000000009999123100000010000000000000BRHAPVACNOR4115
012024102402MILS3       010MILLS       ON      NM   R$  000000000104400000000010630000000001039000000000105000000000010600000000001058000000000106202839000000000000715400000000000751796100000000000000009999123100000010000000000000BRMILSACNOR2128
012024102402MLAS3       010MULTILASER  ON      NM   R$  000000000015700000000001650000000000154000000000016000000000001650000000000164000000000016502145000000000001997000000000000319532800000000000000009999123100000010000000000000BRMLASACNOR9101
012024102402MNDL3       010MUNDIAL     ON           R$  000000000165000000000016500000000001650000000000165000000000016500000000001600000000000168000001000000000000000200000000000000330000000000000000009999123100000010000000000000BRMNDLACNOR4109
012024102402MNPR3       010MINUPAR     ON           R$  000000000200000000000020950000000001961000000000200000000000019610000000001960000000000201400018000000000000003900000000000007800600000000000000009999123100000010000000000000BRMNPRACNOR5122
012024102402MOVI3       010MOVIDA      ON      NM   R$  000000000057700000000006040000000000574000000000058900000000006030000000000602000000000060305431000000000003756100000000002213837100000000000000009999123100000010000000000000BRMOVIACNOR0122
012024102402EGIE3       010ENGIE BRASILON      NM   R$  000000000409400000000041380000000004080000000000410500000000041260000000004115000000000412604233000000000000710000000000002914957300000000000000009999123100000010000000000000BREGIEACNOR9127
012024102402GRND3       010GRENDENE    ON      NM   R$  000000000052600000000005310000000000521000000000052500000000005310000000000527000000000053103663000000000001161600000000000610443700000000000000009999123100000010000000000000BRGRNDACNOR3175
012024102402TECN3       010TECHNOS     ON      NM   R$  000000000056500000000005790000000000555000000000056800000000005550000000000555000000000057000290000000000000280300000000000159346000000000000000009999123100000010000000000000BRTECNACNOR6109
012024102402TELB3       010TELEBRAS    ON           R$  000000000144000000000014400000000001395000000000142300000000014350000000001390000000000143500003000000000000000300000000000000427000000000000000009999123100000010000000000000BRTELBACNOR2140
012024102402TELB4       010TELEBRAS    PN           R$  000000000091200000000009350000000000905000000000091300000000009100000000000911000000000092600005000000000000000700000000000000639400000000000000009999123100000010000000000000BRTELBACNPR9140
012024102402TEND3       010TENDA       ON      NM   R$  000000000143400000000014530000000001399000000000142900000000014500000000001450000000000145109046000000000002377900000000003398019900000000000000009999123100000010000000000000BRTENDACNOR4111
012024102402TFCO4       010TRACK FIELD PN      N2   R$  000000000104100000000010700000000001033000000000105200000000010700000000001053000000000107000937000000000000309200000000000325372500000000000000009999123100000010000000000000BRTFCOACNPR8115
012024102402TGMA3       010TEGMA       ON      NM   R$  000000000287900000000029360000000002840000000000289100000000029250000000002925000000000294001669000000000000620800000000001795112900000000000000009999123100000010000000000000BRTGMAACNOR7145
012024102402TIMS3       010TIM         ON      NM   R$  000000000173000000000017310000000001715000000000172400000000017260000000001726000000000172809878000000000004505300000000007768659300000000000000009999123100000010000000000000BRTIMSACNOR5118
012024102402MRFG3       010MARFRIG     ON      NM   R$  000000000145200000000014560000000001432000000000144300000000014420000000001442000000000144309916000000000003196600000000004613679200000000000000009999123100000010000000000000BRMRFGACNOR0116
012024102402PRNR3       010PRINER      ON      NM   R$  000000000123600000000012720000000001230000000000125200000000012610000000001261000000000126701147000000000000433500000000000543024200000000000000009999123100000010000000000000BRPRNRACNOR4109
012024102402PSSA3       010PORTO SEGUROON      NM   R$  000000000378600000000038470000000003756000000000381900000000038400000000003836000000000384408991000000000003074800000000011744151500000000000000009999123100000010000000000000BRPSSAACNOR7156
012024102402PTBL3       010PORTOBELLO  ON      NM   R$  000000000043500000000004480000000000428000000000043600000000004410000000000440000000000044201161000000000000254300000000000111110200000000000000009999123100000010000000000000BRPTBLACNOR8132
012024102402PTNT3       010PETTENATI   ON           R$  000000000094000000000009430000000000911000000000092800000000009200000000000000000000000092000022000000000000002600000000000002415000000000000000009999123100000010000000000000BRPTNTACNOR6042
012024102402PTNT4       010PETTENATI   PN           R$  000000000066900000000006970000000000644000000000066300000000006440000000000635000000000064400062000000000000020300000000000013467100000000000000009999123100000010000000000000BRPTNTACNPR3047
012024102402GUAR3       010GUARARAPES  ON      NM   R$  000000000079200000000008280000000000782000000000081000000000008280000000000822000000000082802681000000000000725900000000000588677300000000000000009999123100000010000000000000BRGUARACNOR4173
012024102402TOTS3       010TOTVS       ON      NM   R$  000000000287500000000028750000000002814000000000284500000000028630000000002855000000000286317646000000000003450400000000009817486900000000000000009999123100000010000000000000BRTOTSACNOR8145
012024102402TPIS3       010TRIUNFO PARTON      NM   R$  000000000069400000000007150000000000686000000000069600000000007020000000000695000000000070200389000000000000177400000000000123622100000000000000009999123100000010000000000000BRTPISACNOR8118
012024102402TRAD3       010TC          ON      NM   R$  000000000058000000000005860000000000542000000000056000000000005750000000000574000000000057500460000000000000146400000000000082018800000000000000009999123100000010000000000000BRTRADACNOR3102
012024102402TRIS3       010TRISUL      ON      NM   R$  000000000051700000000005270000000000511000000000051800000000005270000000000519000000000052701502000000000000669800000000000347286200000000000000009999123100000010000000000000BRTRISACNOR4118
012024102402TRPL3       010TRAN PAULISTON      N1   R$  000000000308600000000030860000000003085000000000308500000000030850000000003076000000000312500004000000000000000500000000000001542600000000000000009999123100000010000000000000BRTRPLACNOR4185
012024102402VITT3       010VITTIA      ON  EJ  NM   R$  000000000053600000000005490000000000531000000000053800000000005490000000000543000000000054901204000000000000364900000000000196588800000000000000009999123100000010000000000000BRVITTACNOR4108
012024102402VIVA3       010VIVARA S.A. ON      NM   R$  000000000246800000000025530000000002450000000000251800000000025500000000002548000000000255111617000000000002541800000000006401120700000000000000009999123100000010000000000000BRVIVAACNOR0107
012024102402VIVR3       010VIVER       ON      NM   R$  000000000016000000000001630000000000160000000000016100000000001610000000000160000000000016200079000000000000049000000000000007898200000000000000009999123100000010000000000000BRVIVRACNOR4123
012024102402VIVT3       010TELEF BRASILON           R$  000000000538400000000054600000000005350000000000540800000000053770000000005377000000000539011625000000000003037500000000016429501100000000000000009999123100000010000000000000BRVIVTACNOR0184
012024102402SYNE3       010SYN PROP TECON      NM   R$  000000000081200000000008210000000000802000000000081000000000008210000000000813000000000082200578000000000000186800000000000151439000000000000000009999123100000010000000000000BRSYNEACNOR2103
012024102402NGRD3       010NEOGRID     ON      NM   R$  000000000253400000000025340000000002401000000000244500000000024100000000002410000000000243400124000000000000023000000000000056244100000000000000009999123100000010000000000000BRNGRDACNOR3106
012024102402NINJ3       010GETNINJAS   ON      NM   R$  000000000045500000000004600000000000446000000000045000000000004460000000000441000000000045400049000000000000155000000000000069899200000000000000009999123100000010000000000000BRNINJACNOR5101
012024102402NORD3       010NORDON MET  ON           R$  000000000075000000000007500000000000733000000000073800000000007330000000000733000000000079900003000000000000000300000000000000221600000000000000009999123100000010000000000000BRNORDACNOR7135
012024102402NTCO3       010GRUPO NATURAON      NM   R$  000000000140300000000014260000000001386000000000140600000000014260000000001420000000000142621501000000000015754200000000022153022600000000000000009999123100000010000000000000BRNTCOACNOR5106
012024102402B3SA3       010B3          ON      NM   R$  000000000106200000000010780000000001051000000000106200000000010780000000001073000000000107827106000000000034038300000000036170199600000000000000009999123100000010000000000000BRB3SAACNOR6134
012024102402BPAN4       010BANCO PAN   PN      N1   R$  000000000090200000000009150000000000897000000000090800000000009080000000000907000000000090803641000000000000845200000000000767621900000000000000009999123100000010000000000000BRBPANACNPR1115
012024102402BRAP3       010BRADESPAR   ON      N1   R$  000000000174900000000017570000000001740000000000174900000000017480000000001748000000000175800183000000000000039400000000000068919600000000000000009999123100000010000000000000BRBRAPACNOR5148
012024102402BRAP4       010BRADESPAR   PN      N1   R$  000000000186900000000018830000000001864000000000187700000000018810000000001880000000000188407210000000000002678800000000005028985600000000000000009999123100000010000000000000BRBRAPACNPR2148
012024102402SHOW3       010TIME FOR FUNON      NM   R$  000000000009600000000000960000000000093000000000009400000000000930000000000093000000000009400193000000000000061800000000000005830900000000000000009999123100000010000000000000BRSHOWACNOR7105
012024102402SHUL4       010SCHULZ      PN           R$  000000000061000000000006190000000000608000000000061300000000006160000000000615000000000061700653000000000000288000000000000176611600000000000000009999123100000010000000000000BRSHULACNPR4157
012024102402SIMH3       010SIMPAR      ON      NM   R$  000000000052200000000005430000000000515000000000052800000000005410000000000540000000000054205207000000000002683700000000001418898300000000000000009999123100000010000000000000BRSIMHACNOR0107
012024102402SLCE3       010SLC AGRICOLAON      NM   R$  000000000171700000000017380000000001714000000000172600000000017380000000001735000000000173805927000000000001578400000000002724587500000000000000009999123100000010000000000000BRSLCEACNOR2125
012024102402BBSE3       010BBSEGURIDADEON      NM   R$  000000000342500000000034380000000003400000000000342300000000034360000000003433000000000343713630000000000003571000000000012224348900000000000000009999123100000010000000000000BRBBSEACNOR5125
012024102402SAPR4       010SANEPAR     PN      N2   R$  000000000055300000000005550000000000547000000000055000000000005550000000000552000000000055502113000000000001064900000000000586086600000000000000009999123100000010000000000000BRSAPRACNPR6159
012024102402SBFG3       010GRUPO SBF   ON      NM   R$  000000000136600000000014230000000001356000000000140100000000014230000000001420000000000142409215000000000002232100000000003128303100000000000000009999123100000010000000000000BRSBFGACNOR1103
012024102402SBSP3       010SABESP      ON      NM   R$  000000000902000000000090880000000008921000000000900900000000090710000000009050000000000907313740000000000002287900000000020612513000000000000000009999123100000010000000000000BRSBSPACNOR5161
012024102402SCAR3       010SAO CARLOS  ON      NM   R$  000000000205000000000020870000000002050000000000207100000000020670000000002067000000000212000006000000000000000600000000000001243000000000000000009999123100000010000000000000BRSCARACNOR7131
012024102402SEER3       010SER EDUCA   ON      NM   R$  000000000057900000000006030000000000569000000000058800000000006030000000000603000000000060400936000000000000388000000000000228475400000000000000009999123100000010000000000000BRSEERACNOR5119
012024102402VALE3       010VALE        ON      NM   R$  000000000593400000000059700000000005921000000000595200000000059700000000005967000000000597127987000000000011331700000000067449264600000000000000009999123100000010000000000000BRVALEACNOR0211
012024102402ZAMP3       010ZAMP S.A.   ON           R$  000000000025000000000002570000000000245000000000025200000000002520000000000252000000000025401384000000000000531800000000000134095700000000000000009999123100000010000000000000BRZAMPACNOR5101
012024102402RSUL4       010RIOSULENSE  PN           R$  000000000601600000000061900000000006016000000000610600000000061800000000005970000000000618900011000000000000001500000000000009160400000000000000009999123100000010000000000000BRRSULACNPR3114
012024102402SANB11      010SANTANDER BRUNT EDJ      R$  000000000284100000000028850000000002838000000000286700000000028630000000002863000000000287508194000000000001916900000000005497572000000000000000009999123100000010000000000000BRSANBCDAM13166
012024102402SANB3       010SANTANDER BRON  EDJ      R$  000000000135000000000013730000000001348000000000136300000000013590000000001358000000000137000329000000000000047200000000000064378500000000000000009999123100000010000000000000BRSANBACNOR8173
012024102402SANB4       010SANTANDER BRPN  EDJ      R$  000000000149000000000015100000000001486000000000150000000000015040000000001498000000000150800291000000000000044600000000000066900900000000000000009999123100000010000000000000BRSANBACNPR5173
012024102402SAPR11      010SANEPAR     UNT     N2   R$  000000000272800000000027430000000002701000000000272300000000027430000000002731000000000274505031000000000000818500000000002229154100000000000000009999123100000010000000000000BRSAPRCDAM13118
012024102402SAPR3       010SANEPAR     ON      N2   R$  000000000052100000000005280000000000516000000000052100000000005280000000000523000000000052800287000000000000061200000000000031889900000000000000009999123100000010000000000000BRSAPRACNOR9159
012024102402UNIP3       010UNIPAR      ON           R$  000000000459400000000046190000000004500000000000454300000000045000000000004500000000000460300082000000000000012000000000000054519000000000000000009999123100000010000000000000BRUNIPACNOR7206
012024102402UNIP5       010UNIPAR      PNA          R$  000000000480000000000048000000000004800000000000480000000000048000000000004660000000000480000002000000000000000200000000000000960000000000000000009999123100000010000000000000BRUNIPACNPA0208
012024102402UNIP6       010UNIPAR      PNB          R$  000000000451900000000045780000000004493000000000452600000000045280000000004528000000000454300997000000000000147600000000000668102500000000000000009999123100000010000000000000BRUNIPACNPB8206
012024102407TXRX4       010TEX RENAUX  PN           R$  000000000022700000000002270000000000216000000000022100000000002160000000000216000000000022700002000000000000000200000000000000044300000000000000009999123100000010000000000000BRTXRXACNPR0142
012024102407NUTR3       010NUTRIPLANT  ON      MA   R$  000000000045000000000004500000000000433000000000043700000000004330000000000426000000000044300023000000000000003900000000000001704300000000000000009999123100000010000000000000BRNUTRACNOR0104
012024102407SEQL3       010SEQUOIA LOG ON      NM   R$  000000000044000000000005060000000000430000000000046400000000004320000000000432000000000043403893000000000002852900000000001326137500000000000000009999123100000010000000000000BRSEQLACNOR2103
012024102408HOOT4       010HOTEIS OTHONPN           R$  000000000022800000000002290000000000228000000000022800000000002290000000000227000000000023200003000000000000000900000000000000205500000000000000009999123100000010000000000000BRHOOTACNPR9015
012024102408RNEW11      010RENOVA      UNT     N2   R$  000000000033000000000003500000000000329000000000033800000000003470000000000341000000000034800021000000000000006700000000000002268900000000000000009999123100000010000000000000BRRNEWCDAM15110
012024102408RNEW3       010RENOVA      ON      N2   R$  000000000010900000000001160000000000108000000000011300000000001150000000000115000000000011600158000000000000119000000000000013556000000000000000009999123100000010000000000000BRRNEWACNOR8110
012024102408RNEW4       010RENOVA      PN      N2   R$  000000000010900000000001190000000000108000000000011400000000001170000000000114000000000011700295000000000000317900000000000036277300000000000000009999123100000010000000000000BRRNEWACNPR5110
012024102408AGXY3       010AGROGALAXY  ON      NM   R$  000000000004800000000000480000000000042000000000004400000000000440000000000044000000000004500342000000000000662500000000000029352900000000000000009999123100000010000000000000BRAGXYACNOR4103
012024102408OIBR3       010OI          ON      N1   R$  000000000045100000000004510000000000444000000000044700000000004490000000000449000000000045000300000000000000112900000000000050519700000000000000009999123100000010000000000000BROIBRACNOR1112
012024102408OIBR4       010OI          PN      N1   R$  000000000104700000000010760000000001047000000000105400000000010470000000001047000000000107500004000000000000000400000000000000421700000000000000009999123100000010000000000000BROIBRACNPR8111
012024102408AMER3       010AMERICANAS  ON      NM   R$  000000000037900000000003790000000000369000000000037400000000003780000000000377000000000037801516000000000001604100000000000600523200000000000000009999123100000010000000000000BRAMERACNOR6103
012024102408CTSA3       010SANTANENSE  ON           R$  000000000020400000000002040000000000204000000000020400000000002040000000000204000000000024400005000000000000001500000000000000306000000000000000009999123100000010000000000000BRCTSAACNOR3062
012024102408JFEN3       010JOAO FORTES ON           R$  000000000002700000000000270000000000025000000000002600000000000260000000000026000000000002700208000000000000864500000000000022527800000000000000009999123100000010000000000000BRJFENACNOR0059
012024102408LIGT3       010LIGHT S/A   ON      NM   R$  000000000064000000000006590000000000620000000000062600000000006220000000000622000000000062501697000000000000456100000000000285740000000000000000009999123100000010000000000000BRLIGTACNOR2124
012024102408PMAM3       010PARANAPANEMAON      NM   R$  000000000011000000000001200000000000108000000000011400000000001170000000000116000000000011700190000000000000183100000000000021017900000000000000009999123100000010000000000000BRPMAMACNOR3040
012024102408ATMP3       010ATMASA      ON           R$  000000000013700000000001370000000000134000000000013400000000001350000000000135000000000013700022000000000000023200000000000003123700000000000000009999123100000010000000000000BRATMPACNOR8100
012024102408CTSA4       010SANTANENSE  PN           R$  000000000011000000000001100000000000110000000000011000000000001100000000000100000000000011100011000000000000005800000000000000638000000000000000009999123100000010000000000000BRCTSAACNPR0062
012024102408BDLL4       010BARDELLA    PN           R$  000000000090000000000009000000000000900000000000090000000000009000000000000900000000000096000001000000000000000300000000000000270000000000000000009999123100000010000000000000BRBDLLACNPR8151
012024102408OSXB3       010OSX BRASIL  ON      NM   R$  000000000045000000000004520000000000428000000000044200000000004410000000000432000000000044600009000000000000001100000000000000486400000000000000009999123100000010000000000000BROSXBACNOR8109
012024102408TEKA4       010TEKA        PN           R$  000000000264400000000026440000000002644000000000264400000000026440000000001640000000000309900001000000000000000100000000000000264400000000000000009999123100000010000000000000BRTEKAACNPR3140
012024102408NEXP3       010NEXPE       ON           R$  000000000044700000000004470000000000447000000000044700000000004470000000000419000000000044800001000000000000000100000000000000044700000000000000009999123100000010000000000000BRNEXPACNOR0101
012024102408RPMG3       010PET MANGUINHON           R$  000000000029300000000002980000000000292000000000029400000000002940000000000294000000000029600024000000000000004300000000000001267500000000000000009999123100000010000000000000BRRPMGACNOR9194
012024102408RSID3       010ROSSI RESID ON      NM   R$  000000000029600000000002960000000000285000000000028900000000002910000000000291000000000029300057000000000000049700000000000014377300000000000000009999123100000010000000000000BRRSIDACNOR8120
012024102410HBSA1       010HIDROVIAS   DIR ORD NM   R$  000000000000400000000000040000000000002000000000000200000000000030000000000002000000000000300341000000000000287200000000000000790400000000000000009999123100000010000000000000BRHBSAD01OR5100
012024102410MBLY1       010MOBLY       DIR ORD NM   R$  000000000000600000000000100000000000001000000000000100000000000020000000000001000000000000200121000000000002497800000000000004432600000000000000009999123100000010000000000000BRMBLYD01OR0100
012024102410MBLY11      010MOBLY       DIR     NM   R$  000000000000200000000000090000000000002000000000000400000000000040000000000003000000000000400078000000000000103500000000000000475600000000000000009999123100000010000000000000BRMBLYD01M18100
012024102410PINE1       010PINE        DIR ORD N2   R$  000000000006300000000000820000000000062000000000007200000000000620000000000060000000000006600026000000000000007100000000000000516100000000000000009999123100000010000000000000BRPINED04OR0150
012024102410PINE2       010PINE        DIR PRE N2   R$  000000000009900000000000990000000000099000000000009900000000000990000000000099000000000010300006000000000000000700000000000000069300000000000000009999123100000010000000000000BRPINED06PR2150
012024102410PMAM1       010PARANAPANEMADIR ORD NM   R$  000000000000100000000000010000000000001000000000000100000000000010000000000000000000000000100166000000000000282100000000000000282100000000000000009999123100000010000000000000BRPMAMD05OR9039
012024102410ZAMP9       010ZAMP S.A.   ON  REC      R$  000000000023300000000002450000000000233000000000023800000000002450000000000243000000000024600004000000000000002900000000000000690200000000000000009999123100000010000000000000BRZAMPR01OR0100
012024102412KISU11      010FII KILIMA  CI           R$  000000000073800000000007520000000000735000000000074000000000007420000000000742000000000074401376000000000000163973000000000121365369000000000000009999123100000010000000000000BRKISUCTF000148
012024102412KIVO11      010FII KIVO    CI           R$  000000000684000000000071500000000006680000000000691300000000071240000000007051000000000712411377000000000000035437000000000244979846000000000000009999123100000010000000000000BRKIVOCTF007131
012024102412MXRF11      010FII MAXI RENCI           R$  000000000095500000000009560000000000930000000000093900000000009320000000000931000000000093243048000000000002595116000000002438556032000000000000009999123100000010000000000000BRMXRFCTF008257
012024102412CRFF11      010FII CX RBRA2CI           R$  000000000751200000000075950000000007181000000000726600000000073500000000007203000000000737000055000000000000001333000000000009686536000000000000009999123100000010000000000000BRCRFFCTF006165
012024102412EGYR11      010FII ENERGY  CI           R$  000000000033000000000003510000000000330000000000034800000000003510000000000329000000000035100019000000000000000254000000000000088462000000000000009999123100000010000000000000BREGYRCTF001102
012024102412HBCR11      010FII HBC REN CI           R$  000000001360000000000136000000000013600000000001360000000000136000000000010385000000000000000001000000000000047790000000000649944000000000000000009999123100000010000000000000BRHBCRCTF001146
012024102412HCHG11      010FII HECT CRICI           R$  000000000679900000000068550000000006720000000000678600000000068550000000006724000000000685300039000000000000000256000000000001737383000000000000009999123100000010000000000000BRHCHGCTF001141
012024102412HCRI11      010FII CRIANCA CI           R$  000000002710300000000271040000000026726000000002691500000000268000000000026800000000002699900020000000000000000033000000000000888225000000000000009999123100000010000000000000BRHCRICTF006333
012024102412HCTR11      010FII HECTARE CI           R$  000000000282500000000028250000000002768000000000278700000000027800000000002770000000000278001689000000000000027359000000000076255115000000000000009999123100000010000000000000BRHCTRCTF003174
012024102412HFOF11      010FII HTOPFOF3CI           R$  000000000626300000000062640000000006201000000000621800000000062490000000006220000000000624901613000000000000015815000000000098339486000000000000009999123100000010000000000000BRHFOFCTF002193
012024102412HGBL11      010FII HGBL    CI  ES       R$  000000000102800000000010290000000001018000000000102800000000010290000000001024000000000102900238000000000000008696000000000008944263000000000000009999123100000010000000000000BRHGBLCTF005110
012024102412HGBS11      010FII HEDGEBS CI           R$  000000001994900000000199490000000019790000000001984500000000198900000000019890000000001989803262000000000000013137000000000260707194000000000000009999123100000010000000000000BRHGBSCTF000314
012024102412HGCR11      010FII HGCR PAXCI           R$  000000000993000000000099300000000009778000000000983400000000098200000000009820000000000985404803000000000000043591000000000428711563000000000000009999123100000010000000000000BRHGCRCTF000250
012024102412HGFF11      010FII HGFF PAXCI           R$  000000000746100000000074970000000007390000000000744300000000074690000000007469000000000749901071000000000000005525000000000041126939000000000000009999123100000010000000000000BRHGFFCTF008164
012024102412HGIC11      010FII HGI CRI CI           R$  000000000946400000000094640000000009464000000000946400000000094640000000009378000000000959900001000000000000000001000000000000009464000000000000009999123100000010000000000000BRHGICCTF009144
012024102412HGLG11      010FII HGLG PAXCI           R$  000000001556000000000155600000000015382000000001542200000000154300000000015430000000001543212306000000000000057772000000000891014596000000000000009999123100000010000000000000BRHGLGCTF004275
012024102412HGPO11      010FII HGPO PAXCI           R$  000000002944900000000302500000000029449000000003011100000000301000000000030101000000003019300323000000000000002362000000000071122826000000000000009999123100000010000000000000BRHGPOCTF009165
012024102412HGRE11      010FII HGRE PAXCI           R$  000000001045000000000104500000000010300000000001031700000000103150000000010315000000001031702992000000000000016975000000000175140697000000000000009999123100000010000000000000BRHGRECTF006296
012024102412HGRU11      010FII HGRU PAXCI           R$  000000001202500000000121500000000011953000000001205000000000121160000000012116000000001212004712000000000000030372000000000365989505000000000000009999123100000010000000000000BRHGRUCTF002181
012024102412HLOG11      010FII HEDGELOGCI           R$  000000000847800000000084800000000008326000000000840300000000083690000000008351000000000837000041000000000000000145000000000001218457000000000000009999123100000010000000000000BRHLOGCTF008160
012024102412HOFC11      010FII HOFFICEICI           R$  000000000254000000000025400000000002510000000000251600000000025100000000002510000000000253000044000000000000001155000000000002907024000000000000009999123100000010000000000000BRHOFCCTF009115
012024102412HOSI11      010FII HOUSI   CI           R$  000000000900100000000090010000000009000000000000900000000000090000000000008801000000000910000002000000000000000002000000000000018001000000000000009999123100000010000000000000BRHOSICTF009149
012024102412HPDP11      010FII HEDGEPDPCI           R$  000000000855100000000086500000000008551000000000857500000000086500000000008556000000000864800004000000000000000004000000000000034303000000000000009999123100000010000000000000BRHPDPCTF003156
012024102412HRDF11      010FII HREALTY CI           R$  000000000031100000000003110000000000305000000000030900000000003050000000000305000000000031000003000000000000000032000000000000009913000000000000009999123100000010000000000000BRHRDFCTF000103
012024102412XPSF11      010FII XP SELECCI           R$  000000000067500000000006750000000000655000000000066200000000006650000000000661000000000066501810000000000000111879000000000074124811000000000000009999123100000010000000000000BRXPSFCTF009160
012024102412RENV11      010FII RENV    CI           R$  000000000097500000000010260000000000962000000000099600000000010210000000001021000000000102200021000000000000002952000000000002941996000000000000009999123100000010000000000000BRRENVCTF003101
012024102412RFOF11      010FII RB CFOF CI           R$  000000000646800000000066090000000006401000000000651500000000065000000000006432000000000650000065000000000000001052000000000006854126000000000000009999123100000010000000000000BRRFOFCTF001155
012024102412RINV11      010FII REAL INVCI           R$  000000001044500000000104460000000010340000000001037200000000104460000000010395000000001044600502000000000000006120000000000063478179000000000000009999123100000010000000000000BRRINVCTF004124
012024102412RMAI11      010FII REAGMULTCI           R$  000000000755000000000075500000000007519000000000754100000000075490000000007451000000000754900101000000000000000121000000000000912546000000000000009999123100000010000000000000BRRMAICTF000138
012024102412RNDP11      010FII BB R PAPCI           R$  000000000411700000000047900000000004003000000000416700000000040030000000004003000000000435600035000000000000000520000000000002166993000000000000009999123100000010000000000000BRRNDPCTF007252
012024102412RNGO11      010FII RIONEGROCI           R$  000000000473500000000048010000000004735000000000479700000000048000000000004800000000000482000072000000000000010304000000000049431279000000000000009999123100000010000000000000BRRNGOCTF003247
012024102412TRXB11      010FII TRX R IICI           R$  000000001381500000000143990000000013815000000001403700000000143000000000013900000000001460000005000000000000000007000000000000098260000000000000009999123100000010000000000000BRTRXBCTF002155
012024102412TRXF11      010FII TRX REALCI           R$  000000001005200000000100860000000009954000000001000400000000100150000000010010000000001001507682000000000000075072000000000751083501000000000000009999123100000010000000000000BRTRXFCTF003168
012024102412TVRI11      010FII TIVIO RICI           R$  000000000931000000000095600000000009310000000000950200000000095570000000009504000000000955701853000000000000017497000000000166269657000000000000009999123100000010000000000000BRTVRICTF001112
012024102412VOTS11      010FII V MASTERCI           R$  000000000732400000000074540000000007243000000000729900000000074540000000007221000000000747300010000000000000000029000000000000211693000000000000009999123100000010000000000000BRVOTSCTF007174
012024102412VRTA11      010FII FATOR VECI           R$  000000000821500000000083350000000008173000000000822300000000081870000000008186000000000820102323000000000000021642000000000177976078000000000000009999123100000010000000000000BRVRTACTF008264
012024102412VRTM11      010FII VRTM    CI           R$  000000000074800000000007590000000000732000000000074400000000007400000000000739000000000074000727000000000000062713000000000046712603000000000000009999123100000010000000000000BRVRTMCTF003112
012024102412VSHO11      010FII VOT SHOPCI           R$  000000000696700000000071460000000006967000000000697100000000069670000000006967000000000705100576000000000000001307000000000009111607000000000000009999123100000010000000000000BRVSHOCTF002165
012024102412VSLH11      010FII VERS CRICI           R$  000000000033300000000003350000000000332000000000033300000000003340000000000333000000000033400797000000000000025081000000000008360904000000000000009999123100000010000000000000BRVSLHCTF008147
012024102412VTLT11      010FII VOT LOG CI           R$  000000000911100000000091940000000009052000000000911700000000091880000000009115000000000919400057000000000000000323000000000002945026000000000000009999123100000010000000000000BRVTLTCTF001176
012024102412VVCO11      010FII V2EDCORPCI           R$  000000000127800000000012930000000001261000000000126800000000012610000000001261000000000129100015000000000000000716000000000000908405000000000000009999123100000010000000000000BRVVCOCTF007101
