00COTAHIST.2024BOVESPA 20241003                                                                                                                                                                                                                      
012024100302FRAS3       010FRAS-LE     ON      N1   R$  000000000210600000000021200000000002087000000000210600000000021080000000002108000000000211801289000000000000213300000000000449336500000000000000009999123100000010000000000000BRFRASACNOR0160
012024100302FRIO3       010METALFRIO   ON      NM   R$  000000001290100000000129010000000012500000000001260000000000125000000000011600000000001499800004000000000000000400000000000005040100000000000000009999123100000010000000000000BRFRIOACNOR2111
012024100302B3SA3       010B3          ON  EDJ NM   R$  000000000107900000000010840000000001067000000000107300000000010720000000001071000000000107344038000000000041875600000000044949715800000000000000009999123100000010000000000000BRB3SAACNOR6134
012024100302BBSE3       010BBSEGURIDADEON      NM   R$  000000000352700000000035270000000003498000000000350800000000035120000000003512000000000351415803000000000006282100000000022040019200000000000000009999123100000010000000000000BRBBSEACNOR5125
012024100302BRSR3       010BANRISUL    ON      N1   R$  000000000128600000000012930000000001264000000000128200000000012900000000001289000000000129500069000000000000009000000000000011539200000000000000009999123100000010000000000000BRBRSRACNOR3189
012024100302FIQE3       010UNIFIQUE    ON      NM   R$  000000000039200000000003920000000000376000000000037900000000003780000000000378000000000037900921000000000000481900000000000182968500000000000000009999123100000010000000000000BRFIQEACNOR5107
012024100302FLRY3       010FLEURY      ON      NM   R$  000000000150500000000015170000000001501000000000151100000000015150000000001506000000000151513075000000000003981200000000006016573800000000000000009999123100000010000000000000BRFLRYACNOR5139
012024100302STBP3       010SANTOS BRP  ON      NM   R$  000000000146800000000014820000000001465000000000146900000000014680000000001468000000000146911878000000000009565200000000014054312500000000000000009999123100000010000000000000BRSTBPACNOR3131
012024100302SUZB3       010SUZANO S.A. ON      NM   R$  000000000544400000000054940000000005414000000000545900000000054850000000005485000000000548813772000000000003641300000000019881293400000000000000009999123100000010000000000000BRSUZBACNOR0130
012024100302WEST3       010WESTWING    ON      NM   R$  000000000008400000000000840000000000082000000000008200000000000820000000000082000000000008400009000000000000012500000000000001036200000000000000009999123100000010000000000000BRWESTACNOR3100
012024100302WHRL3       010WHIRLPOOL   ON           R$  000000000043500000000004450000000000435000000000044000000000004350000000000435000000000044200006000000000000001600000000000000704700000000000000009999123100000010000000000000BRWHRLACNOR5129
012024100302WHRL4       010WHIRLPOOL   PN           R$  000000000046200000000004700000000000460000000000046200000000004630000000000461000000000046300032000000000000012700000000000005879700000000000000009999123100000010000000000000BRWHRLACNPR2129
012024100302WIZC3       010WIZ CO      ON      NM   R$  000000000057900000000005840000000000574000000000057900000000005840000000000580000000000058400996000000000000309800000000000179384800000000000000009999123100000010000000000000BRWIZCACNOR5102
012024100302WLMM4       010WLM IND COM PN           R$  000000000314000000000031400000000003140000000000314000000000031400000000002999000000000314000001000000000000000100000000000000314000000000000000009999123100000010000000000000BRWLMMACNPR3119
012024100302CAMB3       010CAMBUCI     ON           R$  000000000126000000000012600000000001227000000000123800000000012350000000001228000000000123500074000000000000018000000000000022287700000000000000009999123100000010000000000000BRCAMBACNOR4131
012024100302CAML3       010CAMIL       ON      NM   R$  000000000083800000000008600000000000836000000000084700000000008480000000000848000000000084904429000000000000703300000000000596285900000000000000009999123100000010000000000000BRCAMLACNOR3129
012024100302CASH3       010MELIUZ      ON      NM   R$  000000000038900000000003920000000000380000000000038300000000003800000000000380000000000038302144000000000001046200000000000401693800000000000000009999123100000010000000000000BRCASHACNOR8107
012024100302BEEF3       010MINERVA     ON      NM   R$  000000000064000000000006480000000000635000000000063800000000006390000000000639000000000064008389000000000004496100000000002870772700000000000000009999123100000010000000000000BRBEEFACNOR6116
012024100302INEP3       010INEPAR      ON           R$  000000000018800000000001960000000000186000000000019200000000001920000000000190000000000019200172000000000000095500000000000018345200000000000000009999123100000010000000000000BRINEPACNOR1143
012024100302INEP4       010INEPAR      PN           R$  000000000018700000000001940000000000184000000000019000000000001870000000000187000000000018800113000000000000078200000000000014869100000000000000009999123100000010000000000000BRINEPACNPR8143
012024100302INTB3       010INTELBRAS   ON      NM   R$  000000000206200000000020630000000002013000000000202500000000020130000000002012000000000202603267000000000001006500000000002038323000000000000000009999123100000010000000000000BRINTBACNOR9112
012024100302IRBR3       010IRBBRASIL REON      NM   R$  000000000449000000000044910000000004357000000000441300000000043710000000004370000000000437203406000000000000656300000000002896687500000000000000009999123100000010000000000000BRIRBRACNOR4111
012024100302BALM3       010BAUMER      ON           R$  000000000162000000000016200000000001620000000000162000000000016200000000001600000000000187000002000000000000000200000000000000324000000000000000009999123100000010000000000000BRBALMACNOR5055
012024100302BALM4       010BAUMER      PN           R$  000000000101600000000010200000000001016000000000101800000000010200000000001020000000000109000002000000000000000200000000000000203600000000000000009999123100000010000000000000BRBALMACNPR2056
012024100302BAZA3       010AMAZONIA    ON           R$  000000000920000000000092830000000009150000000000917100000000091890000000009150000000000920000012000000000000002000000000000018343300000000000000009999123100000010000000000000BRBAZAACNOR0179
012024100302BBAS3       010BRASIL      ON      NM   R$  000000000271100000000027120000000002675000000000268700000000026900000000002688000000000269046568000000000019101500000000051335708100000000000000009999123100000010000000000000BRBBASACNOR3326
012024100302BEES3       010BANESTES    ON  EJ       R$  000000000089100000000009060000000000890000000000089500000000008900000000000890000000000089500080000000000000014000000000000012540300000000000000009999123100000010000000000000BRBEESACNOR9396
012024100302BEES4       010BANESTES    PN  EJ       R$  000000000092700000000009440000000000926000000000093100000000009270000000000922000000000093400025000000000000004200000000000003911000000000000000009999123100000010000000000000BRBEESACNPR6321
012024100302BHIA3       010CASAS BAHIA ON      NM   R$  000000000044900000000004710000000000441000000000045500000000004700000000000469000000000047004183000000000003157900000000001438819700000000000000009999123100000010000000000000BRBHIAACNOR1102
012024100302BPAN4       010BANCO PAN   PN      N1   R$  000000000095000000000009850000000000940000000000096000000000009650000000000964000000000096905582000000000002691100000000002585704700000000000000009999123100000010000000000000BRBPANACNPR1115
012024100302HYPE3       010HYPERA      ON  EJ  NM   R$  000000000264000000000026670000000002626000000000263700000000026480000000002642000000000264917718000000000004777600000000012602836500000000000000009999123100000010000000000000BRHYPEACNOR0144
012024100302ALPA3       010ALPARGATAS  ON      N1   R$  000000000069300000000007000000000000683000000000068800000000006830000000000683000000000069400007000000000000002300000000000001584000000000000000009999123100000010000000000000BRALPAACNOR0231
012024100302ALPA4       010ALPARGATAS  PN      N1   R$  000000000070000000000007000000000000689000000000069300000000006890000000000689000000000069005525000000000003099500000000002149397700000000000000009999123100000010000000000000BRALPAACNPR7232
012024100302ALPK3       010ESTAPAR     ON      NM   R$  000000000029000000000002900000000000273000000000027900000000002770000000000277000000000028000320000000000000281900000000000078755200000000000000009999123100000010000000000000BRALPKACNOR9101
012024100302ALUP11      010ALUPAR      UNT     N2   R$  000000000299800000000030000000000002935000000000294700000000029500000000002950000000000296004511000000000002295500000000006767091300000000000000009999123100000010000000000000BRALUPCDAM15120
012024100302ALUP3       010ALUPAR      ON      N2   R$  000000000101200000000010120000000000983000000000099600000000009970000000000996000000000100000088000000000000011000000000000010958300000000000000009999123100000010000000000000BRALUPACNOR8120
012024100302ALUP4       010ALUPAR      PN      N2   R$  000000000099500000000009960000000000977000000000098300000000009940000000000984000000000099500152000000000000025400000000000024979800000000000000009999123100000010000000000000BRALUPACNPR5120
012024100302AMAR3       010LOJAS MARISAON      NM   R$  000000000010500000000001050000000000103000000000010300000000001030000000000103000000000010400400000000000000110100000000000011405000000000000000009999123100000010000000000000BRAMARACNOR4115
012024100302AMBP3       010AMBIPAR     ON      NM   R$  000000001364800000000150000000000013177000000001442700000000149000000000014892000000001490001108000000000000194700000000002809019600000000000000009999123100000010000000000000BRAMBPACNOR6103
012024100302ANIM3       010ANIMA       ON      NM   R$  000000000023300000000002340000000000226000000000022900000000002320000000000231000000000023305404000000000009018500000000002072882700000000000000009999123100000010000000000000BRANIMACNOR6109
012024100302BMOB3       010BEMOBI TECH ON      NM   R$  000000000142500000000014480000000001413000000000142900000000014240000000001423000000000142401544000000000000222400000000000317852200000000000000009999123100000010000000000000BRBMOBACNOR7103
012024100302ITSA3       010ITAUSA      ON      N1   R$  000000000109100000000010910000000001055000000000106200000000010550000000001055000000000106600902000000000000296400000000000314958700000000000000009999123100000010000000000000BRITSAACNOR0443
012024100302ITSA4       010ITAUSA      PN      N1   R$  000000000108500000000010860000000001058000000000106400000000010600000000001060000000000106131980000000000029594200000000031489709200000000000000009999123100000010000000000000BRITSAACNPR7443
012024100302DMVF3       010D1000VFARMA ON      NM   R$  000000000060700000000006260000000000601000000000061200000000006130000000000613000000000062000411000000000000064900000000000039735500000000000000009999123100000010000000000000BRDMVFACNOR9100
012024100302DOHL4       010DOHLER      PN           R$  000000000041800000000004190000000000418000000000041800000000004190000000000405000000000041800002000000000000000300000000000000125500000000000000009999123100000010000000000000BRDOHLACNPR9066
012024100302DOTZ3       010DOTZ SA     ON      NM   R$  000000000049500000000004980000000000455000000000048200000000004890000000000483000000000048900228000000000000056600000000000027308400000000000000009999123100000010000000000000BRDOTZACNOR7101
012024100302DXCO3       010DEXCO       ON      NM   R$  000000000087100000000008850000000000855000000000086400000000008640000000000864000000000087109482000000000004322400000000003737098500000000000000009999123100000010000000000000BRDXCOACNOR8105
012024100302PETR3       010PETROBRAS   ON      N2   R$  000000000406500000000041490000000004049000000000411200000000041340000000004134000000000413723164000000000008549700000000035159181800000000000000009999123100000010000000000000BRPETRACNOR9206
012024100302PETR4       010PETROBRAS   PN      N2   R$  000000000374400000000038040000000003721000000000377500000000037940000000003792000000000379556194000000000031033000000000117173404100000000000000009999123100000010000000000000BRPETRACNPR6214
012024100302ATOM3       010ATOMPAR     ON           R$  000000000026500000000002650000000000250000000000025300000000002550000000000255000000000025900033000000000000026200000000000006643000000000000000009999123100000010000000000000BRATOMACNOR1106
012024100302AURE3       010AUREN       ON      NM   R$  000000000104200000000010430000000001028000000000103300000000010360000000001035000000000103606645000000000004849200000000005009256100000000000000009999123100000010000000000000BRAUREACNOR9104
012024100302AVLL3       010ALPHAVILLE  ON      NM   R$  000000000031400000000003140000000000314000000000031400000000003140000000000307000000000031500001000000000000001200000000000000376800000000000000009999123100000010000000000000BRAVLLACNOR5103
012024100302CRFB3       010CARREFOUR BRON      NM   R$  000000000089300000000008990000000000864000000000088300000000008640000000000864000000000086516256000000000012360600000000010917042000000000000000009999123100000010000000000000BRCRFBACNOR2116
012024100302CRPG5       010CRISTAL     PNA          R$  000000000262900000000026300000000002629000000000262900000000026300000000002609000000000263000018000000000000003600000000000009467800000000000000009999123100000010000000000000BRCRPGACNPA3119
012024100302CSAN3       010COSAN       ON      NM   R$  000000000133700000000013390000000001284000000000130200000000013090000000001308000000000130917367000000000011232700000000014636029800000000000000009999123100000010000000000000BRCSANACNOR6126
012024100302CPFE3       010CPFL ENERGIAON      NM   R$  000000000337700000000033940000000003344000000000337200000000033810000000003380000000000338210427000000000004322800000000014580515500000000000000009999123100000010000000000000BRCPFEACNOR0137
012024100302CPLE3       010COPEL       ON  EDJ N2   R$  000000000089900000000009010000000000881000000000088600000000008920000000000891000000000089205752000000000008986600000000007966513800000000000000009999123100000010000000000000BRCPLEACNOR8150
012024100302CPLE5       010COPEL       PNA EDJ N2   R$  000000000120100000000012010000000001201000000000120100000000012010000000001200000000000144100004000000000000000500000000000000600500000000000000009999123100000010000000000000BRCPLEACNPA1148
012024100302CPLE6       010COPEL       PNB EDJ N2   R$  000000000100400000000010070000000000987000000000099500000000009950000000000995000000000099620002000000000014274400000000014209988800000000000000009999123100000010000000000000BRCPLEACNPB9147
012024100302ELMD3       010ELETROMIDIA ON      NM   R$  000000000166500000000016760000000001649000000000165900000000016580000000001653000000000165800274000000000000061700000000000102420100000000000000009999123100000010000000000000BRELMDACNOR3101
012024100302EMAE3       010EMAE        ON  EJ       R$  000000000678000000000067800000000006780000000000678000000000067800000000006780000000000000000003000000000000000400000000000002712000000000000000009999123100000010000000000000BREMAEACNOR4126
012024100302EMAE4       010EMAE        PN  EJ       R$  000000000395000000000040490000000003907000000000396400000000039890000000003916000000000406900026000000000000003200000000000012685300000000000000009999123100000010000000000000BREMAEACNPR1126
012024100302EMBR3       010EMBRAER     ON      NM   R$  000000000460200000000046670000000004518000000000457800000000045180000000004518000000000453422330000000000005252900000000024051094100000000000000009999123100000010000000000000BREMBRACNOR4191
012024100302HBOR3       010HELBOR      ON      NM   R$  000000000019300000000001950000000000190000000000019200000000001900000000000190000000000019200318000000000000184800000000000035525600000000000000009999123100000010000000000000BRHBORACNOR3118
012024100302HBRE3       010HBR REALTY  ON      NM   R$  000000000047100000000004720000000000455000000000045900000000004590000000000458000000000045901228000000000000544200000000000250052200000000000000009999123100000010000000000000BRHBREACNOR4100
012024100302QUAL3       010QUALICORP   ON      NM   R$  000000000023800000000002380000000000200000000000021000000000002050000000000204000000000020507236000000000016982400000000003570462000000000000000009999123100000010000000000000BRQUALACNOR6120
012024100302SCAR3       010SAO CARLOS  ON      NM   R$  000000000226000000000023200000000002260000000000231400000000023200000000002280000000000232000010000000000000004400000000000010184100000000000000009999123100000010000000000000BRSCARACNOR7131
012024100302SEER3       010SER EDUCA   ON      NM   R$  000000000059200000000006050000000000586000000000059400000000005860000000000585000000000058602471000000000000596400000000000354314500000000000000009999123100000010000000000000BRSEERACNOR5119
012024100302SEQL3       010SEQUOIA LOG ON      NM   R$  000000000044400000000004510000000000436000000000044300000000004420000000000442000000000044600688000000000000283200000000000125632800000000000000009999123100000010000000000000BRSEQLACNOR2103
012024100302SHOW3       010TIME FOR FUNON      NM   R$  000000000010000000000001020000000000097000000000009900000000000970000000000097000000000010000422000000000000246300000000000024487800000000000000009999123100000010000000000000BRSHOWACNOR7105
012024100302SHUL4       010SCHULZ      PN  EJ       R$  000000000062700000000006280000000000615000000000061800000000006180000000000617000000000061800993000000000000257800000000000159560700000000000000009999123100000010000000000000BRSHULACNPR4157
012024100302SIMH3       010SIMPAR      ON      NM   R$  000000000053800000000005380000000000517000000000052400000000005240000000000523000000000052607231000000000008030600000000004208036900000000000000009999123100000010000000000000BRSIMHACNOR0107
012024100302SLCE3       010SLC AGRICOLAON      NM   R$  000000000182600000000018390000000001796000000000180900000000017960000000001796000000000179910693000000000003904100000000007063449600000000000000009999123100000010000000000000BRSLCEACNOR2125
012024100302VIVR3       010VIVER       ON      NM   R$  000000000017800000000001800000000000176000000000017600000000001760000000000176000000000017700078000000000000054200000000000009567800000000000000009999123100000010000000000000BRVIVRACNOR4123
012024100302VIVT3       010TELEF BRASILON           R$  000000000554800000000056160000000005469000000000550400000000054690000000005469000000000547113618000000000002031300000000011181521100000000000000009999123100000010000000000000BRVIVTACNOR0184
012024100302VLID3       010VALID       ON      NM   R$  000000000236900000000023690000000002279000000000231300000000023130000000002311000000000231902712000000000000379000000000000876922200000000000000009999123100000010000000000000BRVLIDACNOR5144
012024100302VSTE3       010VESTE       ON      NM   R$  000000000116200000000011650000000001106000000000113400000000011290000000001100000000000112900067000000000000013000000000000014749300000000000000009999123100000010000000000000BRVSTEACNOR5103
012024100302VTRU3       010VITRUEDUCA  ON      NM   R$  000000000091400000000009170000000000896000000000090800000000009170000000000908000000000091700654000000000000308900000000000280652500000000000000009999123100000010000000000000BRVTRUACNOR3100
012024100302VULC3       010VULCABRAS   ON      NM   R$  000000000172800000000017280000000001689000000000169800000000016940000000001694000000000170002046000000000000336300000000000571277100000000000000009999123100000010000000000000BRVULCACNOR2162
012024100302VVEO3       010VIVEO       ON      NM   R$  000000000018200000000001840000000000177000000000017900000000001800000000000179000000000018001547000000000001781300000000000320207200000000000000009999123100000010000000000000BRVVEOACNOR0104
012024100302LUPA3       010LUPATECH    ON      NM   R$  000000000014000000000001420000000000139000000000014000000000001400000000000139000000000014000076000000000000101300000000000014188800000000000000009999123100000010000000000000BRLUPAACNOR8112
012024100302LVTC3       010WDC NETWORKSON      NM   R$  000000000038300000000003920000000000380000000000038600000000003800000000000381000000000038500036000000000000014500000000000005603100000000000000009999123100000010000000000000BRLVTCACNOR4102
012024100302LWSA3       010LWSA        ON      NM   R$  000000000041200000000004120000000000400000000000040400000000004070000000000407000000000040808764000000000007253700000000002937660200000000000000009999123100000010000000000000BRLWSAACNOR8103
012024100302SBFG3       010GRUPO SBF   ON      NM   R$  000000000154400000000015810000000001524000000000156300000000015720000000001567000000000157207432000000000002277700000000003560759500000000000000009999123100000010000000000000BRSBFGACNOR1103
012024100302SBSP3       010SABESP      ON      NM   R$  000000000891900000000089300000000008820000000000888200000000088720000000008872000000000887818348000000000004294200000000038141991100000000000000009999123100000010000000000000BRSBSPACNOR5161
012024100302VBBR3       010VIBRA       ON  EJ  NM   R$  000000000229900000000023000000000002248000000000227800000000022950000000002294000000000229522850000000000007554400000000017212069700000000000000009999123100000010000000000000BRVBBRACNOR1109
012024100302VITT3       010VITTIA      ON      NM   R$  000000000056300000000005810000000000558000000000056900000000005810000000000566000000000058101274000000000000271700000000000154701500000000000000009999123100000010000000000000BRVITTACNOR4107
012024100302VIVA3       010VIVARA S.A. ON      NM   R$  000000000280900000000028100000000002682000000000272100000000027350000000002735000000000274212268000000000002910900000000007921548700000000000000009999123100000010000000000000BRVIVAACNOR0107
012024100302CBAV3       010CBA         ON      NM   R$  000000000057000000000005730000000000555000000000056400000000005680000000000567000000000056805228000000000002734700000000001544643800000000000000009999123100000010000000000000BRCBAVACNOR5104
012024100302CSUD3       010CSU DIGITAL ON  EJ  NM   R$  000000000174800000000017480000000001720000000000173000000000017250000000001725000000000173000249000000000000044200000000000076468300000000000000009999123100000010000000000000BRCSUDACNOR5111
012024100302CURY3       010CURY S/A    ON      NM   R$  000000000231600000000023220000000002279000000000229700000000022950000000002284000000000229508288000000000002493000000000005728361300000000000000009999123100000010000000000000BRCURYACNOR3109
012024100302CVCB3       010CVC BRASIL  ON      NM   R$  000000000018500000000001860000000000182000000000018400000000001860000000000185000000000018606379000000000009047900000000001669916300000000000000009999123100000010000000000000BRCVCBACNOR1116
012024100302SANB11      010SANTANDER BRUNT          R$  000000000290900000000029090000000002825000000000284800000000028430000000002842000000000285011620000000000003301600000000009405922600000000000000009999123100000010000000000000BRSANBCDAM13165
012024100302SANB3       010SANTANDER BRON           R$  000000000139000000000013900000000001344000000000135800000000013730000000001356000000000137400403000000000000059700000000000081104200000000000000009999123100000010000000000000BRSANBACNOR8172
012024100302SANB4       010SANTANDER BRPN           R$  000000000152400000000015240000000001484000000000149200000000014910000000001490000000000149200378000000000000060900000000000090874500000000000000009999123100000010000000000000BRSANBACNPR5172
012024100302SAPR11      010SANEPAR     UNT     N2   R$  000000000293800000000029380000000002881000000000289700000000028970000000002896000000000289704320000000000000746300000000002162178400000000000000009999123100000010000000000000BRSAPRCDAM13118
012024100302KEPL3       010KEPLER WEBERON      NM   R$  000000000098800000000009900000000000974000000000097900000000009780000000000978000000000098403099000000000000916800000000000898101600000000000000009999123100000010000000000000BRKEPLACNOR1064
012024100302KLBN11      010KLABIN S/A  UNT     N2   R$  000000000210000000000021210000000002084000000000210400000000021160000000002108000000000211915613000000000004748000000000009992192000000000000000009999123100000010000000000000BRKLBNCDAM18143
012024100302KLBN3       010KLABIN S/A  ON      N2   R$  000000000042900000000004300000000000417000000000042200000000004280000000000423000000000042800567000000000000228400000000000096402000000000000000009999123100000010000000000000BRKLBNACNOR2171
012024100302KLBN4       010KLABIN S/A  PN      N2   R$  000000000042500000000004250000000000417000000000042000000000004230000000000422000000000042301536000000000001563900000000000657635800000000000000009999123100000010000000000000BRKLBNACNPR9171
012024100302ODPV3       010ODONTOPREV  ON  EJ  NM   R$  000000000110000000000011110000000001090000000000110000000000011060000000001106000000000111104014000000000001166600000000001284105200000000000000009999123100000010000000000000BRODPVACNOR4204
012024100302OFSA3       010OUROFINO S/AON      NM   R$  000000000201600000000020500000000002016000000000204700000000020490000000001995000000000205000006000000000000003900000000000007984300000000000000009999123100000010000000000000BROFSAACNOR7118
012024100302TECN3       010TECHNOS     ON      NM   R$  000000000048800000000004970000000000478000000000048600000000004970000000000484000000000049700138000000000000050900000000000024773000000000000000009999123100000010000000000000BRTECNACNOR6109
012024100302TELB3       010TELEBRAS    ON           R$  000000000146000000000014600000000001412000000000142200000000014290000000001381000000000143000011000000000000001500000000000002133100000000000000009999123100000010000000000000BRTELBACNOR2140
012024100302TELB4       010TELEBRAS    PN           R$  000000000095700000000009570000000000910000000000092400000000009400000000000940000000000095800019000000000000003500000000000003235600000000000000009999123100000010000000000000BRTELBACNPR9140
012024100302TEND3       010TENDA       ON      NM   R$  000000000134400000000013540000000001324000000000134100000000013450000000001345000000000134708498000000000007502800000000010063068500000000000000009999123100000010000000000000BRTENDACNOR4111
012024100302TFCO4       010TRACK FIELD PN  EJ  N2   R$  000000000105100000000010600000000001046000000000105200000000010510000000001050000000000105100599000000000000135800000000000142971700000000000000009999123100000010000000000000BRTFCOACNPR8115
012024100302TGMA3       010TEGMA       ON      NM   R$  000000000269300000000026930000000002610000000000263200000000026260000000002623000000000263401369000000000000191400000000000503832700000000000000009999123100000010000000000000BRTGMAACNOR7145
012024100302TIMS3       010TIM         ON  EJ  NM   R$  000000000185400000000018660000000001807000000000181900000000018070000000001806000000000180715195000000000008206600000000014933907700000000000000009999123100000010000000000000BRTIMSACNOR5118
012024100302ONCO3       010ONCOCLINICASON      NM   R$  000000000044700000000004580000000000440000000000045000000000004540000000000453000000000045406586000000000004725100000000002127413800000000000000009999123100000010000000000000BRONCOACNOR6101
012024100302OPCT3       010OCEANPACT   ON      NM   R$  000000000067400000000006940000000000673000000000068500000000006880000000000682000000000068800747000000000000296400000000000203314800000000000000009999123100000010000000000000BROPCTACNOR0100
012024100302ORVR3       010ORIZON      ON      NM   R$  000000000466800000000046680000000004588000000000461400000000046180000000004612000000000462201711000000000000308900000000001425565800000000000000009999123100000010000000000000BRORVRACNOR0101
012024100302TOTS3       010TOTVS       ON      NM   R$  000000000290700000000029230000000002800000000000284200000000028120000000002812000000000281517602000000000003851100000000010947787700000000000000009999123100000010000000000000BRTOTSACNOR8145
012024100302JALL3       010JALLESMACHADON      NM   R$  000000000064800000000006490000000000642000000000064300000000006420000000000641000000000064301259000000000000426600000000000274612300000000000000009999123100000010000000000000BRJALLACNOR0106
012024100302JBSS3       010JBS         ON      NM   R$  000000000327000000000033210000000003209000000000324700000000032400000000003230000000000324126584000000000009456900000000030712909900000000000000009999123100000010000000000000BRJBSSACNOR8122
012024100302MTRE3       010MITRE REALTYON  ED  NM   R$  000000000038000000000003950000000000374000000000038300000000003940000000000392000000000039401210000000000000824000000000000315976600000000000000009999123100000010000000000000BRMTREACNOR6115
012024100302MTSA4       010METISA      PN           R$  000000000382400000000038240000000003708000000000375900000000037080000000003708000000000379900031000000000000004700000000000017667700000000000000009999123100000010000000000000BRMTSAACNPR9073
012024100302MULT3       010MULTIPLAN   ON      N2   R$  000000000253700000000025530000000002498000000000252400000000025380000000002528000000000253913031000000000002758000000000006963926700000000000000009999123100000010000000000000BRMULTACNOR5139
012024100302HBSA3       010HIDROVIAS   ON  ES  NM   R$  000000000033900000000003460000000000336000000000034100000000003450000000000343000000000034504955000000000002860400000000000975890300000000000000009999123100000010000000000000BRHBSAACNOR0101
012024100302HBTS5       010HABITASUL   PNA          R$  000000000299900000000032800000000002999000000000309300000000032800000000003035000000000327900003000000000000000300000000000000927900000000000000009999123100000010000000000000BRHBTSACNPA3128
012024100302HETA4       010HERCULES    PN           R$  000000000065800000000006580000000000630000000000064900000000006300000000000630000000000067500010000000000000002400000000000001559200000000000000009999123100000010000000000000BRHETAACNPR9136
012024100302MYPK3       010IOCHP-MAXIONON  EJ  NM   R$  000000000107000000000010750000000001055000000000106300000000010630000000001063000000000106603497000000000000898100000000000954945500000000000000009999123100000010000000000000BRMYPKACNOR7156
012024100302RCSL3       010RECRUSUL    ON           R$  000000000058300000000005930000000000448000000000048900000000004560000000000456000000000045707062000000000004253200000000002082304800000000000000009999123100000010000000000000BRRCSLACNOR4134
012024100302RCSL4       010RECRUSUL    PN           R$  000000000009500000000000960000000000089000000000009100000000000910000000000090000000000009100628000000000000395100000000000036020400000000000000009999123100000010000000000000BRRCSLACNPR1134
012024100302RDNI3       010RNI         ON      NM   R$  000000000030600000000003110000000000305000000000030700000000003060000000000305000000000030600013000000000000002800000000000000861500000000000000009999123100000010000000000000BRRDNIACNOR9116
012024100302SYNE3       010SYN PROP TECON      NM   R$  000000000078900000000007900000000000769000000000077600000000007700000000000770000000000077102167000000000000792600000000000615544900000000000000009999123100000010000000000000BRSYNEACNOR2103
012024100302TAEE11      010TAESA       UNT     N2   R$  000000000344700000000034470000000003412000000000342400000000034180000000003416000000000342107135000000000001604100000000005492829300000000000000009999123100000010000000000000BRTAEECDAM10148
012024100302TAEE3       010TAESA       ON      N2   R$  000000000114900000000011490000000001136000000000114000000000011410000000001140000000000114100384000000000000066100000000000075366300000000000000009999123100000010000000000000BRTAEEACNOR9148
012024100302TAEE4       010TAESA       PN      N2   R$  000000000115600000000011560000000001144000000000114800000000011490000000001148000000000115000736000000000000160000000000000183698900000000000000009999123100000010000000000000BRTAEEACNPR6148
012024100302MRVE3       010MRV         ON      NM   R$  000000000077600000000007880000000000763000000000077200000000007700000000000769000000000077027581000000000011378800000000008792648700000000000000009999123100000010000000000000BRMRVEACNOR2127
012024100302RAIL3       010RUMO S.A.   ON      NM   R$  000000000196100000000019840000000001948000000000197000000000019770000000001976000000000197822589000000000021292200000000041961044700000000000000009999123100000010000000000000BRRAILACNOR9105
012024100302RAIZ4       010RAIZEN      PN      N2   R$  000000000031400000000003150000000000300000000000030500000000003060000000000305000000000030611263000000000019345600000000005909545800000000000000009999123100000010000000000000BRRAIZACNPR6111
012024100302SMTO3       010SAO MARTINHOON      NM   R$  000000000267800000000027600000000002653000000000271200000000027600000000002742000000000276008668000000000001548800000000004201806500000000000000009999123100000010000000000000BRSMTOACNOR3127
012024100302SNSY5       010SANSUY      PNA          R$  000000000053000000000005480000000000530000000000054000000000005480000000000528000000000054900007000000000000002200000000000001188200000000000000009999123100000010000000000000BRSNSYACNPA5111
012024100302SOJA3       010BOA SAFRA   ON      NM   R$  000000000119700000000012040000000001183000000000119200000000011980000000001196000000000119802748000000000000668600000000000797154900000000000000009999123100000010000000000000BRSOJAACNOR9105
012024100302SRNA3       010SERENA      ON      NM   R$  000000000083400000000008340000000000804000000000081000000000008060000000000805000000000080605250000000000001926700000000001561472400000000000000009999123100000010000000000000BRSRNAACNOR4100
012024100302YDUQ3       010YDUQS PART  ON      NM   R$  000000000091000000000009410000000000893000000000092100000000009370000000000935000000000093712468000000000004814800000000004435745400000000000000009999123100000010000000000000BRYDUQACNOR3105
012024100302ZAMP3       010ZAMP S.A.   ON           R$  000000000027500000000002750000000000253000000000026400000000002640000000000263000000000026401491000000000000456200000000000120872900000000000000009999123100000010000000000000BRZAMPACNOR5101
012024100302KRSA3       010KORA SAUDE  ON      NM   R$  000000000004800000000000490000000000047000000000004800000000000480000000000048000000000004900075000000000000247200000000000011988600000000000000009999123100000010000000000000BRKRSAACNOR0100
012024100302LPSB3       010LOPES BRASILON      NM   R$  000000000017600000000001810000000000175000000000017700000000001810000000000177000000000018100120000000000000067900000000000012082200000000000000009999123100000010000000000000BRLPSBACNOR0114
012024100302LREN3       010LOJAS RENNERON  EJ  NM   R$  000000000181000000000018100000000001761000000000178800000000017960000000001792000000000179621486000000000013255900000000023708100800000000000000009999123100000010000000000000BRLRENACNOR1222
012024100302AZZA3       010AZZAS 2154  ON      NM   R$  000000000415300000000041790000000004044000000000407400000000040540000000004051000000000405510773000000000002523600000000010281773400000000000000009999123100000010000000000000BRAZZAACNOR9100
012024100302CSED3       010CRUZEIRO EDUON      NM   R$  000000000032600000000003270000000000317000000000032000000000003230000000000323000000000032501237000000000000548700000000000175969200000000000000009999123100000010000000000000BRCSEDACNOR9105
012024100302CSMG3       010COPASA      ON      NM   R$  000000000234300000000023480000000002316000000000232800000000023210000000002321000000000232804212000000000000931200000000002168161400000000000000009999123100000010000000000000BRCSMGACNOR5175
012024100302CSNA3       010SID NACIONALON           R$  000000000131400000000013140000000001276000000000128700000000012920000000001284000000000129212268000000000005549600000000007146783700000000000000009999123100000010000000000000BRCSNAACNOR6261
012024100302ENEV3       010ENEVA       ON      NM   R$  000000000141200000000014180000000001390000000000140500000000014110000000001409000000000141113964000000000007411200000000010416051300000000000000009999123100000010000000000000BRENEVACNOR8106
012024100302ENGI11      010ENERGISA    UNT     N2   R$  000000000442200000000044440000000004337000000000437800000000044130000000004390000000000441514782000000000004925100000000021563697400000000000000009999123100000010000000000000BRENGICDAM16136
012024100302ENGI3       010ENERGISA    ON      N2   R$  000000000136500000000013650000000001300000000000131400000000013270000000001320000000000132700083000000000000009300000000000012229100000000000000009999123100000010000000000000BRENGIACNOR0146
012024100302ENGI4       010ENERGISA    PN      N2   R$  000000000078500000000007850000000000760000000000076800000000007680000000000767000000000077600113000000000000022200000000000017061800000000000000009999123100000010000000000000BRENGIACNPR7142
012024100302ENJU3       010ENJOEI      ON      NM   R$  000000000013800000000001390000000000131000000000013400000000001310000000000130000000000013100698000000000001206400000000000162098000000000000000009999123100000010000000000000BRENJUACNOR9100
012024100302EPAR3       010EMBPAR S/A  ON           R$  000000000057000000000005730000000000560000000000056300000000005630000000000561000000000056300020000000000000012200000000000006870200000000000000009999123100000010000000000000BREPARACNOR9105
012024100302EQMA3B      010EQTLMARANHAOON      MB   R$  000000000228000000000022890000000002280000000000228400000000022890000000002281000000000229000008000000000000001500000000000003426800000000000000009999123100000010000000000000BREQMAACNOR8108
012024100302EQPA3       010EQTL PARA   ON           R$  000000000060500000000006140000000000604000000000060700000000006140000000000606000000000061400016000000000000003300000000000002004900000000000000009999123100000010000000000000BREQPAACNOR1111
012024100302EQTL3       010EQUATORIAL  ON      NM   R$  000000000322000000000032360000000003170000000000320500000000032320000000003231000000000323225412000000000007836000000000025122195600000000000000009999123100000010000000000000BREQTLACNOR0131
012024100302IFCM3       010INFRACOMM   ON      NM   R$  000000000001700000000000170000000000016000000000001600000000000170000000000016000000000001700591000000000001505900000000000025105200000000000000009999123100000010000000000000BRIFCMACNOR8101
012024100302IGTI11      010IGUATEMI S.AUNT     N1   R$  000000000209400000000021230000000002065000000000209400000000021180000000002113000000000211807894000000000002598800000000005444444500000000000000009999123100000010000000000000BRIGTICDAM16106
012024100302IGTI3       010IGUATEMI S.AON      N1   R$  000000000026400000000002680000000000253000000000025900000000002650000000000261000000000026500218000000000000040100000000000010420400000000000000009999123100000010000000000000BRIGTIACNOR8106
012024100302LAND3       010TERRASANTAPAON      NM   R$  000000000128700000000012990000000001221000000000125500000000012990000000001254000000000129900165000000000000028100000000000035270000000000000000009999123100000010000000000000BRLANDACNOR9103
012024100302LAVV3       010LAVVI       ON      NM   R$  000000000081900000000008190000000000793000000000080000000000008040000000000801000000000080402014000000000000392000000000000313991000000000000000009999123100000010000000000000BRLAVVACNOR4113
012024100302LEVE3       010METAL LEVE  ON      NM   R$  000000000307000000000030700000000003027000000000304200000000030560000000003048000000000305601430000000000000271500000000000826121000000000000000009999123100000010000000000000BRLEVEACNOR2197
012024100302LJQQ3       010QUERO-QUERO ON      NM   R$  000000000031300000000003210000000000309000000000031200000000003100000000000310000000000031108856000000000006617500000000002070308300000000000000009999123100000010000000000000BRLJQQACNOR5104
012024100302LOGG3       010LOG COM PROPON      NM   R$  000000000228700000000023040000000002241000000000227500000000023040000000002281000000000230401236000000000000177800000000000404662800000000000000009999123100000010000000000000BRLOGGACNOR7107
012024100302LOGN3       010LOG-IN      ON      NM   R$  000000000321800000000033900000000003200000000000327000000000033900000000003238000000000339000067000000000000009100000000000029762200000000000000009999123100000010000000000000BRLOGNACNOR3105
012024100302JHSF3       010JHSF PART   ON  ED  NM   R$  000000000043200000000004330000000000422000000000042500000000004230000000000422000000000042303467000000000002311000000000000983248800000000000000009999123100000010000000000000BRJHSFACNOR2140
012024100302JSLG3       010JSL         ON      NM   R$  000000000083400000000008460000000000761000000000078200000000007800000000000775000000000078003855000000000000933000000000000729963700000000000000009999123100000010000000000000BRJSLGACNOR2121
012024100302ESPA3       010ESPACOLASER ON      NM   R$  000000000010200000000001030000000000098000000000010000000000001000000000000100000000000010100169000000000000632300000000000063359400000000000000009999123100000010000000000000BRESPAACNOR7103
012024100302ESTR4       010ESTRELA     PN           R$  000000000038000000000003800000000000380000000000038000000000003800000000000370000000000039000003000000000000000500000000000000190000000000000000009999123100000010000000000000BRESTRACNPR0144
012024100302ETER3       010ETERNIT     ON      NM   R$  000000000057800000000005780000000000565000000000056800000000005670000000000566000000000056800508000000000000199500000000000113336300000000000000009999123100000010000000000000BRETERACNOR3244
012024100302EUCA4       010EUCATEX     PN      N1   R$  000000000156000000000015600000000001546000000000155100000000015470000000001547000000000156000158000000000000020200000000000031348500000000000000009999123100000010000000000000BREUCAACNPR8044
012024100302EVEN3       010EVEN        ON      NM   R$  000000000066800000000006830000000000657000000000067400000000006780000000000674000000000067804891000000000001365900000000000921064900000000000000009999123100000010000000000000BREVENACNOR8119
012024100302EZTC3       010EZTEC       ON      NM   R$  000000000140500000000014230000000001383000000000139500000000013890000000001388000000000138904885000000000001168700000000001631106900000000000000009999123100000010000000000000BREZTCACNOR0126
012024100302AALR3       010ALLIAR      ON      NM   R$  000000000149700000000015220000000001462000000000150000000000014810000000001481000000000151300198000000000000023500000000000035257000000000000000009999123100000010000000000000BRAALRACNOR6102
012024100302ABCB4       010ABC BRASIL  PN      N2   R$  000000000218900000000021890000000002141000000000215300000000021410000000002141000000000214703249000000000000647800000000001394771400000000000000009999123100000010000000000000BRABCBACNPR4146
012024100302ABEV3       010AMBEV S/A   ON           R$  000000000135500000000013630000000001340000000000134700000000013400000000001340000000000134231726000000000045000000000000060658038100000000000000009999123100000010000000000000BRABEVACNOR1128
012024100302BAHI3       010BAHEMA      ON      MA   R$  000000000059600000000006050000000000596000000000059900000000005990000000000596000000000060500008000000000000000800000000000000479600000000000000009999123100000010000000000000BRBAHIACNOR1074
012024100302ARML3       010ARMAC       ON      NM   R$  000000000082000000000008220000000000794000000000080900000000008120000000000810000000000081201921000000000000391400000000000316845900000000000000009999123100000010000000000000BRARMLACNOR1112
012024100302ASAI3       010ASSAI       ON      NM   R$  000000000071000000000007100000000000672000000000068500000000006740000000000674000000000067531447000000000039638900000000027159038000000000000000009999123100000010000000000000BRASAIACNOR0106
012024100302BBDC3       010BRADESCO    ON  EJ  N1   R$  000000000132800000000013420000000001314000000000132100000000013250000000001324000000000132507558000000000005277200000000006972889100000000000000009999123100000010000000000000BRBBDCACNOR1776
012024100302BBDC4       010BRADESCO    PN  EJ  N1   R$  000000000151000000000015210000000001494000000000150200000000015040000000001503000000000150437473000000000034496900000000051848312000000000000000009999123100000010000000000000BRBBDCACNPR8776
012024100302BRBI11      010BR PARTNERS UNT     N2   R$  000000000153000000000015540000000001513000000000152200000000015150000000001515000000000152301185000000000000189900000000000289046200000000000000009999123100000010000000000000BRBRBICDAM10110
012024100302BRFS3       010BRF SA      ON      NM   R$  000000000236500000000023920000000002334000000000236500000000023740000000002359000000000237412601000000000005831200000000013792460500000000000000009999123100000010000000000000BRBRFSACNOR8122
012024100302CMIN3       010CSNMINERACAOON      N2   R$  000000000073300000000007390000000000714000000000072400000000007200000000000720000000000072113054000000000013497500000000009775203200000000000000009999123100000010000000000000BRCMINACNOR2111
012024100302BLAU3       010BLAU        ON  EJ  NM   R$  000000000131100000000013230000000001295000000000131100000000013050000000001304000000000130500800000000000000413700000000000542740600000000000000009999123100000010000000000000BRBLAUACNOR8115
012024100302BMEB4       010MERCANTIL   PN      N1   R$  000000000393200000000039400000000003872000000000390600000000038900000000003890000000000392000105000000000000016100000000000062900500000000000000009999123100000010000000000000BRBMEBACNPR5211
012024100302BMGB4       010BANCO BMG   PN      N1   R$  000000000040400000000004040000000000395000000000039800000000003950000000000395000000000039601670000000000000630500000000000251515600000000000000009999123100000010000000000000BRBMGBACNPR0110
012024100302BMIN4       010MERC INVEST PN           R$  000000000160000000000016660000000001600000000000161600000000016660000000001610000000000170000004000000000000000400000000000000646600000000000000009999123100000010000000000000BRBMINACNPR1176
012024100302BMKS3       010BIC MONARK  ON           R$  000000003060100000000306010000000030600000000003060000000000306000000000030510000000003106800005000000000000000014000000000000428401000000000000009999123100000010000000000000BRBMKSACNOR9166
012024100302BRAV3       010BRAVA       ON      NM   R$  000000000176000000000017930000000001736000000000176600000000017750000000001775000000000177618843000000000009064500000000016013958000000000000000009999123100000010000000000000BRBRAVACNOR3100
012024100302ECOR3       010ECORODOVIAS ON      NM   R$  000000000069800000000006990000000000683000000000068900000000006930000000000691000000000069305116000000000002883600000000001988401600000000000000009999123100000010000000000000BRECORACNOR8120
012024100302EGIE3       010ENGIE BRASILON      NM   R$  000000000425000000000042500000000004188000000000420300000000041920000000004192000000000420305981000000000001282700000000005391243800000000000000009999123100000010000000000000BREGIEACNOR9127
012024100302GGPS3       010GPS         ON      NM   R$  000000000183900000000018390000000001812000000000181700000000018130000000001810000000000181605063000000000001344200000000002442653700000000000000009999123100000010000000000000BRGGPSACNOR9103
012024100302GMAT3       010GRUPO MATEUSON  EJ  NM   R$  000000000074800000000007520000000000738000000000074300000000007390000000000739000000000074207729000000000003127500000000002325474400000000000000009999123100000010000000000000BRGMATACNOR7103
012024100302GOAU3       010GERDAU MET  ON      N1   R$  000000000108300000000010830000000001038000000000104400000000010440000000001041000000000104400708000000000000180700000000000188767100000000000000009999123100000010000000000000BRGOAUACNOR1268
012024100302GOAU4       010GERDAU MET  PN      N1   R$  000000000109100000000010950000000001069000000000107700000000010750000000001073000000000107708407000000000006541200000000007047709700000000000000009999123100000010000000000000BRGOAUACNPR8269
012024100302MGEL4       010MANGELS INDLPN           R$  000000000106800000000011050000000001068000000000108600000000011050000000001023000000000110500002000000000000000200000000000000217300000000000000009999123100000010000000000000BRMGELACNPR3147
012024100302MGLU3       010MAGAZ LUIZA ON      NM   R$  000000000096500000000009910000000000943000000000096500000000009730000000000972000000000097326619000000000024568400000000023728871900000000000000009999123100000010000000000000BRMGLUACNOR2125
012024100302AERI3       010AERIS       ON      NM   R$  000000000061500000000006380000000000610000000000062200000000006120000000000612000000000061500621000000000000161400000000000100475000000000000000009999123100000010000000000000BRAERIACNOR4102
012024100302AESB3       010AES BRASIL  ON      NM   R$  000000000116700000000011700000000001167000000000116800000000011690000000001167000000000116904693000000000004421900000000005165588500000000000000009999123100000010000000000000BRAESBACNOR7107
012024100302AGRO3       010BRASILAGRO  ON      NM   R$  000000000254200000000025520000000002515000000000252500000000025160000000002516000000000251700914000000000000157500000000000397721800000000000000009999123100000010000000000000BRAGROACNOR7114
012024100302BRAP3       010BRADESPAR   ON      N1   R$  000000000187000000000018700000000001825000000000183900000000018440000000001830000000000184500483000000000000083600000000000153816300000000000000009999123100000010000000000000BRBRAPACNOR5148
012024100302BRAP4       010BRADESPAR   PN      N1   R$  000000000201000000000020100000000001971000000000198500000000019830000000001979000000000198407348000000000003416000000000006783046700000000000000009999123100000010000000000000BRBRAPACNPR2148
012024100302CCRO3       010CCR SA      ON      NM   R$  000000000122000000000012320000000001209000000000121800000000012090000000001209000000000121313272000000000013441100000000016373729600000000000000009999123100000010000000000000BRCCROACNOR2145
012024100302CEAB3       010CEA MODAS   ON      NM   R$  000000000102500000000010310000000000991000000000100700000000010040000000001002000000000100407755000000000002332500000000002350297200000000000000009999123100000010000000000000BRCEABACNOR1102
012024100302CEBR3       010CEB         ON           R$  000000000189400000000018940000000001847000000000185900000000018660000000001866000000000187500027000000000000004300000000000007994700000000000000009999123100000010000000000000BRCEBRACNOR5125
012024100302CEBR5       010CEB         PNA          R$  000000000159400000000016100000000001590000000000159700000000016100000000001590000000000161000010000000000000002300000000000003674000000000000000009999123100000010000000000000BRCEBRACNPA8124
012024100302CEBR6       010CEB         PNB          R$  000000000178000000000018100000000001775000000000178400000000017930000000001776000000000179300022000000000000003300000000000005889100000000000000009999123100000010000000000000BRCEBRACNPB6124
012024100302CEDO3       010CEDRO       ON      N1   R$  000000000230000000000023000000000002300000000000230000000000023000000000002100000000000230000003000000000000001800000000000004140000000000000000009999123100000010000000000000BRCEDOACNOR8096
012024100302CEEB3       010COELBA      ON  EJ       R$  000000000389000000000038900000000003890000000000389000000000038900000000003851000000000394200001000000000000000100000000000000389000000000000000009999123100000010000000000000BRCEEBACNOR3200
012024100302CGAS3       010COMGAS      ON           R$  000000001200000000000126990000000012000000000001234900000000126990000000011546000000001270000004000000000000000400000000000004939800000000000000009999123100000010000000000000BRCGASACNOR0164
012024100302CGAS5       010COMGAS      PNA          R$  000000001285000000000128500000000012805000000001282300000000128500000000012773000000001284000007000000000000000700000000000008976500000000000000009999123100000010000000000000BRCGASACNPA3161
012024100302ALLD3       010ALLIED      ON      NM   R$  000000000078900000000007900000000000766000000000077600000000007740000000000774000000000077801268000000000000193800000000000150432300000000000000009999123100000010000000000000BRALLDACNOR3106
012024100302ALOS3       010ALLOS       ON      NM   R$  000000000219500000000022190000000002187000000000220300000000022180000000002212000000000221812706000000000003618700000000007974129500000000000000009999123100000010000000000000BRALOSACNOR5101
012024100302NEOE3       010NEOENERGIA  ON      NM   R$  000000000193900000000019440000000001889000000000190000000000018890000000001889000000000190403910000000000000903700000000001717421000000000000000009999123100000010000000000000BRNEOEACNOR3123
012024100302NGRD3       010NEOGRID     ON      NM   R$  000000000011400000000001180000000000113000000000011400000000001150000000000114000000000011500345000000000000367100000000000041914400000000000000009999123100000010000000000000BRNGRDACNOR3104
012024100302NINJ3       010GETNINJAS   ON      NM   R$  000000000046100000000004710000000000451000000000046300000000004700000000000465000000000047600072000000000000021300000000000009877600000000000000009999123100000010000000000000BRNINJACNOR5101
012024100302RANI3       010IRANI       ON      NM   R$  000000000077800000000007780000000000747000000000076100000000007690000000000768000000000076903842000000000001338900000000001020086400000000000000009999123100000010000000000000BRRANIACNOR5073
012024100302RAPT3       010RANDON PART ON      N1   R$  000000000088400000000008870000000000870000000000087800000000008840000000000876000000000088400067000000000000017300000000000015193100000000000000009999123100000010000000000000BRRAPTACNOR7163
012024100302RAPT4       010RANDON PART PN      N1   R$  000000000108400000000010840000000001056000000000106800000000010640000000001063000000000107006415000000000002707800000000002892708100000000000000009999123100000010000000000000BRRAPTACNPR4163
012024100302BIOM3       010BIOMM       ON      MA   R$  000000000098900000000009940000000000984000000000098900000000009890000000000989000000000099400122000000000000032800000000000032470300000000000000009999123100000010000000000000BRBIOMACNOR2112
012024100302EALT3       010ACO ALTONA  ON           R$  000000000149000000000014900000000001490000000000149000000000014900000000001485000000000149000002000000000000000200000000000000298000000000000000009999123100000010000000000000BREALTACNOR4138
012024100302EALT4       010ACO ALTONA  PN           R$  000000000140500000000014070000000001385000000000140200000000014070000000001393000000000140700018000000000000003000000000000004206400000000000000009999123100000010000000000000BREALTACNPR1138
012024100302GEPA3       010GER PARANAP ON  ED       R$  000000000298900000000029900000000002810000000000292900000000029900000000002651000000000290000003000000000000000300000000000000878900000000000000009999123100000010000000000000BRGEPAACNOR2154
012024100302GEPA4       010GER PARANAP PN  ED       R$  000000000292400000000029240000000002739000000000286300000000027390000000002741000000000291800010000000000000001000000000000002863500000000000000009999123100000010000000000000BRGEPAACNPR9161
012024100302GFSA3       010GAFISA      ON      NM   R$  000000000022300000000002230000000000210000000000021700000000002110000000000211000000000021202237000000000003997700000000000870025800000000000000009999123100000010000000000000BRGFSAACNOR3125
012024100302GGBR3       010GERDAU      ON      N1   R$  000000000171500000000017160000000001671000000000169500000000016710000000001671000000000168200218000000000000048600000000000082385400000000000000009999123100000010000000000000BRGGBRACNOR1193
012024100302GGBR4       010GERDAU      PN      N1   R$  000000000190700000000019200000000001878000000000189000000000018850000000001881000000000188521256000000000010039600000000018977193800000000000000009999123100000010000000000000BRGGBRACNPR8193
012024100302CGRA3       010GRAZZIOTIN  ON           R$  000000000250900000000025680000000002501000000000252200000000025010000000002500000000000252500008000000000000001400000000000003531900000000000000009999123100000010000000000000BRCGRAACNOR2083
012024100302CGRA4       010GRAZZIOTIN  PN           R$  000000000251600000000025160000000002500000000000250500000000025090000000002500000000000250900010000000000000001200000000000003006400000000000000009999123100000010000000000000BRCGRAACNPR9083
012024100302CLSA3       010CLEARSALE   ON      NM   R$  000000000085300000000008600000000000819000000000083800000000008550000000000855000000000085606459000000000003262900000000002734540600000000000000009999123100000010000000000000BRCLSAACNOR0100
012024100302CLSC3       010CELESC      ON  EJ  N2   R$  000000000753500000000075400000000007535000000000753800000000075400000000007401000000000754000002000000000000000900000000000006784500000000000000009999123100000010000000000000BRCLSCACNOR6153
012024100302CLSC4       010CELESC      PN  EJ  N2   R$  000000000813900000000083140000000008139000000000822100000000083140000000008120000000000828400008000000000000000800000000000006577400000000000000009999123100000010000000000000BRCLSCACNPR3132
012024100302CMIG3       010CEMIG       ON  EJ  N1   R$  000000000144900000000014490000000001427000000000143700000000014460000000001435000000000144600546000000000000095600000000000137440500000000000000009999123100000010000000000000BRCMIGACNOR6244
012024100302CMIG4       010CEMIG       PN  EJ  N1   R$  000000000113500000000011370000000001120000000000112600000000011240000000001124000000000112518527000000000011869200000000013370999900000000000000009999123100000010000000000000BRCMIGACNPR3245
012024100302DASA3       010DASA        ON      NM   R$  000000000028800000000002960000000000281000000000029100000000002950000000000290000000000029502214000000000000748100000000000217769500000000000000009999123100000010000000000000BRDASAACNOR1123
012024100302DESK3       010DESKTOP     ON      NM   R$  000000000143700000000014530000000001410000000000141900000000014120000000001411000000000142200392000000000000089600000000000127216000000000000000009999123100000010000000000000BRDESKACNOR2104
012024100302DEXP3       010DEXXOS PAR  ON      N1   R$  000000000089200000000009010000000000878000000000088500000000008830000000000883000000000089000325000000000000055600000000000049209100000000000000009999123100000010000000000000BRDEXPACNOR1105
012024100302DEXP4       010DEXXOS PAR  PN      N1   R$  000000000089300000000008940000000000893000000000089300000000008940000000000881000000000090000003000000000000001000000000000000893900000000000000009999123100000010000000000000BRDEXPACNPR8105
012024100302DIRR3       010DIRECIONAL  ON      NM   R$  000000000304900000000030750000000002963000000000300500000000030100000000003010000000000302508063000000000001712700000000005147719700000000000000009999123100000010000000000000BRDIRRACNOR0119
012024100302BPAC11      010BTGP BANCO  UNT     N2   R$  000000000320300000000032420000000003161000000000320200000000032290000000003226000000000323023717000000000008663800000000027747403200000000000000009999123100000010000000000000BRBPACUNT006119
012024100302BPAC3       010BTGP BANCO  ON      N2   R$  000000000154700000000015930000000001540000000000154600000000015470000000001545000000000159800047000000000000006100000000000009432400000000000000009999123100000010000000000000BRBPACACNOR7134
012024100302BPAC5       010BTGP BANCO  PNA     N2   R$  000000000084300000000008530000000000813000000000082400000000008310000000000823000000000083600051000000000000007700000000000006348700000000000000009999123100000010000000000000BRBPACACNPA0134
012024100302CXSE3       010CAIXA SEGURION      NM   R$  000000000144500000000014490000000001429000000000143900000000014400000000001440000000000144513672000000000003258200000000004690454200000000000000009999123100000010000000000000BRCXSEACNOR7107
012024100302CYRE3       010CYRELA REALTON      NM   R$  000000000212800000000021280000000002072000000000210100000000021190000000002112000000000211918205000000000008147500000000017124123800000000000000009999123100000010000000000000BRCYREACNOR7140
012024100302FESA3       010FERBASA     ON      N1   R$  000000000126300000000012630000000001263000000000126300000000012630000000001214000000000144500001000000000000000100000000000000126300000000000000009999123100000010000000000000BRFESAACNOR8189
012024100302FESA4       010FERBASA     PN      N1   R$  000000000079200000000008020000000000782000000000079000000000007880000000000788000000000079201348000000000000429500000000000339366900000000000000009999123100000010000000000000BRFESAACNPR5085
012024100302FHER3       010FER HERINGERON      NM   R$  000000000039200000000003920000000000385000000000038800000000003920000000000392000000000040000013000000000000003200000000000001243800000000000000009999123100000010000000000000BRFHERACNOR5103
012024100302BOBR4       010BOMBRIL     PN           R$  000000000023300000000002370000000000230000000000023300000000002360000000000230000000000023700039000000000000027900000000000006525100000000000000009999123100000010000000000000BRBOBRACNPR3128
012024100302COCE5       010COELCE      PNA          R$  000000000270500000000027150000000002650000000000268500000000026670000000002666000000000266700045000000000000010000000000000026859300000000000000009999123100000010000000000000BRCOCEACNPA3147
012024100302COGN3       010COGNA ON    ON      NM   R$  000000000012700000000001280000000000122000000000012300000000001230000000000123000000000012418918000000000035623800000000004413114500000000000000009999123100000010000000000000BRCOGNACNOR2105
012024100302ELET3       010ELETROBRAS  ON      N1   R$  000000000390000000000039010000000003794000000000382800000000038380000000003835000000000383827374000000000009676000000000037049217100000000000000009999123100000010000000000000BRELETACNOR6160
012024100302ELET6       010ELETROBRAS  PNB     N1   R$  000000000434200000000043420000000004217000000000425000000000042500000000004250000000000425306743000000000001349900000000005738345800000000000000009999123100000010000000000000BRELETACNPB7077
012024100302GRND3       010GRENDENE    ON      NM   R$  000000000057500000000005750000000000556000000000056100000000005640000000000561000000000056401979000000000000651600000000000366193000000000000000009999123100000010000000000000BRGRNDACNOR3175
012024100302GSHP3       010GENERALSHOPPON           R$  000000000099700000000009970000000000997000000000099700000000009970000000000859000000000100000001000000000000000100000000000000099700000000000000009999123100000010000000000000BRGSHPACNOR7102
012024100302GUAR3       010GUARARAPES  ON      NM   R$  000000000079200000000007920000000000752000000000076200000000007520000000000752000000000075901764000000000000593800000000000452749800000000000000009999123100000010000000000000BRGUARACNOR4173
012024100302HAGA3       010HAGA S/A    ON           R$  000000000026000000000002710000000000255000000000026500000000002670000000000257000000000026700081000000000000025000000000000006630500000000000000009999123100000010000000000000BRHAGAACNOR7103
012024100302HAGA4       010HAGA S/A    PN           R$  000000000011700000000001180000000000116000000000011700000000001170000000000117000000000011800009000000000000002100000000000000245700000000000000009999123100000010000000000000BRHAGAACNPR4103
012024100302HAPV3       010HAPVIDA     ON      NM   R$  000000000041000000000004110000000000399000000000040400000000004010000000000401000000000040235852000000000069288000000000028048212800000000000000009999123100000010000000000000BRHAPVACNOR4114
012024100302MILS3       010MILLS       ON      NM   R$  000000000109900000000010990000000001075000000000108700000000010940000000001091000000000109402888000000000000715400000000000778143400000000000000009999123100000010000000000000BRMILSACNOR2128
012024100302MLAS3       010MULTILASER  ON      NM   R$  000000000016800000000001680000000000160000000000016300000000001630000000000162000000000016301569000000000001557200000000000254058800000000000000009999123100000010000000000000BRMLASACNOR9101
012024100302MNDL3       010MUNDIAL     ON           R$  000000000163700000000016450000000001637000000000164400000000016450000000001427000000000164500004000000000000003600000000000005920500000000000000009999123100000010000000000000BRMNDLACNOR4109
012024100302MNPR3       010MINUPAR     ON           R$  000000000173800000000017380000000001738000000000173800000000017380000000001630000000000173800002000000000000000200000000000000347600000000000000009999123100000010000000000000BRMNPRACNOR5122
012024100302MOVI3       010MOVIDA      ON      NM   R$  000000000060000000000006010000000000585000000000059000000000005860000000000585000000000058710572000000000005351000000000003158164700000000000000009999123100000010000000000000BRMOVIACNOR0122
012024100302MRFG3       010MARFRIG     ON      NM   R$  000000000136000000000013860000000001346000000000136300000000013630000000001362000000000136409388000000000003996800000000005448246200000000000000009999123100000010000000000000BRMRFGACNOR0116
012024100302PATI3       010PANATLANTICAON           R$  000000000260000000000026500000000002600000000000261900000000026500000000002649000000000290000005000000000000000500000000000001309900000000000000009999123100000010000000000000BRPATIACNOR6066
012024100302PCAR3       010P.ACUCAR-CBDON      NM   R$  000000000028900000000002920000000000284000000000028600000000002840000000000283000000000028409544000000000008274600000000002368947100000000000000009999123100000010000000000000BRPCARACNOR3167
012024100302PDGR3       010PDG REALT   ON      NM   R$  000000000000200000000000020000000000001000000000000100000000000010000000000001000000000000200804000000000027838100000000000043741500000000000000009999123100000010000000000000BRPDGRACNOR8119
012024100302PDTC3       010PADTEC      ON      NM   R$  000000000018600000000001880000000000183000000000018500000000001870000000000186000000000018700030000000000000012600000000000002338200000000000000009999123100000010000000000000BRPDTCACNOR3101
012024100302PEAB3       010PAR AL BAHIAON           R$  000000000430000000000043000000000004300000000000430000000000043000000000003800000000000440000001000000000000000200000000000000860000000000000000009999123100000010000000000000BRPEABACNOR3133
012024100302RADL3       010RAIADROGASILON      NM   R$  000000000260000000000026130000000002566000000000258800000000025660000000002565000000000257216057000000000007396300000000019144936000000000000000009999123100000010000000000000BRRADLACNOR0157
012024100302SMFT3       010SMART FIT   ON      NM   R$  000000000215000000000021750000000002117000000000215300000000021630000000002161000000000217005520000000000003018100000000006498019400000000000000009999123100000010000000000000BRSMFTACNOR1112
012024100302VALE3       010VALE        ON      NM   R$  000000000636300000000063800000000006243000000000629300000000062940000000006290000000000629548592000000000026675400000000167883777500000000000000009999123100000010000000000000BRVALEACNOR0211
012024100302AZEV3       010AZEVEDO     ON           R$  000000000013000000000001310000000000126000000000012800000000001280000000000128000000000013000342000000000000322900000000000041379800000000000000009999123100000010000000000000BRAZEVACNOR0121
012024100302AZEV4       010AZEVEDO     PN           R$  000000000012600000000001280000000000123000000000012500000000001270000000000126000000000012701036000000000002208400000000000276942600000000000000009999123100000010000000000000BRAZEVACNPR7121
012024100302AZUL4       010AZUL        PN      N2   R$  000000000060800000000006240000000000586000000000060600000000005940000000000593000000000059416662000000000032376500000000019645203400000000000000009999123100000010000000000000BRAZULACNPR4103
012024100302BRIT3       010BRISANET    ON      NM   R$  000000000030400000000003060000000000293000000000029800000000003010000000000299000000000030100317000000000000271200000000000081060300000000000000009999123100000010000000000000BRBRITACNOR0103
012024100302BRKM3       010BRASKEM     ON      N1   R$  000000000202400000000020250000000001947000000000197200000000019470000000001942000000000197500051000000000000007500000000000014791300000000000000009999123100000010000000000000BRBRKMACNOR1119
012024100302BRKM5       010BRASKEM     PNA     N1   R$  000000000203300000000020530000000001963000000000199300000000019820000000001982000000000198508446000000000002440000000000004865005500000000000000009999123100000010000000000000BRBRKMACNPA4121
012024100302WEGE3       010WEG         ON  EJ  NM   R$  000000000547600000000055000000000005395000000000544900000000054600000000005460000000000546218974000000000004470600000000024361699800000000000000009999123100000010000000000000BRWEGEACNOR0225
012024100302ITUB3       010ITAUUNIBANCOON  EJ  N1   R$  000000000310100000000031020000000003030000000000304700000000030400000000003037000000000304001781000000000000388200000000001183088300000000000000009999123100000010000000000000BRITUBACNOR4342
012024100302ITUB4       010ITAUUNIBANCOPN  EJ  N1   R$  000000000352200000000035320000000003465000000000348500000000034840000000003484000000000348545362000000000031509700000000109833455100000000000000009999123100000010000000000000BRITUBACNPR1342
012024100302MATD3       010MATER DEI   ON      NM   R$  000000000045300000000004710000000000435000000000045200000000004600000000000459000000000046201968000000000001228900000000000556680300000000000000009999123100000010000000000000BRMATDACNOR4104
012024100302MBLY3       010MOBLY       ON      NM   R$  000000000026000000000002620000000000246000000000025800000000002580000000000257000000000025800278000000000000649900000000000168003100000000000000009999123100000010000000000000BRMBLYACNOR5100
012024100302MDIA3       010M.DIASBRANCOON      NM   R$  000000000261600000000026480000000002578000000000262300000000026350000000002631000000000263905830000000000001212200000000003179741200000000000000009999123100000010000000000000BRMDIAACNOR7136
012024100302MDNE3       010MOURA DUBEUXON      NM   R$  000000000149100000000015490000000001482000000000152700000000015390000000001536000000000153903141000000000000668700000000001021187400000000000000009999123100000010000000000000BRMDNEACNOR9100
012024100302MEAL3       010IMC S/A     ON      NM   R$  000000000012900000000001390000000000128000000000013300000000001380000000000138000000000013900814000000000001954200000000000260420000000000000000009999123100000010000000000000BRMEALACNOR9105
012024100302MELK3       010MELNICK     ON      NM   R$  000000000036100000000003670000000000358000000000036300000000003650000000000363000000000036500682000000000000581500000000000211185000000000000000009999123100000010000000000000BRMELKACNOR8111
012024100302PRNR3       010PRINER      ON      NM   R$  000000000122500000000012520000000001200000000000123400000000012520000000001252000000000125300587000000000000172900000000000213407500000000000000009999123100000010000000000000BRPRNRACNOR4109
012024100302PSSA3       010PORTO SEGUROON  EJ  NM   R$  000000000370100000000037210000000003674000000000369900000000036990000000003699000000000370211406000000000002216600000000008200548700000000000000009999123100000010000000000000BRPSSAACNOR7156
012024100302PTBL3       010PORTOBELLO  ON      NM   R$  000000000046500000000004670000000000457000000000046100000000004670000000000462000000000046800750000000000000219000000000000101064300000000000000009999123100000010000000000000BRPTBLACNOR8132
012024100302PTNT3       010PETTENATI   ON           R$  000000000093500000000009710000000000934000000000094700000000009400000000000921000000000096900007000000000000000700000000000000663100000000000000009999123100000010000000000000BRPTNTACNOR6042
012024100302PTNT4       010PETTENATI   PN           R$  000000000065000000000006650000000000650000000000065500000000006550000000000650000000000065500019000000000000020700000000000013559500000000000000009999123100000010000000000000BRPTNTACNPR3047
012024100302BRSR6       010BANRISUL    PNB     N1   R$  000000000114400000000011500000000001131000000000113500000000011380000000001137000000000113803491000000000001052100000000001195169300000000000000009999123100000010000000000000BRBRSRACNPB4192
012024100302SAPR3       010SANEPAR     ON      N2   R$  000000000056300000000005630000000000549000000000055300000000005540000000000552000000000055400307000000000000118100000000000065310200000000000000009999123100000010000000000000BRSAPRACNOR9159
012024100302SAPR4       010SANEPAR     PN      N2   R$  000000000059000000000005950000000000581000000000058500000000005860000000000584000000000058602047000000000000762300000000000446638000000000000000009999123100000010000000000000BRSAPRACNPR6159
012024100302UCAS3       010UNICASA     ON      NM   R$  000000000021700000000002200000000000217000000000021900000000002190000000000219000000000022000054000000000000009900000000000002170200000000000000009999123100000010000000000000BRUCASACNOR1113
012024100302UGPA3       010ULTRAPAR    ON      NM   R$  000000000211900000000021190000000002069000000000209100000000021110000000002108000000000211113728000000000004447100000000009299947000000000000000009999123100000010000000000000BRUGPAACNOR8156
012024100302UNIP3       010UNIPAR      ON           R$  000000000453100000000046150000000004531000000000456600000000045630000000004557000000000461400052000000000000006000000000000027396400000000000000009999123100000010000000000000BRUNIPACNOR7206
012024100302UNIP5       010UNIPAR      PNA          R$  000000000498900000000049890000000004720000000000484100000000048200000000004551000000000487400011000000000000001400000000000006777700000000000000009999123100000010000000000000BRUNIPACNPA0208
012024100302UNIP6       010UNIPAR      PNB          R$  000000000458300000000046430000000004543000000000458700000000046400000000004638000000000464000848000000000000145400000000000667006700000000000000009999123100000010000000000000BRUNIPACNPB8206
012024100302USIM3       010USIMINAS    ON      N1   R$  000000000061200000000006120000000000590000000000059500000000005970000000000594000000000059701020000000000000470800000000000280383000000000000000009999123100000010000000000000BRUSIMACNOR3167
012024100302USIM5       010USIMINAS    PNA     N1   R$  000000000062300000000006240000000000609000000000061300000000006110000000000610000000000061113050000000000009620900000000005905640400000000000000009999123100000010000000000000BRUSIMACNPA6169
012024100302VAMO3       010VAMOS       ON      NM   R$  000000000060000000000006010000000000541000000000056100000000005770000000000576000000000057735039000000000048426200000000027170461300000000000000009999123100000010000000000000BRVAMOACNOR7105
012024100302PFRM3       010PROFARMA    ON      NM   R$  000000000056600000000005660000000000553000000000055700000000005600000000000556000000000056000320000000000000091700000000000051109800000000000000009999123100000010000000000000BRPFRMACNOR1116
012024100302PGMN3       010PAGUE MENOS ON      NM   R$  000000000027300000000002730000000000259000000000026400000000002620000000000261000000000026201450000000000000544400000000000143962900000000000000009999123100000010000000000000BRPGMNACNOR8103
012024100302PINE3       010PINE        ON      N2   R$  000000000053700000000005500000000000430000000000046900000000004610000000000461000000000049000138000000000000048500000000000022788500000000000000009999123100000010000000000000BRPINEACNOR1150
012024100302PINE4       010PINE        PN      N2   R$  000000000048000000000004820000000000465000000000047100000000004680000000000468000000000047000642000000000000258000000000000121720600000000000000009999123100000010000000000000BRPINEACNPR8150
012024100302PLPL3       010PLANOEPLANO ON      NM   R$  000000000132000000000013230000000001267000000000128700000000012820000000001281000000000128502012000000000000540200000000000695615300000000000000009999123100000010000000000000BRPLPLACNOR5104
012024100302PNVL3       010DIMED       ON  EJ  NM   R$  000000000104400000000010440000000001013000000000102400000000010300000000001021000000000103001666000000000000384100000000000393387700000000000000009999123100000010000000000000BRPNVLACNOR9208
012024100302POMO3       010MARCOPOLO   ON      N2   R$  000000000064500000000006450000000000608000000000061600000000006160000000000616000000000061800553000000000000221700000000000136763300000000000000009999123100000010000000000000BRPOMOACNOR0099
012024100302POMO4       010MARCOPOLO   PN      N2   R$  000000000081500000000008150000000000782000000000079000000000007900000000000790000000000079121573000000000012676500000000010025329000000000000000009999123100000010000000000000BRPOMOACNPR7099
012024100302PORT3       010WILSON SONS ON      NM   R$  000000000168400000000016840000000001660000000000167200000000016700000000001670000000000167103494000000000001105600000000001848796300000000000000009999123100000010000000000000BRPORTACNOR8109
012024100302POSI3       010POSITIVO TECON      NM   R$  000000000059000000000005920000000000573000000000058000000000005800000000000580000000000058202683000000000001540200000000000894500900000000000000009999123100000010000000000000BRPOSIACNOR9116
012024100302PRIO3       010PETRORIO    ON      NM   R$  000000000441100000000044920000000004378000000000445300000000044610000000004460000000000446336483000000000017533400000000078082601100000000000000009999123100000010000000000000BRPRIOACNOR1107
012024100302ROMI3       010ROMI        ON  EJ  NM   R$  000000000110000000000011060000000001084000000000109200000000011060000000001099000000000110800682000000000000119000000000000130037800000000000000009999123100000010000000000000BRROMIACNOR8196
012024100302RSUL4       010RIOSULENSE  PN           R$  000000000620000000000062000000000006200000000000620000000000062000000000006035000000000620000002000000000000000200000000000001240000000000000000009999123100000010000000000000BRRSULACNPR3114
012024100302TPIS3       010TRIUNFO PARTON      NM   R$  000000000053800000000005380000000000521000000000052600000000005250000000000525000000000053000170000000000000051200000000000026964800000000000000009999123100000010000000000000BRTPISACNOR8118
012024100302TRAD3       010TC          ON      NM   R$  000000000048800000000004880000000000470000000000047500000000004760000000000470000000000047600193000000000000085100000000000040476200000000000000009999123100000010000000000000BRTRADACNOR3102
012024100302TRIS3       010TRISUL      ON      NM   R$  000000000049200000000005000000000000484000000000049100000000005000000000000497000000000050001324000000000000498900000000000245342500000000000000009999123100000010000000000000BRTRISACNOR4118
012024100302TRPL3       010TRAN PAULISTON      N1   R$  000000000311200000000031120000000003100000000000310500000000031060000000003106000000000314000012000000000000002400000000000007453000000000000000009999123100000010000000000000BRTRPLACNOR4185
012024100302TRPL4       010TRAN PAULISTPN      N1   R$  000000000243500000000024380000000002395000000000240900000000024080000000002408000000000240911961000000000002772500000000006680112600000000000000009999123100000010000000000000BRTRPLACNPR1185
012024100302TTEN3       0103TENTOS     ON      NM   R$  000000000110500000000011130000000001081000000000109900000000010970000000001097000000000110404910000000000001068900000000001175530000000000000000009999123100000010000000000000BRTTENACNOR0103
012024100302TUPY3       010TUPY        ON      NM   R$  000000000253400000000025510000000002521000000000253500000000025420000000002542000000000255101658000000000000304100000000000771117500000000000000009999123100000010000000000000BRTUPYACNOR1184
012024100302NTCO3       010GRUPO NATURAON      NM   R$  000000000140600000000014730000000001403000000000144400000000014630000000001463000000000146419780000000000008394000000000012122332400000000000000009999123100000010000000000000BRNTCOACNOR5106
012024100302PETZ3       010PETZ        ON      NM   R$  000000000048500000000004900000000000477000000000048200000000004800000000000479000000000048112254000000000006021300000000002908037200000000000000009999123100000010000000000000BRPETZACNOR2110
012024100302RDOR3       010REDE D OR   ON  EJ  NM   R$  000000000299000000000030550000000002978000000000301800000000030370000000003035000000000303919050000000000004931400000000014887683000000000000000009999123100000010000000000000BRRDORACNOR8114
012024100302RECV3       010PETRORECSA  ON      NM   R$  000000000180100000000018500000000001793000000000182300000000018380000000001836000000000183807270000000000001897700000000003460633200000000000000009999123100000010000000000000BRRECVACNOR3107
012024100302REDE3       010REDE ENERGIAON           R$  000000000068800000000006930000000000682000000000068700000000006880000000000686000000000069300014000000000000001600000000000001100100000000000000009999123100000010000000000000BRREDEACNOR7128
012024100302RENT3       010LOCALIZA    ON  EJ  NM   R$  000000000412000000000041250000000004022000000000406100000000040500000000004050000000000405125502000000000006332200000000025719960300000000000000009999123100000010000000000000BRRENTACNOR4197
012024100302TASA3       010TAURUS ARMASON      N2   R$  000000000109000000000010900000000001070000000000107900000000010700000000001069000000000107000068000000000000008500000000000009174200000000000000009999123100000010000000000000BRTASAACNOR7104
012024100302TASA4       010TAURUS ARMASPN      N2   R$  000000000107500000000010820000000001048000000000105700000000010500000000001050000000000105401387000000000000337900000000000357198300000000000000009999123100000010000000000000BRTASAACNPR4104
012024100302TCSA3       010TECNISA     ON      NM   R$  000000000018400000000001850000000000178000000000018100000000001790000000000178000000000017900182000000000000087000000000000015758200000000000000009999123100000010000000000000BRTCSAACNOR3112
012024100307TXRX4       010TEX RENAUX  PN           R$  000000000022600000000002320000000000226000000000022700000000002320000000000226000000000023200005000000000000000500000000000000113900000000000000009999123100000010000000000000BRTXRXACNPR0142
012024100307NUTR3       010NUTRIPLANT  ON      MA   R$  000000000047400000000004740000000000463000000000046600000000004700000000000461000000000047000014000000000000001500000000000000699500000000000000009999123100000010000000000000BRNUTRACNOR0104
012024100308AMER3       010AMERICANAS  ON      NM   R$  000000000044500000000004470000000000425000000000043200000000004310000000000430000000000043102098000000000001548500000000000669988700000000000000009999123100000010000000000000BRAMERACNOR6103
012024100308ATMP3       010ATMASA      ON           R$  000000000015600000000001560000000000150000000000015000000000001530000000000146000000000014900020000000000000039900000000000006006200000000000000009999123100000010000000000000BRATMPACNOR8100
012024100308CTSA3       010SANTANENSE  ON           R$  000000000025000000000002500000000000250000000000025000000000002500000000000250000000000026900009000000000000002400000000000000600000000000000000009999123100000010000000000000BRCTSAACNOR3062
012024100308CTSA4       010SANTANENSE  PN           R$  000000000012500000000001250000000000125000000000012500000000001250000000000121000000000012500014000000000000017000000000000002125000000000000000009999123100000010000000000000BRCTSAACNPR0062
012024100308OIBR3       010OI          ON      N1   R$  000000000051500000000005150000000000491000000000049800000000004910000000000491000000000049800714000000000000512700000000000255411300000000000000009999123100000010000000000000BROIBRACNOR1112
012024100308OIBR4       010OI          PN      N1   R$  000000000114300000000011940000000001126000000000114000000000011260000000001126000000000115000008000000000000000800000000000000912100000000000000009999123100000010000000000000BROIBRACNPR8111
012024100308OSXB3       010OSX BRASIL  ON      NM   R$  000000000045500000000004600000000000455000000000045500000000004550000000000410000000000046000013000000000000002000000000000000910500000000000000009999123100000010000000000000BROSXBACNOR8109
012024100308HOOT4       010HOTEIS OTHONPN           R$  000000000022400000000002240000000000223000000000022300000000002230000000000223000000000023400006000000000000001300000000000000290200000000000000009999123100000010000000000000BRHOOTACNPR9015
012024100308LIGT3       010LIGHT S/A   ON      NM   R$  000000000067900000000006850000000000663000000000067300000000006700000000000670000000000067401078000000000000280100000000000188691300000000000000009999123100000010000000000000BRLIGTACNOR2124
012024100308JFEN3       010JOAO FORTES ON           R$  000000000003000000000000300000000000027000000000002800000000000280000000000027000000000002800559000000000003057900000000000086620800000000000000009999123100000010000000000000BRJFENACNOR0059
012024100308AGXY3       010AGROGALAXY  ON      NM   R$  000000000006200000000000620000000000059000000000006000000000000600000000000059000000000006000241000000000000244900000000000014699700000000000000009999123100000010000000000000BRAGXYACNOR4103
012024100308NEXP3       010NEXPE       ON           R$  000000000040200000000004050000000000402000000000040300000000004050000000000401000000000040700002000000000000000200000000000000080700000000000000009999123100000010000000000000BRNEXPACNOR0101
012024100308PMAM3       010PARANAPANEMAON  ES  NM   R$  000000000015300000000001530000000000143000000000014700000000001450000000000143000000000014500197000000000000128400000000000018958400000000000000009999123100000010000000000000BRPMAMACNOR3040
012024100308RNEW11      010RENOVA      UNT     N2   R$  000000000031400000000003140000000000301000000000030600000000003090000000000308000000000031200025000000000000005200000000000001594900000000000000009999123100000010000000000000BRRNEWCDAM15110
012024100308RNEW3       010RENOVA      ON      N2   R$  000000000010600000000001060000000000098000000000010100000000001020000000000102000000000010400116000000000000060700000000000006165200000000000000009999123100000010000000000000BRRNEWACNOR8110
012024100308RNEW4       010RENOVA      PN      N2   R$  000000000010400000000001070000000000100000000000010200000000001040000000000103000000000010400235000000000000257200000000000026448400000000000000009999123100000010000000000000BRRNEWACNPR5110
012024100308RPMG3       010PET MANGUINHON           R$  000000000031000000000003190000000000302000000000031000000000003140000000000305000000000031400260000000000000041100000000000012743600000000000000009999123100000010000000000000BRRPMGACNOR9194
012024100308RSID3       010ROSSI RESID ON      NM   R$  000000000032000000000003210000000000296000000000030900000000003110000000000301000000000031100212000000000000095700000000000029598800000000000000009999123100000010000000000000BRRSIDACNOR8120
012024100310BGIP2       010BANESE      DIR PRE      R$  000000000022000000000002200000000000220000000000022000000000002200000000000240000000000030000001000000000000000100000000000000022000000000000000009999123100000010000000000000BRBGIPD08PR8209
012024100310HBSA1       010HIDROVIAS   DIR ORD NM   R$  000000000001500000000000190000000000011000000000001500000000000190000000000019000000000002003203000000000005159900000000000081966100000000000000009999123100000010000000000000BRHBSAD01OR5100
012024100310ZAMP9       010ZAMP S.A.   ON  REC      R$  000000000025700000000002570000000000257000000000025700000000002570000000000251000000000027800004000000000000001400000000000000359800000000000000009999123100000010000000000000BRZAMPR01OR0100
012024100310EQTL9       010EQUATORIAL  ON  REC NM   R$  000000000319900000000032320000000003170000000000319800000000032320000000003186000000000323200006000000000000000600000000000001919000000000000000009999123100000010000000000000BREQTLR04OR9130
012024100310DASA1       010DASA        DIR ORD NM   R$  000000000000300000000000040000000000001000000000000200000000000030000000000003000000000000400287000000000005700200000000000013189000000000000000009999123100000010000000000000BRDASAD04OR0122
012024100310PMAM1       010PARANAPANEMADIR ORD NM   R$  000000000000100000000000010000000000001000000000000100000000000010000000000000000000000000100052000000000000623100000000000000623100000000000000009999123100000010000000000000BRPMAMD05OR9039
012024100312FPNG11      010FII P NEGRA CI           R$  000000002000000000000200000000000020000000000002000000000000200000000000009000000000000000000001000000000000000005000000000000100000000000000000009999123100000010000000000000BRFPNGCTF005191
012024100312FVPQ11      010FII V PARQUECI  ER       R$  000000000602600000000060660000000006021000000000603900000000060260000000006026000000000605700542000000000000000921000000000005562566000000000000009999123100000010000000000000BRFVPQCTF015263
012024100312IRDM11      010FII IRIDIUM CI           R$  000000000664200000000066730000000006530000000000659700000000065400000000006540000000000655907184000000000000077354000000000510369065000000000000009999123100000010000000000000BRIRDMCTF004189
012024100312IRIM11      010FII IRIM    CI           R$  000000000709000000000071950000000007072000000000713400000000070950000000007095000000000714900049000000000000000449000000000003203219000000000000009999123100000010000000000000BRIRIMCTF003138
012024100312BBFI11      010FII BB PROGRCI           R$  000000003984500000000464580000000039101000000004277500000000448730000000044873000000004487400171000000000000000611000000000026135838000000000000009999123100000010000000000000BRBBFICTF006329
012024100312BBFO11      010FII BB FOF  CI  ER       R$  000000000697800000000071200000000006978000000000703400000000069780000000006990000000000700600096000000000000001899000000000013357737000000000000009999123100000010000000000000BRBBFOCTF004145
012024100312BBIG11      010FII BBIG    CI  ER       R$  000000000093000000000009380000000000930000000000093000000000009340000000000934000000000093902112000000000000115773000000000107756333000000000000009999123100000010000000000000BRBBIGCTF004105
012024100312BBRC11      010FII BB CORP CI  ER       R$  000000001125000000000113970000000011200000000001126400000000113400000000011340000000001200000078000000000000000421000000000004742519000000000000009999123100000010000000000000BRBBRCCTF004257
012024100312BRLA11      010FII BRLPROIICI           R$  000000001520000000000152010000000015200000000001520000000000152010000000013700000000001520000006000000000000000272000000000004134657000000000000009999123100000010000000000000BRBRLACTF007150
012024100312BROF11      010FII BROF    CI           R$  000000000464200000000046640000000004621000000000464500000000046640000000004625000000000466400215000000000000002217000000000010298031000000000000009999123100000010000000000000BRBROFCTF000117
012024100312FIIB11      010FII INDL BR CI  ER       R$  000000004989900000000498990000000049290000000004962500000000497600000000049302000000004976000140000000000000000384000000000019056082000000000000009999123100000010000000000000BRFIIBCTF001255
012024100312FIIP11B     010FII RB CAP ICI  ER  MB   R$  000000001684800000000168480000000016504000000001662700000000168470000000016520000000001684800107000000000000000778000000000012935843000000000000009999123100000010000000000000BRFIIPCTF001278
012024100312FISC11      010FII SC 401  CI           R$  000000000750000000000075000000000007500000000000750000000000075000000000006119000000001200000002000000000000000027000000000000202500000000000000009999123100000010000000000000BRFISCCTF008139
012024100312FIVN11      010FII VIDANOVACI           R$  000000000034000000000003400000000000317000000000032800000000003230000000000322000000000032400027000000000000000203000000000000066641000000000000009999123100000010000000000000BRFIVNCTF009100
012024100312FLCR11      010FII FL RECEBCI           R$  000000000981900000000098200000000009729000000000976200000000097410000000009740000000000978400558000000000000000758000000000007400111000000000000009999123100000010000000000000BRFLCRCTF004145
012024100312FLMA11      010FII S F LIMACI           R$  000000001400000000000140000000000013901000000001397000000000139960000000013910000000001399200068000000000000000173000000000002416927000000000000009999123100000010000000000000BRFLMACTF009345
012024100312FLRP11      010FII FLORIPA CI  ER       R$  000000019500000000001979000000000195000000000019544600000001979000000000190701000000019500000008000000000000000013000000000002540800000000000000009999123100000010000000000000BRFLRPCTF006275
012024100312FMOF11      010FII MEMORIALCI           R$  000000000418100000000044700000000004181000000000422200000000044700000000004182000000000449600005000000000000000007000000000000029556000000000000009999123100000010000000000000BRFMOFCTF010258
012024100312FPAB11      010FII A BRANCACI           R$  000000002256100000000225610000000022400000000002246700000000224030000000022403000000002284100007000000000000000027000000000000606635000000000000009999123100000010000000000000BRFPABCTF011317
012024100312WHGR11      010FII WHG REALCI  ER       R$  000000000092000000000009390000000000916000000000092300000000009330000000000924000000000093301472000000000000032358000000000029890707000000000000009999123100000010000000000000BRWHGRCTF008129
012024100312WPLZ11      010FII W PLAZA CI  ER       R$  000000000570700000000057070000000005704000000000570400000000057040000000005340000000000570400004000000000000000010000000000000057046000000000000009999123100000010000000000000BRWPLZCTF004270
012024100312WSEC11      010FII WARREN  CI           R$  000000000086200000000008620000000000852000000000085900000000008600000000000857000000000086000772000000000000006447000000000005538919000000000000009999123100000010000000000000BRWSECCTF010124
012024100312XPCI11      010FII XP CRED CI  ER       R$  000000000849000000000085490000000008416000000000848100000000084710000000008453000000000847003420000000000000022718000000000192686373000000000000009999123100000010000000000000BRXPCICTF007161
012024100312XPCM11      010FII XP MACAECI           R$  000000000073200000000007490000000000728000000000073100000000007280000000000728000000000073000097000000000000002449000000000001791157000000000000009999123100000010000000000000BRXPCMCTF009230
012024100312BTWR11      010FII BTOWERS CI  ER       R$  000000001188400000000118840000000011884000000001188400000000118840000000000000000000001188400001000000000000000433000000000005145772000000000000009999123100000010000000000000BRBTWRCTF004140
012024100312CACR11      010CARTESIA FIICI  ER       R$  000000001048900000000104890000000010402000000001045600000000104350000000010430000000001043501176000000000000016971000000000177464485000000000000009999123100000010000000000000BRCACRCTF004137
012024100312CARE11      010FII DEA CARECI           R$  000000000015600000000001580000000000147000000000014900000000001500000000000147000000000015000171000000000000010333000000000001542757000000000000009999123100000010000000000000BRCARECTF000112
012024100312BCRI11      010FII BEES CRICI  ER       R$  000000000656800000000065940000000006537000000000656700000000065940000000006583000000000659400437000000000000004816000000000031627558000000000000009999123100000010000000000000BRBCRICTF009219
012024100312INLG11      010FII INTER LGCI  ER       R$  000000000800600000000081060000000008000000000000803400000000080200000000008000000000000802000158000000000000001397000000000011224227000000000000009999123100000010000000000000BRINLGCTF008101
012024100312INRD11      010FII INTER RDCI  ER       R$  000000000720000000000073750000000007150000000000719000000000071600000000007150000000000716000049000000000000000309000000000002221777000000000000009999123100000010000000000000BRINRDCTF002101
012024100312KNCR11      010FII KINEA RICI  ER       R$  000000001047900000000105280000000010452000000001049900000000104900000000010490000000001051413849000000000000106660000000001119861282000000000000009999123100000010000000000000BRKNCRCTF000244
012024100312KNHF11      010FII KINEA HFCI  ER       R$  000000000930100000000093850000000009263000000000932200000000092720000000009272000000000934507630000000000000070194000000000654380561000000000000009999123100000010000000000000BRKNHFCTF004115
012024100312KNHY11      010FII KINEA HYCI  ER       R$  000000001050200000000105350000000010492000000001051100000000105000000000010500000000001051504595000000000000050061000000000526194481000000000000009999123100000010000000000000BRKNHYCTF005176
012024100312BARI11      010FII BARIGUI CI  ER       R$  000000000756800000000076000000000007521000000000756900000000075490000000007545000000000754901306000000000000005442000000000041194801000000000000009999123100000010000000000000BRBARICTF003166
012024100312BPFF11      010FII ABSOLUTOCI  ER       R$  000000000645300000000065220000000006422000000000645600000000064430000000006443000000000645000643000000000000003323000000000021456089000000000000009999123100000010000000000000BRBPFFCTF002240
012024100312BPML11      010FII BTG SHOPCI           R$  000000000850500000000085760000000008406000000000847800000000084170000000008415000000000841700583000000000000017936000000000152067327000000000000009999123100000010000000000000BRBPMLCTF006134
012024100312HSML11      010FII HSI MALLCI  ER       R$  000000000893100000000089500000000008890000000000890700000000089110000000008910000000000891104072000000000000026453000000000235630454000000000000009999123100000010000000000000BRHSMLCTF007165
012024100312HSRE11      010FII HSIRENDACI  ER       R$  000000000960000000000096000000000009600000000000960000000000096000000000009504000000000972000003000000000000020811000000000199785600000000000000009999123100000010000000000000BRHSRECTF001145
012024100312HTMX11      010FII HOTEL MXCI  ER       R$  000000001837700000000194970000000018377000000001888800000000194040000000019375000000001940401602000000000000007447000000000140660162000000000000009999123100000010000000000000BRHTMXCTF000284
012024100312HUSC11      010FII H UNIMEDCI  ER       R$  000000001070200000000109300000000010702000000001074500000000109300000000010703000000001093100009000000000000000036000000000000386853000000000000009999123100000010000000000000BRHUSCCTF009156
012024100312ALZC11      010FII ALIANZACCI           R$  000000000950000000000095990000000009300000000000942600000000095990000000009300000000000957000011000000000000002716000000000025602019000000000000009999123100000010000000000000BRALZCCTF016107
012024100312ALZM11      010FII ALIANZMECI           R$  000000000075500000000007560000000000745000000000074800000000007510000000000751000000000075202957000000000000019699000000000014745928000000000000009999123100000010000000000000BRALZMCTF007126
012024100312ALZR11      010FII ALIANZA CI           R$  000000001031600000000103870000000010290000000001033500000000103330000000010331000000001033302084000000000000017459000000000180449970000000000000009999123100000010000000000000BRALZRCTF006186
012024100312BNFS11      010FII BANRISULCI  ER       R$  000000001163600000000116490000000011551000000001160400000000116080000000011580000000001160800087000000000000000660000000000007658749000000000000009999123100000010000000000000BRBNFSCTF000245
012024100312ITIP11      010FII INTER IPCI  ER       R$  000000000719300000000074000000000007182000000000731900000000073760000000007295000000000737900167000000000000000345000000000002525104000000000000009999123100000010000000000000BRITIPCTF002133
012024100312ITIT11      010FII INTER ITCI  ER       R$  000000000750000000000075260000000007481000000000749900000000075100000000007480000000000752400053000000000000000778000000000005834654000000000000009999123100000010000000000000BRITITCTF004133
012024100312ITRI11      010FII ITRI    CI  ER       R$  000000000851100000000085500000000008460000000000850000000000085210000000008510000000000852101738000000000000020195000000000171666600000000000000009999123100000010000000000000BRITRICTF008106
012024100312DPRO11      010FII DEVA PROCI           R$  000000000061000000000006190000000000600000000000060600000000006090000000000600000000000061000142000000000000001418000000000000860461000000000000009999123100000010000000000000BRDPROCTF005127
