00COTAHIST.2024BOVESPA 20241004                                                                                                                                                                                                                      
012024100402VITT3       010VITTIA      ON      NM   R$  000000000057100000000005800000000000550000000000056500000000005680000000000553000000000056803254000000000001104600000000000625189300000000000000009999123100000010000000000000BRVITTACNOR4107
012024100402VIVA3       010VIVARA S.A. ON      NM   R$  000000000272900000000027750000000002714000000000275800000000027700000000002770000000000277107243000000000001448000000000003993787700000000000000009999123100000010000000000000BRVIVAACNOR0107
012024100402WEST3       010WESTWING    ON      NM   R$  000000000008400000000000840000000000082000000000008300000000000830000000000083000000000008400007000000000000001700000000000000141600000000000000009999123100000010000000000000BRWESTACNOR3100
012024100402BBSE3       010BBSEGURIDADEON      NM   R$  000000000350100000000035170000000003485000000000350300000000035080000000003508000000000351110344000000000003077100000000010779680900000000000000009999123100000010000000000000BRBBSEACNOR5125
012024100402CMIN3       010CSNMINERACAOON  EDJ N2   R$  000000000065900000000006590000000000631000000000064100000000006340000000000634000000000063515165000000000011868200000000007615969800000000000000009999123100000010000000000000BRCMINACNOR2112
012024100402CXSE3       010CAIXA SEGURION      NM   R$  000000000144500000000014490000000001426000000000143300000000014410000000001435000000000144111431000000000002989600000000004286928900000000000000009999123100000010000000000000BRCXSEACNOR7107
012024100402COCE5       010COELCE      PNA          R$  000000000268300000000027330000000002660000000000271300000000027330000000002671000000000273300014000000000000001900000000000005156300000000000000009999123100000010000000000000BRCOCEACNPA3147
012024100402COGN3       010COGNA ON    ON      NM   R$  000000000012400000000001270000000000123000000000012400000000001260000000000126000000000012710216000000000024618400000000003075834100000000000000009999123100000010000000000000BRCOGNACNOR2105
012024100402PSSA3       010PORTO SEGUROON  EJ  NM   R$  000000000369900000000037550000000003671000000000372500000000037500000000003750000000000375309317000000000002086000000000007770518700000000000000009999123100000010000000000000BRPSSAACNOR7156
012024100402PTBL3       010PORTOBELLO  ON      NM   R$  000000000046200000000004680000000000460000000000046300000000004650000000000462000000000046500646000000000000153600000000000071165000000000000000009999123100000010000000000000BRPTBLACNOR8132
012024100402PTNT3       010PETTENATI   ON           R$  000000000097200000000009720000000000952000000000096400000000009700000000000921000000000096900003000000000000000300000000000000289400000000000000009999123100000010000000000000BRPTNTACNOR6042
012024100402PTNT4       010PETTENATI   PN           R$  000000000065500000000006620000000000655000000000065700000000006560000000000652000000000065600036000000000000035200000000000023135400000000000000009999123100000010000000000000BRPTNTACNPR3047
012024100402EALT3       010ACO ALTONA  ON           R$  000000000146100000000015000000000001461000000000146900000000014630000000001461000000000149800004000000000000000500000000000000734600000000000000009999123100000010000000000000BREALTACNOR4138
012024100402EALT4       010ACO ALTONA  PN           R$  000000000141600000000014170000000001391000000000139600000000014040000000001393000000000140500025000000000000006000000000000008379500000000000000009999123100000010000000000000BREALTACNPR1138
012024100402ECOR3       010ECORODOVIAS ON      NM   R$  000000000069400000000006950000000000679000000000068300000000006810000000000681000000000068306823000000000003855600000000002635675700000000000000009999123100000010000000000000BRECORACNOR8120
012024100402TEND3       010TENDA       ON      NM   R$  000000000134500000000013650000000001318000000000133500000000013340000000001334000000000133506293000000000002010600000000002684329900000000000000009999123100000010000000000000BRTENDACNOR4111
012024100402TFCO4       010TRACK FIELD PN  EJ  N2   R$  000000000105200000000010560000000001042000000000104800000000010560000000001045000000000105700639000000000000283700000000000297410600000000000000009999123100000010000000000000BRTFCOACNPR8115
012024100402TGMA3       010TEGMA       ON      NM   R$  000000000261300000000026450000000002556000000000258800000000025760000000002558000000000257600977000000000000136700000000000353818500000000000000009999123100000010000000000000BRTGMAACNOR7145
012024100402TIMS3       010TIM         ON      NM   R$  000000000179000000000018110000000001775000000000178900000000017750000000001775000000000178110506000000000007452600000000013334792500000000000000009999123100000010000000000000BRTIMSACNOR5118
012024100402TOTS3       010TOTVS       ON      NM   R$  000000000278100000000028200000000002773000000000280200000000027990000000002797000000000281113056000000000002085300000000005844890800000000000000009999123100000010000000000000BRTOTSACNOR8145
012024100402WHRL3       010WHIRLPOOL   ON           R$  000000000046000000000004600000000000430000000000043400000000004350000000000431000000000045900013000000000000003400000000000001476000000000000000009999123100000010000000000000BRWHRLACNOR5129
012024100402WHRL4       010WHIRLPOOL   PN           R$  000000000046100000000004670000000000459000000000046100000000004590000000000459000000000046400025000000000000009700000000000004481100000000000000009999123100000010000000000000BRWHRLACNPR2129
012024100402WIZC3       010WIZ CO      ON      NM   R$  000000000058400000000005940000000000563000000000058000000000005630000000000563000000000057201346000000000000644100000000000373719900000000000000009999123100000010000000000000BRWIZCACNOR5102
012024100402BRBI11      010BR PARTNERS UNT     N2   R$  000000000151500000000015300000000001510000000000152000000000015250000000001524000000000152501060000000000000159100000000000241889800000000000000009999123100000010000000000000BRBRBICDAM10110
012024100402BRFS3       010BRF SA      ON      NM   R$  000000000235400000000023680000000002320000000000233600000000023350000000002334000000000233510766000000000004099900000000009577771800000000000000009999123100000010000000000000BRBRFSACNOR8122
012024100402SLCE3       010SLC AGRICOLAON      NM   R$  000000000179700000000018160000000001780000000000178800000000017930000000001792000000000179307554000000000002335000000000004176526000000000000000009999123100000010000000000000BRSLCEACNOR2125
012024100402PDGR3       010PDG REALT   ON      NM   R$  000000000000100000000000020000000000001000000000000100000000000010000000000001000000000000200942000000000026539800000000000030561300000000000000009999123100000010000000000000BRPDGRACNOR8119
012024100402YDUQ3       010YDUQS PART  ON      NM   R$  000000000093400000000010250000000000928000000000098800000000010170000000001016000000000101711910000000000008213700000000008122224100000000000000009999123100000010000000000000BRYDUQACNOR3105
012024100402ZAMP3       010ZAMP S.A.   ON           R$  000000000026200000000002700000000000262000000000026500000000002660000000000265000000000026600841000000000000217800000000000057788400000000000000009999123100000010000000000000BRZAMPACNOR5101
012024100402VBBR3       010VIBRA       ON      NM   R$  000000000226400000000023170000000002264000000000229800000000023090000000002307000000000231015039000000000008186500000000018816064900000000000000009999123100000010000000000000BRVBBRACNOR1109
012024100402DASA3       010DASA        ON      NM   R$  000000000029500000000003000000000000291000000000029700000000002990000000000298000000000029901448000000000000463200000000000137667200000000000000009999123100000010000000000000BRDASAACNOR1123
012024100402DESK3       010DESKTOP     ON      NM   R$  000000000141200000000014320000000001394000000000141400000000014210000000001420000000000143800588000000000000101500000000000143620100000000000000009999123100000010000000000000BRDESKACNOR2104
012024100402DEXP3       010DEXXOS PAR  ON      N1   R$  000000000088700000000008910000000000877000000000088100000000008910000000000880000000000089200314000000000000052200000000000046040300000000000000009999123100000010000000000000BRDEXPACNOR1105
012024100402DEXP4       010DEXXOS PAR  PN      N1   R$  000000000089400000000008940000000000894000000000089400000000008940000000000872000000000090000001000000000000000100000000000000089400000000000000009999123100000010000000000000BRDEXPACNPR8105
012024100402DIRR3       010DIRECIONAL  ON      NM   R$  000000000300600000000030420000000002972000000000300800000000030050000000003000000000000300507425000000000001919300000000005774481300000000000000009999123100000010000000000000BRDIRRACNOR0119
012024100402KEPL3       010KEPLER WEBERON      NM   R$  000000000098000000000009830000000000970000000000097400000000009750000000000975000000000097602056000000000000551800000000000537538600000000000000009999123100000010000000000000BRKEPLACNOR1064
012024100402KLBN11      010KLABIN S/A  UNT     N2   R$  000000000210000000000021420000000002100000000000212600000000021320000000002127000000000213214827000000000004759000000000010121668400000000000000009999123100000010000000000000BRKLBNCDAM18143
012024100402KLBN3       010KLABIN S/A  ON      N2   R$  000000000042700000000004290000000000423000000000042600000000004270000000000427000000000042900641000000000000264900000000000112984000000000000000009999123100000010000000000000BRKLBNACNOR2171
012024100402KLBN4       010KLABIN S/A  PN      N2   R$  000000000042300000000004270000000000421000000000042400000000004270000000000426000000000042701566000000000001186700000000000503364800000000000000009999123100000010000000000000BRKLBNACNPR9171
012024100402DMVF3       010D1000VFARMA ON      NM   R$  000000000060800000000006500000000000608000000000062300000000006290000000000628000000000062900352000000000000058200000000000036263400000000000000009999123100000010000000000000BRDMVFACNOR9100
012024100402DOHL4       010DOHLER      PN           R$  000000000041100000000004180000000000411000000000041100000000004180000000000406000000000041800004000000000000001200000000000000493900000000000000009999123100000010000000000000BRDOHLACNPR9066
012024100402DOTZ3       010DOTZ SA     ON      NM   R$  000000000049800000000006380000000000498000000000057800000000005500000000000550000000000056000412000000000000130100000000000075200900000000000000009999123100000010000000000000BRDOTZACNOR7101
012024100402DXCO3       010DEXCO       ON      NM   R$  000000000086200000000008690000000000849000000000086100000000008650000000000861000000000086507303000000000003332000000000002870414500000000000000009999123100000010000000000000BRDXCOACNOR8105
012024100402ODPV3       010ODONTOPREV  ON  EJ  NM   R$  000000000110600000000011070000000001090000000000109400000000010930000000001092000000000109302217000000000000500900000000000548379900000000000000009999123100000010000000000000BRODPVACNOR4204
012024100402OFSA3       010OUROFINO S/AON      NM   R$  000000000200100000000020320000000002001000000000202900000000020320000000002031000000000206900008000000000000003400000000000006898600000000000000009999123100000010000000000000BROFSAACNOR7118
012024100402ONCO3       010ONCOCLINICASON      NM   R$  000000000045500000000005170000000000450000000000048200000000005070000000000507000000000050805677000000000006820500000000003292905600000000000000009999123100000010000000000000BRONCOACNOR6101
012024100402OPCT3       010OCEANPACT   ON      NM   R$  000000000067800000000006990000000000678000000000069100000000006990000000000688000000000069902208000000000000385000000000000266143500000000000000009999123100000010000000000000BROPCTACNOR0100
012024100402ORVR3       010ORIZON      ON      NM   R$  000000000457300000000046190000000004553000000000457400000000045820000000004582000000000458601979000000000000343200000000001570010100000000000000009999123100000010000000000000BRORVRACNOR0101
012024100402GEPA4       010GER PARANAP PN  ED       R$  000000000281100000000028110000000002811000000000281100000000028110000000002810000000000296900001000000000000000100000000000000281100000000000000009999123100000010000000000000BRGEPAACNPR9161
012024100402GFSA3       010GAFISA      ON      NM   R$  000000000021200000000002130000000000208000000000021000000000002110000000000210000000000021102772000000000002311900000000000487417900000000000000009999123100000010000000000000BRGFSAACNOR3125
012024100402GGBR3       010GERDAU      ON      N1   R$  000000000166600000000017050000000001663000000000169300000000016950000000001687000000000169500286000000000000053900000000000091266200000000000000009999123100000010000000000000BRGGBRACNOR1193
012024100402GGBR4       010GERDAU      PN      N1   R$  000000000188100000000019280000000001876000000000191300000000019180000000001916000000000191817025000000000008154500000000015607242400000000000000009999123100000010000000000000BRGGBRACNPR8193
012024100402PRNR3       010PRINER      ON      NM   R$  000000000124100000000012520000000001214000000000122900000000012400000000001236000000000124101183000000000000261900000000000322024000000000000000009999123100000010000000000000BRPRNRACNOR4109
012024100402PATI3       010PANATLANTICAON           R$  000000000265000000000026500000000002450000000000248300000000024500000000002454000000000299900003000000000000000600000000000001490000000000000000009999123100000010000000000000BRPATIACNOR6066
012024100402PCAR3       010P.ACUCAR-CBDON      NM   R$  000000000028400000000002870000000000278000000000028300000000002830000000000283000000000028508767000000000007448000000000002108101700000000000000009999123100000010000000000000BRPCARACNOR3167
012024100402PFRM3       010PROFARMA    ON      NM   R$  000000000055900000000005590000000000548000000000055100000000005500000000000550000000000055100310000000000000106300000000000058676000000000000000009999123100000010000000000000BRPFRMACNOR1116
012024100402PGMN3       010PAGUE MENOS ON      NM   R$  000000000026200000000002740000000000261000000000026900000000002740000000000272000000000027401620000000000000609300000000000164315600000000000000009999123100000010000000000000BRPGMNACNOR8103
012024100402PINE3       010PINE        ON      N2   R$  000000000048500000000005070000000000470000000000048300000000004960000000000486000000000049700074000000000000019200000000000009287600000000000000009999123100000010000000000000BRPINEACNOR1150
012024100402AZZA3       010AZZAS 2154  ON      NM   R$  000000000404000000000041700000000004010000000000409900000000041530000000004149000000000416008780000000000001909600000000007827967800000000000000009999123100000010000000000000BRAZZAACNOR9100
012024100402PINE4       010PINE        PN      N2   R$  000000000047900000000005070000000000478000000000049600000000004970000000000496000000000050100785000000000000538600000000000267472200000000000000009999123100000010000000000000BRPINEACNPR8150
012024100402PLAS3       010PLASCAR PARTON           R$  000000000066000000000006600000000000660000000000066000000000006600000000000608000000000066000001000000000000000100000000000000066000000000000000009999123100000010000000000000BRPLASACNOR2106
012024100402PLPL3       010PLANOEPLANO ON      NM   R$  000000000127600000000013050000000001259000000000128700000000013050000000001303000000000130503028000000000000679400000000000874904600000000000000009999123100000010000000000000BRPLPLACNOR5104
012024100402PNVL3       010DIMED       ON  EJ  NM   R$  000000000103000000000010380000000001017000000000103100000000010350000000001029000000000103601111000000000000162500000000000167625700000000000000009999123100000010000000000000BRPNVLACNOR9208
012024100402POMO3       010MARCOPOLO   ON      N2   R$  000000000061700000000006250000000000611000000000061800000000006150000000000615000000000062100242000000000000107700000000000066619500000000000000009999123100000010000000000000BRPOMOACNOR0099
012024100402POMO4       010MARCOPOLO   PN      N2   R$  000000000079100000000008070000000000786000000000079900000000008030000000000802000000000080309782000000000009711600000000007765282200000000000000009999123100000010000000000000BRPOMOACNPR7099
012024100402PORT3       010WILSON SONS ON      NM   R$  000000000167000000000016760000000001660000000000166700000000016700000000001664000000000167001872000000000001056100000000001761361900000000000000009999123100000010000000000000BRPORTACNOR8109
012024100402B3SA3       010B3          ON  EDJ NM   R$  000000000107000000000010760000000001065000000000107200000000010750000000001074000000000107629056000000000042986300000000046086855600000000000000009999123100000010000000000000BRB3SAACNOR6134
012024100402FRAS3       010FRAS-LE     ON      N1   R$  000000000210100000000021340000000002101000000000211500000000021080000000002108000000000211701513000000000000242900000000000513793200000000000000009999123100000010000000000000BRFRASACNOR0160
012024100402FRIO3       010METALFRIO   ON      NM   R$  000000001165100000000116510000000011651000000001165100000000116510000000011650000000001389800002000000000000000200000000000002330200000000000000009999123100000010000000000000BRFRIOACNOR2111
012024100402POSI3       010POSITIVO TECON      NM   R$  000000000058300000000005940000000000574000000000058100000000005930000000000591000000000059303331000000000001885100000000001095820500000000000000009999123100000010000000000000BRPOSIACNOR9116
012024100402PRIO3       010PETRORIO    ON      NM   R$  000000000447100000000044900000000004402000000000445000000000044810000000004476000000000448129152000000000006191500000000027554556800000000000000009999123100000010000000000000BRPRIOACNOR1107
012024100402RSUL4       010RIOSULENSE  PN           R$  000000000619000000000062490000000006150000000000618100000000062000000000006004000000000624000005000000000000000600000000000003709100000000000000009999123100000010000000000000BRRSULACNPR3114
012024100402JHSF3       010JHSF PART   ON  ED  NM   R$  000000000042300000000004310000000000422000000000042500000000004310000000000428000000000043104769000000000001810400000000000770337100000000000000009999123100000010000000000000BRJHSFACNOR2140
012024100402JSLG3       010JSL         ON      NM   R$  000000000078000000000007830000000000747000000000075700000000007540000000000752000000000075403038000000000000969500000000000734590200000000000000009999123100000010000000000000BRJSLGACNOR2121
012024100402SANB11      010SANTANDER BRUNT          R$  000000000282500000000028750000000002825000000000286500000000028650000000002864000000000286508203000000000002200300000000006304506400000000000000009999123100000010000000000000BRSANBCDAM13165
012024100402SANB3       010SANTANDER BRON           R$  000000000135700000000013730000000001354000000000136400000000013640000000001360000000000136500248000000000000035100000000000047895000000000000000009999123100000010000000000000BRSANBACNOR8172
012024100402SANB4       010SANTANDER BRPN           R$  000000000149100000000015040000000001489000000000149600000000015000000000001490000000000150000367000000000000052700000000000078864300000000000000009999123100000010000000000000BRSANBACNPR5172
012024100402HYPE3       010HYPERA      ON      NM   R$  000000000264000000000026910000000002630000000000267500000000026800000000002680000000000268312276000000000002640500000000007064684500000000000000009999123100000010000000000000BRHYPEACNOR0144
012024100402JALL3       010JALLESMACHADON      NM   R$  000000000064500000000006470000000000640000000000064300000000006440000000000643000000000064401469000000000000584700000000000376252700000000000000009999123100000010000000000000BRJALLACNOR0106
012024100402JBSS3       010JBS         ON      NM   R$  000000000320400000000032440000000003192000000000322100000000032440000000003238000000000324414596000000000004456300000000014356922800000000000000009999123100000010000000000000BRJBSSACNOR8122
012024100402MRVE3       010MRV         ON      NM   R$  000000000076600000000007820000000000752000000000076600000000007680000000000767000000000076914546000000000009617200000000007372193300000000000000009999123100000010000000000000BRMRVEACNOR2127
012024100402MTRE3       010MITRE REALTYON      NM   R$  000000000039000000000003910000000000378000000000038200000000003810000000000380000000000038100783000000000000507900000000000194281500000000000000009999123100000010000000000000BRMTREACNOR6115
012024100402MTSA4       010METISA      PN           R$  000000000386900000000038690000000003715000000000374600000000037320000000003716000000000380000007000000000000000700000000000002622700000000000000009999123100000010000000000000BRMTSAACNPR9073
012024100402MULT3       010MULTIPLAN   ON      N2   R$  000000000251600000000025810000000002516000000000255600000000025790000000002579000000000258114686000000000002635800000000006737694200000000000000009999123100000010000000000000BRMULTACNOR5139
012024100402BEES3       010BANESTES    ON  EJ       R$  000000000089100000000009000000000000891000000000089700000000008980000000000897000000000089900057000000000000009300000000000008346400000000000000009999123100000010000000000000BRBEESACNOR9396
012024100402BEES4       010BANESTES    PN  EJ       R$  000000000092700000000009340000000000922000000000092700000000009220000000000923000000000093400015000000000000001600000000000001484000000000000000009999123100000010000000000000BRBEESACNPR6321
012024100402BGIP3       010BANESE      ON           R$  000000000255000000000025500000000002550000000000255000000000025500000000002350000000000000000001000000000000000100000000000000255000000000000000009999123100000010000000000000BRBGIPACNOR1210
012024100402BGIP4       010BANESE      PN           R$  000000000245000000000024500000000002450000000000245000000000024500000000002460000000000249000004000000000000000500000000000001225000000000000000009999123100000010000000000000BRBGIPACNPR8210
012024100402BHIA3       010CASAS BAHIA ON      NM   R$  000000000047000000000004740000000000460000000000046600000000004660000000000466000000000046802850000000000002388700000000001113236600000000000000009999123100000010000000000000BRBHIAACNOR1102
012024100402CPFE3       010CPFL ENERGIAON      NM   R$  000000000335200000000034010000000003352000000000338600000000034010000000003388000000000340109050000000000003461500000000011722214200000000000000009999123100000010000000000000BRCPFEACNOR0137
012024100402CPLE3       010COPEL       ON  EDJ N2   R$  000000000088500000000009000000000000883000000000089300000000009000000000000900000000000090106303000000000004894900000000004373222600000000000000009999123100000010000000000000BRCPLEACNOR8150
012024100402CPLE5       010COPEL       PNA EDJ N2   R$  000000000120100000000012010000000001201000000000120100000000012010000000001189000000000140000001000000000000000100000000000000120100000000000000009999123100000010000000000000BRCPLEACNPA1148
012024100402CPLE6       010COPEL       PNB EDJ N2   R$  000000000098700000000010040000000000987000000000099600000000010010000000001000000000000100219898000000000011049500000000011007373800000000000000009999123100000010000000000000BRCPLEACNPB9147
012024100402EGIE3       010ENGIE BRASILON      NM   R$  000000000419200000000042140000000004176000000000419900000000041940000000004193000000000419804517000000000001401200000000005883882300000000000000009999123100000010000000000000BREGIEACNOR9127
012024100402EKTR4       010ELEKTRO     PN  EJ       R$  000000000454500000000045450000000004545000000000454500000000045450000000004267000000000452000002000000000000000600000000000002727000000000000000009999123100000010000000000000BREKTRACNPR7165
012024100402ELET3       010ELETROBRAS  ON      N1   R$  000000000383600000000038380000000003795000000000381300000000038160000000003816000000000382919055000000000005938800000000022646841900000000000000009999123100000010000000000000BRELETACNOR6160
012024100402ELET6       010ELETROBRAS  PNB     N1   R$  000000000425000000000042710000000004218000000000424600000000042580000000004249000000000425804133000000000000796800000000003383228000000000000000009999123100000010000000000000BRELETACNPB7077
012024100402RCSL3       010RECRUSUL    ON           R$  000000000046000000000004780000000000450000000000046200000000004700000000000470000000000047102736000000000001852000000000000855653900000000000000009999123100000010000000000000BRRCSLACNOR4134
012024100402RCSL4       010RECRUSUL    PN           R$  000000000009100000000000950000000000091000000000009300000000000930000000000093000000000009400200000000000000176300000000000016398800000000000000009999123100000010000000000000BRRCSLACNPR1134
012024100402RDNI3       010RNI         ON      NM   R$  000000000030500000000003100000000000305000000000030700000000003100000000000306000000000031100010000000000000001400000000000000429900000000000000009999123100000010000000000000BRRDNIACNOR9116
012024100402RDOR3       010REDE D OR   ON  EJ  NM   R$  000000000300500000000030910000000002993000000000306000000000030560000000003055000000000306015228000000000004649800000000014230811300000000000000009999123100000010000000000000BRRDORACNOR8114
012024100402RECV3       010PETRORECSA  ON      NM   R$  000000000185000000000018550000000001820000000000183800000000018370000000001837000000000183906484000000000001452100000000002669981000000000000000009999123100000010000000000000BRRECVACNOR3107
012024100402REDE3       010REDE ENERGIAON           R$  000000000069300000000006930000000000685000000000068800000000006930000000000684000000000069300015000000000000002000000000000001377900000000000000009999123100000010000000000000BRREDEACNOR7128
012024100402RENT3       010LOCALIZA    ON  EJ  NM   R$  000000000405200000000042140000000004052000000000416700000000041900000000004185000000000419021225000000000006997700000000029160453500000000000000009999123100000010000000000000BRRENTACNOR4197
012024100402TASA3       010TAURUS ARMASON      N2   R$  000000000107000000000010750000000001062000000000106800000000010640000000001064000000000106500052000000000000006000000000000006412900000000000000009999123100000010000000000000BRTASAACNOR7104
012024100402TASA4       010TAURUS ARMASPN      N2   R$  000000000105300000000010560000000001039000000000104500000000010470000000001044000000000104700812000000000000176000000000000183997800000000000000009999123100000010000000000000BRTASAACNPR4104
012024100402TCSA3       010TECNISA     ON      NM   R$  000000000018000000000001820000000000175000000000017700000000001760000000000176000000000017700164000000000000096400000000000017109800000000000000009999123100000010000000000000BRTCSAACNOR3112
012024100402TECN3       010TECHNOS     ON      NM   R$  000000000049500000000005010000000000485000000000049300000000004850000000000485000000000049000518000000000000097700000000000048208100000000000000009999123100000010000000000000BRTECNACNOR6109
012024100402TELB3       010TELEBRAS    ON           R$  000000000137800000000013930000000001372000000000138000000000013720000000001372000000000141000006000000000000000600000000000000828400000000000000009999123100000010000000000000BRTELBACNOR2140
012024100402CAMB3       010CAMBUCI     ON           R$  000000000121500000000012490000000001214000000000123200000000012490000000001230000000000124900155000000000000035400000000000043624400000000000000009999123100000010000000000000BRCAMBACNOR4131
012024100402CAML3       010CAMIL       ON      NM   R$  000000000084800000000008660000000000843000000000085700000000008660000000000860000000000086602420000000000000462000000000000396075500000000000000009999123100000010000000000000BRCAMLACNOR3129
012024100402CASH3       010MELIUZ      ON      NM   R$  000000000038700000000003870000000000373000000000037700000000003760000000000376000000000037701500000000000000538600000000000203100500000000000000009999123100000010000000000000BRCASHACNOR8107
012024100402CBAV3       010CBA         ON      NM   R$  000000000056900000000006220000000000569000000000060600000000006170000000000617000000000061815466000000000009955800000000006041907900000000000000009999123100000010000000000000BRCBAVACNOR5104
012024100402EQMA3B      010EQTLMARANHAOON      MB   R$  000000000229000000000023470000000002290000000000230000000000023470000000002290000000000234900005000000000000000900000000000002070300000000000000009999123100000010000000000000BREQMAACNOR8108
012024100402EQPA3       010EQTL PARA   ON           R$  000000000061400000000006140000000000605000000000060700000000006090000000000609000000000061000009000000000000001200000000000000729200000000000000009999123100000010000000000000BREQPAACNOR1111
012024100402EQTL3       010EQUATORIAL  ON      NM   R$  000000000320100000000032580000000003193000000000323500000000032500000000003246000000000325119097000000000006700600000000021677054300000000000000009999123100000010000000000000BREQTLACNOR0131
012024100402ESPA3       010ESPACOLASER ON      NM   R$  000000000010000000000001010000000000099000000000009900000000001000000000000100000000000010100100000000000000392800000000000039148500000000000000009999123100000010000000000000BRESPAACNOR7103
012024100402ESTR4       010ESTRELA     PN           R$  000000000037500000000003750000000000370000000000037200000000003730000000000359000000000037400003000000000000000500000000000000186100000000000000009999123100000010000000000000BRESTRACNPR0144
012024100402ETER3       010ETERNIT     ON      NM   R$  000000000057200000000005720000000000566000000000056900000000005670000000000567000000000057000329000000000000122900000000000070009900000000000000009999123100000010000000000000BRETERACNOR3244
012024100402EUCA4       010EUCATEX     PN      N1   R$  000000000155500000000015720000000001543000000000155800000000015600000000001560000000000156402401000000000000296800000000000462601500000000000000009999123100000010000000000000BREUCAACNPR8044
012024100402EVEN3       010EVEN        ON      NM   R$  000000000069000000000007120000000000685000000000070100000000007080000000000707000000000071008927000000000002836900000000001990277100000000000000009999123100000010000000000000BREVENACNOR8119
012024100402LUPA3       010LUPATECH    ON      NM   R$  000000000014200000000001420000000000139000000000014000000000001400000000000140000000000014100056000000000000055700000000000007838600000000000000009999123100000010000000000000BRLUPAACNOR8112
012024100402LVTC3       010WDC NETWORKSON      NM   R$  000000000037800000000003820000000000377000000000037800000000003820000000000378000000000038200023000000000000013300000000000005035200000000000000009999123100000010000000000000BRLVTCACNOR4102
012024100402LWSA3       010LWSA        ON      NM   R$  000000000040600000000004120000000000401000000000040600000000004100000000000409000000000041009271000000000005332200000000002165791700000000000000009999123100000010000000000000BRLWSAACNOR8103
012024100402MATD3       010MATER DEI   ON      NM   R$  000000000045900000000004760000000000452000000000046500000000004630000000000462000000000046402632000000000000625600000000000291105100000000000000009999123100000010000000000000BRMATDACNOR4104
012024100402MBLY3       010MOBLY       ON      NM   R$  000000000025900000000002610000000000224000000000023600000000002240000000000224000000000022500984000000000000866400000000000204856700000000000000009999123100000010000000000000BRMBLYACNOR5100
012024100402HAGA3       010HAGA S/A    ON           R$  000000000026200000000002710000000000260000000000026300000000002610000000000260000000000026600061000000000000012100000000000003182700000000000000009999123100000010000000000000BRHAGAACNOR7103
012024100402HAGA4       010HAGA S/A    PN           R$  000000000011700000000001190000000000117000000000011800000000001180000000000117000000000011900015000000000000006500000000000000767700000000000000009999123100000010000000000000BRHAGAACNPR4103
012024100402HAPV3       010HAPVIDA     ON      NM   R$  000000000040000000000004090000000000394000000000040400000000004020000000000402000000000040349078000000000059919500000000024219901300000000000000009999123100000010000000000000BRHAPVACNOR4114
012024100402MILS3       010MILLS       ON      NM   R$  000000000108500000000010990000000001078000000000109100000000010990000000001095000000000109901903000000000000393200000000000429358000000000000000009999123100000010000000000000BRMILSACNOR2128
012024100402MLAS3       010MULTILASER  ON      NM   R$  000000000016100000000001660000000000160000000000016300000000001650000000000163000000000016502283000000000001567400000000000255595500000000000000009999123100000010000000000000BRMLASACNOR9101
012024100402MNPR3       010MINUPAR     ON           R$  000000000173800000000017450000000001700000000000170900000000017200000000001711000000000174000011000000000000006900000000000011797700000000000000009999123100000010000000000000BRMNPRACNOR5122
012024100402MOVI3       010MOVIDA      ON      NM   R$  000000000058600000000005980000000000585000000000059000000000005890000000000588000000000058904966000000000002968000000000001752766800000000000000009999123100000010000000000000BRMOVIACNOR0122
012024100402MRFG3       010MARFRIG     ON      NM   R$  000000000137200000000013730000000001336000000000134800000000013460000000001345000000000135010195000000000004009800000000005406591100000000000000009999123100000010000000000000BRMRFGACNOR0116
012024100402BEEF3       010MINERVA     ON      NM   R$  000000000063900000000006410000000000633000000000063700000000006380000000000637000000000063905306000000000003519400000000002242721800000000000000009999123100000010000000000000BRBEEFACNOR6116
012024100402UCAS3       010UNICASA     ON      NM   R$  000000000021700000000002200000000000217000000000021800000000002170000000000217000000000021900046000000000000007700000000000001679400000000000000009999123100000010000000000000BRUCASACNOR1113
012024100402UGPA3       010ULTRAPAR    ON      NM   R$  000000000209600000000021180000000002089000000000210600000000021180000000002115000000000211810040000000000003580800000000007541586800000000000000009999123100000010000000000000BRUGPAACNOR8156
012024100402VAMO3       010VAMOS       ON      NM   R$  000000000057200000000005730000000000555000000000056100000000005640000000000564000000000056517977000000000016914500000000009492303700000000000000009999123100000010000000000000BRVAMOACNOR7105
012024100402VIVR3       010VIVER       ON      NM   R$  000000000017400000000001740000000000170000000000017300000000001730000000000172000000000017300044000000000000029600000000000005131700000000000000009999123100000010000000000000BRVIVRACNOR4123
012024100402VIVT3       010TELEF BRASILON           R$  000000000542100000000055020000000005415000000000547200000000054620000000005460000000000548114074000000000002424400000000013267890300000000000000009999123100000010000000000000BRVIVTACNOR0184
012024100402VLID3       010VALID       ON      NM   R$  000000000229500000000023290000000002276000000000231100000000023190000000002304000000000231901637000000000000212600000000000491341000000000000000009999123100000010000000000000BRVLIDACNOR5144
012024100402ROMI3       010ROMI        ON      NM   R$  000000000110000000000011030000000001091000000000109800000000011020000000001098000000000110200595000000000000091100000000000100090000000000000000009999123100000010000000000000BRROMIACNOR8196
012024100402TPIS3       010TRIUNFO PARTON      NM   R$  000000000052200000000005350000000000522000000000052800000000005250000000000525000000000053200133000000000000028800000000000015222100000000000000009999123100000010000000000000BRTPISACNOR8118
012024100402TRAD3       010TC          ON      NM   R$  000000000047500000000004900000000000466000000000048100000000004900000000000483000000000049000119000000000000055900000000000026932900000000000000009999123100000010000000000000BRTRADACNOR3102
012024100402TRIS3       010TRISUL      ON      NM   R$  000000000049500000000005020000000000489000000000049400000000004940000000000494000000000049700785000000000000357200000000000176672100000000000000009999123100000010000000000000BRTRISACNOR4118
012024100402WEGE3       010WEG         ON  EJ  NM   R$  000000000543600000000054980000000005426000000000545900000000054500000000005448000000000545319335000000000004818600000000026306163200000000000000009999123100000010000000000000BRWEGEACNOR0225
012024100402BPAN4       010BANCO PAN   PN      N1   R$  000000000096200000000009760000000000954000000000096700000000009760000000000970000000000097604000000000000001357300000000001313727200000000000000009999123100000010000000000000BRBPANACNPR1115
012024100402BRAP3       010BRADESPAR   ON      N1   R$  000000000184000000000018440000000001828000000000183800000000018330000000001833000000000184000310000000000000063500000000000116727200000000000000009999123100000010000000000000BRBRAPACNOR5148
012024100402BRAP4       010BRADESPAR   PN      N1   R$  000000000199000000000020000000000001972000000000198100000000019720000000001972000000000198006230000000000002856500000000005658844100000000000000009999123100000010000000000000BRBRAPACNPR2148
012024100402VSTE3       010VESTE       ON      NM   R$  000000000113200000000011320000000001120000000000113000000000011320000000001126000000000113200005000000000000000600000000000000678000000000000000009999123100000010000000000000BRVSTEACNOR5103
012024100402VTRU3       010VITRUEDUCA  ON      NM   R$  000000000092000000000009250000000000910000000000091700000000009240000000000918000000000092400661000000000000245100000000000224933100000000000000009999123100000010000000000000BRVTRUACNOR3100
012024100402VULC3       010VULCABRAS   ON      NM   R$  000000000169500000000016990000000001664000000000167900000000016930000000001685000000000169301772000000000000337400000000000566804000000000000000009999123100000010000000000000BRVULCACNOR2162
012024100402VVEO3       010VIVEO       ON      NM   R$  000000000018200000000001840000000000179000000000018100000000001800000000000180000000000018201608000000000000998800000000000180936200000000000000009999123100000010000000000000BRVVEOACNOR0104
012024100402TRPL3       010TRAN PAULISTON      N1   R$  000000000314000000000031400000000003091000000000312500000000031330000000003103000000000312900012000000000000001400000000000004375200000000000000009999123100000010000000000000BRTRPLACNOR4185
012024100402TRPL4       010TRAN PAULISTPN      N1   R$  000000000240800000000024220000000002397000000000240500000000024130000000002413000000000241608863000000000002565600000000006172192900000000000000009999123100000010000000000000BRTRPLACNPR1185
012024100402TTEN3       0103TENTOS     ON      NM   R$  000000000111200000000011120000000001092000000000109900000000010980000000001098000000000110203530000000000000709900000000000780276300000000000000009999123100000010000000000000BRTTENACNOR0103
012024100402TUPY3       010TUPY        ON      NM   R$  000000000254200000000025540000000002515000000000252400000000025300000000002516000000000253001752000000000000299200000000000755479000000000000000009999123100000010000000000000BRTUPYACNOR1184
012024100402ANIM3       010ANIMA       ON      NM   R$  000000000023100000000002450000000000228000000000023700000000002410000000000241000000000024307177000000000008677900000000002064599000000000000000009999123100000010000000000000BRANIMACNOR6109
012024100402BBDC3       010BRADESCO    ON  EJ  N1   R$  000000000131900000000013420000000001310000000000132500000000013290000000001326000000000132907539000000000005325500000000007060620400000000000000009999123100000010000000000000BRBBDCACNOR1776
012024100402BBDC4       010BRADESCO    PN  EJ  N1   R$  000000000149300000000015310000000001490000000000151100000000015060000000001506000000000150744115000000000023637500000000035737338600000000000000009999123100000010000000000000BRBBDCACNPR8776
012024100402BRIT3       010BRISANET    ON      NM   R$  000000000030100000000003010000000000295000000000029600000000002950000000000295000000000029602285000000000000504200000000000149338600000000000000009999123100000010000000000000BRBRITACNOR0103
012024100402BRKM3       010BRASKEM     ON      N1   R$  000000000194700000000019690000000001941000000000196100000000019690000000001963000000000196900116000000000000024200000000000047478200000000000000009999123100000010000000000000BRBRKMACNOR1119
012024100402BRKM5       010BRASKEM     PNA     N1   R$  000000000198400000000020160000000001964000000000198800000000020160000000002006000000000201605869000000000001947300000000003872430600000000000000009999123100000010000000000000BRBRKMACNPA4121
012024100402CRFB3       010CARREFOUR BRON      NM   R$  000000000086300000000008680000000000835000000000084600000000008350000000000835000000000083610496000000000012533100000000010604427400000000000000009999123100000010000000000000BRCRFBACNOR2116
012024100402BRAV3       010BRAVA       ON      NM   R$  000000000178900000000018020000000001755000000000178300000000017960000000001796000000000179712424000000000005094000000000009087467600000000000000009999123100000010000000000000BRBRAVACNOR3100
012024100402GRND3       010GRENDENE    ON      NM   R$  000000000056400000000005660000000000558000000000056100000000005660000000000564000000000056602092000000000000610000000000000342635200000000000000009999123100000010000000000000BRGRNDACNOR3175
012024100402IFCM3       010INFRACOMM   ON      NM   R$  000000000001700000000000170000000000016000000000001600000000000170000000000016000000000001700539000000000000590800000000000009743500000000000000009999123100000010000000000000BRIFCMACNOR8101
012024100402IGTI11      010IGUATEMI S.AUNT     N1   R$  000000000210800000000021600000000002102000000000213200000000021600000000002160000000000216111492000000000003254900000000006942123200000000000000009999123100000010000000000000BRIGTICDAM16106
012024100402IGTI3       010IGUATEMI S.AON      N1   R$  000000000026100000000002680000000000260000000000026300000000002660000000000263000000000026600133000000000000028900000000000007628200000000000000009999123100000010000000000000BRIGTIACNOR8106
012024100402GUAR3       010GUARARAPES  ON      NM   R$  000000000075300000000007680000000000750000000000075900000000007570000000000757000000000075802620000000000000709800000000000538973400000000000000009999123100000010000000000000BRGUARACNOR4173
012024100402ALPA3       010ALPARGATAS  ON      N1   R$  000000000070000000000007000000000000695000000000069900000000006950000000000681000000000069500004000000000000001200000000000000839500000000000000009999123100000010000000000000BRALPAACNOR0231
012024100402ALPA4       010ALPARGATAS  PN      N1   R$  000000000068900000000007060000000000680000000000069800000000007050000000000702000000000070607680000000000004804700000000003357047500000000000000009999123100000010000000000000BRALPAACNPR7232
012024100402ALPK3       010ESTAPAR     ON      NM   R$  000000000027700000000002820000000000275000000000027900000000002820000000000279000000000028200181000000000000079400000000000022155800000000000000009999123100000010000000000000BRALPKACNOR9101
012024100402ALUP11      010ALUPAR      UNT     N2   R$  000000000295000000000029550000000002921000000000293100000000029250000000002925000000000293605429000000000000905900000000002655692000000000000000009999123100000010000000000000BRALUPCDAM15120
012024100402ALUP3       010ALUPAR      ON      N2   R$  000000000099100000000009960000000000980000000000098800000000009910000000000990000000000100300044000000000000005000000000000004940200000000000000009999123100000010000000000000BRALUPACNOR8120
012024100402ALUP4       010ALUPAR      PN      N2   R$  000000000098500000000009850000000000971000000000097400000000009710000000000970000000000097400115000000000000018600000000000018128100000000000000009999123100000010000000000000BRALUPACNPR5120
012024100402AMAR3       010LOJAS MARISAON      NM   R$  000000000010400000000001060000000000103000000000010400000000001060000000000103000000000010600420000000000000182000000000000019016700000000000000009999123100000010000000000000BRAMARACNOR4115
012024100402AMBP3       010AMBIPAR     ON      NM   R$  000000001470000000000148720000000013500000000001414100000000135000000000013500000000001365000706000000000000142400000000002013758700000000000000009999123100000010000000000000BRAMBPACNOR6103
012024100402CRPG5       010CRISTAL     PNA          R$  000000000262900000000026300000000002610000000000262600000000026300000000002630000000000265000025000000000000006400000000000016808900000000000000009999123100000010000000000000BRCRPGACNPA3119
012024100402CRPG6       010CRISTAL     PNB          R$  000000000265600000000026560000000002628000000000264400000000026300000000002630000000000274000005000000000000000500000000000001322000000000000000009999123100000010000000000000BRCRPGACNPB1119
012024100402CSAN3       010COSAN       ON      NM   R$  000000000129800000000013250000000001298000000000131400000000013250000000001322000000000132510888000000000007543900000000009915964100000000000000009999123100000010000000000000BRCSANACNOR6126
012024100402ENEV3       010ENEVA       ON      NM   R$  000000000139500000000014140000000001395000000000140700000000014100000000001409000000000141012416000000000004443400000000006254724500000000000000009999123100000010000000000000BRENEVACNOR8106
012024100402ENGI11      010ENERGISA    UNT     N2   R$  000000000436600000000044250000000004359000000000439200000000044250000000004417000000000442711058000000000002554200000000011219779100000000000000009999123100000010000000000000BRENGICDAM16136
012024100402ENGI3       010ENERGISA    ON      N2   R$  000000000134500000000013470000000001317000000000133500000000013170000000001317000000000134700051000000000000008400000000000011220300000000000000009999123100000010000000000000BRENGIACNOR0146
012024100402ENGI4       010ENERGISA    PN      N2   R$  000000000076800000000007730000000000759000000000076700000000007680000000000766000000000078000076000000000000017900000000000013734700000000000000009999123100000010000000000000BRENGIACNPR7142
012024100402ENJU3       010ENJOEI      ON      NM   R$  000000000013100000000001320000000000129000000000012900000000001300000000000129000000000013000304000000000000501000000000000065112800000000000000009999123100000010000000000000BRENJUACNOR9100
012024100402EPAR3       010EMBPAR S/A  ON           R$  000000000057300000000005730000000000561000000000056400000000005680000000000562000000000056700016000000000000002600000000000001468900000000000000009999123100000010000000000000BREPARACNOR9105
012024100402KRSA3       010KORA SAUDE  ON      NM   R$  000000000004900000000000490000000000048000000000004800000000000490000000000048000000000004900176000000000000075500000000000003677800000000000000009999123100000010000000000000BRKRSAACNOR0100
012024100402LAND3       010TERRASANTAPAON      NM   R$  000000000129400000000012940000000001250000000000127400000000012920000000001265000000000129300116000000000000019000000000000024206200000000000000009999123100000010000000000000BRLANDACNOR9103
012024100402LAVV3       010LAVVI       ON      NM   R$  000000000080600000000008090000000000795000000000080100000000008080000000000805000000000080802138000000000000370100000000000296765500000000000000009999123100000010000000000000BRLAVVACNOR4113
012024100402LEVE3       010METAL LEVE  ON      NM   R$  000000000306800000000030890000000003046000000000306400000000030460000000003046000000000305201403000000000000246100000000000754057600000000000000009999123100000010000000000000BRLEVEACNOR2197
012024100402LJQQ3       010QUERO-QUERO ON      NM   R$  000000000031000000000003130000000000305000000000030800000000003080000000000307000000000030808941000000000004357100000000001346189400000000000000009999123100000010000000000000BRLJQQACNOR5104
012024100402LOGG3       010LOG COM PROPON      NM   R$  000000000229600000000023220000000002264000000000229500000000023220000000002307000000000232201215000000000000145700000000000334512300000000000000009999123100000010000000000000BRLOGGACNOR7107
012024100402LOGN3       010LOG-IN      ON      NM   R$  000000000325500000000034890000000003255000000000342400000000034890000000003420000000000349500086000000000000011200000000000038353400000000000000009999123100000010000000000000BRLOGNACNOR3105
012024100402LPSB3       010LOPES BRASILON      NM   R$  000000000017700000000001790000000000176000000000017600000000001760000000000176000000000017900167000000000000081700000000000014450200000000000000009999123100000010000000000000BRLPSBACNOR0114
012024100402LREN3       010LOJAS RENNERON  EJ  NM   R$  000000000178500000000018130000000001773000000000180100000000018110000000001807000000000181228862000000000011268900000000020303240900000000000000009999123100000010000000000000BRLRENACNOR1222
012024100402PDTC3       010PADTEC      ON      NM   R$  000000000018200000000001870000000000182000000000018500000000001840000000000184000000000018600022000000000000005700000000000001055000000000000000009999123100000010000000000000BRPDTCACNOR3101
012024100402PEAB3       010PAR AL BAHIAON           R$  000000000440000000000044500000000004400000000000441600000000044500000000004151000000000459000002000000000000000300000000000001325000000000000000009999123100000010000000000000BRPEABACNOR3133
012024100402PETR3       010PETROBRAS   ON      N2   R$  000000000414500000000041580000000004106000000000413500000000041360000000004135000000000413814571000000000005845300000000024170880200000000000000009999123100000010000000000000BRPETRACNOR9206
012024100402PETR4       010PETROBRAS   PN      N2   R$  000000000381500000000038200000000003767000000000378600000000037840000000003783000000000378441140000000000022526200000000085284403100000000000000009999123100000010000000000000BRPETRACNPR6214
012024100402SBFG3       010GRUPO SBF   ON      NM   R$  000000000157200000000015720000000001492000000000151200000000015000000000001500000000000150209175000000000002164600000000003274583800000000000000009999123100000010000000000000BRSBFGACNOR1103
012024100402SBSP3       010SABESP      ON      NM   R$  000000000881000000000088700000000008784000000000880900000000088120000000008810000000000881510252000000000002433400000000021438078200000000000000009999123100000010000000000000BRSBSPACNOR5161
012024100402VALE3       010VALE        ON      NM   R$  000000000629200000000063010000000006230000000000625800000000062480000000006243000000000624833875000000000016267000000000101812069400000000000000009999123100000010000000000000BRVALEACNOR0211
012024100402BAHI3       010BAHEMA      ON      MA   R$  000000000059100000000006360000000000589000000000060900000000006030000000000601000000000063900063000000000000036100000000000021988700000000000000009999123100000010000000000000BRBAHIACNOR1074
012024100402BALM3       010BAUMER      ON           R$  000000000162000000000016200000000001620000000000162000000000016200000000001450000000000162000001000000000000000100000000000000162000000000000000009999123100000010000000000000BRBALMACNOR5055
012024100402BAZA3       010AMAZONIA    ON           R$  000000000916100000000091980000000009160000000000917100000000091900000000009175000000000926900009000000000000001000000000000009171200000000000000009999123100000010000000000000BRBAZAACNOR0179
012024100402BBAS3       010BRASIL      ON      NM   R$  000000000270000000000027040000000002677000000000268600000000026860000000002686000000000268723238000000000011911100000000032002898800000000000000009999123100000010000000000000BRBBASACNOR3326
012024100402BPAC11      010BTGP BANCO  UNT     N2   R$  000000000320500000000032720000000003200000000000324900000000032500000000003250000000000325113906000000000006065900000000019710759900000000000000009999123100000010000000000000BRBPACUNT006119
012024100402BPAC3       010BTGP BANCO  ON      N2   R$  000000000156300000000015650000000001540000000000154900000000015400000000001540000000000156200019000000000000001900000000000002943800000000000000009999123100000010000000000000BRBPACACNOR7134
012024100402BPAC5       010BTGP BANCO  PNA     N2   R$  000000000082700000000008480000000000827000000000084000000000008390000000000838000000000084900027000000000000003700000000000003109100000000000000009999123100000010000000000000BRBPACACNPA0134
012024100402GGPS3       010GPS         ON      NM   R$  000000000181100000000018530000000001807000000000183900000000018320000000001831000000000183205899000000000001450700000000002668107800000000000000009999123100000010000000000000BRGGPSACNOR9103
012024100402GMAT3       010GRUPO MATEUSON  EJ  NM   R$  000000000074100000000007430000000000726000000000073600000000007350000000000735000000000073806770000000000002368600000000001745487200000000000000009999123100000010000000000000BRGMATACNOR7103
012024100402GOAU3       010GERDAU MET  ON      N1   R$  000000000104400000000010550000000001040000000000104600000000010480000000001045000000000104900390000000000000092300000000000096563000000000000000009999123100000010000000000000BRGOAUACNOR1268
012024100402GOAU4       010GERDAU MET  PN      N1   R$  000000000107100000000010940000000001068000000000108600000000010860000000001085000000000108809810000000000004950900000000005380040200000000000000009999123100000010000000000000BRGOAUACNPR8269
012024100402RAIZ4       010RAIZEN      PN      N2   R$  000000000030500000000003100000000000303000000000030500000000003050000000000305000000000030606947000000000006918100000000002112977700000000000000009999123100000010000000000000BRRAIZACNPR6111
012024100402RANI3       010IRANI       ON      NM   R$  000000000076900000000007720000000000754000000000076000000000007600000000000760000000000076303273000000000000925300000000000703513800000000000000009999123100000010000000000000BRRANIACNOR5073
012024100402RAPT3       010RANDON PART ON      N1   R$  000000000088000000000008800000000000875000000000087600000000008760000000000876000000000087900031000000000000013300000000000011654500000000000000009999123100000010000000000000BRRAPTACNOR7163
012024100402RAPT4       010RANDON PART PN      N1   R$  000000000106300000000010670000000001046000000000105600000000010600000000001060000000000106207662000000000003512100000000003709922100000000000000009999123100000010000000000000BRRAPTACNPR4163
012024100402SYNE3       010SYN PROP TECON      NM   R$  000000000077800000000007840000000000771000000000077800000000007770000000000776000000000077702378000000000001000600000000000778761600000000000000009999123100000010000000000000BRSYNEACNOR2103
012024100402AERI3       010AERIS       ON      NM   R$  000000000061000000000006360000000000601000000000061600000000006310000000000626000000000063101132000000000000271400000000000167246100000000000000009999123100000010000000000000BRAERIACNOR4102
012024100402AESB3       010AES BRASIL  ON      NM   R$  000000000116800000000011740000000001168000000000117100000000011710000000001171000000000117203018000000000002150900000000002519200300000000000000009999123100000010000000000000BRAESBACNOR7107
012024100402AFLT3       010AFLUENTE T  ON           R$  000000000070300000000007030000000000703000000000070300000000007030000000000702000000000072200001000000000000000100000000000000070300000000000000009999123100000010000000000000BRAFLTACNOR1122
012024100402AGRO3       010BRASILAGRO  ON      NM   R$  000000000251600000000025210000000002500000000000251100000000025150000000002512000000000251500931000000000000141800000000000356095400000000000000009999123100000010000000000000BRAGROACNOR7114
012024100402SAPR11      010SANEPAR     UNT     N2   R$  000000000291500000000029150000000002787000000000281700000000027870000000002787000000000279009045000000000002196900000000006190848700000000000000009999123100000010000000000000BRSAPRCDAM13118
012024100402SAPR3       010SANEPAR     ON      N2   R$  000000000055400000000005540000000000533000000000053800000000005330000000000533000000000053700749000000000000231400000000000124507300000000000000009999123100000010000000000000BRSAPRACNOR9159
012024100402SAPR4       010SANEPAR     PN      N2   R$  000000000058600000000005860000000000567000000000057100000000005680000000000568000000000056903054000000000001447600000000000827299800000000000000009999123100000010000000000000BRSAPRACNPR6159
012024100402UNIP3       010UNIPAR      ON           R$  000000000464400000000046780000000004584000000000461500000000046780000000004608000000000466900047000000000000005900000000000027233800000000000000009999123100000010000000000000BRUNIPACNOR7206
012024100402UNIP5       010UNIPAR      PNA          R$  000000000480000000000048000000000004800000000000480000000000048000000000004626000000000483900001000000000000000200000000000000960000000000000000009999123100000010000000000000BRUNIPACNPA0208
012024100402UNIP6       010UNIPAR      PNB          R$  000000000465000000000046860000000004600000000000465200000000046560000000004654000000000465600836000000000000147100000000000684372000000000000000009999123100000010000000000000BRUNIPACNPB8206
012024100402USIM3       010USIMINAS    ON      N1   R$  000000000059900000000006090000000000592000000000060100000000006090000000000604000000000060900621000000000000193300000000000116276300000000000000009999123100000010000000000000BRUSIMACNOR3167
012024100402USIM5       010USIMINAS    PNA     N1   R$  000000000060900000000006210000000000607000000000061700000000006210000000000620000000000062109325000000000012257700000000007568982200000000000000009999123100000010000000000000BRUSIMACNPA6169
012024100402TAEE11      010TAESA       UNT     N2   R$  000000000342300000000034340000000003411000000000342300000000034260000000003424000000000342705729000000000001712200000000005861153300000000000000009999123100000010000000000000BRTAEECDAM10148
012024100402TAEE3       010TAESA       ON      N2   R$  000000000114000000000011430000000001132000000000113900000000011410000000001139000000000114100379000000000000059300000000000067557900000000000000009999123100000010000000000000BRTAEEACNOR9148
012024100402TAEE4       010TAESA       PN      N2   R$  000000000114900000000011510000000001142000000000114600000000011470000000001147000000000115000658000000000000134800000000000154526200000000000000009999123100000010000000000000BRTAEEACNPR6148
012024100402AALR3       010ALLIAR      ON      NM   R$  000000000150200000000015210000000001484000000000150300000000015210000000001483000000000152600178000000000000020900000000000031429200000000000000009999123100000010000000000000BRAALRACNOR6102
012024100402ABCB4       010ABC BRASIL  PN      N2   R$  000000000214100000000021550000000002135000000000214500000000021550000000002143000000000215601959000000000000390200000000000837283800000000000000009999123100000010000000000000BRABCBACNPR4146
012024100402ABEV3       010AMBEV S/A   ON           R$  000000000132600000000013450000000001317000000000133300000000013280000000001328000000000133226505000000000036602700000000048806429200000000000000009999123100000010000000000000BRABEVACNOR1128
012024100402BIOM3       010BIOMM       ON      MA   R$  000000000099100000000009990000000000987000000000099100000000009870000000000987000000000099300152000000000000057100000000000056634800000000000000009999123100000010000000000000BRBIOMACNOR2112
012024100402BLAU3       010BLAU        ON  EJ  NM   R$  000000000130300000000013170000000001282000000000130300000000013050000000001305000000000131400770000000000000129700000000000169101300000000000000009999123100000010000000000000BRBLAUACNOR8115
012024100402BMEB3       010MERCANTIL   ON      N1   R$  000000000387200000000038720000000003872000000000387200000000038720000000003872000000000399900003000000000000000700000000000002710400000000000000009999123100000010000000000000BRBMEBACNOR8206
012024100402BMEB4       010MERCANTIL   PN      N1   R$  000000000390700000000039700000000003850000000000391200000000038910000000003891000000000390000149000000000000025400000000000099371300000000000000009999123100000010000000000000BRBMEBACNPR5211
012024100402BMGB4       010BANCO BMG   PN      N1   R$  000000000039900000000004100000000000396000000000040400000000004100000000000403000000000041002288000000000000752100000000000304163100000000000000009999123100000010000000000000BRBMGBACNPR0110
012024100402BMIN4       010MERC INVEST PN           R$  000000000161200000000016120000000001612000000000161200000000016120000000001619000000000170000001000000000000000100000000000000161200000000000000009999123100000010000000000000BRBMINACNPR1176
012024100402BMKS3       010BIC MONARK  ON           R$  000000003051000000000310990000000030510000000003072600000000307900000000030790000000003127700005000000000000000011000000000000337989000000000000009999123100000010000000000000BRBMKSACNOR9166
012024100402BMOB3       010BEMOBI TECH ON      NM   R$  000000000143100000000014520000000001424000000000144000000000014500000000001450000000000145101218000000000000161100000000000232054500000000000000009999123100000010000000000000BRBMOBACNOR7103
012024100402HBOR3       010HELBOR      ON      NM   R$  000000000019400000000001960000000000188000000000019200000000001910000000000191000000000019201233000000000000662500000000000127235200000000000000009999123100000010000000000000BRHBORACNOR3118
012024100402HBRE3       010HBR REALTY  ON      NM   R$  000000000046100000000004630000000000453000000000045900000000004610000000000460000000000046100945000000000000390200000000000179191900000000000000009999123100000010000000000000BRHBREACNOR4100
012024100402HBSA3       010HIDROVIAS   ON  ES  NM   R$  000000000034500000000003490000000000336000000000034000000000003410000000000340000000000034102785000000000001595400000000000543567200000000000000009999123100000010000000000000BRHBSAACNOR0101
012024100402CYRE3       010CYRELA REALTON      NM   R$  000000000210600000000021350000000002088000000000211300000000021240000000002124000000000212915891000000000004680300000000009889584600000000000000009999123100000010000000000000BRCYREACNOR7140
012024100402ITUB3       010ITAUUNIBANCOON  EJ  N1   R$  000000000303900000000030600000000003027000000000304600000000030460000000003045000000000304601506000000000000312400000000000951684900000000000000009999123100000010000000000000BRITUBACNOR4342
012024100402ITUB4       010ITAUUNIBANCOPN  EJ  N1   R$  000000000346900000000035140000000003463000000000349000000000034910000000003491000000000349923788000000000015482400000000054043009100000000000000009999123100000010000000000000BRITUBACNPR1342
012024100402RADL3       010RAIADROGASILON  EDJ NM   R$  000000000253100000000025550000000002511000000000254000000000025380000000002538000000000253914943000000000006316700000000016049327600000000000000009999123100000010000000000000BRRADLACNOR0158
012024100402RAIL3       010RUMO S.A.   ON      NM   R$  000000000196000000000019990000000001960000000000198800000000019950000000001992000000000199515422000000000007223900000000014362797000000000000000009999123100000010000000000000BRRAILACNOR9105
012024100402SOJA3       010BOA SAFRA   ON  EJ  NM   R$  000000000118600000000011980000000001163000000000118100000000011980000000001190000000000119803267000000000000548800000000000648629600000000000000009999123100000010000000000000BRSOJAACNOR9106
012024100402SRNA3       010SERENA      ON      NM   R$  000000000080600000000008140000000000797000000000080700000000008030000000000802000000000080306218000000000001993000000000001609226400000000000000009999123100000010000000000000BRSRNAACNOR4100
012024100402STBP3       010SANTOS BRP  ON      NM   R$  000000000146800000000014730000000001456000000000146300000000014690000000001464000000000146910471000000000006156800000000009010448200000000000000009999123100000010000000000000BRSTBPACNOR3131
012024100402SUZB3       010SUZANO S.A. ON      NM   R$  000000000545000000000055750000000005450000000000554100000000055750000000005570000000000557617243000000000004002000000000022178943000000000000000009999123100000010000000000000BRSUZBACNOR0130
012024100402AZEV3       010AZEVEDO     ON           R$  000000000012900000000001300000000000127000000000012800000000001280000000000127000000000012800266000000000000212200000000000027243300000000000000009999123100000010000000000000BRAZEVACNOR0121
012024100402AZEV4       010AZEVEDO     PN           R$  000000000012700000000001280000000000125000000000012600000000001260000000000125000000000012601495000000000002047500000000000258900300000000000000009999123100000010000000000000BRAZEVACNPR7121
012024100402AZUL4       010AZUL        PN      N2   R$  000000000060000000000006020000000000580000000000058900000000005880000000000587000000000058811703000000000019762400000000011659746700000000000000009999123100000010000000000000BRAZULACNPR4103
012024100402CCRO3       010CCR SA      ON      NM   R$  000000000120100000000012350000000001200000000000122200000000012200000000001220000000000122408994000000000006187900000000007562287700000000000000009999123100000010000000000000BRCCROACNOR2145
012024100402CEAB3       010CEA MODAS   ON      NM   R$  000000000100000000000010100000000000986000000000099700000000009950000000000995000000000100202731000000000001258700000000001255612800000000000000009999123100000010000000000000BRCEABACNOR1102
012024100402CEBR3       010CEB         ON           R$  000000000187000000000018710000000001850000000000186300000000018700000000001852000000000190700014000000000000001700000000000003167700000000000000009999123100000010000000000000BRCEBRACNOR5125
012024100402CEBR5       010CEB         PNA          R$  000000000162500000000016380000000001624000000000163300000000016380000000001638000000000166700006000000000000004000000000000006535900000000000000009999123100000010000000000000BRCEBRACNPA8124
012024100402CEBR6       010CEB         PNB          R$  000000000179900000000018000000000001779000000000179400000000017960000000001776000000000179700015000000000000002000000000000003589200000000000000009999123100000010000000000000BRCEBRACNPB6124
012024100402CEDO3       010CEDRO       ON      N1   R$  000000000230000000000023000000000002300000000000230000000000023000000000001537000000000230000001000000000000000100000000000000230000000000000000009999123100000010000000000000BRCEDOACNOR8096
012024100402CEDO4       010CEDRO       PN      N1   R$  000000000231400000000023140000000002304000000000230900000000023040000000002305000000000244600002000000000000000700000000000001616800000000000000009999123100000010000000000000BRCEDOACNPR5128
012024100402CEEB3       010COELBA      ON  EJ       R$  000000000389900000000039050000000003899000000000390100000000039050000000003852000000000392500003000000000000000300000000000001170400000000000000009999123100000010000000000000BRCEEBACNOR3200
012024100402CGAS3       010COMGAS      ON           R$  000000001270000000000127000000000012700000000001270000000000127000000000012002000000001270000001000000000000000100000000000001270000000000000000009999123100000010000000000000BRCGASACNOR0164
012024100402CGAS5       010COMGAS      PNA          R$  000000001285000000000128500000000012780000000001281500000000127800000000012722000000001285000003000000000000000400000000000005126000000000000000009999123100000010000000000000BRCGASACNPA3161
012024100402CGRA3       010GRAZZIOTIN  ON           R$  000000000250000000000025240000000002500000000000250400000000025240000000002500000000000252500003000000000000000500000000000001252400000000000000009999123100000010000000000000BRCGRAACNOR2083
012024100402CGRA4       010GRAZZIOTIN  PN           R$  000000000250200000000025150000000002494000000000250300000000025020000000002500000000000251600011000000000000002000000000000005006200000000000000009999123100000010000000000000BRCGRAACNPR9083
012024100402CLSA3       010CLEARSALE   ON      NM   R$  000000000095000000000009670000000000929000000000094900000000009550000000000953000000000095513221000000000016370500000000015538379800000000000000009999123100000010000000000000BRCLSAACNOR0100
012024100402CLSC4       010CELESC      PN  EJ  N2   R$  000000000812400000000082740000000008124000000000822100000000082670000000008153000000000827800003000000000000000300000000000002466500000000000000009999123100000010000000000000BRCLSCACNPR3132
012024100402CMIG3       010CEMIG       ON      N1   R$  000000000144500000000014450000000001419000000000142900000000014300000000001430000000000143600691000000000000093400000000000133483500000000000000009999123100000010000000000000BRCMIGACNOR6244
012024100402CMIG4       010CEMIG       PN      N1   R$  000000000112000000000011240000000001111000000000111700000000011160000000001116000000000111711532000000000008068700000000009015931900000000000000009999123100000010000000000000BRCMIGACNPR3245
012024100402CSUD3       010CSU DIGITAL ON  EJ  NM   R$  000000000172600000000017390000000001715000000000172600000000017300000000001720000000000173400184000000000000034100000000000058860300000000000000009999123100000010000000000000BRCSUDACNOR5111
012024100402CTKA4       010KARSTEN     PN           R$  000000000190000000000019000000000001900000000000190000000000019000000000001901000000000209400004000000000000002000000000000003800500000000000000009999123100000010000000000000BRCTKAACNPR7043
012024100402CURY3       010CURY S/A    ON      NM   R$  000000000230300000000023300000000002256000000000227700000000022640000000002264000000000226708999000000000002713600000000006180926500000000000000009999123100000010000000000000BRCURYACNOR3109
012024100402CVCB3       010CVC BRASIL  ON      NM   R$  000000000018500000000001860000000000183000000000018400000000001840000000000183000000000018406143000000000005848400000000001076648400000000000000009999123100000010000000000000BRCVCBACNOR1116
012024100402EZTC3       010EZTEC       ON      NM   R$  000000000137800000000013990000000001366000000000138300000000013920000000001388000000000139204117000000000001005800000000001391651000000000000000009999123100000010000000000000BREZTCACNOR0126
012024100402QUAL3       010QUALICORP   ON      NM   R$  000000000020200000000002100000000000197000000000020400000000002050000000000205000000000020604959000000000008277400000000001688735800000000000000009999123100000010000000000000BRQUALACNOR6120
012024100402SMFT3       010SMART FIT   ON      NM   R$  000000000216300000000022180000000002161000000000220200000000022050000000002205000000000220905263000000000001264000000000002784225200000000000000009999123100000010000000000000BRSMFTACNOR1112
012024100402SMTO3       010SAO MARTINHOON      NM   R$  000000000273700000000027940000000002724000000000276000000000027840000000002776000000000278406045000000000001137000000000003139182500000000000000009999123100000010000000000000BRSMTOACNOR3127
012024100402BRSR3       010BANRISUL    ON      N1   R$  000000000129200000000013000000000001282000000000129200000000013000000000001290000000000130500057000000000000008300000000000010731200000000000000009999123100000010000000000000BRBRSRACNOR3189
012024100402BRSR6       010BANRISUL    PNB     N1   R$  000000000113800000000011410000000001129000000000113200000000011310000000001130000000000113204101000000000001240800000000001405609000000000000000009999123100000010000000000000BRBRSRACNPB4192
012024100402BSLI3       010BRB BANCO   ON           R$  000000000092100000000009210000000000921000000000092100000000009210000000000921000000000096100001000000000000000200000000000000184200000000000000009999123100000010000000000000BRBSLIACNOR5194
012024100402BSLI4       010BRB BANCO   PN           R$  000000000086800000000009400000000000868000000000093100000000009400000000000870000000000096900011000000000000001100000000000001024200000000000000009999123100000010000000000000BRBSLIACNPR2194
012024100402FESA3       010FERBASA     ON      N1   R$  000000000126300000000012630000000001263000000000126300000000012630000000001288000000000144300003000000000000000400000000000000505200000000000000009999123100000010000000000000BRFESAACNOR8189
012024100402FESA4       010FERBASA     PN      N1   R$  000000000079300000000007930000000000775000000000078300000000007880000000000784000000000078801519000000000000451500000000000353774200000000000000009999123100000010000000000000BRFESAACNPR5085
012024100402FHER3       010FER HERINGERON      NM   R$  000000000039200000000003920000000000392000000000039200000000003920000000000392000000000040300004000000000000000500000000000000196000000000000000009999123100000010000000000000BRFHERACNOR5103
012024100402FIEI3       010FICA        ON           R$  000000000099000000000010000000000000990000000000099900000000010000000000001000000000000129800006000000000000003000000000000002998000000000000000009999123100000010000000000000BRFIEIACNOR2100
012024100402FIQE3       010UNIFIQUE    ON      NM   R$  000000000038200000000003840000000000374000000000037700000000003800000000000378000000000038000415000000000000230200000000000086794100000000000000009999123100000010000000000000BRFIQEACNOR5107
012024100402FLRY3       010FLEURY      ON      NM   R$  000000000151500000000015150000000001497000000000151200000000015150000000001510000000000151508750000000000003706700000000005604864100000000000000009999123100000010000000000000BRFLRYACNOR5139
012024100402ITSA3       010ITAUSA      ON      N1   R$  000000000105700000000010680000000001055000000000106200000000010630000000001063000000000106500342000000000000114100000000000121255600000000000000009999123100000010000000000000BRITSAACNOR0443
012024100402ITSA4       010ITAUSA      PN      N1   R$  000000000105500000000010680000000001053000000000106200000000010620000000001062000000000106314827000000000015519700000000016481959700000000000000009999123100000010000000000000BRITSAACNPR7443
012024100402MDIA3       010M.DIASBRANCOON      NM   R$  000000000262500000000027180000000002614000000000266900000000026530000000002653000000000265905489000000000001037700000000002769759300000000000000009999123100000010000000000000BRMDIAACNOR7136
012024100402MDNE3       010MOURA DUBEUXON      NM   R$  000000000153000000000015780000000001518000000000154600000000015780000000001562000000000157803199000000000000593600000000000917810200000000000000009999123100000010000000000000BRMDNEACNOR9100
012024100402MEAL3       010IMC S/A     ON      NM   R$  000000000013800000000001450000000000137000000000014200000000001430000000000143000000000014400413000000000000890200000000000126887800000000000000009999123100000010000000000000BRMEALACNOR9105
012024100402MELK3       010MELNICK     ON      NM   R$  000000000036500000000003660000000000362000000000036400000000003640000000000364000000000036600486000000000000200400000000000073031500000000000000009999123100000010000000000000BRMELKACNOR8111
012024100402MGLU3       010MAGAZ LUIZA ON      NM   R$  000000000096600000000009770000000000951000000000096200000000009670000000000966000000000096819320000000000017795900000000017134859500000000000000009999123100000010000000000000BRMGLUACNOR2125
012024100402ARML3       010ARMAC       ON      NM   R$  000000000081300000000008210000000000804000000000081200000000008210000000000820000000000082201604000000000000321700000000000261523400000000000000009999123100000010000000000000BRARMLACNOR1112
012024100402ASAI3       010ASSAI       ON      NM   R$  000000000067200000000007030000000000667000000000068500000000006970000000000695000000000069718897000000000023862600000000016361932400000000000000009999123100000010000000000000BRASAIACNOR0106
012024100402ATOM3       010ATOMPAR     ON           R$  000000000025000000000002590000000000250000000000025500000000002520000000000252000000000025600026000000000000013700000000000003504000000000000000009999123100000010000000000000BRATOMACNOR1106
012024100402AURE3       010AUREN       ON      NM   R$  000000000103200000000010360000000001026000000000103000000000010340000000001033000000000103407881000000000004351200000000004485336200000000000000009999123100000010000000000000BRAUREACNOR9104
012024100402CSED3       010CRUZEIRO EDUON      NM   R$  000000000033000000000003310000000000320000000000032600000000003300000000000326000000000033001092000000000000488400000000000159680000000000000000009999123100000010000000000000BRCSEDACNOR9105
012024100402CSMG3       010COPASA      ON      NM   R$  000000000233200000000023320000000002281000000000229400000000022830000000002282000000000229504724000000000000881500000000002022618600000000000000009999123100000010000000000000BRCSMGACNOR5175
012024100402CSNA3       010SID NACIONALON           R$  000000000128500000000012880000000001255000000000126200000000012640000000001263000000000126410434000000000006041200000000007624724600000000000000009999123100000010000000000000BRCSNAACNOR6261
012024100402INEP3       010INEPAR      ON           R$  000000000019400000000001960000000000190000000000019100000000001900000000000190000000000019200112000000000000085200000000000016348300000000000000009999123100000010000000000000BRINEPACNOR1143
012024100402INEP4       010INEPAR      PN           R$  000000000019000000000001920000000000186000000000018900000000001890000000000187000000000018900313000000000000091700000000000017402600000000000000009999123100000010000000000000BRINEPACNPR8143
012024100402INTB3       010INTELBRAS   ON      NM   R$  000000000201300000000020290000000001987000000000200800000000020290000000002020000000000203005340000000000001014900000000002038049600000000000000009999123100000010000000000000BRINTBACNOR9112
012024100402IRBR3       010IRBBRASIL REON      NM   R$  000000000437800000000044830000000004310000000000440700000000044590000000004452000000000446004449000000000000710700000000003132280100000000000000009999123100000010000000000000BRIRBRACNOR4111
012024100402SCAR3       010SAO CARLOS  ON      NM   R$  000000000231900000000023490000000002208000000000227900000000023490000000002345000000000234900100000000000000021100000000000048099800000000000000009999123100000010000000000000BRSCARACNOR7131
012024100402SEER3       010SER EDUCA   ON      NM   R$  000000000058700000000006240000000000573000000000060800000000006150000000000611000000000061601417000000000000568800000000000345831500000000000000009999123100000010000000000000BRSEERACNOR5119
012024100402SEQL3       010SEQUOIA LOG ON      NM   R$  000000000044400000000004500000000000425000000000043800000000004420000000000442000000000044301358000000000000415200000000000182171200000000000000009999123100000010000000000000BRSEQLACNOR2103
012024100402SHOW3       010TIME FOR FUNON      NM   R$  000000000009800000000001000000000000098000000000009900000000000980000000000098000000000010000267000000000000079800000000000007908800000000000000009999123100000010000000000000BRSHOWACNOR7105
012024100402SHUL4       010SCHULZ      PN  EJ       R$  000000000062300000000006230000000000611000000000061600000000006160000000000616000000000061900407000000000000215100000000000132663100000000000000009999123100000010000000000000BRSHULACNPR4157
012024100402SIMH3       010SIMPAR      ON      NM   R$  000000000052300000000005290000000000518000000000052300000000005240000000000523000000000052405433000000000003055300000000001598832900000000000000009999123100000010000000000000BRSIMHACNOR0107
012024100402MYPK3       010IOCHP-MAXIONON  EJ  NM   R$  000000000106300000000010690000000001042000000000105100000000010510000000001050000000000105205729000000000001454100000000001528798300000000000000009999123100000010000000000000BRMYPKACNOR7156
012024100402NEOE3       010NEOENERGIA  ON      NM   R$  000000000188800000000018950000000001865000000000188300000000018840000000001884000000000189202895000000000000547300000000001030659900000000000000009999123100000010000000000000BRNEOEACNOR3123
012024100402NGRD3       010NEOGRID     ON      NM   R$  000000000011400000000001180000000000113000000000011500000000001160000000000114000000000011600629000000000000465200000000000053692000000000000000009999123100000010000000000000BRNGRDACNOR3104
012024100402NINJ3       010GETNINJAS   ON      NM   R$  000000000046500000000004700000000000465000000000046900000000004700000000000451000000000047200014000000000000001700000000000000797300000000000000009999123100000010000000000000BRNINJACNOR5101
012024100402NORD3       010NORDON MET  ON           R$  000000000095500000000009550000000000900000000000090200000000009000000000000898000000000094700024000000000000007400000000000006675800000000000000009999123100000010000000000000BRNORDACNOR7135
012024100402NTCO3       010GRUPO NATURAON      NM   R$  000000000145600000000014900000000001441000000000147100000000014840000000001483000000000148417174000000000006786000000000009986699600000000000000009999123100000010000000000000BRNTCOACNOR5106
012024100402PETZ3       010PETZ        ON      NM   R$  000000000047900000000004940000000000476000000000048500000000004940000000000493000000000049405699000000000003428500000000001665779700000000000000009999123100000010000000000000BRPETZACNOR2110
012024100402ALLD3       010ALLIED      ON      NM   R$  000000000078300000000007830000000000764000000000077000000000007690000000000769000000000077200141000000000000023600000000000018191500000000000000009999123100000010000000000000BRALLDACNOR3106
012024100402ALOS3       010ALLOS       ON      NM   R$  000000000219200000000022560000000002192000000000223600000000022500000000002247000000000225014200000000000005329400000000011920363200000000000000009999123100000010000000000000BRALOSACNOR5101
012024100402BOBR4       010BOMBRIL     PN           R$  000000000023600000000002360000000000225000000000023100000000002350000000000231000000000023600276000000000000067700000000000015680000000000000000009999123100000010000000000000BRBOBRACNPR3128
012024100402ELMD3       010ELETROMIDIA ON      NM   R$  000000000165900000000016900000000001648000000000166400000000016610000000001657000000000166200429000000000000056300000000000093692800000000000000009999123100000010000000000000BRELMDACNOR3101
012024100402EMAE4       010EMAE        PN           R$  000000000393000000000040150000000003923000000000398700000000039900000000003975000000000404700024000000000000004300000000000017145600000000000000009999123100000010000000000000BREMAEACNPR1126
012024100402EMBR3       010EMBRAER     ON      NM   R$  000000000454000000000046650000000004532000000000461400000000045940000000004594000000000459922747000000000005471700000000025250641500000000000000009999123100000010000000000000BREMBRACNOR4191
012024100407NUTR3       010NUTRIPLANT  ON      MA   R$  000000000047300000000004730000000000459000000000046500000000004690000000000463000000000046900011000000000000001100000000000000512300000000000000009999123100000010000000000000BRNUTRACNOR0104
012024100407TXRX4       010TEX RENAUX  PN           R$  000000000022900000000002290000000000226000000000022800000000002290000000000226000000000022900003000000000000000300000000000000068400000000000000009999123100000010000000000000BRTXRXACNPR0142
012024100408OIBR3       010OI          ON      N1   R$  000000000049100000000004940000000000479000000000048400000000004830000000000482000000000048300559000000000000350700000000000169838500000000000000009999123100000010000000000000BROIBRACNOR1112
012024100408OIBR4       010OI          PN      N1   R$  000000000114900000000011490000000001126000000000113700000000011260000000001126000000000113500002000000000000000200000000000000227500000000000000009999123100000010000000000000BROIBRACNPR8111
012024100408OSXB3       010OSX BRASIL  ON      NM   R$  000000000046400000000004770000000000417000000000046200000000004540000000000454000000000046300032000000000000005500000000000002544200000000000000009999123100000010000000000000BROSXBACNOR8109
012024100408PMAM3       010PARANAPANEMAON  ES  NM   R$  000000000014700000000001470000000000137000000000014100000000001380000000000138000000000013900197000000000000128500000000000018242600000000000000009999123100000010000000000000BRPMAMACNOR3040
012024100408RPMG3       010PET MANGUINHON           R$  000000000031400000000003170000000000304000000000031100000000003120000000000306000000000031000106000000000000015500000000000004823700000000000000009999123100000010000000000000BRRPMGACNOR9194
012024100408RSID3       010ROSSI RESID ON      NM   R$  000000000030500000000003290000000000301000000000030700000000003290000000000305000000000032900109000000000000037800000000000011634600000000000000009999123100000010000000000000BRRSIDACNOR8120
012024100408HOOT4       010HOTEIS OTHONPN           R$  000000000022300000000002230000000000221000000000022100000000002210000000000222000000000022500004000000000000001700000000000000376300000000000000009999123100000010000000000000BRHOOTACNPR9015
012024100408JFEN3       010JOAO FORTES ON           R$  000000000002700000000000280000000000026000000000002700000000000270000000000027000000000002800319000000000001410400000000000038086600000000000000009999123100000010000000000000BRJFENACNOR0059
012024100408RNEW11      010RENOVA      UNT     N2   R$  000000000030000000000003130000000000300000000000030500000000003130000000000310000000000031500025000000000000007400000000000002260000000000000000009999123100000010000000000000BRRNEWCDAM15110
012024100408RNEW3       010RENOVA      ON      N2   R$  000000000010400000000001040000000000100000000000010200000000001040000000000102000000000010400078000000000000030400000000000003110800000000000000009999123100000010000000000000BRRNEWACNOR8110
012024100408RNEW4       010RENOVA      PN      N2   R$  000000000010500000000001070000000000102000000000010400000000001050000000000105000000000010600121000000000000108600000000000011350700000000000000009999123100000010000000000000BRRNEWACNPR5110
012024100408AMER3       010AMERICANAS  ON      NM   R$  000000000043000000000004380000000000421000000000042900000000004330000000000433000000000043501278000000000001171200000000000502477200000000000000009999123100000010000000000000BRAMERACNOR6103
012024100408LIGT3       010LIGHT S/A   ON      NM   R$  000000000067100000000006780000000000661000000000066400000000006610000000000661000000000066801027000000000000276900000000000184011600000000000000009999123100000010000000000000BRLIGTACNOR2124
012024100408AGXY3       010AGROGALAXY  ON      NM   R$  000000000005900000000000640000000000057000000000005900000000000600000000000059000000000006000307000000000000622400000000000036928300000000000000009999123100000010000000000000BRAGXYACNOR4103
012024100408CTSA3       010SANTANENSE  ON           R$  000000000024900000000002490000000000249000000000024900000000002490000000000221000000000024900011000000000000003500000000000000871500000000000000009999123100000010000000000000BRCTSAACNOR3062
012024100408CTSA4       010SANTANENSE  PN           R$  000000000012200000000001220000000000122000000000012200000000001220000000000122000000000012300009000000000000010700000000000001305400000000000000009999123100000010000000000000BRCTSAACNPR0062
012024100408ATMP3       010ATMASA      ON           R$  000000000014500000000001530000000000145000000000014800000000001500000000000148000000000015000009000000000000004800000000000000714700000000000000009999123100000010000000000000BRATMPACNOR8100
012024100408NEXP3       010NEXPE       ON           R$  000000000040600000000004070000000000406000000000040600000000004070000000000402000000000040700003000000000000000300000000000000121900000000000000009999123100000010000000000000BRNEXPACNOR0101
012024100410DASA1       010DASA        DIR ORD NM   R$  000000000000300000000000040000000000001000000000000200000000000020000000000001000000000000200210000000000002407300000000000005147900000000000000009999123100000010000000000000BRDASAD04OR0122
012024100410PMAM1       010PARANAPANEMADIR ORD NM   R$  000000000000100000000000010000000000001000000000000100000000000010000000000000000000000000100146000000000000624900000000000000624900000000000000009999123100000010000000000000BRPMAMD05OR9039
012024100410BGIP2       010BANESE      DIR PRE      R$  000000000022000000000002200000000000220000000000022000000000002200000000000220000000000035000001000000000000000100000000000000022000000000000000009999123100000010000000000000BRBGIPD08PR8209
012024100410EQTL9       010EQUATORIAL  ON  REC NM   R$  000000000327400000000032740000000003201000000000321800000000032500000000003210000000000325000090000000000000040400000000000130028000000000000000009999123100000010000000000000BREQTLR04OR9130
012024100410HBSA1       010HIDROVIAS   DIR ORD NM   R$  000000000001900000000000190000000000010000000000001300000000000130000000000012000000000001301423000000000001432100000000000019377200000000000000009999123100000010000000000000BRHBSAD01OR5100
012024100410CBEE1       010AMPLA ENERG DIR ORD      R$  000000000042500000000004250000000000425000000000042500000000004250000000000012000000000040000001000000000000000100000000000000042500000000000000009999123100000010000000000000BRCBEED07OR5159
012024100412VGHF11      010FII VALOR HECI  ER       R$  000000000079000000000007950000000000787000000000079100000000007900000000000790000000000079114890000000000000601908000000000476335208000000000000009999123100000010000000000000BRVGHFCTF005148
012024100412VGIP11      010FII VALORAIPCI           R$  000000000848400000000085300000000008480000000000849800000000085150000000008515000000000851802616000000000000021776000000000185054483000000000000009999123100000010000000000000BRVGIPCTF002159
012024100412VGIR11      010FII VALREIIICI           R$  000000000098700000000009890000000000985000000000098600000000009860000000000986000000000098724360000000000000459427000000000453239003000000000000009999123100000010000000000000BRVGIRCTF008180
012024100412VGRI11      010FII VGRI    CI  ER       R$  000000000090000000000009090000000000888000000000089100000000008970000000000890000000000089701625000000000000040752000000000036340085000000000000009999123100000010000000000000BRVGRICTF008108
012024100412VIFI11      010FII VINCI IFCI  ER       R$  000000000074700000000007470000000000729000000000073300000000007290000000000728000000000072900138000000000000007731000000000005672333000000000000009999123100000010000000000000BRVIFICTF009160
012024100412VILG11      010FII VINCI LGCI  ER       R$  000000000828500000000084700000000008250000000000831600000000083100000000008310000000000833306803000000000000017941000000000149215265000000000000009999123100000010000000000000BRVILGCTF001175
012024100412VINO11      010FII VINCI OFCI  ER       R$  000000000050200000000005050000000000501000000000050200000000005030000000000502000000000050303158000000000000104849000000000052705886000000000000009999123100000010000000000000BRVINOCTF001161
012024100412VISC11      010FII VINCI SCCI  ER       R$  000000001048000000000106760000000010429000000001057000000000106450000000010645000000001064710643000000000000045220000000000477985085000000000000009999123100000010000000000000BRVISCCTF005190
012024100412VIUR11      010FII VINCI IUCI  ER       R$  000000000060900000000006250000000000609000000000061800000000006240000000000618000000000062400690000000000000021471000000000013277503000000000000009999123100000010000000000000BRVIURCTF009141
012024100412BBRC11      010FII BB CORP CI  ER       R$  000000001119300000000113120000000011015000000001125300000000112000000000011199000000001120000068000000000000000654000000000007360076000000000000009999123100000010000000000000BRBBRCCTF004257
012024100412CXAG11      010FII CAIXA AGCI  ER       R$  000000000748000000000075350000000007425000000000746100000000074420000000007442000000000744400158000000000000003153000000000023525060000000000000009999123100000010000000000000BRCXAGCTF003132
012024100412CXCE11      010FII CX CEDAECI  ER       R$  000000000401000000000040270000000003995000000000400600000000040220000000003995000000000402200025000000000000000448000000000001794781000000000000009999123100000010000000000000BRCXCECTF004273
012024100412CXCI11      010FII CAIXA CICI           R$  000000000789900000000078990000000007822000000000785200000000078310000000007822000000000783000041000000000000000397000000000003117462000000000000009999123100000010000000000000BRCXCICTF005130
012024100412CXCO11      010FII CEF CORPCI  ER       R$  000000000660000000000066270000000006523000000000656700000000065550000000006555000000000656000287000000000000003641000000000023912907000000000000009999123100000010000000000000BRCXCOCTF003142
012024100412CXRI11      010FII CX RBRAVCI  ER       R$  000000000755600000000075560000000007500000000000752300000000075010000000007502000000000779900005000000000000000321000000000002414990000000000000009999123100000010000000000000BRCXRICTF003232
012024100412CXTL11      010FII CX TRX  CI  ER       R$  000000002244900000000224490000000022449000000002244900000000224490000000021901000000002244900004000000000000000006000000000000134694000000000000009999123100000010000000000000BRCXTLCTF003241
012024100412CYCR11      010FII CYRELA  CI  ER       R$  000000000094600000000009570000000000946000000000095300000000009570000000000956000000000095701037000000000000019334000000000018430208000000000000009999123100000010000000000000BRCYCRCTF004143
012024100412DAMA11      010FII DAMA    CI           R$  000000000098000000000009800000000000917000000000096700000000009790000000000920000000000097900017000000000000000272000000000000263054000000000000009999123100000010000000000000BRDAMACTF007103
012024100412PRSV11      010FII P VARGASCI           R$  000000000585900000000058590000000005800000000000583200000000058000000000005800000000000669800002000000000000000018000000000000104990000000000000009999123100000010000000000000BRPRSVCTF008226
012024100412PULV11      010FII PULV    CI  ER       R$  000000000099200000000009920000000000960000000000097200000000009870000000000970000000000098700027000000000000008148000000000007922396000000000000009999123100000010000000000000BRPULVCTF007105
012024100412PVBI11      010FII VBI PRI CI  ER       R$  000000000844800000000084480000000008319000000000837400000000083870000000008387000000000838816812000000000000068129000000000570565444000000000000009999123100000010000000000000BRPVBICTF003156
012024100412QAGR11      010FII QUASAR ACI  ER       R$  000000000456500000000045690000000004530000000000453500000000045690000000004530000000000457400875000000000000007864000000000035665037000000000000009999123100000010000000000000BRQAGRCTF005159
012024100412TEPP11      010FII TEL PROPCI  ER       R$  000000000857500000000086710000000008531000000000858200000000085640000000008548000000000856401518000000000000011317000000000097125433000000000000009999123100000010000000000000BRTEPPCTF006154
012024100412TGAR11      010FII TG ATIVOCI  ER       R$  000000001090300000000109500000000010802000000001085700000000108440000000010841000000001084412770000000000000073235000000000795138566000000000000009999123100000010000000000000BRTGARCTF009195
012024100412TMPS11      010FII ITAU TEMCI  ER       R$  000000000891900000000091400000000008857000000000892500000000088990000000008860000000000889900086000000000000003461000000000030891807000000000000009999123100000010000000000000BRTMPSCTF003118
012024100412TORD11      010FII TORDE EICI           R$  000000000010100000000001010000000000099000000000010000000000001010000000000100000000000010100680000000000000049795000000000004997446000000000000009999123100000010000000000000BRTORDCTF015138
012024100412WHGR11      010FII WHG REALCI  ER       R$  000000000092700000000009350000000000924000000000092800000000009340000000000929000000000093401790000000000000024586000000000022837316000000000000009999123100000010000000000000BRWHGRCTF008129
012024100412WPLZ11      010FII W PLAZA CI  ER       R$  000000000576200000000057620000000005762000000000576200000000057620000000005704000000000599400001000000000000000001000000000000005762000000000000009999123100000010000000000000BRWPLZCTF004270
012024100412WSEC11      010FII WARREN  CI           R$  000000000086000000000008600000000000858000000000085800000000008590000000000857000000000085900606000000000000003123000000000002681719000000000000009999123100000010000000000000BRWSECCTF010124
012024100412WTSP11      010FII WTC SP  CI           R$  000000000574000000000057500000000005740000000000574700000000057500000000005200000000000574400003000000000000000100000000000000574791000000000000009999123100000010000000000000BRWTSPCTF002167
012024100412BRCO11      010FII BRESCO  CI  ER       R$  000000001081100000000108820000000010811000000001085600000000108720000000010871000000001087207897000000000000027391000000000297377934000000000000009999123100000010000000000000BRBRCOCTF007161
012024100412BRCR11      010FII BC FUND CI           R$  000000000450000000000045500000000004450000000000452700000000045500000000004541000000000455005869000000000000028701000000000129931203000000000000009999123100000010000000000000BRBRCRCTF000270
012024100412IBCR11      010FII BREI    CI           R$  000000000633000000000063300000000006297000000000630600000000062980000000006297000000000629800079000000000000000654000000000004124443000000000000009999123100000010000000000000BRIBCRCTF009140
012024100412MXRF11      010FII MAXI RENCI  ER       R$  000000000099100000000009940000000000987000000000099000000000009900000000000989000000000099053330000000000001306037000000001293106038000000000000009999123100000010000000000000BRMXRFCTF008257
012024100412SJAU11      010FII SJ AU   CI           R$  000000000506100000000050610000000005061000000000506100000000050610000000005010000000000599700001000000000000000002000000000000010122000000000000009999123100000010000000000000BRSJAUCTF009102
012024100412XPCI11      010FII XP CRED CI  ER       R$  000000000846800000000084970000000008449000000000847200000000084850000000008451000000000848504020000000000000015501000000000131337240000000000000009999123100000010000000000000BRXPCICTF007161
012024100412XPCM11      010FII XP MACAECI           R$  000000000072800000000007460000000000728000000000073000000000007300000000000730000000000073600078000000000000000578000000000000421957000000000000009999123100000010000000000000BRXPCMCTF009230
012024100412XPIN11      010FII XP INDL CI           R$  000000000730600000000073790000000007300000000000732400000000073210000000007321000000000734800503000000000000004321000000000031650292000000000000009999123100000010000000000000BRXPINCTF004177
012024100412XPLG11      010FII XP LOG  CI  ER       R$  000000000993100000000099900000000009930000000000995600000000099500000000009950000000000997505693000000000000031949000000000318098349000000000000009999123100000010000000000000BRXPLGCTF002182
012024100412XPML11      010FII XP MALLSCI           R$  000000001066700000000108000000000010665000000001075300000000107650000000010765000000001078822943000000000000113007000000001215254394000000000000009999123100000010000000000000BRXPMLCTF000188
012024100412XPPR11      010FII XP PROP CI  ER       R$  000000000164500000000016790000000001635000000000164900000000016430000000001643000000000167400355000000000000009754000000000016086023000000000000009999123100000010000000000000BRXPPRCTF000159
012024100412XPSF11      010FII XP SELECCI  ER       R$  000000000069800000000006980000000000690000000000069400000000006940000000000692000000000069421595000000000000089232000000000061989259000000000000009999123100000010000000000000BRXPSFCTF009160
012024100412ZAGH11      010FII ZAGH    CI  ES       R$  000000000121200000000012120000000001200000000000120100000000012050000000001200000000000120500007000000000000000060000000000000072109000000000000009999123100000010000000000000BRZAGHCTF007108
012024100412ZAVI11      010FII ZAVIT R CI  ER       R$  000000001075200000000107710000000010602000000001067200000000106360000000010635000000001074400121000000000000000302000000000003223092000000000000009999123100000010000000000000BRZAVICTF004125
012024100412VCJR11      010FII VECTIS  CI  ER       R$  000000000872700000000089480000000008727000000000889900000000089300000000008920000000000893005534000000000000023976000000000213382380000000000000009999123100000010000000000000BRVCJRCTF005159
012024100412VCRI11      010FII VINCI CRCI  ER       R$  000000000080800000000008090000000000801000000000080400000000008060000000000804000000000080600188000000000000016599000000000013356688000000000000009999123100000010000000000000BRVCRICTF007129
012024100412VCRR11      010FII VECT RENCI  ER       R$  000000000651000000000067000000000006510000000000662900000000066300000000006548000000000663000604000000000000007020000000000046540175000000000000009999123100000010000000000000BRVCRRCTF008140
012024100412DEVA11      010FII DEVANT  CI           R$  000000000371200000000037500000000003709000000000372900000000037320000000003732000000000373601115000000000000018413000000000068667405000000000000009999123100000010000000000000BRDEVACTF000152
