00COTAHIST.2024BOVESPA 20241021                                                                                                                                                                                                                      
012024102102BBSE3       010BBSEGURIDADEON      NM   R$  000000000337600000000033960000000003364000000000338800000000033950000000003390000000000339510694000000000003117200000000010561311700000000000000009999123100000010000000000000BRBBSEACNOR5125
012024102102BPAC11      010BTGP BANCO  UNT     N2   R$  000000000331800000000033180000000003254000000000327000000000032750000000003275000000000327615005000000000006460200000000021125425200000000000000009999123100000010000000000000BRBPACUNT006119
012024102102BPAC3       010BTGP BANCO  ON      N2   R$  000000000154200000000015720000000001542000000000155500000000015430000000001542000000000155600016000000000000001700000000000002643900000000000000009999123100000010000000000000BRBPACACNOR7134
012024102102BPAC5       010BTGP BANCO  PNA     N2   R$  000000000086400000000009050000000000853000000000086600000000008570000000000857000000000087300016000000000000002300000000000001992900000000000000009999123100000010000000000000BRBPACACNPA0134
012024102102COCE3       010COELCE      ON           R$  000000000285100000000028510000000002851000000000285100000000028510000000002750000000000320000001000000000000000100000000000000285100000000000000009999123100000010000000000000BRCOCEACNOR0146
012024102102COCE5       010COELCE      PNA          R$  000000000267100000000027220000000002659000000000268700000000026990000000002691000000000270000017000000000000001800000000000004837900000000000000009999123100000010000000000000BRCOCEACNPA3147
012024102102COGN3       010COGNA ON    ON      NM   R$  000000000013500000000001390000000000135000000000013700000000001380000000000137000000000013810417000000000023067500000000003168025500000000000000009999123100000010000000000000BRCOGNACNOR2105
012024102102DASA3       010DASA        ON      NM   R$  000000000028800000000002900000000000277000000000028000000000002780000000000278000000000028001568000000000000610100000000000171392400000000000000009999123100000010000000000000BRDASAACNOR1123
012024102102DESK3       010DESKTOP     ON      NM   R$  000000000132900000000013500000000001311000000000132100000000013110000000001310000000000131100694000000000000154000000000000203530100000000000000009999123100000010000000000000BRDESKACNOR2104
012024102102DEXP3       010DEXXOS PAR  ON      N1   R$  000000000088700000000009050000000000887000000000089700000000008950000000000895000000000090300390000000000000066400000000000059588500000000000000009999123100000010000000000000BRDEXPACNOR1105
012024102102DEXP4       010DEXXOS PAR  PN      N1   R$  000000000089700000000008970000000000881000000000088100000000008970000000000880000000000089600004000000000000011100000000000009783800000000000000009999123100000010000000000000BRDEXPACNPR8105
012024102102DIRR3       010DIRECIONAL  ON      NM   R$  000000000299700000000030140000000002990000000000299800000000030020000000003000000000000300506839000000000001805000000000005413064300000000000000009999123100000010000000000000BRDIRRACNOR0119
012024102102GOAU4       010GERDAU MET  PN      N1   R$  000000000103300000000010390000000001030000000000103400000000010330000000001033000000000103508357000000000006421400000000006641632000000000000000009999123100000010000000000000BRGOAUACNPR8269
012024102102GRND3       010GRENDENE    ON      NM   R$  000000000052900000000005350000000000527000000000053100000000005300000000000530000000000053302836000000000000752700000000000400105400000000000000009999123100000010000000000000BRGRNDACNOR3175
012024102102ABEV3       010AMBEV S/A   ON           R$  000000000128800000000012940000000001281000000000128600000000012830000000001283000000000128626433000000000028877400000000037148000100000000000000009999123100000010000000000000BRABEVACNOR1128
012024102102BMIN4       010MERC INVEST PN           R$  000000000175000000000017500000000001750000000000175000000000017500000000001630000000000175000004000000000000001000000000000001750000000000000000009999123100000010000000000000BRBMINACNPR1176
012024102102BMKS3       010BIC MONARK  ON           R$  000000003060200000000307990000000030500000000003073000000000306000000000030602000000003100000026000000000000000179000000000005500786000000000000009999123100000010000000000000BRBMKSACNOR9166
012024102102BMOB3       010BEMOBI TECH ON      NM   R$  000000000147800000000015110000000001478000000000149400000000014950000000001495000000000149800816000000000000187500000000000280164700000000000000009999123100000010000000000000BRBMOBACNOR7103
012024102102BNBR3       010NORD BRASIL ON           R$  000000001040000000000104000000000010400000000001040000000000104000000000010339000000001086000001000000000000000400000000000004160000000000000000009999123100000010000000000000BRBNBRACNOR8209
012024102102BOBR4       010BOMBRIL     PN           R$  000000000028700000000002900000000000280000000000028200000000002840000000000282000000000028400191000000000000149500000000000042304700000000000000009999123100000010000000000000BRBOBRACNPR3128
012024102102NTCO3       010GRUPO NATURAON      NM   R$  000000000150400000000015260000000001461000000000148100000000014640000000001464000000000146713841000000000007373300000000010927025200000000000000009999123100000010000000000000BRNTCOACNOR5106
012024102102AALR3       010ALLIAR      ON      NM   R$  000000000122000000000012470000000001207000000000122300000000012220000000001222000000000123900101000000000000012300000000000015050700000000000000009999123100000010000000000000BRAALRACNOR6102
012024102102ABCB4       010ABC BRASIL  PN      N2   R$  000000000213900000000021500000000002121000000000213400000000021350000000002122000000000213501928000000000000373900000000000798171600000000000000009999123100000010000000000000BRABCBACNPR4146
012024102102NEOE3       010NEOENERGIA  ON      NM   R$  000000000192900000000019430000000001920000000000192800000000019290000000001929000000000194005053000000000001346600000000002597226800000000000000009999123100000010000000000000BRNEOEACNOR3123
012024102102NGRD3       010NEOGRID     ON      NM   R$  000000000319900000000031990000000002866000000000297100000000028660000000002850000000000290000137000000000000031300000000000093020400000000000000009999123100000010000000000000BRNGRDACNOR3106
012024102102NINJ3       010GETNINJAS   ON      NM   R$  000000000045500000000004600000000000454000000000045500000000004540000000000454000000000045700029000000000000004400000000000002002700000000000000009999123100000010000000000000BRNINJACNOR5101
012024102102BRBI11      010BR PARTNERS UNT     N2   R$  000000000151300000000015300000000001510000000000151900000000015100000000001510000000000152401376000000000000230000000000000349445300000000000000009999123100000010000000000000BRBRBICDAM10110
012024102102BRFS3       010BRF SA      ON      NM   R$  000000000244000000000024410000000002414000000000242800000000024320000000002430000000000243213592000000000009736100000000023647750300000000000000009999123100000010000000000000BRBRFSACNOR8122
012024102102BRIT3       010BRISANET    ON      NM   R$  000000000031000000000003110000000000303000000000030500000000003050000000000305000000000030700640000000000000271400000000000082945100000000000000009999123100000010000000000000BRBRITACNOR0103
012024102102BRKM3       010BRASKEM     ON      N1   R$  000000000178100000000018110000000001756000000000178000000000018060000000001758000000000180600151000000000000018400000000000032764600000000000000009999123100000010000000000000BRBRKMACNOR1119
012024102102BRKM5       010BRASKEM     PNA     N1   R$  000000000182100000000018370000000001808000000000181900000000018110000000001811000000000181405155000000000001859400000000003382551800000000000000009999123100000010000000000000BRBRKMACNPA4121
012024102102ENEV3       010ENEVA       ON      NM   R$  000000000144400000000014470000000001425000000000143200000000014250000000001425000000000142616123000000000005419900000000007761620000000000000000009999123100000010000000000000BRENEVACNOR8106
012024102102ENGI11      010ENERGISA    UNT     N2   R$  000000000436600000000043840000000004337000000000436900000000043770000000004373000000000437806685000000000001233500000000005389461800000000000000009999123100000010000000000000BRENGICDAM16136
012024102102ENGI3       010ENERGISA    ON      N2   R$  000000000131800000000013190000000001302000000000131300000000013150000000001305000000000131600017000000000000001700000000000002233400000000000000009999123100000010000000000000BRENGIACNOR0146
012024102102ENGI4       010ENERGISA    PN      N2   R$  000000000075600000000007650000000000756000000000076000000000007560000000000753000000000077000057000000000000009700000000000007378300000000000000009999123100000010000000000000BRENGIACNPR7142
012024102102ENJU3       010ENJOEI      ON      NM   R$  000000000012900000000001300000000000123000000000012500000000001240000000000124000000000012500763000000000000867300000000000109204800000000000000009999123100000010000000000000BRENJUACNOR9100
012024102102EPAR3       010EMBPAR S/A  ON           R$  000000000055100000000005690000000000551000000000056600000000005690000000000560000000000056800014000000000000003400000000000001925700000000000000009999123100000010000000000000BREPARACNOR9105
012024102102EQPA3       010EQTL PARA   ON           R$  000000000059500000000006000000000000579000000000058700000000005920000000000593000000000059900027000000000000006800000000000003993800000000000000009999123100000010000000000000BREQPAACNOR1111
012024102102EQTL3       010EQUATORIAL  ON      NM   R$  000000000326600000000032910000000003247000000000326500000000032590000000003259000000000326718424000000000005363300000000017513398200000000000000009999123100000010000000000000BREQTLACNOR0131
012024102102B3SA3       010B3          ON      NM   R$  000000000106700000000010850000000001067000000000107700000000010850000000001081000000000108536708000000000026633900000000028692202700000000000000009999123100000010000000000000BRB3SAACNOR6134
012024102102BPAN4       010BANCO PAN   PN      N1   R$  000000000091900000000009240000000000907000000000091700000000009130000000000910000000000091302522000000000000884800000000000811386700000000000000009999123100000010000000000000BRBPANACNPR1115
012024102102FESA4       010FERBASA     PN      N1   R$  000000000076500000000007720000000000765000000000076500000000007650000000000765000000000076600791000000000000469600000000000359539700000000000000009999123100000010000000000000BRFESAACNPR5085
012024102102MATD3       010MATER DEI   ON      NM   R$  000000000044300000000004430000000000427000000000043300000000004340000000000432000000000043601271000000000000479900000000000208271000000000000000009999123100000010000000000000BRMATDACNOR4104
012024102102MBLY3       010MOBLY       ON      NM   R$  000000000020300000000002070000000000199000000000020300000000002070000000000204000000000020700315000000000000661500000000000134460400000000000000009999123100000010000000000000BRMBLYACNOR5100
012024102102MDIA3       010M.DIASBRANCOON      NM   R$  000000000250500000000025330000000002464000000000249100000000025130000000002513000000000252403483000000000000950800000000002369376300000000000000009999123100000010000000000000BRMDIAACNOR7136
012024102102EUCA3       010EUCATEX     ON      N1   R$  000000000165100000000016900000000001651000000000167000000000016900000000001650000000000169000002000000000000000200000000000000334100000000000000009999123100000010000000000000BREUCAACNOR1157
012024102102EUCA4       010EUCATEX     PN      N1   R$  000000000147700000000014840000000001424000000000143700000000014290000000001429000000000143400282000000000000061700000000000088709100000000000000009999123100000010000000000000BREUCAACNPR8044
012024102102EVEN3       010EVEN        ON      NM   R$  000000000062800000000006320000000000620000000000062400000000006270000000000621000000000062702363000000000000675300000000000421902600000000000000009999123100000010000000000000BREVENACNOR8120
012024102102EZTC3       010EZTEC       ON      NM   R$  000000000139500000000014160000000001390000000000139900000000014000000000001397000000000140002760000000000000657900000000000920683200000000000000009999123100000010000000000000BREZTCACNOR0126
012024102102CSED3       010CRUZEIRO EDUON      NM   R$  000000000032200000000003260000000000318000000000032000000000003200000000000320000000000032301017000000000000445200000000000142790700000000000000009999123100000010000000000000BRCSEDACNOR9105
012024102102CSMG3       010COPASA      ON      NM   R$  000000000223100000000022420000000002215000000000223000000000022390000000002236000000000224103992000000000000652200000000001454824900000000000000009999123100000010000000000000BRCSMGACNOR5175
012024102102CSNA3       010SID NACIONALON           R$  000000000117500000000011810000000001166000000000117000000000011680000000001168000000000116907200000000000003535800000000004138499400000000000000009999123100000010000000000000BRCSNAACNOR6261
012024102102ELMD3       010ELETROMIDIA ON      NM   R$  000000000174700000000017470000000001683000000000171100000000017350000000001705000000000173500379000000000000062800000000000107473200000000000000009999123100000010000000000000BRELMDACNOR3101
012024102102EMAE4       010EMAE        PN           R$  000000000393100000000039730000000003920000000000394100000000039730000000003923000000000397400014000000000000001600000000000006306100000000000000009999123100000010000000000000BREMAEACNPR1126
012024102102EMBR3       010EMBRAER     ON      NM   R$  000000000484800000000050250000000004845000000000497900000000049980000000004998000000000499919200000000000006015700000000029953338600000000000000009999123100000010000000000000BREMBRACNOR4191
012024102102KRSA3       010KORA SAUDE  ON  EG  NM   R$  000000000046500000000004810000000000460000000000047400000000004740000000000471000000000047400041000000000000022100000000000010482100000000000000009999123100000010000000000000BRKRSAACNOR0101
012024102102LAND3       010TERRASANTAPAON      NM   R$  000000000136300000000013640000000001337000000000134600000000013590000000001342000000000136000126000000000000018400000000000024783400000000000000009999123100000010000000000000BRLANDACNOR9103
012024102102LAVV3       010LAVVI       ON      NM   R$  000000000082400000000008240000000000806000000000081100000000008090000000000805000000000080901515000000000000363100000000000294563800000000000000009999123100000010000000000000BRLAVVACNOR4113
012024102102LEVE3       010METAL LEVE  ON      NM   R$  000000000303800000000030660000000003030000000000304300000000030440000000003036000000000304401298000000000000211700000000000644336500000000000000009999123100000010000000000000BRLEVEACNOR2197
012024102102LJQQ3       010QUERO-QUERO ON      NM   R$  000000000028600000000002910000000000281000000000028600000000002870000000000286000000000028704048000000000003129900000000000897608700000000000000009999123100000010000000000000BRLJQQACNOR5104
012024102102LOGG3       010LOG COM PROPON      NM   R$  000000000219100000000022180000000002169000000000219100000000021950000000002175000000000220200962000000000000119000000000000260839600000000000000009999123100000010000000000000BRLOGGACNOR7107
012024102102LOGN3       010LOG-IN      ON      NM   R$  000000000300000000000030180000000002852000000000292800000000028800000000002880000000000290000282000000000000038400000000000112466400000000000000009999123100000010000000000000BRLOGNACNOR3105
012024102102HYPE3       010HYPERA      ON      NM   R$  000000000220000000000026920000000002121000000000240700000000026160000000002616000000000261784884000000000044544900000000107226761600000000000000009999123100000010000000000000BRHYPEACNOR0144
012024102102JHSF3       010JHSF PART   ON      NM   R$  000000000043900000000004480000000000439000000000044300000000004480000000000447000000000044803841000000000001715000000000000760716900000000000000009999123100000010000000000000BRJHSFACNOR2140
012024102102JOPA3       010JOSAPAR     ON           R$  000000000211000000000021100000000002110000000000211000000000021100000000002110000000000224900001000000000000000100000000000000211000000000000000009999123100000010000000000000BRJOPAACNOR5135
012024102102JSLG3       010JSL         ON      NM   R$  000000000077000000000007920000000000766000000000078100000000007790000000000779000000000078401415000000000000467300000000000365360600000000000000009999123100000010000000000000BRJSLGACNOR2121
012024102102KEPL3       010KEPLER WEBERON      NM   R$  000000000091600000000009360000000000914000000000092500000000009270000000000927000000000092804052000000000001038900000000000961189100000000000000009999123100000010000000000000BRKEPLACNOR1064
012024102102BBAS3       010BRASIL      ON      NM   R$  000000000266900000000026960000000002654000000000267400000000026620000000002660000000000266232467000000000025128900000000067195829700000000000000009999123100000010000000000000BRBBASACNOR3326
012024102102BIOM3       010BIOMM       ON      MA   R$  000000000089600000000009240000000000892000000000090100000000008960000000000896000000000090000201000000000000054300000000000048972000000000000000009999123100000010000000000000BRBIOMACNOR2112
012024102102KLBN11      010KLABIN S/A  UNT     N2   R$  000000000206600000000020900000000002066000000000207800000000020730000000002072000000000207308408000000000003331100000000006925012800000000000000009999123100000010000000000000BRKLBNCDAM18143
012024102102KLBN3       010KLABIN S/A  ON      N2   R$  000000000041300000000004190000000000413000000000041600000000004170000000000414000000000041800469000000000000157900000000000065836000000000000000009999123100000010000000000000BRKLBNACNOR2171
012024102102KLBN4       010KLABIN S/A  PN      N2   R$  000000000041400000000004180000000000412000000000041400000000004120000000000411000000000041201502000000000000893100000000000370622100000000000000009999123100000010000000000000BRKLBNACNPR9171
012024102102MRVE3       010MRV         ON      NM   R$  000000000073000000000007360000000000716000000000072300000000007160000000000715000000000071710752000000000008668900000000006267989500000000000000009999123100000010000000000000BRMRVEACNOR2127
012024102102AZZA3       010AZZAS 2154  ON      NM   R$  000000000403500000000041080000000004031000000000408400000000040890000000004086000000000409003831000000000000678300000000002770370300000000000000009999123100000010000000000000BRAZZAACNOR9100
012024102102BLAU3       010BLAU        ON      NM   R$  000000000145400000000014950000000001432000000000145600000000014320000000001432000000000144801003000000000000169000000000000246147300000000000000009999123100000010000000000000BRBLAUACNOR8115
012024102102BMEB3       010MERCANTIL   ON      N1   R$  000000000360000000000036000000000003598000000000359800000000035980000000003510000000000359900003000000000000000300000000000001079600000000000000009999123100000010000000000000BRBMEBACNOR8206
012024102102BMEB4       010MERCANTIL   PN      N1   R$  000000000394900000000039600000000003851000000000390000000000039100000000003864000000000393000193000000000000023700000000000092431100000000000000009999123100000010000000000000BRBMEBACNPR5211
012024102102BMGB4       010BANCO BMG   PN      N1   R$  000000000046000000000004650000000000427000000000043900000000004280000000000427000000000042802888000000000001999900000000000878206700000000000000009999123100000010000000000000BRBMGBACNPR0110
012024102102CPFE3       010CPFL ENERGIAON      NM   R$  000000000325900000000032840000000003244000000000326900000000032700000000003269000000000328403653000000000000812300000000002655425700000000000000009999123100000010000000000000BRCPFEACNOR0137
012024102102CPLE3       010COPEL       ON      N2   R$  000000000088900000000008990000000000886000000000089500000000008970000000000895000000000089703420000000000002584700000000002314136800000000000000009999123100000010000000000000BRCPLEACNOR8150
012024102102CPLE6       010COPEL       PNB     N2   R$  000000000098900000000010000000000000986000000000099500000000009990000000000997000000000099914725000000000010723000000000010674539500000000000000009999123100000010000000000000BRCPLEACNPB9147
012024102102PATI4       010PANATLANTICAPN  ED       R$  000000000310100000000031010000000003100000000000310000000000031000000000003101000000000357500002000000000000000200000000000000620100000000000000009999123100000010000000000000BRPATIACNPR3067
012024102102PCAR3       010P.ACUCAR-CBDON      NM   R$  000000000031600000000003200000000000313000000000031500000000003140000000000314000000000031504978000000000007486800000000002363300400000000000000009999123100000010000000000000BRPCARACNOR3167
012024102102PDGR3       010PDG REALT   ON      NM   R$  000000000000100000000000020000000000001000000000000100000000000020000000000001000000000000200742000000000043384100000000000073602000000000000000009999123100000010000000000000BRPDGRACNOR8119
012024102102PDTC3       010PADTEC      ON      NM   R$  000000000018400000000001880000000000184000000000018500000000001880000000000185000000000018800042000000000000025700000000000004771200000000000000009999123100000010000000000000BRPDTCACNOR3101
012024102102PEAB3       010PAR AL BAHIAON           R$  000000000430000000000043000000000004100000000000427700000000043000000000004110000000000439700005000000000000000900000000000003850000000000000000009999123100000010000000000000BRPEABACNOR3133
012024102102PEAB4       010PAR AL BAHIAPN           R$  000000000470000000000047000000000004700000000000470000000000047000000000000000000000000509800002000000000000000300000000000001410000000000000000009999123100000010000000000000BRPEABACNPR0133
012024102102PETR3       010PETROBRAS   ON      N2   R$  000000000407400000000040740000000003963000000000399000000000039630000000003962000000000397010647000000000005830700000000023267710300000000000000009999123100000010000000000000BRPETRACNOR9206
012024102102PETR4       010PETROBRAS   PN      N2   R$  000000000370000000000037050000000003620000000000364500000000036250000000003624000000000362565344000000000028390000000000103482519300000000000000009999123100000010000000000000BRPETRACNPR6214
012024102102CRFB3       010CARREFOUR BRON      NM   R$  000000000070400000000007090000000000691000000000069700000000006920000000000692000000000069516325000000000012931300000000009013600600000000000000009999123100000010000000000000BRCRFBACNOR2116
012024102102ODPV3       010ODONTOPREV  ON      NM   R$  000000000107900000000010790000000001061000000000106500000000010610000000001061000000000106502774000000000000613800000000000654306000000000000000009999123100000010000000000000BRODPVACNOR4204
012024102102OFSA3       010OUROFINO S/AON      NM   R$  000000000215900000000021590000000002159000000000215900000000021590000000001953000000000216000001000000000000003400000000000007340600000000000000009999123100000010000000000000BROFSAACNOR7118
012024102102ONCO3       010ONCOCLINICASON      NM   R$  000000000048700000000004950000000000474000000000048300000000004820000000000479000000000048202020000000000000877200000000000423972000000000000000009999123100000010000000000000BRONCOACNOR6101
012024102102OPCT3       010OCEANPACT   ON      NM   R$  000000000066000000000006630000000000649000000000065400000000006560000000000651000000000065601382000000000000356400000000000233256200000000000000009999123100000010000000000000BROPCTACNOR0100
012024102102ORVR3       010ORIZON      ON      NM   R$  000000000459900000000046370000000004557000000000460200000000046340000000004625000000000463501865000000000000284400000000001308824300000000000000009999123100000010000000000000BRORVRACNOR0101
012024102102PATI3       010PANATLANTICAON  ED       R$  000000000274900000000028000000000002749000000000275600000000027530000000002751000000000300000015000000000000001800000000000004962100000000000000009999123100000010000000000000BRPATIACNOR6067
012024102102SCAR3       010SAO CARLOS  ON      NM   R$  000000000211400000000021590000000002101000000000212800000000021010000000002101000000000214500060000000000000008300000000000017668400000000000000009999123100000010000000000000BRSCARACNOR7131
012024102102SEER3       010SER EDUCA   ON      NM   R$  000000000057500000000005850000000000570000000000057600000000005720000000000572000000000057500664000000000000298100000000000171848900000000000000009999123100000010000000000000BRSEERACNOR5119
012024102102SHOW3       010TIME FOR FUNON      NM   R$  000000000009500000000000960000000000094000000000009500000000000940000000000094000000000009600171000000000000056900000000000005424900000000000000009999123100000010000000000000BRSHOWACNOR7105
012024102102SHUL4       010SCHULZ      PN           R$  000000000061500000000006180000000000610000000000061300000000006130000000000613000000000061400769000000000000300800000000000184408200000000000000009999123100000010000000000000BRSHULACNPR4157
012024102102SIMH3       010SIMPAR      ON      NM   R$  000000000051100000000005190000000000508000000000051400000000005150000000000515000000000051603412000000000002632600000000001354407100000000000000009999123100000010000000000000BRSIMHACNOR0107
012024102102SLCE3       010SLC AGRICOLAON      NM   R$  000000000171000000000017290000000001702000000000172000000000017280000000001728000000000172904639000000000001299000000000002234688900000000000000009999123100000010000000000000BRSLCEACNOR2125
012024102102PRIO3       010PETRORIO    ON      NM   R$  000000000428000000000042890000000004154000000000419900000000041920000000004191000000000419319622000000000007677200000000032240858800000000000000009999123100000010000000000000BRPRIOACNOR1107
012024102102SANB4       010SANTANDER BRPN  EDJ      R$  000000000149600000000015040000000001484000000000149000000000014910000000001485000000000149000202000000000000038700000000000057693600000000000000009999123100000010000000000000BRSANBACNPR5173
012024102102SAPR11      010SANEPAR     UNT     N2   R$  000000000276400000000027840000000002735000000000275500000000027350000000002735000000000274503778000000000000609200000000001678828300000000000000009999123100000010000000000000BRSAPRCDAM13118
012024102102SAPR3       010SANEPAR     ON      N2   R$  000000000052600000000005300000000000523000000000052600000000005270000000000527000000000052800486000000000000134000000000000070550000000000000000009999123100000010000000000000BRSAPRACNOR9159
012024102102SAPR4       010SANEPAR     PN      N2   R$  000000000056300000000005650000000000557000000000055900000000005580000000000558000000000055901831000000000000718100000000000401907200000000000000009999123100000010000000000000BRSAPRACNPR6159
012024102102SBFG3       010GRUPO SBF   ON      NM   R$  000000000136400000000014150000000001361000000000139100000000014030000000001403000000000141006300000000000002149700000000002992212500000000000000009999123100000010000000000000BRSBFGACNOR1103
012024102102SBSP3       010SABESP      ON      NM   R$  000000000911500000000092630000000009100000000000920200000000092140000000009209000000000921913483000000000002513900000000023134822300000000000000009999123100000010000000000000BRSBSPACNOR5161
012024102102SANB11      010SANTANDER BRUNT EDJ      R$  000000000286500000000028780000000002833000000000284600000000028490000000002838000000000285006219000000000001438100000000004093495100000000000000009999123100000010000000000000BRSANBCDAM13166
012024102102SANB3       010SANTANDER BRON  EDJ      R$  000000000137000000000013710000000001348000000000135800000000013480000000001347000000000134800217000000000000036000000000000048890600000000000000009999123100000010000000000000BRSANBACNOR8173
012024102102TUPY3       010TUPY        ON      NM   R$  000000000232400000000023580000000002324000000000233900000000023280000000002328000000000233002476000000000000346500000000000810536600000000000000009999123100000010000000000000BRTUPYACNOR1184
012024102102VSTE3       010VESTE       ON      NM   R$  000000000101600000000010160000000000977000000000099000000000009900000000000977000000000099400017000000000000004800000000000004752300000000000000009999123100000010000000000000BRVSTEACNOR5103
012024102102VTRU3       010VITRUEDUCA  ON      NM   R$  000000000091800000000009280000000000905000000000091200000000009120000000000910000000000091200338000000000000114900000000000104876900000000000000009999123100000010000000000000BRVTRUACNOR3100
012024102102VULC3       010VULCABRAS   ON  ED  NM   R$  000000000164900000000016720000000001641000000000166000000000016640000000001658000000000166402324000000000000357100000000000592931200000000000000009999123100000010000000000000BRVULCACNOR2163
012024102102VVEO3       010VIVEO       ON      NM   R$  000000000019800000000002000000000000191000000000019400000000001930000000000192000000000019302762000000000001503100000000000292161400000000000000009999123100000010000000000000BRVVEOACNOR0104
012024102102UCAS3       010UNICASA     ON      NM   R$  000000000021700000000002170000000000214000000000021500000000002160000000000214000000000021600048000000000000007300000000000001569800000000000000009999123100000010000000000000BRUCASACNOR1113
012024102102UGPA3       010ULTRAPAR    ON      NM   R$  000000000207600000000020980000000002067000000000208000000000020880000000002088000000000208907675000000000003160400000000006573772300000000000000009999123100000010000000000000BRUGPAACNOR8156
012024102102UNIP3       010UNIPAR      ON           R$  000000000469400000000047010000000004638000000000467600000000046380000000004616000000000469500039000000000000004400000000000020577300000000000000009999123100000010000000000000BRUNIPACNOR7206
012024102102UNIP5       010UNIPAR      PNA          R$  000000000472100000000047210000000004700000000000470600000000047020000000004702000000000487400011000000000000001500000000000007059500000000000000009999123100000010000000000000BRUNIPACNPA0208
012024102102UNIP6       010UNIPAR      PNB          R$  000000000461200000000046500000000004592000000000461800000000046290000000004629000000000463000564000000000000088000000000000406456700000000000000009999123100000010000000000000BRUNIPACNPB8206
012024102102WEGE3       010WEG         ON      NM   R$  000000000555300000000055550000000005475000000000550800000000055040000000005500000000000550418252000000000005297800000000029180934400000000000000009999123100000010000000000000BRWEGEACNOR0225
012024102102PFRM3       010PROFARMA    ON      NM   R$  000000000058400000000005900000000000579000000000058200000000005850000000000585000000000058600306000000000000067900000000000039567100000000000000009999123100000010000000000000BRPFRMACNOR1116
012024102102PGMN3       010PAGUE MENOS ON      NM   R$  000000000028600000000002860000000000280000000000028200000000002850000000000281000000000028500377000000000000159500000000000045091000000000000000009999123100000010000000000000BRPGMNACNOR8103
012024102102USIM3       010USIMINAS    ON      N1   R$  000000000060700000000006170000000000606000000000061200000000006100000000000609000000000061000605000000000000231700000000000141829300000000000000009999123100000010000000000000BRUSIMACNOR3167
012024102102USIM5       010USIMINAS    PNA     N1   R$  000000000061500000000006320000000000615000000000062600000000006270000000000626000000000062708544000000000012582500000000007880930900000000000000009999123100000010000000000000BRUSIMACNPA6169
012024102102PINE3       010PINE        ON  EJS N2   R$  000000000048900000000004890000000000466000000000047000000000004660000000000465000000000047900008000000000000001000000000000000470500000000000000009999123100000010000000000000BRPINEACNOR1152
012024102102PINE4       010PINE        PN  EJS N2   R$  000000000048000000000004850000000000476000000000047900000000004760000000000476000000000047900271000000000000149900000000000071914700000000000000009999123100000010000000000000BRPINEACNPR8152
012024102102PLPL3       010PLANOEPLANO ON      NM   R$  000000000138300000000014110000000001377000000000139300000000013980000000001387000000000139801861000000000000468800000000000653446900000000000000009999123100000010000000000000BRPLPLACNOR5104
012024102102VITT3       010VITTIA      ON      NM   R$  000000000054500000000005720000000000532000000000054400000000005580000000000557000000000055803007000000000001549700000000000843044200000000000000009999123100000010000000000000BRVITTACNOR4107
012024102102VIVA3       010VIVARA S.A. ON      NM   R$  000000000264000000000026620000000002571000000000259300000000025860000000002583000000000258812594000000000003067700000000007956803900000000000000009999123100000010000000000000BRVIVAACNOR0107
012024102102VIVR3       010VIVER       ON      NM   R$  000000000016800000000001720000000000168000000000016900000000001680000000000168000000000016900038000000000000016600000000000002819900000000000000009999123100000010000000000000BRVIVRACNOR4123
012024102102VIVT3       010TELEF BRASILON           R$  000000000548200000000055030000000005439000000000546600000000054450000000005439000000000545711253000000000002014900000000011013925900000000000000009999123100000010000000000000BRVIVTACNOR0184
012024102102VLID3       010VALID       ON      NM   R$  000000000226700000000022900000000002255000000000227400000000022610000000002261000000000227803538000000000000392400000000000892381200000000000000009999123100000010000000000000BRVLIDACNOR5144
012024102102PNVL3       010DIMED       ON      NM   R$  000000000100000000000010060000000000984000000000099300000000009920000000000990000000000099202260000000000000483800000000000480467000000000000000009999123100000010000000000000BRPNVLACNOR9208
012024102102POMO3       010MARCOPOLO   ON      N2   R$  000000000066800000000006680000000000658000000000066100000000006640000000000657000000000066400428000000000000157700000000000104349700000000000000009999123100000010000000000000BRPOMOACNOR0099
012024102102POMO4       010MARCOPOLO   PN      N2   R$  000000000088900000000008940000000000877000000000088300000000008840000000000882000000000088514159000000000006078800000000005370274300000000000000009999123100000010000000000000BRPOMOACNPR7099
012024102102PORT3       010WILSON SONS ON  ED  NM   R$  000000000163900000000016750000000001605000000000161800000000016150000000001615000000000162009581000000000014466900000000023411559700000000000000009999123100000010000000000000BRPORTACNOR8110
012024102102POSI3       010POSITIVO TECON      NM   R$  000000000060500000000006180000000000602000000000061200000000006090000000000609000000000061202017000000000001042100000000000637811500000000000000009999123100000010000000000000BRPOSIACNOR9116
012024102102RECV3       010PETRORECSA  ON      NM   R$  000000000173000000000017340000000001708000000000171800000000017200000000001720000000000172108417000000000002000000000000003436634600000000000000009999123100000010000000000000BRRECVACNOR3107
012024102102REDE3       010REDE ENERGIAON           R$  000000000069100000000007040000000000680000000000069000000000006840000000000685000000000068700042000000000000006300000000000004351700000000000000009999123100000010000000000000BRREDEACNOR7128
012024102102RENT3       010LOCALIZA    ON      NM   R$  000000000424900000000042900000000004232000000000425500000000042520000000004251000000000425916095000000000005446300000000023174299100000000000000009999123100000010000000000000BRRENTACNOR4197
012024102102ROMI3       010ROMI        ON      NM   R$  000000000105000000000010600000000001050000000000105300000000010540000000001050000000000105400705000000000000138800000000000146278300000000000000009999123100000010000000000000BRROMIACNOR8196
012024102102RSUL4       010RIOSULENSE  PN           R$  000000000628900000000062890000000006153000000000617800000000061980000000006100000000000619900013000000000000001700000000000010503000000000000000009999123100000010000000000000BRRSULACNPR3114
012024102102TOTS3       010TOTVS       ON      NM   R$  000000000284900000000029030000000002839000000000287700000000028830000000002880000000000288412199000000000002215800000000006376692100000000000000009999123100000010000000000000BRTOTSACNOR8145
012024102102TPIS3       010TRIUNFO PARTON      NM   R$  000000000062400000000006650000000000617000000000064100000000006550000000000646000000000065500458000000000000163600000000000105001200000000000000009999123100000010000000000000BRTPISACNOR8118
012024102102TRAD3       010TC          ON      NM   R$  000000000064000000000006400000000000580000000000060500000000006020000000000601000000000060200621000000000000278500000000000168513000000000000000009999123100000010000000000000BRTRADACNOR3102
012024102102TRIS3       010TRISUL      ON      NM   R$  000000000052800000000005290000000000519000000000052400000000005260000000000525000000000052700934000000000000544600000000000285614600000000000000009999123100000010000000000000BRTRISACNOR4118
012024102102TRPL3       010TRAN PAULISTON      N1   R$  000000000311000000000031200000000003082000000000310700000000031190000000003100000000000311800007000000000000000700000000000002175000000000000000009999123100000010000000000000BRTRPLACNOR4185
012024102102TRPL4       010TRAN PAULISTPN      N1   R$  000000000244600000000024640000000002444000000000245300000000024550000000002454000000000245504559000000000000892300000000002188898600000000000000009999123100000010000000000000BRTRPLACNPR1185
012024102102IFCM3       010INFRACOMM   ON      NM   R$  000000000001500000000000160000000000013000000000001400000000000140000000000013000000000001406511000000000025610400000000000364532800000000000000009999123100000010000000000000BRIFCMACNOR8101
012024102102IGTI11      010IGUATEMI S.AUNT     N1   R$  000000000213000000000021630000000002125000000000215200000000021490000000002148000000000215908929000000000001938100000000004171272900000000000000009999123100000010000000000000BRIGTICDAM16106
012024102102IGTI3       010IGUATEMI S.AON      N1   R$  000000000025400000000002600000000000254000000000025700000000002600000000000255000000000026000063000000000000031800000000000008194500000000000000009999123100000010000000000000BRIGTIACNOR8106
012024102102INEP3       010INEPAR      ON           R$  000000000016900000000001690000000000166000000000016700000000001670000000000167000000000016800022000000000000018600000000000003112900000000000000009999123100000010000000000000BRINEPACNOR1143
012024102102INEP4       010INEPAR      PN           R$  000000000017000000000001730000000000170000000000017000000000001700000000000170000000000017200017000000000000006500000000000001111300000000000000009999123100000010000000000000BRINEPACNPR8143
012024102102INTB3       010INTELBRAS   ON      NM   R$  000000000201500000000020670000000002015000000000204900000000020490000000002046000000000205901893000000000000326900000000000669880700000000000000009999123100000010000000000000BRINTBACNOR9112
012024102102IRBR3       010IRBBRASIL REON      NM   R$  000000000418600000000042560000000004161000000000422000000000042460000000004244000000000424703243000000000000674900000000002848551300000000000000009999123100000010000000000000BRIRBRACNOR4111
012024102102TTEN3       0103TENTOS     ON      NM   R$  000000000102900000000010310000000001017000000000102200000000010200000000001020000000000102603682000000000000564900000000000577561500000000000000009999123100000010000000000000BRTTENACNOR0103
012024102102VAMO3       010VAMOS       ON      NM   R$  000000000058000000000006050000000000578000000000059600000000006050000000000604000000000060511853000000000008191400000000004885553800000000000000009999123100000010000000000000BRVAMOACNOR7105
012024102102VBBR3       010VIBRA       ON      NM   R$  000000000227600000000022870000000002262000000000227100000000022690000000002267000000000227121449000000000006984800000000015868267400000000000000009999123100000010000000000000BRVBBRACNOR1109
012024102102RANI3       010IRANI       ON      NM   R$  000000000073400000000007430000000000734000000000073900000000007420000000000741000000000074201408000000000000482100000000000356427300000000000000009999123100000010000000000000BRRANIACNOR5073
012024102102RAPT3       010RANDON PART ON      N1   R$  000000000095000000000009500000000000915000000000092400000000009220000000000922000000000092900197000000000000034700000000000032090200000000000000009999123100000010000000000000BRRAPTACNOR7163
012024102102RAPT4       010RANDON PART PN      N1   R$  000000000113100000000011350000000001081000000000109500000000010890000000001089000000000109009606000000000004669100000000005117158500000000000000009999123100000010000000000000BRRAPTACNPR4163
012024102102LUPA3       010LUPATECH    ON      NM   R$  000000000014000000000001410000000000139000000000013900000000001390000000000139000000000014000088000000000000112000000000000015629300000000000000009999123100000010000000000000BRLUPAACNOR8112
012024102102LVTC3       010WDC NETWORKSON      NM   R$  000000000037100000000003790000000000371000000000037400000000003750000000000370000000000037600029000000000000003000000000000001122900000000000000009999123100000010000000000000BRLVTCACNOR4102
012024102102LWSA3       010LWSA        ON      NM   R$  000000000045000000000004570000000000448000000000045100000000004540000000000453000000000045507299000000000003364300000000001518666000000000000000009999123100000010000000000000BRLWSAACNOR8103
012024102102MTRE3       010MITRE REALTYON      NM   R$  000000000036600000000003680000000000361000000000036300000000003670000000000364000000000036700922000000000000729600000000000265390600000000000000009999123100000010000000000000BRMTREACNOR6115
012024102102MTSA4       010METISA      PN           R$  000000000368100000000037000000000003644000000000366700000000036600000000003660000000000370000026000000000000003200000000000011735700000000000000009999123100000010000000000000BRMTSAACNPR9073
012024102102MULT3       010MULTIPLAN   ON      N2   R$  000000000259400000000026300000000002594000000000261300000000026030000000002602000000000261511857000000000001860800000000004863171600000000000000009999123100000010000000000000BRMULTACNOR5139
012024102102MYPK3       010IOCHP-MAXIONON      NM   R$  000000000102900000000010470000000001012000000000102400000000010190000000001018000000000101906364000000000001064100000000001089700000000000000000009999123100000010000000000000BRMYPKACNOR7156
012024102102SRNA3       010SERENA      ON      NM   R$  000000000083400000000008490000000000830000000000083700000000008390000000000833000000000084004374000000000001291600000000001082112600000000000000009999123100000010000000000000BRSRNAACNOR4100
012024102102STBP3       010SANTOS BRP  ON  ER  NM   R$  000000000128900000000013030000000001286000000000129500000000012940000000001293000000000129514917000000000009689700000000012550911400000000000000009999123100000010000000000000BRSTBPACNOR3132
012024102102SUZB3       010SUZANO S.A. ON      NM   R$  000000000555800000000056960000000005555000000000565800000000056270000000005626000000000563028112000000000006468700000000036601237500000000000000009999123100000010000000000000BRSUZBACNOR0130
012024102102PRNR3       010PRINER      ON      NM   R$  000000000125000000000012560000000001241000000000125100000000012520000000001246000000000125200874000000000001440200000000001802792100000000000000009999123100000010000000000000BRPRNRACNOR4109
012024102102PSSA3       010PORTO SEGUROON      NM   R$  000000000369000000000037060000000003652000000000368300000000036780000000003672000000000368408052000000000002392600000000008813626300000000000000009999123100000010000000000000BRPSSAACNOR7156
012024102102SMFT3       010SMART FIT   ON      NM   R$  000000000224000000000022510000000002138000000000216400000000021500000000002150000000000215209955000000000003035200000000006568733300000000000000009999123100000010000000000000BRSMFTACNOR1112
012024102102VALE3       010VALE        ON      NM   R$  000000000613500000000061380000000006027000000000607500000000060330000000006032000000000603532264000000000019044900000000115703433700000000000000009999123100000010000000000000BRVALEACNOR0211
012024102102MDNE3       010MOURA DUBEUXON      NM   R$  000000000150500000000015130000000001479000000000149800000000015110000000001503000000000151101754000000000000427300000000000640208000000000000000009999123100000010000000000000BRMDNEACNOR9100
012024102102MEAL3       010IMC S/A     ON      NM   R$  000000000013700000000001410000000000136000000000013800000000001380000000000137000000000013800119000000000000313700000000000043449900000000000000009999123100000010000000000000BRMEALACNOR9105
012024102102MELK3       010MELNICK     ON      NM   R$  000000000035000000000003630000000000350000000000035800000000003620000000000361000000000036200414000000000000323200000000000115939000000000000000009999123100000010000000000000BRMELKACNOR8111
012024102102MERC4       010MERC FINANC PN           R$  000000000095000000000009500000000000870000000000091000000000008700000000000695000000000101300002000000000000000200000000000000182000000000000000009999123100000010000000000000BRMERCACNPR9180
012024102102MGEL4       010MANGELS INDLPN           R$  000000000087000000000008700000000000870000000000086700000000008700000000000862000000000089000004000000000000000700000000000000607400000000000000009999123100000010000000000000BRMGELACNPR3147
012024102102MGLU3       010MAGAZ LUIZA ON      NM   R$  000000000094500000000009790000000000945000000000096300000000009670000000000966000000000096816172000000000023107100000000022268108000000000000000009999123100000010000000000000BRMGLUACNOR2125
012024102102LPSB3       010LOPES BRASILON      NM   R$  000000000016900000000001720000000000164000000000016600000000001650000000000165000000000016700264000000000000215800000000000035924200000000000000009999123100000010000000000000BRLPSBACNOR0114
012024102102LREN3       010LOJAS RENNERON      NM   R$  000000000185500000000018670000000001833000000000184600000000018450000000001844000000000184515855000000000009832000000000018155215400000000000000009999123100000010000000000000BRLRENACNOR1222
012024102102PETZ3       010PETZ        ON      NM   R$  000000000049600000000004990000000000489000000000049200000000004890000000000489000000000049005615000000000004735000000000002333476000000000000000009999123100000010000000000000BRPETZACNOR2110
012024102102BEES3       010BANESTES    ON           R$  000000000088700000000008870000000000880000000000088200000000008820000000000882000000000088400050000000000000007200000000000006351500000000000000009999123100000010000000000000BRBEESACNOR9396
012024102102BEES4       010BANESTES    PN           R$  000000000091300000000009130000000000901000000000090400000000009020000000000901000000000091700017000000000000002000000000000001808300000000000000009999123100000010000000000000BRBEESACNPR6321
012024102102BGIP3       010BANESE      ON           R$  000000000260000000000026000000000002550000000000257500000000025500000000002200000000000260000002000000000000000200000000000000515000000000000000009999123100000010000000000000BRBGIPACNOR1210
012024102102BGIP4       010BANESE      PN           R$  000000000238200000000024000000000002375000000000238600000000023750000000002370000000000249000006000000000000000600000000000001431700000000000000009999123100000010000000000000BRBGIPACNPR8210
012024102102BHIA3       010CASAS BAHIA ON      NM   R$  000000000043500000000004460000000000435000000000044000000000004390000000000438000000000043901648000000000001529500000000000673720100000000000000009999123100000010000000000000BRBHIAACNOR1102
012024102102BRAP3       010BRADESPAR   ON      N1   R$  000000000177300000000017860000000001770000000000177300000000017700000000001770000000000178000264000000000000040600000000000072004000000000000000009999123100000010000000000000BRBRAPACNOR5148
012024102102BRAP4       010BRADESPAR   PN      N1   R$  000000000191000000000019220000000001898000000000190500000000019000000000001900000000000190606806000000000002921300000000005565389100000000000000009999123100000010000000000000BRBRAPACNPR2148
012024102102BRAV3       010BRAVA       ON      NM   R$  000000000171100000000017440000000001685000000000171800000000017170000000001717000000000171813286000000000008919300000000015331045900000000000000009999123100000010000000000000BRBRAVACNOR3100
012024102102CRPG5       010CRISTAL     PNA          R$  000000000252000000000025220000000002511000000000251500000000025120000000002512000000000259400012000000000000001300000000000003269800000000000000009999123100000010000000000000BRCRPGACNPA3119
012024102102CSAN3       010COSAN       ON      NM   R$  000000000118500000000011920000000001171000000000117700000000011730000000001173000000000117412147000000000008948500000000010534047900000000000000009999123100000010000000000000BRCSANACNOR6126
012024102102BEEF3       010MINERVA     ON      NM   R$  000000000056500000000005750000000000560000000000056600000000005620000000000562000000000056312097000000000007907600000000004482282100000000000000009999123100000010000000000000BRBEEFACNOR6116
012024102102EGIE3       010ENGIE BRASILON      NM   R$  000000000413800000000041450000000004116000000000413300000000041450000000004134000000000414504393000000000000717100000000002964286900000000000000009999123100000010000000000000BREGIEACNOR9127
012024102102EKTR4       010ELEKTRO     PN           R$  000000000454400000000045440000000004544000000000454400000000045440000000004260000000000454500001000000000000000100000000000000454400000000000000009999123100000010000000000000BREKTRACNPR7165
012024102102ELET3       010ELETROBRAS  ON      N1   R$  000000000378700000000038310000000003773000000000380800000000038180000000003817000000000382018630000000000007498200000000028559748700000000000000009999123100000010000000000000BRELETACNOR6160
012024102102ELET6       010ELETROBRAS  PNB     N1   R$  000000000421300000000042420000000004194000000000421500000000042270000000004225000000000423004148000000000000822700000000003468315700000000000000009999123100000010000000000000BRELETACNPB7077
012024102102HBOR3       010HELBOR      ON      NM   R$  000000000019000000000001930000000000187000000000018800000000001900000000000188000000000019001672000000000000570400000000000107784600000000000000009999123100000010000000000000BRHBORACNOR3118
012024102102HBRE3       010HBR REALTY  ON      NM   R$  000000000045400000000004570000000000439000000000044600000000004410000000000441000000000044201118000000000000771100000000000343922000000000000000009999123100000010000000000000BRHBREACNOR4100
012024102102HBSA3       010HIDROVIAS   ON      NM   R$  000000000032800000000003380000000000328000000000033100000000003300000000000330000000000033104710000000000002994200000000000992946800000000000000009999123100000010000000000000BRHBSAACNOR0101
012024102102CTKA3       010KARSTEN     ON           R$  000000000194900000000019490000000001949000000000194900000000019490000000001800000000000194900001000000000000000300000000000000584700000000000000009999123100000010000000000000BRCTKAACNOR0043
012024102102CTKA4       010KARSTEN     PN           R$  000000000189900000000018990000000001860000000000188500000000018600000000001760000000000180000006000000000000008300000000000015648700000000000000009999123100000010000000000000BRCTKAACNPR7043
012024102102CURY3       010CURY S/A    ON      NM   R$  000000000236100000000023640000000002332000000000234100000000023430000000002341000000000235606040000000000001151800000000002697287100000000000000009999123100000010000000000000BRCURYACNOR3110
012024102102CVCB3       010CVC BRASIL  ON      NM   R$  000000000018500000000001930000000000185000000000018900000000001900000000000190000000000019104432000000000015279800000000002900485800000000000000009999123100000010000000000000BRCVCBACNOR1116
012024102102GEPA3       010GER PARANAP ON           R$  000000000287800000000029000000000002878000000000289300000000029000000000002879000000000290000006000000000000001600000000000004629600000000000000009999123100000010000000000000BRGEPAACNOR2154
012024102102ANIM3       010ANIMA       ON      NM   R$  000000000024500000000002500000000000244000000000024700000000002490000000000246000000000025005251000000000005548200000000001371640700000000000000009999123100000010000000000000BRANIMACNOR6109
012024102102ARML3       010ARMAC       ON      NM   R$  000000000078500000000007980000000000782000000000079100000000007920000000000792000000000079502352000000000000525300000000000415621500000000000000009999123100000010000000000000BRARMLACNOR1113
012024102102ASAI3       010ASSAI       ON      NM   R$  000000000071200000000007340000000000705000000000071600000000007230000000000723000000000072421782000000000020497200000000014690556200000000000000009999123100000010000000000000BRASAIACNOR0106
012024102102BBDC3       010BRADESCO    ON      N1   R$  000000000133400000000013430000000001326000000000133300000000013310000000001331000000000133205922000000000005094400000000006794522000000000000000009999123100000010000000000000BRBBDCACNOR1776
012024102102BBDC4       010BRADESCO    PN      N1   R$  000000000153600000000015400000000001523000000000153000000000015280000000001527000000000152832750000000000022922500000000035079128600000000000000009999123100000010000000000000BRBBDCACNPR8776
012024102102GEPA4       010GER PARANAP PN           R$  000000000289000000000028900000000002890000000000289000000000028900000000002900000000000297000003000000000000000400000000000001156000000000000000009999123100000010000000000000BRGEPAACNPR9161
012024102102GFSA3       010GAFISA      ON      NM   R$  000000000017500000000001800000000000171000000000017400000000001740000000000173000000000017402619000000000004387300000000000766887200000000000000009999123100000010000000000000BRGFSAACNOR3125
012024102102GGBR3       010GERDAU      ON      N1   R$  000000000164100000000016690000000001641000000000166200000000016680000000001660000000000167000429000000000000063100000000000104918800000000000000009999123100000010000000000000BRGGBRACNOR1193
012024102102GGBR4       010GERDAU      PN      N1   R$  000000000184400000000018510000000001830000000000183700000000018340000000001831000000000183419293000000000010638600000000019544781600000000000000009999123100000010000000000000BRGGBRACNPR8193
012024102102ITSA3       010ITAUSA      ON      N1   R$  000000000106600000000010660000000001057000000000106000000000010590000000001058000000000106000214000000000000056000000000000059411400000000000000009999123100000010000000000000BRITSAACNOR0443
012024102102ITSA4       010ITAUSA      PN      N1   R$  000000000106300000000010650000000001055000000000106100000000010620000000001061000000000106222847000000000014180800000000015048985500000000000000009999123100000010000000000000BRITSAACNPR7443
012024102102ITUB3       010ITAUUNIBANCOON      N1   R$  000000000304900000000030660000000003024000000000303700000000030300000000003030000000000303302092000000000000563000000000001710260100000000000000009999123100000010000000000000BRITUBACNOR4342
012024102102ITUB4       010ITAUUNIBANCOPN      N1   R$  000000000353900000000035420000000003500000000000351500000000035100000000003509000000000351132337000000000014892400000000052358944600000000000000009999123100000010000000000000BRITUBACNPR1342
012024102102AERI3       010AERIS       ON      NM   R$  000000000062600000000006440000000000621000000000063500000000006380000000000638000000000064200374000000000000083500000000000053094700000000000000009999123100000010000000000000BRAERIACNOR4102
012024102102AESB3       010AES BRASIL  ON      NM   R$  000000000117700000000011780000000001176000000000117600000000011780000000001176000000000117801887000000000003065100000000003607444800000000000000009999123100000010000000000000BRAESBACNOR7107
012024102102AFLT3       010AFLUENTE T  ON           R$  000000000071200000000007120000000000712000000000071200000000007120000000000707000000000072900001000000000000000100000000000000071200000000000000009999123100000010000000000000BRAFLTACNOR1122
012024102102AGRO3       010BRASILAGRO  ON      NM   R$  000000000246200000000025030000000002452000000000248100000000024840000000002484000000000249801167000000000000191700000000000475699800000000000000009999123100000010000000000000BRAGROACNOR7114
012024102102ALLD3       010ALLIED      ON      NM   R$  000000000075100000000007600000000000745000000000075200000000007480000000000748000000000075600136000000000000026400000000000019864800000000000000009999123100000010000000000000BRALLDACNOR3106
012024102102ALOS3       010ALLOS       ON      NM   R$  000000000223600000000022690000000002229000000000225200000000022530000000002253000000000225816114000000000004811400000000010837247600000000000000009999123100000010000000000000BRALOSACNOR5102
012024102102BRSR3       010BANRISUL    ON      N1   R$  000000000132800000000013390000000001302000000000132600000000013150000000001314000000000132600089000000000000017100000000000022688800000000000000009999123100000010000000000000BRBRSRACNOR3189
012024102102BRSR5       010BANRISUL    PNA     N1   R$  000000000173000000000017300000000001730000000000173000000000017300000000001505000000000179900002000000000000000200000000000000346000000000000000009999123100000010000000000000BRBRSRACNPA6193
012024102102BRSR6       010BANRISUL    PNB     N1   R$  000000000111000000000011250000000001110000000000111700000000011110000000001111000000000111602468000000000000748300000000000836173900000000000000009999123100000010000000000000BRBRSRACNPB4192
012024102102BSLI3       010BRB BANCO   ON           R$  000000000092000000000009200000000000917000000000091800000000009170000000000885000000000091700002000000000000000200000000000000183700000000000000009999123100000010000000000000BRBSLIACNOR5194
012024102102BSLI4       010BRB BANCO   PN           R$  000000000092500000000009250000000000909000000000091300000000009090000000000897000000000091900004000000000000000400000000000000365400000000000000009999123100000010000000000000BRBSLIACNPR2194
012024102102ESPA3       010ESPACOLASER ON      NM   R$  000000000009500000000000960000000000094000000000009400000000000940000000000094000000000009500084000000000000210600000000000020002100000000000000009999123100000010000000000000BRESPAACNOR7103
012024102102ESTR4       010ESTRELA     PN           R$  000000000034400000000003700000000000344000000000035700000000003700000000000316000000000037100002000000000000000200000000000000071400000000000000009999123100000010000000000000BRESTRACNPR0144
012024102102ETER3       010ETERNIT     ON      NM   R$  000000000053300000000005330000000000516000000000052300000000005290000000000527000000000053000714000000000000230200000000000120499100000000000000009999123100000010000000000000BRETERACNOR3244
012024102102BAHI3       010BAHEMA      ON      MA   R$  000000000049900000000004990000000000467000000000048600000000004970000000000485000000000049500010000000000000001400000000000000680900000000000000009999123100000010000000000000BRBAHIACNOR1074
012024102102BALM3       010BAUMER      ON           R$  000000000119000000000012910000000001190000000000124300000000012910000000001200000000000154900003000000000000000300000000000000373100000000000000009999123100000010000000000000BRBALMACNOR5055
012024102102BAZA3       010AMAZONIA    ON           R$  000000000900000000000090000000000009000000000000900000000000090000000000009000000000000919600004000000000000000400000000000003600000000000000000009999123100000010000000000000BRBAZAACNOR0179
012024102102RCSL3       010RECRUSUL    ON           R$  000000000043200000000004410000000000422000000000042800000000004270000000000426000000000043000908000000000000610200000000000261502300000000000000009999123100000010000000000000BRRCSLACNOR4134
012024102102RCSL4       010RECRUSUL    PN           R$  000000000018700000000002330000000000187000000000020700000000001970000000000197000000000019906965000000000005803000000000001205247500000000000000009999123100000010000000000000BRRCSLACNPR1134
012024102102RDNI3       010RNI         ON      NM   R$  000000000031000000000003100000000000305000000000030600000000003100000000000307000000000031000006000000000000000900000000000000276200000000000000009999123100000010000000000000BRRDNIACNOR9116
012024102102RDOR3       010REDE D OR   ON      NM   R$  000000000300500000000030100000000002917000000000294900000000029600000000002958000000000296018005000000000005407000000000015947823800000000000000009999123100000010000000000000BRRDORACNOR8114
012024102102TAEE3       010TAESA       ON      N2   R$  000000000115900000000011620000000001151000000000115500000000011540000000001153000000000115400268000000000000047900000000000055336700000000000000009999123100000010000000000000BRTAEEACNOR9148
012024102102TAEE4       010TAESA       PN      N2   R$  000000000116100000000011680000000001156000000000116100000000011580000000001157000000000115900523000000000000119000000000000138164600000000000000009999123100000010000000000000BRTAEEACNPR6148
012024102102TASA3       010TAURUS ARMASON      N2   R$  000000000102000000000010280000000001002000000000101900000000010020000000001002000000000102800060000000000000009300000000000009482500000000000000009999123100000010000000000000BRTASAACNOR7104
012024102102TASA4       010TAURUS ARMASPN      N2   R$  000000000099600000000010050000000000993000000000099800000000009970000000000996000000000100000781000000000000168600000000000168282600000000000000009999123100000010000000000000BRTASAACNPR4104
012024102102TCSA3       010TECNISA     ON      NM   R$  000000000015500000000001580000000000151000000000015100000000001510000000000151000000000015200155000000000000284000000000000043144200000000000000009999123100000010000000000000BRTCSAACNOR3112
012024102102TECN3       010TECHNOS     ON      NM   R$  000000000055200000000005570000000000520000000000052800000000005250000000000522000000000052500393000000000000149900000000000079213300000000000000009999123100000010000000000000BRTECNACNOR6109
012024102102TELB3       010TELEBRAS    ON           R$  000000000145900000000014800000000001441000000000144900000000014410000000001415000000000147700011000000000000001200000000000001738900000000000000009999123100000010000000000000BRTELBACNOR2140
012024102102TELB4       010TELEBRAS    PN           R$  000000000093700000000009480000000000930000000000093700000000009300000000000923000000000093000007000000000000000900000000000000843800000000000000009999123100000010000000000000BRTELBACNPR9140
012024102102TEND3       010TENDA       ON      NM   R$  000000000141500000000014480000000001406000000000143200000000014450000000001440000000000144508458000000000002447700000000003507433100000000000000009999123100000010000000000000BRTENDACNOR4111
012024102102TFCO4       010TRACK FIELD PN      N2   R$  000000000105500000000010690000000001047000000000105500000000010500000000001049000000000105700933000000000000162600000000000171562900000000000000009999123100000010000000000000BRTFCOACNPR8115
012024102102TGMA3       010TEGMA       ON      NM   R$  000000000274000000000027450000000002715000000000273200000000027320000000002732000000000273500705000000000000120400000000000329026300000000000000009999123100000010000000000000BRTGMAACNOR7145
012024102102TIMS3       010TIM         ON      NM   R$  000000000176300000000017740000000001739000000000175200000000017410000000001741000000000174210802000000000003800900000000006661148700000000000000009999123100000010000000000000BRTIMSACNOR5118
012024102102YDUQ3       010YDUQS PART  ON      NM   R$  000000000102700000000010650000000001027000000000105100000000010500000000001050000000000105408945000000000005594800000000005883028800000000000000009999123100000010000000000000BRYDUQACNOR3105
012024102102ZAMP3       010ZAMP S.A.   ON           R$  000000000025100000000002540000000000249000000000025000000000002490000000000248000000000024900614000000000000188700000000000047359300000000000000009999123100000010000000000000BRZAMPACNOR5101
012024102102RAIL3       010RUMO S.A.   ON      NM   R$  000000000193500000000019380000000001903000000000191200000000019150000000001912000000000191625117000000000027629300000000052850309900000000000000009999123100000010000000000000BRRAILACNOR9105
012024102102RAIZ4       010RAIZEN      PN      N2   R$  000000000029300000000002930000000000288000000000029000000000002880000000000288000000000028909560000000000011978200000000003476053200000000000000009999123100000010000000000000BRRAIZACNPR6111
012024102102SYNE3       010SYN PROP TECON      NM   R$  000000000085000000000008510000000000824000000000083200000000008240000000000824000000000083001123000000000000368400000000000306751600000000000000009999123100000010000000000000BRSYNEACNOR2103
012024102102TAEE11      010TAESA       UNT     N2   R$  000000000348900000000034900000000003456000000000346900000000034710000000003463000000000347105131000000000001140800000000003957646300000000000000009999123100000010000000000000BRTAEECDAM10148
012024102102WEST3       010WESTWING    ON      NM   R$  000000000008200000000000830000000000079000000000008000000000000790000000000079000000000008100052000000000000020600000000000001666300000000000000009999123100000010000000000000BRWESTACNOR3100
012024102102WHRL3       010WHIRLPOOL   ON           R$  000000000041200000000004180000000000412000000000041500000000004130000000000413000000000041800010000000000000001900000000000000789500000000000000009999123100000010000000000000BRWHRLACNOR5129
012024102102WHRL4       010WHIRLPOOL   PN           R$  000000000044000000000004450000000000438000000000044100000000004400000000000439000000000044000036000000000000008500000000000003752600000000000000009999123100000010000000000000BRWHRLACNPR2129
012024102102WIZC3       010WIZ CO      ON      NM   R$  000000000059000000000005910000000000581000000000058300000000005850000000000585000000000058601926000000000000335900000000000196052300000000000000009999123100000010000000000000BRWIZCACNOR5102
012024102102WLMM3       010WLM IND COM ON           R$  000000000280000000000028000000000002800000000000280000000000028000000000002355000000000280000002000000000000000200000000000000560000000000000000009999123100000010000000000000BRWLMMACNOR6119
012024102102WLMM4       010WLM IND COM PN           R$  000000000323500000000032350000000003235000000000323500000000032350000000003190000000000324300002000000000000000200000000000000647000000000000000009999123100000010000000000000BRWLMMACNPR3119
012024102102CCRO3       010CCR SA      ON      NM   R$  000000000121200000000012340000000001212000000000122700000000012310000000001228000000000123209341000000000005232300000000006421723700000000000000009999123100000010000000000000BRCCROACNOR2145
012024102102CEAB3       010CEA MODAS   ON      NM   R$  000000000120800000000012290000000001189000000000120500000000011950000000001192000000000119507424000000000002389000000000002880105300000000000000009999123100000010000000000000BRCEABACNOR1102
012024102102CEBR3       010CEB         ON           R$  000000000182800000000018500000000001827000000000183700000000018500000000001831000000000200000016000000000000002200000000000004043400000000000000009999123100000010000000000000BRCEBRACNOR5125
012024102102CEBR5       010CEB         PNA          R$  000000000160900000000016570000000001609000000000161300000000016540000000001610000000000165900009000000000000002300000000000003710100000000000000009999123100000010000000000000BRCEBRACNPA8124
012024102102CEBR6       010CEB         PNB          R$  000000000175600000000017760000000001756000000000176600000000017650000000001765000000000177000014000000000000004100000000000007244000000000000000009999123100000010000000000000BRCEBRACNPB6124
012024102102CGRA3       010GRAZZIOTIN  ON           R$  000000000250000000000025000000000002500000000000250000000000025000000000002499000000000255000001000000000000000100000000000000250000000000000000009999123100000010000000000000BRCGRAACNOR2083
012024102102CGRA4       010GRAZZIOTIN  PN           R$  000000000250200000000025670000000002501000000000251100000000025010000000002501000000000256000015000000000000003000000000000007534100000000000000009999123100000010000000000000BRCGRAACNPR9083
012024102102CSUD3       010CSU DIGITAL ON      NM   R$  000000000169800000000016990000000001680000000000169000000000016990000000001687000000000170000144000000000000029000000000000049029700000000000000009999123100000010000000000000BRCSUDACNOR5111
012024102102MILS3       010MILLS       ON      NM   R$  000000000106200000000010620000000001050000000000105300000000010520000000001052000000000105301473000000000000299300000000000315333100000000000000009999123100000010000000000000BRMILSACNOR2128
012024102102MLAS3       010MULTILASER  ON      NM   R$  000000000015400000000001570000000000152000000000015400000000001570000000000156000000000015705693000000000002100700000000000325438800000000000000009999123100000010000000000000BRMLASACNOR9101
012024102102MNDL3       010MUNDIAL     ON           R$  000000000163300000000016330000000001633000000000163300000000016330000000001427000000000165700001000000000000000300000000000000489900000000000000009999123100000010000000000000BRMNDLACNOR4109
012024102102MNPR3       010MINUPAR     ON           R$  000000000205200000000020900000000002023000000000207300000000020880000000001962000000000208900009000000000000001800000000000003732700000000000000009999123100000010000000000000BRMNPRACNOR5122
012024102102MOVI3       010MOVIDA      ON      NM   R$  000000000056600000000005910000000000566000000000058300000000005860000000000586000000000058804279000000000003031600000000001767722400000000000000009999123100000010000000000000BRMOVIACNOR0122
012024102102MRFG3       010MARFRIG     ON      NM   R$  000000000145600000000014810000000001437000000000146800000000014720000000001471000000000147415585000000000006330300000000009294907800000000000000009999123100000010000000000000BRMRFGACNOR0116
012024102102PTBL3       010PORTOBELLO  ON      NM   R$  000000000046100000000004640000000000456000000000046000000000004560000000000456000000000046000262000000000000086400000000000039745000000000000000009999123100000010000000000000BRPTBLACNOR8132
012024102102PTNT4       010PETTENATI   PN           R$  000000000063300000000006370000000000614000000000062400000000006140000000000614000000000063100015000000000000005100000000000003185300000000000000009999123100000010000000000000BRPTNTACNPR3047
012024102102CAMB3       010CAMBUCI     ON           R$  000000000120200000000012180000000001200000000000120500000000012000000000001200000000000120900099000000000000021600000000000026047700000000000000009999123100000010000000000000BRCAMBACNOR4131
012024102102CAML3       010CAMIL       ON      NM   R$  000000000081600000000008290000000000816000000000082300000000008230000000000818000000000082301469000000000000454500000000000374299500000000000000009999123100000010000000000000BRCAMLACNOR3129
012024102102CASH3       010MELIUZ      ON      NM   R$  000000000033900000000003470000000000336000000000034000000000003460000000000346000000000034700997000000000000875000000000000297582400000000000000009999123100000010000000000000BRCASHACNOR8107
012024102102CBAV3       010CBA         ON      NM   R$  000000000057100000000005800000000000562000000000057300000000005780000000000578000000000057903859000000000001889100000000001084180000000000000000009999123100000010000000000000BRCBAVACNOR5104
012024102102QUAL3       010QUALICORP   ON      NM   R$  000000000021600000000002200000000000214000000000021700000000002200000000000219000000000022001697000000000004309900000000000938275500000000000000009999123100000010000000000000BRQUALACNOR6120
012024102102ALPA3       010ALPARGATAS  ON      N1   R$  000000000067000000000006860000000000670000000000067100000000006700000000000647000000000067000012000000000000003200000000000002148800000000000000009999123100000010000000000000BRALPAACNOR0231
012024102102ALPA4       010ALPARGATAS  PN      N1   R$  000000000069500000000007060000000000693000000000070100000000007020000000000700000000000070204220000000000001325400000000000929118400000000000000009999123100000010000000000000BRALPAACNPR7232
012024102102ALPK3       010ESTAPAR     ON      NM   R$  000000000028700000000002910000000000276000000000028000000000002810000000000280000000000028100306000000000000216100000000000060717900000000000000009999123100000010000000000000BRALPKACNOR9101
012024102102ALUP11      010ALUPAR      UNT     N2   R$  000000000291300000000029370000000002905000000000291700000000029100000000002910000000000292803528000000000000598200000000001745488400000000000000009999123100000010000000000000BRALUPCDAM15120
012024102102ALUP3       010ALUPAR      ON      N2   R$  000000000098900000000010070000000000989000000000099600000000009900000000000989000000000099300022000000000000005700000000000005680300000000000000009999123100000010000000000000BRALUPACNOR8120
012024102102ALUP4       010ALUPAR      PN      N2   R$  000000000096100000000009670000000000955000000000096000000000009610000000000961000000000096300082000000000000017000000000000016332500000000000000009999123100000010000000000000BRALUPACNPR5120
012024102102AMAR3       010LOJAS MARISAON      NM   R$  000000000009800000000001000000000000097000000000009800000000000970000000000097000000000009900572000000000000213100000000000021024800000000000000009999123100000010000000000000BRAMARACNOR4115
012024102102AMBP3       010AMBIPAR     ON      NM   R$  000000001350100000000140360000000013350000000001369400000000136230000000013623000000001370000851000000000000151700000000002077426500000000000000009999123100000010000000000000BRAMBPACNOR6103
012024102102RADL3       010RAIADROGASILON      NM   R$  000000000251100000000025750000000002495000000000254300000000025340000000002532000000000253520642000000000008292100000000021094135000000000000000009999123100000010000000000000BRRADLACNOR0158
012024102102SMTO3       010SAO MARTINHOON      NM   R$  000000000259600000000026390000000002582000000000261200000000026090000000002600000000000261004516000000000000851600000000002225111900000000000000009999123100000010000000000000BRSMTOACNOR3127
012024102102SNSY5       010SANSUY      PNA          R$  000000000050000000000005140000000000498000000000050200000000005140000000000498000000000051400006000000000000001200000000000000603100000000000000009999123100000010000000000000BRSNSYACNPA5111
012024102102SOJA3       010BOA SAFRA   ON      NM   R$  000000000120000000000012000000000001170000000000117700000000011770000000001176000000000118102367000000000001411600000000001662082700000000000000009999123100000010000000000000BRSOJAACNOR9106
012024102102FLRY3       010FLEURY      ON      NM   R$  000000000149800000000015000000000001485000000000149500000000014960000000001495000000000150006280000000000003667100000000005482913900000000000000009999123100000010000000000000BRFLRYACNOR5139
012024102102FRAS3       010FRAS-LE     ON      N1   R$  000000000222000000000022450000000002211000000000222800000000022250000000002225000000000222701888000000000000388300000000000865309400000000000000009999123100000010000000000000BRFRASACNOR0160
012024102102CLSA3       010CLEARSALE   ON      NM   R$  000000000093600000000009420000000000927000000000093400000000009360000000000932000000000093601749000000000000618400000000000577812700000000000000009999123100000010000000000000BRCLSAACNOR0100
012024102102CLSC4       010CELESC      PN      N2   R$  000000000796000000000080190000000007950000000000797500000000079540000000007949000000000801100023000000000000002400000000000019140800000000000000009999123100000010000000000000BRCLSCACNPR3132
012024102102CMIG3       010CEMIG       ON      N1   R$  000000000142100000000014320000000001414000000000142500000000014260000000001425000000000142600484000000000000120800000000000172232400000000000000009999123100000010000000000000BRCMIGACNOR6244
012024102102CMIG4       010CEMIG       PN      N1   R$  000000000110500000000011140000000001100000000000110800000000011120000000001111000000000111211742000000000007216700000000008002277800000000000000009999123100000010000000000000BRCMIGACNPR3245
012024102102CMIN3       010CSNMINERACAOON      N2   R$  000000000059600000000006040000000000593000000000059700000000006000000000000599000000000060107167000000000006040800000000003609508600000000000000009999123100000010000000000000BRCMINACNOR2112
012024102102CYRE3       010CYRELA REALTON      NM   R$  000000000217000000000021900000000002152000000000216100000000021520000000002151000000000215410946000000000003154500000000006819615100000000000000009999123100000010000000000000BRCYREACNOR7140
012024102102GGPS3       010GPS         ON      NM   R$  000000000182800000000018440000000001823000000000183300000000018300000000001830000000000183306186000000000001748600000000003206364300000000000000009999123100000010000000000000BRGGPSACNOR9103
012024102102CXSE3       010CAIXA SEGURION      NM   R$  000000000144300000000014520000000001424000000000143300000000014290000000001429000000000143109506000000000002645300000000003792230500000000000000009999123100000010000000000000BRCXSEACNOR7107
012024102102FHER3       010FER HERINGERON      NM   R$  000000000037200000000003720000000000371000000000037100000000003710000000000371000000000037400014000000000000005600000000000002079100000000000000009999123100000010000000000000BRFHERACNOR5103
012024102102FIQE3       010UNIFIQUE    ON      NM   R$  000000000038900000000003890000000000383000000000038500000000003850000000000385000000000038800427000000000000164800000000000063532600000000000000009999123100000010000000000000BRFIQEACNOR5107
012024102102DMVF3       010D1000VFARMA ON      NM   R$  000000000063600000000006380000000000624000000000062900000000006270000000000627000000000063100239000000000000052500000000000033040000000000000000009999123100000010000000000000BRDMVFACNOR9100
012024102102DOHL4       010DOHLER      PN           R$  000000000039700000000004120000000000396000000000040400000000004120000000000402000000000041200006000000000000000600000000000000242600000000000000009999123100000010000000000000BRDOHLACNPR9066
012024102102DOTZ3       010DOTZ SA     ON      NM   R$  000000000056100000000005900000000000556000000000056900000000005740000000000566000000000058800104000000000000032500000000000018492700000000000000009999123100000010000000000000BRDOTZACNOR7101
012024102102DXCO3       010DEXCO       ON      NM   R$  000000000080700000000008180000000000803000000000080900000000008110000000000808000000000081108419000000000002969800000000002404904400000000000000009999123100000010000000000000BRDXCOACNOR8105
012024102102EALT4       010ACO ALTONA  PN           R$  000000000130600000000013100000000001295000000000130300000000013000000000001299000000000130600038000000000000006400000000000008340400000000000000009999123100000010000000000000BREALTACNPR1138
012024102102ECOR3       010ECORODOVIAS ON      NM   R$  000000000069700000000007160000000000697000000000070800000000007160000000000709000000000071603353000000000002659000000000001883257400000000000000009999123100000010000000000000BRECORACNOR8120
012024102102GMAT3       010GRUPO MATEUSON      NM   R$  000000000073200000000007370000000000721000000000072800000000007320000000000726000000000073205953000000000002979200000000002170321600000000000000009999123100000010000000000000BRGMATACNOR7103
012024102102GOAU3       010GERDAU MET  ON      N1   R$  000000000102100000000010280000000001009000000000102000000000010210000000001019000000000102600195000000000000026000000000000026522900000000000000009999123100000010000000000000BRGOAUACNOR1268
012024102102GUAR3       010GUARARAPES  ON      NM   R$  000000000081600000000008240000000000797000000000080800000000008050000000000805000000000081002041000000000000689000000000000557204800000000000000009999123100000010000000000000BRGUARACNOR4173
012024102102HAGA3       010HAGA S/A    ON           R$  000000000025800000000002680000000000253000000000025900000000002530000000000253000000000025400032000000000000011800000000000003057800000000000000009999123100000010000000000000BRHAGAACNOR7103
012024102102HAGA4       010HAGA S/A    PN           R$  000000000013000000000001370000000000125000000000012800000000001280000000000127000000000012800126000000000000235900000000000030421100000000000000009999123100000010000000000000BRHAGAACNPR4103
012024102102HAPV3       010HAPVIDA     ON      NM   R$  000000000037700000000003810000000000364000000000036800000000003650000000000365000000000036638619000000000077334300000000028473612800000000000000009999123100000010000000000000BRHAPVACNOR4115
012024102102JALL3       010JALLESMACHADON      NM   R$  000000000061800000000006210000000000612000000000061500000000006130000000000613000000000061601238000000000000343400000000000211346400000000000000009999123100000010000000000000BRJALLACNOR0106
012024102102JBSS3       010JBS         ON      NM   R$  000000000347900000000035070000000003458000000000348300000000034840000000003481000000000348617965000000000007593000000000026448997400000000000000009999123100000010000000000000BRJBSSACNOR8122
012024102102ATOM3       010ATOMPAR     ON           R$  000000000043000000000004700000000000385000000000042400000000004170000000000407000000000041700734000000000000343600000000000145892900000000000000009999123100000010000000000000BRATOMACNOR1106
012024102102AURE3       010AUREN       ON      NM   R$  000000000104000000000010480000000001026000000000103300000000010260000000001026000000000102707633000000000005157600000000005330125500000000000000009999123100000010000000000000BRAUREACNOR9104
012024102102AVLL3       010ALPHAVILLE  ON      NM   R$  000000000028100000000002870000000000281000000000028400000000002870000000000287000000000029000017000000000000030000000000000008541700000000000000009999123100000010000000000000BRAVLLACNOR5103
012024102102AZEV3       010AZEVEDO     ON           R$  000000000012900000000001300000000000125000000000012700000000001260000000000126000000000012700208000000000000281000000000000035693800000000000000009999123100000010000000000000BRAZEVACNOR0121
012024102102AZEV4       010AZEVEDO     PN           R$  000000000012600000000001280000000000124000000000012500000000001240000000000124000000000012501509000000000000912000000000000114211900000000000000009999123100000010000000000000BRAZEVACNPR7121
012024102102AZUL4       010AZUL        PN      N2   R$  000000000059500000000006060000000000589000000000059700000000005970000000000596000000000059706806000000000013742000000000008208224000000000000000009999123100000010000000000000BRAZULACNPR4103
012024102107NUTR3       010NUTRIPLANT  ON      MA   R$  000000000046300000000004630000000000455000000000045900000000004560000000000456000000000046200013000000000000001300000000000000597100000000000000009999123100000010000000000000BRNUTRACNOR0104
012024102107SEQL3       010SEQUOIA LOG ON      NM   R$  000000000035400000000003790000000000351000000000036700000000003600000000000360000000000036201513000000000001789500000000000656848100000000000000009999123100000010000000000000BRSEQLACNOR2103
012024102107TXRX4       010TEX RENAUX  PN           R$  000000000022600000000002260000000000211000000000022400000000002200000000000220000000000022100013000000000000006000000000000001345000000000000000009999123100000010000000000000BRTXRXACNPR0142
012024102108NEXP3       010NEXPE       ON           R$  000000000043500000000004350000000000435000000000043500000000004350000000000404000000000044300001000000000000000100000000000000043500000000000000009999123100000010000000000000BRNEXPACNOR0101
012024102108LIGT3       010LIGHT S/A   ON      NM   R$  000000000064500000000006450000000000631000000000063800000000006400000000000635000000000064001352000000000000387100000000000246977300000000000000009999123100000010000000000000BRLIGTACNOR2124
012024102108JFEN3       010JOAO FORTES ON           R$  000000000002800000000000300000000000027000000000002800000000000280000000000027000000000002800439000000000001054500000000000029667200000000000000009999123100000010000000000000BRJFENACNOR0059
012024102108OIBR3       010OI          ON      N1   R$  000000000044000000000004510000000000439000000000044200000000004390000000000439000000000044000502000000000000268800000000000118914900000000000000009999123100000010000000000000BROIBRACNOR1112
012024102108OIBR4       010OI          PN      N1   R$  000000000109300000000010930000000001013000000000103300000000010150000000001014000000000104700006000000000000000600000000000000620200000000000000009999123100000010000000000000BROIBRACNPR8111
012024102108OSXB3       010OSX BRASIL  ON      NM   R$  000000000045000000000004700000000000450000000000046000000000004560000000000456000000000046900023000000000000003200000000000001473800000000000000009999123100000010000000000000BROSXBACNOR8109
012024102108PMAM3       010PARANAPANEMAON      NM   R$  000000000012400000000001240000000000116000000000011900000000001180000000000118000000000011900543000000000000211500000000000025310600000000000000009999123100000010000000000000BRPMAMACNOR3040
012024102108RNEW11      010RENOVA      UNT     N2   R$  000000000037400000000003780000000000360000000000036800000000003720000000000365000000000037300046000000000000009100000000000003351700000000000000009999123100000010000000000000BRRNEWCDAM15110
012024102108RNEW3       010RENOVA      ON      N2   R$  000000000012600000000001300000000000121000000000012300000000001220000000000122000000000012300161000000000000188700000000000023368300000000000000009999123100000010000000000000BRRNEWACNOR8110
012024102108RNEW4       010RENOVA      PN      N2   R$  000000000012600000000001280000000000122000000000012400000000001240000000000122000000000012400245000000000000221400000000000027610000000000000000009999123100000010000000000000BRRNEWACNPR5110
012024102108RPMG3       010PET MANGUINHON           R$  000000000030000000000003040000000000294000000000029900000000002970000000000297000000000030000053000000000000013300000000000003985800000000000000009999123100000010000000000000BRRPMGACNOR9194
012024102108RSID3       010ROSSI RESID ON      NM   R$  000000000032000000000003290000000000307000000000031400000000003070000000000307000000000031200126000000000000029700000000000009342200000000000000009999123100000010000000000000BRRSIDACNOR8120
012024102108HOOT4       010HOTEIS OTHONPN           R$  000000000022400000000002240000000000224000000000022400000000002240000000000224000000000022700001000000000000000200000000000000044800000000000000009999123100000010000000000000BRHOOTACNPR9015
012024102108CTSA3       010SANTANENSE  ON           R$  000000000020800000000002080000000000208000000000020800000000002080000000000208000000000021400008000000000000002700000000000000561600000000000000009999123100000010000000000000BRCTSAACNOR3062
012024102108CTSA4       010SANTANENSE  PN           R$  000000000011100000000001110000000000111000000000011100000000001110000000000111000000000011200011000000000000008300000000000000921300000000000000009999123100000010000000000000BRCTSAACNPR0062
012024102108AGXY3       010AGROGALAXY  ON      NM   R$  000000000005200000000000530000000000050000000000005100000000000510000000000051000000000005200214000000000000263300000000000013610900000000000000009999123100000010000000000000BRAGXYACNOR4103
012024102108AMER3       010AMERICANAS  ON      NM   R$  000000000038600000000003940000000000383000000000038800000000003870000000000387000000000038901451000000000000955200000000000370720300000000000000009999123100000010000000000000BRAMERACNOR6103
012024102108ATMP3       010ATMASA      ON           R$  000000000014300000000001430000000000138000000000013800000000001390000000000137000000000013900009000000000000008600000000000001194600000000000000009999123100000010000000000000BRATMPACNOR8100
012024102110PINE1       010PINE        DIR ORD N2   R$  000000000012500000000001250000000000065000000000009000000000000800000000000080000000000009000060000000000000014300000000000001292500000000000000009999123100000010000000000000BRPINED04OR0150
012024102110PINE2       010PINE        DIR PRE N2   R$  000000000009000000000000900000000000090000000000009000000000000900000000000043000000000007100003000000000000000400000000000000036000000000000000009999123100000010000000000000BRPINED06PR2150
012024102110PMAM1       010PARANAPANEMADIR ORD NM   R$  000000000000100000000000010000000000001000000000000100000000000010000000000000000000000000100397000000000000940400000000000000940400000000000000009999123100000010000000000000BRPMAMD05OR9039
012024102110HBSA1       010HIDROVIAS   DIR ORD NM   R$  000000000000300000000000030000000000002000000000000200000000000020000000000002000000000000300078000000000000924200000000000001912300000000000000009999123100000010000000000000BRHBSAD01OR5100
012024102110CBEE1       010AMPLA ENERG DIR ORD      R$  000000000003700000000000370000000000037000000000003700000000000370000000000037000000000010000003000000000000001000000000000000037000000000000000009999123100000010000000000000BRCBEED07OR5159
012024102112CNES11      010FII CENESP  CI           R$  000000000012700000000001310000000000127000000000012900000000001300000000000130000000000013102113000000000000051808000000000006714403000000000000009999123100000010000000000000BRCNESCTF001263
012024102112DEVA11      010FII DEVANT  CI           R$  000000000346500000000034960000000003440000000000345600000000034500000000003446000000000345001491000000000000021848000000000075518654000000000000009999123100000010000000000000BRDEVACTF000153
012024102112GRUL11      010FII GRUL    CI           R$  000000000091300000000009470000000000902000000000091000000000009050000000000905000000000091601779000000000000051748000000000047118320000000000000009999123100000010000000000000BRGRULCTF004100
012024102112GSFI11      010FII GENERAL CI           R$  000000000076400000000007800000000000756000000000077400000000007750000000000769000000000077500362000000000000021555000000000016683843000000000000009999123100000010000000000000BRGSFICTF009103
012024102112GTWR11      010FII G TOWERSCI           R$  000000000750400000000075100000000007480000000000749100000000074800000000007480000000000748401082000000000000009431000000000070654275000000000000009999123100000010000000000000BRGTWRCTF003167
012024102112BMLC11      010FII BMBRC LCCI           R$  000000000985000000000099910000000009800000000000981600000000099140000000009801000000000988900012000000000000000266000000000002611161000000000000009999123100000010000000000000BRBMLCCTF004255
012024102112BNFS11      010FII BANRISULCI           R$  000000001152300000000115230000000011460000000001149300000000114890000000011489000000001150000102000000000000000895000000000010286583000000000000009999123100000010000000000000BRBNFSCTF000245
012024102112NSLU11      010FII LOURDES CI           R$  000000001710000000000171000000000016900000000001697700000000169000000000016900000000001709900070000000000000000564000000000009575294000000000000009999123100000010000000000000BRNSLUCTF008315
012024102112ABCP11      010FII ABC IMOBCI           R$  000000000760000000000076750000000007433000000000753000000000074330000000007433000000000748600138000000000000000785000000000005911422000000000000009999123100000010000000000000BRABCPCTF000343
012024102112NCRI11      010FII NAVI CRICI           R$  000000000088700000000009250000000000886000000000089900000000009220000000000892000000000092200014000000000000000079000000000000071068000000000000009999123100000010000000000000BRNCRICTF004122
012024102112NEWL11      010FII NEWPORT CI           R$  000000001060000000000107570000000010560000000001059400000000105970000000010590000000001059800141000000000000000729000000000007723280000000000000009999123100000010000000000000BRNEWLCTF004159
012024102112NEWU11      010FII NEWRU   CI           R$  000000000777700000000078200000000007200000000000771700000000078200000000007363000000000782000045000000000000001062000000000008196312000000000000009999123100000010000000000000BRNEWUCTF005125
012024102112BRCO11      010FII BRESCO  CI           R$  000000001072000000000107800000000010700000000001074300000000107150000000010715000000001071705464000000000000051747000000000555954687000000000000009999123100000010000000000000BRBRCOCTF007161
012024102112BRCR11      010FII BC FUND CI           R$  000000000452000000000045450000000004470000000000449100000000045000000000004500000000000450106619000000000000030138000000000135363439000000000000009999123100000010000000000000BRBRCRCTF000271
012024102112BRIM11      010FII BRIO II CI           R$  000000012390000000001239000000000109800000000011385000000001098000000000105000000000011490000021000000000000000043000000000004895551000000000000009999123100000010000000000000BRBRIMCTF008131
012024102112BRIP11      010FII BRIO IIICI           R$  000000009000000000000900000000000090000000000009000000000000900000000000090000000000009479900001000000000000000001000000000000090000000000000000009999123100000010000000000000BRBRIPCTF001117
012024102112EQIR11      010FII EQI RECECI  ER       R$  000000000088800000000008890000000000868000000000087500000000008770000000000870000000000087701406000000000000017623000000000015426979000000000000009999123100000010000000000000BREQIRCTF003137
012024102112ICRI11      010FII CI IPCA CI           R$  000000000937800000000094370000000009253000000000936300000000093010000000009301000000000940000341000000000000015939000000000149247663000000000000009999123100000010000000000000BRICRICTF004108
012024102112IDFI11      010FII UNIDADESCI           R$  000000000020500000000002200000000000200000000000021000000000002100000000000202000000000021300086000000000000002404000000000000505877000000000000009999123100000010000000000000BRIDFICTF007136
012024102112FAED11      010FII ANH EDUCCI           R$  000000001464900000000146780000000014503000000001452300000000145030000000014503000000001460000115000000000000000867000000000012592089000000000000009999123100000010000000000000BRFAEDCTF003282
012024102112FAMB11      010FII ALMIRANTCI           R$  000000018500100000001900000000000185000000000018809100000001900000000000186501000000019000000047000000000000000182000000000034232597000000000000009999123100000010000000000000BRFAMBCTF018316
012024102112FATN11      010FII ATHENA ICI           R$  000000000898000000000089800000000008930000000000896100000000089740000000008967000000000897400672000000000000005666000000000050775453000000000000009999123100000010000000000000BRFATNCTF000156
012024102112FCFL11      010FII CAMPUSFLCI  ER       R$  000000001135100000000113600000000011230000000001133700000000112300000000011230000000001131000110000000000000000900000000000010203661000000000000009999123100000010000000000000BRFCFLCTF009274
012024102112MALL11      010FII MALLS BPCI           R$  000000001007500000000101390000000010010000000001005800000000100710000000010050000000001007104716000000000000017701000000000178049797000000000000009999123100000010000000000000BRMALLCTF007185
012024102112MANA11      010FII MANATI  CI           R$  000000000087200000000008740000000000861000000000086500000000008680000000000863000000000086802560000000000000101069000000000087501428000000000000009999123100000010000000000000BRMANACTF006129
012024102112MAXR11      010FII MAX RET CI           R$  000000000676500000000067980000000006648000000000665600000000066490000000006649000000000665000098000000000000001217000000000008100826000000000000009999123100000010000000000000BRMAXRCTF009272
012024102112MCCI11      010FII MAUA    CI  ER       R$  000000000831400000000083600000000008212000000000828200000000082700000000008270000000000827604788000000000000039541000000000327516807000000000000009999123100000010000000000000BRMCCICTF008166
012024102112MCHY11      010FII MAUA HY CI  ER       R$  000000000084000000000008530000000000826000000000084400000000008480000000000848000000000084915101000000000000635761000000000537089466000000000000009999123100000010000000000000BRMCHYCTF004142
012024102112EURO11      010FII EUROPAR CI           R$  000000002270800000000233180000000022699000000002303800000000233180000000023100000000002331800019000000000000000049000000000001128909000000000000009999123100000010000000000000BREUROCTF011363
012024102112EVBI11      010FII VBI CON CI  ER       R$  000000000094600000000009600000000000925000000000094400000000009450000000000926000000000094502139000000000000021456000000000020275289000000000000009999123100000010000000000000BREVBICTF007154
012024102112EXES11      010FII EXES    CI  ER       R$  000000000096000000000009600000000000955000000000095600000000009600000000000941000000000096000009000000000000000207000000000000197970000000000000009999123100000010000000000000BREXESCTF006130
012024102112IBCR11      010FII BREI    CI  ER       R$  000000000587700000000058780000000005717000000000580200000000057290000000005728000000000580700143000000000000002897000000000016809549000000000000009999123100000010000000000000BRIBCRCTF009141
012024102112KNCR11      010FII KINEA RICI  ES       R$  000000001041100000000104180000000010375000000001039700000000103930000000010391000000001039323289000000000000113025000000001175197840000000000000009999123100000010000000000000BRKNCRCTF000245
012024102112KNCR12      010FII KINEA RIDIR          R$  000000000002200000000000400000000000010000000000002300000000000250000000000024000000000002505019000000000000482912000000000011411254000000000000009999123100000010000000000000BRKNCRD02M15244
012024102112KNHF11      010FII KINEA HFCI           R$  000000000898900000000089900000000008912000000000893700000000089200000000008920000000000892402745000000000000051810000000000463029771000000000000009999123100000010000000000000BRKNHFCTF004115
012024102112KNHY11      010FII KINEA HYCI           R$  000000001037000000000103700000000010322000000001033500000000103220000000010322000000001033806917000000000000049143000000000507897870000000000000009999123100000010000000000000BRKNHYCTF005176
012024102112KNIP11      010FII KINEA IPCI           R$  000000000918900000000091890000000009125000000000915100000000091320000000009132000000000917011116000000000000069238000000000633606588000000000000009999123100000010000000000000BRKNIPCTF001197
012024102112KNRE11      010FII KII REALCI           R$  000000000002500000000000270000000000024000000000002500000000000260000000000025000000000002700043000000000000024680000000000000622904000000000000009999123100000010000000000000BRKNRECTF006129
012024102112KNRI11      010FII KINEA   CI           R$  000000001399900000000140290000000013850000000001392100000000138600000000013860000000001387014338000000000000048888000000000680582507000000000000009999123100000010000000000000BRKNRICTF007268
012024102112KNSC11      010FII KINEA SCCI           R$  000000000090000000000009030000000000894000000000089700000000008960000000000896000000000089815763000000000000565837000000000507735773000000000000009999123100000010000000000000BRKNSCCTF008152
012024102112KNUQ11      010FII KINEA UNCI           R$  000000001029500000000103300000000010295000000001031200000000102960000000010296000000001030003465000000000000021570000000000222439749000000000000009999123100000010000000000000BRKNUQCTF004117
012024102112KORE11      010FII KORE    CI           R$  000000000965000000000096500000000009200000000000938000000000092000000000009199000000000924601476000000000000035055000000000328820043000000000000009999123100000010000000000000BRKORECTF012110
012024102112LASC11      010FII LEGATUS CI           R$  000000001109700000000110970000000011097000000001109700000000110970000000010980000000000000000001000000000000000001000000000000011097000000000000009999123100000010000000000000BRLASCCTF003157
012024102112LFTT11      010FII LOFT II CI  EA       R$  000000000094900000000009490000000000825000000000089600000000008660000000000825000000000091000054000000000000000832000000000000745867000000000000009999123100000010000000000000BRLFTTCTF004136
012024102112LIFE11      010FII LIFE    CI           R$  000000000100500000000010070000000000991000000000099600000000009930000000000993000000000099601291000000000000054068000000000053900128000000000000009999123100000010000000000000BRLIFECTF017134
012024102112HSML11      010FII HSI MALLCI           R$  000000000872000000000087290000000008667000000000870300000000086850000000008684000000000868505713000000000000036160000000000314728764000000000000009999123100000010000000000000BRHSMLCTF007165
012024102112HSRE11      010FII HSIRENDACI           R$  000000000979600000000097960000000009505000000000962000000000096000000000009538000000000960100019000000000000000115000000000001106302000000000000009999123100000010000000000000BRHSRECTF001145
