00COTAHIST.2024BOVESPA 20241023                                                                                                                                                                                                                      
012024102302BRFS3       010BRF SA      ON      NM   R$  000000000242900000000024420000000002388000000000242600000000024350000000002434000000000243511227000000000006912700000000016776449300000000000000009999123100000010000000000000BRBRFSACNOR8122
012024102302CSUD3       010CSU DIGITAL ON      NM   R$  000000000169400000000017000000000001659000000000167900000000016880000000001684000000000169000203000000000000034300000000000057594100000000000000009999123100000010000000000000BRCSUDACNOR5111
012024102302CURY3       010CURY S/A    ON      NM   R$  000000000232400000000023700000000002316000000000234700000000023700000000002364000000000237106610000000000001573000000000003693105600000000000000009999123100000010000000000000BRCURYACNOR3110
012024102302CVCB3       010CVC BRASIL  ON      NM   R$  000000000018800000000001910000000000185000000000018800000000001890000000000188000000000018904925000000000014277500000000002697598800000000000000009999123100000010000000000000BRCVCBACNOR1116
012024102302ESPA3       010ESPACOLASER ON      NM   R$  000000000009300000000000940000000000093000000000009300000000000940000000000093000000000009400074000000000000058000000000000005432400000000000000009999123100000010000000000000BRESPAACNOR7103
012024102302ESTR4       010ESTRELA     PN           R$  000000000037500000000003750000000000375000000000037500000000003750000000000326000000000037000002000000000000000600000000000000225000000000000000009999123100000010000000000000BRESTRACNPR0144
012024102302ETER3       010ETERNIT     ON      NM   R$  000000000053100000000005340000000000523000000000052800000000005300000000000530000000000053200276000000000000064700000000000034188500000000000000009999123100000010000000000000BRETERACNOR3244
012024102302EUCA3       010EUCATEX     ON      N1   R$  000000000161000000000016300000000001601000000000162400000000016300000000001601000000000163000006000000000000001300000000000002111300000000000000009999123100000010000000000000BREUCAACNOR1157
012024102302EUCA4       010EUCATEX     PN      N1   R$  000000000145100000000014510000000001422000000000143600000000014410000000001441000000000144800292000000000000062900000000000090325500000000000000009999123100000010000000000000BREUCAACNPR8044
012024102302EVEN3       010EVEN        ON      NM   R$  000000000061000000000006140000000000602000000000060800000000006130000000000613000000000061402261000000000000623500000000000379445400000000000000009999123100000010000000000000BREVENACNOR8120
012024102302EZTC3       010EZTEC       ON      NM   R$  000000000132500000000013550000000001322000000000134300000000013500000000001350000000000135104076000000000000963000000000001293581200000000000000009999123100000010000000000000BREZTCACNOR0126
012024102302FESA3       010FERBASA     ON      N1   R$  000000000127000000000012700000000001215000000000124900000000012500000000001250000000000131000007000000000000001600000000000001999100000000000000009999123100000010000000000000BRFESAACNOR8189
012024102302FESA4       010FERBASA     PN      N1   R$  000000000074400000000007440000000000734000000000073800000000007370000000000737000000000073801824000000000000552500000000000407993500000000000000009999123100000010000000000000BRFESAACNPR5085
012024102302FHER3       010FER HERINGERON      NM   R$  000000000037400000000003740000000000370000000000037000000000003740000000000370000000000037300008000000000000002600000000000000964200000000000000009999123100000010000000000000BRFHERACNOR5103
012024102302MATD3       010MATER DEI   ON      NM   R$  000000000043100000000004330000000000422000000000042500000000004250000000000425000000000042701422000000000000380000000000000161821300000000000000009999123100000010000000000000BRMATDACNOR4104
012024102302MBLY3       010MOBLY       ON  ES  NM   R$  000000000020400000000002060000000000199000000000020100000000002030000000000201000000000020300203000000000000233900000000000047193400000000000000009999123100000010000000000000BRMBLYACNOR5101
012024102302MDIA3       010M.DIASBRANCOON      NM   R$  000000000250800000000025220000000002460000000000248900000000025000000000002489000000000250105067000000000000835200000000002079210300000000000000009999123100000010000000000000BRMDIAACNOR7136
012024102302MDNE3       010MOURA DUBEUXON      NM   R$  000000000149500000000014980000000001464000000000148200000000014980000000001488000000000149901925000000000000439900000000000651978200000000000000009999123100000010000000000000BRMDNEACNOR9100
012024102302MEAL3       010IMC S/A     ON      NM   R$  000000000013600000000001400000000000136000000000013800000000001400000000000139000000000014000171000000000000225500000000000031231600000000000000009999123100000010000000000000BRMEALACNOR9105
012024102302MELK3       010MELNICK     ON      NM   R$  000000000035500000000003570000000000351000000000035400000000003560000000000353000000000035600457000000000000364100000000000129160700000000000000009999123100000010000000000000BRMELKACNOR8111
012024102302MGEL4       010MANGELS INDLPN           R$  000000000081300000000008350000000000770000000000080200000000007700000000000790000000000083400014000000000000003500000000000002810200000000000000009999123100000010000000000000BRMGELACNPR3147
012024102302MGLU3       010MAGAZ LUIZA ON      NM   R$  000000000091600000000009320000000000906000000000091600000000009150000000000915000000000091618346000000000020944700000000019205212500000000000000009999123100000010000000000000BRMGLUACNOR2125
012024102302PDGR3       010PDG REALT   ON      NM   R$  000000000000100000000000020000000000001000000000000100000000000010000000000001000000000000200701000000000018792500000000000020928600000000000000009999123100000010000000000000BRPDGRACNOR8119
012024102302PDTC3       010PADTEC      ON      NM   R$  000000000018700000000001950000000000183000000000018800000000001900000000000185000000000019000106000000000000055300000000000010431000000000000000009999123100000010000000000000BRPDTCACNOR3101
012024102302PETR3       010PETROBRAS   ON      N2   R$  000000000391300000000039370000000003881000000000390000000000038880000000003887000000000388912790000000000005052900000000019708056300000000000000009999123100000010000000000000BRPETRACNOR9206
012024102302PETR4       010PETROBRAS   PN      N2   R$  000000000359100000000035940000000003557000000000356900000000035660000000003566000000000356745917000000000030769100000000109837437400000000000000009999123100000010000000000000BRPETRACNPR6214
012024102302BAHI3       010BAHEMA      ON      MA   R$  000000000047400000000004840000000000452000000000047300000000004840000000000465000000000048300028000000000000017000000000000008041700000000000000009999123100000010000000000000BRBAHIACNOR1074
012024102302BALM4       010BAUMER      PN           R$  000000000102000000000010990000000001020000000000104500000000010400000000001002000000000109700005000000000000002400000000000002509100000000000000009999123100000010000000000000BRBALMACNPR2056
012024102302BAZA3       010AMAZONIA    ON           R$  000000000905000000000090500000000008901000000000895800000000089330000000008932000000000919800006000000000000000600000000000005375100000000000000009999123100000010000000000000BRBAZAACNOR0179
012024102302BBAS3       010BRASIL      ON      NM   R$  000000000263000000000026440000000002616000000000262600000000026330000000002633000000000263432734000000000012126400000000031848684700000000000000009999123100000010000000000000BRBBASACNOR3326
012024102302B3SA3       010B3          ON      NM   R$  000000000105200000000010620000000001046000000000105600000000010620000000001060000000000106231513000000000039674300000000041902573900000000000000009999123100000010000000000000BRB3SAACNOR6134
012024102302BEES3       010BANESTES    ON           R$  000000000087900000000008820000000000874000000000087600000000008810000000000874000000000088100065000000000000008700000000000007626800000000000000009999123100000010000000000000BRBEESACNOR9396
012024102302BEES4       010BANESTES    PN           R$  000000000089500000000009010000000000894000000000089600000000008940000000000893000000000089900013000000000000001600000000000001435000000000000000009999123100000010000000000000BRBEESACNPR6321
012024102302BGIP3       010BANESE      ON           R$  000000000260000000000026000000000002600000000000260000000000026000000000002550000000000260000001000000000000000200000000000000520000000000000000009999123100000010000000000000BRBGIPACNOR1210
012024102302GRND3       010GRENDENE    ON      NM   R$  000000000052800000000005310000000000523000000000052600000000005230000000000523000000000052501408000000000000679800000000000358212500000000000000009999123100000010000000000000BRGRNDACNOR3175
012024102302GSHP3       010GENERALSHOPPON           R$  000000000085000000000008500000000000850000000000085000000000008500000000000822000000000090000006000000000000003900000000000003315000000000000000009999123100000010000000000000BRGSHPACNOR7102
012024102302GUAR3       010GUARARAPES  ON      NM   R$  000000000078500000000007940000000000772000000000078400000000007890000000000781000000000078901663000000000000694700000000000545045800000000000000009999123100000010000000000000BRGUARACNOR4173
012024102302BGIP4       010BANESE      PN           R$  000000000236500000000023650000000002365000000000236500000000023650000000002332000000000236500001000000000000000700000000000001655500000000000000009999123100000010000000000000BRBGIPACNPR8210
012024102302BHIA3       010CASAS BAHIA ON      NM   R$  000000000042100000000004250000000000415000000000041900000000004230000000000420000000000042301488000000000001370500000000000575211500000000000000009999123100000010000000000000BRBHIAACNOR1102
012024102302BPAN4       010BANCO PAN   PN      N1   R$  000000000089600000000009080000000000883000000000089500000000009010000000000900000000000090602525000000000001113600000000000997029500000000000000009999123100000010000000000000BRBPANACNPR1115
012024102302BRAP3       010BRADESPAR   ON      N1   R$  000000000176800000000017680000000001742000000000174900000000017470000000001741000000000174700307000000000000054600000000000095544400000000000000009999123100000010000000000000BRBRAPACNOR5148
012024102302BRAP4       010BRADESPAR   PN      N1   R$  000000000189000000000018970000000001870000000000187800000000018700000000001869000000000187007556000000000006130800000000011516270700000000000000009999123100000010000000000000BRBRAPACNPR2148
012024102302CRFB3       010CARREFOUR BRON      NM   R$  000000000074400000000007560000000000713000000000073500000000007430000000000742000000000074428153000000000021175400000000015573739200000000000000009999123100000010000000000000BRCRFBACNOR2116
012024102302CRPG5       010CRISTAL     PNA          R$  000000000252000000000025360000000002512000000000252000000000025200000000002511000000000252000005000000000000001500000000000003780800000000000000009999123100000010000000000000BRCRPGACNPA3119
012024102302CSAN3       010COSAN       ON      NM   R$  000000000116200000000011730000000001148000000000116200000000011730000000001172000000000117315966000000000008145400000000009471041000000000000000009999123100000010000000000000BRCSANACNOR6126
012024102302ELMD3       010ELETROMIDIA ON      NM   R$  000000000171000000000017450000000001653000000000168900000000016860000000001669000000000168701595000000000000201500000000000340341100000000000000009999123100000010000000000000BRELMDACNOR3101
012024102302EMAE4       010EMAE        PN           R$  000000000395000000000039800000000003941000000000395700000000039800000000003932000000000400000003000000000000000300000000000001187100000000000000009999123100000010000000000000BREMAEACNPR1126
012024102302EMBR3       010EMBRAER     ON      NM   R$  000000000496300000000050250000000004911000000000495600000000049150000000004915000000000492416446000000000003673300000000018206310000000000000000009999123100000010000000000000BREMBRACNOR4191
012024102302ENEV3       010ENEVA       ON      NM   R$  000000000139200000000013950000000001367000000000137900000000013830000000001378000000000138426941000000000010803300000000014903374800000000000000009999123100000010000000000000BRENEVACNOR8106
012024102302KRSA3       010KORA SAUDE  ON      NM   R$  000000000047800000000004900000000000474000000000048500000000004840000000000484000000000048500050000000000000032200000000000015638500000000000000009999123100000010000000000000BRKRSAACNOR0101
012024102302LAND3       010TERRASANTAPAON      NM   R$  000000000136800000000013680000000001320000000000133900000000013660000000001333000000000136600101000000000000011000000000000014730000000000000000009999123100000010000000000000BRLANDACNOR9103
012024102302LAVV3       010LAVVI       ON      NM   R$  000000000080600000000008070000000000798000000000080200000000008010000000000801000000000080501036000000000000225400000000000180801000000000000000009999123100000010000000000000BRLAVVACNOR4113
012024102302LEVE3       010METAL LEVE  ON      NM   R$  000000000303600000000030490000000003022000000000303100000000030330000000003023000000000303301557000000000000241500000000000732111000000000000000009999123100000010000000000000BRLEVEACNOR2197
012024102302LJQQ3       010QUERO-QUERO ON      NM   R$  000000000028000000000002900000000000276000000000028300000000002900000000000287000000000029010362000000000005585200000000001581453000000000000000009999123100000010000000000000BRLJQQACNOR5104
012024102302LOGG3       010LOG COM PROPON      NM   R$  000000000217400000000022200000000002163000000000219000000000022200000000002191000000000222001344000000000000157200000000000344289100000000000000009999123100000010000000000000BRLOGGACNOR7107
012024102302LOGN3       010LOG-IN      ON      NM   R$  000000000278500000000028550000000002486000000000263200000000024860000000002485000000000248600657000000000000107300000000000282441400000000000000009999123100000010000000000000BRLOGNACNOR3105
012024102302LPSB3       010LOPES BRASILON      NM   R$  000000000016300000000001670000000000162000000000016400000000001650000000000162000000000016500152000000000000108100000000000017762200000000000000009999123100000010000000000000BRLPSBACNOR0114
012024102302LREN3       010LOJAS RENNERON      NM   R$  000000000181000000000018170000000001778000000000179100000000017960000000001796000000000179824882000000000017994300000000032240495200000000000000009999123100000010000000000000BRLRENACNOR1222
012024102302EGIE3       010ENGIE BRASILON      NM   R$  000000000410100000000041020000000004065000000000408500000000040920000000004091000000000409804234000000000000742900000000003034847400000000000000009999123100000010000000000000BREGIEACNOR9127
012024102302EKTR4       010ELEKTRO     PN           R$  000000000454400000000045440000000004544000000000454400000000045440000000004464000000000454400003000000000000000300000000000001363200000000000000009999123100000010000000000000BREKTRACNPR7165
012024102302ELET3       010ELETROBRAS  ON      N1   R$  000000000382100000000038330000000003754000000000378800000000038040000000003800000000000380633210000000000009048400000000034278604400000000000000009999123100000010000000000000BRELETACNOR6160
012024102302ELET6       010ELETROBRAS  PNB     N1   R$  000000000421400000000042340000000004161000000000419900000000042110000000004195000000000421205068000000000000989300000000004154424000000000000000009999123100000010000000000000BRELETACNPB7077
012024102302HBOR3       010HELBOR      ON      NM   R$  000000000018900000000001900000000000187000000000018800000000001900000000000189000000000019000466000000000000349000000000000065766000000000000000009999123100000010000000000000BRHBORACNOR3118
012024102302HBRE3       010HBR REALTY  ON      NM   R$  000000000043700000000004580000000000436000000000044500000000004510000000000447000000000045101298000000000000975000000000000434224300000000000000009999123100000010000000000000BRHBREACNOR4100
012024102302HBSA3       010HIDROVIAS   ON      NM   R$  000000000033100000000003360000000000327000000000033000000000003340000000000332000000000033401783000000000003446300000000001137399800000000000000009999123100000010000000000000BRHBSAACNOR0101
012024102302HBTS5       010HABITASUL   PNA          R$  000000000320000000000032000000000003200000000000320000000000032000000000002800000000000325000001000000000000000100000000000000320000000000000000009999123100000010000000000000BRHBTSACNPA3128
012024102302HETA4       010HERCULES    PN           R$  000000000069700000000006970000000000697000000000069700000000006970000000000601000000000069500001000000000000000100000000000000069700000000000000009999123100000010000000000000BRHETAACNPR9136
012024102302HYPE3       010HYPERA      ON      NM   R$  000000000278700000000028070000000002610000000000268800000000027320000000002704000000000273330802000000000010856200000000029187502500000000000000009999123100000010000000000000BRHYPEACNOR0144
012024102302JALL3       010JALLESMACHADON      NM   R$  000000000061000000000006120000000000602000000000060500000000006060000000000606000000000060701075000000000000466000000000000282224500000000000000009999123100000010000000000000BRJALLACNOR0106
012024102302JBSS3       010JBS         ON      NM   R$  000000000351900000000035330000000003462000000000349900000000035150000000003510000000000351521314000000000005339000000000018683587700000000000000009999123100000010000000000000BRJBSSACNOR8122
012024102302MRFG3       010MARFRIG     ON      NM   R$  000000000142800000000014570000000001414000000000143500000000014500000000001448000000000145007965000000000003222900000000004624905500000000000000009999123100000010000000000000BRMRFGACNOR0116
012024102302MRSA3B      010MRS LOGIST  ON      MB   R$  000000000280000000000028000000000002750000000000277500000000027500000000002751000000000309900002000000000000000200000000000000555000000000000000009999123100000010000000000000BRMRSAACNOR6125
012024102302MRVE3       010MRV         ON      NM   R$  000000000068000000000007010000000000676000000000069200000000006950000000000695000000000069614588000000000008866800000000006142826400000000000000009999123100000010000000000000BRMRVEACNOR2127
012024102302AMAR3       010LOJAS MARISAON      NM   R$  000000000009600000000000970000000000095000000000009600000000000960000000000096000000000009700344000000000000085500000000000008222600000000000000009999123100000010000000000000BRAMARACNOR4115
012024102302AMBP3       010AMBIPAR     ON      NM   R$  000000001335000000000135330000000012779000000001315400000000132000000000013200000000001323700712000000000000137900000000001814066200000000000000009999123100000010000000000000BRAMBPACNOR6103
012024102302ANIM3       010ANIMA       ON      NM   R$  000000000024200000000002490000000000239000000000024500000000002480000000000247000000000024805520000000000008482300000000002079144900000000000000009999123100000010000000000000BRANIMACNOR6109
012024102302ARML3       010ARMAC       ON      NM   R$  000000000076900000000007740000000000754000000000076200000000007630000000000762000000000076402759000000000000651800000000000496704500000000000000009999123100000010000000000000BRARMLACNOR1113
012024102302ASAI3       010ASSAI       ON      NM   R$  000000000072300000000007470000000000715000000000072800000000007270000000000727000000000072818955000000000016495300000000012009337800000000000000009999123100000010000000000000BRASAIACNOR0106
012024102302CEAB3       010CEA MODAS   ON      NM   R$  000000000115000000000011580000000001127000000000114000000000011380000000001138000000000114208957000000000002300300000000002624223700000000000000009999123100000010000000000000BRCEABACNOR1102
012024102302CEBR3       010CEB         ON           R$  000000000184000000000018710000000001825000000000183900000000018710000000001828000000000187100013000000000000001300000000000002391600000000000000009999123100000010000000000000BRCEBRACNOR5125
012024102302CEBR5       010CEB         PNA          R$  000000000161100000000016480000000001611000000000164500000000016480000000001615000000000165400006000000000000001300000000000002138500000000000000009999123100000010000000000000BRCEBRACNPA8124
012024102302CEBR6       010CEB         PNB          R$  000000000176100000000017770000000001740000000000176500000000017610000000001751000000000177400019000000000000004200000000000007414500000000000000009999123100000010000000000000BRCEBRACNPB6124
012024102302CEEB3       010COELBA      ON           R$  000000000392500000000039250000000003925000000000392500000000039250000000003831000000000392500001000000000000000100000000000000392500000000000000009999123100000010000000000000BRCEEBACNOR3200
012024102302CGAS5       010COMGAS      PNA          R$  000000001285000000000131900000000012850000000001297600000000131900000000012600000000001319800010000000000000001100000000000014273800000000000000009999123100000010000000000000BRCGASACNPA3161
012024102302CGRA3       010GRAZZIOTIN  ON           R$  000000000250000000000025580000000002500000000000251500000000025030000000002502000000000254700004000000000000000400000000000001006100000000000000009999123100000010000000000000BRCGRAACNOR2083
012024102302CGRA4       010GRAZZIOTIN  PN           R$  000000000250000000000025590000000002500000000000252800000000025490000000002501000000000254900015000000000000001900000000000004804300000000000000009999123100000010000000000000BRCGRAACNPR9083
012024102302SANB11      010SANTANDER BRUNT EDJ      R$  000000000281800000000028540000000002810000000000283600000000028540000000002843000000000285406351000000000001421400000000004032238600000000000000009999123100000010000000000000BRSANBCDAM13166
012024102302SANB3       010SANTANDER BRON  EDJ      R$  000000000135800000000013580000000001337000000000134900000000013580000000001351000000000135800218000000000000037300000000000050318800000000000000009999123100000010000000000000BRSANBACNOR8173
012024102302SANB4       010SANTANDER BRPN  EDJ      R$  000000000147000000000014920000000001470000000000147800000000014920000000001482000000000149200284000000000000061000000000000090198900000000000000009999123100000010000000000000BRSANBACNPR5173
012024102302SAPR11      010SANEPAR     UNT     N2   R$  000000000274900000000027510000000002717000000000273200000000027280000000002728000000000273503262000000000000519900000000001420517200000000000000009999123100000010000000000000BRSAPRCDAM13118
012024102302SAPR3       010SANEPAR     ON      N2   R$  000000000052700000000005290000000000518000000000052300000000005240000000000521000000000052500415000000000000105400000000000055129700000000000000009999123100000010000000000000BRSAPRACNOR9159
012024102302SAPR4       010SANEPAR     PN      N2   R$  000000000055600000000005580000000000551000000000055300000000005510000000000551000000000055201748000000000000775400000000000428988000000000000000009999123100000010000000000000BRSAPRACNPR6159
012024102302SBFG3       010GRUPO SBF   ON      NM   R$  000000000138300000000013920000000001343000000000136000000000013660000000001352000000000136606228000000000002264800000000003080141200000000000000009999123100000010000000000000BRSBFGACNOR1103
012024102302UCAS3       010UNICASA     ON      NM   R$  000000000021300000000002190000000000213000000000021500000000002180000000000214000000000021800060000000000000020000000000000004310700000000000000009999123100000010000000000000BRUCASACNOR1113
012024102302UGPA3       010ULTRAPAR    ON      NM   R$  000000000200700000000020320000000002004000000000202100000000020250000000002025000000000202813617000000000004604200000000009306189500000000000000009999123100000010000000000000BRUGPAACNOR8156
012024102302UNIP3       010UNIPAR      ON           R$  000000000467900000000046790000000004570000000000461000000000046270000000004573000000000463000035000000000000003500000000000016135300000000000000009999123100000010000000000000BRUNIPACNOR7206
012024102302VALE3       010VALE        ON      NM   R$  000000000598900000000059900000000005915000000000595100000000059350000000005935000000000593633394000000000018289900000000108844207800000000000000009999123100000010000000000000BRVALEACNOR0211
012024102302WEST3       010WESTWING    ON      NM   R$  000000000008100000000000830000000000080000000000008100000000000820000000000080000000000008300068000000000000048700000000000003991000000000000000009999123100000010000000000000BRWESTACNOR3100
012024102302WHRL4       010WHIRLPOOL   PN           R$  000000000043600000000004440000000000436000000000044000000000004390000000000438000000000044200020000000000000002300000000000001013700000000000000009999123100000010000000000000BRWHRLACNPR2129
012024102302WIZC3       010WIZ CO      ON      NM   R$  000000000058400000000005850000000000578000000000058000000000005850000000000580000000000058500661000000000000179300000000000104022200000000000000009999123100000010000000000000BRWIZCACNOR5102
012024102302WLMM4       010WLM IND COM PN           R$  000000000312100000000032180000000003121000000000316400000000032180000000003121000000000321900007000000000000000900000000000002847700000000000000009999123100000010000000000000BRWLMMACNPR3119
012024102302PFRM3       010PROFARMA    ON      NM   R$  000000000060500000000006090000000000592000000000060200000000006090000000000598000000000060900348000000000000112500000000000067767200000000000000009999123100000010000000000000BRPFRMACNOR1116
012024102302MLAS3       010MULTILASER  ON      NM   R$  000000000015600000000001580000000000154000000000015500000000001550000000000155000000000015701219000000000001709600000000000266532200000000000000009999123100000010000000000000BRMLASACNOR9101
012024102302MNDL3       010MUNDIAL     ON           R$  000000000160000000000016000000000001600000000000160000000000016000000000001600000000000164000002000000000000001500000000000002400000000000000000009999123100000010000000000000BRMNDLACNOR4109
012024102302MNPR3       010MINUPAR     ON           R$  000000000202200000000020420000000002022000000000203100000000020290000000001980000000000203000003000000000000000300000000000000609300000000000000009999123100000010000000000000BRMNPRACNOR5122
012024102302MOVI3       010MOVIDA      ON      NM   R$  000000000056700000000005820000000000564000000000057200000000005760000000000573000000000057604913000000000003101600000000001776632000000000000000009999123100000010000000000000BRMOVIACNOR0122
012024102302SLCE3       010SLC AGRICOLAON      NM   R$  000000000173200000000017320000000001715000000000172200000000017200000000001720000000000172407079000000000002210200000000003807040400000000000000009999123100000010000000000000BRSLCEACNOR2125
012024102302SBSP3       010SABESP      ON      NM   R$  000000000901900000000091030000000008978000000000902600000000090140000000009012000000000901412558000000000002283600000000020613096300000000000000009999123100000010000000000000BRSBSPACNOR5161
012024102302SCAR3       010SAO CARLOS  ON      NM   R$  000000000210200000000021100000000002049000000000207900000000020490000000002049000000000214000051000000000000009300000000000019342800000000000000009999123100000010000000000000BRSCARACNOR7131
012024102302SEER3       010SER EDUCA   ON      NM   R$  000000000056200000000005750000000000555000000000056300000000005720000000000570000000000057200919000000000000268100000000000151206700000000000000009999123100000010000000000000BRSEERACNOR5119
012024102302SHOW3       010TIME FOR FUNON      NM   R$  000000000009500000000000980000000000094000000000009500000000000940000000000094000000000009500211000000000000097300000000000009335100000000000000009999123100000010000000000000BRSHOWACNOR7105
012024102302SHUL4       010SCHULZ      PN           R$  000000000061000000000006140000000000608000000000061100000000006130000000000613000000000061400902000000000000262800000000000160686200000000000000009999123100000010000000000000BRSHULACNPR4157
012024102302SIMH3       010SIMPAR      ON      NM   R$  000000000051100000000005380000000000511000000000052500000000005250000000000525000000000052803416000000000002516800000000001322855800000000000000009999123100000010000000000000BRSIMHACNOR0107
012024102302CAMB3       010CAMBUCI     ON           R$  000000000121100000000012190000000001193000000000120500000000011930000000001191000000000120000062000000000000015300000000000018443200000000000000009999123100000010000000000000BRCAMBACNOR4131
012024102302CAML3       010CAMIL       ON      NM   R$  000000000081200000000008150000000000803000000000080700000000008030000000000803000000000080501018000000000000387500000000000312844800000000000000009999123100000010000000000000BRCAMLACNOR3129
012024102302DASA3       010DASA        ON      NM   R$  000000000026800000000002720000000000264000000000026700000000002680000000000267000000000026801199000000000000512600000000000137118300000000000000009999123100000010000000000000BRDASAACNOR1123
012024102302FRAS3       010FRAS-LE     ON      N1   R$  000000000223300000000022440000000002223000000000223600000000022440000000002228000000000224400831000000000000160100000000000357988400000000000000009999123100000010000000000000BRFRASACNOR0160
012024102302FRIO3       010METALFRIO   ON      NM   R$  000000001200000000000147000000000012000000000001426400000000147000000000014700000000001500000017000000000000001700000000000024250000000000000000009999123100000010000000000000BRFRIOACNOR2111
012024102302DESK3       010DESKTOP     ON      NM   R$  000000000129500000000013220000000001286000000000130200000000013100000000001310000000000131900412000000000000067500000000000087915900000000000000009999123100000010000000000000BRDESKACNOR2104
012024102302DEXP3       010DEXXOS PAR  ON      N1   R$  000000000090600000000009060000000000880000000000089300000000008800000000000880000000000089000271000000000000036700000000000032779200000000000000009999123100000010000000000000BRDEXPACNOR1105
012024102302DEXP4       010DEXXOS PAR  PN      N1   R$  000000000090000000000009000000000000897000000000089800000000008970000000000878000000000089700002000000000000000200000000000000179700000000000000009999123100000010000000000000BRDEXPACNPR8105
012024102302DIRR3       010DIRECIONAL  ON      NM   R$  000000000299000000000030190000000002956000000000298400000000030190000000003005000000000301905282000000000001308000000000003904364100000000000000009999123100000010000000000000BRDIRRACNOR0119
012024102302BRIT3       010BRISANET    ON      NM   R$  000000000030000000000003010000000000297000000000029800000000002980000000000297000000000029900408000000000000401800000000000120110600000000000000009999123100000010000000000000BRBRITACNOR0103
012024102302BRKM3       010BRASKEM     ON      N1   R$  000000000175000000000017510000000001720000000000173300000000017290000000001729000000000174900052000000000000007400000000000012824700000000000000009999123100000010000000000000BRBRKMACNOR1119
012024102302BRKM5       010BRASKEM     PNA     N1   R$  000000000177000000000017790000000001751000000000176400000000017700000000001768000000000177106465000000000002582400000000004557175600000000000000009999123100000010000000000000BRBRKMACNPA4121
012024102302FIQE3       010UNIFIQUE    ON      NM   R$  000000000038500000000003870000000000380000000000038300000000003800000000000380000000000038300310000000000000177400000000000068062000000000000000009999123100000010000000000000BRFIQEACNOR5107
012024102302FLRY3       010FLEURY      ON      NM   R$  000000000150300000000015120000000001490000000000150400000000015100000000001503000000000151107003000000000002868800000000004316659300000000000000009999123100000010000000000000BRFLRYACNOR5139
012024102302CLSA3       010CLEARSALE   ON      NM   R$  000000000093400000000009460000000000934000000000093800000000009440000000000938000000000094401350000000000001216800000000001142053200000000000000009999123100000010000000000000BRCLSAACNOR0100
012024102302CLSC4       010CELESC      PN      N2   R$  000000000786600000000079320000000007853000000000787400000000079170000000007866000000000793000015000000000000001500000000000011812000000000000000009999123100000010000000000000BRCLSCACNPR3132
012024102302CMIG3       010CEMIG       ON      N1   R$  000000000140600000000014270000000001403000000000141300000000014160000000001414000000000141600690000000000000152400000000000215357300000000000000009999123100000010000000000000BRCMIGACNOR6244
012024102302CMIG4       010CEMIG       PN      N1   R$  000000000110300000000011060000000001096000000000110200000000011060000000001105000000000110613534000000000009181200000000010118793000000000000000009999123100000010000000000000BRCMIGACNPR3245
012024102302CMIN3       010CSNMINERACAOON      N2   R$  000000000058800000000005920000000000585000000000058700000000005850000000000585000000000058605209000000000004519500000000002654334500000000000000009999123100000010000000000000BRCMINACNOR2112
012024102302DMVF3       010D1000VFARMA ON      NM   R$  000000000062600000000006390000000000625000000000062900000000006310000000000630000000000063100180000000000000037000000000000023307000000000000000009999123100000010000000000000BRDMVFACNOR9100
012024102302DOTZ3       010DOTZ SA     ON      NM   R$  000000000055800000000005580000000000537000000000054700000000005490000000000545000000000054900056000000000000013400000000000007334300000000000000009999123100000010000000000000BRDOTZACNOR7101
012024102302DTCY3       010DTCOM-DIRECTON           R$  000000000038000000000003800000000000380000000000038000000000003800000000000370000000000042000002000000000000000700000000000000266000000000000000009999123100000010000000000000BRDTCYACNOR5109
012024102302DXCO3       010DEXCO       ON      NM   R$  000000000080100000000008110000000000793000000000079800000000007970000000000797000000000079804926000000000001777300000000001418723100000000000000009999123100000010000000000000BRDXCOACNOR8105
012024102302EALT3       010ACO ALTONA  ON           R$  000000000149900000000015400000000001499000000000152300000000015400000000001450000000000154000004000000000000000500000000000000761800000000000000009999123100000010000000000000BREALTACNOR4138
012024102302EALT4       010ACO ALTONA  PN           R$  000000000134500000000013560000000001300000000000131900000000013500000000001350000000000135400071000000000000015400000000000020321200000000000000009999123100000010000000000000BREALTACNPR1138
012024102302ECOR3       010ECORODOVIAS ON      NM   R$  000000000068700000000007100000000000681000000000069700000000007100000000000708000000000071006955000000000004357500000000003040979500000000000000009999123100000010000000000000BRECORACNOR8120
012024102302HAGA3       010HAGA S/A    ON           R$  000000000025000000000002580000000000250000000000025500000000002580000000000254000000000025800003000000000000000300000000000000076500000000000000009999123100000010000000000000BRHAGAACNOR7103
012024102302HAGA4       010HAGA S/A    PN           R$  000000000012900000000001320000000000127000000000012800000000001300000000000128000000000013000021000000000000009000000000000001158700000000000000009999123100000010000000000000BRHAGAACNPR4103
012024102302HAPV3       010HAPVIDA     ON      NM   R$  000000000036400000000003830000000000364000000000037500000000003810000000000380000000000038123914000000000094597700000000035511838600000000000000009999123100000010000000000000BRHAPVACNOR4115
012024102302MILS3       010MILLS       ON      NM   R$  000000000104800000000010560000000001040000000000104600000000010410000000001040000000000104602327000000000000942300000000000985781500000000000000009999123100000010000000000000BRMILSACNOR2128
012024102302RSUL4       010RIOSULENSE  PN           R$  000000000611000000000061200000000006000000000000606700000000060770000000006000000000000611900013000000000000001900000000000011528000000000000000009999123100000010000000000000BRRSULACNPR3114
012024102302UNIP5       010UNIPAR      PNA          R$  000000000470400000000048000000000004701000000000473500000000048000000000004651000000000487400006000000000000000600000000000002841000000000000000009999123100000010000000000000BRUNIPACNPA0208
012024102302UNIP6       010UNIPAR      PNB          R$  000000000456100000000045840000000004520000000000454500000000045250000000004524000000000452700960000000000000141600000000000643684800000000000000009999123100000010000000000000BRUNIPACNPB8206
012024102302USIM3       010USIMINAS    ON      N1   R$  000000000060500000000006130000000000598000000000060600000000006080000000000608000000000060900576000000000000272300000000000165082200000000000000009999123100000010000000000000BRUSIMACNOR3167
012024102302USIM5       010USIMINAS    PNA     N1   R$  000000000061000000000006310000000000610000000000062400000000006270000000000625000000000062716259000000000012053000000000007524418000000000000000009999123100000010000000000000BRUSIMACNPA6169
012024102302VLID3       010VALID       ON      NM   R$  000000000226600000000023210000000002232000000000229200000000023210000000002305000000000232101808000000000000278500000000000638392300000000000000009999123100000010000000000000BRVLIDACNOR5144
012024102302VSTE3       010VESTE       ON      NM   R$  000000000097600000000009850000000000976000000000097500000000009850000000000976000000000098500007000000000000001700000000000001658100000000000000009999123100000010000000000000BRVSTEACNOR5103
012024102302VTRU3       010VITRUEDUCA  ON      NM   R$  000000000090100000000009010000000000883000000000089100000000008950000000000895000000000089600461000000000000132000000000000117714400000000000000009999123100000010000000000000BRVTRUACNOR3100
012024102302VULC3       010VULCABRAS   ON  ED  NM   R$  000000000162400000000016290000000001612000000000161900000000016190000000001619000000000162002342000000000000479600000000000776764200000000000000009999123100000010000000000000BRVULCACNOR2163
012024102302VVEO3       010VIVEO       ON      NM   R$  000000000019100000000001910000000000183000000000018500000000001840000000000184000000000018502357000000000001669600000000000309241100000000000000009999123100000010000000000000BRVVEOACNOR0104
012024102302WEGE3       010WEG         ON      NM   R$  000000000554500000000056550000000005512000000000561200000000056200000000005615000000000562117778000000000004913300000000027573878800000000000000009999123100000010000000000000BRWEGEACNOR0225
012024102302PETZ3       010PETZ        ON      NM   R$  000000000047200000000004750000000000466000000000047000000000004690000000000469000000000047004518000000000003508900000000001650569500000000000000009999123100000010000000000000BRPETZACNOR2110
012024102302BIOM3       010BIOMM       ON      MA   R$  000000000088000000000009080000000000879000000000089600000000009060000000000895000000000090600249000000000000069200000000000062012900000000000000009999123100000010000000000000BRBIOMACNOR2112
012024102302BLAU3       010BLAU        ON      NM   R$  000000000142400000000014260000000001376000000000140200000000014240000000001416000000000142400970000000000000333000000000000466894000000000000000009999123100000010000000000000BRBLAUACNOR8115
012024102302BRAV3       010BRAVA       ON      NM   R$  000000000170900000000017220000000001694000000000170400000000017040000000001704000000000170608386000000000004696100000000008005241200000000000000009999123100000010000000000000BRBRAVACNOR3100
012024102302CSED3       010CRUZEIRO EDUON      NM   R$  000000000031900000000003250000000000313000000000032000000000003200000000000320000000000032300381000000000000282300000000000090550800000000000000009999123100000010000000000000BRCSEDACNOR9105
012024102302CSMG3       010COPASA      ON      NM   R$  000000000223000000000022390000000002207000000000222100000000022280000000002220000000000222804733000000000000948000000000002105620900000000000000009999123100000010000000000000BRCSMGACNOR5175
012024102302CSNA3       010SID NACIONALON           R$  000000000113900000000011570000000001130000000000114400000000011460000000001145000000000114707900000000000004871200000000005574295800000000000000009999123100000010000000000000BRCSNAACNOR6261
012024102302ENGI11      010ENERGISA    UNT     N2   R$  000000000429700000000043220000000004222000000000426500000000042850000000004280000000000428614260000000000003499800000000014926675800000000000000009999123100000010000000000000BRENGICDAM16136
012024102302ENGI3       010ENERGISA    ON      N2   R$  000000000130500000000013050000000001265000000000127800000000012780000000001263000000000129900030000000000000004100000000000005241900000000000000009999123100000010000000000000BRENGIACNOR0146
012024102302ENGI4       010ENERGISA    PN      N2   R$  000000000075500000000007570000000000742000000000074800000000007460000000000746000000000075800045000000000000006800000000000005088000000000000000009999123100000010000000000000BRENGIACNPR7142
012024102302ENJU3       010ENJOEI      ON      NM   R$  000000000012300000000001240000000000121000000000012100000000001230000000000122000000000012301501000000000000734600000000000089547400000000000000009999123100000010000000000000BRENJUACNOR9100
012024102302EPAR3       010EMBPAR S/A  ON           R$  000000000057400000000005760000000000552000000000056100000000005660000000000561000000000056600016000000000000002500000000000001402800000000000000009999123100000010000000000000BREPARACNOR9105
012024102302EQMA3B      010EQTLMARANHAOON      MB   R$  000000000235100000000023990000000002251000000000228300000000023990000000002271000000000242800008000000000000001200000000000002740600000000000000009999123100000010000000000000BREQMAACNOR8108
012024102302EQPA3       010EQTL PARA   ON           R$  000000000058500000000005890000000000583000000000058600000000005880000000000583000000000058800026000000000000006900000000000004047100000000000000009999123100000010000000000000BREQPAACNOR1111
012024102302EQTL3       010EQUATORIAL  ON      NM   R$  000000000323100000000032390000000003169000000000319100000000031960000000003196000000000319825792000000000007713500000000024615784500000000000000009999123100000010000000000000BREQTLACNOR0131
012024102302IFCM3       010INFRACOMM   ON      NM   R$  000000000001300000000000140000000000012000000000001300000000000140000000000013000000000001400667000000000005547200000000000074017100000000000000009999123100000010000000000000BRIFCMACNOR8101
012024102302IGTI11      010IGUATEMI S.AUNT     N1   R$  000000000210100000000021140000000002081000000000209800000000021140000000002109000000000211411931000000000002174000000000004562945000000000000000009999123100000010000000000000BRIGTICDAM16106
012024102302IGTI3       010IGUATEMI S.AON      N1   R$  000000000025400000000002580000000000253000000000025400000000002550000000000254000000000025500087000000000000030000000000000007627100000000000000009999123100000010000000000000BRIGTIACNOR8106
012024102302INEP3       010INEPAR      ON           R$  000000000016400000000001680000000000162000000000016300000000001620000000000161000000000016200070000000000000037600000000000006155400000000000000009999123100000010000000000000BRINEPACNOR1143
012024102302INEP4       010INEPAR      PN           R$  000000000016700000000001720000000000165000000000016700000000001650000000000165000000000016900047000000000000012400000000000002073900000000000000009999123100000010000000000000BRINEPACNPR8143
012024102302INTB3       010INTELBRAS   ON      NM   R$  000000000199400000000020230000000001974000000000200600000000020200000000002009000000000202102197000000000000406200000000000815105800000000000000009999123100000010000000000000BRINTBACNOR9112
012024102302IRBR3       010IRBBRASIL REON      NM   R$  000000000428000000000048150000000004268000000000456200000000047710000000004771000000000477513111000000000003396200000000015496393800000000000000009999123100000010000000000000BRIRBRACNOR4111
012024102302LUPA3       010LUPATECH    ON      NM   R$  000000000013900000000001710000000000138000000000015600000000001530000000000153000000000015400704000000000001054000000000000164925800000000000000009999123100000010000000000000BRLUPAACNOR8112
012024102302LVTC3       010WDC NETWORKSON      NM   R$  000000000036400000000003680000000000360000000000036300000000003640000000000358000000000036500029000000000000007700000000000002801100000000000000009999123100000010000000000000BRLVTCACNOR4102
012024102302LWSA3       010LWSA        ON      NM   R$  000000000044000000000004460000000000426000000000043400000000004280000000000428000000000042911946000000000004875200000000002117482300000000000000009999123100000010000000000000BRLWSAACNOR8103
012024102302ODPV3       010ODONTOPREV  ON      NM   R$  000000000105800000000010730000000001049000000000105700000000010550000000001052000000000105904009000000000000838100000000000886118800000000000000009999123100000010000000000000BRODPVACNOR4204
012024102302OFSA3       010OUROFINO S/AON      NM   R$  000000000216000000000022000000000002150000000000216000000000021610000000002160000000000226200007000000000000010200000000000022040900000000000000009999123100000010000000000000BROFSAACNOR7118
012024102302ONCO3       010ONCOCLINICASON      NM   R$  000000000045900000000004730000000000455000000000046600000000004660000000000465000000000046601008000000000000923800000000000430689200000000000000009999123100000010000000000000BRONCOACNOR6101
012024102302OPCT3       010OCEANPACT   ON      NM   R$  000000000064400000000006550000000000639000000000065000000000006480000000000648000000000064902634000000000000538200000000000350266300000000000000009999123100000010000000000000BROPCTACNOR0100
012024102302ORVR3       010ORIZON      ON      NM   R$  000000000477700000000047910000000004725000000000475900000000047450000000004745000000000474902322000000000000725500000000003453148200000000000000009999123100000010000000000000BRORVRACNOR0101
012024102302PATI3       010PANATLANTICAON  ED       R$  000000000275400000000027540000000002754000000000275400000000027540000000002756000000000300000001000000000000000100000000000000275400000000000000009999123100000010000000000000BRPATIACNOR6067
012024102302PCAR3       010P.ACUCAR-CBDON      NM   R$  000000000032200000000003350000000000321000000000032800000000003320000000000331000000000033205485000000000012842400000000004220973600000000000000009999123100000010000000000000BRPCARACNOR3167
012024102302NEOE3       010NEOENERGIA  ON      NM   R$  000000000190000000000019590000000001867000000000190700000000019190000000001919000000000192205214000000000001393500000000002657809800000000000000009999123100000010000000000000BRNEOEACNOR3123
012024102302NGRD3       010NEOGRID     ON      NM   R$  000000000270000000000027010000000002501000000000257100000000025010000000002501000000000251400128000000000000017800000000000045766100000000000000009999123100000010000000000000BRNGRDACNOR3106
012024102302NINJ3       010GETNINJAS   ON      NM   R$  000000000045200000000004580000000000452000000000045200000000004550000000000454000000000045600016000000000000002100000000000000951100000000000000009999123100000010000000000000BRNINJACNOR5101
012024102302NTCO3       010GRUPO NATURAON      NM   R$  000000000140500000000014220000000001392000000000140000000000014060000000001398000000000140720897000000000013076600000000018318042300000000000000009999123100000010000000000000BRNTCOACNOR5106
012024102302AZZA3       010AZZAS 2154  ON      NM   R$  000000000399500000000040430000000003970000000000401100000000040400000000004021000000000404003551000000000001003000000000004023757900000000000000009999123100000010000000000000BRAZZAACNOR9100
012024102302BBSE3       010BBSEGURIDADEON      NM   R$  000000000341100000000034390000000003405000000000342200000000034320000000003428000000000343215543000000000005137200000000017583111500000000000000009999123100000010000000000000BRBBSEACNOR5125
012024102302BEEF3       010MINERVA     ON      NM   R$  000000000055200000000005590000000000546000000000055100000000005560000000000556000000000055708167000000000007845400000000004330312000000000000000009999123100000010000000000000BRBEEFACNOR6116
012024102302TOTS3       010TOTVS       ON      NM   R$  000000000286500000000028890000000002846000000000286900000000028670000000002864000000000287011699000000000002179900000000006255784800000000000000009999123100000010000000000000BRTOTSACNOR8145
012024102302TPIS3       010TRIUNFO PARTON      NM   R$  000000000067000000000006950000000000663000000000068000000000006750000000000671000000000067500234000000000000082200000000000055916100000000000000009999123100000010000000000000BRTPISACNOR8118
012024102302TRAD3       010TC          ON      NM   R$  000000000060100000000006100000000000575000000000058800000000005750000000000575000000000057700781000000000000351600000000000206781300000000000000009999123100000010000000000000BRTRADACNOR3102
012024102302TRIS3       010TRISUL      ON      NM   R$  000000000052000000000005240000000000517000000000052000000000005190000000000518000000000051900928000000000000271300000000000141107300000000000000009999123100000010000000000000BRTRISACNOR4118
012024102302TRPL3       010TRAN PAULISTON      N1   R$  000000000310100000000031010000000003068000000000308600000000030890000000003068000000000310100016000000000000001700000000000005246600000000000000009999123100000010000000000000BRTRPLACNOR4185
012024102302TRPL4       010TRAN PAULISTPN      N1   R$  000000000244100000000024450000000002428000000000243600000000024400000000002439000000000244004510000000000001177500000000002869277100000000000000009999123100000010000000000000BRTRPLACNPR1185
012024102302TTEN3       0103TENTOS     ON      NM   R$  000000000102200000000010660000000001020000000000104800000000010610000000001058000000000106104060000000000001075100000000001127628100000000000000009999123100000010000000000000BRTTENACNOR0103
012024102302BPAC11      010BTGP BANCO  UNT     N2   R$  000000000322000000000032360000000003182000000000321200000000032270000000003227000000000322825797000000000007670900000000024644673500000000000000009999123100000010000000000000BRBPACUNT006119
012024102302BPAC3       010BTGP BANCO  ON      N2   R$  000000000153000000000015300000000001498000000000151600000000015110000000001490000000000155600029000000000000004000000000000006065300000000000000009999123100000010000000000000BRBPACACNOR7134
012024102302BPAC5       010BTGP BANCO  PNA     N2   R$  000000000084600000000008500000000000841000000000084300000000008500000000000845000000000085700026000000000000003700000000000003121100000000000000009999123100000010000000000000BRBPACACNPA0134
012024102302CPFE3       010CPFL ENERGIAON      NM   R$  000000000326100000000032900000000003255000000000327800000000032810000000003280000000000328404136000000000001743700000000005716455900000000000000009999123100000010000000000000BRCPFEACNOR0137
012024102302CPLE3       010COPEL       ON      N2   R$  000000000088400000000008860000000000871000000000087800000000008810000000000878000000000088107904000000000005599900000000004918631800000000000000009999123100000010000000000000BRCPLEACNOR8150
012024102302CPLE6       010COPEL       PNB     N2   R$  000000000098800000000009880000000000971000000000098100000000009850000000000985000000000098619043000000000017669500000000017350702700000000000000009999123100000010000000000000BRCPLEACNPB9147
012024102302JHSF3       010JHSF PART   ON      NM   R$  000000000043400000000004400000000000433000000000043600000000004400000000000437000000000044001562000000000001340100000000000585253500000000000000009999123100000010000000000000BRJHSFACNOR2140
012024102302JSLG3       010JSL         ON      NM   R$  000000000075800000000007610000000000748000000000075400000000007500000000000750000000000075200816000000000000232300000000000175376800000000000000009999123100000010000000000000BRJSLGACNOR2121
012024102302KEPL3       010KEPLER WEBERON      NM   R$  000000000091800000000009230000000000912000000000091600000000009170000000000917000000000091801966000000000000583500000000000534569900000000000000009999123100000010000000000000BRKEPLACNOR1064
012024102302KLBN11      010KLABIN S/A  UNT     N2   R$  000000000207500000000020840000000002056000000000206700000000020630000000002063000000000207008513000000000002338500000000004834516600000000000000009999123100000010000000000000BRKLBNCDAM18143
012024102302KLBN3       010KLABIN S/A  ON      N2   R$  000000000041500000000004180000000000412000000000041400000000004130000000000413000000000041500306000000000000105300000000000043656300000000000000009999123100000010000000000000BRKLBNACNOR2171
012024102302KLBN4       010KLABIN S/A  PN      N2   R$  000000000041400000000004160000000000411000000000041200000000004130000000000412000000000041300938000000000000687200000000000283643600000000000000009999123100000010000000000000BRKLBNACNPR9171
012024102302ATOM3       010ATOMPAR     ON           R$  000000000037600000000003900000000000354000000000037300000000003850000000000373000000000038500204000000000000085400000000000031897300000000000000009999123100000010000000000000BRATOMACNOR1106
012024102302AURE3       010AUREN       ON      NM   R$  000000000101700000000010220000000001009000000000101500000000010160000000001016000000000101806933000000000002906900000000002951296000000000000000009999123100000010000000000000BRAUREACNOR9104
012024102302AVLL3       010ALPHAVILLE  ON      NM   R$  000000000028600000000002950000000000286000000000029000000000002950000000000285000000000029500005000000000000000600000000000000174000000000000000009999123100000010000000000000BRAVLLACNOR5103
012024102302AZEV3       010AZEVEDO     ON           R$  000000000012400000000001270000000000122000000000012400000000001260000000000124000000000012600261000000000000340500000000000042261100000000000000009999123100000010000000000000BRAZEVACNOR0121
012024102302AZEV4       010AZEVEDO     PN           R$  000000000012000000000001270000000000120000000000012400000000001260000000000125000000000012601123000000000002478400000000000307373300000000000000009999123100000010000000000000BRAZEVACNPR7121
012024102302AZUL4       010AZUL        PN      N2   R$  000000000057000000000005740000000000546000000000055400000000005480000000000547000000000054812208000000000019440000000000010788901400000000000000009999123100000010000000000000BRAZULACNPR4103
012024102302COCE5       010COELCE      PNA          R$  000000000265500000000027190000000002654000000000268600000000027190000000002682000000000272000025000000000000003600000000000009672900000000000000009999123100000010000000000000BRCOCEACNPA3147
012024102302COGN3       010COGNA ON    ON      NM   R$  000000000013600000000001430000000000135000000000013900000000001420000000000141000000000014210995000000000030668500000000004276693300000000000000009999123100000010000000000000BRCOGNACNOR2105
012024102302PGMN3       010PAGUE MENOS ON      NM   R$  000000000027900000000002820000000000277000000000027900000000002820000000000278000000000028200225000000000000121000000000000033780100000000000000009999123100000010000000000000BRPGMNACNOR8103
012024102302PINE3       010PINE        ON  EJ  N2   R$  000000000048700000000004870000000000470000000000047200000000004800000000000470000000000048000007000000000000002100000000000000992300000000000000009999123100000010000000000000BRPINEACNOR1152
012024102302PINE4       010PINE        PN  EJ  N2   R$  000000000046500000000004680000000000460000000000046200000000004610000000000461000000000046600307000000000000137000000000000063403400000000000000009999123100000010000000000000BRPINEACNPR8152
012024102302PLAS3       010PLASCAR PARTON           R$  000000000060000000000006000000000000600000000000060000000000006000000000000521000000000066900002000000000000000200000000000000120000000000000000009999123100000010000000000000BRPLASACNOR2106
012024102302PLPL3       010PLANOEPLANO ON      NM   R$  000000000136200000000013750000000001334000000000135600000000013750000000001369000000000137503200000000000000843800000000001144348900000000000000009999123100000010000000000000BRPLPLACNOR5104
012024102302PNVL3       010DIMED       ON      NM   R$  000000000098500000000010000000000000974000000000098400000000010000000000000992000000000100001364000000000000269300000000000264994300000000000000009999123100000010000000000000BRPNVLACNOR9208
012024102302POMO3       010MARCOPOLO   ON      N2   R$  000000000066600000000006660000000000654000000000066000000000006540000000000654000000000065902180000000000001207800000000000797759400000000000000009999123100000010000000000000BRPOMOACNOR0099
012024102302POMO4       010MARCOPOLO   PN      N2   R$  000000000088500000000008850000000000856000000000086500000000008590000000000858000000000085913636000000000007220900000000006250216200000000000000009999123100000010000000000000BRPOMOACNPR7099
012024102302PORT3       010WILSON SONS ON  ED  NM   R$  000000000161700000000016170000000001597000000000160300000000016010000000001600000000000160103038000000000002127000000000003411315100000000000000009999123100000010000000000000BRPORTACNOR8110
012024102302POSI3       010POSITIVO TECON      NM   R$  000000000061100000000006490000000000610000000000063700000000006480000000000646000000000064804798000000000002082100000000001326892100000000000000009999123100000010000000000000BRPOSIACNOR9116
012024102302PRIO3       010PETRORIO    ON      NM   R$  000000000414300000000041750000000004091000000000412600000000041200000000004117000000000412027401000000000007302100000000030135661400000000000000009999123100000010000000000000BRPRIOACNOR1107
012024102302ROMI3       010ROMI        ON      NM   R$  000000000098500000000010270000000000977000000000099900000000010080000000001008000000000101602090000000000000496000000000000495793500000000000000009999123100000010000000000000BRROMIACNOR8196
012024102302PTNT4       010PETTENATI   PN           R$  000000000064500000000006670000000000645000000000064700000000006600000000000634000000000066000015000000000000012200000000000007895800000000000000009999123100000010000000000000BRPTNTACNPR3047
012024102302QUAL3       010QUALICORP   ON      NM   R$  000000000021100000000002180000000000209000000000021300000000002170000000000215000000000021701860000000000003254600000000000694373900000000000000009999123100000010000000000000BRQUALACNOR6120
012024102302RADL3       010RAIADROGASILON      NM   R$  000000000249300000000025280000000002456000000000247500000000024650000000002465000000000246919870000000000005572600000000013797544700000000000000009999123100000010000000000000BRRADLACNOR0158
012024102302SMFT3       010SMART FIT   ON      NM   R$  000000000212100000000021440000000002110000000000212700000000021360000000002131000000000213606287000000000001546500000000003289803800000000000000009999123100000010000000000000BRSMFTACNOR1112
012024102302SMTO3       010SAO MARTINHOON      NM   R$  000000000258000000000026060000000002532000000000256000000000025700000000002570000000000257306471000000000001020500000000002613372500000000000000009999123100000010000000000000BRSMTOACNOR3127
012024102302CASH3       010MELIUZ      ON      NM   R$  000000000035000000000003520000000000345000000000034800000000003490000000000347000000000034900713000000000000392600000000000136708700000000000000009999123100000010000000000000BRCASHACNOR8107
012024102302CBAV3       010CBA         ON      NM   R$  000000000059100000000005930000000000581000000000058700000000005880000000000587000000000059004284000000000007067700000000004154619200000000000000009999123100000010000000000000BRCBAVACNOR5104
012024102302CCRO3       010CCR SA      ON      NM   R$  000000000120400000000012160000000001195000000000120500000000012050000000001205000000000120908015000000000005287900000000006373288000000000000000009999123100000010000000000000BRCCROACNOR2145
012024102302CXSE3       010CAIXA SEGURION      NM   R$  000000000143000000000014480000000001428000000000143900000000014380000000001437000000000143809423000000000002622100000000003775461100000000000000009999123100000010000000000000BRCXSEACNOR7107
012024102302CYRE3       010CYRELA REALTON      NM   R$  000000000212600000000021330000000002103000000000211900000000021300000000002124000000000213111367000000000003535200000000007494089000000000000000009999123100000010000000000000BRCYREACNOR7140
012024102302GGPS3       010GPS         ON      NM   R$  000000000177300000000018200000000001769000000000178700000000017870000000001786000000000178710504000000000003055900000000005462919300000000000000009999123100000010000000000000BRGGPSACNOR9103
012024102302GMAT3       010GRUPO MATEUSON      NM   R$  000000000073300000000007490000000000733000000000074200000000007440000000000742000000000074605852000000000003430900000000002547199200000000000000009999123100000010000000000000BRGMATACNOR7103
012024102302GOAU3       010GERDAU MET  ON      N1   R$  000000000101400000000010140000000001001000000000100600000000010010000000001001000000000100500232000000000000038300000000000038562800000000000000009999123100000010000000000000BRGOAUACNOR1268
012024102302GOAU4       010GERDAU MET  PN      N1   R$  000000000101500000000010160000000001006000000000100900000000010070000000001007000000000101006516000000000004633700000000004677558700000000000000009999123100000010000000000000BRGOAUACNPR8269
012024102302ITUB3       010ITAUUNIBANCOON      N1   R$  000000000304000000000030620000000003028000000000304200000000030620000000003060000000000306202357000000000000545800000000001660417800000000000000009999123100000010000000000000BRITUBACNOR4342
012024102302ITUB4       010ITAUUNIBANCOPN      N1   R$  000000000350100000000035400000000003500000000000352400000000035380000000003537000000000353830976000000000015353400000000054116380800000000000000009999123100000010000000000000BRITUBACNPR1342
012024102302AALR3       010ALLIAR      ON      NM   R$  000000000125300000000013370000000001240000000000129800000000013370000000001315000000000133700149000000000000034300000000000044527500000000000000009999123100000010000000000000BRAALRACNOR6102
012024102302ABCB4       010ABC BRASIL  PN      N2   R$  000000000213000000000021520000000002125000000000214000000000021520000000002142000000000215202134000000000000468400000000001002683900000000000000009999123100000010000000000000BRABCBACNPR4146
012024102302ABEV3       010AMBEV S/A   ON           R$  000000000127400000000012820000000001270000000000127400000000012750000000001275000000000127617395000000000022384200000000028535305600000000000000009999123100000010000000000000BRABEVACNOR1128
012024102302GFSA3       010GAFISA      ON      NM   R$  000000000017000000000001750000000000167000000000017000000000001740000000000173000000000017401871000000000005416200000000000925831900000000000000009999123100000010000000000000BRGFSAACNOR3125
012024102302GGBR3       010GERDAU      ON      N1   R$  000000000168800000000017000000000001673000000000168400000000017000000000001696000000000170000548000000000000135500000000000228224500000000000000009999123100000010000000000000BRGGBRACNOR1193
012024102302GGBR4       010GERDAU      PN      N1   R$  000000000180500000000018150000000001791000000000180100000000017960000000001795000000000180020166000000000009536300000000017181835400000000000000009999123100000010000000000000BRGGBRACNPR8193
012024102302ITSA3       010ITAUSA      ON      N1   R$  000000000105700000000010650000000001052000000000105900000000010650000000001059000000000106600301000000000000081800000000000086667800000000000000009999123100000010000000000000BRITSAACNOR0443
012024102302ITSA4       010ITAUSA      PN      N1   R$  000000000105300000000010670000000001053000000000106100000000010670000000001063000000000106723197000000000016536500000000017552652500000000000000009999123100000010000000000000BRITSAACNPR7443
012024102302BMEB4       010MERCANTIL   PN      N1   R$  000000000378800000000038380000000003652000000000373100000000038380000000003811000000000384800294000000000000042900000000000160063700000000000000009999123100000010000000000000BRBMEBACNPR5211
012024102302BMGB4       010BANCO BMG   PN  EJ  N1   R$  000000000042000000000004220000000000412000000000041500000000004120000000000412000000000041400663000000000000562000000000000233659000000000000000009999123100000010000000000000BRBMGBACNPR0111
012024102302BMIN4       010MERC INVEST PN           R$  000000000160500000000016330000000001605000000000162800000000016210000000001620000000000164800009000000000000001000000000000001628800000000000000009999123100000010000000000000BRBMINACNPR1176
012024102302BMKS3       010BIC MONARK  ON           R$  000000003062000000000306200000000030620000000003056400000000306200000000030611000000003089900008000000000000000021000000000000641845000000000000009999123100000010000000000000BRBMKSACNOR9166
012024102302BMOB3       010BEMOBI TECH ON      NM   R$  000000000148500000000015250000000001477000000000150300000000015150000000001512000000000152000891000000000000164100000000000246747500000000000000009999123100000010000000000000BRBMOBACNOR7103
012024102302BOBR4       010BOMBRIL     PN           R$  000000000028500000000002970000000000276000000000028700000000002860000000000286000000000029000269000000000000059700000000000017168700000000000000009999123100000010000000000000BRBOBRACNPR3128
012024102302BRBI11      010BR PARTNERS UNT     N2   R$  000000000151000000000015260000000001500000000000151100000000015060000000001506000000000151001230000000000000285800000000000431884400000000000000009999123100000010000000000000BRBRBICDAM10110
012024102302RCSL3       010RECRUSUL    ON           R$  000000000042200000000004270000000000413000000000041900000000004160000000000416000000000041700928000000000000401000000000000168085700000000000000009999123100000010000000000000BRRCSLACNOR4134
012024102302RCSL4       010RECRUSUL    PN           R$  000000000015700000000001730000000000157000000000016400000000001640000000000164000000000016703732000000000004207700000000000694025000000000000000009999123100000010000000000000BRRCSLACNPR1134
012024102302RDNI3       010RNI         ON      NM   R$  000000000031400000000003140000000000307000000000030800000000003070000000000306000000000031000006000000000000000900000000000000277500000000000000009999123100000010000000000000BRRDNIACNOR9116
012024102302SNSY5       010SANSUY      PNA          R$  000000000051800000000005180000000000508000000000051300000000005080000000000494000000000050800002000000000000000200000000000000102600000000000000009999123100000010000000000000BRSNSYACNPA5111
012024102302SOJA3       010BOA SAFRA   ON      NM   R$  000000000118200000000011910000000001170000000000118300000000011910000000001182000000000119202456000000000000436500000000000516697400000000000000009999123100000010000000000000BRSOJAACNOR9106
012024102302SRNA3       010SERENA      ON      NM   R$  000000000082700000000008270000000000808000000000081300000000008200000000000820000000000082104324000000000001473900000000001199268300000000000000009999123100000010000000000000BRSRNAACNOR4100
012024102302RAPT4       010RANDON PART PN      N1   R$  000000000109100000000010950000000001085000000000109000000000010890000000001088000000000109003010000000000001078600000000001175772700000000000000009999123100000010000000000000BRRAPTACNPR4163
012024102302TASA3       010TAURUS ARMASON      N2   R$  000000000102500000000010290000000001000000000000101100000000010000000000001000000000000100700060000000000000009800000000000009913600000000000000009999123100000010000000000000BRTASAACNOR7104
012024102302TASA4       010TAURUS ARMASPN      N2   R$  000000000099400000000010000000000000964000000000098000000000009700000000000967000000000097001252000000000000251100000000000246287000000000000000009999123100000010000000000000BRTASAACNPR4104
012024102302TCSA3       010TECNISA     ON      NM   R$  000000000014500000000001510000000000139000000000014300000000001390000000000139000000000014000214000000000000133900000000000019241100000000000000009999123100000010000000000000BRTCSAACNOR3112
012024102302TECN3       010TECHNOS     ON      NM   R$  000000000055200000000005740000000000547000000000056400000000005600000000000560000000000056800354000000000000306700000000000173039100000000000000009999123100000010000000000000BRTECNACNOR6109
012024102302TELB3       010TELEBRAS    ON           R$  000000000140100000000014010000000001400000000000140000000000014000000000001366000000000140000002000000000000000300000000000000420100000000000000009999123100000010000000000000BRTELBACNOR2140
012024102302TELB4       010TELEBRAS    PN           R$  000000000091400000000009200000000000901000000000091100000000009010000000000900000000000091900016000000000000002600000000000002371000000000000000009999123100000010000000000000BRTELBACNPR9140
012024102302TEND3       010TENDA       ON      NM   R$  000000000142400000000014330000000001396000000000141200000000014330000000001424000000000143405593000000000001745000000000002465199300000000000000009999123100000010000000000000BRTENDACNOR4111
012024102302TFCO4       010TRACK FIELD PN      N2   R$  000000000105600000000010560000000001033000000000104800000000010510000000001042000000000105100450000000000000180800000000000189569600000000000000009999123100000010000000000000BRTFCOACNPR8115
012024102302TGMA3       010TEGMA       ON      NM   R$  000000000284900000000028860000000002815000000000286100000000028790000000002879000000000288501861000000000000413400000000001183056500000000000000009999123100000010000000000000BRTGMAACNOR7145
012024102302TIMS3       010TIM         ON      NM   R$  000000000170400000000017250000000001701000000000172000000000017230000000001719000000000172309048000000000004398600000000007566752600000000000000009999123100000010000000000000BRTIMSACNOR5118
012024102302VAMO3       010VAMOS       ON      NM   R$  000000000061600000000006490000000000616000000000063200000000006280000000000628000000000062918851000000000015384500000000009737050600000000000000009999123100000010000000000000BRVAMOACNOR7105
012024102302VBBR3       010VIBRA       ON      NM   R$  000000000220400000000022230000000002179000000000220800000000022190000000002216000000000221912598000000000005095100000000011253219400000000000000009999123100000010000000000000BRVBBRACNOR1109
012024102302STBP3       010SANTOS BRP  ON  ER  NM   R$  000000000128700000000012880000000001271000000000127800000000012750000000001275000000000127707711000000000008079800000000010329844500000000000000009999123100000010000000000000BRSTBPACNOR3132
012024102302SUZB3       010SUZANO S.A. ON      NM   R$  000000000575200000000058210000000005725000000000575500000000057550000000005755000000000576018317000000000004728500000000027215406200000000000000009999123100000010000000000000BRSUZBACNOR0130
012024102302YDUQ3       010YDUQS PART  ON      NM   R$  000000000103500000000010970000000001029000000000106900000000010790000000001078000000000107915525000000000007334500000000007841987700000000000000009999123100000010000000000000BRYDUQACNOR3105
012024102302ZAMP3       010ZAMP S.A.   ON           R$  000000000024300000000002500000000000243000000000024700000000002500000000000246000000000025000589000000000000331300000000000081843400000000000000009999123100000010000000000000BRZAMPACNOR5101
012024102302RAIL3       010RUMO S.A.   ON      NM   R$  000000000189000000000019070000000001882000000000189600000000019000000000001900000000000190123090000000000017921900000000033990852300000000000000009999123100000010000000000000BRRAILACNOR9105
012024102302SYNE3       010SYN PROP TECON      NM   R$  000000000080300000000008100000000000793000000000080300000000008070000000000807000000000080900655000000000000466600000000000375137700000000000000009999123100000010000000000000BRSYNEACNOR2103
012024102302RDOR3       010REDE D OR   ON      NM   R$  000000000294900000000029760000000002918000000000294100000000029360000000002935000000000294213045000000000003535600000000010399124500000000000000009999123100000010000000000000BRRDORACNOR8114
012024102302RECV3       010PETRORECSA  ON      NM   R$  000000000168500000000016990000000001678000000000168800000000016890000000001687000000000168905364000000000001782200000000003008900500000000000000009999123100000010000000000000BRRECVACNOR3107
012024102302REDE3       010REDE ENERGIAON           R$  000000000068100000000006840000000000680000000000068000000000006830000000000682000000000068300017000000000000003000000000000002041400000000000000009999123100000010000000000000BRREDEACNOR7128
012024102302RENT3       010LOCALIZA    ON      NM   R$  000000000422200000000042850000000004191000000000423300000000042370000000004237000000000424022761000000000007786800000000032964655500000000000000009999123100000010000000000000BRRENTACNOR4197
012024102302TUPY3       010TUPY        ON      NM   R$  000000000231000000000023390000000002295000000000231300000000023320000000002323000000000233202519000000000000568900000000001316307000000000000000009999123100000010000000000000BRTUPYACNOR1184
012024102302VITT3       010VITTIA      ON      NM   R$  000000000055700000000005600000000000547000000000055300000000005520000000000552000000000055401233000000000000217600000000000120341700000000000000009999123100000010000000000000BRVITTACNOR4107
012024102302VIVA3       010VIVARA S.A. ON      NM   R$  000000000253900000000025410000000002479000000000249500000000024880000000002488000000000248915998000000000003564900000000008894989000000000000000009999123100000010000000000000BRVIVAACNOR0107
012024102302VIVR3       010VIVER       ON      NM   R$  000000000017000000000001700000000000158000000000016200000000001600000000000159000000000016000213000000000000171200000000000027765900000000000000009999123100000010000000000000BRVIVRACNOR4123
012024102302VIVT3       010TELEF BRASILON           R$  000000000533100000000053860000000005325000000000535900000000053670000000005362000000000536706622000000000001141700000000006118962500000000000000009999123100000010000000000000BRVIVTACNOR0184
012024102302MTRE3       010MITRE REALTYON      NM   R$  000000000036000000000003650000000000360000000000036200000000003630000000000363000000000036400256000000000000240400000000000087141600000000000000009999123100000010000000000000BRMTREACNOR6115
012024102302MTSA4       010METISA      PN           R$  000000000357000000000035790000000003532000000000355000000000035320000000003532000000000357000013000000000000001700000000000006036300000000000000009999123100000010000000000000BRMTSAACNPR9073
012024102302TAEE11      010TAESA       UNT     N2   R$  000000000343400000000034370000000003415000000000342700000000034300000000003429000000000343104536000000000000875800000000003001594600000000000000009999123100000010000000000000BRTAEECDAM10148
012024102302TAEE3       010TAESA       ON      N2   R$  000000000114900000000011490000000001136000000000114100000000011400000000001140000000000114500259000000000000042800000000000048843300000000000000009999123100000010000000000000BRTAEEACNOR9148
012024102302TAEE4       010TAESA       PN      N2   R$  000000000115200000000011520000000001145000000000114800000000011500000000001150000000000115200377000000000000094300000000000108260100000000000000009999123100000010000000000000BRTAEEACNPR6148
012024102302PRNR3       010PRINER      ON      NM   R$  000000000124100000000012470000000001229000000000123700000000012410000000001240000000000124100999000000000000203200000000000251507400000000000000009999123100000010000000000000BRPRNRACNOR4109
012024102302PSSA3       010PORTO SEGUROON      NM   R$  000000000370000000000037890000000003698000000000374200000000037830000000003770000000000378310077000000000003097000000000011590615500000000000000009999123100000010000000000000BRPSSAACNOR7156
012024102302PTBL3       010PORTOBELLO  ON      NM   R$  000000000044400000000004460000000000434000000000044000000000004340000000000434000000000043600791000000000000190900000000000084058200000000000000009999123100000010000000000000BRPTBLACNOR8132
012024102302MULT3       010MULTIPLAN   ON      N2   R$  000000000251700000000025440000000002505000000000252700000000025440000000002520000000000254416995000000000004559200000000011522634800000000000000009999123100000010000000000000BRMULTACNOR5139
012024102302MYPK3       010IOCHP-MAXIONON      NM   R$  000000000102200000000010290000000001012000000000101900000000010250000000001018000000000102502217000000000000408300000000000416187800000000000000009999123100000010000000000000BRMYPKACNOR7156
012024102302RAIZ4       010RAIZEN      PN      N2   R$  000000000028400000000002880000000000280000000000028400000000002870000000000287000000000028813481000000000015165900000000004318573700000000000000009999123100000010000000000000BRRAIZACNPR6111
012024102302RANI3       010IRANI       ON      NM   R$  000000000073300000000007370000000000725000000000073100000000007330000000000733000000000073402148000000000000891100000000000651698200000000000000009999123100000010000000000000BRRANIACNOR5073
012024102302RAPT3       010RANDON PART ON      N1   R$  000000000092900000000009300000000000920000000000092500000000009260000000000924000000000092600045000000000000009000000000000008333700000000000000009999123100000010000000000000BRRAPTACNOR7163
012024102302AERI3       010AERIS       ON      NM   R$  000000000062700000000006360000000000623000000000062800000000006250000000000625000000000062900290000000000000076200000000000047880500000000000000009999123100000010000000000000BRAERIACNOR4102
012024102302AESB3       010AES BRASIL  ON      NM   R$  000000000117800000000011800000000001177000000000117900000000011790000000001178000000000117902332000000000015675700000000018483688100000000000000009999123100000010000000000000BRAESBACNOR7107
012024102302AGRO3       010BRASILAGRO  ON  ED  NM   R$  000000000232000000000023380000000002297000000000231000000000023090000000002308000000000230902947000000000000508500000000001174853000000000000000009999123100000010000000000000BRAGROACNOR7115
012024102302AHEB3       010SPTURIS     ON           R$  000000000380000000000038000000000003800000000000380000000000038000000000000000000000000380000002000000000000000400000000000001520000000000000000009999123100000010000000000000BRAHEBACNOR0106
012024102302BRSR6       010BANRISUL    PNB     N1   R$  000000000110900000000011130000000001102000000000110600000000011130000000001108000000000111403009000000000000804400000000000890186300000000000000009999123100000010000000000000BRBRSRACNPB4192
012024102302BSLI4       010BRB BANCO   PN           R$  000000000089000000000009150000000000890000000000090200000000009150000000000888000000000091400002000000000000000200000000000000180500000000000000009999123100000010000000000000BRBSLIACNPR2194
012024102302ALLD3       010ALLIED      ON      NM   R$  000000000076100000000007620000000000747000000000075600000000007620000000000759000000000076200106000000000000032000000000000024221100000000000000009999123100000010000000000000BRALLDACNOR3106
012024102302ALOS3       010ALLOS       ON  ED  NM   R$  000000000218100000000022010000000002172000000000218900000000021980000000002198000000000219910804000000000003601500000000007884461500000000000000009999123100000010000000000000BRALOSACNOR5103
012024102302ALPA3       010ALPARGATAS  ON      N1   R$  000000000065100000000006600000000000649000000000065300000000006500000000000650000000000067400007000000000000002000000000000001307200000000000000009999123100000010000000000000BRALPAACNOR0231
012024102302ALPA4       010ALPARGATAS  PN      N1   R$  000000000069700000000007140000000000697000000000070500000000007090000000000709000000000071003790000000000001259300000000000887990200000000000000009999123100000010000000000000BRALPAACNPR7232
012024102302ALPK3       010ESTAPAR     ON      NM   R$  000000000028300000000002950000000000283000000000028800000000002900000000000288000000000029000289000000000000218800000000000063216500000000000000009999123100000010000000000000BRALPKACNOR9101
012024102302ALUP11      010ALUPAR      UNT     N2   R$  000000000289800000000029090000000002877000000000288600000000028910000000002883000000000289102871000000000000629200000000001816416800000000000000009999123100000010000000000000BRALUPCDAM15120
012024102302ALUP3       010ALUPAR      ON      N2   R$  000000000098500000000009900000000000981000000000098400000000009810000000000981000000000100100017000000000000002700000000000002657500000000000000009999123100000010000000000000BRALUPACNOR8120
012024102302ALUP4       010ALUPAR      PN      N2   R$  000000000095000000000009530000000000943000000000094700000000009430000000000942000000000094700060000000000000008000000000000007581400000000000000009999123100000010000000000000BRALUPACNPR5120
012024102302BBDC3       010BRADESCO    ON      N1   R$  000000000131200000000013240000000001304000000000131500000000013200000000001317000000000132105034000000000004575600000000006018893000000000000000009999123100000010000000000000BRBBDCACNOR1776
012024102302BBDC4       010BRADESCO    PN      N1   R$  000000000150500000000015180000000001494000000000150600000000015120000000001510000000000151231079000000000019789900000000029814152200000000000000009999123100000010000000000000BRBBDCACNPR8776
012024102302BRSR3       010BANRISUL    ON      N1   R$  000000000130000000000013040000000001282000000000129300000000012990000000001295000000000130000065000000000000008600000000000011127000000000000000009999123100000010000000000000BRBRSRACNOR3189
012024102307SEQL3       010SEQUOIA LOG ON      NM   R$  000000000052000000000005490000000000438000000000048700000000004380000000000438000000000044006286000000000004533300000000002211722500000000000000009999123100000010000000000000BRSEQLACNOR2103
012024102307NUTR3       010NUTRIPLANT  ON      MA   R$  000000000045200000000004520000000000442000000000044600000000004420000000000434000000000044900021000000000000002700000000000001204600000000000000009999123100000010000000000000BRNUTRACNOR0104
012024102308CTSA3       010SANTANENSE  ON           R$  000000000020400000000002040000000000204000000000020400000000002040000000000204000000000020500004000000000000001500000000000000306000000000000000009999123100000010000000000000BRCTSAACNOR3062
012024102308CTSA4       010SANTANENSE  PN           R$  000000000011100000000001110000000000111000000000011100000000001110000000000110000000000011100023000000000000009100000000000001010100000000000000009999123100000010000000000000BRCTSAACNPR0062
012024102308LIGT3       010LIGHT S/A   ON      NM   R$  000000000064600000000006490000000000638000000000064400000000006440000000000644000000000064501632000000000000285300000000000183913600000000000000009999123100000010000000000000BRLIGTACNOR2124
012024102308HOOT4       010HOTEIS OTHONPN           R$  000000000022600000000002270000000000226000000000022600000000002270000000000227000000000022800009000000000000002300000000000000520100000000000000009999123100000010000000000000BRHOOTACNPR9015
012024102308AMER3       010AMERICANAS  ON      NM   R$  000000000038400000000003840000000000377000000000037900000000003770000000000376000000000037701225000000000000765400000000000290620900000000000000009999123100000010000000000000BRAMERACNOR6103
012024102308RSID3       010ROSSI RESID ON      NM   R$  000000000029500000000002960000000000286000000000029000000000002930000000000293000000000029500132000000000000040600000000000011793800000000000000009999123100000010000000000000BRRSIDACNOR8120
012024102308OIBR3       010OI          ON      N1   R$  000000000043300000000004530000000000430000000000044200000000004510000000000448000000000045100626000000000000326400000000000144430600000000000000009999123100000010000000000000BROIBRACNOR1112
012024102308OIBR4       010OI          PN      N1   R$  000000000108700000000010930000000001040000000000106500000000010470000000001047000000000108000026000000000000005300000000000005649100000000000000009999123100000010000000000000BROIBRACNPR8111
012024102308OSXB3       010OSX BRASIL  ON      NM   R$  000000000045900000000004590000000000438000000000044500000000004420000000000442000000000045500022000000000000003400000000000001516000000000000000009999123100000010000000000000BROSXBACNOR8109
012024102308NEXP3       010NEXPE       ON           R$  000000000044500000000004480000000000440000000000044500000000004480000000000421000000000044800011000000000000002000000000000000890900000000000000009999123100000010000000000000BRNEXPACNOR0101
012024102308JFEN3       010JOAO FORTES ON           R$  000000000002700000000000280000000000026000000000002600000000000270000000000026000000000002700126000000000000622600000000000016751100000000000000009999123100000010000000000000BRJFENACNOR0059
012024102308ATMP3       010ATMASA      ON           R$  000000000013700000000001430000000000136000000000013700000000001370000000000137000000000013900026000000000000040800000000000005627200000000000000009999123100000010000000000000BRATMPACNOR8100
012024102308PMAM3       010PARANAPANEMAON      NM   R$  000000000012000000000001200000000000107000000000011100000000001070000000000107000000000010901015000000000000437000000000000048841800000000000000009999123100000010000000000000BRPMAMACNOR3040
012024102308RNEW11      010RENOVA      UNT     N2   R$  000000000033600000000003360000000000327000000000032800000000003280000000000327000000000034000029000000000000012700000000000004177800000000000000009999123100000010000000000000BRRNEWCDAM15110
012024102308RNEW3       010RENOVA      ON      N2   R$  000000000011200000000001120000000000108000000000011000000000001090000000000108000000000010900116000000000000074300000000000008181100000000000000009999123100000010000000000000BRRNEWACNOR8110
012024102308RNEW4       010RENOVA      PN      N2   R$  000000000011200000000001120000000000107000000000010800000000001090000000000108000000000010900223000000000000340900000000000037066200000000000000009999123100000010000000000000BRRNEWACNPR5110
012024102308RPMG3       010PET MANGUINHON           R$  000000000030000000000003000000000000290000000000029300000000002950000000000295000000000030000085000000000000023100000000000006789600000000000000009999123100000010000000000000BRRPMGACNOR9194
012024102308AGXY3       010AGROGALAXY  ON      NM   R$  000000000005000000000000510000000000046000000000004700000000000470000000000046000000000004700303000000000000325900000000000015451500000000000000009999123100000010000000000000BRAGXYACNOR4103
012024102310MBLY1       010MOBLY       DIR ORD NM   R$  000000000001600000000000170000000000008000000000000900000000000080000000000008000000000001500012000000000000024200000000000000237200000000000000009999123100000010000000000000BRMBLYD01OR0100
012024102310HBSA1       010HIDROVIAS   DIR ORD NM   R$  000000000000200000000000050000000000002000000000000200000000000030000000000003000000000000400200000000000003327600000000000009561200000000000000009999123100000010000000000000BRHBSAD01OR5100
012024102310PINE1       010PINE        DIR ORD N2   R$  000000000007200000000000790000000000056000000000006700000000000650000000000060000000000007900021000000000000003800000000000000257800000000000000009999123100000010000000000000BRPINED04OR0150
012024102310PINE2       010PINE        DIR PRE N2   R$  000000000005700000000001090000000000057000000000008600000000000990000000000058000000000010000015000000000000004800000000000000413700000000000000009999123100000010000000000000BRPINED06PR2150
012024102310PMAM1       010PARANAPANEMADIR ORD NM   R$  000000000000100000000000010000000000001000000000000100000000000010000000000000000000000000100277000000000000786600000000000000786600000000000000009999123100000010000000000000BRPMAMD05OR9039
012024102312BRCO11      010FII BRESCO  CI           R$  000000001074400000000107910000000010566000000001062400000000106000000000010597000000001061604467000000000000021748000000000231058003000000000000009999123100000010000000000000BRBRCOCTF007161
012024102312BRCR11      010FII BC FUND CI           R$  000000000449700000000044970000000004464000000000447500000000044680000000004468000000000448503271000000000000025385000000000113614487000000000000009999123100000010000000000000BRBRCRCTF000271
012024102312CTXT11      010FII C TEXTILCI           R$  000000000071000000000007320000000000707000000000070900000000007120000000000707000000000071200013000000000000000101000000000000071616000000000000009999123100000010000000000000BRCTXTCTF014207
012024102312CVBI11      010FII VBI CRI CI           R$  000000000864000000000087000000000008528000000000862000000000085360000000008536000000000854002140000000000000020072000000000173025921000000000000009999123100000010000000000000BRCVBICTF001170
012024102312ERPA11      010FII EUROPA  CI           R$  000000001250000000000130000000000012500000000001266900000000130000000000011900000000001300000004000000000000000245000000000003104100000000000000009999123100000010000000000000BRERPACTF002133
012024102312EURO11      010FII EUROPAR CI           R$  000000002215200000000227500000000021900000000002219900000000223500000000021851000000002235000071000000000000000439000000000009745554000000000000009999123100000010000000000000BREUROCTF011363
012024102312EVBI11      010FII VBI CON CI  ER       R$  000000000096000000000009600000000000940000000000094200000000009400000000000926000000000094000035000000000000001152000000000001086036000000000000009999123100000010000000000000BREVBICTF007154
012024102312EXES11      010FII EXES    CI  ER       R$  000000000096000000000009600000000000960000000000096000000000009600000000000941000000000096000012000000000000000199000000000000191040000000000000009999123100000010000000000000BREXESCTF006130
012024102312FAED11      010FII ANH EDUCCI           R$  000000001434200000000143420000000013924000000001407500000000140200000000014020000000001440000164000000000000000477000000000006714197000000000000009999123100000010000000000000BRFAEDCTF003282
012024102312FAMB11      010FII ALMIRANTCI           R$  000000019250000000001988990000000190012000000019256000000001900120000000190012000000019491800032000000000000000089000000000017137928000000000000009999123100000010000000000000BRFAMBCTF018316
012024102312FATN11      010FII ATHENA ICI           R$  000000000890100000000089490000000008796000000000884200000000088000000000008800000000000880900585000000000000005712000000000050510027000000000000009999123100000010000000000000BRFATNCTF000156
012024102312FCFL11      010FII CAMPUSFLCI  ER       R$  000000001128000000000113510000000011250000000001129300000000112500000000011201000000001134700034000000000000000287000000000003241239000000000000009999123100000010000000000000BRFCFLCTF009274
012024102312MALL11      010FII MALLS BPCI           R$  000000001003000000000100490000000009881000000000992800000000098940000000009894000000000992202829000000000000017200000000000170766158000000000000009999123100000010000000000000BRMALLCTF007185
012024102312MANA11      010FII MANATI  CI           R$  000000000086200000000008620000000000845000000000085000000000008510000000000846000000000085103890000000000000140449000000000119421741000000000000009999123100000010000000000000BRMANACTF006129
012024102312MAXR11      010FII MAX RET CI           R$  000000000669600000000066980000000006648000000000665200000000066540000000006650000000000665400035000000000000000311000000000002069002000000000000009999123100000010000000000000BRMAXRCTF009272
012024102312MCCI11      010FII MAUA    CI           R$  000000000814000000000081750000000008005000000000808200000000080490000000008049000000000808004821000000000000046443000000000375392674000000000000009999123100000010000000000000BRMCCICTF008166
012024102312MCHY11      010FII MAUA HY CI  ER       R$  000000000084800000000008590000000000840000000000085200000000008530000000000853000000000085426177000000000000616042000000000525060584000000000000009999123100000010000000000000BRMCHYCTF004142
012024102312MFCR11      010FII MERITO RCI           R$  000000000256600000000025660000000002399000000000250400000000025100000000002388000000000261300014000000000000000139000000000000348116000000000000009999123100000010000000000000BRMFCRCTF002128
012024102312MFII11      010FII MERITO ICI           R$  000000000994000000000100090000000009838000000000994000000000099840000000009984000000000998800620000000000000008542000000000084910834000000000000009999123100000010000000000000BRMFIICTF008239
012024102312MGHT11      010FII MOGNO HTCI           R$  000000000186300000000019340000000001702000000000174300000000017020000000001702000000000172000225000000000000005173000000000009018419000000000000009999123100000010000000000000BRMGHTCTF005155
012024102312BARI11      010FII BARIGUI CI           R$  000000000735300000000074480000000007310000000000735700000000073320000000007340000000000737800798000000000000010308000000000075838579000000000000009999123100000010000000000000BRBARICTF003166
012024102312GRUL11      010FII GRUL    CI           R$  000000000091700000000009170000000000882000000000090100000000008930000000000891000000000089300759000000000000059610000000000053738078000000000000009999123100000010000000000000BRGRULCTF004100
012024102312GSFI11      010FII GENERAL CI           R$  000000000076400000000007800000000000761000000000077400000000007790000000000758000000000078000171000000000000001642000000000001270944000000000000009999123100000010000000000000BRGSFICTF009103
012024102312GTWR11      010FII G TOWERSCI           R$  000000000743500000000074740000000007236000000000735100000000072700000000007270000000000729901366000000000000014760000000000108509221000000000000009999123100000010000000000000BRGTWRCTF003167
012024102312GZIT11      010FII GAZIT   CI           R$  000000000480000000000048010000000004720000000000475300000000047990000000004799000000000480003246000000000000013158000000000062543215000000000000009999123100000010000000000000BRGZITCTF005111
012024102312BPFF11      010FII ABSOLUTOCI           R$  000000000637100000000063710000000006150000000000623300000000061540000000006154000000000623400599000000000000004648000000000028971415000000000000009999123100000010000000000000BRBPFFCTF002240
012024102312BPML11      010FII BTG SHOPCI  ER       R$  000000000808900000000081110000000007980000000000802000000000080800000000008080000000000809101119000000000000006104000000000048957767000000000000009999123100000010000000000000BRBPMLCTF006135
012024102312CPLG11      010FII CPLG    CI           R$  000000000107000000000010800000000001070000000000107300000000010800000000001000000000000108000003000000000000000003000000000000003220000000000000009999123100000010000000000000BRCPLGCTF006101
012024102312CPSH11      010FII CPSH    CI  ER       R$  000000000099400000000009940000000000977000000000099000000000009940000000000991000000000099401071000000000000051900000000000051417827000000000000009999123100000010000000000000BRCPSHCTF017118
012024102312CPTS11      010FII CAPI SECCI           R$  000000000078500000000007900000000000754000000000076700000000007600000000000760000000000076122705000000000002850771000000002189157928000000000000009999123100000010000000000000BRCPTSCTF004235
012024102312CRFF11      010FII CX RBRA2CI           R$  000000000770000000000077000000000007599000000000761500000000076000000000007511000000000769900010000000000000000037000000000000281755000000000000009999123100000010000000000000BRCRFFCTF006165
012024102312IBCR11      010FII BREI    CI           R$  000000000573800000000057950000000005652000000000570300000000057020000000005674000000000570000129000000000000001674000000000009547342000000000000009999123100000010000000000000BRIBCRCTF009141
012024102312KNCR11      010FII KINEA RICI  ES       R$  000000001037100000000104400000000010350000000001039200000000104190000000010419000000001042812496000000000000158992000000001652274212000000000000009999123100000010000000000000BRKNCRCTF000245
012024102312KNCR12      010FII KINEA RIDIR          R$  000000000005100000000000830000000000051000000000006000000000000550000000000055000000000005805477000000000000446846000000000026980703000000000000009999123100000010000000000000BRKNCRD02M15244
012024102312KNHF11      010FII KINEA HFCI           R$  000000000886000000000088720000000008800000000000882000000000088440000000008824000000000884503102000000000000080966000000000714196965000000000000009999123100000010000000000000BRKNHFCTF004115
012024102312KNHY11      010FII KINEA HYCI           R$  000000001039000000000104180000000010220000000001031100000000102800000000010280000000001029003262000000000000047364000000000488370946000000000000009999123100000010000000000000BRKNHYCTF005176
012024102312KNIP11      010FII KINEA IPCI           R$  000000000915100000000091790000000009123000000000913500000000091330000000009133000000000914007924000000000000134294000000001226869573000000000000009999123100000010000000000000BRKNIPCTF001197
012024102312KNRE11      010FII KII REALCI           R$  000000000003200000000000340000000000025000000000002600000000000250000000000025000000000002700030000000000000017924000000000000471184000000000000009999123100000010000000000000BRKNRECTF006129
012024102312KNRI11      010FII KINEA   CI           R$  000000001381400000000138490000000013620000000001371300000000137200000000013719000000001372011665000000000000053757000000000737208826000000000000009999123100000010000000000000BRKNRICTF007268
012024102312KNSC11      010FII KINEA SCCI           R$  000000000088800000000008920000000000871000000000088000000000008750000000000875000000000087817263000000000000836208000000000735996021000000000000009999123100000010000000000000BRKNSCCTF008152
012024102312KNUQ11      010FII KINEA UNCI           R$  000000001029900000000103470000000010290000000001029900000000103000000000010300000000001030402019000000000000038733000000000398917357000000000000009999123100000010000000000000BRKNUQCTF004117
012024102312KORE11      010FII KORE    CI           R$  000000000921200000000092770000000009001000000000909100000000090730000000009075000000000909601690000000000000023240000000000211295658000000000000009999123100000010000000000000BRKORECTF012110
012024102312LASC11      010FII LEGATUS CI           R$  000000001100800000000110880000000011008000000001104800000000110880000000010810000000000000000002000000000000000002000000000000022096000000000000009999123100000010000000000000BRLASCCTF003157
012024102312LFTT11      010FII LOFT II CI  EA       R$  000000000089900000000009000000000000864000000000089900000000008980000000000806000000000089800028000000000000036398000000000032753067000000000000009999123100000010000000000000BRLFTTCTF004136
012024102312LIFE11      010FII LIFE    CI           R$  000000000099800000000010060000000000990000000000099200000000009910000000000991000000000099502509000000000000086272000000000085616594000000000000009999123100000010000000000000BRLIFECTF017134
012024102312EGYR11      010FII ENERGY  CI           R$  000000000032600000000003260000000000326000000000032600000000003260000000000326000000000035000004000000000000000058000000000000018908000000000000009999123100000010000000000000BREGYRCTF001102
012024102312HBCR11      010FII HBC REN CI           R$  000000001336300000000136000000000013363000000001336300000000136000000000010463000000000000000003000000000000299335000000004000015975000000000000009999123100000010000000000000BRHBCRCTF001146
012024102312HCHG11      010FII HECT CRICI           R$  000000000683500000000068350000000006720000000000677000000000067200000000006720000000000680000068000000000000000403000000000002728643000000000000009999123100000010000000000000BRHCHGCTF001141
012024102312HCRI11      010FII CRIANCA CI  ER       R$  000000002720000000000272890000000026650000000002701400000000270040000000026653000000002700500041000000000000000240000000000006483512000000000000009999123100000010000000000000BRHCRICTF006333
012024102312HCTR11      010FII HECTARE CI           R$  000000000283600000000028400000000002771000000000280500000000028020000000002784000000000280203162000000000000041513000000000116452309000000000000009999123100000010000000000000BRHCTRCTF003174
012024102312HFOF11      010FII HTOPFOF3CI           R$  000000000630200000000063100000000006201000000000625100000000062620000000006207000000000626202584000000000000022288000000000139344268000000000000009999123100000010000000000000BRHFOFCTF002193
012024102312HGBL11      010FII HGBL    CI  ES       R$  000000000102200000000010500000000001015000000000102300000000010290000000001028000000000102900177000000000000004231000000000004329493000000000000009999123100000010000000000000BRHGBLCTF005110
012024102312HGBS11      010FII HEDGEBS CI           R$  000000002016900000000201690000000019910000000002004100000000199490000000019930000000001994903221000000000000016542000000000331522441000000000000009999123100000010000000000000BRHGBSCTF000314
