00COTAHIST.2024BOVESPA 20241017                                                                                                                                                                                                                      
012024101702NEOE3       010NEOENERGIA  ON      NM   R$  000000000192000000000019390000000001900000000000192400000000019290000000001929000000000193103532000000000001034900000000001991193700000000000000009999123100000010000000000000BRNEOEACNOR3123
012024101702NGRD3       010NEOGRID     ON  EBG NM   R$  000000000310000000000031560000000003052000000000309900000000030610000000003060000000000312600028000000000000004900000000000015186400000000000000009999123100000010000000000000BRNGRDACNOR3106
012024101702NINJ3       010GETNINJAS   ON      NM   R$  000000000046200000000004640000000000458000000000045900000000004580000000000455000000000046200023000000000000004900000000000002249300000000000000009999123100000010000000000000BRNINJACNOR5101
012024101702NTCO3       010GRUPO NATURAON      NM   R$  000000000150400000000015060000000001480000000000149000000000014800000000001480000000000148614222000000000008921800000000013299380400000000000000009999123100000010000000000000BRNTCOACNOR5106
012024101702PTBL3       010PORTOBELLO  ON      NM   R$  000000000046600000000004680000000000458000000000046100000000004600000000000460000000000046200760000000000000209600000000000096719100000000000000009999123100000010000000000000BRPTBLACNOR8132
012024101702PTNT4       010PETTENATI   PN           R$  000000000064700000000006510000000000641000000000064400000000006410000000000640000000000065300015000000000000004500000000000002899500000000000000009999123100000010000000000000BRPTNTACNPR3047
012024101702QUAL3       010QUALICORP   ON      NM   R$  000000000022500000000002290000000000215000000000022000000000002200000000000220000000000022204961000000000003815400000000000842605500000000000000009999123100000010000000000000BRQUALACNOR6120
012024101702RANI3       010IRANI       ON      NM   R$  000000000073600000000007460000000000724000000000073200000000007310000000000730000000000073104815000000000001575900000000001153594500000000000000009999123100000010000000000000BRRANIACNOR5073
012024101702LJQQ3       010QUERO-QUERO ON      NM   R$  000000000030900000000003090000000000297000000000030300000000003010000000000300000000000030104688000000000003288200000000000996752400000000000000009999123100000010000000000000BRLJQQACNOR5104
012024101702LOGG3       010LOG COM PROPON      NM   R$  000000000222100000000022360000000002183000000000221800000000022360000000002215000000000223701422000000000000177200000000000393172500000000000000009999123100000010000000000000BRLOGGACNOR7107
012024101702LOGN3       010LOG-IN      ON      NM   R$  000000000305000000000030710000000002952000000000299500000000030280000000002986000000000302800171000000000000019800000000000059307300000000000000009999123100000010000000000000BRLOGNACNOR3105
012024101702LPSB3       010LOPES BRASILON      NM   R$  000000000017200000000001720000000000170000000000017000000000001700000000000170000000000017100119000000000000024300000000000004144500000000000000009999123100000010000000000000BRLPSBACNOR0114
012024101702LREN3       010LOJAS RENNERON      NM   R$  000000000185800000000018710000000001841000000000185500000000018710000000001865000000000187124670000000000014053900000000026081640300000000000000009999123100000010000000000000BRLRENACNOR1222
012024101702MTRE3       010MITRE REALTYON      NM   R$  000000000037000000000003730000000000364000000000036900000000003730000000000371000000000037400614000000000000342500000000000126540600000000000000009999123100000010000000000000BRMTREACNOR6115
012024101702MTSA4       010METISA      PN           R$  000000000367100000000037200000000003661000000000368600000000036610000000003660000000000370000005000000000000000600000000000002211600000000000000009999123100000010000000000000BRMTSAACNPR9073
012024101702MULT3       010MULTIPLAN   ON      N2   R$  000000000256200000000026250000000002544000000000258800000000026040000000002604000000000261914884000000000002566200000000006642228500000000000000009999123100000010000000000000BRMULTACNOR5139
012024101702PRNR3       010PRINER      ON      NM   R$  000000000129100000000012910000000001251000000000127200000000012770000000001275000000000127701540000000000000360400000000000458702400000000000000009999123100000010000000000000BRPRNRACNOR4109
012024101702PSSA3       010PORTO SEGUROON      NM   R$  000000000370900000000037180000000003666000000000368800000000037000000000003700000000000370109877000000000001850700000000006826148500000000000000009999123100000010000000000000BRPSSAACNOR7156
012024101702RAIZ4       010RAIZEN      PN      N2   R$  000000000030000000000003010000000000292000000000029500000000002960000000000295000000000029606840000000000009029500000000002667451600000000000000009999123100000010000000000000BRRAIZACNPR6111
012024101702SMFT3       010SMART FIT   ON      NM   R$  000000000230000000000023340000000002278000000000231800000000023310000000002324000000000233105161000000000001446200000000003353393400000000000000009999123100000010000000000000BRSMFTACNOR1112
012024101702SMTO3       010SAO MARTINHOON      NM   R$  000000000265000000000026550000000002584000000000260900000000025840000000002583000000000259006966000000000001373000000000003582669000000000000000009999123100000010000000000000BRSMTOACNOR3127
012024101702BGIP4       010BANESE      PN           R$  000000000235000000000023800000000002301000000000233800000000023800000000002326000000000239900010000000000000001100000000000002572800000000000000009999123100000010000000000000BRBGIPACNPR8210
012024101702BHIA3       010CASAS BAHIA ON      NM   R$  000000000044400000000004490000000000427000000000043900000000004320000000000431000000000043202316000000000002106600000000000925260800000000000000009999123100000010000000000000BRBHIAACNOR1102
012024101702BPAC11      010BTGP BANCO  UNT     N2   R$  000000000328900000000033370000000003256000000000330400000000033190000000003315000000000332015553000000000010156300000000033560727900000000000000009999123100000010000000000000BRBPACUNT006119
012024101702BPAC3       010BTGP BANCO  ON      N2   R$  000000000158200000000015820000000001543000000000155500000000015620000000001546000000000158000030000000000000004300000000000006690100000000000000009999123100000010000000000000BRBPACACNOR7134
012024101702BPAC5       010BTGP BANCO  PNA     N2   R$  000000000086200000000008780000000000853000000000086900000000008690000000000869000000000087900016000000000000001800000000000001565000000000000000009999123100000010000000000000BRBPACACNPA0134
012024101702DMVF3       010D1000VFARMA ON      NM   R$  000000000067200000000006720000000000645000000000065800000000006450000000000643000000000064500242000000000000048800000000000032121600000000000000009999123100000010000000000000BRDMVFACNOR9100
012024101702DOHL4       010DOHLER      PN           R$  000000000041500000000004150000000000415000000000041500000000004150000000000398000000000041500001000000000000000100000000000000041500000000000000009999123100000010000000000000BRDOHLACNPR9066
012024101702DOTZ3       010DOTZ SA     ON      NM   R$  000000000056800000000005990000000000567000000000058300000000005670000000000567000000000058000076000000000000031000000000000018078000000000000000009999123100000010000000000000BRDOTZACNOR7101
012024101702STBP3       010SANTOS BRP  ON  ER  NM   R$  000000000128000000000012920000000001270000000000128300000000012900000000001288000000000129008582000000000008928000000000011461126200000000000000009999123100000010000000000000BRSTBPACNOR3132
012024101702SUZB3       010SUZANO S.A. ON      NM   R$  000000000542000000000055340000000005380000000000547800000000055010000000005500000000000550518505000000000004569200000000025034357700000000000000009999123100000010000000000000BRSUZBACNOR0130
012024101702LAND3       010TERRASANTAPAON      NM   R$  000000000128400000000013510000000001263000000000132200000000013450000000001329000000000134500619000000000000100000000000000132205600000000000000009999123100000010000000000000BRLANDACNOR9103
012024101702LAVV3       010LAVVI       ON      NM   R$  000000000082800000000008280000000000810000000000081800000000008220000000000820000000000082202199000000000000473400000000000387684300000000000000009999123100000010000000000000BRLAVVACNOR4113
012024101702LEVE3       010METAL LEVE  ON      NM   R$  000000000305600000000030630000000003017000000000303400000000030260000000003026000000000302801562000000000000257100000000000780069200000000000000009999123100000010000000000000BRLEVEACNOR2197
012024101702DXCO3       010DEXCO       ON      NM   R$  000000000081200000000008160000000000803000000000080900000000008090000000000806000000000080905333000000000001766400000000001429221800000000000000009999123100000010000000000000BRDXCOACNOR8105
012024101702VTRU3       010VITRUEDUCA  ON      NM   R$  000000000093400000000009770000000000924000000000094800000000009700000000000953000000000097900508000000000000120500000000000114236700000000000000009999123100000010000000000000BRVTRUACNOR3100
012024101702VULC3       010VULCABRAS   ON      NM   R$  000000000163900000000016420000000001605000000000163000000000016380000000001638000000000163902562000000000000531700000000000867000000000000000000009999123100000010000000000000BRVULCACNOR2162
012024101702VVEO3       010VIVEO       ON      NM   R$  000000000019900000000002030000000000193000000000019900000000002000000000000200000000000020101949000000000003738400000000000745247600000000000000009999123100000010000000000000BRVVEOACNOR0104
012024101702EALT4       010ACO ALTONA  PN           R$  000000000133700000000013490000000001320000000000132900000000013250000000001323000000000133000066000000000000012300000000000016351000000000000000009999123100000010000000000000BREALTACNPR1138
012024101702ECOR3       010ECORODOVIAS ON      NM   R$  000000000072300000000007230000000000701000000000070700000000007030000000000703000000000070404821000000000003848000000000002721294500000000000000009999123100000010000000000000BRECORACNOR8120
012024101702EGIE3       010ENGIE BRASILON      NM   R$  000000000410600000000041560000000004089000000000413100000000041280000000004128000000000414804796000000000001034400000000004274126600000000000000009999123100000010000000000000BREGIEACNOR9127
012024101702WEGE3       010WEG         ON      NM   R$  000000000569000000000057090000000005600000000000563600000000056220000000005622000000000562619910000000000005134400000000028938066000000000000000009999123100000010000000000000BRWEGEACNOR0225
012024101702ZAMP3       010ZAMP S.A.   ON           R$  000000000024900000000002560000000000248000000000024900000000002500000000000250000000000025100966000000000000299100000000000074771400000000000000009999123100000010000000000000BRZAMPACNOR5101
012024101702WEST3       010WESTWING    ON      NM   R$  000000000008100000000000830000000000080000000000008100000000000810000000000081000000000008200023000000000000058300000000000004768400000000000000009999123100000010000000000000BRWESTACNOR3100
012024101702GEPA3       010GER PARANAP ON           R$  000000000287900000000028790000000002879000000000287900000000028790000000002706000000000287900001000000000000000100000000000000287900000000000000009999123100000010000000000000BRGEPAACNOR2154
012024101702GEPA4       010GER PARANAP PN           R$  000000000292800000000029300000000002891000000000291000000000028910000000002880000000000295900005000000000000001200000000000003492400000000000000009999123100000010000000000000BRGEPAACNPR9161
012024101702GFSA3       010GAFISA      ON      NM   R$  000000000018900000000001890000000000182000000000018500000000001830000000000183000000000018402277000000000004380200000000000810409700000000000000009999123100000010000000000000BRGFSAACNOR3125
012024101702GGBR3       010GERDAU      ON      N1   R$  000000000161000000000016250000000001607000000000161200000000016070000000001607000000000161900140000000000000023200000000000037413000000000000000009999123100000010000000000000BRGGBRACNOR1193
012024101702GGBR4       010GERDAU      PN      N1   R$  000000000181300000000018260000000001798000000000181400000000018190000000001819000000000182021526000000000016655200000000030214561500000000000000009999123100000010000000000000BRGGBRACNPR8193
012024101702AERI3       010AERIS       ON      NM   R$  000000000064600000000006460000000000625000000000063500000000006400000000000635000000000064000391000000000000105800000000000067206900000000000000009999123100000010000000000000BRAERIACNOR4102
012024101702AESB3       010AES BRASIL  ON      NM   R$  000000000117400000000011780000000001174000000000117600000000011770000000001177000000000117804320000000000010785500000000012687012800000000000000009999123100000010000000000000BRAESBACNOR7107
012024101702AFLT3       010AFLUENTE T  ON           R$  000000000069200000000006920000000000692000000000069200000000006920000000000691000000000071100001000000000000000100000000000000069200000000000000009999123100000010000000000000BRAFLTACNOR1122
012024101702AGRO3       010BRASILAGRO  ON      NM   R$  000000000246700000000024750000000002440000000000245500000000024400000000002440000000000244801925000000000000297500000000000730452200000000000000009999123100000010000000000000BRAGROACNOR7114
012024101702ALLD3       010ALLIED      ON      NM   R$  000000000076400000000007680000000000751000000000075700000000007550000000000755000000000075700046000000000000010300000000000007802000000000000000009999123100000010000000000000BRALLDACNOR3106
012024101702BAHI3       010BAHEMA      ON      MA   R$  000000000048500000000005000000000000475000000000048500000000005000000000000480000000000050000013000000000000002900000000000001409000000000000000009999123100000010000000000000BRBAHIACNOR1074
012024101702BALM3       010BAUMER      ON           R$  000000000129100000000012910000000001291000000000129100000000012910000000001291000000000159000001000000000000000100000000000000129100000000000000009999123100000010000000000000BRBALMACNOR5055
012024101702BALM4       010BAUMER      PN           R$  000000000102000000000010200000000001020000000000102000000000010200000000001001000000000107800002000000000000000200000000000000204000000000000000009999123100000010000000000000BRBALMACNPR2056
012024101702EUCA3       010EUCATEX     ON      N1   R$  000000000157700000000015770000000001573000000000157300000000015730000000001573000000000160000007000000000000001200000000000001888000000000000000009999123100000010000000000000BREUCAACNOR1157
012024101702EUCA4       010EUCATEX     PN      N1   R$  000000000148600000000015100000000001480000000000148900000000014800000000001480000000000149300162000000000000024500000000000036489500000000000000009999123100000010000000000000BREUCAACNPR8044
012024101702EVEN3       010EVEN        ON  ED  NM   R$  000000000066500000000006650000000000648000000000066000000000006560000000000656000000000066302998000000000000725100000000000478716700000000000000009999123100000010000000000000BREVENACNOR8120
012024101702EZTC3       010EZTEC       ON      NM   R$  000000000141500000000014270000000001388000000000140800000000014060000000001406000000000141004208000000000000956500000000001346937800000000000000009999123100000010000000000000BREZTCACNOR0126
012024101702IFCM3       010INFRACOMM   ON      NM   R$  000000000001500000000000150000000000014000000000001400000000000150000000000014000000000001503701000000000006743800000000000099647100000000000000009999123100000010000000000000BRIFCMACNOR8101
012024101702IGTI11      010IGUATEMI S.AUNT     N1   R$  000000000211800000000021230000000002087000000000210700000000021220000000002113000000000212312162000000000002401400000000005060911000000000000000009999123100000010000000000000BRIGTICDAM16106
012024101702IGTI3       010IGUATEMI S.AON      N1   R$  000000000026200000000002620000000000255000000000025600000000002560000000000255000000000025600089000000000000045600000000000011692700000000000000009999123100000010000000000000BRIGTIACNOR8106
012024101702B3SA3       010B3          ON      NM   R$  000000000108400000000010880000000001063000000000107100000000010720000000001071000000000107233436000000000023156000000000024809022900000000000000009999123100000010000000000000BRB3SAACNOR6134
012024101702BRBI11      010BR PARTNERS UNT     N2   R$  000000000151900000000015190000000001503000000000151100000000015120000000001512000000000151801501000000000000232200000000000351043600000000000000009999123100000010000000000000BRBRBICDAM10110
012024101702BRFS3       010BRF SA      ON      NM   R$  000000000230100000000024080000000002291000000000237900000000023890000000002388000000000239019311000000000008553700000000020353737900000000000000009999123100000010000000000000BRBRFSACNOR8122
012024101702CEBR3       010CEB         ON           R$  000000000181300000000018500000000001809000000000183200000000018410000000001830000000000184300019000000000000003800000000000006962600000000000000009999123100000010000000000000BRCEBRACNOR5125
012024101702CEBR5       010CEB         PNA          R$  000000000161300000000016390000000001613000000000162500000000016390000000001616000000000165900009000000000000002700000000000004389200000000000000009999123100000010000000000000BRCEBRACNPA8124
012024101702CEBR6       010CEB         PNB          R$  000000000176000000000017780000000001752000000000176500000000017700000000001770000000000177800032000000000000009400000000000016593000000000000000009999123100000010000000000000BRCEBRACNPB6124
012024101702CEDO4       010CEDRO       PN      N1   R$  000000000226000000000022600000000002260000000000226000000000022600000000002255000000000237400001000000000000002900000000000006554000000000000000009999123100000010000000000000BRCEDOACNPR5128
012024101702CEEB3       010COELBA      ON           R$  000000000383500000000039890000000003834000000000389900000000039890000000003860000000000398900005000000000000000500000000000001949800000000000000009999123100000010000000000000BRCEEBACNOR3200
012024101702CGAS5       010COMGAS      PNA          R$  000000001279000000000127900000000012790000000001279000000000127900000000012517000000001280000001000000000000000500000000000006395000000000000000009999123100000010000000000000BRCGASACNPA3161
012024101702CGRA3       010GRAZZIOTIN  ON           R$  000000000250000000000025000000000002500000000000250000000000025000000000002499000000000257000004000000000000000700000000000001750000000000000000009999123100000010000000000000BRCGRAACNOR2083
012024101702CGRA4       010GRAZZIOTIN  PN           R$  000000000253400000000025340000000002534000000000253300000000025340000000002512000000000253500004000000000000000400000000000001013200000000000000009999123100000010000000000000BRCGRAACNPR9083
012024101702CLSA3       010CLEARSALE   ON      NM   R$  000000000094400000000009440000000000923000000000093400000000009350000000000934000000000093502852000000000002152900000000002012268000000000000000009999123100000010000000000000BRCLSAACNOR0100
012024101702CLSC3       010CELESC      ON      N2   R$  000000000764900000000076490000000007422000000000749700000000074220000000007402000000000763900002000000000000000300000000000002249300000000000000009999123100000010000000000000BRCLSCACNOR6153
012024101702CLSC4       010CELESC      PN      N2   R$  000000000811800000000081180000000007971000000000802900000000080110000000007970000000000803000009000000000000001000000000000008029200000000000000009999123100000010000000000000BRCLSCACNPR3132
012024101702CMIG3       010CEMIG       ON      N1   R$  000000000143400000000014340000000001406000000000142200000000014200000000001420000000000143400477000000000000074400000000000105827500000000000000009999123100000010000000000000BRCMIGACNOR6244
012024101702CMIG4       010CEMIG       PN      N1   R$  000000000110800000000011160000000001100000000000110800000000011100000000001109000000000111009696000000000007091500000000007861081900000000000000009999123100000010000000000000BRCMIGACNPR3245
012024101702CSUD3       010CSU DIGITAL ON      NM   R$  000000000172000000000017230000000001700000000000171100000000017060000000001704000000000172000138000000000000018600000000000031826600000000000000009999123100000010000000000000BRCSUDACNOR5111
012024101702CTKA4       010KARSTEN     PN           R$  000000000187500000000018750000000001860000000000186700000000018600000000001860000000000196000002000000000000001500000000000002800500000000000000009999123100000010000000000000BRCTKAACNPR7043
012024101702CURY3       010CURY S/A    ON      NM   R$  000000000232200000000023420000000002274000000000230700000000023090000000002304000000000231107397000000000001566000000000003613410000000000000000009999123100000010000000000000BRCURYACNOR3110
012024101702CVCB3       010CVC BRASIL  ON      NM   R$  000000000018700000000001880000000000183000000000018400000000001840000000000184000000000018505672000000000011565400000000002133395600000000000000009999123100000010000000000000BRCVCBACNOR1116
012024101702ENGI11      010ENERGISA    UNT     N2   R$  000000000438000000000043910000000004349000000000436800000000043720000000004360000000000437308462000000000001907200000000008332362200000000000000009999123100000010000000000000BRENGICDAM16136
012024101702ENGI3       010ENERGISA    ON      N2   R$  000000000131700000000013170000000001307000000000130900000000013070000000001307000000000132000005000000000000000500000000000000654800000000000000009999123100000010000000000000BRENGIACNOR0146
012024101702ENGI4       010ENERGISA    PN      N2   R$  000000000077200000000007720000000000762000000000076500000000007670000000000762000000000076800024000000000000003600000000000002754300000000000000009999123100000010000000000000BRENGIACNPR7142
012024101702ENJU3       010ENJOEI      ON      NM   R$  000000000013500000000001370000000000134000000000013500000000001350000000000135000000000013700149000000000000235600000000000031968800000000000000009999123100000010000000000000BRENJUACNOR9100
012024101702ENMT3       010ENERGISA MT ON           R$  000000000790400000000085040000000007904000000000820400000000085040000000007200000000000850400002000000000000000200000000000001640800000000000000009999123100000010000000000000BRENMTACNOR5121
012024101702EPAR3       010EMBPAR S/A  ON           R$  000000000056300000000005640000000000558000000000056000000000005580000000000558000000000056200012000000000000001300000000000000728900000000000000009999123100000010000000000000BREPARACNOR9105
012024101702EQPA3       010EQTL PARA   ON           R$  000000000060400000000006050000000000600000000000060000000000006000000000000601000000000060500008000000000000007500000000000004502400000000000000009999123100000010000000000000BREQPAACNOR1111
012024101702EQTL3       010EQUATORIAL  ON      NM   R$  000000000323500000000032810000000003235000000000326600000000032690000000003265000000000326919403000000000005499900000000017963586000000000000000009999123100000010000000000000BREQTLACNOR0131
012024101702KLBN3       010KLABIN S/A  ON      N2   R$  000000000040800000000004160000000000403000000000040900000000004130000000000412000000000041300515000000000000229400000000000093867500000000000000009999123100000010000000000000BRKLBNACNOR2171
012024101702KLBN4       010KLABIN S/A  PN      N2   R$  000000000040600000000004140000000000402000000000040800000000004110000000000411000000000041201669000000000001245200000000000508301200000000000000009999123100000010000000000000BRKLBNACNPR9171
012024101702MATD3       010MATER DEI   ON      NM   R$  000000000043900000000004460000000000430000000000043500000000004360000000000435000000000043600889000000000000307600000000000133912900000000000000009999123100000010000000000000BRMATDACNOR4104
012024101702MBLY3       010MOBLY       ON      NM   R$  000000000021500000000002210000000000211000000000021300000000002130000000000213000000000021400428000000000000628600000000000134299600000000000000009999123100000010000000000000BRMBLYACNOR5100
012024101702MDIA3       010M.DIASBRANCOON      NM   R$  000000000247500000000025410000000002451000000000250000000000025200000000002511000000000252104846000000000001991500000000004980058800000000000000009999123100000010000000000000BRMDIAACNOR7136
012024101702MDNE3       010MOURA DUBEUXON      NM   R$  000000000152600000000015380000000001503000000000151700000000015050000000001505000000000151201656000000000000357300000000000542091400000000000000009999123100000010000000000000BRMDNEACNOR9100
012024101702MEAL3       010IMC S/A     ON      NM   R$  000000000013700000000001400000000000136000000000013700000000001360000000000136000000000013700149000000000000316300000000000043464400000000000000009999123100000010000000000000BRMEALACNOR9105
012024101702MELK3       010MELNICK     ON      NM   R$  000000000036700000000003670000000000357000000000035900000000003570000000000356000000000035700486000000000000306900000000000110470500000000000000009999123100000010000000000000BRMELKACNOR8111
012024101702MGEL4       010MANGELS INDLPN           R$  000000000094500000000009450000000000899000000000091300000000009250000000000901000000000092500017000000000000014200000000000012966200000000000000009999123100000010000000000000BRMGELACNPR3147
012024101702LVTC3       010WDC NETWORKSON      NM   R$  000000000037900000000003790000000000368000000000037000000000003710000000000371000000000037500031000000000000005200000000000001929000000000000000009999123100000010000000000000BRLVTCACNOR4102
012024101702LWSA3       010LWSA        ON      NM   R$  000000000043000000000004390000000000422000000000043200000000004350000000000434000000000043509596000000000004524900000000001959276700000000000000009999123100000010000000000000BRLWSAACNOR8103
012024101702MWET4       010WETZEL S/A  PN           R$  000000000088000000000008800000000000880000000000088000000000008800000000000861000000000089900001000000000000000100000000000000088000000000000000009999123100000010000000000000BRMWETACNPR3118
012024101702MYPK3       010IOCHP-MAXIONON      NM   R$  000000000107100000000010720000000001048000000000106000000000010650000000001065000000000107203550000000000000726900000000000771114900000000000000009999123100000010000000000000BRMYPKACNOR7156
012024101702PATI3       010PANATLANTICAON           R$  000000000284100000000030000000000002840000000000291400000000030000000000002763000000000300000015000000000000001700000000000004954600000000000000009999123100000010000000000000BRPATIACNOR6066
012024101702PATI4       010PANATLANTICAPN           R$  000000000315000000000031500000000003150000000000315000000000031500000000003150000000000350000001000000000000000100000000000000315000000000000000009999123100000010000000000000BRPATIACNPR3066
012024101702PCAR3       010P.ACUCAR-CBDON      NM   R$  000000000032400000000003320000000000323000000000032600000000003270000000000327000000000032805143000000000007221900000000002360630300000000000000009999123100000010000000000000BRPCARACNOR3167
012024101702PETZ3       010PETZ        ON      NM   R$  000000000049200000000004980000000000485000000000049300000000004980000000000497000000000049805298000000000003685400000000001819963500000000000000009999123100000010000000000000BRPETZACNOR2110
012024101702TAEE11      010TAESA       UNT     N2   R$  000000000348500000000034900000000003457000000000347000000000034680000000003466000000000347806012000000000001347300000000004675338700000000000000009999123100000010000000000000BRTAEECDAM10148
012024101702TAEE3       010TAESA       ON      N2   R$  000000000116300000000011630000000001150000000000115600000000011580000000001157000000000115800316000000000000051900000000000060007800000000000000009999123100000010000000000000BRTAEEACNOR9148
012024101702TAEE4       010TAESA       PN      N2   R$  000000000117100000000011710000000001156000000000116100000000011690000000001166000000000116900545000000000000109900000000000127688700000000000000009999123100000010000000000000BRTAEEACNPR6148
012024101702TASA3       010TAURUS ARMASON      N2   R$  000000000102500000000010500000000001025000000000103400000000010500000000001025000000000105000147000000000000017800000000000018420000000000000000009999123100000010000000000000BRTASAACNOR7104
012024101702TASA4       010TAURUS ARMASPN      N2   R$  000000000101100000000010150000000000996000000000100600000000010150000000001010000000000101500938000000000000194700000000000196013000000000000000009999123100000010000000000000BRTASAACNPR4104
012024101702TCSA3       010TECNISA     ON      NM   R$  000000000016200000000001650000000000158000000000016000000000001590000000000158000000000015900221000000000000255200000000000040945700000000000000009999123100000010000000000000BRTCSAACNOR3112
012024101702INEP3       010INEPAR      ON           R$  000000000016700000000001700000000000163000000000016600000000001630000000000161000000000016300097000000000000051100000000000008503100000000000000009999123100000010000000000000BRINEPACNOR1143
012024101702INEP4       010INEPAR      PN           R$  000000000017400000000001740000000000170000000000017100000000001710000000000171000000000017400023000000000000011900000000000002037900000000000000009999123100000010000000000000BRINEPACNPR8143
012024101702INTB3       010INTELBRAS   ON      NM   R$  000000000204700000000020700000000002028000000000204800000000020470000000002043000000000204901973000000000000445100000000000911587800000000000000009999123100000010000000000000BRINTBACNOR9112
012024101702IRBR3       010IRBBRASIL REON      NM   R$  000000000431400000000043140000000004191000000000423900000000042040000000004203000000000420404991000000000001120900000000004752418300000000000000009999123100000010000000000000BRIRBRACNOR4111
012024101702RAPT3       010RANDON PART ON      N1   R$  000000000095100000000009740000000000917000000000093400000000009300000000000930000000000093700360000000000000075900000000000070939700000000000000009999123100000010000000000000BRRAPTACNOR7163
012024101702RAPT4       010RANDON PART PN      N1   R$  000000000116200000000011730000000001152000000000116500000000011570000000001156000000000116305396000000000003107300000000003620614600000000000000009999123100000010000000000000BRRAPTACNPR4163
012024101702RCSL3       010RECRUSUL    ON           R$  000000000045500000000004620000000000429000000000044400000000004290000000000429000000000043301706000000000000954900000000000424700200000000000000009999123100000010000000000000BRRCSLACNOR4134
012024101702RCSL4       010RECRUSUL    PN           R$  000000000013800000000001460000000000135000000000014100000000001430000000000143000000000014404892000000000004151300000000000585610700000000000000009999123100000010000000000000BRRCSLACNPR1134
012024101702RDNI3       010RNI         ON      NM   R$  000000000031100000000003200000000000304000000000031200000000003070000000000306000000000031000034000000000000005800000000000001813000000000000000009999123100000010000000000000BRRDNIACNOR9116
012024101702SNSY3       010SANSUY      ON           R$  000000000113700000000012150000000001137000000000119900000000012150000000001060000000000118000002000000000000000500000000000000599700000000000000009999123100000010000000000000BRSNSYACNOR2113
012024101702SNSY5       010SANSUY      PNA          R$  000000000049700000000005050000000000494000000000049800000000004950000000000495000000000050500014000000000000004800000000000002391200000000000000009999123100000010000000000000BRSNSYACNPA5111
012024101702SOJA3       010BOA SAFRA   ON      NM   R$  000000000122500000000012250000000001200000000000120600000000012100000000001208000000000121101958000000000000378800000000000457117900000000000000009999123100000010000000000000BRSOJAACNOR9106
012024101702SRNA3       010SERENA      ON      NM   R$  000000000081600000000008590000000000810000000000084000000000008550000000000854000000000085510203000000000003379600000000002841922900000000000000009999123100000010000000000000BRSRNAACNOR4100
012024101702MGLU3       010MAGAZ LUIZA ON      NM   R$  000000000097000000000009730000000000957000000000096300000000009570000000000957000000000095813607000000000015044300000000014488632300000000000000009999123100000010000000000000BRMGLUACNOR2125
012024101702ODPV3       010ODONTOPREV  ON      NM   R$  000000000103600000000010550000000001023000000000103700000000010550000000001045000000000105503824000000000001004600000000001042071500000000000000009999123100000010000000000000BRODPVACNOR4204
012024101702RDOR3       010REDE D OR   ON      NM   R$  000000000300800000000030220000000002954000000000299200000000030090000000003007000000000301615559000000000006201200000000018555073800000000000000009999123100000010000000000000BRRDORACNOR8114
012024101702BIOM3       010BIOMM       ON      MA   R$  000000000091000000000009140000000000890000000000090100000000008950000000000895000000000089900226000000000000066600000000000060023700000000000000009999123100000010000000000000BRBIOMACNOR2112
012024101702RECV3       010PETRORECSA  ON      NM   R$  000000000175600000000017570000000001727000000000174200000000017500000000001748000000000175005268000000000001274900000000002221828800000000000000009999123100000010000000000000BRRECVACNOR3107
012024101702REDE3       010REDE ENERGIAON           R$  000000000068700000000006880000000000683000000000068500000000006880000000000682000000000068800007000000000000001000000000000000685000000000000000009999123100000010000000000000BRREDEACNOR7128
012024101702RENT3       010LOCALIZA    ON      NM   R$  000000000425800000000042800000000004202000000000424000000000042650000000004264000000000426726224000000000007560500000000032057503700000000000000009999123100000010000000000000BRRENTACNOR4197
012024101702SYNE3       010SYN PROP TECON      NM   R$  000000000077700000000008300000000000768000000000080300000000008280000000000825000000000082801785000000000000962600000000000773694700000000000000009999123100000010000000000000BRSYNEACNOR2103
012024101702LUPA3       010LUPATECH    ON      NM   R$  000000000014100000000001410000000000139000000000013900000000001400000000000140000000000014100076000000000000162600000000000022760800000000000000009999123100000010000000000000BRLUPAACNOR8112
012024101702AZEV3       010AZEVEDO     ON           R$  000000000013100000000001320000000000128000000000013000000000001320000000000130000000000013200395000000000000449800000000000058601100000000000000009999123100000010000000000000BRAZEVACNOR0121
012024101702AZEV4       010AZEVEDO     PN           R$  000000000013000000000001310000000000127000000000012800000000001280000000000127000000000012801035000000000001620400000000000208150900000000000000009999123100000010000000000000BRAZEVACNPR7121
012024101702AZUL4       010AZUL        PN      N2   R$  000000000060500000000006170000000000602000000000060900000000006080000000000608000000000060913879000000000018680700000000011394892900000000000000009999123100000010000000000000BRAZULACNPR4103
012024101702KLBN11      010KLABIN S/A  UNT     N2   R$  000000000203000000000020730000000002009000000000204700000000020530000000002053000000000206012918000000000005897700000000012073370800000000000000009999123100000010000000000000BRKLBNCDAM18143
012024101702MILS3       010MILLS       ON      NM   R$  000000000106400000000010730000000001053000000000106300000000010660000000001062000000000106602511000000000000741200000000000787913300000000000000009999123100000010000000000000BRMILSACNOR2128
012024101702MLAS3       010MULTILASER  ON      NM   R$  000000000016300000000001640000000000157000000000016000000000001580000000000158000000000015902621000000000001828800000000000292631700000000000000009999123100000010000000000000BRMLASACNOR9101
012024101702MNDL3       010MUNDIAL     ON           R$  000000000164100000000016410000000001640000000000164000000000016410000000001640000000000170000004000000000000002200000000000003608200000000000000009999123100000010000000000000BRMNDLACNOR4109
012024101702MNPR3       010MINUPAR     ON           R$  000000000200000000000020000000000001900000000000195900000000020000000000001920000000000205000011000000000000001700000000000003331200000000000000009999123100000010000000000000BRMNPRACNOR5122
012024101702MOVI3       010MOVIDA      ON      NM   R$  000000000058200000000005880000000000571000000000057800000000005850000000000581000000000058509100000000000005585300000000003231658300000000000000009999123100000010000000000000BRMOVIACNOR0122
012024101702MRFG3       010MARFRIG     ON      NM   R$  000000000132600000000013790000000001323000000000136000000000013730000000001370000000000137414726000000000005682000000000007733173600000000000000009999123100000010000000000000BRMRFGACNOR0116
012024101702SCAR3       010SAO CARLOS  ON      NM   R$  000000000216200000000021980000000002102000000000214700000000021020000000002101000000000218900041000000000000005000000000000010739600000000000000009999123100000010000000000000BRSCARACNOR7131
012024101702USIM3       010USIMINAS    ON      N1   R$  000000000060000000000006030000000000593000000000059700000000005980000000000598000000000059901108000000000000397400000000000237373200000000000000009999123100000010000000000000BRUSIMACNOR3167
012024101702USIM5       010USIMINAS    PNA     N1   R$  000000000060900000000006110000000000599000000000060500000000006070000000000606000000000060711485000000000013650500000000008266939500000000000000009999123100000010000000000000BRUSIMACNPA6169
012024101702VBBR3       010VIBRA       ON      NM   R$  000000000227800000000022820000000002244000000000226100000000022640000000002263000000000226514904000000000004238500000000009584269500000000000000009999123100000010000000000000BRVBBRACNOR1109
012024101702PFRM3       010PROFARMA    ON      NM   R$  000000000059200000000005970000000000587000000000059200000000005930000000000587000000000059300355000000000000068400000000000040512600000000000000009999123100000010000000000000BRPFRMACNOR1116
012024101702PGMN3       010PAGUE MENOS ON      NM   R$  000000000028800000000002920000000000285000000000028800000000002870000000000287000000000028800651000000000000222800000000000064207900000000000000009999123100000010000000000000BRPGMNACNOR8103
012024101702PINE3       010PINE        ON  EJS N2   R$  000000000049100000000004910000000000480000000000048500000000004880000000000486000000000048800022000000000000006900000000000003346900000000000000009999123100000010000000000000BRPINEACNOR1152
012024101702PINE4       010PINE        PN  EJS N2   R$  000000000049300000000004980000000000483000000000048800000000004830000000000482000000000048300298000000000000129500000000000063241200000000000000009999123100000010000000000000BRPINEACNPR8152
012024101702PLPL3       010PLANOEPLANO ON      NM   R$  000000000139000000000014210000000001363000000000140700000000014190000000001418000000000141902818000000000000594700000000000837016700000000000000009999123100000010000000000000BRPLPLACNOR5104
012024101702PNVL3       010DIMED       ON      NM   R$  000000000102900000000010290000000001008000000000101400000000010150000000001015000000000102001101000000000000179400000000000182056100000000000000009999123100000010000000000000BRPNVLACNOR9208
012024101702POMO3       010MARCOPOLO   ON      N2   R$  000000000065700000000006600000000000647000000000065200000000006570000000000654000000000065701747000000000000713600000000000465643700000000000000009999123100000010000000000000BRPOMOACNOR0099
012024101702POMO4       010MARCOPOLO   PN      N2   R$  000000000087200000000008830000000000863000000000087700000000008830000000000878000000000088315141000000000007699700000000006757589800000000000000009999123100000010000000000000BRPOMOACNPR7099
012024101702PORT3       010WILSON SONS ON  ED  NM   R$  000000000161200000000017480000000001600000000000169800000000017130000000001710000000000171609594000000000006996400000000011882867500000000000000009999123100000010000000000000BRPORTACNOR8110
012024101702POSI3       010POSITIVO TECON      NM   R$  000000000059600000000006080000000000590000000000060000000000006080000000000608000000000060902189000000000001040200000000000624496900000000000000009999123100000010000000000000BRPOSIACNOR9116
012024101702PRIO3       010PETRORIO    ON      NM   R$  000000000428100000000042960000000004230000000000425600000000042700000000004267000000000427024986000000000006308300000000026848651100000000000000009999123100000010000000000000BRPRIOACNOR1107
012024101702SAPR11      010SANEPAR     UNT     N2   R$  000000000275700000000027960000000002731000000000277000000000027960000000002785000000000279803994000000000000685100000000001898051300000000000000009999123100000010000000000000BRSAPRCDAM13118
012024101702SAPR3       010SANEPAR     ON      N2   R$  000000000051700000000005310000000000516000000000052200000000005310000000000525000000000053100415000000000000099800000000000052155300000000000000009999123100000010000000000000BRSAPRACNOR9159
012024101702SAPR4       010SANEPAR     PN      N2   R$  000000000055800000000005670000000000553000000000056000000000005660000000000565000000000056602105000000000000790600000000000443273100000000000000009999123100000010000000000000BRSAPRACNPR6159
012024101702SBFG3       010GRUPO SBF   ON      NM   R$  000000000143500000000014350000000001355000000000138900000000013550000000001355000000000136210667000000000003902900000000005422920600000000000000009999123100000010000000000000BRSBFGACNOR1103
012024101702SBSP3       010SABESP      ON      NM   R$  000000000917300000000092710000000009080000000000920900000000092590000000009259000000000926116722000000000003245000000000029884919000000000000000009999123100000010000000000000BRSBSPACNOR5161
012024101702TRPL3       010TRAN PAULISTON      N1   R$  000000000314100000000032300000000003140000000000316400000000032300000000003140000000000322200011000000000000001300000000000004113700000000000000009999123100000010000000000000BRTRPLACNOR4185
012024101702TRPL4       010TRAN PAULISTPN      N1   R$  000000000245700000000024590000000002441000000000244700000000024440000000002444000000000244507215000000000001795300000000004394131000000000000000009999123100000010000000000000BRTRPLACNPR1185
012024101702TTEN3       0103TENTOS     ON      NM   R$  000000000105000000000010520000000001029000000000104300000000010520000000001044000000000105203864000000000000621300000000000648623800000000000000009999123100000010000000000000BRTTENACNOR0103
012024101702TUPY3       010TUPY        ON      NM   R$  000000000241500000000024150000000002364000000000237600000000023740000000002373000000000237403174000000000000641900000000001525475600000000000000009999123100000010000000000000BRTUPYACNOR1184
012024101702RSUL4       010RIOSULENSE  PN           R$  000000000623000000000062960000000006202000000000624300000000062960000000006160000000000629600010000000000000001400000000000008740600000000000000009999123100000010000000000000BRRSULACNPR3114
012024101702CAMB3       010CAMBUCI     ON           R$  000000000123600000000012360000000001205000000000121500000000012200000000001220000000000122700183000000000000032100000000000039007400000000000000009999123100000010000000000000BRCAMBACNOR4131
012024101702CAML3       010CAMIL       ON      NM   R$  000000000083600000000008370000000000819000000000082400000000008210000000000820000000000082102049000000000000789400000000000650725600000000000000009999123100000010000000000000BRCAMLACNOR3129
012024101702CASH3       010MELIUZ      ON      NM   R$  000000000035500000000003600000000000351000000000035500000000003530000000000353000000000035401201000000000000617100000000000219448400000000000000009999123100000010000000000000BRCASHACNOR8107
012024101702CBAV3       010CBA         ON      NM   R$  000000000057000000000005760000000000562000000000056700000000005690000000000569000000000057004448000000000003858600000000002190130600000000000000009999123100000010000000000000BRCBAVACNOR5104
012024101702CCRO3       010CCR SA      ON      NM   R$  000000000122400000000012320000000001215000000000122200000000012230000000001223000000000122513204000000000008153400000000009971386500000000000000009999123100000010000000000000BRCCROACNOR2145
012024101702CEAB3       010CEA MODAS   ON      NM   R$  000000000122600000000012500000000001194000000000123100000000012250000000001221000000000122509847000000000003665300000000004513763100000000000000009999123100000010000000000000BRCEABACNOR1102
012024101702AZZA3       010AZZAS 2154  ON      NM   R$  000000000407500000000041220000000004018000000000408100000000041000000000004100000000000410205560000000000001130700000000004614538000000000000000009999123100000010000000000000BRAZZAACNOR9100
012024101702BLAU3       010BLAU        ON      NM   R$  000000000140000000000015180000000001400000000000147900000000015000000000001500000000000150102539000000000000568300000000000840853900000000000000009999123100000010000000000000BRBLAUACNOR8115
012024101702BMEB3       010MERCANTIL   ON      N1   R$  000000000360000000000036790000000003599000000000361500000000036000000000003501000000000360000005000000000000000500000000000001807900000000000000009999123100000010000000000000BRBMEBACNOR8206
012024101702BMEB4       010MERCANTIL   PN      N1   R$  000000000388200000000040870000000003830000000000397000000000040000000000003977000000000400000227000000000000033200000000000131821600000000000000009999123100000010000000000000BRBMEBACNPR5211
012024101702BMGB4       010BANCO BMG   PN      N1   R$  000000000044500000000004510000000000438000000000044700000000004470000000000446000000000044702510000000000000606700000000000271315700000000000000009999123100000010000000000000BRBMGBACNPR0110
012024101702BMKS3       010BIC MONARK  ON           R$  000000003060000000000308000000000030425000000003065100000000308000000000030600000000003096600006000000000000000018000000000000551725000000000000009999123100000010000000000000BRBMKSACNOR9166
012024101702BMOB3       010BEMOBI TECH ON      NM   R$  000000000148200000000015050000000001452000000000148300000000014920000000001491000000000150101005000000000000142600000000000211609700000000000000009999123100000010000000000000BRBMOBACNOR7103
012024101702BRAP3       010BRADESPAR   ON      N1   R$  000000000178000000000017800000000001764000000000177100000000017780000000001773000000000177800280000000000000049300000000000087351500000000000000009999123100000010000000000000BRBRAPACNOR5148
012024101702BRAP4       010BRADESPAR   PN      N1   R$  000000000191400000000019200000000001902000000000191000000000019070000000001906000000000191407205000000000002678100000000005117302300000000000000009999123100000010000000000000BRBRAPACNPR2148
012024101702BRIT3       010BRISANET    ON      NM   R$  000000000030500000000003130000000000305000000000030600000000003100000000000310000000000031200539000000000000571400000000000175406100000000000000009999123100000010000000000000BRBRITACNOR0103
012024101702BRKM3       010BRASKEM     ON      N1   R$  000000000180500000000018140000000001773000000000179800000000018100000000001800000000000182800082000000000000015100000000000027163400000000000000009999123100000010000000000000BRBRKMACNOR1119
012024101702BRKM5       010BRASKEM     PNA     N1   R$  000000000183600000000018360000000001803000000000181900000000018270000000001822000000000182706027000000000002354700000000004284485200000000000000009999123100000010000000000000BRBRKMACNPA4121
012024101702BRKM6       010BRASKEM     PNB     N1   R$  000000000126500000000012650000000001250000000000125500000000012500000000001250000000000129600003000000000000000300000000000000376500000000000000009999123100000010000000000000BRBRKMACNPB2114
012024101702CRPG5       010CRISTAL     PNA          R$  000000000251300000000025150000000002500000000000250800000000025000000000002500000000000253000010000000000000001400000000000003512000000000000000009999123100000010000000000000BRCRPGACNPA3119
012024101702CSAN3       010COSAN       ON      NM   R$  000000000119900000000012010000000001179000000000118700000000011890000000001189000000000119012687000000000010682200000000012688388600000000000000009999123100000010000000000000BRCSANACNOR6126
012024101702GMAT3       010GRUPO MATEUSON      NM   R$  000000000073700000000007530000000000731000000000074500000000007480000000000747000000000074805590000000000002124400000000001583851400000000000000009999123100000010000000000000BRGMATACNOR7103
012024101702GOAU3       010GERDAU MET  ON      N1   R$  000000000102700000000010270000000001009000000000101600000000010250000000001012000000000102500329000000000000072500000000000073690600000000000000009999123100000010000000000000BRGOAUACNOR1268
012024101702GOAU4       010GERDAU MET  PN      N1   R$  000000000102400000000010300000000001016000000000102300000000010300000000001030000000000103108098000000000006281100000000006426515600000000000000009999123100000010000000000000BRGOAUACNPR8269
012024101702GRND3       010GRENDENE    ON      NM   R$  000000000053600000000005380000000000529000000000053300000000005310000000000531000000000053302463000000000000721800000000000384829200000000000000009999123100000010000000000000BRGRNDACNOR3175
012024101702ANIM3       010ANIMA       ON      NM   R$  000000000024900000000002520000000000245000000000024800000000002480000000000248000000000024904427000000000009290300000000002307080800000000000000009999123100000010000000000000BRANIMACNOR6109
012024101702CSNA3       010SID NACIONALON           R$  000000000117100000000011890000000001166000000000117600000000011670000000001167000000000117012339000000000007947200000000009349809300000000000000009999123100000010000000000000BRCSNAACNOR6261
012024101702ENEV3       010ENEVA       ON      NM   R$  000000000141300000000014260000000001406000000000141400000000014130000000001412000000000141323715000000000005525000000000007816825500000000000000009999123100000010000000000000BRENEVACNOR8106
012024101702HBOR3       010HELBOR      ON      NM   R$  000000000018900000000001930000000000187000000000019000000000001890000000000189000000000019100297000000000000419600000000000079734900000000000000009999123100000010000000000000BRHBORACNOR3118
012024101702HBRE3       010HBR REALTY  ON      NM   R$  000000000046400000000004660000000000456000000000045900000000004620000000000459000000000046200630000000000000292100000000000134257800000000000000009999123100000010000000000000BRHBREACNOR4100
012024101702HBSA3       010HIDROVIAS   ON      NM   R$  000000000033200000000003360000000000332000000000033300000000003320000000000332000000000033403030000000000001516000000000000505523100000000000000009999123100000010000000000000BRHBSAACNOR0101
012024101702ARML3       010ARMAC       ON      NM   R$  000000000082200000000008220000000000787000000000080800000000008140000000000805000000000081502250000000000000624400000000000504802800000000000000009999123100000010000000000000BRARMLACNOR1113
012024101702ASAI3       010ASSAI       ON      NM   R$  000000000069800000000007070000000000690000000000069800000000007060000000000705000000000070621955000000000017844000000000012466649000000000000000009999123100000010000000000000BRASAIACNOR0106
012024101702BPAN4       010BANCO PAN   PN      N1   R$  000000000094200000000009510000000000931000000000094500000000009450000000000944000000000094502707000000000000957400000000000905400800000000000000009999123100000010000000000000BRBPANACNPR1115
012024101702CPFE3       010CPFL ENERGIAON      NM   R$  000000000329200000000032950000000003247000000000326500000000032710000000003271000000000327205108000000000000990800000000003235724000000000000000009999123100000010000000000000BRCPFEACNOR0137
012024101702CPLE3       010COPEL       ON      N2   R$  000000000089500000000008980000000000885000000000088800000000008900000000000888000000000089105963000000000003560800000000003164823800000000000000009999123100000010000000000000BRCPLEACNOR8150
012024101702CPLE5       010COPEL       PNA     N2   R$  000000000116700000000011670000000001160000000000116400000000011600000000001151000000000139900006000000000000000800000000000000931500000000000000009999123100000010000000000000BRCPLEACNPA1148
012024101702CPLE6       010COPEL       PNB     N2   R$  000000000100200000000010070000000000990000000000099300000000009930000000000992000000000099414141000000000012516300000000012436826100000000000000009999123100000010000000000000BRCPLEACNPB9147
012024101702CRFB3       010CARREFOUR BRON      NM   R$  000000000072600000000007390000000000720000000000073100000000007290000000000729000000000073011173000000000005945600000000004347477800000000000000009999123100000010000000000000BRCRFBACNOR2116
012024101702EKTR4       010ELEKTRO     PN           R$  000000000454500000000045450000000004300000000000451100000000043000000000004258000000000451500006000000000000001000000000000004511000000000000000009999123100000010000000000000BREKTRACNPR7165
012024101702ELET3       010ELETROBRAS  ON      N1   R$  000000000373700000000038130000000003735000000000379100000000038130000000003803000000000381320619000000000007525600000000028534151300000000000000009999123100000010000000000000BRELETACNOR6160
012024101702ELET6       010ELETROBRAS  PNB     N1   R$  000000000419000000000042330000000004156000000000420900000000042180000000004218000000000422005123000000000000840000000000003535979900000000000000009999123100000010000000000000BRELETACNPB7077
012024101702GGPS3       010GPS         ON      NM   R$  000000000187400000000018760000000001841000000000185900000000018610000000001860000000000186102834000000000000631500000000001174001600000000000000009999123100000010000000000000BRGGPSACNOR9103
012024101702ITUB3       010ITAUUNIBANCOON      N1   R$  000000000304000000000030740000000002999000000000304400000000030410000000003040000000000304802057000000000000460700000000001402701300000000000000009999123100000010000000000000BRITUBACNOR4342
012024101702ITUB4       010ITAUUNIBANCOPN      N1   R$  000000000346900000000035430000000003454000000000350600000000035110000000003508000000000351440588000000000019691800000000069048767000000000000000009999123100000010000000000000BRITUBACNPR1342
012024101702ALOS3       010ALLOS       ON      NM   R$  000000000223800000000022510000000002211000000000223900000000022470000000002246000000000224810120000000000003172900000000007104588900000000000000009999123100000010000000000000BRALOSACNOR5102
012024101702ALPA3       010ALPARGATAS  ON      N1   R$  000000000065900000000006590000000000645000000000065200000000006450000000000648000000000066900011000000000000002800000000000001827200000000000000009999123100000010000000000000BRALPAACNOR0231
012024101702ALPA4       010ALPARGATAS  PN      N1   R$  000000000069500000000006970000000000688000000000069300000000006920000000000690000000000069205216000000000001390400000000000963607100000000000000009999123100000010000000000000BRALPAACNPR7232
012024101702ALPK3       010ESTAPAR     ON      NM   R$  000000000027000000000002790000000000270000000000027500000000002750000000000275000000000027800268000000000000144100000000000039687600000000000000009999123100000010000000000000BRALPKACNOR9101
012024101702ALUP11      010ALUPAR      UNT     N2   R$  000000000293000000000029400000000002899000000000291300000000029200000000002915000000000292404345000000000000824800000000002403255600000000000000009999123100000010000000000000BRALUPCDAM15120
012024101702ALUP3       010ALUPAR      ON      N2   R$  000000000099500000000010120000000000988000000000099400000000009990000000000988000000000101100034000000000000004500000000000004474800000000000000009999123100000010000000000000BRALUPACNOR8120
012024101702ALUP4       010ALUPAR      PN      N2   R$  000000000096200000000009690000000000955000000000096000000000009550000000000955000000000095900114000000000000022000000000000021139100000000000000009999123100000010000000000000BRALUPACNPR5120
012024101702AMAR3       010LOJAS MARISAON      NM   R$  000000000010200000000001020000000000100000000000010100000000001010000000000101000000000010200279000000000000135700000000000013731300000000000000009999123100000010000000000000BRAMARACNOR4115
012024101702AMBP3       010AMBIPAR     ON      NM   R$  000000001380000000000138990000000012702000000001341600000000132840000000013210000000001328401452000000000000222300000000002982525500000000000000009999123100000010000000000000BRAMBPACNOR6103
012024101702BAZA3       010AMAZONIA    ON           R$  000000000911000000000092500000000009001000000000909500000000090450000000009019000000000915000011000000000000001300000000000011824100000000000000009999123100000010000000000000BRBAZAACNOR0179
012024101702BBAS3       010BRASIL      ON      NM   R$  000000000266800000000026830000000002650000000000266900000000026720000000002671000000000267225651000000000012424800000000033163443500000000000000009999123100000010000000000000BRBBASACNOR3326
012024101702BEES3       010BANESTES    ON           R$  000000000088300000000008850000000000881000000000088200000000008840000000000882000000000088400055000000000000007800000000000006885800000000000000009999123100000010000000000000BRBEESACNOR9396
012024101702BEES4       010BANESTES    PN           R$  000000000091200000000009120000000000888000000000089100000000008930000000000890000000000089300065000000000000015700000000000013996400000000000000009999123100000010000000000000BRBEESACNPR6321
012024101702WHRL3       010WHIRLPOOL   ON           R$  000000000041600000000004160000000000416000000000041600000000004160000000000418000000000042400001000000000000000400000000000000166400000000000000009999123100000010000000000000BRWHRLACNOR5129
012024101702WHRL4       010WHIRLPOOL   PN           R$  000000000044100000000004460000000000437000000000044200000000004460000000000441000000000044600021000000000000004000000000000001770800000000000000009999123100000010000000000000BRWHRLACNPR2129
012024101702WIZC3       010WIZ CO      ON      NM   R$  000000000059500000000005950000000000583000000000058900000000005950000000000595000000000059600906000000000000233400000000000137567500000000000000009999123100000010000000000000BRWIZCACNOR5102
012024101702WLMM4       010WLM IND COM PN           R$  000000000324600000000032460000000003243000000000324400000000032430000000003111000000000324400002000000000000000200000000000000648900000000000000009999123100000010000000000000BRWLMMACNPR3119
012024101702BEEF3       010MINERVA     ON      NM   R$  000000000054600000000005490000000000539000000000054400000000005450000000000544000000000054612061000000000008835500000000004810287000000000000000009999123100000010000000000000BRBEEFACNOR6116
012024101702COCE3       010COELCE      ON           R$  000000000291500000000029150000000002915000000000291500000000029150000000002915000000000319900001000000000000000100000000000000291500000000000000009999123100000010000000000000BRCOCEACNOR0146
012024101702COCE5       010COELCE      PNA          R$  000000000273800000000027380000000002690000000000269900000000026900000000002678000000000269000020000000000000002700000000000007289400000000000000009999123100000010000000000000BRCOCEACNPA3147
012024101702COGN3       010COGNA ON    ON      NM   R$  000000000013700000000001380000000000135000000000013600000000001370000000000136000000000013712565000000000017867000000000002437353600000000000000009999123100000010000000000000BRCOGNACNOR2105
012024101702YDUQ3       010YDUQS PART  ON      NM   R$  000000000104200000000010420000000001012000000000102500000000010200000000001019000000000102107688000000000003602000000000003694311300000000000000009999123100000010000000000000BRYDUQACNOR3105
012024101702DASA3       010DASA        ON      NM   R$  000000000029400000000002990000000000291000000000029400000000002970000000000296000000000029701322000000000000311000000000000091560200000000000000009999123100000010000000000000BRDASAACNOR1123
012024101702DESK3       010DESKTOP     ON      NM   R$  000000000135200000000013530000000001326000000000133300000000013280000000001322000000000132800624000000000000107700000000000143671500000000000000009999123100000010000000000000BRDESKACNOR2104
012024101702DEXP3       010DEXXOS PAR  ON      N1   R$  000000000089000000000009020000000000883000000000089200000000008890000000000888000000000089200382000000000000055500000000000049545100000000000000009999123100000010000000000000BRDEXPACNOR1105
012024101702DEXP4       010DEXXOS PAR  PN      N1   R$  000000000088000000000008800000000000880000000000088000000000008800000000000880000000000089700001000000000000000100000000000000088000000000000000009999123100000010000000000000BRDEXPACNPR8105
012024101702DIRR3       010DIRECIONAL  ON      NM   R$  000000000302900000000030330000000002967000000000300300000000030180000000003010000000000301809642000000000001558100000000004679542200000000000000009999123100000010000000000000BRDIRRACNOR0119
012024101702FESA4       010FERBASA     PN      N1   R$  000000000076700000000007690000000000763000000000076400000000007650000000000764000000000076701318000000000000383200000000000292866000000000000000009999123100000010000000000000BRFESAACNPR5085
012024101702FHER3       010FER HERINGERON      NM   R$  000000000037500000000003750000000000372000000000037300000000003750000000000373000000000037500007000000000000001600000000000000598300000000000000009999123100000010000000000000BRFHERACNOR5103
012024101702FIQE3       010UNIFIQUE    ON      NM   R$  000000000038900000000003890000000000380000000000038300000000003850000000000384000000000038500622000000000000325500000000000124759700000000000000009999123100000010000000000000BRFIQEACNOR5107
012024101702FLRY3       010FLEURY      ON      NM   R$  000000000151700000000015170000000001473000000000149000000000014910000000001491000000000149210317000000000003184700000000004745965100000000000000009999123100000010000000000000BRFLRYACNOR5139
012024101702FRAS3       010FRAS-LE     ON      N1   R$  000000000216700000000022130000000002151000000000218800000000022090000000002209000000000221600920000000000000155900000000000341224800000000000000009999123100000010000000000000BRFRASACNOR0160
012024101702FRIO3       010METALFRIO   ON      NM   R$  000000001039900000000110000000000010274000000001050500000000110000000000010600000000001188800007000000000000001800000000000018909500000000000000009999123100000010000000000000BRFRIOACNOR2111
012024101702AALR3       010ALLIAR      ON      NM   R$  000000000138400000000014000000000001338000000000136700000000013380000000001338000000000135100096000000000000011500000000000015721900000000000000009999123100000010000000000000BRAALRACNOR6102
012024101702ABCB4       010ABC BRASIL  PN      N2   R$  000000000210900000000021150000000002082000000000210600000000021140000000002104000000000211402164000000000000338400000000000712847800000000000000009999123100000010000000000000BRABCBACNPR4146
012024101702ABEV3       010AMBEV S/A   ON           R$  000000000127800000000012960000000001275000000000128500000000012860000000001286000000000128720783000000000018266900000000023482830200000000000000009999123100000010000000000000BRABEVACNOR1128
012024101702BBSE3       010BBSEGURIDADEON      NM   R$  000000000338500000000034140000000003368000000000339500000000033990000000003398000000000340912057000000000002910700000000009881830400000000000000009999123100000010000000000000BRBBSEACNOR5125
012024101702CMIN3       010CSNMINERACAOON      N2   R$  000000000058500000000005970000000000578000000000058800000000005940000000000592000000000059408170000000000008813700000000005182660000000000000000009999123100000010000000000000BRCMINACNOR2112
012024101702CXSE3       010CAIXA SEGURION      NM   R$  000000000142700000000014430000000001404000000000142600000000014400000000001439000000000144113352000000000005147800000000007341907300000000000000009999123100000010000000000000BRCXSEACNOR7107
012024101702CYRE3       010CYRELA REALTON      NM   R$  000000000221900000000022280000000002162000000000218900000000021900000000002189000000000220213976000000000006740500000000014755945600000000000000009999123100000010000000000000BRCYREACNOR7140
012024101702ESPA3       010ESPACOLASER ON      NM   R$  000000000009600000000000970000000000094000000000009400000000000960000000000095000000000009600071000000000000208900000000000019836900000000000000009999123100000010000000000000BRESPAACNOR7103
012024101702ESTR4       010ESTRELA     PN           R$  000000000034600000000003790000000000345000000000035000000000003480000000000348000000000037500006000000000000000700000000000000245600000000000000009999123100000010000000000000BRESTRACNPR0144
012024101702ETER3       010ETERNIT     ON      NM   R$  000000000055800000000005580000000000545000000000055100000000005490000000000549000000000055100507000000000000171000000000000094292700000000000000009999123100000010000000000000BRETERACNOR3244
012024101702SANB11      010SANTANDER BRUNT          R$  000000000290400000000029090000000002858000000000288400000000028890000000002889000000000289409831000000000002582000000000007447042100000000000000009999123100000010000000000000BRSANBCDAM13165
012024101702SANB3       010SANTANDER BRON           R$  000000000138600000000013890000000001367000000000137900000000013800000000001375000000000138500256000000000000047000000000000064844200000000000000009999123100000010000000000000BRSANBACNOR8172
012024101702SANB4       010SANTANDER BRPN           R$  000000000151700000000015200000000001494000000000150900000000015200000000001508000000000152100354000000000000064200000000000096897800000000000000009999123100000010000000000000BRSANBACNPR5172
012024101702TECN3       010TECHNOS     ON      NM   R$  000000000055900000000005670000000000552000000000056000000000005600000000000560000000000056100153000000000000094100000000000052765100000000000000009999123100000010000000000000BRTECNACNOR6109
012024101702TELB3       010TELEBRAS    ON           R$  000000000143900000000014500000000001425000000000144400000000014450000000001415000000000144500008000000000000001500000000000002166300000000000000009999123100000010000000000000BRTELBACNOR2140
012024101702TELB4       010TELEBRAS    PN           R$  000000000091600000000009370000000000916000000000092900000000009370000000000921000000000093600009000000000000001000000000000000929100000000000000009999123100000010000000000000BRTELBACNPR9140
012024101702TEND3       010TENDA       ON      NM   R$  000000000137800000000014170000000001335000000000138100000000013900000000001388000000000139008451000000000002637600000000003643632500000000000000009999123100000010000000000000BRTENDACNOR4111
012024101702TFCO4       010TRACK FIELD PN      N2   R$  000000000104200000000010520000000001021000000000104500000000010500000000001039000000000105000285000000000000102500000000000107118700000000000000009999123100000010000000000000BRTFCOACNPR8115
012024101702TGMA3       010TEGMA       ON      NM   R$  000000000273000000000027370000000002678000000000272300000000027350000000002723000000000273700681000000000000112500000000000306413100000000000000009999123100000010000000000000BRTGMAACNOR7145
012024101702TIMS3       010TIM         ON      NM   R$  000000000174500000000017620000000001742000000000175300000000017550000000001752000000000175912028000000000004234000000000007425614900000000000000009999123100000010000000000000BRTIMSACNOR5118
012024101702TOTS3       010TOTVS       ON      NM   R$  000000000280200000000028640000000002793000000000283800000000028370000000002831000000000283912619000000000002651400000000007526089200000000000000009999123100000010000000000000BRTOTSACNOR8145
012024101702TPIS3       010TRIUNFO PARTON      NM   R$  000000000062400000000006240000000000597000000000060800000000006080000000000606000000000060800323000000000000092100000000000056003300000000000000009999123100000010000000000000BRTPISACNOR8118
012024101702TRAD3       010TC          ON      NM   R$  000000000064600000000006470000000000606000000000062900000000006450000000000623000000000064500549000000000000197600000000000124308600000000000000009999123100000010000000000000BRTRADACNOR3102
012024101702TRIS3       010TRISUL      ON      NM   R$  000000000052300000000005310000000000518000000000052400000000005260000000000522000000000052602462000000000000728900000000000382005700000000000000009999123100000010000000000000BRTRISACNOR4118
012024101702ITSA3       010ITAUSA      ON      N1   R$  000000000105800000000010660000000001046000000000105700000000010570000000001056000000000106100191000000000000297600000000000314611300000000000000009999123100000010000000000000BRITSAACNOR0443
012024101702ITSA4       010ITAUSA      PN      N1   R$  000000000105000000000010660000000001042000000000105600000000010580000000001057000000000105816950000000000019216500000000020306102500000000000000009999123100000010000000000000BRITSAACNPR7443
012024101702OFSA3       010OUROFINO S/AON      NM   R$  000000000209000000000021600000000002090000000000215300000000021600000000002075000000000227000006000000000000003300000000000007107000000000000000009999123100000010000000000000BROFSAACNOR7118
012024101702ONCO3       010ONCOCLINICASON      NM   R$  000000000047400000000004840000000000468000000000047800000000004810000000000476000000000048102498000000000001989900000000000952167500000000000000009999123100000010000000000000BRONCOACNOR6101
012024101702OPCT3       010OCEANPACT   ON      NM   R$  000000000069000000000006940000000000671000000000068000000000006810000000000678000000000068101770000000000000531100000000000361206100000000000000009999123100000010000000000000BROPCTACNOR0100
012024101702ORVR3       010ORIZON      ON      NM   R$  000000000464300000000046430000000004584000000000460000000000045910000000004591000000000459501422000000000000255000000000001173104100000000000000009999123100000010000000000000BRORVRACNOR0101
012024101702KRSA3       010KORA SAUDE  ON  EG  NM   R$  000000000044300000000004650000000000443000000000045400000000004600000000000450000000000046300032000000000000021000000000000009549700000000000000009999123100000010000000000000BRKRSAACNOR0101
012024101702MRVE3       010MRV         ON      NM   R$  000000000074200000000007470000000000729000000000073900000000007360000000000736000000000074014727000000000010973300000000008119450000000000000000009999123100000010000000000000BRMRVEACNOR2127
012024101702RADL3       010RAIADROGASILON      NM   R$  000000000253000000000025560000000002521000000000254200000000025340000000002533000000000253915905000000000006594600000000016764114600000000000000009999123100000010000000000000BRRADLACNOR0158
012024101702RAIL3       010RUMO S.A.   ON      NM   R$  000000000189200000000019450000000001892000000000193100000000019450000000001944000000000194621202000000000011670900000000022542434200000000000000009999123100000010000000000000BRRAILACNOR9105
012024101702SLCE3       010SLC AGRICOLAON      NM   R$  000000000172700000000017390000000001712000000000172300000000017170000000001717000000000172907348000000000001651700000000002846585100000000000000009999123100000010000000000000BRSLCEACNOR2125
012024101702VITT3       010VITTIA      ON      NM   R$  000000000054200000000005500000000000533000000000054100000000005500000000000550000000000055101049000000000000238600000000000129257200000000000000009999123100000010000000000000BRVITTACNOR4107
012024101702VIVA3       010VIVARA S.A. ON      NM   R$  000000000263600000000027010000000002613000000000267100000000027010000000002691000000000270108108000000000001638100000000004376418700000000000000009999123100000010000000000000BRVIVAACNOR0107
012024101702VIVR3       010VIVER       ON      NM   R$  000000000017300000000001740000000000168000000000017000000000001680000000000168000000000017100062000000000000023200000000000003963500000000000000009999123100000010000000000000BRVIVRACNOR4123
012024101702VIVT3       010TELEF BRASILON           R$  000000000535600000000054870000000005341000000000544900000000054500000000005450000000000548008568000000000001444100000000007869486300000000000000009999123100000010000000000000BRVIVTACNOR0184
012024101702JHSF3       010JHSF PART   ON      NM   R$  000000000045600000000004580000000000445000000000045200000000004450000000000445000000000044803958000000000002806400000000001270600700000000000000009999123100000010000000000000BRJHSFACNOR2140
012024101702JSLG3       010JSL         ON      NM   R$  000000000078500000000007980000000000763000000000077700000000007630000000000763000000000077102666000000000000625400000000000485982100000000000000009999123100000010000000000000BRJSLGACNOR2121
012024101702KEPL3       010KEPLER WEBERON      NM   R$  000000000092700000000009380000000000914000000000092300000000009280000000000925000000000092805139000000000001762800000000001628594200000000000000009999123100000010000000000000BRKEPLACNOR1064
012024101702UCAS3       010UNICASA     ON      NM   R$  000000000021300000000002160000000000213000000000021400000000002140000000000214000000000021500045000000000000011100000000000002384700000000000000009999123100000010000000000000BRUCASACNOR1113
012024101702UGPA3       010ULTRAPAR    ON      NM   R$  000000000208200000000020950000000002059000000000208000000000020850000000002080000000000208509731000000000003233300000000006727548900000000000000009999123100000010000000000000BRUGPAACNOR8156
012024101702VAMO3       010VAMOS       ON      NM   R$  000000000057900000000005860000000000567000000000057700000000005780000000000578000000000057913572000000000007297200000000004216937200000000000000009999123100000010000000000000BRVAMOACNOR7105
012024101702JALL3       010JALLESMACHADON      NM   R$  000000000061800000000006250000000000612000000000061800000000006190000000000619000000000062101760000000000000526000000000000325375300000000000000009999123100000010000000000000BRJALLACNOR0106
012024101702JBSS3       010JBS         ON      NM   R$  000000000335900000000034610000000003356000000000342700000000034610000000003447000000000346121652000000000005423300000000018590460900000000000000009999123100000010000000000000BRJBSSACNOR8122
012024101702PDGR3       010PDG REALT   ON      NM   R$  000000000000100000000000020000000000001000000000000100000000000010000000000001000000000000200691000000000048671400000000000051913600000000000000009999123100000010000000000000BRPDGRACNOR8119
012024101702PDTC3       010PADTEC      ON      NM   R$  000000000018600000000001880000000000185000000000018500000000001850000000000184000000000018500024000000000000015800000000000002932600000000000000009999123100000010000000000000BRPDTCACNOR3101
012024101702PETR3       010PETROBRAS   ON      N2   R$  000000000405800000000040690000000004036000000000405400000000040590000000004055000000000406011428000000000005131800000000020806769100000000000000009999123100000010000000000000BRPETRACNOR9206
012024101702PETR4       010PETROBRAS   PN      N2   R$  000000000372100000000037210000000003669000000000368600000000036930000000003691000000000369336919000000000022174300000000081754125200000000000000009999123100000010000000000000BRPETRACNPR6214
012024101702ROMI3       010ROMI        ON      NM   R$  000000000106400000000010680000000001048000000000106000000000010600000000001060000000000106400875000000000000166400000000000176397600000000000000009999123100000010000000000000BRROMIACNOR8196
012024101702SEER3       010SER EDUCA   ON      NM   R$  000000000060100000000006050000000000589000000000059700000000005980000000000592000000000059901588000000000000392000000000000234415800000000000000009999123100000010000000000000BRSEERACNOR5119
012024101702SHOW3       010TIME FOR FUNON      NM   R$  000000000009800000000000990000000000096000000000009700000000000970000000000097000000000009800190000000000000075500000000000007360900000000000000009999123100000010000000000000BRSHOWACNOR7105
012024101702SHUL4       010SCHULZ      PN           R$  000000000061900000000006210000000000612000000000061500000000006170000000000615000000000061700849000000000000342400000000000210774700000000000000009999123100000010000000000000BRSHULACNPR4157
012024101702SIMH3       010SIMPAR      ON      NM   R$  000000000051000000000005120000000000501000000000050600000000005080000000000507000000000050806290000000000002805800000000001420780500000000000000009999123100000010000000000000BRSIMHACNOR0107
012024101702UNIP3       010UNIPAR      ON           R$  000000000468100000000046910000000004601000000000464400000000046910000000004659000000000472000047000000000000006300000000000029258000000000000000009999123100000010000000000000BRUNIPACNOR7206
012024101702UNIP5       010UNIPAR      PNA          R$  000000000479900000000048200000000004799000000000481500000000048190000000004640000000000482000013000000000000002100000000000010113100000000000000009999123100000010000000000000BRUNIPACNPA0208
012024101702UNIP6       010UNIPAR      PNB          R$  000000000459900000000046730000000004553000000000461300000000046390000000004636000000000464300961000000000000141900000000000654676100000000000000009999123100000010000000000000BRUNIPACNPB8206
012024101702VALE3       010VALE        ON      NM   R$  000000000610200000000061320000000006064000000000609000000000060760000000006076000000000607945150000000000020345200000000123916277800000000000000009999123100000010000000000000BRVALEACNOR0211
012024101702VLID3       010VALID       ON      NM   R$  000000000233000000000023750000000002274000000000231200000000022740000000002274000000000229003420000000000000546500000000001263611400000000000000009999123100000010000000000000BRVLIDACNOR5144
012024101702VSTE3       010VESTE       ON      NM   R$  000000000099300000000010050000000000993000000000099900000000009940000000000992000000000105000005000000000000000700000000000000699500000000000000009999123100000010000000000000BRVSTEACNOR5103
012024101702HYPE3       010HYPERA      ON      NM   R$  000000000265000000000026620000000002587000000000261300000000025940000000002593000000000259522086000000000006549800000000017116133700000000000000009999123100000010000000000000BRHYPEACNOR0144
012024101702BBDC3       010BRADESCO    ON      N1   R$  000000000131500000000013330000000001299000000000132000000000013290000000001328000000000133010153000000000006833900000000009022686300000000000000009999123100000010000000000000BRBBDCACNOR1776
012024101702BBDC4       010BRADESCO    PN      N1   R$  000000000149400000000015290000000001487000000000151200000000015200000000001518000000000152061228000000000029445500000000044546000300000000000000009999123100000010000000000000BRBBDCACNPR8776
012024101702BOBR4       010BOMBRIL     PN           R$  000000000024500000000002790000000000241000000000026100000000002690000000000266000000000027400380000000000000247300000000000064773800000000000000009999123100000010000000000000BRBOBRACNPR3128
012024101702BRAV3       010BRAVA       ON      NM   R$  000000000170500000000017610000000001681000000000173100000000017570000000001755000000000175715117000000000007873100000000013636173800000000000000009999123100000010000000000000BRBRAVACNOR3100
012024101702BRSR3       010BANRISUL    ON      N1   R$  000000000133700000000013480000000001320000000000133300000000013200000000001316000000000133000073000000000000009900000000000013197000000000000000009999123100000010000000000000BRBRSRACNOR3189
012024101702BRSR6       010BANRISUL    PNB     N1   R$  000000000113000000000011330000000001121000000000112600000000011290000000001123000000000112903359000000000000708800000000000798451200000000000000009999123100000010000000000000BRBRSRACNPB4192
012024101702BSLI3       010BRB BANCO   ON           R$  000000000090600000000009060000000000900000000000090100000000009000000000000899000000000090500004000000000000001500000000000001352700000000000000009999123100000010000000000000BRBSLIACNOR5194
012024101702BSLI4       010BRB BANCO   PN           R$  000000000091600000000009160000000000916000000000091400000000009160000000000916000000000097400005000000000000001100000000000001006000000000000000009999123100000010000000000000BRBSLIACNPR2194
012024101702CSED3       010CRUZEIRO EDUON      NM   R$  000000000033500000000003350000000000325000000000032900000000003300000000000328000000000033000817000000000000269200000000000088733000000000000000009999123100000010000000000000BRCSEDACNOR9105
012024101702CSMG3       010COPASA      ON      NM   R$  000000000220000000000022370000000002170000000000221100000000022090000000002208000000000221706667000000000001307800000000002892540000000000000000009999123100000010000000000000BRCSMGACNOR5175
012024101702ELMD3       010ELETROMIDIA ON      NM   R$  000000000176000000000017670000000001735000000000174700000000017500000000001750000000000175500588000000000000165800000000000289811300000000000000009999123100000010000000000000BRELMDACNOR3101
012024101702EMAE4       010EMAE        PN           R$  000000000393100000000039780000000003929000000000393200000000039760000000003920000000000395000009000000000000001200000000000004719400000000000000009999123100000010000000000000BREMAEACNPR1126
012024101702EMBR3       010EMBRAER     ON      NM   R$  000000000488400000000048990000000004810000000000483500000000048100000000004810000000000482114376000000000004070400000000019680398800000000000000009999123100000010000000000000BREMBRACNOR4191
012024101702GSHP3       010GENERALSHOPPON           R$  000000000088000000000008800000000000880000000000088000000000008800000000000850000000000088000002000000000000000800000000000000704000000000000000009999123100000010000000000000BRGSHPACNOR7102
012024101702GUAR3       010GUARARAPES  ON      NM   R$  000000000080700000000008210000000000792000000000080600000000007980000000000798000000000080202801000000000000905800000000000730798100000000000000009999123100000010000000000000BRGUARACNOR4173
012024101702HAGA3       010HAGA S/A    ON           R$  000000000024700000000002660000000000240000000000025000000000002510000000000249000000000025700057000000000000030500000000000007649800000000000000009999123100000010000000000000BRHAGAACNOR7103
012024101702HAGA4       010HAGA S/A    PN           R$  000000000011800000000001250000000000117000000000012000000000001240000000000122000000000012400064000000000000055000000000000006603100000000000000009999123100000010000000000000BRHAGAACNPR4103
012024101702HAPV3       010HAPVIDA     ON  ATZ NM   R$  000000000038300000000003840000000000372000000000037500000000003720000000000371000000000037210274000000000072248400000000027114924400000000000000009999123100000010000000000000BRHAPVACNOR4115
012024101702ATOM3       010ATOMPAR     ON           R$  000000000026500000000002650000000000248000000000025200000000002480000000000248000000000025400094000000000000024400000000000006160200000000000000009999123100000010000000000000BRATOMACNOR1106
012024101702AURE3       010AUREN       ON      NM   R$  000000000102400000000010350000000001013000000000102700000000010320000000001031000000000103209837000000000004409000000000004530118100000000000000009999123100000010000000000000BRAUREACNOR9104
012024101702AVLL3       010ALPHAVILLE  ON      NM   R$  000000000030400000000003070000000000304000000000030600000000003070000000000281000000000030700008000000000000013700000000000004194300000000000000009999123100000010000000000000BRAVLLACNOR5103
012024101707NUTR3       010NUTRIPLANT  ON      MA   R$  000000000045300000000004570000000000450000000000045300000000004570000000000452000000000045700015000000000000001700000000000000770300000000000000009999123100000010000000000000BRNUTRACNOR0104
012024101707SEQL3       010SEQUOIA LOG ON      NM   R$  000000000030500000000003440000000000293000000000032400000000003230000000000323000000000032602612000000000001956200000000000635591000000000000000009999123100000010000000000000BRSEQLACNOR2103
012024101708NEXP3       010NEXPE       ON           R$  000000000042400000000004250000000000412000000000041900000000004250000000000414000000000043700006000000000000000600000000000000251700000000000000009999123100000010000000000000BRNEXPACNOR0101
012024101708LIGT3       010LIGHT S/A   ON      NM   R$  000000000062400000000006330000000000611000000000062600000000006310000000000625000000000063101609000000000000390000000000000244195900000000000000009999123100000010000000000000BRLIGTACNOR2124
012024101708AGXY3       010AGROGALAXY  ON      NM   R$  000000000005300000000000540000000000052000000000005200000000000520000000000052000000000005300198000000000000135700000000000007143000000000000000009999123100000010000000000000BRAGXYACNOR4103
012024101708CTSA3       010SANTANENSE  ON           R$  000000000021700000000002170000000000217000000000021700000000002170000000000216000000000024700004000000000000000500000000000000108500000000000000009999123100000010000000000000BRCTSAACNOR3062
012024101708CTSA4       010SANTANENSE  PN           R$  000000000011000000000001100000000000110000000000011000000000001100000000000110000000000011200007000000000000004600000000000000506000000000000000009999123100000010000000000000BRCTSAACNPR0062
012024101708PMAM3       010PARANAPANEMAON      NM   R$  000000000012700000000001290000000000122000000000012400000000001270000000000123000000000012700147000000000000152400000000000019021500000000000000009999123100000010000000000000BRPMAMACNOR3040
012024101708RPMG3       010PET MANGUINHON           R$  000000000030300000000003080000000000301000000000030500000000003040000000000302000000000030500042000000000000016100000000000004911500000000000000009999123100000010000000000000BRRPMGACNOR9194
012024101708RSID3       010ROSSI RESID ON      NM   R$  000000000033000000000003300000000000315000000000032900000000003250000000000320000000000032500113000000000000726600000000000239690000000000000000009999123100000010000000000000BRRSIDACNOR8120
012024101708AMER3       010AMERICANAS  ON      NM   R$  000000000037900000000003950000000000374000000000038400000000003950000000000394000000000039502289000000000001655400000000000637036100000000000000009999123100000010000000000000BRAMERACNOR6103
012024101708OIBR3       010OI          ON      N1   R$  000000000043500000000004540000000000435000000000044400000000004410000000000440000000000044100637000000000000496600000000000220586200000000000000009999123100000010000000000000BROIBRACNOR1112
012024101708OIBR4       010OI          PN      N1   R$  000000000103600000000010840000000001023000000000103200000000010300000000001030000000000106500013000000000000002900000000000002994300000000000000009999123100000010000000000000BROIBRACNPR8111
012024101708OSXB3       010OSX BRASIL  ON      NM   R$  000000000046900000000004900000000000452000000000047500000000004690000000000459000000000047000027000000000000008600000000000004093400000000000000009999123100000010000000000000BROSXBACNOR8109
012024101708HOOT4       010HOTEIS OTHONPN           R$  000000000022400000000002240000000000224000000000022400000000002240000000000223000000000022600003000000000000009800000000000002195200000000000000009999123100000010000000000000BRHOOTACNPR9015
012024101708JFEN3       010JOAO FORTES ON           R$  000000000003000000000000320000000000028000000000003000000000000290000000000029000000000003000608000000000003999900000000000120760300000000000000009999123100000010000000000000BRJFENACNOR0059
012024101708RNEW11      010RENOVA      UNT     N2   R$  000000000036300000000003800000000000359000000000036800000000003740000000000366000000000037300077000000000000022500000000000008295700000000000000009999123100000010000000000000BRRNEWCDAM15110
012024101708RNEW3       010RENOVA      ON      N2   R$  000000000012100000000001290000000000120000000000012400000000001240000000000122000000000012400209000000000000176500000000000021924300000000000000009999123100000010000000000000BRRNEWACNOR8110
012024101708RNEW4       010RENOVA      PN      N2   R$  000000000012200000000001280000000000121000000000012400000000001260000000000124000000000012600328000000000000249000000000000031075200000000000000009999123100000010000000000000BRRNEWACNPR5110
012024101708ATMP3       010ATMASA      ON           R$  000000000013900000000001400000000000138000000000013900000000001400000000000138000000000014100017000000000000007200000000000001003000000000000000009999123100000010000000000000BRATMPACNOR8100
012024101710EQTL9       010EQUATORIAL  ON  REC NM   R$  000000000325000000000032720000000003245000000000325200000000032500000000003250000000000331000061000000000000021700000000000070586600000000000000009999123100000010000000000000BREQTLR04OR9130
012024101710PINE1       010PINE        DIR ORD N2   R$  000000000006700000000001100000000000067000000000008900000000000940000000000081000000000009400113000000000000020000000000000001793700000000000000009999123100000010000000000000BRPINED04OR0150
012024101710PINE2       010PINE        DIR PRE N2   R$  000000000004600000000001000000000000046000000000007400000000000650000000000064000000000008900023000000000000004200000000000000312500000000000000009999123100000010000000000000BRPINED06PR2150
012024101710PMAM1       010PARANAPANEMADIR ORD NM   R$  000000000000100000000000010000000000001000000000000100000000000010000000000000000000000000100263000000000000845800000000000000845800000000000000009999123100000010000000000000BRPMAMD05OR9039
012024101710CBEE1       010AMPLA ENERG DIR ORD      R$  000000000003700000000000370000000000037000000000003700000000000370000000000037000000000010000002000000000000000400000000000000014800000000000000009999123100000010000000000000BRCBEED07OR5159
012024101710HBSA1       010HIDROVIAS   DIR ORD NM   R$  000000000000300000000000040000000000002000000000000300000000000030000000000002000000000000300103000000000001459700000000000004486800000000000000009999123100000010000000000000BRHBSAD01OR5100
012024101712NAVT11      010FII NAVI TOTCI  ER       R$  000000000807100000000081550000000007810000000000792500000000078100000000007810000000000790000235000000000000001843000000000014606532000000000000009999123100000010000000000000BRNAVTCTF015143
012024101712NCHB11      010FII NCH BR  CI  ER       R$  000000000088600000000008910000000000868000000000087700000000008700000000000870000000000087200165000000000000008235000000000007229060000000000000009999123100000010000000000000BRNCHBCTF000234
012024101712NCRI11      010FII NAVI CRICI           R$  000000000091000000000009100000000000908000000000090900000000009080000000000908000000000090900010000000000000000011000000000000010003000000000000009999123100000010000000000000BRNCRICTF004122
012024101712NEWL11      010FII NEWPORT CI           R$  000000001088300000000108830000000010728000000001080900000000107490000000010725000000001074900102000000000000000606000000000006550585000000000000009999123100000010000000000000BRNEWLCTF004159
012024101712NEWU11      010FII NEWRU   CI           R$  000000000751200000000077770000000007300000000000763700000000077770000000007401000000000777700012000000000000000028000000000000213842000000000000009999123100000010000000000000BRNEWUCTF005125
012024101712NSLU11      010FII LOURDES CI           R$  000000001716000000000173250000000016907000000001704700000000169980000000016900000000001699900068000000000000000655000000000011166302000000000000009999123100000010000000000000BRNSLUCTF008315
012024101712PULV11      010FII PULV    CI           R$  000000000095600000000009720000000000956000000000095600000000009720000000000956000000000097200002000000000000000020000000000000019136000000000000009999123100000010000000000000BRPULVCTF007105
012024101712PVBI11      010FII VBI PRI CI           R$  000000000833600000000083640000000008310000000000833500000000083210000000008321000000000834007727000000000000044339000000000369585032000000000000009999123100000010000000000000BRPVBICTF003156
012024101712QAGR11      010FII QUASAR ACI           R$  000000000451000000000045780000000004490000000000449900000000045260000000004492000000000452600253000000000000003201000000000014402020000000000000009999123100000010000000000000BRQAGRCTF005159
012024101712PRSN11      010FII PERSONALCI           R$  000000000011600000000001250000000000115000000000011500000000001250000000000116000000000012500010000000000000000199000000000000022965000000000000009999123100000010000000000000BRPRSNCTF005125
012024101712PRSV11      010FII P VARGASCI           R$  000000000592200000000059220000000005922000000000592200000000059220000000005800000000000635000001000000000000000003000000000000017766000000000000009999123100000010000000000000BRPRSVCTF008226
012024101712SMRE11      010FII SMRE    CI           R$  000000001000000000000100100000000010000000000001000100000000100010000000010010000000001032100425000000000000009252000000000092534187000000000000009999123100000010000000000000BRSMRECTF001106
012024101712DPRO11      010FII DEVA PROCI  ER       R$  000000000064400000000006510000000000633000000000064500000000006350000000000603000000000063800018000000000000000028000000000000018066000000000000009999123100000010000000000000BRDPROCTF005128
012024101712LASC11      010FII LEGATUS CI           R$  000000001109100000000110910000000011080000000001108300000000110910000000010962000000001110200008000000000000000042000000000000465525000000000000009999123100000010000000000000BRLASCCTF003157
012024101712LFTT11      010FII LOFT II CI  EA       R$  000000000078000000000010700000000000780000000000088700000000009100000000000851000000000091000024000000000000001912000000000001696375000000000000009999123100000010000000000000BRLFTTCTF004136
012024101712LIFE11      010FII LIFE    CI           R$  000000000099700000000010090000000000992000000000099600000000009930000000000993000000000100200835000000000000061952000000000061762343000000000000009999123100000010000000000000BRLIFECTF017134
012024101712DRIT11      010FII MTGESTAOCI  ER       R$  000000000911600000000091160000000009116000000000911600000000091160000000008501000000000990000001000000000000000001000000000000009116000000000000009999123100000010000000000000BRDRITCTF009257
012024101712DVFF11      010FII DEVA FOFCI  ER       R$  000000000067900000000006790000000000665000000000066900000000006780000000000672000000000067800050000000000000005571000000000003727710000000000000009999123100000010000000000000BRDVFFCTF006142
012024101712VTLT11      010FII VOT LOG CI           R$  000000000930000000000093010000000009212000000000925100000000092360000000009237000000000929800064000000000000000523000000000004838691000000000000009999123100000010000000000000BRVTLTCTF001176
012024101712VVCO11      010FII V2EDCORPCI           R$  000000000127000000000012970000000001264000000000127400000000012970000000001268000000000128100011000000000000000271000000000000345493000000000000009999123100000010000000000000BRVVCOCTF007101
012024101712VVCR11      010FII V2 RECE CI  ER       R$  000000000095600000000009560000000000946000000000095300000000009460000000000946000000000095700002000000000000000012000000000000011442000000000000009999123100000010000000000000BRVVCRCTF000120
012024101712VVRI11      010FII V2 RENDACI  ER       R$  000000000963200000000100460000000009620000000000962500000000100460000000009059000000001004700003000000000000000080000000000000770062000000000000009999123100000010000000000000BRVVRICTF007120
012024101712EDGA11      010FII GALERIA CI           R$  000000000183000000000018340000000001803000000000180800000000018030000000001803000000000181700030000000000000001177000000000002129097000000000000009999123100000010000000000000BREDGACTF001245
012024101712EGDB11      010FII EGDB    CI           R$  000000010341400000001034140000000103414000000010341400000001034140000000103500000000000000000001000000000000000008000000000000827312000000000000009999123100000010000000000000BREGDBCTF009100
012024101712FVPQ11      010FII V PARQUECI           R$  000000000612000000000061590000000005971000000000607400000000060000000000006000000000000602000540000000000000001481000000000008996159000000000000009999123100000010000000000000BRFVPQCTF015263
012024101712ZAGH11      010FII ZAGH    CI  ER       R$  000000000120500000000012050000000001205000000000120500000000012050000000001200000000000120500008000000000000000574000000000000691670000000000000009999123100000010000000000000BRZAGHCTF007109
012024101712ZAVI11      010FII ZAVIT R CI           R$  000000001065000000000106990000000010601000000001062200000000106100000000010610000000001067000230000000000000000717000000000007616314000000000000009999123100000010000000000000BRZAVICTF004125
012024101712GAME11      010FII GUARD MUCI  ER       R$  000000000088200000000008820000000000875000000000087800000000008800000000000878000000000088000438000000000000011136000000000009782498000000000000009999123100000010000000000000BRGAMECTF002136
012024101712GARE11      010FII GUARDIANCI           R$  000000000090000000000009020000000000898000000000089900000000009000000000000899000000000090012967000000000000419025000000000377061343000000000000009999123100000010000000000000BRGARECTF001108
012024101712GCRI11      010FII GLPG CRICI  ER       R$  000000000650000000000065840000000006428000000000649000000000065760000000006512000000000657600840000000000000002799000000000018168122000000000000009999123100000010000000000000BRGCRICTF008148
012024101712AFHI11      010FII AFHI CRICI  ER       R$  000000000947000000000094730000000009450000000000945600000000094700000000009454000000000947000876000000000000009003000000000085133000000000000000009999123100000010000000000000BRAFHICTF005147
012024101712AIEC11      010FII AUTONOMYCI           R$  000000000489600000000049100000000004800000000000486300000000048430000000004840000000000484300657000000000000010243000000000049812411000000000000009999123100000010000000000000BRAIECCTF009149
012024101712AJFI11      010FII AJ MALLSCI  ER       R$  000000000074200000000007480000000000739000000000074100000000007390000000000739000000000074702481000000000000043762000000000032431800000000000000009999123100000010000000000000BRAJFICTF001111
012024101712BARI11      010FII BARIGUI CI           R$  000000000736900000000073700000000007300000000000732700000000073580000000007304000000000736001711000000000000007675000000000056240227000000000000009999123100000010000000000000BRBARICTF003166
012024101712BCFF11      010FII BC FFII CI  ER       R$  000000000074700000000007470000000000740000000000074300000000007440000000000744000000000074514701000000000000717077000000000532964264000000000000009999123100000010000000000000BRBCFFCTF000282
012024101712BCIA11      010FII BCIA    CI           R$  000000000909200000000090920000000009000000000000904400000000090440000000009013000000000904400827000000000000005923000000000053572473000000000000009999123100000010000000000000BRBCIACTF005214
012024101712BCRI11      010FII BEES CRICI           R$  000000000642000000000064910000000006400000000000643300000000064300000000006405000000000643000620000000000000007287000000000046878185000000000000009999123100000010000000000000BRBCRICTF009219
012024101712EURO11      010FII EUROPAR CI           R$  000000002320900000000232090000000022079000000002299400000000230590000000022073000000002306100020000000000000000091000000000002092470000000000000009999123100000010000000000000BREUROCTF011363
012024101712EVBI11      010FII VBI CON CI  ER       R$  000000000090600000000009250000000000906000000000092300000000009250000000000917000000000092500042000000000000003676000000000003396586000000000000009999123100000010000000000000BREVBICTF007154
012024101712EXES11      010FII EXES    CI           R$  000000000096000000000009600000000000941000000000095100000000009600000000000941000000000096000013000000000000000392000000000000373111000000000000009999123100000010000000000000BREXESCTF006129
012024101712ICRI11      010FII CI IPCA CI           R$  000000000930000000000093200000000009240000000000928700000000092470000000009247000000000927000298000000000000010751000000000099847850000000000000009999123100000010000000000000BRICRICTF004108
012024101712IDFI11      010FII UNIDADESCI           R$  000000000028000000000003000000000000190000000000023900000000001920000000000192000000000020100168000000000000013118000000000003143786000000000000009999123100000010000000000000BRIDFICTF007136
012024101712IDGR11      010FII UNID II CI           R$  000000000033400000000004000000000000290000000000034000000000003490000000000330000000000034900012000000000000000045000000000000015320000000000000009999123100000010000000000000BRIDGRCTF006131
012024101712BRCO11      010FII BRESCO  CI           R$  000000001095600000000110050000000010801000000001087900000000108470000000010847000000001084904155000000000000025474000000000277133840000000000000009999123100000010000000000000BRBRCOCTF007161
012024101712BRCR11      010FII BC FUND CI  ER       R$  000000000454200000000045570000000004479000000000451800000000044940000000004494000000000451503191000000000000038483000000000173884296000000000000009999123100000010000000000000BRBRCRCTF000271
