00COTAHIST.2024BOVESPA 20241016                                                                                                                                                                                                                      
012024101602AERI3       010AERIS       ON      NM   R$  000000000063600000000006540000000000629000000000064000000000006390000000000638000000000064500659000000000000227200000000000145618900000000000000009999123100000010000000000000BRAERIACNOR4102
012024101602AESB3       010AES BRASIL  ON      NM   R$  000000000117400000000011770000000001173000000000117500000000011750000000001175000000000117602297000000000002695300000000003167277100000000000000009999123100000010000000000000BRAESBACNOR7107
012024101602AFLT3       010AFLUENTE T  ON           R$  000000000070300000000007050000000000703000000000070400000000007050000000000691000000000071300002000000000000001100000000000000774500000000000000009999123100000010000000000000BRAFLTACNOR1122
012024101602AGRO3       010BRASILAGRO  ON      NM   R$  000000000247400000000024900000000002452000000000247200000000024660000000002466000000000246901256000000000000194100000000000479876900000000000000009999123100000010000000000000BRAGROACNOR7114
012024101602AHEB5       010SPTURIS     PNA          R$  000000000410000000000041000000000004100000000000410000000000041000000000002700000000000450000002000000000000000200000000000000820000000000000000009999123100000010000000000000BRAHEBACNPA3106
012024101602ALLD3       010ALLIED      ON      NM   R$  000000000075000000000007600000000000745000000000075200000000007600000000000755000000000076000088000000000000021000000000000015810800000000000000009999123100000010000000000000BRALLDACNOR3106
012024101602ALOS3       010ALLOS       ON  ED  NM   R$  000000000224900000000022820000000002236000000000225900000000022530000000002253000000000225415451000000000006791200000000015347343500000000000000009999123100000010000000000000BRALOSACNOR5102
012024101602DIRR3       010DIRECIONAL  ON      NM   R$  000000000302000000000030550000000002974000000000302800000000030440000000003034000000000304405364000000000001309800000000003966801700000000000000009999123100000010000000000000BRDIRRACNOR0119
012024101602DMVF3       010D1000VFARMA ON      NM   R$  000000000069000000000006940000000000670000000000067300000000006700000000000670000000000067600272000000000000053800000000000036246400000000000000009999123100000010000000000000BRDMVFACNOR9100
012024101602DOHL4       010DOHLER      PN           R$  000000000041200000000004120000000000410000000000041000000000004100000000000402000000000041100004000000000000000500000000000000205400000000000000009999123100000010000000000000BRDOHLACNPR9066
012024101602DOTZ3       010DOTZ SA     ON      NM   R$  000000000059000000000005900000000000566000000000057300000000005680000000000567000000000057600066000000000000017900000000000010266200000000000000009999123100000010000000000000BRDOTZACNOR7101
012024101602DXCO3       010DEXCO       ON      NM   R$  000000000082800000000008350000000000814000000000082100000000008170000000000816000000000081807166000000000002712100000000002228445800000000000000009999123100000010000000000000BRDXCOACNOR8105
012024101602BAHI3       010BAHEMA      ON      MA   R$  000000000046900000000004900000000000469000000000047800000000004850000000000479000000000048500014000000000000002600000000000001244900000000000000009999123100000010000000000000BRBAHIACNOR1074
012024101602BALM3       010BAUMER      ON           R$  000000000160000000000016000000000001600000000000160000000000016000000000001150000000000155000002000000000000000200000000000000320000000000000000009999123100000010000000000000BRBALMACNOR5055
012024101602BALM4       010BAUMER      PN           R$  000000000102000000000010200000000001020000000000102000000000010200000000001020000000000107800001000000000000000100000000000000102000000000000000009999123100000010000000000000BRBALMACNPR2056
012024101602BAZA3       010AMAZONIA    ON           R$  000000000935000000000093500000000009118000000000916100000000091900000000009110000000000950000021000000000000003300000000000030234500000000000000009999123100000010000000000000BRBAZAACNOR0179
012024101602BBAS3       010BRASIL      ON      NM   R$  000000000265000000000026950000000002636000000000267300000000026760000000002675000000000267638406000000000026028400000000069599930700000000000000009999123100000010000000000000BRBBASACNOR3326
012024101602BEES3       010BANESTES    ON           R$  000000000088400000000008870000000000880000000000088200000000008840000000000884000000000088500091000000000000015400000000000013593500000000000000009999123100000010000000000000BRBEESACNOR9396
012024101602BEES4       010BANESTES    PN           R$  000000000091600000000009160000000000912000000000091300000000009120000000000911000000000091200013000000000000001800000000000001644100000000000000009999123100000010000000000000BRBEESACNPR6321
012024101602FRAS3       010FRAS-LE     ON      N1   R$  000000000211600000000021740000000002105000000000214900000000021670000000002158000000000216802236000000000000654200000000001406424600000000000000009999123100000010000000000000BRFRASACNOR0160
012024101602FRIO3       010METALFRIO   ON      NM   R$  000000001100000000000110000000000011000000000001100000000000110000000000010400000000001190000003000000000000000500000000000005500000000000000000009999123100000010000000000000BRFRIOACNOR2111
012024101602BGIP3       010BANESE      ON           R$  000000000255000000000025500000000002550000000000255000000000025500000000002501000000000000000001000000000000000200000000000000510000000000000000009999123100000010000000000000BRBGIPACNOR1210
012024101602BGIP4       010BANESE      PN           R$  000000000239200000000024000000000002392000000000239600000000024000000000002350000000000240000005000000000000000500000000000001198400000000000000009999123100000010000000000000BRBGIPACNPR8210
012024101602PATI3       010PANATLANTICAON           R$  000000000248500000000024850000000002450000000000246700000000024500000000002352000000000257000002000000000000000200000000000000493500000000000000009999123100000010000000000000BRPATIACNOR6066
012024101602PCAR3       010P.ACUCAR-CBDON      NM   R$  000000000032500000000003320000000000320000000000032600000000003300000000000329000000000033009531000000000011426000000000003732867300000000000000009999123100000010000000000000BRPCARACNOR3167
012024101602PETZ3       010PETZ        ON      NM   R$  000000000050300000000005060000000000495000000000049800000000004950000000000494000000000049508349000000000005479400000000002733138700000000000000009999123100000010000000000000BRPETZACNOR2110
012024101602RAIZ4       010RAIZEN      PN      N2   R$  000000000030100000000003060000000000300000000000030300000000003010000000000301000000000030212491000000000011776600000000003572028800000000000000009999123100000010000000000000BRRAIZACNPR6111
012024101602BHIA3       010CASAS BAHIA ON      NM   R$  000000000044500000000004570000000000437000000000044600000000004500000000000446000000000045002740000000000002190900000000000978893600000000000000009999123100000010000000000000BRBHIAACNOR1102
012024101602BPAC11      010BTGP BANCO  UNT     N2   R$  000000000328900000000033410000000003285000000000331400000000033220000000003319000000000332320012000000000008242000000000027316465300000000000000009999123100000010000000000000BRBPACUNT006119
012024101602BPAC3       010BTGP BANCO  ON      N2   R$  000000000158600000000015900000000001561000000000157800000000015830000000001582000000000159000028000000000000005600000000000008841300000000000000009999123100000010000000000000BRBPACACNOR7134
012024101602BPAC5       010BTGP BANCO  PNA     N2   R$  000000000087300000000008730000000000858000000000086700000000008660000000000862000000000087300012000000000000001700000000000001475000000000000000009999123100000010000000000000BRBPACACNPA0134
012024101602LUPA3       010LUPATECH    ON      NM   R$  000000000014100000000001420000000000139000000000014000000000001420000000000141000000000014200089000000000000074300000000000010459200000000000000009999123100000010000000000000BRLUPAACNOR8112
012024101602LVTC3       010WDC NETWORKSON      NM   R$  000000000036800000000003800000000000368000000000037500000000003800000000000369000000000037900027000000000000014700000000000005525500000000000000009999123100000010000000000000BRLVTCACNOR4102
012024101602LWSA3       010LWSA        ON      NM   R$  000000000044500000000004450000000000434000000000043700000000004350000000000435000000000043612264000000000005935000000000002596359100000000000000009999123100000010000000000000BRLWSAACNOR8103
012024101602GEPA3       010GER PARANAP ON           R$  000000000287900000000028790000000002879000000000287900000000028790000000002681000000000287900001000000000000000100000000000000287900000000000000009999123100000010000000000000BRGEPAACNOR2154
012024101602GEPA4       010GER PARANAP PN           R$  000000000292800000000029280000000002928000000000292800000000029280000000002850000000000292800001000000000000000100000000000000292800000000000000009999123100000010000000000000BRGEPAACNPR9161
012024101602GFSA3       010GAFISA      ON      NM   R$  000000000019000000000001950000000000188000000000019000000000001890000000000188000000000018902014000000000003508000000000000669477200000000000000009999123100000010000000000000BRGFSAACNOR3125
012024101602GGBR3       010GERDAU      ON      N1   R$  000000000163500000000016560000000001628000000000164300000000016300000000001628000000000164600407000000000000068200000000000112091300000000000000009999123100000010000000000000BRGGBRACNOR1193
012024101602GGBR4       010GERDAU      PN      N1   R$  000000000183500000000018530000000001819000000000183000000000018260000000001826000000000182924643000000000014271100000000026122767000000000000000009999123100000010000000000000BRGGBRACNPR8193
012024101602ITSA3       010ITAUSA      ON      N1   R$  000000000106000000000010650000000001058000000000106000000000010580000000001058000000000106000414000000000000094000000000000099720300000000000000009999123100000010000000000000BRITSAACNOR0443
012024101602HAGA3       010HAGA S/A    ON           R$  000000000024100000000002480000000000241000000000024500000000002470000000000242000000000024500012000000000000001400000000000000343700000000000000009999123100000010000000000000BRHAGAACNOR7103
012024101602HAGA4       010HAGA S/A    PN           R$  000000000011600000000001180000000000116000000000011600000000001180000000000116000000000011800020000000000000003400000000000000396300000000000000009999123100000010000000000000BRHAGAACNPR4103
012024101602HAPV3       010HAPVIDA     ON  ATZ NM   R$  000000000038500000000003870000000000378000000000038300000000003860000000000385000000000038639305000000000070440800000000026987824400000000000000009999123100000010000000000000BRHAPVACNOR4115
012024101602HBOR3       010HELBOR      ON      NM   R$  000000000019100000000001920000000000189000000000019000000000001890000000000188000000000019100268000000000000266600000000000050663700000000000000009999123100000010000000000000BRHBORACNOR3118
012024101602HBRE3       010HBR REALTY  ON      NM   R$  000000000046400000000004710000000000455000000000046200000000004640000000000463000000000046400815000000000000265000000000000122510300000000000000009999123100000010000000000000BRHBREACNOR4100
012024101602HBSA3       010HIDROVIAS   ON      NM   R$  000000000032300000000003360000000000323000000000033100000000003330000000000333000000000033602300000000000003937100000000001306920300000000000000009999123100000010000000000000BRHBSAACNOR0101
012024101602NEOE3       010NEOENERGIA  ON      NM   R$  000000000190700000000019280000000001906000000000192300000000019250000000001925000000000192604368000000000002343600000000004507502000000000000000009999123100000010000000000000BRNEOEACNOR3123
012024101602NGRD3       010NEOGRID     ON  EBG NM   R$  000000000309000000000031520000000003016000000000308300000000030610000000003061000000000309900119000000000000019700000000000060749700000000000000009999123100000010000000000000BRNGRDACNOR3106
012024101602NINJ3       010GETNINJAS   ON      NM   R$  000000000045600000000004670000000000456000000000046600000000004670000000000455000000000046700012000000000000353400000000000165028000000000000000009999123100000010000000000000BRNINJACNOR5101
012024101602ITSA4       010ITAUSA      PN      N1   R$  000000000106100000000010650000000001055000000000105900000000010580000000001058000000000105940411000000000040405500000000042815938500000000000000009999123100000010000000000000BRITSAACNPR7443
012024101602BRBI11      010BR PARTNERS UNT     N2   R$  000000000151900000000015320000000001505000000000152000000000015180000000001517000000000152501127000000000000179900000000000273533900000000000000009999123100000010000000000000BRBRBICDAM10110
012024101602BRFS3       010BRF SA      ON      NM   R$  000000000233000000000023610000000002303000000000233500000000023270000000002325000000000233715318000000000004343800000000010145634200000000000000009999123100000010000000000000BRBRFSACNOR8122
012024101602BRIT3       010BRISANET    ON      NM   R$  000000000030500000000003150000000000305000000000030800000000003080000000000308000000000031400326000000000000265200000000000081929900000000000000009999123100000010000000000000BRBRITACNOR0103
012024101602BRKM3       010BRASKEM     ON      N1   R$  000000000180400000000018390000000001804000000000182100000000018310000000001817000000000183500030000000000000003200000000000005830000000000000000009999123100000010000000000000BRBRKMACNOR1119
012024101602BRKM5       010BRASKEM     PNA     N1   R$  000000000186700000000018800000000001843000000000186000000000018600000000001859000000000186507837000000000003040200000000005656493500000000000000009999123100000010000000000000BRBRKMACNPA4121
012024101602COCE5       010COELCE      PNA          R$  000000000269300000000027580000000002672000000000272900000000027580000000002681000000000275800024000000000000002600000000000007096700000000000000009999123100000010000000000000BRCOCEACNPA3147
012024101602COGN3       010COGNA ON    ON      NM   R$  000000000013600000000001410000000000134000000000013700000000001390000000000138000000000013921052000000000032526800000000004482348300000000000000009999123100000010000000000000BRCOGNACNOR2105
012024101602CYRE3       010CYRELA REALTON      NM   R$  000000000221000000000022720000000002189000000000224300000000022400000000002236000000000224025920000000000010553500000000023672681700000000000000009999123100000010000000000000BRCYREACNOR7140
012024101602EZTC3       010EZTEC       ON      NM   R$  000000000142200000000014720000000001415000000000143900000000014330000000001433000000000143414336000000000003033600000000004367048800000000000000009999123100000010000000000000BREZTCACNOR0126
012024101602AALR3       010ALLIAR      ON      NM   R$  000000000139100000000014310000000001375000000000139800000000013750000000001375000000000139300109000000000000015300000000000021398400000000000000009999123100000010000000000000BRAALRACNOR6102
012024101602ABCB4       010ABC BRASIL  PN      N2   R$  000000000210700000000021270000000002097000000000211200000000021090000000002109000000000211601858000000000000275000000000000581045300000000000000009999123100000010000000000000BRABCBACNPR4146
012024101602ABEV3       010AMBEV S/A   ON           R$  000000000128900000000013000000000001285000000000129200000000012940000000001294000000000129531579000000000034342600000000044388988600000000000000009999123100000010000000000000BRABEVACNOR1128
012024101602VALE3       010VALE        ON      NM   R$  000000000619300000000062380000000006158000000000620500000000062340000000006227000000000623448778000000000029731800000000184499321700000000000000009999123100000010000000000000BRVALEACNOR0211
012024101602BEEF3       010MINERVA     ON      NM   R$  000000000055000000000005610000000000546000000000055100000000005490000000000548000000000054916068000000000013340900000000007360118700000000000000009999123100000010000000000000BRBEEFACNOR6116
012024101602PLPL3       010PLANOEPLANO ON      NM   R$  000000000138700000000014050000000001356000000000138100000000014030000000001400000000000140303552000000000000862500000000001191571800000000000000009999123100000010000000000000BRPLPLACNOR5104
012024101602PNVL3       010DIMED       ON      NM   R$  000000000101200000000010300000000001006000000000102000000000010300000000001020000000000103001866000000000000331600000000000338284500000000000000009999123100000010000000000000BRPNVLACNOR9208
012024101602POMO3       010MARCOPOLO   ON      N2   R$  000000000064000000000006570000000000638000000000064700000000006530000000000647000000000065303615000000000001192200000000000772211700000000000000009999123100000010000000000000BRPOMOACNOR0099
012024101602POMO4       010MARCOPOLO   PN      N2   R$  000000000085800000000008770000000000853000000000086800000000008760000000000875000000000087620468000000000011146600000000009678194500000000000000009999123100000010000000000000BRPOMOACNPR7099
012024101602PORT3       010WILSON SONS ON      NM   R$  000000000163400000000016580000000001633000000000164600000000016460000000001643000000000164603173000000000002486100000000004093887200000000000000009999123100000010000000000000BRPORTACNOR8109
012024101602POSI3       010POSITIVO TECON      NM   R$  000000000059700000000006100000000000586000000000060100000000006020000000000602000000000060703134000000000001613400000000000970012400000000000000009999123100000010000000000000BRPOSIACNOR9116
012024101602PRIO3       010PETRORIO    ON      NM   R$  000000000435200000000043670000000004252000000000428800000000042770000000004277000000000427926585000000000014748200000000063246857100000000000000009999123100000010000000000000BRPRIOACNOR1107
012024101602RECV3       010PETRORECSA  ON      NM   R$  000000000176400000000017870000000001742000000000176700000000017650000000001765000000000177012344000000000003689800000000006521349400000000000000009999123100000010000000000000BRRECVACNOR3107
012024101602REDE3       010REDE ENERGIAON           R$  000000000068400000000006870000000000683000000000068400000000006870000000000684000000000068800014000000000000002900000000000001984800000000000000009999123100000010000000000000BRREDEACNOR7128
012024101602RENT3       010LOCALIZA    ON      NM   R$  000000000426100000000043210000000004215000000000428700000000043150000000004306000000000431623395000000000008018600000000034381164800000000000000009999123100000010000000000000BRRENTACNOR4197
012024101602ROMI3       010ROMI        ON      NM   R$  000000000108200000000010870000000001067000000000107100000000010670000000001067000000000108300940000000000000301600000000000323138700000000000000009999123100000010000000000000BRROMIACNOR8196
012024101602TASA3       010TAURUS ARMASON      N2   R$  000000000103600000000010390000000001002000000000102600000000010270000000001026000000000103200097000000000000015100000000000015505800000000000000009999123100000010000000000000BRTASAACNOR7104
012024101602TASA4       010TAURUS ARMASPN      N2   R$  000000000099900000000010100000000000990000000000100200000000010100000000001005000000000101000884000000000000167100000000000167550100000000000000009999123100000010000000000000BRTASAACNPR4104
012024101602TCSA3       010TECNISA     ON      NM   R$  000000000016900000000001700000000000159000000000016200000000001620000000000162000000000016400418000000000000506400000000000082453800000000000000009999123100000010000000000000BRTCSAACNOR3112
012024101602TECN3       010TECHNOS     ON      NM   R$  000000000055800000000005650000000000551000000000055900000000005600000000000558000000000056000189000000000000060700000000000033978900000000000000009999123100000010000000000000BRTECNACNOR6109
012024101602TELB3       010TELEBRAS    ON           R$  000000000154000000000015400000000001399000000000141700000000013990000000001399000000000142000021000000000000002500000000000003544700000000000000009999123100000010000000000000BRTELBACNOR2140
012024101602TELB4       010TELEBRAS    PN           R$  000000000092800000000009280000000000906000000000092100000000009240000000000924000000000093700043000000000000014400000000000013270700000000000000009999123100000010000000000000BRTELBACNPR9140
012024101602TEND3       010TENDA       ON      NM   R$  000000000136600000000014110000000001353000000000138800000000013910000000001391000000000139708059000000000002708100000000003760970900000000000000009999123100000010000000000000BRTENDACNOR4111
012024101602TFCO4       010TRACK FIELD PN      N2   R$  000000000101700000000010500000000001011000000000102800000000010500000000001030000000000105001009000000000000157100000000000161652800000000000000009999123100000010000000000000BRTFCOACNPR8115
012024101602TGMA3       010TEGMA       ON      NM   R$  000000000271000000000027690000000002681000000000273800000000027350000000002734000000000273502176000000000000925300000000002533515900000000000000009999123100000010000000000000BRTGMAACNOR7145
012024101602TIMS3       010TIM         ON      NM   R$  000000000172700000000017670000000001708000000000175300000000017650000000001762000000000176523073000000000011428000000000020037000100000000000000009999123100000010000000000000BRTIMSACNOR5118
012024101602TOTS3       010TOTVS       ON      NM   R$  000000000278300000000028710000000002753000000000284100000000028600000000002837000000000286116015000000000004151900000000011797590500000000000000009999123100000010000000000000BRTOTSACNOR8145
012024101602GMAT3       010GRUPO MATEUSON      NM   R$  000000000073800000000007470000000000725000000000073800000000007460000000000745000000000074708937000000000003751900000000002772232100000000000000009999123100000010000000000000BRGMATACNOR7103
012024101602GOAU3       010GERDAU MET  ON      N1   R$  000000000102900000000010300000000001022000000000102600000000010260000000001026000000000103000154000000000000030000000000000030797500000000000000009999123100000010000000000000BRGOAUACNOR1268
012024101602GOAU4       010GERDAU MET  PN      N1   R$  000000000104400000000010470000000001032000000000103600000000010320000000001032000000000103411689000000000008966000000000009295462000000000000000009999123100000010000000000000BRGOAUACNPR8269
012024101602ITUB3       010ITAUUNIBANCOON      N1   R$  000000000305000000000030540000000003021000000000303200000000030360000000003030000000000303601887000000000001025700000000003110213200000000000000009999123100000010000000000000BRITUBACNOR4342
012024101602ITUB4       010ITAUUNIBANCOPN      N1   R$  000000000352500000000035270000000003485000000000350400000000035040000000003503000000000350552196000000000034988700000000122605001500000000000000009999123100000010000000000000BRITUBACNPR1342
012024101602YDUQ3       010YDUQS PART  ON      NM   R$  000000000102200000000010800000000001021000000000105300000000010580000000001058000000000106013506000000000005184100000000005462559400000000000000009999123100000010000000000000BRYDUQACNOR3105
012024101602CEAB3       010CEA MODAS   ON      NM   R$  000000000116400000000012490000000001159000000000121700000000012360000000001236000000000123911321000000000004315800000000005255158400000000000000009999123100000010000000000000BRCEABACNOR1102
012024101602CEBR3       010CEB         ON           R$  000000000186200000000018710000000001802000000000183100000000018310000000001831000000000183900053000000000000011900000000000021796900000000000000009999123100000010000000000000BRCEBRACNOR5125
012024101602CEBR5       010CEB         PNA          R$  000000000163500000000016670000000001611000000000165500000000016670000000001602000000000166100007000000000000001500000000000002482800000000000000009999123100000010000000000000BRCEBRACNPA8124
012024101602CEBR6       010CEB         PNB          R$  000000000177000000000017730000000001753000000000175900000000017600000000001760000000000177300027000000000000007800000000000013727700000000000000009999123100000010000000000000BRCEBRACNPB6124
012024101602CEDO4       010CEDRO       PN      N1   R$  000000000224000000000022400000000002240000000000224000000000022400000000002240000000000237400001000000000000000200000000000000448000000000000000009999123100000010000000000000BRCEDOACNPR5128
012024101602CEEB3       010COELBA      ON           R$  000000000370100000000039900000000003701000000000384500000000039900000000003851000000000399000002000000000000000200000000000000769100000000000000009999123100000010000000000000BRCEEBACNOR3200
012024101602CGAS5       010COMGAS      PNA          R$  000000001279900000000127990000000012488000000001264300000000124880000000012487000000001280000002000000000000000200000000000002528700000000000000009999123100000010000000000000BRCGASACNPA3161
012024101602CGRA3       010GRAZZIOTIN  ON           R$  000000000250200000000025020000000002500000000000250000000000025000000000002500000000000255000005000000000000000600000000000001500400000000000000009999123100000010000000000000BRCGRAACNOR2083
012024101602CGRA4       010GRAZZIOTIN  PN           R$  000000000251200000000025300000000002512000000000251700000000025120000000002510000000000252100010000000000000001000000000000002517600000000000000009999123100000010000000000000BRCGRAACNPR9083
012024101602CLSA3       010CLEARSALE   ON      NM   R$  000000000095200000000009530000000000942000000000094600000000009420000000000942000000000094301571000000000001044300000000000988713900000000000000009999123100000010000000000000BRCLSAACNOR0100
012024101602CLSC4       010CELESC      PN      N2   R$  000000000811900000000081200000000007980000000000802200000000080830000000007984000000000812000023000000000000002900000000000023266100000000000000009999123100000010000000000000BRCLSCACNPR3132
012024101602CMIG3       010CEMIG       ON      N1   R$  000000000141900000000014330000000001413000000000142600000000014330000000001423000000000143300510000000000000108300000000000154447400000000000000009999123100000010000000000000BRCMIGACNOR6244
012024101602CMIG4       010CEMIG       PN      N1   R$  000000000111300000000011230000000001103000000000111300000000011150000000001114000000000111515803000000000013196600000000014699239000000000000000009999123100000010000000000000BRCMIGACNPR3245
012024101602CSUD3       010CSU DIGITAL ON      NM   R$  000000000172200000000017220000000001702000000000171300000000017200000000001708000000000172000119000000000000025000000000000042831500000000000000009999123100000010000000000000BRCSUDACNOR5111
012024101602CTKA3       010KARSTEN     ON           R$  000000000195000000000019500000000001950000000000195000000000019500000000001800000000000195000001000000000000000100000000000000195000000000000000009999123100000010000000000000BRCTKAACNOR0043
012024101602CTKA4       010KARSTEN     PN           R$  000000000188000000000019600000000001875000000000189500000000019000000000001875000000000195000006000000000000001400000000000002653500000000000000009999123100000010000000000000BRCTKAACNPR7043
012024101602CURY3       010CURY S/A    ON  ED  NM   R$  000000000224300000000023210000000002239000000000230400000000023120000000002311000000000231207382000000000002808300000000006471635200000000000000009999123100000010000000000000BRCURYACNOR3110
012024101602CVCB3       010CVC BRASIL  ON      NM   R$  000000000018500000000001880000000000183000000000018500000000001860000000000185000000000018607186000000000008302300000000001538751000000000000000009999123100000010000000000000BRCVCBACNOR1116
012024101602ENEV3       010ENEVA       ON      NM   R$  000000000143700000000014380000000001414000000000142800000000014310000000001431000000000143222471000000000007632200000000010904431200000000000000009999123100000010000000000000BRENEVACNOR8106
012024101602ENGI11      010ENERGISA    UNT     N2   R$  000000000442200000000044660000000004355000000000442700000000044310000000004430000000000443111320000000000004600900000000020370161600000000000000009999123100000010000000000000BRENGICDAM16136
012024101602ENGI3       010ENERGISA    ON      N2   R$  000000000131800000000013290000000001316000000000132000000000013190000000001301000000000133500039000000000000008700000000000011488600000000000000009999123100000010000000000000BRENGIACNOR0146
012024101602ENGI4       010ENERGISA    PN      N2   R$  000000000076900000000007920000000000766000000000077700000000007720000000000769000000000077900032000000000000006400000000000004975500000000000000009999123100000010000000000000BRENGIACNPR7142
012024101602IBOV11      010IBOVESPA    IBO          R$  000001318570000000131857000000013185700000001318570000000131857000000000000000000000000000000449000000000000101933000001344057958100000000000000009999123100000010000000000000BRIBOVINDM18012
012024101602ALPA3       010ALPARGATAS  ON      N1   R$  000000000068100000000006810000000000654000000000066200000000006540000000000654000000000066100005000000000000000900000000000000596100000000000000009999123100000010000000000000BRALPAACNOR0231
012024101602ALPA4       010ALPARGATAS  PN      N1   R$  000000000069200000000007060000000000689000000000070000000000007030000000000703000000000070506849000000000003062900000000002146269500000000000000009999123100000010000000000000BRALPAACNPR7232
012024101602ALPK3       010ESTAPAR     ON      NM   R$  000000000026700000000002800000000000266000000000027400000000002750000000000275000000000027800286000000000000206200000000000056662600000000000000009999123100000010000000000000BRALPKACNOR9101
012024101602ALUP11      010ALUPAR      UNT     N2   R$  000000000298000000000029850000000002920000000000294600000000029530000000002926000000000295304645000000000001171600000000003452116800000000000000009999123100000010000000000000BRALUPCDAM15120
012024101602ALUP3       010ALUPAR      ON      N2   R$  000000000101700000000010300000000001000000000000101400000000010000000000000995000000000101000038000000000000004400000000000004463200000000000000009999123100000010000000000000BRALUPACNOR8120
012024101602ALUP4       010ALUPAR      PN      N2   R$  000000000097400000000009740000000000961000000000097000000000009610000000000961000000000096900092000000000000016200000000000015725600000000000000009999123100000010000000000000BRALUPACNPR5120
012024101602AMAR3       010LOJAS MARISAON      NM   R$  000000000010100000000001030000000000101000000000010100000000001010000000000101000000000010200283000000000000077800000000000007893900000000000000009999123100000010000000000000BRAMARACNOR4115
012024101602AMBP3       010AMBIPAR     ON      NM   R$  000000001418100000000146000000000013800000000001421200000000138000000000013780000000001380001317000000000000215200000000003058574300000000000000009999123100000010000000000000BRAMBPACNOR6103
012024101602BPAN4       010BANCO PAN   PN      N1   R$  000000000094200000000009510000000000925000000000094000000000009480000000000948000000000094905572000000000004427700000000004164150600000000000000009999123100000010000000000000BRBPANACNPR1115
012024101602BRAP3       010BRADESPAR   ON      N1   R$  000000000177900000000018010000000001779000000000179100000000017940000000001794000000000179500349000000000000051900000000000092978400000000000000009999123100000010000000000000BRBRAPACNOR5148
012024101602BRAP4       010BRADESPAR   PN      N1   R$  000000000194300000000019560000000001932000000000194400000000019470000000001945000000000194909027000000000002971000000000005777998500000000000000009999123100000010000000000000BRBRAPACNPR2148
012024101602CSED3       010CRUZEIRO EDUON      NM   R$  000000000032300000000003360000000000323000000000032800000000003360000000000331000000000033600898000000000000365300000000000120155600000000000000009999123100000010000000000000BRCSEDACNOR9105
012024101602CSMG3       010COPASA      ON      NM   R$  000000000220500000000022060000000002184000000000219800000000022000000000002199000000000220105974000000000002619600000000005758723700000000000000009999123100000010000000000000BRCSMGACNOR5175
012024101602CSNA3       010SID NACIONALON           R$  000000000118100000000012050000000001172000000000119100000000011940000000001193000000000119516975000000000015783700000000018808249300000000000000009999123100000010000000000000BRCSNAACNOR6261
012024101602ELMD3       010ELETROMIDIA ON      NM   R$  000000000178000000000017810000000001724000000000175500000000017530000000001751000000000176100479000000000000082100000000000144121500000000000000009999123100000010000000000000BRELMDACNOR3101
012024101602EMAE4       010EMAE        PN           R$  000000000394200000000039950000000003930000000000395700000000039790000000003929000000000396900007000000000000001000000000000003957200000000000000009999123100000010000000000000BREMAEACNPR1126
012024101602EMBR3       010EMBRAER     ON      NM   R$  000000000465000000000048790000000004622000000000481400000000048770000000004875000000000487734439000000000010075200000000048506406200000000000000009999123100000010000000000000BREMBRACNOR4191
012024101602HYPE3       010HYPERA      ON      NM   R$  000000000271500000000027340000000002669000000000268600000000026760000000002672000000000267623509000000000007498100000000020140350900000000000000009999123100000010000000000000BRHYPEACNOR0144
012024101602JALL3       010JALLESMACHADON      NM   R$  000000000061100000000006260000000000611000000000061900000000006190000000000619000000000062301841000000000001004000000000000621907900000000000000009999123100000010000000000000BRJALLACNOR0106
012024101602JBSS3       010JBS         ON      NM   R$  000000000336700000000034340000000003311000000000339300000000034090000000003402000000000341038110000000000011127100000000037760695800000000000000009999123100000010000000000000BRJBSSACNOR8122
012024101602CRFB3       010CARREFOUR BRON      NM   R$  000000000072900000000007460000000000721000000000073400000000007410000000000740000000000074118175000000000010621900000000007798224300000000000000009999123100000010000000000000BRCRFBACNOR2116
012024101602CRPG5       010CRISTAL     PNA          R$  000000000257000000000025700000000002505000000000254100000000025400000000002501000000000258000018000000000000002300000000000005846500000000000000009999123100000010000000000000BRCRPGACNPA3119
012024101602CSAN3       010COSAN       ON      NM   R$  000000000121300000000012180000000001197000000000120800000000012060000000001206000000000120819599000000000013745000000000016614822200000000000000009999123100000010000000000000BRCSANACNOR6126
012024101602EKTR4       010ELEKTRO     PN           R$  000000000454300000000045430000000004543000000000454300000000045430000000004235000000000454500001000000000000000100000000000000454300000000000000009999123100000010000000000000BREKTRACNPR7165
012024101602ELET3       010ELETROBRAS  ON      N1   R$  000000000385700000000038570000000003795000000000381700000000038120000000003810000000000381330429000000000014134500000000053963252400000000000000009999123100000010000000000000BRELETACNOR6160
012024101602ELET6       010ELETROBRAS  PNB     N1   R$  000000000427200000000042720000000004213000000000423100000000042290000000004228000000000423106930000000000001262400000000005342352200000000000000009999123100000010000000000000BRELETACNPB7077
012024101602GRND3       010GRENDENE    ON      NM   R$  000000000054300000000005490000000000538000000000053900000000005380000000000537000000000053802370000000000002065900000000001115307000000000000000009999123100000010000000000000BRGRNDACNOR3175
012024101602GSHP3       010GENERALSHOPPON           R$  000000000088000000000008800000000000880000000000088000000000008800000000000880000000000159900001000000000000000100000000000000088000000000000000009999123100000010000000000000BRGSHPACNOR7102
012024101602GUAR3       010GUARARAPES  ON      NM   R$  000000000080100000000008180000000000794000000000080900000000008180000000000818000000000081903094000000000001063900000000000860940700000000000000009999123100000010000000000000BRGUARACNOR4173
012024101602B3SA3       010B3          ON      NM   R$  000000000108500000000011010000000001075000000000109000000000010980000000001093000000000109828390000000000041240600000000044989751500000000000000009999123100000010000000000000BRB3SAACNOR6134
012024101602BBSE3       010BBSEGURIDADEON      NM   R$  000000000339600000000034210000000003367000000000340100000000034040000000003403000000000340417487000000000006619700000000022514829700000000000000009999123100000010000000000000BRBBSEACNOR5125
012024101602BSLI3       010BRB BANCO   ON           R$  000000000092100000000009210000000000921000000000092100000000009210000000000932000000000095800001000000000000000100000000000000092100000000000000009999123100000010000000000000BRBSLIACNOR5194
012024101602BSLI4       010BRB BANCO   PN           R$  000000000094900000000009490000000000949000000000094900000000009490000000000878000000000092800001000000000000000100000000000000094900000000000000009999123100000010000000000000BRBSLIACNPR2194
012024101602CAMB3       010CAMBUCI     ON           R$  000000000124000000000012490000000001238000000000124200000000012410000000001241000000000124500031000000000000005900000000000007328200000000000000009999123100000010000000000000BRCAMBACNOR4131
012024101602CAML3       010CAMIL       ON      NM   R$  000000000081600000000008480000000000809000000000083300000000008480000000000836000000000084801544000000000000958700000000000798839300000000000000009999123100000010000000000000BRCAMLACNOR3129
012024101602CASH3       010MELIUZ      ON      NM   R$  000000000036300000000003650000000000356000000000036100000000003590000000000359000000000036200928000000000000417000000000000150705600000000000000009999123100000010000000000000BRCASHACNOR8107
012024101602CBAV3       010CBA         ON      NM   R$  000000000059000000000005970000000000580000000000058700000000005830000000000583000000000058503431000000000002053000000000001205805900000000000000009999123100000010000000000000BRCBAVACNOR5104
012024101602CCRO3       010CCR SA      ON      NM   R$  000000000122900000000012450000000001228000000000123600000000012410000000001237000000000124112363000000000010471400000000012943967500000000000000009999123100000010000000000000BRCCROACNOR2145
012024101602CPFE3       010CPFL ENERGIAON      NM   R$  000000000329200000000032920000000003260000000000327700000000032870000000003280000000000328911631000000000002676300000000008772056200000000000000009999123100000010000000000000BRCPFEACNOR0137
012024101602CPLE3       010COPEL       ON      N2   R$  000000000090300000000009060000000000895000000000090200000000009030000000000900000000000090304988000000000005074600000000004577528700000000000000009999123100000010000000000000BRCPLEACNOR8150
012024101602CPLE6       010COPEL       PNB     N2   R$  000000000101300000000010130000000001002000000000100600000000010080000000001007000000000100818444000000000026379000000000026554399700000000000000009999123100000010000000000000BRCPLEACNPB9147
012024101602TAEE11      010TAESA       UNT     N2   R$  000000000348000000000035340000000003473000000000350500000000035010000000003501000000000350311689000000000006705200000000023502755300000000000000009999123100000010000000000000BRTAEECDAM10148
012024101602TAEE3       010TAESA       ON      N2   R$  000000000115900000000011710000000001159000000000116600000000011680000000001165000000000116800283000000000000051300000000000059817700000000000000009999123100000010000000000000BRTAEEACNOR9148
012024101602TAEE4       010TAESA       PN      N2   R$  000000000116600000000011780000000001165000000000117200000000011700000000001170000000000117100461000000000000106800000000000125196000000000000000009999123100000010000000000000BRTAEEACNPR6148
012024101602MATD3       010MATER DEI   ON      NM   R$  000000000043300000000004440000000000432000000000043700000000004410000000000438000000000044100776000000000000253600000000000110987400000000000000009999123100000010000000000000BRMATDACNOR4104
012024101602MBLY3       010MOBLY       ON      NM   R$  000000000021500000000002160000000000213000000000021500000000002150000000000214000000000021500342000000000000307800000000000066241500000000000000009999123100000010000000000000BRMBLYACNOR5100
012024101602NORD3       010NORDON MET  ON           R$  000000000076000000000007900000000000746000000000076600000000007900000000000790000000000087800013000000000000002000000000000001533100000000000000009999123100000010000000000000BRNORDACNOR7135
012024101602NTCO3       010GRUPO NATURAON      NM   R$  000000000152000000000015300000000001507000000000151600000000015110000000001507000000000151116722000000000007164900000000010864225500000000000000009999123100000010000000000000BRNTCOACNOR5106
012024101602RAIL3       010RUMO S.A.   ON      NM   R$  000000000189800000000019380000000001878000000000191500000000019250000000001922000000000192625230000000000013468400000000025794873900000000000000009999123100000010000000000000BRRAILACNOR9105
012024101602SMFT3       010SMART FIT   ON      NM   R$  000000000228000000000023380000000002258000000000231600000000023290000000002325000000000232908617000000000003154200000000007306680000000000000000009999123100000010000000000000BRSMFTACNOR1112
012024101602SMLL11      010SMALL CAP   SML)         R$  000000020330000000002033000000000203300000000020330000000002033000000000000000000000000000000006000000000000004890000000000099413700000000000000009999123100000100000000000000BRSMLLINDM18100
012024101602SMTO3       010SAO MARTINHOON      NM   R$  000000000268000000000027060000000002647000000000266400000000026470000000002647000000000265505426000000000001232600000000003283822800000000000000009999123100000010000000000000BRSMTOACNOR3127
012024101602SNSY3       010SANSUY      ON           R$  000000000114900000000011950000000001066000000000112900000000011300000000001030000000000113000025000000000000006100000000000006889300000000000000009999123100000010000000000000BRSNSYACNOR2113
012024101602SNSY5       010SANSUY      PNA          R$  000000000051900000000005190000000000495000000000050200000000004950000000000495000000000050700018000000000000007200000000000003617100000000000000009999123100000010000000000000BRSNSYACNPA5111
012024101602SOJA3       010BOA SAFRA   ON      NM   R$  000000000121000000000012430000000001209000000000123300000000012360000000001230000000000123602507000000000001513100000000001865950600000000000000009999123100000010000000000000BRSOJAACNOR9106
012024101602SRNA3       010SERENA      ON      NM   R$  000000000080500000000008310000000000797000000000081600000000008210000000000817000000000082108682000000000002965600000000002421013700000000000000009999123100000010000000000000BRSRNAACNOR4100
012024101602PDGR3       010PDG REALT   ON      NM   R$  000000000000100000000000020000000000001000000000000100000000000010000000000001000000000000200774000000000073448500000000000078372200000000000000009999123100000010000000000000BRPDGRACNOR8119
012024101602PDTC3       010PADTEC      ON      NM   R$  000000000018800000000001890000000000185000000000018600000000001880000000000186000000000018800025000000000000009100000000000001701200000000000000009999123100000010000000000000BRPDTCACNOR3101
012024101602PETR3       010PETROBRAS   ON      N2   R$  000000000410500000000041250000000004073000000000408300000000040780000000004078000000000407917759000000000018678900000000076267241600000000000000009999123100000010000000000000BRPETRACNOR9206
012024101602PETR4       010PETROBRAS   PN      N2   R$  000000000375500000000037580000000003719000000000373300000000037210000000003721000000000372234140000000000023041200000000086015601400000000000000009999123100000010000000000000BRPETRACNPR6214
012024101602RAPT3       010RANDON PART ON      N1   R$  000000000090200000000010240000000000902000000000098200000000009500000000000949000000000095001058000000000000320800000000000315245500000000000000009999123100000010000000000000BRRAPTACNOR7163
012024101602RAPT4       010RANDON PART PN      N1   R$  000000000113000000000011820000000001121000000000116500000000011670000000001166000000000116911900000000000005580700000000006504682800000000000000009999123100000010000000000000BRRAPTACNPR4163
012024101602RCSL3       010RECRUSUL    ON           R$  000000000045100000000004620000000000446000000000045200000000004500000000000449000000000045001141000000000000503200000000000227692200000000000000009999123100000010000000000000BRRCSLACNOR4134
012024101602RCSL4       010RECRUSUL    PN           R$  000000000013400000000001450000000000129000000000013900000000001390000000000139000000000014105207000000000004921100000000000684726900000000000000009999123100000010000000000000BRRCSLACNPR1134
012024101602RDNI3       010RNI         ON      NM   R$  000000000031100000000003150000000000311000000000031100000000003150000000000311000000000031500009000000000000001100000000000000342700000000000000009999123100000010000000000000BRRDNIACNOR9116
012024101602RDOR3       010REDE D OR   ON      NM   R$  000000000300300000000030740000000002978000000000303900000000030540000000003042000000000305422620000000000006185200000000018801459400000000000000009999123100000010000000000000BRRDORACNOR8114
012024101602SYNE3       010SYN PROP TECON      NM   R$  000000000078100000000007820000000000770000000000077600000000007780000000000772000000000077803066000000000001450300000000001126312400000000000000009999123100000010000000000000BRSYNEACNOR2103
012024101602STBP3       010SANTOS BRP  ON      NM   R$  000000000147600000000014760000000001468000000000147100000000014730000000001470000000000147311168000000000008837300000000013003891800000000000000009999123100000010000000000000BRSTBPACNOR3131
012024101602WEST3       010WESTWING    ON      NM   R$  000000000007600000000000820000000000076000000000007800000000000810000000000081000000000008200073000000000000159100000000000012463400000000000000009999123100000010000000000000BRWESTACNOR3100
012024101602WHRL3       010WHIRLPOOL   ON           R$  000000000042300000000004250000000000416000000000041900000000004160000000000418000000000042400024000000000000003700000000000001553000000000000000009999123100000010000000000000BRWHRLACNOR5129
012024101602WHRL4       010WHIRLPOOL   PN           R$  000000000044300000000004460000000000441000000000044400000000004430000000000443000000000044600016000000000000003400000000000001509600000000000000009999123100000010000000000000BRWHRLACNPR2129
012024101602WIZC3       010WIZ CO      ON      NM   R$  000000000060500000000006050000000000592000000000059700000000005980000000000595000000000059800919000000000000230300000000000137665000000000000000009999123100000010000000000000BRWIZCACNOR5102
012024101602WLMM4       010WLM IND COM PN           R$  000000000312100000000032250000000003120000000000317500000000032190000000003111000000000322000008000000000000000900000000000002858300000000000000009999123100000010000000000000BRWLMMACNPR3119
012024101602MDIA3       010M.DIASBRANCOON      NM   R$  000000000248900000000025010000000002462000000000248500000000024860000000002485000000000249605747000000000001367500000000003399443600000000000000009999123100000010000000000000BRMDIAACNOR7136
012024101602MDNE3       010MOURA DUBEUXON      NM   R$  000000000153900000000015600000000001517000000000153600000000015280000000001520000000000153002533000000000000514800000000000791040200000000000000009999123100000010000000000000BRMDNEACNOR9100
012024101602MEAL3       010IMC S/A     ON      NM   R$  000000000013800000000001380000000000136000000000013700000000001360000000000136000000000013700128000000000000147900000000000020266000000000000000009999123100000010000000000000BRMEALACNOR9105
012024101602MELK3       010MELNICK     ON      NM   R$  000000000036000000000003690000000000360000000000036500000000003670000000000365000000000036800405000000000000332100000000000121367900000000000000009999123100000010000000000000BRMELKACNOR8111
012024101602MGEL4       010MANGELS INDLPN           R$  000000000092000000000009450000000000920000000000093600000000009440000000000944000000000099900003000000000000000300000000000000280900000000000000009999123100000010000000000000BRMGELACNPR3147
012024101602MGLU3       010MAGAZ LUIZA ON      NM   R$  000000000096500000000009970000000000958000000000097700000000009800000000000980000000000098119081000000000021435300000000020957776200000000000000009999123100000010000000000000BRMGLUACNOR2125
012024101602ODPV3       010ODONTOPREV  ON      NM   R$  000000000102400000000010530000000001024000000000103800000000010360000000001035000000000103604973000000000003262600000000003389713000000000000000009999123100000010000000000000BRODPVACNOR4204
012024101602OFSA3       010OUROFINO S/AON      NM   R$  000000000212100000000021210000000002120000000000212000000000021200000000002016000000000216000006000000000000001000000000000002120600000000000000009999123100000010000000000000BROFSAACNOR7118
012024101602MOVI3       010MOVIDA      ON      NM   R$  000000000056700000000005950000000000557000000000058000000000005880000000000587000000000058808672000000000005890200000000003421738500000000000000009999123100000010000000000000BRMOVIACNOR0122
012024101602MRFG3       010MARFRIG     ON      NM   R$  000000000133900000000013640000000001321000000000134300000000013390000000001339000000000134213872000000000003735400000000005016911500000000000000009999123100000010000000000000BRMRFGACNOR0116
012024101602SBFG3       010GRUPO SBF   ON      NM   R$  000000000147600000000014910000000001442000000000147000000000014670000000001467000000000147206158000000000001360000000000002000023800000000000000009999123100000010000000000000BRSBFGACNOR1103
012024101602SBSP3       010SABESP      ON      NM   R$  000000000911200000000092290000000009054000000000918600000000092000000000009190000000000920021331000000000004083400000000037513553900000000000000009999123100000010000000000000BRSBSPACNOR5161
012024101602SANB11      010SANTANDER BRUNT          R$  000000000290000000000029230000000002874000000000290400000000029040000000002904000000000291215592000000000002332400000000006774376900000000000000009999123100000010000000000000BRSANBCDAM13165
012024101602SANB3       010SANTANDER BRON           R$  000000000137500000000013940000000001375000000000138500000000013900000000001387000000000139000360000000000000070300000000000097385100000000000000009999123100000010000000000000BRSANBACNOR8172
012024101602SANB4       010SANTANDER BRPN           R$  000000000151800000000015260000000001502000000000151500000000015170000000001517000000000151800298000000000000056600000000000085787200000000000000009999123100000010000000000000BRSANBACNPR5172
012024101602SAPR11      010SANEPAR     UNT     N2   R$  000000000276000000000027940000000002718000000000274400000000027570000000002735000000000275708260000000000003176800000000008718487000000000000000009999123100000010000000000000BRSAPRCDAM13118
012024101602SAPR3       010SANEPAR     ON      N2   R$  000000000052600000000005260000000000514000000000051800000000005170000000000515000000000051700843000000000000284900000000000147734600000000000000009999123100000010000000000000BRSAPRACNOR9159
012024101602SAPR4       010SANEPAR     PN      N2   R$  000000000056300000000005630000000000553000000000055600000000005580000000000555000000000055802750000000000001764300000000000981763900000000000000009999123100000010000000000000BRSAPRACNPR6159
012024101602TPIS3       010TRIUNFO PARTON      NM   R$  000000000060300000000006340000000000594000000000061200000000006100000000000608000000000061000511000000000000074300000000000045543000000000000000009999123100000010000000000000BRTPISACNOR8118
012024101602TRAD3       010TC          ON      NM   R$  000000000063200000000006590000000000621000000000063900000000006410000000000638000000000064100368000000000000126900000000000081152100000000000000009999123100000010000000000000BRTRADACNOR3102
012024101602TRIS3       010TRISUL      ON      NM   R$  000000000051400000000005300000000000506000000000052100000000005300000000000524000000000053002404000000000001076400000000000560979400000000000000009999123100000010000000000000BRTRISACNOR4118
012024101602TRPL3       010TRAN PAULISTON      N1   R$  000000000315100000000031510000000003145000000000314900000000031450000000003131000000000315000011000000000000001200000000000003779200000000000000009999123100000010000000000000BRTRPLACNOR4185
012024101602TRPL4       010TRAN PAULISTPN      N1   R$  000000000246900000000024900000000002457000000000247500000000024740000000002474000000000247509748000000000001664100000000004119369700000000000000009999123100000010000000000000BRTRPLACNPR1185
012024101602TTEN3       0103TENTOS     ON      NM   R$  000000000103900000000010580000000001027000000000104700000000010480000000001048000000000104903283000000000000654900000000000685907300000000000000009999123100000010000000000000BRTTENACNOR0103
012024101602TUPY3       010TUPY        ON      NM   R$  000000000240600000000024420000000002371000000000240100000000024270000000002427000000000243204751000000000000953200000000002289513700000000000000009999123100000010000000000000BRTUPYACNOR1184
012024101602VAMO3       010VAMOS       ON      NM   R$  000000000057200000000005890000000000558000000000057900000000005890000000000583000000000058912390000000000010562800000000006116355900000000000000009999123100000010000000000000BRVAMOACNOR7105
012024101602VBBR3       010VIBRA       ON      NM   R$  000000000232700000000023480000000002301000000000232000000000023100000000002306000000000231019891000000000009147900000000021231354600000000000000009999123100000010000000000000BRVBBRACNOR1109
012024101602PFRM3       010PROFARMA    ON      NM   R$  000000000059700000000006060000000000592000000000059700000000005920000000000591000000000060000446000000000000080500000000000048128300000000000000009999123100000010000000000000BRPFRMACNOR1116
012024101602PGMN3       010PAGUE MENOS ON      NM   R$  000000000028700000000002930000000000283000000000028900000000002890000000000289000000000029100897000000000000402200000000000116446300000000000000009999123100000010000000000000BRPGMNACNOR8103
012024101602PINE3       010PINE        ON  EJS N2   R$  000000000047000000000004850000000000467000000000047300000000004850000000000479000000000049100024000000000000007000000000000003314000000000000000009999123100000010000000000000BRPINEACNOR1152
012024101602PINE4       010PINE        PN  EJS N2   R$  000000000048900000000005000000000000482000000000049100000000004930000000000493000000000049700474000000000000340600000000000167281700000000000000009999123100000010000000000000BRPINEACNPR8152
012024101602QUAL3       010QUALICORP   ON      NM   R$  000000000022700000000002310000000000222000000000022600000000002270000000000226000000000022703907000000000005129100000000001161883800000000000000009999123100000010000000000000BRQUALACNOR6120
012024101602SCAR3       010SAO CARLOS  ON      NM   R$  000000000220000000000022240000000002170000000000218200000000021700000000002170000000000221000021000000000000005200000000000011346500000000000000009999123100000010000000000000BRSCARACNOR7131
012024101602SEER3       010SER EDUCA   ON      NM   R$  000000000057800000000006080000000000573000000000059300000000006050000000000600000000000060501926000000000000584600000000000346956000000000000000009999123100000010000000000000BRSEERACNOR5119
012024101602SHOW3       010TIME FOR FUNON      NM   R$  000000000009800000000001000000000000096000000000009800000000000960000000000096000000000009800232000000000000129200000000000012751500000000000000009999123100000010000000000000BRSHOWACNOR7105
012024101602SHUL4       010SCHULZ      PN           R$  000000000062000000000006270000000000617000000000062300000000006220000000000622000000000062701212000000000000354900000000000221140300000000000000009999123100000010000000000000BRSHULACNPR4157
012024101602SIMH3       010SIMPAR      ON      NM   R$  000000000051200000000005250000000000504000000000051500000000005130000000000513000000000051704652000000000002852100000000001471306600000000000000009999123100000010000000000000BRSIMHACNOR0107
012024101602SLCE3       010SLC AGRICOLAON      NM   R$  000000000174000000000017440000000001715000000000173600000000017440000000001738000000000174407714000000000002768700000000004809046900000000000000009999123100000010000000000000BRSLCEACNOR2125
012024101602VLID3       010VALID       ON      NM   R$  000000000210600000000023070000000002106000000000223900000000023070000000002300000000000230705716000000000002619700000000005866504400000000000000009999123100000010000000000000BRVLIDACNOR5144
012024101602VTRU3       010VITRUEDUCA  ON      NM   R$  000000000094700000000009680000000000943000000000095100000000009450000000000945000000000096000411000000000000090400000000000086019600000000000000009999123100000010000000000000BRVTRUACNOR3100
012024101602VULC3       010VULCABRAS   ON      NM   R$  000000000167000000000016720000000001639000000000164800000000016390000000001638000000000165202784000000000000606500000000000999692100000000000000009999123100000010000000000000BRVULCACNOR2162
012024101602VVEO3       010VIVEO       ON      NM   R$  000000000018600000000002020000000000183000000000019300000000001990000000000199000000000020002095000000000003734400000000000721642800000000000000009999123100000010000000000000BRVVEOACNOR0104
012024101602WEGE3       010WEG         ON      NM   R$  000000000560100000000057220000000005601000000000568600000000057190000000005715000000000571934217000000000010016400000000056954107200000000000000009999123100000010000000000000BRWEGEACNOR0225
012024101602JSLG3       010JSL         ON      NM   R$  000000000076400000000007920000000000758000000000077700000000007920000000000780000000000079202079000000000001091200000000000848792500000000000000009999123100000010000000000000BRJSLGACNOR2121
012024101602RADL3       010RAIADROGASILON      NM   R$  000000000247700000000025650000000002455000000000254000000000025590000000002551000000000255928331000000000010765800000000027348099200000000000000009999123100000010000000000000BRRADLACNOR0158
012024101602AZUL4       010AZUL        PN      N2   R$  000000000058500000000006170000000000584000000000060100000000006110000000000611000000000061215407000000000026929300000000016189189100000000000000009999123100000010000000000000BRAZULACNPR4103
012024101602BBDC3       010BRADESCO    ON      N1   R$  000000000132300000000013340000000001307000000000132100000000013230000000001322000000000132611848000000000009368400000000012384826400000000000000009999123100000010000000000000BRBBDCACNOR1776
012024101602BBDC4       010BRADESCO    PN      N1   R$  000000000151100000000015260000000001497000000000151100000000015100000000001510000000000151157384000000000055542100000000083954326800000000000000009999123100000010000000000000BRBBDCACNPR8776
012024101602CMIN3       010CSNMINERACAOON      N2   R$  000000000060000000000006110000000000591000000000059600000000005910000000000591000000000059212113000000000009568600000000005708596700000000000000009999123100000010000000000000BRCMINACNOR2112
012024101602CXSE3       010CAIXA SEGURION      NM   R$  000000000143900000000014510000000001426000000000143700000000014290000000001429000000000143114991000000000005226500000000007515471600000000000000009999123100000010000000000000BRCXSEACNOR7107
012024101602ENJU3       010ENJOEI      ON      NM   R$  000000000013300000000001370000000000133000000000013500000000001350000000000135000000000013700586000000000000481200000000000065100700000000000000009999123100000010000000000000BRENJUACNOR9100
012024101602EPAR3       010EMBPAR S/A  ON           R$  000000000056000000000005620000000000555000000000055800000000005600000000000560000000000056200017000000000000004100000000000002289100000000000000009999123100000010000000000000BREPARACNOR9105
012024101602EUCA4       010EUCATEX     PN      N1   R$  000000000149600000000015210000000001492000000000150600000000014940000000001493000000000151000275000000000000045800000000000068975000000000000000009999123100000010000000000000BREUCAACNPR8044
012024101602EVEN3       010EVEN        ON  ED  NM   R$  000000000065500000000006720000000000655000000000066500000000006650000000000663000000000066503123000000000002571600000000001711458400000000000000009999123100000010000000000000BREVENACNOR8120
012024101602IFCM3       010INFRACOMM   ON      NM   R$  000000000001500000000000160000000000014000000000001400000000000150000000000014000000000001504462000000000023852300000000000352656500000000000000009999123100000010000000000000BRIFCMACNOR8101
012024101602IGTI11      010IGUATEMI S.AUNT     N1   R$  000000000214900000000021670000000002118000000000213900000000021380000000002133000000000213811076000000000003398000000000007270732500000000000000009999123100000010000000000000BRIGTICDAM16106
012024101602IGTI3       010IGUATEMI S.AON      N1   R$  000000000025900000000002640000000000259000000000026000000000002630000000000260000000000026300066000000000000017700000000000004617700000000000000009999123100000010000000000000BRIGTIACNOR8106
012024101602IGTI4       010IGUATEMI S.APN      N1   R$  000000000094800000000009480000000000944000000000094600000000009440000000000900000000000100000002000000000000000400000000000000378400000000000000009999123100000010000000000000BRIGTIACNPR5106
012024101602EALT3       010ACO ALTONA  ON           R$  000000000147800000000014950000000001478000000000149000000000014950000000001413000000000149500007000000000000001700000000000002534400000000000000009999123100000010000000000000BREALTACNOR4138
012024101602EALT4       010ACO ALTONA  PN           R$  000000000137300000000013730000000001340000000000134500000000013400000000001339000000000135800031000000000000004100000000000005518300000000000000009999123100000010000000000000BREALTACNPR1138
012024101602ECOR3       010ECORODOVIAS ON      NM   R$  000000000072500000000007280000000000712000000000072100000000007280000000000720000000000072805997000000000003867500000000002791219400000000000000009999123100000010000000000000BRECORACNOR8120
012024101602EGIE3       010ENGIE BRASILON      NM   R$  000000000413300000000041650000000004103000000000414300000000041510000000004148000000000415107867000000000001509200000000006253787500000000000000009999123100000010000000000000BREGIEACNOR9127
012024101602GGPS3       010GPS         ON      NM   R$  000000000185100000000018790000000001834000000000186600000000018710000000001870000000000188004002000000000001338100000000002497031100000000000000009999123100000010000000000000BRGGPSACNOR9103
012024101602AZZA3       010AZZAS 2154  ON      NM   R$  000000000422100000000042740000000004108000000000414000000000041360000000004132000000000413910746000000000002316700000000009592310000000000000000009999123100000010000000000000BRAZZAACNOR9100
012024101602BRKM6       010BRASKEM     PNB     N1   R$  000000000129600000000012960000000001296000000000129600000000012960000000001296000000000140000001000000000000000100000000000000129600000000000000009999123100000010000000000000BRBRKMACNPB2114
012024101602BRSR3       010BANRISUL    ON      N1   R$  000000000132700000000013450000000001327000000000133700000000013410000000001340000000000134400038000000000000006500000000000008694500000000000000009999123100000010000000000000BRBRSRACNOR3189
012024101602BRSR6       010BANRISUL    PNB     N1   R$  000000000113400000000011450000000001128000000000113700000000011300000000001130000000000113604101000000000001020900000000001161414700000000000000009999123100000010000000000000BRBRSRACNPB4192
012024101602VITT3       010VITTIA      ON      NM   R$  000000000054800000000005610000000000538000000000054800000000005480000000000548000000000055000959000000000000333100000000000182806800000000000000009999123100000010000000000000BRVITTACNOR4107
012024101602VIVA3       010VIVARA S.A. ON      NM   R$  000000000269800000000027190000000002670000000000269500000000026870000000002677000000000268812919000000000002096900000000005652035800000000000000009999123100000010000000000000BRVIVAACNOR0107
012024101602VIVR3       010VIVER       ON      NM   R$  000000000017100000000001780000000000167000000000017100000000001720000000000170000000000017300138000000000000087300000000000015003000000000000000009999123100000010000000000000BRVIVRACNOR4123
012024101602VIVT3       010TELEF BRASILON           R$  000000000531500000000054700000000005285000000000542300000000054300000000005430000000000543919499000000000004100800000000022240667500000000000000009999123100000010000000000000BRVIVTACNOR0184
012024101602JHSF3       010JHSF PART   ON      NM   R$  000000000043500000000004610000000000435000000000045500000000004610000000000460000000000046104816000000000008581300000000003905646700000000000000009999123100000010000000000000BRJHSFACNOR2140
012024101602DASA3       010DASA        ON      NM   R$  000000000030000000000003000000000000293000000000029700000000002990000000000296000000000029901711000000000000497900000000000147904200000000000000009999123100000010000000000000BRDASAACNOR1123
012024101602DESK3       010DESKTOP     ON      NM   R$  000000000135700000000013810000000001352000000000136400000000013620000000001354000000000136200561000000000000091700000000000125140100000000000000009999123100000010000000000000BRDESKACNOR2104
012024101602DEXP3       010DEXXOS PAR  ON      N1   R$  000000000090400000000009070000000000891000000000089800000000008930000000000893000000000090000398000000000000059600000000000053574400000000000000009999123100000010000000000000BRDEXPACNOR1105
012024101602MILS3       010MILLS       ON      NM   R$  000000000105100000000010670000000001045000000000105700000000010670000000001067000000000106804589000000000001971700000000002084556000000000000000009999123100000010000000000000BRMILSACNOR2128
012024101602RSUL4       010RIOSULENSE  PN           R$  000000000617000000000062990000000006151000000000624700000000062900000000006051000000000629000007000000000000000900000000000005623100000000000000009999123100000010000000000000BRRSULACNPR3114
012024101602KRSA3       010KORA SAUDE  ON  EG  NM   R$  000000000044000000000004660000000000439000000000045700000000004550000000000451000000000046500073000000000000036700000000000016795200000000000000009999123100000010000000000000BRKRSAACNOR0101
012024101602LAND3       010TERRASANTAPAON      NM   R$  000000000135300000000013540000000001279000000000128000000000012790000000001279000000000128000204000000000000475200000000000608485600000000000000009999123100000010000000000000BRLANDACNOR9103
012024101602LAVV3       010LAVVI       ON      NM   R$  000000000082100000000008360000000000812000000000082800000000008280000000000828000000000083002439000000000001113400000000000922108000000000000000009999123100000010000000000000BRLAVVACNOR4113
012024101602LEVE3       010METAL LEVE  ON      NM   R$  000000000302500000000030950000000003025000000000307000000000030680000000003067000000000306801763000000000000774100000000002376827800000000000000009999123100000010000000000000BRLEVEACNOR2197
012024101602LJQQ3       010QUERO-QUERO ON      NM   R$  000000000030000000000003150000000000297000000000030700000000003100000000000310000000000031105520000000000005787600000000001780439900000000000000009999123100000010000000000000BRLJQQACNOR5104
012024101602LOGG3       010LOG COM PROPON      NM   R$  000000000220800000000022500000000002200000000000222400000000022200000000002218000000000222301135000000000000145300000000000323213600000000000000009999123100000010000000000000BRLOGGACNOR7107
012024101602LOGN3       010LOG-IN      ON      NM   R$  000000000289000000000031150000000002888000000000300500000000031150000000003054000000000311800296000000000000049600000000000149066200000000000000009999123100000010000000000000BRLOGNACNOR3105
012024101602LPSB3       010LOPES BRASILON      NM   R$  000000000017300000000001760000000000171000000000017300000000001720000000000172000000000017300198000000000000080700000000000014019400000000000000009999123100000010000000000000BRLPSBACNOR0114
012024101602LREN3       010LOJAS RENNERON      NM   R$  000000000188300000000019060000000001862000000000188000000000018790000000001879000000000188026587000000000015370600000000028908431500000000000000009999123100000010000000000000BRLRENACNOR1222
012024101602RANI3       010IRANI       ON      NM   R$  000000000075400000000007570000000000731000000000074100000000007310000000000731000000000075003039000000000001306100000000000968741000000000000000009999123100000010000000000000BRRANIACNOR5073
012024101602SUZB3       010SUZANO S.A. ON      NM   R$  000000000547800000000054870000000005416000000000544100000000054460000000005446000000000544818106000000000003973300000000021622170800000000000000009999123100000010000000000000BRSUZBACNOR0130
012024101602ZAMP3       010ZAMP S.A.   ON           R$  000000000025400000000002570000000000248000000000025100000000002550000000000251000000000025501256000000000000669100000000000168149200000000000000009999123100000010000000000000BRZAMPACNOR5101
012024101602MRVE3       010MRV         ON      NM   R$  000000000074700000000007650000000000741000000000075300000000007500000000000750000000000075115753000000000010364400000000007812309900000000000000009999123100000010000000000000BRMRVEACNOR2127
012024101602PRNR3       010PRINER      ON      NM   R$  000000000127700000000012980000000001266000000000128300000000012910000000001275000000000129101136000000000000223400000000000286828700000000000000009999123100000010000000000000BRPRNRACNOR4109
012024101602PSSA3       010PORTO SEGUROON      NM   R$  000000000369500000000037470000000003678000000000371700000000037220000000003708000000000372310748000000000002278900000000008471735200000000000000009999123100000010000000000000BRPSSAACNOR7156
012024101602PTBL3       010PORTOBELLO  ON      NM   R$  000000000047000000000004820000000000467000000000047300000000004670000000000467000000000047100911000000000000168600000000000079806000000000000000009999123100000010000000000000BRPTBLACNOR8132
012024101602PTNT4       010PETTENATI   PN           R$  000000000064900000000006550000000000643000000000064800000000006550000000000642000000000065500018000000000000006600000000000004280500000000000000009999123100000010000000000000BRPTNTACNPR3047
012024101607NUTR3       010NUTRIPLANT  ON      MA   R$  000000000045300000000004680000000000450000000000045600000000004560000000000454000000000045600021000000000000002900000000000001324500000000000000009999123100000010000000000000BRNUTRACNOR0104
012024101607SEQL3       010SEQUOIA LOG ON      NM   R$  000000000035800000000003660000000000305000000000032500000000003050000000000305000000000031003502000000000002837000000000000924831700000000000000009999123100000010000000000000BRSEQLACNOR2103
012024101608AGXY3       010AGROGALAXY  ON      NM   R$  000000000005400000000000540000000000052000000000005300000000000530000000000052000000000005300171000000000000217900000000000011557700000000000000009999123100000010000000000000BRAGXYACNOR4103
012024101608NEXP3       010NEXPE       ON           R$  000000000039600000000004370000000000396000000000042100000000004080000000000401000000000043700046000000000000011900000000000005016100000000000000009999123100000010000000000000BRNEXPACNOR0101
012024101608BDLL4       010BARDELLA    PN           R$  000000000090000000000009600000000000900000000000091500000000009600000000000900000000000097000003000000000000000400000000000000366000000000000000009999123100000010000000000000BRBDLLACNPR8151
012024101608PMAM3       010PARANAPANEMAON      NM   R$  000000000012800000000001300000000000125000000000012700000000001290000000000126000000000012900156000000000000131100000000000016716100000000000000009999123100000010000000000000BRPMAMACNOR3040
012024101608RNEW11      010RENOVA      UNT     N2   R$  000000000035500000000003750000000000355000000000036600000000003590000000000355000000000036000142000000000000067400000000000024690300000000000000009999123100000010000000000000BRRNEWCDAM15110
012024101608RNEW3       010RENOVA      ON      N2   R$  000000000011900000000001260000000000115000000000012000000000001210000000000120000000000012100420000000000000426400000000000051444500000000000000009999123100000010000000000000BRRNEWACNOR8110
012024101608RNEW4       010RENOVA      PN      N2   R$  000000000011700000000001260000000000117000000000012200000000001200000000000120000000000012200530000000000000677800000000000082818400000000000000009999123100000010000000000000BRRNEWACNPR5110
012024101608RPMG3       010PET MANGUINHON           R$  000000000029900000000003130000000000299000000000030600000000003010000000000301000000000030500080000000000000030900000000000009481700000000000000009999123100000010000000000000BRRPMGACNOR9194
012024101608RSID3       010ROSSI RESID ON      NM   R$  000000000030600000000003280000000000303000000000031500000000003270000000000321000000000032700285000000000000111300000000000035097500000000000000009999123100000010000000000000BRRSIDACNOR8120
012024101608CTSA3       010SANTANENSE  ON           R$  000000000021600000000002160000000000216000000000021600000000002160000000000216000000000022700004000000000000000400000000000000086400000000000000009999123100000010000000000000BRCTSAACNOR3062
012024101608CTSA4       010SANTANENSE  PN           R$  000000000010100000000001010000000000101000000000010100000000001010000000000101000000000011200029000000000000033600000000000003393600000000000000009999123100000010000000000000BRCTSAACNPR0062
012024101608HOOT4       010HOTEIS OTHONPN           R$  000000000022500000000002250000000000224000000000022400000000002240000000000223000000000022600010000000000000014100000000000003159500000000000000009999123100000010000000000000BRHOOTACNPR9015
012024101608JFEN3       010JOAO FORTES ON           R$  000000000002500000000000290000000000024000000000002700000000000290000000000028000000000002900434000000000002759600000000000074574700000000000000009999123100000010000000000000BRJFENACNOR0059
012024101608LIGT3       010LIGHT S/A   ON      NM   R$  000000000064000000000006420000000000618000000000062900000000006200000000000620000000000062302495000000000000561600000000000353513300000000000000009999123100000010000000000000BRLIGTACNOR2124
012024101610HBSA1       010HIDROVIAS   DIR ORD NM   R$  000000000000100000000000040000000000001000000000000200000000000030000000000002000000000000300248000000000010270000000000000023249900000000000000009999123100000010000000000000BRHBSAD01OR5100
012024101610PMAM1       010PARANAPANEMADIR ORD NM   R$  000000000000100000000000010000000000001000000000000100000000000010000000000000000000000000100296000000000001444000000000000001444000000000000000009999123100000010000000000000BRPMAMD05OR9039
012024101610CBEE1       010AMPLA ENERG DIR ORD      R$  000000000005000000000000500000000000035000000000003700000000000370000000000037000000000015000020000000000000004600000000000000170700000000000000009999123100000010000000000000BRCBEED07OR5159
012024101610PINE1       010PINE        DIR ORD N2   R$  000000000004000000000000960000000000040000000000006000000000000610000000000061000000000009100134000000000000026700000000000001624400000000000000009999123100000010000000000000BRPINED04OR0150
012024101610PINE2       010PINE        DIR PRE N2   R$  000000000003400000000000550000000000034000000000005200000000000550000000000063000000000009000009000000000000002700000000000000142700000000000000009999123100000010000000000000BRPINED06PR2150
012024101612AFHI11      010FII AFHI CRICI  ER       R$  000000000947700000000094930000000009438000000000946200000000094750000000009470000000000947501588000000000000010373000000000098154170000000000000009999123100000010000000000000BRAFHICTF005147
012024101612AIEC11      010FII AUTONOMYCI           R$  000000000481200000000049380000000004812000000000487200000000048870000000004874000000000488700769000000000000009098000000000044329789000000000000009999123100000010000000000000BRAIECCTF009149
012024101612AJFI11      010FII AJ MALLSCI  ER       R$  000000000074100000000007500000000000734000000000074000000000007390000000000739000000000074701918000000000000043735000000000032381394000000000000009999123100000010000000000000BRAJFICTF001111
012024101612ALMI11      010FII TORRE ALCI           R$  000000005900100000000590020000000056000000000005750100000000576020000000057602000000005999900025000000000000000061000000000003507610000000000000009999123100000010000000000000BRALMICTF003252
012024101612DPRO11      010FII DEVA PROCI  ER       R$  000000000062000000000006370000000000618000000000062600000000006370000000000602000000000063700012000000000000000020000000000000012523000000000000009999123100000010000000000000BRDPROCTF005128
012024101612DVFF11      010FII DEVA FOFCI  ER       R$  000000000069000000000006900000000000672000000000067700000000006740000000000672000000000067400076000000000000006673000000000004521219000000000000009999123100000010000000000000BRDVFFCTF006142
012024101612FMOF11      010FII MEMORIALCI           R$  000000000434400000000043440000000004344000000000434400000000043440000000004001000000000447000001000000000000000001000000000000004344000000000000009999123100000010000000000000BRFMOFCTF010258
012024101612BARI11      010FII BARIGUI CI           R$  000000000740000000000074100000000007350000000000736200000000073700000000007370000000000738501155000000000000005731000000000042194030000000000000009999123100000010000000000000BRBARICTF003166
012024101612FPAB11      010FII A BRANCACI  ER       R$  000000002282800000000228280000000022828000000002282800000000228280000000022600000000002350000003000000000000000006000000000000136968000000000000009999123100000010000000000000BRFPABCTF011318
012024101612FVPQ11      010FII V PARQUECI           R$  000000000614000000000061700000000006103000000000612400000000061210000000006121000000000616700538000000000000000794000000000004862489000000000000009999123100000010000000000000BRFVPQCTF015263
012024101612PABY11      010FII PANAMBY CI           R$  000000000140400000000014900000000001401000000000141100000000014900000000001402000000000145000005000000000000000028000000000000039531000000000000009999123100000010000000000000BRPABYCTF012158
012024101612PATC11      010FII PATRIA  CI           R$  000000000333000000000033730000000003329000000000333500000000033290000000003329000000000335300038000000000000000831000000000002771432000000000000009999123100000010000000000000BRPATCCTF002174
012024101612PATL11      010FII PATLOGISCI           R$  000000000576200000000058240000000005720000000000576100000000057700000000005747000000000577000525000000000000006523000000000037585436000000000000009999123100000010000000000000BRPATLCTF003150
012024101612GAME11      010FII GUARD MUCI  ER       R$  000000000089100000000008950000000000881000000000088400000000008820000000000881000000000088200482000000000000009050000000000008004363000000000000009999123100000010000000000000BRGAMECTF002136
012024101612GARE11      010FII GUARDIANCI           R$  000000000090200000000009020000000000899000000000090000000000009020000000000901000000000090214407000000000000419724000000000377930797000000000000009999123100000010000000000000BRGARECTF001108
012024101612GCRI11      010FII GLPG CRICI  ER       R$  000000000661300000000066130000000006473000000000654100000000064830000000006483000000000654700210000000000000002802000000000018330116000000000000009999123100000010000000000000BRGCRICTF008148
012024101612ZAVC11      010FII ZAVIT C CI           R$  000000000104800000000010480000000001048000000000104800000000010480000000000921000000000100000002000000000000000002000000000000002096000000000000009999123100000010000000000000BRZAVCCTF007106
012024101612ZAVI11      010FII ZAVIT R CI           R$  000000001073000000000107300000000010606000000001063400000000106120000000010612000000001065000262000000000000000719000000000007646217000000000000009999123100000010000000000000BRZAVICTF004125
012024101612LSPA11      010FII LESTE PACI           R$  000000000302200000000037500000000003000000000000305800000000031010000000003101000000000325000059000000000000000936000000000002862951000000000000009999123100000010000000000000BRLSPACTF005143
012024101612LVBI11      010FII VBI LOG CI           R$  000000001059100000000106400000000010466000000001054800000000105460000000010546000000001054808139000000000000028841000000000304223848000000000000009999123100000010000000000000BRLVBICTF002173
012024101612NAVT11      010FII NAVI TOTCI  ER       R$  000000000820600000000082470000000007951000000000807100000000081580000000008000000000000806900189000000000000001662000000000013414605000000000000009999123100000010000000000000BRNAVTCTF015143
012024101612NCHB11      010FII NCH BR  CI  ER       R$  000000000088000000000008900000000000867000000000088000000000008750000000000877000000000087900177000000000000007046000000000006207170000000000000009999123100000010000000000000BRNCHBCTF000234
012024101612NCRI11      010FII NAVI CRICI  ER       R$  000000000091000000000009100000000000900000000000090100000000009000000000000900000000000091000019000000000000004735000000000004266342000000000000009999123100000010000000000000BRNCRICTF004122
012024101612IRDM11      010FII IRIDIUM CI  ER       R$  000000000663200000000067010000000006625000000000666800000000066890000000006689000000000669909172000000000000074701000000000498110322000000000000009999123100000010000000000000BRIRDMCTF004190
012024101612IRIM11      010FII IRIM    CI  ER       R$  000000000677900000000067810000000006659000000000674300000000067270000000006697000000000674400055000000000000000260000000000001753325000000000000009999123100000010000000000000BRIRIMCTF003139
012024101612ISCJ11      010FII ISCJ    CI           R$  000000000900000000000090000000000009000000000000900000000000090000000000007410000000000900000001000000000000000001000000000000009000000000000000009999123100000010000000000000BRISCJCTF000111
012024101612ITIP11      010FII INTER IPCI           R$  000000000722500000000072380000000007153000000000722300000000072240000000007159000000000722400088000000000000000216000000000001560270000000000000009999123100000010000000000000BRITIPCTF002133
012024101612ITIT11      010FII INTER ITCI           R$  000000000756300000000075630000000007353000000000746300000000075430000000007497000000000754300213000000000000001560000000000011643805000000000000009999123100000010000000000000BRITITCTF004133
012024101612ITRI11      010FII ITRI    CI           R$  000000000805000000000080870000000008019000000000804900000000080870000000008050000000000808702773000000000000028274000000000227602909000000000000009999123100000010000000000000BRITRICTF008106
012024101612HABT11      010FII HABIT IICI           R$  000000000825000000000082910000000008150000000000822100000000082480000000008236000000000824802448000000000000015288000000000125694206000000000000009999123100000010000000000000BRHABTCTF001164
012024101612HCHG11      010FII HECT CRICI           R$  000000000672100000000068220000000006720000000000672400000000068220000000006720000000000682200010000000000000000063000000000000423657000000000000009999123100000010000000000000BRHCHGCTF001141
012024101612HCRI11      010FII CRIANCA CI  ER       R$  000000002719900000000272970000000027021000000002717200000000272940000000027083000000002719900030000000000000000078000000000002119434000000000000009999123100000010000000000000BRHCRICTF006333
012024101610EQTL9       010EQUATORIAL  ON  REC NM   R$  000000000326000000000032850000000003116000000000326400000000032560000000003260000000000329900067000000000000037200000000000121427500000000000000009999123100000010000000000000BREQTLR04OR9130
012024101608OSXB3       010OSX BRASIL  ON      NM   R$  000000000045100000000004700000000000450000000000045900000000004690000000000469000000000047400027000000000000005100000000000002342400000000000000009999123100000010000000000000BROSXBACNOR8109
012024101608OIBR4       010OI          PN      N1   R$  000000000104000000000010960000000001020000000000102400000000010250000000001025000000000104800026000000000000006000000000000006148100000000000000009999123100000010000000000000BROIBRACNPR8111
012024101608OIBR3       010OI          ON      N1   R$  000000000045000000000004560000000000433000000000044200000000004350000000000435000000000043600965000000000000513700000000000227538200000000000000009999123100000010000000000000BROIBRACNOR1112
012024101608ATMP3       010ATMASA      ON           R$  000000000014500000000001450000000000135000000000013900000000001390000000000138000000000013900064000000000000057700000000000008068900000000000000009999123100000010000000000000BRATMPACNOR8100
012024101608AMER3       010AMERICANAS  ON      NM   R$  000000000038800000000003890000000000378000000000038100000000003810000000000381000000000038201561000000000001370700000000000523345300000000000000009999123100000010000000000000BRAMERACNOR6103
012024101602BMGB4       010BANCO BMG   PN      N1   R$  000000000044200000000004530000000000438000000000044600000000004460000000000445000000000044701993000000000000736500000000000329203700000000000000009999123100000010000000000000BRBMGBACNPR0110
012024101602BMEB4       010MERCANTIL   PN      N1   R$  000000000360000000000038800000000003600000000000372800000000038800000000003818000000000388000336000000000000051800000000000193140700000000000000009999123100000010000000000000BRBMEBACNPR5211
012024101602BMEB3       010MERCANTIL   ON      N1   R$  000000000365000000000036500000000003500000000000350000000000035000000000003300000000000356000015000000000000103300000000000361630800000000000000009999123100000010000000000000BRBMEBACNOR8206
012024101602BLAU3       010BLAU        ON      NM   R$  000000000134800000000014290000000001348000000000140500000000014290000000001414000000000142901890000000000000633700000000000890409200000000000000009999123100000010000000000000BRBLAUACNOR8115
012024101602EUCA3       010EUCATEX     ON      N1   R$  000000000161600000000016160000000001616000000000161600000000016160000000001616000000000169900001000000000000000200000000000000323200000000000000009999123100000010000000000000BREUCAACNOR1157
012024101602ETER3       010ETERNIT     ON      NM   R$  000000000055700000000005570000000000551000000000055300000000005550000000000551000000000055500330000000000000073000000000000040416800000000000000009999123100000010000000000000BRETERACNOR3244
012024101602ESTR4       010ESTRELA     PN           R$  000000000037000000000003700000000000341000000000035000000000003410000000000342000000000038900003000000000000000600000000000000210500000000000000009999123100000010000000000000BRESTRACNPR0144
012024101602ESPA3       010ESPACOLASER ON      NM   R$  000000000009700000000000970000000000095000000000009600000000000960000000000095000000000009600097000000000000266700000000000025618100000000000000009999123100000010000000000000BRESPAACNOR7103
012024101602EQTL3       010EQUATORIAL  ON      NM   R$  000000000324800000000033040000000003248000000000328600000000032820000000003275000000000328527969000000000008033600000000026398705100000000000000009999123100000010000000000000BREQTLACNOR0131
012024101602EQPA3       010EQTL PARA   ON           R$  000000000060200000000006060000000000594000000000059700000000005960000000000596000000000060300020000000000000005100000000000003044700000000000000009999123100000010000000000000BREQPAACNOR1111
012024101602EQMA3B      010EQTLMARANHAOON      MB   R$  000000000235000000000023800000000002350000000000236400000000023800000000002311000000000238700005000000000000000600000000000001418800000000000000009999123100000010000000000000BREQMAACNOR8108
012024101602ORVR3       010ORIZON      ON      NM   R$  000000000458500000000046580000000004553000000000459700000000046400000000004638000000000464001828000000000001645000000000007563244200000000000000009999123100000010000000000000BRORVRACNOR0101
012024101602OPCT3       010OCEANPACT   ON      NM   R$  000000000069200000000006970000000000689000000000069400000000006960000000000693000000000069601223000000000000338300000000000234967600000000000000009999123100000010000000000000BROPCTACNOR0100
012024101602ONCO3       010ONCOCLINICASON      NM   R$  000000000046000000000004820000000000460000000000047400000000004800000000000476000000000048001828000000000001677300000000000796395700000000000000009999123100000010000000000000BRONCOACNOR6101
012024101602BRAV3       010BRAVA       ON      NM   R$  000000000172400000000017400000000001700000000000171300000000017190000000001717000000000171914787000000000006610000000000011328911400000000000000009999123100000010000000000000BRBRAVACNOR3100
012024101602BOBR4       010BOMBRIL     PN           R$  000000000023600000000002490000000000235000000000024300000000002490000000000243000000000024900262000000000000110900000000000026952100000000000000009999123100000010000000000000BRBOBRACNPR3128
012024101602BMOB3       010BEMOBI TECH ON      NM   R$  000000000145500000000015020000000001450000000000149200000000015020000000001480000000000150201130000000000000454400000000000678199300000000000000009999123100000010000000000000BRBMOBACNOR7103
012024101602USIM5       010USIMINAS    PNA     N1   R$  000000000061400000000006210000000000610000000000061500000000006170000000000617000000000061812031000000000010708400000000006596151600000000000000009999123100000010000000000000BRUSIMACNPA6169
012024101602USIM3       010USIMINAS    ON      N1   R$  000000000060800000000006120000000000599000000000060500000000006020000000000602000000000060400633000000000000260400000000000157721800000000000000009999123100000010000000000000BRUSIMACNOR3167
012024101602UNIP6       010UNIPAR      PNB          R$  000000000460800000000046460000000004581000000000460800000000046090000000004609000000000463000793000000000000113100000000000521205100000000000000009999123100000010000000000000BRUNIPACNPB8206
012024101602UNIP5       010UNIPAR      PNA          R$  000000000479400000000048000000000004790000000000479700000000048000000000004693000000000481900005000000000000000800000000000003838300000000000000009999123100000010000000000000BRUNIPACNPA0208
012024101602UNIP3       010UNIPAR      ON           R$  000000000462400000000046790000000004605000000000464100000000046790000000004640000000000468100036000000000000004300000000000019957600000000000000009999123100000010000000000000BRUNIPACNOR7206
012024101602UGPA3       010ULTRAPAR    ON      NM   R$  000000000207800000000021300000000002045000000000210200000000021140000000002110000000000211416368000000000007227200000000015192024900000000000000009999123100000010000000000000BRUGPAACNOR8156
012024101602UCAS3       010UNICASA     ON      NM   R$  000000000021600000000002170000000000214000000000021500000000002150000000000215000000000021600044000000000000012100000000000002611400000000000000009999123100000010000000000000BRUCASACNOR1113
012024101602AZEV4       010AZEVEDO     PN           R$  000000000012900000000001310000000000127000000000012900000000001290000000000129000000000013000794000000000001360300000000000175501700000000000000009999123100000010000000000000BRAZEVACNPR7121
012024101602AZEV3       010AZEVEDO     ON           R$  000000000012900000000001320000000000128000000000012900000000001310000000000130000000000013100436000000000000598600000000000077816700000000000000009999123100000010000000000000BRAZEVACNOR0121
012024101602AVLL3       010ALPHAVILLE  ON      NM   R$  000000000030600000000003090000000000294000000000030000000000003040000000000304000000000030900028000000000000038600000000000011587400000000000000009999123100000010000000000000BRAVLLACNOR5103
012024101602AURE3       010AUREN       ON      NM   R$  000000000101800000000010300000000001007000000000102400000000010280000000001028000000000102913685000000000015464100000000015841478000000000000000009999123100000010000000000000BRAUREACNOR9104
012024101602ATOM3       010ATOMPAR     ON           R$  000000000026000000000002650000000000246000000000025400000000002650000000000256000000000026500101000000000000036100000000000009204600000000000000009999123100000010000000000000BRATOMACNOR1106
012024101602BIOM3       010BIOMM       ON      MA   R$  000000000093500000000009350000000000900000000000090900000000009100000000000902000000000091000211000000000000044200000000000040187900000000000000009999123100000010000000000000BRBIOMACNOR2112
012024101602MYPK3       010IOCHP-MAXIONON      NM   R$  000000000104600000000010840000000001046000000000107000000000010730000000001063000000000107304504000000000001116100000000001195239500000000000000009999123100000010000000000000BRMYPKACNOR7156
012024101602MULT3       010MULTIPLAN   ON      N2   R$  000000000263600000000026430000000002592000000000261800000000026040000000002604000000000261917233000000000002946200000000007715506700000000000000009999123100000010000000000000BRMULTACNOR5139
012024101602MTSA4       010METISA      PN           R$  000000000369000000000037890000000003649000000000368700000000036490000000003600000000000365000026000000000000003000000000000011061200000000000000009999123100000010000000000000BRMTSAACNPR9073
012024101602MTRE3       010MITRE REALTYON      NM   R$  000000000037300000000003790000000000368000000000037200000000003700000000000370000000000037101018000000000000781300000000000290854400000000000000009999123100000010000000000000BRMTREACNOR6115
012024101602IRBR3       010IRBBRASIL REON      NM   R$  000000000438000000000044040000000004303000000000433500000000043270000000004320000000000432704523000000000001063600000000004611282200000000000000009999123100000010000000000000BRIRBRACNOR4111
012024101602INTB3       010INTELBRAS   ON      NM   R$  000000000203800000000020690000000002027000000000205900000000020690000000002050000000000206902383000000000000680100000000001400817900000000000000009999123100000010000000000000BRINTBACNOR9112
012024101602INEP4       010INEPAR      PN           R$  000000000017200000000001740000000000170000000000017100000000001700000000000170000000000017200027000000000000017200000000000002956800000000000000009999123100000010000000000000BRINEPACNPR8143
012024101602INEP3       010INEPAR      ON           R$  000000000017600000000001790000000000165000000000016800000000001650000000000165000000000016600179000000000000082200000000000013819700000000000000009999123100000010000000000000BRINEPACNOR1143
012024101602FLRY3       010FLEURY      ON      NM   R$  000000000151300000000015280000000001500000000000152100000000015250000000001523000000000152611781000000000004859100000000007391078100000000000000009999123100000010000000000000BRFLRYACNOR5139
012024101602FIQE3       010UNIFIQUE    ON      NM   R$  000000000039200000000003980000000000389000000000039300000000003900000000000390000000000039400359000000000000188800000000000074272400000000000000009999123100000010000000000000BRFIQEACNOR5107
012024101602FIEI3       010FICA        ON           R$  000000000115000000000011500000000001150000000000115000000000011500000000000860000000000110000001000000000000001000000000000001150000000000000000009999123100000010000000000000BRFIEIACNOR2100
012024101602FHER3       010FER HERINGERON      NM   R$  000000000037300000000003770000000000373000000000037600000000003770000000000377000000000038000011000000000000003700000000000001391900000000000000009999123100000010000000000000BRFHERACNOR5103
012024101602FESA4       010FERBASA     PN      N1   R$  000000000076700000000007710000000000762000000000076600000000007660000000000766000000000076901000000000000000312100000000000239195400000000000000009999123100000010000000000000BRFESAACNPR5085
012024101602MNPR3       010MINUPAR     ON           R$  000000000200000000000021000000000001935000000000204000000000020410000000001936000000000205000020000000000000003500000000000007143300000000000000009999123100000010000000000000BRMNPRACNOR5122
012024101602MLAS3       010MULTILASER  ON      NM   R$  000000000015900000000001630000000000157000000000016000000000001630000000000161000000000016301846000000000001685900000000000271007300000000000000009999123100000010000000000000BRMLASACNOR9101
012024101602KLBN4       010KLABIN S/A  PN      N2   R$  000000000040500000000004080000000000403000000000040500000000004060000000000406000000000040701401000000000000688500000000000279393800000000000000009999123100000010000000000000BRKLBNACNPR9171
012024101602KLBN3       010KLABIN S/A  ON      N2   R$  000000000041000000000004100000000000405000000000040800000000004100000000000410000000000041100452000000000000128500000000000052448400000000000000009999123100000010000000000000BRKLBNACNOR2171
012024101602KLBN11      010KLABIN S/A  UNT     N2   R$  000000000203500000000020390000000002012000000000203000000000020310000000002031000000000203214722000000000005121900000000010401563700000000000000009999123100000010000000000000BRKLBNCDAM18143
012024101602KEPL3       010KEPLER WEBERON      NM   R$  000000000093100000000009570000000000927000000000093900000000009270000000000927000000000092804067000000000001726500000000001621335600000000000000009999123100000010000000000000BRKEPLACNOR1064
012024101602ASAI3       010ASSAI       ON      NM   R$  000000000070400000000007160000000000688000000000070000000000007120000000000711000000000071323533000000000022035800000000015441544900000000000000009999123100000010000000000000BRASAIACNOR0106
012024101602ARML3       010ARMAC       ON  EJ  NM   R$  000000000084700000000008610000000000822000000000083100000000008220000000000821000000000082208494000000000004506000000000003747032500000000000000009999123100000010000000000000BRARMLACNOR1113
012024101602ANIM3       010ANIMA       ON      NM   R$  000000000024200000000002570000000000241000000000025100000000002540000000000252000000000025410576000000000008994300000000002263302900000000000000009999123100000010000000000000BRANIMACNOR6109
012024101612HCTR11      010FII HECTARE CI  ER       R$  000000000286100000000028980000000002861000000000288000000000028810000000002875000000000288101762000000000000021627000000000062290465000000000000009999123100000010000000000000BRHCTRCTF003174
012024101612NEWL11      010FII NEWPORT CI           R$  000000001093300000000109650000000010870000000001091000000000108830000000010870000000001088300098000000000000000477000000000005204525000000000000009999123100000010000000000000BRNEWLCTF004159
012024101612NEWU11      010FII NEWRU   CI           R$  000000000750400000000077600000000007504000000000763200000000077600000000006401000000000776000003000000000000000010000000000000076320000000000000009999123100000010000000000000BRNEWUCTF005125
012024101612BRCO11      010FII BRESCO  CI           R$  000000001097700000000110810000000010895000000001098000000000109510000000010950000000001096007273000000000000028949000000000317884979000000000000009999123100000010000000000000BRBRCOCTF007161
012024101612BRCR11      010FII BC FUND CI  ER       R$  000000000451600000000045500000000004500000000000451600000000045450000000004510000000000454506259000000000000031253000000000141156468000000000000009999123100000010000000000000BRBRCRCTF000271
012024101612BRIM11      010FII BRIO II CI           R$  000000011079700000001169990000000110797000000011552600000001155000000000110000000000011550000008000000000000000011000000000001270796000000000000009999123100000010000000000000BRBRIMCTF008131
012024101612BRIP11      010FII BRIO IIICI  ER       R$  000000009480000000000948000000000094799000000009479900000000947990000000090100000000009480000003000000000000000005000000000000473999000000000000009999123100000010000000000000BRBRIPCTF001117
012024101612CNES11      010FII CENESP  CI           R$  000000000012700000000001280000000000125000000000012600000000001270000000000127000000000012800631000000000000022447000000000002834772000000000000009999123100000010000000000000BRCNESCTF001263
012024101612CXTL11      010FII CX TRX  CI           R$  000000002224800000000222490000000022248000000002224800000000222490000000022248000000002261800002000000000000000002000000000000044497000000000000009999123100000010000000000000BRCXTLCTF003241
012024101612CYCR11      010FII CYRELA  CI           R$  000000000091600000000009170000000000895000000000090500000000009060000000000906000000000091503074000000000000077533000000000070185399000000000000009999123100000010000000000000BRCYCRCTF004143
012024101612EXES11      010FII EXES    CI           R$  000000000096000000000009600000000000938000000000095100000000009600000000000955000000000096000006000000000000000215000000000000204580000000000000009999123100000010000000000000BREXESCTF006129
012024101612ABCP11      010FII ABC IMOBCI           R$  000000000746600000000075500000000007433000000000748700000000075020000000007502000000000754500101000000000000000885000000000006626007000000000000009999123100000010000000000000BRABCPCTF000343
