00COTAHIST.2024BOVESPA 20240923                                                                                                                                                                                                                      
012024092302MDIA3       010M.DIASBRANCOON  EJ  NM   R$  000000000259600000000025960000000002525000000000254700000000025340000000002528000000000253403937000000000000760400000000001936831800000000000000009999123100000010000000000000BRMDIAACNOR7136
012024092302MDNE3       010MOURA DUBEUXON      NM   R$  000000000143400000000014340000000001398000000000141000000000014190000000001403000000000141902296000000000000476700000000000672613400000000000000009999123100000010000000000000BRMDNEACNOR9100
012024092302MEAL3       010IMC S/A     ON      NM   R$  000000000013500000000001350000000000131000000000013200000000001320000000000132000000000013300180000000000000162900000000000021542500000000000000009999123100000010000000000000BRMEALACNOR9105
012024092302MELK3       010MELNICK     ON      NM   R$  000000000034300000000003470000000000338000000000034100000000003410000000000341000000000034200842000000000000508600000000000173691800000000000000009999123100000010000000000000BRMELKACNOR8111
012024092302MERC4       010MERC FINANC PN           R$  000000000101300000000010130000000001010000000000101000000000010100000000000870000000000101300002000000000000001100000000000001111300000000000000009999123100000010000000000000BRMERCACNPR9180
012024092302MGLU3       010MAGAZ LUIZA ON  ATZ NM   R$  000000000102200000000010380000000000993000000000101400000000010020000000001002000000000100329868000000000021412100000000021723549200000000000000009999123100000010000000000000BRMGLUACNOR2125
012024092302ODPV3       010ODONTOPREV  ON      NM   R$  000000000112700000000011390000000001123000000000113300000000011340000000001133000000000114003143000000000000741400000000000840268200000000000000009999123100000010000000000000BRODPVACNOR4203
012024092302OFSA3       010OUROFINO S/AON      NM   R$  000000000211500000000021930000000002104000000000213900000000021410000000002140000000000220000009000000000000005200000000000011126200000000000000009999123100000010000000000000BROFSAACNOR7118
012024092302ONCO3       010ONCOCLINICASON      NM   R$  000000000053200000000005320000000000512000000000051800000000005200000000000518000000000052005788000000000002439900000000001264575700000000000000009999123100000010000000000000BRONCOACNOR6101
012024092302RECV3       010PETRORECSA  ON      NM   R$  000000000183900000000018550000000001825000000000183800000000018350000000001835000000000184008489000000000001663400000000003057803000000000000000009999123100000010000000000000BRRECVACNOR3107
012024092302REDE3       010REDE ENERGIAON           R$  000000000069700000000006980000000000681000000000068400000000006810000000000681000000000069700016000000000000002100000000000001437400000000000000009999123100000010000000000000BRREDEACNOR7128
012024092302RENT3       010LOCALIZA    ON      NM   R$  000000000430000000000043160000000004227000000000427500000000042710000000004264000000000427318721000000000005429200000000023210156100000000000000009999123100000010000000000000BRRENTACNOR4196
012024092302SHOW3       010TIME FOR FUNON      NM   R$  000000000009900000000001020000000000097000000000009800000000001000000000000100000000000010100278000000000000170000000000000016817400000000000000009999123100000010000000000000BRSHOWACNOR7105
012024092302SHUL4       010SCHULZ      PN           R$  000000000063500000000006360000000000630000000000063200000000006320000000000632000000000063300444000000000000131200000000000082919500000000000000009999123100000010000000000000BRSHULACNPR4156
012024092302SIMH3       010SIMPAR      ON      NM   R$  000000000053000000000005380000000000523000000000052800000000005240000000000524000000000052509237000000000003439600000000001819320700000000000000009999123100000010000000000000BRSIMHACNOR0107
012024092302SLCE3       010SLC AGRICOLAON      NM   R$  000000000170000000000017090000000001687000000000170100000000017040000000001704000000000170708988000000000002286900000000003891555900000000000000009999123100000010000000000000BRSLCEACNOR2125
012024092302ROMI3       010ROMI        ON      NM   R$  000000000113900000000011400000000001114000000000112500000000011230000000001122000000000112301005000000000000250300000000000281641600000000000000009999123100000010000000000000BRROMIACNOR8195
012024092302RPAD3       010ALFA HOLDINGON           R$  000000000091000000000009100000000000910000000000091000000000009100000000000862000000000094000001000000000000000400000000000000364000000000000000009999123100000010000000000000BRRPADACNOR1198
012024092302BEEF3       010MINERVA     ON      NM   R$  000000000065300000000006580000000000638000000000064800000000006550000000000654000000000065510992000000000006210700000000004029072600000000000000009999123100000010000000000000BRBEEFACNOR6116
012024092302AALR3       010ALLIAR      ON      NM   R$  000000000154200000000015420000000001464000000000149700000000014980000000001490000000000151300081000000000000014300000000000021417300000000000000009999123100000010000000000000BRAALRACNOR6102
012024092302ABCB4       010ABC BRASIL  PN      N2   R$  000000000225600000000022720000000002207000000000222600000000022100000000002210000000000222503278000000000000751200000000001672185400000000000000009999123100000010000000000000BRABCBACNPR4146
012024092302CMIN3       010CSNMINERACAOON      N2   R$  000000000062500000000006500000000000601000000000063100000000006330000000000633000000000063512690000000000011193600000000007071814600000000000000009999123100000010000000000000BRCMINACNOR2111
012024092302COCE5       010COELCE      PNA          R$  000000000288400000000028980000000002834000000000286100000000028500000000002850000000000290100032000000000000004700000000000013451100000000000000009999123100000010000000000000BRCOCEACNPA3147
012024092302COGN3       010COGNA ON    ON      NM   R$  000000000013300000000001340000000000129000000000013100000000001290000000000129000000000013025691000000000055059000000000007223900000000000000000009999123100000010000000000000BRCOGNACNOR2105
012024092302ABEV3       010AMBEV S/A   ON           R$  000000000127000000000012860000000001265000000000127700000000012750000000001274000000000127630192000000000020009400000000025555574000000000000000009999123100000010000000000000BRABEVACNOR1128
012024092302CXSE3       010CAIXA SEGURION      NM   R$  000000000145500000000014580000000001430000000000143900000000014390000000001439000000000144014663000000000003725100000000005360698400000000000000009999123100000010000000000000BRCXSEACNOR7107
012024092302CYRE3       010CYRELA REALTON      NM   R$  000000000206000000000020610000000001981000000000201700000000020190000000002018000000000202430383000000000010908200000000022011999100000000000000009999123100000010000000000000BRCYREACNOR7140
012024092302MYPK3       010IOCHP-MAXIONON      NM   R$  000000000113500000000011350000000001101000000000111100000000011010000000001101000000000110903415000000000000859300000000000955248200000000000000009999123100000010000000000000BRMYPKACNOR7155
012024092302CSED3       010CRUZEIRO EDUON      NM   R$  000000000034000000000003400000000000328000000000033100000000003280000000000328000000000032901786000000000000752900000000000249665300000000000000009999123100000010000000000000BRCSEDACNOR9105
012024092302CSMG3       010COPASA      ON  EDJ NM   R$  000000000249800000000024980000000002449000000000246400000000024550000000002454000000000245505123000000000001288200000000003174643500000000000000009999123100000010000000000000BRCSMGACNOR5175
012024092302CSNA3       010SID NACIONALON           R$  000000000110700000000011130000000001079000000000109900000000011080000000001106000000000110823063000000000014785700000000016255182000000000000000009999123100000010000000000000BRCSNAACNOR6261
012024092302IFCM3       010INFRACOMM   ON      NM   R$  000000000001700000000000200000000000016000000000001800000000000180000000000018000000000001904659000000000018047200000000000325030300000000000000009999123100000010000000000000BRIFCMACNOR8101
012024092302IGTI11      010IGUATEMI S.AUNT     N1   R$  000000000212300000000021350000000002100000000000211700000000021130000000002113000000000211808573000000000001769900000000003748607200000000000000009999123100000010000000000000BRIGTICDAM16106
012024092302IGTI3       010IGUATEMI S.AON      N1   R$  000000000026200000000002740000000000261000000000026400000000002630000000000261000000000026300119000000000000021000000000000005561600000000000000009999123100000010000000000000BRIGTIACNOR8106
012024092302IGTI4       010IGUATEMI S.APN      N1   R$  000000000092200000000009320000000000922000000000092400000000009320000000000851000000000094900012000000000000002100000000000001941400000000000000009999123100000010000000000000BRIGTIACNPR5106
012024092302INEP3       010INEPAR      ON           R$  000000000018500000000001870000000000181000000000018300000000001850000000000182000000000018500057000000000000017600000000000003225000000000000000009999123100000010000000000000BRINEPACNOR1143
012024092302TAEE11      010TAESA       UNT     N2   R$  000000000342900000000034390000000003405000000000342300000000034300000000003426000000000343106621000000000001146000000000003923374600000000000000009999123100000010000000000000BRTAEECDAM10148
012024092302TAEE3       010TAESA       ON      N2   R$  000000000115000000000011550000000001131000000000113700000000011420000000001138000000000114400555000000000000082000000000000093247600000000000000009999123100000010000000000000BRTAEEACNOR9148
012024092302TAEE4       010TAESA       PN      N2   R$  000000000115400000000011550000000001138000000000114400000000011480000000001148000000000115101025000000000000206100000000000235872000000000000000009999123100000010000000000000BRTAEEACNPR6148
012024092302CRPG5       010CRISTAL     PNA          R$  000000000275700000000027690000000002712000000000274900000000027490000000002704000000000274900010000000000000001700000000000004674500000000000000009999123100000010000000000000BRCRPGACNPA3119
012024092302CSAN3       010COSAN       ON      NM   R$  000000000125200000000012550000000001225000000000123300000000012250000000001225000000000122634231000000000011509000000000014192273300000000000000009999123100000010000000000000BRCSANACNOR6126
012024092302AZZA3       010AZZAS 2154  ON      NM   R$  000000000441100000000045370000000004378000000000447200000000045200000000004517000000000452108863000000000002051300000000009174892900000000000000009999123100000010000000000000BRAZZAACNOR9100
012024092302INEP4       010INEPAR      PN           R$  000000000019100000000001940000000000188000000000018900000000001890000000000185000000000018900033000000000000050800000000000009609800000000000000009999123100000010000000000000BRINEPACNPR8143
012024092302INTB3       010INTELBRAS   ON      NM   R$  000000000213700000000021500000000002096000000000211900000000021290000000002115000000000213003834000000000000650800000000001379546100000000000000009999123100000010000000000000BRINTBACNOR9112
012024092302IRBR3       010IRBBRASIL REON      NM   R$  000000000452200000000046190000000004454000000000452300000000045470000000004546000000000454904988000000000001011300000000004574838500000000000000009999123100000010000000000000BRIRBRACNOR4111
012024092302LUPA3       010LUPATECH    ON      NM   R$  000000000014000000000001420000000000140000000000014000000000001410000000000140000000000014100051000000000000035800000000000005034500000000000000009999123100000010000000000000BRLUPAACNOR8112
012024092302RAIZ4       010RAIZEN      PN      N2   R$  000000000031400000000003140000000000304000000000030700000000003040000000000303000000000030415570000000000023737500000000007293614500000000000000009999123100000010000000000000BRRAIZACNPR6111
012024092302RANI3       010IRANI       ON      NM   R$  000000000075300000000007530000000000741000000000074600000000007500000000000748000000000075004035000000000001208200000000000901927500000000000000009999123100000010000000000000BRRANIACNOR5073
012024092302RAPT3       010RANDON PART ON      N1   R$  000000000085800000000008850000000000858000000000087100000000008850000000000885000000000088600108000000000000029100000000000025362100000000000000009999123100000010000000000000BRRAPTACNOR7163
012024092302RAPT4       010RANDON PART PN      N1   R$  000000000111000000000011330000000001097000000000111900000000011310000000001125000000000113108506000000000003898200000000004364560300000000000000009999123100000010000000000000BRRAPTACNPR4163
012024092302B3SA3       010B3          ON      NM   R$  000000000115500000000011550000000001119000000000113000000000011200000000001120000000000112358475000000000058376700000000065993518000000000000000009999123100000010000000000000BRB3SAACNOR6133
012024092302BBSE3       010BBSEGURIDADEON      NM   R$  000000000349800000000035360000000003485000000000351600000000035130000000003510000000000351416713000000000003649500000000012834558600000000000000009999123100000010000000000000BRBBSEACNOR5125
012024092302CCRO3       010CCR SA      ON      NM   R$  000000000124000000000012550000000001228000000000123600000000012360000000001231000000000123610057000000000004951700000000006122423500000000000000009999123100000010000000000000BRCCROACNOR2145
012024092302CEAB3       010CEA MODAS   ON      NM   R$  000000000102200000000010370000000001010000000000102100000000010160000000001015000000000101703407000000000000979200000000001000559200000000000000009999123100000010000000000000BRCEABACNOR1102
012024092302CEBR3       010CEB         ON           R$  000000000199300000000019930000000001929000000000194500000000019450000000001928000000000196900020000000000000004100000000000007976600000000000000009999123100000010000000000000BRCEBRACNOR5125
012024092302CEBR5       010CEB         PNA          R$  000000000166800000000016680000000001598000000000161600000000015980000000001592000000000164200020000000000000003700000000000005982300000000000000009999123100000010000000000000BRCEBRACNPA8124
012024092302CEBR6       010CEB         PNB          R$  000000000177600000000018340000000001776000000000180700000000018100000000001797000000000181000048000000000000012800000000000023131600000000000000009999123100000010000000000000BRCEBRACNPB6124
012024092302CEDO3       010CEDRO       ON      N1   R$  000000000255000000000025500000000002550000000000255000000000025500000000001537000000000260000001000000000000000500000000000001275000000000000000009999123100000010000000000000BRCEDOACNOR8096
012024092302TIMS3       010TIM         ON      NM   R$  000000000186800000000018810000000001862000000000187200000000018730000000001871000000000187417186000000000005931600000000011109406300000000000000009999123100000010000000000000BRTIMSACNOR5117
012024092302TOTS3       010TOTVS       ON      NM   R$  000000000289400000000029090000000002845000000000286500000000028600000000002848000000000286011244000000000002520000000000007221778800000000000000009999123100000010000000000000BRTOTSACNOR8145
012024092302PETZ3       010PETZ        ON      NM   R$  000000000045700000000004700000000000451000000000046200000000004650000000000465000000000046610262000000000006502400000000003009022500000000000000009999123100000010000000000000BRPETZACNOR2110
012024092302BAHI3       010BAHEMA      ON      MA   R$  000000000064900000000006490000000000600000000000062200000000006100000000000561000000000061000039000000000000014800000000000009216900000000000000009999123100000010000000000000BRBAHIACNOR1074
012024092302BAZA3       010AMAZONIA    ON           R$  000000000916000000000093220000000009150000000000919700000000091500000000009150000000000937300007000000000000001300000000000011957300000000000000009999123100000010000000000000BRBAZAACNOR0179
012024092302BBAS3       010BRASIL      ON  EJ  NM   R$  000000000275000000000027550000000002727000000000274100000000027400000000002738000000000274028709000000000012354400000000033864722600000000000000009999123100000010000000000000BRBBASACNOR3326
012024092302BPAN4       010BANCO PAN   PN      N1   R$  000000000100900000000010520000000000996000000000103200000000010310000000001030000000000103108770000000000001959600000000002023566900000000000000009999123100000010000000000000BRBPANACNPR1115
012024092302BPAC11      010BTGP BANCO  UNT     N2   R$  000000000333300000000033490000000003239000000000327400000000032790000000003275000000000328026433000000000010884000000000035641068600000000000000009999123100000010000000000000BRBPACUNT006119
012024092302BPAC3       010BTGP BANCO  ON      N2   R$  000000000159300000000015930000000001539000000000156100000000015820000000001569000000000159300033000000000000004400000000000006872200000000000000009999123100000010000000000000BRBPACACNOR7134
012024092302BPAC5       010BTGP BANCO  PNA     N2   R$  000000000088000000000008800000000000845000000000085600000000008450000000000845000000000086900029000000000000003500000000000002997900000000000000009999123100000010000000000000BRBPACACNPA0134
012024092302ENGI11      010ENERGISA    UNT     N2   R$  000000000454300000000045800000000004511000000000453300000000045330000000004522000000000454312569000000000002517600000000011412307900000000000000009999123100000010000000000000BRENGICDAM16136
012024092302ENGI3       010ENERGISA    ON      N2   R$  000000000138600000000013860000000001351000000000137700000000013850000000001358000000000138500009000000000000000900000000000001239600000000000000009999123100000010000000000000BRENGIACNOR0146
012024092302ENGI4       010ENERGISA    PN      N2   R$  000000000079300000000007950000000000782000000000079000000000007880000000000788000000000081000035000000000000005100000000000004032400000000000000009999123100000010000000000000BRENGIACNPR7142
012024092302GRND3       010GRENDENE    ON      NM   R$  000000000057600000000005760000000000560000000000056600000000005720000000000572000000000057303662000000000001139700000000000645495200000000000000009999123100000010000000000000BRGRNDACNOR3175
012024092302MILS3       010MILLS       ON      NM   R$  000000000110800000000011400000000001095000000000112200000000011300000000001129000000000113802988000000000000980600000000001101077700000000000000009999123100000010000000000000BRMILSACNOR2128
012024092302MLAS3       010MULTILASER  ON      NM   R$  000000000015800000000001590000000000154000000000015700000000001580000000000157000000000015803483000000000002432400000000000382311600000000000000009999123100000010000000000000BRMLASACNOR9101
012024092302MNDL3       010MUNDIAL     ON           R$  000000000140100000000015130000000001401000000000145600000000015130000000001182000000000157000004000000000000000600000000000000874000000000000000009999123100000010000000000000BRMNDLACNOR4109
012024092302MNPR3       010MINUPAR     ON           R$  000000000161900000000017500000000001581000000000164800000000017100000000001710000000000173800047000000000000011000000000000018136000000000000000009999123100000010000000000000BRMNPRACNOR5122
012024092302ENJU3       010ENJOEI      ON      NM   R$  000000000013600000000001400000000000136000000000013800000000001370000000000137000000000013800709000000000000455200000000000062902900000000000000009999123100000010000000000000BRENJUACNOR9100
012024092302EPAR3       010EMBPAR S/A  ON           R$  000000000057800000000005780000000000575000000000057700000000005780000000000573000000000057800021000000000000002500000000000001443400000000000000009999123100000010000000000000BREPARACNOR9105
012024092302EQMA3B      010EQTLMARANHAOON      MB   R$  000000000240100000000024010000000002401000000000240100000000024010000000002351000000000244700001000000000000000100000000000000240100000000000000009999123100000010000000000000BREQMAACNOR8108
012024092302EQPA3       010EQTL PARA   ON           R$  000000000060900000000006100000000000593000000000060600000000006030000000000603000000000060800028000000000000019200000000000011648300000000000000009999123100000010000000000000BREQPAACNOR1111
012024092302EQTL3       010EQUATORIAL  ON      NM   R$  000000000326100000000032710000000003226000000000324900000000032500000000003250000000000325417247000000000004787800000000015556065400000000000000009999123100000010000000000000BREQTLACNOR0131
012024092302RADL3       010RAIADROGASILON      NM   R$  000000000267400000000026850000000002664000000000267800000000026850000000002676000000000268509012000000000004414500000000011825024300000000000000009999123100000010000000000000BRRADLACNOR0157
012024092302RAIL3       010RUMO S.A.   ON      NM   R$  000000000198300000000019960000000001955000000000197800000000019800000000001980000000000198123850000000000009718200000000019229926200000000000000009999123100000010000000000000BRRAILACNOR9105
012024092302SNSY5       010SANSUY      PNA          R$  000000000055700000000005570000000000557000000000055700000000005570000000000541000000000055300006000000000000004200000000000002339400000000000000009999123100000010000000000000BRSNSYACNPA5111
012024092302SOJA3       010BOA SAFRA   ON      NM   R$  000000000120800000000012150000000001190000000000120000000000011980000000001197000000000119802706000000000000623700000000000748935400000000000000009999123100000010000000000000BRSOJAACNOR9105
012024092302SRNA3       010SERENA      ON      NM   R$  000000000085000000000008500000000000826000000000083500000000008340000000000834000000000083706724000000000003619000000000003023416200000000000000009999123100000010000000000000BRSRNAACNOR4100
012024092302STBP3       010SANTOS BRP  ON      NM   R$  000000000150000000000015140000000001461000000000148000000000014800000000001475000000000148030128000000000029754900000000044052884000000000000000009999123100000010000000000000BRSTBPACNOR3131
012024092302SUZB3       010SUZANO S.A. ON      NM   R$  000000000520500000000052100000000005117000000000515700000000051650000000005165000000000516624064000000000007444900000000038394102400000000000000009999123100000010000000000000BRSUZBACNOR0130
012024092302EMBR3       010EMBRAER     ON      NM   R$  000000000484300000000049580000000004816000000000489300000000049310000000004930000000000493116982000000000003916500000000019166757400000000000000009999123100000010000000000000BREMBRACNOR4191
012024092302ENEV3       010ENEVA       ON      NM   R$  000000000140000000000014120000000001379000000000138600000000013850000000001385000000000138618699000000000007492600000000010387477800000000000000009999123100000010000000000000BRENEVACNOR8106
012024092302PRNR3       010PRINER      ON      NM   R$  000000000126600000000012800000000001247000000000125300000000012470000000001246000000000125500845000000000000396900000000000497372100000000000000009999123100000010000000000000BRPRNRACNOR4109
012024092302PSSA3       010PORTO SEGUROON      NM   R$  000000000354400000000036000000000003523000000000357000000000035820000000003582000000000358515870000000000002459000000000008779468800000000000000009999123100000010000000000000BRPSSAACNOR7155
012024092302PTBL3       010PORTOBELLO  ON      NM   R$  000000000047400000000004820000000000470000000000047500000000004820000000000480000000000048201701000000000000375700000000000178632900000000000000009999123100000010000000000000BRPTBLACNOR8132
012024092302PTNT3       010PETTENATI   ON           R$  000000000112000000000011880000000001120000000000115600000000011870000000000906000000000118700009000000000000001100000000000001272600000000000000009999123100000010000000000000BRPTNTACNOR6042
012024092302PTNT4       010PETTENATI   PN           R$  000000000070800000000007080000000000700000000000070500000000007080000000000685000000000070800015000000000000004200000000000002962000000000000000009999123100000010000000000000BRPTNTACNPR3047
012024092302QUAL3       010QUALICORP   ON      NM   R$  000000000018700000000001870000000000177000000000018000000000001780000000000178000000000017903203000000000003894400000000000704779300000000000000009999123100000010000000000000BRQUALACNOR6120
012024092302SMFT3       010SMART FIT   ON      NM   R$  000000000220200000000022060000000002135000000000215300000000021360000000002135000000000215008944000000000003654300000000007870274400000000000000009999123100000010000000000000BRSMFTACNOR1112
012024092302SMTO3       010SAO MARTINHOON      NM   R$  000000000271100000000027400000000002660000000000269200000000026890000000002689000000000270506480000000000001112100000000002994699500000000000000009999123100000010000000000000BRSMTOACNOR3127
012024092302WEST3       010WESTWING    ON      NM   R$  000000000008300000000000840000000000083000000000008300000000000830000000000083000000000008400020000000000000010600000000000000881100000000000000009999123100000010000000000000BRWESTACNOR3100
012024092302WHRL3       010WHIRLPOOL   ON  ED       R$  000000000043200000000004380000000000431000000000043200000000004380000000000432000000000043800010000000000000005200000000000002249200000000000000009999123100000010000000000000BRWHRLACNOR5129
012024092302WHRL4       010WHIRLPOOL   PN  ED       R$  000000000046400000000004640000000000458000000000046000000000004580000000000457000000000045800028000000000000005900000000000002717500000000000000009999123100000010000000000000BRWHRLACNPR2129
012024092302WIZC3       010WIZ CO      ON      NM   R$  000000000057000000000005720000000000564000000000056700000000005640000000000564000000000056701115000000000000316800000000000179705800000000000000009999123100000010000000000000BRWIZCACNOR5102
012024092302WLMM4       010WLM IND COM PN           R$  000000000314200000000031840000000003001000000000306000000000030800000000002980000000000311300016000000000000002200000000000006733200000000000000009999123100000010000000000000BRWLMMACNPR3119
012024092302CEDO4       010CEDRO       PN      N1   R$  000000000244600000000024710000000002400000000000241600000000024710000000002400000000000246000005000000000000001000000000000002416300000000000000009999123100000010000000000000BRCEDOACNPR5128
012024092302CEEB3       010COELBA      ON           R$  000000000376500000000038900000000003753000000000378000000000038900000000003753000000000388000005000000000000000600000000000002268400000000000000009999123100000010000000000000BRCEEBACNOR3199
012024092302CEEB5       010COELBA      PNA          R$  000000000355300000000035530000000003553000000000355300000000035530000000003313000000000400000001000000000000000100000000000000355300000000000000009999123100000010000000000000BRCEEBACNPA6193
012024092302CGAS5       010COMGAS      PNA          R$  000000001299000000000130000000000012898000000001295100000000129000000000012700000000001290000009000000000000000900000000000011656600000000000000009999123100000010000000000000BRCGASACNPA3161
012024092302CGRA3       010GRAZZIOTIN  ON           R$  000000000249900000000025010000000002499000000000249900000000025000000000002500000000000251900009000000000000002200000000000005499900000000000000009999123100000010000000000000BRCGRAACNOR2083
012024092302CGRA4       010GRAZZIOTIN  PN           R$  000000000248900000000024930000000002488000000000249200000000024880000000002488000000000249400006000000000000002000000000000004984300000000000000009999123100000010000000000000BRCGRAACNPR9083
012024092302CLSA3       010CLEARSALE   ON      NM   R$  000000000078900000000007890000000000770000000000077500000000007710000000000770000000000077402722000000000000731500000000000567134500000000000000009999123100000010000000000000BRCLSAACNOR0100
012024092302CLSC4       010CELESC      PN      N2   R$  000000000843700000000084370000000008358000000000839700000000083580000000008352000000000841000002000000000000000200000000000001679500000000000000009999123100000010000000000000BRCLSCACNPR3131
012024092302AZUL4       010AZUL        PN      N2   R$  000000000048800000000005470000000000484000000000052200000000005360000000000535000000000053619965000000000042410600000000022168005900000000000000009999123100000010000000000000BRAZULACNPR4103
012024092302BRIT3       010BRISANET    ON      NM   R$  000000000031100000000003120000000000302000000000030500000000003030000000000303000000000030500433000000000000620100000000000189290600000000000000009999123100000010000000000000BRBRITACNOR0103
012024092302BRKM3       010BRASKEM     ON      N1   R$  000000000191000000000019280000000001887000000000190900000000019140000000001914000000000192000107000000000000017900000000000034180800000000000000009999123100000010000000000000BRBRKMACNOR1119
012024092302BRKM5       010BRASKEM     PNA     N1   R$  000000000185900000000019170000000001845000000000187400000000018750000000001875000000000187708982000000000002613100000000004897717600000000000000009999123100000010000000000000BRBRKMACNPA4121
012024092302BRSR3       010BANRISUL    ON  EJ  N1   R$  000000000128500000000012850000000001260000000000127600000000012780000000001270000000000127900054000000000000007800000000000009955700000000000000009999123100000010000000000000BRBRSRACNOR3189
012024092302BRSR5       010BANRISUL    PNA EJ  N1   R$  000000000173100000000017320000000001731000000000173100000000017320000000001505000000000173200003000000000000000500000000000000865900000000000000009999123100000010000000000000BRBRSRACNPA6193
012024092302BRSR6       010BANRISUL    PNB EJ  N1   R$  000000000117600000000011760000000001149000000000115600000000011510000000001150000000000115203386000000000001005400000000001162754300000000000000009999123100000010000000000000BRBRSRACNPB4192
012024092302EKTR4       010ELEKTRO     PN           R$  000000000455500000000045550000000004501000000000454100000000045010000000004501000000000455500004000000000000000400000000000001816600000000000000009999123100000010000000000000BREKTRACNPR7164
012024092302ELET3       010ELETROBRAS  ON      N1   R$  000000000397000000000039700000000003913000000000395200000000039550000000003954000000000395818877000000000005776600000000022833528600000000000000009999123100000010000000000000BRELETACNOR6160
012024092302ELET6       010ELETROBRAS  PNB     N1   R$  000000000444100000000044410000000004380000000000441500000000044250000000004425000000000442605671000000000001083200000000004782780900000000000000009999123100000010000000000000BRELETACNPB7077
012024092302GSHP3       010GENERALSHOPPON           R$  000000000105000000000010500000000001050000000000105000000000010500000000001031000000000113200002000000000000001000000000000001050000000000000000009999123100000010000000000000BRGSHPACNOR7102
012024092302GUAR3       010GUARARAPES  ON      NM   R$  000000000081600000000008170000000000790000000000080100000000008080000000000800000000000080902416000000000000712100000000000570394400000000000000009999123100000010000000000000BRGUARACNOR4173
012024092302SANB11      010SANTANDER BRUNT          R$  000000000295500000000029580000000002856000000000289100000000028890000000002889000000000289509814000000000002365900000000006840690400000000000000009999123100000010000000000000BRSANBCDAM13165
012024092302SANB3       010SANTANDER BRON           R$  000000000140500000000014100000000001355000000000137700000000013740000000001367000000000137400547000000000000109200000000000150411700000000000000009999123100000010000000000000BRSANBACNOR8172
012024092302EALT3       010ACO ALTONA  ON           R$  000000000152500000000015250000000001490000000000150200000000014900000000001471000000000149000003000000000000000300000000000000450600000000000000009999123100000010000000000000BREALTACNOR4138
012024092302EALT4       010ACO ALTONA  PN           R$  000000000140700000000014070000000001345000000000136300000000013500000000001350000000000136500199000000000000145300000000000198125000000000000000009999123100000010000000000000BREALTACNPR1138
012024092302SANB4       010SANTANDER BRPN           R$  000000000154500000000015510000000001501000000000151400000000015150000000001514000000000151700347000000000000060400000000000091489700000000000000009999123100000010000000000000BRSANBACNPR5172
012024092302SAPR11      010SANEPAR     UNT     N2   R$  000000000317400000000031740000000003109000000000312900000000031220000000003122000000000312405911000000000001255700000000003930106500000000000000009999123100000010000000000000BRSAPRCDAM13118
012024092302ATOM3       010ATOMPAR     ON           R$  000000000022800000000002350000000000220000000000023000000000002260000000000226000000000023100034000000000000017900000000000004129400000000000000009999123100000010000000000000BRATOMACNOR1106
012024092302AURE3       010AUREN       ON      NM   R$  000000000106500000000010680000000001053000000000105800000000010600000000001060000000000106107515000000000003807000000000004029457500000000000000009999123100000010000000000000BRAUREACNOR9104
012024092302AVLL3       010ALPHAVILLE  ON      NM   R$  000000000033500000000003350000000000335000000000033500000000003350000000000332000000000033500001000000000000000100000000000000033500000000000000009999123100000010000000000000BRAVLLACNOR5103
012024092302AZEV3       010AZEVEDO     ON           R$  000000000011800000000001220000000000117000000000011800000000001190000000000118000000000011900527000000000000669400000000000079548100000000000000009999123100000010000000000000BRAZEVACNOR0121
012024092302AZEV4       010AZEVEDO     PN           R$  000000000011900000000001230000000000117000000000011900000000001190000000000118000000000011901080000000000001241200000000000148133500000000000000009999123100000010000000000000BRAZEVACNPR7121
012024092302DASA3       010DASA        ON  ES  NM   R$  000000000027800000000002780000000000265000000000027000000000002700000000000267000000000027003166000000000001162400000000000314435300000000000000009999123100000010000000000000BRDASAACNOR1123
012024092302ITUB3       010ITAUUNIBANCOON  EJ  N1   R$  000000000311700000000031210000000003088000000000311400000000031210000000003116000000000312101754000000000000695800000000002166895500000000000000009999123100000010000000000000BRITUBACNOR4341
012024092302ITUB4       010ITAUUNIBANCOPN  EJ  N1   R$  000000000357400000000035980000000003557000000000357500000000035720000000003572000000000357321828000000000015333800000000054833445600000000000000009999123100000010000000000000BRITUBACNPR1341
012024092302PFRM3       010PROFARMA    ON      NM   R$  000000000058300000000005830000000000554000000000056300000000005560000000000556000000000055700882000000000000276800000000000155925600000000000000009999123100000010000000000000BRPFRMACNOR1116
012024092302ASAI3       010ASSAI       ON      NM   R$  000000000076800000000007920000000000767000000000078200000000007860000000000785000000000078820414000000000019916000000000015577832900000000000000009999123100000010000000000000BRASAIACNOR0106
012024092302DOHL4       010DOHLER      PN           R$  000000000040300000000004190000000000402000000000041100000000004190000000000404000000000041900007000000000000000700000000000000288100000000000000009999123100000010000000000000BRDOHLACNPR9066
012024092302DOTZ3       010DOTZ SA     ON      NM   R$  000000000054000000000005590000000000520000000000053300000000005260000000000525000000000055402703000000000000281700000000000150248000000000000000009999123100000010000000000000BRDOTZACNOR7101
012024092302DTCY3       010DTCOM-DIRECTON           R$  000000000050900000000005750000000000470000000000051100000000004760000000000466000000000048000059000000000000011100000000000005682200000000000000009999123100000010000000000000BRDTCYACNOR5109
012024092302DXCO3       010DEXCO       ON      NM   R$  000000000078600000000007920000000000771000000000078100000000007790000000000778000000000078305781000000000001853500000000001447919700000000000000009999123100000010000000000000BRDXCOACNOR8105
012024092302DESK3       010DESKTOP     ON      NM   R$  000000000162800000000016280000000001530000000000157200000000015880000000001549000000000158800999000000000000310600000000000488279800000000000000009999123100000010000000000000BRDESKACNOR2104
012024092302DEXP3       010DEXXOS PAR  ON      N1   R$  000000000088500000000008850000000000864000000000087500000000008790000000000872000000000087900320000000000000068700000000000060147000000000000000009999123100000010000000000000BRDEXPACNOR1105
012024092302DEXP4       010DEXXOS PAR  PN      N1   R$  000000000088000000000008840000000000880000000000088300000000008800000000000871000000000088000003000000000000003300000000000002916000000000000000009999123100000010000000000000BRDEXPACNPR8105
012024092302DIRR3       010DIRECIONAL  ON  ED  NM   R$  000000000318600000000032140000000003063000000000311000000000031210000000003121000000000312512171000000000002476900000000007704731500000000000000009999123100000010000000000000BRDIRRACNOR0119
012024092302PGMN3       010PAGUE MENOS ON      NM   R$  000000000026700000000002710000000000260000000000026700000000002700000000000268000000000027001759000000000000601100000000000160519300000000000000009999123100000010000000000000BRPGMNACNOR8103
012024092302TPIS3       010TRIUNFO PARTON      NM   R$  000000000049700000000005090000000000487000000000049500000000004940000000000494000000000051000117000000000000039000000000000019318600000000000000009999123100000010000000000000BRTPISACNOR8118
012024092302TRAD3       010TC          ON      NM   R$  000000000042600000000004580000000000404000000000043400000000004280000000000428000000000043200467000000000000156700000000000068034000000000000000009999123100000010000000000000BRTRADACNOR3102
012024092302TRIS3       010TRISUL      ON      NM   R$  000000000048600000000004940000000000481000000000048700000000004850000000000485000000000048601000000000000000362500000000000176587200000000000000009999123100000010000000000000BRTRISACNOR4118
012024092302TRPL3       010TRAN PAULISTON      N1   R$  000000000315100000000031510000000003136000000000313800000000031360000000003135000000000314600015000000000000002400000000000007532400000000000000009999123100000010000000000000BRTRPLACNOR4185
012024092302TRPL4       010TRAN PAULISTPN      N1   R$  000000000244700000000024510000000002428000000000243800000000024380000000002438000000000244407531000000000002215800000000005403596300000000000000009999123100000010000000000000BRTRPLACNPR1185
012024092302HAGA3       010HAGA S/A    ON           R$  000000000024500000000002560000000000245000000000025400000000002560000000000250000000000025300037000000000000038900000000000009892500000000000000009999123100000010000000000000BRHAGAACNOR7103
012024092302HAGA4       010HAGA S/A    PN           R$  000000000011700000000001180000000000116000000000011600000000001180000000000116000000000011800014000000000000002800000000000000326700000000000000009999123100000010000000000000BRHAGAACNPR4103
012024092302HAPV3       010HAPVIDA     ON      NM   R$  000000000043000000000004360000000000418000000000042100000000004230000000000423000000000042432331000000000076987500000000032487343500000000000000009999123100000010000000000000BRHAPVACNOR4114
012024092302HBOR3       010HELBOR      ON      NM   R$  000000000019400000000001940000000000187000000000018800000000001870000000000187000000000018800421000000000000624800000000000118014300000000000000009999123100000010000000000000BRHBORACNOR3118
012024092302DMVF3       010D1000VFARMA ON      NM   R$  000000000068000000000006800000000000629000000000064600000000006380000000000638000000000064700360000000000000056700000000000036658200000000000000009999123100000010000000000000BRDMVFACNOR9100
012024092302OPCT3       010OCEANPACT   ON      NM   R$  000000000069000000000006900000000000660000000000067500000000006800000000000673000000000068001771000000000000338000000000000228462800000000000000009999123100000010000000000000BROPCTACNOR0100
012024092302ORVR3       010ORIZON      ON      NM   R$  000000000460000000000049880000000004600000000000487000000000049500000000004930000000000495506493000000000001544600000000007523627400000000000000009999123100000010000000000000BRORVRACNOR0101
012024092302TTEN3       0103TENTOS     ON      NM   R$  000000000117900000000011790000000001132000000000114800000000011550000000001155000000000115605824000000000000978900000000001124472100000000000000009999123100000010000000000000BRTTENACNOR0103
012024092302TUPY3       010TUPY        ON      NM   R$  000000000262700000000026270000000002580000000000259300000000025830000000002583000000000259301959000000000000290400000000000753048400000000000000009999123100000010000000000000BRTUPYACNOR1184
012024092302UCAS3       010UNICASA     ON      NM   R$  000000000021900000000002200000000000211000000000021300000000002180000000000216000000000021800110000000000000039700000000000008490300000000000000009999123100000010000000000000BRUCASACNOR1113
012024092302PCAR3       010P.ACUCAR-CBDON      NM   R$  000000000028800000000002960000000000285000000000029000000000002930000000000293000000000029407217000000000006085000000000001768974900000000000000009999123100000010000000000000BRPCARACNOR3167
012024092302PDGR3       010PDG REALT   ON      NM   R$  000000000001600000000000160000000000011000000000001300000000000120000000000012000000000001301056000000000019532300000000000258546200000000000000009999123100000010000000000000BRPDGRACNOR8119
012024092302UGPA3       010ULTRAPAR    ON      NM   R$  000000000213000000000021340000000002102000000000211500000000021110000000002107000000000211121529000000000004184500000000008851492300000000000000009999123100000010000000000000BRUGPAACNOR8156
012024092302TASA3       010TAURUS ARMASON      N2   R$  000000000110700000000011080000000001091000000000110000000000010990000000001099000000000110400064000000000000011500000000000012654100000000000000009999123100000010000000000000BRTASAACNOR7104
012024092302TASA4       010TAURUS ARMASPN      N2   R$  000000000110000000000011020000000001085000000000109300000000010920000000001092000000000109501448000000000000354900000000000388117400000000000000009999123100000010000000000000BRTASAACNPR4104
012024092302TCSA3       010TECNISA     ON      NM   R$  000000000018400000000001920000000000180000000000018700000000001880000000000185000000000018800228000000000000170000000000000031883100000000000000009999123100000010000000000000BRTCSAACNOR3112
012024092302TECN3       010TECHNOS     ON      NM   R$  000000000049200000000004950000000000484000000000048800000000004950000000000491000000000049600111000000000000053200000000000025985300000000000000009999123100000010000000000000BRTECNACNOR6109
012024092302TELB3       010TELEBRAS    ON           R$  000000000140000000000014000000000001386000000000139800000000014000000000001380000000000140000009000000000000001300000000000001817600000000000000009999123100000010000000000000BRTELBACNOR2140
012024092302TELB4       010TELEBRAS    PN           R$  000000000088800000000009050000000000888000000000090000000000009050000000000885000000000090500015000000000000003100000000000002792900000000000000009999123100000010000000000000BRTELBACNPR9140
012024092302TEND3       010TENDA       ON      NM   R$  000000000132000000000013330000000001248000000000126600000000012760000000001275000000000127710314000000000003406000000000004313991200000000000000009999123100000010000000000000BRTENDACNOR4111
012024092302TFCO4       010TRACK FIELD PN      N2   R$  000000000112100000000011210000000001100000000000110800000000011050000000001105000000000111200858000000000000173100000000000191924100000000000000009999123100000010000000000000BRTFCOACNPR8114
012024092302TGMA3       010TEGMA       ON      NM   R$  000000000265700000000026760000000002641000000000266200000000026760000000002654000000000267600869000000000000150800000000000401512600000000000000009999123100000010000000000000BRTGMAACNOR7145
012024092302YDUQ3       010YDUQS PART  ON      NM   R$  000000000098700000000009900000000000940000000000096100000000009400000000000940000000000094115401000000000009178800000000008824496200000000000000009999123100000010000000000000BRYDUQACNOR3105
012024092302ECOR3       010ECORODOVIAS ON      NM   R$  000000000073600000000007360000000000713000000000072000000000007130000000000713000000000071505358000000000002529300000000001823183500000000000000009999123100000010000000000000BRECORACNOR8120
012024092302EGIE3       010ENGIE BRASILON      NM   R$  000000000434700000000043600000000004321000000000434100000000043460000000004344000000000434904102000000000000669500000000002906727400000000000000009999123100000010000000000000BREGIEACNOR9127
012024092302JALL3       010JALLESMACHADON      NM   R$  000000000067100000000006770000000000662000000000066900000000006670000000000667000000000067001510000000000000548300000000000367073100000000000000009999123100000010000000000000BRJALLACNOR0106
012024092302JBSS3       010JBS         ON      NM   R$  000000000312500000000032480000000003106000000000317400000000031810000000003178000000000318124782000000000010939300000000034721876000000000000000009999123100000010000000000000BRJBSSACNOR8122
012024092302SAPR3       010SANEPAR     ON      N2   R$  000000000059800000000005980000000000585000000000059000000000005900000000000586000000000059000700000000000000225300000000000133147600000000000000009999123100000010000000000000BRSAPRACNOR9159
012024092302PDTC3       010PADTEC      ON      NM   R$  000000000018700000000001920000000000187000000000019000000000001890000000000189000000000019100058000000000000026400000000000005020000000000000000009999123100000010000000000000BRPDTCACNOR3101
012024092302PEAB3       010PAR AL BAHIAON           R$  000000000430000000000043000000000004300000000000430000000000043000000000003800000000000440000002000000000000000300000000000001290000000000000000009999123100000010000000000000BRPEABACNOR3133
012024092302PEAB4       010PAR AL BAHIAPN           R$  000000000470800000000047080000000004632000000000467000000000046320000000004632000000000499900004000000000000000400000000000001868000000000000000009999123100000010000000000000BRPEABACNPR0133
012024092302PETR3       010PETROBRAS   ON      N2   R$  000000000397300000000040670000000003971000000000402700000000040200000000004017000000000402125468000000000008280000000000033348446300000000000000009999123100000010000000000000BRPETRACNOR9206
012024092302PETR4       010PETROBRAS   PN      N2   R$  000000000363900000000036960000000003622000000000367000000000036630000000003662000000000366545244000000000028218500000000103586020400000000000000009999123100000010000000000000BRPETRACNPR6214
012024092302RSUL4       010RIOSULENSE  PN           R$  000000000613500000000062460000000006007000000000611500000000060070000000006006000000000619700022000000000000002400000000000014677200000000000000009999123100000010000000000000BRRSULACNPR3114
012024092302SAPR4       010SANEPAR     PN      N2   R$  000000000063800000000006380000000000624000000000063000000000006280000000000627000000000062803386000000000001588400000000001001317400000000000000009999123100000010000000000000BRSAPRACNPR6159
012024092302SBFG3       010GRUPO SBF   ON      NM   R$  000000000167000000000016700000000001613000000000164500000000016470000000001642000000000165106902000000000001525200000000002509016100000000000000009999123100000010000000000000BRSBFGACNOR1103
012024092302SBSP3       010SABESP      ON      NM   R$  000000000943400000000094680000000009308000000000936800000000093620000000009362000000000936910528000000000002270900000000021274331700000000000000009999123100000010000000000000BRSBSPACNOR5161
012024092302SCAR3       010SAO CARLOS  ON      NM   R$  000000000226000000000022600000000002128000000000219200000000021670000000002126000000000216700154000000000000047200000000000103493400000000000000009999123100000010000000000000BRSCARACNOR7131
012024092302SEER3       010SER EDUCA   ON      NM   R$  000000000062200000000006250000000000604000000000061400000000006150000000000611000000000061501600000000000000346800000000000212964900000000000000009999123100000010000000000000BRSEERACNOR5119
012024092302BBDC3       010BRADESCO    ON      N1   R$  000000000132300000000013240000000001289000000000129400000000012930000000001292000000000129408554000000000011293900000000014620886700000000000000009999123100000010000000000000BRBBDCACNOR1774
012024092302BBDC4       010BRADESCO    PN      N1   R$  000000000146800000000014680000000001433000000000144100000000014370000000001436000000000143836128000000000045384200000000065412101600000000000000009999123100000010000000000000BRBBDCACNPR8774
012024092302BRBI11      010BR PARTNERS UNT     N2   R$  000000000152800000000015350000000001510000000000151800000000015250000000001511000000000152501166000000000000190400000000000289176900000000000000009999123100000010000000000000BRBRBICDAM10110
012024092302BRFS3       010BRF SA      ON      NM   R$  000000000250800000000025080000000002464000000000248100000000024830000000002477000000000248413159000000000004199000000000010420543100000000000000009999123100000010000000000000BRBRFSACNOR8122
012024092302GGBR3       010GERDAU      ON      N1   R$  000000000162000000000016200000000001587000000000159400000000015920000000001592000000000160300515000000000000079700000000000127078700000000000000009999123100000010000000000000BRGGBRACNOR1193
012024092302GGBR4       010GERDAU      PN      N1   R$  000000000179200000000018020000000001763000000000177400000000017740000000001773000000000177517482000000000009683000000000017182356000000000000000009999123100000010000000000000BRGGBRACNPR8193
012024092302PINE4       010PINE        PN      N2   R$  000000000049500000000004950000000000470000000000047700000000004770000000000477000000000047801280000000000000438700000000000209534600000000000000009999123100000010000000000000BRPINEACNPR8150
012024092302PLPL3       010PLANOEPLANO ON      NM   R$  000000000126200000000012660000000001226000000000124900000000012520000000001250000000000125401548000000000000290500000000000363037500000000000000009999123100000010000000000000BRPLPLACNOR5104
012024092302PNVL3       010DIMED       ON      NM   R$  000000000099900000000010020000000000992000000000099700000000009970000000000995000000000099801642000000000000294700000000000293855500000000000000009999123100000010000000000000BRPNVLACNOR9207
012024092302POMO3       010MARCOPOLO   ON      N2   R$  000000000059300000000006040000000000590000000000059500000000006040000000000596000000000060400611000000000000324000000000000192979300000000000000009999123100000010000000000000BRPOMOACNOR0099
012024092302MOVI3       010MOVIDA      ON      NM   R$  000000000065400000000006620000000000640000000000065200000000006550000000000655000000000065705699000000000002528900000000001650043900000000000000009999123100000010000000000000BRMOVIACNOR0122
012024092302MRFG3       010MARFRIG     ON      NM   R$  000000000141900000000014320000000001388000000000140600000000014070000000001406000000000141012895000000000004089200000000005750910900000000000000009999123100000010000000000000BRMRFGACNOR0116
012024092302GEPA4       010GER PARANAP PN           R$  000000000296100000000030000000000002950000000000299200000000029500000000002876000000000298900022000000000000003300000000000009875800000000000000009999123100000010000000000000BRGEPAACNPR9160
012024092302GFSA3       010GAFISA      ON      NM   R$  000000000023000000000002410000000000224000000000023300000000002330000000000233000000000023603088000000000003889900000000000907696600000000000000009999123100000010000000000000BRGFSAACNOR3125
012024092302VIVA3       010VIVARA S.A. ON      NM   R$  000000000277100000000027720000000002685000000000272700000000027270000000002725000000000272912680000000000002373000000000006471712800000000000000009999123100000010000000000000BRVIVAACNOR0107
012024092302VIVR3       010VIVER       ON      NM   R$  000000000020300000000002150000000000195000000000020500000000001950000000000195000000000019800301000000000000174600000000000035966200000000000000009999123100000010000000000000BRVIVRACNOR4123
012024092302VIVT3       010TELEF BRASILON           R$  000000000550000000000055240000000005454000000000549900000000054930000000005488000000000549408931000000000001279200000000007034909700000000000000009999123100000010000000000000BRVIVTACNOR0184
012024092302VLID3       010VALID       ON      NM   R$  000000000235000000000023500000000002227000000000227900000000022880000000002285000000000228803017000000000000495800000000001130015800000000000000009999123100000010000000000000BRVLIDACNOR5144
012024092302AERI3       010AERIS       ON      NM   R$  000000000070500000000007190000000000638000000000066800000000006400000000000639000000000064301410000000000000531300000000000355018300000000000000009999123100000010000000000000BRAERIACNOR4102
012024092302AESB3       010AES BRASIL  ON      NM   R$  000000000116600000000011680000000001163000000000116500000000011680000000001165000000000116801976000000000003060100000000003567573800000000000000009999123100000010000000000000BRAESBACNOR7107
012024092302AFLT3       010AFLUENTE T  ON           R$  000000000071000000000007100000000000710000000000071000000000007100000000000711000000000072800001000000000000000100000000000000071000000000000000009999123100000010000000000000BRAFLTACNOR1122
012024092302AGRO3       010BRASILAGRO  ON      NM   R$  000000000249700000000026000000000002496000000000256500000000025830000000002571000000000258302492000000000000379300000000000972994900000000000000009999123100000010000000000000BRAGROACNOR7114
012024092302POMO4       010MARCOPOLO   PN      N2   R$  000000000078000000000007870000000000771000000000078000000000007870000000000786000000000078810301000000000003723100000000002904744900000000000000009999123100000010000000000000BRPOMOACNPR7099
012024092302PORT3       010WILSON SONS ON      NM   R$  000000000171000000000017520000000001710000000000173800000000017500000000001749000000000175303139000000000002748200000000004778712000000000000000009999123100000010000000000000BRPORTACNOR8109
012024092302POSI3       010POSITIVO TECON      NM   R$  000000000056900000000005690000000000553000000000055800000000005550000000000554000000000055503076000000000001149100000000000641417900000000000000009999123100000010000000000000BRPOSIACNOR9116
012024092302PRIO3       010PETRORIO    ON      NM   R$  000000000441500000000045010000000004392000000000445600000000044580000000004458000000000446422785000000000007186500000000032025231600000000000000009999123100000010000000000000BRPRIOACNOR1107
012024092302UNIP3       010UNIPAR      ON           R$  000000000473800000000047380000000004655000000000468300000000046550000000004655000000000473800073000000000000008400000000000039338900000000000000009999123100000010000000000000BRUNIPACNOR7206
012024092302UNIP5       010UNIPAR      PNA          R$  000000000483000000000048340000000004764000000000481200000000048210000000004772000000000486000004000000000000000400000000000001924900000000000000009999123100000010000000000000BRUNIPACNPA0208
012024092302UNIP6       010UNIPAR      PNB          R$  000000000482500000000048250000000004716000000000477300000000047560000000004755000000000475601125000000000000178800000000000853570400000000000000009999123100000010000000000000BRUNIPACNPB8206
012024092302USIM3       010USIMINAS    ON      N1   R$  000000000056500000000005650000000000537000000000054700000000005530000000000552000000000055301679000000000000808600000000000442490800000000000000009999123100000010000000000000BRUSIMACNOR3167
012024092302USIM5       010USIMINAS    PNA     N1   R$  000000000056700000000005670000000000542000000000055600000000005600000000000559000000000056034848000000000031887600000000017733420200000000000000009999123100000010000000000000BRUSIMACNPA6169
012024092302VAMO3       010VAMOS       ON      NM   R$  000000000065600000000006640000000000642000000000065400000000006600000000000660000000000066116512000000000007689600000000005033206700000000000000009999123100000010000000000000BRVAMOACNOR7105
012024092302VBBR3       010VIBRA       ON      NM   R$  000000000247600000000024760000000002375000000000238400000000023780000000002378000000000237923583000000000019008900000000045319146900000000000000009999123100000010000000000000BRVBBRACNOR1108
012024092302BIOM3       010BIOMM       ON      MA   R$  000000000101000000000010100000000000969000000000098000000000009880000000000987000000000099100089000000000000018800000000000018434600000000000000009999123100000010000000000000BRBIOMACNOR2112
012024092302BLAU3       010BLAU        ON      NM   R$  000000000131700000000013390000000001290000000000131100000000013200000000001310000000000132100869000000000000381200000000000499886200000000000000009999123100000010000000000000BRBLAUACNOR8114
012024092302BMEB4       010MERCANTIL   PN      N1   R$  000000000415600000000042750000000004126000000000416600000000041400000000004140000000000417300164000000000000023000000000000095825000000000000000009999123100000010000000000000BRBMEBACNPR5211
012024092302BMGB4       010BANCO BMG   PN      N1   R$  000000000038700000000003870000000000379000000000038100000000003830000000000380000000000038300785000000000000360800000000000137622700000000000000009999123100000010000000000000BRBMGBACNPR0110
012024092302BMIN4       010MERC INVEST PN           R$  000000000163000000000016300000000001630000000000163000000000016300000000001630000000000175000002000000000000000400000000000000652000000000000000009999123100000010000000000000BRBMINACNPR1176
012024092302BMKS3       010BIC MONARK  ON           R$  000000003150000000000315000000000031000000000003110100000000311000000000031000000000003110000077000000000000000728000000000022642249000000000000009999123100000010000000000000BRBMKSACNOR9166
012024092302BMOB3       010BEMOBI TECH ON      NM   R$  000000000137900000000013970000000001372000000000138100000000013760000000001376000000000138400813000000000000167300000000000231191700000000000000009999123100000010000000000000BRBMOBACNOR7103
012024092302BOBR4       010BOMBRIL     PN           R$  000000000022200000000002250000000000219000000000022000000000002220000000000222000000000022400033000000000000013900000000000003071100000000000000009999123100000010000000000000BRBOBRACNPR3128
012024092302BRAP3       010BRADESPAR   ON      N1   R$  000000000175600000000017590000000001717000000000172600000000017170000000001717000000000173003007000000000000375200000000000647885200000000000000009999123100000010000000000000BRBRAPACNOR5148
012024092302BRAP4       010BRADESPAR   PN      N1   R$  000000000181800000000018410000000001805000000000182900000000018280000000001828000000000182910067000000000003634300000000006648724400000000000000009999123100000010000000000000BRBRAPACNPR2148
012024092302BRAV3       010BRAVA       ON      NM   R$  000000000181400000000018350000000001778000000000180500000000017900000000001790000000000179516091000000000006716300000000012128963000000000000000009999123100000010000000000000BRBRAVACNOR3100
012024092302FESA4       010FERBASA     PN      N1   R$  000000000077300000000007770000000000763000000000076700000000007660000000000766000000000076901826000000000000669300000000000513594300000000000000009999123100000010000000000000BRFESAACNPR5085
012024092302FHER3       010FER HERINGERON      NM   R$  000000000039100000000004050000000000391000000000039600000000003950000000000391000000000039500016000000000000002800000000000001109500000000000000009999123100000010000000000000BRFHERACNOR5103
012024092302FIEI3       010FICA        ON           R$  000000000088500000000008890000000000885000000000088800000000008890000000000900000000000092000002000000000000002400000000000002133200000000000000009999123100000010000000000000BRFIEIACNOR2100
012024092302FIQE3       010UNIFIQUE    ON      NM   R$  000000000037000000000003750000000000364000000000036800000000003670000000000367000000000036801049000000000000822900000000000303583200000000000000009999123100000010000000000000BRFIQEACNOR5107
012024092302FLRY3       010FLEURY      ON      NM   R$  000000000162700000000016360000000001605000000000161200000000016100000000001607000000000161109075000000000002401000000000003871289700000000000000009999123100000010000000000000BRFLRYACNOR5139
012024092302FRAS3       010FRAS-LE     ON      N1   R$  000000000203100000000020520000000002017000000000203300000000020450000000002032000000000204601816000000000000374000000000000760675300000000000000009999123100000010000000000000BRFRASACNOR0160
012024092302FRIO3       010METALFRIO   ON      NM   R$  000000001150100000000152000000000011501000000001458300000000152000000000015200000000001700000016000000000000002400000000000035000400000000000000009999123100000010000000000000BRFRIOACNOR2111
012024092302ITSA3       010ITAUSA      ON  EJ  N1   R$  000000000108700000000010920000000001079000000000108400000000010820000000001082000000000108800584000000000000203700000000000220919900000000000000009999123100000010000000000000BRITSAACNOR0443
012024092302ITSA4       010ITAUSA      PN  EJ  N1   R$  000000000109300000000010970000000001087000000000109100000000010900000000001090000000000109122961000000000021846000000000023840812000000000000000009999123100000010000000000000BRITSAACNPR7443
012024092302LVTC3       010WDC NETWORKSON      NM   R$  000000000040100000000004010000000000381000000000038800000000003810000000000381000000000038800042000000000000019400000000000007534600000000000000009999123100000010000000000000BRLVTCACNOR4102
012024092302LWSA3       010LWSA        ON      NM   R$  000000000041500000000004210000000000408000000000041500000000004210000000000420000000000042114182000000000005661200000000002354897300000000000000009999123100000010000000000000BRLWSAACNOR8103
012024092302CASH3       010MELIUZ      ON      NM   R$  000000000041500000000004270000000000407000000000041900000000004220000000000422000000000042302798000000000001354900000000000568478200000000000000009999123100000010000000000000BRCASHACNOR8107
012024092302CBAV3       010CBA         ON      NM   R$  000000000046600000000004750000000000459000000000046800000000004690000000000469000000000047204761000000000001819500000000000852515800000000000000009999123100000010000000000000BRCBAVACNOR5104
012024092302CBEE3       010AMPLA ENERG ON  ES       R$  000000000199900000000019990000000001700000000000177900000000017000000000001500000000000170000009000000000000001000000000000001779900000000000000009999123100000010000000000000BRCBEEACNOR3160
012024092302CPFE3       010CPFL ENERGIAON      NM   R$  000000000335000000000033540000000003301000000000332400000000033340000000003327000000000333604306000000000000995500000000003309498100000000000000009999123100000010000000000000BRCPFEACNOR0137
012024092302CPLE3       010COPEL       ON      N2   R$  000000000093800000000009380000000000921000000000092500000000009250000000000925000000000092606765000000000003352300000000003102517500000000000000009999123100000010000000000000BRCPLEACNOR8149
012024092302CPLE5       010COPEL       PNA     N2   R$  000000000118000000000011800000000001180000000000118000000000011800000000001125000000000118000003000000000000000300000000000000354000000000000000009999123100000010000000000000BRCPLEACNPA1147
012024092302CPLE6       010COPEL       PNB     N2   R$  000000000104400000000010460000000001031000000000103600000000010340000000001034000000000103519736000000000010262200000000010637137800000000000000009999123100000010000000000000BRCPLEACNPB9146
012024092302ESPA3       010ESPACOLASER ON      NM   R$  000000000010500000000001050000000000102000000000010200000000001030000000000103000000000010400120000000000000203700000000000020913000000000000000009999123100000010000000000000BRESPAACNOR7103
012024092302ESTR4       010ESTRELA     PN           R$  000000000038900000000004000000000000389000000000039700000000003950000000000300000000000039200008000000000000001300000000000000517300000000000000009999123100000010000000000000BRESTRACNPR0144
012024092302ETER3       010ETERNIT     ON      NM   R$  000000000058100000000005820000000000571000000000057500000000005720000000000571000000000057500408000000000000139100000000000080115900000000000000009999123100000010000000000000BRETERACNOR3244
012024092302EUCA3       010EUCATEX     ON      N1   R$  000000000170900000000017090000000001709000000000170900000000017090000000001572000000000173900001000000000000000100000000000000170900000000000000009999123100000010000000000000BREUCAACNOR1157
012024092302EUCA4       010EUCATEX     PN      N1   R$  000000000157100000000015820000000001554000000000156500000000015540000000001554000000000156900274000000000000041600000000000065131200000000000000009999123100000010000000000000BREUCAACNPR8044
012024092302EVEN3       010EVEN        ON      NM   R$  000000000062000000000006240000000000609000000000061800000000006200000000000619000000000062002563000000000000625900000000000387261400000000000000009999123100000010000000000000BREVENACNOR8119
012024092302VALE3       010VALE        ON      NM   R$  000000000570900000000057860000000005660000000000574300000000057530000000005752000000000575434970000000000018164700000000104327704700000000000000009999123100000010000000000000BRVALEACNOR0211
012024092302VSTE3       010VESTE       ON      NM   R$  000000000134800000000013900000000001283000000000131200000000012830000000001283000000000135700056000000000000013000000000000017063000000000000000009999123100000010000000000000BRVSTEACNOR5103
012024092302VTRU3       010VITRUEDUCA  ON      NM   R$  000000000093800000000009890000000000931000000000094900000000009310000000000931000000000094100516000000000000163200000000000154965300000000000000009999123100000010000000000000BRVTRUACNOR3100
012024092302VULC3       010VULCABRAS   ON  ED  NM   R$  000000000168000000000016800000000001636000000000165900000000016760000000001670000000000167803934000000000000870400000000001444585200000000000000009999123100000010000000000000BRVULCACNOR2162
012024092302VVEO3       010VIVEO       ON      NM   R$  000000000019400000000001960000000000185000000000018900000000001900000000000189000000000019004188000000000002902300000000000551296900000000000000009999123100000010000000000000BRVVEOACNOR0104
012024092302WEGE3       010WEG         ON      NM   R$  000000000524100000000054320000000005239000000000537500000000054320000000005430000000000543218050000000000004877100000000026216151800000000000000009999123100000010000000000000BRWEGEACNOR0224
012024092302GGPS3       010GPS         ON      NM   R$  000000000184300000000018710000000001840000000000186200000000018650000000001858000000000186903309000000000000840500000000001565759600000000000000009999123100000010000000000000BRGGPSACNOR9103
012024092302GMAT3       010GRUPO MATEUSON      NM   R$  000000000071000000000007170000000000706000000000071100000000007130000000000711000000000071405114000000000003102400000000002207966900000000000000009999123100000010000000000000BRGMATACNOR7102
012024092302GOAU3       010GERDAU MET  ON      N1   R$  000000000106900000000010690000000001036000000000104300000000010460000000001046000000000104700187000000000000054100000000000056468700000000000000009999123100000010000000000000BRGOAUACNOR1268
012024092302GOAU4       010GERDAU MET  PN      N1   R$  000000000103500000000010380000000001027000000000103100000000010360000000001034000000000103608453000000000004220800000000004355657000000000000000009999123100000010000000000000BRGOAUACNPR8269
012024092302HBRE3       010HBR REALTY  ON      NM   R$  000000000046700000000004700000000000455000000000046200000000004650000000000465000000000046901020000000000000352100000000000162727800000000000000009999123100000010000000000000BRHBREACNOR4100
012024092302HBSA3       010HIDROVIAS   ON      NM   R$  000000000034200000000003440000000000338000000000034000000000003400000000000340000000000034102329000000000000938500000000000319407000000000000000009999123100000010000000000000BRHBSAACNOR0100
012024092302HBTS5       010HABITASUL   PNA          R$  000000000400000000000040000000000004000000000000400000000000040000000000003630000000000400000001000000000000000100000000000000400000000000000000009999123100000010000000000000BRHBTSACNPA3128
012024092302JHSF3       010JHSF PART   ON      NM   R$  000000000041900000000004190000000000407000000000041100000000004110000000000410000000000041104180000000000002428600000000000999888500000000000000009999123100000010000000000000BRJHSFACNOR2139
012024092302ALPK3       010ESTAPAR     ON      NM   R$  000000000029600000000003040000000000277000000000028900000000002960000000000294000000000029600412000000000000250500000000000072581900000000000000009999123100000010000000000000BRALPKACNOR9101
012024092302ALUP11      010ALUPAR      UNT     N2   R$  000000000305000000000031040000000003050000000000308300000000030850000000003085000000000309305412000000000001320100000000004070740200000000000000009999123100000010000000000000BRALUPCDAM15120
012024092302ALUP3       010ALUPAR      ON      N2   R$  000000000108500000000010850000000001028000000000104300000000010430000000001044000000000105000029000000000000003600000000000003757500000000000000009999123100000010000000000000BRALUPACNOR8120
012024092302ALUP4       010ALUPAR      PN      N2   R$  000000000101200000000010440000000001011000000000102400000000010380000000001019000000000103800062000000000000013100000000000013422400000000000000009999123100000010000000000000BRALUPACNPR5120
012024092302VITT3       010VITTIA      ON      NM   R$  000000000056000000000005880000000000554000000000057000000000005880000000000567000000000058800919000000000000199100000000000113502100000000000000009999123100000010000000000000BRVITTACNOR4107
012024092302AMAR3       010LOJAS MARISAON      NM   R$  000000000010600000000001070000000000104000000000010500000000001070000000000105000000000010700380000000000000154000000000000016263900000000000000009999123100000010000000000000BRAMARACNOR4115
012024092302AMBP3       010AMBIPAR     ON      NM   R$  000000000758700000000083500000000007526000000000809200000000080000000000007980000000000800001516000000000001122700000000009085864800000000000000009999123100000010000000000000BRAMBPACNOR6103
012024092302ANIM3       010ANIMA       ON      NM   R$  000000000027200000000002750000000000262000000000026600000000002640000000000263000000000026408109000000000009449700000000002515037200000000000000009999123100000010000000000000BRANIMACNOR6109
012024092302ARML3       010ARMAC       ON      NM   R$  000000000087900000000009000000000000855000000000088300000000008980000000000889000000000089803070000000000000706700000000000624137300000000000000009999123100000010000000000000BRARMLACNOR1112
012024092302AHEB3       010SPTURIS     ON           R$  000000000375000000000037500000000003750000000000375000000000037500000000002990000000000395000001000000000000000100000000000000375000000000000000009999123100000010000000000000BRAHEBACNOR0106
012024092302ALLD3       010ALLIED      ON      NM   R$  000000000074000000000007540000000000730000000000074300000000007450000000000745000000000074600191000000000000040900000000000030401500000000000000009999123100000010000000000000BRALLDACNOR3106
012024092302ALOS3       010ALLOS       ON      NM   R$  000000000222400000000022300000000002191000000000221200000000022180000000002216000000000221811701000000000003155000000000006982014000000000000000009999123100000010000000000000BRALOSACNOR5101
012024092302ALPA3       010ALPARGATAS  ON      N1   R$  000000000073000000000007300000000000720000000000072600000000007200000000000714000000000073000007000000000000001700000000000001234900000000000000009999123100000010000000000000BRALPAACNOR0231
012024092302ALPA4       010ALPARGATAS  PN      N1   R$  000000000070500000000007190000000000693000000000070900000000007130000000000712000000000071410443000000000002824900000000002005416300000000000000009999123100000010000000000000BRALPAACNPR7232
012024092302CAMB3       010CAMBUCI     ON           R$  000000000119900000000012250000000001177000000000119300000000012250000000001206000000000122500134000000000000031200000000000037244500000000000000009999123100000010000000000000BRCAMBACNOR4131
012024092302CAML3       010CAMIL       ON      NM   R$  000000000088000000000008860000000000869000000000087900000000008840000000000880000000000088401928000000000000304100000000000267380800000000000000009999123100000010000000000000BRCAMLACNOR3129
012024092302CRFB3       010CARREFOUR BRON      NM   R$  000000000086000000000008700000000000836000000000085000000000008700000000000865000000000087012051000000000007583300000000006451379900000000000000009999123100000010000000000000BRCRFBACNOR2116
012024092302ELMD3       010ELETROMIDIA ON      NM   R$  000000000173700000000017500000000001708000000000172700000000017500000000001702000000000175100414000000000000079500000000000137360800000000000000009999123100000010000000000000BRELMDACNOR3101
012024092302EMAE4       010EMAE        PN           R$  000000000454000000000047990000000004507000000000459300000000045790000000004578000000000457900107000000000000039500000000000181443500000000000000009999123100000010000000000000BREMAEACNPR1125
012024092302JSLG3       010JSL         ON      NM   R$  000000000092600000000009260000000000896000000000090800000000009150000000000915000000000092002375000000000000388000000000000352311800000000000000009999123100000010000000000000BRJSLGACNOR2121
012024092302KEPL3       010KEPLER WEBERON      NM   R$  000000000101400000000010280000000001001000000000100800000000010110000000001011000000000101303116000000000001021400000000001030493600000000000000009999123100000010000000000000BRKEPLACNOR1064
012024092302KLBN11      010KLABIN S/A  UNT     N2   R$  000000000209100000000020960000000002070000000000208100000000020820000000002082000000000208312689000000000003550400000000007388815400000000000000009999123100000010000000000000BRKLBNCDAM18143
012024092302KLBN3       010KLABIN S/A  ON      N2   R$  000000000042400000000004240000000000416000000000041800000000004180000000000418000000000042000791000000000000230800000000000096645500000000000000009999123100000010000000000000BRKLBNACNOR2171
012024092302KLBN4       010KLABIN S/A  PN      N2   R$  000000000041800000000004190000000000414000000000041600000000004160000000000416000000000041702328000000000001046800000000000435547300000000000000009999123100000010000000000000BRKLBNACNPR9171
012024092302MRVE3       010MRV         ON      NM   R$  000000000073600000000007400000000000720000000000073000000000007300000000000730000000000073113599000000000008849200000000006461154700000000000000009999123100000010000000000000BRMRVEACNOR2127
012024092302MTRE3       010MITRE REALTYON      NM   R$  000000000036700000000003690000000000361000000000036400000000003670000000000364000000000036700852000000000000475200000000000173128000000000000000009999123100000010000000000000BRMTREACNOR6114
012024092302MTSA4       010METISA      PN  EJ       R$  000000000401400000000040140000000003905000000000395100000000039500000000003910000000000395000016000000000000002300000000000009088200000000000000009999123100000010000000000000BRMTSAACNPR9073
012024092302MULT3       010MULTIPLAN   ON      N2   R$  000000000260200000000026210000000002580000000000260500000000026120000000002609000000000261315869000000000004245500000000011061628900000000000000009999123100000010000000000000BRMULTACNOR5139
012024092302SEQL3       010SEQUOIA LOG ON      NM   R$  000000000047200000000004720000000000440000000000045300000000004400000000000440000000000044500928000000000000472100000000000214170200000000000000009999123100000010000000000000BRSEQLACNOR2103
012024092302CMIG3       010CEMIG       ON      N1   R$  000000000140600000000014410000000001406000000000142800000000014290000000001425000000000143201347000000000000296900000000000424164200000000000000009999123100000010000000000000BRCMIGACNOR6243
012024092302CMIG4       010CEMIG       PN      N1   R$  000000000115000000000011630000000001147000000000115500000000011530000000001153000000000115712712000000000007750700000000008956157600000000000000009999123100000010000000000000BRCMIGACNPR3244
012024092302MATD3       010MATER DEI   ON      NM   R$  000000000045100000000004560000000000448000000000045100000000004550000000000450000000000045501667000000000000495100000000000223666300000000000000009999123100000010000000000000BRMATDACNOR4104
012024092302MBLY3       010MOBLY       ON      NM   R$  000000000024500000000002470000000000240000000000024300000000002470000000000245000000000024700341000000000000181800000000000044266400000000000000009999123100000010000000000000BRMBLYACNOR5100
012024092302RCSL3       010RECRUSUL    ON           R$  000000000048500000000004850000000000440000000000045800000000004650000000000464000000000046502683000000000001567100000000000719046100000000000000009999123100000010000000000000BRRCSLACNOR4134
012024092302RCSL4       010RECRUSUL    PN           R$  000000000009700000000000990000000000095000000000009700000000000980000000000097000000000009800186000000000000197900000000000019350100000000000000009999123100000010000000000000BRRCSLACNPR1134
012024092302RDNI3       010RNI         ON      NM   R$  000000000031300000000003250000000000313000000000032000000000003210000000000321000000000032500011000000000000003500000000000001121600000000000000009999123100000010000000000000BRRDNIACNOR9116
012024092302RDOR3       010REDE D OR   ON      NM   R$  000000000322700000000032490000000003138000000000317000000000031790000000003174000000000317920950000000000004892200000000015512045800000000000000009999123100000010000000000000BRRDORACNOR8113
012024092302SYNE3       010SYN PROP TECON      NM   R$  000000000078600000000007860000000000771000000000077500000000007730000000000773000000000077501312000000000000416200000000000322714500000000000000009999123100000010000000000000BRSYNEACNOR2103
012024092302KRSA3       010KORA SAUDE  ON      NM   R$  000000000004700000000000470000000000045000000000004600000000000460000000000046000000000004700101000000000000260700000000000012064200000000000000009999123100000010000000000000BRKRSAACNOR0100
012024092302LAND3       010TERRASANTAPAON      NM   R$  000000000134900000000013490000000001310000000000132800000000013100000000001307000000000133200148000000000000024900000000000033067700000000000000009999123100000010000000000000BRLANDACNOR9103
012024092302LAVV3       010LAVVI       ON      NM   R$  000000000082800000000008280000000000811000000000081700000000008150000000000815000000000081802923000000000000500400000000000408883200000000000000009999123100000010000000000000BRLAVVACNOR4113
012024092302LEVE3       010METAL LEVE  ON      NM   R$  000000000311700000000031190000000003062000000000307700000000030780000000003077000000000308001824000000000000311800000000000959412800000000000000009999123100000010000000000000BRLEVEACNOR2197
012024092302LJQQ3       010QUERO-QUERO ON      NM   R$  000000000037100000000003710000000000352000000000035900000000003620000000000361000000000036205353000000000003329300000000001196780400000000000000009999123100000010000000000000BRLJQQACNOR5104
012024092302LOGG3       010LOG COM PROPON      NM   R$  000000000224300000000022600000000002205000000000223500000000022140000000002209000000000221802279000000000000397700000000000889177500000000000000009999123100000010000000000000BRLOGGACNOR7107
012024092302LOGN3       010LOG-IN      ON      NM   R$  000000000356600000000035980000000003511000000000354800000000035110000000003511000000000357700041000000000000004700000000000016677600000000000000009999123100000010000000000000BRLOGNACNOR3105
012024092302LPSB3       010LOPES BRASILON      NM   R$  000000000017200000000001760000000000168000000000017300000000001750000000000175000000000017600195000000000000123700000000000021411700000000000000009999123100000010000000000000BRLPSBACNOR0114
012024092302LREN3       010LOJAS RENNERON      NM   R$  000000000179800000000018040000000001758000000000177300000000017710000000001771000000000177323853000000000017229200000000030550461300000000000000009999123100000010000000000000BRLRENACNOR1221
012024092302ZAMP3       010ZAMP S.A.   ON           R$  000000000026400000000002640000000000243000000000024800000000002480000000000248000000000024904035000000000001609900000000000400247700000000000000009999123100000010000000000000BRZAMPACNOR5101
012024092302BSLI4       010BRB BANCO   PN           R$  000000000093100000000009340000000000924000000000093000000000009240000000000901000000000097200007000000000000002500000000000002325200000000000000009999123100000010000000000000BRBSLIACNPR2194
012024092302HYPE3       010HYPERA      ON      NM   R$  000000000273100000000027330000000002679000000000270300000000027100000000002706000000000271111604000000000002566900000000006940487000000000000000009999123100000010000000000000BRHYPEACNOR0143
012024092302EZTC3       010EZTEC       ON      NM   R$  000000000132500000000013320000000001301000000000131800000000013210000000001320000000000132206740000000000001594600000000002101812500000000000000009999123100000010000000000000BREZTCACNOR0126
012024092302NEOE3       010NEOENERGIA  ON      NM   R$  000000000197300000000019770000000001938000000000194900000000019500000000001950000000000195202944000000000000583900000000001138267400000000000000009999123100000010000000000000BRNEOEACNOR3123
012024092302NGRD3       010NEOGRID     ON      NM   R$  000000000010900000000001160000000000107000000000011200000000001140000000000112000000000011401100000000000000467100000000000052780100000000000000009999123100000010000000000000BRNGRDACNOR3104
012024092302NINJ3       010GETNINJAS   ON      NM   R$  000000000046700000000004700000000000461000000000046600000000004700000000000466000000000047900043000000000000025100000000000011719600000000000000009999123100000010000000000000BRNINJACNOR5101
012024092302NTCO3       010GRUPO NATURAON      NM   R$  000000000135100000000013880000000001339000000000136600000000013640000000001362000000000136714316000000000006052500000000008269020600000000000000009999123100000010000000000000BRNTCOACNOR5106
012024092302BEES3       010BANESTES    ON           R$  000000000089000000000008970000000000890000000000089300000000008920000000000891000000000089200067000000000000012700000000000011343300000000000000009999123100000010000000000000BRBEESACNOR9395
012024092302BEES4       010BANESTES    PN           R$  000000000094500000000009450000000000940000000000094200000000009400000000000935000000000094000019000000000000002800000000000002640000000000000000009999123100000010000000000000BRBEESACNPR6320
012024092302BGIP4       010BANESE      PN           R$  000000000245000000000024790000000002450000000000245200000000024790000000002430000000000248000005000000000000001200000000000002942900000000000000009999123100000010000000000000BRBGIPACNPR8210
012024092302BHIA3       010CASAS BAHIA ON      NM   R$  000000000054300000000005430000000000528000000000053300000000005280000000000528000000000052902596000000000002227900000000001189041400000000000000009999123100000010000000000000BRBHIAACNOR1102
012024092302CSUD3       010CSU DIGITAL ON      NM   R$  000000000180600000000018060000000001745000000000175900000000017450000000001745000000000177100166000000000000035600000000000062621000000000000000009999123100000010000000000000BRCSUDACNOR5110
012024092302CURY3       010CURY S/A    ON      NM   R$  000000000242700000000024550000000002280000000000235000000000023560000000002355000000000237016933000000000004522400000000010631410200000000000000009999123100000010000000000000BRCURYACNOR3109
012024092302CVCB3       010CVC BRASIL  ON      NM   R$  000000000018700000000001900000000000183000000000018600000000001870000000000186000000000018707607000000000011388400000000002125166500000000000000009999123100000010000000000000BRCVCBACNOR1116
012024092307TXRX4       010TEX RENAUX  PN           R$  000000000022600000000002360000000000226000000000022900000000002360000000000229000000000023400005000000000000000500000000000000114600000000000000009999123100000010000000000000BRTXRXACNPR0142
012024092307NUTR3       010NUTRIPLANT  ON      MA   R$  000000000046800000000004750000000000463000000000046900000000004650000000000464000000000047000016000000000000001600000000000000750900000000000000009999123100000010000000000000BRNUTRACNOR0104
012024092308OIBR3       010OI          ON      N1   R$  000000000052000000000005250000000000514000000000051900000000005170000000000517000000000052000446000000000000321300000000000166980000000000000000009999123100000010000000000000BROIBRACNOR1112
012024092308OIBR4       010OI          PN      N1   R$  000000000110500000000011490000000001105000000000112700000000011200000000001113000000000115000011000000000000001200000000000001353200000000000000009999123100000010000000000000BROIBRACNPR8111
012024092308RNEW11      010RENOVA      UNT     N2   R$  000000000029200000000002920000000000285000000000028500000000002850000000000283000000000028900009000000000000003700000000000001055300000000000000009999123100000010000000000000BRRNEWCDAM15110
012024092308RNEW3       010RENOVA      ON      N2   R$  000000000009500000000000970000000000092000000000009400000000000950000000000095000000000009600071000000000000049800000000000004717200000000000000009999123100000010000000000000BRRNEWACNOR8110
012024092308RNEW4       010RENOVA      PN      N2   R$  000000000009600000000000970000000000094000000000009400000000000950000000000095000000000009600197000000000000157100000000000014888500000000000000009999123100000010000000000000BRRNEWACNPR5110
012024092308RPMG3       010PET MANGUINHON           R$  000000000029300000000003250000000000293000000000030800000000003040000000000302000000000030500365000000000000111500000000000034351500000000000000009999123100000010000000000000BRRPMGACNOR9194
012024092308ATMP3       010ATMASA      ON           R$  000000000014200000000001430000000000139000000000014000000000001410000000000138000000000014100032000000000000067700000000000009526800000000000000009999123100000010000000000000BRATMPACNOR8100
012024092308OSXB3       010OSX BRASIL  ON      NM   R$  000000000039400000000003940000000000390000000000039100000000003900000000000392000000000041000004000000000000000900000000000000352000000000000000009999123100000010000000000000BROSXBACNOR8109
012024092308RSID3       010ROSSI RESID ON      NM   R$  000000000031100000000003190000000000310000000000031200000000003100000000000310000000000031600146000000000000023800000000000007444100000000000000009999123100000010000000000000BRRSIDACNOR8120
012024092308PMAM3       010PARANAPANEMAON      NM   R$  000000000018100000000001810000000000174000000000017900000000001800000000000180000000000018100067000000000000016500000000000002963800000000000000009999123100000010000000000000BRPMAMACNOR3039
012024092308JFEN3       010JOAO FORTES ON           R$  000000000003100000000000330000000000026000000000002800000000000270000000000027000000000002801150000000000005888300000000000170306100000000000000009999123100000010000000000000BRJFENACNOR0059
012024092308AMER3       010AMERICANAS  ON      NM   R$  000000000058000000000005880000000000542000000000055500000000005430000000000542000000000054302116000000000002491200000000001382685100000000000000009999123100000010000000000000BRAMERACNOR6103
012024092308AGXY3       010AGROGALAXY  ON      NM   R$  000000000005700000000000680000000000056000000000006200000000000640000000000063000000000006400853000000000001585000000000000099430300000000000000009999123100000010000000000000BRAGXYACNOR4103
012024092308HOOT4       010HOTEIS OTHONPN           R$  000000000022200000000002220000000000221000000000022100000000002210000000000221000000000022400009000000000000004300000000000000952100000000000000009999123100000010000000000000BRHOOTACNPR9015
012024092308LIGT3       010LIGHT S/A   ON      NM   R$  000000000076700000000007820000000000762000000000077000000000007650000000000765000000000076802694000000000000487400000000000375648500000000000000009999123100000010000000000000BRLIGTACNOR2124
012024092308NEXP3       010NEXPE       ON           R$  000000000041000000000004100000000000407000000000040900000000004070000000000401000000000041000004000000000000000400000000000000163700000000000000009999123100000010000000000000BRNEXPACNOR0101
012024092308CTSA3       010SANTANENSE  ON           R$  000000000026500000000002680000000000265000000000026700000000002660000000000265000000000026700003000000000000000600000000000000160300000000000000009999123100000010000000000000BRCTSAACNOR3062
012024092308CTSA4       010SANTANENSE  PN           R$  000000000011500000000001190000000000112000000000011400000000001120000000000112000000000011500090000000000000019500000000000002239600000000000000009999123100000010000000000000BRCTSAACNPR0062
012024092310OIBR1       010OI          DIR ORD N1   R$  000000000000400000000000050000000000003000000000000300000000000030000000000003000000000000400793000000000016498800000000000058285700000000000000009999123100000010000000000000BROIBRD05OR7111
012024092310EQTL9       010EQUATORIAL  ON  REC NM   R$  000000000324000000000032600000000003240000000000325000000000032500000000003150000000000365500003000000000000000500000000000001625000000000000000009999123100000010000000000000BREQTLR04OR9130
012024092310DASA1       010DASA        DIR ORD NM   R$  000000000000300000000000040000000000002000000000000300000000000040000000000003000000000000400313000000000001444200000000000004477900000000000000009999123100000010000000000000BRDASAD04OR0122
012024092310CBEE1       010AMPLA ENERG DIR ORD      R$  000000000025000000000003340000000000250000000000029000000000003340000000000334000000000033600019000000000000003200000000000000928600000000000000009999123100000010000000000000BRCBEED07OR5159
012024092310BGIP2       010BANESE      DIR PRE      R$  000000000027100000000002710000000000271000000000027100000000002710000000000246000000000027100002000000000000000200000000000000054200000000000000009999123100000010000000000000BRBGIPD08PR8209
012024092312MCHY11      010FII MAUA HY CI  ER       R$  000000000089800000000009150000000000894000000000090600000000009090000000000909000000000091320729000000000000727816000000000660068770000000000000009999123100000010000000000000BRMCHYCTF004141
012024092312MFAI11      010FII MERITOFACI           R$  000000000669700000000066980000000006604000000000667300000000066080000000006608000000000669800022000000000000000146000000000000974274000000000000009999123100000010000000000000BRMFAICTF005154
012024092312MFCR11      010FII MERITO RCI           R$  000000000275500000000027550000000002632000000000270700000000026320000000002650000000000284600007000000000000000039000000000000105601000000000000009999123100000010000000000000BRMFCRCTF002127
012024092312MFII11      010FII MERITO ICI           R$  000000001019500000000102150000000010130000000001016400000000101470000000010147000000001015100911000000000000016510000000000167823255000000000000009999123100000010000000000000BRMFIICTF008238
012024092312MGHT11      010FII MOGNO HTCI           R$  000000000203000000000020300000000001743000000000190600000000019350000000001935000000000199500745000000000000004003000000000007630954000000000000009999123100000010000000000000BRMGHTCTF005155
012024092312RENV11      010FII RENV    CI           R$  000000000103100000000010350000000001031000000000103400000000010350000000000991000000000103400165000000000000015491000000000016033103000000000000009999123100000010000000000000BRRENVCTF003100
012024092312RFOF11      010FII RB CFOF CI           R$  000000000699900000000069990000000006853000000000691000000000068560000000006856000000000691100085000000000000001390000000000009605610000000000000009999123100000010000000000000BRRFOFCTF001154
012024092312RINV11      010FII REAL INVCI  ERS      R$  000000001088400000000108860000000010787000000001084200000000108800000000010830000000001088000392000000000000002278000000000024699098000000000000009999123100000010000000000000BRRINVCTF004123
012024092312RMAI11      010FII REAGMULTCI           R$  000000000747400000000075250000000007098000000000710800000000075250000000007100000000000752500013000000000000003033000000000021559561000000000000009999123100000010000000000000BRRMAICTF000137
012024092312RECR11      010FII REC RECECI           R$  000000000833100000000083310000000008150000000000818500000000081750000000008173000000000817505362000000000000030932000000000253194862000000000000009999123100000010000000000000BRRECRCTF004154
012024092312RECT11      010FII REC RENDCI           R$  000000000330100000000033050000000003260000000000327200000000032680000000003268000000000329000600000000000000011568000000000037857489000000000000009999123100000010000000000000BRRECTCTF000170
012024092312RECX11      010FII REC FOF CI           R$  000000000630000000000064250000000006298000000000630100000000064250000000006298000000000642500005000000000000000094000000000000592339000000000000009999123100000010000000000000BRRECXCTF002140
012024092312REIT11      010FII REIT RIVCI           R$  000000001523100000000152310000000015231000000001523100000000152310000000012600000000001499900001000000000000000001000000000000015231000000000000009999123100000010000000000000BRREITCTF007143
012024092312RELG11      010FII REC LOG CI           R$  000000000612100000000061960000000006101000000000610200000000061010000000006101000000000611300121000000000000002029000000000012381914000000000000009999123100000010000000000000BRRELGCTF008138
012024092312BCFF11      010FII BC FFII CI           R$  000000000081100000000008110000000000793000000000080000000000007970000000000797000000000079910980000000000000467368000000000374147776000000000000009999123100000010000000000000BRBCFFCTF000281
012024092312BCIA11      010FII BCIA    CI           R$  000000000946800000000094810000000009410000000000944200000000094240000000009424000000000943002659000000000000013842000000000130696416000000000000009999123100000010000000000000BRBCIACTF005213
012024092312SEQR11      010FII SEQUOIA CI           R$  000000000510000000000051350000000005096000000000510000000000051000000000005100000000000513200079000000000000004610000000000023515395000000000000009999123100000010000000000000BRSEQRCTF002146
012024092312SHOP11      010FII MULTSHOPCI  ES       R$  000000000545000000000054500000000005450000000000545000000000054500000000000000000000000437000001000000000000000001000000000000005450000000000000009999123100000010000000000000BRSHOPCTF004103
012024092312SHPH11      010FII HIGIENOPCI           R$  000000008750300000000879990000000087500000000008761500000000875000000000087500000000008799200014000000000000000052000000000004555995000000000000009999123100000010000000000000BRSHPHCTF008353
012024092312RNDP11      010FII BB R PAPCI           R$  000000000585800000000058660000000005786000000000579000000000058660000000005781000000000619900011000000000000000387000000000002240925000000000000009999123100000010000000000000BRRNDPCTF007251
012024092312RNGO11      010FII RIONEGROCI           R$  000000000468500000000047010000000004685000000000469500000000046960000000004696000000000470100045000000000000004008000000000018818737000000000000009999123100000010000000000000BRRNGOCTF003246
012024092312BCRI11      010FII BEES CRICI           R$  000000000675200000000067520000000006633000000000671800000000066710000000006671000000000674000514000000000000007376000000000049552006000000000000009999123100000010000000000000BRBCRICTF009218
012024092312CNES11      010FII CENESP  CI  ER       R$  000000000014100000000001420000000000139000000000014000000000001400000000000140000000000014101662000000000000042691000000000005982915000000000000009999123100000010000000000000BRCNESCTF001263
012024092312ABCP11      010FII ABC IMOBCI           R$  000000000721000000000072490000000006936000000000708600000000069360000000006935000000000699900167000000000000002367000000000016774660000000000000009999123100000010000000000000BRABCPCTF000342
012024092312CXAG11      010FII CAIXA AGCI           R$  000000000758200000000075820000000007403000000000749900000000074950000000007495000000000749600218000000000000004475000000000033558168000000000000009999123100000010000000000000BRCXAGCTF003131
012024092312CXCE11      010FII CX CEDAECI           R$  000000000400400000000040330000000004001000000000400800000000040250000000004005000000000402300048000000000000000978000000000003919834000000000000009999123100000010000000000000BRCXCECTF004272
012024092312CXCI11      010FII CAIXA CICI           R$  000000000808900000000080890000000008001000000000803200000000080500000000008006000000000804800039000000000000000191000000000001534280000000000000009999123100000010000000000000BRCXCICTF005130
012024092312CXCO11      010FII CEF CORPCI           R$  000000000666200000000068690000000006662000000000672700000000067570000000006757000000000676800372000000000000005883000000000039578032000000000000009999123100000010000000000000BRCXCOCTF003141
012024092312CXRI11      010FII CX RBRAVCI           R$  000000000771600000000077890000000007618000000000771400000000076210000000007572000000000776000010000000000000000040000000000000308580000000000000009999123100000010000000000000BRCXRICTF003231
012024092312CXTL11      010FII CX TRX  CI           R$  000000002330000000000233000000000023200000000002329500000000232000000000022620000000002320000003000000000000000068000000000001584100000000000000009999123100000010000000000000BRCXTLCTF003240
012024092312CYCR11      010FII CYRELA  CI           R$  000000000099000000000009900000000000975000000000098100000000009790000000000979000000000098000396000000000000037421000000000036712492000000000000009999123100000010000000000000BRCYCRCTF004142
012024092312MXRF11      010FII MAXI RENCI           R$  000000000100500000000010070000000000999000000000100000000000010010000000001001000000000100297028000000000001712726000000001714035445000000000000009999123100000010000000000000BRMXRFCTF008256
012024092312ICRI11      010FII CI IPCA CI           R$  000000000963400000000096780000000009607000000000964500000000096560000000009656000000000967700553000000000000008132000000000078435288000000000000009999123100000010000000000000BRICRICTF004107
012024092312IDFI11      010FII UNIDADESCI           R$  000000000079600000000008350000000000796000000000083000000000008350000000000830000000000083500019000000000000000189000000000000156931000000000000009999123100000010000000000000BRIDFICTF007135
012024092312IDGR11      010FII UNID II CI           R$  000000000075000000000007500000000000748000000000074900000000007500000000000701000000000075000008000000000000000093000000000000069746000000000000009999123100000010000000000000BRIDGRCTF006130
012024092312CRFF11      010FII CX RBRA2CI           R$  000000000783500000000078350000000007725000000000773200000000077250000000007675000000000772900010000000000000000108000000000000835148000000000000009999123100000010000000000000BRCRFFCTF006164
012024092312LSPA11      010FII LESTE PACI           R$  000000000474400000000047440000000004500000000000472600000000046990000000004505000000000459900059000000000000000349000000000001649549000000000000009999123100000010000000000000BRLSPACTF005142
012024092312LUGG11      010FII LUGGO   CI           R$  000000000738900000000073890000000007253000000000734800000000073190000000007253000000000731900160000000000000000731000000000005371454000000000000009999123100000010000000000000BRLUGGCTF007158
012024092312RBDS11      010FII RBRESID2CI           R$  000000000028500000000002850000000000285000000000028500000000002850000000000285000000000031500001000000000000000005000000000000001425000000000000009999123100000010000000000000BRRBDSCTF006179
012024092312RBED11      010FII RIOB ED CI           R$  000000001330000000000133000000000012850000000001314100000000128500000000012918000000001302000197000000000000001144000000000015033616000000000000009999123100000010000000000000BRRBEDCTF006167
012024092312BBFI11      010FII BB PROGRCI           R$  000000004610000000000461310000000044726000000004556100000000454000000000045400000000004540100069000000000000000184000000000008383364000000000000009999123100000010000000000000BRBBFICTF006329
012024092312BBFO11      010FII BB FOF  CI           R$  000000000715200000000072360000000007100000000000715900000000071500000000007131000000000715001077000000000000003610000000000025844084000000000000009999123100000010000000000000BRBBFOCTF004144
012024092312RBFF11      010FII RIOB FF CI           R$  000000000591500000000060520000000005908000000000595400000000059640000000005964000000000596501721000000000000006937000000000041307809000000000000009999123100000010000000000000BRRBFFCTF008163
012024092312RBHG11      010FII RBCRI IVCI           R$  000000000833900000000083900000000008211000000000824400000000082720000000008265000000000827200233000000000000005074000000000041833646000000000000009999123100000010000000000000BRRBHGCTF002137
