00COTAHIST.2024BOVESPA 20240920                                                                                                                                                                                                                      
012024092002PCAR3       010P.ACUCAR-CBDON      NM   R$  000000000029100000000002940000000000281000000000028700000000002880000000000288000000000028914002000000000014573300000000004189357100000000000000009999123100000010000000000000BRPCARACNOR3167
012024092002TASA3       010TAURUS ARMASON      N2   R$  000000000110500000000011120000000001101000000000110700000000011080000000001104000000000110800064000000000000008900000000000009853600000000000000009999123100000010000000000000BRTASAACNOR7104
012024092002TASA4       010TAURUS ARMASPN      N2   R$  000000000110600000000011080000000001093000000000109800000000011020000000001101000000000110201618000000000000396200000000000435384200000000000000009999123100000010000000000000BRTASAACNPR4104
012024092002TCSA3       010TECNISA     ON      NM   R$  000000000019000000000001910000000000181000000000018600000000001840000000000184000000000018600162000000000000219300000000000040900300000000000000009999123100000010000000000000BRTCSAACNOR3112
012024092002TECN3       010TECHNOS     ON      NM   R$  000000000050200000000005030000000000484000000000049100000000004920000000000490000000000049200291000000000000116500000000000057317100000000000000009999123100000010000000000000BRTECNACNOR6109
012024092002TELB3       010TELEBRAS    ON           R$  000000000134500000000013850000000001300000000000134300000000013850000000001345000000000138000009000000000000001200000000000001612200000000000000009999123100000010000000000000BRTELBACNOR2140
012024092002TELB4       010TELEBRAS    PN           R$  000000000088000000000008850000000000880000000000088200000000008850000000000885000000000088800007000000000000002200000000000001941000000000000000009999123100000010000000000000BRTELBACNPR9140
012024092002TEND3       010TENDA       ON      NM   R$  000000000141400000000014180000000001315000000000134300000000013300000000001328000000000133011677000000000003779900000000005079586200000000000000009999123100000010000000000000BRTENDACNOR4111
012024092002TFCO4       010TRACK FIELD PN      N2   R$  000000000112700000000011400000000001090000000000111400000000011400000000001103000000000114101086000000000000204500000000000227981800000000000000009999123100000010000000000000BRTFCOACNPR8114
012024092002TGMA3       010TEGMA       ON      NM   R$  000000000271000000000027240000000002666000000000268000000000026750000000002672000000000267501346000000000000222400000000000596200000000000000000009999123100000010000000000000BRTGMAACNOR7145
012024092002TIMS3       010TIM         ON      NM   R$  000000000185200000000018960000000001850000000000187800000000018730000000001872000000000187920808000000000011349000000000021319650600000000000000009999123100000010000000000000BRTIMSACNOR5117
012024092002VTRU3       010VITRUEDUCA  ON      NM   R$  000000000093900000000009550000000000928000000000093900000000009450000000000936000000000094500744000000000000256700000000000241143300000000000000009999123100000010000000000000BRVTRUACNOR3100
012024092002VULC3       010VULCABRAS   ON  ED  NM   R$  000000000176000000000017600000000001662000000000169500000000016800000000001679000000000169005737000000000001520900000000002578726300000000000000009999123100000010000000000000BRVULCACNOR2162
012024092002VVEO3       010VIVEO       ON      NM   R$  000000000022000000000002200000000000192000000000019600000000001930000000000193000000000019405956000000000010189000000000001998247000000000000000009999123100000010000000000000BRVVEOACNOR0104
012024092002WEGE3       010WEG         ON      NM   R$  000000000530100000000053570000000005252000000000527800000000052520000000005251000000000526419683000000000011817800000000062385145500000000000000009999123100000010000000000000BRWEGEACNOR0224
012024092002RECV3       010PETRORECSA  ON      NM   R$  000000000185100000000018570000000001825000000000183400000000018340000000001834000000000183510349000000000002819300000000005172688000000000000000009999123100000010000000000000BRRECVACNOR3107
012024092002REDE3       010REDE ENERGIAON           R$  000000000069100000000006970000000000690000000000069500000000006970000000000697000000000069800010000000000000002000000000000001391400000000000000009999123100000010000000000000BRREDEACNOR7128
012024092002RENT3       010LOCALIZA    ON      NM   R$  000000000442600000000044450000000004286000000000432200000000043000000000004296000000000430027012000000000016790800000000072571521200000000000000009999123100000010000000000000BRRENTACNOR4196
012024092002SAPR11      010SANEPAR     UNT     N2   R$  000000000317000000000031880000000003132000000000315800000000031810000000003160000000000318108161000000000001820800000000005751197500000000000000009999123100000010000000000000BRSAPRCDAM13118
012024092002SAPR3       010SANEPAR     ON      N2   R$  000000000060200000000006020000000000595000000000059700000000005980000000000597000000000059800385000000000000099200000000000059320900000000000000009999123100000010000000000000BRSAPRACNOR9159
012024092002SAPR4       010SANEPAR     PN      N2   R$  000000000064100000000006410000000000631000000000063600000000006400000000000639000000000064001994000000000001022300000000000651041700000000000000009999123100000010000000000000BRSAPRACNPR6159
012024092002SBFG3       010GRUPO SBF   ON      NM   R$  000000000176600000000017660000000001676000000000170000000000016820000000001682000000000169007847000000000002389500000000004064484600000000000000009999123100000010000000000000BRSBFGACNOR1103
012024092002SBSP3       010SABESP      ON      NM   R$  000000000945700000000095230000000009378000000000944900000000094660000000009454000000000946617878000000000005563100000000052567735900000000000000009999123100000010000000000000BRSBSPACNOR5161
012024092002SYNE3       010SYN PROP TECON      NM   R$  000000000078400000000007880000000000777000000000078200000000007840000000000782000000000078402550000000000000825000000000000645608300000000000000009999123100000010000000000000BRSYNEACNOR2103
012024092002TAEE11      010TAESA       UNT     N2   R$  000000000344400000000034590000000003408000000000343000000000034290000000003423000000000343011064000000000002713900000000009308846000000000000000009999123100000010000000000000BRTAEECDAM10148
012024092002TAEE3       010TAESA       ON      N2   R$  000000000114500000000011480000000001133000000000113900000000011470000000001135000000000114500702000000000000126000000000000143591700000000000000009999123100000010000000000000BRTAEEACNOR9148
012024092002TAEE4       010TAESA       PN      N2   R$  000000000114900000000011550000000001140000000000114500000000011510000000001148000000000115201172000000000000248200000000000284370200000000000000009999123100000010000000000000BRTAEEACNPR6148
012024092002VIVR3       010VIVER       ON      NM   R$  000000000020000000000002030000000000195000000000019800000000002010000000000198000000000020100135000000000000041600000000000008270000000000000000009999123100000010000000000000BRVIVRACNOR4123
012024092002VIVT3       010TELEF BRASILON           R$  000000000548900000000055750000000005464000000000552100000000055280000000005527000000000552821132000000000004388000000000024226159900000000000000009999123100000010000000000000BRVIVTACNOR0184
012024092002VLID3       010VALID       ON      NM   R$  000000000228100000000023500000000002268000000000231800000000023500000000002332000000000235203642000000000000666500000000001545524400000000000000009999123100000010000000000000BRVLIDACNOR5144
012024092002VSTE3       010VESTE       ON      NM   R$  000000000134800000000013480000000001338000000000134300000000013380000000001310000000000133500002000000000000000200000000000000268600000000000000009999123100000010000000000000BRVSTEACNOR5103
012024092002RCSL3       010RECRUSUL    ON           R$  000000000059200000000006170000000000480000000000054500000000004890000000000486000000000048903191000000000001209200000000000660013400000000000000009999123100000010000000000000BRRCSLACNOR4134
012024092002RCSL4       010RECRUSUL    PN           R$  000000000010100000000001020000000000095000000000009700000000000970000000000096000000000009700286000000000000140400000000000013674700000000000000009999123100000010000000000000BRRCSLACNPR1134
012024092002RDNI3       010RNI         ON      NM   R$  000000000032500000000003250000000000318000000000032000000000003180000000000314000000000032300007000000000000000800000000000000256400000000000000009999123100000010000000000000BRRDNIACNOR9116
012024092002RDOR3       010REDE D OR   ON      NM   R$  000000000330700000000033630000000003225000000000326300000000032580000000003254000000000325922209000000000007040700000000022974416600000000000000009999123100000010000000000000BRRDORACNOR8113
012024092002RPAD5       010ALFA HOLDINGPNA          R$  000000000085300000000008700000000000853000000000086400000000008700000000000855000000000089600002000000000000000300000000000000259300000000000000009999123100000010000000000000BRRPADACNPA4219
012024092002RSUL4       010RIOSULENSE  PN           R$  000000000630000000000063000000000006120000000000621100000000061200000000006113000000000655000016000000000000001700000000000010560300000000000000009999123100000010000000000000BRRSULACNPR3114
012024092002UNIP5       010UNIPAR      PNA          R$  000000000478000000000048550000000004760000000000477000000000048550000000004760000000000486900017000000000000003000000000000014312500000000000000009999123100000010000000000000BRUNIPACNPA0208
012024092002UNIP6       010UNIPAR      PNB          R$  000000000486800000000048770000000004740000000000478000000000047860000000004785000000000479001765000000000000260700000000001246271200000000000000009999123100000010000000000000BRUNIPACNPB8206
012024092002WLMM4       010WLM IND COM PN           R$  000000000304100000000031420000000003041000000000309100000000031420000000003004000000000314300002000000000000000200000000000000618300000000000000009999123100000010000000000000BRWLMMACNPR3119
012024092002YDUQ3       010YDUQS PART  ON      NM   R$  000000000105000000000010560000000000989000000000101300000000009930000000000993000000000099917063000000000009210600000000009338660000000000000000009999123100000010000000000000BRYDUQACNOR3105
012024092002SLCE3       010SLC AGRICOLAON      NM   R$  000000000170900000000017140000000001687000000000169700000000017000000000001700000000000170108705000000000003539400000000006007453300000000000000009999123100000010000000000000BRSLCEACNOR2125
012024092002TRPL4       010TRAN PAULISTPN      N1   R$  000000000246000000000024640000000002438000000000244600000000024440000000002443000000000244611591000000000003761900000000009201874100000000000000009999123100000010000000000000BRTRPLACNPR1185
012024092002TTEN3       0103TENTOS     ON      NM   R$  000000000119500000000012000000000001161000000000117500000000011800000000001178000000000118004709000000000001257500000000001478718900000000000000009999123100000010000000000000BRTTENACNOR0103
012024092002TUPY3       010TUPY        ON      NM   R$  000000000268400000000026840000000002616000000000264300000000026340000000002633000000000263403629000000000000520700000000001376218100000000000000009999123100000010000000000000BRTUPYACNOR1184
012024092002UCAS3       010UNICASA     ON      NM   R$  000000000022100000000002230000000000219000000000022000000000002190000000000219000000000022000077000000000000027700000000000006100900000000000000009999123100000010000000000000BRUCASACNOR1113
012024092002UGPA3       010ULTRAPAR    ON      NM   R$  000000000220300000000022030000000002135000000000215100000000021350000000002134000000000213525913000000000009570800000000020588819000000000000000009999123100000010000000000000BRUGPAACNOR8156
012024092002WEST3       010WESTWING    ON      NM   R$  000000000008400000000000870000000000084000000000008400000000000840000000000083000000000008400033000000000000044900000000000003786000000000000000009999123100000010000000000000BRWESTACNOR3100
012024092002WHRL3       010WHIRLPOOL   ON  ED       R$  000000000044300000000004430000000000434000000000043700000000004410000000000436000000000044200010000000000000001300000000000000569000000000000000009999123100000010000000000000BRWHRLACNOR5129
012024092002WHRL4       010WHIRLPOOL   PN  ED       R$  000000000046600000000004670000000000461000000000046400000000004640000000000465000000000046800008000000000000001300000000000000603500000000000000009999123100000010000000000000BRWHRLACNPR2129
012024092002WIZC3       010WIZ CO      ON      NM   R$  000000000058700000000005870000000000570000000000057400000000005700000000000570000000000057201995000000000000850100000000000488466100000000000000009999123100000010000000000000BRWIZCACNOR5102
012024092002PRNR3       010PRINER      ON      NM   R$  000000000130100000000013040000000001276000000000128200000000012810000000001280000000000128400544000000000000098000000000000125706700000000000000009999123100000010000000000000BRPRNRACNOR4109
012024092002BALM3       010BAUMER      ON           R$  000000000124000000000012400000000001240000000000124000000000012400000000001142000000000150000003000000000000000400000000000000496000000000000000009999123100000010000000000000BRBALMACNOR5055
012024092002BAZA3       010AMAZONIA    ON           R$  000000000932300000000093500000000009160000000000925900000000091600000000009160000000000934300031000000000000005600000000000051853600000000000000009999123100000010000000000000BRBAZAACNOR0179
012024092002BBAS3       010BRASIL      ON  EJ  NM   R$  000000000279000000000027950000000002746000000000275700000000027500000000002750000000000275142631000000000024473100000000067487046700000000000000009999123100000010000000000000BRBBASACNOR3326
012024092002BBSE3       010BBSEGURIDADEON      NM   R$  000000000353400000000035470000000003501000000000351200000000035010000000003500000000000350317807000000000004318500000000015167400300000000000000009999123100000010000000000000BRBBSEACNOR5125
012024092002BPAN4       010BANCO PAN   PN      N1   R$  000000000103600000000010380000000001011000000000101700000000010190000000001019000000000102108229000000000004084700000000004155046400000000000000009999123100000010000000000000BRBPANACNPR1115
012024092002PSSA3       010PORTO SEGUROON      NM   R$  000000000364400000000036740000000003549000000000358500000000035570000000003557000000000356315743000000000003639300000000013050141000000000000000009999123100000010000000000000BRPSSAACNOR7155
012024092002PTBL3       010PORTOBELLO  ON      NM   R$  000000000048700000000004880000000000475000000000048100000000004750000000000475000000000047802751000000000000844600000000000406408900000000000000009999123100000010000000000000BRPTBLACNOR8132
012024092002PTNT3       010PETTENATI   ON           R$  000000000100900000000011240000000001009000000000106100000000011230000000001116000000000112400035000000000000006400000000000006793600000000000000009999123100000010000000000000BRPTNTACNOR6042
012024092002PTNT4       010PETTENATI   PN           R$  000000000070900000000007100000000000700000000000070600000000007080000000000694000000000070800026000000000000008400000000000005935100000000000000009999123100000010000000000000BRPTNTACNPR3047
012024092002QUAL3       010QUALICORP   ON      NM   R$  000000000020200000000002040000000000187000000000019100000000001870000000000186000000000018706524000000000005479200000000001051500800000000000000009999123100000010000000000000BRQUALACNOR6120
012024092002SCAR3       010SAO CARLOS  ON      NM   R$  000000000227000000000022970000000002250000000000226500000000022500000000002250000000000228000020000000000000005600000000000012685500000000000000009999123100000010000000000000BRSCARACNOR7131
012024092002SEER3       010SER EDUCA   ON      NM   R$  000000000067400000000006740000000000624000000000063800000000006260000000000626000000000063502862000000000000575200000000000367551200000000000000009999123100000010000000000000BRSEERACNOR5119
012024092002SEQL3       010SEQUOIA LOG ON      NM   R$  000000000047700000000004890000000000465000000000047500000000004650000000000465000000000046600783000000000000420800000000000200087600000000000000009999123100000010000000000000BRSEQLACNOR2103
012024092002SHOW3       010TIME FOR FUNON      NM   R$  000000000010400000000001060000000000100000000000010100000000001010000000000101000000000010300261000000000000148400000000000015098600000000000000009999123100000010000000000000BRSHOWACNOR7105
012024092002SHUL4       010SCHULZ      PN           R$  000000000063700000000006430000000000628000000000063500000000006330000000000632000000000063701183000000000000337000000000000214026400000000000000009999123100000010000000000000BRSHULACNPR4156
012024092002SIMH3       010SIMPAR      ON      NM   R$  000000000056700000000005670000000000531000000000054200000000005310000000000531000000000053313014000000000006573900000000003564751100000000000000009999123100000010000000000000BRSIMHACNOR0107
012024092002TOTS3       010TOTVS       ON      NM   R$  000000000297900000000030040000000002895000000000291700000000028950000000002892000000000290512683000000000004336300000000012649440900000000000000009999123100000010000000000000BRTOTSACNOR8145
012024092002TPIS3       010TRIUNFO PARTON      NM   R$  000000000050900000000005090000000000462000000000048000000000005000000000000497000000000050000151000000000000039300000000000018866000000000000000009999123100000010000000000000BRTPISACNOR8118
012024092002TRAD3       010TC          ON      NM   R$  000000000046200000000004710000000000409000000000042900000000004300000000000430000000000043400623000000000000304700000000000131012600000000000000009999123100000010000000000000BRTRADACNOR3102
012024092002TRIS3       010TRISUL      ON      NM   R$  000000000050900000000005120000000000488000000000049300000000004900000000000490000000000049401742000000000001818800000000000898309200000000000000009999123100000010000000000000BRTRISACNOR4118
012024092002TRPL3       010TRAN PAULISTON      N1   R$  000000000317500000000031850000000003150000000000316500000000031500000000003150000000000317000019000000000000002900000000000009179800000000000000009999123100000010000000000000BRTRPLACNOR4185
012024092002HAGA3       010HAGA S/A    ON           R$  000000000024500000000002540000000000245000000000024800000000002500000000000248000000000025000032000000000000011200000000000002786700000000000000009999123100000010000000000000BRHAGAACNOR7103
012024092002HAGA4       010HAGA S/A    PN           R$  000000000011600000000001180000000000115000000000011500000000001160000000000116000000000011700016000000000000025000000000000002899800000000000000009999123100000010000000000000BRHAGAACNPR4103
012024092002HAPV3       010HAPVIDA     ON      NM   R$  000000000044300000000004540000000000428000000000043600000000004330000000000432000000000043454205000000000079158100000000034583122500000000000000009999123100000010000000000000BRHAPVACNOR4114
012024092002NGRD3       010NEOGRID     ON      NM   R$  000000000011400000000001150000000000109000000000011200000000001090000000000109000000000011002992000000000000675700000000000075757500000000000000009999123100000010000000000000BRNGRDACNOR3104
012024092002PRIO3       010PETRORIO    ON      NM   R$  000000000437000000000044300000000004321000000000438200000000044200000000004420000000000442225001000000000009650200000000042290927000000000000000009999123100000010000000000000BRPRIOACNOR1107
012024092002GGBR3       010GERDAU      ON      N1   R$  000000000164700000000016470000000001609000000000162600000000016250000000001618000000000162500270000000000000041900000000000068153300000000000000009999123100000010000000000000BRGGBRACNOR1193
012024092002GGBR4       010GERDAU      PN      N1   R$  000000000183400000000018400000000001799000000000181100000000018050000000001805000000000180627245000000000018702500000000033873986700000000000000009999123100000010000000000000BRGGBRACNPR8193
012024092002LAND3       010TERRASANTAPAON      NM   R$  000000000136500000000013860000000001342000000000135000000000013420000000001342000000000138200295000000000000139600000000000188516300000000000000009999123100000010000000000000BRLANDACNOR9103
012024092002MILS3       010MILLS       ON      NM   R$  000000000111400000000011150000000001087000000000110300000000011140000000001107000000000111405767000000000003679700000000004061232900000000000000009999123100000010000000000000BRMILSACNOR2128
012024092002MLAS3       010MULTILASER  ON      NM   R$  000000000016800000000001680000000000157000000000016000000000001590000000000158000000000015904636000000000006369800000000001019523300000000000000009999123100000010000000000000BRMLASACNOR9101
012024092002PDGR3       010PDG REALT   ON      NM   R$  000000000001500000000000160000000000015000000000001500000000000150000000000015000000000001600212000000000001188900000000000018226900000000000000009999123100000010000000000000BRPDGRACNOR8119
012024092002PDTC3       010PADTEC      ON      NM   R$  000000000019100000000001920000000000186000000000018800000000001860000000000186000000000018800033000000000000036600000000000006882100000000000000009999123100000010000000000000BRPDTCACNOR3101
012024092002PEAB3       010PAR AL BAHIAON           R$  000000000430000000000043000000000004300000000000430000000000043000000000003800000000000445000001000000000000000200000000000000860000000000000000009999123100000010000000000000BRPEABACNOR3133
012024092002PETR3       010PETROBRAS   ON      N2   R$  000000000396500000000039960000000003951000000000397200000000039700000000003969000000000397817643000000000016397800000000065132900000000000000000009999123100000010000000000000BRPETRACNOR9206
012024092002PETR4       010PETROBRAS   PN      N2   R$  000000000362700000000036400000000003607000000000362500000000036260000000003625000000000362651917000000000048324300000000175203135800000000000000009999123100000010000000000000BRPETRACNPR6214
012024092002PETZ3       010PETZ        ON      NM   R$  000000000046500000000004780000000000456000000000046500000000004600000000000460000000000046215606000000000009776300000000004550607100000000000000009999123100000010000000000000BRPETZACNOR2110
012024092002RADL3       010RAIADROGASILON      NM   R$  000000000273300000000027650000000002693000000000272300000000026970000000002696000000000271121290000000000014116900000000038449451400000000000000009999123100000010000000000000BRRADLACNOR0157
012024092002ENJU3       010ENJOEI      ON      NM   R$  000000000015000000000001510000000000129000000000013600000000001360000000000136000000000013703584000000000002255900000000000307543300000000000000009999123100000010000000000000BRENJUACNOR9100
012024092002EPAR3       010EMBPAR S/A  ON           R$  000000000057900000000005790000000000574000000000057600000000005780000000000574000000000057800023000000000000003700000000000002131600000000000000009999123100000010000000000000BREPARACNOR9105
012024092002EQMA3B      010EQTLMARANHAOON      MB   R$  000000000238000000000025500000000002380000000000241500000000024200000000002401000000000242000005000000000000003000000000000007247800000000000000009999123100000010000000000000BREQMAACNOR8108
012024092002EQPA3       010EQTL PARA   ON           R$  000000000061400000000006150000000000593000000000059900000000006100000000000601000000000061000025000000000000011000000000000006593200000000000000009999123100000010000000000000BREQPAACNOR1111
012024092002EQTL3       010EQUATORIAL  ON      NM   R$  000000000333900000000033440000000003260000000000327600000000032650000000003265000000000326622902000000000009149900000000029982366500000000000000009999123100000010000000000000BREQTLACNOR0131
012024092002HBOR3       010HELBOR      ON      NM   R$  000000000019700000000001970000000000186000000000019000000000001890000000000188000000000018901336000000000001396500000000000265803100000000000000009999123100000010000000000000BRHBORACNOR3118
012024092002HBRE3       010HBR REALTY  ON      NM   R$  000000000049400000000004940000000000452000000000046800000000004650000000000465000000000046601720000000000000972600000000000455673900000000000000009999123100000010000000000000BRHBREACNOR4100
012024092002HBSA3       010HIDROVIAS   ON      NM   R$  000000000034600000000003460000000000337000000000034000000000003420000000000342000000000034306477000000000002859700000000000973434700000000000000009999123100000010000000000000BRHBSAACNOR0100
012024092002HYPE3       010HYPERA      ON      NM   R$  000000000279500000000028510000000002722000000000276400000000027310000000002730000000000273617709000000000008555400000000023653709000000000000000009999123100000010000000000000BRHYPEACNOR0143
012024092002ITSA3       010ITAUSA      ON  EJ  N1   R$  000000000110600000000011100000000001091000000000109900000000010910000000001090000000000110200849000000000000222300000000000244336300000000000000009999123100000010000000000000BRITSAACNOR0443
012024092002ITSA4       010ITAUSA      PN  EJ  N1   R$  000000000111000000000011140000000001097000000000110000000000010970000000001097000000000109829296000000000039617300000000043600154700000000000000009999123100000010000000000000BRITSAACNPR7443
012024092002JSLG3       010JSL         ON      NM   R$  000000000093400000000009370000000000904000000000091700000000009270000000000910000000000092701887000000000000412900000000000378875900000000000000009999123100000010000000000000BRJSLGACNOR2121
012024092002KEPL3       010KEPLER WEBERON      NM   R$  000000000106700000000010670000000001005000000000101900000000010050000000001004000000000100504863000000000001668200000000001701543500000000000000009999123100000010000000000000BRKEPLACNOR1064
012024092002KLBN11      010KLABIN S/A  UNT     N2   R$  000000000212500000000021250000000002086000000000210000000000021020000000002101000000000210219080000000000010290500000000021616831000000000000000009999123100000010000000000000BRKLBNCDAM18143
012024092002KLBN3       010KLABIN S/A  ON      N2   R$  000000000043300000000004330000000000420000000000042200000000004250000000000423000000000042500690000000000000276100000000000116685600000000000000009999123100000010000000000000BRKLBNACNOR2171
012024092002KLBN4       010KLABIN S/A  PN      N2   R$  000000000042400000000004250000000000417000000000041900000000004170000000000417000000000041902115000000000001654000000000000693724800000000000000009999123100000010000000000000BRKLBNACNPR9171
012024092002FLRY3       010FLEURY      ON      NM   R$  000000000165200000000016530000000001619000000000163400000000016450000000001630000000000164511989000000000003626100000000005925288300000000000000009999123100000010000000000000BRFLRYACNOR5139
012024092002FRAS3       010FRAS-LE     ON      N1   R$  000000000209800000000020980000000002024000000000203800000000020350000000002035000000000205001931000000000000446100000000000909380200000000000000009999123100000010000000000000BRFRASACNOR0160
012024092002FRIO3       010METALFRIO   ON      NM   R$  000000001150100000000115010000000011501000000001150100000000115010000000011500000000001190000002000000000000000200000000000002300200000000000000009999123100000010000000000000BRFRIOACNOR2111
012024092002SANB11      010SANTANDER BRUNT          R$  000000000301300000000030340000000002953000000000297000000000029530000000002953000000000296408037000000000001909000000000005670944000000000000000009999123100000010000000000000BRSANBCDAM13165
012024092002SANB3       010SANTANDER BRON           R$  000000000144900000000014490000000001411000000000141900000000014120000000001410000000000141200308000000000000047100000000000066880100000000000000009999123100000010000000000000BRSANBACNOR8172
012024092002SANB4       010SANTANDER BRPN           R$  000000000157100000000015840000000001537000000000155600000000015370000000001536000000000153700252000000000000033700000000000052467700000000000000009999123100000010000000000000BRSANBACNPR5172
012024092002AZUL4       010AZUL        PN      N2   R$  000000000056200000000005700000000000521000000000054500000000005260000000000526000000000052719486000000000029300400000000015983169400000000000000009999123100000010000000000000BRAZULACNPR4103
012024092002BRAP3       010BRADESPAR   ON      N1   R$  000000000175700000000017750000000001698000000000175500000000017750000000001771000000000177502776000000000001406600000000002468791300000000000000009999123100000010000000000000BRBRAPACNOR5148
012024092002BRAP4       010BRADESPAR   PN      N1   R$  000000000186000000000018740000000001802000000000182500000000018260000000001826000000000182717237000000000007192100000000013127293500000000000000009999123100000010000000000000BRBRAPACNPR2148
012024092002VALE3       010VALE        ON      NM   R$  000000000577100000000058160000000005695000000000574400000000057350000000005734000000000573536588000000000030808000000000176967332200000000000000009999123100000010000000000000BRVALEACNOR0211
012024092002CAMB3       010CAMBUCI     ON           R$  000000000117700000000011900000000001164000000000117700000000011850000000001175000000000118500228000000000000064500000000000075924500000000000000009999123100000010000000000000BRCAMBACNOR4131
012024092002CAML3       010CAMIL       ON      NM   R$  000000000090200000000009080000000000861000000000087400000000008800000000000871000000000088004060000000000000720800000000000630635100000000000000009999123100000010000000000000BRCAMLACNOR3129
012024092002CASH3       010MELIUZ      ON      NM   R$  000000000041100000000004180000000000407000000000041300000000004170000000000416000000000041702401000000000001508500000000000623033200000000000000009999123100000010000000000000BRCASHACNOR8107
012024092002CBAV3       010CBA         ON      NM   R$  000000000048300000000004880000000000463000000000047200000000004700000000000469000000000047109059000000000003134600000000001479605600000000000000009999123100000010000000000000BRCBAVACNOR5104
012024092002CBEE3       010AMPLA ENERG ON  ES       R$  000000000199900000000019990000000001999000000000199900000000019990000000001999000000000220000003000000000000000300000000000000599700000000000000009999123100000010000000000000BRCBEEACNOR3160
012024092002CCRO3       010CCR SA      ON      NM   R$  000000000128600000000012890000000001248000000000125700000000012480000000001248000000000125812490000000000010042800000000012630169900000000000000009999123100000010000000000000BRCCROACNOR2145
012024092002CSAN3       010COSAN       ON      NM   R$  000000000129700000000012990000000001246000000000125800000000012560000000001255000000000125627878000000000014765300000000018578234800000000000000009999123100000010000000000000BRCSANACNOR6126
012024092002DMVF3       010D1000VFARMA ON      NM   R$  000000000067500000000006840000000000662000000000066900000000006700000000000666000000000067300308000000000000039700000000000026597600000000000000009999123100000010000000000000BRDMVFACNOR9100
012024092002VITT3       010VITTIA      ON      NM   R$  000000000058000000000005880000000000556000000000057100000000005610000000000561000000000056402779000000000001639200000000000937087500000000000000009999123100000010000000000000BRVITTACNOR4107
012024092002VIVA3       010VIVARA S.A. ON      NM   R$  000000000286400000000028850000000002761000000000279500000000028000000000002800000000000280413923000000000003069900000000008581987100000000000000009999123100000010000000000000BRVIVAACNOR0107
012024092002RAPT3       010RANDON PART ON      N1   R$  000000000088500000000008890000000000864000000000087100000000008640000000000863000000000087700092000000000000037900000000000033021200000000000000009999123100000010000000000000BRRAPTACNOR7163
012024092002RAPT4       010RANDON PART PN      N1   R$  000000000114400000000011440000000001097000000000110500000000011100000000001109000000000111107742000000000005491100000000006068983700000000000000009999123100000010000000000000BRRAPTACNPR4163
012024092002DOHL4       010DOHLER      PN           R$  000000000042100000000004210000000000401000000000041400000000004210000000000401000000000042000003000000000000000300000000000000124300000000000000009999123100000010000000000000BRDOHLACNPR9066
012024092002DOTZ3       010DOTZ SA     ON      NM   R$  000000000055600000000005750000000000540000000000056200000000005400000000000540000000000055400156000000000000030300000000000017051100000000000000009999123100000010000000000000BRDOTZACNOR7101
012024092002DTCY3       010DTCOM-DIRECTON           R$  000000000043000000000005300000000000430000000000050300000000005090000000000485000000000051000047000000000000007000000000000003522400000000000000009999123100000010000000000000BRDTCYACNOR5109
012024092002DXCO3       010DEXCO       ON      NM   R$  000000000080500000000008080000000000789000000000079100000000007890000000000789000000000079007671000000000007771300000000006147815000000000000000009999123100000010000000000000BRDXCOACNOR8105
012024092002ROMI3       010ROMI        ON      NM   R$  000000000115200000000011520000000001113000000000112300000000011200000000001120000000000112201401000000000000519300000000000583429400000000000000009999123100000010000000000000BRROMIACNOR8195
012024092002EALT3       010ACO ALTONA  ON           R$  000000000149400000000015280000000001490000000000149300000000015280000000001490000000000153600005000000000000001200000000000001792300000000000000009999123100000010000000000000BREALTACNOR4138
012024092002EALT4       010ACO ALTONA  PN           R$  000000000144600000000014460000000001340000000000140100000000014070000000001406000000000142100087000000000000021100000000000029574400000000000000009999123100000010000000000000BREALTACNPR1138
012024092002ECOR3       010ECORODOVIAS ON      NM   R$  000000000075200000000007520000000000727000000000073600000000007350000000000734000000000073614654000000000003971400000000002924540900000000000000009999123100000010000000000000BRECORACNOR8120
012024092002ATOM3       010ATOMPAR     ON           R$  000000000022300000000002320000000000218000000000022700000000002320000000000219000000000023200066000000000000079500000000000018066500000000000000009999123100000010000000000000BRATOMACNOR1106
012024092002SNSY3       010SANSUY      ON           R$  000000000122500000000012250000000001175000000000120600000000012090000000001135000000000120000009000000000000002000000000000002412100000000000000009999123100000010000000000000BRSNSYACNOR2113
012024092002SNSY5       010SANSUY      PNA          R$  000000000056200000000005640000000000544000000000054800000000005440000000000540000000000056000015000000000000007100000000000003896100000000000000009999123100000010000000000000BRSNSYACNPA5111
012024092002SOJA3       010BOA SAFRA   ON      NM   R$  000000000123500000000012400000000001201000000000121100000000012020000000001202000000000120602923000000000000625700000000000757807200000000000000009999123100000010000000000000BRSOJAACNOR9105
012024092002SRNA3       010SERENA      ON      NM   R$  000000000088700000000008870000000000829000000000084900000000008490000000000843000000000084906917000000000004285600000000003640901300000000000000009999123100000010000000000000BRSRNAACNOR4100
012024092002STBP3       010SANTOS BRP  ON      NM   R$  000000000130000000000013060000000001259000000000127100000000012710000000001270000000000127116318000000000012488000000000015884568500000000000000009999123100000010000000000000BRSTBPACNOR3131
012024092002SUZB3       010SUZANO S.A. ON      NM   R$  000000000525200000000052670000000005202000000000523200000000052340000000005231000000000523424564000000000007147700000000037399893200000000000000009999123100000010000000000000BRSUZBACNOR0130
012024092002VBBR3       010VIBRA       ON      NM   R$  000000000243200000000024780000000002424000000000246000000000024780000000002476000000000247826650000000000018117300000000044576018900000000000000009999123100000010000000000000BRVBBRACNOR1108
012024092002ZAMP3       010ZAMP S.A.   ON           R$  000000000030000000000003000000000000265000000000026800000000002650000000000265000000000026603929000000000006447600000000001732589900000000000000009999123100000010000000000000BRZAMPACNOR5101
012024092002SMFT3       010SMART FIT   ON      NM   R$  000000000229900000000023090000000002186000000000221300000000022000000000002199000000000220311558000000000002511700000000005559395600000000000000009999123100000010000000000000BRSMFTACNOR1112
012024092002SMTO3       010SAO MARTINHOON      NM   R$  000000000270400000000027380000000002669000000000269800000000027110000000002707000000000271112361000000000002250800000000006073568400000000000000009999123100000010000000000000BRSMTOACNOR3127
012024092002USIM3       010USIMINAS    ON      N1   R$  000000000060700000000006070000000000567000000000057800000000005750000000000574000000000057701610000000000000477200000000000276222800000000000000009999123100000010000000000000BRUSIMACNOR3167
012024092002USIM5       010USIMINAS    PNA     N1   R$  000000000061400000000006160000000000583000000000059400000000005880000000000588000000000058915202000000000018151100000000010782396900000000000000009999123100000010000000000000BRUSIMACNPA6169
012024092002VAMO3       010VAMOS       ON      NM   R$  000000000068900000000006900000000000646000000000066100000000006570000000000656000000000065716635000000000010374000000000006866252200000000000000009999123100000010000000000000BRVAMOACNOR7105
012024092002UNIP3       010UNIPAR      ON           R$  000000000472500000000047250000000004651000000000467000000000047100000000004677000000000479900058000000000000009100000000000042498300000000000000009999123100000010000000000000BRUNIPACNOR7206
012024092002AZEV4       010AZEVEDO     PN           R$  000000000012800000000001280000000000117000000000012000000000001190000000000119000000000012003122000000000004024200000000000486753200000000000000009999123100000010000000000000BRAZEVACNPR7121
012024092002FIQE3       010UNIFIQUE    ON      NM   R$  000000000040500000000004050000000000374000000000038600000000003740000000000374000000000037601832000000000001051500000000000406569500000000000000009999123100000010000000000000BRFIQEACNOR5107
012024092002ITUB3       010ITAUUNIBANCOON  EJ  N1   R$  000000000315500000000031880000000003113000000000312400000000031260000000003126000000000313002557000000000000926300000000002894265100000000000000009999123100000010000000000000BRITUBACNOR4341
012024092002ITUB4       010ITAUUNIBANCOPN  EJ  N1   R$  000000000363200000000036480000000003591000000000359900000000035930000000003593000000000359534150000000000030640100000000110300112400000000000000009999123100000010000000000000BRITUBACNPR1341
012024092002LAVV3       010LAVVI       ON      NM   R$  000000000085900000000008590000000000823000000000083000000000008290000000000829000000000083003330000000000000759900000000000631166300000000000000009999123100000010000000000000BRLAVVACNOR4113
012024092002LEVE3       010METAL LEVE  ON      NM   R$  000000000317500000000031750000000003079000000000310400000000031170000000003115000000000311702716000000000000479100000000001487273500000000000000009999123100000010000000000000BRLEVEACNOR2197
012024092002GEPA3       010GER PARANAP ON           R$  000000000282500000000028250000000002825000000000282500000000028250000000002600000000000291100001000000000000000100000000000000282500000000000000009999123100000010000000000000BRGEPAACNOR2153
012024092002GEPA4       010GER PARANAP PN           R$  000000000292500000000029250000000002875000000000290000000000028750000000002850000000000293200004000000000000000500000000000001450000000000000000009999123100000010000000000000BRGEPAACNPR9160
012024092002GFSA3       010GAFISA      ON      NM   R$  000000000024400000000002470000000000224000000000023200000000002280000000000227000000000022803472000000000003543900000000000823076400000000000000009999123100000010000000000000BRGFSAACNOR3125
012024092002MRVE3       010MRV         ON      NM   R$  000000000076800000000007700000000000733000000000074100000000007400000000000740000000000074128375000000000021950700000000016275171100000000000000009999123100000010000000000000BRMRVEACNOR2127
012024092002RAIZ4       010RAIZEN      PN      N2   R$  000000000030600000000003140000000000304000000000030900000000003140000000000313000000000031416487000000000028739600000000008890855000000000000000009999123100000010000000000000BRRAIZACNPR6111
012024092002FESA4       010FERBASA     PN      N1   R$  000000000079100000000007940000000000772000000000078000000000007720000000000772000000000077502617000000000000827000000000000645700400000000000000009999123100000010000000000000BRFESAACNPR5085
012024092002FHER3       010FER HERINGERON      NM   R$  000000000039400000000004000000000000391000000000039400000000003910000000000391000000000040700019000000000000003300000000000001301400000000000000009999123100000010000000000000BRFHERACNOR5103
012024092002FIEI3       010FICA        ON           R$  000000000089000000000009100000000000890000000000090000000000009000000000000813000000000088400004000000000000010200000000000009180000000000000000009999123100000010000000000000BRFIEIACNOR2100
012024092002LJQQ3       010QUERO-QUERO ON      NM   R$  000000000038500000000003860000000000356000000000036600000000003780000000000373000000000037809302000000000005615100000000002059259600000000000000009999123100000010000000000000BRLJQQACNOR5104
012024092002LOGG3       010LOG COM PROPON      NM   R$  000000000225000000000022770000000002208000000000225100000000022630000000002262000000000226403550000000000000531200000000001195762600000000000000009999123100000010000000000000BRLOGGACNOR7107
012024092002LOGN3       010LOG-IN      ON      NM   R$  000000000354800000000036000000000003504000000000355100000000036000000000003530000000000360000117000000000000016600000000000058959400000000000000009999123100000010000000000000BRLOGNACNOR3105
012024092002LPSB3       010LOPES BRASILON      NM   R$  000000000017800000000001790000000000170000000000017200000000001700000000000170000000000017200273000000000000219000000000000037793800000000000000009999123100000010000000000000BRLPSBACNOR0114
012024092002LREN3       010LOJAS RENNERON      NM   R$  000000000188600000000018920000000001781000000000181000000000018040000000001803000000000180636596000000000035114500000000063560868700000000000000009999123100000010000000000000BRLRENACNOR1221
012024092002MOVI3       010MOVIDA      ON      NM   R$  000000000068600000000006870000000000642000000000065400000000006530000000000652000000000065311512000000000008090100000000005293971200000000000000009999123100000010000000000000BRMOVIACNOR0122
012024092002MRFG3       010MARFRIG     ON      NM   R$  000000000145000000000014880000000001409000000000143100000000014260000000001417000000000142621132000000000011379800000000016286910300000000000000009999123100000010000000000000BRMRFGACNOR0116
012024092002RAIL3       010RUMO S.A.   ON      NM   R$  000000000203900000000020440000000001974000000000199600000000019920000000001991000000000199433997000000000022519200000000044969572500000000000000009999123100000010000000000000BRRAILACNOR9105
012024092002CPFE3       010CPFL ENERGIAON      NM   R$  000000000334700000000033570000000003315000000000333600000000033380000000003335000000000333805521000000000001903500000000006351651700000000000000009999123100000010000000000000BRCPFEACNOR0137
012024092002CPLE3       010COPEL       ON      N2   R$  000000000095700000000009580000000000937000000000094100000000009400000000000939000000000094104786000000000004264400000000004013724700000000000000009999123100000010000000000000BRCPLEACNOR8149
012024092002CPLE6       010COPEL       PNB     N2   R$  000000000106800000000010690000000001040000000000105100000000010520000000001051000000000105217049000000000027141800000000028526033200000000000000009999123100000010000000000000BRCPLEACNPB9146
012024092002CYRE3       010CYRELA REALTON      NM   R$  000000000218500000000021850000000002056000000000208800000000020730000000002072000000000207324271000000000007653900000000015983753200000000000000009999123100000010000000000000BRCYREACNOR7140
012024092002ALPK3       010ESTAPAR     ON      NM   R$  000000000032200000000003230000000000290000000000029600000000002900000000000290000000000029500804000000000000409800000000000121703800000000000000009999123100000010000000000000BRALPKACNOR9101
012024092002ALUP11      010ALUPAR      UNT     N2   R$  000000000313200000000031370000000003068000000000308700000000030890000000003075000000000308904140000000000001045100000000003226772200000000000000009999123100000010000000000000BRALUPCDAM15120
012024092002ALUP3       010ALUPAR      ON      N2   R$  000000000105600000000010670000000001040000000000104900000000010500000000001031000000000105000021000000000000002900000000000003043500000000000000009999123100000010000000000000BRALUPACNOR8120
012024092002ALUP4       010ALUPAR      PN      N2   R$  000000000103200000000010340000000001015000000000102100000000010180000000001015000000000101800054000000000000008700000000000008884200000000000000009999123100000010000000000000BRALUPACNPR5120
012024092002AMAR3       010LOJAS MARISAON      NM   R$  000000000011100000000001120000000000106000000000010800000000001060000000000106000000000010700481000000000000174100000000000018875200000000000000009999123100000010000000000000BRAMARACNOR4115
012024092002AMBP3       010AMBIPAR     ON      NM   R$  000000000730300000000075000000000006826000000000740200000000075000000000007500000000000750601608000000000001019400000000007545702300000000000000009999123100000010000000000000BRAMBPACNOR6103
012024092002ANIM3       010ANIMA       ON      NM   R$  000000000029800000000002980000000000271000000000027900000000002760000000000275000000000027712378000000000013140600000000003674129500000000000000009999123100000010000000000000BRANIMACNOR6109
012024092002BMIN4       010MERC INVEST PN           R$  000000000163000000000016300000000001630000000000163000000000016300000000001630000000000173000002000000000000000400000000000000652000000000000000009999123100000010000000000000BRBMINACNPR1176
012024092002BMKS3       010BIC MONARK  ON           R$  000000003190000000000319000000000031100000000003142800000000315000000000030811000000003199900011000000000000000035000000000001100001000000000000009999123100000010000000000000BRBMKSACNOR9166
012024092002INEP3       010INEPAR      ON           R$  000000000019200000000001920000000000181000000000018400000000001860000000000183000000000018800155000000000000036300000000000006705800000000000000009999123100000010000000000000BRINEPACNOR1143
012024092002INEP4       010INEPAR      PN           R$  000000000019100000000001940000000000186000000000018900000000001900000000000187000000000019000090000000000000021100000000000004002000000000000000009999123100000010000000000000BRINEPACNPR8143
012024092002INTB3       010INTELBRAS   ON      NM   R$  000000000227400000000022740000000002117000000000214900000000021360000000002136000000000215006774000000000001286900000000002766525500000000000000009999123100000010000000000000BRINTBACNOR9112
012024092002IRBR3       010IRBBRASIL REON      NM   R$  000000000458000000000046850000000004472000000000452500000000045220000000004522000000000452304743000000000000942300000000004264206600000000000000009999123100000010000000000000BRIRBRACNOR4111
012024092002JALL3       010JALLESMACHADON      NM   R$  000000000067300000000006750000000000661000000000066800000000006740000000000671000000000067402688000000000000730000000000000488287500000000000000009999123100000010000000000000BRJALLACNOR0106
012024092002JBSS3       010JBS         ON      NM   R$  000000000329400000000033590000000003227000000000325000000000032340000000003233000000000323531585000000000025320800000000082314087300000000000000009999123100000010000000000000BRJBSSACNOR8122
012024092002MAPT4       010CEMEPE      PN           R$  000000000048000000000004800000000000480000000000048000000000004800000000000440000000000056000001000000000000000100000000000000048000000000000000009999123100000010000000000000BRMAPTACNPR5106
012024092002MATD3       010MATER DEI   ON      NM   R$  000000000048200000000004820000000000446000000000045300000000004540000000000454000000000045702753000000000003149700000000001429188200000000000000009999123100000010000000000000BRMATDACNOR4104
012024092002CRFB3       010CARREFOUR BRON      NM   R$  000000000089100000000008930000000000836000000000085100000000008600000000000858000000000086014091000000000014027400000000011939155800000000000000009999123100000010000000000000BRCRFBACNOR2116
012024092002CRPG5       010CRISTAL     PNA          R$  000000000281200000000028120000000002800000000000280400000000028110000000002789000000000281200009000000000000001000000000000002804600000000000000009999123100000010000000000000BRCRPGACNPA3119
012024092002CRPG6       010CRISTAL     PNB          R$  000000000284900000000028990000000002801000000000284900000000028010000000002801000000000284900003000000000000000300000000000000854900000000000000009999123100000010000000000000BRCRPGACNPB1119
012024092002BMOB3       010BEMOBI TECH ON      NM   R$  000000000142200000000014290000000001396000000000140300000000013960000000001396000000000140001596000000000000472000000000000662287800000000000000009999123100000010000000000000BRBMOBACNOR7103
012024092002BOBR4       010BOMBRIL     PN           R$  000000000023400000000002340000000000221000000000022700000000002270000000000227000000000023000123000000000000030400000000000006909200000000000000009999123100000010000000000000BRBOBRACNPR3128
012024092002ALLD3       010ALLIED      ON      NM   R$  000000000074700000000007510000000000723000000000073300000000007300000000000729000000000074000423000000000000084400000000000061942900000000000000009999123100000010000000000000BRALLDACNOR3106
012024092002ALOS3       010ALLOS       ON      NM   R$  000000000227200000000022890000000002224000000000224500000000022350000000002235000000000224114261000000000005706600000000012812154000000000000000009999123100000010000000000000BRALOSACNOR5101
012024092002ALPA3       010ALPARGATAS  ON      N1   R$  000000000071700000000007300000000000700000000000071100000000007300000000000709000000000073000028000000000000005400000000000003841700000000000000009999123100000010000000000000BRALPAACNOR0231
012024092002ALPA4       010ALPARGATAS  PN      N1   R$  000000000072600000000007260000000000684000000000069800000000007050000000000705000000000070707825000000000004911500000000003432979200000000000000009999123100000010000000000000BRALPAACNPR7232
012024092002IFCM3       010INFRACOMM   ON      NM   R$  000000000001700000000000180000000000016000000000001600000000000160000000000016000000000001702381000000000009372800000000000156416000000000000000009999123100000010000000000000BRIFCMACNOR8101
012024092002IGTI11      010IGUATEMI S.AUNT     N1   R$  000000000219700000000022130000000002118000000000214300000000021240000000002122000000000213211425000000000004815400000000010321898500000000000000009999123100000010000000000000BRIGTICDAM16106
012024092002IGTI3       010IGUATEMI S.AON      N1   R$  000000000027200000000002730000000000262000000000026500000000002620000000000262000000000026500097000000000000029000000000000007699400000000000000009999123100000010000000000000BRIGTIACNOR8106
012024092002IGTI4       010IGUATEMI S.APN      N1   R$  000000000099700000000009970000000000962000000000099400000000009620000000000009000000000109600014000000000000002700000000000002684900000000000000009999123100000010000000000000BRIGTIACNPR5106
012024092002LUPA3       010LUPATECH    ON      NM   R$  000000000014500000000001450000000000138000000000014000000000001410000000000139000000000014100116000000000000239600000000000033748600000000000000009999123100000010000000000000BRLUPAACNOR8112
012024092002LVTC3       010WDC NETWORKSON      NM   R$  000000000039100000000003910000000000373000000000037900000000003900000000000385000000000039000070000000000000041100000000000015604200000000000000009999123100000010000000000000BRLVTCACNOR4102
012024092002LWSA3       010LWSA        ON      NM   R$  000000000043900000000004390000000000412000000000042000000000004150000000000415000000000041819249000000000011450700000000004809370300000000000000009999123100000010000000000000BRLWSAACNOR8103
012024092002MTRE3       010MITRE REALTYON      NM   R$  000000000038500000000003850000000000364000000000036800000000003640000000000363000000000036502059000000000001301900000000000479767800000000000000009999123100000010000000000000BRMTREACNOR6114
012024092002MTSA4       010METISA      PN           R$  000000000404400000000040720000000003975000000000402700000000040150000000003983000000000402200019000000000000002500000000000010069700000000000000009999123100000010000000000000BRMTSAACNPR9072
012024092002MULT3       010MULTIPLAN   ON      N2   R$  000000000269000000000027450000000002602000000000266700000000026340000000002617000000000263542706000000000015588400000000041574536000000000000000009999123100000010000000000000BRMULTACNOR5139
012024092002PFRM3       010PROFARMA    ON      NM   R$  000000000061200000000006120000000000586000000000059300000000005900000000000590000000000059101363000000000000319700000000000189837800000000000000009999123100000010000000000000BRPFRMACNOR1116
012024092002PGMN3       010PAGUE MENOS ON      NM   R$  000000000027800000000002780000000000257000000000026500000000002670000000000267000000000026805281000000000007526900000000001996901500000000000000009999123100000010000000000000BRPGMNACNOR8103
012024092002PINE3       010PINE        ON      N2   R$  000000000051100000000005120000000000490000000000049900000000004900000000000490000000000051000005000000000000000700000000000000349500000000000000009999123100000010000000000000BRPINEACNOR1150
012024092002PINE4       010PINE        PN      N2   R$  000000000052000000000005200000000000493000000000049800000000004940000000000494000000000050102957000000000000753800000000000375992600000000000000009999123100000010000000000000BRPINEACNPR8150
012024092002PLAS3       010PLASCAR PARTON           R$  000000000060100000000006100000000000601000000000060200000000006010000000000600000000000063000006000000000000000700000000000000421600000000000000009999123100000010000000000000BRPLASACNOR2106
012024092002PLPL3       010PLANOEPLANO ON      NM   R$  000000000128600000000013030000000001244000000000126300000000012630000000001256000000000126304985000000000001128900000000001426863300000000000000009999123100000010000000000000BRPLPLACNOR5104
012024092002PNVL3       010DIMED       ON      NM   R$  000000000101900000000010190000000000989000000000100200000000010090000000001003000000000101002360000000000000576800000000000578115800000000000000009999123100000010000000000000BRPNVLACNOR9207
012024092002POMO3       010MARCOPOLO   ON      N2   R$  000000000060800000000006120000000000594000000000060100000000005940000000000594000000000059800956000000000000451600000000000271451000000000000000009999123100000010000000000000BRPOMOACNOR0099
012024092002POMO4       010MARCOPOLO   PN      N2   R$  000000000078900000000007930000000000775000000000078200000000007830000000000782000000000078311013000000000007960200000000006229730200000000000000009999123100000010000000000000BRPOMOACNPR7099
012024092002PORT3       010WILSON SONS ON      NM   R$  000000000174500000000017450000000001685000000000169800000000016950000000001695000000000169704254000000000001223900000000002079404600000000000000009999123100000010000000000000BRPORTACNOR8109
012024092002POSI3       010POSITIVO TECON      NM   R$  000000000060200000000006020000000000565000000000057800000000005650000000000565000000000056803338000000000002074100000000001199858300000000000000009999123100000010000000000000BRPOSIACNOR9116
012024092002RANI3       010IRANI       ON      NM   R$  000000000076800000000007690000000000750000000000075400000000007530000000000753000000000075404085000000000001210100000000000913316700000000000000009999123100000010000000000000BRRANIACNOR5073
012024092002CVCB3       010CVC BRASIL  ON      NM   R$  000000000020000000000002010000000000185000000000019000000000001870000000000187000000000018815772000000000035974900000000006839949800000000000000009999123100000010000000000000BRCVCBACNOR1116
012024092002AALR3       010ALLIAR      ON      NM   R$  000000000148300000000015440000000001455000000000149100000000015440000000001515000000000154500094000000000000018600000000000027748000000000000000009999123100000010000000000000BRAALRACNOR6102
012024092002AURE3       010AUREN       ON      NM   R$  000000000109000000000010920000000001060000000000106800000000010600000000001060000000000106111741000000000006261200000000006691795700000000000000009999123100000010000000000000BRAUREACNOR9104
012024092002AVLL3       010ALPHAVILLE  ON      NM   R$  000000000034000000000003400000000000335000000000033700000000003350000000000331000000000033500006000000000000001500000000000000505600000000000000009999123100000010000000000000BRAVLLACNOR5103
012024092002AZEV3       010AZEVEDO     ON           R$  000000000012900000000001290000000000117000000000012000000000001190000000000119000000000012002353000000000003002000000000000360677200000000000000009999123100000010000000000000BRAZEVACNOR0121
012024092002BAHI3       010BAHEMA      ON      MA   R$  000000000066500000000006720000000000620000000000064500000000006350000000000635000000000067200041000000000000019800000000000012779300000000000000009999123100000010000000000000BRBAHIACNOR1074
012024092002BRSR3       010BANRISUL    ON  EJ  N1   R$  000000000129100000000013000000000001262000000000128100000000012890000000001280000000000129500082000000000000012700000000000016273000000000000000009999123100000010000000000000BRBRSRACNOR3189
012024092002BRSR6       010BANRISUL    PNB EJ  N1   R$  000000000119500000000011950000000001167000000000117700000000011730000000001172000000000117506075000000000001589800000000001871293000000000000000009999123100000010000000000000BRBRSRACNPB4192
012024092002BSLI3       010BRB BANCO   ON           R$  000000000092500000000009250000000000922000000000092300000000009220000000000925000000000096100003000000000000000500000000000000461900000000000000009999123100000010000000000000BRBSLIACNOR5194
012024092002BSLI4       010BRB BANCO   PN           R$  000000000093400000000009340000000000934000000000093400000000009340000000000931000000000096300002000000000000001000000000000000934000000000000000009999123100000010000000000000BRBSLIACNPR2194
012024092002CXSE3       010CAIXA SEGURION      NM   R$  000000000147400000000014870000000001436000000000145100000000014500000000001450000000000145316543000000000006528000000000009476899200000000000000009999123100000010000000000000BRCXSEACNOR7107
012024092002ESPA3       010ESPACOLASER ON      NM   R$  000000000011000000000001110000000000102000000000010500000000001050000000000104000000000010500780000000000000596700000000000063191300000000000000009999123100000010000000000000BRESPAACNOR7103
012024092002ESTR4       010ESTRELA     PN           R$  000000000038900000000003890000000000389000000000038900000000003890000000000300000000000038400001000000000000000100000000000000038900000000000000009999123100000010000000000000BRESTRACNPR0144
012024092002ETER3       010ETERNIT     ON      NM   R$  000000000059100000000005910000000000577000000000058000000000005790000000000579000000000058300428000000000000219300000000000127409900000000000000009999123100000010000000000000BRETERACNOR3244
012024092002CEAB3       010CEA MODAS   ON      NM   R$  000000000107500000000010840000000001027000000000104100000000010340000000001033000000000104005644000000000002234500000000002327841700000000000000009999123100000010000000000000BRCEABACNOR1102
012024092002CEBR3       010CEB         ON           R$  000000000186400000000020000000000001861000000000191700000000020000000000001910000000000200000029000000000000003400000000000006521000000000000000009999123100000010000000000000BRCEBRACNOR5125
012024092002CEBR5       010CEB         PNA          R$  000000000160100000000016280000000001580000000000159600000000016280000000001581000000000162800015000000000000006400000000000010215000000000000000009999123100000010000000000000BRCEBRACNPA8124
012024092002CEBR6       010CEB         PNB          R$  000000000179300000000018170000000001753000000000178000000000017710000000001770000000000181100042000000000000008700000000000015494400000000000000009999123100000010000000000000BRCEBRACNPB6124
012024092002CEEB3       010COELBA      ON           R$  000000000375800000000039090000000003758000000000382600000000039090000000003757000000000393300005000000000000000500000000000001913000000000000000009999123100000010000000000000BRCEEBACNOR3199
012024092002CGAS5       010COMGAS      PNA          R$  000000001270000000000127990000000012700000000001275000000000127900000000012600000000001280000006000000000000000600000000000007650200000000000000009999123100000010000000000000BRCGASACNPA3161
012024092002CGRA3       010GRAZZIOTIN  ON           R$  000000000249900000000025310000000002499000000000250500000000025310000000002499000000000253200009000000000000002800000000000007016500000000000000009999123100000010000000000000BRCGRAACNOR2083
012024092002CGRA4       010GRAZZIOTIN  PN           R$  000000000250000000000025190000000002481000000000249300000000024860000000002485000000000251800023000000000000003700000000000009227000000000000000009999123100000010000000000000BRCGRAACNPR9083
012024092002EUCA3       010EUCATEX     ON      N1   R$  000000000168000000000017000000000001630000000000165700000000016300000000001610000000000163000023000000000000004000000000000006629900000000000000009999123100000010000000000000BREUCAACNOR1157
012024092002EUCA4       010EUCATEX     PN      N1   R$  000000000165000000000016500000000001556000000000159200000000015780000000001569000000000158000388000000000000062400000000000099374200000000000000009999123100000010000000000000BREUCAACNPR8044
012024092002EVEN3       010EVEN        ON      NM   R$  000000000065000000000006500000000000620000000000062500000000006240000000000624000000000062506646000000000001752200000000001095722100000000000000009999123100000010000000000000BREVENACNOR8119
012024092002EZTC3       010EZTEC       ON      NM   R$  000000000143600000000014430000000001344000000000137200000000013460000000001345000000000134613281000000000004214900000000005783280200000000000000009999123100000010000000000000BREZTCACNOR0126
012024092002CLSA3       010CLEARSALE   ON      NM   R$  000000000079200000000007990000000000765000000000077500000000007940000000000784000000000079505668000000000001724400000000001337681200000000000000009999123100000010000000000000BRCLSAACNOR0100
012024092002CLSC4       010CELESC      PN      N2   R$  000000000858100000000085810000000008412000000000843700000000084400000000008329000000000844000010000000000000001200000000000010124500000000000000009999123100000010000000000000BRCLSCACNPR3131
012024092002CMIG3       010CEMIG       ON      N1   R$  000000000143900000000014530000000001395000000000140800000000013950000000001394000000000143700800000000000000448800000000000632156500000000000000009999123100000010000000000000BRCMIGACNOR6243
012024092002CMIG4       010CEMIG       PN      N1   R$  000000000116200000000011660000000001146000000000115400000000011570000000001156000000000115732315000000000023937700000000027643141100000000000000009999123100000010000000000000BRCMIGACNPR3244
012024092002CSED3       010CRUZEIRO EDUON      NM   R$  000000000035300000000003530000000000332000000000033800000000003490000000000338000000000035002249000000000001054400000000000357214100000000000000009999123100000010000000000000BRCSEDACNOR9105
012024092002CSMG3       010COPASA      ON  EDJ NM   R$  000000000251300000000025330000000002484000000000250400000000024890000000002489000000000249505626000000000002811500000000007041984400000000000000009999123100000010000000000000BRCSMGACNOR5175
012024092002CSNA3       010SID NACIONALON           R$  000000000119200000000011990000000001105000000000112400000000011130000000001113000000000111523980000000000025127100000000028247033800000000000000009999123100000010000000000000BRCSNAACNOR6261
012024092002EGIE3       010ENGIE BRASILON      NM   R$  000000000434600000000043860000000004338000000000436300000000043710000000004362000000000437108530000000000002473400000000010793716500000000000000009999123100000010000000000000BREGIEACNOR9127
012024092002KRSA3       010KORA SAUDE  ON      NM   R$  000000000004900000000000490000000000045000000000004600000000000460000000000045000000000004601000000000000000663500000000000031075500000000000000009999123100000010000000000000BRKRSAACNOR0100
012024092002AERI3       010AERIS       ON      NM   R$  000000000072800000000007580000000000686000000000072100000000007050000000000705000000000070602834000000000000681600000000000491871700000000000000009999123100000010000000000000BRAERIACNOR4102
012024092002AESB3       010AES BRASIL  ON      NM   R$  000000000116600000000011680000000001163000000000116500000000011680000000001165000000000116806338000000000002978800000000003472751900000000000000009999123100000010000000000000BRAESBACNOR7107
012024092002AGRO3       010BRASILAGRO  ON      NM   R$  000000000263900000000026390000000002483000000000252400000000024830000000002483000000000251001971000000000000557200000000001406923900000000000000009999123100000010000000000000BRAGROACNOR7114
012024092002BBDC3       010BRADESCO    ON      N1   R$  000000000134800000000013530000000001320000000000132600000000013250000000001325000000000132609219000000000007291700000000009672663500000000000000009999123100000010000000000000BRBBDCACNOR1774
012024092002BBDC4       010BRADESCO    PN      N1   R$  000000000151000000000015120000000001464000000000147700000000014750000000001475000000000147660251000000000057953500000000085608757200000000000000009999123100000010000000000000BRBBDCACNPR8774
012024092002BEES3       010BANESTES    ON           R$  000000000089800000000008980000000000890000000000089200000000008900000000000890000000000089400099000000000000015000000000000013392400000000000000009999123100000010000000000000BRBEESACNOR9395
012024092002BEES4       010BANESTES    PN           R$  000000000095100000000009540000000000949000000000095000000000009540000000000949000000000096600006000000000000000800000000000000760200000000000000009999123100000010000000000000BRBEESACNPR6320
012024092002BGIP4       010BANESE      PN           R$  000000000251000000000025100000000002450000000000249000000000024990000000002450000000000249900009000000000000000900000000000002241000000000000000009999123100000010000000000000BRBGIPACNPR8210
012024092002BHIA3       010CASAS BAHIA ON      NM   R$  000000000057300000000005760000000000537000000000054500000000005410000000000540000000000054105659000000000006349800000000003463787400000000000000009999123100000010000000000000BRBHIAACNOR1102
012024092002COCE5       010COELCE      PNA          R$  000000000294900000000029490000000002865000000000291400000000029030000000002885000000000290300052000000000000009200000000000026813800000000000000009999123100000010000000000000BRCOCEACNPA3147
012024092002COGN3       010COGNA ON    ON      NM   R$  000000000014200000000001430000000000132000000000013500000000001320000000000132000000000013318726000000000051509700000000006972234300000000000000009999123100000010000000000000BRCOGNACNOR2105
012024092002CSUD3       010CSU DIGITAL ON      NM   R$  000000000177400000000017970000000001740000000000176000000000017740000000001761000000000177500204000000000000049800000000000087687500000000000000009999123100000010000000000000BRCSUDACNOR5110
012024092002CTKA4       010KARSTEN     PN           R$  000000000190000000000019000000000001900000000000190000000000019000000000001851000000000200000001000000000000000200000000000000380000000000000000009999123100000010000000000000BRCTKAACNPR7043
012024092002CURY3       010CURY S/A    ON      NM   R$  000000000253400000000025340000000002439000000000246400000000024390000000002438000000000243910107000000000003545500000000008736340700000000000000009999123100000010000000000000BRCURYACNOR3109
012024092002ABCB4       010ABC BRASIL  PN      N2   R$  000000000230300000000023030000000002262000000000227400000000022650000000002265000000000228203366000000000000580400000000001319875900000000000000009999123100000010000000000000BRABCBACNPR4146
012024092002ABEV3       010AMBEV S/A   ON           R$  000000000129600000000013000000000001273000000000128100000000012760000000001276000000000127736418000000000041412100000000053052706400000000000000009999123100000010000000000000BRABEVACNOR1128
012024092002AZZA3       010AZZAS 2154  ON      NM   R$  000000000464000000000046590000000004370000000000446600000000044650000000004465000000000446611485000000000003281900000000014657668200000000000000009999123100000010000000000000BRAZZAACNOR9100
012024092002CMIN3       010CSNMINERACAOON      N2   R$  000000000064000000000006420000000000624000000000063000000000006340000000000634000000000063515259000000000011494000000000007243430900000000000000009999123100000010000000000000BRCMINACNOR2111
012024092002EKTR4       010ELEKTRO     PN           R$  000000000455500000000045550000000004555000000000455500000000045550000000004306000000000455500001000000000000000100000000000000455500000000000000009999123100000010000000000000BREKTRACNPR7164
012024092002ELET3       010ELETROBRAS  ON      N1   R$  000000000413400000000041370000000003993000000000402100000000039930000000003992000000000399535470000000000014872500000000059802751100000000000000009999123100000010000000000000BRELETACNOR6160
012024092002ELET6       010ELETROBRAS  PNB     N1   R$  000000000456300000000045730000000004436000000000447900000000044890000000004486000000000448909638000000000003238100000000014504418800000000000000009999123100000010000000000000BRELETACNPB7077
012024092002BEEF3       010MINERVA     ON      NM   R$  000000000067000000000006740000000000650000000000065700000000006530000000000653000000000065510096000000000006878800000000004523153500000000000000009999123100000010000000000000BRBEEFACNOR6116
012024092002BRAV3       010BRAVA       ON      NM   R$  000000000191100000000019110000000001783000000000181900000000018180000000001818000000000182036781000000000015178800000000027614867800000000000000009999123100000010000000000000BRBRAVACNOR3100
012024092002B3SA3       010B3          ON      NM   R$  000000000120000000000012060000000001157000000000116600000000011600000000001159000000000116042594000000000055535700000000064780095200000000000000009999123100000010000000000000BRB3SAACNOR6133
012024092002BIOM3       010BIOMM       ON      MA   R$  000000000103400000000010400000000000975000000000100200000000010100000000001010000000000102500138000000000000032300000000000032386000000000000000009999123100000010000000000000BRBIOMACNOR2112
012024092002ONCO3       010ONCOCLINICASON      NM   R$  000000000054200000000005450000000000510000000000052300000000005260000000000520000000000052605268000000000005293300000000002771286400000000000000009999123100000010000000000000BRONCOACNOR6101
012024092002OPCT3       010OCEANPACT   ON      NM   R$  000000000066700000000006780000000000652000000000066700000000006780000000000663000000000067803269000000000000751600000000000501491500000000000000009999123100000010000000000000BROPCTACNOR0100
012024092002ORVR3       010ORIZON      ON      NM   R$  000000000459500000000047000000000004589000000000461600000000046100000000004609000000000461006088000000000003469000000000016014883100000000000000009999123100000010000000000000BRORVRACNOR0101
012024092002BLAU3       010BLAU        ON      NM   R$  000000000134300000000013520000000001284000000000131200000000013170000000001317000000000135203122000000000001776900000000002332674400000000000000009999123100000010000000000000BRBLAUACNOR8114
012024092002BMEB3       010MERCANTIL   ON      N1   R$  000000000399900000000039990000000003950000000000396100000000039500000000003951000000000399700009000000000000002700000000000010694700000000000000009999123100000010000000000000BRBMEBACNOR8206
012024092002BMEB4       010MERCANTIL   PN      N1   R$  000000000420000000000042160000000004142000000000417200000000041560000000004156000000000417900108000000000000016300000000000068017600000000000000009999123100000010000000000000BRBMEBACNPR5211
012024092002BMGB4       010BANCO BMG   PN      N1   R$  000000000039000000000003920000000000380000000000038400000000003860000000000385000000000038600992000000000000744200000000000286254300000000000000009999123100000010000000000000BRBMGBACNPR0110
012024092002BRBI11      010BR PARTNERS UNT     N2   R$  000000000155200000000015550000000001515000000000152500000000015200000000001520000000000152801366000000000000237000000000000361656900000000000000009999123100000010000000000000BRBRBICDAM10110
012024092002BRFS3       010BRF SA      ON      NM   R$  000000000253500000000025800000000002510000000000252900000000025120000000002510000000000251228940000000000011180400000000028277074900000000000000009999123100000010000000000000BRBRFSACNOR8122
012024092002ENEV3       010ENEVA       ON      NM   R$  000000000140800000000014100000000001380000000000139500000000014000000000001399000000000140014185000000000020043200000000027972319400000000000000009999123100000010000000000000BRENEVACNOR8106
012024092002ENGI11      010ENERGISA    UNT     N2   R$  000000000470000000000047480000000004550000000000460400000000045500000000004550000000000455314350000000000006411900000000029520741100000000000000009999123100000010000000000000BRENGICDAM16136
012024092002ENGI3       010ENERGISA    ON      N2   R$  000000000140600000000014160000000001386000000000139600000000013860000000001386000000000142100027000000000000003100000000000004327900000000000000009999123100000010000000000000BRENGIACNOR0146
012024092002ENGI4       010ENERGISA    PN      N2   R$  000000000081800000000008180000000000804000000000080800000000008060000000000805000000000081400042000000000000007100000000000005738000000000000000009999123100000010000000000000BRENGIACNPR7142
012024092002GSHP3       010GENERALSHOPPON           R$  000000000105000000000010500000000001050000000000105000000000010500000000001050000000000108200001000000000000000100000000000000105000000000000000009999123100000010000000000000BRGSHPACNOR7102
012024092002GUAR3       010GUARARAPES  ON      NM   R$  000000000086500000000008700000000000802000000000082200000000008160000000000816000000000081704043000000000001284400000000001055893800000000000000009999123100000010000000000000BRGUARACNOR4173
012024092002MBLY3       010MOBLY       ON      NM   R$  000000000024400000000002460000000000234000000000024000000000002460000000000245000000000024601962000000000001032100000000000247840800000000000000009999123100000010000000000000BRMBLYACNOR5100
012024092002MDIA3       010M.DIASBRANCOON  EJ  NM   R$  000000000263800000000026460000000002559000000000260400000000025950000000002594000000000259505970000000000001348000000000003511088200000000000000009999123100000010000000000000BRMDIAACNOR7136
012024092002MDNE3       010MOURA DUBEUXON      NM   R$  000000000148000000000014940000000001405000000000143600000000014350000000001424000000000143504042000000000000933600000000001340803500000000000000009999123100000010000000000000BRMDNEACNOR9100
012024092002MEAL3       010IMC S/A     ON      NM   R$  000000000013600000000001370000000000131000000000013400000000001330000000000133000000000013500272000000000000422400000000000056807800000000000000009999123100000010000000000000BRMEALACNOR9105
012024092002MELK3       010MELNICK     ON      NM   R$  000000000036000000000003600000000000342000000000034600000000003420000000000341000000000034202499000000000002070500000000000717198400000000000000009999123100000010000000000000BRMELKACNOR8111
012024092002MGEL4       010MANGELS INDLPN           R$  000000000120000000000012000000000001161000000000119700000000011610000000001111000000000120900006000000000000001600000000000001916100000000000000009999123100000010000000000000BRMGELACNPR3147
012024092002MGLU3       010MAGAZ LUIZA ON  ATZ NM   R$  000000000111400000000011150000000001035000000000105800000000010350000000001035000000000103939571000000000033895800000000035893079200000000000000009999123100000010000000000000BRMGLUACNOR2125
012024092002MYPK3       010IOCHP-MAXIONON      NM   R$  000000000116500000000011650000000001125000000000113800000000011250000000001125000000000113504749000000000001207000000000001373568200000000000000009999123100000010000000000000BRMYPKACNOR7155
012024092002NEOE3       010NEOENERGIA  ON      NM   R$  000000000198400000000020020000000001964000000000198200000000019770000000001976000000000197707607000000000002021100000000004006961500000000000000009999123100000010000000000000BRNEOEACNOR3123
012024092002DASA3       010DASA        ON  ES  NM   R$  000000000029900000000002990000000000275000000000027800000000002750000000000274000000000028004363000000000003806100000000001060334500000000000000009999123100000010000000000000BRDASAACNOR1123
012024092002DESK3       010DESKTOP     ON      NM   R$  000000000166000000000016700000000001604000000000162500000000016330000000001613000000000163300903000000000000156300000000000254016400000000000000009999123100000010000000000000BRDESKACNOR2104
012024092002DEXP3       010DEXXOS PAR  ON      N1   R$  000000000090400000000009040000000000866000000000088300000000008780000000000878000000000087900566000000000000140300000000000123942800000000000000009999123100000010000000000000BRDEXPACNOR1105
012024092002DEXP4       010DEXXOS PAR  PN      N1   R$  000000000089400000000008940000000000864000000000088500000000008820000000000863000000000088200017000000000000003400000000000003009800000000000000009999123100000010000000000000BRDEXPACNPR8105
012024092002DIRR3       010DIRECIONAL  ON  ED  NM   R$  000000000324500000000032560000000003143000000000317600000000031870000000003177000000000318715800000000000002856900000000009074358700000000000000009999123100000010000000000000BRDIRRACNOR0119
012024092002ARML3       010ARMAC       ON      NM   R$  000000000088800000000009010000000000851000000000088000000000008840000000000870000000000088408089000000000004929600000000004338202300000000000000009999123100000010000000000000BRARMLACNOR1112
012024092002ASAI3       010ASSAI       ON      NM   R$  000000000082600000000008330000000000770000000000078600000000007700000000000770000000000077426989000000000027824700000000021888686300000000000000009999123100000010000000000000BRASAIACNOR0106
012024092002BPAC11      010BTGP BANCO  UNT     N2   R$  000000000345500000000034760000000003333000000000335200000000033330000000003332000000000334231731000000000016468400000000055216326400000000000000009999123100000010000000000000BRBPACUNT006119
012024092002BPAC3       010BTGP BANCO  ON      N2   R$  000000000160100000000016080000000001580000000000158800000000015920000000001580000000000159300016000000000000001700000000000002700300000000000000009999123100000010000000000000BRBPACACNOR7134
012024092002BPAC5       010BTGP BANCO  PNA     N2   R$  000000000090800000000009080000000000876000000000088900000000008760000000000875000000000091100012000000000000001400000000000001245100000000000000009999123100000010000000000000BRBPACACNPA0134
012024092002BRIT3       010BRISANET    ON      NM   R$  000000000032500000000003250000000000301000000000031100000000003140000000000312000000000031402246000000000000805500000000000250971900000000000000009999123100000010000000000000BRBRITACNOR0103
012024092002BRKM3       010BRASKEM     ON      N1   R$  000000000191900000000019790000000001882000000000192000000000018830000000001883000000000194500567000000000000067000000000000128642700000000000000009999123100000010000000000000BRBRKMACNOR1119
012024092002BRKM5       010BRASKEM     PNA     N1   R$  000000000192300000000019230000000001855000000000187600000000018700000000001870000000000187716196000000000006128300000000011498552300000000000000009999123100000010000000000000BRBRKMACNPA4121
012024092002JHSF3       010JHSF PART   ON      NM   R$  000000000043500000000004350000000000418000000000042200000000004180000000000418000000000042104046000000000003843200000000001623957600000000000000009999123100000010000000000000BRJHSFACNOR2139
012024092002ODPV3       010ODONTOPREV  ON      NM   R$  000000000115000000000011500000000001120000000000112800000000011270000000001127000000000113205111000000000001464100000000001652284300000000000000009999123100000010000000000000BRODPVACNOR4203
012024092002OFSA3       010OUROFINO S/AON      NM   R$  000000000218400000000021850000000002127000000000217100000000021800000000002100000000000219300007000000000000001200000000000002606300000000000000009999123100000010000000000000BROFSAACNOR7118
012024092002GOAU3       010GERDAU MET  ON      N1   R$  000000000108300000000010830000000001051000000000106100000000010690000000001056000000000106900198000000000000039000000000000041417900000000000000009999123100000010000000000000BRGOAUACNOR1268
012024092002GOAU4       010GERDAU MET  PN      N1   R$  000000000106400000000010670000000001036000000000104500000000010430000000001042000000000104410154000000000007870800000000008227849300000000000000009999123100000010000000000000BRGOAUACNPR8269
012024092002GRND3       010GRENDENE    ON      NM   R$  000000000059600000000005960000000000567000000000057500000000005670000000000567000000000057504549000000000001616700000000000930864100000000000000009999123100000010000000000000BRGRNDACNOR3175
012024092002NINJ3       010GETNINJAS   ON      NM   R$  000000000047000000000004700000000000470000000000047000000000004700000000000468000000000047900002000000000000000500000000000000235000000000000000009999123100000010000000000000BRNINJACNOR5101
012024092002NTCO3       010GRUPO NATURAON      NM   R$  000000000143000000000014430000000001361000000000137700000000013630000000001362000000000136415206000000000013701400000000018874570100000000000000009999123100000010000000000000BRNTCOACNOR5106
012024092002ELMD3       010ELETROMIDIA ON      NM   R$  000000000178800000000017940000000001692000000000172300000000017400000000001700000000000174000935000000000000204900000000000353094400000000000000009999123100000010000000000000BRELMDACNOR3101
012024092002EMAE4       010EMAE        PN           R$  000000000450000000000045760000000004440000000000452100000000045290000000004384000000000453000014000000000000001600000000000007233700000000000000009999123100000010000000000000BREMAEACNPR1125
012024092002EMBR3       010EMBRAER     ON      NM   R$  000000000476300000000048850000000004711000000000482500000000048250000000004825000000000482931013000000000007963600000000038424970400000000000000009999123100000010000000000000BREMBRACNOR4191
012024092002GGPS3       010GPS         ON      NM   R$  000000000191600000000019160000000001858000000000187400000000018580000000001857000000000186014612000000000003629200000000006801525100000000000000009999123100000010000000000000BRGGPSACNOR9103
012024092002GMAT3       010GRUPO MATEUSON      NM   R$  000000000072000000000007250000000000700000000000070900000000007160000000000712000000000071708563000000000004642000000000003293588400000000000000009999123100000010000000000000BRGMATACNOR7102
012024092007TXRX4       010TEX RENAUX  PN           R$  000000000022500000000002470000000000225000000000023200000000002290000000000228000000000023700020000000000000006200000000000001440900000000000000009999123100000010000000000000BRTXRXACNPR0142
012024092007NUTR3       010NUTRIPLANT  ON      MA   R$  000000000046300000000004750000000000454000000000046500000000004750000000000462000000000047500016000000000000002500000000000001163200000000000000009999123100000010000000000000BRNUTRACNOR0104
012024092008RPMG3       010PET MANGUINHON           R$  000000000030100000000003080000000000292000000000029700000000002920000000000292000000000029600171000000000000029300000000000008723500000000000000009999123100000010000000000000BRRPMGACNOR9194
012024092008RSID3       010ROSSI RESID ON      NM   R$  000000000032200000000003220000000000311000000000031600000000003170000000000310000000000031700059000000000000021600000000000006838800000000000000009999123100000010000000000000BRRSIDACNOR8120
012024092008JFEN3       010JOAO FORTES ON           R$  000000000003200000000000330000000000026000000000002800000000000300000000000030000000000003102581000000000005756400000000000165750100000000000000009999123100000010000000000000BRJFENACNOR0059
012024092008RNEW11      010RENOVA      UNT     N2   R$  000000000028900000000002890000000000286000000000028600000000002870000000000287000000000029300008000000000000001600000000000000458500000000000000009999123100000010000000000000BRRNEWCDAM15110
012024092008RNEW3       010RENOVA      ON      N2   R$  000000000009700000000000980000000000094000000000009500000000000980000000000095000000000009900076000000000000044500000000000004263700000000000000009999123100000010000000000000BRRNEWACNOR8110
012024092008RNEW4       010RENOVA      PN      N2   R$  000000000009600000000000990000000000095000000000009600000000000960000000000096000000000009700073000000000000065300000000000006293300000000000000009999123100000010000000000000BRRNEWACNPR5110
012024092008ATMP3       010ATMASA      ON           R$  000000000014700000000001470000000000142000000000014500000000001470000000000144000000000015000015000000000000009700000000000001415300000000000000009999123100000010000000000000BRATMPACNOR8100
012024092008LIGT3       010LIGHT S/A   ON      NM   R$  000000000077600000000007840000000000764000000000077100000000007710000000000770000000000077601540000000000000333400000000000257083400000000000000009999123100000010000000000000BRLIGTACNOR2124
012024092008AMER3       010AMERICANAS  ON      NM   R$  000000000062200000000006280000000000570000000000059300000000005780000000000576000000000057802712000000000003298300000000001958776500000000000000009999123100000010000000000000BRAMERACNOR6103
012024092008AGXY3       010AGROGALAXY  ON      NM   R$  000000000007300000000000750000000000055000000000006100000000000570000000000056000000000005701795000000000003124900000000000193184600000000000000009999123100000010000000000000BRAGXYACNOR4103
012024092008PMAM3       010PARANAPANEMAON      NM   R$  000000000017700000000001820000000000174000000000017600000000001820000000000178000000000018200064000000000000018800000000000003319900000000000000009999123100000010000000000000BRPMAMACNOR3039
012024092008CTSA4       010SANTANENSE  PN           R$  000000000011600000000001210000000000114000000000011600000000001140000000000114000000000011600160000000000000035800000000000004179600000000000000009999123100000010000000000000BRCTSAACNPR0062
012024092008OIBR4       010OI          PN      N1   R$  000000000111200000000011520000000001104000000000113900000000011500000000001108000000000114900018000000000000002400000000000002734300000000000000009999123100000010000000000000BROIBRACNPR8111
012024092008OSXB3       010OSX BRASIL  ON      NM   R$  000000000039500000000004050000000000394000000000040100000000003940000000000394000000000040400008000000000000002200000000000000884000000000000000009999123100000010000000000000BROSXBACNOR8109
012024092008NEXP3       010NEXPE       ON           R$  000000000040400000000004110000000000402000000000040600000000004060000000000405000000000041100008000000000000001100000000000000447400000000000000009999123100000010000000000000BRNEXPACNOR0101
012024092008OIBR3       010OI          ON      N1   R$  000000000052000000000005270000000000513000000000051800000000005200000000000520000000000052100904000000000000662900000000000343833800000000000000009999123100000010000000000000BROIBRACNOR1112
012024092010CBEE1       010AMPLA ENERG DIR ORD      R$  000000000009900000000001690000000000099000000000014800000000001670000000000164000000000025000045000000000000010900000000000001615400000000000000009999123100000010000000000000BRCBEED07OR5159
012024092010ZAMP9       010ZAMP S.A.   ON  REC      R$  000000000027500000000002750000000000265000000000027400000000002650000000000250000000000028300004000000000000001100000000000000301500000000000000009999123100000010000000000000BRZAMPR01OR0100
012024092010AESB1       010AES BRASIL  DIR ORD NM   R$  000000000005800000000000580000000000050000000000005200000000000500000000000050000000000005300058000000000000016000000000000000835800000000000000009999123100000010000000000000BRAESBD03OR8106
012024092010BGIP2       010BANESE      DIR PRE      R$  000000000024600000000002460000000000246000000000024600000000002460000000000200000000000027100002000000000000001600000000000000393600000000000000009999123100000010000000000000BRBGIPD08PR8209
012024092010DASA1       010DASA        DIR ORD NM   R$  000000000000500000000000050000000000003000000000000300000000000030000000000003000000000000400384000000000001621700000000000005997400000000000000009999123100000010000000000000BRDASAD04OR0122
012024092010OIBR1       010OI          DIR ORD N1   R$  000000000000500000000000060000000000004000000000000400000000000040000000000004000000000000500452000000000007114300000000000030871900000000000000009999123100000010000000000000BROIBRD05OR7111
012024092012PATC11      010FII PATRIA  CI           R$  000000000351800000000035350000000003515000000000352400000000035350000000003515000000000357600046000000000000001319000000000004649097000000000000009999123100000010000000000000BRPATCCTF002173
012024092012PATL11      010FII PATLOGISCI           R$  000000000600100000000060180000000005970000000000599100000000059900000000005989000000000599001276000000000000011318000000000067807155000000000000009999123100000010000000000000BRPATLCTF003149
012024092012TEPP11      010FII TEL PROPCI           R$  000000000879200000000087990000000008752000000000877900000000087960000000008780000000000879600590000000000000004936000000000043334605000000000000009999123100000010000000000000BRTEPPCTF006153
012024092012TGAR11      010FII TG ATIVOCI           R$  000000001123000000000116020000000011230000000001155100000000116020000000011505000000001160221088000000000000955542000000011037680767000000000000009999123100000010000000000000BRTGARCTF009194
012024092012VTLT11      010FII VOT LOG CI           R$  000000000936000000000094500000000009330000000000937000000000094440000000009350000000000944400577000000000000002207000000000020680305000000000000009999123100000010000000000000BRVTLTCTF001175
012024092012VVCO11      010FII V2EDCORPCI           R$  000000000130400000000013040000000001300000000000130200000000013000000000001285000000000129400002000000000000000003000000000000003908000000000000009999123100000010000000000000BRVVCOCTF007101
012024092012VVCR11      010FII V2 RECE CI  ER       R$  000000000098900000000009890000000000988000000000098800000000009880000000000988000000000098900027000000000000001080000000000001067044000000000000009999123100000010000000000000BRVVCRCTF000119
012024092012VVMR11      010FII MULT RENCI           R$  000000000870000000000087510000000008700000000000871600000000087510000000008700000000000875100003000000000000000019000000000000165606000000000000009999123100000010000000000000BRVVMRCTF009108
012024092012RECR11      010FII REC RECECI           R$  000000000827700000000083320000000008270000000000828900000000083320000000008332000000000833802079000000000000038589000000000319901361000000000000009999123100000010000000000000BRRECRCTF004154
012024092012RECT11      010FII REC RENDCI           R$  000000000333500000000033380000000003295000000000331500000000033010000000003300000000000330100634000000000000009166000000000030387394000000000000009999123100000010000000000000BRRECTCTF000170
012024092012RECX11      010FII REC FOF CI           R$  000000000621000000000063000000000006210000000000629400000000063000000000006211000000000642500006000000000000000120000000000000755285000000000000009999123100000010000000000000BRRECXCTF002140
012024092012REIT11      010FII REIT RIVCI           R$  000000001179900000000163990000000011799000000001256500000000163990000000011501000000001600000006000000000000000006000000000000075394000000000000009999123100000010000000000000BRREITCTF007143
012024092012RELG11      010FII REC LOG CI           R$  000000000616100000000061610000000006101000000000610400000000061010000000006101000000000614900044000000000000000593000000000003620049000000000000009999123100000010000000000000BRRELGCTF008138
012024092012SAPI11      010FII SAPI    CI           R$  000000000912000000000091900000000008900000000000904200000000091300000000008933000000000911801345000000000000009335000000000084409349000000000000009999123100000010000000000000BRSAPICTF001111
012024092012SARE11      010FII SANT RENCI           R$  000000000394400000000040680000000003930000000000398000000000039820000000003963000000000398205050000000000000017489000000000069612038000000000000009999123100000010000000000000BRSARECTF006159
012024092012VOTS11      010FII V MASTERCI           R$  000000000779100000000078450000000007791000000000779300000000078450000000007791000000000784200005000000000000000020000000000000155874000000000000009999123100000010000000000000BRVOTSCTF007173
012024092012VRTA11      010FII FATOR VECI           R$  000000000878500000000088000000000008654000000000868800000000086550000000008655000000000866204072000000000000026917000000000233863735000000000000009999123100000010000000000000BRVRTACTF008263
012024092012VRTM11      010FII VRTM    CI           R$  000000000083900000000008420000000000837000000000084000000000008410000000000840000000000084101241000000000000047353000000000039779308000000000000009999123100000010000000000000BRVRTMCTF003111
012024092012VSHO11      010FII VOT SHOPCI           R$  000000000739900000000073990000000007323000000000738300000000073550000000007347000000000738900038000000000000000135000000000000996831000000000000009999123100000010000000000000BRVSHOCTF002164
012024092012VSLH11      010FII VERS CRICI           R$  000000000035100000000003520000000000349000000000035000000000003490000000000349000000000035001338000000000000038507000000000013493332000000000000009999123100000010000000000000BRVSLHCTF008146
012024092012RBDS11      010FII RBRESID2CI           R$  000000000030000000000003100000000000300000000000030900000000003100000000000285000000000031000003000000000000000010000000000000003090000000000000009999123100000010000000000000BRRBDSCTF006179
012024092012RBED11      010FII RIOB ED CI           R$  000000001330000000000133000000000013140000000001323800000000132000000000013200000000001326900156000000000000001085000000000014363901000000000000009999123100000010000000000000BRRBEDCTF006167
012024092012RBFF11      010FII RIOB FF CI           R$  000000000594100000000060730000000005879000000000599000000000059080000000005908000000000591500679000000000000005908000000000035392000000000000000009999123100000010000000000000BRRBFFCTF008163
012024092012RBHG11      010FII RBCRI IVCI           R$  000000000843300000000084830000000008348000000000842900000000083480000000008338000000000835701512000000000000008479000000000071475118000000000000009999123100000010000000000000BRRBHGCTF002137
012024092012RBHY11      010FII RB YIELDCI           R$  000000000888500000000089310000000008840000000000888800000000088990000000008889000000000889900068000000000000000492000000000004373144000000000000009999123100000010000000000000BRRBHYCTF005147
012024092012RBIR11      010FII RBRES IVCI           R$  000000000838800000000085430000000008385000000000846600000000085400000000008442000000000853800015000000000000000186000000000001574784000000000000009999123100000010000000000000BRRBIRCTF007112
012024092012RBOP11      010FII MERC BR CI           R$  000000003735500000000384960000000036611000000003771400000000374540000000036989000000003750000095000000000000000397000000000014972491000000000000009999123100000010000000000000BRRBOPCTF009124
012024092012RBRD11      010FII RB II   CI           R$  000000000373800000000037680000000003720000000000372400000000037500000000003748000000000375000071000000000000002358000000000008782330000000000000009999123100000010000000000000BRRBRDCTF008266
012024092012RBRF11      010FII RBRALPHACI  ER       R$  000000000072000000000007200000000000712000000000071400000000007120000000000712000000000071329951000000000000385689000000000275761310000000000000009999123100000010000000000000BRRBRFCTF003190
012024092012RBRI11      010FII RBR III CI  ER       R$  000000009168300000000916830000000091683000000009168300000000916830000000074602000000010150000003000000000000000012000000000001100196000000000000009999123100000010000000000000BRRBRICTF007104
012024092012RBRL11      010FII RBR LOG CI           R$  000000000787000000000078830000000007795000000000781500000000078150000000007815000000000783603883000000000000007451000000000058235362000000000000009999123100000010000000000000BRRBRLCTF001157
012024092012RBRP11      010FII RBR PROPCI           R$  000000000548000000000055250000000005471000000000550000000000054730000000005473000000000548006884000000000000020014000000000110086511000000000000009999123100000010000000000000BRRBRPCTF002176
012024092012RBRR11      010FII RBRHGRADCI  ER       R$  000000000894000000000090100000000008929000000000896700000000089750000000008961000000000897508290000000000000028197000000000252861714000000000000009999123100000010000000000000BRRBRRCTF008183
012024092012RBRX11      010FII RBR MULTCI  ER       R$  000000000086600000000008700000000000860000000000086400000000008620000000000862000000000086815076000000000000089022000000000076922539000000000000009999123100000010000000000000BRRBRXCTF006132
012024092012RBRY11      010FII RBR PCRICI  ER       R$  000000000956600000000097940000000009540000000000971200000000096000000000009600000000000962414319000000000000057451000000000558008219000000000000009999123100000010000000000000BRRBRYCTF004171
012024092012RBVA11      010FII RIOB VA CI           R$  000000001031500000000103970000000010230000000001027600000000102950000000010255000000001029504381000000000000015067000000000154839786000000000000009999123100000010000000000000BRRBVACTF006169
012024092012RBVO11      010FII RIOBCRI2CI           R$  000000000132400000000013500000000001298000000000131900000000013290000000001325000000000132900237000000000000003635000000000004797195000000000000009999123100000010000000000000BRRBVOCTF007245
012024092012RCFA11      010FII GP RCFA CI           R$  000000000010100000000001120000000000101000000000010200000000001020000000000103000000000011000012000000000000000358000000000000036617000000000000009999123100000010000000000000BRRCFACTF007101
012024092012RCRB11      010FII RIOB RC CI           R$  000000001319400000000131940000000012949000000001306400000000131740000000013150000000001317401396000000000000004055000000000052975825000000000000009999123100000010000000000000BRRCRBCTF000160
012024092012RPRI11      010FII RBR PR  CI           R$  000000000920000000000092000000000009103000000000912000000000091110000000009111000000000913300275000000000000003996000000000036446781000000000000009999123100000010000000000000BRRPRICTF007131
012024092012RRCI11      010FII RBCAP RICI           R$  000000000771900000000077190000000007620000000000764700000000076200000000007620000000000762500026000000000000000264000000000002018959000000000000009999123100000010000000000000BRRRCICTF005145
012024092012RTEL16      010FII RTEL    CI           R$  000000000905700000000090570000000009057000000000905700000000090570000000000000000000000000000001000000000000000190000000000001720830000000000000009999123100000010000000000000BRRTELCTF027108
012024092012RVBI11      010FII VBI REITCI           R$  000000000735000000000073500000000007252000000000730100000000072520000000007252000000000727804287000000000000034923000000000254986312000000000000009999123100000010000000000000BRRVBICTF009155
012024092012RZAK11      010FII RIZA AKNCI  ER       R$  000000000808300000000081290000000008015000000000808600000000080310000000008031000000000804103890000000000000040520000000000327656539000000000000009999123100000010000000000000BRRZAKCTF008147
012024092012RZAT11      010FII ARCTIUM CI  ER       R$  000000001001000000000100300000000009870000000000998000000000100050000000009922000000001000501284000000000000040833000000000407538923000000000000009999123100000010000000000000BRRZATCTF009121
012024092012RZLC11      010FII RZLC    CI           R$  000000010069500000001006950000000100695000000010069500000001006950000000100694000000010069500005000000000000000126000000000012687570000000000000009999123100000010000000000000BRRZLCCTF002100
