00COTAHIST.2024BOVESPA 20240911                                                                                                                                                                                                                      
012024091102FESA3       010FERBASA     ON  EJ  N1   R$  000000000132600000000013260000000001326000000000132600000000013260000000001329000000000142500001000000000000000100000000000000132600000000000000009999123100000010000000000000BRFESAACNOR8189
012024091102FESA4       010FERBASA     PN  EJ  N1   R$  000000000078900000000008020000000000783000000000079400000000007970000000000796000000000080202127000000000000668200000000000530961700000000000000009999123100000010000000000000BRFESAACNPR5085
012024091102FHER3       010FER HERINGERON      NM   R$  000000000040300000000004070000000000401000000000040100000000004010000000000401000000000040500008000000000000001600000000000000642900000000000000009999123100000010000000000000BRFHERACNOR5103
012024091102FIEI3       010FICA        ON           R$  000000000085000000000008500000000000850000000000085000000000008500000000000800000000000084000001000000000000000100000000000000085000000000000000009999123100000010000000000000BRFIEIACNOR2100
012024091102FIQE3       010UNIFIQUE    ON      NM   R$  000000000038000000000004010000000000380000000000039000000000003950000000000394000000000039500986000000000000745400000000000291304600000000000000009999123100000010000000000000BRFIQEACNOR5107
012024091102GEPA4       010GER PARANAP PN           R$  000000000280100000000028490000000002800000000000280600000000028490000000002801000000000284700006000000000000000800000000000002245100000000000000009999123100000010000000000000BRGEPAACNPR9160
012024091102GFSA3       010GAFISA      ON      NM   R$  000000000024300000000002480000000000237000000000024200000000002480000000000247000000000024802158000000000002477400000000000601492500000000000000009999123100000010000000000000BRGFSAACNOR3125
012024091102ITSA3       010ITAUSA      ON  EJ  N1   R$  000000000112600000000011280000000001113000000000111900000000011210000000001121000000000112700422000000000000150300000000000168270200000000000000009999123100000010000000000000BRITSAACNOR0442
012024091102ITSA4       010ITAUSA      PN  EJ  N1   R$  000000000112300000000011270000000001113000000000112000000000011230000000001123000000000112417703000000000033551900000000037611354600000000000000009999123100000010000000000000BRITSAACNPR7442
012024091102CAMB3       010CAMBUCI     ON           R$  000000000123000000000012300000000001192000000000121300000000012150000000001215000000000122700125000000000000045800000000000055560100000000000000009999123100000010000000000000BRCAMBACNOR4131
012024091102CAML3       010CAMIL       ON  EDJ NM   R$  000000000096100000000009770000000000941000000000096000000000009660000000000964000000000096702319000000000000598000000000000574510900000000000000009999123100000010000000000000BRCAMLACNOR3129
012024091102CASH3       010MELIUZ      ON  ER  NM   R$  000000000042000000000004310000000000416000000000042200000000004290000000000427000000000042901804000000000001011700000000000427657300000000000000009999123100000010000000000000BRCASHACNOR8107
012024091102CBAV3       010CBA         ON      NM   R$  000000000046600000000004730000000000456000000000046300000000004620000000000461000000000046304405000000000002329500000000001079195500000000000000009999123100000010000000000000BRCBAVACNOR5104
012024091102CCRO3       010CCR SA      ON      NM   R$  000000000131000000000013150000000001288000000000129700000000012880000000001288000000000128913718000000000007890700000000010235216200000000000000009999123100000010000000000000BRCCROACNOR2145
012024091102SBFG3       010GRUPO SBF   ON      NM   R$  000000000174500000000017590000000001731000000000174400000000017400000000001738000000000174009118000000000002370000000000004133623300000000000000009999123100000010000000000000BRSBFGACNOR1103
012024091102SBSP3       010SABESP      ON      NM   R$  000000000957600000000096310000000009422000000000948700000000094730000000009473000000000947512969000000000002727200000000025874282000000000000000009999123100000010000000000000BRSBSPACNOR5161
012024091102SCAR3       010SAO CARLOS  ON      NM   R$  000000000229900000000023220000000002277000000000229600000000023100000000002260000000000231000045000000000000006600000000000015154200000000000000009999123100000010000000000000BRSCARACNOR7131
012024091102FLRY3       010FLEURY      ON      NM   R$  000000000164600000000016630000000001636000000000165100000000016590000000001657000000000166307107000000000002136700000000003527695500000000000000009999123100000010000000000000BRFLRYACNOR5139
012024091102FRAS3       010FRAS-LE     ON      N1   R$  000000000198100000000020130000000001978000000000199500000000020050000000002005000000000201301371000000000000246800000000000492524400000000000000009999123100000010000000000000BRFRASACNOR0160
012024091102FRIO3       010METALFRIO   ON      NM   R$  000000001100000000000121010000000009300000000001048300000000093000000000009101000000001160000043000000000000006200000000000064996700000000000000009999123100000010000000000000BRFRIOACNOR2111
012024091102WEGE3       010WEG         ON      NM   R$  000000000526100000000053810000000005261000000000533400000000053500000000005350000000000535520975000000000006069800000000032377124600000000000000009999123100000010000000000000BRWEGEACNOR0224
012024091102DIRR3       010DIRECIONAL  ON      NM   R$  000000000317000000000031980000000003145000000000317500000000031840000000003178000000000318409384000000000001941100000000006163104400000000000000009999123100000010000000000000BRDIRRACNOR0118
012024091102DMVF3       010D1000VFARMA ON      NM   R$  000000000067100000000006860000000000635000000000064900000000006560000000000647000000000065600672000000000000182700000000000118735300000000000000009999123100000010000000000000BRDMVFACNOR9100
012024091102DOHL4       010DOHLER      PN           R$  000000000040700000000004260000000000407000000000041600000000004260000000000408000000000042700002000000000000000200000000000000083300000000000000009999123100000010000000000000BRDOHLACNPR9066
012024091102DOTZ3       010DOTZ SA     ON      NM   R$  000000000068000000000007000000000000646000000000066200000000006610000000000661000000000066400144000000000000037300000000000024701500000000000000009999123100000010000000000000BRDOTZACNOR7101
012024091102DXCO3       010DEXCO       ON      NM   R$  000000000078900000000007950000000000785000000000078900000000007880000000000786000000000078902959000000000001037900000000000819675200000000000000009999123100000010000000000000BRDXCOACNOR8105
012024091102GGPS3       010GPS         ON      NM   R$  000000000182500000000018350000000001798000000000181800000000018150000000001815000000000182404384000000000001305500000000002373793400000000000000009999123100000010000000000000BRGGPSACNOR9103
012024091102GRND3       010GRENDENE    ON      NM   R$  000000000061000000000006110000000000604000000000060800000000006100000000000608000000000061101423000000000000450100000000000273914000000000000000009999123100000010000000000000BRGRNDACNOR3175
012024091102AZZA3       010AZZAS 2154  ON      NM   R$  000000000476000000000048230000000004720000000000479100000000048220000000004822000000000482306661000000000001690200000000008098498000000000000000009999123100000010000000000000BRAZZAACNOR9100
012024091102CYRE3       010CYRELA REALTON      NM   R$  000000000214200000000021640000000002135000000000215000000000021530000000002148000000000215309379000000000002651600000000005701734000000000000000009999123100000010000000000000BRCYREACNOR7140
012024091102GGBR3       010GERDAU      ON      N1   R$  000000000165100000000016700000000001631000000000165200000000016370000000001637000000000165900129000000000000021600000000000035702400000000000000009999123100000010000000000000BRGGBRACNOR1193
012024091102GGBR4       010GERDAU      PN      N1   R$  000000000185900000000018820000000001839000000000185500000000018570000000001856000000000185717811000000000011156700000000020701111300000000000000009999123100000010000000000000BRGGBRACNPR8193
012024091102ITUB3       010ITAUUNIBANCOON  EJ  N1   R$  000000000326000000000032650000000003238000000000325200000000032430000000003241000000000324301678000000000000351400000000001142933300000000000000009999123100000010000000000000BRITUBACNOR4340
012024091102ITUB4       010ITAUUNIBANCOPN  EJ  N1   R$  000000000373800000000037540000000003714000000000373700000000037380000000003732000000000373821390000000000019666600000000073500080000000000000000009999123100000010000000000000BRITUBACNPR1340
012024091102AZUL4       010AZUL        PN  ATZ N2   R$  000000000042400000000004320000000000405000000000041500000000004150000000000414000000000041513056000000000027487400000000011424802700000000000000009999123100000010000000000000BRAZULACNPR4103
012024091102CEAB3       010CEA MODAS   ON      NM   R$  000000000100300000000010200000000000996000000000100400000000010010000000000998000000000100102650000000000001341400000000001347760000000000000000009999123100000010000000000000BRCEABACNOR1102
012024091102CEBR3       010CEB         ON           R$  000000000192300000000019240000000001912000000000191500000000019200000000001912000000000192000011000000000000001500000000000002872500000000000000009999123100000010000000000000BRCEBRACNOR5125
012024091102CEBR5       010CEB         PNA          R$  000000000162300000000016490000000001622000000000164000000000016490000000001647000000000165000009000000000000001200000000000001968700000000000000009999123100000010000000000000BRCEBRACNPA8124
012024091102CEBR6       010CEB         PNB          R$  000000000180000000000018030000000001782000000000179200000000018030000000001785000000000180300011000000000000001300000000000002330200000000000000009999123100000010000000000000BRCEBRACNPB6124
012024091102CEDO3       010CEDRO       ON      N1   R$  000000000255000000000025500000000002550000000000255000000000025500000000002120000000000255000001000000000000000100000000000000255000000000000000009999123100000010000000000000BRCEDOACNOR8096
012024091102CEDO4       010CEDRO       PN      N1   R$  000000000250800000000025080000000002500000000000250600000000025000000000002500000000000250900004000000000000000600000000000001504000000000000000009999123100000010000000000000BRCEDOACNPR5128
012024091102BSLI3       010BRB BANCO   ON           R$  000000000096200000000009980000000000962000000000098800000000009950000000000959000000000099500007000000000000001000000000000000988000000000000000009999123100000010000000000000BRBSLIACNOR5194
012024091102BSLI4       010BRB BANCO   PN           R$  000000000095000000000009500000000000950000000000095000000000009500000000000933000000000095900001000000000000000100000000000000095000000000000000009999123100000010000000000000BRBSLIACNPR2194
012024091102AALR3       010ALLIAR      ON      NM   R$  000000000155900000000015830000000001541000000000156600000000015830000000001553000000000158300111000000000000022700000000000035549300000000000000009999123100000010000000000000BRAALRACNOR6102
012024091102ABCB4       010ABC BRASIL  PN      N2   R$  000000000234200000000023420000000002308000000000232400000000023080000000002308000000000231202198000000000000615400000000001430759900000000000000009999123100000010000000000000BRABCBACNPR4146
012024091102ABEV3       010AMBEV S/A   ON           R$  000000000133000000000013300000000001302000000000131000000000013040000000001303000000000130521206000000000021490600000000028159753700000000000000009999123100000010000000000000BRABEVACNOR1128
012024091102CSAN3       010COSAN       ON      NM   R$  000000000125500000000013010000000001254000000000128300000000012970000000001294000000000129816237000000000009105100000000011690899400000000000000009999123100000010000000000000BRCSANACNOR6126
012024091102BBDC3       010BRADESCO    ON  EJ  N1   R$  000000000141600000000014230000000001399000000000140700000000014030000000001402000000000140408584000000000005430100000000007640773300000000000000009999123100000010000000000000BRBBDCACNOR1774
012024091102BBDC4       010BRADESCO    PN  EJ  N1   R$  000000000157900000000015830000000001558000000000156700000000015620000000001561000000000156221801000000000019715400000000030907492100000000000000009999123100000010000000000000BRBBDCACNPR8774
012024091102PFRM3       010PROFARMA    ON      NM   R$  000000000061900000000006190000000000607000000000061100000000006140000000000611000000000061500426000000000000082400000000000050415500000000000000009999123100000010000000000000BRPFRMACNOR1116
012024091102PGMN3       010PAGUE MENOS ON      NM   R$  000000000029500000000003010000000000291000000000029300000000002940000000000293000000000029402231000000000000573300000000000168423100000000000000009999123100000010000000000000BRPGMNACNOR8103
012024091102CPFE3       010CPFL ENERGIAON      NM   R$  000000000346100000000034610000000003392000000000341000000000034070000000003407000000000341905750000000000001242000000000004235482500000000000000009999123100000010000000000000BRCPFEACNOR0137
012024091102CPLE3       010COPEL       ON      N2   R$  000000000097600000000009760000000000962000000000096600000000009650000000000964000000000097006359000000000002968100000000002868116200000000000000009999123100000010000000000000BRCPLEACNOR8149
012024091102CPLE5       010COPEL       PNA     N2   R$  000000000116000000000011600000000001100000000000112100000000011250000000001125000000000119000016000000000000002900000000000003253500000000000000009999123100000010000000000000BRCPLEACNPA1147
012024091102CPLE6       010COPEL       PNB     N2   R$  000000000108200000000010870000000001073000000000107600000000010740000000001073000000000107413535000000000010079900000000010851857900000000000000009999123100000010000000000000BRCPLEACNPB9146
012024091102CRFB3       010CARREFOUR BRON      NM   R$  000000000090100000000009650000000000901000000000093800000000009600000000000960000000000096313149000000000012917100000000012117227500000000000000009999123100000010000000000000BRCRFBACNOR2116
012024091102MELK3       010MELNICK     ON      NM   R$  000000000034000000000003520000000000338000000000034100000000003380000000000338000000000033902890000000000004168600000000001423625500000000000000009999123100000010000000000000BRMELKACNOR8111
012024091102MGLU3       010MAGAZ LUIZA ON      NM   R$  000000000114400000000011520000000001116000000000113200000000011270000000001126000000000112818063000000000015242600000000017257402600000000000000009999123100000010000000000000BRMGLUACNOR2124
012024091102PRNR3       010PRINER      ON      NM   R$  000000000131900000000013260000000001302000000000130900000000013150000000001311000000000131500664000000000000198300000000000259681100000000000000009999123100000010000000000000BRPRNRACNOR4109
012024091102PSSA3       010PORTO SEGUROON      NM   R$  000000000345000000000034780000000003419000000000344100000000034380000000003428000000000343806407000000000001275400000000004389640400000000000000009999123100000010000000000000BRPSSAACNOR7155
012024091102PTBL3       010PORTOBELLO  ON      NM   R$  000000000049000000000004990000000000487000000000049400000000004960000000000494000000000049600555000000000000161500000000000079862600000000000000009999123100000010000000000000BRPTBLACNOR8132
012024091102PTNT4       010PETTENATI   PN           R$  000000000075300000000007600000000000745000000000075200000000007550000000000735000000000075500017000000000000009100000000000006844400000000000000009999123100000010000000000000BRPTNTACNPR3047
012024091102EALT3       010ACO ALTONA  ON           R$  000000000150200000000015400000000001502000000000152200000000015400000000001502000000000153900005000000000000000500000000000000761200000000000000009999123100000010000000000000BREALTACNOR4138
012024091102EALT4       010ACO ALTONA  PN           R$  000000000151500000000015150000000001470000000000148600000000014700000000001465000000000149400073000000000000013500000000000020065800000000000000009999123100000010000000000000BREALTACNPR1138
012024091102ECOR3       010ECORODOVIAS ON      NM   R$  000000000076200000000007740000000000758000000000076500000000007600000000000760000000000076505724000000000002240700000000001715869100000000000000009999123100000010000000000000BRECORACNOR8120
012024091102EGIE3       010ENGIE BRASILON      NM   R$  000000000444500000000044500000000004407000000000442600000000044230000000004421000000000443303679000000000000859600000000003804920500000000000000009999123100000010000000000000BREGIEACNOR9127
012024091102BIOM3       010BIOMM       ON      MA   R$  000000000100200000000010300000000000970000000000100500000000009960000000000995000000000100000722000000000000175600000000000176593400000000000000009999123100000010000000000000BRBIOMACNOR2112
012024091102BLAU3       010BLAU        ON      NM   R$  000000000136800000000013930000000001348000000000137300000000013930000000001381000000000139301175000000000000163000000000000223942600000000000000009999123100000010000000000000BRBLAUACNOR8114
012024091102BMEB4       010MERCANTIL   PN      N1   R$  000000000403600000000040700000000004006000000000403800000000040700000000004060000000000407000069000000000000010300000000000041597300000000000000009999123100000010000000000000BRBMEBACNPR5211
012024091102BMGB4       010BANCO BMG   PN      N1   R$  000000000038500000000003870000000000377000000000038200000000003810000000000381000000000038401097000000000000540500000000000206763800000000000000009999123100000010000000000000BRBMGBACNPR0110
012024091102BMIN3       010MERC INVEST ON           R$  000000000195000000000019500000000001950000000000195000000000019500000000001952000000000219800001000000000000000100000000000000195000000000000000009999123100000010000000000000BRBMINACNOR4170
012024091102BMKS3       010BIC MONARK  ON           R$  000000003349900000000335000000000032500000000003341500000000334000000000032103000000003340000005000000000000000013000000000000434398000000000000009999123100000010000000000000BRBMKSACNOR9166
012024091102BMOB3       010BEMOBI TECH ON      NM   R$  000000000150900000000015220000000001497000000000150800000000015170000000001500000000000151701038000000000000147700000000000222808500000000000000009999123100000010000000000000BRBMOBACNOR7103
012024091102BOBR4       010BOMBRIL     PN           R$  000000000022400000000002300000000000223000000000022600000000002250000000000225000000000022700093000000000000039500000000000008958600000000000000009999123100000010000000000000BRBOBRACNPR3128
012024091102WEST3       010WESTWING    ON      NM   R$  000000000008500000000000860000000000084000000000008400000000000860000000000085000000000008600029000000000000019600000000000001664600000000000000009999123100000010000000000000BRWESTACNOR3100
012024091102WHRL3       010WHIRLPOOL   ON           R$  000000000044200000000004780000000000442000000000046800000000004750000000000468000000000047500065000000000000034300000000000016055000000000000000009999123100000010000000000000BRWHRLACNOR5128
012024091102VLID3       010VALID       ON      NM   R$  000000000229800000000023600000000002279000000000232400000000023600000000002351000000000236002522000000000000557100000000001295202700000000000000009999123100000010000000000000BRVLIDACNOR5144
012024091102VSTE3       010VESTE       ON      NM   R$  000000000127100000000012960000000001271000000000128400000000012850000000001285000000000129900006000000000000000600000000000000770900000000000000009999123100000010000000000000BRVSTEACNOR5103
012024091102BPAN4       010BANCO PAN   PN      N1   R$  000000000107800000000010870000000001050000000000105800000000010500000000001050000000000105505477000000000002780900000000002943323000000000000000009999123100000010000000000000BRBPANACNPR1115
012024091102BRAP3       010BRADESPAR   ON      N1   R$  000000000175900000000017800000000001758000000000176800000000017740000000001774000000000178200637000000000000092800000000000164156700000000000000009999123100000010000000000000BRBRAPACNOR5148
012024091102BRAP4       010BRADESPAR   PN      N1   R$  000000000184700000000018810000000001846000000000187100000000018720000000001871000000000187207583000000000002731800000000005112948100000000000000009999123100000010000000000000BRBRAPACNPR2148
012024091102VTRU3       010VITRUEDUCA  ON      NM   R$  000000000099200000000010140000000000980000000000099200000000009910000000000991000000000099200506000000000000184800000000000183487300000000000000009999123100000010000000000000BRVTRUACNOR3100
012024091102VULC3       010VULCABRAS   ON      NM   R$  000000000180400000000018120000000001784000000000179500000000017950000000001795000000000179601211000000000000251300000000000451275100000000000000009999123100000010000000000000BRVULCACNOR2161
012024091102VVEO3       010VIVEO       ON      NM   R$  000000000019400000000002160000000000194000000000020700000000002140000000000214000000000021503111000000000003168200000000000657272700000000000000009999123100000010000000000000BRVVEOACNOR0104
012024091102WHRL4       010WHIRLPOOL   PN           R$  000000000047100000000004950000000000471000000000048600000000004870000000000486000000000048800159000000000000102100000000000049679200000000000000009999123100000010000000000000BRWHRLACNPR2128
012024091102WIZC3       010WIZ CO      ON      NM   R$  000000000060000000000006070000000000595000000000060100000000006010000000000601000000000060401031000000000000291400000000000175354200000000000000009999123100000010000000000000BRWIZCACNOR5102
012024091102WLMM4       010WLM IND COM PN           R$  000000000308400000000030870000000003084000000000308600000000030870000000002968000000000308800003000000000000000300000000000000925800000000000000009999123100000010000000000000BRWLMMACNPR3119
012024091102B3SA3       010B3          ON      NM   R$  000000000121900000000012250000000001184000000000120400000000012130000000001213000000000121445836000000000062897400000000075740977000000000000000009999123100000010000000000000BRB3SAACNOR6133
012024091102BPAC11      010BTGP BANCO  UNT     N2   R$  000000000352100000000035410000000003442000000000347300000000034610000000003461000000000346219744000000000006304400000000021898181700000000000000009999123100000010000000000000BRBPACUNT006119
012024091102BPAC3       010BTGP BANCO  ON      N2   R$  000000000159000000000015900000000001582000000000158900000000015820000000001571000000000161000009000000000000003400000000000005403100000000000000009999123100000010000000000000BRBPACACNOR7134
012024091102BPAC5       010BTGP BANCO  PNA     N2   R$  000000000094100000000009410000000000929000000000093500000000009300000000000919000000000093900006000000000000000700000000000000654600000000000000009999123100000010000000000000BRBPACACNPA0134
012024091102CMIN3       010CSNMINERACAOON      N2   R$  000000000059600000000006160000000000596000000000060700000000006110000000000610000000000061110063000000000017737400000000010775995400000000000000009999123100000010000000000000BRCMINACNOR2111
012024091102COCE5       010COELCE      PNA          R$  000000000298400000000029890000000002927000000000295300000000029450000000002945000000000299700148000000000000019600000000000057890900000000000000009999123100000010000000000000BRCOCEACNPA3147
012024091102COGN3       010COGNA ON    ON      NM   R$  000000000013500000000001440000000000133000000000013900000000001430000000000143000000000014412914000000000050546000000000007042870800000000000000009999123100000010000000000000BRCOGNACNOR2105
012024091102CXSE3       010CAIXA SEGURION      NM   R$  000000000155500000000015560000000001509000000000151700000000015120000000001511000000000151410712000000000003628000000000005506920500000000000000009999123100000010000000000000BRCXSEACNOR7107
012024091102AERI3       010AERIS       ON      NM   R$  000000000086400000000008770000000000836000000000085300000000008530000000000853000000000085900644000000000000241500000000000206189800000000000000009999123100000010000000000000BRAERIACNOR4102
012024091102AESB3       010AES BRASIL  ON      NM   R$  000000000115200000000011600000000001151000000000115500000000011570000000001156000000000115803741000000000008679500000000010033216200000000000000009999123100000010000000000000BRAESBACNOR7107
012024091102AGRO3       010BRASILAGRO  ON      NM   R$  000000000265000000000026560000000002607000000000262700000000026290000000002627000000000263001047000000000000140700000000000369754200000000000000009999123100000010000000000000BRAGROACNOR7114
012024091102AGXY3       010AGROGALAXY  ON      NM   R$  000000000011300000000001150000000000110000000000011200000000001130000000000112000000000011300220000000000000185000000000000020840400000000000000009999123100000010000000000000BRAGXYACNOR4103
012024091102PINE4       010PINE        PN      N2   R$  000000000047700000000004890000000000473000000000047800000000004880000000000483000000000048800297000000000000125900000000000060255000000000000000009999123100000010000000000000BRPINEACNPR8150
012024091102PLPL3       010PLANOEPLANO ON      NM   R$  000000000121300000000012450000000001213000000000122900000000012260000000001220000000000122602102000000000000522900000000000642695900000000000000009999123100000010000000000000BRPLPLACNOR5104
012024091102PNVL3       010DIMED       ON      NM   R$  000000000100700000000010190000000000993000000000100100000000010000000000000998000000000100100901000000000000155100000000000155363300000000000000009999123100000010000000000000BRPNVLACNOR9207
012024091102POMO3       010MARCOPOLO   ON      N2   R$  000000000060500000000006070000000000598000000000060100000000006030000000000599000000000060300265000000000000057100000000000034348400000000000000009999123100000010000000000000BRPOMOACNOR0099
012024091102POMO4       010MARCOPOLO   PN      N2   R$  000000000078000000000007890000000000771000000000077800000000007780000000000776000000000077813489000000000006102400000000004748828000000000000000009999123100000010000000000000BRPOMOACNPR7099
012024091102PORT3       010WILSON SONS ON      NM   R$  000000000170400000000017040000000001687000000000169400000000016930000000001693000000000169501878000000000000620900000000001052380400000000000000009999123100000010000000000000BRPORTACNOR8109
012024091102POSI3       010POSITIVO TECON      NM   R$  000000000060000000000006100000000000595000000000060200000000006020000000000601000000000060403220000000000001646500000000000992255500000000000000009999123100000010000000000000BRPOSIACNOR9116
012024091102ALLD3       010ALLIED      ON      NM   R$  000000000077800000000007960000000000725000000000074900000000007700000000000760000000000077000713000000000000254300000000000190555600000000000000009999123100000010000000000000BRALLDACNOR3106
012024091102ALOS3       010ALLOS       ON      NM   R$  000000000228300000000023030000000002259000000000228600000000022980000000002290000000000229811425000000000005391100000000012327051100000000000000009999123100000010000000000000BRALOSACNOR5101
012024091102ALPA3       010ALPARGATAS  ON      N1   R$  000000000073200000000007400000000000720000000000072800000000007200000000000720000000000074700022000000000000009700000000000007064800000000000000009999123100000010000000000000BRALPAACNOR0231
012024091102ALPA4       010ALPARGATAS  PN      N1   R$  000000000072000000000007440000000000719000000000073000000000007350000000000734000000000073606084000000000002914000000000002128020400000000000000009999123100000010000000000000BRALPAACNPR7232
012024091102BRBI11      010BR PARTNERS UNT     N2   R$  000000000155000000000015590000000001527000000000154200000000015500000000001550000000000155301659000000000000358300000000000552668000000000000000009999123100000010000000000000BRBRBICDAM10110
012024091102BRFS3       010BRF SA      ON      NM   R$  000000000245400000000024610000000002397000000000241400000000023970000000002397000000000240415131000000000005531100000000013355143000000000000000009999123100000010000000000000BRBRFSACNOR8122
012024091102ELMD3       010ELETROMIDIA ON      NM   R$  000000000176300000000017830000000001749000000000177100000000017720000000001758000000000177300332000000000000045700000000000080955700000000000000009999123100000010000000000000BRELMDACNOR3101
012024091102EMAE4       010EMAE        PN           R$  000000000408300000000040890000000004000000000000404200000000040000000000003995000000000410000007000000000000001000000000000004042900000000000000009999123100000010000000000000BREMAEACNPR1125
012024091102EMBR3       010EMBRAER     ON      NM   R$  000000000487500000000049800000000004786000000000490000000000049800000000004979000000000498027286000000000006782800000000033238936700000000000000009999123100000010000000000000BREMBRACNOR4191
012024091102RSUL4       010RIOSULENSE  PN           R$  000000000647000000000069180000000006400000000000652300000000065880000000006301000000000658900039000000000000004900000000000031966000000000000000009999123100000010000000000000BRRSULACNPR3114
012024091102IFCM3       010INFRACOMM   ON      NM   R$  000000000001600000000000160000000000015000000000001500000000000150000000000015000000000001600938000000000005408900000000000085514500000000000000009999123100000010000000000000BRIFCMACNOR8101
012024091102IGTI11      010IGUATEMI S.AUNT     N1   R$  000000000217800000000022190000000002178000000000219700000000021950000000002190000000000219507095000000000001609400000000003536291400000000000000009999123100000010000000000000BRIGTICDAM16106
012024091102IGTI3       010IGUATEMI S.AON      N1   R$  000000000026800000000002690000000000267000000000026800000000002690000000000268000000000026900013000000000000012500000000000003351700000000000000009999123100000010000000000000BRIGTIACNOR8106
012024091102JHSF3       010JHSF PART   ON      NM   R$  000000000045500000000004550000000000450000000000045200000000004540000000000452000000000045402315000000000002130000000000000963867200000000000000009999123100000010000000000000BRJHSFACNOR2139
012024091102JSLG3       010JSL         ON      NM   R$  000000000095900000000009820000000000954000000000096700000000009820000000000966000000000098201689000000000000304100000000000294352600000000000000009999123100000010000000000000BRJSLGACNOR2121
012024091102KEPL3       010KEPLER WEBERON      NM   R$  000000000109600000000011180000000001096000000000110900000000011120000000001111000000000111801768000000000000440900000000000489272500000000000000009999123100000010000000000000BRKEPLACNOR1064
012024091102KLBN11      010KLABIN S/A  UNT     N2   R$  000000000219800000000022110000000002167000000000219600000000021940000000002193000000000219415839000000000006043800000000013273840400000000000000009999123100000010000000000000BRKLBNCDAM18143
012024091102KLBN3       010KLABIN S/A  ON      N2   R$  000000000044500000000004450000000000436000000000044000000000004410000000000441000000000044200478000000000000140500000000000061919700000000000000009999123100000010000000000000BRKLBNACNOR2171
012024091102KLBN4       010KLABIN S/A  PN      N2   R$  000000000043900000000004410000000000433000000000043800000000004370000000000437000000000043801322000000000000703900000000000308373600000000000000009999123100000010000000000000BRKLBNACNPR9171
012024091102MYPK3       010IOCHP-MAXIONON      NM   R$  000000000113200000000011410000000001109000000000112100000000011260000000001125000000000112704764000000000001056800000000001185664200000000000000009999123100000010000000000000BRMYPKACNOR7155
012024091102NEOE3       010NEOENERGIA  ON      NM   R$  000000000196500000000019700000000001942000000000195700000000019550000000001955000000000195804181000000000000879400000000001721031400000000000000009999123100000010000000000000BRNEOEACNOR3123
012024091102NTCO3       010GRUPO NATURAON      NM   R$  000000000135500000000014040000000001355000000000139000000000013960000000001395000000000139610080000000000005942200000000008264396200000000000000009999123100000010000000000000BRNTCOACNOR5106
012024091102PATI3       010PANATLANTICAON  ED       R$  000000000261200000000026120000000002612000000000261200000000026120000000002350000000000261200004000000000000000400000000000001044800000000000000009999123100000010000000000000BRPATIACNOR6066
012024091102PCAR3       010P.ACUCAR-CBDON      NM   R$  000000000029800000000003090000000000293000000000030100000000003090000000000307000000000030906492000000000008163000000000002459445200000000000000009999123100000010000000000000BRPCARACNOR3167
012024091102PDGR3       010PDG REALT   ON      NM   R$  000000000001600000000000160000000000015000000000001500000000000160000000000015000000000001600274000000000001634100000000000024743100000000000000009999123100000010000000000000BRPDGRACNOR8119
012024091102PDTC3       010PADTEC      ON      NM   R$  000000000019000000000001910000000000186000000000018700000000001870000000000186000000000018700054000000000000023000000000000004308200000000000000009999123100000010000000000000BRPDTCACNOR3101
012024091102SEER3       010SER EDUCA   ON      NM   R$  000000000059000000000006120000000000586000000000059700000000006110000000000608000000000061101107000000000000550800000000000329124900000000000000009999123100000010000000000000BRSEERACNOR5119
012024091102SEQL3       010SEQUOIA LOG ON      NM   R$  000000000055500000000005630000000000534000000000054800000000005630000000000555000000000056401004000000000000382700000000000209825600000000000000009999123100000010000000000000BRSEQLACNOR2103
012024091102VALE3       010VALE        ON      NM   R$  000000000567400000000057650000000005671000000000573200000000057590000000005759000000000576047151000000000025592400000000146704057300000000000000009999123100000010000000000000BRVALEACNOR0211
012024091102CRPG5       010CRISTAL     PNA          R$  000000000283400000000028510000000002825000000000283500000000028510000000002825000000000290000015000000000000002500000000000007089300000000000000009999123100000010000000000000BRCRPGACNPA3119
012024091102CRPG6       010CRISTAL     PNB          R$  000000000280100000000028010000000002801000000000280100000000028010000000002801000000000284900002000000000000001000000000000002801000000000000000009999123100000010000000000000BRCRPGACNPB1119
012024091102HYPE3       010HYPERA      ON      NM   R$  000000000282500000000029250000000002823000000000288400000000029250000000002912000000000292512580000000000003269700000000009431075400000000000000009999123100000010000000000000BRHYPEACNOR0143
012024091102MNPR3       010MINUPAR     ON           R$  000000000160900000000016100000000001609000000000160900000000016100000000001550000000000161000003000000000000000300000000000000482900000000000000009999123100000010000000000000BRMNPRACNOR5122
012024091102MOVI3       010MOVIDA      ON      NM   R$  000000000069100000000007060000000000688000000000069400000000006950000000000695000000000070005339000000000002351500000000001633884300000000000000009999123100000010000000000000BRMOVIACNOR0122
012024091102MRFG3       010MARFRIG     ON      NM   R$  000000000145000000000014500000000001417000000000142700000000014340000000001429000000000143409927000000000003174400000000004532829700000000000000009999123100000010000000000000BRMRFGACNOR0116
012024091102MRSA3B      010MRS LOGIST  ON      MB   R$  000000000290100000000029050000000002850000000000289000000000028500000000002900000000000298000006000000000000000900000000000002601100000000000000009999123100000010000000000000BRMRSAACNOR6125
012024091102MRSA6B      010MRS LOGIST  PNB     MB   R$  000000000285100000000028510000000002851000000000285100000000028510000000002850000000000000000001000000000000000300000000000000855300000000000000009999123100000010000000000000BRMRSAACNPB7125
012024091102MRVE3       010MRV         ON      NM   R$  000000000078000000000007890000000000769000000000078000000000007830000000000782000000000078313987000000000012744400000000009944334900000000000000009999123100000010000000000000BRMRVEACNOR2127
012024091102RCSL3       010RECRUSUL    ON           R$  000000000076000000000008250000000000743000000000078400000000007800000000000779000000000078005656000000000002014800000000001581585800000000000000009999123100000010000000000000BRRCSLACNOR4134
012024091102RCSL4       010RECRUSUL    PN           R$  000000000010800000000001110000000000108000000000010900000000001090000000000108000000000010900235000000000000359900000000000039345200000000000000009999123100000010000000000000BRRCSLACNPR1134
012024091102RDNI3       010RNI         ON      NM   R$  000000000031500000000003210000000000310000000000031000000000003100000000000310000000000031700022000000000000170300000000000052803400000000000000009999123100000010000000000000BRRDNIACNOR9116
012024091102RDOR3       010REDE D OR   ON      NM   R$  000000000336200000000033810000000003327000000000335800000000033620000000003361000000000336510830000000000004122800000000013845141200000000000000009999123100000010000000000000BRRDORACNOR8113
012024091102RECV3       010PETRORECSA  ON      NM   R$  000000000189900000000019230000000001875000000000189500000000018830000000001883000000000188809207000000000002152500000000004079682800000000000000009999123100000010000000000000BRRECVACNOR3107
012024091102REDE3       010REDE ENERGIAON           R$  000000000069300000000006980000000000685000000000069200000000006940000000000689000000000069500018000000000000003600000000000002491200000000000000009999123100000010000000000000BRREDEACNOR7128
012024091102RENT3       010LOCALIZA    ON      NM   R$  000000000426500000000042780000000004166000000000422300000000042360000000004236000000000423819133000000000006451600000000027247046300000000000000009999123100000010000000000000BRRENTACNOR4196
012024091102TASA3       010TAURUS ARMASON      N2   R$  000000000112100000000011410000000001121000000000113400000000011330000000001130000000000113300046000000000000009100000000000010320100000000000000009999123100000010000000000000BRTASAACNOR7104
012024091102TASA4       010TAURUS ARMASPN      N2   R$  000000000111800000000011360000000001113000000000113000000000011350000000001130000000000113501179000000000000293800000000000332070300000000000000009999123100000010000000000000BRTASAACNPR4104
012024091102TCSA3       010TECNISA     ON      NM   R$  000000000018900000000001950000000000189000000000019200000000001950000000000191000000000019300079000000000000044900000000000008656500000000000000009999123100000010000000000000BRTCSAACNOR3112
012024091102TECN3       010TECHNOS     ON      NM   R$  000000000051500000000005150000000000500000000000050500000000005000000000000500000000000050200127000000000000058800000000000029735000000000000000009999123100000010000000000000BRTECNACNOR6109
012024091102TELB3       010TELEBRAS    ON           R$  000000000141000000000014100000000001400000000000140700000000014000000000001385000000000140000003000000000000000400000000000000562900000000000000009999123100000010000000000000BRTELBACNOR2140
012024091102TELB4       010TELEBRAS    PN           R$  000000000092700000000009470000000000905000000000091900000000009390000000000924000000000094000038000000000000010800000000000009925300000000000000009999123100000010000000000000BRTELBACNPR9140
012024091102TEND3       010TENDA       ON      NM   R$  000000000129700000000013100000000001272000000000128800000000012950000000001295000000000129604333000000000001421600000000001831686700000000000000009999123100000010000000000000BRTENDACNOR4111
012024091102TFCO4       010TRACK FIELD PN      N2   R$  000000000116200000000011760000000001152000000000117100000000011750000000001175000000000117800374000000000000100800000000000118095500000000000000009999123100000010000000000000BRTFCOACNPR8114
012024091102NORD3       010NORDON MET  ON           R$  000000000097000000000012940000000000910000000000117500000000012930000000000935000000000129300017000000000000002000000000000002351900000000000000009999123100000010000000000000BRNORDACNOR7135
012024091102NINJ3       010GETNINJAS   ON      NM   R$  000000000047500000000004750000000000466000000000046800000000004700000000000466000000000047500020000000000000004500000000000002109900000000000000009999123100000010000000000000BRNINJACNOR5101
012024091102NGRD3       010NEOGRID     ON      NM   R$  000000000011200000000001180000000000111000000000011500000000001170000000000115000000000011700856000000000000523100000000000060322000000000000000009999123100000010000000000000BRNGRDACNOR3104
012024091102TGMA3       010TEGMA       ON      NM   R$  000000000277500000000027960000000002742000000000276100000000027650000000002765000000000277700641000000000000153700000000000424467500000000000000009999123100000010000000000000BRTGMAACNOR7145
012024091102TIMS3       010TIM         ON      NM   R$  000000000181900000000018450000000001819000000000183400000000018380000000001837000000000184007432000000000003164100000000005803027500000000000000009999123100000010000000000000BRTIMSACNOR5117
012024091102TOTS3       010TOTVS       ON      NM   R$  000000000292900000000029650000000002925000000000294200000000029380000000002938000000000294906928000000000001560100000000004590479000000000000000009999123100000010000000000000BRTOTSACNOR8145
012024091102TPIS3       010TRIUNFO PARTON      NM   R$  000000000052000000000005200000000000501000000000050900000000005110000000000511000000000051300092000000000000025900000000000013190500000000000000009999123100000010000000000000BRTPISACNOR8118
012024091102TRAD3       010TC          ON      NM   R$  000000000028800000000002950000000000275000000000027900000000002880000000000278000000000028800173000000000000106200000000000029647500000000000000009999123100000010000000000000BRTRADACNOR3102
012024091102QUAL3       010QUALICORP   ON      NM   R$  000000000021000000000002120000000000203000000000020700000000002090000000000207000000000020902587000000000002937200000000000609207100000000000000009999123100000010000000000000BRQUALACNOR6120
012024091102SMFT3       010SMART FIT   ON      NM   R$  000000000228200000000023080000000002254000000000227500000000022800000000002275000000000228307826000000000002086300000000004746781800000000000000009999123100000010000000000000BRSMFTACNOR1112
012024091102SMTO3       010SAO MARTINHOON      NM   R$  000000000259800000000025980000000002565000000000257700000000025790000000002575000000000257904331000000000000700200000000001804631800000000000000009999123100000010000000000000BRSMTOACNOR3127
012024091102TRIS3       010TRISUL      ON      NM   R$  000000000046700000000004680000000000461000000000046400000000004640000000000464000000000046500394000000000000173400000000000080511300000000000000009999123100000010000000000000BRTRISACNOR4118
012024091102TRPL3       010TRAN PAULISTON      N1   R$  000000000320500000000032050000000003178000000000318700000000031810000000003180000000000319900022000000000000002700000000000008606800000000000000009999123100000010000000000000BRTRPLACNOR4185
012024091102TRPL4       010TRAN PAULISTPN      N1   R$  000000000247300000000024850000000002464000000000247300000000024750000000002472000000000247507685000000000001623800000000004015750400000000000000009999123100000010000000000000BRTRPLACNPR1185
012024091102VITT3       010VITTIA      ON      NM   R$  000000000061700000000006270000000000613000000000062200000000006240000000000619000000000062400758000000000000154100000000000095875700000000000000009999123100000010000000000000BRVITTACNOR4107
012024091102VIVA3       010VIVARA S.A. ON      NM   R$  000000000282400000000028440000000002774000000000281100000000028220000000002820000000000282407193000000000001650900000000004642247800000000000000009999123100000010000000000000BRVIVAACNOR0107
012024091102VIVR3       010VIVER       ON      NM   R$  000000000021200000000002130000000000207000000000021000000000002100000000000209000000000021200057000000000000085800000000000018069100000000000000009999123100000010000000000000BRVIVRACNOR4123
012024091102VIVT3       010TELEF BRASILON           R$  000000000542500000000055030000000005422000000000546100000000054640000000005464000000000546713262000000000002140100000000011687884700000000000000009999123100000010000000000000BRVIVTACNOR0184
012024091102MILS3       010MILLS       ON      NM   R$  000000000110200000000011240000000001102000000000111200000000011130000000001107000000000111301429000000000000434500000000000483221700000000000000009999123100000010000000000000BRMILSACNOR2128
012024091102MLAS3       010MULTILASER  ON      NM   R$  000000000018100000000001830000000000177000000000017800000000001790000000000179000000000018002583000000000003178700000000000568837300000000000000009999123100000010000000000000BRMLASACNOR9101
012024091102RAIZ4       010RAIZEN      PN      N2   R$  000000000029500000000003000000000000294000000000029700000000002990000000000298000000000029907548000000000011743600000000003491535800000000000000009999123100000010000000000000BRRAIZACNPR6111
012024091102RANI3       010IRANI       ON      NM   R$  000000000077400000000007740000000000760000000000076400000000007640000000000764000000000076503208000000000000947200000000000723767800000000000000009999123100000010000000000000BRRANIACNOR5073
012024091102RAPT3       010RANDON PART ON      N1   R$  000000000087100000000008830000000000867000000000087300000000008830000000000870000000000088301269000000000000215400000000000188152300000000000000009999123100000010000000000000BRRAPTACNOR7163
012024091102RAPT4       010RANDON PART PN      N1   R$  000000000108100000000010950000000001076000000000108800000000010880000000001087000000000109004916000000000001608200000000001751189300000000000000009999123100000010000000000000BRRAPTACNPR4163
012024091102SYNE3       010SYN PROP TECON      NM   R$  000000000079300000000007930000000000784000000000078800000000007850000000000784000000000078501754000000000000691100000000000544799700000000000000009999123100000010000000000000BRSYNEACNOR2103
012024091102TAEE11      010TAESA       UNT     N2   R$  000000000356100000000035810000000003521000000000353400000000035300000000003530000000000353108465000000000001501800000000005308260500000000000000009999123100000010000000000000BRTAEECDAM10148
012024091102TAEE3       010TAESA       ON      N2   R$  000000000117700000000011830000000001166000000000117200000000011660000000001166000000000117000425000000000000066600000000000078105200000000000000009999123100000010000000000000BRTAEEACNOR9148
012024091102DASA3       010DASA        ON      NM   R$  000000000030500000000003050000000000293000000000029900000000003010000000000301000000000030501527000000000000475800000000000142456100000000000000009999123100000010000000000000BRDASAACNOR1122
012024091102DESK3       010DESKTOP     ON      NM   R$  000000000150800000000015350000000001508000000000152800000000015350000000001524000000000153500830000000000000206500000000000315720700000000000000009999123100000010000000000000BRDESKACNOR2104
012024091102DEXP3       010DEXXOS PAR  ON      N1   R$  000000000092700000000009290000000000913000000000092000000000009290000000000924000000000092900160000000000000029400000000000027076100000000000000009999123100000010000000000000BRDEXPACNOR1105
012024091102DEXP4       010DEXXOS PAR  PN      N1   R$  000000000091500000000009210000000000903000000000091600000000009210000000000907000000000092400030000000000000009000000000000008252300000000000000009999123100000010000000000000BRDEXPACNPR8105
012024091102SHOW3       010TIME FOR FUNON      NM   R$  000000000009500000000000950000000000091000000000009300000000000930000000000093000000000009400269000000000000193300000000000018041900000000000000009999123100000010000000000000BRSHOWACNOR7105
012024091102SHUL4       010SCHULZ      PN           R$  000000000065700000000006630000000000647000000000065600000000006550000000000655000000000066101221000000000000281600000000000184837400000000000000009999123100000010000000000000BRSHULACNPR4156
012024091102SIMH3       010SIMPAR      ON      NM   R$  000000000059500000000006040000000000586000000000059700000000005950000000000595000000000059704113000000000001970300000000001176528000000000000000009999123100000010000000000000BRSIMHACNOR0107
012024091102SLCE3       010SLC AGRICOLAON      NM   R$  000000000172700000000017280000000001713000000000171700000000017200000000001719000000000172104089000000000002553800000000004386601500000000000000009999123100000010000000000000BRSLCEACNOR2125
012024091102BGIP4       010BANESE      PN  ES       R$  000000000265000000000026980000000002600000000000264300000000026000000000002600000000000262800008000000000000000900000000000002378800000000000000009999123100000010000000000000BRBGIPACNPR8210
012024091102BHIA3       010CASAS BAHIA ON      NM   R$  000000000061500000000006210000000000586000000000060000000000005970000000000596000000000059703262000000000003067300000000001843419600000000000000009999123100000010000000000000BRBHIAACNOR1102
012024091102LUPA3       010LUPATECH    ON      NM   R$  000000000014700000000001480000000000144000000000014500000000001480000000000146000000000014800054000000000000018500000000000002697300000000000000009999123100000010000000000000BRLUPAACNOR8112
012024091102LUXM4       010TREVISA     PN           R$  000000000134600000000013460000000001346000000000134600000000013460000000001202000000000134600001000000000000000200000000000000269200000000000000009999123100000010000000000000BRLUXMACNPR4052
012024091102LVTC3       010WDC NETWORKSON      NM   R$  000000000038100000000004100000000000380000000000039100000000004090000000000400000000000040900067000000000000029700000000000011623300000000000000009999123100000010000000000000BRLVTCACNOR4102
012024091102LWSA3       010LWSA        ON      NM   R$  000000000043900000000004480000000000436000000000044100000000004420000000000441000000000044305594000000000003736500000000001650838200000000000000009999123100000010000000000000BRLWSAACNOR8103
012024091102ALPK3       010ESTAPAR     ON      NM   R$  000000000032500000000003270000000000317000000000032100000000003250000000000322000000000032500211000000000000083800000000000026913100000000000000009999123100000010000000000000BRALPKACNOR9101
012024091102ALUP11      010ALUPAR      UNT     N2   R$  000000000314900000000031530000000003116000000000312700000000031200000000003120000000000313103725000000000000555800000000001738137100000000000000009999123100000010000000000000BRALUPCDAM15120
012024091102ALUP3       010ALUPAR      ON      N2   R$  000000000107200000000010720000000001065000000000106600000000010670000000001066000000000107200015000000000000002700000000000002880500000000000000009999123100000010000000000000BRALUPACNOR8120
012024091102ALUP4       010ALUPAR      PN      N2   R$  000000000102800000000010390000000001028000000000103100000000010300000000001028000000000103100039000000000000005900000000000006088600000000000000009999123100000010000000000000BRALUPACNPR5120
012024091102AMAR3       010LOJAS MARISAON      NM   R$  000000000010400000000001070000000000104000000000010500000000001070000000000106000000000010700451000000000000246800000000000025984700000000000000009999123100000010000000000000BRAMARACNOR4115
012024091102AMBP3       010AMBIPAR     ON      NM   R$  000000000690100000000071910000000006440000000000681200000000067700000000006770000000000678101302000000000000246400000000001678504400000000000000009999123100000010000000000000BRAMBPACNOR6103
012024091102ANIM3       010ANIMA       ON      NM   R$  000000000032100000000003320000000000314000000000032300000000003280000000000328000000000033003218000000000004051500000000001309853900000000000000009999123100000010000000000000BRANIMACNOR6109
012024091102ARML3       010ARMAC       ON      NM   R$  000000000087600000000009000000000000875000000000089000000000008960000000000894000000000089602449000000000000604700000000000538513600000000000000009999123100000010000000000000BRARMLACNOR1112
012024091102ASAI3       010ASSAI       ON      NM   R$  000000000089500000000009250000000000888000000000090800000000009160000000000916000000000091820173000000000018079800000000016428953300000000000000009999123100000010000000000000BRASAIACNOR0106
012024091102BRIT3       010BRISANET    ON      NM   R$  000000000032100000000003450000000000320000000000033400000000003450000000000340000000000034501745000000000000467500000000000156586000000000000000009999123100000010000000000000BRBRITACNOR0103
012024091102BRKM3       010BRASKEM     ON      N1   R$  000000000177700000000018260000000001777000000000180600000000018050000000001800000000000181400071000000000000011200000000000020237000000000000000009999123100000010000000000000BRBRKMACNOR1119
012024091102BRKM5       010BRASKEM     PNA     N1   R$  000000000178000000000018200000000001760000000000179500000000018070000000001807000000000181006194000000000002278700000000004091058500000000000000009999123100000010000000000000BRBRKMACNPA4121
012024091102BRSR3       010BANRISUL    ON      N1   R$  000000000136800000000013680000000001343000000000135100000000013480000000001348000000000136000057000000000000014200000000000019196600000000000000009999123100000010000000000000BRBRSRACNOR3188
012024091102BRSR6       010BANRISUL    PNB     N1   R$  000000000126600000000012780000000001262000000000127000000000012680000000001268000000000127302307000000000000695200000000000883197200000000000000009999123100000010000000000000BRBRSRACNPB4191
012024091102ENEV3       010ENEVA       ON      NM   R$  000000000137400000000013990000000001371000000000138800000000013900000000001390000000000139315817000000000008914400000000012374764500000000000000009999123100000010000000000000BRENEVACNOR8106
012024091102ENGI11      010ENERGISA    UNT     N2   R$  000000000476200000000048240000000004757000000000478200000000047610000000004760000000000478406247000000000001173900000000005613674800000000000000009999123100000010000000000000BRENGICDAM16136
012024091102ENGI3       010ENERGISA    ON      N2   R$  000000000139200000000014350000000001387000000000140800000000014100000000001386000000000143500026000000000000003300000000000004648100000000000000009999123100000010000000000000BRENGIACNOR0146
012024091102ENGI4       010ENERGISA    PN      N2   R$  000000000084500000000008450000000000836000000000084200000000008360000000000836000000000083900016000000000000003800000000000003201200000000000000009999123100000010000000000000BRENGIACNPR7142
012024091102ENJU3       010ENJOEI      ON      NM   R$  000000000015500000000001560000000000147000000000015000000000001470000000000147000000000014801097000000000000718400000000000107817700000000000000009999123100000010000000000000BRENJUACNOR9100
012024091102ENMT4       010ENERGISA MT PN           R$  000000000775700000000077570000000007757000000000775700000000077570000000005000000000000809900001000000000000000200000000000001551400000000000000009999123100000010000000000000BRENMTACNPR2126
012024091102EPAR3       010EMBPAR S/A  ON           R$  000000000059000000000005900000000000580000000000058200000000005840000000000578000000000058500024000000000000004900000000000002852100000000000000009999123100000010000000000000BREPARACNOR9105
012024091102EQMA3B      010EQTLMARANHAOON      MB   R$  000000000250000000000025000000000002481000000000249800000000024810000000002461000000000249000008000000000000005100000000000012742300000000000000009999123100000010000000000000BREQMAACNOR8108
012024091102EQPA3       010EQTL PARA   ON           R$  000000000060600000000006090000000000598000000000060700000000006050000000000602000000000060800032000000000000012600000000000007654600000000000000009999123100000010000000000000BREQPAACNOR1111
012024091102EQTL3       010EQUATORIAL  ON      NM   R$  000000000344700000000034610000000003412000000000342800000000034300000000003429000000000343022013000000000007195800000000024673654300000000000000009999123100000010000000000000BREQTLACNOR0131
012024091102INEP3       010INEPAR      ON           R$  000000000018400000000001850000000000178000000000018200000000001850000000000179000000000018500123000000000000024700000000000004505900000000000000009999123100000010000000000000BRINEPACNOR1143
012024091102INEP4       010INEPAR      PN           R$  000000000018600000000001900000000000186000000000018600000000001900000000000187000000000019000027000000000000009200000000000001720000000000000000009999123100000010000000000000BRINEPACNPR8143
012024091102INTB3       010INTELBRAS   ON      NM   R$  000000000218400000000022080000000002182000000000219800000000021990000000002198000000000220204428000000000000692300000000001521817900000000000000009999123100000010000000000000BRINTBACNOR9112
012024091102IRBR3       010IRBBRASIL REON      NM   R$  000000000460600000000046120000000004365000000000447800000000045980000000004590000000000459815356000000000003761400000000016846126300000000000000009999123100000010000000000000BRIRBRACNOR4111
012024091102KRSA3       010KORA SAUDE  ON      NM   R$  000000000005700000000000590000000000054000000000005600000000000570000000000057000000000005800213000000000000548400000000000031006100000000000000009999123100000010000000000000BRKRSAACNOR0100
012024091102LAND3       010TERRASANTAPAON      NM   R$  000000000122600000000012860000000001226000000000126000000000012780000000001278000000000129500329000000000000055700000000000070227400000000000000009999123100000010000000000000BRLANDACNOR9103
012024091102LAVV3       010LAVVI       ON      NM   R$  000000000083900000000008570000000000839000000000084600000000008460000000000844000000000084601126000000000000222500000000000188329700000000000000009999123100000010000000000000BRLAVVACNOR4113
012024091102LEVE3       010METAL LEVE  ON      NM   R$  000000000307500000000031030000000003047000000000307500000000030940000000003094000000000309502336000000000000416900000000001282311900000000000000009999123100000010000000000000BRLEVEACNOR2197
012024091102LJQQ3       010QUERO-QUERO ON      NM   R$  000000000041000000000004220000000000407000000000041400000000004130000000000413000000000041403400000000000001779000000000000737709500000000000000009999123100000010000000000000BRLJQQACNOR5104
012024091102LOGG3       010LOG COM PROPON      NM   R$  000000000233800000000023380000000002263000000000228400000000022800000000002280000000000228802857000000000000471800000000001078000200000000000000009999123100000010000000000000BRLOGGACNOR7107
012024091102LOGN3       010LOG-IN      ON      NM   R$  000000000364900000000036490000000003528000000000353500000000035280000000003525000000000352800023000000000000021200000000000074947400000000000000009999123100000010000000000000BRLOGNACNOR3105
012024091102LPSB3       010LOPES BRASILON      NM   R$  000000000019200000000002120000000000189000000000020300000000002120000000000209000000000021200551000000000000616500000000000125427600000000000000009999123100000010000000000000BRLPSBACNOR0114
012024091102LREN3       010LOJAS RENNERON      NM   R$  000000000177900000000018220000000001768000000000180500000000018150000000001810000000000181529951000000000017507100000000031610885100000000000000009999123100000010000000000000BRLRENACNOR1221
012024091102PRIO3       010PETRORIO    ON      NM   R$  000000000424100000000043280000000004220000000000427300000000042530000000004252000000000425936048000000000011371800000000048598855200000000000000009999123100000010000000000000BRPRIOACNOR1107
012024091102SANB11      010SANTANDER BRUNT          R$  000000000310500000000031190000000003073000000000309400000000030950000000003093000000000309607182000000000001929500000000005970679400000000000000009999123100000010000000000000BRSANBCDAM13165
012024091102SANB3       010SANTANDER BRON           R$  000000000149200000000014920000000001467000000000147500000000014700000000001468000000000147700402000000000000068200000000000100606600000000000000009999123100000010000000000000BRSANBACNOR8172
012024091102SANB4       010SANTANDER BRPN           R$  000000000162900000000016340000000001608000000000161700000000016120000000001612000000000161700563000000000000090800000000000146907300000000000000009999123100000010000000000000BRSANBACNPR5172
012024091102SAPR11      010SANEPAR     UNT     N2   R$  000000000323800000000032730000000003175000000000322100000000031750000000003175000000000318208546000000000001776000000000005720748900000000000000009999123100000010000000000000BRSAPRCDAM13118
012024091102SAPR3       010SANEPAR     ON      N2   R$  000000000060800000000006180000000000593000000000060800000000005930000000000592000000000059301183000000000000368400000000000224019100000000000000009999123100000010000000000000BRSAPRACNOR9159
012024091102SAPR4       010SANEPAR     PN      N2   R$  000000000064400000000006610000000000641000000000065000000000006420000000000642000000000064405781000000000002611400000000001698483200000000000000009999123100000010000000000000BRSAPRACNPR6159
012024091102ROMI3       010ROMI        ON      NM   R$  000000000109000000000010920000000001079000000000108600000000010890000000001089000000000109000545000000000000084900000000000092243500000000000000009999123100000010000000000000BRROMIACNOR8195
012024091102TTEN3       0103TENTOS     ON      NM   R$  000000000124300000000012500000000001223000000000124100000000012500000000001245000000000125004504000000000000705200000000000875275300000000000000009999123100000010000000000000BRTTENACNOR0103
012024091102TUPY3       010TUPY        ON      NM   R$  000000000269300000000027170000000002671000000000269700000000027030000000002701000000000271801817000000000000244800000000000660334400000000000000009999123100000010000000000000BRTUPYACNOR1184
012024091102UCAS3       010UNICASA     ON      NM   R$  000000000022200000000002240000000000221000000000022200000000002240000000000221000000000022400068000000000000015500000000000003444100000000000000009999123100000010000000000000BRUCASACNOR1113
012024091102UGPA3       010ULTRAPAR    ON      NM   R$  000000000228800000000023180000000002276000000000229400000000022950000000002295000000000230117545000000000004222100000000009688099600000000000000009999123100000010000000000000BRUGPAACNOR8156
012024091102UNIP3       010UNIPAR      ON           R$  000000000475500000000047580000000004690000000000472000000000046900000000004678000000000473100074000000000000008900000000000042011500000000000000009999123100000010000000000000BRUNIPACNOR7206
012024091102UNIP5       010UNIPAR      PNA          R$  000000000478100000000047810000000004781000000000478100000000047810000000004780000000000499000003000000000000000300000000000001434300000000000000009999123100000010000000000000BRUNIPACNPA0208
012024091102UNIP6       010UNIPAR      PNB          R$  000000000475000000000048010000000004732000000000476100000000047420000000004742000000000475800820000000000000123200000000000586586600000000000000009999123100000010000000000000BRUNIPACNPB8206
012024091102USIM3       010USIMINAS    ON      N1   R$  000000000057700000000005900000000000577000000000058100000000005900000000000589000000000059000654000000000000480200000000000279088200000000000000009999123100000010000000000000BRUSIMACNOR3167
012024091102USIM5       010USIMINAS    PNA     N1   R$  000000000058100000000005960000000000581000000000058800000000005910000000000590000000000059108849000000000011493700000000006760153400000000000000009999123100000010000000000000BRUSIMACNPA6169
012024091102YDUQ3       010YDUQS PART  ON      NM   R$  000000000097400000000010590000000000965000000000102300000000010490000000001046000000000105012170000000000007184900000000007354624500000000000000009999123100000010000000000000BRYDUQACNOR3105
012024091102ATOM3       010ATOMPAR     ON           R$  000000000021500000000002200000000000215000000000021700000000002150000000000215000000000021900021000000000000008000000000000001739500000000000000009999123100000010000000000000BRATOMACNOR1106
012024091102AURE3       010AUREN       ON      NM   R$  000000000112100000000011220000000001100000000000110500000000011060000000001105000000000110708220000000000005125500000000005666730000000000000000009999123100000010000000000000BRAUREACNOR9104
012024091102AVLL3       010ALPHAVILLE  ON      NM   R$  000000000038000000000003800000000000380000000000038000000000003800000000000360000000000038500004000000000000000400000000000000152000000000000000009999123100000010000000000000BRAVLLACNOR5103
012024091102AZEV3       010AZEVEDO     ON           R$  000000000013700000000001380000000000134000000000013600000000001370000000000136000000000013700424000000000000500700000000000068183800000000000000009999123100000010000000000000BRAZEVACNOR0121
012024091102AZEV4       010AZEVEDO     PN           R$  000000000013600000000001380000000000133000000000013500000000001340000000000134000000000013501004000000000002838700000000000384570600000000000000009999123100000010000000000000BRAZEVACNPR7121
012024091102CSED3       010CRUZEIRO EDUON      NM   R$  000000000035200000000003640000000000349000000000035700000000003590000000000359000000000036201104000000000000588600000000000210351500000000000000009999123100000010000000000000BRCSEDACNOR9105
012024091102CSMG3       010COPASA      ON      NM   R$  000000000254700000000025790000000002480000000000252700000000024880000000002487000000000248904984000000000001087200000000002747581000000000000000009999123100000010000000000000BRCSMGACNOR5174
012024091102CSNA3       010SID NACIONALON           R$  000000000114900000000011630000000001130000000000115000000000011590000000001159000000000116009045000000000006008900000000006913989300000000000000009999123100000010000000000000BRCSNAACNOR6261
012024091102ESPA3       010ESPACOLASER ON      NM   R$  000000000010800000000001090000000000107000000000010800000000001090000000000108000000000010900086000000000000100400000000000010871400000000000000009999123100000010000000000000BRESPAACNOR7103
012024091102ESTR4       010ESTRELA     PN           R$  000000000022000000000002700000000000220000000000024700000000002500000000000250000000000026500025000000000000004600000000000001136600000000000000009999123100000010000000000000BRESTRACNPR0144
012024091102ETER3       010ETERNIT     ON      NM   R$  000000000058900000000005900000000000581000000000058600000000005830000000000583000000000058500380000000000000116300000000000068185100000000000000009999123100000010000000000000BRETERACNOR3244
012024091102EUCA4       010EUCATEX     PN      N1   R$  000000000164700000000016540000000001594000000000162300000000016290000000001628000000000163800421000000000000069000000000000111999400000000000000009999123100000010000000000000BREUCAACNPR8044
012024091102ZAMP3       010ZAMP S.A.   ON           R$  000000000030000000000003040000000000296000000000029800000000002970000000000297000000000030001430000000000000311500000000000093042000000000000000009999123100000010000000000000BRZAMPACNOR5101
012024091102EVEN3       010EVEN        ON      NM   R$  000000000066300000000006630000000000644000000000064900000000006540000000000650000000000065401766000000000000357600000000000232284400000000000000009999123100000010000000000000BREVENACNOR8119
012024091102EZTC3       010EZTEC       ON      NM   R$  000000000136800000000013880000000001354000000000136600000000013700000000001368000000000137303042000000000000954100000000001303843300000000000000009999123100000010000000000000BREZTCACNOR0126
012024091102GMAT3       010GRUPO MATEUSON      NM   R$  000000000078800000000008030000000000777000000000079500000000007990000000000796000000000080005692000000000006334700000000005036099700000000000000009999123100000010000000000000BRGMATACNOR7102
012024091102GOAU3       010GERDAU MET  ON      N1   R$  000000000108200000000010970000000001076000000000108800000000010910000000001088000000000109200084000000000000015100000000000016439700000000000000009999123100000010000000000000BRGOAUACNOR1268
012024091102GOAU4       010GERDAU MET  PN      N1   R$  000000000106400000000010820000000001060000000000107000000000010730000000001071000000000107410259000000000005305300000000005678292400000000000000009999123100000010000000000000BRGOAUACNPR8269
012024091102PETR3       010PETROBRAS   ON      N2   R$  000000000410500000000041270000000004047000000000409100000000040970000000004095000000000410018261000000000008315700000000034027629300000000000000009999123100000010000000000000BRPETRACNOR9206
012024091102PETR4       010PETROBRAS   PN      N2   R$  000000000377600000000037830000000003687000000000372900000000037290000000003729000000000373045401000000000032907000000000122718492600000000000000009999123100000010000000000000BRPETRACNPR6214
012024091102BAHI3       010BAHEMA      ON      MA   R$  000000000067900000000006800000000000668000000000067700000000006680000000000668000000000070000009000000000000003300000000000002236500000000000000009999123100000010000000000000BRBAHIACNOR1074
012024091102BALM3       010BAUMER      ON           R$  000000000130000000000013000000000001300000000000130000000000013000000000001025000000000130000001000000000000000100000000000000130000000000000000009999123100000010000000000000BRBALMACNOR5055
012024091102BAZA3       010AMAZONIA    ON           R$  000000000960000000000096070000000009485000000000953800000000096070000000009401000000000966000017000000000000001800000000000017170100000000000000009999123100000010000000000000BRBAZAACNOR0179
012024091102BBAS3       010BRASIL      ON      NM   R$  000000000289000000000028980000000002867000000000287700000000028710000000002871000000000287428004000000000010000400000000028772535700000000000000009999123100000010000000000000BRBBASACNOR3325
012024091102MTRE3       010MITRE REALTYON      NM   R$  000000000036700000000003750000000000367000000000037000000000003750000000000373000000000037500791000000000000310900000000000115312900000000000000009999123100000010000000000000BRMTREACNOR6114
012024091102MTSA4       010METISA      PN           R$  000000000418200000000041830000000004050000000000410800000000040890000000004041000000000418400075000000000000009500000000000039028200000000000000009999123100000010000000000000BRMTSAACNPR9072
012024091102MULT3       010MULTIPLAN   ON      N2   R$  000000000263800000000026880000000002638000000000267200000000026860000000002680000000000268617544000000000005120600000000013686132500000000000000009999123100000010000000000000BRMULTACNOR5139
012024091102MWET4       010WETZEL S/A  PN           R$  000000000085700000000008570000000000857000000000085700000000008570000000000857000000000091700001000000000000000100000000000000085700000000000000009999123100000010000000000000BRMWETACNPR3118
012024091102ODPV3       010ODONTOPREV  ON      NM   R$  000000000118500000000012030000000001160000000000117900000000011770000000001173000000000117703782000000000000911700000000001074962000000000000000009999123100000010000000000000BRODPVACNOR4203
012024091102OFSA3       010OUROFINO S/AON      NM   R$  000000000217800000000021800000000002170000000000217400000000021750000000002111000000000217500013000000000000005300000000000011526600000000000000009999123100000010000000000000BROFSAACNOR7118
012024091102ONCO3       010ONCOCLINICASON      NM   R$  000000000054300000000005950000000000543000000000057400000000005930000000000591000000000059305882000000000005041100000000002895396400000000000000009999123100000010000000000000BRONCOACNOR6101
012024091102OPCT3       010OCEANPACT   ON      NM   R$  000000000066000000000006790000000000660000000000066900000000006790000000000672000000000067901357000000000000295100000000000197663800000000000000009999123100000010000000000000BROPCTACNOR0100
012024091102ORVR3       010ORIZON      ON      NM   R$  000000000479600000000047980000000004693000000000472300000000047410000000004738000000000474201333000000000000290800000000001373450700000000000000009999123100000010000000000000BRORVRACNOR0101
012024091102CGAS5       010COMGAS      PNA          R$  000000001255000000000126630000000012336000000001254300000000126030000000012437000000001268000009000000000000001000000000000012543600000000000000009999123100000010000000000000BRCGASACNPA3161
012024091102CGRA3       010GRAZZIOTIN  ON           R$  000000000251000000000025100000000002461000000000249900000000024610000000002461000000000248000014000000000000002700000000000006747300000000000000009999123100000010000000000000BRCGRAACNOR2083
012024091102CGRA4       010GRAZZIOTIN  PN           R$  000000000250700000000025150000000002503000000000251000000000025110000000002510000000000252400010000000000000001400000000000003514700000000000000009999123100000010000000000000BRCGRAACNPR9083
012024091102CLSA3       010CLEARSALE   ON      NM   R$  000000000083800000000008830000000000832000000000085900000000008750000000000874000000000087505619000000000002204000000000001894700700000000000000009999123100000010000000000000BRCLSAACNOR0100
012024091102CLSC4       010CELESC      PN      N2   R$  000000000800400000000081430000000008004000000000803500000000081430000000008028000000000814400009000000000000001600000000000012856600000000000000009999123100000010000000000000BRCLSCACNPR3131
012024091102CMIG3       010CEMIG       ON      N1   R$  000000000148800000000014920000000001468000000000147700000000014680000000001468000000000147400619000000000000148000000000000218616200000000000000009999123100000010000000000000BRCMIGACNOR6243
012024091102CMIG4       010CEMIG       PN      N1   R$  000000000118100000000011900000000001176000000000118100000000011760000000001176000000000117715103000000000008212100000000009698864100000000000000009999123100000010000000000000BRCMIGACNPR3244
012024091102PETZ3       010PETZ        ON      NM   R$  000000000047200000000004880000000000458000000000047600000000004720000000000472000000000047311106000000000017504700000000008341726000000000000000009999123100000010000000000000BRPETZACNOR2110
012024091102BRAV3       010BRAVA       ON      NM   R$  000000000222000000000022880000000002187000000000224500000000022530000000002253000000000225918119000000000007572600000000017004420400000000000000009999123100000010000000000000BRBRAVACNOR3100
012024091102GSHP3       010GENERALSHOPPON           R$  000000000105000000000010500000000001050000000000105000000000010500000000000500000000000113200005000000000000001700000000000001785000000000000000009999123100000010000000000000BRGSHPACNOR7102
012024091102GUAR3       010GUARARAPES  ON      NM   R$  000000000087500000000008870000000000842000000000085700000000008550000000000855000000000085705965000000000001533300000000001315338100000000000000009999123100000010000000000000BRGUARACNOR4173
012024091102CSUD3       010CSU DIGITAL ON      NM   R$  000000000183500000000018700000000001810000000000183800000000018200000000001819000000000184200224000000000000029800000000000054795200000000000000009999123100000010000000000000BRCSUDACNOR5110
012024091102CURY3       010CURY S/A    ON      NM   R$  000000000251000000000025410000000002480000000000251300000000024980000000002498000000000252506073000000000001808200000000004545736500000000000000009999123100000010000000000000BRCURYACNOR3109
012024091102CVCB3       010CVC BRASIL  ON      NM   R$  000000000018000000000001880000000000177000000000018200000000001870000000000187000000000018805244000000000016515800000000003020749700000000000000009999123100000010000000000000BRCVCBACNOR1116
012024091102HAGA3       010HAGA S/A    ON           R$  000000000024900000000002490000000000237000000000024100000000002420000000000238000000000024200026000000000000011200000000000002709400000000000000009999123100000010000000000000BRHAGAACNOR7103
012024091102HAGA4       010HAGA S/A    PN           R$  000000000011700000000001180000000000117000000000011700000000001180000000000117000000000011800005000000000000001200000000000000141400000000000000009999123100000010000000000000BRHAGAACNPR4103
012024091102HAPV3       010HAPVIDA     ON      NM   R$  000000000045500000000004560000000000450000000000045200000000004500000000000449000000000045116199000000000026840700000000012137316800000000000000009999123100000010000000000000BRHAPVACNOR4114
012024091102HBOR3       010HELBOR      ON      NM   R$  000000000019800000000002030000000000196000000000020000000000002010000000000200000000000020100386000000000000261400000000000052367100000000000000009999123100000010000000000000BRHBORACNOR3118
012024091102HBRE3       010HBR REALTY  ON      NM   R$  000000000050300000000005080000000000494000000000050100000000005030000000000502000000000050300513000000000000144500000000000072491600000000000000009999123100000010000000000000BRHBREACNOR4100
012024091102HBSA3       010HIDROVIAS   ON      NM   R$  000000000035100000000003570000000000349000000000035000000000003490000000000348000000000035003239000000000002092800000000000732627500000000000000009999123100000010000000000000BRHBSAACNOR0100
012024091102HBTS5       010HABITASUL   PNA          R$  000000000413900000000041390000000004139000000000413900000000041390000000003300000000000414000001000000000000000100000000000000413900000000000000009999123100000010000000000000BRHBTSACNPA3128
012024091102TAEE4       010TAESA       PN      N2   R$  000000000119000000000011950000000001177000000000118200000000011790000000001179000000000118000791000000000000146300000000000173015600000000000000009999123100000010000000000000BRTAEEACNPR6148
012024091102VAMO3       010VAMOS       ON      NM   R$  000000000074300000000007450000000000724000000000073000000000007320000000000732000000000073310439000000000008957500000000006543134000000000000000009999123100000010000000000000BRVAMOACNOR7105
012024091102VBBR3       010VIBRA       ON      NM   R$  000000000259000000000026010000000002566000000000257900000000025770000000002576000000000258516282000000000004019700000000010369591300000000000000009999123100000010000000000000BRVBBRACNOR1108
012024091102BEEF3       010MINERVA     ON      NM   R$  000000000070600000000007090000000000700000000000070300000000007040000000000703000000000070608681000000000004043900000000002845608300000000000000009999123100000010000000000000BRBEEFACNOR6116
012024091102BEES3       010BANESTES    ON  EJ       R$  000000000090000000000009000000000000891000000000089600000000008980000000000896000000000089900083000000000000015500000000000013900400000000000000009999123100000010000000000000BRBEESACNOR9395
012024091102BEES4       010BANESTES    PN  EJ       R$  000000000095900000000009650000000000947000000000095500000000009480000000000945000000000095500024000000000000004600000000000004396300000000000000009999123100000010000000000000BRBEESACNPR6320
012024091102RADL3       010RAIADROGASILON      NM   R$  000000000271000000000027270000000002692000000000270000000000026980000000002696000000000270009315000000000003796700000000010251753900000000000000009999123100000010000000000000BRRADLACNOR0157
012024091102RAIL3       010RUMO S.A.   ON      NM   R$  000000000215400000000021800000000002144000000000215900000000021600000000002159000000000216218397000000000021452700000000046326329400000000000000009999123100000010000000000000BRRAILACNOR9105
012024091102SNSY3       010SANSUY      ON           R$  000000000127500000000012890000000001200000000000123600000000012110000000001204000000000125000014000000000000001800000000000002225400000000000000009999123100000010000000000000BRSNSYACNOR2113
012024091102SNSY5       010SANSUY      PNA          R$  000000000058500000000005990000000000569000000000057700000000005770000000000566000000000057700019000000000000006400000000000003693500000000000000009999123100000010000000000000BRSNSYACNPA5111
012024091102SOJA3       010BOA SAFRA   ON      NM   R$  000000000127100000000012860000000001269000000000127600000000012700000000001270000000000127201377000000000000329400000000000420332200000000000000009999123100000010000000000000BRSOJAACNOR9105
012024091102SOND5       010SONDOTECNICAPNA          R$  000000000519900000000051990000000005199000000000519900000000051990000000004000000000000519900001000000000000000100000000000000519900000000000000009999123100000010000000000000BRSONDACNPA8166
012024091102SRNA3       010SERENA      ON      NM   R$  000000000085600000000008920000000000854000000000087400000000008810000000000880000000000088903694000000000002943000000000002573737700000000000000009999123100000010000000000000BRSRNAACNOR4100
012024091102STBP3       010SANTOS BRP  ON      NM   R$  000000000134400000000013560000000001312000000000132600000000013260000000001323000000000132713060000000000002960100000000003925719300000000000000009999123100000010000000000000BRSTBPACNOR3131
012024091102SUZB3       010SUZANO S.A. ON      NM   R$  000000000551700000000055450000000005458000000000548900000000055120000000005511000000000551519480000000000006959100000000038204168800000000000000009999123100000010000000000000BRSUZBACNOR0130
012024091102BBSE3       010BBSEGURIDADEON      NM   R$  000000000366700000000036860000000003638000000000365200000000036400000000003639000000000364213303000000000002930400000000010702093800000000000000009999123100000010000000000000BRBBSEACNOR5125
012024091102MAPT4       010CEMEPE      PN           R$  000000000052000000000005200000000000520000000000052000000000005200000000000460000000000060000001000000000000000100000000000000052000000000000000009999123100000010000000000000BRMAPTACNPR5106
012024091102MATD3       010MATER DEI   ON      NM   R$  000000000048100000000004980000000000475000000000048400000000004980000000000491000000000049801777000000000000734300000000000355717000000000000000009999123100000010000000000000BRMATDACNOR4104
012024091102MBLY3       010MOBLY       ON      NM   R$  000000000026800000000002800000000000265000000000027100000000002800000000000280000000000028100543000000000000465500000000000126279700000000000000009999123100000010000000000000BRMBLYACNOR5100
012024091102MDIA3       010M.DIASBRANCOON      NM   R$  000000000270400000000027750000000002685000000000273800000000027750000000002768000000000277701980000000000000483300000000001323475700000000000000009999123100000010000000000000BRMDIAACNOR7135
012024091102MDNE3       010MOURA DUBEUXON      NM   R$  000000000146600000000015040000000001451000000000148900000000014900000000001486000000000149402087000000000000394000000000000586960000000000000000009999123100000010000000000000BRMDNEACNOR9100
012024091102MEAL3       010IMC S/A     ON      NM   R$  000000000013600000000001430000000000134000000000013700000000001420000000000142000000000014300318000000000000599900000000000082701400000000000000009999123100000010000000000000BRMEALACNOR9105
012024091102EKTR4       010ELEKTRO     PN           R$  000000000441100000000044110000000004411000000000441100000000044110000000004312000000000441100003000000000000000800000000000003528800000000000000009999123100000010000000000000BREKTRACNPR7164
012024091102ELET3       010ELETROBRAS  ON      N1   R$  000000000419700000000041970000000004141000000000417100000000041800000000004178000000000418215073000000000004707200000000019633868500000000000000009999123100000010000000000000BRELETACNOR6160
012024091102ELET6       010ELETROBRAS  PNB     N1   R$  000000000460600000000046580000000004594000000000462500000000046070000000004607000000000461905684000000000001067300000000004936775700000000000000009999123100000010000000000000BRELETACNPB7077
012024091102JALL3       010JALLESMACHADON      NM   R$  000000000066000000000006620000000000653000000000065800000000006580000000000658000000000066201352000000000000393200000000000258734600000000000000009999123100000010000000000000BRJALLACNOR0106
012024091102JBSS3       010JBS         ON      NM   R$  000000000342000000000034280000000003335000000000336000000000033590000000003359000000000336020858000000000005985300000000020113432100000000000000009999123100000010000000000000BRJBSSACNOR8122
012024091107NUTR3       010NUTRIPLANT  ON      MA   R$  000000000047000000000004750000000000469000000000047000000000004690000000000463000000000047000016000000000000002100000000000000987800000000000000009999123100000010000000000000BRNUTRACNOR0104
012024091108PMAM3       010PARANAPANEMAON      NM   R$  000000000017100000000001770000000000170000000000017100000000001720000000000170000000000017200238000000000000046900000000000008066200000000000000009999123100000010000000000000BRPMAMACNOR3039
012024091108RPMG3       010PET MANGUINHON           R$  000000000030000000000003030000000000280000000000029000000000002940000000000292000000000029300347000000000000160400000000000046576800000000000000009999123100000010000000000000BRRPMGACNOR9194
012024091108RSID3       010ROSSI RESID ON      NM   R$  000000000039700000000004130000000000380000000000039500000000004020000000000377000000000040200252000000000000061600000000000024337700000000000000009999123100000010000000000000BRRSIDACNOR8120
012024091108JFEN3       010JOAO FORTES ON           R$  000000000002300000000000240000000000022000000000002200000000000230000000000022000000000002300211000000000001554900000000000035750500000000000000009999123100000010000000000000BRJFENACNOR0059
012024091108NEXP3       010NEXPE       ON           R$  000000000040900000000004090000000000406000000000040700000000004060000000000405000000000041000004000000000000000400000000000000163100000000000000009999123100000010000000000000BRNEXPACNOR0101
012024091108TEKA4       010TEKA        PN           R$  000000000288500000000028850000000002885000000000288500000000028850000000002865000000000298000001000000000000000200000000000000577000000000000000009999123100000010000000000000BRTEKAACNPR3140
012024091108AMER3       010AMERICANAS  ON      NM   R$  000000000065900000000006740000000000650000000000066000000000006590000000000659000000000066002871000000000003635000000000002400799700000000000000009999123100000010000000000000BRAMERACNOR6103
012024091108LIGT3       010LIGHT S/A   ON      NM   R$  000000000079400000000008010000000000760000000000078300000000007950000000000795000000000080003519000000000001167400000000000915132300000000000000009999123100000010000000000000BRLIGTACNOR2124
012024091108RNEW11      010RENOVA      UNT     N2   R$  000000000030900000000003090000000000305000000000030800000000003050000000000305000000000030900011000000000000003600000000000001109900000000000000009999123100000010000000000000BRRNEWCDAM15110
012024091108RNEW3       010RENOVA      ON      N2   R$  000000000010300000000001030000000000101000000000010100000000001010000000000101000000000010300029000000000000012200000000000001240900000000000000009999123100000010000000000000BRRNEWACNOR8110
012024091108RNEW4       010RENOVA      PN      N2   R$  000000000010100000000001040000000000100000000000010000000000001010000000000100000000000010100068000000000000048300000000000004876800000000000000009999123100000010000000000000BRRNEWACNPR5110
012024091108ATMP3       010ATMASA      ON           R$  000000000013600000000001360000000000133000000000013500000000001360000000000133000000000013600009000000000000002300000000000000312400000000000000009999123100000010000000000000BRATMPACNOR8100
012024091108OIBR3       010OI          ON      N1   R$  000000000047000000000005070000000000470000000000048900000000004920000000000491000000000049201357000000000000750400000000000367086700000000000000009999123100000010000000000000BROIBRACNOR1112
012024091108OIBR4       010OI          PN      N1   R$  000000000115800000000011990000000001102000000000115100000000011300000000001100000000000114500036000000000000006500000000000007482400000000000000009999123100000010000000000000BROIBRACNPR8111
012024091108OSXB3       010OSX BRASIL  ON      NM   R$  000000000038000000000004150000000000378000000000040000000000004120000000000391000000000041400047000000000000018100000000000007247600000000000000009999123100000010000000000000BROSXBACNOR8109
012024091108CTSA3       010SANTANENSE  ON           R$  000000000026400000000002650000000000264000000000026400000000002650000000000265000000000027500003000000000000000300000000000000079400000000000000009999123100000010000000000000BRCTSAACNOR3062
012024091108CTSA4       010SANTANENSE  PN           R$  000000000012000000000001220000000000115000000000011700000000001200000000000116000000000012000246000000000000051400000000000006047100000000000000009999123100000010000000000000BRCTSAACNPR0062
012024091108HOOT4       010HOTEIS OTHONPN           R$  000000000023500000000002350000000000227000000000022700000000002270000000000226000000000023200008000000000000002100000000000000477900000000000000009999123100000010000000000000BRHOOTACNPR9015
012024091110AESB1       010AES BRASIL  DIR ORD NM   R$  000000000004900000000000520000000000046000000000004800000000000460000000000046000000000005000100000000000000032100000000000001572100000000000000009999123100000010000000000000BRAESBD03OR8106
012024091110RENT9       010LOCALIZA    ON  REC NM   R$  000000000425000000000042960000000004190000000000420800000000042490000000004102000000000425000028000000000000006200000000000026091900000000000000009999123100000010000000000000BRRENTR06OR8195
012024091110EQTL1       010EQUATORIAL  DIR ORD NM   R$  000000000021000000000002220000000000171000000000018300000000001960000000000195000000000019603803000000000001200400000000000220150900000000000000009999123100000010000000000000BREQTLD04OR9130
012024091110OIBR1       010OI          DIR ORD N1   R$  000000000000500000000000080000000000004000000000000500000000000050000000000004000000000000503696000000000008994700000000000051416900000000000000009999123100000010000000000000BROIBRD05OR7111
012024091112FIGS11      010FII GEN SHOPCI  ER       R$  000000000524000000000052920000000005206000000000522500000000052500000000005211000000000525500849000000000000005135000000000026832710000000000000009999123100000010000000000000BRFIGSCTF009231
012024091112FIIB11      010FII INDL BR CI  ER       R$  000000005039500000000503970000000050180000000005025600000000503000000000050180000000005032800115000000000000000276000000000013870679000000000000009999123100000010000000000000BRFIIBCTF001254
012024091112FIIP11B     010FII RB CAP ICI  ER  MB   R$  000000001690200000000173000000000016800000000001705900000000171900000000017031000000001721500134000000000000000689000000000011754328000000000000009999123100000010000000000000BRFIIPCTF001277
012024091112FISC11      010FII SC 401  CI  ER       R$  000000000715900000000071600000000007159000000000715900000000071600000000006119000000000680200005000000000000000005000000000000035797000000000000009999123100000010000000000000BRFISCCTF008139
012024091112FIVN11      010FII VIDANOVACI           R$  000000000028300000000002880000000000278000000000028200000000002840000000000283000000000028400021000000000000000142000000000000040156000000000000009999123100000010000000000000BRFIVNCTF009100
012024091112FLCR11      010FII FL RECEBCI  ER       R$  000000000972100000000097730000000009721000000000975400000000097380000000009736000000000974800040000000000000000184000000000001794815000000000000009999123100000010000000000000BRFLCRCTF004145
012024091112FLMA11      010FII S F LIMACI  ER       R$  000000001425100000000143970000000014001000000001424800000000143970000000014274000000001435000115000000000000000505000000000007195591000000000000009999123100000010000000000000BRFLMACTF009345
012024091112GAME11      010FII GUARD MUCI  ER       R$  000000000091300000000009200000000000905000000000091000000000009110000000000910000000000091100448000000000000019332000000000017601211000000000000009999123100000010000000000000BRGAMECTF002135
012024091112GARE11      010FII GUARDIANCI  ER       R$  000000000091900000000009200000000000914000000000091500000000009150000000000914000000000091511666000000000000478830000000000438392944000000000000009999123100000010000000000000BRGARECTF001107
012024091112GCRI11      010FII GLPG CRICI           R$  000000000721300000000072710000000007100000000000717100000000071060000000007109000000000719000127000000000000001881000000000013489759000000000000009999123100000010000000000000BRGCRICTF008146
012024091112IRDM11      010FII IRIDIUM CI  ER       R$  000000000704900000000070700000000006992000000000702700000000070190000000007011000000000701905272000000000000080114000000000563003120000000000000009999123100000010000000000000BRIRDMCTF004189
012024091112IRIM11      010FII IRIM    CI  ER       R$  000000000725200000000074470000000007251000000000733500000000074470000000007290000000000744700109000000000000000714000000000005237449000000000000009999123100000010000000000000BRIRIMCTF003138
012024091112ISCJ11      010FII ISCJ    CI           R$  000000000900000000000090000000000009000000000000900000000000090000000000008000000000000900000001000000000000000002000000000000018000000000000000009999123100000010000000000000BRISCJCTF000110
012024091112ITIP11      010FII INTER IPCI  ER       R$  000000000737500000000074000000000007300000000000731900000000074000000000007400000000000747200628000000000000001233000000000009025330000000000000009999123100000010000000000000BRITIPCTF002132
012024091112ITIT11      010FII INTER ITCI  ER       R$  000000000763000000000076910000000007580000000000762400000000076070000000007580000000000760800092000000000000000477000000000003636976000000000000009999123100000010000000000000BRITITCTF004132
012024091112ITRI11      010FII ITRI    CI  ER       R$  000000000898900000000090400000000008908000000000894500000000089180000000008918000000000892500783000000000000013709000000000122638855000000000000009999123100000010000000000000BRITRICTF008105
012024091112CACR11      010CARTESIA FIICI  ER       R$  000000001057700000000106100000000010544000000001057500000000105500000000010550000000001056600846000000000000009279000000000098131920000000000000009999123100000010000000000000BRCACRCTF004136
012024091112CARE11      010FII DEA CARECI           R$  000000000015800000000001580000000000156000000000015700000000001580000000000157000000000015800088000000000000001937000000000000304707000000000000009999123100000010000000000000BRCARECTF000112
012024091112CBOP11      010FII CBOP PAXCI  ER       R$  000000000271500000000027370000000002715000000000272500000000027370000000002715000000000278300014000000000000000900000000000002452749000000000000009999123100000010000000000000BRCBOPCTF001233
012024091112CCME11      010FII CANUMA  CI  ER       R$  000000000096500000000009760000000000956000000000096600000000009670000000000967000000000096805084000000000000081396000000000078638602000000000000009999123100000010000000000000BRCCMECTF007126
012024091112SARE11      010FII SANT RENCI  ER       R$  000000000393900000000039790000000003937000000000395100000000039660000000003960000000000396600643000000000000011053000000000043681057000000000000009999123100000010000000000000BRSARECTF006159
012024091112SCPF11      010FII SCP     CI           R$  000000000026000000000002630000000000258000000000025900000000002590000000000258000000000025900046000000000000001522000000000000394826000000000000009999123100000010000000000000BRSCPFCTF003302
012024091112FLRP11      010FII FLORIPA CI  ER       R$  000000020050000000002005630000000200000000000020034000000002000000000000200000000000020295500007000000000000000014000000000002804772000000000000009999123100000010000000000000BRFLRPCTF006274
012024091112FMOF11      010FII MEMORIALCI           R$  000000000429500000000047490000000004295000000000433900000000047490000000003912000000000474000007000000000000000056000000000000243021000000000000009999123100000010000000000000BRFMOFCTF010258
012024091112FPAB11      010FII A BRANCACI  ER       R$  000000002339400000000240050000000022700000000002294500000000240050000000022600000000002400500004000000000000000011000000000000252397000000000000009999123100000010000000000000BRFPABCTF011317
012024091112FPNG11      010FII P NEGRA CI           R$  000000002000000000000200000000000020000000000002000000000000200000000000009000000000002000000001000000000000000002000000000000040000000000000000009999123100000010000000000000BRFPNGCTF005191
012024091112FVPQ11      010FII V PARQUECI  ER       R$  000000000697600000000069760000000006702000000000683800000000068290000000006819000000000683000607000000000000001382000000000009450435000000000000009999123100000010000000000000BRFVPQCTF015262
012024091112DPRO11      010FII DEVA PROCI  ER       R$  000000000065000000000006500000000000647000000000064800000000006470000000000649000000000068100003000000000000000003000000000000001944000000000000009999123100000010000000000000BRDPROCTF005127
012024091112DRIT11      010FII MTGESTAOCI  ER       R$  000000001000000000000100000000000010000000000001000000000000100000000000008501000000001000000002000000000000000006000000000000060000000000000000009999123100000010000000000000BRDRITCTF009256
012024091112DVFF11      010FII DEVA FOFCI  ER       R$  000000000075400000000007540000000000734000000000073700000000007370000000000737000000000074101824000000000000005021000000000003703308000000000000009999123100000010000000000000BRDVFFCTF006141
012024091112GGRC11      010FII GGRCOVEPCI  ER       R$  000000000108300000000010840000000001073000000000107500000000010750000000001074000000000107507334000000000000230529000000000247988369000000000000009999123100000010000000000000BRGGRCCTF002197
012024091112AZPL11      010FII AZPL    CI  ER       R$  000000000083400000000008680000000000805000000000083300000000008650000000000852000000000086500696000000000000057058000000000047572715000000000000009999123100000010000000000000BRAZPLCTF000103
012024091112CEOC11      010FII CEO CCP CI  ER       R$  000000000442500000000044890000000004425000000000445700000000044500000000004451000000000447800019000000000000000742000000000003307416000000000000009999123100000010000000000000BRCEOCCTF003218
012024091112BTLG11      010FII BTLG    CI           R$  000000001023000000000102420000000010160000000001019800000000101880000000010188000000001018911340000000000000077059000000000785917384000000000000009999123100000010000000000000BRBTLGCTF000165
012024091112BTRA11      010FII BTG TAGRCI           R$  000000000449300000000044930000000004423000000000445700000000044500000000004425000000000445000177000000000000001783000000000007947994000000000000009999123100000010000000000000BRBTRACTF000139
012024091112BTAL11      010FII BTG AGROCI           R$  000000000778800000000078000000000007770000000000778800000000077910000000007790000000000779100446000000000000003860000000000030063567000000000000009999123100000010000000000000BRBTALCTF003142
012024091112BTCI11      010FII BTG CRI CI  ER       R$  000000000099300000000009960000000000991000000000099300000000009920000000000991000000000099208725000000000000124850000000000124005694000000000000009999123100000010000000000000BRBTCICTF005123
012024091112BTHI11      010BTG HOTEL FICI  ER       R$  000000000401800000000041000000000003871000000000401600000000041000000000004090000000000410000091000000000000000811000000000003257475000000000000009999123100000010000000000000BRBTHICTF004112
012024091112ABCP11      010FII ABC IMOBCI  ER       R$  000000000709900000000070990000000007055000000000706900000000070690000000007069000000000707000053000000000000000335000000000002368218000000000000009999123100000010000000000000BRABCPCTF000342
012024091112CPFF11      010FII CAP REITCI           R$  000000000703900000000070390000000006991000000000700900000000070180000000007007000000000701800297000000000000001235000000000008656904000000000000009999123100000010000000000000BRCPFFCTF000159
012024091112CPLG11      010FII CPLG    CI           R$  000000000106000000000010600000000001060000000000106000000000010600000000001005000000000106000004000000000003773605000000004000021300000000000000009999123100000010000000000000BRCPLGCTF006100
012024091112CPOF11      010FII CPOF    CI           R$  000000001084400000000108440000000010844000000001084400000000108440000000010771000000001084500001000000000000000002000000000000021688000000000000009999123100000010000000000000BRCPOFCTF002109
012024091112CPSH11      010FII CPSH    CI           R$  000000000105500000000010580000000001046000000000104900000000010500000000001048000000000105003148000000000000035690000000000037442400000000000000009999123100000010000000000000BRCPSHCTF017116
012024091112CPTS11      010FII CAPI SECCI           R$  000000000082600000000008290000000000820000000000082400000000008210000000000821000000000082220679000000000001125663000000000927560355000000000000009999123100000010000000000000BRCPTSCTF004233
012024091112MFAI11      010FII MERITOFACI  ER       R$  000000000678900000000068980000000006666000000000682100000000068970000000006776000000000689700021000000000000000062000000000000422953000000000000009999123100000010000000000000BRMFAICTF005154
012024091112MFCR11      010FII MERITO RCI  ER       R$  000000000262600000000026260000000002587000000000259400000000025930000000002601000000000269700089000000000000000234000000000000607063000000000000009999123100000010000000000000BRMFCRCTF002127
