00COTAHIST.2024BOVESPA 20240909                                                                                                                                                                                                                      
012024090902GGPS3       010GPS         ON      NM   R$  000000000179300000000018200000000001793000000000180500000000018050000000001800000000000181004240000000000000992600000000001792629100000000000000009999123100000010000000000000BRGGPSACNOR9103
012024090902GMAT3       010GRUPO MATEUSON      NM   R$  000000000076900000000007910000000000756000000000078000000000007820000000000782000000000078413590000000000011852000000000009251654100000000000000009999123100000010000000000000BRGMATACNOR7102
012024090902GOAU3       010GERDAU MET  ON      N1   R$  000000000107300000000010990000000001073000000000108900000000010800000000001080000000000108800192000000000000043100000000000046957000000000000000009999123100000010000000000000BRGOAUACNOR1268
012024090902MILS3       010MILLS       ON      NM   R$  000000000109300000000011020000000001083000000000109600000000010950000000001094000000000109803329000000000000609200000000000667853600000000000000009999123100000010000000000000BRMILSACNOR2128
012024090902MLAS3       010MULTILASER  ON      NM   R$  000000000018400000000001870000000000181000000000018200000000001820000000000182000000000018302771000000000002471000000000000451486800000000000000009999123100000010000000000000BRMLASACNOR9101
012024090902MNDL3       010MUNDIAL     ON           R$  000000000143000000000014900000000001430000000000145100000000014900000000001182000000000154000006000000000000003300000000000004790000000000000000009999123100000010000000000000BRMNDLACNOR4109
012024090902MNPR3       010MINUPAR     ON           R$  000000000160000000000016160000000001600000000000160200000000016160000000001530000000000161700002000000000000000600000000000000961600000000000000009999123100000010000000000000BRMNPRACNOR5122
012024090902MOVI3       010MOVIDA      ON      NM   R$  000000000069100000000007030000000000684000000000069200000000006950000000000692000000000069506145000000000002782300000000001928063000000000000000009999123100000010000000000000BRMOVIACNOR0122
012024090902MRFG3       010MARFRIG     ON      NM   R$  000000000145400000000015350000000001428000000000147200000000014350000000001433000000000143517189000000000006292400000000009263722400000000000000009999123100000010000000000000BRMRFGACNOR0116
012024090902COCE5       010COELCE      PNA          R$  000000000308000000000031000000000002984000000000300700000000029900000000002990000000000303500176000000000000020300000000000061061800000000000000009999123100000010000000000000BRCOCEACNPA3147
012024090902COGN3       010COGNA ON    ON      NM   R$  000000000013900000000001400000000000136000000000013700000000001370000000000136000000000013712583000000000023426800000000003232326700000000000000009999123100000010000000000000BRCOGNACNOR2105
012024090902ENEV3       010ENEVA       ON      NM   R$  000000000137200000000013900000000001356000000000136800000000013650000000001364000000000136510913000000000004548800000000006224810700000000000000009999123100000010000000000000BRENEVACNOR8106
012024090902ENGI11      010ENERGISA    UNT     N2   R$  000000000479300000000048700000000004781000000000481700000000047980000000004795000000000481410496000000000001782400000000008585925200000000000000009999123100000010000000000000BRENGICDAM16136
012024090902ENGI3       010ENERGISA    ON      N2   R$  000000000148800000000014880000000001405000000000144300000000014220000000001400000000000145000035000000000000006400000000000009237500000000000000009999123100000010000000000000BRENGIACNOR0146
012024090902ENGI4       010ENERGISA    PN      N2   R$  000000000083600000000008590000000000830000000000083900000000008380000000000835000000000084700023000000000000003300000000000002769200000000000000009999123100000010000000000000BRENGIACNPR7142
012024090902ENJU3       010ENJOEI      ON      NM   R$  000000000014800000000001560000000000143000000000015100000000001490000000000149000000000015102780000000000002174600000000000328887600000000000000009999123100000010000000000000BRENJUACNOR9100
012024090902ENMT4       010ENERGISA MT PN           R$  000000000777900000000077900000000007779000000000778300000000077900000000000000000000000766000003000000000000000300000000000002334900000000000000009999123100000010000000000000BRENMTACNPR2126
012024090902EPAR3       010EMBPAR S/A  ON           R$  000000000058600000000005900000000000586000000000058700000000005860000000000582000000000058600019000000000000004400000000000002585900000000000000009999123100000010000000000000BREPARACNOR9105
012024090902EQPA3       010EQTL PARA   ON           R$  000000000060900000000006140000000000605000000000061100000000006130000000000605000000000061300030000000000000007900000000000004832900000000000000009999123100000010000000000000BREQPAACNOR1111
012024090902EQTL3       010EQUATORIAL  ON      NM   R$  000000000348100000000034950000000003451000000000346600000000034640000000003464000000000346710337000000000003253500000000011279483600000000000000009999123100000010000000000000BREQTLACNOR0131
012024090902IFCM3       010INFRACOMM   ON      NM   R$  000000000001500000000000150000000000014000000000001400000000000150000000000014000000000001501787000000000001894600000000000027369700000000000000009999123100000010000000000000BRIFCMACNOR8101
012024090902IGTI11      010IGUATEMI S.AUNT     N1   R$  000000000220300000000022100000000002173000000000218300000000021800000000002180000000000219010059000000000001764600000000003852721500000000000000009999123100000010000000000000BRIGTICDAM16106
012024090902IGTI3       010IGUATEMI S.AON      N1   R$  000000000027400000000002770000000000268000000000027100000000002680000000000268000000000027100132000000000000027100000000000007347700000000000000009999123100000010000000000000BRIGTIACNOR8106
012024090902LOGG3       010LOG COM PROPON      NM   R$  000000000229600000000023080000000002263000000000229300000000022890000000002289000000000230802438000000000000269200000000000617419200000000000000009999123100000010000000000000BRLOGGACNOR7107
012024090902LOGN3       010LOG-IN      ON      NM   R$  000000000360000000000036910000000003531000000000359400000000035750000000003575000000000360600085000000000000010900000000000039179000000000000000009999123100000010000000000000BRLOGNACNOR3105
012024090902LPSB3       010LOPES BRASILON      NM   R$  000000000017600000000001890000000000176000000000018400000000001870000000000186000000000018700653000000000001672900000000000308909300000000000000009999123100000010000000000000BRLPSBACNOR0114
012024090902LREN3       010LOJAS RENNERON      NM   R$  000000000177400000000017910000000001756000000000176700000000017570000000001757000000000175917886000000000008551700000000015112441800000000000000009999123100000010000000000000BRLRENACNOR1221
012024090902AALR3       010ALLIAR      ON      NM   R$  000000000153100000000015830000000001500000000000153500000000015600000000001517000000000156000099000000000000022300000000000034248100000000000000009999123100000010000000000000BRAALRACNOR6102
012024090902ABCB4       010ABC BRASIL  PN      N2   R$  000000000232000000000023200000000002292000000000230500000000023160000000002310000000000231601820000000000000301800000000000695840600000000000000009999123100000010000000000000BRABCBACNPR4146
012024090902ABEV3       010AMBEV S/A   ON           R$  000000000129900000000013210000000001297000000000131000000000013110000000001311000000000131217632000000000035098100000000045991585100000000000000009999123100000010000000000000BRABEVACNOR1128
012024090902BALM3       010BAUMER      ON           R$  000000000117200000000011720000000001172000000000117200000000011720000000001025000000000125000001000000000000000100000000000000117200000000000000009999123100000010000000000000BRBALMACNOR5055
012024090902BAZA3       010AMAZONIA    ON           R$  000000000960000000000096590000000009600000000000961400000000096590000000009450000000000965800003000000000000000400000000000003845900000000000000009999123100000010000000000000BRBAZAACNOR0179
012024090902BBAS3       010BRASIL      ON      NM   R$  000000000288600000000029130000000002871000000000289900000000029130000000002912000000000291320698000000000014429900000000041833864400000000000000009999123100000010000000000000BRBBASACNOR3325
012024090902BIOM3       010BIOMM       ON      MA   R$  000000000099500000000010600000000000989000000000102000000000010000000000001000000000000102000693000000000000168200000000000171659000000000000000009999123100000010000000000000BRBIOMACNOR2112
012024090902JALL3       010JALLESMACHADON      NM   R$  000000000066300000000006630000000000647000000000065000000000006490000000000648000000000065001666000000000000523700000000000340879300000000000000009999123100000010000000000000BRJALLACNOR0106
012024090902JBSS3       010JBS         ON      NM   R$  000000000341700000000034960000000003375000000000342400000000033900000000003389000000000339019110000000000006618300000000022661612600000000000000009999123100000010000000000000BRJBSSACNOR8122
012024090902MRVE3       010MRV         ON      NM   R$  000000000075900000000007900000000000754000000000077400000000007730000000000773000000000077519245000000000014818800000000011476957000000000000000009999123100000010000000000000BRMRVEACNOR2127
012024090902MDIA3       010M.DIASBRANCOON      NM   R$  000000000277900000000027800000000002718000000000272900000000027180000000002718000000000273501828000000000000426600000000001164310200000000000000009999123100000010000000000000BRMDIAACNOR7135
012024090902MDNE3       010MOURA DUBEUXON      NM   R$  000000000150800000000015290000000001478000000000150900000000015130000000001511000000000151402449000000000000542100000000000818054200000000000000009999123100000010000000000000BRMDNEACNOR9100
012024090902MEAL3       010IMC S/A     ON      NM   R$  000000000014800000000001510000000000145000000000014700000000001450000000000145000000000014600449000000000000424800000000000062557300000000000000009999123100000010000000000000BRMEALACNOR9105
012024090902MELK3       010MELNICK     ON      NM   R$  000000000033800000000003420000000000334000000000033600000000003350000000000335000000000033702220000000000001402400000000000471731700000000000000009999123100000010000000000000BRMELKACNOR8111
012024090902MERC4       010MERC FINANC PN           R$  000000000096000000000009700000000000960000000000096700000000009700000000000960000000000099000007000000000000002000000000000001935000000000000000009999123100000010000000000000BRMERCACNPR9180
012024090902AZZA3       010AZZAS 2154  ON      NM   R$  000000000472000000000047450000000004615000000000465100000000046500000000004650000000000465107838000000000002569000000000011950611400000000000000009999123100000010000000000000BRAZZAACNOR9100
012024090902CASH3       010MELIUZ      ON  ER  NM   R$  000000000042000000000004300000000000415000000000042400000000004290000000000424000000000042903789000000000001567600000000000664710300000000000000009999123100000010000000000000BRCASHACNOR8107
012024090902CBAV3       010CBA         ON      NM   R$  000000000046600000000004750000000000458000000000046300000000004620000000000461000000000046205593000000000002341100000000001084850200000000000000009999123100000010000000000000BRCBAVACNOR5104
012024090902EALT3       010ACO ALTONA  ON           R$  000000000154400000000015550000000001530000000000155200000000015300000000001530000000000155500005000000000000001300000000000002017900000000000000009999123100000010000000000000BREALTACNOR4138
012024090902EALT4       010ACO ALTONA  PN           R$  000000000154100000000015620000000001496000000000152100000000014960000000001493000000000149600140000000000000034000000000000051745600000000000000009999123100000010000000000000BREALTACNPR1138
012024090902ECOR3       010ECORODOVIAS ON      NM   R$  000000000077200000000007720000000000760000000000076600000000007650000000000764000000000076604046000000000001256100000000000963099700000000000000009999123100000010000000000000BRECORACNOR8120
012024090902EGIE3       010ENGIE BRASILON      NM   R$  000000000449800000000045020000000004435000000000445800000000044530000000004435000000000445304639000000000000861000000000003838521400000000000000009999123100000010000000000000BREGIEACNOR9127
012024090902GOAU4       010GERDAU MET  PN      N1   R$  000000000105200000000010880000000001052000000000107500000000010710000000001070000000000107311928000000000006781800000000007293050700000000000000009999123100000010000000000000BRGOAUACNPR8269
012024090902ALPA4       010ALPARGATAS  PN      N1   R$  000000000074600000000007470000000000726000000000073200000000007280000000000727000000000072907544000000000003105800000000002274641300000000000000009999123100000010000000000000BRALPAACNPR7232
012024090902ALPK3       010ESTAPAR     ON      NM   R$  000000000035500000000003550000000000324000000000033800000000003330000000000333000000000033701731000000000000533400000000000180289700000000000000009999123100000010000000000000BRALPKACNOR9101
012024090902ALUP11      010ALUPAR      UNT     N2   R$  000000000315100000000031640000000003129000000000314100000000031360000000003136000000000314103585000000000000715000000000002246460100000000000000009999123100000010000000000000BRALUPCDAM15120
012024090902ALUP3       010ALUPAR      ON      N2   R$  000000000108700000000010870000000001051000000000107000000000010510000000001051000000000107800031000000000000006600000000000007068200000000000000009999123100000010000000000000BRALUPACNOR8120
012024090902ALUP4       010ALUPAR      PN      N2   R$  000000000103200000000010400000000001028000000000103500000000010390000000001031000000000105900026000000000000004600000000000004764100000000000000009999123100000010000000000000BRALUPACNPR5120
012024090902AMAR3       010LOJAS MARISAON      NM   R$  000000000011100000000001120000000000109000000000011000000000001090000000000109000000000011000702000000000000425200000000000046980100000000000000009999123100000010000000000000BRAMARACNOR4115
012024090902AMBP3       010AMBIPAR     ON      NM   R$  000000000650000000000066500000000006300000000000649600000000066000000000006550000000000660000956000000000000193600000000001257705200000000000000009999123100000010000000000000BRAMBPACNOR6103
012024090902ANIM3       010ANIMA       ON      NM   R$  000000000032600000000003290000000000316000000000032100000000003170000000000317000000000031905958000000000004817500000000001548725300000000000000009999123100000010000000000000BRANIMACNOR6109
012024090902ARML3       010ARMAC       ON      NM   R$  000000000085100000000008630000000000830000000000085300000000008560000000000856000000000085702189000000000000456700000000000389774700000000000000009999123100000010000000000000BRARMLACNOR1112
012024090902ASAI3       010ASSAI       ON      NM   R$  000000000090700000000009420000000000894000000000092500000000009250000000000925000000000092629416000000000020755700000000019212497700000000000000009999123100000010000000000000BRASAIACNOR0106
012024090902BBDC3       010BRADESCO    ON  EJ  N1   R$  000000000141500000000014240000000001408000000000141700000000014210000000001416000000000142206976000000000003441600000000004879715500000000000000009999123100000010000000000000BRBBDCACNOR1774
012024090902BBDC4       010BRADESCO    PN  EJ  N1   R$  000000000157000000000015880000000001567000000000157900000000015750000000001574000000000157527717000000000016779800000000026500745100000000000000009999123100000010000000000000BRBBDCACNPR8774
012024090902BRSR3       010BANRISUL    ON      N1   R$  000000000135500000000013550000000001311000000000133700000000013370000000001337000000000134500075000000000000010000000000000013374800000000000000009999123100000010000000000000BRBRSRACNOR3188
012024090902BRSR6       010BANRISUL    PNB     N1   R$  000000000127100000000012720000000001249000000000125500000000012560000000001252000000000125603837000000000001191200000000001495883700000000000000009999123100000010000000000000BRBRSRACNPB4191
012024090902EZTC3       010EZTEC       ON      NM   R$  000000000138600000000013950000000001368000000000138100000000013720000000001372000000000137703705000000000000981500000000001356193600000000000000009999123100000010000000000000BREZTCACNOR0126
012024090902INEP3       010INEPAR      ON           R$  000000000019200000000001920000000000180000000000018600000000001850000000000181000000000018600227000000000000074500000000000013877800000000000000009999123100000010000000000000BRINEPACNOR1143
012024090902INEP4       010INEPAR      PN           R$  000000000019300000000001930000000000187000000000018900000000001930000000000187000000000019300044000000000000026200000000000004973400000000000000009999123100000010000000000000BRINEPACNPR8143
012024090902INTB3       010INTELBRAS   ON      NM   R$  000000000214100000000021570000000002114000000000213500000000021410000000002130000000000214103826000000000000744000000000001588908400000000000000009999123100000010000000000000BRINTBACNOR9112
012024090902IRBR3       010IRBBRASIL REON      NM   R$  000000000499500000000050720000000004758000000000488600000000048000000000004800000000000481006823000000000001410300000000006890951000000000000000009999123100000010000000000000BRIRBRACNOR4111
012024090902LWSA3       010LWSA        ON      NM   R$  000000000044700000000004470000000000434000000000043800000000004400000000000439000000000044106924000000000003758900000000001647693400000000000000009999123100000010000000000000BRLWSAACNOR8103
012024090902BSLI4       010BRB BANCO   PN           R$  000000000096400000000009640000000000956000000000096200000000009560000000000951000000000097900004000000000000000400000000000000384800000000000000009999123100000010000000000000BRBSLIACNPR2194
012024090902CPLE5       010COPEL       PNA     N2   R$  000000000119700000000011970000000001197000000000119700000000011970000000001161000000000119700001000000000000000100000000000000119700000000000000009999123100000010000000000000BRCPLEACNPA1147
012024090902CPLE6       010COPEL       PNB     N2   R$  000000000108100000000010870000000001076000000000108200000000010830000000001083000000000108513112000000000010464100000000011322504600000000000000009999123100000010000000000000BRCPLEACNPB9146
012024090902CRFB3       010CARREFOUR BRON      NM   R$  000000000091800000000009340000000000910000000000092400000000009240000000000923000000000092509244000000000005701500000000005273409300000000000000009999123100000010000000000000BRCRFBACNOR2116
012024090902CSED3       010CRUZEIRO EDUON      NM   R$  000000000036100000000003610000000000343000000000034900000000003520000000000348000000000035201805000000000000798300000000000278856700000000000000009999123100000010000000000000BRCSEDACNOR9105
012024090902CSMG3       010COPASA      ON      NM   R$  000000000249600000000025170000000002455000000000249100000000024950000000002493000000000249505279000000000001054200000000002626631700000000000000009999123100000010000000000000BRCSMGACNOR5174
012024090902CSNA3       010SID NACIONALON           R$  000000000119200000000011980000000001147000000000116100000000011470000000001147000000000114809656000000000006035400000000007007884000000000000000009999123100000010000000000000BRCSNAACNOR6261
012024090902B3SA3       010B3          ON      NM   R$  000000000122300000000012330000000001221000000000122700000000012300000000001229000000000123020259000000000013782900000000016918376700000000000000009999123100000010000000000000BRB3SAACNOR6133
012024090902BEEF3       010MINERVA     ON      NM   R$  000000000070300000000007090000000000696000000000070200000000007000000000000699000000000070008629000000000005070000000000003560792300000000000000009999123100000010000000000000BRBEEFACNOR6116
012024090902ESPA3       010ESPACOLASER ON      NM   R$  000000000011400000000001140000000000109000000000011100000000001110000000000110000000000011100140000000000000333700000000000037124000000000000000009999123100000010000000000000BRESPAACNOR7103
012024090902ESTR4       010ESTRELA     PN           R$  000000000020700000000002070000000000207000000000020700000000002070000000000207000000000024700001000000000000000100000000000000020700000000000000009999123100000010000000000000BRESTRACNPR0144
012024090902ETER3       010ETERNIT     ON      NM   R$  000000000058100000000005870000000000575000000000058000000000005760000000000576000000000057700435000000000000152600000000000088548600000000000000009999123100000010000000000000BRETERACNOR3244
012024090902EUCA3       010EUCATEX     ON      N1   R$  000000000170000000000017000000000001700000000000170000000000017000000000001700000000000177600001000000000000000100000000000000170000000000000000009999123100000010000000000000BREUCAACNOR1157
012024090902EUCA4       010EUCATEX     PN      N1   R$  000000000163500000000016600000000001604000000000163300000000016600000000001645000000000166000705000000000000100500000000000164130400000000000000009999123100000010000000000000BREUCAACNPR8044
012024090902EVEN3       010EVEN        ON      NM   R$  000000000065200000000006600000000000649000000000065400000000006540000000000650000000000065402089000000000000400600000000000262249400000000000000009999123100000010000000000000BREVENACNOR8119
012024090902BPAN4       010BANCO PAN   PN      N1   R$  000000000107200000000010850000000001066000000000107600000000010800000000001080000000000108104376000000000001529800000000001647423200000000000000009999123100000010000000000000BRBPANACNPR1115
012024090902BRAP3       010BRADESPAR   ON      N1   R$  000000000179500000000017990000000001758000000000177700000000017590000000001759000000000176300629000000000000101200000000000179894400000000000000009999123100000010000000000000BRBRAPACNOR5148
012024090902BRAP4       010BRADESPAR   PN      N1   R$  000000000187500000000018750000000001848000000000185500000000018480000000001848000000000185207836000000000004364500000000008099906300000000000000009999123100000010000000000000BRBRAPACNPR2148
012024090902CPFE3       010CPFL ENERGIAON      NM   R$  000000000347200000000034850000000003445000000000345500000000034470000000003445000000000345305119000000000001037500000000003585299200000000000000009999123100000010000000000000BRCPFEACNOR0137
012024090902CPLE3       010COPEL       ON      N2   R$  000000000096700000000009690000000000956000000000096200000000009660000000000966000000000096708078000000000004818400000000004638885900000000000000009999123100000010000000000000BRCPLEACNOR8149
012024090902BLAU3       010BLAU        ON      NM   R$  000000000141700000000014270000000001354000000000137300000000013540000000001354000000000137201098000000000000211900000000000291139300000000000000009999123100000010000000000000BRBLAUACNOR8114
012024090902CMIG3       010CEMIG       ON      N1   R$  000000000148200000000014950000000001477000000000148500000000014770000000001477000000000148700634000000000000108600000000000161280500000000000000009999123100000010000000000000BRCMIGACNOR6243
012024090902CMIG4       010CEMIG       PN      N1   R$  000000000118400000000012020000000001181000000000118800000000011850000000001185000000000118614397000000000008020200000000009531536200000000000000009999123100000010000000000000BRCMIGACNPR3244
012024090902EKTR4       010ELEKTRO     PN           R$  000000000440500000000044050000000004405000000000440500000000044050000000004405000000000441000003000000000000001000000000000004405000000000000000009999123100000010000000000000BREKTRACNPR7164
012024090902ELET3       010ELETROBRAS  ON      N1   R$  000000000418500000000042050000000004155000000000417500000000041740000000004174000000000417511382000000000005687000000000023746513100000000000000009999123100000010000000000000BRELETACNOR6160
012024090902ELET6       010ELETROBRAS  PNB     N1   R$  000000000463500000000046660000000004618000000000463400000000046310000000004631000000000463202646000000000000470300000000002179400200000000000000009999123100000010000000000000BRELETACNPB7077
012024090902HAGA3       010HAGA S/A    ON           R$  000000000023900000000002430000000000239000000000024000000000002430000000000240000000000024400010000000000000002600000000000000625500000000000000009999123100000010000000000000BRHAGAACNOR7103
012024090902HAGA4       010HAGA S/A    PN           R$  000000000011800000000001180000000000117000000000011700000000001180000000000117000000000011800007000000000000006100000000000000719700000000000000009999123100000010000000000000BRHAGAACNPR4103
012024090902HAPV3       010HAPVIDA     ON      NM   R$  000000000044800000000004500000000000442000000000044600000000004500000000000449000000000045025804000000000045257800000000020197042100000000000000009999123100000010000000000000BRHAPVACNOR4114
012024090902AZEV3       010AZEVEDO     ON           R$  000000000014100000000001420000000000136000000000013700000000001390000000000138000000000013900489000000000000537900000000000073997500000000000000009999123100000010000000000000BRAZEVACNOR0121
012024090902AZEV4       010AZEVEDO     PN           R$  000000000014000000000001430000000000134000000000013700000000001400000000000139000000000014001733000000000003907500000000000538354500000000000000009999123100000010000000000000BRAZEVACNPR7121
012024090902AZUL4       010AZUL        PN  ATZ N2   R$  000000000044900000000004560000000000402000000000041400000000004070000000000406000000000040721358000000000043001800000000017844334900000000000000009999123100000010000000000000BRAZULACNPR4103
012024090902CCRO3       010CCR SA      ON      NM   R$  000000000134000000000013400000000001313000000000132600000000013230000000001323000000000133010055000000000005750200000000007628769000000000000000009999123100000010000000000000BRCCROACNOR2145
012024090902CEAB3       010CEA MODAS   ON      NM   R$  000000000102200000000010390000000000983000000000100100000000009940000000000994000000000099503477000000000001653000000000001654834300000000000000009999123100000010000000000000BRCEABACNOR1102
012024090902CEBR3       010CEB         ON           R$  000000000196700000000019770000000001961000000000196800000000019700000000001923000000000197500008000000000000000800000000000001574900000000000000009999123100000010000000000000BRCEBRACNOR5125
012024090902CEBR5       010CEB         PNA          R$  000000000172000000000017200000000001650000000000166100000000016500000000001647000000000167500013000000000000001800000000000002990500000000000000009999123100000010000000000000BRCEBRACNPA8124
012024090902CEBR6       010CEB         PNB          R$  000000000180100000000018300000000001798000000000180500000000018020000000001799000000000180200023000000000000006400000000000011557300000000000000009999123100000010000000000000BRCEBRACNPB6124
012024090902BMEB3       010MERCANTIL   ON      N1   R$  000000000360000000000038500000000003600000000000361300000000036710000000003670000000000385000038000000000000021400000000000077329000000000000000009999123100000010000000000000BRBMEBACNOR8206
012024090902BMEB4       010MERCANTIL   PN      N1   R$  000000000392800000000041200000000003928000000000399900000000040980000000003991000000000410000100000000000000029600000000000118392200000000000000009999123100000010000000000000BRBMEBACNPR5211
012024090902BMGB4       010BANCO BMG   PN      N1   R$  000000000039000000000003900000000000385000000000038700000000003890000000000389000000000039000947000000000000471000000000000182288800000000000000009999123100000010000000000000BRBMGBACNPR0110
012024090902BMKS3       010BIC MONARK  ON           R$  000000003397900000000339900000000031501000000003367400000000320010000000032001000000003340000017000000000000000075000000000002525618000000000000009999123100000010000000000000BRBMKSACNOR9166
012024090902BRBI11      010BR PARTNERS UNT     N2   R$  000000000153000000000015450000000001516000000000153000000000015160000000001515000000000151701168000000000000207300000000000317353400000000000000009999123100000010000000000000BRBRBICDAM10110
012024090902BRFS3       010BRF SA      ON      NM   R$  000000000252300000000025460000000002430000000000247500000000024510000000002450000000000245114360000000000005979000000000014801973100000000000000009999123100000010000000000000BRBRFSACNOR8122
012024090902HBOR3       010HELBOR      ON      NM   R$  000000000020200000000002030000000000198000000000020000000000001990000000000198000000000019900495000000000000504000000000000101026200000000000000009999123100000010000000000000BRHBORACNOR3118
012024090902HBRE3       010HBR REALTY  ON      NM   R$  000000000050800000000005080000000000495000000000050000000000005050000000000505000000000050600415000000000000381300000000000191017000000000000000009999123100000010000000000000BRHBREACNOR4100
012024090902HBSA3       010HIDROVIAS   ON      NM   R$  000000000035200000000003540000000000350000000000035100000000003500000000000350000000000035203372000000000001312100000000000460826400000000000000009999123100000010000000000000BRHBSAACNOR0100
012024090902HETA4       010HERCULES    PN           R$  000000000058800000000006980000000000588000000000062400000000006980000000000645000000000067800009000000000000002100000000000001311400000000000000009999123100000010000000000000BRHETAACNPR9136
012024090902CEDO3       010CEDRO       ON      N1   R$  000000000250000000000025000000000002400000000000248700000000024000000000001537000000000250000005000000000000000800000000000001990000000000000000009999123100000010000000000000BRCEDOACNOR8096
012024090902CEDO4       010CEDRO       PN      N1   R$  000000000239000000000023950000000002390000000000239100000000023950000000002386000000000250000003000000000000000300000000000000717500000000000000009999123100000010000000000000BRCEDOACNPR5128
012024090902CGAS3       010COMGAS      ON           R$  000000001270000000000127000000000011500000000001221400000000115000000000011499000000001265500004000000000000000400000000000004885700000000000000009999123100000010000000000000BRCGASACNOR0164
012024090902CGAS5       010COMGAS      PNA          R$  000000001258000000000127000000000012401000000001266500000000127000000000012400000000001269900016000000000000001700000000000021530600000000000000009999123100000010000000000000BRCGASACNPA3161
012024090902CGRA3       010GRAZZIOTIN  ON           R$  000000000251300000000025290000000002501000000000250800000000025010000000002501000000000251500010000000000000002000000000000005016300000000000000009999123100000010000000000000BRCGRAACNOR2083
012024090902CGRA4       010GRAZZIOTIN  PN           R$  000000000248600000000025350000000002486000000000251500000000024930000000002495000000000252300023000000000000002900000000000007293600000000000000009999123100000010000000000000BRCGRAACNPR9083
012024090902CLSA3       010CLEARSALE   ON      NM   R$  000000000086300000000008630000000000823000000000083800000000008360000000000833000000000083603676000000000000810800000000000679529100000000000000009999123100000010000000000000BRCLSAACNOR0100
012024090902CLSC4       010CELESC      PN      N2   R$  000000000808100000000080810000000007983000000000801400000000079850000000007985000000000808100016000000000000002100000000000016830600000000000000009999123100000010000000000000BRCLSCACNPR3131
012024090902PATI3       010PANATLANTICAON  ED       R$  000000000370000000000037000000000003023000000000330500000000030230000000003022000000000320000007000000000000000700000000000002313900000000000000009999123100000010000000000000BRPATIACNOR6066
012024090902PCAR3       010P.ACUCAR-CBDON      NM   R$  000000000030500000000003060000000000295000000000029800000000002960000000000295000000000029607477000000000007252600000000002167572300000000000000009999123100000010000000000000BRPCARACNOR3167
012024090902CMIN3       010CSNMINERACAOON      N2   R$  000000000061400000000006160000000000587000000000059500000000005910000000000590000000000059115249000000000020393200000000012141344000000000000000009999123100000010000000000000BRCMINACNOR2111
012024090902ELMD3       010ELETROMIDIA ON      NM   R$  000000000180900000000018140000000001776000000000179400000000017880000000001780000000000178800335000000000000045600000000000081851700000000000000009999123100000010000000000000BRELMDACNOR3101
012024090902EMAE4       010EMAE        PN           R$  000000000394100000000040390000000003941000000000396500000000039600000000003951000000000413200015000000000000002700000000000010705500000000000000009999123100000010000000000000BREMAEACNPR1125
012024090902EMBR3       010EMBRAER     ON      NM   R$  000000000481000000000048290000000004722000000000479300000000048040000000004792000000000480417895000000000009765800000000046807953700000000000000009999123100000010000000000000BREMBRACNOR4191
012024090902HYPE3       010HYPERA      ON      NM   R$  000000000283400000000028550000000002794000000000282100000000028230000000002817000000000282310221000000000002430800000000006859265400000000000000009999123100000010000000000000BRHYPEACNOR0143
012024090902JHSF3       010JHSF PART   ON  ED  NM   R$  000000000044900000000004510000000000440000000000044300000000004430000000000442000000000044404393000000000003013400000000001336383900000000000000009999123100000010000000000000BRJHSFACNOR2139
012024090902KEPL3       010KEPLER WEBERON      NM   R$  000000000112000000000011200000000001104000000000111100000000011150000000001110000000000111504354000000000000698400000000000776018100000000000000009999123100000010000000000000BRKEPLACNOR1064
012024090902KLBN11      010KLABIN S/A  UNT     N2   R$  000000000216700000000021800000000002157000000000216800000000021640000000002164000000000216707666000000000002011100000000004361621000000000000000009999123100000010000000000000BRKLBNCDAM18143
012024090902KLBN3       010KLABIN S/A  ON      N2   R$  000000000043600000000004380000000000433000000000043600000000004360000000000436000000000043700525000000000000169100000000000073774800000000000000009999123100000010000000000000BRKLBNACNOR2171
012024090902KLBN4       010KLABIN S/A  PN      N2   R$  000000000043200000000004350000000000430000000000043200000000004300000000000430000000000043201519000000000000801300000000000346408300000000000000009999123100000010000000000000BRKLBNACNPR9171
012024090902BHIA3       010CASAS BAHIA ON      NM   R$  000000000063700000000006400000000000603000000000061500000000006030000000000603000000000060402925000000000002404300000000001478892400000000000000009999123100000010000000000000BRBHIAACNOR1102
012024090902BRAV3       010BRAVA       ON      NM   R$  000000000231000000000023190000000002190000000000220900000000021950000000002194000000000219717712000000000005757300000000012723556400000000000000009999123100000010000000000000BRBRAVACNOR3100
012024090902CRPG5       010CRISTAL     PNA          R$  000000000285100000000029000000000002850000000000288200000000029000000000002851000000000289900014000000000000002500000000000007206000000000000000009999123100000010000000000000BRCRPGACNPA3119
012024090902CRPG6       010CRISTAL     PNB          R$  000000000280100000000028010000000002801000000000280100000000028010000000002751000000000284900001000000000000000100000000000000280100000000000000009999123100000010000000000000BRCRPGACNPB1119
012024090902CSAN3       010COSAN       ON      NM   R$  000000000129500000000013040000000001275000000000128500000000012760000000001276000000000127714958000000000007748300000000009963417300000000000000009999123100000010000000000000BRCSANACNOR6126
012024090902CSUD3       010CSU DIGITAL ON      NM   R$  000000000181700000000018350000000001811000000000182000000000018200000000001812000000000182400079000000000000010900000000000019842500000000000000009999123100000010000000000000BRCSUDACNOR5110
012024090902CTKA4       010KARSTEN     PN           R$  000000000195000000000019500000000001863000000000193500000000018630000000001860000000000195000002000000000000000600000000000001161300000000000000009999123100000010000000000000BRCTKAACNPR7043
012024090902KRSA3       010KORA SAUDE  ON      NM   R$  000000000006000000000000600000000000057000000000005800000000000590000000000058000000000005900146000000000000360300000000000021013000000000000000009999123100000010000000000000BRKRSAACNOR0100
012024090902CURY3       010CURY S/A    ON      NM   R$  000000000247200000000024810000000002449000000000246100000000024570000000002453000000000245706331000000000001350800000000003325251600000000000000009999123100000010000000000000BRCURYACNOR3109
012024090902CVCB3       010CVC BRASIL  ON      NM   R$  000000000019100000000001910000000000181000000000018500000000001810000000000181000000000018207717000000000014272500000000002649020300000000000000009999123100000010000000000000BRCVCBACNOR1116
012024090902LAND3       010TERRASANTAPAON      NM   R$  000000000124600000000012460000000001163000000000120500000000012240000000001179000000000122400395000000000000088800000000000107074100000000000000009999123100000010000000000000BRLANDACNOR9103
012024090902LAVV3       010LAVVI       ON      NM   R$  000000000084200000000008510000000000838000000000084400000000008460000000000846000000000085002260000000000000370800000000000313070000000000000000009999123100000010000000000000BRLAVVACNOR4113
012024090902LEVE3       010METAL LEVE  ON      NM   R$  000000000310100000000031040000000003064000000000308600000000030810000000003081000000000309002408000000000000339500000000001048014400000000000000009999123100000010000000000000BRLEVEACNOR2197
012024090902LJQQ3       010QUERO-QUERO ON      NM   R$  000000000043100000000004320000000000405000000000041500000000004050000000000405000000000040603755000000000002029600000000000843554500000000000000009999123100000010000000000000BRLJQQACNOR5104
012024090902FESA3       010FERBASA     ON  EJ  N1   R$  000000000141400000000014140000000001275000000000134400000000012750000000001231000000000135900002000000000000000200000000000000268900000000000000009999123100000010000000000000BRFESAACNOR8189
012024090902FESA4       010FERBASA     PN  EJ  N1   R$  000000000078700000000007870000000000780000000000078200000000007830000000000781000000000078301556000000000000359200000000000281142900000000000000009999123100000010000000000000BRFESAACNPR5085
012024090902FHER3       010FER HERINGERON      NM   R$  000000000040500000000004180000000000405000000000040700000000004180000000000404000000000041700011000000000000004600000000000001873000000000000000009999123100000010000000000000BRFHERACNOR5103
012024090902FIEI3       010FICA        ON           R$  000000000084900000000009440000000000849000000000088900000000008990000000000800000000000090000011000000000000001600000000000001422600000000000000009999123100000010000000000000BRFIEIACNOR2100
012024090902FIQE3       010UNIFIQUE    ON      NM   R$  000000000038300000000003850000000000375000000000037900000000003780000000000375000000000037801000000000000000486400000000000184529700000000000000009999123100000010000000000000BRFIQEACNOR5107
012024090902NEOE3       010NEOENERGIA  ON      NM   R$  000000000204300000000020520000000002023000000000203200000000020240000000002023000000000202803142000000000000579500000000001178005100000000000000009999123100000010000000000000BRNEOEACNOR3123
012024090902NGRD3       010NEOGRID     ON      NM   R$  000000000011400000000001170000000000102000000000010700000000001060000000000105000000000010602846000000000001618600000000000173249800000000000000009999123100000010000000000000BRNGRDACNOR3104
012024090902NINJ3       010GETNINJAS   ON      NM   R$  000000000046800000000004700000000000465000000000046800000000004700000000000465000000000047500024000000000000005600000000000002621600000000000000009999123100000010000000000000BRNINJACNOR5101
012024090902FLRY3       010FLEURY      ON      NM   R$  000000000166700000000016770000000001655000000000166500000000016630000000001661000000000166409429000000000003507800000000005841480800000000000000009999123100000010000000000000BRFLRYACNOR5139
012024090902FRAS3       010FRAS-LE     ON      N1   R$  000000000201000000000020100000000001966000000000198300000000019810000000001981000000000199002183000000000000406000000000000805227400000000000000009999123100000010000000000000BRFRASACNOR0160
012024090902FRIO3       010METALFRIO   ON      NM   R$  000000000800000000000080010000000006819000000000704300000000068190000000006810000000000900000020000000000000002200000000000015494700000000000000009999123100000010000000000000BRFRIOACNOR2111
012024090902GEPA3       010GER PARANAP ON           R$  000000000275000000000028000000000002750000000000277500000000028000000000002701000000000289000002000000000000000200000000000000555000000000000000009999123100000010000000000000BRGEPAACNOR2153
012024090902ITSA3       010ITAUSA      ON  EJ  N1   R$  000000000111700000000011260000000001112000000000112000000000011190000000001118000000000112500350000000000000091100000000000102092000000000000000009999123100000010000000000000BRITSAACNOR0442
012024090902ITSA4       010ITAUSA      PN  EJ  N1   R$  000000000111100000000011270000000001110000000000112000000000011240000000001123000000000112419973000000000015086500000000016911297400000000000000009999123100000010000000000000BRITSAACNPR7442
012024090902MGLU3       010MAGAZ LUIZA ON      NM   R$  000000000118200000000011890000000001152000000000116400000000011520000000001152000000000115416547000000000012196100000000014196905400000000000000009999123100000010000000000000BRMGLUACNOR2124
012024090902PFRM3       010PROFARMA    ON      NM   R$  000000000062700000000006300000000000611000000000062000000000006240000000000617000000000062500648000000000000176800000000000109774500000000000000009999123100000010000000000000BRPFRMACNOR1116
012024090902PGMN3       010PAGUE MENOS ON      NM   R$  000000000031100000000003120000000000297000000000030200000000003000000000000299000000000030003172000000000000821000000000000248256800000000000000009999123100000010000000000000BRPGMNACNOR8103
012024090902PINE3       010PINE        ON      N2   R$  000000000051500000000005150000000000485000000000049700000000004930000000000493000000000052400015000000000000003300000000000001640300000000000000009999123100000010000000000000BRPINEACNOR1150
012024090902PINE4       010PINE        PN      N2   R$  000000000048200000000004830000000000476000000000047900000000004790000000000477000000000047900349000000000000137500000000000065886300000000000000009999123100000010000000000000BRPINEACNPR8150
012024090902PLPL3       010PLANOEPLANO ON      NM   R$  000000000123000000000012620000000001210000000000122400000000012110000000001211000000000121201779000000000000412400000000000504948400000000000000009999123100000010000000000000BRPLPLACNOR5104
012024090902PNVL3       010DIMED       ON      NM   R$  000000000100500000000010050000000000988000000000099500000000009900000000000990000000000099402777000000000000486200000000000483848200000000000000009999123100000010000000000000BRPNVLACNOR9207
012024090902POMO3       010MARCOPOLO   ON  EDJ N2   R$  000000000060600000000006130000000000591000000000059600000000005990000000000593000000000059900284000000000000079100000000000047218600000000000000009999123100000010000000000000BRPOMOACNOR0099
012024090902POMO4       010MARCOPOLO   PN  EDJ N2   R$  000000000079600000000008010000000000768000000000077500000000007780000000000778000000000077914143000000000008277200000000006421380000000000000000009999123100000010000000000000BRPOMOACNPR7099
012024090902PORT3       010WILSON SONS ON      NM   R$  000000000166500000000016910000000001657000000000167200000000016850000000001685000000000169203525000000000001227900000000002053388400000000000000009999123100000010000000000000BRPORTACNOR8109
012024090902POSI3       010POSITIVO TECON      NM   R$  000000000063500000000006380000000000618000000000062300000000006180000000000618000000000062003389000000000001708600000000001066088300000000000000009999123100000010000000000000BRPOSIACNOR9116
012024090902ROMI3       010ROMI        ON      NM   R$  000000000109500000000010950000000001080000000000108500000000010900000000001083000000000109000845000000000000146400000000000158980900000000000000009999123100000010000000000000BRROMIACNOR8195
012024090902RSUL4       010RIOSULENSE  PN           R$  000000000645600000000064660000000006456000000000646100000000064660000000006251000000000646600004000000000000000400000000000002584500000000000000009999123100000010000000000000BRRSULACNPR3114
012024090902RCSL3       010RECRUSUL    ON           R$  000000000076100000000008570000000000761000000000081200000000007960000000000795000000000079606627000000000002611300000000002122214200000000000000009999123100000010000000000000BRRCSLACNOR4134
012024090902RCSL4       010RECRUSUL    PN           R$  000000000010800000000001180000000000107000000000011300000000001130000000000112000000000011301216000000000001938900000000000219652800000000000000009999123100000010000000000000BRRCSLACNPR1134
012024090902RDNI3       010RNI         ON      NM   R$  000000000032100000000003210000000000318000000000032000000000003200000000000318000000000033300006000000000000000700000000000000224200000000000000009999123100000010000000000000BRRDNIACNOR9116
012024090902RDOR3       010REDE D OR   ON      NM   R$  000000000331200000000033680000000003304000000000334600000000033450000000003345000000000335014761000000000004599100000000015390754600000000000000009999123100000010000000000000BRRDORACNOR8113
012024090902WEST3       010WESTWING    ON      NM   R$  000000000008700000000000900000000000085000000000008600000000000850000000000085000000000008700046000000000000074400000000000006407500000000000000009999123100000010000000000000BRWESTACNOR3100
012024090902WHRL3       010WHIRLPOOL   ON           R$  000000000044300000000004430000000000443000000000044300000000004430000000000438000000000044300001000000000000000200000000000000088600000000000000009999123100000010000000000000BRWHRLACNOR5128
012024090902WHRL4       010WHIRLPOOL   PN           R$  000000000045800000000004580000000000458000000000045800000000004580000000000455000000000045900003000000000000000500000000000000229000000000000000009999123100000010000000000000BRWHRLACNPR2128
012024090902WIZC3       010WIZ CO      ON      NM   R$  000000000060200000000006080000000000596000000000060200000000005960000000000596000000000059801997000000000000354200000000000213294900000000000000009999123100000010000000000000BRWIZCACNOR5102
012024090902WLMM3       010WLM IND COM ON           R$  000000000280900000000028090000000002809000000000280900000000028090000000002710000000000288000001000000000000000200000000000000561800000000000000009999123100000010000000000000BRWLMMACNOR6119
012024090902WLMM4       010WLM IND COM PN           R$  000000000350100000000035010000000003165000000000324400000000031650000000003001000000000319800053000000000000005500000000000017846500000000000000009999123100000010000000000000BRWLMMACNPR3119
012024090902MTRE3       010MITRE REALTYON      NM   R$  000000000037600000000003790000000000374000000000037500000000003760000000000375000000000037600786000000000000333300000000000125314500000000000000009999123100000010000000000000BRMTREACNOR6114
012024090902MTSA4       010METISA      PN           R$  000000000430000000000043000000000004153000000000421500000000041940000000004134000000000419400033000000000000005400000000000022765600000000000000009999123100000010000000000000BRMTSAACNPR9072
012024090902MULT3       010MULTIPLAN   ON      N2   R$  000000000259900000000025990000000002570000000000258400000000025900000000002583000000000259111492000000000002118100000000005473846400000000000000009999123100000010000000000000BRMULTACNOR5139
012024090902MWET4       010WETZEL S/A  PN           R$  000000000085700000000008580000000000857000000000085700000000008580000000000857000000000091700017000000000000001700000000000001457000000000000000009999123100000010000000000000BRMWETACNPR3118
012024090902MYPK3       010IOCHP-MAXIONON      NM   R$  000000000116700000000011670000000001144000000000115000000000011500000000001150000000000115403092000000000000524200000000000602848200000000000000009999123100000010000000000000BRMYPKACNOR7155
012024090902LUPA3       010LUPATECH    ON      NM   R$  000000000015100000000001510000000000142000000000014700000000001490000000000147000000000014900294000000000000119800000000000017620800000000000000009999123100000010000000000000BRLUPAACNOR8112
012024090902LVTC3       010WDC NETWORKSON      NM   R$  000000000038400000000003860000000000370000000000037500000000003700000000000370000000000038000056000000000000027100000000000010175600000000000000009999123100000010000000000000BRLVTCACNOR4102
012024090902ODPV3       010ODONTOPREV  ON      NM   R$  000000000115800000000011760000000001150000000000116400000000011680000000001168000000000117303012000000000000672600000000000783500600000000000000009999123100000010000000000000BRODPVACNOR4203
012024090902RAIL3       010RUMO S.A.   ON      NM   R$  000000000215900000000021700000000002126000000000213400000000021300000000002130000000000213114202000000000006408600000000013680886700000000000000009999123100000010000000000000BRRAILACNOR9105
012024090902RAIZ4       010RAIZEN      PN      N2   R$  000000000030400000000003050000000000298000000000030000000000003000000000000299000000000030008941000000000008979100000000002700021800000000000000009999123100000010000000000000BRRAIZACNPR6111
012024090902SYNE3       010SYN PROP TECON      NM   R$  000000000079400000000008020000000000788000000000079400000000007930000000000793000000000079901883000000000000528200000000000419396600000000000000009999123100000010000000000000BRSYNEACNOR2103
012024090902OFSA3       010OUROFINO S/AON      NM   R$  000000000228000000000022800000000002202000000000220700000000022020000000002001000000000223900009000000000000008000000000000017658500000000000000009999123100000010000000000000BROFSAACNOR7118
012024090902ONCO3       010ONCOCLINICASON      NM   R$  000000000051800000000005340000000000512000000000052300000000005330000000000530000000000053304892000000000002546800000000001333384500000000000000009999123100000010000000000000BRONCOACNOR6101
012024090902OPCT3       010OCEANPACT   ON      NM   R$  000000000068900000000007000000000000676000000000068900000000006760000000000676000000000068402137000000000000449600000000000310020100000000000000009999123100000010000000000000BROPCTACNOR0100
012024090902ORVR3       010ORIZON      ON      NM   R$  000000000455300000000047370000000004553000000000468000000000046970000000004689000000000469703159000000000000476800000000002231602000000000000000009999123100000010000000000000BRORVRACNOR0101
012024090902QUAL3       010QUALICORP   ON      NM   R$  000000000021400000000002160000000000204000000000020800000000002080000000000208000000000020902611000000000003310300000000000690042600000000000000009999123100000010000000000000BRQUALACNOR6120
012024090902RADL3       010RAIADROGASILON      NM   R$  000000000274000000000027630000000002729000000000274200000000027450000000002745000000000274707279000000000002768000000000007592589400000000000000009999123100000010000000000000BRRADLACNOR0157
012024090902SMFT3       010SMART FIT   ON      NM   R$  000000000225100000000022510000000002201000000000223200000000022400000000002227000000000224105374000000000001001100000000002234773400000000000000009999123100000010000000000000BRSMFTACNOR1112
012024090902SMTO3       010SAO MARTINHOON      NM   R$  000000000267500000000026750000000002586000000000260700000000025930000000002592000000000260706726000000000001580600000000004121428300000000000000009999123100000010000000000000BRSMTOACNOR3127
012024090902SNSY3       010SANSUY      ON           R$  000000000127100000000013040000000001271000000000129300000000013040000000001270000000000130300003000000000000000600000000000000775800000000000000009999123100000010000000000000BRSNSYACNOR2113
012024090902SNSY5       010SANSUY      PNA          R$  000000000057100000000005900000000000562000000000058500000000005900000000000563000000000058900013000000000000002400000000000001405700000000000000009999123100000010000000000000BRSNSYACNPA5111
012024090902SOJA3       010BOA SAFRA   ON      NM   R$  000000000126700000000012740000000001251000000000125700000000012540000000001254000000000125902877000000000000552200000000000694224000000000000000009999123100000010000000000000BRSOJAACNOR9105
012024090902MAPT3       010CEMEPE      ON           R$  000000000042100000000004210000000000421000000000042100000000004210000000000421000000000065400002000000000000000400000000000000168400000000000000009999123100000010000000000000BRMAPTACNOR8106
012024090902MATD3       010MATER DEI   ON      NM   R$  000000000046400000000004780000000000464000000000047200000000004700000000000470000000000047401231000000000000415500000000000196527900000000000000009999123100000010000000000000BRMATDACNOR4104
012024090902MBLY3       010MOBLY       ON      NM   R$  000000000026700000000002730000000000257000000000026500000000002680000000000260000000000026902314000000000001749200000000000465163800000000000000009999123100000010000000000000BRMBLYACNOR5100
012024090902AERI3       010AERIS       ON      NM   R$  000000000093600000000009810000000000877000000000091900000000008800000000000878000000000088001053000000000000427900000000000393383500000000000000009999123100000010000000000000BRAERIACNOR4102
012024090902AESB3       010AES BRASIL  ON      NM   R$  000000000115400000000011560000000001152000000000115300000000011530000000001152000000000115303375000000000004504000000000005194561300000000000000009999123100000010000000000000BRAESBACNOR7107
012024090902AGRO3       010BRASILAGRO  ON      NM   R$  000000000265400000000026620000000002615000000000262800000000026190000000002616000000000261901205000000000000186500000000000490260500000000000000009999123100000010000000000000BRAGROACNOR7114
012024090902AGXY3       010AGROGALAXY  ON      NM   R$  000000000011900000000001200000000000116000000000011700000000001160000000000116000000000011700203000000000000188600000000000022239300000000000000009999123100000010000000000000BRAGXYACNOR4103
012024090902ALLD3       010ALLIED      ON      NM   R$  000000000083400000000008590000000000803000000000082300000000008080000000000807000000000081700551000000000000137300000000000113059800000000000000009999123100000010000000000000BRALLDACNOR3106
012024090902CAMB3       010CAMBUCI     ON           R$  000000000123400000000012480000000001204000000000122300000000012220000000001205000000000122300201000000000000035500000000000043428800000000000000009999123100000010000000000000BRCAMBACNOR4131
012024090902CAML3       010CAMIL       ON  EDJ NM   R$  000000000096000000000009640000000000929000000000094000000000009320000000000931000000000093602785000000000000511900000000000481238800000000000000009999123100000010000000000000BRCAMLACNOR3129
012024090902GRND3       010GRENDENE    ON      NM   R$  000000000060300000000006040000000000596000000000060000000000006020000000000601000000000060202073000000000000502700000000000302105600000000000000009999123100000010000000000000BRGRNDACNOR3175
012024090902GUAR3       010GUARARAPES  ON      NM   R$  000000000088300000000009050000000000873000000000089200000000008950000000000888000000000089503425000000000000873500000000000779960600000000000000009999123100000010000000000000BRGUARACNOR4173
012024090902ALOS3       010ALLOS       ON      NM   R$  000000000229700000000023030000000002280000000000229100000000022950000000002295000000000229709854000000000002683200000000006147835500000000000000009999123100000010000000000000BRALOSACNOR5101
012024090902BMOB3       010BEMOBI TECH ON      NM   R$  000000000150600000000015250000000001494000000000151200000000015180000000001518000000000152401555000000000000206300000000000312131100000000000000009999123100000010000000000000BRBMOBACNOR7103
012024090902BOBR4       010BOMBRIL     PN           R$  000000000022400000000002290000000000222000000000022500000000002220000000000222000000000022600038000000000000019100000000000004313500000000000000009999123100000010000000000000BRBOBRACNPR3128
012024090902BRIT3       010BRISANET    ON      NM   R$  000000000033400000000003360000000000325000000000032800000000003280000000000327000000000032900907000000000000510500000000000167562700000000000000009999123100000010000000000000BRBRITACNOR0103
012024090902BRKM3       010BRASKEM     ON      N1   R$  000000000194600000000019590000000001813000000000184100000000018130000000001813000000000184800057000000000000010600000000000019523000000000000000009999123100000010000000000000BRBRKMACNOR1119
012024090902BRKM5       010BRASKEM     PNA     N1   R$  000000000189000000000018900000000001809000000000182900000000018110000000001811000000000181308777000000000003342900000000006116194500000000000000009999123100000010000000000000BRBRKMACNPA4121
012024090902BBSE3       010BBSEGURIDADEON      NM   R$  000000000367100000000036800000000003642000000000366500000000036640000000003663000000000366510892000000000005083700000000018634393600000000000000009999123100000010000000000000BRBBSEACNOR5125
012024090902BPAC11      010BTGP BANCO  UNT     N2   R$  000000000350100000000035650000000003482000000000353300000000035590000000003557000000000356215947000000000006448000000000022785327600000000000000009999123100000010000000000000BRBPACUNT006119
012024090902BPAC3       010BTGP BANCO  ON      N2   R$  000000000162400000000016290000000001612000000000162000000000016290000000001620000000000163800023000000000000004000000000000006480100000000000000009999123100000010000000000000BRBPACACNOR7134
012024090902BPAC5       010BTGP BANCO  PNA     N2   R$  000000000094000000000009640000000000939000000000095200000000009520000000000944000000000095500030000000000000003500000000000003335300000000000000009999123100000010000000000000BRBPACACNPA0134
012024090902SLCE3       010SLC AGRICOLAON      NM   R$  000000000173600000000017420000000001712000000000172100000000017120000000001712000000000171505922000000000002703200000000004652935300000000000000009999123100000010000000000000BRSLCEACNOR2125
012024090902PDGR3       010PDG REALT   ON      NM   R$  000000000001600000000000160000000000015000000000001500000000000160000000000015000000000001600210000000000000724800000000000011163000000000000000009999123100000010000000000000BRPDGRACNOR8119
012024090902PDTC3       010PADTEC      ON      NM   R$  000000000020100000000002050000000000190000000000019300000000001900000000000190000000000019300110000000000000102900000000000019917600000000000000009999123100000010000000000000BRPDTCACNOR3101
012024090902PEAB3       010PAR AL BAHIAON           R$  000000000430000000000043000000000004300000000000430000000000043000000000000000000000000440000001000000000000000200000000000000860000000000000000009999123100000010000000000000BRPEABACNOR3133
012024090902PETR3       010PETROBRAS   ON      N2   R$  000000000413200000000042020000000004112000000000417300000000041680000000004167000000000416831399000000000015994900000000066757691300000000000000009999123100000010000000000000BRPETRACNOR9206
012024090902NTCO3       010GRUPO NATURAON      NM   R$  000000000136300000000013710000000001352000000000136000000000013600000000001360000000000136208754000000000003539800000000004816743000000000000000009999123100000010000000000000BRNTCOACNOR5106
012024090902ATOM3       010ATOMPAR     ON           R$  000000000021500000000002150000000000209000000000021300000000002150000000000215000000000021600027000000000000003900000000000000832700000000000000009999123100000010000000000000BRATOMACNOR1106
012024090902AURE3       010AUREN       ON      NM   R$  000000000113500000000011400000000001111000000000112200000000011170000000001116000000000111711417000000000005731400000000006431594600000000000000009999123100000010000000000000BRAUREACNOR9104
012024090902CXSE3       010CAIXA SEGURION      NM   R$  000000000158500000000015880000000001558000000000157000000000015750000000001575000000000157608154000000000003070900000000004822810300000000000000009999123100000010000000000000BRCXSEACNOR7107
012024090902CYRE3       010CYRELA REALTON      NM   R$  000000000215500000000021850000000002149000000000216300000000021500000000002150000000000215313113000000000003047700000000006593583200000000000000009999123100000010000000000000BRCYREACNOR7140
012024090902GEPA4       010GER PARANAP PN           R$  000000000285000000000028500000000002800000000000284200000000028500000000002801000000000285000012000000000000001900000000000005400100000000000000009999123100000010000000000000BRGEPAACNPR9160
012024090902GFSA3       010GAFISA      ON      NM   R$  000000000025900000000002610000000000246000000000025200000000002490000000000248000000000024902658000000000004189900000000001057971000000000000000009999123100000010000000000000BRGFSAACNOR3125
012024090902GGBR3       010GERDAU      ON      N1   R$  000000000162000000000016690000000001620000000000165600000000016490000000001647000000000165700238000000000000041700000000000069061300000000000000009999123100000010000000000000BRGGBRACNOR1193
012024090902GGBR4       010GERDAU      PN      N1   R$  000000000182700000000018780000000001825000000000185600000000018500000000001850000000000185120657000000000010252000000000019033169000000000000000009999123100000010000000000000BRGGBRACNPR8193
012024090902ITUB3       010ITAUUNIBANCOON  EJ  N1   R$  000000000325200000000032620000000003231000000000324800000000032440000000003243000000000324402682000000000000695500000000002259063600000000000000009999123100000010000000000000BRITUBACNOR4340
012024090902ITUB4       010ITAUUNIBANCOPN  EJ  N1   R$  000000000370200000000037450000000003697000000000372900000000037310000000003730000000000373126872000000000013666700000000050965031200000000000000009999123100000010000000000000BRITUBACNPR1340
012024090902BAHI3       010BAHEMA      ON      MA   R$  000000000067500000000006980000000000660000000000066500000000006980000000000670000000000069800010000000000000004000000000000002661500000000000000009999123100000010000000000000BRBAHIACNOR1074
012024090902BEES3       010BANESTES    ON  EJ       R$  000000000090400000000009240000000000880000000000089800000000009230000000000909000000000092300251000000000000052700000000000047331100000000000000009999123100000010000000000000BRBEESACNOR9395
012024090902BEES4       010BANESTES    PN  EJ       R$  000000000096000000000009670000000000951000000000095700000000009610000000000952000000000096500031000000000000004500000000000004307400000000000000009999123100000010000000000000BRBEESACNPR6320
012024090902BGIP3       010BANESE      ON  ES       R$  000000000255000000000025500000000002550000000000255000000000025500000000002370000000000335800001000000000000000100000000000000255000000000000000009999123100000010000000000000BRBGIPACNOR1210
012024090902BGIP4       010BANESE      PN  ES       R$  000000000255000000000026300000000002525000000000258700000000026300000000002600000000000263600013000000000000002000000000000005175100000000000000009999123100000010000000000000BRBGIPACNPR8210
012024090902SANB11      010SANTANDER BRUNT          R$  000000000310600000000031360000000003100000000000312400000000031290000000003126000000000313604584000000000000905900000000002830748600000000000000009999123100000010000000000000BRSANBCDAM13165
012024090902SANB3       010SANTANDER BRON           R$  000000000148700000000014970000000001480000000000149100000000014930000000001490000000000149300440000000000000065500000000000097672500000000000000009999123100000010000000000000BRSANBACNOR8172
012024090902SANB4       010SANTANDER BRPN           R$  000000000161700000000016370000000001617000000000163100000000016290000000001629000000000163700379000000000000068500000000000111754200000000000000009999123100000010000000000000BRSANBACNPR5172
012024090902TOTS3       010TOTVS       ON      NM   R$  000000000293000000000029550000000002907000000000292300000000029210000000002919000000000293305758000000000001084500000000003170960800000000000000009999123100000010000000000000BRTOTSACNOR8145
012024090902TPIS3       010TRIUNFO PARTON      NM   R$  000000000049500000000005030000000000474000000000048600000000004750000000000475000000000048400193000000000000049400000000000024033000000000000000009999123100000010000000000000BRTPISACNOR8118
012024090902TRAD3       010TC          ON      NM   R$  000000000026500000000002880000000000264000000000027300000000002820000000000276000000000028200206000000000000152900000000000041810800000000000000009999123100000010000000000000BRTRADACNOR3102
012024090902TRIS3       010TRISUL      ON      NM   R$  000000000046200000000004690000000000459000000000046200000000004680000000000463000000000046801163000000000000367100000000000169903400000000000000009999123100000010000000000000BRTRISACNOR4118
012024090902TRPL3       010TRAN PAULISTON      N1   R$  000000000317700000000032190000000003177000000000318800000000032190000000003183000000000321900013000000000000001600000000000005100900000000000000009999123100000010000000000000BRTRPLACNOR4185
012024090902TRPL4       010TRAN PAULISTPN      N1   R$  000000000248800000000024920000000002466000000000247900000000024850000000002484000000000248505185000000000001226300000000003040202500000000000000009999123100000010000000000000BRTRPLACNPR1185
012024090902TTEN3       0103TENTOS     ON      NM   R$  000000000120000000000012320000000001200000000000121800000000012240000000001219000000000122406382000000000001216000000000001481289600000000000000009999123100000010000000000000BRTTENACNOR0103
012024090902TUPY3       010TUPY        ON      NM   R$  000000000272100000000027310000000002662000000000268400000000026840000000002683000000000268902465000000000000382800000000001027497000000000000000009999123100000010000000000000BRTUPYACNOR1184
012024090902VITT3       010VITTIA      ON      NM   R$  000000000062500000000006250000000000612000000000061500000000006150000000000613000000000061800671000000000000200600000000000123451400000000000000009999123100000010000000000000BRVITTACNOR4107
012024090902VIVA3       010VIVARA S.A. ON      NM   R$  000000000279000000000027910000000002732000000000275700000000027490000000002745000000000275008023000000000001428400000000003938346100000000000000009999123100000010000000000000BRVIVAACNOR0107
012024090902VIVR3       010VIVER       ON      NM   R$  000000000021800000000002260000000000216000000000021900000000002160000000000216000000000021900088000000000000015300000000000003360500000000000000009999123100000010000000000000BRVIVRACNOR4123
012024090902VIVT3       010TELEF BRASILON           R$  000000000551000000000055190000000005412000000000543600000000054190000000005417000000000542410637000000000001963000000000010672081600000000000000009999123100000010000000000000BRVIVTACNOR0184
012024090902VLID3       010VALID       ON      NM   R$  000000000227300000000022900000000002257000000000227500000000022700000000002270000000000228201198000000000000163700000000000372470000000000000000009999123100000010000000000000BRVLIDACNOR5144
012024090902PETZ3       010PETZ        ON      NM   R$  000000000048700000000004940000000000485000000000048700000000004850000000000485000000000048604544000000000006177600000000003009699500000000000000009999123100000010000000000000BRPETZACNOR2110
012024090902RECV3       010PETRORECSA  ON      NM   R$  000000000193300000000019350000000001891000000000190700000000019050000000001905000000000190613098000000000003013900000000005748124500000000000000009999123100000010000000000000BRRECVACNOR3107
012024090902REDE3       010REDE ENERGIAON           R$  000000000069000000000006970000000000690000000000069200000000006910000000000691000000000069600005000000000000001000000000000000692800000000000000009999123100000010000000000000BRREDEACNOR7128
012024090902RENT3       010LOCALIZA    ON      NM   R$  000000000424600000000042500000000004155000000000418000000000041550000000004155000000000416718759000000000004958600000000020730993000000000000000009999123100000010000000000000BRRENTACNOR4196
012024090902TAEE11      010TAESA       UNT     N2   R$  000000000358200000000036000000000003567000000000357800000000035670000000003566000000000356706062000000000001151300000000004120383200000000000000009999123100000010000000000000BRTAEECDAM10148
012024090902TAEE3       010TAESA       ON      N2   R$  000000000118600000000011930000000001182000000000118700000000011840000000001184000000000119000359000000000000057000000000000067709600000000000000009999123100000010000000000000BRTAEEACNOR9148
012024090902TAEE4       010TAESA       PN      N2   R$  000000000119000000000012010000000001190000000000119500000000011950000000001194000000000119500607000000000000164000000000000196067400000000000000009999123100000010000000000000BRTAEEACNPR6148
012024090902TASA3       010TAURUS ARMASON      N2   R$  000000000112400000000011340000000001119000000000112400000000011200000000001120000000000113400038000000000000007100000000000007981100000000000000009999123100000010000000000000BRTASAACNOR7104
012024090902TASA4       010TAURUS ARMASPN      N2   R$  000000000112500000000011280000000001113000000000111700000000011150000000001115000000000111601030000000000000196900000000000220132800000000000000009999123100000010000000000000BRTASAACNPR4104
012024090902TCSA3       010TECNISA     ON      NM   R$  000000000019400000000001990000000000192000000000019500000000001920000000000192000000000019500105000000000000037300000000000007294400000000000000009999123100000010000000000000BRTCSAACNOR3112
012024090902TECN3       010TECHNOS     ON      NM   R$  000000000051300000000005160000000000504000000000050700000000005040000000000503000000000050600138000000000000054200000000000027499000000000000000009999123100000010000000000000BRTECNACNOR6109
012024090902TELB3       010TELEBRAS    ON           R$  000000000144500000000014450000000001437000000000143800000000014370000000001436000000000148300005000000000000000500000000000000719100000000000000009999123100000010000000000000BRTELBACNOR2140
012024090902TELB4       010TELEBRAS    PN           R$  000000000097800000000009880000000000959000000000096700000000009590000000000956000000000098500013000000000000001900000000000001837400000000000000009999123100000010000000000000BRTELBACNPR9140
012024090902TEND3       010TENDA       ON      NM   R$  000000000130800000000013200000000001295000000000130500000000013000000000001299000000000130004234000000000001153900000000001506429300000000000000009999123100000010000000000000BRTENDACNOR4111
012024090902TFCO4       010TRACK FIELD PN      N2   R$  000000000114200000000011580000000001142000000000115000000000011500000000001146000000000115400211000000000000116200000000000133689900000000000000009999123100000010000000000000BRTFCOACNPR8114
012024090902TGMA3       010TEGMA       ON      NM   R$  000000000274900000000027690000000002732000000000275100000000027550000000002753000000000275501184000000000000155200000000000427078800000000000000009999123100000010000000000000BRTGMAACNOR7145
012024090902TIMS3       010TIM         ON      NM   R$  000000000183900000000018440000000001811000000000182000000000018130000000001813000000000181505623000000000003529100000000006424733700000000000000009999123100000010000000000000BRTIMSACNOR5117
012024090902VAMO3       010VAMOS       ON      NM   R$  000000000074100000000007540000000000739000000000074500000000007430000000000743000000000074409715000000000005579000000000004158020200000000000000009999123100000010000000000000BRVAMOACNOR7105
012024090902VBBR3       010VIBRA       ON      NM   R$  000000000259900000000026330000000002596000000000261800000000026050000000002604000000000261016751000000000005057500000000013241643500000000000000009999123100000010000000000000BRVBBRACNOR1108
012024090902YDUQ3       010YDUQS PART  ON      NM   R$  000000000096900000000009690000000000945000000000095800000000009610000000000960000000000096209980000000000006342500000000006079631800000000000000009999123100000010000000000000BRYDUQACNOR3105
012024090902ZAMP3       010ZAMP S.A.   ON           R$  000000000030900000000003120000000000300000000000030300000000003030000000000302000000000030301969000000000000389400000000000118018100000000000000009999123100000010000000000000BRZAMPACNOR5101
012024090902RANI3       010IRANI       ON      NM   R$  000000000076700000000007700000000000756000000000076000000000007560000000000755000000000075803949000000000001145300000000000870973100000000000000009999123100000010000000000000BRRANIACNOR5073
012024090902RAPT3       010RANDON PART ON      N1   R$  000000000087000000000008800000000000868000000000087000000000008800000000000874000000000088000034000000000000012800000000000011147600000000000000009999123100000010000000000000BRRAPTACNOR7163
012024090902RAPT4       010RANDON PART PN      N1   R$  000000000109400000000011030000000001086000000000109400000000010950000000001093000000000109604173000000000002028800000000002219534200000000000000009999123100000010000000000000BRRAPTACNPR4163
012024090902DASA3       010DASA        ON      NM   R$  000000000031100000000003110000000000290000000000029800000000003020000000000302000000000030302730000000000000925300000000000276087000000000000000009999123100000010000000000000BRDASAACNOR1122
012024090902DESK3       010DESKTOP     ON      NM   R$  000000000149200000000014950000000001452000000000147200000000014730000000001473000000000148000599000000000000124000000000000182576300000000000000009999123100000010000000000000BRDESKACNOR2104
012024090902DEXP3       010DEXXOS PAR  ON      N1   R$  000000000091000000000009180000000000898000000000090400000000008980000000000898000000000090000568000000000000116900000000000105772900000000000000009999123100000010000000000000BRDEXPACNOR1105
012024090902DEXP4       010DEXXOS PAR  PN      N1   R$  000000000090700000000009070000000000896000000000090000000000009050000000000900000000000090400042000000000000008700000000000007836500000000000000009999123100000010000000000000BRDEXPACNPR8105
012024090902JSLG3       010JSL         ON      NM   R$  000000000096000000000009780000000000942000000000095500000000009500000000000950000000000095102224000000000000336700000000000321788500000000000000009999123100000010000000000000BRJSLGACNOR2121
012024090902ALPA3       010ALPARGATAS  ON      N1   R$  000000000077000000000007700000000000745000000000074800000000007450000000000745000000000079900006000000000000001000000000000000748900000000000000009999123100000010000000000000BRALPAACNOR0231
012024090902SRNA3       010SERENA      ON      NM   R$  000000000084200000000008520000000000832000000000084300000000008430000000000842000000000084704076000000000001779900000000001502104800000000000000009999123100000010000000000000BRSRNAACNOR4100
012024090902STBP3       010SANTOS BRP  ON      NM   R$  000000000136300000000013770000000001346000000000136300000000013700000000001367000000000137010627000000000004087400000000005572654500000000000000009999123100000010000000000000BRSTBPACNOR3131
012024090902SUZB3       010SUZANO S.A. ON      NM   R$  000000000543600000000054650000000005401000000000542700000000054120000000005407000000000541313818000000000002960100000000016067037100000000000000009999123100000010000000000000BRSUZBACNOR0130
012024090902PRNR3       010PRINER      ON      NM   R$  000000000131700000000013250000000001301000000000131200000000013120000000001312000000000131400797000000000000210600000000000276507300000000000000009999123100000010000000000000BRPRNRACNOR4109
012024090902PSSA3       010PORTO SEGUROON      NM   R$  000000000345400000000034620000000003426000000000343500000000034320000000003430000000000343204269000000000000746800000000002565909300000000000000009999123100000010000000000000BRPSSAACNOR7155
012024090902PTBL3       010PORTOBELLO  ON      NM   R$  000000000049200000000004930000000000487000000000048900000000004890000000000489000000000049100703000000000000201200000000000098405700000000000000009999123100000010000000000000BRPTBLACNOR8132
012024090902PTNT4       010PETTENATI   PN           R$  000000000075000000000007500000000000743000000000074500000000007450000000000745000000000075000052000000000000012100000000000009022000000000000000009999123100000010000000000000BRPTNTACNPR3047
012024090902VALE3       010VALE        ON      NM   R$  000000000571100000000057340000000005667000000000569600000000056680000000005667000000000567024378000000000010204400000000058133114300000000000000009999123100000010000000000000BRVALEACNOR0211
012024090902SCAR3       010SAO CARLOS  ON      NM   R$  000000000230200000000023060000000002290000000000229800000000022930000000002290000000000229300021000000000000002800000000000006434700000000000000009999123100000010000000000000BRSCARACNOR7131
012024090902SEER3       010SER EDUCA   ON      NM   R$  000000000061700000000006180000000000595000000000060300000000005950000000000594000000000059901319000000000000432800000000000261359900000000000000009999123100000010000000000000BRSEERACNOR5119
012024090902SEQL3       010SEQUOIA LOG ON      NM   R$  000000000058800000000006040000000000571000000000058200000000005800000000000575000000000058001148000000000000429500000000000250345000000000000000009999123100000010000000000000BRSEQLACNOR2103
012024090902SHOW3       010TIME FOR FUNON      NM   R$  000000000009800000000001000000000000095000000000009700000000000950000000000095000000000009600257000000000000151400000000000014717100000000000000009999123100000010000000000000BRSHOWACNOR7105
012024090902SHUL4       010SCHULZ      PN           R$  000000000065800000000006580000000000649000000000065300000000006550000000000655000000000065600436000000000000217300000000000142020800000000000000009999123100000010000000000000BRSHULACNPR4156
012024090902SIMH3       010SIMPAR      ON      NM   R$  000000000060000000000006010000000000578000000000058600000000005850000000000584000000000058505732000000000003133800000000001838119800000000000000009999123100000010000000000000BRSIMHACNOR0107
012024090902PETR4       010PETROBRAS   PN      N2   R$  000000000378400000000038250000000003761000000000379900000000037960000000003795000000000379644707000000000030521800000000115954938100000000000000009999123100000010000000000000BRPETRACNPR6214
012024090902PRIO3       010PETRORIO    ON      NM   R$  000000000426600000000042770000000004192000000000421700000000041960000000004196000000000419826088000000000008410400000000035468925800000000000000009999123100000010000000000000BRPRIOACNOR1107
012024090902SAPR11      010SANEPAR     UNT     N2   R$  000000000300000000000030530000000002983000000000303100000000030310000000003021000000000303806081000000000001027400000000003114699600000000000000009999123100000010000000000000BRSAPRCDAM13118
012024090902SAPR3       010SANEPAR     ON      N2   R$  000000000057700000000005830000000000572000000000057700000000005760000000000575000000000057900557000000000000156100000000000090147300000000000000009999123100000010000000000000BRSAPRACNOR9159
012024090902SAPR4       010SANEPAR     PN      N2   R$  000000000060600000000006140000000000602000000000061000000000006130000000000612000000000061402131000000000000963100000000000587505500000000000000009999123100000010000000000000BRSAPRACNPR6159
012024090902SBFG3       010GRUPO SBF   ON      NM   R$  000000000182300000000018300000000001766000000000178700000000017710000000001771000000000177407416000000000001823600000000003259134700000000000000009999123100000010000000000000BRSBFGACNOR1103
012024090902SBSP3       010SABESP      ON      NM   R$  000000000948400000000094840000000009391000000000945500000000094790000000009477000000000948111627000000000002402600000000022717352800000000000000009999123100000010000000000000BRSBSPACNOR5161
012024090902UCAS3       010UNICASA     ON      NM   R$  000000000022500000000002260000000000222000000000022400000000002250000000000223000000000022500060000000000000042300000000000009488900000000000000009999123100000010000000000000BRUCASACNOR1113
012024090902UGPA3       010ULTRAPAR    ON      NM   R$  000000000235500000000024270000000002347000000000239900000000023790000000002379000000000238125434000000000007032200000000016872477600000000000000009999123100000010000000000000BRUGPAACNOR8156
012024090902UNIP3       010UNIPAR      ON           R$  000000000482000000000048540000000004730000000000477800000000047590000000004757000000000477000066000000000000007000000000000033448400000000000000009999123100000010000000000000BRUNIPACNOR7206
012024090902UNIP6       010UNIPAR      PNB          R$  000000000482900000000048290000000004759000000000478200000000047730000000004772000000000477301027000000000000136700000000000653723500000000000000009999123100000010000000000000BRUNIPACNPB8206
012024090902USIM3       010USIMINAS    ON      N1   R$  000000000059400000000005940000000000580000000000058300000000005820000000000582000000000058301468000000000000482200000000000281461200000000000000009999123100000010000000000000BRUSIMACNOR3167
012024090902USIM5       010USIMINAS    PNA     N1   R$  000000000060300000000006040000000000583000000000058800000000005840000000000583000000000058410177000000000010573900000000006226988000000000000000009999123100000010000000000000BRUSIMACNPA6169
012024090902VSTE3       010VESTE       ON      NM   R$  000000000130000000000013000000000001300000000000130000000000013000000000001290000000000129900001000000000000000100000000000000130000000000000000009999123100000010000000000000BRVSTEACNOR5103
012024090902VTRU3       010VITRUEDUCA  ON      NM   R$  000000000098900000000010260000000000981000000000100300000000010150000000000998000000000101700716000000000000187600000000000188319100000000000000009999123100000010000000000000BRVTRUACNOR3100
012024090902VULC3       010VULCABRAS   ON      NM   R$  000000000184500000000018450000000001792000000000180500000000018000000000001799000000000180002779000000000000746800000000001348569000000000000000009999123100000010000000000000BRVULCACNOR2161
012024090902VVEO3       010VIVEO       ON      NM   R$  000000000020300000000002030000000000193000000000019600000000001930000000000193000000000019404774000000000002269900000000000446153700000000000000009999123100000010000000000000BRVVEOACNOR0104
012024090902DIRR3       010DIRECIONAL  ON      NM   R$  000000000310900000000031300000000003077000000000310600000000031260000000003120000000000312806851000000000001150700000000003574378300000000000000009999123100000010000000000000BRDIRRACNOR0118
012024090902DMVF3       010D1000VFARMA ON      NM   R$  000000000070200000000007040000000000691000000000069600000000007040000000000693000000000070400228000000000000044200000000000030806700000000000000009999123100000010000000000000BRDMVFACNOR9100
012024090902DOTZ3       010DOTZ SA     ON      NM   R$  000000000076200000000008190000000000737000000000077000000000007550000000000747000000000075500338000000000000076400000000000058876200000000000000009999123100000010000000000000BRDOTZACNOR7101
012024090902DXCO3       010DEXCO       ON      NM   R$  000000000077700000000007860000000000772000000000077700000000007720000000000772000000000077304475000000000001652100000000001284292700000000000000009999123100000010000000000000BRDXCOACNOR8105
012024090902WEGE3       010WEG         ON      NM   R$  000000000528500000000053030000000005207000000000524500000000052450000000005243000000000524915668000000000004805900000000025207261400000000000000009999123100000010000000000000BRWEGEACNOR0224
012024090907NUTR3       010NUTRIPLANT  ON      MA   R$  000000000047200000000004790000000000469000000000047500000000004750000000000473000000000048000014000000000000001400000000000000665200000000000000009999123100000010000000000000BRNUTRACNOR0104
012024090908AMER3       010AMERICANAS  ON      NM   R$  000000000067800000000006890000000000663000000000067300000000006890000000000688000000000068904090000000000003911300000000002634372700000000000000009999123100000010000000000000BRAMERACNOR6103
012024090908BDLL3       010BARDELLA    ON           R$  000000000120000000000012000000000001200000000000120000000000012000000000001100000000000150000014000000000000002500000000000003000000000000000000009999123100000010000000000000BRBDLLACNOR1149
012024090908BDLL4       010BARDELLA    PN           R$  000000000094000000000009400000000000940000000000094000000000009400000000000900000000000098600011000000000000005500000000000005170000000000000000009999123100000010000000000000BRBDLLACNPR8151
012024090908HOOT4       010HOTEIS OTHONPN           R$  000000000022700000000002430000000000226000000000022700000000002390000000000226000000000023400011000000000000003600000000000000819600000000000000009999123100000010000000000000BRHOOTACNPR9015
012024090908JFEN3       010JOAO FORTES ON           R$  000000000002000000000000250000000000020000000000002200000000000230000000000023000000000002400893000000000006082000000000000139854300000000000000009999123100000010000000000000BRJFENACNOR0059
012024090908CTSA3       010SANTANENSE  ON           R$  000000000027300000000002730000000000273000000000027300000000002730000000000272000000000027300003000000000000001700000000000000464100000000000000009999123100000010000000000000BRCTSAACNOR3062
012024090908CTSA4       010SANTANENSE  PN           R$  000000000012500000000001280000000000122000000000012300000000001220000000000122000000000012400125000000000000045200000000000005595300000000000000009999123100000010000000000000BRCTSAACNPR0062
012024090908LIGT3       010LIGHT S/A   ON      NM   R$  000000000081200000000008290000000000783000000000079600000000008010000000000791000000000080104839000000000001473900000000001174449500000000000000009999123100000010000000000000BRLIGTACNOR2124
012024090908NEXP3       010NEXPE       ON           R$  000000000041700000000004170000000000405000000000040700000000004060000000000405000000000041400004000000000000000500000000000000203800000000000000009999123100000010000000000000BRNEXPACNOR0101
012024090908PMAM3       010PARANAPANEMAON      NM   R$  000000000017600000000001780000000000173000000000017400000000001750000000000173000000000017500111000000000000071500000000000012491000000000000000009999123100000010000000000000BRPMAMACNOR3039
012024090908RNEW11      010RENOVA      UNT     N2   R$  000000000032600000000003260000000000310000000000031300000000003170000000000310000000000032000019000000000000002900000000000000908200000000000000009999123100000010000000000000BRRNEWCDAM15110
012024090908RNEW3       010RENOVA      ON      N2   R$  000000000010800000000001080000000000104000000000010500000000001050000000000105000000000010600043000000000000018400000000000001938000000000000000009999123100000010000000000000BRRNEWACNOR8110
012024090908RNEW4       010RENOVA      PN      N2   R$  000000000010800000000001090000000000102000000000010400000000001020000000000102000000000010400084000000000000041300000000000004329600000000000000009999123100000010000000000000BRRNEWACNPR5110
012024090908RPMG3       010PET MANGUINHON           R$  000000000031500000000003160000000000300000000000030600000000003020000000000301000000000030300153000000000000028000000000000008592900000000000000009999123100000010000000000000BRRPMGACNOR9194
012024090908RSID3       010ROSSI RESID ON      NM   R$  000000000037500000000003850000000000375000000000038100000000003850000000000377000000000038500035000000000000003900000000000001486300000000000000009999123100000010000000000000BRRSIDACNOR8120
012024090908OIBR3       010OI          ON  ES  N1   R$  000000000051100000000005150000000000479000000000049500000000004850000000000485000000000048600932000000000000547200000000000271167600000000000000009999123100000010000000000000BROIBRACNOR1112
012024090908OIBR4       010OI          PN  ES  N1   R$  000000000119600000000011970000000001190000000000119400000000011900000000001186000000000119600009000000000000001000000000000001194400000000000000009999123100000010000000000000BROIBRACNPR8111
012024090908OSXB3       010OSX BRASIL  ON      NM   R$  000000000039000000000003930000000000378000000000038600000000003810000000000381000000000038900034000000000000016900000000000006533000000000000000009999123100000010000000000000BROSXBACNOR8109
012024090908ATMP3       010ATMASA      ON           R$  000000000013200000000001360000000000132000000000013400000000001350000000000134000000000013500022000000000000009200000000000001234900000000000000009999123100000010000000000000BRATMPACNOR8100
012024090910EQTL1       010EQUATORIAL  DIR ORD NM   R$  000000000025300000000002550000000000217000000000022900000000002440000000000232000000000024400477000000000000478100000000000109916000000000000000009999123100000010000000000000BREQTLD04OR9130
012024090910OIBR1       010OI          DIR ORD N1   R$  000000000000700000000000080000000000004000000000000500000000000050000000000004000000000000502782000000000016040400000000000086001800000000000000009999123100000010000000000000BROIBRD05OR7111
012024090910AESB1       010AES BRASIL  DIR ORD NM   R$  000000000004600000000000690000000000041000000000004700000000000420000000000042000000000004700138000000000000067000000000000003194200000000000000009999123100000010000000000000BRAESBD03OR8106
012024090910GFSA1       010GAFISA      DIR ORD NM   R$  000000000000100000000000010000000000001000000000000100000000000010000000000000000000000000100154000000000000348100000000000000348100000000000000009999123100000010000000000000BRGFSAD11OR7124
012024090910RENT9       010LOCALIZA    ON  REC NM   R$  000000000421800000000042180000000004143000000000414800000000041430000000004143000000000424900009000000000000002400000000000009955300000000000000009999123100000010000000000000BRRENTR06OR8195
012024090910ZAMP9       010ZAMP S.A.   ON  REC      R$  000000000030000000000003100000000000300000000000030600000000003100000000000295000000000030500005000000000000000500000000000000153300000000000000009999123100000010000000000000BRZAMPR01OR0100
012024090912GGRC11      010FII GGRCOVEPCI  ER       R$  000000000109100000000010910000000001085000000000108800000000010860000000001086000000000108806643000000000000153660000000000167194396000000000000009999123100000010000000000000BRGGRCCTF002197
012024090912GLOG11      010FII PLURAL LCI  ER       R$  000000000626000000000062640000000006250000000000625400000000062500000000006250000000000626400020000000000000000069000000000000431532000000000000009999123100000010000000000000BRGLOGCTF000116
012024090912MINT11      010FII MINT EDUCI           R$  000000000953000000000095300000000009501000000000950400000000095010000000009501000000000989900007000000000000000053000000000000503727000000000000009999123100000010000000000000BRMINTCTF009103
012024090912EMET11      010FII EMET    CI           R$  000000000099500000000010200000000000995000000000100000000000010000000000000995000000000102000032000000000000000811000000000000811270000000000000009999123100000010000000000000BREMETCTF007100
012024090912EQIR11      010FII EQI RECECI           R$  000000000091400000000009160000000000905000000000091000000000009090000000000905000000000090900203000000000000010919000000000009939532000000000000009999123100000010000000000000BREQIRCTF003135
012024090912ICRI11      010FII CI IPCA CI  ER       R$  000000000965000000000097060000000009628000000000966300000000096700000000009650000000000966900215000000000000004800000000000046384532000000000000009999123100000010000000000000BRICRICTF004107
012024090912IDFI11      010FII UNIDADESCI  ERA      R$  000000000064800000000006500000000000600000000000062900000000006200000000000603000000000062000042000000000000001195000000000000752660000000000000009999123100000010000000000000BRIDFICTF007135
012024090912IDGR11      010FII UNID II CI  ERA      R$  000000000060100000000006010000000000565000000000059200000000005650000000000200000000000064500005000000000000000221000000000000130985000000000000009999123100000010000000000000BRIDGRCTF006130
012024090912ABCP11      010FII ABC IMOBCI  ER       R$  000000000711800000000071370000000007066000000000710100000000070750000000007066000000000707500092000000000000000519000000000003685857000000000000009999123100000010000000000000BRABCPCTF000342
012024090912BARI11      010FII BARIGUI CI  ER       R$  000000000785100000000078890000000007831000000000786000000000078740000000007864000000000787400665000000000000004844000000000038075928000000000000009999123100000010000000000000BRBARICTF003165
012024090912BICR11      010FII INTER   CI  ER       R$  000000000391900000000041810000000003919000000000417000000000041800000000003919000000000418000009000000000000000029000000000000120958000000000000009999123100000010000000000000BRBICRCTF009155
012024090912BIME11      010FII BRIO ME CI  ER       R$  000000000073000000000007300000000000725000000000072600000000007270000000000726000000000072700206000000000000005420000000000003936221000000000000009999123100000010000000000000BRBIMECTF006135
012024090912MFAI11      010FII MERITOFACI  ER       R$  000000000673100000000068990000000006731000000000682700000000068280000000006761000000000682800018000000000000000051000000000000348213000000000000009999123100000010000000000000BRMFAICTF005154
012024090912BBFI11      010FII BB PROGRCI           R$  000000005150000000000526170000000050505000000005125400000000505050000000050505000000005171900110000000000000000375000000000019220308000000000000009999123100000010000000000000BRBBFICTF006329
012024090912BBFO11      010FII BB FOF  CI  ER       R$  000000000728000000000072800000000007173000000000722900000000072470000000007226000000000724600148000000000000003178000000000022975917000000000000009999123100000010000000000000BRBBFOCTF004144
012024090912BBIG11      010FII BBIG    CI  ER       R$  000000000094200000000009420000000000931000000000093400000000009310000000000930000000000093102672000000000000047176000000000044101660000000000000009999123100000010000000000000BRBBIGCTF004104
012024090912CARE11      010FII DEA CARECI           R$  000000000015500000000001570000000000155000000000015500000000001570000000000156000000000015700135000000000000001654000000000000258001000000000000009999123100000010000000000000BRCARECTF000112
012024090912EDFO11      010FII OURINVESCI  ER       R$  000000001640000000000164000000000016340000000001636000000000163400000000016341000000001759500002000000000000000018000000000000294480000000000000009999123100000010000000000000BREDFOCTF004326
012024090912EDGA11      010FII GALERIA CI           R$  000000000178400000000018480000000001773000000000178900000000017990000000001800000000000182300054000000000000001416000000000002534588000000000000009999123100000010000000000000BREDGACTF001244
012024090912ALZC11      010FII ALIANZACCI           R$  000000000960000000000096000000000009451000000000953600000000094510000000009451000000000960000007000000000000000022000000000000209808000000000000009999123100000010000000000000BRALZCCTF016106
012024090912ALZM11      010FII ALIANZMECI           R$  000000000077700000000007770000000000769000000000077000000000007700000000000769000000000077001604000000000000027050000000000020854805000000000000009999123100000010000000000000BRALZMCTF007125
012024090912ALZR11      010FII ALIANZA CI           R$  000000001075800000000107960000000010745000000001076700000000107500000000010750000000001076202220000000000000015620000000000168180609000000000000009999123100000010000000000000BRALZRCTF006185
012024090912APTO11      010FII NAVI RSDCI  ER       R$  000000000096600000000009690000000000950000000000096200000000009640000000000963000000000096400204000000000000002443000000000002351425000000000000009999123100000010000000000000BRAPTOCTF007134
012024090912APXM11      010FII APEX MS CI           R$  000000000975000000000097980000000009521000000000962500000000095510000000009551000000000965000019000000000000000090000000000000866301000000000000009999123100000010000000000000BRAPXMCTF003113
012024090912AROA11      010FII AROA    CI  ER       R$  000000000009900000000000990000000000097000000000009800000000000990000000000098000000000009900210000000000000005941000000000000585431000000000000009999123100000010000000000000BRAROACTF003121
012024090912ARRI11      010FII ATRIO   CI  ER       R$  000000000090200000000009030000000000880000000000089300000000008980000000000897000000000089801556000000000000061849000000000055291505000000000000009999123100000010000000000000BRARRICTF009164
012024090912ARXD11      010FII ARXD R  CI  ER       R$  000000000999900000000099990000000009800000000000992200000000098000000000009819000000000995000024000000000000001075000000000010666162000000000000009999123100000010000000000000BRARXDCTF008118
012024090912BROF11      010FII BROF    CI           R$  000000000468200000000047590000000004645000000000466800000000046530000000004653000000000471800875000000000000004746000000000022158099000000000000009999123100000010000000000000BRBROFCTF000116
012024090912BTAL11      010FII BTG AGROCI           R$  000000000779000000000078000000000007772000000000778700000000078000000000007797000000000780000640000000000000006254000000000048702419000000000000009999123100000010000000000000BRBTALCTF003142
012024090912BTCI11      010FII BTG CRI CI  ER       R$  000000000099500000000009960000000000991000000000099200000000009920000000000992000000000099311992000000000000160177000000000158993328000000000000009999123100000010000000000000BRBTCICTF005123
012024090912BTHI11      010BTG HOTEL FICI  ER       R$  000000000395000000000040490000000003879000000000390800000000038810000000003881000000000404900052000000000000000547000000000002137787000000000000009999123100000010000000000000BRBTHICTF004112
012024090912BTLG11      010FII BTLG    CI           R$  000000001027300000000102800000000010183000000001024100000000102250000000010225000000001023210673000000000000074032000000000758180098000000000000009999123100000010000000000000BRBTLGCTF000165
012024090912CPSH11      010FII CPSH    CI           R$  000000000106100000000010610000000001050000000000105200000000010540000000001051000000000105400929000000000000037283000000000039232941000000000000009999123100000010000000000000BRCPSHCTF017116
012024090912CPTS11      010FII CAPI SECCI           R$  000000000082700000000008290000000000824000000000082600000000008280000000000827000000000082849737000000000001162328000000000961204614000000000000009999123100000010000000000000BRCPTSCTF004233
012024090912BCFF11      010FII BC FFII CI  ER       R$  000000000084400000000008460000000000843000000000084400000000008460000000000845000000000084607331000000000000399444000000000337396848000000000000009999123100000010000000000000BRBCFFCTF000281
012024090912BCIA11      010FII BCIA    CI  ER       R$  000000001013600000000101930000000010110000000001015200000000101310000000010131000000001015701304000000000000007909000000000080296900000000000000009999123100000010000000000000BRBCIACTF005213
012024090912BCRI11      010FII BEES CRICI  ER       R$  000000000689300000000069240000000006893000000000691100000000069180000000006918000000000692000560000000000000004563000000000031536951000000000000009999123100000010000000000000BRBCRICTF009218
012024090912EURO11      010FII EUROPAR CI  ER       R$  000000002501000000000252950000000024710000000002496100000000249990000000024661000000002500000021000000000000000122000000000003045242000000000000009999123100000010000000000000BREUROCTF011362
012024090912EVBI11      010FII VBI CON CI  ER       R$  000000000099300000000010030000000000990000000000099600000000010010000000000991000000000100200058000000000000001892000000000001886280000000000000009999123100000010000000000000BREVBICTF007153
012024090912EXES11      010FII EXES    CI           R$  000000000095100000000009510000000000950000000000095000000000009500000000000940000000000095000008000000000000000189000000000000179605000000000000009999123100000010000000000000BREXESCTF006128
012024090912BPFF11      010FII ABSOLUTOCI  ER       R$  000000000682500000000068810000000006767000000000681200000000067670000000006767000000000680300483000000000000005566000000000037916612000000000000009999123100000010000000000000BRBPFFCTF002239
012024090912BPML11      010FII BTG SHOPCI           R$  000000000902000000000090610000000008751000000000884300000000089400000000008855000000000894002000000000000000008659000000000076573038000000000000009999123100000010000000000000BRBPMLCTF006133
012024090912CPFF11      010FII CAP REITCI           R$  000000000713700000000071370000000007050000000000708600000000071020000000007100000000000710200148000000000000001504000000000010657848000000000000009999123100000010000000000000BRCPFFCTF000158
012024090912BLCA11      010FII BLUE AAACI           R$  000000001003100000000100310000000010001000000001001000000000100010000000010001000000001002700007000000000000000014000000000000140153000000000000009999123100000010000000000000BRBLCACTF009133
