00COTAHIST.2024BOVESPA 20240910                                                                                                                                                                                                                      
012024091002EUCA4       010EUCATEX     PN      N1   R$  000000000166800000000016690000000001602000000000163500000000016470000000001641000000000165300296000000000000040900000000000066908900000000000000009999123100000010000000000000BREUCAACNPR8044
012024091002EVEN3       010EVEN        ON      NM   R$  000000000065900000000006590000000000645000000000065000000000006530000000000648000000000065301124000000000000268400000000000174515200000000000000009999123100000010000000000000BREVENACNOR8119
012024091002ITSA3       010ITAUSA      ON  EJ  N1   R$  000000000111900000000011250000000001112000000000112000000000011240000000001120000000000112500247000000000000091700000000000102772200000000000000009999123100000010000000000000BRITSAACNOR0442
012024091002ITSA4       010ITAUSA      PN  EJ  N1   R$  000000000111400000000011240000000001111000000000112000000000011230000000001123000000000112416233000000000017073400000000019133448700000000000000009999123100000010000000000000BRITSAACNPR7442
012024091002PFRM3       010PROFARMA    ON      NM   R$  000000000062400000000006240000000000606000000000061300000000006180000000000608000000000061800342000000000000118100000000000072484600000000000000009999123100000010000000000000BRPFRMACNOR1116
012024091002PGMN3       010PAGUE MENOS ON      NM   R$  000000000030100000000003010000000000292000000000029400000000002970000000000293000000000029701682000000000000541000000000000159508900000000000000009999123100000010000000000000BRPGMNACNOR8103
012024091002PINE3       010PINE        ON      N2   R$  000000000049200000000005000000000000481000000000049000000000004910000000000489000000000050300017000000000000006300000000000003091000000000000000009999123100000010000000000000BRPINEACNOR1150
012024091002PINE4       010PINE        PN      N2   R$  000000000048000000000004800000000000473000000000047500000000004770000000000475000000000047700228000000000000091800000000000043612700000000000000009999123100000010000000000000BRPINEACNPR8150
012024091002PLPL3       010PLANOEPLANO ON      NM   R$  000000000121200000000012250000000001202000000000121000000000012080000000001207000000000120801269000000000000282400000000000341865300000000000000009999123100000010000000000000BRPLPLACNOR5104
012024091002PNVL3       010DIMED       ON      NM   R$  000000000099800000000010050000000000986000000000099500000000010050000000000998000000000100501099000000000000162200000000000161546600000000000000009999123100000010000000000000BRPNVLACNOR9207
012024091002POMO3       010MARCOPOLO   ON      N2   R$  000000000059500000000006040000000000594000000000059900000000006000000000000598000000000060000240000000000000055200000000000033114200000000000000009999123100000010000000000000BRPOMOACNOR0099
012024091002POMO4       010MARCOPOLO   PN      N2   R$  000000000077600000000007830000000000765000000000077500000000007720000000000771000000000077312068000000000009825300000000007614689000000000000000009999123100000010000000000000BRPOMOACNPR7099
012024091002PORT3       010WILSON SONS ON      NM   R$  000000000169200000000016990000000001677000000000168900000000016900000000001687000000000169002232000000000002129700000000003598507300000000000000009999123100000010000000000000BRPORTACNOR8109
012024091002POSI3       010POSITIVO TECON      NM   R$  000000000062100000000006230000000000596000000000060200000000005960000000000596000000000059704343000000000002671900000000001610687200000000000000009999123100000010000000000000BRPOSIACNOR9116
012024091002PRIO3       010PETRORIO    ON      NM   R$  000000000415000000000042400000000004054000000000414200000000042200000000004220000000000422840173000000000015654300000000064855497000000000000000009999123100000010000000000000BRPRIOACNOR1107
012024091002TFCO4       010TRACK FIELD PN      N2   R$  000000000114900000000011730000000001139000000000116000000000011700000000001157000000000117100565000000000000095500000000000110833600000000000000009999123100000010000000000000BRTFCOACNPR8114
012024091002TGMA3       010TEGMA       ON      NM   R$  000000000274200000000027740000000002735000000000275900000000027640000000002762000000000276401106000000000000398300000000001099086100000000000000009999123100000010000000000000BRTGMAACNOR7145
012024091002TIMS3       010TIM         ON      NM   R$  000000000181500000000018420000000001813000000000182700000000018220000000001822000000000183006649000000000004566500000000008343908700000000000000009999123100000010000000000000BRTIMSACNOR5117
012024091002TOTS3       010TOTVS       ON      NM   R$  000000000290900000000029580000000002909000000000294200000000029340000000002934000000000293706629000000000001345000000000003957041000000000000000009999123100000010000000000000BRTOTSACNOR8145
012024091002TPIS3       010TRIUNFO PARTON      NM   R$  000000000047500000000005400000000000475000000000051100000000005000000000000498000000000050000570000000000000188400000000000096291800000000000000009999123100000010000000000000BRTPISACNOR8118
012024091002TRAD3       010TC          ON      NM   R$  000000000028100000000002880000000000278000000000028300000000002880000000000285000000000028800161000000000000097500000000000027659700000000000000009999123100000010000000000000BRTRADACNOR3102
012024091002TRIS3       010TRISUL      ON      NM   R$  000000000046400000000004670000000000460000000000046300000000004630000000000463000000000046600538000000000000205100000000000095062100000000000000009999123100000010000000000000BRTRISACNOR4118
012024091002TRPL3       010TRAN PAULISTON      N1   R$  000000000320000000000032000000000003185000000000319700000000031990000000003187000000000319900009000000000000001200000000000003836700000000000000009999123100000010000000000000BRTRPLACNOR4185
012024091002TRPL4       010TRAN PAULISTPN      N1   R$  000000000248500000000024850000000002463000000000247000000000024720000000002470000000000247205708000000000001229100000000003036336300000000000000009999123100000010000000000000BRTRPLACNPR1185
012024091002VSTE3       010VESTE       ON      NM   R$  000000000129700000000012970000000001250000000000126700000000012700000000001241000000000127000044000000000000018800000000000023828700000000000000009999123100000010000000000000BRVSTEACNOR5103
012024091002VTRU3       010VITRUEDUCA  ON      NM   R$  000000000100500000000010250000000000980000000000099000000000009800000000000980000000000100900523000000000000196400000000000194589100000000000000009999123100000010000000000000BRVTRUACNOR3100
012024091002VULC3       010VULCABRAS   ON      NM   R$  000000000180000000000018070000000001778000000000179300000000017950000000001794000000000179701353000000000000319600000000000573220300000000000000009999123100000010000000000000BRVULCACNOR2161
012024091002VVEO3       010VIVEO       ON      NM   R$  000000000019600000000002000000000000191000000000019500000000001950000000000195000000000019603141000000000001619900000000000316267100000000000000009999123100000010000000000000BRVVEOACNOR0104
012024091002WEGE3       010WEG         ON      NM   R$  000000000523500000000052890000000005195000000000525600000000052890000000005280000000000528915385000000000005643900000000029666737800000000000000009999123100000010000000000000BRWEGEACNOR0224
012024091002SAPR11      010SANEPAR     UNT     N2   R$  000000000302700000000032210000000003000000000000313300000000032000000000003200000000000320210920000000000002856200000000008949752800000000000000009999123100000010000000000000BRSAPRCDAM13118
012024091002SAPR3       010SANEPAR     ON      N2   R$  000000000057500000000006100000000000572000000000059200000000006080000000000604000000000060801924000000000000506400000000000300097000000000000000009999123100000010000000000000BRSAPRACNOR9159
012024091002SAPR4       010SANEPAR     PN      N2   R$  000000000061100000000006480000000000603000000000062900000000006460000000000642000000000064604838000000000002805900000000001767177600000000000000009999123100000010000000000000BRSAPRACNPR6159
012024091002ABCB4       010ABC BRASIL  PN      N2   R$  000000000232000000000023430000000002302000000000232700000000023380000000002330000000000233803703000000000000754500000000001756105100000000000000009999123100000010000000000000BRABCBACNPR4146
012024091002ABEV3       010AMBEV S/A   ON           R$  000000000130100000000013320000000001301000000000132300000000013240000000001324000000000132622632000000000027649100000000036596741700000000000000009999123100000010000000000000BRABEVACNOR1128
012024091002BAHI3       010BAHEMA      ON      MA   R$  000000000068000000000006800000000000679000000000067900000000006790000000000679000000000068000003000000000000002600000000000001766200000000000000009999123100000010000000000000BRBAHIACNOR1074
012024091002BALM3       010BAUMER      ON           R$  000000000125000000000012500000000001250000000000125000000000012500000000001102000000000200000001000000000000000100000000000000125000000000000000009999123100000010000000000000BRBALMACNOR5055
012024091002BALM4       010BAUMER      PN           R$  000000000106000000000011000000000001060000000000107100000000011000000000001061000000000110000003000000000000000700000000000000749900000000000000009999123100000010000000000000BRBALMACNPR2056
012024091002BAUH4       010EXCELSIOR   PN           R$  000000000798700000000079870000000007987000000000798700000000079870000000000000000000000798800001000000000000000200000000000001597400000000000000009999123100000010000000000000BRBAUHACNPR3118
012024091002BAZA3       010AMAZONIA    ON           R$  000000000960500000000096050000000009596000000000960000000000095960000000009598000000000965900003000000000000000300000000000002880100000000000000009999123100000010000000000000BRBAZAACNOR0179
012024091002BBAS3       010BRASIL      ON      NM   R$  000000000290800000000029140000000002853000000000287100000000028700000000002870000000000287331567000000000017717700000000050882446900000000000000009999123100000010000000000000BRBBASACNOR3325
012024091002SBFG3       010GRUPO SBF   ON      NM   R$  000000000177900000000017860000000001735000000000174700000000017450000000001745000000000174806462000000000001429100000000002496857400000000000000009999123100000010000000000000BRSBFGACNOR1103
012024091002SBSP3       010SABESP      ON      NM   R$  000000000943300000000097170000000009433000000000961800000000096250000000009615000000000962517324000000000004156200000000039978421500000000000000009999123100000010000000000000BRSBSPACNOR5161
012024091002VBBR3       010VIBRA       ON      NM   R$  000000000258200000000026140000000002575000000000259400000000025850000000002584000000000258914361000000000004682200000000012146282100000000000000009999123100000010000000000000BRVBBRACNOR1108
012024091002RENT3       010LOCALIZA    ON      NM   R$  000000000413200000000042590000000004107000000000420300000000042000000000004199000000000420023602000000000006554200000000027551654400000000000000009999123100000010000000000000BRRENTACNOR4196
012024091002SYNE3       010SYN PROP TECON      NM   R$  000000000079300000000007970000000000786000000000078900000000007900000000000789000000000079001011000000000000367000000000000289929800000000000000009999123100000010000000000000BRSYNEACNOR2103
012024091002YDUQ3       010YDUQS PART  ON      NM   R$  000000000095900000000009820000000000955000000000097000000000009710000000000971000000000097208889000000000003532000000000003427924500000000000000009999123100000010000000000000BRYDUQACNOR3105
012024091002ZAMP3       010ZAMP S.A.   ON           R$  000000000030500000000003080000000000297000000000030100000000002980000000000298000000000030101435000000000000287300000000000086553800000000000000009999123100000010000000000000BRZAMPACNOR5101
012024091002PTBL3       010PORTOBELLO  ON      NM   R$  000000000048700000000004970000000000487000000000049100000000004900000000000490000000000049401301000000000000274800000000000135139000000000000000009999123100000010000000000000BRPTBLACNOR8132
012024091002PTNT3       010PETTENATI   ON           R$  000000000093000000000009520000000000930000000000094100000000009520000000000933000000000095000002000000000000000200000000000000188200000000000000009999123100000010000000000000BRPTNTACNOR6042
012024091002PTNT4       010PETTENATI   PN           R$  000000000074200000000007550000000000742000000000074800000000007500000000000735000000000074900017000000000000013100000000000009802500000000000000009999123100000010000000000000BRPTNTACNPR3047
012024091002INTB3       010INTELBRAS   ON      NM   R$  000000000211700000000021880000000002117000000000216600000000021850000000002173000000000218502665000000000000479400000000001038643700000000000000009999123100000010000000000000BRINTBACNOR9112
012024091002IRBR3       010IRBBRASIL REON      NM   R$  000000000477200000000048620000000004733000000000479100000000048200000000004820000000000482304513000000000000844400000000004045542500000000000000009999123100000010000000000000BRIRBRACNOR4111
012024091002LUPA3       010LUPATECH    ON      NM   R$  000000000015000000000001500000000000145000000000014600000000001450000000000145000000000014600084000000000000053800000000000007857200000000000000009999123100000010000000000000BRLUPAACNOR8112
012024091002LUXM4       010TREVISA     PN           R$  000000000134600000000013460000000001346000000000134600000000013460000000001203000000000134600001000000000000000200000000000000269200000000000000009999123100000010000000000000BRLUXMACNPR4052
012024091002LVTC3       010WDC NETWORKSON      NM   R$  000000000037100000000003800000000000370000000000037100000000003800000000000378000000000038000046000000000000034600000000000012863500000000000000009999123100000010000000000000BRLVTCACNOR4102
012024091002LWSA3       010LWSA        ON      NM   R$  000000000043400000000004470000000000434000000000044100000000004400000000000439000000000044106582000000000003638300000000001606000000000000000000009999123100000010000000000000BRLWSAACNOR8103
012024091002AVLL3       010ALPHAVILLE  ON      NM   R$  000000000039500000000003950000000000386000000000039100000000003900000000000350000000000039000005000000000000000500000000000000195600000000000000009999123100000010000000000000BRAVLLACNOR5103
012024091002GOAU3       010GERDAU MET  ON      N1   R$  000000000108100000000010850000000001068000000000107400000000010850000000001084000000000108500134000000000000036200000000000038914000000000000000009999123100000010000000000000BRGOAUACNOR1268
012024091002GOAU4       010GERDAU MET  PN      N1   R$  000000000106700000000010740000000001050000000000105700000000010640000000001062000000000106410524000000000006138200000000006493256600000000000000009999123100000010000000000000BRGOAUACNPR8269
012024091002JALL3       010JALLESMACHADON      NM   R$  000000000064900000000006610000000000640000000000065200000000006560000000000656000000000065801528000000000000478900000000000312471900000000000000009999123100000010000000000000BRJALLACNOR0106
012024091002JBSS3       010JBS         ON      NM   R$  000000000335500000000034390000000003329000000000340000000000034210000000003420000000000342219175000000000014196200000000048270477400000000000000009999123100000010000000000000BRJBSSACNOR8122
012024091002MRFG3       010MARFRIG     ON      NM   R$  000000000142900000000014640000000001420000000000144900000000014460000000001445000000000145012557000000000003466400000000005024015000000000000000009999123100000010000000000000BRMRFGACNOR0116
012024091002MRVE3       010MRV         ON      NM   R$  000000000077800000000007790000000000759000000000077100000000007730000000000771000000000077314394000000000013776000000000010633451200000000000000009999123100000010000000000000BRMRVEACNOR2127
012024091002DESK3       010DESKTOP     ON      NM   R$  000000000147900000000015170000000001467000000000150300000000015090000000001497000000000150900682000000000000215700000000000324250600000000000000009999123100000010000000000000BRDESKACNOR2104
012024091002DEXP3       010DEXXOS PAR  ON      N1   R$  000000000089500000000009290000000000895000000000090200000000009290000000000909000000000092900350000000000000080400000000000072581700000000000000009999123100000010000000000000BRDEXPACNOR1105
012024091002DEXP4       010DEXXOS PAR  PN      N1   R$  000000000090000000000009120000000000893000000000090000000000009120000000000900000000000091200019000000000000005000000000000004504300000000000000009999123100000010000000000000BRDEXPACNPR8105
012024091002DIRR3       010DIRECIONAL  ON      NM   R$  000000000312600000000031570000000003096000000000313500000000031500000000003145000000000315005260000000000000862900000000002705826400000000000000009999123100000010000000000000BRDIRRACNOR0118
012024091002GGPS3       010GPS         ON      NM   R$  000000000179100000000018210000000001786000000000180800000000018140000000001810000000000181403377000000000001155700000000002090640400000000000000009999123100000010000000000000BRGGPSACNOR9103
012024091002GMAT3       010GRUPO MATEUSON      NM   R$  000000000078400000000007940000000000775000000000078700000000007870000000000787000000000078804408000000000004288700000000003378527800000000000000009999123100000010000000000000BRGMATACNOR7102
012024091002NEOE3       010NEOENERGIA  ON      NM   R$  000000000201000000000020130000000001962000000000198200000000019720000000001970000000000197204321000000000000751900000000001490873900000000000000009999123100000010000000000000BRNEOEACNOR3123
012024091002NGRD3       010NEOGRID     ON      NM   R$  000000000010700000000001120000000000106000000000010900000000001120000000000109000000000011200644000000000000398900000000000043623900000000000000009999123100000010000000000000BRNGRDACNOR3104
012024091002NINJ3       010GETNINJAS   ON      NM   R$  000000000047000000000004760000000000465000000000046700000000004700000000000461000000000047500031000000000000009800000000000004585200000000000000009999123100000010000000000000BRNINJACNOR5101
012024091002NORD3       010NORDON MET  ON           R$  000000000108000000000010800000000001080000000000108000000000010800000000001050000000000108000001000000000000000300000000000000324000000000000000009999123100000010000000000000BRNORDACNOR7135
012024091002NTCO3       010GRUPO NATURAON      NM   R$  000000000135500000000013670000000001335000000000135100000000013640000000001363000000000136409591000000000004465800000000006036532000000000000000009999123100000010000000000000BRNTCOACNOR5106
012024091002ALPA3       010ALPARGATAS  ON      N1   R$  000000000074700000000007470000000000727000000000073900000000007270000000000726000000000073200022000000000000006000000000000004435600000000000000009999123100000010000000000000BRALPAACNOR0231
012024091002ALPA4       010ALPARGATAS  PN      N1   R$  000000000073000000000007330000000000716000000000072100000000007180000000000717000000000071904401000000000002523000000000001819429200000000000000009999123100000010000000000000BRALPAACNPR7232
012024091002ALPK3       010ESTAPAR     ON      NM   R$  000000000033900000000003400000000000311000000000032800000000003190000000000317000000000031900829000000000000329700000000000108449700000000000000009999123100000010000000000000BRALPKACNOR9101
012024091002ALUP11      010ALUPAR      UNT     N2   R$  000000000313600000000031560000000003126000000000313900000000031310000000003130000000000313404034000000000000771200000000002421230500000000000000009999123100000010000000000000BRALUPCDAM15120
012024091002ALUP3       010ALUPAR      ON      N2   R$  000000000105900000000010740000000001057000000000106500000000010720000000001051000000000107300033000000000000003800000000000004048600000000000000009999123100000010000000000000BRALUPACNOR8120
012024091002ALUP4       010ALUPAR      PN      N2   R$  000000000103900000000010400000000001029000000000103500000000010290000000001028000000000103900051000000000000007700000000000007972300000000000000009999123100000010000000000000BRALUPACNPR5120
012024091002AMAR3       010LOJAS MARISAON      NM   R$  000000000010900000000001090000000000104000000000010500000000001050000000000105000000000010600701000000000000365600000000000038740500000000000000009999123100000010000000000000BRAMARACNOR4115
012024091002AMBP3       010AMBIPAR     ON      NM   R$  000000000644900000000070140000000006367000000000677600000000069800000000006965000000000698001372000000000000244400000000001656075400000000000000009999123100000010000000000000BRAMBPACNOR6103
012024091002BRIT3       010BRISANET    ON      NM   R$  000000000032800000000003280000000000318000000000032100000000003240000000000323000000000032600654000000000000660800000000000212272000000000000000009999123100000010000000000000BRBRITACNOR0103
012024091002BRKM3       010BRASKEM     ON      N1   R$  000000000181300000000018130000000001760000000000178700000000017660000000001770000000000179400079000000000000011300000000000020200100000000000000009999123100000010000000000000BRBRKMACNOR1119
012024091002BRKM5       010BRASKEM     PNA     N1   R$  000000000180400000000018090000000001731000000000176800000000017610000000001761000000000176210351000000000004841300000000008559722600000000000000009999123100000010000000000000BRBRKMACNPA4121
012024091002DMVF3       010D1000VFARMA ON      NM   R$  000000000070300000000007030000000000663000000000068100000000006800000000000675000000000068000292000000000000098100000000000066812300000000000000009999123100000010000000000000BRDMVFACNOR9100
012024091002DOHL4       010DOHLER      PN           R$  000000000042300000000004370000000000396000000000040700000000004060000000000405000000000043000028000000000000009000000000000003665900000000000000009999123100000010000000000000BRDOHLACNPR9066
012024091002DOTZ3       010DOTZ SA     ON      NM   R$  000000000076200000000007660000000000674000000000071000000000006840000000000677000000000068400217000000000000060600000000000043073400000000000000009999123100000010000000000000BRDOTZACNOR7101
012024091002DXCO3       010DEXCO       ON      NM   R$  000000000077200000000007970000000000764000000000078200000000007880000000000787000000000079103872000000000001951100000000001526108100000000000000009999123100000010000000000000BRDXCOACNOR8105
012024091002EALT3       010ACO ALTONA  ON           R$  000000000153900000000015390000000001500000000000150900000000015390000000001500000000000153800010000000000000002000000000000003019600000000000000009999123100000010000000000000BREALTACNOR4138
012024091002EALT4       010ACO ALTONA  PN           R$  000000000151000000000015150000000001480000000000150200000000014940000000001481000000000149400048000000000000007400000000000011115000000000000000009999123100000010000000000000BREALTACNPR1138
012024091002ECOR3       010ECORODOVIAS ON      NM   R$  000000000076500000000007650000000000755000000000076000000000007600000000000760000000000076104552000000000001705300000000001296358100000000000000009999123100000010000000000000BRECORACNOR8120
012024091002EGIE3       010ENGIE BRASILON      NM   R$  000000000443800000000044760000000004403000000000444600000000044490000000004449000000000445303874000000000000873800000000003885153600000000000000009999123100000010000000000000BREGIEACNOR9127
012024091002GRND3       010GRENDENE    ON      NM   R$  000000000060000000000006090000000000596000000000060300000000006090000000000605000000000060901509000000000000505700000000000305384300000000000000009999123100000010000000000000BRGRNDACNOR3175
012024091002GUAR3       010GUARARAPES  ON      NM   R$  000000000089500000000008950000000000860000000000087200000000008750000000000874000000000087502395000000000000810200000000000707199600000000000000009999123100000010000000000000BRGUARACNOR4173
012024091002HAGA3       010HAGA S/A    ON           R$  000000000023900000000002540000000000234000000000024300000000002540000000000244000000000025400040000000000000009500000000000002310200000000000000009999123100000010000000000000BRHAGAACNOR7103
012024091002HAGA4       010HAGA S/A    PN           R$  000000000011800000000001190000000000117000000000011700000000001170000000000117000000000011800008000000000000003000000000000000353400000000000000009999123100000010000000000000BRHAGAACNPR4103
012024091002HAPV3       010HAPVIDA     ON      NM   R$  000000000045000000000004550000000000445000000000044900000000004520000000000451000000000045314128000000000069915600000000031450542300000000000000009999123100000010000000000000BRHAPVACNOR4114
012024091002HBOR3       010HELBOR      ON      NM   R$  000000000020000000000002000000000000195000000000019700000000001960000000000196000000000019800522000000000000426700000000000084168600000000000000009999123100000010000000000000BRHBORACNOR3118
012024091002UCAS3       010UNICASA     ON      NM   R$  000000000022300000000002250000000000221000000000022200000000002220000000000222000000000022500081000000000000019400000000000004307900000000000000009999123100000010000000000000BRUCASACNOR1113
012024091002UGPA3       010ULTRAPAR    ON      NM   R$  000000000238600000000023860000000002284000000000230200000000022860000000002283000000000228616269000000000004940700000000011377765900000000000000009999123100000010000000000000BRUGPAACNOR8156
012024091002UNIP3       010UNIPAR      ON           R$  000000000477000000000047720000000004688000000000472500000000047430000000004743000000000483300099000000000000011700000000000055289800000000000000009999123100000010000000000000BRUNIPACNOR7206
012024091002UNIP5       010UNIPAR      PNA          R$  000000000485100000000048520000000004851000000000485100000000048520000000004852000000000489000012000000000000002000000000000009703100000000000000009999123100000010000000000000BRUNIPACNPA0208
012024091002UNIP6       010UNIPAR      PNB          R$  000000000478900000000047890000000004690000000000472400000000047460000000004739000000000474601263000000000000193600000000000914686900000000000000009999123100000010000000000000BRUNIPACNPB8206
012024091002USIM3       010USIMINAS    ON      N1   R$  000000000058300000000005830000000000574000000000057700000000005760000000000575000000000057700933000000000000426600000000000246335100000000000000009999123100000010000000000000BRUSIMACNOR3167
012024091002USIM5       010USIMINAS    PNA     N1   R$  000000000058300000000005860000000000576000000000057900000000005770000000000577000000000057912260000000000010307200000000005971713200000000000000009999123100000010000000000000BRUSIMACNPA6169
012024091002USIM6       010USIMINAS    PNB     N1   R$  000000000099000000000009900000000000990000000000099000000000009900000000000849000000000140000001000000000000000100000000000000099000000000000000009999123100000010000000000000BRUSIMACNPB4169
012024091002VAMO3       010VAMOS       ON      NM   R$  000000000074200000000007520000000000736000000000074100000000007390000000000738000000000073909281000000000006840800000000005074959200000000000000009999123100000010000000000000BRVAMOACNOR7105
012024091002CXSE3       010CAIXA SEGURION      NM   R$  000000000157000000000015770000000001552000000000156200000000015520000000001552000000000156008600000000000003697500000000005776852900000000000000009999123100000010000000000000BRCXSEACNOR7107
012024091002FRAS3       010FRAS-LE     ON      N1   R$  000000000198200000000020020000000001968000000000197700000000019800000000001974000000000198003055000000000001565100000000003094898900000000000000009999123100000010000000000000BRFRASACNOR0160
012024091002FRIO3       010METALFRIO   ON      NM   R$  000000000695000000000085000000000006950000000000788500000000085000000000008000000000000890000009000000000000001000000000000007885100000000000000009999123100000010000000000000BRFRIOACNOR2111
012024091002GEPA3       010GER PARANAP ON           R$  000000000289000000000029000000000002890000000000289500000000028950000000002676000000000289500004000000000000001100000000000003184500000000000000009999123100000010000000000000BRGEPAACNOR2153
012024091002GEPA4       010GER PARANAP PN           R$  000000000280000000000028490000000002800000000000282400000000028490000000002776000000000284900002000000000000000200000000000000564900000000000000009999123100000010000000000000BRGEPAACNPR9160
012024091002GFSA3       010GAFISA      ON      NM   R$  000000000024800000000002490000000000240000000000024400000000002430000000000243000000000024402619000000000002825600000000000689500900000000000000009999123100000010000000000000BRGFSAACNOR3125
012024091002GGBR3       010GERDAU      ON      N1   R$  000000000166500000000016650000000001629000000000164400000000016520000000001646000000000165300122000000000000019500000000000032068300000000000000009999123100000010000000000000BRGGBRACNOR1193
012024091002GGBR4       010GERDAU      PN      N1   R$  000000000185000000000018590000000001823000000000184000000000018490000000001849000000000185017513000000000010857600000000019981558500000000000000009999123100000010000000000000BRGGBRACNPR8193
012024091002MILS3       010MILLS       ON      NM   R$  000000000109300000000011160000000001080000000000109800000000011130000000001112000000000111505661000000000001337300000000001468455800000000000000009999123100000010000000000000BRMILSACNOR2128
012024091002MLAS3       010MULTILASER  ON      NM   R$  000000000018500000000001850000000000179000000000018100000000001810000000000180000000000018101437000000000002061400000000000373186500000000000000009999123100000010000000000000BRMLASACNOR9101
012024091002BMEB3       010MERCANTIL   ON      N1   R$  000000000368000000000037000000000003680000000000368500000000036800000000003680000000000374000009000000000000001900000000000007002100000000000000009999123100000010000000000000BRBMEBACNOR8206
012024091002BMEB4       010MERCANTIL   PN      N1   R$  000000000405300000000040590000000004005000000000402500000000040050000000004006000000000403900026000000000000005600000000000022541900000000000000009999123100000010000000000000BRBMEBACNPR5211
012024091002BMGB4       010BANCO BMG   PN      N1   R$  000000000039000000000003930000000000384000000000038700000000003850000000000384000000000038501301000000000000595100000000000230739600000000000000009999123100000010000000000000BRBMGBACNPR0110
012024091002BMKS3       010BIC MONARK  ON           R$  000000003270000000000338900000000032700000000003276300000000330000000000032112000000003340000015000000000000000185000000000006061282000000000000009999123100000010000000000000BRBMKSACNOR9166
012024091002BMOB3       010BEMOBI TECH ON      NM   R$  000000000152600000000015330000000001509000000000152100000000015090000000001509000000000151301072000000000000187400000000000285141000000000000000009999123100000010000000000000BRBMOBACNOR7103
012024091002CSAN3       010COSAN       ON      NM   R$  000000000127500000000012760000000001243000000000125300000000012490000000001248000000000125014738000000000011709200000000014682502400000000000000009999123100000010000000000000BRCSANACNOR6126
012024091002ENEV3       010ENEVA       ON      NM   R$  000000000135800000000014000000000001353000000000138500000000013790000000001379000000000138216152000000000007016700000000009720854300000000000000009999123100000010000000000000BRENEVACNOR8106
012024091002ENGI11      010ENERGISA    UNT     N2   R$  000000000478100000000048200000000004758000000000479200000000047850000000004784000000000479307997000000000001241500000000005950132700000000000000009999123100000010000000000000BRENGICDAM16136
012024091002ENGI3       010ENERGISA    ON      N2   R$  000000000143900000000014520000000001402000000000142700000000014020000000001392000000000143500052000000000000006800000000000009704600000000000000009999123100000010000000000000BRENGIACNOR0146
012024091002ENGI4       010ENERGISA    PN      N2   R$  000000000083400000000008490000000000831000000000084000000000008450000000000836000000000084500017000000000000002800000000000002353300000000000000009999123100000010000000000000BRENGIACNPR7142
012024091002IFCM3       010INFRACOMM   ON      NM   R$  000000000001500000000000150000000000014000000000001400000000000150000000000014000000000001500481000000000004728800000000000070374600000000000000009999123100000010000000000000BRIFCMACNOR8101
012024091002IGTI11      010IGUATEMI S.AUNT     N1   R$  000000000216100000000022000000000002156000000000218000000000021910000000002187000000000219210324000000000002551200000000005561891500000000000000009999123100000010000000000000BRIGTICDAM16106
012024091002IGTI3       010IGUATEMI S.AON      N1   R$  000000000026800000000002770000000000265000000000026700000000002660000000000266000000000026700149000000000000133700000000000035731200000000000000009999123100000010000000000000BRIGTIACNOR8106
012024091002INEP3       010INEPAR      ON           R$  000000000018200000000001850000000000172000000000018000000000001840000000000181000000000018400154000000000000049400000000000008897700000000000000009999123100000010000000000000BRINEPACNOR1143
012024091002INEP4       010INEPAR      PN           R$  000000000018700000000001930000000000182000000000018500000000001850000000000182000000000018500175000000000000045800000000000008511000000000000000009999123100000010000000000000BRINEPACNPR8143
012024091002CAMB3       010CAMBUCI     ON           R$  000000000120600000000012240000000001197000000000120700000000012240000000001198000000000122700100000000000000020000000000000024146100000000000000009999123100000010000000000000BRCAMBACNOR4131
012024091002CAML3       010CAMIL       ON  EDJ NM   R$  000000000093200000000009610000000000926000000000094700000000009600000000000953000000000096002269000000000000475600000000000450679600000000000000009999123100000010000000000000BRCAMLACNOR3129
012024091002CASH3       010MELIUZ      ON  ER  NM   R$  000000000042900000000004290000000000417000000000042100000000004180000000000417000000000041902021000000000001075800000000000453585900000000000000009999123100000010000000000000BRCASHACNOR8107
012024091002CBAV3       010CBA         ON      NM   R$  000000000046200000000004640000000000451000000000045800000000004600000000000460000000000046104433000000000002322700000000001064223800000000000000009999123100000010000000000000BRCBAVACNOR5104
012024091002EKTR4       010ELEKTRO     PN           R$  000000000440400000000044110000000004404000000000440900000000044110000000004407000000000441100014000000000000002000000000000008819400000000000000009999123100000010000000000000BREKTRACNPR7164
012024091002ELET3       010ELETROBRAS  ON      N1   R$  000000000415800000000041860000000004140000000000416400000000041630000000004163000000000416715801000000000005736100000000023887184500000000000000009999123100000010000000000000BRELETACNOR6160
012024091002ELET6       010ELETROBRAS  PNB     N1   R$  000000000460000000000046640000000004599000000000462500000000046160000000004616000000000463404207000000000001032400000000004774925800000000000000009999123100000010000000000000BRELETACNPB7077
012024091002HBRE3       010HBR REALTY  ON      NM   R$  000000000050500000000005080000000000489000000000049400000000004990000000000499000000000050000838000000000000469000000000000232069800000000000000009999123100000010000000000000BRHBREACNOR4100
012024091002HBSA3       010HIDROVIAS   ON      NM   R$  000000000034900000000003540000000000349000000000035000000000003510000000000351000000000035302821000000000001547600000000000542827800000000000000009999123100000010000000000000BRHBSAACNOR0100
012024091002HETA4       010HERCULES    PN           R$  000000000069000000000006900000000000690000000000069000000000006900000000000640000000000069800001000000000000000100000000000000069000000000000000009999123100000010000000000000BRHETAACNPR9136
012024091002HYPE3       010HYPERA      ON      NM   R$  000000000282000000000028350000000002781000000000281900000000028310000000002830000000000283109169000000000005469500000000015419040100000000000000009999123100000010000000000000BRHYPEACNOR0143
012024091002JSLG3       010JSL         ON      NM   R$  000000000095100000000009600000000000936000000000094800000000009570000000000945000000000095802808000000000000395000000000000374711500000000000000009999123100000010000000000000BRJSLGACNOR2121
012024091002KEPL3       010KEPLER WEBERON      NM   R$  000000000111400000000011140000000001091000000000110200000000010950000000001095000000000109702570000000000000812200000000000895286400000000000000009999123100000010000000000000BRKEPLACNOR1064
012024091002KLBN11      010KLABIN S/A  UNT     N2   R$  000000000221600000000022470000000002189000000000221100000000022000000000002200000000000220614158000000000006216700000000013751335400000000000000009999123100000010000000000000BRKLBNCDAM18143
012024091002KLBN3       010KLABIN S/A  ON      N2   R$  000000000044100000000004530000000000440000000000044400000000004410000000000440000000000044100719000000000000281900000000000125261600000000000000009999123100000010000000000000BRKLBNACNOR2171
012024091002KLBN4       010KLABIN S/A  PN      N2   R$  000000000043600000000004490000000000435000000000044100000000004380000000000438000000000043901713000000000001654500000000000730271000000000000000009999123100000010000000000000BRKLBNACNPR9171
012024091002MYPK3       010IOCHP-MAXIONON      NM   R$  000000000114600000000011510000000001130000000000113800000000011310000000001130000000000113603984000000000001347300000000001533356100000000000000009999123100000010000000000000BRMYPKACNOR7155
012024091002CEBR5       010CEB         PNA          R$  000000000165600000000016560000000001637000000000164500000000016460000000001646000000000165000007000000000000000700000000000001151600000000000000009999123100000010000000000000BRCEBRACNPA8124
012024091002CEBR6       010CEB         PNB          R$  000000000180200000000018900000000001796000000000181700000000017960000000001785000000000180400023000000000000006800000000000012360400000000000000009999123100000010000000000000BRCEBRACNPB6124
012024091002CEDO4       010CEDRO       PN      N1   R$  000000000238600000000023860000000002386000000000238600000000023860000000002400000000000247900001000000000000000300000000000000715800000000000000009999123100000010000000000000BRCEDOACNPR5128
012024091002CEEB3       010COELBA      ON           R$  000000000380600000000038750000000003800000000000383300000000038510000000003851000000000390800011000000000000001200000000000004600300000000000000009999123100000010000000000000BRCEEBACNOR3199
012024091002CGAS5       010COMGAS      PNA          R$  000000001270000000000127000000000012609000000001265400000000126090000000012550000000001268600004000000000000000400000000000005061900000000000000009999123100000010000000000000BRCGASACNPA3161
012024091002CGRA3       010GRAZZIOTIN  ON           R$  000000000253800000000025380000000002538000000000253800000000025380000000002500000000000253500001000000000000000100000000000000253800000000000000009999123100000010000000000000BRCGRAACNOR2083
012024091002CGRA4       010GRAZZIOTIN  PN           R$  000000000249300000000025090000000002486000000000249600000000025090000000002495000000000252400029000000000000004800000000000011981400000000000000009999123100000010000000000000BRCGRAACNPR9083
012024091002CLSA3       010CLEARSALE   ON      NM   R$  000000000083400000000008390000000000807000000000082000000000008380000000000837000000000083803458000000000001539700000000001262856000000000000000009999123100000010000000000000BRCLSAACNOR0100
012024091002AZEV3       010AZEVEDO     ON           R$  000000000014300000000001450000000000134000000000013700000000001350000000000135000000000013600707000000000000852100000000000117549300000000000000009999123100000010000000000000BRAZEVACNOR0121
012024091002AZEV4       010AZEVEDO     PN           R$  000000000014400000000001460000000000133000000000013800000000001340000000000134000000000013503043000000000042657400000000005916485200000000000000009999123100000010000000000000BRAZEVACNPR7121
012024091002AZUL4       010AZUL        PN  ATZ N2   R$  000000000041900000000004360000000000391000000000041500000000004220000000000421000000000042223170000000000051627600000000021451794300000000000000009999123100000010000000000000BRAZULACNPR4103
012024091002CCRO3       010CCR SA      ON      NM   R$  000000000131800000000013260000000001305000000000131600000000013050000000001304000000000130508224000000000006405900000000008430291600000000000000009999123100000010000000000000BRCCROACNOR2145
012024091002CEAB3       010CEA MODAS   ON      NM   R$  000000000099200000000010140000000000980000000000100200000000010040000000001001000000000100603458000000000001213500000000001216235700000000000000009999123100000010000000000000BRCEABACNOR1102
012024091002CEBR3       010CEB         ON           R$  000000000196800000000019680000000001912000000000192900000000019120000000001911000000000193500018000000000000002600000000000005015600000000000000009999123100000010000000000000BRCEBRACNOR5125
012024091002CYRE3       010CYRELA REALTON      NM   R$  000000000214000000000021610000000002128000000000214400000000021480000000002147000000000215011796000000000003983300000000008543625900000000000000009999123100000010000000000000BRCYREACNOR7140
012024091002DASA3       010DASA        ON      NM   R$  000000000030600000000003060000000000296000000000030200000000003030000000000303000000000030402108000000000000636200000000000192155500000000000000009999123100000010000000000000BRDASAACNOR1122
012024091002AALR3       010ALLIAR      ON      NM   R$  000000000153900000000015580000000001510000000000153300000000015580000000001540000000000155800100000000000000029500000000000045243600000000000000009999123100000010000000000000BRAALRACNOR6102
012024091002JHSF3       010JHSF PART   ON  ED  NM   R$  000000000044400000000004520000000000441000000000044600000000004520000000000449000000000045202406000000000002323100000000001037360100000000000000009999123100000010000000000000BRJHSFACNOR2139
012024091002MTRE3       010MITRE REALTYON      NM   R$  000000000037900000000003790000000000367000000000036900000000003670000000000367000000000037001060000000000000709300000000000262196700000000000000009999123100000010000000000000BRMTREACNOR6114
012024091002MTSA4       010METISA      PN           R$  000000000413300000000041840000000004060000000000411900000000040990000000004051000000000418300030000000000000003600000000000014829300000000000000009999123100000010000000000000BRMTSAACNPR9072
012024091002MULT3       010MULTIPLAN   ON      N2   R$  000000000256100000000026720000000002560000000000263300000000026520000000002652000000000266921767000000000007259700000000019119549900000000000000009999123100000010000000000000BRMULTACNOR5139
012024091002AERI3       010AERIS       ON      NM   R$  000000000088000000000009010000000000841000000000086300000000008610000000000852000000000086100894000000000000314600000000000271732900000000000000009999123100000010000000000000BRAERIACNOR4102
012024091002AESB3       010AES BRASIL  ON      NM   R$  000000000115200000000011570000000001152000000000115300000000011540000000001154000000000115502905000000000002726700000000003146383800000000000000009999123100000010000000000000BRAESBACNOR7107
012024091002AGRO3       010BRASILAGRO  ON      NM   R$  000000000261900000000026450000000002599000000000262500000000026300000000002624000000000263201501000000000000280500000000000736373500000000000000009999123100000010000000000000BRAGROACNOR7114
012024091002AGXY3       010AGROGALAXY  ON      NM   R$  000000000011600000000001180000000000110000000000011100000000001110000000000111000000000011200318000000000000264500000000000029569000000000000000009999123100000010000000000000BRAGXYACNOR4103
012024091002ALLD3       010ALLIED      ON      NM   R$  000000000081700000000008280000000000771000000000079100000000007720000000000772000000000078800307000000000000085600000000000067774600000000000000009999123100000010000000000000BRALLDACNOR3106
012024091002ALOS3       010ALLOS       ON      NM   R$  000000000228200000000022980000000002268000000000228700000000022950000000002287000000000229514287000000000006103000000000013961174100000000000000009999123100000010000000000000BRALOSACNOR5101
012024091002BLAU3       010BLAU        ON      NM   R$  000000000135400000000013690000000001281000000000134200000000013550000000001355000000000136402144000000000000375900000000000504613700000000000000009999123100000010000000000000BRBLAUACNOR8114
012024091002ITUB4       010ITAUUNIBANCOPN  EJ  N1   R$  000000000370500000000037380000000003702000000000372700000000037310000000003730000000000373121021000000000013327400000000049680192800000000000000009999123100000010000000000000BRITUBACNPR1340
012024091002AZZA3       010AZZAS 2154  ON      NM   R$  000000000463100000000047690000000004628000000000472200000000047590000000004742000000000475906828000000000001891500000000008933077500000000000000009999123100000010000000000000BRAZZAACNOR9100
012024091002BOBR4       010BOMBRIL     PN           R$  000000000022300000000002280000000000223000000000022400000000002240000000000224000000000022600052000000000000017500000000000003935300000000000000009999123100000010000000000000BRBOBRACNPR3128
012024091002BRBI11      010BR PARTNERS UNT     N2   R$  000000000151600000000015500000000001511000000000153100000000015500000000001550000000000155201249000000000000255200000000000390751700000000000000009999123100000010000000000000BRBRBICDAM10110
012024091002BRFS3       010BRF SA      ON      NM   R$  000000000243000000000024810000000002407000000000245800000000024630000000002463000000000246511722000000000003451200000000008486064900000000000000009999123100000010000000000000BRBRFSACNOR8122
012024091002B3SA3       010B3          ON      NM   R$  000000000122200000000012460000000001217000000000123300000000012440000000001242000000000124426458000000000070072700000000086463655400000000000000009999123100000010000000000000BRB3SAACNOR6133
012024091002TAEE11      010TAESA       UNT     N2   R$  000000000356500000000035800000000003546000000000355700000000035460000000003545000000000354603884000000000000890600000000003168714900000000000000009999123100000010000000000000BRTAEECDAM10148
012024091002TAEE3       010TAESA       ON      N2   R$  000000000118600000000011860000000001177000000000118100000000011770000000001177000000000118100314000000000000049700000000000058716900000000000000009999123100000010000000000000BRTAEEACNOR9148
012024091002TAEE4       010TAESA       PN      N2   R$  000000000119500000000011960000000001188000000000119100000000011930000000001189000000000119300437000000000000084800000000000101028800000000000000009999123100000010000000000000BRTAEEACNPR6148
012024091002TASA3       010TAURUS ARMASON      N2   R$  000000000112000000000011270000000001117000000000112100000000011250000000001120000000000112700029000000000000004800000000000005382900000000000000009999123100000010000000000000BRTASAACNOR7104
012024091002TASA4       010TAURUS ARMASPN      N2   R$  000000000111500000000011240000000001111000000000111500000000011180000000001118000000000112400917000000000000161200000000000179788400000000000000009999123100000010000000000000BRTASAACNPR4104
012024091002TCSA3       010TECNISA     ON      NM   R$  000000000019400000000001950000000000188000000000019000000000001890000000000189000000000019000170000000000000071700000000000013679000000000000000009999123100000010000000000000BRTCSAACNOR3112
012024091002TECN3       010TECHNOS     ON      NM   R$  000000000050800000000005110000000000500000000000050300000000005090000000000509000000000051200152000000000000091900000000000046233900000000000000009999123100000010000000000000BRTECNACNOR6109
012024091002TELB3       010TELEBRAS    ON           R$  000000000142000000000014300000000001390000000000140400000000013900000000001385000000000140500009000000000000001300000000000001826000000000000000009999123100000010000000000000BRTELBACNOR2140
012024091002TELB4       010TELEBRAS    PN           R$  000000000094100000000009420000000000926000000000093500000000009260000000000921000000000092600031000000000000008700000000000008139000000000000000009999123100000010000000000000BRTELBACNPR9140
012024091002TEND3       010TENDA       ON      NM   R$  000000000130100000000013020000000001277000000000128800000000012960000000001291000000000129604853000000000001360600000000001753447000000000000000009999123100000010000000000000BRTENDACNOR4111
012024091002PETZ3       010PETZ        ON      NM   R$  000000000048300000000004870000000000462000000000047100000000004670000000000466000000000046710484000000000011454500000000005405248000000000000000009999123100000010000000000000BRPETZACNOR2110
012024091002BEEF3       010MINERVA     ON      NM   R$  000000000069600000000007120000000000696000000000070500000000007050000000000705000000000070709794000000000004551000000000003212131800000000000000009999123100000010000000000000BRBEEFACNOR6116
012024091002BPAC11      010BTGP BANCO  UNT     N2   R$  000000000354000000000035470000000003499000000000352400000000035300000000003530000000000353108971000000000004800300000000016916652800000000000000009999123100000010000000000000BRBPACUNT006119
012024091002BPAC3       010BTGP BANCO  ON      N2   R$  000000000158500000000016220000000001566000000000159100000000015900000000001590000000000161500032000000000000004400000000000007003700000000000000009999123100000010000000000000BRBPACACNOR7134
012024091002BPAC5       010BTGP BANCO  PNA     N2   R$  000000000094700000000009580000000000938000000000094900000000009530000000000943000000000096900011000000000000001400000000000001329700000000000000009999123100000010000000000000BRBPACACNPA0134
012024091002BPAN4       010BANCO PAN   PN      N1   R$  000000000107500000000010910000000001070000000000108100000000010790000000001079000000000108104289000000000001390700000000001504587200000000000000009999123100000010000000000000BRBPANACNPR1115
012024091002COCE5       010COELCE      PNA          R$  000000000299100000000029990000000002969000000000298700000000029990000000002971000000000299900021000000000000003200000000000009559000000000000000009999123100000010000000000000BRCOCEACNPA3147
012024091002COGN3       010COGNA ON    ON      NM   R$  000000000013600000000001360000000000134000000000013400000000001340000000000134000000000013507557000000000024129500000000003256250600000000000000009999123100000010000000000000BRCOGNACNOR2105
012024091002CSED3       010CRUZEIRO EDUON      NM   R$  000000000035300000000003550000000000344000000000034900000000003510000000000351000000000035400450000000000000226500000000000079166000000000000000009999123100000010000000000000BRCSEDACNOR9105
012024091002CSMG3       010COPASA      ON      NM   R$  000000000250700000000025920000000002496000000000255700000000025390000000002539000000000255405992000000000001675500000000004285010300000000000000009999123100000010000000000000BRCSMGACNOR5174
012024091002CSNA3       010SID NACIONALON           R$  000000000114000000000011470000000001114000000000112500000000011250000000001125000000000112711109000000000006180900000000006956882600000000000000009999123100000010000000000000BRCSNAACNOR6261
012024091002ENJU3       010ENJOEI      ON      NM   R$  000000000015200000000001560000000000148000000000015400000000001530000000000153000000000015402682000000000001208100000000000186146900000000000000009999123100000010000000000000BRENJUACNOR9100
012024091002ENMT4       010ENERGISA MT PN           R$  000000000777700000000077770000000007777000000000777700000000077770000000000000000000000777700001000000000000000100000000000000777700000000000000009999123100000010000000000000BRENMTACNPR2126
012024091002BBSE3       010BBSEGURIDADEON      NM   R$  000000000366300000000036890000000003660000000000366900000000036620000000003662000000000366811773000000000002740100000000010055756300000000000000009999123100000010000000000000BRBBSEACNOR5125
012024091002CMIN3       010CSNMINERACAOON      N2   R$  000000000059000000000006000000000000583000000000059300000000005940000000000594000000000059519194000000000014603400000000008662396500000000000000009999123100000010000000000000BRCMINACNOR2111
012024091002CRPG5       010CRISTAL     PNA          R$  000000000285300000000028630000000002840000000000285500000000028540000000002854000000000289700009000000000000001700000000000004854200000000000000009999123100000010000000000000BRCRPGACNPA3119
012024091002PATI3       010PANATLANTICAON  ED       R$  000000000302300000000030230000000002600000000000272600000000026120000000002611000000000279300019000000000000002700000000000007362700000000000000009999123100000010000000000000BRPATIACNOR6066
012024091002PATI4       010PANATLANTICAPN  ED       R$  000000000399900000000039990000000003600000000000379900000000036000000000002800000000000374900002000000000000000200000000000000759900000000000000009999123100000010000000000000BRPATIACNPR3066
012024091002PCAR3       010P.ACUCAR-CBDON      NM   R$  000000000029500000000003000000000000292000000000029500000000002950000000000294000000000029506401000000000005058200000000001496163100000000000000009999123100000010000000000000BRPCARACNOR3167
012024091002PDGR3       010PDG REALT   ON      NM   R$  000000000001500000000000160000000000015000000000001500000000000160000000000015000000000001600237000000000001590500000000000024691500000000000000009999123100000010000000000000BRPDGRACNOR8119
012024091002PDTC3       010PADTEC      ON      NM   R$  000000000019300000000001930000000000183000000000018700000000001860000000000186000000000019000107000000000000043700000000000008187100000000000000009999123100000010000000000000BRPDTCACNOR3101
012024091002PEAB3       010PAR AL BAHIAON           R$  000000000430000000000043000000000004300000000000430000000000043000000000000000000000000440000001000000000000000200000000000000860000000000000000009999123100000010000000000000BRPEABACNOR3133
012024091002PETR3       010PETROBRAS   ON      N2   R$  000000000414700000000041630000000004041000000000408900000000040790000000004078000000000407919524000000000008984700000000036740652600000000000000009999123100000010000000000000BRPETRACNOR9206
012024091002PETR4       010PETROBRAS   PN      N2   R$  000000000379200000000037920000000003700000000000373200000000037330000000003732000000000373364987000000000037263500000000139086870200000000000000009999123100000010000000000000BRPETRACNPR6214
012024091002SANB11      010SANTANDER BRUNT          R$  000000000310500000000031320000000003096000000000311800000000031230000000003119000000000312706635000000000001451400000000004526253400000000000000009999123100000010000000000000BRSANBCDAM13165
012024091002SANB3       010SANTANDER BRON           R$  000000000149900000000014990000000001470000000000148200000000014840000000001484000000000149000502000000000000078400000000000116232300000000000000009999123100000010000000000000BRSANBACNOR8172
012024091002SANB4       010SANTANDER BRPN           R$  000000000161900000000016380000000001614000000000163000000000016300000000001630000000000164000360000000000000055000000000000089652600000000000000009999123100000010000000000000BRSANBACNPR5172
012024091002TTEN3       0103TENTOS     ON      NM   R$  000000000123000000000012470000000001214000000000123500000000012440000000001241000000000124405725000000000001225900000000001514074500000000000000009999123100000010000000000000BRTTENACNOR0103
012024091002TUPY3       010TUPY        ON      NM   R$  000000000267000000000027060000000002638000000000267200000000027060000000002681000000000270702657000000000000452200000000001208511600000000000000009999123100000010000000000000BRTUPYACNOR1184
012024091002RCSL3       010RECRUSUL    ON           R$  000000000078200000000008500000000000707000000000079700000000007440000000000743000000000074404970000000000001816600000000001448320700000000000000009999123100000010000000000000BRRCSLACNOR4134
012024091002RCSL4       010RECRUSUL    PN           R$  000000000011300000000001140000000000107000000000011000000000001070000000000107000000000010800668000000000000846100000000000093124200000000000000009999123100000010000000000000BRRCSLACNPR1134
012024091002RDNI3       010RNI         ON      NM   R$  000000000032300000000003230000000000315000000000031800000000003150000000000315000000000032100008000000000000000800000000000000254600000000000000009999123100000010000000000000BRRDNIACNOR9116
012024091002RDOR3       010REDE D OR   ON      NM   R$  000000000333300000000033630000000003310000000000334100000000033530000000003353000000000335412714000000000003118400000000010421589900000000000000009999123100000010000000000000BRRDORACNOR8113
012024091002RECV3       010PETRORECSA  ON      NM   R$  000000000190100000000019010000000001852000000000187400000000018930000000001892000000000189410530000000000003368000000000006314486200000000000000009999123100000010000000000000BRRECVACNOR3107
012024091002REDE3       010REDE ENERGIAON           R$  000000000069300000000007000000000000691000000000069500000000007000000000000692000000000069900012000000000000001900000000000001321500000000000000009999123100000010000000000000BRREDEACNOR7128
012024091002LEVE3       010METAL LEVE  ON      NM   R$  000000000310000000000031020000000003048000000000306700000000030660000000003065000000000307302213000000000000365500000000001121032600000000000000009999123100000010000000000000BRLEVEACNOR2197
012024091002LJQQ3       010QUERO-QUERO ON      NM   R$  000000000040900000000004180000000000401000000000041100000000004090000000000408000000000040905591000000000003054700000000001255854900000000000000009999123100000010000000000000BRLJQQACNOR5104
012024091002LOGG3       010LOG COM PROPON      NM   R$  000000000228400000000023200000000002283000000000229600000000023200000000002295000000000233201508000000000000177900000000000408502900000000000000009999123100000010000000000000BRLOGGACNOR7107
012024091002LOGN3       010LOG-IN      ON      NM   R$  000000000360400000000036500000000003557000000000360400000000036500000000003550000000000365000047000000000000006800000000000024513500000000000000009999123100000010000000000000BRLOGNACNOR3105
012024091002LPSB3       010LOPES BRASILON      NM   R$  000000000019500000000002020000000000188000000000019400000000001910000000000191000000000019200930000000000001102800000000000214540500000000000000009999123100000010000000000000BRLPSBACNOR0114
012024091002LREN3       010LOJAS RENNERON      NM   R$  000000000175600000000017860000000001748000000000176300000000017680000000001764000000000176820835000000000012193100000000021502707600000000000000009999123100000010000000000000BRLRENACNOR1221
012024091002ODPV3       010ODONTOPREV  ON      NM   R$  000000000116600000000011840000000001158000000000117000000000011740000000001173000000000117403206000000000000794100000000000929317300000000000000009999123100000010000000000000BRODPVACNOR4203
012024091002ONCO3       010ONCOCLINICASON      NM   R$  000000000052800000000005540000000000516000000000053600000000005430000000000543000000000054808656000000000004801300000000002576433200000000000000009999123100000010000000000000BRONCOACNOR6101
012024091002OPCT3       010OCEANPACT   ON      NM   R$  000000000068800000000006880000000000659000000000066800000000006650000000000665000000000066701511000000000000406300000000000271554900000000000000009999123100000010000000000000BROPCTACNOR0100
012024091002ORVR3       010ORIZON      ON      NM   R$  000000000469200000000047600000000004663000000000471500000000047490000000004745000000000474902819000000000000611500000000002883720900000000000000009999123100000010000000000000BRORVRACNOR0101
012024091002ANIM3       010ANIMA       ON      NM   R$  000000000031800000000003200000000000311000000000031500000000003190000000000318000000000031906555000000000004311400000000001358502300000000000000009999123100000010000000000000BRANIMACNOR6109
012024091002ARML3       010ARMAC       ON      NM   R$  000000000083900000000008730000000000839000000000085900000000008730000000000873000000000087402497000000000000644800000000000554291600000000000000009999123100000010000000000000BRARMLACNOR1112
012024091002ASAI3       010ASSAI       ON      NM   R$  000000000091800000000009180000000000880000000000089200000000008900000000000890000000000089222004000000000019808500000000017677736000000000000000009999123100000010000000000000BRASAIACNOR0106
012024091002ATOM3       010ATOMPAR     ON           R$  000000000021500000000002180000000000209000000000021500000000002170000000000215000000000021700032000000000000013000000000000002795200000000000000009999123100000010000000000000BRATOMACNOR1106
012024091002AURE3       010AUREN       ON      NM   R$  000000000111700000000011170000000001106000000000111300000000011150000000001115000000000111606933000000000006570600000000007316430000000000000000009999123100000010000000000000BRAUREACNOR9104
012024091002BBDC3       010BRADESCO    ON  EJ  N1   R$  000000000141100000000014270000000001403000000000141800000000014250000000001424000000000142509862000000000006119800000000008679424000000000000000009999123100000010000000000000BRBBDCACNOR1774
012024091002BBDC4       010BRADESCO    PN  EJ  N1   R$  000000000156800000000015850000000001553000000000157000000000015800000000001579000000000158022556000000000027410100000000043050005700000000000000009999123100000010000000000000BRBBDCACNPR8774
012024091002BRSR3       010BANRISUL    ON      N1   R$  000000000134500000000013560000000001324000000000134200000000013560000000001345000000000136500060000000000000010300000000000013828900000000000000009999123100000010000000000000BRBRSRACNOR3188
012024091002BRSR6       010BANRISUL    PNB     N1   R$  000000000126400000000012730000000001250000000000126200000000012660000000001265000000000126703851000000000001048300000000001323660700000000000000009999123100000010000000000000BRBRSRACNPB4191
012024091002BSLI3       010BRB BANCO   ON           R$  000000000099900000000009990000000000999000000000099900000000009990000000000962000000000097000001000000000000000400000000000000399600000000000000009999123100000010000000000000BRBSLIACNOR5194
012024091002BSLI4       010BRB BANCO   PN           R$  000000000095700000000009570000000000955000000000095600000000009550000000000951000000000097800003000000000000000300000000000000286800000000000000009999123100000010000000000000BRBSLIACNPR2194
012024091002RAIZ4       010RAIZEN      PN      N2   R$  000000000030000000000003000000000000292000000000029400000000002950000000000294000000000029512067000000000014108800000000004156768000000000000000009999123100000010000000000000BRRAIZACNPR6111
012024091002RANI3       010IRANI       ON      NM   R$  000000000075600000000007690000000000754000000000076100000000007620000000000762000000000076504408000000000001331800000000001013704200000000000000009999123100000010000000000000BRRANIACNOR5073
012024091002RAPT3       010RANDON PART ON      N1   R$  000000000087000000000008770000000000858000000000086500000000008710000000000871000000000087400244000000000000043100000000000037288200000000000000009999123100000010000000000000BRRAPTACNOR7163
012024091002RAPT4       010RANDON PART PN      N1   R$  000000000109600000000010990000000001063000000000108200000000010800000000001080000000000108205173000000000004650400000000005033881900000000000000009999123100000010000000000000BRRAPTACNPR4163
012024091002RAIL3       010RUMO S.A.   ON      NM   R$  000000000213300000000021620000000002105000000000214000000000021600000000002159000000000216124595000000000014405300000000030830547800000000000000009999123100000010000000000000BRRAILACNOR9105
012024091002SMFT3       010SMART FIT   ON      NM   R$  000000000223100000000022790000000002217000000000226300000000022670000000002267000000000227510296000000000001915800000000004336607000000000000000009999123100000010000000000000BRSMFTACNOR1112
012024091002SMTO3       010SAO MARTINHOON      NM   R$  000000000258600000000026040000000002561000000000258300000000025790000000002578000000000259507684000000000001546100000000003994126100000000000000009999123100000010000000000000BRSMTOACNOR3127
012024091002SNSY3       010SANSUY      ON           R$  000000000126000000000012690000000001200000000000123800000000012690000000001215000000000127500018000000000000003200000000000003964000000000000000009999123100000010000000000000BRSNSYACNOR2113
012024091002SNSY5       010SANSUY      PNA          R$  000000000059000000000006000000000000564000000000058300000000005870000000000566000000000059000021000000000000003200000000000001868200000000000000009999123100000010000000000000BRSNSYACNPA5111
012024091002SOJA3       010BOA SAFRA   ON      NM   R$  000000000126000000000012830000000001240000000000126300000000012680000000001268000000000127003081000000000000693200000000000875764800000000000000009999123100000010000000000000BRSOJAACNOR9105
012024091002SRNA3       010SERENA      ON      NM   R$  000000000084000000000008650000000000835000000000085500000000008600000000000860000000000086105225000000000002637100000000002255911200000000000000009999123100000010000000000000BRSRNAACNOR4100
012024091002STBP3       010SANTOS BRP  ON      NM   R$  000000000135300000000013680000000001338000000000134800000000013440000000001343000000000134808871000000000004799100000000006472889800000000000000009999123100000010000000000000BRSTBPACNOR3131
012024091002MNDL3       010MUNDIAL     ON           R$  000000000142000000000014400000000001400000000000142100000000014400000000001182000000000145000008000000000000001700000000000002416800000000000000009999123100000010000000000000BRMNDLACNOR4109
012024091002MOVI3       010MOVIDA      ON      NM   R$  000000000069300000000006940000000000673000000000068300000000006870000000000686000000000068805396000000000002900400000000001983143200000000000000009999123100000010000000000000BRMOVIACNOR0122
012024091002BEES3       010BANESTES    ON  EJ       R$  000000000090100000000009200000000000896000000000090000000000008990000000000899000000000090000114000000000000018500000000000016662900000000000000009999123100000010000000000000BRBEESACNOR9395
012024091002BEES4       010BANESTES    PN  EJ       R$  000000000096100000000009610000000000955000000000095900000000009560000000000950000000000095800010000000000000001900000000000001823700000000000000009999123100000010000000000000BRBEESACNPR6320
012024091002BGIP3       010BANESE      ON  ES       R$  000000000265000000000026500000000002650000000000265000000000026500000000002550000000000335800001000000000000000100000000000000265000000000000000009999123100000010000000000000BRBGIPACNOR1210
012024091002BGIP4       010BANESE      PN  ES       R$  000000000265000000000026500000000002600000000000264200000000026000000000002600000000000265500007000000000000000800000000000002113600000000000000009999123100000010000000000000BRBGIPACNPR8210
012024091002BHIA3       010CASAS BAHIA ON      NM   R$  000000000060000000000006230000000000598000000000061000000000006100000000000610000000000061103576000000000002661000000000001625188500000000000000009999123100000010000000000000BRBHIAACNOR1102
012024091002BIOM3       010BIOMM       ON      MA   R$  000000000099700000000010080000000000953000000000097800000000009530000000000952000000000096300220000000000000050400000000000049295900000000000000009999123100000010000000000000BRBIOMACNOR2112
012024091002BRAP3       010BRADESPAR   ON      N1   R$  000000000177100000000017710000000001741000000000174900000000017580000000001754000000000175900742000000000000114900000000000200974100000000000000009999123100000010000000000000BRBRAPACNOR5148
012024091002BRAP4       010BRADESPAR   PN      N1   R$  000000000184700000000018570000000001835000000000184100000000018360000000001836000000000184206013000000000002127400000000003916961400000000000000009999123100000010000000000000BRBRAPACNPR2148
012024091002BRAV3       010BRAVA       ON      NM   R$  000000000220000000000022050000000002102000000000214300000000021450000000002145000000000215015895000000000006208300000000013304736200000000000000009999123100000010000000000000BRBRAVACNOR3100
012024091002CPFE3       010CPFL ENERGIAON      NM   R$  000000000344700000000034590000000003419000000000343600000000034250000000003425000000000343603866000000000000941100000000003234375500000000000000009999123100000010000000000000BRCPFEACNOR0137
012024091002CPLE3       010COPEL       ON      N2   R$  000000000096700000000009750000000000958000000000096800000000009720000000000972000000000097303912000000000003293300000000003188936200000000000000009999123100000010000000000000BRCPLEACNOR8149
012024091002CPLE5       010COPEL       PNA     N2   R$  000000000116700000000011890000000001167000000000117800000000011890000000001130000000000118600002000000000000000200000000000000235600000000000000009999123100000010000000000000BRCPLEACNPA1147
012024091002CPLE6       010COPEL       PNB     N2   R$  000000000107600000000010880000000001073000000000108300000000010830000000001083000000000108508655000000000008313700000000009005517500000000000000009999123100000010000000000000BRCPLEACNPB9146
012024091002CVCB3       010CVC BRASIL  ON      NM   R$  000000000018200000000001820000000000175000000000017800000000001800000000000179000000000018007213000000000017564900000000003137053200000000000000009999123100000010000000000000BRCVCBACNOR1116
012024091002EZTC3       010EZTEC       ON      NM   R$  000000000138000000000013830000000001353000000000136800000000013650000000001364000000000136503942000000000001329600000000001818948000000000000000009999123100000010000000000000BREZTCACNOR0126
012024091002FESA3       010FERBASA     ON  EJ  N1   R$  000000000135200000000013520000000001352000000000135200000000013520000000001326000000000135300003000000000000000300000000000000405600000000000000009999123100000010000000000000BRFESAACNOR8189
012024091002FESA4       010FERBASA     PN  EJ  N1   R$  000000000078700000000007930000000000776000000000078500000000007880000000000785000000000078901558000000000000438000000000000343901500000000000000009999123100000010000000000000BRFESAACNPR5085
012024091002FHER3       010FER HERINGERON      NM   R$  000000000041700000000004170000000000402000000000040300000000004030000000000403000000000040900008000000000000002200000000000000888300000000000000009999123100000010000000000000BRFHERACNOR5103
012024091002FIEI3       010FICA        ON           R$  000000000081000000000008100000000000810000000000081000000000008100000000000800000000000081000006000000000000001300000000000001053000000000000000009999123100000010000000000000BRFIEIACNOR2100
012024091002FIQE3       010UNIFIQUE    ON      NM   R$  000000000038200000000003850000000000375000000000037900000000003850000000000381000000000038500811000000000000902600000000000342791200000000000000009999123100000010000000000000BRFIQEACNOR5107
012024091002FLRY3       010FLEURY      ON      NM   R$  000000000165000000000016570000000001635000000000164400000000016470000000001646000000000164709091000000000003097000000000005093181600000000000000009999123100000010000000000000BRFLRYACNOR5139
012024091002ITUB3       010ITAUUNIBANCOON  EJ  N1   R$  000000000324300000000032610000000003223000000000324800000000032500000000003250000000000325301909000000000000373800000000001214357400000000000000009999123100000010000000000000BRITUBACNOR4340
012024091002WEST3       010WESTWING    ON      NM   R$  000000000008600000000000880000000000084000000000008500000000000840000000000084000000000008500062000000000000061000000000000005198000000000000000009999123100000010000000000000BRWESTACNOR3100
012024091002WHRL3       010WHIRLPOOL   ON           R$  000000000043700000000004370000000000437000000000043700000000004370000000000437000000000044100002000000000000000400000000000000174800000000000000009999123100000010000000000000BRWHRLACNOR5128
012024091002WHRL4       010WHIRLPOOL   PN           R$  000000000046200000000004620000000000450000000000045200000000004530000000000453000000000045800026000000000000014200000000000006419900000000000000009999123100000010000000000000BRWHRLACNPR2128
012024091002WIZC3       010WIZ CO      ON      NM   R$  000000000059600000000006000000000000591000000000059400000000005970000000000594000000000059701601000000000000379800000000000225884200000000000000009999123100000010000000000000BRWIZCACNOR5102
012024091002PRNR3       010PRINER      ON      NM   R$  000000000130500000000013230000000001301000000000131200000000013100000000001310000000000131400724000000000000135700000000000178057900000000000000009999123100000010000000000000BRPRNRACNOR4109
012024091002PSSA3       010PORTO SEGUROON      NM   R$  000000000342600000000034780000000003370000000000344000000000034510000000003450000000000345405919000000000001500900000000005163599900000000000000009999123100000010000000000000BRPSSAACNOR7155
012024091002SCAR3       010SAO CARLOS  ON      NM   R$  000000000233000000000023300000000002276000000000228800000000022880000000002272000000000228800025000000000000004300000000000009839800000000000000009999123100000010000000000000BRSCARACNOR7131
012024091002SEER3       010SER EDUCA   ON      NM   R$  000000000059200000000006000000000000584000000000059100000000005960000000000592000000000059600779000000000000232000000000000137336500000000000000009999123100000010000000000000BRSEERACNOR5119
012024091002SEQL3       010SEQUOIA LOG ON      NM   R$  000000000058000000000005810000000000548000000000055900000000005520000000000552000000000056000852000000000000491400000000000275148800000000000000009999123100000010000000000000BRSEQLACNOR2103
012024091002SHOW3       010TIME FOR FUNON      NM   R$  000000000009600000000000980000000000093000000000009400000000000950000000000094000000000009500264000000000000176500000000000016757900000000000000009999123100000010000000000000BRSHOWACNOR7105
012024091002SHUL4       010SCHULZ      PN           R$  000000000065100000000006610000000000638000000000065100000000006550000000000655000000000065800714000000000000279900000000000182301400000000000000009999123100000010000000000000BRSHULACNPR4156
012024091002SIMH3       010SIMPAR      ON      NM   R$  000000000058500000000005970000000000571000000000058300000000005920000000000591000000000059205390000000000003325900000000001942154500000000000000009999123100000010000000000000BRSIMHACNOR0107
012024091002SLCE3       010SLC AGRICOLAON      NM   R$  000000000172000000000017260000000001694000000000171400000000017220000000001722000000000172506157000000000002325800000000003987785500000000000000009999123100000010000000000000BRSLCEACNOR2125
012024091002CRFB3       010CARREFOUR BRON      NM   R$  000000000092400000000009240000000000899000000000090600000000009040000000000904000000000090508092000000000005959500000000005399713500000000000000009999123100000010000000000000BRCRFBACNOR2116
012024091002CSUD3       010CSU DIGITAL ON      NM   R$  000000000183700000000018370000000001795000000000180900000000018350000000001835000000000183600137000000000000031900000000000057720900000000000000009999123100000010000000000000BRCSUDACNOR5110
012024091002CURY3       010CURY S/A    ON      NM   R$  000000000245600000000025000000000002441000000000248100000000025000000000002491000000000250007170000000000001917600000000004758291500000000000000009999123100000010000000000000BRCURYACNOR3109
012024091002SUZB3       010SUZANO S.A. ON      NM   R$  000000000541100000000055560000000005405000000000551400000000055200000000005520000000000552122873000000000005435400000000029972871400000000000000009999123100000010000000000000BRSUZBACNOR0130
012024091002WLMM4       010WLM IND COM PN           R$  000000000323000000000032300000000003000000000000304900000000030000000000002920000000000300000019000000000000002000000000000006099200000000000000009999123100000010000000000000BRWLMMACNPR3119
012024091002QUAL3       010QUALICORP   ON      NM   R$  000000000020500000000002100000000000202000000000020600000000002090000000000205000000000020902359000000000002193700000000000452386300000000000000009999123100000010000000000000BRQUALACNOR6120
012024091002RADL3       010RAIADROGASILON      NM   R$  000000000272400000000027390000000002697000000000271300000000027140000000002713000000000271608690000000000003054800000000008289351000000000000000009999123100000010000000000000BRRADLACNOR0157
012024091002VALE3       010VALE        ON      NM   R$  000000000568400000000056900000000005593000000000561400000000056000000000005599000000000560135671000000000017580600000000098708772600000000000000009999123100000010000000000000BRVALEACNOR0211
012024091002VIVR3       010VIVER       ON      NM   R$  000000000021900000000002210000000000205000000000021100000000002140000000000210000000000021300161000000000000078100000000000016496800000000000000009999123100000010000000000000BRVIVRACNOR4123
012024091002VIVT3       010TELEF BRASILON           R$  000000000541900000000054740000000005397000000000544500000000054370000000005434000000000545020578000000000003456800000000018823434500000000000000009999123100000010000000000000BRVIVTACNOR0184
012024091002VLID3       010VALID       ON      NM   R$  000000000228900000000023050000000002229000000000227700000000022950000000002282000000000229501531000000000000235100000000000535507500000000000000009999123100000010000000000000BRVLIDACNOR5144
012024091002EPAR3       010EMBPAR S/A  ON           R$  000000000059300000000005930000000000578000000000058400000000005850000000000579000000000058500015000000000000003100000000000001811900000000000000009999123100000010000000000000BREPARACNOR9105
012024091002EQPA3       010EQTL PARA   ON           R$  000000000061200000000006150000000000600000000000060500000000006000000000000600000000000061200042000000000000018000000000000010900100000000000000009999123100000010000000000000BREQPAACNOR1111
012024091002EQTL3       010EQUATORIAL  ON      NM   R$  000000000344000000000034640000000003426000000000344600000000034500000000003450000000000345620400000000000007434400000000025619745900000000000000009999123100000010000000000000BREQTLACNOR0131
012024091002ESPA3       010ESPACOLASER ON      NM   R$  000000000011200000000001120000000000108000000000010800000000001090000000000108000000000010900075000000000000131900000000000014308900000000000000009999123100000010000000000000BRESPAACNOR7103
012024091002ETER3       010ETERNIT     ON      NM   R$  000000000057800000000005870000000000574000000000058000000000005870000000000581000000000058700607000000000000185000000000000107410700000000000000009999123100000010000000000000BRETERACNOR3244
012024091002EUCA3       010EUCATEX     ON      N1   R$  000000000166500000000016710000000001665000000000166600000000016710000000001670000000000177800004000000000000000900000000000001499500000000000000009999123100000010000000000000BREUCAACNOR1157
012024091002VITT3       010VITTIA      ON      NM   R$  000000000061700000000006330000000000610000000000062000000000006200000000000620000000000062401034000000000000234500000000000145412100000000000000009999123100000010000000000000BRVITTACNOR4107
012024091002VIVA3       010VIVARA S.A. ON      NM   R$  000000000275100000000028570000000002718000000000281200000000028340000000002833000000000283915969000000000004343100000000012215222100000000000000009999123100000010000000000000BRVIVAACNOR0107
012024091002MATD3       010MATER DEI   ON      NM   R$  000000000046500000000004800000000000465000000000047600000000004800000000000473000000000048001974000000000000842200000000000401262900000000000000009999123100000010000000000000BRMATDACNOR4104
012024091002MBLY3       010MOBLY       ON      NM   R$  000000000026300000000002700000000000262000000000026700000000002700000000000268000000000027000505000000000000260800000000000069721400000000000000009999123100000010000000000000BRMBLYACNOR5100
012024091002MDIA3       010M.DIASBRANCOON      NM   R$  000000000272000000000027200000000002681000000000269700000000027000000000002697000000000270002445000000000000691400000000001864818500000000000000009999123100000010000000000000BRMDIAACNOR7135
012024091002MDNE3       010MOURA DUBEUXON      NM   R$  000000000149500000000015030000000001457000000000147000000000014670000000001466000000000146701232000000000000373400000000000548988200000000000000009999123100000010000000000000BRMDNEACNOR9100
012024091002MEAL3       010IMC S/A     ON      NM   R$  000000000014500000000001460000000000131000000000013600000000001340000000000134000000000013500785000000000001357600000000000184856100000000000000009999123100000010000000000000BRMEALACNOR9105
012024091002MELK3       010MELNICK     ON      NM   R$  000000000033600000000003380000000000332000000000033400000000003380000000000335000000000033801104000000000000897800000000000300604500000000000000009999123100000010000000000000BRMELKACNOR8111
012024091002MGLU3       010MAGAZ LUIZA ON      NM   R$  000000000114000000000011510000000001123000000000113600000000011330000000001133000000000113416192000000000012406000000000014095004900000000000000009999123100000010000000000000BRMGLUACNOR2124
012024091002CLSC3       010CELESC      ON      N2   R$  000000000760000000000076000000000007600000000000760000000000076000000000007401000000000760000002000000000000000500000000000003800000000000000000009999123100000010000000000000BRCLSCACNOR6152
012024091002CLSC4       010CELESC      PN      N2   R$  000000000808000000000081530000000007910000000000800900000000079610000000007950000000000800500027000000000000003800000000000030434900000000000000009999123100000010000000000000BRCLSCACNPR3131
012024091002CMIG3       010CEMIG       ON      N1   R$  000000000148500000000014900000000001466000000000148100000000014880000000001481000000000148900711000000000000111900000000000165789300000000000000009999123100000010000000000000BRCMIGACNOR6243
012024091002CMIG4       010CEMIG       PN      N1   R$  000000000118200000000011920000000001177000000000118300000000011790000000001179000000000118012620000000000007810500000000009241901600000000000000009999123100000010000000000000BRCMIGACNPR3244
012024091002ELMD3       010ELETROMIDIA ON      NM   R$  000000000181100000000018110000000001758000000000177700000000017580000000001757000000000178900277000000000000036300000000000064537100000000000000009999123100000010000000000000BRELMDACNOR3101
012024091002EMAE4       010EMAE        PN           R$  000000000403900000000040390000000003941000000000401400000000039410000000003940000000000400900003000000000000000400000000000001605800000000000000009999123100000010000000000000BREMAEACNPR1125
012024091002EMBR3       010EMBRAER     ON      NM   R$  000000000478700000000048670000000004723000000000481900000000048600000000004851000000000486019763000000000006184400000000029806073000000000000000009999123100000010000000000000BREMBRACNOR4191
012024091002KRSA3       010KORA SAUDE  ON      NM   R$  000000000005900000000000600000000000056000000000005700000000000590000000000057000000000005900152000000000000370300000000000021202900000000000000009999123100000010000000000000BRKRSAACNOR0100
012024091002LAND3       010TERRASANTAPAON      NM   R$  000000000122600000000012540000000001188000000000122400000000012440000000001242000000000126400254000000000000049700000000000060865000000000000000009999123100000010000000000000BRLANDACNOR9103
012024091002LAVV3       010LAVVI       ON      NM   R$  000000000084400000000008500000000000832000000000083800000000008400000000000839000000000084001320000000000000206400000000000173067200000000000000009999123100000010000000000000BRLAVVACNOR4113
012024091002ROMI3       010ROMI        ON      NM   R$  000000000109500000000010950000000001077000000000108200000000010900000000001082000000000109000561000000000000099800000000000108008700000000000000009999123100000010000000000000BRROMIACNOR8195
012024091002RPAD5       010ALFA HOLDINGPNA          R$  000000000089400000000008950000000000894000000000089400000000008950000000000886000000000089400004000000000000010000000000000008943800000000000000009999123100000010000000000000BRRPADACNPA4219
012024091002RSUL4       010RIOSULENSE  PN           R$  000000000646500000000064700000000006465000000000646900000000064690000000006251000000000647000011000000000000001500000000000009703600000000000000009999123100000010000000000000BRRSULACNPR3114
012024091007NUTR3       010NUTRIPLANT  ON      MA   R$  000000000047900000000004800000000000470000000000047500000000004710000000000470000000000047500017000000000000001800000000000000856500000000000000009999123100000010000000000000BRNUTRACNOR0104
012024091008PMAM3       010PARANAPANEMAON      NM   R$  000000000017500000000001760000000000170000000000017000000000001720000000000171000000000017300220000000000000091600000000000015660200000000000000009999123100000010000000000000BRPMAMACNOR3039
012024091008NEXP3       010NEXPE       ON           R$  000000000041200000000004120000000000408000000000041000000000004080000000000405000000000040900002000000000000000200000000000000082000000000000000009999123100000010000000000000BRNEXPACNOR0101
012024091008AMER3       010AMERICANAS  ON      NM   R$  000000000069500000000007050000000000653000000000068300000000006580000000000657000000000065807271000000000013498400000000009223861600000000000000009999123100000010000000000000BRAMERACNOR6103
012024091008JFEN3       010JOAO FORTES ON           R$  000000000002400000000000260000000000023000000000002400000000000230000000000023000000000002400748000000000005394800000000000131835600000000000000009999123100000010000000000000BRJFENACNOR0059
012024091008LIGT3       010LIGHT S/A   ON      NM   R$  000000000078700000000007990000000000780000000000079000000000007890000000000788000000000078902278000000000000854900000000000675978300000000000000009999123100000010000000000000BRLIGTACNOR2124
012024091008OIBR3       010OI          ON  ES  N1   R$  000000000049000000000004980000000000465000000000047300000000004700000000000470000000000047101105000000000000657000000000000311350100000000000000009999123100000010000000000000BROIBRACNOR1112
012024091008OIBR4       010OI          PN  ES  N1   R$  000000000119600000000011960000000001160000000000117700000000011600000000001160000000000118400014000000000000001800000000000002119800000000000000009999123100000010000000000000BROIBRACNPR8111
012024091008OSXB3       010OSX BRASIL  ON      NM   R$  000000000038100000000003810000000000381000000000038100000000003810000000000381000000000038800002000000000000000200000000000000076200000000000000009999123100000010000000000000BROSXBACNOR8109
012024091008ATMP3       010ATMASA      ON           R$  000000000013200000000001360000000000132000000000013300000000001360000000000133000000000013600013000000000000005700000000000000761700000000000000009999123100000010000000000000BRATMPACNOR8100
012024091008CTSA3       010SANTANENSE  ON           R$  000000000027200000000002720000000000264000000000026800000000002640000000000263000000000027800007000000000000001800000000000000482400000000000000009999123100000010000000000000BRCTSAACNOR3062
012024091008CTSA4       010SANTANENSE  PN           R$  000000000012300000000001260000000000117000000000011900000000001180000000000118000000000012000045000000000000028800000000000003455500000000000000009999123100000010000000000000BRCTSAACNPR0062
012024091008RNEW11      010RENOVA      UNT     N2   R$  000000000031700000000003180000000000309000000000031200000000003100000000000309000000000031200022000000000000003200000000000000999400000000000000009999123100000010000000000000BRRNEWCDAM15110
012024091008RNEW3       010RENOVA      ON      N2   R$  000000000010600000000001070000000000100000000000010200000000001020000000000102000000000010400072000000000000219700000000000022558400000000000000009999123100000010000000000000BRRNEWACNOR8110
012024091008RNEW4       010RENOVA      PN      N2   R$  000000000010400000000001050000000000101000000000010200000000001010000000000101000000000010200101000000000000055000000000000005617300000000000000009999123100000010000000000000BRRNEWACNPR5110
012024091008RPMG3       010PET MANGUINHON           R$  000000000031100000000003140000000000297000000000030300000000003020000000000296000000000030200086000000000000014800000000000004491500000000000000009999123100000010000000000000BRRPMGACNOR9194
012024091008RSID3       010ROSSI RESID ON      NM   R$  000000000038500000000003990000000000385000000000038900000000003950000000000385000000000039500051000000000000006700000000000002610600000000000000009999123100000010000000000000BRRSIDACNOR8120
012024091010RENT9       010LOCALIZA    ON  REC NM   R$  000000000407000000000042290000000004070000000000419000000000042290000000004000000000000423000014000000000000003200000000000013409800000000000000009999123100000010000000000000BRRENTR06OR8195
012024091010CDII12      010SPARTA CDII DIR          R$  000000000008500000000000850000000000010000000000001900000000000150000000000014000000000001502011000000000000545218000000000010484362000000000000009999123100000010000000000000BRCDIID04M10119
012024091010AESB1       010AES BRASIL  DIR ORD NM   R$  000000000004500000000000460000000000042000000000004500000000000460000000000043000000000004500067000000000000035700000000000001634700000000000000009999123100000010000000000000BRAESBD03OR8106
012024091010OIBR1       010OI          DIR ORD N1   R$  000000000000500000000000050000000000003000000000000300000000000050000000000004000000000000501655000000000009799700000000000037568500000000000000009999123100000010000000000000BROIBRD05OR7111
012024091010EQTL1       010EQUATORIAL  DIR ORD NM   R$  000000000021600000000002260000000000191000000000021300000000002170000000000216000000000021700882000000000000408600000000000087380900000000000000009999123100000010000000000000BREQTLD04OR9130
012024091012EURO11      010FII EUROPAR CI  ER       R$  000000002524900000000252490000000024999000000002486900000000249990000000024999000000002529900011000000000000000132000000000003282757000000000000009999123100000010000000000000BREUROCTF011362
012024091012EVBI11      010FII VBI CON CI  ER       R$  000000000100300000000010030000000001000000000000100000000000010030000000000999000000000100300023000000000000482091000000000482091269000000000000009999123100000010000000000000BREVBICTF007153
012024091012IRDM11      010FII IRIDIUM CI           R$  000000000718300000000072000000000007147000000000716900000000071470000000007147000000000714806297000000000000049326000000000353637411000000000000009999123100000010000000000000BRIRDMCTF004188
012024091012IRIM11      010FII IRIM    CI           R$  000000000745400000000074540000000007300000000000731900000000073790000000007379000000000739000102000000000000003723000000000027251398000000000000009999123100000010000000000000BRIRIMCTF003137
012024091012ITIP11      010FII INTER IPCI  ER       R$  000000000743600000000075170000000007302000000000743200000000073020000000007302000000000743100254000000000000000987000000000007336152000000000000009999123100000010000000000000BRITIPCTF002132
012024091012ITIT11      010FII INTER ITCI  ER       R$  000000000763100000000076920000000007630000000000765500000000076300000000007630000000000769000173000000000000000855000000000006545617000000000000009999123100000010000000000000BRITITCTF004132
012024091012ITRI11      010FII ITRI    CI  ER       R$  000000000901600000000090970000000008847000000000903200000000089880000000008973000000000898806244000000000000024198000000000218560817000000000000009999123100000010000000000000BRITRICTF008105
012024091012PLCR11      010FII PLURAL RCI  ER       R$  000000000854900000000085490000000008444000000000849800000000084440000000008444000000000846700197000000000000002560000000000021754908000000000000009999123100000010000000000000BRPLCRCTF003158
012024091012PLRI11      010FII POLO I  CI  ERA      R$  000000000145000000000014500000000001425000000000143000000000014250000000001425000000000162300008000000000000000047000000000000067225000000000000009999123100000010000000000000BRPLRICTF000245
012024091012PMIS11      010FII PMIS    CI  ER       R$  000000000092900000000009410000000000920000000000093000000000009300000000000926000000000093000361000000000000012713000000000011823341000000000000009999123100000010000000000000BRPMISCTF006110
012024091012PNPR11      010FII PAN PROPCI           R$  000000000710000000000075500000000007100000000000711500000000075500000000007005000000000940000002000000000000000029000000000000206350000000000000009999123100000010000000000000BRPNPRCTF001102
012024091012PORD11      010FII POLO CRICI  ER       R$  000000000087900000000008790000000000873000000000087600000000008730000000000873000000000087401086000000000000041385000000000036286684000000000000009999123100000010000000000000BRPORDCTF005177
012024091012PQAG11      010FII PARQ ANHCI  ER       R$  000000000590000000000059620000000005900000000000593200000000059620000000005900000000000595000006000000000000000048000000000000284750000000000000009999123100000010000000000000BRPQAGCTF009151
012024091012PQDP11      010FII D PEDRO CI  ER       R$  000000019392000000001949830000000192000000000019253800000001932980000000192002000000019329900017000000000000000021000000000004043308000000000000009999123100000010000000000000BRPQDPCTF004274
012024091012TEPP11      010FII TEL PROPCI  ER       R$  000000000891800000000089180000000008855000000000887000000000088790000000008869000000000887901524000000000000004612000000000040909227000000000000009999123100000010000000000000BRTEPPCTF006153
012024091012TGAR11      010FII TG ATIVOCI  ER       R$  000000001171100000000117860000000011698000000001175300000000117700000000011744000000001177012919000000000000078720000000000925255287000000000000009999123100000010000000000000BRTGARCTF009194
012024091012TJKB11      010FII TJK RENDCI           R$  000000003100000000000310000000000031000000000003100000000000310000000000028550000000003100000003000000000000000012000000000000372000000000000000009999123100000010000000000000BRTJKBCTF006132
012024091012TMPS11      010FII ITAU TEMCI  ER       R$  000000000936700000000093880000000009290000000000931600000000093380000000009300000000000933800025000000000000000435000000000004052758000000000000009999123100000010000000000000BRTMPSCTF003117
012024091012TORD11      010FII TORDE EICI           R$  000000000010800000000001100000000000105000000000010700000000001070000000000106000000000010700765000000000000056329000000000006073936000000000000009999123100000010000000000000BRTORDCTF015138
012024091012TRBL11      010FII SDI LOG CI  ER       R$  000000000937000000000094300000000009341000000000936400000000093650000000009362000000000936501307000000000000008965000000000083953556000000000000009999123100000010000000000000BRTRBLCTF007115
012024091012TRNT11      010FII TORRE NOCI           R$  000000000990000000000104000000000009900000000000994100000000100000000000010000000000001039900018000000000000000148000000000001471298000000000000009999123100000010000000000000BRTRNTCTF013341
012024091012TRXB11      010FII TRX R IICI  ER       R$  000000001560100000000157870000000015600000000001563100000000157870000000015001000000001581000004000000000000000006000000000000093790000000000000009999123100000010000000000000BRTRXBCTF002154
012024091012TRXF11      010FII TRX REALCI  ER       R$  000000001058500000000106000000000010561000000001057900000000105750000000010563000000001057507316000000000000055690000000000589176876000000000000009999123100000010000000000000BRTRXFCTF003167
012024091012VSHO11      010FII VOT SHOPCI  ER       R$  000000000734500000000073520000000007291000000000734200000000073260000000007326000000000734800053000000000000000246000000000001806237000000000000009999123100000010000000000000BRVSHOCTF002164
012024091012VSLH11      010FII VERS CRICI  ER       R$  000000000035000000000003560000000000350000000000035300000000003560000000000355000000000035601230000000000000061536000000000021765583000000000000009999123100000010000000000000BRVSLHCTF008146
012024091012VTLT11      010FII VOT LOG CI  ER       R$  000000000952800000000095340000000009464000000000947500000000094640000000009470000000000949700710000000000000000992000000000009399541000000000000009999123100000010000000000000BRVTLTCTF001175
012024091012VVCO11      010FII V2EDCORPCI           R$  000000000130000000000013000000000001287000000000129500000000013000000000001286000000000131100025000000000000000209000000000000270690000000000000009999123100000010000000000000BRVVCOCTF007101
012024091012VVCR11      010FII V2 RECE CI           R$  000000000099000000000009950000000000989000000000099000000000009890000000000988000000000098900079000000000000003423000000000003388868000000000000009999123100000010000000000000BRVVCRCTF000118
012024091012VVRI11      010FII V2 RENDACI           R$  000000001000000000000100000000000010000000000001000000000000100000000000010000000000001005000005000000000000000040000000000000400000000000000000009999123100000010000000000000BRVVRICTF007118
012024091012SAPI11      010FII SAPI    CI  ER       R$  000000000919300000000091930000000009105000000000913800000000091610000000009126000000000916100627000000000000003722000000000034012931000000000000009999123100000010000000000000BRSAPICTF001111
012024091012SARE11      010FII SANT RENCI  ER       R$  000000000393800000000039690000000003938000000000395600000000039620000000003942000000000396201767000000000000016782000000000066391890000000000000009999123100000010000000000000BRSARECTF006159
012024091012ABCP11      010FII ABC IMOBCI  ER       R$  000000000707500000000071000000000007066000000000708400000000070660000000007067000000000707000093000000000000000502000000000003556628000000000000009999123100000010000000000000BRABCPCTF000342
012024091012BARI11      010FII BARIGUI CI  ER       R$  000000000786100000000078620000000007795000000000781800000000078140000000007811000000000781401600000000000000007009000000000054802618000000000000009999123100000010000000000000BRBARICTF003165
012024091012VCJR11      010FII VECTIS  CI  ER       R$  000000000929300000000092930000000009121000000000918200000000091990000000009131000000000919902417000000000000019002000000000174478144000000000000009999123100000010000000000000BRVCJRCTF005158
012024091012VCRI11      010FII VINCI CRCI  ER       R$  000000000083700000000008370000000000828000000000083000000000008320000000000830000000000083201353000000000000032186000000000026744844000000000000009999123100000010000000000000BRVCRICTF007128
012024091012VCRR11      010FII VECT RENCI  ER       R$  000000000685900000000068590000000006706000000000674200000000067240000000006724000000000673301738000000000000004212000000000028398411000000000000009999123100000010000000000000BRVCRRCTF008139
012024091012VGHF11      010FII VALOR HECI  ER       R$  000000000088500000000008850000000000879000000000088200000000008800000000000880000000000088228409000000000000317923000000000280483230000000000000009999123100000010000000000000BRVGHFCTF005147
012024091012VGIP11      010FII VALORAIPCI           R$  000000000878900000000087920000000008640000000000867700000000086700000000008668000000000867005130000000000000026742000000000232065867000000000000009999123100000010000000000000BRVGIPCTF002158
012024091012VGIR11      010FII VALREIIICI           R$  000000000100500000000010050000000000988000000000099300000000009980000000000998000000000099922372000000000000950465000000000944497619000000000000009999123100000010000000000000BRVGIRCTF008179
012024091012VGRI11      010FII VGRI    CI  ER       R$  000000000090100000000009040000000000891000000000089700000000008940000000000894000000000090101957000000000000027474000000000024669751000000000000009999123100000010000000000000BRVGRICTF008107
012024091012VIFI11      010FII VINCI IFCI  ER       R$  000000000080400000000008040000000000791000000000079600000000007940000000000791000000000079801260000000000000003076000000000002450872000000000000009999123100000010000000000000BRVIFICTF009159
012024091012BICR11      010FII INTER   CI  ER       R$  000000000422200000000043000000000004150000000000416800000000041500000000003919000000000420000008000000000000000036000000000000150060000000000000009999123100000010000000000000BRBICRCTF009155
012024091012BIME11      010FII BRIO ME CI  ER       R$  000000000072300000000007280000000000723000000000072600000000007280000000000727000000000072800147000000000000007127000000000005180660000000000000009999123100000010000000000000BRBIMECTF006135
012024091012XPCM11      010FII XP MACAECI           R$  000000000075000000000007510000000000740000000000074600000000007490000000000749000000000075000070000000000000000875000000000000653434000000000000009999123100000010000000000000BRXPCMCTF009230
012024091012XPIN11      010FII XP INDL CI           R$  000000000785000000000078500000000007711000000000775100000000077230000000007723000000000772700396000000000000003409000000000026423335000000000000009999123100000010000000000000BRXPINCTF004176
