00COTAHIST.2024BOVESPA 20240916                                                                                                                                                                                                                      
012024091602EZTC3       010EZTEC       ON      NM   R$  000000000147900000000014790000000001448000000000146200000000014710000000001462000000000147203141000000000000865900000000001266711300000000000000009999123100000010000000000000BREZTCACNOR0126
012024091602IGTI11      010IGUATEMI S.AUNT     N1   R$  000000000225500000000022680000000002221000000000225500000000022620000000002255000000000226210938000000000003738500000000008433719300000000000000009999123100000010000000000000BRIGTICDAM16106
012024091602IGTI3       010IGUATEMI S.AON      N1   R$  000000000027400000000002790000000000272000000000027400000000002730000000000273000000000027500119000000000000024000000000000006597900000000000000009999123100000010000000000000BRIGTIACNOR8106
012024091602INEP3       010INEPAR      ON           R$  000000000018500000000002100000000000185000000000020000000000002050000000000203000000000020500573000000000000195200000000000039153400000000000000009999123100000010000000000000BRINEPACNOR1143
012024091602INEP4       010INEPAR      PN           R$  000000000018500000000002160000000000185000000000020100000000002000000000000199000000000020000497000000000000150700000000000030383800000000000000009999123100000010000000000000BRINEPACNPR8143
012024091602INTB3       010INTELBRAS   ON      NM   R$  000000000231000000000023230000000002272000000000229300000000022930000000002284000000000229404421000000000000788700000000001808998000000000000000009999123100000010000000000000BRINTBACNOR9112
012024091602IRBR3       010IRBBRASIL REON      NM   R$  000000000471900000000047600000000004686000000000471400000000047110000000004710000000000471502977000000000000591800000000002789929100000000000000009999123100000010000000000000BRIRBRACNOR4111
012024091602ASAI3       010ASSAI       ON      NM   R$  000000000088400000000008980000000000875000000000088500000000008750000000000875000000000087815389000000000013539000000000011991971100000000000000009999123100000010000000000000BRASAIACNOR0106
012024091602ATOM3       010ATOMPAR     ON           R$  000000000021900000000002200000000000215000000000021600000000002160000000000215000000000021700015000000000000002100000000000000454900000000000000009999123100000010000000000000BRATOMACNOR1106
012024091602AURE3       010AUREN       ON      NM   R$  000000000111400000000011160000000001107000000000111100000000011100000000001110000000000111305803000000000003197700000000003554774800000000000000009999123100000010000000000000BRAUREACNOR9104
012024091602AVLL3       010ALPHAVILLE  ON      NM   R$  000000000036200000000003620000000000331000000000034300000000003440000000000344000000000034500093000000000000059200000000000020347300000000000000009999123100000010000000000000BRAVLLACNOR5103
012024091602AZEV3       010AZEVEDO     ON           R$  000000000013200000000001330000000000126000000000012900000000001330000000000132000000000013300968000000000000946100000000000122477100000000000000009999123100000010000000000000BRAZEVACNOR0121
012024091602AZEV4       010AZEVEDO     PN           R$  000000000013200000000001340000000000127000000000012900000000001330000000000133000000000013401479000000000003434600000000000446439100000000000000009999123100000010000000000000BRAZEVACNPR7121
012024091602BBDC3       010BRADESCO    ON      N1   R$  000000000139500000000014010000000001377000000000138500000000013880000000001385000000000138905371000000000002938500000000004072547100000000000000009999123100000010000000000000BRBBDCACNOR1774
012024091602BBDC4       010BRADESCO    PN      N1   R$  000000000155400000000015600000000001529000000000154000000000015430000000001542000000000154433515000000000027880800000000042946465500000000000000009999123100000010000000000000BRBBDCACNPR8774
012024091602BRBI11      010BR PARTNERS UNT     N2   R$  000000000160000000000016000000000001530000000000155300000000015300000000001530000000000154601346000000000000249900000000000388156100000000000000009999123100000010000000000000BRBRBICDAM10110
012024091602BRFS3       010BRF SA      ON      NM   R$  000000000247600000000025540000000002474000000000250700000000025000000000002496000000000250019959000000000006562800000000016454903300000000000000009999123100000010000000000000BRBRFSACNOR8122
012024091602CLSA3       010CLEARSALE   ON      NM   R$  000000000083200000000008350000000000810000000000081600000000008150000000000815000000000081602126000000000000545100000000000445276200000000000000009999123100000010000000000000BRCLSAACNOR0100
012024091602CLSC4       010CELESC      PN      N2   R$  000000000832600000000085770000000008326000000000844500000000084580000000008328000000000845900029000000000000003200000000000027025900000000000000009999123100000010000000000000BRCLSCACNPR3131
012024091602CMIG3       010CEMIG       ON      N1   R$  000000000148200000000014860000000001467000000000147900000000014780000000001469000000000147800423000000000000059700000000000088297100000000000000009999123100000010000000000000BRCMIGACNOR6243
012024091602CMIG4       010CEMIG       PN      N1   R$  000000000118000000000011890000000001174000000000117900000000011740000000001173000000000117408615000000000004934400000000005817851500000000000000009999123100000010000000000000BRCMIGACNPR3244
012024091602CMIN3       010CSNMINERACAOON      N2   R$  000000000066500000000007100000000000654000000000068100000000007100000000000706000000000071013151000000000014959700000000010201920500000000000000009999123100000010000000000000BRCMINACNOR2111
012024091602CXSE3       010CAIXA SEGURION      NM   R$  000000000150500000000015250000000001502000000000151500000000015210000000001520000000000152107020000000000002306400000000003495850500000000000000009999123100000010000000000000BRCXSEACNOR7107
012024091602CYRE3       010CYRELA REALTON      NM   R$  000000000223800000000022500000000002210000000000223600000000022500000000002247000000000225010796000000000002888200000000006458033400000000000000009999123100000010000000000000BRCYREACNOR7140
012024091602IFCM3       010INFRACOMM   ON      NM   R$  000000000001700000000000170000000000016000000000001600000000000170000000000016000000000001700399000000000002042600000000000034030100000000000000009999123100000010000000000000BRIFCMACNOR8101
012024091602BIOM3       010BIOMM       ON      MA   R$  000000000100300000000010090000000000967000000000098900000000009670000000000967000000000098200237000000000000056800000000000056208600000000000000009999123100000010000000000000BRBIOMACNOR2112
012024091602SEER3       010SER EDUCA   ON      NM   R$  000000000069500000000007140000000000677000000000070200000000007070000000000703000000000070802782000000000000611000000000000429147300000000000000009999123100000010000000000000BRSEERACNOR5119
012024091602TAEE11      010TAESA       UNT     N2   R$  000000000352100000000035500000000003515000000000352800000000035150000000003513000000000352805465000000000001339600000000004727021200000000000000009999123100000010000000000000BRTAEECDAM10148
012024091602TAEE3       010TAESA       ON      N2   R$  000000000117600000000011780000000001167000000000117200000000011770000000001176000000000117700356000000000000061900000000000072581400000000000000009999123100000010000000000000BRTAEEACNOR9148
012024091602TAEE4       010TAESA       PN      N2   R$  000000000117600000000011860000000001176000000000118000000000011810000000001179000000000118200584000000000000118500000000000139894400000000000000009999123100000010000000000000BRTAEEACNPR6148
012024091602TASA3       010TAURUS ARMASON      N2   R$  000000000112200000000011270000000001112000000000111700000000011250000000001112000000000112400068000000000000012500000000000013973200000000000000009999123100000010000000000000BRTASAACNOR7104
012024091602TASA4       010TAURUS ARMASPN      N2   R$  000000000111400000000011230000000001108000000000111300000000011210000000001115000000000112201505000000000000393500000000000438256900000000000000009999123100000010000000000000BRTASAACNPR4104
012024091602TCSA3       010TECNISA     ON      NM   R$  000000000019200000000001950000000000191000000000019300000000001920000000000192000000000019400092000000000000041900000000000008104300000000000000009999123100000010000000000000BRTCSAACNOR3112
012024091602TECN3       010TECHNOS     ON      NM   R$  000000000050900000000005140000000000502000000000050800000000005020000000000502000000000050700293000000000000070700000000000035982000000000000000009999123100000010000000000000BRTECNACNOR6109
012024091602TELB4       010TELEBRAS    PN           R$  000000000092200000000009390000000000910000000000091700000000009180000000000910000000000091800029000000000000009500000000000008717700000000000000009999123100000010000000000000BRTELBACNPR9140
012024091602BLAU3       010BLAU        ON      NM   R$  000000000138400000000014300000000001361000000000138900000000014090000000001391000000000140901558000000000000239400000000000332580100000000000000009999123100000010000000000000BRBLAUACNOR8114
012024091602BMEB3       010MERCANTIL   ON      N1   R$  000000000395000000000039620000000003950000000000395400000000039600000000003900000000000396000005000000000000000700000000000002768400000000000000009999123100000010000000000000BRBMEBACNOR8206
012024091602BMEB4       010MERCANTIL   PN      N1   R$  000000000419000000000042700000000004142000000000419700000000041480000000004145000000000420000077000000000000013400000000000056243300000000000000009999123100000010000000000000BRBMEBACNPR5211
012024091602BMGB4       010BANCO BMG   PN      N1   R$  000000000039100000000003960000000000386000000000039100000000003930000000000393000000000039601268000000000000804200000000000314696000000000000000009999123100000010000000000000BRBMGBACNPR0110
012024091602BMIN4       010MERC INVEST PN           R$  000000000165000000000016500000000001650000000000165000000000016500000000001630000000000178500002000000000000000300000000000000495000000000000000009999123100000010000000000000BRBMINACNPR1176
012024091602BMKS3       010BIC MONARK  ON           R$  000000003340000000000334490000000032400000000003255300000000333990000000032398000000003340000004000000000000000059000000000001920648000000000000009999123100000010000000000000BRBMKSACNOR9166
012024091602BMOB3       010BEMOBI TECH ON      NM   R$  000000000149900000000014990000000001463000000000147300000000014700000000001470000000000147600751000000000000111200000000000163799700000000000000009999123100000010000000000000BRBMOBACNOR7103
012024091602EQMA3B      010EQTLMARANHAOON      MB   R$  000000000245300000000024900000000002450000000000247600000000024880000000002402000000000248800006000000000000002100000000000005201400000000000000009999123100000010000000000000BREQMAACNOR8108
012024091602EQPA3       010EQTL PARA   ON           R$  000000000061000000000006150000000000604000000000060800000000006150000000000611000000000061500026000000000000004500000000000002738800000000000000009999123100000010000000000000BREQPAACNOR1111
012024091602EQTL3       010EQUATORIAL  ON      NM   R$  000000000340100000000034280000000003401000000000341200000000034060000000003406000000000340720796000000000005152600000000017581871800000000000000009999123100000010000000000000BREQTLACNOR0131
012024091602BBSE3       010BBSEGURIDADEON      NM   R$  000000000362900000000036440000000003604000000000362500000000036400000000003639000000000364014320000000000003934200000000014265078500000000000000009999123100000010000000000000BRBBSEACNOR5125
012024091602BRSR3       010BANRISUL    ON  EJ  N1   R$  000000000130100000000013200000000001301000000000131400000000013150000000001314000000000132400044000000000000005500000000000007227800000000000000009999123100000010000000000000BRBRSRACNOR3189
012024091602BRSR6       010BANRISUL    PNB EJ  N1   R$  000000000123800000000012430000000001227000000000123400000000012310000000001230000000000123303671000000000000708600000000000874726400000000000000009999123100000010000000000000BRBRSRACNPB4192
012024091602BSLI3       010BRB BANCO   ON           R$  000000000095000000000009610000000000950000000000096000000000009610000000000961000000000100100004000000000000002300000000000002209200000000000000009999123100000010000000000000BRBSLIACNOR5194
012024091602BSLI4       010BRB BANCO   PN           R$  000000000094900000000009490000000000949000000000094900000000009490000000000935000000000094900003000000000000000300000000000000284700000000000000009999123100000010000000000000BRBSLIACNPR2194
012024091602CAMB3       010CAMBUCI     ON           R$  000000000122300000000012260000000001200000000000120900000000012090000000001200000000000120900156000000000000025200000000000030479100000000000000009999123100000010000000000000BRCAMBACNOR4131
012024091602CAML3       010CAMIL       ON      NM   R$  000000000094200000000009440000000000925000000000093100000000009320000000000932000000000093601550000000000000279000000000000259906900000000000000009999123100000010000000000000BRCAMLACNOR3129
012024091602CASH3       010MELIUZ      ON      NM   R$  000000000043700000000004420000000000429000000000043400000000004420000000000438000000000044202193000000000002412000000000001049011200000000000000009999123100000010000000000000BRCASHACNOR8107
012024091602EALT3       010ACO ALTONA  ON           R$  000000000153400000000015340000000001494000000000150400000000015090000000001492000000000153800006000000000000001100000000000001654900000000000000009999123100000010000000000000BREALTACNOR4138
012024091602EALT4       010ACO ALTONA  PN           R$  000000000144100000000014410000000001424000000000143400000000014300000000001424000000000144000049000000000000008600000000000012333600000000000000009999123100000010000000000000BREALTACNPR1138
012024091602ECOR3       010ECORODOVIAS ON      NM   R$  000000000079800000000008050000000000786000000000079200000000007860000000000786000000000078905665000000000001845000000000001461564800000000000000009999123100000010000000000000BRECORACNOR8120
012024091602EGIE3       010ENGIE BRASILON      NM   R$  000000000441200000000044450000000004410000000000442800000000044270000000004423000000000442703640000000000000774700000000003430436700000000000000009999123100000010000000000000BREGIEACNOR9127
012024091602ITSA3       010ITAUSA      ON      N1   R$  000000000111500000000011210000000001115000000000111800000000011170000000001117000000000112100288000000000000083000000000000092820100000000000000009999123100000010000000000000BRITSAACNOR0442
012024091602ITSA4       010ITAUSA      PN      N1   R$  000000000112000000000011230000000001115000000000111800000000011200000000001120000000000112115268000000000009195000000000010287706900000000000000009999123100000010000000000000BRITSAACNPR7442
012024091602PDGR3       010PDG REALT   ON      NM   R$  000000000001600000000000160000000000015000000000001500000000000160000000000015000000000001600245000000000000305900000000000004797300000000000000009999123100000010000000000000BRPDGRACNOR8119
012024091602PDTC3       010PADTEC      ON      NM   R$  000000000018800000000001900000000000185000000000018700000000001890000000000188000000000019000054000000000000034800000000000006535500000000000000009999123100000010000000000000BRPDTCACNOR3101
012024091602PEAB4       010PAR AL BAHIAPN           R$  000000000499900000000049990000000004999000000000499900000000049990000000000000000000000499900001000000000000000100000000000000499900000000000000009999123100000010000000000000BRPEABACNPR0133
012024091602PETR3       010PETROBRAS   ON      N2   R$  000000000408000000000041310000000004066000000000408800000000040770000000004077000000000407813339000000000005244000000000021437847600000000000000009999123100000010000000000000BRPETRACNOR9206
012024091602PETR4       010PETROBRAS   PN      N2   R$  000000000372400000000037720000000003716000000000373700000000037210000000003721000000000372241243000000000022614800000000084527006300000000000000009999123100000010000000000000BRPETRACNPR6214
012024091602RENT3       010LOCALIZA    ON      NM   R$  000000000442100000000044600000000004379000000000440800000000043790000000004378000000000438917011000000000003941500000000017376177700000000000000009999123100000010000000000000BRRENTACNOR4196
012024091602JHSF3       010JHSF PART   ON      NM   R$  000000000045400000000004540000000000449000000000045100000000004510000000000450000000000045104398000000000002299000000000001038484700000000000000009999123100000010000000000000BRJHSFACNOR2139
012024091602LUPA3       010LUPATECH    ON      NM   R$  000000000014300000000001470000000000143000000000014400000000001440000000000144000000000014600128000000000000100100000000000014434100000000000000009999123100000010000000000000BRLUPAACNOR8112
012024091602LVTC3       010WDC NETWORKSON      NM   R$  000000000040200000000004130000000000399000000000040600000000004130000000000403000000000041000033000000000000010600000000000004306900000000000000009999123100000010000000000000BRLVTCACNOR4102
012024091602LWSA3       010LWSA        ON      NM   R$  000000000045500000000004620000000000451000000000045500000000004580000000000455000000000045804702000000000002074300000000000944917100000000000000009999123100000010000000000000BRLWSAACNOR8103
012024091602LEVE3       010METAL LEVE  ON      NM   R$  000000000313800000000031600000000003120000000000313500000000031250000000003125000000000313601529000000000000272900000000000855670100000000000000009999123100000010000000000000BRLEVEACNOR2197
012024091602LJQQ3       010QUERO-QUERO ON      NM   R$  000000000041400000000004160000000000401000000000040800000000004010000000000401000000000040404913000000000001744200000000000712906200000000000000009999123100000010000000000000BRLJQQACNOR5104
012024091602LOGG3       010LOG COM PROPON      NM   R$  000000000230300000000023170000000002278000000000229900000000023000000000002300000000000231702217000000000000272200000000000625803700000000000000009999123100000010000000000000BRLOGGACNOR7107
012024091602LOGN3       010LOG-IN      ON      NM   R$  000000000379700000000037970000000003550000000000365300000000035500000000003550000000000360000161000000000000022700000000000082938500000000000000009999123100000010000000000000BRLOGNACNOR3105
012024091602LPSB3       010LOPES BRASILON      NM   R$  000000000020200000000002030000000000182000000000018800000000001880000000000187000000000018800549000000000000541700000000000102181100000000000000009999123100000010000000000000BRLPSBACNOR0114
012024091602LREN3       010LOJAS RENNERON      NM   R$  000000000189400000000019510000000001880000000000193100000000019360000000001935000000000193624544000000000020561900000000039723722400000000000000009999123100000010000000000000BRLRENACNOR1221
012024091602AERI3       010AERIS       ON      NM   R$  000000000087900000000008790000000000826000000000084300000000008450000000000845000000000084900739000000000000217900000000000183869500000000000000009999123100000010000000000000BRAERIACNOR4102
012024091602AESB3       010AES BRASIL  ON      NM   R$  000000000116000000000011640000000001160000000000116200000000011630000000001162000000000116402875000000000003344800000000003889694000000000000000009999123100000010000000000000BRAESBACNOR7107
012024091602AFLT3       010AFLUENTE T  ON           R$  000000000072300000000007230000000000723000000000072300000000007230000000000720000000000073000002000000000000000200000000000000144600000000000000009999123100000010000000000000BRAFLTACNOR1122
012024091602AGRO3       010BRASILAGRO  ON      NM   R$  000000000267500000000027120000000002675000000000269100000000026790000000002677000000000268901291000000000000269000000000000724039900000000000000009999123100000010000000000000BRAGROACNOR7114
012024091602AGXY3       010AGROGALAXY  ON      NM   R$  000000000011400000000001190000000000111000000000011400000000001130000000000112000000000011400323000000000000360200000000000041226300000000000000009999123100000010000000000000BRAGXYACNOR4103
012024091602AHEB3       010SPTURIS     ON           R$  000000000375000000000037500000000003750000000000375000000000037500000000002990000000000400000002000000000000000200000000000000750000000000000000009999123100000010000000000000BRAHEBACNOR0106
012024091602ALLD3       010ALLIED      ON      NM   R$  000000000078700000000007950000000000786000000000078900000000007870000000000787000000000079400142000000000000042600000000000033631000000000000000009999123100000010000000000000BRALLDACNOR3106
012024091602ALOS3       010ALLOS       ON      NM   R$  000000000228500000000023210000000002285000000000231100000000023210000000002320000000000232110947000000000003242900000000007497406100000000000000009999123100000010000000000000BRALOSACNOR5101
012024091602BAHI3       010BAHEMA      ON      MA   R$  000000000066000000000006600000000000660000000000066100000000006600000000000650000000000066000009000000000000003800000000000002513500000000000000009999123100000010000000000000BRBAHIACNOR1074
012024091602BAZA3       010AMAZONIA    ON           R$  000000000953300000000095330000000009420000000000945000000000094330000000009380000000000943300004000000000000000500000000000004725200000000000000009999123100000010000000000000BRBAZAACNOR0179
012024091602BBAS3       010BRASIL      ON  EJ  NM   R$  000000000285000000000028700000000002839000000000285800000000028570000000002857000000000286021357000000000008948800000000025580900900000000000000009999123100000010000000000000BRBBASACNOR3326
012024091602BEES3       010BANESTES    ON           R$  000000000089700000000008990000000000896000000000089700000000008990000000000896000000000089900051000000000000009500000000000008524000000000000000009999123100000010000000000000BRBEESACNOR9395
012024091602BEES4       010BANESTES    PN           R$  000000000096000000000009650000000000952000000000095700000000009560000000000952000000000096400012000000000000001800000000000001723100000000000000009999123100000010000000000000BRBEESACNPR6320
012024091602BPAN4       010BANCO PAN   PN      N1   R$  000000000106100000000010880000000001061000000000107500000000010770000000001075000000000107704741000000000001089000000000001170913300000000000000009999123100000010000000000000BRBPANACNPR1115
012024091602CSED3       010CRUZEIRO EDUON      NM   R$  000000000036300000000003660000000000355000000000035900000000003550000000000355000000000035700825000000000000269700000000000097026500000000000000009999123100000010000000000000BRCSEDACNOR9105
012024091602CSMG3       010COPASA      ON      NM   R$  000000000256900000000026420000000002569000000000260400000000026120000000002611000000000261406179000000000002303000000000005999163500000000000000009999123100000010000000000000BRCSMGACNOR5174
012024091602CSNA3       010SID NACIONALON           R$  000000000119100000000011990000000001186000000000119200000000011910000000001190000000000119206173000000000002563200000000003057112700000000000000009999123100000010000000000000BRCSNAACNOR6261
012024091602GRND3       010GRENDENE    ON      NM   R$  000000000060600000000006160000000000606000000000061100000000006090000000000609000000000061100925000000000000266700000000000163106100000000000000009999123100000010000000000000BRGRNDACNOR3175
012024091602GUAR3       010GUARARAPES  ON      NM   R$  000000000089800000000009120000000000885000000000090200000000009050000000000905000000000091002881000000000000719700000000000649513800000000000000009999123100000010000000000000BRGUARACNOR4173
012024091602HAGA3       010HAGA S/A    ON           R$  000000000024200000000002530000000000242000000000024600000000002470000000000247000000000024800013000000000000005300000000000001308500000000000000009999123100000010000000000000BRHAGAACNOR7103
012024091602HAGA4       010HAGA S/A    PN           R$  000000000011900000000001200000000000119000000000011900000000001190000000000118000000000012000016000000000000016300000000000001941000000000000000009999123100000010000000000000BRHAGAACNPR4103
012024091602SHUL4       010SCHULZ      PN           R$  000000000064700000000006510000000000642000000000064500000000006430000000000642000000000064300843000000000000241300000000000155758500000000000000009999123100000010000000000000BRSHULACNPR4156
012024091602SIMH3       010SIMPAR      ON      NM   R$  000000000059900000000006010000000000590000000000059400000000005950000000000591000000000059504434000000000001536900000000000914111300000000000000009999123100000010000000000000BRSIMHACNOR0107
012024091602SLCE3       010SLC AGRICOLAON      NM   R$  000000000173000000000017320000000001712000000000172100000000017190000000001718000000000172004723000000000002002900000000003447421500000000000000009999123100000010000000000000BRSLCEACNOR2125
012024091602TFCO4       010TRACK FIELD PN      N2   R$  000000000116300000000011630000000001149000000000115900000000011590000000001155000000000116000859000000000000188900000000000218943900000000000000009999123100000010000000000000BRTFCOACNPR8114
012024091602TGMA3       010TEGMA       ON      NM   R$  000000000284900000000028490000000002784000000000280400000000027980000000002798000000000282400528000000000000070100000000000196599300000000000000009999123100000010000000000000BRTGMAACNOR7145
012024091602TIMS3       010TIM         ON      NM   R$  000000000184200000000018710000000001842000000000186400000000018660000000001865000000000186708824000000000003682200000000006864403500000000000000009999123100000010000000000000BRTIMSACNOR5117
012024091602TOTS3       010TOTVS       ON      NM   R$  000000000302200000000030570000000002987000000000302300000000030260000000003022000000000302609020000000000003225800000000009751710400000000000000009999123100000010000000000000BRTOTSACNOR8145
012024091602TPIS3       010TRIUNFO PARTON      NM   R$  000000000053100000000005320000000000507000000000051600000000005130000000000513000000000051800145000000000000039400000000000020359000000000000000009999123100000010000000000000BRTPISACNOR8118
012024091602TRAD3       010TC          ON      NM   R$  000000000038500000000005080000000000380000000000046100000000004890000000000488000000000049002882000000000001053400000000000486300300000000000000009999123100000010000000000000BRTRADACNOR3102
012024091602TRIS3       010TRISUL      ON      NM   R$  000000000048500000000004980000000000481000000000048900000000004940000000000494000000000049700806000000000000390800000000000191443200000000000000009999123100000010000000000000BRTRISACNOR4118
012024091602TRPL3       010TRAN PAULISTON      N1   R$  000000000317200000000031950000000003172000000000318500000000031870000000003171000000000318600008000000000000000800000000000002548700000000000000009999123100000010000000000000BRTRPLACNOR4185
012024091602TRPL4       010TRAN PAULISTPN      N1   R$  000000000247500000000024810000000002464000000000247200000000024750000000002473000000000247704670000000000000872300000000002156671200000000000000009999123100000010000000000000BRTRPLACNPR1185
012024091602VAMO3       010VAMOS       ON      NM   R$  000000000073400000000007420000000000727000000000073500000000007330000000000732000000000073307962000000000004229100000000003108858000000000000000009999123100000010000000000000BRVAMOACNOR7105
012024091602VBBR3       010VIBRA       ON      NM   R$  000000000255000000000025500000000002464000000000249500000000024740000000002474000000000247724945000000000008623200000000021522301500000000000000009999123100000010000000000000BRVBBRACNOR1108
012024091602MOVI3       010MOVIDA      ON      NM   R$  000000000071700000000007220000000000707000000000071500000000007210000000000719000000000072103617000000000001944500000000001391842800000000000000009999123100000010000000000000BRMOVIACNOR0122
012024091602MRFG3       010MARFRIG     ON      NM   R$  000000000144800000000014770000000001440000000000145300000000014440000000001444000000000144510020000000000003054200000000004439312400000000000000009999123100000010000000000000BRMRFGACNOR0116
012024091602SBFG3       010GRUPO SBF   ON      NM   R$  000000000180900000000018090000000001760000000000177400000000017710000000001769000000000177503220000000000001084900000000001925361600000000000000009999123100000010000000000000BRSBFGACNOR1103
012024091602SBSP3       010SABESP      ON      NM   R$  000000000943100000000096500000000009431000000000961400000000096500000000009640000000000965214086000000000003190900000000030677476300000000000000009999123100000010000000000000BRSBSPACNOR5161
012024091602SCAR3       010SAO CARLOS  ON      NM   R$  000000000234000000000023400000000002319000000000232700000000023340000000002300000000000234000014000000000000002300000000000005354100000000000000009999123100000010000000000000BRSCARACNOR7131
012024091602CPFE3       010CPFL ENERGIAON      NM   R$  000000000340400000000034310000000003394000000000340300000000034260000000003414000000000342706234000000000002451500000000008344395100000000000000009999123100000010000000000000BRCPFEACNOR0137
012024091602CPLE3       010COPEL       ON      N2   R$  000000000097700000000009820000000000962000000000096700000000009690000000000968000000000096910664000000000005127800000000004962414000000000000000009999123100000010000000000000BRCPLEACNOR8149
012024091602CPLE5       010COPEL       PNA     N2   R$  000000000115000000000011500000000001148000000000114900000000011480000000001141000000000116900003000000000000000600000000000000689800000000000000009999123100000010000000000000BRCPLEACNPA1147
012024091602CPLE6       010COPEL       PNB     N2   R$  000000000108700000000010930000000001078000000000108300000000010820000000001080000000000108213917000000000009190500000000009955444000000000000000009999123100000010000000000000BRCPLEACNPB9146
012024091602GGBR3       010GERDAU      ON      N1   R$  000000000166800000000016850000000001642000000000165400000000016420000000001641000000000165500181000000000000023700000000000039218100000000000000009999123100000010000000000000BRGGBRACNOR1193
012024091602GGBR4       010GERDAU      PN      N1   R$  000000000187500000000018820000000001843000000000185200000000018480000000001848000000000185118238000000000010058500000000018637418800000000000000009999123100000010000000000000BRGGBRACNPR8193
012024091602WEST3       010WESTWING    ON      NM   R$  000000000008800000000000880000000000086000000000008700000000000880000000000086000000000008800014000000000000005800000000000000507800000000000000009999123100000010000000000000BRWESTACNOR3100
012024091602WHRL3       010WHIRLPOOL   ON  ED       R$  000000000046300000000004630000000000431000000000044700000000004460000000000445000000000044600042000000000000010900000000000004881600000000000000009999123100000010000000000000BRWHRLACNOR5129
012024091602WHRL4       010WHIRLPOOL   PN  ED       R$  000000000049000000000004900000000000460000000000046900000000004700000000000468000000000047000070000000000000020700000000000009713400000000000000009999123100000010000000000000BRWHRLACNPR2129
012024091602WIZC3       010WIZ CO      ON      NM   R$  000000000061100000000006140000000000596000000000060200000000005960000000000596000000000060201323000000000000459200000000000276536500000000000000009999123100000010000000000000BRWIZCACNOR5102
012024091602WLMM4       010WLM IND COM PN           R$  000000000314900000000031600000000003149000000000315600000000031600000000002969000000000316000002000000000000000300000000000000946900000000000000009999123100000010000000000000BRWLMMACNPR3119
012024091602YDUQ3       010YDUQS PART  ON      NM   R$  000000000108900000000010990000000001073000000000108600000000010940000000001094000000000109509253000000000004791500000000005205114700000000000000009999123100000010000000000000BRYDUQACNOR3105
012024091602NGRD3       010NEOGRID     ON      NM   R$  000000000011500000000001220000000000113000000000011700000000001160000000000116000000000011701103000000000000454800000000000053611900000000000000009999123100000010000000000000BRNGRDACNOR3104
012024091602NINJ3       010GETNINJAS   ON      NM   R$  000000000046500000000004710000000000465000000000046700000000004700000000000465000000000047500019000000000000006700000000000003135500000000000000009999123100000010000000000000BRNINJACNOR5101
012024091602NTCO3       010GRUPO NATURAON      NM   R$  000000000143600000000014600000000001417000000000143000000000014250000000001425000000000142713458000000000006575700000000009409208200000000000000009999123100000010000000000000BRNTCOACNOR5106
012024091602PETZ3       010PETZ        ON      NM   R$  000000000047500000000004750000000000455000000000045900000000004550000000000454000000000045510331000000000011426200000000005250689000000000000000009999123100000010000000000000BRPETZACNOR2110
012024091602RAIZ4       010RAIZEN      PN      N2   R$  000000000031000000000003140000000000307000000000030900000000003100000000000309000000000031008103000000000008655300000000002682126300000000000000009999123100000010000000000000BRRAIZACNPR6111
012024091602RANI3       010IRANI       ON      NM   R$  000000000076500000000007780000000000765000000000077400000000007760000000000773000000000077602209000000000000685800000000000530911900000000000000009999123100000010000000000000BRRANIACNOR5073
012024091602RAPT3       010RANDON PART ON      N1   R$  000000000088400000000008940000000000880000000000088400000000008850000000000885000000000088700212000000000000040600000000000035891700000000000000009999123100000010000000000000BRRAPTACNOR7163
012024091602RAPT4       010RANDON PART PN      N1   R$  000000000111800000000011220000000001098000000000110800000000011130000000001113000000000111406800000000000002645500000000002933681000000000000000009999123100000010000000000000BRRAPTACNPR4163
012024091602BGIP4       010BANESE      PN  ES       R$  000000000252000000000026000000000002500000000000256700000000026000000000002510000000000260000016000000000000002500000000000006419200000000000000009999123100000010000000000000BRBGIPACNPR8210
012024091602BHIA3       010CASAS BAHIA ON      NM   R$  000000000061000000000006250000000000608000000000061700000000006150000000000615000000000061602084000000000001460500000000000901569300000000000000009999123100000010000000000000BRBHIAACNOR1102
012024091602BRAP3       010BRADESPAR   ON      N1   R$  000000000178900000000017890000000001768000000000177400000000017860000000001784000000000178600628000000000000081800000000000145186700000000000000009999123100000010000000000000BRBRAPACNOR5148
012024091602BRAP4       010BRADESPAR   PN      N1   R$  000000000188100000000018940000000001874000000000188400000000018840000000001881000000000188406298000000000002102300000000003961927200000000000000009999123100000010000000000000BRBRAPACNPR2148
012024091602CSUD3       010CSU DIGITAL ON      NM   R$  000000000181000000000018220000000001780000000000179600000000017800000000001780000000000178200171000000000000033500000000000060175000000000000000009999123100000010000000000000BRCSUDACNOR5110
012024091602CTKA4       010KARSTEN     PN           R$  000000000200000000000020000000000002000000000000200000000000020000000000001841000000000205000001000000000000000100000000000000200000000000000000009999123100000010000000000000BRCTKAACNPR7043
012024091602HBOR3       010HELBOR      ON      NM   R$  000000000020200000000002050000000000200000000000020200000000002020000000000202000000000020300348000000000000491700000000000099691200000000000000009999123100000010000000000000BRHBORACNOR3118
012024091602HBRE3       010HBR REALTY  ON      NM   R$  000000000051600000000005170000000000505000000000051100000000005070000000000507000000000051200775000000000000193500000000000098994500000000000000009999123100000010000000000000BRHBREACNOR4100
012024091602HBSA3       010HIDROVIAS   ON      NM   R$  000000000035200000000003560000000000347000000000034900000000003470000000000347000000000034904753000000000001039500000000000363018600000000000000009999123100000010000000000000BRHBSAACNOR0100
012024091602HBTS5       010HABITASUL   PNA          R$  000000000381000000000038100000000003810000000000381000000000038100000000003600000000000410000001000000000000000100000000000000381000000000000000009999123100000010000000000000BRHBTSACNPA3128
012024091602HYPE3       010HYPERA      ON      NM   R$  000000000290800000000029960000000002900000000000292900000000029060000000002905000000000290710263000000000002037700000000005969350900000000000000009999123100000010000000000000BRHYPEACNOR0143
012024091602KRSA3       010KORA SAUDE  ON      NM   R$  000000000005400000000000540000000000051000000000005200000000000520000000000051000000000005200196000000000000397000000000000020780300000000000000009999123100000010000000000000BRKRSAACNOR0100
012024091602LAND3       010TERRASANTAPAON      NM   R$  000000000138000000000014400000000001325000000000137700000000014240000000001424000000000144800327000000000000112800000000000155367600000000000000009999123100000010000000000000BRLANDACNOR9103
012024091602LAVV3       010LAVVI       ON      NM   R$  000000000088000000000008820000000000866000000000087500000000008750000000000875000000000087601454000000000000299100000000000261843500000000000000009999123100000010000000000000BRLAVVACNOR4113
012024091602VITT3       010VITTIA      ON      NM   R$  000000000061800000000006310000000000618000000000062400000000006210000000000621000000000063000784000000000000098800000000000061733100000000000000009999123100000010000000000000BRVITTACNOR4107
012024091602VIVA3       010VIVARA S.A. ON      NM   R$  000000000287000000000028880000000002834000000000286600000000028710000000002871000000000287210778000000000002249000000000006446132700000000000000009999123100000010000000000000BRVIVAACNOR0107
012024091602VIVR3       010VIVER       ON      NM   R$  000000000020900000000002090000000000201000000000020300000000002060000000000205000000000020700106000000000000067000000000000013654900000000000000009999123100000010000000000000BRVIVRACNOR4123
012024091602VIVT3       010TELEF BRASILON           R$  000000000548500000000055800000000005472000000000554700000000055800000000005570000000000558011079000000000002075300000000011512255400000000000000009999123100000010000000000000BRVIVTACNOR0184
012024091602PTNT4       010PETTENATI   PN           R$  000000000073500000000007360000000000735000000000073500000000007360000000000729000000000073600009000000000000008900000000000006549400000000000000009999123100000010000000000000BRPTNTACNPR3047
012024091602QUAL3       010QUALICORP   ON      NM   R$  000000000021600000000002220000000000216000000000021900000000002210000000000220000000000022102408000000000002395900000000000526390900000000000000009999123100000010000000000000BRQUALACNOR6120
012024091602SEQL3       010SEQUOIA LOG ON      NM   R$  000000000056500000000005740000000000510000000000052700000000005160000000000516000000000051802611000000000001422000000000000749693100000000000000009999123100000010000000000000BRSEQLACNOR2103
012024091602SHOW3       010TIME FOR FUNON      NM   R$  000000000009400000000001100000000000094000000000010400000000001060000000000105000000000010600551000000000000698900000000000073151500000000000000009999123100000010000000000000BRSHOWACNOR7105
012024091602BOBR4       010BOMBRIL     PN           R$  000000000022600000000002340000000000226000000000023100000000002320000000000231000000000023400043000000000000028900000000000006687200000000000000009999123100000010000000000000BRBOBRACNPR3128
012024091602BRAV3       010BRAVA       ON      NM   R$  000000000221500000000022270000000002116000000000214900000000021230000000002123000000000212413231000000000004224600000000009081810800000000000000009999123100000010000000000000BRBRAVACNOR3100
012024091602CURY3       010CURY S/A    ON      NM   R$  000000000254900000000025780000000002542000000000256200000000025670000000002567000000000257503268000000000001328800000000003405621400000000000000009999123100000010000000000000BRCURYACNOR3109
012024091602USIM3       010USIMINAS    ON      N1   R$  000000000061000000000006100000000000597000000000060100000000006000000000000600000000000060100482000000000000180700000000000108648800000000000000009999123100000010000000000000BRUSIMACNOR3167
012024091602USIM5       010USIMINAS    PNA     N1   R$  000000000061800000000006180000000000603000000000060500000000006050000000000605000000000060609799000000000010527900000000006379540200000000000000009999123100000010000000000000BRUSIMACNPA6169
012024091602VLID3       010VALID       ON      NM   R$  000000000242300000000024410000000002356000000000238400000000023970000000002394000000000240102482000000000000482900000000001151653900000000000000009999123100000010000000000000BRVLIDACNOR5144
012024091602JALL3       010JALLESMACHADON      NM   R$  000000000066600000000006700000000000657000000000066200000000006600000000000659000000000066101605000000000000356600000000000236343700000000000000009999123100000010000000000000BRJALLACNOR0106
012024091602JBSS3       010JBS         ON      NM   R$  000000000331500000000033720000000003311000000000334600000000033590000000003354000000000335914675000000000004443000000000014866623900000000000000009999123100000010000000000000BRJBSSACNOR8122
012024091602MRVE3       010MRV         ON      NM   R$  000000000080700000000008180000000000801000000000081200000000008130000000000813000000000081413155000000000009456900000000007680150100000000000000009999123100000010000000000000BRMRVEACNOR2127
012024091602MTRE3       010MITRE REALTYON      NM   R$  000000000037900000000003920000000000379000000000038500000000003890000000000385000000000039001115000000000000607600000000000234185800000000000000009999123100000010000000000000BRMTREACNOR6114
012024091602PRNR3       010PRINER      ON      NM   R$  000000000132900000000013320000000001304000000000131500000000013150000000001304000000000131600724000000000000178600000000000234986500000000000000009999123100000010000000000000BRPRNRACNOR4109
012024091602PSSA3       010PORTO SEGUROON      NM   R$  000000000348400000000035030000000003473000000000348700000000034940000000003491000000000349404605000000000000783600000000002732824900000000000000009999123100000010000000000000BRPSSAACNOR7155
012024091602PTBL3       010PORTOBELLO  ON      NM   R$  000000000050500000000005120000000000496000000000050600000000004960000000000496000000000049700589000000000000253000000000000128057400000000000000009999123100000010000000000000BRPTBLACNOR8132
012024091602PTNT3       010PETTENATI   ON           R$  000000000094500000000009450000000000935000000000094200000000009350000000000900000000000093500004000000000000000400000000000000377000000000000000009999123100000010000000000000BRPTNTACNOR6042
012024091602VSTE3       010VESTE       ON      NM   R$  000000000130800000000013170000000001307000000000131400000000013170000000001306000000000132300009000000000000001200000000000001577500000000000000009999123100000010000000000000BRVSTEACNOR5103
012024091602VTRU3       010VITRUEDUCA  ON      NM   R$  000000000096400000000009780000000000938000000000094900000000009450000000000945000000000095300625000000000000330700000000000314097200000000000000009999123100000010000000000000BRVTRUACNOR3100
012024091602VULC3       010VULCABRAS   ON      NM   R$  000000000179900000000018050000000001784000000000179600000000017960000000001796000000000180402993000000000000542000000000000973615300000000000000009999123100000010000000000000BRVULCACNOR2161
012024091602VVEO3       010VIVEO       ON      NM   R$  000000000022000000000002320000000000216000000000022500000000002290000000000229000000000023004241000000000003948100000000000888331200000000000000009999123100000010000000000000BRVVEOACNOR0104
012024091602WEGE3       010WEG         ON      NM   R$  000000000536200000000053920000000005265000000000529700000000053000000000005300000000000530611951000000000002720400000000014411197000000000000000009999123100000010000000000000BRWEGEACNOR0224
012024091602MTSA4       010METISA      PN           R$  000000000406300000000041190000000004061000000000408600000000040750000000004075000000000411800008000000000000000800000000000003268900000000000000009999123100000010000000000000BRMTSAACNPR9072
012024091602MULT3       010MULTIPLAN   ON      N2   R$  000000000277000000000027700000000002736000000000274700000000027600000000002752000000000276118074000000000003016400000000008287642600000000000000009999123100000010000000000000BRMULTACNOR5139
012024091602MYPK3       010IOCHP-MAXIONON      NM   R$  000000000116000000000011790000000001143000000000115900000000011500000000001149000000000115105240000000000001017700000000001179964600000000000000009999123100000010000000000000BRMYPKACNOR7155
012024091602ANIM3       010ANIMA       ON      NM   R$  000000000031900000000003230000000000316000000000031900000000003180000000000318000000000032008179000000000004041400000000001290350600000000000000009999123100000010000000000000BRANIMACNOR6109
012024091602ARML3       010ARMAC       ON      NM   R$  000000000092000000000009350000000000912000000000092400000000009210000000000920000000000092101830000000000000395500000000000365656800000000000000009999123100000010000000000000BRARMLACNOR1112
012024091602NEOE3       010NEOENERGIA  ON      NM   R$  000000000197000000000020010000000001967000000000198200000000019690000000001968000000000197502557000000000000497000000000000985533400000000000000009999123100000010000000000000BRNEOEACNOR3123
012024091602RADL3       010RAIADROGASILON      NM   R$  000000000268500000000027170000000002679000000000269300000000027000000000002700000000000270211441000000000004990700000000013441282100000000000000009999123100000010000000000000BRRADLACNOR0157
012024091602RAIL3       010RUMO S.A.   ON      NM   R$  000000000211600000000021250000000002101000000000211400000000021110000000002111000000000211517749000000000007476500000000015808205400000000000000009999123100000010000000000000BRRAILACNOR9105
012024091602SMFT3       010SMART FIT   ON      NM   R$  000000000231600000000023480000000002275000000000229800000000022990000000002292000000000230110579000000000002535300000000005827375500000000000000009999123100000010000000000000BRSMFTACNOR1112
012024091602SMTO3       010SAO MARTINHOON      NM   R$  000000000261500000000026580000000002604000000000264400000000026440000000002644000000000265904976000000000000960400000000002539692100000000000000009999123100000010000000000000BRSMTOACNOR3127
012024091602TTEN3       0103TENTOS     ON      NM   R$  000000000124000000000012490000000001232000000000124000000000012490000000001240000000000125004583000000000000731300000000000907232900000000000000009999123100000010000000000000BRTTENACNOR0103
012024091602TUPY3       010TUPY        ON      NM   R$  000000000272400000000027240000000002674000000000268700000000026930000000002678000000000269301382000000000000225300000000000605559300000000000000009999123100000010000000000000BRTUPYACNOR1184
012024091602HAPV3       010HAPVIDA     ON      NM   R$  000000000046300000000004750000000000459000000000046600000000004620000000000461000000000046339359000000000053337800000000024879159700000000000000009999123100000010000000000000BRHAPVACNOR4114
012024091602AALR3       010ALLIAR      ON      NM   R$  000000000161200000000016180000000001600000000000161200000000016170000000001597000000000161800093000000000000012000000000000019354700000000000000009999123100000010000000000000BRAALRACNOR6102
012024091602ABCB4       010ABC BRASIL  PN      N2   R$  000000000235000000000023630000000002328000000000234200000000023300000000002329000000000234001791000000000000288200000000000675034600000000000000009999123100000010000000000000BRABCBACNPR4146
012024091602ABEV3       010AMBEV S/A   ON           R$  000000000127600000000012870000000001275000000000128100000000012860000000001285000000000128626392000000000020765800000000026608779900000000000000009999123100000010000000000000BRABEVACNOR1128
012024091602B3SA3       010B3          ON      NM   R$  000000000122000000000012240000000001210000000000121600000000012160000000001215000000000121719576000000000024753700000000030102518600000000000000009999123100000010000000000000BRB3SAACNOR6133
012024091602BEEF3       010MINERVA     ON      NM   R$  000000000069000000000006940000000000677000000000068300000000006800000000000679000000000068009701000000000005550100000000003796083600000000000000009999123100000010000000000000BRBEEFACNOR6116
012024091602BPAC11      010BTGP BANCO  UNT     N2   R$  000000000349300000000035330000000003474000000000351500000000035290000000003528000000000352912437000000000006995500000000024590213600000000000000009999123100000010000000000000BRBPACUNT006119
012024091602BPAC3       010BTGP BANCO  ON      N2   R$  000000000160300000000016580000000001594000000000161100000000016580000000001583000000000165800031000000000000004700000000000007574300000000000000009999123100000010000000000000BRBPACACNOR7134
012024091602BPAC5       010BTGP BANCO  PNA     N2   R$  000000000094600000000009490000000000913000000000094000000000009310000000000926000000000094700025000000000000005100000000000004798400000000000000009999123100000010000000000000BRBPACACNPA0134
012024091602CBAV3       010CBA         ON      NM   R$  000000000048800000000005050000000000484000000000049500000000005050000000000500000000000050605424000000000004044300000000002003767000000000000000009999123100000010000000000000BRCBAVACNOR5104
012024091602CCRO3       010CCR SA      ON      NM   R$  000000000131500000000013320000000001311000000000131900000000013140000000001312000000000131707738000000000003315900000000004374196900000000000000009999123100000010000000000000BRCCROACNOR2145
012024091602CEAB3       010CEA MODAS   ON      NM   R$  000000000105900000000011100000000001044000000000108100000000010840000000001083000000000109107679000000000002756600000000002980099600000000000000009999123100000010000000000000BRCEABACNOR1102
012024091602CEBR3       010CEB         ON           R$  000000000185800000000018650000000001854000000000185800000000018550000000001852000000000186900024000000000000004500000000000008362300000000000000009999123100000010000000000000BRCEBRACNOR5125
012024091602CEBR5       010CEB         PNA          R$  000000000167000000000016700000000001670000000000166200000000016700000000001660000000000167100009000000000000005900000000000009809000000000000000009999123100000010000000000000BRCEBRACNPA8124
012024091602CEBR6       010CEB         PNB          R$  000000000179700000000018750000000001796000000000181300000000017960000000001795000000000180600023000000000000004300000000000007796200000000000000009999123100000010000000000000BRCEBRACNPB6124
012024091602CEEB3       010COELBA      ON           R$  000000000378400000000038500000000003778000000000379400000000038500000000003778000000000385000005000000000000000500000000000001897300000000000000009999123100000010000000000000BRCEEBACNOR3199
012024091602CGAS5       010COMGAS      PNA          R$  000000001260000000000127800000000012600000000001273600000000127360000000012720000000001279000011000000000000001100000000000014010400000000000000009999123100000010000000000000BRCGASACNPA3161
012024091602CGRA3       010GRAZZIOTIN  ON           R$  000000000250100000000025190000000002492000000000250200000000024920000000002492000000000253700016000000000000002400000000000006005600000000000000009999123100000010000000000000BRCGRAACNOR2083
012024091602CGRA4       010GRAZZIOTIN  PN           R$  000000000250300000000025120000000002503000000000250600000000025060000000002490000000000252000006000000000000000700000000000001754500000000000000009999123100000010000000000000BRCGRAACNPR9083
012024091602CRFB3       010CARREFOUR BRON      NM   R$  000000000091200000000009170000000000894000000000090300000000008950000000000894000000000089508412000000000006525100000000005898135700000000000000009999123100000010000000000000BRCRFBACNOR2116
012024091602CRPG5       010CRISTAL     PNA          R$  000000000285100000000029000000000002851000000000288700000000029000000000002851000000000290000003000000000000000400000000000001155000000000000000009999123100000010000000000000BRCRPGACNPA3119
012024091602CRPG6       010CRISTAL     PNB          R$  000000000284000000000028500000000002840000000000284900000000028500000000002801000000000284900070000000000000007000000000000019948900000000000000009999123100000010000000000000BRCRPGACNPB1119
012024091602CSAN3       010COSAN       ON      NM   R$  000000000130700000000013220000000001302000000000131100000000013130000000001312000000000131311913000000000004953900000000006495425500000000000000009999123100000010000000000000BRCSANACNOR6126
012024091602ELMD3       010ELETROMIDIA ON      NM   R$  000000000174300000000018750000000001743000000000181700000000018650000000001842000000000186500325000000000000082900000000000150705200000000000000009999123100000010000000000000BRELMDACNOR3101
012024091602EMAE4       010EMAE        PN           R$  000000000423000000000042670000000004112000000000419900000000042380000000004000000000000423900014000000000000001400000000000005879200000000000000009999123100000010000000000000BREMAEACNPR1125
012024091602EMBR3       010EMBRAER     ON      NM   R$  000000000507500000000051000000000004887000000000493800000000049180000000004915000000000491835563000000000010816000000000053418323300000000000000009999123100000010000000000000BREMBRACNOR4191
012024091602GGPS3       010GPS         ON      NM   R$  000000000184600000000018760000000001846000000000186800000000018690000000001867000000000187206075000000000001686500000000003151754900000000000000009999123100000010000000000000BRGGPSACNOR9103
012024091602GMAT3       010GRUPO MATEUSON      NM   R$  000000000074000000000007470000000000735000000000074200000000007440000000000743000000000074505114000000000002036400000000001512051600000000000000009999123100000010000000000000BRGMATACNOR7102
012024091602GOAU3       010GERDAU MET  ON      N1   R$  000000000108800000000010980000000001076000000000108300000000010840000000001076000000000108400158000000000000027100000000000029371400000000000000009999123100000010000000000000BRGOAUACNOR1268
012024091602GOAU4       010GERDAU MET  PN      N1   R$  000000000107700000000010820000000001056000000000106200000000010600000000001060000000000106106231000000000004678000000000004971261300000000000000009999123100000010000000000000BRGOAUACNPR8269
012024091602AZZA3       010AZZAS 2154  ON      NM   R$  000000000477500000000048310000000004741000000000478300000000047720000000004772000000000478004928000000000001419600000000006790738000000000000000009999123100000010000000000000BRAZZAACNOR9100
012024091602EKTR4       010ELEKTRO     PN           R$  000000000438300000000044900000000004383000000000446200000000044850000000004478000000000455300008000000000000000800000000000003570100000000000000009999123100000010000000000000BREKTRACNPR7164
012024091602ELET3       010ELETROBRAS  ON      N1   R$  000000000416900000000042420000000004151000000000420300000000042000000000004191000000000420014422000000000005145400000000021628023400000000000000009999123100000010000000000000BRELETACNOR6160
012024091602ELET6       010ELETROBRAS  PNB     N1   R$  000000000460000000000046860000000004600000000000463400000000046200000000004620000000000462204290000000000000662500000000003070233300000000000000009999123100000010000000000000BRELETACNPB7077
012024091602ITUB3       010ITAUUNIBANCOON      N1   R$  000000000323400000000032550000000003227000000000323800000000032410000000003240000000000324602696000000000000532400000000001724306100000000000000009999123100000010000000000000BRITUBACNOR4340
012024091602ITUB4       010ITAUUNIBANCOPN      N1   R$  000000000370600000000037220000000003683000000000369700000000037000000000003700000000000370619143000000000010814500000000039986932700000000000000009999123100000010000000000000BRITUBACNPR1340
012024091602PORT3       010WILSON SONS ON      NM   R$  000000000173500000000017470000000001708000000000173700000000017400000000001737000000000174002084000000000000586400000000001018794500000000000000009999123100000010000000000000BRPORTACNOR8109
012024091602POSI3       010POSITIVO TECON      NM   R$  000000000062000000000006230000000000606000000000061300000000006080000000000608000000000060904085000000000001327100000000000813963700000000000000009999123100000010000000000000BRPOSIACNOR9116
012024091602MELK3       010MELNICK     ON      NM   R$  000000000035900000000003590000000000334000000000034300000000003520000000000352000000000035501790000000000004358900000000001498279100000000000000009999123100000010000000000000BRMELKACNOR8111
012024091602MGEL4       010MANGELS INDLPN           R$  000000000116100000000012300000000001161000000000119900000000012300000000001161000000000122500005000000000000000500000000000000599900000000000000009999123100000010000000000000BRMGELACNPR3147
012024091602MGLU3       010MAGAZ LUIZA ON  ATZ NM   R$  000000000115600000000011820000000001144000000000116500000000011690000000001168000000000116915664000000000010971300000000012782306200000000000000009999123100000010000000000000BRMGLUACNOR2125
012024091602PFRM3       010PROFARMA    ON      NM   R$  000000000061800000000006270000000000612000000000062000000000006220000000000622000000000062500634000000000000155700000000000096609300000000000000009999123100000010000000000000BRPFRMACNOR1116
012024091602PGMN3       010PAGUE MENOS ON      NM   R$  000000000029800000000002980000000000289000000000029200000000002900000000000290000000000029101401000000000000368000000000000107495600000000000000009999123100000010000000000000BRPGMNACNOR8103
012024091602PINE3       010PINE        ON      N2   R$  000000000053900000000005410000000000497000000000052500000000005410000000000498000000000054100013000000000000001500000000000000788100000000000000009999123100000010000000000000BRPINEACNOR1150
012024091602PINE4       010PINE        PN      N2   R$  000000000049000000000005000000000000486000000000049200000000004950000000000495000000000049701492000000000000642900000000000316524000000000000000009999123100000010000000000000BRPINEACNPR8150
012024091602PLPL3       010PLANOEPLANO ON      NM   R$  000000000125900000000012760000000001243000000000126600000000012760000000001271000000000127601473000000000000365900000000000463260300000000000000009999123100000010000000000000BRPLPLACNOR5104
012024091602PNVL3       010DIMED       ON      NM   R$  000000000103100000000010310000000001013000000000102000000000010280000000001017000000000102801226000000000000254900000000000260026800000000000000009999123100000010000000000000BRPNVLACNOR9207
012024091602POMO3       010MARCOPOLO   ON      N2   R$  000000000061400000000006170000000000610000000000061500000000006160000000000614000000000061700231000000000000074000000000000045531700000000000000009999123100000010000000000000BRPOMOACNOR0099
012024091602POMO4       010MARCOPOLO   PN      N2   R$  000000000080000000000008040000000000790000000000079500000000007980000000000798000000000079909104000000000004458700000000003548282800000000000000009999123100000010000000000000BRPOMOACNPR7099
012024091602SNSY5       010SANSUY      PNA          R$  000000000059400000000005940000000000580000000000058500000000005880000000000580000000000059400012000000000000006200000000000003627500000000000000009999123100000010000000000000BRSNSYACNPA5111
012024091602SOJA3       010BOA SAFRA   ON      NM   R$  000000000129400000000012970000000001280000000000128700000000012800000000001280000000000128901686000000000000359600000000000463068300000000000000009999123100000010000000000000BRSOJAACNOR9105
012024091602SRNA3       010SERENA      ON      NM   R$  000000000090100000000009100000000000891000000000090300000000009050000000000905000000000090706522000000000002495100000000002253101400000000000000009999123100000010000000000000BRSRNAACNOR4100
012024091602STBP3       010SANTOS BRP  ON      NM   R$  000000000134400000000013720000000001340000000000136000000000013710000000001368000000000137112183000000000003682300000000005011481500000000000000009999123100000010000000000000BRSTBPACNOR3131
012024091602SUZB3       010SUZANO S.A. ON      NM   R$  000000000543300000000054430000000005283000000000532700000000053020000000005302000000000530319416000000000004498900000000023968523500000000000000009999123100000010000000000000BRSUZBACNOR0130
012024091602AZUL4       010AZUL        PN      N2   R$  000000000053700000000005710000000000511000000000054300000000005490000000000548000000000054931980000000000064354400000000035001995500000000000000009999123100000010000000000000BRAZULACNPR4103
012024091602DASA3       010DASA        ON  ES  NM   R$  000000000030000000000003290000000000300000000000031900000000003210000000000319000000000032203151000000000002156200000000000688794500000000000000009999123100000010000000000000BRDASAACNOR1123
012024091602DESK3       010DESKTOP     ON      NM   R$  000000000155500000000015950000000001542000000000158100000000015950000000001589000000000159500739000000000000299400000000000473472900000000000000009999123100000010000000000000BRDESKACNOR2104
012024091602DEXP3       010DEXXOS PAR  ON      N1   R$  000000000091300000000009290000000000909000000000091700000000009250000000000918000000000092500337000000000000053600000000000049203900000000000000009999123100000010000000000000BRDEXPACNOR1105
012024091602DEXP4       010DEXXOS PAR  PN      N1   R$  000000000093000000000009300000000000920000000000092000000000009200000000000915000000000092700003000000000000001700000000000001565000000000000000009999123100000010000000000000BRDEXPACNPR8105
012024091602DIRR3       010DIRECIONAL  ON      NM   R$  000000000335600000000033570000000003308000000000332500000000033350000000003332000000000333706644000000000001824600000000006067668400000000000000009999123100000010000000000000BRDIRRACNOR0118
012024091602DMVF3       010D1000VFARMA ON      NM   R$  000000000063500000000006920000000000635000000000066800000000006890000000000683000000000068900378000000000000082500000000000055143000000000000000009999123100000010000000000000BRDMVFACNOR9100
012024091602DOHL4       010DOHLER      PN           R$  000000000041000000000004190000000000409000000000041100000000004090000000000406000000000041000005000000000000000500000000000000205800000000000000009999123100000010000000000000BRDOHLACNPR9066
012024091602DOTZ3       010DOTZ SA     ON      NM   R$  000000000063100000000006420000000000613000000000062700000000006230000000000621000000000062400099000000000000027600000000000017310200000000000000009999123100000010000000000000BRDOTZACNOR7101
012024091602DXCO3       010DEXCO       ON      NM   R$  000000000080500000000008230000000000800000000000081200000000008090000000000809000000000081104950000000000002552100000000002074310700000000000000009999123100000010000000000000BRDXCOACNOR8105
012024091602ESPA3       010ESPACOLASER ON      NM   R$  000000000010900000000001120000000000108000000000010900000000001100000000000110000000000011100228000000000000244600000000000026900700000000000000009999123100000010000000000000BRESPAACNOR7103
012024091602ESTR4       010ESTRELA     PN           R$  000000000053500000000005700000000000391000000000048800000000005000000000000491000000000053000159000000000000053900000000000026329700000000000000009999123100000010000000000000BRESTRACNPR0144
012024091602ETER3       010ETERNIT     ON      NM   R$  000000000058000000000005920000000000580000000000058400000000005810000000000581000000000058300408000000000000178400000000000104221000000000000000009999123100000010000000000000BRETERACNOR3244
012024091602EUCA4       010EUCATEX     PN      N1   R$  000000000161900000000016330000000001608000000000162500000000016300000000001629000000000163000239000000000000040200000000000065362200000000000000009999123100000010000000000000BREUCAACNPR8044
012024091602EVEN3       010EVEN        ON      NM   R$  000000000066400000000006640000000000650000000000065500000000006560000000000651000000000065601808000000000000348700000000000228724300000000000000009999123100000010000000000000BREVENACNOR8119
012024091602MATD3       010MATER DEI   ON      NM   R$  000000000049300000000004930000000000475000000000048000000000004800000000000480000000000048401701000000000000328300000000000157785100000000000000009999123100000010000000000000BRMATDACNOR4104
012024091602MBLY3       010MOBLY       ON      NM   R$  000000000027100000000002790000000000262000000000026900000000002700000000000270000000000027102165000000000000699600000000000188418500000000000000009999123100000010000000000000BRMBLYACNOR5100
012024091602ODPV3       010ODONTOPREV  ON      NM   R$  000000000119200000000011930000000001176000000000118700000000011920000000001191000000000119201848000000000000334900000000000397656500000000000000009999123100000010000000000000BRODPVACNOR4203
012024091602OFSA3       010OUROFINO S/AON      NM   R$  000000000218000000000021800000000002180000000000218000000000021800000000002000000000000221900005000000000000003700000000000008066000000000000000009999123100000010000000000000BROFSAACNOR7118
012024091602ONCO3       010ONCOCLINICASON      NM   R$  000000000062100000000006270000000000601000000000061000000000006030000000000602000000000060505126000000000002634600000000001608907500000000000000009999123100000010000000000000BRONCOACNOR6101
012024091602OPCT3       010OCEANPACT   ON      NM   R$  000000000071300000000007130000000000692000000000070400000000007040000000000704000000000071002461000000000000527300000000000371241500000000000000009999123100000010000000000000BROPCTACNOR0100
012024091602ORVR3       010ORIZON      ON      NM   R$  000000000494500000000049550000000004822000000000484800000000048420000000004842000000000484902606000000000000420000000000002036552300000000000000009999123100000010000000000000BRORVRACNOR0101
012024091602PCAR3       010P.ACUCAR-CBDON      NM   R$  000000000030200000000003100000000000302000000000030600000000003080000000000307000000000030805022000000000005973800000000001831844400000000000000009999123100000010000000000000BRPCARACNOR3167
012024091602TEND3       010TENDA       ON      NM   R$  000000000136500000000014540000000001361000000000142200000000014490000000001445000000000144917545000000000005299000000000007538263100000000000000009999123100000010000000000000BRTENDACNOR4111
012024091602JSLG3       010JSL         ON      NM   R$  000000000096900000000009760000000000950000000000095900000000009620000000000955000000000096201981000000000000390300000000000374635300000000000000009999123100000010000000000000BRJSLGACNOR2121
012024091602KEPL3       010KEPLER WEBERON      NM   R$  000000000110700000000011130000000001094000000000110000000000010980000000001097000000000110002533000000000000629800000000000693293600000000000000009999123100000010000000000000BRKEPLACNOR1064
012024091602KLBN11      010KLABIN S/A  UNT     N2   R$  000000000218700000000021940000000002158000000000216900000000021720000000002170000000000217308203000000000001851100000000004016455600000000000000009999123100000010000000000000BRKLBNCDAM18143
012024091602KLBN3       010KLABIN S/A  ON      N2   R$  000000000044300000000004430000000000434000000000043600000000004350000000000435000000000043600415000000000000101900000000000044526000000000000000009999123100000010000000000000BRKLBNACNOR2171
012024091602KLBN4       010KLABIN S/A  PN      N2   R$  000000000043600000000004380000000000431000000000043400000000004330000000000432000000000043301662000000000000939700000000000408108500000000000000009999123100000010000000000000BRKLBNACNPR9171
012024091602MILS3       010MILLS       ON      NM   R$  000000000110500000000011200000000001100000000000110700000000011080000000001104000000000110802053000000000000480300000000000531911700000000000000009999123100000010000000000000BRMILSACNOR2128
012024091602MLAS3       010MULTILASER  ON      NM   R$  000000000018000000000001830000000000178000000000017900000000001780000000000178000000000017901681000000000002554200000000000457391300000000000000009999123100000010000000000000BRMLASACNOR9101
012024091602MNDL3       010MUNDIAL     ON           R$  000000000148900000000015200000000001489000000000149300000000015200000000001182000000000152000009000000000000005600000000000008364600000000000000009999123100000010000000000000BRMNDLACNOR4109
012024091602MNPR3       010MINUPAR     ON           R$  000000000155000000000016180000000001550000000000157400000000016180000000001550000000000162000009000000000000001600000000000002519900000000000000009999123100000010000000000000BRMNPRACNOR5122
012024091602CVCB3       010CVC BRASIL  ON      NM   R$  000000000020100000000002090000000000192000000000020200000000002040000000000204000000000020507945000000000027417300000000005546238400000000000000009999123100000010000000000000BRCVCBACNOR1116
012024091602ENEV3       010ENEVA       ON      NM   R$  000000000141800000000014220000000001397000000000141300000000013970000000001397000000000140220269000000000026772900000000037848202100000000000000009999123100000010000000000000BRENEVACNOR8106
012024091602ENGI11      010ENERGISA    UNT     N2   R$  000000000483700000000048960000000004832000000000486000000000048320000000004831000000000486806347000000000001177800000000005725215500000000000000009999123100000010000000000000BRENGICDAM16136
012024091602ENGI3       010ENERGISA    ON      N2   R$  000000000144200000000014420000000001404000000000143000000000014040000000001404000000000148200015000000000000001600000000000002288100000000000000009999123100000010000000000000BRENGIACNOR0146
012024091602ENGI4       010ENERGISA    PN      N2   R$  000000000086800000000008680000000000849000000000085400000000008490000000000842000000000084900007000000000000000900000000000000769300000000000000009999123100000010000000000000BRENGIACNPR7142
012024091602ENJU3       010ENJOEI      ON      NM   R$  000000000014100000000001430000000000137000000000014000000000001420000000000141000000000014200650000000000000547700000000000076682500000000000000009999123100000010000000000000BRENJUACNOR9100
012024091602EPAR3       010EMBPAR S/A  ON           R$  000000000058400000000005840000000000581000000000058200000000005820000000000581000000000058200019000000000000003900000000000002270100000000000000009999123100000010000000000000BREPARACNOR9105
012024091602ALPA3       010ALPARGATAS  ON      N1   R$  000000000074500000000007450000000000740000000000074100000000007400000000000740000000000075400013000000000000010300000000000007642500000000000000009999123100000010000000000000BRALPAACNOR0231
012024091602ALPA4       010ALPARGATAS  PN      N1   R$  000000000074000000000007430000000000733000000000073800000000007400000000000739000000000074104785000000000002262400000000001670854900000000000000009999123100000010000000000000BRALPAACNPR7232
012024091602ALPK3       010ESTAPAR     ON      NM   R$  000000000033000000000003380000000000325000000000032800000000003300000000000327000000000033100220000000000000075600000000000024851900000000000000009999123100000010000000000000BRALPKACNOR9101
012024091602ALUP11      010ALUPAR      UNT     N2   R$  000000000311600000000031400000000003103000000000312100000000031400000000003140000000000314104543000000000001316200000000004108183200000000000000009999123100000010000000000000BRALUPCDAM15120
012024091602ALUP3       010ALUPAR      ON      N2   R$  000000000106000000000010750000000001060000000000106500000000010700000000001061000000000107400015000000000000002000000000000002130900000000000000009999123100000010000000000000BRALUPACNOR8120
012024091602ALUP4       010ALUPAR      PN      N2   R$  000000000103000000000010330000000001022000000000102800000000010290000000001029000000000103900052000000000000006800000000000006991500000000000000009999123100000010000000000000BRALUPACNPR5120
012024091602AMAR3       010LOJAS MARISAON      NM   R$  000000000011300000000001150000000000108000000000011100000000001100000000000109000000000011000996000000000000926000000000000102985500000000000000009999123100000010000000000000BRAMARACNOR4115
012024091602AMBP3       010AMBIPAR     ON      NM   R$  000000000686900000000070870000000006777000000000694800000000069990000000006997000000000700001248000000000000278900000000001937835800000000000000009999123100000010000000000000BRAMBPACNOR6103
012024091602SANB11      010SANTANDER BRUNT          R$  000000000307400000000030850000000003057000000000306700000000030630000000003062000000000307705240000000000000871300000000002672743700000000000000009999123100000010000000000000BRSANBCDAM13165
012024091602SANB3       010SANTANDER BRON           R$  000000000146700000000014710000000001451000000000145900000000014580000000001458000000000146500217000000000000031600000000000046116300000000000000009999123100000010000000000000BRSANBACNOR8172
012024091602SANB4       010SANTANDER BRPN           R$  000000000161500000000016150000000001599000000000160500000000016010000000001601000000000160900315000000000000053100000000000085236800000000000000009999123100000010000000000000BRSANBACNPR5172
012024091602SAPR11      010SANEPAR     UNT     N2   R$  000000000323100000000032660000000003201000000000323500000000032660000000003235000000000326605282000000000001023900000000003312702300000000000000009999123100000010000000000000BRSAPRCDAM13118
012024091602SAPR3       010SANEPAR     ON      N2   R$  000000000061300000000006170000000000601000000000060500000000006060000000000602000000000060600745000000000000237800000000000143913600000000000000009999123100000010000000000000BRSAPRACNOR9159
012024091602SAPR4       010SANEPAR     PN      N2   R$  000000000065200000000006580000000000651000000000065400000000006570000000000656000000000065702956000000000001437900000000000941225500000000000000009999123100000010000000000000BRSAPRACNPR6159
012024091602SYNE3       010SYN PROP TECON      NM   R$  000000000079600000000008070000000000796000000000080200000000008010000000000800000000000080600983000000000000303600000000000243507000000000000000009999123100000010000000000000BRSYNEACNOR2103
012024091602UCAS3       010UNICASA     ON      NM   R$  000000000022700000000002270000000000223000000000022400000000002250000000000224000000000022600054000000000000009000000000000002022900000000000000009999123100000010000000000000BRUCASACNOR1113
012024091602UGPA3       010ULTRAPAR    ON      NM   R$  000000000228200000000023070000000002274000000000229100000000023070000000002289000000000230713595000000000003242800000000007429302400000000000000009999123100000010000000000000BRUGPAACNOR8156
012024091602UNIP3       010UNIPAR      ON           R$  000000000477400000000047780000000004700000000000472800000000047000000000004675000000000473500107000000000000013400000000000063366200000000000000009999123100000010000000000000BRUNIPACNOR7206
012024091602UNIP5       010UNIPAR      PNA          R$  000000000499200000000050800000000004992000000000502600000000050060000000005007000000000509800003000000000000000300000000000001507800000000000000009999123100000010000000000000BRUNIPACNPA0208
012024091602UNIP6       010UNIPAR      PNB          R$  000000000483600000000048770000000004784000000000484600000000048740000000004854000000000487400821000000000000129400000000000627119400000000000000009999123100000010000000000000BRUNIPACNPB8206
012024091602ZAMP3       010ZAMP S.A.   ON           R$  000000000031000000000003150000000000299000000000030500000000003110000000000309000000000031101703000000000000596200000000000182042400000000000000009999123100000010000000000000BRZAMPACNOR5101
012024091602PRIO3       010PETRORIO    ON      NM   R$  000000000436000000000043800000000004274000000000430700000000042740000000004274000000000427615196000000000005418200000000023336696600000000000000009999123100000010000000000000BRPRIOACNOR1107
012024091602ROMI3       010ROMI        ON      NM   R$  000000000110500000000011120000000001095000000000110100000000010960000000001095000000000110000568000000000000113200000000000124713100000000000000009999123100000010000000000000BRROMIACNOR8195
012024091602RSUL4       010RIOSULENSE  PN           R$  000000000640200000000064370000000006299000000000636400000000062990000000006250000000000630000034000000000000003500000000000022276000000000000000009999123100000010000000000000BRRSULACNPR3114
012024091602BRIT3       010BRISANET    ON      NM   R$  000000000034400000000003440000000000327000000000033000000000003300000000000330000000000033201468000000000000702200000000000231866500000000000000009999123100000010000000000000BRBRITACNOR0103
012024091602BRKM3       010BRASKEM     ON      N1   R$  000000000191600000000019400000000001888000000000192200000000018880000000001888000000000193000196000000000000029900000000000057476400000000000000009999123100000010000000000000BRBRKMACNOR1119
012024091602BRKM5       010BRASKEM     PNA     N1   R$  000000000195500000000019750000000001925000000000194100000000019250000000001925000000000192707600000000000002943800000000005714897700000000000000009999123100000010000000000000BRBRKMACNPA4121
012024091602BRKM6       010BRASKEM     PNB     N1   R$  000000000135000000000013500000000001350000000000135000000000013500000000001300000000000136000001000000000000000500000000000000675000000000000000009999123100000010000000000000BRBRKMACNPB2114
012024091602COCE5       010COELCE      PNA          R$  000000000294500000000029820000000002920000000000294200000000029500000000002922000000000295200044000000000000008200000000000024132200000000000000009999123100000010000000000000BRCOCEACNPA3147
012024091602COGN3       010COGNA ON    ON      NM   R$  000000000014700000000001490000000000145000000000014600000000001450000000000145000000000014608377000000000013511700000000001976872700000000000000009999123100000010000000000000BRCOGNACNOR2105
012024091602RCSL3       010RECRUSUL    ON           R$  000000000074700000000007930000000000740000000000077200000000007690000000000768000000000076905031000000000002080700000000001607551500000000000000009999123100000010000000000000BRRCSLACNOR4134
012024091602RCSL4       010RECRUSUL    PN           R$  000000000010100000000001050000000000101000000000010300000000001020000000000102000000000010300221000000000000405500000000000041780500000000000000009999123100000010000000000000BRRCSLACNPR1134
012024091602RDNI3       010RNI         ON      NM   R$  000000000031100000000003170000000000311000000000031300000000003110000000000311000000000031600005000000000000000500000000000000156700000000000000009999123100000010000000000000BRRDNIACNOR9116
012024091602RDOR3       010REDE D OR   ON      NM   R$  000000000348600000000035070000000003429000000000346900000000034440000000003444000000000345218047000000000012752200000000044243658100000000000000009999123100000010000000000000BRRDORACNOR8113
012024091602RECV3       010PETRORECSA  ON      NM   R$  000000000191600000000019310000000001862000000000188100000000018730000000001872000000000187405670000000000001602000000000003014821300000000000000009999123100000010000000000000BRRECVACNOR3107
012024091602REDE3       010REDE ENERGIAON           R$  000000000069500000000006950000000000687000000000069000000000006910000000000689000000000069000012000000000000001500000000000001035900000000000000009999123100000010000000000000BRREDEACNOR7128
012024091602FESA3       010FERBASA     ON  EJ  N1   R$  000000000132600000000013570000000001326000000000134600000000013570000000001314000000000139800003000000000000000400000000000000538500000000000000009999123100000010000000000000BRFESAACNOR8189
012024091602FESA4       010FERBASA     PN  EJ  N1   R$  000000000080300000000008030000000000788000000000079200000000007880000000000787000000000079100812000000000000292000000000000231333800000000000000009999123100000010000000000000BRFESAACNPR5085
012024091602FHER3       010FER HERINGERON      NM   R$  000000000040000000000004090000000000391000000000039600000000003910000000000392000000000039900008000000000000002100000000000000832800000000000000009999123100000010000000000000BRFHERACNOR5103
012024091602FIQE3       010UNIFIQUE    ON      NM   R$  000000000040000000000004060000000000399000000000040100000000004040000000000403000000000040400829000000000000978500000000000393075500000000000000009999123100000010000000000000BRFIQEACNOR5107
012024091602VALE3       010VALE        ON      NM   R$  000000000584300000000058550000000005808000000000583100000000058500000000005849000000000585028201000000000010548000000000061505651700000000000000009999123100000010000000000000BRVALEACNOR0211
012024091602FLRY3       010FLEURY      ON      NM   R$  000000000166600000000016700000000001653000000000165900000000016590000000001659000000000166105135000000000001554300000000002579422500000000000000009999123100000010000000000000BRFLRYACNOR5139
012024091602FRAS3       010FRAS-LE     ON      N1   R$  000000000204100000000020720000000002041000000000206000000000020650000000002058000000000206501568000000000000274000000000000564648100000000000000009999123100000010000000000000BRFRASACNOR0160
012024091602FRIO3       010METALFRIO   ON      NM   R$  000000001096500000000109650000000010965000000001096500000000109650000000009000000000001089500001000000000000000100000000000001096500000000000000009999123100000010000000000000BRFRIOACNOR2111
012024091602GEPA3       010GER PARANAP ON           R$  000000000290000000000029000000000002900000000000290000000000029000000000002745000000000318000001000000000000000200000000000000580000000000000000009999123100000010000000000000BRGEPAACNOR2153
012024091602GEPA4       010GER PARANAP PN           R$  000000000285000000000028500000000002850000000000285000000000028500000000002845000000000288500002000000000000000200000000000000570000000000000000009999123100000010000000000000BRGEPAACNPR9160
012024091602GFSA3       010GAFISA      ON      NM   R$  000000000025800000000002620000000000253000000000025600000000002540000000000254000000000025502541000000000002041700000000000523935400000000000000009999123100000010000000000000BRGFSAACNOR3125
012024091602MDIA3       010M.DIASBRANCOON      NM   R$  000000000262300000000026850000000002566000000000264400000000026820000000002680000000000268207216000000000001722000000000004553471200000000000000009999123100000010000000000000BRMDIAACNOR7135
012024091602MDNE3       010MOURA DUBEUXON      NM   R$  000000000148000000000015090000000001469000000000149200000000015010000000001491000000000150102184000000000000576200000000000860098700000000000000009999123100000010000000000000BRMDNEACNOR9100
012024091602MEAL3       010IMC S/A     ON      NM   R$  000000000014100000000001440000000000140000000000014200000000001440000000000142000000000014400194000000000000182300000000000025888500000000000000009999123100000010000000000000BRMEALACNOR9105
012024091607TXRX4       010TEX RENAUX  PN           R$  000000000023800000000002380000000000235000000000023600000000002350000000000227000000000023400003000000000000000300000000000000070800000000000000009999123100000010000000000000BRTXRXACNPR0142
012024091607NUTR3       010NUTRIPLANT  ON      MA   R$  000000000047900000000004870000000000471000000000048000000000004830000000000473000000000048300017000000000000002400000000000001153100000000000000009999123100000010000000000000BRNUTRACNOR0104
012024091608ATMP3       010ATMASA      ON           R$  000000000013800000000001390000000000138000000000013800000000001390000000000135000000000013900003000000000000000300000000000000041500000000000000009999123100000010000000000000BRATMPACNOR8100
012024091608JFEN3       010JOAO FORTES ON           R$  000000000003000000000000430000000000029000000000003600000000000390000000000038000000000003901964000000000013164800000000000480574700000000000000009999123100000010000000000000BRJFENACNOR0059
012024091608LIGT3       010LIGHT S/A   ON      NM   R$  000000000081200000000008280000000000795000000000081600000000008280000000000817000000000082803478000000000000983300000000000802780100000000000000009999123100000010000000000000BRLIGTACNOR2124
012024091608CTSA3       010SANTANENSE  ON           R$  000000000028200000000002830000000000281000000000028100000000002810000000000264000000000028300004000000000000000500000000000000140900000000000000009999123100000010000000000000BRCTSAACNOR3062
012024091608HOOT4       010HOTEIS OTHONPN           R$  000000000022600000000002260000000000225000000000022500000000002250000000000223000000000023900007000000000000001300000000000000293500000000000000009999123100000010000000000000BRHOOTACNPR9015
012024091608CTSA4       010SANTANENSE  PN           R$  000000000011800000000001190000000000117000000000011700000000001190000000000117000000000011900022000000000000006000000000000000707000000000000000009999123100000010000000000000BRCTSAACNPR0062
012024091608PMAM3       010PARANAPANEMAON      NM   R$  000000000017700000000001770000000000172000000000017300000000001760000000000175000000000017600052000000000000012900000000000002243500000000000000009999123100000010000000000000BRPMAMACNOR3039
012024091608OIBR3       010OI          ON      N1   R$  000000000052000000000005240000000000503000000000051200000000005110000000000511000000000051300684000000000000469400000000000240362700000000000000009999123100000010000000000000BROIBRACNOR1112
012024091608OIBR4       010OI          PN      N1   R$  000000000110500000000011790000000001105000000000113200000000011300000000001130000000000115900008000000000000000900000000000001019000000000000000009999123100000010000000000000BROIBRACNPR8111
012024091608OSXB3       010OSX BRASIL  ON      NM   R$  000000000039200000000003970000000000390000000000039100000000003970000000000390000000000039800007000000000000001400000000000000548400000000000000009999123100000010000000000000BROSXBACNOR8109
012024091608AMER3       010AMERICANAS  ON      NM   R$  000000000065900000000006690000000000653000000000065900000000006630000000000660000000000066302326000000000002932300000000001933558700000000000000009999123100000010000000000000BRAMERACNOR6103
012024091608RNEW11      010RENOVA      UNT     N2   R$  000000000030300000000003100000000000299000000000030200000000003100000000000299000000000031900020000000000000003800000000000001147600000000000000009999123100000010000000000000BRRNEWCDAM15110
012024091608RNEW3       010RENOVA      ON      N2   R$  000000000010000000000001020000000000099000000000010000000000001020000000000100000000000010200056000000000000030300000000000003035200000000000000009999123100000010000000000000BRRNEWACNOR8110
012024091608RNEW4       010RENOVA      PN      N2   R$  000000000010200000000001020000000000098000000000010000000000001010000000000100000000000010100118000000000000142200000000000014223600000000000000009999123100000010000000000000BRRNEWACNPR5110
012024091608RPMG3       010PET MANGUINHON           R$  000000000030100000000003010000000000290000000000029700000000002990000000000293000000000029900074000000000000060600000000000018033800000000000000009999123100000010000000000000BRRPMGACNOR9194
012024091608RSID3       010ROSSI RESID ON      NM   R$  000000000041000000000004100000000000387000000000039700000000004000000000000386000000000040000025000000000000006300000000000002503700000000000000009999123100000010000000000000BRRSIDACNOR8120
012024091608NEXP3       010NEXPE       ON           R$  000000000041200000000004120000000000408000000000040900000000004080000000000403000000000041600003000000000000000300000000000000122800000000000000009999123100000010000000000000BRNEXPACNOR0101
012024091610EQTL1       010EQUATORIAL  DIR ORD NM   R$  000000000017200000000001820000000000155000000000016600000000001740000000000169000000000017502717000000000000850700000000000141365600000000000000009999123100000010000000000000BREQTLD04OR9130
012024091610RENT9       010LOCALIZA    ON  REC NM   R$  000000000442500000000044320000000004377000000000438000000000043770000000000000000000000437800006000000000000004100000000000017958900000000000000009999123100000010000000000000BRRENTR06OR8195
012024091610AESB1       010AES BRASIL  DIR ORD NM   R$  000000000005600000000000620000000000055000000000005900000000000560000000000056000000000005800094000000000000036300000000000002154700000000000000009999123100000010000000000000BRAESBD03OR8106
012024091610BGIP2       010BANESE      DIR PRE      R$  000000000027100000000002710000000000246000000000025300000000002460000000000160000000000027100004000000000000000400000000000000101300000000000000009999123100000010000000000000BRBGIPD08PR8209
012024091610DASA1       010DASA        DIR ORD NM   R$  000000000001400000000000250000000000012000000000001800000000000250000000000022000000000002501127000000000000964300000000000017635700000000000000009999123100000010000000000000BRDASAD04OR0122
012024091610OIBR1       010OI          DIR ORD N1   R$  000000000000700000000000080000000000005000000000000600000000000070000000000006000000000000700923000000000004973900000000000032519800000000000000009999123100000010000000000000BROIBRD05OR7111
012024091610ZAMP9       010ZAMP S.A.   ON  REC      R$  000000000029100000000002950000000000291000000000029400000000002950000000000295000000000030900002000000000000000500000000000000147100000000000000009999123100000010000000000000BRZAMPR01OR0100
012024091612EXES11      010FII EXES    CI           R$  000000000094300000000009500000000000943000000000094900000000009500000000000946000000000095000005000000000000000025000000000000023732000000000000009999123100000010000000000000BREXESCTF006128
012024091612AROA11      010FII AROA    CI           R$  000000000010000000000001000000000000098000000000009900000000000990000000000098000000000009900171000000000000003167000000000000315524000000000000009999123100000010000000000000BRAROACTF003121
012024091612ARRI11      010FII ATRIO   CI           R$  000000000089600000000008990000000000895000000000089600000000008950000000000894000000000089500566000000000000020446000000000018331628000000000000009999123100000010000000000000BRARRICTF009164
012024091612ARXD11      010FII ARXD R  CI           R$  000000000979700000000099300000000009603000000000991200000000099300000000009700000000000999600077000000000000016598000000000164534213000000000000009999123100000010000000000000BRARXDCTF008118
012024091612ASMT11      010FII ASA MET CI           R$  000000000414000000000041400000000004140000000000414000000000041400000000004100000000000434000002000000000000000004000000000000016560000000000000009999123100000010000000000000BRASMTCTF005107
012024091612ATSA11      010FII HATRIUM CI           R$  000000000549600000000054960000000005496000000000549600000000054960000000005300000000000549600001000000000000000001000000000000005496000000000000009999123100000010000000000000BRATSACTF000144
012024091612BRCO11      010FII BRESCO  CI           R$  000000001122400000000112980000000011117000000001119200000000111420000000011139000000001114207161000000000000020803000000000232833063000000000000009999123100000010000000000000BRBRCOCTF007160
012024091612BRCR11      010FII BC FUND CI  ER       R$  000000000495100000000049530000000004930000000000494000000000049350000000004932000000000493509085000000000000028113000000000138901015000000000000009999123100000010000000000000BRBRCRCTF000270
012024091612CJCT11      010FII CJCTOWERCI           R$  000000000596400000000060900000000005900000000000593700000000060500000000005901000000000605000060000000000000000279000000000001656503000000000000009999123100000010000000000000BRCJCTCTF001118
012024091612CLIN11      010FII CLAVE INCI  ER       R$  000000000945100000000094990000000009411000000000944100000000094340000000009433000000000943401928000000000000011765000000000111076969000000000000009999123100000010000000000000BRCLINCTF007111
012024091612CXCO11      010FII CEF CORPCI           R$  000000000699500000000069950000000006811000000000686000000000068300000000006830000000000692700859000000000000019994000000000137169819000000000000009999123100000010000000000000BRCXCOCTF003141
012024091612CXRI11      010FII CX RBRAVCI           R$  000000000781300000000079440000000007650000000000782000000000079440000000008000000000000804900022000000000000000076000000000000594343000000000000009999123100000010000000000000BRCXRICTF003231
012024091612CYCR11      010FII CYRELA  CI           R$  000000000098300000000009840000000000974000000000097900000000009810000000000980000000000098100638000000000000017586000000000017224236000000000000009999123100000010000000000000BRCYCRCTF004142
012024091612ICRI11      010FII CI IPCA CI           R$  000000000966000000000096610000000009613000000000964100000000096390000000009626000000000963900147000000000000003882000000000037429669000000000000009999123100000010000000000000BRICRICTF004107
012024091612IDFI11      010FII UNIDADESCI           R$  000000000082900000000008290000000000820000000000082800000000008260000000000819000000000082600033000000000000000773000000000000640566000000000000009999123100000010000000000000BRIDFICTF007135
012024091612IDGR11      010FII UNID II CI           R$  000000000065000000000007500000000000650000000000070300000000007500000000000750000000000130000007000000000000000139000000000000097750000000000000009999123100000010000000000000BRIDGRCTF006130
012024091612BICR11      010FII INTER   CI           R$  000000000390000000000039000000000003845000000000389500000000038450000000003846000000000390000009000000000000000023000000000000089591000000000000009999123100000010000000000000BRBICRCTF009155
012024091612BIME11      010FII BRIO ME CI  ER       R$  000000000072900000000007350000000000728000000000073200000000007290000000000729000000000073200239000000000000005578000000000004083302000000000000009999123100000010000000000000BRBIMECTF006135
012024091612BLCA11      010FII BLUE AAACI  ER       R$  000000000996100000000100490000000009960000000001000500000000099820000000009960000000001003200543000000000000004292000000000042945273000000000000009999123100000010000000000000BRBLCACTF009134
012024091612BLMG11      010FII BLUE LOGCI  ER       R$  000000000406900000000041000000000004017000000000404500000000040390000000004039000000000404801679000000000000017564000000000071056830000000000000009999123100000010000000000000BRBLMGCTF005150
012024091612BLMO11      010FII BLUEMAC CI           R$  000000000800000000000083000000000007576000000000771700000000077000000000007560000000000798000030000000000000003392000000000026177317000000000000009999123100000010000000000000BRBLMOCTF009134
012024091612BLUR11      010FII BLUE RECCI  ER       R$  000000000999900000000099990000000009999000000000999900000000099990000000007803000000000999900001000000000000000003000000000000029997000000000000009999123100000010000000000000BRBLURCTF005130
012024091612BMLC11      010FII BMBRC LCCI  ER       R$  000000001019900000000101990000000010097000000001016100000000100970000000009722000000001009800003000000000000000008000000000000081288000000000000009999123100000010000000000000BRBMLCCTF004254
012024091612IBCR11      010FII BREI    CI  ER       R$  000000000655500000000065800000000006500000000000654300000000065000000000006505000000000651700199000000000000003656000000000023923485000000000000009999123100000010000000000000BRIBCRCTF009140
012024091612BBRC11      010FII BB CORP CI           R$  000000001147300000000115900000000011473000000001157400000000115860000000011524000000001158800073000000000000000511000000000005914815000000000000009999123100000010000000000000BRBBRCCTF004256
012024091612BROF11      010FII BROF    CI           R$  000000000477600000000047850000000004681000000000476400000000047810000000004781000000000478401636000000000000006591000000000031401233000000000000009999123100000010000000000000BRBROFCTF000116
012024091612BTAL11      010FII BTG AGROCI           R$  000000000775000000000078000000000007731000000000775800000000077840000000007780000000000778402048000000000000016098000000000124898481000000000000009999123100000010000000000000BRBTALCTF003142
012024091612BTCI11      010FII BTG CRI CI  ER       R$  000000000099100000000009960000000000991000000000099400000000009960000000000996000000000099706147000000000000152703000000000151893558000000000000009999123100000010000000000000BRBTCICTF005123
012024091612BTHI11      010BTG HOTEL FICI  ER       R$  000000000400000000000040000000000003927000000000397400000000039750000000003936000000000397500021000000000000001686000000000006701729000000000000009999123100000010000000000000BRBTHICTF004112
012024091612BTLG11      010FII BTLG    CI  ER       R$  000000001011400000000101710000000010000000000001006200000000100000000000010000000000001000119124000000000000103071000000001037144562000000000000009999123100000010000000000000BRBTLGCTF000166
012024091612BTRA11      010FII BTG TAGRCI           R$  000000000442300000000044630000000004419000000000444200000000044430000000004443000000000444900122000000000000001455000000000006464188000000000000009999123100000010000000000000BRBTRACTF000139
012024091612BTSG11      010FII BTSP I  CI           R$  000000001600100000000160010000000016001000000001600100000000160010000000000000000000001800000001000000000000000001000000000000016001000000000000009999123100000010000000000000BRBTSGCTF005134
012024091612CACR11      010CARTESIA FIICI           R$  000000001060000000000106600000000010596000000001063400000000106370000000010611000000001063701105000000000000010139000000000107824124000000000000009999123100000010000000000000BRCACRCTF004136
012024091612CARE11      010FII DEA CARECI           R$  000000000015800000000001630000000000156000000000016000000000001610000000000161000000000016300195000000000000010927000000000001755026000000000000009999123100000010000000000000BRCARECTF000112
012024091612EDFO11      010FII OURINVESCI           R$  000000001699900000000170000000000016999000000001699900000000170000000000016801000000001700000004000000000000000016000000000000271988000000000000009999123100000010000000000000BREDFOCTF004326
012024091612EDGA11      010FII GALERIA CI           R$  000000000181900000000018290000000001800000000000180300000000018010000000001801000000000180900051000000000000004682000000000008446211000000000000009999123100000010000000000000BREDGACTF001244
012024091612IRDM11      010FII IRIDIUM CI  ER       R$  000000000702200000000070350000000006976000000000699600000000069790000000006979000000000698905882000000000000048385000000000338547550000000000000009999123100000010000000000000BRIRDMCTF004189
012024091612IRIM11      010FII IRIM    CI  ER       R$  000000000735800000000073580000000007260000000000729900000000072990000000007271000000000729900066000000000000000452000000000003299384000000000000009999123100000010000000000000BRIRIMCTF003138
012024091612ITIP11      010FII INTER IPCI           R$  000000000720300000000074200000000007202000000000733800000000072050000000007205000000000742000357000000000000002969000000000021789133000000000000009999123100000010000000000000BRITIPCTF002132
012024091612ITIT11      010FII INTER ITCI           R$  000000000766000000000076920000000007425000000000761200000000075550000000007428000000000755700260000000000000001664000000000012667337000000000000009999123100000010000000000000BRITITCTF004132
012024091612ITRI11      010FII ITRI    CI           R$  000000000886500000000089200000000008820000000000886000000000088750000000008868000000000887501018000000000000021312000000000188829598000000000000009999123100000010000000000000BRITRICTF008105
012024091612RELG11      010FII REC LOG CI  ER       R$  000000000619900000000062350000000006198000000000622200000000062280000000006200000000000624000017000000000000000454000000000002825036000000000000009999123100000010000000000000BRRELGCTF008138
012024091612JFLL11      010FII JFL LIV CI           R$  000000000699500000000072600000000006965000000000711800000000072280000000007050000000000722801245000000000000003948000000000028103746000000000000009999123100000010000000000000BRJFLLCTF002143
012024091612LSPA11      010FII LESTE PACI           R$  000000000528000000000054000000000004500000000000458300000000045010000000004500000000000456800151000000000000000905000000000004147718000000000000009999123100000010000000000000BRLSPACTF005142
012024091612LUGG11      010FII LUGGO   CI           R$  000000000737000000000073700000000007000000000000725500000000073620000000007007000000000736200183000000000000001014000000000007356754000000000000009999123100000010000000000000BRLUGGCTF007158
012024091612LVBI11      010FII VBI LOG CI           R$  000000001108400000000110850000000011009000000001103400000000110110000000011011000000001105707045000000000000036005000000000397306934000000000000009999123100000010000000000000BRLVBICTF002172
012024091612MALL11      010FII MALLS BPCI           R$  000000001062400000000106240000000010483000000001051900000000105510000000010510000000001055103669000000000000019081000000000200721431000000000000009999123100000010000000000000BRMALLCTF007184
