00COTAHIST.2024BOVESPA 20240907                                                                                                                                                                                                                      
012024090602CAMB3       010CAMBUCI     ON           R$  000000000124500000000012450000000001237000000000124100000000012400000000001235000000000124000085000000000000016400000000000020356000000000000000009999123100000010000000000000BRCAMBACNOR4131
012024090602CAML3       010CAMIL       ON  EDJ NM   R$  000000000098300000000009870000000000951000000000096500000000009610000000000956000000000096101509000000000000361600000000000349125700000000000000009999123100000010000000000000BRCAMLACNOR3129
012024090602CASH3       010MELIUZ      ON  ER  NM   R$  000000000044100000000004410000000000419000000000042400000000004190000000000418000000000042402957000000000001350800000000000573828600000000000000009999123100000010000000000000BRCASHACNOR8107
012024090602CBAV3       010CBA         ON      NM   R$  000000000049000000000004900000000000468000000000047500000000004680000000000468000000000047106308000000000003303500000000001571222000000000000000009999123100000010000000000000BRCBAVACNOR5104
012024090602CCRO3       010CCR SA      ON      NM   R$  000000000135200000000013770000000001349000000000136200000000013490000000001349000000000135309301000000000006697600000000009127423500000000000000009999123100000010000000000000BRCCROACNOR2145
012024090602CEAB3       010CEA MODAS   ON      NM   R$  000000000103500000000010590000000001012000000000103300000000010220000000001022000000000103108610000000000002841500000000002935772500000000000000009999123100000010000000000000BRCEABACNOR1102
012024090602CSED3       010CRUZEIRO EDUON  ED  NM   R$  000000000036600000000003680000000000356000000000036000000000003560000000000356000000000035700587000000000000287600000000000103763000000000000000009999123100000010000000000000BRCSEDACNOR9105
012024090602JSLG3       010JSL         ON      NM   R$  000000000101400000000010360000000000962000000000098300000000009620000000000961000000000097602663000000000000561400000000000552223000000000000000009999123100000010000000000000BRJSLGACNOR2121
012024090602KEPL3       010KEPLER WEBERON      NM   R$  000000000113500000000011550000000001116000000000113200000000011200000000001118000000000112003248000000000000649900000000000736139000000000000000009999123100000010000000000000BRKEPLACNOR1064
012024090602AALR3       010ALLIAR      ON      NM   R$  000000000158600000000015860000000001511000000000154100000000015300000000001517000000000153000119000000000000021200000000000032674500000000000000009999123100000010000000000000BRAALRACNOR6102
012024090602ABCB4       010ABC BRASIL  PN      N2   R$  000000000236600000000023670000000002295000000000231200000000023010000000002300000000000231103875000000000000634800000000001468008000000000000000009999123100000010000000000000BRABCBACNPR4146
012024090602ABEV3       010AMBEV S/A   ON           R$  000000000129200000000013070000000001291000000000129900000000012990000000001299000000000130215828000000000020976300000000027252586800000000000000009999123100000010000000000000BRABEVACNOR1128
012024090602FESA4       010FERBASA     PN  EJ  N1   R$  000000000079000000000007980000000000781000000000078600000000007820000000000782000000000078502664000000000000638500000000000502231200000000000000009999123100000010000000000000BRFESAACNPR5085
012024090602FHER3       010FER HERINGERON      NM   R$  000000000040500000000004060000000000403000000000040400000000004050000000000405000000000041000018000000000000012100000000000004893100000000000000009999123100000010000000000000BRFHERACNOR5103
012024090602FIQE3       010UNIFIQUE    ON      NM   R$  000000000037600000000003860000000000376000000000038200000000003790000000000379000000000038100646000000000000265300000000000101546400000000000000009999123100000010000000000000BRFIQEACNOR5107
012024090602BEEF3       010MINERVA     ON      NM   R$  000000000071600000000007220000000000700000000000070900000000007000000000000700000000000070206216000000000005747800000000004075480400000000000000009999123100000010000000000000BRBEEFACNOR6116
012024090602CMIN3       010CSNMINERACAOON      N2   R$  000000000059600000000006210000000000589000000000060700000000006180000000000617000000000061821403000000000023073200000000014010850400000000000000009999123100000010000000000000BRCMINACNOR2111
012024090602COCE5       010COELCE      PNA          R$  000000000320800000000032080000000003000000000000306200000000030800000000003054000000000308000113000000000000015900000000000048694500000000000000009999123100000010000000000000BRCOCEACNPA3147
012024090602DASA3       010DASA        ON      NM   R$  000000000031700000000003250000000000307000000000031200000000003070000000000307000000000031002099000000000000664300000000000207732600000000000000009999123100000010000000000000BRDASAACNOR1122
012024090602DESK3       010DESKTOP     ON      NM   R$  000000000153900000000015430000000001494000000000150900000000014940000000001493000000000150700279000000000000130500000000000197023300000000000000009999123100000010000000000000BRDESKACNOR2104
012024090602DEXP3       010DEXXOS PAR  ON      N1   R$  000000000094300000000009430000000000898000000000091600000000009080000000000908000000000091000947000000000000420900000000000385584000000000000000009999123100000010000000000000BRDEXPACNOR1105
012024090602DEXP4       010DEXXOS PAR  PN      N1   R$  000000000093000000000009300000000000905000000000091300000000009140000000000906000000000091400035000000000000010100000000000009229600000000000000009999123100000010000000000000BRDEXPACNPR8105
012024090602DIRR3       010DIRECIONAL  ON      NM   R$  000000000308500000000031260000000003038000000000308300000000031000000000003086000000000310011348000000000002691800000000008299427700000000000000009999123100000010000000000000BRDIRRACNOR0118
012024090602GGPS3       010GPS         ON      NM   R$  000000000180500000000018380000000001797000000000181200000000018110000000001811000000000181607366000000000003200300000000005800862400000000000000009999123100000010000000000000BRGGPSACNOR9103
012024090602GMAT3       010GRUPO MATEUSON      NM   R$  000000000079800000000008140000000000797000000000080700000000008080000000000807000000000080807406000000000003372900000000002722932300000000000000009999123100000010000000000000BRGMATACNOR7102
012024090602GOAU3       010GERDAU MET  ON      N1   R$  000000000107500000000010840000000001062000000000106800000000010730000000001064000000000107300088000000000000023500000000000025102500000000000000009999123100000010000000000000BRGOAUACNOR1268
012024090602GOAU4       010GERDAU MET  PN      N1   R$  000000000105400000000010640000000001042000000000105200000000010480000000001047000000000104909953000000000006159900000000006481930500000000000000009999123100000010000000000000BRGOAUACNPR8269
012024090602AZZA3       010AZZAS 2154  ON      NM   R$  000000000475800000000047940000000004692000000000472700000000047340000000004727000000000473405994000000000001466100000000006930483300000000000000009999123100000010000000000000BRAZZAACNOR9100
012024090602BBSE3       010BBSEGURIDADEON      NM   R$  000000000369700000000037010000000003666000000000367700000000036710000000003671000000000367213007000000000002979400000000010955362600000000000000009999123100000010000000000000BRBBSEACNOR5125
012024090602CEBR3       010CEB         ON           R$  000000000195900000000019590000000001908000000000192000000000019300000000001912000000000193000016000000000000002300000000000004418000000000000000009999123100000010000000000000BRCEBRACNOR5125
012024090602CEBR5       010CEB         PNA          R$  000000000166200000000016750000000001645000000000166100000000016750000000001645000000000172000005000000000000000600000000000000996800000000000000009999123100000010000000000000BRCEBRACNPA8124
012024090602CEBR6       010CEB         PNB          R$  000000000180300000000018100000000001794000000000180200000000018020000000001796000000000180800030000000000000007600000000000013698500000000000000009999123100000010000000000000BRCEBRACNPB6124
012024090602CEEB3       010COELBA      ON           R$  000000000388800000000039090000000003777000000000381600000000039090000000003701000000000394800014000000000000001900000000000007250600000000000000009999123100000010000000000000BRCEEBACNOR3199
012024090602CGAS3       010COMGAS      ON           R$  000000001149900000000114990000000011499000000001149900000000114990000000011499000000001269900001000000000000000100000000000001149900000000000000009999123100000010000000000000BRCGASACNOR0164
012024090602CGAS5       010COMGAS      PNA          R$  000000001256700000000126500000000012302000000001254200000000125800000000012302000000001259900010000000000000001000000000000012542400000000000000009999123100000010000000000000BRCGASACNPA3161
012024090602CGRA3       010GRAZZIOTIN  ON           R$  000000000251600000000025400000000002510000000000251600000000025100000000002503000000000252400015000000000000002300000000000005787900000000000000009999123100000010000000000000BRCGRAACNOR2083
012024090602CGRA4       010GRAZZIOTIN  PN           R$  000000000253600000000025400000000002481000000000250000000000024810000000002480000000000254900043000000000000007300000000000018255300000000000000009999123100000010000000000000BRCGRAACNPR9083
012024090602CLSA3       010CLEARSALE   ON      NM   R$  000000000082300000000008710000000000810000000000084500000000008600000000000846000000000086004862000000000001958200000000001655753400000000000000009999123100000010000000000000BRCLSAACNOR0100
012024090602CLSC4       010CELESC      PN      N2   R$  000000000800000000000080580000000007941000000000798000000000080290000000007946000000000803000018000000000000002200000000000017556400000000000000009999123100000010000000000000BRCLSCACNPR3131
012024090602CMIG3       010CEMIG       ON      N1   R$  000000000148800000000014980000000001477000000000148800000000014810000000001480000000000149300621000000000000110400000000000164369000000000000000009999123100000010000000000000BRCMIGACNOR6243
012024090602CMIG4       010CEMIG       PN      N1   R$  000000000119100000000012010000000001184000000000119200000000011840000000001184000000000118515011000000000010297300000000012275293700000000000000009999123100000010000000000000BRCMIGACNPR3244
012024090602CSUD3       010CSU DIGITAL ON      NM   R$  000000000186100000000018650000000001800000000000183300000000018150000000001814000000000181500300000000000000062400000000000114388000000000000000009999123100000010000000000000BRCSUDACNOR5110
012024090602CTKA4       010KARSTEN     PN           R$  000000000194300000000020970000000001913000000000194300000000019130000000001860000000000209800005000000000000000700000000000001360500000000000000009999123100000010000000000000BRCTKAACNPR7043
012024090602CURY3       010CURY S/A    ON      NM   R$  000000000245900000000024830000000002420000000000243900000000024490000000002449000000000245706976000000000001562300000000003811989500000000000000009999123100000010000000000000BRCURYACNOR3109
012024090602CVCB3       010CVC BRASIL  ON      NM   R$  000000000019100000000002000000000000190000000000019300000000001900000000000190000000000019107107000000000015436400000000002986021100000000000000009999123100000010000000000000BRCVCBACNOR1116
012024090602CXSE3       010CAIXA SEGURION      NM   R$  000000000159000000000016020000000001571000000000158200000000015850000000001582000000000158510528000000000003633600000000005750014200000000000000009999123100000010000000000000BRCXSEACNOR7107
012024090602CYRE3       010CYRELA REALTON      NM   R$  000000000217000000000021940000000002140000000000215900000000021550000000002155000000000215716455000000000004841700000000010456424600000000000000009999123100000010000000000000BRCYREACNOR7140
012024090602FLRY3       010FLEURY      ON      NM   R$  000000000167000000000016870000000001654000000000166800000000016730000000001670000000000167408328000000000002290100000000003821989100000000000000009999123100000010000000000000BRFLRYACNOR5139
012024090602FRAS3       010FRAS-LE     ON      N1   R$  000000000202900000000020330000000001990000000000200600000000020100000000002004000000000201001874000000000000329100000000000660279800000000000000009999123100000010000000000000BRFRASACNOR0160
012024090602FRIO3       010METALFRIO   ON      NM   R$  000000000912000000000095000000000008095000000000831500000000080950000000008000000000000809500011000000000000001100000000000009147500000000000000009999123100000010000000000000BRFRIOACNOR2111
012024090602ROMI3       010ROMI        ON      NM   R$  000000000111100000000011160000000001090000000000109700000000010910000000001091000000000109300839000000000000171200000000000187831900000000000000009999123100000010000000000000BRROMIACNOR8195
012024090602RRRP3       0103R PETROLEUMON      NM   R$  000000000242600000000024440000000002287000000000234500000000022870000000002287000000000229424897000000000010087000000000023660588800000000000000009999123100000010000000000000BRRRRPACNOR5103
012024090602SYNE3       010SYN PROP TECON      NM   R$  000000000080200000000008050000000000788000000000079300000000007900000000000789000000000079001378000000000000562200000000000446065700000000000000009999123100000010000000000000BRSYNEACNOR2103
012024090602TAEE11      010TAESA       UNT     N2   R$  000000000358900000000036100000000003560000000000357500000000035820000000003572000000000358205728000000000001587100000000005674355300000000000000009999123100000010000000000000BRTAEECDAM10148
012024090602TAEE3       010TAESA       ON      N2   R$  000000000119500000000011980000000001183000000000119000000000011960000000001184000000000119600589000000000000094400000000000112383800000000000000009999123100000010000000000000BRTAEEACNOR9148
012024090602TAEE4       010TAESA       PN      N2   R$  000000000120200000000012050000000001188000000000119500000000011880000000001188000000000119200662000000000000131300000000000156910100000000000000009999123100000010000000000000BRTAEEACNPR6148
012024090602RECV3       010PETRORECSA  ON      NM   R$  000000000200600000000020180000000001928000000000195800000000019280000000001928000000000192909981000000000003002600000000005881577500000000000000009999123100000010000000000000BRRECVACNOR3107
012024090602REDE3       010REDE ENERGIAON           R$  000000000069100000000006970000000000690000000000069100000000006970000000000691000000000069700013000000000000001900000000000001314400000000000000009999123100000010000000000000BRREDEACNOR7128
012024090602RENT3       010LOCALIZA    ON      NM   R$  000000000424000000000042810000000004192000000000421900000000042020000000004202000000000420521016000000000005696100000000024034672600000000000000009999123100000010000000000000BRRENTACNOR4196
012024090602STBP3       010SANTOS BRP  ON      NM   R$  000000000135500000000013840000000001347000000000136800000000013680000000001366000000000136814480000000000006447300000000008821417300000000000000009999123100000010000000000000BRSTBPACNOR3131
012024090602SUZB3       010SUZANO S.A. ON      NM   R$  000000000551300000000055420000000005424000000000546200000000054370000000005435000000000543814581000000000003790200000000020703186700000000000000009999123100000010000000000000BRSUZBACNOR0130
012024090602ZAMP3       010ZAMP S.A.   ON           R$  000000000031000000000003200000000000305000000000031000000000003130000000000308000000000031302684000000000000676700000000000210288000000000000000009999123100000010000000000000BRZAMPACNOR5101
012024090602PETZ3       010PETZ        ON      NM   R$  000000000049600000000004960000000000481000000000048700000000004850000000000485000000000048709229000000000010886000000000005312359000000000000000009999123100000010000000000000BRPETZACNOR2110
012024090602RANI3       010IRANI       ON      NM   R$  000000000077900000000007820000000000763000000000076900000000007650000000000765000000000076705366000000000001538600000000001184415400000000000000009999123100000010000000000000BRRANIACNOR5073
012024090602RAPT3       010RANDON PART ON      N1   R$  000000000089200000000008920000000000869000000000087600000000008700000000000870000000000087200149000000000000027300000000000023915400000000000000009999123100000010000000000000BRRAPTACNOR7163
012024090602RAPT4       010RANDON PART PN      N1   R$  000000000111900000000011240000000001041000000000108000000000010940000000001094000000000109512083000000000008018200000000008663980100000000000000009999123100000010000000000000BRRAPTACNPR4163
012024090602RCSL3       010RECRUSUL    ON           R$  000000000065100000000007750000000000640000000000070400000000007560000000000756000000000076006622000000000002771100000000001952333300000000000000009999123100000010000000000000BRRCSLACNOR4134
012024090602RCSL4       010RECRUSUL    PN           R$  000000000010700000000001100000000000106000000000010700000000001070000000000106000000000010700974000000000000847600000000000091117600000000000000009999123100000010000000000000BRRCSLACNPR1134
012024090602RDNI3       010RNI         ON      NM   R$  000000000031600000000003290000000000316000000000032200000000003260000000000317000000000032600006000000000000000600000000000000193700000000000000009999123100000010000000000000BRRDNIACNOR9116
012024090602RDOR3       010REDE D OR   ON      NM   R$  000000000332700000000033540000000003289000000000332000000000033350000000003328000000000333615495000000000006070500000000020155872900000000000000009999123100000010000000000000BRRDORACNOR8113
012024090602SMFT3       010SMART FIT   ON      NM   R$  000000000225000000000022660000000002204000000000223100000000022190000000002218000000000222012531000000000002115600000000004722015900000000000000009999123100000010000000000000BRSMFTACNOR1112
012024090602SMTO3       010SAO MARTINHOON      NM   R$  000000000268400000000026990000000002636000000000265900000000026530000000002647000000000265306446000000000001187300000000003157581000000000000000009999123100000010000000000000BRSMTOACNOR3127
012024090602SNSY3       010SANSUY      ON           R$  000000000130500000000013050000000001305000000000130500000000013050000000001265000000000130700002000000000000000200000000000000261000000000000000009999123100000010000000000000BRSNSYACNOR2113
012024090602SNSY5       010SANSUY      PNA          R$  000000000056500000000005790000000000560000000000056400000000005750000000000558000000000057500009000000000000004300000000000002426400000000000000009999123100000010000000000000BRSNSYACNPA5111
012024090602SOJA3       010BOA SAFRA   ON      NM   R$  000000000128500000000013010000000001257000000000126800000000012600000000001260000000000126702452000000000000544700000000000690958300000000000000009999123100000010000000000000BRSOJAACNOR9105
012024090602SRNA3       010SERENA      ON      NM   R$  000000000084100000000008550000000000836000000000084100000000008400000000000839000000000084304958000000000002969800000000002498366500000000000000009999123100000010000000000000BRSRNAACNOR4100
012024090602WHRL3       010WHIRLPOOL   ON           R$  000000000044400000000004440000000000444000000000044400000000004440000000000438000000000044300004000000000000000400000000000000177600000000000000009999123100000010000000000000BRWHRLACNOR5128
012024090602WHRL4       010WHIRLPOOL   PN           R$  000000000046200000000004620000000000455000000000045700000000004560000000000454000000000045600011000000000000001400000000000000641000000000000000009999123100000010000000000000BRWHRLACNPR2128
012024090602WIZC3       010WIZ CO      ON      NM   R$  000000000061500000000006150000000000602000000000060600000000006020000000000602000000000060502175000000000000567900000000000344615600000000000000009999123100000010000000000000BRWIZCACNOR5102
012024090602SANB11      010SANTANDER BRUNT          R$  000000000314800000000031660000000003106000000000312500000000031260000000003125000000000312906257000000000001519000000000004747018900000000000000009999123100000010000000000000BRSANBCDAM13165
012024090602SANB3       010SANTANDER BRON           R$  000000000149900000000015050000000001480000000000149200000000014870000000001480000000000148700500000000000000065500000000000097743700000000000000009999123100000010000000000000BRSANBACNOR8172
012024090602SANB4       010SANTANDER BRPN           R$  000000000166000000000016600000000001617000000000163500000000016170000000001617000000000163000474000000000000068900000000000112709400000000000000009999123100000010000000000000BRSANBACNPR5172
012024090602SAPR11      010SANEPAR     UNT     N2   R$  000000000298200000000030640000000002975000000000301800000000030030000000002995000000000300410591000000000002003100000000006046948000000000000000009999123100000010000000000000BRSAPRCDAM13118
012024090602SAPR3       010SANEPAR     ON      N2   R$  000000000057000000000005860000000000567000000000057600000000005750000000000574000000000057500743000000000000210200000000000121215200000000000000009999123100000010000000000000BRSAPRACNOR9159
012024090602SAPR4       010SANEPAR     PN      N2   R$  000000000060000000000006160000000000598000000000060600000000006050000000000605000000000060602792000000000001571100000000000952812900000000000000009999123100000010000000000000BRSAPRACNPR6159
012024090602SBFG3       010GRUPO SBF   ON      NM   R$  000000000185000000000018840000000001804000000000182400000000018170000000001817000000000182308314000000000001938000000000003535739900000000000000009999123100000010000000000000BRSBFGACNOR1103
012024090602SBSP3       010SABESP      ON      NM   R$  000000000950100000000095620000000009420000000000947400000000094750000000009474000000000947511050000000000002044500000000019369700900000000000000009999123100000010000000000000BRSBSPACNOR5161
012024090602UNIP3       010UNIPAR      ON           R$  000000000483400000000048340000000004772000000000479700000000048020000000004801000000000482500046000000000000006000000000000028785500000000000000009999123100000010000000000000BRUNIPACNOR7206
012024090602UNIP6       010UNIPAR      PNB          R$  000000000485000000000048870000000004790000000000482300000000047910000000004791000000000480001093000000000000147100000000000709488100000000000000009999123100000010000000000000BRUNIPACNPB8206
012024090602USIM3       010USIMINAS    ON      N1   R$  000000000060800000000006080000000000587000000000059300000000005870000000000587000000000059101451000000000000302100000000000179337600000000000000009999123100000010000000000000BRUSIMACNOR3167
012024090602USIM5       010USIMINAS    PNA     N1   R$  000000000060800000000006100000000000594000000000059900000000005990000000000599000000000060010410000000000011560000000000006935667000000000000000009999123100000010000000000000BRUSIMACNPA6169
012024090602VITT3       010VITTIA      ON      NM   R$  000000000063400000000006340000000000618000000000062200000000006200000000000620000000000062400455000000000000126700000000000078909400000000000000009999123100000010000000000000BRVITTACNOR4107
012024090602VIVA3       010VIVARA S.A. ON      NM   R$  000000000278400000000028890000000002775000000000283400000000027970000000002796000000000279723182000000000005927800000000016799444600000000000000009999123100000010000000000000BRVIVAACNOR0107
012024090602MYPK3       010IOCHP-MAXIONON      NM   R$  000000000115800000000011680000000001141000000000115100000000011550000000001150000000000115603865000000000000978400000000001126334800000000000000009999123100000010000000000000BRMYPKACNOR7155
012024090602NEOE3       010NEOENERGIA  ON      NM   R$  000000000206100000000020780000000002042000000000205600000000020430000000002043000000000205603134000000000000623100000000001281377600000000000000009999123100000010000000000000BRNEOEACNOR3123
012024090602NGRD3       010NEOGRID     ON      NM   R$  000000000012400000000001260000000000111000000000011700000000001150000000000114000000000011501602000000000001266600000000000148509300000000000000009999123100000010000000000000BRNGRDACNOR3104
012024090602NINJ3       010GETNINJAS   ON      NM   R$  000000000047000000000004750000000000465000000000046700000000004700000000000465000000000047600022000000000000004100000000000001918000000000000000009999123100000010000000000000BRNINJACNOR5101
012024090602NORD3       010NORDON MET  ON           R$  000000000109000000000010900000000001090000000000109000000000010900000000001050000000000118000002000000000000000300000000000000327000000000000000009999123100000010000000000000BRNORDACNOR7135
012024090602NTCO3       010GRUPO NATURAON      NM   R$  000000000139500000000014130000000001350000000000137500000000013600000000001360000000000136511389000000000007485200000000010298659100000000000000009999123100000010000000000000BRNTCOACNOR5106
012024090602RSUL4       010RIOSULENSE  PN           R$  000000000644900000000064500000000006449000000000644900000000064500000000006250000000000645700003000000000000000300000000000001934800000000000000009999123100000010000000000000BRRSULACNPR3114
012024090602TRAD3       010TC          ON      NM   R$  000000000026100000000002700000000000258000000000026400000000002700000000000265000000000027000181000000000000100100000000000026442900000000000000009999123100000010000000000000BRTRADACNOR3102
012024090602TRIS3       010TRISUL      ON      NM   R$  000000000046700000000004750000000000462000000000046600000000004640000000000462000000000046501496000000000000494200000000000230472100000000000000009999123100000010000000000000BRTRISACNOR4118
012024090602GEPA3       010GER PARANAP ON           R$  000000000289600000000028960000000002889000000000289100000000028900000000002581000000000288900003000000000000000300000000000000867500000000000000009999123100000010000000000000BRGEPAACNOR2153
012024090602GEPA4       010GER PARANAP PN           R$  000000000285500000000028550000000002855000000000285500000000028550000000002752000000000285000001000000000000000100000000000000285500000000000000009999123100000010000000000000BRGEPAACNPR9160
012024090602GFSA3       010GAFISA      ON      NM   R$  000000000027200000000002740000000000258000000000026200000000002580000000000258000000000025903141000000000004406900000000001156376000000000000000009999123100000010000000000000BRGFSAACNOR3125
012024090602GGBR3       010GERDAU      ON      N1   R$  000000000164000000000016520000000001617000000000163300000000016200000000001615000000000162000213000000000000037700000000000061577900000000000000009999123100000010000000000000BRGGBRACNOR1193
012024090602GGBR4       010GERDAU      PN      N1   R$  000000000183200000000018470000000001805000000000182800000000018170000000001817000000000182320110000000000017399200000000031812285700000000000000009999123100000010000000000000BRGGBRACNPR8193
012024090602ITUB3       010ITAUUNIBANCOON  EJ  N1   R$  000000000328000000000032850000000003218000000000323300000000032370000000003237000000000323802166000000000000439800000000001422180500000000000000009999123100000010000000000000BRITUBACNOR4340
012024090602ITUB4       010ITAUUNIBANCOPN  EJ  N1   R$  000000000375800000000037580000000003687000000000370300000000036950000000003695000000000369732231000000000015938900000000059029354900000000000000009999123100000010000000000000BRITUBACNPR1340
012024090602ELET3       010ELETROBRAS  ON      N1   R$  000000000424500000000042610000000004171000000000419700000000041750000000004175000000000418012931000000000003609100000000015149622100000000000000009999123100000010000000000000BRELETACNOR6160
012024090602ELET6       010ELETROBRAS  PNB     N1   R$  000000000467100000000047050000000004630000000000465600000000046430000000004643000000000464504015000000000000725000000000003376197200000000000000009999123100000010000000000000BRELETACNPB7077
012024090602HBOR3       010HELBOR      ON      NM   R$  000000000020800000000002110000000000201000000000020400000000002010000000000201000000000020200524000000000000546700000000000111549300000000000000009999123100000010000000000000BRHBORACNOR3118
012024090602HBRE3       010HBR REALTY  ON      NM   R$  000000000051600000000005230000000000503000000000050800000000005080000000000507000000000050800911000000000000423500000000000215152000000000000000009999123100000010000000000000BRHBREACNOR4100
012024090602HBSA3       010HIDROVIAS   ON      NM   R$  000000000035100000000003680000000000345000000000036000000000003540000000000353000000000035505300000000000003279600000000001182177200000000000000009999123100000010000000000000BRHBSAACNOR0100
012024090602HBTS5       010HABITASUL   PNA          R$  000000000410000000000041410000000004100000000000412400000000041410000000003732000000000410000002000000000000000500000000000002062300000000000000009999123100000010000000000000BRHBTSACNPA3128
012024090602HETA4       010HERCULES    PN           R$  000000000055000000000005890000000000550000000000058200000000005890000000000537000000000058800005000000000000000600000000000000349200000000000000009999123100000010000000000000BRHETAACNPR9136
012024090602HYPE3       010HYPERA      ON      NM   R$  000000000286500000000028910000000002823000000000284300000000028320000000002830000000000283610746000000000002668400000000007587857000000000000000009999123100000010000000000000BRHYPEACNOR0143
012024090602JALL3       010JALLESMACHADON      NM   R$  000000000066700000000006680000000000655000000000065800000000006550000000000654000000000065501886000000000000555300000000000365895600000000000000009999123100000010000000000000BRJALLACNOR0106
012024090602JBSS3       010JBS         ON      NM   R$  000000000345100000000034620000000003417000000000344000000000034340000000003434000000000343515415000000000004404300000000015154402700000000000000009999123100000010000000000000BRJBSSACNOR8122
012024090602MRVE3       010MRV         ON      NM   R$  000000000077200000000007900000000000751000000000076100000000007530000000000753000000000075412384000000000010553700000000008035652800000000000000009999123100000010000000000000BRMRVEACNOR2127
012024090602MTRE3       010MITRE REALTYON      NM   R$  000000000038000000000003850000000000376000000000037900000000003800000000000378000000000038001619000000000000620500000000000235565700000000000000009999123100000010000000000000BRMTREACNOR6114
012024090602MTSA4       010METISA      PN           R$  000000000433400000000043670000000004272000000000432200000000042930000000004152000000000429400018000000000000002000000000000008644000000000000000009999123100000010000000000000BRMTSAACNPR9072
012024090602MULT3       010MULTIPLAN   ON      N2   R$  000000000260000000000026190000000002572000000000259800000000025950000000002593000000000259515513000000000003681900000000009566916400000000000000009999123100000010000000000000BRMULTACNOR5139
012024090602PDTC3       010PADTEC      ON      NM   R$  000000000020500000000002050000000000200000000000020100000000002000000000000199000000000020000057000000000000045800000000000009213500000000000000009999123100000010000000000000BRPDTCACNOR3101
012024090602PEAB3       010PAR AL BAHIAON           R$  000000000430000000000043000000000004300000000000430000000000043000000000000000000000000440000001000000000000000200000000000000860000000000000000009999123100000010000000000000BRPEABACNOR3133
012024090602PEAB4       010PAR AL BAHIAPN           R$  000000000485000000000048500000000004850000000000485000000000048500000000000000000000000500000001000000000000000100000000000000485000000000000000009999123100000010000000000000BRPEABACNPR0133
012024090602PETR3       010PETROBRAS   ON      N2   R$  000000000420100000000042070000000004103000000000413000000000041130000000004112000000000411421810000000000008287800000000034236005400000000000000009999123100000010000000000000BRPETRACNOR9206
012024090602PETR4       010PETROBRAS   PN      N2   R$  000000000383700000000038450000000003747000000000377600000000037550000000003755000000000375653561000000000032969400000000124517222200000000000000009999123100000010000000000000BRPETRACNPR6214
012024090602PFRM3       010PROFARMA    ON      NM   R$  000000000064500000000006450000000000620000000000062600000000006200000000000620000000000062400549000000000000131800000000000082575400000000000000009999123100000010000000000000BRPFRMACNOR1116
012024090602PGMN3       010PAGUE MENOS ON      NM   R$  000000000031200000000003210000000000307000000000031300000000003100000000000310000000000031102300000000000000865700000000000271240900000000000000009999123100000010000000000000BRPGMNACNOR8103
012024090602PINE3       010PINE        ON      N2   R$  000000000052000000000005450000000000502000000000051000000000005020000000000502000000000054500018000000000000002400000000000001225300000000000000009999123100000010000000000000BRPINEACNOR1150
012024090602PINE4       010PINE        PN      N2   R$  000000000048300000000004900000000000476000000000048100000000004820000000000480000000000048300504000000000000175900000000000084643300000000000000009999123100000010000000000000BRPINEACNPR8150
012024090602PLAS3       010PLASCAR PARTON           R$  000000000068300000000006840000000000675000000000068000000000006750000000000644000000000067600003000000000000000300000000000000204200000000000000009999123100000010000000000000BRPLASACNOR2106
012024090602ITSA3       010ITAUSA      ON  EJ  N1   R$  000000000112200000000011240000000001111000000000111500000000011180000000001117000000000111800243000000000000058600000000000065345200000000000000009999123100000010000000000000BRITSAACNOR0442
012024090602ITSA4       010ITAUSA      PN  EJ  N1   R$  000000000112100000000011220000000001109000000000111300000000011120000000001112000000000111419329000000000034721400000000038673881200000000000000009999123100000010000000000000BRITSAACNPR7442
012024090602MATD3       010MATER DEI   ON      NM   R$  000000000047600000000004770000000000466000000000047100000000004700000000000470000000000047502245000000000001035000000000000487639800000000000000009999123100000010000000000000BRMATDACNOR4104
012024090602MBLY3       010MOBLY       ON      NM   R$  000000000028100000000002830000000000256000000000026900000000002650000000000265000000000026600986000000000001205400000000000324959500000000000000009999123100000010000000000000BRMBLYACNOR5100
012024090602MDIA3       010M.DIASBRANCOON      NM   R$  000000000277400000000027820000000002750000000000276800000000027760000000002770000000000277602444000000000000525700000000001455211200000000000000009999123100000010000000000000BRMDIAACNOR7135
012024090602MDNE3       010MOURA DUBEUXON      NM   R$  000000000151600000000015480000000001491000000000151100000000015080000000001500000000000150901350000000000000331400000000000500804000000000000000009999123100000010000000000000BRMDNEACNOR9100
012024090602MEAL3       010IMC S/A     ON      NM   R$  000000000015100000000001540000000000146000000000014900000000001460000000000146000000000014900441000000000000426700000000000063906600000000000000009999123100000010000000000000BRMEALACNOR9105
012024090602MELK3       010MELNICK     ON      NM   R$  000000000033700000000003480000000000335000000000033800000000003370000000000335000000000033701928000000000002187900000000000741540800000000000000009999123100000010000000000000BRMELKACNOR8111
012024090602MGEL4       010MANGELS INDLPN           R$  000000000115100000000011600000000001151000000000115700000000011600000000001177000000000120900004000000000000000400000000000000462900000000000000009999123100000010000000000000BRMGELACNPR3147
012024090602MGLU3       010MAGAZ LUIZA ON      NM   R$  000000000122800000000012510000000001176000000000120300000000011800000000001180000000000118123278000000000017764100000000021386182400000000000000009999123100000010000000000000BRMGLUACNOR2124
012024090602ALPK3       010ESTAPAR     ON      NM   R$  000000000036300000000003630000000000348000000000035400000000003550000000000352000000000035500855000000000000189100000000000067068500000000000000009999123100000010000000000000BRALPKACNOR9101
012024090602ALUP11      010ALUPAR      UNT     N2   R$  000000000319900000000032050000000003139000000000316400000000031510000000003148000000000315303584000000000000892900000000002825161600000000000000009999123100000010000000000000BRALUPCDAM15120
012024090602EGIE3       010ENGIE BRASILON      NM   R$  000000000447000000000045030000000004457000000000448400000000044980000000004494000000000449804196000000000000822300000000003687240300000000000000009999123100000010000000000000BREGIEACNOR9127
012024090602GRND3       010GRENDENE    ON      NM   R$  000000000061500000000006170000000000602000000000060700000000006030000000000603000000000060502927000000000000843600000000000512186700000000000000009999123100000010000000000000BRGRNDACNOR3175
012024090602BEES3       010BANESTES    ON  EJ       R$  000000000090200000000009040000000000897000000000089900000000009040000000000896000000000090400062000000000000007300000000000006568400000000000000009999123100000010000000000000BRBEESACNOR9395
012024090602BEES4       010BANESTES    PN  EJ       R$  000000000096400000000009750000000000960000000000096500000000009620000000000960000000000096200016000000000000002400000000000002316800000000000000009999123100000010000000000000BRBEESACNPR6320
012024090602DXCO3       010DEXCO       ON      NM   R$  000000000079900000000008030000000000775000000000078500000000007840000000000778000000000078404602000000000002099100000000001648610600000000000000009999123100000010000000000000BRDXCOACNOR8105
012024090602ALUP3       010ALUPAR      ON      N2   R$  000000000109700000000011000000000001077000000000108700000000010870000000001077000000000109800040000000000000007500000000000008155600000000000000009999123100000010000000000000BRALUPACNOR8120
012024090602ALUP4       010ALUPAR      PN      N2   R$  000000000104200000000010600000000001028000000000103600000000010280000000001028000000000103500075000000000000013600000000000014093500000000000000009999123100000010000000000000BRALUPACNPR5120
012024090602AMAR3       010LOJAS MARISAON      NM   R$  000000000011300000000001140000000000111000000000011200000000001110000000000111000000000011300316000000000000144300000000000016201300000000000000009999123100000010000000000000BRAMARACNOR4115
012024090602AMBP3       010AMBIPAR     ON      NM   R$  000000000640000000000066000000000006257000000000644400000000065890000000006584000000000658901029000000000000218300000000001406763800000000000000009999123100000010000000000000BRAMBPACNOR6103
012024090602ANIM3       010ANIMA       ON      NM   R$  000000000034000000000003450000000000325000000000033400000000003260000000000325000000000032606186000000000004793400000000001601265100000000000000009999123100000010000000000000BRANIMACNOR6109
012024090602ARML3       010ARMAC       ON      NM   R$  000000000084500000000008570000000000831000000000083900000000008380000000000835000000000083803347000000000000683000000000000573186800000000000000009999123100000010000000000000BRARMLACNOR1112
012024090602ASAI3       010ASSAI       ON      NM   R$  000000000096000000000009650000000000938000000000094600000000009450000000000945000000000094621795000000000016794500000000015897060600000000000000009999123100000010000000000000BRASAIACNOR0106
012024090602BBDC3       010BRADESCO    ON  EJ  N1   R$  000000000143600000000014430000000001410000000000141900000000014170000000001415000000000141805890000000000003208700000000004554657100000000000000009999123100000010000000000000BRBBDCACNOR1774
012024090602BBDC4       010BRADESCO    PN  EJ  N1   R$  000000000160500000000016070000000001562000000000157300000000015700000000001569000000000157024034000000000019282500000000030340737800000000000000009999123100000010000000000000BRBBDCACNPR8774
012024090602BRSR3       010BANRISUL    ON      N1   R$  000000000135000000000013650000000001341000000000134900000000013540000000001342000000000135500051000000000000008700000000000011740400000000000000009999123100000010000000000000BRBRSRACNOR3188
012024090602BRSR6       010BANRISUL    PNB     N1   R$  000000000128500000000012950000000001262000000000127400000000012670000000001267000000000126902914000000000000638300000000000813615400000000000000009999123100000010000000000000BRBRSRACNPB4191
012024090602HAGA3       010HAGA S/A    ON           R$  000000000023500000000002350000000000234000000000023400000000002340000000000236000000000023900003000000000000002000000000000000468100000000000000009999123100000010000000000000BRHAGAACNOR7103
012024090602HAGA4       010HAGA S/A    PN           R$  000000000011800000000001180000000000117000000000011700000000001180000000000117000000000011900007000000000000001800000000000000211200000000000000009999123100000010000000000000BRHAGAACNPR4103
012024090602HAPV3       010HAPVIDA     ON      NM   R$  000000000045400000000004590000000000448000000000045200000000004480000000000448000000000045021367000000000043404700000000019630461100000000000000009999123100000010000000000000BRHAPVACNOR4114
012024090602MILS3       010MILLS       ON      NM   R$  000000000110400000000011130000000001082000000000109100000000010930000000001088000000000109404585000000000000984300000000001074037200000000000000009999123100000010000000000000BRMILSACNOR2128
012024090602MLAS3       010MULTILASER  ON      NM   R$  000000000019200000000001940000000000183000000000018600000000001840000000000184000000000018503125000000000003057100000000000570123400000000000000009999123100000010000000000000BRMLASACNOR9101
012024090602MNDL3       010MUNDIAL     ON           R$  000000000143100000000014310000000001426000000000143000000000014260000000001342000000000142700005000000000000001500000000000002145900000000000000009999123100000010000000000000BRMNDLACNOR4109
012024090602MOVI3       010MOVIDA      ON      NM   R$  000000000072500000000007260000000000685000000000069900000000006940000000000693000000000069406069000000000003169200000000002217214300000000000000009999123100000010000000000000BRMOVIACNOR0122
012024090602MRFG3       010MARFRIG     ON      NM   R$  000000000145900000000014590000000001413000000000143400000000014480000000001446000000000144818028000000000004701600000000006746321800000000000000009999123100000010000000000000BRMRFGACNOR0116
012024090602ATOM3       010ATOMPAR     ON           R$  000000000021700000000002180000000000215000000000021600000000002150000000000215000000000021700009000000000000005800000000000001254900000000000000009999123100000010000000000000BRATOMACNOR1106
012024090602AURE3       010AUREN       ON      NM   R$  000000000113600000000011410000000001132000000000113500000000011350000000001134000000000113511016000000000005641400000000006407941900000000000000009999123100000010000000000000BRAUREACNOR9104
012024090602AZEV3       010AZEVEDO     ON           R$  000000000013800000000001430000000000136000000000013900000000001410000000000139000000000014100510000000000000572400000000000079914800000000000000009999123100000010000000000000BRAZEVACNOR0121
012024090602AZEV4       010AZEVEDO     PN           R$  000000000013700000000001430000000000136000000000013900000000001400000000000139000000000014001870000000000005155300000000000717506000000000000000009999123100000010000000000000BRAZEVACNPR7121
012024090602CSMG3       010COPASA      ON      NM   R$  000000000248600000000025180000000002476000000000249300000000024800000000002475000000000248005485000000000001045300000000002606786800000000000000009999123100000010000000000000BRCSMGACNOR5174
012024090602CSNA3       010SID NACIONALON           R$  000000000115300000000011750000000001146000000000116100000000011600000000001160000000000116109265000000000005140500000000005969044200000000000000009999123100000010000000000000BRCSNAACNOR6261
012024090602ESPA3       010ESPACOLASER ON      NM   R$  000000000011800000000001180000000000114000000000011500000000001140000000000113000000000011400114000000000000381200000000000043848400000000000000009999123100000010000000000000BRESPAACNOR7103
012024090602ETER3       010ETERNIT     ON      NM   R$  000000000059500000000005970000000000582000000000058800000000005830000000000583000000000058500295000000000000118700000000000069806600000000000000009999123100000010000000000000BRETERACNOR3244
012024090602EUCA3       010EUCATEX     ON      N1   R$  000000000176900000000017700000000001700000000000175000000000017000000000001700000000000175900008000000000000001900000000000003325400000000000000009999123100000010000000000000BREUCAACNOR1157
012024090602EUCA4       010EUCATEX     PN      N1   R$  000000000162000000000016280000000001596000000000161700000000016280000000001594000000000162800214000000000000040200000000000065005800000000000000009999123100000010000000000000BREUCAACNPR8044
012024090602EVEN3       010EVEN        ON      NM   R$  000000000066100000000006750000000000651000000000065800000000006550000000000652000000000065503327000000000000716300000000000471616300000000000000009999123100000010000000000000BREVENACNOR8119
012024090602EZTC3       010EZTEC       ON      NM   R$  000000000141200000000014180000000001368000000000138000000000013760000000001375000000000137805898000000000001771900000000002446647600000000000000009999123100000010000000000000BREZTCACNOR0126
012024090602B3SA3       010B3          ON      NM   R$  000000000125100000000012550000000001222000000000123100000000012230000000001223000000000122835136000000000027784200000000034227466500000000000000009999123100000010000000000000BRB3SAACNOR6133
012024090602ENEV3       010ENEVA       ON      NM   R$  000000000138900000000014210000000001372000000000138800000000013860000000001385000000000138612500000000000007188400000000009983308000000000000000009999123100000010000000000000BRENEVACNOR8106
012024090602IFCM3       010INFRACOMM   ON      NM   R$  000000000001500000000000150000000000014000000000001400000000000140000000000014000000000001501254000000000004443200000000000063730300000000000000009999123100000010000000000000BRIFCMACNOR8101
012024090602IGTI11      010IGUATEMI S.AUNT     N1   R$  000000000222000000000022460000000002198000000000221100000000022030000000002203000000000220408399000000000002021800000000004471083700000000000000009999123100000010000000000000BRIGTICDAM16106
012024090602IGTI3       010IGUATEMI S.AON      N1   R$  000000000027700000000002790000000000270000000000027400000000002710000000000271000000000027400102000000000000021700000000000005947200000000000000009999123100000010000000000000BRIGTIACNOR8106
012024090602KRSA3       010KORA SAUDE  ON      NM   R$  000000000006200000000000630000000000060000000000006100000000000630000000000060000000000006300092000000000000112200000000000006917500000000000000009999123100000010000000000000BRKRSAACNOR0100
012024090602ONCO3       010ONCOCLINICASON      NM   R$  000000000055700000000005570000000000509000000000052500000000005200000000000520000000000052419122000000000008591400000000004516466500000000000000009999123100000010000000000000BRONCOACNOR6101
012024090602BIOM3       010BIOMM       ON      MA   R$  000000000105000000000011250000000000964000000000105600000000009830000000000983000000000100001481000000000000352200000000000372020700000000000000009999123100000010000000000000BRBIOMACNOR2112
012024090602BLAU3       010BLAU        ON      NM   R$  000000000141800000000014530000000001416000000000143100000000014160000000001416000000000142001496000000000000244500000000000350022100000000000000009999123100000010000000000000BRBLAUACNOR8114
012024090602BMEB3       010MERCANTIL   ON      N1   R$  000000000359000000000036000000000003580000000000359500000000036000000000003000000000000360000008000000000000002600000000000009347000000000000000009999123100000010000000000000BRBMEBACNOR8206
012024090602BSLI4       010BRB BANCO   PN           R$  000000000095500000000009550000000000955000000000095500000000009550000000000955000000000097400001000000000000000100000000000000095500000000000000009999123100000010000000000000BRBSLIACNPR2194
012024090602ENGI11      010ENERGISA    UNT     N2   R$  000000000480000000000048720000000004793000000000481700000000048100000000004810000000000481208175000000000001531000000000007375944400000000000000009999123100000010000000000000BRENGICDAM16136
012024090602ENGI3       010ENERGISA    ON      N2   R$  000000000148300000000014870000000001423000000000145200000000014870000000001360000000000148700033000000000000004800000000000006973900000000000000009999123100000010000000000000BRENGIACNOR0146
012024090602ENGI4       010ENERGISA    PN      N2   R$  000000000084000000000008490000000000833000000000084200000000008360000000000836000000000084700026000000000000004000000000000003368200000000000000009999123100000010000000000000BRENGIACNPR7142
012024090602ENJU3       010ENJOEI      ON      NM   R$  000000000015600000000001570000000000147000000000015000000000001470000000000147000000000014800576000000000001376100000000000207511700000000000000009999123100000010000000000000BRENJUACNOR9100
012024090602ENMT4       010ENERGISA MT PN           R$  000000000770200000000077020000000007400000000000759700000000074000000000007400000000000768500006000000000000000600000000000004558700000000000000009999123100000010000000000000BRENMTACNPR2126
012024090602EPAR3       010EMBPAR S/A  ON           R$  000000000057600000000005900000000000573000000000058200000000005840000000000584000000000058900032000000000000014300000000000008334800000000000000009999123100000010000000000000BREPARACNOR9105
012024090602EQMA3B      010EQTLMARANHAOON      MB   R$  000000000250200000000025020000000002501000000000250100000000025010000000002466000000000250000002000000000000000300000000000000750500000000000000009999123100000010000000000000BREQMAACNOR8108
012024090602EQPA3       010EQTL PARA   ON           R$  000000000062000000000006200000000000600000000000060800000000006060000000000600000000000061000052000000000000018400000000000011199200000000000000009999123100000010000000000000BREQPAACNOR1111
012024090602EQTL3       010EQUATORIAL  ON      NM   R$  000000000350000000000035340000000003470000000000349100000000034800000000003478000000000348020647000000000005442900000000019003616100000000000000009999123100000010000000000000BREQTLACNOR0131
012024090602INEP3       010INEPAR      ON           R$  000000000018500000000001870000000000183000000000018500000000001840000000000184000000000018700066000000000000035600000000000006595300000000000000009999123100000010000000000000BRINEPACNOR1143
012024090602INEP4       010INEPAR      PN           R$  000000000019600000000001960000000000189000000000019100000000001930000000000189000000000019300113000000000000022600000000000004328500000000000000009999123100000010000000000000BRINEPACNPR8143
012024090602INTB3       010INTELBRAS   ON      NM   R$  000000000217000000000021970000000002134000000000215200000000021510000000002150000000000215303149000000000000625300000000001346137600000000000000009999123100000010000000000000BRINTBACNOR9112
012024090602IRBR3       010IRBBRASIL REON      NM   R$  000000000514900000000052350000000004941000000000509100000000049890000000004989000000000499006762000000000001549800000000007890567600000000000000009999123100000010000000000000BRIRBRACNOR4111
012024090602LUPA3       010LUPATECH    ON      NM   R$  000000000015200000000001520000000000149000000000015000000000001500000000000149000000000015000178000000000000079500000000000011929200000000000000009999123100000010000000000000BRLUPAACNOR8112
012024090602LVTC3       010WDC NETWORKSON      NM   R$  000000000037300000000003990000000000373000000000038300000000003820000000000380000000000038400070000000000000045500000000000017430400000000000000009999123100000010000000000000BRLVTCACNOR4102
012024090602LWSA3       010LWSA        ON      NM   R$  000000000045100000000004580000000000445000000000044700000000004450000000000445000000000044606847000000000004546600000000002032572900000000000000009999123100000010000000000000BRLWSAACNOR8103
012024090602OPCT3       010OCEANPACT   ON      NM   R$  000000000071300000000007140000000000683000000000069400000000006900000000000690000000000069201905000000000000362300000000000251468900000000000000009999123100000010000000000000BROPCTACNOR0100
012024090602ORVR3       010ORIZON      ON      NM   R$  000000000455100000000046510000000004540000000000457100000000045760000000004575000000000457701896000000000000305300000000001395740800000000000000009999123100000010000000000000BRORVRACNOR0101
012024090602PATI3       010PANATLANTICAON  ED       R$  000000000374900000000037490000000003749000000000374900000000037490000000002650000000000301000001000000000000000100000000000000374900000000000000009999123100000010000000000000BRPATIACNOR6066
012024090602PCAR3       010P.ACUCAR-CBDON      NM   R$  000000000031900000000003220000000000304000000000030900000000003050000000000305000000000030609244000000000010267000000000003179868300000000000000009999123100000010000000000000BRPCARACNOR3167
012024090602PDGR3       010PDG REALT   ON      NM   R$  000000000001600000000000160000000000015000000000001500000000000160000000000015000000000001600166000000000000778200000000000012245000000000000000009999123100000010000000000000BRPDGRACNOR8119
012024090602AERI3       010AERIS       ON      NM   R$  000000000095000000000009800000000000922000000000094500000000009330000000000932000000000093300992000000000000288800000000000273152000000000000000009999123100000010000000000000BRAERIACNOR4102
012024090602AESB3       010AES BRASIL  ON      NM   R$  000000000115500000000011580000000001152000000000115400000000011570000000001154000000000115704791000000000004118100000000004755293100000000000000009999123100000010000000000000BRAESBACNOR7107
012024090602AGRO3       010BRASILAGRO  ON      NM   R$  000000000267000000000026830000000002651000000000266300000000026540000000002653000000000265401526000000000000204400000000000544330500000000000000009999123100000010000000000000BRAGROACNOR7114
012024090602AGXY3       010AGROGALAXY  ON      NM   R$  000000000012000000000001210000000000117000000000011800000000001170000000000117000000000011800177000000000000207000000000000024513800000000000000009999123100000010000000000000BRAGXYACNOR4103
012024090602ALLD3       010ALLIED      ON      NM   R$  000000000077600000000009250000000000776000000000086400000000008450000000000844000000000084501612000000000000532100000000000459802900000000000000009999123100000010000000000000BRALLDACNOR3106
012024090602ALOS3       010ALLOS       ON      NM   R$  000000000231600000000023380000000002292000000000230400000000023060000000002305000000000230711082000000000002503400000000005769903400000000000000009999123100000010000000000000BRALOSACNOR5101
012024090602ALPA3       010ALPARGATAS  ON      N1   R$  000000000076600000000007820000000000763000000000076600000000007720000000000743000000000077300020000000000000006600000000000005057900000000000000009999123100000010000000000000BRALPAACNOR0231
012024090602ALPA4       010ALPARGATAS  PN      N1   R$  000000000075600000000007660000000000737000000000074600000000007420000000000741000000000074308790000000000004446200000000003317790200000000000000009999123100000010000000000000BRALPAACNPR7232
012024090602BRIT3       010BRISANET    ON      NM   R$  000000000033700000000003400000000000333000000000033500000000003350000000000335000000000033600349000000000000205300000000000068877700000000000000009999123100000010000000000000BRBRITACNOR0103
012024090602BRKM3       010BRASKEM     ON      N1   R$  000000000185000000000019000000000001850000000000188200000000018980000000001855000000000189800117000000000000022600000000000042545500000000000000009999123100000010000000000000BRBRKMACNOR1119
012024090602BRKM5       010BRASKEM     PNA     N1   R$  000000000182400000000018900000000001824000000000186700000000018900000000001887000000000189012081000000000004212000000000007866489500000000000000009999123100000010000000000000BRBRKMACNPA4121
012024090602PLPL3       010PLANOEPLANO ON      NM   R$  000000000126900000000012790000000001225000000000123900000000012300000000001229000000000123401920000000000000347900000000000431292000000000000000009999123100000010000000000000BRPLPLACNOR5104
012024090602PNVL3       010DIMED       ON      NM   R$  000000000100000000000010170000000000995000000000100100000000010060000000001000000000000100602218000000000000434700000000000435228800000000000000009999123100000010000000000000BRPNVLACNOR9207
012024090602POMO3       010MARCOPOLO   ON  EDJ N2   R$  000000000060500000000006180000000000602000000000060600000000006040000000000604000000000061000640000000000000381600000000000231433200000000000000009999123100000010000000000000BRPOMOACNOR0099
012024090602POMO4       010MARCOPOLO   PN  EDJ N2   R$  000000000079200000000008050000000000781000000000078700000000007900000000000790000000000079116184000000000012319100000000009700977100000000000000009999123100000010000000000000BRPOMOACNPR7099
012024090602PORT3       010WILSON SONS ON      NM   R$  000000000168100000000016940000000001648000000000166900000000016700000000001670000000000167502847000000000000951000000000001587561100000000000000009999123100000010000000000000BRPORTACNOR8109
012024090602POSI3       010POSITIVO TECON      NM   R$  000000000065400000000006620000000000630000000000063800000000006300000000000630000000000063304094000000000002266300000000001447937800000000000000009999123100000010000000000000BRPOSIACNOR9116
012024090602PRIO3       010PETRORIO    ON      NM   R$  000000000436400000000043870000000004240000000000429500000000042460000000004246000000000424826163000000000008341200000000035829421200000000000000009999123100000010000000000000BRPRIOACNOR1107
012024090602WLMM3       010WLM IND COM ON           R$  000000000288000000000028800000000002880000000000288000000000028800000000002821000000000288000002000000000000000600000000000001728000000000000000009999123100000010000000000000BRWLMMACNOR6119
012024090602WLMM4       010WLM IND COM PN           R$  000000000346400000000035270000000003460000000000349400000000035270000000003351000000000352800008000000000000000800000000000002795500000000000000009999123100000010000000000000BRWLMMACNPR3119
012024090602YDUQ3       010YDUQS PART  ON      NM   R$  000000000100400000000010220000000000953000000000097500000000009610000000000960000000000096111474000000000005611500000000005471500600000000000000009999123100000010000000000000BRYDUQACNOR3105
012024090602RAIL3       010RUMO S.A.   ON      NM   R$  000000000215700000000021900000000002156000000000217100000000021600000000002159000000000216026422000000000014219300000000030873985700000000000000009999123100000010000000000000BRRAILACNOR9105
012024090602RAIZ4       010RAIZEN      PN      N2   R$  000000000031400000000003150000000000304000000000030800000000003040000000000303000000000030410794000000000018738400000000005777527800000000000000009999123100000010000000000000BRRAIZACNPR6111
012024090602SLCE3       010SLC AGRICOLAON      NM   R$  000000000175200000000017550000000001728000000000173600000000017360000000001732000000000173705841000000000002493300000000004330758900000000000000009999123100000010000000000000BRSLCEACNOR2125
012024090602WEST3       010WESTWING    ON      NM   R$  000000000009100000000000920000000000085000000000008700000000000890000000000087000000000008900104000000000000172200000000000015034000000000000000009999123100000010000000000000BRWESTACNOR3100
012024090602QUAL3       010QUALICORP   ON      NM   R$  000000000022000000000002280000000000213000000000021900000000002140000000000214000000000021503658000000000004275100000000000938009700000000000000009999123100000010000000000000BRQUALACNOR6120
012024090602RADL3       010RAIADROGASILON      NM   R$  000000000278100000000027820000000002720000000000274300000000027440000000002744000000000274516046000000000005331400000000014624799100000000000000009999123100000010000000000000BRRADLACNOR0157
012024090602SCAR3       010SAO CARLOS  ON      NM   R$  000000000235000000000023500000000002311000000000232100000000023110000000002311000000000234600043000000000000008300000000000019268900000000000000009999123100000010000000000000BRSCARACNOR7131
012024090602SEER3       010SER EDUCA   ON      NM   R$  000000000063900000000006420000000000614000000000062400000000006210000000000617000000000062101328000000000000340200000000000212415900000000000000009999123100000010000000000000BRSEERACNOR5119
012024090602SEQL3       010SEQUOIA LOG ON      NM   R$  000000000060400000000006080000000000572000000000058700000000005770000000000577000000000058500998000000000000446400000000000262172600000000000000009999123100000010000000000000BRSEQLACNOR2103
012024090602SHOW3       010TIME FOR FUNON      NM   R$  000000000009900000000001000000000000097000000000009700000000000980000000000097000000000009800138000000000000126300000000000012366600000000000000009999123100000010000000000000BRSHOWACNOR7105
012024090602SHUL4       010SCHULZ      PN           R$  000000000065900000000006650000000000653000000000065700000000006560000000000655000000000065700503000000000000222100000000000145959100000000000000009999123100000010000000000000BRSHULACNPR4156
012024090602SIMH3       010SIMPAR      ON      NM   R$  000000000061500000000006270000000000594000000000060500000000005940000000000594000000000059605724000000000002915300000000001766558300000000000000009999123100000010000000000000BRSIMHACNOR0107
012024090602VALE3       010VALE        ON      NM   R$  000000000575000000000057520000000005658000000000568700000000056680000000005668000000000566937183000000000017907200000000101852952500000000000000009999123100000010000000000000BRVALEACNOR0211
012024090602VIVR3       010VIVER       ON      NM   R$  000000000022400000000002250000000000216000000000022000000000002190000000000216000000000021800043000000000000019700000000000004340000000000000000009999123100000010000000000000BRVIVRACNOR4123
012024090602VIVT3       010TELEF BRASILON           R$  000000000550000000000055650000000005463000000000551300000000054960000000005496000000000549919101000000000003374700000000018606794200000000000000009999123100000010000000000000BRVIVTACNOR0184
012024090602VLID3       010VALID       ON      NM   R$  000000000227800000000023290000000002253000000000228400000000022890000000002270000000000228901796000000000000304500000000000695490200000000000000009999123100000010000000000000BRVLIDACNOR5144
012024090602VSTE3       010VESTE       ON      NM   R$  000000000130500000000013050000000001300000000000130100000000013000000000001295000000000130900004000000000000000400000000000000520500000000000000009999123100000010000000000000BRVSTEACNOR5103
012024090602VTRU3       010VITRUEDUCA  ON      NM   R$  000000000099300000000010150000000000970000000000098200000000009780000000000978000000000098900568000000000000256400000000000251910900000000000000009999123100000010000000000000BRVTRUACNOR3100
012024090602VULC3       010VULCABRAS   ON      NM   R$  000000000185000000000018720000000001829000000000184200000000018320000000001830000000000184503620000000000000649400000000001196361000000000000000009999123100000010000000000000BRVULCACNOR2161
012024090602VVEO3       010VIVEO       ON      NM   R$  000000000020200000000002120000000000201000000000020500000000002020000000000202000000000020404778000000000002868100000000000590462700000000000000009999123100000010000000000000BRVVEOACNOR0104
012024090602WEGE3       010WEG         ON      NM   R$  000000000537900000000053910000000005272000000000529900000000052880000000005283000000000528916457000000000004776400000000025312070700000000000000009999123100000010000000000000BRWEGEACNOR0224
012024090602PRNR3       010PRINER      ON      NM   R$  000000000134200000000013450000000001299000000000132000000000013170000000001311000000000131700947000000000000385100000000000508600300000000000000009999123100000010000000000000BRPRNRACNOR4109
012024090602PSSA3       010PORTO SEGUROON      NM   R$  000000000350000000000035010000000003429000000000345100000000034540000000003448000000000345603731000000000000737600000000002546019500000000000000009999123100000010000000000000BRPSSAACNOR7155
012024090602PTBL3       010PORTOBELLO  ON      NM   R$  000000000049400000000005100000000000488000000000049500000000004910000000000490000000000049101164000000000000371600000000000184054800000000000000009999123100000010000000000000BRPTBLACNOR8132
012024090602PTNT3       010PETTENATI   ON           R$  000000000095600000000009560000000000928000000000094400000000009530000000000917000000000095200006000000000000000600000000000000566800000000000000009999123100000010000000000000BRPTNTACNOR6042
012024090602PTNT4       010PETTENATI   PN           R$  000000000074000000000007690000000000740000000000075000000000007450000000000745000000000075000021000000000000004900000000000003677600000000000000009999123100000010000000000000BRPTNTACNPR3047
012024090602TRPL3       010TRAN PAULISTON      N1   R$  000000000323200000000032320000000003175000000000319500000000031750000000003165000000000321300028000000000000003300000000000010545600000000000000009999123100000010000000000000BRTRPLACNOR4185
012024090602TRPL4       010TRAN PAULISTPN      N1   R$  000000000251000000000025230000000002484000000000249800000000024850000000002484000000000248507423000000000001666400000000004163861200000000000000009999123100000010000000000000BRTRPLACNPR1185
012024090602TTEN3       0103TENTOS     ON      NM   R$  000000000119800000000012090000000001188000000000119800000000011980000000001196000000000119905251000000000001202100000000001440133800000000000000009999123100000010000000000000BRTTENACNOR0103
012024090602TUPY3       010TUPY        ON      NM   R$  000000000273000000000027710000000002701000000000272200000000027030000000002703000000000271502557000000000000420200000000001143973500000000000000009999123100000010000000000000BRTUPYACNOR1184
012024090602UCAS3       010UNICASA     ON      NM   R$  000000000022400000000002260000000000222000000000022300000000002220000000000222000000000022400073000000000000022500000000000005029000000000000000009999123100000010000000000000BRUCASACNOR1113
012024090602UGPA3       010ULTRAPAR    ON      NM   R$  000000000233000000000023450000000002298000000000231000000000023020000000002302000000000230417660000000000004413900000000010197518700000000000000009999123100000010000000000000BRUGPAACNOR8156
012024090602VAMO3       010VAMOS       ON      NM   R$  000000000076800000000007770000000000739000000000075000000000007420000000000742000000000074408019000000000005509600000000004136541000000000000000009999123100000010000000000000BRVAMOACNOR7105
012024090602VBBR3       010VIBRA       ON      NM   R$  000000000266900000000026840000000002591000000000262100000000025910000000002591000000000260024242000000000006080900000000015939323100000000000000009999123100000010000000000000BRVBBRACNOR1108
012024090602TASA3       010TAURUS ARMASON      N2   R$  000000000113000000000011390000000001115000000000112700000000011230000000001123000000000113700059000000000000009100000000000010261200000000000000009999123100000010000000000000BRTASAACNOR7104
012024090602TASA4       010TAURUS ARMASPN      N2   R$  000000000112000000000011310000000001106000000000112100000000011250000000001120000000000112501435000000000000322300000000000361381600000000000000009999123100000010000000000000BRTASAACNPR4104
012024090602TCSA3       010TECNISA     ON      NM   R$  000000000020000000000002010000000000195000000000019600000000001950000000000195000000000019600088000000000000037600000000000007403800000000000000009999123100000010000000000000BRTCSAACNOR3112
012024090602TECN3       010TECHNOS     ON      NM   R$  000000000052900000000005370000000000511000000000051800000000005160000000000514000000000051600313000000000000154500000000000080155700000000000000009999123100000010000000000000BRTECNACNOR6109
012024090602TELB3       010TELEBRAS    ON           R$  000000000148800000000014880000000001461000000000148000000000014840000000001450000000000148500005000000000000000500000000000000740100000000000000009999123100000010000000000000BRTELBACNOR2140
012024090602TELB4       010TELEBRAS    PN           R$  000000000097000000000009900000000000951000000000096800000000009800000000000970000000000098900037000000000000005800000000000005616300000000000000009999123100000010000000000000BRTELBACNPR9140
012024090602TEND3       010TENDA       ON      NM   R$  000000000136400000000013680000000001309000000000132400000000013190000000001316000000000132005955000000000001271500000000001683537700000000000000009999123100000010000000000000BRTENDACNOR4111
012024090602TFCO4       010TRACK FIELD PN      N2   R$  000000000116500000000011740000000001141000000000115200000000011500000000001150000000000115600207000000000000121800000000000140398100000000000000009999123100000010000000000000BRTFCOACNPR8114
012024090602TGMA3       010TEGMA       ON      NM   R$  000000000274300000000027750000000002721000000000274200000000027500000000002750000000000275400793000000000000115400000000000316524000000000000000009999123100000010000000000000BRTGMAACNOR7145
012024090602TIMS3       010TIM         ON      NM   R$  000000000186900000000018780000000001839000000000185200000000018410000000001838000000000184209952000000000003750900000000006947639800000000000000009999123100000010000000000000BRTIMSACNOR5117
012024090602TOTS3       010TOTVS       ON      NM   R$  000000000296900000000029910000000002930000000000294600000000029360000000002934000000000293707037000000000001160500000000003419294000000000000000009999123100000010000000000000BRTOTSACNOR8145
012024090602TPIS3       010TRIUNFO PARTON      NM   R$  000000000050800000000005080000000000491000000000049900000000004930000000000493000000000050200214000000000000064700000000000032342600000000000000009999123100000010000000000000BRTPISACNOR8118
012024090602AZUL4       010AZUL        PN  ATZ N2   R$  000000000047700000000005030000000000440000000000046700000000004440000000000443000000000044416959000000000032256300000000015076904400000000000000009999123100000010000000000000BRAZULACNPR4103
012024090602KLBN11      010KLABIN S/A  UNT     N2   R$  000000000218100000000021880000000002150000000000216200000000021720000000002161000000000217310031000000000003097200000000006697054800000000000000009999123100000010000000000000BRKLBNCDAM18143
012024090602KLBN3       010KLABIN S/A  ON      N2   R$  000000000043600000000004370000000000431000000000043300000000004340000000000433000000000043600638000000000000201700000000000087521100000000000000009999123100000010000000000000BRKLBNACNOR2171
012024090602KLBN4       010KLABIN S/A  PN      N2   R$  000000000043600000000004380000000000430000000000043200000000004310000000000431000000000043201843000000000001061600000000000458937700000000000000009999123100000010000000000000BRKLBNACNPR9171
012024090602BAHI3       010BAHEMA      ON      MA   R$  000000000069900000000007000000000000680000000000069300000000006800000000000680000000000069000007000000000000002300000000000001594800000000000000009999123100000010000000000000BRBAHIACNOR1074
012024090602BAZA3       010AMAZONIA    ON           R$  000000000966900000000096690000000009520000000000961200000000096690000000009300000000000967000012000000000000001800000000000017302400000000000000009999123100000010000000000000BRBAZAACNOR0179
012024090602BBAS3       010BRASIL      ON      NM   R$  000000000292400000000029290000000002876000000000289100000000028770000000002877000000000287922027000000000009652000000000027913484800000000000000009999123100000010000000000000BRBBASACNOR3325
012024090602BGIP4       010BANESE      PN  ES       R$  000000000251600000000025920000000002516000000000254400000000025900000000002517000000000259100009000000000000001100000000000002799200000000000000009999123100000010000000000000BRBGIPACNPR8210
012024090602BHIA3       010CASAS BAHIA ON      NM   R$  000000000064200000000006710000000000625000000000064500000000006300000000000630000000000063103858000000000004219000000000002721257300000000000000009999123100000010000000000000BRBHIAACNOR1102
012024090602CPFE3       010CPFL ENERGIAON      NM   R$  000000000347500000000034910000000003460000000000347300000000034650000000003464000000000346506101000000000002117700000000007354958600000000000000009999123100000010000000000000BRCPFEACNOR0137
012024090602CPLE3       010COPEL       ON      N2   R$  000000000097900000000009850000000000965000000000097100000000009650000000000964000000000096908660000000000005627300000000005464261200000000000000009999123100000010000000000000BRCPLEACNOR8149
012024090602CPLE5       010COPEL       PNA     N2   R$  000000000119700000000011970000000001197000000000119700000000011970000000001100000000000119700002000000000000000200000000000000239400000000000000009999123100000010000000000000BRCPLEACNPA1147
012024090602CPLE6       010COPEL       PNB     N2   R$  000000000109200000000011030000000001080000000000108700000000010830000000001082000000000108421350000000000012504900000000013604015900000000000000009999123100000010000000000000BRCPLEACNPB9146
012024090602CRFB3       010CARREFOUR BRON      NM   R$  000000000095200000000009620000000000925000000000093600000000009270000000000926000000000092810733000000000005978500000000005597717500000000000000009999123100000010000000000000BRCRFBACNOR2116
012024090602EKTR4       010ELEKTRO     PN           R$  000000000431900000000043220000000004319000000000432100000000043220000000004320000000000440900008000000000000001200000000000005185300000000000000009999123100000010000000000000BREKTRACNPR7164
012024090602GUAR3       010GUARARAPES  ON      NM   R$  000000000090900000000009240000000000882000000000089900000000008880000000000886000000000088803558000000000001123800000000001010450200000000000000009999123100000010000000000000BRGUARACNOR4173
012024090602BPAC11      010BTGP BANCO  UNT     N2   R$  000000000352500000000035640000000003487000000000351200000000034990000000003493000000000350010208000000000003478400000000012216601000000000000000009999123100000010000000000000BRBPACUNT006119
012024090602BPAC3       010BTGP BANCO  ON      N2   R$  000000000163000000000016300000000001624000000000162500000000016240000000001623000000000164100009000000000000001000000000000001625100000000000000009999123100000010000000000000BRBPACACNOR7134
012024090602BPAC5       010BTGP BANCO  PNA     N2   R$  000000000094600000000009460000000000934000000000093900000000009350000000000923000000000093500006000000000000000700000000000000657300000000000000009999123100000010000000000000BRBPACACNPA0134
012024090602BPAN4       010BANCO PAN   PN      N1   R$  000000000106900000000010860000000001052000000000107100000000010720000000001072000000000107307383000000000002340700000000002507262000000000000000009999123100000010000000000000BRBPANACNPR1115
012024090602COGN3       010COGNA ON    ON      NM   R$  000000000014100000000001440000000000139000000000014100000000001390000000000139000000000014012004000000000043765600000000006178006200000000000000009999123100000010000000000000BRCOGNACNOR2105
012024090602DMVF3       010D1000VFARMA ON      NM   R$  000000000070700000000007080000000000696000000000070200000000006960000000000696000000000070100114000000000000030000000000000021064200000000000000009999123100000010000000000000BRDMVFACNOR9100
012024090602DOTZ3       010DOTZ SA     ON      NM   R$  000000000078000000000008370000000000723000000000079100000000008010000000000775000000000080200290000000000000069600000000000055120900000000000000009999123100000010000000000000BRDOTZACNOR7101
012024090602BMEB4       010MERCANTIL   PN      N1   R$  000000000392300000000039240000000003861000000000390200000000039180000000003895000000000391800062000000000000010100000000000039417100000000000000009999123100000010000000000000BRBMEBACNPR5211
012024090602BMGB4       010BANCO BMG   PN      N1   R$  000000000039200000000003920000000000382000000000038700000000003840000000000384000000000038500977000000000000530500000000000205303700000000000000009999123100000010000000000000BRBMGBACNPR0110
012024090602BMKS3       010BIC MONARK  ON           R$  000000003240000000000328990000000031000000000003123400000000325000000000032500000000003360000016000000000000000098000000000003061019000000000000009999123100000010000000000000BRBMKSACNOR9166
012024090602BMOB3       010BEMOBI TECH ON      NM   R$  000000000152800000000015580000000001505000000000152300000000015050000000001505000000000151901626000000000000198200000000000301941500000000000000009999123100000010000000000000BRBMOBACNOR7103
012024090602BOBR4       010BOMBRIL     PN           R$  000000000022000000000002300000000000220000000000022400000000002220000000000223000000000022700098000000000000067100000000000015060600000000000000009999123100000010000000000000BRBOBRACNPR3128
012024090602LAND3       010TERRASANTAPAON      NM   R$  000000000123800000000012380000000001220000000000122700000000012280000000001227000000000123900080000000000000010100000000000012401600000000000000009999123100000010000000000000BRLANDACNOR9103
012024090602ODPV3       010ODONTOPREV  ON      NM   R$  000000000117300000000011740000000001148000000000115700000000011590000000001152000000000116003444000000000000775800000000000897842800000000000000009999123100000010000000000000BRODPVACNOR4203
012024090602OFSA3       010OUROFINO S/AON      NM   R$  000000000223700000000022370000000002237000000000223700000000022370000000002230000000000226900002000000000000005900000000000013198300000000000000009999123100000010000000000000BROFSAACNOR7118
012024090602LAVV3       010LAVVI       ON      NM   R$  000000000085200000000008650000000000845000000000085200000000008510000000000851000000000085402356000000000000534200000000000455509800000000000000009999123100000010000000000000BRLAVVACNOR4113
012024090602LEVE3       010METAL LEVE  ON      NM   R$  000000000309100000000031140000000003055000000000307800000000030700000000003070000000000308003745000000000000597200000000001838586600000000000000009999123100000010000000000000BRLEVEACNOR2197
012024090602LJQQ3       010QUERO-QUERO ON      NM   R$  000000000043900000000004440000000000418000000000042800000000004300000000000427000000000043006177000000000002752500000000001179073900000000000000009999123100000010000000000000BRLJQQACNOR5104
012024090602LOGG3       010LOG COM PROPON      NM   R$  000000000230200000000023230000000002282000000000229800000000023100000000002297000000000231201128000000000000147500000000000338962900000000000000009999123100000010000000000000BRLOGGACNOR7107
012024090602LOGN3       010LOG-IN      ON      NM   R$  000000000360000000000036470000000003600000000000361000000000036060000000003606000000000362200028000000000000003800000000000013718500000000000000009999123100000010000000000000BRLOGNACNOR3105
012024090602LPSB3       010LOPES BRASILON      NM   R$  000000000016000000000001880000000000159000000000018200000000001750000000000174000000000017502708000000000002134400000000000388599800000000000000009999123100000010000000000000BRLPSBACNOR0114
012024090602LREN3       010LOJAS RENNERON      NM   R$  000000000180500000000018140000000001762000000000177500000000017720000000001771000000000177414401000000000008482200000000015059105900000000000000009999123100000010000000000000BRLRENACNOR1221
012024090602EALT3       010ACO ALTONA  ON           R$  000000000151000000000015460000000001501000000000151200000000015460000000001546000000000154700016000000000000002600000000000003932900000000000000009999123100000010000000000000BREALTACNOR4138
012024090602EALT4       010ACO ALTONA  PN           R$  000000000155600000000015620000000001521000000000154400000000015410000000001539000000000154100095000000000000023800000000000036770900000000000000009999123100000010000000000000BREALTACNPR1138
012024090602ECOR3       010ECORODOVIAS ON      NM   R$  000000000079900000000008030000000000767000000000077800000000007690000000000769000000000077004899000000000002017700000000001570290400000000000000009999123100000010000000000000BRECORACNOR8120
012024090602BRAP3       010BRADESPAR   ON      N1   R$  000000000181400000000018170000000001787000000000180200000000017900000000001788000000000179000925000000000000179100000000000322751100000000000000009999123100000010000000000000BRBRAPACNOR5148
012024090602BRAP4       010BRADESPAR   PN      N1   R$  000000000188400000000018860000000001853000000000186500000000018560000000001855000000000185606902000000000003081900000000005748109600000000000000009999123100000010000000000000BRBRAPACNPR2148
012024090602BRBI11      010BR PARTNERS UNT     N2   R$  000000000153000000000015530000000001525000000000153700000000015250000000001525000000000153501621000000000000354700000000000545286300000000000000009999123100000010000000000000BRBRBICDAM10110
012024090602BRFS3       010BRF SA      ON      NM   R$  000000000254900000000025580000000002510000000000253000000000025210000000002521000000000252912470000000000004737800000000011990863200000000000000009999123100000010000000000000BRBRFSACNOR8122
012024090602CRPG5       010CRISTAL     PNA          R$  000000000292800000000029280000000002849000000000286700000000028690000000002841000000000289900015000000000000001800000000000005160600000000000000009999123100000010000000000000BRCRPGACNPA3119
012024090602CRPG6       010CRISTAL     PNB          R$  000000000285100000000028990000000002801000000000281900000000028990000000002811000000000289900005000000000000000800000000000002255600000000000000009999123100000010000000000000BRCRPGACNPB1119
012024090602CSAN3       010COSAN       ON      NM   R$  000000000133800000000013430000000001289000000000130700000000012890000000001289000000000129314615000000000007391300000000009663700100000000000000009999123100000010000000000000BRCSANACNOR6126
012024090602ELMD3       010ELETROMIDIA ON      NM   R$  000000000180600000000018100000000001762000000000178400000000018100000000001780000000000181300524000000000000075700000000000135070000000000000000009999123100000010000000000000BRELMDACNOR3101
012024090602EMAE4       010EMAE        PN           R$  000000000399700000000040700000000003977000000000401200000000039770000000003977000000000405000024000000000000004500000000000018055800000000000000009999123100000010000000000000BREMAEACNPR1125
012024090602EMBR3       010EMBRAER     ON      NM   R$  000000000499000000000050100000000004651000000000479100000000047830000000004770000000000478347739000000000012306000000000058967604100000000000000009999123100000010000000000000BREMBRACNOR4191
012024090602JHSF3       010JHSF PART   ON  ED  NM   R$  000000000045100000000004530000000000445000000000044800000000004490000000000448000000000044903395000000000002594000000000001164014400000000000000009999123100000010000000000000BRJHSFACNOR2139
012024090607TXRX4       010TEX RENAUX  PN           R$  000000000022600000000002260000000000226000000000022600000000002260000000000226000000000023000002000000000000000500000000000000113400000000000000009999123100000010000000000000BRTXRXACNPR0142
012024090607NUTR3       010NUTRIPLANT  ON      MA   R$  000000000047100000000004840000000000471000000000047800000000004770000000000472000000000048500009000000000000000900000000000000430900000000000000009999123100000010000000000000BRNUTRACNOR0104
012024090608CTSA3       010SANTANENSE  ON           R$  000000000027900000000002800000000000271000000000027600000000002720000000000273000000000027900005000000000000000500000000000000138200000000000000009999123100000010000000000000BRCTSAACNOR3062
012024090608CTSA4       010SANTANENSE  PN           R$  000000000013100000000001310000000000124000000000012600000000001240000000000124000000000012600227000000000000055600000000000007011700000000000000009999123100000010000000000000BRCTSAACNPR0062
012024090608RNEW11      010RENOVA      UNT     N2   R$  000000000031700000000003220000000000313000000000031900000000003180000000000318000000000032200028000000000000005500000000000001755800000000000000009999123100000010000000000000BRRNEWCDAM15110
012024090608RNEW3       010RENOVA      ON      N2   R$  000000000010500000000001080000000000104000000000010700000000001070000000000104000000000010700080000000000000060700000000000006498900000000000000009999123100000010000000000000BRRNEWACNOR8110
012024090608RNEW4       010RENOVA      PN      N2   R$  000000000010500000000001080000000000103000000000010600000000001070000000000104000000000010500150000000000000166400000000000017693300000000000000009999123100000010000000000000BRRNEWACNPR5110
012024090608RPMG3       010PET MANGUINHON           R$  000000000029200000000003200000000000290000000000030600000000003150000000000312000000000031500119000000000000049100000000000015059800000000000000009999123100000010000000000000BRRPMGACNOR9194
012024090608NEXP3       010NEXPE       ON           R$  000000000041500000000004150000000000404000000000040900000000004040000000000403000000000041000002000000000000000200000000000000081900000000000000009999123100000010000000000000BRNEXPACNOR0101
012024090608RSID3       010ROSSI RESID ON      NM   R$  000000000037500000000003820000000000375000000000037700000000003820000000000369000000000038200021000000000000002400000000000000907100000000000000009999123100000010000000000000BRRSIDACNOR8120
012024090608ATMP3       010ATMASA      ON           R$  000000000013700000000001370000000000134000000000013400000000001340000000000133000000000013500012000000000000005600000000000000750800000000000000009999123100000010000000000000BRATMPACNOR8100
012024090608HOOT4       010HOTEIS OTHONPN           R$  000000000022700000000002270000000000227000000000022700000000002270000000000226000000000023700003000000000000000800000000000000181600000000000000009999123100000010000000000000BRHOOTACNPR9015
012024090608AMER3       010AMERICANAS  ON      NM   R$  000000000066400000000007140000000000659000000000067800000000006640000000000664000000000066506542000000000008001600000000005426904700000000000000009999123100000010000000000000BRAMERACNOR6103
012024090608BDLL3       010BARDELLA    ON           R$  000000000120000000000012000000000001200000000000120000000000012000000000001100000000000127000030000000000000003200000000000003840000000000000000009999123100000010000000000000BRBDLLACNOR1149
012024090608BDLL4       010BARDELLA    PN           R$  000000000094000000000009400000000000940000000000094000000000009400000000000940000000000099000010000000000000002500000000000002350000000000000000009999123100000010000000000000BRBDLLACNPR8151
012024090608OSXB3       010OSX BRASIL  ON      NM   R$  000000000038800000000003900000000000388000000000038900000000003900000000000378000000000038800003000000000000000800000000000000311400000000000000009999123100000010000000000000BROSXBACNOR8109
012024090608PMAM3       010PARANAPANEMAON      NM   R$  000000000017800000000001810000000000175000000000017800000000001760000000000175000000000017800112000000000000075300000000000013441600000000000000009999123100000010000000000000BRPMAMACNOR3039
012024090608OIBR3       010OI          ON  ES  N1   R$  000000000051600000000005170000000000509000000000051200000000005090000000000509000000000051000581000000000000265000000000000135913300000000000000009999123100000010000000000000BROIBRACNOR1112
012024090608OIBR4       010OI          PN  ES  N1   R$  000000000118600000000012350000000001186000000000121500000000011930000000001193000000000121000022000000000000002900000000000003524600000000000000009999123100000010000000000000BROIBRACNPR8111
012024090608LIGT3       010LIGHT S/A   ON      NM   R$  000000000080500000000008600000000000756000000000081300000000008050000000000804000000000080610735000000000003720900000000003025139700000000000000009999123100000010000000000000BRLIGTACNOR2124
012024090608JFEN3       010JOAO FORTES ON           R$  000000000001900000000000220000000000018000000000002000000000000200000000000020000000000002100443000000000003236100000000000066146200000000000000009999123100000010000000000000BRJFENACNOR0059
012024090610RENT9       010LOCALIZA    ON  REC NM   R$  000000000420100000000042010000000004100000000000413000000000041000000000004100000000000425000006000000000000000900000000000003717600000000000000009999123100000010000000000000BRRENTR06OR8195
012024090610ZAMP9       010ZAMP S.A.   ON  REC      R$  000000000032000000000003200000000000320000000000032000000000003200000000000297000000000032000002000000000000000500000000000000160000000000000000009999123100000010000000000000BRZAMPR01OR0100
012024090610GFSA1       010GAFISA      DIR ORD NM   R$  000000000000100000000000020000000000001000000000000100000000000010000000000000000000000000100226000000000001868700000000000001871000000000000000009999123100000010000000000000BRGFSAD11OR7124
012024090610EQTL1       010EQUATORIAL  DIR ORD NM   R$  000000000029900000000003000000000000238000000000026600000000002750000000000246000000000027501417000000000000457300000000000121762300000000000000009999123100000010000000000000BREQTLD04OR9130
012024090610AESB1       010AES BRASIL  DIR ORD NM   R$  000000000004600000000000520000000000043000000000004500000000000430000000000043000000000004600088000000000000027600000000000001259400000000000000009999123100000010000000000000BRAESBD03OR8106
012024090610OIBR1       010OI          DIR ORD N1   R$  000000000001200000000000120000000000007000000000000800000000000070000000000007000000000000803732000000000011607200000000000103912900000000000000009999123100000010000000000000BROIBRD05OR7111
012024090612CACR11      010CARTESIA FIICI  ER       R$  000000001056600000000106000000000010518000000001054700000000105330000000010527000000001053300794000000000000008918000000000094065540000000000000009999123100000010000000000000BRCACRCTF004136
012024090612CARE11      010FII DEA CARECI           R$  000000000015700000000001580000000000155000000000015500000000001550000000000155000000000015600125000000000000006422000000000000998546000000000000009999123100000010000000000000BRCARECTF000112
012024090612CBOP11      010FII CBOP PAXCI  ER       R$  000000000276500000000027700000000002765000000000276500000000027700000000002751000000000279700006000000000000000032000000000000088490000000000000009999123100000010000000000000BRCBOPCTF001233
012024090612CCME11      010FII CANUMA  CI           R$  000000000100800000000010080000000000993000000000099700000000010060000000000994000000000100412815000000000000094962000000000094703701000000000000009999123100000010000000000000BRCCMECTF007125
012024090612JSCR11      010FII JSCR    CI  ER       R$  000000000974900000000097490000000009505000000000951800000000095050000000009505000000000955100963000000000000001820000000000017323317000000000000009999123100000010000000000000BRJSCRCTF001102
012024090612JSRE11      010FII JS REAL CI  ER       R$  000000000635500000000063850000000006307000000000634000000000063140000000006314000000000635706802000000000000026973000000000171028568000000000000009999123100000010000000000000BRJSRECTF007265
012024090612KCRE11      010FII KINEA CRCI  ER       R$  000000000098400000000009840000000000955000000000096400000000009620000000000962000000000096602459000000000000078050000000000075306324000000000000009999123100000010000000000000BRKCRECTF009128
012024090612KFOF11      010FII KINEAFOFCI  ER       R$  000000000846000000000085080000000008440000000000847700000000084610000000008461000000000846600761000000000000013763000000000116672504000000000000009999123100000010000000000000BRKFOFCTF006172
012024090612KISU11      010FII KILIMA  CI  ER       R$  000000000080800000000008110000000000806000000000080800000000008080000000000807000000000080808396000000000000075802000000000061314787000000000000009999123100000010000000000000BRKISUCTF000147
012024090612ABCP11      010FII ABC IMOBCI  ER       R$  000000000702700000000071410000000007027000000000709900000000071180000000007117000000000711800088000000000000000589000000000004181522000000000000009999123100000010000000000000BRABCPCTF000342
012024090612FCFL11      010FII CAMPUSFLCI           R$  000000001161300000000116500000000011579000000001161400000000115790000000011578000000001164900093000000000000000934000000000010847870000000000000009999123100000010000000000000BRFCFLCTF009272
012024090612FIGS11      010FII GEN SHOPCI  ER       R$  000000000525100000000053000000000005250000000000527300000000052900000000005261000000000528900173000000000000002567000000000013537847000000000000009999123100000010000000000000BRFIGSCTF009231
012024090612FIIB11      010FII INDL BR CI  ER       R$  000000005037600000000503980000000050157000000005025000000000503280000000050219000000005032900101000000000000000407000000000020451879000000000000009999123100000010000000000000BRFIIBCTF001254
012024090612FIIP11B     010FII RB CAP ICI  ER  MB   R$  000000001697200000000171450000000016900000000001698500000000169910000000016991000000001703300044000000000000000342000000000005809117000000000000009999123100000010000000000000BRFIIPCTF001277
012024090612IRDM11      010FII IRIDIUM CI           R$  000000000722700000000072300000000007200000000000722000000000072160000000007215000000000721603622000000000000038026000000000274553310000000000000009999123100000010000000000000BRIRDMCTF004188
012024090612IRIM11      010FII IRIM    CI           R$  000000000742000000000074500000000007414000000000742800000000074500000000007430000000000745000043000000000000001104000000000008201597000000000000009999123100000010000000000000BRIRIMCTF003137
012024090612ITIP11      010FII INTER IPCI  ER       R$  000000000749300000000075990000000007360000000000746100000000075050000000007360000000000750500563000000000000001001000000000007469380000000000000009999123100000010000000000000BRITIPCTF002132
012024090612CNES11      010FII CENESP  CI           R$  000000000014900000000001500000000000148000000000014800000000001490000000000148000000000014902271000000000000078534000000000011657714000000000000009999123100000010000000000000BRCNESCTF001262
012024090612DAMA11      010FII DAMA    CI           R$  000000000099900000000009990000000000980000000000099800000000009990000000000980000000000099900024000000000000000711000000000000709976000000000000009999123100000010000000000000BRDAMACTF007102
012024090612DAMT11      010FII DIAMANTECI           R$  000000000080200000000008020000000000802000000000080200000000008020000000000000000000000080200004000000000000000038000000000000030476000000000000009999123100000010000000000000BRDAMTCTF007117
012024090612DEVA11      010FII DEVANT  CI           R$  000000000390500000000039180000000003865000000000388100000000038850000000003885000000000389902761000000000000038289000000000148612876000000000000009999123100000010000000000000BRDEVACTF000151
012024090612GGRC11      010FII GGRCOVEPCI  ER       R$  000000000109000000000010940000000001086000000000108800000000010910000000001090000000000109106833000000000000136406000000000148520991000000000000009999123100000010000000000000BRGGRCCTF002197
012024090612GLOG11      010FII PLURAL LCI  ER       R$  000000000621700000000062590000000006180000000000620000000000062500000000006250000000000626400035000000000000000352000000000002182485000000000000009999123100000010000000000000BRGLOGCTF000116
012024090612BBFI11      010FII BB PROGRCI           R$  000000005220200000000537520000000051111000000005166800000000514980000000051420000000005149900089000000000000000241000000000012452223000000000000009999123100000010000000000000BRBBFICTF006329
012024090612BBFO11      010FII BB FOF  CI  ER       R$  000000000724000000000072850000000007219000000000726100000000072840000000007275000000000728300856000000000000002155000000000015649458000000000000009999123100000010000000000000BRBBFOCTF004144
012024090612BBIG11      010FII BBIG    CI  ER       R$  000000000094100000000009460000000000930000000000093600000000009420000000000934000000000094202291000000000000081201000000000076030458000000000000009999123100000010000000000000BRBBIGCTF004104
012024090612BBRC11      010FII BB CORP CI  ER       R$  000000001147200000000115500000000011472000000001154700000000115500000000011550000000001156500045000000000000000689000000000007956177000000000000009999123100000010000000000000BRBBRCCTF004256
012024090612CEOC11      010FII CEO CCP CI           R$  000000000451000000000045760000000004510000000000456400000000045760000000004570000000000457600031000000000000000416000000000001898849000000000000009999123100000010000000000000BRCEOCCTF003217
012024090612CJCT11      010FII CJCTOWERCI  ER       R$  000000000616000000000062100000000006160000000000617300000000062100000000006210000000000626700088000000000000001617000000000009982635000000000000009999123100000010000000000000BRCJCTCTF001118
012024090612CLIN11      010FII CLAVE INCI           R$  000000000962900000000097010000000009620000000000966200000000096680000000009659000000000966802191000000000000011962000000000115586045000000000000009999123100000010000000000000BRCLINCTF007110
012024090612CTXT11      010FII C TEXTILCI           R$  000000000079200000000008100000000000789000000000079000000000008030000000000789000000000079300160000000000000000530000000000000419168000000000000009999123100000010000000000000BRCTXTCTF014207
012024090612CVBI11      010FII VBI CRI CI           R$  000000000941500000000094690000000009415000000000944400000000094400000000009435000000000944004917000000000000013945000000000131705488000000000000009999123100000010000000000000BRCVBICTF001168
012024090612CXAG11      010FII CAIXA AGCI  ER       R$  000000000765300000000076530000000007650000000000765200000000076530000000007651000000000765300076000000000000000716000000000005479240000000000000009999123100000010000000000000BRCXAGCTF003131
012024090612CXCE11      010FII CX CEDAECI  ER       R$  000000000403000000000040490000000004030000000000404500000000040490000000004030000000000404900020000000000000000213000000000000861655000000000000009999123100000010000000000000BRCXCECTF004272
012024090612CXCI11      010FII CAIXA CICI           R$  000000000828500000000082850000000008250000000000825200000000082800000000008248000000000828000024000000000000000473000000000003903388000000000000009999123100000010000000000000BRCXCICTF005129
012024090612CXCO11      010FII CEF CORPCI  ER       R$  000000000704600000000070780000000006900000000000698800000000070000000000007000000000000701700202000000000000001987000000000013886131000000000000009999123100000010000000000000BRCXCOCTF003141
012024090612CXRI11      010FII CX RBRAVCI  ER       R$  000000000777500000000080150000000007775000000000787000000000079450000000007776000000000794400006000000000000000020000000000000157407000000000000009999123100000010000000000000BRCXRICTF003231
012024090612CYCR11      010FII CYRELA  CI  ER       R$  000000000098200000000009860000000000980000000000098100000000009820000000000980000000000098200603000000000000020401000000000020018101000000000000009999123100000010000000000000BRCYCRCTF004142
012024090612FISC11      010FII SC 401  CI  ER       R$  000000000610000000000062000000000006000000000000613100000000060000000000006000000000000630000008000000000000000045000000000000275900000000000000009999123100000010000000000000BRFISCCTF008139
012024090612FIVN11      010FII VIDANOVACI           R$  000000000027900000000002810000000000278000000000027900000000002810000000000281000000000028400029000000000000000893000000000000249355000000000000009999123100000010000000000000BRFIVNCTF009100
012024090612FLCR11      010FII FL RECEBCI           R$  000000000984300000000098430000000009720000000000980100000000098070000000009797000000000980700343000000000000004321000000000042352363000000000000009999123100000010000000000000BRFLCRCTF004144
012024090612FLMA11      010FII S F LIMACI  ER       R$  000000001430000000000144250000000014202000000001435400000000143970000000014308000000001439700065000000000000000323000000000004636419000000000000009999123100000010000000000000BRFLMACTF009345
012024090612FLRP11      010FII FLORIPA CI  ER       R$  000000019995300000001999530000000199953000000019995300000001999530000000200008000000020299900001000000000000000001000000000000199953000000000000009999123100000010000000000000BRFLRPCTF006274
012024090612FPNG11      010FII P NEGRA CI           R$  000000002000000000000200000000000020000000000002000000000000200000000000009000000000002000000001000000000000000001000000000000020000000000000000009999123100000010000000000000BRFPNGCTF005191
012024090612RENV11      010FII RENV    CI           R$  000000000102500000000010300000000001025000000000102700000000010250000000001025000000000102600092000000000000001486000000000001526417000000000000009999123100000010000000000000BRRENVCTF003100
012024090612RFOF11      010FII RB CFOF CI  ER       R$  000000000703700000000070410000000006951000000000697700000000069520000000006952000000000698700070000000000000000505000000000003523534000000000000009999123100000010000000000000BRRFOFCTF001154
