00COTAHIST.2024BOVESPA 20240930                                                                                                                                                                                                                      
012024093002GGBR4       010GERDAU      PN      N1   R$  000000000190700000000019320000000001905000000000191500000000019100000000001909000000000191120912000000000012718100000000024359638900000000000000009999123100000010000000000000BRGGBRACNPR8193
012024093002MRFG3       010MARFRIG     ON      NM   R$  000000000138900000000013960000000001347000000000136400000000013640000000001364000000000136912047000000000005498800000000007501826400000000000000009999123100000010000000000000BRMRFGACNOR0116
012024093002TOTS3       010TOTVS       ON      NM   R$  000000000282000000000028900000000002798000000000286500000000028560000000002856000000000285717625000000000003239500000000009281905900000000000000009999123100000010000000000000BRTOTSACNOR8145
012024093002TRPL3       010TRAN PAULISTON      N1   R$  000000000312400000000031290000000003116000000000312100000000031200000000003119000000000312100014000000000000001700000000000005306300000000000000009999123100000010000000000000BRTRPLACNOR4185
012024093002BBDC4       010BRADESCO    PN      N1   R$  000000000149300000000015000000000001465000000000147700000000014700000000001470000000000147147583000000000037058100000000054756883200000000000000009999123100000010000000000000BRBBDCACNPR8774
012024093002VIVA3       010VIVARA S.A. ON      NM   R$  000000000271800000000027180000000002663000000000268300000000026930000000002680000000000269410845000000000001918400000000005148382800000000000000009999123100000010000000000000BRVIVAACNOR0107
012024093002SYNE3       010SYN PROP TECON      NM   R$  000000000077500000000007750000000000763000000000076800000000007690000000000767000000000076901209000000000000565700000000000434718600000000000000009999123100000010000000000000BRSYNEACNOR2103
012024093002VAMO3       010VAMOS       ON      NM   R$  000000000068000000000006870000000000657000000000067000000000006610000000000661000000000066220154000000000018577400000000012454554100000000000000009999123100000010000000000000BRVAMOACNOR7105
012024093002SNSY3       010SANSUY      ON           R$  000000000126000000000013300000000001250000000000127100000000012500000000001240000000000128500024000000000000006300000000000008007600000000000000009999123100000010000000000000BRSNSYACNOR2113
012024093002STBP3       010SANTOS BRP  ON      NM   R$  000000000148000000000014970000000001476000000000148300000000014760000000001476000000000147710752000000000007123000000000010564398100000000000000009999123100000010000000000000BRSTBPACNOR3131
012024093002PTBL3       010PORTOBELLO  ON      NM   R$  000000000046400000000004740000000000457000000000046400000000004600000000000460000000000046300612000000000000296400000000000137777100000000000000009999123100000010000000000000BRPTBLACNOR8132
012024093002PDTC3       010PADTEC      ON      NM   R$  000000000018300000000001850000000000182000000000018200000000001820000000000182000000000018300047000000000000019000000000000003472000000000000000009999123100000010000000000000BRPDTCACNOR3101
012024093002PETR4       010PETROBRAS   PN      N2   R$  000000000361600000000036280000000003592000000000360500000000036010000000003601000000000360235197000000000021146300000000076234426200000000000000009999123100000010000000000000BRPETRACNPR6214
012024093002ODPV3       010ODONTOPREV  ON      NM   R$  000000000112900000000011360000000001120000000000112400000000011250000000001125000000000112603552000000000000766800000000000862167400000000000000009999123100000010000000000000BRODPVACNOR4203
012024093002ABEV3       010AMBEV S/A   ON           R$  000000000129400000000013170000000001290000000000130700000000013080000000001308000000000130922372000000000031164900000000040751999900000000000000009999123100000010000000000000BRABEVACNOR1128
012024093002BMEB4       010MERCANTIL   PN      N1   R$  000000000400000000000040000000000003894000000000393200000000039120000000003912000000000393100152000000000000022700000000000089275000000000000000009999123100000010000000000000BRBMEBACNPR5211
012024093002BNBR3       010NORD BRASIL ON           R$  000000001086000000000108600000000010570000000001076300000000105700000000010400000000001086000003000000000000000300000000000003229000000000000000009999123100000010000000000000BRBNBRACNOR8209
012024093002ENEV3       010ENEVA       ON      NM   R$  000000000140600000000014170000000001391000000000140200000000013970000000001396000000000139817464000000000007769800000000010895458200000000000000009999123100000010000000000000BRENEVACNOR8106
012024093002IGTI3       010IGUATEMI S.AON      N1   R$  000000000026600000000002670000000000258000000000026100000000002580000000000258000000000026300143000000000000061400000000000016042300000000000000009999123100000010000000000000BRIGTIACNOR8106
012024093002IRBR3       010IRBBRASIL REON      NM   R$  000000000452300000000045500000000004394000000000448500000000044760000000004476000000000447803921000000000000694100000000003113453700000000000000009999123100000010000000000000BRIRBRACNOR4111
012024093002MDNE3       010MOURA DUBEUXON      NM   R$  000000000141100000000014230000000001397000000000141100000000014150000000001405000000000141601695000000000000314000000000000443340500000000000000009999123100000010000000000000BRMDNEACNOR9100
012024093002PFRM3       010PROFARMA    ON      NM   R$  000000000055300000000005580000000000544000000000054900000000005530000000000550000000000055301091000000000000311700000000000171366400000000000000009999123100000010000000000000BRPFRMACNOR1116
012024093002PINE4       010PINE        PN      N2   R$  000000000047400000000004850000000000474000000000047900000000004780000000000477000000000047800365000000000000123700000000000059310600000000000000009999123100000010000000000000BRPINEACNPR8150
012024093002USIM5       010USIMINAS    PNA     N1   R$  000000000063300000000006340000000000616000000000062400000000006240000000000623000000000062412772000000000012370600000000007720485100000000000000009999123100000010000000000000BRUSIMACNPA6169
012024093002ATOM3       010ATOMPAR     ON           R$  000000000025500000000002610000000000249000000000025300000000002530000000000252000000000025300017000000000000004500000000000001142100000000000000009999123100000010000000000000BRATOMACNOR1106
012024093002AZEV4       010AZEVEDO     PN           R$  000000000013700000000001440000000000133000000000013700000000001340000000000134000000000013501617000000000003374300000000000463310200000000000000009999123100000010000000000000BRAZEVACNPR7121
012024093002PETZ3       010PETZ        ON      NM   R$  000000000049000000000005020000000000471000000000048200000000004720000000000472000000000047306456000000000006288700000000003032396200000000000000009999123100000010000000000000BRPETZACNOR2110
012024093002BRAP4       010BRADESPAR   PN      N1   R$  000000000207900000000020790000000002022000000000204000000000020220000000002022000000000202406204000000000002983200000000006086988600000000000000009999123100000010000000000000BRBRAPACNPR2148
012024093002CSAN3       010COSAN       ON      NM   R$  000000000132500000000013420000000001307000000000132400000000013080000000001307000000000130817373000000000013615900000000018027956800000000000000009999123100000010000000000000BRCSANACNOR6126
012024093002ELET6       010ELETROBRAS  PNB     N1   R$  000000000433500000000043880000000004335000000000436900000000043710000000004370000000000437201489000000000000400300000000001749253800000000000000009999123100000010000000000000BRELETACNPB7077
012024093002HETA4       010HERCULES    PN           R$  000000000060500000000006050000000000605000000000060500000000006050000000000605000000000067900001000000000000000100000000000000060500000000000000009999123100000010000000000000BRHETAACNPR9136
012024093002GGBR3       010GERDAU      ON      N1   R$  000000000168000000000017180000000001680000000000169800000000016870000000001685000000000169800370000000000000043400000000000073735800000000000000009999123100000010000000000000BRGGBRACNOR1193
012024093002MOVI3       010MOVIDA      ON      NM   R$  000000000062600000000006290000000000604000000000061500000000006170000000000616000000000062110160000000000004529200000000002786611900000000000000009999123100000010000000000000BRMOVIACNOR0122
012024093002ALUP3       010ALUPAR      ON      N2   R$  000000000102100000000010470000000001003000000000101700000000010470000000001047000000000105500122000000000000021000000000000021367800000000000000009999123100000010000000000000BRALUPACNOR8120
012024093002TRIS3       010TRISUL      ON      NM   R$  000000000048100000000004960000000000480000000000048600000000004840000000000480000000000048401383000000000000466900000000000227358700000000000000009999123100000010000000000000BRTRISACNOR4118
012024093002ASAI3       010ASSAI       ON      NM   R$  000000000078100000000007910000000000728000000000075300000000007470000000000747000000000074834299000000000049266200000000037100761300000000000000009999123100000010000000000000BRASAIACNOR0106
012024093002VITT3       010VITTIA      ON      NM   R$  000000000056800000000005770000000000563000000000057000000000005690000000000568000000000056901556000000000000496600000000000283163600000000000000009999123100000010000000000000BRVITTACNOR4107
012024093002RANI3       010IRANI       ON      NM   R$  000000000075900000000007600000000000741000000000074900000000007410000000000741000000000074202399000000000000760500000000000570357200000000000000009999123100000010000000000000BRRANIACNOR5073
012024093002TAEE4       010TAESA       PN      N2   R$  000000000114900000000011490000000001142000000000114700000000011480000000001148000000000114900587000000000000121300000000000139136500000000000000009999123100000010000000000000BRTAEEACNPR6148
012024093002RADL3       010RAIADROGASILON      NM   R$  000000000256000000000025770000000002532000000000255500000000025490000000002549000000000255314941000000000007380300000000018862491900000000000000009999123100000010000000000000BRRADLACNOR0157
012024093002SRNA3       010SERENA      ON      NM   R$  000000000083700000000008370000000000801000000000081400000000008160000000000815000000000081603526000000000002331800000000001898861800000000000000009999123100000010000000000000BRSRNAACNOR4100
012024093002PSSA3       010PORTO SEGUROON  EJ  NM   R$  000000000367500000000037090000000003638000000000366300000000036460000000003645000000000364608441000000000001836200000000006727729200000000000000009999123100000010000000000000BRPSSAACNOR7156
012024093002SMTO3       010SAO MARTINHOON      NM   R$  000000000262000000000026450000000002609000000000262600000000026210000000002620000000000263905091000000000000985600000000002588532800000000000000009999123100000010000000000000BRSMTOACNOR3127
012024093002PETR3       010PETROBRAS   ON      N2   R$  000000000396400000000039690000000003906000000000392600000000039270000000003925000000000392716519000000000008219700000000032275851900000000000000009999123100000010000000000000BRPETRACNOR9206
012024093002SLCE3       010SLC AGRICOLAON      NM   R$  000000000184700000000018850000000001799000000000182800000000018200000000001819000000000182710941000000000003380000000000006178688200000000000000009999123100000010000000000000BRSLCEACNOR2125
012024093002ABCB4       010ABC BRASIL  PN      N2   R$  000000000218500000000022050000000002172000000000218600000000021790000000002178000000000218802515000000000000446100000000000975425700000000000000009999123100000010000000000000BRABCBACNPR4146
012024093002BMEB3       010MERCANTIL   ON      N1   R$  000000000382600000000038260000000003826000000000382600000000038260000000003826000000000398800001000000000000000100000000000000382600000000000000009999123100000010000000000000BRBMEBACNOR8206
012024093002BMOB3       010BEMOBI TECH ON      NM   R$  000000000136800000000014120000000001368000000000139400000000013910000000001388000000000139101211000000000000187200000000000261120600000000000000009999123100000010000000000000BRBMOBACNOR7103
012024093002BRFS3       010BRF SA      ON      NM   R$  000000000243100000000024570000000002341000000000237600000000023650000000002364000000000236513192000000000005474400000000013010444800000000000000009999123100000010000000000000BRBRFSACNOR8122
012024093002IGTI11      010IGUATEMI S.AUNT     N1   R$  000000000214000000000021400000000002091000000000210600000000021080000000002106000000000211007391000000000002043400000000004303846500000000000000009999123100000010000000000000BRIGTICDAM16106
012024093002INTB3       010INTELBRAS   ON      NM   R$  000000000203600000000020400000000001993000000000200800000000020100000000002000000000000201008768000000000003680200000000007393345600000000000000009999123100000010000000000000BRINTBACNOR9112
012024093002MDIA3       010M.DIASBRANCOON      NM   R$  000000000251100000000025640000000002470000000000252600000000025480000000002544000000000255103549000000000000928000000000002344724900000000000000009999123100000010000000000000BRMDIAACNOR7136
012024093002NGRD3       010NEOGRID     ON      NM   R$  000000000011300000000001150000000000111000000000011400000000001140000000000114000000000011500901000000000000652800000000000074703600000000000000009999123100000010000000000000BRNGRDACNOR3104
012024093002PINE3       010PINE        ON      N2   R$  000000000053900000000005390000000000539000000000053900000000005390000000000475000000000053900001000000000000000100000000000000053900000000000000009999123100000010000000000000BRPINEACNOR1150
012024093002USIM3       010USIMINAS    ON      N1   R$  000000000060600000000006080000000000591000000000060000000000006010000000000598000000000060100880000000000000388100000000000232929900000000000000009999123100000010000000000000BRUSIMACNOR3167
012024093002WHRL4       010WHIRLPOOL   PN           R$  000000000046300000000004800000000000463000000000046900000000004650000000000461000000000046600018000000000000003300000000000001549000000000000000009999123100000010000000000000BRWHRLACNPR2129
012024093002AZEV3       010AZEVEDO     ON           R$  000000000014000000000001440000000000135000000000013800000000001350000000000135000000000013600821000000000001216400000000000168339800000000000000009999123100000010000000000000BRAZEVACNOR0121
012024093002MRVE3       010MRV         ON      NM   R$  000000000075100000000007520000000000712000000000072500000000007240000000000724000000000072517325000000000013214200000000009589767300000000000000009999123100000010000000000000BRMRVEACNOR2127
012024093002BRAP3       010BRADESPAR   ON      N1   R$  000000000191900000000019240000000001870000000000189300000000018700000000001870000000000187900431000000000000114500000000000216815500000000000000009999123100000010000000000000BRBRAPACNOR5148
012024093002CRPG6       010CRISTAL     PNB          R$  000000000265100000000027440000000002651000000000272000000000027440000000002738000000000274900003000000000000000400000000000001088300000000000000009999123100000010000000000000BRCRPGACNPB1119
012024093002ELET3       010ELETROBRAS  ON      N1   R$  000000000391500000000039580000000003905000000000393100000000039350000000003935000000000393614583000000000006468100000000025432235600000000000000009999123100000010000000000000BRELETACNOR6160
012024093002HBSA3       010HIDROVIAS   ON      NM   R$  000000000034400000000003440000000000338000000000034000000000003430000000000341000000000034301784000000000001012900000000000344794400000000000000009999123100000010000000000000BRHBSAACNOR0100
012024093002MILS3       010MILLS       ON      NM   R$  000000000111900000000011210000000001100000000000110800000000011060000000001103000000000110602699000000000000624200000000000692121900000000000000009999123100000010000000000000BRMILSACNOR2128
012024093002ALPK3       010ESTAPAR     ON      NM   R$  000000000029600000000003030000000000284000000000029000000000002980000000000290000000000029800343000000000000249700000000000072640800000000000000009999123100000010000000000000BRALPKACNOR9101
012024093002TPIS3       010TRIUNFO PARTON      NM   R$  000000000052700000000005270000000000516000000000052200000000005220000000000521000000000052500131000000000000048200000000000025161800000000000000009999123100000010000000000000BRTPISACNOR8118
012024093002TRPL4       010TRAN PAULISTPN      N1   R$  000000000243200000000024330000000002410000000000242400000000024300000000002429000000000243007087000000000007209900000000017476948100000000000000009999123100000010000000000000BRTRPLACNPR1185
012024093002BRSR3       010BANRISUL    ON      N1   R$  000000000128000000000013030000000001270000000000128400000000012800000000001270000000000128200084000000000000012700000000000016318700000000000000009999123100000010000000000000BRBRSRACNOR3189
012024093002RAIL3       010RUMO S.A.   ON      NM   R$  000000000201000000000020240000000002000000000000200700000000020000000000001999000000000200015900000000000010589400000000021260954500000000000000009999123100000010000000000000BRRAILACNOR9105
012024093002TAEE11      010TAESA       UNT     N2   R$  000000000342200000000034360000000003410000000000342600000000034240000000003423000000000342505326000000000001210400000000004147382900000000000000009999123100000010000000000000BRTAEECDAM10148
012024093002PTNT4       010PETTENATI   PN           R$  000000000068800000000006900000000000660000000000067200000000006600000000000650000000000066000042000000000000026300000000000017683600000000000000009999123100000010000000000000BRPTNTACNPR3047
012024093002SNSY5       010SANSUY      PNA          R$  000000000055600000000005570000000000556000000000055600000000005570000000000552000000000055600002000000000000000700000000000000389500000000000000009999123100000010000000000000BRSNSYACNPA5111
012024093002SUZB3       010SUZANO S.A. ON      NM   R$  000000000540600000000054980000000005403000000000544900000000054440000000005444000000000544515609000000000004823200000000026282534700000000000000009999123100000010000000000000BRSUZBACNOR0130
012024093002PTNT3       010PETTENATI   ON           R$  000000000100200000000010260000000000988000000000100200000000009880000000000988000000000101500011000000000000001400000000000001404000000000000000009999123100000010000000000000BRPTNTACNOR6042
012024093002PEAB3       010PAR AL BAHIAON           R$  000000000430000000000044000000000004300000000000435000000000044000000000003800000000000440000002000000000000000200000000000000870000000000000000009999123100000010000000000000BRPEABACNOR3133
012024093002SHUL4       010SCHULZ      PN  EJ       R$  000000000061800000000006210000000000610000000000061500000000006150000000000615000000000061801197000000000000396400000000000243818600000000000000009999123100000010000000000000BRSHULACNPR4157
012024093002OFSA3       010OUROFINO S/AON      NM   R$  000000000208300000000021100000000002083000000000209200000000020910000000002090000000000212900006000000000000002900000000000006066800000000000000009999123100000010000000000000BROFSAACNOR7118
012024093002BIOM3       010BIOMM       ON      MA   R$  000000000100000000000010660000000000982000000000105000000000010660000000000992000000000106600278000000000000129600000000000136163400000000000000009999123100000010000000000000BRBIOMACNOR2112
012024093002BMGB4       010BANCO BMG   PN      N1   R$  000000000038000000000003810000000000377000000000037900000000003790000000000378000000000037900850000000000000329600000000000124994100000000000000009999123100000010000000000000BRBMGBACNPR0110
012024093002BOBR4       010BOMBRIL     PN           R$  000000000023000000000002320000000000221000000000022900000000002240000000000221000000000022600067000000000019131900000000004400186000000000000000009999123100000010000000000000BRBOBRACNPR3128
012024093002ENGI11      010ENERGISA    UNT     N2   R$  000000000454600000000045750000000004473000000000449200000000044790000000004479000000000449911358000000000002239000000000010059591300000000000000009999123100000010000000000000BRENGICDAM16136
012024093002INEP3       010INEPAR      ON           R$  000000000018400000000001980000000000183000000000019300000000001950000000000192000000000019500190000000000000086700000000000016790300000000000000009999123100000010000000000000BRINEPACNOR1143
012024093002MATD3       010MATER DEI   ON      NM   R$  000000000045200000000004550000000000436000000000043900000000004370000000000437000000000044202370000000000000539000000000000236707100000000000000009999123100000010000000000000BRMATDACNOR4104
012024093002MEAL3       010IMC S/A     ON      NM   R$  000000000013400000000001360000000000132000000000013300000000001340000000000134000000000013600398000000000000570700000000000076430100000000000000009999123100000010000000000000BRMEALACNOR9105
012024093002CAMB3       010CAMBUCI     ON           R$  000000000123600000000012610000000001234000000000124700000000012560000000001256000000000125800202000000000000035600000000000044395100000000000000009999123100000010000000000000BRCAMBACNOR4131
012024093002PLAS3       010PLASCAR PARTON           R$  000000000065000000000006590000000000650000000000065400000000006590000000000602000000000065000002000000000000000200000000000000130900000000000000009999123100000010000000000000BRPLASACNOR2106
012024093002WEST3       010WESTWING    ON      NM   R$  000000000008400000000000840000000000082000000000008200000000000820000000000082000000000008400025000000000000047000000000000003883800000000000000009999123100000010000000000000BRWESTACNOR3100
012024093002AURE3       010AUREN       ON      NM   R$  000000000105000000000010510000000001037000000000104400000000010460000000001044000000000104607175000000000003934900000000004110785500000000000000009999123100000010000000000000BRAUREACNOR9104
012024093002WIZC3       010WIZ CO      ON      NM   R$  000000000058300000000005850000000000577000000000058100000000005770000000000577000000000058000954000000000000256700000000000149149400000000000000009999123100000010000000000000BRWIZCACNOR5102
012024093002RENT3       010LOCALIZA    ON  EJ  NM   R$  000000000418900000000041890000000004100000000000412400000000041000000000004100000000000410912738000000000004458000000000018387326900000000000000009999123100000010000000000000BRRENTACNOR4197
012024093002CRFB3       010CARREFOUR BRON      NM   R$  000000000091500000000009300000000000874000000000089900000000009250000000000924000000000092617816000000000013123500000000011800492700000000000000009999123100000010000000000000BRCRFBACNOR2116
012024093002EGIE3       010ENGIE BRASILON      NM   R$  000000000428400000000042850000000004244000000000426000000000042450000000004244000000000425305150000000000001317600000000005613973000000000000000009999123100000010000000000000BREGIEACNOR9127
012024093002HBOR3       010HELBOR      ON      NM   R$  000000000019100000000001910000000000187000000000018800000000001890000000000187000000000018900241000000000000148800000000000028095400000000000000009999123100000010000000000000BRHBORACNOR3118
012024093002HYPE3       010HYPERA      ON  EJ  NM   R$  000000000267000000000026730000000002600000000000261900000000026230000000002622000000000262522571000000000005246000000000013742605700000000000000009999123100000010000000000000BRHYPEACNOR0144
012024093002MLAS3       010MULTILASER  ON      NM   R$  000000000016300000000001660000000000162000000000016400000000001620000000000162000000000016603300000000000002023400000000000331897100000000000000009999123100000010000000000000BRMLASACNOR9101
012024093002ALUP11      010ALUPAR      UNT     N2   R$  000000000304100000000030640000000003041000000000305300000000030550000000003053000000000306003223000000000000693700000000002118036100000000000000009999123100000010000000000000BRALUPCDAM15120
012024093002TRAD3       010TC          ON      NM   R$  000000000049900000000005050000000000477000000000049100000000004980000000000488000000000049800339000000000000134800000000000066214900000000000000009999123100000010000000000000BRTRADACNOR3102
012024093002VBBR3       010VIBRA       ON  EJ  NM   R$  000000000235700000000023630000000002323000000000234200000000023400000000002335000000000234011614000000000005095600000000011933895800000000000000009999123100000010000000000000BRVBBRACNOR1109
012024093002BRSR6       010BANRISUL    PNB     N1   R$  000000000115700000000011640000000001144000000000115400000000011570000000001156000000000115703272000000000000962800000000001111772900000000000000009999123100000010000000000000BRBRSRACNPB4192
012024093002RAIZ4       010RAIZEN      PN      N2   R$  000000000031300000000003170000000000309000000000031100000000003100000000000310000000000031110282000000000016445800000000005122909100000000000000009999123100000010000000000000BRRAIZACNPR6111
012024093002TAEE3       010TAESA       ON      N2   R$  000000000114300000000011440000000001133000000000113900000000011400000000001140000000000114200339000000000000056400000000000064277900000000000000009999123100000010000000000000BRTAEEACNOR9148
012024093002QUAL3       010QUALICORP   ON      NM   R$  000000000023100000000002440000000000219000000000022800000000002240000000000223000000000022405267000000000006532600000000001490068800000000000000009999123100000010000000000000BRQUALACNOR6120
012024093002SOJA3       010BOA SAFRA   ON      NM   R$  000000000121100000000012110000000001171000000000118100000000011790000000001179000000000118502216000000000000426500000000000503969900000000000000009999123100000010000000000000BRSOJAACNOR9105
012024093002PRNR3       010PRINER      ON      NM   R$  000000000122300000000012560000000001206000000000122200000000012230000000001215000000000122300369000000000000139400000000000170359500000000000000009999123100000010000000000000BRPRNRACNOR4109
012024093002SMFT3       010SMART FIT   ON      NM   R$  000000000214100000000021460000000002112000000000213100000000021440000000002143000000000214507208000000000001858700000000003962650100000000000000009999123100000010000000000000BRSMFTACNOR1112
012024093002PEAB4       010PAR AL BAHIAPN           R$  000000000499700000000051000000000004855000000000499100000000051000000000004600000000000510000007000000000000001000000000000004991300000000000000009999123100000010000000000000BRPEABACNPR0133
012024093002SIMH3       010SIMPAR      ON      NM   R$  000000000057300000000005740000000000540000000000055700000000005590000000000557000000000055913103000000000008964600000000004994134500000000000000009999123100000010000000000000BRSIMHACNOR0107
012024093002AALR3       010ALLIAR      ON      NM   R$  000000000150000000000015400000000001485000000000151200000000015400000000001510000000000154000195000000000000026800000000000040531900000000000000009999123100000010000000000000BRAALRACNOR6102
012024093002BLAU3       010BLAU        ON  EJ  NM   R$  000000000137200000000013720000000001318000000000133100000000013190000000001318000000000133101079000000000000216600000000000288479400000000000000009999123100000010000000000000BRBLAUACNOR8115
012024093002BMKS3       010BIC MONARK  ON           R$  000000003099900000000309990000000030700000000003088600000000309980000000030207000000003090000004000000000000000008000000000000247095000000000000009999123100000010000000000000BRBMKSACNOR9166
012024093002BRBI11      010BR PARTNERS UNT     N2   R$  000000000153500000000015500000000001525000000000153500000000015250000000001524000000000152500978000000000000174600000000000268182500000000000000009999123100000010000000000000BRBRBICDAM10110
012024093002IFCM3       010INFRACOMM   ON      NM   R$  000000000001600000000000170000000000015000000000001500000000000150000000000015000000000001601170000000000005054700000000000079603900000000000000009999123100000010000000000000BRIFCMACNOR8101
012024093002INEP4       010INEPAR      PN           R$  000000000018200000000001970000000000180000000000018900000000001970000000000186000000000019800450000000000000086100000000000016296300000000000000009999123100000010000000000000BRINEPACNPR8143
012024093002MBLY3       010MOBLY       ON      NM   R$  000000000026700000000002730000000000266000000000027000000000002720000000000272000000000027300714000000000000452400000000000122521900000000000000009999123100000010000000000000BRMBLYACNOR5100
012024093002NEOE3       010NEOENERGIA  ON      NM   R$  000000000200000000000020090000000001947000000000197600000000019600000000001960000000000197003293000000000000728200000000001439220000000000000000009999123100000010000000000000BRNEOEACNOR3123
012024093002PGMN3       010PAGUE MENOS ON      NM   R$  000000000026600000000002680000000000258000000000026200000000002610000000000261000000000026301018000000000000315900000000000082767900000000000000009999123100000010000000000000BRPGMNACNOR8103
012024093002PLPL3       010PLANOEPLANO ON      NM   R$  000000000125000000000012530000000001220000000000123900000000012450000000001245000000000124603015000000000000867400000000001075197800000000000000009999123100000010000000000000BRPLPLACNOR5104
012024093002WHRL3       010WHIRLPOOL   ON           R$  000000000043200000000004620000000000430000000000044400000000004590000000000436000000000045700014000000000000002400000000000001065600000000000000009999123100000010000000000000BRWHRLACNOR5129
012024093002AVLL3       010ALPHAVILLE  ON      NM   R$  000000000032300000000003230000000000320000000000032100000000003200000000000312000000000032000003000000000000001500000000000000481500000000000000009999123100000010000000000000BRAVLLACNOR5103
012024093002WLMM4       010WLM IND COM PN           R$  000000000309900000000031480000000003060000000000310400000000031000000000003100000000000328100024000000000000003900000000000012107700000000000000009999123100000010000000000000BRWLMMACNPR3119
012024093002MGLU3       010MAGAZ LUIZA ON      NM   R$  000000000100000000000010060000000000947000000000096800000000009700000000000968000000000097027275000000000025238600000000024436199600000000000000009999123100000010000000000000BRMGLUACNOR2125
012024093002CRPG5       010CRISTAL     PNA          R$  000000000266100000000026990000000002650000000000266500000000026990000000002630000000000274900009000000000000001900000000000005065000000000000000009999123100000010000000000000BRCRPGACNPA3119
012024093002EKTR4       010ELEKTRO     PN           R$  000000000453000000000045300000000004502000000000452000000000045020000000004531000000000455500003000000000000000300000000000001356200000000000000009999123100000010000000000000BREKTRACNPR7164
012024093002HBRE3       010HBR REALTY  ON      NM   R$  000000000048500000000004920000000000473000000000048100000000004820000000000479000000000048201959000000000000567100000000000272979800000000000000009999123100000010000000000000BRHBREACNOR4100
012024093002KRSA3       010KORA SAUDE  ON      NM   R$  000000000004900000000000490000000000048000000000004800000000000490000000000048000000000004900051000000000000086700000000000004232100000000000000009999123100000010000000000000BRKRSAACNOR0100
012024093002LAND3       010TERRASANTAPAON      NM   R$  000000000126100000000013040000000001220000000000124800000000012200000000001220000000000123500307000000000000066600000000000083143800000000000000009999123100000010000000000000BRLANDACNOR9103
012024093002LOGG3       010LOG COM PROPON      NM   R$  000000000223500000000022600000000002203000000000223900000000022600000000002245000000000226002071000000000000262700000000000588283100000000000000009999123100000010000000000000BRLOGGACNOR7107
012024093002NINJ3       010GETNINJAS   ON      NM   R$  000000000047500000000004750000000000464000000000046700000000004700000000000466000000000047500029000000000000004900000000000002290900000000000000009999123100000010000000000000BRNINJACNOR5101
012024093002FESA3       010FERBASA     ON      N1   R$  000000000136100000000013610000000001328000000000133000000000013280000000001282000000000139900005000000000000001400000000000001862700000000000000009999123100000010000000000000BRFESAACNOR8189
012024093002RDOR3       010REDE D OR   ON  EJ  NM   R$  000000000314200000000031520000000003088000000000310000000000030930000000003092000000000309410133000000000003495800000000010839391900000000000000009999123100000010000000000000BRRDORACNOR8114
012024093002CAML3       010CAMIL       ON      NM   R$  000000000087600000000008850000000000859000000000086400000000008620000000000862000000000086502121000000000000490600000000000424331100000000000000009999123100000010000000000000BRCAMLACNOR3129
012024093002CCRO3       010CCR SA      ON      NM   R$  000000000124500000000012450000000001210000000000122200000000012100000000001209000000000121007526000000000005098000000000006234567500000000000000009999123100000010000000000000BRCCROACNOR2145
012024093002TCSA3       010TECNISA     ON      NM   R$  000000000018700000000001960000000000186000000000018800000000001880000000000188000000000019100225000000000000066300000000000012516400000000000000009999123100000010000000000000BRTCSAACNOR3112
012024093002TEND3       010TENDA       ON      NM   R$  000000000128000000000012800000000001230000000000124400000000012430000000001239000000000124406874000000000003189100000000003969009900000000000000009999123100000010000000000000BRTENDACNOR4111
012024093002FESA4       010FERBASA     PN      N1   R$  000000000077900000000007840000000000763000000000077100000000007680000000000767000000000076802213000000000000738400000000000569693100000000000000009999123100000010000000000000BRFESAACNPR5085
012024093002FLRY3       010FLEURY      ON      NM   R$  000000000155300000000015580000000001538000000000154400000000015430000000001540000000000154509118000000000003301000000000005098191800000000000000009999123100000010000000000000BRFLRYACNOR5139
012024093002SBFG3       010GRUPO SBF   ON      NM   R$  000000000166000000000016800000000001637000000000165600000000016500000000001648000000000165003409000000000000950200000000001573911500000000000000009999123100000010000000000000BRSBFGACNOR1103
012024093002ITSA4       010ITAUSA      PN  EJ  N1   R$  000000000111000000000011230000000001103000000000111300000000011070000000001107000000000110824012000000000041791300000000046537418500000000000000009999123100000010000000000000BRITSAACNPR7443
012024093002SEER3       010SER EDUCA   ON      NM   R$  000000000061100000000006110000000000595000000000059800000000005950000000000595000000000060400522000000000000162300000000000097137800000000000000009999123100000010000000000000BRSEERACNOR5119
012024093002AERI3       010AERIS       ON      NM   R$  000000000063500000000006360000000000592000000000060400000000006140000000000608000000000061400992000000000000348300000000000210551900000000000000009999123100000010000000000000BRAERIACNOR4102
012024093002ALOS3       010ALLOS       ON      NM   R$  000000000220500000000022050000000002155000000000217300000000021850000000002181000000000218511821000000000003858100000000008386730400000000000000009999123100000010000000000000BRALOSACNOR5101
012024093002CEBR3       010CEB         ON           R$  000000000189500000000019600000000001895000000000190700000000018950000000001890000000000194400018000000000000003300000000000006294800000000000000009999123100000010000000000000BRCEBRACNOR5125
012024093002CEEB3       010COELBA      ON           R$  000000000383300000000038650000000003833000000000385700000000038650000000003832000000000389600002000000000000000400000000000001542800000000000000009999123100000010000000000000BRCEEBACNOR3199
012024093002ALPA4       010ALPARGATAS  PN      N1   R$  000000000071200000000007120000000000694000000000069800000000006950000000000695000000000069809408000000000003203200000000002237930900000000000000009999123100000010000000000000BRALPAACNPR7232
012024093002BRKM5       010BRASKEM     PNA     N1   R$  000000000202700000000020370000000001989000000000200500000000019930000000001992000000000199505519000000000001500500000000003009678700000000000000009999123100000010000000000000BRBRKMACNPA4121
012024093002ENMT3       010ENERGISA MT ON           R$  000000000855000000000085500000000008550000000000855000000000085500000000000000000000000868000001000000000000000100000000000000855000000000000000009999123100000010000000000000BRENMTACNOR5121
012024093002EQPA3       010EQTL PARA   ON           R$  000000000061400000000006140000000000596000000000060600000000006110000000000606000000000061000025000000000000008900000000000005400500000000000000009999123100000010000000000000BREQPAACNOR1111
012024093002ETER3       010ETERNIT     ON      NM   R$  000000000056700000000005750000000000561000000000056800000000005610000000000561000000000056500372000000000000083000000000000047177600000000000000009999123100000010000000000000BRETERACNOR3244
012024093002ITSA3       010ITAUSA      ON  EJ  N1   R$  000000000111200000000011160000000001100000000000110900000000011080000000001107000000000111400427000000000000127500000000000141409100000000000000009999123100000010000000000000BRITSAACNOR0443
012024093002MELK3       010MELNICK     ON      NM   R$  000000000035200000000003520000000000344000000000034700000000003440000000000344000000000034600849000000000000562100000000000195263800000000000000009999123100000010000000000000BRMELKACNOR8111
012024093002EALT3       010ACO ALTONA  ON           R$  000000000151900000000015190000000001519000000000151900000000015190000000001466000000000152000002000000000000000200000000000000303800000000000000009999123100000010000000000000BREALTACNOR4138
012024093002ECOR3       010ECORODOVIAS ON      NM   R$  000000000071900000000007190000000000691000000000069800000000006920000000000692000000000069403996000000000002414800000000001687496200000000000000009999123100000010000000000000BRECORACNOR8120
012024093002CSMG3       010COPASA      ON      NM   R$  000000000226700000000023310000000002246000000000230000000000023040000000002304000000000230605708000000000001397700000000003214999100000000000000009999123100000010000000000000BRCSMGACNOR5175
012024093002GUAR3       010GUARARAPES  ON      NM   R$  000000000079900000000008060000000000765000000000078000000000007840000000000782000000000078406301000000000001284200000000001002458300000000000000009999123100000010000000000000BRGUARACNOR4173
012024093002LWSA3       010LWSA        ON      NM   R$  000000000043000000000004300000000000415000000000042100000000004180000000000417000000000041806596000000000003485900000000001467808200000000000000009999123100000010000000000000BRLWSAACNOR8103
012024093002HAGA4       010HAGA S/A    PN           R$  000000000011800000000001180000000000118000000000011700000000001180000000000118000000000011900005000000000000001800000000000000211300000000000000009999123100000010000000000000BRHAGAACNPR4103
012024093002LEVE3       010METAL LEVE  ON      NM   R$  000000000305900000000030590000000003017000000000303300000000030230000000003021000000000303002306000000000000384600000000001166619000000000000000009999123100000010000000000000BRLEVEACNOR2197
012024093002LPSB3       010LOPES BRASILON      NM   R$  000000000017800000000001790000000000171000000000017400000000001750000000000173000000000017500210000000000000057600000000000010055700000000000000009999123100000010000000000000BRLPSBACNOR0114
012024093002NTCO3       010GRUPO NATURAON      NM   R$  000000000139400000000014410000000001389000000000140900000000014050000000001405000000000140615491000000000007350800000000010361088800000000000000009999123100000010000000000000BRNTCOACNOR5106
012024093002RCSL4       010RECRUSUL    PN           R$  000000000009400000000000960000000000094000000000009500000000000950000000000095000000000009600152000000000000121600000000000011560000000000000000009999123100000010000000000000BRRCSLACNPR1134
012024093002REDE3       010REDE ENERGIAON           R$  000000000068800000000006960000000000683000000000068800000000006950000000000695000000000069600023000000000000003100000000000002134300000000000000009999123100000010000000000000BRREDEACNOR7128
012024093002CBAV3       010CBA         ON      NM   R$  000000000055900000000005630000000000542000000000054800000000005480000000000546000000000054805405000000000002399400000000001317007500000000000000009999123100000010000000000000BRCBAVACNOR5104
012024093002EZTC3       010EZTEC       ON      NM   R$  000000000134700000000013560000000001329000000000134300000000013530000000001351000000000135304453000000000001203900000000001617517500000000000000009999123100000010000000000000BREZTCACNOR0126
012024093002TELB3       010TELEBRAS    ON           R$  000000000155600000000015850000000001481000000000153300000000014810000000001480000000000152000010000000000000001000000000000001533700000000000000009999123100000010000000000000BRTELBACNOR2140
012024093002TGMA3       010TEGMA       ON      NM   R$  000000000271700000000027170000000002665000000000268200000000026800000000002680000000000269100728000000000000090300000000000242214100000000000000009999123100000010000000000000BRTGMAACNOR7145
012024093002FIEI3       010FICA        ON           R$  000000000091000000000009400000000000865000000000093100000000008650000000000860000000000099000006000000000000001300000000000001211500000000000000009999123100000010000000000000BRFIEIACNOR2100
012024093002POSI3       010POSITIVO TECON      NM   R$  000000000058800000000005880000000000564000000000057400000000005680000000000568000000000057303195000000000001224900000000000703667900000000000000009999123100000010000000000000BRPOSIACNOR9116
012024093002FRAS3       010FRAS-LE     ON      N1   R$  000000000203500000000020420000000002010000000000202700000000020280000000002021000000000203001024000000000000230700000000000467640800000000000000009999123100000010000000000000BRFRASACNOR0160
012024093002ITUB4       010ITAUUNIBANCOPN  EJ  N1   R$  000000000366000000000037000000000003611000000000364100000000036110000000003611000000000361232663000000000025147200000000091575132000000000000000009999123100000010000000000000BRITUBACNPR1341
012024093002SHOW3       010TIME FOR FUNON      NM   R$  000000000010500000000001050000000000099000000000010000000000001020000000000101000000000010200344000000000000197600000000000019954200000000000000009999123100000010000000000000BRSHOWACNOR7105
012024093002AGRO3       010BRASILAGRO  ON      NM   R$  000000000254200000000025570000000002520000000000253100000000025210000000002521000000000254001553000000000000280900000000000711087400000000000000009999123100000010000000000000BRAGROACNOR7114
012024093002AZUL4       010AZUL        PN      N2   R$  000000000057700000000006290000000000575000000000061300000000006240000000000623000000000062425133000000000033277900000000020403215000000000000000009999123100000010000000000000BRAZULACNPR4103
012024093002CEBR6       010CEB         PNB          R$  000000000178300000000017830000000001758000000000176800000000017580000000001756000000000177000052000000000000018400000000000032532000000000000000009999123100000010000000000000BRCEBRACNPB6124
012024093002CGAS5       010COMGAS      PNA          R$  000000001273300000000129140000000012702000000001281200000000128050000000012701000000001293000007000000000000000700000000000008968700000000000000009999123100000010000000000000BRCGASACNPA3161
012024093002BRIT3       010BRISANET    ON      NM   R$  000000000030200000000003030000000000296000000000029900000000002990000000000299000000000030100357000000000000308600000000000092362500000000000000009999123100000010000000000000BRBRITACNOR0103
012024093002ENGI4       010ENERGISA    PN      N2   R$  000000000078600000000007930000000000782000000000078600000000007850000000000783000000000079100025000000000000003900000000000003065900000000000000009999123100000010000000000000BRENGIACNPR7142
012024093002EPAR3       010EMBPAR S/A  ON           R$  000000000057700000000005780000000000571000000000057500000000005730000000000570000000000057300029000000000000005200000000000002990400000000000000009999123100000010000000000000BREPARACNOR9105
012024093002ESPA3       010ESPACOLASER ON      NM   R$  000000000010500000000001050000000000102000000000010300000000001040000000000103000000000010400125000000000000184300000000000019072300000000000000009999123100000010000000000000BRESPAACNOR7103
012024093002EUCA4       010EUCATEX     PN      N1   R$  000000000155000000000015740000000001544000000000155800000000015580000000001543000000000155800241000000000000040700000000000063441600000000000000009999123100000010000000000000BREUCAACNPR8044
012024093002GEPA4       010GER PARANAP PN           R$  000000000300000000000030000000000002906000000000294200000000029060000000002901000000000299600008000000000000000900000000000002648300000000000000009999123100000010000000000000BRGEPAACNPR9160
012024093002BAUH4       010EXCELSIOR   PN           R$  000000000790000000000079480000000007900000000000791600000000079480000000000000000000000794700002000000000000000300000000000002374800000000000000009999123100000010000000000000BRBAUHACNPR3118
012024093002BAZA3       010AMAZONIA    ON           R$  000000000920100000000092010000000009110000000000915100000000091100000000009110000000000922700012000000000000001300000000000011897200000000000000009999123100000010000000000000BRBAZAACNOR0179
012024093002BRAV3       010BRAVA       ON      NM   R$  000000000178500000000017950000000001723000000000175200000000017630000000001760000000000176311321000000000005186700000000009089145000000000000000009999123100000010000000000000BRBRAVACNOR3100
012024093002EMAE4       010EMAE        PN  EJ       R$  000000000392800000000039900000000003880000000000391000000000038880000000003887000000000394000028000000000000004600000000000017989600000000000000009999123100000010000000000000BREMAEACNPR1126
012024093002LUXM4       010TREVISA     PN           R$  000000000134600000000013990000000001346000000000136300000000013990000000001202000000000139900002000000000000000300000000000000409100000000000000009999123100000010000000000000BRLUXMACNPR4052
012024093002OPCT3       010OCEANPACT   ON      NM   R$  000000000066800000000006910000000000668000000000068600000000006870000000000687000000000069001200000000000000444700000000000305247100000000000000009999123100000010000000000000BROPCTACNOR0100
012024093002JHSF3       010JHSF PART   ON      NM   R$  000000000041200000000004160000000000408000000000041200000000004110000000000411000000000041202943000000000002085100000000000859172400000000000000009999123100000010000000000000BRJHSFACNOR2139
012024093002LAVV3       010LAVVI       ON      NM   R$  000000000080200000000008060000000000790000000000079800000000007980000000000798000000000080003055000000000000577200000000000460978400000000000000009999123100000010000000000000BRLAVVACNOR4113
012024093002LOGN3       010LOG-IN      ON      NM   R$  000000000335000000000034480000000003341000000000338700000000034000000000003386000000000341300086000000000000013700000000000046413500000000000000009999123100000010000000000000BRLOGNACNOR3105
012024093002NORD3       010NORDON MET  ON           R$  000000000095000000000010400000000000950000000000100600000000009650000000000967000000000100000012000000000000001300000000000001308000000000000000009999123100000010000000000000BRNORDACNOR7135
012024093002RCSL3       010RECRUSUL    ON           R$  000000000050100000000005220000000000483000000000050500000000005110000000000511000000000051503929000000000001702800000000000860907000000000000000009999123100000010000000000000BRRCSLACNOR4134
012024093002RECV3       010PETRORECSA  ON      NM   R$  000000000179500000000018020000000001758000000000177100000000017720000000001771000000000177505633000000000001534000000000002717214000000000000000009999123100000010000000000000BRRECVACNOR3107
012024093002CASH3       010MELIUZ      ON      NM   R$  000000000041500000000004160000000000406000000000041000000000004060000000000406000000000040701259000000000000720400000000000295395700000000000000009999123100000010000000000000BRCASHACNOR8107
012024093002CSNA3       010SID NACIONALON           R$  000000000136000000000013840000000001268000000000130500000000012890000000001287000000000128919881000000000013443000000000017551694500000000000000009999123100000010000000000000BRCSNAACNOR6261
012024093002TECN3       010TECHNOS     ON      NM   R$  000000000049800000000005020000000000490000000000049500000000004900000000000489000000000049000249000000000000087700000000000043435300000000000000009999123100000010000000000000BRTECNACNOR6109
012024093002TFCO4       010TRACK FIELD PN  EJ  N2   R$  000000000105600000000010690000000001041000000000105300000000010470000000001046000000000105800689000000000000163500000000000172201300000000000000009999123100000010000000000000BRTFCOACNPR8115
012024093002FHER3       010FER HERINGERON      NM   R$  000000000040100000000004010000000000390000000000039900000000003900000000000390000000000040100012000000000000004700000000000001877800000000000000009999123100000010000000000000BRFHERACNOR5103
012024093002PORT3       010WILSON SONS ON      NM   R$  000000000174000000000017400000000001685000000000170400000000017200000000001705000000000172003925000000000001311100000000002234577800000000000000009999123100000010000000000000BRPORTACNOR8109
012024093002SBSP3       010SABESP      ON      NM   R$  000000000901500000000090450000000008923000000000901700000000090400000000009039000000000904014567000000000003387900000000030549767300000000000000009999123100000010000000000000BRSBSPACNOR5161
012024093002ITUB3       010ITAUUNIBANCOON  EJ  N1   R$  000000000318800000000032030000000003143000000000317100000000031430000000003143000000000315001852000000000000433700000000001375517000000000000000009999123100000010000000000000BRITUBACNOR4341
012024093002SEQL3       010SEQUOIA LOG ON      NM   R$  000000000044700000000004580000000000437000000000044300000000004500000000000440000000000045000610000000000000309400000000000137231000000000000000009999123100000010000000000000BRSEQLACNOR2103
012024093002AESB3       010AES BRASIL  ON      NM   R$  000000000116500000000011670000000001163000000000116500000000011670000000001166000000000116702772000000000003387200000000003946729900000000000000009999123100000010000000000000BRAESBACNOR7107
012024093002ALPA3       010ALPARGATAS  ON      N1   R$  000000000072900000000007290000000000691000000000069600000000006910000000000691000000000071300021000000000000005500000000000003832800000000000000009999123100000010000000000000BRALPAACNOR0231
012024093002CEBR5       010CEB         PNA          R$  000000000162000000000016600000000001620000000000164300000000016500000000001613000000000165800013000000000000001800000000000002958200000000000000009999123100000010000000000000BRCEBRACNPA8124
012024093002CGAS3       010COMGAS      ON           R$  000000001160100000000116010000000011601000000001160100000000116010000000011516000000001270000001000000000000000100000000000001160100000000000000009999123100000010000000000000BRCGASACNOR0164
012024093002BBDC3       010BRADESCO    ON      N1   R$  000000000132500000000013280000000001307000000000131300000000013090000000001309000000000131005774000000000005907400000000007756579000000000000000009999123100000010000000000000BRBBDCACNOR1774
012024093002ENGI3       010ENERGISA    ON      N2   R$  000000000136100000000013790000000001357000000000136300000000013600000000001341000000000136000012000000000000001200000000000001636100000000000000009999123100000010000000000000BRENGIACNOR0146
012024093002ENMT4       010ENERGISA MT PN           R$  000000000835600000000083560000000008300000000000830900000000083000000000007000000000000835000003000000000000000600000000000004985600000000000000009999123100000010000000000000BRENMTACNPR2126
012024093002EQTL3       010EQUATORIAL  ON      NM   R$  000000000324000000000032660000000003232000000000325300000000032500000000003249000000000325121452000000000006325200000000020576881500000000000000009999123100000010000000000000BREQTLACNOR0131
012024093002EUCA3       010EUCATEX     ON      N1   R$  000000000165400000000016540000000001577000000000161500000000015770000000001575000000000174900002000000000000000200000000000000323100000000000000009999123100000010000000000000BREUCAACNOR1157
012024093002MGEL4       010MANGELS INDLPN           R$  000000000111400000000011140000000001100000000000110900000000011000000000001000000000000113000008000000000000001300000000000001441700000000000000009999123100000010000000000000BRMGELACNPR3147
012024093002BAHI3       010BAHEMA      ON      MA   R$  000000000066800000000006680000000000594000000000061500000000005940000000000550000000000059400107000000000000022500000000000013842500000000000000009999123100000010000000000000BRBAHIACNOR1074
012024093002EALT4       010ACO ALTONA  PN           R$  000000000143200000000014430000000001412000000000143000000000014430000000001425000000000144300042000000000000009400000000000013450500000000000000009999123100000010000000000000BREALTACNPR1138
012024093002GRND3       010GRENDENE    ON      NM   R$  000000000056100000000005650000000000555000000000055900000000005630000000000560000000000056302758000000000000932000000000000521132900000000000000009999123100000010000000000000BRGRNDACNOR3175
012024093002ELMD3       010ELETROMIDIA ON      NM   R$  000000000165200000000017000000000001640000000000166200000000016600000000001660000000000166400509000000000000125900000000000209300800000000000000009999123100000010000000000000BRELMDACNOR3101
012024093002LUPA3       010LUPATECH    ON      NM   R$  000000000014100000000001420000000000140000000000014000000000001400000000000140000000000014200039000000000000075400000000000010603900000000000000009999123100000010000000000000BRLUPAACNOR8112
012024093002ONCO3       010ONCOCLINICASON      NM   R$  000000000049000000000004900000000000451000000000046700000000004510000000000451000000000045906174000000000005786500000000002706433300000000000000009999123100000010000000000000BRONCOACNOR6101
012024093002HAPV3       010HAPVIDA     ON      NM   R$  000000000040400000000004150000000000397000000000040200000000004000000000000400000000000040151716000000000063767700000000025648365200000000000000009999123100000010000000000000BRHAPVACNOR4114
012024093002LJQQ3       010QUERO-QUERO ON      NM   R$  000000000034300000000003430000000000326000000000033100000000003300000000000330000000000033109620000000000005739600000000001901639400000000000000009999123100000010000000000000BRLJQQACNOR5104
012024093002LREN3       010LOJAS RENNERON  EJ  NM   R$  000000000177500000000018060000000001739000000000177900000000018060000000001796000000000180619251000000000011932100000000021233009300000000000000009999123100000010000000000000BRLRENACNOR1222
012024093002AZZA3       010AZZAS 2154  ON      NM   R$  000000000430000000000043040000000004143000000000420500000000042170000000004212000000000421811445000000000002994100000000012590757400000000000000009999123100000010000000000000BRAZZAACNOR9100
012024093002RDNI3       010RNI         ON      NM   R$  000000000031400000000003140000000000306000000000030700000000003060000000000306000000000030800010000000000000006000000000000001842000000000000000009999123100000010000000000000BRRDNIACNOR9116
012024093002TASA3       010TAURUS ARMASON      N2   R$  000000000109400000000011140000000001080000000000108800000000010800000000001080000000000108700126000000000000022300000000000024268800000000000000009999123100000010000000000000BRTASAACNOR7104
012024093002CBEE3       010AMPLA ENERG ON           R$  000000000155300000000015530000000001406000000000146000000000014220000000001315000000000189900003000000000000000300000000000000438100000000000000009999123100000010000000000000BRCBEEACNOR3160
012024093002TASA4       010TAURUS ARMASPN      N2   R$  000000000105200000000010600000000001040000000000104700000000010400000000001040000000000104401139000000000000253700000000000265806800000000000000009999123100000010000000000000BRTASAACNPR4104
012024093002TELB4       010TELEBRAS    PN           R$  000000000094300000000009980000000000942000000000096200000000009430000000000943000000000097200032000000000000008800000000000008470100000000000000009999123100000010000000000000BRTELBACNPR9140
012024093002TIMS3       010TIM         ON  EJ  NM   R$  000000000187200000000019040000000001868000000000188600000000018730000000001872000000000187412094000000000005704100000000010761392500000000000000009999123100000010000000000000BRTIMSACNOR5118
012024093002FIQE3       010UNIFIQUE    ON      NM   R$  000000000038400000000003840000000000373000000000037800000000003820000000000378000000000038200636000000000000251500000000000095130500000000000000009999123100000010000000000000BRFIQEACNOR5107
012024093002PRIO3       010PETRORIO    ON      NM   R$  000000000438400000000044020000000004307000000000434100000000043330000000004332000000000433524727000000000007545400000000032757113300000000000000009999123100000010000000000000BRPRIOACNOR1107
012024093002FRIO3       010METALFRIO   ON      NM   R$  000000001300100000000165000000000012998000000001637600000000165000000000014000000000001650000099000000000000095000000000001555795700000000000000009999123100000010000000000000BRFRIOACNOR2111
012024093002SCAR3       010SAO CARLOS  ON      NM   R$  000000000228500000000022950000000002280000000000228500000000022850000000002225000000000229600030000000000000012000000000000027421500000000000000009999123100000010000000000000BRSCARACNOR7131
012024093002VALE3       010VALE        ON      NM   R$  000000000653200000000065320000000006351000000000643400000000063510000000006351000000000636043766000000000028980300000000186488224400000000000000009999123100000010000000000000BRVALEACNOR0211
012024093002ALLD3       010ALLIED      ON      NM   R$  000000000078000000000007800000000000755000000000076500000000007790000000000767000000000077900477000000000000084100000000000064366100000000000000009999123100000010000000000000BRALLDACNOR3106
012024093002CEAB3       010CEA MODAS   ON      NM   R$  000000000104600000000010560000000001016000000000104000000000010500000000001045000000000105004468000000000001310800000000001363550800000000000000009999123100000010000000000000BRCEABACNOR1102
012024093002CEDO4       010CEDRO       PN      N1   R$  000000000240700000000024070000000002300000000000237700000000023000000000002265000000000247800005000000000000001100000000000002614800000000000000009999123100000010000000000000BRCEDOACNPR5128
012024093002CGRA3       010GRAZZIOTIN  ON           R$  000000000251900000000025190000000002499000000000250200000000024990000000002499000000000251900005000000000000000700000000000001751400000000000000009999123100000010000000000000BRCGRAACNOR2083
012024093002BRKM3       010BRASKEM     ON      N1   R$  000000000200200000000020300000000001957000000000198600000000019870000000001954000000000199000069000000000000009300000000000018477700000000000000009999123100000010000000000000BRBRKMACNOR1119
012024093002ENJU3       010ENJOEI      ON      NM   R$  000000000013700000000001380000000000132000000000013300000000001350000000000134000000000013502001000000000001165700000000000156132700000000000000009999123100000010000000000000BRENJUACNOR9100
012024093002EQMA3B      010EQTLMARANHAOON      MB   R$  000000000225200000000022880000000002216000000000225100000000022600000000002241000000000226900035000000000000073000000000000164325500000000000000009999123100000010000000000000BREQMAACNOR8108
012024093002ESTR4       010ESTRELA     PN           R$  000000000039100000000004020000000000384000000000039200000000003900000000000390000000000039500013000000000000002800000000000001098700000000000000009999123100000010000000000000BRESTRACNPR0144
012024093002EVEN3       010EVEN        ON      NM   R$  000000000063400000000006340000000000618000000000062300000000006210000000000620000000000062301357000000000000325300000000000202861200000000000000009999123100000010000000000000BREVENACNOR8119
012024093002GFSA3       010GAFISA      ON      NM   R$  000000000023000000000002340000000000223000000000022500000000002230000000000223000000000022501686000000000001838500000000000415194200000000000000009999123100000010000000000000BRGFSAACNOR3125
012024093002DXCO3       010DEXCO       ON      NM   R$  000000000082400000000008960000000000824000000000086500000000008550000000000855000000000085613469000000000012562100000000010872614300000000000000009999123100000010000000000000BRDXCOACNOR8105
012024093002BBAS3       010BRASIL      ON      NM   R$  000000000273100000000027480000000002718000000000272700000000027180000000002718000000000272521402000000000014796200000000040361662800000000000000009999123100000010000000000000BRBBASACNOR3326
012024093002CSED3       010CRUZEIRO EDUON      NM   R$  000000000034000000000003430000000000334000000000033700000000003350000000000335000000000033801313000000000000533100000000000179994100000000000000009999123100000010000000000000BRCSEDACNOR9105
012024093002EMBR3       010EMBRAER     ON      NM   R$  000000000482600000000048570000000004746000000000480400000000047970000000004797000000000480014108000000000003814000000000018325969100000000000000009999123100000010000000000000BREMBRACNOR4191
012024093002LVTC3       010WDC NETWORKSON      NM   R$  000000000040300000000004130000000000392000000000039800000000003940000000000394000000000040300046000000000000016700000000000006655100000000000000009999123100000010000000000000BRLVTCACNOR4102
012024093002HAGA3       010HAGA S/A    ON           R$  000000000026000000000002660000000000256000000000026000000000002570000000000257000000000027000051000000000000015000000000000003906500000000000000009999123100000010000000000000BRHAGAACNOR7103
012024093002ORVR3       010ORIZON      ON      NM   R$  000000000480000000000048160000000004719000000000476600000000047760000000004775000000000477602694000000000000490400000000002337440500000000000000009999123100000010000000000000BRORVRACNOR0101
012024093002JSLG3       010JSL         ON      NM   R$  000000000091100000000009120000000000881000000000089200000000008810000000000881000000000088602143000000000000506200000000000451667500000000000000009999123100000010000000000000BRJSLGACNOR2121
012024093002PDGR3       010PDG REALT   ON      NM   R$  000000000000100000000000020000000000001000000000000100000000000020000000000001000000000000201654000000000035424900000000000058746400000000000000009999123100000010000000000000BRPDGRACNOR8119
012024093002MTRE3       010MITRE REALTYON  ED  NM   R$  000000000036000000000003610000000000352000000000035500000000003550000000000355000000000035901189000000000000478900000000000170288700000000000000009999123100000010000000000000BRMTREACNOR6115
012024093002BEES3       010BANESTES    ON           R$  000000000089900000000009000000000000894000000000089600000000008960000000000896000000000090000070000000000000011800000000000010575300000000000000009999123100000010000000000000BRBEESACNOR9395
012024093002BGIP4       010BANESE      PN           R$  000000000250000000000025000000000002500000000000250000000000025000000000002345000000000254900006000000000000001100000000000002750000000000000000009999123100000010000000000000BRBGIPACNPR8210
012024093002CLSC4       010CELESC      PN  EJ  N2   R$  000000000845400000000084970000000008331000000000842300000000084000000000008202000000000846100013000000000000001500000000000012635900000000000000009999123100000010000000000000BRCLSCACNPR3132
012024093002BPAC11      010BTGP BANCO  UNT     N2   R$  000000000340000000000034370000000003327000000000336900000000033270000000003327000000000333522731000000000012562100000000042330419800000000000000009999123100000010000000000000BRBPACUNT006119
012024093002CYRE3       010CYRELA REALTON      NM   R$  000000000207700000000020770000000002038000000000205600000000020520000000002052000000000205911878000000000004308000000000008858596500000000000000009999123100000010000000000000BRCYREACNOR7140
012024093002BEEF3       010MINERVA     ON      NM   R$  000000000065200000000006530000000000625000000000063500000000006340000000000634000000000063510026000000000007517000000000004773315800000000000000009999123100000010000000000000BRBEEFACNOR6116
012024093002CPFE3       010CPFL ENERGIAON      NM   R$  000000000338200000000034170000000003364000000000339700000000033930000000003393000000000339406216000000000002270500000000007714015000000000000000009999123100000010000000000000BRCPFEACNOR0137
012024093002DMVF3       010D1000VFARMA ON      NM   R$  000000000062700000000006270000000000603000000000061000000000006200000000000608000000000062000437000000000000164300000000000100347300000000000000009999123100000010000000000000BRDMVFACNOR9100
012024093002DASA3       010DASA        ON      NM   R$  000000000027400000000002780000000000269000000000027300000000002690000000000268000000000026901685000000000000720100000000000196907900000000000000009999123100000010000000000000BRDASAACNOR1123
012024093002DIRR3       010DIRECIONAL  ON      NM   R$  000000000308500000000030880000000002996000000000302000000000030250000000003025000000000302711379000000000001976500000000005970781400000000000000009999123100000010000000000000BRDIRRACNOR0119
012024093002GOAU4       010GERDAU MET  PN      N1   R$  000000000109100000000011090000000001084000000000109300000000010920000000001089000000000109208684000000000006396000000000006996692900000000000000009999123100000010000000000000BRGOAUACNPR8269
012024093002RAPT4       010RANDON PART PN      N1   R$  000000000109000000000010940000000001066000000000107700000000010780000000001077000000000107804250000000000003146000000000003389140300000000000000009999123100000010000000000000BRRAPTACNPR4163
012024093002ANIM3       010ANIMA       ON      NM   R$  000000000023700000000002400000000000231000000000023500000000002350000000000235000000000023605232000000000005740200000000001350204700000000000000009999123100000010000000000000BRANIMACNOR6109
012024093002TUPY3       010TUPY        ON      NM   R$  000000000255000000000025710000000002518000000000254400000000025710000000002543000000000257102079000000000000379400000000000965558400000000000000009999123100000010000000000000BRTUPYACNOR1184
012024093002UNIP5       010UNIPAR      PNA          R$  000000000470200000000048000000000004701000000000472600000000048000000000004702000000000489800006000000000000000800000000000003780800000000000000009999123100000010000000000000BRUNIPACNPA0208
012024093002VLID3       010VALID       ON      NM   R$  000000000231100000000023110000000002245000000000227600000000022700000000002270000000000227501915000000000000347600000000000791228400000000000000009999123100000010000000000000BRVLIDACNOR5144
012024093002PNVL3       010DIMED       ON      NM   R$  000000000101600000000010210000000001005000000000101400000000010090000000001009000000000101402216000000000000479200000000000486286200000000000000009999123100000010000000000000BRPNVLACNOR9207
012024093002CXSE3       010CAIXA SEGURION      NM   R$  000000000147700000000014870000000001452000000000146400000000014550000000001454000000000145713087000000000004540100000000006648878100000000000000009999123100000010000000000000BRCXSEACNOR7107
012024093002SAPR11      010SANEPAR     UNT     N2   R$  000000000295000000000029720000000002914000000000294700000000029480000000002948000000000295504189000000000000867500000000002557307800000000000000009999123100000010000000000000BRSAPRCDAM13118
012024093002VULC3       010VULCABRAS   ON  ED  NM   R$  000000000169800000000017030000000001676000000000168700000000016840000000001684000000000169001584000000000000273100000000000460925700000000000000009999123100000010000000000000BRVULCACNOR2162
012024093007TXRX4       010TEX RENAUX  PN           R$  000000000023500000000002360000000000226000000000023300000000002360000000000226000000000023600003000000000000000400000000000000093200000000000000009999123100000010000000000000BRTXRXACNPR0142
012024093008HOOT4       010HOTEIS OTHONPN           R$  000000000022700000000002270000000000227000000000022700000000002270000000000225000000000022700001000000000000000100000000000000022700000000000000009999123100000010000000000000BRHOOTACNPR9015
012024093008OIBR4       010OI          PN      N1   R$  000000000111000000000011510000000001110000000000113800000000011210000000001121000000000112500016000000000000002000000000000002277200000000000000009999123100000010000000000000BROIBRACNPR8111
012024093008AMER3       010AMERICANAS  ON      NM   R$  000000000051200000000005170000000000465000000000048200000000004650000000000465000000000046604294000000000003083000000000001486074100000000000000009999123100000010000000000000BRAMERACNOR6103
012024093008RPMG3       010PET MANGUINHON           R$  000000000030100000000003070000000000295000000000029900000000002970000000000297000000000030000053000000000000076500000000000022943300000000000000009999123100000010000000000000BRRPMGACNOR9194
012024093010PMAM1       010PARANAPANEMADIR ORD NM   R$  000000000000300000000000040000000000001000000000000200000000000010000000000001000000000000200196000000000001389500000000000003637500000000000000009999123100000010000000000000BRPMAMD05OR9039
012024093010DASA1       010DASA        DIR ORD NM   R$  000000000000300000000000030000000000002000000000000200000000000020000000000002000000000000300198000000000000348400000000000000956900000000000000009999123100000010000000000000BRDASAD04OR0122
012024093012TRNT11      010FII TORRE NOCI           R$  000000001000000000000105000000000010000000000001045400000000105000000000010499000000001050000008000000000000000551000000000005760499000000000000009999123100000010000000000000BRTRNTCTF013341
012024093002KEPL3       010KEPLER WEBERON      NM   R$  000000000100200000000010030000000000983000000000099300000000009960000000000995000000000099602814000000000000766900000000000761680100000000000000009999123100000010000000000000BRKEPLACNOR1064
012024093002KLBN11      010KLABIN S/A  UNT     N2   R$  000000000212000000000021400000000002089000000000210200000000020890000000002089000000000209914512000000000005327500000000011202189200000000000000009999123100000010000000000000BRKLBNCDAM18143
012024093002MTSA4       010METISA      PN  EJ       R$  000000000393600000000039900000000003878000000000397900000000039890000000003861000000000398900015000000000000003200000000000012733100000000000000009999123100000010000000000000BRMTSAACNPR9073
012024093002BEES4       010BANESTES    PN           R$  000000000091800000000009380000000000918000000000092700000000009210000000000920000000000093900039000000000000006200000000000005753100000000000000009999123100000010000000000000BRBEESACNPR6320
012024093002BHIA3       010CASAS BAHIA ON      NM   R$  000000000051500000000005170000000000489000000000049700000000004940000000000493000000000049402882000000000002868300000000001425817500000000000000009999123100000010000000000000BRBHIAACNOR1102
012024093002CMIG3       010CEMIG       ON  EJ  N1   R$  000000000142000000000014580000000001413000000000144800000000014580000000001447000000000145801032000000000000352900000000000511230500000000000000009999123100000010000000000000BRCMIGACNOR6244
012024093002CMIN3       010CSNMINERACAOON      N2   R$  000000000071500000000007180000000000680000000000069300000000006900000000000690000000000069112958000000000009993900000000006927392600000000000000009999123100000010000000000000BRCMINACNOR2111
012024093002YDUQ3       010YDUQS PART  ON      NM   R$  000000000092700000000009330000000000906000000000091600000000009190000000000916000000000091909034000000000004276500000000003919027100000000000000009999123100000010000000000000BRYDUQACNOR3105
012024093002BPAC3       010BTGP BANCO  ON      N2   R$  000000000159700000000016430000000001588000000000160300000000015920000000001550000000000162100039000000000000004900000000000007856400000000000000009999123100000010000000000000BRBPACACNOR7134
012024093002CPLE3       010COPEL       ON      N2   R$  000000000091000000000009190000000000900000000000091200000000009190000000000915000000000091910313000000000005160300000000004708247100000000000000009999123100000010000000000000BRCPLEACNOR8149
012024093002DOHL4       010DOHLER      PN           R$  000000000041300000000004190000000000413000000000041600000000004190000000000403000000000041900003000000000000000500000000000000208400000000000000009999123100000010000000000000BRDOHLACNPR9066
012024093002DESK3       010DESKTOP     ON      NM   R$  000000000149300000000014940000000001460000000000148100000000014830000000001478000000000148400598000000000000284600000000000421775700000000000000009999123100000010000000000000BRDESKACNOR2104
012024093002GGPS3       010GPS         ON      NM   R$  000000000184600000000018750000000001844000000000185900000000018640000000001861000000000186506406000000000002286200000000004250528600000000000000009999123100000010000000000000BRGGPSACNOR9103
012024093002JALL3       010JALLESMACHADON      NM   R$  000000000065000000000006530000000000642000000000064700000000006480000000000648000000000064901243000000000000427400000000000276609900000000000000009999123100000010000000000000BRJALLACNOR0106
012024093002ALUP4       010ALUPAR      PN      N2   R$  000000000102100000000010430000000001000000000000102900000000010000000000001000000000000100600145000000000000053000000000000054551100000000000000009999123100000010000000000000BRALUPACNPR5120
012024093002ARML3       010ARMAC       ON      NM   R$  000000000080600000000008110000000000783000000000079100000000007940000000000794000000000079502227000000000000739700000000000585178000000000000000009999123100000010000000000000BRARMLACNOR1112
012024093002UCAS3       010UNICASA     ON      NM   R$  000000000021700000000002210000000000217000000000021900000000002200000000000217000000000022000048000000000000010300000000000002261300000000000000009999123100000010000000000000BRUCASACNOR1113
012024093002UNIP6       010UNIPAR      PNB          R$  000000000475200000000048020000000004652000000000469500000000046630000000004662000000000469001598000000000000236900000000001112340900000000000000009999123100000010000000000000BRUNIPACNPB8206
012024093002VSTE3       010VESTE       ON      NM   R$  000000000122800000000012300000000001216000000000122500000000012280000000001219000000000122800040000000000000012900000000000015807700000000000000009999123100000010000000000000BRVSTEACNOR5103
012024093002POMO3       010MARCOPOLO   ON      N2   R$  000000000061400000000006320000000000612000000000062100000000006200000000000617000000000062000944000000000000381700000000000237381100000000000000009999123100000010000000000000BRPOMOACNOR0099
012024093002SANB11      010SANTANDER BRUNT          R$  000000000287500000000028780000000002835000000000284200000000028390000000002838000000000284006787000000000003674800000000010445272000000000000000009999123100000010000000000000BRSANBCDAM13165
012024093002SAPR3       010SANEPAR     ON      N2   R$  000000000056800000000005700000000000556000000000056300000000005680000000000565000000000056800576000000000000130500000000000073557300000000000000009999123100000010000000000000BRSAPRACNOR9159
012024093002VVEO3       010VIVEO       ON      NM   R$  000000000018800000000001900000000000182000000000018400000000001820000000000182000000000018303098000000000002621800000000000484781300000000000000009999123100000010000000000000BRVVEOACNOR0104
012024093008NEXP3       010NEXPE       ON           R$  000000000040300000000004030000000000401000000000040200000000004010000000000404000000000041000005000000000000000900000000000000362200000000000000009999123100000010000000000000BRNEXPACNOR0101
012024093008LIGT3       010LIGHT S/A   ON      NM   R$  000000000071000000000007210000000000697000000000070900000000007120000000000707000000000071202398000000000000490000000000000347814300000000000000009999123100000010000000000000BRLIGTACNOR2124
012024093008JFEN3       010JOAO FORTES ON           R$  000000000002900000000000330000000000028000000000003000000000000300000000000029000000000003000938000000000006019900000000000184920600000000000000009999123100000010000000000000BRJFENACNOR0059
012024093008RNEW11      010RENOVA      UNT     N2   R$  000000000033700000000003450000000000331000000000033700000000003340000000000331000000000033600096000000000000019800000000000006688000000000000000009999123100000010000000000000BRRNEWCDAM15110
012024093008CTSA3       010SANTANENSE  ON           R$  000000000027100000000002730000000000270000000000027200000000002730000000000266000000000027900005000000000000000500000000000000136000000000000000009999123100000010000000000000BRCTSAACNOR3062
012024093010EQTL9       010EQUATORIAL  ON  REC NM   R$  000000000322000000000032540000000003172000000000322400000000032540000000003172000000000325500024000000000000002500000000000008060500000000000000009999123100000010000000000000BREQTLR04OR9130
012024093012TMPS11      010FII ITAU TEMCI           R$  000000000919200000000092800000000009060000000000912600000000090600000000009062000000000914500046000000000000002827000000000025799226000000000000009999123100000010000000000000BRTMPSCTF003117
012024093012ARRI11      010FII ATRIO   CI           R$  000000000087900000000008860000000000877000000000087800000000008830000000000882000000000088301012000000000000173274000000000152247885000000000000009999123100000010000000000000BRARRICTF009164
012024093002PATI3       010PANATLANTICAON           R$  000000000236500000000023650000000002350000000000235500000000023500000000002150000000000300000003000000000000000300000000000000706500000000000000009999123100000010000000000000BRPATIACNOR6066
012024093002KLBN3       010KLABIN S/A  ON      N2   R$  000000000042300000000004310000000000421000000000042400000000004210000000000421000000000042200505000000000000183400000000000077919400000000000000009999123100000010000000000000BRKLBNACNOR2171
012024093002MULT3       010MULTIPLAN   ON      N2   R$  000000000258000000000025800000000002529000000000255500000000025650000000002560000000000256509431000000000002315400000000005916397100000000000000009999123100000010000000000000BRMULTACNOR5139
012024093002MYPK3       010IOCHP-MAXIONON      NM   R$  000000000112100000000011250000000001081000000000109300000000010910000000001091000000000109305156000000000001388900000000001518073600000000000000009999123100000010000000000000BRMYPKACNOR7155
012024093002CGRA4       010GRAZZIOTIN  PN           R$  000000000251300000000025150000000002507000000000251100000000025140000000002499000000000251500014000000000000001700000000000004270000000000000000009999123100000010000000000000BRCGRAACNPR9083
012024093002CMIG4       010CEMIG       PN  EJ  N1   R$  000000000113200000000011500000000001129000000000114200000000011400000000001140000000000114108879000000000007917600000000009042078200000000000000009999123100000010000000000000BRCMIGACNPR3245
012024093002COCE5       010COELCE      PNA          R$  000000000282600000000028400000000002580000000000264200000000026850000000002668000000000268500498000000000000103900000000000274563800000000000000009999123100000010000000000000BRCOCEACNPA3147
012024093002ZAMP3       010ZAMP S.A.   ON           R$  000000000025900000000002640000000000253000000000025900000000002590000000000259000000000026000923000000000000365300000000000094819200000000000000009999123100000010000000000000BRZAMPACNOR5101
012024093002BPAC5       010BTGP BANCO  PNA     N2   R$  000000000090600000000009060000000000853000000000086600000000008710000000000861000000000087000067000000000000012900000000000011183600000000000000009999123100000010000000000000BRBPACACNPA0134
012024093002CPLE5       010COPEL       PNA     N2   R$  000000000118000000000014300000000001180000000000127300000000014300000000001400000000000171600031000000000000003400000000000004329400000000000000009999123100000010000000000000BRCPLEACNPA1147
012024093002DOTZ3       010DOTZ SA     ON      NM   R$  000000000049100000000005230000000000491000000000049900000000004960000000000496000000000050400095000000000000035600000000000017773200000000000000009999123100000010000000000000BRDOTZACNOR7101
012024093002DEXP3       010DEXXOS PAR  ON      N1   R$  000000000091000000000009120000000000885000000000089400000000008980000000000898000000000090300368000000000000092400000000000082660600000000000000009999123100000010000000000000BRDEXPACNOR1105
012024093002GMAT3       010GRUPO MATEUSON  EJ  NM   R$  000000000074700000000007520000000000732000000000073900000000007410000000000740000000000074109560000000000003764300000000002783912500000000000000009999123100000010000000000000BRGMATACNOR7103
012024093002JBSS3       010JBS         ON      NM   R$  000000000310700000000031640000000003085000000000313400000000031630000000003160000000000316422438000000000016395000000000051398198100000000000000009999123100000010000000000000BRJBSSACNOR8122
012024093002AMAR3       010LOJAS MARISAON      NM   R$  000000000010800000000001080000000000105000000000010600000000001050000000000105000000000010600505000000000000202900000000000021546400000000000000009999123100000010000000000000BRAMARACNOR4115
012024093002ROMI3       010ROMI        ON  EJ  NM   R$  000000000109600000000011040000000001080000000000109100000000010830000000001083000000000109000661000000000000113100000000000123423500000000000000009999123100000010000000000000BRROMIACNOR8196
012024093002UGPA3       010ULTRAPAR    ON      NM   R$  000000000212100000000021470000000002118000000000212900000000021210000000002121000000000212309961000000000004572000000000009737510000000000000000009999123100000010000000000000BRUGPAACNOR8156
012024093002VIVR3       010VIVER       ON      NM   R$  000000000018800000000001960000000000180000000000018400000000001800000000000180000000000018300171000000000000065700000000000012133000000000000000009999123100000010000000000000BRVIVRACNOR4123
012024093002CURY3       010CURY S/A    ON      NM   R$  000000000226500000000022740000000002236000000000224900000000022360000000002235000000000223607254000000000001808000000000004066744500000000000000009999123100000010000000000000BRCURYACNOR3109
012024093002POMO4       010MARCOPOLO   PN      N2   R$  000000000080600000000008130000000000790000000000079700000000007950000000000795000000000079612514000000000008527800000000006802348500000000000000009999123100000010000000000000BRPOMOACNPR7099
012024093002SANB3       010SANTANDER BRON           R$  000000000136000000000013730000000001351000000000135900000000013520000000001352000000000135300468000000000000098700000000000134211700000000000000009999123100000010000000000000BRSANBACNOR8172
012024093002SAPR4       010SANEPAR     PN      N2   R$  000000000059900000000006000000000000589000000000059500000000005960000000000595000000000059703292000000000001358900000000000809696400000000000000009999123100000010000000000000BRSAPRACNPR6159
012024093002WEGE3       010WEG         ON  EJ  NM   R$  000000000556300000000056240000000005439000000000547300000000054390000000005439000000000545017969000000000006435400000000035223029100000000000000009999123100000010000000000000BRWEGEACNOR0225
012024093008PMAM3       010PARANAPANEMAON  ES  NM   R$  000000000016600000000001660000000000157000000000016500000000001600000000000159000000000016500195000000000004442100000000000736568100000000000000009999123100000010000000000000BRPMAMACNOR3040
012024093008OIBR3       010OI          ON      N1   R$  000000000053000000000005600000000000530000000000054300000000005300000000000530000000000053802123000000000001160400000000000630220200000000000000009999123100000010000000000000BROIBRACNOR1112
012024093008OSXB3       010OSX BRASIL  ON      NM   R$  000000000042500000000004350000000000404000000000043000000000004300000000000404000000000043000023000000000000008400000000000003620200000000000000009999123100000010000000000000BROSXBACNOR8109
012024093008RNEW3       010RENOVA      ON      N2   R$  000000000011500000000001190000000000111000000000011300000000001110000000000111000000000011200291000000000000171800000000000019532000000000000000009999123100000010000000000000BRRNEWACNOR8110
012024093008CTSA4       010SANTANENSE  PN           R$  000000000013100000000001320000000000127000000000012900000000001280000000000128000000000013000050000000000000023400000000000003033400000000000000009999123100000010000000000000BRCTSAACNPR0062
012024093010BGIP2       010BANESE      DIR PRE      R$  000000000027400000000002760000000000250000000000027000000000002500000000000200000000000025000010000000000000001200000000000000324100000000000000009999123100000010000000000000BRBGIPD08PR8209
012024093012TORD11      010FII TORDE EICI           R$  000000000009900000000001000000000000099000000000009900000000001000000000000099000000000010000351000000000000047651000000000004736266000000000000009999123100000010000000000000BRTORDCTF015138
012024093012ARXD11      010FII ARXD R  CI           R$  000000000975900000000097590000000009612000000000961700000000096120000000009575000000000995000006000000000000000260000000000002500590000000000000009999123100000010000000000000BRARXDCTF008118
012024093002PCAR3       010P.ACUCAR-CBDON      NM   R$  000000000028200000000002850000000000274000000000027900000000002820000000000281000000000028213888000000000011165000000000003120258800000000000000009999123100000010000000000000BRPCARACNOR3167
012024093002KLBN4       010KLABIN S/A  PN      N2   R$  000000000042000000000004270000000000419000000000042300000000004200000000000420000000000042101515000000000000942100000000000398548800000000000000009999123100000010000000000000BRKLBNACNPR9171
012024093002MWET4       010WETZEL S/A  PN           R$  000000000082000000000008200000000000820000000000082000000000008200000000000820000000000091500001000000000000000200000000000000164000000000000000009999123100000010000000000000BRMWETACNPR3118
012024093002BBSE3       010BBSEGURIDADEON      NM   R$  000000000354000000000036530000000003538000000000358800000000035500000000003550000000000356022130000000000006029800000000021639457400000000000000009999123100000010000000000000BRBBSEACNOR5125
012024093002CLSA3       010CLEARSALE   ON      NM   R$  000000000087700000000009190000000000854000000000089500000000009160000000000911000000000091608801000000000003242800000000002903993800000000000000009999123100000010000000000000BRCLSAACNOR0100
012024093002CSUD3       010CSU DIGITAL ON  EJ  NM   R$  000000000178400000000017840000000001739000000000175300000000017570000000001757000000000175800262000000000000048100000000000084333000000000000000009999123100000010000000000000BRCSUDACNOR5111
012024093002COGN3       010COGNA ON    ON      NM   R$  000000000013400000000001340000000000127000000000012900000000001280000000000128000000000012911736000000000031670500000000004103046000000000000000009999123100000010000000000000BRCOGNACNOR2105
012024093002B3SA3       010B3          ON  EDJ NM   R$  000000000106800000000010800000000001059000000000106900000000010710000000001071000000000107231726000000000060955500000000065167455600000000000000009999123100000010000000000000BRB3SAACNOR6134
012024093002BPAN4       010BANCO PAN   PN      N1   R$  000000000101300000000010220000000000991000000000100700000000010050000000001005000000000100602936000000000001322900000000001332562600000000000000009999123100000010000000000000BRBPANACNPR1115
012024093002CPLE6       010COPEL       PNB     N2   R$  000000000101900000000010250000000001012000000000101800000000010190000000001019000000000102311416000000000010395700000000010591803700000000000000009999123100000010000000000000BRCPLEACNPB9146
012024093002DTCY3       010DTCOM-DIRECTON           R$  000000000044000000000004400000000000400000000000040400000000004000000000000390000000000040000014000000000000003700000000000001498300000000000000009999123100000010000000000000BRDTCYACNOR5109
012024093002DEXP4       010DEXXOS PAR  PN      N1   R$  000000000088000000000009090000000000880000000000088600000000009090000000000884000000000091000011000000000000002100000000000001862200000000000000009999123100000010000000000000BRDEXPACNPR8105
012024093002GOAU3       010GERDAU MET  ON      N1   R$  000000000107900000000010930000000001071000000000108000000000010740000000001073000000000107800140000000000000022500000000000024320900000000000000009999123100000010000000000000BRGOAUACNOR1268
012024093002RAPT3       010RANDON PART ON      N1   R$  000000000088200000000008860000000000878000000000088100000000008840000000000879000000000088400063000000000000014000000000000012341900000000000000009999123100000010000000000000BRRAPTACNOR7163
012024093002AMBP3       010AMBIPAR     ON      NM   R$  000000001346800000000149740000000013450000000001426700000000137000000000013682000000001380000718000000000000205000000000002924761900000000000000009999123100000010000000000000BRAMBPACNOR6103
012024093002TTEN3       0103TENTOS     ON      NM   R$  000000000114700000000011490000000001124000000000113600000000011320000000001132000000000113804791000000000000937800000000001065354900000000000000009999123100000010000000000000BRTTENACNOR0103
012024093002UNIP3       010UNIPAR      ON           R$  000000000477900000000047890000000004645000000000469800000000046700000000004670000000000471200127000000000000016700000000000078472700000000000000009999123100000010000000000000BRUNIPACNOR7206
012024093002VIVT3       010TELEF BRASILON           R$  000000000556600000000056920000000005561000000000562600000000055820000000005581000000000560012028000000000002477900000000013941997700000000000000009999123100000010000000000000BRVIVTACNOR0184
012024093002CVCB3       010CVC BRASIL  ON      NM   R$  000000000019100000000001910000000000184000000000018700000000001860000000000186000000000018704652000000000007254700000000001359017500000000000000009999123100000010000000000000BRCVCBACNOR1116
012024093002RSUL4       010RIOSULENSE  PN           R$  000000000634300000000063430000000006200000000000624600000000062000000000006012000000000620000018000000000000002700000000000016865500000000000000009999123100000010000000000000BRRSULACNPR3114
012024093002SANB4       010SANTANDER BRPN           R$  000000000151400000000015140000000001485000000000149200000000014860000000001486000000000148800518000000000000085900000000000128197800000000000000009999123100000010000000000000BRSANBACNPR5172
012024093002VTRU3       010VITRUEDUCA  ON      NM   R$  000000000094700000000009530000000000913000000000092500000000009340000000000921000000000093500448000000000000113000000000000104535900000000000000009999123100000010000000000000BRVTRUACNOR3100
012024093007NUTR3       010NUTRIPLANT  ON      MA   R$  000000000047000000000004740000000000463000000000046600000000004630000000000463000000000047300013000000000000001400000000000000653700000000000000009999123100000010000000000000BRNUTRACNOR0104
012024093008ATMP3       010ATMASA      ON           R$  000000000016500000000001650000000000158000000000016100000000001630000000000160000000000016300016000000000000006300000000000001019700000000000000009999123100000010000000000000BRATMPACNOR8100
012024093008AGXY3       010AGROGALAXY  ON      NM   R$  000000000006000000000000600000000000058000000000005800000000000590000000000058000000000005900188000000000000112000000000000006556700000000000000009999123100000010000000000000BRAGXYACNOR4103
012024093008BDLL4       010BARDELLA    PN           R$  000000000085000000000008500000000000850000000000085000000000008500000000000800000000000096900001000000000000000100000000000000085000000000000000009999123100000010000000000000BRBDLLACNPR8151
012024093008RNEW4       010RENOVA      PN      N2   R$  000000000011200000000001150000000000109000000000011100000000001130000000000111000000000011300328000000000000387400000000000043312700000000000000009999123100000010000000000000BRRNEWACNPR5110
012024093008RSID3       010ROSSI RESID ON      NM   R$  000000000032100000000003360000000000313000000000032500000000003290000000000316000000000032900060000000000000022200000000000007215300000000000000009999123100000010000000000000BRRSIDACNOR8120
012024093010ZAMP9       010ZAMP S.A.   ON  REC      R$  000000000025000000000002560000000000235000000000024600000000002530000000000000000000000025300016000000000000008900000000000002193900000000000000009999123100000010000000000000BRZAMPR01OR0100
012024093012TRBL11      010FII SDI LOG CI           R$  000000000930000000000094000000000009283000000000934000000000093320000000009332000000000934800753000000000000007893000000000073728363000000000000009999123100000010000000000000BRTRBLCTF007115
012024093012BROF11      010FII BROF    CI           R$  000000000465000000000048600000000004649000000000470500000000047500000000004676000000000475000326000000000000007277000000000034242945000000000000009999123100000010000000000000BRBROFCTF000117
012024093012BTAL11      010FII BTG AGROCI  ER       R$  000000000737000000000074360000000007215000000000734200000000073860000000007386000000000738801194000000000000013347000000000097999198000000000000009999123100000010000000000000BRBTALCTF003143
012024093012VCRR11      010FII VECT RENCI           R$  000000000668300000000067000000000006432000000000656700000000067000000000006578000000000669900181000000000000005427000000000035639217000000000000009999123100000010000000000000BRVCRRCTF008139
012024093012VGRI11      010FII VGRI    CI           R$  000000000090000000000009120000000000882000000000089600000000009010000000000900000000000090106671000000000000079587000000000071324928000000000000009999123100000010000000000000BRVGRICTF008107
012024093012VISC11      010FII VINCI SCCI           R$  000000001092200000000109800000000010800000000001091300000000108700000000010870000000001088305241000000000000042962000000000468887156000000000000009999123100000010000000000000BRVISCCTF005189
012024093012QAGR11      010FII QUASAR ACI           R$  000000000461100000000046560000000004606000000000461900000000046080000000004607000000000462000230000000000000002667000000000012319554000000000000009999123100000010000000000000BRQAGRCTF005158
012024093012SNLG11      010FII SUNO LG CI           R$  000000000323300000000032330000000003170000000000319600000000032230000000003173000000000322300092000000000000001817000000000005808664000000000000009999123100000010000000000000BRSNLGCTF007107
012024093012PRSN11      010FII PERSONALCI           R$  000000000012200000000001300000000000119000000000012300000000001190000000000115000000000011900006000000000000000108000000000000013330000000000000009999123100000010000000000000BRPRSNCTF005125
012024093012SJAU11      010FII SJ AU   CI           R$  000000000595000000000059500000000005950000000000595000000000059500000000005002000000000595000001000000000000000007000000000000041650000000000000009999123100000010000000000000BRSJAUCTF009102
012024093012BLCA11      010FII BLUE AAACI           R$  000000000991200000000099610000000009882000000000992100000000099600000000009882000000000996100010000000000000000030000000000000297640000000000000009999123100000010000000000000BRBLCACTF009134
012024093012BMLC11      010FII BMBRC LCCI           R$  000000001009000000000100900000000009722000000000998600000000097220000000009720000000000999900005000000000000000012000000000000119832000000000000009999123100000010000000000000BRBMLCCTF004254
012024093012ICRI11      010FII CI IPCA CI           R$  000000000947800000000096500000000009471000000000953600000000096490000000009550000000000964200301000000000000009228000000000088006189000000000000009999123100000010000000000000BRICRICTF004107
012024093012INRD11      010FII INTER RDCI           R$  000000000728200000000072820000000007226000000000723700000000072500000000007227000000000725000028000000000000000293000000000002120606000000000000009999123100000010000000000000BRINRDCTF002100
012024093012MCCI11      010FII MAUA    CI           R$  000000000878200000000088720000000008782000000000881700000000088120000000008812000000000887204393000000000000039256000000000346139089000000000000009999123100000010000000000000BRMCCICTF008165
012024093012NCHB11      010FII NCH BR  CI           R$  000000000090600000000009120000000000905000000000090800000000009090000000000909000000000091000166000000000000010552000000000009590937000000000000009999123100000010000000000000BRNCHBCTF000233
012024093012CACR11      010CARTESIA FIICI           R$  000000001068900000000106990000000010644000000001067300000000106600000000010655000000001066002390000000000000014499000000000154759223000000000000009999123100000010000000000000BRCACRCTF004136
012024093012URPR11      010FII URCA RENCI           R$  000000000799800000000080710000000007983000000000800700000000080500000000008045000000000805001460000000000000027510000000000220293286000000000000009999123100000010000000000000BRURPRCTF002161
012024093012WPLZ11      010FII W PLAZA CI           R$  000000000589900000000059000000000005000000000000507500000000050000000000000000000000000500000035000000000000000440000000000002233233000000000000009999123100000010000000000000BRWPLZCTF004269
012024093012RINV11      010FII REAL INVCI  ES       R$  000000001080000000000108180000000010750000000001077500000000107590000000010757000000001075902271000000000000010574000000000113941387000000000000009999123100000010000000000000BRRINVCTF004123
012024093012CPOF11      010FII CPOF    CI           R$  000000001085000000000108500000000010850000000001085000000000108500000000000000000000001080000002000000000000039000000000000423150000000000000000009999123100000010000000000000BRCPOFCTF002110
012024093012EGDB11      010FII EGDB    CI           R$  000000010305400000001030540000000103054000000010305400000001030540000000085810000000000000000001000000000000000001000000000000103054000000000000009999123100000010000000000000BREGDBCTF009100
012024093012HCRI11      010FII CRIANCA CI           R$  000000002729700000000272970000000027000000000002714400000000272800000000026991000000002728000021000000000000000094000000000002551579000000000000009999123100000010000000000000BRHCRICTF006332
012024093012HGBS11      010FII HEDGEBS CI           R$  000000002025000000000203940000000020244000000002033900000000203390000000020339000000002035202036000000000000010751000000000218669866000000000000009999123100000010000000000000BRHGBSCTF000313
012024093012HGLG11      010FII HGLG PAXCI           R$  000000001590000000000159420000000015855000000001590800000000159130000000015910000000001591306703000000000000042023000000000668536746000000000000009999123100000010000000000000BRHGLGCTF004274
012024093012HLOG11      010FII HEDGELOGCI           R$  000000000857300000000085730000000008447000000000855300000000085180000000008518000000000851900149000000000000002406000000000020580538000000000000009999123100000010000000000000BRHLOGCTF008159
012024093012HREC11      010FII HEDGERECCI           R$  000000000086000000000008600000000000853000000000085500000000008530000000000853000000000085500052000000000000002665000000000002281098000000000000009999123100000010000000000000BRHRECCTF005153
012024093012HSRE11      010FII HSIRENDACI           R$  000000000960000000000096000000000009600000000000960000000000096000000000009509000000001060000007000000000000000035000000000000336000000000000000009999123100000010000000000000BRHSRECTF001144
012024093012KNHF11      010FII KINEA HFCI           R$  000000000958100000000095810000000009400000000000946900000000094400000000009440000000000944301778000000000000050286000000000476176820000000000000009999123100000010000000000000BRKNHFCTF004114
012024093012KNRI11      010FII KINEA   CI           R$  000000001405000000000140870000000013912000000001398400000000139300000000013930000000001395010884000000000000074767000000001045608949000000000000009999123100000010000000000000BRKNRICTF007267
012024093012LASC11      010FII LEGATUS CI           R$  000000001103300000000111000000000011033000000001106800000000111000000000010906000000001110300004000000000000000028000000000000309916000000000000009999123100000010000000000000BRLASCCTF003156
012024093012NVHO11      010FII NOVOHORICI           R$  000000000134700000000013470000000001256000000000131900000000013000000000001256000000000133400009000000000000000077000000000000101564000000000000009999123100000010000000000000BRNVHOCTF003231
012024093012FCFL11      010FII CAMPUSFLCI  ER       R$  000000001142200000000114220000000011361000000001136500000000113620000000011362000000001141000039000000000000000383000000000004353159000000000000009999123100000010000000000000BRFCFLCTF009273
012024093012VCJR11      010FII VECTIS  CI           R$  000000000891500000000090000000000008908000000000895900000000089330000000008930000000000893302008000000000000014352000000000128585966000000000000009999123100000010000000000000BRVCJRCTF005158
012024093012VGIP11      010FII VALORAIPCI           R$  000000000845000000000085820000000008349000000000845300000000085210000000008506000000000852103828000000000000031053000000000262512129000000000000009999123100000010000000000000BRVGIPCTF002159
