00COTAHIST.2024BOVESPA 20241115                                                                                                                                                                                                                      
012024111402KRSA3       010KORA SAUDE  ON      NM   R$  000000000062700000000006500000000000627000000000063600000000006400000000000640000000000064800050000000000000016900000000000010751000000000000000009999123100000010000000000000BRKRSAACNOR0101
012024111402SHUL4       010SCHULZ      PN           R$  000000000058100000000005850000000000574000000000057800000000005820000000000582000000000058501221000000000000415000000000000240149600000000000000009999123100000010000000000000BRSHULACNPR4157
012024111402SIMH3       010SIMPAR      ON      NM   R$  000000000051000000000005240000000000501000000000050800000000005050000000000505000000000050606768000000000004717100000000002398428800000000000000009999123100000010000000000000BRSIMHACNOR0107
012024111402EGIE3       010ENGIE BRASILON      NM   R$  000000000393800000000039610000000003926000000000394500000000039420000000003940000000000394505268000000000001149200000000004533610300000000000000009999123100000010000000000000BREGIEACNOR9127
012024111402ODPV3       010ODONTOPREV  ON  ED  NM   R$  000000000107400000000010840000000001032000000000105000000000010320000000001031000000000103202915000000000000846700000000000889835200000000000000009999123100000010000000000000BRODPVACNOR4205
012024111402OFSA3       010OUROFINO S/AON      NM   R$  000000000225000000000022500000000002185000000000222800000000022400000000002190000000000221300004000000000000000400000000000000891500000000000000009999123100000010000000000000BROFSAACNOR7118
012024111402SLCE3       010SLC AGRICOLAON      NM   R$  000000000171800000000017470000000001696000000000171000000000016980000000001698000000000170306188000000000002210700000000003781291300000000000000009999123100000010000000000000BRSLCEACNOR2125
012024111402JHSF3       010JHSF PART   ON      NM   R$  000000000044500000000004490000000000442000000000044500000000004450000000000445000000000044602268000000000001415500000000000630437400000000000000009999123100000010000000000000BRJHSFACNOR2141
012024111402MILS3       010MILLS       ON      NM   R$  000000000101300000000010480000000001011000000000103400000000010320000000001031000000000103202831000000000001129000000000001167718800000000000000009999123100000010000000000000BRMILSACNOR2128
012024111402ONCO3       010ONCOCLINICASON      NM   R$  000000000043300000000004340000000000395000000000041100000000003950000000000394000000000039807939000000000011913000000000004906454700000000000000009999123100000010000000000000BRONCOACNOR6101
012024111402OPCT3       010OCEANPACT   ON      NM   R$  000000000060800000000006200000000000608000000000061300000000006150000000000610000000000061601419000000000000362700000000000222433200000000000000009999123100000010000000000000BROPCTACNOR0100
012024111402ORVR3       010ORIZON      ON      NM   R$  000000000466400000000047450000000004533000000000460700000000045350000000004530000000000453506170000000000001236200000000005695827900000000000000009999123100000010000000000000BRORVRACNOR0101
012024111402MLAS3       010MULTILASER  ON      NM   R$  000000000015500000000001570000000000146000000000015100000000001460000000000146000000000014703093000000000004237900000000000642489600000000000000009999123100000010000000000000BRMLASACNOR9101
012024111402MNPR3       010MINUPAR     ON           R$  000000000205000000000021800000000002050000000000211200000000020510000000002051000000000217500034000000000000006000000000000012674900000000000000009999123100000010000000000000BRMNPRACNOR5122
012024111402MOVI3       010MOVIDA      ON      NM   R$  000000000064700000000006680000000000613000000000063300000000006130000000000613000000000061809616000000000005292200000000003353330600000000000000009999123100000010000000000000BRMOVIACNOR0123
012024111402PFRM3       010PROFARMA    ON  EJ  NM   R$  000000000070400000000007260000000000699000000000070900000000007050000000000705000000000071200692000000000000213500000000000151483400000000000000009999123100000010000000000000BRPFRMACNOR1117
012024111402PGMN3       010PAGUE MENOS ON      NM   R$  000000000031700000000003250000000000309000000000031600000000003130000000000313000000000031401239000000000000608300000000000192252600000000000000009999123100000010000000000000BRPGMNACNOR8103
012024111402PATI4       010PANATLANTICAPN           R$  000000000350000000000035000000000003500000000000350000000000035000000000003400000000000350000001000000000000000300000000000001050000000000000000009999123100000010000000000000BRPATIACNPR3067
012024111402ROMI3       010ROMI        ON      NM   R$  000000000095100000000009620000000000947000000000095500000000009540000000000951000000000095400694000000000000139300000000000133040000000000000000009999123100000010000000000000BRROMIACNOR8196
012024111402RPAD5       010ALFA HOLDINGPNA          R$  000000000079900000000008200000000000799000000000080000000000008200000000000560000000000081900003000000000000001500000000000001200600000000000000009999123100000010000000000000BRRPADACNPA4219
012024111402UNIP3       010UNIPAR      ON           R$  000000000488200000000049760000000004800000000000487700000000048620000000004841000000000486000164000000000000022800000000000111203000000000000000009999123100000010000000000000BRUNIPACNOR7206
012024111402UNIP5       010UNIPAR      PNA          R$  000000000494000000000051990000000004940000000000502300000000050000000000005000000000000509800010000000000000001200000000000006027600000000000000009999123100000010000000000000BRUNIPACNPA0208
012024111402UNIP6       010UNIPAR      PNB          R$  000000000486600000000051340000000004817000000000496200000000048710000000004871000000000487602594000000000000477600000000002369916000000000000000009999123100000010000000000000BRUNIPACNPB8206
012024111402VAMO3       010VAMOS       ON      NM   R$  000000000055900000000005680000000000547000000000055300000000005530000000000551000000000055306912000000000028074500000000015529594100000000000000009999123100000010000000000000BRVAMOACNOR7105
012024111402SAPR11      010SANEPAR     UNT     N2   R$  000000000257900000000026250000000002572000000000259900000000026000000000002596000000000260906769000000000001265700000000003290307000000000000000009999123100000010000000000000BRSAPRCDAM13118
012024111402SAPR3       010SANEPAR     ON      N2   R$  000000000049500000000005040000000000495000000000049900000000005020000000000499000000000050300863000000000000228500000000000114187500000000000000009999123100000010000000000000BRSAPRACNOR9159
012024111402SAPR4       010SANEPAR     PN      N2   R$  000000000052100000000005280000000000520000000000052300000000005230000000000522000000000052404398000000000002384000000000001247865700000000000000009999123100000010000000000000BRSAPRACNPR6159
012024111402SBFG3       010GRUPO SBF   ON      NM   R$  000000000134800000000013480000000001305000000000132100000000013240000000001314000000000132407550000000000002093500000000002767255100000000000000009999123100000010000000000000BRSBFGACNOR1103
012024111402SBSP3       010SABESP      ON      NM   R$  000000000945300000000097090000000009423000000000963700000000096310000000009630000000000963118422000000000003235500000000031181749900000000000000009999123100000010000000000000BRSBSPACNOR5161
012024111402TPIS3       010TRIUNFO PARTON      NM   R$  000000000070000000000007000000000000631000000000066400000000006490000000000649000000000065700229000000000000063500000000000042213000000000000000009999123100000010000000000000BRTPISACNOR8118
012024111402TRAD3       010TC          ON      NM   R$  000000000071700000000008090000000000617000000000071700000000008090000000000772000000000080902168000000000001302500000000000934804600000000000000009999123100000010000000000000BRTRADACNOR3102
012024111402RSUL4       010RIOSULENSE  PN           R$  000000000619900000000061990000000006000000000000604300000000060000000000005970000000000601000011000000000000001100000000000006648200000000000000009999123100000010000000000000BRRSULACNPR3114
012024111402SANB11      010SANTANDER BRUNT          R$  000000000260500000000026130000000002567000000000257800000000025680000000002567000000000257710352000000000004159400000000010725416500000000000000009999123100000010000000000000BRSANBCDAM13166
012024111402SANB3       010SANTANDER BRON           R$  000000000124400000000012440000000001218000000000122100000000012200000000001220000000000122501429000000000000307200000000000375145200000000000000009999123100000010000000000000BRSANBACNOR8173
012024111402SANB4       010SANTANDER BRPN           R$  000000000137600000000013770000000001352000000000136300000000013540000000001354000000000136001280000000000000281700000000000384182700000000000000009999123100000010000000000000BRSANBACNPR5173
012024111402POSI3       010POSITIVO TECON      NM   R$  000000000057500000000005800000000000548000000000056800000000005630000000000562000000000056307729000000000003193700000000001815595900000000000000009999123100000010000000000000BRPOSIACNOR9116
012024111402PTBL3       010PORTOBELLO  ON      NM   R$  000000000040600000000004140000000000406000000000041000000000004080000000000408000000000041002412000000000000398900000000000163565800000000000000009999123100000010000000000000BRPTBLACNOR8132
012024111402PTNT3       010PETTENATI   ON           R$  000000000091900000000009190000000000902000000000091000000000009020000000000888000000000090200002000000000000000200000000000000182100000000000000009999123100000010000000000000BRPTNTACNOR6043
012024111402PTNT4       010PETTENATI   PN           R$  000000000066000000000006600000000000632000000000064600000000006320000000000632000000000064800018000000000000005100000000000003298200000000000000009999123100000010000000000000BRPTNTACNPR3048
012024111402BBSE3       010BBSEGURIDADEON      NM   R$  000000000336000000000033710000000003337000000000335200000000033410000000003341000000000335006758000000000002205800000000007394950500000000000000009999123100000010000000000000BRBBSEACNOR5125
012024111402PINE3       010PINE        ON      N2   R$  000000000047400000000004800000000000439000000000045400000000004390000000000439000000000048000015000000000000001800000000000000818700000000000000009999123100000010000000000000BRPINEACNOR1152
012024111402PINE4       010PINE        PN      N2   R$  000000000046500000000004650000000000446000000000045000000000004470000000000447000000000044900448000000000000285400000000000128632500000000000000009999123100000010000000000000BRPINEACNPR8152
012024111402PLAS3       010PLASCAR PARTON           R$  000000000061000000000006190000000000610000000000061400000000006190000000000570000000000068800002000000000000000200000000000000122900000000000000009999123100000010000000000000BRPLASACNOR2106
012024111402PLPL3       010PLANOEPLANO ON      NM   R$  000000000135000000000013640000000001285000000000130300000000012930000000001292000000000129303218000000000000860100000000001120786500000000000000009999123100000010000000000000BRPLPLACNOR5104
012024111402PNVL3       010DIMED       ON      NM   R$  000000000097700000000009910000000000967000000000098100000000009750000000000974000000000097500838000000000000155700000000000152763600000000000000009999123100000010000000000000BRPNVLACNOR9208
012024111402POMO3       010MARCOPOLO   ON      N2   R$  000000000070000000000007060000000000691000000000069900000000007060000000000706000000000070700600000000000000200300000000000140144000000000000000009999123100000010000000000000BRPOMOACNOR0099
012024111402POMO4       010MARCOPOLO   PN      N2   R$  000000000093200000000009430000000000918000000000093100000000009420000000000933000000000094219869000000000012020000000000011202252400000000000000009999123100000010000000000000BRPOMOACNPR7099
012024111402PORT3       010WILSON SONS ON      NM   R$  000000000158100000000015870000000001576000000000158100000000015800000000001575000000000158002445000000000001095400000000001732099000000000000000009999123100000010000000000000BRPORTACNOR8110
012024111402DASA3       010DASA        ON      NM   R$  000000000022700000000002270000000000215000000000021900000000002150000000000215000000000021601611000000000001083900000000000237645400000000000000009999123100000010000000000000BRDASAACNOR1123
012024111402DESK3       010DESKTOP     ON      NM   R$  000000000135500000000013800000000001352000000000135900000000013540000000001353000000000135800264000000000000044400000000000060341700000000000000009999123100000010000000000000BRDESKACNOR2104
012024111402ESTR4       010ESTRELA     PN           R$  000000000033900000000003500000000000339000000000034400000000003500000000000331000000000036800002000000000000000400000000000000137800000000000000009999123100000010000000000000BRESTRACNPR0144
012024111402ETER3       010ETERNIT     ON  EJ  NM   R$  000000000051700000000005200000000000511000000000051500000000005150000000000515000000000052000415000000000000151200000000000077870500000000000000009999123100000010000000000000BRETERACNOR3245
012024111402EUCA3       010EUCATEX     ON      N1   R$  000000000159600000000016500000000001596000000000163900000000016000000000001600000000000164900007000000000000002600000000000004261900000000000000009999123100000010000000000000BREUCAACNOR1157
012024111402EUCA4       010EUCATEX     PN      N1   R$  000000000139500000000014030000000001390000000000139400000000014000000000001392000000000140200215000000000000031500000000000043941000000000000000009999123100000010000000000000BREUCAACNPR8044
012024111402EVEN3       010EVEN        ON      NM   R$  000000000056400000000005790000000000557000000000057200000000005730000000000570000000000057303963000000000001181600000000000676117500000000000000009999123100000010000000000000BREVENACNOR8120
012024111402EZTC3       010EZTEC       ON  ED  NM   R$  000000000142900000000014580000000001420000000000144200000000014380000000001438000000000144011563000000000005612500000000008098614900000000000000009999123100000010000000000000BREZTCACNOR0127
012024111402ITUB3       010ITAUUNIBANCOON      N1   R$  000000000300900000000030130000000002982000000000299700000000029880000000002988000000000299601624000000000000656400000000001967689000000000000000009999123100000010000000000000BRITUBACNOR4343
012024111402ITUB4       010ITAUUNIBANCOPN      N1   R$  000000000344500000000034610000000003417000000000343800000000034420000000003433000000000344334455000000000030896800000000106246549800000000000000009999123100000010000000000000BRITUBACNPR1343
012024111402MULT3       010MULTIPLAN   ON      N2   R$  000000000246900000000025870000000002469000000000255000000000025650000000002555000000000256522074000000000006191000000000015792586100000000000000009999123100000010000000000000BRMULTACNOR5139
012024111402MWET4       010WETZEL S/A  PN           R$  000000000103000000000011000000000001030000000000104900000000011000000000001070000000000129800007000000000000000700000000000000734900000000000000009999123100000010000000000000BRMWETACNPR3118
012024111402MYPK3       010IOCHP-MAXIONON      NM   R$  000000000112800000000011750000000001128000000000116100000000011630000000001163000000000117404410000000000000948200000000001101074800000000000000009999123100000010000000000000BRMYPKACNOR7156
012024111402RECV3       010PETRORECSA  ON  ED  NM   R$  000000000167100000000017030000000001660000000000167500000000016660000000001664000000000166808406000000000001847700000000003095220900000000000000009999123100000010000000000000BRRECVACNOR3108
012024111402REDE3       010REDE ENERGIAON  ED       R$  000000000067000000000006930000000000670000000000067500000000006710000000000671000000000068100018000000000000002100000000000001417500000000000000009999123100000010000000000000BRREDEACNOR7129
012024111402RENT3       010LOCALIZA    ON      NM   R$  000000000447300000000045810000000004394000000000448000000000044730000000004473000000000447836880000000000020385400000000091326718500000000000000009999123100000010000000000000BRRENTACNOR4197
012024111402BRBI11      010BR PARTNERS UNT ED  N2   R$  000000000148900000000015400000000001482000000000151900000000015400000000001518000000000154002420000000000000378100000000000574438400000000000000009999123100000010000000000000BRBRBICDAM10111
012024111402BRFS3       010BRF SA      ON      NM   R$  000000000252200000000025450000000002383000000000249800000000024950000000002491000000000249744003000000000034538600000000086279071400000000000000009999123100000010000000000000BRBRFSACNOR8122
012024111402CGAS3       010COMGAS      ON  ED       R$  000000001280000000000128000000000012800000000001280000000000128000000000011808000000001280000001000000000000000100000000000001280000000000000000009999123100000010000000000000BRCGASACNOR0165
012024111402CGAS5       010COMGAS      PNA ED       R$  000000001300000000000130000000000012997000000001299800000000129970000000012605000000001324900002000000000000000200000000000002599700000000000000009999123100000010000000000000BRCGASACNPA3162
012024111402CGRA3       010GRAZZIOTIN  ON           R$  000000000252500000000025500000000002491000000000251900000000025060000000002489000000000257400010000000000000001100000000000002771800000000000000009999123100000010000000000000BRCGRAACNOR2083
012024111402CGRA4       010GRAZZIOTIN  PN           R$  000000000251300000000026000000000002513000000000256500000000025450000000002545000000000257000049000000000000005600000000000014367300000000000000009999123100000010000000000000BRCGRAACNPR9083
012024111402CLSA3       010CLEARSALE   ON      NM   R$  000000000098400000000009840000000000975000000000097900000000009840000000000980000000000098401968000000000001532800000000001501413500000000000000009999123100000010000000000000BRCLSAACNOR0100
012024111402CLSC3       010CELESC      ON      N2   R$  000000000781600000000078160000000007595000000000770500000000075950000000007600000000000791800003000000000000000400000000000003082200000000000000009999123100000010000000000000BRCLSCACNOR6153
012024111402CLSC4       010CELESC      PN      N2   R$  000000000805000000000082800000000008050000000000811300000000082500000000008163000000000825000029000000000000003700000000000030020700000000000000009999123100000010000000000000BRCLSCACNPR3132
012024111402CMIG3       010CEMIG       ON      N1   R$  000000000145000000000015800000000001440000000000153300000000015530000000001549000000000155301861000000000000400600000000000614292400000000000000009999123100000010000000000000BRCMIGACNOR6244
012024111402CMIG4       010CEMIG       PN      N1   R$  000000000115600000000012560000000001133000000000120400000000012090000000001209000000000121037014000000000049311800000000059402904600000000000000009999123100000010000000000000BRCMIGACNPR3245
012024111402ENGI11      010ENERGISA    UNT     N2   R$  000000000411400000000041890000000004089000000000416800000000041820000000004176000000000418212730000000000003756800000000015660881100000000000000009999123100000010000000000000BRENGICDAM16136
012024111402ENGI3       010ENERGISA    ON      N2   R$  000000000121600000000012590000000001209000000000124500000000012590000000001245000000000126500021000000000000002300000000000002865200000000000000009999123100000010000000000000BRENGIACNOR0146
012024111402ENGI4       010ENERGISA    PN      N2   R$  000000000071500000000007350000000000712000000000072700000000007210000000000721000000000073200029000000000000004900000000000003564500000000000000009999123100000010000000000000BRENGIACNPR7142
012024111402ENJU3       010ENJOEI      ON      NM   R$  000000000012100000000001210000000000114000000000011700000000001160000000000116000000000011700838000000000000675000000000000079615900000000000000009999123100000010000000000000BRENJUACNOR9100
012024111402ENMT3       010ENERGISA MT ON           R$  000000000800000000000082980000000008000000000000814900000000082980000000000000000000000829900002000000000000000200000000000001629800000000000000009999123100000010000000000000BRENMTACNOR5121
012024111402ENMT4       010ENERGISA MT PN           R$  000000000782100000000084900000000007821000000000815500000000084900000000000000000000000000000003000000000000000400000000000003262200000000000000009999123100000010000000000000BRENMTACNPR2126
012024111402EPAR3       010EMBPAR S/A  ON           R$  000000000054500000000005500000000000526000000000053800000000005260000000000527000000000053700041000000000000011000000000000005921200000000000000009999123100000010000000000000BREPARACNOR9105
012024111402EQMA3B      010EQTLMARANHAOON      MB   R$  000000000232500000000023990000000002325000000000236300000000023990000000002366000000000242500008000000000000001100000000000002599600000000000000009999123100000010000000000000BREQMAACNOR8108
012024111402EQPA3       010EQTL PARA   ON           R$  000000000057000000000005810000000000551000000000056200000000005510000000000551000000000056100047000000000000019800000000000011127700000000000000009999123100000010000000000000BREQPAACNOR1111
012024111402EQTL3       010EQUATORIAL  ON      NM   R$  000000000313900000000032830000000003138000000000325200000000032670000000003265000000000326935248000000000013885600000000045160620400000000000000009999123100000010000000000000BREQTLACNOR0131
012024111402SMTO3       010SAO MARTINHOON      NM   R$  000000000245400000000025150000000002430000000000248100000000024790000000002477000000000247905619000000000000994500000000002467517500000000000000009999123100000010000000000000BRSMTOACNOR3127
012024111402SNSY3       010SANSUY      ON           R$  000000000114000000000011400000000001140000000000114000000000011400000000001030000000000115000001000000000000000100000000000000114000000000000000009999123100000010000000000000BRSNSYACNOR2113
012024111402SNSY5       010SANSUY      PNA          R$  000000000046700000000004730000000000458000000000046500000000004730000000000450000000000047500009000000000000000900000000000000419000000000000000009999123100000010000000000000BRSNSYACNPA5111
012024111402SOJA3       010BOA SAFRA   ON      NM   R$  000000000119000000000012460000000001163000000000118900000000011630000000001163000000000116806616000000000001515500000000001802647500000000000000009999123100000010000000000000BRSOJAACNOR9106
012024111402SRNA3       010SERENA      ON      NM   R$  000000000071300000000007170000000000686000000000069600000000006870000000000687000000000069304759000000000001702400000000001185927100000000000000009999123100000010000000000000BRSRNAACNOR4100
012024111402STBP3       010SANTOS BRP  ON      NM   R$  000000000127400000000012880000000001274000000000128100000000012840000000001280000000000128405289000000000003500000000000004486279600000000000000009999123100000010000000000000BRSTBPACNOR3133
012024111402SUZB3       010SUZANO S.A. ON      NM   R$  000000000608800000000060890000000005947000000000604500000000060550000000006055000000000606221743000000000009708300000000058694511300000000000000009999123100000010000000000000BRSUZBACNOR0130
012024111402VULC3       010VULCABRAS   ON      NM   R$  000000000160600000000016290000000001603000000000161700000000016100000000001610000000000162101768000000000000406800000000000657923000000000000000009999123100000010000000000000BRVULCACNOR2163
012024111402VVEO3       010VIVEO       ON      NM   R$  000000000020000000000002100000000000193000000000019900000000001930000000000193000000000019405344000000000007711500000000001537079800000000000000009999123100000010000000000000BRVVEOACNOR0104
012024111402GRND3       010GRENDENE    ON      NM   R$  000000000053600000000005400000000000530000000000053400000000005310000000000531000000000053303020000000000000864600000000000462061600000000000000009999123100000010000000000000BRGRNDACNOR3175
012024111402GUAR3       010GUARARAPES  ON      NM   R$  000000000084000000000008610000000000801000000000082200000000008010000000000801000000000080503669000000000001962200000000001613563500000000000000009999123100000010000000000000BRGUARACNOR4173
012024111402HAGA3       010HAGA S/A    ON           R$  000000000024500000000002450000000000240000000000024000000000002440000000000236000000000024500039000000000000011900000000000002865400000000000000009999123100000010000000000000BRHAGAACNOR7103
012024111402HAGA4       010HAGA S/A    PN           R$  000000000013200000000001390000000000129000000000013200000000001340000000000129000000000013500045000000000000020000000000000002643400000000000000009999123100000010000000000000BRHAGAACNPR4103
012024111402HAPV3       010HAPVIDA     ON      NM   R$  000000000031000000000003240000000000308000000000031700000000003170000000000317000000000031837910000000000106965500000000033967729700000000000000009999123100000010000000000000BRHAPVACNOR4115
012024111402BPAC5       010BTGP BANCO  PNA     N2   R$  000000000087300000000008830000000000870000000000087600000000008700000000000858000000000087400038000000000000008100000000000007098000000000000000009999123100000010000000000000BRBPACACNPA0134
012024111402CRFB3       010CARREFOUR BRON      NM   R$  000000000066200000000006730000000000650000000000065700000000006610000000000660000000000066111939000000000019092400000000012554589500000000000000009999123100000010000000000000BRCRFBACNOR2116
012024111402CRPG5       010CRISTAL     PNA          R$  000000000244000000000024500000000002437000000000244700000000024500000000002441000000000249900008000000000000002000000000000004894300000000000000009999123100000010000000000000BRCRPGACNPA3119
012024111402EKTR4       010ELEKTRO     PN           R$  000000000454100000000045440000000004541000000000454200000000045440000000004238000000000454500003000000000000000500000000000002271100000000000000009999123100000010000000000000BREKTRACNPR7166
012024111402ELET3       010ELETROBRAS  ON      N1   R$  000000000354100000000035940000000003540000000000357600000000035680000000003567000000000356822843000000000008957900000000032034399700000000000000009999123100000010000000000000BRELETACNOR6160
012024111402ELET6       010ELETROBRAS  PNB     N1   R$  000000000402000000000040690000000004002000000000404700000000040580000000004051000000000405803969000000000001120500000000004534711200000000000000009999123100000010000000000000BRELETACNPB7077
012024111402GGPS3       010GPS         ON      NM   R$  000000000174100000000017930000000001737000000000177400000000017710000000001771000000000178408851000000000003093100000000005488471000000000000000009999123100000010000000000000BRGGPSACNOR9103
012024111402GMAT3       010GRUPO MATEUSON  EJS NM   R$  000000000073800000000007390000000000718000000000072600000000007240000000000724000000000072706527000000000004476500000000003253073200000000000000009999123100000010000000000000BRGMATACNOR7104
012024111402GOAU3       010GERDAU MET  ON      N1   R$  000000000105800000000010680000000001047000000000105500000000010510000000001051000000000105700204000000000000042900000000000045289900000000000000009999123100000010000000000000BRGOAUACNOR1268
012024111402GOAU4       010GERDAU MET  PN      N1   R$  000000000109800000000011150000000001090000000000110500000000011060000000001105000000000110613944000000000011933600000000013197655400000000000000009999123100000010000000000000BRGOAUACNPR8269
012024111402PCAR3       010P.ACUCAR-CBDON  ATZ NM   R$  000000000028700000000002890000000000278000000000028200000000002800000000000279000000000028007950000000000014396500000000004062527200000000000000009999123100000010000000000000BRPCARACNOR3168
012024111402PDGR3       010PDG REALT   ON      NM   R$  000000000000100000000000010000000000001000000000000100000000000010000000000000000000000000104246000000000041910000000000000041910000000000000000009999123100000010000000000000BRPDGRACNOR8119
012024111402PDTC3       010PADTEC      ON      NM   R$  000000000015300000000001590000000000151000000000015500000000001570000000000156000000000015700075000000000000056700000000000008826300000000000000009999123100000010000000000000BRPDTCACNOR3101
012024111402PEAB3       010PAR AL BAHIAON           R$  000000000431000000000043100000000004100000000000415200000000041010000000004100000000000420000005000000000000000800000000000003322100000000000000009999123100000010000000000000BRPEABACNOR3133
012024111402PETR3       010PETROBRAS   ON      N2   R$  000000000398200000000040670000000003982000000000404300000000040510000000004045000000000405712936000000000009511400000000038459874000000000000000009999123100000010000000000000BRPETRACNOR9206
012024111402PETR4       010PETROBRAS   PN      N2   R$  000000000369200000000037330000000003686000000000371500000000037270000000003725000000000372739661000000000030060900000000111694050600000000000000009999123100000010000000000000BRPETRACNPR6214
012024111402TASA3       010TAURUS ARMASON      N2   R$  000000000096300000000009700000000000945000000000095400000000009490000000000946000000000095000077000000000000012000000000000011453000000000000000009999123100000010000000000000BRTASAACNOR7104
012024111402TASA4       010TAURUS ARMASPN      N2   R$  000000000095600000000009560000000000926000000000093600000000009260000000000926000000000092701372000000000000347400000000000325182800000000000000009999123100000010000000000000BRTASAACNPR4104
012024111402TCSA3       010TECNISA     ON      NM   R$  000000000014000000000001400000000000135000000000013600000000001350000000000135000000000013600097000000000000060700000000000008263600000000000000009999123100000010000000000000BRTCSAACNOR3112
012024111402TECN3       010TECHNOS     ON      NM   R$  000000000054700000000005700000000000542000000000056000000000005600000000000558000000000056000270000000000000087700000000000049128700000000000000009999123100000010000000000000BRTECNACNOR6109
012024111402TELB3       010TELEBRAS    ON           R$  000000000123000000000012950000000001230000000000124000000000012950000000001220000000000128800002000000000000000600000000000000744500000000000000009999123100000010000000000000BRTELBACNOR2140
012024111402TELB4       010TELEBRAS    PN           R$  000000000076200000000007900000000000762000000000077600000000007900000000000782000000000079000011000000000000002300000000000001786300000000000000009999123100000010000000000000BRTELBACNPR9140
012024111402TEND3       010TENDA       ON      NM   R$  000000000171000000000017100000000001627000000000164700000000016270000000001627000000000162809566000000000002438600000000004017611200000000000000009999123100000010000000000000BRTENDACNOR4111
012024111402TFCO4       010TRACK FIELD PN      N2   R$  000000000094400000000009550000000000925000000000093300000000009300000000000930000000000093501947000000000001193000000000001113774100000000000000009999123100000010000000000000BRTFCOACNPR8115
012024111402TGMA3       010TEGMA       ON  EDJ NM   R$  000000000315000000000031640000000003132000000000314600000000031320000000003130000000000315201256000000000000217300000000000683741300000000000000009999123100000010000000000000BRTGMAACNOR7146
012024111402TIMS3       010TIM         ON      NM   R$  000000000163600000000016700000000001632000000000165500000000016480000000001646000000000164912512000000000006058400000000010028837600000000000000009999123100000010000000000000BRTIMSACNOR5118
012024111402CSAN3       010COSAN       ON      NM   R$  000000000114100000000011580000000001126000000000113400000000011300000000001129000000000113112742000000000014720400000000016694845100000000000000009999123100000010000000000000BRCSANACNOR6126
012024111402PRIO3       010PETRORIO    ON      NM   R$  000000000393500000000039990000000003917000000000397000000000039700000000003970000000000397920974000000000007728900000000030683763800000000000000009999123100000010000000000000BRPRIOACNOR1107
012024111402USIM3       010USIMINAS    ON      N1   R$  000000000059300000000006010000000000593000000000059700000000005950000000000595000000000059800647000000000000218100000000000130244600000000000000009999123100000010000000000000BRUSIMACNOR3167
012024111402USIM5       010USIMINAS    PNA     N1   R$  000000000060600000000006130000000000603000000000060800000000006100000000000609000000000061010648000000000011706100000000007117746200000000000000009999123100000010000000000000BRUSIMACNPA6169
012024111402RAIL3       010RUMO S.A.   ON      NM   R$  000000000200400000000020550000000001983000000000200900000000020110000000002009000000000201232071000000000014207100000000028550350000000000000000009999123100000010000000000000BRRAILACNOR9105
012024111402ATOM3       010ATOMPAR     ON           R$  000000000033700000000003950000000000327000000000035900000000003930000000000380000000000039300615000000000000195400000000000070259100000000000000009999123100000010000000000000BRATOMACNOR1106
012024111402AURE3       010AUREN       ON      NM   R$  000000000099600000000010060000000000993000000000099900000000009980000000000998000000000100108145000000000004343100000000004341007800000000000000009999123100000010000000000000BRAUREACNOR9104
012024111402QUAL3       010QUALICORP   ON      NM   R$  000000000022700000000002360000000000223000000000022900000000002270000000000227000000000022803181000000000003988700000000000916116800000000000000009999123100000010000000000000BRQUALACNOR6120
012024111402RADL3       010RAIADROGASILON      NM   R$  000000000255000000000025780000000002525000000000253700000000025430000000002543000000000254411529000000000004610800000000011699398800000000000000009999123100000010000000000000BRRADLACNOR0158
012024111402SCAR3       010SAO CARLOS  ON      NM   R$  000000000206700000000021040000000002021000000000206700000000020210000000002021000000000207000070000000000000029000000000000059952000000000000000009999123100000010000000000000BRSCARACNOR7131
012024111402SEER3       010SER EDUCA   ON      NM   R$  000000000068500000000006870000000000660000000000066800000000006600000000000660000000000066402880000000000000555700000000000371734900000000000000009999123100000010000000000000BRSEERACNOR5119
012024111402SHOW3       010TIME FOR FUNON      NM   R$  000000000008800000000000910000000000075000000000008000000000000840000000000084000000000008500641000000000000879700000000000071116700000000000000009999123100000010000000000000BRSHOWACNOR7105
012024111402UCAS3       010UNICASA     ON      NM   R$  000000000021600000000002160000000000211000000000021300000000002150000000000214000000000021500098000000000000046800000000000009973100000000000000009999123100000010000000000000BRUCASACNOR1113
012024111402UGPA3       010ULTRAPAR    ON      NM   R$  000000000205700000000020750000000001929000000000198400000000019290000000001928000000000192921306000000000009273000000000018398518700000000000000009999123100000010000000000000BRUGPAACNOR8156
012024111402HETA4       010HERCULES    PN           R$  000000000064800000000006480000000000648000000000064800000000006480000000000551000000000064500001000000000000000100000000000000064800000000000000009999123100000010000000000000BRHETAACNPR9136
012024111402MRFG3       010MARFRIG     ON      NM   R$  000000000170000000000017290000000001625000000000168300000000016900000000001688000000000169142038000000000032855700000000055325120500000000000000009999123100000010000000000000BRMRFGACNOR0116
012024111402BRAV3       010BRAVA       ON      NM   R$  000000000158500000000016800000000001526000000000162300000000016650000000001664000000000166520648000000000010024300000000016272583600000000000000009999123100000010000000000000BRBRAVACNOR3100
012024111402CSED3       010CRUZEIRO EDUON      NM   R$  000000000032100000000003360000000000321000000000032900000000003300000000000326000000000033001257000000000000804400000000000264749600000000000000009999123100000010000000000000BRCSEDACNOR9105
012024111402CSMG3       010COPASA      ON      NM   R$  000000000235900000000024950000000002342000000000242800000000024640000000002461000000000246420019000000000006579400000000015978181100000000000000009999123100000010000000000000BRCSMGACNOR5175
012024111402CSNA3       010SID NACIONALON           R$  000000000105300000000010980000000001053000000000107500000000010640000000001064000000000107013380000000000009441900000000010158999900000000000000009999123100000010000000000000BRCSNAACNOR6261
012024111402HBOR3       010HELBOR      ON      NM   R$  000000000018200000000001830000000000180000000000018000000000001800000000000180000000000018100282000000000000212900000000000038521700000000000000009999123100000010000000000000BRHBORACNOR3118
012024111402HBRE3       010HBR REALTY  ON      NM   R$  000000000042600000000004290000000000418000000000042200000000004260000000000423000000000042601686000000000000738000000000000311968600000000000000009999123100000010000000000000BRHBREACNOR4100
012024111402HBSA3       010HIDROVIAS   ON      NM   R$  000000000032000000000003240000000000319000000000032100000000003200000000000320000000000032302035000000000001049500000000000337010500000000000000009999123100000010000000000000BRHBSAACNOR0101
012024111402AVLL3       010ALPHAVILLE  ON      NM   R$  000000000028300000000002830000000000283000000000028300000000002830000000000271000000000028400001000000000000002400000000000000679200000000000000009999123100000010000000000000BRAVLLACNOR5103
012024111402AZEV3       010AZEVEDO     ON           R$  000000000011800000000001180000000000112000000000011500000000001160000000000115000000000011600210000000000000314900000000000036316700000000000000009999123100000010000000000000BRAZEVACNOR0121
012024111402AZEV4       010AZEVEDO     PN           R$  000000000011700000000001170000000000113000000000011500000000001150000000000115000000000011600774000000000002074200000000000238817900000000000000009999123100000010000000000000BRAZEVACNPR7121
012024111402AZUL4       010AZUL        PN      N2   R$  000000000051400000000005530000000000510000000000053700000000005330000000000533000000000053411998000000000022185900000000011918483600000000000000009999123100000010000000000000BRAZULACNPR4103
012024111402BIOM3       010BIOMM       ON      MA   R$  000000000098800000000010030000000000925000000000094800000000009250000000000919000000000094300489000000000000209600000000000198758500000000000000009999123100000010000000000000BRBIOMACNOR2112
012024111402BPAN4       010BANCO PAN   PN      N1   R$  000000000076100000000007720000000000760000000000076300000000007640000000000762000000000076403894000000000001506100000000001149449200000000000000009999123100000010000000000000BRBPANACNPR1115
012024111402BRAP3       010BRADESPAR   ON  EJ  N1   R$  000000000166600000000016730000000001651000000000166100000000016660000000001661000000000167100481000000000000082400000000000136880700000000000000009999123100000010000000000000BRBRAPACNOR5149
012024111402BRAP4       010BRADESPAR   PN  EJ  N1   R$  000000000176100000000017760000000001754000000000176300000000017620000000001762000000000176413051000000000007233000000000012753198600000000000000009999123100000010000000000000BRBRAPACNPR2149
012024111402BRSR3       010BANRISUL    ON      N1   R$  000000000118000000000011970000000001165000000000118000000000011800000000001173000000000122000038000000000000005000000000000005900400000000000000009999123100000010000000000000BRBRSRACNOR3189
012024111402BRSR5       010BANRISUL    PNA     N1   R$  000000000179200000000017940000000001792000000000179300000000017940000000001500000000000179200003000000000000000300000000000000537900000000000000009999123100000010000000000000BRBRSRACNPA6193
012024111402BRSR6       010BANRISUL    PNB     N1   R$  000000000109000000000010900000000001054000000000107000000000010600000000001060000000000106405134000000000002481800000000002656615600000000000000009999123100000010000000000000BRBRSRACNPB4192
012024111402TKNO4       010TEKNO       PN           R$  000000000830000000000083000000000008300000000000830000000000083000000000008000000000000920000001000000000000000200000000000001660000000000000000009999123100000010000000000000BRTKNOACNPR5076
012024111402TOTS3       010TOTVS       ON      NM   R$  000000000297200000000030660000000002971000000000300800000000030000000000002999000000000300017166000000000004420800000000013301075200000000000000009999123100000010000000000000BRTOTSACNOR8145
012024111402BPAC11      010BTGP BANCO  UNT     N2   R$  000000000335500000000034310000000003355000000000341200000000034150000000003413000000000341520123000000000006627800000000022616659200000000000000009999123100000010000000000000BRBPACUNT006119
012024111402TRIS3       010TRISUL      ON      NM   R$  000000000056100000000005700000000000554000000000056300000000005600000000000560000000000056501090000000000000546900000000000307997300000000000000009999123100000010000000000000BRTRISACNOR4118
012024111402TRPL3       010TRAN PAULISTON      N1   R$  000000000313500000000031350000000003071000000000307900000000030750000000003058000000000307500009000000000000001300000000000004003000000000000000009999123100000010000000000000BRTRPLACNOR4185
012024111402TRPL4       010TRAN PAULISTPN      N1   R$  000000000241500000000024470000000002410000000000242800000000024200000000002420000000000242607929000000000001939200000000004709986100000000000000009999123100000010000000000000BRTRPLACNPR1185
012024111402TTEN3       0103TENTOS     ON      NM   R$  000000000138100000000014680000000001379000000000144600000000014380000000001437000000000143912010000000000003027100000000004377980800000000000000009999123100000010000000000000BRTTENACNOR0103
012024111402TUPY3       010TUPY        ON      NM   R$  000000000230400000000023140000000002197000000000224100000000022310000000002231000000000224012181000000000002629800000000005895943500000000000000009999123100000010000000000000BRTUPYACNOR1184
012024111402PRNR3       010PRINER      ON      NM   R$  000000000147500000000015550000000001470000000000150300000000015270000000001511000000000152702943000000000001211700000000001822292300000000000000009999123100000010000000000000BRPRNRACNOR4109
012024111402PSSA3       010PORTO SEGUROON      NM   R$  000000000387700000000038800000000003811000000000384400000000038580000000003847000000000386008428000000000001430000000000005497316400000000000000009999123100000010000000000000BRPSSAACNOR7156
012024111402ANIM3       010ANIMA       ON      NM   R$  000000000023300000000002390000000000230000000000023300000000002320000000000231000000000023204791000000000006476000000000001511291000000000000000009999123100000010000000000000BRANIMACNOR6109
012024111402ARML3       010ARMAC       ON      NM   R$  000000000076100000000008050000000000751000000000079400000000007950000000000792000000000079505387000000000001175500000000000934373400000000000000009999123100000010000000000000BRARMLACNOR1113
012024111402ASAI3       010ASSAI       ON      NM   R$  000000000070100000000007170000000000694000000000070400000000007060000000000706000000000070719918000000000020675000000000014571298900000000000000009999123100000010000000000000BRASAIACNOR0106
012024111402BEES3       010BANESTES    ON           R$  000000000084200000000008450000000000841000000000084200000000008450000000000843000000000084500040000000000000006800000000000005729100000000000000009999123100000010000000000000BRBEESACNOR9397
012024111402BEES4       010BANESTES    PN           R$  000000000085500000000008660000000000855000000000085900000000008580000000000855000000000086400011000000000000001500000000000001289300000000000000009999123100000010000000000000BRBEESACNPR6322
012024111402BGIP3       010BANESE      ON           R$  000000000253700000000026000000000002537000000000255300000000026000000000002465000000000270000004000000000000001100000000000002808700000000000000009999123100000010000000000000BRBGIPACNOR1210
012024111402BGIP4       010BANESE      PN           R$  000000000235000000000024000000000002321000000000234400000000023250000000002324000000000240000020000000000000003200000000000007503500000000000000009999123100000010000000000000BRBGIPACNPR8210
012024111402BHIA3       010CASAS BAHIA ON      NM   R$  000000000040000000000004050000000000381000000000039200000000003810000000000381000000000038405808000000000005564500000000002182030400000000000000009999123100000010000000000000BRBHIAACNOR1102
012024111402BRIT3       010BRISANET    ON      NM   R$  000000000032300000000003540000000000321000000000033600000000003300000000000330000000000033101461000000000000675600000000000227235700000000000000009999123100000010000000000000BRBRITACNOR0103
012024111402BRKM3       010BRASKEM     ON      N1   R$  000000000152800000000015530000000001520000000000153000000000015200000000001520000000000153500108000000000000021600000000000033051000000000000000009999123100000010000000000000BRBRKMACNOR1119
012024111402BRKM5       010BRASKEM     PNA     N1   R$  000000000152500000000015480000000001500000000000151700000000015000000000001500000000000150608787000000000002671300000000004053306100000000000000009999123100000010000000000000BRBRKMACNPA4121
012024111402BRKM6       010BRASKEM     PNB     N1   R$  000000000110300000000011030000000001103000000000110300000000011030000000000920000000000128000001000000000000000100000000000000110300000000000000009999123100000010000000000000BRBRKMACNPB2114
012024111402ALPA3       010ALPARGATAS  ON      N1   R$  000000000061700000000006210000000000601000000000061300000000006010000000000601000000000061900038000000000000009900000000000006071500000000000000009999123100000010000000000000BRALPAACNOR0231
012024111402ALPA4       010ALPARGATAS  PN      N1   R$  000000000067500000000006830000000000670000000000067700000000006770000000000677000000000068004993000000000001682200000000001139560600000000000000009999123100000010000000000000BRALPAACNPR7232
012024111402ALPK3       010ESTAPAR     ON      NM   R$  000000000027700000000002860000000000275000000000028000000000002770000000000277000000000028200265000000000000095900000000000026868600000000000000009999123100000010000000000000BRALPKACNOR9101
012024111402ALUP11      010ALUPAR      UNT     N2   R$  000000000286700000000028960000000002864000000000288100000000028800000000002872000000000288004101000000000000647100000000001864322000000000000000009999123100000010000000000000BRALUPCDAM15120
012024111402ALUP3       010ALUPAR      ON      N2   R$  000000000098500000000009980000000000980000000000098600000000009850000000000980000000000099800047000000000000006300000000000006214500000000000000009999123100000010000000000000BRALUPACNOR8120
012024111402ALUP4       010ALUPAR      PN      N2   R$  000000000094100000000009550000000000938000000000094300000000009500000000000942000000000095000121000000000000019400000000000018310600000000000000009999123100000010000000000000BRALUPACNPR5120
012024111402AMAR3       010LOJAS MARISAON      NM   R$  000000000009400000000000950000000000089000000000009000000000000910000000000090000000000009100443000000000000566200000000000051383500000000000000009999123100000010000000000000BRAMARACNOR4115
012024111402AMBP3       010AMBIPAR     ON      NM   R$  000000001600000000000169700000000015712000000001654900000000168310000000016831000000001689501308000000000000217200000000003594571100000000000000009999123100000010000000000000BRAMBPACNOR6103
012024111402JALL3       010JALLESMACHADON      NM   R$  000000000052700000000005370000000000524000000000052900000000005270000000000527000000000052802266000000000000804200000000000425968900000000000000009999123100000010000000000000BRJALLACNOR0106
012024111402JBSS3       010JBS         ON      NM   R$  000000000368400000000037200000000003497000000000358300000000035200000000003519000000000352044018000000000021207900000000076003781500000000000000009999123100000010000000000000BRJBSSACNOR8122
012024111402EALT3       010ACO ALTONA  ON           R$  000000000155300000000015540000000001553000000000155300000000015540000000001520000000000155400006000000000000001100000000000001708900000000000000009999123100000010000000000000BREALTACNOR4138
012024111402EALT4       010ACO ALTONA  PN           R$  000000000145500000000014670000000001416000000000145200000000014490000000001441000000000145000091000000000000019100000000000027747600000000000000009999123100000010000000000000BREALTACNPR1138
012024111402ECOR3       010ECORODOVIAS ON      NM   R$  000000000067200000000006880000000000669000000000067300000000006720000000000672000000000067305728000000000002718500000000001830910700000000000000009999123100000010000000000000BRECORACNOR8120
012024111402DEXP3       010DEXXOS PAR  ON      N1   R$  000000000083400000000008420000000000802000000000081800000000008210000000000820000000000083000633000000000000133300000000000109081600000000000000009999123100000010000000000000BRDEXPACNOR1105
012024111402DEXP4       010DEXXOS PAR  PN      N1   R$  000000000080300000000008110000000000802000000000080500000000008110000000000796000000000081500017000000000000002300000000000001852200000000000000009999123100000010000000000000BRDEXPACNPR8105
012024111402DIRR3       010DIRECIONAL  ON      NM   R$  000000000305600000000030890000000003000000000000303500000000030000000000003000000000000301306933000000000001457000000000004422130800000000000000009999123100000010000000000000BRDIRRACNOR0119
012024111402DMVF3       010D1000VFARMA ON      NM   R$  000000000065600000000006740000000000655000000000066500000000006640000000000660000000000066500237000000000000053000000000000035250500000000000000009999123100000010000000000000BRDMVFACNOR9100
012024111402DOHL4       010DOHLER      PN           R$  000000000039900000000004000000000000387000000000039900000000004000000000000387000000000039900010000000000000003100000000000001237200000000000000009999123100000010000000000000BRDOHLACNPR9066
012024111402DOTZ3       010DOTZ SA     ON      NM   R$  000000000051600000000005350000000000506000000000051800000000005090000000000496000000000050900045000000000000009600000000000004981300000000000000009999123100000010000000000000BRDOTZACNOR7101
012024111402BPAC3       010BTGP BANCO  ON      N2   R$  000000000161500000000016700000000001605000000000164500000000016700000000001629000000000167000061000000000000008900000000000014645600000000000000009999123100000010000000000000BRBPACACNOR7134
012024111402CPFE3       010CPFL ENERGIAON      NM   R$  000000000324400000000032600000000003218000000000323700000000032360000000003235000000000324106810000000000001562500000000005059166400000000000000009999123100000010000000000000BRCPFEACNOR0137
012024111402CPLE3       010COPEL       ON      N2   R$  000000000083100000000008560000000000831000000000084900000000008540000000000852000000000085506436000000000007483000000000006355001000000000000000009999123100000010000000000000BRCPLEACNOR8150
012024111402CPLE5       010COPEL       PNA     N2   R$  000000000115000000000011500000000001140000000000114600000000011400000000001030000000000115000003000000000000000300000000000000344000000000000000009999123100000010000000000000BRCPLEACNPA1148
012024111402CPLE6       010COPEL       PNB     N2   R$  000000000093600000000009640000000000935000000000095600000000009590000000000958000000000095921790000000000018890900000000018072181800000000000000009999123100000010000000000000BRCPLEACNPB9147
012024111402DXCO3       010DEXCO       ON      NM   R$  000000000077600000000007810000000000764000000000077100000000007660000000000766000000000077004270000000000001142600000000000881862000000000000000009999123100000010000000000000BRDXCOACNOR8105
012024111402AERI3       010AERIS       ON      NM   R$  000000000055800000000005700000000000537000000000055200000000005490000000000541000000000054900690000000000000328300000000000181367200000000000000009999123100000010000000000000BRAERIACNOR4102
012024111402AFLT3       010AFLUENTE T  ON           R$  000000000072100000000007210000000000721000000000072100000000007210000000000701000000000076500002000000000000000500000000000000360500000000000000009999123100000010000000000000BRAFLTACNOR1122
012024111402AGRO3       010BRASILAGRO  ON      NM   R$  000000000236000000000024080000000002342000000000238900000000023920000000002392000000000239601517000000000000214500000000000512540200000000000000009999123100000010000000000000BRAGROACNOR7115
012024111402ALLD3       010ALLIED      ON      NM   R$  000000000083600000000008470000000000835000000000084000000000008420000000000842000000000084300231000000000000048200000000000040514400000000000000009999123100000010000000000000BRALLDACNOR3106
012024111402ALOS3       010ALLOS       ON      NM   R$  000000000216400000000022200000000002162000000000219600000000021950000000002193000000000220209301000000000003719900000000008171071000000000000000009999123100000010000000000000BRALOSACNOR5103
012024111402INEP3       010INEPAR      ON           R$  000000000014700000000001470000000000138000000000013900000000001380000000000138000000000014400040000000000000021500000000000003008800000000000000009999123100000010000000000000BRINEPACNOR1143
012024111402INEP4       010INEPAR      PN           R$  000000000013400000000001340000000000131000000000013200000000001310000000000131000000000013500025000000000000010100000000000001335100000000000000009999123100000010000000000000BRINEPACNPR8143
012024111402INTB3       010INTELBRAS   ON      NM   R$  000000000167100000000016750000000001634000000000165100000000016400000000001637000000000164006884000000000001360300000000002245900800000000000000009999123100000010000000000000BRINTBACNOR9112
012024111402GEPA4       010GER PARANAP PN           R$  000000000297500000000029750000000002975000000000297500000000029750000000002960000000000302100001000000000000000100000000000000297500000000000000009999123100000010000000000000BRGEPAACNPR9161
012024111402GFSA3       010GAFISA      ON      NM   R$  000000000014700000000001480000000000138000000000014100000000001400000000000139000000000014002134000000000006290100000000000890123000000000000000009999123100000010000000000000BRGFSAACNOR3125
012024111402GGBR3       010GERDAU      ON      N1   R$  000000000186700000000019260000000001867000000000190400000000019260000000001915000000000192600463000000000000074700000000000142265400000000000000009999123100000010000000000000BRGGBRACNOR1193
012024111402GGBR4       010GERDAU      PN      N1   R$  000000000197100000000020090000000001966000000000199400000000020030000000002000000000000200323561000000000013238700000000026399449700000000000000009999123100000010000000000000BRGGBRACNPR8193
012024111402PETZ3       010PETZ        ON  ED  NM   R$  000000000045900000000004590000000000430000000000044100000000004300000000000430000000000043109786000000000013174200000000005820441200000000000000009999123100000010000000000000BRPETZACNOR2111
012024111402IRBR3       010IRBBRASIL REON      NM   R$  000000000401800000000040790000000003960000000000400700000000040000000000004000000000000400407429000000000001734000000000006948483900000000000000009999123100000010000000000000BRIRBRACNOR4111
012024111402NEOE3       010NEOENERGIA  ON      NM   R$  000000000189900000000019280000000001879000000000191400000000019100000000001909000000000191202457000000000000501600000000000960468300000000000000009999123100000010000000000000BRNEOEACNOR3123
012024111402NGRD3       010NEOGRID     ON      NM   R$  000000000281000000000028800000000002746000000000281800000000027460000000002746000000000279000215000000000000031000000000000087371100000000000000009999123100000010000000000000BRNGRDACNOR3106
012024111402BEEF3       010MINERVA     ON      NM   R$  000000000055900000000005730000000000551000000000056400000000005710000000000569000000000057113083000000000012623100000000007125271600000000000000009999123100000010000000000000BRBEEFACNOR6117
012024111402COCE5       010COELCE      PNA          R$  000000000264200000000026770000000002640000000000265200000000026550000000002655000000000267800031000000000000003600000000000009547600000000000000009999123100000010000000000000BRCOCEACNPA3147
012024111402COGN3       010COGNA ON    ON      NM   R$  000000000014000000000001430000000000135000000000013700000000001350000000000135000000000013613164000000000044399200000000006123258900000000000000009999123100000010000000000000BRCOGNACNOR2105
012024111402NINJ3       010GETNINJAS   ON      NM   R$  000000000046900000000004690000000000451000000000046300000000004510000000000437000000000045100076000000000000017500000000000008106100000000000000009999123100000010000000000000BRNINJACNOR5101
012024111402NTCO3       010GRUPO NATURAON  ATZ NM   R$  000000000143500000000014640000000001427000000000144600000000014380000000001438000000000144520568000000000010331600000000014945805900000000000000009999123100000010000000000000BRNTCOACNOR5107
012024111402SYNE3       010SYN PROP TECON      NM   R$  000000000087000000000008720000000000832000000000084900000000008480000000000843000000000084801232000000000000471700000000000400508600000000000000009999123100000010000000000000BRSYNEACNOR2103
012024111402BAHI3       010BAHEMA      ON      MA   R$  000000000048000000000004840000000000470000000000047600000000004800000000000451000000000048000009000000000000002300000000000001097000000000000000009999123100000010000000000000BRBAHIACNOR1074
012024111402BALM4       010BAUMER      PN           R$  000000000100000000000010260000000001000000000000101700000000010260000000001000000000000104000005000000000000000600000000000000610400000000000000009999123100000010000000000000BRBALMACNPR2056
012024111402BAZA3       010AMAZONIA    ON           R$  000000000897100000000091990000000008950000000000901700000000089510000000008950000000000920000004000000000000000400000000000003607100000000000000009999123100000010000000000000BRBAZAACNOR0179
012024111402BBAS3       010BRASIL      ON      NM   R$  000000000257800000000025790000000002479000000000252300000000025370000000002536000000000253701477000000000080777700000000203878387100000000000000009999123100000010000000000000BRBBASACNOR3326
012024111402RCSL3       010RECRUSUL    ON           R$  000000000039900000000004040000000000392000000000039600000000003960000000000395000000000039601111000000000000976100000000000387310400000000000000009999123100000010000000000000BRRCSLACNOR4134
012024111402RCSL4       010RECRUSUL    PN           R$  000000000017400000000001810000000000162000000000017200000000001640000000000164000000000016507108000000000008582400000000001476519100000000000000009999123100000010000000000000BRRCSLACNPR1134
012024111402RDNI3       010RNI         ON      NM   R$  000000000027300000000002780000000000273000000000027700000000002780000000000275000000000030200003000000000000007600000000000002112300000000000000009999123100000010000000000000BRRDNIACNOR9116
012024111402RDOR3       010REDE D OR   ON      NM   R$  000000000296300000000030290000000002890000000000296700000000029500000000002950000000000296626977000000000007092900000000021044989800000000000000009999123100000010000000000000BRRDORACNOR8114
012024111402AZZA3       010AZZAS 2154  ON      NM   R$  000000000410000000000044380000000004090000000000427700000000042110000000004211000000000421910265000000000003218900000000013768494300000000000000009999123100000010000000000000BRAZZAACNOR9100
012024111402CCRO3       010CCR SA      ON  ED  NM   R$  000000000117700000000012050000000001177000000000119100000000011910000000001191000000000119208144000000000007506200000000008940889700000000000000009999123100000010000000000000BRCCROACNOR2146
012024111402CEAB3       010CEA MODAS   ON      NM   R$  000000000115200000000012000000000001135000000000115800000000011550000000001155000000000115627053000000000063207000000000073224502800000000000000009999123100000010000000000000BRCEABACNOR1102
012024111402CEBR3       010CEB         ON           R$  000000000187700000000018770000000001840000000000185500000000018400000000001830000000000189900023000000000000004000000000000007423200000000000000009999123100000010000000000000BRCEBRACNOR5125
012024111402CEBR5       010CEB         PNA          R$  000000000166300000000016980000000001660000000000168600000000016850000000001661000000000168500011000000000000002700000000000004552300000000000000009999123100000010000000000000BRCEBRACNPA8124
012024111402CEBR6       010CEB         PNB          R$  000000000182500000000018250000000001810000000000181500000000018130000000001812000000000181900020000000000000003600000000000006537400000000000000009999123100000010000000000000BRCEBRACNPB6124
012024111402TAEE11      010TAESA       UNT EDJ N2   R$  000000000340800000000034220000000003372000000000339700000000033720000000003371000000000337208833000000000002327000000000007906057600000000000000009999123100000010000000000000BRTAEECDAM10149
012024111402TAEE3       010TAESA       ON  EDJ N2   R$  000000000113000000000011410000000001128000000000113400000000011290000000001129000000000113500399000000000000068400000000000077601700000000000000009999123100000010000000000000BRTAEEACNOR9149
012024111402TAEE4       010TAESA       PN  EDJ N2   R$  000000000113700000000011440000000001132000000000113800000000011330000000001133000000000113800548000000000000136100000000000154904000000000000000009999123100000010000000000000BRTAEEACNPR6149
012024111402WLMM4       010WLM IND COM PN  EJ       R$  000000000292500000000029800000000002925000000000293400000000029800000000002921000000000298500003000000000000001200000000000003521000000000000000009999123100000010000000000000BRWLMMACNPR3120
012024111402YDUQ3       010YDUQS PART  ON      NM   R$  000000000104200000000010490000000001014000000000102600000000010240000000001020000000000102406302000000000002153400000000002210334900000000000000009999123100000010000000000000BRYDUQACNOR3105
012024111402ZAMP3       010ZAMP S.A.   ON           R$  000000000027800000000002890000000000270000000000028000000000002800000000000271000000000028002232000000000000714000000000000200074300000000000000009999123100000010000000000000BRZAMPACNOR5101
012024111402CMIN3       010CSNMINERACAOON      N2   R$  000000000052000000000005420000000000520000000000053200000000005280000000000528000000000053207260000000000009444100000000005026878100000000000000009999123100000010000000000000BRCMINACNOR2112
012024111402ESPA3       010ESPACOLASER ON      NM   R$  000000000009800000000000980000000000094000000000009600000000000960000000000095000000000009600117000000000000306300000000000029434400000000000000009999123100000010000000000000BRESPAACNOR7103
012024111402WEGE3       010WEG         ON      NM   R$  000000000546500000000054790000000005390000000000542600000000054350000000005435000000000543625699000000000006069100000000032931811200000000000000009999123100000010000000000000BRWEGEACNOR0225
012024111402RANI3       010IRANI       ON  ED  NM   R$  000000000070600000000007090000000000688000000000069600000000006880000000000688000000000069002428000000000000777100000000000541182200000000000000009999123100000010000000000000BRRANIACNOR5074
012024111402BBDC3       010BRADESCO    ON      N1   R$  000000000119800000000012160000000001190000000000120300000000012020000000001202000000000120605724000000000004795800000000005773512000000000000000009999123100000010000000000000BRBBDCACNOR1777
012024111402BBDC4       010BRADESCO    PN      N1   R$  000000000134900000000013710000000001335000000000135300000000013530000000001353000000000135529676000000000038851800000000052579089300000000000000009999123100000010000000000000BRBBDCACNPR8777
012024111402CSUD3       010CSU DIGITAL ON      NM   R$  000000000156700000000015900000000001538000000000156700000000015900000000001582000000000159300127000000000000020900000000000032752400000000000000009999123100000010000000000000BRCSUDACNOR5111
012024111402CTKA3       010KARSTEN     ON           R$  000000000180000000000019900000000001800000000000195000000000019900000000001100000000000194000006000000000000001200000000000002341000000000000000009999123100000010000000000000BRCTKAACNOR0043
012024111402CAMB3       010CAMBUCI     ON  EDJ      R$  000000000113200000000011590000000001115000000000113700000000011590000000001129000000000115900489000000000000065500000000000074487400000000000000009999123100000010000000000000BRCAMBACNOR4132
012024111402CAML3       010CAMIL       ON      NM   R$  000000000078400000000007940000000000773000000000078000000000007730000000000773000000000077902301000000000000427700000000000333709700000000000000009999123100000010000000000000BRCAMLACNOR3129
012024111402CASH3       010MELIUZ      ON      NM   R$  000000000033600000000003430000000000330000000000033500000000003340000000000330000000000033401133000000000000640800000000000215165100000000000000009999123100000010000000000000BRCASHACNOR8107
012024111402CBAV3       010CBA         ON      NM   R$  000000000051400000000005160000000000492000000000050200000000004920000000000492000000000049508144000000000003419400000000001717706700000000000000009999123100000010000000000000BRCBAVACNOR5104
012024111402CBEE3       010AMPLA ENERG ON           R$  000000000114300000000011430000000001143000000000114300000000011430000000001110000000000129900001000000000000000100000000000000114300000000000000009999123100000010000000000000BRCBEEACNOR3160
012024111402ELMD3       010ELETROMIDIA ON      NM   R$  000000000278500000000027850000000002711000000000274300000000027510000000002751000000000277400680000000000000193300000000000530241900000000000000009999123100000010000000000000BRELMDACNOR3101
012024111402EMBR3       010EMBRAER     ON      NM   R$  000000000567000000000057100000000005495000000000556800000000055420000000005540000000000554324790000000000005821900000000032419730700000000000000009999123100000010000000000000BREMBRACNOR4191
012024111402JSLG3       010JSL         ON      NM   R$  000000000071200000000007200000000000698000000000070800000000006980000000000697000000000070301689000000000000458400000000000324754800000000000000009999123100000010000000000000BRJSLGACNOR2121
012024111402KEPL3       010KEPLER WEBERON  EDJ NM   R$  000000000103200000000010550000000001032000000000104300000000010390000000001034000000000104002830000000000000902300000000000941560900000000000000009999123100000010000000000000BRKEPLACNOR1065
012024111402LJQQ3       010QUERO-QUERO ON      NM   R$  000000000028300000000002900000000000277000000000028200000000002770000000000277000000000027903439000000000004025800000000001138272200000000000000009999123100000010000000000000BRLJQQACNOR5104
012024111402LOGG3       010LOG COM PROPON      NM   R$  000000000220200000000022140000000002130000000000218500000000022140000000002190000000000221403417000000000000586200000000001281246100000000000000009999123100000010000000000000BRLOGGACNOR7107
012024111402LOGN3       010LOG-IN      ON      NM   R$  000000000238000000000024390000000002360000000000239300000000023610000000002361000000000237800237000000000000065500000000000156747200000000000000009999123100000010000000000000BRLOGNACNOR3105
012024111402LPSB3       010LOPES BRASILON      NM   R$  000000000015700000000001660000000000157000000000016200000000001640000000000164000000000016500478000000000000116300000000000018926200000000000000009999123100000010000000000000BRLPSBACNOR0114
012024111402LREN3       010LOJAS RENNERON      NM   R$  000000000166300000000016790000000001632000000000164400000000016490000000001644000000000164922063000000000018787500000000030888077600000000000000009999123100000010000000000000BRLRENACNOR1222
012024111402VALE3       010VALE        ON      NM   R$  000000000571600000000057340000000005684000000000570200000000056840000000005684000000000568628219000000000017927700000000102241277300000000000000009999123100000010000000000000BRVALEACNOR0211
012024111402RAIZ4       010RAIZEN      PN      N2   R$  000000000024800000000002490000000000242000000000024500000000002420000000000242000000000024311657000000000022251800000000005466252600000000000000009999123100000010000000000000BRRAIZACNPR6111
012024111402HYPE3       010HYPERA      ON      NM   R$  000000000206000000000021390000000002049000000000207500000000020600000000002060000000000206316850000000000007399100000000015354832800000000000000009999123100000010000000000000BRHYPEACNOR0144
012024111402MRSA3B      010MRS LOGIST  ON      MB   R$  000000000280000000000028000000000002800000000000280000000000028000000000002801000000000000000005000000000000001800000000000005040000000000000000009999123100000010000000000000BRMRSAACNOR6125
012024111402MRSA5B      010MRS LOGIST  PNA     MB   R$  000000000270100000000029000000000002701000000000272500000000029000000000002550000000000290000003000000000000000800000000000002180700000000000000009999123100000010000000000000BRMRSAACNPA9125
012024111402MRVE3       010MRV         ON      NM   R$  000000000068000000000006820000000000627000000000064200000000006440000000000643000000000064433907000000000041231100000000026490618500000000000000009999123100000010000000000000BRMRVEACNOR2127
012024111402SMFT3       010SMART FIT   ON      NM   R$  000000000199700000000020410000000001977000000000198900000000019790000000001979000000000198308414000000000003600200000000007163928200000000000000009999123100000010000000000000BRSMFTACNOR1112
012024111402VBBR3       010VIBRA       ON      NM   R$  000000000221800000000022600000000002204000000000222000000000022210000000002208000000000222124438000000000009742400000000021628460000000000000000009999123100000010000000000000BRVBBRACNOR1109
012024111402VITT3       010VITTIA      ON      NM   R$  000000000053600000000005860000000000530000000000057000000000005840000000000584000000000058500943000000000000248800000000000142056700000000000000009999123100000010000000000000BRVITTACNOR4108
012024111402VIVA3       010VIVARA S.A. ON      NM   R$  000000000241900000000024450000000002391000000000240500000000024000000000002400000000000240711543000000000003195000000000007686653700000000000000009999123100000010000000000000BRVIVAACNOR0107
012024111402VIVR3       010VIVER       ON      NM   R$  000000000013400000000001340000000000129000000000013000000000001310000000000131000000000013200091000000000000079000000000000010348800000000000000009999123100000010000000000000BRVIVRACNOR4123
012024111402VIVT3       010TELEF BRASILON           R$  000000000520600000000052390000000005160000000000519000000000051600000000005158000000000516010039000000000001686500000000008753049400000000000000009999123100000010000000000000BRVIVTACNOR0184
012024111402VLID3       010VALID       ON  EJ  NM   R$  000000000251200000000025120000000002421000000000244800000000024510000000002451000000000245203303000000000000478100000000001170447700000000000000009999123100000010000000000000BRVLIDACNOR5145
012024111402VSTE3       010VESTE       ON      NM   R$  000000000100000000000010150000000000950000000000098600000000009500000000000950000000000100000123000000000000034700000000000034247800000000000000009999123100000010000000000000BRVSTEACNOR5103
012024111402VTRU3       010VITRUEDUCA  ON      NM   R$  000000000082500000000008380000000000800000000000081400000000008000000000000800000000000080500517000000000000108500000000000088419900000000000000009999123100000010000000000000BRVTRUACNOR3100
012024111402AALR3       010ALLIAR      ON      NM   R$  000000000148500000000015100000000001411000000000144300000000014200000000001420000000000145500104000000000000015500000000000022369400000000000000009999123100000010000000000000BRAALRACNOR6102
012024111402ABCB4       010ABC BRASIL  PN      N2   R$  000000000206300000000020860000000002047000000000207200000000020720000000002072000000000208102216000000000000458900000000000951060200000000000000009999123100000010000000000000BRABCBACNPR4146
012024111402ABEV3       010AMBEV S/A   ON           R$  000000000126900000000012900000000001261000000000126900000000012640000000001264000000000126747998000000000038009600000000048268432000000000000000009999123100000010000000000000BRABEVACNOR1128
012024111402CYRE3       010CYRELA REALTON      NM   R$  000000000220000000000022240000000002113000000000213900000000021200000000002119000000000212117927000000000007562600000000016183060300000000000000009999123100000010000000000000BRCYREACNOR7140
012024111402FIQE3       010UNIFIQUE    ON      NM   R$  000000000038500000000003850000000000375000000000037900000000003800000000000380000000000038100606000000000000267300000000000101521700000000000000009999123100000010000000000000BRFIQEACNOR5107
012024111402FLRY3       010FLEURY      ON      NM   R$  000000000138900000000014060000000001368000000000138200000000013770000000001369000000000137708795000000000002588700000000003578160100000000000000009999123100000010000000000000BRFLRYACNOR5139
012024111402FRAS3       010FRAS-LE     ON      N1   R$  000000000207800000000021100000000002068000000000208000000000020730000000002073000000000208100723000000000000206600000000000429743400000000000000009999123100000010000000000000BRFRASACNOR0160
012024111402FRIO3       010METALFRIO   ON      NM   R$  000000001500000000000160000000000015000000000001557400000000160000000000015001000000001550000030000000000000004800000000000074758600000000000000009999123100000010000000000000BRFRIOACNOR2111
012024111402MELK3       010MELNICK     ON      NM   R$  000000000036500000000003790000000000365000000000037200000000003700000000000370000000000037300692000000000000619000000000000230778100000000000000009999123100000010000000000000BRMELKACNOR8111
012024111402MGEL4       010MANGELS INDLPN           R$  000000000075000000000007500000000000750000000000075000000000007500000000000735000000000076900001000000000000000100000000000000075000000000000000009999123100000010000000000000BRMGELACNPR3147
012024111402MGLU3       010MAGAZ LUIZA ON      NM   R$  000000000092600000000009550000000000898000000000092300000000009000000000000899000000000090122559000000000035624900000000032905321600000000000000009999123100000010000000000000BRMGLUACNOR2125
012024111402IFCM3       010INFRACOMM   ON      NM   R$  000000000001200000000000130000000000011000000000001200000000000120000000000012000000000001300523000000000008120000000000000097732600000000000000009999123100000010000000000000BRIFCMACNOR8102
012024111402IGTI11      010IGUATEMI S.AUNT     N1   R$  000000000201400000000020490000000002006000000000202400000000020150000000002015000000000202604963000000000001175800000000002380098900000000000000009999123100000010000000000000BRIGTICDAM16106
012024111402IGTI3       010IGUATEMI S.AON      N1   R$  000000000023400000000002420000000000234000000000023900000000002410000000000236000000000024100140000000000000072200000000000017288700000000000000009999123100000010000000000000BRIGTIACNOR8106
012024111402IGTI4       010IGUATEMI S.APN      N1   R$  000000000088300000000008830000000000883000000000088300000000008830000000000860000000000105000001000000000000000200000000000000176600000000000000009999123100000010000000000000BRIGTIACNPR5106
012024111402LUPA3       010LUPATECH    ON      NM   R$  000000000013200000000001380000000000131000000000013300000000001340000000000132000000000013400232000000000000336500000000000044859200000000000000009999123100000010000000000000BRLUPAACNOR8112
012024111402LVTC3       010WDC NETWORKSON      NM   R$  000000000034700000000003530000000000336000000000034100000000003400000000000340000000000034700098000000000000102700000000000035112100000000000000009999123100000010000000000000BRLVTCACNOR4102
012024111402LWSA3       010LWSA        ON  ED  NM   R$  000000000042700000000004360000000000417000000000042300000000004200000000000417000000000042107721000000000004763000000000002017664400000000000000009999123100000010000000000000BRLWSAACNOR8104
012024111402B3SA3       010B3          ON      NM   R$  000000000101900000000010320000000001008000000000102400000000010270000000001026000000000102740563000000000086410000000000088495960100000000000000009999123100000010000000000000BRB3SAACNOR6134
012024111402CURY3       010CURY S/A    ON      NM   R$  000000000230400000000023100000000002242000000000226600000000022660000000002266000000000227306443000000000001463000000000003316457600000000000000009999123100000010000000000000BRCURYACNOR3110
012024111402CVCB3       010CVC BRASIL  ON      NM   R$  000000000021700000000002350000000000217000000000022700000000002300000000000229000000000023011644000000000057910400000000013175841900000000000000009999123100000010000000000000BRCVCBACNOR1116
012024111402CXSE3       010CAIXA SEGURION  ED  NM   R$  000000000142000000000014270000000001408000000000141400000000014080000000001408000000000141008781000000000002474300000000003499207800000000000000009999123100000010000000000000BRCXSEACNOR7108
012024111402FESA3       010FERBASA     ON      N1   R$  000000000125900000000012590000000001259000000000125900000000012590000000001165000000000125800001000000000000000100000000000000125900000000000000009999123100000010000000000000BRFESAACNOR8189
012024111402FESA4       010FERBASA     PN      N1   R$  000000000078000000000007830000000000757000000000076700000000007570000000000757000000000075801216000000000000440400000000000337915400000000000000009999123100000010000000000000BRFESAACNPR5085
012024111402FHER3       010FER HERINGERON      NM   R$  000000000035900000000003600000000000355000000000035700000000003560000000000356000000000036000014000000000000002900000000000001038000000000000000009999123100000010000000000000BRFHERACNOR5103
012024111402MATD3       010MATER DEI   ON      NM   R$  000000000044100000000004500000000000424000000000043500000000004300000000000428000000000043001847000000000002891300000000001259097600000000000000009999123100000010000000000000BRMATDACNOR4104
012024111402MBLY3       010MOBLY       ON      NM   R$  000000000020900000000002100000000000201000000000020500000000002090000000000201000000000020900207000000000000180100000000000037090000000000000000009999123100000010000000000000BRMBLYACNOR5101
012024111402MDIA3       010M.DIASBRANCOON      NM   R$  000000000242200000000025660000000002419000000000253000000000025400000000002540000000000254105733000000000001369300000000003464754500000000000000009999123100000010000000000000BRMDIAACNOR7136
012024111402MDNE3       010MOURA DUBEUXON  ED  NM   R$  000000000143000000000014690000000001430000000000145800000000014660000000001465000000000146703487000000000000605400000000000882770100000000000000009999123100000010000000000000BRMDNEACNOR9101
012024111402MEAL3       010IMC S/A     ON      NM   R$  000000000012400000000001350000000000124000000000012700000000001270000000000127000000000013200446000000000000768800000000000097999000000000000000009999123100000010000000000000BRMEALACNOR9105
012024111402WEST3       010WESTWING    ON      NM   R$  000000000007200000000000730000000000069000000000007000000000000700000000000069000000000007000048000000000000096300000000000006795100000000000000009999123100000010000000000000BRWESTACNOR3100
012024111402WHRL3       010WHIRLPOOL   ON           R$  000000000041500000000004150000000000407000000000041000000000004070000000000406000000000040700008000000000000001200000000000000492500000000000000009999123100000010000000000000BRWHRLACNOR5129
012024111402WHRL4       010WHIRLPOOL   PN           R$  000000000042100000000004280000000000421000000000042500000000004270000000000425000000000042700028000000000000010800000000000004594800000000000000009999123100000010000000000000BRWHRLACNPR2129
012024111402WIZC3       010WIZ CO      ON      NM   R$  000000000057700000000005850000000000571000000000057900000000005790000000000579000000000058201210000000000000406300000000000235642800000000000000009999123100000010000000000000BRWIZCACNOR5102
012024111402BMEB3       010MERCANTIL   ON      N1   R$  000000000360000000000036000000000003600000000000360000000000036000000000002800000000000355000001000000000000000100000000000000360000000000000000009999123100000010000000000000BRBMEBACNOR8206
012024111402BMEB4       010MERCANTIL   PN      N1   R$  000000000388800000000038880000000003698000000000375100000000037370000000003733000000000384800146000000000000020400000000000076526200000000000000009999123100000010000000000000BRBMEBACNPR5211
012024111402BMGB4       010BANCO BMG   PN      N1   R$  000000000039900000000004020000000000395000000000039900000000004000000000000400000000000040200808000000000000552000000000000220548200000000000000009999123100000010000000000000BRBMGBACNPR0111
012024111402BMKS3       010BIC MONARK  ON           R$  000000003080000000000308000000000030756000000003078300000000307600000000030700000000003080000018000000000000000219000000000006741526000000000000009999123100000010000000000000BRBMKSACNOR9166
012024111402BMOB3       010BEMOBI TECH ON      NM   R$  000000000142800000000014410000000001410000000000142300000000014250000000001415000000000142500775000000000000117800000000000167640100000000000000009999123100000010000000000000BRBMOBACNOR7103
012024111402BOBR4       010BOMBRIL     PN           R$  000000000027300000000002770000000000242000000000025000000000002470000000000247000000000025000364000000000000219900000000000055107800000000000000009999123100000010000000000000BRBOBRACNPR3128
012024111402BSLI3       010BRB BANCO   ON  ES       R$  000000000085100000000008510000000000850000000000085000000000008500000000000850000000000087000002000000000000000400000000000000340200000000000000009999123100000010000000000000BRBSLIACNOR5195
012024111402BSLI4       010BRB BANCO   PN  ES       R$  000000000077700000000008380000000000777000000000082200000000008380000000000780000000000083800004000000000000000400000000000000329100000000000000009999123100000010000000000000BRBSLIACNPR2195
012024111402ITSA3       010ITAUSA      ON      N1   R$  000000000105400000000010540000000001043000000000104700000000010490000000001040000000000104900330000000000000097500000000000102106600000000000000009999123100000010000000000000BRITSAACNOR0443
012024111402ITSA4       010ITAUSA      PN      N1   R$  000000000104700000000010490000000001036000000000104200000000010420000000001039000000000104315951000000000017483900000000018224479400000000000000009999123100000010000000000000BRITSAACNPR7443
012024111402MTRE3       010MITRE REALTYON      NM   R$  000000000038300000000003900000000000372000000000038300000000003880000000000386000000000038801121000000000000984100000000000377851400000000000000009999123100000010000000000000BRMTREACNOR6116
012024111402MTSA4       010METISA      PN           R$  000000000345000000000034900000000003355000000000342200000000033550000000003215000000000348000018000000000000002100000000000007187900000000000000009999123100000010000000000000BRMTSAACNPR9073
012024111402RAPT3       010RANDON PART ON      N1   R$  000000000095700000000009570000000000930000000000093600000000009350000000000932000000000093500119000000000000027500000000000025741200000000000000009999123100000010000000000000BRRAPTACNOR7163
012024111402RAPT4       010RANDON PART PN      N1   R$  000000000107100000000010970000000001053000000000106900000000010530000000001052000000000106205288000000000001819200000000001944870500000000000000009999123100000010000000000000BRRAPTACNPR4163
012024111402CEDO4       010CEDRO       PN      N1   R$  000000000241000000000024100000000002410000000000241000000000024100000000002333000000000240900001000000000000000100000000000000241000000000000000009999123100000010000000000000BRCEDOACNPR5128
012024111402CEEB3       010COELBA      ON           R$  000000000375100000000038700000000003751000000000379600000000038170000000003801000000000381800021000000000000005200000000000019741300000000000000009999123100000010000000000000BRCEEBACNOR3200
012024111402ENEV3       010ENEVA       ON      NM   R$  000000000119000000000012240000000001190000000000120400000000012000000000001200000000000120219791000000000007761500000000009351589900000000000000009999123100000010000000000000BRENEVACNOR8106
012024111402LAND3       010TERRASANTAPAON      NM   R$  000000000116000000000011770000000001131000000000115600000000011350000000001135000000000115000136000000000000019000000000000021967600000000000000009999123100000010000000000000BRLANDACNOR9103
012024111402LAVV3       010LAVVI       ON      NM   R$  000000000090000000000009240000000000890000000000090800000000009170000000000917000000000091803665000000000001508600000000001371055000000000000000009999123100000010000000000000BRLAVVACNOR4113
012024111402LEVE3       010METAL LEVE  ON  EJ  NM   R$  000000000279500000000028040000000002747000000000277800000000027940000000002794000000000279802752000000000000522000000000001450131500000000000000009999123100000010000000000000BRLEVEACNOR2198
012024111402KLBN11      010KLABIN S/A  UNT EJ  N2   R$  000000000205600000000020720000000002049000000000205600000000020510000000002051000000000205413699000000000004793600000000009858434000000000000000009999123100000010000000000000BRKLBNCDAM18144
012024111402KLBN3       010KLABIN S/A  ON  EJ  N2   R$  000000000041000000000004170000000000410000000000041300000000004120000000000412000000000041300386000000000000147300000000000060964600000000000000009999123100000010000000000000BRKLBNACNOR2172
012024111402KLBN4       010KLABIN S/A  PN  EJ  N2   R$  000000000041100000000004140000000000409000000000041100000000004110000000000410000000000041101220000000000000916400000000000376965500000000000000009999123100000010000000000000BRKLBNACNPR9172
012024111402BLAU3       010BLAU        ON      NM   R$  000000000157400000000015740000000001492000000000152200000000014920000000001492000000000150701538000000000000237500000000000361542600000000000000009999123100000010000000000000BRBLAUACNOR8115
012024111407NUTR3       010NUTRIPLANT  ON      MA   R$  000000000033500000000003350000000000321000000000032700000000003300000000000333000000000033500017000000000000003200000000000001047800000000000000009999123100000010000000000000BRNUTRACNOR0104
012024111407SEQL3       010SEQUOIA LOG ON      NM   R$  000000000033800000000003400000000000316000000000032600000000003370000000000337000000000034001430000000000001088400000000000355851000000000000000009999123100000010000000000000BRSEQLACNOR2103
012024111407TXRX4       010TEX RENAUX  PN           R$  000000000022500000000002250000000000225000000000022500000000002250000000000216000000000022600001000000000000000100000000000000022500000000000000009999123100000010000000000000BRTXRXACNPR0142
012024111408JFEN3       010JOAO FORTES ON           R$  000000000002100000000000220000000000020000000000002000000000000210000000000021000000000002200163000000000000810100000000000016765300000000000000009999123100000010000000000000BRJFENACNOR0059
012024111408OIBR3       010OI          ON      N1   R$  000000000010200000000001170000000000100000000000010600000000001000000000000100000000000010104256000000000014511800000000001542987900000000000000009999123100000010000000000000BROIBRACNOR1112
012024111408OIBR4       010OI          PN      N1   R$  000000000092200000000009220000000000877000000000089000000000008950000000000882000000000089500066000000000000014500000000000012913600000000000000009999123100000010000000000000BROIBRACNPR8111
012024111408OSXB3       010OSX BRASIL  ON      NM   R$  000000000046700000000005000000000000450000000000046600000000004500000000000450000000000048800023000000000000003700000000000001724600000000000000009999123100000010000000000000BROSXBACNOR8109
012024111408RPMG3       010PET MANGUINHON           R$  000000000025100000000002520000000000249000000000025000000000002490000000000249000000000025000012000000000000003800000000000000951300000000000000009999123100000010000000000000BRRPMGACNOR9194
012024111408RSID3       010ROSSI RESID ON      NM   R$  000000000031900000000003200000000000314000000000031800000000003200000000000310000000000032000040000000000000013600000000000004331200000000000000009999123100000010000000000000BRRSIDACNOR8120
012024111408PMAM3       010PARANAPANEMAON      NM   R$  000000000010900000000001100000000000105000000000010700000000001080000000000107000000000010800093000000000000097300000000000010481000000000000000009999123100000010000000000000BRPMAMACNOR3040
012024111408TEKA4       010TEKA        PN           R$  000000000280000000000029000000000002800000000000281600000000029000000000001645000000000290000002000000000000000600000000000001690000000000000000009999123100000010000000000000BRTEKAACNPR3140
012024111408HOOT4       010HOTEIS OTHONPN           R$  000000000022900000000002700000000000229000000000025300000000002600000000000255000000000026000095000000000000028500000000000007219500000000000000009999123100000010000000000000BRHOOTACNPR9015
012024111408ATMP3       010ATMASA      ON           R$  000000000013000000000001340000000000129000000000013000000000001330000000000126000000000013300012000000000000005100000000000000664800000000000000009999123100000010000000000000BRATMPACNOR8100
012024111408AMER3       010AMERICANAS  ON      NM   R$  000000000039900000000009940000000000374000000000067000000000009410000000000941000000000094245625000000000056894400000000038137981400000000000000009999123100000010000000000000BRAMERACNOR6103
012024111408AGXY3       010AGROGALAXY  ON      NM   R$  000000000004300000000000430000000000040000000000004000000000000400000000000040000000000004100185000000000000214200000000000008732100000000000000009999123100000010000000000000BRAGXYACNOR4103
012024111408NEXP3       010NEXPE       ON           R$  000000000030100000000003970000000000301000000000032900000000003540000000000354000000000038400077000000000000020700000000000006816700000000000000009999123100000010000000000000BRNEXPACNOR0101
012024111408LIGT3       010LIGHT S/A   ON      NM   R$  000000000046700000000004690000000000416000000000043100000000004330000000000433000000000043506743000000000002751500000000001188335100000000000000009999123100000010000000000000BRLIGTACNOR2125
012024111408RNEW11      010RENOVA      UNT     N2   R$  000000000029500000000003000000000000294000000000029600000000002940000000000297000000000030900015000000000000002500000000000000740500000000000000009999123100000010000000000000BRRNEWCDAM15110
012024111408RNEW3       010RENOVA      ON      N2   R$  000000000010300000000001030000000000098000000000009900000000000990000000000099000000000010000099000000000000095500000000000009474600000000000000009999123100000010000000000000BRRNEWACNOR8110
012024111408RNEW4       010RENOVA      PN      N2   R$  000000000010100000000001010000000000097000000000009800000000000990000000000099000000000010000141000000000000117000000000000011562700000000000000009999123100000010000000000000BRRNEWACNPR5110
012024111408CTSA3       010SANTANENSE  ON           R$  000000000019200000000001920000000000192000000000019200000000001920000000000179000000000019500006000000000000001300000000000000249600000000000000009999123100000010000000000000BRCTSAACNOR3062
012024111408CTSA4       010SANTANENSE  PN           R$  000000000010800000000001080000000000108000000000010800000000001080000000000101000000000010900003000000000000000700000000000000075600000000000000009999123100000010000000000000BRCTSAACNPR0062
012024111410GMAT1       010GRUPO MATEUSDIR ORD NM   R$  000000000002000000000000250000000000013000000000001800000000000180000000000016000000000001800304000000000000114600000000000002097700000000000000009999123100000010000000000000BRGMATD01OR2103
012024111410BSLI1       010BRB BANCO   DIR ORD      R$  000000000005000000000000500000000000050000000000005000000000000500000000000005000000000004500001000000000000001000000000000000050000000000000000009999123100000010000000000000BRBSLID04OR4194
012024111410BSLI2       010BRB BANCO   DIR PRE      R$  000000000001200000000000130000000000012000000000001200000000000130000000000014000000000002000003000000000000001900000000000000023700000000000000009999123100000010000000000000BRBSLID03PR3194
012024111410HBSA1       010HIDROVIAS   DIR ORD NM   R$  000000000000100000000000010000000000001000000000000100000000000010000000000000000000000000100006000000000000004500000000000000004500000000000000009999123100000010000000000000BRHBSAD01OR5100
012024111410LIGT11      010LIGHT S/A   DIR     NM   R$  000000000000100000000000010000000000001000000000000100000000000010000000000000000000000000100305000000000000457800000000000000457800000000000000009999123100000010000000000000BRLIGTD01M16124
012024111410LIGT13      010LIGHT S/A   DIR     NM   R$  000000000000100000000000010000000000001000000000000100000000000010000000000000000000000000100002000000000000000200000000000000000200000000000000009999123100000010000000000000BRLIGTD02M15124
012024111410MERC2       010MERC FINANC DIR PRE      R$  000000000000500000000000130000000000005000000000000900000000000130000000000011000000000002400003000000000000000300000000000000002800000000000000009999123100000010000000000000BRMERCD02PR2180
012024111410IFCM1       010INFRACOMM   DIR ORD NM   R$  000000000000200000000000080000000000001000000000000300000000000050000000000004000000000000506941000000000006631200000000000022754600000000000000009999123100000010000000000000BRIFCMD02OR1101
012024111410MBLY1       010MOBLY       DIR ORD NM   R$  000000000000100000000000010000000000001000000000000100000000000010000000000000000000000000100004000000000000002100000000000000002100000000000000009999123100000010000000000000BRMBLYD01OR0100
012024111410MBLY11      010MOBLY       DIR     NM   R$  000000000000800000000000170000000000008000000000001000000000000100000000000010000000000001100012000000000000005700000000000000061800000000000000009999123100000010000000000000BRMBLYD01M18100
012024111412KNSC11      010FII KINEA SCCI           R$  000000000083600000000008500000000000836000000000084400000000008440000000000844000000000084624696000000000000702580000000000593285324000000000000009999123100000010000000000000BRKNSCCTF008153
012024111412KNUQ11      010FII KINEA UNCI           R$  000000001024200000000102890000000010211000000001024700000000102350000000010235000000001026003004000000000000042432000000000434840618000000000000009999123100000010000000000000BRKNUQCTF004118
012024111412KORE11      010FII KORE    CI           R$  000000000772200000000077220000000007635000000000767900000000076800000000007680000000000769505326000000000000049959000000000383639445000000000000009999123100000010000000000000BRKORECTF012111
012024111412SHPH11      010FII HIGIENOPCI           R$  000000008550000000000860000000000077500000000008464700000000820050000000082004000000008599900080000000000000000393000000000033266648000000000000009999123100000010000000000000BRSHPHCTF008355
012024111412EGDB11      010FII EGDB    CI           R$  000000010436200000001043620000000104362000000010436200000001043620000000104220000000000000000001000000000000000015000000000001565430000000000000009999123100000010000000000000BREGDBCTF009100
012024111412NVHO11      010FII NOVOHORICI           R$  000000000129900000000012990000000001297000000000129700000000012970000000001221000000000129400002000000000000000008000000000000010378000000000000009999123100000010000000000000BRNVHOCTF003234
012024111412OCRE11      010FII OCTO    CI           R$  000000000996900000000099690000000009800000000000981000000000098000000000009800000000000996800013000000000000000580000000000005689891000000000000009999123100000010000000000000BROCRECTF001119
012024111412JFLL11      010FII JFL LIV CI           R$  000000000720000000000072000000000007115000000000715600000000072000000000007103000000000720000044000000000000000718000000000005138264000000000000009999123100000010000000000000BRJFLLCTF002145
012024111412MINT11      010FII MINT EDUCI           R$  000000000964900000000096500000000009649000000000964900000000096500000000009200000000000965000006000000000000000450000000000004342424000000000000009999123100000010000000000000BRMINTCTF009103
012024111412OUJP11      010FII OURI JPPCI           R$  000000000768000000000078000000000007680000000000772100000000077040000000007704000000000772001409000000000000005350000000000041312229000000000000009999123100000010000000000000BROUJPCTF006192
012024111412OULG11      010FII OURILOG CI           R$  000000000316000000000031610000000003160000000000316000000000031600000000003160000000000316100045000000000000001149000000000003630862000000000000009999123100000010000000000000BROULGCTF001153
012024111412PABY11      010FII PANAMBY CI           R$  000000000135300000000013530000000001353000000000135300000000013530000000001339000000000135300002000000000000000044000000000000059532000000000000009999123100000010000000000000BRPABYCTF012158
012024111412PATC11      010FII PATRIA  CI           R$  000000000336500000000033970000000003359000000000338100000000033970000000003359000000000339800163000000000000001054000000000003564416000000000000009999123100000010000000000000BRPATCCTF002175
012024111412RNGO11      010FII RIONEGROCI           R$  000000000481700000000048170000000004730000000000477300000000047500000000004750000000000480900190000000000000001921000000000009170444000000000000009999123100000010000000000000BRRNGOCTF003248
012024111412RPRI11      010FII RBR PR  CI           R$  000000000863100000000087800000000008529000000000862100000000086400000000008640000000000869900364000000000000003264000000000028141677000000000000009999123100000010000000000000BRRPRICTF007133
012024111412SAPI11      010FII SAPI    CI           R$  000000000083600000000008360000000000807000000000081900000000008150000000000815000000000082401734000000000000073215000000000060023745000000000000009999123100000010000000000000BRSAPICTF001114
012024111412SARE11      010FII SANT RENCI           R$  000000000037000000000003770000000000370000000000037300000000003760000000000376000000000037701326000000000000163783000000000061139630000000000000009999123100000010000000000000BRSARECTF006162
012024111412RRCI11      010FII RBCAP RICI           R$  000000000700800000000070210000000006912000000000695500000000069900000000006920000000000701900048000000000000000285000000000001982431000000000000009999123100000010000000000000BRRRCICTF005147
012024111412RVBI11      010FII VBI REITCI  ER       R$  000000000649200000000065340000000006447000000000648000000000064900000000006453000000000649501962000000000000024702000000000160090734000000000000009999123100000010000000000000BRRVBICTF009157
012024111412RZAK11      010FII RIZA AKNCI           R$  000000000793000000000079600000000007910000000000792500000000079190000000007919000000000792905396000000000000019288000000000152865889000000000000009999123100000010000000000000BRRZAKCTF008148
012024111412RZAT11      010FII ARCTIUM CI           R$  000000000870100000000088990000000008651000000000872500000000086590000000008659000000000873903045000000000000016105000000000140518836000000000000009999123100000010000000000000BRRZATCTF009122
012024111412RZLC11      010FII RZLC    CI  ER       R$  000000010040800000001004080000000100408000000010040800000001004080000000100407000000010040800002000000000000001000000000000100408000000000000000009999123100000010000000000000BRRZLCCTF002102
012024111412RZTR11      010FII RIZA TX CI           R$  000000000881500000000088950000000008781000000000883300000000087870000000008787000000000880309356000000000000057722000000000509872655000000000000009999123100000010000000000000BRRZTRCTF003153
012024111412SADI11      010FII SANT PAPCI           R$  000000000083700000000008390000000000830000000000083300000000008310000000000831000000000083400292000000000000008620000000000007183144000000000000009999123100000010000000000000BRSADICTF007165
012024111412BBFI11      010FII BB PROGRCI           R$  000000003531700000000364870000000035001000000003533300000000350260000000035026000000003600000060000000000000000177000000000006254067000000000000009999123100000010000000000000BRBBFICTF006329
012024111412BBFO11      010FII BB FOF  CI           R$  000000000640000000000064000000000006365000000000638900000000063990000000006374000000000639900781000000000000001914000000000012228935000000000000009999123100000010000000000000BRBBFOCTF004146
012024111412BBIG11      010FII BBIG    CI           R$  000000000078600000000007990000000000766000000000077900000000007700000000000769000000000077007699000000000000238757000000000186171195000000000000009999123100000010000000000000BRBBIGCTF004106
012024111412PULV11      010FII PULV    CI           R$  000000000091600000000009540000000000915000000000093200000000009150000000000915000000000094900019000000000000000374000000000000348816000000000000009999123100000010000000000000BRPULVCTF007106
012024111412PVBI11      010FII VBI PRI CI           R$  000000000770000000000078500000000007627000000000777100000000076270000000007627000000000763317904000000000000088259000000000685905461000000000000009999123100000010000000000000BRPVBICTF003157
012024111412QAGR11      010FII QUASAR ACI           R$  000000000435200000000044000000000004352000000000439000000000043960000000004395000000000439600149000000000000000920000000000004038860000000000000009999123100000010000000000000BRQAGRCTF005160
