00COTAHIST.2024BOVESPA 20241112                                                                                                                                                                                                                      
012024111202B3SA3       010B3          ON      NM   R$  000000000101500000000010350000000001007000000000102100000000010310000000001030000000000103244579000000000055851700000000057046530400000000000000009999123100000010000000000000BRB3SAACNOR6134
012024111202BRFS3       010BRF SA      ON      NM   R$  000000000242300000000025030000000002408000000000247400000000024970000000002495000000000249718697000000000006274800000000015524685900000000000000009999123100000010000000000000BRBRFSACNOR8122
012024111202COCE5       010COELCE      PNA          R$  000000000265200000000026930000000002612000000000263800000000026560000000002630000000000265700027000000000000002700000000000007123400000000000000009999123100000010000000000000BRCOCEACNPA3147
012024111202COGN3       010COGNA ON    ON      NM   R$  000000000014700000000001490000000000140000000000014300000000001400000000000140000000000014113052000000000032012000000000004588935200000000000000009999123100000010000000000000BRCOGNACNOR2105
012024111202WEGE3       010WEG         ON      NM   R$  000000000551000000000055470000000005500000000000552500000000055420000000005525000000000554217706000000000003988000000000022035601800000000000000009999123100000010000000000000BRWEGEACNOR0225
012024111202DASA3       010DASA        ON      NM   R$  000000000024400000000002470000000000231000000000023600000000002340000000000234000000000023502190000000000000719300000000000169980200000000000000009999123100000010000000000000BRDASAACNOR1123
012024111202ESPA3       010ESPACOLASER ON      NM   R$  000000000010000000000001000000000000098000000000009900000000000980000000000098000000000010000060000000000000117100000000000011603200000000000000009999123100000010000000000000BRESPAACNOR7103
012024111202KRSA3       010KORA SAUDE  ON      NM   R$  000000000064200000000006530000000000625000000000063500000000006300000000000630000000000064000100000000000000041100000000000026105600000000000000009999123100000010000000000000BRKRSAACNOR0101
012024111202LAND3       010TERRASANTAPAON      NM   R$  000000000122100000000012320000000001151000000000117900000000011550000000001155000000000117000297000000000000060600000000000071495600000000000000009999123100000010000000000000BRLANDACNOR9103
012024111202ETER3       010ETERNIT     ON  EJ  NM   R$  000000000053900000000005390000000000515000000000052200000000005150000000000515000000000052000543000000000000148800000000000077771200000000000000009999123100000010000000000000BRETERACNOR3245
012024111202EUCA3       010EUCATEX     ON      N1   R$  000000000163700000000016390000000001637000000000163800000000016390000000001595000000000164000003000000000000000800000000000001310400000000000000009999123100000010000000000000BREUCAACNOR1157
012024111202EUCA4       010EUCATEX     PN      N1   R$  000000000139000000000014110000000001390000000000140000000000013980000000001398000000000140900124000000000000024000000000000033617800000000000000009999123100000010000000000000BREUCAACNPR8044
012024111202EVEN3       010EVEN        ON      NM   R$  000000000056400000000005950000000000556000000000057800000000005800000000000580000000000058107258000000000003612000000000002088091000000000000000009999123100000010000000000000BREVENACNOR8120
012024111202EZTC3       010EZTEC       ON  ED  NM   R$  000000000143100000000014560000000001410000000000142800000000014170000000001416000000000143210844000000000002946100000000004208255000000000000000009999123100000010000000000000BREZTCACNOR0127
012024111202INEP4       010INEPAR      PN           R$  000000000014600000000001460000000000135000000000013600000000001350000000000132000000000013500052000000000000021600000000000002957900000000000000009999123100000010000000000000BRINEPACNPR8143
012024111202LAVV3       010LAVVI       ON      NM   R$  000000000090100000000009020000000000889000000000089500000000008920000000000891000000000089702390000000000000431300000000000386367900000000000000009999123100000010000000000000BRLAVVACNOR4113
012024111202LEVE3       010METAL LEVE  ON  EJ  NM   R$  000000000297900000000029840000000002816000000000286100000000028170000000002817000000000281905897000000000000995100000000002847421200000000000000009999123100000010000000000000BRLEVEACNOR2198
012024111202LJQQ3       010QUERO-QUERO ON      NM   R$  000000000028100000000003070000000000280000000000029800000000003050000000000302000000000030506544000000000012673100000000003780821200000000000000009999123100000010000000000000BRLJQQACNOR5104
012024111202OFSA3       010OUROFINO S/AON      NM   R$  000000000216500000000022490000000002165000000000220400000000022000000000002200000000000225000009000000000000001900000000000004188400000000000000009999123100000010000000000000BROFSAACNOR7118
012024111202INTB3       010INTELBRAS   ON      NM   R$  000000000174000000000017400000000001660000000000168600000000016630000000001661000000000166507516000000000003484200000000005876103100000000000000009999123100000010000000000000BRINTBACNOR9112
012024111202IRBR3       010IRBBRASIL REON      NM   R$  000000000424000000000043720000000004211000000000430400000000043480000000004348000000000435206445000000000001566000000000006740685100000000000000009999123100000010000000000000BRIRBRACNOR4111
012024111202AZZA3       010AZZAS 2154  ON      NM   R$  000000000401000000000040650000000003965000000000399700000000040100000000004010000000000401205137000000000000951400000000003803538100000000000000009999123100000010000000000000BRAZZAACNOR9100
012024111202BRBI11      010BR PARTNERS UNT     N2   R$  000000000154100000000015520000000001519000000000152600000000015400000000001530000000000154001635000000000000837300000000001277918600000000000000009999123100000010000000000000BRBRBICDAM10110
012024111202CLSA3       010CLEARSALE   ON      NM   R$  000000000098500000000009850000000000975000000000098000000000009770000000000977000000000098102684000000000002660800000000002609362700000000000000009999123100000010000000000000BRCLSAACNOR0100
012024111202CLSC4       010CELESC      PN      N2   R$  000000000815000000000081500000000008100000000000814800000000081000000000008020000000000812000004000000000000009500000000000077415000000000000000009999123100000010000000000000BRCLSCACNPR3132
012024111202CMIG3       010CEMIG       ON      N1   R$  000000000147200000000014720000000001439000000000145100000000014410000000001436000000000144900591000000000000115900000000000168247100000000000000009999123100000010000000000000BRCMIGACNOR6244
012024111202CMIG4       010CEMIG       PN      N1   R$  000000000115200000000011570000000001131000000000114100000000011360000000001136000000000113832788000000000012829200000000014638709600000000000000009999123100000010000000000000BRCMIGACNPR3245
012024111202CMIN3       010CSNMINERACAOON      N2   R$  000000000057800000000005790000000000554000000000056000000000005550000000000555000000000055715563000000000010128300000000005680844700000000000000009999123100000010000000000000BRCMINACNOR2112
012024111202CXSE3       010CAIXA SEGURION  ED  NM   R$  000000000143000000000014340000000001410000000000141700000000014110000000001410000000000141411033000000000002887600000000004092932900000000000000009999123100000010000000000000BRCXSEACNOR7108
012024111202CYRE3       010CYRELA REALTON      NM   R$  000000000218000000000021950000000002150000000000217000000000021690000000002167000000000217010938000000000003062400000000006647495300000000000000009999123100000010000000000000BRCYREACNOR7140
012024111202ENGI11      010ENERGISA    UNT     N2   R$  000000000415100000000041510000000004016000000000405100000000040160000000004015000000000404316636000000000004011100000000016251467200000000000000009999123100000010000000000000BRENGICDAM16136
012024111202ENGI3       010ENERGISA    ON      N2   R$  000000000121100000000012200000000001192000000000120200000000011970000000001191000000000120900030000000000000003200000000000003847600000000000000009999123100000010000000000000BRENGIACNOR0146
012024111202ENGI4       010ENERGISA    PN      N2   R$  000000000072300000000007230000000000709000000000071400000000007100000000000709000000000072100053000000000000011200000000000008006800000000000000009999123100000010000000000000BRENGIACNPR7142
012024111202ENJU3       010ENJOEI      ON      NM   R$  000000000013000000000001330000000000130000000000013200000000001320000000000132000000000013300285000000000000201400000000000026591600000000000000009999123100000010000000000000BRENJUACNOR9100
012024111202EPAR3       010EMBPAR S/A  ON           R$  000000000055400000000005580000000000543000000000054900000000005540000000000543000000000055400029000000000000010200000000000005605900000000000000009999123100000010000000000000BREPARACNOR9105
012024111202EQMA3B      010EQTLMARANHAOON      MB   R$  000000000234500000000023490000000002303000000000232300000000023150000000002315000000000234900008000000000000000900000000000002090900000000000000009999123100000010000000000000BREQMAACNOR8108
012024111202EQPA3       010EQTL PARA   ON           R$  000000000058300000000005830000000000569000000000056900000000005690000000000568000000000057000024000000000000008300000000000004729800000000000000009999123100000010000000000000BREQPAACNOR1111
012024111202EQTL3       010EQUATORIAL  ON      NM   R$  000000000313600000000031640000000003128000000000314200000000031420000000003142000000000314822542000000000006937900000000021805701900000000000000009999123100000010000000000000BREQTLACNOR0131
012024111202JALL3       010JALLESMACHADON      NM   R$  000000000059000000000005900000000000556000000000056400000000005620000000000562000000000056405045000000000001737800000000000980614500000000000000009999123100000010000000000000BRJALLACNOR0106
012024111202JBSS3       010JBS         ON      NM   R$  000000000359000000000036070000000003535000000000357100000000035700000000003567000000000357227986000000000009901200000000035366012600000000000000009999123100000010000000000000BRJBSSACNOR8122
012024111202ATOM3       010ATOMPAR     ON           R$  000000000032700000000003270000000000269000000000029900000000003060000000000306000000000030900562000000000000269600000000000080791700000000000000009999123100000010000000000000BRATOMACNOR1106
012024111202AURE3       010AUREN       ON      NM   R$  000000000100500000000010050000000000992000000000099500000000009960000000000993000000000099618192000000000006804100000000006776575900000000000000009999123100000010000000000000BRAUREACNOR9104
012024111202AVLL3       010ALPHAVILLE  ON      NM   R$  000000000029000000000002900000000000276000000000028300000000002830000000000283000000000029000004000000000000002300000000000000651600000000000000009999123100000010000000000000BRAVLLACNOR5103
012024111202AZEV3       010AZEVEDO     ON           R$  000000000012100000000001230000000000117000000000011900000000001170000000000116000000000011700195000000000000252000000000000030014000000000000000009999123100000010000000000000BRAZEVACNOR0121
012024111202AZEV4       010AZEVEDO     PN           R$  000000000012100000000001220000000000116000000000011800000000001160000000000116000000000011700710000000000001427600000000000169531700000000000000009999123100000010000000000000BRAZEVACNPR7121
012024111202AZUL4       010AZUL        PN      N2   R$  000000000050700000000005230000000000503000000000051000000000005180000000000515000000000051826390000000000015612300000000007966330700000000000000009999123100000010000000000000BRAZULACNPR4103
012024111202BBDC3       010BRADESCO    ON  EJ  N1   R$  000000000120100000000012020000000001189000000000119400000000011910000000001191000000000119407744000000000005479700000000006544076700000000000000009999123100000010000000000000BRBBDCACNOR1777
012024111202BBDC4       010BRADESCO    PN  EJ  N1   R$  000000000134900000000013490000000001332000000000133900000000013390000000001339000000000134029857000000000030009000000000040191965400000000000000009999123100000010000000000000BRBBDCACNPR8777
012024111202BRAV3       010BRAVA       ON      NM   R$  000000000160900000000016350000000001575000000000160500000000015750000000001574000000000157511150000000000005549700000000008907854600000000000000009999123100000010000000000000BRBRAVACNOR3100
012024111202CBAV3       010CBA         ON      NM   R$  000000000054400000000005510000000000526000000000053100000000005260000000000526000000000052806586000000000002875400000000001529146000000000000000009999123100000010000000000000BRCBAVACNOR5104
012024111202CBEE3       010AMPLA ENERG ON           R$  000000000110100000000012990000000001101000000000123000000000012990000000001110000000000130000003000000000000000300000000000000369000000000000000009999123100000010000000000000BRCBEEACNOR3160
012024111202SAPR11      010SANEPAR     UNT     N2   R$  000000000265700000000026920000000002649000000000266700000000026550000000002655000000000266004701000000000000863500000000002303201000000000000000009999123100000010000000000000BRSAPRCDAM13118
012024111202SAPR3       010SANEPAR     ON      N2   R$  000000000050000000000005080000000000500000000000050400000000005080000000000504000000000050800766000000000000205100000000000103428300000000000000009999123100000010000000000000BRSAPRACNOR9159
012024111202SAPR4       010SANEPAR     PN      N2   R$  000000000053400000000005440000000000534000000000053700000000005350000000000535000000000053602727000000000001155600000000000621594000000000000000009999123100000010000000000000BRSAPRACNPR6159
012024111202SBFG3       010GRUPO SBF   ON      NM   R$  000000000144100000000014490000000001309000000000136400000000013520000000001340000000000135209494000000000004213300000000005749437600000000000000009999123100000010000000000000BRSBFGACNOR1103
012024111202SBSP3       010SABESP      ON      NM   R$  000000000928000000000096080000000009213000000000947900000000095550000000009555000000000955731114000000000006186000000000058641063000000000000000009999123100000010000000000000BRSBSPACNOR5161
012024111202TRAD3       010TC          ON      NM   R$  000000000074000000000007400000000000699000000000071700000000007000000000000700000000000070100434000000000000107600000000000077205400000000000000009999123100000010000000000000BRTRADACNOR3102
012024111202TRIS3       010TRISUL      ON      NM   R$  000000000055700000000005660000000000553000000000055900000000005660000000000560000000000056601100000000000000331600000000000185456800000000000000009999123100000010000000000000BRTRISACNOR4118
012024111202TRPL3       010TRAN PAULISTON      N1   R$  000000000310200000000031040000000003050000000000308100000000030700000000003020000000000307000015000000000000002000000000000006162000000000000000009999123100000010000000000000BRTRPLACNOR4185
012024111202TRPL4       010TRAN PAULISTPN      N1   R$  000000000245100000000024540000000002404000000000242300000000024100000000002408000000000241510980000000000002500600000000006059897500000000000000009999123100000010000000000000BRTRPLACNPR1185
012024111202TTEN3       0103TENTOS     ON      NM   R$  000000000129200000000014180000000001292000000000138600000000014180000000001406000000000141823022000000000007368500000000010215861900000000000000009999123100000010000000000000BRTTENACNOR0103
012024111202TUPY3       010TUPY        ON      NM   R$  000000000242300000000024280000000002386000000000241000000000024190000000002419000000000243103037000000000000558300000000001345600100000000000000009999123100000010000000000000BRTUPYACNOR1184
012024111202TAEE11      010TAESA       UNT EDJ N2   R$  000000000346000000000034660000000003400000000000342800000000034110000000003409000000000341110717000000000003269900000000011210809300000000000000009999123100000010000000000000BRTAEECDAM10149
012024111202TAEE3       010TAESA       ON  EDJ N2   R$  000000000115700000000011720000000001102000000000113900000000011330000000001126000000000113300878000000000000177500000000000202324600000000000000009999123100000010000000000000BRTAEEACNOR9149
012024111202TAEE4       010TAESA       PN  EDJ N2   R$  000000000115400000000011570000000001136000000000114400000000011360000000001135000000000113801253000000000000359300000000000411365100000000000000009999123100000010000000000000BRTAEEACNPR6149
012024111202MILS3       010MILLS       ON      NM   R$  000000000100000000000010170000000000992000000000100200000000010160000000001008000000000101604964000000000001035000000000001038045800000000000000009999123100000010000000000000BRMILSACNOR2128
012024111202KLBN11      010KLABIN S/A  UNT EJ  N2   R$  000000000204900000000020700000000002018000000000204200000000020450000000002039000000000204514987000000000005648000000000011533583000000000000000009999123100000010000000000000BRKLBNCDAM18144
012024111202KLBN3       010KLABIN S/A  ON  EJ  N2   R$  000000000041000000000004150000000000405000000000040800000000004070000000000407000000000040900819000000000000470900000000000192534100000000000000009999123100000010000000000000BRKLBNACNOR2172
012024111202KLBN4       010KLABIN S/A  PN  EJ  N2   R$  000000000040700000000004110000000000404000000000040700000000004080000000000407000000000040801871000000000001317400000000000536689400000000000000009999123100000010000000000000BRKLBNACNPR9172
012024111202MLAS3       010MULTILASER  ON      NM   R$  000000000015500000000001550000000000150000000000015200000000001520000000000152000000000015302450000000000001064200000000000162176900000000000000009999123100000010000000000000BRMLASACNOR9101
012024111202MNDL3       010MUNDIAL     ON           R$  000000000158200000000015820000000001582000000000158200000000015820000000001582000000000163000001000000000000001200000000000001898400000000000000009999123100000010000000000000BRMNDLACNOR4109
012024111202MNPR3       010MINUPAR     ON           R$  000000000192100000000019990000000001921000000000197500000000019990000000001955000000000200500015000000000000001600000000000003161500000000000000009999123100000010000000000000BRMNPRACNOR5122
012024111202MOAR3       010MONT ARANHA ON           R$  000000004110000000000411000000000041100000000004110000000000411000000000012200000000004107900001000000000000000100000000000004110000000000000000009999123100000010000000000000BRMOARACNOR5234
012024111202MOVI3       010MOVIDA      ON      NM   R$  000000000066400000000006720000000000648000000000065900000000006530000000000653000000000065411184000000000005003300000000003297959300000000000000009999123100000010000000000000BRMOVIACNOR0123
012024111202CRPG5       010CRISTAL     PNA          R$  000000000241500000000024570000000002415000000000243600000000024570000000002401000000000245500002000000000000000200000000000000487200000000000000009999123100000010000000000000BRCRPGACNPA3119
012024111202CSAN3       010COSAN       ON      NM   R$  000000000115500000000011630000000001127000000000113500000000011360000000001136000000000113722271000000000011950500000000013569197300000000000000009999123100000010000000000000BRCSANACNOR6126
012024111202EKTR4       010ELEKTRO     PN           R$  000000000454200000000045420000000004539000000000454100000000045420000000004300000000000454200004000000000000000500000000000002270700000000000000009999123100000010000000000000BREKTRACNPR7166
012024111202ELET3       010ELETROBRAS  ON      N1   R$  000000000358400000000035930000000003514000000000353900000000035270000000003527000000000353024162000000000007281600000000025774898900000000000000009999123100000010000000000000BRELETACNOR6160
012024111202ELET6       010ELETROBRAS  PNB     N1   R$  000000000405700000000040710000000003972000000000399900000000039900000000003981000000000399107302000000000001890600000000007562202800000000000000009999123100000010000000000000BRELETACNPB7077
012024111202AALR3       010ALLIAR      ON      NM   R$  000000000149000000000014900000000001441000000000147300000000014680000000001450000000000147900131000000000000065900000000000097121100000000000000009999123100000010000000000000BRAALRACNOR6102
012024111202BRAP3       010BRADESPAR   ON      N1   R$  000000000178900000000017890000000001736000000000175400000000017360000000001736000000000174400791000000000000160300000000000281177600000000000000009999123100000010000000000000BRBRAPACNOR5148
012024111202BRAP4       010BRADESPAR   PN      N1   R$  000000000190000000000019000000000001855000000000186900000000018560000000001856000000000186018334000000000008219600000000015370155200000000000000009999123100000010000000000000BRBRAPACNPR2148
012024111202GGPS3       010GPS         ON      NM   R$  000000000170000000000017880000000001688000000000175100000000017590000000001745000000000176013224000000000005522600000000009670211700000000000000009999123100000010000000000000BRGGPSACNOR9103
012024111202GMAT3       010GRUPO MATEUSON  EJS NM   R$  000000000075800000000007820000000000740000000000075000000000007410000000000740000000000074512893000000000007126200000000005350921600000000000000009999123100000010000000000000BRGMATACNOR7104
012024111202GOAU3       010GERDAU MET  ON      N1   R$  000000000108800000000010880000000001045000000000106500000000010470000000001046000000000105500342000000000000063600000000000067795000000000000000009999123100000010000000000000BRGOAUACNOR1268
012024111202GOAU4       010GERDAU MET  PN      N1   R$  000000000114000000000011420000000001089000000000110500000000010900000000001089000000000109314592000000000016820400000000018591362300000000000000009999123100000010000000000000BRGOAUACNPR8269
012024111202ABCB4       010ABC BRASIL  PN      N2   R$  000000000206800000000020680000000002031000000000204100000000020350000000002035000000000204102951000000000000512800000000001047074700000000000000009999123100000010000000000000BRABCBACNPR4146
012024111202ABEV3       010AMBEV S/A   ON           R$  000000000124300000000012640000000001230000000000125100000000012580000000001258000000000126041045000000000026899600000000033657930500000000000000009999123100000010000000000000BRABEVACNOR1128
012024111202BAHI3       010BAHEMA      ON      MA   R$  000000000047100000000004710000000000471000000000047100000000004710000000000471000000000047700001000000000000000100000000000000047100000000000000009999123100000010000000000000BRBAHIACNOR1074
012024111202BALM3       010BAUMER      ON           R$  000000000130000000000013000000000001300000000000130000000000013000000000001201000000000154000001000000000000000300000000000000390000000000000000009999123100000010000000000000BRBALMACNOR5055
012024111202BALM4       010BAUMER      PN           R$  000000000100700000000010070000000001000000000000100100000000010000000000001000000000000103000005000000000000000600000000000000601000000000000000009999123100000010000000000000BRBALMACNPR2056
012024111202BAUH4       010EXCELSIOR   PN           R$  000000000770000000000078880000000007700000000000781300000000078750000000007300000000000787600009000000000000000900000000000007032000000000000000009999123100000010000000000000BRBAUHACNPR3118
012024111202AERI3       010AERIS       ON      NM   R$  000000000055600000000005750000000000552000000000056400000000005700000000000564000000000057000693000000000000199100000000000112312300000000000000009999123100000010000000000000BRAERIACNOR4102
012024111202AFLT3       010AFLUENTE T  ON           R$  000000000076600000000007660000000000721000000000075100000000007210000000000708000000000076500003000000000000000300000000000000225300000000000000009999123100000010000000000000BRAFLTACNOR1122
012024111202AGRO3       010BRASILAGRO  ON      NM   R$  000000000235900000000023810000000002345000000000235800000000023630000000002359000000000236301756000000000000279700000000000659714400000000000000009999123100000010000000000000BRAGROACNOR7115
012024111202ALLD3       010ALLIED      ON      NM   R$  000000000085000000000008580000000000835000000000084700000000008540000000000854000000000085800294000000000000097600000000000082670200000000000000009999123100000010000000000000BRALLDACNOR3106
012024111202ALOS3       010ALLOS       ON      NM   R$  000000000215600000000021840000000002152000000000216200000000021600000000002160000000000216410878000000000003265700000000007063661600000000000000009999123100000010000000000000BRALOSACNOR5103
012024111202BAZA3       010AMAZONIA    ON           R$  000000000927800000000092780000000009000000000000906600000000090490000000008965000000000930000010000000000000001000000000000009066900000000000000009999123100000010000000000000BRBAZAACNOR0179
012024111202BBAS3       010BRASIL      ON      NM   R$  000000000260100000000026090000000002580000000000259000000000025950000000002593000000000259539950000000000015391500000000039871787400000000000000009999123100000010000000000000BRBBASACNOR3326
012024111202BEEF3       010MINERVA     ON      NM   R$  000000000054100000000005540000000000536000000000054500000000005540000000000551000000000055410434000000000007309700000000003990644300000000000000009999123100000010000000000000BRBEEFACNOR6117
012024111202CPFE3       010CPFL ENERGIAON      NM   R$  000000000325300000000032530000000003215000000000323800000000032510000000003230000000000325207355000000000001606800000000005203814700000000000000009999123100000010000000000000BRCPFEACNOR0137
012024111202CPLE3       010COPEL       ON      N2   R$  000000000083700000000008390000000000830000000000083300000000008330000000000832000000000083506228000000000005484000000000004573396100000000000000009999123100000010000000000000BRCPLEACNOR8150
012024111202CPLE6       010COPEL       PNB     N2   R$  000000000094700000000009490000000000935000000000094100000000009360000000000936000000000093720446000000000016095700000000015149356300000000000000009999123100000010000000000000BRCPLEACNPB9147
012024111202EGIE3       010ENGIE BRASILON      NM   R$  000000000394000000000039680000000003918000000000394000000000039330000000003933000000000393806292000000000001313100000000005173819100000000000000009999123100000010000000000000BREGIEACNOR9127
012024111202FRAS3       010FRAS-LE     ON      N1   R$  000000000207300000000020990000000002073000000000208700000000020940000000002083000000000209401001000000000000163100000000000340466600000000000000009999123100000010000000000000BRFRASACNOR0160
012024111202FRIO3       010METALFRIO   ON      NM   R$  000000001559900000000160000000000015599000000001573300000000160000000000014001000000001620000003000000000000000300000000000004719900000000000000009999123100000010000000000000BRFRIOACNOR2111
012024111202ANIM3       010ANIMA       ON      NM   R$  000000000024200000000002450000000000234000000000023900000000002400000000000239000000000024106588000000000009540300000000002280440500000000000000009999123100000010000000000000BRANIMACNOR6109
012024111202BEES3       010BANESTES    ON  EJ       R$  000000000084700000000008490000000000842000000000084500000000008450000000000842000000000084500049000000000000006100000000000005156400000000000000009999123100000010000000000000BRBEESACNOR9397
012024111202BEES4       010BANESTES    PN  EJ       R$  000000000085900000000008750000000000859000000000086400000000008600000000000859000000000087400011000000000000001100000000000000951300000000000000009999123100000010000000000000BRBEESACNPR6322
012024111202BIOM3       010BIOMM       ON      MA   R$  000000000096200000000009990000000000942000000000097700000000009760000000000975000000000099800274000000000000110200000000000107771800000000000000009999123100000010000000000000BRBIOMACNOR2112
012024111202BLAU3       010BLAU        ON      NM   R$  000000000153600000000015360000000001490000000000149900000000015150000000001490000000000151501981000000000000410000000000000614635400000000000000009999123100000010000000000000BRBLAUACNOR8115
012024111202BMEB3       010MERCANTIL   ON      N1   R$  000000000358000000000036000000000003500000000000357000000000036000000000003502000000000375000004000000000000000400000000000001428000000000000000009999123100000010000000000000BRBMEBACNOR8206
012024111202BMEB4       010MERCANTIL   PN      N1   R$  000000000374200000000039990000000003701000000000380000000000039990000000003874000000000400800180000000000000024600000000000093483900000000000000009999123100000010000000000000BRBMEBACNPR5211
012024111202BMGB4       010BANCO BMG   PN      N1   R$  000000000040000000000004050000000000398000000000040100000000003990000000000399000000000040300995000000000000521100000000000209411200000000000000009999123100000010000000000000BRBMGBACNPR0111
012024111202BMKS3       010BIC MONARK  ON           R$  000000003149800000000314980000000030700000000003079800000000307000000000030600000000003070000062000000000000000503000000000015491455000000000000009999123100000010000000000000BRBMKSACNOR9166
012024111202BMOB3       010BEMOBI TECH ON      NM   R$  000000000148100000000014810000000001430000000000143900000000014300000000001430000000000143501017000000000000187900000000000270557800000000000000009999123100000010000000000000BRBMOBACNOR7103
012024111202BOBR4       010BOMBRIL     PN           R$  000000000025700000000002640000000000245000000000025600000000002500000000000245000000000025000139000000000000041000000000000010496900000000000000009999123100000010000000000000BRBOBRACNPR3128
012024111202BRSR3       010BANRISUL    ON      N1   R$  000000000119200000000011950000000001180000000000118700000000011930000000001188000000000121000023000000000000004200000000000004986400000000000000009999123100000010000000000000BRBRSRACNOR3189
012024111202BRSR6       010BANRISUL    PNB     N1   R$  000000000110800000000011180000000001102000000000111100000000011180000000001115000000000111803504000000000001218300000000001353607400000000000000009999123100000010000000000000BRBRSRACNPB4192
012024111202BSLI3       010BRB BANCO   ON  ES       R$  000000000085400000000008540000000000850000000000085200000000008500000000000850000000000087000008000000000000004300000000000003667800000000000000009999123100000010000000000000BRBSLIACNOR5195
012024111202BSLI4       010BRB BANCO   PN  ES       R$  000000000088600000000008860000000000822000000000084700000000008220000000000822000000000085000004000000000000000400000000000000339000000000000000009999123100000010000000000000BRBSLIACNPR2195
012024111202CAMB3       010CAMBUCI     ON           R$  000000000115300000000011820000000001145000000000116500000000011570000000001156000000000117300359000000000000079200000000000092272000000000000000009999123100000010000000000000BRCAMBACNOR4131
012024111202CAML3       010CAMIL       ON      NM   R$  000000000080000000000008050000000000793000000000079700000000007980000000000797000000000080001481000000000000327700000000000261495700000000000000009999123100000010000000000000BRCAMLACNOR3129
012024111202CASH3       010MELIUZ      ON      NM   R$  000000000033500000000003410000000000324000000000033100000000003290000000000328000000000033001482000000000001426600000000000472758400000000000000009999123100000010000000000000BRCASHACNOR8107
012024111202CSED3       010CRUZEIRO EDUON      NM   R$  000000000033800000000003430000000000331000000000033600000000003390000000000335000000000033900772000000000000729100000000000245121300000000000000009999123100000010000000000000BRCSEDACNOR9105
012024111202CSMG3       010COPASA      ON      NM   R$  000000000243100000000025380000000002375000000000244500000000023910000000002389000000000239210389000000000003119900000000007630944200000000000000009999123100000010000000000000BRCSMGACNOR5175
012024111202CSNA3       010SID NACIONALON           R$  000000000112500000000011350000000001102000000000111000000000011080000000001108000000000110914261000000000014761700000000016393479900000000000000009999123100000010000000000000BRCSNAACNOR6261
012024111202ELMD3       010ELETROMIDIA ON      NM   R$  000000000273000000000027510000000002708000000000272000000000027310000000002731000000000273800675000000000000402500000000001094897500000000000000009999123100000010000000000000BRELMDACNOR3101
012024111202EMAE4       010EMAE        PN           R$  000000000407800000000040780000000003999000000000405900000000040690000000003905000000000407800006000000000000000600000000000002435800000000000000009999123100000010000000000000BREMAEACNPR1126
012024111202LVTC3       010WDC NETWORKSON      NM   R$  000000000034200000000003480000000000342000000000034500000000003480000000000344000000000034800030000000000000013100000000000004531900000000000000009999123100000010000000000000BRLVTCACNOR4102
012024111202LWSA3       010LWSA        ON      NM   R$  000000000042400000000004310000000000414000000000042000000000004200000000000420000000000042110857000000000008588900000000003610142000000000000000009999123100000010000000000000BRLWSAACNOR8103
012024111202MTRE3       010MITRE REALTYON      NM   R$  000000000037300000000003760000000000360000000000036600000000003680000000000368000000000036900918000000000000784100000000000287458400000000000000009999123100000010000000000000BRMTREACNOR6116
012024111202MTSA4       010METISA      PN           R$  000000000334000000000033890000000003245000000000329400000000033190000000003232000000000332400041000000000000005800000000000019107000000000000000009999123100000010000000000000BRMTSAACNPR9073
012024111202MULT3       010MULTIPLAN   ON      N2   R$  000000000245800000000024690000000002431000000000244900000000024540000000002453000000000245412226000000000002732300000000006693497600000000000000009999123100000010000000000000BRMULTACNOR5139
012024111202PFRM3       010PROFARMA    ON  EJ  NM   R$  000000000072900000000007290000000000697000000000070700000000007070000000000707000000000071101214000000000000413000000000000292358400000000000000009999123100000010000000000000BRPFRMACNOR1117
012024111202GEPA3       010GER PARANAP ON           R$  000000000335000000000033500000000003350000000000335000000000033500000000002875000000000347500001000000000000000100000000000000335000000000000000009999123100000010000000000000BRGEPAACNOR2154
012024111202GEPA4       010GER PARANAP PN           R$  000000000295000000000030210000000002950000000000301100000000030210000000002975000000000302100007000000000000001200000000000003613900000000000000009999123100000010000000000000BRGEPAACNPR9161
012024111202GFSA3       010GAFISA      ON      NM   R$  000000000016000000000001640000000000146000000000015100000000001480000000000148000000000014902225000000000007854800000000001192069000000000000000009999123100000010000000000000BRGFSAACNOR3125
012024111202GGBR3       010GERDAU      ON      N1   R$  000000000193100000000019360000000001867000000000189600000000018710000000001870000000000188800353000000000000066300000000000125705800000000000000009999123100000010000000000000BRGGBRACNOR1193
012024111202GGBR4       010GERDAU      PN      N1   R$  000000000203000000000020310000000001962000000000198100000000019680000000001967000000000196825999000000000018181600000000036027286700000000000000009999123100000010000000000000BRGGBRACNPR8193
012024111202BBSE3       010BBSEGURIDADEON      NM   R$  000000000343000000000034330000000003358000000000338500000000033740000000003373000000000337410859000000000003415600000000011565184600000000000000009999123100000010000000000000BRBBSEACNOR5125
012024111202BRIT3       010BRISANET    ON      NM   R$  000000000032800000000003310000000000326000000000032800000000003300000000000330000000000033100374000000000000164400000000000054015900000000000000009999123100000010000000000000BRBRITACNOR0103
012024111202BRKM3       010BRASKEM     ON      N1   R$  000000000159800000000015980000000001556000000000156600000000015690000000001557000000000157000171000000000000026800000000000041991200000000000000009999123100000010000000000000BRBRKMACNOR1119
012024111202BRKM5       010BRASKEM     PNA     N1   R$  000000000157800000000015840000000001529000000000155000000000015300000000001529000000000153010294000000000003760400000000005829955400000000000000009999123100000010000000000000BRBRKMACNPA4121
012024111202DESK3       010DESKTOP     ON      NM   R$  000000000139900000000014030000000001371000000000138400000000013870000000001387000000000138800474000000000000079900000000000110608100000000000000009999123100000010000000000000BRDESKACNOR2104
012024111202DEXP3       010DEXXOS PAR  ON      N1   R$  000000000088100000000008830000000000830000000000084800000000008300000000000830000000000083800795000000000000201900000000000171405100000000000000009999123100000010000000000000BRDEXPACNOR1105
012024111202DEXP4       010DEXXOS PAR  PN      N1   R$  000000000085100000000008560000000000830000000000083500000000008300000000000823000000000083000033000000000000011300000000000009442200000000000000009999123100000010000000000000BRDEXPACNPR8105
012024111202DIRR3       010DIRECIONAL  ON      NM   R$  000000000308300000000030930000000003033000000000306900000000030750000000003055000000000307609523000000000001965900000000006034944400000000000000009999123100000010000000000000BRDIRRACNOR0119
012024111202DMVF3       010D1000VFARMA ON      NM   R$  000000000067000000000006780000000000665000000000067100000000006710000000000671000000000067600260000000000000053100000000000035656200000000000000009999123100000010000000000000BRDMVFACNOR9100
012024111202DOHL4       010DOHLER      PN           R$  000000000039200000000004020000000000372000000000038700000000003990000000000386000000000039900013000000000000002700000000000001047100000000000000009999123100000010000000000000BRDOHLACNPR9066
012024111202DOTZ3       010DOTZ SA     ON      NM   R$  000000000051200000000005300000000000512000000000052000000000005190000000000518000000000052500046000000000000072800000000000037923300000000000000009999123100000010000000000000BRDOTZACNOR7101
012024111202DXCO3       010DEXCO       ON      NM   R$  000000000079900000000007990000000000771000000000077700000000007710000000000771000000000077306319000000000002889600000000002245470400000000000000009999123100000010000000000000BRDXCOACNOR8105
012024111202EALT3       010ACO ALTONA  ON           R$  000000000153800000000015550000000001525000000000154200000000015540000000001500000000000155400016000000000000003300000000000005089600000000000000009999123100000010000000000000BREALTACNOR4138
012024111202EALT4       010ACO ALTONA  PN           R$  000000000146000000000014870000000001431000000000146000000000014740000000001474000000000147600050000000000000010100000000000014753400000000000000009999123100000010000000000000BREALTACNPR1138
012024111202ECOR3       010ECORODOVIAS ON      NM   R$  000000000067600000000006890000000000671000000000067800000000006830000000000679000000000068304157000000000002623300000000001779736000000000000000009999123100000010000000000000BRECORACNOR8120
012024111202FESA3       010FERBASA     ON      N1   R$  000000000125000000000012600000000001225000000000123100000000012600000000001225000000000128900004000000000000000900000000000001108500000000000000009999123100000010000000000000BRFESAACNOR8189
012024111202FESA4       010FERBASA     PN      N1   R$  000000000077000000000007990000000000770000000000078900000000007880000000000788000000000079202169000000000000708000000000000558957900000000000000009999123100000010000000000000BRFESAACNPR5085
012024111202FHER3       010FER HERINGERON      NM   R$  000000000036000000000003650000000000356000000000036000000000003600000000000360000000000036500014000000000000002700000000000000972900000000000000009999123100000010000000000000BRFHERACNOR5103
012024111202FIQE3       010UNIFIQUE    ON      NM   R$  000000000038400000000003860000000000378000000000038000000000003780000000000378000000000038100585000000000000302200000000000114914300000000000000009999123100000010000000000000BRFIQEACNOR5107
012024111202FLRY3       010FLEURY      ON      NM   R$  000000000139900000000014000000000001370000000000138200000000013890000000001380000000000138912103000000000002613500000000003613733800000000000000009999123100000010000000000000BRFLRYACNOR5139
012024111202HBOR3       010HELBOR      ON      NM   R$  000000000018200000000001850000000000181000000000018300000000001840000000000184000000000018500291000000000000440900000000000080963800000000000000009999123100000010000000000000BRHBORACNOR3118
012024111202HBRE3       010HBR REALTY  ON      NM   R$  000000000044000000000004430000000000424000000000042900000000004300000000000428000000000043002001000000000000668600000000000287333700000000000000009999123100000010000000000000BRHBREACNOR4100
012024111202HBSA3       010HIDROVIAS   ON      NM   R$  000000000031000000000003250000000000310000000000031900000000003250000000000321000000000032505274000000000008644200000000002764924300000000000000009999123100000010000000000000BRHBSAACNOR0101
012024111202EMBR3       010EMBRAER     ON      NM   R$  000000000556700000000056000000000005326000000000543700000000054130000000005407000000000541428831000000000007622300000000041449605400000000000000009999123100000010000000000000BREMBRACNOR4191
012024111202IFCM3       010INFRACOMM   ON      NM   R$  000000000001300000000000140000000000011000000000001200000000000120000000000011000000000001201039000000000018465300000000000223026600000000000000009999123100000010000000000000BRIFCMACNOR8101
012024111202IGTI11      010IGUATEMI S.AUNT     N1   R$  000000000201500000000020330000000002002000000000201400000000020080000000002005000000000201506929000000000001440900000000002902869200000000000000009999123100000010000000000000BRIGTICDAM16106
012024111202IGTI3       010IGUATEMI S.AON      N1   R$  000000000024400000000002470000000000240000000000024200000000002410000000000240000000000024100062000000000000053100000000000012866000000000000000009999123100000010000000000000BRIGTIACNOR8106
012024111202IGTI4       010IGUATEMI S.APN      N1   R$  000000000088200000000008820000000000882000000000088200000000008820000000000851000000000105000001000000000000000200000000000000176400000000000000009999123100000010000000000000BRIGTIACNPR5106
012024111202INEP3       010INEPAR      ON           R$  000000000014700000000001500000000000143000000000014600000000001430000000000143000000000014600054000000000000014000000000000002048100000000000000009999123100000010000000000000BRINEPACNOR1143
012024111202LUPA3       010LUPATECH    ON      NM   R$  000000000013800000000001400000000000136000000000013700000000001400000000000136000000000014000099000000000000219500000000000030290100000000000000009999123100000010000000000000BRLUPAACNOR8112
012024111202LUXM4       010TREVISA     PN           R$  000000000125000000000012500000000001160000000000121300000000012490000000001100000000000125000004000000000000000500000000000000606800000000000000009999123100000010000000000000BRLUXMACNPR4052
012024111202PRIO3       010PETRORIO    ON      NM   R$  000000000395000000000039670000000003920000000000394100000000039200000000003920000000000392123283000000000005359800000000021126921000000000000000009999123100000010000000000000BRPRIOACNOR1107
012024111202SHOW3       010TIME FOR FUNON      NM   R$  000000000008900000000000910000000000088000000000008900000000000890000000000089000000000009000188000000000000122800000000000010948000000000000000009999123100000010000000000000BRSHOWACNOR7105
012024111202SHUL4       010SCHULZ      PN           R$  000000000059600000000005970000000000575000000000058100000000005770000000000577000000000057802148000000000000648300000000000377141800000000000000009999123100000010000000000000BRSHULACNPR4157
012024111202SIMH3       010SIMPAR      ON      NM   R$  000000000053300000000005390000000000523000000000053000000000005250000000000525000000000052803417000000000002185100000000001158235500000000000000009999123100000010000000000000BRSIMHACNOR0107
012024111202SLCE3       010SLC AGRICOLAON      NM   R$  000000000173300000000017550000000001731000000000174300000000017420000000001741000000000174307077000000000001495700000000002607684500000000000000009999123100000010000000000000BRSLCEACNOR2125
012024111202YDUQ3       010YDUQS PART  ON      NM   R$  000000000108300000000010840000000001038000000000105800000000010460000000001046000000000105408973000000000003746000000000003965264500000000000000009999123100000010000000000000BRYDUQACNOR3105
012024111202ZAMP3       010ZAMP S.A.   ON           R$  000000000025600000000002840000000000253000000000026900000000002760000000000276000000000027802064000000000001705000000000000459470400000000000000009999123100000010000000000000BRZAMPACNOR5101
012024111202WEST3       010WESTWING    ON      NM   R$  000000000007400000000000740000000000071000000000007200000000000730000000000072000000000007300052000000000000049100000000000003568000000000000000009999123100000010000000000000BRWESTACNOR3100
012024111202WHRL3       010WHIRLPOOL   ON           R$  000000000041000000000004100000000000403000000000040500000000004030000000000402000000000040600015000000000000002800000000000001134500000000000000009999123100000010000000000000BRWHRLACNOR5129
012024111202WHRL4       010WHIRLPOOL   PN           R$  000000000042900000000004290000000000420000000000042400000000004220000000000422000000000042300032000000000000007300000000000003096800000000000000009999123100000010000000000000BRWHRLACNPR2129
012024111202WIZC3       010WIZ CO      ON      NM   R$  000000000058500000000005870000000000570000000000057600000000005770000000000571000000000057701468000000000000468800000000000270077600000000000000009999123100000010000000000000BRWIZCACNOR5102
012024111202WLMM4       010WLM IND COM PN  EJ       R$  000000000296200000000029620000000002962000000000296200000000029620000000002962000000000300000001000000000000000100000000000000296200000000000000009999123100000010000000000000BRWLMMACNPR3120
012024111202VITT3       010VITTIA      ON      NM   R$  000000000053900000000005390000000000521000000000052700000000005240000000000524000000000052700664000000000000140800000000000074323800000000000000009999123100000010000000000000BRVITTACNOR4108
012024111202VIVA3       010VIVARA S.A. ON      NM   R$  000000000259500000000025950000000002450000000000247900000000024750000000002475000000000248011509000000000003122600000000007742779300000000000000009999123100000010000000000000BRVIVAACNOR0107
012024111202VAMO3       010VAMOS       ON      NM   R$  000000000056500000000005880000000000551000000000056400000000005670000000000566000000000056713444000000000011243900000000006346911300000000000000009999123100000010000000000000BRVAMOACNOR7105
012024111202VBBR3       010VIBRA       ON      NM   R$  000000000226300000000022630000000002235000000000224600000000022430000000002242000000000224314575000000000009106100000000020456085500000000000000009999123100000010000000000000BRVBBRACNOR1109
012024111202PGMN3       010PAGUE MENOS ON      NM   R$  000000000032100000000003300000000000318000000000032200000000003200000000000319000000000032000851000000000000593600000000000191438400000000000000009999123100000010000000000000BRPGMNACNOR8103
012024111202PINE3       010PINE        ON      N2   R$  000000000048000000000004800000000000468000000000047400000000004680000000000468000000000047700003000000000000002200000000000001042800000000000000009999123100000010000000000000BRPINEACNOR1152
012024111202PINE4       010PINE        PN      N2   R$  000000000045000000000004550000000000447000000000044900000000004470000000000447000000000045000283000000000000136400000000000061293900000000000000009999123100000010000000000000BRPINEACNPR8152
012024111202PLAS3       010PLASCAR PARTON           R$  000000000060000000000006000000000000600000000000060000000000006000000000000585000000000061700001000000000000000400000000000000240000000000000000009999123100000010000000000000BRPLASACNOR2106
012024111202PLPL3       010PLANOEPLANO ON      NM   R$  000000000132800000000013380000000001289000000000130800000000013200000000001309000000000132005294000000000001232600000000001613198600000000000000009999123100000010000000000000BRPLPLACNOR5104
012024111202PNVL3       010DIMED       ON      NM   R$  000000000100400000000010050000000000986000000000099000000000009880000000000986000000000099201026000000000000521300000000000516205500000000000000009999123100000010000000000000BRPNVLACNOR9208
012024111202POMO3       010MARCOPOLO   ON      N2   R$  000000000067000000000007050000000000670000000000069500000000007050000000000705000000000070602039000000000000792100000000000550876200000000000000009999123100000010000000000000BRPOMOACNOR0099
012024111202POMO4       010MARCOPOLO   PN      N2   R$  000000000090600000000009450000000000902000000000092700000000009450000000000945000000000094627020000000000016119900000000014958914200000000000000009999123100000010000000000000BRPOMOACNPR7099
012024111202RECV3       010PETRORECSA  ON      NM   R$  000000000186900000000018690000000001806000000000182100000000018200000000001820000000000182113099000000000004160500000000007579508300000000000000009999123100000010000000000000BRRECVACNOR3107
012024111202REDE3       010REDE ENERGIAON           R$  000000000068800000000006930000000000681000000000068500000000006840000000000684000000000068800027000000000000004800000000000003291400000000000000009999123100000010000000000000BRREDEACNOR7128
012024111202RENT3       010LOCALIZA    ON      NM   R$  000000000446900000000045930000000004372000000000449700000000045460000000004510000000000454672957000000000032057900000000144186281300000000000000009999123100000010000000000000BRRENTACNOR4197
012024111202SCAR3       010SAO CARLOS  ON      NM   R$  000000000209300000000021110000000002042000000000207800000000020420000000002040000000000208000076000000000000018900000000000039275200000000000000009999123100000010000000000000BRSCARACNOR7131
012024111202SEER3       010SER EDUCA   ON      NM   R$  000000000073200000000007550000000000660000000000070200000000006870000000000687000000000068905376000000000001469700000000001032656400000000000000009999123100000010000000000000BRSEERACNOR5119
012024111202UNIP3       010UNIPAR      ON           R$  000000000445400000000045000000000004412000000000444800000000044400000000004422000000000449900030000000000000003200000000000014236100000000000000009999123100000010000000000000BRUNIPACNOR7206
012024111202UNIP6       010UNIPAR      PNB          R$  000000000452200000000046140000000004438000000000455000000000045760000000004558000000000457602143000000000000336600000000001531696500000000000000009999123100000010000000000000BRUNIPACNPB8206
012024111202USIM3       010USIMINAS    ON      N1   R$  000000000059500000000005990000000000584000000000058900000000005930000000000591000000000059300867000000000000309500000000000182437800000000000000009999123100000010000000000000BRUSIMACNOR3167
012024111202USIM5       010USIMINAS    PNA     N1   R$  000000000060500000000006090000000000590000000000059500000000006000000000000599000000000060020890000000000016816000000000010019175600000000000000009999123100000010000000000000BRUSIMACNPA6169
012024111202LOGG3       010LOG COM PROPON      NM   R$  000000000229500000000023040000000002215000000000224800000000022360000000002236000000000225603342000000000000490500000000001103026900000000000000009999123100000010000000000000BRLOGGACNOR7107
012024111202LOGN3       010LOG-IN      ON      NM   R$  000000000251500000000025690000000002450000000000248800000000025690000000002521000000000256900155000000000000033800000000000084106300000000000000009999123100000010000000000000BRLOGNACNOR3105
012024111202LPSB3       010LOPES BRASILON      NM   R$  000000000016200000000001650000000000161000000000016200000000001640000000000162000000000016400081000000000000022600000000000003671600000000000000009999123100000010000000000000BRLPSBACNOR0114
012024111202LREN3       010LOJAS RENNERON      NM   R$  000000000167400000000016910000000001652000000000166200000000016720000000001668000000000167220690000000000010376500000000017249765400000000000000009999123100000010000000000000BRLRENACNOR1222
012024111202MRVE3       010MRV         ON      NM   R$  000000000070400000000007140000000000694000000000070000000000006970000000000697000000000069911628000000000008806900000000006172273000000000000000009999123100000010000000000000BRMRVEACNOR2127
012024111202PDGR3       010PDG REALT   ON      NM   R$  000000000000100000000000020000000000001000000000000100000000000010000000000001000000000000200519000000000029617400000000000031131000000000000000009999123100000010000000000000BRPDGRACNOR8119
012024111202PDTC3       010PADTEC      ON      NM   R$  000000000017500000000001780000000000165000000000016900000000001660000000000166000000000016800158000000000000109200000000000018472500000000000000009999123100000010000000000000BRPDTCACNOR3101
012024111202PEAB3       010PAR AL BAHIAON           R$  000000000412000000000042450000000004120000000000416100000000042450000000004025000000000437700002000000000000000300000000000001248500000000000000009999123100000010000000000000BRPEABACNOR3133
012024111202PEAB4       010PAR AL BAHIAPN           R$  000000000460000000000046000000000004600000000000460000000000046000000000004513000000000499900001000000000000000100000000000000460000000000000000009999123100000010000000000000BRPEABACNPR0133
012024111202PETR3       010PETROBRAS   ON      N2   R$  000000000391500000000039880000000003912000000000395900000000039520000000003952000000000395617743000000000008009500000000031715365000000000000000009999123100000010000000000000BRPETRACNOR9206
012024111202PETR4       010PETROBRAS   PN      N2   R$  000000000363600000000037110000000003634000000000367800000000036930000000003692000000000369382883000000000039412300000000144961774400000000000000009999123100000010000000000000BRPETRACNPR6214
012024111202PETZ3       010PETZ        ON      NM   R$  000000000050000000000005000000000000488000000000049400000000004920000000000492000000000049508223000000000008727000000000004315099600000000000000009999123100000010000000000000BRPETZACNOR2110
012024111202VVEO3       010VIVEO       ON      NM   R$  000000000023400000000002350000000000223000000000022500000000002240000000000224000000000022602920000000000001253400000000000282650400000000000000009999123100000010000000000000BRVVEOACNOR0104
012024111202HYPE3       010HYPERA      ON      NM   R$  000000000210000000000021070000000002044000000000206500000000020710000000002071000000000207420810000000000005685400000000011745721200000000000000009999123100000010000000000000BRHYPEACNOR0144
012024111202NEOE3       010NEOENERGIA  ON      NM   R$  000000000190500000000019090000000001863000000000188300000000018710000000001870000000000187106364000000000001148600000000002163404100000000000000009999123100000010000000000000BRNEOEACNOR3123
012024111202ITSA3       010ITAUSA      ON      N1   R$  000000000107300000000010730000000001056000000000106300000000010570000000001057000000000105900351000000000000092200000000000098082800000000000000009999123100000010000000000000BRITSAACNOR0443
012024111202ITSA4       010ITAUSA      PN      N1   R$  000000000106500000000010710000000001051000000000105700000000010580000000001056000000000105825508000000000019418500000000020541315700000000000000009999123100000010000000000000BRITSAACNPR7443
012024111202JHSF3       010JHSF PART   ON  ED  NM   R$  000000000044500000000004530000000000443000000000044700000000004440000000000444000000000044603931000000000002119400000000000947786100000000000000009999123100000010000000000000BRJHSFACNOR2141
012024111202NGRD3       010NEOGRID     ON      NM   R$  000000000271000000000028890000000002710000000000282800000000028890000000002871000000000288900318000000000000068700000000000194338900000000000000009999123100000010000000000000BRNGRDACNOR3106
012024111202NINJ3       010GETNINJAS   ON      NM   R$  000000000045200000000004650000000000450000000000045500000000004600000000000451000000000046900065000000000000017600000000000008025100000000000000009999123100000010000000000000BRNINJACNOR5101
012024111202NORD3       010NORDON MET  ON           R$  000000000069500000000007500000000000695000000000072200000000007500000000000700000000000075000002000000000000000200000000000000144500000000000000009999123100000010000000000000BRNORDACNOR7135
012024111202NTCO3       010GRUPO NATURAON      NM   R$  000000000141900000000014550000000001414000000000143000000000014280000000001428000000000143015629000000000004546300000000006504527900000000000000009999123100000010000000000000BRNTCOACNOR5106
012024111202QUAL3       010QUALICORP   ON      NM   R$  000000000022300000000002320000000000210000000000022300000000002290000000000226000000000022905661000000000006438600000000001441358100000000000000009999123100000010000000000000BRQUALACNOR6120
012024111202BPAC11      010BTGP BANCO  UNT     N2   R$  000000000336000000000034290000000003275000000000336700000000033900000000003388000000000339138261000000000017462200000000058806221900000000000000009999123100000010000000000000BRBPACUNT006119
012024111202BPAC3       010BTGP BANCO  ON      N2   R$  000000000157900000000016230000000001548000000000158400000000015720000000001572000000000157500098000000000000015400000000000024394100000000000000009999123100000010000000000000BRBPACACNOR7134
012024111202BPAC5       010BTGP BANCO  PNA     N2   R$  000000000088800000000009110000000000864000000000088500000000009090000000000866000000000090900065000000000000010900000000000009654500000000000000009999123100000010000000000000BRBPACACNPA0134
012024111202CRFB3       010CARREFOUR BRON      NM   R$  000000000069900000000007000000000000685000000000069000000000006860000000000685000000000068612906000000000006651600000000004590206900000000000000009999123100000010000000000000BRCRFBACNOR2116
012024111202RADL3       010RAIADROGASILON      NM   R$  000000000252100000000025680000000002521000000000253700000000025220000000002519000000000252320176000000000008469500000000021493744700000000000000009999123100000010000000000000BRRADLACNOR0158
012024111202SNSY3       010SANSUY      ON           R$  000000000109500000000010970000000001095000000000109600000000010970000000001050000000000109600002000000000000000600000000000000658000000000000000009999123100000010000000000000BRSNSYACNOR2113
012024111202SNSY5       010SANSUY      PNA          R$  000000000048100000000004940000000000478000000000047900000000004940000000000462000000000049600011000000000000004900000000000002348000000000000000009999123100000010000000000000BRSNSYACNPA5111
012024111202HETA4       010HERCULES    PN           R$  000000000066500000000006650000000000601000000000061900000000006010000000000601000000000065700003000000000000000700000000000000433400000000000000009999123100000010000000000000BRHETAACNPR9136
012024111202CCRO3       010CCR SA      ON  ED  NM   R$  000000000118000000000012020000000001178000000000118700000000011870000000001182000000000118711198000000000006445900000000007653822400000000000000009999123100000010000000000000BRCCROACNOR2146
012024111202CEAB3       010CEA MODAS   ON      NM   R$  000000000134000000000013500000000001285000000000130900000000012940000000001294000000000129505449000000000001595200000000002089665400000000000000009999123100000010000000000000BRCEABACNOR1102
012024111202CEBR3       010CEB         ON           R$  000000000185600000000018710000000001856000000000186400000000018710000000001858000000000188000007000000000000000800000000000001491800000000000000009999123100000010000000000000BRCEBRACNOR5125
012024111202CEBR5       010CEB         PNA          R$  000000000166900000000016690000000001669000000000166900000000016690000000001640000000000166900002000000000000000400000000000000667600000000000000009999123100000010000000000000BRCEBRACNPA8124
012024111202CEBR6       010CEB         PNB          R$  000000000183000000000018370000000001792000000000180200000000018000000000001799000000000181000033000000000000010600000000000019108700000000000000009999123100000010000000000000BRCEBRACNPB6124
012024111202CEDO3       010CEDRO       ON      N1   R$  000000000240000000000024000000000002200000000000230000000000022000000000002200000000000240000002000000000000000200000000000000460000000000000000009999123100000010000000000000BRCEDOACNOR8096
012024111202CEEB3       010COELBA      ON           R$  000000000394000000000039400000000003940000000000394000000000039400000000003750000000000400000001000000000000000100000000000000394000000000000000009999123100000010000000000000BRCEEBACNOR3200
012024111202CGAS3       010COMGAS      ON           R$  000000001328000000000132800000000013200000000001324700000000132000000000012414000000001319000004000000000000000500000000000006623800000000000000009999123100000010000000000000BRCGASACNOR0164
012024111202CGAS5       010COMGAS      PNA          R$  000000001350200000000138000000000012985000000001354800000000137000000000013600000000001380000024000000000000003100000000000042000200000000000000009999123100000010000000000000BRCGASACNPA3161
012024111202CGRA3       010GRAZZIOTIN  ON           R$  000000000247800000000024810000000002459000000000247000000000024810000000002481000000000254000008000000000000001200000000000002965000000000000000009999123100000010000000000000BRCGRAACNOR2083
012024111202CGRA4       010GRAZZIOTIN  PN           R$  000000000251800000000025180000000002458000000000248700000000024800000000002470000000000250800018000000000000002200000000000005471400000000000000009999123100000010000000000000BRCGRAACNPR9083
012024111202CSUD3       010CSU DIGITAL ON      NM   R$  000000000154400000000015440000000001522000000000153100000000015340000000001525000000000153400216000000000000033400000000000051149400000000000000009999123100000010000000000000BRCSUDACNOR5111
012024111202CURY3       010CURY S/A    ON      NM   R$  000000000225400000000022980000000002246000000000226800000000022800000000002277000000000228308647000000000002058900000000004671055800000000000000009999123100000010000000000000BRCURYACNOR3110
012024111202CVCB3       010CVC BRASIL  ON      NM   R$  000000000020700000000002120000000000205000000000020800000000002120000000000211000000000021206526000000000016723200000000003484714500000000000000009999123100000010000000000000BRCVCBACNOR1116
012024111202ENEV3       010ENEVA       ON      NM   R$  000000000122500000000012370000000001220000000000122900000000012280000000001227000000000122819903000000000006057400000000007449536100000000000000009999123100000010000000000000BRENEVACNOR8106
012024111202GUAR3       010GUARARAPES  ON      NM   R$  000000000089300000000008930000000000847000000000086100000000008480000000000848000000000085003651000000000001146400000000000987088500000000000000009999123100000010000000000000BRGUARACNOR4173
012024111202HAGA3       010HAGA S/A    ON           R$  000000000024400000000002510000000000241000000000024500000000002490000000000241000000000024900029000000000000018500000000000004533900000000000000009999123100000010000000000000BRHAGAACNOR7103
012024111202HAGA4       010HAGA S/A    PN           R$  000000000012800000000001340000000000128000000000013000000000001320000000000129000000000013100038000000000000024400000000000003195100000000000000009999123100000010000000000000BRHAGAACNPR4103
012024111202HAPV3       010HAPVIDA     ON      NM   R$  000000000031700000000003330000000000315000000000032500000000003310000000000330000000000033146935000000000079440500000000025882363000000000000000009999123100000010000000000000BRHAPVACNOR4115
012024111202ARML3       010ARMAC       ON      NM   R$  000000000074200000000007580000000000725000000000073900000000007340000000000734000000000073502395000000000000569900000000000421278900000000000000009999123100000010000000000000BRARMLACNOR1113
012024111202ASAI3       010ASSAI       ON      NM   R$  000000000070800000000007280000000000700000000000071800000000007210000000000720000000000072432305000000000026167100000000018812324700000000000000009999123100000010000000000000BRASAIACNOR0106
012024111202SMFT3       010SMART FIT   ON      NM   R$  000000000201700000000020610000000002016000000000203600000000020190000000002018000000000203308199000000000001884100000000003836306900000000000000009999123100000010000000000000BRSMFTACNOR1112
012024111202SMTO3       010SAO MARTINHOON      NM   R$  000000000251600000000025160000000002375000000000242000000000024240000000002422000000000242416736000000000004361700000000010558450300000000000000009999123100000010000000000000BRSMTOACNOR3127
012024111202VALE3       010VALE        ON      NM   R$  000000000585800000000058590000000005720000000000576300000000057320000000005731000000000573358944000000000026967600000000155438308700000000000000009999123100000010000000000000BRVALEACNOR0211
012024111202ITUB3       010ITAUUNIBANCOON  EJ  N1   R$  000000000304800000000030580000000003015000000000303400000000030330000000003028000000000303302308000000000000431600000000001309683300000000000000009999123100000010000000000000BRITUBACNOR4343
012024111202ITUB4       010ITAUUNIBANCOPN  EJ  N1   R$  000000000351500000000035280000000003466000000000348900000000034700000000003469000000000347237768000000000023469800000000081891411400000000000000009999123100000010000000000000BRITUBACNPR1343
012024111202MATD3       010MATER DEI   ON      NM   R$  000000000045700000000004570000000000436000000000044200000000004450000000000445000000000044601104000000000001304900000000000577185300000000000000009999123100000010000000000000BRMATDACNOR4104
012024111202MBLY3       010MOBLY       ON      NM   R$  000000000020300000000002110000000000199000000000020800000000002100000000000207000000000021000228000000000000759100000000000158095700000000000000009999123100000010000000000000BRMBLYACNOR5101
012024111202MDIA3       010M.DIASBRANCOON      NM   R$  000000000229600000000023800000000002277000000000232300000000023450000000002345000000000235007506000000000002039000000000004736695200000000000000009999123100000010000000000000BRMDIAACNOR7136
012024111202MDNE3       010MOURA DUBEUXON      NM   R$  000000000160300000000016150000000001549000000000157200000000015560000000001556000000000156503367000000000000803100000000001262960700000000000000009999123100000010000000000000BRMDNEACNOR9100
012024111202MEAL3       010IMC S/A     ON      NM   R$  000000000013000000000001390000000000130000000000013600000000001380000000000138000000000013900551000000000000522300000000000071490000000000000000009999123100000010000000000000BRMEALACNOR9105
012024111202MELK3       010MELNICK     ON      NM   R$  000000000036900000000003750000000000360000000000036700000000003640000000000364000000000037001063000000000001063400000000000391283700000000000000009999123100000010000000000000BRMELKACNOR8111
012024111202MGEL4       010MANGELS INDLPN           R$  000000000078100000000007810000000000769000000000077600000000007690000000000750000000000078100006000000000000001000000000000000776400000000000000009999123100000010000000000000BRMGELACNPR3147
012024111202MGLU3       010MAGAZ LUIZA ON      NM   R$  000000000094400000000009590000000000923000000000093700000000009230000000000923000000000092420845000000000029553400000000027712155000000000000000009999123100000010000000000000BRMGLUACNOR2125
012024111202PORT3       010WILSON SONS ON      NM   R$  000000000158000000000015880000000001575000000000157900000000015770000000001575000000000158101610000000000000634300000000001002085700000000000000009999123100000010000000000000BRPORTACNOR8110
012024111202POSI3       010POSITIVO TECON      NM   R$  000000000060300000000006080000000000593000000000060000000000005990000000000596000000000059902056000000000000971100000000000582730100000000000000009999123100000010000000000000BRPOSIACNOR9116
012024111202SOJA3       010BOA SAFRA   ON      NM   R$  000000000124300000000012700000000001238000000000125900000000012700000000001261000000000127002571000000000000637400000000000803102000000000000000009999123100000010000000000000BRSOJAACNOR9106
012024111202SRNA3       010SERENA      ON      NM   R$  000000000072500000000007250000000000706000000000071200000000007090000000000708000000000070907497000000000004044200000000002879829200000000000000009999123100000010000000000000BRSRNAACNOR4100
012024111202STBP3       010SANTOS BRP  ON      NM   R$  000000000127400000000012830000000001269000000000127500000000012820000000001280000000000128207430000000000005155900000000006574356500000000000000009999123100000010000000000000BRSTBPACNOR3133
012024111202SUZB3       010SUZANO S.A. ON      NM   R$  000000000581700000000059410000000005810000000000590200000000059380000000005931000000000593922909000000000005850600000000034535592300000000000000009999123100000010000000000000BRSUZBACNOR0130
012024111202ONCO3       010ONCOCLINICASON      NM   R$  000000000044400000000004450000000000423000000000043500000000004450000000000438000000000044504144000000000004595000000000002000612300000000000000009999123100000010000000000000BRONCOACNOR6101
012024111202OPCT3       010OCEANPACT   ON      NM   R$  000000000060900000000006150000000000604000000000060800000000006120000000000607000000000061201298000000000000817700000000000497278700000000000000009999123100000010000000000000BROPCTACNOR0100
012024111202ORVR3       010ORIZON      ON      NM   R$  000000000474800000000047960000000004661000000000471400000000047150000000004700000000000472001934000000000000309000000000001456839600000000000000009999123100000010000000000000BRORVRACNOR0101
012024111202TFCO4       010TRACK FIELD PN      N2   R$  000000000097300000000009810000000000959000000000096500000000009590000000000959000000000097000941000000000001495500000000001443337600000000000000009999123100000010000000000000BRTFCOACNPR8115
012024111202TGMA3       010TEGMA       ON  EDJ NM   R$  000000000314200000000031810000000003051000000000316200000000031680000000003168000000000318001607000000000000472000000000001492515900000000000000009999123100000010000000000000BRTGMAACNOR7146
012024111202TIMS3       010TIM         ON      NM   R$  000000000165300000000016580000000001634000000000165000000000016540000000001652000000000165416525000000000009799200000000016170185100000000000000009999123100000010000000000000BRTIMSACNOR5118
012024111202TOTS3       010TOTVS       ON      NM   R$  000000000298300000000030380000000002970000000000300000000000029980000000002998000000000300812994000000000002932900000000008800235100000000000000009999123100000010000000000000BRTOTSACNOR8145
012024111202TPIS3       010TRIUNFO PARTON      NM   R$  000000000069000000000006950000000000659000000000067400000000006900000000000687000000000069000205000000000000052500000000000035386900000000000000009999123100000010000000000000BRTPISACNOR8118
012024111202ROMI3       010ROMI        ON      NM   R$  000000000097000000000009710000000000952000000000096000000000009690000000000962000000000096900964000000000000210700000000000202400100000000000000009999123100000010000000000000BRROMIACNOR8196
012024111202RSUL4       010RIOSULENSE  PN           R$  000000000608000000000062930000000006020000000000606100000000060480000000005970000000000604900017000000000000002000000000000012123000000000000000009999123100000010000000000000BRRSULACNPR3114
012024111202UCAS3       010UNICASA     ON      NM   R$  000000000021500000000002170000000000211000000000021300000000002110000000000211000000000021200125000000000000043800000000000009360900000000000000009999123100000010000000000000BRUCASACNOR1113
012024111202UGPA3       010ULTRAPAR    ON      NM   R$  000000000206300000000020640000000002015000000000203900000000020430000000002042000000000204314585000000000004642300000000009468709100000000000000009999123100000010000000000000BRUGPAACNOR8156
012024111202ODPV3       010ODONTOPREV  ON  ED  NM   R$  000000000108000000000010970000000001059000000000107600000000010640000000001064000000000106704783000000000001384900000000001490391400000000000000009999123100000010000000000000BRODPVACNOR4205
012024111202PRNR3       010PRINER      ON      NM   R$  000000000144700000000014620000000001424000000000144400000000014520000000001451000000000146001838000000000000308700000000000445903700000000000000009999123100000010000000000000BRPRNRACNOR4109
012024111202PSSA3       010PORTO SEGUROON      NM   R$  000000000391100000000039780000000003886000000000392800000000039210000000003919000000000392713889000000000005128200000000020148395600000000000000009999123100000010000000000000BRPSSAACNOR7156
012024111202PTBL3       010PORTOBELLO  ON      NM   R$  000000000041300000000004170000000000402000000000040900000000004090000000000405000000000040903238000000000000544900000000000222875900000000000000009999123100000010000000000000BRPTBLACNOR8132
012024111202PTNT3       010PETTENATI   ON           R$  000000000092300000000009340000000000910000000000092000000000009100000000000897000000000091200004000000000000000400000000000000368300000000000000009999123100000010000000000000BRPTNTACNOR6043
012024111202PTNT4       010PETTENATI   PN           R$  000000000068000000000006800000000000644000000000066400000000006440000000000643000000000068000008000000000000001800000000000001196200000000000000009999123100000010000000000000BRPTNTACNPR3048
012024111202RAIL3       010RUMO S.A.   ON      NM   R$  000000000196100000000020070000000001961000000000199200000000019960000000001994000000000199727090000000000019037000000000037937984100000000000000009999123100000010000000000000BRRAILACNOR9105
012024111202MYPK3       010IOCHP-MAXIONON      NM   R$  000000000119000000000011900000000001163000000000117600000000011800000000001175000000000118007120000000000001644500000000001934090800000000000000009999123100000010000000000000BRMYPKACNOR7156
012024111202PATI3       010PANATLANTICAON           R$  000000000270000000000027000000000002700000000000270000000000027000000000002450000000000325000002000000000000000200000000000000540000000000000000009999123100000010000000000000BRPATIACNOR6067
012024111202PCAR3       010P.ACUCAR-CBDON  ATZ NM   R$  000000000029400000000002940000000000282000000000028700000000002900000000000288000000000029011679000000000013765300000000003953965000000000000000009999123100000010000000000000BRPCARACNOR3168
012024111202RANI3       010IRANI       ON  ED  NM   R$  000000000071300000000007130000000000685000000000069600000000006860000000000685000000000068604135000000000001254800000000000873792700000000000000009999123100000010000000000000BRRANIACNOR5074
012024111202BGIP4       010BANESE      PN           R$  000000000236100000000023610000000002360000000000236000000000023600000000002360000000000242000003000000000000000300000000000000708100000000000000009999123100000010000000000000BRBGIPACNPR8210
012024111202BHIA3       010CASAS BAHIA ON      NM   R$  000000000040600000000004150000000000400000000000040600000000004000000000000400000000000040503197000000000001986700000000000806841400000000000000009999123100000010000000000000BRBHIAACNOR1102
012024111202BPAN4       010BANCO PAN   PN      N1   R$  000000000078800000000007930000000000761000000000077200000000007700000000000770000000000077204003000000000002412100000000001863221900000000000000009999123100000010000000000000BRBPANACNPR1115
012024111202RAPT3       010RANDON PART ON      N1   R$  000000000094100000000009490000000000933000000000094100000000009430000000000935000000000094300097000000000000023000000000000021659300000000000000009999123100000010000000000000BRRAPTACNOR7163
012024111202RAPT4       010RANDON PART PN      N1   R$  000000000107300000000010940000000001067000000000107700000000010710000000001070000000000107307212000000000002054300000000002213045300000000000000009999123100000010000000000000BRRAPTACNPR4163
012024111202GRND3       010GRENDENE    ON      NM   R$  000000000054500000000005450000000000535000000000053800000000005390000000000535000000000053902123000000000000990400000000000533493100000000000000009999123100000010000000000000BRGRNDACNOR3175
012024111202JSLG3       010JSL         ON      NM   R$  000000000077800000000007780000000000743000000000075500000000007490000000000743000000000074901463000000000000478100000000000361230200000000000000009999123100000010000000000000BRJSLGACNOR2121
012024111202KEPL3       010KEPLER WEBERON  EDJ NM   R$  000000000100700000000010260000000000998000000000101300000000010110000000001010000000000101104924000000000001503600000000001524313400000000000000009999123100000010000000000000BRKEPLACNOR1065
012024111202MRFG3       010MARFRIG     ON      NM   R$  000000000154000000000015710000000001518000000000154800000000015710000000001563000000000157213612000000000004222200000000006539317200000000000000009999123100000010000000000000BRMRFGACNOR0116
012024111202RAIZ4       010RAIZEN      PN      N2   R$  000000000027000000000002700000000000263000000000026600000000002650000000000265000000000026617189000000000012394800000000003301543900000000000000009999123100000010000000000000BRRAIZACNPR6111
012024111202SYNE3       010SYN PROP TECON      NM   R$  000000000088300000000008870000000000874000000000088000000000008780000000000878000000000088001036000000000000382400000000000336558900000000000000009999123100000010000000000000BRSYNEACNOR2103
012024111202RCSL3       010RECRUSUL    ON           R$  000000000041800000000004190000000000388000000000039800000000003940000000000394000000000039602312000000000001634600000000000650867000000000000000009999123100000010000000000000BRRCSLACNOR4134
012024111202RCSL4       010RECRUSUL    PN           R$  000000000018900000000001900000000000141000000000016100000000001500000000000150000000000015106947000000000009398800000000001514898400000000000000009999123100000010000000000000BRRCSLACNPR1134
012024111202RDNI3       010RNI         ON      NM   R$  000000000028200000000002880000000000274000000000027600000000002740000000000251000000000027400022000000000000011000000000000003043100000000000000009999123100000010000000000000BRRDNIACNOR9116
012024111202RDOR3       010REDE D OR   ON      NM   R$  000000000285200000000028950000000002843000000000288200000000028800000000002880000000000288516587000000000007583800000000021860731800000000000000009999123100000010000000000000BRRDORACNOR8114
012024111202SANB11      010SANTANDER BRUNT          R$  000000000264100000000026520000000002614000000000262700000000026140000000002614000000000261711505000000000002785500000000007318712000000000000000009999123100000010000000000000BRSANBCDAM13166
012024111202SANB3       010SANTANDER BRON           R$  000000000125100000000012540000000001238000000000124400000000012430000000001242000000000125100770000000000000152600000000000189866900000000000000009999123100000010000000000000BRSANBACNOR8173
012024111202SANB4       010SANTANDER BRPN           R$  000000000140600000000014060000000001380000000000138800000000013800000000001380000000000138500825000000000000202400000000000281044200000000000000009999123100000010000000000000BRSANBACNPR5173
012024111202TASA3       010TAURUS ARMASON      N2   R$  000000000101600000000010230000000001001000000000101100000000010020000000001003000000000100900044000000000000008600000000000008698500000000000000009999123100000010000000000000BRTASAACNOR7104
012024111202TASA4       010TAURUS ARMASPN      N2   R$  000000000100000000000010200000000000990000000000100200000000009990000000000999000000000100001005000000000000236200000000000236887800000000000000009999123100000010000000000000BRTASAACNPR4104
012024111202TCSA3       010TECNISA     ON      NM   R$  000000000014000000000001430000000000138000000000013900000000001380000000000138000000000014100107000000000000106700000000000014913400000000000000009999123100000010000000000000BRTCSAACNOR3112
012024111202TECN3       010TECHNOS     ON      NM   R$  000000000054300000000005670000000000526000000000054700000000005500000000000549000000000055000385000000000000142200000000000077857700000000000000009999123100000010000000000000BRTECNACNOR6109
012024111202TELB4       010TELEBRAS    PN           R$  000000000081700000000008170000000000775000000000079600000000007750000000000769000000000079100039000000000000009300000000000007408800000000000000009999123100000010000000000000BRTELBACNPR9140
012024111202TEND3       010TENDA       ON      NM   R$  000000000175800000000017910000000001719000000000175400000000017360000000001736000000000174014551000000000006469400000000011347586900000000000000009999123100000010000000000000BRTENDACNOR4111
012024111202ALPA3       010ALPARGATAS  ON      N1   R$  000000000062100000000006270000000000612000000000061700000000006140000000000614000000000063100022000000000000006300000000000003888800000000000000009999123100000010000000000000BRALPAACNOR0231
012024111202ALPA4       010ALPARGATAS  PN      N1   R$  000000000067800000000006840000000000667000000000067600000000006790000000000675000000000068004973000000000002246500000000001518786500000000000000009999123100000010000000000000BRALPAACNPR7232
012024111202ALPK3       010ESTAPAR     ON      NM   R$  000000000028200000000002840000000000278000000000028000000000002830000000000282000000000028300209000000000000063300000000000017762900000000000000009999123100000010000000000000BRALPKACNOR9101
012024111202ALUP11      010ALUPAR      UNT     N2   R$  000000000285000000000028680000000002825000000000285100000000028600000000002853000000000286103863000000000000637500000000001817908100000000000000009999123100000010000000000000BRALUPCDAM15120
012024111202ALUP3       010ALUPAR      ON      N2   R$  000000000096700000000009800000000000950000000000096500000000009630000000000964000000000097400107000000000000016000000000000015448000000000000000009999123100000010000000000000BRALUPACNOR8120
012024111202ALUP4       010ALUPAR      PN      N2   R$  000000000094900000000009500000000000911000000000093200000000009500000000000940000000000095000157000000000000029700000000000027692100000000000000009999123100000010000000000000BRALUPACNPR5120
012024111202AMAR3       010LOJAS MARISAON      NM   R$  000000000009200000000000920000000000089000000000009000000000000890000000000089000000000009000275000000000000083900000000000007590700000000000000009999123100000010000000000000BRAMARACNOR4115
012024111202AMBP3       010AMBIPAR     ON      NM   R$  000000001640000000000169840000000015007000000001585500000000150070000000015000000000001500701564000000000000281100000000004457049400000000000000009999123100000010000000000000BRAMBPACNOR6103
012024111202VIVR3       010VIVER       ON      NM   R$  000000000014200000000001430000000000133000000000013700000000001330000000000133000000000013700106000000000000088100000000000012077100000000000000009999123100000010000000000000BRVIVRACNOR4123
012024111202VIVT3       010TELEF BRASILON           R$  000000000525300000000053200000000005201000000000523700000000052250000000005225000000000522812977000000000002365500000000012389478100000000000000009999123100000010000000000000BRVIVTACNOR0184
012024111202VLID3       010VALID       ON  EJ  NM   R$  000000000260200000000026020000000002465000000000249900000000024670000000002467000000000248703280000000000000568500000000001420939000000000000000009999123100000010000000000000BRVLIDACNOR5145
012024111202VSTE3       010VESTE       ON      NM   R$  000000000100000000000010000000000000983000000000098900000000009900000000000974000000000099000016000000000000002700000000000002672900000000000000009999123100000010000000000000BRVSTEACNOR5103
012024111202VTRU3       010VITRUEDUCA  ON      NM   R$  000000000083200000000008760000000000830000000000085500000000008370000000000837000000000084300431000000000000078300000000000066984700000000000000009999123100000010000000000000BRVTRUACNOR3100
012024111202VULC3       010VULCABRAS   ON      NM   R$  000000000160900000000016180000000001587000000000160000000000016170000000001604000000000161703523000000000000703300000000001125931000000000000000009999123100000010000000000000BRVULCACNOR2163
012024111207TXRX4       010TEX RENAUX  PN           R$  000000000022100000000002220000000000221000000000022100000000002220000000000217000000000022500003000000000000002200000000000000488300000000000000009999123100000010000000000000BRTXRXACNPR0142
012024111207SEQL3       010SEQUOIA LOG ON      NM   R$  000000000036900000000003720000000000345000000000035500000000003500000000000350000000000035400903000000000000526700000000000187229200000000000000009999123100000010000000000000BRSEQLACNOR2103
012024111207NUTR3       010NUTRIPLANT  ON      MA   R$  000000000037100000000003710000000000322000000000034000000000003470000000000336000000000034700047000000000000013600000000000004627400000000000000009999123100000010000000000000BRNUTRACNOR0104
012024111208LIGT3       010LIGHT S/A   ON      NM   R$  000000000049300000000005020000000000480000000000048500000000004860000000000484000000000048601433000000000000802700000000000389961600000000000000009999123100000010000000000000BRLIGTACNOR2125
012024111208OIBR3       010OI          ON      N1   R$  000000000024900000000002500000000000091000000000011700000000001000000000000100000000000010115283000000000031220900000000003667940400000000000000009999123100000010000000000000BROIBRACNOR1112
012024111208OIBR4       010OI          PN      N1   R$  000000000109700000000011000000000000872000000000095100000000009790000000000950000000000097900792000000000000160800000000000153067600000000000000009999123100000010000000000000BROIBRACNPR8111
012024111208ATMP3       010ATMASA      ON           R$  000000000013100000000001320000000000126000000000012800000000001320000000000123000000000013200018000000000000005700000000000000732100000000000000009999123100000010000000000000BRATMPACNOR8100
012024111208AGXY3       010AGROGALAXY  ON      NM   R$  000000000004300000000000430000000000040000000000004100000000000410000000000040000000000004100189000000000000111500000000000004633200000000000000009999123100000010000000000000BRAGXYACNOR4103
012024111208BDLL4       010BARDELLA    PN           R$  000000000090000000000009000000000000900000000000090000000000009000000000000890000000000097000001000000000000000100000000000000090000000000000000009999123100000010000000000000BRBDLLACNPR8151
012024111208PMAM3       010PARANAPANEMAON      NM   R$  000000000010700000000001110000000000105000000000010800000000001070000000000106000000000010700343000000000000515700000000000056069000000000000000009999123100000010000000000000BRPMAMACNOR3040
012024111208NEXP3       010NEXPE       ON           R$  000000000043000000000004310000000000430000000000043000000000004300000000000410000000000044700004000000000000000500000000000000215200000000000000009999123100000010000000000000BRNEXPACNOR0101
012024111208JFEN3       010JOAO FORTES ON           R$  000000000002200000000000230000000000021000000000002100000000000210000000000021000000000002200138000000000000368500000000000007928700000000000000009999123100000010000000000000BRJFENACNOR0059
012024111208HOOT4       010HOTEIS OTHONPN           R$  000000000023400000000002340000000000228000000000022900000000002290000000000226000000000023300022000000000000003200000000000000735700000000000000009999123100000010000000000000BRHOOTACNPR9015
012024111208CTSA3       010SANTANENSE  ON           R$  000000000019600000000001960000000000196000000000019600000000001960000000000191000000000023000004000000000000001700000000000000333200000000000000009999123100000010000000000000BRCTSAACNOR3062
012024111208CTSA4       010SANTANENSE  PN           R$  000000000011300000000001130000000000113000000000011300000000001130000000000101000000000011300004000000000000000400000000000000045200000000000000009999123100000010000000000000BRCTSAACNPR0062
012024111208OSXB3       010OSX BRASIL  ON      NM   R$  000000000048600000000004900000000000486000000000048900000000004890000000000461000000000049900006000000000000002800000000000001370700000000000000009999123100000010000000000000BROSXBACNOR8109
012024111208RNEW11      010RENOVA      UNT     N2   R$  000000000032000000000003230000000000315000000000031600000000003150000000000310000000000031900021000000000000007200000000000002282200000000000000009999123100000010000000000000BRRNEWCDAM15110
012024111208RNEW3       010RENOVA      ON      N2   R$  000000000010500000000001100000000000104000000000010600000000001040000000000104000000000010600094000000000000056600000000000006033000000000000000009999123100000010000000000000BRRNEWACNOR8110
012024111208RNEW4       010RENOVA      PN      N2   R$  000000000010700000000001080000000000102000000000010400000000001020000000000102000000000010400198000000000000222600000000000023265900000000000000009999123100000010000000000000BRRNEWACNPR5110
012024111208RPMG3       010PET MANGUINHON           R$  000000000026300000000002660000000000258000000000026000000000002580000000000254000000000025800014000000000000003200000000000000832800000000000000009999123100000010000000000000BRRPMGACNOR9194
012024111208RSID3       010ROSSI RESID ON      NM   R$  000000000032900000000003290000000000310000000000031800000000003250000000000315000000000032500518000000000000090700000000000028868500000000000000009999123100000010000000000000BRRSIDACNOR8120
012024111208TEKA4       010TEKA        PN           R$  000000000295000000000029500000000002950000000000295000000000029500000000001645000000000299800003000000000000000600000000000001770000000000000000009999123100000010000000000000BRTEKAACNPR3140
012024111208AMER3       010AMERICANAS  ON      NM   R$  000000000033900000000003520000000000325000000000033600000000003340000000000334000000000033508938000000000016228200000000005459689300000000000000009999123100000010000000000000BRAMERACNOR6103
012024111210LIGT11      010LIGHT S/A   DIR     NM   R$  000000000000100000000000010000000000001000000000000100000000000010000000000000000000000000100080000000000000138100000000000000138100000000000000009999123100000010000000000000BRLIGTD01M16124
012024111210LIGT13      010LIGHT S/A   DIR     NM   R$  000000000000100000000000010000000000001000000000000100000000000010000000000000000000000000100006000000000000007800000000000000007800000000000000009999123100000010000000000000BRLIGTD02M15124
012024111210BSLI2       010BRB BANCO   DIR PRE      R$  000000000003400000000000340000000000012000000000001900000000000120000000000008000000000001700013000000000000003200000000000000063400000000000000009999123100000010000000000000BRBSLID03PR3194
012024111210HBSA1       010HIDROVIAS   DIR ORD NM   R$  000000000000100000000000010000000000001000000000000100000000000010000000000000000000000000100023000000000000029300000000000000029300000000000000009999123100000010000000000000BRHBSAD01OR5100
012024111210MBLY1       010MOBLY       DIR ORD NM   R$  000000000000100000000000010000000000001000000000000100000000000010000000000000000000000000100009000000000000015400000000000000015400000000000000009999123100000010000000000000BRMBLYD01OR0100
012024111210MBLY11      010MOBLY       DIR     NM   R$  000000000003000000000000300000000000009000000000001400000000000100000000000010000000000001100032000000000000015300000000000000221600000000000000009999123100000010000000000000BRMBLYD01M18100
012024111212BRCO11      010FII BRESCO  CI  ER       R$  000000001035000000000104500000000010349000000001039600000000103510000000010351000000001035505019000000000000025988000000000270195000000000000000009999123100000010000000000000BRBRCOCTF007162
012024111212BRCR11      010FII BC FUND CI  ER       R$  000000000434000000000043700000000004260000000000430400000000042800000000004280000000000428303776000000000000035791000000000154077602000000000000009999123100000010000000000000BRBRCRCTF000272
012024111212CNES11      010FII CENESP  CI           R$  000000000013000000000001310000000000129000000000012900000000001310000000000129000000000013101267000000000000060963000000000007900942000000000000009999123100000010000000000000BRCNESCTF001264
012024111212KNCR11      010FII KINEA RICI  ER       R$  000000001029100000000103170000000010280000000001030100000000103000000000010300000000001031609182000000000000111934000000001153082933000000000000009999123100000010000000000000BRKNCRCTF000246
012024111212KNHF11      010FII KINEA HFCI  ER       R$  000000000880000000000088300000000008732000000000878500000000087700000000008764000000000877002909000000000000036667000000000322156168000000000000009999123100000010000000000000BRKNHFCTF004116
012024111212KNHY11      010FII KINEA HYCI  ER       R$  000000001014100000000102000000000010141000000001017400000000101980000000010176000000001019803171000000000000047285000000000481111182000000000000009999123100000010000000000000BRKNHYCTF005177
012024111212KNIP11      010FII KINEA IPCI  ER       R$  000000000910000000000091400000000009084000000000911600000000090840000000009084000000000911107436000000000000084262000000000768159760000000000000009999123100000010000000000000BRKNIPCTF001198
012024111212KNRE11      010FII KII REALCI           R$  000000000002500000000000280000000000025000000000002500000000000270000000000025000000000002700028000000000000004436000000000000114195000000000000009999123100000010000000000000BRKNRECTF006129
012024111212KNRI11      010FII KINEA   CI  ER       R$  000000001357400000000136780000000013479000000001358600000000134950000000013495000000001350007120000000000000050793000000000690119890000000000000009999123100000010000000000000BRKNRICTF007269
012024111212KNSC11      010FII KINEA SCCI  ER       R$  000000000085700000000008600000000000846000000000085100000000008470000000000847000000000084913240000000000000701172000000000597075503000000000000009999123100000010000000000000BRKNSCCTF008153
012024111212KNUQ11      010FII KINEA UNCI  ER       R$  000000001025300000000102890000000010235000000001025500000000102500000000010250000000001027004704000000000000031582000000000323894713000000000000009999123100000010000000000000BRKNUQCTF004118
012024111212DAMA11      010FII DAMA    CI  ER       R$  000000000098000000000009800000000000914000000000092400000000009790000000000914000000000097900010000000000000000851000000000000786957000000000000009999123100000010000000000000BRDAMACTF007106
012024111212KORE11      010FII KORE    CI  ER       R$  000000000778200000000078980000000007781000000000780900000000078190000000007808000000000781902662000000000000045180000000000352831150000000000000009999123100000010000000000000BRKORECTF012111
012024111212EURO11      010FII EUROPAR CI  ER       R$  000000002239800000000223980000000021801000000002208200000000223900000000021803000000002235000032000000000000000122000000000002694107000000000000009999123100000010000000000000BREUROCTF011364
012024111212EXES11      010FII EXES    CI           R$  000000000096000000000009600000000000958000000000095900000000009600000000000958000000000096000021000000000000006918000000000006640516000000000000009999123100000010000000000000BREXESCTF006130
012024111212LASC11      010FII LEGATUS CI  ER       R$  000000001063000000000109990000000010108000000001072200000000109980000000010998000000001100000012000000000000000093000000000000997179000000000000009999123100000010000000000000BRLASCCTF003158
012024111212LIFE11      010FII LIFE    CI  ER       R$  000000000096800000000009690000000000950000000000095600000000009510000000000951000000000096200643000000000000048622000000000046488325000000000000009999123100000010000000000000BRLIFECTF017135
012024111212INLG11      010FII INTER LGCI  ER       R$  000000000751100000000075950000000007350000000000743400000000074720000000007472000000000747300183000000000000001263000000000009390015000000000000009999123100000010000000000000BRINLGCTF008102
012024111212INRD11      010FII INTER RDCI  ER       R$  000000000700000000000070750000000007000000000000704100000000070600000000007040000000000706000051000000000000000317000000000002232162000000000000009999123100000010000000000000BRINRDCTF002102
012024111212CJCT11      010FII CJCTOWERCI  ER       R$  000000000516200000000052980000000005162000000000525900000000052000000000005076000000000529000004000000000000000101000000000000531192000000000000009999123100000010000000000000BRCJCTCTF001120
012024111212CLIN11      010FII CLAVE INCI  ER       R$  000000000918800000000091880000000009050000000000907700000000091030000000009052000000000910303721000000000000015519000000000140875771000000000000009999123100000010000000000000BRCLINCTF007113
012024111212CXAG11      010FII CAIXA AGCI  ER       R$  000000000717500000000071960000000007023000000000711400000000070600000000007038000000000706100235000000000000004050000000000028814356000000000000009999123100000010000000000000BRCXAGCTF003133
012024111212CXCE11      010FII CX CEDAECI  ER       R$  000000000399700000000039970000000003927000000000395800000000039490000000003936000000000395000025000000000000000112000000000000443308000000000000009999123100000010000000000000BRCXCECTF004274
012024111212CXCI11      010FII CAIXA CICI  ER       R$  000000000726000000000073390000000007200000000000725700000000072000000000007185000000000720000018000000000000000076000000000000551582000000000000009999123100000010000000000000BRCXCICTF005132
012024111212CXCO11      010FII CEF CORPCI  ER       R$  000000000550000000000055490000000005383000000000545800000000054100000000005401000000000541000193000000000000004578000000000024989215000000000000009999123100000010000000000000BRCXCOCTF003143
012024111212CXRI11      010FII CX RBRAVCI  ER       R$  000000000721100000000074360000000006900000000000706900000000074360000000007001000000000743600012000000000000000038000000000000268648000000000000009999123100000010000000000000BRCXRICTF003233
012024111212CXTL11      010FII CX TRX  CI  ER       R$  000000002125100000000212510000000021200000000002122200000000212000000000021210000000002249700006000000000000000020000000000000424453000000000000009999123100000010000000000000BRCXTLCTF003242
012024111212CYCR11      010FII CYRELA  CI  ER       R$  000000000086600000000008770000000000853000000000086100000000008570000000000857000000000085902065000000000000083260000000000071715950000000000000009999123100000010000000000000BRCYCRCTF004144
012024111212EQIR11      010FII EQI RECECI           R$  000000000083700000000008440000000000820000000000083200000000008300000000000828000000000083001571000000000000031528000000000026246595000000000000009999123100000010000000000000BREQIRCTF003137
012024111212JASC11      010FII JASC RENCI           R$  000000001030000000000103000000000010300000000001030000000000103000000000000100000000001100000001000000000000000002000000000000020600000000000000009999123100000010000000000000BRJASCCTF007128
012024111212ASMT11      010FII ASA MET CI           R$  000000000359900000000035990000000003556000000000359600000000035970000000003503000000000359700009000000000000000092000000000000330919000000000000009999123100000010000000000000BRASMTCTF005107
012024111212AZPL11      010FII AZPL    CI  ER       R$  000000000070500000000007220000000000702000000000070800000000007020000000000702000000000070800369000000000000059555000000000042182202000000000000009999123100000010000000000000BRAZPLCTF000105
012024111212SAPI11      010FII SAPI    CI  ER       R$  000000000085800000000008620000000000845000000000085400000000008450000000000844000000000085800674000000000000035036000000000029935112000000000000009999123100000010000000000000BRSAPICTF001114
012024111212SARE11      010FII SANT RENCI  ER       R$  000000000038500000000003860000000000369000000000038100000000003810000000000375000000000038102639000000000000167537000000000063854457000000000000009999123100000010000000000000BRSARECTF006162
012024111212TRBL11      010FII SDI LOG CI  ER       R$  000000000665600000000066990000000006557000000000663200000000066950000000006691000000000669500791000000000000018437000000000122289313000000000000009999123100000010000000000000BRTRBLCTF007117
012024111212TRNT11      010FII TORRE NOCI           R$  000000001139900000000115000000000011399000000001148500000000115000000000010700000000001199900076000000000000000848000000000009739794000000000000009999123100000010000000000000BRTRNTCTF013341
012024111212TRXB11      010FII TRX R IICI  ER       R$  000000001355100000000149160000000013551000000001394000000000137000000000012501000000001370000008000000000000000026000000000000362449000000000000009999123100000010000000000000BRTRXBCTF002156
012024111212TRXF11      010FII TRX REALCI  ER       R$  000000001000600000000100300000000009991000000001000500000000099950000000009995000000001000505108000000000000060317000000000603508134000000000000009999123100000010000000000000BRTRXFCTF003169
012024111212TVRI11      010FII TIVIO RICI  ER       R$  000000000905000000000091800000000008972000000000902500000000090040000000008984000000000900401722000000000000014291000000000128979774000000000000009999123100000010000000000000BRTVRICTF001113
012024111212KISU11      010FII KILIMA  CI  ER       R$  000000000071000000000007210000000000710000000000071600000000007120000000000712000000000071401739000000000000070586000000000050551815000000000000009999123100000010000000000000BRKISUCTF000149
