00COTAHIST.2024BOVESPA 20241113                                                                                                                                                                                                                      
012024111302RENT3       010LOCALIZA    ON      NM   R$  000000000459700000000046200000000004441000000000451000000000045180000000004508000000000451839421000000000011078500000000049964845700000000000000009999123100000010000000000000BRRENTACNOR4197
012024111302GGBR3       010GERDAU      ON      N1   R$  000000000186600000000018930000000001840000000000186800000000018750000000001875000000000189300325000000000000045200000000000084438300000000000000009999123100000010000000000000BRGGBRACNOR1193
012024111302GGBR4       010GERDAU      PN      N1   R$  000000000195500000000019890000000001937000000000196900000000019790000000001977000000000198020814000000000010137300000000019966098600000000000000009999123100000010000000000000BRGGBRACNPR8193
012024111302IFCM3       010INFRACOMM   ON      NM   R$  000000000001200000000000130000000000011000000000001200000000000120000000000011000000000001200687000000000004791400000000000058091900000000000000009999123100000010000000000000BRIFCMACNOR8102
012024111302IGTI11      010IGUATEMI S.AUNT     N1   R$  000000000201000000000020280000000001986000000000200100000000020110000000002011000000000201509612000000000002817000000000005638774000000000000000009999123100000010000000000000BRIGTICDAM16106
012024111302IGTI3       010IGUATEMI S.AON      N1   R$  000000000024100000000002410000000000234000000000023600000000002360000000000235000000000023600096000000000000066800000000000015777000000000000000009999123100000010000000000000BRIGTIACNOR8106
012024111302IGTI4       010IGUATEMI S.APN      N1   R$  000000000088100000000008810000000000852000000000086600000000008520000000000851000000000105000004000000000000000400000000000000346600000000000000009999123100000010000000000000BRIGTIACNPR5106
012024111302PCAR3       010P.ACUCAR-CBDON  ATZ NM   R$  000000000029100000000002920000000000283000000000028700000000002880000000000286000000000028812750000000000010444900000000002998998900000000000000009999123100000010000000000000BRPCARACNOR3168
012024111302PDGR3       010PDG REALT   ON      NM   R$  000000000000100000000000020000000000001000000000000100000000000010000000000000000000000000105527000000000325245600000000000326145800000000000000009999123100000010000000000000BRPDGRACNOR8119
012024111302PDTC3       010PADTEC      ON      NM   R$  000000000016500000000001660000000000149000000000015300000000001520000000000152000000000015400211000000000000143700000000000022088800000000000000009999123100000010000000000000BRPDTCACNOR3101
012024111302PETR3       010PETROBRAS   ON      N2   R$  000000000395600000000040140000000003926000000000397900000000039930000000003993000000000400518363000000000010346100000000041172254800000000000000009999123100000010000000000000BRPETRACNOR9206
012024111302PETR4       010PETROBRAS   PN      N2   R$  000000000369500000000037070000000003653000000000368700000000036880000000003688000000000368959867000000000034090000000000125720134100000000000000009999123100000010000000000000BRPETRACNPR6214
012024111302PINE4       010PINE        PN      N2   R$  000000000045000000000004690000000000450000000000046000000000004600000000000457000000000046000619000000000000392000000000000180605000000000000000009999123100000010000000000000BRPINEACNPR8152
012024111302PLPL3       010PLANOEPLANO ON      NM   R$  000000000130700000000013430000000001301000000000131400000000013100000000001305000000000131004147000000000001230200000000001617654800000000000000009999123100000010000000000000BRPLPLACNOR5104
012024111302PNVL3       010DIMED       ON      NM   R$  000000000098500000000009980000000000980000000000098700000000009850000000000984000000000098901499000000000000260000000000000256708400000000000000009999123100000010000000000000BRPNVLACNOR9208
012024111302POMO3       010MARCOPOLO   ON      N2   R$  000000000070100000000007200000000000699000000000070700000000007000000000000699000000000070201762000000000000501800000000000355025900000000000000009999123100000010000000000000BRPOMOACNOR0099
012024111302POMO4       010MARCOPOLO   PN      N2   R$  000000000094500000000009550000000000923000000000093400000000009320000000000932000000000093321289000000000010812000000000010104366100000000000000009999123100000010000000000000BRPOMOACNPR7099
012024111302PORT3       010WILSON SONS ON      NM   R$  000000000157500000000015830000000001567000000000157200000000015730000000001573000000000157802534000000000001104300000000001736998200000000000000009999123100000010000000000000BRPORTACNOR8110
012024111302POSI3       010POSITIVO TECON      NM   R$  000000000060000000000006040000000000588000000000059600000000005950000000000594000000000059501960000000000000891500000000000532000800000000000000009999123100000010000000000000BRPOSIACNOR9116
012024111302PRIO3       010PETRORIO    ON      NM   R$  000000000393000000000039530000000003862000000000389700000000039350000000003935000000000394331583000000000012978500000000050589800500000000000000009999123100000010000000000000BRPRIOACNOR1107
012024111302RAPT4       010RANDON PART PN      N1   R$  000000000107500000000010830000000001060000000000107000000000010710000000001069000000000107405330000000000001546700000000001656224100000000000000009999123100000010000000000000BRRAPTACNPR4163
012024111302CRPG5       010CRISTAL     PNA          R$  000000000243500000000024800000000002430000000000243500000000024800000000002435000000000249900012000000000000002100000000000005114800000000000000009999123100000010000000000000BRCRPGACNPA3119
012024111302CRPG6       010CRISTAL     PNB          R$  000000000250100000000025490000000002501000000000252500000000025490000000002476000000000254900002000000000000000200000000000000505000000000000000009999123100000010000000000000BRCRPGACNPB1119
012024111302CSAN3       010COSAN       ON      NM   R$  000000000113500000000011460000000001123000000000113100000000011430000000001137000000000114324254000000000015499900000000017540615900000000000000009999123100000010000000000000BRCSANACNOR6126
012024111302CRFB3       010CARREFOUR BRON      NM   R$  000000000068900000000006920000000000659000000000066800000000006680000000000668000000000066918904000000000010975600000000007341900600000000000000009999123100000010000000000000BRCRFBACNOR2116
012024111302ENJU3       010ENJOEI      ON      NM   R$  000000000013700000000001400000000000116000000000012200000000001210000000000121000000000012202933000000000002240600000000000274893800000000000000009999123100000010000000000000BRENJUACNOR9100
012024111302EPAR3       010EMBPAR S/A  ON           R$  000000000055500000000005550000000000547000000000055000000000005480000000000547000000000054800013000000000000002000000000000001101400000000000000009999123100000010000000000000BREPARACNOR9105
012024111302EQMA3B      010EQTLMARANHAOON      MB   R$  000000000231800000000023450000000002317000000000233400000000023450000000002330000000000234900005000000000000000500000000000001167000000000000000009999123100000010000000000000BREQMAACNOR8108
012024111302EQPA3       010EQTL PARA   ON           R$  000000000057000000000005910000000000570000000000057400000000005710000000000571000000000057600011000000000000002300000000000001321300000000000000009999123100000010000000000000BREQPAACNOR1111
012024111302EQTL3       010EQUATORIAL  ON      NM   R$  000000000314700000000031720000000003103000000000313300000000031400000000003138000000000314022583000000000006151100000000019271753600000000000000009999123100000010000000000000BREQTLACNOR0131
012024111302BLAU3       010BLAU        ON      NM   R$  000000000151500000000015700000000001506000000000153100000000015650000000001562000000000156601906000000000000248000000000000379791800000000000000009999123100000010000000000000BRBLAUACNOR8115
012024111302BPAN4       010BANCO PAN   PN      N1   R$  000000000077100000000007800000000000760000000000076700000000007650000000000765000000000076908985000000000002723100000000002089653600000000000000009999123100000010000000000000BRBPANACNPR1115
012024111302BRAP3       010BRADESPAR   ON  EJ  N1   R$  000000000166700000000016790000000001651000000000166400000000016660000000001662000000000166600535000000000000109200000000000181732800000000000000009999123100000010000000000000BRBRAPACNOR5149
012024111302BRAP4       010BRADESPAR   PN  EJ  N1   R$  000000000177500000000017910000000001760000000000177000000000017620000000001762000000000177024662000000000010250000000000018151893500000000000000009999123100000010000000000000BRBRAPACNPR2149
012024111302MILS3       010MILLS       ON      NM   R$  000000000100400000000010230000000001004000000000101700000000010180000000001018000000000102104866000000000000904100000000000919748600000000000000009999123100000010000000000000BRMILSACNOR2128
012024111302MLAS3       010MULTILASER  ON      NM   R$  000000000015200000000001540000000000151000000000015200000000001540000000000153000000000015402241000000000000960600000000000146582300000000000000009999123100000010000000000000BRMLASACNOR9101
012024111302MNDL3       010MUNDIAL     ON           R$  000000000158200000000015820000000001582000000000158200000000015820000000001582000000000170000002000000000000001700000000000002689400000000000000009999123100000010000000000000BRMNDLACNOR4109
012024111302MNPR3       010MINUPAR     ON           R$  000000000200000000000020050000000001999000000000200100000000020050000000001955000000000202100008000000000000001300000000000002601800000000000000009999123100000010000000000000BRMNPRACNOR5122
012024111302MOVI3       010MOVIDA      ON      NM   R$  000000000064700000000006620000000000636000000000064800000000006530000000000647000000000065313268000000000007522100000000004874960300000000000000009999123100000010000000000000BRMOVIACNOR0123
012024111302MRFG3       010MARFRIG     ON      NM   R$  000000000157500000000015800000000001542000000000155700000000015610000000001561000000000156217319000000000004120300000000006418913400000000000000009999123100000010000000000000BRMRFGACNOR0116
012024111302SYNE3       010SYN PROP TECON      NM   R$  000000000087800000000008880000000000871000000000087700000000008710000000000871000000000087301106000000000000286700000000000251586100000000000000009999123100000010000000000000BRSYNEACNOR2103
012024111302TAEE11      010TAESA       UNT EDJ N2   R$  000000000341100000000034210000000003390000000000340900000000034100000000003409000000000341008375000000000002121700000000007234891500000000000000009999123100000010000000000000BRTAEECDAM10149
012024111302TAEE3       010TAESA       ON  EDJ N2   R$  000000000114500000000011450000000001124000000000113500000000011340000000001134000000000114300723000000000000160200000000000181897300000000000000009999123100000010000000000000BRTAEEACNOR9149
012024111302TAEE4       010TAESA       PN  EDJ N2   R$  000000000113600000000011430000000001133000000000113800000000011370000000001137000000000114300634000000000000163300000000000185873600000000000000009999123100000010000000000000BRTAEEACNPR6149
012024111302WEST3       010WESTWING    ON      NM   R$  000000000007200000000000730000000000069000000000007000000000000710000000000071000000000007200052000000000000051600000000000003647600000000000000009999123100000010000000000000BRWESTACNOR3100
012024111302ZAMP3       010ZAMP S.A.   ON           R$  000000000027200000000002820000000000272000000000027700000000002800000000000276000000000028002826000000000000678000000000000188171200000000000000009999123100000010000000000000BRZAMPACNOR5101
012024111302VVEO3       010VIVEO       ON      NM   R$  000000000022600000000002330000000000219000000000022500000000002220000000000221000000000022201674000000000001240200000000000279654400000000000000009999123100000010000000000000BRVVEOACNOR0104
012024111302WHRL3       010WHIRLPOOL   ON           R$  000000000040900000000004150000000000387000000000040500000000004040000000000400000000000040800054000000000000010800000000000004379000000000000000009999123100000010000000000000BRWHRLACNOR5129
012024111302WHRL4       010WHIRLPOOL   PN           R$  000000000042200000000004220000000000408000000000041700000000004170000000000417000000000042100055000000000000015400000000000006427100000000000000009999123100000010000000000000BRWHRLACNPR2129
012024111302WIZC3       010WIZ CO      ON      NM   R$  000000000058000000000005800000000000566000000000057000000000005770000000000577000000000057801622000000000000525300000000000299501600000000000000009999123100000010000000000000BRWIZCACNOR5102
012024111302WLMM4       010WLM IND COM PN  EJ       R$  000000000298000000000029800000000002980000000000298000000000029800000000002922000000000297000001000000000000000100000000000000298000000000000000009999123100000010000000000000BRWLMMACNPR3120
012024111302WEGE3       010WEG         ON      NM   R$  000000000551600000000055550000000005451000000000548100000000054700000000005469000000000547224259000000000009208500000000050473130300000000000000009999123100000010000000000000BRWEGEACNOR0225
012024111302YDUQ3       010YDUQS PART  ON      NM   R$  000000000104500000000010580000000001017000000000104000000000010430000000001042000000000104312743000000000004239800000000004409706500000000000000009999123100000010000000000000BRYDUQACNOR3105
012024111302GOAU3       010GERDAU MET  ON      N1   R$  000000000104700000000010690000000001025000000000104700000000010590000000001051000000000106000304000000000000061700000000000064601800000000000000009999123100000010000000000000BRGOAUACNOR1268
012024111302GOAU4       010GERDAU MET  PN      N1   R$  000000000108900000000011050000000001072000000000108500000000011020000000001102000000000110316006000000000013373600000000014510600100000000000000009999123100000010000000000000BRGOAUACNPR8269
012024111302INEP3       010INEPAR      ON           R$  000000000014500000000001480000000000141000000000014400000000001440000000000141000000000014400062000000000000016100000000000002320700000000000000009999123100000010000000000000BRINEPACNOR1143
012024111302INEP4       010INEPAR      PN           R$  000000000013900000000001390000000000133000000000013500000000001350000000000133000000000013600036000000000000012200000000000001652100000000000000009999123100000010000000000000BRINEPACNPR8143
012024111302INTB3       010INTELBRAS   ON      NM   R$  000000000166700000000017270000000001653000000000169200000000016700000000001669000000000167005092000000000001207600000000002044136200000000000000009999123100000010000000000000BRINTBACNOR9112
012024111302IRBR3       010IRBBRASIL REON      NM   R$  000000000453500000000045880000000003977000000000418300000000040500000000004050000000000405818172000000000005086300000000021278814100000000000000009999123100000010000000000000BRIRBRACNOR4111
012024111302EVEN3       010EVEN        ON      NM   R$  000000000057800000000005820000000000563000000000056700000000005630000000000563000000000056705279000000000001827300000000001037029000000000000000009999123100000010000000000000BREVENACNOR8120
012024111302EZTC3       010EZTEC       ON  ED  NM   R$  000000000141700000000014400000000001409000000000142400000000014300000000001426000000000143008191000000000003035900000000004324799400000000000000009999123100000010000000000000BREZTCACNOR0127
012024111302ALPA3       010ALPARGATAS  ON      N1   R$  000000000061300000000006200000000000610000000000061400000000006100000000000601000000000061700017000000000000005000000000000003074100000000000000009999123100000010000000000000BRALPAACNOR0231
012024111302ALPA4       010ALPARGATAS  PN      N1   R$  000000000067700000000006840000000000664000000000067500000000006780000000000677000000000067807943000000000002955100000000001997411600000000000000009999123100000010000000000000BRALPAACNPR7232
012024111302ALPK3       010ESTAPAR     ON      NM   R$  000000000028300000000002830000000000275000000000027900000000002770000000000277000000000027900238000000000000091900000000000025694400000000000000009999123100000010000000000000BRALPKACNOR9101
012024111302ALUP11      010ALUPAR      UNT     N2   R$  000000000284300000000028820000000002836000000000286500000000028740000000002867000000000287403861000000000000689700000000001976329800000000000000009999123100000010000000000000BRALUPCDAM15120
012024111302ALUP3       010ALUPAR      ON      N2   R$  000000000096500000000009920000000000955000000000098000000000009850000000000965000000000099100063000000000000009100000000000008925800000000000000009999123100000010000000000000BRALUPACNOR8120
012024111302ALUP4       010ALUPAR      PN      N2   R$  000000000094200000000009480000000000936000000000094000000000009400000000000939000000000094900097000000000000018300000000000017203500000000000000009999123100000010000000000000BRALUPACNPR5120
012024111302AMAR3       010LOJAS MARISAON      NM   R$  000000000009300000000000950000000000091000000000009300000000000940000000000092000000000009400510000000000000525400000000000048903100000000000000009999123100000010000000000000BRAMARACNOR4115
012024111302AMBP3       010AMBIPAR     ON      NM   R$  000000001520000000000163950000000015037000000001572000000000155650000000015565000000001567601017000000000000154100000000002422549800000000000000009999123100000010000000000000BRAMBPACNOR6103
012024111302BAHI3       010BAHEMA      ON      MA   R$  000000000048000000000004800000000000480000000000048000000000004800000000000461000000000048000002000000000000000600000000000000288000000000000000009999123100000010000000000000BRBAHIACNOR1074
012024111302BAZA3       010AMAZONIA    ON           R$  000000000904000000000090700000000009040000000000904600000000090700000000008894000000000930000002000000000000001300000000000011761000000000000000009999123100000010000000000000BRBAZAACNOR0179
012024111302BBAS3       010BRASIL      ON      NM   R$  000000000259900000000026070000000002588000000000259600000000025950000000002594000000000259542186000000000027198100000000070610834000000000000000009999123100000010000000000000BRBBASACNOR3326
012024111302BEEF3       010MINERVA     ON      NM   R$  000000000055100000000005580000000000537000000000054700000000005550000000000554000000000055510888000000000008098400000000004435572400000000000000009999123100000010000000000000BRBEEFACNOR6117
012024111302BRIT3       010BRISANET    ON      NM   R$  000000000033300000000003340000000000318000000000032600000000003250000000000325000000000033200447000000000000181000000000000059010800000000000000009999123100000010000000000000BRBRITACNOR0103
012024111302BRKM3       010BRASKEM     ON      N1   R$  000000000156000000000015620000000001519000000000153800000000015350000000001535000000000155500220000000000000035300000000000054298400000000000000009999123100000010000000000000BRBRKMACNOR1119
012024111302BRKM5       010BRASKEM     PNA     N1   R$  000000000152600000000015430000000001510000000000152200000000015250000000001525000000000152609590000000000002812200000000004280208800000000000000009999123100000010000000000000BRBRKMACNPA4121
012024111302AALR3       010ALLIAR      ON      NM   R$  000000000146800000000014850000000001426000000000145900000000014850000000001419000000000148600041000000000000008000000000000011676500000000000000009999123100000010000000000000BRAALRACNOR6102
012024111302GMAT3       010GRUPO MATEUSON  EJS NM   R$  000000000074000000000007500000000000726000000000073500000000007370000000000736000000000074010874000000000003694400000000002717902400000000000000009999123100000010000000000000BRGMATACNOR7104
012024111302BBDC3       010BRADESCO    ON  EJ  N1   R$  000000000119100000000012000000000001187000000000119200000000011960000000001196000000000119808851000000000006133000000000007316274700000000000000009999123100000010000000000000BRBBDCACNOR1777
012024111302BBDC4       010BRADESCO    PN  EJ  N1   R$  000000000134000000000013490000000001330000000000134100000000013480000000001347000000000134833850000000000030372800000000040732490900000000000000009999123100000010000000000000BRBBDCACNPR8777
012024111302BMEB4       010MERCANTIL   PN      N1   R$  000000000394100000000039780000000003794000000000388200000000038800000000003831000000000388000161000000000000022000000000000085404600000000000000009999123100000010000000000000BRBMEBACNPR5211
012024111302BMGB4       010BANCO BMG   PN      N1   R$  000000000040200000000004050000000000397000000000039900000000003990000000000399000000000040001919000000000000692400000000000276803200000000000000009999123100000010000000000000BRBMGBACNPR0111
012024111302ABCB4       010ABC BRASIL  PN      N2   R$  000000000203500000000020700000000002028000000000205200000000020610000000002061000000000206704275000000000000856600000000001758028200000000000000009999123100000010000000000000BRABCBACNPR4146
012024111302ABEV3       010AMBEV S/A   ON           R$  000000000125200000000012770000000001246000000000126400000000012730000000001270000000000127342139000000000030341700000000038368486300000000000000009999123100000010000000000000BRABEVACNOR1128
012024111302BBSE3       010BBSEGURIDADEON      NM   R$  000000000337000000000033730000000003341000000000335200000000033540000000003353000000000336513976000000000011192700000000037527454100000000000000009999123100000010000000000000BRBBSEACNOR5125
012024111302BMIN4       010MERC INVEST PN           R$  000000000161000000000016100000000001610000000000161000000000016100000000001610000000000179000002000000000000000200000000000000322000000000000000009999123100000010000000000000BRBMINACNPR1176
012024111302BMKS3       010BIC MONARK  ON           R$  000000003099900000000310000000000030800000000003090200000000308000000000030700000000003080000007000000000000000066000000000002039590000000000000009999123100000010000000000000BRBMKSACNOR9166
012024111302BMOB3       010BEMOBI TECH ON      NM   R$  000000000144400000000014440000000001401000000000141800000000014290000000001428000000000143701335000000000000265900000000000377294600000000000000009999123100000010000000000000BRBMOBACNOR7103
012024111302BOBR4       010BOMBRIL     PN           R$  000000000025000000000002690000000000247000000000025500000000002630000000000262000000000026800216000000000000083200000000000021283000000000000000009999123100000010000000000000BRBOBRACNPR3128
012024111302CYRE3       010CYRELA REALTON      NM   R$  000000000216300000000022070000000002156000000000218000000000021870000000002187000000000218926199000000000008499800000000018536460700000000000000009999123100000010000000000000BRCYREACNOR7140
012024111302BRAV3       010BRAVA       ON      NM   R$  000000000157400000000015900000000001526000000000155600000000015620000000001562000000000156315726000000000007724600000000012025255300000000000000009999123100000010000000000000BRBRAVACNOR3100
012024111302CEBR3       010CEB         ON           R$  000000000187800000000018990000000001851000000000186200000000018990000000001803000000000190000012000000000000002900000000000005401900000000000000009999123100000010000000000000BRCEBRACNOR5125
012024111302CEBR5       010CEB         PNA          R$  000000000166800000000016800000000001656000000000167700000000016800000000001663000000000168800009000000000000002600000000000004360900000000000000009999123100000010000000000000BRCEBRACNPA8124
012024111302CEBR6       010CEB         PNB          R$  000000000181500000000018150000000001796000000000181100000000018120000000001800000000000182000021000000000000015900000000000028803400000000000000009999123100000010000000000000BRCEBRACNPB6124
012024111302CEDO4       010CEDRO       PN      N1   R$  000000000232000000000024580000000002320000000000234600000000023370000000002293000000000245800009000000000000001100000000000002581300000000000000009999123100000010000000000000BRCEDOACNPR5128
012024111302CEEB3       010COELBA      ON           R$  000000000375000000000039250000000003750000000000385800000000039250000000003800000000000400000003000000000000000300000000000001157500000000000000009999123100000010000000000000BRCEEBACNOR3200
012024111302CGAS3       010COMGAS      ON  ED       R$  000000001285900000000128590000000012859000000001285900000000128590000000010100000000001286000001000000000000000100000000000001285900000000000000009999123100000010000000000000BRCGASACNOR0165
012024111302CGAS5       010COMGAS      PNA ED       R$  000000001333400000000133340000000013249000000001327700000000132490000000013016000000001332500003000000000000000300000000000003983200000000000000009999123100000010000000000000BRCGASACNPA3162
012024111302CGRA3       010GRAZZIOTIN  ON           R$  000000000248600000000025130000000002482000000000249500000000024820000000002482000000000252000009000000000000001200000000000002995000000000000000009999123100000010000000000000BRCGRAACNOR2083
012024111302CGRA4       010GRAZZIOTIN  PN           R$  000000000247500000000025370000000002445000000000247100000000025370000000002508000000000253700036000000000000005500000000000013591200000000000000009999123100000010000000000000BRCGRAACNPR9083
012024111302B3SA3       010B3          ON      NM   R$  000000000103300000000010360000000001008000000000101800000000010230000000001019000000000102340449000000000073712300000000075054096400000000000000009999123100000010000000000000BRB3SAACNOR6134
012024111302BRBI11      010BR PARTNERS UNT ED  N2   R$  000000000151500000000015150000000001478000000000148700000000014850000000001482000000000148501964000000000000382100000000000568330200000000000000009999123100000010000000000000BRBRBICDAM10111
012024111302BRFS3       010BRF SA      ON      NM   R$  000000000249000000000025260000000002453000000000248000000000024940000000002490000000000249419834000000000006380900000000015826855400000000000000009999123100000010000000000000BRBRFSACNOR8122
012024111302COCE5       010COELCE      PNA          R$  000000000264300000000027020000000002600000000000265300000000026410000000002641000000000267400154000000000000023200000000000061563600000000000000009999123100000010000000000000BRCOCEACNPA3147
012024111302COGN3       010COGNA ON    ON      NM   R$  000000000014000000000001420000000000136000000000013900000000001410000000000141000000000014214605000000000036191000000000005038943500000000000000009999123100000010000000000000BRCOGNACNOR2105
012024111302CLSA3       010CLEARSALE   ON      NM   R$  000000000098200000000009850000000000975000000000097900000000009850000000000978000000000098501628000000000000928100000000000909151100000000000000009999123100000010000000000000BRCLSAACNOR0100
012024111302CLSC3       010CELESC      ON      N2   R$  000000000772400000000078090000000007724000000000776600000000078090000000007401000000000780800002000000000000000200000000000001553300000000000000009999123100000010000000000000BRCLSCACNOR6153
012024111302CLSC4       010CELESC      PN      N2   R$  000000000810000000000081040000000007977000000000804200000000080500000000007959000000000811500010000000000000001000000000000008042500000000000000009999123100000010000000000000BRCLSCACNPR3132
012024111302CMIG3       010CEMIG       ON      N1   R$  000000000144600000000014650000000001431000000000144800000000014570000000001456000000000146700656000000000000097000000000000140490900000000000000009999123100000010000000000000BRCMIGACNOR6244
012024111302CMIG4       010CEMIG       PN      N1   R$  000000000113600000000011560000000001130000000000114300000000011490000000001149000000000115220488000000000013955500000000015957854100000000000000009999123100000010000000000000BRCMIGACNPR3245
012024111302ALLD3       010ALLIED      ON      NM   R$  000000000085400000000008570000000000829000000000084300000000008420000000000840000000000084200305000000000000081200000000000068482000000000000000009999123100000010000000000000BRALLDACNOR3106
012024111302ALOS3       010ALLOS       ON      NM   R$  000000000215100000000021890000000002147000000000216300000000021840000000002176000000000218511630000000000008263600000000017877723000000000000000009999123100000010000000000000BRALOSACNOR5103
012024111302CXSE3       010CAIXA SEGURION  ED  NM   R$  000000000141200000000014290000000001408000000000141500000000014200000000001413000000000142013103000000000003662600000000005184361700000000000000009999123100000010000000000000BRCXSEACNOR7108
012024111302GRND3       010GRENDENE    ON      NM   R$  000000000053900000000005420000000000533000000000053700000000005360000000000536000000000054003017000000000000890700000000000478402500000000000000009999123100000010000000000000BRGRNDACNOR3175
012024111302FESA4       010FERBASA     PN      N1   R$  000000000079100000000007910000000000771000000000078000000000007860000000000782000000000078601271000000000000298700000000000233250000000000000000009999123100000010000000000000BRFESAACNPR5085
012024111302FHER3       010FER HERINGERON      NM   R$  000000000036000000000003600000000000359000000000035900000000003590000000000359000000000036000006000000000000001300000000000000467700000000000000009999123100000010000000000000BRFHERACNOR5103
012024111302CPFE3       010CPFL ENERGIAON      NM   R$  000000000325100000000032780000000003220000000000324600000000032430000000003243000000000324408956000000000001390900000000004515558200000000000000009999123100000010000000000000BRCPFEACNOR0137
012024111302CPLE3       010COPEL       ON      N2   R$  000000000083000000000008410000000000822000000000083100000000008350000000000834000000000084004694000000000005234300000000004352335200000000000000009999123100000010000000000000BRCPLEACNOR8150
012024111302CPLE6       010COPEL       PNB     N2   R$  000000000093300000000009420000000000926000000000093100000000009400000000000938000000000094014565000000000019693600000000018344333100000000000000009999123100000010000000000000BRCPLEACNPB9147
012024111302GUAR3       010GUARARAPES  ON      NM   R$  000000000084900000000008580000000000818000000000083900000000008480000000000845000000000084803587000000000001699000000000001426620100000000000000009999123100000010000000000000BRGUARACNOR4173
012024111302HAGA3       010HAGA S/A    ON           R$  000000000024100000000002450000000000234000000000023500000000002450000000000234000000000024300013000000000000008500000000000001998100000000000000009999123100000010000000000000BRHAGAACNOR7103
012024111302HAGA4       010HAGA S/A    PN           R$  000000000012800000000001340000000000127000000000013000000000001310000000000129000000000013100022000000000000017000000000000002221200000000000000009999123100000010000000000000BRHAGAACNPR4103
012024111302CAMB3       010CAMBUCI     ON  EDJ      R$  000000000113900000000011510000000001111000000000112500000000011320000000001132000000000113800068000000000000012900000000000014522400000000000000009999123100000010000000000000BRCAMBACNOR4132
012024111302CAML3       010CAMIL       ON      NM   R$  000000000079100000000008020000000000786000000000079100000000007860000000000786000000000079301366000000000000268300000000000212382400000000000000009999123100000010000000000000BRCAMLACNOR3129
012024111302CASH3       010MELIUZ      ON      NM   R$  000000000032900000000003390000000000325000000000033200000000003390000000000339000000000034002263000000000001653800000000000549765600000000000000009999123100000010000000000000BRCASHACNOR8107
012024111302CBAV3       010CBA         ON      NM   R$  000000000053000000000005340000000000508000000000051500000000005130000000000513000000000051610164000000000004156300000000002143789900000000000000009999123100000010000000000000BRCBAVACNOR5104
012024111302CCRO3       010CCR SA      ON  ED  NM   R$  000000000117900000000011930000000001166000000000117800000000011880000000001181000000000118809220000000000005776600000000006807892000000000000000009999123100000010000000000000BRCCROACNOR2146
012024111302CEAB3       010CEA MODAS   ON      NM   R$  000000000130400000000013300000000001290000000000131200000000013120000000001312000000000131309847000000000002720000000000003570539900000000000000009999123100000010000000000000BRCEABACNOR1102
012024111302CSED3       010CRUZEIRO EDUON      NM   R$  000000000033700000000003410000000000327000000000033000000000003270000000000327000000000032902150000000000000949100000000000313872000000000000000009999123100000010000000000000BRCSEDACNOR9105
012024111302FIQE3       010UNIFIQUE    ON      NM   R$  000000000037900000000003880000000000374000000000037900000000003820000000000381000000000038300714000000000000381700000000000145004700000000000000009999123100000010000000000000BRFIQEACNOR5107
012024111302FLRY3       010FLEURY      ON      NM   R$  000000000138200000000014040000000001378000000000139000000000013920000000001392000000000139310383000000000002749500000000003822933800000000000000009999123100000010000000000000BRFLRYACNOR5139
012024111302FRAS3       010FRAS-LE     ON      N1   R$  000000000208400000000021050000000002056000000000207800000000020780000000002076000000000209401167000000000000186100000000000386759900000000000000009999123100000010000000000000BRFRASACNOR0160
012024111302DASA3       010DASA        ON      NM   R$  000000000023400000000002360000000000218000000000022400000000002270000000000225000000000022703398000000000001815800000000000407458900000000000000009999123100000010000000000000BRDASAACNOR1123
012024111302HAPV3       010HAPVIDA     ON      NM   R$  000000000031300000000003370000000000302000000000031700000000003100000000000310000000000031159644000000000209270500000000066414392800000000000000009999123100000010000000000000BRHAPVACNOR4115
012024111302AZZA3       010AZZAS 2154  ON      NM   R$  000000000401500000000041600000000004011000000000408800000000041180000000004118000000000412007836000000000001643000000000006716734600000000000000009999123100000010000000000000BRAZZAACNOR9100
012024111302CMIN3       010CSNMINERACAOON      N2   R$  000000000054500000000005590000000000521000000000053600000000005230000000000522000000000052312546000000000015301900000000008203743300000000000000009999123100000010000000000000BRCMINACNOR2112
012024111302CSUD3       010CSU DIGITAL ON      NM   R$  000000000154900000000015850000000001530000000000155400000000015660000000001566000000000158100182000000000000033700000000000052403100000000000000009999123100000010000000000000BRCSUDACNOR5111
012024111302CTKA3       010KARSTEN     ON           R$  000000000185000000000018500000000001850000000000185000000000018500000000001701000000000198900001000000000000000400000000000000740000000000000000009999123100000010000000000000BRCTKAACNOR0043
012024111302CURY3       010CURY S/A    ON      NM   R$  000000000230800000000023160000000002263000000000229100000000023110000000002306000000000231112014000000000002429100000000005565180600000000000000009999123100000010000000000000BRCURYACNOR3110
012024111302CVCB3       010CVC BRASIL  ON      NM   R$  000000000023000000000002360000000000216000000000022400000000002170000000000216000000000021723105000000000083826700000000018808783900000000000000009999123100000010000000000000BRCVCBACNOR1116
012024111302ELMD3       010ELETROMIDIA ON      NM   R$  000000000273600000000027560000000002719000000000273800000000027500000000002750000000000275300694000000000000190100000000000520675800000000000000009999123100000010000000000000BRELMDACNOR3101
012024111302EMAE4       010EMAE        PN           R$  000000000409900000000040990000000004099000000000409900000000040990000000003905000000000410000001000000000000000100000000000000409900000000000000009999123100000010000000000000BREMAEACNPR1126
012024111302EMBR3       010EMBRAER     ON      NM   R$  000000000544200000000057280000000005442000000000565500000000056690000000005669000000000567036986000000000010379100000000058701442500000000000000009999123100000010000000000000BREMBRACNOR4191
012024111302GGPS3       010GPS         ON      NM   R$  000000000176800000000017840000000001726000000000174700000000017490000000001743000000000175207040000000000001791400000000003131320200000000000000009999123100000010000000000000BRGGPSACNOR9103
012024111302GFSA3       010GAFISA      ON      NM   R$  000000000014800000000001520000000000143000000000014600000000001470000000000146000000000014702159000000000004835200000000000708444900000000000000009999123100000010000000000000BRGFSAACNOR3125
012024111302JALL3       010JALLESMACHADON      NM   R$  000000000057100000000005840000000000517000000000053500000000005270000000000526000000000053007025000000000002905700000000001554561300000000000000009999123100000010000000000000BRJALLACNOR0106
012024111302JBSS3       010JBS         ON      NM   R$  000000000357000000000036430000000003520000000000356500000000036430000000003640000000000364319973000000000004726200000000016851260900000000000000009999123100000010000000000000BRJBSSACNOR8122
012024111302ODPV3       010ODONTOPREV  ON  ED  NM   R$  000000000107000000000010820000000001061000000000107100000000010770000000001069000000000107703834000000000000831300000000000891099400000000000000009999123100000010000000000000BRODPVACNOR4205
012024111302OFSA3       010OUROFINO S/AON      NM   R$  000000000225000000000022500000000002200000000000221800000000022000000000002166000000000225000006000000000000000800000000000001775100000000000000009999123100000010000000000000BROFSAACNOR7118
012024111302ONCO3       010ONCOCLINICASON      NM   R$  000000000044500000000004490000000000394000000000042400000000004490000000000415000000000044907401000000000011103700000000004712256600000000000000009999123100000010000000000000BRONCOACNOR6101
012024111302OPCT3       010OCEANPACT   ON      NM   R$  000000000060500000000006280000000000605000000000061900000000006140000000000613000000000062102079000000000000521300000000000322973100000000000000009999123100000010000000000000BROPCTACNOR0100
012024111302BPAC11      010BTGP BANCO  UNT     N2   R$  000000000337200000000034080000000003338000000000337600000000033960000000003396000000000339726537000000000007915300000000026724567200000000000000009999123100000010000000000000BRBPACUNT006119
012024111302BPAC3       010BTGP BANCO  ON      N2   R$  000000000156500000000016370000000001537000000000159200000000016010000000001600000000000162500051000000000000005900000000000009396900000000000000009999123100000010000000000000BRBPACACNOR7134
012024111302BPAC5       010BTGP BANCO  PNA     N2   R$  000000000089500000000009010000000000870000000000087700000000008710000000000858000000000087500076000000000000020200000000000017720900000000000000009999123100000010000000000000BRBPACACNPA0134
012024111302BRSR3       010BANRISUL    ON      N1   R$  000000000118100000000011920000000001179000000000118600000000011800000000001180000000000122500026000000000000004500000000000005337600000000000000009999123100000010000000000000BRBRSRACNOR3189
012024111302BRSR6       010BANRISUL    PNB     N1   R$  000000000109200000000011020000000001074000000000108800000000010820000000001082000000000108505998000000000002382900000000002593421600000000000000009999123100000010000000000000BRBRSRACNPB4192
012024111302SHOW3       010TIME FOR FUNON      NM   R$  000000000008900000000000900000000000088000000000008800000000000900000000000088000000000009000188000000000000055000000000000004886900000000000000009999123100000010000000000000BRSHOWACNOR7105
012024111302SHUL4       010SCHULZ      PN           R$  000000000057800000000005830000000000571000000000057800000000005780000000000577000000000057901757000000000000746600000000000431537900000000000000009999123100000010000000000000BRSHULACNPR4157
012024111302SIMH3       010SIMPAR      ON      NM   R$  000000000053500000000005420000000000505000000000051700000000005150000000000515000000000052005579000000000004480700000000002318485000000000000000009999123100000010000000000000BRSIMHACNOR0107
012024111302SLCE3       010SLC AGRICOLAON      NM   R$  000000000172700000000017420000000001681000000000171900000000017200000000001720000000000173108590000000000002585600000000004445660600000000000000009999123100000010000000000000BRSLCEACNOR2125
012024111302ORVR3       010ORIZON      ON      NM   R$  000000000471900000000047690000000004686000000000472800000000047150000000004715000000000472502430000000000000409500000000001936208100000000000000009999123100000010000000000000BRORVRACNOR0101
012024111302LUPA3       010LUPATECH    ON      NM   R$  000000000013700000000001380000000000131000000000013400000000001310000000000131000000000013400223000000000000415400000000000055893900000000000000009999123100000010000000000000BRLUPAACNOR8112
012024111302LVTC3       010WDC NETWORKSON      NM   R$  000000000034200000000003480000000000339000000000034100000000003460000000000344000000000034700058000000000000033600000000000011466200000000000000009999123100000010000000000000BRLVTCACNOR4102
012024111302LWSA3       010LWSA        ON  ED  NM   R$  000000000041500000000004330000000000415000000000042400000000004260000000000426000000000042712140000000000008207600000000003485247800000000000000009999123100000010000000000000BRLWSAACNOR8104
012024111302PATI4       010PANATLANTICAPN           R$  000000000349900000000035000000000003499000000000349900000000035000000000003490000000000350000003000000000000000300000000000001049900000000000000009999123100000010000000000000BRPATIACNPR3067
012024111302PFRM3       010PROFARMA    ON  EJ  NM   R$  000000000071000000000007190000000000693000000000070500000000007150000000000715000000000071600987000000000000231200000000000163092800000000000000009999123100000010000000000000BRPFRMACNOR1117
012024111302MYPK3       010IOCHP-MAXIONON      NM   R$  000000000117900000000011850000000001140000000000115400000000011440000000001144000000000114606861000000000001644400000000001898363100000000000000009999123100000010000000000000BRMYPKACNOR7156
012024111302PGMN3       010PAGUE MENOS ON      NM   R$  000000000032300000000003230000000000313000000000031700000000003200000000000318000000000032001306000000000000559200000000000177501800000000000000009999123100000010000000000000BRPGMNACNOR8103
012024111302PINE3       010PINE        ON      N2   R$  000000000048000000000004810000000000468000000000047100000000004680000000000468000000000048100013000000000000006300000000000002971100000000000000009999123100000010000000000000BRPINEACNOR1152
012024111302RANI3       010IRANI       ON  ED  NM   R$  000000000068700000000007060000000000685000000000069500000000007060000000000701000000000070603265000000000001157400000000000804582900000000000000009999123100000010000000000000BRRANIACNOR5074
012024111302RAPT3       010RANDON PART ON      N1   R$  000000000094200000000009500000000000931000000000093500000000009500000000000933000000000095100053000000000000029100000000000027228900000000000000009999123100000010000000000000BRRAPTACNOR7163
012024111302NEOE3       010NEOENERGIA  ON      NM   R$  000000000186500000000018990000000001843000000000186900000000018990000000001890000000000189904632000000000001506000000000002815280600000000000000009999123100000010000000000000BRNEOEACNOR3123
012024111302IBOV11      010IBOVESPA    IBO          R$  000001275390000000127539000000012753900000001275390000000127539000000000000000000000000000000372000000000000102653000001309226096700000000000000009999123100000010000000000000BRIBOVINDM18012
012024111302RADL3       010RAIADROGASILON      NM   R$  000000000250500000000025910000000002496000000000253500000000025710000000002571000000000257525052000000000009204200000000023338267300000000000000009999123100000010000000000000BRRADLACNOR0158
012024111302SBFG3       010GRUPO SBF   ON      NM   R$  000000000134800000000013690000000001313000000000133300000000013370000000001335000000000133706788000000000002547300000000003395760900000000000000009999123100000010000000000000BRSBFGACNOR1103
012024111302SBSP3       010SABESP      ON      NM   R$  000000000959000000000096350000000009388000000000946800000000094500000000009448000000000945119420000000000004879800000000046204194900000000000000009999123100000010000000000000BRSBSPACNOR5161
012024111302SCAR3       010SAO CARLOS  ON      NM   R$  000000000204200000000020900000000002031000000000207600000000020670000000002056000000000206800049000000000000011600000000000024088800000000000000009999123100000010000000000000BRSCARACNOR7131
012024111302SEER3       010SER EDUCA   ON      NM   R$  000000000068700000000007060000000000654000000000067200000000006850000000000682000000000068504512000000000000800800000000000538658300000000000000009999123100000010000000000000BRSEERACNOR5119
012024111302MATD3       010MATER DEI   ON      NM   R$  000000000044700000000004470000000000424000000000043500000000004370000000000437000000000043900715000000000000170700000000000074300600000000000000009999123100000010000000000000BRMATDACNOR4104
012024111302MBLY3       010MOBLY       ON      NM   R$  000000000020600000000002110000000000205000000000020700000000002090000000000205000000000020900079000000000000142200000000000029487800000000000000009999123100000010000000000000BRMBLYACNOR5101
012024111302MDIA3       010M.DIASBRANCOON      NM   R$  000000000234500000000024530000000002345000000000240600000000024360000000002436000000000243805745000000000001577200000000003795050900000000000000009999123100000010000000000000BRMDIAACNOR7136
012024111302MDNE3       010MOURA DUBEUXON  ED  NM   R$  000000000148900000000014970000000001427000000000145400000000014490000000001445000000000145003398000000000000704000000000001024100800000000000000009999123100000010000000000000BRMDNEACNOR9101
012024111302MEAL3       010IMC S/A     ON      NM   R$  000000000013500000000001390000000000134000000000013600000000001350000000000135000000000013800217000000000000486400000000000066370100000000000000009999123100000010000000000000BRMEALACNOR9105
012024111302UNIP3       010UNIPAR      ON           R$  000000000444000000000045860000000004435000000000449700000000045860000000004552000000000488600040000000000000004900000000000022038700000000000000009999123100000010000000000000BRUNIPACNOR7206
012024111302UNIP5       010UNIPAR      PNA          R$  000000000483000000000048990000000004830000000000485000000000048990000000004680000000000493900004000000000000000400000000000001940200000000000000009999123100000010000000000000BRUNIPACNPA0208
012024111302UNIP6       010UNIPAR      PNB          R$  000000000452800000000047140000000004503000000000463100000000046900000000004680000000000469001932000000000000235900000000001092674900000000000000009999123100000010000000000000BRUNIPACNPB8206
012024111302USIM3       010USIMINAS    ON      N1   R$  000000000059700000000006030000000000588000000000059500000000005990000000000596000000000060001130000000000000312700000000000186358400000000000000009999123100000010000000000000BRUSIMACNOR3167
012024111302USIM5       010USIMINAS    PNA     N1   R$  000000000060000000000006120000000000597000000000060400000000006090000000000608000000000060917236000000000017476200000000010562724100000000000000009999123100000010000000000000BRUSIMACNPA6169
012024111302VAMO3       010VAMOS       ON      NM   R$  000000000056600000000005870000000000556000000000056400000000005600000000000559000000000056011994000000000009494400000000005362290400000000000000009999123100000010000000000000BRVAMOACNOR7105
012024111302VBBR3       010VIBRA       ON      NM   R$  000000000224000000000022530000000002198000000000222000000000022320000000002222000000000223223617000000000009214500000000020456704500000000000000009999123100000010000000000000BRVBBRACNOR1109
012024111302ITUB3       010ITAUUNIBANCOON      N1   R$  000000000303400000000030340000000002993000000000300700000000030090000000003009000000000301202211000000000000441500000000001327959000000000000000009999123100000010000000000000BRITUBACNOR4343
012024111302MELK3       010MELNICK     ON      NM   R$  000000000036000000000003700000000000356000000000036200000000003700000000000367000000000037000506000000000000711900000000000257932900000000000000009999123100000010000000000000BRMELKACNOR8111
012024111302MGEL4       010MANGELS INDLPN           R$  000000000075000000000007500000000000721000000000073700000000007500000000000730000000000079400006000000000000000700000000000000516200000000000000009999123100000010000000000000BRMGELACNPR3147
012024111302MGLU3       010MAGAZ LUIZA ON      NM   R$  000000000093000000000009540000000000903000000000092600000000009260000000000925000000000092729109000000000034834800000000032258860100000000000000009999123100000010000000000000BRMGLUACNOR2125
012024111302ITUB4       010ITAUUNIBANCOPN      N1   R$  000000000348000000000034850000000003430000000000345200000000034520000000003451000000000346040854000000000026218900000000090528343100000000000000009999123100000010000000000000BRITUBACNPR1343
012024111302MTRE3       010MITRE REALTYON      NM   R$  000000000036800000000003820000000000362000000000037200000000003820000000000378000000000038201051000000000000523000000000000194727400000000000000009999123100000010000000000000BRMTREACNOR6116
012024111302MTSA4       010METISA      PN           R$  000000000331800000000034000000000003300000000000332800000000033470000000003252000000000339000021000000000000002400000000000007988700000000000000009999123100000010000000000000BRMTSAACNPR9073
012024111302MULT3       010MULTIPLAN   ON      N2   R$  000000000244800000000024910000000002433000000000245900000000024850000000002485000000000248913315000000000003046300000000007491183600000000000000009999123100000010000000000000BRMULTACNOR5139
012024111302PTBL3       010PORTOBELLO  ON      NM   R$  000000000041200000000004160000000000405000000000040700000000004060000000000406000000000040802271000000000000505600000000000205847400000000000000009999123100000010000000000000BRPTBLACNOR8132
012024111302PTNT3       010PETTENATI   ON           R$  000000000089800000000009120000000000885000000000089700000000008850000000000650000000000090800009000000000000000900000000000000808000000000000000009999123100000010000000000000BRPTNTACNOR6043
012024111302PTNT4       010PETTENATI   PN           R$  000000000066000000000006600000000000643000000000065800000000006430000000000643000000000064400009000000000000005600000000000003685100000000000000009999123100000010000000000000BRPTNTACNPR3048
012024111302NGRD3       010NEOGRID     ON      NM   R$  000000000283100000000029850000000002800000000000290200000000028000000000002800000000000287700383000000000000057400000000000166603000000000000000009999123100000010000000000000BRNGRDACNOR3106
012024111302NINJ3       010GETNINJAS   ON      NM   R$  000000000045300000000004690000000000453000000000046600000000004690000000000458000000000046900029000000000000013300000000000006199700000000000000009999123100000010000000000000BRNINJACNOR5101
012024111302NORD3       010NORDON MET  ON           R$  000000000075000000000007500000000000750000000000075000000000007500000000000712000000000075000001000000000000000100000000000000075000000000000000009999123100000010000000000000BRNORDACNOR7135
012024111302NTCO3       010GRUPO NATURAON  ATZ NM   R$  000000000142500000000014460000000001408000000000142500000000014360000000001432000000000143715135000000000005234200000000007459230000000000000000009999123100000010000000000000BRNTCOACNOR5107
012024111302PETZ3       010PETZ        ON      NM   R$  000000000049500000000004990000000000483000000000048800000000004840000000000484000000000048611934000000000008309000000000004056452600000000000000009999123100000010000000000000BRPETZACNOR2110
012024111302RAIL3       010RUMO S.A.   ON      NM   R$  000000000197900000000020150000000001977000000000199400000000020080000000002000000000000200822225000000000023789400000000047439938900000000000000009999123100000010000000000000BRRAILACNOR9105
012024111302RAIZ4       010RAIZEN      PN      N2   R$  000000000026300000000002640000000000248000000000025200000000002480000000000247000000000024838493000000000035585100000000008971479300000000000000009999123100000010000000000000BRRAIZACNPR6111
012024111302QUAL3       010QUALICORP   ON      NM   R$  000000000022900000000002320000000000219000000000022600000000002280000000000226000000000022803489000000000005688800000000001286528200000000000000009999123100000010000000000000BRQUALACNOR6120
012024111302SAPR11      010SANEPAR     UNT     N2   R$  000000000265500000000026760000000002580000000000262000000000025800000000002580000000000259703745000000000000830200000000002175849600000000000000009999123100000010000000000000BRSAPRCDAM13118
012024111302SAPR3       010SANEPAR     ON      N2   R$  000000000050500000000005060000000000495000000000049800000000004960000000000496000000000050000623000000000000186500000000000092950200000000000000009999123100000010000000000000BRSAPRACNOR9159
012024111302SAPR4       010SANEPAR     PN      N2   R$  000000000053500000000005400000000000520000000000052800000000005200000000000520000000000052402153000000000001262400000000000666740900000000000000009999123100000010000000000000BRSAPRACNPR6159
012024111302TPIS3       010TRIUNFO PARTON      NM   R$  000000000069300000000006970000000000670000000000068000000000006970000000000690000000000069700190000000000000048000000000000032684300000000000000009999123100000010000000000000BRTPISACNOR8118
012024111302TRAD3       010TC          ON      NM   R$  000000000070000000000007370000000000666000000000070100000000007370000000000730000000000073700695000000000000198500000000000139232200000000000000009999123100000010000000000000BRTRADACNOR3102
012024111302TRIS3       010TRISUL      ON      NM   R$  000000000056900000000005710000000000546000000000055800000000005660000000000560000000000056601685000000000000584200000000000326046800000000000000009999123100000010000000000000BRTRISACNOR4118
012024111302TRPL3       010TRAN PAULISTON      N1   R$  000000000307000000000031300000000003070000000000309500000000030910000000003075000000000312500010000000000000001000000000000003095900000000000000009999123100000010000000000000BRTRPLACNOR4185
012024111302TRPL4       010TRAN PAULISTPN      N1   R$  000000000241000000000024240000000002401000000000241100000000024150000000002415000000000242009061000000000002094100000000005050120800000000000000009999123100000010000000000000BRTRPLACNPR1185
012024111302TTEN3       0103TENTOS     ON      NM   R$  000000000140900000000014200000000001365000000000138400000000013810000000001380000000000138108947000000000001923800000000002663597800000000000000009999123100000010000000000000BRTTENACNOR0103
012024111302TUPY3       010TUPY        ON      NM   R$  000000000243800000000024410000000002366000000000239300000000024100000000002410000000000241203618000000000000562000000000001344933300000000000000009999123100000010000000000000BRTUPYACNOR1184
012024111302UCAS3       010UNICASA     ON      NM   R$  000000000021200000000002170000000000212000000000021500000000002160000000000215000000000021600084000000000000020500000000000004413800000000000000009999123100000010000000000000BRUCASACNOR1113
012024111302UGPA3       010ULTRAPAR    ON      NM   R$  000000000204300000000020860000000002017000000000205300000000020570000000002056000000000206215609000000000005206800000000010692056200000000000000009999123100000010000000000000BRUGPAACNOR8156
012024111302SANB11      010SANTANDER BRUNT          R$  000000000262500000000026260000000002600000000000260800000000026000000000002600000000000261309580000000000004178300000000010897347300000000000000009999123100000010000000000000BRSANBCDAM13166
012024111302SANB3       010SANTANDER BRON           R$  000000000124500000000012460000000001231000000000123400000000012310000000001231000000000123800786000000000000148200000000000183002600000000000000009999123100000010000000000000BRSANBACNOR8173
012024111302SANB4       010SANTANDER BRPN           R$  000000000138100000000013870000000001373000000000137800000000013780000000001378000000000138300843000000000000156000000000000215054000000000000000009999123100000010000000000000BRSANBACNPR5173
012024111302TASA3       010TAURUS ARMASON      N2   R$  000000000100000000000010070000000000948000000000097300000000009740000000000961000000000097500133000000000000022400000000000021801000000000000000009999123100000010000000000000BRTASAACNOR7104
012024111302TASA4       010TAURUS ARMASPN      N2   R$  000000000099000000000009960000000000930000000000095600000000009460000000000946000000000095102043000000000000541600000000000518269200000000000000009999123100000010000000000000BRTASAACNPR4104
012024111302TCSA3       010TECNISA     ON      NM   R$  000000000013500000000001400000000000132000000000013400000000001400000000000137000000000014200163000000000000164400000000000022075800000000000000009999123100000010000000000000BRTCSAACNOR3112
012024111302TECN3       010TECHNOS     ON      NM   R$  000000000054300000000005580000000000538000000000054400000000005510000000000540000000000055300133000000000000024800000000000013497800000000000000009999123100000010000000000000BRTECNACNOR6109
012024111302TELB3       010TELEBRAS    ON           R$  000000000125200000000012520000000001251000000000125100000000012510000000001240000000000129500002000000000000000200000000000000250300000000000000009999123100000010000000000000BRTELBACNOR2140
012024111302TELB4       010TELEBRAS    PN           R$  000000000077000000000007980000000000770000000000078900000000007700000000000750000000000077000032000000000000011600000000000009158100000000000000009999123100000010000000000000BRTELBACNPR9140
012024111302TEND3       010TENDA       ON      NM   R$  000000000172700000000017430000000001651000000000168100000000016980000000001698000000000169913823000000000005775700000000009712883900000000000000009999123100000010000000000000BRTENDACNOR4111
012024111302ITSA3       010ITAUSA      ON      N1   R$  000000000106200000000010620000000001042000000000104800000000010560000000001050000000000105600388000000000000117900000000000123631700000000000000009999123100000010000000000000BRITSAACNOR0443
012024111302ITSA4       010ITAUSA      PN      N1   R$  000000000105700000000010570000000001039000000000104600000000010510000000001050000000000105125375000000000021453800000000022457576500000000000000009999123100000010000000000000BRITSAACNPR7443
012024111302TFCO4       010TRACK FIELD PN      N2   R$  000000000095700000000009610000000000945000000000095000000000009530000000000953000000000095701004000000000000670500000000000637456800000000000000009999123100000010000000000000BRTFCOACNPR8115
012024111302TGMA3       010TEGMA       ON  EDJ NM   R$  000000000316100000000031710000000003110000000000313800000000031350000000003134000000000315200927000000000000145900000000000457853000000000000000009999123100000010000000000000BRTGMAACNOR7146
012024111302TIMS3       010TIM         ON      NM   R$  000000000163900000000016630000000001632000000000164100000000016370000000001637000000000164314670000000000012517800000000020551340800000000000000009999123100000010000000000000BRTIMSACNOR5118
012024111302TOTS3       010TOTVS       ON      NM   R$  000000000301000000000030240000000002955000000000297900000000029680000000002967000000000299022262000000000004289100000000012777731900000000000000009999123100000010000000000000BRTOTSACNOR8145
012024111302KRSA3       010KORA SAUDE  ON      NM   R$  000000000062800000000006440000000000625000000000063200000000006400000000000636000000000064400064000000000000044300000000000028000200000000000000009999123100000010000000000000BRKRSAACNOR0101
012024111302LAND3       010TERRASANTAPAON      NM   R$  000000000115800000000011790000000001139000000000115500000000011500000000001150000000000116300199000000000000036800000000000042521200000000000000009999123100000010000000000000BRLANDACNOR9103
012024111302KEPL3       010KEPLER WEBERON  EDJ NM   R$  000000000101100000000010380000000001002000000000102400000000010360000000001034000000000103603858000000000001074800000000001101398000000000000000009999123100000010000000000000BRKEPLACNOR1065
012024111302KLBN11      010KLABIN S/A  UNT EJ  N2   R$  000000000204000000000021000000000002035000000000205400000000020600000000002060000000000206911660000000000003121300000000006412514800000000000000009999123100000010000000000000BRKLBNCDAM18144
012024111302KLBN3       010KLABIN S/A  ON  EJ  N2   R$  000000000040700000000004150000000000407000000000041000000000004150000000000413000000000041500606000000000000305000000000000125250200000000000000009999123100000010000000000000BRKLBNACNOR2172
012024111302KLBN4       010KLABIN S/A  PN  EJ  N2   R$  000000000040700000000004130000000000407000000000041000000000004110000000000411000000000041301438000000000001087600000000000445948100000000000000009999123100000010000000000000BRKLBNACNPR9172
012024111302LAVV3       010LAVVI       ON      NM   R$  000000000089400000000009060000000000887000000000089500000000008940000000000890000000000089402383000000000000989600000000000886132200000000000000009999123100000010000000000000BRLAVVACNOR4113
012024111302LEVE3       010METAL LEVE  ON  EJ  NM   R$  000000000281500000000028460000000002778000000000280300000000027950000000002791000000000279503337000000000000596100000000001671365200000000000000009999123100000010000000000000BRLEVEACNOR2198
012024111302LJQQ3       010QUERO-QUERO ON      NM   R$  000000000030500000000003110000000000283000000000029100000000002850000000000284000000000028704815000000000005039100000000001471353800000000000000009999123100000010000000000000BRLJQQACNOR5104
012024111302LOGG3       010LOG COM PROPON      NM   R$  000000000225700000000022630000000002160000000000219300000000021600000000002158000000000216003720000000000000516400000000001132503100000000000000009999123100000010000000000000BRLOGGACNOR7107
012024111302LOGN3       010LOG-IN      ON      NM   R$  000000000254800000000025910000000002351000000000243200000000023510000000002351000000000239900653000000000000143800000000000349760600000000000000009999123100000010000000000000BRLOGNACNOR3105
012024111302LPSB3       010LOPES BRASILON      NM   R$  000000000016100000000001640000000000161000000000016200000000001610000000000161000000000016300120000000000000128200000000000020881800000000000000009999123100000010000000000000BRLPSBACNOR0114
012024111302LREN3       010LOJAS RENNERON      NM   R$  000000000167500000000016930000000001636000000000165800000000016580000000001656000000000165820804000000000012238100000000020294986900000000000000009999123100000010000000000000BRLRENACNOR1222
012024111302MRSA6B      010MRS LOGIST  PNB     MB   R$  000000000299900000000029990000000002999000000000299900000000029990000000002500000000000000000001000000000000000100000000000000299900000000000000009999123100000010000000000000BRMRSAACNPB7125
012024111302MRVE3       010MRV         ON      NM   R$  000000000070100000000007060000000000677000000000068900000000006930000000000693000000000069512559000000000014306400000000009871042900000000000000009999123100000010000000000000BRMRVEACNOR2127
012024111302PRNR3       010PRINER      ON      NM   R$  000000000147900000000014960000000001462000000000148100000000014750000000001474000000000148703092000000000000576100000000000853727300000000000000009999123100000010000000000000BRPRNRACNOR4109
012024111302PSSA3       010PORTO SEGUROON      NM   R$  000000000392100000000039450000000003869000000000389500000000038770000000003876000000000388108982000000000001825200000000007110085500000000000000009999123100000010000000000000BRPSSAACNOR7156
012024111302ROMI3       010ROMI        ON      NM   R$  000000000096600000000009690000000000950000000000095600000000009510000000000951000000000095701007000000000000166200000000000158934200000000000000009999123100000010000000000000BRROMIACNOR8196
012024111302RPAD5       010ALFA HOLDINGPNA          R$  000000000074700000000007470000000000747000000000074700000000007470000000000560000000000074700001000000000000000100000000000000074700000000000000009999123100000010000000000000BRRPADACNPA4219
012024111302RSUL4       010RIOSULENSE  PN           R$  000000000609900000000061000000000006050000000000608200000000060500000000006000000000000605000006000000000000000600000000000003649600000000000000009999123100000010000000000000BRRSULACNPR3114
012024111302BSLI3       010BRB BANCO   ON  ES       R$  000000000085100000000008510000000000850000000000085000000000008500000000000850000000000088900003000000000000000300000000000000255100000000000000009999123100000010000000000000BRBSLIACNOR5195
012024111302BSLI4       010BRB BANCO   PN  ES       R$  000000000080800000000008080000000000807000000000080700000000008080000000000763000000000086700006000000000000000700000000000000565400000000000000009999123100000010000000000000BRBSLIACNPR2195
012024111302EALT3       010ACO ALTONA  ON           R$  000000000155300000000015540000000001553000000000155300000000015540000000001532000000000155400005000000000000000800000000000001242900000000000000009999123100000010000000000000BREALTACNOR4138
012024111302EALT4       010ACO ALTONA  PN           R$  000000000144800000000014790000000001445000000000145200000000014570000000001443000000000145700031000000000000005200000000000007551800000000000000009999123100000010000000000000BREALTACNPR1138
012024111302ECOR3       010ECORODOVIAS ON      NM   R$  000000000068200000000006930000000000668000000000067700000000006710000000000671000000000067511180000000000004918600000000003333824300000000000000009999123100000010000000000000BRECORACNOR8120
012024111302EGIE3       010ENGIE BRASILON      NM   R$  000000000393700000000039480000000003912000000000392800000000039230000000003922000000000393005143000000000001022700000000004017820200000000000000009999123100000010000000000000BREGIEACNOR9127
012024111302ESPA3       010ESPACOLASER ON      NM   R$  000000000009800000000000990000000000095000000000009700000000000980000000000097000000000009800110000000000000304100000000000029618700000000000000009999123100000010000000000000BRESPAACNOR7103
012024111302ESTR4       010ESTRELA     PN           R$  000000000033100000000003690000000000331000000000035000000000003690000000000331000000000039000002000000000000000200000000000000070000000000000000009999123100000010000000000000BRESTRACNPR0144
012024111302ETER3       010ETERNIT     ON  EJ  NM   R$  000000000051800000000005200000000000510000000000051500000000005140000000000514000000000051800473000000000000152400000000000078506500000000000000009999123100000010000000000000BRETERACNOR3245
012024111302EUCA3       010EUCATEX     ON      N1   R$  000000000159600000000016100000000001596000000000160200000000016000000000001600000000000163700003000000000000000300000000000000480600000000000000009999123100000010000000000000BREUCAACNOR1157
012024111302EUCA4       010EUCATEX     PN      N1   R$  000000000139900000000014120000000001396000000000140100000000013960000000001396000000000140700194000000000000033500000000000046939600000000000000009999123100000010000000000000BREUCAACNPR8044
012024111302RCSL3       010RECRUSUL    ON           R$  000000000039600000000003990000000000393000000000039600000000003970000000000397000000000039900665000000000000324100000000000128396500000000000000009999123100000010000000000000BRRCSLACNOR4134
012024111302RCSL4       010RECRUSUL    PN           R$  000000000015200000000001730000000000152000000000016400000000001700000000000170000000000017105174000000000006567900000000001082229600000000000000009999123100000010000000000000BRRCSLACNPR1134
012024111302AERI3       010AERIS       ON      NM   R$  000000000055700000000005720000000000543000000000055300000000005520000000000552000000000055300586000000000000173600000000000096137200000000000000009999123100000010000000000000BRAERIACNOR4102
012024111302AGRO3       010BRASILAGRO  ON      NM   R$  000000000236300000000023740000000002340000000000235600000000023600000000002360000000000236501358000000000000248700000000000586097800000000000000009999123100000010000000000000BRAGROACNOR7115
012024111302BIOM3       010BIOMM       ON      MA   R$  000000000099000000000010050000000000934000000000096300000000009570000000000957000000000096000342000000000000115700000000000111477700000000000000009999123100000010000000000000BRBIOMACNOR2112
012024111302RDNI3       010RNI         ON      NM   R$  000000000027000000000002810000000000270000000000027600000000002730000000000271000000000027300016000000000000003100000000000000858000000000000000009999123100000010000000000000BRRDNIACNOR9116
012024111302RDOR3       010REDE D OR   ON      NM   R$  000000000289400000000029490000000002843000000000289000000000029370000000002929000000000294029734000000000008102200000000023416409100000000000000009999123100000010000000000000BRRDORACNOR8114
012024111302SMFT3       010SMART FIT   ON      NM   R$  000000000201000000000020610000000001992000000000202000000000020250000000002025000000000202712469000000000002484000000000005019124700000000000000009999123100000010000000000000BRSMFTACNOR1112
012024111302SMTO3       010SAO MARTINHOON      NM   R$  000000000242500000000025000000000002425000000000245600000000024540000000002454000000000246809303000000000001889300000000004640559800000000000000009999123100000010000000000000BRSMTOACNOR3127
012024111302SNSY3       010SANSUY      ON           R$  000000000109600000000010960000000001096000000000109600000000010960000000001040000000000113000001000000000000000400000000000000438400000000000000009999123100000010000000000000BRSNSYACNOR2113
012024111302VITT3       010VITTIA      ON      NM   R$  000000000052500000000005360000000000515000000000052500000000005360000000000531000000000053600882000000000000156100000000000082012600000000000000009999123100000010000000000000BRVITTACNOR4108
012024111302VIVA3       010VIVARA S.A. ON      NM   R$  000000000239800000000024710000000002369000000000241200000000024310000000002420000000000243130600000000000013142900000000031713670200000000000000009999123100000010000000000000BRVIVAACNOR0107
012024111302JHSF3       010JHSF PART   ON      NM   R$  000000000044300000000004530000000000439000000000044300000000004450000000000445000000000044605787000000000003198900000000001419998700000000000000009999123100000010000000000000BRJHSFACNOR2141
012024111302JSLG3       010JSL         ON      NM   R$  000000000074700000000007560000000000699000000000071600000000007120000000000712000000000071302790000000000000834900000000000597927100000000000000009999123100000010000000000000BRJSLGACNOR2121
012024111302RECV3       010PETRORECSA  ON  ED  NM   R$  000000000167300000000016960000000001648000000000167200000000016760000000001675000000000168112598000000000003277500000000005483001200000000000000009999123100000010000000000000BRRECVACNOR3108
012024111302REDE3       010REDE ENERGIAON  ED       R$  000000000067000000000006780000000000670000000000067300000000006730000000000673000000000067800009000000000000001000000000000000673900000000000000009999123100000010000000000000BRREDEACNOR7129
012024111302DESK3       010DESKTOP     ON      NM   R$  000000000137500000000013970000000001348000000000136700000000013750000000001375000000000138000621000000000000104800000000000143277200000000000000009999123100000010000000000000BRDESKACNOR2104
012024111302DEXP3       010DEXXOS PAR  ON      N1   R$  000000000084100000000008470000000000795000000000081100000000008300000000000830000000000083501054000000000000339600000000000275484900000000000000009999123100000010000000000000BRDEXPACNOR1105
012024111302DEXP4       010DEXXOS PAR  PN      N1   R$  000000000082000000000008200000000000794000000000080200000000008080000000000808000000000081000043000000000000018800000000000015084400000000000000009999123100000010000000000000BRDEXPACNPR8105
012024111302DIRR3       010DIRECIONAL  ON      NM   R$  000000000309500000000031350000000003057000000000308300000000030650000000003065000000000307509780000000000001679900000000005179505700000000000000009999123100000010000000000000BRDIRRACNOR0119
012024111302DMVF3       010D1000VFARMA ON      NM   R$  000000000067400000000006740000000000650000000000066300000000006610000000000661000000000066400252000000000000145700000000000096655100000000000000009999123100000010000000000000BRDMVFACNOR9100
012024111302DOHL4       010DOHLER      PN           R$  000000000039800000000003990000000000398000000000039800000000003990000000000389000000000039800002000000000000000400000000000000159400000000000000009999123100000010000000000000BRDOHLACNPR9066
012024111302DOTZ3       010DOTZ SA     ON      NM   R$  000000000051300000000005300000000000513000000000051900000000005130000000000512000000000052200040000000000000008100000000000004205100000000000000009999123100000010000000000000BRDOTZACNOR7101
012024111302DXCO3       010DEXCO       ON      NM   R$  000000000077300000000007750000000000764000000000076900000000007720000000000770000000000077305825000000000001908100000000001468470700000000000000009999123100000010000000000000BRDXCOACNOR8105
012024111302ENEV3       010ENEVA       ON      NM   R$  000000000123100000000012330000000001183000000000120300000000012010000000001200000000000120728244000000000025297800000000030441125100000000000000009999123100000010000000000000BRENEVACNOR8106
012024111302ENGI11      010ENERGISA    UNT     N2   R$  000000000403700000000041370000000004037000000000409100000000041140000000004114000000000413019346000000000005167000000000021139440900000000000000009999123100000010000000000000BRENGICDAM16136
012024111302ENGI3       010ENERGISA    ON      N2   R$  000000000119700000000012500000000001197000000000122700000000012310000000001230000000000132100024000000000000003400000000000004173500000000000000009999123100000010000000000000BRENGIACNOR0146
012024111302ENGI4       010ENERGISA    PN      N2   R$  000000000071100000000007310000000000711000000000071500000000007180000000000711000000000071800039000000000000009000000000000006436100000000000000009999123100000010000000000000BRENGIACNPR7142
012024111302HBOR3       010HELBOR      ON      NM   R$  000000000018500000000001880000000000180000000000018300000000001810000000000181000000000018200473000000000000554100000000000101534100000000000000009999123100000010000000000000BRHBORACNOR3118
012024111302HBRE3       010HBR REALTY  ON      NM   R$  000000000043300000000004330000000000416000000000042200000000004240000000000424000000000042701906000000000000692300000000000292685700000000000000009999123100000010000000000000BRHBREACNOR4100
012024111302HBSA3       010HIDROVIAS   ON      NM   R$  000000000032500000000003250000000000317000000000032000000000003210000000000321000000000032303565000000000002086900000000000668500800000000000000009999123100000010000000000000BRHBSAACNOR0101
012024111302HYPE3       010HYPERA      ON      NM   R$  000000000207500000000020850000000002035000000000205800000000020670000000002065000000000206722342000000000005811200000000011962468400000000000000009999123100000010000000000000BRHYPEACNOR0144
012024111302CSMG3       010COPASA      ON      NM   R$  000000000239400000000024050000000002331000000000235400000000023590000000002351000000000236310154000000000002032400000000004784968100000000000000009999123100000010000000000000BRCSMGACNOR5175
012024111302CSNA3       010SID NACIONALON           R$  000000000109000000000011130000000001047000000000106900000000010640000000001062000000000106426658000000000015842000000000016940750800000000000000009999123100000010000000000000BRCSNAACNOR6261
012024111302EKTR4       010ELEKTRO     PN           R$  000000000454200000000045450000000004529000000000454200000000045430000000004273000000000454300007000000000000003500000000000015900300000000000000009999123100000010000000000000BREKTRACNPR7166
012024111302ELET3       010ELETROBRAS  ON      N1   R$  000000000353700000000035760000000003483000000000351600000000035510000000003551000000000355529079000000000018408800000000064727648100000000000000009999123100000010000000000000BRELETACNOR6160
012024111302ELET6       010ELETROBRAS  PNB     N1   R$  000000000400000000000040390000000003942000000000399900000000040210000000004015000000000402406137000000000001921700000000007685635400000000000000009999123100000010000000000000BRELETACNPB7077
012024111302ANIM3       010ANIMA       ON      NM   R$  000000000024300000000002430000000000230000000000023400000000002360000000000235000000000023605141000000000009721200000000002279451900000000000000009999123100000010000000000000BRANIMACNOR6109
012024111302ARML3       010ARMAC       ON      NM   R$  000000000072900000000007600000000000729000000000074900000000007600000000000753000000000076004442000000000001143100000000000856635700000000000000009999123100000010000000000000BRARMLACNOR1113
012024111302ASAI3       010ASSAI       ON      NM   R$  000000000071800000000007260000000000690000000000070400000000007080000000000708000000000070932589000000000022902600000000016130152200000000000000009999123100000010000000000000BRASAIACNOR0106
012024111302BEES3       010BANESTES    ON  EJ       R$  000000000084300000000008480000000000840000000000084300000000008400000000000840000000000084600057000000000000008600000000000007254500000000000000009999123100000010000000000000BRBEESACNOR9397
012024111302BEES4       010BANESTES    PN  EJ       R$  000000000086000000000008690000000000855000000000086000000000008550000000000850000000000085500012000000000000001500000000000001290200000000000000009999123100000010000000000000BRBEESACNPR6322
012024111302BGIP4       010BANESE      PN           R$  000000000238000000000024000000000002380000000000239000000000024000000000002345000000000239900002000000000000000200000000000000478000000000000000009999123100000010000000000000BRBGIPACNPR8210
012024111302BHIA3       010CASAS BAHIA ON      NM   R$  000000000040300000000004110000000000396000000000040200000000004070000000000401000000000040705650000000000003243000000000001306530300000000000000009999123100000010000000000000BRBHIAACNOR1102
012024111302SNSY5       010SANSUY      PNA          R$  000000000050900000000005090000000000452000000000046500000000004520000000000452000000000046500029000000000000013900000000000006471300000000000000009999123100000010000000000000BRSNSYACNPA5111
012024111302SOJA3       010BOA SAFRA   ON      NM   R$  000000000127000000000012760000000001204000000000123800000000012040000000001204000000000121102285000000000000764200000000000946550300000000000000009999123100000010000000000000BRSOJAACNOR9106
012024111302SRNA3       010SERENA      ON      NM   R$  000000000070600000000007150000000000700000000000070900000000007110000000000708000000000071108258000000000002872900000000002037525600000000000000009999123100000010000000000000BRSRNAACNOR4100
012024111302STBP3       010SANTOS BRP  ON      NM   R$  000000000128000000000012930000000001274000000000127700000000012740000000001274000000000128007482000000000004456200000000005692558200000000000000009999123100000010000000000000BRSTBPACNOR3133
012024111302SUZB3       010SUZANO S.A. ON      NM   R$  000000000593800000000059950000000005899000000000596400000000059750000000005972000000000599320853000000000005120600000000030543322300000000000000009999123100000010000000000000BRSUZBACNOR0130
012024111302VALE3       010VALE        ON      NM   R$  000000000573200000000057720000000005711000000000573200000000057160000000005716000000000571746585000000000020354900000000116678061100000000000000009999123100000010000000000000BRVALEACNOR0211
012024111302VIVR3       010VIVER       ON      NM   R$  000000000013500000000001380000000000128000000000013200000000001300000000000128000000000013000139000000000000104200000000000013792700000000000000009999123100000010000000000000BRVIVRACNOR4123
012024111302VIVT3       010TELEF BRASILON           R$  000000000521300000000052500000000005174000000000520500000000052060000000005203000000000521510880000000000001708900000000008896413100000000000000009999123100000010000000000000BRVIVTACNOR0184
012024111302VLID3       010VALID       ON  EJ  NM   R$  000000000247100000000025280000000002458000000000250000000000025050000000002504000000000251002599000000000000464700000000001162111500000000000000009999123100000010000000000000BRVLIDACNOR5145
012024111302ATOM3       010ATOMPAR     ON           R$  000000000030800000000003380000000000302000000000032000000000003330000000000330000000000033300368000000000000113200000000000036228200000000000000009999123100000010000000000000BRATOMACNOR1106
012024111302AURE3       010AUREN       ON      NM   R$  000000000099800000000010020000000000990000000000099500000000009970000000000996000000000099809755000000000005189900000000005164547800000000000000009999123100000010000000000000BRAUREACNOR9104
012024111302AVLL3       010ALPHAVILLE  ON      NM   R$  000000000028400000000002840000000000284000000000028400000000002840000000000270000000000028400001000000000000000100000000000000028400000000000000009999123100000010000000000000BRAVLLACNOR5103
012024111302AZEV3       010AZEVEDO     ON           R$  000000000011900000000001190000000000114000000000011500000000001180000000000116000000000011800234000000000000539200000000000062460800000000000000009999123100000010000000000000BRAZEVACNOR0121
012024111302AZEV4       010AZEVEDO     PN           R$  000000000011600000000001180000000000113000000000011500000000001170000000000116000000000011701106000000000002076900000000000240408500000000000000009999123100000010000000000000BRAZEVACNPR7121
012024111302AZUL4       010AZUL        PN      N2   R$  000000000051400000000005240000000000504000000000051500000000005200000000000519000000000052011513000000000016055200000000008268579400000000000000009999123100000010000000000000BRAZULACNPR4103
012024111302VSTE3       010VESTE       ON      NM   R$  000000000097400000000009900000000000964000000000098000000000009900000000000960000000000099000026000000000000008300000000000008136300000000000000009999123100000010000000000000BRVSTEACNOR5103
012024111302VTRU3       010VITRUEDUCA  ON      NM   R$  000000000083500000000008400000000000800000000000081900000000008240000000000811000000000082400678000000000000152200000000000124656100000000000000009999123100000010000000000000BRVTRUACNOR3100
012024111302VULC3       010VULCABRAS   ON      NM   R$  000000000161700000000016230000000001598000000000160700000000016060000000001605000000000161502395000000000000792500000000001273703600000000000000009999123100000010000000000000BRVULCACNOR2163
012024111307NUTR3       010NUTRIPLANT  ON      MA   R$  000000000033400000000003470000000000328000000000033400000000003350000000000330000000000033600031000000000000006200000000000002072300000000000000009999123100000010000000000000BRNUTRACNOR0104
012024111307SEQL3       010SEQUOIA LOG ON      NM   R$  000000000035100000000003620000000000332000000000034300000000003320000000000332000000000033400986000000000000725200000000000249105100000000000000009999123100000010000000000000BRSEQLACNOR2103
012024111307TXRX4       010TEX RENAUX  PN           R$  000000000021700000000002170000000000216000000000021600000000002160000000000216000000000022600002000000000000000600000000000000130100000000000000009999123100000010000000000000BRTXRXACNPR0142
012024111308PMAM3       010PARANAPANEMAON      NM   R$  000000000010900000000001100000000000105000000000010700000000001090000000000107000000000010900130000000000000056100000000000006053000000000000000009999123100000010000000000000BRPMAMACNOR3040
012024111308JFEN3       010JOAO FORTES ON           R$  000000000002100000000000220000000000020000000000002000000000000200000000000020000000000002100134000000000000606200000000000012469500000000000000009999123100000010000000000000BRJFENACNOR0059
012024111308CTSA4       010SANTANENSE  PN           R$  000000000010500000000001050000000000105000000000010500000000001050000000000105000000000011100003000000000000000300000000000000031500000000000000009999123100000010000000000000BRCTSAACNPR0062
012024111308OIBR3       010OI          ON      N1   R$  000000000010100000000001110000000000090000000000010200000000001020000000000101000000000010207817000000000019327400000000001984038300000000000000009999123100000010000000000000BROIBRACNOR1112
012024111308OIBR4       010OI          PN      N1   R$  000000000098200000000009820000000000895000000000092300000000009130000000000905000000000091300185000000000000046500000000000042940200000000000000009999123100000010000000000000BROIBRACNPR8111
012024111308OSXB3       010OSX BRASIL  ON      NM   R$  000000000051500000000005150000000000473000000000047700000000004730000000000473000000000048500011000000000000001200000000000000572800000000000000009999123100000010000000000000BROSXBACNOR8109
012024111308NEXP3       010NEXPE       ON           R$  000000000044700000000004470000000000410000000000041400000000004120000000000412000000000044700009000000000000001800000000000000746200000000000000009999123100000010000000000000BRNEXPACNOR0101
012024111308TEKA4       010TEKA        PN           R$  000000000295000000000029500000000002950000000000295000000000029500000000001645000000000299900001000000000000000300000000000000885000000000000000009999123100000010000000000000BRTEKAACNPR3140
012024111308LIGT3       010LIGHT S/A   ON      NM   R$  000000000049100000000005060000000000461000000000048400000000004610000000000461000000000046608912000000000004639100000000002246729100000000000000009999123100000010000000000000BRLIGTACNOR2125
012024111308RNEW11      010RENOVA      UNT     N2   R$  000000000031000000000003100000000000294000000000029800000000002960000000000296000000000030000059000000000000019000000000000005678400000000000000009999123100000010000000000000BRRNEWCDAM15110
012024111308RNEW3       010RENOVA      ON      N2   R$  000000000010500000000001050000000000098000000000009900000000001000000000000100000000000010300172000000000000230800000000000023005200000000000000009999123100000010000000000000BRRNEWACNOR8110
012024111308RNEW4       010RENOVA      PN      N2   R$  000000000010300000000001050000000000097000000000009900000000000980000000000098000000000010100448000000000000981900000000000097972300000000000000009999123100000010000000000000BRRNEWACNPR5110
012024111308RPMG3       010PET MANGUINHON           R$  000000000025500000000002590000000000251000000000025300000000002510000000000251000000000025400022000000000000010800000000000002733900000000000000009999123100000010000000000000BRRPMGACNOR9194
012024111308RSID3       010ROSSI RESID ON      NM   R$  000000000032800000000003280000000000309000000000031500000000003160000000000312000000000031600220000000000000039600000000000012507200000000000000009999123100000010000000000000BRRSIDACNOR8120
012024111308AGXY3       010AGROGALAXY  ON      NM   R$  000000000004200000000000430000000000039000000000004100000000000410000000000041000000000004300185000000000000124300000000000005169800000000000000009999123100000010000000000000BRAGXYACNOR4103
012024111308HOOT4       010HOTEIS OTHONPN           R$  000000000022800000000002280000000000228000000000022800000000002280000000000227000000000022800002000000000000000200000000000000045600000000000000009999123100000010000000000000BRHOOTACNPR9015
012024111308AMER3       010AMERICANAS  ON      NM   R$  000000000033000000000003390000000000317000000000032500000000003360000000000334000000000033607259000000000016912900000000005501204000000000000000009999123100000010000000000000BRAMERACNOR6103
012024111308ATMP3       010ATMASA      ON           R$  000000000012300000000001290000000000122000000000012600000000001290000000000129000000000013100008000000000000002500000000000000315200000000000000009999123100000010000000000000BRATMPACNOR8100
012024111310IFCM1       010INFRACOMM   DIR ORD NM   R$  000000000000200000000000030000000000001000000000000100000000000020000000000001000000000000200184000000000001563500000000000002529900000000000000009999123100000010000000000000BRIFCMD02OR1101
012024111310GMAT1       010GRUPO MATEUSDIR ORD NM   R$  000000000001700000000000360000000000010000000000001500000000000120000000000012000000000002200440000000000000077600000000000001231500000000000000009999123100000010000000000000BRGMATD01OR2103
012024111310BSLI1       010BRB BANCO   DIR ORD      R$  000000000005700000000000570000000000057000000000005700000000000570000000000004000000000005000001000000000000000100000000000000005700000000000000009999123100000010000000000000BRBSLID04OR4194
012024111310BSLI2       010BRB BANCO   DIR PRE      R$  000000000001200000000000150000000000010000000000001100000000000120000000000012000000000002000024000000000000013600000000000000159700000000000000009999123100000010000000000000BRBSLID03PR3194
012024111310MBLY1       010MOBLY       DIR ORD NM   R$  000000000000100000000000010000000000001000000000000100000000000010000000000000000000000000100007000000000000021800000000000000021800000000000000009999123100000010000000000000BRMBLYD01OR0100
012024111310MBLY11      010MOBLY       DIR     NM   R$  000000000001000000000000160000000000006000000000001000000000000130000000000009000000000001300027000000000000014900000000000000152400000000000000009999123100000010000000000000BRMBLYD01M18100
012024111310MERC2       010MERC FINANC DIR PRE      R$  000000000002100000000000210000000000008000000000001200000000000080000000000008000000000004000009000000000000000900000000000000010900000000000000009999123100000010000000000000BRMERCD02PR2180
012024111310LIGT11      010LIGHT S/A   DIR     NM   R$  000000000000100000000000010000000000001000000000000100000000000010000000000000000000000000100119000000000000168100000000000000168100000000000000009999123100000010000000000000BRLIGTD01M16124
012024111310LIGT13      010LIGHT S/A   DIR     NM   R$  000000000000100000000000020000000000001000000000000100000000000010000000000000000000000000100037000000000000350100000000000000350200000000000000009999123100000010000000000000BRLIGTD02M15124
012024111310HBSA1       010HIDROVIAS   DIR ORD NM   R$  000000000000100000000000010000000000001000000000000100000000000010000000000000000000000000100022000000000000413400000000000000413400000000000000009999123100000010000000000000BRHBSAD01OR5100
012024111312ICRI11      010FII CI IPCA CI           R$  000000000940800000000094270000000009356000000000938600000000094150000000009381000000000942500513000000000000012418000000000116560919000000000000009999123100000010000000000000BRICRICTF004109
012024111312IDGR11      010FII UNID II CI           R$  000000000030000000000003000000000000278000000000028300000000002780000000000278000000000028100015000000000000000067000000000000018999000000000000009999123100000010000000000000BRIDGRCTF006132
012024111312PEMA11      010FII PERFORMACI           R$  000000000290000000000031000000000002900000000000291000000000031000000000002800000000000310000008000000000000000062000000000000180450000000000000009999123100000010000000000000BRPEMACTF003140
012024111312PLCR11      010FII PLURAL RCI           R$  000000000790000000000079790000000007900000000000793300000000079580000000007955000000000795800742000000000000002593000000000020572838000000000000009999123100000010000000000000BRPLCRCTF003160
012024111312PLRI11      010FII POLO I  CI           R$  000000000101700000000010180000000001017000000000101700000000010170000000001016000000000108800006000000000000000060000000000000061023000000000000009999123100000010000000000000BRPLRICTF000246
012024111312PMIS11      010FII PMIS    CI           R$  000000000088500000000008950000000000881000000000088800000000008810000000000881000000000088902121000000000000035764000000000031778438000000000000009999123100000010000000000000BRPMISCTF006112
012024111312PORD11      010FII POLO CRICI           R$  000000000079100000000008010000000000782000000000079000000000007870000000000784000000000078701323000000000000047472000000000037503512000000000000009999123100000010000000000000BRPORDCTF005179
012024111312PQDP11      010FII D PEDRO CI           R$  000000020496900000002049890000000199687000000020086300000002018990000000198201000000020190000074000000000000000205000000000041177091000000000000009999123100000010000000000000BRPQDPCTF004276
012024111312RBDS11      010FII RBRESID2CI           R$  000000000029900000000002990000000000299000000000029900000000002990000000000270000000000029900001000000000000000001000000000000000299000000000000009999123100000010000000000000BRRBDSCTF006179
012024111312RBED11      010FII RIOB ED CI           R$  000000001070700000000107160000000010605000000001068100000000106680000000010650000000001068600290000000000000005141000000000054911854000000000000009999123100000010000000000000BRRBEDCTF006169
012024111312RBFF11      010FII RIOB FF CI           R$  000000000507000000000050980000000005002000000000505200000000050900000000005055000000000509001368000000000000010435000000000052725831000000000000009999123100000010000000000000BRRBFFCTF008165
012024111312RBHG11      010FII RBCRI IVCI           R$  000000000786800000000078700000000007719000000000778300000000077300000000007730000000000773301009000000000000002744000000000021356605000000000000009999123100000010000000000000BRRBHGCTF002139
012024111312RBHY11      010FII RB YIELDCI           R$  000000000809900000000081360000000007901000000000803200000000081290000000008085000000000812900739000000000000005871000000000047160251000000000000009999123100000010000000000000BRRBHYCTF005149
012024111312RBIR11      010FII RBRES IVCI           R$  000000000794900000000079500000000007800000000000785600000000079480000000007807000000000794800039000000000000000341000000000002678957000000000000009999123100000010000000000000BRRBIRCTF007114
012024111312RBOP11      010FII MERC BR CI  ER       R$  000000003666100000000366610000000034999000000003552500000000353990000000034363000000003619900027000000000000000061000000000002167062000000000000009999123100000010000000000000BRRBOPCTF009126
012024111312BTWR11      010FII BTOWERS CI           R$  000000001054900000000105490000000010549000000001054900000000105490000000011076000000000000000001000000000000000947000000000009989903000000000000009999123100000010000000000000BRBTWRCTF004141
012024111312BTYU11      010FII BTYU    CI           R$  000000000111000000000011500000000001110000000000111400000000011500000000001100000000000115000004000000000000000036000000000000040130000000000000009999123100000010000000000000BRBTYUCTF004106
012024111312CPTS11      010FII CAPI SECCI  ER       R$  000000000070800000000007080000000000694000000000069800000000007000000000000699000000000070018220000000000001868125000000001305333261000000000000009999123100000010000000000000BRCPTSCTF004236
012024111312CPUR11      010FII CPHBC URCI           R$  000000000100000000000010200000000001000000000000101400000000010170000000000942000000000101700007000000000000020028000000000020328157000000000000009999123100000010000000000000BRCPURCTF004100
012024111312CRFF11      010FII CX RBRA2CI  ER       R$  000000000727900000000074000000000006960000000000699500000000074000000000007400000000000740600014000000000000001098000000000007681171000000000000009999123100000010000000000000BRCRFFCTF006166
012024111312EQIR11      010FII EQI RECECI           R$  000000000083000000000008350000000000826000000000082900000000008310000000000827000000000083100201000000000000023675000000000019628109000000000000009999123100000010000000000000BREQIRCTF003137
012024111312BLCA11      010FII BLUE AAACI  ER       R$  000000000994300000000099430000000009551000000000969600000000095510000000009452000000000959900022000000000000000067000000000000649684000000000000009999123100000010000000000000BRBLCACTF009136
012024111312BLMG11      010FII BLUE LOGCI  ER       R$  000000000330000000000033000000000003220000000000325500000000032200000000003220000000000323000890000000000000014868000000000048396735000000000000009999123100000010000000000000BRBLMGCTF005152
012024111312BLMO11      010FII BLUEMAC CI           R$  000000000729000000000072900000000006768000000000725000000000072900000000006780000000000729000009000000000000000082000000000000594566000000000000009999123100000010000000000000BRBLMOCTF009136
012024111312BLOG11      010FII BLOG    CI           R$  000000000105000000000010500000000001050000000000105000000000010500000000001030000000000105000001000000000000000001000000000000001050000000000000009999123100000010000000000000BRBLOGCTF001105
012024111312BPFF11      010FII ABSOLUTOCI           R$  000000000602000000000060500000000006000000000000602300000000060400000000006026000000000605000557000000000000005080000000000030597705000000000000009999123100000010000000000000BRBPFFCTF002241
012024111312BPML11      010FII BTG SHOPCI           R$  000000000795800000000080520000000007913000000000799300000000080150000000008015000000000802002473000000000000008660000000000069220833000000000000009999123100000010000000000000BRBPMLCTF006135
012024111312ZAGH11      010FII ZAGH    CI           R$  000000000129000000000012900000000001287000000000128700000000012900000000001250000000000129000003000000000000000007000000000000009015000000000000009999123100000010000000000000BRZAGHCTF007109
012024111312ZAVI11      010FII ZAVIT R CI           R$  000000001035000000000106000000000010200000000001029800000000103990000000010399000000001049900395000000000000002271000000000023387777000000000000009999123100000010000000000000BRZAVICTF004126
012024111312VVCO11      010FII V2EDCORPCI           R$  000000000130900000000013140000000001275000000000127900000000013140000000001275000000000131000012000000000000000921000000000001178817000000000000009999123100000010000000000000BRVVCOCTF007101
012024111312VVCR11      010FII V2 RECE CI           R$  000000000095000000000009520000000000950000000000095000000000009500000000000950000000000095200022000000000000002816000000000002677809000000000000009999123100000010000000000000BRVVCRCTF000120
012024111312VVMR11      010FII MULT RENCI           R$  000000000854700000000086970000000008547000000000869200000000086970000000007831000000000869700009000000000000000156000000000001356006000000000000009999123100000010000000000000BRVVMRCTF009110
012024111312VXXV11      010FII VX XVI  CI           R$  000000006920000000000692000000000069200000000006920000000000692000000000000000000000000000000001000000000000000001000000000000069200000000000000009999123100000010000000000000BRVXXVCTF004109
012024111312WHGR11      010FII WHG REALCI           R$  000000000090100000000009030000000000894000000000089800000000008980000000000898000000000090202804000000000000077625000000000069733660000000000000009999123100000010000000000000BRWHGRCTF008130
012024111312WPLZ11      010FII W PLAZA CI           R$  000000000549900000000054990000000005450000000000548700000000054500000000005450000000000549900006000000000000000022000000000000120733000000000000009999123100000010000000000000BRWPLZCTF004271
012024111312WSEC11      010FII WARREN  CI  ER       R$  000000000080900000000008250000000000800000000000081800000000008250000000000810000000000082400029000000000000000552000000000000451832000000000000009999123100000010000000000000BRWSECCTF010126
012024111312WTSP11      010FII WTC SP  CI           R$  000000000540000000000054000000000005400000000000540000000000054000000000005119000000000550000002000000000000002000000000000010800000000000000000009999123100000010000000000000BRWTSPCTF002168
012024111312XPCI11      010FII XP CRED CI           R$  000000000792700000000079990000000007903000000000794000000000079400000000007904000000000794007068000000000000018795000000000149236020000000000000009999123100000010000000000000BRXPCICTF007162
012024111312XPCM11      010FII XP MACAECI           R$  000000000071500000000007310000000000715000000000071900000000007160000000000716000000000071700077000000000000001256000000000000903565000000000000009999123100000010000000000000BRXPCMCTF009230
012024111312XPIN11      010FII XP INDL CI           R$  000000000710000000000071190000000007048000000000709100000000070590000000007053000000000705900446000000000000003301000000000023408541000000000000009999123100000010000000000000BRXPINCTF004178
012024111312XPLG11      010FII XP LOG  CI           R$  000000000956500000000096000000000009520000000000955600000000095570000000009553000000000955706357000000000000038105000000000364142687000000000000009999123100000010000000000000BRXPLGCTF002183
012024111312XPML11      010FII XP MALLSCI           R$  000000001031000000000103630000000010299000000001031600000000103270000000010299000000001032719119000000000000108577000000001120088443000000000000009999123100000010000000000000BRXPMLCTF000189
012024111312XPPR11      010FII XP PROP CI           R$  000000000148300000000014830000000001415000000000145600000000014790000000001463000000000148000643000000000000006387000000000009300688000000000000009999123100000010000000000000BRXPPRCTF000160
012024111312XPSF11      010FII XP SELECCI           R$  000000000066500000000006660000000000650000000000065500000000006510000000000651000000000065402648000000000000097419000000000063873860000000000000009999123100000010000000000000BRXPSFCTF009161
