00COTAHIST.2024BOVESPA 20241028                                                                                                                                                                                                                      
012024102802TOTS3       010TOTVS       ON      NM   R$  000000000290900000000029500000000002905000000000292800000000029270000000002925000000000292709241000000000001956500000000005729560000000000000000009999123100000010000000000000BRTOTSACNOR8145
012024102802TPIS3       010TRIUNFO PARTON      NM   R$  000000000067000000000006970000000000660000000000067900000000006760000000000676000000000067900382000000000000098900000000000067187700000000000000009999123100000010000000000000BRTPISACNOR8118
012024102802TRAD3       010TC          ON      NM   R$  000000000057200000000005820000000000547000000000056200000000005560000000000556000000000056300540000000000000164400000000000092550200000000000000009999123100000010000000000000BRTRADACNOR3102
012024102802TRIS3       010TRISUL      ON      NM   R$  000000000052700000000005460000000000523000000000053900000000005410000000000541000000000054601756000000000000667300000000000360246600000000000000009999123100000010000000000000BRTRISACNOR4118
012024102802TRPL3       010TRAN PAULISTON      N1   R$  000000000310000000000031490000000003010000000000308600000000030660000000003070000000000313700027000000000000003200000000000009877700000000000000009999123100000010000000000000BRTRPLACNOR4185
012024102802TRPL4       010TRAN PAULISTPN      N1   R$  000000000244300000000024580000000002439000000000244500000000024470000000002446000000000244803396000000000000872500000000002134036500000000000000009999123100000010000000000000BRTRPLACNPR1185
012024102802BPAC11      010BTGP BANCO  UNT     N2   R$  000000000328600000000033420000000003270000000000332300000000033280000000003320000000000332811449000000000007939300000000026389731400000000000000009999123100000010000000000000BRBPACUNT006119
012024102802BPAC3       010BTGP BANCO  ON      N2   R$  000000000152200000000015650000000001522000000000155500000000015480000000001525000000000158500021000000000000002900000000000004510200000000000000009999123100000010000000000000BRBPACACNOR7134
012024102802BPAC5       010BTGP BANCO  PNA     N2   R$  000000000086300000000008790000000000862000000000086800000000008790000000000867000000000087900014000000000000002200000000000001909900000000000000009999123100000010000000000000BRBPACACNPA0134
012024102802COCE5       010COELCE      PNA          R$  000000000280000000000028000000000002741000000000276900000000027650000000002764000000000278500009000000000000000900000000000002492400000000000000009999123100000010000000000000BRCOCEACNPA3147
012024102802COGN3       010COGNA ON    ON      NM   R$  000000000014500000000001480000000000144000000000014600000000001450000000000145000000000014606542000000000022978400000000003355120300000000000000009999123100000010000000000000BRCOGNACNOR2105
012024102802QUAL3       010QUALICORP   ON      NM   R$  000000000021400000000002240000000000214000000000021900000000002230000000000221000000000022302499000000000002984800000000000655761000000000000000009999123100000010000000000000BRQUALACNOR6120
012024102802RADL3       010RAIADROGASILON      NM   R$  000000000247800000000024830000000002434000000000244800000000024420000000002442000000000244407302000000000001867300000000004572449500000000000000009999123100000010000000000000BRRADLACNOR0158
012024102802SCAR3       010SAO CARLOS  ON      NM   R$  000000000210000000000021750000000002100000000000213300000000021390000000002105000000000214000023000000000000004400000000000009387100000000000000009999123100000010000000000000BRSCARACNOR7131
012024102802SEER3       010SER EDUCA   ON      NM   R$  000000000059500000000006170000000000595000000000060900000000006140000000000609000000000061401868000000000000458400000000000279561700000000000000009999123100000010000000000000BRSEERACNOR5119
012024102802CXSE3       010CAIXA SEGURION      NM   R$  000000000145900000000014810000000001449000000000145800000000014510000000001451000000000145209018000000000004214200000000006145641900000000000000009999123100000010000000000000BRCXSEACNOR7107
012024102802CYRE3       010CYRELA REALTON      NM   R$  000000000213800000000021580000000002112000000000212800000000021210000000002121000000000212507785000000000003626400000000007718000900000000000000009999123100000010000000000000BRCYREACNOR7140
012024102802FRAS3       010FRAS-LE     ON      N1   R$  000000000223300000000022500000000002233000000000224200000000022400000000002239000000000225301146000000000000251000000000000562830200000000000000009999123100000010000000000000BRFRASACNOR0160
012024102802FRIO3       010METALFRIO   ON      NM   R$  000000001360100000000142000000000012901000000001339400000000134000000000011100000000001340000080000000000000009800000000000131261600000000000000009999123100000010000000000000BRFRIOACNOR2111
012024102802GFSA3       010GAFISA      ON      NM   R$  000000000016700000000001730000000000167000000000017000000000001670000000000167000000000016801907000000000005103400000000000868902000000000000000009999123100000010000000000000BRGFSAACNOR3125
012024102802GGBR3       010GERDAU      ON      N1   R$  000000000172900000000017570000000001729000000000174900000000017560000000001750000000000175700516000000000000126500000000000221269400000000000000009999123100000010000000000000BRGGBRACNOR1193
012024102802GGBR4       010GERDAU      PN      N1   R$  000000000181100000000018350000000001809000000000182500000000018280000000001825000000000182812833000000000006057200000000011055706600000000000000009999123100000010000000000000BRGGBRACNPR8193
012024102802ITSA4       010ITAUSA      PN      N1   R$  000000000107300000000010810000000001071000000000107600000000010770000000001076000000000107810844000000000012079500000000013002328000000000000000009999123100000010000000000000BRITSAACNPR7443
012024102802ITUB3       010ITAUUNIBANCOON      N1   R$  000000000306500000000030990000000003051000000000308600000000030800000000003080000000000309101998000000000000435800000000001344993400000000000000009999123100000010000000000000BRITUBACNOR4342
012024102802ITUB4       010ITAUUNIBANCOPN      N1   R$  000000000356400000000035910000000003549000000000357700000000035730000000003572000000000357518023000000000010533000000000037680045100000000000000009999123100000010000000000000BRITUBACNPR1342
012024102802AZZA3       010AZZAS 2154  ON      NM   R$  000000000410000000000041190000000004054000000000408000000000040830000000004080000000000409004224000000000001015100000000004141952100000000000000009999123100000010000000000000BRAZZAACNOR9100
012024102802BBSE3       010BBSEGURIDADEON      NM   R$  000000000344000000000034640000000003421000000000343600000000034380000000003431000000000343809861000000000003743700000000012864008900000000000000009999123100000010000000000000BRBBSEACNOR5125
012024102802CMIG3       010CEMIG       ON      N1   R$  000000000144900000000014580000000001442000000000144800000000014580000000001448000000000145800480000000000000110900000000000160636000000000000000009999123100000010000000000000BRCMIGACNOR6244
012024102802CMIG4       010CEMIG       PN      N1   R$  000000000112100000000011320000000001120000000000112800000000011290000000001128000000000112912414000000000009341600000000010544615800000000000000009999123100000010000000000000BRCMIGACNPR3245
012024102802CMIN3       010CSNMINERACAOON      N2   R$  000000000060500000000006100000000000599000000000060200000000006060000000000605000000000060604505000000000005755300000000003469804900000000000000009999123100000010000000000000BRCMINACNOR2112
012024102802CSUD3       010CSU DIGITAL ON      NM   R$  000000000171200000000017350000000001702000000000172100000000017350000000001733000000000173500108000000000000025300000000000043550900000000000000009999123100000010000000000000BRCSUDACNOR5111
012024102802CTKA4       010KARSTEN     PN           R$  000000000190000000000019000000000001900000000000190000000000019000000000001802000000000190000001000000000000000100000000000000190000000000000000009999123100000010000000000000BRCTKAACNPR7043
012024102802CURY3       010CURY S/A    ON      NM   R$  000000000247000000000024940000000002423000000000246000000000024730000000002473000000000248607322000000000001550400000000003815455800000000000000009999123100000010000000000000BRCURYACNOR3110
012024102802CVCB3       010CVC BRASIL  ON      NM   R$  000000000021100000000002200000000000207000000000021500000000002140000000000214000000000021505915000000000017450300000000003751993800000000000000009999123100000010000000000000BRCVCBACNOR1116
012024102802ESPA3       010ESPACOLASER ON      NM   R$  000000000009400000000000960000000000094000000000009400000000000950000000000095000000000009600053000000000000105200000000000009947100000000000000009999123100000010000000000000BRESPAACNOR7103
012024102802ESTR4       010ESTRELA     PN           R$  000000000035000000000003820000000000350000000000036300000000003740000000000324000000000038000008000000000000001900000000000000691400000000000000009999123100000010000000000000BRESTRACNPR0144
012024102802ETER3       010ETERNIT     ON      NM   R$  000000000052400000000005330000000000524000000000052900000000005300000000000526000000000053000434000000000000140000000000000074102500000000000000009999123100000010000000000000BRETERACNOR3244
012024102802EUCA3       010EUCATEX     ON      N1   R$  000000000162800000000016280000000001572000000000158400000000015720000000001571000000000159900012000000000000001700000000000002694200000000000000009999123100000010000000000000BREUCAACNOR1157
012024102802EUCA4       010EUCATEX     PN      N1   R$  000000000143000000000014630000000001430000000000144500000000014630000000001451000000000146300282000000000000036800000000000053190700000000000000009999123100000010000000000000BREUCAACNPR8044
012024102802SHOW3       010TIME FOR FUNON      NM   R$  000000000009300000000000950000000000092000000000009300000000000950000000000093000000000009500187000000000000098600000000000009264700000000000000009999123100000010000000000000BRSHOWACNOR7105
012024102802SHUL4       010SCHULZ      PN           R$  000000000062800000000006300000000000622000000000062800000000006300000000000626000000000063000407000000000000160300000000000100684000000000000000009999123100000010000000000000BRSHULACNPR4157
012024102802SIMH3       010SIMPAR      ON      NM   R$  000000000053500000000005550000000000534000000000054900000000005440000000000544000000000054605794000000000003216800000000001766057200000000000000009999123100000010000000000000BRSIMHACNOR0107
012024102802SLCE3       010SLC AGRICOLAON      NM   R$  000000000173800000000017380000000001718000000000172600000000017200000000001720000000000172105408000000000001597500000000002757633400000000000000009999123100000010000000000000BRSLCEACNOR2125
012024102802EVEN3       010EVEN        ON      NM   R$  000000000061400000000006250000000000610000000000061700000000006170000000000617000000000062001858000000000000573600000000000354448400000000000000009999123100000010000000000000BREVENACNOR8120
012024102802EZTC3       010EZTEC       ON      NM   R$  000000000135600000000013800000000001350000000000136200000000013510000000001351000000000135205438000000000002082300000000002837272800000000000000009999123100000010000000000000BREZTCACNOR0126
012024102802FESA4       010FERBASA     PN      N1   R$  000000000075300000000007620000000000748000000000075600000000007540000000000754000000000075701049000000000000304800000000000230446400000000000000009999123100000010000000000000BRFESAACNPR5085
012024102802FHER3       010FER HERINGERON      NM   R$  000000000036300000000003690000000000362000000000036400000000003650000000000365000000000037000020000000000000005200000000000001895000000000000000009999123100000010000000000000BRFHERACNOR5103
012024102802FIQE3       010UNIFIQUE    ON      NM   R$  000000000038300000000003880000000000381000000000038500000000003850000000000385000000000038700435000000000000369300000000000142393300000000000000009999123100000010000000000000BRFIQEACNOR5107
012024102802ASAI3       010ASSAI       ON      NM   R$  000000000073100000000007610000000000731000000000074900000000007420000000000742000000000074512959000000000017455800000000013078304500000000000000009999123100000010000000000000BRASAIACNOR0106
012024102802ATOM3       010ATOMPAR     ON           R$  000000000040100000000004190000000000380000000000039900000000004080000000000404000000000040800156000000000000068300000000000027282100000000000000009999123100000010000000000000BRATOMACNOR1106
012024102802AURE3       010AUREN       ON      NM   R$  000000000104100000000010520000000001034000000000104400000000010340000000001033000000000103809129000000000005440400000000005683172300000000000000009999123100000010000000000000BRAUREACNOR9104
012024102802BRSR3       010BANRISUL    ON      N1   R$  000000000129000000000012970000000001270000000000128200000000012700000000001263000000000129000074000000000000017300000000000022194100000000000000009999123100000010000000000000BRBRSRACNOR3189
012024102802BRSR5       010BANRISUL    PNA     N1   R$  000000000158100000000016810000000001555000000000160900000000016810000000001575000000000168100006000000000000000600000000000000965900000000000000009999123100000010000000000000BRBRSRACNPA6193
012024102802BRSR6       010BANRISUL    PNB     N1   R$  000000000111300000000011290000000001113000000000112300000000011220000000001122000000000112502042000000000000491900000000000552626900000000000000009999123100000010000000000000BRBRSRACNPB4192
012024102802BSLI4       010BRB BANCO   PN           R$  000000000089500000000008950000000000895000000000089500000000008950000000000895000000000092400001000000000000000300000000000000268500000000000000009999123100000010000000000000BRBSLIACNPR2194
012024102802CAMB3       010CAMBUCI     ON           R$  000000000122000000000012350000000001217000000000122700000000012230000000001223000000000123300050000000000000056700000000000069611200000000000000009999123100000010000000000000BRCAMBACNOR4131
012024102802CAML3       010CAMIL       ON      NM   R$  000000000079900000000008060000000000794000000000080300000000008050000000000803000000000080501311000000000000289600000000000232635000000000000000009999123100000010000000000000BRCAMLACNOR3129
012024102802CRPG5       010CRISTAL     PNA          R$  000000000252100000000025490000000002300000000000248000000000025490000000002501000000000259500039000000000000005000000000000012401200000000000000009999123100000010000000000000BRCRPGACNPA3119
012024102802CRPG6       010CRISTAL     PNB          R$  000000000252300000000025490000000002501000000000252400000000025490000000002451000000000259900003000000000000000300000000000000757300000000000000009999123100000010000000000000BRCRPGACNPB1119
012024102802CSAN3       010COSAN       ON      NM   R$  000000000118700000000012330000000001181000000000121400000000012070000000001207000000000120815908000000000021406900000000026001636700000000000000009999123100000010000000000000BRCSANACNOR6126
012024102802ENEV3       010ENEVA       ON      NM   R$  000000000136300000000013630000000001329000000000134300000000013430000000001342000000000134510771000000000006095800000000008189053200000000000000009999123100000010000000000000BRENEVACNOR8106
012024102802KLBN11      010KLABIN S/A  UNT     N2   R$  000000000209000000000021130000000002070000000000207900000000020700000000002069000000000207010584000000000005440400000000011315252300000000000000009999123100000010000000000000BRKLBNCDAM18143
012024102802KLBN3       010KLABIN S/A  ON      N2   R$  000000000041400000000004250000000000414000000000041900000000004190000000000416000000000041900408000000000000167900000000000070383000000000000000009999123100000010000000000000BRKLBNACNOR2171
012024102802KLBN4       010KLABIN S/A  PN      N2   R$  000000000041700000000004220000000000414000000000041700000000004150000000000415000000000041601505000000000000857200000000000357980900000000000000009999123100000010000000000000BRKLBNACNPR9171
012024102802KRSA3       010KORA SAUDE  ON      NM   R$  000000000053100000000005700000000000531000000000055000000000005640000000000560000000000056700078000000000000030500000000000016800200000000000000009999123100000010000000000000BRKRSAACNOR0101
012024102802LAND3       010TERRASANTAPAON      NM   R$  000000000131500000000013540000000001315000000000134000000000013540000000001335000000000135400116000000000000014200000000000019029900000000000000009999123100000010000000000000BRLANDACNOR9103
012024102802LAVV3       010LAVVI       ON      NM   R$  000000000081200000000008500000000000812000000000083600000000008360000000000835000000000083603163000000000000672100000000000561964100000000000000009999123100000010000000000000BRLAVVACNOR4113
012024102802RECV3       010PETRORECSA  ON      NM   R$  000000000167100000000016940000000001665000000000168100000000016850000000001685000000000168805250000000000001236000000000002078577900000000000000009999123100000010000000000000BRRECVACNOR3107
012024102802REDE3       010REDE ENERGIAON           R$  000000000067400000000006800000000000672000000000067600000000006790000000000678000000000067900011000000000000002700000000000001825500000000000000009999123100000010000000000000BRREDEACNOR7128
012024102802RENT3       010LOCALIZA    ON      NM   R$  000000000427000000000042890000000004232000000000426300000000042380000000004236000000000424018232000000000006548800000000027919434900000000000000009999123100000010000000000000BRRENTACNOR4197
012024102802SNSY5       010SANSUY      PNA          R$  000000000050200000000005020000000000485000000000049300000000004990000000000478000000000049900009000000000000001200000000000000592300000000000000009999123100000010000000000000BRSNSYACNPA5111
012024102802SOJA3       010BOA SAFRA   ON      NM   R$  000000000122400000000012530000000001223000000000124000000000012340000000001234000000000124302400000000000000418700000000000519504100000000000000009999123100000010000000000000BRSOJAACNOR9106
012024102802SRNA3       010SERENA      ON      NM   R$  000000000082500000000008410000000000825000000000083100000000008280000000000828000000000083402449000000000000964000000000000801707900000000000000009999123100000010000000000000BRSRNAACNOR4100
012024102802STBP3       010SANTOS BRP  ON  ER  NM   R$  000000000128500000000012910000000001276000000000127900000000012790000000001278000000000128105903000000000006437900000000008234728600000000000000009999123100000010000000000000BRSTBPACNOR3132
012024102802SUZB3       010SUZANO S.A. ON      NM   R$  000000000592700000000060670000000005903000000000596500000000059500000000005949000000000595123816000000000007574300000000045182604900000000000000009999123100000010000000000000BRSUZBACNOR0130
012024102802ODPV3       010ODONTOPREV  ON      NM   R$  000000000104500000000010560000000001038000000000104700000000010430000000001040000000000104304070000000000001291500000000001352642300000000000000009999123100000010000000000000BRODPVACNOR4204
012024102802OFSA3       010OUROFINO S/AON      NM   R$  000000000216400000000021710000000002164000000000216800000000021710000000002170000000000220000008000000000000001300000000000002819100000000000000009999123100000010000000000000BROFSAACNOR7118
012024102802ONCO3       010ONCOCLINICASON      NM   R$  000000000045900000000004690000000000456000000000046400000000004620000000000462000000000046401575000000000000800700000000000371674400000000000000009999123100000010000000000000BRONCOACNOR6101
012024102802OPCT3       010OCEANPACT   ON      NM   R$  000000000063600000000006470000000000621000000000063600000000006210000000000621000000000062301084000000000000280400000000000178505000000000000000009999123100000010000000000000BROPCTACNOR0100
012024102802ORVR3       010ORIZON      ON      NM   R$  000000000466600000000047510000000004666000000000472800000000047230000000004722000000000472402068000000000000418400000000001978217100000000000000009999123100000010000000000000BRORVRACNOR0101
012024102802PCAR3       010P.ACUCAR-CBDON      NM   R$  000000000031800000000003240000000000314000000000031900000000003140000000000314000000000031505600000000000010518800000000003355731600000000000000009999123100000010000000000000BRPCARACNOR3167
012024102802PETZ3       010PETZ        ON      NM   R$  000000000048800000000004990000000000488000000000049500000000004970000000000496000000000049705748000000000004657500000000002307952300000000000000009999123100000010000000000000BRPETZACNOR2110
012024102802RAIZ4       010RAIZEN      PN      N2   R$  000000000028500000000002890000000000284000000000028600000000002870000000000286000000000028705047000000000007054100000000002023211900000000000000009999123100000010000000000000BRRAIZACNPR6111
012024102802RANI3       010IRANI       ON      NM   R$  000000000075500000000007760000000000754000000000076800000000007720000000000767000000000077203013000000000001165100000000000894826900000000000000009999123100000010000000000000BRRANIACNOR5073
012024102802RAPT3       010RANDON PART ON      N1   R$  000000000093300000000009470000000000927000000000093600000000009400000000000930000000000094000049000000000000011600000000000010860800000000000000009999123100000010000000000000BRRAPTACNOR7163
012024102802RAPT4       010RANDON PART PN      N1   R$  000000000109700000000011190000000001094000000000110300000000011010000000001097000000000110103428000000000000996900000000001099870600000000000000009999123100000010000000000000BRRAPTACNPR4163
012024102802SMFT3       010SMART FIT   ON      NM   R$  000000000216400000000021800000000002144000000000216400000000021580000000002157000000000216605490000000000001207500000000002613732800000000000000009999123100000010000000000000BRSMFTACNOR1112
012024102802SMTO3       010SAO MARTINHOON      NM   R$  000000000254800000000025860000000002537000000000255900000000025370000000002537000000000254003512000000000000659000000000001686571900000000000000009999123100000010000000000000BRSMTOACNOR3127
012024102802MATD3       010MATER DEI   ON      NM   R$  000000000042000000000004300000000000420000000000042500000000004230000000000422000000000042300475000000000000117600000000000049992000000000000000009999123100000010000000000000BRMATDACNOR4104
012024102802MBLY3       010MOBLY       ON  ES  NM   R$  000000000020500000000002100000000000203000000000020600000000002080000000000208000000000020900908000000000001301300000000000268473300000000000000009999123100000010000000000000BRMBLYACNOR5101
012024102802MDIA3       010M.DIASBRANCOON      NM   R$  000000000248600000000025380000000002480000000000252000000000025150000000002513000000000252102251000000000000472300000000001190322200000000000000009999123100000010000000000000BRMDIAACNOR7136
012024102802MDNE3       010MOURA DUBEUXON      NM   R$  000000000156000000000015850000000001538000000000156700000000015800000000001578000000000158004204000000000000685600000000001074608500000000000000009999123100000010000000000000BRMDNEACNOR9100
012024102802MEAL3       010IMC S/A     ON      NM   R$  000000000013800000000001410000000000138000000000014000000000001400000000000140000000000014100158000000000000489100000000000068577800000000000000009999123100000010000000000000BRMEALACNOR9105
012024102802MELK3       010MELNICK     ON      NM   R$  000000000035900000000003670000000000359000000000036400000000003670000000000365000000000036700409000000000000192000000000000069924300000000000000009999123100000010000000000000BRMELKACNOR8111
012024102802MGEL4       010MANGELS INDLPN           R$  000000000083400000000008340000000000798000000000080100000000007980000000000785000000000079900008000000000000001400000000000001122100000000000000009999123100000010000000000000BRMGELACNPR3147
012024102802BIOM3       010BIOMM       ON      MA   R$  000000000087800000000009080000000000878000000000089400000000008800000000000880000000000088200238000000000000051000000000000045600600000000000000009999123100000010000000000000BRBIOMACNOR2112
012024102802BRAV3       010BRAVA       ON      NM   R$  000000000166400000000017040000000001640000000000167200000000016800000000001680000000000168209747000000000006555300000000010964582700000000000000009999123100000010000000000000BRBRAVACNOR3100
012024102802JBSS3       010JBS         ON      NM   R$  000000000348000000000036250000000003472000000000358500000000036070000000003603000000000360825649000000000006300400000000022588005800000000000000009999123100000010000000000000BRJBSSACNOR8122
012024102802MILS3       010MILLS       ON      NM   R$  000000000106000000000010880000000001060000000000107800000000010770000000001075000000000107701895000000000000751600000000000810564600000000000000009999123100000010000000000000BRMILSACNOR2128
012024102802MLAS3       010MULTILASER  ON      NM   R$  000000000016200000000001720000000000162000000000016800000000001670000000000167000000000016803476000000000002590400000000000437197700000000000000009999123100000010000000000000BRMLASACNOR9101
012024102802MNPR3       010MINUPAR     ON           R$  000000000199400000000020280000000001951000000000198700000000019510000000001950000000000200000006000000000000001000000000000001987500000000000000009999123100000010000000000000BRMNPRACNOR5122
012024102802MOVI3       010MOVIDA      ON  ATZ NM   R$  000000000060500000000006210000000000602000000000061300000000006100000000000609000000000061306238000000000004629100000000002839691000000000000000009999123100000010000000000000BRMOVIACNOR0123
012024102802MRFG3       010MARFRIG     ON      NM   R$  000000000144900000000014850000000001449000000000147600000000014760000000001475000000000147708485000000000004039500000000005962631600000000000000009999123100000010000000000000BRMRFGACNOR0116
012024102802BAUH4       010EXCELSIOR   PN           R$  000000000740000000000078000000000007400000000000766600000000077990000000000000000000000780000003000000000000000300000000000002299900000000000000009999123100000010000000000000BRBAUHACNPR3118
012024102802BAZA3       010AMAZONIA    ON           R$  000000000889900000000091300000000008899000000000907600000000091300000000009000000000000910000006000000000000001200000000000010891900000000000000009999123100000010000000000000BRBAZAACNOR0179
012024102802BBAS3       010BRASIL      ON      NM   R$  000000000265000000000026550000000002619000000000263100000000026320000000002630000000000263223688000000000018192100000000047874983700000000000000009999123100000010000000000000BRBBASACNOR3326
012024102802USIM3       010USIMINAS    ON      N1   R$  000000000065000000000006540000000000642000000000064700000000006460000000000646000000000064700947000000000000316400000000000204983800000000000000009999123100000010000000000000BRUSIMACNOR3167
012024102802USIM5       010USIMINAS    PNA     N1   R$  000000000067400000000006750000000000661000000000066700000000006630000000000662000000000066311099000000000010933700000000007295211000000000000000009999123100000010000000000000BRUSIMACNPA6169
012024102802WEST3       010WESTWING    ON      NM   R$  000000000008000000000000800000000000078000000000007800000000000780000000000078000000000007900037000000000000031700000000000002491200000000000000009999123100000010000000000000BRWESTACNOR3100
012024102802WHRL3       010WHIRLPOOL   ON           R$  000000000041800000000004200000000000416000000000041800000000004160000000000416000000000041800010000000000000002200000000000000919600000000000000009999123100000010000000000000BRWHRLACNOR5129
012024102802WHRL4       010WHIRLPOOL   PN           R$  000000000044100000000004450000000000441000000000044300000000004450000000000445000000000044700016000000000000007300000000000003234700000000000000009999123100000010000000000000BRWHRLACNPR2129
012024102802WIZC3       010WIZ CO      ON      NM   R$  000000000058100000000005860000000000581000000000058400000000005840000000000584000000000058600795000000000000175500000000000102508600000000000000009999123100000010000000000000BRWIZCACNOR5102
012024102802WLMM3       010WLM IND COM ON           R$  000000000269900000000026990000000002699000000000269900000000026990000000002550000000000269900001000000000000000100000000000000269900000000000000009999123100000010000000000000BRWLMMACNOR6119
012024102802WLMM4       010WLM IND COM PN           R$  000000000307500000000030750000000003060000000000306300000000030600000000003010000000000307200010000000000000001100000000000003369700000000000000009999123100000010000000000000BRWLMMACNPR3119
012024102802AALR3       010ALLIAR      ON      NM   R$  000000000146400000000014900000000001460000000000148100000000014800000000001480000000000149100067000000000000010300000000000015257700000000000000009999123100000010000000000000BRAALRACNOR6102
012024102802ALLD3       010ALLIED      ON      NM   R$  000000000076300000000007640000000000753000000000075900000000007630000000000759000000000076300097000000000000018400000000000013978100000000000000009999123100000010000000000000BRALLDACNOR3106
012024102802ALOS3       010ALLOS       ON  ED  NM   R$  000000000219800000000022310000000002190000000000221800000000022140000000002213000000000221911296000000000003088000000000006849964700000000000000009999123100000010000000000000BRALOSACNOR5103
012024102802BLAU3       010BLAU        ON      NM   R$  000000000141000000000014640000000001410000000000144400000000014470000000001443000000000145200636000000000000085300000000000123223500000000000000009999123100000010000000000000BRBLAUACNOR8115
012024102802TTEN3       0103TENTOS     ON      NM   R$  000000000112100000000011610000000001118000000000114100000000011240000000001124000000000113103756000000000000658700000000000751786700000000000000009999123100000010000000000000BRTTENACNOR0103
012024102802VIVR3       010VIVER       ON      NM   R$  000000000015700000000001600000000000157000000000015800000000001570000000000157000000000015800061000000000000021700000000000003436100000000000000009999123100000010000000000000BRVIVRACNOR4123
012024102802VIVT3       010TELEF BRASILON           R$  000000000539900000000054400000000005354000000000541000000000053860000000005384000000000539906588000000000001073300000000005806778700000000000000009999123100000010000000000000BRVIVTACNOR0184
012024102802VLID3       010VALID       ON      NM   R$  000000000230000000000023210000000002287000000000230800000000023210000000002300000000000232101438000000000000251200000000000579771900000000000000009999123100000010000000000000BRVLIDACNOR5144
012024102802VSTE3       010VESTE       ON      NM   R$  000000000099500000000009950000000000940000000000095300000000009400000000000940000000000095800080000000000000043400000000000041394000000000000000009999123100000010000000000000BRVSTEACNOR5103
012024102802VTRU3       010VITRUEDUCA  ON      NM   R$  000000000090900000000009190000000000893000000000090600000000009090000000000906000000000090900550000000000000144700000000000131141400000000000000009999123100000010000000000000BRVTRUACNOR3100
012024102802VULC3       010VULCABRAS   ON  ED  NM   R$  000000000162300000000016460000000001618000000000163700000000016300000000001630000000000164101859000000000000358200000000000586629400000000000000009999123100000010000000000000BRVULCACNOR2163
012024102802ROMI3       010ROMI        ON      NM   R$  000000000100500000000010120000000001002000000000100600000000010020000000001001000000000100500718000000000000112000000000000112691200000000000000009999123100000010000000000000BRROMIACNOR8196
012024102802RSUL4       010RIOSULENSE  PN           R$  000000000618000000000061800000000006140000000000615300000000061400000000006140000000000617000003000000000000000300000000000001846000000000000000009999123100000010000000000000BRRSULACNPR3114
012024102802VVEO3       010VIVEO       ON      NM   R$  000000000019700000000002120000000000193000000000020400000000002010000000000201000000000020203198000000000004959600000000001013202200000000000000009999123100000010000000000000BRVVEOACNOR0104
012024102802ABCB4       010ABC BRASIL  PN      N2   R$  000000000214000000000021480000000002127000000000213700000000021270000000002127000000000213702272000000000000353500000000000755780800000000000000009999123100000010000000000000BRABCBACNPR4146
012024102802ABEV3       010AMBEV S/A   ON           R$  000000000128100000000013000000000001278000000000129200000000012890000000001289000000000129028548000000000020050900000000025907888500000000000000009999123100000010000000000000BRABEVACNOR1128
012024102802BAHI3       010BAHEMA      ON      MA   R$  000000000044100000000004590000000000428000000000044200000000004460000000000446000000000045500028000000000000011400000000000005044200000000000000009999123100000010000000000000BRBAHIACNOR1074
012024102802SANB11      010SANTANDER BRUNT EDJ      R$  000000000287500000000028950000000002862000000000288300000000028870000000002882000000000288706790000000000001447800000000004175196800000000000000009999123100000010000000000000BRSANBCDAM13166
012024102802SANB3       010SANTANDER BRON  EDJ      R$  000000000136300000000013750000000001350000000000136800000000013670000000001366000000000136800417000000000000091300000000000124956800000000000000009999123100000010000000000000BRSANBACNOR8173
012024102802SANB4       010SANTANDER BRPN  EDJ      R$  000000000149200000000015170000000001492000000000150900000000015170000000001506000000000151700430000000000000084300000000000127249200000000000000009999123100000010000000000000BRSANBACNPR5173
012024102802ELET3       010ELETROBRAS  ON      N1   R$  000000000383400000000038460000000003806000000000383000000000038370000000003834000000000383809056000000000003182000000000012188379400000000000000009999123100000010000000000000BRELETACNOR6160
012024102802ELET6       010ELETROBRAS  PNB     N1   R$  000000000424100000000042590000000004224000000000424200000000042450000000004245000000000424602031000000000000485600000000002060155300000000000000009999123100000010000000000000BRELETACNPB7077
012024102802HBOR3       010HELBOR      ON      NM   R$  000000000018300000000001870000000000183000000000018500000000001870000000000186000000000018700443000000000000488600000000000090600200000000000000009999123100000010000000000000BRHBORACNOR3118
012024102802HBRE3       010HBR REALTY  ON      NM   R$  000000000045800000000004750000000000458000000000047000000000004730000000000469000000000047300924000000000000503800000000000236966600000000000000009999123100000010000000000000BRHBREACNOR4100
012024102802HBSA3       010HIDROVIAS   ON      NM   R$  000000000032100000000003260000000000321000000000032300000000003210000000000320000000000032301363000000000000833500000000000269224200000000000000009999123100000010000000000000BRHBSAACNOR0101
012024102802TCSA3       010TECNISA     ON      NM   R$  000000000014200000000001430000000000140000000000014000000000001400000000000139000000000014000137000000000000085000000000000011925300000000000000009999123100000010000000000000BRTCSAACNOR3112
012024102802TECN3       010TECHNOS     ON      NM   R$  000000000059300000000005980000000000584000000000059000000000005870000000000587000000000059300219000000000000081200000000000047944900000000000000009999123100000010000000000000BRTECNACNOR6109
012024102802TELB3       010TELEBRAS    ON           R$  000000000142000000000014750000000001415000000000142600000000014550000000001415000000000145000007000000000000001300000000000001854500000000000000009999123100000010000000000000BRTELBACNOR2140
012024102802TELB4       010TELEBRAS    PN           R$  000000000092100000000009360000000000916000000000092000000000009210000000000917000000000092100007000000000000001400000000000001289100000000000000009999123100000010000000000000BRTELBACNPR9140
012024102802TEND3       010TENDA       ON      NM   R$  000000000145000000000014690000000001420000000000144200000000014470000000001447000000000144806142000000000001864600000000002690057300000000000000009999123100000010000000000000BRTENDACNOR4111
012024102802TFCO4       010TRACK FIELD PN      N2   R$  000000000105800000000010670000000001045000000000105400000000010600000000001054000000000106100860000000000000199500000000000210455600000000000000009999123100000010000000000000BRTFCOACNPR8115
012024102802TGMA3       010TEGMA       ON      NM   R$  000000000293900000000029740000000002933000000000295900000000029740000000002972000000000297500982000000000000196600000000000581767000000000000000009999123100000010000000000000BRTGMAACNOR7145
012024102802TIMS3       010TIM         ON      NM   R$  000000000171800000000017360000000001695000000000171900000000017190000000001719000000000172509738000000000005723400000000009843593800000000000000009999123100000010000000000000BRTIMSACNOR5118
012024102802VBBR3       010VIBRA       ON      NM   R$  000000000221000000000022550000000002201000000000224000000000022330000000002232000000000223315185000000000004701300000000010534281300000000000000009999123100000010000000000000BRVBBRACNOR1109
012024102802VITT3       010VITTIA      ON  EJ  NM   R$  000000000054900000000005570000000000543000000000055000000000005500000000000549000000000055001033000000000000234500000000000129120400000000000000009999123100000010000000000000BRVITTACNOR4108
012024102802VIVA3       010VIVARA S.A. ON      NM   R$  000000000249800000000025340000000002498000000000251700000000025220000000002520000000000252907979000000000001671700000000004207894700000000000000009999123100000010000000000000BRVIVAACNOR0107
012024102802HYPE3       010HYPERA      ON      NM   R$  000000000259900000000025990000000002386000000000243800000000023920000000002391000000000239329198000000000015425700000000037611351600000000000000009999123100000010000000000000BRHYPEACNOR0144
012024102802JALL3       010JALLESMACHADON      NM   R$  000000000060300000000006210000000000603000000000061500000000006190000000000613000000000061901186000000000000421000000000000259077200000000000000009999123100000010000000000000BRJALLACNOR0106
012024102802BOBR4       010BOMBRIL     PN           R$  000000000028400000000002880000000000279000000000028100000000002810000000000281000000000028400064000000000000037900000000000010667500000000000000009999123100000010000000000000BRBOBRACNPR3128
012024102802BRBI11      010BR PARTNERS UNT     N2   R$  000000000149500000000015130000000001491000000000150100000000015080000000001502000000000150801126000000000000173100000000000259975000000000000000009999123100000010000000000000BRBRBICDAM10110
012024102802BRFS3       010BRF SA      ON      NM   R$  000000000246000000000025630000000002455000000000253100000000025560000000002555000000000255817321000000000011127300000000028164156600000000000000009999123100000010000000000000BRBRFSACNOR8122
012024102802EKTR4       010ELEKTRO     PN  ED       R$  000000000460000000000046000000000004150000000000418000000000041620000000004162000000000424500040000000000000007100000000000029683700000000000000009999123100000010000000000000BREKTRACNPR7166
012024102802BMEB3       010MERCANTIL   ON      N1   R$  000000000376900000000037690000000003769000000000376900000000037690000000002800000000000376900001000000000000000100000000000000376900000000000000009999123100000010000000000000BRBMEBACNOR8206
012024102802BMEB4       010MERCANTIL   PN      N1   R$  000000000415000000000043250000000003985000000000414300000000040600000000004017000000000406100393000000000000056700000000000234938300000000000000009999123100000010000000000000BRBMEBACNPR5211
012024102802BMGB4       010BANCO BMG   PN  EJ  N1   R$  000000000040600000000004150000000000400000000000040500000000004040000000000404000000000040501860000000000000857400000000000347805800000000000000009999123100000010000000000000BRBMGBACNPR0111
012024102802BMIN4       010MERC INVEST PN           R$  000000000164000000000016400000000001640000000000164000000000016400000000001625000000000185000003000000000000000900000000000001476000000000000000009999123100000010000000000000BRBMINACNPR1176
012024102802BMKS3       010BIC MONARK  ON           R$  000000003119900000000313980000000030900000000003114500000000309000000000030650000000003119900006000000000000000024000000000000747497000000000000009999123100000010000000000000BRBMKSACNOR9166
012024102802BMOB3       010BEMOBI TECH ON      NM   R$  000000000152100000000015430000000001521000000000153400000000015220000000001522000000000153600802000000000000127200000000000195191600000000000000009999123100000010000000000000BRBMOBACNOR7103
012024102802BNBR3       010NORD BRASIL ON           R$  000000000968800000000096880000000009688000000000968800000000096880000000009688000000001028700001000000000000000100000000000000968800000000000000009999123100000010000000000000BRBNBRACNOR8209
012024102802EALT3       010ACO ALTONA  ON           R$  000000000143100000000015380000000001431000000000146600000000015350000000001459000000000153900011000000000000001300000000000001906600000000000000009999123100000010000000000000BREALTACNOR4138
012024102802EALT4       010ACO ALTONA  PN           R$  000000000135000000000013500000000001312000000000132500000000013270000000001310000000000132700032000000000000004600000000000006095300000000000000009999123100000010000000000000BREALTACNPR1138
012024102802ECOR3       010ECORODOVIAS ON      NM   R$  000000000069900000000007170000000000696000000000071100000000007150000000000714000000000071504240000000000003157900000000002247077700000000000000009999123100000010000000000000BRECORACNOR8120
012024102802EGIE3       010ENGIE BRASILON      NM   R$  000000000411900000000041220000000004088000000000409800000000040920000000004089000000000409802961000000000000616800000000002527730000000000000000009999123100000010000000000000BREGIEACNOR9127
012024102802WEGE3       010WEG         ON      NM   R$  000000000562000000000056450000000005586000000000560900000000056260000000005620000000000562609215000000000002063700000000011575934600000000000000009999123100000010000000000000BRWEGEACNOR0225
012024102802TASA3       010TAURUS ARMASON      N2   R$  000000000100300000000010100000000000990000000000099700000000009900000000000990000000000099500046000000000000007100000000000007081200000000000000009999123100000010000000000000BRTASAACNOR7104
012024102802TASA4       010TAURUS ARMASPN      N2   R$  000000000098200000000009840000000000964000000000097300000000009640000000000963000000000096501052000000000000238900000000000232579200000000000000009999123100000010000000000000BRTASAACNPR4104
012024102802DXCO3       010DEXCO       ON      NM   R$  000000000085200000000008630000000000846000000000085500000000008580000000000856000000000085806169000000000001972300000000001686427800000000000000009999123100000010000000000000BRDXCOACNOR8105
012024102802GGPS3       010GPS         ON      NM   R$  000000000174400000000017770000000001724000000000174300000000017240000000001723000000000172505825000000000002440200000000004255653400000000000000009999123100000010000000000000BRGGPSACNOR9103
012024102802GMAT3       010GRUPO MATEUSON      NM   R$  000000000073400000000007430000000000727000000000073600000000007380000000000738000000000073904210000000000003349200000000002467227900000000000000009999123100000010000000000000BRGMATACNOR7103
012024102802GOAU3       010GERDAU MET  ON      N1   R$  000000000100600000000010170000000001004000000000101000000000010120000000001009000000000101300220000000000000036800000000000037186500000000000000009999123100000010000000000000BRGOAUACNOR1268
012024102802GOAU4       010GERDAU MET  PN      N1   R$  000000000102000000000010230000000001013000000000101800000000010200000000001019000000000102005144000000000004424900000000004507023600000000000000009999123100000010000000000000BRGOAUACNPR8269
012024102802B3SA3       010B3          ON      NM   R$  000000000107800000000010950000000001077000000000108700000000010890000000001087000000000108930295000000000029203800000000031772150500000000000000009999123100000010000000000000BRB3SAACNOR6134
012024102802BEEF3       010MINERVA     ON  ATZ NM   R$  000000000055600000000005680000000000553000000000055900000000005620000000000561000000000056211566000000000008103900000000004534303100000000000000009999123100000010000000000000BRBEEFACNOR6117
012024102802HAPV3       010HAPVIDA     ON      NM   R$  000000000036800000000003730000000000364000000000036900000000003710000000000371000000000037229482000000000043287700000000016011070200000000000000009999123100000010000000000000BRHAPVACNOR4115
012024102802BEES3       010BANESTES    ON           R$  000000000088000000000008870000000000871000000000087500000000008720000000000872000000000087500074000000000000014800000000000012963400000000000000009999123100000010000000000000BRBEESACNOR9396
012024102802BEES4       010BANESTES    PN           R$  000000000090100000000009200000000000894000000000089900000000008940000000000890000000000090000017000000000000002300000000000002068100000000000000009999123100000010000000000000BRBEESACNPR6321
012024102802FLRY3       010FLEURY      ON      NM   R$  000000000151500000000015270000000001511000000000152000000000015150000000001515000000000151905165000000000001734600000000002636885300000000000000009999123100000010000000000000BRFLRYACNOR5139
012024102802ITSA3       010ITAUSA      ON      N1   R$  000000000106200000000010820000000001062000000000107700000000010790000000001078000000000108300362000000000000138600000000000149383000000000000000009999123100000010000000000000BRITSAACNOR0443
012024102802LUPA3       010LUPATECH    ON      NM   R$  000000000015100000000001560000000000149000000000015200000000001500000000000150000000000015100202000000000000351300000000000053574500000000000000009999123100000010000000000000BRLUPAACNOR8112
012024102802LVTC3       010WDC NETWORKSON      NM   R$  000000000036800000000003700000000000358000000000036400000000003580000000000358000000000036100038000000000000014100000000000005134200000000000000009999123100000010000000000000BRLVTCACNOR4102
012024102802LWSA3       010LWSA        ON      NM   R$  000000000043400000000004490000000000434000000000044300000000004390000000000439000000000044005308000000000003835200000000001702378000000000000000009999123100000010000000000000BRLWSAACNOR8103
012024102802AVLL3       010ALPHAVILLE  ON      NM   R$  000000000029900000000002990000000000294000000000029400000000002940000000000281000000000029500002000000000000001500000000000000441500000000000000009999123100000010000000000000BRAVLLACNOR5103
012024102802AZEV3       010AZEVEDO     ON           R$  000000000012300000000001230000000000119000000000012000000000001200000000000120000000000012100365000000000000956100000000000115354700000000000000009999123100000010000000000000BRAZEVACNOR0121
012024102802AZEV4       010AZEVEDO     PN           R$  000000000012200000000001230000000000119000000000012000000000001200000000000119000000000012000770000000000001654500000000000199662700000000000000009999123100000010000000000000BRAZEVACNPR7121
012024102802AZUL4       010AZUL        PN      N2   R$  000000000059000000000006260000000000575000000000059800000000006110000000000611000000000061221483000000000055499100000000033234422000000000000000009999123100000010000000000000BRAZULACNPR4103
012024102802CASH3       010MELIUZ      ON      NM   R$  000000000035000000000003570000000000348000000000035200000000003550000000000352000000000035601081000000000000641500000000000226162000000000000000009999123100000010000000000000BRCASHACNOR8107
012024102802CBAV3       010CBA         ON      NM   R$  000000000059400000000006060000000000584000000000059500000000005880000000000587000000000058805016000000000002772200000000001650185700000000000000009999123100000010000000000000BRCBAVACNOR5104
012024102802CCRO3       010CCR SA      ON      NM   R$  000000000122200000000012380000000001213000000000122700000000012250000000001224000000000122513791000000000009387100000000011523388200000000000000009999123100000010000000000000BRCCROACNOR2145
012024102802CEAB3       010CEA MODAS   ON      NM   R$  000000000129400000000013140000000001248000000000127400000000012520000000001251000000000125410120000000000004038600000000005148048700000000000000009999123100000010000000000000BRCEABACNOR1102
012024102802CEBR3       010CEB         ON           R$  000000000188700000000018990000000001885000000000188900000000018990000000001879000000000189900012000000000000001400000000000002645600000000000000009999123100000010000000000000BRCEBRACNOR5125
012024102802CEBR5       010CEB         PNA          R$  000000000166200000000016620000000001613000000000165100000000016500000000001650000000000166000009000000000000003400000000000005613400000000000000009999123100000010000000000000BRCEBRACNPA8124
012024102802CEBR6       010CEB         PNB          R$  000000000176500000000018000000000001762000000000177800000000017950000000001795000000000181400032000000000000007900000000000014053200000000000000009999123100000010000000000000BRCEBRACNPB6124
012024102802CEEB3       010COELBA      ON           R$  000000000391900000000039500000000003919000000000393900000000039500000000003926000000000429800003000000000000000300000000000001181900000000000000009999123100000010000000000000BRCEEBACNOR3200
012024102802CEEB5       010COELBA      PNA          R$  000000000357000000000035700000000003570000000000357000000000035700000000003570000000000000000002000000000000000600000000000002142000000000000000009999123100000010000000000000BRCEEBACNPA6194
012024102802CGAS3       010COMGAS      ON           R$  000000001270000000000127000000000012700000000001270000000000127000000000012688000000001360000001000000000000000200000000000002540000000000000000009999123100000010000000000000BRCGASACNOR0164
012024102802CGAS5       010COMGAS      PNA          R$  000000001304400000000130500000000013044000000001304700000000130500000000012700000000001308700002000000000000000200000000000002609400000000000000009999123100000010000000000000BRCGASACNPA3161
012024102802CGRA3       010GRAZZIOTIN  ON           R$  000000000256700000000025700000000002567000000000256900000000025700000000002513000000000257000005000000000000000500000000000001284500000000000000009999123100000010000000000000BRCGRAACNOR2083
012024102802CGRA4       010GRAZZIOTIN  PN           R$  000000000250700000000025400000000002507000000000251700000000025250000000002525000000000253000016000000000000002100000000000005286300000000000000009999123100000010000000000000BRCGRAACNPR9083
012024102802CLSA3       010CLEARSALE   ON      NM   R$  000000000094500000000009460000000000939000000000094300000000009440000000000944000000000094501497000000000000758800000000000715635700000000000000009999123100000010000000000000BRCLSAACNOR0100
012024102802CLSC3       010CELESC      ON      N2   R$  000000000745000000000075000000000007450000000000748300000000075000000000007423000000000750000002000000000000000300000000000002245000000000000000009999123100000010000000000000BRCLSCACNOR6153
012024102802CLSC4       010CELESC      PN      N2   R$  000000000789600000000079910000000007881000000000792100000000078950000000007894000000000791900011000000000000001100000000000008713800000000000000009999123100000010000000000000BRCLSCACNPR3132
012024102802NEOE3       010NEOENERGIA  ON      NM   R$  000000000191700000000019360000000001908000000000192100000000019200000000001920000000000192402838000000000001737100000000003338485800000000000000009999123100000010000000000000BRNEOEACNOR3123
012024102802PSSA3       010PORTO SEGUROON      NM   R$  000000000383100000000038910000000003821000000000386500000000038610000000003860000000000386808139000000000001419200000000005486288000000000000000009999123100000010000000000000BRPSSAACNOR7156
012024102802PTBL3       010PORTOBELLO  ON      NM   R$  000000000042900000000004390000000000429000000000043500000000004300000000000430000000000043601381000000000000322700000000000140465800000000000000009999123100000010000000000000BRPTBLACNOR8132
012024102802PTNT3       010PETTENATI   ON           R$  000000000094800000000009480000000000931000000000093600000000009400000000000903000000000094400004000000000000000500000000000000468300000000000000009999123100000010000000000000BRPTNTACNOR6042
012024102802PTNT4       010PETTENATI   PN           R$  000000000064500000000006450000000000635000000000063900000000006350000000000621000000000064000026000000000000006100000000000003901500000000000000009999123100000010000000000000BRPTNTACNPR3047
012024102802CSED3       010CRUZEIRO EDUON      NM   R$  000000000034000000000003490000000000337000000000034500000000003490000000000342000000000034900734000000000000332000000000000114712800000000000000009999123100000010000000000000BRCSEDACNOR9105
012024102802CSMG3       010COPASA      ON      NM   R$  000000000227200000000022850000000002254000000000227500000000022680000000002268000000000227204537000000000001099200000000002501295700000000000000009999123100000010000000000000BRCSMGACNOR5175
012024102802CSNA3       010SID NACIONALON           R$  000000000119700000000012110000000001192000000000120300000000012060000000001205000000000120606524000000000003942700000000004744367400000000000000009999123100000010000000000000BRCSNAACNOR6261
012024102802ENGI11      010ENERGISA    UNT     N2   R$  000000000432800000000043530000000004266000000000430000000000042890000000004286000000000429208033000000000002766600000000011898229100000000000000009999123100000010000000000000BRENGICDAM16136
012024102802ENGI3       010ENERGISA    ON      N2   R$  000000000128900000000012950000000001266000000000127900000000012660000000001266000000000129700013000000000000001400000000000001791900000000000000009999123100000010000000000000BRENGIACNOR0146
012024102802ENGI4       010ENERGISA    PN      N2   R$  000000000076000000000007700000000000752000000000075900000000007520000000000751000000000075900026000000000000004100000000000003112600000000000000009999123100000010000000000000BRENGIACNPR7142
012024102802ENJU3       010ENJOEI      ON      NM   R$  000000000012500000000001290000000000124000000000012600000000001260000000000126000000000012700258000000000000297300000000000037581100000000000000009999123100000010000000000000BRENJUACNOR9100
012024102802EPAR3       010EMBPAR S/A  ON           R$  000000000057100000000005750000000000555000000000056500000000005660000000000562000000000056700019000000000000003600000000000002035700000000000000009999123100000010000000000000BREPARACNOR9105
012024102802EQMA3B      010EQTLMARANHAOON      MB   R$  000000000225100000000022510000000002249000000000224900000000022500000000002250000000000229900004000000000000001000000000000002249300000000000000009999123100000010000000000000BREQMAACNOR8108
012024102802EQPA3       010EQTL PARA   ON           R$  000000000058000000000005870000000000571000000000057800000000005800000000000576000000000058300027000000000000010900000000000006301600000000000000009999123100000010000000000000BREQPAACNOR1111
012024102802EQTL3       010EQUATORIAL  ON      NM   R$  000000000319900000000032130000000003162000000000318100000000031680000000003166000000000317115489000000000007080600000000022527832400000000000000009999123100000010000000000000BREQTLACNOR0131
012024102802IFCM3       010INFRACOMM   ON      NM   R$  000000000001300000000000150000000000013000000000001300000000000140000000000013000000000001400634000000000014966900000000000206853200000000000000009999123100000010000000000000BRIFCMACNOR8101
012024102802IGTI11      010IGUATEMI S.AUNT     N1   R$  000000000210900000000021480000000002109000000000213200000000021300000000002130000000000213705316000000000001496600000000003191933100000000000000009999123100000010000000000000BRIGTICDAM16106
012024102802IGTI3       010IGUATEMI S.AON      N1   R$  000000000025400000000002570000000000254000000000025500000000002570000000000254000000000025700041000000000000028600000000000007302900000000000000009999123100000010000000000000BRIGTIACNOR8106
012024102802INEP3       010INEPAR      ON           R$  000000000016200000000001630000000000160000000000016100000000001630000000000161000000000016300011000000000000003600000000000000580800000000000000009999123100000010000000000000BRINEPACNOR1143
012024102802INEP4       010INEPAR      PN           R$  000000000016600000000001670000000000164000000000016400000000001640000000000164000000000016500030000000000000020700000000000003412800000000000000009999123100000010000000000000BRINEPACNPR8143
012024102802INTB3       010INTELBRAS   ON      NM   R$  000000000202000000000020780000000002020000000000204600000000020480000000002046000000000204906554000000000001436700000000002940586900000000000000009999123100000010000000000000BRINTBACNOR9112
012024102802IRBR3       010IRBBRASIL REON      NM   R$  000000000416400000000044700000000004146000000000433200000000044160000000004411000000000441606605000000000001914200000000008293638600000000000000009999123100000010000000000000BRIRBRACNOR4111
012024102802LEVE3       010METAL LEVE  ON      NM   R$  000000000302000000000030550000000003015000000000302900000000030150000000003015000000000302001203000000000000219200000000000664068200000000000000009999123100000010000000000000BRLEVEACNOR2197
012024102802LJQQ3       010QUERO-QUERO ON      NM   R$  000000000028600000000002930000000000286000000000028900000000002870000000000287000000000028805016000000000003181200000000000919739800000000000000009999123100000010000000000000BRLJQQACNOR5104
012024102802LOGG3       010LOG COM PROPON      NM   R$  000000000223100000000022880000000002231000000000225700000000022400000000002240000000000225201032000000000000120900000000000272955600000000000000009999123100000010000000000000BRLOGGACNOR7107
012024102802LOGN3       010LOG-IN      ON      NM   R$  000000000267900000000027470000000002633000000000269900000000027190000000002685000000000272000143000000000000018400000000000049664100000000000000009999123100000010000000000000BRLOGNACNOR3105
012024102802LPSB3       010LOPES BRASILON      NM   R$  000000000016400000000001680000000000161000000000016500000000001650000000000165000000000016700301000000000000154200000000000025509100000000000000009999123100000010000000000000BRLPSBACNOR0114
012024102802LREN3       010LOJAS RENNERON      NM   R$  000000000187900000000018790000000001836000000000185400000000018510000000001851000000000185314458000000000010110500000000018748146700000000000000009999123100000010000000000000BRLRENACNOR1222
012024102802ARML3       010ARMAC       ON      NM   R$  000000000072600000000007450000000000717000000000073000000000007230000000000723000000000072902982000000000001032300000000000754497200000000000000009999123100000010000000000000BRARMLACNOR1113
012024102802ALPA3       010ALPARGATAS  ON      N1   R$  000000000064900000000006670000000000649000000000065500000000006500000000000650000000000066500034000000000000008700000000000005698800000000000000009999123100000010000000000000BRALPAACNOR0231
012024102802ALPA4       010ALPARGATAS  PN      N1   R$  000000000071800000000007350000000000713000000000072400000000007200000000000719000000000072205666000000000001831500000000001326021100000000000000009999123100000010000000000000BRALPAACNPR7232
012024102802ALPK3       010ESTAPAR     ON      NM   R$  000000000027900000000003130000000000276000000000029700000000003090000000000306000000000030900892000000000000309600000000000091951800000000000000009999123100000010000000000000BRALPKACNOR9101
012024102802ALUP11      010ALUPAR      UNT     N2   R$  000000000291100000000029470000000002911000000000293100000000029310000000002931000000000293202178000000000000413900000000001213472600000000000000009999123100000010000000000000BRALUPCDAM15120
012024102802ALUP3       010ALUPAR      ON      N2   R$  000000000098800000000010060000000000988000000000099600000000009930000000000992000000000100000015000000000000002000000000000001992800000000000000009999123100000010000000000000BRALUPACNOR8120
012024102802ALUP4       010ALUPAR      PN      N2   R$  000000000096500000000009700000000000959000000000096400000000009630000000000961000000000096500059000000000000007900000000000007623400000000000000009999123100000010000000000000BRALUPACNPR5120
012024102802AMAR3       010LOJAS MARISAON      NM   R$  000000000009500000000000980000000000095000000000009600000000000950000000000095000000000009600557000000000000291900000000000028119800000000000000009999123100000010000000000000BRAMARACNOR4115
012024102802AMBP3       010AMBIPAR     ON      NM   R$  000000001335100000000134460000000013111000000001328100000000132400000000013200000000001324000477000000000000071000000000000942954100000000000000009999123100000010000000000000BRAMBPACNOR6103
012024102802ANIM3       010ANIMA       ON      NM   R$  000000000026000000000002710000000000258000000000026600000000002650000000000264000000000026705531000000000007420800000000001975760500000000000000009999123100000010000000000000BRANIMACNOR6109
012024102802BBDC3       010BRADESCO    ON      N1   R$  000000000132200000000013390000000001318000000000133000000000013330000000001329000000000133304135000000000003435000000000004571369700000000000000009999123100000010000000000000BRBBDCACNOR1776
012024102802BBDC4       010BRADESCO    PN      N1   R$  000000000150500000000015350000000001504000000000152400000000015200000000001520000000000152243881000000000022941700000000034968730900000000000000009999123100000010000000000000BRBBDCACNPR8776
012024102802BRIT3       010BRISANET    ON      NM   R$  000000000030600000000003200000000000305000000000031300000000003190000000000317000000000032000558000000000000274500000000000085993500000000000000009999123100000010000000000000BRBRITACNOR0103
012024102802BRKM3       010BRASKEM     ON      N1   R$  000000000172300000000017650000000001723000000000173700000000017340000000001734000000000174100131000000000000021200000000000036838600000000000000009999123100000010000000000000BRBRKMACNOR1119
012024102802BRKM5       010BRASKEM     PNA     N1   R$  000000000173500000000018070000000001733000000000178800000000017940000000001794000000000179606867000000000003859300000000006902112700000000000000009999123100000010000000000000BRBRKMACNPA4121
012024102802BRKM6       010BRASKEM     PNB     N1   R$  000000000125000000000012500000000001250000000000125000000000012500000000001250000000000140000001000000000000000100000000000000125000000000000000009999123100000010000000000000BRBRKMACNPB2114
012024102802ELMD3       010ELETROMIDIA ON      NM   R$  000000000174000000000017930000000001740000000000177200000000017900000000001790000000000179400306000000000000045700000000000080993000000000000000009999123100000010000000000000BRELMDACNOR3101
012024102802EMAE4       010EMAE        PN           R$  000000000392500000000040000000000003925000000000396000000000040000000000003959000000000400000005000000000000001000000000000003960500000000000000009999123100000010000000000000BREMAEACNPR1126
012024102802EMBR3       010EMBRAER     ON      NM   R$  000000000500100000000050340000000004894000000000493100000000048940000000004894000000000490012795000000000003323200000000016389580400000000000000009999123100000010000000000000BREMBRACNOR4191
012024102802JHSF3       010JHSF PART   ON      NM   R$  000000000044300000000004500000000000443000000000044700000000004490000000000448000000000045003554000000000001629100000000000729133000000000000000009999123100000010000000000000BRJHSFACNOR2140
012024102802JSLG3       010JSL         ON      NM   R$  000000000075900000000007890000000000758000000000077900000000007800000000000780000000000078101522000000000000296400000000000231057400000000000000009999123100000010000000000000BRJSLGACNOR2121
012024102802KEPL3       010KEPLER WEBERON      NM   R$  000000000094200000000009700000000000940000000000096200000000009650000000000964000000000096703046000000000000867700000000000834821500000000000000009999123100000010000000000000BRKEPLACNOR1064
012024102802MRVE3       010MRV         ON      NM   R$  000000000070500000000007140000000000704000000000070800000000007080000000000707000000000070810586000000000006935600000000004914563100000000000000009999123100000010000000000000BRMRVEACNOR2127
012024102802PLPL3       010PLANOEPLANO ON      NM   R$  000000000137400000000013930000000001315000000000135000000000013480000000001347000000000135003781000000000001207200000000001629919800000000000000009999123100000010000000000000BRPLPLACNOR5104
012024102802PNVL3       010DIMED       ON      NM   R$  000000000100300000000010120000000001001000000000100600000000010070000000001004000000000100701574000000000000288400000000000290189200000000000000009999123100000010000000000000BRPNVLACNOR9208
012024102802POMO3       010MARCOPOLO   ON      N2   R$  000000000066000000000006660000000000653000000000065800000000006560000000000656000000000066000539000000000000530400000000000349036500000000000000009999123100000010000000000000BRPOMOACNOR0099
012024102802POMO4       010MARCOPOLO   PN      N2   R$  000000000086000000000008680000000000848000000000085500000000008550000000000855000000000085712130000000000006559400000000005614572800000000000000009999123100000010000000000000BRPOMOACNPR7099
012024102802PORT3       010WILSON SONS ON  ED  NM   R$  000000000159400000000016050000000001586000000000159100000000015900000000001590000000000159702271000000000001100200000000001751515000000000000000009999123100000010000000000000BRPORTACNOR8110
012024102802POSI3       010POSITIVO TECON      NM   R$  000000000064700000000006750000000000647000000000066500000000006700000000000669000000000067002592000000000001893100000000001259592300000000000000009999123100000010000000000000BRPOSIACNOR9116
012024102802PRIO3       010PETRORIO    ON      NM   R$  000000000405000000000041120000000004025000000000407200000000040950000000004094000000000409529084000000000009002700000000036661134500000000000000009999123100000010000000000000BRPRIOACNOR1107
012024102802SYNE3       010SYN PROP TECON      NM   R$  000000000084000000000008480000000000834000000000084000000000008380000000000835000000000083801242000000000000307100000000000258234800000000000000009999123100000010000000000000BRSYNEACNOR2103
012024102802TAEE11      010TAESA       UNT     N2   R$  000000000345300000000034530000000003435000000000344700000000034520000000003450000000000345203824000000000000910600000000003139602000000000000000009999123100000010000000000000BRTAEECDAM10148
012024102802TAEE3       010TAESA       ON      N2   R$  000000000113500000000011460000000001135000000000114200000000011460000000001144000000000114600346000000000000068600000000000078392900000000000000009999123100000010000000000000BRTAEEACNOR9148
012024102802TAEE4       010TAESA       PN      N2   R$  000000000114900000000011550000000001148000000000115100000000011500000000001150000000000115200370000000000000083000000000000095575100000000000000009999123100000010000000000000BRTAEEACNPR6148
012024102802VAMO3       010VAMOS       ON      NM   R$  000000000063900000000006390000000000626000000000062900000000006280000000000628000000000063009218000000000005963100000000003752899200000000000000009999123100000010000000000000BRVAMOACNOR7105
012024102802PDGR3       010PDG REALT   ON      NM   R$  000000000000100000000000020000000000001000000000000100000000000010000000000001000000000000201045000000000187385400000000000189255600000000000000009999123100000010000000000000BRPDGRACNOR8119
012024102802PDTC3       010PADTEC      ON      NM   R$  000000000018900000000002030000000000185000000000019300000000002000000000000200000000000020100133000000000000149800000000000028917200000000000000009999123100000010000000000000BRPDTCACNOR3101
012024102802PEAB3       010PAR AL BAHIAON           R$  000000000390100000000042800000000003901000000000425500000000042800000000003900000000000428000011000000000000001600000000000006808700000000000000009999123100000010000000000000BRPEABACNOR3133
012024102802PETR3       010PETROBRAS   ON      N2   R$  000000000386800000000039380000000003847000000000390300000000039320000000003930000000000393212019000000000005792000000000022607338800000000000000009999123100000010000000000000BRPETRACNOR9206
012024102802PETR4       010PETROBRAS   PN      N2   R$  000000000354900000000036130000000003534000000000358000000000036090000000003608000000000361038708000000000027507100000000098491556400000000000000009999123100000010000000000000BRPETRACNPR6214
012024102802PFRM3       010PROFARMA    ON      NM   R$  000000000062500000000006390000000000617000000000063100000000006300000000000630000000000063500478000000000000275300000000000173753000000000000000009999123100000010000000000000BRPFRMACNOR1116
012024102802PGMN3       010PAGUE MENOS ON      NM   R$  000000000028300000000002890000000000282000000000028400000000002840000000000284000000000028501079000000000000441000000000000125432700000000000000009999123100000010000000000000BRPGMNACNOR8103
012024102802PINE3       010PINE        ON      N2   R$  000000000047000000000004790000000000461000000000046700000000004610000000000461000000000047800019000000000000003600000000000001683700000000000000009999123100000010000000000000BRPINEACNOR1152
012024102802PINE4       010PINE        PN      N2   R$  000000000046900000000004710000000000461000000000046500000000004610000000000461000000000046200377000000000000300200000000000139692600000000000000009999123100000010000000000000BRPINEACNPR8152
012024102802RCSL3       010RECRUSUL    ON           R$  000000000040900000000004140000000000398000000000040400000000004010000000000400000000000040101509000000000000707500000000000285901800000000000000009999123100000010000000000000BRRCSLACNOR4134
012024102802RCSL4       010RECRUSUL    PN           R$  000000000017500000000002080000000000172000000000018600000000001720000000000172000000000017308870000000000009366800000000001746128500000000000000009999123100000010000000000000BRRCSLACNPR1134
012024102802RDNI3       010RNI         ON      NM   R$  000000000030800000000003080000000000305000000000030500000000003070000000000307000000000030900010000000000000001800000000000000550700000000000000009999123100000010000000000000BRRDNIACNOR9116
012024102802RDOR3       010REDE D OR   ON      NM   R$  000000000296800000000030260000000002935000000000299700000000029960000000002996000000000299712559000000000004523100000000013557156400000000000000009999123100000010000000000000BRRDORACNOR8114
012024102802MGLU3       010MAGAZ LUIZA ON      NM   R$  000000000092800000000009600000000000927000000000094600000000009470000000000946000000000094817719000000000021592700000000020442229100000000000000009999123100000010000000000000BRMGLUACNOR2125
012024102802NGRD3       010NEOGRID     ON      NM   R$  000000000241800000000025350000000002370000000000247000000000025100000000002468000000000251000137000000000000020300000000000050154900000000000000009999123100000010000000000000BRNGRDACNOR3106
012024102802NINJ3       010GETNINJAS   ON      NM   R$  000000000045100000000004540000000000445000000000044700000000004500000000000444000000000045000036000000000000008300000000000003711100000000000000009999123100000010000000000000BRNINJACNOR5101
012024102802NORD3       010NORDON MET  ON           R$  000000000084000000000008400000000000771000000000078100000000008330000000000771000000000083400010000000000000001400000000000001093500000000000000009999123100000010000000000000BRNORDACNOR7135
012024102802NTCO3       010GRUPO NATURAON      NM   R$  000000000142400000000014350000000001406000000000141700000000014140000000001413000000000141411635000000000005486600000000007778824700000000000000009999123100000010000000000000BRNTCOACNOR5106
012024102802RAIL3       010RUMO S.A.   ON      NM   R$  000000000194500000000019860000000001943000000000197200000000019800000000001977000000000198038527000000000018662400000000036810425000000000000000009999123100000010000000000000BRRAILACNOR9105
012024102802VALE3       010VALE        ON      NM   R$  000000000625000000000062880000000006219000000000626200000000062880000000006285000000000628827588000000000016572400000000103782933400000000000000009999123100000010000000000000BRVALEACNOR0211
012024102802MTRE3       010MITRE REALTYON  ED  NM   R$  000000000036400000000003710000000000363000000000036700000000003670000000000364000000000036700600000000000000439300000000000161441600000000000000009999123100000010000000000000BRMTREACNOR6116
012024102802MTSA4       010METISA      PN           R$  000000000359900000000035990000000003517000000000355700000000035950000000003450000000000359700011000000000000001200000000000004269200000000000000009999123100000010000000000000BRMTSAACNPR9073
012024102802MULT3       010MULTIPLAN   ON      N2   R$  000000000253600000000025480000000002505000000000252200000000025060000000002506000000000250810116000000000001992500000000005026394300000000000000009999123100000010000000000000BRMULTACNOR5139
012024102802MWET4       010WETZEL S/A  PN           R$  000000000092000000000010270000000000920000000000096600000000009990000000000999000000000101600010000000000000003400000000000003286200000000000000009999123100000010000000000000BRMWETACNPR3118
012024102802MYPK3       010IOCHP-MAXIONON      NM   R$  000000000101100000000010300000000001009000000000101900000000010250000000001024000000000103002422000000000001192400000000001215905300000000000000009999123100000010000000000000BRMYPKACNOR7156
012024102802GRND3       010GRENDENE    ON      NM   R$  000000000052900000000005310000000000523000000000052600000000005230000000000523000000000052401307000000000000452100000000000237971300000000000000009999123100000010000000000000BRGRNDACNOR3175
012024102802GUAR3       010GUARARAPES  ON      NM   R$  000000000082300000000008700000000000819000000000085100000000008580000000000857000000000085802576000000000000897500000000000764239500000000000000009999123100000010000000000000BRGUARACNOR4173
012024102802YDUQ3       010YDUQS PART  ON      NM   R$  000000000108000000000011020000000001068000000000108700000000010830000000001081000000000108405869000000000003600300000000003915231500000000000000009999123100000010000000000000BRYDUQACNOR3105
012024102802ZAMP3       010ZAMP S.A.   ON           R$  000000000025500000000002600000000000249000000000025300000000002530000000000251000000000025301557000000000000567700000000000143798000000000000000009999123100000010000000000000BRZAMPACNOR5101
012024102802PRNR3       010PRINER      ON      NM   R$  000000000129500000000013470000000001290000000000131200000000013450000000001336000000000134501723000000000000804000000000001055323200000000000000009999123100000010000000000000BRPRNRACNOR4109
012024102802SAPR11      010SANEPAR     UNT     N2   R$  000000000270000000000027360000000002700000000000271800000000027170000000002711000000000271803444000000000000559800000000001521678500000000000000009999123100000010000000000000BRSAPRCDAM13118
012024102802SAPR3       010SANEPAR     ON      N2   R$  000000000051900000000005250000000000514000000000052000000000005230000000000522000000000052300419000000000000111600000000000058119100000000000000009999123100000010000000000000BRSAPRACNOR9159
012024102802HAGA3       010HAGA S/A    ON           R$  000000000025200000000002700000000000252000000000026000000000002640000000000256000000000026400064000000000000037900000000000009858400000000000000009999123100000010000000000000BRHAGAACNOR7103
012024102802HAGA4       010HAGA S/A    PN           R$  000000000012600000000001320000000000126000000000012800000000001280000000000128000000000012900069000000000000033500000000000004306200000000000000009999123100000010000000000000BRHAGAACNPR4103
012024102802BGIP4       010BANESE      PN           R$  000000000238500000000023850000000002385000000000238500000000023850000000002320000000000238500001000000000000000100000000000000238500000000000000009999123100000010000000000000BRBGIPACNPR8210
012024102802BHIA3       010CASAS BAHIA ON      NM   R$  000000000042600000000004340000000000424000000000042800000000004280000000000428000000000042902047000000000002063000000000000884963800000000000000009999123100000010000000000000BRBHIAACNOR1102
012024102802BPAN4       010BANCO PAN   PN      N1   R$  000000000090400000000009130000000000885000000000089300000000008870000000000887000000000089003723000000000001651900000000001476678400000000000000009999123100000010000000000000BRBPANACNPR1115
012024102802BRAP3       010BRADESPAR   ON      N1   R$  000000000180000000000018340000000001800000000000181800000000018230000000001815000000000182300411000000000000063000000000000114541200000000000000009999123100000010000000000000BRBRAPACNOR5148
012024102802BRAP4       010BRADESPAR   PN      N1   R$  000000000195700000000019750000000001950000000000196800000000019720000000001971000000000197206016000000000002528800000000004979068000000000000000009999123100000010000000000000BRBRAPACNPR2148
012024102802CPFE3       010CPFL ENERGIAON      NM   R$  000000000329800000000033090000000003284000000000329800000000032930000000003292000000000329303885000000000000844100000000002784350800000000000000009999123100000010000000000000BRCPFEACNOR0137
012024102802CPLE3       010COPEL       ON      N2   R$  000000000087300000000008790000000000868000000000087200000000008720000000000872000000000087407149000000000004407800000000003844655200000000000000009999123100000010000000000000BRCPLEACNOR8150
012024102802CPLE6       010COPEL       PNB     N2   R$  000000000098200000000009860000000000975000000000097900000000009770000000000976000000000097812987000000000013920800000000013629373900000000000000009999123100000010000000000000BRCPLEACNPB9147
012024102802CRFB3       010CARREFOUR BRON      NM   R$  000000000070900000000007300000000000705000000000071800000000007100000000000709000000000071114436000000000012703700000000009123499500000000000000009999123100000010000000000000BRCRFBACNOR2116
012024102802DASA3       010DASA        ON      NM   R$  000000000026700000000002720000000000260000000000026500000000002620000000000262000000000026302940000000000001213900000000000321748900000000000000009999123100000010000000000000BRDASAACNOR1123
012024102802DESK3       010DESKTOP     ON      NM   R$  000000000134600000000013610000000001335000000000134300000000013390000000001338000000000134800325000000000000077200000000000103754700000000000000009999123100000010000000000000BRDESKACNOR2104
012024102802SAPR4       010SANEPAR     PN      N2   R$  000000000055400000000005560000000000550000000000055200000000005550000000000553000000000055501611000000000000812300000000000448998700000000000000009999123100000010000000000000BRSAPRACNPR6159
012024102802SBFG3       010GRUPO SBF   ON      NM   R$  000000000141400000000014270000000001402000000000141400000000014150000000001415000000000141604155000000000000969000000000001370848500000000000000009999123100000010000000000000BRSBFGACNOR1103
012024102802SBSP3       010SABESP      ON      NM   R$  000000000917200000000092680000000009143000000000919900000000091730000000009171000000000918509732000000000002364600000000021754001900000000000000009999123100000010000000000000BRSBSPACNOR5161
012024102802TUPY3       010TUPY        ON      NM   R$  000000000233600000000023580000000002330000000000233900000000023350000000002332000000000234002363000000000000395400000000000925227200000000000000009999123100000010000000000000BRTUPYACNOR1184
012024102802AERI3       010AERIS       ON      NM   R$  000000000062100000000006600000000000621000000000064500000000006400000000000640000000000064500987000000000000342900000000000221174900000000000000009999123100000010000000000000BRAERIACNOR4102
012024102802AESB3       010AES BRASIL  ON      NM   R$  000000000114700000000011480000000000880000000000095600000000008800000000000879000000000088005977000000000005840400000000005586101700000000000000009999123100000010000000000000BRAESBACNOR7107
012024102802AFLT3       010AFLUENTE T  ON           R$  000000000069600000000006960000000000690000000000069200000000006900000000000690000000000070000003000000000000000400000000000000277100000000000000009999123100000010000000000000BRAFLTACNOR1122
012024102802AGRO3       010BRASILAGRO  ON  ED  NM   R$  000000000235100000000023730000000002351000000000236200000000023620000000002362000000000236301291000000000000201500000000000476095800000000000000009999123100000010000000000000BRAGROACNOR7115
012024102802UCAS3       010UNICASA     ON      NM   R$  000000000021300000000002170000000000213000000000021400000000002130000000000213000000000021400088000000000000025500000000000005460200000000000000009999123100000010000000000000BRUCASACNOR1113
012024102802UGPA3       010ULTRAPAR    ON      NM   R$  000000000204900000000021160000000002039000000000208500000000020930000000002091000000000209414140000000000006404300000000013358317900000000000000009999123100000010000000000000BRUGPAACNOR8156
012024102802UNIP3       010UNIPAR      ON           R$  000000000455000000000045680000000004490000000000451600000000045320000000004491000000000457000034000000000000004500000000000020323300000000000000009999123100000010000000000000BRUNIPACNOR7206
012024102802UNIP5       010UNIPAR      PNA          R$  000000000479500000000047980000000004795000000000479600000000047980000000004621000000000479800002000000000000000200000000000000959300000000000000009999123100000010000000000000BRUNIPACNPA0208
012024102802UNIP6       010UNIPAR      PNB          R$  000000000460300000000046250000000004550000000000457500000000045500000000004550000000000456300797000000000000123100000000000563197500000000000000009999123100000010000000000000BRUNIPACNPB8206
012024102802DEXP3       010DEXXOS PAR  ON      N1   R$  000000000088000000000008980000000000874000000000088200000000008760000000000876000000000088000370000000000000053400000000000047147300000000000000009999123100000010000000000000BRDEXPACNOR1105
012024102802DEXP4       010DEXXOS PAR  PN      N1   R$  000000000087100000000008710000000000871000000000087100000000008710000000000871000000000087900001000000000000000100000000000000087100000000000000009999123100000010000000000000BRDEXPACNPR8105
012024102802DIRR3       010DIRECIONAL  ON      NM   R$  000000000308900000000031050000000003033000000000306400000000030540000000003054000000000306706562000000000001244800000000003815301900000000000000009999123100000010000000000000BRDIRRACNOR0119
012024102802DMVF3       010D1000VFARMA ON      NM   R$  000000000065700000000006940000000000657000000000067900000000006850000000000685000000000068700242000000000000053600000000000036439300000000000000009999123100000010000000000000BRDMVFACNOR9100
012024102802DOHL3       010DOHLER      ON           R$  000000000080000000000008000000000000800000000000080000000000008000000000000510000000000090000002000000000000000200000000000000160000000000000000009999123100000010000000000000BRDOHLACNOR2063
012024102802DOHL4       010DOHLER      PN           R$  000000000040300000000004140000000000398000000000040100000000004000000000000400000000000040500022000000000000004300000000000001727100000000000000009999123100000010000000000000BRDOHLACNPR9066
012024102802DOTZ3       010DOTZ SA     ON      NM   R$  000000000054500000000005570000000000526000000000053800000000005310000000000530000000000053700040000000000000012700000000000006841800000000000000009999123100000010000000000000BRDOTZACNOR7101
012024102807SEQL3       010SEQUOIA LOG ON      NM   R$  000000000040700000000004080000000000374000000000038500000000003750000000000375000000000037802198000000000001503200000000000580060200000000000000009999123100000010000000000000BRSEQLACNOR2103
012024102807NUTR3       010NUTRIPLANT  ON      MA   R$  000000000043700000000004370000000000414000000000042400000000004200000000000415000000000043200027000000000000004800000000000002037400000000000000009999123100000010000000000000BRNUTRACNOR0104
012024102807TXRX4       010TEX RENAUX  PN           R$  000000000021800000000002210000000000216000000000021700000000002210000000000217000000000022200004000000000000000700000000000000152300000000000000009999123100000010000000000000BRTXRXACNPR0142
012024102808CTSA3       010SANTANENSE  ON           R$  000000000020100000000002010000000000201000000000020100000000002010000000000201000000000024100004000000000000000500000000000000100500000000000000009999123100000010000000000000BRCTSAACNOR3062
012024102808CTSA4       010SANTANENSE  PN           R$  000000000010400000000001040000000000104000000000010400000000001040000000000104000000000011200012000000000000007600000000000000790400000000000000009999123100000010000000000000BRCTSAACNPR0062
012024102808ATMP3       010ATMASA      ON           R$  000000000013600000000001390000000000136000000000013700000000001380000000000136000000000013800014000000000000002900000000000000399600000000000000009999123100000010000000000000BRATMPACNOR8100
012024102808OIBR3       010OI          ON      N1   R$  000000000044300000000004750000000000440000000000045700000000004710000000000470000000000047101110000000000000615900000000000281772300000000000000009999123100000010000000000000BROIBRACNOR1112
012024102808OIBR4       010OI          PN      N1   R$  000000000107300000000011850000000001073000000000113700000000011440000000001079000000000114400048000000000000008300000000000009444100000000000000009999123100000010000000000000BROIBRACNPR8111
012024102808OSXB3       010OSX BRASIL  ON      NM   R$  000000000045000000000004600000000000426000000000044500000000004400000000000434000000000045200010000000000000001500000000000000668200000000000000009999123100000010000000000000BROSXBACNOR8109
012024102808RNEW4       010RENOVA      PN      N2   R$  000000000011600000000001180000000000109000000000011200000000001100000000000110000000000011100287000000000000292700000000000032839000000000000000009999123100000010000000000000BRRNEWACNPR5110
012024102808RPMG3       010PET MANGUINHON           R$  000000000029900000000003000000000000295000000000029900000000003000000000000297000000000029900049000000000000043600000000000013069600000000000000009999123100000010000000000000BRRPMGACNOR9194
012024102808RSID3       010ROSSI RESID ON      NM   R$  000000000029400000000002970000000000288000000000029200000000002970000000000291000000000029700059000000000000010700000000000003128500000000000000009999123100000010000000000000BRRSIDACNOR8120
012024102808HOOT4       010HOTEIS OTHONPN           R$  000000000022700000000002270000000000227000000000022700000000002270000000000227000000000023100002000000000000000200000000000000045400000000000000009999123100000010000000000000BRHOOTACNPR9015
012024102808RNEW11      010RENOVA      UNT     N2   R$  000000000034800000000003500000000000332000000000033500000000003320000000000332000000000033400052000000000000019100000000000006408200000000000000009999123100000010000000000000BRRNEWCDAM15110
012024102808RNEW3       010RENOVA      ON      N2   R$  000000000011700000000001170000000000109000000000011100000000001090000000000109000000000011000211000000000000252900000000000028123600000000000000009999123100000010000000000000BRRNEWACNOR8110
012024102808LIGT3       010LIGHT S/A   ON      NM   R$  000000000060200000000006250000000000602000000000061800000000006250000000000620000000000062502666000000000000545800000000000337314300000000000000009999123100000010000000000000BRLIGTACNOR2124
012024102808AMER3       010AMERICANAS  ON      NM   R$  000000000038600000000003950000000000386000000000038900000000003880000000000387000000000038801987000000000001792300000000000698434700000000000000009999123100000010000000000000BRAMERACNOR6103
012024102808JFEN3       010JOAO FORTES ON           R$  000000000002700000000000280000000000026000000000002700000000000270000000000027000000000002800190000000000001165900000000000031573600000000000000009999123100000010000000000000BRJFENACNOR0059
012024102808PMAM3       010PARANAPANEMAON      NM   R$  000000000011000000000001140000000000103000000000010600000000001050000000000103000000000010500907000000000000242200000000000025701200000000000000009999123100000010000000000000BRPMAMACNOR3040
012024102808NEXP3       010NEXPE       ON           R$  000000000044800000000004640000000000437000000000044700000000004370000000000437000000000045600011000000000000003600000000000001610400000000000000009999123100000010000000000000BRNEXPACNOR0101
012024102808AGXY3       010AGROGALAXY  ON      NM   R$  000000000004300000000000440000000000041000000000004200000000000410000000000041000000000004200212000000000000263000000000000011092400000000000000009999123100000010000000000000BRAGXYACNOR4103
012024102810MBLY1       010MOBLY       DIR ORD NM   R$  000000000000200000000000020000000000001000000000000100000000000010000000000000000000000000100042000000000000160400000000000000161500000000000000009999123100000010000000000000BRMBLYD01OR0100
012024102810MBLY11      010MOBLY       DIR     NM   R$  000000000001800000000000280000000000012000000000001800000000000190000000000018000000000002500100000000000000040100000000000000726900000000000000009999123100000010000000000000BRMBLYD01M18100
012024102810HBSA1       010HIDROVIAS   DIR ORD NM   R$  000000000000200000000000020000000000001000000000000100000000000020000000000001000000000000200044000000000000092000000000000000164800000000000000009999123100000010000000000000BRHBSAD01OR5100
012024102810PINE1       010PINE        DIR ORD N2   R$  000000000003600000000000610000000000035000000000004700000000000450000000000045000000000005400097000000000000012900000000000000612500000000000000009999123100000010000000000000BRPINED04OR0150
012024102810PINE2       010PINE        DIR PRE N2   R$  000000000006000000000000600000000000055000000000005800000000000550000000000048000000000006700014000000000000002500000000000000146300000000000000009999123100000010000000000000BRPINED06PR2150
012024102812TRBL11      010FII SDI LOG CI           R$  000000000715000000000071500000000006546000000000676000000000066500000000006645000000000676504279000000000000083057000000000561479741000000000000009999123100000010000000000000BRTRBLCTF007116
012024102812TRNT11      010FII TORRE NOCI           R$  000000001059900000000107500000000010202000000001028700000000107500000000010300000000001075000016000000000000000655000000000006738237000000000000009999123100000010000000000000BRTRNTCTF013341
012024102812TRXB11      010FII TRX R IICI           R$  000000001435100000000143510000000013920000000001400900000000139210000000013920000000001400000007000000000000000014000000000000196137000000000000009999123100000010000000000000BRTRXBCTF002155
012024102812TRXF11      010FII TRX REALCI           R$  000000001010000000000101000000000009974000000001002000000000100350000000010035000000001003613755000000000000083155000000000833228510000000000000009999123100000010000000000000BRTRXFCTF003168
012024102812CNES11      010FII CENESP  CI  ER       R$  000000000012900000000001300000000000125000000000012700000000001250000000000125000000000012601359000000000000059109000000000007522700000000000000009999123100000010000000000000BRCNESCTF001264
012024102812CXAG11      010FII CAIXA AGCI           R$  000000000738000000000074330000000007323000000000735800000000073660000000007360000000000736800092000000000000000790000000000005813096000000000000009999123100000010000000000000BRCXAGCTF003132
012024102812CXCE11      010FII CX CEDAECI           R$  000000000400900000000040090000000004000000000000400500000000040090000000004000000000000400900032000000000000000665000000000002663773000000000000009999123100000010000000000000BRCXCECTF004273
012024102812CXCI11      010FII CAIXA CICI           R$  000000000733400000000073340000000007195000000000727600000000073220000000007285000000000732200079000000000000001455000000000010587940000000000000009999123100000010000000000000BRCXCICTF005131
012024102812CXCO11      010FII CEF CORPCI           R$  000000000626000000000062600000000006200000000000622900000000062130000000006212000000000621300222000000000000004510000000000028094394000000000000009999123100000010000000000000BRCXCOCTF003142
012024102812SCPF11      010FII SCP     CI           R$  000000000019700000000001990000000000191000000000019400000000001950000000000194000000000019500068000000000000000567000000000000110499000000000000009999123100000010000000000000BRSCPFCTF003302
012024102812CXRI11      010FII CX RBRAVCI           R$  000000000669700000000070990000000006533000000000662400000000068640000000006703000000000686400102000000000000007316000000000048464267000000000000009999123100000010000000000000BRCXRICTF003232
012024102812CYCR11      010FII CYRELA  CI           R$  000000000083300000000008600000000000830000000000084400000000008490000000000849000000000085701433000000000000083483000000000070501167000000000000009999123100000010000000000000BRCYCRCTF004143
012024102812FMOF11      010FII MEMORIALCI           R$  000000000400200000000044110000000004002000000000433800000000043990000000004005000000000439900008000000000000000030000000000000130144000000000000009999123100000010000000000000BRFMOFCTF010258
012024102812FPAB11      010FII A BRANCACI           R$  000000002273600000000227360000000022400000000002255200000000224010000000022400000000002390000004000000000000000011000000000000248073000000000000009999123100000010000000000000BRFPABCTF011318
012024102812FVPQ11      010FII V PARQUECI           R$  000000000582600000000058960000000005790000000000584600000000058600000000005860000000000589500608000000000000000926000000000005413756000000000000009999123100000010000000000000BRFVPQCTF015263
012024102812GAME11      010FII GUARD MUCI           R$  000000000086200000000008730000000000857000000000086600000000008670000000000862000000000086700367000000000000006898000000000005977874000000000000009999123100000010000000000000BRGAMECTF002136
012024102812GARE11      010FII GUARDIANCI           R$  000000000089200000000008960000000000889000000000089200000000008960000000000895000000000089632969000000000000844161000000000753807603000000000000009999123100000010000000000000BRGARECTF001108
012024102812GCRI11      010FII GLPG CRICI           R$  000000000641300000000064580000000006413000000000643400000000064480000000006417000000000644800070000000000000000765000000000004922164000000000000009999123100000010000000000000BRGCRICTF008148
012024102812BBFI11      010FII BB PROGRCI           R$  000000003760000000000382080000000037002000000003739600000000370020000000037018000000003748200087000000000000000249000000000009311740000000000000009999123100000010000000000000BRBBFICTF006329
012024102812BBFO11      010FII BB FOF  CI           R$  000000000669100000000066910000000006615000000000664400000000066560000000006648000000000665600513000000000000002383000000000015833067000000000000009999123100000010000000000000BRBBFOCTF004145
012024102812BBIG11      010FII BBIG    CI           R$  000000000095700000000009660000000000955000000000095700000000009610000000000960000000000096102691000000000000140726000000000134725879000000000000009999123100000010000000000000BRBBIGCTF004105
012024102812BBRC11      010FII BB CORP CI           R$  000000001087500000000108750000000010590000000001067700000000106900000000010610000000001069000158000000000000001305000000000013934492000000000000009999123100000010000000000000BRBBRCCTF004257
012024102812CTXT11      010FII C TEXTILCI           R$  000000000071700000000007170000000000707000000000070700000000007150000000000706000000000071500009000000000000000251000000000000177569000000000000009999123100000010000000000000BRCTXTCTF014207
012024102812CVBI11      010FII VBI CRI CI           R$  000000000840000000000085180000000008356000000000844400000000084290000000008427000000000846004950000000000000049060000000000414267410000000000000009999123100000010000000000000BRCVBICTF001170
012024102812EURO11      010FII EUROPAR CI           R$  000000002224600000000224390000000021999000000002210500000000223990000000022000000000002239900066000000000000000460000000000010168627000000000000009999123100000010000000000000BREUROCTF011363
012024102812SEQR11      010FII SEQUOIA CI           R$  000000000504100000000050420000000005000000000000503400000000050270000000005026000000000502700065000000000000002164000000000010895264000000000000009999123100000010000000000000BRSEQRCTF002147
012024102812SHOP11      010FII MULTSHOPCI           R$  000000000544900000000054490000000005449000000000544900000000054490000000005449000000000679800002000000000000000004000000000000021796000000000000009999123100000010000000000000BRSHOPCTF004103
012024102812SHPH11      010FII HIGIENOPCI           R$  000000008720100000000872010000000086502000000008700100000000870000000000086501000000008730000037000000000000000592000000000051504672000000000000009999123100000010000000000000BRSHPHCTF008354
012024102812WTSP11      010FII WTC SP  CI           R$  000000000551500000000055970000000005300000000000548800000000055970000000005300000000000551800028000000000000001190000000000006531726000000000000009999123100000010000000000000BRWTSPCTF002168
012024102812EVBI11      010FII VBI CON CI           R$  000000000094000000000009400000000000936000000000093900000000009400000000000939000000000094000025000000000000000277000000000000260295000000000000009999123100000010000000000000BREVBICTF007154
012024102812EXES11      010FII EXES    CI  ER       R$  000000000096000000000009600000000000958000000000095900000000009580000000000941000000000096000014000000000000000069000000000000066215000000000000009999123100000010000000000000BREXESCTF006130
012024102812FAED11      010FII ANH EDUCCI           R$  000000001401000000000141670000000014010000000001410800000000141000000000014100000000001416000114000000000000000320000000000004514613000000000000009999123100000010000000000000BRFAEDCTF003282
012024102812FAMB11      010FII ALMIRANTCI           R$  000000019489400000001948940000000190799000000019110300000001907990000000188501000000019080000009000000000000000023000000000004395373000000000000009999123100000010000000000000BRFAMBCTF018316
012024102812FATN11      010FII ATHENA ICI           R$  000000000888000000000089240000000008850000000000887600000000088880000000008876000000000888800459000000000000009289000000000082449637000000000000009999123100000010000000000000BRFATNCTF000156
012024102812FCFL11      010FII CAMPUSFLCI  ER       R$  000000001123900000000113500000000011195000000001121400000000113290000000011208000000001132900052000000000000003255000000000036504698000000000000009999123100000010000000000000BRFCFLCTF009274
012024102812FIGS11      010FII GEN SHOPCI           R$  000000000500500000000050960000000005004000000000506300000000050950000000005057000000000509500101000000000000000929000000000004703694000000000000009999123100000010000000000000BRFIGSCTF009232
012024102812FIIB11      010FII INDL BR CI           R$  000000004910000000000505000000000049100000000005008200000000504500000000049502000000005029900365000000000000001149000000000057544639000000000000009999123100000010000000000000BRFIIBCTF001255
012024102812FIIP11      010FII RB CAP ICI  ATZ      R$  000000001639400000000166000000000015950000000001624500000000162990000000016175000000001630000141000000000000001211000000000019673557000000000000009999123100000010000000000000BRFIIPCTF001279
012024102812FIVN11      010FII VIDANOVACI           R$  000000000027900000000002800000000000253000000000027600000000002560000000000256000000000027800050000000000000000417000000000000115269000000000000009999123100000010000000000000BRFIVNCTF009100
012024102812AROA11      010FII AROA    CI           R$  000000000011300000000001160000000000112000000000011300000000001130000000000112000000000011300226000000000000014337000000000001629539000000000000009999123100000010000000000000BRAROACTF003122
012024102812ARRI11      010FII ATRIO   CI           R$  000000000084600000000008460000000000831000000000084000000000008420000000000834000000000084201657000000000000019345000000000016256608000000000000009999123100000010000000000000BRARRICTF009165
012024102812ARXD11      010FII ARXD R  CI           R$  000000000880700000000088070000000008805000000000880500000000088050000000008829000000000898800010000000000000001452000000000012784862000000000000009999123100000010000000000000BRARXDCTF008119
012024102812ATSA11      010FII HATRIUM CI           R$  000000000530000000000053000000000005300000000000530000000000053000000000005300000000000540300001000000000000000006000000000000031800000000000000009999123100000010000000000000BRATSACTF000145
012024102812BROF11      010FII BROF    CI  ER       R$  000000000462500000000046890000000004605000000000464100000000046880000000004622000000000468900610000000000000006517000000000030251023000000000000009999123100000010000000000000BRBROFCTF000118
012024102812BTAL11      010FII BTG AGROCI  ER       R$  000000000700100000000071100000000006990000000000703400000000070210000000007013000000000702201396000000000000008296000000000058361524000000000000009999123100000010000000000000BRBTALCTF003144
