00COTAHIST.2024BOVESPA 20241031                                                                                                                                                                                                                      
012024103102SYNE3       010SYN PROP TECON      NM   R$  000000000084400000000008570000000000840000000000084900000000008450000000000845000000000085101399000000000000421200000000000357915700000000000000009999123100000010000000000000BRSYNEACNOR2103
012024103102BEEF3       010MINERVA     ON  ATZ NM   R$  000000000059400000000005960000000000580000000000058600000000005800000000000580000000000058108046000000000008296400000000004863011900000000000000009999123100000010000000000000BRBEEFACNOR6117
012024103102BEES3       010BANESTES    ON           R$  000000000086400000000008750000000000864000000000087100000000008730000000000871000000000087400061000000000000007600000000000006622200000000000000009999123100000010000000000000BRBEESACNOR9396
012024103102BEES4       010BANESTES    PN           R$  000000000089200000000008920000000000883000000000088700000000008910000000000888000000000089100021000000000000004000000000000003550800000000000000009999123100000010000000000000BRBEESACNPR6321
012024103102BPAC11      010BTGP BANCO  UNT     N2   R$  000000000325700000000032860000000003228000000000325300000000032520000000003252000000000325810796000000000006802600000000022133285700000000000000009999123100000010000000000000BRBPACUNT006119
012024103102BPAC3       010BTGP BANCO  ON      N2   R$  000000000153800000000015380000000001500000000000151300000000015100000000001500000000000151000059000000000000007700000000000011652100000000000000009999123100000010000000000000BRBPACACNOR7134
012024103102BPAC5       010BTGP BANCO  PNA     N2   R$  000000000086400000000008680000000000857000000000086100000000008670000000000850000000000086600027000000000000004900000000000004222800000000000000009999123100000010000000000000BRBPACACNPA0134
012024103102CMIN3       010CSNMINERACAOON      N2   R$  000000000060500000000006220000000000603000000000061600000000006210000000000620000000000062106520000000000007697400000000004744453100000000000000009999123100000010000000000000BRCMINACNOR2112
012024103102COCE5       010COELCE      PNA          R$  000000000268200000000026990000000002617000000000265700000000026990000000002617000000000269900048000000000000006100000000000016213100000000000000009999123100000010000000000000BRCOCEACNPA3147
012024103102COGN3       010COGNA ON    ON      NM   R$  000000000014600000000001480000000000141000000000014300000000001410000000000141000000000014206583000000000025680100000000003694619100000000000000009999123100000010000000000000BRCOGNACNOR2105
012024103102VVEO3       010VIVEO       ON      NM   R$  000000000020700000000002110000000000203000000000020600000000002070000000000207000000000020802661000000000002694000000000000557280000000000000000009999123100000010000000000000BRVVEOACNOR0104
012024103102DASA3       010DASA        ON      NM   R$  000000000026300000000002750000000000259000000000026600000000002650000000000265000000000027204012000000000001103300000000000293892700000000000000009999123100000010000000000000BRDASAACNOR1123
012024103102DESK3       010DESKTOP     ON      NM   R$  000000000133500000000013350000000001307000000000132200000000013320000000001323000000000133200323000000000000059400000000000078578600000000000000009999123100000010000000000000BRDESKACNOR2104
012024103102DEXP3       010DEXXOS PAR  ON      N1   R$  000000000090000000000009030000000000878000000000089100000000008780000000000878000000000088100303000000000000043000000000000038325400000000000000009999123100000010000000000000BRDEXPACNOR1105
012024103102WEGE3       010WEG         ON      NM   R$  000000000539000000000054650000000005325000000000542000000000054110000000005411000000000542020173000000000009694500000000052549617700000000000000009999123100000010000000000000BRWEGEACNOR0225
012024103102RANI3       010IRANI       ON      NM   R$  000000000078000000000007990000000000757000000000077200000000007570000000000756000000000076003823000000000001791600000000001383646700000000000000009999123100000010000000000000BRRANIACNOR5073
012024103102RAPT3       010RANDON PART ON      N1   R$  000000000093600000000009400000000000924000000000093400000000009400000000000940000000000094100061000000000000021100000000000019717000000000000000009999123100000010000000000000BRRAPTACNOR7163
012024103102RAPT4       010RANDON PART PN      N1   R$  000000000109500000000011000000000001069000000000107600000000010700000000001069000000000107203615000000000001504500000000001619453400000000000000009999123100000010000000000000BRRAPTACNPR4163
012024103102DEXP4       010DEXXOS PAR  PN      N1   R$  000000000088300000000008830000000000883000000000088300000000008830000000000883000000000090300003000000000000000600000000000000529800000000000000009999123100000010000000000000BRDEXPACNPR8105
012024103102DIRR3       010DIRECIONAL  ON      NM   R$  000000000310300000000031630000000003103000000000313100000000031280000000003125000000000313008486000000000001714700000000005369999200000000000000009999123100000010000000000000BRDIRRACNOR0119
012024103102DMVF3       010D1000VFARMA ON      NM   R$  000000000069500000000007360000000000694000000000072000000000007140000000000714000000000073500550000000000000174200000000000125569900000000000000009999123100000010000000000000BRDMVFACNOR9100
012024103102DOHL4       010DOHLER      PN           R$  000000000040000000000004070000000000400000000000040200000000004070000000000399000000000040700004000000000000000500000000000000201200000000000000009999123100000010000000000000BRDOHLACNPR9066
012024103102DOTZ3       010DOTZ SA     ON      NM   R$  000000000052500000000005400000000000525000000000053200000000005250000000000516000000000052700043000000000000009200000000000004896900000000000000009999123100000010000000000000BRDOTZACNOR7101
012024103102DXCO3       010DEXCO       ON      NM   R$  000000000083600000000008450000000000815000000000082500000000008280000000000824000000000082908024000000000003884900000000003206256100000000000000009999123100000010000000000000BRDXCOACNOR8105
012024103102EALT4       010ACO ALTONA  PN           R$  000000000129900000000013300000000001296000000000130700000000013260000000001306000000000132600033000000000000012400000000000016214800000000000000009999123100000010000000000000BREALTACNPR1138
012024103102ECOR3       010ECORODOVIAS ON      NM   R$  000000000069800000000007190000000000695000000000071200000000007130000000000711000000000071306711000000000004688800000000003339238100000000000000009999123100000010000000000000BRECORACNOR8120
012024103102GRND3       010GRENDENE    ON      NM   R$  000000000052200000000005350000000000522000000000053000000000005320000000000531000000000053204140000000000001904300000000001009788000000000000000009999123100000010000000000000BRGRNDACNOR3175
012024103102GUAR3       010GUARARAPES  ON      NM   R$  000000000085100000000008620000000000842000000000084900000000008490000000000845000000000084902495000000000000637500000000000541567000000000000000009999123100000010000000000000BRGUARACNOR4173
012024103102CAMB3       010CAMBUCI     ON           R$  000000000123600000000012400000000001218000000000122700000000012370000000001216000000000123700108000000000000024400000000000029941400000000000000009999123100000010000000000000BRCAMBACNOR4131
012024103102CAML3       010CAMIL       ON      NM   R$  000000000081100000000008140000000000789000000000079500000000007900000000000789000000000079001725000000000000512400000000000407828500000000000000009999123100000010000000000000BRCAMLACNOR3129
012024103102CASH3       010MELIUZ      ON      NM   R$  000000000034400000000003460000000000338000000000034200000000003420000000000342000000000034301130000000000000561000000000000191922800000000000000009999123100000010000000000000BRCASHACNOR8107
012024103102CBAV3       010CBA         ON      NM   R$  000000000058000000000005880000000000574000000000058000000000005820000000000581000000000058205636000000000003059300000000001774456600000000000000009999123100000010000000000000BRCBAVACNOR5104
012024103102CCRO3       010CCR SA      ON      NM   R$  000000000121100000000012500000000001209000000000122800000000012250000000001225000000000122631663000000000021242900000000026098555600000000000000009999123100000010000000000000BRCCROACNOR2145
012024103102CSUD3       010CSU DIGITAL ON      NM   R$  000000000178300000000018000000000001729000000000176200000000017700000000001739000000000177000191000000000000036500000000000064327400000000000000009999123100000010000000000000BRCSUDACNOR5111
012024103102CURY3       010CURY S/A    ON      NM   R$  000000000251100000000025350000000002435000000000246100000000024440000000002444000000000245213561000000000003692500000000009088858900000000000000009999123100000010000000000000BRCURYACNOR3110
012024103102CVCB3       010CVC BRASIL  ON      NM   R$  000000000021500000000002170000000000204000000000020900000000002050000000000204000000000020506786000000000016563600000000003469120900000000000000009999123100000010000000000000BRCVCBACNOR1116
012024103102TPIS3       010TRIUNFO PARTON      NM   R$  000000000066800000000006860000000000666000000000067600000000006800000000000680000000000068200221000000000000043800000000000029614400000000000000009999123100000010000000000000BRTPISACNOR8118
012024103102TRAD3       010TC          ON      NM   R$  000000000057300000000005760000000000553000000000055800000000005530000000000553000000000055800169000000000000041500000000000023196800000000000000009999123100000010000000000000BRTRADACNOR3102
012024103102TRIS3       010TRISUL      ON      NM   R$  000000000053500000000005470000000000529000000000053800000000005290000000000529000000000053001210000000000000419600000000000225758700000000000000009999123100000010000000000000BRTRISACNOR4118
012024103102TRPL3       010TRAN PAULISTON      N1   R$  000000000304100000000030900000000003041000000000308300000000030900000000003035000000000309000005000000000000000900000000000002775100000000000000009999123100000010000000000000BRTRPLACNOR4185
012024103102TRPL4       010TRAN PAULISTPN      N1   R$  000000000244500000000024630000000002425000000000243900000000024290000000002429000000000243309967000000000002677300000000006530526700000000000000009999123100000010000000000000BRTRPLACNPR1185
012024103102TTEN3       0103TENTOS     ON      NM   R$  000000000113800000000011570000000001130000000000114200000000011370000000001135000000000113805815000000000000974200000000001113122400000000000000009999123100000010000000000000BRTTENACNOR0103
012024103102FESA3       010FERBASA     ON      N1   R$  000000000122400000000012240000000001224000000000122400000000012240000000001155000000000122400003000000000000000300000000000000367200000000000000009999123100000010000000000000BRFESAACNOR8189
012024103102FESA4       010FERBASA     PN      N1   R$  000000000075000000000007650000000000750000000000075800000000007560000000000753000000000075601197000000000000491300000000000372435400000000000000009999123100000010000000000000BRFESAACNPR5085
012024103102FHER3       010FER HERINGERON      NM   R$  000000000036200000000003660000000000362000000000036200000000003620000000000361000000000036200011000000000000003100000000000001123300000000000000009999123100000010000000000000BRFHERACNOR5103
012024103102FIEI3       010FICA        ON           R$  000000000114900000000011490000000001149000000000114900000000011490000000001025000000000115000001000000000000000100000000000000114900000000000000009999123100000010000000000000BRFIEIACNOR2100
012024103102FIQE3       010UNIFIQUE    ON      NM   R$  000000000038900000000003920000000000381000000000038500000000003870000000000382000000000038700431000000000000227200000000000087617600000000000000009999123100000010000000000000BRFIQEACNOR5107
012024103102FLRY3       010FLEURY      ON      NM   R$  000000000148000000000015040000000001478000000000148600000000014820000000001479000000000148207729000000000003357000000000004989133700000000000000009999123100000010000000000000BRFLRYACNOR5139
012024103102FRAS3       010FRAS-LE     ON      N1   R$  000000000221500000000022240000000002175000000000219100000000021820000000002182000000000218501519000000000000383700000000000840985800000000000000009999123100000010000000000000BRFRASACNOR0160
012024103102FRIO3       010METALFRIO   ON      NM   R$  000000001469500000000168000000000013000000000001375900000000130000000000012000000000001300000109000000000000033500000000000460954100000000000000009999123100000010000000000000BRFRIOACNOR2111
012024103102GEPA4       010GER PARANAP PN           R$  000000000295000000000030240000000002950000000000296800000000030240000000002925000000000302500004000000000000000400000000000001187400000000000000009999123100000010000000000000BRGEPAACNPR9161
012024103102GFSA3       010GAFISA      ON      NM   R$  000000000016000000000001610000000000153000000000015600000000001540000000000153000000000015401528000000000003290800000000000513711500000000000000009999123100000010000000000000BRGFSAACNOR3125
012024103102GGBR3       010GERDAU      ON      N1   R$  000000000174800000000018110000000001748000000000178300000000017860000000001784000000000178600830000000000000157300000000000280585500000000000000009999123100000010000000000000BRGGBRACNOR1193
012024103102GGBR4       010GERDAU      PN      N1   R$  000000000183000000000018530000000001819000000000182800000000018300000000001830000000000183111099000000000006771700000000012379626300000000000000009999123100000010000000000000BRGGBRACNPR8193
012024103102ITUB3       010ITAUUNIBANCOON      N1   R$  000000000304000000000030570000000003004000000000302600000000030190000000003018000000000301902065000000000000531300000000001607819400000000000000009999123100000010000000000000BRITUBACNOR4342
012024103102ITUB4       010ITAUUNIBANCOPN      N1   R$  000000000352500000000035610000000003502000000000351400000000035020000000003502000000000350723955000000000020077800000000070560265000000000000000009999123100000010000000000000BRITUBACNPR1342
012024103102MELK3       010MELNICK     ON      NM   R$  000000000036400000000003640000000000356000000000035900000000003560000000000356000000000035900401000000000000166000000000000059732100000000000000009999123100000010000000000000BRMELKACNOR8111
012024103102MGEL4       010MANGELS INDLPN           R$  000000000079900000000007990000000000788000000000079000000000007880000000000786000000000079900005000000000000000600000000000000474400000000000000009999123100000010000000000000BRMGELACNPR3147
012024103102MGLU3       010MAGAZ LUIZA ON      NM   R$  000000000095200000000009670000000000940000000000095100000000009460000000000945000000000094610256000000000013584900000000012930300400000000000000009999123100000010000000000000BRMGLUACNOR2125
012024103102EPAR3       010EMBPAR S/A  ON           R$  000000000055800000000005650000000000557000000000055900000000005570000000000556000000000056200011000000000000001300000000000000727800000000000000009999123100000010000000000000BREPARACNOR9105
012024103102EQMA3B      010EQTLMARANHAOON      MB   R$  000000000225500000000023490000000002251000000000230300000000023450000000002291000000000234900009000000000000001300000000000002994900000000000000009999123100000010000000000000BREQMAACNOR8108
012024103102EQPA3       010EQTL PARA   ON           R$  000000000058300000000005930000000000583000000000059000000000005880000000000588000000000059200004000000000000000500000000000000295000000000000000009999123100000010000000000000BREQPAACNOR1111
012024103102EQTL3       010EQUATORIAL  ON      NM   R$  000000000321500000000032530000000003203000000000322200000000032120000000003212000000000321515985000000000006331300000000020404984400000000000000009999123100000010000000000000BREQTLACNOR0131
012024103102IFCM3       010INFRACOMM   ON      NM   R$  000000000001400000000000150000000000013000000000001400000000000140000000000013000000000001400860000000000006412900000000000089784500000000000000009999123100000010000000000000BRIFCMACNOR8101
012024103102IGTI11      010IGUATEMI S.AUNT     N1   R$  000000000211700000000021370000000002104000000000211600000000021140000000002110000000000211405859000000000001499600000000003173689200000000000000009999123100000010000000000000BRIGTICDAM16106
012024103102IGTI3       010IGUATEMI S.AON      N1   R$  000000000025700000000002600000000000255000000000025600000000002560000000000255000000000025600057000000000000020100000000000005160500000000000000009999123100000010000000000000BRIGTIACNOR8106
012024103102INEP3       010INEPAR      ON           R$  000000000015200000000001590000000000150000000000015500000000001530000000000153000000000015400057000000000000067200000000000010417800000000000000009999123100000010000000000000BRINEPACNOR1143
012024103102INEP4       010INEPAR      PN           R$  000000000015200000000001560000000000151000000000015300000000001530000000000153000000000015400060000000000000015200000000000002325700000000000000009999123100000010000000000000BRINEPACNPR8143
012024103102INTB3       010INTELBRAS   ON      NM   R$  000000000193600000000019400000000001907000000000191800000000019140000000001912000000000191507087000000000001553000000000002979458600000000000000009999123100000010000000000000BRINTBACNOR9112
012024103102IRBR3       010IRBBRASIL REON      NM   R$  000000000434900000000044160000000004315000000000435100000000043340000000004330000000000433603603000000000000756100000000003289945700000000000000009999123100000010000000000000BRIRBRACNOR4111
012024103102ODPV3       010ODONTOPREV  ON      NM   R$  000000000103700000000011000000000001037000000000108400000000011000000000001090000000000110006304000000000002406200000000002608830300000000000000009999123100000010000000000000BRODPVACNOR4204
012024103102ELMD3       010ELETROMIDIA ON      NM   R$  000000000181100000000018370000000001792000000000181700000000018370000000001805000000000183700936000000000000240000000000000436299900000000000000009999123100000010000000000000BRELMDACNOR3101
012024103102EMAE3       010EMAE        ON           R$  000000000678000000000067800000000006780000000000678000000000067800000000004500000000000678000001000000000000000300000000000002034000000000000000009999123100000010000000000000BREMAEACNOR4126
012024103102EMAE4       010EMAE        PN           R$  000000000398500000000039850000000003911000000000395900000000039780000000003950000000000400000012000000000000001400000000000005543300000000000000009999123100000010000000000000BREMAEACNPR1126
012024103102EMBR3       010EMBRAER     ON      NM   R$  000000000491000000000050080000000004848000000000490100000000048480000000004848000000000484912914000000000005093000000000024965270700000000000000009999123100000010000000000000BREMBRACNOR4191
012024103102SUZB3       010SUZANO S.A. ON      NM   R$  000000000602100000000060880000000005958000000000600100000000059770000000005977000000000598320457000000000007265200000000043600953400000000000000009999123100000010000000000000BRSUZBACNOR0130
012024103102SLCE3       010SLC AGRICOLAON      NM   R$  000000000172000000000017580000000001701000000000172100000000017010000000001701000000000170705771000000000001786800000000003075977900000000000000009999123100000010000000000000BRSLCEACNOR2125
012024103102KRSA3       010KORA SAUDE  ON      NM   R$  000000000053100000000005310000000000498000000000051800000000005300000000000518000000000053100086000000000000030000000000000015567700000000000000009999123100000010000000000000BRKRSAACNOR0101
012024103102PETR3       010PETROBRAS   ON      N2   R$  000000000388500000000039120000000003861000000000389300000000039060000000003905000000000390811665000000000011105200000000043232847600000000000000009999123100000010000000000000BRPETRACNOR9206
012024103102PETR4       010PETROBRAS   PN      N2   R$  000000000358700000000036050000000003563000000000358300000000035910000000003590000000000359230646000000000025597000000000091720103100000000000000009999123100000010000000000000BRPETRACNPR6214
012024103102POMO3       010MARCOPOLO   ON      N2   R$  000000000065400000000006700000000000653000000000065900000000006540000000000653000000000065802063000000000001003200000000000661934300000000000000009999123100000010000000000000BRPOMOACNOR0099
012024103102POMO4       010MARCOPOLO   PN      N2   R$  000000000085000000000008650000000000845000000000085200000000008460000000000846000000000084716847000000000011648500000000009930756700000000000000009999123100000010000000000000BRPOMOACNPR7099
012024103102PORT3       010WILSON SONS ON      NM   R$  000000000158700000000015890000000001577000000000158300000000015890000000001582000000000158902785000000000002205800000000003493816700000000000000009999123100000010000000000000BRPORTACNOR8110
012024103102POSI3       010POSITIVO TECON      NM   R$  000000000065500000000006620000000000641000000000064900000000006410000000000641000000000064702812000000000000982500000000000638304300000000000000009999123100000010000000000000BRPOSIACNOR9116
012024103102PRIO3       010PETRORIO    ON      NM   R$  000000000412100000000041440000000004064000000000409600000000040980000000004096000000000410016082000000000006136200000000025136945900000000000000009999123100000010000000000000BRPRIOACNOR1107
012024103102NGRD3       010NEOGRID     ON      NM   R$  000000000243200000000024860000000002371000000000242700000000023910000000002370000000000239100130000000000000019500000000000047329300000000000000009999123100000010000000000000BRNGRDACNOR3106
012024103102NINJ3       010GETNINJAS   ON      NM   R$  000000000045200000000004570000000000440000000000044800000000004400000000000435000000000044900101000000000000277100000000000124318100000000000000009999123100000010000000000000BRNINJACNOR5101
012024103102NTCO3       010GRUPO NATURAON      NM   R$  000000000139500000000014020000000001365000000000137500000000013710000000001370000000000137212402000000000008533700000000011737375300000000000000009999123100000010000000000000BRNTCOACNOR5106
012024103102PRNR3       010PRINER      ON      NM   R$  000000000137700000000013950000000001371000000000138200000000013840000000001380000000000138401131000000000000327500000000000452928000000000000000009999123100000010000000000000BRPRNRACNOR4109
012024103102PSSA3       010PORTO SEGUROON      NM   R$  000000000386100000000039080000000003802000000000383200000000038150000000003812000000000381810093000000000002415600000000009258093600000000000000009999123100000010000000000000BRPSSAACNOR7156
012024103102MTRE3       010MITRE REALTYON  ED  NM   R$  000000000037200000000003780000000000366000000000037200000000003690000000000366000000000036900481000000000000324800000000000120914700000000000000009999123100000010000000000000BRMTREACNOR6116
012024103102MTSA4       010METISA      PN           R$  000000000361500000000036590000000003500000000000355500000000035000000000003500000000000358100035000000000000004600000000000016353800000000000000009999123100000010000000000000BRMTSAACNPR9073
012024103102MULT3       010MULTIPLAN   ON      N2   R$  000000000253300000000025780000000002533000000000256300000000025590000000002558000000000256308176000000000002275000000000005832364300000000000000009999123100000010000000000000BRMULTACNOR5139
012024103102MYPK3       010IOCHP-MAXIONON      NM   R$  000000000103600000000010450000000001019000000000102700000000010190000000001019000000000102102395000000000000458600000000000471373800000000000000009999123100000010000000000000BRMYPKACNOR7156
012024103102SANB11      010SANTANDER BRUNT          R$  000000000277800000000027980000000002720000000000274200000000027200000000002720000000000272210150000000000003208700000000008801241000000000000000009999123100000010000000000000BRSANBCDAM13166
012024103102SANB3       010SANTANDER BRON           R$  000000000132600000000013450000000001302000000000131100000000013020000000001302000000000131100853000000000000154000000000000201970100000000000000009999123100000010000000000000BRSANBACNOR8173
012024103102SANB4       010SANTANDER BRPN           R$  000000000145800000000014730000000001431000000000144200000000014310000000001431000000000143800961000000000000164600000000000237354900000000000000009999123100000010000000000000BRSANBACNPR5173
012024103102SAPR11      010SANEPAR     UNT     N2   R$  000000000270700000000027390000000002700000000000270900000000027000000000002700000000000271704034000000000000911700000000002470269500000000000000009999123100000010000000000000BRSAPRCDAM13118
012024103102SAPR3       010SANEPAR     ON      N2   R$  000000000051800000000005260000000000515000000000051900000000005150000000000515000000000051800646000000000000168600000000000087566300000000000000009999123100000010000000000000BRSAPRACNOR9159
012024103102SAPR4       010SANEPAR     PN      N2   R$  000000000054900000000005540000000000547000000000055000000000005540000000000551000000000055504158000000000003080600000000001696959500000000000000009999123100000010000000000000BRSAPRACNPR6159
012024103102UNIP3       010UNIPAR      ON           R$  000000000446600000000045590000000004441000000000447300000000044420000000004441000000000449000034000000000000003800000000000016997600000000000000009999123100000010000000000000BRUNIPACNOR7206
012024103102UNIP5       010UNIPAR      PNA          R$  000000000484000000000048400000000004840000000000484000000000048400000000004656000000000483900001000000000000000100000000000000484000000000000000009999123100000010000000000000BRUNIPACNPA0208
012024103102UNIP6       010UNIPAR      PNB          R$  000000000452000000000045520000000004450000000000448500000000044700000000004470000000000447601579000000000000268700000000001205296600000000000000009999123100000010000000000000BRUNIPACNPB8206
012024103102USIM3       010USIMINAS    ON      N1   R$  000000000063400000000006410000000000630000000000063400000000006370000000000634000000000063800949000000000000245700000000000155940300000000000000009999123100000010000000000000BRUSIMACNOR3167
012024103102USIM5       010USIMINAS    PNA     N1   R$  000000000065500000000006650000000000652000000000065800000000006610000000000659000000000066111181000000000008977900000000005912523200000000000000009999123100000010000000000000BRUSIMACNPA6169
012024103102WEST3       010WESTWING    ON      NM   R$  000000000007900000000000790000000000079000000000007800000000000790000000000078000000000007900016000000000000024800000000000001958900000000000000009999123100000010000000000000BRWESTACNOR3100
012024103102WHRL3       010WHIRLPOOL   ON           R$  000000000041400000000004160000000000414000000000041300000000004160000000000413000000000041600005000000000000000900000000000000372300000000000000009999123100000010000000000000BRWHRLACNOR5129
012024103102WHRL4       010WHIRLPOOL   PN           R$  000000000044300000000004460000000000440000000000044300000000004460000000000442000000000044600017000000000000012600000000000005583000000000000000009999123100000010000000000000BRWHRLACNPR2129
012024103102WIZC3       010WIZ CO      ON      NM   R$  000000000057200000000005870000000000561000000000057500000000005810000000000579000000000058101717000000000000599700000000000345358600000000000000009999123100000010000000000000BRWIZCACNOR5102
012024103102WLMM4       010WLM IND COM PN           R$  000000000309900000000031000000000003099000000000309900000000031000000000003001000000000375000004000000000000000600000000000001859900000000000000009999123100000010000000000000BRWLMMACNPR3119
012024103102YDUQ3       010YDUQS PART  ON      NM   R$  000000000108200000000010920000000001050000000000106900000000010610000000001060000000000106505810000000000002295400000000002455846500000000000000009999123100000010000000000000BRYDUQACNOR3105
012024103102SBFG3       010GRUPO SBF   ON      NM   R$  000000000146400000000014760000000001436000000000145100000000014490000000001442000000000145006663000000000001727500000000002508149400000000000000009999123100000010000000000000BRSBFGACNOR1103
012024103102SBSP3       010SABESP      ON      NM   R$  000000000923100000000092660000000009195000000000922100000000092080000000009207000000000920810270000000000003430100000000031629281100000000000000009999123100000010000000000000BRSBSPACNOR5161
012024103102SCAR3       010SAO CARLOS  ON      NM   R$  000000000221000000000022670000000002161000000000222200000000022600000000002260000000000226800140000000000000064500000000000143372500000000000000009999123100000010000000000000BRSCARACNOR7131
012024103102SEER3       010SER EDUCA   ON      NM   R$  000000000067300000000007000000000000673000000000069000000000007000000000000698000000000070002356000000000000719500000000000497118300000000000000009999123100000010000000000000BRSEERACNOR5119
012024103102SHOW3       010TIME FOR FUNON      NM   R$  000000000009100000000000950000000000089000000000009100000000000950000000000090000000000009500358000000000000346900000000000031899400000000000000009999123100000010000000000000BRSHOWACNOR7105
012024103102SHUL4       010SCHULZ      PN           R$  000000000062000000000006370000000000614000000000062800000000006280000000000627000000000063001253000000000000449800000000000282577500000000000000009999123100000010000000000000BRSHULACNPR4157
012024103102SIMH3       010SIMPAR      ON      NM   R$  000000000054200000000005600000000000535000000000054500000000005350000000000535000000000053803625000000000002339700000000001275312700000000000000009999123100000010000000000000BRSIMHACNOR0107
012024103102VALE3       010VALE        ON      NM   R$  000000000623400000000062590000000006180000000000620900000000062060000000006204000000000620921501000000000016553300000000102789781900000000000000009999123100000010000000000000BRVALEACNOR0211
012024103102ZAMP3       010ZAMP S.A.   ON           R$  000000000024400000000002470000000000240000000000024300000000002400000000000240000000000024501688000000000000712000000000000173467700000000000000009999123100000010000000000000BRZAMPACNOR5101
012024103102PDGR3       010PDG REALT   ON      NM   R$  000000000000100000000000020000000000001000000000000100000000000010000000000001000000000000202283000000000166698700000000000171285000000000000000009999123100000010000000000000BRPDGRACNOR8119
012024103102PDTC3       010PADTEC      ON      NM   R$  000000000020000000000002000000000000182000000000018900000000001870000000000187000000000018900229000000000000169300000000000032036900000000000000009999123100000010000000000000BRPDTCACNOR3101
012024103102PEAB3       010PAR AL BAHIAON           R$  000000000427800000000042800000000004278000000000427900000000042800000000004000000000000439400002000000000000000200000000000000855800000000000000009999123100000010000000000000BRPEABACNOR3133
012024103102PEAB4       010PAR AL BAHIAPN           R$  000000000488200000000049500000000004882000000000488900000000049500000000004500000000000500000005000000000000000900000000000004400600000000000000009999123100000010000000000000BRPEABACNPR0133
012024103102ANIM3       010ANIMA       ON      NM   R$  000000000026000000000002660000000000253000000000025700000000002550000000000255000000000025604021000000000003858800000000000993725100000000000000009999123100000010000000000000BRANIMACNOR6109
012024103102ARML3       010ARMAC       ON      NM   R$  000000000077100000000007870000000000743000000000075300000000007470000000000745000000000074802241000000000000786100000000000592549200000000000000009999123100000010000000000000BRARMLACNOR1113
012024103102ASAI3       010ASSAI       ON      NM   R$  000000000076200000000007750000000000748000000000075300000000007490000000000748000000000075012589000000000015084800000000011364185100000000000000009999123100000010000000000000BRASAIACNOR0106
012024103102AZUL4       010AZUL        PN      N2   R$  000000000058000000000005870000000000562000000000057100000000005680000000000567000000000056806332000000000017252600000000009864802200000000000000009999123100000010000000000000BRAZULACNPR4103
012024103102BBDC3       010BRADESCO    ON      N1   R$  000000000127800000000012930000000001255000000000127300000000012740000000001273000000000127413780000000000015298100000000019474728900000000000000009999123100000010000000000000BRBBDCACNOR1776
012024103102BBDC4       010BRADESCO    PN      N1   R$  000000000145000000000014720000000001425000000000144500000000014370000000001437000000000143867151000000000084313700000000121882820200000000000000009999123100000010000000000000BRBBDCACNPR8776
012024103102BLAU3       010BLAU        ON      NM   R$  000000000146800000000015000000000001462000000000148400000000015000000000001484000000000150001449000000000000255700000000000379685600000000000000009999123100000010000000000000BRBLAUACNOR8115
012024103102BGIP4       010BANESE      PN           R$  000000000237300000000023730000000002341000000000235100000000023410000000002340000000000238000003000000000000000300000000000000705500000000000000009999123100000010000000000000BRBGIPACNPR8210
012024103102ATOM3       010ATOMPAR     ON           R$  000000000040000000000004040000000000376000000000038600000000003840000000000384000000000038500261000000000000103700000000000040108100000000000000009999123100000010000000000000BRATOMACNOR1106
012024103102AURE3       010AUREN       ON      NM   R$  000000000105000000000010760000000001025000000000103700000000010250000000001024000000000102518094000000000012756100000000013240282900000000000000009999123100000010000000000000BRAUREACNOR9104
012024103102AVLL3       010ALPHAVILLE  ON      NM   R$  000000000029200000000002960000000000292000000000029400000000002960000000000283000000000029600014000000000000011000000000000003238400000000000000009999123100000010000000000000BRAVLLACNOR5103
012024103102AZEV3       010AZEVEDO     ON           R$  000000000011900000000001190000000000115000000000011600000000001160000000000115000000000011600273000000000000450900000000000052708500000000000000009999123100000010000000000000BRAZEVACNOR0121
012024103102AZEV4       010AZEVEDO     PN           R$  000000000011900000000001190000000000116000000000011700000000001170000000000116000000000011700816000000000001118900000000000131135200000000000000009999123100000010000000000000BRAZEVACNPR7121
012024103102KLBN4       010KLABIN S/A  PN      N2   R$  000000000041400000000004250000000000414000000000041900000000004170000000000417000000000041801906000000000002247900000000000943768500000000000000009999123100000010000000000000BRKLBNACNPR9171
012024103102ALPA3       010ALPARGATAS  ON      N1   R$  000000000064500000000006450000000000631000000000063800000000006310000000000631000000000063900007000000000000001700000000000001084800000000000000009999123100000010000000000000BRALPAACNOR0231
012024103102ALPA4       010ALPARGATAS  PN      N1   R$  000000000072500000000007320000000000717000000000072100000000007170000000000716000000000072004176000000000001913400000000001381187900000000000000009999123100000010000000000000BRALPAACNPR7232
012024103102ALPK3       010ESTAPAR     ON      NM   R$  000000000029900000000002990000000000282000000000029000000000002820000000000282000000000028400337000000000000165200000000000047973100000000000000009999123100000010000000000000BRALPKACNOR9101
012024103102ALUP11      010ALUPAR      UNT     N2   R$  000000000294000000000029530000000002922000000000293500000000029340000000002933000000000293402673000000000000811200000000002381541900000000000000009999123100000010000000000000BRALUPCDAM15120
012024103102ALUP3       010ALUPAR      ON      N2   R$  000000000100000000000010160000000000998000000000100600000000009980000000000989000000000100000031000000000000003800000000000003825600000000000000009999123100000010000000000000BRALUPACNOR8120
012024103102ALUP4       010ALUPAR      PN      N2   R$  000000000096200000000009680000000000950000000000096300000000009660000000000954000000000096500059000000000000011600000000000011174300000000000000009999123100000010000000000000BRALUPACNPR5120
012024103102AMAR3       010LOJAS MARISAON      NM   R$  000000000009700000000000980000000000095000000000009600000000000950000000000095000000000009600327000000000000137600000000000013227700000000000000009999123100000010000000000000BRAMARACNOR4115
012024103102AMBP3       010AMBIPAR     ON      NM   R$  000000001350000000000136390000000012930000000001312400000000129300000000012930000000001299900899000000000000256000000000003359886100000000000000009999123100000010000000000000BRAMBPACNOR6103
012024103102BHIA3       010CASAS BAHIA ON      NM   R$  000000000041900000000004250000000000410000000000041400000000004120000000000412000000000041301600000000000001632100000000000677049300000000000000009999123100000010000000000000BRBHIAACNOR1102
012024103102BIOM3       010BIOMM       ON      MA   R$  000000000088800000000008950000000000876000000000088100000000008770000000000877000000000088500099000000000000026600000000000023455100000000000000009999123100000010000000000000BRBIOMACNOR2112
012024103102BPAN4       010BANCO PAN   PN      N1   R$  000000000085500000000008600000000000844000000000085100000000008500000000000849000000000085003330000000000001204100000000001025064400000000000000009999123100000010000000000000BRBPANACNPR1115
012024103102BRAP3       010BRADESPAR   ON      N1   R$  000000000182500000000018280000000001802000000000181300000000018240000000001820000000000182600198000000000000030100000000000054589600000000000000009999123100000010000000000000BRBRAPACNOR5148
012024103102BRAP4       010BRADESPAR   PN      N1   R$  000000000197100000000019890000000001960000000000197000000000019640000000001963000000000197110724000000000004058600000000007999047500000000000000009999123100000010000000000000BRBRAPACNPR2148
012024103102CPFE3       010CPFL ENERGIAON      NM   R$  000000000326500000000033140000000003265000000000328200000000032770000000003276000000000327705446000000000001544000000000005068468900000000000000009999123100000010000000000000BRCPFEACNOR0137
012024103102CPLE3       010COPEL       ON      N2   R$  000000000087100000000008810000000000869000000000087200000000008710000000000870000000000087109042000000000009202900000000008028315600000000000000009999123100000010000000000000BRCPLEACNOR8150
012024103102CPLE5       010COPEL       PNA     N2   R$  000000000110000000000011000000000001100000000000110000000000011000000000001050000000000110000001000000000000000200000000000000220000000000000000009999123100000010000000000000BRCPLEACNPA1148
012024103102CPLE6       010COPEL       PNB     N2   R$  000000000098100000000009910000000000979000000000098200000000009810000000000981000000000098210801000000000015537800000000015268944500000000000000009999123100000010000000000000BRCPLEACNPB9147
012024103102EGIE3       010ENGIE BRASILON      NM   R$  000000000410400000000041640000000004104000000000414400000000041470000000004145000000000414706416000000000001364800000000005657030500000000000000009999123100000010000000000000BREGIEACNOR9127
012024103102EKTR4       010ELEKTRO     PN  ED       R$  000000000424900000000042500000000004249000000000424900000000042500000000004138000000000424900008000000000000000900000000000003824800000000000000009999123100000010000000000000BREKTRACNPR7166
012024103102HBOR3       010HELBOR      ON      NM   R$  000000000019100000000001920000000000188000000000019000000000001890000000000188000000000018900242000000000000289700000000000055063500000000000000009999123100000010000000000000BRHBORACNOR3118
012024103102HBRE3       010HBR REALTY  ON      NM   R$  000000000046600000000004670000000000443000000000045200000000004520000000000451000000000045202313000000000001026100000000000463899000000000000000009999123100000010000000000000BRHBREACNOR4100
012024103102LAND3       010TERRASANTAPAON      NM   R$  000000000127600000000013010000000001240000000000126400000000012400000000001240000000000125400208000000000000041000000000000051839600000000000000009999123100000010000000000000BRLANDACNOR9103
012024103102LAVV3       010LAVVI       ON      NM   R$  000000000084400000000008600000000000842000000000084800000000008480000000000841000000000084802817000000000000867700000000000736527800000000000000009999123100000010000000000000BRLAVVACNOR4113
012024103102LEVE3       010METAL LEVE  ON      NM   R$  000000000301000000000030220000000002975000000000299900000000029940000000002992000000000299502330000000000000466000000000001397650500000000000000009999123100000010000000000000BRLEVEACNOR2197
012024103102LJQQ3       010QUERO-QUERO ON      NM   R$  000000000029400000000003010000000000288000000000029200000000002880000000000288000000000028902532000000000003826500000000001120046900000000000000009999123100000010000000000000BRLJQQACNOR5104
012024103102LOGG3       010LOG COM PROPON      NM   R$  000000000228800000000023490000000002241000000000227600000000022620000000002249000000000226201991000000000000307300000000000699688400000000000000009999123100000010000000000000BRLOGGACNOR7107
012024103102LOGN3       010LOG-IN      ON      NM   R$  000000000254000000000026430000000002540000000000259500000000026430000000002643000000000264700126000000000000018400000000000047753500000000000000009999123100000010000000000000BRLOGNACNOR3105
012024103102HBSA3       010HIDROVIAS   ON      NM   R$  000000000031700000000003240000000000315000000000031800000000003150000000000315000000000031703523000000000002414700000000000768510000000000000000009999123100000010000000000000BRHBSAACNOR0101
012024103102HBTS5       010HABITASUL   PNA          R$  000000000320000000000032000000000003200000000000320000000000032000000000002680000000000315000001000000000000000100000000000000320000000000000000009999123100000010000000000000BRHBTSACNPA3128
012024103102HETA4       010HERCULES    PN           R$  000000000061000000000006840000000000610000000000063500000000006840000000000615000000000067900003000000000000000600000000000000381000000000000000009999123100000010000000000000BRHETAACNPR9136
012024103102LPSB3       010LOPES BRASILON      NM   R$  000000000016000000000001650000000000158000000000016000000000001610000000000161000000000016200898000000000000191800000000000030792700000000000000009999123100000010000000000000BRLPSBACNOR0114
012024103102LREN3       010LOJAS RENNERON      NM   R$  000000000186300000000019050000000001852000000000186800000000018570000000001857000000000186216492000000000013666700000000025539283400000000000000009999123100000010000000000000BRLRENACNOR1222
012024103102NEOE3       010NEOENERGIA  ON      NM   R$  000000000190100000000019240000000001898000000000190900000000019100000000001910000000000191104987000000000000995700000000001901015800000000000000009999123100000010000000000000BRNEOEACNOR3123
012024103102HYPE3       010HYPERA      ON      NM   R$  000000000224500000000023140000000002183000000000225000000000022100000000002210000000000221235029000000000016243300000000036549782200000000000000009999123100000010000000000000BRHYPEACNOR0144
012024103102MRVE3       010MRV         ON      NM   R$  000000000071700000000007230000000000690000000000069900000000006920000000000691000000000069217775000000000011347200000000007942664400000000000000009999123100000010000000000000BRMRVEACNOR2127
012024103102AERI3       010AERIS       ON      NM   R$  000000000062800000000006380000000000621000000000062600000000006210000000000620000000000062100415000000000000107000000000000067036500000000000000009999123100000010000000000000BRAERIACNOR4102
012024103102AESB3       010AES BRASIL  ON      NM   R$  000000000082200000000008470000000000808000000000081800000000008110000000000810000000000081501757000000000001671100000000001368449400000000000000009999123100000010000000000000BRAESBACNOR7107
012024103102AGRO3       010BRASILAGRO  ON  ED  NM   R$  000000000237000000000023800000000002340000000000235800000000023550000000002355000000000235602361000000000000445000000000001049311600000000000000009999123100000010000000000000BRAGROACNOR7115
012024103102AHEB3       010SPTURIS     ON           R$  000000000380000000000038000000000003800000000000380000000000038000000000003600000000000400000002000000000000000200000000000000760000000000000000009999123100000010000000000000BRAHEBACNOR0106
012024103102ALLD3       010ALLIED      ON      NM   R$  000000000076700000000007680000000000759000000000076300000000007590000000000757000000000075900115000000000000027600000000000021064000000000000000009999123100000010000000000000BRALLDACNOR3106
012024103102ALOS3       010ALLOS       ON  ED  NM   R$  000000000221000000000022330000000002210000000000221800000000022120000000002211000000000222006640000000000003923200000000008703245000000000000000009999123100000010000000000000BRALOSACNOR5103
012024103102HAGA3       010HAGA S/A    ON           R$  000000000026700000000002740000000000248000000000025700000000002480000000000248000000000025600081000000000000013200000000000003393200000000000000009999123100000010000000000000BRHAGAACNOR7103
012024103102HAGA4       010HAGA S/A    PN           R$  000000000012800000000001310000000000126000000000012800000000001310000000000127000000000013000013000000000000002100000000000000269800000000000000009999123100000010000000000000BRHAGAACNPR4103
012024103102HAPV3       010HAPVIDA     ON      NM   R$  000000000035700000000003610000000000350000000000035300000000003520000000000352000000000035312505000000000044601700000000015784174700000000000000009999123100000010000000000000BRHAPVACNOR4115
012024103102JALL3       010JALLESMACHADON      NM   R$  000000000061000000000006220000000000604000000000060900000000006070000000000607000000000060902025000000000000917400000000000558836900000000000000009999123100000010000000000000BRJALLACNOR0106
012024103102JBSS3       010JBS         ON      NM   R$  000000000368200000000037190000000003601000000000364100000000036010000000003600000000000360424775000000000009774900000000035597403600000000000000009999123100000010000000000000BRJBSSACNOR8122
012024103102AALR3       010ALLIAR      ON      NM   R$  000000000152200000000015500000000001489000000000152200000000015260000000001505000000000152600281000000000000040200000000000061184500000000000000009999123100000010000000000000BRAALRACNOR6102
012024103102ABCB4       010ABC BRASIL  PN      N2   R$  000000000211500000000021280000000002092000000000211200000000020920000000002091000000000209204074000000000000966800000000002042312100000000000000009999123100000010000000000000BRABCBACNPR4146
012024103102ABEV3       010AMBEV S/A   ON           R$  000000000126000000000012840000000001248000000000126700000000012640000000001263000000000126581725000000000061215800000000077575541700000000000000009999123100000010000000000000BRABEVACNOR1128
012024103102BAHI3       010BAHEMA      ON      MA   R$  000000000046400000000004770000000000460000000000046600000000004730000000000450000000000047400025000000000000007200000000000003361200000000000000009999123100000010000000000000BRBAHIACNOR1074
012024103102BALM4       010BAUMER      PN           R$  000000000100100000000010300000000001000000000000102100000000010300000000001030000000000107900008000000000000000800000000000000817500000000000000009999123100000010000000000000BRBALMACNPR2056
012024103102BAZA3       010AMAZONIA    ON           R$  000000000925000000000092500000000009133000000000914000000000091330000000009108000000000950000006000000000000001900000000000017367200000000000000009999123100000010000000000000BRBAZAACNOR0179
012024103102BBAS3       010BRASIL      ON      NM   R$  000000000263300000000026460000000002623000000000263200000000026330000000002631000000000263419435000000000011163300000000029384594200000000000000009999123100000010000000000000BRBBASACNOR3326
012024103102BBSE3       010BBSEGURIDADEON      NM   R$  000000000346500000000035220000000003425000000000344200000000034270000000003426000000000343012688000000000005908200000000020337384900000000000000009999123100000010000000000000BRBBSEACNOR5125
012024103102CEAB3       010CEA MODAS   ON      NM   R$  000000000131500000000013410000000001282000000000130500000000013030000000001300000000000130309344000000000003123500000000004078463000000000000000009999123100000010000000000000BRCEABACNOR1102
012024103102CEBR3       010CEB         ON           R$  000000000188000000000018800000000001880000000000188000000000018800000000001869000000000188000001000000000000000100000000000000188000000000000000009999123100000010000000000000BRCEBRACNOR5125
012024103102CEBR5       010CEB         PNA          R$  000000000162000000000016330000000001620000000000162500000000016330000000001621000000000163400007000000000000001300000000000002113700000000000000009999123100000010000000000000BRCEBRACNPA8124
012024103102CEBR6       010CEB         PNB          R$  000000000178700000000017990000000001778000000000178200000000017990000000001775000000000180600010000000000000001500000000000002673600000000000000009999123100000010000000000000BRCEBRACNPB6124
012024103102CGAS5       010COMGAS      PNA          R$  000000001290000000000129000000000012622000000001273000000000126220000000012622000000001280000003000000000000000300000000000003819200000000000000009999123100000010000000000000BRCGASACNPA3161
012024103102CGRA3       010GRAZZIOTIN  ON           R$  000000000252000000000025200000000002499000000000251100000000024990000000002499000000000252500005000000000000001800000000000004519900000000000000009999123100000010000000000000BRCGRAACNOR2083
012024103102CGRA4       010GRAZZIOTIN  PN           R$  000000000254000000000025530000000002500000000000251400000000025090000000002490000000000253300020000000000000004900000000000012323400000000000000009999123100000010000000000000BRCGRAACNPR9083
012024103102CLSA3       010CLEARSALE   ON      NM   R$  000000000095000000000009580000000000946000000000095100000000009570000000000956000000000095703103000000000001445100000000001374421300000000000000009999123100000010000000000000BRCLSAACNOR0100
012024103102CLSC4       010CELESC      PN      N2   R$  000000000784500000000078510000000007820000000000782500000000078210000000007820000000000788600020000000000000002200000000000017216200000000000000009999123100000010000000000000BRCLSCACNPR3132
012024103102CMIG3       010CEMIG       ON      N1   R$  000000000146700000000014740000000001448000000000146000000000014510000000001450000000000146000798000000000000133700000000000195215600000000000000009999123100000010000000000000BRCMIGACNOR6244
012024103102CMIG4       010CEMIG       PN      N1   R$  000000000113500000000011470000000001125000000000113600000000011370000000001136000000000113812137000000000014369900000000016336655000000000000000009999123100000010000000000000BRCMIGACNPR3245
012024103102CXSE3       010CAIXA SEGURION      NM   R$  000000000145000000000014620000000001440000000000144600000000014400000000001439000000000144011946000000000004014600000000005806353800000000000000009999123100000010000000000000BRCXSEACNOR7107
012024103102CYRE3       010CYRELA REALTON      NM   R$  000000000216700000000022240000000002167000000000219100000000021740000000002173000000000217711879000000000005558300000000012178333000000000000000009999123100000010000000000000BRCYREACNOR7140
012024103102GGPS3       010GPS         ON      NM   R$  000000000170100000000017280000000001701000000000171100000000017060000000001706000000000171208297000000000002973900000000005090184800000000000000009999123100000010000000000000BRGGPSACNOR9103
012024103102GMAT3       010GRUPO MATEUSON      NM   R$  000000000074200000000007580000000000742000000000075200000000007580000000000754000000000075807788000000000008460500000000006370262800000000000000009999123100000010000000000000BRGMATACNOR7103
012024103102GOAU3       010GERDAU MET  ON      N1   R$  000000000101800000000010220000000001000000000000101200000000010170000000001012000000000101700169000000000000026400000000000026742600000000000000009999123100000010000000000000BRGOAUACNOR1268
012024103102GOAU4       010GERDAU MET  PN      N1   R$  000000000102700000000010370000000001021000000000102600000000010270000000001024000000000102708469000000000007833300000000008039443300000000000000009999123100000010000000000000BRGOAUACNPR8269
012024103102BSLI3       010BRB BANCO   ON           R$  000000000088700000000009270000000000887000000000090700000000009270000000000887000000000092900002000000000000000200000000000000181400000000000000009999123100000010000000000000BRBSLIACNOR5194
012024103102BSLI4       010BRB BANCO   PN           R$  000000000095000000000009500000000000930000000000093800000000009300000000000933000000000099700006000000000000001800000000000001690000000000000000009999123100000010000000000000BRBSLIACNPR2194
012024103102B3SA3       010B3          ON      NM   R$  000000000107400000000010750000000001057000000000106200000000010620000000001062000000000106323462000000000028075100000000029831434900000000000000009999123100000010000000000000BRB3SAACNOR6134
012024103102BRIT3       010BRISANET    ON      NM   R$  000000000031700000000003190000000000310000000000031500000000003100000000000310000000000031600389000000000000122200000000000038541500000000000000009999123100000010000000000000BRBRITACNOR0103
012024103102BRKM3       010BRASKEM     ON      N1   R$  000000000172700000000017270000000001702000000000171200000000017050000000001701000000000172200079000000000000011500000000000019697300000000000000009999123100000010000000000000BRBRKMACNOR1119
012024103102BRKM5       010BRASKEM     PNA     N1   R$  000000000175100000000017730000000001741000000000175000000000017560000000001756000000000175705170000000000002016200000000003528507600000000000000009999123100000010000000000000BRBRKMACNPA4121
012024103102BRKM6       010BRASKEM     PNB     N1   R$  000000000132000000000013200000000001320000000000132000000000013200000000001320000000000139900001000000000000000100000000000000132000000000000000009999123100000010000000000000BRBRKMACNPB2114
012024103102BRSR3       010BANRISUL    ON      N1   R$  000000000127200000000012720000000001250000000000126100000000012500000000001250000000000126200023000000000000002800000000000003530800000000000000009999123100000010000000000000BRBRSRACNOR3189
012024103102BRSR6       010BANRISUL    PNB     N1   R$  000000000111700000000011380000000001117000000000112700000000011250000000001124000000000112702729000000000000738500000000000832800000000000000000009999123100000010000000000000BRBRSRACNPB4192
012024103102CSED3       010CRUZEIRO EDUON      NM   R$  000000000034100000000003440000000000329000000000033300000000003310000000000330000000000033101388000000000000642000000000000214318700000000000000009999123100000010000000000000BRCSEDACNOR9105
012024103102CSMG3       010COPASA      ON      NM   R$  000000000229000000000023210000000002274000000000230600000000023050000000002300000000000230608201000000000001778700000000004101998900000000000000009999123100000010000000000000BRCSMGACNOR5175
012024103102CSNA3       010SID NACIONALON           R$  000000000117300000000011930000000001167000000000117600000000011770000000001176000000000117706993000000000004500400000000005292566500000000000000009999123100000010000000000000BRCSNAACNOR6261
012024103102ESPA3       010ESPACOLASER ON      NM   R$  000000000009500000000000970000000000095000000000009500000000000950000000000095000000000009600172000000000000138000000000000013194600000000000000009999123100000010000000000000BRESPAACNOR7103
012024103102ESTR4       010ESTRELA     PN           R$  000000000036800000000003700000000000347000000000035900000000003700000000000355000000000038000006000000000000001900000000000000682500000000000000009999123100000010000000000000BRESTRACNPR0144
012024103102ETER3       010ETERNIT     ON      NM   R$  000000000052200000000005480000000000517000000000052600000000005290000000000529000000000053201261000000000000573800000000000301908600000000000000009999123100000010000000000000BRETERACNOR3244
012024103102EUCA3       010EUCATEX     ON      N1   R$  000000000157600000000015760000000001576000000000157600000000015760000000001575000000000160900002000000000000000200000000000000315200000000000000009999123100000010000000000000BREUCAACNOR1157
012024103102EUCA4       010EUCATEX     PN      N1   R$  000000000144300000000014650000000001427000000000144100000000014350000000001435000000000143600238000000000000033700000000000048581600000000000000009999123100000010000000000000BREUCAACNPR8044
012024103102EVEN3       010EVEN        ON      NM   R$  000000000061100000000006190000000000603000000000060800000000006030000000000602000000000060701881000000000000548800000000000334078000000000000000009999123100000010000000000000BREVENACNOR8120
012024103102EZTC3       010EZTEC       ON      NM   R$  000000000138400000000014250000000001384000000000140100000000013970000000001396000000000139907057000000000002385200000000003343446500000000000000009999123100000010000000000000BREZTCACNOR0126
012024103102PLPL3       010PLANOEPLANO ON      NM   R$  000000000140100000000014170000000001385000000000140100000000014120000000001401000000000141203891000000000000853700000000001196406100000000000000009999123100000010000000000000BRPLPLACNOR5104
012024103102PNVL3       010DIMED       ON      NM   R$  000000000101400000000010250000000001010000000000101400000000010130000000001013000000000101601402000000000000257500000000000261190400000000000000009999123100000010000000000000BRPNVLACNOR9208
012024103102ITSA3       010ITAUSA      ON      N1   R$  000000000106500000000010720000000001056000000000106200000000010580000000001058000000000106100336000000000000088200000000000093697900000000000000009999123100000010000000000000BRITSAACNOR0443
012024103102ITSA4       010ITAUSA      PN      N1   R$  000000000106400000000010720000000001055000000000106000000000010610000000001061000000000106221829000000000028112300000000029817997500000000000000009999123100000010000000000000BRITSAACNPR7443
012024103102LUPA3       010LUPATECH    ON      NM   R$  000000000014600000000001510000000000145000000000014600000000001450000000000145000000000014600127000000000000149300000000000021865400000000000000009999123100000010000000000000BRLUPAACNOR8112
012024103102LVTC3       010WDC NETWORKSON      NM   R$  000000000036400000000003640000000000356000000000035800000000003600000000000356000000000036400051000000000000017600000000000006304200000000000000009999123100000010000000000000BRLVTCACNOR4102
012024103102LWSA3       010LWSA        ON      NM   R$  000000000042000000000004200000000000408000000000041200000000004150000000000412000000000041510747000000000017168800000000007080888400000000000000009999123100000010000000000000BRLWSAACNOR8103
012024103102MATD3       010MATER DEI   ON      NM   R$  000000000042100000000004320000000000421000000000042500000000004250000000000422000000000042500435000000000000112900000000000048062300000000000000009999123100000010000000000000BRMATDACNOR4104
012024103102MBLY3       010MOBLY       ON  ES  NM   R$  000000000022100000000002260000000000210000000000021600000000002140000000000213000000000021400301000000000000575300000000000124463400000000000000009999123100000010000000000000BRMBLYACNOR5101
012024103102MDIA3       010M.DIASBRANCOON      NM   R$  000000000249200000000025180000000002480000000000249800000000025010000000002495000000000250203758000000000000952900000000002380405100000000000000009999123100000010000000000000BRMDIAACNOR7136
012024103102AZZA3       010AZZAS 2154  ON      NM   R$  000000000403800000000041550000000004034000000000411000000000041240000000004122000000000412405177000000000001308800000000005379335500000000000000009999123100000010000000000000BRAZZAACNOR9100
012024103102BRBI11      010BR PARTNERS UNT     N2   R$  000000000151500000000015150000000001492000000000149800000000014940000000001494000000000150401752000000000000296500000000000444404700000000000000009999123100000010000000000000BRBRBICDAM10110
012024103102BRFS3       010BRF SA      ON      NM   R$  000000000258700000000026770000000002585000000000264900000000026230000000002622000000000263026962000000000015846800000000041978289900000000000000009999123100000010000000000000BRBRFSACNOR8122
012024103102ENEV3       010ENEVA       ON      NM   R$  000000000131500000000013380000000001305000000000131500000000013080000000001308000000000131615169000000000011656500000000015336778700000000000000009999123100000010000000000000BRENEVACNOR8106
012024103102ENGI11      010ENERGISA    UNT     N2   R$  000000000426700000000043600000000004267000000000432600000000043150000000004315000000000432111428000000000003568200000000015436155300000000000000009999123100000010000000000000BRENGICDAM16136
012024103102ENGI3       010ENERGISA    ON      N2   R$  000000000127500000000013100000000001275000000000129600000000012760000000001276000000000131000017000000000000002000000000000002593000000000000000009999123100000010000000000000BRENGIACNOR0146
012024103102ENGI4       010ENERGISA    PN      N2   R$  000000000076000000000007610000000000754000000000075800000000007540000000000752000000000076200018000000000000002500000000000001895700000000000000009999123100000010000000000000BRENGIACNPR7142
012024103102ENJU3       010ENJOEI      ON      NM   R$  000000000012600000000001300000000000126000000000012800000000001290000000000128000000000012901133000000000000279300000000000035867300000000000000009999123100000010000000000000BRENJUACNOR9100
012024103102ENMT4       010ENERGISA MT PN           R$  000000000820000000000084910000000008200000000000844100000000084910000000000000000000000849100005000000000000000600000000000005065000000000000000009999123100000010000000000000BRENMTACNPR2126
012024103102TUPY3       010TUPY        ON      NM   R$  000000000234200000000023660000000002325000000000233600000000023350000000002335000000000233602775000000000000760900000000001778005100000000000000009999123100000010000000000000BRTUPYACNOR1184
012024103102UCAS3       010UNICASA     ON      NM   R$  000000000021600000000002160000000000212000000000021300000000002160000000000215000000000021600091000000000000036100000000000007709900000000000000009999123100000010000000000000BRUCASACNOR1113
012024103102UGPA3       010ULTRAPAR    ON      NM   R$  000000000207800000000021000000000002062000000000208200000000020890000000002088000000000208908804000000000004183400000000008712031200000000000000009999123100000010000000000000BRUGPAACNOR8156
012024103102PETZ3       010PETZ        ON      NM   R$  000000000049900000000005010000000000493000000000049600000000004940000000000493000000000049603376000000000003141500000000001560411000000000000000009999123100000010000000000000BRPETZACNOR2110
012024103102RCSL3       010RECRUSUL    ON           R$  000000000040200000000004100000000000377000000000039500000000003770000000000376000000000038002527000000000001658400000000000656549500000000000000009999123100000010000000000000BRRCSLACNOR4134
012024103102RCSL4       010RECRUSUL    PN           R$  000000000019500000000002000000000000180000000000019300000000001870000000000186000000000018704139000000000004560100000000000882610200000000000000009999123100000010000000000000BRRCSLACNPR1134
012024103102RDNI3       010RNI         ON      NM   R$  000000000030500000000003110000000000305000000000030700000000003070000000000306000000000030900007000000000000005900000000000001811300000000000000009999123100000010000000000000BRRDNIACNOR9116
012024103102RDOR3       010REDE D OR   ON      NM   R$  000000000294300000000029800000000002933000000000295000000000029360000000002936000000000294210672000000000004564900000000013467316900000000000000009999123100000010000000000000BRRDORACNOR8114
012024103102RECV3       010PETRORECSA  ON      NM   R$  000000000168700000000017110000000001687000000000169900000000016980000000001694000000000169807990000000000001692600000000002876430500000000000000009999123100000010000000000000BRRECVACNOR3107
012024103102TFCO4       010TRACK FIELD PN      N2   R$  000000000104500000000010450000000001015000000000103200000000010400000000001019000000000104000555000000000000188700000000000194892800000000000000009999123100000010000000000000BRTFCOACNPR8115
012024103102TGMA3       010TEGMA       ON      NM   R$  000000000292700000000029580000000002905000000000294800000000029520000000002936000000000295201676000000000000273500000000000806469500000000000000009999123100000010000000000000BRTGMAACNOR7145
012024103102TIMS3       010TIM         ON      NM   R$  000000000165000000000016730000000001642000000000165700000000016580000000001658000000000166012883000000000008703200000000014424259900000000000000009999123100000010000000000000BRTIMSACNOR5118
012024103102TOTS3       010TOTVS       ON      NM   R$  000000000294400000000030070000000002938000000000298400000000029840000000002982000000000299811062000000000008135700000000024284764700000000000000009999123100000010000000000000BRTOTSACNOR8145
012024103102JSLG3       010JSL         ON      NM   R$  000000000078600000000008120000000000786000000000079300000000007950000000000795000000000079701995000000000000733200000000000581784600000000000000009999123100000010000000000000BRJSLGACNOR2121
012024103102KEPL3       010KEPLER WEBERON      NM   R$  000000000102000000000010240000000001003000000000101200000000010150000000001009000000000101504156000000000001742900000000001765251200000000000000009999123100000010000000000000BRKEPLACNOR1064
012024103102KLBN11      010KLABIN S/A  UNT     N2   R$  000000000208600000000021310000000002082000000000209500000000020860000000002085000000000208910407000000000006634400000000013905027600000000000000009999123100000010000000000000BRKLBNCDAM18143
012024103102KLBN3       010KLABIN S/A  ON      N2   R$  000000000041600000000004290000000000414000000000042100000000004180000000000418000000000042100906000000000000466700000000000196830600000000000000009999123100000010000000000000BRKLBNACNOR2171
012024103102BMEB3       010MERCANTIL   ON      N1   R$  000000000370000000000037000000000003700000000000370000000000037000000000003500000000000369900001000000000000000100000000000000370000000000000000009999123100000010000000000000BRBMEBACNOR8206
012024103102BMEB4       010MERCANTIL   PN      N1   R$  000000000422400000000043130000000004204000000000425800000000042490000000004195000000000425000148000000000000017200000000000073247600000000000000009999123100000010000000000000BRBMEBACNPR5211
012024103102BMGB4       010BANCO BMG   PN  EJ  N1   R$  000000000041200000000004120000000000402000000000040500000000004020000000000402000000000040400791000000000000498400000000000202322900000000000000009999123100000010000000000000BRBMGBACNPR0111
012024103102BMKS3       010BIC MONARK  ON           R$  000000003090600000000313000000000030900000000003096200000000313000000000030650000000003130000003000000000000000013000000000000402506000000000000009999123100000010000000000000BRBMKSACNOR9166
012024103102MILS3       010MILLS       ON      NM   R$  000000000105100000000010680000000001048000000000105200000000010500000000001050000000000105602663000000000001022100000000001075973600000000000000009999123100000010000000000000BRMILSACNOR2128
012024103102MLAS3       010MULTILASER  ON      NM   R$  000000000016800000000001690000000000162000000000016400000000001620000000000162000000000016302885000000000001051300000000000173187700000000000000009999123100000010000000000000BRMLASACNOR9101
012024103102MNDL3       010MUNDIAL     ON           R$  000000000158000000000016500000000001580000000000159200000000016500000000001645000000000168000005000000000000004500000000000007168400000000000000009999123100000010000000000000BRMNDLACNOR4109
012024103102MNPR3       010MINUPAR     ON           R$  000000000192500000000020500000000001925000000000202300000000020300000000001936000000000203000017000000000000002200000000000004450800000000000000009999123100000010000000000000BRMNPRACNOR5122
012024103102MOAR3       010MONT ARANHA ON           R$  000000004000000000000400000000000040000000000004000000000000400000000000012100000000004357400001000000000000000100000000000004000000000000000000009999123100000010000000000000BRMOARACNOR5234
012024103102MOVI3       010MOVIDA      ON  ATZ NM   R$  000000000061600000000006280000000000600000000000060700000000006000000000000599000000000060004027000000000003150600000000001914585200000000000000009999123100000010000000000000BRMOVIACNOR0123
012024103102MRFG3       010MARFRIG     ON      NM   R$  000000000154300000000016090000000001539000000000157900000000015690000000001568000000000156916783000000000006517500000000010292565900000000000000009999123100000010000000000000BRMRFGACNOR0116
012024103102PFRM3       010PROFARMA    ON      NM   R$  000000000068000000000007180000000000670000000000069600000000007000000000000699000000000070003791000000000001518800000000001057383700000000000000009999123100000010000000000000BRPFRMACNOR1116
012024103102PGMN3       010PAGUE MENOS ON      NM   R$  000000000028600000000002950000000000285000000000029000000000002870000000000287000000000029001628000000000000876400000000000254382800000000000000009999123100000010000000000000BRPGMNACNOR8103
012024103102PINE3       010PINE        ON      N2   R$  000000000046300000000004890000000000460000000000047300000000004600000000000460000000000046500020000000000000003100000000000001467700000000000000009999123100000010000000000000BRPINEACNOR1152
012024103102PINE4       010PINE        PN      N2   R$  000000000045500000000004620000000000454000000000045700000000004600000000000454000000000046000257000000000000115900000000000052991300000000000000009999123100000010000000000000BRPINEACNPR8152
012024103102PLAS3       010PLASCAR PARTON           R$  000000000055000000000005600000000000520000000000054700000000005600000000000560000000000063000006000000000000000900000000000000493000000000000000009999123100000010000000000000BRPLASACNOR2106
012024103102BMOB3       010BEMOBI TECH ON      NM   R$  000000000154300000000015750000000001542000000000155800000000015420000000001542000000000155101516000000000000227600000000000354751000000000000000009999123100000010000000000000BRBMOBACNOR7103
012024103102BNBR3       010NORD BRASIL ON           R$  000000000998300000000099830000000009983000000000998300000000099830000000009688000000001085500003000000000000000300000000000002994900000000000000009999123100000010000000000000BRBNBRACNOR8209
012024103102BOBR4       010BOMBRIL     PN           R$  000000000027800000000002780000000000272000000000027400000000002720000000000272000000000027600043000000000000023500000000000006452400000000000000009999123100000010000000000000BRBOBRACNPR3128
012024103102BRAV3       010BRAVA       ON      NM   R$  000000000170500000000017150000000001694000000000170300000000016980000000001697000000000169810034000000000005549200000000009454330500000000000000009999123100000010000000000000BRBRAVACNOR3100
012024103102REDE3       010REDE ENERGIAON           R$  000000000068000000000006830000000000676000000000068100000000006760000000000676000000000068200007000000000000001900000000000001294800000000000000009999123100000010000000000000BRREDEACNOR7128
012024103102RENT3       010LOCALIZA    ON      NM   R$  000000000424500000000042860000000004169000000000420800000000042020000000004202000000000420714055000000000005608100000000023602709900000000000000009999123100000010000000000000BRRENTACNOR4197
012024103102TASA3       010TAURUS ARMASON      N2   R$  000000000098900000000009890000000000975000000000098200000000009750000000000974000000000098400040000000000000007200000000000007076100000000000000009999123100000010000000000000BRTASAACNOR7104
012024103102TASA4       010TAURUS ARMASPN      N2   R$  000000000094300000000009530000000000940000000000094400000000009400000000000940000000000094501097000000000000239500000000000226327300000000000000009999123100000010000000000000BRTASAACNPR4104
012024103102TCSA3       010TECNISA     ON      NM   R$  000000000013900000000001400000000000134000000000013700000000001360000000000136000000000013800222000000000000169800000000000023283800000000000000009999123100000010000000000000BRTCSAACNOR3112
012024103102TECN3       010TECHNOS     ON      NM   R$  000000000056500000000005800000000000545000000000055800000000005450000000000545000000000054600437000000000000183900000000000102698900000000000000009999123100000010000000000000BRTECNACNOR6109
012024103102TELB3       010TELEBRAS    ON           R$  000000000140500000000014050000000001400000000000140200000000014000000000001395000000000141000008000000000000001400000000000001963100000000000000009999123100000010000000000000BRTELBACNOR2140
012024103102TELB4       010TELEBRAS    PN           R$  000000000091000000000009160000000000910000000000091400000000009160000000000904000000000091900004000000000000001800000000000001646500000000000000009999123100000010000000000000BRTELBACNPR9140
012024103102TEND3       010TENDA       ON      NM   R$  000000000150600000000015200000000001480000000000149900000000015010000000001492000000000150208191000000000002455200000000003681482700000000000000009999123100000010000000000000BRTENDACNOR4111
012024103102CRFB3       010CARREFOUR BRON      NM   R$  000000000074100000000007520000000000717000000000073500000000007490000000000740000000000074913711000000000018381100000000013513830800000000000000009999123100000010000000000000BRCRFBACNOR2116
012024103102CRPG5       010CRISTAL     PNA          R$  000000000250200000000025250000000002501000000000250300000000025250000000002501000000000252500009000000000000000900000000000002253500000000000000009999123100000010000000000000BRCRPGACNPA3119
012024103102CRPG6       010CRISTAL     PNB          R$  000000000254900000000025990000000002549000000000256100000000025990000000002551000000000259900003000000000000000400000000000001024600000000000000009999123100000010000000000000BRCRPGACNPB1119
012024103102CSAN3       010COSAN       ON      NM   R$  000000000119900000000012230000000001182000000000119100000000011820000000001182000000000118309035000000000008205700000000009780711100000000000000009999123100000010000000000000BRCSANACNOR6126
012024103102ROMI3       010ROMI        ON      NM   R$  000000000100600000000010270000000001005000000000101300000000010100000000001009000000000101001048000000000000231000000000000234178700000000000000009999123100000010000000000000BRROMIACNOR8196
012024103102RSUL4       010RIOSULENSE  PN           R$  000000000601800000000060180000000005982000000000599400000000059820000000005901000000000601400010000000000000001100000000000006593800000000000000009999123100000010000000000000BRRSULACNPR3114
012024103102ELET3       010ELETROBRAS  ON      N1   R$  000000000380100000000038440000000003779000000000380100000000037970000000003796000000000379712778000000000006240900000000023722338300000000000000009999123100000010000000000000BRELETACNOR6160
012024103102ELET6       010ELETROBRAS  PNB     N1   R$  000000000421400000000042550000000004207000000000422400000000042210000000004221000000000422402923000000000000855700000000003614884700000000000000009999123100000010000000000000BRELETACNPB7077
012024103102JHSF3       010JHSF PART   ON      NM   R$  000000000044100000000004480000000000441000000000044400000000004440000000000443000000000044402762000000000002667400000000001184940800000000000000009999123100000010000000000000BRJHSFACNOR2140
012024103102VIVR3       010VIVER       ON      NM   R$  000000000015500000000001570000000000154000000000015500000000001540000000000154000000000015600051000000000000029200000000000004554400000000000000009999123100000010000000000000BRVIVRACNOR4123
012024103102VIVT3       010TELEF BRASILON           R$  000000000523600000000053270000000005236000000000527800000000052640000000005263000000000527911549000000000002609800000000013774670300000000000000009999123100000010000000000000BRVIVTACNOR0184
012024103102VLID3       010VALID       ON      NM   R$  000000000234000000000024000000000002340000000000238400000000023970000000002372000000000239902804000000000000528600000000001260375300000000000000009999123100000010000000000000BRVLIDACNOR5144
012024103102VSTE3       010VESTE       ON      NM   R$  000000000094000000000010120000000000900000000000098100000000010000000000001000000000000100100185000000000000175100000000000171866000000000000000009999123100000010000000000000BRVSTEACNOR5103
012024103102VTRU3       010VITRUEDUCA  ON      NM   R$  000000000094000000000009450000000000885000000000091000000000008850000000000884000000000089600484000000000000118600000000000107935700000000000000009999123100000010000000000000BRVTRUACNOR3100
012024103102VULC3       010VULCABRAS   ON      NM   R$  000000000166000000000016710000000001638000000000165000000000016420000000001640000000000164603713000000000000650500000000001073593500000000000000009999123100000010000000000000BRVULCACNOR2163
012024103102TAEE11      010TAESA       UNT     N2   R$  000000000347100000000035170000000003471000000000350300000000035020000000003501000000000351406603000000000001832600000000006419805100000000000000009999123100000010000000000000BRTAEECDAM10148
012024103102TAEE3       010TAESA       ON      N2   R$  000000000115100000000011640000000001150000000000115800000000011590000000001159000000000116200396000000000000086700000000000100434000000000000000009999123100000010000000000000BRTAEEACNOR9148
012024103102TAEE4       010TAESA       PN      N2   R$  000000000115500000000011700000000001155000000000116400000000011650000000001165000000000116800504000000000000129000000000000150236000000000000000009999123100000010000000000000BRTAEEACNPR6148
012024103102VBBR3       010VIBRA       ON      NM   R$  000000000223100000000022670000000002220000000000224500000000022310000000002231000000000223613040000000000009605200000000021566867800000000000000009999123100000010000000000000BRVBBRACNOR1109
012024103102VITT3       010VITTIA      ON  EJ  NM   R$  000000000055600000000005600000000000550000000000055400000000005510000000000551000000000055500855000000000000141600000000000078582500000000000000009999123100000010000000000000BRVITTACNOR4108
012024103102VIVA3       010VIVARA S.A. ON      NM   R$  000000000255800000000025860000000002527000000000255200000000025570000000002543000000000255708594000000000002192200000000005596077000000000000000009999123100000010000000000000BRVIVAACNOR0107
012024103102QUAL3       010QUALICORP   ON      NM   R$  000000000022500000000002320000000000221000000000022600000000002270000000000225000000000022704195000000000003760500000000000853104100000000000000009999123100000010000000000000BRQUALACNOR6120
012024103102RADL3       010RAIADROGASILON      NM   R$  000000000244000000000024590000000002430000000000243900000000024340000000002432000000000244810004000000000006063200000000014790511600000000000000009999123100000010000000000000BRRADLACNOR0158
012024103102SMFT3       010SMART FIT   ON      NM   R$  000000000220400000000022230000000002172000000000219700000000021850000000002182000000000219208307000000000002089400000000004590608200000000000000009999123100000010000000000000BRSMFTACNOR1112
012024103102SMTO3       010SAO MARTINHOON      NM   R$  000000000258700000000026060000000002532000000000255100000000025320000000002532000000000254604324000000000000978200000000002495746600000000000000009999123100000010000000000000BRSMTOACNOR3127
012024103102SNSY3       010SANSUY      ON           R$  000000000113000000000011300000000001130000000000113000000000011300000000001070000000000111600001000000000000000200000000000000226000000000000000009999123100000010000000000000BRSNSYACNOR2113
012024103102SOJA3       010BOA SAFRA   ON      NM   R$  000000000124800000000012530000000001230000000000124000000000012450000000001244000000000124602628000000000000486500000000000603513100000000000000009999123100000010000000000000BRSOJAACNOR9106
012024103102SRNA3       010SERENA      ON      NM   R$  000000000083400000000008450000000000821000000000083000000000008300000000000830000000000083205512000000000003016800000000002506257000000000000000009999123100000010000000000000BRSRNAACNOR4100
012024103102STBP3       010SANTOS BRP  ON  EDJ NM   R$  000000000125700000000012650000000001257000000000126100000000012630000000001257000000000126304916000000000008128500000000010255641900000000000000009999123100000010000000000000BRSTBPACNOR3133
012024103102MDNE3       010MOURA DUBEUXON      NM   R$  000000000157000000000016200000000001570000000000160100000000016040000000001604000000000160504759000000000001035700000000001658724100000000000000009999123100000010000000000000BRMDNEACNOR9100
012024103102MEAL3       010IMC S/A     ON      NM   R$  000000000013400000000001360000000000131000000000013200000000001310000000000131000000000013200153000000000000436600000000000058021500000000000000009999123100000010000000000000BRMEALACNOR9105
012024103102RAIL3       010RUMO S.A.   ON      NM   R$  000000000197100000000020070000000001971000000000199100000000019900000000001989000000000199017596000000000011654100000000023203802400000000000000009999123100000010000000000000BRRAILACNOR9105
012024103102RAIZ4       010RAIZEN      PN      N2   R$  000000000028400000000002860000000000280000000000028200000000002800000000000280000000000028124312000000000014672700000000004145856200000000000000009999123100000010000000000000BRRAIZACNPR6111
012024103102VAMO3       010VAMOS       ON      NM   R$  000000000063800000000006540000000000628000000000063700000000006290000000000628000000000062910549000000000007246200000000004620903200000000000000009999123100000010000000000000BRVAMOACNOR7105
012024103102OFSA3       010OUROFINO S/AON      NM   R$  000000000223200000000022990000000002201000000000223700000000022100000000001953000000000227000019000000000000002500000000000005593900000000000000009999123100000010000000000000BROFSAACNOR7118
012024103102ONCO3       010ONCOCLINICASON      NM   R$  000000000045400000000004600000000000448000000000045400000000004600000000000457000000000046002088000000000002863600000000001301539000000000000000009999123100000010000000000000BRONCOACNOR6101
012024103102OPCT3       010OCEANPACT   ON      NM   R$  000000000062500000000006330000000000625000000000062800000000006280000000000628000000000062902362000000000000618800000000000388610500000000000000009999123100000010000000000000BROPCTACNOR0100
012024103102ORVR3       010ORIZON      ON      NM   R$  000000000456500000000047250000000004565000000000467100000000046370000000004636000000000464902741000000000000507200000000002369214200000000000000009999123100000010000000000000BRORVRACNOR0101
012024103102PATI3       010PANATLANTICAON           R$  000000000280000000000028000000000002800000000000280000000000028000000000002350000000000299000001000000000000000100000000000000280000000000000000009999123100000010000000000000BRPATIACNOR6067
012024103102PATI4       010PANATLANTICAPN           R$  000000000310000000000031500000000003100000000000311600000000031500000000003160000000000340100003000000000000000300000000000000935000000000000000009999123100000010000000000000BRPATIACNPR3067
012024103102PCAR3       010P.ACUCAR-CBDON      NM   R$  000000000031200000000003140000000000299000000000030300000000003000000000000299000000000030005268000000000009509800000000002885107800000000000000009999123100000010000000000000BRPCARACNOR3167
012024103102PTBL3       010PORTOBELLO  ON      NM   R$  000000000042000000000004290000000000417000000000042300000000004180000000000418000000000042001179000000000000385500000000000163373100000000000000009999123100000010000000000000BRPTBLACNOR8132
012024103102PTNT3       010PETTENATI   ON  EDJ      R$  000000000093000000000009590000000000925000000000094700000000009530000000000915000000000095400010000000000000001200000000000001136600000000000000009999123100000010000000000000BRPTNTACNOR6043
012024103102PTNT4       010PETTENATI   PN  EDJ      R$  000000000061600000000006360000000000601000000000061600000000006280000000000608000000000062800050000000000000016400000000000010116100000000000000009999123100000010000000000000BRPTNTACNPR3048
012024103107NUTR3       010NUTRIPLANT  ON      MA   R$  000000000039400000000003980000000000389000000000039400000000003890000000000390000000000039300020000000000000002900000000000001143300000000000000009999123100000010000000000000BRNUTRACNOR0104
012024103107SEQL3       010SEQUOIA LOG ON      NM   R$  000000000038500000000004030000000000376000000000038900000000003800000000000379000000000038001842000000000001348900000000000524770100000000000000009999123100000010000000000000BRSEQLACNOR2103
012024103107TXRX4       010TEX RENAUX  PN           R$  000000000021500000000002150000000000215000000000021500000000002150000000000215000000000022300002000000000000000600000000000000129000000000000000009999123100000010000000000000BRTXRXACNPR0142
012024103108CTSA3       010SANTANENSE  ON           R$  000000000020300000000002030000000000203000000000020300000000002030000000000202000000000023700002000000000000000700000000000000142100000000000000009999123100000010000000000000BRCTSAACNOR3062
012024103108CTSA4       010SANTANENSE  PN           R$  000000000010600000000001060000000000106000000000010600000000001060000000000106000000000010700006000000000000008200000000000000869200000000000000009999123100000010000000000000BRCTSAACNPR0062
012024103108NEXP3       010NEXPE       ON           R$  000000000044100000000004510000000000441000000000044400000000004510000000000437000000000045100002000000000000000300000000000000133300000000000000009999123100000010000000000000BRNEXPACNOR0101
012024103108ATMP3       010ATMASA      ON           R$  000000000013600000000001360000000000134000000000013400000000001360000000000134000000000013500007000000000000002600000000000000350000000000000000009999123100000010000000000000BRATMPACNOR8100
012024103108AMER3       010AMERICANAS  ON      NM   R$  000000000038900000000003900000000000370000000000037900000000003700000000000370000000000037202037000000000002128000000000000808236700000000000000009999123100000010000000000000BRAMERACNOR6103
012024103108LIGT3       010LIGHT S/A   ON  ES  NM   R$  000000000051000000000005270000000000496000000000051200000000005110000000000510000000000051305154000000000001506700000000000772230700000000000000009999123100000010000000000000BRLIGTACNOR2125
012024103108HOOT4       010HOTEIS OTHONPN           R$  000000000023000000000002300000000000224000000000022800000000002240000000000224000000000023100007000000000000006000000000000001372000000000000000009999123100000010000000000000BRHOOTACNPR9015
012024103108AGXY3       010AGROGALAXY  ON      NM   R$  000000000004000000000000410000000000039000000000003900000000000390000000000039000000000004000181000000000000095700000000000003816100000000000000009999123100000010000000000000BRAGXYACNOR4103
012024103108PMAM3       010PARANAPANEMAON      NM   R$  000000000010000000000001050000000000096000000000010000000000000970000000000096000000000009700355000000000000454000000000000045546900000000000000009999123100000010000000000000BRPMAMACNOR3040
012024103108TEKA3       010TEKA        ON           R$  000000000425000000000042500000000004250000000000425000000000042500000000004250000000000580000002000000000000000400000000000001700000000000000000009999123100000010000000000000BRTEKAACNOR6140
012024103108RNEW11      010RENOVA      UNT     N2   R$  000000000032300000000003250000000000319000000000032000000000003190000000000314000000000032400007000000000000001500000000000000481300000000000000009999123100000010000000000000BRRNEWCDAM15110
012024103108RNEW3       010RENOVA      ON      N2   R$  000000000010500000000001080000000000105000000000010500000000001050000000000105000000000010600071000000000000041600000000000004405000000000000000009999123100000010000000000000BRRNEWACNOR8110
012024103108RNEW4       010RENOVA      PN      N2   R$  000000000010700000000001080000000000104000000000010500000000001050000000000104000000000010500128000000000000112000000000000011822400000000000000009999123100000010000000000000BRRNEWACNPR5110
012024103108RPMG3       010PET MANGUINHON           R$  000000000030300000000003050000000000296000000000030000000000002980000000000298000000000030200077000000000000013800000000000004140400000000000000009999123100000010000000000000BRRPMGACNOR9194
012024103108RSID3       010ROSSI RESID ON      NM   R$  000000000030000000000003030000000000291000000000029700000000003000000000000292000000000030000057000000000000026100000000000007752100000000000000009999123100000010000000000000BRRSIDACNOR8120
012024103108JFEN3       010JOAO FORTES ON           R$  000000000002700000000000280000000000025000000000002600000000000260000000000025000000000002600147000000000000981000000000000025638700000000000000009999123100000010000000000000BRJFENACNOR0059
012024103108OIBR3       010OI          ON      N1   R$  000000000045400000000004550000000000449000000000045100000000004490000000000449000000000045300716000000000000189300000000000085422600000000000000009999123100000010000000000000BROIBRACNOR1112
012024103108OIBR4       010OI          PN      N1   R$  000000000107400000000011000000000001074000000000109700000000011000000000001100000000000113500009000000000000003400000000000003732000000000000000009999123100000010000000000000BROIBRACNPR8111
012024103108OSXB3       010OSX BRASIL  ON      NM   R$  000000000045800000000004600000000000431000000000044700000000004310000000000431000000000045900013000000000000002100000000000000940600000000000000009999123100000010000000000000BROSXBACNOR8109
012024103110LIGT11      010LIGHT S/A   DIR     NM   R$  000000000005000000000000750000000000030000000000004700000000000650000000000030000000000006500840000000000000670900000000000031637600000000000000009999123100000010000000000000BRLIGTD01M16124
012024103110LIGT13      010LIGHT S/A   DIR     NM   R$  000000000004000000000000560000000000030000000000003700000000000500000000000032000000000005000459000000000000448700000000000016929300000000000000009999123100000010000000000000BRLIGTD02M15124
012024103110HBSA1       010HIDROVIAS   DIR ORD NM   R$  000000000000100000000000020000000000001000000000000100000000000020000000000001000000000000200037000000000000161800000000000000169000000000000000009999123100000010000000000000BRHBSAD01OR5100
012024103110MBLY1       010MOBLY       DIR ORD NM   R$  000000000000100000000000010000000000001000000000000100000000000010000000000000000000000000100012000000000000003900000000000000003900000000000000009999123100000010000000000000BRMBLYD01OR0100
012024103110MBLY11      010MOBLY       DIR     NM   R$  000000000001500000000000150000000000007000000000001000000000000130000000000009000000000001300028000000000000022800000000000000233200000000000000009999123100000010000000000000BRMBLYD01M18100
012024103110PINE1       010PINE        DIR ORD N2   R$  000000000001500000000000170000000000009000000000001200000000000120000000000012000000000001400094000000000000065600000000000000800900000000000000009999123100000010000000000000BRPINED04OR0150
012024103110PINE2       010PINE        DIR PRE N2   R$  000000000003000000000000300000000000021000000000002500000000000210000000000021000000000002900013000000000000001300000000000000033600000000000000009999123100000010000000000000BRPINED06PR2150
012024103112BCIA11      010FII BCIA    CI           R$  000000000920800000000092360000000009068000000000916600000000090680000000009068000000000914100999000000000000007508000000000068822798000000000000009999123100000010000000000000BRBCIACTF005214
012024103112BCRI11      010FII BEES CRICI           R$  000000000638300000000065000000000006317000000000640300000000064740000000006458000000000647401204000000000000009731000000000062313493000000000000009999123100000010000000000000BRBCRICTF009219
012024103112RBRL11      010FII RBR LOG CI           R$  000000000711900000000071190000000007030000000000707600000000071170000000007117000000000713901583000000000000011603000000000082105693000000000000009999123100000010000000000000BRRBRLCTF001158
012024103112RBRP11      010FII RBR PROPCI           R$  000000000523100000000053400000000005200000000000526300000000052000000000005200000000000522904106000000000000025184000000000132566873000000000000009999123100000010000000000000BRRBRPCTF002177
012024103112RBRR11      010FII RBRHGRADCI           R$  000000000839700000000086090000000008357000000000844300000000086090000000008550000000000860905957000000000000026158000000000220869670000000000000009999123100000010000000000000BRRBRRCTF008184
012024103112RBRS11      010FII RIOB RR CI           R$  000000000410100000000042500000000004101000000000423000000000042500000000004101000000000425000007000000000000000381000000000001611800000000000000009999123100000010000000000000BRRBRSCTF006138
012024103112RBRX11      010FII RBR MULTCI           R$  000000000084300000000008590000000000843000000000085000000000008560000000000856000000000085802958000000000000048747000000000041443253000000000000009999123100000010000000000000BRRBRXCTF006133
012024103112CNES11      010FII CENESP  CI  ER       R$  000000000013100000000001330000000000129000000000013000000000001300000000000130000000000013100526000000000000039738000000000005204349000000000000009999123100000010000000000000BRCNESCTF001264
012024103112VVCO11      010FII V2EDCORPCI           R$  000000000128300000000012930000000001283000000000128400000000012930000000001292000000000129400007000000000000000308000000000000395505000000000000009999123100000010000000000000BRVVCOCTF007101
012024103112VVCR11      010FII V2 RECE CI           R$  000000000094900000000009500000000000940000000000094400000000009450000000000940000000000094500018000000000000000561000000000000529939000000000000009999123100000010000000000000BRVVCRCTF000120
012024103112VVMR11      010FII MULT RENCI           R$  000000000869600000000087500000000008092000000000869400000000086970000000008634000000000000000066000000000000004736000000000041177980000000000000009999123100000010000000000000BRVVMRCTF009109
012024103112VVRI11      010FII V2 RENDACI           R$  000000000985000000000099000000000009849000000000986700000000099000000000009400000000001001000095000000000000000141000000000001391328000000000000009999123100000010000000000000BRVVRICTF007120
012024103112DAMA11      010FII DAMA    CI           R$  000000000095000000000009800000000000910000000000093200000000009800000000000910000000000098000016000000000000001055000000000000983750000000000000009999123100000010000000000000BRDAMACTF007105
012024103112DAMT11      010FII DIAMANTECI           R$  000000000082000000000008200000000000820000000000082000000000008200000000000820000000000101800004000000000000000018000000000000014760000000000000009999123100000010000000000000BRDAMTCTF007117
012024103112DEVA11      010FII DEVANT  CI           R$  000000000329700000000033030000000003256000000000328400000000033000000000003290000000000330001677000000000000033731000000000110781797000000000000009999123100000010000000000000BRDEVACTF000153
012024103112RBDS11      010FII RBRESID2CI           R$  000000000029200000000002940000000000292000000000029300000000002940000000000265000000000029500002000000000000000002000000000000000586000000000000009999123100000010000000000000BRRBDSCTF006179
012024103112RBED11      010FII RIOB ED CI           R$  000000001269800000000127850000000012512000000001266200000000126100000000012600000000001261000124000000000000001382000000000017500054000000000000009999123100000010000000000000BRRBEDCTF006168
012024103112RBFF11      010FII RIOB FF CI           R$  000000000528200000000053420000000005282000000000530200000000052910000000005291000000000530500574000000000000007047000000000037363732000000000000009999123100000010000000000000BRRBFFCTF008164
012024103112RBHG11      010FII RBCRI IVCI           R$  000000000824800000000082490000000008100000000000816300000000081360000000008136000000000816500252000000000000002553000000000020840981000000000000009999123100000010000000000000BRRBHGCTF002138
012024103112RBHY11      010FII RB YIELDCI           R$  000000000849700000000085890000000008437000000000851200000000085000000000008500000000000850400113000000000000001711000000000014564353000000000000009999123100000010000000000000BRRBHYCTF005148
012024103112RBIR11      010FII RBRES IVCI           R$  000000000818100000000083480000000008117000000000822600000000083480000000008348000000000834900134000000000000002557000000000021034149000000000000009999123100000010000000000000BRRBIRCTF007113
012024103112RBLG11      010FII RBCAP LGCI           R$  000000000607500000000061490000000006075000000000611200000000061490000000005550000000000739500002000000000000000002000000000000012224000000000000009999123100000010000000000000BRRBLGCTF004150
012024103112RBOP11      010FII MERC BR CI           R$  000000003779900000000377990000000036936000000003723300000000371010000000037100000000003734000008000000000000000021000000000000781896000000000000009999123100000010000000000000BRRBOPCTF009125
012024103112RBRD11      010FII RB II   CI           R$  000000000363100000000037820000000003631000000000374200000000037780000000003734000000000377800067000000000000000693000000000002593273000000000000009999123100000010000000000000BRRBRDCTF008267
012024103112RBRF11      010FII RBRALPHACI           R$  000000000068000000000006990000000000678000000000069000000000006910000000000691000000000069409569000000000000402366000000000277773500000000000000009999123100000010000000000000BRRBRFCTF003191
012024103112DPRO11      010FII DEVA PROCI           R$  000000000069000000000007200000000000605000000000065300000000006900000000000689000000000071100059000000000000000227000000000000148376000000000000009999123100000010000000000000BRDPROCTF005128
012024103112DRIT11      010FII MTGESTAOCI           R$  000000001012900000000101290000000009157000000001000100000000100000000000007859000000001180000006000000000000000045000000000000450060000000000000009999123100000010000000000000BRDRITCTF009257
012024103112DVFF11      010FII DEVA FOFCI           R$  000000000069500000000007000000000000669000000000067800000000006990000000000680000000000069900246000000000000008109000000000005503426000000000000009999123100000010000000000000BRDVFFCTF006142
012024103112GRUL11      010FII GRUL    CI           R$  000000000086000000000009080000000000851000000000086800000000008870000000000868000000000088700834000000000000030904000000000026838078000000000000009999123100000010000000000000BRGRULCTF004100
012024103112GSFI11      010FII GENERAL CI           R$  000000000077900000000007800000000000766000000000077800000000007800000000000766000000000078000120000000000000015086000000000011749663000000000000009999123100000010000000000000BRGSFICTF009103
012024103112GTWR11      010FII G TOWERSCI           R$  000000000748000000000075780000000007471000000000750800000000075010000000007499000000000750100964000000000000012415000000000093216407000000000000009999123100000010000000000000BRGTWRCTF003167
012024103112GZIT11      010FII GAZIT   CI  ER       R$  000000000484300000000049310000000004759000000000483300000000048310000000004817000000000483100236000000000000007402000000000035776869000000000000009999123100000010000000000000BRGZITCTF005112
012024103112CACR11      010CARTESIA FIICI           R$  000000001017000000000101700000000010026000000001009600000000100980000000010089000000001009802350000000000000014401000000000145394232000000000000009999123100000010000000000000BRCACRCTF004137
012024103112CARE11      010FII DEA CARECI           R$  000000000013900000000001440000000000133000000000014100000000001440000000000137000000000014400167000000000000042726000000000006046119000000000000009999123100000010000000000000BRCARECTF000112
012024103112CBOP11      010FII CBOP PAXCI           R$  000000000242600000000024260000000002425000000000242500000000024250000000002425000000000242700003000000000000000333000000000000807847000000000000009999123100000010000000000000BRCBOPCTF001234
012024103112CCME11      010FII CANUMA  CI           R$  000000000091800000000009530000000000915000000000093500000000009220000000000922000000000093408846000000000000063109000000000059055442000000000000009999123100000010000000000000BRCCMECTF007127
012024103112CTXT11      010FII C TEXTILCI           R$  000000000071200000000007230000000000697000000000070200000000006990000000000699000000000072200020000000000000000108000000000000075819000000000000009999123100000010000000000000BRCTXTCTF014207
012024103112CVBI11      010FII VBI CRI CI           R$  000000000870100000000087830000000008628000000000870300000000087300000000008730000000000875903045000000000000020543000000000178802570000000000000009999123100000010000000000000BRCVBICTF001170
012024103112RZAK11      010FII RIZA AKNCI           R$  000000000780600000000078690000000007800000000000783700000000078220000000007822000000000782902242000000000000017069000000000133777343000000000000009999123100000010000000000000BRRZAKCTF008148
