00COTAHIST.2024BOVESPA 20241022                                                                                                                                                                                                                      
012024102202EMBR3       010EMBRAER     ON      NM   R$  000000000499700000000050050000000004862000000000495100000000049630000000004963000000000497320178000000000005021200000000024864451300000000000000009999123100000010000000000000BREMBRACNOR4191
012024102202KLBN11      010KLABIN S/A  UNT     N2   R$  000000000205100000000020970000000002051000000000207800000000020770000000002075000000000208511533000000000003122800000000006492063600000000000000009999123100000010000000000000BRKLBNCDAM18143
012024102202KLBN3       010KLABIN S/A  ON      N2   R$  000000000041900000000004200000000000412000000000041600000000004180000000000416000000000041800512000000000000209500000000000087324700000000000000009999123100000010000000000000BRKLBNACNOR2171
012024102202KLBN4       010KLABIN S/A  PN      N2   R$  000000000041200000000004190000000000411000000000041500000000004160000000000415000000000041601223000000000000944500000000000392206700000000000000009999123100000010000000000000BRKLBNACNPR9171
012024102202KRSA3       010KORA SAUDE  ON  EG  NM   R$  000000000047700000000004800000000000474000000000047600000000004780000000000477000000000047800020000000000000016000000000000007622500000000000000009999123100000010000000000000BRKRSAACNOR0101
012024102202BPAN4       010BANCO PAN   PN      N1   R$  000000000090900000000009140000000000889000000000089700000000008970000000000897000000000089804487000000000001287600000000001155264600000000000000009999123100000010000000000000BRBPANACNPR1115
012024102202BRAP3       010BRADESPAR   ON      N1   R$  000000000177100000000017720000000001756000000000176500000000017720000000001770000000000177300171000000000000026700000000000047127700000000000000009999123100000010000000000000BRBRAPACNOR5148
012024102202BRAP4       010BRADESPAR   PN      N1   R$  000000000190100000000019140000000001888000000000189900000000019080000000001907000000000190907503000000000002933600000000005573039000000000000000009999123100000010000000000000BRBRAPACNPR2148
012024102202CRPG5       010CRISTAL     PNA          R$  000000000251700000000025230000000002517000000000252000000000025200000000002520000000000255000006000000000000001200000000000003024000000000000000009999123100000010000000000000BRCRPGACNPA3119
012024102202CRPG6       010CRISTAL     PNB          R$  000000000259900000000025990000000002524000000000256400000000025700000000002525000000000259900003000000000000000300000000000000769300000000000000009999123100000010000000000000BRCRPGACNPB1119
012024102202CSAN3       010COSAN       ON      NM   R$  000000000117100000000011730000000001149000000000116100000000011690000000001167000000000116919701000000000012296700000000014281582000000000000000009999123100000010000000000000BRCSANACNOR6126
012024102202CSUD3       010CSU DIGITAL ON      NM   R$  000000000170200000000017020000000001666000000000167500000000016770000000001675000000000167700140000000000000019100000000000032008400000000000000009999123100000010000000000000BRCSUDACNOR5111
012024102202CTKA3       010KARSTEN     ON           R$  000000000181000000000019990000000001810000000000185700000000019990000000001811000000000200000002000000000000000400000000000000742900000000000000009999123100000010000000000000BRCTKAACNOR0043
012024102202CTKA4       010KARSTEN     PN           R$  000000000189900000000021000000000001899000000000199000000000020000000000001781000000000200000009000000000000002200000000000004379900000000000000009999123100000010000000000000BRCTKAACNPR7043
012024102202CURY3       010CURY S/A    ON      NM   R$  000000000233900000000023770000000002321000000000236100000000023380000000002336000000000235409490000000000002744900000000006481273900000000000000009999123100000010000000000000BRCURYACNOR3110
012024102202CVCB3       010CVC BRASIL  ON      NM   R$  000000000018900000000001910000000000184000000000018600000000001880000000000188000000000018904728000000000014120100000000002639502600000000000000009999123100000010000000000000BRCVCBACNOR1116
012024102202MATD3       010MATER DEI   ON      NM   R$  000000000043300000000004350000000000423000000000042800000000004330000000000433000000000043500498000000000000250300000000000107354300000000000000009999123100000010000000000000BRMATDACNOR4104
012024102202MBLY3       010MOBLY       ON      NM   R$  000000000020500000000002090000000000202000000000020500000000002060000000000206000000000020700342000000000000452900000000000093247400000000000000009999123100000010000000000000BRMBLYACNOR5100
012024102202FESA4       010FERBASA     PN      N1   R$  000000000076700000000007700000000000743000000000075200000000007440000000000744000000000074603304000000000000902600000000000679313600000000000000009999123100000010000000000000BRFESAACNPR5085
012024102202FHER3       010FER HERINGERON      NM   R$  000000000037100000000003710000000000371000000000037100000000003710000000000371000000000037800003000000000000001000000000000000371000000000000000009999123100000010000000000000BRFHERACNOR5103
012024102202FIEI3       010FICA        ON           R$  000000000115000000000011500000000001150000000000115000000000011500000000000927000000000115000010000000000000010000000000000011500000000000000000009999123100000010000000000000BRFIEIACNOR2100
012024102202FIQE3       010UNIFIQUE    ON      NM   R$  000000000038500000000003870000000000380000000000038200000000003850000000000384000000000038500532000000000000172100000000000065779800000000000000009999123100000010000000000000BRFIQEACNOR5107
012024102202FLRY3       010FLEURY      ON      NM   R$  000000000148000000000015180000000001479000000000150400000000015120000000001510000000000151409372000000000003220000000000004845551300000000000000009999123100000010000000000000BRFLRYACNOR5139
012024102202FRAS3       010FRAS-LE     ON      N1   R$  000000000224900000000022490000000002215000000000222900000000022330000000002233000000000224001319000000000000197600000000000440633600000000000000009999123100000010000000000000BRFRASACNOR0160
012024102202FRIO3       010METALFRIO   ON      NM   R$  000000001120000000000119920000000011200000000001195700000000119920000000009600000000001200000021000000000000008400000000000100446800000000000000009999123100000010000000000000BRFRIOACNOR2111
012024102202ITSA3       010ITAUSA      ON      N1   R$  000000000105900000000010630000000001046000000000105800000000010580000000001058000000000105900315000000000000110400000000000116814500000000000000009999123100000010000000000000BRITSAACNOR0443
012024102202ITSA4       010ITAUSA      PN      N1   R$  000000000105300000000010630000000001052000000000105800000000010630000000001062000000000106417404000000000014095900000000014922999500000000000000009999123100000010000000000000BRITSAACNPR7443
012024102202MDIA3       010M.DIASBRANCOON      NM   R$  000000000251700000000025440000000002462000000000249400000000025080000000002488000000000250804298000000000000930600000000002321433900000000000000009999123100000010000000000000BRMDIAACNOR7136
012024102202MDNE3       010MOURA DUBEUXON      NM   R$  000000000151400000000015160000000001482000000000149400000000014970000000001491000000000149701486000000000000331100000000000494700100000000000000009999123100000010000000000000BRMDNEACNOR9100
012024102202MEAL3       010IMC S/A     ON      NM   R$  000000000013700000000001390000000000135000000000013600000000001370000000000137000000000013800101000000000000223800000000000030526300000000000000009999123100000010000000000000BRMEALACNOR9105
012024102202MELK3       010MELNICK     ON      NM   R$  000000000036100000000003610000000000355000000000035600000000003550000000000355000000000035700336000000000000229600000000000081802500000000000000009999123100000010000000000000BRMELKACNOR8111
012024102202MGEL4       010MANGELS INDLPN           R$  000000000085200000000008520000000000852000000000085200000000008520000000000810000000000086200001000000000000000100000000000000085200000000000000009999123100000010000000000000BRMGELACNPR3147
012024102202MGLU3       010MAGAZ LUIZA ON      NM   R$  000000000095700000000009810000000000915000000000093700000000009300000000000929000000000093024338000000000031399000000000029449027100000000000000009999123100000010000000000000BRMGLUACNOR2125
012024102202BEEF3       010MINERVA     ON      NM   R$  000000000055900000000005590000000000548000000000055200000000005540000000000554000000000055509466000000000006465600000000003572789100000000000000009999123100000010000000000000BRBEEFACNOR6116
012024102202ALUP11      010ALUPAR      UNT     N2   R$  000000000291100000000029220000000002893000000000290300000000028980000000002898000000000290002441000000000000477800000000001387162700000000000000009999123100000010000000000000BRALUPCDAM15120
012024102202ALUP3       010ALUPAR      ON      N2   R$  000000000098600000000010020000000000982000000000098700000000010020000000000987000000000100600028000000000000004800000000000004741400000000000000009999123100000010000000000000BRALUPACNOR8120
012024102202ALUP4       010ALUPAR      PN      N2   R$  000000000096100000000009630000000000950000000000095400000000009500000000000950000000000095400096000000000000017100000000000016328000000000000000009999123100000010000000000000BRALUPACNPR5120
012024102202AMAR3       010LOJAS MARISAON      NM   R$  000000000009800000000000980000000000096000000000009700000000000960000000000096000000000009700422000000000000154600000000000014998300000000000000009999123100000010000000000000BRAMARACNOR4115
012024102202AMBP3       010AMBIPAR     ON      NM   R$  000000001380900000000138100000000013303000000001349500000000133300000000013330000000001339800753000000000000112200000000001514211900000000000000009999123100000010000000000000BRAMBPACNOR6103
012024102202ANIM3       010ANIMA       ON      NM   R$  000000000024600000000002510000000000240000000000024300000000002460000000000245000000000024606813000000000006333600000000001545185400000000000000009999123100000010000000000000BRANIMACNOR6109
012024102202SANB11      010SANTANDER BRUNT EDJ      R$  000000000284500000000028490000000002812000000000282400000000028190000000002819000000000282407147000000000001966700000000005555441100000000000000009999123100000010000000000000BRSANBCDAM13166
012024102202SANB3       010SANTANDER BRON  EDJ      R$  000000000135800000000013580000000001340000000000134600000000013470000000001346000000000134700277000000000000050800000000000068379300000000000000009999123100000010000000000000BRSANBACNOR8173
012024102202SANB4       010SANTANDER BRPN  EDJ      R$  000000000148000000000014930000000001473000000000148000000000014760000000001476000000000148400292000000000000059900000000000088674000000000000000009999123100000010000000000000BRSANBACNPR5173
012024102202TTEN3       0103TENTOS     ON      NM   R$  000000000101900000000010270000000001012000000000102000000000010220000000001022000000000102502928000000000000470600000000000480117400000000000000009999123100000010000000000000BRTTENACNOR0103
012024102202TUPY3       010TUPY        ON      NM   R$  000000000233600000000023410000000002310000000000231800000000023210000000002321000000000232303138000000000000845200000000001959247400000000000000009999123100000010000000000000BRTUPYACNOR1184
012024102202UCAS3       010UNICASA     ON      NM   R$  000000000021700000000002180000000000213000000000021400000000002130000000000213000000000021400073000000000000027700000000000005955000000000000000009999123100000010000000000000BRUCASACNOR1113
012024102202UGPA3       010ULTRAPAR    ON      NM   R$  000000000207600000000020820000000002031000000000204500000000020320000000002032000000000203511293000000000004745700000000009709682400000000000000009999123100000010000000000000BRUGPAACNOR8156
012024102202UNIP3       010UNIPAR      ON           R$  000000000464000000000047080000000004510000000000460000000000046310000000004590000000000466600071000000000000009400000000000043244900000000000000009999123100000010000000000000BRUNIPACNOR7206
012024102202RECV3       010PETRORECSA  ON      NM   R$  000000000171600000000017190000000001687000000000170100000000017000000000001700000000000170106213000000000002295000000000003904928400000000000000009999123100000010000000000000BRRECVACNOR3107
012024102202REDE3       010REDE ENERGIAON           R$  000000000069100000000006910000000000681000000000068600000000006810000000000681000000000068600007000000000000001000000000000000686100000000000000009999123100000010000000000000BRREDEACNOR7128
012024102202RENT3       010LOCALIZA    ON      NM   R$  000000000422500000000042560000000004187000000000423400000000042550000000004250000000000425519475000000000004655700000000019716854500000000000000009999123100000010000000000000BRRENTACNOR4197
012024102202TASA3       010TAURUS ARMASON      N2   R$  000000000100700000000010350000000001007000000000101800000000010350000000001014000000000103600057000000000000010600000000000010800700000000000000009999123100000010000000000000BRTASAACNOR7104
012024102202TASA4       010TAURUS ARMASPN      N2   R$  000000000099700000000010020000000000992000000000099400000000009940000000000994000000000099600802000000000000152300000000000151523500000000000000009999123100000010000000000000BRTASAACNPR4104
012024102202TCSA3       010TECNISA     ON      NM   R$  000000000015500000000001560000000000141000000000014900000000001430000000000143000000000014600259000000000000199800000000000029885900000000000000009999123100000010000000000000BRTCSAACNOR3112
012024102202TECN3       010TECHNOS     ON      NM   R$  000000000052200000000005700000000000522000000000054400000000005650000000000561000000000056500498000000000000315300000000000171674500000000000000009999123100000010000000000000BRTECNACNOR6109
012024102202TELB3       010TELEBRAS    ON           R$  000000000141400000000014140000000001401000000000141000000000014010000000001386000000000144000002000000000000000400000000000000564300000000000000009999123100000010000000000000BRTELBACNOR2140
012024102202TELB4       010TELEBRAS    PN           R$  000000000093000000000009300000000000925000000000092500000000009250000000000916000000000092500005000000000000004500000000000004164000000000000000009999123100000010000000000000BRTELBACNPR9140
012024102202TEND3       010TENDA       ON      NM   R$  000000000142900000000014500000000001410000000000142500000000014260000000001420000000000142705396000000000001530100000000002180593100000000000000009999123100000010000000000000BRTENDACNOR4111
012024102202TFCO4       010TRACK FIELD PN      N2   R$  000000000103900000000010580000000001035000000000105200000000010570000000001046000000000105700304000000000000088800000000000093469300000000000000009999123100000010000000000000BRTFCOACNPR8115
012024102202TGMA3       010TEGMA       ON      NM   R$  000000000273200000000028360000000002712000000000278700000000028360000000002828000000000283601470000000000000369500000000001030137100000000000000009999123100000010000000000000BRTGMAACNOR7145
012024102202TIMS3       010TIM         ON      NM   R$  000000000171800000000017290000000001708000000000171700000000017210000000001716000000000172212044000000000004534200000000007788098300000000000000009999123100000010000000000000BRTIMSACNOR5118
012024102202TOTS3       010TOTVS       ON      NM   R$  000000000287000000000029030000000002860000000000288100000000028850000000002883000000000289514575000000000003580100000000010315306700000000000000009999123100000010000000000000BRTOTSACNOR8145
012024102202TPIS3       010TRIUNFO PARTON      NM   R$  000000000066500000000006970000000000632000000000066000000000006630000000000663000000000066700562000000000000170800000000000112739100000000000000009999123100000010000000000000BRTPISACNOR8118
012024102202TRAD3       010TC          ON      NM   R$  000000000060900000000006180000000000592000000000060300000000005980000000000598000000000060700738000000000000189100000000000114146600000000000000009999123100000010000000000000BRTRADACNOR3102
012024102202TRIS3       010TRISUL      ON      NM   R$  000000000052100000000005320000000000517000000000052200000000005230000000000520000000000052401715000000000000539400000000000281711400000000000000009999123100000010000000000000BRTRISACNOR4118
012024102202TRPL3       010TRAN PAULISTON      N1   R$  000000000311500000000031150000000003101000000000311000000000031010000000003101000000000311400004000000000000000900000000000002799300000000000000009999123100000010000000000000BRTRPLACNOR4185
012024102202TRPL4       010TRAN PAULISTPN      N1   R$  000000000245000000000024550000000002432000000000244300000000024500000000002445000000000245005185000000000001058500000000002586509200000000000000009999123100000010000000000000BRTRPLACNPR1185
012024102202ARML3       010ARMAC       ON      NM   R$  000000000079200000000008020000000000770000000000077500000000007700000000000770000000000077302902000000000000856900000000000664662500000000000000009999123100000010000000000000BRARMLACNOR1113
012024102202ASAI3       010ASSAI       ON      NM   R$  000000000071800000000007400000000000713000000000072600000000007290000000000729000000000073023425000000000018598400000000013514696100000000000000009999123100000010000000000000BRASAIACNOR0106
012024102202ODPV3       010ODONTOPREV  ON      NM   R$  000000000106000000000010710000000001049000000000105900000000010690000000001069000000000107203862000000000000631500000000000668867300000000000000009999123100000010000000000000BRODPVACNOR4204
012024102202OFSA3       010OUROFINO S/AON      NM   R$  000000000215900000000021590000000002116000000000215200000000021500000000001960000000000216000007000000000000004500000000000009684300000000000000009999123100000010000000000000BROFSAACNOR7118
012024102202ONCO3       010ONCOCLINICASON      NM   R$  000000000047800000000004830000000000457000000000046400000000004640000000000464000000000046503398000000000001745400000000000810924100000000000000009999123100000010000000000000BRONCOACNOR6101
012024102202OPCT3       010OCEANPACT   ON      NM   R$  000000000065300000000006570000000000643000000000064800000000006490000000000644000000000064901797000000000000428600000000000277770200000000000000009999123100000010000000000000BROPCTACNOR0100
012024102202ORVR3       010ORIZON      ON      NM   R$  000000000463200000000047940000000004600000000000473300000000047810000000004767000000000478103044000000000000539700000000002554627000000000000000009999123100000010000000000000BRORVRACNOR0101
012024102202EKTR4       010ELEKTRO     PN           R$  000000000454400000000045450000000004459000000000453500000000044590000000004321000000000454400026000000000000004400000000000019957300000000000000009999123100000010000000000000BREKTRACNPR7165
012024102202GRND3       010GRENDENE    ON      NM   R$  000000000053000000000005310000000000525000000000052800000000005310000000000528000000000053101852000000000000659500000000000348310400000000000000009999123100000010000000000000BRGRNDACNOR3175
012024102202GUAR3       010GUARARAPES  ON      NM   R$  000000000080200000000008070000000000784000000000079000000000007890000000000786000000000079102800000000000000639600000000000505915900000000000000009999123100000010000000000000BRGUARACNOR4173
012024102202HAGA3       010HAGA S/A    ON           R$  000000000025900000000002590000000000259000000000025900000000002590000000000246000000000025900001000000000000000100000000000000025900000000000000009999123100000010000000000000BRHAGAACNOR7103
012024102202HAGA4       010HAGA S/A    PN           R$  000000000013200000000001330000000000128000000000013000000000001310000000000129000000000013100012000000000000002800000000000000364500000000000000009999123100000010000000000000BRHAGAACNPR4103
012024102202HAPV3       010HAPVIDA     ON      NM   R$  000000000036000000000003690000000000351000000000035900000000003690000000000366000000000036959229000000000102730700000000036918430500000000000000009999123100000010000000000000BRHAPVACNOR4115
012024102202JALL3       010JALLESMACHADON      NM   R$  000000000061300000000006190000000000608000000000061000000000006100000000000610000000000061201226000000000000389200000000000237760100000000000000009999123100000010000000000000BRJALLACNOR0106
012024102202JBSS3       010JBS         ON      NM   R$  000000000347100000000035200000000003436000000000348900000000035200000000003520000000000352123158000000000004921300000000017172651300000000000000009999123100000010000000000000BRJBSSACNOR8122
012024102202MILS3       010MILLS       ON      NM   R$  000000000105200000000010590000000001035000000000105100000000010580000000001057000000000105903316000000000001146200000000001204695800000000000000009999123100000010000000000000BRMILSACNOR2128
012024102202MLAS3       010MULTILASER  ON      NM   R$  000000000015800000000001600000000000154000000000015600000000001550000000000155000000000015704630000000000001911800000000000298561100000000000000009999123100000010000000000000BRMLASACNOR9101
012024102202MNDL3       010MUNDIAL     ON           R$  000000000165600000000016600000000001600000000000160900000000016000000000001600000000000165000006000000000000003700000000000005954800000000000000009999123100000010000000000000BRMNDLACNOR4109
012024102202RADL3       010RAIADROGASILON      NM   R$  000000000250700000000025430000000002496000000000251800000000025260000000002526000000000253815953000000000006632700000000016702253500000000000000009999123100000010000000000000BRRADLACNOR0158
012024102202QUAL3       010QUALICORP   ON      NM   R$  000000000021700000000002230000000000211000000000021500000000002130000000000212000000000021403368000000000004661500000000001006747000000000000000009999123100000010000000000000BRQUALACNOR6120
012024102202SMFT3       010SMART FIT   ON      NM   R$  000000000214600000000021630000000002115000000000213800000000021350000000002135000000000214008736000000000002048000000000004379096000000000000000009999123100000010000000000000BRSMFTACNOR1112
012024102202SMTO3       010SAO MARTINHOON      NM   R$  000000000258100000000026300000000002570000000000259500000000025940000000002586000000000259406326000000000001072700000000002783738700000000000000009999123100000010000000000000BRSMTOACNOR3127
012024102202WEST3       010WESTWING    ON      NM   R$  000000000008000000000000810000000000079000000000008000000000000790000000000079000000000008100022000000000000011100000000000000892800000000000000009999123100000010000000000000BRWESTACNOR3100
012024102202WHRL3       010WHIRLPOOL   ON           R$  000000000041300000000004150000000000410000000000041100000000004150000000000411000000000041400010000000000000001600000000000000658300000000000000009999123100000010000000000000BRWHRLACNOR5129
012024102202CPFE3       010CPFL ENERGIAON      NM   R$  000000000326000000000032860000000003240000000000326100000000032730000000003273000000000328604787000000000004356100000000014208171300000000000000009999123100000010000000000000BRCPFEACNOR0137
012024102202CPLE3       010COPEL       ON      N2   R$  000000000088800000000008920000000000878000000000088400000000008870000000000885000000000088807340000000000005255600000000004646333800000000000000009999123100000010000000000000BRCPLEACNOR8150
012024102202CPLE5       010COPEL       PNA     N2   R$  000000000118500000000011850000000001185000000000118500000000011850000000001100000000000120000003000000000000000600000000000000711000000000000000009999123100000010000000000000BRCPLEACNPA1148
012024102202CPLE6       010COPEL       PNB     N2   R$  000000000099100000000009930000000000980000000000098700000000009890000000000988000000000099022300000000000015822900000000015627068400000000000000009999123100000010000000000000BRCPLEACNPB9147
012024102202CRFB3       010CARREFOUR BRON      NM   R$  000000000069000000000007060000000000675000000000069100000000007060000000000702000000000070615302000000000015916300000000011004599300000000000000009999123100000010000000000000BRCRFBACNOR2116
012024102202ESPA3       010ESPACOLASER ON      NM   R$  000000000009500000000000960000000000093000000000009400000000000930000000000093000000000009500080000000000000155500000000000014669200000000000000009999123100000010000000000000BRESPAACNOR7103
012024102202ESTR4       010ESTRELA     PN           R$  000000000031800000000003600000000000318000000000033900000000003600000000000322000000000036000002000000000000000200000000000000067800000000000000009999123100000010000000000000BRESTRACNPR0144
012024102202ETER3       010ETERNIT     ON      NM   R$  000000000053000000000005320000000000519000000000052400000000005300000000000524000000000053000357000000000000119100000000000062445900000000000000009999123100000010000000000000BRETERACNOR3244
012024102202EUCA3       010EUCATEX     ON      N1   R$  000000000162800000000016280000000001628000000000162800000000016280000000001606000000000168000001000000000000000100000000000000162800000000000000009999123100000010000000000000BREUCAACNOR1157
012024102202EUCA4       010EUCATEX     PN      N1   R$  000000000143100000000014600000000001428000000000143600000000014480000000001430000000000144900185000000000000024300000000000034917400000000000000009999123100000010000000000000BREUCAACNPR8044
012024102202EVEN3       010EVEN        ON      NM   R$  000000000062700000000006270000000000607000000000061300000000006100000000000610000000000061403901000000000000655100000000000401661300000000000000009999123100000010000000000000BREVENACNOR8120
012024102202EZTC3       010EZTEC       ON      NM   R$  000000000139300000000013950000000001336000000000135400000000013410000000001340000000000134305913000000000001659700000000002247739500000000000000009999123100000010000000000000BREZTCACNOR0126
012024102202IFCM3       010INFRACOMM   ON      NM   R$  000000000001400000000000150000000000012000000000001300000000000130000000000012000000000001303773000000000036674400000000000488577500000000000000009999123100000010000000000000BRIFCMACNOR8101
012024102202EPAR3       010EMBPAR S/A  ON           R$  000000000057500000000005770000000000558000000000057500000000005760000000000558000000000057600018000000000000005000000000000002875400000000000000009999123100000010000000000000BREPARACNOR9105
012024102202EQMA3B      010EQTLMARANHAOON      MB   R$  000000000242900000000024290000000002429000000000242900000000024290000000002351000000000242700001000000000000000300000000000000728700000000000000009999123100000010000000000000BREQMAACNOR8108
012024102202EQPA3       010EQTL PARA   ON           R$  000000000059300000000005980000000000589000000000059400000000005890000000000585000000000058900016000000000000003000000000000001784200000000000000009999123100000010000000000000BREQPAACNOR1111
012024102202EQTL3       010EQUATORIAL  ON      NM   R$  000000000321300000000032670000000003202000000000323100000000032320000000003229000000000323524093000000000006741300000000021783075900000000000000009999123100000010000000000000BREQTLACNOR0131
012024102202IGTI11      010IGUATEMI S.AUNT     N1   R$  000000000213400000000021440000000002104000000000211500000000021070000000002106000000000211308932000000000001800600000000003809587100000000000000009999123100000010000000000000BRIGTICDAM16106
012024102202IGTI3       010IGUATEMI S.AON      N1   R$  000000000025700000000002600000000000254000000000025600000000002590000000000254000000000025900060000000000000061400000000000015754700000000000000009999123100000010000000000000BRIGTIACNOR8106
012024102202INEP3       010INEPAR      ON           R$  000000000016500000000001720000000000163000000000016600000000001630000000000163000000000016500097000000000000062400000000000010374700000000000000009999123100000010000000000000BRINEPACNOR1143
012024102202INEP4       010INEPAR      PN           R$  000000000017000000000001740000000000168000000000016900000000001680000000000168000000000016900035000000000000028400000000000004818500000000000000009999123100000010000000000000BRINEPACNPR8143
012024102202INTB3       010INTELBRAS   ON      NM   R$  000000000203600000000020520000000001997000000000201200000000020140000000002014000000000201503378000000000000711400000000001431378900000000000000009999123100000010000000000000BRINTBACNOR9112
012024102202IRBR3       010IRBBRASIL REON      NM   R$  000000000424500000000042530000000004159000000000420800000000042490000000004247000000000425002863000000000000606800000000002553909300000000000000009999123100000010000000000000BRIRBRACNOR4111
012024102202LUPA3       010LUPATECH    ON      NM   R$  000000000013800000000001400000000000136000000000013800000000001380000000000137000000000013800140000000000000179900000000000024861400000000000000009999123100000010000000000000BRLUPAACNOR8112
012024102202LEVE3       010METAL LEVE  ON      NM   R$  000000000304400000000030470000000003026000000000303700000000030360000000003032000000000303601448000000000000239800000000000728320900000000000000009999123100000010000000000000BRLEVEACNOR2197
012024102202LJQQ3       010QUERO-QUERO ON      NM   R$  000000000028500000000002870000000000278000000000028100000000002810000000000280000000000028307895000000000005453400000000001537543000000000000000009999123100000010000000000000BRLJQQACNOR5104
012024102202LOGG3       010LOG COM PROPON      NM   R$  000000000219500000000021970000000002154000000000217200000000021750000000002175000000000218701233000000000000197600000000000429348400000000000000009999123100000010000000000000BRLOGGACNOR7107
012024102202LOGN3       010LOG-IN      ON      NM   R$  000000000285500000000029190000000002800000000000284200000000028000000000002796000000000283000150000000000000022700000000000064528800000000000000009999123100000010000000000000BRLOGNACNOR3105
012024102202LPSB3       010LOPES BRASILON      NM   R$  000000000016500000000001660000000000163000000000016400000000001630000000000163000000000016400138000000000000047600000000000007820400000000000000009999123100000010000000000000BRLPSBACNOR0114
012024102202LVTC3       010WDC NETWORKSON      NM   R$  000000000037800000000003780000000000360000000000037100000000003600000000000358000000000036000030000000000000009500000000000003526000000000000000009999123100000010000000000000BRLVTCACNOR4102
012024102202LWSA3       010LWSA        ON      NM   R$  000000000044900000000004570000000000439000000000044400000000004410000000000441000000000044408021000000000003752900000000001669080600000000000000009999123100000010000000000000BRLWSAACNOR8103
012024102202LREN3       010LOJAS RENNERON      NM   R$  000000000183300000000018360000000001798000000000181600000000018160000000001815000000000181722077000000000011546700000000020973528100000000000000009999123100000010000000000000BRLRENACNOR1222
012024102202NEOE3       010NEOENERGIA  ON      NM   R$  000000000193000000000019380000000001912000000000192600000000019300000000001928000000000193603843000000000001070600000000002062089600000000000000009999123100000010000000000000BRNEOEACNOR3123
012024102202LAND3       010TERRASANTAPAON      NM   R$  000000000133100000000013650000000001287000000000132600000000013570000000001335000000000135700214000000000000059700000000000079185300000000000000009999123100000010000000000000BRLANDACNOR9103
012024102202LAVV3       010LAVVI       ON      NM   R$  000000000080400000000008130000000000795000000000080300000000008070000000000806000000000081201975000000000000371300000000000298407700000000000000009999123100000010000000000000BRLAVVACNOR4113
012024102202MTRE3       010MITRE REALTYON      NM   R$  000000000036400000000003660000000000359000000000036200000000003610000000000361000000000036300615000000000000387500000000000140301400000000000000009999123100000010000000000000BRMTREACNOR6115
012024102202MTSA4       010METISA      PN           R$  000000000364400000000036560000000003580000000000362900000000035800000000003580000000000373800013000000000000001400000000000005081200000000000000009999123100000010000000000000BRMTSAACNPR9073
012024102202MULT3       010MULTIPLAN   ON      N2   R$  000000000257900000000025880000000002517000000000254100000000025380000000002535000000000254021673000000000004100200000000010420257800000000000000009999123100000010000000000000BRMULTACNOR5139
012024102202NGRD3       010NEOGRID     ON      NM   R$  000000000286100000000028810000000002700000000000281000000000027000000000002698000000000270000115000000000000024800000000000069692000000000000000009999123100000010000000000000BRNGRDACNOR3106
012024102202NINJ3       010GETNINJAS   ON      NM   R$  000000000045300000000004590000000000453000000000045400000000004540000000000453000000000045900009000000000000001200000000000000545500000000000000009999123100000010000000000000BRNINJACNOR5101
012024102202NTCO3       010GRUPO NATURAON      NM   R$  000000000145400000000014600000000001411000000000142800000000014110000000001411000000000141321001000000000014234900000000020328702600000000000000009999123100000010000000000000BRNTCOACNOR5106
012024102202ATOM3       010ATOMPAR     ON           R$  000000000041700000000004330000000000350000000000037300000000003820000000000370000000000038200534000000000000318500000000000119007400000000000000009999123100000010000000000000BRATOMACNOR1106
012024102202MYPK3       010IOCHP-MAXIONON      NM   R$  000000000101800000000010290000000001012000000000101900000000010220000000001022000000000102603197000000000000611100000000000622981700000000000000009999123100000010000000000000BRMYPKACNOR7156
012024102202BPAC11      010BTGP BANCO  UNT     N2   R$  000000000323800000000032730000000003220000000000323700000000032330000000003232000000000323711129000000000004907500000000015886490300000000000000009999123100000010000000000000BRBPACUNT006119
012024102202BPAC3       010BTGP BANCO  ON      N2   R$  000000000154400000000015440000000001514000000000152700000000015160000000001515000000000155600014000000000000001400000000000002138500000000000000009999123100000010000000000000BRBPACACNOR7134
012024102202BPAC5       010BTGP BANCO  PNA     N2   R$  000000000085600000000008630000000000842000000000085400000000008630000000000850000000000086100013000000000000002200000000000001880900000000000000009999123100000010000000000000BRBPACACNPA0134
012024102202PNVL3       010DIMED       ON      NM   R$  000000000098100000000009970000000000979000000000098600000000009880000000000986000000000098801304000000000000242800000000000239602300000000000000009999123100000010000000000000BRPNVLACNOR9208
012024102202POMO3       010MARCOPOLO   ON      N2   R$  000000000065800000000006660000000000654000000000066000000000006660000000000658000000000066600750000000000000217700000000000143724000000000000000009999123100000010000000000000BRPOMOACNOR0099
012024102202POMO4       010MARCOPOLO   PN      N2   R$  000000000088400000000008900000000000873000000000087900000000008850000000000883000000000088515859000000000006196900000000005452769100000000000000009999123100000010000000000000BRPOMOACNPR7099
012024102202PFRM3       010PROFARMA    ON      NM   R$  000000000058000000000006040000000000566000000000058400000000006040000000000593000000000060400500000000000000236500000000000138194100000000000000009999123100000010000000000000BRPFRMACNOR1116
012024102202PGMN3       010PAGUE MENOS ON      NM   R$  000000000028200000000002840000000000278000000000028000000000002790000000000279000000000028100605000000000000221300000000000062004300000000000000009999123100000010000000000000BRPGMNACNOR8103
012024102202PINE3       010PINE        ON  EJS N2   R$  000000000048400000000004850000000000470000000000048200000000004830000000000470000000000048300012000000000000002100000000000001013000000000000000009999123100000010000000000000BRPINEACNOR1152
012024102202PINE4       010PINE        PN  EJS N2   R$  000000000047600000000004820000000000465000000000047000000000004650000000000465000000000046700487000000000000239900000000000112786000000000000000009999123100000010000000000000BRPINEACNPR8152
012024102202PLPL3       010PLANOEPLANO ON      NM   R$  000000000139500000000014030000000001354000000000137200000000013790000000001367000000000137902978000000000000613000000000000841087000000000000000009999123100000010000000000000BRPLPLACNOR5104
012024102202ALPK3       010ESTAPAR     ON      NM   R$  000000000027800000000002930000000000278000000000028400000000002810000000000281000000000028400398000000000000260100000000000074060300000000000000009999123100000010000000000000BRALPKACNOR9101
012024102202WHRL4       010WHIRLPOOL   PN           R$  000000000044000000000004400000000000436000000000043700000000004370000000000436000000000043900017000000000000004100000000000001793700000000000000009999123100000010000000000000BRWHRLACNPR2129
012024102202WIZC3       010WIZ CO      ON      NM   R$  000000000058200000000005890000000000579000000000058400000000005850000000000585000000000058600811000000000000249500000000000145880400000000000000009999123100000010000000000000BRWIZCACNOR5102
012024102202SCAR3       010SAO CARLOS  ON      NM   R$  000000000212000000000021390000000002116000000000212000000000021170000000002101000000000214500006000000000000000600000000000001272500000000000000009999123100000010000000000000BRSCARACNOR7131
012024102202SEER3       010SER EDUCA   ON      NM   R$  000000000056800000000005750000000000559000000000056500000000005650000000000565000000000056600740000000000000277400000000000156811900000000000000009999123100000010000000000000BRSEERACNOR5119
012024102202SHOW3       010TIME FOR FUNON      NM   R$  000000000009500000000000970000000000094000000000009500000000000970000000000094000000000009700190000000000000068600000000000006533800000000000000009999123100000010000000000000BRSHOWACNOR7105
012024102202SHUL4       010SCHULZ      PN           R$  000000000061200000000006150000000000605000000000060900000000006140000000000612000000000061400700000000000000253600000000000154592400000000000000009999123100000010000000000000BRSHULACNPR4157
012024102202SIMH3       010SIMPAR      ON      NM   R$  000000000051000000000005270000000000502000000000051100000000005150000000000515000000000051904819000000000003260100000000001669159400000000000000009999123100000010000000000000BRSIMHACNOR0107
012024102202VITT3       010VITTIA      ON      NM   R$  000000000055800000000005690000000000545000000000055900000000005570000000000557000000000056001115000000000000339000000000000189691400000000000000009999123100000010000000000000BRVITTACNOR4107
012024102202VIVA3       010VIVARA S.A. ON      NM   R$  000000000256600000000025910000000002519000000000254500000000025530000000002550000000000255514394000000000003879800000000009875584000000000000000009999123100000010000000000000BRVIVAACNOR0107
012024102202AERI3       010AERIS       ON      NM   R$  000000000063600000000006490000000000616000000000062600000000006340000000000627000000000063400524000000000000177500000000000111152200000000000000009999123100000010000000000000BRAERIACNOR4102
012024102202AESB3       010AES BRASIL  ON      NM   R$  000000000117700000000011790000000001176000000000117700000000011790000000001178000000000117902455000000000022310200000000026269425900000000000000009999123100000010000000000000BRAESBACNOR7107
012024102202AFLT3       010AFLUENTE T  ON           R$  000000000070300000000007030000000000703000000000070300000000007030000000000701000000000077700001000000000000000100000000000000070300000000000000009999123100000010000000000000BRAFLTACNOR1122
012024102202AGRO3       010BRASILAGRO  ON      NM   R$  000000000248900000000024910000000002455000000000247300000000024850000000002478000000000248601493000000000000256900000000000635566800000000000000009999123100000010000000000000BRAGROACNOR7114
012024102202AHEB3       010SPTURIS     ON           R$  000000000380000000000038000000000003800000000000380000000000038000000000000000000000000380000001000000000000000100000000000000380000000000000000009999123100000010000000000000BRAHEBACNOR0106
012024102202VSTE3       010VESTE       ON      NM   R$  000000000097900000000009800000000000978000000000097800000000009790000000000978000000000098800015000000000000002400000000000002347500000000000000009999123100000010000000000000BRVSTEACNOR5103
012024102202VTRU3       010VITRUEDUCA  ON      NM   R$  000000000090400000000009150000000000904000000000090800000000009050000000000905000000000090900243000000000000056900000000000051666300000000000000009999123100000010000000000000BRVTRUACNOR3100
012024102202VULC3       010VULCABRAS   ON  ED  NM   R$  000000000166400000000016640000000001612000000000162900000000016290000000001628000000000163002291000000000000582200000000000948661300000000000000009999123100000010000000000000BRVULCACNOR2163
012024102202VVEO3       010VIVEO       ON      NM   R$  000000000019300000000001970000000000187000000000019100000000001900000000000190000000000019202855000000000001593400000000000304496500000000000000009999123100000010000000000000BRVVEOACNOR0104
012024102202VIVR3       010VIVER       ON      NM   R$  000000000016800000000001700000000000167000000000016700000000001680000000000168000000000016900043000000000000031800000000000005319000000000000000009999123100000010000000000000BRVIVRACNOR4123
012024102202VIVT3       010TELEF BRASILON           R$  000000000539900000000053990000000005334000000000536200000000053610000000005361000000000537809251000000000001559900000000008364208500000000000000009999123100000010000000000000BRVIVTACNOR0184
012024102202RANI3       010IRANI       ON      NM   R$  000000000074100000000007410000000000732000000000073500000000007330000000000733000000000073401596000000000000437900000000000322169800000000000000009999123100000010000000000000BRRANIACNOR5073
012024102202RAPT3       010RANDON PART ON      N1   R$  000000000092100000000009290000000000912000000000092100000000009290000000000919000000000092900079000000000000014600000000000013458600000000000000009999123100000010000000000000BRRAPTACNOR7163
012024102202RAPT4       010RANDON PART PN      N1   R$  000000000108900000000011020000000001079000000000108900000000010900000000001089000000000109005686000000000002220100000000002418957800000000000000009999123100000010000000000000BRRAPTACNPR4163
012024102202EALT3       010ACO ALTONA  ON           R$  000000000149300000000014950000000001450000000000147900000000014500000000001404000000000150000003000000000000000300000000000000443800000000000000009999123100000010000000000000BREALTACNOR4138
012024102202EALT4       010ACO ALTONA  PN           R$  000000000130700000000013450000000001307000000000132400000000013420000000001322000000000134200042000000000000007100000000000009403300000000000000009999123100000010000000000000BREALTACNPR1138
012024102202ECOR3       010ECORODOVIAS ON      NM   R$  000000000071400000000007160000000000690000000000069700000000006900000000000690000000000069703918000000000003473500000000002423798500000000000000009999123100000010000000000000BRECORACNOR8120
012024102202EGIE3       010ENGIE BRASILON      NM   R$  000000000412000000000041260000000004075000000000409400000000041020000000004097000000000410305992000000000001034000000000004233523100000000000000009999123100000010000000000000BREGIEACNOR9127
012024102202PORT3       010WILSON SONS ON  ED  NM   R$  000000000161400000000016300000000001600000000000160900000000016170000000001617000000000162005505000000000005420700000000008725913200000000000000009999123100000010000000000000BRPORTACNOR8110
012024102202POSI3       010POSITIVO TECON      NM   R$  000000000060600000000006220000000000598000000000061400000000006160000000000616000000000062003170000000000001007000000000000618991700000000000000009999123100000010000000000000BRPOSIACNOR9116
012024102202PRIO3       010PETRORIO    ON      NM   R$  000000000418900000000042100000000004151000000000417700000000041610000000004161000000000417019351000000000006395800000000026717734800000000000000009999123100000010000000000000BRPRIOACNOR1107
012024102202RCSL3       010RECRUSUL    ON           R$  000000000043200000000004350000000000410000000000042400000000004120000000000412000000000041601170000000000000610200000000000259167400000000000000009999123100000010000000000000BRRCSLACNOR4134
012024102202RCSL4       010RECRUSUL    PN           R$  000000000020300000000002170000000000151000000000018800000000001570000000000157000000000015806052000000000005252400000000000989206400000000000000009999123100000010000000000000BRRCSLACNPR1134
012024102202RDNI3       010RNI         ON      NM   R$  000000000031000000000003140000000000308000000000031100000000003140000000000308000000000031000008000000000000001500000000000000467300000000000000009999123100000010000000000000BRRDNIACNOR9116
012024102202RDOR3       010REDE D OR   ON      NM   R$  000000000291700000000029830000000002890000000000294400000000029830000000002980000000000298321021000000000004504600000000013265661700000000000000009999123100000010000000000000BRRDORACNOR8114
012024102202ROMI3       010ROMI        ON      NM   R$  000000000105500000000010610000000001036000000000104600000000010420000000001042000000000104700914000000000000186200000000000194892000000000000000009999123100000010000000000000BRROMIACNOR8196
012024102202RSUL4       010RIOSULENSE  PN           R$  000000000619800000000061980000000006101000000000613300000000061010000000006003000000000620000003000000000000000300000000000001840000000000000000009999123100000010000000000000BRRSULACNPR3114
012024102202SYNE3       010SYN PROP TECON      NM   R$  000000000082600000000008260000000000800000000000080700000000008020000000000802000000000080700995000000000000304300000000000245670600000000000000009999123100000010000000000000BRSYNEACNOR2103
012024102202TAEE11      010TAESA       UNT     N2   R$  000000000345900000000034600000000003423000000000343500000000034350000000003435000000000343805497000000000001264000000000004343074100000000000000009999123100000010000000000000BRTAEECDAM10148
012024102202ALLD3       010ALLIED      ON      NM   R$  000000000074700000000007600000000000747000000000075500000000007530000000000753000000000075700130000000000000029000000000000021917900000000000000009999123100000010000000000000BRALLDACNOR3106
012024102202ALOS3       010ALLOS       ON  ED  NM   R$  000000000222700000000022420000000002182000000000220000000000021980000000002194000000000219815761000000000004037700000000008886420300000000000000009999123100000010000000000000BRALOSACNOR5103
012024102202ALPA3       010ALPARGATAS  ON      N1   R$  000000000065400000000006580000000000650000000000065100000000006510000000000645000000000066700012000000000000002800000000000001825400000000000000009999123100000010000000000000BRALPAACNOR0231
012024102202ALPA4       010ALPARGATAS  PN      N1   R$  000000000069400000000007100000000000694000000000070300000000007040000000000704000000000070705423000000000001527900000000001074609700000000000000009999123100000010000000000000BRALPAACNPR7232
012024102202BBDC3       010BRADESCO    ON      N1   R$  000000000131500000000013400000000001311000000000132200000000013240000000001324000000000132609789000000000006604100000000008733554300000000000000009999123100000010000000000000BRBBDCACNOR1776
012024102202BRSR3       010BANRISUL    ON      N1   R$  000000000131500000000013230000000001299000000000131100000000012990000000001298000000000132000070000000000000011800000000000015473500000000000000009999123100000010000000000000BRBRSRACNOR3189
012024102202BRSR6       010BANRISUL    PNB     N1   R$  000000000111400000000011140000000001102000000000110700000000011090000000001108000000000110904206000000000000926400000000001025552300000000000000009999123100000010000000000000BRBRSRACNPB4192
012024102202BSLI3       010BRB BANCO   ON           R$  000000000091700000000009170000000000885000000000089300000000009000000000000886000000000090900006000000000000000900000000000000804400000000000000009999123100000010000000000000BRBSLIACNOR5194
012024102202SAPR11      010SANEPAR     UNT     N2   R$  000000000273800000000027700000000002730000000000275300000000027500000000002750000000000276403968000000000000743000000000002045543900000000000000009999123100000010000000000000BRSAPRCDAM13118
012024102202SAPR3       010SANEPAR     ON      N2   R$  000000000052700000000005280000000000522000000000052500000000005280000000000525000000000052800293000000000000080700000000000042403000000000000000009999123100000010000000000000BRSAPRACNOR9159
012024102202SAPR4       010SANEPAR     PN      N2   R$  000000000055800000000005610000000000554000000000055700000000005570000000000556000000000055901661000000000000771200000000000429722800000000000000009999123100000010000000000000BRSAPRACNPR6159
012024102202SBFG3       010GRUPO SBF   ON      NM   R$  000000000139100000000014100000000001362000000000138600000000013970000000001387000000000139706175000000000002019800000000002800517300000000000000009999123100000010000000000000BRSBFGACNOR1103
012024102202SBSP3       010SABESP      ON      NM   R$  000000000912000000000091870000000009082000000000913000000000091070000000009104000000000913011441000000000002180700000000019909979000000000000000009999123100000010000000000000BRSBSPACNOR5161
012024102202UNIP5       010UNIPAR      PNA          R$  000000000476000000000048000000000004760000000000478900000000047600000000004750000000000480000006000000000000000600000000000002873500000000000000009999123100000010000000000000BRUNIPACNPA0208
012024102202UNIP6       010UNIPAR      PNB          R$  000000000462500000000046640000000004562000000000460100000000045620000000004561000000000457500846000000000000113000000000000519934700000000000000009999123100000010000000000000BRUNIPACNPB8206
012024102202USIM3       010USIMINAS    ON      N1   R$  000000000060900000000006130000000000598000000000060300000000006050000000000602000000000060500672000000000000202200000000000122107600000000000000009999123100000010000000000000BRUSIMACNOR3167
012024102202TAEE3       010TAESA       ON      N2   R$  000000000115400000000011540000000001141000000000114500000000011490000000001145000000000114900341000000000000070000000000000080182900000000000000009999123100000010000000000000BRTAEEACNOR9148
012024102202TAEE4       010TAESA       PN      N2   R$  000000000115900000000011590000000001147000000000115100000000011520000000001152000000000115600500000000000000132100000000000152129700000000000000009999123100000010000000000000BRTAEEACNPR6148
012024102202VAMO3       010VAMOS       ON      NM   R$  000000000059600000000006270000000000594000000000061300000000006230000000000622000000000062315182000000000010902400000000006693355500000000000000009999123100000010000000000000BRVAMOACNOR7105
012024102202VBBR3       010VIBRA       ON      NM   R$  000000000224400000000022570000000002214000000000222800000000022230000000002222000000000222521406000000000006484300000000014448814400000000000000009999123100000010000000000000BRVBBRACNOR1109
012024102202BBDC4       010BRADESCO    PN      N1   R$  000000000151000000000015390000000001503000000000151900000000015180000000001518000000000151949940000000000032416400000000049256513200000000000000009999123100000010000000000000BRBBDCACNPR8776
012024102202MNPR3       010MINUPAR     ON           R$  000000000208900000000020990000000002021000000000207600000000020460000000002022000000000205700027000000000000007900000000000016405800000000000000009999123100000010000000000000BRMNPRACNOR5122
012024102202MOVI3       010MOVIDA      ON      NM   R$  000000000058200000000006000000000000567000000000057900000000005750000000000574000000000057605697000000000004022400000000002328998100000000000000009999123100000010000000000000BRMOVIACNOR0122
012024102202MRFG3       010MARFRIG     ON      NM   R$  000000000146400000000014780000000001435000000000144900000000014410000000001441000000000144411697000000000004051700000000005872237100000000000000009999123100000010000000000000BRMRFGACNOR0116
012024102202RAIZ4       010RAIZEN      PN      N2   R$  000000000028600000000002890000000000283000000000028500000000002850000000000284000000000028512935000000000011828900000000003379681400000000000000009999123100000010000000000000BRRAIZACNPR6111
012024102202BSLI4       010BRB BANCO   PN           R$  000000000086400000000009200000000000864000000000091500000000009190000000000886000000000091900008000000000000001700000000000001556500000000000000009999123100000010000000000000BRBSLIACNPR2194
012024102202USIM5       010USIMINAS    PNA     N1   R$  000000000062100000000006290000000000614000000000061800000000006150000000000615000000000061708584000000000008663700000000005356277400000000000000009999123100000010000000000000BRUSIMACNPA6169
012024102202AZZA3       010AZZAS 2154  ON      NM   R$  000000000403700000000041170000000003990000000000402300000000040230000000004023000000000402405465000000000001645200000000006618774400000000000000009999123100000010000000000000BRAZZAACNOR9100
012024102202B3SA3       010B3          ON      NM   R$  000000000107400000000010810000000001055000000000106200000000010610000000001060000000000106225664000000000029304400000000031138121200000000000000009999123100000010000000000000BRB3SAACNOR6134
012024102202WEGE3       010WEG         ON      NM   R$  000000000548000000000055950000000005460000000000555600000000055950000000005589000000000559517110000000000004733100000000026298036700000000000000009999123100000010000000000000BRWEGEACNOR0225
012024102202CAMB3       010CAMBUCI     ON           R$  000000000120900000000012300000000001196000000000120600000000012300000000001197000000000123000063000000000000017500000000000021111200000000000000009999123100000010000000000000BRCAMBACNOR4131
012024102202CAML3       010CAMIL       ON      NM   R$  000000000081800000000008220000000000809000000000081400000000008170000000000814000000000081701393000000000000280900000000000228885600000000000000009999123100000010000000000000BRCAMLACNOR3129
012024102202CASH3       010MELIUZ      ON      NM   R$  000000000034500000000003610000000000340000000000035100000000003520000000000351000000000035203378000000000001213900000000000427099900000000000000009999123100000010000000000000BRCASHACNOR8107
012024102202CBAV3       010CBA         ON      NM   R$  000000000057700000000005960000000000573000000000058900000000005950000000000591000000000059506268000000000003232200000000001904546500000000000000009999123100000010000000000000BRCBAVACNOR5104
012024102202CCRO3       010CCR SA      ON      NM   R$  000000000121900000000012230000000001206000000000121300000000012100000000001209000000000121009656000000000006625700000000008040786400000000000000009999123100000010000000000000BRCCROACNOR2145
012024102202CEAB3       010CEA MODAS   ON      NM   R$  000000000118500000000012010000000001159000000000117200000000011620000000001162000000000116508077000000000002418100000000002835474800000000000000009999123100000010000000000000BRCEABACNOR1102
012024102202CEBR3       010CEB         ON           R$  000000000185000000000019880000000001829000000000187500000000018730000000001800000000000187400010000000000000001100000000000002063400000000000000009999123100000010000000000000BRCEBRACNOR5125
012024102202CEBR5       010CEB         PNA          R$  000000000161600000000016480000000001616000000000163400000000016480000000001620000000000164900006000000000000001500000000000002451500000000000000009999123100000010000000000000BRCEBRACNPA8124
012024102202CEBR6       010CEB         PNB          R$  000000000177900000000017790000000001745000000000175300000000017770000000001750000000000177700027000000000000009900000000000017364500000000000000009999123100000010000000000000BRCEBRACNPB6124
012024102202CEDO3       010CEDRO       ON      N1   R$  000000000220000000000028500000000002200000000000252700000000024990000000002260000000000250000021000000000000002900000000000007328300000000000000009999123100000010000000000000BRCEDOACNOR8096
012024102202CEDO4       010CEDRO       PN      N1   R$  000000000233800000000024000000000002310000000000234600000000023220000000002311000000000244600015000000000000002600000000000006100400000000000000009999123100000010000000000000BRCEDOACNPR5128
012024102202RAIL3       010RUMO S.A.   ON      NM   R$  000000000190100000000019030000000001873000000000188500000000018900000000001888000000000189023580000000000016351300000000030834249800000000000000009999123100000010000000000000BRRAILACNOR9105
012024102202SNSY5       010SANSUY      PNA          R$  000000000050100000000005140000000000492000000000049700000000005140000000000497000000000051500012000000000000003100000000000001541900000000000000009999123100000010000000000000BRSNSYACNPA5111
012024102202SOJA3       010BOA SAFRA   ON      NM   R$  000000000117700000000011890000000001171000000000118200000000011820000000001182000000000118501395000000000000262700000000000310587300000000000000009999123100000010000000000000BRSOJAACNOR9106
012024102202SRNA3       010SERENA      ON      NM   R$  000000000083300000000008440000000000819000000000082500000000008270000000000823000000000082704840000000000001764100000000001456841000000000000000009999123100000010000000000000BRSRNAACNOR4100
012024102202STBP3       010SANTOS BRP  ON  ER  NM   R$  000000000129100000000012990000000001287000000000129100000000012870000000001286000000000129009047000000000003845800000000004966136500000000000000009999123100000010000000000000BRSTBPACNOR3132
012024102202SUZB3       010SUZANO S.A. ON      NM   R$  000000000560300000000058190000000005586000000000571700000000057580000000005757000000000577333828000000000009250300000000052893100800000000000000009999123100000010000000000000BRSUZBACNOR0130
012024102202CEEB3       010COELBA      ON           R$  000000000399900000000039990000000003844000000000394100000000039100000000003909000000000399100008000000000000001800000000000007094200000000000000009999123100000010000000000000BRCEEBACNOR3200
012024102202CGAS5       010COMGAS      PNA          R$  000000001280000000000128000000000012790000000001279600000000128000000000012601000000001280000003000000000000000300000000000003839000000000000000009999123100000010000000000000BRCGASACNPA3161
012024102202CGRA3       010GRAZZIOTIN  ON           R$  000000000250000000000025000000000002500000000000250000000000025000000000002499000000000257000003000000000000000300000000000000750000000000000000009999123100000010000000000000BRCGRAACNOR2083
012024102202ELET3       010ELETROBRAS  ON      N1   R$  000000000380000000000038600000000003787000000000382700000000038500000000003850000000000385413269000000000004492500000000017193827600000000000000009999123100000010000000000000BRELETACNOR6160
012024102202ELET6       010ELETROBRAS  PNB     N1   R$  000000000419900000000042790000000004184000000000423600000000042530000000004252000000000425305187000000000000915200000000003877611400000000000000009999123100000010000000000000BRELETACNPB7077
012024102202HBOR3       010HELBOR      ON      NM   R$  000000000018800000000001910000000000187000000000018800000000001880000000000188000000000019000278000000000000217300000000000040952200000000000000009999123100000010000000000000BRHBORACNOR3118
012024102202HBRE3       010HBR REALTY  ON      NM   R$  000000000043900000000004420000000000431000000000043500000000004400000000000440000000000044101100000000000000680900000000000296753300000000000000009999123100000010000000000000BRHBREACNOR4100
012024102202HBSA3       010HIDROVIAS   ON      NM   R$  000000000032800000000003350000000000327000000000033000000000003310000000000331000000000033402910000000000001739800000000000575842800000000000000009999123100000010000000000000BRHBSAACNOR0101
012024102202HYPE3       010HYPERA      ON      NM   R$  000000000262800000000028140000000002628000000000273500000000028110000000002807000000000281233874000000000011627100000000031807555200000000000000009999123100000010000000000000BRHYPEACNOR0144
012024102202JHSF3       010JHSF PART   ON      NM   R$  000000000044500000000004460000000000435000000000043900000000004360000000000435000000000043703577000000000001819100000000000800010900000000000000009999123100000010000000000000BRJHSFACNOR2140
012024102202PCAR3       010P.ACUCAR-CBDON      NM   R$  000000000031100000000003240000000000309000000000031800000000003220000000000322000000000032307056000000000010329000000000003285695600000000000000009999123100000010000000000000BRPCARACNOR3167
012024102202BBSE3       010BBSEGURIDADEON      NM   R$  000000000338000000000034360000000003380000000000342500000000034340000000003428000000000343415038000000000006910100000000023672092400000000000000009999123100000010000000000000BRBBSEACNOR5125
012024102202COCE5       010COELCE      PNA          R$  000000000267100000000027110000000002651000000000267900000000027110000000002651000000000275900027000000000000003200000000000008573500000000000000009999123100000010000000000000BRCOCEACNPA3147
012024102202COGN3       010COGNA ON    ON      NM   R$  000000000013700000000001410000000000136000000000013700000000001360000000000136000000000013709361000000000021054900000000002899272500000000000000009999123100000010000000000000BRCOGNACNOR2105
012024102202PDGR3       010PDG REALT   ON      NM   R$  000000000000100000000000020000000000001000000000000100000000000010000000000001000000000000200792000000000050897300000000000053736800000000000000009999123100000010000000000000BRPDGRACNOR8119
012024102202PDTC3       010PADTEC      ON      NM   R$  000000000018800000000001880000000000184000000000018500000000001860000000000184000000000018600023000000000000020900000000000003875200000000000000009999123100000010000000000000BRPDTCACNOR3101
012024102202PETR3       010PETROBRAS   ON      N2   R$  000000000395500000000039860000000003932000000000394900000000039440000000003941000000000394514925000000000005602900000000022130349100000000000000009999123100000010000000000000BRPETRACNOR9206
012024102202PETR4       010PETROBRAS   PN      N2   R$  000000000362000000000036300000000003599000000000361100000000036110000000003611000000000361446054000000000029144300000000105249796100000000000000009999123100000010000000000000BRPETRACNPR6214
012024102202ENEV3       010ENEVA       ON      NM   R$  000000000141500000000014220000000001392000000000140200000000013970000000001397000000000140019581000000000006714800000000009417792500000000000000009999123100000010000000000000BRENEVACNOR8106
012024102202ENGI11      010ENERGISA    UNT     N2   R$  000000000435800000000043600000000004285000000000432100000000043420000000004332000000000434210216000000000002268700000000009803376300000000000000009999123100000010000000000000BRENGICDAM16136
012024102202ENGI3       010ENERGISA    ON      N2   R$  000000000130200000000013020000000001285000000000128800000000013000000000001280000000000130000034000000000000005000000000000006442800000000000000009999123100000010000000000000BRENGIACNOR0146
012024102202ENGI4       010ENERGISA    PN      N2   R$  000000000075500000000007580000000000752000000000075400000000007540000000000753000000000075900072000000000000012500000000000009432700000000000000009999123100000010000000000000BRENGIACNPR7142
012024102202ENJU3       010ENJOEI      ON      NM   R$  000000000012500000000001270000000000121000000000012300000000001240000000000123000000000012400578000000000000689700000000000085126100000000000000009999123100000010000000000000BRENJUACNOR9100
012024102202AURE3       010AUREN       ON      NM   R$  000000000102400000000010240000000001007000000000101500000000010200000000001019000000000102010501000000000004745600000000004818368900000000000000009999123100000010000000000000BRAUREACNOR9104
012024102202AVLL3       010ALPHAVILLE  ON      NM   R$  000000000029000000000002910000000000290000000000029000000000002910000000000285000000000029100002000000000000000300000000000000087200000000000000009999123100000010000000000000BRAVLLACNOR5103
012024102202AZEV3       010AZEVEDO     ON           R$  000000000012600000000001280000000000121000000000012300000000001210000000000121000000000012201493000000000000682100000000000084137400000000000000009999123100000010000000000000BRAZEVACNOR0121
012024102202AZEV4       010AZEVEDO     PN           R$  000000000012400000000001270000000000119000000000012200000000001220000000000122000000000012306478000000000003577500000000000439496300000000000000009999123100000010000000000000BRAZEVACNPR7121
012024102202AZUL4       010AZUL        PN      N2   R$  000000000059100000000005980000000000562000000000057500000000005630000000000563000000000056413670000000000025730200000000014804425100000000000000009999123100000010000000000000BRAZULACNPR4103
012024102202CGRA4       010GRAZZIOTIN  PN           R$  000000000250200000000025020000000002493000000000249700000000024930000000002492000000000251000007000000000000001300000000000003246700000000000000009999123100000010000000000000BRCGRAACNPR9083
012024102202CLSA3       010CLEARSALE   ON      NM   R$  000000000093800000000009470000000000930000000000093500000000009340000000000934000000000093702820000000000002636100000000002466645200000000000000009999123100000010000000000000BRCLSAACNOR0100
012024102202CLSC4       010CELESC      PN      N2   R$  000000000788800000000079580000000007865000000000789200000000079580000000007890000000000795900034000000000000004100000000000032360600000000000000009999123100000010000000000000BRCLSCACNPR3132
012024102202CMIG3       010CEMIG       ON      N1   R$  000000000142600000000014260000000001398000000000141100000000014150000000001415000000000142100751000000000000168200000000000237359700000000000000009999123100000010000000000000BRCMIGACNOR6244
012024102202CMIG4       010CEMIG       PN      N1   R$  000000000110600000000011110000000001092000000000110300000000011060000000001106000000000110815473000000000010482600000000011562336800000000000000009999123100000010000000000000BRCMIGACNPR3245
012024102202CMIN3       010CSNMINERACAOON      N2   R$  000000000059300000000005970000000000588000000000059300000000005960000000000595000000000059610339000000000004998900000000002965014700000000000000009999123100000010000000000000BRCMINACNOR2112
012024102202ELMD3       010ELETROMIDIA ON      NM   R$  000000000173100000000017340000000001661000000000169900000000016980000000001696000000000169800370000000000000181800000000000309024600000000000000009999123100000010000000000000BRELMDACNOR3101
012024102202EMAE4       010EMAE        PN           R$  000000000395000000000039800000000003950000000000397200000000039800000000003932000000000400000004000000000000000400000000000001589000000000000000009999123100000010000000000000BREMAEACNPR1126
012024102202YDUQ3       010YDUQS PART  ON      NM   R$  000000000104000000000010790000000001025000000000104300000000010370000000001035000000000103708194000000000003372900000000003520203400000000000000009999123100000010000000000000BRYDUQACNOR3105
012024102202ZAMP3       010ZAMP S.A.   ON           R$  000000000024800000000002510000000000243000000000024400000000002430000000000243000000000024601255000000000000527300000000000129170400000000000000009999123100000010000000000000BRZAMPACNOR5101
012024102202PRNR3       010PRINER      ON      NM   R$  000000000124600000000012550000000001238000000000124700000000012490000000001240000000000124900627000000000000156200000000000194783000000000000000009999123100000010000000000000BRPRNRACNOR4109
012024102202PSSA3       010PORTO SEGUROON      NM   R$  000000000369200000000037700000000003678000000000373000000000037300000000003728000000000373012190000000000002977200000000011106759800000000000000009999123100000010000000000000BRPSSAACNOR7156
012024102202PTBL3       010PORTOBELLO  ON      NM   R$  000000000045600000000004590000000000443000000000044900000000004450000000000444000000000044600778000000000000263200000000000118252600000000000000009999123100000010000000000000BRPTBLACNOR8132
012024102202PTNT3       010PETTENATI   ON           R$  000000000093400000000009550000000000934000000000094700000000009520000000000940000000000095500003000000000000000300000000000000284100000000000000009999123100000010000000000000BRPTNTACNOR6042
012024102202PTNT4       010PETTENATI   PN           R$  000000000062900000000006500000000000620000000000063800000000006430000000000637000000000064800151000000000000040100000000000025602300000000000000009999123100000010000000000000BRPTNTACNPR3047
012024102202BRFS3       010BRF SA      ON      NM   R$  000000000242100000000024290000000002381000000000240300000000024260000000002426000000000242712954000000000004785400000000011503532500000000000000009999123100000010000000000000BRBRFSACNOR8122
012024102202BRIT3       010BRISANET    ON      NM   R$  000000000030500000000003060000000000298000000000030000000000003000000000000300000000000030100640000000000000472100000000000141756100000000000000009999123100000010000000000000BRBRITACNOR0103
012024102202BRKM3       010BRASKEM     ON      N1   R$  000000000175600000000018020000000001751000000000177200000000017510000000001751000000000177200108000000000000016300000000000028898500000000000000009999123100000010000000000000BRBRKMACNOR1119
012024102202BRKM5       010BRASKEM     PNA     N1   R$  000000000180700000000018100000000001775000000000178700000000017800000000001779000000000178007428000000000002600500000000004647309000000000000000009999123100000010000000000000BRBRKMACNPA4121
012024102202BRKM6       010BRASKEM     PNB     N1   R$  000000000125000000000012500000000001250000000000125000000000012500000000001250000000000140000001000000000000000100000000000000125000000000000000009999123100000010000000000000BRBRKMACNPB2114
012024102202BAHI3       010BAHEMA      ON      MA   R$  000000000048400000000004850000000000465000000000046700000000004650000000000465000000000049400011000000000000008600000000000004023000000000000000009999123100000010000000000000BRBAHIACNOR1074
012024102202BALM3       010BAUMER      ON           R$  000000000129100000000012910000000001291000000000129100000000012910000000001152000000000154900001000000000000000100000000000000129100000000000000009999123100000010000000000000BRBALMACNOR5055
012024102202BAZA3       010AMAZONIA    ON           R$  000000000900000000000090020000000009000000000000900000000000090020000000009001000000000909000005000000000000000500000000000004500400000000000000009999123100000010000000000000BRBAZAACNOR0179
012024102202BBAS3       010BRASIL      ON      NM   R$  000000000265500000000026600000000002627000000000263500000000026300000000002630000000000263142283000000000027391300000000072186483600000000000000009999123100000010000000000000BRBBASACNOR3326
012024102202BOBR4       010BOMBRIL     PN           R$  000000000028400000000002900000000000279000000000028300000000002870000000000285000000000028700156000000000000052900000000000014999100000000000000009999123100000010000000000000BRBOBRACNPR3128
012024102202BRBI11      010BR PARTNERS UNT     N2   R$  000000000150800000000015230000000001494000000000151300000000015230000000001515000000000152301460000000000000245200000000000371138300000000000000009999123100000010000000000000BRBRBICDAM10110
012024102202DXCO3       010DEXCO       ON      NM   R$  000000000080800000000008200000000000789000000000080100000000008070000000000807000000000080907499000000000005298900000000004248850400000000000000009999123100000010000000000000BRDXCOACNOR8105
012024102202GGPS3       010GPS         ON      NM   R$  000000000181400000000018250000000001781000000000179300000000017900000000001782000000000179007477000000000002611900000000004685133400000000000000009999123100000010000000000000BRGGPSACNOR9103
012024102202GMAT3       010GRUPO MATEUSON      NM   R$  000000000072800000000007400000000000718000000000072800000000007400000000000735000000000074006929000000000002742900000000001998966000000000000000009999123100000010000000000000BRGMATACNOR7103
012024102202GOAU3       010GERDAU MET  ON      N1   R$  000000000102100000000010210000000001010000000000101300000000010150000000001014000000000101800174000000000000035600000000000036086700000000000000009999123100000010000000000000BRGOAUACNOR1268
012024102202GOAU4       010GERDAU MET  PN      N1   R$  000000000102400000000010280000000001013000000000101800000000010210000000001021000000000102208430000000000006386800000000006506164600000000000000009999123100000010000000000000BRGOAUACNPR8269
012024102202ABCB4       010ABC BRASIL  PN      N2   R$  000000000213000000000021420000000002111000000000213100000000021340000000002133000000000214002778000000000000431500000000000919678000000000000000009999123100000010000000000000BRABCBACNPR4146
012024102202ABEV3       010AMBEV S/A   ON           R$  000000000127700000000012900000000001273000000000128200000000012820000000001281000000000128329009000000000034756100000000044584562500000000000000009999123100000010000000000000BRABEVACNOR1128
012024102202BMEB4       010MERCANTIL   PN      N1   R$  000000000386000000000038920000000003770000000000383400000000037700000000003769000000000384000154000000000000021500000000000082433000000000000000009999123100000010000000000000BRBMEBACNPR5211
012024102202BMGB4       010BANCO BMG   PN  EJ  N1   R$  000000000042000000000004270000000000416000000000042100000000004190000000000419000000000042101085000000000000853700000000000359531900000000000000009999123100000010000000000000BRBMGBACNPR0111
012024102202BMKS3       010BIC MONARK  ON           R$  000000003101100000000310110000000030514000000003056700000000305140000000030514000000003084900007000000000000000013000000000000397378000000000000009999123100000010000000000000BRBMKSACNOR9166
012024102202BMOB3       010BEMOBI TECH ON      NM   R$  000000000148600000000015040000000001469000000000148400000000014960000000001496000000000149700926000000000000140000000000000207791400000000000000009999123100000010000000000000BRBMOBACNOR7103
012024102202BNBR3       010NORD BRASIL ON           R$  000000001033900000000103390000000009500000000000982500000000099830000000009688000000001028700007000000000000001200000000000011790600000000000000009999123100000010000000000000BRBNBRACNOR8209
012024102202JSLG3       010JSL         ON      NM   R$  000000000077500000000007850000000000756000000000076200000000007560000000000756000000000076001381000000000000340600000000000259622800000000000000009999123100000010000000000000BRJSLGACNOR2121
012024102202KEPL3       010KEPLER WEBERON      NM   R$  000000000092600000000009300000000000915000000000092200000000009190000000000919000000000092402914000000000000658800000000000607467300000000000000009999123100000010000000000000BRKEPLACNOR1064
012024102202MRSA5B      010MRS LOGIST  PNA     MB   R$  000000000280000000000028000000000002800000000000280000000000028000000000002750000000000000000001000000000000000300000000000000840000000000000000009999123100000010000000000000BRMRSAACNPA9125
012024102202MRVE3       010MRV         ON      NM   R$  000000000071000000000007130000000000684000000000069400000000006880000000000688000000000068918032000000000011959400000000008310473700000000000000009999123100000010000000000000BRMRVEACNOR2127
012024102202PETZ3       010PETZ        ON      NM   R$  000000000048600000000004910000000000474000000000048000000000004740000000000474000000000047508273000000000006228200000000002993588600000000000000009999123100000010000000000000BRPETZACNOR2110
012024102202DASA3       010DASA        ON      NM   R$  000000000028000000000002800000000000267000000000027100000000002690000000000269000000000027102726000000000001088700000000000295071100000000000000009999123100000010000000000000BRDASAACNOR1123
012024102202DESK3       010DESKTOP     ON      NM   R$  000000000131200000000013170000000001290000000000130100000000013090000000001292000000000130900434000000000000089700000000000116745700000000000000009999123100000010000000000000BRDESKACNOR2104
012024102202BIOM3       010BIOMM       ON      MA   R$  000000000090500000000009080000000000869000000000088600000000008700000000000870000000000088000330000000000000092700000000000082158900000000000000009999123100000010000000000000BRBIOMACNOR2112
012024102202BLAU3       010BLAU        ON      NM   R$  000000000143000000000014480000000001401000000000141800000000014240000000001424000000000143300897000000000000122400000000000173675700000000000000009999123100000010000000000000BRBLAUACNOR8115
012024102202BRAV3       010BRAVA       ON      NM   R$  000000000170800000000017410000000001692000000000172200000000017270000000001726000000000172711329000000000005193600000000008945193200000000000000009999123100000010000000000000BRBRAVACNOR3100
012024102202CSED3       010CRUZEIRO EDUON      NM   R$  000000000032200000000003260000000000317000000000032000000000003210000000000321000000000032200376000000000000178400000000000057183800000000000000009999123100000010000000000000BRCSEDACNOR9105
012024102202CSMG3       010COPASA      ON      NM   R$  000000000223100000000022370000000002194000000000222100000000022310000000002231000000000223604952000000000000909000000000002019290900000000000000009999123100000010000000000000BRCSMGACNOR5175
012024102202CSNA3       010SID NACIONALON           R$  000000000116300000000011670000000001145000000000115000000000011490000000001149000000000115011118000000000005369100000000006174863800000000000000009999123100000010000000000000BRCSNAACNOR6261
012024102202CXSE3       010CAIXA SEGURION      NM   R$  000000000142800000000014450000000001420000000000142900000000014300000000001430000000000143111051000000000003843900000000005494241900000000000000009999123100000010000000000000BRCXSEACNOR7107
012024102202CYRE3       010CYRELA REALTON      NM   R$  000000000214700000000021530000000002111000000000212900000000021400000000002125000000000214017596000000000005655500000000012045953400000000000000009999123100000010000000000000BRCYREACNOR7140
012024102202GEPA3       010GER PARANAP ON           R$  000000000290000000000029000000000002875000000000288700000000028750000000002703000000000290000002000000000000000200000000000000577500000000000000009999123100000010000000000000BRGEPAACNOR2154
012024102202GEPA4       010GER PARANAP PN           R$  000000000290100000000029750000000002898000000000294200000000029750000000002898000000000349000010000000000000001700000000000005002900000000000000009999123100000010000000000000BRGEPAACNPR9161
012024102202GFSA3       010GAFISA      ON      NM   R$  000000000017200000000001800000000000167000000000017200000000001700000000000169000000000017002639000000000004474500000000000770544600000000000000009999123100000010000000000000BRGFSAACNOR3125
012024102202GGBR3       010GERDAU      ON      N1   R$  000000000165200000000016960000000001651000000000166300000000016960000000001682000000000169600752000000000000175600000000000292049000000000000000009999123100000010000000000000BRGGBRACNOR1193
012024102202GGBR4       010GERDAU      PN      N1   R$  000000000181500000000018230000000001802000000000181400000000018170000000001815000000000181718482000000000009754900000000017697551900000000000000009999123100000010000000000000BRGGBRACNPR8193
012024102202ITUB3       010ITAUUNIBANCOON      N1   R$  000000000302800000000030450000000003001000000000302800000000030410000000003038000000000304102356000000000000673600000000002040048100000000000000009999123100000010000000000000BRITUBACNOR4342
012024102202ITUB4       010ITAUUNIBANCOPN      N1   R$  000000000350000000000035250000000003481000000000350300000000035160000000003515000000000351628265000000000021933400000000076843882300000000000000009999123100000010000000000000BRITUBACNPR1342
012024102202BEES3       010BANESTES    ON           R$  000000000088500000000008860000000000879000000000088100000000008790000000000879000000000088000056000000000000009000000000000007930000000000000000009999123100000010000000000000BRBEESACNOR9396
012024102202BEES4       010BANESTES    PN           R$  000000000091400000000009140000000000893000000000089900000000009030000000000895000000000090300016000000000000003000000000000002698600000000000000009999123100000010000000000000BRBEESACNPR6321
012024102202BGIP3       010BANESE      ON           R$  000000000260000000000026000000000002600000000000260000000000026000000000002500000000000000000001000000000000000100000000000000260000000000000000009999123100000010000000000000BRBGIPACNOR1210
012024102202BGIP4       010BANESE      PN           R$  000000000237600000000023760000000002355000000000236800000000023700000000002350000000000237000007000000000000001500000000000003553200000000000000009999123100000010000000000000BRBGIPACNPR8210
012024102202BHIA3       010CASAS BAHIA ON      NM   R$  000000000043800000000004410000000000421000000000042800000000004240000000000423000000000042502304000000000001920700000000000822749900000000000000009999123100000010000000000000BRBHIAACNOR1102
012024102202AALR3       010ALLIAR      ON      NM   R$  000000000122200000000012420000000001182000000000122600000000012310000000001231000000000123700114000000000000030100000000000036929400000000000000009999123100000010000000000000BRAALRACNOR6102
012024102202SLCE3       010SLC AGRICOLAON      NM   R$  000000000172000000000017420000000001713000000000173000000000017350000000001733000000000173507539000000000001786800000000003091382600000000000000009999123100000010000000000000BRSLCEACNOR2125
012024102202VALE3       010VALE        ON      NM   R$  000000000601500000000060660000000005990000000000601900000000060410000000006041000000000604328029000000000014814000000000089178851300000000000000009999123100000010000000000000BRVALEACNOR0211
012024102202VLID3       010VALID       ON      NM   R$  000000000226000000000022820000000002231000000000225100000000022650000000002240000000000226601813000000000000243800000000000548921500000000000000009999123100000010000000000000BRVLIDACNOR5144
012024102202DEXP3       010DEXXOS PAR  ON      N1   R$  000000000089200000000009090000000000888000000000089800000000008990000000000892000000000089900383000000000000060800000000000054648400000000000000009999123100000010000000000000BRDEXPACNOR1105
012024102202DEXP4       010DEXXOS PAR  PN      N1   R$  000000000089500000000008950000000000895000000000089500000000008950000000000886000000000089500003000000000000000300000000000000268500000000000000009999123100000010000000000000BRDEXPACNPR8105
012024102202DIRR3       010DIRECIONAL  ON      NM   R$  000000000299800000000030240000000002975000000000300000000000030040000000002989000000000300410019000000000003517000000000010552996100000000000000009999123100000010000000000000BRDIRRACNOR0119
012024102202DMVF3       010D1000VFARMA ON      NM   R$  000000000062700000000006420000000000623000000000063300000000006270000000000627000000000063800213000000000000054100000000000034276300000000000000009999123100000010000000000000BRDMVFACNOR9100
012024102202DOHL4       010DOHLER      PN           R$  000000000041100000000004110000000000411000000000041100000000004110000000000401000000000041200001000000000000000100000000000000041100000000000000009999123100000010000000000000BRDOHLACNPR9066
012024102202DOTZ3       010DOTZ SA     ON      NM   R$  000000000057500000000005750000000000533000000000054800000000005590000000000545000000000055800143000000000000043300000000000023760700000000000000009999123100000010000000000000BRDOTZACNOR7101
012024102207NUTR3       010NUTRIPLANT  ON      MA   R$  000000000045700000000004600000000000450000000000045500000000004510000000000451000000000045600013000000000000001400000000000000638300000000000000009999123100000010000000000000BRNUTRACNOR0104
012024102207TXRX4       010TEX RENAUX  PN           R$  000000000022000000000002200000000000215000000000021700000000002150000000000216000000000022700006000000000000005000000000000001088200000000000000009999123100000010000000000000BRTXRXACNPR0142
012024102207SEQL3       010SEQUOIA LOG ON      NM   R$  000000000036500000000005190000000000365000000000046600000000005060000000000505000000000050607052000000000006885400000000003213311400000000000000009999123100000010000000000000BRSEQLACNOR2103
012024102208CTSA3       010SANTANENSE  ON           R$  000000000020700000000002070000000000207000000000020700000000002070000000000205000000000020700004000000000000002100000000000000434700000000000000009999123100000010000000000000BRCTSAACNOR3062
012024102208CTSA4       010SANTANENSE  PN           R$  000000000011300000000001130000000000113000000000011300000000001130000000000111000000000011300005000000000000001400000000000000158200000000000000009999123100000010000000000000BRCTSAACNPR0062
012024102208AMER3       010AMERICANAS  ON      NM   R$  000000000039000000000003900000000000381000000000038400000000003840000000000383000000000038402694000000000002028300000000000779053000000000000000009999123100000010000000000000BRAMERACNOR6103
012024102208OIBR3       010OI          ON      N1   R$  000000000043700000000004410000000000433000000000043500000000004340000000000433000000000043400386000000000000162200000000000070710200000000000000009999123100000010000000000000BROIBRACNOR1112
012024102208OIBR4       010OI          PN      N1   R$  000000000099500000000010890000000000995000000000106000000000010890000000001001000000000109000022000000000000003600000000000003817700000000000000009999123100000010000000000000BROIBRACNPR8111
012024102208OSXB3       010OSX BRASIL  ON      NM   R$  000000000044100000000004550000000000421000000000044300000000004210000000000421000000000046400019000000000000003200000000000001417600000000000000009999123100000010000000000000BROSXBACNOR8109
012024102208LIGT3       010LIGHT S/A   ON      NM   R$  000000000063500000000006530000000000627000000000063700000000006480000000000646000000000065101935000000000000413800000000000263878700000000000000009999123100000010000000000000BRLIGTACNOR2124
012024102208NEXP3       010NEXPE       ON           R$  000000000044000000000004400000000000408000000000042400000000004080000000000410000000000043700002000000000000000200000000000000084800000000000000009999123100000010000000000000BRNEXPACNOR0101
012024102208ATMP3       010ATMASA      ON           R$  000000000013900000000001390000000000137000000000013800000000001370000000000137000000000013900002000000000000000200000000000000027600000000000000009999123100000010000000000000BRATMPACNOR8100
012024102208PMAM3       010PARANAPANEMAON      NM   R$  000000000011800000000001200000000000117000000000011800000000001200000000000118000000000012000085000000000000073700000000000008759200000000000000009999123100000010000000000000BRPMAMACNOR3040
012024102208AGXY3       010AGROGALAXY  ON      NM   R$  000000000005200000000000520000000000049000000000005000000000000490000000000049000000000005000220000000000000194200000000000009741600000000000000009999123100000010000000000000BRAGXYACNOR4103
012024102208RNEW11      010RENOVA      UNT     N2   R$  000000000035600000000003570000000000340000000000034200000000003400000000000340000000000034300101000000000000017700000000000006062700000000000000009999123100000010000000000000BRRNEWCDAM15110
012024102208RNEW3       010RENOVA      ON      N2   R$  000000000012200000000001220000000000111000000000011600000000001130000000000113000000000011400316000000000000263700000000000030600900000000000000009999123100000010000000000000BRRNEWACNOR8110
012024102208RNEW4       010RENOVA      PN      N2   R$  000000000012400000000001240000000000111000000000011500000000001110000000000110000000000011100700000000000000687200000000000079437900000000000000009999123100000010000000000000BRRNEWACNPR5110
012024102208RPMG3       010PET MANGUINHON           R$  000000000029700000000003040000000000284000000000029100000000002900000000000289000000000029000122000000000000029900000000000008710500000000000000009999123100000010000000000000BRRPMGACNOR9194
012024102208RSID3       010ROSSI RESID ON      NM   R$  000000000031400000000003180000000000296000000000030000000000002960000000000295000000000029600118000000000000025000000000000007505000000000000000009999123100000010000000000000BRRSIDACNOR8120
012024102208HOOT4       010HOTEIS OTHONPN           R$  000000000022400000000002260000000000224000000000022500000000002260000000000226000000000022700004000000000000000700000000000000158000000000000000009999123100000010000000000000BRHOOTACNPR9015
012024102208JFEN3       010JOAO FORTES ON           R$  000000000002800000000000280000000000027000000000002700000000000280000000000027000000000002800081000000000000310900000000000008643800000000000000009999123100000010000000000000BRJFENACNOR0059
012024102210PMAM1       010PARANAPANEMADIR ORD NM   R$  000000000000100000000000010000000000001000000000000100000000000010000000000000000000000000100228000000000000563300000000000000563300000000000000009999123100000010000000000000BRPMAMD05OR9039
012024102210PINE1       010PINE        DIR ORD N2   R$  000000000008000000000000900000000000067000000000007600000000000700000000000072000000000007900028000000000000004800000000000000366600000000000000009999123100000010000000000000BRPINED04OR0150
012024102210PINE2       010PINE        DIR PRE N2   R$  000000000009000000000000900000000000050000000000006300000000000760000000000050000000000008000012000000000000002800000000000000177400000000000000009999123100000010000000000000BRPINED06PR2150
012024102210CBEE1       010AMPLA ENERG DIR ORD      R$  000000000005000000000000510000000000050000000000005000000000000510000000000050000000000007500003000000000000000300000000000000015100000000000000009999123100000010000000000000BRCBEED07OR5159
012024102210HBSA1       010HIDROVIAS   DIR ORD NM   R$  000000000000200000000000030000000000002000000000000200000000000030000000000002000000000000300036000000000000084400000000000000204100000000000000009999123100000010000000000000BRHBSAD01OR5100
012024102212KEVE11      010FII EVEN II CI           R$  000000010750000000001075000000000107000000000010747000000001070000000000106502000000010890000034000000000000000508000000000054595000000000000000009999123100000010000000000000BRKEVECTF007118
012024102212KFOF11      010FII KINEAFOFCI           R$  000000000773100000000077560000000007671000000000770500000000077120000000007700000000000771204041000000000000033248000000000256205521000000000000009999123100000010000000000000BRKFOFCTF006173
012024102212KISU11      010FII KILIMA  CI           R$  000000000075300000000007530000000000740000000000074400000000007480000000000747000000000074801896000000000000113489000000000084541734000000000000009999123100000010000000000000BRKISUCTF000148
012024102212KIVO11      010FII KIVO    CI           R$  000000000702300000000071080000000006900000000000697000000000070110000000006912000000000701104065000000000000014171000000000098780929000000000000009999123100000010000000000000BRKIVOCTF007131
012024102212KNCR11      010FII KINEA RICI  ES       R$  000000001039300000000103930000000010327000000001036000000000103720000000010370000000001037214442000000000000125847000000001303889312000000000000009999123100000010000000000000BRKNCRCTF000245
012024102212KNCR12      010FII KINEA RIDIR          R$  000000000002600000000001050000000000026000000000005000000000000500000000000049000000000005104105000000000000555227000000000028085995000000000000009999123100000010000000000000BRKNCRD02M15244
012024102212KNHF11      010FII KINEA HFCI           R$  000000000890100000000089270000000008850000000000889800000000088610000000008861000000000889303911000000000000060540000000000538694489000000000000009999123100000010000000000000BRKNHFCTF004115
012024102212KNHY11      010FII KINEA HYCI           R$  000000001032600000000104440000000010322000000001035900000000103900000000010372000000001039004197000000000000038501000000000398834981000000000000009999123100000010000000000000BRKNHYCTF005176
012024102212KNIP11      010FII KINEA IPCI           R$  000000000912700000000091940000000009113000000000916400000000091800000000009174000000000918016200000000000000148948000000001365079408000000000000009999123100000010000000000000BRKNIPCTF001197
012024102212KNRE11      010FII KII REALCI           R$  000000000002700000000000310000000000027000000000002800000000000300000000000029000000000003000038000000000000006209000000000000176454000000000000009999123100000010000000000000BRKNRECTF006129
012024102212KNRI11      010FII KINEA   CI           R$  000000001386000000000139030000000013757000000001381200000000137960000000013796000000001381710710000000000000046722000000000645343210000000000000009999123100000010000000000000BRKNRICTF007268
012024102212KNSC11      010FII KINEA SCCI           R$  000000000089600000000008990000000000886000000000089000000000008910000000000891000000000089213134000000000000646511000000000575594707000000000000009999123100000010000000000000BRKNSCCTF008152
012024102212KNUQ11      010FII KINEA UNCI           R$  000000001029900000000103320000000010290000000001029800000000103000000000010299000000001030001834000000000000026720000000000275162990000000000000009999123100000010000000000000BRKNUQCTF004117
012024102212KORE11      010FII KORE    CI           R$  000000000920000000000092860000000009147000000000919600000000092120000000009212000000000921300748000000000000030471000000000280232499000000000000009999123100000010000000000000BRKORECTF012110
012024102212BPFF11      010FII ABSOLUTOCI           R$  000000000636300000000063860000000006280000000000632700000000062830000000006283000000000629000903000000000000004990000000000031574559000000000000009999123100000010000000000000BRBPFFCTF002240
012024102212BPML11      010FII BTG SHOPCI  ER       R$  000000000796000000000082730000000007960000000000803000000000080290000000008029000000000811101631000000000000024956000000000200405894000000000000009999123100000010000000000000BRBPMLCTF006135
012024102212CRFF11      010FII CX RBRA2CI           R$  000000000751600000000077800000000007510000000000752000000000077800000000007510000000000778700007000000000000000028000000000000210581000000000000009999123100000010000000000000BRCRFFCTF006165
012024102212CTXT11      010FII C TEXTILCI           R$  000000000071700000000007340000000000712000000000071400000000007120000000000712000000000073100015000000000000000217000000000000154979000000000000009999123100000010000000000000BRCTXTCTF014207
012024102212CVBI11      010FII VBI CRI CI           R$  000000000866000000000087330000000008640000000000868800000000087090000000008650000000000870903054000000000000021743000000000188910042000000000000009999123100000010000000000000BRCVBICTF001170
012024102212FAED11      010FII ANH EDUCCI           R$  000000001450400000000145760000000013999000000001434300000000142000000000014100000000001438700146000000000000000657000000000009423438000000000000009999123100000010000000000000BRFAEDCTF003282
012024102212FAMB11      010FII ALMIRANTCI           R$  000000018601900000001920000000000186018000000019138200000001920000000000186519000000019200000022000000000000000067000000000012822624000000000000009999123100000010000000000000BRFAMBCTF018316
012024102212MALL11      010FII MALLS BPCI           R$  000000001000000000000100300000000009957000000000999300000000100300000000010000000000001003004338000000000000018147000000000181360258000000000000009999123100000010000000000000BRMALLCTF007185
012024102212MANA11      010FII MANATI  CI           R$  000000000086100000000008660000000000856000000000086000000000008600000000000859000000000086003146000000000000103403000000000089006201000000000000009999123100000010000000000000BRMANACTF006129
012024102212MAXR11      010FII MAX RET CI           R$  000000000665300000000066540000000006648000000000664900000000066480000000006648000000000667200053000000000000001098000000000007301114000000000000009999123100000010000000000000BRMAXRCTF009272
012024102212MCCI11      010FII MAUA    CI  ER       R$  000000000820700000000082690000000008155000000000819800000000081750000000008175000000000819204264000000000000032086000000000263041218000000000000009999123100000010000000000000BRMCCICTF008166
012024102212NVHO11      010FII NOVOHORICI           R$  000000000121700000000012170000000001203000000000120900000000012030000000001202000000000121400008000000000000000047000000000000056855000000000000009999123100000010000000000000BRNVHOCTF003232
012024102212FATN11      010FII ATHENA ICI           R$  000000000897400000000089800000000008897000000000892600000000088990000000008899000000000890000604000000000000007978000000000071216420000000000000009999123100000010000000000000BRFATNCTF000156
012024102212FCFL11      010FII CAMPUSFLCI  ER       R$  000000001123200000000113020000000011225000000001126500000000112620000000011200000000001126200099000000000000002329000000000026238102000000000000009999123100000010000000000000BRFCFLCTF009274
012024102212FIGS11      010FII GEN SHOPCI           R$  000000000512900000000051570000000005029000000000506900000000050980000000005047000000000509800157000000000000001855000000000009403995000000000000009999123100000010000000000000BRFIGSCTF009232
012024102212FIIB11      010FII INDL BR CI           R$  000000004949900000000495950000000049004000000004941100000000490170000000049017000000004940000174000000000000000727000000000035922515000000000000009999123100000010000000000000BRFIIBCTF001255
012024102212FIIP11      010FII RB CAP ICI  ATZ      R$  000000001639000000000163900000000015400000000001565600000000156000000000015600000000001573500077000000000000001911000000000029919729000000000000009999123100000010000000000000BRFIIPCTF001279
012024102212FISC11      010FII SC 401  CI           R$  000000000750000000000075000000000007500000000000750000000000075000000000006102000000000741000001000000000000000010000000000000075000000000000000009999123100000010000000000000BRFISCCTF008140
012024102212FIVN11      010FII VIDANOVACI           R$  000000000023000000000002390000000000229000000000023800000000002390000000000230000000000023900009000000000000000080000000000000019047000000000000009999123100000010000000000000BRFIVNCTF009100
012024102212FLCR11      010FII FL RECEBCI           R$  000000000980000000000098340000000009580000000000975300000000097590000000009750000000000975900309000000000000001097000000000010699628000000000000009999123100000010000000000000BRFLCRCTF004146
012024102212FLMA11      010FII S F LIMACI           R$  000000001368200000000137150000000013670000000001369100000000136760000000013675000000001369900063000000000000000490000000000006708664000000000000009999123100000010000000000000BRFLMACTF009346
012024102212FLRP11      010FII FLORIPA CI           R$  000000019800000000001980000000000198000000000019800000000001980000000000197136000000019989700003000000000000000006000000000001188000000000000000009999123100000010000000000000BRFLRPCTF006275
012024102212FMOF11      010FII MEMORIALCI           R$  000000000400200000000040020000000004002000000000400200000000040020000000004000000000000446900001000000000000000016000000000000064032000000000000009999123100000010000000000000BRFMOFCTF010258
012024102212FPAB11      010FII A BRANCACI           R$  000000002349900000000235000000000022800000000002310000000000228000000000022800000000002350000012000000000000000025000000000000577502000000000000009999123100000010000000000000BRFPABCTF011318
012024102212FPNG11      010FII P NEGRA CI           R$  000000002500000000000250000000000025000000000002500000000000250000000000009000000000000000000001000000000000000004000000000000100000000000000000009999123100000010000000000000BRFPNGCTF005191
012024102212FVPQ11      010FII V PARQUECI           R$  000000000600700000000060430000000005952000000000598600000000059540000000005954000000000600000582000000000000000831000000000004974881000000000000009999123100000010000000000000BRFVPQCTF015263
012024102212IRDM11      010FII IRIDIUM CI           R$  000000000672000000000067980000000006500000000000661000000000065400000000006538000000000654007526000000000000083290000000000550590830000000000000009999123100000010000000000000BRIRDMCTF004190
012024102212IRIM11      010FII IRIM    CI           R$  000000000694600000000069470000000006790000000000681900000000067900000000006790000000000682900059000000000000001426000000000009724992000000000000009999123100000010000000000000BRIRIMCTF003139
012024102212ITIP11      010FII INTER IPCI           R$  000000000749900000000074990000000007400000000000747300000000074000000000007381000000000740100059000000000000001996000000000014916303000000000000009999123100000010000000000000BRITIPCTF002133
012024102212ITIT11      010FII INTER ITCI           R$  000000000750000000000075000000000007320000000000739300000000074000000000007358000000000740000213000000000000002927000000000021641566000000000000009999123100000010000000000000BRITITCTF004133
012024102212ITRI11      010FII ITRI    CI           R$  000000000811800000000081940000000008081000000000814700000000081110000000008111000000000816804710000000000000032262000000000262845197000000000000009999123100000010000000000000BRITRICTF008106
