00COTAHIST.2024BOVESPA 20241007                                                                                                                                                                                                                      
012024100702ZAMP3       010ZAMP S.A.   ON           R$  000000000026800000000002720000000000258000000000026300000000002590000000000259000000000026001316000000000000352800000000000092794400000000000000009999123100000010000000000000BRZAMPACNOR5101
012024100702BRAV3       010BRAVA       ON      NM   R$  000000000181300000000018440000000001802000000000183000000000018390000000001837000000000183910693000000000005871600000000010749592300000000000000009999123100000010000000000000BRBRAVACNOR3100
012024100702CPFE3       010CPFL ENERGIAON      NM   R$  000000000341300000000034280000000003394000000000340400000000034000000000003399000000000340404187000000000001144700000000003897069900000000000000009999123100000010000000000000BRCPFEACNOR0137
012024100702CPLE3       010COPEL       ON  EDJ N2   R$  000000000090200000000009080000000000900000000000090300000000009050000000000903000000000090605950000000000003251100000000002937753300000000000000009999123100000010000000000000BRCPLEACNOR8150
012024100702CPLE6       010COPEL       PNB EDJ N2   R$  000000000100500000000010140000000001001000000000100800000000010100000000001009000000000101119327000000000015349600000000015481292800000000000000009999123100000010000000000000BRCPLEACNPB9147
012024100702SOND5       010SONDOTECNICAPNA          R$  000000000470100000000047010000000004700000000000470000000000047000000000004700000000000509900003000000000000000300000000000001410200000000000000009999123100000010000000000000BRSONDACNPA8166
012024100702SRNA3       010SERENA      ON      NM   R$  000000000080900000000008150000000000791000000000080000000000008030000000000801000000000080306523000000000002040400000000001632530600000000000000009999123100000010000000000000BRSRNAACNOR4100
012024100702STBP3       010SANTOS BRP  ON      NM   R$  000000000147500000000014750000000001458000000000146400000000014680000000001463000000000146807619000000000004892900000000007167017100000000000000009999123100000010000000000000BRSTBPACNOR3131
012024100702SUZB3       010SUZANO S.A. ON      NM   R$  000000000558000000000056380000000005541000000000558100000000055790000000005577000000000558016869000000000003328500000000018577181000000000000000009999123100000010000000000000BRSUZBACNOR0130
012024100702VTRU3       010VITRUEDUCA  ON      NM   R$  000000000092800000000009430000000000903000000000091600000000009080000000000908000000000092200458000000000000149600000000000137167200000000000000009999123100000010000000000000BRVTRUACNOR3100
012024100702VULC3       010VULCABRAS   ON      NM   R$  000000000169300000000016980000000001656000000000166800000000016600000000001660000000000166501822000000000000428900000000000715417800000000000000009999123100000010000000000000BRVULCACNOR2162
012024100702VVEO3       010VIVEO       ON      NM   R$  000000000018000000000001860000000000180000000000018200000000001820000000000182000000000018301688000000000001022200000000000186364000000000000000009999123100000010000000000000BRVVEOACNOR0104
012024100702WEGE3       010WEG         ON  EJ  NM   R$  000000000546500000000054710000000005336000000000538100000000053400000000005339000000000534016744000000000005409300000000029112715200000000000000009999123100000010000000000000BRWEGEACNOR0225
012024100702CMIG4       010CEMIG       PN      N1   R$  000000000112200000000011320000000001113000000000112200000000011190000000001118000000000111912260000000000008337700000000009360938900000000000000009999123100000010000000000000BRCMIGACNPR3245
012024100702CMIN3       010CSNMINERACAOON  EDJ N2   R$  000000000063700000000006400000000000624000000000063100000000006280000000000628000000000062908236000000000008774900000000005543306800000000000000009999123100000010000000000000BRCMINACNOR2112
012024100702ENEV3       010ENEVA       ON      NM   R$  000000000142000000000014240000000001396000000000140200000000013970000000001397000000000140314517000000000005464000000000007665148700000000000000009999123100000010000000000000BRENEVACNOR8106
012024100702ENGI11      010ENERGISA    UNT     N2   R$  000000000443600000000044600000000004372000000000439900000000043820000000004379000000000438207718000000000001677100000000007377783300000000000000009999123100000010000000000000BRENGICDAM16136
012024100702ENGI3       010ENERGISA    ON      N2   R$  000000000135400000000013540000000001318000000000133600000000013180000000001317000000000133400016000000000000001800000000000002405300000000000000009999123100000010000000000000BRENGIACNOR0146
012024100702ENGI4       010ENERGISA    PN      N2   R$  000000000078000000000007810000000000765000000000077100000000007730000000000767000000000077500040000000000000008500000000000006558200000000000000009999123100000010000000000000BRENGIACNPR7142
012024100702CRFB3       010CARREFOUR BRON      NM   R$  000000000084600000000008500000000000791000000000081200000000007910000000000791000000000079217885000000000014320600000000011628726100000000000000009999123100000010000000000000BRCRFBACNOR2116
012024100702MELK3       010MELNICK     ON      NM   R$  000000000036400000000003700000000000358000000000036100000000003600000000000360000000000036300566000000000000337700000000000122211900000000000000009999123100000010000000000000BRMELKACNOR8111
012024100702MGEL4       010MANGELS INDLPN           R$  000000000109400000000011000000000001094000000000109800000000011000000000001100000000000110500006000000000000002500000000000002746900000000000000009999123100000010000000000000BRMGELACNPR3147
012024100702MGLU3       010MAGAZ LUIZA ON      NM   R$  000000000098100000000009930000000000938000000000095800000000009510000000000950000000000095125039000000000024196000000000023181313900000000000000009999123100000010000000000000BRMGLUACNOR2125
012024100702MAPT4       010CEMEPE      PN           R$  000000000044000000000004400000000000440000000000044000000000004400000000000400000000000054000001000000000000000100000000000000044000000000000000009999123100000010000000000000BRMAPTACNPR5106
012024100702MATD3       010MATER DEI   ON      NM   R$  000000000046400000000004660000000000455000000000046200000000004600000000000457000000000046001951000000000000627600000000000290042500000000000000009999123100000010000000000000BRMATDACNOR4104
012024100702MBLY3       010MOBLY       ON      NM   R$  000000000022700000000002290000000000210000000000022000000000002290000000000224000000000022901770000000000000991600000000000218759500000000000000009999123100000010000000000000BRMBLYACNOR5100
012024100702MDIA3       010M.DIASBRANCOON      NM   R$  000000000267100000000026900000000002646000000000266600000000026660000000002663000000000267503089000000000000622700000000001660459500000000000000009999123100000010000000000000BRMDIAACNOR7136
012024100702MDNE3       010MOURA DUBEUXON      NM   R$  000000000157800000000016120000000001548000000000158500000000015950000000001594000000000159903649000000000000780100000000001236885300000000000000009999123100000010000000000000BRMDNEACNOR9100
012024100702MEAL3       010IMC S/A     ON      NM   R$  000000000014300000000001450000000000138000000000014000000000001390000000000139000000000014000245000000000000324100000000000045461800000000000000009999123100000010000000000000BRMEALACNOR9105
012024100702REDE3       010REDE ENERGIAON           R$  000000000068700000000006880000000000680000000000068400000000006880000000000688000000000069300024000000000000004400000000000003013000000000000000009999123100000010000000000000BRREDEACNOR7128
012024100702RENT3       010LOCALIZA    ON  EJ  NM   R$  000000000426300000000042740000000004137000000000417500000000041420000000004142000000000414619097000000000004954400000000020687531000000000000000009999123100000010000000000000BRRENTACNOR4197
012024100702BEEF3       010MINERVA     ON      NM   R$  000000000064200000000006430000000000621000000000062700000000006240000000000623000000000062407416000000000006052400000000003800064500000000000000009999123100000010000000000000BRBEEFACNOR6116
012024100702CRPG3       010CRISTAL     ON           R$  000000000280000000000028000000000002800000000000280000000000028000000000002650000000000320000001000000000000000100000000000000280000000000000000009999123100000010000000000000BRCRPGACNOR0119
012024100702CRPG5       010CRISTAL     PNA          R$  000000000266400000000026640000000002551000000000260300000000025510000000002551000000000258000027000000000000004000000000000010412300000000000000009999123100000010000000000000BRCRPGACNPA3119
012024100702CRPG6       010CRISTAL     PNB          R$  000000000260100000000026010000000002351000000000248400000000025500000000002550000000000259900030000000000000004000000000000009939900000000000000009999123100000010000000000000BRCRPGACNPB1119
012024100702CSAN3       010COSAN       ON      NM   R$  000000000133700000000013430000000001293000000000130600000000013050000000001304000000000130614699000000000008712600000000011387203000000000000000009999123100000010000000000000BRCSANACNOR6126
012024100702LREN3       010LOJAS RENNERON      NM   R$  000000000182800000000018300000000001754000000000177200000000017700000000001764000000000177017315000000000009531800000000016896689400000000000000009999123100000010000000000000BRLRENACNOR1222
012024100702EGIE3       010ENGIE BRASILON      NM   R$  000000000421400000000042240000000004180000000000420600000000042050000000004205000000000420904452000000000001057200000000004447394400000000000000009999123100000010000000000000BREGIEACNOR9127
012024100702AERI3       010AERIS       ON      NM   R$  000000000063100000000006710000000000620000000000063500000000006250000000000625000000000062901597000000000000348800000000000221567300000000000000009999123100000010000000000000BRAERIACNOR4102
012024100702AESB3       010AES BRASIL  ON      NM   R$  000000000117300000000011760000000001171000000000117200000000011710000000001171000000000117303117000000000003012500000000003530769200000000000000009999123100000010000000000000BRAESBACNOR7107
012024100702AGRO3       010BRASILAGRO  ON      NM   R$  000000000254900000000025490000000002514000000000252100000000025150000000002515000000000252400909000000000000146300000000000368872900000000000000009999123100000010000000000000BRAGROACNOR7114
012024100702KLBN3       010KLABIN S/A  ON      N2   R$  000000000042700000000004310000000000425000000000042800000000004290000000000427000000000043000505000000000000202800000000000086910800000000000000009999123100000010000000000000BRKLBNACNOR2171
012024100702KLBN4       010KLABIN S/A  PN      N2   R$  000000000042700000000004290000000000423000000000042600000000004250000000000425000000000042701634000000000000907600000000000387148300000000000000009999123100000010000000000000BRKLBNACNPR9171
012024100702MTRE3       010MITRE REALTYON      NM   R$  000000000038400000000003850000000000378000000000038100000000003790000000000378000000000037900632000000000000295500000000000112650000000000000000009999123100000010000000000000BRMTREACNOR6115
012024100702MTSA4       010METISA      PN           R$  000000000373200000000037970000000003732000000000377900000000037940000000003709000000000379500004000000000000000400000000000001511700000000000000009999123100000010000000000000BRMTSAACNPR9073
012024100702MULT3       010MULTIPLAN   ON      N2   R$  000000000258300000000025960000000002553000000000257700000000025840000000002578000000000258413364000000000002781900000000007169916300000000000000009999123100000010000000000000BRMULTACNOR5139
012024100702MWET4       010WETZEL S/A  PN           R$  000000000085700000000008570000000000857000000000085700000000008570000000000857000000000091500002000000000000000300000000000000257100000000000000009999123100000010000000000000BRMWETACNPR3118
012024100702MYPK3       010IOCHP-MAXIONON  EJ  NM   R$  000000000105600000000010610000000001034000000000104200000000010370000000001036000000000103706272000000000001452000000000001513381600000000000000009999123100000010000000000000BRMYPKACNOR7156
012024100702UCAS3       010UNICASA     ON      NM   R$  000000000021800000000002200000000000218000000000021900000000002180000000000218000000000021900071000000000000015100000000000003311200000000000000009999123100000010000000000000BRUCASACNOR1113
012024100702UGPA3       010ULTRAPAR    ON      NM   R$  000000000213400000000021440000000002093000000000210800000000021040000000002098000000000210810050000000000003455300000000007286070900000000000000009999123100000010000000000000BRUGPAACNOR8156
012024100702HBOR3       010HELBOR      ON      NM   R$  000000000019200000000001960000000000188000000000019100000000001900000000000190000000000019200589000000000000283700000000000054457600000000000000009999123100000010000000000000BRHBORACNOR3118
012024100702HBRE3       010HBR REALTY  ON      NM   R$  000000000045900000000004650000000000454000000000046000000000004630000000000459000000000046300853000000000000428600000000000197225200000000000000009999123100000010000000000000BRHBREACNOR4100
012024100702HBSA3       010HIDROVIAS   ON  ES  NM   R$  000000000034100000000003420000000000334000000000033800000000003390000000000339000000000034005396000000000002300200000000000778530400000000000000009999123100000010000000000000BRHBSAACNOR0101
012024100702BPAN4       010BANCO PAN   PN      N1   R$  000000000097500000000009820000000000956000000000097100000000009770000000000974000000000097703573000000000001003700000000000975256900000000000000009999123100000010000000000000BRBPANACNPR1115
012024100702BRAP3       010BRADESPAR   ON      N1   R$  000000000183500000000018620000000001826000000000184100000000018390000000001828000000000184000398000000000000074000000000000136297600000000000000009999123100000010000000000000BRBRAPACNOR5148
012024100702BRAP4       010BRADESPAR   PN      N1   R$  000000000199400000000020100000000001975000000000199300000000019840000000001983000000000198405980000000000002094300000000004175844900000000000000009999123100000010000000000000BRBRAPACNPR2148
012024100702COCE3       010COELCE      ON           R$  000000000291600000000029160000000002916000000000291600000000029160000000002915000000000307900002000000000000000200000000000000583200000000000000009999123100000010000000000000BRCOCEACNOR0146
012024100702COCE5       010COELCE      PNA          R$  000000000269000000000027000000000002673000000000268200000000026740000000002674000000000268000038000000000000008300000000000022267600000000000000009999123100000010000000000000BRCOCEACNPA3147
012024100702COGN3       010COGNA ON    ON      NM   R$  000000000012700000000001300000000000124000000000012600000000001260000000000126000000000012710243000000000037359800000000004724672700000000000000009999123100000010000000000000BRCOGNACNOR2105
012024100702INEP4       010INEPAR      PN           R$  000000000018900000000001900000000000182000000000018300000000001820000000000182000000000018400086000000000000032900000000000006049500000000000000009999123100000010000000000000BRINEPACNPR8143
012024100702ITUB3       010ITAUUNIBANCOON  EJ  N1   R$  000000000306400000000030700000000003034000000000305200000000030520000000003046000000000305201720000000000000358600000000001094542500000000000000009999123100000010000000000000BRITUBACNOR4342
012024100702ITUB4       010ITAUUNIBANCOPN  EJ  N1   R$  000000000352000000000035320000000003485000000000351100000000035140000000003513000000000351522970000000000023310400000000081862044900000000000000009999123100000010000000000000BRITUBACNPR1342
012024100702WIZC3       010WIZ CO      ON      NM   R$  000000000057200000000006080000000000572000000000059800000000006080000000000606000000000060902207000000000000972700000000000581753400000000000000009999123100000010000000000000BRWIZCACNOR5102
012024100702WLMM4       010WLM IND COM PN           R$  000000000314500000000033990000000003145000000000321100000000033990000000002969000000000336900003000000000000000400000000000001284400000000000000009999123100000010000000000000BRWLMMACNPR3119
012024100702GMAT3       010GRUPO MATEUSON  EJ  NM   R$  000000000072900000000007420000000000721000000000072700000000007270000000000725000000000072704736000000000002430500000000001767561400000000000000009999123100000010000000000000BRGMATACNOR7103
012024100702GOAU3       010GERDAU MET  ON      N1   R$  000000000104800000000010500000000001036000000000104200000000010400000000001040000000000104600784000000000000149700000000000156104600000000000000009999123100000010000000000000BRGOAUACNOR1268
012024100702GOAU4       010GERDAU MET  PN      N1   R$  000000000109200000000010960000000001076000000000108700000000010910000000001091000000000109210893000000000006785200000000007380419700000000000000009999123100000010000000000000BRGOAUACNPR8269
012024100702CXSE3       010CAIXA SEGURION      NM   R$  000000000145000000000014500000000001423000000000143600000000014260000000001426000000000142907758000000000005598700000000008043966400000000000000009999123100000010000000000000BRCXSEACNOR7107
012024100702CYRE3       010CYRELA REALTON      NM   R$  000000000215300000000021640000000002107000000000213200000000021340000000002131000000000213514528000000000004833700000000010305750500000000000000009999123100000010000000000000BRCYREACNOR7140
012024100702RADL3       010RAIADROGASILON  EDJ NM   R$  000000000255700000000025600000000002474000000000250100000000025110000000002509000000000251617301000000000007902000000000019767711000000000000000009999123100000010000000000000BRRADLACNOR0158
012024100702SAPR11      010SANEPAR     UNT     N2   R$  000000000279000000000028220000000002738000000000279200000000028090000000002797000000000280909831000000000001848800000000005163342500000000000000009999123100000010000000000000BRSAPRCDAM13118
012024100702SAPR3       010SANEPAR     ON      N2   R$  000000000052900000000005380000000000525000000000053200000000005330000000000533000000000053800602000000000000223900000000000119202100000000000000009999123100000010000000000000BRSAPRACNOR9159
012024100702SAPR4       010SANEPAR     PN      N2   R$  000000000056800000000005740000000000556000000000056600000000005720000000000571000000000057203239000000000001642900000000000930911200000000000000009999123100000010000000000000BRSAPRACNPR6159
012024100702GEPA3       010GER PARANAP ON  ED       R$  000000000289900000000028990000000002675000000000278700000000026750000000002600000000000289900002000000000000000200000000000000557400000000000000009999123100000010000000000000BRGEPAACNOR2154
012024100702GEPA4       010GER PARANAP PN  ED       R$  000000000283100000000028900000000002831000000000284100000000028320000000002775000000000283200005000000000000000600000000000001704700000000000000009999123100000010000000000000BRGEPAACNPR9161
012024100702GFSA3       010GAFISA      ON      NM   R$  000000000021400000000002160000000000201000000000020600000000002010000000000201000000000020202755000000000004038700000000000832462600000000000000009999123100000010000000000000BRGFSAACNOR3125
012024100702GGBR3       010GERDAU      ON      N1   R$  000000000168000000000017160000000001677000000000170000000000017110000000001705000000000171600394000000000000048300000000000082140500000000000000009999123100000010000000000000BRGGBRACNOR1193
012024100702GGBR4       010GERDAU      PN      N1   R$  000000000192800000000019470000000001899000000000193200000000019420000000001941000000000194318292000000000011451600000000022135657800000000000000009999123100000010000000000000BRGGBRACNPR8193
012024100702CSUD3       010CSU DIGITAL ON  EJ  NM   R$  000000000175400000000017540000000001717000000000173400000000017300000000001730000000000173200175000000000000041800000000000072493200000000000000009999123100000010000000000000BRCSUDACNOR5111
012024100702CTKA4       010KARSTEN     PN           R$  000000000190000000000019000000000001861000000000188000000000018610000000001860000000000204400003000000000000001200000000000002256100000000000000009999123100000010000000000000BRCTKAACNPR7043
012024100702CURY3       010CURY S/A    ON  ED  NM   R$  000000000224000000000022760000000002223000000000224500000000022410000000002235000000000224106375000000000002574200000000005779321600000000000000009999123100000010000000000000BRCURYACNOR3110
012024100702CVCB3       010CVC BRASIL  ON      NM   R$  000000000018400000000001860000000000182000000000018300000000001820000000000182000000000018305271000000000010101700000000001854062000000000000000009999123100000010000000000000BRCVCBACNOR1116
012024100702WEST3       010WESTWING    ON      NM   R$  000000000008300000000000830000000000082000000000008200000000000820000000000081000000000008300016000000000000010100000000000000829500000000000000009999123100000010000000000000BRWESTACNOR3100
012024100702WHRL3       010WHIRLPOOL   ON           R$  000000000043500000000004530000000000424000000000043200000000004240000000000424000000000043400041000000000000010300000000000004450900000000000000009999123100000010000000000000BRWHRLACNOR5129
012024100702WHRL4       010WHIRLPOOL   PN           R$  000000000046100000000004610000000000449000000000045500000000004490000000000449000000000045500080000000000000030500000000000013881800000000000000009999123100000010000000000000BRWHRLACNPR2129
012024100702ITSA3       010ITAUSA      ON      N1   R$  000000000106600000000010710000000001059000000000106600000000010630000000001063000000000106700522000000000000113600000000000121126300000000000000009999123100000010000000000000BRITSAACNOR0443
012024100702ITSA4       010ITAUSA      PN      N1   R$  000000000106500000000010720000000001057000000000106500000000010660000000001065000000000106617017000000000015545000000000016564426900000000000000009999123100000010000000000000BRITSAACNPR7443
012024100702ODPV3       010ODONTOPREV  ON  EJ  NM   R$  000000000109300000000011470000000001093000000000112900000000011470000000001147000000000114805344000000000001881900000000002125122000000000000000009999123100000010000000000000BRODPVACNOR4204
012024100702OFSA3       010OUROFINO S/AON      NM   R$  000000000200300000000020030000000002000000000000200000000000020000000000002000000000000206900009000000000000006600000000000013201000000000000000009999123100000010000000000000BROFSAACNOR7118
012024100702BMEB4       010MERCANTIL   PN      N1   R$  000000000389100000000039880000000003890000000000393200000000039450000000003945000000000397500151000000000000026800000000000105385300000000000000009999123100000010000000000000BRBMEBACNPR5211
012024100702BMGB4       010BANCO BMG   PN      N1   R$  000000000041000000000004160000000000404000000000040900000000004110000000000408000000000041102426000000000001042500000000000426491200000000000000009999123100000010000000000000BRBMGBACNPR0110
012024100702FRAS3       010FRAS-LE     ON      N1   R$  000000000213900000000021390000000002090000000000210900000000021110000000002111000000000211501033000000000000168400000000000355156800000000000000009999123100000010000000000000BRFRASACNOR0160
012024100702FRIO3       010METALFRIO   ON      NM   R$  000000001130100000000113010000000010401000000001065300000000106570000000010620000000001188700014000000000000001400000000000014914300000000000000009999123100000010000000000000BRFRIOACNOR2111
012024100702ELET3       010ELETROBRAS  ON      N1   R$  000000000385300000000038720000000003808000000000382500000000038150000000003815000000000381811179000000000004414900000000016888909800000000000000009999123100000010000000000000BRELETACNOR6160
012024100702ELET6       010ELETROBRAS  PNB     N1   R$  000000000431300000000043130000000004241000000000426400000000042570000000004257000000000426003302000000000000709700000000003026694700000000000000009999123100000010000000000000BRELETACNPB7077
012024100702SMFT3       010SMART FIT   ON      NM   R$  000000000221600000000022260000000002161000000000217700000000021800000000002177000000000218505505000000000001525700000000003322122300000000000000009999123100000010000000000000BRSMFTACNOR1112
012024100702SMTO3       010SAO MARTINHOON      NM   R$  000000000279000000000028330000000002750000000000278900000000027920000000002792000000000280906261000000000000974700000000002719296600000000000000009999123100000010000000000000BRSMTOACNOR3127
012024100702SANB11      010SANTANDER BRUNT          R$  000000000286500000000028880000000002851000000000287000000000028710000000002871000000000287406699000000000001594700000000004577420900000000000000009999123100000010000000000000BRSANBCDAM13165
012024100702SANB3       010SANTANDER BRON           R$  000000000136400000000013740000000001361000000000136600000000013610000000001360000000000137000210000000000000028400000000000038815900000000000000009999123100000010000000000000BRSANBACNOR8172
012024100702SANB4       010SANTANDER BRPN           R$  000000000150000000000015110000000001491000000000150100000000015030000000001501000000000150300259000000000000036600000000000054972700000000000000009999123100000010000000000000BRSANBACNPR5172
012024100702BAHI3       010BAHEMA      ON      MA   R$  000000000060600000000006060000000000596000000000060200000000006010000000000581000000000060000015000000000000004200000000000002530600000000000000009999123100000010000000000000BRBAHIACNOR1074
012024100702BALM4       010BAUMER      PN           R$  000000000102500000000010250000000001025000000000102500000000010250000000001021000000000108500001000000000000000200000000000000205000000000000000009999123100000010000000000000BRBALMACNPR2056
012024100702BAZA3       010AMAZONIA    ON           R$  000000000926900000000092690000000009166000000000921000000000091660000000009112000000000925500015000000000000002300000000000021184800000000000000009999123100000010000000000000BRBAZAACNOR0179
012024100702SNSY3       010SANSUY      ON           R$  000000000127500000000012750000000001275000000000127500000000012750000000001185000000000125900001000000000000000200000000000000255000000000000000009999123100000010000000000000BRSNSYACNOR2113
012024100702SNSY5       010SANSUY      PNA          R$  000000000052500000000005450000000000525000000000052500000000005450000000000523000000000053400004000000000000007300000000000003834500000000000000009999123100000010000000000000BRSNSYACNPA5111
012024100702SOJA3       010BOA SAFRA   ON  EJ  NM   R$  000000000119900000000012370000000001199000000000122400000000012370000000001230000000000123703026000000000000687900000000000842612200000000000000009999123100000010000000000000BRSOJAACNOR9106
012024100702ATOM3       010ATOMPAR     ON           R$  000000000025200000000002560000000000236000000000024100000000002420000000000236000000000024200081000000000000027800000000000006711600000000000000009999123100000010000000000000BRATOMACNOR1106
012024100702AURE3       010AUREN       ON      NM   R$  000000000103800000000010400000000001020000000000102400000000010240000000001024000000000102509935000000000005940100000000006087739900000000000000009999123100000010000000000000BRAUREACNOR9104
012024100702AVLL3       010ALPHAVILLE  ON      NM   R$  000000000030800000000003120000000000307000000000031000000000003120000000000307000000000031200006000000000000001700000000000000527300000000000000009999123100000010000000000000BRAVLLACNOR5103
012024100702BGIP4       010BANESE      PN           R$  000000000246000000000024600000000002460000000000246000000000024600000000002450000000000249000001000000000000000100000000000000246000000000000000009999123100000010000000000000BRBGIPACNPR8210
012024100702BHIA3       010CASAS BAHIA ON      NM   R$  000000000047000000000004760000000000450000000000046100000000004530000000000452000000000045304466000000000002624500000000001211358800000000000000009999123100000010000000000000BRBHIAACNOR1102
012024100702CSED3       010CRUZEIRO EDUON      NM   R$  000000000033000000000003330000000000322000000000032500000000003220000000000321000000000032600936000000000000479900000000000156255800000000000000009999123100000010000000000000BRCSEDACNOR9105
012024100702CSMG3       010COPASA      ON      NM   R$  000000000230700000000023110000000002279000000000228600000000022840000000002284000000000228504582000000000000895100000000002046746100000000000000009999123100000010000000000000BRCSMGACNOR5175
012024100702CSNA3       010SID NACIONALON           R$  000000000128000000000013120000000001255000000000128600000000012760000000001275000000000127611519000000000010215400000000013144247100000000000000009999123100000010000000000000BRCSNAACNOR6261
012024100702ENJU3       010ENJOEI      ON      NM   R$  000000000013000000000001320000000000128000000000012900000000001290000000000128000000000012900220000000000000317600000000000041092000000000000000009999123100000010000000000000BRENJUACNOR9100
012024100702EPAR3       010EMBPAR S/A  ON           R$  000000000056100000000005720000000000552000000000055600000000005520000000000552000000000056900044000000000000022100000000000012307600000000000000009999123100000010000000000000BREPARACNOR9105
012024100702AZEV3       010AZEVEDO     ON           R$  000000000013100000000001380000000000128000000000013100000000001290000000000129000000000013000756000000000000746400000000000098503900000000000000009999123100000010000000000000BRAZEVACNOR0121
012024100702AZEV4       010AZEVEDO     PN           R$  000000000012900000000001330000000000125000000000012800000000001260000000000126000000000012702483000000000004084600000000000526688200000000000000009999123100000010000000000000BRAZEVACNPR7121
012024100702BBDC3       010BRADESCO    ON  EJ  N1   R$  000000000133800000000013560000000001328000000000133700000000013300000000001329000000000133006777000000000004336200000000005798274800000000000000009999123100000010000000000000BRBBDCACNOR1776
012024100702BBDC4       010BRADESCO    PN  EJ  N1   R$  000000000152000000000015430000000001512000000000152300000000015200000000001517000000000152043783000000000028305600000000043132472800000000000000009999123100000010000000000000BRBBDCACNPR8776
012024100702SLCE3       010SLC AGRICOLAON      NM   R$  000000000180500000000018090000000001759000000000176800000000017590000000001759000000000176007705000000000002588900000000004577209800000000000000009999123100000010000000000000BRSLCEACNOR2125
012024100702ALPA3       010ALPARGATAS  ON      N1   R$  000000000069400000000006940000000000682000000000068500000000006820000000000682000000000069000026000000000000007700000000000005277800000000000000009999123100000010000000000000BRALPAACNOR0231
012024100702ALPA4       010ALPARGATAS  PN      N1   R$  000000000070300000000007130000000000689000000000069800000000007010000000000698000000000070105143000000000002720700000000001899977900000000000000009999123100000010000000000000BRALPAACNPR7232
012024100702ALPK3       010ESTAPAR     ON      NM   R$  000000000028400000000002890000000000281000000000028300000000002820000000000281000000000028200224000000000000135000000000000038294700000000000000009999123100000010000000000000BRALPKACNOR9101
012024100702EUCA4       010EUCATEX     PN      N1   R$  000000000158000000000016170000000001539000000000156900000000016170000000001617000000000163700233000000000000044300000000000069524900000000000000009999123100000010000000000000BREUCAACNPR8044
012024100702EVEN3       010EVEN        ON      NM   R$  000000000072100000000007310000000000710000000000072300000000007250000000000724000000000072507097000000000002955900000000002140036800000000000000009999123100000010000000000000BREVENACNOR8119
012024100702PRNR3       010PRINER      ON      NM   R$  000000000125000000000012580000000001220000000000123200000000012340000000001222000000000123500910000000000000284600000000000350697900000000000000009999123100000010000000000000BRPRNRACNOR4109
012024100702PSSA3       010PORTO SEGUROON  EJ  NM   R$  000000000375000000000037500000000003693000000000371400000000037200000000003710000000000372006127000000000001096500000000004072973200000000000000009999123100000010000000000000BRPSSAACNOR7156
012024100702PTBL3       010PORTOBELLO  ON      NM   R$  000000000046500000000004690000000000452000000000045900000000004570000000000456000000000045701679000000000000271900000000000125047400000000000000009999123100000010000000000000BRPTBLACNOR8132
012024100702PTNT3       010PETTENATI   ON           R$  000000000096200000000009970000000000962000000000097600000000009740000000000921000000000097900004000000000000000400000000000000390600000000000000009999123100000010000000000000BRPTNTACNOR6042
012024100702PTNT4       010PETTENATI   PN           R$  000000000065200000000006580000000000649000000000065200000000006490000000000649000000000065800023000000000000013900000000000009071000000000000000009999123100000010000000000000BRPTNTACNPR3047
012024100702CCRO3       010CCR SA      ON      NM   R$  000000000122200000000012360000000001217000000000122700000000012320000000001229000000000123209381000000000011871100000000014574835500000000000000009999123100000010000000000000BRCCROACNOR2145
012024100702PCAR3       010P.ACUCAR-CBDON      NM   R$  000000000028500000000003030000000000283000000000028900000000002860000000000286000000000028712745000000000022974000000000006650790700000000000000009999123100000010000000000000BRPCARACNOR3167
012024100702PDGR3       010PDG REALT   ON      NM   R$  000000000000100000000000020000000000001000000000000100000000000020000000000001000000000000200891000000000027047700000000000040903300000000000000009999123100000010000000000000BRPDGRACNOR8119
012024100702PDTC3       010PADTEC      ON      NM   R$  000000000018200000000001890000000000182000000000018400000000001850000000000184000000000018500028000000000000015700000000000002897000000000000000009999123100000010000000000000BRPDTCACNOR3101
012024100702PETR3       010PETROBRAS   ON      N2   R$  000000000416000000000042060000000004140000000000418300000000042060000000004192000000000420615343000000000007007900000000029320685000000000000000009999123100000010000000000000BRPETRACNOR9206
012024100702PETR4       010PETROBRAS   PN      N2   R$  000000000380400000000038380000000003790000000000382100000000038370000000003834000000000383773362000000000036418000000000139157767300000000000000009999123100000010000000000000BRPETRACNPR6214
012024100702EKTR4       010ELEKTRO     PN  EJ       R$  000000000432300000000045430000000004323000000000446900000000045430000000004501000000000454300003000000000000000300000000000001340800000000000000009999123100000010000000000000BREKTRACNPR7165
012024100702NINJ3       010GETNINJAS   ON      NM   R$  000000000047000000000004790000000000468000000000047600000000004700000000000470000000000047800053000000000000017600000000000008383500000000000000009999123100000010000000000000BRNINJACNOR5101
012024100702NORD3       010NORDON MET  ON           R$  000000000090700000000009070000000000890000000000089700000000008900000000000888000000000098900009000000000000000900000000000000808000000000000000009999123100000010000000000000BRNORDACNOR7135
012024100702NTCO3       010GRUPO NATURAON      NM   R$  000000000149000000000015260000000001467000000000149800000000015230000000001520000000000152316722000000000009614800000000014406678500000000000000009999123100000010000000000000BRNTCOACNOR5106
012024100702UNIP3       010UNIPAR      ON           R$  000000000465700000000046570000000004586000000000462000000000045860000000004586000000000465900044000000000000005700000000000026338500000000000000009999123100000010000000000000BRUNIPACNOR7206
012024100702UNIP5       010UNIPAR      PNA          R$  000000000479000000000047900000000004790000000000479000000000047900000000004700000000000479500001000000000000000200000000000000958000000000000000009999123100000010000000000000BRUNIPACNPA0208
012024100702UNIP6       010UNIPAR      PNB          R$  000000000465600000000047020000000004619000000000465500000000046480000000004648000000000466300671000000000000091300000000000425049600000000000000009999123100000010000000000000BRUNIPACNPB8206
012024100702VITT3       010VITTIA      ON      NM   R$  000000000057200000000005840000000000559000000000057600000000005800000000000579000000000058301127000000000000366100000000000210913900000000000000009999123100000010000000000000BRVITTACNOR4107
012024100702VIVA3       010VIVARA S.A. ON      NM   R$  000000000278100000000028090000000002737000000000277000000000027700000000002770000000000277609007000000000001488000000000004122694200000000000000009999123100000010000000000000BRVIVAACNOR0107
012024100702VIVR3       010VIVER       ON      NM   R$  000000000017600000000001760000000000170000000000017100000000001740000000000170000000000017400148000000000000050800000000000008723900000000000000009999123100000010000000000000BRVIVRACNOR4123
012024100702VIVT3       010TELEF BRASILON           R$  000000000550000000000055180000000005381000000000540500000000053840000000005384000000000538609591000000000001928900000000010426722500000000000000009999123100000010000000000000BRVIVTACNOR0184
012024100702RAIL3       010RUMO S.A.   ON      NM   R$  000000000201000000000020170000000001986000000000199800000000019930000000001993000000000199414673000000000006439700000000012868627700000000000000009999123100000010000000000000BRRAILACNOR9105
012024100702RAIZ4       010RAIZEN      PN      N2   R$  000000000030600000000003070000000000301000000000030300000000003040000000000303000000000030507754000000000009381800000000002849398400000000000000009999123100000010000000000000BRRAIZACNPR6111
012024100702AZUL4       010AZUL        PN      N2   R$  000000000059200000000006020000000000571000000000058400000000005750000000000575000000000057609596000000000016192900000000009470831400000000000000009999123100000010000000000000BRAZULACNPR4103
012024100702CBAV3       010CBA         ON      NM   R$  000000000062500000000006360000000000603000000000061700000000006120000000000612000000000061307713000000000004968700000000003067288500000000000000009999123100000010000000000000BRCBAVACNOR5104
012024100702USIM3       010USIMINAS    ON      N1   R$  000000000060900000000006160000000000600000000000060800000000006050000000000605000000000061200834000000000000256100000000000155925500000000000000009999123100000010000000000000BRUSIMACNOR3167
012024100702USIM5       010USIMINAS    PNA     N1   R$  000000000062500000000006340000000000617000000000062700000000006280000000000627000000000062907220000000000008533300000000005357608900000000000000009999123100000010000000000000BRUSIMACNPA6169
012024100702BRSR3       010BANRISUL    ON      N1   R$  000000000130000000000013480000000001286000000000132000000000013470000000001329000000000134700055000000000000012300000000000016241200000000000000009999123100000010000000000000BRBRSRACNOR3189
012024100702BRSR5       010BANRISUL    PNA     N1   R$  000000000173000000000017300000000001730000000000173000000000017300000000001505000000000173000001000000000000000100000000000000173000000000000000009999123100000010000000000000BRBRSRACNPA6193
012024100702BRSR6       010BANRISUL    PNB     N1   R$  000000000113400000000011420000000001120000000000112500000000011250000000001124000000000112503459000000000001209600000000001361239200000000000000009999123100000010000000000000BRBRSRACNPB4192
012024100702MRFG3       010MARFRIG     ON      NM   R$  000000000136000000000013650000000001309000000000133000000000013450000000001340000000000134511110000000000005137000000000006836227700000000000000009999123100000010000000000000BRMRFGACNOR0116
012024100702MRVE3       010MRV         ON      NM   R$  000000000077900000000007900000000000760000000000077300000000007730000000000773000000000077411932000000000011442400000000008853194600000000000000009999123100000010000000000000BRMRVEACNOR2127
012024100702TCSA3       010TECNISA     ON      NM   R$  000000000017900000000001810000000000174000000000017600000000001740000000000174000000000017500127000000000000093000000000000016429900000000000000009999123100000010000000000000BRTCSAACNOR3112
012024100702TECN3       010TECHNOS     ON      NM   R$  000000000048400000000005030000000000483000000000049200000000004910000000000491000000000050200174000000000000047900000000000023598000000000000000009999123100000010000000000000BRTECNACNOR6109
012024100702TELB3       010TELEBRAS    ON           R$  000000000137200000000014410000000001372000000000140800000000014410000000001440000000000146500005000000000000000600000000000000844900000000000000009999123100000010000000000000BRTELBACNOR2140
012024100702TELB4       010TELEBRAS    PN           R$  000000000092900000000009690000000000920000000000095700000000009690000000000969000000000097000021000000000000004000000000000003829500000000000000009999123100000010000000000000BRTELBACNPR9140
012024100702TEND3       010TENDA       ON      NM   R$  000000000134100000000013700000000001328000000000135200000000013690000000001360000000000136908521000000000002661500000000003599071200000000000000009999123100000010000000000000BRTENDACNOR4111
012024100702TFCO4       010TRACK FIELD PN  EJ  N2   R$  000000000106000000000010600000000001039000000000104400000000010430000000001042000000000105000658000000000000183900000000000192115600000000000000009999123100000010000000000000BRTFCOACNPR8115
012024100702TGMA3       010TEGMA       ON      NM   R$  000000000257700000000026270000000002560000000000261000000000026100000000002610000000000261801466000000000000230500000000000601734800000000000000009999123100000010000000000000BRTGMAACNOR7145
012024100707NUTR3       010NUTRIPLANT  ON      MA   R$  000000000047400000000004740000000000458000000000046400000000004590000000000460000000000046400020000000000000002300000000000001068600000000000000009999123100000010000000000000BRNUTRACNOR0104
012024100708AGXY3       010AGROGALAXY  ON      NM   R$  000000000006000000000000610000000000058000000000005900000000000580000000000058000000000005900264000000000000891000000000000052575000000000000000009999123100000010000000000000BRAGXYACNOR4103
012024100708CTSA4       010SANTANENSE  PN           R$  000000000012000000000001200000000000120000000000012000000000001200000000000118000000000012000014000000000000008200000000000000984000000000000000009999123100000010000000000000BRCTSAACNPR0062
012024100708OIBR3       010OI          ON      N1   R$  000000000048500000000005040000000000484000000000049200000000004880000000000488000000000049100597000000000000315800000000000155400800000000000000009999123100000010000000000000BROIBRACNOR1112
012024100708ATMP3       010ATMASA      ON           R$  000000000014900000000001510000000000141000000000014300000000001410000000000141000000000014600054000000000000046100000000000006598800000000000000009999123100000010000000000000BRATMPACNOR8100
012024100710HBSA1       010HIDROVIAS   DIR ORD NM   R$  000000000001300000000000150000000000009000000000001200000000000100000000000010000000000001104297000000000002604200000000000032903600000000000000009999123100000010000000000000BRHBSAD01OR5100
012024100710BGIP2       010BANESE      DIR PRE      R$  000000000022000000000002200000000000220000000000022000000000002200000000000220000000000035000001000000000000000100000000000000022000000000000000009999123100000010000000000000BRBGIPD08PR8209
012024100712ZAGH11      010FII ZAGH    CI  ES       R$  000000000120500000000012050000000001200000000000120200000000012000000000001200000000000120500007000000000000000018000000000000021645000000000000009999123100000010000000000000BRZAGHCTF007108
012024100712CPFF11      010FII CAP REITCI           R$  000000000678100000000067970000000006706000000000673500000000067300000000006730000000000674700854000000000000008757000000000058983007000000000000009999123100000010000000000000BRCPFFCTF000159
012024100712CPLG11      010FII CPLG    CI           R$  000000000106800000000010680000000001068000000000106800000000010680000000001011000000000107000002000000000000000002000000000000002136000000000000009999123100000010000000000000BRCPLGCTF006100
012024100712SPTW11      010FII SP DOWNTCI  ER       R$  000000000375100000000037710000000003735000000000374700000000037510000000003751000000000375200248000000000000001618000000000006063533000000000000009999123100000010000000000000BRSPTWCTF002239
012024100712SPXS11      010FII SPX SYN CI           R$  000000000092000000000009220000000000912000000000091500000000009170000000000916000000000091708887000000000000098891000000000090511049000000000000009999123100000010000000000000BRSPXSCTF002127
012024100712VVCO11      010FII V2EDCORPCI           R$  000000000126700000000012840000000001261000000000127300000000012830000000001282000000000128300022000000000000000632000000000000804559000000000000009999123100000010000000000000BRVVCOCTF007101
012024100712VVCR11      010FII V2 RECE CI           R$  000000000092500000000009710000000000924000000000093700000000009690000000000962000000000098500036000000000000000278000000000000260500000000000000009999123100000010000000000000BRVVCRCTF000119
012024100712VVMR11      010FII MULT RENCI  ER       R$  000000000870000000000087010000000008580000000000866500000000087000000000008574000000000869900010000000000000000048000000000000415964000000000000009999123100000010000000000000BRVVMRCTF009109
012024100712VVRI11      010FII V2 RENDACI           R$  000000000910000000000091000000000009100000000000910000000000091000000000009039000000000978800001000000000000000020000000000000182000000000000000009999123100000010000000000000BRVVRICTF007119
012024100712ICRI11      010FII CI IPCA CI  ER       R$  000000000942200000000094960000000009319000000000941100000000093640000000009324000000000935900180000000000000007221000000000067963318000000000000009999123100000010000000000000BRICRICTF004108
012024100712IDFI11      010FII UNIDADESCI  ERA      R$  000000000041000000000004100000000000398000000000039900000000003980000000000396000000000039800055000000000000004502000000000001800795000000000000009999123100000010000000000000BRIDFICTF007136
012024100712IDGR11      010FII UNID II CI  ERA      R$  000000000048000000000004800000000000396000000000042200000000004000000000000393000000000040000022000000000000000478000000000000201761000000000000009999123100000010000000000000BRIDGRCTF006131
012024100712CPSH11      010FII CPSH    CI           R$  000000000100100000000010060000000000995000000000099700000000009980000000000998000000000099901422000000000000102263000000000101994267000000000000009999123100000010000000000000BRCPSHCTF017117
012024100712CPTS11      010FII CAPI SECCI           R$  000000000077200000000007720000000000758000000000076200000000007610000000000761000000000076230151000000000001708829000000001302728764000000000000009999123100000010000000000000BRCPTSCTF004234
012024100712MFAI11      010FII MERITOFACI           R$  000000000654000000000066970000000006540000000000656500000000065700000000006570000000000668400015000000000000000139000000000000912565000000000000009999123100000010000000000000BRMFAICTF005154
012024100712MFCR11      010FII MERITO RCI  ER       R$  000000000258200000000026130000000002582000000000258500000000026090000000002620000000000269900007000000000000000023000000000000059471000000000000009999123100000010000000000000BRMFCRCTF002128
012024100712MFII11      010FII MERITO ICI  ER       R$  000000000998800000000100050000000009933000000000997800000000099940000000009994000000000999503787000000000000029320000000000292566711000000000000009999123100000010000000000000BRMFIICTF008239
012024100712MGHT11      010FII MOGNO HTCI           R$  000000000191000000000019320000000001881000000000189900000000018820000000001883000000000192400981000000000000004235000000000008045127000000000000009999123100000010000000000000BRMGHTCTF005155
012024100712MANA11      010FII MANATI  CI  ER       R$  000000000090600000000009100000000000890000000000090300000000009060000000000905000000000090604688000000000000145031000000000131044454000000000000009999123100000010000000000000BRMANACTF006129
012024100712MAXR11      010FII MAX RET CI           R$  000000000770900000000078000000000007560000000000767600000000076760000000007630000000000767600132000000000000000854000000000006555866000000000000009999123100000010000000000000BRMAXRCTF009271
012024100712MCCI11      010FII MAUA    CI           R$  000000000880100000000088350000000008699000000000875400000000087390000000008702000000000873902233000000000000044449000000000389111110000000000000009999123100000010000000000000BRMCCICTF008165
012024100712MCEM11      010FII MCEM    CI  EA       R$  000000001080100000000108020000000010801000000001080100000000108020000000010800000000001100000002000000000000000004000000000000043206000000000000009999123100000010000000000000BRMCEMCTF006101
012024100712MCHY11      010FII MAUA HY CI           R$  000000000089000000000008900000000000874000000000088000000000008800000000000877000000000088036225000000000000617819000000000543846114000000000000009999123100000010000000000000BRMCHYCTF004141
012024100712REIT11      010FII REIT RIVCI  ER       R$  000000001010100000000101010000000010101000000001010100000000101010000000010101000000001685600002000000000000000002000000000000020202000000000000009999123100000010000000000000BRREITCTF007144
012024100712RELG11      010FII REC LOG CI           R$  000000000582000000000058990000000005800000000000581800000000058020000000005803000000000583000116000000000000001919000000000011166096000000000000009999123100000010000000000000BRRELGCTF008138
012024100712BCFF11      010FII BC FFII CI           R$  000000000079900000000007990000000000787000000000079200000000007900000000000790000000000079206195000000000000268861000000000213181485000000000000009999123100000010000000000000BRBCFFCTF000281
012024100712BCIA11      010FII BCIA    CI  ER       R$  000000000917000000000095800000000009100000000000927700000000094600000000009400000000000946001203000000000000009044000000000083908783000000000000009999123100000010000000000000BRBCIACTF005214
012024100712BCRI11      010FII BEES CRICI  ER       R$  000000000655700000000066490000000006508000000000656100000000065740000000006572000000000657400665000000000000007194000000000047200119000000000000009999123100000010000000000000BRBCRICTF009219
012024100712CRFF11      010FII CX RBRA2CI  ER       R$  000000000760100000000076300000000007580000000000758000000000075800000000007478000000000758000005000000000000000231000000000001751168000000000000009999123100000010000000000000BRCRFFCTF006165
012024100712AFHI11      010FII AFHI CRICI           R$  000000000963200000000096320000000009570000000000958500000000095820000000009579000000000958205181000000000000014711000000000141016502000000000000009999123100000010000000000000BRAFHICTF005146
012024100712AIEC11      010FII AUTONOMYCI  ER       R$  000000000520000000000052000000000005106000000000516000000000051190000000005118000000000511900787000000000000010711000000000055278800000000000000009999123100000010000000000000BRAIECCTF009149
012024100712AJFI11      010FII AJ MALLSCI           R$  000000000076500000000007660000000000755000000000075700000000007560000000000756000000000075904075000000000000084554000000000064042005000000000000009999123100000010000000000000BRAJFICTF001110
012024100712MXRF11      010FII MAXI RENCI  ER       R$  000000000099500000000009970000000000987000000000099100000000009900000000000989000000000099058350000000000001463781000000001451442184000000000000009999123100000010000000000000BRMXRFCTF008257
012024100712HBCR11      010FII HBC REN CI  ER       R$  000000001360000000000136000000000013600000000001360000000000136000000000013600000000000000000001000000000000002200000000000029920000000000000000009999123100000010000000000000BRHBCRCTF001146
012024100712HCHG11      010FII HECT CRICI  ER       R$  000000000670100000000068800000000006701000000000686700000000068790000000006702000000000687800009000000000000000018000000000000123622000000000000009999123100000010000000000000BRHCHGCTF001141
012024100712HCRI11      010FII CRIANCA CI           R$  000000002719900000000271990000000027005000000002706100000000270500000000027050000000002715000032000000000000000132000000000003572173000000000000009999123100000010000000000000BRHCRICTF006332
012024100712HCTR11      010FII HECTARE CI           R$  000000000296500000000029900000000002948000000000296800000000029610000000002961000000000296401603000000000000037039000000000109935567000000000000009999123100000010000000000000BRHCTRCTF003173
012024100712HFOF11      010FII HTOPFOF3CI  ER       R$  000000000648500000000064940000000006421000000000645500000000064600000000006460000000000648502743000000000000019669000000000126974623000000000000009999123100000010000000000000BRHFOFCTF002193
012024100712BPFF11      010FII ABSOLUTOCI  ER       R$  000000000650900000000065700000000006452000000000649400000000064900000000006487000000000649000363000000000000003128000000000020313415000000000000009999123100000010000000000000BRBPFFCTF002240
012024100712BPML11      010FII BTG SHOPCI           R$  000000000845700000000085250000000008308000000000837400000000083150000000008315000000000838401330000000000000014129000000000118321616000000000000009999123100000010000000000000BRBPMLCTF006134
012024100712CNES11      010FII CENESP  CI           R$  000000000012700000000001280000000000124000000000012500000000001260000000000125000000000012602499000000000000094255000000000011841123000000000000009999123100000010000000000000BRCNESCTF001263
012024100712ZAVI11      010FII ZAVIT R CI  ER       R$  000000001074400000000111960000000010638000000001083500000000108890000000010653000000001088900227000000000000001332000000000014432682000000000000009999123100000010000000000000BRZAVICTF004125
012024100712WPLZ11      010FII W PLAZA CI  ER       R$  000000000575900000000058000000000005621000000000575800000000057590000000005682000000000575900019000000000000000149000000000000858031000000000000009999123100000010000000000000BRWPLZCTF004270
012024100712WSEC11      010FII WARREN  CI           R$  000000000085800000000008630000000000858000000000086000000000008620000000000858000000000086200008000000000000002258000000000001943392000000000000009999123100000010000000000000BRWSECCTF010124
012024100712WTSP11      010FII WTC SP  CI           R$  000000000520000000000057490000000005200000000000526900000000057450000000005200000000000569900003000000000000000047000000000000247674000000000000009999123100000010000000000000BRWTSPCTF002167
012024100712GLOG11      010FII PLURAL LCI  ER       R$  000000000604700000000060470000000005862000000000589200000000059310000000005858000000000595100059000000000000000512000000000003017045000000000000009999123100000010000000000000BRGLOGCTF000117
012024100712CXAG11      010FII CAIXA AGCI  ER       R$  000000000751400000000075140000000007200000000000740900000000074000000000007377000000000744400275000000000000005725000000000042419116000000000000009999123100000010000000000000BRCXAGCTF003132
012024100712CXCE11      010FII CX CEDAECI  ER       R$  000000000405000000000040500000000004000000000000402100000000040220000000004004000000000402500029000000000000000276000000000001109937000000000000009999123100000010000000000000BRCXCECTF004273
012024100712CXCI11      010FII CAIXA CICI           R$  000000000783100000000078500000000007772000000000777600000000078390000000007800000000000782900046000000000000001623000000000012621050000000000000009999123100000010000000000000BRCXCICTF005130
012024100712CXCO11      010FII CEF CORPCI  ER       R$  000000000653000000000066000000000006500000000000653100000000065310000000006512000000000652900219000000000000002882000000000018823089000000000000009999123100000010000000000000BRCXCOCTF003142
012024100712CXRI11      010FII CX RBRAVCI  ER       R$  000000000762900000000076580000000007403000000000749000000000076200000000007600000000000765500020000000000000000143000000000001071172000000000000009999123100000010000000000000BRCXRICTF003232
012024100712CXTL11      010FII CX TRX  CI  ER       R$  000000002230000000000223000000000021900000000002193800000000219000000000021900000000002200000005000000000000000013000000000000285200000000000000009999123100000010000000000000BRCXTLCTF003241
012024100712CYCR11      010FII CYRELA  CI  ER       R$  000000000095800000000009580000000000939000000000094600000000009430000000000943000000000094801177000000000000024431000000000023122301000000000000009999123100000010000000000000BRCYCRCTF004143
012024100712SAPI11      010FII SAPI    CI  ER       R$  000000000888000000000088800000000008668000000000870700000000086720000000008672000000000882300254000000000000002583000000000022491516000000000000009999123100000010000000000000BRSAPICTF001112
012024100712SARE11      010FII SANT RENCI  ER       R$  000000000393200000000039800000000003890000000000395300000000039540000000003954000000000399001965000000000000028452000000000112471690000000000000009999123100000010000000000000BRSARECTF006160
012024100712CTXT11      010FII C TEXTILCI           R$  000000000071300000000007240000000000711000000000071300000000007220000000000711000000000072300017000000000000000142000000000000101257000000000000009999123100000010000000000000BRCTXTCTF014207
012024100712CVBI11      010FII VBI CRI CI           R$  000000000900000000000090100000000008900000000000893300000000089120000000008912000000000892004215000000000000019620000000000175277346000000000000009999123100000010000000000000BRCVBICTF001169
012024100712WHGR11      010FII WHG REALCI  ER       R$  000000000093500000000009490000000000934000000000094200000000009400000000000938000000000094003707000000000000070015000000000065978503000000000000009999123100000010000000000000BRWHGRCTF008129
012024100712IRDM11      010FII IRIDIUM CI           R$  000000000654000000000065500000000006510000000000652000000000065300000000006526000000000653006545000000000000073069000000000476431344000000000000009999123100000010000000000000BRIRDMCTF004189
012024100712IRIM11      010FII IRIM    CI           R$  000000000697800000000070170000000006726000000000681500000000067800000000006780000000000687801400000000000000003883000000000026464523000000000000009999123100000010000000000000BRIRIMCTF003138
012024100712ITIP11      010FII INTER IPCI  ER       R$  000000000738300000000074540000000007100000000000736500000000072640000000007233000000000734900192000000000000001702000000000012535720000000000000009999123100000010000000000000BRITIPCTF002133
012024100712ITIT11      010FII INTER ITCI  ER       R$  000000000740300000000074030000000007300000000000735200000000074000000000007301000000000744500204000000000000001100000000000008087969000000000000009999123100000010000000000000BRITITCTF004133
012024100712ITRI11      010FII ITRI    CI  ER       R$  000000000849800000000084980000000008302000000000842000000000083580000000008318000000000835802673000000000000019107000000000160889194000000000000009999123100000010000000000000BRITRICTF008106
012024100712NVHO11      010FII NOVOHORICI  ER       R$  000000000129000000000012980000000001279000000000129000000000012980000000001280000000000130000014000000000000000673000000000000868358000000000000009999123100000010000000000000BRNVHOCTF003232
012024100712OCRE11      010FII OCTO    CI  ER       R$  000000001009900000000101000000000010099000000001009900000000101000000000009801000000001010000003000000000000000200000000000002019998000000000000009999123100000010000000000000BROCRECTF001118
012024100712BLMG11      010FII BLUE LOGCI           R$  000000000391000000000039410000000003870000000000390000000000038900000000003890000000000390000893000000000000015644000000000061024101000000000000009999123100000010000000000000BRBLMGCTF005150
012024100712BLMO11      010FII BLUEMAC CI  ER       R$  000000000809800000000081400000000008098000000000811900000000081400000000007500000000000814800002000000000000000002000000000000016238000000000000009999123100000010000000000000BRBLMOCTF009135
012024100712FPAB11      010FII A BRANCACI           R$  000000002370000000000252960000000021101000000002272500000000227190000000021405000000002400000070000000000000000166000000000003772511000000000000009999123100000010000000000000BRFPABCTF011317
012024100712SMRE11      010FII SMRE    CI  ER       R$  000000001000000000000105000000000010000000000001002800000000100010000000010001000000001050000050000000000000002507000000000025141458000000000000009999123100000010000000000000BRSMRECTF001106
012024100712SNCI11      010FII SUNO CRICI           R$  000000000907100000000091010000000009064000000000908900000000090830000000009080000000000908300611000000000000008819000000000080164383000000000000009999123100000010000000000000BRSNCICTF002139
012024100712SNEL11      010FII SUNO EL CI           R$  000000000093200000000009330000000000923000000000092900000000009290000000000928000000000092901068000000000000065069000000000060477544000000000000009999123100000010000000000000BRSNELCTF010112
012024100712SNFF11      010FII SUNOFOFICI           R$  000000000899500000000089950000000008908000000000893500000000089370000000008937000000000895000498000000000000004253000000000038001077000000000000009999123100000010000000000000BRSNFFCTF001142
012024100712SNLG11      010FII SUNO LG CI           R$  000000000322000000000032200000000003100000000000313700000000031100000000003110000000000314500721000000000000004383000000000013752772000000000000009999123100000010000000000000BRSNLGCTF007107
012024100712SADI11      010FII SANT PAPCI  ER       R$  000000000883000000000088300000000008750000000000878400000000088000000000008750000000000880000294000000000000001397000000000012271491000000000000009999123100000010000000000000BRSADICTF007163
012024100712BARI11      010FII BARIGUI CI  ER       R$  000000000752700000000075270000000007456000000000748600000000074590000000007459000000000747501420000000000000006468000000000048423808000000000000009999123100000010000000000000BRBARICTF003166
012024100712SNME11      010FII SNME    CI           R$  000000000097000000000009720000000000961000000000097000000000009710000000000971000000000097200073000000000000004942000000000004795213000000000000009999123100000010000000000000BRSNMECTF000110
012024100712ASMT11      010FII ASA MET CI           R$  000000000360600000000037000000000003600000000000367100000000037000000000003700000000000379800363000000000000000369000000000001354797000000000000009999123100000010000000000000BRASMTCTF005107
012024100712ASRF11      010FII ASA RET CI           R$  000000108820000000010882000000001088200000000108820000000010882000000000000000000000110000000001000000000000000001000000000001088200000000000000009999123100000010000000000000BRASRFCTF003100
012024100712EURO11      010FII EUROPAR CI  ER       R$  000000002392900000000239290000000023602000000002370400000000238000000000023706000000002380000020000000000000000076000000000001801522000000000000009999123100000010000000000000BREUROCTF011363
012024100712EVBI11      010FII VBI CON CI           R$  000000000095000000000009530000000000920000000000094000000000009400000000000933000000000097100083000000000000054000000000000050763765000000000000009999123100000010000000000000BREVBICTF007153
012024100712PRSN11      010FII PERSONALCI           R$  000000000013700000000001370000000000135000000000013500000000001350000000000124000000000013500007000000000000000122000000000000016498000000000000009999123100000010000000000000BRPRSNCTF005125
012024100712PRSV11      010FII P VARGASCI           R$  000000000580000000000058590000000005800000000000582400000000058590000000005800000000000669800002000000000000000012000000000000069895000000000000009999123100000010000000000000BRPRSVCTF008226
012024100712CBOP11      010FII CBOP PAXCI  ER       R$  000000000264800000000026480000000002502000000000256200000000025230000000002502000000000262700038000000000000000204000000000000522835000000000000009999123100000010000000000000BRCBOPCTF001234
012024100712CCME11      010FII CANUMA  CI           R$  000000000093600000000009360000000000907000000000091900000000009070000000000907000000000091709678000000000000107340000000000098701951000000000000009999123100000010000000000000BRCCMECTF007126
012024100712PATA11      010FII PATA    CI  ER       R$  000000000104900000000010490000000001049000000000104900000000010490000000001003000000000104900001000000000000000002000000000000002098000000000000009999123100000010000000000000BRPATACTF006102
012024100712PATC11      010FII PATRIA  CI  ER       R$  000000000347900000000034790000000003458000000000347200000000034790000000003458000000000348000032000000000000000232000000000000805635000000000000009999123100000010000000000000BRPATCCTF002174
012024100712PATL11      010FII PATLOGISCI  ER       R$  000000000567500000000057900000000005642000000000571000000000057330000000005706000000000573301220000000000000015353000000000087672046000000000000009999123100000010000000000000BRPATLCTF003150
012024100712PEMA11      010FII PERFORMACI  ER       R$  000000000420000000000042000000000004200000000000420000000000042000000000003000000000000420000002000000000000000044000000000000184800000000000000009999123100000010000000000000BRPEMACTF003139
012024100712EGYR11      010FII ENERGY  CI           R$  000000000038100000000003810000000000350000000000035400000000003800000000000360000000000038000028000000000000000348000000000000123192000000000000009999123100000010000000000000BREGYRCTF001102
012024100712NSLU11      010FII LOURDES CI  ER       R$  000000001699400000000169940000000016902000000001693600000000169350000000016911000000001693500081000000000000001060000000000017952388000000000000009999123100000010000000000000BRNSLUCTF008315
012024100712VISC11      010FII VINCI SCCI  ER       R$  000000001063000000000107000000000010550000000001064400000000106610000000010658000000001066107234000000000000043648000000000464600203000000000000009999123100000010000000000000BRVISCCTF005190
012024100712VIUR11      010FII VINCI IUCI  ER       R$  000000000062000000000006240000000000618000000000062000000000006240000000000620000000000062401377000000000000018637000000000011565327000000000000009999123100000010000000000000BRVIURCTF009141
012024100712AZPL11      010FII AZPL    CI  ER       R$  000000000080300000000008660000000000771000000000082300000000008490000000000840000000000084904899000000000000131867000000000108605663000000000000009999123100000010000000000000BRAZPLCTF000104
012024100712BBFI11      010FII BB PROGRCI           R$  000000004320000000000438690000000040205000000004155500000000412500000000041250000000004236200123000000000000000425000000000017661168000000000000009999123100000010000000000000BRBBFICTF006329
012024100712URHF11      010FII URHF    CI  ER       R$  000000001140000000000116000000000011300000000001152500000000113000000000011300000000001160000009000000000000000305000000000003515300000000000000009999123100000010000000000000BRURHFCTF004103
012024100712URPR11      010FII URCA RENCI  ER       R$  000000000731100000000073600000000007007000000000708100000000070150000000007015000000000702606706000000000000099881000000000707277519000000000000009999123100000010000000000000BRURPRCTF002162
012024100712BRLA11      010FII BRLPROIICI           R$  000000001350000000000149890000000013500000000001449000000000148990000000011500000000001460000067000000000000002228000000000032285374000000000000009999123100000010000000000000BRBRLACTF007150
012024100712BROF11      010FII BROF    CI           R$  000000000468000000000046830000000004582000000000465500000000045870000000004587000000000460000323000000000000023960000000000111553183000000000000009999123100000010000000000000BRBROFCTF000117
012024100712TEPP11      010FII TEL PROPCI  ER       R$  000000000855900000000086510000000008550000000000859900000000086010000000008595000000000860100948000000000000005039000000000043332847000000000000009999123100000010000000000000BRTEPPCTF006154
012024100712TGAR11      010FII TG ATIVOCI  ER       R$  000000001084900000000108900000000010763000000001081200000000108010000000010801000000001080414924000000000000105877000000001144818522000000000000009999123100000010000000000000BRTGARCTF009195
012024100713CPTR11      010FIAGRO CPTR CI           R$  000000000074600000000007510000000000735000000000074200000000007360000000000736000000000073801635000000000000093113000000000069163948000000000000009999123100000010000000000000BRCPTRCTF006129
012024100713CRAA11      010FIAGRO CRAA CI           R$  000000001000200000000100850000000009913000000001000200000000099130000000009913000000001001201135000000000000020391000000000203956256000000000000009999123100000010000000000000BRCRAACTF008119
012024100713AGRX11      010FIAGRO AGRX CI           R$  000000000094000000000009500000000000932000000000094100000000009390000000000938000000000093910615000000000000060177000000000056674683000000000000009999123100000010000000000000BRAGRXCTF001129
012024100713LSAG11      010FIAGRO LESTECI  ER       R$  000000000809000000000080930000000007807000000000795100000000078070000000007806000000000799700150000000000000003284000000000026111595000000000000009999123100000010000000000000BRLSAGCTF004132
012024100713XPCA11      010FIAGRO XP CACI  ER       R$  000000000075200000000007530000000000729000000000073700000000007320000000000731000000000073207516000000000000260695000000000192191625000000000000009999123100000010000000000000BRXPCACTF004138
012024100713HGAG11      010FIAGRO HIGH CI  ER       R$  000000000177400000000018180000000001749000000000179000000000017490000000001552000000000174900014000000000000000125000000000000223807000000000000009999123100000010000000000000BRHGAGCTF007130
012024100713OIAG11      010FIAGRO INNOVCI           R$  000000000079600000000008000000000000784000000000079100000000007920000000000792000000000079300523000000000000026581000000000021032316000000000000009999123100000010000000000000BROIAGCTF009129
012024100713AAGR11      010FIAGRO AAGR CI           R$  000000000979900000000098000000000009799000000000979900000000097990000000009799000000000980000012000000000000000039000000000000382186000000000000009999123100000010000000000000BRAAGRCTF017107
012024100713AAZQ11      010FIAGRO AAZQ CI  ER       R$  000000000070800000000007150000000000706000000000070800000000007080000000000707000000000070811612000000000000089231000000000063180865000000000000009999123100000010000000000000BRAAZQCTF001122
012024100712KORE11      010FII KORE    CI  ER       R$  000000000961400000000096250000000009580000000000960000000000095920000000009590000000000960004217000000000000024728000000000237400414000000000000009999123100000010000000000000BRKORECTF012110
012024100712KNUQ11      010FII KINEA UNCI  ER       R$  000000001049500000000105220000000010457000000001048100000000104610000000010461000000001048502612000000000000029727000000000311574932000000000000009999123100000010000000000000BRKNUQCTF004117
012024100712KNSC11      010FII KINEA SCCI  ER       R$  000000000092500000000009260000000000918000000000092000000000009200000000000919000000000092010563000000000000334355000000000307843621000000000000009999123100000010000000000000BRKNSCCTF008152
012024100712KNRI11      010FII KINEA   CI  ER       R$  000000001397500000000140220000000013907000000001395800000000139280000000013928000000001393605737000000000000035084000000000489722603000000000000009999123100000010000000000000BRKNRICTF007268
012024100713SNAG11      010FIAGRO SUNO CI           R$  000000000099700000000010010000000000995000000000099800000000009980000000000998000000000099907520000000000000137373000000000137133326000000000000009999123100000010000000000000BRSNAGCTF000129
012024100713SNFZ11      010FIAGRO SNFZ CI           R$  000000000100900000000010090000000000998000000000100600000000010080000000001008000000000100900115000000000000004137000000000004163271000000000000009999123100000010000000000000BRSNFZCTF009101
012024100713BBGO11      010FIAGRO BBGO CI  ER       R$  000000000759600000000075960000000007540000000000754700000000075500000000007541000000000755000259000000000000005409000000000040824621000000000000009999123100000010000000000000BRBBGOCTF002133
012024100713IAAG11      010FIAGRO IAAG CI  ER       R$  000000000100600000000010060000000000965000000000098300000000009750000000000974000000000097500567000000000000017744000000000017446991000000000000009999123100000010000000000000BRIAAGCTF008116
012024100713IAGR11      010FIAGRO SFI  CI  ER       R$  000000000031000000000003140000000000310000000000031100000000003140000000000311000000000031400117000000000000001732000000000000539332000000000000009999123100000010000000000000BRIAGRCTF002123
012024100713KNCA11      010FIAGRO KINEACI  ER       R$  000000001010000000000101000000000010050000000001006400000000100980000000010066000000001009801341000000000000025794000000000259614895000000000000009999123100000010000000000000BRKNCACTF006137
012024100713KOPA11      010FIAGRO KOPA CI           R$  000000009900000000001000990000000099000000000009918600000001000990000000099500000000009999900008000000000000000129000000000012795079000000000000009999123100000010000000000000BRKOPACTF006109
012024100712KNRE11      010FII KII REALCI           R$  000000000003300000000000340000000000031000000000003100000000000330000000000031000000000003301698000000000000006576000000000000210241000000000000009999123100000010000000000000BRKNRECTF006129
012024100712KNIP11      010FII KINEA IPCI  ER       R$  000000000925500000000092800000000009200000000000923200000000092250000000009223000000000925911317000000000000107399000000000991575797000000000000009999123100000010000000000000BRKNIPCTF001197
012024100712KNHY11      010FII KINEA HYCI  ER       R$  000000001047300000000105050000000010441000000001048000000000104650000000010457000000001046505541000000000000042703000000000447538575000000000000009999123100000010000000000000BRKNHYCTF005176
012024100714COPN11      010FIP COPN    CI           R$  000000000961000000000096100000000009405000000000948700000000094050000000009377000000001019900010000000000000000500000000000004743721000000000000009999123100000010000000000000BRCOPNCTF006100
012024100714CORN11      010BB ETF MILHOCI           R$  000000000061200000000006240000000000612000000000061900000000006240000000000612000000000062500042000000000000003458000000000002141192000000000000009999123100000010000000000000BRCORNCTF002101
012024100714SPXB11      010BTG S&P 500 CI           R$  000000000135800000000013720000000001356000000000136400000000013660000000001365000000000137400131000000000000018824000000000025680411000000000000009999123100000010000000000000BRSPXBCTF008100
012024100714SPXI11      010IT NOW SPXI CI           R$  000000003394500000000341980000000033869000000003396200000000339400000000033940000000003394300144000000000000004069000000000138194224000000000000009999123100000010000000000000BRSPXICTF003100
012024100714SPYI11      010ETF BV SPYI CI           R$  000000001128100000000113100000000011230000000001127000000000112830000000011283000000001130000367000000000000025410000000000286379897000000000000009999123100000010000000000000BRSPYICTF001111
012024100714USTK11      010INVESTO USTKCI           R$  000000000144000000000014550000000001418000000000143400000000014400000000001439000000000145800061000000000000039943000000000057302593000000000000009999123100000010000000000000BRUSTKCTF007100
012024100714UTEC11      010TREND US TECCI           R$  000000000191200000000019120000000001888000000000189100000000018910000000001888000000000192700029000000000000121198000000000229189008000000000000009999123100000010000000000000BRUTECCTF004100
012024100714WEB311      010SMART HASH  CI           R$  000000000274000000000027980000000002707000000000277400000000027070000000002660000000000274000093000000000000001580000000000004383523000000000000009999123100000010000000000000BRWEB3CTF005100
012024100714ENDD11      010FIP END DEBTCI           R$  000000001078500000000107990000000010760000000001076900000000107600000000010760000000001077000396000000000000002586000000000027850531000000000000009999123100000010000000000000BRENDDCTF001107
012024100714CPTI11      010FIC IE CAP  CI  ER       R$  000000000924000000000093290000000009207000000000923800000000092740000000009230000000000927413052000000000000048888000000000451661628000000000000009999123100000010000000000000BRCPTICTF005148
012024100714META11      010META HASH   CI           R$  000000000317900000000032310000000003060000000000308800000000031830000000003183000000000322000023000000000000002079000000000006420902000000000000009999123100000010000000000000BRMETACTF013100
012024100712KNHF11      010FII KINEA HFCI  ER       R$  000000000934900000000094920000000009330000000000942600000000094620000000009454000000000946211052000000000000085219000000000803339023000000000000009999123100000010000000000000BRKNHFCTF004115
012024100712KNCR11      010FII KINEA RICI  ER       R$  000000001051500000000105250000000010470000000001049400000000105160000000010514000000001051617166000000000000115847000000001215784343000000000000009999123100000010000000000000BRKNCRCTF000244
012024100712IBCR11      010FII BREI    CI           R$  000000000633000000000063300000000006272000000000628700000000062990000000006298000000000629900120000000000000019126000000000120245535000000000000009999123100000010000000000000BRIBCRCTF009140
012024100712CLIN11      010FII CLAVE INCI           R$  000000000939800000000094770000000009320000000000937900000000094770000000009323000000000947700990000000000000016203000000000151974485000000000000009999123100000010000000000000BRCLINCTF007111
012024100714MATB11      010IT NOW IMAT CI           R$  000000000576500000000057900000000005715000000000575000000000057580000000005663000000000579000019000000000000008264000000000047520158000000000000009999123100000010000000000000BRMATBCTF001100
012024100714SOLH11      010SOLANA HASH CI           R$  000000000228700000000023190000000002210000000000228500000000022630000000002225000000000231400163000000000000005586000000000012769563000000000000009999123100000010000000000000BRSOLHCTF003100
012024100712CEOC11      010FII CEO CCP CI           R$  000000000417100000000041730000000004000000000000406400000000040650000000004065000000000410401154000000000000003912000000000015901469000000000000009999123100000010000000000000BRCEOCCTF003218
012024100714BCIC11      010B INDEX CICLCI           R$  000000001194900000000119490000000011949000000001194900000000119490000000011810000000001194900001000000000000000100000000000001194900000000000000009999123100000010000000000000BRBCICCTF001100
012024100714BDEF11      010B INDEX DEFECI           R$  000000001190300000000119030000000011903000000001190300000000119030000000011376000000001190300001000000000000000100000000000001190300000000000000009999123100000010000000000000BRBDEFCTF001100
012024100714BDIF11      010FIC INFR BTGCI           R$  000000000805300000000080670000000007950000000000798700000000079820000000007970000000000798207199000000000000053184000000000424799280000000000000009999123100000010000000000000BRBDIFCTF002143
012024100714BDIV11      010FIP BTGDV IECI           R$  000000001268000000000128000000000012657000000001273800000000126600000000012660000000001270100606000000000000006091000000000077591247000000000000009999123100000010000000000000BRBDIVCTF009117
012024100714BDOM11      010INVESTO BDOMCI           R$  000000001108200000000110820000000011065000000001107400000000110650000000010999000000001106600012000000000000000031000000000000343297000000000000009999123100000010000000000000BRBDOMCTF006100
012024100714CRPT11      010CRIPTO20 EMPCI           R$  000000000137100000000014130000000001337000000000138200000000013650000000001361000000000136500063000000000000002006000000000002772649000000000000009999123100000010000000000000BRCRPTCTF006100
012024100712BBRC11      010FII BB CORP CI  ER       R$  000000001131200000000113120000000011200000000001122500000000112010000000011201000000001121000061000000000000000457000000000005130153000000000000009999123100000010000000000000BRBBRCCTF004257
012024100712BBIG11      010FII BBIG    CI  ER       R$  000000000093000000000009470000000000930000000000093400000000009310000000000931000000000093202133000000000000092603000000000086503204000000000000009999123100000010000000000000BRBBIGCTF004105
012024100714ACWI11      010TREND ACWI  CI           R$  000000000135500000000013600000000001347000000000135300000000013530000000001352000000000135800140000000000000013549000000000018332883000000000000009999123100000010000000000000BRACWICTF001100
012024100714AGRI11      010BB ETF IAGROCI           R$  000000000486300000000048630000000004846000000000484800000000048540000000004838000000000486300005000000000000000036000000000000174555000000000000009999123100000010000000000000BRAGRICTF002100
012024100712BBFO11      010FII BB FOF  CI  ER       R$  000000000706700000000071180000000006922000000000700400000000069730000000006950000000000697400135000000000000002162000000000015144146000000000000009999123100000010000000000000BRBBFOCTF004145
012024100712RCRB11      010FII RIOB RC CI           R$  000000001312200000000132000000000012869000000001293100000000129960000000012996000000001302500832000000000000040954000000000529587139000000000000009999123100000010000000000000BRRCRBCTF000160
012024100712RCFA11      010FII GP RCFA CI           R$  000000000011200000000001120000000000107000000000011000000000001070000000000108000000000010900011000000000000000167000000000000018376000000000000009999123100000010000000000000BRRCFACTF007101
012024100714GOLD11      010TREND OURO  CI           R$  000000000151400000000015270000000001512000000000151900000000015220000000001520000000000152602323000000000000370069000000000562436384000000000000009999123100000010000000000000BRGOLDCTF015100
012024100712RBVO11      010FII RIOBCRI2CI           R$  000000000110800000000011280000000001013000000000107900000000010680000000001068000000000110700473000000000000009643000000000010414171000000000000009999123100000010000000000000BRRBVOCTF007245
012024100712RBVA11      010FII RIOB VA CI  ER       R$  000000001013800000000102000000000010118000000001017100000000101510000000010140000000001016901849000000000000009680000000000098456651000000000000009999123100000010000000000000BRRBVACTF006170
012024100712RBTS11      010FII RB TFO  CI  EA       R$  000000005500000000000599970000000055000000000005666600000000599970000000055004000000005999800003000000000000000003000000000000170000000000000000009999123100000010000000000000BRRBTSCTF002120
012024100712RBRY11      010FII RBR PCRICI           R$  000000000958200000000096480000000009582000000000960200000000096040000000009603000000000960403671000000000000022442000000000215505205000000000000009999123100000010000000000000BRRBRYCTF004171
012024100712RBRX11      010FII RBR MULTCI           R$  000000000083400000000008520000000000834000000000084600000000008420000000000842000000000084407948000000000000230050000000000194723793000000000000009999123100000010000000000000BRRBRXCTF006132
012024100712RBRS11      010FII RIOB RR CI           R$  000000000425000000000042500000000004197000000000422300000000042500000000004197000000000425000004000000000000000004000000000000016894000000000000009999123100000010000000000000BRRBRSCTF006138
012024100712RBRR11      010FII RBRHGRADCI           R$  000000000874000000000088870000000008713000000000877900000000087440000000008742000000000874404157000000000000051332000000000450688000000000000000009999123100000010000000000000BRRBRRCTF008183
012024100712RBRP11      010FII RBR PROPCI           R$  000000000520000000000052900000000005200000000000525300000000052840000000005261000000000528401781000000000000015379000000000080790997000000000000009999123100000010000000000000BRRBRPCTF002176
012024100712RBRL11      010FII RBR LOG CI           R$  000000000767200000000078260000000007670000000000773400000000077000000000007695000000000770001589000000000000005020000000000038827635000000000000009999123100000010000000000000BRRBRLCTF001157
012024100712RECX11      010FII REC FOF CI           R$  000000000665000000000066700000000006550000000000661200000000066680000000006550000000000666800016000000000000001549000000000010242208000000000000009999123100000010000000000000BRRECXCTF002140
012024100714HIGH11      010NUIBOVHIGHBTCI           R$  000000000950300000000095490000000009300000000000943000000000093740000000009300000000000960000086000000000000000596000000000005620423000000000000009999123100000010000000000000BRHIGHCTF008100
012024100714HASH11      010HASHDEX NCI CI           R$  000000000486300000000050010000000004852000000000494900000000049300000000004928000000000493007080000000000000358474000000001774123729000000000000009999123100000010000000000000BRHASHCTF018100
012024100714LVOL11      010NUIBOVLOWVOLCI           R$  000000001018900000000101890000000010016000000001011800000000100900000000010080000000001030000060000000000000000579000000000005858566000000000000009999123100000010000000000000BRLVOLCTF009100
012024100712RECT11      010FII REC RENDCI           R$  000000000324700000000032750000000003224000000000324800000000032360000000003236000000000324100550000000000000009048000000000029388806000000000000009999123100000010000000000000BRRECTCTF000170
012024100712RECR11      010FII REC RECECI           R$  000000000800600000000080180000000007949000000000798500000000079490000000007949000000000795003862000000000000029206000000000233230259000000000000009999123100000010000000000000BRRECRCTF004154
012024100712QAGR11      010FII QUASAR ACI  ER       R$  000000000460700000000046070000000004498000000000453100000000045390000000004505000000000453900696000000000000003224000000000014608325000000000000009999123100000010000000000000BRQAGRCTF005159
012024100714WRLD11      010INVESTO WRLDCI           R$  000000001159900000000116520000000011550000000001160000000000115750000000011575000000001159900408000000000000011773000000000136569608000000000000009999123100000010000000000000BRWRLDCTF007100
012024100714XBOV11      010CAIXAETFXBOVCI           R$  000000001295300000000129530000000012953000000001295300000000129530000000011000000000000000000002000000000000000011000000000000142483000000000000009999123100000010000000000000BRXBOVCTF005100
012024100714XFIX11      010TREND IFIX-LCI           R$  000000000115900000000011600000000001154000000000115700000000011600000000001159000000000116000209000000000000004821000000000005579334000000000000009999123100000010000000000000BRXFIXCTF004100
012024100714XINA11      010TREND CHINA CI           R$  000000000079900000000008330000000000799000000000081800000000008260000000000821000000000083304714000000000001232616000000001008705461000000000000009999123100000010000000000000BRXINACTF006100
012024100712PVBI11      010FII VBI PRI CI  ER       R$  000000000838700000000086220000000008349000000000852300000000086080000000008606000000000860814453000000000000082376000000000702092981000000000000009999123100000010000000000000BRPVBICTF003156
012024100712PULV11      010FII PULV    CI  ER       R$  000000000098900000000009890000000000989000000000098900000000009890000000000972000000000098900003000000000000002500000000000002472500000000000000009999123100000010000000000000BRPULVCTF007105
012024100712BLCA11      010FII BLUE AAACI           R$  000000000995100000000099510000000009882000000000990100000000098820000000009881000000000994900008000000000000000150000000000001485299000000000000009999123100000010000000000000BRBLCACTF009134
012024100712BIME11      010FII BRIO ME CI  ER       R$  000000000073800000000007380000000000719000000000072700000000007290000000000727000000000072900297000000000000011651000000000008474765000000000000009999123100000010000000000000BRBIMECTF006136
012024100712BICR11      010FII INTER   CI  ER       R$  000000000361900000000039770000000003499000000000360700000000039770000000003977000000000418500018000000000000000050000000000000180393000000000000009999123100000010000000000000BRBICRCTF009156
012024100714GENB11      010ETF BTG GENBCI           R$  000000000159000000000016150000000001590000000000159200000000015920000000001590000000000159200045000000000000064191000000000102200469000000000000009999123100000010000000000000BRGENBCTF008100
012024100714ISUS11      010IT NOW ISE  CI           R$  000000000360000000000036000000000003565000000000359300000000035650000000003552000000000361300008000000000000002352000000000008452357000000000000009999123100000010000000000000BRISUSCTF003100
012024100714NUIF11      010NU INFRA FICCI           R$  000000001030000000000103300000000010295000000001031700000000103300000000010300000000001033000057000000000000000807000000000008326048000000000000009999123100000010000000000000BRNUIFCTF001113
012024100714OGIN11      010NIKOS INFRA CI  ER       R$  000000000101400000000010240000000001014000000000101800000000010170000000001017000000000101800140000000000000005310000000000005409863000000000000009999123100000010000000000000BROGINCTF010118
012024100714AATH11      010FIP ATHON   CI           R$  000000014000000000001400000000000140000000000014000000000001400000000000115025000000014000000001000000000000000002000000000000280000000000000000009999123100000010000000000000BRAATHCTF003101
012024100714BIDB11      010FIC INTER   CI  ER       R$  000000000890700000000089170000000008711000000000880900000000089090000000008712000000000890904705000000000000009085000000000080032885000000000000009999123100000010000000000000BRBIDBCTF001138
012024100714BITH11      010BITCOIN HASHCI           R$  000000000787200000000080860000000007872000000000799900000000079710000000007971000000000798601329000000000000061694000000000493522318000000000000009999123100000010000000000000BRBITHCTF004100
012024100714BITI11      010ETF GALAXY BCI           R$  000000000934700000000096160000000009347000000000950500000000095080000000009436000000000950800056000000000000013248000000000125925292000000000000009999123100000010000000000000BRBITICTF010100
012024100712ABCP11      010FII ABC IMOBCI  ER       R$  000000000720000000000072500000000007200000000000723200000000072500000000007249000000000725000088000000000000000656000000000004744548000000000000009999123100000010000000000000BRABCPCTF000343
012024100712LVBI11      010FII VBI LOG CI  ER       R$  000000001063700000000106990000000010610000000001062400000000106950000000010683000000001069505676000000000000041655000000000442564827000000000000009999123100000010000000000000BRLVBICTF002173
012024100714BLOK11      010INVESTO BLOKCI           R$  000000001548900000000161690000000015489000000001608400000000160130000000014000000000001819900020000000000000000110000000000001769274000000000000009999123100000010000000000000BRBLOKCTF003100
012024100714FNAM11      010FINAM       CI *         R$  000000000003600000000000360000000000034000000000003400000000000350000000000034000000000003500090000000000014858000000000000000519209000000000000009999123100010000000000000000BRFNAMCTF013002
012024100714FNOR11      010FINOR       CI *         R$  000000000009300000000000930000000000087000000000009200000000000930000000000088000000000009200004000000000000022000000000000000002040000000000000009999123100010000000000000000BRFNORCTF013002
012024100714FOOD11      010INVESTO FOODCI           R$  000000000863300000000086690000000008615000000000866300000000086150000000007373000000000861600010000000000000000021000000000000181930000000000000009999123100000010000000000000BRFOODCTF003100
012024100714FSPE11      010FISET PESCA CI           R$  000000000002900000000000300000000000029000000000002900000000000300000000000029000000000003000002000000000000002000000000000000059000000000000000009999123100000010000000000000BRFSPECTF017002
012024100712LSPA11      010FII LESTE PACI  EA       R$  000000000362000000000040000000000003620000000000367700000000036200000000003300000000000387900033000000000000000104000000000000382416000000000000009999123100000010000000000000BRLSPACTF005143
012024100712INRD11      010FII INTER RDCI  ER       R$  000000000712200000000071220000000007000000000000707700000000071220000000007037000000000712200102000000000000000465000000000003291013000000000000009999123100000010000000000000BRINRDCTF002101
012024100714QBTC11      010QR BITCOIN  CI           R$  000000000208600000000021360000000002085000000000211600000000021200000000002111000000000212001906000000000000307062000000000649963439000000000000009999123100000010000000000000BRQBTCCTF008100
012024100714QDFI11      010QR DEFI     CI           R$  000000000034700000000003490000000000341000000000034500000000003450000000000341000000000034500051000000000000003582000000000001238475000000000000009999123100000010000000000000BRQDFICTF000100
012024100714QETH11      010QR ETHER    CI           R$  000000000093100000000009600000000000921000000000094100000000009480000000000940000000000094801320000000000000320135000000000301434716000000000000009999123100000010000000000000BRQETHCTF001100
012024100714QQQI11      010ETF BV QQQI CI           R$  000000000978400000000098380000000009740000000000979300000000097710000000009750000000000983000239000000000000006176000000000060486131000000000000009999123100000010000000000000BRQQQICTF009103
012024100714QSOL11      010QR SOLANA   CI           R$  000000000098000000000010530000000000980000000000102600000000010140000000000992000000000101400270000000000000026887000000000027588180000000000000009999123100000010000000000000BRQSOLCTF004100
012024100712INLG11      010FII INTER LGCI  ER       R$  000000000811800000000081340000000008010000000000810000000000081000000000008072000000000810000163000000000000002215000000000017943354000000000000009999123100000010000000000000BRINLGCTF008101
012024100712HOFC11      010FII HOFFICEICI           R$  000000000264300000000028000000000002570000000000275600000000028000000000002720000000000280001762000000000000019811000000000054611601000000000000009999123100000010000000000000BRHOFCCTF009115
012024100712HLOG11      010FII HEDGELOGCI  ER       R$  000000000855000000000085500000000008450000000000849000000000085200000000008498000000000854500120000000000000002710000000000023009704000000000000009999123100000010000000000000BRHLOGCTF008160
012024100714ELAS11      010SAFRAETFELASCI           R$  000000001300300000000130240000000012892000000001294300000000129360000000012520000000001293600451000000000000000550000000000007118760000000000000009999123100000010000000000000BRELASCTF009100
012024100714SNID11      010SUNO FIC FI CI           R$  000000000102600000000010390000000001020000000000103100000000010210000000001025000000000103400230000000000000017221000000000017765947000000000000009999123100000010000000000000BRSNIDCTF018122
012024100714BBOI11      010BB ETF BOI GCI           R$  000000000086900000000008770000000000861000000000086900000000008700000000000868000000000087000080000000000000005752000000000005000798000000000000009999123100000010000000000000BRBBOICTF008100
012024100714BBOV11      010BB ETF IBOV CI           R$  000000000689600000000069060000000006859000000000687100000000068640000000006860000000000688100445000000000000676890000000004651367904000000000000009999123100000010000000000000BRBBOVCTF001100
012024100714BBSD11      010BB ETF SP DVCI           R$  000000001100000000000110000000000010853000000001095500000000109560000000010942000000001099200007000000000000000238000000000002607451000000000000009999123100000010000000000000BRBBSDCTF000100
012024100714BOVB11      010ETF BRA IBOVCI           R$  000000001348100000000134810000000013372000000001341600000000134010000000013401000000000000000012000000000000002554000000000034264901000000000000009999123100000010000000000000BRBOVBCTF001100
012024100714BOVS11      010SAFRAETFIBOVCI           R$  000000001020900000000102440000000010140000000001017900000000101800000000000000000000001018000452000000000000000551000000000005608730000000000000009999123100000010000000000000BRBOVSCTF005100
012024100714BOVV11      010IT NOW IBOV CI           R$  000000001358200000000135820000000013437000000001347800000000134690000000013469000000001348740010000000000001427949000000019246042094000000000000009999123100000010000000000000BRBOVVCTF009102
012024100714BOVX11      010TREND IBOVX CI           R$  000000000134100000000013500000000001336000000000134100000000013410000000001339000000000134116310000000000000598120000000000802559872000000000000009999123100000010000000000000BRBOVXCTF005100
012024100714CDII11      010SPARTA CDII CI  ER       R$  000000001157000000000115840000000011314000000001141700000000113600000000011360000000001150007018000000000000051586000000000589003353000000000000009999123100000010000000000000BRCDIICTF012121
012024100714CHIP11      010INVESTO CHIPCI           R$  000000001022800000000103120000000010228000000001027200000000102970000000010296000000001040000012000000000000000179000000000001838705000000000000009999123100000010000000000000BRCHIPCTF000100
012024100714CMDB11      010BTG COMMODITCI           R$  000000000138300000000014060000000001379000000000139200000000013900000000001389000000000139500058000000000000000111000000000000154525000000000000009999123100000010000000000000BRCMDBCTF001100
012024100714SMAB11      010BTG SMLL CAPCI           R$  000000000073200000000007320000000000728000000000073100000000007280000000000728000000000072900010000000000000000521000000000000381283000000000000009999123100000010000000000000BRSMABCTF003100
012024100714SMAC11      010IT NOW SMALLCI           R$  000000000514900000000051820000000005130000000000514400000000051440000000005130000000000514400030000000000000002058000000000010587114000000000000009999123100000010000000000000BRSMACCTF001100
012024100714SMAL11      010ISHARES SMALCI           R$  000000000984100000000099190000000009756000000000980900000000097560000000009756000000000982417546000000000000991441000000009725102353000000000000009999123100000010000000000000BRSMALCTF002101
012024100714ESGB11      010ETF ESG BTG CI           R$  000000001049000000000104920000000010483000000001048600000000104920000000010491000000001061900005000000000000000050000000000000524326000000000000009999123100000010000000000000BRESGBCTF007100
012024100714ESGD11      010TREND ESG D CI           R$  000000000104200000000010760000000001042000000000106100000000010640000000000950000000000107500007000000000000000185000000000000196315000000000000009999123100000010000000000000BRESGDCTF003100
012024100714ESGE11      010TREND ESG E CI           R$  000000000091600000000009270000000000916000000000092300000000009270000000000926000000000093900036000000000000053821000000000049679224000000000000009999123100000010000000000000BRESGECTF001100
012024100714ESGU11      010TREND ESG USCI           R$  000000000117800000000011830000000001178000000000118200000000011830000000001161000000000119400003000000000000000027000000000000031932000000000000009999123100000010000000000000BRESGUCTF007100
012024100714ETHE11      010ETHER HASH  CI           R$  000000000391300000000039670000000003832000000000392900000000038990000000003880000000000389902730000000000000128152000000000503637233000000000000009999123100000010000000000000BRETHECTF007100
012024100714IBOB11      010PACTUAL IBOVCI           R$  000000001077200000000107880000000010765000000001077200000000107840000000010783000000001081800006000000000000000370000000000003985725000000000000009999123100000010000000000000BRIBOBCTF008100
012024100714EURP11      010TREND EUROPACI           R$  000000000125100000000012610000000001240000000000125000000000012570000000001246000000000126600165000000000000037795000000000047264154000000000000009999123100000010000000000000BREURPCTF018100
012024100714PEVC11      010INVESTO PEVCCI           R$  000000001843700000000184370000000018300000000001835800000000183180000000018317000000000000000009000000000000000063000000000001156556000000000000009999123100000010000000000000BRPEVCCTF000100
012024100714PFIN11      010FIP PERFIN  CI           R$  000000000746900000000074690000000007405000000000743900000000074320000000007432000000000744201933000000000000007934000000000059021037000000000000009999123100000010000000000000BRPFINCTF001119
012024100714KNOX11      010FIP IE KNOX CI           R$  000000001035000000000104000000000010350000000001035000000000104000000000010350000000001040000006000000000000004990000000000051647500000000000000009999123100000010000000000000BRKNOXCTF003107
012024100712HGRU11      010FII HGRU PAXCI  ER       R$  000000001205900000000121720000000012059000000001210900000000121410000000012140000000001214105123000000000000025558000000000309505499000000000000009999123100000010000000000000BRHGRUCTF002181
012024100712HGRE11      010FII HGRE PAXCI  ER       R$  000000001031700000000104700000000010300000000001035800000000103830000000010383000000001040203036000000000000019722000000000204299607000000000000009999123100000010000000000000BRHGRECTF006296
