00COTAHIST.2024BOVESPA 20241010                                                                                                                                                                                                                      
012024101002PSSA3       010PORTO SEGUROON      NM   R$  000000000370500000000037080000000003658000000000366600000000036840000000003677000000000368406436000000000003555500000000013035950800000000000000009999123100000010000000000000BRPSSAACNOR7156
012024101002PTBL3       010PORTOBELLO  ON      NM   R$  000000000046200000000004670000000000453000000000045800000000004540000000000454000000000045701111000000000000323100000000000148177500000000000000009999123100000010000000000000BRPTBLACNOR8132
012024101002PTNT4       010PETTENATI   PN           R$  000000000065300000000006800000000000651000000000065600000000006550000000000643000000000065500023000000000000007900000000000005184000000000000000009999123100000010000000000000BRPTNTACNPR3047
012024101002RSUL4       010RIOSULENSE  PN           R$  000000000612600000000063480000000006126000000000621400000000062000000000006101000000000620000011000000000000001500000000000009321800000000000000009999123100000010000000000000BRRSULACNPR3114
012024101002SHUL4       010SCHULZ      PN           R$  000000000062300000000006320000000000618000000000062300000000006210000000000621000000000062501824000000000000410800000000000256147900000000000000009999123100000010000000000000BRSHULACNPR4157
012024101002SIMH3       010SIMPAR      ON      NM   R$  000000000050100000000005080000000000492000000000049800000000004960000000000496000000000049707975000000000005080500000000002533524100000000000000009999123100000010000000000000BRSIMHACNOR0107
012024101002SLCE3       010SLC AGRICOLAON      NM   R$  000000000176000000000017600000000001717000000000172800000000017220000000001721000000000172206346000000000002160700000000003735475800000000000000009999123100000010000000000000BRSLCEACNOR2125
012024101002VALE3       010VALE        ON      NM   R$  000000000614500000000061450000000006075000000000611600000000061250000000006125000000000612627917000000000017192100000000105149509700000000000000009999123100000010000000000000BRVALEACNOR0211
012024101002PDGR3       010PDG REALT   ON      NM   R$  000000000000100000000000020000000000001000000000000100000000000010000000000001000000000000204234000000000078399200000000000081584600000000000000009999123100000010000000000000BRPDGRACNOR8119
012024101002PDTC3       010PADTEC      ON      NM   R$  000000000018500000000001860000000000183000000000018300000000001860000000000184000000000018500022000000000000012600000000000002312800000000000000009999123100000010000000000000BRPDTCACNOR3101
012024101002PEAB3       010PAR AL BAHIAON           R$  000000000430000000000043000000000004300000000000430000000000043000000000000000000000000448400001000000000000000200000000000000860000000000000000009999123100000010000000000000BRPEABACNOR3133
012024101002PETR3       010PETROBRAS   ON      N2   R$  000000000411500000000041630000000004115000000000414200000000041510000000004151000000000415413575000000000005128200000000021242526700000000000000009999123100000010000000000000BRPETRACNOR9206
012024101002PETR4       010PETROBRAS   PN      N2   R$  000000000374000000000037740000000003732000000000376000000000037650000000003764000000000376534032000000000020630100000000077578603000000000000000009999123100000010000000000000BRPETRACNPR6214
012024101002BLAU3       010BLAU        ON      NM   R$  000000000128500000000013360000000001274000000000131600000000013020000000001302000000000130901913000000000000276600000000000364194700000000000000009999123100000010000000000000BRBLAUACNOR8115
012024101002BMEB3       010MERCANTIL   ON      N1   R$  000000000387200000000038720000000003872000000000387200000000038720000000003000000000000399800001000000000000000100000000000000387200000000000000009999123100000010000000000000BRBMEBACNOR8206
012024101002BMEB4       010MERCANTIL   PN      N1   R$  000000000389800000000039800000000003898000000000395200000000039090000000003892000000000391000292000000000000038200000000000151002800000000000000009999123100000010000000000000BRBMEBACNPR5211
012024101002BMGB4       010BANCO BMG   PN      N1   R$  000000000040600000000004130000000000404000000000040800000000004130000000000412000000000041301624000000000000629700000000000257308600000000000000009999123100000010000000000000BRBMGBACNPR0110
012024101002BMKS3       010BIC MONARK  ON           R$  000000003100000000000310000000000030550000000003098500000000310000000000030501000000003099600005000000000000000031000000000000960550000000000000009999123100000010000000000000BRBMKSACNOR9166
012024101002TAEE11      010TAESA       UNT     N2   R$  000000000342500000000034740000000003425000000000345000000000034430000000003443000000000345008410000000000002585500000000008921024800000000000000009999123100000010000000000000BRTAEECDAM10148
012024101002TAEE3       010TAESA       ON      N2   R$  000000000114000000000011570000000001139000000000114700000000011490000000001142000000000114900272000000000000047400000000000054406600000000000000009999123100000010000000000000BRTAEEACNOR9148
012024101002TAEE4       010TAESA       PN      N2   R$  000000000114500000000011600000000001145000000000115400000000011500000000001150000000000115200546000000000000133000000000000153511900000000000000009999123100000010000000000000BRTAEEACNPR6148
012024101002TASA3       010TAURUS ARMASON      N2   R$  000000000107300000000010730000000001052000000000105800000000010620000000001060000000000107400048000000000000008000000000000008466600000000000000009999123100000010000000000000BRTASAACNOR7104
012024101002TASA4       010TAURUS ARMASPN      N2   R$  000000000102000000000010240000000001006000000000101300000000010060000000001005000000000100601199000000000000260600000000000264045900000000000000009999123100000010000000000000BRTASAACNPR4104
012024101002ELET3       010ELETROBRAS  ON      N1   R$  000000000381500000000038250000000003783000000000380900000000038140000000003814000000000382413808000000000004730900000000018022003000000000000000009999123100000010000000000000BRELETACNOR6160
012024101002ELET6       010ELETROBRAS  PNB     N1   R$  000000000424000000000042460000000004207000000000422600000000042360000000004236000000000423903573000000000000843000000000003562917300000000000000009999123100000010000000000000BRELETACNPB7077
012024101002HBOR3       010HELBOR      ON      NM   R$  000000000018700000000001890000000000185000000000018700000000001870000000000187000000000018900245000000000000228500000000000042739100000000000000009999123100000010000000000000BRHBORACNOR3118
012024101002HBRE3       010HBR REALTY  ON      NM   R$  000000000045400000000004590000000000449000000000045400000000004540000000000452000000000045400605000000000000311600000000000141479500000000000000009999123100000010000000000000BRHBREACNOR4100
012024101002HBSA3       010HIDROVIAS   ON  ES  NM   R$  000000000032000000000003280000000000317000000000032300000000003240000000000324000000000032708699000000000013690500000000004430787600000000000000009999123100000010000000000000BRHBSAACNOR0101
012024101002HBTS5       010HABITASUL   PNA          R$  000000000305000000000030500000000003050000000000305000000000030500000000003050000000000327500003000000000000000600000000000001830000000000000000009999123100000010000000000000BRHBTSACNPA3128
012024101002BIOM3       010BIOMM       ON      MA   R$  000000000093000000000009300000000000882000000000089600000000008950000000000895000000000090000290000000000000072400000000000064880200000000000000009999123100000010000000000000BRBIOMACNOR2112
012024101002AALR3       010ALLIAR      ON      NM   R$  000000000149100000000015060000000001452000000000148100000000014800000000001480000000000149900114000000000000014500000000000021488900000000000000009999123100000010000000000000BRAALRACNOR6102
012024101002ABCB4       010ABC BRASIL  PN      N2   R$  000000000207600000000021030000000002069000000000209000000000021020000000002102000000000210302186000000000000676200000000001413808300000000000000009999123100000010000000000000BRABCBACNPR4146
012024101002ABEV3       010AMBEV S/A   ON           R$  000000000130500000000013190000000001305000000000131200000000013110000000001309000000000131119908000000000019340400000000025374766200000000000000009999123100000010000000000000BRABEVACNOR1128
012024101002BAHI3       010BAHEMA      ON      MA   R$  000000000059300000000005930000000000550000000000055500000000005530000000000551000000000055900044000000000000015800000000000008776000000000000000009999123100000010000000000000BRBAHIACNOR1074
012024101002BALM3       010BAUMER      ON           R$  000000000160000000000016000000000001600000000000160000000000016000000000001102000000000155000001000000000000000100000000000000160000000000000000009999123100000010000000000000BRBALMACNOR5055
012024101002ANIM3       010ANIMA       ON      NM   R$  000000000023100000000002330000000000222000000000022500000000002240000000000224000000000022511100000000000011372700000000002561724200000000000000009999123100000010000000000000BRANIMACNOR6109
012024101002ARML3       010ARMAC       ON  EJ  NM   R$  000000000079600000000007960000000000781000000000078600000000007850000000000785000000000078701555000000000000395500000000000311034700000000000000009999123100000010000000000000BRARMLACNOR1113
012024101002ASAI3       010ASSAI       ON      NM   R$  000000000065100000000006710000000000647000000000066100000000006650000000000664000000000066519409000000000018728700000000012386738700000000000000009999123100000010000000000000BRASAIACNOR0106
012024101002QUAL3       010QUALICORP   ON      NM   R$  000000000020800000000002120000000000205000000000020800000000002070000000000207000000000020903217000000000002780900000000000579521700000000000000009999123100000010000000000000BRQUALACNOR6120
012024101002SCAR3       010SAO CARLOS  ON      NM   R$  000000000222000000000022350000000002213000000000222900000000022300000000002201000000000223000011000000000000002200000000000004905600000000000000009999123100000010000000000000BRSCARACNOR7131
012024101002SEER3       010SER EDUCA   ON      NM   R$  000000000058600000000005930000000000574000000000058000000000005820000000000580000000000058200981000000000000256500000000000148826100000000000000009999123100000010000000000000BRSEERACNOR5119
012024101002SEQL3       010SEQUOIA LOG ON      NM   R$  000000000043000000000004430000000000428000000000043400000000004360000000000436000000000043800430000000000000246200000000000107035900000000000000009999123100000010000000000000BRSEQLACNOR2103
012024101002SHOW3       010TIME FOR FUNON      NM   R$  000000000009800000000000990000000000097000000000009800000000000970000000000097000000000009900175000000000000052900000000000005186400000000000000009999123100000010000000000000BRSHOWACNOR7105
012024101002USIM3       010USIMINAS    ON      N1   R$  000000000061200000000006200000000000602000000000060700000000006070000000000607000000000060900645000000000000308000000000000187121100000000000000009999123100000010000000000000BRUSIMACNOR3167
012024101002USIM5       010USIMINAS    PNA     N1   R$  000000000063200000000006430000000000615000000000062200000000006230000000000622000000000062411240000000000013679300000000008517971200000000000000009999123100000010000000000000BRUSIMACNPA6169
012024101002ZAMP3       010ZAMP S.A.   ON           R$  000000000025400000000002560000000000247000000000025100000000002470000000000247000000000025001501000000000000415900000000000104401900000000000000009999123100000010000000000000BRZAMPACNOR5101
012024101002BEEF3       010MINERVA     ON      NM   R$  000000000059700000000005970000000000576000000000058300000000005800000000000580000000000058115237000000000009812500000000005726138600000000000000009999123100000010000000000000BRBEEFACNOR6116
012024101002BPAC11      010BTGP BANCO  UNT     N2   R$  000000000323000000000032360000000003187000000000320500000000031990000000003196000000000320011846000000000009591000000000030747778000000000000000009999123100000010000000000000BRBPACUNT006119
012024101002BPAC3       010BTGP BANCO  ON      N2   R$  000000000153400000000015980000000001520000000000155100000000015230000000001523000000000154600035000000000000004600000000000007135800000000000000009999123100000010000000000000BRBPACACNOR7134
012024101002CMIN3       010CSNMINERACAOON  EDJ N2   R$  000000000059500000000005990000000000585000000000058800000000005880000000000587000000000058810085000000000005534900000000003258579100000000000000009999123100000010000000000000BRCMINACNOR2112
012024101002SAPR11      010SANEPAR     UNT     N2   R$  000000000276500000000027780000000002724000000000274800000000027240000000002724000000000273004219000000000000813300000000002235161100000000000000009999123100000010000000000000BRSAPRCDAM13118
012024101002SAPR3       010SANEPAR     ON      N2   R$  000000000052800000000005320000000000520000000000052400000000005200000000000520000000000052200378000000000000143800000000000075449800000000000000009999123100000010000000000000BRSAPRACNOR9159
012024101002SAPR4       010SANEPAR     PN      N2   R$  000000000056200000000005630000000000555000000000055800000000005550000000000555000000000055802220000000000000925200000000000516574500000000000000009999123100000010000000000000BRSAPRACNPR6159
012024101002SBFG3       010GRUPO SBF   ON      NM   R$  000000000144900000000014700000000001415000000000144800000000014700000000001455000000000147006648000000000002701700000000003912529300000000000000009999123100000010000000000000BRSBFGACNOR1103
012024101002SBSP3       010SABESP      ON      NM   R$  000000000884500000000088850000000008813000000000884800000000088670000000008859000000000887012966000000000002601700000000023021976600000000000000009999123100000010000000000000BRSBSPACNOR5161
012024101002UNIP3       010UNIPAR      ON           R$  000000000456100000000046040000000004550000000000457400000000046000000000004600000000000468000038000000000000005100000000000023330700000000000000009999123100000010000000000000BRUNIPACNOR7206
012024101002UNIP5       010UNIPAR      PNA          R$  000000000480000000000048190000000004800000000000480600000000048190000000004600000000000482100005000000000000000600000000000002883800000000000000009999123100000010000000000000BRUNIPACNPA0208
012024101002UNIP6       010UNIPAR      PNB          R$  000000000460000000000046390000000004542000000000458900000000046390000000004614000000000463901147000000000000199600000000000916033600000000000000009999123100000010000000000000BRUNIPACNPB8206
012024101002CSNA3       010SID NACIONALON           R$  000000000122500000000012250000000001182000000000119300000000011840000000001184000000000118511028000000000008094900000000009659536700000000000000009999123100000010000000000000BRCSNAACNOR6261
012024101002ENGI4       010ENERGISA    PN      N2   R$  000000000076300000000007630000000000751000000000075700000000007620000000000757000000000076200029000000000000004000000000000003028000000000000000009999123100000010000000000000BRENGIACNPR7142
012024101002ENJU3       010ENJOEI      ON      NM   R$  000000000012200000000001230000000000121000000000012100000000001220000000000122000000000012300213000000000000356900000000000043540200000000000000009999123100000010000000000000BRENJUACNOR9100
012024101002EPAR3       010EMBPAR S/A  ON           R$  000000000055200000000005550000000000549000000000055100000000005530000000000551000000000055300025000000000000006800000000000003748000000000000000009999123100000010000000000000BREPARACNOR9105
012024101002EQMA3B      010EQTLMARANHAOON      MB   R$  000000000238600000000023860000000002351000000000236700000000023510000000002340000000000236000004000000000000000500000000000001183700000000000000009999123100000010000000000000BREQMAACNOR8108
012024101002EQPA3       010EQTL PARA   ON           R$  000000000060700000000006070000000000600000000000060300000000006050000000000600000000000060400017000000000000003300000000000001991400000000000000009999123100000010000000000000BREQPAACNOR1111
012024101002EQTL3       010EQUATORIAL  ON      NM   R$  000000000322400000000032410000000003187000000000320900000000032050000000003205000000000321015889000000000006352500000000020387673900000000000000009999123100000010000000000000BREQTLACNOR0131
012024101002ESPA3       010ESPACOLASER ON      NM   R$  000000000009700000000000980000000000096000000000009700000000000980000000000096000000000009800108000000000000116100000000000011281300000000000000009999123100000010000000000000BRESPAACNOR7103
012024101002RCSL3       010RECRUSUL    ON           R$  000000000048000000000004900000000000460000000000047400000000004690000000000466000000000046903385000000000001344500000000000637438700000000000000009999123100000010000000000000BRRCSLACNOR4134
012024101002RCSL4       010RECRUSUL    PN           R$  000000000010800000000001180000000000106000000000011100000000001070000000000107000000000010802799000000000002948100000000000328446300000000000000009999123100000010000000000000BRRCSLACNPR1134
012024101002RDNI3       010RNI         ON      NM   R$  000000000030500000000003110000000000305000000000030700000000003110000000000307000000000030900005000000000000000500000000000000153700000000000000009999123100000010000000000000BRRDNIACNOR9116
012024101002RDOR3       010REDE D OR   ON      NM   R$  000000000298800000000030240000000002961000000000300200000000030240000000003020000000000302515281000000000004089900000000012278877100000000000000009999123100000010000000000000BRRDORACNOR8114
012024101002KRSA3       010KORA SAUDE  ON      NM   R$  000000000004900000000000490000000000046000000000004800000000000490000000000048000000000004900330000000000000368800000000000017716700000000000000009999123100000010000000000000BRKRSAACNOR0100
012024101002CAMB3       010CAMBUCI     ON           R$  000000000122200000000012340000000001217000000000122900000000012330000000001228000000000123300045000000000000006800000000000008363100000000000000009999123100000010000000000000BRCAMBACNOR4131
012024101002CAML3       010CAMIL       ON      NM   R$  000000000084700000000008540000000000831000000000084300000000008540000000000850000000000085402245000000000000497000000000000419427900000000000000009999123100000010000000000000BRCAMLACNOR3129
012024101002CASH3       010MELIUZ      ON      NM   R$  000000000034900000000003570000000000339000000000034500000000003400000000000340000000000034202744000000000001463800000000000506024200000000000000009999123100000010000000000000BRCASHACNOR8107
012024101002CBAV3       010CBA         ON      NM   R$  000000000056300000000005700000000000550000000000055600000000005510000000000551000000000055204605000000000002242400000000001248353700000000000000009999123100000010000000000000BRCBAVACNOR5104
012024101002DMVF3       010D1000VFARMA ON      NM   R$  000000000062500000000006600000000000622000000000064100000000006420000000000642000000000065400534000000000000247500000000000158716300000000000000009999123100000010000000000000BRDMVFACNOR9100
012024101002DOTZ3       010DOTZ SA     ON      NM   R$  000000000069000000000006960000000000586000000000064000000000005880000000000588000000000060000593000000000000135200000000000086531600000000000000009999123100000010000000000000BRDOTZACNOR7101
012024101002DXCO3       010DEXCO       ON      NM   R$  000000000080400000000008070000000000789000000000079600000000007970000000000796000000000079705244000000000003186200000000002537037500000000000000009999123100000010000000000000BRDXCOACNOR8105
012024101002EALT3       010ACO ALTONA  ON           R$  000000000149400000000014940000000001423000000000144800000000014270000000001426000000000149500003000000000000000300000000000000434400000000000000009999123100000010000000000000BREALTACNOR4138
012024101002EALT4       010ACO ALTONA  PN           R$  000000000137400000000013850000000001331000000000135400000000013310000000001331000000000135500069000000000000018600000000000025201500000000000000009999123100000010000000000000BREALTACNPR1138
012024101002ECOR3       010ECORODOVIAS ON      NM   R$  000000000066800000000007080000000000668000000000069800000000007080000000000704000000000070810618000000000005939900000000004149974200000000000000009999123100000010000000000000BRECORACNOR8120
012024101002CPFE3       010CPFL ENERGIAON      NM   R$  000000000328800000000032960000000003250000000000327500000000032650000000003265000000000327506997000000000001522000000000004985909600000000000000009999123100000010000000000000BRCPFEACNOR0137
012024101002CPLE3       010COPEL       ON  EDJ N2   R$  000000000091700000000009200000000000907000000000091400000000009130000000000911000000000091406006000000000006674900000000006103667900000000000000009999123100000010000000000000BRCPLEACNOR8150
012024101002CPLE5       010COPEL       PNA EDJ N2   R$  000000000129400000000012940000000001290000000000129200000000012900000000001103000000000135000002000000000000000200000000000000258400000000000000009999123100000010000000000000BRCPLEACNPA1148
012024101002CPLE6       010COPEL       PNB EDJ N2   R$  000000000101100000000010160000000001005000000000101000000000010110000000001010000000000101214871000000000013410800000000013558252200000000000000009999123100000010000000000000BRCPLEACNPB9147
012024101002EGIE3       010ENGIE BRASILON      NM   R$  000000000410900000000041240000000004093000000000410500000000040930000000004091000000000409804347000000000000976500000000004009196100000000000000009999123100000010000000000000BREGIEACNOR9127
012024101002GRND3       010GRENDENE    ON      NM   R$  000000000055100000000005520000000000546000000000054900000000005480000000000548000000000055102055000000000000511200000000000280676900000000000000009999123100000010000000000000BRGRNDACNOR3175
012024101002GSHP3       010GENERALSHOPPON           R$  000000000088000000000009500000000000880000000000089700000000008800000000000880000000000100000004000000000000000400000000000000359000000000000000009999123100000010000000000000BRGSHPACNOR7102
012024101002ESTR4       010ESTRELA     PN           R$  000000000036300000000003900000000000363000000000036800000000003900000000000301000000000039000003000000000000000500000000000000184400000000000000009999123100000010000000000000BRESTRACNPR0144
012024101002ETER3       010ETERNIT     ON      NM   R$  000000000056000000000005680000000000558000000000056400000000005600000000000560000000000056500311000000000000132500000000000074774600000000000000009999123100000010000000000000BRETERACNOR3244
012024101002EUCA3       010EUCATEX     ON      N1   R$  000000000161600000000016160000000001616000000000161600000000016160000000001615000000000170000001000000000000000100000000000000161600000000000000009999123100000010000000000000BREUCAACNOR1157
012024101002EUCA4       010EUCATEX     PN      N1   R$  000000000152500000000015350000000001493000000000151300000000015200000000001505000000000152000245000000000000042300000000000064040600000000000000009999123100000010000000000000BREUCAACNPR8044
012024101002IGTI11      010IGUATEMI S.AUNT     N1   R$  000000000209700000000021600000000002097000000000214100000000021440000000002144000000000215710225000000000002489800000000005330765400000000000000009999123100000010000000000000BRIGTICDAM16106
012024101002IGTI3       010IGUATEMI S.AON      N1   R$  000000000025600000000002630000000000256000000000026000000000002630000000000261000000000026300049000000000000024000000000000006262500000000000000009999123100000010000000000000BRIGTIACNOR8106
012024101002INEP3       010INEPAR      ON           R$  000000000018300000000001830000000000179000000000018000000000001800000000000180000000000018200026000000000000013900000000000002504600000000000000009999123100000010000000000000BRINEPACNOR1143
012024101002BAZA3       010AMAZONIA    ON           R$  000000000921500000000093410000000009168000000000925300000000091880000000009188000000000925300016000000000000001900000000000017582400000000000000009999123100000010000000000000BRBAZAACNOR0179
012024101002BBAS3       010BRASIL      ON      NM   R$  000000000266400000000026640000000002619000000000262900000000026200000000002620000000000262140672000000000020486300000000053874476500000000000000009999123100000010000000000000BRBBASACNOR3326
012024101002BEES3       010BANESTES    ON  EJ       R$  000000000088700000000008900000000000885000000000088700000000008850000000000886000000000088800067000000000000014500000000000012862200000000000000009999123100000010000000000000BRBEESACNOR9396
012024101002BEES4       010BANESTES    PN  EJ       R$  000000000093000000000009300000000000923000000000092500000000009240000000000923000000000095200012000000000000002400000000000002221700000000000000009999123100000010000000000000BRBEESACNPR6321
012024101002GUAR3       010GUARARAPES  ON      NM   R$  000000000075300000000007840000000000753000000000077500000000007790000000000777000000000077902154000000000000609700000000000472744800000000000000009999123100000010000000000000BRGUARACNOR4173
012024101002HAGA3       010HAGA S/A    ON           R$  000000000025400000000002600000000000253000000000025600000000002530000000000249000000000025300027000000000000004900000000000001258700000000000000009999123100000010000000000000BRHAGAACNOR7103
012024101002INEP4       010INEPAR      PN           R$  000000000018100000000001830000000000173000000000017600000000001730000000000173000000000017500062000000000000039200000000000006913400000000000000009999123100000010000000000000BRINEPACNPR8143
012024101002INTB3       010INTELBRAS   ON      NM   R$  000000000206900000000020690000000002007000000000202500000000020220000000002022000000000203303925000000000000746000000000001510922800000000000000009999123100000010000000000000BRINTBACNOR9112
012024101002IRBR3       010IRBBRASIL REON      NM   R$  000000000429400000000043340000000004260000000000429500000000043220000000004322000000000432702893000000000000613900000000002636980800000000000000009999123100000010000000000000BRIRBRACNOR4111
012024101002LOGG3       010LOG COM PROPON      NM   R$  000000000224800000000022590000000002221000000000223700000000022210000000002220000000000222501020000000000000139500000000000312182600000000000000009999123100000010000000000000BRLOGGACNOR7107
012024101002LOGN3       010LOG-IN      ON      NM   R$  000000000315800000000032100000000003125000000000315500000000031250000000003125000000000316000166000000000000024200000000000076358900000000000000009999123100000010000000000000BRLOGNACNOR3105
012024101002LPSB3       010LOPES BRASILON      NM   R$  000000000017600000000001780000000000171000000000017400000000001720000000000172000000000017400304000000000000087800000000000015342200000000000000009999123100000010000000000000BRLPSBACNOR0114
012024101002LREN3       010LOJAS RENNERON      NM   R$  000000000177100000000018250000000001766000000000180500000000018100000000001810000000000181523440000000000026175100000000047261975900000000000000009999123100000010000000000000BRLRENACNOR1222
012024101002BPAC5       010BTGP BANCO  PNA     N2   R$  000000000083200000000008350000000000830000000000083100000000008350000000000831000000000083400026000000000000004600000000000003824100000000000000009999123100000010000000000000BRBPACACNPA0134
012024101002COCE5       010COELCE      PNA          R$  000000000270000000000027000000000002665000000000267000000000026650000000002665000000000268000057000000000000006900000000000018425500000000000000009999123100000010000000000000BRCOCEACNPA3147
012024101002COGN3       010COGNA ON    ON      NM   R$  000000000013300000000001340000000000129000000000013100000000001320000000000131000000000013221268000000000044435200000000005836476600000000000000009999123100000010000000000000BRCOGNACNOR2105
012024101002CRPG5       010CRISTAL     PNA          R$  000000000254700000000025490000000002523000000000253800000000025230000000002501000000000256600007000000000000000700000000000001777100000000000000009999123100000010000000000000BRCRPGACNPA3119
012024101002CSAN3       010COSAN       ON      NM   R$  000000000122600000000012560000000001225000000000124400000000012480000000001247000000000124819836000000000010289800000000012804266300000000000000009999123100000010000000000000BRCSANACNOR6126
012024101002ENEV3       010ENEVA       ON      NM   R$  000000000138200000000013980000000001380000000000139200000000013950000000001391000000000139516081000000000007744200000000010784181700000000000000009999123100000010000000000000BRENEVACNOR8106
012024101002ENGI11      010ENERGISA    UNT     N2   R$  000000000433900000000043700000000004320000000000435100000000043510000000004351000000000435709775000000000003567200000000015522061300000000000000009999123100000010000000000000BRENGICDAM16136
012024101002HAGA4       010HAGA S/A    PN           R$  000000000011500000000001190000000000115000000000011600000000001190000000000117000000000011800027000000000000009700000000000001130500000000000000009999123100000010000000000000BRHAGAACNPR4103
012024101002HAPV3       010HAPVIDA     ON  ATZ NM   R$  000000000039100000000003910000000000380000000000038400000000003810000000000381000000000038247174000000000071544500000000027522964700000000000000009999123100000010000000000000BRHAPVACNOR4115
012024101002AVLL3       010ALPHAVILLE  ON      NM   R$  000000000031800000000003180000000000318000000000031800000000003180000000000307000000000031800004000000000000016000000000000005088000000000000000009999123100000010000000000000BRAVLLACNOR5103
012024101002AZEV3       010AZEVEDO     ON           R$  000000000013100000000001310000000000127000000000012800000000001290000000000128000000000012900410000000000000321600000000000041444400000000000000009999123100000010000000000000BRAZEVACNOR0121
012024101002AZEV4       010AZEVEDO     PN           R$  000000000012700000000001280000000000124000000000012500000000001250000000000125000000000012601527000000000001943100000000000243803100000000000000009999123100000010000000000000BRAZEVACNPR7121
012024101002AZUL4       010AZUL        PN      N2   R$  000000000062600000000006270000000000574000000000059600000000005810000000000580000000000058115449000000000031694500000000018913391100000000000000009999123100000010000000000000BRAZULACNPR4103
012024101002BBDC3       010BRADESCO    ON  EJ  N1   R$  000000000130500000000013170000000001297000000000130600000000013170000000001311000000000131706660000000000003579000000000004676974100000000000000009999123100000010000000000000BRBBDCACNOR1776
012024101002BBDC4       010BRADESCO    PN  EJ  N1   R$  000000000149200000000015020000000001482000000000149100000000015000000000001495000000000150036392000000000021996700000000032814603400000000000000009999123100000010000000000000BRBBDCACNPR8776
012024101002GFSA3       010GAFISA      ON      NM   R$  000000000019200000000001930000000000187000000000018900000000001910000000000190000000000019101580000000000002888400000000000547636700000000000000009999123100000010000000000000BRGFSAACNOR3125
012024101002GGBR3       010GERDAU      ON      N1   R$  000000000167300000000017030000000001673000000000168700000000016790000000001679000000000169700157000000000000029700000000000050130500000000000000009999123100000010000000000000BRGGBRACNOR1193
012024101002GGBR4       010GERDAU      PN      N1   R$  000000000191100000000019350000000001900000000000191900000000019150000000001914000000000191615304000000000007865500000000015096259600000000000000009999123100000010000000000000BRGGBRACNPR8193
012024101002ITUB3       010ITAUUNIBANCOON  EJ  N1   R$  000000000302500000000030420000000003017000000000303000000000030270000000003026000000000304000997000000000000220300000000000667673500000000000000009999123100000010000000000000BRITUBACNOR4342
012024101002ITUB4       010ITAUUNIBANCOPN  EJ  N1   R$  000000000347100000000034970000000003457000000000348100000000034890000000003488000000000349027883000000000020487100000000071322349600000000000000009999123100000010000000000000BRITUBACNPR1342
012024101002MDNE3       010MOURA DUBEUXON      NM   R$  000000000157300000000015960000000001548000000000156200000000015570000000001546000000000155702668000000000000637900000000000996528400000000000000009999123100000010000000000000BRMDNEACNOR9100
012024101002MEAL3       010IMC S/A     ON      NM   R$  000000000013600000000001380000000000136000000000013600000000001360000000000136000000000013800095000000000000151700000000000020771800000000000000009999123100000010000000000000BRMEALACNOR9105
012024101002MELK3       010MELNICK     ON      NM   R$  000000000035500000000003580000000000352000000000035400000000003550000000000355000000000035701235000000000000590800000000000209261400000000000000009999123100000010000000000000BRMELKACNOR8111
012024101002ENGI3       010ENERGISA    ON      N2   R$  000000000130600000000013310000000001306000000000131900000000013090000000001309000000000133800015000000000000001900000000000002507900000000000000009999123100000010000000000000BRENGIACNOR0146
012024101002IFCM3       010INFRACOMM   ON      NM   R$  000000000001600000000000170000000000016000000000001600000000000160000000000016000000000001704196000000000004338300000000000070117900000000000000009999123100000010000000000000BRIFCMACNOR8101
012024101002BRIT3       010BRISANET    ON      NM   R$  000000000031100000000003110000000000300000000000030400000000003040000000000304000000000030500673000000000000365300000000000111133400000000000000009999123100000010000000000000BRBRITACNOR0103
012024101002BRKM3       010BRASKEM     ON      N1   R$  000000000188700000000019750000000001824000000000186100000000018270000000001820000000000186500061000000000000008700000000000016196600000000000000009999123100000010000000000000BRBRKMACNOR1119
012024101002BRKM5       010BRASKEM     PNA     N1   R$  000000000188200000000018940000000001847000000000187200000000018890000000001888000000000188907147000000000002486200000000004654336500000000000000009999123100000010000000000000BRBRKMACNPA4121
012024101002BRKM6       010BRASKEM     PNB     N1   R$  000000000130000000000013000000000001300000000000130000000000013000000000001300000000000140000001000000000000000200000000000000260000000000000000009999123100000010000000000000BRBRKMACNPB2114
012024101002MGEL4       010MANGELS INDLPN           R$  000000000110000000000011000000000001100000000000110000000000011000000000001036000000000110500001000000000000000400000000000000440000000000000000009999123100000010000000000000BRMGELACNPR3147
012024101002MGLU3       010MAGAZ LUIZA ON      NM   R$  000000000093000000000009320000000000907000000000092100000000009210000000000920000000000092216984000000000017494800000000016117228700000000000000009999123100000010000000000000BRMGLUACNOR2125
012024101002ALPK3       010ESTAPAR     ON      NM   R$  000000000027700000000002790000000000261000000000026700000000002640000000000261000000000026400581000000000000396700000000000106300100000000000000009999123100000010000000000000BRALPKACNOR9101
012024101002ALUP11      010ALUPAR      UNT     N2   R$  000000000293900000000029690000000002928000000000295300000000029500000000002950000000000295503770000000000000808900000000002388867400000000000000009999123100000010000000000000BRALUPCDAM15120
012024101002ALUP3       010ALUPAR      ON      N2   R$  000000000099100000000010180000000000991000000000100600000000010150000000001015000000000101900049000000000000007000000000000007047500000000000000009999123100000010000000000000BRALUPACNOR8120
012024101002ALUP4       010ALUPAR      PN      N2   R$  000000000096700000000009740000000000955000000000096800000000009730000000000970000000000097400087000000000000021100000000000020443600000000000000009999123100000010000000000000BRALUPACNPR5120
012024101002AMAR3       010LOJAS MARISAON      NM   R$  000000000010400000000001050000000000101000000000010300000000001010000000000101000000000010300360000000000000258400000000000026747400000000000000009999123100000010000000000000BRAMARACNOR4115
012024101002AMBP3       010AMBIPAR     ON      NM   R$  000000001274900000000129930000000012255000000001264900000000126800000000012501000000001268000630000000000000119900000000001516718900000000000000009999123100000010000000000000BRAMBPACNOR6103
012024101002DASA3       010DASA        ON      NM   R$  000000000030500000000003050000000000289000000000029800000000002990000000000299000000000030001487000000000000899600000000000268919500000000000000009999123100000010000000000000BRDASAACNOR1123
012024101002DESK3       010DESKTOP     ON      NM   R$  000000000138300000000014040000000001367000000000138700000000013940000000001380000000000139600829000000000000137400000000000190606100000000000000009999123100000010000000000000BRDESKACNOR2104
012024101002DEXP3       010DEXXOS PAR  ON      N1   R$  000000000087800000000008980000000000876000000000088800000000008950000000000890000000000089500338000000000000066600000000000059205300000000000000009999123100000010000000000000BRDEXPACNOR1105
012024101002SNSY5       010SANSUY      PNA          R$  000000000050100000000005490000000000501000000000051700000000005230000000000486000000000051800018000000000000008800000000000004550700000000000000009999123100000010000000000000BRSNSYACNPA5111
012024101002SOJA3       010BOA SAFRA   ON  EJ  NM   R$  000000000124200000000012420000000001190000000000120400000000011900000000001189000000000119802079000000000000440900000000000531239600000000000000009999123100000010000000000000BRSOJAACNOR9106
012024101002SOND3       010SONDOTECNICAON           R$  000000000470000000000047000000000004700000000000470000000000047000000000004700000000000000000002000000000000000200000000000000940000000000000000009999123100000010000000000000BRSONDACNOR5166
012024101002SOND6       010SONDOTECNICAPNB          R$  000000000470000000000047000000000004700000000000470000000000047000000000004500000000000575000001000000000000000100000000000000470000000000000000009999123100000010000000000000BRSONDACNPB6166
012024101002SRNA3       010SERENA      ON      NM   R$  000000000078800000000008000000000000780000000000079000000000007890000000000789000000000079406141000000000002001900000000001582024300000000000000009999123100000010000000000000BRSRNAACNOR4100
012024101002STBP3       010SANTOS BRP  ON      NM   R$  000000000146300000000014670000000001460000000000146500000000014670000000001465000000000146807066000000000004587100000000006723266300000000000000009999123100000010000000000000BRSTBPACNOR3131
012024101002SUZB3       010SUZANO S.A. ON      NM   R$  000000000543800000000054440000000005371000000000540000000000054130000000005409000000000541815689000000000003863800000000020866730800000000000000009999123100000010000000000000BRSUZBACNOR0130
012024101002VAMO3       010VAMOS       ON      NM   R$  000000000055500000000005640000000000544000000000055300000000005510000000000551000000000055511279000000000007516300000000004159519800000000000000009999123100000010000000000000BRVAMOACNOR7105
012024101002VBBR3       010VIBRA       ON      NM   R$  000000000227300000000022930000000002260000000000227600000000022760000000002272000000000227915475000000000006803700000000015489295200000000000000009999123100000010000000000000BRVBBRACNOR1109
012024101002PRNR3       010PRINER      ON      NM   R$  000000000120700000000012310000000001204000000000121600000000012180000000001212000000000121801038000000000000369100000000000449017400000000000000009999123100000010000000000000BRPRNRACNOR4109
012024101002CRFB3       010CARREFOUR BRON      NM   R$  000000000077400000000007800000000000752000000000076200000000007530000000000753000000000075414675000000000010290900000000007849001100000000000000009999123100000010000000000000BRCRFBACNOR2116
012024101002ELMD3       010ELETROMIDIA ON      NM   R$  000000000171700000000017350000000001635000000000166100000000016350000000001635000000000164900643000000000000107600000000000178773700000000000000009999123100000010000000000000BRELMDACNOR3101
012024101002EMAE4       010EMAE        PN           R$  000000000397400000000039780000000003943000000000396200000000039430000000003942000000000401700012000000000000001400000000000005547200000000000000009999123100000010000000000000BREMAEACNPR1126
012024101002EMBR3       010EMBRAER     ON      NM   R$  000000000460000000000047040000000004564000000000465700000000046750000000004675000000000468015114000000000004532100000000021108650600000000000000009999123100000010000000000000BREMBRACNOR4191
012024101002B3SA3       010B3          ON      NM   R$  000000000107100000000010830000000001070000000000107400000000010750000000001074000000000107537474000000000037701700000000040514489000000000000000009999123100000010000000000000BRB3SAACNOR6134
012024101002JHSF3       010JHSF PART   ON  ED  NM   R$  000000000044200000000004480000000000430000000000043900000000004300000000000430000000000043303975000000000017078400000000007512175300000000000000009999123100000010000000000000BRJHSFACNOR2140
012024101002JSLG3       010JSL         ON      NM   R$  000000000072800000000007620000000000727000000000074700000000007620000000000762000000000077003077000000000002595000000000001939137500000000000000009999123100000010000000000000BRJSLGACNOR2121
012024101002KEPL3       010KEPLER WEBERON      NM   R$  000000000094000000000009550000000000936000000000094500000000009450000000000943000000000094503908000000000000998500000000000944569000000000000000009999123100000010000000000000BRKEPLACNOR1064
012024101002KLBN11      010KLABIN S/A  UNT     N2   R$  000000000209400000000020990000000002045000000000205700000000020450000000002044000000000205213694000000000008171100000000016815553300000000000000009999123100000010000000000000BRKLBNCDAM18143
012024101002KLBN3       010KLABIN S/A  ON      N2   R$  000000000041800000000004210000000000411000000000041400000000004110000000000411000000000041301222000000000000566200000000000234611700000000000000009999123100000010000000000000BRKLBNACNOR2171
012024101002KLBN4       010KLABIN S/A  PN      N2   R$  000000000041900000000004190000000000410000000000041300000000004100000000000410000000000041203097000000000002484200000000001027280500000000000000009999123100000010000000000000BRKLBNACNPR9171
012024101002AZZA3       010AZZAS 2154  ON      NM   R$  000000000413500000000041480000000004055000000000410100000000041350000000004130000000000413504806000000000001146800000000004703735100000000000000009999123100000010000000000000BRAZZAACNOR9100
012024101002BBSE3       010BBSEGURIDADEON      NM   R$  000000000338500000000034070000000003375000000000338900000000033840000000003383000000000339411024000000000003287800000000011144042900000000000000009999123100000010000000000000BRBBSEACNOR5125
012024101002CCRO3       010CCR SA      ON      NM   R$  000000000120100000000012210000000001195000000000120900000000012070000000001205000000000120716589000000000007765900000000009395216300000000000000009999123100000010000000000000BRCCROACNOR2145
012024101002CEAB3       010CEA MODAS   ON      NM   R$  000000000098900000000010300000000000976000000000101100000000010280000000001028000000000103005859000000000002116800000000002142085500000000000000009999123100000010000000000000BRCEABACNOR1102
012024101002CEBR3       010CEB         ON           R$  000000000189300000000019000000000001885000000000189200000000018850000000001871000000000188800017000000000000003100000000000005867500000000000000009999123100000010000000000000BRCEBRACNOR5125
012024101002CEBR6       010CEB         PNB          R$  000000000179700000000018000000000001752000000000178600000000018000000000001775000000000180000044000000000000015100000000000026975400000000000000009999123100000010000000000000BRCEBRACNPB6124
012024101002CEDO3       010CEDRO       ON      N1   R$  000000000230000000000023000000000002300000000000230000000000023000000000001537000000000230000004000000000000002000000000000004600000000000000000009999123100000010000000000000BRCEDOACNOR8096
012024101002CGAS5       010COMGAS      PNA          R$  000000001262500000000126250000000012502000000001259700000000125020000000012530000000001299000008000000000000000900000000000011337800000000000000009999123100000010000000000000BRCGASACNPA3161
012024101002CGRA3       010GRAZZIOTIN  ON           R$  000000000250900000000025270000000002509000000000252000000000025270000000002506000000000254200003000000000000000300000000000000756200000000000000009999123100000010000000000000BRCGRAACNOR2083
012024101002CGRA4       010GRAZZIOTIN  PN           R$  000000000251600000000025160000000002510000000000251200000000025160000000002506000000000254900008000000000000001000000000000002512500000000000000009999123100000010000000000000BRCGRAACNPR9083
012024101002CLSA3       010CLEARSALE   ON      NM   R$  000000000095500000000009590000000000946000000000095200000000009480000000000948000000000094902427000000000001816700000000001729772200000000000000009999123100000010000000000000BRCLSAACNOR0100
012024101002CLSC3       010CELESC      ON      N2   R$  000000000760000000000076000000000007570000000000759400000000076000000000007401000000000760000003000000000000000500000000000003797000000000000000009999123100000010000000000000BRCLSCACNOR6153
012024101002CLSC4       010CELESC      PN      N2   R$  000000000820200000000082020000000008110000000000814300000000081410000000008079000000000814100004000000000000000400000000000003257300000000000000009999123100000010000000000000BRCLSCACNPR3132
012024101002CMIG3       010CEMIG       ON      N1   R$  000000000141500000000014210000000001402000000000141300000000014150000000001414000000000142300435000000000000080100000000000113223200000000000000009999123100000010000000000000BRCMIGACNOR6244
012024101002CMIG4       010CEMIG       PN      N1   R$  000000000110500000000011170000000001104000000000111100000000011120000000001112000000000111310203000000000008725800000000009699042800000000000000009999123100000010000000000000BRCMIGACNPR3245
012024101002MATD3       010MATER DEI   ON      NM   R$  000000000043600000000004520000000000435000000000044200000000004490000000000444000000000044903394000000000000728500000000000322539000000000000000009999123100000010000000000000BRMATDACNOR4104
012024101002MBLY3       010MOBLY       ON      NM   R$  000000000022100000000002240000000000209000000000021400000000002130000000000213000000000021401217000000000000619600000000000132983700000000000000009999123100000010000000000000BRMBLYACNOR5100
012024101002MDIA3       010M.DIASBRANCOON      NM   R$  000000000260000000000026060000000002500000000000255300000000025000000000002500000000000251904363000000000002378800000000006073248200000000000000009999123100000010000000000000BRMDIAACNOR7136
012024101002AERI3       010AERIS       ON      NM   R$  000000000063200000000006390000000000625000000000063100000000006350000000000633000000000063500429000000000000119400000000000075439400000000000000009999123100000010000000000000BRAERIACNOR4102
012024101002AESB3       010AES BRASIL  ON      NM   R$  000000000117100000000011760000000001171000000000117200000000011720000000001172000000000117302192000000000005374300000000006303519900000000000000009999123100000010000000000000BRAESBACNOR7107
012024101002AGRO3       010BRASILAGRO  ON      NM   R$  000000000249300000000025040000000002468000000000248200000000024730000000002471000000000247601467000000000000219700000000000545422300000000000000009999123100000010000000000000BRAGROACNOR7114
012024101002ALLD3       010ALLIED      ON      NM   R$  000000000076800000000007730000000000752000000000075900000000007600000000000760000000000076300179000000000000038400000000000029168800000000000000009999123100000010000000000000BRALLDACNOR3106
012024101002ALOS3       010ALLOS       ON  ED  NM   R$  000000000219400000000022270000000002184000000000221300000000022170000000002217000000000222612694000000000004813600000000010655860200000000000000009999123100000010000000000000BRALOSACNOR5102
012024101002ALPA3       010ALPARGATAS  ON      N1   R$  000000000066200000000006840000000000660000000000066000000000006600000000000660000000000068200025000000000000010700000000000007067800000000000000009999123100000010000000000000BRALPAACNOR0231
012024101002ALPA4       010ALPARGATAS  PN      N1   R$  000000000068300000000007000000000000670000000000068500000000006950000000000691000000000069508033000000000004377900000000003002586700000000000000009999123100000010000000000000BRALPAACNPR7232
012024101002BGIP4       010BANESE      PN           R$  000000000241500000000024150000000002415000000000241500000000024150000000002409000000000248700001000000000000000100000000000000241500000000000000009999123100000010000000000000BRBGIPACNPR8210
012024101002BHIA3       010CASAS BAHIA ON      NM   R$  000000000042300000000004300000000000420000000000042400000000004250000000000425000000000042602100000000000002397400000000001018228400000000000000009999123100000010000000000000BRBHIAACNOR1102
012024101002BPAN4       010BANCO PAN   PN      N1   R$  000000000094600000000009670000000000938000000000095300000000009610000000000960000000000096102991000000000001668900000000001592044500000000000000009999123100000010000000000000BRBPANACNPR1115
012024101002BRAP3       010BRADESPAR   ON      N1   R$  000000000177600000000017870000000001762000000000177600000000017810000000001780000000000179000160000000000000029400000000000052234300000000000000009999123100000010000000000000BRBRAPACNOR5148
012024101002BRAP4       010BRADESPAR   PN      N1   R$  000000000192200000000019380000000001916000000000192500000000019220000000001921000000000192305081000000000001720300000000003312253900000000000000009999123100000010000000000000BRBRAPACNPR2148
012024101002CSED3       010CRUZEIRO EDUON      NM   R$  000000000031200000000003140000000000306000000000030900000000003080000000000307000000000030801515000000000000787700000000000243575900000000000000009999123100000010000000000000BRCSEDACNOR9105
012024101002CSMG3       010COPASA      ON      NM   R$  000000000225600000000022560000000002215000000000222600000000022250000000002220000000000222505078000000000000982100000000002186910800000000000000009999123100000010000000000000BRCSMGACNOR5175
012024101002UCAS3       010UNICASA     ON      NM   R$  000000000021600000000002190000000000212000000000021500000000002120000000000212000000000021500089000000000000045500000000000009801400000000000000009999123100000010000000000000BRUCASACNOR1113
012024101002UGPA3       010ULTRAPAR    ON      NM   R$  000000000205700000000020990000000002050000000000208100000000020910000000002090000000000209109067000000000003342400000000006956234300000000000000009999123100000010000000000000BRUGPAACNOR8156
012024101002WEST3       010WESTWING    ON      NM   R$  000000000008100000000000820000000000080000000000008000000000000820000000000080000000000008100009000000000000005000000000000000404100000000000000009999123100000010000000000000BRWESTACNOR3100
012024101002WHRL3       010WHIRLPOOL   ON           R$  000000000041800000000004270000000000416000000000042300000000004160000000000416000000000042800021000000000000006200000000000002625600000000000000009999123100000010000000000000BRWHRLACNOR5129
012024101002WHRL4       010WHIRLPOOL   PN           R$  000000000044200000000004440000000000436000000000044000000000004400000000000436000000000044000010000000000000001300000000000000572700000000000000009999123100000010000000000000BRWHRLACNPR2129
012024101002WIZC3       010WIZ CO      ON      NM   R$  000000000060200000000006080000000000595000000000060000000000006000000000000600000000000060101002000000000000219900000000000131995700000000000000009999123100000010000000000000BRWIZCACNOR5102
012024101002WLMM4       010WLM IND COM PN           R$  000000000322600000000032260000000003225000000000322500000000032250000000003001000000000322000003000000000000000300000000000000967600000000000000009999123100000010000000000000BRWLMMACNPR3119
012024101002YDUQ3       010YDUQS PART  ON      NM   R$  000000000100500000000010200000000000979000000000100100000000010070000000001005000000000100808132000000000004462800000000004471457600000000000000009999123100000010000000000000BRYDUQACNOR3105
012024101002NGRD3       010NEOGRID     ON  EBG NM   R$  000000000316100000000032230000000002922000000000306000000000030330000000003030000000000306000302000000000000070600000000000216045300000000000000009999123100000010000000000000BRNGRDACNOR3106
012024101002NINJ3       010GETNINJAS   ON      NM   R$  000000000046900000000004700000000000465000000000046600000000004650000000000451000000000048000047000000000000016900000000000007890400000000000000009999123100000010000000000000BRNINJACNOR5101
012024101002NTCO3       010GRUPO NATURAON      NM   R$  000000000154100000000015510000000001503000000000152000000000015120000000001508000000000151213421000000000005039400000000007660143500000000000000009999123100000010000000000000BRNTCOACNOR5106
012024101002ODPV3       010ODONTOPREV  ON  EJ  NM   R$  000000000107500000000010800000000001045000000000105200000000010450000000001044000000000104503854000000000000830300000000000874045500000000000000009999123100000010000000000000BRODPVACNOR4204
012024101002PETZ3       010PETZ        ON      NM   R$  000000000047500000000004800000000000470000000000047500000000004750000000000475000000000047604908000000000003224300000000001533385400000000000000009999123100000010000000000000BRPETZACNOR2110
012024101002RECV3       010PETRORECSA  ON      NM   R$  000000000177700000000018360000000001777000000000181100000000018100000000001810000000000181108335000000000003075000000000005569469600000000000000009999123100000010000000000000BRRECVACNOR3107
012024101002SYNE3       010SYN PROP TECON      NM   R$  000000000077200000000007810000000000768000000000077300000000007700000000000769000000000077002083000000000000928100000000000718289600000000000000009999123100000010000000000000BRSYNEACNOR2103
012024101002VSTE3       010VESTE       ON      NM   R$  000000000104300000000010430000000001007000000000101400000000010290000000001017000000000102900019000000000000006500000000000006591300000000000000009999123100000010000000000000BRVSTEACNOR5103
012024101002VTRU3       010VITRUEDUCA  ON      NM   R$  000000000091600000000009380000000000895000000000091200000000009380000000000936000000000093800569000000000000172700000000000157596800000000000000009999123100000010000000000000BRVTRUACNOR3100
012024101002VULC3       010VULCABRAS   ON      NM   R$  000000000164700000000016520000000001632000000000164000000000016350000000001634000000000163501522000000000000294400000000000482882800000000000000009999123100000010000000000000BRVULCACNOR2162
012024101002VVEO3       010VIVEO       ON      NM   R$  000000000017900000000001820000000000177000000000017800000000001800000000000180000000000018100858000000000000987900000000000176817800000000000000009999123100000010000000000000BRVVEOACNOR0104
012024101002WEGE3       010WEG         ON      NM   R$  000000000537000000000054180000000005352000000000539300000000054180000000005403000000000541814424000000000003762500000000020291578100000000000000009999123100000010000000000000BRWEGEACNOR0225
012024101002MRVE3       010MRV         ON      NM   R$  000000000078800000000007910000000000765000000000077700000000007780000000000775000000000077816776000000000011541800000000008968381100000000000000009999123100000010000000000000BRMRVEACNOR2127
012024101002MTRE3       010MITRE REALTYON      NM   R$  000000000036800000000003680000000000356000000000035900000000003560000000000355000000000035601139000000000001022600000000000367548200000000000000009999123100000010000000000000BRMTREACNOR6115
012024101002MTSA4       010METISA      PN           R$  000000000372900000000037290000000003689000000000370700000000036890000000003640000000000374800016000000000000002000000000000007415200000000000000009999123100000010000000000000BRMTSAACNPR9073
012024101002MULT3       010MULTIPLAN   ON      N2   R$  000000000252600000000026020000000002526000000000257700000000025940000000002594000000000260014367000000000002615700000000006742840600000000000000009999123100000010000000000000BRMULTACNOR5139
012024101002RAIZ4       010RAIZEN      PN      N2   R$  000000000029900000000003010000000000296000000000029800000000002980000000000298000000000029908311000000000006296100000000001878548600000000000000009999123100000010000000000000BRRAIZACNPR6111
012024101002VITT3       010VITTIA      ON      NM   R$  000000000057000000000005780000000000562000000000057100000000005740000000000573000000000057401065000000000000320900000000000183292500000000000000009999123100000010000000000000BRVITTACNOR4107
012024101002VIVA3       010VIVARA S.A. ON      NM   R$  000000000271900000000027390000000002675000000000269600000000026930000000002686000000000269609470000000000002664500000000007183668100000000000000009999123100000010000000000000BRVIVAACNOR0107
012024101002VIVR3       010VIVER       ON      NM   R$  000000000017100000000002050000000000167000000000019000000000001830000000000182000000000018300706000000000000618000000000000117802200000000000000009999123100000010000000000000BRVIVRACNOR4123
012024101002VIVT3       010TELEF BRASILON           R$  000000000540300000000054510000000005380000000000540100000000053800000000005379000000000539408487000000000001448700000000007825279200000000000000009999123100000010000000000000BRVIVTACNOR0184
012024101002VLID3       010VALID       ON      NM   R$  000000000224200000000022600000000002222000000000224000000000022350000000002215000000000223500963000000000000125700000000000281682800000000000000009999123100000010000000000000BRVLIDACNOR5144
012024101002RADL3       010RAIADROGASILON  EDJ NM   R$  000000000248800000000024980000000002451000000000247400000000024590000000002456000000000246211121000000000003558200000000008803397200000000000000009999123100000010000000000000BRRADLACNOR0158
012024101002RAIL3       010RUMO S.A.   ON      NM   R$  000000000192600000000019530000000001916000000000193100000000019270000000001925000000000193017776000000000009842800000000019011109200000000000000009999123100000010000000000000BRRAILACNOR9105
012024101002SMFT3       010SMART FIT   ON      NM   R$  000000000222100000000022280000000002185000000000219900000000021850000000002184000000000218805902000000000001301800000000002863207000000000000000009999123100000010000000000000BRSMFTACNOR1112
012024101002SMTO3       010SAO MARTINHOON      NM   R$  000000000270600000000027160000000002644000000000267100000000026530000000002653000000000265708537000000000001907500000000005095645500000000000000009999123100000010000000000000BRSMTOACNOR3127
012024101002DIRR3       010DIRECIONAL  ON      NM   R$  000000000299400000000029940000000002950000000000297300000000029750000000002970000000000297507139000000000001474800000000004385967800000000000000009999123100000010000000000000BRDIRRACNOR0119
012024101002GGPS3       010GPS         ON      NM   R$  000000000181100000000018120000000001772000000000178500000000017870000000001786000000000179106577000000000001953200000000003487304200000000000000009999123100000010000000000000BRGGPSACNOR9103
012024101002GMAT3       010GRUPO MATEUSON      NM   R$  000000000073000000000007360000000000722000000000072600000000007220000000000722000000000073005096000000000002805800000000002039663800000000000000009999123100000010000000000000BRGMATACNOR7103
012024101002GOAU3       010GERDAU MET  ON      N1   R$  000000000104500000000010490000000001036000000000104200000000010490000000001046000000000104900100000000000000014700000000000015319300000000000000009999123100000010000000000000BRGOAUACNOR1268
012024101002GOAU4       010GERDAU MET  PN      N1   R$  000000000108300000000010880000000001070000000000108100000000010880000000001082000000000108809461000000000008735000000000009446342100000000000000009999123100000010000000000000BRGOAUACNPR8269
012024101002ATOM3       010ATOMPAR     ON           R$  000000000025900000000002780000000000258000000000026600000000002770000000000268000000000027700238000000000000105400000000000028096800000000000000009999123100000010000000000000BRATOMACNOR1106
012024101002AURE3       010AUREN       ON      NM   R$  000000000101100000000010150000000001007000000000101100000000010120000000001011000000000101505969000000000002431900000000002460715000000000000000009999123100000010000000000000BRAUREACNOR9104
012024101002BRBI11      010BR PARTNERS UNT     N2   R$  000000000151200000000015250000000001506000000000151700000000015250000000001511000000000152501594000000000000248300000000000376768000000000000000009999123100000010000000000000BRBRBICDAM10110
012024101002BRFS3       010BRF SA      ON      NM   R$  000000000227400000000023100000000002240000000000228700000000023080000000002308000000000231412297000000000006400000000000014638327600000000000000009999123100000010000000000000BRBRFSACNOR8122
012024101002CXSE3       010CAIXA SEGURION      NM   R$  000000000140700000000014160000000001401000000000140800000000014060000000001406000000000140907009000000000001912300000000002693620200000000000000009999123100000010000000000000BRCXSEACNOR7107
012024101002CYRE3       010CYRELA REALTON      NM   R$  000000000217500000000021920000000002153000000000217300000000021780000000002170000000000217811625000000000004057200000000008816636000000000000000009999123100000010000000000000BRCYREACNOR7140
012024101002FRAS3       010FRAS-LE     ON      N1   R$  000000000206400000000020680000000002050000000000205900000000020610000000002057000000000206102267000000000000483600000000000996121200000000000000009999123100000010000000000000BRFRASACNOR0160
012024101002FRIO3       010METALFRIO   ON      NM   R$  000000000950000000000095000000000009055000000000912000000000090550000000009054000000001039900012000000000000001200000000000010944000000000000000009999123100000010000000000000BRFRIOACNOR2111
012024101002BMOB3       010BEMOBI TECH ON      NM   R$  000000000141200000000014200000000001394000000000140800000000014090000000001409000000000141400736000000000000107400000000000151309800000000000000009999123100000010000000000000BRBMOBACNOR7103
012024101002BOBR4       010BOMBRIL     PN           R$  000000000022900000000002350000000000225000000000023100000000002330000000000230000000000023300207000000000000076300000000000017634400000000000000009999123100000010000000000000BRBOBRACNPR3128
012024101002BRAV3       010BRAVA       ON      NM   R$  000000000179600000000017980000000001759000000000177500000000017620000000001762000000000176310062000000000004821200000000008561141500000000000000009999123100000010000000000000BRBRAVACNOR3100
012024101002CSUD3       010CSU DIGITAL ON      NM   R$  000000000168500000000017000000000001669000000000169000000000017000000000001700000000000170200192000000000000040200000000000067963400000000000000009999123100000010000000000000BRCSUDACNOR5111
012024101002CURY3       010CURY S/A    ON  ED  NM   R$  000000000222900000000022440000000002208000000000223000000000022300000000002230000000000224005639000000000002343500000000005226513800000000000000009999123100000010000000000000BRCURYACNOR3110
012024101002CVCB3       010CVC BRASIL  ON      NM   R$  000000000018200000000001830000000000180000000000018100000000001810000000000181000000000018205475000000000007604800000000001379501100000000000000009999123100000010000000000000BRCVCBACNOR1116
012024101002EVEN3       010EVEN        ON  ED  NM   R$  000000000065300000000006540000000000633000000000064000000000006410000000000641000000000064203548000000000001425900000000000913711000000000000000009999123100000010000000000000BREVENACNOR8120
012024101002EZTC3       010EZTEC       ON      NM   R$  000000000140300000000014100000000001379000000000139400000000014100000000001409000000000141004722000000000001258800000000001755988700000000000000009999123100000010000000000000BREZTCACNOR0126
012024101002FESA4       010FERBASA     PN      N1   R$  000000000077200000000007750000000000764000000000077000000000007720000000000771000000000077302016000000000001065900000000000821289500000000000000009999123100000010000000000000BRFESAACNPR5085
012024101002FHER3       010FER HERINGERON      NM   R$  000000000038300000000003870000000000382000000000038500000000003820000000000382000000000038400022000000000000002300000000000000885600000000000000009999123100000010000000000000BRFHERACNOR5103
012024101002FIEI3       010FICA        ON           R$  000000000100000000000010000000000001000000000000100000000000010000000000001000000000000110000001000000000000005000000000000005000000000000000000009999123100000010000000000000BRFIEIACNOR2100
012024101002FIQE3       010UNIFIQUE    ON      NM   R$  000000000038900000000003890000000000382000000000038400000000003820000000000382000000000038400546000000000000215200000000000082805400000000000000009999123100000010000000000000BRFIQEACNOR5107
012024101002FLRY3       010FLEURY      ON      NM   R$  000000000148700000000014910000000001471000000000147900000000014760000000001472000000000147710637000000000004345400000000006427680000000000000000009999123100000010000000000000BRFLRYACNOR5139
012024101002ITSA3       010ITAUSA      ON      N1   R$  000000000104600000000010580000000001044000000000105200000000010540000000001050000000000105400521000000000000092400000000000097278400000000000000009999123100000010000000000000BRITSAACNOR0443
012024101002ITSA4       010ITAUSA      PN      N1   R$  000000000104600000000010590000000001045000000000105200000000010520000000001052000000000105519337000000000017493900000000018415183200000000000000009999123100000010000000000000BRITSAACNPR7443
012024101002LUPA3       010LUPATECH    ON      NM   R$  000000000014100000000001450000000000140000000000014200000000001400000000000140000000000014100143000000000000181800000000000025875700000000000000009999123100000010000000000000BRLUPAACNOR8112
012024101002LVTC3       010WDC NETWORKSON      NM   R$  000000000037400000000003820000000000370000000000037600000000003820000000000375000000000038200035000000000000009700000000000003652500000000000000009999123100000010000000000000BRLVTCACNOR4102
012024101002LWSA3       010LWSA        ON      NM   R$  000000000041300000000004160000000000403000000000040900000000004130000000000411000000000041307118000000000003502200000000001433347600000000000000009999123100000010000000000000BRLWSAACNOR8103
012024101002REDE3       010REDE ENERGIAON           R$  000000000068300000000006900000000000683000000000068600000000006900000000000685000000000068800006000000000000000700000000000000480600000000000000009999123100000010000000000000BRREDEACNOR7128
012024101002RENT3       010LOCALIZA    ON      NM   R$  000000000415000000000041690000000004086000000000412900000000041120000000004110000000000411322948000000000007486800000000030913462600000000000000009999123100000010000000000000BRRENTACNOR4197
012024101002TCSA3       010TECNISA     ON      NM   R$  000000000017700000000001770000000000171000000000017200000000001710000000000171000000000017300181000000000000118700000000000020482900000000000000009999123100000010000000000000BRTCSAACNOR3112
012024101002TECN3       010TECHNOS     ON      NM   R$  000000000054200000000005750000000000520000000000056000000000005460000000000546000000000055401942000000000001225000000000000686470400000000000000009999123100000010000000000000BRTECNACNOR6109
012024101002TELB3       010TELEBRAS    ON           R$  000000000148000000000015830000000001480000000000154200000000015010000000001470000000000152500019000000000000003400000000000005246100000000000000009999123100000010000000000000BRTELBACNOR2140
012024101002TELB4       010TELEBRAS    PN           R$  000000000093000000000009520000000000920000000000093500000000009470000000000935000000000094600024000000000000004100000000000003834700000000000000009999123100000010000000000000BRTELBACNPR9140
012024101002TEND3       010TENDA       ON      NM   R$  000000000139500000000014150000000001313000000000135200000000013460000000001338000000000134712788000000000004868300000000006585745600000000000000009999123100000010000000000000BRTENDACNOR4111
012024101002TFCO4       010TRACK FIELD PN      N2   R$  000000000102900000000010290000000001007000000000101600000000010200000000001008000000000102001095000000000000237400000000000241296700000000000000009999123100000010000000000000BRTFCOACNPR8115
012024101002TGMA3       010TEGMA       ON      NM   R$  000000000255700000000025820000000002551000000000256600000000025760000000002576000000000258000946000000000000151000000000000387506200000000000000009999123100000010000000000000BRTGMAACNOR7145
012024101002TIMS3       010TIM         ON      NM   R$  000000000172500000000017350000000001717000000000172500000000017200000000001719000000000172210339000000000004687800000000008089020800000000000000009999123100000010000000000000BRTIMSACNOR5118
012024101002TOTS3       010TOTVS       ON      NM   R$  000000000281500000000028600000000002803000000000282400000000028040000000002804000000000281509100000000000003726000000000010524519400000000000000009999123100000010000000000000BRTOTSACNOR8145
012024101002TPIS3       010TRIUNFO PARTON      NM   R$  000000000055000000000005700000000000528000000000055300000000005620000000000558000000000056200327000000000000064500000000000035694600000000000000009999123100000010000000000000BRTPISACNOR8118
012024101002TRAD3       010TC          ON      NM   R$  000000000063300000000006390000000000570000000000059800000000006010000000000592000000000060100820000000000000307900000000000184284400000000000000009999123100000010000000000000BRTRADACNOR3102
012024101002TRIS3       010TRISUL      ON      NM   R$  000000000048600000000004920000000000484000000000048800000000004910000000000491000000000049201434000000000000378200000000000184930500000000000000009999123100000010000000000000BRTRISACNOR4118
012024101002TRPL3       010TRAN PAULISTON      N1   R$  000000000313900000000031700000000003111000000000314900000000031700000000003146000000000317000038000000000000004300000000000013542700000000000000009999123100000010000000000000BRTRPLACNOR4185
012024101002TRPL4       010TRAN PAULISTPN      N1   R$  000000000238500000000025050000000002380000000000247200000000025050000000002502000000000250524091000000000009945500000000024590140900000000000000009999123100000010000000000000BRTRPLACNPR1185
012024101002OFSA3       010OUROFINO S/AON      NM   R$  000000000208000000000020830000000002080000000000208200000000020830000000002080000000000215900003000000000000003000000000000006247800000000000000009999123100000010000000000000BROFSAACNOR7118
012024101002ONCO3       010ONCOCLINICASON      NM   R$  000000000046000000000004610000000000442000000000044800000000004530000000000452000000000045303267000000000002056000000000000921842600000000000000009999123100000010000000000000BRONCOACNOR6101
012024101002OPCT3       010OCEANPACT   ON      NM   R$  000000000066200000000006730000000000657000000000066600000000006730000000000669000000000067301093000000000000312100000000000207913600000000000000009999123100000010000000000000BROPCTACNOR0100
012024101002ORVR3       010ORIZON      ON      NM   R$  000000000456100000000045770000000004533000000000455900000000045570000000004557000000000458001635000000000000267200000000001218232900000000000000009999123100000010000000000000BRORVRACNOR0101
012024101002PCAR3       010P.ACUCAR-CBDON      NM   R$  000000000031100000000003160000000000305000000000031000000000003150000000000314000000000031510300000000000012384600000000003845720900000000000000009999123100000010000000000000BRPCARACNOR3167
012024101002PFRM3       010PROFARMA    ON      NM   R$  000000000056100000000005700000000000557000000000056200000000005650000000000557000000000056500361000000000000076200000000000042889100000000000000009999123100000010000000000000BRPFRMACNOR1116
012024101002PGMN3       010PAGUE MENOS ON      NM   R$  000000000027000000000002760000000000269000000000027200000000002690000000000269000000000027001200000000000000469800000000000128122400000000000000009999123100000010000000000000BRPGMNACNOR8103
012024101002PINE3       010PINE        ON      N2   R$  000000000052000000000005250000000000492000000000050400000000005250000000000500000000000052500054000000000000021400000000000010791700000000000000009999123100000010000000000000BRPINEACNOR1150
012024101002PINE4       010PINE        PN      N2   R$  000000000052100000000005290000000000513000000000051800000000005200000000000519000000000052000613000000000000393300000000000204054000000000000000009999123100000010000000000000BRPINEACNPR8150
012024101002PLPL3       010PLANOEPLANO ON      NM   R$  000000000129400000000013380000000001277000000000131300000000013290000000001324000000000132901808000000000000540100000000000709667300000000000000009999123100000010000000000000BRPLPLACNOR5104
012024101002SANB11      010SANTANDER BRUNT          R$  000000000283200000000028600000000002828000000000284200000000028600000000002856000000000286607888000000000001796600000000005107152600000000000000009999123100000010000000000000BRSANBCDAM13165
012024101002SANB3       010SANTANDER BRON           R$  000000000135100000000013620000000001346000000000135200000000013620000000001356000000000136300280000000000000045300000000000061257400000000000000009999123100000010000000000000BRSANBACNOR8172
012024101002SANB4       010SANTANDER BRPN           R$  000000000150100000000015010000000001480000000000148900000000015000000000001493000000000150000202000000000000037000000000000055117800000000000000009999123100000010000000000000BRSANBACNPR5172
012024101002TTEN3       0103TENTOS     ON      NM   R$  000000000107100000000010750000000001057000000000106200000000010600000000001059000000000106004477000000000000882300000000000937470800000000000000009999123100000010000000000000BRTTENACNOR0103
012024101002TUPY3       010TUPY        ON      NM   R$  000000000244100000000024590000000002426000000000244500000000024590000000002442000000000246001711000000000000293500000000000717872200000000000000009999123100000010000000000000BRTUPYACNOR1184
012024101002PNVL3       010DIMED       ON  EJ  NM   R$  000000000101800000000010260000000001009000000000101900000000010230000000001019000000000102401728000000000000279600000000000284944400000000000000009999123100000010000000000000BRPNVLACNOR9208
012024101002POMO3       010MARCOPOLO   ON      N2   R$  000000000060900000000006180000000000604000000000061000000000006180000000000618000000000061901144000000000000776400000000000474227700000000000000009999123100000010000000000000BRPOMOACNOR0099
012024101002POMO4       010MARCOPOLO   PN      N2   R$  000000000079600000000008240000000000796000000000081200000000008240000000000813000000000082413472000000000011703900000000009505442200000000000000009999123100000010000000000000BRPOMOACNPR7099
012024101002PORT3       010WILSON SONS ON      NM   R$  000000000161500000000016180000000001605000000000161000000000016150000000001610000000000161602577000000000001076600000000001733953300000000000000009999123100000010000000000000BRPORTACNOR8109
012024101002POSI3       010POSITIVO TECON      NM   R$  000000000059000000000006020000000000585000000000059400000000005910000000000591000000000059702596000000000001125900000000000669859500000000000000009999123100000010000000000000BRPOSIACNOR9116
012024101002PRIO3       010PETRORIO    ON      NM   R$  000000000441000000000045070000000004400000000000446100000000044880000000004488000000000449028697000000000008241100000000036768723800000000000000009999123100000010000000000000BRPRIOACNOR1107
012024101002ROMI3       010ROMI        ON      NM   R$  000000000109500000000010950000000001084000000000108900000000010950000000001085000000000109500533000000000000090600000000000098753100000000000000009999123100000010000000000000BRROMIACNOR8196
012024101002LAND3       010TERRASANTAPAON      NM   R$  000000000131900000000013190000000001259000000000129100000000013030000000001286000000000130300123000000000000014800000000000019114600000000000000009999123100000010000000000000BRLANDACNOR9103
012024101002LAVV3       010LAVVI       ON      NM   R$  000000000080300000000008140000000000801000000000080500000000008050000000000805000000000080701555000000000000388300000000000312591500000000000000009999123100000010000000000000BRLAVVACNOR4113
012024101002LEVE3       010METAL LEVE  ON      NM   R$  000000000303800000000030380000000003014000000000302400000000030200000000003019000000000302901474000000000000234300000000000708669100000000000000009999123100000010000000000000BRLEVEACNOR2197
012024101002LJQQ3       010QUERO-QUERO ON      NM   R$  000000000028900000000002920000000000280000000000028500000000002860000000000285000000000028607560000000000005731700000000001638320000000000000000009999123100000010000000000000BRLJQQACNOR5104
012024101002MWET4       010WETZEL S/A  PN           R$  000000000091500000000009150000000000915000000000091500000000009150000000000857000000000092000001000000000000000100000000000000091500000000000000009999123100000010000000000000BRMWETACNPR3118
012024101002MYPK3       010IOCHP-MAXIONON  EJ  NM   R$  000000000101100000000010200000000001002000000000101100000000010200000000001014000000000102004383000000000000934800000000000945665900000000000000009999123100000010000000000000BRMYPKACNOR7156
012024101002NEOE3       010NEOENERGIA  ON      NM   R$  000000000189000000000018950000000001872000000000188400000000018950000000001880000000000189703174000000000000534300000000001006747000000000000000009999123100000010000000000000BRNEOEACNOR3123
012024101002RANI3       010IRANI       ON      NM   R$  000000000075100000000007600000000000749000000000075400000000007580000000000755000000000075803009000000000001003700000000000757766300000000000000009999123100000010000000000000BRRANIACNOR5073
012024101002RAPT3       010RANDON PART ON      N1   R$  000000000087100000000008810000000000870000000000087600000000008810000000000874000000000088300114000000000000022000000000000019273600000000000000009999123100000010000000000000BRRAPTACNOR7163
012024101002RAPT4       010RANDON PART PN      N1   R$  000000000104800000000010670000000001043000000000106000000000010660000000001060000000000106705864000000000001682000000000001783893200000000000000009999123100000010000000000000BRRAPTACNPR4163
012024101002HYPE3       010HYPERA      ON      NM   R$  000000000267100000000027250000000002651000000000269000000000026680000000002667000000000267012370000000000003522500000000009478182000000000000000009999123100000010000000000000BRHYPEACNOR0144
012024101002JALL3       010JALLESMACHADON      NM   R$  000000000062700000000006310000000000617000000000062100000000006190000000000619000000000062001854000000000000490200000000000304513800000000000000009999123100000010000000000000BRJALLACNOR0106
012024101002JBSS3       010JBS         ON      NM   R$  000000000325900000000032720000000003191000000000323100000000032380000000003231000000000323818487000000000007433300000000024023540900000000000000009999123100000010000000000000BRJBSSACNOR8122
012024101002MILS3       010MILLS       ON      NM   R$  000000000106400000000010670000000001049000000000105300000000010520000000001049000000000105603837000000000001700000000000001790780700000000000000009999123100000010000000000000BRMILSACNOR2128
012024101002MLAS3       010MULTILASER  ON      NM   R$  000000000016000000000001610000000000156000000000015800000000001590000000000158000000000015901632000000000000980300000000000155023200000000000000009999123100000010000000000000BRMLASACNOR9101
012024101002MNPR3       010MINUPAR     ON           R$  000000000181100000000018390000000001810000000000181400000000018100000000001810000000000185000004000000000000000700000000000001270000000000000000009999123100000010000000000000BRMNPRACNOR5122
012024101002MOVI3       010MOVIDA      ON      NM   R$  000000000059200000000005970000000000547000000000056200000000005480000000000547000000000054810097000000000009276800000000005215817400000000000000009999123100000010000000000000BRMOVIACNOR0122
012024101002MRFG3       010MARFRIG     ON      NM   R$  000000000130800000000013210000000001283000000000130800000000013140000000001312000000000131511270000000000004258500000000005570530500000000000000009999123100000010000000000000BRMRFGACNOR0116
012024101002BRSR3       010BANRISUL    ON      N1   R$  000000000132300000000013390000000001311000000000131500000000013110000000001310000000000133200034000000000000003800000000000005000100000000000000009999123100000010000000000000BRBRSRACNOR3189
012024101002BRSR6       010BANRISUL    PNB     N1   R$  000000000111200000000011220000000001111000000000111700000000011180000000001117000000000112104300000000000001429900000000001598423600000000000000009999123100000010000000000000BRBRSRACNPB4192
012024101002BSLI3       010BRB BANCO   ON           R$  000000000092300000000009230000000000923000000000092300000000009230000000000922000000000096200002000000000000000200000000000000184600000000000000009999123100000010000000000000BRBSLIACNOR5194
012024101007NUTR3       010NUTRIPLANT  ON      MA   R$  000000000045400000000004540000000000433000000000044700000000004540000000000448000000000045500019000000000000002300000000000001029500000000000000009999123100000010000000000000BRNUTRACNOR0104
012024101007TXRX4       010TEX RENAUX  PN           R$  000000000022600000000002260000000000225000000000022500000000002250000000000225000000000022800003000000000000000500000000000000112800000000000000009999123100000010000000000000BRTXRXACNPR0142
012024101008RSID3       010ROSSI RESID ON      NM   R$  000000000030600000000003250000000000294000000000030800000000003030000000000303000000000030800507000000000000125400000000000038694300000000000000009999123100000010000000000000BRRSIDACNOR8120
012024101008AMER3       010AMERICANAS  ON      NM   R$  000000000038200000000003970000000000376000000000038600000000003970000000000395000000000039702630000000000003109700000000001201743200000000000000009999123100000010000000000000BRAMERACNOR6103
012024101008JFEN3       010JOAO FORTES ON           R$  000000000002600000000000270000000000025000000000002600000000000260000000000026000000000002700174000000000000856100000000000022272300000000000000009999123100000010000000000000BRJFENACNOR0059
012024101008AGXY3       010AGROGALAXY  ON      NM   R$  000000000005800000000000580000000000051000000000005300000000000540000000000054000000000005500384000000000000885400000000000047675000000000000000009999123100000010000000000000BRAGXYACNOR4103
012024101008ATMP3       010ATMASA      ON           R$  000000000014400000000001440000000000141000000000014300000000001440000000000142000000000014500007000000000000001000000000000000143700000000000000009999123100000010000000000000BRATMPACNOR8100
012024101008CTSA3       010SANTANENSE  ON           R$  000000000022000000000002200000000000220000000000022000000000002200000000000215000000000022100006000000000000000900000000000000198000000000000000009999123100000010000000000000BRCTSAACNOR3062
012024101008CTSA4       010SANTANENSE  PN           R$  000000000011700000000001170000000000117000000000011700000000001170000000000117000000000011900006000000000000001800000000000000210600000000000000009999123100000010000000000000BRCTSAACNPR0062
012024101008OIBR3       010OI          ON      N1   R$  000000000049600000000004960000000000481000000000048600000000004810000000000481000000000048800447000000000000279300000000000135944900000000000000009999123100000010000000000000BROIBRACNOR1112
012024101008OIBR4       010OI          PN      N1   R$  000000000113200000000011320000000001100000000000110800000000011130000000001105000000000111400012000000000000001200000000000001330200000000000000009999123100000010000000000000BROIBRACNPR8111
012024101008OSXB3       010OSX BRASIL  ON      NM   R$  000000000046600000000005020000000000466000000000048500000000004680000000000468000000000049000061000000000000016300000000000007918300000000000000009999123100000010000000000000BROSXBACNOR8109
012024101008PMAM3       010PARANAPANEMAON      NM   R$  000000000013400000000001370000000000132000000000013400000000001370000000000134000000000013700088000000000000066100000000000008858100000000000000009999123100000010000000000000BRPMAMACNOR3040
012024101008RNEW11      010RENOVA      UNT     N2   R$  000000000031400000000003500000000000314000000000033800000000003500000000000332000000000035000175000000000000059400000000000020091600000000000000009999123100000010000000000000BRRNEWCDAM15110
012024101008RNEW3       010RENOVA      ON      N2   R$  000000000010500000000001200000000000101000000000011100000000001150000000000115000000000011600446000000000000436800000000000048626800000000000000009999123100000010000000000000BRRNEWACNOR8110
012024101008RNEW4       010RENOVA      PN      N2   R$  000000000010500000000001210000000000105000000000011300000000001170000000000115000000000011700740000000000000913300000000000103958700000000000000009999123100000010000000000000BRRNEWACNPR5110
012024101008RPMG3       010PET MANGUINHON           R$  000000000031100000000003120000000000302000000000030400000000003020000000000302000000000030600066000000000000063700000000000019383100000000000000009999123100000010000000000000BRRPMGACNOR9194
012024101008LIGT3       010LIGHT S/A   ON      NM   R$  000000000062600000000006330000000000617000000000062600000000006310000000000625000000000063101629000000000000352600000000000220781800000000000000009999123100000010000000000000BRLIGTACNOR2124
012024101008NEXP3       010NEXPE       ON           R$  000000000040500000000004060000000000400000000000040400000000004000000000000397000000000041100004000000000000001200000000000000485600000000000000009999123100000010000000000000BRNEXPACNOR0101
012024101008HOOT4       010HOTEIS OTHONPN           R$  000000000022400000000002250000000000224000000000022400000000002240000000000224000000000023400012000000000000004700000000000001054500000000000000009999123100000010000000000000BRHOOTACNPR9015
012024101010HBSA1       010HIDROVIAS   DIR ORD NM   R$  000000000000200000000000030000000000001000000000000100000000000020000000000001000000000000200157000000000002098200000000000004088600000000000000009999123100000010000000000000BRHBSAD01OR5100
012024101010ZAMP9       010ZAMP S.A.   ON  REC      R$  000000000024400000000002440000000000242000000000024300000000002420000000000000000000000025000002000000000000001100000000000000267400000000000000009999123100000010000000000000BRZAMPR01OR0100
012024101010EQTL9       010EQUATORIAL  ON  REC NM   R$  000000000320400000000032040000000003178000000000318900000000031860000000003186000000000323100062000000000000012900000000000041146800000000000000009999123100000010000000000000BREQTLR04OR9130
012024101010CBEE1       010AMPLA ENERG DIR ORD      R$  000000000019900000000002000000000000180000000000019500000000001800000000000180000000000024200012000000000000002400000000000000468600000000000000009999123100000010000000000000BRCBEED07OR5159
012024101010PMAM1       010PARANAPANEMADIR ORD NM   R$  000000000000100000000000010000000000001000000000000100000000000010000000000000000000000000100116000000000000850800000000000000850800000000000000009999123100000010000000000000BRPMAMD05OR9039
012024101012PULV11      010FII PULV    CI  ER       R$  000000000098700000000009870000000000961000000000096900000000009770000000000961000000000097700046000000000000008536000000000008278383000000000000009999123100000010000000000000BRPULVCTF007105
012024101012PVBI11      010FII VBI PRI CI  ER       R$  000000000832600000000083700000000008202000000000823900000000082020000000008202000000000822509364000000000000073351000000000604388218000000000000009999123100000010000000000000BRPVBICTF003156
012024101012QAGR11      010FII QUASAR ACI  ER       R$  000000000452000000000045200000000004498000000000450900000000045200000000004513000000000453100197000000000000002638000000000011897093000000000000009999123100000010000000000000BRQAGRCTF005159
012024101012RVBI11      010FII VBI REITCI  ER       R$  000000000692000000000069480000000006800000000000682700000000068490000000006849000000000687003962000000000000028538000000000194843456000000000000009999123100000010000000000000BRRVBICTF009156
012024101012RZAK11      010FII RIZA AKNCI           R$  000000000788000000000079150000000007880000000000788700000000079060000000007892000000000790602328000000000000025208000000000198839569000000000000009999123100000010000000000000BRRZAKCTF008147
012024101012RZAT11      010FII ARCTIUM CI           R$  000000000967500000000097860000000009651000000000969900000000097100000000009710000000000976701456000000000000013613000000000132036478000000000000009999123100000010000000000000BRRZATCTF009121
012024101012RZLC11      010FII RZLC    CI  ER       R$  000000010031100000001003110000000100311000000010031100000001003110000000100310000000010031100001000000000000000500000000000050155500000000000000009999123100000010000000000000BRRZLCCTF002101
012024101012RZTR11      010FII RIZA TX CI  ER       R$  000000000884600000000088640000000008703000000000876000000000087300000000008724000000000873007513000000000000051289000000000449323695000000000000009999123100000010000000000000BRRZTRCTF003152
012024101012BLCA11      010FII BLUE AAACI  ER       R$  000000000989700000000098970000000009800000000000980000000000098000000000009800000000000987500013000000000000000147000000000001440741000000000000009999123100000010000000000000BRBLCACTF009135
012024101012BLMG11      010FII BLUE LOGCI  ER       R$  000000000378600000000037860000000003690000000000372100000000037100000000003702000000000371001481000000000000019927000000000074164349000000000000009999123100000010000000000000BRBLMGCTF005151
012024101012BLMO11      010FII BLUEMAC CI  ER       R$  000000000829900000000083000000000008299000000000829900000000083000000000007315000000000830000005000000000000000040000000000000331997000000000000009999123100000010000000000000BRBLMOCTF009135
012024101012BMLC11      010FII BMBRC LCCI  ER       R$  000000000971000000000097100000000009710000000000971000000000097100000000005341000000000970900002000000000000000002000000000000019420000000000000009999123100000010000000000000BRBMLCCTF004255
012024101012VOTS11      010FII V MASTERCI  ER       R$  000000000710100000000075670000000007100000000000717600000000075670000000007408000000000750500006000000000000000026000000000000186576000000000000009999123100000010000000000000BRVOTSCTF007174
012024101012VRTA11      010FII FATOR VECI  ER       R$  000000000831300000000083300000000008133000000000824700000000082150000000008215000000000823702510000000000000026547000000000218934220000000000000009999123100000010000000000000BRVRTACTF008264
012024101012VRTM11      010FII VRTM    CI  ER       R$  000000000077600000000007800000000000769000000000077000000000007690000000000770000000000077302206000000000000156423000000000120479282000000000000009999123100000010000000000000BRVRTMCTF003112
012024101012VSHO11      010FII VOT SHOPCI  ER       R$  000000000712700000000072870000000007030000000000705800000000071020000000007130000000000722800040000000000000000445000000000003141092000000000000009999123100000010000000000000BRVSHOCTF002165
012024101012EGYR11      010FII ENERGY  CI           R$  000000000036000000000003800000000000360000000000036000000000003800000000000360000000000038000016000000000000000066000000000000023780000000000000009999123100000010000000000000BREGYRCTF001102
012024101012HCHG11      010FII HECT CRICI  ER       R$  000000000672000000000068740000000006720000000000674400000000067200000000006721000000000680000011000000000000000044000000000000296777000000000000009999123100000010000000000000BRHCHGCTF001141
012024101012HCRI11      010FII CRIANCA CI           R$  000000002736900000000274500000000027204000000002730800000000272040000000027204000000002731300030000000000000000090000000000002457778000000000000009999123100000010000000000000BRHCRICTF006332
012024101012HCTR11      010FII HECTARE CI  ER       R$  000000000289600000000028960000000002862000000000287700000000028650000000002865000000000286901386000000000000024949000000000071800990000000000000009999123100000010000000000000BRHCTRCTF003174
012024101012HFOF11      010FII HTOPFOF3CI  ER       R$  000000000633000000000063460000000006190000000000622700000000063000000000006290000000000630905114000000000000036229000000000225611063000000000000009999123100000010000000000000BRHFOFCTF002193
012024101012ABCP11      010FII ABC IMOBCI  ER       R$  000000000723100000000072490000000007133000000000719400000000071690000000007169000000000719800087000000000000001062000000000007640105000000000000009999123100000010000000000000BRABCPCTF000343
012024101012BARI11      010FII BARIGUI CI  ER       R$  000000000738000000000073930000000007304000000000733400000000073200000000007320000000000733001754000000000000005766000000000042292461000000000000009999123100000010000000000000BRBARICTF003166
012024101012ANCR11      010FII ANCAR ICCI           R$  000000000720000000000072000000000006061000000000677800000000061870000000006125000000001200000007000000000000000015000000000000101670000000000000009999123100000010000000000000BRANCRCTF001161
012024101012APTO11      010FII NAVI RSDCI  ER       R$  000000000093700000000009480000000000937000000000094200000000009390000000000939000000000094600117000000000000000802000000000000756115000000000000009999123100000010000000000000BRAPTOCTF007135
012024101012AROA11      010FII AROA    CI  ER       R$  000000000010000000000001050000000000100000000000010100000000001050000000000101000000000010500120000000000000010181000000000001030855000000000000009999123100000010000000000000BRAROACTF003122
012024101012ARRI11      010FII ATRIO   CI  ER       R$  000000000087100000000008730000000000850000000000086500000000008640000000000855000000000086405076000000000000117058000000000101315052000000000000009999123100000010000000000000BRARRICTF009165
012024101012ARXD11      010FII ARXD R  CI  ER       R$  000000000891000000000090850000000008910000000000899300000000090840000000009010000000000977200030000000000000001118000000000010055100000000000000009999123100000010000000000000BRARXDCTF008119
012024101012SCPF11      010FII SCP     CI           R$  000000000023500000000002380000000000218000000000022700000000002320000000000226000000000023200062000000000000001202000000000000274030000000000000009999123100000010000000000000BRSCPFCTF003302
012024101012SEQR11      010FII SEQUOIA CI  ER       R$  000000000508900000000050990000000005070000000000508500000000050780000000005075000000000507800115000000000000003162000000000016078896000000000000009999123100000010000000000000BRSEQRCTF002147
012024101012SHPH11      010FII HIGIENOPCI  ER       R$  000000008600000000000873140000000084999000000008580100000000860010000000086000000000008665300033000000000000000363000000000031146105000000000000009999123100000010000000000000BRSHPHCTF008354
012024101012URHF11      010FII URHF    CI  ER       R$  000000001130000000000113000000000011300000000001130000000000113000000000009900000000001130000002000000000000000011000000000000124300000000000000009999123100000010000000000000BRURHFCTF004103
012024101012URPR11      010FII URCA RENCI  ER       R$  000000000675000000000069450000000006750000000000684600000000068150000000006815000000000681802744000000000000039410000000000269826771000000000000009999123100000010000000000000BRURPRCTF002162
012024101012ZAGH11      010FII ZAGH    CI  ES       R$  000000000120000000000012050000000001200000000000120400000000012050000000001200000000000120500003000000000000000023000000000000027700000000000000009999123100000010000000000000BRZAGHCTF007108
012024101012ZAVC11      010FII ZAVIT C CI  ER       R$  000000000104900000000010490000000001049000000000104900000000010490000000000975000000000104900002000000000000000002000000000000002098000000000000009999123100000010000000000000BRZAVCCTF007106
012024101012ZAVI11      010FII ZAVIT R CI  ER       R$  000000001083000000000110400000000010681000000001082400000000106850000000010684000000001085600116000000000000000768000000000008313273000000000000009999123100000010000000000000BRZAVICTF004125
012024101012ZIFI11      010FII ZION    CI           R$  000000007379900000000737990000000073799000000007379900000000737990000000068599000000007389900001000000000000000001000000000000073799000000000000009999123100000010000000000000BRZIFICTF000103
012024101012SAPI11      010FII SAPI    CI  ER       R$  000000000876800000000087680000000008603000000000867900000000087000000000008665000000000878200509000000000000004582000000000039771031000000000000009999123100000010000000000000BRSAPICTF001112
012024101012SARE11      010FII SANT RENCI  ER       R$  000000000399900000000039990000000003852000000000392000000000039300000000003919000000000394503645000000000000031108000000000121964341000000000000009999123100000010000000000000BRSARECTF006160
012024101012EQIR11      010FII EQI RECECI           R$  000000000086000000000008700000000000860000000000086600000000008700000000000866000000000087000214000000000000016545000000000014332942000000000000009999123100000010000000000000BREQIRCTF003136
012024101012RBRL11      010FII RBR LOG CI  ER       R$  000000000762000000000076420000000007507000000000754900000000075400000000007540000000000754302320000000000000006646000000000050170784000000000000009999123100000010000000000000BRRBRLCTF001158
012024101012RBRP11      010FII RBR PROPCI  ER       R$  000000000510100000000051190000000005062000000000508800000000050660000000005066000000000509802893000000000000017075000000000086890836000000000000009999123100000010000000000000BRRBRPCTF002177
012024101012RBRR11      010FII RBRHGRADCI  ER       R$  000000000839900000000084890000000008305000000000841200000000084690000000008468000000000846910105000000000000044422000000000373708889000000000000009999123100000010000000000000BRRBRRCTF008184
012024101012RBRS11      010FII RIOB RR CI           R$  000000000420000000000042000000000004196000000000419900000000042000000000004196000000000420000005000000000000000079000000000000331732000000000000009999123100000010000000000000BRRBRSCTF006138
012024101012RBRX11      010FII RBR MULTCI           R$  000000000083400000000008430000000000825000000000083400000000008340000000000833000000000084011600000000000000132528000000000110586537000000000000009999123100000010000000000000BRRBRXCTF006132
012024101012RBRY11      010FII RBR PCRICI  ER       R$  000000000934800000000093620000000009305000000000934200000000093340000000009334000000000934109021000000000000070132000000000655221936000000000000009999123100000010000000000000BRRBRYCTF004172
012024101012RBVA11      010FII RIOB VA CI  ER       R$  000000001010100000000102510000000010099000000001014900000000101230000000010123000000001016303137000000000000024695000000000250631587000000000000009999123100000010000000000000BRRBVACTF006170
012024101012RBVO11      010FII RIOBCRI2CI           R$  000000000078900000000007890000000000724000000000074100000000007440000000000738000000000074400428000000000000010237000000000007591408000000000000009999123100000010000000000000BRRBVOCTF007245
012024101012RCFA11      010FII GP RCFA CI           R$  000000000010700000000001070000000000103000000000010400000000001060000000000103000000000010600012000000000000000344000000000000036085000000000000009999123100000010000000000000BRRCFACTF007101
012024101012RCRB11      010FII RIOB RC CI  ER       R$  000000001284100000000129130000000012785000000001281300000000127850000000012800000000001286402055000000000000006206000000000079520172000000000000009999123100000010000000000000BRRCRBCTF000161
012024101012RECR11      010FII REC RECECI  ER       R$  000000000748500000000076060000000007412000000000754600000000075430000000007543000000000756004229000000000000051131000000000385875199000000000000009999123100000010000000000000BRRECRCTF004155
012024101012KNHF11      010FII KINEA HFCI  ER       R$  000000000921300000000092370000000009072000000000914300000000091700000000009169000000000917002471000000000000065716000000000600886608000000000000009999123100000010000000000000BRKNHFCTF004115
012024101012KNHY11      010FII KINEA HYCI  ER       R$  000000001033500000000103640000000010335000000001035100000000103550000000010336000000001035510080000000000000052912000000000547694687000000000000009999123100000010000000000000BRKNHYCTF005176
012024101012KNIP11      010FII KINEA IPCI  ER       R$  000000000919100000000092240000000009121000000000915000000000091300000000009130000000000914112904000000000000116790000000001068727676000000000000009999123100000010000000000000BRKNIPCTF001197
012024101012KNRE11      010FII KII REALCI           R$  000000000003000000000000310000000000025000000000002700000000000250000000000025000000000002802843000000000000023920000000000000646374000000000000009999123100000010000000000000BRKNRECTF006129
