00COTAHIST.2024BOVESPA 20241018                                                                                                                                                                                                                      
012024101802CLSA3       010CLEARSALE   ON      NM   R$  000000000093200000000009430000000000929000000000093700000000009380000000000937000000000093901971000000000001052700000000000986955900000000000000009999123100000010000000000000BRCLSAACNOR0100
012024101802CLSC4       010CELESC      PN      N2   R$  000000000804900000000080490000000007962000000000800300000000080100000000007995000000000801000012000000000000001200000000000009604100000000000000009999123100000010000000000000BRCLSCACNPR3132
012024101802CSED3       010CRUZEIRO EDUON      NM   R$  000000000033500000000003360000000000320000000000032600000000003230000000000323000000000032400761000000000000285200000000000093027800000000000000009999123100000010000000000000BRCSEDACNOR9105
012024101802CSMG3       010COPASA      ON      NM   R$  000000000221000000000022330000000002203000000000221500000000022130000000002212000000000221406060000000000002306900000000005111485600000000000000009999123100000010000000000000BRCSMGACNOR5175
012024101802EKTR4       010ELEKTRO     PN           R$  000000000454500000000045450000000004303000000000453700000000045450000000004400000000000472000006000000000000003300000000000014974300000000000000009999123100000010000000000000BREKTRACNPR7165
012024101802ELET3       010ELETROBRAS  ON      N1   R$  000000000383900000000038550000000003777000000000378300000000037770000000003776000000000377823344000000000034576000000000130812927600000000000000009999123100000010000000000000BRELETACNOR6160
012024101802ELET6       010ELETROBRAS  PNB     N1   R$  000000000423800000000042480000000004171000000000420300000000042110000000004203000000000421106181000000000001624700000000006828805300000000000000009999123100000010000000000000BRELETACNPB7077
012024101802B3SA3       010B3          ON      NM   R$  000000000107800000000010820000000001059000000000106700000000010650000000001065000000000106623915000000000030999400000000033088790100000000000000009999123100000010000000000000BRB3SAACNOR6134
012024101802BIOM3       010BIOMM       ON      MA   R$  000000000090000000000009080000000000890000000000089600000000008900000000000890000000000090900173000000000000062500000000000056003400000000000000009999123100000010000000000000BRBIOMACNOR2112
012024101802HETA4       010HERCULES    PN           R$  000000000068700000000006870000000000687000000000068700000000006870000000000606000000000068700001000000000000000100000000000000068700000000000000009999123100000010000000000000BRHETAACNPR9136
012024101802BLAU3       010BLAU        ON      NM   R$  000000000150100000000015190000000001426000000000147200000000014790000000001462000000000148002335000000000000430100000000000633294200000000000000009999123100000010000000000000BRBLAUACNOR8115
012024101802BMEB3       010MERCANTIL   ON      N1   R$  000000000360000000000036000000000003589000000000359300000000035890000000003453000000000358000006000000000000000600000000000002155900000000000000009999123100000010000000000000BRBMEBACNOR8206
012024101802BMEB4       010MERCANTIL   PN      N1   R$  000000000400000000000040420000000003906000000000397100000000039420000000003930000000000399000240000000000000037200000000000147733700000000000000009999123100000010000000000000BRBMEBACNPR5211
012024101802BMGB4       010BANCO BMG   PN      N1   R$  000000000044800000000004610000000000447000000000045500000000004610000000000461000000000046201281000000000000872900000000000397563600000000000000009999123100000010000000000000BRBMGBACNPR0110
012024101802BMKS3       010BIC MONARK  ON           R$  000000003060000000000308000000000030600000000003079600000000308000000000030603000000003099900008000000000000000060000000000001847800000000000000009999123100000010000000000000BRBMKSACNOR9166
012024101802BMOB3       010BEMOBI TECH ON      NM   R$  000000000149600000000015040000000001477000000000149000000000014870000000001486000000000149000776000000000000976200000000001454642600000000000000009999123100000010000000000000BRBMOBACNOR7103
012024101802BRBI11      010BR PARTNERS UNT     N2   R$  000000000151500000000015220000000001509000000000151400000000015090000000001507000000000151801053000000000000173800000000000263286600000000000000009999123100000010000000000000BRBRBICDAM10110
012024101802AALR3       010ALLIAR      ON      NM   R$  000000000134500000000013600000000001211000000000125800000000012200000000001220000000000124200213000000000000042700000000000053749200000000000000009999123100000010000000000000BRAALRACNOR6102
012024101802ABCB4       010ABC BRASIL  PN      N2   R$  000000000211400000000021400000000002101000000000212400000000021300000000002125000000000213004018000000000000733400000000001558362500000000000000009999123100000010000000000000BRABCBACNPR4146
012024101802ABEV3       010AMBEV S/A   ON           R$  000000000129600000000012960000000001280000000000128500000000012880000000001286000000000128822778000000000019422900000000024966148000000000000000009999123100000010000000000000BRABEVACNOR1128
012024101802AZZA3       010AZZAS 2154  ON      NM   R$  000000000410000000000041490000000004030000000000406000000000040390000000004038000000000404007014000000000001502100000000006099492900000000000000009999123100000010000000000000BRAZZAACNOR9100
012024101802BBDC3       010BRADESCO    ON      N1   R$  000000000133200000000013480000000001315000000000132900000000013340000000001327000000000133407746000000000006050400000000008043398400000000000000009999123100000010000000000000BRBBDCACNOR1776
012024101802BBDC4       010BRADESCO    PN      N1   R$  000000000152500000000015440000000001512000000000152600000000015320000000001531000000000153239603000000000039869100000000060860162000000000000000009999123100000010000000000000BRBBDCACNPR8776
012024101802HAGA3       010HAGA S/A    ON           R$  000000000025800000000002630000000000257000000000026000000000002620000000000258000000000026200030000000000000012200000000000003172700000000000000009999123100000010000000000000BRHAGAACNOR7103
012024101802HAGA4       010HAGA S/A    PN           R$  000000000012300000000001320000000000123000000000012600000000001300000000000128000000000013000072000000000000073200000000000009257900000000000000009999123100000010000000000000BRHAGAACNPR4103
012024101802HAPV3       010HAPVIDA     ON      NM   R$  000000000037500000000003800000000000372000000000037600000000003760000000000376000000000037846145000000000054632900000000020556444300000000000000009999123100000010000000000000BRHAPVACNOR4115
012024101802AMAR3       010LOJAS MARISAON      NM   R$  000000000010100000000001020000000000098000000000009900000000000980000000000098000000000009900507000000000000256500000000000025507500000000000000009999123100000010000000000000BRAMARACNOR4115
012024101802AMBP3       010AMBIPAR     ON      NM   R$  000000001313500000000136300000000012800000000001325200000000133830000000013383000000001340001512000000000000263100000000003486842800000000000000009999123100000010000000000000BRAMBPACNOR6103
012024101802CBAV3       010CBA         ON      NM   R$  000000000057300000000005820000000000564000000000057200000000005690000000000569000000000057004637000000000001957500000000001120987900000000000000009999123100000010000000000000BRCBAVACNOR5104
012024101802CRPG5       010CRISTAL     PNA          R$  000000000251500000000025420000000002508000000000252300000000025420000000002522000000000254900008000000000000000800000000000002018800000000000000009999123100000010000000000000BRCRPGACNPA3119
012024101802CSAN3       010COSAN       ON      NM   R$  000000000120100000000012090000000001179000000000118400000000011810000000001180000000000118119417000000000011407800000000013511052000000000000000009999123100000010000000000000BRCSANACNOR6126
012024101802ECOR3       010ECORODOVIAS ON      NM   R$  000000000070400000000007130000000000695000000000070000000000006980000000000698000000000070004482000000000003249900000000002277266000000000000000009999123100000010000000000000BRECORACNOR8120
012024101802EGIE3       010ENGIE BRASILON      NM   R$  000000000412600000000041530000000004106000000000413100000000041390000000004135000000000413905857000000000001614200000000006668529500000000000000009999123100000010000000000000BREGIEACNOR9127
012024101802ALPK3       010ESTAPAR     ON      NM   R$  000000000028100000000003010000000000279000000000029000000000002850000000000284000000000028500462000000000000237300000000000069013600000000000000009999123100000010000000000000BRALPKACNOR9101
012024101802ALUP11      010ALUPAR      UNT     N2   R$  000000000291900000000029340000000002901000000000291700000000029130000000002913000000000291503260000000000000490700000000001431841700000000000000009999123100000010000000000000BRALUPCDAM15120
012024101802ALUP3       010ALUPAR      ON      N2   R$  000000000099900000000009990000000000981000000000099000000000009890000000000981000000000100100029000000000000003800000000000003764300000000000000009999123100000010000000000000BRALUPACNOR8120
012024101802ALUP4       010ALUPAR      PN      N2   R$  000000000096200000000009690000000000959000000000096300000000009620000000000961000000000096500084000000000000010400000000000010025300000000000000009999123100000010000000000000BRALUPACNPR5120
012024101802CRFB3       010CARREFOUR BRON      NM   R$  000000000073600000000007360000000000698000000000070900000000006980000000000698000000000069915919000000000009753100000000006921553000000000000000009999123100000010000000000000BRCRFBACNOR2116
012024101802CAMB3       010CAMBUCI     ON           R$  000000000121300000000012160000000001202000000000120700000000012120000000001200000000000122400084000000000000023700000000000028627800000000000000009999123100000010000000000000BRCAMBACNOR4131
012024101802CAML3       010CAMIL       ON      NM   R$  000000000081800000000008270000000000810000000000081600000000008130000000000813000000000081601114000000000000311800000000000254452300000000000000009999123100000010000000000000BRCAMLACNOR3129
012024101802CASH3       010MELIUZ      ON      NM   R$  000000000035700000000003570000000000338000000000034300000000003400000000000339000000000034002383000000000000899100000000000308977200000000000000009999123100000010000000000000BRCASHACNOR8107
012024101802BBSE3       010BBSEGURIDADEON      NM   R$  000000000341500000000034320000000003363000000000338500000000033820000000003382000000000338414259000000000005075300000000017181752300000000000000009999123100000010000000000000BRBBSEACNOR5125
012024101802BRSR3       010BANRISUL    ON      N1   R$  000000000132000000000013480000000001316000000000132600000000013160000000001309000000000132200034000000000000005000000000000006631800000000000000009999123100000010000000000000BRBRSRACNOR3189
012024101802BRSR6       010BANRISUL    PNB     N1   R$  000000000112500000000011370000000001104000000000111500000000011080000000001108000000000110903926000000000001332300000000001486071500000000000000009999123100000010000000000000BRBRSRACNPB4192
012024101802BSLI3       010BRB BANCO   ON           R$  000000000090500000000009110000000000905000000000091000000000009110000000000885000000000091100003000000000000002000000000000001821400000000000000009999123100000010000000000000BRBSLIACNOR5194
012024101802BSLI4       010BRB BANCO   PN           R$  000000000090500000000009160000000000905000000000090600000000009160000000000851000000000099800005000000000000001200000000000001088200000000000000009999123100000010000000000000BRBSLIACNPR2194
012024101802ANIM3       010ANIMA       ON      NM   R$  000000000025000000000002520000000000243000000000024600000000002450000000000245000000000024603403000000000004147300000000001022784900000000000000009999123100000010000000000000BRANIMACNOR6109
012024101802ARML3       010ARMAC       ON      NM   R$  000000000081400000000008140000000000771000000000078300000000007850000000000785000000000078606421000000000001547100000000001211727100000000000000009999123100000010000000000000BRARMLACNOR1113
012024101802ASAI3       010ASSAI       ON      NM   R$  000000000071000000000007230000000000697000000000071000000000007090000000000709000000000071027986000000000025498300000000018106740000000000000000009999123100000010000000000000BRASAIACNOR0106
012024101802DEXP3       010DEXXOS PAR  ON      N1   R$  000000000088800000000009010000000000884000000000088800000000008870000000000887000000000088900321000000000000054200000000000048174300000000000000009999123100000010000000000000BRDEXPACNOR1105
012024101802DEXP4       010DEXXOS PAR  PN      N1   R$  000000000088100000000008980000000000880000000000088200000000008800000000000878000000000089700006000000000000001700000000000001500900000000000000009999123100000010000000000000BRDEXPACNPR8105
012024101802DIRR3       010DIRECIONAL  ON      NM   R$  000000000302000000000030330000000002967000000000299000000000029950000000002988000000000299505755000000000001456900000000004356168700000000000000009999123100000010000000000000BRDIRRACNOR0119
012024101802DMVF3       010D1000VFARMA ON      NM   R$  000000000064100000000006470000000000630000000000063600000000006420000000000641000000000064200229000000000000066600000000000042379500000000000000009999123100000010000000000000BRDMVFACNOR9100
012024101802DOTZ3       010DOTZ SA     ON      NM   R$  000000000058300000000005890000000000555000000000056600000000005610000000000561000000000056800054000000000000018700000000000010601200000000000000009999123100000010000000000000BRDOTZACNOR7101
012024101802DTCY3       010DTCOM-DIRECTON           R$  000000000040200000000004020000000000396000000000040000000000003960000000000395000000000042000005000000000000001000000000000000400800000000000000009999123100000010000000000000BRDTCYACNOR5109
012024101802DXCO3       010DEXCO       ON      NM   R$  000000000081100000000008120000000000793000000000079900000000008070000000000805000000000080808164000000000010034900000000008019891600000000000000009999123100000010000000000000BRDXCOACNOR8105
012024101802EALT4       010ACO ALTONA  PN           R$  000000000134300000000013430000000001299000000000130600000000013100000000001302000000000131100082000000000000021400000000000027958000000000000000009999123100000010000000000000BREALTACNPR1138
012024101802ESPA3       010ESPACOLASER ON      NM   R$  000000000009500000000000960000000000094000000000009500000000000950000000000094000000000009500088000000000000252000000000000023949800000000000000009999123100000010000000000000BRESPAACNOR7103
012024101802ESTR4       010ESTRELA     PN           R$  000000000034800000000003480000000000348000000000034800000000003480000000000348000000000037800001000000000000001000000000000000348000000000000000009999123100000010000000000000BRESTRACNPR0144
012024101802ETER3       010ETERNIT     ON      NM   R$  000000000054900000000005560000000000527000000000053800000000005270000000000527000000000052800750000000000000364300000000000196010000000000000000009999123100000010000000000000BRETERACNOR3244
012024101802EUCA3       010EUCATEX     ON      N1   R$  000000000171000000000017100000000001680000000000170300000000017100000000001655000000000171000015000000000000001900000000000003237400000000000000009999123100000010000000000000BREUCAACNOR1157
012024101802LPSB3       010LOPES BRASILON      NM   R$  000000000017000000000001730000000000167000000000016900000000001680000000000168000000000017000238000000000000165900000000000028084300000000000000009999123100000010000000000000BRLPSBACNOR0114
012024101802LREN3       010LOJAS RENNERON      NM   R$  000000000187500000000018900000000001840000000000185600000000018400000000001839000000000184027054000000000019425500000000036054957800000000000000009999123100000010000000000000BRLRENACNOR1222
012024101802MILS3       010MILLS       ON      NM   R$  000000000106100000000010700000000001044000000000105100000000010540000000001048000000000105404021000000000001157900000000001216991600000000000000009999123100000010000000000000BRMILSACNOR2128
012024101802MLAS3       010MULTILASER  ON      NM   R$  000000000015800000000001600000000000152000000000015400000000001520000000000152000000000015303417000000000003005600000000000464642000000000000000009999123100000010000000000000BRMLASACNOR9101
012024101802MNDL3       010MUNDIAL     ON           R$  000000000164100000000016410000000001641000000000164100000000016410000000001427000000000170000002000000000000000400000000000000656400000000000000009999123100000010000000000000BRMNDLACNOR4109
012024101802MNPR3       010MINUPAR     ON           R$  000000000191500000000020900000000001910000000000201400000000020500000000001900000000000205000017000000000000003800000000000007654900000000000000009999123100000010000000000000BRMNPRACNOR5122
012024101802MOVI3       010MOVIDA      ON      NM   R$  000000000058700000000005960000000000566000000000057400000000005660000000000566000000000056707889000000000004514900000000002594541000000000000000009999123100000010000000000000BRMOVIACNOR0122
012024101802PATI3       010PANATLANTICAON           R$  000000000300000000000032230000000003000000000000316700000000032000000000003195000000000320000021000000000000003100000000000009818200000000000000009999123100000010000000000000BRPATIACNOR6066
012024101802PCAR3       010P.ACUCAR-CBDON      NM   R$  000000000032800000000003290000000000314000000000031900000000003170000000000317000000000031907443000000000008920800000000002847551200000000000000009999123100000010000000000000BRPCARACNOR3167
012024101802PRNR3       010PRINER      ON      NM   R$  000000000127900000000012800000000001250000000000125500000000012500000000001249000000000125700712000000000000205500000000000257982000000000000000009999123100000010000000000000BRPRNRACNOR4109
012024101802PSSA3       010PORTO SEGUROON      NM   R$  000000000371000000000037300000000003658000000000368100000000036910000000003691000000000369810039000000000001816100000000006686645800000000000000009999123100000010000000000000BRPSSAACNOR7156
012024101802PTBL3       010PORTOBELLO  ON      NM   R$  000000000046300000000004650000000000454000000000045800000000004620000000000459000000000046200665000000000000157500000000000072235700000000000000009999123100000010000000000000BRPTBLACNOR8132
012024101802PTNT4       010PETTENATI   PN           R$  000000000065000000000006510000000000630000000000064000000000006300000000000625000000000063000044000000000000026300000000000016841100000000000000009999123100000010000000000000BRPTNTACNPR3047
012024101802QUAL3       010QUALICORP   ON      NM   R$  000000000022100000000002250000000000213000000000021700000000002130000000000213000000000021503683000000000004824100000000001049210100000000000000009999123100000010000000000000BRQUALACNOR6120
012024101802ROMI3       010ROMI        ON      NM   R$  000000000106000000000010710000000001049000000000105500000000010550000000001051000000000105500592000000000000106400000000000112314400000000000000009999123100000010000000000000BRROMIACNOR8196
012024101802RSUL4       010RIOSULENSE  PN           R$  000000000620000000000062360000000006156000000000619900000000061560000000006153000000000619900010000000000000001100000000000006819800000000000000009999123100000010000000000000BRRSULACNPR3114
012024101802GGPS3       010GPS         ON      NM   R$  000000000186200000000018750000000001823000000000183900000000018360000000001825000000000183603282000000000001129500000000002077672100000000000000009999123100000010000000000000BRGGPSACNOR9103
012024101802GMAT3       010GRUPO MATEUSON      NM   R$  000000000075100000000007530000000000731000000000073500000000007320000000000732000000000073504783000000000002451300000000001804148100000000000000009999123100000010000000000000BRGMATACNOR7103
012024101802GOAU3       010GERDAU MET  ON      N1   R$  000000000102900000000010330000000001018000000000102400000000010230000000001023000000000102500171000000000000063700000000000065276400000000000000009999123100000010000000000000BRGOAUACNOR1268
012024101802GOAU4       010GERDAU MET  PN      N1   R$  000000000103700000000010490000000001028000000000103300000000010320000000001031000000000103310268000000000008098100000000008368843200000000000000009999123100000010000000000000BRGOAUACNPR8269
012024101802ITSA3       010ITAUSA      ON      N1   R$  000000000106100000000010660000000001053000000000106000000000010660000000001060000000000106600143000000000000030600000000000032465700000000000000009999123100000010000000000000BRITSAACNOR0443
012024101802ITSA4       010ITAUSA      PN      N1   R$  000000000106100000000010660000000001052000000000105900000000010610000000001060000000000106130917000000000020845300000000022075741400000000000000009999123100000010000000000000BRITSAACNPR7443
012024101802KLBN11      010KLABIN S/A  UNT     N2   R$  000000000205000000000020790000000002046000000000206300000000020710000000002066000000000207314613000000000006182600000000012759056300000000000000009999123100000010000000000000BRKLBNCDAM18143
012024101802KLBN3       010KLABIN S/A  ON      N2   R$  000000000041100000000004180000000000410000000000041300000000004150000000000413000000000041600467000000000000257000000000000106284600000000000000009999123100000010000000000000BRKLBNACNOR2171
012024101802KLBN4       010KLABIN S/A  PN      N2   R$  000000000041200000000004150000000000409000000000041200000000004140000000000413000000000041401244000000000000705500000000000290680500000000000000009999123100000010000000000000BRKLBNACNPR9171
012024101802ODPV3       010ODONTOPREV  ON      NM   R$  000000000105400000000010730000000001048000000000106100000000010730000000001063000000000107403930000000000000989800000000001051107300000000000000009999123100000010000000000000BRODPVACNOR4204
012024101802OFSA3       010OUROFINO S/AON      NM   R$  000000000212000000000021610000000002120000000000214800000000021610000000002160000000000219900007000000000000001700000000000003652500000000000000009999123100000010000000000000BROFSAACNOR7118
012024101802ONCO3       010ONCOCLINICASON      NM   R$  000000000048200000000004980000000000479000000000048900000000004870000000000486000000000048701758000000000000925400000000000452985500000000000000009999123100000010000000000000BRONCOACNOR6101
012024101802OPCT3       010OCEANPACT   ON      NM   R$  000000000068300000000006840000000000659000000000066400000000006590000000000658000000000066101175000000000000328900000000000218404100000000000000009999123100000010000000000000BROPCTACNOR0100
012024101802ORVR3       010ORIZON      ON      NM   R$  000000000462400000000046250000000004546000000000457100000000045700000000004570000000000457502288000000000000468600000000002142102300000000000000009999123100000010000000000000BRORVRACNOR0101
012024101802JHSF3       010JHSF PART   ON      NM   R$  000000000045300000000004580000000000439000000000044500000000004410000000000440000000000044204768000000000002870900000000001280272200000000000000009999123100000010000000000000BRJHSFACNOR2140
012024101802JSLG3       010JSL         ON      NM   R$  000000000076400000000007750000000000755000000000076000000000007550000000000755000000000075901043000000000000265100000000000201685700000000000000009999123100000010000000000000BRJSLGACNOR2121
012024101802KEPL3       010KEPLER WEBERON      NM   R$  000000000092800000000009370000000000905000000000091000000000009100000000000910000000000091205240000000000001684300000000001532807300000000000000009999123100000010000000000000BRKEPLACNOR1064
012024101802NINJ3       010GETNINJAS   ON      NM   R$  000000000045900000000004630000000000454000000000045600000000004540000000000454000000000046500017000000000000003400000000000001552100000000000000009999123100000010000000000000BRNINJACNOR5101
012024101802NTCO3       010GRUPO NATURAON      NM   R$  000000000149500000000015050000000001458000000000148300000000014890000000001478000000000148912247000000000008139200000000012072130000000000000000009999123100000010000000000000BRNTCOACNOR5106
012024101802RECV3       010PETRORECSA  ON      NM   R$  000000000175500000000017680000000001708000000000172100000000017100000000001709000000000171005297000000000002065000000000003555825800000000000000009999123100000010000000000000BRRECVACNOR3107
012024101802REDE3       010REDE ENERGIAON           R$  000000000068800000000006880000000000685000000000068500000000006850000000000685000000000069000007000000000000000800000000000000548400000000000000009999123100000010000000000000BRREDEACNOR7128
012024101802RENT3       010LOCALIZA    ON      NM   R$  000000000427900000000043070000000004172000000000421400000000042250000000004222000000000422819267000000000006466200000000027254299400000000000000009999123100000010000000000000BRRENTACNOR4197
012024101802ELMD3       010ELETROMIDIA ON      NM   R$  000000000172500000000017790000000001705000000000175600000000017050000000001703000000000170700481000000000000092800000000000163042400000000000000009999123100000010000000000000BRELMDACNOR3101
012024101802EMAE4       010EMAE        PN           R$  000000000394000000000039760000000003931000000000394000000000039760000000003923000000000397600005000000000000000500000000000001970300000000000000009999123100000010000000000000BREMAEACNPR1126
012024101802EMBR3       010EMBRAER     ON      NM   R$  000000000483800000000048700000000004798000000000482100000000047980000000004798000000000480013078000000000003657900000000017637315600000000000000009999123100000010000000000000BREMBRACNOR4191
012024101802FRAS3       010FRAS-LE     ON      N1   R$  000000000221900000000022460000000002203000000000223000000000022350000000002235000000000224602266000000000000269300000000000600718700000000000000009999123100000010000000000000BRFRASACNOR0160
012024101802FRIO3       010METALFRIO   ON      NM   R$  000000001100000000000112000000000011000000000001115000000000112000000000010200000000001188800002000000000000000400000000000004460000000000000000009999123100000010000000000000BRFRIOACNOR2111
012024101802MATD3       010MATER DEI   ON      NM   R$  000000000043700000000004470000000000432000000000043900000000004400000000000440000000000044301147000000000001144400000000000503373500000000000000009999123100000010000000000000BRMATDACNOR4104
012024101802MBLY3       010MOBLY       ON      NM   R$  000000000021500000000002150000000000202000000000020600000000002020000000000202000000000020300294000000000000347300000000000071852700000000000000009999123100000010000000000000BRMBLYACNOR5100
012024101802MDIA3       010M.DIASBRANCOON      NM   R$  000000000252000000000025380000000002498000000000250500000000025000000000002500000000000250504313000000000000899900000000002254991200000000000000009999123100000010000000000000BRMDIAACNOR7136
012024101802MDNE3       010MOURA DUBEUXON      NM   R$  000000000150900000000015290000000001496000000000150700000000015010000000001501000000000150302097000000000000408400000000000615718000000000000000009999123100000010000000000000BRMDNEACNOR9100
012024101802MTRE3       010MITRE REALTYON      NM   R$  000000000037500000000003780000000000363000000000036700000000003640000000000364000000000036700565000000000000402100000000000147845800000000000000009999123100000010000000000000BRMTREACNOR6115
012024101802MTSA4       010METISA      PN           R$  000000000365100000000037190000000003651000000000369100000000037170000000003661000000000371800006000000000000000700000000000002584200000000000000009999123100000010000000000000BRMTSAACNPR9073
012024101802MULT3       010MULTIPLAN   ON      N2   R$  000000000263200000000026320000000002580000000000259800000000025930000000002592000000000260213689000000000002859100000000007430441700000000000000009999123100000010000000000000BRMULTACNOR5139
012024101802PFRM3       010PROFARMA    ON      NM   R$  000000000059400000000005940000000000582000000000058700000000005910000000000583000000000059100238000000000000069800000000000041034800000000000000009999123100000010000000000000BRPFRMACNOR1116
012024101802PGMN3       010PAGUE MENOS ON      NM   R$  000000000028500000000002920000000000283000000000028500000000002830000000000283000000000028500348000000000000147800000000000042164800000000000000009999123100000010000000000000BRPGMNACNOR8103
012024101802PINE3       010PINE        ON  EJS N2   R$  000000000048800000000004880000000000480000000000048000000000004800000000000478000000000048700006000000000000002500000000000001200800000000000000009999123100000010000000000000BRPINEACNOR1152
012024101802PINE4       010PINE        PN  EJS N2   R$  000000000048700000000004900000000000480000000000048100000000004810000000000481000000000048200250000000000000205600000000000098980400000000000000009999123100000010000000000000BRPINEACNPR8152
012024101802PLPL3       010PLANOEPLANO ON      NM   R$  000000000142300000000014400000000001378000000000140900000000013840000000001383000000000138503152000000000000714200000000001006761400000000000000009999123100000010000000000000BRPLPLACNOR5104
012024101802PNVL3       010DIMED       ON      NM   R$  000000000101700000000010260000000001002000000000100900000000010060000000001006000000000100901151000000000000209000000000000210922500000000000000009999123100000010000000000000BRPNVLACNOR9208
012024101802RAIZ4       010RAIZEN      PN      N2   R$  000000000029600000000002980000000000290000000000029200000000002910000000000290000000000029105014000000000007095500000000002078637200000000000000009999123100000010000000000000BRRAIZACNPR6111
012024101802SCAR3       010SAO CARLOS  ON      NM   R$  000000000212300000000021440000000002109000000000211900000000021090000000002101000000000211000011000000000000001600000000000003391000000000000000009999123100000010000000000000BRSCARACNOR7131
012024101802SEER3       010SER EDUCA   ON      NM   R$  000000000059900000000006020000000000572000000000058000000000005720000000000571000000000057200966000000000000410300000000000238277300000000000000009999123100000010000000000000BRSEERACNOR5119
012024101802SMFT3       010SMART FIT   ON      NM   R$  000000000233800000000023570000000002239000000000228900000000022400000000002238000000000224906477000000000003068700000000007024412400000000000000009999123100000010000000000000BRSMFTACNOR1112
012024101802SMTO3       010SAO MARTINHOON      NM   R$  000000000258500000000026270000000002572000000000259000000000025780000000002577000000000257804779000000000000881600000000002284077500000000000000009999123100000010000000000000BRSMTOACNOR3127
012024101802VBBR3       010VIBRA       ON      NM   R$  000000000227800000000023060000000002257000000000227200000000022610000000002261000000000226920265000000000006811400000000015481368500000000000000009999123100000010000000000000BRVBBRACNOR1109
012024101802UNIP3       010UNIPAR      ON           R$  000000000468000000000047190000000004643000000000467900000000047190000000004651000000000469100015000000000000001600000000000007487000000000000000009999123100000010000000000000BRUNIPACNOR7206
012024101802UNIP5       010UNIPAR      PNA          R$  000000000480000000000048000000000004800000000000480000000000048000000000004720000000000479900004000000000000000800000000000003840000000000000000009999123100000010000000000000BRUNIPACNPA0208
012024101802UNIP6       010UNIPAR      PNB          R$  000000000457700000000046700000000004575000000000460400000000045750000000004575000000000460200726000000000000115200000000000530426300000000000000009999123100000010000000000000BRUNIPACNPB8206
012024101802USIM3       010USIMINAS    ON      N1   R$  000000000059900000000006120000000000599000000000060600000000006060000000000606000000000060901030000000000000592500000000000359552900000000000000009999123100000010000000000000BRUSIMACNOR3167
012024101802USIM5       010USIMINAS    PNA     N1   R$  000000000061200000000006260000000000609000000000061700000000006120000000000612000000000061311722000000000014656100000000009052782900000000000000009999123100000010000000000000BRUSIMACNPA6169
012024101802VAMO3       010VAMOS       ON      NM   R$  000000000058100000000005890000000000566000000000057400000000005810000000000580000000000058111028000000000009492000000000005451529600000000000000009999123100000010000000000000BRVAMOACNOR7105
012024101802TTEN3       0103TENTOS     ON      NM   R$  000000000105600000000010570000000001027000000000103400000000010280000000001028000000000103203947000000000000573900000000000593778300000000000000009999123100000010000000000000BRTTENACNOR0103
012024101802TUPY3       010TUPY        ON      NM   R$  000000000238000000000024020000000002323000000000234300000000023230000000002322000000000233903436000000000000627100000000001469445100000000000000009999123100000010000000000000BRTUPYACNOR1184
012024101802SANB11      010SANTANDER BRUNT EDJ      R$  000000000288800000000028880000000002827000000000284800000000028640000000002849000000000286406645000000000002029700000000005780951600000000000000009999123100000010000000000000BRSANBCDAM13166
012024101802SANB3       010SANTANDER BRON  EDJ      R$  000000000136600000000013780000000001345000000000136100000000013700000000001355000000000137000273000000000000052300000000000071201800000000000000009999123100000010000000000000BRSANBACNOR8173
012024101802SANB4       010SANTANDER BRPN  EDJ      R$  000000000150200000000015080000000001478000000000148800000000014950000000001483000000000150000422000000000000077100000000000114762100000000000000009999123100000010000000000000BRSANBACNPR5173
012024101802SAPR11      010SANEPAR     UNT     N2   R$  000000000279500000000028130000000002765000000000277000000000027650000000002763000000000276504136000000000001573700000000004359390400000000000000009999123100000010000000000000BRSAPRCDAM13118
012024101802UCAS3       010UNICASA     ON      NM   R$  000000000021400000000002150000000000213000000000021300000000002130000000000213000000000021400051000000000000008000000000000001710500000000000000009999123100000010000000000000BRUCASACNOR1113
012024101802UGPA3       010ULTRAPAR    ON      NM   R$  000000000208700000000021120000000002070000000000208700000000020800000000002080000000000208813128000000000004833400000000010088400100000000000000009999123100000010000000000000BRUGPAACNOR8156
012024101802ZAMP3       010ZAMP S.A.   ON           R$  000000000025300000000002530000000000248000000000024900000000002480000000000248000000000025000430000000000000178200000000000044529600000000000000009999123100000010000000000000BRZAMPACNOR5101
012024101802SAPR3       010SANEPAR     ON      N2   R$  000000000052200000000005350000000000522000000000052600000000005280000000000525000000000052800446000000000000107900000000000056862900000000000000009999123100000010000000000000BRSAPRACNOR9159
012024101802SAPR4       010SANEPAR     PN      N2   R$  000000000056600000000005700000000000561000000000056300000000005620000000000562000000000056302637000000000000776000000000000437372800000000000000009999123100000010000000000000BRSAPRACNPR6159
012024101802GPAR3       010CELGPAR     ON           R$  000000000470000000000047000000000004700000000000470000000000047000000000000000000000000470000001000000000000000100000000000000470000000000000000009999123100000010000000000000BRGPARACNOR4110
012024101802GRND3       010GRENDENE    ON      NM   R$  000000000053100000000005360000000000523000000000052600000000005290000000000525000000000052903302000000000001014800000000000534415600000000000000009999123100000010000000000000BRGRNDACNOR3175
012024101802VSTE3       010VESTE       ON      NM   R$  000000000099600000000010000000000000995000000000099700000000009950000000000994000000000105000005000000000000000500000000000000498600000000000000009999123100000010000000000000BRVSTEACNOR5103
012024101802VTRU3       010VITRUEDUCA  ON      NM   R$  000000000097300000000009730000000000919000000000093800000000009190000000000919000000000092000449000000000000102800000000000096465000000000000000009999123100000010000000000000BRVTRUACNOR3100
012024101802VULC3       010VULCABRAS   ON  ED  NM   R$  000000000163400000000016470000000001615000000000163100000000016460000000001638000000000164602734000000000000519500000000000847638800000000000000009999123100000010000000000000BRVULCACNOR2163
012024101802VVEO3       010VIVEO       ON      NM   R$  000000000020100000000002030000000000186000000000019400000000001990000000000196000000000020003083000000000004188500000000000815435200000000000000009999123100000010000000000000BRVVEOACNOR0104
012024101802WEGE3       010WEG         ON      NM   R$  000000000565400000000056680000000005494000000000553400000000055220000000005520000000000552318277000000000005431900000000030060189500000000000000009999123100000010000000000000BRWEGEACNOR0225
012024101802SNSY5       010SANSUY      PNA          R$  000000000050900000000005090000000000509000000000050900000000005090000000000498000000000050600001000000000000000100000000000000050900000000000000009999123100000010000000000000BRSNSYACNPA5111
012024101802SOJA3       010BOA SAFRA   ON      NM   R$  000000000121400000000012140000000001192000000000119900000000011990000000001198000000000120101308000000000000263800000000000316417500000000000000009999123100000010000000000000BRSOJAACNOR9106
012024101802SRNA3       010SERENA      ON      NM   R$  000000000085200000000008610000000000841000000000084700000000008410000000000840000000000084503913000000000002556600000000002167461300000000000000009999123100000010000000000000BRSRNAACNOR4100
012024101802STBP3       010SANTOS BRP  ON  ER  NM   R$  000000000129100000000012960000000001281000000000128600000000012890000000001285000000000128907759000000000008906900000000011454847400000000000000009999123100000010000000000000BRSTBPACNOR3132
012024101802COCE3       010COELCE      ON           R$  000000000291500000000029150000000002915000000000291500000000029150000000002851000000000319900001000000000000000100000000000000291500000000000000009999123100000010000000000000BRCOCEACNOR0146
012024101802COCE5       010COELCE      PNA          R$  000000000269000000000027400000000002660000000000267500000000026900000000002662000000000269000059000000000000007100000000000018992700000000000000009999123100000010000000000000BRCOCEACNPA3147
012024101802COGN3       010COGNA ON    ON      NM   R$  000000000013800000000001390000000000134000000000013500000000001350000000000134000000000013513790000000000023679700000000003214415100000000000000009999123100000010000000000000BRCOGNACNOR2105
012024101802BEES3       010BANESTES    ON           R$  000000000088500000000008850000000000881000000000088300000000008810000000000882000000000088300060000000000000011400000000000010069200000000000000009999123100000010000000000000BRBEESACNOR9396
012024101802BEES4       010BANESTES    PN           R$  000000000089700000000009180000000000897000000000090700000000009140000000000903000000000091800021000000000000003700000000000003356100000000000000009999123100000010000000000000BRBEESACNPR6321
012024101802BGIP4       010BANESE      PN           R$  000000000238000000000023800000000002377000000000237800000000023770000000002320000000000239900002000000000000000200000000000000475700000000000000009999123100000010000000000000BRBGIPACNPR8210
012024101802BHIA3       010CASAS BAHIA ON      NM   R$  000000000043300000000004490000000000429000000000043800000000004380000000000437000000000043802035000000000002222800000000000974608800000000000000009999123100000010000000000000BRBHIAACNOR1102
012024101802BPAC11      010BTGP BANCO  UNT     N2   R$  000000000334900000000033490000000003258000000000330400000000033130000000003311000000000331415059000000000011643000000000038474343800000000000000009999123100000010000000000000BRBPACUNT006119
012024101802BPAC3       010BTGP BANCO  ON      N2   R$  000000000158100000000015810000000001540000000000155200000000015420000000001540000000000155500018000000000000002300000000000003570600000000000000009999123100000010000000000000BRBPACACNOR7134
012024101802BPAC5       010BTGP BANCO  PNA     N2   R$  000000000086500000000008650000000000853000000000086000000000008650000000000854000000000087300016000000000000002300000000000001978800000000000000009999123100000010000000000000BRBPACACNPA0134
012024101802CMIN3       010CSNMINERACAOON      N2   R$  000000000060000000000006080000000000589000000000059500000000005930000000000592000000000059408075000000000006836200000000004073056700000000000000009999123100000010000000000000BRCMINACNOR2112
012024101802CSUD3       010CSU DIGITAL ON      NM   R$  000000000170200000000017130000000001693000000000169800000000017030000000001700000000000170500063000000000000013600000000000023105600000000000000009999123100000010000000000000BRCSUDACNOR5111
012024101802BRIT3       010BRISANET    ON      NM   R$  000000000031000000000003120000000000306000000000030700000000003060000000000306000000000030700963000000000000214400000000000065968800000000000000009999123100000010000000000000BRBRITACNOR0103
012024101802BRKM3       010BRASKEM     ON      N1   R$  000000000178100000000018050000000001781000000000179000000000017910000000001785000000000179500070000000000000007000000000000012536900000000000000009999123100000010000000000000BRBRKMACNOR1119
012024101802BRKM5       010BRASKEM     PNA     N1   R$  000000000184000000000018630000000001806000000000182300000000018140000000001814000000000181505670000000000001859200000000003389328900000000000000009999123100000010000000000000BRBRKMACNPA4121
012024101802CPFE3       010CPFL ENERGIAON      NM   R$  000000000328500000000032890000000003255000000000326200000000032600000000003260000000000326304053000000000001494400000000004874858500000000000000009999123100000010000000000000BRCPFEACNOR0137
012024101802CPLE3       010COPEL       ON      N2   R$  000000000089100000000008910000000000879000000000088500000000008900000000000890000000000089105415000000000004043700000000003580245900000000000000009999123100000010000000000000BRCPLEACNOR8150
012024101802CPLE5       010COPEL       PNA     N2   R$  000000000116100000000011610000000001160000000000116000000000011610000000001142000000000116100004000000000000000400000000000000464300000000000000009999123100000010000000000000BRCPLEACNPA1148
012024101802CPLE6       010COPEL       PNB     N2   R$  000000000099500000000009960000000000977000000000098500000000009900000000000990000000000099122437000000000031918300000000031463344700000000000000009999123100000010000000000000BRCPLEACNPB9147
012024101802DASA3       010DASA        ON      NM   R$  000000000029800000000002980000000000286000000000029000000000002880000000000288000000000028901367000000000000449300000000000130597100000000000000009999123100000010000000000000BRDASAACNOR1123
012024101802DESK3       010DESKTOP     ON      NM   R$  000000000133000000000013440000000001314000000000132600000000013310000000001331000000000134301009000000000000233700000000000310114200000000000000009999123100000010000000000000BRDESKACNOR2104
012024101802ENMT3       010ENERGISA MT ON           R$  000000000790400000000085000000000007904000000000820200000000085000000000000000000000000850500002000000000000000200000000000001640400000000000000009999123100000010000000000000BRENMTACNOR5121
012024101802EPAR3       010EMBPAR S/A  ON           R$  000000000056400000000005640000000000555000000000056100000000005550000000000548000000000056100021000000000000004000000000000002244200000000000000009999123100000010000000000000BREPARACNOR9105
012024101802EQMA3B      010EQTLMARANHAOON      MB   R$  000000000237900000000024370000000002379000000000238800000000024370000000002380000000000243400006000000000000001000000000000002388800000000000000009999123100000010000000000000BREQMAACNOR8108
012024101802EQPA3       010EQTL PARA   ON           R$  000000000060000000000006000000000000594000000000059800000000006000000000000595000000000060000012000000000000005300000000000003170200000000000000009999123100000010000000000000BREQPAACNOR1111
012024101802EQTL3       010EQUATORIAL  ON      NM   R$  000000000329900000000032990000000003218000000000324800000000032480000000003247000000000325115647000000000014806500000000048097796300000000000000009999123100000010000000000000BREQTLACNOR0131
012024101802EUCA4       010EUCATEX     PN      N1   R$  000000000148300000000014900000000001464000000000147700000000014710000000001471000000000147900161000000000000020000000000000029540700000000000000009999123100000010000000000000BREUCAACNPR8044
012024101802EVEN3       010EVEN        ON  ED  NM   R$  000000000065700000000006630000000000628000000000063700000000006280000000000628000000000063202860000000000000858900000000000547472500000000000000009999123100000010000000000000BREVENACNOR8120
012024101802EZTC3       010EZTEC       ON      NM   R$  000000000141000000000014280000000001387000000000139700000000013930000000001393000000000139807796000000000001714300000000002395632300000000000000009999123100000010000000000000BREZTCACNOR0126
012024101802AERI3       010AERIS       ON      NM   R$  000000000064600000000006530000000000620000000000063200000000006200000000000620000000000062900389000000000000108400000000000068615000000000000000009999123100000010000000000000BRAERIACNOR4102
012024101802AESB3       010AES BRASIL  ON      NM   R$  000000000117700000000011790000000001176000000000117700000000011780000000001177000000000117901839000000000008126900000000009569986400000000000000009999123100000010000000000000BRAESBACNOR7107
012024101802AFLT3       010AFLUENTE T  ON           R$  000000000071100000000007120000000000708000000000070900000000007120000000000703000000000077900008000000000000000900000000000000638200000000000000009999123100000010000000000000BRAFLTACNOR1122
012024101802AGRO3       010BRASILAGRO  ON      NM   R$  000000000244400000000024750000000002443000000000245000000000024620000000002462000000000246301469000000000000225700000000000553165200000000000000009999123100000010000000000000BRAGROACNOR7114
012024101802ALLD3       010ALLIED      ON      NM   R$  000000000075200000000007580000000000750000000000075300000000007500000000000750000000000075700079000000000000029800000000000022463600000000000000009999123100000010000000000000BRALLDACNOR3106
012024101802ALOS3       010ALLOS       ON      NM   R$  000000000227700000000022870000000002235000000000224400000000022380000000002238000000000224611636000000000004734500000000010625809700000000000000009999123100000010000000000000BRALOSACNOR5102
012024101802ALPA3       010ALPARGATAS  ON      N1   R$  000000000064600000000006700000000000637000000000065500000000006700000000000639000000000067000026000000000000006500000000000004259400000000000000009999123100000010000000000000BRALPAACNOR0231
012024101802ALPA4       010ALPARGATAS  PN      N1   R$  000000000069200000000007000000000000686000000000069100000000006940000000000691000000000069507176000000000002067300000000001430242300000000000000009999123100000010000000000000BRALPAACNPR7232
012024101802BNBR3       010NORD BRASIL ON           R$  000000001040000000000104000000000010400000000001040000000000104000000000010339000000001040000001000000000000000100000000000001040000000000000000009999123100000010000000000000BRBNBRACNOR8209
012024101802BOBR4       010BOMBRIL     PN           R$  000000000027100000000003060000000000269000000000028900000000002840000000000280000000000028400611000000000000254800000000000073656200000000000000009999123100000010000000000000BRBOBRACNPR3128
012024101802AZUL4       010AZUL        PN      N2   R$  000000000061100000000006190000000000590000000000060000000000005930000000000593000000000059408960000000000017054000000000010244196400000000000000009999123100000010000000000000BRAZULACNPR4103
012024101802BRAV3       010BRAVA       ON      NM   R$  000000000176900000000017690000000001695000000000171900000000016950000000001695000000000169710372000000000005060200000000008698606700000000000000009999123100000010000000000000BRBRAVACNOR3100
012024101802CMIG3       010CEMIG       ON      N1   R$  000000000142900000000014310000000001411000000000142000000000014210000000001419000000000142200492000000000000105000000000000149161500000000000000009999123100000010000000000000BRCMIGACNOR6244
012024101802CMIG4       010CEMIG       PN      N1   R$  000000000111700000000011200000000001095000000000110300000000011040000000001103000000000110414017000000000018494100000000020403995700000000000000009999123100000010000000000000BRCMIGACNPR3245
012024101802CSNA3       010SID NACIONALON           R$  000000000119800000000012120000000001159000000000117600000000011670000000001166000000000116911787000000000008107100000000009536199700000000000000009999123100000010000000000000BRCSNAACNOR6261
012024101802ATOM3       010ATOMPAR     ON           R$  000000000025300000000004150000000000250000000000035300000000004050000000000403000000000040501878000000000000551500000000000194951700000000000000009999123100000010000000000000BRATOMACNOR1106
012024101802AURE3       010AUREN       ON      NM   R$  000000000103400000000010440000000001024000000000103700000000010400000000001039000000000104111616000000000009776200000000010141977500000000000000009999123100000010000000000000BRAUREACNOR9104
012024101802AVLL3       010ALPHAVILLE  ON      NM   R$  000000000030000000000003000000000000298000000000029900000000003000000000000296000000000030000006000000000000002500000000000000749400000000000000009999123100000010000000000000BRAVLLACNOR5103
012024101802GEPA4       010GER PARANAP PN           R$  000000000289000000000028900000000002890000000000289000000000028900000000002822000000000289000001000000000000000100000000000000289000000000000000009999123100000010000000000000BRGEPAACNPR9161
012024101802GFSA3       010GAFISA      ON      NM   R$  000000000018400000000001880000000000173000000000017900000000001730000000000173000000000017402457000000000004464000000000000802645700000000000000009999123100000010000000000000BRGFSAACNOR3125
012024101802GGBR3       010GERDAU      ON      N1   R$  000000000162800000000016650000000001628000000000164800000000016650000000001650000000000166500493000000000000103100000000000169987200000000000000009999123100000010000000000000BRGGBRACNOR1193
012024101802GGBR4       010GERDAU      PN      N1   R$  000000000183800000000018610000000001832000000000184200000000018400000000001840000000000184225845000000000013600700000000025062851600000000000000009999123100000010000000000000BRGGBRACNPR8193
012024101802INEP3       010INEPAR      ON           R$  000000000016700000000001680000000000164000000000016600000000001670000000000166000000000016700073000000000000017000000000000002824300000000000000009999123100000010000000000000BRINEPACNOR1143
012024101802INEP4       010INEPAR      PN           R$  000000000017300000000001740000000000170000000000017200000000001730000000000170000000000017300028000000000000011400000000000001963800000000000000009999123100000010000000000000BRINEPACNPR8143
012024101802INTB3       010INTELBRAS   ON      NM   R$  000000000204700000000020540000000002012000000000202800000000020300000000002030000000000203702803000000000000502800000000001019680400000000000000009999123100000010000000000000BRINTBACNOR9112
012024101802IRBR3       010IRBBRASIL REON      NM   R$  000000000421300000000042460000000004135000000000417500000000041650000000004158000000000416503337000000000000680000000000002839012800000000000000009999123100000010000000000000BRIRBRACNOR4111
012024101802MYPK3       010IOCHP-MAXIONON      NM   R$  000000000107300000000010780000000001027000000000104300000000010270000000001027000000000103704287000000000001088700000000001135604600000000000000009999123100000010000000000000BRMYPKACNOR7156
012024101802NEOE3       010NEOENERGIA  ON      NM   R$  000000000193100000000019430000000001913000000000192800000000019290000000001929000000000193004533000000000002227200000000004295410500000000000000009999123100000010000000000000BRNEOEACNOR3123
012024101802NGRD3       010NEOGRID     ON      NM   R$  000000000309200000000031320000000003061000000000306500000000030610000000003061000000000309200083000000000000046600000000000142856800000000000000009999123100000010000000000000BRNGRDACNOR3106
012024101802FESA4       010FERBASA     PN      N1   R$  000000000076600000000007730000000000765000000000076700000000007650000000000765000000000076701183000000000000320900000000000246276100000000000000009999123100000010000000000000BRFESAACNPR5085
012024101802FHER3       010FER HERINGERON      NM   R$  000000000037300000000003730000000000372000000000037200000000003720000000000372000000000037300004000000000000000800000000000000297900000000000000009999123100000010000000000000BRFHERACNOR5103
012024101802FIQE3       010UNIFIQUE    ON      NM   R$  000000000038700000000003930000000000381000000000038500000000003850000000000385000000000038700913000000000000233100000000000089773900000000000000009999123100000010000000000000BRFIQEACNOR5107
012024101802FLRY3       010FLEURY      ON      NM   R$  000000000149900000000015050000000001477000000000148800000000014920000000001491000000000149311489000000000002795300000000004161753500000000000000009999123100000010000000000000BRFLRYACNOR5139
012024101802IFCM3       010INFRACOMM   ON      NM   R$  000000000001500000000000150000000000014000000000001400000000000150000000000014000000000001501877000000000002900800000000000042790900000000000000009999123100000010000000000000BRIFCMACNOR8101
012024101802IGTI11      010IGUATEMI S.AUNT     N1   R$  000000000213700000000021370000000002105000000000212100000000021260000000002126000000000213010940000000000002232700000000004736591100000000000000009999123100000010000000000000BRIGTICDAM16106
012024101802IGTI3       010IGUATEMI S.AON      N1   R$  000000000025700000000002570000000000254000000000025500000000002550000000000255000000000025600073000000000000054600000000000013941700000000000000009999123100000010000000000000BRIGTIACNOR8106
012024101802JALL3       010JALLESMACHADON      NM   R$  000000000062100000000006290000000000613000000000061900000000006180000000000618000000000061901060000000000000321700000000000199224500000000000000009999123100000010000000000000BRJALLACNOR0106
012024101802JBSS3       010JBS         ON      NM   R$  000000000346000000000034940000000003417000000000345400000000034710000000003465000000000347121747000000000005867600000000020267537600000000000000009999123100000010000000000000BRJBSSACNOR8122
012024101802MEAL3       010IMC S/A     ON      NM   R$  000000000013800000000001390000000000135000000000013700000000001370000000000137000000000013800124000000000000277000000000000037956400000000000000009999123100000010000000000000BRMEALACNOR9105
012024101802MELK3       010MELNICK     ON      NM   R$  000000000036100000000003610000000000351000000000035400000000003510000000000351000000000035200529000000000000396600000000000140625400000000000000009999123100000010000000000000BRMELKACNOR8111
012024101802BRFS3       010BRF SA      ON      NM   R$  000000000240000000000024560000000002390000000000243300000000024350000000002427000000000243522677000000000009102900000000022151114400000000000000009999123100000010000000000000BRBRFSACNOR8122
012024101802CXSE3       010CAIXA SEGURION      NM   R$  000000000144300000000014570000000001441000000000144600000000014430000000001443000000000144809904000000000002618000000000003786723500000000000000009999123100000010000000000000BRCXSEACNOR7107
012024101802CYRE3       010CYRELA REALTON      NM   R$  000000000220700000000022260000000002164000000000217600000000021660000000002166000000000216813530000000000007565900000000016467839900000000000000009999123100000010000000000000BRCYREACNOR7140
012024101802ENEV3       010ENEVA       ON      NM   R$  000000000142600000000014430000000001423000000000143400000000014420000000001439000000000144221514000000000006464200000000009276074700000000000000009999123100000010000000000000BRENEVACNOR8106
012024101802ENGI11      010ENERGISA    UNT     N2   R$  000000000437700000000043990000000004294000000000432600000000043550000000004355000000000435812404000000000004616500000000019973849000000000000000009999123100000010000000000000BRENGICDAM16136
012024101802ENGI3       010ENERGISA    ON      N2   R$  000000000132200000000013220000000001293000000000130600000000013130000000001293000000000131300026000000000000003000000000000003919000000000000000009999123100000010000000000000BRENGIACNOR0146
012024101802ENGI4       010ENERGISA    PN      N2   R$  000000000076600000000007660000000000750000000000075600000000007550000000000753000000000076100055000000000000009000000000000006804400000000000000009999123100000010000000000000BRENGIACNPR7142
012024101802MGEL4       010MANGELS INDLPN           R$  000000000090100000000009010000000000900000000000090000000000009000000000000863000000000090900002000000000000001100000000000000990100000000000000009999123100000010000000000000BRMGELACNPR3147
012024101802MGLU3       010MAGAZ LUIZA ON      NM   R$  000000000096400000000009720000000000936000000000095400000000009400000000000939000000000094116101000000000024136400000000023035589300000000000000009999123100000010000000000000BRMGLUACNOR2125
012024101802POMO3       010MARCOPOLO   ON      N2   R$  000000000065500000000006670000000000651000000000066000000000006610000000000661000000000066801666000000000000315000000000000207925300000000000000009999123100000010000000000000BRPOMOACNOR0099
012024101802POMO4       010MARCOPOLO   PN      N2   R$  000000000088800000000008910000000000871000000000088500000000008880000000000887000000000088818389000000000015268600000000013523344300000000000000009999123100000010000000000000BRPOMOACNPR7099
012024101802PORT3       010WILSON SONS ON  ED  NM   R$  000000000173100000000017850000000001721000000000174700000000017850000000001766000000000178507031000000000006474600000000011315733000000000000000009999123100000010000000000000BRPORTACNOR8110
012024101802POSI3       010POSITIVO TECON      NM   R$  000000000061200000000006230000000000599000000000060500000000006040000000000601000000000060402770000000000001310100000000000793348600000000000000009999123100000010000000000000BRPOSIACNOR9116
012024101802PRIO3       010PETRORIO    ON      NM   R$  000000000427600000000042990000000004210000000000424200000000042180000000004217000000000422919417000000000007439500000000031558739000000000000000009999123100000010000000000000BRPRIOACNOR1107
012024101802RANI3       010IRANI       ON      NM   R$  000000000073200000000007390000000000728000000000073200000000007330000000000732000000000073501581000000000000561800000000000411792900000000000000009999123100000010000000000000BRRANIACNOR5073
012024101802ENJU3       010ENJOEI      ON      NM   R$  000000000013500000000001390000000000126000000000013100000000001280000000000128000000000012900945000000000001215200000000000159456600000000000000009999123100000010000000000000BRENJUACNOR9100
012024101802TOTS3       010TOTVS       ON      NM   R$  000000000286400000000028730000000002842000000000285700000000028540000000002853000000000285915549000000000004198200000000011994973400000000000000009999123100000010000000000000BRTOTSACNOR8145
012024101802TPIS3       010TRIUNFO PARTON      NM   R$  000000000060200000000006240000000000602000000000061400000000006230000000000620000000000062300337000000000000093500000000000057414200000000000000009999123100000010000000000000BRTPISACNOR8118
012024101802TRAD3       010TC          ON      NM   R$  000000000065500000000006750000000000625000000000065300000000006250000000000625000000000063000525000000000000263100000000000171903000000000000000009999123100000010000000000000BRTRADACNOR3102
012024101802TRIS3       010TRISUL      ON      NM   R$  000000000052500000000005300000000000516000000000052200000000005280000000000523000000000052801354000000000000532000000000000277721900000000000000009999123100000010000000000000BRTRISACNOR4118
012024101802TRPL3       010TRAN PAULISTON      N1   R$  000000000319700000000031970000000003093000000000310900000000030960000000003091000000000313000032000000000000005700000000000017721600000000000000009999123100000010000000000000BRTRPLACNOR4185
012024101802TRPL4       010TRAN PAULISTPN      N1   R$  000000000245100000000024640000000002437000000000244500000000024460000000002445000000000244705188000000000001022600000000002500635300000000000000009999123100000010000000000000BRTRPLACNPR1185
012024101802WEST3       010WESTWING    ON      NM   R$  000000000008200000000000830000000000080000000000008200000000000820000000000081000000000008200041000000000000044700000000000003703700000000000000009999123100000010000000000000BRWESTACNOR3100
012024101802WHRL3       010WHIRLPOOL   ON           R$  000000000042400000000004240000000000412000000000041400000000004120000000000412000000000041700084000000000000008600000000000003561600000000000000009999123100000010000000000000BRWHRLACNOR5129
012024101802WHRL4       010WHIRLPOOL   PN           R$  000000000044600000000004500000000000436000000000044000000000004370000000000437000000000044100185000000000000043500000000000019161700000000000000009999123100000010000000000000BRWHRLACNPR2129
012024101802WIZC3       010WIZ CO      ON      NM   R$  000000000059900000000005990000000000578000000000058300000000005840000000000584000000000058702402000000000000454200000000000265221900000000000000009999123100000010000000000000BRWIZCACNOR5102
012024101802YDUQ3       010YDUQS PART  ON      NM   R$  000000000102300000000010400000000001010000000000102300000000010240000000001023000000000102509071000000000003230700000000003307095500000000000000009999123100000010000000000000BRYDUQACNOR3105
012024101802TASA3       010TAURUS ARMASON      N2   R$  000000000103500000000010400000000001020000000000102600000000010200000000001020000000000102500053000000000000007800000000000008007300000000000000009999123100000010000000000000BRTASAACNOR7104
012024101802TASA4       010TAURUS ARMASPN      N2   R$  000000000101200000000010160000000000991000000000099900000000009970000000000996000000000099801233000000000000237800000000000237707000000000000000009999123100000010000000000000BRTASAACNPR4104
012024101802TCSA3       010TECNISA     ON      NM   R$  000000000015900000000001620000000000154000000000015700000000001540000000000154000000000015600192000000000000175000000000000027558200000000000000009999123100000010000000000000BRTCSAACNOR3112
012024101802TECN3       010TECHNOS     ON      NM   R$  000000000054600000000005690000000000545000000000056000000000005590000000000558000000000055900159000000000000056400000000000031596600000000000000009999123100000010000000000000BRTECNACNOR6109
012024101802TELB4       010TELEBRAS    PN           R$  000000000093200000000009370000000000922000000000093200000000009220000000000905000000000093600016000000000000002000000000000001864100000000000000009999123100000010000000000000BRTELBACNPR9140
012024101802TEND3       010TENDA       ON      NM   R$  000000000139700000000014210000000001364000000000139600000000014150000000001410000000000141506152000000000001839500000000002569002900000000000000009999123100000010000000000000BRTENDACNOR4111
012024101802TFCO4       010TRACK FIELD PN      N2   R$  000000000105000000000010560000000001035000000000104500000000010540000000001050000000000105400507000000000000103100000000000107811600000000000000009999123100000010000000000000BRTFCOACNPR8115
012024101802TGMA3       010TEGMA       ON      NM   R$  000000000272600000000027500000000002715000000000273600000000027400000000002731000000000274000969000000000000153200000000000419223000000000000000009999123100000010000000000000BRTGMAACNOR7145
012024101802TIMS3       010TIM         ON      NM   R$  000000000176300000000017670000000001743000000000175500000000017640000000001762000000000176412117000000000005408300000000009493490700000000000000009999123100000010000000000000BRTIMSACNOR5118
012024101802RAPT3       010RANDON PART ON      N1   R$  000000000092200000000009590000000000910000000000093800000000009590000000000925000000000096000173000000000000038300000000000035926200000000000000009999123100000010000000000000BRRAPTACNOR7163
012024101802RAPT4       010RANDON PART PN      N1   R$  000000000117400000000011790000000001122000000000114200000000011310000000001131000000000113510064000000000003711200000000004239298500000000000000009999123100000010000000000000BRRAPTACNPR4163
012024101802RCSL3       010RECRUSUL    ON           R$  000000000043000000000004380000000000419000000000042800000000004300000000000429000000000043001014000000000000762700000000000326931000000000000000009999123100000010000000000000BRRCSLACNOR4134
012024101802RCSL4       010RECRUSUL    PN           R$  000000000014700000000001970000000000146000000000017200000000001830000000000183000000000018506394000000000004902000000000000843393200000000000000009999123100000010000000000000BRRCSLACNPR1134
012024101802RDNI3       010RNI         ON      NM   R$  000000000031200000000003140000000000306000000000030700000000003060000000000306000000000030900008000000000000001100000000000000338600000000000000009999123100000010000000000000BRRDNIACNOR9116
012024101802RDOR3       010REDE D OR   ON      NM   R$  000000000302900000000030470000000002960000000000298700000000029940000000002994000000000299514389000000000003784900000000011305631100000000000000009999123100000010000000000000BRRDORACNOR8114
012024101802SYNE3       010SYN PROP TECON      NM   R$  000000000082100000000008550000000000821000000000084600000000008500000000000849000000000085202224000000000001125100000000000952526600000000000000009999123100000010000000000000BRSYNEACNOR2103
012024101802TAEE11      010TAESA       UNT     N2   R$  000000000348700000000034970000000003453000000000347100000000034900000000003480000000000349006368000000000001529900000000005311014600000000000000009999123100000010000000000000BRTAEECDAM10148
012024101802TAEE3       010TAESA       ON      N2   R$  000000000116500000000011650000000001151000000000115400000000011560000000001151000000000115700215000000000000035400000000000040876300000000000000009999123100000010000000000000BRTAEEACNOR9148
012024101802TAEE4       010TAESA       PN      N2   R$  000000000116900000000011710000000001156000000000116000000000011570000000001156000000000116200478000000000000101700000000000117993300000000000000009999123100000010000000000000BRTAEEACNPR6148
012024101802SHOW3       010TIME FOR FUNON      NM   R$  000000000009700000000000980000000000094000000000009500000000000940000000000094000000000009500265000000000000198600000000000018987000000000000000009999123100000010000000000000BRSHOWACNOR7105
012024101802SHUL4       010SCHULZ      PN           R$  000000000061700000000006190000000000611000000000061400000000006150000000000615000000000061700601000000000000329300000000000202295900000000000000009999123100000010000000000000BRSHULACNPR4157
012024101802SIMH3       010SIMPAR      ON      NM   R$  000000000050800000000005170000000000503000000000050700000000005110000000000509000000000051105104000000000002334100000000001184538000000000000000009999123100000010000000000000BRSIMHACNOR0107
012024101802SLCE3       010SLC AGRICOLAON      NM   R$  000000000172900000000017420000000001701000000000171100000000017050000000001705000000000170806092000000000001581600000000002706851400000000000000009999123100000010000000000000BRSLCEACNOR2125
012024101802VLID3       010VALID       ON      NM   R$  000000000227000000000023010000000002244000000000226800000000022680000000002268000000000227002344000000000000397100000000000900630200000000000000009999123100000010000000000000BRVLIDACNOR5144
012024101802VITT3       010VITTIA      ON      NM   R$  000000000055000000000005650000000000531000000000054600000000005350000000000535000000000053701163000000000000518200000000000283132300000000000000009999123100000010000000000000BRVITTACNOR4107
012024101802VIVA3       010VIVARA S.A. ON      NM   R$  000000000272400000000027240000000002602000000000263400000000026160000000002610000000000261608738000000000002371400000000006246660300000000000000009999123100000010000000000000BRVIVAACNOR0107
012024101802VIVR3       010VIVER       ON      NM   R$  000000000016900000000001710000000000168000000000016900000000001700000000000168000000000017000051000000000000030100000000000005088300000000000000009999123100000010000000000000BRVIVRACNOR4123
012024101802VIVT3       010TELEF BRASILON           R$  000000000547900000000054970000000005427000000000546200000000054810000000005474000000000548111346000000000001966700000000010742598100000000000000009999123100000010000000000000BRVIVTACNOR0184
012024101802SUZB3       010SUZANO S.A. ON      NM   R$  000000000552000000000055940000000005484000000000555000000000055770000000005571000000000557920876000000000005179600000000028750626300000000000000009999123100000010000000000000BRSUZBACNOR0130
012024101802VALE3       010VALE        ON      NM   R$  000000000611900000000061470000000006046000000000607300000000060550000000006055000000000605640006000000000021799000000000132391283000000000000000009999123100000010000000000000BRVALEACNOR0211
012024101802CURY3       010CURY S/A    ON      NM   R$  000000000233300000000023460000000002299000000000232400000000023400000000002321000000000234206107000000000001447000000000003363389100000000000000009999123100000010000000000000BRCURYACNOR3110
012024101802CVCB3       010CVC BRASIL  ON      NM   R$  000000000018500000000001870000000000182000000000018400000000001860000000000185000000000018605479000000000011137600000000002053055600000000000000009999123100000010000000000000BRCVCBACNOR1116
012024101802AZEV3       010AZEVEDO     ON           R$  000000000012900000000001310000000000126000000000012700000000001260000000000126000000000012700401000000000000402500000000000051514800000000000000009999123100000010000000000000BRAZEVACNOR0121
012024101802AZEV4       010AZEVEDO     PN           R$  000000000012800000000001300000000000124000000000012600000000001250000000000125000000000012600894000000000001143700000000000144288400000000000000009999123100000010000000000000BRAZEVACNPR7121
012024101802BEEF3       010MINERVA     ON      NM   R$  000000000054800000000005660000000000548000000000055800000000005620000000000561000000000056217912000000000014948900000000008351345600000000000000009999123100000010000000000000BRBEEFACNOR6116
012024101802BPAN4       010BANCO PAN   PN      N1   R$  000000000095100000000009540000000000918000000000092800000000009180000000000917000000000092002612000000000001027200000000000953559400000000000000009999123100000010000000000000BRBPANACNPR1115
012024101802BRAP3       010BRADESPAR   ON      N1   R$  000000000179600000000017960000000001773000000000177900000000017770000000001773000000000177700255000000000000053200000000000094684000000000000000009999123100000010000000000000BRBRAPACNOR5148
012024101802BRAP4       010BRADESPAR   PN      N1   R$  000000000192700000000019360000000001898000000000190900000000018980000000001898000000000190007504000000000002328900000000004446783000000000000000009999123100000010000000000000BRBRAPACNPR2148
012024101802BAHI3       010BAHEMA      ON      MA   R$  000000000050500000000005100000000000485000000000050100000000004990000000000486000000000049500008000000000000002500000000000001252900000000000000009999123100000010000000000000BRBAHIACNOR1074
012024101802BAZA3       010AMAZONIA    ON           R$  000000000900100000000090500000000008970000000000899800000000089700000000008952000000000898800018000000000000002300000000000020696800000000000000009999123100000010000000000000BRBAZAACNOR0179
012024101802BBAS3       010BRASIL      ON      NM   R$  000000000267700000000026970000000002663000000000267000000000026690000000002668000000000267132096000000000015933600000000042556064600000000000000009999123100000010000000000000BRBBASACNOR3326
012024101802CCRO3       010CCR SA      ON      NM   R$  000000000123500000000012370000000001206000000000121400000000012200000000001220000000000122111255000000000006979700000000008478528800000000000000009999123100000010000000000000BRCCROACNOR2145
012024101802CEAB3       010CEA MODAS   ON      NM   R$  000000000123500000000012370000000001197000000000121300000000012140000000001213000000000121408308000000000002677600000000003250437900000000000000009999123100000010000000000000BRCEABACNOR1102
012024101802CEBR3       010CEB         ON           R$  000000000183500000000018350000000001816000000000182000000000018160000000001816000000000185500011000000000000002500000000000004550100000000000000009999123100000010000000000000BRCEBRACNOR5125
012024101802CEBR6       010CEB         PNB          R$  000000000180200000000018020000000001755000000000176600000000017550000000001755000000000178000030000000000000008600000000000015187600000000000000009999123100000010000000000000BRCEBRACNPB6124
012024101802CEEB3       010COELBA      ON           R$  000000000398900000000040100000000003989000000000400700000000040100000000003838000000000415000004000000000000001600000000000006411900000000000000009999123100000010000000000000BRCEEBACNOR3200
012024101802CGRA3       010GRAZZIOTIN  ON           R$  000000000250000000000025000000000002500000000000250000000000025000000000002500000000000251500001000000000000000100000000000000250000000000000000009999123100000010000000000000BRCGRAACNOR2083
012024101802CGRA4       010GRAZZIOTIN  PN           R$  000000000251000000000025800000000002497000000000253600000000025690000000002525000000000257000019000000000000009800000000000024856200000000000000009999123100000010000000000000BRCGRAACNPR9083
012024101802HYPE3       010HYPERA      ON      NM   R$  000000000260000000000026040000000002535000000000255600000000025670000000002558000000000256916521000000000005964700000000015249663700000000000000009999123100000010000000000000BRHYPEACNOR0144
012024101802LUPA3       010LUPATECH    ON      NM   R$  000000000014200000000001420000000000139000000000014000000000001400000000000140000000000014100048000000000000036300000000000005082300000000000000009999123100000010000000000000BRLUPAACNOR8112
012024101802LVTC3       010WDC NETWORKSON      NM   R$  000000000037900000000003800000000000366000000000037300000000003700000000000370000000000037900032000000000000010500000000000003925000000000000000009999123100000010000000000000BRLVTCACNOR4102
012024101802LWSA3       010LWSA        ON      NM   R$  000000000043800000000004570000000000435000000000044600000000004500000000000450000000000045109836000000000008239700000000003679272200000000000000009999123100000010000000000000BRLWSAACNOR8103
012024101802MRVE3       010MRV         ON      NM   R$  000000000074100000000007490000000000716000000000072200000000007220000000000720000000000072212167000000000015357000000000011099015200000000000000009999123100000010000000000000BRMRVEACNOR2127
012024101802RAIL3       010RUMO S.A.   ON      NM   R$  000000000195000000000019500000000001899000000000191600000000019190000000001919000000000192033730000000000016260400000000031169369000000000000000009999123100000010000000000000BRRAILACNOR9105
012024101802SBFG3       010GRUPO SBF   ON      NM   R$  000000000136100000000013710000000001310000000000134300000000013630000000001363000000000137214547000000000004949200000000006647637800000000000000009999123100000010000000000000BRSBFGACNOR1103
012024101802SBSP3       010SABESP      ON      NM   R$  000000000929600000000093080000000009109000000000917500000000091090000000009109000000000911722437000000000010542300000000096734632000000000000000009999123100000010000000000000BRSBSPACNOR5161
012024101802PETR4       010PETROBRAS   PN      N2   R$  000000000369800000000037070000000003641000000000366700000000036830000000003681000000000368336441000000000031978400000000117287048000000000000000009999123100000010000000000000BRPETRACNPR6214
012024101802PETZ3       010PETZ        ON      NM   R$  000000000049900000000005010000000000489000000000049400000000004940000000000494000000000049504546000000000004375400000000002161608000000000000000009999123100000010000000000000BRPETZACNOR2110
012024101802RADL3       010RAIADROGASILON      NM   R$  000000000254600000000025460000000002475000000000249800000000025160000000002505000000000251610864000000000006766400000000016904557100000000000000009999123100000010000000000000BRRADLACNOR0158
012024101802KRSA3       010KORA SAUDE  ON  EG  NM   R$  000000000046500000000004800000000000459000000000047100000000004720000000000471000000000047300049000000000000028800000000000013570200000000000000009999123100000010000000000000BRKRSAACNOR0101
012024101802LAND3       010TERRASANTAPAON      NM   R$  000000000134600000000013630000000001337000000000135300000000013620000000001350000000000136200284000000000000034900000000000047239500000000000000009999123100000010000000000000BRLANDACNOR9103
012024101802LAVV3       010LAVVI       ON      NM   R$  000000000082200000000008260000000000808000000000081400000000008170000000000817000000000082202060000000000000541600000000000441357900000000000000009999123100000010000000000000BRLAVVACNOR4113
012024101802LEVE3       010METAL LEVE  ON      NM   R$  000000000303000000000030480000000003015000000000302300000000030280000000003017000000000302801619000000000000277300000000000838493600000000000000009999123100000010000000000000BRLEVEACNOR2197
012024101802LJQQ3       010QUERO-QUERO ON      NM   R$  000000000030100000000003040000000000284000000000029100000000002850000000000285000000000028605194000000000005801600000000001691216700000000000000009999123100000010000000000000BRLJQQACNOR5104
012024101802LOGG3       010LOG COM PROPON      NM   R$  000000000225300000000022530000000002199000000000222000000000021990000000002199000000000221400995000000000000126500000000000280890300000000000000009999123100000010000000000000BRLOGGACNOR7107
012024101802LOGN3       010LOG-IN      ON      NM   R$  000000000300500000000030500000000002960000000000300500000000030500000000002993000000000305000134000000000000016600000000000049885400000000000000009999123100000010000000000000BRLOGNACNOR3105
012024101802HBOR3       010HELBOR      ON      NM   R$  000000000019300000000001950000000000186000000000019000000000001890000000000188000000000018901008000000000000571400000000000108758500000000000000009999123100000010000000000000BRHBORACNOR3118
012024101802HBRE3       010HBR REALTY  ON      NM   R$  000000000046100000000004670000000000450000000000045600000000004520000000000452000000000045301047000000000000526800000000000240380600000000000000009999123100000010000000000000BRHBREACNOR4100
012024101802HBSA3       010HIDROVIAS   ON      NM   R$  000000000033300000000003360000000000330000000000033300000000003350000000000333000000000033601881000000000001714100000000000571111000000000000000009999123100000010000000000000BRHBSAACNOR0101
012024101802ITUB3       010ITAUUNIBANCOON      N1   R$  000000000305500000000030720000000003030000000000304800000000030490000000003049000000000305901826000000000000328400000000001000976800000000000000009999123100000010000000000000BRITUBACNOR4342
012024101802ITUB4       010ITAUUNIBANCOPN      N1   R$  000000000352000000000035380000000003502000000000351800000000035280000000003527000000000352924296000000000015607200000000054919166500000000000000009999123100000010000000000000BRITUBACNPR1342
012024101802MRFG3       010MARFRIG     ON      NM   R$  000000000140300000000014640000000001394000000000144300000000014550000000001454000000000145527012000000000012109700000000017476409600000000000000009999123100000010000000000000BRMRFGACNOR0116
012024101802PDGR3       010PDG REALT   ON      NM   R$  000000000000100000000000020000000000001000000000000100000000000010000000000001000000000000200610000000000040097700000000000042002700000000000000009999123100000010000000000000BRPDGRACNOR8119
012024101802PDTC3       010PADTEC      ON      NM   R$  000000000018700000000001880000000000184000000000018500000000001870000000000184000000000018700032000000000000012400000000000002300500000000000000009999123100000010000000000000BRPDTCACNOR3101
012024101802PETR3       010PETROBRAS   ON      N2   R$  000000000407000000000040790000000004009000000000402800000000040370000000004037000000000403812413000000000005813200000000023418604600000000000000009999123100000010000000000000BRPETRACNOR9206
012024101802GUAR3       010GUARARAPES  ON      NM   R$  000000000080600000000008150000000000797000000000080700000000008150000000000810000000000081602026000000000000538700000000000434770400000000000000009999123100000010000000000000BRGUARACNOR4173
012024101807NUTR3       010NUTRIPLANT  ON      MA   R$  000000000045200000000004620000000000451000000000045500000000004620000000000455000000000046200014000000000000001400000000000000637500000000000000009999123100000010000000000000BRNUTRACNOR0104
012024101807SEQL3       010SEQUOIA LOG ON      NM   R$  000000000032600000000003790000000000326000000000035600000000003500000000000350000000000035402709000000000002188200000000000779690700000000000000009999123100000010000000000000BRSEQLACNOR2103
012024101808AMER3       010AMERICANAS  ON      NM   R$  000000000039400000000003940000000000384000000000038700000000003850000000000385000000000038601452000000000001269000000000000492350600000000000000009999123100000010000000000000BRAMERACNOR6103
012024101808RNEW11      010RENOVA      UNT     N2   R$  000000000037500000000003900000000000369000000000037600000000003700000000000366000000000037700043000000000000010100000000000003804000000000000000009999123100000010000000000000BRRNEWCDAM15110
012024101808RNEW3       010RENOVA      ON      N2   R$  000000000012500000000001270000000000120000000000012200000000001220000000000122000000000012300158000000000000141500000000000017384200000000000000009999123100000010000000000000BRRNEWACNOR8110
012024101808RNEW4       010RENOVA      PN      N2   R$  000000000012800000000001290000000000122000000000012400000000001250000000000123000000000012500221000000000000171800000000000021360300000000000000009999123100000010000000000000BRRNEWACNPR5110
012024101808RPMG3       010PET MANGUINHON           R$  000000000030600000000003070000000000285000000000029900000000002990000000000299000000000030400092000000000000034200000000000010235700000000000000009999123100000010000000000000BRRPMGACNOR9194
012024101808RSID3       010ROSSI RESID ON      NM   R$  000000000032600000000003330000000000314000000000031900000000003200000000000314000000000032000101000000000000026400000000000008436300000000000000009999123100000010000000000000BRRSIDACNOR8120
012024101808OIBR3       010OI          ON      N1   R$  000000000044300000000004460000000000433000000000043900000000004350000000000435000000000043600412000000000000220700000000000097067500000000000000009999123100000010000000000000BROIBRACNOR1112
012024101808OIBR4       010OI          PN      N1   R$  000000000103000000000010630000000001025000000000104300000000010250000000001015000000000104400008000000000000000800000000000000834900000000000000009999123100000010000000000000BROIBRACNPR8111
012024101808OSXB3       010OSX BRASIL  ON      NM   R$  000000000048000000000004800000000000454000000000046200000000004600000000000455000000000046800013000000000000002200000000000001016800000000000000009999123100000010000000000000BROSXBACNOR8109
012024101808JFEN3       010JOAO FORTES ON           R$  000000000002900000000000310000000000028000000000002900000000000280000000000028000000000002900356000000000002428500000000000071153900000000000000009999123100000010000000000000BRJFENACNOR0059
012024101808PMAM3       010PARANAPANEMAON      NM   R$  000000000012700000000001280000000000123000000000012500000000001240000000000124000000000012600081000000000000036500000000000004566700000000000000009999123100000010000000000000BRPMAMACNOR3040
012024101808CTSA3       010SANTANENSE  ON           R$  000000000021400000000002140000000000214000000000021400000000002140000000000214000000000024400005000000000000000900000000000000192600000000000000009999123100000010000000000000BRCTSAACNOR3062
012024101808AGXY3       010AGROGALAXY  ON      NM   R$  000000000005300000000000530000000000051000000000005200000000000530000000000052000000000005300190000000000000105200000000000005503800000000000000009999123100000010000000000000BRAGXYACNOR4103
012024101808ATMP3       010ATMASA      ON           R$  000000000014000000000001410000000000138000000000014000000000001410000000000139000000000014100010000000000000003000000000000000421600000000000000009999123100000010000000000000BRATMPACNOR8100
012024101808NEXP3       010NEXPE       ON           R$  000000000043500000000004350000000000435000000000043500000000004350000000000408000000000043500001000000000000000100000000000000043500000000000000009999123100000010000000000000BRNEXPACNOR0101
012024101808CTSA4       010SANTANENSE  PN           R$  000000000011100000000001110000000000111000000000011100000000001110000000000110000000000011100012000000000000005200000000000000577200000000000000009999123100000010000000000000BRCTSAACNPR0062
012024101808HOOT4       010HOTEIS OTHONPN           R$  000000000022400000000002300000000000224000000000022700000000002290000000000225000000000022700009000000000000003000000000000000681400000000000000009999123100000010000000000000BRHOOTACNPR9015
012024101808LIGT3       010LIGHT S/A   ON      NM   R$  000000000063200000000006640000000000627000000000064700000000006360000000000636000000000064103319000000000000954900000000000618017600000000000000009999123100000010000000000000BRLIGTACNOR2124
012024101810PINE1       010PINE        DIR ORD N2   R$  000000000012300000000001230000000000095000000000010600000000001230000000000109000000000012300092000000000000016200000000000001728200000000000000009999123100000010000000000000BRPINED04OR0150
012024101810PINE2       010PINE        DIR PRE N2   R$  000000000007000000000001030000000000070000000000009500000000000900000000000083000000000009000018000000000000003800000000000000363300000000000000009999123100000010000000000000BRPINED06PR2150
012024101810PMAM1       010PARANAPANEMADIR ORD NM   R$  000000000000100000000000010000000000001000000000000100000000000010000000000000000000000000100229000000000000405400000000000000405400000000000000009999123100000010000000000000BRPMAMD05OR9039
012024101810CBEE1       010AMPLA ENERG DIR ORD      R$  000000000003700000000000370000000000037000000000003700000000000370000000000037000000000010000002000000000000000500000000000000018500000000000000009999123100000010000000000000BRCBEED07OR5159
012024101810HBSA1       010HIDROVIAS   DIR ORD NM   R$  000000000000300000000000030000000000002000000000000200000000000030000000000002000000000000300069000000000001084600000000000002882900000000000000009999123100000010000000000000BRHBSAD01OR5100
012024101812CLIN11      010FII CLAVE INCI  ER       R$  000000000909200000000093350000000009092000000000922900000000093270000000009285000000000932703973000000000000018942000000000174829439000000000000009999123100000010000000000000BRCLINCTF007112
012024101812EGYR11      010FII ENERGY  CI           R$  000000000035500000000003550000000000325000000000033700000000003300000000000327000000000033500016000000000000000026000000000000008787000000000000009999123100000010000000000000BREGYRCTF001102
012024101812HCHG11      010FII HECT CRICI           R$  000000000672000000000068350000000006720000000000681900000000068050000000006800000000000683400027000000000000001066000000000007269453000000000000009999123100000010000000000000BRHCHGCTF001141
012024101812HCRI11      010FII CRIANCA CI  ER       R$  000000002734900000000274990000000027100000000002728700000000272290000000027131000000002730000065000000000000000159000000000004338677000000000000009999123100000010000000000000BRHCRICTF006333
012024101812HCTR11      010FII HECTARE CI           R$  000000000286600000000028830000000002866000000000287200000000028760000000002870000000000287601394000000000000025267000000000072573856000000000000009999123100000010000000000000BRHCTRCTF003174
012024101812BICR11      010FII INTER   CI           R$  000000000362900000000036290000000003515000000000361900000000036290000000003628000000000391800006000000000000000013000000000000047057000000000000009999123100000010000000000000BRBICRCTF009156
012024101812BIME11      010FII BRIO ME CI           R$  000000000072400000000007290000000000722000000000072600000000007280000000000727000000000072800124000000000000004261000000000003095863000000000000009999123100000010000000000000BRBIMECTF006136
012024101812HFOF11      010FII HTOPFOF3CI           R$  000000000630000000000063000000000006230000000000624500000000062950000000006243000000000629507525000000000000049329000000000308101943000000000000009999123100000010000000000000BRHFOFCTF002193
012024101812HGBL11      010FII HGBL    CI           R$  000000000103200000000010320000000001022000000000102900000000010300000000001025000000000103000124000000000000002034000000000002094924000000000000009999123100000010000000000000BRHGBLCTF005109
012024101812HGBS11      010FII HEDGEBS CI           R$  000000002017100000000202240000000020125000000002014400000000201900000000020150000000002019003834000000000000011670000000000235087498000000000000009999123100000010000000000000BRHGBSCTF000314
012024101812HGCR11      010FII HGCR PAXCI           R$  000000001000100000000100460000000010000000000001002300000000100070000000010007000000001004101908000000000000022953000000000230076018000000000000009999123100000010000000000000BRHGCRCTF000250
012024101812HGFF11      010FII HGFF PAXCI           R$  000000000763800000000076880000000007633000000000764900000000076880000000007638000000000768800762000000000000003546000000000027123451000000000000009999123100000010000000000000BRHGFFCTF008164
012024101812HGIC11      010FII HGI CRI CI           R$  000000000960000000000096000000000009570000000000959600000000095700000000009570000000000960000007000000000000000008000000000000076770000000000000009999123100000010000000000000BRHGICCTF009144
012024101812HGLG11      010FII HGLG PAXCI           R$  000000001567500000000156910000000015630000000001567400000000156820000000015670000000001568207152000000000000035572000000000557589158000000000000009999123100000010000000000000BRHGLGCTF004275
012024101812HGPO11      010FII HGPO PAXCI           R$  000000003006100000000302000000000030050000000003010400000000301500000000030150000000003020000122000000000000002329000000000070112625000000000000009999123100000010000000000000BRHGPOCTF009165
012024101812HGRE11      010FII HGRE PAXCI           R$  000000001040300000000105500000000010403000000001045900000000104430000000010421000000001044302427000000000000013014000000000136116905000000000000009999123100000010000000000000BRHGRECTF006296
012024101812HGRU11      010FII HGRU PAXCI           R$  000000001210000000000122400000000012064000000001216800000000122400000000012230000000001224003196000000000000021153000000000257408934000000000000009999123100000010000000000000BRHGRUCTF002181
012024101812HLOG11      010FII HEDGELOGCI           R$  000000000849700000000085680000000008497000000000850100000000085360000000008497000000000853700081000000000000001042000000000008858978000000000000009999123100000010000000000000BRHLOGCTF008160
012024101812HOFC11      010FII HOFFICEICI           R$  000000000258900000000025900000000002537000000000256000000000025370000000002537000000000262300027000000000000003844000000000009841264000000000000009999123100000010000000000000BRHOFCCTF009115
012024101812BLCA11      010FII BLUE AAACI  ER       R$  000000000986000000000099500000000009860000000000992700000000098600000000009900000000000998600014000000000000000141000000000001399788000000000000009999123100000010000000000000BRBLCACTF009135
012024101812BLMG11      010FII BLUE LOGCI           R$  000000000355300000000035700000000003518000000000353200000000035190000000003519000000000352001144000000000000022036000000000077834834000000000000009999123100000010000000000000BRBLMGCTF005151
012024101812BLMO11      010FII BLUEMAC CI           R$  000000000809900000000081000000000007902000000000800600000000080990000000007901000000000810000008000000000000000059000000000000472354000000000000009999123100000010000000000000BRBLMOCTF009135
012024101812BLOG11      010FII BLOG    CI  ER       R$  000000000105000000000010500000000001050000000000105000000000010500000000001020000000000105000005000000000000000195000000000000204750000000000000009999123100000010000000000000BRBLOGCTF001105
012024101812BMLC11      010FII BMBRC LCCI           R$  000000000970000000000099940000000009500000000000975600000000098500000000009691000000000985000021000000000000000770000000000007512734000000000000009999123100000010000000000000BRBMLCCTF004255
012024101812ABCP11      010FII ABC IMOBCI           R$  000000000746100000000076000000000007461000000000756900000000076000000000007525000000000760000111000000000000000795000000000006017619000000000000009999123100000010000000000000BRABCPCTF000343
012024101812HAAA11      010FII HEDGEAAACI           R$  000000000360700000000036070000000003527000000000356900000000035360000000003531000000000399700017000000000000000157000000000000560370000000000000009999123100000010000000000000BRHAAACTF003147
012024101812HABT11      010FII HABIT IICI           R$  000000000817200000000082500000000008154000000000819700000000082250000000008225000000000823502415000000000000009874000000000080944238000000000000009999123100000010000000000000BRHABTCTF001164
012024101812KNCR11      010FII KINEA RICI  ES       R$  000000001042300000000104380000000010402000000001041700000000104050000000010405000000001042013735000000000000105037000000001094230497000000000000009999123100000010000000000000BRKNCRCTF000245
012024101812KNCR12      010FII KINEA RIDIR          R$  000000000004400000000000500000000000020000000000003100000000000200000000000020000000000002500074000000000000008989000000000000281828000000000000009999123100000010000000000000BRKNCRD02M15244
012024101812KNHF11      010FII KINEA HFCI           R$  000000000897900000000090030000000008950000000000898300000000089910000000008991000000000899203693000000000000047891000000000430215290000000000000009999123100000010000000000000BRKNHFCTF004115
012024101812KNHY11      010FII KINEA HYCI           R$  000000001033900000000103820000000010320000000001035400000000103720000000010350000000001037203757000000000000043437000000000449773011000000000000009999123100000010000000000000BRKNHYCTF005176
012024101812KNIP11      010FII KINEA IPCI           R$  000000000917500000000092000000000009155000000000918100000000091900000000009188000000000919010010000000000000412339000000003785954493000000000000009999123100000010000000000000BRKNIPCTF001197
012024101812KNRE11      010FII KII REALCI           R$  000000000002400000000000250000000000022000000000002300000000000230000000000024000000000002500019000000000000002403000000000000057381000000000000009999123100000010000000000000BRKNRECTF006129
012024101812ALZC11      010FII ALIANZACCI  ER       R$  000000000919600000000094990000000009180000000000948100000000094990000000009175000000000949900008000000000000000105000000000000995561000000000000009999123100000010000000000000BRALZCCTF016108
012024101812ALZM11      010FII ALIANZMECI  ER       R$  000000000072600000000007350000000000725000000000072900000000007310000000000730000000000073100295000000000000009013000000000006575411000000000000009999123100000010000000000000BRALZMCTF007127
012024101812ALZR11      010FII ALIANZA CI           R$  000000001040000000000104600000000010398000000001042500000000104260000000010410000000001042602713000000000000023213000000000242011582000000000000009999123100000010000000000000BRALZRCTF006186
012024101812BBFI11      010FII BB PROGRCI           R$  000000003850000000000400000000000038100000000003842300000000381110000000038111000000003901800046000000000000000195000000000007492509000000000000009999123100000010000000000000BRBBFICTF006329
012024101812BBFO11      010FII BB FOF  CI           R$  000000000665000000000066500000000006591000000000664100000000066500000000006630000000000665000071000000000000001210000000000008035997000000000000009999123100000010000000000000BRBBFOCTF004145
012024101812BBIG11      010FII BBIG    CI           R$  000000000093200000000009490000000000932000000000094300000000009460000000000942000000000094600740000000000000110095000000000103823049000000000000009999123100000010000000000000BRBBIGCTF004105
012024101812BBRC11      010FII BB CORP CI           R$  000000001119800000000112960000000010801000000001098100000000109970000000010960000000001099700320000000000000001819000000000019974839000000000000009999123100000010000000000000BRBBRCCTF004257
012024101812EDFO11      010FII OURINVESCI           R$  000000001600100000000160010000000016000000000001600000000000160000000000015900000000001600000002000000000000000008000000000000128001000000000000009999123100000010000000000000BREDFOCTF004327
012024101812EDGA11      010FII GALERIA CI           R$  000000000182800000000018280000000001781000000000180600000000018190000000001807000000000182000035000000000000001181000000000002133101000000000000009999123100000010000000000000BREDGACTF001245
012024101812BTAL11      010FII BTG AGROCI  ER       R$  000000000720400000000072480000000007100000000000719500000000072080000000007106000000000720800822000000000000007489000000000053890021000000000000009999123100000010000000000000BRBTALCTF003144
012024101812BTCI11      010FII BTG CRI CI           R$  000000000095500000000009580000000000920000000000094300000000009490000000000948000000000094911746000000000000216216000000000204101209000000000000009999123100000010000000000000BRBTCICTF005124
012024101812CPLG11      010FII CPLG    CI           R$  000000000106900000000010690000000001069000000000106900000000010690000000001000000000000107000001000000000000000001000000000000001069000000000000009999123100000010000000000000BRCPLGCTF006101
012024101812CPSH11      010FII CPSH    CI  ER       R$  000000000098400000000009900000000000971000000000097900000000009900000000000983000000000099004162000000000000078965000000000077312867000000000000009999123100000010000000000000BRCPSHCTF017118
012024101812CPTS11      010FII CAPI SECCI  ER       R$  000000000077400000000007780000000000772000000000077400000000007770000000000775000000000077728932000000000001303522000000001009852485000000000000009999123100000010000000000000BRCPTSCTF004235
012024101812CRFF11      010FII CX RBRA2CI           R$  000000000784200000000078420000000007510000000000756100000000077970000000007510000000000775000011000000000000000230000000000001739210000000000000009999123100000010000000000000BRCRFFCTF006165
012024101812DEVA11      010FII DEVANT  CI           R$  000000000348500000000035050000000003457000000000347900000000034640000000003460000000000346400928000000000000023042000000000080179210000000000000009999123100000010000000000000BRDEVACTF000153
012024101812CACR11      010CARTESIA FIICI           R$  000000001007600000000101970000000010015000000001011200000000101240000000010061000000001012401712000000000000021776000000000220199483000000000000009999123100000010000000000000BRCACRCTF004137
012024101812CARE11      010FII DEA CARECI           R$  000000000014000000000001450000000000135000000000014000000000001400000000000140000000000014100114000000000000007238000000000001014039000000000000009999123100000010000000000000BRCARECTF000112
012024101812BROF11      010FII BROF    CI  ER       R$  000000000458500000000046870000000004566000000000461400000000046300000000004620000000000463000820000000000000004941000000000022800264000000000000009999123100000010000000000000BRBROFCTF000118
012024101812APTO11      010FII NAVI RSDCI           R$  000000000095600000000009610000000000950000000000095600000000009590000000000957000000000095900149000000000000001723000000000001648362000000000000009999123100000010000000000000BRAPTOCTF007135
012024101812APXM11      010FII APEX MS CI  ER       R$  000000000950600000000102000000000009506000000001015300000000101500000000009511000000001000000018000000000000000110000000000001116935000000000000009999123100000010000000000000BRAPXMCTF003115
012024101812AROA11      010FII AROA    CI           R$  000000000011400000000001150000000000104000000000011000000000001070000000000107000000000011100226000000000000016047000000000001766169000000000000009999123100000010000000000000BRAROACTF003122
012024101812ARRI11      010FII ATRIO   CI           R$  000000000085500000000008610000000000840000000000084900000000008510000000000848000000000085101750000000000000062327000000000052942541000000000000009999123100000010000000000000BRARRICTF009165
012024101812ARXD11      010FII ARXD R  CI           R$  000000000905000000000090800000000008900000000000895000000000089490000000008805000000000908001031000000000000002802000000000025077958000000000000009999123100000010000000000000BRARXDCTF008119
