00COTAHIST.2024BOVESPA 20241001                                                                                                                                                                                                                      
012024100102ITSA3       010ITAUSA      ON  EJ  N1   R$  000000000110700000000011070000000001079000000000109200000000010850000000001084000000000109300813000000000000432400000000000472459900000000000000009999123100000010000000000000BRITSAACNOR0443
012024100102ITSA4       010ITAUSA      PN  EJ  N1   R$  000000000110900000000011130000000001088000000000109600000000010890000000001088000000000109032055000000000025694400000000028176270300000000000000009999123100000010000000000000BRITSAACNPR7443
012024100102LVTC3       010WDC NETWORKSON      NM   R$  000000000039900000000004020000000000385000000000038900000000003870000000000387000000000039000034000000000000012700000000000004951500000000000000009999123100000010000000000000BRLVTCACNOR4102
012024100102LWSA3       010LWSA        ON      NM   R$  000000000042200000000004260000000000415000000000041900000000004160000000000416000000000041806677000000000003464000000000001452227800000000000000009999123100000010000000000000BRLWSAACNOR8103
012024100102MATD3       010MATER DEI   ON      NM   R$  000000000043400000000004460000000000431000000000043600000000004420000000000441000000000044302471000000000000745200000000000325425700000000000000009999123100000010000000000000BRMATDACNOR4104
012024100102MBLY3       010MOBLY       ON      NM   R$  000000000026600000000002700000000000258000000000026000000000002580000000000257000000000026100210000000000000404000000000000105394500000000000000009999123100000010000000000000BRMBLYACNOR5100
012024100102MDIA3       010M.DIASBRANCOON      NM   R$  000000000256300000000025750000000002491000000000251700000000025150000000002515000000000252404460000000000000909600000000002289710500000000000000009999123100000010000000000000BRMDIAACNOR7136
012024100102MDNE3       010MOURA DUBEUXON      NM   R$  000000000140700000000014520000000001407000000000143400000000014430000000001438000000000144403253000000000000707300000000001014912300000000000000009999123100000010000000000000BRMDNEACNOR9100
012024100102MEAL3       010IMC S/A     ON      NM   R$  000000000013600000000001360000000000128000000000013100000000001300000000000129000000000013001841000000000000530000000000000069779600000000000000009999123100000010000000000000BRMEALACNOR9105
012024100102MELK3       010MELNICK     ON      NM   R$  000000000034500000000003530000000000342000000000034800000000003530000000000350000000000035300853000000000000612900000000000213730400000000000000009999123100000010000000000000BRMELKACNOR8111
012024100102MGLU3       010MAGAZ LUIZA ON      NM   R$  000000000097800000000009930000000000960000000000097200000000009720000000000971000000000097227947000000000021681100000000021091451500000000000000009999123100000010000000000000BRMGLUACNOR2125
012024100102ANIM3       010ANIMA       ON      NM   R$  000000000023500000000002530000000000228000000000024000000000002360000000000235000000000023616552000000000014978200000000003605647200000000000000009999123100000010000000000000BRANIMACNOR6109
012024100102BRAV3       010BRAVA       ON      NM   R$  000000000175000000000018530000000001742000000000180200000000017960000000001796000000000179719928000000000014160900000000025525263900000000000000009999123100000010000000000000BRBRAVACNOR3100
012024100102ELET3       010ELETROBRAS  ON      N1   R$  000000000397900000000039950000000003922000000000395000000000039280000000003928000000000393617360000000000005318600000000021008695500000000000000009999123100000010000000000000BRELETACNOR6160
012024100102ELET6       010ELETROBRAS  PNB     N1   R$  000000000440900000000044270000000004351000000000438200000000043580000000004358000000000436004308000000000000693800000000003040270200000000000000009999123100000010000000000000BRELETACNPB7077
012024100102HBOR3       010HELBOR      ON      NM   R$  000000000018900000000001950000000000187000000000019100000000001900000000000190000000000019100973000000000000500600000000000095679600000000000000009999123100000010000000000000BRHBORACNOR3118
012024100102HBRE3       010HBR REALTY  ON      NM   R$  000000000047600000000004850000000000475000000000047800000000004770000000000477000000000048001352000000000000437000000000000209157200000000000000009999123100000010000000000000BRHBREACNOR4100
012024100102HBSA3       010HIDROVIAS   ON      NM   R$  000000000034100000000003470000000000337000000000034000000000003380000000000338000000000033902903000000000003961800000000001347264800000000000000009999123100000010000000000000BRHBSAACNOR0100
012024100102SANB11      010SANTANDER BRUNT          R$  000000000284000000000028730000000002818000000000285300000000028560000000002853000000000285707196000000000001794200000000005119841700000000000000009999123100000010000000000000BRSANBCDAM13165
012024100102SANB3       010SANTANDER BRON           R$  000000000135200000000013720000000001343000000000135800000000013700000000001363000000000137000386000000000000063700000000000086526700000000000000009999123100000010000000000000BRSANBACNOR8172
012024100102SANB4       010SANTANDER BRPN           R$  000000000148600000000015000000000001470000000000148800000000014750000000001475000000000147700581000000000000092200000000000137217000000000000000009999123100000010000000000000BRSANBACNPR5172
012024100102TTEN3       0103TENTOS     ON      NM   R$  000000000112800000000011410000000001100000000000111500000000011040000000001104000000000110505731000000000001093900000000001219745500000000000000009999123100000010000000000000BRTTENACNOR0103
012024100102TUPY3       010TUPY        ON      NM   R$  000000000257100000000025800000000002528000000000254400000000025300000000002530000000000254402798000000000000391500000000000996302700000000000000009999123100000010000000000000BRTUPYACNOR1184
012024100102GEPA4       010GER PARANAP PN           R$  000000000290000000000029600000000002900000000000292900000000029600000000002938000000000299400007000000000000001000000000000002929900000000000000009999123100000010000000000000BRGEPAACNPR9160
012024100102GFSA3       010GAFISA      ON      NM   R$  000000000022500000000002270000000000222000000000022400000000002240000000000223000000000022401218000000000002050000000000000461041100000000000000009999123100000010000000000000BRGFSAACNOR3125
012024100102GGBR3       010GERDAU      ON      N1   R$  000000000168000000000017050000000001680000000000169400000000016900000000001685000000000169700329000000000000053400000000000090464500000000000000009999123100000010000000000000BRGGBRACNOR1193
012024100102GGBR4       010GERDAU      PN      N1   R$  000000000192100000000019300000000001906000000000191800000000019130000000001911000000000191927834000000000011670700000000022387406100000000000000009999123100000010000000000000BRGGBRACNPR8193
012024100102ITUB3       010ITAUUNIBANCOON  EJ  N1   R$  000000000314100000000031490000000003077000000000310000000000030890000000003089000000000309202371000000000000472700000000001465434200000000000000009999123100000010000000000000BRITUBACNOR4342
012024100102ITUB4       010ITAUUNIBANCOPN  EJ  N1   R$  000000000362600000000036310000000003543000000000357400000000035500000000003549000000000355345879000000000026606300000000095099454400000000000000009999123100000010000000000000BRITUBACNPR1342
012024100102ATOM3       010ATOMPAR     ON           R$  000000000024900000000002600000000000249000000000025200000000002510000000000251000000000025800029000000000000011600000000000002923700000000000000009999123100000010000000000000BRATOMACNOR1106
012024100102AURE3       010AUREN       ON      NM   R$  000000000104600000000010540000000001038000000000104700000000010480000000001048000000000105406393000000000003620500000000003791333700000000000000009999123100000010000000000000BRAUREACNOR9104
012024100102UCAS3       010UNICASA     ON      NM   R$  000000000021800000000002200000000000216000000000021700000000002200000000000218000000000022000061000000000000015200000000000003300900000000000000009999123100000010000000000000BRUCASACNOR1113
012024100102UGPA3       010ULTRAPAR    ON      NM   R$  000000000214800000000021620000000002121000000000214200000000021400000000002140000000000214112707000000000004362000000000009347174300000000000000009999123100000010000000000000BRUGPAACNOR8156
012024100102UNIP3       010UNIPAR      ON           R$  000000000464300000000046550000000004512000000000458700000000045490000000004549000000000459200136000000000000015800000000000072481200000000000000009999123100000010000000000000BRUNIPACNOR7206
012024100102UNIP5       010UNIPAR      PNA          R$  000000000470200000000047390000000004642000000000465600000000046500000000004600000000000465000010000000000000001300000000000006053500000000000000009999123100000010000000000000BRUNIPACNPA0208
012024100102UNIP6       010UNIPAR      PNB          R$  000000000466900000000046690000000004543000000000459500000000045670000000004565000000000456702682000000000000433000000000001989814200000000000000009999123100000010000000000000BRUNIPACNPB8206
012024100102USIM3       010USIMINAS    ON      N1   R$  000000000060200000000006120000000000596000000000060300000000006020000000000602000000000060800709000000000000291200000000000175770700000000000000009999123100000010000000000000BRUSIMACNOR3167
012024100102USIM5       010USIMINAS    PNA     N1   R$  000000000062000000000006330000000000616000000000062500000000006240000000000623000000000062508687000000000008161400000000005108203700000000000000009999123100000010000000000000BRUSIMACNPA6169
012024100102VBBR3       010VIBRA       ON  EJ  NM   R$  000000000234100000000023580000000002320000000000233600000000023280000000002327000000000233515806000000000003818600000000008922671700000000000000009999123100000010000000000000BRVBBRACNOR1109
012024100102VITT3       010VITTIA      ON      NM   R$  000000000057500000000005820000000000564000000000057100000000005660000000000565000000000056602253000000000000350700000000000200480200000000000000009999123100000010000000000000BRVITTACNOR4107
012024100102VIVA3       010VIVARA S.A. ON      NM   R$  000000000270900000000027940000000002709000000000276700000000027580000000002758000000000276017911000000000003580700000000009910821300000000000000009999123100000010000000000000BRVIVAACNOR0107
012024100102VIVR3       010VIVER       ON      NM   R$  000000000018100000000001860000000000177000000000018000000000001820000000000180000000000018200092000000000000068500000000000012395600000000000000009999123100000010000000000000BRVIVRACNOR4123
012024100102VIVT3       010TELEF BRASILON           R$  000000000560400000000056720000000005550000000000559500000000055570000000005557000000000558513264000000000003050600000000017068815100000000000000009999123100000010000000000000BRVIVTACNOR0184
012024100102PDGR3       010PDG REALT   ON      NM   R$  000000000000200000000000020000000000001000000000000100000000000020000000000001000000000000201115000000000021755200000000000041292100000000000000009999123100000010000000000000BRPDGRACNOR8119
012024100102PDTC3       010PADTEC      ON      NM   R$  000000000018300000000001880000000000182000000000018300000000001830000000000183000000000018500033000000000000022400000000000004103800000000000000009999123100000010000000000000BRPDTCACNOR3101
012024100102PETR3       010PETROBRAS   ON      N2   R$  000000000392400000000040700000000003896000000000401700000000040320000000004031000000000403327793000000000011968600000000048081912600000000000000009999123100000010000000000000BRPETRACNOR9206
012024100102PETR4       010PETROBRAS   PN      N2   R$  000000000360100000000037520000000003583000000000369200000000036970000000003697000000000369862148000000000049748200000000183705819000000000000000009999123100000010000000000000BRPETRACNPR6214
012024100102PFRM3       010PROFARMA    ON      NM   R$  000000000055300000000005650000000000549000000000055600000000005500000000000549000000000055001108000000000000230100000000000128042100000000000000009999123100000010000000000000BRPFRMACNOR1116
012024100102PGMN3       010PAGUE MENOS ON      NM   R$  000000000026200000000002680000000000262000000000026500000000002670000000000265000000000026701201000000000000656900000000000174487900000000000000009999123100000010000000000000BRPGMNACNOR8103
012024100102PINE3       010PINE        ON      N2   R$  000000000053800000000006160000000000535000000000056400000000005850000000000585000000000059900063000000000000016700000000000009430600000000000000009999123100000010000000000000BRPINEACNOR1150
012024100102PINE4       010PINE        PN      N2   R$  000000000047800000000004810000000000475000000000047700000000004790000000000477000000000047900378000000000000156900000000000074984900000000000000009999123100000010000000000000BRPINEACNPR8150
012024100102BPAN4       010BANCO PAN   PN      N1   R$  000000000099000000000010110000000000945000000000096100000000009500000000000950000000000095212395000000000009672000000000009295115900000000000000009999123100000010000000000000BRBPANACNPR1115
012024100102BRAP3       010BRADESPAR   ON      N1   R$  000000000186500000000018840000000001855000000000186900000000018660000000001864000000000187000399000000000000077400000000000144704400000000000000009999123100000010000000000000BRBRAPACNOR5148
012024100102BRAP4       010BRADESPAR   PN      N1   R$  000000000201600000000020420000000002012000000000202800000000020230000000002023000000000202707530000000000003274000000000006642428100000000000000009999123100000010000000000000BRBRAPACNPR2148
012024100102CPFE3       010CPFL ENERGIAON      NM   R$  000000000339300000000034200000000003362000000000338600000000033860000000003385000000000339308861000000000003395200000000011498192000000000000000009999123100000010000000000000BRCPFEACNOR0137
012024100102PLPL3       010PLANOEPLANO ON      NM   R$  000000000123700000000012870000000001237000000000127100000000012730000000001265000000000127302654000000000000539600000000000686126400000000000000009999123100000010000000000000BRPLPLACNOR5104
012024100102PNVL3       010DIMED       ON      NM   R$  000000000100200000000010350000000001002000000000102300000000010340000000001034000000000103501558000000000000302700000000000309751500000000000000009999123100000010000000000000BRPNVLACNOR9207
012024100102POMO3       010MARCOPOLO   ON      N2   R$  000000000062000000000006460000000000618000000000063000000000006270000000000625000000000062701300000000000000554500000000000349350600000000000000009999123100000010000000000000BRPOMOACNOR0099
012024100102POMO4       010MARCOPOLO   PN      N2   R$  000000000080000000000008290000000000793000000000080900000000008010000000000800000000000080119559000000000012002600000000009713789400000000000000009999123100000010000000000000BRPOMOACNPR7099
012024100102PORT3       010WILSON SONS ON      NM   R$  000000000173100000000017380000000001711000000000172200000000017160000000001716000000000172702389000000000000776300000000001337418400000000000000009999123100000010000000000000BRPORTACNOR8109
012024100102POSI3       010POSITIVO TECON      NM   R$  000000000057400000000006090000000000573000000000059100000000005820000000000581000000000058406507000000000003273800000000001935488500000000000000009999123100000010000000000000BRPOSIACNOR9116
012024100102RECV3       010PETRORECSA  ON      NM   R$  000000000175000000000018140000000001750000000000178400000000017710000000001771000000000177510004000000000003408300000000006083258000000000000000009999123100000010000000000000BRRECVACNOR3107
012024100102REDE3       010REDE ENERGIAON           R$  000000000068800000000006930000000000687000000000069000000000006930000000000690000000000069500005000000000000000600000000000000414100000000000000009999123100000010000000000000BRREDEACNOR7128
012024100102NEOE3       010NEOENERGIA  ON      NM   R$  000000000196000000000019650000000001892000000000192000000000019120000000001912000000000191308429000000000002423600000000004654596100000000000000009999123100000010000000000000BRNEOEACNOR3123
012024100102NGRD3       010NEOGRID     ON      NM   R$  000000000011400000000001180000000000105000000000011000000000001050000000000105000000000010700925000000000001226200000000000135723300000000000000009999123100000010000000000000BRNGRDACNOR3104
012024100102NINJ3       010GETNINJAS   ON      NM   R$  000000000047500000000004750000000000466000000000046800000000004670000000000464000000000046900032000000000000005700000000000002671900000000000000009999123100000010000000000000BRNINJACNOR5101
012024100102NTCO3       010GRUPO NATURAON      NM   R$  000000000141300000000014430000000001399000000000141600000000014040000000001401000000000140409805000000000004134200000000005857102100000000000000009999123100000010000000000000BRNTCOACNOR5106
012024100102RAIZ4       010RAIZEN      PN      N2   R$  000000000031100000000003170000000000309000000000031300000000003110000000000311000000000031408717000000000014780800000000004630163600000000000000009999123100000010000000000000BRRAIZACNPR6111
012024100102RANI3       010IRANI       ON      NM   R$  000000000074700000000007540000000000740000000000074700000000007540000000000751000000000075404591000000000001173200000000000877345600000000000000009999123100000010000000000000BRRANIACNOR5073
012024100102RAPT3       010RANDON PART ON      N1   R$  000000000088400000000008870000000000880000000000088300000000008870000000000882000000000088700056000000000000017600000000000015541300000000000000009999123100000010000000000000BRRAPTACNOR7163
012024100102RAPT4       010RANDON PART PN      N1   R$  000000000108000000000010970000000001072000000000108400000000010910000000001090000000000109708775000000000002789000000000003024005300000000000000009999123100000010000000000000BRRAPTACNPR4163
012024100102SYNE3       010SYN PROP TECON      NM   R$  000000000077400000000007860000000000764000000000077500000000007650000000000764000000000076502547000000000000702300000000000544357500000000000000009999123100000010000000000000BRSYNEACNOR2103
012024100102CLSA3       010CLEARSALE   ON      NM   R$  000000000091000000000009130000000000835000000000087100000000008800000000000876000000000088009840000000000003690600000000003216233100000000000000009999123100000010000000000000BRCLSAACNOR0100
012024100102CLSC4       010CELESC      PN  EJ  N2   R$  000000000836700000000084480000000008112000000000821400000000081300000000008130000000000828200058000000000000006600000000000054215800000000000000009999123100000010000000000000BRCLSCACNPR3132
012024100102CMIG3       010CEMIG       ON  EJ  N1   R$  000000000145600000000014730000000001446000000000145800000000014490000000001449000000000145801452000000000000299900000000000437388300000000000000009999123100000010000000000000BRCMIGACNOR6244
012024100102CMIG4       010CEMIG       PN  EJ  N1   R$  000000000114600000000011650000000001138000000000114900000000011420000000001141000000000114419587000000000009904900000000011387215100000000000000009999123100000010000000000000BRCMIGACNPR3245
012024100102CMIN3       010CSNMINERACAOON      N2   R$  000000000070300000000007230000000000695000000000071100000000007120000000000712000000000071412572000000000014758600000000010501569600000000000000009999123100000010000000000000BRCMINACNOR2111
012024100102CXSE3       010CAIXA SEGURION      NM   R$  000000000145500000000014690000000001440000000000145300000000014470000000001447000000000144811465000000000002916600000000004238019900000000000000009999123100000010000000000000BRCXSEACNOR7107
012024100102CYRE3       010CYRELA REALTON      NM   R$  000000000208300000000021110000000002049000000000207100000000020610000000002059000000000206613851000000000004572800000000009474094000000000000000009999123100000010000000000000BRCYREACNOR7140
012024100102FRAS3       010FRAS-LE     ON      N1   R$  000000000202900000000020840000000002029000000000207300000000020810000000002081000000000208801646000000000000295100000000000611745200000000000000009999123100000010000000000000BRFRASACNOR0160
012024100102FRIO3       010METALFRIO   ON      NM   R$  000000001620000000000165000000000014799000000001595200000000147990000000014001000000001480000032000000000000007200000000000114855700000000000000009999123100000010000000000000BRFRIOACNOR2111
012024100102ARML3       010ARMAC       ON      NM   R$  000000000080100000000008310000000000798000000000081600000000008150000000000812000000000081502877000000000000781800000000000638081400000000000000009999123100000010000000000000BRARMLACNOR1112
012024100102ASAI3       010ASSAI       ON      NM   R$  000000000075200000000007590000000000712000000000073100000000007120000000000712000000000071428431000000000031533300000000023067980600000000000000009999123100000010000000000000BRASAIACNOR0106
012024100102BBDC3       010BRADESCO    ON  EJ  N1   R$  000000000130600000000013130000000001286000000000130300000000012980000000001298000000000130509093000000000007168600000000009340734900000000000000009999123100000010000000000000BRBBDCACNOR1775
012024100102BBDC4       010BRADESCO    PN  EJ  N1   R$  000000000146200000000014820000000001451000000000147000000000014690000000001469000000000147031022000000000029701400000000043675102200000000000000009999123100000010000000000000BRBBDCACNPR8775
012024100102BRSR3       010BANRISUL    ON      N1   R$  000000000127900000000012830000000001269000000000127600000000012720000000001272000000000128100071000000000000010700000000000013656400000000000000009999123100000010000000000000BRBRSRACNOR3189
012024100102BRSR5       010BANRISUL    PNA     N1   R$  000000000173000000000017300000000001730000000000173000000000017300000000001505000000000195000001000000000000000600000000000001038000000000000000009999123100000010000000000000BRBRSRACNPA6193
012024100102BRSR6       010BANRISUL    PNB     N1   R$  000000000115700000000011630000000001141000000000114900000000011430000000001143000000000114706143000000000001685000000000001936451700000000000000009999123100000010000000000000BRBRSRACNPB4192
012024100102RADL3       010RAIADROGASILON      NM   R$  000000000258500000000026450000000002564000000000263000000000026300000000002630000000000263219364000000000011045300000000029051844300000000000000009999123100000010000000000000BRRADLACNOR0157
012024100102RAIL3       010RUMO S.A.   ON      NM   R$  000000000200000000000020250000000001971000000000199200000000019860000000001985000000000199124352000000000019370900000000038606008100000000000000009999123100000010000000000000BRRAILACNOR9105
012024100102SMFT3       010SMART FIT   ON      NM   R$  000000000216000000000021780000000002123000000000214600000000021390000000002138000000000214805629000000000001120100000000002404249400000000000000009999123100000010000000000000BRSMFTACNOR1112
012024100102SMTO3       010SAO MARTINHOON      NM   R$  000000000263500000000027030000000002628000000000265900000000026280000000002628000000000263804355000000000000898900000000002390923400000000000000009999123100000010000000000000BRSMTOACNOR3127
012024100102SNSY3       010SANSUY      ON           R$  000000000125000000000012500000000001250000000000125000000000012500000000001190000000000125000001000000000000000100000000000000125000000000000000009999123100000010000000000000BRSNSYACNOR2113
012024100102SNSY5       010SANSUY      PNA          R$  000000000056900000000005750000000000544000000000055000000000005440000000000544000000000055000010000000000000002800000000000001540900000000000000009999123100000010000000000000BRSNSYACNPA5111
012024100102SOJA3       010BOA SAFRA   ON      NM   R$  000000000117900000000012060000000001176000000000118200000000011850000000001185000000000119004128000000000001296300000000001533445900000000000000009999123100000010000000000000BRSOJAACNOR9105
012024100102SRNA3       010SERENA      ON      NM   R$  000000000083500000000008590000000000827000000000083600000000008270000000000827000000000083207365000000000003896800000000003261273700000000000000009999123100000010000000000000BRSRNAACNOR4100
012024100102STBP3       010SANTOS BRP  ON      NM   R$  000000000147800000000014840000000001470000000000147400000000014720000000001471000000000147312390000000000013997300000000020632134900000000000000009999123100000010000000000000BRSTBPACNOR3131
012024100102SUZB3       010SUZANO S.A. ON      NM   R$  000000000545100000000055190000000005446000000000548000000000054890000000005486000000000549020430000000000005015400000000027488124400000000000000009999123100000010000000000000BRSUZBACNOR0130
012024100102PRNR3       010PRINER      ON      NM   R$  000000000122500000000012250000000001177000000000119300000000011820000000001182000000000118800556000000000000184700000000000220503200000000000000009999123100000010000000000000BRPRNRACNOR4109
012024100102PSSA3       010PORTO SEGUROON  EJ  NM   R$  000000000369800000000036980000000003583000000000363300000000036330000000003632000000000363411310000000000002609300000000009479597500000000000000009999123100000010000000000000BRPSSAACNOR7156
012024100102PTBL3       010PORTOBELLO  ON      NM   R$  000000000046200000000004710000000000458000000000046400000000004620000000000461000000000046201640000000000000299300000000000139019900000000000000009999123100000010000000000000BRPTBLACNOR8132
012024100102PTNT3       010PETTENATI   ON           R$  000000000097700000000010180000000000977000000000099600000000009810000000000973000000000100300006000000000000000600000000000000597600000000000000009999123100000010000000000000BRPTNTACNOR6042
012024100102PTNT4       010PETTENATI   PN           R$  000000000065500000000006690000000000655000000000066100000000006600000000000660000000000069000015000000000000008100000000000005358600000000000000009999123100000010000000000000BRPTNTACNPR3047
012024100102AERI3       010AERIS       ON      NM   R$  000000000061400000000006240000000000595000000000060100000000006050000000000605000000000060601009000000000000255300000000000153638500000000000000009999123100000010000000000000BRAERIACNOR4102
012024100102AESB3       010AES BRASIL  ON      NM   R$  000000000116500000000011680000000001164000000000116500000000011680000000001167000000000116803258000000000007347000000000008565636200000000000000009999123100000010000000000000BRAESBACNOR7107
012024100102AGRO3       010BRASILAGRO  ON      NM   R$  000000000253800000000025620000000002501000000000252400000000025010000000002501000000000252702470000000000000392300000000000990468800000000000000009999123100000010000000000000BRAGROACNOR7114
012024100102BGIP4       010BANESE      PN           R$  000000000247000000000025200000000002400000000000244400000000024200000000002416000000000257500014000000000000001700000000000004155300000000000000009999123100000010000000000000BRBGIPACNPR8210
012024100102BHIA3       010CASAS BAHIA ON      NM   R$  000000000049500000000004950000000000458000000000047300000000004600000000000460000000000046106059000000000004573000000000002163367800000000000000009999123100000010000000000000BRBHIAACNOR1102
012024100102EALT3       010ACO ALTONA  ON           R$  000000000146700000000014670000000001460000000000146200000000014600000000001460000000000151000012000000000000001500000000000002194200000000000000009999123100000010000000000000BREALTACNOR4138
012024100102EALT4       010ACO ALTONA  PN           R$  000000000143500000000014380000000001380000000000140600000000014130000000001390000000000141500070000000000000010900000000000015330500000000000000009999123100000010000000000000BREALTACNPR1138
012024100102ECOR3       010ECORODOVIAS ON      NM   R$  000000000069500000000007030000000000685000000000069000000000006850000000000685000000000068904731000000000002399100000000001656515900000000000000009999123100000010000000000000BRECORACNOR8120
012024100102EGIE3       010ENGIE BRASILON      NM   R$  000000000424500000000042850000000004245000000000427000000000042660000000004265000000000426706592000000000001252100000000005347299600000000000000009999123100000010000000000000BREGIEACNOR9127
012024100102QUAL3       010QUALICORP   ON      NM   R$  000000000022400000000002320000000000215000000000022200000000002170000000000217000000000021805165000000000004564100000000001016773700000000000000009999123100000010000000000000BRQUALACNOR6120
012024100102YDUQ3       010YDUQS PART  ON      NM   R$  000000000093000000000009310000000000902000000000091600000000009040000000000903000000000090408741000000000004055600000000003715171100000000000000009999123100000010000000000000BRYDUQACNOR3105
012024100102GRND3       010GRENDENE    ON      NM   R$  000000000056900000000005710000000000557000000000056400000000005610000000000560000000000056103953000000000001746200000000000985030500000000000000009999123100000010000000000000BRGRNDACNOR3175
012024100102GSHP3       010GENERALSHOPPON           R$  000000000099900000000009990000000000999000000000099900000000009990000000000850000000000099500001000000000000000100000000000000099900000000000000009999123100000010000000000000BRGSHPACNOR7102
012024100102GUAR3       010GUARARAPES  ON      NM   R$  000000000078400000000007970000000000769000000000078000000000007730000000000772000000000077304250000000000001147100000000000895449800000000000000009999123100000010000000000000BRGUARACNOR4173
012024100102HAGA3       010HAGA S/A    ON           R$  000000000026500000000002800000000000259000000000026700000000002630000000000263000000000027100166000000000000051300000000000013738300000000000000009999123100000010000000000000BRHAGAACNOR7103
012024100102HAGA4       010HAGA S/A    PN           R$  000000000011700000000001200000000000116000000000011800000000001170000000000117000000000011900030000000000000019000000000000002248500000000000000009999123100000010000000000000BRHAGAACNPR4103
012024100102HAPV3       010HAPVIDA     ON      NM   R$  000000000040500000000004100000000000402000000000040600000000004040000000000404000000000040529827000000000074920700000000030423281200000000000000009999123100000010000000000000BRHAPVACNOR4114
012024100102JALL3       010JALLESMACHADON      NM   R$  000000000065000000000006610000000000644000000000065200000000006490000000000649000000000065001838000000000000598200000000000390130900000000000000009999123100000010000000000000BRJALLACNOR0106
012024100102JBSS3       010JBS         ON      NM   R$  000000000318000000000033040000000003160000000000326500000000032420000000003242000000000325233088000000000016087400000000052535416500000000000000009999123100000010000000000000BRJBSSACNOR8122
012024100102HYPE3       010HYPERA      ON  EJ  NM   R$  000000000263700000000026840000000002629000000000266500000000026610000000002661000000000267013167000000000003938000000000010498097900000000000000009999123100000010000000000000BRHYPEACNOR0144
012024100102MRSA6B      010MRS LOGIST  PNB     MB   R$  000000000280000000000028000000000002800000000000280000000000028000000000002800000000000000000001000000000000000100000000000000280000000000000000009999123100000010000000000000BRMRSAACNPB7125
012024100102MRVE3       010MRV         ON      NM   R$  000000000073200000000007690000000000731000000000075700000000007570000000000756000000000075720549000000000015658800000000011858520700000000000000009999123100000010000000000000BRMRVEACNOR2127
012024100102BEES3       010BANESTES    ON           R$  000000000089500000000009000000000000893000000000089800000000009000000000000897000000000090000080000000000000019400000000000017424800000000000000009999123100000010000000000000BRBEESACNOR9395
012024100102BEES4       010BANESTES    PN           R$  000000000092800000000009470000000000919000000000092900000000009190000000000918000000000093900029000000000000005000000000000004649400000000000000009999123100000010000000000000BRBEESACNPR6320
012024100102ALPK3       010ESTAPAR     ON      NM   R$  000000000029300000000002990000000000279000000000028600000000002840000000000284000000000028500557000000000000554000000000000158712600000000000000009999123100000010000000000000BRALPKACNOR9101
012024100102ALUP11      010ALUPAR      UNT     N2   R$  000000000305500000000030570000000002995000000000303000000000029950000000002995000000000303204407000000000001080800000000003275552500000000000000009999123100000010000000000000BRALUPCDAM15120
012024100102ALUP3       010ALUPAR      ON      N2   R$  000000000105400000000010540000000001021000000000102400000000010210000000001020000000000102100044000000000000006600000000000006763400000000000000009999123100000010000000000000BRALUPACNOR8120
012024100102BRIT3       010BRISANET    ON      NM   R$  000000000030000000000003050000000000296000000000030300000000003050000000000298000000000030500445000000000000436200000000000132177100000000000000009999123100000010000000000000BRBRITACNOR0103
012024100102BRKM3       010BRASKEM     ON      N1   R$  000000000198400000000020000000000001961000000000198200000000019910000000001978000000000200000059000000000000006900000000000013677800000000000000009999123100000010000000000000BRBRKMACNOR1119
012024100102BRKM5       010BRASKEM     PNA     N1   R$  000000000199600000000020150000000001975000000000200100000000020040000000002003000000000200506227000000000001943900000000003891190500000000000000009999123100000010000000000000BRBRKMACNPA4121
012024100102CRFB3       010CARREFOUR BRON      NM   R$  000000000092300000000009300000000000902000000000091700000000009250000000000917000000000092513688000000000009236600000000008476860100000000000000009999123100000010000000000000BRCRFBACNOR2116
012024100102ALUP4       010ALUPAR      PN      N2   R$  000000000100000000000010100000000001000000000000100200000000010100000000001004000000000101900063000000000000009800000000000009827300000000000000009999123100000010000000000000BRALUPACNPR5120
012024100102AMAR3       010LOJAS MARISAON      NM   R$  000000000010600000000001070000000000105000000000010500000000001050000000000105000000000010600399000000000000102600000000000010863000000000000000009999123100000010000000000000BRAMARACNOR4115
012024100102AMBP3       010AMBIPAR     ON      NM   R$  000000001249900000000135000000000010750000000001281300000000135000000000013000000000001350000693000000000000276200000000003538996300000000000000009999123100000010000000000000BRAMBPACNOR6103
012024100102BRBI11      010BR PARTNERS UNT     N2   R$  000000000153100000000015360000000001508000000000151900000000015110000000001510000000000153002004000000000000271900000000000413265000000000000000009999123100000010000000000000BRBRBICDAM10110
012024100102BRFS3       010BRF SA      ON      NM   R$  000000000238500000000024570000000002357000000000242400000000024280000000002425000000000243014829000000000005895900000000014295331200000000000000009999123100000010000000000000BRBRFSACNOR8122
012024100102CRPG3       010CRISTAL     ON           R$  000000000285800000000028580000000002858000000000285800000000028580000000002800000000000350000001000000000000000100000000000000285800000000000000009999123100000010000000000000BRCRPGACNOR0119
012024100102CRPG5       010CRISTAL     PNA          R$  000000000265500000000026650000000002651000000000265400000000026640000000002654000000000266500016000000000000002400000000000006370800000000000000009999123100000010000000000000BRCRPGACNPA3119
012024100102CRPG6       010CRISTAL     PNB          R$  000000000273800000000027490000000002651000000000267800000000027490000000002651000000000279900005000000000000000800000000000002142500000000000000009999123100000010000000000000BRCRPGACNPB1119
012024100102CSAN3       010COSAN       ON      NM   R$  000000000131600000000013350000000001302000000000131800000000013310000000001329000000000133215153000000000015149700000000019982385600000000000000009999123100000010000000000000BRCSANACNOR6126
012024100102ENEV3       010ENEVA       ON      NM   R$  000000000140100000000014150000000001393000000000140000000000013930000000001393000000000140010949000000000004575000000000006407172200000000000000009999123100000010000000000000BRENEVACNOR8106
012024100102ENGI11      010ENERGISA    UNT     N2   R$  000000000453500000000045350000000004419000000000446200000000044550000000004455000000000445614333000000000003843500000000017150378800000000000000009999123100000010000000000000BRENGICDAM16136
012024100102ENGI3       010ENERGISA    ON      N2   R$  000000000137700000000013770000000001324000000000133900000000013240000000001324000000000133000080000000000000008900000000000011923400000000000000009999123100000010000000000000BRENGIACNOR0146
012024100102ENGI4       010ENERGISA    PN      N2   R$  000000000078400000000007870000000000777000000000077800000000007870000000000781000000000079300101000000000000029100000000000022658200000000000000009999123100000010000000000000BRENGIACNPR7142
012024100102ENJU3       010ENJOEI      ON      NM   R$  000000000013500000000001390000000000134000000000013600000000001350000000000135000000000013900885000000000000689100000000000093810800000000000000009999123100000010000000000000BRENJUACNOR9100
012024100102IFCM3       010INFRACOMM   ON      NM   R$  000000000001600000000000170000000000016000000000001600000000000170000000000016000000000001700644000000000003462100000000000056145500000000000000009999123100000010000000000000BRIFCMACNOR8101
012024100102IGTI11      010IGUATEMI S.AUNT     N1   R$  000000000210900000000021370000000002088000000000211000000000021050000000002105000000000211110684000000000003597900000000007594567900000000000000009999123100000010000000000000BRIGTICDAM16106
012024100102IGTI3       010IGUATEMI S.AON      N1   R$  000000000026000000000002660000000000260000000000026400000000002640000000000261000000000026500092000000000000036000000000000009516600000000000000009999123100000010000000000000BRIGTIACNOR8106
012024100102IGTI4       010IGUATEMI S.APN      N1   R$  000000000093000000000009300000000000930000000000093000000000009300000000000851000000000122000001000000000000000100000000000000093000000000000000009999123100000010000000000000BRIGTIACNPR5106
012024100102KRSA3       010KORA SAUDE  ON      NM   R$  000000000004900000000000490000000000047000000000004700000000000480000000000048000000000004900053000000000000148400000000000007116300000000000000009999123100000010000000000000BRKRSAACNOR0100
012024100102LAND3       010TERRASANTAPAON      NM   R$  000000000122000000000012350000000001210000000000122300000000012210000000001218000000000123200109000000000000016900000000000020685000000000000000009999123100000010000000000000BRLANDACNOR9103
012024100102LAVV3       010LAVVI       ON      NM   R$  000000000080000000000008140000000000796000000000080400000000008070000000000801000000000080703670000000000000851900000000000685328400000000000000009999123100000010000000000000BRLAVVACNOR4113
012024100102LEVE3       010METAL LEVE  ON      NM   R$  000000000302800000000030540000000003011000000000303100000000030370000000003034000000000303703154000000000000514400000000001559570200000000000000009999123100000010000000000000BRLEVEACNOR2197
012024100102LJQQ3       010QUERO-QUERO ON      NM   R$  000000000033200000000003410000000000325000000000033100000000003300000000000329000000000033009696000000000006451500000000002138417200000000000000009999123100000010000000000000BRLJQQACNOR5104
012024100102LOGG3       010LOG COM PROPON      NM   R$  000000000226000000000022810000000002216000000000225000000000022160000000002215000000000223202535000000000000357200000000000803729500000000000000009999123100000010000000000000BRLOGGACNOR7107
012024100102LOGN3       010LOG-IN      ON      NM   R$  000000000335800000000033700000000003176000000000328400000000031760000000003175000000000324800094000000000000011700000000000038425500000000000000009999123100000010000000000000BRLOGNACNOR3105
012024100102LPSB3       010LOPES BRASILON      NM   R$  000000000017800000000001790000000000174000000000017600000000001740000000000174000000000017600207000000000000120700000000000021319700000000000000009999123100000010000000000000BRLPSBACNOR0114
012024100102KLBN11      010KLABIN S/A  UNT     N2   R$  000000000209500000000021080000000002088000000000209500000000020900000000002090000000000210314357000000000006138300000000012861298700000000000000009999123100000010000000000000BRKLBNCDAM18143
012024100102KLBN3       010KLABIN S/A  ON      N2   R$  000000000042200000000004240000000000418000000000042000000000004210000000000420000000000042100720000000000000314600000000000132426300000000000000009999123100000010000000000000BRKLBNACNOR2171
012024100102KLBN4       010KLABIN S/A  PN      N2   R$  000000000042000000000004220000000000418000000000041900000000004200000000000420000000000042102349000000000001675100000000000703404700000000000000009999123100000010000000000000BRKLBNACNPR9171
012024100102MTRE3       010MITRE REALTYON  ED  NM   R$  000000000035700000000003670000000000356000000000036100000000003580000000000358000000000036201301000000000000809100000000000292392200000000000000009999123100000010000000000000BRMTREACNOR6115
012024100102MTSA4       010METISA      PN  EJ       R$  000000000383800000000039190000000003830000000000384500000000038300000000003830000000000396900022000000000000002500000000000009612900000000000000009999123100000010000000000000BRMTSAACNPR9073
012024100102MULT3       010MULTIPLAN   ON      N2   R$  000000000258100000000025920000000002534000000000255700000000025580000000002547000000000255815880000000000003470900000000008875280000000000000000009999123100000010000000000000BRMULTACNOR5139
012024100102MYPK3       010IOCHP-MAXIONON      NM   R$  000000000109100000000011280000000001091000000000111400000000011080000000001108000000000111106492000000000001860600000000002073873600000000000000009999123100000010000000000000BRMYPKACNOR7155
012024100102AALR3       010ALLIAR      ON      NM   R$  000000000151000000000015300000000001481000000000150300000000015000000000001500000000000150700113000000000000016300000000000024509200000000000000009999123100000010000000000000BRAALRACNOR6102
012024100102ABCB4       010ABC BRASIL  PN      N2   R$  000000000218000000000021980000000002164000000000218100000000021810000000002180000000000218204858000000000000887100000000001935391600000000000000009999123100000010000000000000BRABCBACNPR4146
012024100102ABEV3       010AMBEV S/A   ON           R$  000000000132000000000013720000000001313000000000135400000000013600000000001359000000000136050781000000000065825500000000089175768700000000000000009999123100000010000000000000BRABEVACNOR1128
012024100102BAHI3       010BAHEMA      ON      MA   R$  000000000061000000000006200000000000594000000000060500000000006000000000000594000000000060400060000000000000024600000000000014883500000000000000009999123100000010000000000000BRBAHIACNOR1074
012024100102BALM4       010BAUMER      PN           R$  000000000103400000000010340000000001034000000000103400000000010340000000001021000000000109900001000000000000000100000000000000103400000000000000009999123100000010000000000000BRBALMACNPR2056
012024100102BAZA3       010AMAZONIA    ON           R$  000000000915000000000091700000000009149000000000915500000000091500000000009149000000000925000008000000000000000900000000000008239800000000000000009999123100000010000000000000BRBAZAACNOR0179
012024100102BBAS3       010BRASIL      ON      NM   R$  000000000271000000000027250000000002688000000000270800000000027080000000002708000000000271038138000000000019254100000000052142809700000000000000009999123100000010000000000000BRBBASACNOR3326
012024100102HETA4       010HERCULES    PN           R$  000000000061000000000006170000000000610000000000061400000000006100000000000541000000000065800007000000000000000900000000000000553100000000000000009999123100000010000000000000BRHETAACNPR9136
012024100102AVLL3       010ALPHAVILLE  ON      NM   R$  000000000032000000000003200000000000320000000000032000000000003200000000000307000000000031500002000000000000000200000000000000064000000000000000009999123100000010000000000000BRAVLLACNOR5103
012024100102AZEV3       010AZEVEDO     ON           R$  000000000013700000000001390000000000129000000000013400000000001300000000000130000000000013100582000000000000731200000000000098083300000000000000009999123100000010000000000000BRAZEVACNOR0121
012024100102AZEV4       010AZEVEDO     PN           R$  000000000013500000000001370000000000127000000000013100000000001270000000000127000000000012802083000000000004551800000000000599595000000000000000009999123100000010000000000000BRAZEVACNPR7121
012024100102AZUL4       010AZUL        PN      N2   R$  000000000062500000000006380000000000587000000000061000000000005950000000000594000000000059521289000000000043450400000000026540800800000000000000009999123100000010000000000000BRAZULACNPR4103
012024100102BEEF3       010MINERVA     ON      NM   R$  000000000063400000000006460000000000633000000000064000000000006430000000000642000000000064407358000000000005591100000000003582744500000000000000009999123100000010000000000000BRBEEFACNOR6116
012024100102BBSE3       010BBSEGURIDADEON      NM   R$  000000000356300000000035950000000003542000000000357200000000035750000000003571000000000357614481000000000005355200000000019131978700000000000000009999123100000010000000000000BRBBSEACNOR5125
012024100102CEEB3       010COELBA      ON  EJ       R$  000000000380800000000038550000000003808000000000381900000000038550000000003831000000000389800004000000000000000800000000000003055700000000000000009999123100000010000000000000BRCEEBACNOR3200
012024100102CGAS5       010COMGAS      PNA          R$  000000001280500000000128050000000012805000000001280500000000128050000000012805000000001298900001000000000000000100000000000001280500000000000000009999123100000010000000000000BRCGASACNPA3161
012024100102CGRA3       010GRAZZIOTIN  ON           R$  000000000251900000000025200000000002500000000000251600000000025020000000002502000000000252500010000000000000001400000000000003522600000000000000009999123100000010000000000000BRCGRAACNOR2083
012024100102CGRA4       010GRAZZIOTIN  PN           R$  000000000250600000000025150000000002497000000000250700000000025010000000002491000000000251500035000000000000005000000000000012536100000000000000009999123100000010000000000000BRCGRAACNPR9083
012024100102BIOM3       010BIOMM       ON      MA   R$  000000000104700000000010480000000000971000000000099800000000009710000000000971000000000101900684000000000000121500000000000121357900000000000000009999123100000010000000000000BRBIOMACNOR2112
012024100102BLAU3       010BLAU        ON  EJ  NM   R$  000000000133200000000013500000000001315000000000133300000000013150000000001315000000000132901106000000000000156000000000000208093000000000000000009999123100000010000000000000BRBLAUACNOR8115
012024100102BMEB4       010MERCANTIL   PN      N1   R$  000000000388400000000038840000000003755000000000384000000000037550000000003750000000000381600199000000000000036900000000000141721100000000000000009999123100000010000000000000BRBMEBACNPR5211
012024100102BMGB4       010BANCO BMG   PN      N1   R$  000000000038100000000004090000000000381000000000039700000000004010000000000399000000000040103620000000000001569800000000000624229800000000000000009999123100000010000000000000BRBMGBACNPR0110
012024100102BMKS3       010BIC MONARK  ON           R$  000000003099800000000310000000000030500000000003089900000000309990000000030500000000003099900004000000000000000010000000000000308990000000000000009999123100000010000000000000BRBMKSACNOR9166
012024100102BMOB3       010BEMOBI TECH ON      NM   R$  000000000137800000000014280000000001378000000000141300000000014130000000001410000000000141901426000000000000829700000000001172844700000000000000009999123100000010000000000000BRBMOBACNOR7103
012024100102BOBR4       010BOMBRIL     PN           R$  000000000022400000000002390000000000222000000000023100000000002320000000000232000000000023700116000000000000102900000000000023863700000000000000009999123100000010000000000000BRBOBRACNPR3128
012024100102CAMB3       010CAMBUCI     ON           R$  000000000126600000000012890000000001242000000000126800000000012600000000001249000000000126000195000000000000065000000000000082459500000000000000009999123100000010000000000000BRCAMBACNOR4131
012024100102CAML3       010CAMIL       ON      NM   R$  000000000085700000000008690000000000829000000000084300000000008440000000000840000000000084405543000000000001471300000000001240602400000000000000009999123100000010000000000000BRCAMLACNOR3129
012024100102CASH3       010MELIUZ      ON      NM   R$  000000000040600000000004060000000000389000000000039700000000003890000000000389000000000039102521000000000001413300000000000561957500000000000000009999123100000010000000000000BRCASHACNOR8107
012024100102CBAV3       010CBA         ON      NM   R$  000000000054800000000005620000000000539000000000055200000000005510000000000551000000000055305288000000000003036000000000001677365100000000000000009999123100000010000000000000BRCBAVACNOR5104
012024100102ENMT4       010ENERGISA MT PN           R$  000000000830000000000083000000000008300000000000830000000000083000000000000000000000000830000001000000000000000100000000000000830000000000000000009999123100000010000000000000BRENMTACNPR2126
012024100102EPAR3       010EMBPAR S/A  ON           R$  000000000057200000000005720000000000562000000000057000000000005650000000000565000000000057200022000000000000009700000000000005533100000000000000009999123100000010000000000000BREPARACNOR9105
012024100102EQMA3B      010EQTLMARANHAOON      MB   R$  000000000225000000000022510000000002250000000000225000000000022500000000002250000000000227000016000000000000007800000000000017550400000000000000009999123100000010000000000000BREQMAACNOR8108
012024100102EQPA3       010EQTL PARA   ON           R$  000000000060200000000006110000000000601000000000060700000000006090000000000606000000000060900016000000000000005100000000000003100400000000000000009999123100000010000000000000BREQPAACNOR1111
012024100102EQTL3       010EQUATORIAL  ON      NM   R$  000000000325700000000032880000000003249000000000326700000000032540000000003253000000000326021304000000000005888400000000019241719300000000000000009999123100000010000000000000BREQTLACNOR0131
012024100102ESPA3       010ESPACOLASER ON      NM   R$  000000000010300000000001040000000000102000000000010200000000001020000000000102000000000010400139000000000000295900000000000030444400000000000000009999123100000010000000000000BRESPAACNOR7103
012024100102ESTR4       010ESTRELA     PN           R$  000000000039000000000003900000000000390000000000039000000000003900000000000380000000000042500004000000000000001000000000000000390000000000000000009999123100000010000000000000BRESTRACNPR0144
012024100102CCRO3       010CCR SA      ON      NM   R$  000000000121100000000012290000000001204000000000121400000000012080000000001208000000000121112397000000000008597200000000010438756400000000000000009999123100000010000000000000BRCCROACNOR2145
012024100102CEAB3       010CEA MODAS   ON      NM   R$  000000000104500000000010780000000001028000000000105100000000010300000000001030000000000103407298000000000002433000000000002557683500000000000000009999123100000010000000000000BRCEABACNOR1102
012024100102CEBR3       010CEB         ON           R$  000000000191000000000019100000000001903000000000190500000000019030000000001895000000000191900003000000000000000300000000000000571600000000000000009999123100000010000000000000BRCEBRACNOR5125
012024100102CEBR5       010CEB         PNA          R$  000000000163800000000016380000000001594000000000160900000000015940000000001588000000000161400034000000000000008900000000000014322800000000000000009999123100000010000000000000BRCEBRACNPA8124
012024100102CEBR6       010CEB         PNB          R$  000000000176000000000018060000000001760000000000178800000000017830000000001783000000000179900016000000000000002100000000000003755200000000000000009999123100000010000000000000BRCEBRACNPB6124
012024100102CEDO4       010CEDRO       PN      N1   R$  000000000237400000000023840000000002374000000000237500000000023740000000002314000000000244600006000000000000001700000000000004038800000000000000009999123100000010000000000000BRCEDOACNPR5128
012024100102CSUD3       010CSU DIGITAL ON  EJ  NM   R$  000000000176900000000017690000000001722000000000173300000000017280000000001728000000000173000535000000000000077200000000000133833000000000000000009999123100000010000000000000BRCSUDACNOR5111
012024100102CTKA4       010KARSTEN     PN           R$  000000000204200000000020420000000002042000000000204200000000020420000000001840000000000204200001000000000000000100000000000000204200000000000000009999123100000010000000000000BRCTKAACNPR7043
012024100102CURY3       010CURY S/A    ON      NM   R$  000000000226900000000023290000000002269000000000229800000000022730000000002272000000000228908274000000000002171300000000004991083400000000000000009999123100000010000000000000BRCURYACNOR3109
012024100102CVCB3       010CVC BRASIL  ON      NM   R$  000000000018700000000001890000000000184000000000018500000000001850000000000185000000000018611436000000000013201400000000002451627900000000000000009999123100000010000000000000BRCVCBACNOR1116
012024100102EZTC3       010EZTEC       ON      NM   R$  000000000137100000000014140000000001361000000000138400000000013860000000001385000000000139007299000000000002672500000000003700757900000000000000009999123100000010000000000000BREZTCACNOR0126
012024100102FESA3       010FERBASA     ON      N1   R$  000000000130000000000013000000000001300000000000130000000000013000000000001300000000000139500002000000000000000200000000000000260000000000000000009999123100000010000000000000BRFESAACNOR8189
012024100102FESA4       010FERBASA     PN      N1   R$  000000000076800000000007700000000000762000000000076600000000007680000000000766000000000076801988000000000000772800000000000592122000000000000000009999123100000010000000000000BRFESAACNPR5085
012024100102FHER3       010FER HERINGERON      NM   R$  000000000039000000000003980000000000386000000000038800000000003880000000000388000000000039200010000000000000002200000000000000855000000000000000009999123100000010000000000000BRFHERACNOR5103
012024100102FIEI3       010FICA        ON           R$  000000000094800000000009480000000000948000000000094800000000009480000000000830000000000094900005000000000000000500000000000000474000000000000000009999123100000010000000000000BRFIEIACNOR2100
012024100102FIQE3       010UNIFIQUE    ON      NM   R$  000000000038200000000003840000000000373000000000037700000000003730000000000373000000000037500778000000000000516800000000000195151500000000000000009999123100000010000000000000BRFIQEACNOR5107
012024100102FLRY3       010FLEURY      ON      NM   R$  000000000154500000000015540000000001511000000000152500000000015140000000001512000000000151513966000000000004504900000000006870590200000000000000009999123100000010000000000000BRFLRYACNOR5139
012024100102BPAC11      010BTGP BANCO  UNT     N2   R$  000000000334500000000033500000000003255000000000329800000000032910000000003290000000000329621420000000000006750200000000022264118600000000000000009999123100000010000000000000BRBPACUNT006119
012024100102BPAC3       010BTGP BANCO  ON      N2   R$  000000000160700000000016070000000001545000000000156900000000015700000000001540000000000159600048000000000000005100000000000008005700000000000000009999123100000010000000000000BRBPACACNOR7134
012024100102BPAC5       010BTGP BANCO  PNA     N2   R$  000000000087200000000008750000000000848000000000085800000000008600000000000850000000000086700052000000000000007900000000000006778400000000000000009999123100000010000000000000BRBPACACNPA0134
012024100102COCE5       010COELCE      PNA          R$  000000000268500000000027900000000002685000000000275200000000027750000000002751000000000277500051000000000000006600000000000018167600000000000000009999123100000010000000000000BRCOCEACNPA3147
012024100102COGN3       010COGNA ON    ON      NM   R$  000000000012900000000001320000000000127000000000012900000000001280000000000127000000000012818864000000000036736200000000004744761800000000000000009999123100000010000000000000BRCOGNACNOR2105
012024100102DASA3       010DASA        ON      NM   R$  000000000027800000000002900000000000274000000000028100000000002780000000000278000000000028002065000000000001054300000000000296391100000000000000009999123100000010000000000000BRDASAACNOR1123
012024100102CSED3       010CRUZEIRO EDUON      NM   R$  000000000033200000000003370000000000324000000000033100000000003240000000000324000000000032600804000000000000434900000000000143957600000000000000009999123100000010000000000000BRCSEDACNOR9105
012024100102CSMG3       010COPASA      ON      NM   R$  000000000230600000000023560000000002304000000000232600000000023150000000002315000000000231605478000000000000935100000000002175701100000000000000009999123100000010000000000000BRCSMGACNOR5175
012024100102CSNA3       010SID NACIONALON           R$  000000000128600000000013140000000001276000000000130300000000013050000000001302000000000130510607000000000005080400000000006620433300000000000000009999123100000010000000000000BRCSNAACNOR6261
012024100102ZAMP3       010ZAMP S.A.   ON           R$  000000000026200000000002730000000000260000000000026600000000002610000000000261000000000026201624000000000000483500000000000128853200000000000000009999123100000010000000000000BRZAMPACNOR5101
012024100102SCAR3       010SAO CARLOS  ON      NM   R$  000000000228500000000023240000000002251000000000228400000000022510000000002251000000000231100025000000000000003000000000000006854200000000000000009999123100000010000000000000BRSCARACNOR7131
012024100102SEER3       010SER EDUCA   ON      NM   R$  000000000060000000000006070000000000587000000000059800000000005870000000000586000000000058900770000000000000223600000000000133718500000000000000009999123100000010000000000000BRSEERACNOR5119
012024100102SEQL3       010SEQUOIA LOG ON      NM   R$  000000000044500000000004570000000000440000000000044800000000004510000000000446000000000045100782000000000000343400000000000153916200000000000000009999123100000010000000000000BRSEQLACNOR2103
012024100102SHOW3       010TIME FOR FUNON      NM   R$  000000000010200000000001030000000000099000000000010000000000000990000000000099000000000010000209000000000000088500000000000008927100000000000000009999123100000010000000000000BRSHOWACNOR7105
012024100102SHUL4       010SCHULZ      PN  EJ       R$  000000000061200000000006230000000000600000000000061100000000006160000000000616000000000061802127000000000000735900000000000449778100000000000000009999123100000010000000000000BRSHULACNPR4157
012024100102SIMH3       010SIMPAR      ON      NM   R$  000000000056500000000005910000000000560000000000057600000000005720000000000571000000000057310710000000000008364400000000004823395500000000000000009999123100000010000000000000BRSIMHACNOR0107
012024100102SLCE3       010SLC AGRICOLAON      NM   R$  000000000182000000000018440000000001800000000000182500000000018400000000001839000000000184009650000000000002842600000000005190173300000000000000009999123100000010000000000000BRSLCEACNOR2125
012024100102WEST3       010WESTWING    ON      NM   R$  000000000008300000000000850000000000082000000000008200000000000840000000000083000000000008400032000000000000042900000000000003550100000000000000009999123100000010000000000000BRWESTACNOR3100
012024100102WHRL3       010WHIRLPOOL   ON           R$  000000000042600000000004560000000000426000000000044600000000004450000000000445000000000044900017000000000000003900000000000001741500000000000000009999123100000010000000000000BRWHRLACNOR5129
012024100102WHRL4       010WHIRLPOOL   PN           R$  000000000046300000000004680000000000460000000000046400000000004680000000000463000000000046600042000000000000007500000000000003485200000000000000009999123100000010000000000000BRWHRLACNPR2129
012024100102WIZC3       010WIZ CO      ON      NM   R$  000000000058000000000005870000000000580000000000058400000000005860000000000585000000000058601156000000000000290200000000000169598700000000000000009999123100000010000000000000BRWIZCACNOR5102
012024100102SAPR11      010SANEPAR     UNT     N2   R$  000000000296500000000030040000000002905000000000293800000000029050000000002903000000000290805186000000000000985000000000002894345400000000000000009999123100000010000000000000BRSAPRCDAM13118
012024100102SAPR3       010SANEPAR     ON      N2   R$  000000000056800000000005700000000000549000000000055900000000005490000000000548000000000055001076000000000000236100000000000132022600000000000000009999123100000010000000000000BRSAPRACNOR9159
012024100102SAPR4       010SANEPAR     PN      N2   R$  000000000059600000000006080000000000587000000000059600000000005880000000000587000000000058803600000000000001804500000000001076809000000000000000009999123100000010000000000000BRSAPRACNPR6159
012024100102SBFG3       010GRUPO SBF   ON      NM   R$  000000000163700000000016700000000001590000000000161600000000016050000000001598000000000160807205000000000001596000000000002579316100000000000000009999123100000010000000000000BRSBFGACNOR1103
012024100102SBSP3       010SABESP      ON      NM   R$  000000000904500000000091140000000008991000000000903400000000090030000000009001000000000900310272000000000002263100000000020445114600000000000000009999123100000010000000000000BRSBSPACNOR5161
012024100102VALE3       010VALE        ON      NM   R$  000000000635000000000064250000000006315000000000638100000000063820000000006382000000000638441872000000000018091500000000115452333600000000000000009999123100000010000000000000BRVALEACNOR0211
012024100102VLID3       010VALID       ON      NM   R$  000000000225900000000023070000000002250000000000227300000000022530000000002244000000000225902147000000000000313600000000000712828700000000000000009999123100000010000000000000BRVLIDACNOR5144
012024100102VSTE3       010VESTE       ON      NM   R$  000000000122000000000012300000000001188000000000120500000000011880000000001188000000000120700073000000000000027900000000000033645900000000000000009999123100000010000000000000BRVSTEACNOR5103
012024100102VTRU3       010VITRUEDUCA  ON      NM   R$  000000000094000000000009460000000000912000000000092600000000009430000000000921000000000094300471000000000000142400000000000131994500000000000000009999123100000010000000000000BRVTRUACNOR3100
012024100102VULC3       010VULCABRAS   ON  ED  NM   R$  000000000168500000000017230000000001680000000000171500000000017180000000001713000000000171803950000000000001028900000000001764683400000000000000009999123100000010000000000000BRVULCACNOR2162
012024100102VVEO3       010VIVEO       ON      NM   R$  000000000018500000000001860000000000177000000000018100000000001790000000000179000000000018007070000000000003260900000000000591699800000000000000009999123100000010000000000000BRVVEOACNOR0104
012024100102WEGE3       010WEG         ON  EJ  NM   R$  000000000550000000000056220000000005480000000000556800000000055880000000005575000000000558819647000000000008044000000000044792936100000000000000009999123100000010000000000000BRWEGEACNOR0225
012024100102PRIO3       010PETRORIO    ON      NM   R$  000000000430000000000044770000000004285000000000440700000000044260000000004425000000000442948604000000000014398500000000063467550800000000000000009999123100000010000000000000BRPRIOACNOR1107
012024100102ROMI3       010ROMI        ON  EJ  NM   R$  000000000108300000000011170000000001083000000000110600000000010940000000001094000000000110101208000000000000246300000000000272633000000000000000009999123100000010000000000000BRROMIACNOR8196
012024100102RSUL4       010RIOSULENSE  PN           R$  000000000623600000000062360000000006200000000000622400000000062000000000006012000000000620000003000000000000000300000000000001867200000000000000009999123100000010000000000000BRRSULACNPR3114
012024100102RENT3       010LOCALIZA    ON  EJ  NM   R$  000000000410900000000041700000000004067000000000411100000000041100000000004107000000000412219815000000000006404700000000026335741800000000000000009999123100000010000000000000BRRENTACNOR4197
012024100102TGMA3       010TEGMA       ON      NM   R$  000000000271100000000027110000000002646000000000266500000000026580000000002650000000000265800757000000000000108300000000000288642500000000000000009999123100000010000000000000BRTGMAACNOR7145
012024100102TIMS3       010TIM         ON  EJ  NM   R$  000000000188000000000018820000000001856000000000186600000000018600000000001860000000000186113561000000000010586200000000019757172300000000000000009999123100000010000000000000BRTIMSACNOR5118
012024100102TOTS3       010TOTVS       ON      NM   R$  000000000289700000000029300000000002866000000000289900000000028660000000002865000000000287213113000000000002955100000000008568649100000000000000009999123100000010000000000000BRTOTSACNOR8145
012024100102TPIS3       010TRIUNFO PARTON      NM   R$  000000000052300000000005310000000000517000000000052500000000005290000000000523000000000052900211000000000000073400000000000038595500000000000000009999123100000010000000000000BRTPISACNOR8118
012024100102TRAD3       010TC          ON      NM   R$  000000000049100000000005050000000000483000000000049100000000004860000000000486000000000049000178000000000000066700000000000032795100000000000000009999123100000010000000000000BRTRADACNOR3102
012024100102ETER3       010ETERNIT     ON      NM   R$  000000000056100000000005870000000000559000000000057200000000005770000000000577000000000058100758000000000000215100000000000123238100000000000000009999123100000010000000000000BRETERACNOR3244
012024100102EUCA3       010EUCATEX     ON      N1   R$  000000000170500000000017050000000001705000000000170500000000017050000000001566000000000170000002000000000000000200000000000000341000000000000000009999123100000010000000000000BREUCAACNOR1157
012024100102EUCA4       010EUCATEX     PN      N1   R$  000000000155500000000015600000000001542000000000155400000000015420000000001542000000000155800282000000000000055200000000000085789100000000000000009999123100000010000000000000BREUCAACNPR8044
012024100102EVEN3       010EVEN        ON      NM   R$  000000000062900000000006710000000000620000000000066500000000006630000000000662000000000066507587000000000008503000000000005658527600000000000000009999123100000010000000000000BREVENACNOR8119
012024100102INEP3       010INEPAR      ON           R$  000000000019200000000001950000000000190000000000019300000000001950000000000193000000000019500204000000000000059300000000000011446600000000000000009999123100000010000000000000BRINEPACNOR1143
012024100102INEP4       010INEPAR      PN           R$  000000000019500000000002050000000000190000000000019400000000001910000000000190000000000019300332000000000000060700000000000011821600000000000000009999123100000010000000000000BRINEPACNPR8143
012024100102TRIS3       010TRISUL      ON      NM   R$  000000000048100000000005040000000000481000000000049400000000004880000000000488000000000049301773000000000000890600000000000440540300000000000000009999123100000010000000000000BRTRISACNOR4118
012024100102TRPL3       010TRAN PAULISTON      N1   R$  000000000313400000000031460000000003102000000000312600000000031020000000003100000000000314300023000000000000002800000000000008753700000000000000009999123100000010000000000000BRTRPLACNOR4185
012024100102TRPL4       010TRAN PAULISTPN      N1   R$  000000000243000000000024620000000002424000000000244100000000024260000000002426000000000242809958000000000002512800000000006135210500000000000000009999123100000010000000000000BRTRPLACNPR1185
012024100102VAMO3       010VAMOS       ON      NM   R$  000000000066100000000006710000000000640000000000064900000000006460000000000645000000000064614204000000000024850500000000016149852700000000000000009999123100000010000000000000BRVAMOACNOR7105
012024100102INTB3       010INTELBRAS   ON      NM   R$  000000000201000000000020650000000002005000000000203400000000020380000000002022000000000203810668000000000003174100000000006457643500000000000000009999123100000010000000000000BRINTBACNOR9112
012024100102IRBR3       010IRBBRASIL REON      NM   R$  000000000447500000000045190000000004444000000000448400000000044810000000004480000000000448104278000000000000732800000000003286253300000000000000009999123100000010000000000000BRIRBRACNOR4111
012024100102LREN3       010LOJAS RENNERON  EJ  NM   R$  000000000181400000000018470000000001787000000000181000000000017870000000001787000000000179225971000000000015674200000000028381472200000000000000009999123100000010000000000000BRLRENACNOR1222
012024100102LUPA3       010LUPATECH    ON      NM   R$  000000000014300000000001430000000000140000000000014100000000001400000000000140000000000014200096000000000000099800000000000014099100000000000000009999123100000010000000000000BRLUPAACNOR8112
012024100102ALLD3       010ALLIED      ON      NM   R$  000000000078700000000007870000000000756000000000077600000000007670000000000766000000000076701516000000000000261700000000000203255500000000000000009999123100000010000000000000BRALLDACNOR3106
012024100102ALOS3       010ALLOS       ON      NM   R$  000000000219300000000022090000000002164000000000218400000000021860000000002184000000000218611417000000000004178400000000009128383500000000000000009999123100000010000000000000BRALOSACNOR5101
012024100102ALPA3       010ALPARGATAS  ON      N1   R$  000000000069100000000006930000000000690000000000069000000000006900000000000690000000000069200029000000000000006300000000000004352100000000000000009999123100000010000000000000BRALPAACNOR0231
012024100102ALPA4       010ALPARGATAS  PN      N1   R$  000000000069600000000007040000000000688000000000069400000000006920000000000692000000000069306247000000000003034100000000002108572400000000000000009999123100000010000000000000BRALPAACNPR7232
012024100102ODPV3       010ODONTOPREV  ON      NM   R$  000000000112500000000011290000000001107000000000111600000000011070000000001106000000000110703874000000000000783600000000000874747200000000000000009999123100000010000000000000BRODPVACNOR4203
012024100102OFSA3       010OUROFINO S/AON      NM   R$  000000000203100000000020560000000002031000000000204900000000020500000000002050000000000210400014000000000000007900000000000016191600000000000000009999123100000010000000000000BROFSAACNOR7118
012024100102ONCO3       010ONCOCLINICASON      NM   R$  000000000045100000000004600000000000437000000000044400000000004490000000000443000000000044904431000000000007910900000000003519904900000000000000009999123100000010000000000000BRONCOACNOR6101
012024100102OPCT3       010OCEANPACT   ON      NM   R$  000000000068700000000006990000000000676000000000068700000000006760000000000675000000000068603056000000000000590700000000000406160500000000000000009999123100000010000000000000BROPCTACNOR0100
012024100102ORVR3       010ORIZON      ON      NM   R$  000000000484400000000048510000000004662000000000473900000000046750000000004675000000000468603245000000000000657000000000003114094100000000000000009999123100000010000000000000BRORVRACNOR0101
012024100102PATI3       010PANATLANTICAON           R$  000000000235000000000023500000000002350000000000235000000000023500000000002330000000000280000001000000000000000100000000000000235000000000000000009999123100000010000000000000BRPATIACNOR6066
012024100102PCAR3       010P.ACUCAR-CBDON      NM   R$  000000000028300000000002840000000000275000000000027800000000002760000000000276000000000027710698000000000010375000000000002890280600000000000000009999123100000010000000000000BRPCARACNOR3167
012024100102PETZ3       010PETZ        ON      NM   R$  000000000047600000000004890000000000474000000000048200000000004880000000000487000000000048807031000000000009459400000000004565559400000000000000009999123100000010000000000000BRPETZACNOR2110
012024100102RCSL3       010RECRUSUL    ON           R$  000000000051800000000005320000000000503000000000051600000000005110000000000511000000000051203313000000000001365700000000000705517400000000000000009999123100000010000000000000BRRCSLACNOR4134
012024100102RCSL4       010RECRUSUL    PN           R$  000000000009600000000000970000000000094000000000009500000000000950000000000094000000000009600261000000000000140800000000000013393300000000000000009999123100000010000000000000BRRCSLACNPR1134
012024100102RDNI3       010RNI         ON      NM   R$  000000000030700000000003160000000000306000000000030600000000003060000000000306000000000030900021000000000000013100000000000004019700000000000000009999123100000010000000000000BRRDNIACNOR9116
012024100102RDOR3       010REDE D OR   ON  EJ  NM   R$  000000000307900000000031160000000003021000000000306200000000030440000000003042000000000304518012000000000004803100000000014711279100000000000000009999123100000010000000000000BRRDORACNOR8114
012024100102TAEE11      010TAESA       UNT     N2   R$  000000000342500000000034530000000003421000000000343100000000034220000000003422000000000342805093000000000001043300000000003579723800000000000000009999123100000010000000000000BRTAEECDAM10148
012024100102TAEE3       010TAESA       ON      N2   R$  000000000115200000000011520000000001139000000000114300000000011430000000001140000000000114500316000000000000057600000000000065869400000000000000009999123100000010000000000000BRTAEEACNOR9148
012024100102TAEE4       010TAESA       PN      N2   R$  000000000114700000000011550000000001146000000000114900000000011490000000001148000000000114900719000000000000157600000000000181121400000000000000009999123100000010000000000000BRTAEEACNPR6148
012024100102TASA3       010TAURUS ARMASON      N2   R$  000000000108000000000010930000000001075000000000108000000000010750000000001075000000000109100074000000000000024600000000000026592100000000000000009999123100000010000000000000BRTASAACNOR7104
012024100102TASA4       010TAURUS ARMASPN      N2   R$  000000000104300000000010620000000001041000000000105100000000010570000000001055000000000105701036000000000000203500000000000213981800000000000000009999123100000010000000000000BRTASAACNPR4104
012024100102TCSA3       010TECNISA     ON      NM   R$  000000000018800000000001900000000000186000000000018700000000001860000000000186000000000018700119000000000000049000000000000009188700000000000000009999123100000010000000000000BRTCSAACNOR3112
012024100102TECN3       010TECHNOS     ON      NM   R$  000000000049600000000004970000000000485000000000049200000000004850000000000485000000000049000211000000000000063600000000000031301900000000000000009999123100000010000000000000BRTECNACNOR6109
012024100102TELB3       010TELEBRAS    ON           R$  000000000154000000000015400000000001467000000000149500000000014670000000001432000000000148700010000000000000001000000000000001495300000000000000009999123100000010000000000000BRTELBACNOR2140
012024100102TELB4       010TELEBRAS    PN           R$  000000000093500000000009410000000000930000000000093800000000009400000000000934000000000095500017000000000000005300000000000004975900000000000000009999123100000010000000000000BRTELBACNPR9140
012024100102TEND3       010TENDA       ON      NM   R$  000000000124800000000013140000000001247000000000128800000000012930000000001292000000000129313196000000000005844500000000007532040200000000000000009999123100000010000000000000BRTENDACNOR4111
012024100102TFCO4       010TRACK FIELD PN  EJ  N2   R$  000000000106200000000010810000000001047000000000106700000000010680000000001065000000000106800719000000000000158500000000000169185300000000000000009999123100000010000000000000BRTFCOACNPR8115
012024100102MILS3       010MILLS       ON      NM   R$  000000000110600000000011290000000001098000000000111100000000010980000000001097000000000109804084000000000000894200000000000993661300000000000000009999123100000010000000000000BRMILSACNOR2128
012024100102MLAS3       010MULTILASER  ON      NM   R$  000000000016200000000001710000000000162000000000016800000000001650000000000165000000000016703729000000000002780200000000000469187500000000000000009999123100000010000000000000BRMLASACNOR9101
012024100102MNDL3       010MUNDIAL     ON           R$  000000000154400000000015600000000001544000000000154800000000015600000000001182000000000156800004000000000000000500000000000000774400000000000000009999123100000010000000000000BRMNDLACNOR4109
012024100102MOVI3       010MOVIDA      ON      NM   R$  000000000061600000000006340000000000603000000000061300000000006060000000000605000000000060607843000000000004605400000000002825232000000000000000009999123100000010000000000000BRMOVIACNOR0122
012024100102MRFG3       010MARFRIG     ON      NM   R$  000000000137200000000013990000000001361000000000137500000000013750000000001375000000000137612772000000000007494000000000010309262900000000000000009999123100000010000000000000BRMRFGACNOR0116
012024100102DESK3       010DESKTOP     ON      NM   R$  000000000147500000000014900000000001449000000000146100000000014490000000001449000000000146300617000000000000113900000000000166457500000000000000009999123100000010000000000000BRDESKACNOR2104
012024100102DEXP3       010DEXXOS PAR  ON      N1   R$  000000000090000000000009090000000000885000000000089700000000008870000000000887000000000089400329000000000000073900000000000066291800000000000000009999123100000010000000000000BRDEXPACNOR1105
012024100102DIRR3       010DIRECIONAL  ON      NM   R$  000000000302500000000030750000000003013000000000304300000000030460000000003036000000000304607501000000000001766200000000005375397100000000000000009999123100000010000000000000BRDIRRACNOR0119
012024100102DMVF3       010D1000VFARMA ON      NM   R$  000000000061600000000006200000000000604000000000061100000000006040000000000604000000000060700333000000000000049500000000000030284000000000000000009999123100000010000000000000BRDMVFACNOR9100
012024100102DOHL4       010DOHLER      PN           R$  000000000041900000000004190000000000404000000000041200000000004190000000000401000000000041800009000000000000000900000000000000370900000000000000009999123100000010000000000000BRDOHLACNPR9066
012024100102DOTZ3       010DOTZ SA     ON      NM   R$  000000000049000000000005050000000000479000000000048400000000004800000000000480000000000048500087000000000000016400000000000007951400000000000000009999123100000010000000000000BRDOTZACNOR7101
012024100102DTCY3       010DTCOM-DIRECTON           R$  000000000041000000000004350000000000410000000000042200000000004350000000000400000000000043300006000000000000000600000000000000253500000000000000009999123100000010000000000000BRDTCYACNOR5109
012024100102DXCO3       010DEXCO       ON      NM   R$  000000000085700000000008870000000000857000000000087200000000008720000000000867000000000087210034000000000005426100000000004735491300000000000000009999123100000010000000000000BRDXCOACNOR8105
012024100102GGPS3       010GPS         ON      NM   R$  000000000190900000000019440000000001829000000000186100000000018380000000001830000000000183809778000000000002880200000000005360089600000000000000009999123100000010000000000000BRGGPSACNOR9103
012024100102GMAT3       010GRUPO MATEUSON  EJ  NM   R$  000000000074900000000007490000000000732000000000073800000000007320000000000732000000000073309287000000000004902400000000003622418000000000000000009999123100000010000000000000BRGMATACNOR7103
012024100102GOAU3       010GERDAU MET  ON      N1   R$  000000000108500000000010870000000001062000000000107000000000010670000000001065000000000106800388000000000000065400000000000070042000000000000000009999123100000010000000000000BRGOAUACNOR1268
012024100102GOAU4       010GERDAU MET  PN      N1   R$  000000000109200000000010990000000001079000000000108700000000010870000000001085000000000108808277000000000005980100000000006503184500000000000000009999123100000010000000000000BRGOAUACNPR8269
012024100102AZZA3       010AZZAS 2154  ON      NM   R$  000000000425500000000043010000000004159000000000423700000000041760000000004173000000000417612695000000000004024200000000017051127400000000000000009999123100000010000000000000BRAZZAACNOR9100
012024100102B3SA3       010B3          ON  EDJ NM   R$  000000000108600000000010930000000001071000000000107800000000010710000000001071000000000107533378000000000038491000000000041504823900000000000000009999123100000010000000000000BRB3SAACNOR6134
012024100102CPLE3       010COPEL       ON  EDJ N2   R$  000000000090500000000009090000000000895000000000090300000000009060000000000903000000000090708456000000000015077400000000013619838000000000000000009999123100000010000000000000BRCPLEACNOR8150
012024100102CPLE5       010COPEL       PNA EDJ N2   R$  000000000145600000000015690000000001298000000000145400000000013140000000001314000000000141300012000000000000001200000000000001744900000000000000009999123100000010000000000000BRCPLEACNPA1148
012024100102CPLE6       010COPEL       PNB EDJ N2   R$  000000000101600000000010170000000000997000000000100700000000010060000000001005000000000100715568000000000013411400000000013513530800000000000000009999123100000010000000000000BRCPLEACNPB9147
012024100102ELMD3       010ELETROMIDIA ON      NM   R$  000000000164700000000016740000000001630000000000165800000000016590000000001659000000000166500367000000000000082500000000000136835700000000000000009999123100000010000000000000BRELMDACNOR3101
012024100102EMAE4       010EMAE        PN  EJ       R$  000000000391000000000039490000000003905000000000391600000000039390000000003895000000000393700009000000000000001200000000000004699200000000000000009999123100000010000000000000BREMAEACNPR1126
012024100102EMBR3       010EMBRAER     ON      NM   R$  000000000485500000000048550000000004713000000000476700000000047130000000004713000000000472015827000000000003854700000000018377465200000000000000009999123100000010000000000000BREMBRACNOR4191
012024100102JHSF3       010JHSF PART   ON  ED  NM   R$  000000000040900000000004420000000000407000000000043300000000004310000000000430000000000043107250000000000016198900000000007023493200000000000000009999123100000010000000000000BRJHSFACNOR2140
012024100102JOPA3       010JOSAPAR     ON           R$  000000000210000000000021000000000002100000000000210000000000021000000000002103000000000220000004000000000000000800000000000001680000000000000000009999123100000010000000000000BRJOPAACNOR5135
012024100102JSLG3       010JSL         ON      NM   R$  000000000088100000000009000000000000878000000000088600000000008860000000000878000000000088601520000000000000289000000000000256211200000000000000009999123100000010000000000000BRJSLGACNOR2121
012024100102KEPL3       010KEPLER WEBERON      NM   R$  000000000099300000000009990000000000977000000000098600000000009790000000000979000000000098605072000000000001228000000000001211846000000000000000009999123100000010000000000000BRKEPLACNOR1064
012024100107TXRX4       010TEX RENAUX  PN           R$  000000000022600000000002260000000000226000000000022600000000002260000000000226000000000023500003000000000000000600000000000000135600000000000000009999123100000010000000000000BRTXRXACNPR0142
012024100107NUTR3       010NUTRIPLANT  ON      MA   R$  000000000045500000000004730000000000455000000000046200000000004630000000000461000000000047500014000000000000001500000000000000693600000000000000009999123100000010000000000000BRNUTRACNOR0104
012024100108AMER3       010AMERICANAS  ON      NM   R$  000000000046900000000004770000000000435000000000045000000000004560000000000456000000000045703387000000000004233600000000001905430100000000000000009999123100000010000000000000BRAMERACNOR6103
012024100108HOOT4       010HOTEIS OTHONPN           R$  000000000022500000000002260000000000225000000000022500000000002260000000000226000000000023700021000000000000003500000000000000788500000000000000009999123100000010000000000000BRHOOTACNPR9015
012024100108ATMP3       010ATMASA      ON           R$  000000000015400000000001620000000000153000000000015600000000001560000000000156000000000016000017000000000000003500000000000000548600000000000000009999123100000010000000000000BRATMPACNOR8100
012024100108PMAM3       010PARANAPANEMAON  ES  NM   R$  000000000016200000000001620000000000157000000000015900000000001570000000000157000000000015800125000000000000072400000000000011547000000000000000009999123100000010000000000000BRPMAMACNOR3040
012024100108NEXP3       010NEXPE       ON           R$  000000000040900000000004090000000000400000000000040200000000004020000000000401000000000040600007000000000000001100000000000000443100000000000000009999123100000010000000000000BRNEXPACNOR0101
012024100108AGXY3       010AGROGALAXY  ON      NM   R$  000000000005800000000000600000000000058000000000005800000000000590000000000058000000000005900284000000000000206900000000000012117800000000000000009999123100000010000000000000BRAGXYACNOR4103
012024100108LIGT3       010LIGHT S/A   ON      NM   R$  000000000072100000000007210000000000680000000000069200000000006860000000000686000000000069002414000000000000545300000000000377439700000000000000009999123100000010000000000000BRLIGTACNOR2124
012024100108CTSA3       010SANTANENSE  ON           R$  000000000027300000000002800000000000263000000000026500000000002690000000000265000000000026900015000000000000002500000000000000664700000000000000009999123100000010000000000000BRCTSAACNOR3062
012024100108CTSA4       010SANTANENSE  PN           R$  000000000012900000000001320000000000129000000000013000000000001310000000000130000000000013100026000000000000015000000000000001952700000000000000009999123100000010000000000000BRCTSAACNPR0062
012024100108RNEW11      010RENOVA      UNT     N2   R$  000000000033100000000003310000000000298000000000031300000000003110000000000303000000000031400113000000000000032200000000000010079000000000000000009999123100000010000000000000BRRNEWCDAM15110
012024100108RNEW3       010RENOVA      ON      N2   R$  000000000011300000000001130000000000091000000000009900000000001020000000000102000000000010300665000000000000695900000000000069216100000000000000009999123100000010000000000000BRRNEWACNOR8110
012024100108RNEW4       010RENOVA      PN      N2   R$  000000000011200000000001130000000000098000000000010300000000001040000000000103000000000010400801000000000000987800000000000102444000000000000000009999123100000010000000000000BRRNEWACNPR5110
012024100108RPMG3       010PET MANGUINHON           R$  000000000029900000000003050000000000298000000000030100000000003010000000000301000000000030600034000000000000038400000000000011589500000000000000009999123100000010000000000000BRRPMGACNOR9194
012024100108RSID3       010ROSSI RESID ON      NM   R$  000000000033100000000003390000000000320000000000032200000000003290000000000322000000000032900115000000000000040600000000000013103400000000000000009999123100000010000000000000BRRSIDACNOR8120
012024100108OIBR3       010OI          ON      N1   R$  000000000054900000000005590000000000527000000000053900000000005280000000000527000000000052800976000000000000797400000000000430115300000000000000009999123100000010000000000000BROIBRACNOR1112
012024100108OIBR4       010OI          PN      N1   R$  000000000113900000000011950000000001124000000000114300000000011950000000001116000000000119500031000000000000005200000000000005945800000000000000009999123100000010000000000000BROIBRACNPR8111
012024100108OSXB3       010OSX BRASIL  ON      NM   R$  000000000042900000000004300000000000420000000000042200000000004300000000000404000000000043000019000000000000015700000000000006635600000000000000009999123100000010000000000000BROSXBACNOR8109
012024100108JFEN3       010JOAO FORTES ON           R$  000000000003100000000000340000000000029000000000003100000000000300000000000030000000000003101835000000000006623300000000000210569600000000000000009999123100000010000000000000BRJFENACNOR0059
012024100110PMAM1       010PARANAPANEMADIR ORD NM   R$  000000000000100000000000020000000000001000000000000100000000000010000000000000000000000000100130000000000003605200000000000003605400000000000000009999123100000010000000000000BRPMAMD05OR9039
012024100110BGIP2       010BANESE      DIR PRE      R$  000000000025300000000002530000000000253000000000025300000000002530000000000190000000000021900001000000000000000100000000000000025300000000000000009999123100000010000000000000BRBGIPD08PR8209
012024100110CBEE1       010AMPLA ENERG DIR ORD      R$  000000000042500000000004250000000000425000000000042500000000004250000000000012000000000042500009000000000000001400000000000000595000000000000000009999123100000010000000000000BRCBEED07OR5159
012024100110EQTL9       010EQUATORIAL  ON  REC NM   R$  000000000315100000000032980000000003151000000000325800000000032800000000003244000000000328000173000000000000123700000000000403104200000000000000009999123100000010000000000000BREQTLR04OR9130
012024100110DASA1       010DASA        DIR ORD NM   R$  000000000000200000000000030000000000002000000000000200000000000030000000000002000000000000300135000000000000378100000000000001020700000000000000009999123100000010000000000000BRDASAD04OR0122
012024100110ZAMP9       010ZAMP S.A.   ON  REC      R$  000000000024000000000002640000000000240000000000025300000000002550000000000243000000000025700056000000000000171300000000000043428600000000000000009999123100000010000000000000BRZAMPR01OR0100
012024100112MALL11      010FII MALLS BPCI  ER       R$  000000001007800000000101720000000010001000000001006000000000100850000000010061000000001008505009000000000000025546000000000257012232000000000000009999123100000010000000000000BRMALLCTF007185
012024100112MANA11      010FII MANATI  CI  ER       R$  000000000087300000000008920000000000872000000000087900000000008820000000000875000000000088214065000000000000133343000000000117227459000000000000009999123100000010000000000000BRMANACTF006129
012024100112MAXR11      010FII MAX RET CI           R$  000000000750500000000075050000000007438000000000749100000000074990000000007443000000000749900042000000000000000407000000000003049037000000000000009999123100000010000000000000BRMAXRCTF009271
012024100112MCCI11      010FII MAUA    CI           R$  000000000879200000000088120000000008595000000000870000000000087080000000008708000000000874612617000000000000071895000000000625529968000000000000009999123100000010000000000000BRMCCICTF008165
012024100112MCHY11      010FII MAUA HY CI           R$  000000000087900000000008860000000000875000000000087900000000008800000000000877000000000088043612000000000000724005000000000636853609000000000000009999123100000010000000000000BRMCHYCTF004141
012024100112MFAI11      010FII MERITOFACI           R$  000000000663400000000068500000000006566000000000663700000000066390000000006639000000000683600096000000000000003309000000000021963636000000000000009999123100000010000000000000BRMFAICTF005154
012024100112MFCR11      010FII MERITO RCI  ER       R$  000000000252600000000026870000000002525000000000253500000000026870000000002600000000000268000010000000000000000229000000000000580690000000000000009999123100000010000000000000BRMFCRCTF002128
012024100112MFII11      010FII MERITO ICI  ER       R$  000000001004900000000100490000000009905000000000998900000000100420000000010000000000001004201034000000000000008155000000000081464374000000000000009999123100000010000000000000BRMFIICTF008239
012024100112MGHT11      010FII MOGNO HTCI           R$  000000000194500000000020300000000001945000000000199300000000019610000000001961000000000198900639000000000000002051000000000004087712000000000000009999123100000010000000000000BRMGHTCTF005155
012024100112APTO11      010FII NAVI RSDCI  ER       R$  000000000096900000000009690000000000924000000000094500000000009490000000000947000000000094900193000000000000002430000000000002297267000000000000009999123100000010000000000000BRAPTOCTF007135
012024100112EGYR11      010FII ENERGY  CI           R$  000000000034600000000004000000000000346000000000038700000000003900000000000354000000000039000019000000000000000113000000000000043815000000000000009999123100000010000000000000BREGYRCTF001102
012024100112HBCR11      010FII HBC REN CI  ER       R$  000000001345000000000134500000000013400000000001340000000000134000000000010272000000000000000003000000000000373136000000005000022450000000000000009999123100000010000000000000BRHBCRCTF001146
012024100112HCHG11      010FII HECT CRICI  ER       R$  000000000687800000000068780000000006878000000000687800000000068780000000006344000000000689900001000000000000000004000000000000027512000000000000009999123100000010000000000000BRHCHGCTF001141
012024100112HLOG11      010FII HEDGELOGCI  ER       R$  000000000849800000000085730000000008409000000000850600000000085730000000008550000000000857300057000000000000000472000000000004014958000000000000009999123100000010000000000000BRHLOGCTF008160
012024100112HOFC11      010FII HOFFICEICI           R$  000000000279000000000027900000000002554000000000266200000000027790000000002700000000000277900053000000000000002121000000000005646595000000000000009999123100000010000000000000BRHOFCCTF009115
012024100112HOSI11      010FII HOUSI   CI  ER       R$  000000000950000000000095000000000009497000000000949700000000094980000000009361000000000949800017000000000000000117000000000001111253000000000000009999123100000010000000000000BRHOSICTF009149
012024100112HPDP11      010FII HEDGEPDPCI  ER       R$  000000000846800000000087500000000008468000000000870800000000087410000000008487000000000873800013000000000000000082000000000000714135000000000000009999123100000010000000000000BRHPDPCTF003156
012024100112HRDF11      010FII HREALTY CI           R$  000000000034400000000003440000000000312000000000033600000000003120000000000318000000000034400002000000000000000004000000000000001344000000000000009999123100000010000000000000BRHRDFCTF000103
012024100112HREC11      010FII HEDGERECCI  ER       R$  000000000084400000000008480000000000820000000000083600000000008450000000000830000000000085501040000000000000037306000000000031199167000000000000009999123100000010000000000000BRHRECCTF005154
012024100112HSAF11      010FII HSI CRI CI  ER       R$  000000000811800000000081180000000007950000000000803300000000080300000000008012000000000803002249000000000000010208000000000082005070000000000000009999123100000010000000000000BRHSAFCTF004152
012024100112HSLG11      010FII HSI LOG CI  ER       R$  000000000851200000000085130000000008377000000000840300000000083770000000008377000000000838302661000000000000006095000000000051220760000000000000009999123100000010000000000000BRHSLGCTF009146
012024100112HSML11      010FII HSI MALLCI  ER       R$  000000000916000000000092130000000008970000000000901100000000089930000000008990000000000899311257000000000000049178000000000443180707000000000000009999123100000010000000000000BRHSMLCTF007165
012024100112HSRE11      010FII HSIRENDACI  ER       R$  000000000970000000000097000000000009500000000000958500000000095000000000009500000000000960000011000000000000000042000000000000402600000000000000009999123100000010000000000000BRHSRECTF001145
012024100112SADI11      010FII SANT PAPCI  ER       R$  000000000894700000000089470000000008835000000000888700000000088350000000008830000000000885000192000000000000001928000000000017135799000000000000009999123100000010000000000000BRSADICTF007163
012024100112GAME11      010FII GUARD MUCI           R$  000000000090900000000009110000000000897000000000090200000000009010000000000899000000000090101084000000000000020117000000000018158040000000000000009999123100000010000000000000BRGAMECTF002135
012024100112GARE11      010FII GUARDIANCI  ER       R$  000000000090100000000009100000000000901000000000090600000000009060000000000904000000000090636903000000000000843612000000000764723806000000000000009999123100000010000000000000BRGARECTF001108
012024100112GCRI11      010FII GLPG CRICI           R$  000000000670900000000067090000000006527000000000655600000000065700000000006542000000000657000322000000000000005047000000000033088274000000000000009999123100000010000000000000BRGCRICTF008147
012024100112TRXB11      010FII TRX R IICI  ER       R$  000000001280000000000128000000000012800000000001280000000000128000000000012552000000001279900005000000000000000043000000000000550400000000000000009999123100000010000000000000BRTRXBCTF002155
012024100112TRXF11      010FII TRX REALCI  ER       R$  000000001049500000000105420000000010410000000001047000000000104100000000010410000000001045911949000000000000051140000000000535442648000000000000009999123100000010000000000000BRTRXFCTF003168
012024100112TVRI11      010FII TIVIO RICI  ER       R$  000000000990000000000099420000000009698000000000980900000000097500000000009748000000000975002223000000000000012439000000000122017592000000000000009999123100000010000000000000BRTVRICTF001112
012024100112ASMT11      010FII ASA MET CI           R$  000000000365000000000036500000000003650000000000365000000000036500000000003652000000000387000001000000000000000001000000000000003650000000000000009999123100000010000000000000BRASMTCTF005107
012024100112ATSA11      010FII HATRIUM CI  ER       R$  000000000549700000000054970000000005434000000000548100000000054340000000005300000000000555000003000000000000000014000000000000076739000000000000009999123100000010000000000000BRATSACTF000145
012024100112URHF11      010FII URHF    CI  ER       R$  000000001000000000000114000000000010000000000001076000000000112000000000010001000000001119900003000000000000000005000000000000053800000000000000009999123100000010000000000000BRURHFCTF004103
012024100112URPR11      010FII URCA RENCI  ER       R$  000000000784100000000079000000000007730000000000778000000000077850000000007784000000000778502611000000000000043722000000000340175842000000000000009999123100000010000000000000BRURPRCTF002162
012024100112VCJR11      010FII VECTIS  CI  ER       R$  000000000887600000000089240000000008641000000000874600000000087580000000008721000000000875805426000000000000030593000000000267586451000000000000009999123100000010000000000000BRVCJRCTF005159
012024100112VCRI11      010FII VINCI CRCI  ER       R$  000000000081600000000008180000000000805000000000080900000000008100000000000809000000000081000334000000000000033713000000000027296546000000000000009999123100000010000000000000BRVCRICTF007129
012024100112VCRR11      010FII VECT RENCI  ER       R$  000000000660000000000066000000000006451000000000649400000000064850000000006485000000000652800276000000000000001843000000000011968879000000000000009999123100000010000000000000BRVCRRCTF008140
012024100112VGHF11      010FII VALOR HECI  ER       R$  000000000084000000000008430000000000820000000000082700000000008240000000000823000000000082426442000000000000755368000000000624855425000000000000009999123100000010000000000000BRVGHFCTF005148
012024100112VGIP11      010FII VALORAIPCI           R$  000000000850000000000085210000000008375000000000841800000000084120000000008412000000000842803048000000000000046731000000000393396465000000000000009999123100000010000000000000BRVGIPCTF002159
012024100112VGIR11      010FII VALREIIICI           R$  000000000097800000000009840000000000975000000000097800000000009810000000000981000000000098236805000000000000616976000000000603491840000000000000009999123100000010000000000000BRVGIRCTF008180
012024100112VGRI11      010FII VGRI    CI  ER       R$  000000000088700000000008990000000000874000000000088300000000008880000000000888000000000089711535000000000000050554000000000044675638000000000000009999123100000010000000000000BRVGRICTF008108
012024100112VIFI11      010FII VINCI IFCI  ER       R$  000000000076100000000007610000000000739000000000074400000000007410000000000740000000000074400687000000000000025092000000000018690945000000000000009999123100000010000000000000BRVIFICTF009160
012024100112VILG11      010FII VINCI LGCI  ER       R$  000000000837100000000083870000000008101000000000817300000000081550000000008150000000000815509412000000000000059081000000000482892681000000000000009999123100000010000000000000BRVILGCTF001175
012024100112VINO11      010FII VINCI OFCI  ER       R$  000000000050600000000005130000000000500000000000050600000000005010000000000501000000000050210323000000000000239450000000000121278699000000000000009999123100000010000000000000BRVINOCTF001161
012024100112VISC11      010FII VINCI SCCI  ER       R$  000000001076000000000107600000000010555000000001060200000000105900000000010579000000001059011824000000000000064672000000000685696776000000000000009999123100000010000000000000BRVISCCTF005190
012024100112VIUR11      010FII VINCI IUCI  ER       R$  000000000062700000000006280000000000616000000000061900000000006180000000000617000000000061800805000000000000023122000000000014330851000000000000009999123100000010000000000000BRVIURCTF009141
012024100112PEMA11      010FII PERFORMACI  ER       R$  000000000360000000000036000000000003600000000000360000000000036000000000003600000000000400000001000000000000000001000000000000003600000000000000009999123100000010000000000000BRPEMACTF003139
