00COTAHIST.2024BOVESPA 20241015                                                                                                                                                                                                                      
012024101502SMTO3       010SAO MARTINHOON      NM   R$  000000000264600000000026840000000002627000000000265700000000026820000000002668000000000268207076000000000001213300000000003224367500000000000000009999123100000010000000000000BRSMTOACNOR3127
012024101502SNSY5       010SANSUY      PNA          R$  000000000050100000000005180000000000500000000000050500000000005000000000000486000000000051800008000000000000001100000000000000555700000000000000009999123100000010000000000000BRSNSYACNPA5111
012024101502SOJA3       010BOA SAFRA   ON  EJ  NM   R$  000000000121000000000012320000000001206000000000121700000000012100000000001209000000000121101855000000000000317100000000000386010500000000000000009999123100000010000000000000BRSOJAACNOR9106
012024101502EMAE4       010EMAE        PN           R$  000000000392100000000039640000000003917000000000393400000000039290000000003929000000000393500010000000000000001500000000000005901400000000000000009999123100000010000000000000BREMAEACNPR1126
012024101502EMBR3       010EMBRAER     ON      NM   R$  000000000464500000000047230000000004556000000000460300000000045690000000004568000000000457015258000000000004277800000000019693787400000000000000009999123100000010000000000000BREMBRACNOR4191
012024101502SRNA3       010SERENA      ON      NM   R$  000000000080400000000008200000000000798000000000080500000000008000000000000798000000000080405156000000000002342100000000001887247700000000000000009999123100000010000000000000BRSRNAACNOR4100
012024101502STBP3       010SANTOS BRP  ON      NM   R$  000000000147900000000014870000000001470000000000147300000000014760000000001471000000000147606703000000000007405200000000010912133400000000000000009999123100000010000000000000BRSTBPACNOR3131
012024101502SUZB3       010SUZANO S.A. ON      NM   R$  000000000545600000000054860000000005409000000000545100000000054720000000005451000000000547214872000000000004039000000000022017444700000000000000009999123100000010000000000000BRSUZBACNOR0130
012024101502ZAMP3       010ZAMP S.A.   ON           R$  000000000025100000000002580000000000245000000000024900000000002530000000000250000000000025301341000000000000454100000000000113427300000000000000009999123100000010000000000000BRZAMPACNOR5101
012024101502JALL3       010JALLESMACHADON      NM   R$  000000000063700000000006550000000000611000000000061900000000006120000000000612000000000061503844000000000001832400000000001134401000000000000000009999123100000010000000000000BRJALLACNOR0106
012024101502JBSS3       010JBS         ON      NM   R$  000000000326000000000033580000000003257000000000333200000000033570000000003355000000000335825815000000000007671500000000025561452600000000000000009999123100000010000000000000BRJBSSACNOR8122
012024101502LUPA3       010LUPATECH    ON      NM   R$  000000000014200000000001430000000000141000000000014100000000001410000000000141000000000014200049000000000000038700000000000005482500000000000000009999123100000010000000000000BRLUPAACNOR8112
012024101502SLCE3       010SLC AGRICOLAON      NM   R$  000000000171500000000017390000000001708000000000172900000000017330000000001732000000000173406646000000000001640700000000002837065100000000000000009999123100000010000000000000BRSLCEACNOR2125
012024101502VALE3       010VALE        ON      NM   R$  000000000611000000000061200000000006057000000000609000000000061170000000006112000000000611748942000000000025559300000000155670581900000000000000009999123100000010000000000000BRVALEACNOR0211
012024101502BEEF3       010MINERVA     ON      NM   R$  000000000056000000000005640000000000550000000000055400000000005510000000000551000000000055313114000000000010522500000000005836746600000000000000009999123100000010000000000000BRBEEFACNOR6116
012024101502BPAC11      010BTGP BANCO  UNT     N2   R$  000000000328000000000033350000000003273000000000331200000000033100000000003308000000000331119106000000000007046200000000023338082100000000000000009999123100000010000000000000BRBPACUNT006119
012024101502BPAC3       010BTGP BANCO  ON      N2   R$  000000000158100000000015950000000001581000000000158600000000015950000000001559000000000160000024000000000000002500000000000003967300000000000000009999123100000010000000000000BRBPACACNOR7134
012024101502BPAC5       010BTGP BANCO  PNA     N2   R$  000000000084700000000008740000000000847000000000085800000000008520000000000855000000000087300028000000000000004400000000000003775900000000000000009999123100000010000000000000BRBPACACNPA0134
012024101502CXSE3       010CAIXA SEGURION      NM   R$  000000000144000000000014470000000001428000000000143700000000014350000000001435000000000143608617000000000003673300000000005281471900000000000000009999123100000010000000000000BRCXSEACNOR7107
012024101502CYRE3       010CYRELA REALTON      NM   R$  000000000218800000000022090000000002166000000000218800000000022000000000002198000000000220113890000000000006040500000000013219328000000000000000009999123100000010000000000000BRCYREACNOR7140
012024101502EUCA4       010EUCATEX     PN      N1   R$  000000000149200000000015090000000001479000000000149500000000015070000000001496000000000150800188000000000000047700000000000071349800000000000000009999123100000010000000000000BREUCAACNPR8044
012024101502EVEN3       010EVEN        ON  ED  NM   R$  000000000064800000000006670000000000647000000000065900000000006620000000000657000000000066204881000000000001615700000000001066214200000000000000009999123100000010000000000000BREVENACNOR8120
012024101502EZTC3       010EZTEC       ON      NM   R$  000000000144400000000014620000000001414000000000143100000000014330000000001427000000000143405253000000000001903200000000002725378900000000000000009999123100000010000000000000BREZTCACNOR0126
012024101502FESA3       010FERBASA     ON      N1   R$  000000000132100000000013210000000001288000000000130400000000012880000000001275000000000131600004000000000000000400000000000000521700000000000000009999123100000010000000000000BRFESAACNOR8189
012024101502FESA4       010FERBASA     PN      N1   R$  000000000077700000000007800000000000764000000000076800000000007670000000000765000000000076701166000000000000306600000000000235648600000000000000009999123100000010000000000000BRFESAACNPR5085
012024101502FHER3       010FER HERINGERON      NM   R$  000000000037600000000003800000000000374000000000037600000000003750000000000375000000000038000011000000000000002100000000000000791100000000000000009999123100000010000000000000BRFHERACNOR5103
012024101502FIQE3       010UNIFIQUE    ON      NM   R$  000000000038600000000003950000000000386000000000039000000000003880000000000388000000000039100500000000000000296900000000000115999500000000000000009999123100000010000000000000BRFIQEACNOR5107
012024101502FLRY3       010FLEURY      ON      NM   R$  000000000147900000000015080000000001474000000000149800000000015060000000001505000000000150607018000000000002366800000000003547533100000000000000009999123100000010000000000000BRFLRYACNOR5139
012024101502B3SA3       010B3          ON      NM   R$  000000000109000000000011000000000001079000000000108600000000010840000000001083000000000108532889000000000030199500000000032801374400000000000000009999123100000010000000000000BRB3SAACNOR6134
012024101502BBSE3       010BBSEGURIDADEON      NM   R$  000000000339900000000034290000000003385000000000339600000000033930000000003392000000000339409230000000000006221700000000021130080800000000000000009999123100000010000000000000BRBBSEACNOR5125
012024101502BSLI3       010BRB BANCO   ON           R$  000000000092100000000009210000000000921000000000092100000000009210000000000905000000000095800001000000000000000300000000000000276300000000000000009999123100000010000000000000BRBSLIACNOR5194
012024101502BSLI4       010BRB BANCO   PN           R$  000000000089700000000009200000000000897000000000090300000000009200000000000902000000000092000010000000000000001700000000000001535100000000000000009999123100000010000000000000BRBSLIACNPR2194
012024101502VITT3       010VITTIA      ON      NM   R$  000000000056000000000005660000000000547000000000055300000000005530000000000550000000000055300918000000000000212900000000000117850000000000000000009999123100000010000000000000BRVITTACNOR4107
012024101502VIVA3       010VIVARA S.A. ON      NM   R$  000000000268000000000027290000000002657000000000268900000000026750000000002675000000000268210882000000000002000300000000005379872400000000000000009999123100000010000000000000BRVIVAACNOR0107
012024101502VIVR3       010VIVER       ON      NM   R$  000000000017900000000001790000000000173000000000017500000000001730000000000173000000000017500142000000000000099000000000000017330000000000000000009999123100000010000000000000BRVIVRACNOR4123
012024101502VIVT3       010TELEF BRASILON           R$  000000000532500000000053800000000005307000000000532800000000053150000000005315000000000532413695000000000002297200000000012240637400000000000000009999123100000010000000000000BRVIVTACNOR0184
012024101502POSI3       010POSITIVO TECON      NM   R$  000000000060300000000006200000000000588000000000059900000000005930000000000592000000000059402933000000000001657100000000000993735200000000000000009999123100000010000000000000BRPOSIACNOR9116
012024101502PRIO3       010PETRORIO    ON      NM   R$  000000000420900000000043440000000004199000000000429900000000043300000000004330000000000433331062000000000014741100000000063378112400000000000000009999123100000010000000000000BRPRIOACNOR1107
012024101502VAMO3       010VAMOS       ON      NM   R$  000000000056600000000005790000000000560000000000056900000000005670000000000567000000000056807819000000000005921300000000003373331300000000000000009999123100000010000000000000BRVAMOACNOR7105
012024101502VBBR3       010VIBRA       ON      NM   R$  000000000229300000000023290000000002287000000000231500000000023270000000002315000000000232716045000000000006502000000000015058070500000000000000009999123100000010000000000000BRVBBRACNOR1109
012024101502LAND3       010TERRASANTAPAON      NM   R$  000000000132700000000013540000000001325000000000133800000000013440000000001322000000000135000131000000000000018300000000000024502600000000000000009999123100000010000000000000BRLANDACNOR9103
012024101502LAVV3       010LAVVI       ON      NM   R$  000000000081700000000008340000000000815000000000082600000000008210000000000815000000000082202820000000000000713000000000000589353200000000000000009999123100000010000000000000BRLAVVACNOR4113
012024101502PDGR3       010PDG REALT   ON      NM   R$  000000000000100000000000020000000000001000000000000100000000000010000000000001000000000000200773000000000069478100000000000071959200000000000000009999123100000010000000000000BRPDGRACNOR8119
012024101502PDTC3       010PADTEC      ON      NM   R$  000000000018700000000001870000000000178000000000018300000000001850000000000184000000000018500069000000000000062500000000000011453800000000000000009999123100000010000000000000BRPDTCACNOR3101
012024101502PETR3       010PETROBRAS   ON      N2   R$  000000000408700000000041080000000004062000000000408300000000040900000000004081000000000409114170000000000006837800000000027919290900000000000000009999123100000010000000000000BRPETRACNOR9206
012024101502PETR4       010PETROBRAS   PN      N2   R$  000000000372100000000037410000000003706000000000372300000000037400000000003740000000000374142296000000000028204600000000105012323600000000000000009999123100000010000000000000BRPETRACNPR6214
012024101502PFRM3       010PROFARMA    ON      NM   R$  000000000059700000000006130000000000589000000000060000000000005900000000000590000000000059600804000000000000241800000000000145319800000000000000009999123100000010000000000000BRPFRMACNOR1116
012024101502PGMN3       010PAGUE MENOS ON      NM   R$  000000000028500000000002930000000000283000000000028800000000002850000000000285000000000028601142000000000000633300000000000182510100000000000000009999123100000010000000000000BRPGMNACNOR8103
012024101502PINE3       010PINE        ON  EJS N2   R$  000000000047900000000004940000000000467000000000047500000000004670000000000467000000000047000054000000000000018200000000000008645500000000000000009999123100000010000000000000BRPINEACNOR1152
012024101502PINE4       010PINE        PN  EJS N2   R$  000000000048000000000004880000000000476000000000048200000000004800000000000480000000000048100648000000000000507300000000000244565800000000000000009999123100000010000000000000BRPINEACNPR8152
012024101502PLPL3       010PLANOEPLANO ON      NM   R$  000000000138500000000014180000000001382000000000139700000000013950000000001394000000000139903192000000000000734200000000001026327000000000000000009999123100000010000000000000BRPLPLACNOR5104
012024101502PNVL3       010DIMED       ON      NM   R$  000000000101700000000010320000000001006000000000101800000000010170000000001016000000000102201998000000000000293400000000000298815100000000000000009999123100000010000000000000BRPNVLACNOR9208
012024101502POMO3       010MARCOPOLO   ON      N2   R$  000000000063300000000006430000000000629000000000063400000000006370000000000637000000000064002661000000000000773600000000000490661200000000000000009999123100000010000000000000BRPOMOACNOR0099
012024101502POMO4       010MARCOPOLO   PN      N2   R$  000000000083900000000008590000000000839000000000084900000000008520000000000852000000000085317573000000000010818200000000009188200500000000000000009999123100000010000000000000BRPOMOACNPR7099
012024101502PORT3       010WILSON SONS ON      NM   R$  000000000163800000000016480000000001625000000000163500000000016320000000001632000000000163302883000000000000914300000000001494972900000000000000009999123100000010000000000000BRPORTACNOR8109
012024101502PCAR3       010P.ACUCAR-CBDON      NM   R$  000000000033000000000003400000000000318000000000032700000000003260000000000326000000000032715488000000000013014500000000004262571600000000000000009999123100000010000000000000BRPCARACNOR3167
012024101502PETZ3       010PETZ        ON      NM   R$  000000000050400000000005100000000000494000000000050100000000005020000000000499000000000050207021000000000005692400000000002856940100000000000000009999123100000010000000000000BRPETZACNOR2110
012024101502RAIZ4       010RAIZEN      PN      N2   R$  000000000029600000000003020000000000295000000000029900000000003010000000000300000000000030106792000000000010640600000000003189163200000000000000009999123100000010000000000000BRRAIZACNPR6111
012024101502RANI3       010IRANI       ON      NM   R$  000000000075800000000007650000000000750000000000075600000000007510000000000751000000000075401784000000000000542400000000000410225600000000000000009999123100000010000000000000BRRANIACNOR5073
012024101502RAPT3       010RANDON PART ON      N1   R$  000000000089000000000009530000000000888000000000092100000000009010000000000893000000000091000328000000000000101100000000000093135900000000000000009999123100000010000000000000BRRAPTACNOR7163
012024101502RAPT4       010RANDON PART PN      N1   R$  000000000109200000000011350000000001092000000000112000000000011300000000001129000000000113209799000000000005023000000000005630543600000000000000009999123100000010000000000000BRRAPTACNPR4163
012024101502TAEE11      010TAESA       UNT     N2   R$  000000000344600000000034820000000003444000000000347000000000034700000000003469000000000347206888000000000001769700000000006142357500000000000000009999123100000010000000000000BRTAEECDAM10148
012024101502TAEE3       010TAESA       ON      N2   R$  000000000115200000000011580000000001147000000000115300000000011560000000001156000000000115700293000000000000047400000000000054690400000000000000009999123100000010000000000000BRTAEEACNOR9148
012024101502TAEE4       010TAESA       PN      N2   R$  000000000115500000000011640000000001155000000000116000000000011640000000001161000000000116400481000000000000103800000000000120481300000000000000009999123100000010000000000000BRTAEEACNPR6148
012024101502LVTC3       010WDC NETWORKSON      NM   R$  000000000037000000000003800000000000363000000000037100000000003750000000000368000000000037600059000000000000021300000000000007907900000000000000009999123100000010000000000000BRLVTCACNOR4102
012024101502LWSA3       010LWSA        ON      NM   R$  000000000042700000000004600000000000425000000000044800000000004450000000000444000000000044517046000000000012660400000000005675149100000000000000009999123100000010000000000000BRLWSAACNOR8103
012024101502NGRD3       010NEOGRID     ON  EBG NM   R$  000000000315000000000032480000000003072000000000314900000000031180000000003061000000000311900134000000000000030500000000000096071100000000000000009999123100000010000000000000BRNGRDACNOR3106
012024101502NINJ3       010GETNINJAS   ON      NM   R$  000000000046800000000004680000000000453000000000046000000000004530000000000453000000000046400010000000000000003100000000000001427200000000000000009999123100000010000000000000BRNINJACNOR5101
012024101502NORD3       010NORDON MET  ON           R$  000000000080000000000008000000000000800000000000080000000000008000000000000758000000000080000005000000000000000500000000000000400000000000000000009999123100000010000000000000BRNORDACNOR7135
012024101502NTCO3       010GRUPO NATURAON      NM   R$  000000000154400000000015840000000001515000000000153900000000015170000000001517000000000151814229000000000007265300000000011184250200000000000000009999123100000010000000000000BRNTCOACNOR5106
012024101502RADL3       010RAIADROGASILON  EDJ NM   R$  000000000249800000000025180000000002479000000000249200000000024860000000002486000000000249316764000000000005249800000000013084801200000000000000009999123100000010000000000000BRRADLACNOR0158
012024101502WEST3       010WESTWING    ON      NM   R$  000000000008000000000000800000000000075000000000007600000000000780000000000077000000000007800049000000000000146700000000000011230600000000000000009999123100000010000000000000BRWESTACNOR3100
012024101502WHRL3       010WHIRLPOOL   ON           R$  000000000042200000000004220000000000422000000000042200000000004220000000000419000000000042200005000000000000000600000000000000253200000000000000009999123100000010000000000000BRWHRLACNOR5129
012024101502WHRL4       010WHIRLPOOL   PN           R$  000000000044600000000004470000000000442000000000044500000000004420000000000443000000000044500010000000000000003200000000000001426200000000000000009999123100000010000000000000BRWHRLACNPR2129
012024101502MATD3       010MATER DEI   ON      NM   R$  000000000043800000000004420000000000430000000000043300000000004320000000000432000000000043501002000000000001025600000000000445099500000000000000009999123100000010000000000000BRMATDACNOR4104
012024101502MBLY3       010MOBLY       ON      NM   R$  000000000021600000000002190000000000214000000000021500000000002150000000000214000000000021500130000000000000077100000000000016591700000000000000009999123100000010000000000000BRMBLYACNOR5100
012024101502MDIA3       010M.DIASBRANCOON      NM   R$  000000000253900000000025520000000002483000000000250100000000024880000000002488000000000249204237000000000000950100000000002377097900000000000000009999123100000010000000000000BRMDIAACNOR7136
012024101502MDNE3       010MOURA DUBEUXON      NM   R$  000000000156000000000015920000000001533000000000155700000000015330000000001533000000000153402453000000000000470600000000000733135700000000000000009999123100000010000000000000BRMDNEACNOR9100
012024101502MEAL3       010IMC S/A     ON      NM   R$  000000000013700000000001430000000000136000000000013700000000001360000000000135000000000013600152000000000000285400000000000039136900000000000000009999123100000010000000000000BRMEALACNOR9105
012024101502ODPV3       010ODONTOPREV  ON      NM   R$  000000000102300000000010430000000001023000000000103200000000010250000000001025000000000103203894000000000001021800000000001054499100000000000000009999123100000010000000000000BRODPVACNOR4204
012024101502OFSA3       010OUROFINO S/AON      NM   R$  000000000212000000000021210000000002063000000000211900000000021210000000002120000000000216000013000000000000022000000000000046636600000000000000009999123100000010000000000000BROFSAACNOR7118
012024101502ONCO3       010ONCOCLINICASON      NM   R$  000000000046600000000004780000000000461000000000046900000000004640000000000464000000000046802900000000000002371500000000001112870200000000000000009999123100000010000000000000BRONCOACNOR6101
012024101502OPCT3       010OCEANPACT   ON      NM   R$  000000000068700000000007030000000000687000000000069500000000006970000000000697000000000069800792000000000000355100000000000246915000000000000000009999123100000010000000000000BROPCTACNOR0100
012024101502RAIL3       010RUMO S.A.   ON      NM   R$  000000000191000000000019300000000001898000000000191000000000019100000000001909000000000191216315000000000013938900000000026626767900000000000000009999123100000010000000000000BRRAILACNOR9105
012024101502SMFT3       010SMART FIT   ON      NM   R$  000000000221600000000022920000000002212000000000227000000000022760000000002275000000000227609068000000000001909500000000004336067200000000000000009999123100000010000000000000BRSMFTACNOR1112
012024101502RCSL3       010RECRUSUL    ON           R$  000000000046600000000004690000000000441000000000045600000000004570000000000456000000000045702382000000000000981000000000000447525900000000000000009999123100000010000000000000BRRCSLACNOR4134
012024101502RCSL4       010RECRUSUL    PN           R$  000000000012900000000001390000000000124000000000013100000000001350000000000135000000000013704242000000000003736500000000000491598200000000000000009999123100000010000000000000BRRCSLACNPR1134
012024101502RDNI3       010RNI         ON      NM   R$  000000000031600000000003180000000000310000000000031100000000003100000000000310000000000031300022000000000000003800000000000001183800000000000000009999123100000010000000000000BRRDNIACNOR9116
012024101502RDOR3       010REDE D OR   ON      NM   R$  000000000299400000000030440000000002982000000000301000000000030130000000003011000000000301412434000000000005623800000000016931590200000000000000009999123100000010000000000000BRRDORACNOR8114
012024101502RECV3       010PETRORECSA  ON      NM   R$  000000000175900000000017740000000001746000000000175500000000017530000000001751000000000175306833000000000002073000000000003640037000000000000000009999123100000010000000000000BRRECVACNOR3107
012024101502REDE3       010REDE ENERGIAON           R$  000000000068500000000006850000000000684000000000068400000000006840000000000684000000000069100005000000000000001000000000000000684900000000000000009999123100000010000000000000BRREDEACNOR7128
012024101502BIOM3       010BIOMM       ON      MA   R$  000000000089000000000009410000000000890000000000092000000000009200000000000920000000000092800139000000000000033800000000000031119700000000000000009999123100000010000000000000BRBIOMACNOR2112
012024101502BRAP3       010BRADESPAR   ON      N1   R$  000000000178500000000017880000000001770000000000177700000000017780000000001775000000000177800430000000000000090300000000000160473100000000000000009999123100000010000000000000BRBRAPACNOR5148
012024101502BRAP4       010BRADESPAR   PN      N1   R$  000000000192900000000019360000000001913000000000192100000000019200000000001920000000000192208223000000000003699300000000007106657400000000000000009999123100000010000000000000BRBRAPACNPR2148
012024101502COCE5       010COELCE      PNA          R$  000000000265000000000027500000000002636000000000270500000000027190000000002680000000000272000060000000000000121000000000000327400200000000000000009999123100000010000000000000BRCOCEACNPA3147
012024101502COGN3       010COGNA ON    ON      NM   R$  000000000013600000000001380000000000134000000000013500000000001350000000000134000000000013513359000000000023243000000000003143787000000000000000009999123100000010000000000000BRCOGNACNOR2105
012024101502DMVF3       010D1000VFARMA ON      NM   R$  000000000069500000000007040000000000686000000000069700000000006900000000000690000000000069800219000000000000037900000000000026429000000000000000009999123100000010000000000000BRDMVFACNOR9100
012024101502QUAL3       010QUALICORP   ON      NM   R$  000000000022500000000002360000000000221000000000022800000000002270000000000223000000000022704661000000000006354300000000001451069500000000000000009999123100000010000000000000BRQUALACNOR6120
012024101502SCAR3       010SAO CARLOS  ON      NM   R$  000000000224800000000022480000000002180000000000219600000000022000000000002200000000000222000074000000000000015900000000000034931100000000000000009999123100000010000000000000BRSCARACNOR7131
012024101502SEER3       010SER EDUCA   ON      NM   R$  000000000058500000000005920000000000575000000000058100000000005750000000000574000000000058001125000000000000287400000000000167088900000000000000009999123100000010000000000000BRSEERACNOR5119
012024101502SHOW3       010TIME FOR FUNON      NM   R$  000000000009500000000000990000000000095000000000009700000000000990000000000097000000000009900198000000000000091000000000000008896200000000000000009999123100000010000000000000BRSHOWACNOR7105
012024101502SHUL4       010SCHULZ      PN           R$  000000000061500000000006210000000000611000000000061500000000006190000000000616000000000062000867000000000000306500000000000188629600000000000000009999123100000010000000000000BRSHULACNPR4157
012024101502SIMH3       010SIMPAR      ON      NM   R$  000000000052000000000005300000000000508000000000051500000000005150000000000513000000000051505728000000000002635900000000001359203000000000000000009999123100000010000000000000BRSIMHACNOR0107
012024101502RENT3       010LOCALIZA    ON      NM   R$  000000000428900000000043120000000004215000000000424800000000042620000000004255000000000426316536000000000005678100000000024122363500000000000000009999123100000010000000000000BRRENTACNOR4197
012024101502TASA3       010TAURUS ARMASON      N2   R$  000000000104600000000010580000000001032000000000104400000000010400000000001039000000000104900083000000000000010700000000000011179000000000000000009999123100000010000000000000BRTASAACNOR7104
012024101502TASA4       010TAURUS ARMASPN      N2   R$  000000000100700000000010230000000000989000000000100100000000009920000000000991000000000099201267000000000000291500000000000291945100000000000000009999123100000010000000000000BRTASAACNPR4104
012024101502TCSA3       010TECNISA     ON      NM   R$  000000000017200000000001760000000000170000000000017000000000001700000000000169000000000017000153000000000000086600000000000014791000000000000000009999123100000010000000000000BRTCSAACNOR3112
012024101502TECN3       010TECHNOS     ON      NM   R$  000000000055000000000005650000000000536000000000055100000000005580000000000543000000000055800322000000000000119900000000000066119200000000000000009999123100000010000000000000BRTECNACNOR6109
012024101502TELB3       010TELEBRAS    ON           R$  000000000156000000000015650000000001475000000000149400000000014770000000001460000000000150000009000000000000001000000000000001494400000000000000009999123100000010000000000000BRTELBACNOR2140
012024101502TELB4       010TELEBRAS    PN           R$  000000000094900000000009490000000000949000000000094900000000009490000000000928000000000094500001000000000000000200000000000000189800000000000000009999123100000010000000000000BRTELBACNPR9140
012024101502TEND3       010TENDA       ON      NM   R$  000000000137200000000013930000000001350000000000136700000000013660000000001365000000000136605355000000000001770600000000002421377400000000000000009999123100000010000000000000BRTENDACNOR4111
012024101502TFCO4       010TRACK FIELD PN      N2   R$  000000000103000000000010300000000001010000000000101600000000010170000000001010000000000101800292000000000000092000000000000093561600000000000000009999123100000010000000000000BRTFCOACNPR8115
012024101502TGMA3       010TEGMA       ON      NM   R$  000000000264600000000026880000000002623000000000266200000000026800000000002680000000000268702087000000000000286500000000000762708800000000000000009999123100000010000000000000BRTGMAACNOR7145
012024101502KLBN3       010KLABIN S/A  ON      N2   R$  000000000040300000000004100000000000402000000000040600000000004090000000000407000000000040900665000000000000313400000000000127398400000000000000009999123100000010000000000000BRKLBNACNOR2171
012024101502KLBN4       010KLABIN S/A  PN      N2   R$  000000000040600000000004090000000000402000000000040500000000004050000000000404000000000040501975000000000001564200000000000634426300000000000000009999123100000010000000000000BRKLBNACNPR9171
012024101502MELK3       010MELNICK     ON      NM   R$  000000000036000000000003630000000000357000000000036000000000003600000000000360000000000036100361000000000000345500000000000124470200000000000000009999123100000010000000000000BRMELKACNOR8111
012024101502MGEL4       010MANGELS INDLPN           R$  000000000100000000000010000000000000984000000000099500000000009840000000000973000000000102500003000000000000000700000000000000697000000000000000009999123100000010000000000000BRMGELACNPR3147
012024101502MGLU3       010MAGAZ LUIZA ON      NM   R$  000000000099000000000009970000000000961000000000097300000000009700000000000970000000000097115233000000000016404400000000015967407800000000000000009999123100000010000000000000BRMGLUACNOR2125
012024101502ORVR3       010ORIZON      ON      NM   R$  000000000457500000000045970000000004533000000000457500000000045850000000004585000000000458802427000000000000337200000000001542886600000000000000009999123100000010000000000000BRORVRACNOR0101
012024101502PSSA3       010PORTO SEGUROON      NM   R$  000000000366000000000036950000000003650000000000368100000000036950000000003695000000000369607185000000000001454100000000005353398200000000000000009999123100000010000000000000BRPSSAACNOR7156
012024101502PTBL3       010PORTOBELLO  ON      NM   R$  000000000048400000000004980000000000472000000000048500000000004720000000000472000000000047600770000000000000244500000000000118591700000000000000009999123100000010000000000000BRPTBLACNOR8132
012024101502PTNT3       010PETTENATI   ON           R$  000000000097000000000009700000000000961000000000096500000000009610000000000934000000000096100002000000000000000200000000000000193100000000000000009999123100000010000000000000BRPTNTACNOR6042
012024101502PTNT4       010PETTENATI   PN           R$  000000000066000000000006600000000000649000000000065600000000006490000000000645000000000066000011000000000000003000000000000001969700000000000000009999123100000010000000000000BRPTNTACNPR3047
012024101502DASA3       010DASA        ON      NM   R$  000000000029700000000003040000000000292000000000029700000000002960000000000292000000000029601026000000000000338100000000000100648900000000000000009999123100000010000000000000BRDASAACNOR1123
012024101502DESK3       010DESKTOP     ON      NM   R$  000000000137000000000013760000000001352000000000136300000000013540000000001354000000000136500459000000000000185800000000000253371100000000000000009999123100000010000000000000BRDESKACNOR2104
012024101502DEXP3       010DEXXOS PAR  ON      N1   R$  000000000089000000000009160000000000883000000000089800000000009040000000000904000000000090700413000000000000067000000000000060172700000000000000009999123100000010000000000000BRDEXPACNOR1105
012024101502DEXP4       010DEXXOS PAR  PN      N1   R$  000000000089000000000008980000000000890000000000089700000000008980000000000893000000000091500005000000000000001600000000000001435300000000000000009999123100000010000000000000BRDEXPACNPR8105
012024101502DIRR3       010DIRECIONAL  ON      NM   R$  000000000297400000000030280000000002960000000000299700000000029900000000002990000000000299707174000000000001441300000000004320680600000000000000009999123100000010000000000000BRDIRRACNOR0119
012024101502FRAS3       010FRAS-LE     ON      N1   R$  000000000211200000000021260000000002073000000000210800000000021070000000002107000000000211201262000000000000222200000000000468583300000000000000009999123100000010000000000000BRFRASACNOR0160
012024101502FRIO3       010METALFRIO   ON      NM   R$  000000001030000000000103000000000010300000000001030000000000103000000000010301000000001190000001000000000000000100000000000001030000000000000000009999123100000010000000000000BRFRIOACNOR2111
012024101502CAMB3       010CAMBUCI     ON           R$  000000000122000000000012400000000001220000000000123300000000012400000000001223000000000124000052000000000000009500000000000011719600000000000000009999123100000010000000000000BRCAMBACNOR4131
012024101502CAML3       010CAMIL       ON      NM   R$  000000000082300000000008270000000000813000000000081900000000008210000000000815000000000082101991000000000000562600000000000461041500000000000000009999123100000010000000000000BRCAMLACNOR3129
012024101502CASH3       010MELIUZ      ON      NM   R$  000000000037000000000003750000000000362000000000036600000000003620000000000362000000000036502788000000000001297500000000000476038900000000000000009999123100000010000000000000BRCASHACNOR8107
012024101502CBAV3       010CBA         ON      NM   R$  000000000056400000000005930000000000564000000000058500000000005870000000000586000000000058806846000000000004532400000000002653657800000000000000009999123100000010000000000000BRCBAVACNOR5104
012024101502CCRO3       010CCR SA      ON      NM   R$  000000000123000000000012440000000001218000000000123100000000012340000000001234000000000123509946000000000015897200000000019575415500000000000000009999123100000010000000000000BRCCROACNOR2145
012024101502CSUD3       010CSU DIGITAL ON      NM   R$  000000000172100000000017300000000001691000000000171300000000017130000000001711000000000172900107000000000000020700000000000035478500000000000000009999123100000010000000000000BRCSUDACNOR5111
012024101502CTKA4       010KARSTEN     PN           R$  000000000188000000000018800000000001880000000000188000000000018800000000001875000000000188000001000000000000001000000000000001880000000000000000009999123100000010000000000000BRCTKAACNPR7043
012024101502CURY3       010CURY S/A    ON  ED  NM   R$  000000000225500000000022780000000002234000000000225100000000022550000000002253000000000225506081000000000001562000000000003516399500000000000000009999123100000010000000000000BRCURYACNOR3110
012024101502GEPA4       010GER PARANAP PN           R$  000000000292900000000029290000000002929000000000292900000000029290000000002803000000000292500001000000000000000100000000000000292900000000000000009999123100000010000000000000BRGEPAACNPR9161
012024101502GFSA3       010GAFISA      ON      NM   R$  000000000019400000000002000000000000188000000000019200000000001900000000000189000000000019002031000000000004554300000000000876060700000000000000009999123100000010000000000000BRGFSAACNOR3125
012024101502GGBR3       010GERDAU      ON      N1   R$  000000000164500000000016590000000001624000000000163500000000016350000000001635000000000164600139000000000000019900000000000032550700000000000000009999123100000010000000000000BRGGBRACNOR1193
012024101502GGBR4       010GERDAU      PN      N1   R$  000000000183000000000018500000000001826000000000183500000000018340000000001833000000000183625869000000000014049100000000025784867600000000000000009999123100000010000000000000BRGGBRACNPR8193
012024101502ITSA3       010ITAUSA      ON      N1   R$  000000000105700000000010640000000001049000000000105600000000010590000000001059000000000106400550000000000000216000000000000228169000000000000000009999123100000010000000000000BRITSAACNOR0443
012024101502ITSA4       010ITAUSA      PN      N1   R$  000000000105800000000010630000000001047000000000105800000000010610000000001061000000000106225211000000000030623300000000032399593000000000000000009999123100000010000000000000BRITSAACNPR7443
012024101502CVCB3       010CVC BRASIL  ON      NM   R$  000000000018500000000001900000000000183000000000018600000000001840000000000184000000000018503084000000000007866900000000001463830300000000000000009999123100000010000000000000BRCVCBACNOR1116
012024101502EPAR3       010EMBPAR S/A  ON           R$  000000000055000000000005650000000000550000000000055500000000005550000000000553000000000055500024000000000000004000000000000002223400000000000000009999123100000010000000000000BREPARACNOR9105
012024101502EQPA3       010EQTL PARA   ON           R$  000000000059900000000006080000000000599000000000060500000000006030000000000602000000000060600011000000000000002200000000000001331000000000000000009999123100000010000000000000BREQPAACNOR1111
012024101502EQTL3       010EQUATORIAL  ON      NM   R$  000000000327100000000033100000000003260000000000327300000000032680000000003266000000000326817839000000000005548900000000018165938900000000000000009999123100000010000000000000BREQTLACNOR0131
012024101502ESPA3       010ESPACOLASER ON      NM   R$  000000000009700000000000980000000000096000000000009600000000000960000000000096000000000009700066000000000000128600000000000012428400000000000000009999123100000010000000000000BRESPAACNOR7103
012024101502ESTR4       010ESTRELA     PN           R$  000000000035200000000003790000000000352000000000036500000000003730000000000351000000000037100004000000000000000800000000000000292700000000000000009999123100000010000000000000BRESTRACNPR0144
012024101502ETER3       010ETERNIT     ON      NM   R$  000000000055600000000005620000000000552000000000055400000000005520000000000552000000000055600383000000000000092300000000000051219400000000000000009999123100000010000000000000BRETERACNOR3244
012024101502CEAB3       010CEA MODAS   ON      NM   R$  000000000117200000000011980000000001149000000000117100000000011650000000001165000000000116612926000000000004676600000000005477789500000000000000009999123100000010000000000000BRCEABACNOR1102
012024101502CEBR3       010CEB         ON           R$  000000000187000000000018950000000001862000000000187600000000018950000000001850000000000189500013000000000000001500000000000002814400000000000000009999123100000010000000000000BRCEBRACNOR5125
012024101502CEBR5       010CEB         PNA          R$  000000000161100000000016330000000001611000000000162700000000016320000000001615000000000165000010000000000000002900000000000004720400000000000000009999123100000010000000000000BRCEBRACNPA8124
012024101502CEBR6       010CEB         PNB          R$  000000000176100000000017790000000001760000000000176600000000017750000000001760000000000177500011000000000000003400000000000006006100000000000000009999123100000010000000000000BRCEBRACNPB6124
012024101502CEDO3       010CEDRO       ON      N1   R$  000000000220000000000022000000000002200000000000220000000000022000000000001600000000000248000002000000000000001400000000000003080000000000000000009999123100000010000000000000BRCEDOACNOR8096
012024101502CEEB3       010COELBA      ON           R$  000000000398800000000040340000000003987000000000399100000000040340000000003915000000000429700007000000000000002900000000000011574200000000000000009999123100000010000000000000BRCEEBACNOR3200
012024101502CGAS5       010COMGAS      PNA          R$  000000001270000000000127000000000012203000000001243700000000122730000000012273000000001280000014000000000000001400000000000017412200000000000000009999123100000010000000000000BRCGASACNPA3161
012024101502CGRA3       010GRAZZIOTIN  ON           R$  000000000256700000000025750000000002500000000000253100000000025000000000002500000000000257500016000000000000001600000000000004049900000000000000009999123100000010000000000000BRCGRAACNOR2083
012024101502CGRA4       010GRAZZIOTIN  PN           R$  000000000252900000000025290000000002510000000000251900000000025100000000002500000000000251000002000000000000000200000000000000503900000000000000009999123100000010000000000000BRCGRAACNPR9083
012024101502EUCA3       010EUCATEX     ON      N1   R$  000000000163000000000016300000000001615000000000162600000000016150000000001577000000000170200003000000000000000400000000000000650500000000000000009999123100000010000000000000BREUCAACNOR1157
012024101502IFCM3       010INFRACOMM   ON      NM   R$  000000000001700000000000170000000000015000000000001500000000000150000000000015000000000001604695000000000016786300000000000266877600000000000000009999123100000010000000000000BRIFCMACNOR8101
012024101502IGTI11      010IGUATEMI S.AUNT     N1   R$  000000000212900000000021560000000002113000000000213900000000021350000000002132000000000213507341000000000001586500000000003393997600000000000000009999123100000010000000000000BRIGTICDAM16106
012024101502IGTI3       010IGUATEMI S.AON      N1   R$  000000000025800000000002610000000000258000000000025900000000002610000000000258000000000026100034000000000000011900000000000003090800000000000000009999123100000010000000000000BRIGTIACNOR8106
012024101502INEP3       010INEPAR      ON           R$  000000000017400000000001760000000000172000000000017300000000001720000000000172000000000017400050000000000000026900000000000004670500000000000000009999123100000010000000000000BRINEPACNOR1143
012024101502INEP4       010INEPAR      PN           R$  000000000017500000000001780000000000171000000000017300000000001710000000000171000000000017500041000000000000009000000000000001557100000000000000009999123100000010000000000000BRINEPACNPR8143
012024101502CLSA3       010CLEARSALE   ON      NM   R$  000000000095000000000009510000000000941000000000094700000000009500000000000946000000000095002418000000000001304300000000001235291000000000000000009999123100000010000000000000BRCLSAACNOR0100
012024101502CLSC4       010CELESC      PN      N2   R$  000000000805100000000080900000000007950000000000799800000000079950000000007950000000000805000057000000000000006600000000000052791600000000000000009999123100000010000000000000BRCLSCACNPR3132
012024101502CMIG3       010CEMIG       ON      N1   R$  000000000141700000000014240000000001407000000000141900000000014240000000001420000000000142500823000000000000159700000000000226658200000000000000009999123100000010000000000000BRCMIGACNOR6244
012024101502CMIG4       010CEMIG       PN      N1   R$  000000000111100000000011210000000001106000000000111100000000011090000000001108000000000110915522000000000012986800000000014440276800000000000000009999123100000010000000000000BRCMIGACNPR3245
012024101502TIMS3       010TIM         ON      NM   R$  000000000169400000000017300000000001694000000000171900000000017280000000001726000000000172823059000000000008790300000000015111470100000000000000009999123100000010000000000000BRTIMSACNOR5118
012024101502TOTS3       010TOTVS       ON      NM   R$  000000000282600000000028510000000002811000000000282700000000028160000000002815000000000282618647000000000004666100000000013192529100000000000000009999123100000010000000000000BRTOTSACNOR8145
012024101502INTB3       010INTELBRAS   ON      NM   R$  000000000205500000000020700000000002037000000000204700000000020470000000002036000000000204802621000000000000449700000000000920890100000000000000009999123100000010000000000000BRINTBACNOR9112
012024101502IRBR3       010IRBBRASIL REON      NM   R$  000000000438700000000044460000000004353000000000438900000000044000000000004377000000000440004437000000000000736000000000003231035300000000000000009999123100000010000000000000BRIRBRACNOR4111
012024101502TPIS3       010TRIUNFO PARTON      NM   R$  000000000060300000000006040000000000561000000000058100000000006040000000000602000000000060500344000000000000107500000000000062511500000000000000009999123100000010000000000000BRTPISACNOR8118
012024101502TRAD3       010TC          ON      NM   R$  000000000065900000000006650000000000621000000000064400000000006360000000000635000000000063600619000000000000251300000000000161948000000000000000009999123100000010000000000000BRTRADACNOR3102
012024101502TRIS3       010TRISUL      ON      NM   R$  000000000050200000000005140000000000502000000000050800000000005040000000000504000000000050800931000000000000603400000000000306575600000000000000009999123100000010000000000000BRTRISACNOR4118
012024101502TRPL3       010TRAN PAULISTON      N1   R$  000000000315100000000031980000000003150000000000316500000000031600000000003155000000000319600012000000000000002100000000000006648400000000000000009999123100000010000000000000BRTRPLACNOR4185
012024101502TRPL4       010TRAN PAULISTPN      N1   R$  000000000248100000000024970000000002461000000000247300000000024610000000002461000000000247007524000000000001692500000000004186644400000000000000009999123100000010000000000000BRTRPLACNPR1185
012024101502KRSA3       010KORA SAUDE  ON  EG  NM   R$  000000000042000000000004380000000000417000000000042800000000004380000000000423000000000043800096000000000000059700000000000025587900000000000000009999123100000010000000000000BRKRSAACNOR0101
012024101502AALR3       010ALLIAR      ON      NM   R$  000000000144500000000014500000000001391000000000140900000000013910000000001390000000000139100167000000000000028300000000000039884000000000000000009999123100000010000000000000BRAALRACNOR6102
012024101502ABCB4       010ABC BRASIL  PN      N2   R$  000000000212600000000021430000000002105000000000211600000000021050000000002105000000000211402539000000000000434400000000000919417000000000000000009999123100000010000000000000BRABCBACNPR4146
012024101502ABEV3       010AMBEV S/A   ON           R$  000000000129300000000012950000000001281000000000128700000000012880000000001288000000000128932298000000000033545800000000043184903000000000000000009999123100000010000000000000BRABEVACNOR1128
012024101502AZZA3       010AZZAS 2154  ON      NM   R$  000000000422100000000042380000000004175000000000420300000000042030000000004198000000000420704272000000000001567400000000006589120200000000000000009999123100000010000000000000BRAZZAACNOR9100
012024101502BRIT3       010BRISANET    ON      NM   R$  000000000030600000000003150000000000306000000000030800000000003060000000000306000000000030800296000000000000236600000000000072929200000000000000009999123100000010000000000000BRBRITACNOR0103
012024101502BRKM3       010BRASKEM     ON      N1   R$  000000000182800000000018430000000001804000000000184200000000018430000000001808000000000184300074000000000000191400000000000352580500000000000000009999123100000010000000000000BRBRKMACNOR1119
012024101502BRKM5       010BRASKEM     PNA     N1   R$  000000000188500000000019060000000001853000000000186900000000018620000000001860000000000186205217000000000002267000000000004238350700000000000000009999123100000010000000000000BRBRKMACNPA4121
012024101502BRSR3       010BANRISUL    ON      N1   R$  000000000133300000000013510000000001325000000000133200000000013260000000001324000000000133200065000000000000013700000000000018259900000000000000009999123100000010000000000000BRBRSRACNOR3189
012024101502BRSR6       010BANRISUL    PNB     N1   R$  000000000112700000000011450000000001124000000000113500000000011340000000001133000000000113804821000000000001054100000000001197369300000000000000009999123100000010000000000000BRBRSRACNPB4192
012024101502CSED3       010CRUZEIRO EDUON      NM   R$  000000000032100000000003290000000000320000000000032400000000003230000000000323000000000032500566000000000000430300000000000139763200000000000000009999123100000010000000000000BRCSEDACNOR9105
012024101502CSMG3       010COPASA      ON      NM   R$  000000000219700000000022250000000002185000000000220500000000022090000000002195000000000220907706000000000001648400000000003635280100000000000000009999123100000010000000000000BRCSMGACNOR5175
012024101502CSNA3       010SID NACIONALON           R$  000000000117300000000011790000000001157000000000116900000000011680000000001167000000000116911370000000000006047000000000007071422800000000000000009999123100000010000000000000BRCSNAACNOR6261
012024101502ENEV3       010ENEVA       ON      NM   R$  000000000140700000000014480000000001405000000000143100000000014280000000001428000000000143227832000000000007834600000000011219129700000000000000009999123100000010000000000000BRENEVACNOR8106
012024101502ENGI11      010ENERGISA    UNT     N2   R$  000000000441100000000044370000000004379000000000440400000000043990000000004396000000000439907709000000000001541900000000006790655400000000000000009999123100000010000000000000BRENGICDAM16136
012024101502ENGI3       010ENERGISA    ON      N2   R$  000000000131600000000013200000000001316000000000131800000000013180000000001306000000000131800013000000000000002600000000000003428600000000000000009999123100000010000000000000BRENGIACNOR0146
012024101502ENGI4       010ENERGISA    PN      N2   R$  000000000077500000000007770000000000765000000000077000000000007650000000000765000000000077400021000000000000003400000000000002621000000000000000009999123100000010000000000000BRENGIACNPR7142
012024101502ENJU3       010ENJOEI      ON      NM   R$  000000000013200000000001360000000000132000000000013400000000001340000000000134000000000013600414000000000000325200000000000043771100000000000000009999123100000010000000000000BRENJUACNOR9100
012024101502JHSF3       010JHSF PART   ON      NM   R$  000000000043500000000004400000000000432000000000043600000000004400000000000435000000000044005636000000000002950600000000001287549100000000000000009999123100000010000000000000BRJHSFACNOR2140
012024101502JSLG3       010JSL         ON      NM   R$  000000000076700000000007880000000000760000000000077200000000007690000000000762000000000076902417000000000000704500000000000544289500000000000000009999123100000010000000000000BRJSLGACNOR2121
012024101502KEPL3       010KEPLER WEBERON      NM   R$  000000000093000000000009400000000000918000000000092400000000009250000000000925000000000093105162000000000001581700000000001462822200000000000000009999123100000010000000000000BRKEPLACNOR1064
012024101502BMEB3       010MERCANTIL   ON      N1   R$  000000000367100000000036710000000003671000000000363800000000036710000000003606000000000390000002000000000000000200000000000000727600000000000000009999123100000010000000000000BRBMEBACNOR8206
012024101502BMEB4       010MERCANTIL   PN      N1   R$  000000000393200000000039640000000003600000000000378700000000036000000000003600000000000367100271000000000000050400000000000190887500000000000000009999123100000010000000000000BRBMEBACNPR5211
012024101502BMGB4       010BANCO BMG   PN      N1   R$  000000000043700000000004450000000000430000000000043800000000004450000000000439000000000044501949000000000001097700000000000481871700000000000000009999123100000010000000000000BRBMGBACNPR0110
012024101502BMIN4       010MERC INVEST PN           R$  000000000169900000000017490000000001699000000000170300000000017490000000001683000000000180000004000000000000001600000000000002724800000000000000009999123100000010000000000000BRBMINACNPR1176
012024101502BMKS3       010BIC MONARK  ON           R$  000000003080000000000308000000000030800000000003080000000000308000000000030500000000003099900001000000000000000001000000000000030800000000000000009999123100000010000000000000BRBMKSACNOR9166
012024101502BMOB3       010BEMOBI TECH ON      NM   R$  000000000143200000000014710000000001422000000000145800000000014600000000001459000000000146701457000000000000215000000000000313557000000000000000009999123100000010000000000000BRBMOBACNOR7103
012024101502BOBR4       010BOMBRIL     PN           R$  000000000023900000000002420000000000235000000000023600000000002360000000000236000000000023700597000000000000124000000000000029366000000000000000009999123100000010000000000000BRBOBRACNPR3128
012024101502BRAV3       010BRAVA       ON      NM   R$  000000000167700000000017360000000001671000000000170500000000017200000000001713000000000172012131000000000006162200000000010511707800000000000000009999123100000010000000000000BRBRAVACNOR3100
012024101502CPFE3       010CPFL ENERGIAON      NM   R$  000000000328300000000032940000000003255000000000327300000000032770000000003267000000000327706541000000000001701900000000005571096800000000000000009999123100000010000000000000BRCPFEACNOR0137
012024101502CPLE3       010COPEL       ON      N2   R$  000000000090800000000009170000000000898000000000090600000000009020000000000902000000000090319347000000000007934900000000007189317300000000000000009999123100000010000000000000BRCPLEACNOR8150
012024101502EKTR4       010ELEKTRO     PN           R$  000000000434500000000045350000000004345000000000444000000000045350000000004363000000000453500002000000000000000200000000000000888000000000000000009999123100000010000000000000BREKTRACNPR7165
012024101502ELET3       010ELETROBRAS  ON      N1   R$  000000000390600000000039250000000003847000000000386700000000038700000000003859000000000387117746000000000007015600000000027134690800000000000000009999123100000010000000000000BRELETACNOR6160
012024101502ELET6       010ELETROBRAS  PNB     N1   R$  000000000430200000000043190000000004249000000000426800000000042680000000004268000000000427004116000000000001246200000000005318968800000000000000009999123100000010000000000000BRELETACNPB7077
012024101502GGPS3       010GPS         ON      NM   R$  000000000182700000000018600000000001822000000000184800000000018510000000001850000000000185405513000000000001137400000000002102827700000000000000009999123100000010000000000000BRGGPSACNOR9103
012024101502GMAT3       010GRUPO MATEUSON      NM   R$  000000000072600000000007390000000000725000000000073100000000007320000000000728000000000073205313000000000002235500000000001634895400000000000000009999123100000010000000000000BRGMATACNOR7103
012024101502GOAU3       010GERDAU MET  ON      N1   R$  000000000103000000000010350000000001017000000000102600000000010280000000001017000000000102800348000000000000089300000000000091626000000000000000009999123100000010000000000000BRGOAUACNOR1268
012024101502GOAU4       010GERDAU MET  PN      N1   R$  000000000105100000000010510000000001035000000000104200000000010450000000001044000000000104514005000000000008607000000000008970165800000000000000009999123100000010000000000000BRGOAUACNPR8269
012024101502GRND3       010GRENDENE    ON      NM   R$  000000000054100000000005510000000000541000000000054500000000005440000000000542000000000054401906000000000000488500000000000266482900000000000000009999123100000010000000000000BRGRNDACNOR3175
012024101502DOTZ3       010DOTZ SA     ON      NM   R$  000000000060900000000006090000000000580000000000058600000000005840000000000584000000000059200068000000000000019100000000000011206000000000000000009999123100000010000000000000BRDOTZACNOR7101
012024101502DXCO3       010DEXCO       ON      NM   R$  000000000081500000000008280000000000813000000000082400000000008270000000000822000000000082703885000000000001372900000000001131784700000000000000009999123100000010000000000000BRDXCOACNOR8105
012024101502GUAR3       010GUARARAPES  ON      NM   R$  000000000082300000000008440000000000790000000000081100000000008020000000000793000000000080204354000000000001393200000000001129946200000000000000009999123100000010000000000000BRGUARACNOR4173
012024101502MRVE3       010MRV         ON      NM   R$  000000000075800000000007680000000000740000000000074900000000007480000000000747000000000074809724000000000008061300000000006043789600000000000000009999123100000010000000000000BRMRVEACNOR2127
012024101502SAPR3       010SANEPAR     ON      N2   R$  000000000053400000000005370000000000523000000000052700000000005270000000000527000000000052800468000000000000125300000000000066088300000000000000009999123100000010000000000000BRSAPRACNOR9159
012024101502SAPR4       010SANEPAR     PN      N2   R$  000000000056500000000005700000000000557000000000056000000000005630000000000559000000000056302618000000000001299400000000000728140200000000000000009999123100000010000000000000BRSAPRACNPR6159
012024101502SBFG3       010GRUPO SBF   ON      NM   R$  000000000150100000000015240000000001438000000000146300000000014670000000001456000000000146807724000000000002204600000000003225846100000000000000009999123100000010000000000000BRSBFGACNOR1103
012024101502SBSP3       010SABESP      ON      NM   R$  000000000903500000000091630000000009018000000000909900000000091100000000009103000000000911214603000000000003454400000000031434718300000000000000009999123100000010000000000000BRSBSPACNOR5161
012024101502UNIP3       010UNIPAR      ON           R$  000000000470000000000047000000000004612000000000465500000000046530000000004605000000000465300048000000000000005600000000000026070800000000000000009999123100000010000000000000BRUNIPACNOR7206
012024101502UNIP5       010UNIPAR      PNA          R$  000000000480000000000048000000000004800000000000480000000000048000000000004720000000000480000002000000000000000400000000000001920000000000000000009999123100000010000000000000BRUNIPACNPA0208
012024101502SANB11      010SANTANDER BRUNT          R$  000000000289000000000029060000000002869000000000289300000000028940000000002891000000000290108155000000000002076100000000006007205400000000000000009999123100000010000000000000BRSANBCDAM13165
012024101502SANB3       010SANTANDER BRON           R$  000000000137600000000013850000000001366000000000137800000000013850000000001380000000000138500303000000000000100400000000000138393200000000000000009999123100000010000000000000BRSANBACNOR8172
012024101502SANB4       010SANTANDER BRPN           R$  000000000152000000000015220000000001505000000000151300000000015080000000001508000000000151400238000000000000043100000000000065243600000000000000009999123100000010000000000000BRSANBACNPR5172
012024101502SAPR11      010SANEPAR     UNT     N2   R$  000000000277500000000028150000000002743000000000275600000000027600000000002747000000000276106438000000000001359000000000003745598900000000000000009999123100000010000000000000BRSAPRCDAM13118
012024101502TTEN3       0103TENTOS     ON      NM   R$  000000000106100000000010650000000001036000000000104600000000010390000000001039000000000104003757000000000000724800000000000758206400000000000000009999123100000010000000000000BRTTENACNOR0103
012024101502TUPY3       010TUPY        ON      NM   R$  000000000243500000000024550000000002386000000000240100000000023890000000002389000000000239004705000000000001027700000000002467895700000000000000009999123100000010000000000000BRTUPYACNOR1184
012024101502UCAS3       010UNICASA     ON      NM   R$  000000000021700000000002170000000000212000000000021500000000002150000000000215000000000021600061000000000000018000000000000003878100000000000000009999123100000010000000000000BRUCASACNOR1113
012024101502UGPA3       010ULTRAPAR    ON      NM   R$  000000000210800000000021150000000002055000000000208200000000020640000000002064000000000206512797000000000008191500000000017059119700000000000000009999123100000010000000000000BRUGPAACNOR8156
012024101502SYNE3       010SYN PROP TECON      NM   R$  000000000077300000000007850000000000769000000000077200000000007750000000000771000000000077601723000000000000976000000000000753800000000000000000009999123100000010000000000000BRSYNEACNOR2103
012024101502WIZC3       010WIZ CO      ON      NM   R$  000000000060600000000006140000000000598000000000060700000000005980000000000597000000000059800870000000000000191700000000000116423800000000000000009999123100000010000000000000BRWIZCACNOR5102
012024101502YDUQ3       010YDUQS PART  ON      NM   R$  000000000106100000000010700000000001022000000000103500000000010250000000001025000000000102806720000000000002775900000000002875190100000000000000009999123100000010000000000000BRYDUQACNOR3105
012024101502LEVE3       010METAL LEVE  ON      NM   R$  000000000304000000000030550000000003019000000000303400000000030240000000003022000000000302701772000000000000294600000000000894085600000000000000009999123100000010000000000000BRLEVEACNOR2197
012024101502LJQQ3       010QUERO-QUERO ON      NM   R$  000000000028900000000003010000000000289000000000029700000000002990000000000297000000000029908737000000000011786900000000003502196500000000000000009999123100000010000000000000BRLJQQACNOR5104
012024101502LOGG3       010LOG COM PROPON      NM   R$  000000000222900000000022830000000002208000000000223800000000022080000000002207000000000222001071000000000000149200000000000334010500000000000000009999123100000010000000000000BRLOGGACNOR7107
012024101502LOGN3       010LOG-IN      ON      NM   R$  000000000309400000000031600000000002899000000000299400000000029050000000002905000000000293000372000000000000050300000000000150618600000000000000009999123100000010000000000000BRLOGNACNOR3105
012024101502LPSB3       010LOPES BRASILON      NM   R$  000000000017100000000001750000000000171000000000017200000000001730000000000172000000000017400175000000000000047000000000000008100700000000000000009999123100000010000000000000BRLPSBACNOR0114
012024101502LREN3       010LOJAS RENNERON      NM   R$  000000000190400000000019140000000001866000000000188600000000018950000000001895000000000189622001000000000010822500000000020415852300000000000000009999123100000010000000000000BRLRENACNOR1222
012024101502MTRE3       010MITRE REALTYON      NM   R$  000000000036900000000003770000000000368000000000037100000000003720000000000369000000000037200525000000000001972500000000000733685800000000000000009999123100000010000000000000BRMTREACNOR6115
012024101502MTSA4       010METISA      PN           R$  000000000361100000000037890000000003611000000000371500000000037500000000003680000000000378000010000000000000001000000000000003715300000000000000009999123100000010000000000000BRMTSAACNPR9073
012024101502MULT3       010MULTIPLAN   ON      N2   R$  000000000261100000000026360000000002599000000000261200000000026120000000002611000000000261208869000000000001405000000000003670573800000000000000009999123100000010000000000000BRMULTACNOR5139
012024101502MYPK3       010IOCHP-MAXIONON      NM   R$  000000000105500000000010750000000001045000000000105600000000010520000000001051000000000105205083000000000001010700000000001067444000000000000000009999123100000010000000000000BRMYPKACNOR7156
012024101502PRNR3       010PRINER      ON      NM   R$  000000000126800000000013050000000001257000000000128400000000012810000000001271000000000128201157000000000000297700000000000382473500000000000000009999123100000010000000000000BRPRNRACNOR4109
012024101502EALT4       010ACO ALTONA  PN           R$  000000000136000000000013770000000001343000000000135700000000013690000000001343000000000137000027000000000000003500000000000004750200000000000000009999123100000010000000000000BREALTACNPR1138
012024101502ECOR3       010ECORODOVIAS ON      NM   R$  000000000071500000000007270000000000706000000000071400000000007180000000000714000000000071803842000000000002790300000000001994709500000000000000009999123100000010000000000000BRECORACNOR8120
012024101502EGIE3       010ENGIE BRASILON      NM   R$  000000000407600000000041290000000004071000000000410700000000041160000000004107000000000411606999000000000001552200000000006374931900000000000000009999123100000010000000000000BREGIEACNOR9127
012024101502UNIP6       010UNIPAR      PNB          R$  000000000466900000000047210000000004611000000000465300000000046290000000004629000000000463400760000000000000093700000000000436022000000000000000009999123100000010000000000000BRUNIPACNPB8206
012024101502USIM3       010USIMINAS    ON      N1   R$  000000000061400000000006190000000000601000000000060800000000006010000000000601000000000060500728000000000000276700000000000168316700000000000000009999123100000010000000000000BRUSIMACNOR3167
012024101502USIM5       010USIMINAS    PNA     N1   R$  000000000062500000000006290000000000612000000000061600000000006120000000000612000000000061309756000000000009274300000000005721505700000000000000009999123100000010000000000000BRUSIMACNPA6169
012024101502VLID3       010VALID       ON      NM   R$  000000000205800000000021300000000002050000000000209400000000020810000000002081000000000209102048000000000000342200000000000716678400000000000000009999123100000010000000000000BRVLIDACNOR5144
012024101502ITUB3       010ITAUUNIBANCOON      N1   R$  000000000303300000000030540000000003017000000000304200000000030500000000003043000000000305401990000000000000456400000000001388592600000000000000009999123100000010000000000000BRITUBACNOR4342
012024101502ITUB4       010ITAUUNIBANCOPN      N1   R$  000000000349000000000035310000000003473000000000350700000000035250000000003525000000000352633708000000000028801300000000101028591100000000000000009999123100000010000000000000BRITUBACNPR1342
012024101502AERI3       010AERIS       ON      NM   R$  000000000064500000000006550000000000627000000000063700000000006380000000000635000000000063800453000000000000121600000000000077533400000000000000009999123100000010000000000000BRAERIACNOR4102
012024101502AESB3       010AES BRASIL  ON      NM   R$  000000000117700000000011800000000001172000000000117600000000011730000000001173000000000117403562000000000028476600000000033496808700000000000000009999123100000010000000000000BRAESBACNOR7107
012024101502AGRO3       010BRASILAGRO  ON      NM   R$  000000000251500000000025150000000002466000000000248200000000024660000000002466000000000247001355000000000000213800000000000530777800000000000000009999123100000010000000000000BRAGROACNOR7114
012024101502VSTE3       010VESTE       ON      NM   R$  000000000100900000000010090000000001000000000000100100000000010000000000000992000000000101000003000000000000000800000000000000800900000000000000009999123100000010000000000000BRVSTEACNOR5103
012024101502VTRU3       010VITRUEDUCA  ON      NM   R$  000000000097600000000009900000000000941000000000096700000000009410000000000941000000000096500627000000000000131800000000000127488300000000000000009999123100000010000000000000BRVTRUACNOR3100
012024101502VULC3       010VULCABRAS   ON      NM   R$  000000000167200000000016770000000001650000000000166100000000016500000000001650000000000165701580000000000000288100000000000478616800000000000000009999123100000010000000000000BRVULCACNOR2162
012024101502VVEO3       010VIVEO       ON      NM   R$  000000000018100000000001910000000000178000000000018300000000001840000000000184000000000018601738000000000002599400000000000477365200000000000000009999123100000010000000000000BRVVEOACNOR0104
012024101502WEGE3       010WEG         ON      NM   R$  000000000554000000000056530000000005488000000000557800000000056530000000005642000000000565324605000000000008123800000000045320735600000000000000009999123100000010000000000000BRWEGEACNOR0225
012024101502MILS3       010MILLS       ON      NM   R$  000000000107100000000010820000000001050000000000105500000000010510000000001050000000000105603852000000000003121000000000003294340700000000000000009999123100000010000000000000BRMILSACNOR2128
012024101502MLAS3       010MULTILASER  ON      NM   R$  000000000016200000000001650000000000159000000000016200000000001590000000000159000000000016001938000000000001660800000000000269086400000000000000009999123100000010000000000000BRMLASACNOR9101
012024101502MNDL3       010MUNDIAL     ON           R$  000000000160100000000016400000000001600000000000160500000000016400000000001427000000000170000006000000000000002000000000000003210000000000000000009999123100000010000000000000BRMNDLACNOR4109
012024101502AHEB3       010SPTURIS     ON           R$  000000000380000000000038000000000003800000000000380000000000038000000000003150000000000380000001000000000000000100000000000000380000000000000000009999123100000010000000000000BRAHEBACNOR0106
012024101502ALLD3       010ALLIED      ON      NM   R$  000000000075600000000007640000000000745000000000075100000000007450000000000745000000000074900172000000000000047100000000000035375300000000000000009999123100000010000000000000BRALLDACNOR3106
012024101502ALOS3       010ALLOS       ON  ED  NM   R$  000000000224000000000022620000000002232000000000224800000000022490000000002249000000000225011132000000000003320300000000007464734900000000000000009999123100000010000000000000BRALOSACNOR5102
012024101502BAHI3       010BAHEMA      ON      MA   R$  000000000052200000000005400000000000470000000000048600000000004770000000000466000000000047800057000000000000015100000000000007349000000000000000009999123100000010000000000000BRBAHIACNOR1074
012024101502BAZA3       010AMAZONIA    ON           R$  000000000926500000000092650000000009212000000000923800000000092120000000009165000000000926400002000000000000000200000000000001847700000000000000009999123100000010000000000000BRBAZAACNOR0179
012024101502MNPR3       010MINUPAR     ON           R$  000000000194500000000020000000000001881000000000195800000000020000000000001880000000000200000021000000000000003100000000000006071000000000000000009999123100000010000000000000BRMNPRACNOR5122
012024101502MOVI3       010MOVIDA      ON      NM   R$  000000000057300000000005890000000000562000000000057200000000005670000000000566000000000056706773000000000004425600000000002534494900000000000000009999123100000010000000000000BRMOVIACNOR0122
012024101502MRFG3       010MARFRIG     ON      NM   R$  000000000131700000000013470000000001317000000000133700000000013390000000001338000000000134110891000000000003532200000000004723590500000000000000009999123100000010000000000000BRMRFGACNOR0116
012024101502ROMI3       010ROMI        ON      NM   R$  000000000108200000000010950000000001080000000000108500000000010800000000001080000000000108100701000000000000135400000000000146973500000000000000009999123100000010000000000000BRROMIACNOR8196
012024101502BBAS3       010BRASIL      ON      NM   R$  000000000266700000000026740000000002642000000000264900000000026470000000002647000000000264830800000000000014418700000000038195768400000000000000009999123100000010000000000000BRBBASACNOR3326
012024101502BEES3       010BANESTES    ON           R$  000000000088700000000008890000000000882000000000088500000000008830000000000883000000000088600061000000000000007200000000000006376400000000000000009999123100000010000000000000BRBEESACNOR9396
012024101502BEES4       010BANESTES    PN           R$  000000000091900000000009190000000000911000000000091400000000009120000000000910000000000091800023000000000000004100000000000003750200000000000000009999123100000010000000000000BRBEESACNPR6321
012024101502BGIP4       010BANESE      PN           R$  000000000240000000000024000000000002400000000000240000000000024000000000002360000000000240000002000000000000000600000000000001440000000000000000009999123100000010000000000000BRBGIPACNPR8210
012024101502BHIA3       010CASAS BAHIA ON      NM   R$  000000000045200000000004580000000000438000000000044600000000004460000000000444000000000044602670000000000002274800000000001016791800000000000000009999123100000010000000000000BRBHIAACNOR1102
012024101502BPAN4       010BANCO PAN   PN      N1   R$  000000000095700000000009660000000000939000000000094600000000009420000000000938000000000094202656000000000000947200000000000896491200000000000000009999123100000010000000000000BRBPANACNPR1115
012024101502CMIN3       010CSNMINERACAOON  EDJ N2   R$  000000000059700000000005990000000000590000000000059300000000005950000000000594000000000059505387000000000004341000000000002577157600000000000000009999123100000010000000000000BRCMINACNOR2112
012024101502ALPA3       010ALPARGATAS  ON      N1   R$  000000000065800000000006580000000000656000000000065600000000006560000000000656000000000067600008000000000000002200000000000001444200000000000000009999123100000010000000000000BRALPAACNOR0231
012024101502ALPA4       010ALPARGATAS  PN      N1   R$  000000000069200000000007040000000000690000000000069400000000006920000000000692000000000069303588000000000001471300000000001021684000000000000000009999123100000010000000000000BRALPAACNPR7232
012024101502ALPK3       010ESTAPAR     ON      NM   R$  000000000026600000000002720000000000265000000000026700000000002670000000000267000000000026800209000000000000142800000000000038251500000000000000009999123100000010000000000000BRALPKACNOR9101
012024101502ALUP11      010ALUPAR      UNT     N2   R$  000000000293000000000029670000000002930000000000295800000000029650000000002946000000000296704084000000000000724300000000002143181200000000000000009999123100000010000000000000BRALUPCDAM15120
012024101502ALUP3       010ALUPAR      ON      N2   R$  000000000099500000000010170000000000995000000000101200000000010110000000001011000000000101200024000000000000004500000000000004557800000000000000009999123100000010000000000000BRALUPACNOR8120
012024101502ALUP4       010ALUPAR      PN      N2   R$  000000000097000000000009740000000000970000000000097200000000009740000000000966000000000097400032000000000000006200000000000006030300000000000000009999123100000010000000000000BRALUPACNPR5120
012024101502AMAR3       010LOJAS MARISAON      NM   R$  000000000010200000000001030000000000101000000000010100000000001010000000000101000000000010200358000000000000106900000000000010853400000000000000009999123100000010000000000000BRAMARACNOR4115
012024101502AMBP3       010AMBIPAR     ON      NM   R$  000000001332300000000145880000000013270000000001402600000000141810000000014180000000001420001619000000000000238000000000003338234600000000000000009999123100000010000000000000BRAMBPACNOR6103
012024101502NEOE3       010NEOENERGIA  ON      NM   R$  000000000190500000000019150000000001896000000000190500000000019070000000001905000000000190903602000000000000937900000000001787400900000000000000009999123100000010000000000000BRNEOEACNOR3123
012024101502KLBN11      010KLABIN S/A  UNT     N2   R$  000000000202100000000020470000000002008000000000203000000000020360000000002034000000000203611689000000000005947800000000012074482300000000000000009999123100000010000000000000BRKLBNCDAM18143
012024101502BRBI11      010BR PARTNERS UNT     N2   R$  000000000152100000000015240000000001499000000000151300000000015130000000001513000000000151601005000000000000138000000000000208926200000000000000009999123100000010000000000000BRBRBICDAM10110
012024101502BRFS3       010BRF SA      ON      NM   R$  000000000230400000000023520000000002302000000000233100000000023300000000002330000000000233212425000000000003975300000000009267656300000000000000009999123100000010000000000000BRBRFSACNOR8122
012024101502CSAN3       010COSAN       ON      NM   R$  000000000122300000000012340000000001205000000000121500000000012120000000001212000000000121313870000000000007926900000000009636626900000000000000009999123100000010000000000000BRCSANACNOR6126
012024101502ELMD3       010ELETROMIDIA ON      NM   R$  000000000167300000000018060000000001673000000000175900000000017640000000001764000000000176501387000000000000311300000000000547858800000000000000009999123100000010000000000000BRELMDACNOR3101
012024101502HYPE3       010HYPERA      ON      NM   R$  000000000271300000000027600000000002706000000000273300000000027140000000002714000000000273016084000000000002870100000000007844343600000000000000009999123100000010000000000000BRHYPEACNOR0144
012024101502ATOM3       010ATOMPAR     ON           R$  000000000026800000000002690000000000259000000000026100000000002590000000000258000000000025900052000000000000023900000000000006255000000000000000009999123100000010000000000000BRATOMACNOR1106
012024101502AURE3       010AUREN       ON      NM   R$  000000000101700000000010210000000001008000000000101300000000010170000000001013000000000101707926000000000005096000000000005162827600000000000000009999123100000010000000000000BRAUREACNOR9104
012024101502AVLL3       010ALPHAVILLE  ON      NM   R$  000000000031100000000003140000000000311000000000031300000000003140000000000293000000000031400006000000000000004200000000000001318400000000000000009999123100000010000000000000BRAVLLACNOR5103
012024101502AZEV3       010AZEVEDO     ON           R$  000000000012900000000001330000000000128000000000013000000000001290000000000128000000000013000409000000000000546900000000000071336500000000000000009999123100000010000000000000BRAZEVACNOR0121
012024101502AZEV4       010AZEVEDO     PN           R$  000000000013000000000001320000000000128000000000012900000000001280000000000127000000000012800900000000000001196000000000000155271700000000000000009999123100000010000000000000BRAZEVACNPR7121
012024101502AZUL4       010AZUL        PN      N2   R$  000000000061500000000006270000000000582000000000059900000000005880000000000587000000000058812173000000000023492400000000014088262300000000000000009999123100000010000000000000BRAZULACNPR4103
012024101502BBDC3       010BRADESCO    ON      N1   R$  000000000131500000000013300000000001311000000000132100000000013200000000001318000000000132007701000000000004894000000000006467680900000000000000009999123100000010000000000000BRBBDCACNOR1776
012024101502BBDC4       010BRADESCO    PN      N1   R$  000000000150500000000015240000000001501000000000151400000000015150000000001514000000000151550829000000000029965600000000045383718400000000000000009999123100000010000000000000BRBBDCACNPR8776
012024101502CPLE5       010COPEL       PNA     N2   R$  000000000127500000000012750000000001275000000000127500000000012750000000001100000000000135000001000000000000000100000000000000127500000000000000009999123100000010000000000000BRCPLEACNPA1148
012024101502CPLE6       010COPEL       PNB     N2   R$  000000000101000000000010190000000001005000000000101100000000010120000000001010000000000101316906000000000013521400000000013671174200000000000000009999123100000010000000000000BRCPLEACNPB9147
012024101502CRFB3       010CARREFOUR BRON      NM   R$  000000000074800000000007540000000000722000000000073500000000007290000000000724000000000072912777000000000009252700000000006808276900000000000000009999123100000010000000000000BRCRFBACNOR2116
012024101502CRPG5       010CRISTAL     PNA          R$  000000000258900000000025890000000002568000000000257800000000025690000000002569000000000258500005000000000000000700000000000001804800000000000000009999123100000010000000000000BRCRPGACNPA3119
012024101502CRPG6       010CRISTAL     PNB          R$  000000000257000000000025700000000002570000000000257000000000025700000000002524000000000259900001000000000000000100000000000000257000000000000000009999123100000010000000000000BRCRPGACNPB1119
012024101502HAGA3       010HAGA S/A    ON           R$  000000000024600000000002550000000000242000000000024600000000002420000000000242000000000025000100000000000000063300000000000015598000000000000000009999123100000010000000000000BRHAGAACNOR7103
012024101502HAGA4       010HAGA S/A    PN           R$  000000000011900000000001200000000000117000000000011800000000001180000000000117000000000011800010000000000000008000000000000000951100000000000000009999123100000010000000000000BRHAGAACNPR4103
012024101502HAPV3       010HAPVIDA     ON  ATZ NM   R$  000000000038800000000003940000000000383000000000038600000000003850000000000385000000000038637687000000000056474300000000021846173400000000000000009999123100000010000000000000BRHAPVACNOR4115
012024101502HBOR3       010HELBOR      ON      NM   R$  000000000019100000000001930000000000188000000000018900000000001880000000000188000000000018900447000000000000414400000000000078686100000000000000009999123100000010000000000000BRHBORACNOR3118
012024101502HBRE3       010HBR REALTY  ON      NM   R$  000000000046200000000004630000000000453000000000045800000000004600000000000460000000000046100623000000000000260200000000000119203700000000000000009999123100000010000000000000BRHBREACNOR4100
012024101502HBSA3       010HIDROVIAS   ON      NM   R$  000000000032100000000003300000000000321000000000032500000000003250000000000325000000000032703453000000000003197000000000001041795400000000000000009999123100000010000000000000BRHBSAACNOR0101
012024101502HBTS5       010HABITASUL   PNA          R$  000000000298100000000029810000000002965000000000297000000000029680000000002852000000000305000007000000000000000800000000000002376200000000000000009999123100000010000000000000BRHBTSACNPA3128
012024101502ANIM3       010ANIMA       ON      NM   R$  000000000025200000000002550000000000243000000000024800000000002430000000000243000000000024508785000000000009155300000000002271932800000000000000009999123100000010000000000000BRANIMACNOR6109
012024101502ARML3       010ARMAC       ON  EJ  NM   R$  000000000081800000000008410000000000808000000000082900000000008410000000000833000000000084102064000000000000524400000000000434837700000000000000009999123100000010000000000000BRARMLACNOR1113
012024101502ASAI3       010ASSAI       ON      NM   R$  000000000072200000000007310000000000693000000000070900000000007010000000000700000000000070128425000000000030694500000000021773529500000000000000009999123100000010000000000000BRASAIACNOR0106
012024101502BLAU3       010BLAU        ON      NM   R$  000000000135800000000013680000000001320000000000134600000000013200000000001318000000000132001238000000000000209800000000000282405700000000000000009999123100000010000000000000BRBLAUACNOR8115
012024101507NUTR3       010NUTRIPLANT  ON      MA   R$  000000000045000000000004520000000000450000000000045000000000004520000000000451000000000045300015000000000000001500000000000000676400000000000000009999123100000010000000000000BRNUTRACNOR0104
012024101507SEQL3       010SEQUOIA LOG ON      NM   R$  000000000040200000000004110000000000358000000000038200000000003580000000000358000000000036201785000000000001131000000000000432462400000000000000009999123100000010000000000000BRSEQLACNOR2103
012024101507TXRX4       010TEX RENAUX  PN           R$  000000000022600000000002320000000000226000000000022900000000002320000000000227000000000023200002000000000000000200000000000000045800000000000000009999123100000010000000000000BRTXRXACNPR0142
012024101508HOOT4       010HOTEIS OTHONPN           R$  000000000022400000000002240000000000224000000000022400000000002240000000000224000000000022500010000000000000002300000000000000515200000000000000009999123100000010000000000000BRHOOTACNPR9015
012024101508PMAM3       010PARANAPANEMAON      NM   R$  000000000013200000000001340000000000124000000000012800000000001250000000000124000000000012500627000000000000197700000000000025356000000000000000009999123100000010000000000000BRPMAMACNOR3040
012024101508OIBR3       010OI          ON      N1   R$  000000000046100000000004640000000000450000000000045600000000004500000000000450000000000045400430000000000000247500000000000113089700000000000000009999123100000010000000000000BROIBRACNOR1112
012024101508OIBR4       010OI          PN      N1   R$  000000000108000000000010990000000001050000000000106600000000010790000000001039000000000107800021000000000000003900000000000004158600000000000000009999123100000010000000000000BROIBRACNPR8111
012024101508TEKA4       010TEKA        PN           R$  000000000271000000000027100000000002710000000000271000000000027100000000002644000000000330000002000000000000000200000000000000542000000000000000009999123100000010000000000000BRTEKAACNPR3140
012024101508OSXB3       010OSX BRASIL  ON      NM   R$  000000000049100000000004910000000000450000000000046500000000004690000000000457000000000046900025000000000000004900000000000002281700000000000000009999123100000010000000000000BROSXBACNOR8109
012024101508CTSA3       010SANTANENSE  ON           R$  000000000021700000000002170000000000217000000000021700000000002170000000000217000000000025000001000000000000000100000000000000021700000000000000009999123100000010000000000000BRCTSAACNOR3062
012024101508CTSA4       010SANTANENSE  PN           R$  000000000009800000000000980000000000098000000000009800000000000980000000000098000000000010100023000000000000035800000000000003508400000000000000009999123100000010000000000000BRCTSAACNPR0062
012024101508JFEN3       010JOAO FORTES ON           R$  000000000002600000000000260000000000024000000000002500000000000250000000000024000000000002500215000000000000921900000000000023070300000000000000009999123100000010000000000000BRJFENACNOR0059
012024101508LIGT3       010LIGHT S/A   ON      NM   R$  000000000064300000000006540000000000637000000000064600000000006480000000000645000000000064801114000000000000221400000000000143040300000000000000009999123100000010000000000000BRLIGTACNOR2124
012024101508AGXY3       010AGROGALAXY  ON      NM   R$  000000000005200000000000540000000000052000000000005200000000000530000000000053000000000005400163000000000000125000000000000006568700000000000000009999123100000010000000000000BRAGXYACNOR4103
012024101508RNEW11      010RENOVA      UNT     N2   R$  000000000034900000000003530000000000342000000000034700000000003470000000000340000000000034700044000000000000009400000000000003270700000000000000009999123100000010000000000000BRRNEWCDAM15110
012024101508RNEW3       010RENOVA      ON      N2   R$  000000000011400000000001180000000000112000000000011500000000001150000000000115000000000011700242000000000000213500000000000024712500000000000000009999123100000010000000000000BRRNEWACNOR8110
012024101508RNEW4       010RENOVA      PN      N2   R$  000000000011800000000001190000000000115000000000011600000000001160000000000116000000000011700303000000000000235700000000000027526500000000000000009999123100000010000000000000BRRNEWACNPR5110
012024101508RPMG3       010PET MANGUINHON           R$  000000000030200000000003110000000000301000000000030400000000003030000000000302000000000030300053000000000000017200000000000005232000000000000000009999123100000010000000000000BRRPMGACNOR9194
012024101508RSID3       010ROSSI RESID ON      NM   R$  000000000031000000000003180000000000302000000000030900000000003130000000000305000000000031300098000000000000019900000000000006167500000000000000009999123100000010000000000000BRRSIDACNOR8120
012024101508NEXP3       010NEXPE       ON           R$  000000000040500000000004050000000000399000000000040100000000003990000000000400000000000040700004000000000000000400000000000000160400000000000000009999123100000010000000000000BRNEXPACNOR0101
012024101508ATMP3       010ATMASA      ON           R$  000000000014600000000001460000000000144000000000014400000000001440000000000143000000000014400009000000000000002500000000000000362300000000000000009999123100000010000000000000BRATMPACNOR8100
012024101508AMER3       010AMERICANAS  ON      NM   R$  000000000039900000000004020000000000382000000000038900000000003880000000000386000000000038802720000000000002503700000000000975074200000000000000009999123100000010000000000000BRAMERACNOR6103
012024101510ZAMP9       010ZAMP S.A.   ON  REC      R$  000000000024800000000002480000000000241000000000024500000000002410000000000242000000000024700003000000000000001500000000000000368100000000000000009999123100000010000000000000BRZAMPR01OR0100
012024101510PINE1       010PINE        DIR ORD N2   R$  000000000004100000000000420000000000028000000000003500000000000390000000000035000000000003800158000000000000030600000000000001080600000000000000009999123100000010000000000000BRPINED04OR0150
012024101510PINE2       010PINE        DIR PRE N2   R$  000000000002900000000000400000000000029000000000003200000000000400000000000045000000000000000018000000000000003500000000000000112900000000000000009999123100000010000000000000BRPINED06PR2150
012024101510PMAM1       010PARANAPANEMADIR ORD NM   R$  000000000000100000000000010000000000001000000000000100000000000010000000000000000000000000100235000000000001125000000000000001125000000000000000009999123100000010000000000000BRPMAMD05OR9039
012024101510CBEE1       010AMPLA ENERG DIR ORD      R$  000000000007000000000000700000000000051000000000006200000000000510000000000050000000000010000003000000000000000300000000000000018600000000000000009999123100000010000000000000BRCBEED07OR5159
012024101510EQTL9       010EQUATORIAL  ON  REC NM   R$  000000000327900000000033000000000003242000000000329000000000033000000000003235000000000330000083000000000000043000000000000141511000000000000000009999123100000010000000000000BREQTLR04OR9130
012024101510HBSA1       010HIDROVIAS   DIR ORD NM   R$  000000000000100000000000020000000000001000000000000100000000000010000000000001000000000000200080000000000000349400000000000000398100000000000000009999123100000010000000000000BRHBSAD01OR5100
012024101512SNCI11      010FII SUNO CRICI           R$  000000000910100000000091500000000009074000000000909900000000090990000000009099000000000915001531000000000000011876000000000108063197000000000000009999123100000010000000000000BRSNCICTF002139
012024101512SNEL11      010FII SUNO EL CI           R$  000000000093000000000009320000000000914000000000091900000000009210000000000920000000000092101722000000000000198730000000000182775875000000000000009999123100000010000000000000BRSNELCTF010112
012024101512SNFF11      010FII SUNOFOFICI           R$  000000000867800000000086780000000008501000000000860900000000085550000000008529000000000855501856000000000000018590000000000160049010000000000000009999123100000010000000000000BRSNFFCTF001142
012024101512SNLG11      010FII SUNO LG CI           R$  000000000304900000000030720000000003036000000000304800000000030590000000003039000000000305900113000000000000001724000000000005255921000000000000009999123100000010000000000000BRSNLGCTF007107
012024101512SNME11      010FII SNME    CI           R$  000000000095100000000009750000000000951000000000097100000000009730000000000964000000000097300132000000000000010754000000000010451339000000000000009999123100000010000000000000BRSNMECTF000110
012024101512SPTW11      010FII SP DOWNTCI           R$  000000000365800000000037040000000003640000000000367800000000036800000000003680000000000368400330000000000000004186000000000015399901000000000000009999123100000010000000000000BRSPTWCTF002239
012024101512HOSI11      010FII HOUSI   CI           R$  000000000921100000000092150000000009112000000000919800000000092000000000009112000000000924500015000000000000002056000000000018911649000000000000009999123100000010000000000000BRHOSICTF009149
012024101512HPDP11      010FII HEDGEPDPCI           R$  000000000871200000000087400000000008500000000000853500000000087400000000008654000000000878000027000000000000001233000000000010524185000000000000009999123100000010000000000000BRHPDPCTF003156
012024101512HRDF11      010FII HREALTY CI           R$  000000000033500000000003460000000000335000000000033900000000003410000000000319000000000033700008000000000000000032000000000000010862000000000000009999123100000010000000000000BRHRDFCTF000103
012024101512HREC11      010FII HEDGERECCI           R$  000000000085000000000008560000000000830000000000084200000000008450000000000845000000000085700387000000000000051242000000000043163025000000000000009999123100000010000000000000BRHRECCTF005154
012024101512HSAF11      010FII HSI CRI CI           R$  000000000785300000000080000000000007853000000000794100000000080000000000007936000000000800002677000000000000009899000000000078614662000000000000009999123100000010000000000000BRHSAFCTF004152
012024101512HSLG11      010FII HSI LOG CI           R$  000000000817900000000082500000000008100000000000816700000000081550000000008155000000000816400686000000000000004548000000000037147117000000000000009999123100000010000000000000BRHSLGCTF009146
012024101512HSML11      010FII HSI MALLCI           R$  000000000864000000000087910000000008637000000000871500000000087150000000008710000000000871506150000000000000036967000000000322196098000000000000009999123100000010000000000000BRHSMLCTF007165
012024101512HSRE11      010FII HSIRENDACI           R$  000000000950400000000099570000000009500000000000950000000000097250000000009600000000000995702644000000000000263224000000002500638984000000000000009999123100000010000000000000BRHSRECTF001145
012024101512SPXS11      010FII SPX SYN CI  ER       R$  000000000091200000000009130000000000902000000000090700000000009060000000000905000000000090605930000000000000032232000000000029248391000000000000009999123100000010000000000000BRSPXSCTF002128
012024101512ZAGH11      010FII ZAGH    CI  ER       R$  000000000120500000000012050000000001200000000000120400000000012000000000001200000000000120500003000000000000000013000000000000015655000000000000009999123100000010000000000000BRZAGHCTF007109
012024101512ZAVC11      010FII ZAVIT C CI           R$  000000000090000000000009000000000000900000000000090000000000009000000000000917000000000104800003000000000000000011000000000000009900000000000000009999123100000010000000000000BRZAVCCTF007106
012024101512ZAVI11      010FII ZAVIT R CI           R$  000000001094300000000109430000000010602000000001070700000000106240000000010624000000001076000253000000000000002243000000000024017155000000000000009999123100000010000000000000BRZAVICTF004125
012024101512JASC11      010FII JASC RENCI  ER       R$  000000000950000000000095000000000009500000000000950000000000095000000000009600000000000000000002000000000000000010000000000000095000000000000000009999123100000010000000000000BRJASCCTF007128
012024101512LSPA11      010FII LESTE PACI           R$  000000000330000000000033000000000003299000000000329900000000033000000000003250000000000330000029000000000000000135000000000000445488000000000000009999123100000010000000000000BRLSPACTF005143
012024101512LVBI11      010FII VBI LOG CI           R$  000000001059100000000106280000000010535000000001058800000000105910000000010590000000001059105281000000000000026189000000000277303013000000000000009999123100000010000000000000BRLVBICTF002173
012024101512SJAU11      010FII SJ AU   CI           R$  000000000508900000000050890000000005054000000000506300000000050690000000005000000000000540000004000000000000000024000000000000121531000000000000009999123100000010000000000000BRSJAUCTF009102
012024101512BCFF11      010FII BC FFII CI  ER       R$  000000000076000000000007630000000000752000000000075600000000007550000000000755000000000075612721000000000000773313000000000585109596000000000000009999123100000010000000000000BRBCFFCTF000282
012024101512BCIA11      010FII BCIA    CI           R$  000000000905000000000091490000000009050000000000908100000000090870000000009067000000000908700735000000000000007135000000000064797503000000000000009999123100000010000000000000BRBCIACTF005214
012024101512BCRI11      010FII BEES CRICI           R$  000000000645000000000064780000000006344000000000641000000000064320000000006366000000000643200926000000000000011172000000000071613384000000000000009999123100000010000000000000BRBCRICTF009219
012024101512CXAG11      010FII CAIXA AGCI           R$  000000000723600000000072360000000007225000000000723300000000072360000000007225000000000723600095000000000000002807000000000020304217000000000000009999123100000010000000000000BRCXAGCTF003132
012024101512CXCE11      010FII CX CEDAECI           R$  000000000403100000000040310000000004003000000000402700000000040230000000004002000000000402300016000000000000000099000000000000398740000000000000009999123100000010000000000000BRCXCECTF004273
012024101512CXCI11      010FII CAIXA CICI  ER       R$  000000000738500000000075440000000007385000000000743000000000074970000000007469000000000749800073000000000000002874000000000021354834000000000000009999123100000010000000000000BRCXCICTF005131
012024101512CXCO11      010FII CEF CORPCI           R$  000000000629700000000063340000000006207000000000629700000000063340000000006316000000000633400176000000000000002516000000000015843752000000000000009999123100000010000000000000BRCXCOCTF003142
012024101512CXRI11      010FII CX RBRAVCI           R$  000000000721500000000072870000000007200000000000721200000000072840000000007170000000000728300009000000000000000036000000000000259648000000000000009999123100000010000000000000BRCXRICTF003232
012024101512CXTL11      010FII CX TRX  CI           R$  000000002198900000000225980000000021989000000002217900000000222480000000021989000000002261800005000000000000000010000000000000221791000000000000009999123100000010000000000000BRCXTLCTF003241
012024101512CYCR11      010FII CYRELA  CI           R$  000000000090200000000009340000000000902000000000092300000000009170000000000916000000000092000481000000000000011919000000000011009777000000000000009999123100000010000000000000BRCYCRCTF004143
012024101512EURO11      010FII EUROPAR CI           R$  000000002342700000000234270000000023210000000002322000000000232100000000023102000000002321000012000000000000000060000000000001393233000000000000009999123100000010000000000000BREUROCTF011363
012024101512EVBI11      010FII VBI CON CI           R$  000000000092000000000009700000000000920000000000092900000000009300000000000922000000000093000061000000000000002447000000000002274065000000000000009999123100000010000000000000BREVBICTF007153
012024101512EXES11      010FII EXES    CI           R$  000000000094100000000009540000000000940000000000095300000000009540000000000938000000000096000020000000000000208717000000000199114997000000000000009999123100000010000000000000BREXESCTF006129
012024101512FAED11      010FII ANH EDUCCI  ER       R$  000000001459100000000147870000000014591000000001468600000000147080000000014708000000001478500060000000000000000603000000000008855787000000000000009999123100000010000000000000BRFAEDCTF003282
012024101512FAMB11      010FII ALMIRANTCI           R$  000000018700000000001900000000000184735000000018891800000001899990000000183405000000018999900060000000000000000275000000000051952626000000000000009999123100000010000000000000BRFAMBCTF018316
012024101512FATN11      010FII ATHENA ICI  ER       R$  000000000900000000000090000000000008975000000000899200000000089930000000008976000000000899300388000000000000003852000000000034640930000000000000009999123100000010000000000000BRFATNCTF000156
012024101512FCFL11      010FII CAMPUSFLCI           R$  000000001125000000000113990000000011250000000001133500000000113500000000011320000000001138300161000000000000002068000000000023442622000000000000009999123100000010000000000000BRFCFLCTF009273
012024101512FIGS11      010FII GEN SHOPCI           R$  000000000510300000000052660000000005103000000000523600000000052110000000005190000000000521100064000000000000000730000000000003822448000000000000009999123100000010000000000000BRFIGSCTF009232
012024101512FIIB11      010FII INDL BR CI           R$  000000004970100000000498000000000049501000000004969900000000498000000000049661000000004980000099000000000000000266000000000013220132000000000000009999123100000010000000000000BRFIIBCTF001255
012024101512FIIP11B     010FII RB CAP ICI      MB   R$  000000001630400000000164870000000016200000000001630000000000163030000000016201000000001630300049000000000000000294000000000004792451000000000000009999123100000010000000000000BRFIIPCTF001278
012024101512FISC11      010FII SC 401  CI  ER       R$  000000000750000000000075000000000007500000000000750000000000075000000000006101000000000000000001000000000000000005000000000000037500000000000000009999123100000010000000000000BRFISCCTF008140
012024101512FIVN11      010FII VIDANOVACI           R$  000000000026600000000002780000000000260000000000026400000000002770000000000262000000000027600052000000000000003123000000000000827075000000000000009999123100000010000000000000BRFIVNCTF009100
012024101512FLCR11      010FII FL RECEBCI  ER       R$  000000000977000000000098380000000009721000000000977700000000098380000000009820000000000983802685000000000000050512000000000493893970000000000000009999123100000010000000000000BRFLCRCTF004146
012024101512FLMA11      010FII S F LIMACI  ER       R$  000000001382700000000138270000000013681000000001377000000000136810000000013681000000001374800079000000000000000507000000000006981441000000000000009999123100000010000000000000BRFLMACTF009346
012024101512BBFI11      010FII BB PROGRCI           R$  000000003905000000000399980000000038000000000003838900000000380000000000038000000000003870600098000000000000000267000000000010249920000000000000009999123100000010000000000000BRBBFICTF006329
012024101512BBFO11      010FII BB FOF  CI           R$  000000000667500000000066750000000006613000000000665600000000066690000000006624000000000666900172000000000000003259000000000021694672000000000000009999123100000010000000000000BRBBFOCTF004145
012024101512BBIG11      010FII BBIG    CI           R$  000000000092800000000009310000000000925000000000092900000000009310000000000929000000000093100617000000000000135093000000000125592243000000000000009999123100000010000000000000BRBBIGCTF004105
012024101512BBRC11      010FII BB CORP CI           R$  000000001110000000000114000000000011010000000001118600000000112970000000011151000000001140000131000000000000001951000000000021824919000000000000009999123100000010000000000000BRBBRCCTF004257
012024101512BTAL11      010FII BTG AGROCI           R$  000000000729600000000073700000000007277000000000729700000000073160000000007280000000000731603140000000000000008515000000000062136353000000000000009999123100000010000000000000BRBTALCTF003143
