00COTAHIST.2024BOVESPA 20241029                                                                                                                                                                                                                      
012024102902NGRD3       010NEOGRID     ON      NM   R$  000000000251000000000025620000000002444000000000248700000000024500000000002440000000000249700155000000000000019200000000000047766200000000000000009999123100000010000000000000BRNGRDACNOR3106
012024102902NINJ3       010GETNINJAS   ON      NM   R$  000000000044900000000004490000000000449000000000044900000000004490000000000449000000000045500003000000000000200000000000000089800000000000000000009999123100000010000000000000BRNINJACNOR5101
012024102902NTCO3       010GRUPO NATURAON      NM   R$  000000000140800000000014180000000001392000000000140500000000014080000000001406000000000140909106000000000010730700000000015083324800000000000000009999123100000010000000000000BRNTCOACNOR5106
012024102902BAHI3       010BAHEMA      ON      MA   R$  000000000045800000000004580000000000445000000000044800000000004500000000000440000000000045000023000000000000018300000000000008214700000000000000009999123100000010000000000000BRBAHIACNOR1074
012024102902IFCM3       010INFRACOMM   ON      NM   R$  000000000001400000000000150000000000013000000000001300000000000140000000000013000000000001400757000000000002648100000000000036392700000000000000009999123100000010000000000000BRIFCMACNOR8101
012024102902IGTI11      010IGUATEMI S.AUNT     N1   R$  000000000211000000000021410000000002098000000000211400000000021050000000002105000000000210607132000000000001492500000000003155471600000000000000009999123100000010000000000000BRIGTICDAM16106
012024102902IGTI3       010IGUATEMI S.AON      N1   R$  000000000025400000000002580000000000254000000000025500000000002570000000000255000000000025700055000000000000023300000000000005950200000000000000009999123100000010000000000000BRIGTIACNOR8106
012024102902INEP3       010INEPAR      ON           R$  000000000016100000000001640000000000153000000000015600000000001540000000000153000000000015400225000000000000074200000000000011606300000000000000009999123100000010000000000000BRINEPACNOR1143
012024102902INEP4       010INEPAR      PN           R$  000000000016500000000001660000000000149000000000015500000000001500000000000150000000000015200214000000000000054100000000000008438400000000000000009999123100000010000000000000BRINEPACNPR8143
012024102902INTB3       010INTELBRAS   ON      NM   R$  000000000201600000000020160000000001910000000000194200000000019800000000001980000000000198115047000000000005836700000000011335797100000000000000009999123100000010000000000000BRINTBACNOR9112
012024102902LJQQ3       010QUERO-QUERO ON      NM   R$  000000000028700000000002900000000000279000000000028200000000002820000000000282000000000028303646000000000003285200000000000928204300000000000000009999123100000010000000000000BRLJQQACNOR5104
012024102902BIOM3       010BIOMM       ON      MA   R$  000000000089500000000009060000000000882000000000089300000000008880000000000888000000000089400122000000000000045000000000000040191600000000000000009999123100000010000000000000BRBIOMACNOR2112
012024102902LOGG3       010LOG COM PROPON      NM   R$  000000000223400000000022720000000002223000000000223800000000022320000000002230000000000223200951000000000000105800000000000236868900000000000000009999123100000010000000000000BRLOGGACNOR7107
012024102902LOGN3       010LOG-IN      ON      NM   R$  000000000272900000000027440000000002542000000000264600000000025750000000002575000000000259400249000000000000032800000000000086806100000000000000009999123100000010000000000000BRLOGNACNOR3105
012024102902LPSB3       010LOPES BRASILON      NM   R$  000000000016600000000001680000000000163000000000016500000000001630000000000163000000000016600113000000000000040400000000000006688800000000000000009999123100000010000000000000BRLPSBACNOR0114
012024102902LREN3       010LOJAS RENNERON      NM   R$  000000000185900000000018660000000001836000000000184800000000018500000000001846000000000185009672000000000003942700000000007288716500000000000000009999123100000010000000000000BRLRENACNOR1222
012024102902OFSA3       010OUROFINO S/AON      NM   R$  000000000220000000000022100000000002151000000000217400000000021510000000002150000000000219000006000000000000001100000000000002392100000000000000009999123100000010000000000000BROFSAACNOR7118
012024102902ONCO3       010ONCOCLINICASON      NM   R$  000000000046100000000004640000000000444000000000045100000000004470000000000447000000000044803262000000000001793200000000000808952600000000000000009999123100000010000000000000BRONCOACNOR6101
012024102902OPCT3       010OCEANPACT   ON      NM   R$  000000000063000000000006430000000000626000000000063400000000006350000000000629000000000063502336000000000000523200000000000331757600000000000000009999123100000010000000000000BROPCTACNOR0100
012024102902MAPT4       010CEMEPE      PN           R$  000000000050000000000005000000000000500000000000050000000000005000000000000500000000000054000004000000000000001800000000000000900000000000000000009999123100000010000000000000BRMAPTACNPR5106
012024102902MATD3       010MATER DEI   ON      NM   R$  000000000042500000000004250000000000412000000000041700000000004200000000000419000000000042000555000000000000293500000000000122449700000000000000009999123100000010000000000000BRMATDACNOR4104
012024102902WEGE3       010WEG         ON      NM   R$  000000000561200000000057010000000005604000000000566600000000056940000000005694000000000569518328000000000004877100000000027638337500000000000000009999123100000010000000000000BRWEGEACNOR0225
012024102902WLMM4       010WLM IND COM PN           R$  000000000308100000000030810000000003008000000000302800000000030080000000003008000000000305000012000000000000001200000000000003634500000000000000009999123100000010000000000000BRWLMMACNPR3119
012024102902YDUQ3       010YDUQS PART  ON      NM   R$  000000000108800000000010970000000001049000000000106900000000010600000000001058000000000106006126000000000002750000000000002942208900000000000000009999123100000010000000000000BRYDUQACNOR3105
012024102902ZAMP3       010ZAMP S.A.   ON           R$  000000000025300000000002590000000000243000000000024800000000002440000000000244000000000024702178000000000000634400000000000157384900000000000000009999123100000010000000000000BRZAMPACNOR5101
012024102902POSI3       010POSITIVO TECON      NM   R$  000000000067000000000006740000000000635000000000065000000000006350000000000635000000000063703554000000000001434800000000000933660000000000000000009999123100000010000000000000BRPOSIACNOR9116
012024102902PRIO3       010PETRORIO    ON      NM   R$  000000000412500000000041390000000003991000000000403300000000040500000000004050000000000405128965000000000010612700000000042803242800000000000000009999123100000010000000000000BRPRIOACNOR1107
012024102902ROMI3       010ROMI        ON      NM   R$  000000000102000000000010200000000001004000000000100700000000010050000000001005000000000100700746000000000000107900000000000108660900000000000000009999123100000010000000000000BRROMIACNOR8196
012024102902TPIS3       010TRIUNFO PARTON      NM   R$  000000000067600000000006880000000000654000000000066100000000006650000000000665000000000066600325000000000000085300000000000056452000000000000000009999123100000010000000000000BRTPISACNOR8118
012024102902TRAD3       010TC          ON      NM   R$  000000000056500000000005670000000000543000000000055400000000005620000000000558000000000056300728000000000000237500000000000131652500000000000000009999123100000010000000000000BRTRADACNOR3102
012024102902TRIS3       010TRISUL      ON      NM   R$  000000000053900000000005460000000000531000000000053700000000005310000000000531000000000053501330000000000000478200000000000257255800000000000000009999123100000010000000000000BRTRISACNOR4118
012024102902TRPL3       010TRAN PAULISTON      N1   R$  000000000307400000000030890000000003051000000000306500000000030510000000003049000000000305100016000000000000002100000000000006436700000000000000009999123100000010000000000000BRTRPLACNOR4185
012024102902TRPL4       010TRAN PAULISTPN      N1   R$  000000000244000000000024530000000002429000000000243500000000024290000000002429000000000244105568000000000001700500000000004142414200000000000000009999123100000010000000000000BRTRPLACNPR1185
012024102902TTEN3       0103TENTOS     ON      NM   R$  000000000112200000000011430000000001120000000000112900000000011390000000001139000000000114303934000000000000613700000000000693006800000000000000009999123100000010000000000000BRTTENACNOR0103
012024102902TUPY3       010TUPY        ON      NM   R$  000000000236700000000023670000000002319000000000233100000000023250000000002325000000000233703679000000000000717300000000001672645900000000000000009999123100000010000000000000BRTUPYACNOR1184
012024102902UCAS3       010UNICASA     ON      NM   R$  000000000021400000000002150000000000212000000000021200000000002150000000000213000000000021500050000000000000021200000000000004509700000000000000009999123100000010000000000000BRUCASACNOR1113
012024102902VITT3       010VITTIA      ON  EJ  NM   R$  000000000055400000000005580000000000540000000000054600000000005400000000000540000000000054300929000000000000287700000000000157248100000000000000009999123100000010000000000000BRVITTACNOR4108
012024102902VIVA3       010VIVARA S.A. ON      NM   R$  000000000252200000000025400000000002462000000000249600000000025010000000002501000000000250407307000000000002100900000000005244836700000000000000009999123100000010000000000000BRVIVAACNOR0107
012024102902VIVR3       010VIVER       ON      NM   R$  000000000015600000000001590000000000155000000000015600000000001550000000000155000000000015600065000000000000059200000000000009272900000000000000009999123100000010000000000000BRVIVRACNOR4123
012024102902VIVT3       010TELEF BRASILON           R$  000000000538000000000054370000000005191000000000527600000000051910000000005188000000000520015877000000000003589000000000018937591500000000000000009999123100000010000000000000BRVIVTACNOR0184
012024102902PFRM3       010PROFARMA    ON      NM   R$  000000000062900000000006460000000000604000000000062500000000006100000000000605000000000061100649000000000000413500000000000258618700000000000000009999123100000010000000000000BRPFRMACNOR1116
012024102902PGMN3       010PAGUE MENOS ON      NM   R$  000000000028300000000002880000000000280000000000028200000000002860000000000282000000000028601370000000000000241800000000000068409200000000000000009999123100000010000000000000BRPGMNACNOR8103
012024102902PINE3       010PINE        ON      N2   R$  000000000045300000000004740000000000453000000000045900000000004580000000000451000000000046600024000000000000005500000000000002526300000000000000009999123100000010000000000000BRPINEACNOR1152
012024102902PINE4       010PINE        PN      N2   R$  000000000046200000000004650000000000453000000000045700000000004550000000000455000000000045600357000000000000227900000000000104150800000000000000009999123100000010000000000000BRPINEACNPR8152
012024102902PLPL3       010PLANOEPLANO ON      NM   R$  000000000134900000000013680000000001335000000000135200000000013560000000001351000000000135602224000000000000486000000000000657350000000000000000009999123100000010000000000000BRPLPLACNOR5104
012024102902KEPL3       010KEPLER WEBERON      NM   R$  000000000097000000000010170000000000969000000000100000000000009960000000000996000000000099903922000000000001511100000000001511930000000000000000009999123100000010000000000000BRKEPLACNOR1064
012024102902MTRE3       010MITRE REALTYON  ED  NM   R$  000000000036700000000003690000000000360000000000036300000000003600000000000360000000000036100498000000000000223900000000000081291600000000000000009999123100000010000000000000BRMTREACNOR6116
012024102902MTSA4       010METISA      PN           R$  000000000356500000000036640000000003521000000000358700000000036630000000003531000000000366400021000000000000002800000000000010046100000000000000009999123100000010000000000000BRMTSAACNPR9073
012024102902MULT3       010MULTIPLAN   ON      N2   R$  000000000251200000000025200000000002477000000000249700000000025040000000002503000000000251408414000000000002205700000000005509333300000000000000009999123100000010000000000000BRMULTACNOR5139
012024102902MWET4       010WETZEL S/A  PN           R$  000000000107900000000010790000000001079000000000107900000000010790000000000940000000000107900001000000000000000400000000000000431600000000000000009999123100000010000000000000BRMWETACNPR3118
012024102902MYPK3       010IOCHP-MAXIONON      NM   R$  000000000101900000000010370000000001018000000000102500000000010240000000001023000000000102503368000000000000705200000000000722907600000000000000009999123100000010000000000000BRMYPKACNOR7156
012024102902FRAS3       010FRAS-LE     ON      N1   R$  000000000224000000000022480000000002211000000000222500000000022190000000002219000000000222601235000000000000188900000000000420394400000000000000009999123100000010000000000000BRFRASACNOR0160
012024102902FRIO3       010METALFRIO   ON      NM   R$  000000001370000000000137000000000013000000000001300900000000130000000000012600000000001300000060000000000000032100000000000417612800000000000000009999123100000010000000000000BRFRIOACNOR2111
012024102902ITSA3       010ITAUSA      ON      N1   R$  000000000107900000000010830000000001072000000000107600000000010730000000001070000000000107300206000000000000052500000000000056539300000000000000009999123100000010000000000000BRITSAACNOR0443
012024102902ITSA4       010ITAUSA      PN      N1   R$  000000000107700000000010830000000001069000000000107500000000010700000000001070000000000107112740000000000017638800000000018973755500000000000000009999123100000010000000000000BRITSAACNPR7443
012024102902MDNE3       010MOURA DUBEUXON      NM   R$  000000000158900000000015890000000001545000000000155700000000015550000000001546000000000155602359000000000000539600000000000840228500000000000000009999123100000010000000000000BRMDNEACNOR9100
012024102902MEAL3       010IMC S/A     ON      NM   R$  000000000014000000000001400000000000138000000000013800000000001390000000000139000000000014000070000000000000084900000000000011799700000000000000009999123100000010000000000000BRMEALACNOR9105
012024102902MELK3       010MELNICK     ON      NM   R$  000000000036900000000003710000000000359000000000036400000000003590000000000359000000000036000473000000000000387200000000000141250900000000000000009999123100000010000000000000BRMELKACNOR8111
012024102902PTNT4       010PETTENATI   PN           R$  000000000062300000000006460000000000616000000000063300000000006160000000000615000000000063400028000000000000006700000000000004245100000000000000009999123100000010000000000000BRPTNTACNPR3047
012024102902MGEL4       010MANGELS INDLPN           R$  000000000081900000000008190000000000803000000000080400000000008030000000000786000000000081800004000000000000001400000000000001125900000000000000009999123100000010000000000000BRMGELACNPR3147
012024102902MGLU3       010MAGAZ LUIZA ON      NM   R$  000000000094500000000009520000000000915000000000093000000000009230000000000922000000000092313462000000000017823100000000016578070300000000000000009999123100000010000000000000BRMGLUACNOR2125
012024102902AERI3       010AERIS       ON      NM   R$  000000000063400000000006460000000000611000000000062800000000006240000000000624000000000062500809000000000000239000000000000150119900000000000000009999123100000010000000000000BRAERIACNOR4102
012024102902AESB3       010AES BRASIL  ON      NM   R$  000000000086000000000009150000000000844000000000088900000000008780000000000878000000000088305546000000000002851100000000002537306300000000000000009999123100000010000000000000BRAESBACNOR7107
012024102902QUAL3       010QUALICORP   ON      NM   R$  000000000022000000000002260000000000208000000000021400000000002080000000000208000000000020904416000000000004504800000000000965934400000000000000009999123100000010000000000000BRQUALACNOR6120
012024102902RADL3       010RAIADROGASILON      NM   R$  000000000244200000000024480000000002384000000000240700000000023980000000002396000000000239811960000000000005915700000000014240496000000000000000009999123100000010000000000000BRRADLACNOR0158
012024102902SMFT3       010SMART FIT   ON      NM   R$  000000000217200000000021880000000002146000000000215700000000021470000000002147000000000215706766000000000001204300000000002598790200000000000000009999123100000010000000000000BRSMFTACNOR1112
012024102902AGRO3       010BRASILAGRO  ON  ED  NM   R$  000000000237000000000023770000000002352000000000236000000000023580000000002358000000000236201528000000000000225300000000000531819600000000000000009999123100000010000000000000BRAGROACNOR7115
012024102902ALLD3       010ALLIED      ON      NM   R$  000000000076300000000007720000000000756000000000076300000000007560000000000756000000000076300169000000000000044000000000000033581400000000000000009999123100000010000000000000BRALLDACNOR3106
012024102902ALOS3       010ALLOS       ON  ED  NM   R$  000000000220400000000022240000000002188000000000219900000000022030000000002200000000000220410857000000000003012500000000006624614700000000000000009999123100000010000000000000BRALOSACNOR5103
012024102902BBDC3       010BRADESCO    ON      N1   R$  000000000133300000000013420000000001311000000000131800000000013150000000001314000000000131505677000000000005084600000000006705165800000000000000009999123100000010000000000000BRBBDCACNOR1776
012024102902BBDC4       010BRADESCO    PN      N1   R$  000000000152900000000015390000000001496000000000150600000000014980000000001498000000000149938292000000000032485200000000048945917100000000000000009999123100000010000000000000BRBBDCACNPR8776
012024102902SMTO3       010SAO MARTINHOON      NM   R$  000000000254200000000025600000000002508000000000253100000000025390000000002520000000000253905637000000000001238900000000003136462900000000000000009999123100000010000000000000BRSMTOACNOR3127
012024102902PRNR3       010PRINER      ON      NM   R$  000000000134500000000013600000000001327000000000134400000000013530000000001341000000000135301119000000000000417600000000000561396400000000000000009999123100000010000000000000BRPRNRACNOR4109
012024102902PSSA3       010PORTO SEGUROON      NM   R$  000000000386300000000038860000000003841000000000385900000000038490000000003849000000000386006144000000000001130900000000004364822300000000000000009999123100000010000000000000BRPSSAACNOR7156
012024102902PTBL3       010PORTOBELLO  ON      NM   R$  000000000043400000000004380000000000421000000000042500000000004210000000000421000000000042201135000000000000303000000000000128893000000000000000009999123100000010000000000000BRPTBLACNOR8132
012024102902PTNT3       010PETTENATI   ON           R$  000000000093500000000009580000000000935000000000094700000000009500000000000944000000000095000013000000000000001600000000000001515500000000000000009999123100000010000000000000BRPTNTACNOR6042
012024102902SCAR3       010SAO CARLOS  ON      NM   R$  000000000211600000000021740000000002106000000000212800000000021300000000002100000000000213000035000000000000005000000000000010641700000000000000009999123100000010000000000000BRSCARACNOR7131
012024102902SEER3       010SER EDUCA   ON      NM   R$  000000000061200000000006420000000000608000000000063100000000006380000000000630000000000063802033000000000000478400000000000301942700000000000000009999123100000010000000000000BRSEERACNOR5119
012024102902SHOW3       010TIME FOR FUNON      NM   R$  000000000009300000000000950000000000093000000000009400000000000930000000000093000000000009400172000000000000064900000000000006111400000000000000009999123100000010000000000000BRSHOWACNOR7105
012024102902SHUL4       010SCHULZ      PN           R$  000000000062300000000006340000000000623000000000062900000000006320000000000629000000000063200856000000000000242400000000000152710900000000000000009999123100000010000000000000BRSHULACNPR4157
012024102902SIMH3       010SIMPAR      ON      NM   R$  000000000054400000000005530000000000535000000000054300000000005370000000000537000000000053803356000000000001733300000000000942029400000000000000009999123100000010000000000000BRSIMHACNOR0107
012024102902SLCE3       010SLC AGRICOLAON      NM   R$  000000000171800000000017200000000001701000000000171100000000017190000000001719000000000172009375000000000003313500000000005672062100000000000000009999123100000010000000000000BRSLCEACNOR2125
012024102902BHIA3       010CASAS BAHIA ON      NM   R$  000000000042800000000004300000000000408000000000041400000000004080000000000408000000000040902957000000000003945300000000001634996000000000000000009999123100000010000000000000BRBHIAACNOR1102
012024102902BRAV3       010BRAVA       ON      NM   R$  000000000169400000000017310000000001686000000000170700000000017040000000001703000000000170510013000000000004944300000000008443138700000000000000009999123100000010000000000000BRBRAVACNOR3100
012024102902CSED3       010CRUZEIRO EDUON      NM   R$  000000000034500000000003510000000000334000000000034000000000003400000000000335000000000034000788000000000000362000000000000123223000000000000000009999123100000010000000000000BRCSEDACNOR9105
012024102902CSMG3       010COPASA      ON      NM   R$  000000000227000000000022930000000002262000000000228200000000022890000000002288000000000229005244000000000001316300000000003004960600000000000000009999123100000010000000000000BRCSMGACNOR5175
012024102902CSNA3       010SID NACIONALON           R$  000000000120700000000012100000000001172000000000117800000000011760000000001175000000000117609089000000000012491000000000014721698100000000000000009999123100000010000000000000BRCSNAACNOR6261
012024102902ELET6       010ELETROBRAS  PNB     N1   R$  000000000422900000000042560000000004210000000000422600000000042300000000004230000000000423202845000000000000813300000000003437643700000000000000009999123100000010000000000000BRELETACNPB7077
012024102902BGIP4       010BANESE      PN           R$  000000000238800000000023880000000002373000000000238400000000023730000000002332000000000240000002000000000000000400000000000000953700000000000000009999123100000010000000000000BRBGIPACNPR8210
012024102902BALM4       010BAUMER      PN           R$  000000000102000000000010200000000001020000000000102000000000010200000000001001000000000104000001000000000000000100000000000000102000000000000000009999123100000010000000000000BRBALMACNPR2056
012024102902BAZA3       010AMAZONIA    ON           R$  000000000913000000000091300000000009084000000000909000000000090860000000009001000000000913000004000000000000000800000000000007272400000000000000009999123100000010000000000000BRBAZAACNOR0179
012024102902BBAS3       010BRASIL      ON      NM   R$  000000000263700000000026450000000002615000000000262600000000026170000000002617000000000261919328000000000013433400000000035284882800000000000000009999123100000010000000000000BRBBASACNOR3326
012024102902BEES3       010BANESTES    ON           R$  000000000087500000000008820000000000863000000000087400000000008630000000000863000000000087100069000000000000014100000000000012331900000000000000009999123100000010000000000000BRBEESACNOR9396
012024102902BEES4       010BANESTES    PN           R$  000000000089300000000008970000000000893000000000089400000000008930000000000893000000000090100006000000000000000800000000000000715600000000000000009999123100000010000000000000BRBEESACNPR6321
012024102902HYPE3       010HYPERA      ON      NM   R$  000000000239200000000024500000000002372000000000241300000000024090000000002408000000000241120833000000000007600400000000018346516000000000000000009999123100000010000000000000BRHYPEACNOR0144
012024102902JHSF3       010JHSF PART   ON      NM   R$  000000000044900000000004510000000000430000000000043800000000004320000000000432000000000043303702000000000002826700000000001238109000000000000000009999123100000010000000000000BRJHSFACNOR2140
012024102902JSLG3       010JSL         ON      NM   R$  000000000077700000000007890000000000770000000000078000000000007800000000000772000000000078001941000000000000375000000000000292534100000000000000009999123100000010000000000000BRJSLGACNOR2121
012024102902CPLE3       010COPEL       ON      N2   R$  000000000087200000000008850000000000872000000000087900000000008770000000000877000000000087906877000000000004578300000000004026797400000000000000009999123100000010000000000000BRCPLEACNOR8150
012024102902CPLE5       010COPEL       PNA     N2   R$  000000000113000000000011330000000001100000000000111600000000011000000000001103000000000115000019000000000000003900000000000004354300000000000000009999123100000010000000000000BRCPLEACNPA1148
012024102902CPLE6       010COPEL       PNB     N2   R$  000000000097900000000009950000000000976000000000098900000000009880000000000987000000000098911190000000000011944400000000011818805500000000000000009999123100000010000000000000BRCPLEACNPB9147
012024102902EALT3       010ACO ALTONA  ON           R$  000000000149500000000014950000000001495000000000149500000000014950000000001459000000000153900001000000000000000100000000000000149500000000000000009999123100000010000000000000BREALTACNOR4138
012024102902EALT4       010ACO ALTONA  PN           R$  000000000133000000000013310000000001312000000000132000000000013120000000001312000000000132600026000000000000004600000000000006075600000000000000009999123100000010000000000000BREALTACNPR1138
012024102902GGPS3       010GPS         ON      NM   R$  000000000172800000000017410000000001715000000000172600000000017280000000001728000000000173406428000000000001776600000000003067535900000000000000009999123100000010000000000000BRGGPSACNOR9103
012024102902GMAT3       010GRUPO MATEUSON      NM   R$  000000000073800000000007410000000000716000000000072300000000007200000000000720000000000072104903000000000003739500000000002705097200000000000000009999123100000010000000000000BRGMATACNOR7103
012024102902B3SA3       010B3          ON      NM   R$  000000000108800000000010920000000001077000000000108400000000010830000000001081000000000108326111000000000026229700000000028437231100000000000000009999123100000010000000000000BRB3SAACNOR6134
012024102902BPAN4       010BANCO PAN   PN      N1   R$  000000000089300000000008950000000000857000000000086500000000008600000000000859000000000086204855000000000002307100000000001996643900000000000000009999123100000010000000000000BRBPANACNPR1115
012024102902BRAP3       010BRADESPAR   ON      N1   R$  000000000182800000000018450000000001823000000000183300000000018250000000001823000000000182500320000000000000067800000000000124312300000000000000009999123100000010000000000000BRBRAPACNOR5148
012024102902BRAP4       010BRADESPAR   PN      N1   R$  000000000198500000000019990000000001970000000000198500000000019700000000001970000000000197836292000000000007654900000000015200859400000000000000009999123100000010000000000000BRBRAPACNPR2148
012024102902CRFB3       010CARREFOUR BRON      NM   R$  000000000071000000000007240000000000705000000000071400000000007230000000000717000000000072309275000000000006459200000000004616095800000000000000009999123100000010000000000000BRCRFBACNOR2116
012024102902ANIM3       010ANIMA       ON      NM   R$  000000000026400000000002670000000000252000000000025700000000002520000000000252000000000025306803000000000007021200000000001809762500000000000000009999123100000010000000000000BRANIMACNOR6109
012024102902ARML3       010ARMAC       ON      NM   R$  000000000073000000000007320000000000710000000000071700000000007220000000000719000000000072203666000000000000896300000000000642815300000000000000009999123100000010000000000000BRARMLACNOR1113
012024102902ASAI3       010ASSAI       ON      NM   R$  000000000074200000000007660000000000742000000000075200000000007550000000000752000000000075519569000000000022537400000000016957838300000000000000009999123100000010000000000000BRASAIACNOR0106
012024102902CEAB3       010CEA MODAS   ON      NM   R$  000000000125200000000012680000000001228000000000124100000000012460000000001246000000000125006385000000000002046100000000002540960200000000000000009999123100000010000000000000BRCEABACNOR1102
012024102902CEBR3       010CEB         ON           R$  000000000189600000000019000000000001896000000000189900000000019000000000001882000000000190600011000000000000001900000000000003608300000000000000009999123100000010000000000000BRCEBRACNOR5125
012024102902CEBR5       010CEB         PNA          R$  000000000166000000000016690000000001656000000000166200000000016690000000001644000000000166900008000000000000001300000000000002160900000000000000009999123100000010000000000000BRCEBRACNPA8124
012024102902CEBR6       010CEB         PNB          R$  000000000179500000000018050000000001762000000000177800000000017840000000001762000000000178400022000000000000003200000000000005690500000000000000009999123100000010000000000000BRCEBRACNPB6124
012024102902KLBN11      010KLABIN S/A  UNT     N2   R$  000000000207600000000020820000000002055000000000206200000000020560000000002056000000000205810205000000000003730700000000007695967700000000000000009999123100000010000000000000BRKLBNCDAM18143
012024102902KLBN3       010KLABIN S/A  ON      N2   R$  000000000041900000000004190000000000410000000000041300000000004120000000000411000000000041400378000000000000148100000000000061245000000000000000009999123100000010000000000000BRKLBNACNOR2171
012024102902KLBN4       010KLABIN S/A  PN      N2   R$  000000000041500000000004160000000000410000000000041200000000004120000000000412000000000041301181000000000000911500000000000376116200000000000000009999123100000010000000000000BRKLBNACNPR9171
012024102902KRSA3       010KORA SAUDE  ON      NM   R$  000000000056900000000005910000000000520000000000055400000000005490000000000544000000000054900063000000000000015200000000000008434400000000000000009999123100000010000000000000BRKRSAACNOR0101
012024102902DASA3       010DASA        ON      NM   R$  000000000026500000000002650000000000257000000000026000000000002600000000000259000000000026002244000000000001069900000000000278946100000000000000009999123100000010000000000000BRDASAACNOR1123
012024102902DESK3       010DESKTOP     ON      NM   R$  000000000134500000000013520000000001316000000000132400000000013220000000001317000000000132600251000000000000129400000000000171367300000000000000009999123100000010000000000000BRDESKACNOR2104
012024102902DEXP3       010DEXXOS PAR  ON      N1   R$  000000000088800000000008880000000000875000000000088300000000008880000000000881000000000088800335000000000000046000000000000040640200000000000000009999123100000010000000000000BRDEXPACNOR1105
012024102902DIRR3       010DIRECIONAL  ON      NM   R$  000000000305400000000031310000000003053000000000310200000000031140000000003110000000000311411108000000000002234000000000006930905100000000000000009999123100000010000000000000BRDIRRACNOR0119
012024102902BEEF3       010MINERVA     ON  ATZ NM   R$  000000000056600000000005800000000000564000000000057500000000005790000000000578000000000057910223000000000009011100000000005186543900000000000000009999123100000010000000000000BRBEEFACNOR6117
012024102902BPAC11      010BTGP BANCO  UNT     N2   R$  000000000333600000000033490000000003280000000000330700000000032960000000003291000000000329712521000000000006972300000000023063328300000000000000009999123100000010000000000000BRBPACUNT006119
012024102902BPAC3       010BTGP BANCO  ON      N2   R$  000000000153800000000015640000000001531000000000155200000000015550000000001540000000000157000012000000000000001300000000000002017800000000000000009999123100000010000000000000BRBPACACNOR7134
012024102902BPAC5       010BTGP BANCO  PNA     N2   R$  000000000087900000000008790000000000870000000000087500000000008710000000000861000000000087500008000000000000001400000000000001225100000000000000009999123100000010000000000000BRBPACACNPA0134
012024102902CPFE3       010CPFL ENERGIAON      NM   R$  000000000330700000000033070000000003250000000000326600000000032550000000003254000000000325504427000000000001234700000000004033499000000000000000009999123100000010000000000000BRCPFEACNOR0137
012024102902BLAU3       010BLAU        ON      NM   R$  000000000143300000000014560000000001386000000000141500000000014400000000001413000000000144001402000000000000292600000000000414287000000000000000009999123100000010000000000000BRBLAUACNOR8115
012024102902BMEB3       010MERCANTIL   ON      N1   R$  000000000376900000000037690000000003700000000000373400000000037000000000003500000000000380000002000000000000000200000000000000746900000000000000009999123100000010000000000000BRBMEBACNOR8206
012024102902BMEB4       010MERCANTIL   PN      N1   R$  000000000403900000000042540000000003927000000000411600000000039270000000003926000000000401500400000000000000054100000000000222723400000000000000009999123100000010000000000000BRBMEBACNPR5211
012024102902BRBI11      010BR PARTNERS UNT     N2   R$  000000000149500000000015080000000001485000000000149400000000014850000000001485000000000149501182000000000000170400000000000254632400000000000000009999123100000010000000000000BRBRBICDAM10110
012024102902BRFS3       010BRF SA      ON      NM   R$  000000000257000000000025820000000002518000000000255900000000025520000000002551000000000255213761000000000006663900000000017056693100000000000000009999123100000010000000000000BRBRFSACNOR8122
012024102902CSUD3       010CSU DIGITAL ON      NM   R$  000000000173700000000017740000000001729000000000175100000000017350000000001735000000000174100170000000000000026300000000000046065000000000000000009999123100000010000000000000BRCSUDACNOR5111
012024102902CURY3       010CURY S/A    ON      NM   R$  000000000247300000000025760000000002473000000000253200000000025100000000002510000000000252121513000000000007235500000000018326870400000000000000009999123100000010000000000000BRCURYACNOR3110
012024102902CVCB3       010CVC BRASIL  ON      NM   R$  000000000021400000000002180000000000207000000000021200000000002070000000000207000000000020806797000000000015350500000000003256087300000000000000009999123100000010000000000000BRCVCBACNOR1116
012024102902ELMD3       010ELETROMIDIA ON      NM   R$  000000000179100000000018140000000001780000000000179600000000017800000000001779000000000179600472000000000000080700000000000144952800000000000000009999123100000010000000000000BRELMDACNOR3101
012024102902EMAE4       010EMAE        PN           R$  000000000399900000000040000000000003999000000000399900000000040000000000003930000000000410000003000000000000000400000000000001599900000000000000009999123100000010000000000000BREMAEACNPR1126
012024102902EMBR3       010EMBRAER     ON      NM   R$  000000000491000000000050650000000004910000000000500300000000050120000000005009000000000501315539000000000005241200000000026225485500000000000000009999123100000010000000000000BREMBRACNOR4191
012024102902BSLI3       010BRB BANCO   ON           R$  000000000089600000000009300000000000896000000000092500000000009300000000000890000000000092000006000000000000001700000000000001574100000000000000009999123100000010000000000000BRBSLIACNOR5194
012024102902BSLI4       010BRB BANCO   PN           R$  000000000090100000000010490000000000901000000000098900000000009990000000000933000000000100000019000000000000002000000000000001978500000000000000009999123100000010000000000000BRBSLIACNPR2194
012024102902DMVF3       010D1000VFARMA ON      NM   R$  000000000067700000000006900000000000662000000000068100000000006620000000000661000000000067200192000000000000031500000000000021464700000000000000009999123100000010000000000000BRDMVFACNOR9100
012024102902DOHL4       010DOHLER      PN           R$  000000000040800000000004080000000000408000000000040800000000004080000000000400000000000040700001000000000000000100000000000000040800000000000000009999123100000010000000000000BRDOHLACNPR9066
012024102902DOTZ3       010DOTZ SA     ON      NM   R$  000000000053100000000005460000000000531000000000053700000000005420000000000534000000000054200039000000000000009100000000000004889400000000000000009999123100000010000000000000BRDOTZACNOR7101
012024102902DXCO3       010DEXCO       ON      NM   R$  000000000085800000000008600000000000832000000000084500000000008490000000000842000000000084908361000000000002236700000000001891362200000000000000009999123100000010000000000000BRDXCOACNOR8105
012024102902BMGB4       010BANCO BMG   PN  EJ  N1   R$  000000000040600000000004100000000000401000000000040400000000004050000000000404000000000040501360000000000000528800000000000213637900000000000000009999123100000010000000000000BRBMGBACNPR0111
012024102902BMKS3       010BIC MONARK  ON           R$  000000003090000000000309000000000030521000000003080300000000305210000000030521000000003139800005000000000000000007000000000000215621000000000000009999123100000010000000000000BRBMKSACNOR9166
012024102902BMOB3       010BEMOBI TECH ON      NM   R$  000000000152200000000015450000000001510000000000152100000000015200000000001516000000000152001070000000000000155000000000000235794500000000000000009999123100000010000000000000BRBMOBACNOR7103
012024102902BOBR4       010BOMBRIL     PN           R$  000000000028300000000002870000000000276000000000028100000000002760000000000279000000000028100080000000000000021900000000000006158400000000000000009999123100000010000000000000BRBOBRACNPR3128
012024102902AZZA3       010AZZAS 2154  ON      NM   R$  000000000406700000000041260000000003981000000000401800000000040160000000004016000000000401707508000000000002387800000000009596343700000000000000009999123100000010000000000000BRAZZAACNOR9100
012024102902GOAU3       010GERDAU MET  ON      N1   R$  000000000101800000000010180000000001001000000000101000000000010010000000001001000000000101800214000000000000041900000000000042344900000000000000009999123100000010000000000000BRGOAUACNOR1268
012024102902GOAU4       010GERDAU MET  PN      N1   R$  000000000102300000000010350000000001018000000000102600000000010240000000001023000000000102607053000000000005193600000000005333658000000000000000009999123100000010000000000000BRGOAUACNPR8269
012024102902GRND3       010GRENDENE    ON      NM   R$  000000000052300000000005270000000000520000000000052300000000005220000000000522000000000052501768000000000000592400000000000310094400000000000000009999123100000010000000000000BRGRNDACNOR3175
012024102902MILS3       010MILLS       ON      NM   R$  000000000106800000000010830000000001053000000000106300000000010530000000001052000000000105804988000000000001366000000000001452579500000000000000009999123100000010000000000000BRMILSACNOR2128
012024102902MLAS3       010MULTILASER  ON      NM   R$  000000000017000000000001700000000000162000000000016500000000001620000000000162000000000016302048000000000001356300000000000224551900000000000000009999123100000010000000000000BRMLASACNOR9101
012024102902MNPR3       010MINUPAR     ON           R$  000000000197500000000020000000000001975000000000198700000000020000000000001900000000000200000005000000000000000600000000000001192400000000000000009999123100000010000000000000BRMNPRACNOR5122
012024102902MOVI3       010MOVIDA      ON  ATZ NM   R$  000000000061200000000006170000000000595000000000060300000000006000000000000599000000000060106881000000000003294600000000001988886500000000000000009999123100000010000000000000BRMOVIACNOR0123
012024102902MRFG3       010MARFRIG     ON      NM   R$  000000000148000000000015250000000001471000000000150300000000015200000000001520000000000152115382000000000007248600000000010901068800000000000000009999123100000010000000000000BRMRFGACNOR0116
012024102902ATOM3       010ATOMPAR     ON           R$  000000000040500000000004140000000000381000000000039600000000004010000000000395000000000040100176000000000000054600000000000021621900000000000000009999123100000010000000000000BRATOMACNOR1106
012024102902CEDO4       010CEDRO       PN      N1   R$  000000000237200000000024460000000002372000000000241700000000024460000000002371000000000244600003000000000000000300000000000000725300000000000000009999123100000010000000000000BRCEDOACNPR5128
012024102902CGAS5       010COMGAS      PNA          R$  000000001280000000000128500000000012800000000001282500000000128500000000012790000000001309800002000000000000000200000000000002565000000000000000009999123100000010000000000000BRCGASACNPA3161
012024102902CGRA3       010GRAZZIOTIN  ON           R$  000000000255000000000025700000000002550000000000256200000000025550000000002504000000000257500004000000000000000500000000000001281400000000000000009999123100000010000000000000BRCGRAACNOR2083
012024102902CGRA4       010GRAZZIOTIN  PN           R$  000000000254500000000025450000000002502000000000251400000000025020000000002500000000000254000009000000000000000900000000000002263200000000000000009999123100000010000000000000BRCGRAACNPR9083
012024102902CLSA3       010CLEARSALE   ON      NM   R$  000000000094300000000009440000000000937000000000094000000000009390000000000938000000000093901442000000000000868700000000000817079500000000000000009999123100000010000000000000BRCLSAACNOR0100
012024102902CLSC3       010CELESC      ON      N2   R$  000000000755000000000075500000000007550000000000755000000000075500000000007401000000000772500001000000000000000100000000000000755000000000000000009999123100000010000000000000BRCLSCACNOR6153
012024102902CLSC4       010CELESC      PN      N2   R$  000000000790800000000079390000000007900000000000791300000000079000000000007881000000000792800008000000000000000800000000000006331100000000000000009999123100000010000000000000BRCLSCACNPR3132
012024102902CMIG3       010CEMIG       ON      N1   R$  000000000146000000000014830000000001454000000000146900000000014720000000001471000000000148000671000000000000116300000000000170936800000000000000009999123100000010000000000000BRCMIGACNOR6244
012024102902CMIG4       010CEMIG       PN      N1   R$  000000000113300000000011410000000001129000000000113600000000011370000000001137000000000113810673000000000006276700000000007133105500000000000000009999123100000010000000000000BRCMIGACNPR3245
012024102902FESA4       010FERBASA     PN      N1   R$  000000000074900000000007590000000000748000000000075300000000007520000000000752000000000075501440000000000000316100000000000238186700000000000000009999123100000010000000000000BRFESAACNPR5085
012024102902FHER3       010FER HERINGERON      NM   R$  000000000036500000000003650000000000365000000000036500000000003650000000000365000000000038000004000000000000000800000000000000292200000000000000009999123100000010000000000000BRFHERACNOR5103
012024102902FIQE3       010UNIFIQUE    ON      NM   R$  000000000038900000000003920000000000382000000000038600000000003880000000000384000000000038800490000000000000359700000000000138939500000000000000009999123100000010000000000000BRFIQEACNOR5107
012024102902FLRY3       010FLEURY      ON      NM   R$  000000000152700000000015270000000001463000000000147700000000014790000000001477000000000147908892000000000004234200000000006257641100000000000000009999123100000010000000000000BRFLRYACNOR5139
012024102902AURE3       010AUREN       ON      NM   R$  000000000103200000000010440000000001025000000000103500000000010360000000001035000000000104010932000000000006135500000000006352491800000000000000009999123100000010000000000000BRAUREACNOR9104
012024102902AVLL3       010ALPHAVILLE  ON      NM   R$  000000000029800000000002980000000000298000000000029800000000002980000000000250000000000029700001000000000000000100000000000000029800000000000000009999123100000010000000000000BRAVLLACNOR5103
012024102902AZEV3       010AZEVEDO     ON           R$  000000000012100000000001210000000000117000000000011800000000001180000000000118000000000011900232000000000000562100000000000066560700000000000000009999123100000010000000000000BRAZEVACNOR0121
012024102902AZEV4       010AZEVEDO     PN           R$  000000000012000000000001220000000000117000000000011800000000001190000000000118000000000011900994000000000001493600000000000177606800000000000000009999123100000010000000000000BRAZEVACNPR7121
012024102902AZUL4       010AZUL        PN      N2   R$  000000000061200000000006180000000000579000000000059800000000005830000000000583000000000058411848000000000026551200000000015877671100000000000000009999123100000010000000000000BRAZULACNPR4103
012024102902BBSE3       010BBSEGURIDADEON      NM   R$  000000000343600000000034560000000003427000000000344200000000034500000000003450000000000345105542000000000001746500000000006012232600000000000000009999123100000010000000000000BRBBSEACNOR5125
012024102902CMIN3       010CSNMINERACAOON      N2   R$  000000000060500000000006100000000000597000000000060300000000006010000000000601000000000060206176000000000007276400000000004391468400000000000000009999123100000010000000000000BRCMINACNOR2112
012024102902COCE5       010COELCE      PNA          R$  000000000271500000000027240000000002625000000000267500000000027050000000002670000000000270500077000000000000009900000000000026490500000000000000009999123100000010000000000000BRCOCEACNPA3147
012024102902COGN3       010COGNA ON    ON      NM   R$  000000000014600000000001470000000000141000000000014300000000001420000000000141000000000014206788000000000014797300000000002127042500000000000000009999123100000010000000000000BRCOGNACNOR2105
012024102902CXSE3       010CAIXA SEGURION      NM   R$  000000000145500000000014790000000001448000000000146000000000014480000000001448000000000145306985000000000002376200000000003470522400000000000000009999123100000010000000000000BRCXSEACNOR7107
012024102902CYRE3       010CYRELA REALTON      NM   R$  000000000213800000000021460000000002105000000000212300000000021230000000002117000000000212310482000000000003813500000000008098525000000000000000009999123100000010000000000000BRCYREACNOR7140
012024102902GFSA3       010GAFISA      ON      NM   R$  000000000016800000000001700000000000158000000000016100000000001590000000000158000000000015902209000000000007164600000000001157818000000000000000009999123100000010000000000000BRGFSAACNOR3125
012024102902GGBR3       010GERDAU      ON      N1   R$  000000000174100000000017660000000001717000000000175700000000017540000000001753000000000176500446000000000000083800000000000147240400000000000000009999123100000010000000000000BRGGBRACNOR1193
012024102902GGBR4       010GERDAU      PN      N1   R$  000000000183200000000018530000000001819000000000184000000000018480000000001846000000000184813697000000000008283700000000015249145700000000000000009999123100000010000000000000BRGGBRACNPR8193
012024102902ITUB3       010ITAUUNIBANCOON      N1   R$  000000000309800000000031040000000003047000000000306700000000030510000000003045000000000305301412000000000000269000000000000825245500000000000000009999123100000010000000000000BRITUBACNOR4342
012024102902ITUB4       010ITAUUNIBANCOPN      N1   R$  000000000358600000000035940000000003535000000000355700000000035350000000003534000000000354119869000000000011672800000000041530409500000000000000009999123100000010000000000000BRITUBACNPR1342
012024102902ALPA3       010ALPARGATAS  ON      N1   R$  000000000065000000000006580000000000635000000000063500000000006350000000000635000000000065700028000000000000051400000000000032658000000000000000009999123100000010000000000000BRALPAACNOR0231
012024102902ALPA4       010ALPARGATAS  PN      N1   R$  000000000071700000000007230000000000711000000000071500000000007130000000000712000000000071404956000000000001610400000000001152544900000000000000009999123100000010000000000000BRALPAACNPR7232
012024102902ALPK3       010ESTAPAR     ON      NM   R$  000000000030900000000003150000000000293000000000030100000000002940000000000293000000000029600374000000000000238900000000000072031400000000000000009999123100000010000000000000BRALPKACNOR9101
012024102902ALUP11      010ALUPAR      UNT     N2   R$  000000000294500000000029450000000002909000000000292100000000029090000000002909000000000292102680000000000000482300000000001408804500000000000000009999123100000010000000000000BRALUPCDAM15120
012024102902ALUP3       010ALUPAR      ON      N2   R$  000000000101000000000010120000000000991000000000099900000000009910000000000991000000000100000017000000000000002200000000000002198400000000000000009999123100000010000000000000BRALUPACNOR8120
012024102902ALUP4       010ALUPAR      PN      N2   R$  000000000096300000000009680000000000960000000000096200000000009630000000000962000000000096300034000000000000005400000000000005198300000000000000009999123100000010000000000000BRALUPACNPR5120
012024102902AMAR3       010LOJAS MARISAON      NM   R$  000000000009600000000000960000000000095000000000009500000000000950000000000095000000000009600263000000000000107000000000000010235700000000000000009999123100000010000000000000BRAMARACNOR4115
012024102902AMBP3       010AMBIPAR     ON      NM   R$  000000001333900000000133530000000012864000000001309400000000129940000000012900000000001300000844000000000000129200000000001691866500000000000000009999123100000010000000000000BRAMBPACNOR6103
012024102902CRPG5       010CRISTAL     PNA          R$  000000000254200000000025430000000002503000000000251400000000025280000000002503000000000252900007000000000000001000000000000002514000000000000000009999123100000010000000000000BRCRPGACNPA3119
012024102902CSAN3       010COSAN       ON      NM   R$  000000000121400000000012200000000001202000000000121000000000012090000000001208000000000121010554000000000009811500000000011876279100000000000000009999123100000010000000000000BRCSANACNOR6126
012024102902ECOR3       010ECORODOVIAS ON      NM   R$  000000000071500000000007200000000000704000000000070900000000007040000000000704000000000070603663000000000002269400000000001611122000000000000000009999123100000010000000000000BRECORACNOR8120
012024102902EGIE3       010ENGIE BRASILON      NM   R$  000000000410000000000041000000000004061000000000408300000000040950000000004080000000000409504382000000000001033900000000004221627100000000000000009999123100000010000000000000BREGIEACNOR9127
012024102902EKTR4       010ELEKTRO     PN  ED       R$  000000000420000000000042000000000004100000000000413400000000041120000000004110000000000416200022000000000000002600000000000010749900000000000000009999123100000010000000000000BREKTRACNPR7166
012024102902ELET3       010ELETROBRAS  ON      N1   R$  000000000383700000000038400000000003791000000000380800000000038050000000003803000000000380712101000000000003195200000000012169166400000000000000009999123100000010000000000000BRELETACNOR6160
012024102902GUAR3       010GUARARAPES  ON      NM   R$  000000000086300000000008670000000000819000000000083200000000008220000000000820000000000082202964000000000000934800000000000778418900000000000000009999123100000010000000000000BRGUARACNOR4173
012024102902HAGA3       010HAGA S/A    ON           R$  000000000025500000000002750000000000254000000000026200000000002580000000000257000000000025800120000000000000025400000000000006657900000000000000009999123100000010000000000000BRHAGAACNOR7103
012024102902HAGA4       010HAGA S/A    PN           R$  000000000012700000000001300000000000127000000000012800000000001290000000000127000000000012900031000000000000006200000000000000795300000000000000009999123100000010000000000000BRHAGAACNPR4103
012024102902MBLY3       010MOBLY       ON  ES  NM   R$  000000000020700000000002200000000000207000000000021200000000002200000000000214000000000022000187000000000000221200000000000047084700000000000000009999123100000010000000000000BRMBLYACNOR5101
012024102902MDIA3       010M.DIASBRANCOON      NM   R$  000000000251600000000025320000000002481000000000250000000000025020000000002501000000000251101827000000000000529200000000001323183600000000000000009999123100000010000000000000BRMDIAACNOR7136
012024102902PDGR3       010PDG REALT   ON      NM   R$  000000000000100000000000020000000000001000000000000100000000000010000000000001000000000000216595000000000022269600000000000028661900000000000000009999123100000010000000000000BRPDGRACNOR8119
012024102902PDTC3       010PADTEC      ON      NM   R$  000000000020200000000002150000000000195000000000020600000000002030000000000203000000000020500114000000000000080600000000000016652200000000000000009999123100000010000000000000BRPDTCACNOR3101
012024102902PETR3       010PETROBRAS   ON      N2   R$  000000000395200000000039600000000003911000000000392800000000039220000000003922000000000392310194000000000004782500000000018786619300000000000000009999123100000010000000000000BRPETRACNOR9206
012024102902PETR4       010PETROBRAS   PN      N2   R$  000000000363300000000036420000000003580000000000359800000000036010000000003600000000000360131030000000000026090200000000093873890900000000000000009999123100000010000000000000BRPETRACNPR6214
012024102902CAMB3       010CAMBUCI     ON           R$  000000000122300000000012350000000001197000000000120900000000012020000000001202000000000120800132000000000000032500000000000039310700000000000000009999123100000010000000000000BRCAMBACNOR4131
012024102902CAML3       010CAMIL       ON      NM   R$  000000000080600000000008090000000000800000000000080400000000008030000000000802000000000080801080000000000000257100000000000206777100000000000000009999123100000010000000000000BRCAMLACNOR3129
012024102902CASH3       010MELIUZ      ON      NM   R$  000000000035200000000003560000000000342000000000034800000000003440000000000344000000000034500943000000000000690900000000000240555800000000000000009999123100000010000000000000BRCASHACNOR8107
012024102902CBAV3       010CBA         ON      NM   R$  000000000059600000000006040000000000588000000000059300000000005930000000000593000000000059407525000000000003144500000000001866483500000000000000009999123100000010000000000000BRCBAVACNOR5104
012024102902CCRO3       010CCR SA      ON      NM   R$  000000000122500000000012390000000001220000000000122700000000012200000000001219000000000122005874000000000004257100000000005224445000000000000000009999123100000010000000000000BRCCROACNOR2145
012024102902ESPA3       010ESPACOLASER ON      NM   R$  000000000009400000000000960000000000094000000000009500000000000950000000000095000000000009600223000000000000163600000000000015556900000000000000009999123100000010000000000000BRESPAACNOR7103
012024102902ESTR4       010ESTRELA     PN           R$  000000000036500000000003650000000000365000000000036500000000003650000000000358000000000036100004000000000000000700000000000000255500000000000000009999123100000010000000000000BRESTRACNPR0144
012024102902AALR3       010ALLIAR      ON      NM   R$  000000000149000000000015090000000001437000000000148200000000014840000000001471000000000148800222000000000000038100000000000056477700000000000000009999123100000010000000000000BRAALRACNOR6102
012024102902ETER3       010ETERNIT     ON      NM   R$  000000000053000000000005310000000000515000000000052000000000005170000000000516000000000051700789000000000000211000000000000109752900000000000000009999123100000010000000000000BRETERACNOR3244
012024102902EUCA3       010EUCATEX     ON      N1   R$  000000000157400000000016000000000001574000000000159500000000016000000000001580000000000161900006000000000000002000000000000003190400000000000000009999123100000010000000000000BREUCAACNOR1157
012024102902EUCA4       010EUCATEX     PN      N1   R$  000000000145500000000014690000000001439000000000145600000000014400000000001440000000000145000197000000000000028100000000000040935700000000000000009999123100000010000000000000BREUCAACNPR8044
012024102902EVEN3       010EVEN        ON      NM   R$  000000000061700000000006250000000000602000000000061000000000006020000000000602000000000060701655000000000000537700000000000328031600000000000000009999123100000010000000000000BREVENACNOR8120
012024102902EZTC3       010EZTEC       ON      NM   R$  000000000136000000000013880000000001342000000000136200000000013570000000001353000000000135704531000000000001788600000000002436473000000000000000009999123100000010000000000000BREZTCACNOR0126
012024102902IRBR3       010IRBBRASIL REON      NM   R$  000000000438700000000044700000000004278000000000438200000000043900000000004390000000000439605970000000000001373000000000006016637000000000000000009999123100000010000000000000BRIRBRACNOR4111
012024102902LUPA3       010LUPATECH    ON      NM   R$  000000000015300000000001550000000000146000000000014800000000001460000000000146000000000014700196000000000000332100000000000049314000000000000000009999123100000010000000000000BRLUPAACNOR8112
012024102902LUXM4       010TREVISA     PN           R$  000000000121100000000013000000000001211000000000124600000000012800000000001200000000000131000017000000000000002400000000000002990600000000000000009999123100000010000000000000BRLUXMACNPR4052
012024102902LVTC3       010WDC NETWORKSON      NM   R$  000000000036600000000003660000000000357000000000035900000000003570000000000356000000000035700034000000000000009800000000000003524100000000000000009999123100000010000000000000BRLVTCACNOR4102
012024102902LWSA3       010LWSA        ON      NM   R$  000000000043800000000004390000000000421000000000042700000000004260000000000424000000000042606269000000000003768300000000001610542200000000000000009999123100000010000000000000BRLWSAACNOR8103
012024102902ORVR3       010ORIZON      ON      NM   R$  000000000472000000000047490000000004650000000000468100000000046500000000004650000000000467301226000000000000190700000000000892838100000000000000009999123100000010000000000000BRORVRACNOR0101
012024102902ABCB4       010ABC BRASIL  PN      N2   R$  000000000212600000000021360000000002104000000000211500000000021070000000002106000000000210802210000000000000417200000000000882472900000000000000009999123100000010000000000000BRABCBACNPR4146
012024102902ABEV3       010AMBEV S/A   ON           R$  000000000129000000000013030000000001287000000000129700000000012980000000001298000000000130033625000000000021500600000000027889038600000000000000009999123100000010000000000000BRABEVACNOR1128
012024102902BRIT3       010BRISANET    ON      NM   R$  000000000031900000000003350000000000314000000000032400000000003220000000000322000000000032301277000000000000542700000000000175889700000000000000009999123100000010000000000000BRBRITACNOR0103
012024102902BRKM3       010BRASKEM     ON      N1   R$  000000000175000000000017500000000001707000000000173300000000017290000000001729000000000175000062000000000000010200000000000017681000000000000000009999123100000010000000000000BRBRKMACNOR1119
012024102902BRKM5       010BRASKEM     PNA     N1   R$  000000000180600000000018060000000001766000000000178400000000017880000000001785000000000178804682000000000001832000000000003269223000000000000000009999123100000010000000000000BRBRKMACNPA4121
012024102902BRSR3       010BANRISUL    ON      N1   R$  000000000127000000000012780000000001260000000000126600000000012620000000001262000000000126400048000000000000005700000000000007218800000000000000009999123100000010000000000000BRBRSRACNOR3189
012024102902BRSR6       010BANRISUL    PNB     N1   R$  000000000112300000000011290000000001119000000000112300000000011210000000001120000000000112103625000000000000709100000000000796382600000000000000009999123100000010000000000000BRBRSRACNPB4192
012024102902ENEV3       010ENEVA       ON      NM   R$  000000000135500000000013550000000001314000000000132600000000013200000000001320000000000133218445000000000008456200000000011215014300000000000000009999123100000010000000000000BRENEVACNOR8106
012024102902ENGI11      010ENERGISA    UNT     N2   R$  000000000429700000000043150000000004246000000000427200000000042580000000004254000000000426006974000000000001521600000000006501004700000000000000009999123100000010000000000000BRENGICDAM16136
012024102902ENGI3       010ENERGISA    ON      N2   R$  000000000126500000000012820000000001259000000000127200000000012820000000001267000000000133200020000000000000002500000000000003180000000000000000009999123100000010000000000000BRENGIACNOR0146
012024102902ENGI4       010ENERGISA    PN      N2   R$  000000000075600000000007600000000000749000000000075000000000007500000000000749000000000075600018000000000000002800000000000002102700000000000000009999123100000010000000000000BRENGIACNPR7142
012024102902ENJU3       010ENJOEI      ON      NM   R$  000000000012600000000001270000000000123000000000012500000000001230000000000123000000000012400611000000000000252500000000000031565500000000000000009999123100000010000000000000BRENJUACNOR9100
012024102902EPAR3       010EMBPAR S/A  ON           R$  000000000055400000000005740000000000554000000000056200000000005690000000000565000000000056800019000000000000002800000000000001575000000000000000009999123100000010000000000000BREPARACNOR9105
012024102902EQMA3B      010EQTLMARANHAOON      MB   R$  000000000225000000000022990000000002250000000000227100000000022990000000002276000000000234000007000000000000001400000000000003180600000000000000009999123100000010000000000000BREQMAACNOR8108
012024102902EQPA3       010EQTL PARA   ON           R$  000000000058000000000005800000000000580000000000058000000000005800000000000581000000000058500001000000000000000200000000000000116000000000000000009999123100000010000000000000BREQPAACNOR1111
012024102902EQTL3       010EQUATORIAL  ON      NM   R$  000000000317700000000032060000000003171000000000319400000000032040000000003197000000000320416343000000000007284600000000023267968000000000000000009999123100000010000000000000BREQTLACNOR0131
012024102902PATI3       010PANATLANTICAON  ED       R$  000000000265700000000026570000000002657000000000265700000000026570000000002350000000000284900001000000000000000300000000000000797100000000000000009999123100000010000000000000BRPATIACNOR6067
012024102902PCAR3       010P.ACUCAR-CBDON      NM   R$  000000000031500000000003210000000000302000000000031000000000003040000000000303000000000030406987000000000011707700000000003633223700000000000000009999123100000010000000000000BRPCARACNOR3167
012024102902LAND3       010TERRASANTAPAON      NM   R$  000000000135100000000013510000000001302000000000132300000000013200000000001319000000000132000211000000000000042400000000000056095300000000000000009999123100000010000000000000BRLANDACNOR9103
012024102902LAVV3       010LAVVI       ON      NM   R$  000000000083000000000008440000000000818000000000082700000000008210000000000820000000000082401665000000000000278100000000000230184900000000000000009999123100000010000000000000BRLAVVACNOR4113
012024102902LEVE3       010METAL LEVE  ON      NM   R$  000000000304000000000030400000000003004000000000301300000000030100000000003009000000000301201567000000000000286900000000000864461100000000000000009999123100000010000000000000BRLEVEACNOR2197
012024102902NEOE3       010NEOENERGIA  ON      NM   R$  000000000192000000000019310000000001915000000000192100000000019250000000001920000000000192601799000000000000953600000000001832291100000000000000009999123100000010000000000000BRNEOEACNOR3123
012024102902HAPV3       010HAPVIDA     ON      NM   R$  000000000037300000000003760000000000356000000000036200000000003600000000000360000000000036133013000000000102370300000000037142417300000000000000009999123100000010000000000000BRHAPVACNOR4115
012024102902HBOR3       010HELBOR      ON      NM   R$  000000000018900000000001900000000000184000000000018700000000001890000000000188000000000018900561000000000001176900000000000220412300000000000000009999123100000010000000000000BRHBORACNOR3118
012024102902HBRE3       010HBR REALTY  ON      NM   R$  000000000047300000000004760000000000455000000000046000000000004570000000000456000000000045700970000000000000478200000000000220240400000000000000009999123100000010000000000000BRHBREACNOR4100
012024102902HBSA3       010HIDROVIAS   ON      NM   R$  000000000032400000000003240000000000316000000000031900000000003170000000000317000000000032004877000000000001423500000000000454756800000000000000009999123100000010000000000000BRHBSAACNOR0101
012024102902HETA4       010HERCULES    PN           R$  000000000060700000000006310000000000607000000000062700000000006300000000000614000000000069900005000000000000001500000000000000940900000000000000009999123100000010000000000000BRHETAACNPR9136
012024102902JALL3       010JALLESMACHADON      NM   R$  000000000061500000000006190000000000600000000000060500000000006050000000000604000000000060502369000000000000679400000000000411227000000000000000009999123100000010000000000000BRJALLACNOR0106
012024102902JBSS3       010JBS         ON      NM   R$  000000000360600000000036480000000003600000000000363300000000036400000000003639000000000364119135000000000006399100000000023252847900000000000000009999123100000010000000000000BRJBSSACNOR8122
012024102902MRVE3       010MRV         ON      NM   R$  000000000070700000000007150000000000694000000000070200000000006960000000000695000000000069607889000000000006851300000000004810466700000000000000009999123100000010000000000000BRMRVEACNOR2127
012024102902SAPR11      010SANEPAR     UNT     N2   R$  000000000273500000000027350000000002681000000000270000000000027030000000002700000000000270306386000000000001134700000000003064320700000000000000009999123100000010000000000000BRSAPRCDAM13118
012024102902SAPR3       010SANEPAR     ON      N2   R$  000000000051900000000005230000000000512000000000051600000000005120000000000511000000000051400588000000000000148600000000000076705100000000000000009999123100000010000000000000BRSAPRACNOR9159
012024102902SAPR4       010SANEPAR     PN      N2   R$  000000000055500000000005550000000000545000000000054900000000005500000000000548000000000055002181000000000001118000000000000614254600000000000000009999123100000010000000000000BRSAPRACNPR6159
012024102902SBFG3       010GRUPO SBF   ON      NM   R$  000000000140900000000014480000000001406000000000143600000000014480000000001441000000000144803679000000000001057500000000001519237000000000000000009999123100000010000000000000BRSBFGACNOR1103
012024102902SBSP3       010SABESP      ON      NM   R$  000000000920900000000092940000000009165000000000921600000000092080000000009189000000000920808899000000000001915500000000017654392800000000000000009999123100000010000000000000BRSBSPACNOR5161
012024102902VALE3       010VALE        ON      NM   R$  000000000632500000000063440000000006265000000000630100000000062660000000006266000000000627026235000000000014941700000000094159301500000000000000009999123100000010000000000000BRVALEACNOR0211
012024102902WEST3       010WESTWING    ON      NM   R$  000000000007800000000000850000000000078000000000008100000000000830000000000081000000000008300152000000000000146300000000000011928400000000000000009999123100000010000000000000BRWESTACNOR3100
012024102902WHRL3       010WHIRLPOOL   ON           R$  000000000041500000000004150000000000414000000000041400000000004150000000000414000000000041800005000000000000001700000000000000705200000000000000009999123100000010000000000000BRWHRLACNOR5129
012024102902WHRL4       010WHIRLPOOL   PN           R$  000000000044700000000004470000000000445000000000044500000000004450000000000445000000000044700011000000000000002600000000000001158600000000000000009999123100000010000000000000BRWHRLACNPR2129
012024102902WIZC3       010WIZ CO      ON      NM   R$  000000000058100000000005870000000000577000000000058200000000005770000000000577000000000058001104000000000000280400000000000163293900000000000000009999123100000010000000000000BRWIZCACNOR5102
012024102902RSUL4       010RIOSULENSE  PN           R$  000000000615000000000062000000000005971000000000608500000000059710000000005970000000000613000017000000000000002600000000000015822600000000000000009999123100000010000000000000BRRSULACNPR3114
012024102902SANB11      010SANTANDER BRUNT EDJ      R$  000000000292400000000029390000000002739000000000281200000000027390000000002739000000000274017077000000000008365300000000023526030200000000000000009999123100000010000000000000BRSANBCDAM13166
012024102902SANB3       010SANTANDER BRON  EDJ      R$  000000000138900000000014050000000001311000000000134300000000013160000000001314000000000131601095000000000000210600000000000283008800000000000000009999123100000010000000000000BRSANBACNOR8173
012024102902SANB4       010SANTANDER BRPN  EDJ      R$  000000000153500000000015480000000001456000000000149100000000014590000000001459000000000146401130000000000000258900000000000386144800000000000000009999123100000010000000000000BRSANBACNPR5173
012024102902UGPA3       010ULTRAPAR    ON      NM   R$  000000000210100000000021420000000002086000000000211000000000021090000000002108000000000210915422000000000006949400000000014666633900000000000000009999123100000010000000000000BRUGPAACNOR8156
012024102902UNIP3       010UNIPAR      ON           R$  000000000453200000000045340000000004480000000000450400000000045340000000004466000000000453400038000000000000005200000000000023423300000000000000009999123100000010000000000000BRUNIPACNOR7206
012024102902UNIP6       010UNIPAR      PNB          R$  000000000455100000000045940000000004515000000000453700000000045150000000004515000000000453900723000000000000111700000000000506789100000000000000009999123100000010000000000000BRUNIPACNPB8206
012024102902USIM3       010USIMINAS    ON      N1   R$  000000000064600000000006460000000000622000000000063000000000006250000000000625000000000063101366000000000000353500000000000222821500000000000000009999123100000010000000000000BRUSIMACNOR3167
012024102902USIM5       010USIMINAS    PNA     N1   R$  000000000066100000000006620000000000639000000000064400000000006430000000000642000000000064310196000000000015005600000000009673800300000000000000009999123100000010000000000000BRUSIMACNPA6169
012024102902VLID3       010VALID       ON      NM   R$  000000000232100000000023440000000002282000000000229700000000022820000000002282000000000229901643000000000000282500000000000649149700000000000000009999123100000010000000000000BRVLIDACNOR5144
012024102902VSTE3       010VESTE       ON      NM   R$  000000000094200000000009750000000000890000000000091900000000009490000000000949000000000096000109000000000000061800000000000056809400000000000000009999123100000010000000000000BRVSTEACNOR5103
012024102902VTRU3       010VITRUEDUCA  ON      NM   R$  000000000090700000000009600000000000878000000000092000000000009600000000000950000000000096001148000000000000406800000000000374492500000000000000009999123100000010000000000000BRVTRUACNOR3100
012024102902VULC3       010VULCABRAS   ON  ED  NM   R$  000000000164000000000016550000000001630000000000163700000000016300000000001630000000000164001762000000000000337800000000000553272900000000000000009999123100000010000000000000BRVULCACNOR2163
012024102902VVEO3       010VIVEO       ON      NM   R$  000000000020400000000002060000000000196000000000020000000000001970000000000197000000000019802273000000000001153300000000000231531400000000000000009999123100000010000000000000BRVVEOACNOR0104
012024102902PNVL3       010DIMED       ON      NM   R$  000000000100200000000010150000000000996000000000100500000000010100000000001010000000000101201734000000000000281000000000000282575900000000000000009999123100000010000000000000BRPNVLACNOR9208
012024102902POMO3       010MARCOPOLO   ON      N2   R$  000000000065600000000006670000000000654000000000065900000000006550000000000655000000000065900654000000000000258900000000000170795600000000000000009999123100000010000000000000BRPOMOACNOR0099
012024102902POMO4       010MARCOPOLO   PN      N2   R$  000000000085500000000008700000000000853000000000085900000000008550000000000854000000000085711873000000000008553900000000007350074200000000000000009999123100000010000000000000BRPOMOACNPR7099
012024102902PORT3       010WILSON SONS ON      NM   R$  000000000159600000000015990000000001568000000000157900000000015820000000001575000000000158202420000000000001057000000000001669729700000000000000009999123100000010000000000000BRPORTACNOR8110
012024102902RCSL3       010RECRUSUL    ON           R$  000000000040300000000004070000000000372000000000038500000000003800000000000380000000000038102022000000000001493000000000000575193900000000000000009999123100000010000000000000BRRCSLACNOR4134
012024102902RCSL4       010RECRUSUL    PN           R$  000000000017800000000002170000000000177000000000019500000000001950000000000195000000000019610118000000000009900300000000001932402600000000000000009999123100000010000000000000BRRCSLACNPR1134
012024102902RDNI3       010RNI         ON      NM   R$  000000000030700000000003140000000000302000000000030400000000003060000000000305000000000031000020000000000000005500000000000001675300000000000000009999123100000010000000000000BRRDNIACNOR9116
012024102902RDOR3       010REDE D OR   ON      NM   R$  000000000300100000000030600000000002986000000000302100000000030130000000003008000000000301611311000000000003300400000000009970576900000000000000009999123100000010000000000000BRRDORACNOR8114
012024102902RECV3       010PETRORECSA  ON      NM   R$  000000000168700000000017010000000001668000000000167800000000016690000000001669000000000167004285000000000001115300000000001871794900000000000000009999123100000010000000000000BRRECVACNOR3107
012024102902REDE3       010REDE ENERGIAON           R$  000000000067700000000006780000000000677000000000067700000000006770000000000676000000000067700005000000000000000500000000000000338600000000000000009999123100000010000000000000BRREDEACNOR7128
012024102902RENT3       010LOCALIZA    ON      NM   R$  000000000423600000000042700000000004196000000000423100000000042150000000004215000000000422914714000000000003785300000000016016010400000000000000009999123100000010000000000000BRRENTACNOR4197
012024102902TASA3       010TAURUS ARMASON      N2   R$  000000000099000000000010030000000000983000000000099000000000009960000000000985000000000099600046000000000000006000000000000005945600000000000000009999123100000010000000000000BRTASAACNOR7104
012024102902TASA4       010TAURUS ARMASPN      N2   R$  000000000097200000000009720000000000947000000000095800000000009640000000000958000000000096401721000000000000398700000000000382160500000000000000009999123100000010000000000000BRTASAACNPR4104
012024102902TCSA3       010TECNISA     ON      NM   R$  000000000014100000000001420000000000136000000000013800000000001370000000000137000000000013900170000000000000134100000000000018530600000000000000009999123100000010000000000000BRTCSAACNOR3112
012024102902TECN3       010TECHNOS     ON      NM   R$  000000000058700000000005900000000000551000000000057600000000005770000000000568000000000057700296000000000000079900000000000046099300000000000000009999123100000010000000000000BRTECNACNOR6109
012024102902TELB4       010TELEBRAS    PN           R$  000000000092700000000009270000000000910000000000091500000000009150000000000911000000000091500005000000000000000700000000000000640700000000000000009999123100000010000000000000BRTELBACNPR9140
012024102902TEND3       010TENDA       ON      NM   R$  000000000145700000000014840000000001449000000000146600000000014740000000001471000000000147410130000000000002422400000000003552567000000000000000009999123100000010000000000000BRTENDACNOR4111
012024102902TFCO4       010TRACK FIELD PN      N2   R$  000000000105600000000010650000000001036000000000104400000000010400000000001039000000000104400578000000000000138000000000000144072800000000000000009999123100000010000000000000BRTFCOACNPR8115
012024102902TGMA3       010TEGMA       ON      NM   R$  000000000297400000000029960000000002912000000000294400000000029120000000002912000000000293501424000000000000196600000000000578825300000000000000009999123100000010000000000000BRTGMAACNOR7145
012024102902TIMS3       010TIM         ON      NM   R$  000000000173500000000017510000000001634000000000166800000000016340000000001634000000000163818293000000000019510000000000032547847000000000000000009999123100000010000000000000BRTIMSACNOR5118
012024102902TOTS3       010TOTVS       ON      NM   R$  000000000292000000000029310000000002905000000000292000000000029200000000002917000000000293012452000000000003112600000000009089802000000000000000009999123100000010000000000000BRTOTSACNOR8145
012024102902VAMO3       010VAMOS       ON      NM   R$  000000000062800000000006360000000000620000000000062600000000006250000000000625000000000062609442000000000005974000000000003740706300000000000000009999123100000010000000000000BRVAMOACNOR7105
012024102902VBBR3       010VIBRA       ON      NM   R$  000000000222600000000022640000000002215000000000223500000000022200000000002220000000000222311439000000000004523900000000010112749200000000000000009999123100000010000000000000BRVBBRACNOR1109
012024102902PETZ3       010PETZ        ON      NM   R$  000000000050000000000005040000000000490000000000049500000000004930000000000491000000000049405189000000000003571400000000001768865900000000000000009999123100000010000000000000BRPETZACNOR2110
012024102902RAIZ4       010RAIZEN      PN      N2   R$  000000000028800000000002890000000000281000000000028300000000002830000000000282000000000028307762000000000012177900000000003456476500000000000000009999123100000010000000000000BRRAIZACNPR6111
012024102902RANI3       010IRANI       ON      NM   R$  000000000077200000000007750000000000760000000000076600000000007600000000000760000000000076201937000000000000431800000000000330789700000000000000009999123100000010000000000000BRRANIACNOR5073
012024102902RAPT3       010RANDON PART ON      N1   R$  000000000093600000000009370000000000923000000000092600000000009230000000000923000000000092900071000000000000021500000000000019918900000000000000009999123100000010000000000000BRRAPTACNOR7163
012024102902RAPT4       010RANDON PART PN      N1   R$  000000000109800000000011070000000001079000000000108900000000010800000000001080000000000108404873000000000001278200000000001392956000000000000000009999123100000010000000000000BRRAPTACNPR4163
012024102902SYNE3       010SYN PROP TECON      NM   R$  000000000084500000000008450000000000831000000000083800000000008370000000000837000000000084101107000000000000309900000000000259738400000000000000009999123100000010000000000000BRSYNEACNOR2103
012024102902TAEE11      010TAESA       UNT     N2   R$  000000000345500000000034640000000003444000000000345300000000034510000000003451000000000345504666000000000001193500000000004121541600000000000000009999123100000010000000000000BRTAEECDAM10148
012024102902TAEE3       010TAESA       ON      N2   R$  000000000114100000000011470000000001141000000000114400000000011430000000001141000000000114700251000000000000048100000000000055052000000000000000009999123100000010000000000000BRTAEEACNOR9148
012024102902TAEE4       010TAESA       PN      N2   R$  000000000115100000000011550000000001149000000000115100000000011520000000001150000000000115200411000000000000138900000000000159925800000000000000009999123100000010000000000000BRTAEEACNPR6148
012024102902ODPV3       010ODONTOPREV  ON      NM   R$  000000000104500000000010490000000001028000000000103600000000010310000000001030000000000103604333000000000001134600000000001176442400000000000000009999123100000010000000000000BRODPVACNOR4204
012024102902RAIL3       010RUMO S.A.   ON      NM   R$  000000000198700000000020100000000001974000000000199600000000019900000000001990000000000199221063000000000015548900000000031042626100000000000000009999123100000010000000000000BRRAILACNOR9105
012024102902SNSY5       010SANSUY      PNA          R$  000000000049700000000004990000000000460000000000047800000000004600000000000460000000000049600021000000000000007000000000000003351000000000000000009999123100000010000000000000BRSNSYACNPA5111
012024102902SOJA3       010BOA SAFRA   ON      NM   R$  000000000123400000000012560000000001234000000000124500000000012350000000001234000000000124002290000000000000408900000000000509426900000000000000009999123100000010000000000000BRSOJAACNOR9106
012024102902SRNA3       010SERENA      ON      NM   R$  000000000083100000000008390000000000821000000000083100000000008360000000000833000000000083605280000000000001755400000000001460446500000000000000009999123100000010000000000000BRSRNAACNOR4100
012024102902STBP3       010SANTOS BRP  ON  EX  NM   R$  000000000126100000000012680000000001255000000000125900000000012590000000001259000000000126307051000000000014134100000000017797478100000000000000009999123100000010000000000000BRSTBPACNOR3133
012024102902SUZB3       010SUZANO S.A. ON      NM   R$  000000000594900000000059890000000005907000000000595100000000059560000000005944000000000595618848000000000005425200000000032288412400000000000000009999123100000010000000000000BRSUZBACNOR0130
012024102907TXRX4       010TEX RENAUX  PN           R$  000000000021600000000002190000000000216000000000021700000000002190000000000216000000000021900002000000000000000200000000000000043500000000000000009999123100000010000000000000BRTXRXACNPR0142
012024102907SEQL3       010SEQUOIA LOG ON      NM   R$  000000000038600000000004650000000000383000000000042400000000004090000000000408000000000040906443000000000005962600000000002532724000000000000000009999123100000010000000000000BRSEQLACNOR2103
012024102907NUTR3       010NUTRIPLANT  ON      MA   R$  000000000042200000000004310000000000381000000000040200000000003970000000000389000000000039500057000000000000012800000000000005155800000000000000009999123100000010000000000000BRNUTRACNOR0104
012024102908LIGT3       010LIGHT S/A   ON      NM   R$  000000000062700000000006340000000000612000000000062400000000006250000000000625000000000062602498000000000000586000000000000365972700000000000000009999123100000010000000000000BRLIGTACNOR2124
012024102908OIBR3       010OI          ON      N1   R$  000000000048200000000004900000000000452000000000046600000000004550000000000455000000000046001805000000000000812100000000000378564000000000000000009999123100000010000000000000BROIBRACNOR1112
012024102908OIBR4       010OI          PN      N1   R$  000000000114000000000011500000000001095000000000110700000000010950000000001074000000000112200011000000000000001100000000000001217900000000000000009999123100000010000000000000BROIBRACNPR8111
012024102908RNEW11      010RENOVA      UNT     N2   R$  000000000032700000000003270000000000315000000000032000000000003180000000000317000000000032700035000000000000011100000000000003553500000000000000009999123100000010000000000000BRRNEWCDAM15110
012024102908RNEW3       010RENOVA      ON      N2   R$  000000000010800000000001080000000000104000000000010600000000001060000000000106000000000010800148000000000000144900000000000015369600000000000000009999123100000010000000000000BRRNEWACNOR8110
012024102908RNEW4       010RENOVA      PN      N2   R$  000000000010800000000001100000000000103000000000010500000000001060000000000105000000000010600321000000000000362700000000000038299100000000000000009999123100000010000000000000BRRNEWACNPR5110
012024102908PMAM3       010PARANAPANEMAON      NM   R$  000000000010700000000001080000000000088000000000009700000000000910000000000091000000000009200964000000000000731500000000000071093600000000000000009999123100000010000000000000BRPMAMACNOR3040
012024102908AGXY3       010AGROGALAXY  ON      NM   R$  000000000004200000000000430000000000039000000000004000000000000400000000000040000000000004100232000000000000244500000000000010021000000000000000009999123100000010000000000000BRAGXYACNOR4103
012024102908HOOT4       010HOTEIS OTHONPN           R$  000000000022700000000002290000000000226000000000022700000000002280000000000228000000000023100008000000000000003000000000000000682800000000000000009999123100000010000000000000BRHOOTACNPR9015
012024102908JFEN3       010JOAO FORTES ON           R$  000000000002800000000000290000000000027000000000002700000000000270000000000027000000000002800117000000000000451300000000000012523500000000000000009999123100000010000000000000BRJFENACNOR0059
012024102908CTSA3       010SANTANENSE  ON           R$  000000000020400000000002040000000000204000000000020400000000002040000000000201000000000023900003000000000000000300000000000000061200000000000000009999123100000010000000000000BRCTSAACNOR3062
012024102908CTSA4       010SANTANENSE  PN           R$  000000000010400000000001040000000000104000000000010400000000001040000000000104000000000011900012000000000000019000000000000001976000000000000000009999123100000010000000000000BRCTSAACNPR0062
012024102908ATMP3       010ATMASA      ON           R$  000000000013500000000001380000000000134000000000013500000000001380000000000134000000000013800005000000000000001800000000000000243700000000000000009999123100000010000000000000BRATMPACNOR8100
012024102908AMER3       010AMERICANAS  ON      NM   R$  000000000039000000000003930000000000383000000000038600000000003860000000000384000000000038600893000000000000527500000000000204024000000000000000009999123100000010000000000000BRAMERACNOR6103
012024102908OSXB3       010OSX BRASIL  ON      NM   R$  000000000044300000000004550000000000437000000000044500000000004490000000000410000000000045000020000000000000002700000000000001204100000000000000009999123100000010000000000000BROSXBACNOR8109
012024102908NEXP3       010NEXPE       ON           R$  000000000044400000000004570000000000437000000000044200000000004370000000000439000000000045300010000000000000001900000000000000841300000000000000009999123100000010000000000000BRNEXPACNOR0101
012024102908RPMG3       010PET MANGUINHON           R$  000000000030200000000003020000000000292000000000029800000000002930000000000294000000000030000030000000000000018100000000000005405100000000000000009999123100000010000000000000BRRPMGACNOR9194
012024102908RSID3       010ROSSI RESID ON      NM   R$  000000000029100000000003070000000000291000000000029600000000002980000000000292000000000029800052000000000000008200000000000002430200000000000000009999123100000010000000000000BRRSIDACNOR8120
012024102910MBLY1       010MOBLY       DIR ORD NM   R$  000000000000100000000000010000000000001000000000000100000000000010000000000000000000000000100033000000000000321800000000000000321800000000000000009999123100000010000000000000BRMBLYD01OR0100
012024102910PINE1       010PINE        DIR ORD N2   R$  000000000004600000000000460000000000035000000000003600000000000350000000000034000000000003500037000000000000017400000000000000629400000000000000009999123100000010000000000000BRPINED04OR0150
012024102910PINE2       010PINE        DIR PRE N2   R$  000000000005500000000000550000000000035000000000003600000000000350000000000035000000000003600005000000000000001300000000000000047500000000000000009999123100000010000000000000BRPINED06PR2150
012024102910MBLY11      010MOBLY       DIR     NM   R$  000000000002300000000000240000000000014000000000001900000000000210000000000016000000000002100026000000000000008100000000000000158300000000000000009999123100000010000000000000BRMBLYD01M18100
012024102910HBSA1       010HIDROVIAS   DIR ORD NM   R$  000000000000200000000000020000000000001000000000000100000000000020000000000001000000000000200022000000000000153300000000000000290800000000000000009999123100000010000000000000BRHBSAD01OR5100
012024102912NSLU11      010FII LOURDES CI           R$  000000001681000000000168130000000016702000000001680700000000167990000000016720000000001679900056000000000000000347000000000005832365000000000000009999123100000010000000000000BRNSLUCTF008315
012024102912IDGR11      010FII UNID II CI           R$  000000000039900000000004000000000000399000000000039900000000004000000000000301000000000035000004000000000000000057000000000000022791000000000000009999123100000010000000000000BRIDGRCTF006131
012024102912INLG11      010FII INTER LGCI           R$  000000000804900000000080490000000007850000000000789300000000078850000000007852000000000788500241000000000000003069000000000024225511000000000000009999123100000010000000000000BRINLGCTF008101
012024102912INRD11      010FII INTER RDCI           R$  000000000710000000000071000000000007066000000000707200000000070670000000007066000000000706700076000000000000002019000000000014279459000000000000009999123100000010000000000000BRINRDCTF002101
012024102912LIFE11      010FII LIFE    CI           R$  000000000099700000000009970000000000983000000000098800000000009900000000000987000000000099003744000000000000138203000000000136595246000000000000009999123100000010000000000000BRLIFECTF017134
012024102912BIME11      010FII BRIO ME CI           R$  000000000071300000000007200000000000713000000000071700000000007190000000000717000000000071900145000000000000009899000000000007098284000000000000009999123100000010000000000000BRBIMECTF006136
012024102912MALL11      010FII MALLS BPCI           R$  000000001004100000000101490000000009955000000001007900000000099550000000009955000000001011204998000000000000017712000000000178522028000000000000009999123100000010000000000000BRMALLCTF007185
012024102912MANA11      010FII MANATI  CI           R$  000000000085500000000008550000000000838000000000084400000000008430000000000840000000000084303447000000000000243876000000000205976037000000000000009999123100000010000000000000BRMANACTF006129
012024102912MAXR11      010FII MAX RET CI           R$  000000000669900000000067000000000006648000000000665800000000066480000000006648000000000667300350000000000000000687000000000004574299000000000000009999123100000010000000000000BRMAXRCTF009272
012024102912WPLZ11      010FII W PLAZA CI           R$  000000000550000000000056990000000005500000000000556200000000056990000000005601000000000569900004000000000000000016000000000000088995000000000000009999123100000010000000000000BRWPLZCTF004270
012024102912WSEC11      010FII WARREN  CI           R$  000000000081300000000008130000000000804000000000080800000000008050000000000803000000000080500011000000000000000200000000000000161616000000000000009999123100000010000000000000BRWSECCTF010125
012024102912WTSP11      010FII WTC SP  CI           R$  000000000551800000000056180000000004819000000000558000000000048190000000005131000000000599000018000000000000001372000000000007656700000000000000009999123100000010000000000000BRWTSPCTF002168
012024102912XPCI11      010FII XP CRED CI           R$  000000000799200000000080570000000007980000000000802600000000080000000000008000000000000802803657000000000000015554000000000124844654000000000000009999123100000010000000000000BRXPCICTF007161
012024102912XPCM11      010FII XP MACAECI           R$  000000000071500000000007200000000000711000000000071200000000007130000000000712000000000071300044000000000000000709000000000000505040000000000000009999123100000010000000000000BRXPCMCTF009230
012024102912XPIN11      010FII XP INDL CI  ER       R$  000000000738000000000074050000000007301000000000735600000000073510000000007303000000000735100609000000000000004985000000000036669821000000000000009999123100000010000000000000BRXPINCTF004178
012024102912XPLG11      010FII XP LOG  CI           R$  000000000970100000000097550000000009574000000000963700000000096000000000009599000000000962707111000000000000047040000000000453357181000000000000009999123100000010000000000000BRXPLGCTF002182
012024102912XPML11      010FII XP MALLSCI  ER       R$  000000001038200000000104940000000010336000000001038500000000103780000000010375000000001037819222000000000000128186000000001331275526000000000000009999123100000010000000000000BRXPMLCTF000189
012024102912XPPR11      010FII XP PROP CI           R$  000000000151000000000015100000000001502000000000150200000000015020000000001502000000000150300756000000000000007351000000000011042309000000000000009999123100000010000000000000BRXPPRCTF000159
012024102912XPSF11      010FII XP SELECCI           R$  000000000067600000000006810000000000671000000000067700000000006780000000000678000000000067900973000000000000036085000000000024441565000000000000009999123100000010000000000000BRXPSFCTF009160
012024102912ZAGH11      010FII ZAGH    CI           R$  000000000124900000000012490000000001249000000000124900000000012490000000001250000000000130000004000000000000000031000000000000038719000000000000009999123100000010000000000000BRZAGHCTF007109
012024102912ZAVI11      010FII ZAVIT R CI           R$  000000001067900000000107660000000010413000000001054900000000104140000000010414000000001053000159000000000000000863000000000009104385000000000000009999123100000010000000000000BRZAVICTF004125
012024102912PQAG11      010FII PARQ ANHCI           R$  000000000579500000000057950000000005708000000000576000000000057080000000005602000000000579500002000000000000000005000000000000028801000000000000009999123100000010000000000000BRPQAGCTF009152
012024102912PQDP11      010FII D PEDRO CI           R$  000000020210100000002078890000000202101000000020468700000002030310000000203030000000020303200069000000000000000071000000000014532811000000000000009999123100000010000000000000BRPQDPCTF004275
012024102912RENV11      010FII RENV    CI           R$  000000000098100000000010350000000000981000000000103400000000010350000000001034000000000103500050000000000000005064000000000005237670000000000000009999123100000010000000000000BRRENVCTF003101
012024102912RFOF11      010FII RB CFOF CI           R$  000000000658400000000066550000000006584000000000664300000000066550000000006650000000000665500035000000000000000570000000000003786609000000000000009999123100000010000000000000BRRFOFCTF001155
012024102912RINV11      010FII REAL INVCI           R$  000000001041300000000104400000000010370000000001041600000000104400000000010402000000001044000610000000000000004105000000000042759247000000000000009999123100000010000000000000BRRINVCTF004124
012024102912RMAI11      010FII REAGMULTCI           R$  000000000754900000000075500000000007546000000000754900000000075500000000007499000000000755000100000000000000000113000000000000853043000000000000009999123100000010000000000000BRRMAICTF000138
012024102912RNDP11      010FII BB R PAPCI           R$  000000000400100000000041500000000004000000000000401200000000041500000000004151000000000518900004000000000000000013000000000000052160000000000000009999123100000010000000000000BRRNDPCTF007252
012024102912RNGO11      010FII RIONEGROCI           R$  000000000480000000000048100000000004800000000000480000000000048000000000004800000000000481500015000000000000000921000000000004420909000000000000009999123100000010000000000000BRRNGOCTF003247
012024102912TRBL11      010FII SDI LOG CI           R$  000000000672200000000071930000000006720000000000692900000000070370000000007037000000000712401616000000000000028308000000000196151340000000000000009999123100000010000000000000BRTRBLCTF007116
012024102912TRNT11      010FII TORRE NOCI           R$  000000001078900000000107900000000010789000000001078900000000107900000000010400000000001079000002000000000000000006000000000000064739000000000000009999123100000010000000000000BRTRNTCTF013341
012024102912TRXB11      010FII TRX R IICI           R$  000000001392100000000139210000000013921000000001392100000000139210000000013790000000001392100001000000000000000001000000000000013921000000000000009999123100000010000000000000BRTRXBCTF002155
012024102912TRXF11      010FII TRX REALCI           R$  000000001007500000000100770000000009997000000001001400000000100150000000010015000000001002506896000000000000054700000000000547812888000000000000009999123100000010000000000000BRTRXFCTF003168
012024102912TVRI11      010FII TIVIO RICI           R$  000000000965000000000096990000000009470000000000950900000000094800000000009475000000000948001032000000000000010462000000000099485355000000000000009999123100000010000000000000BRTVRICTF001112
012024102912VCJR11      010FII VECTIS  CI           R$  000000000851800000000085180000000008370000000000845000000000084680000000008380000000000846802842000000000000021006000000000177519825000000000000009999123100000010000000000000BRVCJRCTF005159
012024102912VCRI11      010FII VINCI CRCI           R$  000000000077300000000007870000000000772000000000078000000000007800000000000780000000000078300344000000000000019218000000000015002159000000000000009999123100000010000000000000BRVCRICTF007129
012024102912VCRR11      010FII VECT RENCI           R$  000000000670000000000067000000000006599000000000661600000000066000000000006600000000000662000140000000000000000507000000000003354814000000000000009999123100000010000000000000BRVCRRCTF008140
012024102912VGHF11      010FII VALOR HECI           R$  000000000076400000000007780000000000762000000000077300000000007780000000000778000000000077909814000000000000424752000000000328403350000000000000009999123100000010000000000000BRVGHFCTF005148
012024102912VGIP11      010FII VALORAIPCI           R$  000000000822100000000082990000000008220000000000824900000000082790000000008256000000000827902208000000000000012380000000000102134031000000000000009999123100000010000000000000BRVGIPCTF002160
012024102912VGIR11      010FII VALREIIICI           R$  000000000095600000000009810000000000956000000000097400000000009780000000000975000000000097831867000000000000690338000000000672615205000000000000009999123100000010000000000000BRVGIRCTF008182
012024102912VGRI11      010FII VGRI    CI           R$  000000000088200000000008820000000000870000000000087400000000008700000000000870000000000087401230000000000000053831000000000047078538000000000000009999123100000010000000000000BRVGRICTF008108
012024102912VIFI11      010FII VINCI IFCI           R$  000000000072500000000007260000000000710000000000071400000000007150000000000714000000000071501109000000000000007699000000000005498339000000000000009999123100000010000000000000BRVIFICTF009160
012024102912VILG11      010FII VINCI LGCI           R$  000000000812500000000082000000000008125000000000813000000000081600000000008127000000000816005479000000000000022144000000000180037651000000000000009999123100000010000000000000BRVILGCTF001175
012024102912VINO11      010FII VINCI OFCI           R$  000000000050000000000005060000000000497000000000050100000000005050000000000504000000000050505388000000000000147226000000000073888283000000000000009999123100000010000000000000BRVINOCTF001161
012024102912VISC11      010FII VINCI SCCI           R$  000000001033400000000104150000000010276000000001037700000000103780000000010378000000001040010268000000000000060010000000000622765565000000000000009999123100000010000000000000BRVISCCTF005190
012024102912VIUR11      010FII VINCI IUCI           R$  000000000058000000000005800000000000570000000000057700000000005750000000000573000000000057501088000000000000034921000000000020157896000000000000009999123100000010000000000000BRVIURCTF009141
012024102912PLCR11      010FII PLURAL RCI           R$  000000000799000000000080950000000007940000000000801300000000080870000000007980000000000808701049000000000000004375000000000035058238000000000000009999123100000010000000000000BRPLCRCTF003159
012024102912KCRE11      010FII KINEA CRCI           R$  000000000088900000000008990000000000887000000000089200000000008940000000000893000000000089400504000000000000051114000000000045634105000000000000009999123100000010000000000000BRKCRECTF009129
012024102912MXRF11      010FII MAXI RENCI           R$  000000000096200000000009700000000000953000000000096000000000009580000000000957000000000095845437000000000001921970000000001845520325000000000000009999123100000010000000000000BRMXRFCTF008257
012024102912FPAB11      010FII A BRANCACI           R$  000000002250100000000225010000000022501000000002250100000000225010000000022500000000002349900001000000000000000001000000000000022501000000000000009999123100000010000000000000BRFPABCTF011318
012024102912FVPQ11      010FII V PARQUECI           R$  000000000586000000000059300000000005815000000000589000000000059130000000005913000000000593100587000000000000000903000000000005319479000000000000009999123100000010000000000000BRFVPQCTF015263
012024102912IRDM11      010FII IRIDIUM CI           R$  000000000663400000000066590000000006570000000000661900000000066430000000006640000000000664306519000000000000045869000000000303613322000000000000009999123100000010000000000000BRIRDMCTF004190
012024102912IRIM11      010FII IRIM    CI           R$  000000000685000000000068500000000006737000000000676800000000068000000000006749000000000679900034000000000000000482000000000003262196000000000000009999123100000010000000000000BRIRIMCTF003139
012024102912ITIP11      010FII INTER IPCI           R$  000000000730000000000073000000000007176000000000722300000000072450000000007176000000000724500068000000000000000795000000000005742658000000000000009999123100000010000000000000BRITIPCTF002133
012024102912ITIT11      010FII INTER ITCI           R$  000000000712600000000072020000000007126000000000719300000000072000000000007171000000000720000076000000000000000842000000000006056865000000000000009999123100000010000000000000BRITITCTF004133
