00COTAHIST.2024BOVESPA 20240624                                                                                                                                                                                                                      
012024062402AALR3       010ALLIAR      ON      NM   R$  000000000098600000000010100000000000986000000000100000000000010100000000001000000000000101500150000000000000029400000000000029422600000000000000009999123100000010000000000000BRAALRACNOR6102
012024062402ABCB4       010ABC BRASIL  PN      N2   R$  000000000210000000000021680000000002092000000000214800000000021620000000002162000000000216502297000000000000478200000000001027367700000000000000009999123100000010000000000000BRABCBACNPR4145
012024062402ABEV3       010AMBEV S/A   ON           R$  000000000112600000000011400000000001122000000000113300000000011320000000001131000000000113229053000000000032197300000000036480577500000000000000009999123100000010000000000000BRABEVACNOR1127
012024062402BBDC3       010BRADESCO    ON  EJ  N1   R$  000000000111800000000011340000000001116000000000112700000000011230000000001122000000000112510624000000000005677400000000006399605700000000000000009999123100000010000000000000BRBBDCACNOR1771
012024062402BBDC4       010BRADESCO    PN  EJ  N1   R$  000000000124500000000012570000000001237000000000124700000000012440000000001244000000000124527210000000000029037500000000036231848200000000000000009999123100000010000000000000BRBBDCACNPR8771
012024062402CRFB3       010CARREFOUR BRON      NM   R$  000000000089900000000009100000000000890000000000089800000000009000000000000900000000000090108808000000000004305400000000003869932000000000000000009999123100000010000000000000BRCRFBACNOR2116
012024062402CRPG5       010CRISTAL     PNA          R$  000000000298900000000029890000000002935000000000295000000000029630000000002927000000000299800013000000000000001300000000000003835200000000000000009999123100000010000000000000BRCRPGACNPA3119
012024062402CRPG6       010CRISTAL     PNB          R$  000000000299900000000029990000000002999000000000299900000000029990000000002950000000000302000002000000000000000200000000000000599800000000000000009999123100000010000000000000BRCRPGACNPB1119
012024062402CSAN3       010COSAN       ON      NM   R$  000000000130400000000013310000000001298000000000131500000000013200000000001318000000000132015541000000000010696400000000014072704600000000000000009999123100000010000000000000BRCSANACNOR6126
012024062402ELMD3       010ELETROMIDIA ON      NM   R$  000000000174400000000017810000000001744000000000176500000000017660000000001762000000000176600336000000000000092500000000000163284300000000000000009999123100000010000000000000BRELMDACNOR3101
012024062402EMAE4       010EMAE        PN           R$  000000000469000000000047190000000004651000000000469500000000047190000000004657000000000473900012000000000000001500000000000007042500000000000000009999123100000010000000000000BREMAEACNPR1125
012024062402EMBR3       010EMBRAER     ON      NM   R$  000000000381900000000038570000000003741000000000378200000000037480000000003747000000000374918102000000000004432100000000016766127200000000000000009999123100000010000000000000BREMBRACNOR4191
012024062402IFCM3       010INFRACOMM   ON      NM   R$  000000000003300000000000350000000000032000000000003300000000000340000000000033000000000003400954000000000005683900000000000192069800000000000000009999123100000010000000000000BRIFCMACNOR8101
012024062402IGTI11      010IGUATEMI S.AUNT     N1   R$  000000000197300000000020360000000001973000000000202400000000020340000000002029000000000203513255000000000002217400000000004490193000000000000000009999123100000010000000000000BRIGTICDAM16106
012024062402IGTI3       010IGUATEMI S.AON      N1   R$  000000000026600000000002750000000000266000000000027100000000002730000000000269000000000027300202000000000000050400000000000013662300000000000000009999123100000010000000000000BRIGTIACNOR8106
012024062402LOGG3       010LOG COM PROPON      NM   R$  000000000230000000000023780000000002282000000000234800000000023440000000002344000000000236801870000000000000269500000000000632895300000000000000009999123100000010000000000000BRLOGGACNOR7107
012024062402LOGN3       010LOG-IN      ON      NM   R$  000000000349900000000036490000000003499000000000357000000000036300000000003573000000000363000142000000000000022700000000000081058300000000000000009999123100000010000000000000BRLOGNACNOR3105
012024062402LPSB3       010LOPES BRASILON      NM   R$  000000000017800000000001820000000000174000000000017600000000001750000000000175000000000017800110000000000000056700000000000010005000000000000000009999123100000010000000000000BRLPSBACNOR0114
012024062402LREN3       010LOJAS RENNERON      NM   R$  000000000125300000000012840000000001246000000000126800000000012750000000001271000000000127516657000000000010136200000000012861596600000000000000009999123100000010000000000000BRLRENACNOR1220
012024062402LUPA3       010LUPATECH    ON      NM   R$  000000000015700000000001580000000000155000000000015600000000001570000000000157000000000015800082000000000000071500000000000011214300000000000000009999123100000010000000000000BRLUPAACNOR8112
012024062402LUXM4       010TREVISA     PN           R$  000000000139900000000013990000000001399000000000139900000000013990000000001300000000000140000001000000000000000100000000000000139900000000000000009999123100000010000000000000BRLUXMACNPR4052
012024062402LVTC3       010WDC NETWORKSON      NM   R$  000000000034100000000003450000000000340000000000034200000000003400000000000340000000000034500027000000000000018900000000000006464700000000000000009999123100000010000000000000BRLVTCACNOR4102
012024062402LWSA3       010LWSA        ON      NM   R$  000000000040000000000004110000000000400000000000040600000000004110000000000410000000000041106297000000000003588900000000001458000600000000000000009999123100000010000000000000BRLWSAACNOR8103
012024062402OFSA3       010OUROFINO S/AON      NM   R$  000000000186800000000018680000000001861000000000186100000000018610000000001860000000000189900007000000000000003200000000000005956300000000000000009999123100000010000000000000BROFSAACNOR7118
012024062402ONCO3       010ONCOCLINICASON      NM   R$  000000000058700000000006090000000000577000000000059100000000005890000000000588000000000058905618000000000004688200000000002771429400000000000000009999123100000010000000000000BRONCOACNOR6101
012024062402OPCT3       010OCEANPACT   ON      NM   R$  000000000064700000000006600000000000642000000000064800000000006480000000000648000000000064900835000000000000375800000000000243831100000000000000009999123100000010000000000000BROPCTACNOR0100
012024062402ORVR3       010ORIZON      ON      NM   R$  000000000375600000000038420000000003723000000000379900000000038110000000003811000000000382401341000000000000372500000000001415444000000000000000009999123100000010000000000000BRORVRACNOR0101
012024062402CMIN3       010CSNMINERACAOON      N2   R$  000000000051400000000005180000000000504000000000051100000000005180000000000517000000000051910582000000000009309300000000004762107500000000000000009999123100000010000000000000BRCMINACNOR2111
012024062402COCE5       010COELCE      PNA          R$  000000000299700000000031200000000002971000000000304500000000031000000000003080000000000310000159000000000000028700000000000087408300000000000000009999123100000010000000000000BRCOCEACNPA3147
012024062402COGN3       010COGNA ON    ON      NM   R$  000000000017500000000001790000000000172000000000017500000000001780000000000177000000000017819983000000000033457400000000005868921100000000000000009999123100000010000000000000BRCOGNACNOR2104
012024062402BPAN4       010BANCO PAN   PN      N1   R$  000000000081400000000008390000000000809000000000082100000000008140000000000813000000000081503731000000000001359300000000001116483400000000000000009999123100000010000000000000BRBPANACNPR1115
012024062402BRAP3       010BRADESPAR   ON      N1   R$  000000000175000000000017680000000001734000000000175300000000017640000000001750000000000176400927000000000000222900000000000390905900000000000000009999123100000010000000000000BRBRAPACNOR5148
012024062402BRAP4       010BRADESPAR   PN      N1   R$  000000000179000000000018110000000001783000000000179900000000018050000000001805000000000181005628000000000002112200000000003801670500000000000000009999123100000010000000000000BRBRAPACNPR2148
012024062402CSED3       010CRUZEIRO EDUON      NM   R$  000000000037500000000003870000000000371000000000037700000000003870000000000381000000000038700675000000000000450900000000000170409100000000000000009999123100000010000000000000BRCSEDACNOR9104
012024062402CSMG3       010COPASA      ON      NM   R$  000000000207200000000021620000000002068000000000213600000000021450000000002145000000000214704530000000000001317400000000002815071300000000000000009999123100000010000000000000BRCSMGACNOR5173
012024062402CSNA3       010SID NACIONALON           R$  000000000126000000000012830000000001250000000000127200000000012710000000001271000000000127311307000000000004875600000000006205857700000000000000009999123100000010000000000000BRCSNAACNOR6261
012024062402ENAT3       010ENAUTA PART ON      NM   R$  000000000203700000000020920000000002037000000000207400000000020840000000002084000000000208505039000000000001402700000000002909625100000000000000009999123100000010000000000000BRENATACNOR0104
012024062402ENEV3       010ENEVA       ON      NM   R$  000000000125000000000012590000000001243000000000125200000000012500000000001249000000000125107860000000000003385800000000004240667700000000000000009999123100000010000000000000BRENEVACNOR8106
012024062402ENGI11      010ENERGISA    UNT     N2   R$  000000000452500000000045650000000004503000000000453100000000045200000000004520000000000453407014000000000001348400000000006110665600000000000000009999123100000010000000000000BRENGICDAM16135
012024062402ENGI3       010ENERGISA    ON      N2   R$  000000000136000000000013700000000001335000000000135600000000013620000000001361000000000137000022000000000000002200000000000002984100000000000000009999123100000010000000000000BRENGIACNOR0145
012024062402ENGI4       010ENERGISA    PN      N2   R$  000000000079200000000008000000000000783000000000079400000000007920000000000789000000000080000026000000000000006600000000000005243700000000000000009999123100000010000000000000BRENGIACNPR7141
012024062402ENJU3       010ENJOEI      ON      NM   R$  000000000020500000000002130000000000205000000000020900000000002100000000000210000000000021100920000000000000490200000000000102769600000000000000009999123100000010000000000000BRENJUACNOR9100
012024062402ENMT4       010ENERGISA MT PN           R$  000000000659000000000067800000000006590000000000669000000000067800000000005870000000000690000003000000000000000300000000000002007000000000000000009999123100000010000000000000BRENMTACNPR2125
012024062402EPAR3       010EMBPAR S/A  ON           R$  000000000061500000000006370000000000615000000000062100000000006360000000000616000000000063600016000000000000002300000000000001428800000000000000009999123100000010000000000000BREPARACNOR9105
012024062402EQMA3B      010EQTLMARANHAOON      MB   R$  000000000260100000000027370000000002601000000000266900000000027370000000002556000000000273000002000000000000000200000000000000533800000000000000009999123100000010000000000000BREQMAACNOR8108
012024062402EQPA3       010EQTL PARA   ON           R$  000000000069100000000006920000000000677000000000068400000000006770000000000681000000000068800011000000000000003400000000000002326000000000000000009999123100000010000000000000BREQPAACNOR1111
012024062402EQTL3       010EQUATORIAL  ON      NM   R$  000000000292700000000029940000000002915000000000297600000000029750000000002972000000000298119212000000000007443800000000022157050600000000000000009999123100000010000000000000BREQTLACNOR0130
012024062402GUAR3       010GUARARAPES  ON      NM   R$  000000000064500000000006840000000000645000000000067200000000006680000000000668000000000067103565000000000001015200000000000682490100000000000000009999123100000010000000000000BRGUARACNOR4173
012024062402JALL3       010JALLESMACHADON      NM   R$  000000000067500000000006840000000000667000000000067400000000006710000000000670000000000067101363000000000000430600000000000290470500000000000000009999123100000010000000000000BRJALLACNOR0105
012024062402JBSS3       010JBS         ON      NM   R$  000000000307600000000031090000000003054000000000308700000000031000000000003095000000000310020220000000000006100400000000018835770500000000000000009999123100000010000000000000BRJBSSACNOR8121
012024062402MRVE3       010MRV         ON      NM   R$  000000000067100000000007040000000000669000000000069100000000006990000000000699000000000070009525000000000010269100000000007097847600000000000000009999123100000010000000000000BRMRVEACNOR2127
012024062402BAHI3       010BAHEMA      ON      MA   R$  000000000067000000000006700000000000641000000000065300000000006410000000000635000000000065800009000000000000000900000000000000588500000000000000009999123100000010000000000000BRBAHIACNOR1074
012024062402BALM4       010BAUMER      PN           R$  000000000100000000000010000000000001000000000000100000000000010000000000000973000000000105400001000000000000000100000000000000100000000000000000009999123100000010000000000000BRBALMACNPR2056
012024062402BAZA3       010AMAZONIA    ON           R$  000000000861200000000087000000000008612000000000865600000000086400000000008615000000000875900010000000000000001200000000000010387300000000000000009999123100000010000000000000BRBAZAACNOR0179
012024062402BBAS3       010BRASIL      ON  EJ  NM   R$  000000000266100000000027040000000002650000000000268300000000026810000000002681000000000268227346000000000013258500000000035580673800000000000000009999123100000010000000000000BRBBASACNOR3324
012024062402BLAU3       010BLAU        ON      NM   R$  000000000097500000000009940000000000957000000000097500000000009820000000000978000000000098202628000000000000379500000000000370378800000000000000009999123100000010000000000000BRBLAUACNOR8113
012024062402BMEB3       010MERCANTIL   ON      N1   R$  000000000252000000000025200000000002520000000000252000000000025200000000002521000000000268000002000000000000001200000000000003024000000000000000009999123100000010000000000000BRBMEBACNOR8205
012024062402BMEB4       010MERCANTIL   PN      N1   R$  000000000266500000000027300000000002621000000000268800000000027300000000002670000000000273000070000000000000011700000000000031458900000000000000009999123100000010000000000000BRBMEBACNPR5210
012024062402BMGB4       010BANCO BMG   PN      N1   R$  000000000031100000000003250000000000311000000000031700000000003220000000000322000000000032401279000000000000525600000000000166724400000000000000009999123100000010000000000000BRBMGBACNPR0109
012024062402BMKS3       010BIC MONARK  ON           R$  000000003290000000000347000000000032900000000003349700000000347000000000033000000000003469000006000000000000000009000000000000301480000000000000009999123100000010000000000000BRBMKSACNOR9166
012024062402RADL3       010RAIADROGASILON      NM   R$  000000000257900000000026300000000002548000000000260900000000026180000000002616000000000261817762000000000006986900000000018232977600000000000000009999123100000010000000000000BRRADLACNOR0156
012024062402RAIL3       010RUMO S.A.   ON      NM   R$  000000000200900000000020490000000002005000000000203000000000020260000000002023000000000202622421000000000007677700000000015585800300000000000000009999123100000010000000000000BRRAILACNOR9105
012024062402RAIZ4       010RAIZEN      PN      N2   R$  000000000029000000000002920000000000286000000000028800000000002880000000000288000000000028909418000000000010720000000000003097900700000000000000009999123100000010000000000000BRRAIZACNPR6110
012024062402SNSY3       010SANSUY      ON           R$  000000000106600000000010900000000001060000000000107000000000010900000000001057000000000109000012000000000000001200000000000001284700000000000000009999123100000010000000000000BRSNSYACNOR2113
012024062402BMOB3       010BEMOBI TECH ON      NM   R$  000000000130000000000013550000000001295000000000133500000000013510000000001348000000000135102476000000000000380900000000000508635200000000000000009999123100000010000000000000BRBMOBACNOR7103
012024062402BOBR4       010BOMBRIL     PN           R$  000000000020500000000002080000000000202000000000020300000000002040000000000203000000000020400140000000000000023500000000000004782600000000000000009999123100000010000000000000BRBOBRACNPR3128
012024062402SOJA3       010BOA SAFRA   ON      NM   R$  000000000144000000000014770000000001440000000000146500000000014720000000001472000000000147802579000000000000637200000000000933964700000000000000009999123100000010000000000000BRSOJAACNOR9105
012024062402SOMA3       010GRUPO SOMA  ON      NM   R$  000000000058300000000006130000000000583000000000059900000000006040000000000604000000000060513068000000000007420000000000004448997100000000000000009999123100000010000000000000BRSOMAACNOR3102
012024062402SRNA3       010SERENA      ON      NM   R$  000000000084000000000008610000000000834000000000084900000000008490000000000849000000000085004890000000000001456500000000001237388500000000000000009999123100000010000000000000BRSRNAACNOR4100
012024062402STBP3       010SANTOS BRP  ON      NM   R$  000000000130000000000013580000000001295000000000134100000000013340000000001334000000000133611193000000000005076300000000006810639800000000000000009999123100000010000000000000BRSTBPACNOR3130
012024062402SUZB3       010SUZANO S.A. ON      NM   R$  000000000487500000000049900000000004875000000000495100000000049630000000004960000000000496321942000000000006228500000000030841230100000000000000009999123100000010000000000000BRSUZBACNOR0130
012024062402BSLI3       010BRB BANCO   ON           R$  000000000094500000000009450000000000930000000000094000000000009300000000000923000000000093000004000000000000000700000000000000658600000000000000009999123100000010000000000000BRBSLIACNOR5194
012024062402BSLI4       010BRB BANCO   PN           R$  000000000103000000000010300000000001030000000000103000000000010300000000000946000000000103800001000000000000000100000000000000103000000000000000009999123100000010000000000000BRBSLIACNPR2194
012024062402PRNR3       010PRINER      ON      NM   R$  000000000101400000000010470000000001013000000000103400000000010410000000001033000000000104201385000000000000310700000000000321542800000000000000009999123100000010000000000000BRPRNRACNOR4109
012024062402PSSA3       010PORTO SEGUROON      NM   R$  000000000298700000000030670000000002968000000000303600000000030380000000003035000000000304008237000000000002023000000000006143220100000000000000009999123100000010000000000000BRPSSAACNOR7154
012024062402PTBL3       010PORTOBELLO  ON      NM   R$  000000000041500000000004300000000000415000000000042500000000004300000000000428000000000043000868000000000000300700000000000128037200000000000000009999123100000010000000000000BRPTBLACNOR8132
012024062402PTNT3       010PETTENATI   ON           R$  000000000096000000000009710000000000960000000000096400000000009710000000000000000000000096700004000000000000000400000000000000385700000000000000009999123100000010000000000000BRPTNTACNOR6042
012024062402PTNT4       010PETTENATI   PN           R$  000000000061400000000006140000000000603000000000060700000000006080000000000600000000000060800009000000000000002400000000000001457000000000000000009999123100000010000000000000BRPTNTACNPR3047
012024062402QUAL3       010QUALICORP   ON      NM   R$  000000000014000000000001500000000000140000000000014600000000001490000000000149000000000015002001000000000005038800000000000737245100000000000000009999123100000010000000000000BRQUALACNOR6120
012024062402SMFT3       010SMART FIT   ON  EJ  NM   R$  000000000220000000000022150000000002172000000000219000000000021780000000002178000000000219209796000000000001970700000000004315974100000000000000009999123100000010000000000000BRSMFTACNOR1112
012024062402SMTO3       010SAO MARTINHOON  EJ  NM   R$  000000000325500000000033470000000003250000000000331400000000033150000000003313000000000331507183000000000001559600000000005169100800000000000000009999123100000010000000000000BRSMTOACNOR3126
012024062402MAPT4       010CEMEPE      PN           R$  000000000056000000000005600000000000560000000000056000000000005600000000000503000000000055000001000000000000000100000000000000056000000000000000009999123100000010000000000000BRMAPTACNPR5106
012024062402MATD3       010MATER DEI   ON      NM   R$  000000000046700000000004790000000000467000000000047200000000004770000000000471000000000047700538000000000000196000000000000092706600000000000000009999123100000010000000000000BRMATDACNOR4104
012024062402MBLY3       010MOBLY       ON      NM   R$  000000000021800000000002180000000000212000000000021400000000002150000000000213000000000021500150000000000000162900000000000034974600000000000000009999123100000010000000000000BRMBLYACNOR5100
012024062402CALI3       010CONST A LINDON           R$  000000000260000000000026000000000002600000000000260000000000026000000000002600000000000350000001000000000000000100000000000000260000000000000000009999123100000010000000000000BRCALIACNOR1137
012024062402CAMB3       010CAMBUCI     ON           R$  000000000107300000000010730000000001051000000000106400000000010680000000001065000000000106800103000000000000026500000000000028214800000000000000009999123100000010000000000000BRCAMBACNOR4130
012024062402CAML3       010CAMIL       ON      NM   R$  000000000083000000000008580000000000820000000000084400000000008440000000000842000000000084404683000000000001092800000000000923158900000000000000009999123100000010000000000000BRCAMLACNOR3128
012024062402CASH3       010MELIUZ      ON      NM   R$  000000000053800000000005700000000000538000000000055500000000005690000000000565000000000057003177000000000001547600000000000859351500000000000000009999123100000010000000000000BRCASHACNOR8106
012024062402CBAV3       010CBA         ON      NM   R$  000000000064300000000006780000000000643000000000066700000000006730000000000671000000000067404751000000000002865000000000001912288100000000000000009999123100000010000000000000BRCBAVACNOR5104
012024062402CCRO3       010CCR SA      ON      NM   R$  000000000121200000000012150000000001194000000000120200000000011950000000001195000000000119607929000000000005787300000000006958156700000000000000009999123100000010000000000000BRCCROACNOR2145
012024062402CXSE3       010CAIXA SEGURION      NM   R$  000000000142300000000014440000000001418000000000142800000000014240000000001423000000000142611873000000000002903700000000004148902400000000000000009999123100000010000000000000BRCXSEACNOR7106
012024062402CYRE3       010CYRELA REALTON      NM   R$  000000000190300000000019690000000001903000000000195000000000019510000000001947000000000195120381000000000006383000000000012448660400000000000000009999123100000010000000000000BRCYREACNOR7140
012024062402FESA4       010FERBASA     PN      N1   R$  000000000078000000000007900000000000775000000000078200000000007860000000000784000000000078601801000000000000558500000000000437295000000000000000009999123100000010000000000000BRFESAACNPR5084
012024062402FHER3       010FER HERINGERON      NM   R$  000000000037700000000003780000000000377000000000037700000000003770000000000377000000000038100004000000000000000600000000000000226300000000000000009999123100000010000000000000BRFHERACNOR5103
012024062402FIQE3       010UNIFIQUE    ON  EDJ NM   R$  000000000033600000000003390000000000333000000000033500000000003340000000000333000000000033401325000000000000383500000000000128500600000000000000009999123100000010000000000000BRFIQEACNOR5107
012024062402FLRY3       010FLEURY      ON      NM   R$  000000000142800000000014450000000001420000000000143500000000014360000000001434000000000143707835000000000001819800000000002612833900000000000000009999123100000010000000000000BRFLRYACNOR5138
012024062402FRAS3       010FRAS-LE     ON      N1   R$  000000000178800000000018010000000001771000000000178400000000017960000000001791000000000179701710000000000000385600000000000688163100000000000000009999123100000010000000000000BRFRASACNOR0159
012024062402FRIO3       010METALFRIO   ON      NM   R$  000000002800000000000280000000000028000000000002800000000000280000000000026100000000002810000001000000000000000100000000000002800000000000000000009999123100000010000000000000BRFRIOACNOR2111
012024062402GEPA4       010GER PARANAP PN           R$  000000000250000000000026600000000002476000000000260000000000025850000000002523000000000263000019000000000000003000000000000007802800000000000000009999123100000010000000000000BRGEPAACNPR9160
012024062402GFSA3       010GAFISA      ON      NM   R$  000000000038100000000003850000000000350000000000036000000000003550000000000355000000000035604254000000000005268400000000001897815400000000000000009999123100000010000000000000BRGFSAACNOR3124
012024062402ITUB3       010ITAUUNIBANCOON  EJ  N1   R$  000000000280200000000028660000000002797000000000283600000000028250000000002825000000000282903216000000000000890300000000002525773600000000000000009999123100000010000000000000BRITUBACNOR4337
012024062402ITUB4       010ITAUUNIBANCOPN  EJ  N1   R$  000000000319900000000032860000000003198000000000325300000000032340000000003233000000000324254316000000000032487800000000105686184600000000000000009999123100000010000000000000BRITUBACNPR1337
012024062402SCAR3       010SAO CARLOS  ON      NM   R$  000000000228000000000022900000000002210000000000222800000000022190000000002219000000000227000034000000000000005100000000000011363100000000000000009999123100000010000000000000BRSCARACNOR7131
012024062402SEER3       010SER EDUCA   ON      NM   R$  000000000050400000000005230000000000504000000000051300000000005150000000000515000000000051600854000000000000283300000000000145576700000000000000009999123100000010000000000000BRSEERACNOR5119
012024062402SEQL3       010SEQUOIA LOG ON      NM   R$  000000000051300000000005150000000000490000000000049700000000004930000000000492000000000049300903000000000000391300000000000194567300000000000000009999123100000010000000000000BRSEQLACNOR2103
012024062402SHOW3       010TIME FOR FUNON      NM   R$  000000000015200000000001540000000000148000000000014900000000001490000000000149000000000015000232000000000000124700000000000018698600000000000000009999123100000010000000000000BRSHOWACNOR7105
012024062402SHUL4       010SCHULZ      PN           R$  000000000059800000000006130000000000595000000000060100000000006010000000000600000000000060401143000000000000516100000000000310308100000000000000009999123100000010000000000000BRSHULACNPR4155
012024062402SIMH3       010SIMPAR      ON      NM   R$  000000000054600000000005630000000000546000000000055800000000005620000000000562000000000056303754000000000002648900000000001478100400000000000000009999123100000010000000000000BRSIMHACNOR0107
012024062402SLCE3       010SLC AGRICOLAON      NM   R$  000000000174700000000017530000000001734000000000174500000000017440000000001744000000000174507243000000000002147600000000003748024400000000000000009999123100000010000000000000BRSLCEACNOR2125
012024062402VALE3       010VALE        ON      NM   R$  000000000604700000000061080000000006040000000000608500000000060900000000006090000000000609129126000000000013669000000000083179509600000000000000009999123100000010000000000000BRVALEACNOR0210
012024062402ZAMP3       010ZAMP S.A.   ON           R$  000000000037300000000003820000000000357000000000037000000000003820000000000376000000000038202660000000000000895200000000000331905000000000000000009999123100000010000000000000BRZAMPACNOR5100
012024062402PGMN3       010PAGUE MENOS ON      NM   R$  000000000023000000000002370000000000227000000000023100000000002370000000000236000000000023700656000000000000302500000000000070140800000000000000009999123100000010000000000000BRPGMNACNOR8103
012024062402PINE4       010PINE        PN      N2   R$  000000000041200000000004210000000000412000000000041700000000004150000000000415000000000041700584000000000000195100000000000081460100000000000000009999123100000010000000000000BRPINEACNPR8149
012024062402PLAS3       010PLASCAR PARTON           R$  000000000052000000000005200000000000511000000000051500000000005110000000000500000000000059700003000000000000000400000000000000206100000000000000009999123100000010000000000000BRPLASACNOR2106
012024062402PLPL3       010PLANOEPLANO ON      NM   R$  000000000095300000000009930000000000952000000000098100000000009810000000000981000000000098901227000000000000315200000000000309423200000000000000009999123100000010000000000000BRPLPLACNOR5104
012024062402PNVL3       010DIMED       ON      NM   R$  000000000096900000000009860000000000967000000000097800000000009830000000000983000000000098400918000000000000132700000000000129897100000000000000009999123100000010000000000000BRPNVLACNOR9206
012024062402POMO3       010MARCOPOLO   ON      N2   R$  000000000048900000000005020000000000481000000000049800000000005000000000000500000000000050200606000000000000140500000000000069976600000000000000009999123100000010000000000000BRPOMOACNOR0098
012024062402POMO4       010MARCOPOLO   PN      N2   R$  000000000062800000000006540000000000621000000000064300000000006510000000000646000000000065211200000000000007057700000000004542593200000000000000009999123100000010000000000000BRPOMOACNPR7098
012024062402PORT3       010WILSON SONS ON      NM   R$  000000000147700000000014860000000001456000000000147400000000014730000000001472000000000148301093000000000000282400000000000416485600000000000000009999123100000010000000000000BRPORTACNOR8108
012024062402POSI3       010POSITIVO TECON      NM   R$  000000000084800000000008750000000000848000000000086100000000008590000000000859000000000086003053000000000000750600000000000646409500000000000000009999123100000010000000000000BRPOSIACNOR9116
012024062402PRIO3       010PETRORIO    ON      NM   R$  000000000414200000000042280000000004125000000000418800000000042080000000004207000000000421117045000000000005056700000000021179829200000000000000009999123100000010000000000000BRPRIOACNOR1106
012024062402SAPR11      010SANEPAR     UNT     N2   R$  000000000268000000000027540000000002669000000000273200000000027450000000002745000000000275002681000000000000639500000000001747391300000000000000009999123100000010000000000000BRSAPRCDAM13117
012024062402TRIS3       010TRISUL      ON      NM   R$  000000000046900000000004820000000000467000000000047600000000004760000000000475000000000047901122000000000000665500000000000316781800000000000000009999123100000010000000000000BRTRISACNOR4118
012024062402TRPL3       010TRAN PAULISTON      N1   R$  000000000338100000000034990000000003379000000000342200000000034010000000003398000000000349800013000000000000001400000000000004792000000000000000009999123100000010000000000000BRTRPLACNOR4185
012024062402TRPL4       010TRAN PAULISTPN      N1   R$  000000000264900000000027270000000002641000000000267600000000026450000000002645000000000265511146000000000002458400000000006579850600000000000000009999123100000010000000000000BRTRPLACNPR1185
012024062402TTEN3       0103TENTOS     ON      NM   R$  000000000100500000000010070000000000991000000000099900000000010030000000001000000000000100305720000000000002560900000000002559507700000000000000009999123100000010000000000000BRTTENACNOR0103
012024062402TUPY3       010TUPY        ON      NM   R$  000000000225500000000023740000000002251000000000233500000000023460000000002346000000000234704120000000000001059700000000002475091200000000000000009999123100000010000000000000BRTUPYACNOR1184
012024062402UCAS3       010UNICASA     ON      NM   R$  000000000021400000000002180000000000213000000000021400000000002160000000000214000000000021600091000000000000026400000000000005670200000000000000009999123100000010000000000000BRUCASACNOR1113
012024062402UGPA3       010ULTRAPAR    ON      NM   R$  000000000218000000000022100000000002151000000000219700000000022070000000002205000000000220709843000000000005043800000000011086052200000000000000009999123100000010000000000000BRUGPAACNOR8155
012024062402VITT3       010VITTIA      ON      NM   R$  000000000056900000000005880000000000569000000000057900000000005880000000000582000000000058802161000000000000397500000000000230302700000000000000009999123100000010000000000000BRVITTACNOR4107
012024062402VIVA3       010VIVARA S.A. ON      NM   R$  000000000204300000000021280000000002043000000000209400000000021250000000002121000000000212513389000000000005369800000000011247453900000000000000009999123100000010000000000000BRVIVAACNOR0107
012024062402VIVR3       010VIVER       ON  ES  NM   R$  000000000023000000000002380000000000225000000000023200000000002330000000000229000000000023300247000000000000054000000000000012548300000000000000009999123100000010000000000000BRVIVRACNOR4123
012024062402VIVT3       010TELEF BRASILON           R$  000000000446500000000045360000000004430000000000451100000000045210000000004511000000000452107447000000000001727300000000007792805200000000000000009999123100000010000000000000BRVIVTACNOR0181
012024062402VLID3       010VALID       ON      NM   R$  000000000152800000000015750000000001527000000000154500000000015460000000001531000000000154601884000000000000248100000000000383455700000000000000009999123100000010000000000000BRVLIDACNOR5143
012024062402VSTE3       010VESTE       ON      NM   R$  000000000169600000000017090000000001650000000000169700000000017090000000001668000000000170900085000000000000025100000000000042615200000000000000009999123100000010000000000000BRVSTEACNOR5103
012024062402VTRU3       010VITRUEDUCA  ON      NM   R$  000000000138400000000014440000000001363000000000140500000000014000000000001400000000000140500311000000000000095800000000000134610400000000000000009999123100000010000000000000BRVTRUACNOR3100
012024062402VULC3       010VULCABRAS   ON      NM   R$  000000000144800000000014870000000001445000000000147400000000014780000000001478000000000147902361000000000000576200000000000849535600000000000000009999123100000010000000000000BRVULCACNOR2159
012024062402VVEO3       010VIVEO       ON      NM   R$  000000000020400000000002170000000000204000000000021100000000002070000000000207000000000021002031000000000001158900000000000245286100000000000000009999123100000010000000000000BRVVEOACNOR0104
012024062402ROMI3       010ROMI        ON  EJ  NM   R$  000000000102200000000010450000000001022000000000104000000000010420000000001042000000000104400867000000000000255200000000000265533900000000000000009999123100000010000000000000BRROMIACNOR8195
012024062402RPAD5       010ALFA HOLDINGPNA          R$  000000000087000000000008750000000000870000000000087200000000008750000000000841000000000089800002000000000000000200000000000000174500000000000000009999123100000010000000000000BRRPADACNPA4218
012024062402RRRP3       0103R PETROLEUMON      NM   R$  000000000256000000000026090000000002542000000000258800000000025920000000002591000000000259409092000000000002202200000000005701019300000000000000009999123100000010000000000000BRRRRPACNOR5103
012024062402TASA3       010TAURUS ARMASON      N2   R$  000000000115300000000011690000000001130000000000114500000000011310000000001131000000000115100040000000000000010400000000000011911900000000000000009999123100000010000000000000BRTASAACNOR7104
012024062402TASA4       010TAURUS ARMASPN      N2   R$  000000000109400000000011280000000001094000000000111500000000011130000000001112000000000111400959000000000000247600000000000276239800000000000000009999123100000010000000000000BRTASAACNPR4104
012024062402TCSA3       010TECNISA     ON      NM   R$  000000000020000000000002000000000000197000000000019900000000002000000000000198000000000020000100000000000000037200000000000007406100000000000000009999123100000010000000000000BRTCSAACNOR3112
012024062402TOTS3       010TOTVS       ON      NM   R$  000000000299100000000030200000000002952000000000299400000000030200000000003006000000000302009250000000000002473200000000007407145600000000000000009999123100000010000000000000BRTOTSACNOR8144
012024062402KLBN3       010KLABIN S/A  ON      N2   R$  000000000041800000000004180000000000410000000000041200000000004120000000000412000000000041400840000000000000332700000000000137376900000000000000009999123100000010000000000000BRKLBNACNOR2170
012024062402KLBN4       010KLABIN S/A  PN      N2   R$  000000000041500000000004170000000000408000000000041000000000004090000000000409000000000041001963000000000001037000000000000425722700000000000000009999123100000010000000000000BRKLBNACNPR9170
012024062402LAVV3       010LAVVI       ON      NM   R$  000000000080400000000008440000000000800000000000082800000000008440000000000838000000000084401700000000000000768900000000000637272800000000000000009999123100000010000000000000BRLAVVACNOR4112
012024062402LEVE3       010METAL LEVE  ON      NM   R$  000000000310800000000032790000000003101000000000323400000000032700000000003267000000000327003843000000000000573500000000001854797200000000000000009999123100000010000000000000BRLEVEACNOR2197
012024062402LJQQ3       010QUERO-QUERO ON      NM   R$  000000000038300000000003930000000000379000000000038600000000003890000000000386000000000038904777000000000002656900000000001026316000000000000000009999123100000010000000000000BRLJQQACNOR5104
012024062402PCAR3       010P.ACUCAR-CBDON      NM   R$  000000000029300000000003020000000000292000000000029600000000002940000000000294000000000029506764000000000010801000000000003198498200000000000000009999123100000010000000000000BRPCARACNOR3167
012024062402PDGR3       010PDG REALT   ON      NM   R$  000000000001800000000000190000000000017000000000001800000000000180000000000018000000000001900234000000000001122300000000000020367200000000000000009999123100000010000000000000BRPDGRACNOR8118
012024062402PDTC3       010PADTEC      ON      NM   R$  000000000018200000000001890000000000181000000000018400000000001850000000000183000000000018500065000000000000038700000000000007128200000000000000009999123100000010000000000000BRPDTCACNOR3101
012024062402PETR3       010PETROBRAS   ON      N2   R$  000000000386000000000039040000000003821000000000387600000000039040000000003890000000000390613566000000000008306400000000032196101600000000000000009999123100000010000000000000BRPETRACNOR9205
012024062402PETR4       010PETROBRAS   PN      N2   R$  000000000368400000000037060000000003648000000000368200000000037060000000003703000000000370634917000000000024599400000000090584646700000000000000009999123100000010000000000000BRPETRACNPR6213
012024062402KRSA3       010KORA SAUDE  ON      NM   R$  000000000005400000000000540000000000052000000000005200000000000520000000000052000000000005300170000000000000921900000000000048648500000000000000009999123100000010000000000000BRKRSAACNOR0100
012024062402LAND3       010TERRASANTAPAON      NM   R$  000000000157200000000015770000000001512000000000156000000000015120000000001510000000000152800147000000000000201600000000000314617900000000000000009999123100000010000000000000BRLANDACNOR9103
012024062402AERI3       010AERIS       ON      NM   R$  000000000053200000000005790000000000532000000000055700000000005590000000000555000000000055900925000000000000329200000000000183643900000000000000009999123100000010000000000000BRAERIACNOR4102
012024062402AESB3       010AES BRASIL  ON      NM   R$  000000000113800000000011440000000001138000000000114100000000011440000000001140000000000114403097000000000006645700000000007585525500000000000000009999123100000010000000000000BRAESBACNOR7106
012024062402AFLT3       010AFLUENTE T  ON           R$  000000000074000000000007490000000000740000000000074600000000007490000000000730000000000074900002000000000000000300000000000000223800000000000000009999123100000010000000000000BRAFLTACNOR1121
012024062402AGRO3       010BRASILAGRO  ON      NM   R$  000000000254700000000025930000000002527000000000256400000000025780000000002578000000000258301451000000000000243200000000000623570500000000000000009999123100000010000000000000BRAGROACNOR7114
012024062402AGXY3       010AGROGALAXY  ON      NM   R$  000000000008900000000000940000000000087000000000009000000000000900000000000089000000000009000183000000000000249600000000000022606400000000000000009999123100000010000000000000BRAGXYACNOR4103
012024062402ALLD3       010ALLIED      ON      NM   R$  000000000072500000000007520000000000725000000000074200000000007450000000000739000000000074501260000000000000258900000000000192277700000000000000009999123100000010000000000000BRALLDACNOR3106
012024062402ODPV3       010ODONTOPREV  ON      NM   R$  000000000115500000000011680000000001146000000000115500000000011550000000001155000000000116502617000000000000725300000000000838089900000000000000009999123100000010000000000000BRODPVACNOR4201
012024062402HAGA3       010HAGA S/A    ON           R$  000000000027000000000002750000000000265000000000027300000000002670000000000267000000000027100043000000000000030600000000000008360900000000000000009999123100000010000000000000BRHAGAACNOR7103
012024062402HAGA4       010HAGA S/A    PN           R$  000000000011900000000001210000000000118000000000011800000000001210000000000118000000000012100008000000000000003700000000000000439100000000000000009999123100000010000000000000BRHAGAACNPR4103
012024062402HAPV3       010HAPVIDA     ON      NM   R$  000000000037000000000003900000000000369000000000038300000000003890000000000388000000000038934988000000000067090600000000025731676500000000000000009999123100000010000000000000BRHAPVACNOR4114
012024062402HBOR3       010HELBOR      ON      NM   R$  000000000020800000000002120000000000205000000000020900000000002120000000000211000000000021200432000000000000366000000000000076823400000000000000009999123100000010000000000000BRHBORACNOR3118
012024062402HBRE3       010HBR REALTY  ON      NM   R$  000000000051100000000005280000000000502000000000051300000000005240000000000522000000000052401325000000000000431500000000000221658900000000000000009999123100000010000000000000BRHBREACNOR4100
012024062402HBSA3       010HIDROVIAS   ON      NM   R$  000000000037600000000003760000000000346000000000035400000000003500000000000350000000000035304306000000000003205400000000001136582100000000000000009999123100000010000000000000BRHBSAACNOR0100
012024062402HETA4       010HERCULES    PN           R$  000000000053500000000005350000000000535000000000053500000000005350000000000530000000000056600001000000000000000100000000000000053500000000000000009999123100000010000000000000BRHETAACNPR9136
012024062402INEP3       010INEPAR      ON           R$  000000000019900000000002010000000000188000000000019100000000001900000000000190000000000019200081000000000000029000000000000005567700000000000000009999123100000010000000000000BRINEPACNOR1143
012024062402INEP4       010INEPAR      PN           R$  000000000017900000000001800000000000173000000000017400000000001730000000000173000000000017500043000000000000022400000000000003917500000000000000009999123100000010000000000000BRINEPACNPR8143
012024062402INTB3       010INTELBRAS   ON      NM   R$  000000000227700000000023610000000002272000000000232300000000023170000000002315000000000231705731000000000001457800000000003387013200000000000000009999123100000010000000000000BRINTBACNOR9111
012024062402IRBR3       010IRBBRASIL REON      NM   R$  000000000317900000000032290000000003168000000000319300000000031970000000003191000000000319702730000000000000626000000000001999386600000000000000009999123100000010000000000000BRIRBRACNOR4111
012024062402ALOS3       010ALLOS       ON      NM   R$  000000000208000000000021340000000002080000000000211800000000021300000000002128000000000213008819000000000003344100000000007085914000000000000000009999123100000010000000000000BRALOSACNOR5101
012024062402CPFE3       010CPFL ENERGIAON      NM   R$  000000000326800000000032900000000003248000000000327100000000032690000000003269000000000327206850000000000002559100000000008370930400000000000000009999123100000010000000000000BRCPFEACNOR0137
012024062402ELET3       010ELETROBRAS  ON      N1   R$  000000000348600000000035470000000003464000000000350900000000034990000000003498000000000350019270000000000006263900000000021985832500000000000000009999123100000010000000000000BRELETACNOR6160
012024062402ELET5       010ELETROBRAS  PNA     N1   R$  000000000965700000000096570000000009657000000000965700000000096570000000006600000000000000000001000000000000000100000000000000965700000000000000009999123100000010000000000000BRELETACNPA9077
012024062402ELET6       010ELETROBRAS  PNB     N1   R$  000000000389500000000039810000000003891000000000394300000000039260000000003924000000000393003776000000000001189300000000004689962700000000000000009999123100000010000000000000BRELETACNPB7077
012024062402WEGE3       010WEG         ON      NM   R$  000000000408000000000041290000000004063000000000409800000000040870000000004085000000000408725701000000000008649700000000035447030400000000000000009999123100000010000000000000BRWEGEACNOR0222
012024062402HYPE3       010HYPERA      ON  EJ  NM   R$  000000000289700000000029420000000002882000000000292300000000029240000000002924000000000292807398000000000001611100000000004710350900000000000000009999123100000010000000000000BRHYPEACNOR0142
012024062402CURY3       010CURY S/A    ON      NM   R$  000000000190600000000019840000000001906000000000196500000000019700000000001970000000000197107756000000000001709700000000003359645600000000000000009999123100000010000000000000BRCURYACNOR3109
012024062402CVCB3       010CVC BRASIL  ON      NM   R$  000000000019100000000001970000000000190000000000019400000000001970000000000196000000000019704584000000000008262700000000001610420200000000000000009999123100000010000000000000BRCVCBACNOR1115
012024062402ESPA3       010ESPACOLASER ON      NM   R$  000000000010000000000001040000000000100000000000010200000000001030000000000102000000000010300197000000000000133600000000000013719900000000000000009999123100000010000000000000BRESPAACNOR7103
012024062402ESTR4       010ESTRELA     PN           R$  000000000018400000000001840000000000184000000000018400000000001840000000000184000000000019000002000000000000000800000000000000147200000000000000009999123100000010000000000000BRESTRACNPR0144
012024062402B3SA3       010B3          ON  EDJ NM   R$  000000000104700000000010670000000001038000000000105500000000010510000000001051000000000105226193000000000025130500000000026516615300000000000000009999123100000010000000000000BRB3SAACNOR6133
012024062402RECV3       010PETRORECSA  ON      NM   R$  000000000182900000000018810000000001827000000000186400000000018590000000001858000000000186204218000000000001082300000000002017853900000000000000009999123100000010000000000000BRRECVACNOR3107
012024062402REDE3       010REDE ENERGIAON           R$  000000000066700000000006680000000000661000000000066500000000006620000000000661000000000066700006000000000000000600000000000000399200000000000000009999123100000010000000000000BRREDEACNOR7127
012024062402RENT3       010LOCALIZA    ON      NM   R$  000000000419800000000042800000000004162000000000423300000000042180000000004217000000000421929052000000000008671900000000036710776400000000000000009999123100000010000000000000BRRENTACNOR4195
012024062402SYNE3       010SYN PROP TECON      NM   R$  000000000089300000000009080000000000891000000000089900000000009000000000000900000000000090500635000000000000316000000000000284307000000000000000009999123100000010000000000000BRSYNEACNOR2102
012024062402TECN3       010TECHNOS     ON      NM   R$  000000000047700000000004770000000000443000000000045300000000004450000000000445000000000044800534000000000000216900000000000098359300000000000000009999123100000010000000000000BRTECNACNOR6109
012024062402TELB3       010TELEBRAS    ON           R$  000000000128000000000013000000000001280000000000128600000000012800000000001265000000000132000003000000000000000300000000000000386000000000000000009999123100000010000000000000BRTELBACNOR2140
012024062402TELB4       010TELEBRAS    PN           R$  000000000087800000000009120000000000878000000000089800000000008900000000000890000000000089300031000000000000007300000000000006557100000000000000009999123100000010000000000000BRTELBACNPR9140
012024062402TEND3       010TENDA       ON      NM   R$  000000000105300000000010950000000001053000000000107900000000010910000000001090000000000109205027000000000001763300000000001903902800000000000000009999123100000010000000000000BRTENDACNOR4111
012024062402TFCO4       010TRACK FIELD PN      N2   R$  000000000104000000000010430000000001011000000000102400000000010260000000001018000000000102701096000000000000236000000000000241858300000000000000009999123100000010000000000000BRTFCOACNPR8113
012024062402TGMA3       010TEGMA       ON      NM   R$  000000000241100000000024180000000002381000000000239800000000024090000000002408000000000242303538000000000000596400000000001430387100000000000000009999123100000010000000000000BRTGMAACNOR7144
012024062402TIMS3       010TIM         ON  EJ  NM   R$  000000000158200000000015910000000001565000000000157700000000015800000000001574000000000158022061000000000009053000000000014283333300000000000000009999123100000010000000000000BRTIMSACNOR5117
012024062402TKNO4       010TEKNO       PN           R$  000000000670000000000067000000000006700000000000670000000000067000000000006500000000000750000001000000000000000100000000000000670000000000000000009999123100000010000000000000BRTKNOACNPR5075
012024062402TAEE11      010TAESA       UNT     N2   R$  000000000336800000000033940000000003357000000000338300000000033840000000003384000000000338905682000000000001250600000000004231003600000000000000009999123100000010000000000000BRTAEECDAM10147
012024062402TAEE3       010TAESA       ON      N2   R$  000000000111900000000011280000000001115000000000112100000000011240000000001124000000000112500452000000000000076400000000000085670300000000000000009999123100000010000000000000BRTAEEACNOR9147
012024062402TAEE4       010TAESA       PN      N2   R$  000000000113000000000011350000000001122000000000113100000000011330000000001133000000000113400692000000000000182700000000000206749200000000000000009999123100000010000000000000BRTAEEACNPR6147
012024062402VAMO3       010VAMOS       ON      NM   R$  000000000075100000000007830000000000746000000000077100000000007830000000000781000000000078311129000000000007103000000000005477995400000000000000009999123100000010000000000000BRVAMOACNOR7105
012024062402VBBR3       010VIBRA       ON      NM   R$  000000000210200000000021270000000002084000000000210900000000021040000000002100000000000210411553000000000003971600000000008379363300000000000000009999123100000010000000000000BRVBBRACNOR1107
012024062402RANI3       010IRANI       ON      NM   R$  000000000084000000000008460000000000831000000000083500000000008340000000000834000000000083503544000000000000754400000000000630144900000000000000009999123100000010000000000000BRRANIACNOR5072
012024062402RAPT3       010RANDON PART ON      N1   R$  000000000085500000000009000000000000849000000000086900000000009000000000000879000000000090000115000000000000044000000000000038248600000000000000009999123100000010000000000000BRRAPTACNOR7162
012024062402RAPT4       010RANDON PART PN      N1   R$  000000000101600000000010600000000001016000000000104900000000010600000000001055000000000106107139000000000002124300000000002228640700000000000000009999123100000010000000000000BRRAPTACNPR4162
012024062402RCSL3       010RECRUSUL    ON           R$  000000000028600000000002950000000000283000000000028900000000002890000000000289000000000029100790000000000000412500000000000119489200000000000000009999123100000010000000000000BRRCSLACNOR4134
012024062402RCSL4       010RECRUSUL    PN           R$  000000000010100000000001080000000000099000000000010300000000001050000000000104000000000010501421000000000001127800000000000116750600000000000000009999123100000010000000000000BRRCSLACNPR1134
012024062402RDNI3       010RNI         ON      NM   R$  000000000030700000000003130000000000306000000000030700000000003080000000000308000000000030900017000000000000005100000000000001570200000000000000009999123100000010000000000000BRRDNIACNOR9116
012024062402RDOR3       010REDE D OR   ON      NM   R$  000000000266100000000026930000000002640000000000266200000000026610000000002660000000000266215135000000000003570000000000009505441500000000000000009999123100000010000000000000BRRDORACNOR8112
012024062402BPAC11      010BTGP BANCO  UNT     N2   R$  000000000323600000000033150000000003230000000000329400000000032880000000003288000000000329022065000000000008266000000000027233274700000000000000009999123100000010000000000000BRBPACUNT006118
012024062402BPAC3       010BTGP BANCO  ON      N2   R$  000000000155600000000016600000000001556000000000163000000000016510000000001547000000000166100026000000000000002700000000000004402000000000000000009999123100000010000000000000BRBPACACNOR7133
012024062402BPAC5       010BTGP BANCO  PNA     N2   R$  000000000080200000000008290000000000802000000000081400000000008210000000000820000000000082400028000000000000004700000000000003826900000000000000009999123100000010000000000000BRBPACACNPA0133
012024062402CPLE3       010COPEL       ON      N2   R$  000000000082000000000008350000000000817000000000082500000000008260000000000826000000000082810765000000000005007200000000004134189500000000000000009999123100000010000000000000BRCPLEACNOR8149
012024062402CPLE6       010COPEL       PNB     N2   R$  000000000092000000000009390000000000918000000000092700000000009260000000000925000000000092715267000000000014112400000000013091374700000000000000009999123100000010000000000000BRCPLEACNPB9146
012024062402ITSA3       010ITAUSA      ON  EJ  N1   R$  000000000097500000000009930000000000971000000000098800000000009860000000000986000000000099000345000000000000127000000000000125533600000000000000009999123100000010000000000000BRITSAACNOR0441
012024062402ITSA4       010ITAUSA      PN  EJ  N1   R$  000000000097000000000009930000000000968000000000098600000000009880000000000987000000000098920550000000000045941000000000045313252200000000000000009999123100000010000000000000BRITSAACNPR7441
012024062402ASAI3       010ASSAI       ON      NM   R$  000000000108700000000011150000000001072000000000110200000000011070000000001107000000000110811250000000000012559000000000013842976800000000000000009999123100000010000000000000BRASAIACNOR0106
012024062402ATOM3       010ATOMPAR     ON           R$  000000000019700000000002050000000000197000000000020300000000002050000000000199000000000020500031000000000000019600000000000003995100000000000000009999123100000010000000000000BRATOMACNOR1106
012024062402AURE3       010AUREN       ON      NM   R$  000000000122700000000012420000000001221000000000123400000000012340000000001233000000000123504506000000000002343600000000002894246100000000000000009999123100000010000000000000BRAUREACNOR9104
012024062402AVLL3       010ALPHAVILLE  ON      NM   R$  000000000034800000000003480000000000320000000000033500000000003450000000000345000000000034800041000000000000024700000000000008289200000000000000009999123100000010000000000000BRAVLLACNOR5103
012024062402MDIA3       010M.DIASBRANCOON  EJ  NM   R$  000000000310100000000031600000000003081000000000312400000000031300000000003130000000000313201982000000000000429900000000001343419600000000000000009999123100000010000000000000BRMDIAACNOR7135
012024062402MDNE3       010MOURA DUBEUXON      NM   R$  000000000107100000000010900000000001064000000000108100000000010860000000001086000000000108701537000000000000300800000000000325267900000000000000009999123100000010000000000000BRMDNEACNOR9100
012024062402MEAL3       010IMC S/A     ON      NM   R$  000000000012200000000001270000000000122000000000012400000000001240000000000124000000000012500565000000000000404200000000000050237300000000000000009999123100000010000000000000BRMEALACNOR9105
012024062402MELK3       010MELNICK     ON      NM   R$  000000000035900000000003740000000000350000000000035700000000003500000000000349000000000035101488000000000001324000000000000473884800000000000000009999123100000010000000000000BRMELKACNOR8111
012024062402MGEL4       010MANGELS INDLPN           R$  000000000138000000000013800000000001380000000000138000000000013800000000001291000000000138000002000000000000000500000000000000690000000000000000009999123100000010000000000000BRMGELACNPR3147
012024062402MGLU3       010MAGAZ LUIZA ON      NM   R$  000000000116100000000012390000000001154000000000120000000000012160000000001216000000000121738774000000000044665500000000053618200100000000000000009999123100000010000000000000BRMGLUACNOR2124
012024062402AZEV3       010AZEVEDO     ON           R$  000000000015300000000001630000000000149000000000015700000000001600000000000160000000000016101192000000000001433200000000000225887700000000000000009999123100000010000000000000BRAZEVACNOR0121
012024062402AZEV4       010AZEVEDO     PN           R$  000000000014500000000001590000000000143000000000015100000000001580000000000158000000000015903421000000000010273300000000001560041200000000000000009999123100000010000000000000BRAZEVACNPR7121
012024062402AZUL4       010AZUL        PN      N2   R$  000000000077100000000008040000000000771000000000079100000000007950000000000795000000000079614225000000000011388700000000009012658100000000000000009999123100000010000000000000BRAZULACNPR4102
012024062402BBSE3       010BBSEGURIDADEON      NM   R$  000000000330600000000033800000000003306000000000336200000000033630000000003362000000000336315883000000000004615700000000015520552000000000000000009999123100000010000000000000BRBBSEACNOR5124
012024062402ALPA3       010ALPARGATAS  ON      N1   R$  000000000092000000000009210000000000920000000000092000000000009210000000000911000000000092100011000000000000005900000000000005433600000000000000009999123100000010000000000000BRALPAACNOR0231
012024062402ALPA4       010ALPARGATAS  PN      N1   R$  000000000088500000000009240000000000885000000000091300000000009190000000000917000000000091906846000000000002216100000000002025054100000000000000009999123100000010000000000000BRALPAACNPR7232
012024062402ALPK3       010ESTAPAR     ON      NM   R$  000000000033300000000003360000000000308000000000031900000000003190000000000319000000000032100522000000000000123500000000000039460400000000000000009999123100000010000000000000BRALPKACNOR9101
012024062402ALUP11      010ALUPAR      UNT     N2   R$  000000000300100000000030630000000002994000000000303800000000030420000000003039000000000306002951000000000000819900000000002491016300000000000000009999123100000010000000000000BRALUPCDAM15119
012024062402ALUP3       010ALUPAR      ON      N2   R$  000000000100500000000010250000000001004000000000101900000000010090000000001008000000000102400099000000000000013200000000000013456100000000000000009999123100000010000000000000BRALUPACNOR8119
012024062402ALUP4       010ALUPAR      PN      N2   R$  000000000099300000000010190000000000991000000000100700000000010180000000001004000000000101900162000000000000025900000000000026106300000000000000009999123100000010000000000000BRALUPACNPR5119
012024062402AMAR3       010LOJAS MARISAON  ES  NM   R$  000000000014500000000001470000000000142000000000014400000000001430000000000143000000000014400548000000000000286400000000000041354700000000000000009999123100000010000000000000BRAMARACNOR4115
012024062402AMBP3       010AMBIPAR     ON      NM   R$  000000000095700000000010180000000000950000000000098900000000010180000000001014000000000101804630000000000002013500000000001991884500000000000000009999123100000010000000000000BRAMBPACNOR6103
012024062402ANIM3       010ANIMA       ON      NM   R$  000000000030900000000003190000000000309000000000031400000000003180000000000316000000000031911150000000000006806400000000002139503600000000000000009999123100000010000000000000BRANIMACNOR6107
012024062402APER3       010ALPER S.A.  ON           R$  000000000435000000000045990000000004350000000000455200000000045620000000004562000000000459900028000000000000005000000000000022760500000000000000009999123100000010000000000000BRAPERACNOR9106
012024062402ARML3       010ARMAC       ON      NM   R$  000000000099700000000010080000000000985000000000099600000000009960000000000996000000000099702058000000000000405400000000000403832400000000000000009999123100000010000000000000BRARMLACNOR1111
012024062402ARZZ3       010AREZZO CO   ON      NM   R$  000000000492300000000050640000000004921000000000501900000000050200000000005020000000000502108970000000000001597200000000008016619200000000000000009999123100000010000000000000BRARZZACNOR3146
012024062402JHSF3       010JHSF PART   ON      NM   R$  000000000038600000000003970000000000385000000000039200000000003970000000000395000000000039702406000000000002308000000000000905195900000000000000009999123100000010000000000000BRJHSFACNOR2136
012024062402JSLG3       010JSL         ON      NM   R$  000000000093700000000009490000000000925000000000093400000000009430000000000934000000000094301664000000000000531100000000000496424700000000000000009999123100000010000000000000BRJSLGACNOR2121
012024062402KEPL3       010KEPLER WEBERON      NM   R$  000000000090400000000009290000000000902000000000092200000000009280000000000927000000000092803141000000000000840400000000000775627800000000000000009999123100000010000000000000BRKEPLACNOR1062
012024062402KLBN11      010KLABIN S/A  UNT     N2   R$  000000000207000000000020710000000002041000000000205300000000020560000000002050000000000205609424000000000004370000000000008973471600000000000000009999123100000010000000000000BRKLBNCDAM18142
012024062402MTRE3       010MITRE REALTYON  ED  NM   R$  000000000033700000000003500000000000337000000000034400000000003500000000000345000000000035002106000000000001014900000000000349865100000000000000009999123100000010000000000000BRMTREACNOR6112
012024062402MTSA4       010METISA      PN           R$  000000000413300000000041470000000004073000000000409200000000040750000000004075000000000409000020000000000000002400000000000009822700000000000000009999123100000010000000000000BRMTSAACNPR9072
012024062402MULT3       010MULTIPLAN   ON      N2   R$  000000000223500000000023220000000002231000000000229200000000023050000000002300000000000231016177000000000004248500000000009741532700000000000000009999123100000010000000000000BRMULTACNOR5138
012024062402MWET4       010WETZEL S/A  PN           R$  000000000084700000000009960000000000816000000000086200000000008160000000000815000000000087900012000000000000003000000000000002588700000000000000009999123100000010000000000000BRMWETACNPR3118
012024062402MYPK3       010IOCHP-MAXIONON      NM   R$  000000000115400000000012180000000001151000000000119400000000012020000000001197000000000120305797000000000002292200000000002737108900000000000000009999123100000010000000000000BRMYPKACNOR7154
012024062402NEOE3       010NEOENERGIA  ON      NM   R$  000000000181600000000018620000000001816000000000184700000000018410000000001841000000000184402892000000000000743900000000001374483300000000000000009999123100000010000000000000BRNEOEACNOR3122
012024062402PETZ3       010PETZ        ON      NM   R$  000000000034400000000003520000000000343000000000034700000000003470000000000347000000000034803852000000000005179800000000001801026400000000000000009999123100000010000000000000BRPETZACNOR2110
012024062402CEAB3       010CEA MODAS   ON      NM   R$  000000000097600000000010140000000000976000000000099800000000010100000000001005000000000101005403000000000002223300000000002220771100000000000000009999123100000010000000000000BRCEABACNOR1102
012024062402CEBR3       010CEB         ON           R$  000000000204600000000020550000000002046000000000205100000000020530000000002053000000000208000012000000000000002000000000000004103000000000000000009999123100000010000000000000BRCEBRACNOR5125
012024062402SANB11      010SANTANDER BRUNT          R$  000000000276000000000028240000000002740000000000279800000000028000000000002790000000000280111561000000000003893200000000010896975100000000000000009999123100000010000000000000BRSANBCDAM13164
012024062402SANB3       010SANTANDER BRON           R$  000000000130800000000013380000000001301000000000132600000000013300000000001328000000000133000521000000000000080400000000000106618300000000000000009999123100000010000000000000BRSANBACNOR8171
012024062402SANB4       010SANTANDER BRPN           R$  000000000144000000000014800000000001440000000000146700000000014690000000001465000000000147000659000000000000106400000000000156118800000000000000009999123100000010000000000000BRSANBACNPR5171
012024062402TPIS3       010TRIUNFO PARTON      NM   R$  000000000036800000000003720000000000365000000000037000000000003720000000000372000000000037300058000000000000010700000000000003964500000000000000009999123100000010000000000000BRTPISACNOR8118
012024062402TRAD3       010TC          ON      NM   R$  000000000006000000000000650000000000059000000000006000000000000620000000000061000000000006200332000000000000568700000000000034263300000000000000009999123100000010000000000000BRTRADACNOR3101
012024062402CEBR5       010CEB         PNA          R$  000000000184300000000018500000000001822000000000184000000000018220000000001822000000000183900045000000000000011700000000000021530300000000000000009999123100000010000000000000BRCEBRACNPA8124
012024062402CEBR6       010CEB         PNB          R$  000000000201600000000020240000000001953000000000201400000000020060000000001980000000000200000037000000000000009200000000000018531600000000000000009999123100000010000000000000BRCEBRACNPB6124
012024062402CEEB3       010COELBA      ON           R$  000000000395000000000039880000000003950000000000397500000000039880000000003885000000000399900003000000000000000300000000000001192500000000000000009999123100000010000000000000BRCEEBACNOR3198
012024062402CGRA3       010GRAZZIOTIN  ON           R$  000000000260000000000027420000000002600000000000268500000000027100000000002687000000000270900039000000000000006300000000000016916200000000000000009999123100000010000000000000BRCGRAACNOR2082
012024062402CGRA4       010GRAZZIOTIN  PN           R$  000000000268500000000027330000000002685000000000271600000000027330000000002715000000000273300074000000000000023000000000000062488300000000000000009999123100000010000000000000BRCGRAACNPR9082
012024062402CIEL3       010CIELO       ON      NM   R$  000000000056300000000005650000000000562000000000056200000000005620000000000562000000000056307166000000000024591000000000013831552800000000000000009999123100000010000000000000BRCIELACNOR3157
012024062402CLSA3       010CLEARSALE   ON      NM   R$  000000000074000000000007430000000000713000000000072500000000007300000000000722000000000073003426000000000000960100000000000696695900000000000000009999123100000010000000000000BRCLSAACNOR0100
012024062402CLSC3       010CELESC      ON      N2   R$  000000000687900000000068790000000006879000000000687900000000068790000000006600000000000688000001000000000000000100000000000000687900000000000000009999123100000010000000000000BRCLSCACNOR6151
012024062402CLSC4       010CELESC      PN      N2   R$  000000000678400000000071910000000006726000000000690600000000071910000000007045000000000725700040000000000000004200000000000029008700000000000000009999123100000010000000000000BRCLSCACNPR3130
012024062402BEEF3       010MINERVA     ON      NM   R$  000000000064000000000006520000000000635000000000064200000000006430000000000643000000000064406597000000000006155500000000003953903900000000000000009999123100000010000000000000BRBEEFACNOR6116
012024062402BEES3       010BANESTES    ON           R$  000000000087500000000008850000000000875000000000087900000000008810000000000878000000000088100073000000000000018700000000000016453400000000000000009999123100000010000000000000BRBEESACNOR9391
012024062402BEES4       010BANESTES    PN           R$  000000000095800000000009590000000000938000000000094900000000009500000000000938000000000095800017000000000000001800000000000001708400000000000000009999123100000010000000000000BRBEESACNPR6316
012024062402BRBI11      010BR PARTNERS UNT     N2   R$  000000000138700000000014500000000001372000000000142100000000014390000000001439000000000144300750000000000000134100000000000190602100000000000000009999123100000010000000000000BRBRBICDAM10109
012024062402BRFS3       010BRF SA      ON      NM   R$  000000000206100000000021040000000002052000000000207300000000020730000000002072000000000207519653000000000008916800000000018491717400000000000000009999123100000010000000000000BRBRFSACNOR8122
012024062402CSRN3       010COSERN      ON           R$  000000000217300000000021750000000002173000000000217400000000021740000000002120000000000228000005000000000000001300000000000002826700000000000000009999123100000010000000000000BRCSRNACNOR0192
012024062402CSUD3       010CSU DIGITAL ON      NM   R$  000000000181500000000018640000000001796000000000184400000000018380000000001825000000000184200211000000000000041000000000000075643700000000000000009999123100000010000000000000BRCSUDACNOR5109
012024062402CMIG3       010CEMIG       ON  EJ  N1   R$  000000000127600000000012780000000001258000000000126700000000012690000000001268000000000127400750000000000000138500000000000175582500000000000000009999123100000010000000000000BRCMIGACNOR6242
012024062402CMIG4       010CEMIG       PN  EJ  N1   R$  000000000104100000000010570000000001038000000000104900000000010520000000001052000000000105420733000000000011635400000000012210233800000000000000009999123100000010000000000000BRCMIGACNPR3243
012024062402EALT3       010ACO ALTONA  ON           R$  000000000111800000000011180000000001118000000000111800000000011180000000001072000000000113400001000000000000000100000000000000111800000000000000009999123100000010000000000000BREALTACNOR4138
012024062402EALT4       010ACO ALTONA  PN           R$  000000000114600000000011480000000001119000000000112700000000011190000000001116000000000111900025000000000000003400000000000003835100000000000000009999123100000010000000000000BREALTACNPR1138
012024062402ECOR3       010ECORODOVIAS ON      NM   R$  000000000063100000000006820000000000631000000000066900000000006790000000000677000000000067911102000000000005208000000000003484703000000000000000009999123100000010000000000000BRECORACNOR8120
012024062402EGIE3       010ENGIE BRASILON      NM   R$  000000000441200000000044690000000004393000000000444700000000044470000000004445000000000444705287000000000001170100000000005204506900000000000000009999123100000010000000000000BREGIEACNOR9126
012024062402GGPS3       010GPS         ON      NM   R$  000000000173300000000017700000000001731000000000174400000000017310000000001731000000000173504867000000000001308000000000002282284900000000000000009999123100000010000000000000BRGGPSACNOR9103
012024062402GMAT3       010GRUPO MATEUSON  EJ  NM   R$  000000000071400000000007220000000000700000000000070900000000007100000000000710000000000071109722000000000003442800000000002444022000000000000000009999123100000010000000000000BRGMATACNOR7102
012024062402GOAU3       010GERDAU MET  ON      N1   R$  000000000104300000000010520000000001035000000000104100000000010400000000001040000000000104800580000000000000128100000000000133457600000000000000009999123100000010000000000000BRGOAUACNOR1267
012024062402GOAU4       010GERDAU MET  PN      N1   R$  000000000103200000000010430000000001027000000000103700000000010400000000001040000000000104207495000000000003290900000000003415518600000000000000009999123100000010000000000000BRGOAUACNPR8268
012024062402GRND3       010GRENDENE    ON      NM   R$  000000000059300000000006000000000000591000000000059400000000005970000000000596000000000059705688000000000001390100000000000826592500000000000000009999123100000010000000000000BRGRNDACNOR3174
012024062402EUCA3       010EUCATEX     ON      N1   R$  000000000150400000000015040000000001500000000000150200000000015000000000001495000000000169000002000000000000000200000000000000300400000000000000009999123100000010000000000000BREUCAACNOR1157
012024062402EUCA4       010EUCATEX     PN      N1   R$  000000000147200000000015310000000001470000000000149000000000014830000000001478000000000148400491000000000000083600000000000124587600000000000000009999123100000010000000000000BREUCAACNPR8044
012024062402EVEN3       010EVEN        ON      NM   R$  000000000063500000000006700000000000629000000000065900000000006680000000000665000000000066802815000000000000952400000000000627765200000000000000009999123100000010000000000000BREVENACNOR8119
012024062402EZTC3       010EZTEC       ON      NM   R$  000000000128500000000013310000000001285000000000132100000000013290000000001325000000000133004093000000000001619700000000002139867700000000000000009999123100000010000000000000BREZTCACNOR0125
012024062402DASA3       010DASA        ON      NM   R$  000000000029800000000003100000000000297000000000030300000000003050000000000304000000000030501833000000000001458900000000000442921800000000000000009999123100000010000000000000BRDASAACNOR1122
012024062402NGRD3       010NEOGRID     ON      NM   R$  000000000008000000000000810000000000078000000000007900000000000800000000000079000000000008000505000000000000295900000000000023513900000000000000009999123100000010000000000000BRNGRDACNOR3104
012024062402NINJ3       010GETNINJAS   ON      NM   R$  000000000044400000000004530000000000439000000000044600000000004390000000000439000000000045200127000000000000024600000000000010979300000000000000009999123100000010000000000000BRNINJACNOR5101
012024062402NORD3       010NORDON MET  ON           R$  000000000068500000000006850000000000685000000000068500000000006850000000000602000000000068400001000000000000000100000000000000068500000000000000009999123100000010000000000000BRNORDACNOR7135
012024062402NTCO3       010GRUPO NATURAON      NM   R$  000000000151100000000015440000000001511000000000153500000000015410000000001531000000000154210129000000000005127300000000007872159100000000000000009999123100000010000000000000BRNTCOACNOR5106
012024062402DESK3       010DESKTOP     ON      NM   R$  000000000146600000000015000000000001460000000000148100000000014850000000001485000000000148700966000000000000306300000000000453889400000000000000009999123100000010000000000000BRDESKACNOR2104
012024062402DEXP3       010DEXXOS PAR  ON      N1   R$  000000000101000000000010300000000001002000000000101800000000010160000000001016000000000103000898000000000000140100000000000142696100000000000000009999123100000010000000000000BRDEXPACNOR1105
012024062402DEXP4       010DEXXOS PAR  PN      N1   R$  000000000099900000000010000000000000990000000000099600000000009900000000000990000000000099700014000000000000004700000000000004682900000000000000009999123100000010000000000000BRDEXPACNPR8105
012024062402DIRR3       010DIRECIONAL  ON      NM   R$  000000000252600000000025900000000002525000000000257500000000025810000000002581000000000258408545000000000001722500000000004436054000000000000000009999123100000010000000000000BRDIRRACNOR0117
012024062402DMVF3       010D1000VFARMA ON      NM   R$  000000000070000000000007280000000000685000000000071400000000007230000000000712000000000072000411000000000000067500000000000048262400000000000000009999123100000010000000000000BRDMVFACNOR9100
012024062402DOHL4       010DOHLER      PN           R$  000000000040700000000004070000000000405000000000040600000000004050000000000400000000000040100011000000000000020000000000000008120000000000000000009999123100000010000000000000BRDOHLACNPR9066
012024062402DOTZ3       010DOTZ SA     ON      NM   R$  000000000071000000000007370000000000670000000000069400000000006840000000000683000000000071500033000000000000006400000000000004447700000000000000009999123100000010000000000000BRDOTZACNOR7101
012024062402DTCY3       010DTCOM-DIRECTON           R$  000000000055000000000005700000000000550000000000056000000000005700000000000000000000000056300002000000000000000200000000000000112000000000000000009999123100000010000000000000BRDTCYACNOR5109
012024062402DXCO3       010DEXCO       ON      NM   R$  000000000066600000000006830000000000662000000000067000000000006690000000000666000000000067008690000000000002388400000000001600304300000000000000009999123100000010000000000000BRDXCOACNOR8105
012024062402GGBR3       010GERDAU      ON      N1   R$  000000000159800000000016120000000001585000000000160000000000015940000000001593000000000160000273000000000000041100000000000065783700000000000000009999123100000010000000000000BRGGBRACNOR1192
012024062402GGBR4       010GERDAU      PN      N1   R$  000000000176700000000017960000000001763000000000178400000000017850000000001785000000000178716213000000000008537300000000015232666300000000000000009999123100000010000000000000BRGGBRACNPR8192
012024062402MILS3       010MILLS       ON      NM   R$  000000000105700000000010830000000001044000000000106200000000010620000000001056000000000106205053000000000001205200000000001281116600000000000000009999123100000010000000000000BRMILSACNOR2126
012024062402MLAS3       010MULTILASER  ON      NM   R$  000000000019000000000002060000000000190000000000019800000000002060000000000205000000000020606654000000000003840200000000000763584400000000000000009999123100000010000000000000BRMLASACNOR9101
012024062402MNDL3       010MUNDIAL     ON           R$  000000000122500000000012980000000001225000000000124900000000012980000000001200000000000129900002000000000000000300000000000000374800000000000000009999123100000010000000000000BRMNDLACNOR4109
012024062402MNPR3       010MINUPAR     ON           R$  000000000110000000000011000000000001100000000000110000000000011000000000001100000000000111000001000000000000000100000000000000110000000000000000009999123100000010000000000000BRMNPRACNOR5122
012024062402MOVI3       010MOVIDA      ON      NM   R$  000000000059400000000006170000000000594000000000060600000000006120000000000611000000000061308715000000000005543000000000003359165500000000000000009999123100000010000000000000BRMOVIACNOR0122
012024062402MRFG3       010MARFRIG     ON      NM   R$  000000000112600000000011490000000001117000000000112800000000011240000000001123000000000112412335000000000003718400000000004196870500000000000000009999123100000010000000000000BRMRFGACNOR0116
012024062402BGIP3       010BANESE      ON           R$  000000000244000000000024400000000002429000000000243200000000024290000000002410000000000247900003000000000000000300000000000000729800000000000000009999123100000010000000000000BRBGIPACNOR1208
012024062402BGIP4       010BANESE      PN           R$  000000000228000000000022800000000002206000000000224900000000022120000000002211000000000230000008000000000000000800000000000001799600000000000000009999123100000010000000000000BRBGIPACNPR8208
012024062402BHIA3       010CASAS BAHIA ON      NM   R$  000000000057400000000006050000000000574000000000058900000000005850000000000585000000000058803842000000000003858600000000002275832100000000000000009999123100000010000000000000BRBHIAACNOR1101
012024062402BIOM3       010BIOMM       ON      MA   R$  000000000139900000000014000000000001364000000000139300000000013990000000001370000000000139900426000000000000152700000000000212733700000000000000009999123100000010000000000000BRBIOMACNOR2112
012024062402BRIT3       010BRISANET    ON      NM   R$  000000000040900000000004120000000000406000000000040800000000004090000000000407000000000040900771000000000000318100000000000129933500000000000000009999123100000010000000000000BRBRITACNOR0103
012024062402BRKM3       010BRASKEM     ON      N1   R$  000000000182500000000018360000000001825000000000183000000000018320000000001800000000000183300009000000000000001200000000000002196700000000000000009999123100000010000000000000BRBRKMACNOR1119
012024062402BRKM5       010BRASKEM     PNA     N1   R$  000000000180500000000018190000000001771000000000179200000000017990000000001797000000000180008880000000000002311900000000004143060300000000000000009999123100000010000000000000BRBRKMACNPA4121
012024062402BRKM6       010BRASKEM     PNB     N1   R$  000000000154900000000015500000000001549000000000154900000000015490000000001549000000000162100008000000000000000800000000000001239300000000000000009999123100000010000000000000BRBRKMACNPB2114
012024062402BRSR3       010BANRISUL    ON  EJ  N1   R$  000000000115000000000011800000000001146000000000116100000000011600000000001153000000000117400019000000000000003000000000000003484600000000000000009999123100000010000000000000BRBRSRACNOR3188
012024062402BRSR6       010BANRISUL    PNB EJ  N1   R$  000000000110000000000011280000000001097000000000112000000000011200000000001119000000000112204553000000000001525300000000001709383800000000000000009999123100000010000000000000BRBRSRACNPB4191
012024062402SAPR3       010SANEPAR     ON      N2   R$  000000000050200000000005190000000000502000000000051300000000005190000000000517000000000051900721000000000000230300000000000118357800000000000000009999123100000010000000000000BRSAPRACNOR9158
012024062402SAPR4       010SANEPAR     PN      N2   R$  000000000055000000000005620000000000547000000000055600000000005590000000000559000000000056002727000000000000956800000000000532491100000000000000009999123100000010000000000000BRSAPRACNPR6158
012024062402SBFG3       010GRUPO SBF   ON      NM   R$  000000000113200000000011920000000001132000000000117200000000011790000000001177000000000118503542000000000001491700000000001748434000000000000000009999123100000010000000000000BRSBFGACNOR1103
012024062402SBSP3       010SABESP      ON      NM   R$  000000000757200000000077930000000007555000000000772600000000077930000000007781000000000779322417000000000005568000000000043019028600000000000000009999123100000010000000000000BRSBSPACNOR5161
012024062402UNIP3       010UNIPAR      ON           R$  000000000484400000000049020000000004823000000000486400000000048230000000004823000000000488000090000000000000011200000000000054483800000000000000009999123100000010000000000000BRUNIPACNOR7206
012024062402UNIP5       010UNIPAR      PNA          R$  000000000535700000000053570000000005305000000000534000000000053300000000005300000000000551900005000000000000000500000000000002670300000000000000009999123100000010000000000000BRUNIPACNPA0208
012024062402UNIP6       010UNIPAR      PNB          R$  000000000487200000000049440000000004839000000000487600000000048390000000004839000000000486401138000000000000166100000000000810029400000000000000009999123100000010000000000000BRUNIPACNPB8206
012024062402USIM3       010USIMINAS    ON      N1   R$  000000000071000000000007400000000000710000000000073400000000007400000000000738000000000074101081000000000000318900000000000234216700000000000000009999123100000010000000000000BRUSIMACNOR3167
012024062402USIM5       010USIMINAS    PNA     N1   R$  000000000075300000000007720000000000751000000000076600000000007690000000000769000000000077009823000000000007079800000000005423354100000000000000009999123100000010000000000000BRUSIMACNPA6169
012024062402WEST3       010WESTWING    ON      NM   R$  000000000009000000000000910000000000090000000000009000000000000900000000000090000000000009200027000000000000024700000000000002223700000000000000009999123100000010000000000000BRWESTACNOR3100
012024062402WHRL3       010WHIRLPOOL   ON           R$  000000000044300000000004490000000000442000000000044600000000004490000000000443000000000044900008000000000000001400000000000000625500000000000000009999123100000010000000000000BRWHRLACNOR5128
012024062402WHRL4       010WHIRLPOOL   PN           R$  000000000045000000000004500000000000448000000000044800000000004480000000000448000000000044900008000000000000001100000000000000493800000000000000009999123100000010000000000000BRWHRLACNPR2128
012024062402WIZC3       010WIZ CO      ON      NM   R$  000000000057200000000005830000000000569000000000057700000000005830000000000577000000000058402016000000000000359100000000000207233000000000000000009999123100000010000000000000BRWIZCACNOR5102
012024062402WLMM3       010WLM IND COM ON           R$  000000000232000000000023200000000002320000000000232000000000023200000000002321000000000255000001000000000000000100000000000000232000000000000000009999123100000010000000000000BRWLMMACNOR6118
012024062402WLMM4       010WLM IND COM PN           R$  000000000308900000000030890000000003060000000000306700000000030600000000003060000000000306500004000000000000000400000000000001226900000000000000009999123100000010000000000000BRWLMMACNPR3118
012024062402YDUQ3       010YDUQS PART  ON      NM   R$  000000000108200000000011140000000001075000000000109300000000011110000000001106000000000111211570000000000006404900000000007006925900000000000000009999123100000010000000000000BRYDUQACNOR3105
012024062402PFRM3       010PROFARMA    ON      NM   R$  000000000051700000000005230000000000515000000000051900000000005150000000000514000000000052200356000000000000376500000000000195571300000000000000009999123100000010000000000000BRPFRMACNOR1116
012024062402RSUL4       010RIOSULENSE  PN           R$  000000000662000000000068200000000006620000000000671500000000067500000000006555000000000697000004000000000000000400000000000002686000000000000000009999123100000010000000000000BRRSULACNPR3114
012024062407TXRX4       010TEX RENAUX  PN           R$  000000000023000000000002300000000000226000000000022600000000002260000000000227000000000023700005000000000000001200000000000000271800000000000000009999123100000010000000000000BRTXRXACNPR0142
012024062407NUTR3       010NUTRIPLANT  ON      MA   R$  000000000052200000000005580000000000511000000000054300000000005530000000000543000000000056800028000000000000006700000000000003644600000000000000009999123100000010000000000000BRNUTRACNOR0104
012024062408OIBR3       010OI          ON  EG  N1   R$  000000000043800000000004650000000000432000000000044900000000004600000000000460000000000046101899000000000000910400000000000409143500000000000000009999123100000010000000000000BROIBRACNOR1111
012024062408OIBR4       010OI          PN  EG  N1   R$  000000000125900000000012680000000001210000000000123800000000012280000000001228000000000125000024000000000000003200000000000003961700000000000000009999123100000010000000000000BROIBRACNPR8110
012024062408OSXB3       010OSX BRASIL  ON      NM   R$  000000000038500000000003890000000000380000000000038200000000003890000000000379000000000038800008000000000000003400000000000001300100000000000000009999123100000010000000000000BROSXBACNOR8109
012024062408SGPS3       010SPRINGS     ON      NM   R$  000000000003600000000000360000000000036000000000003600000000000360000000000036000000000003700032000000000000043900000000000001580400000000000000009999123100000010000000000000BRSGPSACNOR4104
012024062408PMAM3       010PARANAPANEMAON      NM   R$  000000000023900000000002480000000000238000000000024300000000002380000000000238000000000023900256000000000000256400000000000062444600000000000000009999123100000010000000000000BRPMAMACNOR3039
012024062408RNEW11      010RENOVA      UNT     N2   R$  000000000027900000000002790000000000274000000000027600000000002750000000000275000000000027900005000000000000000600000000000000165700000000000000009999123100000010000000000000BRRNEWCDAM15110
012024062408RNEW3       010RENOVA      ON      N2   R$  000000000009500000000000950000000000092000000000009200000000000920000000000092000000000009300029000000000000012900000000000001193400000000000000009999123100000010000000000000BRRNEWACNOR8110
012024062408RNEW4       010RENOVA      PN      N2   R$  000000000009300000000000930000000000090000000000009100000000000900000000000090000000000009200078000000000000092000000000000008389800000000000000009999123100000010000000000000BRRNEWACNPR5110
012024062408RPMG3       010PET MANGUINHON           R$  000000000023600000000002540000000000225000000000024400000000002460000000000246000000000025000184000000000000047600000000000011633600000000000000009999123100000010000000000000BRRPMGACNOR9194
012024062408LIGT3       010LIGHT S/A   ON      NM   R$  000000000050800000000005170000000000500000000000050700000000005060000000000506000000000050902291000000000000795800000000000403995200000000000000009999123100000010000000000000BRLIGTACNOR2124
012024062408NEXP3       010NEXPE       ON           R$  000000000041700000000004200000000000411000000000041600000000004120000000000411000000000041800009000000000000001300000000000000542000000000000000009999123100000010000000000000BRNEXPACNOR0101
012024062408JFEN3       010JOAO FORTES ON           R$  000000000009100000000000940000000000079000000000008400000000000810000000000079000000000008100631000000000000277500000000000023397700000000000000009999123100000010000000000000BRJFENACNOR0059
012024062408CTNM4       010COTEMINAS   PN           R$  000000000007000000000000700000000000070000000000007000000000000700000000000070000000000007200018000000000000013600000000000000952000000000000000009999123100000010000000000000BRCTNMACNPR6129
012024062408CTSA3       010SANTANENSE  ON           R$  000000000022200000000002240000000000222000000000022300000000002240000000000219000000000022300002000000000000000200000000000000044600000000000000009999123100000010000000000000BRCTSAACNOR3062
012024062408CTSA4       010SANTANENSE  PN           R$  000000000008300000000000850000000000083000000000008300000000000850000000000083000000000008500014000000000000007200000000000000599800000000000000009999123100000010000000000000BRCTSAACNPR0062
012024062408TEKA3       010TEKA        ON           R$  000000000500000000000050000000000005000000000000500000000000050000000000005000000000000580000002000000000000000200000000000001000000000000000000009999123100000010000000000000BRTEKAACNOR6140
012024062408ATMP3       010ATMASA      ON           R$  000000000022600000000002260000000000219000000000022200000000002260000000000220000000000022600017000000000000004400000000000000980900000000000000009999123100000010000000000000BRATMPACNOR8100
012024062408AMER3       010AMERICANAS  ON      NM   R$  000000000004100000000000440000000000040000000000004100000000000410000000000041000000000004202234000000000014928800000000000625217700000000000000009999123100000010000000000000BRAMERACNOR6102
012024062408ETER3       010ETERNIT     ON      NM   R$  000000000059900000000006000000000000584000000000059400000000005980000000000592000000000059800524000000000000144000000000000085565500000000000000009999123100000010000000000000BRETERACNOR3243
012024062408RSID3       010ROSSI RESID ON      NM   R$  000000000053300000000005430000000000526000000000053200000000005350000000000523000000000053500241000000000000031600000000000016824000000000000000009999123100000010000000000000BRRSIDACNOR8120
012024062410EQTL9       010EQUATORIAL  ON  REC NM   R$  000000000291100000000029890000000002902000000000294100000000029690000000002880000000000297000017000000000000002800000000000008235800000000000000009999123100000010000000000000BREQTLR03OR1129
012024062410BSLI10      010BRB BANCO   PN  REC      R$  000000000091500000000009150000000000915000000000091500000000009150000000000851000000000091800001000000000000000100000000000000091500000000000000009999123100000010000000000000BRBSLIR02PR5192
012024062410VIVR1       010VIVER       DIR ORD NM   R$  000000000000100000000000010000000000001000000000000100000000000010000000000000000000000000100022000000000000096100000000000000096100000000000000009999123100000010000000000000BRVIVRD18OR3122
012024062410RBIF12      010FIC FI RB ESDIR          R$  000000000001400000000000170000000000014000000000001500000000000140000000000014000000000001500027000000000000002296000000000000035534000000000000009999123100000010000000000000BRRBIFD02M10124
012024062410AMAR1       010LOJAS MARISADIR ORD NM   R$  000000000000200000000000030000000000002000000000000200000000000020000000000002000000000000300571000000000003648900000000000007642800000000000000009999123100000010000000000000BRAMARD02OR7114
012024062412OULG11      010FII OURILOG CI           R$  000000000288500000000028910000000002885000000000288500000000028850000000002885000000000288700487000000000000003824000000000011032299000000000000009999123100000010000000000000BROULGCTF001153
012024062412OURE11      010FII OU RENDACI  ER       R$  000000000764800000000076950000000007591000000000765000000000076380000000007638000000000768200519000000000000006211000000000047515320000000000000009999123100000010000000000000BROURECTF003143
012024062412ABCP11      010FII ABC IMOBCI           R$  000000000680900000000069640000000006808000000000690600000000069580000000006876000000000690000094000000000000000820000000000005662988000000000000009999123100000010000000000000BRABCPCTF000339
012024062412CRFF11      010FII CX RBRA2CI           R$  000000000787900000000078790000000007754000000000780400000000077540000000007754000000000790000005000000000000000037000000000000288780000000000000009999123100000010000000000000BRCRFFCTF006161
012024062412ICRI11      010FII CI IPCA CI           R$  000000000959200000000099530000000009591000000000972700000000097290000000009715000000000979700241000000000000015918000000000154844788000000000000009999123100000010000000000000BRICRICTF004104
012024062412IDFI11      010FII UNIDADESCI           R$  000000000129000000000013220000000001290000000000132100000000013220000000001290000000000132200019000000000000000319000000000000421603000000000000009999123100000010000000000000BRIDFICTF007132
012024062412IDGR11      010FII UNID II CI           R$  000000000110000000000011000000000001100000000000110000000000011000000000001050000000000110000005000000000000000277000000000000304700000000000000009999123100000010000000000000BRIDGRCTF006127
012024062412LSPA11      010FII LESTE PACI           R$  000000000883100000000092980000000008359000000000846800000000083600000000008360000000000880000016000000000000000150000000000001270294000000000000009999123100000010000000000000BRLSPACTF005139
012024062412LUGG11      010FII LUGGO   CI           R$  000000000745000000000074990000000007425000000000746600000000074460000000007430000000000744600102000000000000000502000000000003748388000000000000009999123100000010000000000000BRLUGGCTF007155
012024062412LVBI11      010FII VBI LOG CI           R$  000000001108100000000111510000000011057000000001109400000000110660000000011066000000001108004762000000000000029725000000000329778336000000000000009999123100000010000000000000BRLVBICTF002169
012024062412OUFF11      010FII OURI FOFCI  ER       R$  000000000596100000000060000000000005902000000000595700000000059610000000005961000000000598000160000000000000002808000000000016728087000000000000009999123100000010000000000000BROUFFCTF005160
012024062412OUJP11      010FII OURI JPPCI           R$  000000000838800000000084750000000008361000000000843600000000084050000000008405000000000845802895000000000000017777000000000149967548000000000000009999123100000010000000000000BROUJPCTF006187
012024062412CNES11      010FII CENESP  CI  ER       R$  000000000016200000000001620000000000158000000000016000000000001600000000000160000000000016102074000000000000058133000000000009302048000000000000009999123100000010000000000000BRCNESCTF001260
012024062412GZIT11      010FII GAZIT   CI  ER       R$  000000000591200000000059800000000005750000000000582700000000058530000000005770000000000585302538000000000000031393000000000182936407000000000000009999123100000010000000000000BRGZITCTF005108
012024062412BPFF11      010FII ABSOLUTOCI           R$  000000000691100000000069600000000006866000000000693000000000069490000000006947000000000694900739000000000000005821000000000040340511000000000000009999123100000010000000000000BRBPFFCTF002236
012024062412BPML11      010FII BTG SHOPCI  ER       R$  000000000900500000000093970000000008915000000000921000000000092000000000009178000000000920004670000000000000019501000000000179618368000000000000009999123100000010000000000000BRBPMLCTF006131
012024062412BPRP11      010FII BRLPROP CI           R$  000000001079800000000107980000000010798000000001079800000000107980000000010270000000001079700001000000000000000004000000000000043192000000000000009999123100000010000000000000BRBPRPCTF006159
012024062412EQIR11      010FII EQI RECECI  ER       R$  000000000089700000000009000000000000888000000000089100000000008910000000000890000000000089100280000000000000017928000000000015982140000000000000009999123100000010000000000000BREQIRCTF003133
012024062412GTWR11      010FII G TOWERSCI           R$  000000000830100000000083400000000008251000000000828600000000082850000000008284000000000828501607000000000000009381000000000077737774000000000000009999123100000010000000000000BRGTWRCTF003163
012024062412BARI11      010FII BARIGUI CI           R$  000000000779800000000079370000000007725000000000782200000000078220000000007822000000000782301541000000000000010043000000000078563867000000000000009999123100000010000000000000BRBARICTF003162
012024062412BLCA11      010FII BLUE AAACI           R$  000000001019900000000102000000000010076000000001019500000000102000000000010080000000001020000042000000000000000075000000000000764631000000000000009999123100000010000000000000BRBLCACTF009131
012024062412BLMG11      010FII BLUE LOGCI           R$  000000000382600000000038650000000003817000000000384000000000038310000000003830000000000383101292000000000000009481000000000036407904000000000000009999123100000010000000000000BRBLMGCTF005147
012024062412BLMO11      010FII BLUEMAC CI           R$  000000000791100000000080080000000007911000000000799000000000080050000000008005000000000830000011000000000000000022000000000000175781000000000000009999123100000010000000000000BRBLMOCTF009131
012024062412SNCI11      010FII SUNO CRICI  ER       R$  000000000948000000000095470000000009365000000000947100000000094060000000009390000000000940600542000000000000006194000000000058668669000000000000009999123100000010000000000000BRSNCICTF002136
012024062412SNEL11      010FII SUNO EL CI  ER       R$  000000001356600000000136160000000013450000000001356800000000136160000000013608000000001368000318000000000000002109000000000028615913000000000000009999123100000010000000000000BRSNELCTF010108
012024062412SNFF11      010FII SUNOFOFICI  ER       R$  000000000861800000000086830000000008593000000000863700000000086400000000008640000000000864600476000000000000002997000000000025885490000000000000009999123100000010000000000000BRSNFFCTF001138
012024062412SNLG11      010FII SUNO LG CI  ER       R$  000000000302100000000031640000000002924000000000305900000000030840000000003084000000000308600407000000000000001239000000000003790863000000000000009999123100000010000000000000BRSNLGCTF007104
012024062412SNME11      010FII SNME    CI  ER       R$  000000000095100000000009670000000000950000000000095300000000009550000000000951000000000095400088000000000000003766000000000003591343000000000000009999123100000010000000000000BRSNMECTF000107
012024062412BMLC11      010FII BMBRC LCCI           R$  000000000981900000000098190000000009799000000000981500000000097990000000009567000000000970000003000000000000000012000000000000117788000000000000009999123100000010000000000000BRBMLCCTF004251
012024062412BNFS11      010FII BANRISULCI           R$  000000001178700000000119190000000011787000000001180800000000118890000000011889000000001191500085000000000000000737000000000008702976000000000000009999123100000010000000000000BRBNFSCTF000241
012024062412SPTW11      010FII SP DOWNTCI           R$  000000000423500000000042350000000004184000000000421000000000041860000000004186000000000420100186000000000000001566000000000006592976000000000000009999123100000010000000000000BRSPTWCTF002235
012024062412SPXS11      010FII SPX SYN CI           R$  000000000096900000000009690000000000955000000000096000000000009640000000000961000000000096503280000000000000104724000000000100579299000000000000009999123100000010000000000000BRSPXSCTF002124
012024062412BTAL11      010FII BTG AGROCI  ER       R$  000000000721200000000074610000000007212000000000737500000000073850000000007382000000000738500862000000000000009333000000000068836434000000000000009999123100000010000000000000BRBTALCTF003140
