00COTAHIST.2024BOVESPA 20240325                                                                                                                                                                                                                      
012024032502BIOM3       010BIOMM       ON      MA   R$  000000000094700000000009470000000000858000000000090000000000008880000000000888000000000091000136000000000000021900000000000019712800000000000000009999123100000010000000000000BRBIOMACNOR2112
012024032502SNSY3       010SANSUY      ON           R$  000000000110700000000011900000000001081000000000114100000000010810000000001080000000000112000035000000000000005500000000000006278700000000000000009999123100000010000000000000BRSNSYACNOR2113
012024032502SNSY5       010SANSUY      PNA          R$  000000000067900000000006850000000000650000000000067200000000006780000000000661000000000067900047000000000000011000000000000007396100000000000000009999123100000010000000000000BRSNSYACNPA5111
012024032502SOJA3       010BOA SAFRA   ON      NM   R$  000000000177200000000018210000000001736000000000176300000000017490000000001746000000000174901762000000000000337500000000000595064000000000000000009999123100000010000000000000BRSOJAACNOR9105
012024032502SOMA3       010GRUPO SOMA  ON      NM   R$  000000000072100000000007390000000000719000000000072700000000007240000000000722000000000072414409000000000010432500000000007591968800000000000000009999123100000010000000000000BRSOMAACNOR3102
012024032502SOND5       010SONDOTECNICAPNA          R$  000000000540000000000054000000000005400000000000540000000000054000000000005251000000000589500001000000000000000100000000000000540000000000000000009999123100000010000000000000BRSONDACNPA8165
012024032502BEES3       010BANESTES    ON           R$  000000000087400000000008790000000000848000000000085900000000008600000000000860000000000086600219000000000000035400000000000030409100000000000000009999123100000010000000000000BRBEESACNOR9388
012024032502BEES4       010BANESTES    PN           R$  000000000096500000000009720000000000962000000000096800000000009620000000000961000000000096800024000000000000002800000000000002712800000000000000009999123100000010000000000000BRBEESACNPR6313
012024032502BGIP4       010BANESE      PN  ES       R$  000000000231000000000023110000000002300000000000230600000000023100000000002280000000000231100016000000000000002700000000000006227300000000000000009999123100000010000000000000BRBGIPACNPR8208
012024032502BLAU3       010BLAU        ON  EJ  NM   R$  000000000123000000000012560000000001197000000000121500000000012010000000001199000000000120101804000000000000832000000000001011275000000000000000009999123100000010000000000000BRBLAUACNOR8112
012024032502BMEB3       010MERCANTIL   ON      N1   R$  000000000237100000000023710000000002371000000000237100000000023710000000002358000000000280000002000000000000000200000000000000474200000000000000009999123100000010000000000000BRBMEBACNOR8205
012024032502BMEB4       010MERCANTIL   PN      N1   R$  000000000272200000000027400000000002500000000000255300000000025150000000002515000000000257500131000000000000023800000000000060783900000000000000009999123100000010000000000000BRBMEBACNPR5210
012024032502BMGB4       010BANCO BMG   PN      N1   R$  000000000034700000000003550000000000346000000000035000000000003550000000000353000000000035500890000000000000469800000000000164842600000000000000009999123100000010000000000000BRBMGBACNPR0108
012024032502BMIN4       010MERC INVEST PN           R$  000000000155500000000015550000000001555000000000155500000000015550000000001555000000000159900001000000000000000300000000000000466500000000000000009999123100000010000000000000BRBMINACNPR1176
012024032502BMKS3       010BIC MONARK  ON           R$  000000003650000000000365000000000036000000000003638800000000361000000000036100000000003650000007000000000000000017000000000000618600000000000000009999123100000010000000000000BRBMKSACNOR9165
012024032502MYPK3       010IOCHP-MAXIONON      NM   R$  000000000139300000000013960000000001327000000000136000000000013650000000001364000000000136504174000000000001400600000000001905651500000000000000009999123100000010000000000000BRMYPKACNOR7154
012024032502TASA3       010TAURUS ARMASON      N2   R$  000000000139900000000014170000000001319000000000138100000000013350000000001335000000000137800164000000000000034700000000000047940700000000000000009999123100000010000000000000BRTASAACNOR7103
012024032502TASA4       010TAURUS ARMASPN      N2   R$  000000000138900000000013940000000001343000000000135700000000013460000000001346000000000134702191000000000000723800000000000982199800000000000000009999123100000010000000000000BRTASAACNPR4103
012024032502TCSA3       010TECNISA     ON      NM   R$  000000000030500000000003100000000000295000000000030100000000002990000000000300000000000030100180000000000000068800000000000020764500000000000000009999123100000010000000000000BRTCSAACNOR3112
012024032502TECN3       010TECHNOS     ON      NM   R$  000000000045000000000004520000000000423000000000043200000000004380000000000433000000000043800590000000000000203600000000000088015900000000000000009999123100000010000000000000BRTECNACNOR6109
012024032502NEOE3       010NEOENERGIA  ON      NM   R$  000000000204200000000020850000000002042000000000206800000000020660000000002065000000000206605054000000000001127200000000002331411400000000000000009999123100000010000000000000BRNEOEACNOR3121
012024032502NGRD3       010NEOGRID     ON      NM   R$  000000000010900000000001090000000000107000000000010800000000001080000000000107000000000010800376000000000000298100000000000032198100000000000000009999123100000010000000000000BRNGRDACNOR3103
012024032502NINJ3       010GETNINJAS   ON      NM   R$  000000000050900000000005120000000000509000000000050900000000005120000000000509000000000051200034000000000000007800000000000003977300000000000000009999123100000010000000000000BRNINJACNOR5101
012024032502NORD3       010NORDON MET  ON           R$  000000000097400000000009740000000000922000000000093200000000009220000000000901000000000095800007000000000000001100000000000001025700000000000000009999123100000010000000000000BRNORDACNOR7135
012024032502NTCO3       010GRUPO NATURAON  ED  NM   R$  000000000178100000000018230000000001781000000000180700000000018220000000001821000000000182324638000000000029894100000000054043900700000000000000009999123100000010000000000000BRNTCOACNOR5105
012024032502PETZ3       010PETZ        ON      NM   R$  000000000049000000000005020000000000485000000000049300000000004850000000000485000000000048614282000000000008926300000000004400801800000000000000009999123100000010000000000000BRPETZACNOR2109
012024032502AERI3       010AERIS       ON      NM   R$  000000000005600000000000560000000000055000000000005500000000000550000000000055000000000005602451000000000001409200000000000078052600000000000000009999123100000010000000000000BRAERIACNOR4101
012024032502AESB3       010AES BRASIL  ON      NM   R$  000000000107500000000010760000000001051000000000105900000000010590000000001058000000000106205406000000000001229900000000001303389800000000000000009999123100000010000000000000BRAESBACNOR7105
012024032502AGRO3       010BRASILAGRO  ON      NM   R$  000000000238500000000024090000000002384000000000239500000000024000000000002395000000000240101160000000000000232900000000000557995700000000000000009999123100000010000000000000BRAGROACNOR7114
012024032502AGXY3       010AGROGALAXY  ON      NM   R$  000000000017600000000001760000000000168000000000017100000000001740000000000172000000000017500168000000000000038200000000000006549000000000000000009999123100000010000000000000BRAGXYACNOR4102
012024032502ALLD3       010ALLIED      ON      NM   R$  000000000086200000000008920000000000862000000000087700000000008710000000000871000000000087500488000000000000193800000000000170155800000000000000009999123100000010000000000000BRALLDACNOR3105
012024032502ALOS3       010ALLOS       ON      NM   R$  000000000241000000000024100000000002382000000000239500000000024020000000002396000000000240209349000000000002866300000000006866105100000000000000009999123100000010000000000000BRALOSACNOR5100
012024032502ALPA3       010ALPARGATAS  ON      N1   R$  000000000100300000000010050000000001003000000000100400000000010040000000001003000000000100500003000000000000001200000000000001205700000000000000009999123100000010000000000000BRALPAACNOR0231
012024032502BBSE3       010BBSEGURIDADEON      NM   R$  000000000323700000000032430000000003195000000000321200000000031950000000003195000000000319812740000000000005938300000000019078157700000000000000009999123100000010000000000000BRBBSEACNOR5124
012024032502BPAC11      010BTGP BANCO  UNT     N2   R$  000000000366000000000037090000000003634000000000368300000000036920000000003685000000000369312545000000000004242800000000015628204700000000000000009999123100000010000000000000BRBPACUNT006118
012024032502BPAC3       010BTGP BANCO  ON      N2   R$  000000000183000000000018700000000001827000000000184800000000018500000000001835000000000185000067000000000000009700000000000017930800000000000000009999123100000010000000000000BRBPACACNOR7133
012024032502CPFE3       010CPFL ENERGIAON      NM   R$  000000000348500000000035400000000003463000000000350800000000034990000000003495000000000349908639000000000002651200000000009302549600000000000000009999123100000010000000000000BRCPFEACNOR0136
012024032502CPLE3       010COPEL       ON      N2   R$  000000000089600000000008980000000000876000000000088100000000008810000000000881000000000088206724000000000004404600000000003884017900000000000000009999123100000010000000000000BRCPLEACNOR8148
012024032502CPLE6       010COPEL       PNB     N2   R$  000000000100400000000010060000000000981000000000098900000000009880000000000987000000000098913353000000000009952700000000009852444000000000000000009999123100000010000000000000BRCPLEACNPB9145
012024032502FRAS3       010FRAS-LE     ON      N1   R$  000000000180300000000018100000000001777000000000179200000000017890000000001789000000000179100891000000000000152900000000000274032000000000000000009999123100000010000000000000BRFRASACNOR0158
012024032502GEPA4       010GER PARANAP PN           R$  000000000262100000000026210000000002600000000000260100000000026000000000002599000000000264800062000000000000009300000000000024196200000000000000009999123100000010000000000000BRGEPAACNPR9159
012024032502GFSA3       010GAFISA      ON  ES  NM   R$  000000000070800000000007260000000000658000000000069100000000006600000000000659000000000066004691000000000003592000000000002482448400000000000000009999123100000010000000000000BRGFSAACNOR3124
012024032502GGBR3       010GERDAU      ON      N1   R$  000000000196500000000019730000000001938000000000194800000000019480000000001940000000000194800363000000000000089400000000000174236000000000000000009999123100000010000000000000BRGGBRACNOR1190
012024032502GGBR4       010GERDAU      PN      N1   R$  000000000215700000000021720000000002142000000000215600000000021570000000002153000000000215710602000000000005999400000000012940048400000000000000009999123100000010000000000000BRGGBRACNPR8190
012024032502MRVE3       010MRV         ON      NM   R$  000000000077000000000007870000000000768000000000078000000000007790000000000779000000000078010531000000000007453000000000005817760000000000000000009999123100000010000000000000BRMRVEACNOR2126
012024032502AALR3       010ALLIAR      ON      NM   R$  000000000087100000000009000000000000858000000000088300000000008860000000000885000000000088900829000000000000223800000000000197764900000000000000009999123100000010000000000000BRAALRACNOR6102
012024032502ABCB4       010ABC BRASIL  PN      N2   R$  000000000242000000000024540000000002407000000000243000000000024280000000002428000000000243002283000000000000461100000000001120897300000000000000009999123100000010000000000000BRABCBACNPR4145
012024032502ABEV3       010AMBEV S/A   ON           R$  000000000124000000000012500000000001223000000000123200000000012230000000001223000000000122521732000000000021593700000000026620934400000000000000009999123100000010000000000000BRABEVACNOR1127
012024032502COCE5       010COELCE      PNA          R$  000000000361800000000038240000000003618000000000372600000000038240000000003759000000000382500093000000000000013500000000000050309400000000000000009999123100000010000000000000BRCOCEACNPA3146
012024032502COGN3       010COGNA ON    ON      NM   R$  000000000024700000000002530000000000242000000000024600000000002420000000000242000000000024323545000000000024736500000000006099800500000000000000009999123100000010000000000000BRCOGNACNOR2104
012024032502ESPA3       010ESPACOLASER ON      NM   R$  000000000010100000000001010000000000095000000000009800000000000950000000000095000000000009602482000000000001404300000000000138526700000000000000009999123100000010000000000000BRESPAACNOR7103
012024032502EUCA3       010EUCATEX     ON      N1   R$  000000000170900000000017090000000001700000000000170000000000017000000000001675000000000170800004000000000000001300000000000002210900000000000000009999123100000010000000000000BREUCAACNOR1157
012024032502EUCA4       010EUCATEX     PN      N1   R$  000000000169600000000017270000000001687000000000170800000000017040000000001704000000000171800568000000000000114200000000000195085400000000000000009999123100000010000000000000BREUCAACNPR8044
012024032502EVEN3       010EVEN        ON      NM   R$  000000000082300000000008450000000000806000000000082000000000008100000000000808000000000081002353000000000000588900000000000483395200000000000000009999123100000010000000000000BREVENACNOR8118
012024032502EZTC3       010EZTEC       ON  ED  NM   R$  000000000163800000000016500000000001611000000000162500000000016190000000001618000000000162006685000000000001590400000000002585611300000000000000009999123100000010000000000000BREZTCACNOR0124
012024032502FESA3       010FERBASA     ON      N1   R$  000000000157500000000015750000000001575000000000157500000000015750000000001443000000000159300001000000000000000100000000000000157500000000000000009999123100000010000000000000BRFESAACNOR8187
012024032502FESA4       010FERBASA     PN      N1   R$  000000000087800000000008780000000000865000000000086900000000008660000000000865000000000086601199000000000000380100000000000330376400000000000000009999123100000010000000000000BRFESAACNPR5083
012024032502FHER3       010FER HERINGERON      NM   R$  000000000057600000000005880000000000576000000000058100000000005820000000000576000000000058100014000000000000002900000000000001685700000000000000009999123100000010000000000000BRFHERACNOR5103
012024032502FIQE3       010UNIFIQUE    ON      NM   R$  000000000041500000000004150000000000406000000000040900000000004140000000000410000000000041400533000000000000167100000000000068451700000000000000009999123100000010000000000000BRFIQEACNOR5106
012024032502FLRY3       010FLEURY      ON  ED  NM   R$  000000000150000000000015010000000001486000000000149400000000014990000000001497000000000150005353000000000002226900000000003328071600000000000000009999123100000010000000000000BRFLRYACNOR5138
012024032502ITUB3       010ITAUUNIBANCOON  EJ  N1   R$  000000000291000000000029230000000002894000000000290500000000029070000000002906000000000290900869000000000000280700000000000815647500000000000000009999123100000010000000000000BRITUBACNOR4333
012024032502ITUB4       010ITAUUNIBANCOPN  EJ  N1   R$  000000000336400000000033740000000003355000000000336300000000033720000000003368000000000337317793000000000012219500000000041098454600000000000000009999123100000010000000000000BRITUBACNPR1333
012024032502MILS3       010MILLS       ON      NM   R$  000000000131500000000013150000000001285000000000129500000000012970000000001297000000000129902119000000000000476300000000000617031600000000000000009999123100000010000000000000BRMILSACNOR2124
012024032502MLAS3       010MULTILASER  ON      NM   R$  000000000021700000000002210000000000211000000000021500000000002160000000000216000000000021702013000000000001183900000000000255469200000000000000009999123100000010000000000000BRMLASACNOR9101
012024032502MNDL3       010MUNDIAL     ON           R$  000000000420000000000043500000000004200000000000431100000000043500000000004100000000000435000004000000000000000400000000000001724500000000000000009999123100000010000000000000BRMNDLACNOR4107
012024032502MNPR3       010MINUPAR     ON           R$  000000000192000000000019900000000001881000000000191800000000018810000000001881000000000205000014000000000000001900000000000003645900000000000000009999123100000010000000000000BRMNPRACNOR5122
012024032502MOVI3       010MOVIDA      ON      NM   R$  000000000085700000000008710000000000845000000000085300000000008550000000000855000000000085604486000000000001988200000000001697810500000000000000009999123100000010000000000000BRMOVIACNOR0122
012024032502MRFG3       010MARFRIG     ON      NM   R$  000000000096300000000009780000000000957000000000096900000000009720000000000968000000000097210143000000000003685100000000003573161400000000000000009999123100000010000000000000BRMRFGACNOR0116
012024032502BBDC3       010BRADESCO    ON      N1   R$  000000000125200000000012580000000001239000000000124800000000012470000000001247000000000124805575000000000006524200000000008143908700000000000000009999123100000010000000000000BRBBDCACNOR1767
012024032502BBDC4       010BRADESCO    PN      N1   R$  000000000139400000000014070000000001384000000000139500000000013940000000001393000000000139419771000000000031920500000000044548218900000000000000009999123100000010000000000000BRBBDCACNPR8767
012024032502CLSA3       010CLEARSALE   ON      NM   R$  000000000048700000000005090000000000453000000000048800000000004830000000000483000000000048804778000000000002984500000000001457377500000000000000009999123100000010000000000000BRCLSAACNOR0100
012024032502CLSC4       010CELESC      PN  EJ  N2   R$  000000000670000000000067710000000006665000000000673600000000067700000000006770000000000677100012000000000000001400000000000009431700000000000000009999123100000010000000000000BRCLSCACNPR3129
012024032502CMIG3       010CEMIG       ON      N1   R$  000000000141300000000014440000000001404000000000143000000000014350000000001435000000000143901634000000000000646400000000000924428900000000000000009999123100000010000000000000BRCMIGACNOR6239
012024032502CMIG4       010CEMIG       PN      N1   R$  000000000123400000000012550000000001227000000000124200000000012440000000001244000000000124518309000000000010879700000000013517598800000000000000009999123100000010000000000000BRCMIGACNPR3240
012024032502CMIN3       010CSNMINERACAOON      N2   R$  000000000054900000000005530000000000534000000000053900000000005370000000000536000000000053711011000000000007717800000000004165114800000000000000009999123100000010000000000000BRCMINACNOR2110
012024032502EKTR4       010ELEKTRO     PN           R$  000000000460100000000046010000000004600000000000460000000000046000000000004507000000000459900007000000000000000800000000000003680600000000000000009999123100000010000000000000BREKTRACNPR7159
012024032502ELET3       010ELETROBRAS  ON      N1   R$  000000000418100000000042600000000004152000000000422500000000042270000000004227000000000424319735000000000006247800000000026398906700000000000000009999123100000010000000000000BRELETACNOR6159
012024032502ELET6       010ELETROBRAS  PNB     N1   R$  000000000466500000000047070000000004635000000000468200000000046810000000004681000000000468505442000000000001114900000000005220241800000000000000009999123100000010000000000000BRELETACNPB7076
012024032502ELMD3       010ELETROMIDIA ON      NM   R$  000000000168000000000016800000000001621000000000164900000000016360000000001635000000000166300159000000000000033000000000000054434200000000000000009999123100000010000000000000BRELMDACNOR3100
012024032502EMAE4       010EMAE        PN           R$  000000000696800000000071120000000006856000000000697200000000070000000000006999000000000701100029000000000000003400000000000023706000000000000000009999123100000010000000000000BREMAEACNPR1124
012024032502EMBR3       010EMBRAER     ON      NM   R$  000000000333500000000033770000000003272000000000334200000000033520000000003350000000000335233194000000000011226600000000037520192400000000000000009999123100000010000000000000BREMBRACNOR4191
012024032502ENEV3       010ENEVA       ON      NM   R$  000000000127000000000012750000000001251000000000126200000000012600000000001257000000000126109727000000000007325500000000009246833100000000000000009999123100000010000000000000BRENEVACNOR8105
012024032502ENGI11      010ENERGISA    UNT     N2   R$  000000000482700000000048520000000004732000000000477600000000047730000000004765000000000478007597000000000002265200000000010820030200000000000000009999123100000010000000000000BRENGICDAM16135
012024032502ENGI3       010ENERGISA    ON      N2   R$  000000000153500000000015400000000001511000000000152400000000015230000000001523000000000153600031000000000000003500000000000005335400000000000000009999123100000010000000000000BRENGIACNOR0145
012024032502ENGI4       010ENERGISA    PN      N2   R$  000000000082300000000008310000000000805000000000081400000000008160000000000807000000000081800053000000000000009600000000000007820300000000000000009999123100000010000000000000BRENGIACNPR7141
012024032502ENJU3       010ENJOEI      ON      NM   R$  000000000016000000000001610000000000153000000000015500000000001540000000000154000000000015500406000000000000776300000000000120365000000000000000009999123100000010000000000000BRENJUACNOR9100
012024032502EPAR3       010EMBPAR S/A  ON           R$  000000000083900000000008390000000000817000000000082800000000008270000000000820000000000082700045000000000000014300000000000011850300000000000000009999123100000010000000000000BREPARACNOR9104
012024032502EQMA3B      010EQTLMARANHAOON      MB   R$  000000000299900000000029990000000002999000000000299900000000029990000000002915000000000300000001000000000000000100000000000000299900000000000000009999123100000010000000000000BREQMAACNOR8107
012024032502EQPA3       010EQTL PARA   ON           R$  000000000082500000000008250000000000811000000000082400000000008250000000000818000000000082500021000000000000014400000000000011878500000000000000009999123100000010000000000000BREQPAACNOR1110
012024032502EQPA6       010EQTL PARA   PNB          R$  000000000090000000000009000000000000900000000000090000000000009000000000000765000000000100000001000000000000000600000000000000540000000000000000009999123100000010000000000000BREQPAACNPB2110
012024032502EQTL3       010EQUATORIAL  ON      NM   R$  000000000332200000000033450000000003297000000000332000000000033240000000003322000000000333010947000000000003117000000000010351029900000000000000009999123100000010000000000000BREQTLACNOR0129
012024032502PRNR3       010PRINER      ON      NM   R$  000000000122300000000012260000000001199000000000121000000000011990000000001199000000000120800518000000000000109900000000000132982300000000000000009999123100000010000000000000BRPRNRACNOR4108
012024032502PSSA3       010PORTO SEGUROON      NM   R$  000000000309500000000031200000000003076000000000309700000000030930000000003093000000000309703453000000000000722300000000002237263200000000000000009999123100000010000000000000BRPSSAACNOR7153
012024032502PTBL3       010PORTOBELLO  ON      NM   R$  000000000068900000000006970000000000664000000000067600000000006720000000000672000000000067501329000000000000600300000000000406029500000000000000009999123100000010000000000000BRPTBLACNOR8132
012024032502PTNT3       010PETTENATI   ON           R$  000000000127000000000013440000000001270000000000129600000000013310000000001290000000000135900009000000000000001000000000000001296600000000000000009999123100000010000000000000BRPTNTACNOR6042
012024032502PTNT4       010PETTENATI   PN           R$  000000000078900000000007940000000000771000000000078000000000007900000000000790000000000079900042000000000000012900000000000010069400000000000000009999123100000010000000000000BRPTNTACNPR3047
012024032502BMOB3       010BEMOBI TECH ON      NM   R$  000000000138300000000013830000000001349000000000136100000000013640000000001362000000000136600515000000000000127900000000000174086500000000000000009999123100000010000000000000BRBMOBACNOR7103
012024032502BOBR4       010BOMBRIL     PN           R$  000000000022900000000002300000000000224000000000022500000000002240000000000225000000000022700025000000000000007900000000000001784400000000000000009999123100000010000000000000BRBOBRACNPR3128
012024032502CCRO3       010CCR SA      ON      NM   R$  000000000139700000000014000000000001348000000000136000000000013600000000001360000000000136126938000000000025064600000000034092131000000000000000009999123100000010000000000000BRCCROACNOR2144
012024032502TRIS3       010TRISUL      ON      NM   R$  000000000057100000000005710000000000550000000000055800000000005550000000000554000000000055501477000000000000432400000000000241477700000000000000009999123100000010000000000000BRTRISACNOR4116
012024032502TRPL3       010TRAN PAULISTON      N1   R$  000000000340000000000034470000000003347000000000337900000000033470000000003333000000000344200022000000000000003200000000000010814700000000000000009999123100000010000000000000BRTRPLACNOR4185
012024032502TRPL4       010TRAN PAULISTPN      N1   R$  000000000253700000000025490000000002473000000000249200000000024730000000002473000000000248709683000000000002328900000000005804666900000000000000009999123100000010000000000000BRTRPLACNPR1185
012024032502TTEN3       0103TENTOS     ON      NM   R$  000000000108800000000011000000000001075000000000108700000000010880000000001086000000000109003731000000000000659000000000000716584800000000000000009999123100000010000000000000BRTTENACNOR0103
012024032502TUPY3       010TUPY        ON      NM   R$  000000000271900000000027390000000002700000000000271700000000027160000000002705000000000271902517000000000000444300000000001207380900000000000000009999123100000010000000000000BRTUPYACNOR1183
012024032502QUAL3       010QUALICORP   ON      NM   R$  000000000022000000000002220000000000209000000000021600000000002140000000000213000000000021406471000000000006467700000000001402149100000000000000009999123100000010000000000000BRQUALACNOR6119
012024032502B3SA3       010B3          ON      NM   R$  000000000119800000000012110000000001190000000000119500000000011900000000001190000000000119239660000000000043172300000000051625767100000000000000009999123100000010000000000000BRB3SAACNOR6131
012024032502BRIT3       010BRISANET    ON      NM   R$  000000000042500000000004250000000000403000000000041100000000004050000000000404000000000040501855000000000000923100000000000380277800000000000000009999123100000010000000000000BRBRITACNOR0102
012024032502BRIV4       010ALFA INVEST PN           R$  000000000124000000000012530000000001240000000000124400000000012530000000001253000000000126000002000000000000000300000000000000373300000000000000009999123100000010000000000000BRBRIVACNPR3218
012024032502BRKM3       010BRASKEM     ON      N1   R$  000000000267600000000026760000000002502000000000259800000000025120000000002494000000000253900355000000000000107700000000000279902700000000000000009999123100000010000000000000BRBRKMACNOR1119
012024032502BRKM5       010BRASKEM     PNA     N1   R$  000000000269700000000027130000000002574000000000263200000000026060000000002602000000000260816297000000000005459400000000014371548700000000000000009999123100000010000000000000BRBRKMACNPA4121
012024032502BRKM6       010BRASKEM     PNB     N1   R$  000000000151800000000015180000000001518000000000151800000000015180000000001400000000000178900001000000000000000100000000000000151800000000000000009999123100000010000000000000BRBRKMACNPB2114
012024032502UCAS3       010UNICASA     ON      NM   R$  000000000027000000000002720000000000263000000000026600000000002630000000000262000000000026300059000000000000015900000000000004241700000000000000009999123100000010000000000000BRUCASACNOR1113
012024032502UGPA3       010ULTRAPAR    ON      NM   R$  000000000278000000000028080000000002763000000000278400000000027810000000002781000000000278614413000000000003764600000000010482092300000000000000009999123100000010000000000000BRUGPAACNOR8155
012024032502UNIP3       010UNIPAR      ON  ED       R$  000000000633400000000063380000000006259000000000630000000000062590000000006254000000000625900051000000000000007000000000000044101900000000000000009999123100000010000000000000BRUNIPACNOR7205
012024032502UNIP6       010UNIPAR      PNB ED       R$  000000000676300000000067630000000006620000000000666700000000066200000000006619000000000665300588000000000000096600000000000644080400000000000000009999123100000010000000000000BRUNIPACNPB8205
012024032502CSRN3       010COSERN      ON           R$  000000000243000000000024660000000002430000000000244800000000024660000000002341000000000247500002000000000000000200000000000000489600000000000000009999123100000010000000000000BRCSRNACNOR0190
012024032502CSUD3       010CSU DIGITAL ON  EJ  NM   R$  000000000212900000000021290000000002045000000000206200000000020500000000002050000000000205800231000000000000052100000000000107477800000000000000009999123100000010000000000000BRCSUDACNOR5108
012024032502CTKA4       010KARSTEN     PN           R$  000000000174500000000017450000000001745000000000174500000000017450000000001576000000000174500001000000000000000100000000000000174500000000000000009999123100000010000000000000BRCTKAACNPR7043
012024032502CTNM4       010COTEMINAS   PN           R$  000000000012600000000001320000000000125000000000012800000000001250000000000125000000000012600067000000000000043600000000000005586600000000000000009999123100000010000000000000BRCTNMACNPR6129
012024032502CTSA3       010SANTANENSE  ON           R$  000000000030500000000003060000000000305000000000030500000000003050000000000304000000000031000006000000000000003400000000000001037500000000000000009999123100000010000000000000BRCTSAACNOR3062
012024032502CTSA4       010SANTANENSE  PN           R$  000000000017000000000001700000000000161000000000016300000000001610000000000160000000000016400051000000000000022200000000000003619400000000000000009999123100000010000000000000BRCTSAACNPR0062
012024032502CURY3       010CURY S/A    ON      NM   R$  000000000205400000000020540000000001979000000000199600000000019830000000001983000000000199103499000000000000739700000000001476622600000000000000009999123100000010000000000000BRCURYACNOR3107
012024032502CVCB3       010CVC BRASIL  ON      NM   R$  000000000032600000000003330000000000323000000000032800000000003300000000000330000000000033106874000000000008794300000000002891242300000000000000009999123100000010000000000000BRCVCBACNOR1115
012024032502CEAB3       010CEA MODAS   ON  ATZ NM   R$  000000000092000000000009420000000000914000000000092800000000009280000000000928000000000093004158000000000002424700000000002250667200000000000000009999123100000010000000000000BRCEABACNOR1102
012024032502CEBR3       010CEB         ON           R$  000000000197200000000019890000000001961000000000198000000000019890000000001990000000000199900011000000000000001600000000000003168900000000000000009999123100000010000000000000BRCEBRACNOR5124
012024032502CEBR5       010CEB         PNA          R$  000000000187800000000018800000000001853000000000187300000000018680000000001853000000000186800026000000000000007300000000000013672900000000000000009999123100000010000000000000BRCEBRACNPA8123
012024032502CEBR6       010CEB         PNB          R$  000000000204000000000020990000000002002000000000203000000000020160000000002016000000000205700057000000000000011700000000000023751400000000000000009999123100000010000000000000BRCEBRACNPB6123
012024032502CEDO4       010CEDRO       PN      N1   R$  000000000301600000000032000000000003016000000000308800000000030740000000003074000000000315000019000000000000002800000000000008648500000000000000009999123100000010000000000000BRCEDOACNPR5128
012024032502CEEB3       010COELBA      ON           R$  000000000389000000000038900000000003890000000000389000000000038900000000003900000000000396500002000000000000000300000000000001167000000000000000009999123100000010000000000000BRCEEBACNOR3196
012024032502CGAS3       010COMGAS      ON           R$  000000001050000000000105000000000010500000000001050000000000105000000000009720000000001060000001000000000000000100000000000001050000000000000000009999123100000010000000000000BRCGASACNOR0162
012024032502CGAS5       010COMGAS      PNA          R$  000000001121000000000112100000000011022000000001113000000000110500000000011050000000001120000007000000000000000700000000000007791300000000000000009999123100000010000000000000BRCGASACNPA3159
012024032502CGRA3       010GRAZZIOTIN  ON           R$  000000000269800000000026980000000002698000000000269800000000026980000000002651000000000277900003000000000000000300000000000000809400000000000000009999123100000010000000000000BRCGRAACNOR2081
012024032502CGRA4       010GRAZZIOTIN  PN           R$  000000000277100000000028120000000002771000000000278600000000027950000000002781000000000279500014000000000000001900000000000005294600000000000000009999123100000010000000000000BRCGRAACNPR9081
012024032502CIEL3       010CIELO       ON  EJ  NM   R$  000000000051100000000005230000000000511000000000051800000000005220000000000521000000000052309466000000000020751200000000010767864500000000000000009999123100000010000000000000BRCIELACNOR3157
012024032502WEST3       010WESTWING    ON      NM   R$  000000000012700000000001270000000000121000000000012400000000001270000000000125000000000012700070000000000000023100000000000002882700000000000000009999123100000010000000000000BRWESTACNOR3100
012024032502WHRL3       010WHIRLPOOL   ON           R$  000000000045500000000004550000000000450000000000045300000000004540000000000450000000000045400005000000000000000600000000000000271800000000000000009999123100000010000000000000BRWHRLACNOR5128
012024032502WHRL4       010WHIRLPOOL   PN           R$  000000000046000000000004670000000000452000000000045500000000004600000000000460000000000046400028000000000000008300000000000003782800000000000000009999123100000010000000000000BRWHRLACNPR2128
012024032502WIZC3       010WIZ CO      ON      NM   R$  000000000064900000000006490000000000638000000000064100000000006400000000000640000000000064301047000000000000233000000000000149415300000000000000009999123100000010000000000000BRWIZCACNOR5101
012024032502WLMM4       010WLM IND COM PN           R$  000000000235500000000023550000000002252000000000226800000000022520000000002252000000000227000043000000000000007000000000000015876000000000000000009999123100000010000000000000BRWLMMACNPR3117
012024032502TELB4       010TELEBRAS    PN           R$  000000000100000000000010050000000001000000000000100000000000010050000000000997000000000103000003000000000000001000000000000001000500000000000000009999123100000010000000000000BRTELBACNPR9140
012024032502TEND3       010TENDA       ON      NM   R$  000000000124000000000012690000000001217000000000124500000000012290000000001228000000000123008012000000000002626100000000003269944200000000000000009999123100000010000000000000BRTENDACNOR4111
012024032502TFCO4       010TRACK FIELD PN      N2   R$  000000000120800000000012220000000001200000000000121200000000012190000000001218000000000121900140000000000000034100000000000041340700000000000000009999123100000010000000000000BRTFCOACNPR8111
012024032502TGMA3       010TEGMA       ON      NM   R$  000000000282600000000028360000000002665000000000278200000000027770000000002768000000000277701206000000000000233400000000000649474800000000000000009999123100000010000000000000BRTGMAACNOR7143
012024032502TIMS3       010TIM         ON  EJ  NM   R$  000000000182100000000018270000000001792000000000180400000000017920000000001791000000000179313827000000000006577100000000011869184300000000000000009999123100000010000000000000BRTIMSACNOR5115
012024032502TKNO4       010TEKNO       PN           R$  000000000698500000000073000000000006985000000000705100000000073000000000006600000000000895000004000000000000000500000000000003525500000000000000009999123100000010000000000000BRTKNOACNPR5074
012024032502LAND3       010TERRASANTAPAON      NM   R$  000000000163700000000016370000000001537000000000157300000000015370000000001537000000000154200335000000000000051600000000000081216800000000000000009999123100000010000000000000BRLANDACNOR9102
012024032502LAVV3       010LAVVI       ON  ED  NM   R$  000000000092500000000009310000000000908000000000091700000000009100000000000907000000000091002491000000000001107000000000001015786200000000000000009999123100000010000000000000BRLAVVACNOR4111
012024032502LEVE3       010METAL LEVE  ON      NM   R$  000000000334500000000033680000000003315000000000334100000000033150000000003315000000000332000980000000000000224500000000000750205100000000000000009999123100000010000000000000BRLEVEACNOR2196
012024032502YDUQ3       010YDUQS PART  ON      NM   R$  000000000185900000000018970000000001852000000000187500000000018660000000001866000000000186811823000000000002104100000000003947261200000000000000009999123100000010000000000000BRYDUQACNOR3104
012024032502RAIZ4       010RAIZEN      PN  ED  N2   R$  000000000034100000000003420000000000333000000000033500000000003360000000000335000000000033617110000000000016337500000000005487916600000000000000009999123100000010000000000000BRRAIZACNPR6110
012024032502RANI3       010IRANI       ON      NM   R$  000000000091300000000009330000000000909000000000092400000000009220000000000922000000000092302343000000000000870000000000000803908200000000000000009999123100000010000000000000BRRANIACNOR5070
012024032502RAPT3       010RANDON PART ON      N1   R$  000000000109000000000010960000000001081000000000109000000000010910000000001091000000000109900045000000000000011900000000000012976500000000000000009999123100000010000000000000BRRAPTACNOR7162
012024032502RAPT4       010RANDON PART PN      N1   R$  000000000125000000000012620000000001240000000000125000000000012520000000001250000000000125202456000000000000586700000000000733524600000000000000009999123100000010000000000000BRRAPTACNPR4162
012024032502CXSE3       010CAIXA SEGURION      NM   R$  000000000163000000000016330000000001590000000000160600000000015930000000001593000000000159509821000000000003529300000000005668971800000000000000009999123100000010000000000000BRCXSEACNOR7105
012024032502CYRE3       010CYRELA REALTON      NM   R$  000000000242100000000024400000000002400000000000241700000000024170000000002413000000000242207927000000000002865800000000006928372800000000000000009999123100000010000000000000BRCYREACNOR7139
012024032502HBOR3       010HELBOR      ON      NM   R$  000000000028300000000002890000000000281000000000028400000000002820000000000282000000000028300353000000000000194200000000000055262200000000000000009999123100000010000000000000BRHBORACNOR3117
012024032502HBRE3       010HBR REALTY  ON      NM   R$  000000000068000000000006850000000000647000000000066700000000006590000000000655000000000066002637000000000001810500000000001208662500000000000000009999123100000010000000000000BRHBREACNOR4100
012024032502HBSA3       010HIDROVIAS   ON      NM   R$  000000000039300000000004100000000000378000000000040100000000004090000000000407000000000040912142000000000028128300000000011291929200000000000000009999123100000010000000000000BRHBSAACNOR0100
012024032502HBTS5       010HABITASUL   PNA          R$  000000000439000000000043900000000004300000000000435000000000043000000000004079000000000420000008000000000000000900000000000003915500000000000000009999123100000010000000000000BRHBTSACNPA3127
012024032502HYPE3       010HYPERA      ON  EJ  NM   R$  000000000343100000000034360000000003373000000000340400000000034100000000003410000000000341405320000000000001092600000000003719310700000000000000009999123100000010000000000000BRHYPEACNOR0139
012024032502TOTS3       010TOTVS       ON      NM   R$  000000000303900000000030560000000003000000000000302700000000030240000000003022000000000303206704000000000001668700000000005052011400000000000000009999123100000010000000000000BRTOTSACNOR8144
012024032502VLID3       010VALID       ON      NM   R$  000000000187500000000018960000000001832000000000185800000000018500000000001848000000000185701788000000000000431000000000000800989900000000000000009999123100000010000000000000BRVLIDACNOR5141
012024032502VSTE3       010VESTE       ON      NM   R$  000000000144800000000014800000000001340000000000143700000000014800000000001480000000000149900108000000000000026800000000000038538200000000000000009999123100000010000000000000BRVSTEACNOR5102
012024032502VULC3       010VULCABRAS   ON  ED  NM   R$  000000000173700000000017500000000001709000000000172500000000017210000000001721000000000172202530000000000000552100000000000952422800000000000000009999123100000010000000000000BRVULCACNOR2158
012024032502VVEO3       010VIVEO       ON      NM   R$  000000000069600000000007010000000000641000000000065800000000006500000000000650000000000065104030000000000001252300000000000824877300000000000000009999123100000010000000000000BRVVEOACNOR0103
012024032502EALT3       010ACO ALTONA  ON           R$  000000000100000000000010000000000001000000000000100000000000010000000000001000000000000103700001000000000000000500000000000000500000000000000000009999123100000010000000000000BREALTACNOR4137
012024032502EALT4       010ACO ALTONA  PN           R$  000000000108000000000010800000000001050000000000105400000000010670000000001043000000000106500009000000000000001400000000000001476700000000000000009999123100000010000000000000BREALTACNPR1137
012024032502ECOR3       010ECORODOVIAS ON      NM   R$  000000000086900000000008690000000000844000000000085100000000008470000000000846000000000084711753000000000008849700000000007538545400000000000000009999123100000010000000000000BRECORACNOR8119
012024032502EGIE3       010ENGIE BRASILON      NM   R$  000000000402700000000040280000000004002000000000401500000000040130000000004012000000000401603192000000000000789600000000003170905700000000000000009999123100000010000000000000BREGIEACNOR9125
012024032502ENAT3       010ENAUTA PART ON      NM   R$  000000000271600000000028780000000002665000000000280500000000028610000000002860000000000286207095000000000002659000000000007460299500000000000000009999123100000010000000000000BRENATACNOR0104
012024032502INEP3       010INEPAR      ON           R$  000000000029100000000003090000000000291000000000029900000000003040000000000300000000000030500239000000000000115700000000000034629500000000000000009999123100000010000000000000BRINEPACNOR1143
012024032502INEP4       010INEPAR      PN           R$  000000000026100000000002720000000000255000000000026400000000002700000000000259000000000026900180000000000000057900000000000015333900000000000000009999123100000010000000000000BRINEPACNPR8143
012024032502WEGE3       010WEG         ON  EJ  NM   R$  000000000395600000000039680000000003898000000000391600000000039040000000003902000000000390711527000000000003554400000000013919137500000000000000009999123100000010000000000000BRWEGEACNOR0222
012024032502RADL3       010RAIADROGASILON      NM   R$  000000000271000000000027310000000002700000000000271200000000027070000000002706000000000271210013000000000003571700000000009687855600000000000000009999123100000010000000000000BRRADLACNOR0154
012024032502RAIL3       010RUMO S.A.   ON      NM   R$  000000000218800000000021990000000002175000000000218500000000021840000000002183000000000218515204000000000005228500000000011429439900000000000000009999123100000010000000000000BRRAILACNOR9104
012024032502SYNE3       010SYN PROP TECON      NM   R$  000000000086500000000008750000000000852000000000086200000000008630000000000861000000000086301119000000000000329100000000000283859000000000000000009999123100000010000000000000BRSYNEACNOR2102
012024032502AURE3       010AUREN       ON      NM   R$  000000000119600000000012000000000001184000000000119000000000011850000000001185000000000118705068000000000002264900000000002695564200000000000000009999123100000010000000000000BRAUREACNOR9104
012024032502AVLL3       010ALPHAVILLE  ON      NM   R$  000000000041400000000004140000000000414000000000041100000000004140000000000409000000000041400002000000000000000200000000000000082300000000000000009999123100000010000000000000BRAVLLACNOR5103
012024032502AZEV3       010AZEVEDO     ON           R$  000000000014300000000001430000000000132000000000013600000000001340000000000134000000000013500526000000000000954200000000000130540600000000000000009999123100000010000000000000BRAZEVACNOR0121
012024032502AZEV4       010AZEVEDO     PN           R$  000000000013700000000001370000000000128000000000013100000000001310000000000130000000000013100928000000000002207700000000000289825000000000000000009999123100000010000000000000BRAZEVACNPR7121
012024032502AZUL4       010AZUL        PN      N2   R$  000000000139100000000014200000000001390000000000140400000000014080000000001407000000000140809645000000000005039600000000007078538600000000000000009999123100000010000000000000BRAZULACNPR4102
012024032502BRSR3       010BANRISUL    ON  EJ  N1   R$  000000000134900000000013640000000001316000000000134500000000013160000000001316000000000134400038000000000000007000000000000009416200000000000000009999123100000010000000000000BRBRSRACNOR3186
012024032502BRSR6       010BANRISUL    PNB EJ  N1   R$  000000000136700000000013830000000001343000000000136200000000013490000000001349000000000135003446000000000001083400000000001476473500000000000000009999123100000010000000000000BRBRSRACNPB4189
012024032502CAMB3       010CAMBUCI     ON           R$  000000000111900000000011700000000001094000000000113100000000011310000000001131000000000113900259000000000000079700000000000090159400000000000000009999123100000010000000000000BRCAMBACNOR4127
012024032502CAML3       010CAMIL       ON      NM   R$  000000000087400000000008740000000000860000000000086400000000008650000000000865000000000086600948000000000000259100000000000223942600000000000000009999123100000010000000000000BRCAMLACNOR3127
012024032502CASH3       010MELIUZ      ON      NM   R$  000000000076500000000007710000000000744000000000075300000000007480000000000747000000000074805864000000000002395700000000001805818000000000000000009999123100000010000000000000BRCASHACNOR8105
012024032502CBAV3       010CBA         ON      NM   R$  000000000040800000000004240000000000405000000000041500000000004170000000000415000000000041708453000000000003557900000000001476560500000000000000009999123100000010000000000000BRCBAVACNOR5104
012024032502IFCM3       010INFRACOMM   ON      NM   R$  000000000010200000000001030000000000089000000000009300000000000910000000000091000000000009205830000000000024079800000000002259121900000000000000009999123100000010000000000000BRIFCMACNOR8101
012024032502IGTI11      010IGUATEMI S.AUNT     N1   R$  000000000239000000000023900000000002349000000000236100000000023660000000002366000000000236709833000000000002461300000000005812185300000000000000009999123100000010000000000000BRIGTICDAM16105
012024032502IGTI3       010IGUATEMI S.AON      N1   R$  000000000032600000000003340000000000322000000000032700000000003290000000000328000000000033200174000000000000063900000000000020943900000000000000009999123100000010000000000000BRIGTIACNOR8105
012024032502IGTI4       010IGUATEMI S.APN      N1   R$  000000000101100000000010160000000001011000000000101800000000010150000000001000000000000103000004000000000000000400000000000000407200000000000000009999123100000010000000000000BRIGTIACNPR5105
012024032502LUPA3       010LUPATECH    ON      NM   R$  000000000019700000000002040000000000190000000000019200000000001900000000000190000000000019200550000000000000412000000000000079438700000000000000009999123100000010000000000000BRLUPAACNOR8112
012024032502LVTC3       010WDC NETWORKSON      NM   R$  000000000037400000000003860000000000374000000000037900000000003850000000000379000000000038500078000000000000040700000000000015426300000000000000009999123100000010000000000000BRLVTCACNOR4102
012024032502LWSA3       010LWSA        ON      NM   R$  000000000058300000000005940000000000575000000000058500000000005870000000000586000000000058808810000000000006026600000000003530982900000000000000009999123100000010000000000000BRLWSAACNOR8103
012024032502INTB3       010INTELBRAS   ON  EJ  NM   R$  000000000208000000000020970000000002069000000000208700000000020900000000002087000000000209701780000000000000481500000000001005079300000000000000009999123100000010000000000000BRINTBACNOR9111
012024032502IRBR3       010IRBBRASIL REON      NM   R$  000000000389400000000038980000000003811000000000384200000000038320000000003831000000000383203899000000000001029200000000003954453200000000000000009999123100000010000000000000BRIRBRACNOR4111
012024032502MDNE3       010MOURA DUBEUXON      NM   R$  000000000123800000000012380000000001194000000000120600000000011940000000001193000000000119401258000000000000457000000000000551312600000000000000009999123100000010000000000000BRMDNEACNOR9100
012024032502MEAL3       010IMC S/A     ON      NM   R$  000000000022100000000002240000000000213000000000021700000000002140000000000214000000000021600502000000000000561700000000000121892300000000000000009999123100000010000000000000BRMEALACNOR9105
012024032502MELK3       010MELNICK     ON      NM   R$  000000000048500000000004850000000000475000000000048000000000004800000000000479000000000048000217000000000000124400000000000059762700000000000000009999123100000010000000000000BRMELKACNOR8110
012024032502MGEL4       010MANGELS INDLPN           R$  000000000159000000000016360000000001590000000000160900000000016000000000001600000000000163400008000000000000000900000000000001448800000000000000009999123100000010000000000000BRMGELACNPR3147
012024032502TAEE11      010TAESA       UNT     N2   R$  000000000360100000000036220000000003582000000000359600000000035820000000003582000000000358505790000000000001155600000000004156084500000000000000009999123100000010000000000000BRTAEECDAM10145
012024032502TAEE3       010TAESA       ON      N2   R$  000000000119300000000011990000000001187000000000119100000000011880000000001188000000000119000431000000000000085400000000000101739000000000000000009999123100000010000000000000BRTAEEACNOR9145
012024032502TAEE4       010TAESA       PN      N2   R$  000000000120500000000012100000000001199000000000120300000000012000000000001200000000000120100539000000000000137700000000000165746200000000000000009999123100000010000000000000BRTAEEACNPR6145
012024032502MGLU3       010MAGAZ LUIZA ON      NM   R$  000000000019200000000001940000000000185000000000019000000000001910000000000191000000000019231734000000000155243700000000029543736000000000000000009999123100000010000000000000BRMGLUACNOR2123
012024032502BAHI3       010BAHEMA      ON      MA   R$  000000000082400000000008240000000000824000000000082400000000008240000000000801000000000082100002000000000000000200000000000000164800000000000000009999123100000010000000000000BRBAHIACNOR1074
012024032502BALM3       010BAUMER      ON           R$  000000000120000000000012000000000001199000000000119900000000012000000000000985000000000119900003000000000000000400000000000000479900000000000000009999123100000010000000000000BRBALMACNOR5055
012024032502BAZA3       010AMAZONIA    ON           R$  000000000986000000000098600000000009860000000000986000000000098600000000009821000000000996600003000000000000000300000000000002958000000000000000009999123100000010000000000000BRBAZAACNOR0178
012024032502BBAS3       010BRASIL      ON      NM   R$  000000000554300000000056130000000005527000000000557200000000055630000000005562000000000556419590000000000006450700000000035948284700000000000000009999123100000010000000000000BRBBASACNOR3321
012024032502VITT3       010VITTIA      ON      NM   R$  000000000072000000000007210000000000697000000000070500000000007020000000000701000000000070601325000000000000850800000000000599987000000000000000009999123100000010000000000000BRVITTACNOR4106
012024032502VIVA3       010VIVARA S.A. ON      NM   R$  000000000265100000000026550000000002550000000000259100000000025560000000002556000000000255923077000000000011386700000000029504835800000000000000009999123100000010000000000000BRVIVAACNOR0106
012024032502VIVR3       010VIVER       ON      NM   R$  000000000031200000000003130000000000303000000000030600000000003050000000000305000000000030900088000000000000063800000000000019577300000000000000009999123100000010000000000000BRVIVRACNOR4122
012024032502VIVT3       010TELEF BRASILON           R$  000000000516000000000051680000000005024000000000506000000000050240000000005023000000000502909601000000000003275800000000016578143700000000000000009999123100000010000000000000BRVIVTACNOR0178
012024032502SMFT3       010SMART FIT   ON      NM   R$  000000000265700000000026760000000002618000000000263900000000026460000000002646000000000264702706000000000000788000000000002080048800000000000000009999123100000010000000000000BRSMFTACNOR1111
012024032502SMTO3       010SAO MARTINHOON      NM   R$  000000000286000000000028600000000002800000000000282900000000028330000000002825000000000283403547000000000000906800000000002566086200000000000000009999123100000010000000000000BRSMTOACNOR3125
012024032502SRNA3       010SERENA      ON      NM   R$  000000000094500000000009520000000000910000000000092800000000009160000000000913000000000091602847000000000000870300000000000808369000000000000000009999123100000010000000000000BRSRNAACNOR4100
012024032502STBP3       010SANTOS BRP  ON  ED  NM   R$  000000000129900000000013250000000001284000000000129900000000013050000000001305000000000130812564000000000004809200000000006247409600000000000000009999123100000010000000000000BRSTBPACNOR3129
012024032502SUZB3       010SUZANO S.A. ON      NM   R$  000000000621500000000062300000000006141000000000617100000000061620000000006161000000000617017968000000000004278700000000026405840900000000000000009999123100000010000000000000BRSUZBACNOR0129
012024032502VAMO3       010VAMOS       ON      NM   R$  000000000085500000000008650000000000839000000000084800000000008460000000000846000000000084718100000000000006131300000000005204057900000000000000009999123100000010000000000000BRVAMOACNOR7105
012024032502VBBR3       010VIBRA       ON      NM   R$  000000000247200000000025260000000002461000000000250400000000025150000000002512000000000251719791000000000007328800000000018354782500000000000000009999123100000010000000000000BRVBBRACNOR1106
012024032502SCAR3       010SAO CARLOS  ON      NM   R$  000000000265700000000026580000000002650000000000265500000000026580000000002558000000000265800006000000000000000700000000000001858900000000000000009999123100000010000000000000BRSCARACNOR7130
012024032502PNVL3       010DIMED       ON      NM   R$  000000000122000000000012280000000001208000000000121600000000012100000000001210000000000121701017000000000000168700000000000205164700000000000000009999123100000010000000000000BRPNVLACNOR9205
012024032502POMO3       010MARCOPOLO   ON      N2   R$  000000000060500000000006050000000000579000000000058600000000005830000000000582000000000058700559000000000000225000000000000132068600000000000000009999123100000010000000000000BRPOMOACNOR0097
012024032502POMO4       010MARCOPOLO   PN      N2   R$  000000000077600000000007790000000000753000000000076200000000007610000000000759000000000076210623000000000005545100000000004230843800000000000000009999123100000010000000000000BRPOMOACNPR7097
012024032502PORT3       010WILSON SONS ON      NM   R$  000000000178600000000017900000000001763000000000178000000000017890000000001775000000000178901188000000000000463100000000000824322200000000000000009999123100000010000000000000BRPORTACNOR8106
012024032502POSI3       010POSITIVO TECON      NM   R$  000000000088000000000008850000000000865000000000087400000000008680000000000868000000000087501825000000000000661300000000000578389800000000000000009999123100000010000000000000BRPOSIACNOR9115
012024032502PRIO3       010PETRORIO    ON      NM   R$  000000000469000000000048110000000004634000000000474400000000047670000000004766000000000476920561000000000007832200000000037157566900000000000000009999123100000010000000000000BRPRIOACNOR1106
012024032502ATOM3       010ATOMPAR     ON           R$  000000000019600000000002010000000000189000000000019300000000002010000000000195000000000020100060000000000000023500000000000004544600000000000000009999123100000010000000000000BRATOMACNOR1106
012024032502BHIA3       010CASAS BAHIA ON      NM   R$  000000000068000000000006800000000000652000000000066300000000006600000000000659000000000066007650000000000006865300000000004556441000000000000000009999123100000010000000000000BRBHIAACNOR1101
012024032502BRBI11      010BR PARTNERS UNT ED  N2   R$  000000000157800000000015940000000001558000000000158100000000015800000000001575000000000158100998000000000000140100000000000221533800000000000000009999123100000010000000000000BRBRBICDAM10108
012024032502BRFS3       010BRF SA      ON      NM   R$  000000000163100000000016690000000001624000000000164300000000016280000000001627000000000162812765000000000004358100000000007163684300000000000000009999123100000010000000000000BRBRFSACNOR8121
012024032502BRGE12      010ALFA CONSORCPNF          R$  000000000134700000000013470000000001347000000000134700000000013470000000001347000000000140000001000000000000000100000000000000134700000000000000009999123100000010000000000000BRBRGEACNPF8098
012024032502CSED3       010CRUZEIRO EDUON      NM   R$  000000000046900000000004810000000000462000000000046600000000004640000000000464000000000046700581000000000000165600000000000077302600000000000000009999123100000010000000000000BRCSEDACNOR9104
012024032502CSMG3       010COPASA      ON      NM   R$  000000000213000000000021900000000002129000000000216600000000021700000000002169000000000217007482000000000001785300000000003867578300000000000000009999123100000010000000000000BRCSMGACNOR5171
012024032502CSNA3       010SID NACIONALON           R$  000000000158500000000016040000000001565000000000158100000000015700000000001569000000000157012080000000000004521200000000007150833700000000000000009999123100000010000000000000BRCSNAACNOR6260
012024032502GRND3       010GRENDENE    ON      NM   R$  000000000064000000000006400000000000634000000000063700000000006390000000000637000000000063902903000000000001474800000000000940121700000000000000009999123100000010000000000000BRGRNDACNOR3172
012024032502GSHP3       010GENERALSHOPPON           R$  000000000110000000000011010000000001100000000000110000000000011000000000001080000000000140000007000000000000001300000000000001430100000000000000009999123100000010000000000000BRGSHPACNOR7102
012024032502GUAR3       010GUARARAPES  ON      NM   R$  000000000078000000000007800000000000762000000000076900000000007640000000000764000000000076502702000000000001159100000000000891652500000000000000009999123100000010000000000000BRGUARACNOR4172
012024032502HAGA3       010HAGA S/A    ON           R$  000000000026600000000002660000000000263000000000026300000000002630000000000256000000000027400004000000000000001500000000000000395100000000000000009999123100000010000000000000BRHAGAACNOR7103
012024032502HAGA4       010HAGA S/A    PN           R$  000000000011900000000001190000000000114000000000011600000000001160000000000115000000000011600016000000000000010600000000000001230000000000000000009999123100000010000000000000BRHAGAACNPR4103
012024032502HAPV3       010HAPVIDA     ON      NM   R$  000000000039000000000003930000000000380000000000038500000000003850000000000385000000000038624355000000000034686200000000013374491700000000000000009999123100000010000000000000BRHAPVACNOR4113
012024032502JSLG3       010JSL         ON      NM   R$  000000000123400000000012420000000001192000000000120800000000011930000000001192000000000120400857000000000000185700000000000224351100000000000000009999123100000010000000000000BRJSLGACNOR2121
012024032502KEPL3       010KEPLER WEBERON      NM   R$  000000000105900000000010690000000001045000000000105400000000010490000000001049000000000105303084000000000000833500000000000879127200000000000000009999123100000010000000000000BRKEPLACNOR1061
012024032502KLBN11      010KLABIN S/A  UNT     N2   R$  000000000243400000000024580000000002393000000000241500000000024170000000002415000000000241712365000000000003309300000000007993200100000000000000009999123100000010000000000000BRKLBNCDAM18140
012024032502KLBN3       010KLABIN S/A  ON      N2   R$  000000000048900000000004910000000000478000000000048300000000004820000000000480000000000048200516000000000000158000000000000076395100000000000000009999123100000010000000000000BRKLBNACNOR2168
012024032502KLBN4       010KLABIN S/A  PN      N2   R$  000000000048500000000004910000000000479000000000048300000000004830000000000482000000000048401688000000000000975200000000000471743600000000000000009999123100000010000000000000BRKLBNACNPR9168
012024032502ODPV3       010ODONTOPREV  ON      NM   R$  000000000126200000000012620000000001198000000000121600000000011980000000001197000000000119801707000000000000721600000000000877544000000000000000009999123100000010000000000000BRODPVACNOR4198
012024032502OFSA3       010OUROFINO S/AON      NM   R$  000000000244400000000025040000000002418000000000246900000000024880000000002480000000000248900031000000000000005200000000000012842600000000000000009999123100000010000000000000BROFSAACNOR7117
012024032502ONCO3       010ONCOCLINICASON      NM   R$  000000000097500000000009970000000000960000000000098700000000009900000000000990000000000099504019000000000000921800000000000910409100000000000000009999123100000010000000000000BRONCOACNOR6100
012024032502OPCT3       010OCEANPACT   ON      NM   R$  000000000060000000000006040000000000591000000000059800000000005960000000000593000000000059800639000000000000347200000000000207764800000000000000009999123100000010000000000000BROPCTACNOR0100
012024032502ORVR3       010ORIZON      ON      NM   R$  000000000386200000000039090000000003844000000000387400000000038860000000003885000000000389200938000000000000152300000000000590139900000000000000009999123100000010000000000000BRORVRACNOR0101
012024032502DXCO3       010DEXCO       ON      NM   R$  000000000079300000000007970000000000770000000000078000000000007750000000000774000000000077513251000000000003811200000000002973144400000000000000009999123100000010000000000000BRDXCOACNOR8105
012024032502MAPT3       010CEMEPE      ON           R$  000000000062000000000006200000000000600000000000060300000000006000000000000501000000000079000006000000000000000700000000000000422500000000000000009999123100000010000000000000BRMAPTACNOR8106
012024032502MAPT4       010CEMEPE      PN           R$  000000000053100000000005700000000000500000000000050600000000005000000000000450000000000056500018000000000000005000000000000002531200000000000000009999123100000010000000000000BRMAPTACNPR5106
012024032502MATD3       010MATER DEI   ON      NM   R$  000000000062700000000006270000000000608000000000061500000000006110000000000609000000000061200787000000000000966600000000000594894900000000000000009999123100000010000000000000BRMATDACNOR4103
012024032502MBLY3       010MOBLY       ON      NM   R$  000000000024300000000002430000000000234000000000023700000000002390000000000237000000000023900593000000000000433000000000000103046700000000000000009999123100000010000000000000BRMBLYACNOR5100
012024032502MDIA3       010M.DIASBRANCOON  EJ  NM   R$  000000000397700000000039800000000003908000000000394800000000039500000000003949000000000395003522000000000000707100000000002792080800000000000000009999123100000010000000000000BRMDIAACNOR7134
012024032502BSLI4       010BRB BANCO   PN           R$  000000000111200000000011200000000001112000000000111700000000011200000000001057000000000113800002000000000000000300000000000000335200000000000000009999123100000010000000000000BRBSLIACNPR2192
012024032502SEER3       010SER EDUCA   ON      NM   R$  000000000063800000000006380000000000616000000000062300000000006160000000000616000000000062000770000000000000320300000000000199820500000000000000009999123100000010000000000000BRSEERACNOR5119
012024032502SEQL3       010SEQUOIA LOG ON      NM   R$  000000000004000000000000400000000000039000000000003900000000000400000000000039000000000004001916000000000003320700000000000131713500000000000000009999123100000010000000000000BRSEQLACNOR2101
012024032502SGPS3       010SPRINGS     ON      NM   R$  000000000008400000000000860000000000082000000000008300000000000840000000000083000000000008400138000000000000258000000000000021588800000000000000009999123100000010000000000000BRSGPSACNOR4104
012024032502SHOW3       010TIME FOR FUNON      NM   R$  000000000026400000000002640000000000241000000000025000000000002450000000000245000000000024700554000000000000480400000000000120364600000000000000009999123100000010000000000000BRSHOWACNOR7105
012024032502SHUL4       010SCHULZ      PN           R$  000000000069300000000006960000000000674000000000068000000000006760000000000677000000000068400778000000000000360700000000000245506500000000000000009999123100000010000000000000BRSHULACNPR4154
012024032502SIMH3       010SIMPAR      ON      NM   R$  000000000078000000000007830000000000764000000000077100000000007700000000000768000000000077205404000000000001647700000000001270698900000000000000009999123100000010000000000000BRSIMHACNOR0107
012024032502SLCE3       010SLC AGRICOLAON      NM   R$  000000000197200000000019990000000001947000000000196800000000019560000000001955000000000195710149000000000002236900000000004402531500000000000000009999123100000010000000000000BRSLCEACNOR2124
012024032502LIPR3       010ELETROPAR   ON           R$  000000000614000000000061400000000005700000000000584200000000058200000000005700000000000640000007000000000000000700000000000004090000000000000000009999123100000010000000000000BRLIPRACNOR7121
012024032502LJQQ3       010QUERO-QUERO ON      NM   R$  000000000061000000000006110000000000560000000000057500000000005700000000000570000000000057106262000000000004506200000000002593125600000000000000009999123100000010000000000000BRLJQQACNOR5104
012024032502LOGG3       010LOG COM PROPON      NM   R$  000000000230700000000023070000000002237000000000225300000000022480000000002237000000000225000733000000000000118900000000000267908300000000000000009999123100000010000000000000BRLOGGACNOR7107
012024032502LOGN3       010LOG-IN      ON      NM   R$  000000000377700000000037830000000003740000000000376300000000037400000000003740000000000378800089000000000000013200000000000049684100000000000000009999123100000010000000000000BRLOGNACNOR3105
012024032502LPSB3       010LOPES BRASILON      NM   R$  000000000022500000000002370000000000215000000000022800000000002280000000000228000000000023200501000000000000142800000000000032631800000000000000009999123100000010000000000000BRLPSBACNOR0113
012024032502LREN3       010LOJAS RENNERON  EJ  NM   R$  000000000157000000000015870000000001560000000000157200000000015690000000001568000000000157315438000000000007443800000000011704226900000000000000009999123100000010000000000000BRLRENACNOR1220
012024032502PCAR3       010P.ACUCAR-CBDON      NM   R$  000000000030100000000003040000000000293000000000030000000000003000000000000300000000000030108716000000000009837600000000002951908600000000000000009999123100000010000000000000BRPCARACNOR3167
012024032502PDGR3       010PDG REALT   ON      NM   R$  000000000002900000000000300000000000028000000000002900000000000290000000000028000000000002900241000000000000682100000000000019788600000000000000009999123100000010000000000000BRPDGRACNOR8118
012024032502PDTC3       010PADTEC      ON      NM   R$  000000000026300000000002630000000000250000000000025400000000002580000000000256000000000025800165000000000000080800000000000020589800000000000000009999123100000010000000000000BRPDTCACNOR3100
012024032502PEAB3       010PAR AL BAHIAON           R$  000000000346100000000034610000000003461000000000346100000000034610000000003100000000000390000001000000000000000100000000000000346100000000000000009999123100000010000000000000BRPEABACNOR3131
012024032502PEAB4       010PAR AL BAHIAPN           R$  000000000448800000000044880000000004488000000000448800000000044880000000004161000000000448400001000000000000000400000000000001795200000000000000009999123100000010000000000000BRPEABACNPR0131
012024032502PETR3       010PETROBRAS   ON      N2   R$  000000000369000000000037540000000003690000000000373000000000037320000000003732000000000373911128000000000008036500000000029982368400000000000000009999123100000010000000000000BRPETRACNOR9202
012024032502PETR4       010PETROBRAS   PN      N2   R$  000000000361800000000036830000000003616000000000365100000000036600000000003659000000000366038140000000000026951500000000098425327600000000000000009999123100000010000000000000BRPETRACNPR6210
012024032502ALPA4       010ALPARGATAS  PN      N1   R$  000000000094400000000009460000000000920000000000092800000000009240000000000923000000000092505337000000000001547900000000001437094700000000000000009999123100000010000000000000BRALPAACNPR7232
012024032502ALPK3       010ESTAPAR     ON      NM   R$  000000000046900000000004690000000000451000000000045900000000004510000000000451000000000045700361000000000000103600000000000047556600000000000000009999123100000010000000000000BRALPKACNOR9101
012024032502ALUP11      010ALUPAR      UNT     N2   R$  000000000310900000000031090000000003029000000000306000000000030560000000003043000000000305602584000000000000997900000000003053979000000000000000009999123100000010000000000000BRALUPCDAM15117
012024032502ALUP3       010ALUPAR      ON      N2   R$  000000000104000000000010400000000001017000000000102600000000010170000000001015000000000103300098000000000000015800000000000016218300000000000000009999123100000010000000000000BRALUPACNOR8117
012024032502ALUP4       010ALUPAR      PN      N2   R$  000000000102700000000010310000000001007000000000101800000000010080000000001008000000000101500098000000000000012500000000000012725100000000000000009999123100000010000000000000BRALUPACNPR5117
012024032502AMAR3       010LOJAS MARISAON      NM   R$  000000000017800000000001800000000000171000000000017300000000001710000000000171000000000017300602000000000000444100000000000077246600000000000000009999123100000010000000000000BRAMARACNOR4114
012024032502AMBP3       010AMBIPAR     ON      NM   R$  000000000155000000000015890000000001528000000000156100000000015840000000001580000000000158501845000000000000499000000000000779366500000000000000009999123100000010000000000000BRAMBPACNOR6103
012024032502ANIM3       010ANIMA       ON      NM   R$  000000000048900000000004970000000000478000000000048700000000004930000000000492000000000049510485000000000006091900000000002972631100000000000000009999123100000010000000000000BRANIMACNOR6107
012024032502ARML3       010ARMAC       ON      NM   R$  000000000134000000000013410000000001303000000000131500000000013160000000001316000000000132201675000000000000375000000000000493422200000000000000009999123100000010000000000000BRARMLACNOR1110
012024032502ARZZ3       010AREZZO CO   ON      NM   R$  000000000604700000000062720000000006047000000000615100000000061410000000006136000000000614609981000000000001970000000000012118906000000000000000009999123100000010000000000000BRARZZACNOR3146
012024032502ASAI3       010ASSAI       ON      NM   R$  000000000143500000000014600000000001428000000000144600000000014530000000001451000000000145417348000000000004301700000000006220461800000000000000009999123100000010000000000000BRASAIACNOR0106
012024032502BEEF3       010MINERVA     ON      NM   R$  000000000071700000000007280000000000714000000000072200000000007220000000000721000000000072209366000000000009200900000000006646308700000000000000009999123100000010000000000000BRBEEFACNOR6116
012024032502BPAC5       010BTGP BANCO  PNA     N2   R$  000000000091400000000009250000000000900000000000090700000000009000000000000900000000000092000084000000000000019400000000000017596900000000000000009999123100000010000000000000BRBPACACNPA0133
012024032502BPAN4       010BANCO PAN   PN      N1   R$  000000000094500000000009630000000000939000000000095200000000009550000000000955000000000096003557000000000001386100000000001320231200000000000000009999123100000010000000000000BRBPANACNPR1115
012024032502BRAP3       010BRADESPAR   ON      N1   R$  000000000196800000000019680000000001940000000000195100000000019500000000001942000000000195000349000000000000075300000000000146936000000000000000009999123100000010000000000000BRBRAPACNOR5147
012024032502BRAP4       010BRADESPAR   PN      N1   R$  000000000203200000000020460000000002027000000000203500000000020290000000002028000000000202904458000000000002805400000000005710505900000000000000009999123100000010000000000000BRBRAPACNPR2147
012024032502CRFB3       010CARREFOUR BRON      NM   R$  000000000135900000000013720000000001334000000000134800000000013440000000001343000000000134815182000000000004842400000000006530010000000000000000009999123100000010000000000000BRCRFBACNOR2116
012024032502CRIV3       010ALFA FINANC ON           R$  000000000069800000000006980000000000698000000000069800000000006980000000000698000000000074000001000000000000000300000000000000209400000000000000009999123100000010000000000000BRCRIVACNOR4195
012024032502CRPG5       010CRISTAL     PNA          R$  000000000333000000000033660000000003306000000000333200000000033070000000003306000000000332900023000000000000002800000000000009332100000000000000009999123100000010000000000000BRCRPGACNPA3118
012024032502CRPG6       010CRISTAL     PNB          R$  000000000336000000000033940000000003360000000000337100000000033940000000003364000000000343200002000000000000000300000000000001011400000000000000009999123100000010000000000000BRCRPGACNPB1118
012024032502CSAN3       010COSAN       ON      NM   R$  000000000163900000000016450000000001616000000000162300000000016200000000001619000000000162007684000000000004891200000000007940836900000000000000009999123100000010000000000000BRCSANACNOR6124
012024032502GGPS3       010GPS         ON      NM   R$  000000000193600000000019490000000001908000000000192100000000019200000000001919000000000192005881000000000001391900000000002674021700000000000000009999123100000010000000000000BRGGPSACNOR9102
012024032502GMAT3       010GRUPO MATEUSON      NM   R$  000000000081100000000008340000000000809000000000082300000000008230000000000821000000000082309934000000000004191000000000003450821700000000000000009999123100000010000000000000BRGMATACNOR7100
012024032502GOAU3       010GERDAU MET  ON      N1   R$  000000000103500000000010410000000001031000000000103400000000010310000000001031000000000103500166000000000000029400000000000030426800000000000000009999123100000010000000000000BRGOAUACNOR1266
012024032502GOAU4       010GERDAU MET  PN      N1   R$  000000000100700000000010140000000001001000000000100700000000010070000000001005000000000100708131000000000004336000000000004369635500000000000000009999123100000010000000000000BRGOAUACNPR8267
012024032502KRSA3       010KORA SAUDE  ON      NM   R$  000000000008700000000000870000000000084000000000008500000000000850000000000084000000000008600169000000000000118600000000000010129300000000000000009999123100000010000000000000BRKRSAACNOR0100
012024032502JALL3       010JALLESMACHADON      NM   R$  000000000076600000000007720000000000758000000000076600000000007640000000000764000000000076500715000000000000295500000000000226563800000000000000009999123100000010000000000000BRJALLACNOR0105
012024032502JBSS3       010JBS         ON      NM   R$  000000000230700000000023120000000002257000000000228400000000022760000000002275000000000227907509000000000005119500000000011694496100000000000000009999123100000010000000000000BRJBSSACNOR8121
012024032502JHSF3       010JHSF PART   ON      NM   R$  000000000042500000000004250000000000418000000000042100000000004200000000000420000000000042102364000000000001533100000000000646263400000000000000009999123100000010000000000000BRJHSFACNOR2133
012024032502MTRE3       010MITRE REALTYON      NM   R$  000000000048800000000005020000000000482000000000049300000000004860000000000486000000000048701536000000000001198600000000000591121300000000000000009999123100000010000000000000BRMTREACNOR6109
012024032502MTSA4       010METISA      PN           R$  000000000484700000000048870000000004780000000000483000000000048870000000004770000000000488800012000000000000002200000000000010626300000000000000009999123100000010000000000000BRMTSAACNPR9071
012024032502MULT3       010MULTIPLAN   ON      N2   R$  000000000259700000000026130000000002587000000000259700000000025940000000002593000000000260110051000000000002061000000000005353435300000000000000009999123100000010000000000000BRMULTACNOR5137
012024032502ITSA3       010ITAUSA      ON  EJ  N1   R$  000000000104000000000010400000000001021000000000102500000000010240000000001023000000000102400478000000000000162000000000000166168300000000000000009999123100000010000000000000BRITSAACNOR0439
012024032502ITSA4       010ITAUSA      PN  EJ  N1   R$  000000000103200000000010320000000001021000000000102500000000010250000000001025000000000102614509000000000018163600000000018622034900000000000000009999123100000010000000000000BRITSAACNPR7439
012024032502SAPR11      010SANEPAR     UNT     N2   R$  000000000259400000000026300000000002584000000000261000000000026100000000002607000000000261102049000000000000428000000000001117482300000000000000009999123100000010000000000000BRSAPRCDAM13117
012024032502SAPR3       010SANEPAR     ON      N2   R$  000000000050100000000005070000000000498000000000050100000000005010000000000501000000000050200912000000000000352900000000000177119400000000000000009999123100000010000000000000BRSAPRACNOR9158
012024032502SAPR4       010SANEPAR     PN      N2   R$  000000000052400000000005300000000000521000000000052700000000005290000000000525000000000052902200000000000001848600000000000974633500000000000000009999123100000010000000000000BRSAPRACNPR6158
012024032502SBFG3       010GRUPO SBF   ON      NM   R$  000000000129700000000013020000000001278000000000129200000000012980000000001296000000000129806743000000000002816200000000003640722500000000000000009999123100000010000000000000BRSBFGACNOR1102
012024032502SBSP3       010SABESP      ON      NM   R$  000000000803000000000081030000000007934000000000805000000000080960000000008080000000000809614486000000000002923000000000023531245500000000000000009999123100000010000000000000BRSBSPACNOR5160
012024032502RSUL4       010RIOSULENSE  PN           R$  000000000780200000000080990000000007800000000000795500000000080990000000007720000000000817800022000000000000002500000000000019888000000000000000009999123100000010000000000000BRRSULACNPR3113
012024032502SANB11      010SANTANDER BRUNT          R$  000000000280100000000028140000000002797000000000280600000000028050000000002805000000000281104842000000000001361000000000003819085700000000000000009999123100000010000000000000BRSANBCDAM13163
012024032502SANB3       010SANTANDER BRON           R$  000000000132500000000013250000000001315000000000131800000000013170000000001317000000000132000346000000000000070000000000000092320700000000000000009999123100000010000000000000BRSANBACNOR8170
012024032502SANB4       010SANTANDER BRPN           R$  000000000149000000000014940000000001481000000000148600000000014810000000001481000000000148700312000000000000045400000000000067465400000000000000009999123100000010000000000000BRSANBACNPR5170
012024032502ROMI3       010ROMI        ON      NM   R$  000000000130200000000013050000000001281000000000129000000000012810000000001281000000000128800591000000000000097900000000000126359800000000000000009999123100000010000000000000BRROMIACNOR8192
012024032502RRRP3       0103R PETROLEUMON      NM   R$  000000000303000000000031590000000003000000000000311100000000031300000000003130000000000313912689000000000004429700000000013783329500000000000000009999123100000010000000000000BRRRRPACNOR5102
012024032502USIM3       010USIMINAS    ON      N1   R$  000000000095500000000009580000000000936000000000094200000000009360000000000936000000000094001011000000000000392300000000000369760300000000000000009999123100000010000000000000BRUSIMACNOR3166
012024032502USIM5       010USIMINAS    PNA     N1   R$  000000000101000000000010240000000000996000000000100300000000009970000000000996000000000099914242000000000005736100000000005758626100000000000000009999123100000010000000000000BRUSIMACNPA6168
012024032502DASA3       010DASA        ON      NM   R$  000000000072900000000007360000000000716000000000072200000000007190000000000719000000000072000871000000000000126100000000000091109000000000000000009999123100000010000000000000BRDASAACNOR1122
012024032502VALE3       010VALE        ON      NM   R$  000000000610200000000061320000000006065000000000608800000000060820000000006082000000000608323692000000000010478200000000063799010000000000000000009999123100000010000000000000BRVALEACNOR0210
012024032502ZAMP3       010ZAMP S.A.   ON           R$  000000000035700000000003710000000000351000000000036000000000003560000000000356000000000035802823000000000001130600000000000407618200000000000000009999123100000010000000000000BRZAMPACNOR5100
012024032502PFRM3       010PROFARMA    ON      NM   R$  000000000053400000000005370000000000518000000000052600000000005310000000000528000000000053100471000000000000283300000000000149236000000000000000009999123100000010000000000000BRPFRMACNOR1116
012024032502DESK3       010DESKTOP     ON      NM   R$  000000000157500000000015750000000001492000000000152000000000015200000000001520000000000153301072000000000000405000000000000615804100000000000000009999123100000010000000000000BRDESKACNOR2103
012024032502DEXP3       010DEXXOS PAR  ON      N1   R$  000000000125600000000012980000000001241000000000126500000000012460000000001246000000000126000184000000000000043100000000000054543500000000000000009999123100000010000000000000BRDEXPACNOR1104
012024032502DEXP4       010DEXXOS PAR  PN      N1   R$  000000000124600000000012500000000001230000000000124200000000012300000000001212000000000123000008000000000000001700000000000002112000000000000000009999123100000010000000000000BRDEXPACNPR8104
012024032502DIRR3       010DIRECIONAL  ON      NM   R$  000000000249500000000025160000000002470000000000248900000000024830000000002483000000000248904997000000000001019100000000002537381100000000000000009999123100000010000000000000BRDIRRACNOR0117
012024032502DMVF3       010D1000VFARMA ON      NM   R$  000000000070000000000007030000000000673000000000068200000000006750000000000675000000000067900359000000000000098600000000000067341100000000000000009999123100000010000000000000BRDMVFACNOR9100
012024032502DOHL4       010DOHLER      PN           R$  000000000046000000000004620000000000423000000000044900000000004590000000000443000000000045900028000000000000006300000000000002830700000000000000009999123100000010000000000000BRDOHLACNPR9066
012024032502DOTZ3       010DOTZ SA     ON      NM   R$  000000000060700000000006110000000000600000000000060500000000006000000000000600000000000060700029000000000000005900000000000003574300000000000000009999123100000010000000000000BRDOTZACNOR7101
012024032502PGMN3       010PAGUE MENOS ON      NM   R$  000000000027400000000002760000000000270000000000027300000000002710000000000271000000000027202085000000000001428200000000000390243400000000000000009999123100000010000000000000BRPGMNACNOR8103
012024032502PINE3       010PINE        ON      N2   R$  000000000070200000000007790000000000681000000000073700000000007600000000000750000000000076000036000000000000005900000000000004349800000000000000009999123100000010000000000000BRPINEACNOR1148
012024032502PINE4       010PINE        PN      N2   R$  000000000047500000000004750000000000455000000000046200000000004600000000000460000000000046300710000000000000312800000000000144552800000000000000009999123100000010000000000000BRPINEACNPR8148
012024032502PLAS3       010PLASCAR PARTON           R$  000000000086100000000009010000000000800000000000084500000000009010000000000900000000000094100013000000000000001700000000000001437200000000000000009999123100000010000000000000BRPLASACNOR2106
012024032502PLPL3       010PLANOEPLANO ON      NM   R$  000000000128000000000012980000000001243000000000126000000000012510000000001244000000000125303235000000000000840500000000001059353700000000000000009999123100000010000000000000BRPLPLACNOR5104
012024032502RCSL3       010RECRUSUL    ON           R$  000000000017300000000001770000000000172000000000017300000000001720000000000172000000000017301400000000000001048000000000000182330300000000000000009999123100000010000000000000BRRCSLACNOR4133
012024032502RCSL4       010RECRUSUL    PN           R$  000000000007400000000000750000000000069000000000007000000000000710000000000071000000000007201649000000000002264000000000000160624100000000000000009999123100000010000000000000BRRCSLACNPR1133
012024032502RDNI3       010RNI         ON      NM   R$  000000000039600000000003960000000000391000000000039200000000003950000000000391000000000039500020000000000000003800000000000001493100000000000000009999123100000010000000000000BRRDNIACNOR9116
012024032502RDOR3       010REDE D OR   ON      NM   R$  000000000260600000000026720000000002604000000000264100000000026620000000002661000000000266207276000000000002678900000000007076422800000000000000009999123100000010000000000000BRRDORACNOR8111
012024032502RECV3       010PETRORECSA  ON      NM   R$  000000000224500000000023190000000002224000000000228700000000022970000000002296000000000230308352000000000002449000000000005601521900000000000000009999123100000010000000000000BRRECVACNOR3105
012024032502REDE3       010REDE ENERGIAON  ED       R$  000000000068700000000006980000000000685000000000069200000000006880000000000686000000000069700011000000000000001300000000000000899600000000000000009999123100000010000000000000BRREDEACNOR7127
012024032502RENT3       010LOCALIZA    ON      NM   R$  000000000525000000000053020000000005200000000000523800000000052500000000005248000000000525128065000000000006369100000000033364779000000000000000009999123100000010000000000000BRRENTACNOR4194
012024032502TPIS3       010TRIUNFO PARTON      NM   R$  000000000039300000000003930000000000384000000000038800000000003900000000000390000000000039300119000000000000033200000000000012890300000000000000009999123100000010000000000000BRTPISACNOR8118
012024032502TRAD3       010TC          ON      NM   R$  000000000008400000000000910000000000080000000000008300000000000830000000000082000000000008300185000000000000329900000000000027665000000000000000009999123100000010000000000000BRTRADACNOR3101
012024032507TXRX4       010TEX RENAUX  PN           R$  000000000026000000000002600000000000260000000000026000000000002600000000000260000000000026600001000000000000000100000000000000026000000000000000009999123100000010000000000000BRTXRXACNPR0142
012024032507NUTR3       010NUTRIPLANT  ON      MA   R$  000000000056500000000006400000000000565000000000060100000000006290000000000621000000000063000132000000000000034600000000000020804600000000000000009999123100000010000000000000BRNUTRACNOR0104
012024032508NEXP3       010NEXPE       ON      NM   R$  000000000045700000000004570000000000455000000000045500000000004550000000000455000000000047600004000000000000000700000000000000318800000000000000009999123100000010000000000000BRNEXPACNOR0101
012024032508FRTA3       010POMIFRUTAS  ON      NM   R$  000000000013400000000001340000000000131000000000013200000000001310000000000131000000000013300011000000000000001600000000000000211500000000000000009999123100000010000000000000BRFRTAACNOR8103
012024032508ETER3       010ETERNIT     ON      NM   R$  000000000072500000000007300000000000710000000000072000000000007160000000000716000000000072000477000000000000126600000000000091170700000000000000009999123100000010000000000000BRETERACNOR3243
012024032508HOOT4       010HOTEIS OTHONPN           R$  000000000027900000000002790000000000279000000000027900000000002790000000000278000000000028200003000000000000006300000000000001757700000000000000009999123100000010000000000000BRHOOTACNPR9015
012024032508ATMP3       010ATMASA      ON           R$  000000000024100000000002430000000000239000000000024000000000002400000000000236000000000023900019000000000000004900000000000001177500000000000000009999123100000010000000000000BRATMPACNOR8100
012024032508OIBR3       010OI          ON      N1   R$  000000000007500000000000860000000000075000000000007900000000000790000000000078000000000007907713000000000057663800000000004572335100000000000000009999123100000010000000000000BROIBRACNOR1110
012024032508OIBR4       010OI          PN      N1   R$  000000000019500000000002170000000000195000000000020500000000001990000000000199000000000020000744000000000000684200000000000140283100000000000000009999123100000010000000000000BROIBRACNPR8109
012024032508OSXB3       010OSX BRASIL  ON      NM   R$  000000000041400000000004220000000000407000000000040800000000004070000000000404000000000040700072000000000000023500000000000009608600000000000000009999123100000010000000000000BROSXBACNOR8109
012024032508LIGT3       010LIGHT S/A   ON      NM   R$  000000000052100000000005210000000000510000000000051600000000005180000000000513000000000051801458000000000000272000000000000140472200000000000000009999123100000010000000000000BRLIGTACNOR2124
012024032508AMER3       010AMERICANAS  ON      NM   R$  000000000005400000000000540000000000053000000000005300000000000540000000000053000000000005401337000000000003900800000000000209178800000000000000009999123100000010000000000000BRAMERACNOR6101
012024032508JFEN3       010JOAO FORTES ON           R$  000000000016000000000001700000000000156000000000016300000000001610000000000161000000000016800106000000000000030400000000000004972300000000000000009999123100000010000000000000BRJFENACNOR0058
012024032508RSID3       010ROSSI RESID ON      NM   R$  000000000038900000000004150000000000383000000000039400000000004050000000000387000000000040500247000000000000055400000000000021869100000000000000009999123100000010000000000000BRRSIDACNOR8120
012024032508RNEW11      010RENOVA      UNT     N2   R$  000000000036100000000003660000000000340000000000035600000000003570000000000350000000000035900066000000000000012600000000000004493900000000000000009999123100000010000000000000BRRNEWCDAM15110
012024032508RNEW3       010RENOVA      ON      N2   R$  000000000012300000000001240000000000111000000000011600000000001190000000000117000000000011900274000000000000193200000000000022523400000000000000009999123100000010000000000000BRRNEWACNOR8110
012024032508RNEW4       010RENOVA      PN      N2   R$  000000000012100000000001230000000000115000000000011800000000001190000000000118000000000011900314000000000000227900000000000027045200000000000000009999123100000010000000000000BRRNEWACNPR5110
012024032508RPMG3       010PET MANGUINHON           R$  000000000020700000000002130000000000205000000000020700000000002130000000000207000000000021200019000000000000016500000000000003416000000000000000009999123100000010000000000000BRRPMGACNOR9194
012024032508PMAM3       010PARANAPANEMAON      NM   R$  000000000033200000000003350000000000328000000000033100000000003290000000000329000000000033100078000000000000024700000000000008176900000000000000009999123100000010000000000000BRPMAMACNOR3038
012024032510GFSA1       010GAFISA      DIR ORD NM   R$  000000000000300000000000040000000000003000000000000300000000000040000000000003000000000000400274000000000001912200000000000007551900000000000000009999123100000010000000000000BRGFSAD10OR9123
012024032510ABCB10      010ABC BRASIL  PN  REC N2   R$  000000000239500000000024340000000002395000000000241900000000024260000000002363000000000243500048000000000000007000000000000016935900000000000000009999123100000010000000000000BRABCBR19PR1144
012024032510PGMN9       010PAGUE MENOS ON  REC NM   R$  000000000027000000000002700000000000263000000000026300000000002630000000000000000000000027500002000000000000013400000000000003524900000000000000009999123100000010000000000000BRPGMNR04OR7102
012024032512BIME11      010FII BRIO ME CI           R$  000000000072300000000007250000000000720000000000072200000000007240000000000723000000000072400346000000000000017048000000000012312095000000000000009999123100000010000000000000BRBIMECTF006129
012024032512SNEL11      010FII SUNO EL CI  ER       R$  000000001449000000000147800000000013810000000001429000000000143530000000014341000000001435300420000000000000004778000000000068282032000000000000009999123100000010000000000000BRSNELCTF010105
012024032512SNFF11      010FII SUNOFOFICI  ER       R$  000000000861000000000087940000000008610000000000872600000000087350000000008735000000000873900667000000000000008704000000000075953443000000000000009999123100000010000000000000BRSNFFCTF001135
012024032512SNLG11      010FII SUNO LG CI           R$  000000000243500000000024450000000002400000000000241700000000024330000000002408000000000243200394000000000000003698000000000008940872000000000000009999123100000010000000000000BRSNLGCTF007103
012024032512SNME11      010FII SNME    CI  ER       R$  000000000099500000000009950000000000955000000000098800000000009940000000000979000000000099400321000000000000014531000000000014365548000000000000009999123100000010000000000000BRSNMECTF000104
012024032512SPTW11      010FII SP DOWNTCI           R$  000000000439300000000044380000000004361000000000440600000000044360000000004433000000000443600152000000000000002058000000000009069303000000000000009999123100000010000000000000BRSPTWCTF002232
012024032512SPXS11      010FII SPX SYN CI           R$  000000000094400000000009440000000000936000000000093800000000009400000000000938000000000094010095000000000000054931000000000051552386000000000000009999123100000010000000000000BRSPXSCTF002121
012024032512BLCA11      010FII BLUE AAACI           R$  000000001089700000000113990000000010820000000001110100000000112880000000011191000000001128800962000000000000003035000000000033693561000000000000009999123100000010000000000000BRBLCACTF009128
012024032512BLMG11      010FII BLUE LOGCI           R$  000000000392600000000039450000000003909000000000392600000000039320000000003931000000000393501776000000000000008739000000000034315010000000000000009999123100000010000000000000BRBLMGCTF005144
012024032512BLMO11      010FII BLUEMAC CI           R$  000000000855000000000085500000000008200000000000820400000000085490000000008200000000000854000027000000000000004899000000000040195319000000000000009999123100000010000000000000BRBLMOCTF009128
012024032512BMLC11      010FII BMBRC LCCI           R$  000000001071500000000107150000000010500000000001069200000000107000000000010700000000001071500008000000000000000068000000000000727100000000000000009999123100000010000000000000BRBMLCCTF004247
012024032512MXRF11      010FII MAXI RENCI           R$  000000000104700000000010490000000001046000000000104700000000010480000000001047000000000104834674000000000001094322000000001146573012000000000000009999123100000010000000000000BRMXRFCTF008249
012024032512RBRF11      010FII RBRALPHACI           R$  000000000083000000000008410000000000824000000000083300000000008350000000000835000000000083816665000000000000302133000000000251972503000000000000009999123100000010000000000000BRRBRFCTF003184
012024032512RBRL11      010FII RBR LOG CI           R$  000000000800000000000080970000000007951000000000798700000000079670000000007967000000000799802368000000000000009828000000000078498298000000000000009999123100000010000000000000BRRBRLCTF001151
012024032512RBRP11      010FII RBR PROPCI           R$  000000000616200000000061890000000006021000000000612800000000060210000000006021000000000605004124000000000000020917000000000128199466000000000000009999123100000010000000000000BRRBRPCTF002170
012024032512RBRR11      010FII RBRHGRADCI           R$  000000000918900000000092800000000009189000000000924100000000092560000000009256000000000927009026000000000000034526000000000319062537000000000000009999123100000010000000000000BRRBRRCTF008177
012024032512RBRS11      010FII RIOB RR CI           R$  000000000496900000000049740000000004911000000000494900000000049740000000004911000000000497400007000000000000000032000000000000158371000000000000009999123100000010000000000000BRRBRSCTF006138
012024032512RBRX11      010FII RBR MULTCI  ER       R$  000000000098000000000009830000000000975000000000097900000000009750000000000975000000000097607705000000000000072640000000000071144708000000000000009999123100000010000000000000BRRBRXCTF006126
012024032512RBRY11      010FII RBR PCRICI           R$  000000001000000000000100590000000009948000000000999600000000099820000000009982000000001000015015000000000000051387000000000513703141000000000000009999123100000010000000000000BRRBRYCTF004165
012024032512RBTS11      010FII RB TFO  CI           R$  000000007700000000000770000000000077000000000007700000000000770000000000077924000000007970000001000000000000000002000000000000154000000000000000009999123100000010000000000000BRRBTSCTF002116
012024032512RBVA11      010FII RIOB VA CI           R$  000000001128000000000113100000000011259000000001129100000000112750000000011275000000001130902608000000000000009664000000000109116881000000000000009999123100000010000000000000BRRBVACTF006162
012024032512NAVT11      010FII NAVI TOTCI  ER       R$  000000000969400000000096940000000009316000000000939500000000093990000000009383000000000939900139000000000000001813000000000017034682000000000000009999123100000010000000000000BRNAVTCTF015136
012024032512NCHB11      010FII NCH BR  CI           R$  000000000095500000000009590000000000946000000000095200000000009500000000000950000000000095200553000000000000031890000000000030363008000000000000009999123100000010000000000000BRNCHBCTF000227
012024032512NCRI11      010FII NAVI CRICI           R$  000000000089000000000008920000000000866000000000088100000000008770000000000877000000000089600033000000000000000374000000000000329838000000000000009999123100000010000000000000BRNCRICTF004115
012024032512NEWL11      010FII NEWPORT CI  ES       R$  000000001160000000000116990000000011591000000001163000000000116980000000011639000000001169900185000000000000001541000000000017922290000000000000009999123100000010000000000000BRNEWLCTF004152
012024032512NEWU11      010FII NEWRU   CI           R$  000000000758800000000075890000000007588000000000758800000000075880000000007588000000000779900006000000000000000210000000000001593481000000000000009999123100000010000000000000BRNEWUCTF005118
012024032512NSLU11      010FII LOURDES CI           R$  000000001922500000000194470000000019120000000001922300000000192230000000019150000000001922400136000000000000000468000000000008996370000000000000009999123100000010000000000000BRNSLUCTF008308
012024032512AFHI11      010FII AFHI CRICI  ER       R$  000000000984200000000098440000000009778000000000979700000000097830000000009783000000000979801888000000000000013083000000000128183131000000000000009999123100000010000000000000BRAFHICTF005139
012024032512AIEC11      010FII AUTONOMYCI           R$  000000000514700000000051720000000005112000000000514300000000051480000000005147000000000514800397000000000000010347000000000053223116000000000000009999123100000010000000000000BRAIECCTF009142
012024032512AJFI11      010FII AJ MALLSCI           R$  000000000098000000000009870000000000970000000000097700000000009750000000000975000000000098110269000000000000087615000000000085614718000000000000009999123100000010000000000000BRAJFICTF001104
012024032512ALMI11      010FII TORRE ALCI           R$  000000006515000000000651560000000064666000000006498300000000651560000000065155000000006699900019000000000000000052000000000003379135000000000000009999123100000010000000000000BRALMICTF003250
012024032512BBFI11B     010FII BB PROGRCI      MB   R$  000000013000300000001304990000000129501000000012998200000001300000000000130000000000013020000045000000000000000119000000000015467907000000000000009999123100000010000000000000BRBBFICTF006324
012024032512BBFO11      010FII BB FOF  CI           R$  000000000749400000000075170000000007476000000000749400000000074900000000007488000000000749800125000000000000006911000000000051796515000000000000009999123100000010000000000000BRBBFOCTF004138
012024032512BBRC11      010FII BB CORP CI           R$  000000001127500000000113800000000011270000000001130300000000113780000000011348000000001137900127000000000000001688000000000019079728000000000000009999123100000010000000000000BRBBRCCTF004250
