00COTAHIST.2024BOVESPA 20240513                                                                                                                                                                                                                      
012024051302DASA3       010DASA        ON      NM   R$  000000000038300000000003890000000000366000000000037600000000003710000000000371000000000037602864000000000000894400000000000336402700000000000000009999123100000010000000000000BRDASAACNOR1122
012024051302GGBR3       010GERDAU      ON      N1   R$  000000000172100000000017400000000001718000000000173400000000017400000000001740000000000174100282000000000000069600000000000120731900000000000000009999123100000010000000000000BRGGBRACNOR1191
012024051302GGBR4       010GERDAU      PN      N1   R$  000000000192200000000019420000000001917000000000193400000000019310000000001931000000000193217112000000000007439100000000014392700000000000000000009999123100000010000000000000BRGGBRACNPR8191
012024051302ITUB3       010ITAUUNIBANCOON  EJ  N1   R$  000000000282200000000028550000000002822000000000283400000000028420000000002838000000000284601253000000000000456500000000001294145100000000000000009999123100000010000000000000BRITUBACNOR4335
012024051302ITUB4       010ITAUUNIBANCOPN  EJ  N1   R$  000000000328100000000033180000000003272000000000329600000000033050000000003304000000000330631217000000000023536100000000077598015600000000000000009999123100000010000000000000BRITUBACNPR1335
012024051302MDNE3       010MOURA DUBEUXON      NM   R$  000000000123300000000012470000000001208000000000123000000000012370000000001230000000000123701055000000000000223900000000000275596000000000000000009999123100000010000000000000BRMDNEACNOR9100
012024051302MEAL3       010IMC S/A     ON      NM   R$  000000000015100000000001510000000000149000000000014900000000001500000000000149000000000015000546000000000000268300000000000040122800000000000000009999123100000010000000000000BRMEALACNOR9105
012024051302MELK3       010MELNICK     ON      NM   R$  000000000042400000000004240000000000400000000000040900000000004080000000000407000000000040800569000000000000600600000000000246090600000000000000009999123100000010000000000000BRMELKACNOR8111
012024051302CLSA3       010CLEARSALE   ON      NM   R$  000000000076600000000007700000000000732000000000074600000000007500000000000750000000000075103342000000000001477800000000001103850600000000000000009999123100000010000000000000BRCLSAACNOR0100
012024051302CLSC3       010CELESC      ON  ED  N2   R$  000000000660000000000066000000000006450000000000658600000000066000000000006600000000000699800015000000000000003000000000000019759600000000000000009999123100000010000000000000BRCLSCACNOR6151
012024051302MERC4       010MERC FINANC PN           R$  000000000078000000000007800000000000780000000000078000000000007800000000000780000000000080000001000000000000000500000000000000390000000000000000009999123100000010000000000000BRMERCACNPR9180
012024051302MGLU3       010MAGAZ LUIZA ON      NM   R$  000000000015500000000001620000000000153000000000015700000000001580000000000157000000000015825800000000000123549300000000019423882800000000000000009999123100000010000000000000BRMGLUACNOR2123
012024051302PDGR3       010PDG REALT   ON      NM   R$  000000000002200000000000230000000000021000000000002200000000000220000000000021000000000002200312000000000001756600000000000038746000000000000000009999123100000010000000000000BRPDGRACNOR8118
012024051302PDTC3       010PADTEC      ON      NM   R$  000000000021800000000002200000000000215000000000021700000000002170000000000215000000000021700228000000000000067000000000000014596600000000000000009999123100000010000000000000BRPDTCACNOR3101
012024051302PEAB4       010PAR AL BAHIAPN  ED       R$  000000000390200000000039020000000003901000000000390100000000039020000000003951000000000438400007000000000000002400000000000009364700000000000000009999123100000010000000000000BRPEABACNPR0133
012024051302PETR3       010PETROBRAS   ON  EDR N2   R$  000000000443300000000044610000000004397000000000442200000000044140000000004406000000000441410180000000000005067100000000022408888900000000000000009999123100000010000000000000BRPETRACNOR9204
012024051302PETR4       010PETROBRAS   PN  EDR N2   R$  000000000417400000000041970000000004151000000000416700000000041620000000004161000000000416239691000000000018394300000000076663321700000000000000009999123100000010000000000000BRPETRACNPR6212
012024051302ROMI3       010ROMI        ON      NM   R$  000000000104100000000010590000000001040000000000104800000000010460000000001045000000000105000652000000000000129500000000000135844900000000000000009999123100000010000000000000BRROMIACNOR8194
012024051302RRRP3       0103R PETROLEUMON  ED  NM   R$  000000000305000000000031200000000003036000000000306700000000030360000000003035000000000304008598000000000003241900000000009943797200000000000000009999123100000010000000000000BRRRRPACNOR5103
012024051302EALT4       010ACO ALTONA  PN           R$  000000000101300000000010280000000001008000000000102200000000010200000000001020000000000102700165000000000000120600000000000123297200000000000000009999123100000010000000000000BREALTACNPR1138
012024051302ECOR3       010ECORODOVIAS ON      NM   R$  000000000072500000000007580000000000725000000000074400000000007350000000000735000000000073906629000000000005903100000000004393397300000000000000009999123100000010000000000000BRECORACNOR8119
012024051302GGPS3       010GPS         ON      NM   R$  000000000193300000000019460000000001893000000000191700000000019150000000001914000000000193204174000000000001462100000000002803884500000000000000009999123100000010000000000000BRGGPSACNOR9103
012024051302DESK3       010DESKTOP     ON      NM   R$  000000000132100000000013300000000001305000000000132300000000013300000000001320000000000133000438000000000000077400000000000102403000000000000000009999123100000010000000000000BRDESKACNOR2104
012024051302DEXP3       010DEXXOS PAR  ON      N1   R$  000000000107300000000010810000000001048000000000106100000000010550000000001055000000000105700201000000000000039300000000000041700700000000000000009999123100000010000000000000BRDEXPACNOR1105
012024051302DEXP4       010DEXXOS PAR  PN      N1   R$  000000000106800000000010680000000001068000000000106800000000010680000000001021000000000106600002000000000000001100000000000001174800000000000000009999123100000010000000000000BRDEXPACNPR8105
012024051302DIRR3       010DIRECIONAL  ON      NM   R$  000000000251900000000025500000000002510000000000253100000000025410000000002534000000000254306032000000000001744200000000004415383900000000000000009999123100000010000000000000BRDIRRACNOR0117
012024051302EQPA3       010EQTL PARA   ON  ED       R$  000000000074900000000007490000000000740000000000074200000000007450000000000729000000000074600005000000000000001600000000000001187500000000000000009999123100000010000000000000BREQPAACNOR1111
012024051302EQTL3       010EQUATORIAL  ON  EDS NM   R$  000000000305300000000030970000000003053000000000306400000000030550000000003054000000000306711790000000000003233300000000009909554700000000000000009999123100000010000000000000BREQTLACNOR0130
012024051302ESPA3       010ESPACOLASER ON      NM   R$  000000000010200000000001100000000000102000000000010700000000001100000000000109000000000011000893000000000002046200000000000220001200000000000000009999123100000010000000000000BRESPAACNOR7103
012024051302EUCA3       010EUCATEX     ON      N1   R$  000000000153800000000015560000000001489000000000154800000000014890000000001488000000000155600005000000000000001300000000000002012500000000000000009999123100000010000000000000BREUCAACNOR1157
012024051302EUCA4       010EUCATEX     PN      N1   R$  000000000141900000000014320000000001345000000000137400000000013700000000001368000000000137000933000000000000163700000000000225008600000000000000009999123100000010000000000000BREUCAACNPR8044
012024051302EVEN3       010EVEN        ON      NM   R$  000000000071800000000007230000000000698000000000070500000000007000000000000700000000000070503779000000000000684100000000000482969600000000000000009999123100000010000000000000BREVENACNOR8118
012024051302EZTC3       010EZTEC       ON  ED  NM   R$  000000000139000000000014140000000001372000000000138800000000013770000000001376000000000137902650000000000000806200000000001119561400000000000000009999123100000010000000000000BREZTCACNOR0125
012024051302AALR3       010ALLIAR      ON      NM   R$  000000000103700000000010820000000001018000000000105200000000010700000000001070000000000108700273000000000000045700000000000048118300000000000000009999123100000010000000000000BRAALRACNOR6102
012024051302ABCB4       010ABC BRASIL  PN      N2   R$  000000000219200000000022470000000002179000000000222100000000022410000000002237000000000224204346000000000001010900000000002246141600000000000000009999123100000010000000000000BRABCBACNPR4145
012024051302ABEV3       010AMBEV S/A   ON           R$  000000000120700000000012110000000001196000000000120200000000012060000000001205000000000120630168000000000022472500000000027025386300000000000000009999123100000010000000000000BRABEVACNOR1127
012024051302BIOM3       010BIOMM       ON      MA   R$  000000000178200000000018200000000001690000000000176700000000016900000000001690000000000170000692000000000000112100000000000198122800000000000000009999123100000010000000000000BRBIOMACNOR2112
012024051302BLAU3       010BLAU        ON      NM   R$  000000000107900000000010940000000001058000000000107000000000010670000000001067000000000107601235000000000000174300000000000186633100000000000000009999123100000010000000000000BRBLAUACNOR8113
012024051302BRIT3       010BRISANET    ON      NM   R$  000000000041200000000004450000000000410000000000043200000000004320000000000432000000000043702425000000000000933000000000000403742400000000000000009999123100000010000000000000BRBRITACNOR0103
012024051302BRKM3       010BRASKEM     ON      N1   R$  000000000192500000000019400000000001920000000000193300000000019330000000001933000000000194000089000000000000014900000000000028805000000000000000009999123100000010000000000000BRBRKMACNOR1119
012024051302BRKM5       010BRASKEM     PNA     N1   R$  000000000190200000000019350000000001892000000000191400000000019030000000001898000000000190305390000000000002036500000000003898166800000000000000009999123100000010000000000000BRBRKMACNPA4121
012024051302CSED3       010CRUZEIRO EDUON      NM   R$  000000000043700000000004440000000000427000000000043200000000004290000000000428000000000043100926000000000000466800000000000201754200000000000000009999123100000010000000000000BRCSEDACNOR9104
012024051302CSMG3       010COPASA      ON      NM   R$  000000000196800000000020030000000001960000000000199000000000020000000000001995000000000200105532000000000001441200000000002869137700000000000000009999123100000010000000000000BRCSMGACNOR5173
012024051302CSNA3       010SID NACIONALON           R$  000000000139200000000014400000000001391000000000142300000000014140000000001414000000000141513641000000000010454600000000014885408300000000000000009999123100000010000000000000BRCSNAACNOR6260
012024051302ENAT3       010ENAUTA PART ON      NM   R$  000000000257700000000026150000000002559000000000258300000000025650000000002565000000000258505821000000000001345700000000003476440700000000000000009999123100000010000000000000BRENATACNOR0104
012024051302ENEV3       010ENEVA       ON      NM   R$  000000000125000000000012570000000001240000000000124100000000012400000000001240000000000124505763000000000005507800000000006835968800000000000000009999123100000010000000000000BRENEVACNOR8105
012024051302ENGI11      010ENERGISA    UNT     N2   R$  000000000476600000000047660000000004658000000000470300000000046720000000004672000000000467311778000000000003090400000000014537237200000000000000009999123100000010000000000000BRENGICDAM16135
012024051302ENGI3       010ENERGISA    ON      N2   R$  000000000150400000000015070000000001482000000000149200000000014820000000001482000000000154200035000000000000004700000000000007016700000000000000009999123100000010000000000000BRENGIACNOR0145
012024051302ENGI4       010ENERGISA    PN      N2   R$  000000000081500000000008150000000000794000000000079900000000007980000000000798000000000080000024000000000000006200000000000004954300000000000000009999123100000010000000000000BRENGIACNPR7141
012024051302ENJU3       010ENJOEI      ON      NM   R$  000000000023500000000002510000000000232000000000024100000000002450000000000245000000000024604007000000000001780500000000000430857200000000000000009999123100000010000000000000BRENJUACNOR9100
012024051302EPAR3       010EMBPAR S/A  ON  ED       R$  000000000073500000000007350000000000719000000000072300000000007190000000000717000000000071900028000000000000010400000000000007528000000000000000009999123100000010000000000000BREPARACNOR9105
012024051302IFCM3       010INFRACOMM   ON      NM   R$  000000000005600000000000570000000000046000000000004900000000000470000000000047000000000004809462000000000049608100000000002434805100000000000000009999123100000010000000000000BRIFCMACNOR8101
012024051302IGTI11      010IGUATEMI S.AUNT     N1   R$  000000000211900000000021450000000002109000000000212100000000021090000000002108000000000212010395000000000001826000000000003874374600000000000000009999123100000010000000000000BRIGTICDAM16106
012024051302IGTI3       010IGUATEMI S.AON      N1   R$  000000000030700000000003070000000000300000000000030100000000003000000000000300000000000030400044000000000000009200000000000002774200000000000000009999123100000010000000000000BRIGTIACNOR8106
012024051302IGTI4       010IGUATEMI S.APN      N1   R$  000000000091400000000009150000000000881000000000090400000000008810000000000880000000000100000005000000000000000500000000000000452100000000000000009999123100000010000000000000BRIGTIACNPR5106
012024051302INEP3       010INEPAR      ON           R$  000000000029400000000003000000000000282000000000028700000000002850000000000285000000000028800121000000000000037500000000000010776200000000000000009999123100000010000000000000BRINEPACNOR1143
012024051302INEP4       010INEPAR      PN           R$  000000000026300000000002700000000000251000000000025800000000002560000000000255000000000025600104000000000000030700000000000007938500000000000000009999123100000010000000000000BRINEPACNPR8143
012024051302BEES3       010BANESTES    ON  EDJ      R$  000000000089900000000009090000000000871000000000089400000000009000000000000899000000000090000071000000000000013400000000000011981800000000000000009999123100000010000000000000BRBEESACNOR9390
012024051302BEES4       010BANESTES    PN  EDJ      R$  000000000094600000000009590000000000946000000000094900000000009490000000000945000000000095300028000000000000004000000000000003799400000000000000009999123100000010000000000000BRBEESACNPR6315
012024051302BGIP3       010BANESE      ON           R$  000000000232900000000023500000000002329000000000233600000000023500000000002275000000000290400003000000000000000300000000000000700800000000000000009999123100000010000000000000BRBGIPACNOR1208
012024051302BPAN4       010BANCO PAN   PN      N1   R$  000000000096000000000010010000000000951000000000097900000000009860000000000985000000000098806782000000000002466600000000002417000500000000000000009999123100000010000000000000BRBPANACNPR1115
012024051302BRAP3       010BRADESPAR   ON      N1   R$  000000000195800000000019630000000001936000000000194700000000019360000000001936000000000194700143000000000000024000000000000046744100000000000000009999123100000010000000000000BRBRAPACNOR5148
012024051302BRAP4       010BRADESPAR   PN      N1   R$  000000000201800000000020290000000002006000000000201400000000020130000000002010000000000201405841000000000002317900000000004670420300000000000000009999123100000010000000000000BRBRAPACNPR2148
012024051302CPFE3       010CPFL ENERGIAON      NM   R$  000000000324900000000033150000000003249000000000329800000000033040000000003287000000000330506828000000000001245700000000004108988700000000000000009999123100000010000000000000BRCPFEACNOR0137
012024051302CPLE3       010COPEL       ON      N2   R$  000000000081700000000008320000000000815000000000082500000000008260000000000825000000000082602943000000000005420900000000004475103700000000000000009999123100000010000000000000BRCPLEACNOR8149
012024051302CPLE6       010COPEL       PNB     N2   R$  000000000091500000000009250000000000913000000000091900000000009250000000000924000000000092515314000000000012961300000000011919067100000000000000009999123100000010000000000000BRCPLEACNPB9146
012024051302HBOR3       010HELBOR      ON  ED  NM   R$  000000000027200000000002720000000000263000000000026400000000002630000000000262000000000026300337000000000000222800000000000058978500000000000000009999123100000010000000000000BRHBORACNOR3118
012024051302HBRE3       010HBR REALTY  ON      NM   R$  000000000050600000000005100000000000493000000000050100000000005040000000000504000000000050900858000000000000535800000000000268796100000000000000009999123100000010000000000000BRHBREACNOR4100
012024051302HBSA3       010HIDROVIAS   ON      NM   R$  000000000042400000000004280000000000410000000000041500000000004130000000000412000000000041503424000000000003027300000000001257280000000000000000009999123100000010000000000000BRHBSAACNOR0100
012024051302HYPE3       010HYPERA      ON      NM   R$  000000000300700000000030510000000002995000000000303200000000030360000000003036000000000303906985000000000002284700000000006928785900000000000000009999123100000010000000000000BRHYPEACNOR0140
012024051302JBSS3       010JBS         ON      NM   R$  000000000246400000000025130000000002463000000000249500000000025120000000002510000000000251312708000000000005154900000000012863571800000000000000009999123100000010000000000000BRJBSSACNOR8121
012024051302MRFG3       010MARFRIG     ON      NM   R$  000000000099100000000010180000000000989000000000100500000000010070000000001007000000000100912918000000000004731900000000004757099100000000000000009999123100000010000000000000BRMRFGACNOR0116
012024051302B3SA3       010B3          ON      NM   R$  000000000109500000000011290000000001092000000000111700000000011230000000001121000000000112351722000000000077187400000000086225756000000000000000009999123100000010000000000000BRB3SAACNOR6132
012024051302BEEF3       010MINERVA     ON      NM   R$  000000000061800000000006250000000000608000000000061800000000006190000000000619000000000062006453000000000008158300000000005049909300000000000000009999123100000010000000000000BRBEEFACNOR6116
012024051302BPAC11      010BTGP BANCO  UNT     N2   R$  000000000339300000000034560000000003372000000000340500000000034070000000003407000000000341227008000000000008390600000000028578278200000000000000009999123100000010000000000000BRBPACUNT006118
012024051302BPAC3       010BTGP BANCO  ON      N2   R$  000000000166400000000017340000000001664000000000171500000000017190000000001690000000000171900046000000000000011800000000000020243100000000000000009999123100000010000000000000BRBPACACNOR7133
012024051302BPAC5       010BTGP BANCO  PNA     N2   R$  000000000082300000000008560000000000823000000000084800000000008450000000000835000000000085300035000000000000007600000000000006451900000000000000009999123100000010000000000000BRBPACACNPA0133
012024051302EGIE3       010ENGIE BRASILON  ED  NM   R$  000000000433000000000043950000000004311000000000437000000000043910000000004387000000000439106454000000000001760500000000007694501000000000000000009999123100000010000000000000BREGIEACNOR9126
012024051302ELET3       010ELETROBRAS  ON      N1   R$  000000000379200000000038380000000003773000000000380300000000037940000000003793000000000379613169000000000004580400000000017423084100000000000000009999123100000010000000000000BRELETACNOR6160
012024051302ELET6       010ELETROBRAS  PNB     N1   R$  000000000422800000000042640000000004202000000000422000000000042020000000004202000000000420604620000000000001029500000000004344698700000000000000009999123100000010000000000000BRELETACNPB7077
012024051302GRND3       010GRENDENE    ON  EDJ NM   R$  000000000059500000000006140000000000593000000000060500000000006090000000000609000000000061004007000000000001721700000000001042233400000000000000009999123100000010000000000000BRGRNDACNOR3173
012024051302GSHP3       010GENERALSHOPPON           R$  000000000105000000000010500000000001050000000000105000000000010500000000001050000000000118000003000000000000000300000000000000315000000000000000009999123100000010000000000000BRGSHPACNOR7102
012024051302GUAR3       010GUARARAPES  ON      NM   R$  000000000077100000000007770000000000752000000000076200000000007550000000000751000000000075603149000000000001226700000000000935011700000000000000009999123100000010000000000000BRGUARACNOR4172
012024051302HAGA3       010HAGA S/A    ON           R$  000000000025100000000002550000000000251000000000025300000000002550000000000251000000000025500002000000000000000200000000000000050600000000000000009999123100000010000000000000BRHAGAACNOR7103
012024051302HAGA4       010HAGA S/A    PN           R$  000000000012600000000001260000000000121000000000012300000000001210000000000120000000000012600026000000000000017400000000000002144400000000000000009999123100000010000000000000BRHAGAACNPR4103
012024051302HAPV3       010HAPVIDA     ON  ATZ NM   R$  000000000040500000000004120000000000403000000000040600000000004030000000000403000000000040440090000000000060160500000000024465979200000000000000009999123100000010000000000000BRHAPVACNOR4114
012024051302JALL3       010JALLESMACHADON      NM   R$  000000000070100000000007030000000000695000000000069800000000006960000000000696000000000069801485000000000000393500000000000274666800000000000000009999123100000010000000000000BRJALLACNOR0105
012024051302ASAI3       010ASSAI       ON      NM   R$  000000000134000000000013570000000001320000000000133300000000013340000000001333000000000133531237000000000006951300000000009271330700000000000000009999123100000010000000000000BRASAIACNOR0106
012024051302ATOM3       010ATOMPAR     ON           R$  000000000022000000000002270000000000214000000000022100000000002240000000000218000000000022400208000000000000051000000000000011319200000000000000009999123100000010000000000000BRATOMACNOR1106
012024051302AURE3       010AUREN       ON      NM   R$  000000000118200000000011960000000001180000000000118900000000011890000000001188000000000118904482000000000002245400000000002669913500000000000000009999123100000010000000000000BRAUREACNOR9104
012024051302AVLL3       010ALPHAVILLE  ON      NM   R$  000000000037900000000003790000000000377000000000037800000000003770000000000300000000000037700002000000000000001100000000000000416700000000000000009999123100000010000000000000BRAVLLACNOR5103
012024051302AZEV3       010AZEVEDO     ON           R$  000000000013600000000001410000000000136000000000013800000000001400000000000138000000000014000408000000000000235300000000000032561700000000000000009999123100000010000000000000BRAZEVACNOR0121
012024051302AZEV4       010AZEVEDO     PN           R$  000000000012900000000001350000000000128000000000013100000000001320000000000132000000000013300578000000000001489400000000000195845900000000000000009999123100000010000000000000BRAZEVACNPR7121
012024051302AZUL4       010AZUL        PN      N2   R$  000000000111000000000011410000000001103000000000112500000000011180000000001118000000000111911610000000000016158500000000018187493700000000000000009999123100000010000000000000BRAZULACNPR4102
012024051302BBSE3       010BBSEGURIDADEON      NM   R$  000000000331100000000034350000000003306000000000337300000000033600000000003359000000000336225661000000000008944200000000030176088400000000000000009999123100000010000000000000BRBBSEACNOR5124
012024051302CMIN3       010CSNMINERACAOON      N2   R$  000000000051500000000005530000000000515000000000054200000000005500000000000550000000000055113379000000000023189800000000012584881800000000000000009999123100000010000000000000BRCMINACNOR2110
012024051302COCE5       010COELCE      PNA ED       R$  000000000346000000000034810000000003428000000000346700000000034720000000003445000000000351500040000000000000004700000000000016299100000000000000009999123100000010000000000000BRCOCEACNPA3147
012024051302COGN3       010COGNA ON    ON      NM   R$  000000000020600000000002070000000000199000000000020300000000002030000000000203000000000020422688000000000029833600000000006058132400000000000000009999123100000010000000000000BRCOGNACNOR2104
012024051302DMVF3       010D1000VFARMA ON      NM   R$  000000000075800000000007950000000000757000000000078200000000007910000000000781000000000079100478000000000000096800000000000075782400000000000000009999123100000010000000000000BRDMVFACNOR9100
012024051302DOHL3       010DOHLER      ON           R$  000000000060000000000006000000000000600000000000060000000000006000000000000500000000000099900001000000000000000100000000000000060000000000000000009999123100000010000000000000BRDOHLACNOR2063
012024051302DOTZ3       010DOTZ SA     ON      NM   R$  000000000080500000000008380000000000805000000000082600000000008200000000000820000000000083700030000000000000007700000000000006366400000000000000009999123100000010000000000000BRDOTZACNOR7101
012024051302DXCO3       010DEXCO       ON      NM   R$  000000000075300000000007650000000000746000000000075300000000007520000000000751000000000075406764000000000001743800000000001314239600000000000000009999123100000010000000000000BRDXCOACNOR8105
012024051302RCSL4       010RECRUSUL    PN           R$  000000000004900000000000500000000000045000000000004600000000000450000000000044000000000004500890000000000002243700000000000103881000000000000000009999123100000010000000000000BRRCSLACNPR1133
012024051302RDNI3       010RNI         ON      NM   R$  000000000035800000000003580000000000351000000000035300000000003530000000000353000000000035700027000000000000010500000000000003711500000000000000009999123100000010000000000000BRRDNIACNOR9116
012024051302RDOR3       010REDE D OR   ON      NM   R$  000000000306200000000030980000000003014000000000305700000000030780000000003077000000000307921554000000000006112500000000018690629400000000000000009999123100000010000000000000BRRDORACNOR8112
012024051302RECV3       010PETRORECSA  ON      NM   R$  000000000213500000000021830000000002135000000000215300000000021400000000002139000000000214104950000000000001196100000000002575639900000000000000009999123100000010000000000000BRRECVACNOR3106
012024051302REDE3       010REDE ENERGIAON           R$  000000000069200000000006920000000000683000000000068700000000006830000000000685000000000069500005000000000000000600000000000000412500000000000000009999123100000010000000000000BRREDEACNOR7127
012024051302SRNA3       010SERENA      ON      NM   R$  000000000086000000000008990000000000860000000000088000000000008760000000000870000000000087607230000000000004679500000000004118116800000000000000009999123100000010000000000000BRSRNAACNOR4100
012024051302STBP3       010SANTOS BRP  ON      NM   R$  000000000126700000000013310000000001252000000000131500000000013270000000001323000000000132816109000000000008753200000000011518479300000000000000009999123100000010000000000000BRSTBPACNOR3129
012024051302SUZB3       010SUZANO S.A. ON      NM   R$  000000000517600000000051840000000005012000000000505700000000050700000000005068000000000507033644000000000016968300000000085821234200000000000000009999123100000010000000000000BRSUZBACNOR0129
012024051302RAIL3       010RUMO S.A.   ON  ED  NM   R$  000000000209800000000021170000000002080000000000209000000000020840000000002083000000000208418989000000000008199100000000017144255500000000000000009999123100000010000000000000BRRAILACNOR9105
012024051302RAIZ4       010RAIZEN      PN      N2   R$  000000000030200000000003050000000000296000000000029900000000002980000000000298000000000029912824000000000014189800000000004245849900000000000000009999123100000010000000000000BRRAIZACNPR6110
012024051302SMFT3       010SMART FIT   ON      NM   R$  000000000230400000000023350000000002274000000000230100000000022850000000002285000000000229608726000000000002296800000000005286477600000000000000009999123100000010000000000000BRSMFTACNOR1111
012024051302SMTO3       010SAO MARTINHOON      NM   R$  000000000279900000000028680000000002790000000000281400000000028000000000002800000000000280804153000000000000950300000000002675055600000000000000009999123100000010000000000000BRSMTOACNOR3125
012024051302SAPR11      010SANEPAR     UNT     N2   R$  000000000274100000000028260000000002741000000000279800000000027900000000002790000000000280004043000000000001023100000000002863087400000000000000009999123100000010000000000000BRSAPRCDAM13117
012024051302SAPR3       010SANEPAR     ON      N2   R$  000000000052100000000005350000000000521000000000052900000000005270000000000527000000000052900676000000000000351400000000000185947200000000000000009999123100000010000000000000BRSAPRACNOR9158
012024051302SAPR4       010SANEPAR     PN      N2   R$  000000000055500000000005720000000000554000000000056600000000005670000000000565000000000056802223000000000001278400000000000724378800000000000000009999123100000010000000000000BRSAPRACNPR6158
012024051302TOTS3       010TOTVS       ON      NM   R$  000000000280500000000028170000000002758000000000279300000000028070000000002806000000000280913789000000000003023000000000008444238400000000000000009999123100000010000000000000BRTOTSACNOR8144
012024051302TPIS3       010TRIUNFO PARTON      NM   R$  000000000038300000000003880000000000381000000000038400000000003880000000000383000000000038800116000000000000057300000000000022020800000000000000009999123100000010000000000000BRTPISACNOR8118
012024051302TRAD3       010TC          ON      NM   R$  000000000007400000000000770000000000074000000000007400000000000750000000000074000000000007500335000000000000253000000000000018968400000000000000009999123100000010000000000000BRTRADACNOR3101
012024051302TRIS3       010TRISUL      ON      NM   R$  000000000047900000000004810000000000474000000000047600000000004740000000000473000000000047500992000000000000509000000000000242325300000000000000009999123100000010000000000000BRTRISACNOR4118
012024051302TRPL3       010TRAN PAULISTON      N1   R$  000000000335100000000033990000000003350000000000338700000000033900000000003390000000000340000012000000000000003100000000000010501600000000000000009999123100000010000000000000BRTRPLACNOR4185
012024051302TRPL4       010TRAN PAULISTPN      N1   R$  000000000252900000000025530000000002525000000000253500000000025350000000002531000000000253707206000000000001873000000000004749314200000000000000009999123100000010000000000000BRTRPLACNPR1185
012024051302TTEN3       0103TENTOS     ON      NM   R$  000000000100600000000010080000000000986000000000099700000000009980000000000997000000000100203302000000000000981000000000000978599500000000000000009999123100000010000000000000BRTTENACNOR0103
012024051302TUPY3       010TUPY        ON      NM   R$  000000000252200000000025220000000002485000000000250100000000025040000000002496000000000250502332000000000000442500000000001106889400000000000000009999123100000010000000000000BRTUPYACNOR1183
012024051302UCAS3       010UNICASA     ON      NM   R$  000000000023900000000002450000000000239000000000024100000000002420000000000240000000000024200330000000000000044400000000000010739900000000000000009999123100000010000000000000BRUCASACNOR1113
012024051302UGPA3       010ULTRAPAR    ON      NM   R$  000000000244900000000024840000000002422000000000245300000000024450000000002443000000000244913359000000000003864500000000009482059000000000000000009999123100000010000000000000BRUGPAACNOR8155
012024051302WEST3       010WESTWING    ON      NM   R$  000000000011500000000001170000000000114000000000011400000000001160000000000115000000000011600040000000000000026300000000000003016800000000000000009999123100000010000000000000BRWESTACNOR3100
012024051302WHRL3       010WHIRLPOOL   ON           R$  000000000046200000000004680000000000458000000000046500000000004680000000000457000000000046600007000000000000001000000000000000465800000000000000009999123100000010000000000000BRWHRLACNOR5128
012024051302WHRL4       010WHIRLPOOL   PN           R$  000000000047000000000004700000000000470000000000046900000000004700000000000467000000000046800002000000000000000400000000000000187800000000000000009999123100000010000000000000BRWHRLACNPR2128
012024051302WIZC3       010WIZ CO      ON      NM   R$  000000000067700000000006800000000000643000000000066200000000006500000000000648000000000065001925000000000000706000000000000468064900000000000000009999123100000010000000000000BRWIZCACNOR5102
012024051302WLMM4       010WLM IND COM PN           R$  000000000290300000000031690000000002902000000000293800000000031690000000002909000000000317000006000000000000002000000000000005877200000000000000009999123100000010000000000000BRWLMMACNPR3118
012024051302YDUQ3       010YDUQS PART  ON      NM   R$  000000000149900000000015070000000001374000000000140200000000013760000000001376000000000137928262000000000013225400000000018543395900000000000000009999123100000010000000000000BRYDUQACNOR3105
012024051302PFRM3       010PROFARMA    ON      NM   R$  000000000058800000000005950000000000579000000000058400000000005870000000000582000000000058700352000000000000105500000000000061674500000000000000009999123100000010000000000000BRPFRMACNOR1116
012024051302PGMN3       010PAGUE MENOS ON      NM   R$  000000000024900000000002510000000000245000000000024800000000002500000000000249000000000025000787000000000000242100000000000060155500000000000000009999123100000010000000000000BRPGMNACNOR8103
012024051302PINE3       010PINE        ON      N2   R$  000000000058600000000005860000000000581000000000058400000000005810000000000581000000000062900005000000000000000800000000000000467700000000000000009999123100000010000000000000BRPINEACNOR1149
012024051302PINE4       010PINE        PN      N2   R$  000000000045300000000004620000000000448000000000045600000000004560000000000455000000000045600409000000000000181500000000000082868800000000000000009999123100000010000000000000BRPINEACNPR8149
012024051302PLPL3       010PLANOEPLANO ON      NM   R$  000000000102600000000010420000000000988000000000100500000000010010000000001000000000000100203821000000000001331900000000001339126500000000000000009999123100000010000000000000BRPLPLACNOR5104
012024051302PNVL3       010DIMED       ON      NM   R$  000000000104500000000010510000000001027000000000103700000000010350000000001034000000000103502162000000000000400000000000000415109100000000000000009999123100000010000000000000BRPNVLACNOR9206
012024051302POMO3       010MARCOPOLO   ON      N2   R$  000000000051500000000005280000000000514000000000052300000000005230000000000523000000000052600510000000000000324900000000000170122600000000000000009999123100000010000000000000BRPOMOACNOR0097
012024051302POMO4       010MARCOPOLO   PN      N2   R$  000000000067000000000006830000000000666000000000067600000000006790000000000675000000000067906882000000000005728200000000003876447700000000000000009999123100000010000000000000BRPOMOACNPR7097
012024051302PORT3       010WILSON SONS ON      NM   R$  000000000163800000000016410000000001628000000000163400000000016380000000001635000000000163801426000000000000399400000000000652903000000000000000009999123100000010000000000000BRPORTACNOR8107
012024051302POSI3       010POSITIVO TECON  ED  NM   R$  000000000091000000000009340000000000903000000000092400000000009290000000000929000000000093001859000000000000827100000000000764809100000000000000009999123100000010000000000000BRPOSIACNOR9116
012024051302PRIO3       010PETRORIO    ON      NM   R$  000000000472800000000047660000000004627000000000467400000000046400000000004638000000000464023243000000000006230400000000029126360300000000000000009999123100000010000000000000BRPRIOACNOR1106
012024051302RSUL4       010RIOSULENSE  PN           R$  000000000710000000000071000000000007100000000000710000000000071000000000006970000000000739800001000000000000000100000000000000710000000000000000009999123100000010000000000000BRRSULACNPR3114
012024051302TASA3       010TAURUS ARMASON  ED  N2   R$  000000000121100000000012260000000001209000000000121300000000012090000000001209000000000121500028000000000000003700000000000004489300000000000000009999123100000010000000000000BRTASAACNOR7104
012024051302TASA4       010TAURUS ARMASPN  ED  N2   R$  000000000113100000000011690000000001128000000000115200000000011520000000001151000000000115301289000000000000294400000000000339228200000000000000009999123100000010000000000000BRTASAACNPR4104
012024051302TCSA3       010TECNISA     ON      NM   R$  000000000025300000000002560000000000244000000000024800000000002450000000000245000000000024700173000000000000051700000000000012870100000000000000009999123100000010000000000000BRTCSAACNOR3112
012024051302TECN3       010TECHNOS     ON      NM   R$  000000000044000000000004490000000000427000000000043800000000004450000000000445000000000044700328000000000000170300000000000074656600000000000000009999123100000010000000000000BRTECNACNOR6109
012024051302TEND3       010TENDA       ON      NM   R$  000000000123100000000012320000000001189000000000120400000000011980000000001198000000000120608170000000000002603500000000003136684500000000000000009999123100000010000000000000BRTENDACNOR4111
012024051302TFCO4       010TRACK FIELD PN  ED  N2   R$  000000000115900000000011840000000001157000000000118000000000011840000000001178000000000118400202000000000000094800000000000111930900000000000000009999123100000010000000000000BRTFCOACNPR8113
012024051302TGMA3       010TEGMA       ON      NM   R$  000000000256000000000025700000000002534000000000255300000000025700000000002547000000000257000613000000000000121600000000000310493200000000000000009999123100000010000000000000BRTGMAACNOR7144
012024051302TIMS3       010TIM         ON      NM   R$  000000000167000000000017030000000001656000000000168700000000016770000000001677000000000167914541000000000008959600000000015114987600000000000000009999123100000010000000000000BRTIMSACNOR5116
012024051302VVEO3       010VIVEO       ON  ED  NM   R$  000000000035300000000003570000000000306000000000031700000000003110000000000311000000000031308793000000000005285000000000001678962000000000000000009999123100000010000000000000BRVVEOACNOR0104
012024051302WEGE3       010WEG         ON      NM   R$  000000000390900000000039320000000003850000000000387500000000039080000000003906000000000391012104000000000011032700000000042760603400000000000000009999123100000010000000000000BRWEGEACNOR0222
012024051302INTB3       010INTELBRAS   ON      NM   R$  000000000230800000000023470000000002296000000000232800000000023450000000002318000000000234501747000000000000370800000000000863318100000000000000009999123100000010000000000000BRINTBACNOR9111
012024051302IRBR3       010IRBBRASIL REON      NM   R$  000000000391000000000039810000000003741000000000382800000000037650000000003765000000000376908283000000000002300600000000008808039400000000000000009999123100000010000000000000BRIRBRACNOR4111
012024051302KRSA3       010KORA SAUDE  ON      NM   R$  000000000007100000000000710000000000069000000000006900000000000710000000000070000000000007100211000000000000887900000000000062117300000000000000009999123100000010000000000000BRKRSAACNOR0100
012024051302LAND3       010TERRASANTAPAON      NM   R$  000000000150000000000015180000000001459000000000148100000000014650000000001465000000000147600160000000000000027800000000000041186400000000000000009999123100000010000000000000BRLANDACNOR9103
012024051302LAVV3       010LAVVI       ON      NM   R$  000000000091900000000009350000000000915000000000092800000000009270000000000920000000000092701831000000000000530600000000000492435800000000000000009999123100000010000000000000BRLAVVACNOR4111
012024051302LEVE3       010METAL LEVE  ON      NM   R$  000000000326400000000033380000000003252000000000328600000000032590000000003254000000000326601719000000000000310800000000001021477200000000000000009999123100000010000000000000BRLEVEACNOR2197
012024051302LJQQ3       010QUERO-QUERO ON      NM   R$  000000000045900000000004650000000000443000000000045000000000004500000000000450000000000045105962000000000004119900000000001857157200000000000000009999123100000010000000000000BRLJQQACNOR5104
012024051302LOGG3       010LOG COM PROPON      NM   R$  000000000228800000000022890000000002222000000000224800000000022360000000002236000000000225301230000000000000225300000000000506595100000000000000009999123100000010000000000000BRLOGGACNOR7107
012024051302LOGN3       010LOG-IN      ON      NM   R$  000000000394900000000040280000000003850000000000392200000000038500000000003850000000000393200218000000000000036000000000000141214300000000000000009999123100000010000000000000BRLOGNACNOR3105
012024051302LPSB3       010LOPES BRASILON  ED  NM   R$  000000000022300000000002260000000000223000000000022400000000002230000000000223000000000022600150000000000000040300000000000009065400000000000000009999123100000010000000000000BRLPSBACNOR0114
012024051302LREN3       010LOJAS RENNERON      NM   R$  000000000151200000000015430000000001512000000000152400000000015130000000001513000000000152417052000000000008237500000000012559870600000000000000009999123100000010000000000000BRLRENACNOR1220
012024051302BAHI3       010BAHEMA      ON      MA   R$  000000000079900000000008140000000000790000000000080400000000008140000000000780000000000081000013000000000000003100000000000002495400000000000000009999123100000010000000000000BRBAHIACNOR1074
012024051302BAZA3       010AMAZONIA    ON           R$  000000001016100000000101610000000010000000000001007300000000100990000000010043000000001019500023000000000000003200000000000032234000000000000000009999123100000010000000000000BRBAZAACNOR0179
012024051302BBAS3       010BRASIL      ON      NM   R$  000000000276500000000027970000000002765000000000278000000000027830000000002783000000000278440796000000000014278500000000039704430200000000000000009999123100000010000000000000BRBBASACNOR3322
012024051302BRBI11      010BR PARTNERS UNT     N2   R$  000000000153900000000015880000000001539000000000157200000000015720000000001566000000000157201057000000000000325200000000000511308500000000000000009999123100000010000000000000BRBRBICDAM10108
012024051302BRFS3       010BRF SA      ON      NM   R$  000000000179300000000018310000000001767000000000180300000000018130000000001810000000000181322097000000000010704100000000019310159200000000000000009999123100000010000000000000BRBRFSACNOR8122
012024051302CRFB3       010CARREFOUR BRON      NM   R$  000000000111600000000011200000000001091000000000110200000000010940000000001094000000000109611575000000000004276800000000004716285900000000000000009999123100000010000000000000BRCRFBACNOR2116
012024051302CRPG5       010CRISTAL     PNA          R$  000000000309900000000031480000000003098000000000311500000000031000000000003100000000000314800018000000000000003500000000000010903200000000000000009999123100000010000000000000BRCRPGACNPA3118
012024051302CRPG6       010CRISTAL     PNB          R$  000000000309600000000030960000000003038000000000306300000000030380000000003037000000000308100004000000000000000400000000000001225400000000000000009999123100000010000000000000BRCRPGACNPB1118
012024051302CSAN3       010COSAN       ON      NM   R$  000000000143000000000014470000000001421000000000143400000000014350000000001434000000000143513769000000000006240800000000008953772200000000000000009999123100000010000000000000BRCSANACNOR6125
012024051302ELMD3       010ELETROMIDIA ON      NM   R$  000000000190000000000019330000000001867000000000188600000000018730000000001871000000000188600319000000000000086000000000000162244300000000000000009999123100000010000000000000BRELMDACNOR3101
012024051302EMAE4       010EMAE        PN           R$  000000000520100000000052990000000005150000000000521600000000052490000000005249000000000525000018000000000000002100000000000010953900000000000000009999123100000010000000000000BREMAEACNPR1125
012024051302EMBR3       010EMBRAER     ON      NM   R$  000000000335700000000034350000000003355000000000341000000000034270000000003427000000000342812550000000000004064800000000013861465000000000000000009999123100000010000000000000BREMBRACNOR4191
012024051302JHSF3       010JHSF PART   ON      NM   R$  000000000042000000000004240000000000418000000000042000000000004210000000000420000000000042102041000000000001273400000000000535031700000000000000009999123100000010000000000000BRJHSFACNOR2135
012024051302JSLG3       010JSL         ON      NM   R$  000000000107200000000010800000000001028000000000105200000000010280000000001028000000000102901505000000000000449000000000000472434600000000000000009999123100000010000000000000BRJSLGACNOR2121
012024051302KEPL3       010KEPLER WEBERON      NM   R$  000000000100100000000010200000000000998000000000100700000000010000000000000999000000000100002614000000000000827000000000000833028200000000000000009999123100000010000000000000BRKEPLACNOR1062
012024051302KLBN11      010KLABIN S/A  UNT EDB N2   R$  000000000216500000000021780000000002153000000000216600000000021670000000002167000000000217605914000000000002204900000000004776628200000000000000009999123100000010000000000000BRKLBNCDAM18142
012024051302KLBN3       010KLABIN S/A  ON  EDB N2   R$  000000000042900000000004340000000000429000000000043200000000004340000000000432000000000043400502000000000000163100000000000070497400000000000000009999123100000010000000000000BRKLBNACNOR2170
012024051302KLBN4       010KLABIN S/A  PN  EDB N2   R$  000000000043300000000004360000000000431000000000043200000000004340000000000434000000000043502024000000000001038500000000000449463700000000000000009999123100000010000000000000BRKLBNACNPR9170
012024051302MTRE3       010MITRE REALTYON      NM   R$  000000000039800000000004080000000000394000000000040000000000004010000000000400000000000040102526000000000002782800000000001115720500000000000000009999123100000010000000000000BRMTREACNOR6110
012024051302MTSA4       010METISA      PN  ED       R$  000000000453300000000045330000000004370000000000444500000000044410000000004376000000000444100009000000000000001000000000000004445600000000000000009999123100000010000000000000BRMTSAACNPR9072
012024051302MULT3       010MULTIPLAN   ON      N2   R$  000000000234700000000023890000000002347000000000237100000000023670000000002365000000000236808434000000000001843500000000004371928200000000000000009999123100000010000000000000BRMULTACNOR5138
012024051302VITT3       010VITTIA      ON      NM   R$  000000000054000000000005400000000000523000000000052900000000005290000000000526000000000052901090000000000000258800000000000136988700000000000000009999123100000010000000000000BRVITTACNOR4107
012024051302VIVA3       010VIVARA S.A. ON      NM   R$  000000000230400000000023270000000002288000000000230500000000023000000000002299000000000231408392000000000003117100000000007187896800000000000000009999123100000010000000000000BRVIVAACNOR0107
012024051302VIVR3       010VIVER       ON      NM   R$  000000000029000000000002970000000000285000000000028900000000002870000000000285000000000028700121000000000000032600000000000009447500000000000000009999123100000010000000000000BRVIVRACNOR4122
012024051302VIVT3       010TELEF BRASILON           R$  000000000451100000000045940000000004497000000000455900000000045400000000004539000000000455214776000000000002744300000000012512950200000000000000009999123100000010000000000000BRVIVTACNOR0181
012024051302VLID3       010VALID       ON      NM   R$  000000000168800000000017370000000001687000000000170800000000017160000000001708000000000171601441000000000000207400000000000354305000000000000000009999123100000010000000000000BRVLIDACNOR5142
012024051302GMAT3       010GRUPO MATEUSON      NM   R$  000000000078900000000007960000000000783000000000078800000000007870000000000787000000000079003820000000000002327000000000001833773900000000000000009999123100000010000000000000BRGMATACNOR7101
012024051302GOAU3       010GERDAU MET  ON      N1   R$  000000000111100000000011280000000001111000000000112000000000011170000000001116000000000112100245000000000000044500000000000049848300000000000000009999123100000010000000000000BRGOAUACNOR1266
012024051302GOAU4       010GERDAU MET  PN      N1   R$  000000000111100000000011230000000001111000000000111700000000011230000000001122000000000112307391000000000005033900000000005625169000000000000000009999123100000010000000000000BRGOAUACNPR8267
012024051302ANIM3       010ANIMA       ON      NM   R$  000000000035200000000003580000000000345000000000035100000000003510000000000351000000000035204974000000000004019900000000001414659800000000000000009999123100000010000000000000BRANIMACNOR6107
012024051302APER3       010ALPER S.A.  ON           R$  000000000450900000000045140000000004509000000000451000000000045100000000004510000000000458700011000000000000001100000000000004961900000000000000009999123100000010000000000000BRAPERACNOR9106
012024051302SNSY5       010SANSUY      PNA          R$  000000000062800000000006280000000000621000000000062000000000006210000000000620000000000062700013000000000000007800000000000004839000000000000000009999123100000010000000000000BRSNSYACNPA5111
012024051302SOJA3       010BOA SAFRA   ON      NM   R$  000000000177500000000017790000000001750000000000176100000000017590000000001758000000000176501629000000000000285400000000000502775800000000000000009999123100000010000000000000BRSOJAACNOR9105
012024051302SOMA3       010GRUPO SOMA  ON      NM   R$  000000000056300000000005700000000000555000000000055900000000005600000000000559000000000056109683000000000007192300000000004027596700000000000000009999123100000010000000000000BRSOMAACNOR3102
012024051302VALE3       010VALE        ON      NM   R$  000000000647000000000065050000000006439000000000647200000000064670000000006467000000000646828920000000000014504100000000093878456800000000000000009999123100000010000000000000BRVALEACNOR0210
012024051302MRVE3       010MRV         ON      NM   R$  000000000070200000000007150000000000696000000000070300000000007000000000000699000000000070008485000000000006978700000000004909056500000000000000009999123100000010000000000000BRMRVEACNOR2127
012024051302QUAL3       010QUALICORP   ON      NM   R$  000000000016300000000001680000000000162000000000016500000000001660000000000166000000000016704430000000000002793700000000000463337700000000000000009999123100000010000000000000BRQUALACNOR6120
012024051302ARML3       010ARMAC       ON      NM   R$  000000000102800000000010690000000001023000000000105800000000010640000000001064000000000106702720000000000000738600000000000781843400000000000000009999123100000010000000000000BRARMLACNOR1111
012024051302ARZZ3       010AREZZO CO   ON      NM   R$  000000000480200000000048570000000004721000000000477900000000047210000000004720000000000472108208000000000001806200000000008632057400000000000000009999123100000010000000000000BRARZZACNOR3146
012024051302CGRA3       010GRAZZIOTIN  ON           R$  000000000253700000000025380000000002480000000000250500000000024800000000002478000000000251700027000000000000009100000000000022796500000000000000009999123100000010000000000000BRCGRAACNOR2082
012024051302CGRA4       010GRAZZIOTIN  PN           R$  000000000258000000000025980000000002451000000000251100000000024710000000002471000000000247500092000000000000019100000000000047978000000000000000009999123100000010000000000000BRCGRAACNPR9082
012024051302CIEL3       010CIELO       ON      NM   R$  000000000055800000000005590000000000557000000000055700000000005580000000000557000000000055907293000000000017793000000000009925578000000000000000009999123100000010000000000000BRCIELACNOR3157
012024051302RADL3       010RAIADROGASILON      NM   R$  000000000258400000000026740000000002564000000000263600000000026550000000002655000000000265811673000000000010071400000000026557924700000000000000009999123100000010000000000000BRRADLACNOR0156
012024051302SHOW3       010TIME FOR FUNON      NM   R$  000000000018700000000002000000000000187000000000019400000000001910000000000191000000000019300337000000000000217700000000000042395300000000000000009999123100000010000000000000BRSHOWACNOR7105
012024051302SHUL4       010SCHULZ      PN           R$  000000000061300000000006150000000000604000000000060800000000006100000000000607000000000061101217000000000000367500000000000223666700000000000000009999123100000010000000000000BRSHULACNPR4155
012024051302SIMH3       010SIMPAR      ON      NM   R$  000000000061600000000006300000000000612000000000061900000000006130000000000612000000000061302953000000000002384000000000001477769900000000000000009999123100000010000000000000BRSIMHACNOR0107
012024051302CLSC4       010CELESC      PN  ED  N2   R$  000000000711100000000071470000000007002000000000707000000000070040000000007001000000000704500026000000000000002800000000000019796300000000000000009999123100000010000000000000BRCLSCACNPR3130
012024051302CMIG3       010CEMIG       ON      N1   R$  000000000121600000000012460000000001212000000000123700000000012400000000001237000000000124001258000000000000435900000000000539348900000000000000009999123100000010000000000000BRCMIGACNOR6241
012024051302CMIG4       010CEMIG       PN      N1   R$  000000000101300000000010320000000001008000000000101800000000010170000000001016000000000101719097000000000018695300000000019041489500000000000000009999123100000010000000000000BRCMIGACNPR3242
012024051302CYRE3       010CYRELA REALTON      NM   R$  000000000209500000000021070000000002060000000000207300000000020600000000002059000000000206311678000000000002947800000000006112879100000000000000009999123100000010000000000000BRCYREACNOR7140
012024051302SLCE3       010SLC AGRICOLAON  ED  NM   R$  000000000183900000000018550000000001837000000000184400000000018430000000001842000000000184304129000000000001087800000000002006311200000000000000009999123100000010000000000000BRSLCEACNOR2125
012024051302MILS3       010MILLS       ON  ED  NM   R$  000000000130700000000013150000000001299000000000130600000000013050000000001305000000000131102964000000000000911500000000001190807500000000000000009999123100000010000000000000BRMILSACNOR2126
012024051302MLAS3       010MULTILASER  ON      NM   R$  000000000019100000000001940000000000190000000000019100000000001900000000000190000000000019101023000000000001299700000000000248551900000000000000009999123100000010000000000000BRMLASACNOR9101
012024051302MNDL3       010MUNDIAL     ON           R$  000000000454900000000045500000000004549000000000454900000000045490000000004302000000000454900003000000000000001200000000000005459800000000000000009999123100000010000000000000BRMNDLACNOR4107
012024051302MNPR3       010MINUPAR     ON           R$  000000000138000000000013800000000001335000000000135200000000013410000000001340000000000144500008000000000000000900000000000001217300000000000000009999123100000010000000000000BRMNPRACNOR5122
012024051302MOVI3       010MOVIDA      ON      NM   R$  000000000069400000000007260000000000686000000000070600000000006950000000000695000000000069712130000000000005920300000000004184770300000000000000009999123100000010000000000000BRMOVIACNOR0122
012024051302PRNR3       010PRINER      ON  ED  NM   R$  000000000123900000000012410000000001198000000000121000000000012170000000001217000000000121801294000000000000352000000000000426201500000000000000009999123100000010000000000000BRPRNRACNOR4109
012024051302SYNE3       010SYN PROP TECON      NM   R$  000000000092000000000009390000000000918000000000092400000000009250000000000917000000000092501288000000000000321700000000000297262400000000000000009999123100000010000000000000BRSYNEACNOR2102
012024051302PSSA3       010PORTO SEGUROON      NM   R$  000000000284800000000028650000000002810000000000282800000000028100000000002810000000000281106830000000000001535500000000004343646700000000000000009999123100000010000000000000BRPSSAACNOR7154
012024051302PTBL3       010PORTOBELLO  ON      NM   R$  000000000058400000000005990000000000584000000000059100000000005870000000000587000000000059100633000000000000306400000000000181233300000000000000009999123100000010000000000000BRPTBLACNOR8132
012024051302PTNT4       010PETTENATI   PN           R$  000000000072800000000007400000000000728000000000073800000000007400000000000708000000000074400005000000000000000600000000000000442800000000000000009999123100000010000000000000BRPTNTACNPR3047
012024051302SBFG3       010GRUPO SBF   ON      NM   R$  000000000121800000000012370000000001196000000000121300000000012050000000001203000000000121404082000000000001344900000000001631693000000000000000009999123100000010000000000000BRSBFGACNOR1103
012024051302TAEE11      010TAESA       UNT ED  N2   R$  000000000347900000000035020000000003471000000000349000000000035000000000003488000000000350005317000000000001304400000000004553091000000000000000009999123100000010000000000000BRTAEECDAM10146
012024051302TAEE3       010TAESA       ON  ED  N2   R$  000000000115900000000011620000000001150000000000115500000000011550000000001154000000000115500803000000000000174700000000000201808200000000000000009999123100000010000000000000BRTAEEACNOR9146
012024051302TAEE4       010TAESA       PN  ED  N2   R$  000000000116700000000011730000000001165000000000116800000000011710000000001170000000000117101016000000000000250100000000000292276100000000000000009999123100000010000000000000BRTAEEACNPR6146
012024051302SBSP3       010SABESP      ON      NM   R$  000000000786400000000079280000000007807000000000787400000000078470000000007844000000000785509843000000000001916300000000015090128000000000000000009999123100000010000000000000BRSBSPACNOR5161
012024051302SCAR3       010SAO CARLOS  ON  ED  NM   R$  000000000243300000000024540000000002431000000000244600000000024500000000002434000000000245100034000000000000004700000000000011496900000000000000009999123100000010000000000000BRSCARACNOR7131
012024051302SEER3       010SER EDUCA   ON      NM   R$  000000000052100000000005210000000000469000000000048600000000004690000000000469000000000047302338000000000001243600000000000605080200000000000000009999123100000010000000000000BRSEERACNOR5119
012024051302SEQL3       010SEQUOIA LOG ON      NM   R$  000000000003800000000000400000000000038000000000003800000000000390000000000039000000000004000369000000000002092100000000000081390700000000000000009999123100000010000000000000BRSEQLACNOR2102
012024051302UNIP3       010UNIPAR      ON           R$  000000000520000000000053120000000005200000000000525000000000052150000000005215000000000528000053000000000000006000000000000031503000000000000000009999123100000010000000000000BRUNIPACNOR7206
012024051302UNIP6       010UNIPAR      PNB          R$  000000000521600000000052840000000005180000000000522700000000052310000000005217000000000523101327000000000000200800000000001049746400000000000000009999123100000010000000000000BRUNIPACNPB8206
012024051302USIM3       010USIMINAS    ON      N1   R$  000000000074500000000007490000000000739000000000074300000000007470000000000741000000000074701410000000000000354300000000000263487400000000000000009999123100000010000000000000BRUSIMACNOR3167
012024051302USIM5       010USIMINAS    PNA     N1   R$  000000000080000000000008060000000000794000000000079900000000007980000000000797000000000079909006000000000008528100000000006817447900000000000000009999123100000010000000000000BRUSIMACNPA6169
012024051302ZAMP3       010ZAMP S.A.   ON           R$  000000000033500000000003410000000000326000000000033200000000003260000000000326000000000032803205000000000000594300000000000197503100000000000000009999123100000010000000000000BRZAMPACNOR5100
012024051302SANB11      010SANTANDER BRUNT          R$  000000000284500000000028740000000002832000000000284900000000028560000000002850000000000285707448000000000001801900000000005134433100000000000000009999123100000010000000000000BRSANBCDAM13164
012024051302SANB3       010SANTANDER BRON           R$  000000000134700000000013500000000001334000000000134100000000013420000000001342000000000134900246000000000000051900000000000069598000000000000000009999123100000010000000000000BRSANBACNOR8171
012024051302SANB4       010SANTANDER BRPN           R$  000000000150800000000015220000000001501000000000150900000000015040000000001504000000000151400275000000000000051200000000000077262300000000000000009999123100000010000000000000BRSANBACNPR5171
012024051302FIQE3       010UNIFIQUE    ON      NM   R$  000000000036300000000003650000000000359000000000036100000000003600000000000360000000000036100496000000000000272200000000000098362400000000000000009999123100000010000000000000BRFIQEACNOR5106
012024051302FLRY3       010FLEURY      ON      NM   R$  000000000143500000000014500000000001431000000000144000000000014470000000001446000000000144706761000000000002196900000000003164298900000000000000009999123100000010000000000000BRFLRYACNOR5138
012024051302FRAS3       010FRAS-LE     ON      N1   R$  000000000179900000000018460000000001791000000000182800000000018350000000001826000000000183500890000000000000147100000000000268903300000000000000009999123100000010000000000000BRFRASACNOR0159
012024051302CURY3       010CURY S/A    ON  ED  NM   R$  000000000193500000000019490000000001896000000000191700000000019150000000001909000000000191508794000000000001727700000000003312732700000000000000009999123100000010000000000000BRCURYACNOR3109
012024051302CVCB3       010CVC BRASIL  ON      NM   R$  000000000022300000000002270000000000219000000000022200000000002210000000000220000000000022206184000000000006727500000000001497937000000000000000009999123100000010000000000000BRCVCBACNOR1115
012024051302CXSE3       010CAIXA SEGURION      NM   R$  000000000160800000000016260000000001572000000000159000000000015800000000001580000000000158110000000000000003817100000000006071545500000000000000009999123100000010000000000000BRCXSEACNOR7106
012024051302RENT3       010LOCALIZA    ON      NM   R$  000000000473100000000047390000000004576000000000462300000000046300000000004630000000000463147855000000000017523300000000081023525100000000000000009999123100000010000000000000BRRENTACNOR4195
012024051302VAMO3       010VAMOS       ON      NM   R$  000000000081000000000008160000000000794000000000080300000000008030000000000803000000000080410750000000000004362500000000003504070200000000000000009999123100000010000000000000BRVAMOACNOR7105
012024051302VBBR3       010VIBRA       ON      NM   R$  000000000240500000000024060000000002360000000000236900000000023630000000002363000000000236519299000000000012203700000000028911046400000000000000009999123100000010000000000000BRVBBRACNOR1107
012024051302MWET4       010WETZEL S/A  PN           R$  000000000054000000000005400000000000540000000000054000000000005400000000000506000000000054200006000000000000000700000000000000378000000000000000009999123100000010000000000000BRMWETACNPR3118
012024051302MYPK3       010IOCHP-MAXIONON      NM   R$  000000000119500000000012070000000001168000000000119100000000011900000000001185000000000119003960000000000001027800000000001224499400000000000000009999123100000010000000000000BRMYPKACNOR7154
012024051302NEOE3       010NEOENERGIA  ON      NM   R$  000000000192000000000019400000000001919000000000193100000000019300000000001930000000000193102584000000000001150100000000002221535800000000000000009999123100000010000000000000BRNEOEACNOR3122
012024051302NGRD3       010NEOGRID     ON      NM   R$  000000000010100000000001010000000000098000000000009900000000000990000000000099000000000010000593000000000000899600000000000089393900000000000000009999123100000010000000000000BRNGRDACNOR3104
012024051302NINJ3       010GETNINJAS   ON      NM   R$  000000000047600000000004890000000000476000000000048300000000004810000000000478000000000048200029000000000000006500000000000003142400000000000000009999123100000010000000000000BRNINJACNOR5101
012024051302NTCO3       010GRUPO NATURAON      NM   R$  000000000173000000000017690000000001730000000000174900000000017400000000001740000000000174213537000000000004231400000000007404346700000000000000009999123100000010000000000000BRNTCOACNOR5106
012024051302RANI3       010IRANI       ON  ED  NM   R$  000000000088400000000008950000000000884000000000088800000000008890000000000888000000000088901165000000000000414200000000000367960300000000000000009999123100000010000000000000BRRANIACNOR5072
012024051302RAPT3       010RANDON PART ON      N1   R$  000000000090000000000009000000000000865000000000088700000000008960000000000869000000000089600217000000000000036900000000000032743700000000000000009999123100000010000000000000BRRAPTACNOR7162
012024051302RAPT4       010RANDON PART PN      N1   R$  000000000101100000000010360000000000998000000000101600000000009980000000000998000000000100405056000000000001735200000000001763687300000000000000009999123100000010000000000000BRRAPTACNPR4162
012024051302RCSL3       010RECRUSUL    ON           R$  000000000017500000000001780000000000170000000000017400000000001750000000000175000000000017602619000000000001796000000000000313572900000000000000009999123100000010000000000000BRRCSLACNOR4133
012024051302GEPA3       010GER PARANAP ON  ED       R$  000000000245500000000024550000000002455000000000245500000000024550000000002451000000000252900002000000000000000200000000000000491000000000000000009999123100000010000000000000BRGEPAACNOR2153
012024051302GEPA4       010GER PARANAP PN  ED       R$  000000000247000000000025000000000002450000000000247700000000024500000000002450000000000248000007000000000000000700000000000001734000000000000000009999123100000010000000000000BRGEPAACNPR9160
012024051302GFSA3       010GAFISA      ON      NM   R$  000000000048900000000004920000000000479000000000048300000000004870000000000486000000000048701296000000000001073900000000000519745700000000000000009999123100000010000000000000BRGFSAACNOR3124
012024051302ITSA3       010ITAUSA      ON      N1   R$  000000000100500000000010160000000001005000000000101000000000010090000000001009000000000101600318000000000000099000000000000100042000000000000000009999123100000010000000000000BRITSAACNOR0439
012024051302CAML3       010CAMIL       ON      NM   R$  000000000093300000000009830000000000927000000000096500000000009830000000000980000000000098303452000000000001780000000000001718111800000000000000009999123100000010000000000000BRCAMLACNOR3127
012024051302CASH3       010MELIUZ      ON      NM   R$  000000000049500000000005140000000000490000000000050900000000005100000000000509000000000051109987000000000003873800000000001972401500000000000000009999123100000010000000000000BRCASHACNOR8106
012024051302CBAV3       010CBA         ON      NM   R$  000000000053600000000005520000000000530000000000054400000000005520000000000549000000000055206703000000000005347100000000002910735400000000000000009999123100000010000000000000BRCBAVACNOR5104
012024051302CCRO3       010CCR SA      ON      NM   R$  000000000127400000000012800000000001266000000000127100000000012710000000001270000000000127214353000000000009638100000000012257010200000000000000009999123100000010000000000000BRCCROACNOR2145
012024051302CEAB3       010CEA MODAS   ON      NM   R$  000000000102500000000010440000000001002000000000102600000000010150000000001010000000000101607372000000000004893500000000005022579600000000000000009999123100000010000000000000BRCEABACNOR1102
012024051302CEBR3       010CEB         ON  ED       R$  000000000269100000000026910000000002599000000000261000000000026000000000002600000000000265000041000000000000006300000000000016445100000000000000009999123100000010000000000000BRCEBRACNOR5125
012024051302CEBR5       010CEB         PNA ED       R$  000000000218500000000022290000000002140000000000216200000000021400000000002137000000000217600015000000000000002300000000000004974600000000000000009999123100000010000000000000BRCEBRACNPA8124
012024051302CEBR6       010CEB         PNB ED       R$  000000000221500000000022170000000002178000000000220100000000022000000000002200000000000221800023000000000000002900000000000006385000000000000000009999123100000010000000000000BRCEBRACNPB6124
012024051302CEDO3       010CEDRO       ON      N1   R$  000000000290000000000029000000000002900000000000290000000000029000000000000002000000000300000001000000000000000100000000000000290000000000000000009999123100000010000000000000BRCEDOACNOR8096
012024051302CEDO4       010CEDRO       PN      N1   R$  000000000265000000000026500000000002650000000000265000000000026500000000002500000000000265000001000000000000000100000000000000265000000000000000009999123100000010000000000000BRCEDOACNPR5128
012024051302VSTE3       010VESTE       ON      NM   R$  000000000137200000000014310000000001372000000000138300000000013720000000001372000000000143000011000000000000001200000000000001660100000000000000009999123100000010000000000000BRVSTEACNOR5103
012024051302VULC3       010VULCABRAS   ON      NM   R$  000000000158900000000016070000000001566000000000157900000000015710000000001570000000000157501946000000000000515800000000000814693400000000000000009999123100000010000000000000BRVULCACNOR2158
012024051302ODPV3       010ODONTOPREV  ON      NM   R$  000000000121800000000012270000000001203000000000120900000000012080000000001204000000000121304242000000000001274600000000001541563900000000000000009999123100000010000000000000BRODPVACNOR4200
012024051302OFSA3       010OUROFINO S/AON      NM   R$  000000000214800000000021530000000002148000000000215000000000021500000000002015000000000218000011000000000000003000000000000006450800000000000000009999123100000010000000000000BROFSAACNOR7118
012024051302CEEB3       010COELBA      ON           R$  000000000395300000000039550000000003953000000000395400000000039550000000003916000000000396400002000000000000000200000000000000790800000000000000009999123100000010000000000000BRCEEBACNOR3198
012024051302CEED3       010CEEE-D      ON           R$  000000000171000000000017100000000001530000000000156200000000015300000000001530000000000220000011000000000000001300000000000002031000000000000000009999123100000010000000000000BRCEEDACNOR9103
012024051302CGAS3       010COMGAS      ON           R$  000000001080000000000108000000000010800000000001080000000000108000000000010507000000001084000002000000000000000200000000000002160000000000000000009999123100000010000000000000BRCGASACNOR0163
012024051302CGAS5       010COMGAS      PNA          R$  000000001111300000000111700000000011112000000001114100000000111700000000011172000000001131000004000000000000000400000000000004456400000000000000009999123100000010000000000000BRCGASACNPA3160
012024051302CSRN3       010COSERN      ON           R$  000000000240000000000024000000000002380000000000238600000000023800000000002325000000000242900005000000000000001000000000000002386000000000000000009999123100000010000000000000BRCSRNACNOR0192
012024051302CSUD3       010CSU DIGITAL ON      NM   R$  000000000186000000000018720000000001834000000000185200000000018390000000001834000000000183900210000000000000035300000000000065394700000000000000009999123100000010000000000000BRCSUDACNOR5109
012024051302CTKA4       010KARSTEN     PN           R$  000000000185000000000018500000000001700000000000173700000000018500000000001702000000000190000004000000000000001200000000000002085000000000000000009999123100000010000000000000BRCTKAACNPR7043
012024051302ALPA3       010ALPARGATAS  ON      N1   R$  000000000103800000000010400000000001033000000000103600000000010330000000001033000000000105000038000000000000005100000000000005287600000000000000009999123100000010000000000000BRALPAACNOR0231
012024051302ALPA4       010ALPARGATAS  PN      N1   R$  000000000102900000000010350000000001008000000000102100000000010270000000001022000000000102707124000000000002464900000000002518351200000000000000009999123100000010000000000000BRALPAACNPR7232
012024051302ALPK3       010ESTAPAR     ON      NM   R$  000000000038500000000003850000000000347000000000036100000000003470000000000347000000000035100534000000000000302400000000000109361500000000000000009999123100000010000000000000BRALPKACNOR9101
012024051302ALUP11      010ALUPAR      UNT     N2   R$  000000000289900000000029490000000002893000000000293500000000029490000000002935000000000295002293000000000000582800000000001710868200000000000000009999123100000010000000000000BRALUPCDAM15118
012024051302ALUP3       010ALUPAR      ON      N2   R$  000000000096200000000009890000000000962000000000097700000000009780000000000975000000000099400128000000000000013900000000000013588400000000000000009999123100000010000000000000BRALUPACNOR8118
012024051302ALUP4       010ALUPAR      PN      N2   R$  000000000095800000000009790000000000958000000000097100000000009740000000000974000000000097500133000000000000021900000000000021278800000000000000009999123100000010000000000000BRALUPACNPR5118
012024051302AMAR3       010LOJAS MARISAON      NM   R$  000000000015100000000001580000000000145000000000014900000000001490000000000148000000000014900850000000000000922800000000000138244000000000000000009999123100000010000000000000BRAMARACNOR4114
012024051302AMBP3       010AMBIPAR     ON      NM   R$  000000000099600000000010180000000000973000000000098700000000009800000000000978000000000098008826000000000001895600000000001871638000000000000000009999123100000010000000000000BRAMBPACNOR6103
012024051302BBDC3       010BRADESCO    ON  EJ  N1   R$  000000000119700000000012000000000001187000000000119300000000011920000000001192000000000119309100000000000007717200000000009206772100000000000000009999123100000010000000000000BRBBDCACNOR1769
012024051302BBDC4       010BRADESCO    PN  EJ  N1   R$  000000000134000000000013460000000001332000000000134000000000013430000000001342000000000134327574000000000021216600000000028438370900000000000000009999123100000010000000000000BRBBDCACNPR8769
012024051302CAMB3       010CAMBUCI     ON           R$  000000000100200000000010180000000000994000000000100200000000010000000000001000000000000100400146000000000000036500000000000036587200000000000000009999123100000010000000000000BRCAMBACNOR4128
012024051302FESA3       010FERBASA     ON      N1   R$  000000000151900000000015200000000001481000000000150500000000014850000000001441000000000148000004000000000000000500000000000000752500000000000000009999123100000010000000000000BRFESAACNOR8187
012024051302FESA4       010FERBASA     PN      N1   R$  000000000080000000000008080000000000797000000000080000000000007990000000000799000000000080402195000000000000847200000000000678188600000000000000009999123100000010000000000000BRFESAACNPR5083
012024051302FHER3       010FER HERINGERON      NM   R$  000000000049000000000005000000000000486000000000049200000000004940000000000487000000000049400031000000000000005200000000000002559100000000000000009999123100000010000000000000BRFHERACNOR5103
012024051302FIEI3       010FICA        ON           R$  000000000084300000000008430000000000843000000000084300000000008430000000000840000000000105000003000000000000001100000000000000927300000000000000009999123100000010000000000000BRFIEIACNOR2100
012024051302ONCO3       010ONCOCLINICASON      NM   R$  000000000069800000000007150000000000675000000000068900000000006800000000000680000000000068309188000000000003739200000000002577922200000000000000009999123100000010000000000000BRONCOACNOR6100
012024051302OPCT3       010OCEANPACT   ON      NM   R$  000000000067000000000006760000000000664000000000066900000000006720000000000670000000000067202007000000000000815500000000000545629800000000000000009999123100000010000000000000BROPCTACNOR0100
012024051302ORVR3       010ORIZON      ON      NM   R$  000000000393600000000039760000000003910000000000395300000000039750000000003970000000000397501055000000000000171400000000000677661000000000000000009999123100000010000000000000BRORVRACNOR0101
012024051302PCAR3       010P.ACUCAR-CBDON      NM   R$  000000000031100000000003160000000000300000000000030600000000003030000000000302000000000030306580000000000009159600000000002810261200000000000000009999123100000010000000000000BRPCARACNOR3167
012024051302PETZ3       010PETZ        ON  ED  NM   R$  000000000045400000000004630000000000448000000000045300000000004500000000000449000000000045104972000000000006573400000000002980002700000000000000009999123100000010000000000000BRPETZACNOR2110
012024051302ITSA4       010ITAUSA      PN      N1   R$  000000000100700000000010160000000001004000000000101000000000010120000000001012000000000101326595000000000018721200000000018915885900000000000000009999123100000010000000000000BRITSAACNPR7439
012024051302LUPA3       010LUPATECH    ON      NM   R$  000000000014500000000001470000000000143000000000014400000000001450000000000145000000000014600398000000000000394000000000000057067500000000000000009999123100000010000000000000BRLUPAACNOR8112
012024051302LVTC3       010WDC NETWORKSON      NM   R$  000000000041700000000004180000000000408000000000041400000000004180000000000416000000000041800021000000000000006800000000000002817500000000000000009999123100000010000000000000BRLVTCACNOR4102
012024051302LWSA3       010LWSA        ON      NM   R$  000000000049100000000004920000000000473000000000047800000000004770000000000476000000000047708572000000000005121500000000002449520000000000000000009999123100000010000000000000BRLWSAACNOR8103
012024051302MAPT3       010CEMEPE      ON           R$  000000000058500000000005850000000000560000000000057200000000005600000000000561000000000059800002000000000000000200000000000000114500000000000000009999123100000010000000000000BRMAPTACNOR8106
012024051302MATD3       010MATER DEI   ON  ED  NM   R$  000000000054400000000005610000000000539000000000055400000000005610000000000555000000000056101680000000000000344300000000000190851800000000000000009999123100000010000000000000BRMATDACNOR4104
012024051302MBLY3       010MOBLY       ON      NM   R$  000000000020600000000002070000000000202000000000020400000000002040000000000204000000000020600235000000000000124000000000000025299000000000000000009999123100000010000000000000BRMBLYACNOR5100
012024051302MDIA3       010M.DIASBRANCOON      NM   R$  000000000337500000000035340000000003333000000000346800000000035000000000003500000000000350511032000000000002554900000000008862813000000000000000009999123100000010000000000000BRMDIAACNOR7134
012024051302AERI3       010AERIS       ON      NM   R$  000000000005500000000000560000000000054000000000005500000000000540000000000054000000000005501969000000000003566700000000000196204000000000000000009999123100000010000000000000BRAERIACNOR4101
012024051302AESB3       010AES BRASIL  ON      NM   R$  000000000095400000000009700000000000952000000000096200000000009700000000000968000000000097003652000000000001563900000000001505853800000000000000009999123100000010000000000000BRAESBACNOR7106
012024051302AFLT3       010AFLUENTE T  ON           R$  000000000073300000000007400000000000718000000000072900000000007180000000000717000000000073000007000000000000000800000000000000583400000000000000009999123100000010000000000000BRAFLTACNOR1121
012024051302AGRO3       010BRASILAGRO  ON      NM   R$  000000000254300000000025810000000002530000000000256400000000025660000000002562000000000256601079000000000000142800000000000366153700000000000000009999123100000010000000000000BRAGROACNOR7114
012024051302AGXY3       010AGROGALAXY  ON  ES  NM   R$  000000000016900000000001720000000000168000000000016900000000001680000000000168000000000016900262000000000000110100000000000018627100000000000000009999123100000010000000000000BRAGXYACNOR4103
012024051302ALLD3       010ALLIED      ON      NM   R$  000000000074500000000007450000000000708000000000072400000000007080000000000708000000000071700542000000000000125100000000000090601900000000000000009999123100000010000000000000BRALLDACNOR3106
012024051302ALOS3       010ALLOS       ON  ED  NM   R$  000000000212000000000021740000000002116000000000214700000000021370000000002135000000000214413312000000000005743600000000012334365000000000000000009999123100000010000000000000BRALOSACNOR5101
012024051302BMEB3       010MERCANTIL   ON      N1   R$  000000000264800000000026500000000002648000000000264800000000026500000000002650000000000280000002000000000000000800000000000002118600000000000000009999123100000010000000000000BRBMEBACNOR8205
012024051302BMEB4       010MERCANTIL   PN      N1   R$  000000000277400000000029020000000002774000000000285200000000028360000000002835000000000285500060000000000000019100000000000054482900000000000000009999123100000010000000000000BRBMEBACNPR5210
012024051302BMGB4       010BANCO BMG   PN      N1   R$  000000000032400000000003300000000000324000000000032700000000003290000000000328000000000032900502000000000000228600000000000074808700000000000000009999123100000010000000000000BRBMGBACNPR0109
012024051302BMKS3       010BIC MONARK  ON  ED       R$  000000003640000000000383500000000036400000000003796600000000382560000000036002000000003785000008000000000000000014000000000000531529000000000000009999123100000010000000000000BRBMKSACNOR9166
012024051302BMOB3       010BEMOBI TECH ON      NM   R$  000000000120900000000012380000000001204000000000122700000000012300000000001223000000000123201895000000000000465200000000000570974500000000000000009999123100000010000000000000BRBMOBACNOR7103
012024051302BOBR4       010BOMBRIL     PN           R$  000000000021500000000002200000000000212000000000021500000000002120000000000212000000000021800150000000000000029400000000000006333200000000000000009999123100000010000000000000BRBOBRACNPR3128
012024051302BRSR3       010BANRISUL    ON  ED  N1   R$  000000000114500000000011450000000001130000000000113400000000011320000000001131000000000114100075000000000000012200000000000013839300000000000000009999123100000010000000000000BRBRSRACNOR3187
012024051302BRSR6       010BANRISUL    PNB ED  N1   R$  000000000110900000000011140000000001073000000000109200000000010840000000001082000000000108507874000000000003533400000000003860118200000000000000009999123100000010000000000000BRBRSRACNPB4190
012024051302BSLI3       010BRB BANCO   ON           R$  000000000101500000000010150000000001015000000000101500000000010150000000001000000000000104000001000000000000001900000000000001928500000000000000009999123100000010000000000000BRBSLIACNOR5192
012024051302BSLI4       010BRB BANCO   PN           R$  000000000098700000000009870000000000973000000000097800000000009730000000000920000000000099900003000000000000000300000000000000293400000000000000009999123100000010000000000000BRBSLIACNPR2192
012024051307TXRX4       010TEX RENAUX  PN           R$  000000000023400000000002340000000000233000000000023300000000002330000000000231000000000024000002000000000000001000000000000000233500000000000000009999123100000010000000000000BRTXRXACNPR0142
012024051307BHIA3       010CASAS BAHIA ON      NM   R$  000000000068200000000007450000000000680000000000070800000000007260000000000726000000000072907301000000000006333400000000004488093700000000000000009999123100000010000000000000BRBHIAACNOR1101
012024051307NUTR3       010NUTRIPLANT  ON      MA   R$  000000000047700000000004770000000000451000000000046400000000004650000000000455000000000047600033000000000000007800000000000003622400000000000000009999123100000010000000000000BRNUTRACNOR0104
012024051308RNEW11      010RENOVA      UNT     N2   R$  000000000031900000000003190000000000314000000000031600000000003140000000000315000000000031900002000000000000000200000000000000063300000000000000009999123100000010000000000000BRRNEWCDAM15110
012024051308RNEW3       010RENOVA      ON      N2   R$  000000000010700000000001070000000000105000000000010500000000001060000000000105000000000010600035000000000000014300000000000001508700000000000000009999123100000010000000000000BRRNEWACNOR8110
012024051308RNEW4       010RENOVA      PN      N2   R$  000000000010700000000001080000000000105000000000010600000000001070000000000107000000000010800068000000000000039700000000000004227000000000000000009999123100000010000000000000BRRNEWACNPR5110
012024051308RPMG3       010PET MANGUINHON           R$  000000000020800000000002080000000000207000000000020700000000002070000000000206000000000021100019000000000000006000000000000001245200000000000000009999123100000010000000000000BRRPMGACNOR9194
012024051308ETER3       010ETERNIT     ON      NM   R$  000000000067000000000006780000000000666000000000067100000000006750000000000670000000000067500398000000000000101100000000000067895500000000000000009999123100000010000000000000BRETERACNOR3243
012024051308HOOT4       010HOTEIS OTHONPN           R$  000000000027800000000002800000000000275000000000027600000000002750000000000275000000000027900008000000000000004100000000000001135000000000000000009999123100000010000000000000BRHOOTACNPR9015
012024051308ATMP3       010ATMASA      ON           R$  000000000020700000000002130000000000207000000000021000000000002130000000000206000000000021300006000000000000002200000000000000463200000000000000009999123100000010000000000000BRATMPACNOR8100
012024051308PMAM3       010PARANAPANEMAON  ES  NM   R$  000000000026800000000002700000000000259000000000026200000000002600000000000260000000000026100107000000000000037400000000000009822600000000000000009999123100000010000000000000BRPMAMACNOR3039
012024051308RSID3       010ROSSI RESID ON      NM   R$  000000000060000000000006150000000000584000000000059800000000006070000000000596000000000060700970000000000000142400000000000085209700000000000000009999123100000010000000000000BRRSIDACNOR8120
012024051308TEKA4       010TEKA        PN           R$  000000000409500000000040950000000003500000000000400800000000035000000000002500000000000387000005000000000000001300000000000005211500000000000000009999123100000010000000000000BRTEKAACNPR3140
012024051308LIGT3       010LIGHT S/A   ON      NM   R$  000000000050900000000005220000000000509000000000051400000000005090000000000509000000000051101621000000000000392000000000000201602100000000000000009999123100000010000000000000BRLIGTACNOR2124
012024051308JFEN3       010JOAO FORTES ON           R$  000000000015200000000001590000000000146000000000015100000000001460000000000146000000000015000060000000000000022000000000000003329800000000000000009999123100000010000000000000BRJFENACNOR0059
012024051308AMER3       010AMERICANAS  ON      NM   R$  000000000005300000000000540000000000053000000000005300000000000530000000000053000000000005401649000000000005197800000000000277457900000000000000009999123100000010000000000000BRAMERACNOR6101
012024051308SGPS3       010SPRINGS     ON      NM   R$  000000000007000000000000710000000000064000000000006500000000000660000000000065000000000006600211000000000000669700000000000044004700000000000000009999123100000010000000000000BRSGPSACNOR4104
012024051308NEXP3       010NEXPE       ON           R$  000000000042100000000004230000000000421000000000042100000000004230000000000421000000000042400006000000000000000600000000000000252800000000000000009999123100000010000000000000BRNEXPACNOR0101
012024051308CTNM4       010COTEMINAS   PN           R$  000000000010000000000001030000000000096000000000009900000000001000000000000099000000000010000095000000000000135700000000000013448800000000000000009999123100000010000000000000BRCTNMACNPR6129
012024051308CTSA3       010SANTANENSE  ON           R$  000000000025200000000002520000000000252000000000025200000000002520000000000249000000000025900002000000000000000600000000000000151200000000000000009999123100000010000000000000BRCTSAACNOR3062
012024051308CTSA4       010SANTANENSE  PN           R$  000000000013400000000001350000000000129000000000013100000000001310000000000131000000000013200043000000000000016800000000000002214600000000000000009999123100000010000000000000BRCTSAACNPR0062
012024051308OIBR3       010OI          ON      N1   R$  000000000006500000000000670000000000064000000000006500000000000650000000000064000000000006501783000000000005227300000000000339965000000000000000009999123100000010000000000000BROIBRACNOR1110
012024051308OIBR4       010OI          PN      N1   R$  000000000018200000000001830000000000180000000000018100000000001830000000000181000000000018300047000000000000029400000000000005341900000000000000009999123100000010000000000000BROIBRACNPR8109
012024051308OSXB3       010OSX BRASIL  ON      NM   R$  000000000039200000000003990000000000392000000000039500000000003940000000000392000000000039400013000000000000002600000000000001028400000000000000009999123100000010000000000000BROSXBACNOR8109
012024051310EQTL1       010EQUATORIAL  DIR ORD NM   R$  000000000017000000000002000000000000151000000000017200000000001750000000000155000000000017500749000000000000328500000000000056798800000000000000009999123100000010000000000000BREQTLD03OR1129
012024051310JFEN1       010JOAO FORTES DIR ORD      R$  000000000000100000000000010000000000001000000000000100000000000010000000000000000000000000100006000000000000005600000000000000005600000000000000009999123100000010000000000000BRJFEND10OR6058
012024051310PMAM1       010PARANAPANEMADIR ORD NM   R$  000000000000100000000000010000000000001000000000000100000000000010000000000000000000000000100018000000000000069800000000000000069800000000000000009999123100000010000000000000BRPMAMD04OR2038
012024051310CGRA2       010GRAZZIOTIN  DIR PRE      R$  000000000004900000000000490000000000044000000000004700000000000440000000000034000000000004300008000000000000003700000000000000174800000000000000009999123100000010000000000000BRCGRAD05PR5081
012024051310CGRA1       010GRAZZIOTIN  DIR ORD      R$  000000000001700000000000170000000000017000000000001700000000000170000000000017000000000003500001000000000000000400000000000000006800000000000000009999123100000010000000000000BRCGRAD05OR8081
012024051310AGXY1       010AGROGALAXY  DIR ORD NM   R$  000000000000200000000000030000000000002000000000000200000000000020000000000002000000000000300117000000000000677100000000000001589900000000000000009999123100000010000000000000BRAGXYD01OR9102
012024051312DAMA11      010FII DAMA    CI           R$  000000000101700000000010170000000001005000000000101600000000010170000000001005000000000101700025000000000000000140000000000000142368000000000000009999123100000010000000000000BRDAMACTF007100
012024051312DAMT11B     010FII DIAMANTECI      MB   R$  000000000110000000000011000000000001100000000000110000000000011000000000000964000000000110000004000000000000000007000000000000007700000000000000009999123100000010000000000000BRDAMTCTF007116
012024051312MFAI11      010FII MERITOFACI  ER       R$  000000000610000000000061000000000006055000000000607400000000060550000000006055000000000609900012000000000000000084000000000000510285000000000000009999123100000010000000000000BRMFAICTF005150
012024051312MFCR11      010FII MERITO RCI  ER       R$  000000000250800000000026650000000002508000000000252000000000026650000000002611000000000266500016000000000000000171000000000000431088000000000000009999123100000010000000000000BRMFCRCTF002123
012024051312MFII11      010FII MERITO ICI  ER       R$  000000001034800000000103740000000010335000000001034500000000103700000000010357000000001037000348000000000000006445000000000066673598000000000000009999123100000010000000000000BRMFIICTF008234
012024051312MGHT11      010FII MOGNO HTCI           R$  000000000450700000000045460000000004470000000000449500000000045200000000004523000000000454100135000000000000005811000000000026124710000000000000009999123100000010000000000000BRMGHTCTF005152
012024051312RFOF11      010FII RB CFOF CI  ER       R$  000000000764900000000076510000000007539000000000757400000000075600000000007556000000000764600133000000000000002009000000000015217919000000000000009999123100000010000000000000BRRFOFCTF001150
012024051312RINV11      010FII REAL INVCI           R$  000000001130400000000113080000000011161000000001126600000000111610000000011162000000001129300066000000000000000717000000000008078271000000000000009999123100000010000000000000BRRINVCTF004117
012024051312RMAI11      010FII REAGMULTCI  ER       R$  000000000704800000000070500000000007048000000000704900000000070500000000007014000000000705000025000000000000000210000000000001480437000000000000009999123100000010000000000000BRRMAICTF000133
012024051312RNDP11      010FII BB R PAPCI  ER       R$  000000000810100000000081010000000007950000000000800900000000079500000000007950000000000795800026000000000000000145000000000001161345000000000000009999123100000010000000000000BRRNDPCTF007247
012024051312RNGO11      010FII RIONEGROCI  ER       R$  000000000477200000000047840000000004770000000000477500000000047840000000004783000000000478400084000000000000001321000000000006309014000000000000009999123100000010000000000000BRRNGOCTF003242
012024051312RPRI11      010FII RBR PR  CI  ER       R$  000000000978500000000098860000000009507000000000969400000000097390000000009603000000000973901025000000000000005833000000000056548222000000000000009999123100000010000000000000BRRPRICTF007127
012024051312RRCI11      010FII RBCAP RICI  ER       R$  000000000830500000000083270000000008267000000000828900000000083270000000008303000000000832600021000000000000000173000000000001434066000000000000009999123100000010000000000000BRRRCICTF005141
012024051312GGRC11      010FII GGRCOVEPCI  ER       R$  000000000112900000000011300000000001120000000000112400000000011250000000001124000000000112505732000000000000171576000000000192895322000000000000009999123100000010000000000000BRGGRCCTF002193
012024051312DEVA11      010FII DEVANT  CI  ER       R$  000000000468000000000046980000000004610000000000464000000000046200000000004615000000000462004264000000000000054680000000000253765881000000000000009999123100000010000000000000BRDEVACTF000148
012024051312CACR11      010CARTESIA FIICI  ER       R$  000000001049900000000105200000000010499000000001050700000000105040000000010504000000001052002976000000000000008501000000000089328469000000000000009999123100000010000000000000BRCACRCTF004131
012024051312EURO11      010FII EUROPAR CI  ER       R$  000000002431200000000247760000000024312000000002461800000000247750000000024504000000002477500015000000000000000029000000000000713922000000000000009999123100000010000000000000BREUROCTF011358
012024051312EVBI11      010FII VBI CON CI  ER       R$  000000000970100000000097820000000009700000000000970700000000097810000000009716000000000977900016000000000000000074000000000000718368000000000000009999123100000010000000000000BREVBICTF007148
012024051312EXES11      010FII EXES    CI           R$  000000000097000000000009700000000000970000000000097000000000009700000000000790000000000097800001000000000000000040000000000000038800000000000000009999123100000010000000000000BREXESCTF006123
012024051312ABCP11      010FII ABC IMOBCI  ER       R$  000000000704400000000070500000000007001000000000702500000000070280000000007004000000000702800121000000000000000559000000000003927421000000000000009999123100000010000000000000BRABCPCTF000338
012024051312BICR11      010FII INTER   CI  ER       R$  000000000470000000000047010000000004644000000000468700000000046440000000004001000000000464400006000000000000000013000000000000060933000000000000009999123100000010000000000000BRBICRCTF009151
012024051312BIME11      010FII BRIO ME CI  ER       R$  000000000072100000000007240000000000720000000000072100000000007220000000000721000000000072200258000000000000010989000000000007930574000000000000009999123100000010000000000000BRBIMECTF006131
012024051312BLCA11      010FII BLUE AAACI  ER       R$  000000001050000000000105010000000010471000000001047600000000104710000000010430000000001060000004000000000000000121000000000001267601000000000000009999123100000010000000000000BRBLCACTF009130
012024051312BLMG11      010FII BLUE LOGCI  ER       R$  000000000384200000000038900000000003800000000000385200000000038480000000003841000000000384800827000000000000005350000000000020611638000000000000009999123100000010000000000000BRBLMGCTF005146
012024051312BLMO11      010FII BLUEMAC CI  ER       R$  000000000798000000000083990000000007900000000000791700000000079010000000007901000000000840000007000000000000000069000000000000546298000000000000009999123100000010000000000000BRBLMOCTF009130
012024051312EQIR11      010FII EQI RECECI           R$  000000000091100000000009140000000000905000000000090800000000009060000000000906000000000090702696000000000000334300000000000303875814000000000000009999123100000010000000000000BREQIRCTF003131
012024051312ICRI11      010FII CI IPCA CI  ER       R$  000000000985000000000098740000000009775000000000984400000000098720000000009777000000000987200214000000000000001849000000000018202797000000000000009999123100000010000000000000BRICRICTF004103
012024051312IDFI11      010FII UNIDADESCI  ERA      R$  000000000138000000000013800000000001300000000000130600000000013340000000001257000000000133400016000000000000000295000000000000385282000000000000009999123100000010000000000000BRIDFICTF007131
012024051312BPFF11      010FII ABSOLUTOCI  ER       R$  000000000705000000000070680000000007029000000000704900000000070410000000007040000000000704100742000000000000003219000000000022692385000000000000009999123100000010000000000000BRBPFFCTF002235
012024051312BPML11      010FII BTG SHOPCI           R$  000000001000000000000100000000000009812000000000991400000000099700000000009970000000000997601990000000000000006160000000000061070953000000000000009999123100000010000000000000BRBPMLCTF006129
012024051312CPFF11      010FII CAP REITCI           R$  000000000755000000000076500000000007510000000000755800000000076500000000007543000000000757400654000000000000004083000000000030862618000000000000009999123100000010000000000000BRCPFFCTF000155
012024051312HCHG11      010FII HECT CRICI  ER       R$  000000000714100000000071410000000007140000000000714000000000071400000000007140000000000723400004000000000000000200000000000001428010000000000000009999123100000010000000000000BRHCHGCTF001136
012024051312HCRI11      010FII CRIANCA CI           R$  000000002990000000000304990000000029900000000003022200000000304520000000030452000000003049900032000000000000000167000000000005047109000000000000009999123100000010000000000000BRHCRICTF006327
012024051312HCTR11      010FII HECTARE CI  ER       R$  000000000319000000000032000000000003139000000000316000000000031650000000003155000000000316504749000000000000051972000000000164269930000000000000009999123100000010000000000000BRHCTRCTF003169
012024051312HFOF11      010FII HTOPFOF3CI  ER       R$  000000000764000000000076480000000007606000000000762700000000076300000000007626000000000763102242000000000000014254000000000108725917000000000000009999123100000010000000000000BRHFOFCTF002188
012024051312HGBL11      010FII HGBL    CI  ER       R$  000000000107000000000010700000000001069000000000106900000000010700000000001005000000000107000006000000000000000232000000000000248040000000000000009999123100000010000000000000BRHGBLCTF005101
012024051312HGBS11      010FII HEDGEBS CI  ER       R$  000000002210000000000221180000000021904000000002199100000000219370000000021925000000002193704641000000000000023447000000000515630604000000000000009999123100000010000000000000BRHGBSCTF000309
012024051312HGCR11      010FII CSHG CRICI  ER       R$  000000001042000000000105350000000010376000000001044100000000104310000000010414000000001043103938000000000000028193000000000294365732000000000000009999123100000010000000000000BRHGCRCTF000245
012024051312HGFF11      010FII CSHG FOFCI  ER       R$  000000000879700000000088000000000008718000000000877900000000088000000000008766000000000879901380000000000000004538000000000039842948000000000000009999123100000010000000000000BRHGFFCTF008159
012024051312HGIC11      010FII HGI CRI CI  ER       R$  000000000970100000000098420000000009701000000000984000000000097260000000009702000000000972600012000000000000001013000000000009968241000000000000009999123100000010000000000000BRHGICCTF009139
012024051312HGLG11      010FII CSHG LOGCI  ER       R$  000000001643100000000164310000000016250000000001630600000000162600000000016260000000001626509644000000000000057440000000000936668101000000000000009999123100000010000000000000BRHGLGCTF004270
012024051312HGPO11      010FII CSHGPRIMCI  ER       R$  000000003060000000000308000000000030543000000003066500000000307250000000030654000000003072500162000000000000000618000000000018951510000000000000009999123100000010000000000000BRHGPOCTF009160
012024051312HGRE11      010FII HG REAL CI  ER       R$  000000001262000000000126200000000012300000000001235900000000123340000000012332000000001233404339000000000000022184000000000274191950000000000000009999123100000010000000000000BRHGRECTF006291
