00COTAHIST.2024BOVESPA 20240214                                                                                                                                                                                                                      
012024021402JSLG3       010JSL         ON      NM   R$  000000000105100000000010640000000001050000000000105600000000010600000000001060000000000106500768000000000000181000000000000191178300000000000000009999123100000010000000000000BRJSLGACNOR2121
012024021402UNIP3       010UNIPAR      ON           R$  000000000634000000000063880000000006300000000000632600000000063290000000006323000000000632900068000000000000007100000000000044917000000000000000009999123100000010000000000000BRUNIPACNOR7204
012024021402UNIP6       010UNIPAR      PNB          R$  000000000671000000000067290000000006580000000000663200000000066250000000006611000000000662700972000000000000146400000000000971060100000000000000009999123100000010000000000000BRUNIPACNPB8204
012024021402USIM3       010USIMINAS    ON      N1   R$  000000000087800000000009010000000000874000000000089200000000009010000000000898000000000090101391000000000001081000000000000965120100000000000000009999123100000010000000000000BRUSIMACNOR3166
012024021402USIM5       010USIMINAS    PNA     N1   R$  000000000092200000000009360000000000911000000000092600000000009360000000000935000000000093609843000000000010012000000000009272872800000000000000009999123100000010000000000000BRUSIMACNPA6168
012024021402VITT3       010VITTIA      ON      NM   R$  000000000077600000000007810000000000765000000000077400000000007750000000000775000000000077900771000000000000166400000000000128803000000000000000009999123100000010000000000000BRVITTACNOR4106
012024021402VIVA3       010VIVARA S.A. ON      NM   R$  000000000318700000000031920000000003125000000000315000000000031440000000003143000000000315405875000000000001069200000000003368742500000000000000009999123100000010000000000000BRVIVAACNOR0106
012024021402VIVR3       010VIVER       ON  ES  NM   R$  000000000039900000000004100000000000384000000000039500000000003970000000000391000000000039700218000000000000096500000000000038170800000000000000009999123100000010000000000000BRVIVRACNOR4122
012024021402VIVT3       010TELEF BRASILON           R$  000000000536000000000054900000000005340000000000544700000000054490000000005438000000000544911795000000000002720000000000014818514300000000000000009999123100000010000000000000BRVIVTACNOR0178
012024021402VLID3       010VALID       ON      NM   R$  000000000194800000000019890000000001947000000000196400000000019620000000001962000000000197401387000000000000214200000000000420796500000000000000009999123100000010000000000000BRVLIDACNOR5141
012024021402ROMI3       010ROMI        ON      NM   R$  000000000124000000000012450000000001220000000000122900000000012280000000001222000000000122801447000000000000282600000000000347489800000000000000009999123100000010000000000000BRROMIACNOR8192
012024021402RPAD3       010ALFA HOLDINGON           R$  000000000083000000000008300000000000830000000000083000000000008300000000000830000000000086000002000000000000001200000000000000996000000000000000009999123100000010000000000000BRRPADACNOR1198
012024021402RPAD6       010ALFA HOLDINGPNB          R$  000000000080500000000008050000000000805000000000080500000000008050000000000805000000000081500001000000000000000100000000000000080500000000000000009999123100000010000000000000BRRPADACNPB2198
012024021402RRRP3       0103R PETROLEUMON      NM   R$  000000000280000000000028530000000002763000000000279800000000027900000000002789000000000279509842000000000002630400000000007362175300000000000000009999123100000010000000000000BRRRRPACNOR5102
012024021402KEPL3       010KEPLER WEBERON      NM   R$  000000000094200000000009480000000000919000000000092700000000009260000000000923000000000092703425000000000000820400000000000760632400000000000000009999123100000010000000000000BRKEPLACNOR1061
012024021402MRVE3       010MRV         ON      NM   R$  000000000071000000000007170000000000691000000000070300000000007010000000000700000000000070457071000000000026577900000000018693461300000000000000009999123100000010000000000000BRMRVEACNOR2126
012024021402PETZ3       010PETZ        ON      NM   R$  000000000034900000000003600000000000345000000000035100000000003550000000000355000000000035606338000000000006569100000000002310419400000000000000009999123100000010000000000000BRPETZACNOR2109
012024021402RSUL4       010RIOSULENSE  PN           R$  000000000809900000000080990000000007600000000000771400000000076000000000007501000000000795000047000000000000005400000000000041659100000000000000009999123100000010000000000000BRRSULACNPR3113
012024021402BEEF3       010MINERVA     ON      NM   R$  000000000065400000000006540000000000633000000000064000000000006350000000000634000000000063507906000000000008372400000000005363097500000000000000009999123100000010000000000000BRBEEFACNOR6116
012024021402BPAC11      010BTGP BANCO  UNT     N2   R$  000000000371200000000037390000000003684000000000370700000000037020000000003700000000000370816480000000000004706500000000017450016800000000000000009999123100000010000000000000BRBPACUNT006118
012024021402BPAC3       010BTGP BANCO  ON      N2   R$  000000000187800000000018780000000001802000000000182100000000018130000000001811000000000184300028000000000000003200000000000005829200000000000000009999123100000010000000000000BRBPACACNOR7133
012024021402BPAC5       010BTGP BANCO  PNA     N2   R$  000000000092400000000009490000000000924000000000093600000000009320000000000932000000000093700030000000000000004900000000000004587000000000000000009999123100000010000000000000BRBPACACNPA0133
012024021402DASA3       010DASA        ON      NM   R$  000000000070700000000007150000000000692000000000069900000000006930000000000692000000000069301174000000000000196200000000000137221600000000000000009999123100000010000000000000BRDASAACNOR1122
012024021402DESK3       010DESKTOP     ON      NM   R$  000000000130100000000013330000000001273000000000131800000000013050000000001300000000000130700821000000000000284000000000000374475100000000000000009999123100000010000000000000BRDESKACNOR2103
012024021402DEXP3       010DEXXOS PAR  ON      N1   R$  000000000123600000000012360000000001191000000000120200000000011910000000001191000000000120600175000000000000043600000000000052448000000000000000009999123100000010000000000000BRDEXPACNOR1104
012024021402DEXP4       010DEXXOS PAR  PN      N1   R$  000000000120000000000012350000000001200000000000122300000000012350000000001177000000000123400003000000000000000300000000000000366900000000000000009999123100000010000000000000BRDEXPACNPR8104
012024021402MGLU3       010MAGAZ LUIZA ON  ES  NM   R$  000000000020600000000002090000000000201000000000020300000000002020000000000202000000000020331453000000000094878900000000019312934400000000000000009999123100000010000000000000BRMGLUACNOR2123
012024021402ALPA3       010ALPARGATAS  ON      N1   R$  000000000088200000000009600000000000882000000000090700000000009580000000000900000000000095900023000000000000005700000000000005170400000000000000009999123100000010000000000000BRALPAACNOR0231
012024021402ALPA4       010ALPARGATAS  PN      N1   R$  000000000085500000000008890000000000846000000000087300000000008880000000000888000000000088910487000000000004734400000000004137612800000000000000009999123100000010000000000000BRALPAACNPR7232
012024021402ALPK3       010ESTAPAR     ON      NM   R$  000000000042600000000004420000000000424000000000043400000000004350000000000435000000000044200193000000000000070200000000000030533200000000000000009999123100000010000000000000BRALPKACNOR9101
012024021402ALUP11      010ALUPAR      UNT     N2   R$  000000000290500000000029080000000002881000000000289200000000029050000000002903000000000290702575000000000000510700000000001477010400000000000000009999123100000010000000000000BRALUPCDAM15117
012024021402ALUP3       010ALUPAR      ON      N2   R$  000000000097300000000009730000000000959000000000096200000000009630000000000958000000000097400056000000000000007700000000000007413600000000000000009999123100000010000000000000BRALUPACNOR8117
012024021402ALUP4       010ALUPAR      PN      N2   R$  000000000096700000000009730000000000961000000000096300000000009730000000000966000000000097300061000000000000010200000000000009830300000000000000009999123100000010000000000000BRALUPACNPR5117
012024021402AMAR3       010LOJAS MARISAON      NM   R$  000000000025500000000002670000000000252000000000025900000000002670000000000261000000000026700495000000000000193000000000000050077300000000000000009999123100000010000000000000BRAMARACNOR4114
012024021402AMBP3       010AMBIPAR     ON      NM   R$  000000000137500000000013770000000001356000000000136500000000013650000000001364000000000136501774000000000000354500000000000484089500000000000000009999123100000010000000000000BRAMBPACNOR6103
012024021402BIOM3       010BIOMM       ON      MA   R$  000000000052800000000005400000000000520000000000052700000000005220000000000521000000000053900012000000000000004500000000000002374300000000000000009999123100000010000000000000BRBIOMACNOR2112
012024021402BLAU3       010BLAU        ON      NM   R$  000000000120000000000012000000000001174000000000118300000000011830000000001181000000000118301100000000000000172700000000000204389600000000000000009999123100000010000000000000BRBLAUACNOR8111
012024021402BMEB3       010MERCANTIL   ON      N1   R$  000000000241600000000025000000000002415000000000244500000000025000000000002102000000000250000013000000000000004900000000000011982400000000000000009999123100000010000000000000BRBMEBACNOR8205
012024021402BMEB4       010MERCANTIL   PN      N1   R$  000000000259900000000027530000000002539000000000265400000000026000000000002580000000000264000135000000000000032600000000000086532600000000000000009999123100000010000000000000BRBMEBACNPR5210
012024021402BMGB4       010BANCO BMG   PN      N1   R$  000000000042000000000004210000000000377000000000039400000000003780000000000377000000000037802655000000000002748200000000001084412100000000000000009999123100000010000000000000BRBMGBACNPR0108
012024021402BRSR3       010BANRISUL    ON      N1   R$  000000000147300000000014790000000001461000000000147000000000014750000000001461000000000147500031000000000000005100000000000007498400000000000000009999123100000010000000000000BRBRSRACNOR3185
012024021402BRSR6       010BANRISUL    PNB     N1   R$  000000000149500000000014950000000001460000000000147100000000014720000000001466000000000147203423000000000001017000000000001496337800000000000000009999123100000010000000000000BRBRSRACNPB4188
012024021402CSUD3       010CSU DIGITAL ON      NM   R$  000000000185200000000018600000000001795000000000183100000000018500000000001850000000000185300399000000000000063400000000000116115700000000000000009999123100000010000000000000BRCSUDACNOR5107
012024021402CTKA4       010KARSTEN     PN           R$  000000000172000000000017200000000001720000000000172000000000017200000000001650000000000172000001000000000000000100000000000000172000000000000000009999123100000010000000000000BRCTKAACNPR7043
012024021402CTNM3       010COTEMINAS   ON           R$  000000000095000000000009800000000000950000000000096500000000009800000000000870000000000098900002000000000000000200000000000000193000000000000000009999123100000010000000000000BRCTNMACNOR9130
012024021402CTNM4       010COTEMINAS   PN           R$  000000000013800000000001400000000000133000000000013600000000001390000000000135000000000013900060000000000000043800000000000005960600000000000000009999123100000010000000000000BRCTNMACNPR6129
012024021402CTSA3       010SANTANENSE  ON           R$  000000000032800000000003290000000000316000000000032300000000003160000000000320000000000032800012000000000000003900000000000001260400000000000000009999123100000010000000000000BRCTSAACNOR3062
012024021402CTSA4       010SANTANENSE  PN           R$  000000000017300000000001770000000000168000000000017000000000001680000000000168000000000017000038000000000000009400000000000001606200000000000000009999123100000010000000000000BRCTSAACNPR0062
012024021402FLRY3       010FLEURY      ON      NM   R$  000000000161200000000016130000000001577000000000159100000000015920000000001589000000000159208443000000000002661700000000004235159300000000000000009999123100000010000000000000BRFLRYACNOR5137
012024021402FRAS3       010FRAS-LE     ON      N1   R$  000000000152300000000015230000000001487000000000150500000000015150000000001510000000000151501782000000000000332800000000000501016600000000000000009999123100000010000000000000BRFRASACNOR0158
012024021402FRIO3       010METALFRIO   ON      NM   R$  000000003099800000000310000000000030000000000003074900000000310000000000024500000000003100000004000000000000000400000000000012299800000000000000009999123100000010000000000000BRFRIOACNOR2111
012024021402INEP3       010INEPAR      ON           R$  000000000039500000000004000000000000385000000000039100000000003900000000000389000000000039500118000000000000058900000000000023047900000000000000009999123100000010000000000000BRINEPACNOR1143
012024021402INEP4       010INEPAR      PN           R$  000000000032700000000003350000000000323000000000032700000000003260000000000324000000000032600115000000000000018300000000000005986500000000000000009999123100000010000000000000BRINEPACNPR8143
012024021402INTB3       010INTELBRAS   ON      NM   R$  000000000195500000000019560000000001905000000000192200000000019220000000001914000000000192303061000000000000587500000000001129215600000000000000009999123100000010000000000000BRINTBACNOR9109
012024021402LJQQ3       010QUERO-QUERO ON      NM   R$  000000000047600000000004820000000000451000000000046000000000004610000000000458000000000046205089000000000002838200000000001306844500000000000000009999123100000010000000000000BRLJQQACNOR5104
012024021402LOGG3       010LOG COM PROPON  ED  NM   R$  000000000204400000000020560000000002009000000000202900000000020090000000002007000000000203001189000000000000203100000000000412284400000000000000009999123100000010000000000000BRLOGGACNOR7107
012024021402LOGN3       010LOG-IN      ON      NM   R$  000000000367200000000036720000000003518000000000356700000000035750000000003575000000000359000087000000000000012900000000000046020700000000000000009999123100000010000000000000BRLOGNACNOR3105
012024021402LPSB3       010LOPES BRASILON      NM   R$  000000000020300000000002030000000000199000000000020000000000002000000000000200000000000020400130000000000000064900000000000013030800000000000000009999123100000010000000000000BRLPSBACNOR0113
012024021402GEPA4       010GER PARANAP PN           R$  000000000262400000000026240000000002550000000000256200000000025810000000002540000000000261300007000000000000001000000000000002562000000000000000009999123100000010000000000000BRGEPAACNPR9159
012024021402GFSA3       010GAFISA      ON      NM   R$  000000000060100000000006180000000000575000000000059700000000006050000000000605000000000060605980000000000003823700000000002285968900000000000000009999123100000010000000000000BRGFSAACNOR3123
012024021402IRBR3       010IRBBRASIL REON      NM   R$  000000000397100000000039970000000003920000000000395600000000039620000000003962000000000396303896000000000000932100000000003688010800000000000000009999123100000010000000000000BRIRBRACNOR4110
012024021402LUPA3       010LUPATECH    ON      NM   R$  000000000018500000000001850000000000180000000000018200000000001830000000000181000000000018300325000000000000139900000000000025528800000000000000009999123100000010000000000000BRLUPAACNOR8112
012024021402LVTC3       010WDC NETWORKSON      NM   R$  000000000039000000000003980000000000380000000000038900000000003800000000000380000000000039900060000000000000012700000000000004942600000000000000009999123100000010000000000000BRLVTCACNOR4102
012024021402LWSA3       010LWSA        ON      NM   R$  000000000055000000000005520000000000536000000000054200000000005460000000000543000000000054608029000000000004554100000000002471684400000000000000009999123100000010000000000000BRLWSAACNOR8103
012024021402LREN3       010LOJAS RENNERON      NM   R$  000000000146100000000014840000000001450000000000146400000000014600000000001459000000000146031275000000000010318200000000015113816300000000000000009999123100000010000000000000BRLRENACNOR1219
012024021402AALR3       010ALLIAR      ON      NM   R$  000000000085600000000008560000000000808000000000082000000000008080000000000808000000000081600309000000000000051000000000000041853000000000000000009999123100000010000000000000BRAALRACNOR6102
012024021402ABCB4       010ABC BRASIL  PN      N2   R$  000000000236900000000023830000000002328000000000234900000000023500000000002335000000000235002386000000000000383100000000000899965100000000000000009999123100000010000000000000BRABCBACNPR4145
012024021402ABEV3       010AMBEV S/A   ON           R$  000000000128800000000012940000000001282000000000128800000000012920000000001289000000000129216418000000000016225400000000020904864700000000000000009999123100000010000000000000BRABEVACNOR1127
012024021402BEES3       010BANESTES    ON  EJ       R$  000000000095000000000009750000000000950000000000096400000000009660000000000953000000000097300067000000000000014200000000000013702200000000000000009999123100000010000000000000BRBEESACNOR9387
012024021402BEES4       010BANESTES    PN  EJ       R$  000000000100500000000010200000000000996000000000100500000000010200000000001011000000000102500027000000000000003500000000000003520900000000000000009999123100000010000000000000BRBEESACNPR6312
012024021402MAPT3       010CEMEPE      ON           R$  000000000120000000000012000000000001200000000000120000000000012000000000000900000000000134900001000000000000000100000000000000120000000000000000009999123100000010000000000000BRMAPTACNOR8106
012024021402MATD3       010MATER DEI   ON      NM   R$  000000000063800000000006510000000000635000000000064300000000006480000000000643000000000064801567000000000000648800000000000417662500000000000000009999123100000010000000000000BRMATDACNOR4103
012024021402MBLY3       010MOBLY       ON      NM   R$  000000000021900000000002190000000000211000000000021300000000002110000000000211000000000021201072000000000000731200000000000155822300000000000000009999123100000010000000000000BRMBLYACNOR5100
012024021402AERI3       010AERIS       ON      NM   R$  000000000007700000000000770000000000075000000000007600000000000750000000000075000000000007602039000000000002508700000000000190798800000000000000009999123100000010000000000000BRAERIACNOR4101
012024021402AESB3       010AES BRASIL  ON      NM   R$  000000000102700000000010300000000001005000000000101000000000010140000000001010000000000101504662000000000001892800000000001912492200000000000000009999123100000010000000000000BRAESBACNOR7105
012024021402AFLT3       010AFLUENTE T  ON           R$  000000000078100000000007900000000000781000000000078800000000007870000000000771000000000079400004000000000000000600000000000000472800000000000000009999123100000010000000000000BRAFLTACNOR1120
012024021402BGIP4       010BANESE      PN           R$  000000000259900000000026490000000002565000000000258800000000026490000000002560000000000265000007000000000000000800000000000002070900000000000000009999123100000010000000000000BRBGIPACNPR8206
012024021402AGRO3       010BRASILAGRO  ON      NM   R$  000000000238000000000023820000000002318000000000233700000000023270000000002325000000000232802861000000000000475300000000001110869600000000000000009999123100000010000000000000BRAGROACNOR7114
012024021402AGXY3       010AGROGALAXY  ON      NM   R$  000000000019600000000002000000000000187000000000019200000000001870000000000187000000000018900476000000000000329900000000000063602200000000000000009999123100000010000000000000BRAGXYACNOR4102
012024021402ALLD3       010ALLIED      ON      NM   R$  000000000069000000000006900000000000672000000000067800000000006730000000000673000000000068400099000000000000013400000000000009093600000000000000009999123100000010000000000000BRALLDACNOR3105
012024021402ALOS3       010ALLOS       ON      NM   R$  000000000239600000000023960000000002345000000000235800000000023600000000002353000000000236012690000000000005028000000000011857579600000000000000009999123100000010000000000000BRALOSACNOR5100
012024021402BBDC3       010BRADESCO    ON  EJ  N1   R$  000000000123700000000012430000000001209000000000122000000000012240000000001222000000000122413439000000000015057600000000018383318000000000000000009999123100000010000000000000BRBBDCACNOR1766
012024021402BBDC4       010BRADESCO    PN  EJ  N1   R$  000000000134200000000013540000000001322000000000133600000000013370000000001335000000000133742872000000000046804300000000062551697200000000000000009999123100000010000000000000BRBBDCACNPR8766
012024021402BRBI11      010BR PARTNERS UNT     N2   R$  000000000150100000000015380000000001501000000000152200000000015360000000001520000000000153600472000000000000107900000000000164310700000000000000009999123100000010000000000000BRBRBICDAM10107
012024021402BHIA3       010CASAS BAHIA ON      NM   R$  000000000077000000000007880000000000743000000000077100000000007720000000000771000000000077309284000000000008963800000000006911412900000000000000009999123100000010000000000000BRBHIAACNOR1101
012024021402BPAN4       010BANCO PAN   PN      N1   R$  000000000088100000000008850000000000866000000000087500000000008730000000000872000000000087403618000000000001405400000000001230190700000000000000009999123100000010000000000000BRBPANACNPR1115
012024021402BRAP3       010BRADESPAR   ON      N1   R$  000000000204800000000020480000000002027000000000203700000000020300000000002030000000000204500250000000000000036900000000000075173400000000000000009999123100000010000000000000BRBRAPACNOR5147
012024021402BRAP4       010BRADESPAR   PN      N1   R$  000000000219700000000022030000000002179000000000219100000000021910000000002190000000000219106950000000000001877600000000004115023700000000000000009999123100000010000000000000BRBRAPACNPR2147
012024021402CRFB3       010CARREFOUR BRON      NM   R$  000000000116000000000011650000000001143000000000115500000000011540000000001154000000000115511010000000000005217000000000006026117700000000000000009999123100000010000000000000BRCRFBACNOR2116
012024021402BRFS3       010BRF SA      ON      NM   R$  000000000142100000000014490000000001402000000000142200000000014180000000001413000000000141811617000000000004382500000000006232698400000000000000009999123100000010000000000000BRBRFSACNOR8121
012024021402BRIT3       010BRISANET    ON      NM   R$  000000000029600000000003010000000000293000000000029600000000002930000000000293000000000029600247000000000000180400000000000053497000000000000000009999123100000010000000000000BRBRITACNOR0102
012024021402BRIV3       010ALFA INVEST ON           R$  000000000111600000000011160000000001116000000000111600000000011160000000001080000000000115000004000000000000010700000000000011941200000000000000009999123100000010000000000000BRBRIVACNOR6209
012024021402BRKM3       010BRASKEM     ON      N1   R$  000000000181500000000018180000000001789000000000181000000000017950000000001795000000000181900044000000000000009400000000000017014100000000000000009999123100000010000000000000BRBRKMACNOR1119
012024021402BRKM5       010BRASKEM     PNA     N1   R$  000000000173300000000017330000000001692000000000171200000000017100000000001707000000000171009002000000000002782400000000004764767500000000000000009999123100000010000000000000BRBRKMACNPA4121
012024021402CSED3       010CRUZEIRO EDUON      NM   R$  000000000037800000000003920000000000378000000000038600000000003920000000000385000000000039200653000000000000337100000000000130348400000000000000009999123100000010000000000000BRCSEDACNOR9104
012024021402CSMG3       010COPASA      ON      NM   R$  000000000218200000000021840000000002120000000000214000000000021450000000002144000000000214507484000000000001413800000000003025569500000000000000009999123100000010000000000000BRCSMGACNOR5171
012024021402CSNA3       010SID NACIONALON           R$  000000000177000000000017900000000001757000000000177400000000017870000000001782000000000178806491000000000005396400000000009575211600000000000000009999123100000010000000000000BRCSNAACNOR6260
012024021402CRIV3       010ALFA FINANC ON           R$  000000000061000000000006100000000000610000000000061000000000006100000000000610000000000064000001000000000000015000000000000009150000000000000000009999123100000010000000000000BRCRIVACNOR4195
012024021402CRIV4       010ALFA FINANC PN           R$  000000000062700000000006270000000000627000000000062700000000006270000000000598000000000062600001000000000000000100000000000000062700000000000000009999123100000010000000000000BRCRIVACNPR1211
012024021402CRPG5       010CRISTAL     PNA          R$  000000000362500000000036250000000003600000000000360800000000036030000000003555000000000360300012000000000000002300000000000008299500000000000000009999123100000010000000000000BRCRPGACNPA3118
012024021402CRPG6       010CRISTAL     PNB          R$  000000000360100000000036160000000003580000000000359300000000036160000000003581000000000364900007000000000000000700000000000002515700000000000000009999123100000010000000000000BRCRPGACNPB1118
012024021402CSAN3       010COSAN       ON      NM   R$  000000000181900000000018440000000001807000000000182400000000018230000000001820000000000182415819000000000004162300000000007592587600000000000000009999123100000010000000000000BRCSANACNOR6124
012024021402ENAT3       010ENAUTA PART ON      NM   R$  000000000191600000000019160000000001866000000000188300000000018860000000001885000000000188602835000000000000588500000000001108615700000000000000009999123100000010000000000000BRENATACNOR0104
012024021402ENEV3       010ENEVA       ON      NM   R$  000000000126500000000012820000000001223000000000123500000000012340000000001234000000000123824108000000000012981800000000016042939600000000000000009999123100000010000000000000BRENEVACNOR8105
012024021402ENGI11      010ENERGISA    UNT     N2   R$  000000000514200000000051420000000004996000000000502600000000050310000000005019000000000503106469000000000001406800000000007071098200000000000000009999123100000010000000000000BRENGICDAM16135
012024021402ENGI3       010ENERGISA    ON      N2   R$  000000000167300000000017250000000001643000000000167300000000016430000000001643000000000166000032000000000000004300000000000007195000000000000000009999123100000010000000000000BRENGIACNOR0145
012024021402ENGI4       010ENERGISA    PN      N2   R$  000000000084700000000008480000000000831000000000084300000000008430000000000839000000000084000032000000000000010100000000000008517100000000000000009999123100000010000000000000BRENGIACNPR7141
012024021402ENJU3       010ENJOEI      ON      NM   R$  000000000015600000000001560000000000150000000000015100000000001510000000000151000000000015200274000000000000242000000000000036764100000000000000009999123100000010000000000000BRENJUACNOR9100
012024021402EPAR3       010EMBPAR S/A  ON           R$  000000000094600000000009810000000000946000000000097000000000009750000000000969000000000097500031000000000000004700000000000004562500000000000000009999123100000010000000000000BREPARACNOR9104
012024021402ESPA3       010ESPACOLASER ON      NM   R$  000000000009700000000000970000000000094000000000009500000000000950000000000095000000000009601147000000000002187400000000000208632600000000000000009999123100000010000000000000BRESPAACNOR7103
012024021402EUCA4       010EUCATEX     PN      N1   R$  000000000162900000000016290000000001556000000000160500000000016210000000001617000000000162200232000000000000048300000000000077549300000000000000009999123100000010000000000000BREUCAACNPR8044
012024021402EVEN3       010EVEN        ON      NM   R$  000000000072000000000007390000000000714000000000073300000000007370000000000730000000000073802230000000000000480900000000000352557900000000000000009999123100000010000000000000BREVENACNOR8118
012024021402EZTC3       010EZTEC       ON      NM   R$  000000000153600000000015360000000001501000000000151100000000015010000000001501000000000151205021000000000001019600000000001540786900000000000000009999123100000010000000000000BREZTCACNOR0123
012024021402EQMA3B      010EQTLMARANHAOON      MB   R$  000000000299900000000029990000000002993000000000299600000000029930000000002901000000000299400002000000000000000200000000000000599200000000000000009999123100000010000000000000BREQMAACNOR8107
012024021402EQPA3       010EQTL PARA   ON           R$  000000000077200000000007960000000000772000000000078900000000007960000000000775000000000080500005000000000000001200000000000000947100000000000000009999123100000010000000000000BREQPAACNOR1110
012024021402EQTL3       010EQUATORIAL  ON      NM   R$  000000000340500000000034050000000003338000000000336600000000033590000000003358000000000336315245000000000004974600000000016747550300000000000000009999123100000010000000000000BREQTLACNOR0129
012024021402FESA4       010FERBASA     PN      N1   R$  000000000095200000000009560000000000929000000000093900000000009290000000000928000000000092902370000000000000641900000000000602873700000000000000009999123100000010000000000000BRFESAACNPR5083
012024021402TOTS3       010TOTVS       ON      NM   R$  000000000302800000000030610000000002986000000000300900000000029990000000002994000000000299911672000000000006295600000000018943608900000000000000009999123100000010000000000000BRTOTSACNOR8144
012024021402TPIS3       010TRIUNFO PARTON      NM   R$  000000000038900000000003980000000000384000000000039400000000003980000000000384000000000039800061000000000000039700000000000015645100000000000000009999123100000010000000000000BRTPISACNOR8118
012024021402TRAD3       010TC          ON      NM   R$  000000000006800000000000700000000000066000000000006700000000000680000000000066000000000006900136000000000000494500000000000033415100000000000000009999123100000010000000000000BRTRADACNOR3101
012024021402TRIS3       010TRISUL      ON      NM   R$  000000000043000000000004350000000000427000000000043100000000004300000000000430000000000043301030000000000000355800000000000153474500000000000000009999123100000010000000000000BRTRISACNOR4116
012024021402TRPL3       010TRAN PAULISTON      N1   R$  000000000328000000000033370000000003170000000000321700000000031700000000003169000000000324000031000000000000004200000000000013514600000000000000009999123100000010000000000000BRTRPLACNOR4185
012024021402TRPL4       010TRAN PAULISTPN      N1   R$  000000000265000000000026520000000002597000000000262500000000026470000000002647000000000264807150000000000001795300000000004713043400000000000000009999123100000010000000000000BRTRPLACNPR1185
012024021402IBOV11      010IBOVESPA    IBO          R$  000001268520000000126852000000012685200000001268520000000126852000000000000000000000000000000393000000000000093325000001183846290000000000000000009999123100000010000000000000BRIBOVINDM18011
012024021402KLBN11      010KLABIN S/A  UNT     N2   R$  000000000214000000000021430000000002107000000000211700000000021210000000002117000000000212106049000000000001895600000000004014170300000000000000009999123100000010000000000000BRKLBNCDAM18139
012024021402KLBN3       010KLABIN S/A  ON      N2   R$  000000000042600000000004270000000000419000000000042200000000004240000000000423000000000042401181000000000000407200000000000171906100000000000000009999123100000010000000000000BRKLBNACNOR2167
012024021402KLBN4       010KLABIN S/A  PN      N2   R$  000000000043200000000004320000000000422000000000042400000000004240000000000423000000000042402441000000000001457300000000000618583300000000000000009999123100000010000000000000BRKLBNACNPR9167
012024021402FHER3       010FER HERINGERON      NM   R$  000000000060300000000006100000000000603000000000060500000000006060000000000606000000000061400009000000000000001300000000000000786900000000000000009999123100000010000000000000BRFHERACNOR5103
012024021402FIQE3       010UNIFIQUE    ON  EJ  NM   R$  000000000037000000000003740000000000367000000000037000000000003730000000000370000000000037300418000000000000142800000000000052923000000000000000009999123100000010000000000000BRFIQEACNOR5106
012024021402IFCM3       010INFRACOMM   ON      NM   R$  000000000013900000000001400000000000134000000000013500000000001360000000000135000000000013603774000000000004003600000000000543638500000000000000009999123100000010000000000000BRIFCMACNOR8101
012024021402IGTI11      010IGUATEMI S.AUNT     N1   R$  000000000237900000000023800000000002340000000000235500000000023660000000002355000000000236907612000000000001417600000000003339157100000000000000009999123100000010000000000000BRIGTICDAM16104
012024021402IGTI3       010IGUATEMI S.AON      N1   R$  000000000029600000000002960000000000288000000000029000000000002890000000000289000000000029000080000000000000032200000000000009363500000000000000009999123100000010000000000000BRIGTIACNOR8104
012024021402IGTI4       010IGUATEMI S.APN      N1   R$  000000000102900000000010290000000001029000000000102900000000010290000000001010000000000106000001000000000000000100000000000000102900000000000000009999123100000010000000000000BRIGTIACNPR5104
012024021402RAIZ4       010RAIZEN      PN      N2   R$  000000000038800000000003950000000000382000000000038700000000003870000000000386000000000038708824000000000010231000000000003967936900000000000000009999123100000010000000000000BRRAIZACNPR6109
012024021402RANI3       010IRANI       ON      NM   R$  000000000100000000000010010000000000987000000000099200000000009950000000000995000000000099602761000000000000636000000000000631376100000000000000009999123100000010000000000000BRRANIACNOR5069
012024021402RAPT3       010RANDON PART ON      N1   R$  000000000105200000000010680000000001038000000000104700000000010500000000001038000000000105000043000000000000008100000000000008483100000000000000009999123100000010000000000000BRRAPTACNOR7162
012024021402RAPT4       010RANDON PART PN      N1   R$  000000000106200000000010690000000001051000000000105700000000010570000000001057000000000105806648000000000001463100000000001546920200000000000000009999123100000010000000000000BRRAPTACNPR4162
012024021402SNSY3       010SANSUY      ON           R$  000000000118900000000011890000000001082000000000111400000000010820000000001082000000000111100037000000000000005400000000000006016400000000000000009999123100000010000000000000BRSNSYACNOR2113
012024021402SNSY5       010SANSUY      PNA          R$  000000000048400000000005190000000000484000000000051300000000005190000000000518000000000051900021000000000000007900000000000004058000000000000000009999123100000010000000000000BRSNSYACNPA5111
012024021402SOJA3       010BOA SAFRA   ON      NM   R$  000000000155500000000015550000000001506000000000151700000000015180000000001515000000000151800619000000000000110300000000000167379200000000000000009999123100000010000000000000BRSOJAACNOR9105
012024021402SOMA3       010GRUPO SOMA  ON      NM   R$  000000000071300000000007200000000000704000000000071000000000007080000000000707000000000071009568000000000005100900000000003623293900000000000000009999123100000010000000000000BRSOMAACNOR3102
012024021402SRNA3       010SERENA      ON      NM   R$  000000000101800000000010180000000000974000000000099300000000009900000000000990000000000099802955000000000000638800000000000634361700000000000000009999123100000010000000000000BRSRNAACNOR4100
012024021402UCAS3       010UNICASA     ON      NM   R$  000000000026400000000002690000000000262000000000026500000000002650000000000265000000000026700024000000000000004100000000000001090300000000000000009999123100000010000000000000BRUCASACNOR1113
012024021402UGPA3       010ULTRAPAR    ON      NM   R$  000000000294900000000029580000000002901000000000292100000000029240000000002921000000000292411373000000000002985200000000008722431400000000000000009999123100000010000000000000BRUGPAACNOR8154
012024021402VAMO3       010VAMOS       ON      NM   R$  000000000079000000000007960000000000776000000000078200000000007890000000000787000000000078910350000000000004121300000000003225619300000000000000009999123100000010000000000000BRVAMOACNOR7105
012024021402VBBR3       010VIBRA       ON      NM   R$  000000000245000000000024820000000002377000000000241100000000023860000000002386000000000238814940000000000006983400000000016841072700000000000000009999123100000010000000000000BRVBBRACNOR1106
012024021402PDGR3       010PDG REALT   ON      NM   R$  000000000003400000000000350000000000033000000000003300000000000330000000000033000000000003400279000000000000834700000000000027904200000000000000009999123100000010000000000000BRPDGRACNOR8118
012024021402PDTC3       010PADTEC      ON      NM   R$  000000000030400000000003090000000000294000000000029700000000002950000000000294000000000029800103000000000000040100000000000011933300000000000000009999123100000010000000000000BRPDTCACNOR3100
012024021402PETR3       010PETROBRAS   ON      N2   R$  000000000425300000000042660000000004208000000000423100000000042310000000004226000000000423110886000000000005693300000000024094000200000000000000009999123100000010000000000000BRPETRACNOR9202
012024021402PETR4       010PETROBRAS   PN      N2   R$  000000000411000000000041400000000004086000000000411000000000040990000000004092000000000409936137000000000018315300000000075281693700000000000000009999123100000010000000000000BRPETRACNPR6209
012024021402SLCE3       010SLC AGRICOLAON      NM   R$  000000000191100000000019170000000001832000000000185400000000018570000000001856000000000186016324000000000007544300000000013994417700000000000000009999123100000010000000000000BRSLCEACNOR2124
012024021402YDUQ3       010YDUQS PART  ON      NM   R$  000000000187400000000018800000000001843000000000186800000000018670000000001866000000000186912178000000000001924300000000003594846300000000000000009999123100000010000000000000BRYDUQACNOR3104
012024021402ZAMP3       010ZAMP S.A.   ON           R$  000000000047500000000004770000000000452000000000046100000000004620000000000461000000000046601819000000000000933900000000000430939900000000000000009999123100000010000000000000BRZAMPACNOR5100
012024021402PINE3       010PINE        ON      N2   R$  000000000035700000000003570000000000357000000000035700000000003570000000000353000000000042800001000000000000000100000000000000035700000000000000009999123100000010000000000000BRPINEACNOR1148
012024021402PINE4       010PINE        PN      N2   R$  000000000043500000000004350000000000413000000000042300000000004130000000000413000000000041500463000000000000270200000000000114487000000000000000009999123100000010000000000000BRPINEACNPR8148
012024021402PLAS3       010PLASCAR PARTON           R$  000000000068000000000007400000000000672000000000070400000000007400000000000607000000000074900010000000000000001400000000000000985700000000000000009999123100000010000000000000BRPLASACNOR2106
012024021402PLPL3       010PLANOEPLANO ON      NM   R$  000000000116300000000011950000000001154000000000117300000000011880000000001181000000000118902004000000000000382000000000000448361300000000000000009999123100000010000000000000BRPLPLACNOR5104
012024021402PNVL3       010DIMED       ON      NM   R$  000000000111500000000011180000000001094000000000110700000000011110000000001108000000000111502329000000000000548100000000000606756300000000000000009999123100000010000000000000BRPNVLACNOR9205
012024021402POMO3       010MARCOPOLO   ON      N2   R$  000000000063600000000006460000000000627000000000063500000000006300000000000630000000000063401367000000000000482900000000000306810700000000000000009999123100000010000000000000BRPOMOACNOR0095
012024021402POMO4       010MARCOPOLO   PN      N2   R$  000000000082900000000008310000000000814000000000082100000000008240000000000821000000000082410609000000000004730400000000003884514700000000000000009999123100000010000000000000BRPOMOACNPR7095
012024021402PORT3       010WILSON SONS ON      NM   R$  000000000165500000000016570000000001642000000000165300000000016570000000001650000000000165700603000000000000145200000000000240045700000000000000009999123100000010000000000000BRPORTACNOR8106
012024021402POSI3       010POSITIVO TECON      NM   R$  000000000071600000000007200000000000707000000000071400000000007200000000000717000000000072001609000000000000432700000000000309025400000000000000009999123100000010000000000000BRPOSIACNOR9115
012024021402SYNE3       010SYN PROP TECON      NM   R$  000000000045000000000004500000000000440000000000044300000000004400000000000440000000000044200334000000000000149600000000000066294700000000000000009999123100000010000000000000BRSYNEACNOR2102
012024021402TAEE11      010TAESA       UNT     N2   R$  000000000360000000000036060000000003551000000000357000000000035700000000003570000000000357505400000000000001378800000000004923194600000000000000009999123100000010000000000000BRTAEECDAM10145
012024021402TAEE3       010TAESA       ON      N2   R$  000000000119400000000011940000000001177000000000118300000000011870000000001182000000000118700935000000000000121400000000000143673000000000000000009999123100000010000000000000BRTAEEACNOR9145
012024021402PRIO3       010PETRORIO    ON      NM   R$  000000000423600000000042660000000004190000000000423500000000042550000000004255000000000425616383000000000005129400000000021725467900000000000000009999123100000010000000000000BRPRIOACNOR1106
012024021402SBFG3       010GRUPO SBF   ON      NM   R$  000000000120000000000012540000000001199000000000122700000000012150000000001215000000000122009598000000000002382600000000002924046600000000000000009999123100000010000000000000BRSBFGACNOR1102
012024021402SBSP3       010SABESP      ON      NM   R$  000000000786700000000079090000000007785000000000785700000000078990000000007899000000000790112366000000000002139200000000016808008600000000000000009999123100000010000000000000BRSBSPACNOR5160
012024021402SCAR3       010SAO CARLOS  ON      NM   R$  000000000265000000000026850000000002650000000000266200000000026850000000002663000000000268600019000000000000002600000000000006922500000000000000009999123100000010000000000000BRSCARACNOR7130
012024021402SEER3       010SER EDUCA   ON      NM   R$  000000000057000000000005860000000000564000000000057600000000005820000000000582000000000058502679000000000000984100000000000567115400000000000000009999123100000010000000000000BRSEERACNOR5119
012024021402SEQL3       010SEQUOIA LOG ON      NM   R$  000000000004700000000000490000000000046000000000004700000000000480000000000048000000000004903128000000000005308600000000000252452800000000000000009999123100000010000000000000BRSEQLACNOR2101
012024021402SGPS3       010SPRINGS     ON      NM   R$  000000000011000000000001100000000000106000000000010700000000001060000000000106000000000010800070000000000000072300000000000007765000000000000000009999123100000010000000000000BRSGPSACNOR4104
012024021402SHOW3       010TIME FOR FUNON      NM   R$  000000000020300000000002100000000000202000000000020400000000002100000000000203000000000021000151000000000000117400000000000023961900000000000000009999123100000010000000000000BRSHOWACNOR7105
012024021402SHUL4       010SCHULZ      PN           R$  000000000065000000000006500000000000630000000000063500000000006330000000000631000000000063600764000000000000254100000000000161381900000000000000009999123100000010000000000000BRSHULACNPR4154
012024021402WEST3       010WESTWING    ON      NM   R$  000000000012000000000001240000000000120000000000012000000000001220000000000121000000000012400026000000000000010900000000000001316700000000000000009999123100000010000000000000BRWESTACNOR3100
012024021402WHRL3       010WHIRLPOOL   ON           R$  000000000042100000000004210000000000420000000000042000000000004200000000000420000000000042500006000000000000008100000000000003403100000000000000009999123100000010000000000000BRWHRLACNOR5128
012024021402WHRL4       010WHIRLPOOL   PN           R$  000000000045600000000004600000000000456000000000045800000000004580000000000457000000000045900007000000000000002000000000000000917400000000000000009999123100000010000000000000BRWHRLACNPR2128
012024021402WIZC3       010WIZ CO      ON      NM   R$  000000000061700000000006210000000000611000000000061600000000006160000000000612000000000061601082000000000000289000000000000178111900000000000000009999123100000010000000000000BRWIZCACNOR5101
012024021402WLMM4       010WLM IND COM PN  EJ       R$  000000000290000000000029000000000002870000000000288500000000028700000000002839000000000310000002000000000000000200000000000000577000000000000000009999123100000010000000000000BRWLMMACNPR3117
012024021402KRSA3       010KORA SAUDE  ON      NM   R$  000000000009200000000000940000000000088000000000009000000000000910000000000091000000000009400223000000000000353000000000000031954400000000000000009999123100000010000000000000BRKRSAACNOR0100
012024021402VSTE3       010VESTE       ON      NM   R$  000000000171200000000017120000000001671000000000170600000000017000000000001700000000000171000015000000000000002300000000000003924000000000000000009999123100000010000000000000BRVSTEACNOR5102
012024021402VULC3       010VULCABRAS   ON      NM   R$  000000000176000000000018320000000001749000000000177200000000017550000000001755000000000176205208000000000000955800000000001693802500000000000000009999123100000010000000000000BRVULCACNOR2157
012024021402VVEO3       010VIVEO       ON      NM   R$  000000000085700000000008570000000000803000000000081900000000008150000000000814000000000081504087000000000000982200000000000804829200000000000000009999123100000010000000000000BRVVEOACNOR0103
012024021402WEGE3       010WEG         ON      NM   R$  000000000333700000000033760000000003329000000000334800000000033530000000003351000000000335414494000000000004030600000000013498202900000000000000009999123100000010000000000000BRWEGEACNOR0220
012024021402PFRM3       010PROFARMA    ON      NM   R$  000000000046000000000004600000000000441000000000044600000000004480000000000448000000000044900261000000000000110800000000000049439300000000000000009999123100000010000000000000BRPFRMACNOR1116
012024021402PGMN3       010PAGUE MENOS ON      NM   R$  000000000028500000000002850000000000279000000000028200000000002830000000000282000000000028401582000000000001178100000000000332386800000000000000009999123100000010000000000000BRPGMNACNOR8103
012024021402SANB11      010SANTANDER BRUNT          R$  000000000283900000000028630000000002815000000000283100000000028240000000002823000000000282503924000000000001044900000000002958387000000000000000009999123100000010000000000000BRSANBCDAM13163
012024021402SANB3       010SANTANDER BRON           R$  000000000133600000000013470000000001320000000000133100000000013250000000001325000000000133000442000000000000064800000000000086273900000000000000009999123100000010000000000000BRSANBACNOR8170
012024021402SANB4       010SANTANDER BRPN           R$  000000000151000000000015150000000001495000000000150300000000015000000000001499000000000150000350000000000000068200000000000102520900000000000000009999123100000010000000000000BRSANBACNPR5170
012024021402SAPR11      010SANEPAR     UNT     N2   R$  000000000278100000000027810000000002617000000000265700000000026270000000002625000000000262703808000000000000996200000000002647611600000000000000009999123100000010000000000000BRSAPRCDAM13117
012024021402SAPR3       010SANEPAR     ON      N2   R$  000000000053200000000005320000000000504000000000051000000000005040000000000504000000000050800928000000000000295800000000000150990600000000000000009999123100000010000000000000BRSAPRACNOR9158
012024021402SAPR4       010SANEPAR     PN      N2   R$  000000000056700000000005670000000000524000000000053700000000005240000000000524000000000052604215000000000004523400000000002431220900000000000000009999123100000010000000000000BRSAPRACNPR6158
012024021402VALE3       010VALE        ON      NM   R$  000000000659900000000066140000000006551000000000657700000000065720000000006571000000000657337869000000000012497900000000082202938000000000000000009999123100000010000000000000BRVALEACNOR0209
012024021402REDE3       010REDE ENERGIAON           R$  000000000068700000000007100000000000679000000000069100000000006870000000000683000000000068700035000000000000005500000000000003803100000000000000009999123100000010000000000000BRREDEACNOR7126
012024021402RENT3       010LOCALIZA    ON      NM   R$  000000000520000000000052220000000005136000000000517700000000052000000000005200000000000520521508000000000006696800000000034669984200000000000000009999123100000010000000000000BRRENTACNOR4194
012024021402TASA3       010TAURUS ARMASON      N2   R$  000000000141300000000014180000000001400000000000140500000000014060000000001406000000000140800089000000000000020000000000000028119500000000000000009999123100000010000000000000BRTASAACNOR7103
012024021402TASA4       010TAURUS ARMASPN      N2   R$  000000000141000000000014140000000001391000000000139900000000014020000000001400000000000140201481000000000000363100000000000508022200000000000000009999123100000010000000000000BRTASAACNPR4103
012024021402TCSA3       010TECNISA     ON      NM   R$  000000000031700000000003170000000000304000000000030700000000003090000000000309000000000031500078000000000000026500000000000008143300000000000000009999123100000010000000000000BRTCSAACNOR3112
012024021402TECN3       010TECHNOS     ON  ED  NM   R$  000000000033700000000003400000000000334000000000033600000000003370000000000337000000000033800102000000000000022200000000000007472100000000000000009999123100000010000000000000BRTECNACNOR6109
012024021402TELB3       010TELEBRAS    ON           R$  000000000149400000000014940000000001494000000000149400000000014940000000001480000000000150000001000000000000000300000000000000448200000000000000009999123100000010000000000000BRTELBACNOR2140
012024021402TELB4       010TELEBRAS    PN           R$  000000000110000000000011000000000001085000000000108900000000010850000000001081000000000110000005000000000000000700000000000000762900000000000000009999123100000010000000000000BRTELBACNPR9140
012024021402TEND3       010TENDA       ON      NM   R$  000000000103200000000010320000000000998000000000101000000000010090000000001009000000000101406592000000000004722600000000004770890300000000000000009999123100000010000000000000BRTENDACNOR4111
012024021402ONCO3       010ONCOCLINICASON      NM   R$  000000000109000000000011050000000001076000000000108400000000010830000000001083000000000108405187000000000001181200000000001280821800000000000000009999123100000010000000000000BRONCOACNOR6100
012024021402OPCT3       010OCEANPACT   ON      NM   R$  000000000055100000000005540000000000537000000000054300000000005440000000000544000000000054501421000000000000813600000000000442440800000000000000009999123100000010000000000000BROPCTACNOR0100
012024021402ORVR3       010ORIZON      ON      NM   R$  000000000332500000000033290000000003259000000000328000000000032820000000003282000000000329000996000000000000205300000000000673539700000000000000009999123100000010000000000000BRORVRACNOR0101
012024021402PCAR3       010P.ACUCAR-CBDON      NM   R$  000000000039400000000003940000000000385000000000038900000000003870000000000386000000000038704201000000000003017500000000001173887700000000000000009999123100000010000000000000BRPCARACNOR3167
012024021402NEOE3       010NEOENERGIA  ON      NM   R$  000000000203600000000020610000000002026000000000204700000000020460000000002045000000000204804385000000000001157600000000002370544000000000000000009999123100000010000000000000BRNEOEACNOR3121
012024021402NGRD3       010NEOGRID     ON      NM   R$  000000000011000000000001100000000000108000000000010800000000001100000000000109000000000011000200000000000000130900000000000014257300000000000000009999123100000010000000000000BRNGRDACNOR3103
012024021402NINJ3       010GETNINJAS   ON      NM   R$  000000000050800000000005080000000000504000000000050600000000005040000000000504000000000050800025000000000000008500000000000004308000000000000000009999123100000010000000000000BRNINJACNOR5101
012024021402NORD3       010NORDON MET  ON           R$  000000000119000000000013690000000001190000000000129900000000013580000000001180000000000135900043000000000000006100000000000007929700000000000000009999123100000010000000000000BRNORDACNOR7135
012024021402NTCO3       010GRUPO NATURAON      NM   R$  000000000163000000000016890000000001630000000000166300000000016700000000001670000000000167120716000000000013111200000000021815235100000000000000009999123100000010000000000000BRNTCOACNOR5104
012024021402RADL3       010RAIADROGASILON      NM   R$  000000000254400000000025540000000002502000000000252600000000025300000000002529000000000253017129000000000007964300000000020121925500000000000000009999123100000010000000000000BRRADLACNOR0154
012024021402RAIL3       010RUMO S.A.   ON      NM   R$  000000000240400000000024040000000002362000000000238000000000023830000000002381000000000238413693000000000006399600000000015232281700000000000000009999123100000010000000000000BRRAILACNOR9104
012024021402SMFT3       010SMART FIT   ON      NM   R$  000000000248100000000025060000000002418000000000243900000000024360000000002434000000000243804273000000000001156000000000002820416700000000000000009999123100000010000000000000BRSMFTACNOR1111
012024021402SMTO3       010SAO MARTINHOON      NM   R$  000000000265600000000026700000000002581000000000261100000000026030000000002602000000000261016645000000000005119500000000013368940900000000000000009999123100000010000000000000BRSMTOACNOR3125
012024021402STBP3       010SANTOS BRP  ON      NM   R$  000000000111400000000011140000000001095000000000110300000000011080000000001106000000000110908600000000000002667400000000002942946000000000000000009999123100000010000000000000BRSTBPACNOR3128
012024021402SUZB3       010SUZANO S.A. ON      NM   R$  000000000527800000000052940000000005208000000000523000000000052250000000005224000000000523009909000000000001912000000000010000063200000000000000009999123100000010000000000000BRSUZBACNOR0129
012024021402MTRE3       010MITRE REALTYON      NM   R$  000000000047000000000004800000000000461000000000046900000000004640000000000464000000000047002994000000000000715200000000000336061700000000000000009999123100000010000000000000BRMTREACNOR6109
012024021402MTSA4       010METISA      PN           R$  000000000499400000000049950000000004888000000000491000000000049000000000004811000000000490000016000000000000001800000000000008839100000000000000009999123100000010000000000000BRMTSAACNPR9071
012024021402MULT3       010MULTIPLAN   ON      N2   R$  000000000264300000000026430000000002576000000000259100000000025950000000002590000000000259519069000000000004021000000000010422009500000000000000009999123100000010000000000000BRMULTACNOR5137
012024021402PRNR3       010PRINER      ON      NM   R$  000000000111600000000011250000000001092000000000110700000000011130000000001101000000000111300521000000000000167700000000000185710600000000000000009999123100000010000000000000BRPRNRACNOR4108
012024021402PSSA3       010PORTO SEGUROON      NM   R$  000000000266400000000026650000000002558000000000259000000000025910000000002584000000000259107792000000000001873200000000004852990400000000000000009999123100000010000000000000BRPSSAACNOR7153
012024021402PTBL3       010PORTOBELLO  ON      NM   R$  000000000057100000000005800000000000560000000000057100000000005800000000000575000000000058000992000000000000463800000000000264890200000000000000009999123100000010000000000000BRPTBLACNOR8132
012024021402PTNT3       010PETTENATI   ON           R$  000000000117000000000012100000000001141000000000117200000000011410000000001038000000000119900004000000000000000500000000000000586100000000000000009999123100000010000000000000BRPTNTACNOR6042
012024021402PTNT4       010PETTENATI   PN           R$  000000000080500000000008050000000000780000000000078500000000007850000000000770000000000078500018000000000000006900000000000005418700000000000000009999123100000010000000000000BRPTNTACNPR3047
012024021402QUAL3       010QUALICORP   ON      NM   R$  000000000020200000000002040000000000196000000000019900000000001960000000000196000000000019703258000000000003990300000000000796614000000000000000009999123100000010000000000000BRQUALACNOR6119
012024021402SIMH3       010SIMPAR      ON      NM   R$  000000000073000000000007320000000000719000000000072400000000007250000000000724000000000072603692000000000001651200000000001196664600000000000000009999123100000010000000000000BRSIMHACNOR0107
012024021402RCSL3       010RECRUSUL    ON           R$  000000000019300000000002030000000000190000000000019600000000001930000000000192000000000019306797000000000007071500000000001386434100000000000000009999123100000010000000000000BRRCSLACNOR4133
012024021402RCSL4       010RECRUSUL    PN           R$  000000000007800000000000790000000000077000000000007700000000000770000000000077000000000007800326000000000000721800000000000055759700000000000000009999123100000010000000000000BRRCSLACNPR1133
012024021402RDNI3       010RNI         ON      NM   R$  000000000045700000000004570000000000437000000000044100000000004380000000000437000000000044400024000000000000010400000000000004591200000000000000009999123100000010000000000000BRRDNIACNOR9116
012024021402RDOR3       010REDE D OR   ON      NM   R$  000000000274000000000027670000000002619000000000266100000000026350000000002635000000000263811016000000000006223400000000016566674700000000000000009999123100000010000000000000BRRDORACNOR8111
012024021402RECV3       010PETRORECSA  ON      NM   R$  000000000219800000000022060000000002160000000000217300000000021710000000002171000000000217305953000000000001255000000000002727638900000000000000009999123100000010000000000000BRRECVACNOR3105
012024021402TFCO4       010TRACK FIELD PN      N2   R$  000000000139500000000014090000000001371000000000139500000000014090000000001386000000000140900405000000000000073800000000000103019400000000000000009999123100000010000000000000BRTFCOACNPR8111
012024021402TGMA3       010TEGMA       ON      NM   R$  000000000258000000000025800000000002534000000000255100000000025670000000002550000000000256800578000000000000077600000000000197968200000000000000009999123100000010000000000000BRTGMAACNOR7143
012024021402TIMS3       010TIM         ON      NM   R$  000000000183800000000018520000000001823000000000183900000000018380000000001837000000000183910001000000000007051500000000012973442100000000000000009999123100000010000000000000BRTIMSACNOR5114
012024021402ODPV3       010ODONTOPREV  ON      NM   R$  000000000131400000000013270000000001307000000000131500000000013150000000001312000000000131606350000000000003158600000000004156339500000000000000009999123100000010000000000000BRODPVACNOR4198
012024021402OFSA3       010OUROFINO S/AON      NM   R$  000000000216000000000021600000000002125000000000214400000000021250000000002125000000000214900020000000000000009500000000000020373000000000000000009999123100000010000000000000BROFSAACNOR7117
012024021402HAGA3       010HAGA S/A    ON           R$  000000000025000000000002500000000000247000000000024700000000002470000000000241000000000024800006000000000000001300000000000000321900000000000000009999123100000010000000000000BRHAGAACNOR7103
012024021402HAGA4       010HAGA S/A    PN           R$  000000000010600000000001060000000000105000000000010500000000001060000000000105000000000010600007000000000000001300000000000000137700000000000000009999123100000010000000000000BRHAGAACNPR4103
012024021402HAPV3       010HAPVIDA     ON      NM   R$  000000000035100000000003550000000000340000000000034600000000003420000000000342000000000034495910000000000065308000000000022614917000000000000000009999123100000010000000000000BRHAPVACNOR4113
012024021402JALL3       010JALLESMACHADON      NM   R$  000000000072000000000007330000000000715000000000072100000000007270000000000727000000000072802221000000000000598200000000000431534100000000000000009999123100000010000000000000BRJALLACNOR0105
012024021402JBSS3       010JBS         ON      NM   R$  000000000223400000000022880000000002234000000000225400000000022540000000002254000000000225512139000000000005142500000000011593517800000000000000009999123100000010000000000000BRJBSSACNOR8121
012024021402MILS3       010MILLS       ON      NM   R$  000000000122800000000012280000000001203000000000120600000000012090000000001206000000000120902374000000000000814900000000000983577100000000000000009999123100000010000000000000BRMILSACNOR2124
012024021402ELET6       010ELETROBRAS  PNB     N1   R$  000000000482300000000048480000000004700000000000474400000000047480000000004744000000000474805070000000000001715800000000008141401300000000000000009999123100000010000000000000BRELETACNPB7076
012024021402GRND3       010GRENDENE    ON      NM   R$  000000000063800000000006480000000000637000000000064200000000006440000000000640000000000064404935000000000001213600000000000780086200000000000000009999123100000010000000000000BRGRNDACNOR3172
012024021402GUAR3       010GUARARAPES  ON      NM   R$  000000000048800000000004910000000000482000000000048600000000004860000000000485000000000048604010000000000001097100000000000534008800000000000000009999123100000010000000000000BRGUARACNOR4172
012024021402EALT4       010ACO ALTONA  PN           R$  000000000101000000000010140000000000987000000000100700000000010140000000001000000000000101400010000000000000002000000000000002015700000000000000009999123100000010000000000000BREALTACNPR1137
012024021402ECOR3       010ECORODOVIAS ON      NM   R$  000000000090000000000009030000000000888000000000089600000000008950000000000895000000000090203888000000000001235800000000001107403300000000000000009999123100000010000000000000BRECORACNOR8119
012024021402EGIE3       010ENGIE BRASILON      NM   R$  000000000403100000000040440000000003997000000000402500000000040400000000004040000000000404304382000000000001163700000000004685023700000000000000009999123100000010000000000000BREGIEACNOR9125
012024021402GOAU3       010GERDAU MET  ON      N1   R$  000000000102200000000010290000000001008000000000101400000000010080000000001007000000000101300278000000000000056100000000000056926300000000000000009999123100000010000000000000BRGOAUACNOR1265
012024021402CLSA3       010CLEARSALE   ON      NM   R$  000000000039400000000003940000000000372000000000038500000000003850000000000385000000000038600718000000000000197600000000000076218500000000000000009999123100000010000000000000BRCLSAACNOR0100
012024021402CLSC4       010CELESC      PN      N2   R$  000000000651100000000065300000000006495000000000650100000000064950000000006495000000000653000006000000000000002900000000000018854200000000000000009999123100000010000000000000BRCLSCACNPR3128
012024021402CMIG3       010CEMIG       ON      N1   R$  000000000150000000000015070000000001488000000000150000000000015040000000001501000000000150701080000000000000335800000000000503897500000000000000009999123100000010000000000000BRCMIGACNOR6239
012024021402CMIG4       010CEMIG       PN      N1   R$  000000000113800000000011380000000001123000000000112900000000011290000000001128000000000112912553000000000008692000000000009813981400000000000000009999123100000010000000000000BRCMIGACNPR3240
012024021402CMIN3       010CSNMINERACAOON      N2   R$  000000000064800000000006480000000000626000000000063100000000006270000000000627000000000062807488000000000005150000000000003250416000000000000000009999123100000010000000000000BRCMINACNOR2110
012024021402DMVF3       010D1000VFARMA ON      NM   R$  000000000060700000000006150000000000597000000000060200000000005970000000000597000000000060200095000000000000029300000000000017644300000000000000009999123100000010000000000000BRDMVFACNOR9100
012024021402DOHL4       010DOHLER      PN           R$  000000000050000000000005000000000000500000000000050000000000005000000000000478000000000049800001000000000000000100000000000000050000000000000000009999123100000010000000000000BRDOHLACNPR9066
012024021402DOTZ3       010DOTZ SA     ON      NM   R$  000000000071500000000007330000000000698000000000072100000000007280000000000690000000000072800031000000000000009600000000000006929900000000000000009999123100000010000000000000BRDOTZACNOR7101
012024021402GOAU4       010GERDAU MET  PN      N1   R$  000000000098800000000009900000000000973000000000097900000000009790000000000978000000000097909284000000000006134900000000006006382600000000000000009999123100000010000000000000BRGOAUACNPR8266
012024021402ATOM3       010ATOMPAR     ON           R$  000000000020700000000002080000000000207000000000020700000000002080000000000208000000000021000012000000000000001700000000000000353000000000000000009999123100000010000000000000BRATOMACNOR1106
012024021402AURE3       010AUREN       ON      NM   R$  000000000129800000000013020000000001288000000000129300000000012890000000001289000000000129305586000000000003077800000000003981240200000000000000009999123100000010000000000000BRAUREACNOR9103
012024021402DXCO3       010DEXCO       ON      NM   R$  000000000075200000000007550000000000734000000000074400000000007430000000000742000000000074505375000000000003424100000000002549578100000000000000009999123100000010000000000000BRDXCOACNOR8104
012024021402AZEV3       010AZEVEDO     ON           R$  000000000015600000000001570000000000153000000000015400000000001570000000000155000000000015700227000000000000163300000000000025291000000000000000009999123100000010000000000000BRAZEVACNOR0121
012024021402AZEV4       010AZEVEDO     PN           R$  000000000015400000000001570000000000152000000000015400000000001570000000000154000000000015700500000000000000720700000000000111329800000000000000009999123100000010000000000000BRAZEVACNPR7121
012024021402AZUL4       010AZUL        PN      N2   R$  000000000120000000000012340000000001190000000000121500000000012140000000001214000000000121511996000000000010280300000000012492251800000000000000009999123100000010000000000000BRAZULACNPR4102
012024021402CEAB3       010CEA MODAS   ON      NM   R$  000000000081300000000008190000000000784000000000080200000000008060000000000806000000000080705736000000000001805400000000001449320100000000000000009999123100000010000000000000BRCEABACNOR1101
012024021402CEBR3       010CEB         ON           R$  000000000203000000000020300000000001928000000000197000000000019620000000001952000000000200300048000000000000008600000000000016943400000000000000009999123100000010000000000000BRCEBRACNOR5124
012024021402CEBR5       010CEB         PNA          R$  000000000180700000000018190000000001760000000000177200000000017610000000001761000000000177500033000000000000040400000000000071595400000000000000009999123100000010000000000000BRCEBRACNPA8123
012024021402CEBR6       010CEB         PNB          R$  000000000235000000000023790000000002317000000000233900000000023680000000002368000000000236900038000000000000006100000000000014273500000000000000009999123100000010000000000000BRCEBRACNPB6123
012024021402CEDO3       010CEDRO       ON      N1   R$  000000000248400000000025400000000002484000000000249300000000024840000000002484000000000265000007000000000000001200000000000002992700000000000000009999123100000010000000000000BRCEDOACNOR8096
012024021402CEDO4       010CEDRO       PN      N1   R$  000000000265800000000026680000000002658000000000266300000000026680000000002590000000000266800003000000000000000300000000000000799100000000000000009999123100000010000000000000BRCEDOACNPR5128
012024021402CEEB3       010COELBA      ON           R$  000000000399800000000039990000000003998000000000399800000000039980000000003907000000000399700003000000000000000300000000000001199500000000000000009999123100000010000000000000BRCEEBACNOR3196
012024021402B3SA3       010B3          ON      NM   R$  000000000131000000000013190000000001283000000000129300000000012860000000001285000000000128833556000000000037596000000000048634422900000000000000009999123100000010000000000000BRB3SAACNOR6130
012024021402BBSE3       010BBSEGURIDADEON  EDR NM   R$  000000000327900000000032990000000003261000000000328900000000032930000000003284000000000329512935000000000006703600000000022052313800000000000000009999123100000010000000000000BRBBSEACNOR5124
012024021402CGAS5       010COMGAS      PNA          R$  000000001169800000000116980000000011400000000001151000000000114000000000011330000000001169100003000000000000000300000000000003453100000000000000009999123100000010000000000000BRCGASACNPA3159
012024021402CGRA3       010GRAZZIOTIN  ON           R$  000000000253900000000025680000000002402000000000249300000000024020000000002401000000000251700039000000000000008800000000000021945800000000000000009999123100000010000000000000BRCGRAACNOR2081
012024021402CGRA4       010GRAZZIOTIN  PN           R$  000000000253000000000025490000000002523000000000253100000000025380000000002522000000000255000013000000000000002800000000000007087000000000000000009999123100000010000000000000BRCGRAACNPR9081
012024021402CIEL3       010CIELO       ON      NM   R$  000000000052200000000005310000000000519000000000052500000000005260000000000526000000000052720694000000000019566600000000010273383100000000000000009999123100000010000000000000BRCIELACNOR3156
012024021402CYRE3       010CYRELA REALTON      NM   R$  000000000229300000000022950000000002256000000000227000000000022580000000002257000000000226711301000000000003157400000000007167962200000000000000009999123100000010000000000000BRCYREACNOR7139
012024021402BAHI3       010BAHEMA      ON      MA   R$  000000000067500000000006750000000000675000000000067500000000006750000000000660000000000069000002000000000000000600000000000000405000000000000000009999123100000010000000000000BRBAHIACNOR1074
012024021402BALM4       010BAUMER      PN           R$  000000000097500000000010300000000000975000000000100200000000010300000000000975000000000108500002000000000000000200000000000000200500000000000000009999123100000010000000000000BRBALMACNPR2056
012024021402BAZA3       010AMAZONIA    ON           R$  000000000895000000000090090000000008852000000000892600000000088900000000008750000000000889000015000000000000001700000000000015175200000000000000009999123100000010000000000000BRBAZAACNOR0178
012024021402BBAS3       010BRASIL      ON      NM   R$  000000000573600000000058380000000005708000000000578900000000058350000000005830000000000583626340000000000008598300000000049777013500000000000000009999123100000010000000000000BRBBASACNOR3319
012024021402COCE5       010COELCE      PNA          R$  000000000406000000000041490000000004040000000000412300000000041490000000004136000000000415000038000000000000007700000000000031748500000000000000009999123100000010000000000000BRCOCEACNPA3146
012024021402COGN3       010COGNA ON    ON      NM   R$  000000000023900000000002400000000000233000000000023600000000002350000000000235000000000023627649000000000027888900000000006595270900000000000000009999123100000010000000000000BRCOGNACNOR2104
012024021402ELET3       010ELETROBRAS  ON      N1   R$  000000000433700000000043440000000004270000000000429600000000042990000000004299000000000430216900000000000004615600000000019829813100000000000000009999123100000010000000000000BRELETACNOR6159
012024021402DIRR3       010DIRECIONAL  ON      NM   R$  000000000221500000000022280000000002177000000000219200000000021920000000002184000000000219205561000000000002336600000000005123577600000000000000009999123100000010000000000000BRDIRRACNOR0117
012024021402GGPS3       010GPS         ON      NM   R$  000000000185000000000018580000000001822000000000183400000000018350000000001834000000000184504045000000000001155600000000002119641900000000000000009999123100000010000000000000BRGGPSACNOR9102
012024021402GMAT3       010GRUPO MATEUSON      NM   R$  000000000075800000000007580000000000737000000000074200000000007430000000000741000000000074406400000000000009614900000000007142262300000000000000009999123100000010000000000000BRGMATACNOR7100
012024021402ITUB3       010ITAUUNIBANCOON  EJ  N1   R$  000000000293300000000029380000000002902000000000291600000000029240000000002921000000000292401585000000000000400900000000001169224700000000000000009999123100000010000000000000BRITUBACNOR4330
012024021402ITUB4       010ITAUUNIBANCOPN  EJ  N1   R$  000000000342000000000034440000000003412000000000342700000000034290000000003420000000000343021859000000000012633200000000043305442700000000000000009999123100000010000000000000BRITUBACNPR1330
012024021402ANIM3       010ANIMA       ON      NM   R$  000000000041300000000004130000000000401000000000040600000000004080000000000408000000000041105336000000000003742500000000001519674000000000000000009999123100000010000000000000BRANIMACNOR6107
012024021402APER3       010ALPER S.A.  ON           R$  000000000420000000000044200000000004200000000000433100000000043800000000004379000000000442000044000000000000009800000000000042450900000000000000009999123100000010000000000000BRAPERACNOR9106
012024021402ARML3       010ARMAC       ON      NM   R$  000000000138100000000013810000000001323000000000133700000000013260000000001325000000000132601636000000000000294900000000000394363000000000000000009999123100000010000000000000BRARMLACNOR1110
012024021402ARZZ3       010AREZZO CO   ON      NM   R$  000000000599000000000060050000000005870000000000592100000000058780000000005874000000000588105875000000000001043200000000006177444500000000000000009999123100000010000000000000BRARZZACNOR3146
012024021402ASAI3       010ASSAI       ON      NM   R$  000000000132600000000013360000000001308000000000132100000000013160000000001315000000000131616135000000000007875600000000010408818100000000000000009999123100000010000000000000BRASAIACNOR0106
012024021402BMIN3       010MERC INVEST ON           R$  000000000197300000000019730000000001932000000000194500000000019320000000001932000000000277500003000000000000000300000000000000583700000000000000009999123100000010000000000000BRBMINACNOR4170
012024021402BMKS3       010BIC MONARK  ON           R$  000000003650000000000365000000000036500000000003650000000000365000000000035030000000003650000003000000000000000006000000000000219000000000000000009999123100000010000000000000BRBMKSACNOR9165
012024021402BMOB3       010BEMOBI TECH ON      NM   R$  000000000124000000000012410000000001217000000000122800000000012340000000001223000000000123401082000000000000229200000000000281572400000000000000009999123100000010000000000000BRBMOBACNOR7103
012024021402BOBR4       010BOMBRIL     PN           R$  000000000023300000000002330000000000225000000000022800000000002250000000000226000000000022900016000000000000006500000000000001483700000000000000009999123100000010000000000000BRBOBRACNPR3128
012024021402CAMB3       010CAMBUCI     ON           R$  000000000112500000000011250000000001086000000000109600000000010860000000001086000000000109700124000000000000021400000000000023458500000000000000009999123100000010000000000000BRCAMBACNOR4127
012024021402CAML3       010CAMIL       ON      NM   R$  000000000086500000000008740000000000858000000000086300000000008620000000000861000000000086301632000000000000580200000000000501019000000000000000009999123100000010000000000000BRCAMLACNOR3126
012024021402CASH3       010MELIUZ      ON      NM   R$  000000000073800000000007430000000000728000000000073600000000007380000000000733000000000073802381000000000001183000000000000870748500000000000000009999123100000010000000000000BRCASHACNOR8105
012024021402CBAV3       010CBA         ON      NM   R$  000000000038500000000003850000000000362000000000036900000000003640000000000364000000000036506884000000000006622400000000002450013700000000000000009999123100000010000000000000BRCBAVACNOR5104
012024021402CCRO3       010CCR SA      ON      NM   R$  000000000136200000000013800000000001357000000000136900000000013730000000001366000000000137412625000000000007527600000000010307620700000000000000009999123100000010000000000000BRCCROACNOR2144
012024021402CURY3       010CURY S/A    ON      NM   R$  000000000184200000000018500000000001780000000000180400000000017950000000001795000000000180305275000000000001290700000000002329217100000000000000009999123100000010000000000000BRCURYACNOR3107
012024021402CVCB3       010CVC BRASIL  ON      NM   R$  000000000031600000000003220000000000310000000000031600000000003170000000000315000000000031707432000000000010182500000000003222206500000000000000009999123100000010000000000000BRCVCBACNOR1115
012024021402CXSE3       010CAIXA SEGURION      NM   R$  000000000139000000000014110000000001357000000000138800000000013900000000001390000000000139219343000000000007835800000000010876873000000000000000009999123100000010000000000000BRCXSEACNOR7105
012024021402GGBR3       010GERDAU      ON      N1   R$  000000000197400000000019740000000001940000000000194800000000019400000000001940000000000195000324000000000000055000000000000107155800000000000000009999123100000010000000000000BRGGBRACNOR1189
012024021402GGBR4       010GERDAU      PN      N1   R$  000000000209000000000020940000000002065000000000207300000000020740000000002073000000000207513037000000000006775600000000014052530400000000000000009999123100000010000000000000BRGGBRACNPR8189
012024021402ITSA3       010ITAUSA      ON      N1   R$  000000000103800000000010400000000001027000000000103500000000010380000000001037000000000104000682000000000000125600000000000130004400000000000000009999123100000010000000000000BRITSAACNOR0436
012024021402ITSA4       010ITAUSA      PN      N1   R$  000000000103400000000010410000000001030000000000103500000000010360000000001035000000000103718081000000000012786200000000013239036900000000000000009999123100000010000000000000BRITSAACNPR7436
012024021402MDIA3       010M.DIASBRANCOON      NM   R$  000000000385300000000038690000000003775000000000381800000000038250000000003810000000000382501947000000000000457800000000001748190800000000000000009999123100000010000000000000BRMDIAACNOR7133
012024021402MDNE3       010MOURA DUBEUXON      NM   R$  000000000112200000000011220000000001089000000000109700000000010970000000001090000000000109700958000000000000235500000000000258551700000000000000009999123100000010000000000000BRMDNEACNOR9100
012024021402MEAL3       010IMC S/A     ON      NM   R$  000000000018700000000001870000000000180000000000018100000000001800000000000180000000000018200944000000000001065200000000000193820600000000000000009999123100000010000000000000BRMEALACNOR9105
012024021402MELK3       010MELNICK     ON      NM   R$  000000000044500000000004450000000000436000000000044200000000004440000000000439000000000044400247000000000000179700000000000079460700000000000000009999123100000010000000000000BRMELKACNOR8110
012024021402MERC4       010MERC FINANC PN           R$  000000000110000000000011000000000001100000000000110000000000011000000000000920000000000110000001000000000000000200000000000000220000000000000000009999123100000010000000000000BRMERCACNPR9180
012024021402MGEL4       010MANGELS INDLPN           R$  000000000141500000000014150000000001333000000000135100000000014090000000001338000000000142400005000000000000001300000000000001756300000000000000009999123100000010000000000000BRMGELACNPR3147
012024021402LAND3       010TERRASANTAPAON      NM   R$  000000000150000000000015060000000001470000000000149100000000014700000000001470000000000148500171000000000000054000000000000080529700000000000000009999123100000010000000000000BRLANDACNOR9102
012024021402LAVV3       010LAVVI       ON      NM   R$  000000000077000000000007710000000000757000000000076100000000007600000000000758000000000076301195000000000000297000000000000226243900000000000000009999123100000010000000000000BRLAVVACNOR4110
012024021402LEVE3       010METAL LEVE  ON      NM   R$  000000000336100000000033750000000003256000000000328500000000032760000000003276000000000328002621000000000000508600000000001670938800000000000000009999123100000010000000000000BRLEVEACNOR2196
012024021402CPFE3       010CPFL ENERGIAON      NM   R$  000000000357500000000035800000000003530000000000355000000000035560000000003556000000000356708009000000000001865700000000006623295000000000000000009999123100000010000000000000BRCPFEACNOR0136
012024021402CPLE3       010COPEL       ON      N2   R$  000000000091100000000009150000000000904000000000090900000000009110000000000911000000000091205215000000000003737500000000003399874200000000000000009999123100000010000000000000BRCPLEACNOR8148
012024021402CPLE6       010COPEL       PNB     N2   R$  000000000101800000000010240000000001010000000000101700000000010240000000001021000000000102414355000000000009619100000000009788746600000000000000009999123100000010000000000000BRCPLEACNPB9145
012024021402ELMD3       010ELETROMIDIA ON      NM   R$  000000000177800000000017970000000001747000000000176400000000017540000000001754000000000178100103000000000000016700000000000029469600000000000000009999123100000010000000000000BRELMDACNOR3100
012024021402EMAE4       010EMAE        PN           R$  000000000588200000000058850000000005830000000000588000000000058850000000005800000000000589800015000000000000002500000000000014702000000000000000009999123100000010000000000000BREMAEACNPR1124
012024021402EMBR3       010EMBRAER     ON      NM   R$  000000000222200000000022810000000002220000000000225400000000022810000000002280000000000228110266000000000003832600000000008639967700000000000000009999123100000010000000000000BREMBRACNOR4191
012024021402HBOR3       010HELBOR      ON      NM   R$  000000000026500000000002720000000000263000000000026700000000002720000000000268000000000027200302000000000000248500000000000066405600000000000000009999123100000010000000000000BRHBORACNOR3117
012024021402HBRE3       010HBR REALTY  ON      NM   R$  000000000046500000000004780000000000465000000000047000000000004750000000000474000000000047500396000000000000128900000000000060617100000000000000009999123100000010000000000000BRHBREACNOR4100
012024021402HBSA3       010HIDROVIAS   ON      NM   R$  000000000036200000000003630000000000355000000000035800000000003560000000000355000000000035707462000000000004084900000000001463226600000000000000009999123100000010000000000000BRHBSAACNOR0100
012024021402HBTS5       010HABITASUL   PNA          R$  000000000330300000000033030000000003300000000000330000000000033000000000003210000000000350000005000000000000000600000000000001980500000000000000009999123100000010000000000000BRHBTSACNPA3127
012024021402HYPE3       010HYPERA      ON  EJ  NM   R$  000000000315400000000031850000000003085000000000313000000000030850000000003085000000000309209396000000000003353400000000010498194900000000000000009999123100000010000000000000BRHYPEACNOR0137
012024021402JHSF3       010JHSF PART   ON  ED  NM   R$  000000000043000000000004310000000000425000000000042800000000004270000000000426000000000042703800000000000001664000000000000712505100000000000000009999123100000010000000000000BRJHSFACNOR2132
012024021402JOPA3       010JOSAPAR     ON           R$  000000000210000000000021000000000002100000000000210000000000021000000000002100000000000225000001000000000000000100000000000000210000000000000000009999123100000010000000000000BRJOPAACNOR5134
012024021402TTEN3       0103TENTOS     ON      NM   R$  000000000096800000000009710000000000945000000000096000000000009640000000000961000000000096504957000000000001080900000000001038297500000000000000009999123100000010000000000000BRTTENACNOR0102
012024021402TUPY3       010TUPY        ON      NM   R$  000000000251000000000025240000000002475000000000249300000000024910000000002481000000000249201997000000000000326000000000000812740900000000000000009999123100000010000000000000BRTUPYACNOR1183
012024021402TAEE4       010TAESA       PN      N2   R$  000000000120900000000012090000000001189000000000119400000000011990000000001197000000000119901332000000000000274200000000000327608200000000000000009999123100000010000000000000BRTAEEACNPR6145
012024021402MWET4       010WETZEL S/A  PN           R$  000000000056600000000005660000000000565000000000056500000000005660000000000533000000000057900004000000000000000500000000000000282800000000000000009999123100000010000000000000BRMWETACNPR3118
012024021402MYPK3       010IOCHP-MAXIONON      NM   R$  000000000117800000000011780000000001142000000000115100000000011520000000001147000000000115202695000000000000730400000000000841265700000000000000009999123100000010000000000000BRMYPKACNOR7153
012024021402MLAS3       010MULTILASER  ON      NM   R$  000000000019100000000001910000000000185000000000018600000000001880000000000186000000000018803787000000000002071200000000000387014800000000000000009999123100000010000000000000BRMLASACNOR9101
012024021402MNDL3       010MUNDIAL     ON           R$  000000000396400000000039640000000003964000000000396400000000039640000000003401000000000429900002000000000000000200000000000000792800000000000000009999123100000010000000000000BRMNDLACNOR4107
012024021402MNPR3       010MINUPAR     ON           R$  000000000197700000000019770000000001977000000000197700000000019770000000001901000000000202000002000000000000000200000000000000395400000000000000009999123100000010000000000000BRMNPRACNOR5122
012024021402MOVI3       010MOVIDA      ON      NM   R$  000000000082500000000008270000000000796000000000080600000000008050000000000802000000000080506134000000000003193600000000002576827300000000000000009999123100000010000000000000BRMOVIACNOR0122
012024021402MRFG3       010MARFRIG     ON      NM   R$  000000000089600000000008970000000000881000000000088800000000008830000000000883000000000088607991000000000002950300000000002620253600000000000000009999123100000010000000000000BRMRFGACNOR0116
012024021407NUTR3       010NUTRIPLANT  ON      MA   R$  000000000057600000000005790000000000546000000000056100000000005460000000000540000000000054600013000000000000002100000000000001178700000000000000009999123100000010000000000000BRNUTRACNOR0104
012024021407TXRX4       010TEX RENAUX  PN           R$  000000000033000000000003300000000000301000000000030600000000003050000000000305000000000031000005000000000000000600000000000000183900000000000000009999123100000010000000000000BRTXRXACNPR0142
012024021408RNEW11      010RENOVA      UNT     N2   R$  000000000039400000000003940000000000378000000000038000000000003780000000000376000000000038000008000000000000001800000000000000685500000000000000009999123100000010000000000000BRRNEWCDAM15110
012024021408RNEW3       010RENOVA      ON      N2   R$  000000000012700000000001310000000000125000000000012700000000001300000000000125000000000013000092000000000000040300000000000005155900000000000000009999123100000010000000000000BRRNEWACNOR8110
012024021408RNEW4       010RENOVA      PN      N2   R$  000000000013000000000001300000000000123000000000012600000000001260000000000124000000000012600287000000000000367100000000000046365100000000000000009999123100000010000000000000BRRNEWACNPR5110
012024021408RPMG3       010PET MANGUINHON           R$  000000000020600000000002070000000000205000000000020500000000002070000000000205000000000020900009000000000000007200000000000001479500000000000000009999123100000010000000000000BRRPMGACNOR9194
012024021408RSID3       010ROSSI RESID ON      NM   R$  000000000037100000000003800000000000365000000000037300000000003770000000000368000000000037700076000000000000042200000000000015755400000000000000009999123100000010000000000000BRRSIDACNOR8120
012024021408AMER3       010AMERICANAS  ON      NM   R$  000000000006500000000000660000000000059000000000006200000000000600000000000060000000000006104209000000000024353300000000001512887400000000000000009999123100000010000000000000BRAMERACNOR6101
012024021408FRTA3       010POMIFRUTAS  ON      NM   R$  000000000014500000000001540000000000145000000000014600000000001540000000000146000000000015400009000000000000006300000000000000922900000000000000009999123100000010000000000000BRFRTAACNOR8103
012024021408LIGT3       010LIGHT S/A   ON      NM   R$  000000000053600000000005490000000000531000000000053900000000005430000000000542000000000054303355000000000000809000000000000436625600000000000000009999123100000010000000000000BRLIGTACNOR2124
012024021408ETER3       010ETERNIT     ON      NM   R$  000000000067700000000006850000000000664000000000067100000000006740000000000673000000000067500891000000000000291700000000000195871300000000000000009999123100000010000000000000BRETERACNOR3242
012024021408PMAM3       010PARANAPANEMAON      NM   R$  000000000039500000000003950000000000375000000000038100000000003770000000000375000000000037800100000000000000028800000000000010988800000000000000009999123100000010000000000000BRPMAMACNOR3038
012024021408TEKA4       010TEKA        PN           R$  000000000267000000000026700000000002670000000000267000000000026700000000001805000000000268800001000000000000000100000000000000267000000000000000009999123100000010000000000000BRTEKAACNPR3140
012024021408OIBR3       010OI          ON      N1   R$  000000000009900000000001120000000000096000000000010700000000001100000000000109000000000011005386000000000026075900000000002796610700000000000000009999123100000010000000000000BROIBRACNOR1110
012024021408OIBR4       010OI          PN      N1   R$  000000000020400000000002240000000000204000000000021600000000002120000000000212000000000021600360000000000000201400000000000043557700000000000000009999123100000010000000000000BROIBRACNPR8109
012024021408OSXB3       010OSX BRASIL  ON      NM   R$  000000000051200000000005180000000000461000000000049500000000005070000000000486000000000051100052000000000000011000000000000005454600000000000000009999123100000010000000000000BROSXBACNOR8109
012024021408NEXP3       010NEXPE       ON      NM   R$  000000000049200000000004920000000000481000000000048500000000004820000000000481000000000048400010000000000000004900000000000002377800000000000000009999123100000010000000000000BRNEXPACNOR0101
012024021408ATMP3       010ATMASA      ON           R$  000000000030200000000003090000000000294000000000030400000000003090000000000301000000000031000027000000000000006300000000000001918900000000000000009999123100000010000000000000BRATMPACNOR8100
012024021408HOOT4       010HOTEIS OTHONPN           R$  000000000028700000000002870000000000284000000000028500000000002840000000000284000000000028700006000000000000005700000000000001629400000000000000009999123100000010000000000000BRHOOTACNPR9015
012024021408JFEN3       010JOAO FORTES ON           R$  000000000018200000000001920000000000182000000000019000000000001900000000000190000000000019200013000000000000004000000000000000760300000000000000009999123100000010000000000000BRJFENACNOR0058
012024021410VIVR12      010VIVER       DIR     NM   R$  000000000000100000000000060000000000001000000000000200000000000060000000000005000000000000600133000000000000179600000000000000509800000000000000009999123100000010000000000000BRVIVRD02M16121
012024021410MGLU1       010MAGAZ LUIZA DIR ORD NM   R$  000000000001800000000000200000000000016000000000001700000000000160000000000016000000000001703526000000000007662300000000000137788700000000000000009999123100000010000000000000BRMGLUD01OR7122
012024021410LJQQ9       010QUERO-QUERO ON  REC NM   R$  000000000048200000000004820000000000482000000000048200000000004820000000000400000000000047900001000000000000000300000000000000144600000000000000009999123100000010000000000000BRLJQQR01OR0103
012024021410VSTE1       010VESTE       DIR ORD NM   R$  000000000000100000000000020000000000001000000000000100000000000010000000000000000000000000100036000000000000036700000000000000042700000000000000009999123100000010000000000000BRVSTED02OR8101
012024021410PGMN1       010PAGUE MENOS DIR ORD NM   R$  000000000001100000000000110000000000005000000000000700000000000050000000000005000000000000700170000000000000564400000000000004064400000000000000009999123100000010000000000000BRPGMND03OR9102
012024021410CDII12      010SPARTA CDII DIR          R$  000000000003500000000000350000000000011000000000002100000000000150000000000012000000000001500346000000000000033952000000000000724031000000000000009999123100000010000000000000BRCDIID03M11111
012024021412JSAF11      010FII JS A FINCI  ER       R$  000000001045000000000104500000000010305000000001037900000000104030000000010350000000001040300301000000000000003286000000000034107241000000000000009999123100000010000000000000BRJSAFCTF000128
012024021412JSRE11      010FII JS REAL CI  ER       R$  000000000745300000000074800000000007404000000000745200000000074600000000007445000000000746003761000000000000037023000000000275917176000000000000009999123100000010000000000000BRJSRECTF007258
012024021412RZAT11      010FII ARCTIUM CI           R$  000000000964800000000096500000000009464000000000960800000000095020000000009502000000000953002854000000000000010599000000000101835679000000000000009999123100000010000000000000BRRZATCTF009112
012024021412RZTR11      010FII RIZA TX CI  ER       R$  000000001020000000000102270000000010121000000001016400000000101480000000010135000000001014802675000000000000015461000000000157151345000000000000009999123100000010000000000000BRRZTRCTF003144
012024021412URPR11      010FII URCA RENCI  ER       R$  000000000886200000000088630000000008768000000000880700000000088130000000008812000000000881301776000000000000023533000000000207264218000000000000009999123100000010000000000000BRURPRCTF002154
012024021412VCJR11      010FII VECTIS  CI  ER       R$  000000000950000000000095500000000009450000000000947800000000094530000000009453000000000946900966000000000000012441000000000117923984000000000000009999123100000010000000000000BRVCJRCTF005151
012024021412VCRI11      010FII VINCI CRCI  ER       R$  000000000085600000000008650000000000852000000000085700000000008650000000000865000000000087000198000000000000021185000000000018173909000000000000009999123100000010000000000000BRVCRICTF007121
012024021412VCRR11      010FII VECT RENCI  ER       R$  000000000711000000000071100000000007041000000000705300000000070930000000007060000000000709600089000000000000002283000000000016104271000000000000009999123100000010000000000000BRVCRRCTF008132
012024021412VGHF11      010FII VALOR HECI  ER       R$  000000000093300000000009350000000000931000000000093300000000009330000000000932000000000093315238000000000000392132000000000365909833000000000000009999123100000010000000000000BRVGHFCTF005140
012024021412VGIP11      010FII VALORAIPCI           R$  000000000936900000000093890000000009283000000000934100000000092910000000009291000000000931801942000000000000014127000000000131968616000000000000009999123100000010000000000000BRVGIPCTF002151
012024021412VGIR11      010FII VALREIIICI           R$  000000000097800000000009800000000000974000000000097600000000009750000000000973000000000097509204000000000000273581000000000267251313000000000000009999123100000010000000000000BRVGIRCTF008170
012024021412VIFI11      010FII VINCI IFCI  ER       R$  000000000082100000000008240000000000817000000000082000000000008240000000000818000000000082400152000000000000023104000000000018947737000000000000009999123100000010000000000000BRVIFICTF009152
012024021412VILG11      010FII VINCI LGCI  ER       R$  000000000910000000000091200000000009029000000000906500000000090300000000009029000000000903004966000000000000022600000000000204870538000000000000009999123100000010000000000000BRVILGCTF001167
012024021412VINO11      010FII VINCI OFCI  ER       R$  000000000076600000000007700000000000765000000000076800000000007650000000000765000000000076602736000000000000144680000000000111116973000000000000009999123100000010000000000000BRVINOCTF001153
012024021412VISC11      010FII VINCI SCCI  ER       R$  000000001207000000000121160000000012043000000001207600000000120700000000012070000000001208009941000000000000078049000000000942525633000000000000009999123100000010000000000000BRVISCCTF005182
012024021412VIUR11      010FII VINCI IUCI  ER       R$  000000000079600000000008010000000000795000000000079800000000008000000000000800000000000080101406000000000000038171000000000030469688000000000000009999123100000010000000000000BRVIURCTF009133
012024021412RFOF11      010FII RB CFOF CI  ER       R$  000000000765000000000076520000000007590000000000762800000000075900000000007591000000000761700047000000000000000374000000000002852922000000000000009999123100000010000000000000BRRFOFCTF001147
012024021412RINV11      010FII REAL INVCI  ER       R$  000000001118000000000111800000000011092000000001114900000000111800000000011130000000001118400029000000000000000434000000000004839014000000000000009999123100000010000000000000BRRINVCTF004114
012024021412RMAI11      010FII REAGMULTCI  ER       R$  000000000720000000000072000000000006855000000000719700000000072000000000006508000000000720000115000000000000000509000000000003663676000000000000009999123100000010000000000000BRRMAICTF000130
012024021412RNDP11      010FII BB R PAPCI  ER       R$  000000001100000000000113000000000010800000000001105900000000113000000000010803000000001130000016000000000000000058000000000000641440000000000000009999123100000010000000000000BRRNDPCTF007244
012024021412RNGO11      010FII RIONEGROCI  ER       R$  000000000453800000000045380000000004444000000000448100000000044800000000004480000000000449000073000000000000001066000000000004777066000000000000009999123100000010000000000000BRRNGOCTF003239
012024021412RPRI11      010FII RBR PR  CI  ER       R$  000000001015900000000101770000000010120000000001014400000000101700000000010170000000001029600013000000000000000249000000000002525899000000000000009999123100000010000000000000BRRPRICTF007124
012024021412RRCI11      010FII RBCAP RICI  ER       R$  000000000825000000000082880000000008206000000000822400000000082650000000008255000000000827000021000000000000000163000000000001340639000000000000009999123100000010000000000000BRRRCICTF005138
012024021412KCRE11      010FII KINEA CRCI  ER       R$  000000000993400000000099430000000009930000000000993500000000099330000000009933000000000993500150000000000000001134000000000011266379000000000000009999123100000010000000000000BRKCRECTF009120
012024021412RSPD11      010FII RBRESID3CI           R$  000000010999900000001100000000000109999000000010999900000001100000000000101000000000011000000002000000000000000031000000000003409998000000000000009999123100000010000000000000BRRSPDCTF006112
012024021412RVBI11      010FII VBI REITCI  ER       R$  000000000832000000000083200000000008191000000000821700000000082300000000008230000000000823100162000000000000002164000000000017782631000000000000009999123100000010000000000000BRRVBICTF009148
012024021412RZAK11      010FII RIZA AKNCI           R$  000000000894000000000089660000000008919000000000893800000000089440000000008943000000000894401220000000000000011659000000000104211526000000000000009999123100000010000000000000BRRZAKCTF008139
012024021412DAMT11B     010FII DIAMANTECI      MB   R$  000000000120500000000012790000000001205000000000120600000000012790000000001208000000000127000002000000000000000073000000000000088039000000000000009999123100000010000000000000BRDAMTCTF007116
012024021412DEVA11      010FII DEVANT  CI  ER       R$  000000000415500000000041570000000004112000000000413000000000041290000000004121000000000412901798000000000000022378000000000092421148000000000000009999123100000010000000000000BRDEVACTF000145
012024021412ALZM11      010FII ALIANZMECI           R$  000000000087200000000008730000000000870000000000087100000000008700000000000870000000000087200435000000000000011738000000000010231975000000000000009999123100000010000000000000BRALZMCTF007118
012024021412ALZR11      010FII ALIANZA CI           R$  000000001184600000000118550000000011783000000001181700000000117990000000011799000000001180001855000000000000014580000000000172303774000000000000009999123100000010000000000000BRALZRCTF006177
012024021412BICR11      010FII INTER   CI           R$  000000000700000000000070000000000007000000000000700000000000070000000000007000000000000000000001000000000000000005000000000000035000000000000000009999123100000010000000000000BRBICRCTF009148
012024021412BIME11      010FII BRIO ME CI  ER       R$  000000000073600000000007420000000000734000000000073500000000007360000000000735000000000073600307000000000000003146000000000002314181000000000000009999123100000010000000000000BRBIMECTF006128
012024021412BLCA11      010FII BLUE AAACI  ERA      R$  000000001229800000000122980000000012298000000001229800000000122980000000011500000000001220000003000000000000000013000000000000159874000000000000009999123100000010000000000000BRBLCACTF009127
012024021412BLMG11      010FII BLUE LOGCI  ER       R$  000000000390000000000039360000000003900000000000391600000000039330000000003921000000000393400431000000000000010700000000000041906754000000000000009999123100000010000000000000BRBLMGCTF005143
