00COTAHIST.2024BOVESPA 20240322                                                                                                                                                                                                                      
012024032202ITSA3       010ITAUSA      ON  EJ  N1   R$  000000000105200000000010530000000001036000000000104100000000010400000000001037000000000104000269000000000000074400000000000077505600000000000000009999123100000010000000000000BRITSAACNOR0439
012024032202ITSA4       010ITAUSA      PN  EJ  N1   R$  000000000104500000000010490000000001030000000000103500000000010350000000001034000000000103514239000000000011734400000000012155066600000000000000009999123100000010000000000000BRITSAACNPR7439
012024032202DXCO3       010DEXCO       ON  ED  NM   R$  000000000083000000000008300000000000793000000000080000000000007930000000000793000000000079605072000000000002481000000000001986059000000000000000009999123100000010000000000000BRDXCOACNOR8105
012024032202KLBN11      010KLABIN S/A  UNT     N2   R$  000000000248100000000024900000000002412000000000244300000000024460000000002439000000000244612097000000000004462000000000010902064300000000000000009999123100000010000000000000BRKLBNCDAM18140
012024032202KLBN3       010KLABIN S/A  ON      N2   R$  000000000049800000000004990000000000483000000000048900000000004850000000000485000000000048900787000000000000249900000000000122306800000000000000009999123100000010000000000000BRKLBNACNOR2168
012024032202KLBN4       010KLABIN S/A  PN      N2   R$  000000000049500000000004970000000000483000000000048800000000004850000000000484000000000048701591000000000000955600000000000467237500000000000000009999123100000010000000000000BRKLBNACNPR9168
012024032202MRVE3       010MRV         ON      NM   R$  000000000078700000000007890000000000765000000000077400000000007700000000000770000000000077112161000000000010311500000000007987068000000000000000009999123100000010000000000000BRMRVEACNOR2126
012024032202MTRE3       010MITRE REALTYON      NM   R$  000000000049600000000004960000000000482000000000048700000000004890000000000487000000000048901342000000000000443300000000000215985000000000000000009999123100000010000000000000BRMTREACNOR6109
012024032202MTSA4       010METISA      PN           R$  000000000480800000000048160000000004801000000000480800000000048010000000004781000000000484700012000000000000001600000000000007693000000000000000009999123100000010000000000000BRMTSAACNPR9071
012024032202MULT3       010MULTIPLAN   ON      N2   R$  000000000264000000000026600000000002587000000000260800000000026100000000002610000000000261227958000000000005603700000000014618868000000000000000009999123100000010000000000000BRMULTACNOR5137
012024032202AERI3       010AERIS       ON      NM   R$  000000000005700000000000570000000000055000000000005500000000000560000000000055000000000005601112000000000001514900000000000084632600000000000000009999123100000010000000000000BRAERIACNOR4101
012024032202AESB3       010AES BRASIL  ON      NM   R$  000000000108800000000010880000000001063000000000107100000000010780000000001076000000000107805501000000000001837300000000001968711400000000000000009999123100000010000000000000BRAESBACNOR7105
012024032202AGRO3       010BRASILAGRO  ON      NM   R$  000000000240600000000024100000000002373000000000238100000000023840000000002384000000000238501392000000000000211100000000000502764800000000000000009999123100000010000000000000BRAGROACNOR7114
012024032202AGXY3       010AGROGALAXY  ON      NM   R$  000000000017800000000001790000000000169000000000017300000000001700000000000170000000000017200264000000000000088500000000000015326900000000000000009999123100000010000000000000BRAGXYACNOR4102
012024032202ALLD3       010ALLIED      ON      NM   R$  000000000087000000000009350000000000846000000000087600000000008550000000000853000000000085501096000000000000533200000000000467253500000000000000009999123100000010000000000000BRALLDACNOR3105
012024032202EALT3       010ACO ALTONA  ON           R$  000000000100500000000010050000000001005000000000100500000000010050000000001000000000000100500002000000000000001500000000000001507500000000000000009999123100000010000000000000BREALTACNOR4137
012024032202EALT4       010ACO ALTONA  PN           R$  000000000105200000000010790000000001052000000000106200000000010620000000001062000000000106800015000000000000003800000000000004037300000000000000009999123100000010000000000000BREALTACNPR1137
012024032202ECOR3       010ECORODOVIAS ON      NM   R$  000000000089500000000008950000000000860000000000087100000000008680000000000868000000000086911462000000000010128200000000008824038300000000000000009999123100000010000000000000BRECORACNOR8119
012024032202EGIE3       010ENGIE BRASILON      NM   R$  000000000408600000000041020000000004017000000000403900000000040270000000004026000000000404004330000000000001064900000000004301480800000000000000009999123100000010000000000000BREGIEACNOR9125
012024032202GGBR3       010GERDAU      ON      N1   R$  000000000199000000000019900000000001940000000000195600000000019570000000001946000000000195700269000000000000077300000000000151209500000000000000009999123100000010000000000000BRGGBRACNOR1190
012024032202GGBR4       010GERDAU      PN      N1   R$  000000000219300000000021960000000002156000000000216500000000021610000000002160000000000216109144000000000004388400000000009503876900000000000000009999123100000010000000000000BRGGBRACNPR8190
012024032202ALOS3       010ALLOS       ON      NM   R$  000000000244100000000024610000000002407000000000241600000000024080000000002408000000000241107994000000000003386500000000008182169200000000000000009999123100000010000000000000BRALOSACNOR5100
012024032202ALPA3       010ALPARGATAS  ON      N1   R$  000000000100400000000010040000000001004000000000100400000000010040000000001004000000000104000004000000000000000400000000000000401600000000000000009999123100000010000000000000BRALPAACNOR0231
012024032202ALPA4       010ALPARGATAS  PN      N1   R$  000000000092000000000009410000000000914000000000092900000000009400000000000940000000000094105410000000000002732400000000002540976600000000000000009999123100000010000000000000BRALPAACNPR7232
012024032202BBDC3       010BRADESCO    ON      N1   R$  000000000127600000000012810000000001244000000000125600000000012520000000001251000000000125206001000000000008548700000000010741629700000000000000009999123100000010000000000000BRBBDCACNOR1767
012024032202BBDC4       010BRADESCO    PN      N1   R$  000000000141300000000014160000000001386000000000139900000000013960000000001395000000000139635947000000000028438400000000039791313400000000000000009999123100000010000000000000BRBBDCACNPR8767
012024032202BIOM3       010BIOMM       ON      MA   R$  000000000091100000000009250000000000906000000000091300000000009100000000000906000000000092200033000000000000026900000000000024559700000000000000009999123100000010000000000000BRBIOMACNOR2112
012024032202BLAU3       010BLAU        ON      NM   R$  000000000120000000000012300000000001181000000000120700000000012210000000001216000000000122201984000000000000400000000000000482822700000000000000009999123100000010000000000000BRBLAUACNOR8111
012024032202BMEB3       010MERCANTIL   ON      N1   R$  000000000236400000000025700000000002364000000000250100000000025700000000002495000000000269000005000000000000000600000000000001500800000000000000009999123100000010000000000000BRBMEBACNOR8205
012024032202BMEB4       010MERCANTIL   PN      N1   R$  000000000270000000000027390000000002500000000000260200000000026510000000002621000000000265100118000000000000019000000000000049453900000000000000009999123100000010000000000000BRBMEBACNPR5210
012024032202BMGB4       010BANCO BMG   PN      N1   R$  000000000034700000000003520000000000344000000000034700000000003470000000000346000000000034700790000000000000348900000000000121077400000000000000009999123100000010000000000000BRBMGBACNPR0108
012024032202BMIN4       010MERC INVEST PN           R$  000000000158800000000016000000000001579000000000158600000000016000000000001541000000000165000003000000000000000400000000000000634600000000000000009999123100000010000000000000BRBMINACNPR1176
012024032202BMKS3       010BIC MONARK  ON           R$  000000003639000000000363900000000036300000000003636600000000363000000000036000000000003650000002000000000000000019000000000000690960000000000000009999123100000010000000000000BRBMKSACNOR9165
012024032202BMOB3       010BEMOBI TECH ON      NM   R$  000000000137700000000013780000000001353000000000136900000000013730000000001370000000000137600467000000000000114400000000000156727600000000000000009999123100000010000000000000BRBMOBACNOR7103
012024032202BNBR3       010NORD BRASIL ON           R$  000000001120000000000112000000000011200000000001120000000000112000000000010950000000001120000001000000000000000100000000000001120000000000000000009999123100000010000000000000BRBNBRACNOR8206
012024032202BOBR4       010BOMBRIL     PN           R$  000000000022500000000002280000000000222000000000022500000000002270000000000225000000000022700017000000000000005100000000000001147600000000000000009999123100000010000000000000BRBOBRACNPR3128
012024032202RCSL3       010RECRUSUL    ON           R$  000000000017700000000001770000000000168000000000017100000000001740000000000171000000000017400524000000000000447400000000000076856900000000000000009999123100000010000000000000BRRCSLACNOR4133
012024032202RCSL4       010RECRUSUL    PN           R$  000000000007400000000000760000000000074000000000007400000000000740000000000074000000000007502520000000000001892500000000000140863600000000000000009999123100000010000000000000BRRCSLACNPR1133
012024032202RDNI3       010RNI         ON      NM   R$  000000000040100000000004200000000000396000000000041000000000003960000000000396000000000039900043000000000000011800000000000004842600000000000000009999123100000010000000000000BRRDNIACNOR9116
012024032202RDOR3       010REDE D OR   ON      NM   R$  000000000269000000000027200000000002624000000000265500000000026400000000002640000000000264109775000000000002891900000000007678748900000000000000009999123100000010000000000000BRRDORACNOR8111
012024032202TASA3       010TAURUS ARMASON      N2   R$  000000000140000000000014120000000001398000000000140100000000013980000000001398000000000140400037000000000000006700000000000009387200000000000000009999123100000010000000000000BRTASAACNOR7103
012024032202TASA4       010TAURUS ARMASPN      N2   R$  000000000139700000000013990000000001386000000000139100000000013890000000001387000000000139100943000000000000235300000000000327336800000000000000009999123100000010000000000000BRTASAACNPR4103
012024032202TCSA3       010TECNISA     ON      NM   R$  000000000029900000000003050000000000294000000000029900000000003050000000000305000000000030700144000000000000112000000000000033547500000000000000009999123100000010000000000000BRTCSAACNOR3112
012024032202TECN3       010TECHNOS     ON      NM   R$  000000000043500000000004600000000000428000000000044400000000004550000000000454000000000045601201000000000000442600000000000196515900000000000000009999123100000010000000000000BRTECNACNOR6109
012024032202TELB3       010TELEBRAS    ON           R$  000000000140200000000014030000000001402000000000140200000000014030000000001382000000000140500002000000000000000200000000000000280500000000000000009999123100000010000000000000BRTELBACNOR2140
012024032202TELB4       010TELEBRAS    PN           R$  000000000102700000000010270000000001016000000000102300000000010250000000001007000000000102300006000000000000000900000000000000921100000000000000009999123100000010000000000000BRTELBACNPR9140
012024032202TEND3       010TENDA       ON      NM   R$  000000000131100000000013230000000001221000000000125300000000012450000000001243000000000124608858000000000003354500000000004206044700000000000000009999123100000010000000000000BRTENDACNOR4111
012024032202TFCO4       010TRACK FIELD PN      N2   R$  000000000126200000000012640000000001199000000000121700000000012190000000001215000000000122001234000000000000597700000000000727977200000000000000009999123100000010000000000000BRTFCOACNPR8111
012024032202TGMA3       010TEGMA       ON      NM   R$  000000000286000000000028710000000002838000000000284900000000028450000000002844000000000284500550000000000000072600000000000206854100000000000000009999123100000010000000000000BRTGMAACNOR7143
012024032202TIMS3       010TIM         ON      NM   R$  000000000182300000000018310000000001809000000000182100000000018250000000001825000000000182709632000000000004260500000000007759151100000000000000009999123100000010000000000000BRTIMSACNOR5114
012024032202TOTS3       010TOTVS       ON      NM   R$  000000000306300000000030890000000003007000000000304900000000030520000000003050000000000305205633000000000001850800000000005643360700000000000000009999123100000010000000000000BRTOTSACNOR8144
012024032202TPIS3       010TRIUNFO PARTON      NM   R$  000000000038600000000004030000000000385000000000039300000000003900000000000390000000000039400459000000000000271100000000000106775100000000000000009999123100000010000000000000BRTPISACNOR8118
012024032202TRAD3       010TC          ON      NM   R$  000000000008600000000000910000000000084000000000008700000000000860000000000085000000000008600282000000000000512900000000000045059400000000000000009999123100000010000000000000BRTRADACNOR3101
012024032202TRIS3       010TRISUL      ON      NM   R$  000000000059000000000005900000000000557000000000057000000000005620000000000561000000000056201478000000000000660800000000000376756900000000000000009999123100000010000000000000BRTRISACNOR4116
012024032202TRPL3       010TRAN PAULISTON      N1   R$  000000000334700000000034000000000003347000000000337500000000034000000000003348000000000340000008000000000000000800000000000002700500000000000000009999123100000010000000000000BRTRPLACNOR4185
012024032202TRPL4       010TRAN PAULISTPN      N1   R$  000000000252900000000025440000000002515000000000253300000000025380000000002533000000000254007707000000000001928600000000004885840300000000000000009999123100000010000000000000BRTRPLACNPR1185
012024032202WEST3       010WESTWING    ON      NM   R$  000000000012200000000001310000000000121000000000012500000000001250000000000125000000000012700404000000000000270100000000000033988700000000000000009999123100000010000000000000BRWESTACNOR3100
012024032202RADL3       010RAIADROGASILON      NM   R$  000000000277200000000027780000000002710000000000272700000000027190000000002718000000000272011812000000000004950600000000013504140000000000000000009999123100000010000000000000BRRADLACNOR0154
012024032202RAIL3       010RUMO S.A.   ON      NM   R$  000000000220500000000022220000000002187000000000219500000000021870000000002186000000000219010881000000000004888300000000010733018300000000000000009999123100000010000000000000BRRAILACNOR9104
012024032202SYNE3       010SYN PROP TECON      NM   R$  000000000088500000000008850000000000840000000000086700000000008640000000000864000000000087400888000000000000320500000000000278045500000000000000009999123100000010000000000000BRSYNEACNOR2102
012024032202TAEE11      010TAESA       UNT     N2   R$  000000000360600000000036150000000003591000000000360400000000036010000000003600000000000360506519000000000001259200000000004539226800000000000000009999123100000010000000000000BRTAEECDAM10145
012024032202TAEE3       010TAESA       ON      N2   R$  000000000119300000000011970000000001191000000000119400000000011930000000001192000000000119300356000000000000056600000000000067584700000000000000009999123100000010000000000000BRTAEEACNOR9145
012024032202TAEE4       010TAESA       PN      N2   R$  000000000120900000000012090000000001201000000000120500000000012050000000001205000000000120800471000000000000159000000000000191641000000000000000009999123100000010000000000000BRTAEEACNPR6145
012024032202VITT3       010VITTIA      ON      NM   R$  000000000072500000000007290000000000703000000000071100000000007180000000000715000000000071801426000000000000239300000000000170159900000000000000009999123100000010000000000000BRVITTACNOR4106
012024032202VIVA3       010VIVARA S.A. ON      NM   R$  000000000246800000000025380000000002453000000000249500000000025080000000002507000000000251529158000000000013719200000000034230811800000000000000009999123100000010000000000000BRVIVAACNOR0106
012024032202VIVR3       010VIVER       ON      NM   R$  000000000032500000000003250000000000309000000000031400000000003090000000000309000000000031200127000000000000104800000000000032975200000000000000009999123100000010000000000000BRVIVRACNOR4122
012024032202VIVT3       010TELEF BRASILON           R$  000000000512900000000052080000000005110000000000516800000000051710000000005160000000000517205754000000000001345500000000006954099200000000000000009999123100000010000000000000BRVIVTACNOR0178
012024032202VLID3       010VALID       ON      NM   R$  000000000186500000000018830000000001852000000000186900000000018730000000001866000000000187300953000000000000233000000000000435565200000000000000009999123100000010000000000000BRVLIDACNOR5141
012024032202VSTE3       010VESTE       ON      NM   R$  000000000141000000000014200000000001408000000000141100000000014090000000001404000000000142000011000000000000003000000000000004235200000000000000009999123100000010000000000000BRVSTEACNOR5102
012024032202VULC3       010VULCABRAS   ON  ED  NM   R$  000000000177500000000017760000000001715000000000173900000000017370000000001735000000000173903138000000000000655600000000001140116600000000000000009999123100000010000000000000BRVULCACNOR2158
012024032202VVEO3       010VIVEO       ON      NM   R$  000000000076500000000007800000000000683000000000071100000000006950000000000695000000000069604187000000000001582100000000001126017400000000000000009999123100000010000000000000BRVVEOACNOR0103
012024032202WEGE3       010WEG         ON      NM   R$  000000000393900000000040020000000003931000000000398300000000039740000000003973000000000397412585000000000005473200000000021801640000000000000000009999123100000010000000000000BRWEGEACNOR0221
012024032202PRNR3       010PRINER      ON      NM   R$  000000000120000000000012350000000001179000000000120100000000012280000000001228000000000123001547000000000000548600000000000658942700000000000000009999123100000010000000000000BRPRNRACNOR4108
012024032202PSSA3       010PORTO SEGUROON      NM   R$  000000000312500000000031290000000003079000000000309600000000030950000000003093000000000310203337000000000000711600000000002203788100000000000000009999123100000010000000000000BRPSSAACNOR7153
012024032202PTBL3       010PORTOBELLO  ON      NM   R$  000000000068800000000006960000000000669000000000068500000000006890000000000685000000000068901594000000000000680000000000000465981500000000000000009999123100000010000000000000BRPTBLACNOR8132
012024032202PTNT3       010PETTENATI   ON           R$  000000000137100000000013710000000001370000000000137000000000013700000000001244000000000136000003000000000000000300000000000000411100000000000000009999123100000010000000000000BRPTNTACNOR6042
012024032202PTNT4       010PETTENATI   PN           R$  000000000077000000000007870000000000770000000000078100000000007870000000000760000000000078700017000000000000002800000000000002189200000000000000009999123100000010000000000000BRPTNTACNPR3047
012024032202QUAL3       010QUALICORP   ON      NM   R$  000000000024500000000002510000000000221000000000022900000000002220000000000221000000000022308104000000000012915000000000002961406100000000000000009999123100000010000000000000BRQUALACNOR6119
012024032202CPLE3       010COPEL       ON      N2   R$  000000000090500000000009120000000000892000000000089800000000008990000000000899000000000090006341000000000004453900000000004003255600000000000000009999123100000010000000000000BRCPLEACNOR8148
012024032202CPLE5       010COPEL       PNA     N2   R$  000000000205200000000020520000000002052000000000205200000000020520000000002027000000000209900001000000000000000100000000000000205200000000000000009999123100000010000000000000BRCPLEACNPA1146
012024032202CPLE6       010COPEL       PNB     N2   R$  000000000100600000000010180000000000996000000000100800000000010050000000001005000000000100614348000000000014781800000000014901957800000000000000009999123100000010000000000000BRCPLEACNPB9145
012024032202CRFB3       010CARREFOUR BRON      NM   R$  000000000132900000000013510000000001299000000000132800000000013510000000001344000000000135107804000000000005426600000000007211407000000000000000009999123100000010000000000000BRCRFBACNOR2116
012024032202CRIV4       010ALFA FINANC PN           R$  000000000067300000000006730000000000673000000000067300000000006730000000000673000000000070000050000000000000250000000000000168250000000000000000009999123100000010000000000000BRCRIVACNPR1211
012024032202CRPG3       010CRISTAL     ON           R$  000000000355000000000035500000000003550000000000355000000000035500000000003380000000000360000001000000000000000100000000000000355000000000000000009999123100000010000000000000BRCRPGACNOR0118
012024032202CRPG5       010CRISTAL     PNA          R$  000000000339400000000033940000000003301000000000333800000000033400000000003315000000000334900036000000000000005100000000000017024400000000000000009999123100000010000000000000BRCRPGACNPA3118
012024032202CRPG6       010CRISTAL     PNB          R$  000000000340200000000034020000000003372000000000338800000000033900000000003351000000000339800003000000000000000300000000000001016400000000000000009999123100000010000000000000BRCRPGACNPB1118
012024032202CSAN3       010COSAN       ON      NM   R$  000000000166300000000016700000000001638000000000164800000000016420000000001641000000000164407216000000000003897800000000006426533100000000000000009999123100000010000000000000BRCSANACNOR6124
012024032202ELMD3       010ELETROMIDIA ON      NM   R$  000000000167000000000017050000000001629000000000166700000000016800000000001655000000000168000247000000000000044800000000000074692200000000000000009999123100000010000000000000BRELMDACNOR3100
012024032202EMAE4       010EMAE        PN           R$  000000000705000000000072700000000006857000000000695800000000069800000000006980000000000699900045000000000000007300000000000050798800000000000000009999123100000010000000000000BREMAEACNPR1124
012024032202EMBR3       010EMBRAER     ON      NM   R$  000000000312000000000033650000000003116000000000328600000000033350000000003335000000000334044042000000000024204600000000079558822500000000000000009999123100000010000000000000BREMBRACNOR4191
012024032202IFCM3       010INFRACOMM   ON      NM   R$  000000000010100000000001020000000000098000000000009900000000000980000000000098000000000009906312000000000007987500000000000798090600000000000000009999123100000010000000000000BRIFCMACNOR8101
012024032202IGTI11      010IGUATEMI S.AUNT     N1   R$  000000000243500000000024390000000002364000000000242100000000023800000000002376000000000238108401000000000007367900000000017840565800000000000000009999123100000010000000000000BRIGTICDAM16105
012024032202IGTI3       010IGUATEMI S.AON      N1   R$  000000000032800000000003340000000000326000000000032900000000003290000000000326000000000032900076000000000000012200000000000004025400000000000000009999123100000010000000000000BRIGTIACNOR8105
012024032202IGTI4       010IGUATEMI S.APN      N1   R$  000000000105000000000010500000000001050000000000105000000000010500000000001000000000000105000001000000000000000200000000000000210000000000000000009999123100000010000000000000BRIGTIACNPR5105
012024032202INEP3       010INEPAR      ON           R$  000000000028800000000002960000000000278000000000028700000000002890000000000289000000000029100197000000000000064700000000000018581800000000000000009999123100000010000000000000BRINEPACNOR1143
012024032202INEP4       010INEPAR      PN           R$  000000000026400000000002670000000000257000000000026000000000002600000000000260000000000026100161000000000000040400000000000010525000000000000000009999123100000010000000000000BRINEPACNPR8143
012024032202INTB3       010INTELBRAS   ON      NM   R$  000000000213700000000021370000000002076000000000209600000000020960000000002095000000000209603176000000000000567700000000001189975100000000000000009999123100000010000000000000BRINTBACNOR9110
012024032202IRBR3       010IRBBRASIL REON      NM   R$  000000000397200000000039950000000003860000000000390600000000038710000000003870000000000387103616000000000000959500000000003748000900000000000000009999123100000010000000000000BRIRBRACNOR4111
012024032202MAPT3       010CEMEPE      ON           R$  000000000060100000000006010000000000601000000000060000000000006010000000000600000000000078700005000000000000000800000000000000480700000000000000009999123100000010000000000000BRMAPTACNOR8106
012024032202MAPT4       010CEMEPE      PN           R$  000000000053800000000005990000000000531000000000056300000000005310000000000522000000000054900019000000000000002200000000000001239200000000000000009999123100000010000000000000BRMAPTACNPR5106
012024032202MATD3       010MATER DEI   ON      NM   R$  000000000063600000000006430000000000615000000000062500000000006220000000000622000000000062700981000000000000275500000000000172336900000000000000009999123100000010000000000000BRMATDACNOR4103
012024032202MBLY3       010MOBLY       ON      NM   R$  000000000023300000000002420000000000230000000000023700000000002400000000000239000000000024002218000000000001538400000000000365809200000000000000009999123100000010000000000000BRMBLYACNOR5100
012024032202MDIA3       010M.DIASBRANCOON  EJ  NM   R$  000000000407100000000040760000000003923000000000397200000000039990000000003994000000000400304417000000000000883800000000003510962400000000000000009999123100000010000000000000BRMDIAACNOR7134
012024032202MDNE3       010MOURA DUBEUXON      NM   R$  000000000127300000000012840000000001240000000000125400000000012420000000001242000000000125501235000000000000280400000000000351863200000000000000009999123100000010000000000000BRMDNEACNOR9100
012024032202MEAL3       010IMC S/A     ON      NM   R$  000000000021900000000002250000000000214000000000021900000000002210000000000217000000000022100769000000000000704500000000000154798100000000000000009999123100000010000000000000BRMEALACNOR9105
012024032202MELK3       010MELNICK     ON      NM   R$  000000000048500000000004900000000000471000000000048100000000004840000000000480000000000048500707000000000000374200000000000180124300000000000000009999123100000010000000000000BRMELKACNOR8110
012024032202MGEL4       010MANGELS INDLPN           R$  000000000147900000000015990000000001479000000000156900000000015900000000001590000000000164000016000000000000003100000000000004865300000000000000009999123100000010000000000000BRMGELACNPR3147
012024032202MGLU3       010MAGAZ LUIZA ON      NM   R$  000000000019600000000001970000000000181000000000019000000000001920000000000192000000000019346034000000000213605000000000040599647300000000000000009999123100000010000000000000BRMGLUACNOR2123
012024032202BRSR3       010BANRISUL    ON  EJ  N1   R$  000000000138000000000013800000000001332000000000134600000000013500000000001349000000000135000068000000000000019800000000000026655600000000000000009999123100000010000000000000BRBRSRACNOR3186
012024032202BRSR6       010BANRISUL    PNB EJ  N1   R$  000000000139400000000014030000000001346000000000136500000000013670000000001366000000000136708100000000000001899400000000002593646900000000000000009999123100000010000000000000BRBRSRACNPB4189
012024032202BSLI3       010BRB BANCO   ON           R$  000000000112400000000011240000000001100000000000111700000000011000000000001100000000000115000011000000000000001300000000000001452300000000000000009999123100000010000000000000BRBSLIACNOR5192
012024032202BSLI4       010BRB BANCO   PN           R$  000000000111900000000011190000000001052000000000109400000000010520000000001050000000000111500006000000000000000600000000000000656700000000000000009999123100000010000000000000BRBSLIACNPR2192
012024032202PDGR3       010PDG REALT   ON      NM   R$  000000000002900000000000300000000000028000000000002900000000000290000000000028000000000002900269000000000000937200000000000027207700000000000000009999123100000010000000000000BRPDGRACNOR8118
012024032202PDTC3       010PADTEC      ON      NM   R$  000000000026700000000002680000000000260000000000026100000000002600000000000260000000000026300234000000000000101400000000000026533700000000000000009999123100000010000000000000BRPDTCACNOR3100
012024032202PEAB3       010PAR AL BAHIAON           R$  000000000379000000000037990000000003750000000000377900000000037500000000003000000000000380000003000000000000000300000000000001133900000000000000009999123100000010000000000000BRPEABACNOR3131
012024032202PETR3       010PETROBRAS   ON      N2   R$  000000000366000000000036960000000003618000000000366800000000036860000000003682000000000368817580000000000008901300000000032650268100000000000000009999123100000010000000000000BRPETRACNOR9202
012024032202PETR4       010PETROBRAS   PN      N2   R$  000000000359000000000036220000000003543000000000359000000000036050000000003605000000000360647519000000000034426800000000123610469900000000000000009999123100000010000000000000BRPETRACNPR6210
012024032202SMFT3       010SMART FIT   ON      NM   R$  000000000270200000000027080000000002616000000000264800000000026560000000002648000000000265605169000000000001578300000000004180471600000000000000009999123100000010000000000000BRSMFTACNOR1111
012024032202SMTO3       010SAO MARTINHOON      NM   R$  000000000288600000000028890000000002800000000000284300000000028400000000002838000000000284307223000000000002087600000000005937071400000000000000009999123100000010000000000000BRSMTOACNOR3125
012024032202SNSY3       010SANSUY      ON           R$  000000000106400000000011690000000001051000000000111200000000011200000000001110000000000115100059000000000000012500000000000013900900000000000000009999123100000010000000000000BRSNSYACNOR2113
012024032202SNSY5       010SANSUY      PNA          R$  000000000059600000000006800000000000596000000000064400000000006600000000000660000000000066900109000000000000034000000000000021906500000000000000009999123100000010000000000000BRSNSYACNPA5111
012024032202SOJA3       010BOA SAFRA   ON      NM   R$  000000000184100000000018670000000001815000000000183000000000018150000000001813000000000182102608000000000000383500000000000702054100000000000000009999123100000010000000000000BRSOJAACNOR9105
012024032202SOMA3       010GRUPO SOMA  ON      NM   R$  000000000073900000000007390000000000709000000000071900000000007180000000000715000000000071816991000000000011794600000000008487080000000000000000009999123100000010000000000000BRSOMAACNOR3102
012024032202PFRM3       010PROFARMA    ON      NM   R$  000000000053700000000005530000000000530000000000053800000000005360000000000535000000000053600656000000000000192800000000000103827400000000000000009999123100000010000000000000BRPFRMACNOR1116
012024032202PGMN3       010PAGUE MENOS ON      NM   R$  000000000028200000000002830000000000273000000000027500000000002740000000000274000000000027501913000000000001252500000000000345488500000000000000009999123100000010000000000000BRPGMNACNOR8103
012024032202PINE3       010PINE        ON      N2   R$  000000000068900000000007880000000000689000000000073400000000007020000000000680000000000073700020000000000000003600000000000002643500000000000000009999123100000010000000000000BRPINEACNOR1148
012024032202PINE4       010PINE        PN      N2   R$  000000000048100000000004850000000000472000000000047700000000004800000000000477000000000048000404000000000000230000000000000109716800000000000000009999123100000010000000000000BRPINEACNPR8148
012024032202PLAS3       010PLASCAR PARTON           R$  000000000090000000000009000000000000895000000000090100000000008950000000000895000000000092000003000000000000000300000000000000270500000000000000009999123100000010000000000000BRPLASACNOR2106
012024032202PLPL3       010PLANOEPLANO ON      NM   R$  000000000132400000000013250000000001235000000000127500000000012690000000001268000000000126902818000000000000674500000000000860608500000000000000009999123100000010000000000000BRPLPLACNOR5104
012024032202PNVL3       010DIMED       ON      NM   R$  000000000123100000000012380000000001210000000000122200000000012280000000001222000000000123000963000000000000169700000000000207538100000000000000009999123100000010000000000000BRPNVLACNOR9205
012024032202POMO3       010MARCOPOLO   ON      N2   R$  000000000061000000000006100000000000592000000000060200000000005970000000000597000000000059800829000000000000300900000000000181283100000000000000009999123100000010000000000000BRPOMOACNOR0097
012024032202COGN3       010COGNA ON    ON      NM   R$  000000000023800000000002480000000000233000000000024300000000002450000000000244000000000024529380000000000077923100000000018956028800000000000000009999123100000010000000000000BRCOGNACNOR2104
012024032202HAGA3       010HAGA S/A    ON           R$  000000000026400000000002660000000000263000000000026400000000002660000000000266000000000027700003000000000000000600000000000000158500000000000000009999123100000010000000000000BRHAGAACNOR7103
012024032202HAGA4       010HAGA S/A    PN           R$  000000000011600000000001220000000000116000000000011800000000001190000000000117000000000012000035000000000000021500000000000002544400000000000000009999123100000010000000000000BRHAGAACNPR4103
012024032202HAPV3       010HAPVIDA     ON      NM   R$  000000000038800000000003930000000000384000000000038800000000003880000000000388000000000038913692000000000017165500000000006662418300000000000000009999123100000010000000000000BRHAPVACNOR4113
012024032202HBOR3       010HELBOR      ON      NM   R$  000000000029400000000002970000000000285000000000028900000000002870000000000286000000000028700754000000000000356800000000000103197100000000000000009999123100000010000000000000BRHBORACNOR3117
012024032202HBRE3       010HBR REALTY  ON      NM   R$  000000000067500000000006870000000000658000000000067300000000006870000000000687000000000068801743000000000000903100000000000608346100000000000000009999123100000010000000000000BRHBREACNOR4100
012024032202HBSA3       010HIDROVIAS   ON      NM   R$  000000000036100000000003640000000000355000000000035800000000003560000000000356000000000035703775000000000002531900000000000908422700000000000000009999123100000010000000000000BRHBSAACNOR0100
012024032202HBTS5       010HABITASUL   PNA          R$  000000000380000000000038000000000003800000000000380000000000038000000000003800000000000417000001000000000000000100000000000000380000000000000000009999123100000010000000000000BRHBTSACNPA3127
012024032202HETA4       010HERCULES    PN           R$  000000000063000000000006300000000000630000000000063000000000006300000000000601000000000064900001000000000000000100000000000000063000000000000000009999123100000010000000000000BRHETAACNPR9136
012024032202KRSA3       010KORA SAUDE  ON      NM   R$  000000000008700000000000880000000000086000000000008600000000000870000000000086000000000008700128000000000000097200000000000008424100000000000000009999123100000010000000000000BRKRSAACNOR0100
012024032202LAND3       010TERRASANTAPAON      NM   R$  000000000164300000000016470000000001605000000000162000000000016120000000001608000000000162000131000000000000029200000000000047312900000000000000009999123100000010000000000000BRLANDACNOR9102
012024032202LAVV3       010LAVVI       ON  ED  NM   R$  000000000094300000000009440000000000926000000000093200000000009260000000000925000000000093303210000000000000583300000000000544034100000000000000009999123100000010000000000000BRLAVVACNOR4111
012024032202LEVE3       010METAL LEVE  ON      NM   R$  000000000335600000000033880000000003320000000000333800000000033300000000003330000000000334501190000000000000238400000000000795934700000000000000009999123100000010000000000000BRLEVEACNOR2196
012024032202LJQQ3       010QUERO-QUERO ON      NM   R$  000000000061900000000006190000000000603000000000061100000000006160000000000615000000000061803536000000000001399800000000000855794700000000000000009999123100000010000000000000BRLJQQACNOR5104
012024032202MYPK3       010IOCHP-MAXIONON      NM   R$  000000000141200000000014260000000001386000000000139800000000014040000000001400000000000140402869000000000000895100000000001251575800000000000000009999123100000010000000000000BRMYPKACNOR7154
012024032202BBSE3       010BBSEGURIDADEON      NM   R$  000000000320900000000032550000000003201000000000323500000000032340000000003233000000000323410928000000000003203400000000010366040900000000000000009999123100000010000000000000BRBBSEACNOR5124
012024032202BPAC11      010BTGP BANCO  UNT     N2   R$  000000000369400000000037130000000003669000000000368700000000036690000000003668000000000367015658000000000004788400000000017656190900000000000000009999123100000010000000000000BRBPACUNT006118
012024032202BPAC3       010BTGP BANCO  ON      N2   R$  000000000183500000000018700000000001817000000000183000000000018700000000001845000000000188900028000000000000007200000000000013177500000000000000009999123100000010000000000000BRBPACACNOR7133
012024032202BPAC5       010BTGP BANCO  PNA     N2   R$  000000000092300000000009230000000000915000000000091900000000009200000000000920000000000092800017000000000000002600000000000002391500000000000000009999123100000010000000000000BRBPACACNPA0133
012024032202CPFE3       010CPFL ENERGIAON      NM   R$  000000000350600000000035060000000003425000000000345300000000034670000000003463000000000346707943000000000001942300000000006707754400000000000000009999123100000010000000000000BRCPFEACNOR0136
012024032202JALL3       010JALLESMACHADON      NM   R$  000000000077500000000007750000000000755000000000076200000000007640000000000764000000000076501536000000000000455400000000000347346000000000000000009999123100000010000000000000BRJALLACNOR0105
012024032202JBSS3       010JBS         ON      NM   R$  000000000231400000000023350000000002277000000000230300000000023050000000002304000000000230609113000000000004349500000000010020546000000000000000009999123100000010000000000000BRJBSSACNOR8121
012024032202MLAS3       010MULTILASER  ON      NM   R$  000000000022000000000002200000000000213000000000021500000000002170000000000216000000000021701550000000000000959900000000000206767200000000000000009999123100000010000000000000BRMLASACNOR9101
012024032202MOVI3       010MOVIDA      ON      NM   R$  000000000090300000000009030000000000846000000000086100000000008560000000000856000000000085807953000000000004537000000000003910715800000000000000009999123100000010000000000000BRMOVIACNOR0122
012024032202MRFG3       010MARFRIG     ON      NM   R$  000000000102600000000010290000000000962000000000097700000000009620000000000962000000000096417917000000000009759800000000009540373600000000000000009999123100000010000000000000BRMRFGACNOR0116
012024032202CXSE3       010CAIXA SEGURION      NM   R$  000000000166700000000016700000000001616000000000163200000000016180000000001618000000000162109141000000000003362100000000005489462100000000000000009999123100000010000000000000BRCXSEACNOR7105
012024032202CYRE3       010CYRELA REALTON      NM   R$  000000000245100000000024720000000002407000000000242600000000024220000000002421000000000242507852000000000002935100000000007120712400000000000000009999123100000010000000000000BRCYREACNOR7139
012024032202DASA3       010DASA        ON      NM   R$  000000000076800000000007680000000000723000000000073700000000007230000000000722000000000072401854000000000000312500000000000230319800000000000000009999123100000010000000000000BRDASAACNOR1122
012024032202CEDO3       010CEDRO       ON      N1   R$  000000000325000000000032500000000003250000000000325000000000032500000000003000000000000000000005000000000000001300000000000004225000000000000000009999123100000010000000000000BRCEDOACNOR8096
012024032202CEDO4       010CEDRO       PN      N1   R$  000000000284200000000030160000000002842000000000295900000000029580000000002958000000000299900037000000000000023600000000000069851800000000000000009999123100000010000000000000BRCEDOACNPR5128
012024032202DEXP3       010DEXXOS PAR  ON      N1   R$  000000000124700000000012930000000001246000000000126500000000012810000000001265000000000128100229000000000000036600000000000046303700000000000000009999123100000010000000000000BRDEXPACNOR1104
012024032202DEXP4       010DEXXOS PAR  PN      N1   R$  000000000121000000000012100000000001208000000000120900000000012080000000001215000000000127400003000000000000003000000000000003628200000000000000009999123100000010000000000000BRDEXPACNPR8104
012024032202DIRR3       010DIRECIONAL  ON      NM   R$  000000000249400000000025320000000002476000000000250100000000024950000000002494000000000249606711000000000001375700000000003440646500000000000000009999123100000010000000000000BRDIRRACNOR0117
012024032202DMVF3       010D1000VFARMA ON      NM   R$  000000000068600000000007040000000000675000000000069200000000007040000000000684000000000070400411000000000000120800000000000083631000000000000000009999123100000010000000000000BRDMVFACNOR9100
012024032202DOHL3       010DOHLER      ON           R$  000000000065000000000006500000000000650000000000065000000000006500000000000649000000000090000001000000000000000100000000000000065000000000000000009999123100000010000000000000BRDOHLACNOR2063
012024032202DOTZ3       010DOTZ SA     ON      NM   R$  000000000060000000000006080000000000600000000000060300000000006060000000000601000000000060600023000000000000006300000000000003799100000000000000009999123100000010000000000000BRDOTZACNOR7101
012024032202FLRY3       010FLEURY      ON  ED  NM   R$  000000000151500000000015250000000001494000000000150200000000014980000000001497000000000149804865000000000002700100000000004056334600000000000000009999123100000010000000000000BRFLRYACNOR5138
012024032202FRAS3       010FRAS-LE     ON      N1   R$  000000000180900000000018110000000001787000000000179900000000018020000000001802000000000180701593000000000000194500000000000350093100000000000000009999123100000010000000000000BRFRASACNOR0158
012024032202GEPA4       010GER PARANAP PN           R$  000000000262000000000026200000000002620000000000262000000000026200000000002621000000000264900001000000000000000100000000000000262000000000000000009999123100000010000000000000BRGEPAACNPR9159
012024032202GFSA3       010GAFISA      ON  ES  NM   R$  000000000072400000000007380000000000687000000000070700000000007000000000000699000000000070004093000000000002835300000000002006181500000000000000009999123100000010000000000000BRGFSAACNOR3124
012024032202MILS3       010MILLS       ON      NM   R$  000000000131900000000013230000000001296000000000130500000000013060000000001300000000000130603360000000000000628300000000000820274500000000000000009999123100000010000000000000BRMILSACNOR2124
012024032202BGIP4       010BANESE      PN  ES       R$  000000000233000000000023300000000002310000000000231300000000023290000000002302000000000232000004000000000000001200000000000002775900000000000000009999123100000010000000000000BRBGIPACNPR8208
012024032202BHIA3       010CASAS BAHIA ON      NM   R$  000000000077600000000007830000000000680000000000070600000000006800000000000679000000000068010714000000000011380000000000008044418300000000000000009999123100000010000000000000BRBHIAACNOR1101
012024032202BRFS3       010BRF SA      ON      NM   R$  000000000166200000000016760000000001613000000000163200000000016300000000001630000000000164314476000000000007185000000000011727945000000000000000009999123100000010000000000000BRBRFSACNOR8121
012024032202BRIT3       010BRISANET    ON      NM   R$  000000000041400000000004260000000000407000000000041700000000004200000000000413000000000042002920000000000001064300000000000444081500000000000000009999123100000010000000000000BRBRITACNOR0102
012024032202BRIV4       010ALFA INVEST PN           R$  000000000123300000000012710000000001233000000000124800000000012520000000001252000000000127900003000000000000001800000000000002247900000000000000009999123100000010000000000000BRBRIVACNPR3218
012024032202BRKM3       010BRASKEM     ON      N1   R$  000000000259900000000027200000000002579000000000263900000000026530000000002632000000000267000299000000000000045700000000000120605000000000000000009999123100000010000000000000BRBRKMACNOR1119
012024032202BRKM5       010BRASKEM     PNA     N1   R$  000000000268000000000027530000000002625000000000269000000000027300000000002728000000000273020258000000000008431300000000022686828700000000000000009999123100000010000000000000BRBRKMACNPA4121
012024032202CSRN3       010COSERN      ON           R$  000000000235500000000024720000000002340000000000238500000000024000000000002380000000000247100017000000000000001900000000000004532800000000000000009999123100000010000000000000BRCSRNACNOR0190
012024032202CSUD3       010CSU DIGITAL ON      NM   R$  000000000207500000000021400000000002061000000000210900000000021330000000002128000000000213300309000000000000074700000000000157581200000000000000009999123100000010000000000000BRCSUDACNOR5107
012024032202CTKA3       010KARSTEN     ON           R$  000000000170000000000017000000000001700000000000170000000000017000000000001300000000000209000001000000000000000100000000000000170000000000000000009999123100000010000000000000BRCTKAACNOR0043
012024032202CTNM3       010COTEMINAS   ON           R$  000000000077900000000008260000000000779000000000080200000000008260000000000779000000000082700002000000000000000200000000000000160500000000000000009999123100000010000000000000BRCTNMACNOR9130
012024032202CTNM4       010COTEMINAS   PN           R$  000000000012400000000001260000000000123000000000012400000000001250000000000124000000000012500020000000000000006300000000000000785700000000000000009999123100000010000000000000BRCTNMACNPR6129
012024032202CTSA3       010SANTANENSE  ON           R$  000000000030200000000003140000000000302000000000030900000000003050000000000303000000000030500013000000000000002000000000000000618300000000000000009999123100000010000000000000BRCTSAACNOR3062
012024032202CTSA4       010SANTANENSE  PN           R$  000000000016800000000001730000000000167000000000017000000000001670000000000166000000000016900130000000000000034900000000000005941300000000000000009999123100000010000000000000BRCTSAACNPR0062
012024032202CURY3       010CURY S/A    ON      NM   R$  000000000205400000000020620000000002009000000000203000000000020340000000002032000000000204305409000000000001048600000000002129444100000000000000009999123100000010000000000000BRCURYACNOR3107
012024032202NEOE3       010NEOENERGIA  ON      NM   R$  000000000208000000000020800000000002039000000000205700000000020630000000002061000000000206304581000000000000981500000000002019469300000000000000009999123100000010000000000000BRNEOEACNOR3121
012024032202NGRD3       010NEOGRID     ON      NM   R$  000000000011100000000001110000000000107000000000010800000000001090000000000108000000000010900326000000000000205900000000000022324000000000000000009999123100000010000000000000BRNGRDACNOR3103
012024032202NINJ3       010GETNINJAS   ON      NM   R$  000000000050900000000005130000000000508000000000050800000000005090000000000508000000000050900015000000000000005600000000000002847500000000000000009999123100000010000000000000BRNINJACNOR5101
012024032202CVCB3       010CVC BRASIL  ON      NM   R$  000000000033900000000003390000000000321000000000032900000000003260000000000325000000000032609583000000000016507200000000005432516900000000000000009999123100000010000000000000BRCVCBACNOR1115
012024032202ESPA3       010ESPACOLASER ON      NM   R$  000000000010800000000001090000000000100000000000010300000000001000000000000100000000000010101172000000000001145100000000000118080700000000000000009999123100000010000000000000BRESPAACNOR7103
012024032202ESTR4       010ESTRELA     PN           R$  000000000020700000000002070000000000193000000000019800000000001940000000000194000000000020200003000000000000000300000000000000059400000000000000009999123100000010000000000000BRESTRACNPR0144
012024032202EUCA3       010EUCATEX     ON      N1   R$  000000000170000000000017000000000001651000000000168300000000016650000000001665000000000170700009000000000000001300000000000002189000000000000000009999123100000010000000000000BREUCAACNOR1157
012024032202EUCA4       010EUCATEX     PN      N1   R$  000000000171100000000017230000000001658000000000169000000000016960000000001673000000000169700526000000000000128000000000000216347600000000000000009999123100000010000000000000BREUCAACNPR8044
012024032202NORD3       010NORDON MET  ON           R$  000000000097400000000009740000000000974000000000097400000000009740000000000922000000000097500001000000000000000100000000000000097400000000000000009999123100000010000000000000BRNORDACNOR7135
012024032202NTCO3       010GRUPO NATURAON  ED  NM   R$  000000000182500000000018420000000001767000000000179300000000017820000000001781000000000178516483000000000017443700000000031280136400000000000000009999123100000010000000000000BRNTCOACNOR5105
012024032202ALPK3       010ESTAPAR     ON      NM   R$  000000000045900000000004700000000000455000000000046400000000004690000000000465000000000046900463000000000000141500000000000065722000000000000000009999123100000010000000000000BRALPKACNOR9101
012024032202ALUP11      010ALUPAR      UNT     N2   R$  000000000316000000000031600000000003078000000000310000000000030990000000003091000000000310002049000000000002970800000000009209581100000000000000009999123100000010000000000000BRALUPCDAM15117
012024032202ALUP3       010ALUPAR      ON      N2   R$  000000000106900000000010690000000001031000000000105100000000010420000000001044000000000106300152000000000000023500000000000024715000000000000000009999123100000010000000000000BRALUPACNOR8117
012024032202ALUP4       010ALUPAR      PN      N2   R$  000000000104400000000010460000000001023000000000103200000000010270000000001027000000000103200124000000000000022600000000000023337600000000000000009999123100000010000000000000BRALUPACNPR5117
012024032202AMAR3       010LOJAS MARISAON      NM   R$  000000000019200000000001930000000000177000000000018000000000001780000000000178000000000017900957000000000001145500000000000206824200000000000000009999123100000010000000000000BRAMARACNOR4114
012024032202AMBP3       010AMBIPAR     ON      NM   R$  000000000155500000000015580000000001530000000000154300000000015480000000001547000000000154901142000000000000269100000000000415419300000000000000009999123100000010000000000000BRAMBPACNOR6103
012024032202EVEN3       010EVEN        ON      NM   R$  000000000084300000000008430000000000787000000000081500000000008270000000000827000000000083304730000000000001750200000000001428024900000000000000009999123100000010000000000000BREVENACNOR8118
012024032202EZTC3       010EZTEC       ON  ED  NM   R$  000000000167500000000016890000000001629000000000164300000000016380000000001636000000000164706756000000000002218400000000003646749300000000000000009999123100000010000000000000BREZTCACNOR0124
012024032202ENEV3       010ENEVA       ON      NM   R$  000000000127100000000012780000000001261000000000127200000000012750000000001273000000000127507032000000000004639300000000005903884900000000000000009999123100000010000000000000BRENEVACNOR8105
012024032202ENGI11      010ENERGISA    UNT     N2   R$  000000000484000000000048780000000004810000000000484400000000048370000000004831000000000483705485000000000001276500000000006183959000000000000000009999123100000010000000000000BRENGICDAM16135
012024032202ENGI3       010ENERGISA    ON      N2   R$  000000000152000000000015240000000001520000000000152200000000015230000000001522000000000153400013000000000000001700000000000002588100000000000000009999123100000010000000000000BRENGIACNOR0145
012024032202ENGI4       010ENERGISA    PN      N2   R$  000000000084100000000008440000000000818000000000083000000000008230000000000823000000000083100033000000000000005100000000000004235900000000000000009999123100000010000000000000BRENGIACNPR7141
012024032202ENJU3       010ENJOEI      ON      NM   R$  000000000016400000000001640000000000160000000000016200000000001640000000000163000000000016400062000000000000070300000000000011450900000000000000009999123100000010000000000000BRENJUACNOR9100
012024032202EPAR3       010EMBPAR S/A  ON           R$  000000000082300000000008430000000000820000000000083200000000008390000000000827000000000083600040000000000000018900000000000015733600000000000000009999123100000010000000000000BREPARACNOR9104
012024032202EQMA3B      010EQTLMARANHAOON      MB   R$  000000000291100000000029110000000002911000000000291100000000029110000000002910000000000300000002000000000000000200000000000000582200000000000000009999123100000010000000000000BREQMAACNOR8107
012024032202EQPA3       010EQTL PARA   ON           R$  000000000082500000000008250000000000812000000000082300000000008250000000000813000000000082500026000000000000014300000000000011780200000000000000009999123100000010000000000000BREQPAACNOR1110
012024032202EQTL3       010EQUATORIAL  ON      NM   R$  000000000338500000000034090000000003331000000000336500000000033420000000003342000000000335111388000000000006031600000000020298228900000000000000009999123100000010000000000000BREQTLACNOR0129
012024032202ANIM3       010ANIMA       ON      NM   R$  000000000048700000000004960000000000479000000000048500000000004850000000000483000000000048508491000000000004017700000000001952029600000000000000009999123100000010000000000000BRANIMACNOR6107
012024032202APER3       010ALPER S.A.  ON           R$  000000000410000000000041000000000004100000000000410000000000041000000000004003000000000418700001000000000000001600000000000006560000000000000000009999123100000010000000000000BRAPERACNOR9106
012024032202ARML3       010ARMAC       ON      NM   R$  000000000135500000000013710000000001316000000000133900000000013400000000001334000000000134002057000000000000315700000000000422758000000000000000009999123100000010000000000000BRARMLACNOR1110
012024032202ARZZ3       010AREZZO CO   ON      NM   R$  000000000624600000000062640000000006035000000000610600000000060640000000006055000000000606708757000000000001737400000000010610075400000000000000009999123100000010000000000000BRARZZACNOR3146
012024032202CGAS5       010COMGAS      PNA          R$  000000001120900000000112090000000011200000000001120700000000112000000000011200000000001143900004000000000000000600000000000006724500000000000000009999123100000010000000000000BRCGASACNPA3159
012024032202CGRA3       010GRAZZIOTIN  ON           R$  000000000266000000000026610000000002660000000000266000000000026600000000002640000000000277900003000000000000000700000000000001862100000000000000009999123100000010000000000000BRCGRAACNOR2081
012024032202FESA3       010FERBASA     ON      N1   R$  000000000157500000000015750000000001575000000000157500000000015750000000001443000000000159700001000000000000000100000000000000157500000000000000009999123100000010000000000000BRFESAACNOR8187
012024032202FESA4       010FERBASA     PN      N1   R$  000000000089300000000008930000000000868000000000087400000000008700000000000870000000000087101450000000000000401300000000000350973600000000000000009999123100000010000000000000BRFESAACNPR5083
012024032202FHER3       010FER HERINGERON      NM   R$  000000000057400000000005960000000000574000000000058700000000005820000000000578000000000058700034000000000000005900000000000003466800000000000000009999123100000010000000000000BRFHERACNOR5103
012024032202ITUB3       010ITAUUNIBANCOON  EJ  N1   R$  000000000295500000000029550000000002899000000000291100000000029090000000002903000000000290901160000000000000384700000000001120172900000000000000009999123100000010000000000000BRITUBACNOR4333
012024032202ITUB4       010ITAUUNIBANCOPN  EJ  N1   R$  000000000341000000000034200000000003361000000000337400000000033720000000003369000000000337328252000000000011601800000000039149658800000000000000009999123100000010000000000000BRITUBACNPR1333
012024032202CGRA4       010GRAZZIOTIN  PN           R$  000000000283000000000028300000000002798000000000281100000000028000000000002755000000000283200020000000000000002700000000000007592200000000000000009999123100000010000000000000BRCGRAACNPR9081
012024032202CIEL3       010CIELO       ON  EJ  NM   R$  000000000051100000000005150000000000509000000000051200000000005130000000000512000000000051407605000000000009381300000000004811191300000000000000009999123100000010000000000000BRCIELACNOR3157
012024032202CLSA3       010CLEARSALE   ON      NM   R$  000000000045100000000004910000000000445000000000047300000000004870000000000481000000000048703268000000000001162800000000000550594500000000000000009999123100000010000000000000BRCLSAACNOR0100
012024032202CLSC3       010CELESC      ON      N2   R$  000000000660000000000066000000000006600000000000660000000000066000000000006309000000000695000002000000000000000200000000000001320000000000000000009999123100000010000000000000BRCLSCACNOR6149
012024032202CLSC4       010CELESC      PN      N2   R$  000000000675000000000068000000000006750000000000679200000000067760000000006777000000000679900012000000000000001700000000000011546800000000000000009999123100000010000000000000BRCLSCACNPR3128
012024032202CMIG3       010CEMIG       ON      N1   R$  000000000138500000000014180000000001367000000000139800000000014180000000001407000000000141801413000000000000473800000000000662762600000000000000009999123100000010000000000000BRCMIGACNOR6239
012024032202CMIG4       010CEMIG       PN      N1   R$  000000000121800000000012370000000001202000000000122000000000012350000000001232000000000123520339000000000013395900000000016353904900000000000000009999123100000010000000000000BRCMIGACNPR3240
012024032202GGPS3       010GPS         ON      NM   R$  000000000195500000000019880000000001921000000000195400000000019260000000001924000000000192912329000000000004383300000000008566281600000000000000009999123100000010000000000000BRGGPSACNOR9102
012024032202GMAT3       010GRUPO MATEUSON      NM   R$  000000000083800000000008380000000000812000000000081800000000008150000000000814000000000081808770000000000005078300000000004158917100000000000000009999123100000010000000000000BRGMATACNOR7100
012024032202GOAU3       010GERDAU MET  ON      N1   R$  000000000105800000000010580000000001030000000000104100000000010310000000001030000000000104100236000000000000048700000000000050732500000000000000009999123100000010000000000000BRGOAUACNOR1266
012024032202GOAU4       010GERDAU MET  PN      N1   R$  000000000102200000000010220000000001002000000000100700000000010070000000001006000000000100705294000000000003816100000000003843724600000000000000009999123100000010000000000000BRGOAUACNPR8267
012024032202GRND3       010GRENDENE    ON      NM   R$  000000000064100000000006460000000000636000000000063800000000006360000000000636000000000064003641000000000001389500000000000887834100000000000000009999123100000010000000000000BRGRNDACNOR3172
012024032202GUAR3       010GUARARAPES  ON      NM   R$  000000000079800000000007980000000000764000000000077500000000007740000000000770000000000077403807000000000001942900000000001506920400000000000000009999123100000010000000000000BRGUARACNOR4172
012024032202JHSF3       010JHSF PART   ON      NM   R$  000000000042700000000004290000000000422000000000042400000000004220000000000422000000000042305463000000000001754800000000000744748300000000000000009999123100000010000000000000BRJHSFACNOR2133
012024032202JSLG3       010JSL         ON      NM   R$  000000000129700000000012970000000001225000000000123900000000012250000000001225000000000122901128000000000000293700000000000364113400000000000000009999123100000010000000000000BRJSLGACNOR2121
012024032202KEPL3       010KEPLER WEBERON      NM   R$  000000000105600000000010650000000001048000000000105500000000010550000000001054000000000105703895000000000001366900000000001443175800000000000000009999123100000010000000000000BRKEPLACNOR1061
012024032202CALI3       010CONST A LINDON           R$  000000000229800000000022980000000002298000000000229800000000022980000000002298000000000300000003000000000000000400000000000000919200000000000000009999123100000010000000000000BRCALIACNOR1136
012024032202CAMB3       010CAMBUCI     ON           R$  000000000109000000000011200000000001084000000000110400000000011190000000001106000000000111900153000000000000038300000000000042302300000000000000009999123100000010000000000000BRCAMBACNOR4127
012024032202CAML3       010CAMIL       ON      NM   R$  000000000088600000000008870000000000864000000000087200000000008740000000000870000000000087401438000000000000316200000000000275967300000000000000009999123100000010000000000000BRCAMLACNOR3127
012024032202CASH3       010MELIUZ      ON      NM   R$  000000000078200000000007820000000000762000000000076800000000007670000000000766000000000076704047000000000001226800000000000942461700000000000000009999123100000010000000000000BRCASHACNOR8105
012024032202CBAV3       010CBA         ON      NM   R$  000000000041800000000004180000000000408000000000041100000000004100000000000409000000000041002320000000000001672600000000000688045900000000000000009999123100000010000000000000BRCBAVACNOR5104
012024032202CCRO3       010CCR SA      ON      NM   R$  000000000142600000000014270000000001400000000000140900000000014050000000001404000000000140611926000000000006095600000000008589432400000000000000009999123100000010000000000000BRCCROACNOR2144
012024032202CEAB3       010CEA MODAS   ON  ATZ NM   R$  000000000097500000000009750000000000916000000000093900000000009200000000000920000000000092203573000000000002357200000000002213689800000000000000009999123100000010000000000000BRCEABACNOR1102
012024032202CEBR3       010CEB         ON           R$  000000000191500000000019690000000001915000000000194600000000019600000000001930000000000196800023000000000000002700000000000005254400000000000000009999123100000010000000000000BRCEBRACNOR5124
012024032202CEBR5       010CEB         PNA          R$  000000000187600000000018760000000001869000000000187000000000018700000000001846000000000187000006000000000000001700000000000003180200000000000000009999123100000010000000000000BRCEBRACNPA8123
012024032202CEBR6       010CEB         PNB          R$  000000000200900000000020410000000001963000000000200300000000020300000000002001000000000203900025000000000000003800000000000007614900000000000000009999123100000010000000000000BRCEBRACNPB6123
012024032202BAHI3       010BAHEMA      ON      MA   R$  000000000082400000000008240000000000824000000000082400000000008240000000000824000000000084800003000000000000000300000000000000247200000000000000009999123100000010000000000000BRBAHIACNOR1074
012024032202BAZA3       010AMAZONIA    ON           R$  000000000984700000000099040000000009800000000000987900000000098510000000009850000000000994800026000000000000003800000000000037543800000000000000009999123100000010000000000000BRBAZAACNOR0178
012024032202BBAS3       010BRASIL      ON      NM   R$  000000000556700000000055980000000005525000000000554400000000055410000000005540000000000554217285000000000006568000000000036417512300000000000000009999123100000010000000000000BRBBASACNOR3321
012024032202BEEF3       010MINERVA     ON      NM   R$  000000000071600000000007180000000000707000000000071000000000007100000000000710000000000071107766000000000007591700000000005397159600000000000000009999123100000010000000000000BRBEEFACNOR6116
012024032202BEES3       010BANESTES    ON           R$  000000000088600000000008860000000000860000000000087700000000008790000000000870000000000088600069000000000000010600000000000009305600000000000000009999123100000010000000000000BRBEESACNOR9388
012024032202BEES4       010BANESTES    PN           R$  000000000097000000000009750000000000960000000000096800000000009600000000000961000000000097200037000000000000006400000000000006197200000000000000009999123100000010000000000000BRBEESACNPR6313
012024032202BPAN4       010BANCO PAN   PN      N1   R$  000000000094100000000009430000000000929000000000093700000000009380000000000938000000000093901770000000000003071600000000002880901100000000000000009999123100000010000000000000BRBPANACNPR1115
012024032202BRAP3       010BRADESPAR   ON      N1   R$  000000000198100000000019810000000001948000000000195800000000019500000000001948000000000195000374000000000000081800000000000160230000000000000000009999123100000010000000000000BRBRAPACNOR5147
012024032202BRAP4       010BRADESPAR   PN      N1   R$  000000000204800000000020550000000002026000000000203300000000020300000000002028000000000203005936000000000002425500000000004933298700000000000000009999123100000010000000000000BRBRAPACNPR2147
012024032202BRBI11      010BR PARTNERS UNT     N2   R$  000000000165000000000016500000000001582000000000160100000000015900000000001590000000000159301074000000000000188500000000000301975500000000000000009999123100000010000000000000BRBRBICDAM10107
012024032202CSED3       010CRUZEIRO EDUON      NM   R$  000000000046800000000004690000000000455000000000046500000000004690000000000467000000000046901302000000000000308000000000000143351600000000000000009999123100000010000000000000BRCSEDACNOR9104
012024032202CSMG3       010COPASA      ON      NM   R$  000000000210100000000021670000000002071000000000211400000000021250000000002125000000000212608654000000000003430100000000007253571700000000000000009999123100000010000000000000BRCSMGACNOR5171
012024032202CSNA3       010SID NACIONALON           R$  000000000161400000000016200000000001582000000000159100000000015870000000001587000000000158808339000000000003397700000000005408956500000000000000009999123100000010000000000000BRCSNAACNOR6260
012024032202ENAT3       010ENAUTA PART ON      NM   R$  000000000290000000000029280000000002678000000000276500000000027030000000002689000000000270415433000000000005356700000000014811805700000000000000009999123100000010000000000000BRENATACNOR0104
012024032202POMO4       010MARCOPOLO   PN      N2   R$  000000000077600000000007910000000000760000000000077400000000007760000000000775000000000077607427000000000006318100000000004894245000000000000000009999123100000010000000000000BRPOMOACNPR7097
012024032202PORT3       010WILSON SONS ON      NM   R$  000000000181000000000018100000000001768000000000178100000000017850000000001785000000000179500927000000000000368700000000000657013900000000000000009999123100000010000000000000BRPORTACNOR8106
012024032202POSI3       010POSITIVO TECON      NM   R$  000000000086400000000008990000000000860000000000088100000000008800000000000878000000000088103308000000000001413500000000001246084900000000000000009999123100000010000000000000BRPOSIACNOR9115
012024032202SCAR3       010SAO CARLOS  ON      NM   R$  000000000261600000000026400000000002601000000000262200000000026400000000002566000000000266000023000000000000004300000000000011278800000000000000009999123100000010000000000000BRSCARACNOR7130
012024032202SEER3       010SER EDUCA   ON      NM   R$  000000000063800000000006450000000000629000000000063500000000006310000000000631000000000063701139000000000000444600000000000282646700000000000000009999123100000010000000000000BRSEERACNOR5119
012024032202SEQL3       010SEQUOIA LOG ON      NM   R$  000000000004000000000000410000000000038000000000003900000000000400000000000039000000000004001145000000000008464400000000000333723200000000000000009999123100000010000000000000BRSEQLACNOR2101
012024032202SGPS3       010SPRINGS     ON      NM   R$  000000000008700000000000880000000000082000000000008400000000000840000000000083000000000008400121000000000000202100000000000017068600000000000000009999123100000010000000000000BRSGPSACNOR4104
012024032202SHOW3       010TIME FOR FUNON      NM   R$  000000000026000000000002790000000000251000000000026500000000002650000000000264000000000026500682000000000000659100000000000174928600000000000000009999123100000010000000000000BRSHOWACNOR7105
012024032202SHUL4       010SCHULZ      PN           R$  000000000070200000000007030000000000687000000000069300000000006900000000000689000000000069101281000000000000412500000000000285936800000000000000009999123100000010000000000000BRSHULACNPR4154
012024032202SIMH3       010SIMPAR      ON      NM   R$  000000000080000000000008030000000000770000000000078600000000007780000000000774000000000077905053000000000002392100000000001880904900000000000000009999123100000010000000000000BRSIMHACNOR0107
012024032202SLCE3       010SLC AGRICOLAON      NM   R$  000000000196500000000019780000000001954000000000196600000000019740000000001969000000000197409566000000000002545700000000005005858100000000000000009999123100000010000000000000BRSLCEACNOR2124
012024032202PETZ3       010PETZ        ON      NM   R$  000000000048200000000004970000000000473000000000048300000000004940000000000492000000000049409698000000000011197300000000005417900800000000000000009999123100000010000000000000BRPETZACNOR2109
012024032202DESK3       010DESKTOP     ON      NM   R$  000000000146600000000015750000000001445000000000153200000000015750000000001562000000000157501493000000000000864700000000001325465000000000000000009999123100000010000000000000BRDESKACNOR2103
012024032202FIQE3       010UNIFIQUE    ON      NM   R$  000000000041600000000004170000000000406000000000041000000000004150000000000411000000000041501043000000000000250800000000000103038700000000000000009999123100000010000000000000BRFIQEACNOR5106
012024032202SANB11      010SANTANDER BRUNT          R$  000000000282600000000028260000000002800000000000280500000000028010000000002801000000000280209725000000000002348200000000006588012600000000000000009999123100000010000000000000BRSANBCDAM13163
012024032202SANB3       010SANTANDER BRON           R$  000000000132500000000013280000000001317000000000132000000000013240000000001320000000000132400482000000000000086900000000000114712400000000000000009999123100000010000000000000BRSANBACNOR8170
012024032202SANB4       010SANTANDER BRPN           R$  000000000150000000000015020000000001485000000000149000000000014900000000001488000000000149100600000000000000110700000000000164959800000000000000009999123100000010000000000000BRSANBACNPR5170
012024032202SAPR11      010SANEPAR     UNT     N2   R$  000000000261500000000026280000000002578000000000260500000000025950000000002595000000000260602371000000000000615300000000001602904600000000000000009999123100000010000000000000BRSAPRCDAM13117
012024032202SAPR3       010SANEPAR     ON      N2   R$  000000000050500000000005060000000000499000000000050200000000005030000000000501000000000050300345000000000000145900000000000073322700000000000000009999123100000010000000000000BRSAPRACNOR9158
012024032202SAPR4       010SANEPAR     PN      N2   R$  000000000053000000000005300000000000519000000000052300000000005230000000000523000000000052601925000000000001098400000000000575091900000000000000009999123100000010000000000000BRSAPRACNPR6158
012024032202SBFG3       010GRUPO SBF   ON      NM   R$  000000000131700000000013580000000001296000000000131400000000013030000000001302000000000130307521000000000002208100000000002901917500000000000000009999123100000010000000000000BRSBFGACNOR1102
012024032202SBSP3       010SABESP      ON      NM   R$  000000000810000000000082990000000007946000000000808700000000080300000000008019000000000803022257000000000005533800000000044754036000000000000000009999123100000010000000000000BRSBSPACNOR5160
012024032202ROMI3       010ROMI        ON      NM   R$  000000000130800000000013180000000001298000000000130800000000013000000000001300000000000130500770000000000000144400000000000188999400000000000000009999123100000010000000000000BRROMIACNOR8192
012024032202RRRP3       0103R PETROLEUMON      NM   R$  000000000304200000000030540000000002981000000000301900000000030250000000003025000000000302708427000000000003853000000000011633743000000000000000009999123100000010000000000000BRRRRPACNOR5102
012024032202RSUL4       010RIOSULENSE  PN           R$  000000000804900000000080490000000007800000000000786300000000078000000000007799000000000780000010000000000000001200000000000009435900000000000000009999123100000010000000000000BRRSULACNPR3113
012024032202VALE3       010VALE        ON      NM   R$  000000000615000000000061560000000006093000000000611600000000060950000000006095000000000609621693000000000011049200000000067586842200000000000000009999123100000010000000000000BRVALEACNOR0210
012024032202B3SA3       010B3          ON      NM   R$  000000000122400000000012330000000001200000000000120700000000012000000000001200000000000120441472000000000060128400000000072598246500000000000000009999123100000010000000000000BRB3SAACNOR6131
012024032202RECV3       010PETRORECSA  ON      NM   R$  000000000225600000000022670000000002212000000000223400000000022330000000002232000000000223403850000000000002122900000000004744487400000000000000009999123100000010000000000000BRRECVACNOR3105
012024032202REDE3       010REDE ENERGIAON  ED       R$  000000000068700000000006940000000000678000000000068200000000006780000000000679000000000068700014000000000000001700000000000001160700000000000000009999123100000010000000000000BRREDEACNOR7127
012024032202RENT3       010LOCALIZA    ON      NM   R$  000000000533100000000053830000000005269000000000530000000000052850000000005282000000000528612184000000000003842400000000020367645100000000000000009999123100000010000000000000BRRENTACNOR4194
012024032202TTEN3       0103TENTOS     ON      NM   R$  000000000111100000000011110000000001065000000000108400000000010870000000001085000000000108704082000000000000700200000000000759663400000000000000009999123100000010000000000000BRTTENACNOR0103
012024032202TUPY3       010TUPY        ON      NM   R$  000000000277900000000027790000000002652000000000271500000000027100000000002709000000000271003942000000000000912100000000002476723000000000000000009999123100000010000000000000BRTUPYACNOR1183
012024032202UCAS3       010UNICASA     ON      NM   R$  000000000027600000000002760000000000269000000000027000000000002700000000000269000000000027000068000000000000013300000000000003604200000000000000009999123100000010000000000000BRUCASACNOR1113
012024032202UGPA3       010ULTRAPAR    ON      NM   R$  000000000281000000000028270000000002776000000000278900000000027800000000002780000000000279109961000000000004413300000000012312205000000000000000009999123100000010000000000000BRUGPAACNOR8155
012024032202UNIP3       010UNIPAR      ON  ED       R$  000000000637000000000063890000000006271000000000632700000000063000000000006271000000000630000042000000000000004400000000000027841900000000000000009999123100000010000000000000BRUNIPACNOR7205
012024032202UNIP5       010UNIPAR      PNA ED       R$  000000000690000000000069000000000006900000000000690000000000069000000000006755000000000708800001000000000000000100000000000000690000000000000000009999123100000010000000000000BRUNIPACNPA0207
012024032202UNIP6       010UNIPAR      PNB ED       R$  000000000673100000000067830000000006703000000000674600000000067650000000006763000000000676800791000000000000112300000000000757581100000000000000009999123100000010000000000000BRUNIPACNPB8205
012024032202EKTR4       010ELEKTRO     PN           R$  000000000468000000000046800000000004680000000000468000000000046800000000004681000000000479900001000000000000000100000000000000468000000000000000009999123100000010000000000000BREKTRACNPR7159
012024032202ELET3       010ELETROBRAS  ON      N1   R$  000000000423800000000042700000000004185000000000422200000000042060000000004203000000000420611293000000000004334400000000018301338500000000000000009999123100000010000000000000BRELETACNOR6159
012024032202ELET6       010ELETROBRAS  PNB     N1   R$  000000000471700000000047430000000004656000000000468200000000046600000000004660000000000466303241000000000000854600000000004002035900000000000000009999123100000010000000000000BRELETACNPB7076
012024032202USIM3       010USIMINAS    ON      N1   R$  000000000096400000000009670000000000953000000000095800000000009590000000000956000000000095900795000000000000261200000000000250300700000000000000009999123100000010000000000000BRUSIMACNOR3166
012024032202USIM5       010USIMINAS    PNA     N1   R$  000000000102700000000010330000000001015000000000101700000000010150000000001015000000000101806512000000000003701800000000003767784800000000000000009999123100000010000000000000BRUSIMACNPA6168
012024032202WHRL3       010WHIRLPOOL   ON           R$  000000000045100000000004510000000000451000000000045100000000004510000000000451000000000045300007000000000000002600000000000001172600000000000000009999123100000010000000000000BRWHRLACNOR5128
012024032202WHRL4       010WHIRLPOOL   PN           R$  000000000045800000000004600000000000458000000000045900000000004600000000000460000000000046100028000000000000012700000000000005841900000000000000009999123100000010000000000000BRWHRLACNPR2128
012024032202WIZC3       010WIZ CO      ON      NM   R$  000000000065200000000006520000000000638000000000064400000000006490000000000647000000000064901104000000000000208300000000000134332600000000000000009999123100000010000000000000BRWIZCACNOR5101
012024032202WLMM4       010WLM IND COM PN           R$  000000000239800000000024400000000002306000000000234200000000023400000000002250000000000244000026000000000000003900000000000009135600000000000000009999123100000010000000000000BRWLMMACNPR3117
012024032202HYPE3       010HYPERA      ON  EJ  NM   R$  000000000342800000000034740000000003404000000000342800000000034110000000003410000000000341906955000000000001485700000000005093452500000000000000009999123100000010000000000000BRHYPEACNOR0139
012024032202LOGG3       010LOG COM PROPON      NM   R$  000000000231000000000023210000000002255000000000229000000000022810000000002278000000000228101026000000000000178300000000000408348600000000000000009999123100000010000000000000BRLOGGACNOR7107
012024032202LOGN3       010LOG-IN      ON      NM   R$  000000000381600000000038690000000003775000000000381000000000037750000000003775000000000377700076000000000000009700000000000036961200000000000000009999123100000010000000000000BRLOGNACNOR3105
012024032202YDUQ3       010YDUQS PART  ON      NM   R$  000000000187600000000018880000000001845000000000185800000000018590000000001857000000000186709961000000000002219800000000004124720200000000000000009999123100000010000000000000BRYDUQACNOR3104
012024032202ZAMP3       010ZAMP S.A.   ON           R$  000000000036200000000003620000000000352000000000035400000000003540000000000353000000000035401356000000000000478600000000000169682000000000000000009999123100000010000000000000BRZAMPACNOR5100
012024032202RAIZ4       010RAIZEN      PN  ED  N2   R$  000000000035000000000003500000000000339000000000034200000000003410000000000340000000000034112146000000000015227600000000005214303000000000000000009999123100000010000000000000BRRAIZACNPR6110
012024032202RANI3       010IRANI       ON      NM   R$  000000000091600000000009160000000000906000000000090900000000009060000000000906000000000091001936000000000000431000000000000391938200000000000000009999123100000010000000000000BRRANIACNOR5070
012024032202RAPT3       010RANDON PART ON      N1   R$  000000000109600000000011090000000001087000000000109300000000010870000000001087000000000110300068000000000000012600000000000013778700000000000000009999123100000010000000000000BRRAPTACNOR7162
012024032202RAPT4       010RANDON PART PN      N1   R$  000000000125100000000012650000000001236000000000124900000000012530000000001252000000000125702489000000000001010900000000001263486000000000000000009999123100000010000000000000BRRAPTACNPR4162
012024032202AALR3       010ALLIAR      ON      NM   R$  000000000082300000000008560000000000815000000000084000000000008560000000000846000000000085701186000000000000334100000000000280903100000000000000009999123100000010000000000000BRAALRACNOR6102
012024032202ABCB4       010ABC BRASIL  PN      N2   R$  000000000244300000000024430000000002393000000000241200000000024180000000002409000000000242001197000000000000265600000000000640656100000000000000009999123100000010000000000000BRABCBACNPR4145
012024032202ABEV3       010AMBEV S/A   ON           R$  000000000125600000000012570000000001237000000000124300000000012410000000001240000000000124123411000000000018151900000000022566328500000000000000009999123100000010000000000000BRABEVACNOR1127
012024032202SRNA3       010SERENA      ON      NM   R$  000000000095300000000009540000000000930000000000094100000000009400000000000940000000000094302930000000000000680800000000000641243000000000000000009999123100000010000000000000BRSRNAACNOR4100
012024032202STBP3       010SANTOS BRP  ON      NM   R$  000000000126600000000013330000000001265000000000131700000000013280000000001324000000000132822406000000000008837800000000011643705700000000000000009999123100000010000000000000BRSTBPACNOR3128
012024032202SUZB3       010SUZANO S.A. ON      NM   R$  000000000623000000000062520000000006151000000000620400000000062150000000006209000000000622017237000000000004652500000000028868381100000000000000009999123100000010000000000000BRSUZBACNOR0129
012024032202VAMO3       010VAMOS       ON      NM   R$  000000000088700000000008970000000000855000000000087400000000008550000000000855000000000086411153000000000009893900000000008656977500000000000000009999123100000010000000000000BRVAMOACNOR7105
012024032202VBBR3       010VIBRA       ON      NM   R$  000000000250700000000025250000000002483000000000249400000000024830000000002483000000000248818908000000000006455300000000016103852900000000000000009999123100000010000000000000BRVBBRACNOR1106
012024032202AURE3       010AUREN       ON      NM   R$  000000000120600000000012080000000001191000000000119600000000011950000000001194000000000119604051000000000002266600000000002711070300000000000000009999123100000010000000000000BRAUREACNOR9104
012024032202AVLL3       010ALPHAVILLE  ON      NM   R$  000000000041000000000004140000000000410000000000041100000000004140000000000391000000000041400007000000000000010400000000000004276200000000000000009999123100000010000000000000BRAVLLACNOR5103
012024032202AZEV3       010AZEVEDO     ON           R$  000000000013400000000001470000000000131000000000014000000000001430000000000141000000000014300593000000000000759900000000000106687600000000000000009999123100000010000000000000BRAZEVACNOR0121
012024032202AZEV4       010AZEVEDO     PN           R$  000000000013000000000001440000000000128000000000013700000000001370000000000137000000000013801516000000000004775100000000000656161600000000000000009999123100000010000000000000BRAZEVACNPR7121
012024032202AZUL4       010AZUL        PN      N2   R$  000000000141600000000014420000000001400000000000141900000000014060000000001405000000000140708814000000000007867500000000011170414000000000000000009999123100000010000000000000BRAZULACNPR4102
012024032202CMIN3       010CSNMINERACAOON      N2   R$  000000000056400000000005660000000000548000000000055300000000005480000000000548000000000055009142000000000007478600000000004136555000000000000000009999123100000010000000000000BRCMINACNOR2110
012024032202COCE5       010COELCE      PNA          R$  000000000360200000000038740000000003602000000000376000000000036180000000003602000000000364200282000000000000052500000000000197440600000000000000009999123100000010000000000000BRCOCEACNPA3146
012024032202PCAR3       010P.ACUCAR-CBDON      NM   R$  000000000030700000000003090000000000300000000000030300000000003010000000000301000000000030307015000000000008215600000000002491122600000000000000009999123100000010000000000000BRPCARACNOR3167
012024032202PRIO3       010PETRORIO    ON      NM   R$  000000000473800000000047450000000004643000000000467800000000046690000000004669000000000467012707000000000004748800000000022215916100000000000000009999123100000010000000000000BRPRIOACNOR1106
012024032202ASAI3       010ASSAI       ON      NM   R$  000000000147100000000014830000000001437000000000144800000000014370000000001436000000000144006510000000000003379700000000004893978200000000000000009999123100000010000000000000BRASAIACNOR0106
012024032202ATOM3       010ATOMPAR     ON           R$  000000000019200000000002000000000000190000000000019700000000002000000000000201000000000020200050000000000000025300000000000004994100000000000000009999123100000010000000000000BRATOMACNOR1106
012024032202ODPV3       010ODONTOPREV  ON      NM   R$  000000000126000000000012650000000001256000000000125900000000012630000000001258000000000126303468000000000000794800000000001001172300000000000000009999123100000010000000000000BRODPVACNOR4198
012024032202OFSA3       010OUROFINO S/AON      NM   R$  000000000246100000000025100000000002460000000000249000000000025100000000002460000000000251100013000000000000001800000000000004483700000000000000009999123100000010000000000000BROFSAACNOR7117
012024032202ONCO3       010ONCOCLINICASON      NM   R$  000000000099100000000010020000000000974000000000098500000000009740000000000973000000000097404400000000000001509500000000001487431800000000000000009999123100000010000000000000BRONCOACNOR6100
012024032202OPCT3       010OCEANPACT   ON      NM   R$  000000000060800000000006120000000000596000000000060400000000006040000000000601000000000060400848000000000000331300000000000200379000000000000000009999123100000010000000000000BROPCTACNOR0100
012024032202ORVR3       010ORIZON      ON      NM   R$  000000000388100000000039200000000003867000000000388900000000038970000000003891000000000391400841000000000000145400000000000565498200000000000000009999123100000010000000000000BRORVRACNOR0101
012024032202LPSB3       010LOPES BRASILON      NM   R$  000000000020900000000002260000000000208000000000021700000000002260000000000218000000000022600395000000000000255800000000000055585200000000000000009999123100000010000000000000BRLPSBACNOR0113
012024032202LREN3       010LOJAS RENNERON  EJ  NM   R$  000000000157500000000015880000000001540000000000157000000000015640000000001563000000000156415173000000000017686800000000027773197700000000000000009999123100000010000000000000BRLRENACNOR1220
012024032202LUPA3       010LUPATECH    ON      NM   R$  000000000019600000000001990000000000193000000000019500000000001940000000000194000000000019500265000000000000075600000000000014764500000000000000009999123100000010000000000000BRLUPAACNOR8112
012024032202LVTC3       010WDC NETWORKSON      NM   R$  000000000037600000000003830000000000371000000000037600000000003800000000000376000000000038000077000000000000048100000000000018124900000000000000009999123100000010000000000000BRLVTCACNOR4102
012024032202LWSA3       010LWSA        ON      NM   R$  000000000060000000000006010000000000576000000000058400000000005830000000000583000000000058410682000000000010526700000000006152475900000000000000009999123100000010000000000000BRLWSAACNOR8103
012024032207TXRX4       010TEX RENAUX  PN           R$  000000000025500000000002700000000000255000000000026500000000002700000000000260000000000026600005000000000000001400000000000000371500000000000000009999123100000010000000000000BRTXRXACNPR0142
012024032207NUTR3       010NUTRIPLANT  ON      MA   R$  000000000060000000000006000000000000538000000000055900000000005650000000000555000000000055800160000000000000032700000000000018301600000000000000009999123100000010000000000000BRNUTRACNOR0104
012024032208PMAM3       010PARANAPANEMAON      NM   R$  000000000033000000000003370000000000326000000000033100000000003310000000000330000000000033100199000000000000063900000000000021193700000000000000009999123100000010000000000000BRPMAMACNOR3038
012024032208HOOT4       010HOTEIS OTHONPN           R$  000000000027700000000002790000000000277000000000027800000000002790000000000279000000000028400007000000000000005500000000000001534300000000000000009999123100000010000000000000BRHOOTACNPR9015
012024032208LIGT3       010LIGHT S/A   ON      NM   R$  000000000051600000000005210000000000507000000000051300000000005200000000000515000000000052002046000000000000384800000000000197605300000000000000009999123100000010000000000000BRLIGTACNOR2124
012024032208FRTA3       010POMIFRUTAS  ON      NM   R$  000000000013100000000001340000000000131000000000013100000000001310000000000131000000000013400006000000000000001500000000000000196800000000000000009999123100000010000000000000BRFRTAACNOR8103
012024032208NEXP3       010NEXPE       ON      NM   R$  000000000045700000000004570000000000455000000000045500000000004550000000000454000000000047800004000000000000004000000000000001822800000000000000009999123100000010000000000000BRNEXPACNOR0101
012024032208ETER3       010ETERNIT     ON      NM   R$  000000000072800000000007340000000000718000000000072300000000007250000000000725000000000073000480000000000000155200000000000112239500000000000000009999123100000010000000000000BRETERACNOR3243
012024032208AMER3       010AMERICANAS  ON      NM   R$  000000000005700000000000590000000000053000000000005500000000000530000000000053000000000005403454000000000020707300000000001145922500000000000000009999123100000010000000000000BRAMERACNOR6101
012024032208JFEN3       010JOAO FORTES ON           R$  000000000016200000000001620000000000157000000000016000000000001570000000000157000000000016100015000000000000003200000000000000512000000000000000009999123100000010000000000000BRJFENACNOR0058
012024032208BDLL4       010BARDELLA    PN           R$  000000000071100000000007260000000000701000000000071000000000007260000000000726000000000074000010000000000000001300000000000000924000000000000000009999123100000010000000000000BRBDLLACNPR8151
012024032208RNEW11      010RENOVA      UNT     N2   R$  000000000037000000000003700000000000363000000000036500000000003690000000000363000000000036900013000000000000002200000000000000804300000000000000009999123100000010000000000000BRRNEWCDAM15110
012024032208RNEW3       010RENOVA      ON      N2   R$  000000000012500000000001300000000000121000000000012300000000001220000000000122000000000012300129000000000000092900000000000011464000000000000000009999123100000010000000000000BRRNEWACNOR8110
012024032208RNEW4       010RENOVA      PN      N2   R$  000000000012400000000001250000000000120000000000012100000000001200000000000120000000000012200150000000000000173300000000000020975300000000000000009999123100000010000000000000BRRNEWACNPR5110
012024032208RPMG3       010PET MANGUINHON           R$  000000000020800000000002080000000000204000000000020500000000002070000000000205000000000020700015000000000000002900000000000000597300000000000000009999123100000010000000000000BRRPMGACNOR9194
012024032208RSID3       010ROSSI RESID ON      NM   R$  000000000036200000000003890000000000360000000000037700000000003890000000000375000000000038900237000000000000037100000000000014012900000000000000009999123100000010000000000000BRRSIDACNOR8120
012024032208ATMP3       010ATMASA      ON           R$  000000000025300000000002530000000000239000000000024200000000002400000000000239000000000024100034000000000000020600000000000004988100000000000000009999123100000010000000000000BRATMPACNOR8100
012024032208OIBR3       010OI          ON      N1   R$  000000000006900000000000730000000000069000000000007000000000000700000000000070000000000007103528000000000009159700000000000645497700000000000000009999123100000010000000000000BROIBRACNOR1110
012024032208OIBR4       010OI          PN      N1   R$  000000000018000000000001880000000000180000000000018500000000001840000000000183000000000018600173000000000000128100000000000023781700000000000000009999123100000010000000000000BROIBRACNPR8109
012024032208OSXB3       010OSX BRASIL  ON      NM   R$  000000000042000000000004350000000000384000000000041200000000004070000000000407000000000041200360000000000000112200000000000046265400000000000000009999123100000010000000000000BROSXBACNOR8109
012024032210MGLU9       010MAGAZ LUIZA ON  REC NM   R$  000000000019500000000001950000000000180000000000018800000000001920000000000187000000000019200514000000000000277600000000000052375100000000000000009999123100000010000000000000BRMGLUR01OR7122
012024032210PGMN9       010PAGUE MENOS ON  REC NM   R$  000000000026100000000002610000000000261000000000026100000000002610000000000257000000000029500001000000000000000100000000000000026100000000000000009999123100000010000000000000BRPGMNR04OR7102
012024032210GFSA1       010GAFISA      DIR ORD NM   R$  000000000000500000000000050000000000003000000000000300000000000030000000000003000000000000400411000000000004125800000000000014029800000000000000009999123100000010000000000000BRGFSAD10OR9123
012024032210ABCB10      010ABC BRASIL  PN  REC N2   R$  000000000242500000000024250000000002400000000000241200000000024000000000002200000000000241400021000000000000002500000000000006030400000000000000009999123100000010000000000000BRABCBR19PR1144
012024032212ITIT11      010FII INTER ITCI           R$  000000000807400000000080740000000007996000000000800800000000080450000000008022000000000807300117000000000000000978000000000007832317000000000000009999123100000010000000000000BRITITCTF004126
012024032212DRIT11      010FII MTGESTAOCI           R$  000000000762400000000076240000000007606000000000761900000000076060000000007520000000000799900005000000000000000005000000000000038098000000000000009999123100000010000000000000BRDRITCTF009250
012024032212DVFF11      010FII DEVA FOFCI           R$  000000000078400000000007840000000000780000000000078200000000007830000000000780000000000078300313000000000000000701000000000000548396000000000000009999123100000010000000000000BRDVFFCTF006135
012024032212KFOF11      010FII KINEAFOFCI           R$  000000001019900000000101990000000010053000000001009900000000100790000000010079000000001008003140000000000000009127000000000092178091000000000000009999123100000010000000000000BRKFOFCTF006166
012024032212KISU11      010FII KILIMA  CI           R$  000000000084500000000008510000000000845000000000084800000000008500000000000848000000000085001751000000000000072314000000000061376048000000000000009999123100000010000000000000BRKISUCTF000141
012024032212KIVO11      010FII KIVO    CI           R$  000000000903000000000091680000000009005000000000906500000000090950000000009090000000000909500565000000000000004647000000000042129110000000000000009999123100000010000000000000BRKIVOCTF007124
012024032212AFHI11      010FII AFHI CRICI  ER       R$  000000000978500000000098750000000009757000000000980900000000098440000000009842000000000984405061000000000000016630000000000163135710000000000000009999123100000010000000000000BRAFHICTF005139
012024032212AIEC11      010FII AUTONOMYCI           R$  000000000519000000000051900000000005124000000000514500000000051470000000005146000000000514700509000000000000009959000000000051246583000000000000009999123100000010000000000000BRAIECCTF009142
012024032212AJFI11      010FII AJ MALLSCI           R$  000000000097500000000009960000000000970000000000098500000000009960000000000989000000000099608157000000000000082479000000000081255473000000000000009999123100000010000000000000BRAJFICTF001104
012024032212EDFO11      010FII OURINVESCI           R$  000000002021000000000202100000000020210000000002021000000000202100000000020220000000002080000001000000000000000001000000000000020210000000000000009999123100000010000000000000BREDFOCTF004320
012024032212EDGA11      010FII GALERIA CI  ER       R$  000000000204800000000020480000000002006000000000201000000000020060000000002007000000000201400010000000000000000613000000000001232403000000000000009999123100000010000000000000BREDGACTF001239
012024032212ALMI11      010FII TORRE ALCI           R$  000000006547000000000654700000000064666000000006498900000000651000000000065100000000006699900010000000000000000021000000000001364770000000000000009999123100000010000000000000BRALMICTF003250
012024032212BICR11      010FII INTER   CI           R$  000000000560000000000056000000000005600000000000560000000000056000000000004499000000000560000012000000000000000097000000000000543200000000000000009999123100000010000000000000BRBICRCTF009149
012024032212BIME11      010FII BRIO ME CI           R$  000000000072500000000007250000000000721000000000072300000000007250000000000722000000000072501181000000000000010102000000000007309970000000000000009999123100000010000000000000BRBIMECTF006129
012024032212BLCA11      010FII BLUE AAACI           R$  000000001086800000000109110000000010868000000001087000000000109110000000010840000000001091100012000000000000000456000000000004956935000000000000009999123100000010000000000000BRBLCACTF009128
012024032212BLMG11      010FII BLUE LOGCI           R$  000000000393600000000039550000000003910000000000392300000000039180000000003917000000000391800962000000000000006152000000000024136369000000000000009999123100000010000000000000BRBLMGCTF005144
012024032212BLMO11      010FII BLUEMAC CI           R$  000000000877500000000089550000000008400000000000848300000000085500000000008200000000000855000030000000000000005216000000000044249245000000000000009999123100000010000000000000BRBLMOCTF009128
012024032212BMLC11      010FII BMBRC LCCI           R$  000000001071500000000107150000000010715000000001071500000000107150000000010499000000001071500001000000000000000001000000000000010715000000000000009999123100000010000000000000BRBMLCCTF004247
012024032212BNFS11      010FII BANRISULCI           R$  000000001219400000000121940000000012151000000001218500000000121850000000012159000000001218500053000000000000000244000000000002973298000000000000009999123100000010000000000000BRBNFSCTF000238
012024032212BTAL11      010FII BTG AGROCI  ER       R$  000000000708600000000071340000000007050000000000708900000000070880000000007080000000000709900877000000000000008794000000000062344167000000000000009999123100000010000000000000BRBTALCTF003137
012024032212BTCI11      010FII BTG CRI CI           R$  000000000100600000000010210000000001003000000000101400000000010180000000001016000000000101822297000000000000490029000000000497023755000000000000009999123100000010000000000000BRBTCICTF005117
012024032212BTHI11      010BTG HOTEL FICI           R$  000000000433400000000043990000000004310000000000431700000000043100000000004310000000000435500018000000000000000511000000000002206306000000000000009999123100000010000000000000BRBTHICTF004106
012024032212BTLG11      010FII BTLG    CI  ER       R$  000000001054900000000105500000000010502000000001052000000000105230000000010523000000001053611317000000000000073103000000000769103920000000000000009999123100000010000000000000BRBTLGCTF000160
012024032212BTRA11      010FII BTG TAGRCI  ER       R$  000000000577000000000057970000000005702000000000573400000000057200000000005715000000000572000609000000000000005321000000000030511795000000000000009999123100000010000000000000BRBTRACTF000134
012024032212CACR11      010CARTESIA FIICI           R$  000000001031300000000103390000000010251000000001029100000000102840000000010284000000001031703648000000000000013107000000000134895449000000000000009999123100000010000000000000BRCACRCTF004129
012024032212RBVA11      010FII RIOB VA CI           R$  000000001121300000000113000000000011180000000001127000000000112920000000011265000000001129202958000000000000006802000000000076660734000000000000009999123100000010000000000000BRRBVACTF006162
012024032212RBVO11      010FII RIOBCRI2CI           R$  000000000124800000000014640000000001248000000000136700000000013250000000001325000000000135000218000000000000010159000000000013894539000000000000009999123100000010000000000000BRRBVOCTF007240
012024032212RCFA11      010FII GP RCFA CI           R$  000000000012700000000001270000000000125000000000012600000000001270000000000118000000000012500003000000000000000006000000000000000760000000000000009999123100000010000000000000BRRCFACTF007101
012024032212RCRB11      010FII RIOB RC CI           R$  000000001617700000000162470000000016018000000001618500000000162180000000016135000000001621901841000000000000003116000000000050433180000000000000009999123100000010000000000000BRRCRBCTF000154
012024032212TEPP11      010FII TEL PROPCI           R$  000000000950300000000096260000000009484000000000956500000000095630000000009562000000000956301745000000000000017857000000000170811695000000000000009999123100000010000000000000BRTEPPCTF006147
012024032212TGAR11      010FII TG ATIVOCI           R$  000000001256500000000127000000000012562000000001262400000000126980000000012685000000001269813432000000000000054161000000000683734317000000000000009999123100000010000000000000BRTGARCTF009188
012024032212TMPS11      010FII ITAU TEMCI           R$  000000000988800000000098880000000009886000000000988700000000098880000000009860000000000988800012000000000000000640000000000006328308000000000000009999123100000010000000000000BRTMPSCTF003111
