00COTAHIST.2024BOVESPA 20240422                                                                                                                                                                                                                      
012024042202BEEF3       010MINERVA     ON      NM   R$  000000000061000000000006230000000000608000000000061600000000006150000000000614000000000061708792000000000007947000000000004900353700000000000000009999123100000010000000000000BRBEEFACNOR6116
012024042202BPAN4       010BANCO PAN   PN      N1   R$  000000000091900000000009370000000000915000000000092500000000009290000000000929000000000093002860000000000003267100000000003022391600000000000000009999123100000010000000000000BRBPANACNPR1115
012024042202BRAP3       010BRADESPAR   ON      N1   R$  000000000202200000000020760000000002001000000000203900000000020230000000002022000000000203000511000000000000103000000000000210086200000000000000009999123100000010000000000000BRBRAPACNOR5147
012024042202BRAP4       010BRADESPAR   PN      N1   R$  000000000211000000000021420000000002065000000000210900000000021150000000002114000000000211511735000000000008174200000000017241721500000000000000009999123100000010000000000000BRBRAPACNPR2147
012024042202CSED3       010CRUZEIRO EDUON      NM   R$  000000000037000000000003770000000000363000000000037200000000003770000000000375000000000037700445000000000000174600000000000065067500000000000000009999123100000010000000000000BRCSEDACNOR9104
012024042202CSMG3       010COPASA      ON      NM   R$  000000000215900000000021650000000002121000000000214900000000021550000000002153000000000216006447000000000001242600000000002670821200000000000000009999123100000010000000000000BRCSMGACNOR5172
012024042202CSNA3       010SID NACIONALON           R$  000000000145700000000014920000000001432000000000147100000000014780000000001478000000000148114121000000000007159500000000010535234300000000000000009999123100000010000000000000BRCSNAACNOR6260
012024042202ESPA3       010ESPACOLASER ON      NM   R$  000000000009000000000000940000000000090000000000009200000000000930000000000092000000000009301217000000000000972900000000000089874700000000000000009999123100000010000000000000BRESPAACNOR7103
012024042202EUCA3       010EUCATEX     ON      N1   R$  000000000163000000000016300000000001605000000000161700000000016050000000001610000000000170700002000000000000000200000000000000323500000000000000009999123100000010000000000000BREUCAACNOR1157
012024042202EUCA4       010EUCATEX     PN      N1   R$  000000000161600000000016160000000001524000000000154800000000015250000000001525000000000153000712000000000000127800000000000197842800000000000000009999123100000010000000000000BREUCAACNPR8044
012024042202EVEN3       010EVEN        ON      NM   R$  000000000072900000000007390000000000720000000000072700000000007240000000000724000000000072602163000000000000650300000000000472973200000000000000009999123100000010000000000000BREVENACNOR8118
012024042202KLBN3       010KLABIN S/A  ON      N2   R$  000000000048800000000004900000000000478000000000048100000000004790000000000479000000000048000865000000000000331100000000000159570500000000000000009999123100000010000000000000BRKLBNACNOR2168
012024042202KLBN4       010KLABIN S/A  PN      N2   R$  000000000049300000000004930000000000481000000000048400000000004820000000000482000000000048302332000000000001348600000000000653379300000000000000009999123100000010000000000000BRKLBNACNPR9168
012024042202NEOE3       010NEOENERGIA  ON  ED  NM   R$  000000000193800000000019470000000001925000000000193600000000019350000000001934000000000194205160000000000001204500000000002332939200000000000000009999123100000010000000000000BRNEOEACNOR3122
012024042202NGRD3       010NEOGRID     ON  ED  NM   R$  000000000010200000000001050000000000100000000000010300000000001040000000000103000000000010400226000000000000180600000000000018624100000000000000009999123100000010000000000000BRNGRDACNOR3104
012024042202NINJ3       010GETNINJAS   ON      NM   R$  000000000051400000000005170000000000510000000000051300000000005130000000000513000000000051800013000000000000003700000000000001898800000000000000009999123100000010000000000000BRNINJACNOR5101
012024042202NTCO3       010GRUPO NATURAON      NM   R$  000000000161300000000016330000000001602000000000161000000000016050000000001605000000000160813018000000000003751100000000006041720000000000000000009999123100000010000000000000BRNTCOACNOR5106
012024042202ANIM3       010ANIMA       ON      NM   R$  000000000033700000000003580000000000337000000000034600000000003420000000000342000000000034510848000000000004610900000000001598438500000000000000009999123100000010000000000000BRANIMACNOR6107
012024042202APER3       010ALPER S.A.  ON           R$  000000000448500000000044850000000004485000000000448500000000044850000000004300000000000458000001000000000000002400000000000010764000000000000000009999123100000010000000000000BRAPERACNOR9106
012024042202ARML3       010ARMAC       ON      NM   R$  000000000104900000000010770000000001033000000000105800000000010770000000001069000000000107704271000000000000749400000000000792901500000000000000009999123100000010000000000000BRARMLACNOR1111
012024042202ARZZ3       010AREZZO CO   ON      NM   R$  000000000514900000000053000000000005094000000000520300000000053000000000005274000000000530009439000000000001747200000000009091622200000000000000009999123100000010000000000000BRARZZACNOR3146
012024042202BMEB4       010MERCANTIL   PN      N1   R$  000000000225300000000023200000000002253000000000228800000000023100000000002280000000000235000038000000000000006500000000000014877000000000000000009999123100000010000000000000BRBMEBACNPR5210
012024042202BMGB4       010BANCO BMG   PN      N1   R$  000000000033900000000003480000000000333000000000034200000000003480000000000346000000000034802056000000000000993300000000000340512900000000000000009999123100000010000000000000BRBMGBACNPR0108
012024042202BMKS3       010BIC MONARK  ON           R$  000000004339900000000433990000000043398000000004339800000000433980000000041800000000004339900005000000000000000016000000000000694381000000000000009999123100000010000000000000BRBMKSACNOR9165
012024042202BMOB3       010BEMOBI TECH ON      NM   R$  000000000125100000000012540000000001232000000000124500000000012460000000001240000000000124701841000000000000342900000000000426956700000000000000009999123100000010000000000000BRBMOBACNOR7103
012024042202BPAC11      010BTGP BANCO  UNT     N2   R$  000000000327500000000033320000000003246000000000329800000000033320000000003323000000000333220840000000000005635300000000018587042800000000000000009999123100000010000000000000BRBPACUNT006118
012024042202BPAC3       010BTGP BANCO  ON      N2   R$  000000000160400000000016330000000001602000000000161500000000016330000000001633000000000164900015000000000000001700000000000002746600000000000000009999123100000010000000000000BRBPACACNOR7133
012024042202BPAC5       010BTGP BANCO  PNA     N2   R$  000000000082300000000008310000000000817000000000082300000000008300000000000830000000000083500020000000000000002400000000000001976500000000000000009999123100000010000000000000BRBPACACNPA0133
012024042202CPLE3       010COPEL       ON      N2   R$  000000000084500000000008630000000000839000000000085600000000008630000000000857000000000086307292000000000006384200000000005465928000000000000000009999123100000010000000000000BRCPLEACNOR8148
012024042202CPLE6       010COPEL       PNB     N2   R$  000000000093300000000009540000000000927000000000094500000000009480000000000948000000000094922708000000000024944500000000023594661100000000000000009999123100000010000000000000BRCPLEACNPB9145
012024042202BNBR3       010NORD BRASIL ON           R$  000000001040000000000104000000000010400000000001040000000000104000000000010150000000001065000001000000000000000100000000000001040000000000000000009999123100000010000000000000BRBNBRACNOR8207
012024042202BOBR4       010BOMBRIL     PN           R$  000000000021500000000002240000000000212000000000021700000000002190000000000215000000000021900055000000000000016100000000000003498700000000000000009999123100000010000000000000BRBOBRACNPR3128
012024042202AESB3       010AES BRASIL  ON      NM   R$  000000000091700000000009320000000000909000000000092200000000009300000000000926000000000093004399000000000001710100000000001577673800000000000000009999123100000010000000000000BRAESBACNOR7105
012024042202AGRO3       010BRASILAGRO  ON      NM   R$  000000000264700000000026600000000002584000000000260900000000025840000000002583000000000260201856000000000000325100000000000848382800000000000000009999123100000010000000000000BRAGROACNOR7114
012024042202AGXY3       010AGROGALAXY  ON      NM   R$  000000000018100000000001840000000000175000000000017800000000001780000000000177000000000017800450000000000000409800000000000073268300000000000000009999123100000010000000000000BRAGXYACNOR4102
012024042202ALLD3       010ALLIED      ON  EJ  NM   R$  000000000075900000000007690000000000735000000000074700000000007480000000000748000000000075000371000000000000082500000000000061704800000000000000009999123100000010000000000000BRALLDACNOR3106
012024042202ALOS3       010ALLOS       ON      NM   R$  000000000216900000000021860000000002159000000000217300000000021730000000002171000000000217308303000000000002519100000000005474754600000000000000009999123100000010000000000000BRALOSACNOR5100
012024042202ALPA3       010ALPARGATAS  ON      N1   R$  000000000091200000000009240000000000912000000000092000000000009240000000000891000000000094900006000000000000007200000000000006628500000000000000009999123100000010000000000000BRALPAACNOR0231
012024042202SLCE3       010SLC AGRICOLAON      NM   R$  000000000190400000000019040000000001867000000000188100000000018830000000001876000000000188408466000000000002482100000000004670691200000000000000009999123100000010000000000000BRSLCEACNOR2124
012024042202PFRM3       010PROFARMA    ON      NM   R$  000000000057600000000006000000000000572000000000058500000000005920000000000591000000000059701587000000000000595200000000000348291800000000000000009999123100000010000000000000BRPFRMACNOR1116
012024042202PGMN3       010PAGUE MENOS ON      NM   R$  000000000026500000000002650000000000253000000000025600000000002560000000000256000000000025801767000000000000824200000000000211324900000000000000009999123100000010000000000000BRPGMNACNOR8103
012024042202PINE3       010PINE        ON  EJ  N2   R$  000000000063800000000006380000000000638000000000063800000000006380000000000621000000000064900002000000000000001000000000000000638000000000000000009999123100000010000000000000BRPINEACNOR1149
012024042202PINE4       010PINE        PN  EJ  N2   R$  000000000046200000000004670000000000453000000000046200000000004530000000000453000000000045500579000000000000211600000000000097859400000000000000009999123100000010000000000000BRPINEACNPR8149
012024042202PLAS3       010PLASCAR PARTON           R$  000000000065500000000006560000000000655000000000065500000000006560000000000656000000000067000004000000000000000400000000000000262200000000000000009999123100000010000000000000BRPLASACNOR2106
012024042202PLPL3       010PLANOEPLANO ON      NM   R$  000000000116400000000011880000000001152000000000117300000000011750000000001174000000000118503290000000000000582000000000000682900200000000000000009999123100000010000000000000BRPLPLACNOR5104
012024042202PNVL3       010DIMED       ON      NM   R$  000000000110600000000011150000000001101000000000110700000000011100000000001110000000000111201596000000000000328100000000000363425400000000000000009999123100000010000000000000BRPNVLACNOR9206
012024042202POMO3       010MARCOPOLO   ON      N2   R$  000000000055500000000005570000000000547000000000055400000000005550000000000551000000000055500336000000000000268000000000000148512400000000000000009999123100000010000000000000BRPOMOACNOR0097
012024042202POMO4       010MARCOPOLO   PN      N2   R$  000000000071800000000007210000000000705000000000071000000000007050000000000705000000000070708878000000000005398200000000003834975000000000000000009999123100000010000000000000BRPOMOACNPR7097
012024042202PORT3       010WILSON SONS ON      NM   R$  000000000167500000000016860000000001664000000000167700000000016800000000001678000000000168002326000000000001177100000000001974251400000000000000009999123100000010000000000000BRPORTACNOR8106
012024042202POSI3       010POSITIVO TECON      NM   R$  000000000097800000000009800000000000944000000000096100000000009660000000000962000000000096605272000000000001409100000000001354246800000000000000009999123100000010000000000000BRPOSIACNOR9115
012024042202PRIO3       010PETRORIO    ON      NM   R$  000000000484000000000048820000000004769000000000482900000000048000000000004800000000000480628781000000000010195700000000049241182600000000000000009999123100000010000000000000BRPRIOACNOR1106
012024042202SANB11      010SANTANDER BRUNT EJ       R$  000000000269100000000027050000000002635000000000266700000000026800000000002676000000000268010979000000000003708600000000009893453700000000000000009999123100000010000000000000BRSANBCDAM13164
012024042202SANB3       010SANTANDER BRON  EJ       R$  000000000126200000000012650000000001236000000000124800000000012500000000001249000000000125800833000000000000363800000000000454178800000000000000009999123100000010000000000000BRSANBACNOR8171
012024042202SANB4       010SANTANDER BRPN  EJ       R$  000000000143200000000014400000000001402000000000141500000000014170000000001416000000000142000731000000000000379600000000000537433700000000000000009999123100000010000000000000BRSANBACNPR5171
012024042202SAPR11      010SANEPAR     UNT     N2   R$  000000000256400000000026430000000002532000000000259900000000026030000000002602000000000261505965000000000001611700000000004189798300000000000000009999123100000010000000000000BRSAPRCDAM13117
012024042202SAPR3       010SANEPAR     ON      N2   R$  000000000048400000000005030000000000483000000000049500000000004990000000000499000000000050000861000000000000621500000000000307917800000000000000009999123100000010000000000000BRSAPRACNOR9158
012024042202SAPR4       010SANEPAR     PN      N2   R$  000000000051400000000005320000000000513000000000052200000000005230000000000523000000000052502567000000000002301700000000001203519800000000000000009999123100000010000000000000BRSAPRACNPR6158
012024042202SBFG3       010GRUPO SBF   ON      NM   R$  000000000116800000000011780000000001140000000000115700000000011590000000001158000000000116205550000000000001190200000000001377513800000000000000009999123100000010000000000000BRSBFGACNOR1102
012024042202SBSP3       010SABESP      ON      NM   R$  000000000839900000000084900000000008279000000000834500000000082790000000008279000000000829818867000000000003960700000000033052365200000000000000009999123100000010000000000000BRSBSPACNOR5160
012024042202VALE3       010VALE        ON      NM   R$  000000000630300000000063580000000006230000000000630700000000063330000000006325000000000633349385000000000027171200000000171377228000000000000000009999123100000010000000000000BRVALEACNOR0210
012024042202PETZ3       010PETZ        ON      NM   R$  000000000048300000000005470000000000465000000000052100000000005340000000000532000000000053426846000000000055862300000000029114163400000000000000009999123100000010000000000000BRPETZACNOR2109
012024042202RPAD5       010ALFA HOLDINGPNA          R$  000000000083000000000008300000000000830000000000083000000000008300000000000825000000000084000001000000000000000100000000000000083000000000000000009999123100000010000000000000BRRPADACNPA4218
012024042202RPAD6       010ALFA HOLDINGPNB          R$  000000000084800000000008480000000000848000000000084800000000008480000000000848000000000087900001000000000000000500000000000000424000000000000000009999123100000010000000000000BRRPADACNPB2198
012024042202RRRP3       0103R PETROLEUMON      NM   R$  000000000328300000000033710000000003225000000000332000000000033350000000003332000000000333619523000000000006351700000000021089660100000000000000009999123100000010000000000000BRRRRPACNOR5102
012024042202RSUL4       010RIOSULENSE  PN  ED       R$  000000000780000000000078490000000007716000000000776200000000078120000000007459000000000781300012000000000000001200000000000009315100000000000000009999123100000010000000000000BRRSULACNPR3114
012024042202UNIP3       010UNIPAR      ON  EB       R$  000000000566700000000057570000000005510000000000558800000000055100000000005510000000000567000086000000000000011300000000000063153600000000000000009999123100000010000000000000BRUNIPACNOR7206
012024042202ABEV3       010AMBEV S/A   ON           R$  000000000119900000000012100000000001195000000000120100000000011950000000001195000000000119720946000000000023450600000000028179978100000000000000009999123100000010000000000000BRABEVACNOR1127
012024042202BBDC3       010BRADESCO    ON      N1   R$  000000000121300000000012170000000001200000000000120600000000012030000000001203000000000120407530000000000004066200000000004904394600000000000000009999123100000010000000000000BRBBDCACNOR1768
012024042202BBDC4       010BRADESCO    PN      N1   R$  000000000137000000000013750000000001354000000000136200000000013580000000001358000000000135923000000000000024572300000000033482388400000000000000009999123100000010000000000000BRBBDCACNPR8768
012024042202CMIN3       010CSNMINERACAOON      N2   R$  000000000052800000000005280000000000516000000000052000000000005200000000000519000000000052011022000000000009536200000000004959573300000000000000009999123100000010000000000000BRCMINACNOR2110
012024042202COCE5       010COELCE      PNA          R$  000000000353000000000035650000000003465000000000353500000000035650000000003525000000000356800120000000000000014700000000000051973700000000000000009999123100000010000000000000BRCOCEACNPA3146
012024042202COGN3       010COGNA ON    ON      NM   R$  000000000019800000000002000000000000193000000000019700000000002000000000000199000000000020021559000000000040671000000000008041905800000000000000009999123100000010000000000000BRCOGNACNOR2104
012024042202ELET3       010ELETROBRAS  ON      N1   R$  000000000379300000000038070000000003748000000000377200000000037690000000003768000000000377423835000000000008686000000000032770887100000000000000009999123100000010000000000000BRELETACNOR6159
012024042202ELET6       010ELETROBRAS  PNB     N1   R$  000000000427300000000042960000000004229000000000426400000000042720000000004270000000000427505256000000000001295300000000005523244700000000000000009999123100000010000000000000BRELETACNPB7076
012024042202UNIP5       010UNIPAR      PNA EB       R$  000000000590000000000059000000000005900000000000590000000000059000000000005900000000000629900001000000000000000100000000000000590000000000000000009999123100000010000000000000BRUNIPACNPA0208
012024042202UNIP6       010UNIPAR      PNB EB       R$  000000000571300000000057220000000005536000000000560000000000055600000000005559000000000558801761000000000000292800000000001639708100000000000000009999123100000010000000000000BRUNIPACNPB8206
012024042202USIM3       010USIMINAS    ON      N1   R$  000000000094500000000009780000000000940000000000096300000000009650000000000964000000000097001545000000000000312600000000000301140900000000000000009999123100000010000000000000BRUSIMACNOR3166
012024042202USIM5       010USIMINAS    PNA     N1   R$  000000000103300000000010680000000001013000000000104800000000010570000000001057000000000105823027000000000017187500000000018017489200000000000000009999123100000010000000000000BRUSIMACNPA6168
012024042202USIM6       010USIMINAS    PNB     N1   R$  000000000145000000000014500000000001450000000000145000000000014500000000001450000000000164900001000000000000000100000000000000145000000000000000009999123100000010000000000000BRUSIMACNPB4168
012024042202ZAMP3       010ZAMP S.A.   ON           R$  000000000035100000000003590000000000346000000000035200000000003590000000000355000000000036002258000000000000835800000000000294563600000000000000009999123100000010000000000000BRZAMPACNOR5100
012024042202ROMI3       010ROMI        ON      NM   R$  000000000109300000000010980000000001070000000000108000000000010700000000001070000000000107201687000000000000361100000000000390124600000000000000009999123100000010000000000000BRROMIACNOR8194
012024042202RPAD3       010ALFA HOLDINGON           R$  000000000085000000000008500000000000850000000000085000000000008500000000000848000000000085000001000000000000000500000000000000425000000000000000009999123100000010000000000000BRRPADACNOR1198
012024042202TPIS3       010TRIUNFO PARTON      NM   R$  000000000038500000000003880000000000381000000000038400000000003880000000000382000000000038800049000000000000017600000000000006768000000000000000009999123100000010000000000000BRTPISACNOR8118
012024042202TRAD3       010TC          ON      NM   R$  000000000007700000000000780000000000076000000000007600000000000760000000000076000000000007700115000000000000141300000000000010835100000000000000009999123100000010000000000000BRTRADACNOR3101
012024042202TRIS3       010TRISUL      ON      NM   R$  000000000045500000000004740000000000454000000000046300000000004600000000000459000000000046001207000000000000502300000000000232725600000000000000009999123100000010000000000000BRTRISACNOR4116
012024042202TRPL3       010TRAN PAULISTON      N1   R$  000000000329500000000033200000000003250000000000327200000000032650000000003210000000000329200022000000000000002800000000000009161700000000000000009999123100000010000000000000BRTRPLACNOR4185
012024042202TRPL4       010TRAN PAULISTPN      N1   R$  000000000254100000000025460000000002497000000000252500000000025240000000002524000000000252516499000000000006903100000000017433809300000000000000009999123100000010000000000000BRTRPLACNPR1185
012024042202TTEN3       0103TENTOS     ON      NM   R$  000000000097500000000009830000000000965000000000097000000000009730000000000973000000000098002424000000000000856400000000000831011200000000000000009999123100000010000000000000BRTTENACNOR0103
012024042202TUPY3       010TUPY        ON      NM   R$  000000000269000000000026990000000002664000000000267900000000026680000000002668000000000267001793000000000000311300000000000834096700000000000000009999123100000010000000000000BRTUPYACNOR1183
012024042202UCAS3       010UNICASA     ON      NM   R$  000000000023800000000002410000000000234000000000023500000000002360000000000235000000000023600138000000000000023700000000000005589700000000000000009999123100000010000000000000BRUCASACNOR1113
012024042202UGPA3       010ULTRAPAR    ON      NM   R$  000000000266600000000027090000000002647000000000267400000000026610000000002661000000000266613152000000000003253600000000008703237900000000000000009999123100000010000000000000BRUGPAACNOR8155
012024042202WEST3       010WESTWING    ON      NM   R$  000000000012100000000001230000000000116000000000011800000000001200000000000119000000000012100068000000000000025800000000000003061100000000000000009999123100000010000000000000BRWESTACNOR3100
012024042202WHRL3       010WHIRLPOOL   ON           R$  000000000048400000000004840000000000484000000000048400000000004840000000000462000000000048300001000000000000000200000000000000096800000000000000009999123100000010000000000000BRWHRLACNOR5128
012024042202WHRL4       010WHIRLPOOL   PN           R$  000000000045500000000004650000000000455000000000046400000000004650000000000465000000000046700013000000000000003200000000000001485400000000000000009999123100000010000000000000BRWHRLACNPR2128
012024042202WIZC3       010WIZ CO      ON      NM   R$  000000000071400000000007220000000000703000000000070900000000007060000000000705000000000070601261000000000000373600000000000265222600000000000000009999123100000010000000000000BRWIZCACNOR5101
012024042202WLMM4       010WLM IND COM PN           R$  000000000292500000000029680000000002925000000000296100000000029680000000002401000000000295300006000000000000002100000000000006219900000000000000009999123100000010000000000000BRWLMMACNPR3117
012024042202YDUQ3       010YDUQS PART  ON      NM   R$  000000000140500000000014360000000001390000000000141000000000014080000000001408000000000141111885000000000003087100000000004355184000000000000000009999123100000010000000000000BRYDUQACNOR3104
012024042202CRFB3       010CARREFOUR BRON      NM   R$  000000000113300000000011440000000001117000000000112600000000011230000000001122000000000112306114000000000002165200000000002438812000000000000000009999123100000010000000000000BRCRFBACNOR2116
012024042202CRPG5       010CRISTAL     PNA          R$  000000000310100000000031130000000002999000000000302600000000030010000000003001000000000304900027000000000000004600000000000013922300000000000000009999123100000010000000000000BRCRPGACNPA3118
012024042202CRPG6       010CRISTAL     PNB          R$  000000000299500000000029960000000002973000000000298800000000029730000000002961000000000299500003000000000000000300000000000000896400000000000000009999123100000010000000000000BRCRPGACNPB1118
012024042202CSAN3       010COSAN       ON      NM   R$  000000000144500000000014810000000001439000000000146200000000014560000000001456000000000145716549000000000010874200000000015898915500000000000000009999123100000010000000000000BRCSANACNOR6124
012024042202ENEV3       010ENEVA       ON      NM   R$  000000000123400000000012490000000001221000000000123900000000012440000000001241000000000124514866000000000010952500000000013578955600000000000000009999123100000010000000000000BRENEVACNOR8105
012024042202ENGI11      010ENERGISA    UNT     N2   R$  000000000461700000000047480000000004589000000000467800000000046890000000004687000000000472715710000000000003502300000000016384521800000000000000009999123100000010000000000000BRENGICDAM16135
012024042202ENGI3       010ENERGISA    ON      N2   R$  000000000146000000000015340000000001460000000000150100000000015000000000001480000000000150000067000000000000007000000000000010507000000000000000009999123100000010000000000000BRENGIACNOR0145
012024042202ENGI4       010ENERGISA    PN      N2   R$  000000000079100000000008070000000000780000000000080100000000008000000000000800000000000080800102000000000000032300000000000025893800000000000000009999123100000010000000000000BRENGIACNPR7141
012024042202ENJU3       010ENJOEI      ON      NM   R$  000000000019800000000002120000000000188000000000020000000000001960000000000192000000000019601416000000000001477500000000000296515800000000000000009999123100000010000000000000BRENJUACNOR9100
012024042202RCSL3       010RECRUSUL    ON           R$  000000000015600000000001610000000000153000000000015700000000001600000000000160000000000016101139000000000001032300000000000162765800000000000000009999123100000010000000000000BRRCSLACNOR4133
012024042202RCSL4       010RECRUSUL    PN           R$  000000000005100000000000520000000000050000000000005000000000000510000000000051000000000005201418000000000001056100000000000053850100000000000000009999123100000010000000000000BRRCSLACNPR1133
012024042202RDNI3       010RNI         ON      NM   R$  000000000035400000000003600000000000354000000000035900000000003600000000000356000000000036000013000000000000003400000000000001221900000000000000009999123100000010000000000000BRRDNIACNOR9116
012024042202RDOR3       010REDE D OR   ON      NM   R$  000000000244000000000025000000000002438000000000248100000000024810000000002474000000000248114424000000000003436600000000008529350300000000000000009999123100000010000000000000BRRDORACNOR8112
012024042202RECV3       010PETRORECSA  ON      NM   R$  000000000209500000000020960000000002038000000000206000000000020550000000002054000000000205713707000000000004317600000000008895852600000000000000009999123100000010000000000000BRRECVACNOR3105
012024042202REDE3       010REDE ENERGIAON           R$  000000000068700000000006990000000000685000000000069100000000006950000000000689000000000069900007000000000000000800000000000000552800000000000000009999123100000010000000000000BRREDEACNOR7127
012024042202EPAR3       010EMBPAR S/A  ON           R$  000000000075200000000007520000000000747000000000074800000000007470000000000747000000000075900019000000000000004100000000000003067900000000000000009999123100000010000000000000BREPARACNOR9104
012024042202EQMA3B      010EQTLMARANHAOON      MB   R$  000000000295000000000029500000000002950000000000295000000000029500000000002901000000000295000002000000000000000200000000000000590000000000000000009999123100000010000000000000BREQMAACNOR8107
012024042202EQPA3       010EQTL PARA   ON           R$  000000000081300000000008230000000000807000000000081300000000008150000000000807000000000082600044000000000000016800000000000013663500000000000000009999123100000010000000000000BREQPAACNOR1110
012024042202EQTL3       010EQUATORIAL  ON      NM   R$  000000000311600000000031480000000003104000000000313000000000031240000000003123000000000313113838000000000003991000000000012492228500000000000000009999123100000010000000000000BREQTLACNOR0129
012024042202IGTI11      010IGUATEMI S.AUNT ED  N1   R$  000000000206800000000021050000000002062000000000208700000000020920000000002082000000000209413697000000000004141300000000008646717200000000000000009999123100000010000000000000BRIGTICDAM16106
012024042202IGTI3       010IGUATEMI S.AON  ED  N1   R$  000000000029700000000002990000000000295000000000029600000000002980000000000297000000000029900041000000000000015700000000000004660200000000000000009999123100000010000000000000BRIGTIACNOR8106
012024042202INEP3       010INEPAR      ON           R$  000000000034300000000003480000000000308000000000031300000000003080000000000308000000000030900646000000000000200400000000000062855800000000000000009999123100000010000000000000BRINEPACNOR1143
012024042202INEP4       010INEPAR      PN           R$  000000000030000000000003000000000000282000000000028700000000002900000000000284000000000029000120000000000000050000000000000014370900000000000000009999123100000010000000000000BRINEPACNPR8143
012024042202INTB3       010INTELBRAS   ON      NM   R$  000000000186300000000018790000000001825000000000185500000000018600000000001855000000000186204237000000000001215200000000002254669600000000000000009999123100000010000000000000BRINTBACNOR9111
012024042202RENT3       010LOCALIZA    ON      NM   R$  000000000505600000000050570000000004911000000000496500000000049540000000004954000000000496032133000000000010471800000000051997397300000000000000009999123100000010000000000000BRRENTACNOR4195
012024042202TASA3       010TAURUS ARMASON      N2   R$  000000000130900000000013390000000001307000000000131800000000013150000000001308000000000133200045000000000000007300000000000009628400000000000000009999123100000010000000000000BRTASAACNOR7103
012024042202TASA4       010TAURUS ARMASPN      N2   R$  000000000123200000000012500000000001222000000000123700000000012350000000001234000000000123901111000000000000258700000000000320039400000000000000009999123100000010000000000000BRTASAACNPR4103
012024042202TCSA3       010TECNISA     ON      NM   R$  000000000024800000000002500000000000242000000000024600000000002420000000000242000000000024500132000000000000069100000000000017014300000000000000009999123100000010000000000000BRTCSAACNOR3112
012024042202TECN3       010TECHNOS     ON      NM   R$  000000000045800000000004580000000000442000000000044700000000004440000000000444000000000044500336000000000000087300000000000039065200000000000000009999123100000010000000000000BRTECNACNOR6109
012024042202TELB3       010TELEBRAS    ON           R$  000000000139800000000013980000000001350000000000136800000000013560000000001355000000000138800010000000000000001000000000000001368300000000000000009999123100000010000000000000BRTELBACNOR2140
012024042202TELB4       010TELEBRAS    PN           R$  000000000094700000000009500000000000942000000000094300000000009430000000000942000000000095000010000000000000001200000000000001132400000000000000009999123100000010000000000000BRTELBACNPR9140
012024042202TEND3       010TENDA       ON      NM   R$  000000000120900000000012220000000001181000000000119500000000011880000000001187000000000118906136000000000001890100000000002260125800000000000000009999123100000010000000000000BRTENDACNOR4111
012024042202TFCO4       010TRACK FIELD PN      N2   R$  000000000114700000000011580000000001142000000000115200000000011540000000001150000000000115400242000000000000063700000000000073387500000000000000009999123100000010000000000000BRTFCOACNPR8112
012024042202MAPT4       010CEMEPE      PN           R$  000000000084000000000008400000000000750000000000078600000000007800000000000715000000000078000022000000000000006200000000000004878000000000000000009999123100000010000000000000BRMAPTACNPR5106
012024042202MATD3       010MATER DEI   ON      NM   R$  000000000057600000000005850000000000557000000000056900000000005580000000000558000000000056701576000000000000406600000000000231757400000000000000009999123100000010000000000000BRMATDACNOR4103
012024042202MBLY3       010MOBLY       ON      NM   R$  000000000023900000000002440000000000237000000000024000000000002410000000000240000000000024100518000000000000605500000000000145895600000000000000009999123100000010000000000000BRMBLYACNOR5100
012024042202MDIA3       010M.DIASBRANCOON      NM   R$  000000000345000000000034500000000003414000000000342400000000034150000000003415000000000342303192000000000000566800000000001940849900000000000000009999123100000010000000000000BRMDIAACNOR7134
012024042202MDNE3       010MOURA DUBEUXON      NM   R$  000000000124200000000012440000000001198000000000122000000000012130000000001213000000000121902618000000000000417000000000000509011400000000000000009999123100000010000000000000BRMDNEACNOR9100
012024042202MEAL3       010IMC S/A     ON      NM   R$  000000000015200000000001570000000000151000000000015300000000001560000000000153000000000015600973000000000000917600000000000140996600000000000000009999123100000010000000000000BRMEALACNOR9105
012024042202TGMA3       010TEGMA       ON  EDJ NM   R$  000000000244900000000024740000000002426000000000244400000000024500000000002443000000000245001278000000000000156800000000000383306300000000000000009999123100000010000000000000BRTGMAACNOR7144
012024042202TIMS3       010TIM         ON      NM   R$  000000000174000000000017640000000001730000000000174000000000017340000000001734000000000173711285000000000003633100000000006324835900000000000000009999123100000010000000000000BRTIMSACNOR5116
012024042202TOTS3       010TOTVS       ON      NM   R$  000000000279500000000029070000000002795000000000288200000000028890000000002888000000000289036578000000000012355900000000035619836300000000000000009999123100000010000000000000BRTOTSACNOR8144
012024042202VLID3       010VALID       ON      NM   R$  000000000177200000000017950000000001757000000000177600000000017760000000001775000000000178001734000000000000300400000000000533745600000000000000009999123100000010000000000000BRVLIDACNOR5141
012024042202IRBR3       010IRBBRASIL REON      NM   R$  000000000397800000000041170000000003955000000000404900000000040770000000004076000000000409305211000000000001229800000000004979955700000000000000009999123100000010000000000000BRIRBRACNOR4111
012024042202VSTE3       010VESTE       ON      NM   R$  000000000142900000000015110000000001429000000000147400000000015110000000001444000000000152500014000000000000001400000000000002064000000000000000009999123100000010000000000000BRVSTEACNOR5102
012024042202VULC3       010VULCABRAS   ON      NM   R$  000000000159400000000016180000000001590000000000160300000000016020000000001600000000000160302358000000000000455100000000000729682100000000000000009999123100000010000000000000BRVULCACNOR2158
012024042202VVEO3       010VIVEO       ON      NM   R$  000000000063800000000006640000000000634000000000065100000000006550000000000655000000000066002217000000000000551200000000000358965900000000000000009999123100000010000000000000BRVVEOACNOR0103
012024042202AALR3       010ALLIAR      ON      NM   R$  000000000100100000000010670000000000968000000000101100000000010020000000001001000000000101100847000000000000374800000000000379034000000000000000009999123100000010000000000000BRAALRACNOR6102
012024042202ABCB4       010ABC BRASIL  PN      N2   R$  000000000228500000000023230000000002243000000000228700000000023150000000002310000000000231803207000000000000566100000000001294728100000000000000009999123100000010000000000000BRABCBACNPR4145
012024042202MELK3       010MELNICK     ON      NM   R$  000000000045500000000004650000000000455000000000046000000000004590000000000459000000000046400214000000000000055800000000000025700200000000000000009999123100000010000000000000BRMELKACNOR8110
012024042202MGEL4       010MANGELS INDLPN           R$  000000000175200000000017820000000001751000000000175600000000017820000000001740000000000184400006000000000000001100000000000001932600000000000000009999123100000010000000000000BRMGELACNPR3147
012024042202MGLU3       010MAGAZ LUIZA ON      NM   R$  000000000015400000000001560000000000150000000000015300000000001530000000000153000000000015422939000000000111511900000000017068757700000000000000009999123100000010000000000000BRMGLUACNOR2123
012024042202AERI3       010AERIS       ON      NM   R$  000000000005700000000000600000000000056000000000005700000000000570000000000057000000000005802519000000000002948800000000000169167400000000000000009999123100000010000000000000BRAERIACNOR4101
012024042202EZTC3       010EZTEC       ON      NM   R$  000000000135700000000013700000000001338000000000135200000000013570000000001355000000000136103845000000000001191100000000001611537900000000000000009999123100000010000000000000BREZTCACNOR0124
012024042202FESA4       010FERBASA     PN      N1   R$  000000000083300000000008350000000000815000000000082100000000008190000000000818000000000081902611000000000000887200000000000729008000000000000000009999123100000010000000000000BRFESAACNPR5083
012024042202LOGN3       010LOG-IN      ON      NM   R$  000000000374800000000038200000000003718000000000377600000000037750000000003775000000000382000109000000000000017800000000000067223500000000000000009999123100000010000000000000BRLOGNACNOR3105
012024042202LPSB3       010LOPES BRASILON      NM   R$  000000000020500000000002220000000000205000000000021000000000002200000000000216000000000022200265000000000000473300000000000099782800000000000000009999123100000010000000000000BRLPSBACNOR0113
012024042202LREN3       010LOJAS RENNERON      NM   R$  000000000157000000000016000000000001552000000000157100000000015590000000001559000000000156424390000000000008988100000000014127184000000000000000009999123100000010000000000000BRLRENACNOR1220
012024042202LUPA3       010LUPATECH    ON      NM   R$  000000000016000000000001600000000000150000000000015500000000001550000000000155000000000015600481000000000000254400000000000039467700000000000000009999123100000010000000000000BRLUPAACNOR8112
012024042202LVTC3       010WDC NETWORKSON      NM   R$  000000000038500000000003870000000000375000000000038000000000003780000000000378000000000038000074000000000000034300000000000013059300000000000000009999123100000010000000000000BRLVTCACNOR4102
012024042202LWSA3       010LWSA        ON      NM   R$  000000000048800000000004980000000000483000000000049000000000004900000000000489000000000049109035000000000005145700000000002523107200000000000000009999123100000010000000000000BRLWSAACNOR8103
012024042202PDGR3       010PDG REALT   ON      NM   R$  000000000002400000000000250000000000022000000000002300000000000250000000000024000000000002500560000000000003901000000000000092129500000000000000009999123100000010000000000000BRPDGRACNOR8118
012024042202PDTC3       010PADTEC      ON      NM   R$  000000000023000000000002330000000000228000000000023000000000002330000000000230000000000023300047000000000000017000000000000003925800000000000000009999123100000010000000000000BRPDTCACNOR3100
012024042202PETR3       010PETROBRAS   ON      N2   R$  000000000429500000000043860000000004270000000000433700000000043760000000004375000000000437733652000000000013007200000000056424410500000000000000009999123100000010000000000000BRPETRACNOR9202
012024042202PETR4       010PETROBRAS   PN      N2   R$  000000000407600000000041590000000004052000000000411700000000041500000000004150000000000415176789000000000051775500000000213211239100000000000000009999123100000010000000000000BRPETRACNPR6210
012024042202FHER3       010FER HERINGERON      NM   R$  000000000050100000000005120000000000501000000000050200000000005040000000000503000000000050400022000000000000008400000000000004222400000000000000009999123100000010000000000000BRFHERACNOR5103
012024042202FIQE3       010UNIFIQUE    ON      NM   R$  000000000037900000000003880000000000378000000000038200000000003810000000000380000000000038100326000000000000125700000000000048091100000000000000009999123100000010000000000000BRFIQEACNOR5106
012024042202ITSA3       010ITAUSA      ON      N1   R$  000000000095900000000009600000000000947000000000095300000000009520000000000952000000000095700367000000000000106800000000000101791000000000000000009999123100000010000000000000BRITSAACNOR0439
012024042202ITSA4       010ITAUSA      PN      N1   R$  000000000095500000000009590000000000945000000000095100000000009520000000000951000000000095327691000000000014231500000000013537333600000000000000009999123100000010000000000000BRITSAACNPR7439
012024042202ALPA4       010ALPARGATAS  PN      N1   R$  000000000090000000000009240000000000872000000000090500000000009160000000000915000000000091609894000000000003712100000000003360924400000000000000009999123100000010000000000000BRALPAACNPR7232
012024042202ALPK3       010ESTAPAR     ON      NM   R$  000000000040500000000004140000000000403000000000040500000000004090000000000405000000000040900353000000000000094500000000000038361200000000000000009999123100000010000000000000BRALPKACNOR9101
012024042202ALUP11      010ALUPAR      UNT EDB N2   R$  000000000284700000000028510000000002797000000000282700000000028230000000002822000000000282403455000000000000806700000000002280710100000000000000009999123100000010000000000000BRALUPCDAM15118
012024042202ALUP3       010ALUPAR      ON  EDB N2   R$  000000000101200000000010240000000000969000000000097900000000009810000000000980000000000098100181000000000000029800000000000029192900000000000000009999123100000010000000000000BRALUPACNOR8118
012024042202ALUP4       010ALUPAR      PN  EDB N2   R$  000000000092500000000009380000000000912000000000092500000000009280000000000925000000000092900224000000000000033900000000000031388500000000000000009999123100000010000000000000BRALUPACNPR5118
012024042202AMAR3       010LOJAS MARISAON      NM   R$  000000000016500000000001760000000000164000000000017200000000001760000000000174000000000017600724000000000000360700000000000062381200000000000000009999123100000010000000000000BRAMARACNOR4114
012024042202AMBP3       010AMBIPAR     ON      NM   R$  000000000106400000000010840000000001050000000000106600000000010750000000001073000000000107803002000000000000812200000000000865823000000000000000009999123100000010000000000000BRAMBPACNOR6103
012024042202CAMB3       010CAMBUCI     ON           R$  000000000104000000000010550000000001032000000000104600000000010320000000001031000000000103800129000000000000031800000000000033270700000000000000009999123100000010000000000000BRCAMBACNOR4128
012024042202CAML3       010CAMIL       ON      NM   R$  000000000080000000000008170000000000792000000000080500000000008140000000000812000000000081401183000000000000322800000000000259920300000000000000009999123100000010000000000000BRCAMLACNOR3127
012024042202CASH3       010MELIUZ      ON      NM   R$  000000000046400000000004720000000000455000000000046000000000004570000000000457000000000046004151000000000002773900000000001277672600000000000000009999123100000010000000000000BRCASHACNOR8106
012024042202CBAV3       010CBA         ON      NM   R$  000000000051500000000005220000000000502000000000051200000000005120000000000511000000000051205782000000000004168700000000002137409700000000000000009999123100000010000000000000BRCBAVACNOR5104
012024042202CCRO3       010CCR SA      ON  ED  NM   R$  000000000125900000000012780000000001257000000000126500000000012570000000001256000000000126110917000000000004860400000000006149885800000000000000009999123100000010000000000000BRCCROACNOR2145
012024042202DASA3       010DASA        ON      NM   R$  000000000042400000000004520000000000420000000000043500000000004310000000000430000000000043202125000000000000459100000000000199828600000000000000009999123100000010000000000000BRDASAACNOR1122
012024042202DESK3       010DESKTOP     ON  ED  NM   R$  000000000128700000000013230000000001277000000000130500000000013180000000001304000000000131800623000000000000092300000000000120504800000000000000009999123100000010000000000000BRDESKACNOR2104
012024042202DEXP3       010DEXXOS PAR  ON      N1   R$  000000000106600000000010790000000001040000000000106000000000010650000000001063000000000106500393000000000000081000000000000085871700000000000000009999123100000010000000000000BRDEXPACNOR1104
012024042202DEXP4       010DEXXOS PAR  PN      N1   R$  000000000103500000000010350000000001035000000000103500000000010350000000001035000000000106900002000000000000000900000000000000931500000000000000009999123100000010000000000000BRDEXPACNPR8104
012024042202DIRR3       010DIRECIONAL  ON      NM   R$  000000000223200000000022580000000002202000000000223500000000022460000000002242000000000225006489000000000001359100000000003037614400000000000000009999123100000010000000000000BRDIRRACNOR0117
012024042202DMVF3       010D1000VFARMA ON      NM   R$  000000000081900000000008330000000000772000000000080300000000007830000000000781000000000078300988000000000000237700000000000191000200000000000000009999123100000010000000000000BRDMVFACNOR9100
012024042202DOHL4       010DOHLER      PN           R$  000000000045700000000004580000000000457000000000045700000000004580000000000440000000000045800002000000000000000200000000000000091500000000000000009999123100000010000000000000BRDOHLACNPR9066
012024042202KRSA3       010KORA SAUDE  ON      NM   R$  000000000007600000000000800000000000074000000000007700000000000750000000000074000000000007500319000000000000970300000000000074728200000000000000009999123100000010000000000000BRKRSAACNOR0100
012024042202LAND3       010TERRASANTAPAON      NM   R$  000000000152800000000015280000000001480000000000151400000000015250000000001525000000000152700166000000000000050000000000000075724000000000000000009999123100000010000000000000BRLANDACNOR9102
012024042202ODPV3       010ODONTOPREV  ON  ED  NM   R$  000000000108500000000010970000000001083000000000108800000000010850000000001084000000000109002884000000000001637400000000001781580500000000000000009999123100000010000000000000BRODPVACNOR4200
012024042202OFSA3       010OUROFINO S/AON      NM   R$  000000000217000000000022350000000002170000000000217200000000021700000000002151000000000218900025000000000000004500000000000009777500000000000000009999123100000010000000000000BROFSAACNOR7117
012024042202ONCO3       010ONCOCLINICASON      NM   R$  000000000070000000000007270000000000693000000000071500000000007250000000000721000000000072605837000000000001897500000000001357243000000000000000009999123100000010000000000000BRONCOACNOR6100
012024042202OPCT3       010OCEANPACT   ON      NM   R$  000000000063400000000006430000000000630000000000063700000000006390000000000636000000000063902431000000000000791100000000000504288700000000000000009999123100000010000000000000BROPCTACNOR0100
012024042202ORVR3       010ORIZON      ON      NM   R$  000000000362000000000036200000000003553000000000357000000000035670000000003567000000000357001104000000000000168900000000000603133500000000000000009999123100000010000000000000BRORVRACNOR0101
012024042202CPFE3       010CPFL ENERGIAON      NM   R$  000000000350400000000035090000000003455000000000348800000000034980000000003497000000000349809186000000000001878400000000006552817300000000000000009999123100000010000000000000BRCPFEACNOR0136
012024042202ELMD3       010ELETROMIDIA ON      NM   R$  000000000175300000000017800000000001746000000000176400000000017660000000001746000000000176800283000000000000044200000000000077976900000000000000009999123100000010000000000000BRELMDACNOR3100
012024042202EMAE4       010EMAE        PN           R$  000000000567500000000060000000000005246000000000552500000000052460000000005234000000000528900150000000000000025300000000000139792800000000000000009999123100000010000000000000BREMAEACNPR1125
012024042202EMBR3       010EMBRAER     ON      NM   R$  000000000313500000000031800000000003094000000000313400000000031360000000003135000000000313818943000000000005984900000000018759238800000000000000009999123100000010000000000000BREMBRACNOR4191
012024042202ENAT3       010ENAUTA PART ON      NM   R$  000000000266100000000027150000000002613000000000267100000000026890000000002687000000000269005350000000000001183100000000003161167800000000000000009999123100000010000000000000BRENATACNOR0104
012024042202IFCM3       010INFRACOMM   ON      NM   R$  000000000007100000000000740000000000071000000000007200000000000720000000000072000000000007303065000000000006413200000000000462589700000000000000009999123100000010000000000000BRIFCMACNOR8101
012024042202LOGG3       010LOG COM PROPON      NM   R$  000000000218300000000022040000000002155000000000217400000000021630000000002155000000000216300982000000000000119900000000000260713900000000000000009999123100000010000000000000BRLOGGACNOR7107
012024042202HYPE3       010HYPERA      ON      NM   R$  000000000282300000000029250000000002822000000000289800000000029000000000002895000000000290916793000000000004237900000000012284968300000000000000009999123100000010000000000000BRHYPEACNOR0139
012024042202HBTS5       010HABITASUL   PNA          R$  000000000420100000000045890000000004201000000000439500000000045890000000003900000000000455900002000000000000000200000000000000879000000000000000009999123100000010000000000000BRHBTSACNPA3127
012024042202JHSF3       010JHSF PART   ON      NM   R$  000000000043100000000004310000000000420000000000042300000000004200000000000420000000000042404765000000000002694400000000001141239800000000000000009999123100000010000000000000BRJHSFACNOR2134
012024042202JOPA3       010JOSAPAR     ON           R$  000000000210100000000021010000000002101000000000210100000000021010000000002100000000000230000002000000000000000200000000000000420200000000000000009999123100000010000000000000BRJOPAACNOR5134
012024042202JSLG3       010JSL         ON      NM   R$  000000000123300000000012360000000001208000000000122000000000012230000000001222000000000123502203000000000000359700000000000438862900000000000000009999123100000010000000000000BRJSLGACNOR2121
012024042202KEPL3       010KEPLER WEBERON      NM   R$  000000000100500000000010050000000000982000000000098800000000009910000000000988000000000099102359000000000000718100000000000709561200000000000000009999123100000010000000000000BRKEPLACNOR1062
012024042202KLBN11      010KLABIN S/A  UNT     N2   R$  000000000245700000000024600000000002403000000000241300000000024090000000002406000000000240911640000000000004461300000000010765725600000000000000009999123100000010000000000000BRKLBNCDAM18140
012024042202LAVV3       010LAVVI       ON      NM   R$  000000000086000000000008720000000000852000000000085900000000008520000000000852000000000085802514000000000000893700000000000767904300000000000000009999123100000010000000000000BRLAVVACNOR4111
012024042202LEVE3       010METAL LEVE  ON      NM   R$  000000000334100000000033810000000003308000000000334800000000033630000000003362000000000336302624000000000000545000000000001824896700000000000000009999123100000010000000000000BRLEVEACNOR2196
012024042202LJQQ3       010QUERO-QUERO ON      NM   R$  000000000047300000000004800000000000457000000000047100000000004770000000000476000000000048005939000000000002562400000000001207156900000000000000009999123100000010000000000000BRLJQQACNOR5104
012024042202BIOM3       010BIOMM       ON      MA   R$  000000000171100000000017760000000001635000000000169900000000016360000000001636000000000164600506000000000000091500000000000155542900000000000000009999123100000010000000000000BRBIOMACNOR2112
012024042202DOTZ3       010DOTZ SA     ON      NM   R$  000000000056000000000005980000000000533000000000056500000000005470000000000547000000000055800110000000000000024500000000000013850800000000000000009999123100000010000000000000BRDOTZACNOR7101
012024042202DXCO3       010DEXCO       ON      NM   R$  000000000072200000000007270000000000712000000000071800000000007170000000000716000000000071907422000000000002461900000000001769052900000000000000009999123100000010000000000000BRDXCOACNOR8105
012024042202GGPS3       010GPS         ON  ED  NM   R$  000000000187200000000019000000000001868000000000188900000000018830000000001883000000000188906317000000000001796000000000003393191200000000000000009999123100000010000000000000BRGGPSACNOR9103
012024042202GMAT3       010GRUPO MATEUSON      NM   R$  000000000075000000000007520000000000734000000000074100000000007430000000000743000000000074406644000000000002483300000000001842430100000000000000009999123100000010000000000000BRGMATACNOR7101
012024042202GOAU3       010GERDAU MET  ON      N1   R$  000000000111800000000011410000000001102000000000112700000000011050000000001104000000000113100392000000000000079100000000000089196500000000000000009999123100000010000000000000BRGOAUACNOR1266
012024042202GOAU4       010GERDAU MET  PN      N1   R$  000000000109800000000011280000000001076000000000111200000000011130000000001112000000000111319491000000000021081600000000023446808100000000000000009999123100000010000000000000BRGOAUACNPR8267
012024042202PCAR3       010P.ACUCAR-CBDON      NM   R$  000000000024900000000002570000000000242000000000024900000000002480000000000247000000000024814589000000000046260000000000011531810100000000000000009999123100000010000000000000BRPCARACNOR3167
012024042202CEAB3       010CEA MODAS   ON      NM   R$  000000000106900000000011090000000001045000000000108400000000010860000000001081000000000108609835000000000004118800000000004466619200000000000000009999123100000010000000000000BRCEABACNOR1102
012024042202CEBR3       010CEB         ON           R$  000000000216200000000028000000000002140000000000254900000000025200000000002520000000000254400352000000000000063300000000000161354200000000000000009999123100000010000000000000BRCEBRACNOR5124
012024042202CEBR5       010CEB         PNA          R$  000000000200800000000020980000000002006000000000205300000000020980000000002040000000000209900051000000000000015000000000000030803600000000000000009999123100000010000000000000BRCEBRACNPA8123
012024042202CEBR6       010CEB         PNB          R$  000000000212600000000023200000000002109000000000225300000000022520000000002252000000000228000074000000000000013400000000000030200300000000000000009999123100000010000000000000BRCEBRACNPB6123
012024042202CEDO3       010CEDRO       ON      N1   R$  000000000325500000000032760000000003250000000000325900000000032760000000003250000000000330000011000000000000003100000000000010104700000000000000009999123100000010000000000000BRCEDOACNOR8096
012024042202CEEB3       010COELBA      ON  ED       R$  000000000384300000000038430000000003744000000000383600000000038420000000003770000000000384300005000000000000002300000000000008824700000000000000009999123100000010000000000000BRCEEBACNOR3198
012024042202CGAS5       010COMGAS      PNA          R$  000000001140000000000115370000000011400000000001147900000000115000000000011390000000001149800003000000000000000300000000000003443700000000000000009999123100000010000000000000BRCGASACNPA3160
012024042202SYNE3       010SYN PROP TECON      NM   R$  000000000086000000000008710000000000851000000000085900000000008600000000000852000000000086000811000000000000247300000000000212556600000000000000009999123100000010000000000000BRSYNEACNOR2102
012024042202TAEE11      010TAESA       UNT     N2   R$  000000000357000000000035820000000003551000000000357000000000035800000000003573000000000358106222000000000001461600000000005219304500000000000000009999123100000010000000000000BRTAEECDAM10145
012024042202TAEE3       010TAESA       ON      N2   R$  000000000118500000000011870000000001179000000000118400000000011870000000001184000000000118700282000000000000052200000000000061806600000000000000009999123100000010000000000000BRTAEEACNOR9145
012024042202TAEE4       010TAESA       PN      N2   R$  000000000119200000000011970000000001188000000000119200000000011960000000001194000000000119600519000000000000152500000000000181928300000000000000009999123100000010000000000000BRTAEEACNPR6145
012024042202VBBR3       010VIBRA       ON  ED  NM   R$  000000000231000000000023500000000002301000000000232400000000023170000000002316000000000232022403000000000005743100000000013350660600000000000000009999123100000010000000000000BRVBBRACNOR1107
012024042202CTNM4       010COTEMINAS   PN           R$  000000000010900000000001140000000000107000000000011100000000001120000000000110000000000011200065000000000000026800000000000002988000000000000000009999123100000010000000000000BRCTNMACNPR6129
012024042202CTSA3       010SANTANENSE  ON           R$  000000000026100000000002610000000000261000000000026100000000002610000000000254000000000026400002000000000000003100000000000000809100000000000000009999123100000010000000000000BRCTSAACNOR3062
012024042202CTSA4       010SANTANENSE  PN           R$  000000000013200000000001370000000000131000000000013300000000001310000000000131000000000013300057000000000000031400000000000004189200000000000000009999123100000010000000000000BRCTSAACNPR0062
012024042202CURY3       010CURY S/A    ON      NM   R$  000000000187100000000019080000000001865000000000188600000000018880000000001883000000000189310175000000000001956500000000003690990300000000000000009999123100000010000000000000BRCURYACNOR3107
012024042202CVCB3       010CVC BRASIL  ON      NM   R$  000000000019700000000002150000000000196000000000020500000000002130000000000212000000000021309290000000000025501200000000005229407100000000000000009999123100000010000000000000BRCVCBACNOR1115
012024042202FLRY3       010FLEURY      ON      NM   R$  000000000140200000000014090000000001387000000000140000000000014010000000001401000000000140407827000000000003187800000000004465220100000000000000009999123100000010000000000000BRFLRYACNOR5138
012024042202VITT3       010VITTIA      ON  EB  NM   R$  000000000056000000000005740000000000548000000000056400000000005620000000000562000000000056801401000000000000589300000000000332844900000000000000009999123100000010000000000000BRVITTACNOR4107
012024042202VIVA3       010VIVARA S.A. ON      NM   R$  000000000221800000000022750000000002204000000000224400000000022460000000002246000000000224805136000000000001542300000000003462006700000000000000009999123100000010000000000000BRVIVAACNOR0106
012024042202VIVR3       010VIVER       ON      NM   R$  000000000030200000000003080000000000295000000000029900000000002960000000000296000000000030500155000000000000035800000000000010733400000000000000009999123100000010000000000000BRVIVRACNOR4122
012024042202VIVT3       010TELEF BRASILON  ER       R$  000000000487100000000049200000000004838000000000486700000000048800000000004855000000000488107568000000000001667000000000008113948500000000000000009999123100000010000000000000BRVIVTACNOR0180
012024042202RADL3       010RAIADROGASILON  ED  NM   R$  000000000255900000000025860000000002546000000000256200000000025530000000002553000000000255915131000000000006581500000000016868078400000000000000009999123100000010000000000000BRRADLACNOR0156
012024042202RAIL3       010RUMO S.A.   ON      NM   R$  000000000212500000000021300000000002098000000000211300000000021090000000002108000000000211018023000000000008107500000000017134617800000000000000009999123100000010000000000000BRRAILACNOR9104
012024042202GEPA4       010GER PARANAP PN           R$  000000000270000000000027600000000002668000000000274500000000027600000000002701000000000276000007000000000000001200000000000003294400000000000000009999123100000010000000000000BRGEPAACNPR9159
012024042202GFSA3       010GAFISA      ON      NM   R$  000000000058100000000005820000000000565000000000057400000000005760000000000575000000000057701335000000000000795400000000000456936600000000000000009999123100000010000000000000BRGFSAACNOR3124
012024042202GGBR3       010GERDAU      ON  EB  N1   R$  000000000169700000000017380000000001673000000000170400000000017200000000001711000000000172200407000000000000104900000000000178842000000000000000009999123100000010000000000000BRGGBRACNOR1191
012024042202GGBR4       010GERDAU      PN  EB  N1   R$  000000000192400000000020010000000001892000000000196600000000019620000000001962000000000196443734000000000022240200000000043737986700000000000000009999123100000010000000000000BRGGBRACNPR8191
012024042202ITUB3       010ITAUUNIBANCOON      N1   R$  000000000273200000000027570000000002725000000000274000000000027420000000002741000000000274401203000000000000314600000000000862006000000000000000009999123100000010000000000000BRITUBACNOR4334
012024042202ITUB4       010ITAUUNIBANCOPN      N1   R$  000000000316400000000031740000000003128000000000315300000000031530000000003152000000000315444281000000000021715600000000068487251100000000000000009999123100000010000000000000BRITUBACNPR1334
012024042202MILS3       010MILLS       ON      NM   R$  000000000132100000000013500000000001306000000000133800000000013500000000001344000000000135004444000000000001823900000000002440856700000000000000009999123100000010000000000000BRMILSACNOR2125
012024042202SNSY3       010SANSUY      ON           R$  000000000108000000000011300000000001040000000000110600000000011300000000001130000000000114300014000000000000002200000000000002435200000000000000009999123100000010000000000000BRSNSYACNOR2113
012024042202SNSY5       010SANSUY      PNA          R$  000000000062300000000006390000000000621000000000062800000000006380000000000624000000000063900013000000000000003700000000000002324800000000000000009999123100000010000000000000BRSNSYACNPA5111
012024042202SOJA3       010BOA SAFRA   ON      NM   R$  000000000169500000000017720000000001685000000000172900000000017600000000001759000000000176004257000000000001853400000000003204564400000000000000009999123100000010000000000000BRSOJAACNOR9105
012024042202SOMA3       010GRUPO SOMA  ON      NM   R$  000000000060700000000006290000000000599000000000061600000000006290000000000627000000000062915812000000000012752600000000007857840800000000000000009999123100000010000000000000BRSOMAACNOR3102
012024042202BHIA3       010CASAS BAHIA ON      NM   R$  000000000062400000000006510000000000613000000000063100000000006250000000000625000000000062606684000000000006125400000000003866523800000000000000009999123100000010000000000000BRBHIAACNOR1101
012024042202BRBI11      010BR PARTNERS UNT     N2   R$  000000000149800000000014980000000001455000000000147000000000014600000000001459000000000147801622000000000000243100000000000357558400000000000000009999123100000010000000000000BRBRBICDAM10108
012024042202BRFS3       010BRF SA      ON      NM   R$  000000000170600000000017240000000001663000000000170300000000017160000000001715000000000171619810000000000007049100000000012009247500000000000000009999123100000010000000000000BRBRFSACNOR8121
012024042202BRIT3       010BRISANET    ON      NM   R$  000000000042300000000004300000000000413000000000042200000000004240000000000423000000000042501489000000000000552100000000000233199200000000000000009999123100000010000000000000BRBRITACNOR0102
012024042202CSUD3       010CSU DIGITAL ON      NM   R$  000000000176300000000017710000000001724000000000173800000000017240000000001724000000000172500211000000000000040300000000000070044200000000000000009999123100000010000000000000BRCSUDACNOR5108
012024042202CTNM3       010COTEMINAS   ON           R$  000000000086500000000008770000000000865000000000087100000000008770000000000824000000000087000002000000000000000200000000000000174200000000000000009999123100000010000000000000BRCTNMACNOR9130
012024042202SRNA3       010SERENA      ON      NM   R$  000000000088000000000009000000000000876000000000089100000000008760000000000876000000000087706024000000000002905300000000002591007200000000000000009999123100000010000000000000BRSRNAACNOR4100
012024042202STBP3       010SANTOS BRP  ON      NM   R$  000000000131500000000013150000000001279000000000128700000000012790000000001278000000000128808915000000000002809500000000003618016500000000000000009999123100000010000000000000BRSTBPACNOR3129
012024042202SUZB3       010SUZANO S.A. ON      NM   R$  000000000614300000000061860000000006055000000000608600000000060550000000006055000000000605818316000000000004774700000000029061038200000000000000009999123100000010000000000000BRSUZBACNOR0129
012024042202VAMO3       010VAMOS       ON      NM   R$  000000000073700000000007370000000000723000000000072700000000007270000000000727000000000072811861000000000006056900000000004407949800000000000000009999123100000010000000000000BRVAMOACNOR7105
012024042202PRNR3       010PRINER      ON      NM   R$  000000000125100000000012850000000001232000000000126400000000012700000000001265000000000127001885000000000000719100000000000909355900000000000000009999123100000010000000000000BRPRNRACNOR4108
012024042202PSSA3       010PORTO SEGUROON      NM   R$  000000000297200000000029890000000002937000000000295400000000029530000000002951000000000295305359000000000001020900000000003016700900000000000000009999123100000010000000000000BRPSSAACNOR7154
012024042202PTBL3       010PORTOBELLO  ON      NM   R$  000000000060000000000006070000000000590000000000059600000000005920000000000592000000000059800985000000000000247000000000000147345700000000000000009999123100000010000000000000BRPTBLACNOR8132
012024042202PTNT3       010PETTENATI   ON           R$  000000000099000000000009900000000000990000000000099000000000009900000000000981000000000099000001000000000000000100000000000000099000000000000000009999123100000010000000000000BRPTNTACNOR6042
012024042202B3SA3       010B3          ON      NM   R$  000000000112000000000011340000000001117000000000112500000000011270000000001126000000000112939492000000000031325900000000035265119500000000000000009999123100000010000000000000BRB3SAACNOR6132
012024042202BEES3       010BANESTES    ON           R$  000000000088500000000008960000000000880000000000088700000000008820000000000881000000000088300071000000000000010500000000000009318500000000000000009999123100000010000000000000BRBEESACNOR9389
012024042202BEES4       010BANESTES    PN           R$  000000000095600000000009650000000000947000000000095800000000009510000000000949000000000096200034000000000000004800000000000004603100000000000000009999123100000010000000000000BRBEESACNPR6314
012024042202PTNT4       010PETTENATI   PN           R$  000000000075900000000007610000000000736000000000074300000000007360000000000736000000000075000014000000000000004400000000000003269800000000000000009999123100000010000000000000BRPTNTACNPR3047
012024042202QUAL3       010QUALICORP   ON      NM   R$  000000000014700000000001640000000000147000000000015600000000001620000000000161000000000016204031000000000009068600000000001421280700000000000000009999123100000010000000000000BRQUALACNOR6119
012024042202SMFT3       010SMART FIT   ON      NM   R$  000000000237900000000024500000000002373000000000241600000000024160000000002414000000000241811215000000000001673600000000004044399300000000000000009999123100000010000000000000BRSMFTACNOR1111
012024042202SMTO3       010SAO MARTINHOON      NM   R$  000000000280100000000028810000000002778000000000284400000000028530000000002850000000000285306187000000000002029200000000005771510200000000000000009999123100000010000000000000BRSMTOACNOR3125
012024042202AZEV3       010AZEVEDO     ON           R$  000000000014700000000001530000000000144000000000014800000000001530000000000151000000000015300423000000000000370900000000000055184400000000000000009999123100000010000000000000BRAZEVACNOR0121
012024042202AZEV4       010AZEVEDO     PN           R$  000000000014100000000001470000000000135000000000014100000000001420000000000142000000000014301338000000000002025000000000000286719900000000000000009999123100000010000000000000BRAZEVACNPR7121
012024042202AZUL4       010AZUL        PN      N2   R$  000000000100100000000010290000000000993000000000100900000000010130000000001013000000000101412431000000000013120200000000013249649700000000000000009999123100000010000000000000BRAZULACNPR4102
012024042202BBSE3       010BBSEGURIDADEON      NM   R$  000000000329700000000033330000000003270000000000328800000000032940000000003293000000000329709980000000000003602200000000011846938100000000000000009999123100000010000000000000BRBBSEACNOR5124
012024042202SCAR3       010SAO CARLOS  ON      NM   R$  000000000251300000000025440000000002470000000000249300000000024700000000002460000000000247000047000000000000007000000000000017452800000000000000009999123100000010000000000000BRSCARACNOR7130
012024042202SEER3       010SER EDUCA   ON      NM   R$  000000000053900000000005430000000000527000000000053400000000005310000000000530000000000053101881000000000000673500000000000359889200000000000000009999123100000010000000000000BRSEERACNOR5119
012024042202SEQL3       010SEQUOIA LOG ON      NM   R$  000000000004700000000000490000000000046000000000004700000000000460000000000046000000000004702209000000000016124900000000000762296900000000000000009999123100000010000000000000BRSEQLACNOR2102
012024042202SGPS3       010SPRINGS     ON      NM   R$  000000000007500000000000790000000000075000000000007700000000000770000000000077000000000007900245000000000000344700000000000026581300000000000000009999123100000010000000000000BRSGPSACNOR4104
012024042202SHOW3       010TIME FOR FUNON      NM   R$  000000000025100000000002550000000000247000000000024900000000002510000000000245000000000025100318000000000000099400000000000024802800000000000000009999123100000010000000000000BRSHOWACNOR7105
012024042202SHUL4       010SCHULZ      PN           R$  000000000061400000000006170000000000603000000000060900000000006030000000000603000000000060701038000000000000501700000000000305664700000000000000009999123100000010000000000000BRSHULACNPR4155
012024042202SIMH3       010SIMPAR      ON      NM   R$  000000000063100000000006350000000000618000000000062300000000006190000000000619000000000062007881000000000004844800000000003019920800000000000000009999123100000010000000000000BRSIMHACNOR0107
012024042202MLAS3       010MULTILASER  ON      NM   R$  000000000021000000000002110000000000202000000000020500000000002060000000000204000000000020602260000000000002410800000000000494559200000000000000009999123100000010000000000000BRMLASACNOR9101
012024042202MOVI3       010MOVIDA      ON      NM   R$  000000000075600000000007570000000000731000000000073700000000007310000000000730000000000073108684000000000003400200000000002509267500000000000000009999123100000010000000000000BRMOVIACNOR0122
012024042202ASAI3       010ASSAI       ON      NM   R$  000000000134300000000013610000000001324000000000134500000000013560000000001356000000000135716575000000000006410200000000008623526100000000000000009999123100000010000000000000BRASAIACNOR0106
012024042202ATOM3       010ATOMPAR     ON           R$  000000000021500000000002230000000000212000000000021700000000002150000000000215000000000022000120000000000000034200000000000007429400000000000000009999123100000010000000000000BRATOMACNOR1106
012024042202AURE3       010AUREN       ON      NM   R$  000000000118200000000011830000000001165000000000117300000000011750000000001174000000000117605550000000000003030700000000003556792100000000000000009999123100000010000000000000BRAUREACNOR9104
012024042202WEGE3       010WEG         ON      NM   R$  000000000382600000000038570000000003811000000000383300000000038270000000003827000000000383816314000000000005350900000000020510781400000000000000009999123100000010000000000000BRWEGEACNOR0222
012024042202FRAS3       010FRAS-LE     ON      N1   R$  000000000177300000000018270000000001773000000000180600000000018070000000001807000000000182501510000000000000264200000000000477216600000000000000009999123100000010000000000000BRFRASACNOR0158
012024042202BGIP4       010BANESE      PN           R$  000000000227000000000022750000000002260000000000226800000000022600000000002200000000000229900007000000000000000900000000000002041200000000000000009999123100000010000000000000BRBGIPACNPR8208
012024042202BLAU3       010BLAU        ON      NM   R$  000000000102800000000010420000000001026000000000103400000000010350000000001035000000000103601249000000000000236100000000000244217700000000000000009999123100000010000000000000BRBLAUACNOR8112
012024042202EGIE3       010ENGIE BRASILON      NM   R$  000000000400000000000040550000000003990000000000401800000000040180000000004017000000000401809943000000000003499900000000014065953700000000000000009999123100000010000000000000BREGIEACNOR9125
012024042202GRND3       010GRENDENE    ON      NM   R$  000000000060200000000006090000000000601000000000060400000000006030000000000603000000000060601911000000000000625800000000000378189000000000000000009999123100000010000000000000BRGRNDACNOR3172
012024042202GSHP3       010GENERALSHOPPON           R$  000000000108000000000010800000000001080000000000108000000000010800000000001080000000000120000001000000000000000100000000000000108000000000000000009999123100000010000000000000BRGSHPACNOR7102
012024042202GUAR3       010GUARARAPES  ON      NM   R$  000000000073200000000007400000000000717000000000072800000000007370000000000735000000000073805638000000000002149100000000001564912000000000000000009999123100000010000000000000BRGUARACNOR4172
012024042202JALL3       010JALLESMACHADON      NM   R$  000000000071800000000007310000000000713000000000071900000000007170000000000717000000000072001094000000000000374600000000000269590200000000000000009999123100000010000000000000BRJALLACNOR0105
012024042202JBSS3       010JBS         ON      NM   R$  000000000223200000000022320000000002204000000000221300000000022120000000002212000000000221411869000000000004851600000000010740039000000000000000009999123100000010000000000000BRJBSSACNOR8121
012024042202MTRE3       010MITRE REALTYON      NM   R$  000000000045700000000004770000000000448000000000046400000000004670000000000467000000000046902406000000000001277700000000000593609900000000000000009999123100000010000000000000BRMTREACNOR6109
012024042202HAGA3       010HAGA S/A    ON           R$  000000000025700000000002570000000000257000000000025700000000002570000000000246000000000025600001000000000000000100000000000000025700000000000000009999123100000010000000000000BRHAGAACNOR7103
012024042202HAGA4       010HAGA S/A    PN           R$  000000000011800000000001210000000000118000000000011800000000001180000000000118000000000012100005000000000000000900000000000000107000000000000000009999123100000010000000000000BRHAGAACNPR4103
012024042202HAPV3       010HAPVIDA     ON      NM   R$  000000000036200000000003680000000000358000000000036200000000003640000000000363000000000036522408000000000047943300000000017373125300000000000000009999123100000010000000000000BRHAPVACNOR4113
012024042202HBOR3       010HELBOR      ON      NM   R$  000000000026400000000002730000000000262000000000026600000000002670000000000267000000000027000665000000000000544000000000000145220400000000000000009999123100000010000000000000BRHBORACNOR3117
012024042202HBRE3       010HBR REALTY  ON      NM   R$  000000000053300000000005400000000000512000000000052100000000005140000000000514000000000051701479000000000000896900000000000467763200000000000000009999123100000010000000000000BRHBREACNOR4100
012024042202HBSA3       010HIDROVIAS   ON      NM   R$  000000000041700000000004170000000000395000000000040600000000004110000000000411000000000041308795000000000012081200000000004910366000000000000000009999123100000010000000000000BRHBSAACNOR0100
012024042202MTSA4       010METISA      PN           R$  000000000487400000000048740000000004849000000000485500000000048490000000004811000000000484900003000000000000000400000000000001942100000000000000009999123100000010000000000000BRMTSAACNPR9071
012024042202MULT3       010MULTIPLAN   ON      N2   R$  000000000240400000000024210000000002390000000000240200000000024040000000002392000000000240514414000000000002913400000000006998409900000000000000009999123100000010000000000000BRMULTACNOR5138
012024042202MYPK3       010IOCHP-MAXIONON      NM   R$  000000000123600000000012510000000001227000000000123900000000012390000000001239000000000124303030000000000000741000000000000918796600000000000000009999123100000010000000000000BRMYPKACNOR7154
012024042202BAHI3       010BAHEMA      ON      MA   R$  000000000083100000000008310000000000810000000000081700000000008130000000000813000000000081500028000000000000004900000000000004003300000000000000009999123100000010000000000000BRBAHIACNOR1074
012024042202BAUH4       010EXCELSIOR   PN           R$  000000000777500000000078770000000007775000000000781400000000078770000000000000000000000787700007000000000000000800000000000006251700000000000000009999123100000010000000000000BRBAUHACNPR3117
012024042202BAZA3       010AMAZONIA    ON           R$  000000000990000000000101010000000009900000000000998600000000101010000000010100000000001039900031000000000000003900000000000038947600000000000000009999123100000010000000000000BRBAZAACNOR0178
012024042202BBAS3       010BRASIL      ON  EB  NM   R$  000000000278000000000028050000000002724000000000274600000000027390000000002736000000000273945512000000000021288500000000058463225100000000000000009999123100000010000000000000BRBBASACNOR3322
012024042202CGRA3       010GRAZZIOTIN  ON  ES       R$  000000000275900000000027590000000002677000000000274200000000026770000000002619000000000274900004000000000000000500000000000001371300000000000000009999123100000010000000000000BRCGRAACNOR2082
012024042202CGRA4       010GRAZZIOTIN  PN  ES       R$  000000000268100000000027370000000002644000000000266200000000026440000000002660000000000274900013000000000000003200000000000008519900000000000000009999123100000010000000000000BRCGRAACNPR9082
012024042202CIEL3       010CIELO       ON      NM   R$  000000000055200000000005560000000000545000000000055000000000005560000000000555000000000055710492000000000018090300000000009966092700000000000000009999123100000010000000000000BRCIELACNOR3157
012024042202CLSA3       010CLEARSALE   ON      NM   R$  000000000077200000000008120000000000764000000000079500000000007960000000000796000000000080003301000000000001446100000000001150350800000000000000009999123100000010000000000000BRCLSAACNOR0100
012024042202CLSC4       010CELESC      PN      N2   R$  000000000679900000000068420000000006799000000000682700000000068420000000006741000000000683200003000000000000000300000000000002048200000000000000009999123100000010000000000000BRCLSCACNPR3129
012024042202CMIG3       010CEMIG       ON      N1   R$  000000000152700000000015280000000001501000000000151100000000015070000000001501000000000150800733000000000000147400000000000222746800000000000000009999123100000010000000000000BRCMIGACNOR6240
012024042202CMIG4       010CEMIG       PN      N1   R$  000000000131800000000013180000000001288000000000129800000000012980000000001296000000000129916704000000000011591400000000015046320400000000000000009999123100000010000000000000BRCMIGACNPR3241
012024042202BRKM3       010BRASKEM     ON      N1   R$  000000000213200000000022000000000002110000000000216000000000021650000000002165000000000219100094000000000000013400000000000028944100000000000000009999123100000010000000000000BRBRKMACNOR1119
012024042202BRKM5       010BRASKEM     PNA     N1   R$  000000000222000000000022720000000002177000000000222700000000022530000000002253000000000225606721000000000001970700000000004389219600000000000000009999123100000010000000000000BRBRKMACNPA4121
012024042202BRSR3       010BANRISUL    ON      N1   R$  000000000124500000000012780000000001244000000000126600000000012560000000001258000000000137500055000000000000010000000000000012666400000000000000009999123100000010000000000000BRBRSRACNOR3186
012024042202BRSR5       010BANRISUL    PNA     N1   R$  000000000140500000000015500000000001405000000000147700000000015500000000001480000000000179800002000000000000000200000000000000295500000000000000009999123100000010000000000000BRBRSRACNPA6190
012024042202BRSR6       010BANRISUL    PNB     N1   R$  000000000123700000000012630000000001237000000000125400000000012570000000001256000000000125802684000000000000776700000000000974614200000000000000009999123100000010000000000000BRBRSRACNPB4189
012024042202BSLI4       010BRB BANCO   PN           R$  000000000100600000000010060000000001006000000000100600000000010060000000000951000000000099800001000000000000000100000000000000100600000000000000009999123100000010000000000000BRBSLIACNPR2192
012024042202EALT4       010ACO ALTONA  PN           R$  000000000099800000000010260000000000986000000000099600000000009940000000000991000000000099400043000000000000010800000000000010758700000000000000009999123100000010000000000000BREALTACNPR1137
012024042202ECOR3       010ECORODOVIAS ON      NM   R$  000000000074900000000007650000000000745000000000075400000000007560000000000755000000000075608142000000000003941200000000002973134000000000000000009999123100000010000000000000BRECORACNOR8119
012024042202CXSE3       010CAIXA SEGURION      NM   R$  000000000156600000000015960000000001549000000000156300000000015600000000001559000000000156011577000000000003093500000000004837952300000000000000009999123100000010000000000000BRCXSEACNOR7105
012024042202CYRE3       010CYRELA REALTON      NM   R$  000000000210000000000021330000000002074000000000210900000000021190000000002117000000000212019977000000000006752800000000014245126100000000000000009999123100000010000000000000BRCYREACNOR7139
012024042202MRFG3       010MARFRIG     ON      NM   R$  000000000097800000000009800000000000953000000000096800000000009730000000000971000000000097317628000000000006141000000000005949392800000000000000009999123100000010000000000000BRMRFGACNOR0116
012024042202MRSA3B      010MRS LOGIST  ON      MB   R$  000000000280000000000028000000000002800000000000280000000000028000000000002615000000000421000001000000000000000400000000000001120000000000000000009999123100000010000000000000BRMRSAACNOR6124
012024042202MRVE3       010MRV         ON      NM   R$  000000000065700000000006680000000000651000000000065700000000006550000000000655000000000065712284000000000009550700000000006281395500000000000000009999123100000010000000000000BRMRVEACNOR2126
012024042202RAIZ4       010RAIZEN      PN      N2   R$  000000000030300000000003140000000000299000000000030800000000003120000000000311000000000031218064000000000016533100000000005106624900000000000000009999123100000010000000000000BRRAIZACNPR6110
012024042202RANI3       010IRANI       ON      NM   R$  000000000093000000000009350000000000918000000000092400000000009200000000000920000000000092701729000000000000514000000000000475042900000000000000009999123100000010000000000000BRRANIACNOR5070
012024042202RAPT3       010RANDON PART ON      N1   R$  000000000100600000000010060000000000976000000000098200000000009780000000000978000000000099300173000000000000149400000000000146798700000000000000009999123100000010000000000000BRRAPTACNOR7162
012024042202RAPT4       010RANDON PART PN      N1   R$  000000000121000000000012120000000001167000000000118100000000011690000000001167000000000117408653000000000002977200000000003518058200000000000000009999123100000010000000000000BRRAPTACNPR4162
012024042207TXRX4       010TEX RENAUX  PN           R$  000000000022100000000002480000000000221000000000023500000000002400000000000235000000000024500017000000000000005200000000000001226400000000000000009999123100000010000000000000BRTXRXACNPR0142
012024042207NUTR3       010NUTRIPLANT  ON      MA   R$  000000000052400000000005240000000000488000000000049700000000004950000000000490000000000050000031000000000000010600000000000005270700000000000000009999123100000010000000000000BRNUTRACNOR0104
012024042208BDLL3       010BARDELLA    ON           R$  000000000120100000000012010000000001201000000000120100000000012010000000001201000000000131500001000000000000000300000000000000360300000000000000009999123100000010000000000000BRBDLLACNOR1149
012024042208ETER3       010ETERNIT     ON      NM   R$  000000000076800000000007770000000000749000000000076100000000007620000000000762000000000076400808000000000000183800000000000139979000000000000000009999123100000010000000000000BRETERACNOR3243
012024042208NEXP3       010NEXPE       ON      NM   R$  000000000042200000000004250000000000421000000000042200000000004210000000000420000000000042400007000000000000000900000000000000380600000000000000009999123100000010000000000000BRNEXPACNOR0101
012024042208PMAM3       010PARANAPANEMAON      NM   R$  000000000026800000000003010000000000260000000000027700000000002770000000000277000000000028000237000000000000092800000000000025791400000000000000009999123100000010000000000000BRPMAMACNOR3038
012024042208RPMG3       010PET MANGUINHON           R$  000000000020800000000002080000000000203000000000020300000000002030000000000204000000000020600005000000000000000900000000000000183300000000000000009999123100000010000000000000BRRPMGACNOR9194
012024042208RSID3       010ROSSI RESID ON      NM   R$  000000000052000000000005260000000000489000000000050900000000005240000000000514000000000052400447000000000000137600000000000070042300000000000000009999123100000010000000000000BRRSIDACNOR8120
012024042208RNEW11      010RENOVA      UNT     N2   R$  000000000030900000000003110000000000305000000000030900000000003100000000000306000000000031100013000000000000001700000000000000525500000000000000009999123100000010000000000000BRRNEWCDAM15110
012024042208RNEW3       010RENOVA      ON      N2   R$  000000000010500000000001050000000000102000000000010300000000001030000000000102000000000010300077000000000000038900000000000004007000000000000000009999123100000010000000000000BRRNEWACNOR8110
012024042208RNEW4       010RENOVA      PN      N2   R$  000000000010100000000001020000000000100000000000010000000000001000000000000100000000000010100122000000000000106600000000000010758200000000000000009999123100000010000000000000BRRNEWACNPR5110
012024042208AMER3       010AMERICANAS  ON      NM   R$  000000000005200000000000540000000000052000000000005200000000000530000000000053000000000005401819000000000004207200000000000222956000000000000000009999123100000010000000000000BRAMERACNOR6101
012024042208OIBR3       010OI          ON      N1   R$  000000000007100000000000720000000000068000000000006900000000000690000000000068000000000006902497000000000008890100000000000622005600000000000000009999123100000010000000000000BROIBRACNOR1110
012024042208OIBR4       010OI          PN      N1   R$  000000000018800000000001880000000000180000000000018300000000001820000000000181000000000018200156000000000000153000000000000028045700000000000000009999123100000010000000000000BROIBRACNPR8109
012024042208OSXB3       010OSX BRASIL  ON      NM   R$  000000000041700000000004170000000000399000000000040200000000004070000000000399000000000040700035000000000000010400000000000004183700000000000000009999123100000010000000000000BROSXBACNOR8109
012024042208HOOT4       010HOTEIS OTHONPN           R$  000000000028000000000002800000000000280000000000028000000000002800000000000279000000000028800004000000000000000400000000000000112000000000000000009999123100000010000000000000BRHOOTACNPR9015
012024042208JFEN3       010JOAO FORTES ON  ES       R$  000000000015800000000001660000000000157000000000016200000000001620000000000158000000000016200128000000000000064600000000000010500200000000000000009999123100000010000000000000BRJFENACNOR0059
012024042208LIGT3       010LIGHT S/A   ON      NM   R$  000000000050600000000005150000000000498000000000050500000000005040000000000503000000000051201203000000000000322200000000000162952700000000000000009999123100000010000000000000BRLIGTACNOR2124
012024042208ATMP3       010ATMASA      ON           R$  000000000020000000000002070000000000197000000000020100000000002070000000000199000000000020700014000000000000003300000000000000665400000000000000009999123100000010000000000000BRATMPACNOR8100
012024042210ABCB10      010ABC BRASIL  PN  REC N2   R$  000000000220100000000022960000000002201000000000226100000000022430000000002240000000000231800058000000000000007800000000000017636500000000000000009999123100000010000000000000BRABCBR19PR1144
012024042210JFEN1       010JOAO FORTES DIR ORD      R$  000000000000400000000000050000000000001000000000000200000000000010000000000001000000000000200113000000000000651700000000000001447500000000000000009999123100000010000000000000BRJFEND10OR6058
012024042210SEQL11      010SEQUOIA LOG DIR     NM   R$  000000000000100000000000010000000000001000000000000100000000000010000000000000000000000000100058000000000000933500000000000000933500000000000000009999123100000010000000000000BRSEQLD01M19101
012024042210SEQL12      010SEQUOIA LOG DIR     NM   R$  000000000000100000000000020000000000001000000000000100000000000010000000000001000000000000200240000000000008712600000000000009686900000000000000009999123100000010000000000000BRSEQLD02M18101
012024042212OUJP11      010FII OURI JPPCI           R$  000000000942900000000094290000000009183000000000927500000000092150000000009215000000000925904192000000000000015174000000000140753947000000000000009999123100000010000000000000BROUJPCTF006185
012024042212OULG11      010FII OURILOG CI           R$  000000000293600000000029720000000002925000000000293700000000029270000000002926000000000296800131000000000000001230000000000003612840000000000000009999123100000010000000000000BROULGCTF001153
012024042212OURE11      010FII OU RENDACI  ER       R$  000000000768500000000077890000000007630000000000765200000000076330000000007633000000000774800609000000000000020548000000000157251703000000000000009999123100000010000000000000BROURECTF003141
012024042212BCRI11      010FII BEES CRICI           R$  000000000690700000000071730000000006890000000000699900000000071120000000007110000000000711202066000000000000014877000000000104130641000000000000009999123100000010000000000000BRBCRICTF009213
012024042212BPFF11      010FII ABSOLUTOCI           R$  000000000715800000000071590000000007080000000000712600000000071390000000007101000000000713905315000000000000022540000000000160629506000000000000009999123100000010000000000000BRBPFFCTF002234
012024042212BPML11      010FII BTG SHOPCI  ER       R$  000000001030000000000104000000000009829000000001026100000000103300000000010085000000001031000224000000000000001548000000000015884474000000000000009999123100000010000000000000BRBPMLCTF006129
012024042212EURO11      010FII EUROPAR CI           R$  000000002465000000000246510000000024500000000002453500000000246000000000024383000000002460000023000000000000000096000000000002355373000000000000009999123100000010000000000000BREUROCTF011357
012024042212EVBI11      010FII VBI CON CI           R$  000000000984500000000098450000000009706000000000979900000000098430000000009734000000000984100023000000000000051198000000000501739670000000000000009999123100000010000000000000BREVBICTF007147
012024042212EXES11      010FII EXES    CI  ER       R$  000000000093000000000009300000000000930000000000093000000000009300000000000880000000000095500001000000000000000001000000000000000930000000000000009999123100000010000000000000BREXESCTF006123
012024042212NAVT11      010FII NAVI TOTCI  ER       R$  000000000944900000000095990000000009350000000000948500000000095500000000009460000000000955001707000000000000007861000000000074566563000000000000009999123100000010000000000000BRNAVTCTF015137
012024042212NCHB11      010FII NCH BR  CI           R$  000000000095000000000009540000000000949000000000095100000000009500000000000950000000000095200221000000000000031158000000000029643942000000000000009999123100000010000000000000BRNCHBCTF000228
012024042212NCRI11      010FII NAVI CRICI           R$  000000000087500000000008750000000000855000000000086000000000008710000000000857000000000087100022000000000000000139000000000000119641000000000000009999123100000010000000000000BRNCRICTF004116
012024042212NEWL11      010FII NEWPORT CI           R$  000000001200000000000121000000000011953000000001204300000000120880000000012009000000001208800139000000000000000647000000000007792330000000000000009999123100000010000000000000BRNEWLCTF004153
012024042212NEWU11      010FII NEWRU   CI           R$  000000000760900000000076090000000007608000000000760800000000076080000000007608000000000760900004000000000000000022000000000000167377000000000000009999123100000010000000000000BRNEWUCTF005119
012024042212NSLU11      010FII LOURDES CI           R$  000000001880000000000188000000000018359000000001841800000000187470000000018359000000001874700153000000000000001002000000000018455667000000000000009999123100000010000000000000BRNSLUCTF008309
012024042212BICR11      010FII INTER   CI           R$  000000000487300000000048730000000004849000000000485200000000048490000000004849000000000579900005000000000000000013000000000000063086000000000000009999123100000010000000000000BRBICRCTF009150
012024042212APTO11      010FII NAVI RSDCI           R$  000000000095300000000009600000000000946000000000095400000000009590000000000959000000000096000490000000000000001827000000000001744307000000000000009999123100000010000000000000BRAPTOCTF007129
012024042212AROA11      010FII AROA    CI           R$  000000000009700000000000990000000000097000000000009800000000000970000000000097000000000009800136000000000000010538000000000001035418000000000000009999123100000010000000000000BRAROACTF003116
012024042212ARRI11      010FII ATRIO   CI           R$  000000000090700000000009120000000000907000000000090900000000009100000000000910000000000091100505000000000000013850000000000012602464000000000000009999123100000010000000000000BRARRICTF009158
012024042212ARXD11      010FII ARXD R  CI           R$  000000000943400000000094340000000009372000000000937300000000093720000000009350000000000950000005000000000000000121000000000001134209000000000000009999123100000010000000000000BRARXDCTF008113
012024042212BBFI11B     010FII BB PROGRCI      MB   R$  000000012700000000001290000000000125701000000012762300000001288000000000125701000000012880000078000000000000000346000000000044157844000000000000009999123100000010000000000000BRBBFICTF006325
012024042212BBFO11      010FII BB FOF  CI           R$  000000000732000000000074640000000007320000000000734900000000073430000000007341000000000737900260000000000000004657000000000034227923000000000000009999123100000010000000000000BRBBFOCTF004139
012024042212BLCA11      010FII BLUE AAACI           R$  000000001084900000000110000000000010751000000001079400000000109020000000010751000000001099900044000000000000000171000000000001845941000000000000009999123100000010000000000000BRBLCACTF009129
012024042212BLMG11      010FII BLUE LOGCI           R$  000000000391900000000039450000000003910000000000392200000000039100000000003910000000000391101399000000000000006107000000000023957051000000000000009999123100000010000000000000BRBLMGCTF005145
012024042212BLMO11      010FII BLUEMAC CI           R$  000000000895500000000089550000000008596000000000876600000000089540000000008300000000000895400008000000000000000029000000000000254231000000000000009999123100000010000000000000BRBLMOCTF009129
012024042212BLUR11      010FII BLUE RECCI           R$  000000000902000000000090200000000009020000000000902000000000090200000000009019000000000910000001000000000000000002000000000000018040000000000000009999123100000010000000000000BRBLURCTF005125
012024042212BMLC11      010FII BMBRC LCCI  EA       R$  000000001009900000000100990000000009597000000000989700000000099990000000009680000000001000000023000000000000002076000000000020547517000000000000009999123100000010000000000000BRBMLCCTF004249
012024042212CPFF11      010FII CAP REITCI           R$  000000000757500000000076440000000007506000000000755800000000076280000000007531000000000762800212000000000000003174000000000023991664000000000000009999123100000010000000000000BRCPFFCTF000154
012024042212CPSH11      010FII CPSH    CI  ERB      R$  000000000106300000000010630000000001050000000000105800000000010580000000001058000000000106105002000000000003793876000000004017640599000000000000009999123100000010000000000000BRCPSHCTF017112
012024042212CPTS11      010FII CAPI SECCI  ER       R$  000000000084800000000008540000000000847000000000085000000000008480000000000848000000000084934373000000000000847017000000000719992151000000000000009999123100000010000000000000BRCPTSCTF004229
012024042212BNFS11      010FII BANRISULCI           R$  000000001216900000000122000000000012131000000001218200000000121450000000012146000000001219000101000000000000000507000000000006176642000000000000009999123100000010000000000000BRBNFSCTF000239
012024042212AFHI11      010FII AFHI CRICI  ER       R$  000000000976900000000097940000000009686000000000973900000000097480000000009748000000000975202395000000000000010759000000000104792579000000000000009999123100000010000000000000BRAFHICTF005140
012024042212AIEC11      010FII AUTONOMYCI           R$  000000000519800000000052390000000005195000000000520400000000052150000000005211000000000521500395000000000000009476000000000049316441000000000000009999123100000010000000000000BRAIECCTF009143
012024042212AJFI11      010FII AJ MALLSCI           R$  000000000094100000000009480000000000896000000000092900000000009370000000000937000000000093809856000000000000316268000000000293993773000000000000009999123100000010000000000000BRAJFICTF001105
012024042212ALMI11      010FII TORRE ALCI           R$  000000006400100000000643900000000064001000000006420900000000643330000000064333000000006679200005000000000000000006000000000000385257000000000000009999123100000010000000000000BRALMICTF003250
012024042212SJAU11      010FII SJ AU   CI           R$  000000000660000000000069990000000006600000000000686600000000069990000000006600000000000699900004000000000000000013000000000000089260000000000000009999123100000010000000000000BRSJAUCTF009101
012024042212PLCR11      010FII PLURAL RCI           R$  000000000893000000000089300000000008774000000000885000000000088400000000008840000000000885600225000000000000002346000000000020763623000000000000009999123100000010000000000000BRPLCRCTF003153
012024042212PLRI11      010FII POLO I  CI           R$  000000000150100000000015010000000001501000000000150100000000015010000000001501000000000151400002000000000000000144000000000000216144000000000000009999123100000010000000000000BRPLRICTF000241
012024042212PMIS11      010FII PMIS    CI           R$  000000000091400000000009140000000000902000000000090500000000009050000000000905000000000091000612000000000000012674000000000011471634000000000000009999123100000010000000000000BRPMISCTF006104
012024042212PORD11      010FII POLO CRICI           R$  000000000094900000000009500000000000937000000000094200000000009380000000000938000000000093901543000000000000059994000000000056539596000000000000009999123100000010000000000000BRPORDCTF005172
012024042212PQAG11      010FII PARQ ANHCI           R$  000000000589200000000059000000000005864000000000589600000000058640000000005864000000000590000008000000000000000110000000000000648628000000000000009999123100000010000000000000BRPQAGCTF009146
012024042212PQDP11      010FII D PEDRO CI           R$  000000020150000000002015010000000199200000000019979100000001992000000000199100000000020100000014000000000000000034000000000006792914000000000000009999123100000010000000000000BRPQDPCTF004269
012024042212SADI11      010FII SANT PAPCI           R$  000000000892000000000089500000000008881000000000890400000000089500000000008920000000000895000219000000000000004186000000000037274415000000000000009999123100000010000000000000BRSADICTF007157
012024042212SAPI11      010FII SAPI    CI           R$  000000000927500000000093750000000009075000000000919300000000091160000000009116000000000929900180000000000000003341000000000030716284000000000000009999123100000010000000000000BRSAPICTF001106
012024042212SARE11      010FII SANT RENCI           R$  000000000477500000000047880000000004643000000000468100000000046510000000004651000000000467102272000000000000059733000000000279630872000000000000009999123100000010000000000000BRSARECTF006154
