00COTAHIST.2024BOVESPA 20240531                                                                                                                                                                                                                      
012024053102ABCB4       010ABC BRASIL  PN      N2   R$  000000000217500000000021770000000002141000000000215500000000021590000000002158000000000216003302000000000001004500000000002165251000000000000000009999123100000010000000000000BRABCBACNPR4145
012024053102ABEV3       010AMBEV S/A   ON           R$  000000000114600000000011660000000001146000000000115600000000011560000000001156000000000115835995000000000062941300000000072785981900000000000000009999123100000010000000000000BRABEVACNOR1127
012024053102BBDC3       010BRADESCO    ON      N1   R$  000000000115100000000011560000000001142000000000114700000000011450000000001145000000000114812990000000000008611900000000009885851000000000000000009999123100000010000000000000BRBBDCACNOR1769
012024053102BBDC4       010BRADESCO    PN      N1   R$  000000000127800000000012880000000001267000000000127300000000012670000000001267000000000126833665000000000050759300000000064646703300000000000000009999123100000010000000000000BRBBDCACNPR8769
012024053102CMIN3       010CSNMINERACAOON      N2   R$  000000000050400000000005060000000000492000000000049600000000004940000000000494000000000049515246000000000011160200000000005541316000000000000000009999123100000010000000000000BRCMINACNOR2111
012024053102COCE3       010COELCE      ON           R$  000000000352100000000035210000000003521000000000352100000000035210000000003520000000000440000001000000000000000100000000000000352100000000000000009999123100000010000000000000BRCOCEACNOR0146
012024053102COCE5       010COELCE      PNA          R$  000000000315700000000032100000000003136000000000320500000000032100000000003207000000000324000247000000000000248300000000000795904800000000000000009999123100000010000000000000BRCOCEACNPA3147
012024053102COGN3       010COGNA ON    ON      NM   R$  000000000019100000000001920000000000186000000000018700000000001860000000000186000000000018712942000000000033298100000000006234245700000000000000009999123100000010000000000000BRCOGNACNOR2104
012024053102EKTR4       010ELEKTRO     PN           R$  000000000391400000000039490000000003904000000000391400000000039050000000003910000000000394000009000000000000000900000000000003522700000000000000009999123100000010000000000000BREKTRACNPR7162
012024053102ENAT3       010ENAUTA PART ON      NM   R$  000000000218500000000022140000000002152000000000218400000000022140000000002202000000000221405364000000000001740300000000003801015000000000000000009999123100000010000000000000BRENATACNOR0104
012024053102ENEV3       010ENEVA       ON      NM   R$  000000000123700000000012430000000001216000000000123900000000012430000000001235000000000124513054000000000023081000000000028600910800000000000000009999123100000010000000000000BRENEVACNOR8105
012024053102ENGI11      010ENERGISA    UNT     N2   R$  000000000456100000000046000000000004527000000000456600000000045710000000004570000000000457409350000000000007530600000000034385667100000000000000009999123100000010000000000000BRENGICDAM16135
012024053102ENGI3       010ENERGISA    ON      N2   R$  000000000140400000000014140000000001402000000000140400000000014020000000001402000000000142800023000000000000003100000000000004353400000000000000009999123100000010000000000000BRENGIACNOR0145
012024053102ENGI4       010ENERGISA    PN      N2   R$  000000000079100000000007920000000000779000000000078500000000007790000000000778000000000078400029000000000000007100000000000005577000000000000000009999123100000010000000000000BRENGIACNPR7141
012024053102ENJU3       010ENJOEI      ON      NM   R$  000000000026500000000002700000000000259000000000026500000000002680000000000267000000000026801423000000000000975600000000000258826600000000000000009999123100000010000000000000BRENJUACNOR9100
012024053102ENMT4       010ENERGISA MT PN           R$  000000000750200000000079990000000007502000000000775000000000079990000000000000000000000899900002000000000000000200000000000001550100000000000000009999123100000010000000000000BRENMTACNPR2125
012024053102EPAR3       010EMBPAR S/A  ON           R$  000000000068200000000007000000000000682000000000069500000000007000000000000690000000000070000018000000000000007300000000000005074000000000000000009999123100000010000000000000BREPARACNOR9105
012024053102EQPA3       010EQTL PARA   ON           R$  000000000068000000000006830000000000673000000000067900000000006830000000000675000000000068300018000000000000005400000000000003666600000000000000009999123100000010000000000000BREQPAACNOR1111
012024053102EQTL3       010EQUATORIAL  ON      NM   R$  000000000294000000000029610000000002918000000000293200000000029230000000002922000000000293315817000000000011144300000000032676191600000000000000009999123100000010000000000000BREQTLACNOR0130
012024053102INEP3       010INEPAR      ON           R$  000000000019600000000001960000000000182000000000018800000000001890000000000185000000000018900136000000000000058100000000000010936600000000000000009999123100000010000000000000BRINEPACNOR1143
012024053102BBSE3       010BBSEGURIDADEON      NM   R$  000000000325000000000032720000000003212000000000323100000000032300000000003220000000000323016437000000000007439900000000024040205100000000000000009999123100000010000000000000BRBBSEACNOR5124
012024053102CPFE3       010CPFL ENERGIAON      NM   R$  000000000340000000000034100000000003337000000000339800000000034100000000003390000000000341008887000000000007095500000000024113356400000000000000009999123100000010000000000000BRCPFEACNOR0137
012024053102CPLE3       010COPEL       ON      N2   R$  000000000083000000000008300000000000803000000000081200000000008140000000000812000000000081408728000000000006783000000000005512362000000000000000009999123100000010000000000000BRCPLEACNOR8149
012024053102TAEE11      010TAESA       UNT     N2   R$  000000000346000000000034690000000003428000000000344300000000034280000000003428000000000343806530000000000001443600000000004971750800000000000000009999123100000010000000000000BRTAEECDAM10147
012024053102TAEE3       010TAESA       ON      N2   R$  000000000115000000000011500000000001139000000000114300000000011400000000001140000000000114100958000000000000160500000000000183506300000000000000009999123100000010000000000000BRTAEEACNOR9147
012024053102TAEE4       010TAESA       PN      N2   R$  000000000116200000000011630000000001150000000000115400000000011500000000001150000000000115101456000000000000309000000000000356854100000000000000009999123100000010000000000000BRTAEEACNPR6147
012024053102TASA3       010TAURUS ARMASON      N2   R$  000000000118000000000011800000000001159000000000116800000000011640000000001157000000000116400107000000000000016600000000000019390500000000000000009999123100000010000000000000BRTASAACNOR7104
012024053102TASA4       010TAURUS ARMASPN      N2   R$  000000000111100000000011130000000001080000000000110100000000011060000000001105000000000110602734000000000001879800000000002070744600000000000000009999123100000010000000000000BRTASAACNPR4104
012024053102TCSA3       010TECNISA     ON      NM   R$  000000000022600000000002270000000000216000000000022000000000002160000000000216000000000021900185000000000000075400000000000016617300000000000000009999123100000010000000000000BRTCSAACNOR3112
012024053102TECN3       010TECHNOS     ON      NM   R$  000000000040700000000004170000000000406000000000041300000000004140000000000413000000000041600293000000000000107400000000000044360300000000000000009999123100000010000000000000BRTECNACNOR6109
012024053102TELB4       010TELEBRAS    PN           R$  000000000091400000000009140000000000892000000000090100000000008920000000000880000000000090400008000000000000001200000000000001082200000000000000009999123100000010000000000000BRTELBACNPR9140
012024053102TEND3       010TENDA       ON      NM   R$  000000000113600000000011510000000001104000000000112900000000011380000000001137000000000113803782000000000001350100000000001524624500000000000000009999123100000010000000000000BRTENDACNOR4111
012024053102VITT3       010VITTIA      ON      NM   R$  000000000052200000000005350000000000519000000000052400000000005240000000000520000000000052502035000000000000396400000000000208043200000000000000009999123100000010000000000000BRVITTACNOR4107
012024053102VIVA3       010VIVARA S.A. ON      NM   R$  000000000224000000000022600000000002168000000000218900000000021800000000002180000000000218608978000000000002966300000000006494523500000000000000009999123100000010000000000000BRVIVAACNOR0107
012024053102VIVR3       010VIVER       ON      NM   R$  000000000027300000000002730000000000260000000000026400000000002620000000000262000000000026300111000000000000053500000000000014151900000000000000009999123100000010000000000000BRVIVRACNOR4122
012024053102VIVT3       010TELEF BRASILON           R$  000000000443800000000044480000000004330000000000435300000000043300000000004330000000000434722110000000000009639200000000041965807200000000000000009999123100000010000000000000BRVIVTACNOR0181
012024053102VLID3       010VALID       ON  EJ  NM   R$  000000000160800000000016200000000001565000000000158400000000015870000000001585000000000159102019000000000000325100000000000515057500000000000000009999123100000010000000000000BRVLIDACNOR5143
012024053102RAIL3       010RUMO S.A.   ON      NM   R$  000000000196100000000019830000000001945000000000196500000000019710000000001970000000000197320504000000000011046300000000021710734400000000000000009999123100000010000000000000BRRAILACNOR9105
012024053102RAIZ4       010RAIZEN      PN      N2   R$  000000000028700000000002920000000000282000000000028600000000002850000000000284000000000028515472000000000013161100000000003776535100000000000000009999123100000010000000000000BRRAIZACNPR6110
012024053102RANI3       010IRANI       ON      NM   R$  000000000086000000000008640000000000846000000000085200000000008480000000000847000000000084802539000000000000698300000000000595022200000000000000009999123100000010000000000000BRRANIACNOR5072
012024053102VAMO3       010VAMOS       ON      NM   R$  000000000082500000000008330000000000798000000000080800000000008110000000000810000000000081113097000000000006572700000000005314603200000000000000009999123100000010000000000000BRVAMOACNOR7105
012024053102VBBR3       010VIBRA       ON      NM   R$  000000000218500000000021920000000002144000000000215400000000021540000000002154000000000216123948000000000025625800000000055216109100000000000000009999123100000010000000000000BRVBBRACNOR1107
012024053102PSSA3       010PORTO SEGUROON      NM   R$  000000000308300000000031090000000003015000000000304700000000030350000000003033000000000303907818000000000002845700000000008672566700000000000000009999123100000010000000000000BRPSSAACNOR7154
012024053102PTBL3       010PORTOBELLO  ON      NM   R$  000000000043700000000004380000000000413000000000042000000000004150000000000415000000000041802304000000000001285300000000000540207400000000000000009999123100000010000000000000BRPTBLACNOR8132
012024053102PTNT4       010PETTENATI   PN           R$  000000000069900000000007000000000000690000000000069500000000006970000000000675000000000069700028000000000000011800000000000008210900000000000000009999123100000010000000000000BRPTNTACNPR3047
012024053102AERI3       010AERIS       ON      NM   R$  000000000082400000000008370000000000809000000000081900000000008140000000000814000000000081700484000000000000126200000000000103470100000000000000009999123100000010000000000000BRAERIACNOR4102
012024053102AESB3       010AES BRASIL  ON      NM   R$  000000000111700000000011200000000001115000000000111800000000011200000000001120000000000112103582000000000005505500000000006159675100000000000000009999123100000010000000000000BRAESBACNOR7106
012024053102AGRO3       010BRASILAGRO  ON      NM   R$  000000000253000000000025540000000002490000000000251900000000025390000000002529000000000253902300000000000000338400000000000852664700000000000000009999123100000010000000000000BRAGROACNOR7114
012024053102AGXY3       010AGROGALAXY  ON      NM   R$  000000000012400000000001250000000000122000000000012300000000001220000000000122000000000012500210000000000000087500000000000010817200000000000000009999123100000010000000000000BRAGXYACNOR4103
012024053102AHEB3       010SPTURIS     ON           R$  000000000253100000000025310000000002531000000000253100000000025310000000002531000000000280000001000000000000000100000000000000253100000000000000009999123100000010000000000000BRAHEBACNOR0106
012024053102ALLD3       010ALLIED      ON      NM   R$  000000000068800000000006930000000000675000000000068300000000006910000000000689000000000069100401000000000000084500000000000057790600000000000000009999123100000010000000000000BRALLDACNOR3106
012024053102ALPA4       010ALPARGATAS  PN      N1   R$  000000000095500000000009670000000000933000000000095800000000009670000000000962000000000096706958000000000002944300000000002822152600000000000000009999123100000010000000000000BRALPAACNPR7232
012024053102ALPK3       010ESTAPAR     ON      NM   R$  000000000036200000000003620000000000353000000000035600000000003540000000000354000000000035700159000000000000043800000000000015627500000000000000009999123100000010000000000000BRALPKACNOR9101
012024053102ALUP11      010ALUPAR      UNT     N2   R$  000000000290000000000029240000000002888000000000290500000000029080000000002890000000000290904556000000000001696800000000004929389800000000000000009999123100000010000000000000BRALUPCDAM15119
012024053102ALUP3       010ALUPAR      ON      N2   R$  000000000098400000000009870000000000974000000000098100000000009790000000000979000000000098400088000000000000010900000000000010692900000000000000009999123100000010000000000000BRALUPACNOR8119
012024053102ALUP4       010ALUPAR      PN      N2   R$  000000000096300000000009650000000000953000000000095800000000009640000000000963000000000096400164000000000000030000000000000028762800000000000000009999123100000010000000000000BRALUPACNPR5119
012024053102AMAR3       010LOJAS MARISAON      NM   R$  000000000017700000000001830000000000175000000000017800000000001780000000000176000000000017800583000000000000196800000000000035059900000000000000009999123100000010000000000000BRAMARACNOR4114
012024053102AMBP3       010AMBIPAR     ON      NM   R$  000000000080900000000008200000000000786000000000080500000000008070000000000806000000000081004935000000000002797100000000002253132500000000000000009999123100000010000000000000BRAMBPACNOR6103
012024053102MATD3       010MATER DEI   ON      NM   R$  000000000050300000000005180000000000495000000000050200000000005020000000000502000000000050502924000000000003276500000000001646902300000000000000009999123100000010000000000000BRMATDACNOR4104
012024053102MBLY3       010MOBLY       ON      NM   R$  000000000021000000000002190000000000210000000000021200000000002100000000000210000000000021200250000000000000108800000000000023164800000000000000009999123100000010000000000000BRMBLYACNOR5100
012024053102MDIA3       010M.DIASBRANCOON      NM   R$  000000000321800000000032270000000003121000000000315400000000031350000000003135000000000313805728000000000001310200000000004133142200000000000000009999123100000010000000000000BRMDIAACNOR7134
012024053102MDNE3       010MOURA DUBEUXON      NM   R$  000000000114700000000011470000000001100000000000110800000000011000000000001100000000000110301670000000000000367900000000000407811000000000000000009999123100000010000000000000BRMDNEACNOR9100
012024053102MEAL3       010IMC S/A     ON      NM   R$  000000000013200000000001350000000000131000000000013300000000001310000000000131000000000013300486000000000000575200000000000076569400000000000000009999123100000010000000000000BRMEALACNOR9105
012024053102ALOS3       010ALLOS       ON      NM   R$  000000000211800000000021270000000002072000000000209300000000020970000000002086000000000209712201000000000004456100000000009327293400000000000000009999123100000010000000000000BRALOSACNOR5101
012024053102ELMD3       010ELETROMIDIA ON      NM   R$  000000000184300000000018730000000001797000000000184600000000018580000000001857000000000187200383000000000000075000000000000138481100000000000000009999123100000010000000000000BRELMDACNOR3101
012024053102EMAE4       010EMAE        PN           R$  000000000476000000000048590000000004721000000000477000000000047390000000004733000000000474000018000000000000002100000000000010017200000000000000009999123100000010000000000000BREMAEACNPR1125
012024053102EMBR3       010EMBRAER     ON      NM   R$  000000000364900000000036760000000003551000000000361200000000036230000000003613000000000362514426000000000005404000000000019520994900000000000000009999123100000010000000000000BREMBRACNOR4191
012024053102IFCM3       010INFRACOMM   ON      NM   R$  000000000005000000000000500000000000047000000000004700000000000470000000000047000000000004804854000000000006350100000000000302341500000000000000009999123100000010000000000000BRIFCMACNOR8101
012024053102IGTI11      010IGUATEMI S.AUNT     N1   R$  000000000203900000000020470000000002021000000000202900000000020250000000002024000000000202512273000000000003640200000000007387435700000000000000009999123100000010000000000000BRIGTICDAM16106
012024053102IGTI3       010IGUATEMI S.AON      N1   R$  000000000028800000000002900000000000286000000000028700000000002860000000000286000000000028800081000000000000044700000000000012859000000000000000009999123100000010000000000000BRIGTIACNOR8106
012024053102USIM3       010USIMINAS    ON      N1   R$  000000000071600000000007170000000000690000000000069800000000006980000000000697000000000069901827000000000000592500000000000413668400000000000000009999123100000010000000000000BRUSIMACNOR3167
012024053102USIM5       010USIMINAS    PNA     N1   R$  000000000077500000000007800000000000752000000000075800000000007570000000000756000000000075720008000000000012459700000000009454037500000000000000009999123100000010000000000000BRUSIMACNPA6169
012024053102WEST3       010WESTWING    ON      NM   R$  000000000010900000000001090000000000105000000000010600000000001050000000000105000000000010900048000000000000020300000000000002152600000000000000009999123100000010000000000000BRWESTACNOR3100
012024053102WHRL3       010WHIRLPOOL   ON           R$  000000000045500000000004570000000000455000000000045500000000004550000000000455000000000045600010000000000000004500000000000002048900000000000000009999123100000010000000000000BRWHRLACNOR5128
012024053102WHRL4       010WHIRLPOOL   PN           R$  000000000048100000000004810000000000465000000000047100000000004650000000000467000000000047300024000000000000005600000000000002643100000000000000009999123100000010000000000000BRWHRLACNPR2128
012024053102WIZC3       010WIZ CO      ON      NM   R$  000000000061300000000006130000000000595000000000060100000000005950000000000595000000000059601833000000000000422300000000000253840100000000000000009999123100000010000000000000BRWIZCACNOR5102
012024053102WLMM4       010WLM IND COM PN           R$  000000000313000000000031300000000003077000000000308700000000030770000000002700000000000307800004000000000000000500000000000001543800000000000000009999123100000010000000000000BRWLMMACNPR3118
012024053102YDUQ3       010YDUQS PART  ON      NM   R$  000000000127600000000012860000000001198000000000122100000000012110000000001211000000000121412497000000000005065500000000006187123900000000000000009999123100000010000000000000BRYDUQACNOR3105
012024053102TFCO4       010TRACK FIELD PN      N2   R$  000000000113900000000011390000000001090000000000110700000000011100000000001108000000000111000743000000000000303800000000000336592400000000000000009999123100000010000000000000BRTFCOACNPR8113
012024053102TGMA3       010TEGMA       ON      NM   R$  000000000243000000000024400000000002390000000000240400000000024160000000002403000000000241701479000000000000240700000000000578809100000000000000009999123100000010000000000000BRTGMAACNOR7144
012024053102TIMS3       010TIM         ON      NM   R$  000000000161000000000016170000000001572000000000158500000000015860000000001585000000000159527679000000000020503100000000032510592200000000000000009999123100000010000000000000BRTIMSACNOR5116
012024053102TOTS3       010TOTVS       ON      NM   R$  000000000284000000000029150000000002829000000000287300000000028720000000002863000000000287322249000000000009199700000000026431208600000000000000009999123100000010000000000000BRTOTSACNOR8144
012024053102TPIS3       010TRIUNFO PARTON      NM   R$  000000000041900000000004260000000000403000000000041700000000004240000000000416000000000042400149000000000000088600000000000036975000000000000000009999123100000010000000000000BRTPISACNOR8118
012024053102TRAD3       010TC          ON      NM   R$  000000000006800000000000680000000000065000000000006500000000000650000000000065000000000006600093000000000000219400000000000014459500000000000000009999123100000010000000000000BRTRADACNOR3101
012024053102TRIS3       010TRISUL      ON      NM   R$  000000000047000000000004730000000000464000000000046700000000004700000000000465000000000047000965000000000000466300000000000218201700000000000000009999123100000010000000000000BRTRISACNOR4118
012024053102TRPL3       010TRAN PAULISTON      N1   R$  000000000345000000000034500000000003380000000000341800000000033800000000003360000000000338500006000000000000001000000000000003418200000000000000009999123100000010000000000000BRTRPLACNOR4185
012024053102TRPL4       010TRAN PAULISTPN      N1   R$  000000000263500000000026440000000002513000000000256000000000025130000000002513000000000253015972000000000005471300000000014007594600000000000000009999123100000010000000000000BRTRPLACNPR1185
012024053102VSTE3       010VESTE       ON      NM   R$  000000000152500000000016000000000001477000000000157900000000016000000000001600000000000162700098000000000000028000000000000044213200000000000000009999123100000010000000000000BRVSTEACNOR5103
012024053102VULC3       010VULCABRAS   ON      NM   R$  000000000149100000000014960000000001440000000000146800000000014760000000001465000000000147605870000000000001515200000000002224904000000000000000009999123100000010000000000000BRVULCACNOR2159
012024053102VVEO3       010VIVEO       ON      NM   R$  000000000027800000000002900000000000274000000000028400000000002900000000000285000000000029002961000000000001404600000000000400013300000000000000009999123100000010000000000000BRVVEOACNOR0104
012024053102WEGE3       010WEG         ON      NM   R$  000000000375600000000037830000000003736000000000375600000000037550000000003755000000000377720720000000000021946000000000082440218300000000000000009999123100000010000000000000BRWEGEACNOR0222
012024053102RAPT3       010RANDON PART ON      N1   R$  000000000083900000000008390000000000820000000000082200000000008200000000000820000000000082800156000000000000028900000000000023773100000000000000009999123100000010000000000000BRRAPTACNOR7162
012024053102RAPT4       010RANDON PART PN      N1   R$  000000000097200000000009750000000000950000000000095500000000009520000000000952000000000095505895000000000002512000000000002401389800000000000000009999123100000010000000000000BRRAPTACNPR4162
012024053102RCSL3       010RECRUSUL    ON  EG       R$  000000000047400000000004900000000000416000000000044000000000004540000000000454000000000045502326000000000000837500000000000369017900000000000000009999123100000010000000000000BRRCSLACNOR4134
012024053102RCSL4       010RECRUSUL    PN  EG       R$  000000000010000000000001350000000000099000000000011600000000001150000000000115000000000011802966000000000002147800000000000249249900000000000000009999123100000010000000000000BRRCSLACNPR1134
012024053102RDNI3       010RNI         ON      NM   R$  000000000032000000000003250000000000320000000000032300000000003240000000000321000000000032500007000000000000004700000000000001522700000000000000009999123100000010000000000000BRRDNIACNOR9116
012024053102RDOR3       010REDE D OR   ON      NM   R$  000000000278100000000027880000000002720000000000274800000000027460000000002738000000000274712731000000000005235200000000014387819700000000000000009999123100000010000000000000BRRDORACNOR8112
012024053102RECV3       010PETRORECSA  ON      NM   R$  000000000204000000000020920000000002031000000000205900000000020740000000002074000000000208012843000000000005972100000000012297209500000000000000009999123100000010000000000000BRRECVACNOR3106
012024053102REDE3       010REDE ENERGIAON           R$  000000000068400000000006900000000000681000000000068500000000006820000000000681000000000069200014000000000000002000000000000001370400000000000000009999123100000010000000000000BRREDEACNOR7127
012024053102RENT3       010LOCALIZA    ON      NM   R$  000000000439800000000043990000000004235000000000428800000000042730000000004271000000000427335916000000000016540400000000070926594200000000000000009999123100000010000000000000BRRENTACNOR4195
012024053102SYNE3       010SYN PROP TECON      NM   R$  000000000089500000000009390000000000879000000000091300000000009390000000000925000000000093900998000000000000417800000000000381519800000000000000009999123100000010000000000000BRSYNEACNOR2102
012024053102LAND3       010TERRASANTAPAON      NM   R$  000000000154400000000015750000000001517000000000155100000000015490000000001541000000000155000168000000000000043700000000000067799500000000000000009999123100000010000000000000BRLANDACNOR9103
012024053102LAVV3       010LAVVI       ON      NM   R$  000000000088500000000008900000000000868000000000087600000000008790000000000873000000000087901926000000000000367000000000000321682700000000000000009999123100000010000000000000BRLAVVACNOR4112
012024053102LEVE3       010METAL LEVE  ON      NM   R$  000000000321400000000032690000000003154000000000317100000000031540000000003153000000000315603029000000000001442800000000004575852100000000000000009999123100000010000000000000BRLEVEACNOR2197
012024053102LJQQ3       010QUERO-QUERO ON      NM   R$  000000000046000000000004620000000000426000000000044100000000004310000000000431000000000043304507000000000003764800000000001661090000000000000000009999123100000010000000000000BRLJQQACNOR5104
012024053102NINJ3       010GETNINJAS   ON      NM   R$  000000000046500000000004760000000000465000000000047000000000004700000000000466000000000047000246000000000000069300000000000032577800000000000000009999123100000010000000000000BRNINJACNOR5101
012024053102NORD3       010NORDON MET  ON           R$  000000000083000000000008500000000000800000000000081100000000008110000000000788000000000081000013000000000000001500000000000001217000000000000000009999123100000010000000000000BRNORDACNOR7135
012024053102ITSA3       010ITAUSA      ON      N1   R$  000000000099300000000009930000000000975000000000098100000000009810000000000980000000000098100607000000000000150700000000000147861200000000000000009999123100000010000000000000BRITSAACNOR0439
012024053102ITSA4       010ITAUSA      PN      N1   R$  000000000098400000000009880000000000970000000000097300000000009730000000000973000000000097445607000000000058933400000000057400007600000000000000009999123100000010000000000000BRITSAACNPR7439
012024053102MELK3       010MELNICK     ON      NM   R$  000000000038200000000003840000000000378000000000037900000000003800000000000379000000000038000299000000000000293900000000000111671700000000000000009999123100000010000000000000BRMELKACNOR8111
012024053102MGEL4       010MANGELS INDLPN           R$  000000000132500000000013250000000001325000000000132500000000013250000000001321000000000135900002000000000000000200000000000000265000000000000000009999123100000010000000000000BRMGELACNPR3147
012024053102MGLU3       010MAGAZ LUIZA ON  EG  NM   R$  000000000120800000000012390000000001140000000000121000000000012390000000001237000000000123948588000000000063745900000000077161662500000000000000009999123100000010000000000000BRMGLUACNOR2124
012024053102ALPA3       010ALPARGATAS  ON      N1   R$  000000000095000000000009620000000000950000000000095200000000009500000000000950000000000096800014000000000000003600000000000003427300000000000000009999123100000010000000000000BRALPAACNOR0231
012024053102EUCA4       010EUCATEX     PN      N1   R$  000000000137700000000013880000000001366000000000137500000000013670000000001367000000000136800409000000000000089100000000000122578600000000000000009999123100000010000000000000BREUCAACNPR8044
012024053102EVEN3       010EVEN        ON      NM   R$  000000000067000000000006700000000000647000000000065400000000006510000000000651000000000065702662000000000000646100000000000422571000000000000000009999123100000010000000000000BREVENACNOR8119
012024053102EZTC3       010EZTEC       ON      NM   R$  000000000127600000000012980000000001264000000000128200000000012930000000001291000000000129506705000000000002248100000000002884037300000000000000009999123100000010000000000000BREZTCACNOR0125
012024053102FESA4       010FERBASA     PN      N1   R$  000000000081300000000008130000000000795000000000079800000000007950000000000795000000000079603883000000000001441200000000001150791700000000000000009999123100000010000000000000BRFESAACNPR5083
012024053102FHER3       010FER HERINGERON      NM   R$  000000000045100000000004510000000000437000000000044300000000004400000000000439000000000044500018000000000000005500000000000002441600000000000000009999123100000010000000000000BRFHERACNOR5103
012024053102ELET3       010ELETROBRAS  ON      N1   R$  000000000351100000000035260000000003479000000000349200000000034790000000003479000000000348018496000000000010888300000000038024765100000000000000009999123100000010000000000000BRELETACNOR6160
012024053102ELET6       010ELETROBRAS  PNB     N1   R$  000000000393900000000039590000000003912000000000392500000000039130000000003913000000000392909399000000000005559100000000021824677300000000000000009999123100000010000000000000BRELETACNPB7077
012024053102QUAL3       010QUALICORP   ON      NM   R$  000000000017000000000001700000000000163000000000016400000000001640000000000163000000000016402684000000000002226700000000000367265000000000000000009999123100000010000000000000BRQUALACNOR6120
012024053102RADL3       010RAIADROGASILON      NM   R$  000000000255700000000025640000000002489000000000251200000000025070000000002507000000000250822383000000000016080700000000040407750800000000000000009999123100000010000000000000BRRADLACNOR0156
012024053102SMFT3       010SMART FIT   ON      NM   R$  000000000221700000000022550000000002215000000000223800000000022500000000002238000000000225208701000000000002264800000000005069786700000000000000009999123100000010000000000000BRSMFTACNOR1111
012024053102SMTO3       010SAO MARTINHOON      NM   R$  000000000273300000000027330000000002688000000000270500000000027140000000002696000000000271406063000000000001846900000000004996129900000000000000009999123100000010000000000000BRSMTOACNOR3125
012024053102ANIM3       010ANIMA       ON      NM   R$  000000000036400000000003640000000000341000000000034700000000003480000000000348000000000034905682000000000004620800000000001607234100000000000000009999123100000010000000000000BRANIMACNOR6107
012024053102APER3       010ALPER S.A.  ON           R$  000000000453300000000045340000000004533000000000453300000000045330000000004533000000000453500008000000000000001200000000000005439800000000000000009999123100000010000000000000BRAPERACNOR9106
012024053102ARML3       010ARMAC       ON      NM   R$  000000000100100000000010470000000000995000000000102800000000010470000000001043000000000104703939000000000000966500000000000994062600000000000000009999123100000010000000000000BRARMLACNOR1111
012024053102ARZZ3       010AREZZO CO   ON      NM   R$  000000000501700000000050200000000004851000000000491500000000049400000000004922000000000494006053000000000001213200000000005964066100000000000000009999123100000010000000000000BRARZZACNOR3146
012024053102INEP4       010INEPAR      PN           R$  000000000019200000000001940000000000182000000000018600000000001900000000000184000000000019000059000000000000029800000000000005545900000000000000009999123100000010000000000000BRINEPACNPR8143
012024053102INTB3       010INTELBRAS   ON      NM   R$  000000000231300000000023340000000002262000000000231400000000023340000000002330000000000233402334000000000000768700000000001779234000000000000000009999123100000010000000000000BRINTBACNOR9111
012024053102IRBR3       010IRBBRASIL REON      NM   R$  000000000324200000000032940000000003133000000000317900000000031560000000003156000000000316006020000000000001631500000000005186811100000000000000009999123100000010000000000000BRIRBRACNOR4111
012024053102LUPA3       010LUPATECH    ON      NM   R$  000000000016500000000001660000000000159000000000016200000000001590000000000159000000000016100266000000000000347800000000000056619600000000000000009999123100000010000000000000BRLUPAACNOR8112
012024053102LVTC3       010WDC NETWORKSON      NM   R$  000000000037900000000003880000000000378000000000038200000000003810000000000377000000000038100054000000000000012200000000000004668200000000000000009999123100000010000000000000BRLVTCACNOR4102
012024053102LWSA3       010LWSA        ON      NM   R$  000000000042900000000004400000000000422000000000042900000000004330000000000432000000000043310863000000000007253600000000003114985800000000000000009999123100000010000000000000BRLWSAACNOR8103
012024053102NEOE3       010NEOENERGIA  ON      NM   R$  000000000191600000000019230000000001890000000000190100000000018900000000001890000000000189402407000000000000496000000000000942903200000000000000009999123100000010000000000000BRNEOEACNOR3122
012024053102NGRD3       010NEOGRID     ON      NM   R$  000000000009500000000000970000000000093000000000009400000000000970000000000095000000000009700368000000000000445900000000000042340800000000000000009999123100000010000000000000BRNGRDACNOR3104
012024053102MAPT4       010CEMEPE      PN           R$  000000000059000000000005900000000000583000000000058500000000005830000000000551000000000059000003000000000000000300000000000000175600000000000000009999123100000010000000000000BRMAPTACNPR5106
012024053102CPLE6       010COPEL       PNB     N2   R$  000000000091800000000009270000000000893000000000090700000000009080000000000906000000000090826461000000000044246700000000040155258300000000000000009999123100000010000000000000BRCPLEACNPB9146
012024053102CRFB3       010CARREFOUR BRON      NM   R$  000000000099200000000010120000000000985000000000099100000000009920000000000991000000000099211771000000000006000300000000005950681300000000000000009999123100000010000000000000BRCRFBACNOR2116
012024053102CRPG5       010CRISTAL     PNA ED       R$  000000000297000000000030000000000002950000000000297500000000030000000000002956000000000302500014000000000000001700000000000005058400000000000000009999123100000010000000000000BRCRPGACNPA3119
012024053102CRPG6       010CRISTAL     PNB ED       R$  000000000300500000000030050000000002969000000000298700000000029690000000002933000000000299900002000000000000000200000000000000597400000000000000009999123100000010000000000000BRCRPGACNPB1119
012024053102CSAN3       010COSAN       ON      NM   R$  000000000140600000000014160000000001362000000000137200000000013620000000001362000000000136322626000000000028275500000000038805789500000000000000009999123100000010000000000000BRCSANACNOR6125
012024053102PCAR3       010P.ACUCAR-CBDON      NM   R$  000000000031000000000003120000000000287000000000029500000000002870000000000287000000000028809289000000000013448700000000003977956400000000000000009999123100000010000000000000BRPCARACNOR3167
012024053102PDGR3       010PDG REALT   ON      NM   R$  000000000002400000000000240000000000022000000000002200000000000220000000000022000000000002300381000000000002476700000000000055770700000000000000009999123100000010000000000000BRPDGRACNOR8118
012024053102PDTC3       010PADTEC      ON      NM   R$  000000000019000000000001920000000000185000000000018700000000001860000000000186000000000018900079000000000000057700000000000010806700000000000000009999123100000010000000000000BRPDTCACNOR3101
012024053102PEAB4       010PAR AL BAHIAPN           R$  000000000440000000000049830000000004400000000000474600000000049830000000004700000000000497800011000000000000001200000000000005695700000000000000009999123100000010000000000000BRPEABACNPR0133
012024053102PETR3       010PETROBRAS   ON      N2   R$  000000000397000000000040980000000003970000000000405200000000040700000000004070000000000408031773000000000016515400000000066927933100000000000000009999123100000010000000000000BRPETRACNOR9204
012024053102PETR4       010PETROBRAS   PN      N2   R$  000000000379300000000038890000000003790000000000385000000000038790000000003878000000000387980199000000000053928200000000207642995800000000000000009999123100000010000000000000BRPETRACNPR6212
012024053102AALR3       010ALLIAR      ON      NM   R$  000000000100100000000010010000000000952000000000097700000000009960000000000962000000000099600149000000000000027100000000000026486900000000000000009999123100000010000000000000BRAALRACNOR6102
012024053102IGTI4       010IGUATEMI S.APN      N1   R$  000000000087600000000008760000000000875000000000087500000000008750000000000811000000000090000003000000000000005600000000000004900100000000000000009999123100000010000000000000BRIGTIACNPR5106
012024053102LOGG3       010LOG COM PROPON      NM   R$  000000000215900000000021680000000002129000000000215100000000021680000000002155000000000216801091000000000000161800000000000348042200000000000000009999123100000010000000000000BRLOGGACNOR7107
012024053102LOGN3       010LOG-IN      ON      NM   R$  000000000357200000000036940000000003560000000000359500000000035650000000003565000000000367800150000000000000018300000000000065805100000000000000009999123100000010000000000000BRLOGNACNOR3105
012024053102LPSB3       010LOPES BRASILON      NM   R$  000000000022000000000002220000000000210000000000021400000000002100000000000210000000000021500177000000000000084100000000000018064500000000000000009999123100000010000000000000BRLPSBACNOR0114
012024053102LREN3       010LOJAS RENNERON      NM   R$  000000000133400000000013400000000001304000000000131500000000013120000000001311000000000131416985000000000013754000000000018087988800000000000000009999123100000010000000000000BRLRENACNOR1220
012024053102FIQE3       010UNIFIQUE    ON      NM   R$  000000000036200000000003670000000000358000000000036100000000003590000000000359000000000036000369000000000000211000000000000076202800000000000000009999123100000010000000000000BRFIQEACNOR5106
012024053102FLRY3       010FLEURY      ON      NM   R$  000000000141200000000014140000000001386000000000139700000000014050000000001393000000000140509018000000000002593300000000003623213300000000000000009999123100000010000000000000BRFLRYACNOR5138
012024053102KRSA3       010KORA SAUDE  ON      NM   R$  000000000006900000000000700000000000068000000000006800000000000700000000000068000000000007000093000000000000256900000000000017711000000000000000009999123100000010000000000000BRKRSAACNOR0100
012024053102CAMB3       010CAMBUCI     ON  ED       R$  000000000105000000000010750000000001035000000000106400000000010750000000001065000000000107500272000000000000054800000000000058333600000000000000009999123100000010000000000000BRCAMBACNOR4129
012024053102CAML3       010CAMIL       ON  EDJ NM   R$  000000000095100000000009650000000000946000000000095600000000009570000000000952000000000095701897000000000000590100000000000564162500000000000000009999123100000010000000000000BRCAMLACNOR3128
012024053102CASH3       010MELIUZ      ON      NM   R$  000000000052700000000005320000000000520000000000052600000000005290000000000528000000000053002711000000000000873700000000000459801300000000000000009999123100000010000000000000BRCASHACNOR8106
012024053102CBAV3       010CBA         ON      NM   R$  000000000072200000000007270000000000690000000000070400000000007120000000000710000000000071208544000000000006319600000000004453694000000000000000009999123100000010000000000000BRCBAVACNOR5104
012024053102DASA3       010DASA        ON      NM   R$  000000000036500000000003650000000000335000000000034300000000003420000000000342000000000034303203000000000003864500000000001326000200000000000000009999123100000010000000000000BRDASAACNOR1122
012024053102DESK3       010DESKTOP     ON      NM   R$  000000000162000000000016540000000001610000000000162500000000016200000000001620000000000163900649000000000000173200000000000281573300000000000000009999123100000010000000000000BRDESKACNOR2104
012024053102DEXP3       010DEXXOS PAR  ON      N1   R$  000000000104100000000010520000000001032000000000103900000000010320000000001032000000000103800107000000000000021800000000000022655500000000000000009999123100000010000000000000BRDEXPACNOR1105
012024053102DEXP4       010DEXXOS PAR  PN      N1   R$  000000000103000000000010300000000001030000000000103000000000010300000000001023000000000107700002000000000000000300000000000000309000000000000000009999123100000010000000000000BRDEXPACNPR8105
012024053102DIRR3       010DIRECIONAL  ON      NM   R$  000000000251500000000025220000000002415000000000245800000000024690000000002457000000000246907945000000000002313900000000005689604300000000000000009999123100000010000000000000BRDIRRACNOR0117
012024053102DMVF3       010D1000VFARMA ON      NM   R$  000000000068500000000007360000000000673000000000070500000000006980000000000697000000000069800916000000000000164000000000000115775200000000000000009999123100000010000000000000BRDMVFACNOR9100
012024053102DOHL4       010DOHLER      PN           R$  000000000043900000000004390000000000431000000000043700000000004310000000000424000000000043400002000000000000000400000000000000174800000000000000009999123100000010000000000000BRDOHLACNPR9066
012024053102DOTZ3       010DOTZ SA     ON      NM   R$  000000000083800000000008650000000000817000000000082900000000008170000000000817000000000085800076000000000000020300000000000016836800000000000000009999123100000010000000000000BRDOTZACNOR7101
012024053102DXCO3       010DEXCO       ON      NM   R$  000000000070300000000007200000000000703000000000071400000000007200000000000713000000000072010135000000000005635300000000004028755100000000000000009999123100000010000000000000BRDXCOACNOR8105
012024053102SOJA3       010BOA SAFRA   ON      NM   R$  000000000165300000000016530000000001620000000000163000000000016330000000001632000000000164101275000000000000279900000000000456476100000000000000009999123100000010000000000000BRSOJAACNOR9105
012024053102SOMA3       010GRUPO SOMA  ON      NM   R$  000000000059300000000005940000000000575000000000058400000000005900000000000588000000000059011252000000000007500900000000004383775500000000000000009999123100000010000000000000BRSOMAACNOR3102
012024053102SRNA3       010SERENA      ON      NM   R$  000000000087600000000008800000000000857000000000086700000000008690000000000861000000000086904554000000000001720100000000001491356800000000000000009999123100000010000000000000BRSRNAACNOR4100
012024053102GRND3       010GRENDENE    ON  ED  NM   R$  000000000061300000000006180000000000609000000000061500000000006180000000000613000000000061803683000000000001801300000000001108449100000000000000009999123100000010000000000000BRGRNDACNOR3174
012024053102GUAR3       010GUARARAPES  ON  ED  NM   R$  000000000075600000000007570000000000735000000000074500000000007560000000000752000000000075602779000000000001125800000000000839394400000000000000009999123100000010000000000000BRGUARACNOR4173
012024053102STBP3       010SANTOS BRP  ON  EDJ NM   R$  000000000120100000000012010000000001148000000000115800000000011510000000001151000000000115610066000000000005958500000000006901449700000000000000009999123100000010000000000000BRSTBPACNOR3130
012024053102SUZB3       010SUZANO S.A. ON      NM   R$  000000000493000000000049600000000004863000000000488200000000048700000000004869000000000487031807000000000010491800000000051222776500000000000000009999123100000010000000000000BRSUZBACNOR0129
012024053102PRNR3       010PRINER      ON      NM   R$  000000000114500000000011610000000001140000000000114900000000011500000000001150000000000115101108000000000000252900000000000290736400000000000000009999123100000010000000000000BRPRNRACNOR4109
012024053102SLCE3       010SLC AGRICOLAON      NM   R$  000000000179700000000018000000000001753000000000177100000000017820000000001779000000000178207785000000000002721500000000004822301600000000000000009999123100000010000000000000BRSLCEACNOR2125
012024053102HAGA3       010HAGA S/A    ON           R$  000000000025300000000002530000000000253000000000025300000000002530000000000247000000000025300005000000000000001100000000000000278300000000000000009999123100000010000000000000BRHAGAACNOR7103
012024053102HAGA4       010HAGA S/A    PN           R$  000000000013300000000001450000000000120000000000012900000000001200000000000120000000000012100100000000000000057000000000000007354100000000000000009999123100000010000000000000BRHAGAACNPR4103
012024053102HAPV3       010HAPVIDA     ON      NM   R$  000000000041500000000004150000000000396000000000040000000000003990000000000399000000000040029342000000000081347600000000032620359700000000000000009999123100000010000000000000BRHAPVACNOR4114
012024053102JALL3       010JALLESMACHADON      NM   R$  000000000068400000000006860000000000676000000000067900000000006760000000000676000000000068301598000000000000590700000000000401178900000000000000009999123100000010000000000000BRJALLACNOR0105
012024053102JBSS3       010JBS         ON      NM   R$  000000000288400000000029120000000002854000000000288200000000028840000000002883000000000288923463000000000008797100000000025359708100000000000000009999123100000010000000000000BRJBSSACNOR8121
012024053102MRFG3       010MARFRIG     ON      NM   R$  000000000114000000000011470000000001121000000000112800000000011280000000001125000000000113012754000000000005610000000000006332978500000000000000009999123100000010000000000000BRMRFGACNOR0116
012024053102MRVE3       010MRV         ON      NM   R$  000000000070200000000007090000000000679000000000068800000000006920000000000690000000000069214650000000000008967200000000006176920700000000000000009999123100000010000000000000BRMRVEACNOR2127
012024053102BAHI3       010BAHEMA      ON      MA   R$  000000000070000000000007000000000000690000000000069600000000006900000000000672000000000069000006000000000000001100000000000000765800000000000000009999123100000010000000000000BRBAHIACNOR1074
012024053102NTCO3       010GRUPO NATURAON      NM   R$  000000000146800000000014950000000001462000000000148500000000014850000000001485000000000148714776000000000011872400000000017631200100000000000000009999123100000010000000000000BRNTCOACNOR5106
012024053102ODPV3       010ODONTOPREV  ON      NM   R$  000000000114800000000011480000000001113000000000112000000000011160000000001116000000000112502822000000000001010300000000001132028700000000000000009999123100000010000000000000BRODPVACNOR4201
012024053102OFSA3       010OUROFINO S/AON      NM   R$  000000000208400000000020860000000002056000000000206200000000020560000000002050000000000209800022000000000000009800000000000020213800000000000000009999123100000010000000000000BROFSAACNOR7118
012024053102HYPE3       010HYPERA      ON  EJ  NM   R$  000000000282500000000028320000000002672000000000272600000000027150000000002710000000000271613938000000000006570200000000017916292100000000000000009999123100000010000000000000BRHYPEACNOR0141
012024053102JHSF3       010JHSF PART   ON  ED  NM   R$  000000000040600000000004060000000000400000000000040200000000004000000000000399000000000040004371000000000003170600000000001275780300000000000000009999123100000010000000000000BRJHSFACNOR2136
012024053102JSLG3       010JSL         ON      NM   R$  000000000101800000000010520000000001013000000000103900000000010500000000001041000000000105001068000000000000440800000000000458050900000000000000009999123100000010000000000000BRJSLGACNOR2121
012024053102CIEL3       010CIELO       ON      NM   R$  000000000055800000000005620000000000557000000000055900000000005600000000000560000000000056109205000000000167909600000000093869602800000000000000009999123100000010000000000000BRCIELACNOR3157
012024053102CLSA3       010CLEARSALE   ON      NM   R$  000000000073000000000007500000000000717000000000073100000000007370000000000731000000000073703212000000000001064400000000000778833300000000000000009999123100000010000000000000BRCLSAACNOR0100
012024053102CLSC3       010CELESC      ON      N2   R$  000000000660100000000066010000000006601000000000660100000000066010000000006602000000000670000001000000000000000100000000000000660100000000000000009999123100000010000000000000BRCLSCACNOR6151
012024053102CLSC4       010CELESC      PN      N2   R$  000000000730000000000073690000000007300000000000736000000000073690000000007268000000000737000005000000000000004600000000000033856700000000000000009999123100000010000000000000BRCLSCACNPR3130
012024053102CMIG3       010CEMIG       ON      N1   R$  000000000123700000000012380000000001201000000000121100000000012080000000001208000000000121701959000000000000401200000000000485854800000000000000009999123100000010000000000000BRCMIGACNOR6241
012024053102CMIG4       010CEMIG       PN      N1   R$  000000000101000000000010120000000000990000000000099600000000009950000000000995000000000099624297000000000031022700000000030906232100000000000000009999123100000010000000000000BRCMIGACNPR3242
012024053102BIOM3       010BIOMM       ON      MA   R$  000000000159600000000017520000000001501000000000160700000000017500000000001750000000000175204172000000000000641600000000001031690100000000000000009999123100000010000000000000BRBIOMACNOR2112
012024053102KEPL3       010KEPLER WEBERON      NM   R$  000000000099100000000009930000000000974000000000098300000000009850000000000984000000000098502574000000000000683400000000000672317400000000000000009999123100000010000000000000BRKEPLACNOR1062
012024053102KLBN11      010KLABIN S/A  UNT     N2   R$  000000000206300000000020730000000002018000000000203300000000020320000000002031000000000203513226000000000007193500000000014626187700000000000000009999123100000010000000000000BRKLBNCDAM18142
012024053102KLBN3       010KLABIN S/A  ON      N2   R$  000000000041300000000004150000000000404000000000040800000000004040000000000404000000000040701293000000000000579500000000000236489900000000000000009999123100000010000000000000BRKLBNACNOR2170
012024053102KLBN4       010KLABIN S/A  PN      N2   R$  000000000041400000000004140000000000404000000000040600000000004040000000000404000000000040503697000000000003029400000000001232338600000000000000009999123100000010000000000000BRKLBNACNPR9170
012024053102ASAI3       010ASSAI       ON      NM   R$  000000000124300000000012530000000001215000000000122100000000012180000000001216000000000121916571000000000022512100000000027488073500000000000000009999123100000010000000000000BRASAIACNOR0106
012024053102ATOM3       010ATOMPAR     ON           R$  000000000020300000000002050000000000199000000000019900000000002000000000000200000000000020100044000000000000031400000000000006279500000000000000009999123100000010000000000000BRATOMACNOR1106
012024053102AURE3       010AUREN       ON      NM   R$  000000000120000000000012060000000001193000000000119600000000011940000000001193000000000119507460000000000003697200000000004425334800000000000000009999123100000010000000000000BRAUREACNOR9104
012024053102AVLL3       010ALPHAVILLE  ON      NM   R$  000000000034300000000003430000000000342000000000034200000000003420000000000342000000000035500004000000000000000400000000000000137000000000000000009999123100000010000000000000BRAVLLACNOR5103
012024053102AZEV3       010AZEVEDO     ON           R$  000000000012800000000001320000000000122000000000012400000000001240000000000124000000000012500408000000000000614900000000000076537600000000000000009999123100000010000000000000BRAZEVACNOR0121
012024053102AZEV4       010AZEVEDO     PN           R$  000000000012000000000001200000000000114000000000011500000000001150000000000115000000000011601056000000000001543000000000000178808900000000000000009999123100000010000000000000BRAZEVACNPR7121
012024053102BLAU3       010BLAU        ON      NM   R$  000000000103100000000010440000000001024000000000103200000000010260000000001026000000000102801092000000000000267600000000000276170300000000000000009999123100000010000000000000BRBLAUACNOR8113
012024053102BRIT3       010BRISANET    ON      NM   R$  000000000041000000000004100000000000392000000000039800000000004000000000000399000000000040101011000000000000560100000000000222952400000000000000009999123100000010000000000000BRBRITACNOR0103
012024053102BAUH4       010EXCELSIOR   PN           R$  000000000770000000000078880000000007700000000000774900000000078880000000000000000000000788900004000000000000000400000000000003099800000000000000009999123100000010000000000000BRBAUHACNPR3118
012024053102BAZA3       010AMAZONIA    ON           R$  000000000956000000000096930000000009403000000000953000000000095790000000009426000000000958000008000000000000000900000000000008577200000000000000009999123100000010000000000000BRBAZAACNOR0179
012024053102BBAS3       010BRASIL      ON      NM   R$  000000000273800000000027500000000002712000000000272200000000027120000000002712000000000271541379000000000019111300000000052022224400000000000000009999123100000010000000000000BRBBASACNOR3322
012024053102AZUL4       010AZUL        PN      N2   R$  000000000093500000000009670000000000921000000000094400000000009470000000000946000000000094817638000000000014740500000000013916411100000000000000009999123100000010000000000000BRAZULACNPR4102
012024053102BRKM3       010BRASKEM     ON      N1   R$  000000000189400000000019260000000001894000000000190500000000019000000000001903000000000192600024000000000000003000000000000005717100000000000000009999123100000010000000000000BRBRKMACNOR1119
012024053102BRKM5       010BRASKEM     PNA     N1   R$  000000000192300000000019460000000001883000000000190300000000018900000000001890000000000189305795000000000001471900000000002802324900000000000000009999123100000010000000000000BRBRKMACNPA4121
012024053102CURY3       010CURY S/A    ON      NM   R$  000000000189000000000019030000000001831000000000184800000000018430000000001833000000000184407223000000000001596000000000002949667300000000000000009999123100000010000000000000BRCURYACNOR3109
012024053102CVCB3       010CVC BRASIL  ON      NM   R$  000000000019800000000001990000000000193000000000019500000000001930000000000193000000000019407152000000000008576400000000001672732500000000000000009999123100000010000000000000BRCVCBACNOR1115
012024053102CXSE3       010CAIXA SEGURION      NM   R$  000000000150600000000015160000000001455000000000148200000000014870000000001484000000000148716288000000000010443300000000015486579800000000000000009999123100000010000000000000BRCXSEACNOR7106
012024053102BMEB3       010MERCANTIL   ON      N1   R$  000000000250000000000025200000000002490000000000250200000000024900000000002490000000000264900004000000000000000400000000000001001000000000000000009999123100000010000000000000BRBMEBACNOR8205
012024053102BMEB4       010MERCANTIL   PN      N1   R$  000000000265900000000026890000000002588000000000264800000000026890000000002624000000000268900054000000000000008900000000000023575500000000000000009999123100000010000000000000BRBMEBACNPR5210
012024053102BMGB4       010BANCO BMG   PN      N1   R$  000000000034000000000003410000000000336000000000033800000000003360000000000335000000000033600637000000000000338600000000000114579200000000000000009999123100000010000000000000BRBMGBACNPR0109
012024053102BMKS3       010BIC MONARK  ON           R$  000000003530000000000353000000000035299000000003529900000000352990000000034700000000003529900005000000000000000013000000000000458891000000000000009999123100000010000000000000BRBMKSACNOR9166
012024053102BMOB3       010BEMOBI TECH ON      NM   R$  000000000130900000000013090000000001291000000000129900000000013000000000001300000000000130101717000000000000449700000000000584427700000000000000009999123100000010000000000000BRBMOBACNOR7103
012024053102BEEF3       010MINERVA     ON      NM   R$  000000000063100000000006370000000000620000000000062500000000006200000000000619000000000062006399000000000006711000000000004199939200000000000000009999123100000010000000000000BRBEEFACNOR6116
012024053102BPAC11      010BTGP BANCO  UNT     N2   R$  000000000320100000000032170000000003159000000000317500000000031590000000003159000000000316020531000000000009400800000000029853822700000000000000009999123100000010000000000000BRBPACUNT006118
012024053102BPAC3       010BTGP BANCO  ON      N2   R$  000000000160500000000016250000000001500000000000159900000000015700000000001568000000000159100038000000000000005700000000000009115800000000000000009999123100000010000000000000BRBPACACNOR7133
012024053102BPAC5       010BTGP BANCO  PNA     N2   R$  000000000078800000000007920000000000785000000000078600000000007900000000000785000000000079000043000000000000006500000000000005113700000000000000009999123100000010000000000000BRBPACACNPA0133
012024053102BPAN4       010BANCO PAN   PN      N1   R$  000000000090500000000009180000000000888000000000090400000000009130000000000904000000000091303661000000000001799900000000001628228900000000000000009999123100000010000000000000BRBPANACNPR1115
012024053102CYRE3       010CYRELA REALTON      NM   R$  000000000193000000000019420000000001894000000000191500000000019110000000001909000000000191112237000000000004314600000000008264782200000000000000009999123100000010000000000000BRCYREACNOR7140
012024053102GGPS3       010GPS         ON      NM   R$  000000000182200000000018620000000001809000000000183900000000018540000000001842000000000185404458000000000002014400000000003704948700000000000000009999123100000010000000000000BRGGPSACNOR9103
012024053102GMAT3       010GRUPO MATEUSON      NM   R$  000000000078000000000007880000000000771000000000078100000000007780000000000774000000000077808435000000000007707600000000006021454400000000000000009999123100000010000000000000BRGMATACNOR7101
012024053102GOAU3       010GERDAU MET  ON      N1   R$  000000000108700000000010870000000001074000000000107900000000010820000000001080000000000108300189000000000000039500000000000042645400000000000000009999123100000010000000000000BRGOAUACNOR1267
012024053102GOAU4       010GERDAU MET  PN      N1   R$  000000000106700000000010780000000001064000000000106900000000010710000000001070000000000107212144000000000008111100000000008674867900000000000000009999123100000010000000000000BRGOAUACNPR8268
012024053102MILS3       010MILLS       ON      NM   R$  000000000122300000000012230000000001181000000000119500000000011960000000001191000000000119603877000000000001583000000000001892308400000000000000009999123100000010000000000000BRMILSACNOR2126
012024053102MLAS3       010MULTILASER  ON      NM   R$  000000000022100000000002220000000000211000000000021400000000002130000000000213000000000021602003000000000001161800000000000249569800000000000000009999123100000010000000000000BRMLASACNOR9101
012024053102BOBR4       010BOMBRIL     PN           R$  000000000021200000000002150000000000209000000000021100000000002150000000000209000000000021500015000000000000002500000000000000528500000000000000009999123100000010000000000000BRBOBRACNPR3128
012024053102BRSR3       010BANRISUL    ON      N1   R$  000000000116500000000011750000000001132000000000115200000000011350000000001135000000000115500055000000000000008000000000000009217300000000000000009999123100000010000000000000BRBRSRACNOR3187
012024053102BRSR5       010BANRISUL    PNA     N1   R$  000000000150000000000015000000000001500000000000150000000000015000000000001450000000000198600001000000000000000100000000000000150000000000000000009999123100000010000000000000BRBRSRACNPA6191
012024053102BRSR6       010BANRISUL    PNB     N1   R$  000000000111100000000011160000000001089000000000109300000000010890000000001089000000000110404767000000000003229200000000003531348600000000000000009999123100000010000000000000BRBRSRACNPB4190
012024053102BSLI3       010BRB BANCO   ON  EDJ      R$  000000000099800000000009980000000000990000000000099300000000009900000000000980000000000103800003000000000000000300000000000000297900000000000000009999123100000010000000000000BRBSLIACNOR5194
012024053102BSLI4       010BRB BANCO   PN  EDJ      R$  000000000106800000000010730000000001010000000000106000000000010730000000001001000000000107300006000000000000000600000000000000636000000000000000009999123100000010000000000000BRBSLIACNPR2194
012024053102MNDL3       010MUNDIAL     ON  EBG      R$  000000000130000000000013000000000001300000000000130000000000013000000000000933000000000129600002000000000000000200000000000000260000000000000000009999123100000010000000000000BRMNDLACNOR4109
012024053102MNPR3       010MINUPAR     ON           R$  000000000110800000000011080000000001052000000000108800000000010700000000001000000000000107800013000000000000003000000000000003265100000000000000009999123100000010000000000000BRMNPRACNOR5122
012024053102MOVI3       010MOVIDA      ON      NM   R$  000000000065400000000006630000000000642000000000064900000000006480000000000648000000000065303765000000000003006900000000001952673300000000000000009999123100000010000000000000BRMOVIACNOR0122
012024053102EALT3       010ACO ALTONA  ON           R$  000000000116700000000011670000000001101000000000114400000000011300000000001091000000000120000004000000000000000500000000000000572300000000000000009999123100000010000000000000BREALTACNOR4138
012024053102EALT4       010ACO ALTONA  PN           R$  000000000119100000000011990000000001170000000000118500000000011940000000001170000000000119700031000000000000007600000000000009007000000000000000009999123100000010000000000000BREALTACNPR1138
012024053102ECOR3       010ECORODOVIAS ON      NM   R$  000000000069500000000007040000000000687000000000069200000000006890000000000689000000000069004706000000000003306900000000002289011200000000000000009999123100000010000000000000BRECORACNOR8120
012024053102PINE3       010PINE        ON      N2   R$  000000000060300000000006030000000000570000000000058600000000005700000000000566000000000060000002000000000000000200000000000000117300000000000000009999123100000010000000000000BRPINEACNOR1149
012024053102PINE4       010PINE        PN      N2   R$  000000000042800000000004290000000000423000000000042600000000004250000000000424000000000042500284000000000000187300000000000079908500000000000000009999123100000010000000000000BRPINEACNPR8149
012024053102PLAS3       010PLASCAR PARTON           R$  000000000054000000000005400000000000526000000000053500000000005260000000000530000000000057500002000000000000000300000000000000160600000000000000009999123100000010000000000000BRPLASACNOR2106
012024053102PLPL3       010PLANOEPLANO ON      NM   R$  000000000098400000000009840000000000957000000000096700000000009760000000000971000000000097602656000000000000592300000000000573056100000000000000009999123100000010000000000000BRPLPLACNOR5104
012024053102PNVL3       010DIMED       ON      NM   R$  000000000103600000000010680000000001023000000000103900000000010680000000001039000000000106801609000000000000248600000000000258309900000000000000009999123100000010000000000000BRPNVLACNOR9206
012024053102POMO3       010MARCOPOLO   ON  EJ  N2   R$  000000000051900000000005190000000000502000000000050800000000005090000000000505000000000051001729000000000000915200000000000465702900000000000000009999123100000010000000000000BRPOMOACNOR0098
012024053102POMO4       010MARCOPOLO   PN  EJ  N2   R$  000000000066100000000006690000000000641000000000065400000000006520000000000651000000000065310879000000000011503200000000007523695200000000000000009999123100000010000000000000BRPOMOACNPR7098
012024053102PORT3       010WILSON SONS ON  ED  NM   R$  000000000155500000000015550000000001532000000000153900000000015400000000001532000000000154002078000000000001968200000000003030919400000000000000009999123100000010000000000000BRPORTACNOR8108
012024053102B3SA3       010B3          ON      NM   R$  000000000108800000000010880000000001070000000000107500000000010700000000001070000000000107359611000000000074010400000000079629430800000000000000009999123100000010000000000000BRB3SAACNOR6132
012024053102BEES3       010BANESTES    ON           R$  000000000089600000000009010000000000892000000000089700000000009010000000000893000000000090100055000000000000007000000000000006279300000000000000009999123100000010000000000000BRBEESACNOR9390
012024053102BEES4       010BANESTES    PN           R$  000000000096900000000009750000000000969000000000097100000000009690000000000968000000000097500023000000000000003200000000000003109800000000000000009999123100000010000000000000BRBEESACNPR6315
012024053102EGIE3       010ENGIE BRASILON      NM   R$  000000000435500000000044100000000004334000000000434900000000043340000000004332000000000433709582000000000006129300000000026658684200000000000000009999123100000010000000000000BREGIEACNOR9126
012024053102HBOR3       010HELBOR      ON      NM   R$  000000000023300000000002360000000000229000000000023200000000002300000000000230000000000023200462000000000000263300000000000061130000000000000000009999123100000010000000000000BRHBORACNOR3118
012024053102HBRE3       010HBR REALTY  ON      NM   R$  000000000046600000000004660000000000454000000000045700000000004570000000000456000000000045700686000000000000334400000000000153044100000000000000009999123100000010000000000000BRHBREACNOR4100
012024053102HBSA3       010HIDROVIAS   ON      NM   R$  000000000040800000000004100000000000401000000000040400000000004010000000000401000000000040303951000000000005149000000000002081381300000000000000009999123100000010000000000000BRHBSAACNOR0100
012024053102HBTS5       010HABITASUL   PNA          R$  000000000377000000000037700000000003770000000000377000000000037700000000003770000000000415000001000000000000000100000000000000377000000000000000009999123100000010000000000000BRHBTSACNPA3128
012024053102HETA4       010HERCULES    PN           R$  000000000054200000000005570000000000542000000000054900000000005430000000000542000000000056700005000000000000000800000000000000439900000000000000009999123100000010000000000000BRHETAACNPR9136
012024053102POSI3       010POSITIVO TECON      NM   R$  000000000091800000000009250000000000890000000000090300000000009050000000000902000000000090502666000000000001014400000000000916311200000000000000009999123100000010000000000000BRPOSIACNOR9116
012024053102BGIP4       010BANESE      PN           R$  000000000226100000000022610000000002261000000000226100000000022610000000002160000000000226100004000000000000000400000000000000904400000000000000009999123100000010000000000000BRBGIPACNPR8208
012024053102BRAP4       010BRADESPAR   PN      N1   R$  000000000193400000000019410000000001914000000000192100000000019200000000001919000000000192409627000000000003423700000000006579096100000000000000009999123100000010000000000000BRBRAPACNPR2148
012024053102BRBI11      010BR PARTNERS UNT     N2   R$  000000000141500000000014270000000001410000000000141800000000014220000000001420000000000142200727000000000000122400000000000173681200000000000000009999123100000010000000000000BRBRBICDAM10109
012024053102BRFS3       010BRF SA      ON      NM   R$  000000000190000000000019260000000001858000000000186100000000018580000000001856000000000185824811000000000072720900000000135382357600000000000000009999123100000010000000000000BRBRFSACNOR8122
012024053102SANB11      010SANTANDER BRUNT          R$  000000000275900000000028340000000002735000000000277800000000027750000000002775000000000279826451000000000071195800000000197848084000000000000000009999123100000010000000000000BRSANBCDAM13164
012024053102CSED3       010CRUZEIRO EDUON      NM   R$  000000000042300000000004230000000000398000000000040300000000004010000000000401000000000040201126000000000000480600000000000193839300000000000000009999123100000010000000000000BRCSEDACNOR9104
012024053102CSMG3       010COPASA      ON      NM   R$  000000000202000000000020300000000001998000000000201400000000020150000000002010000000000201504276000000000001388700000000002797231500000000000000009999123100000010000000000000BRCSMGACNOR5173
012024053102CSNA3       010SID NACIONALON           R$  000000000131400000000013340000000001302000000000130900000000013080000000001307000000000130812807000000000007943800000000010406110100000000000000009999123100000010000000000000BRCSNAACNOR6261
012024053102CSRN3       010COSERN      ON           R$  000000000247500000000024750000000002356000000000244700000000024690000000002356000000000247000010000000000000001400000000000003426300000000000000009999123100000010000000000000BRCSRNACNOR0192
012024053102CSUD3       010CSU DIGITAL ON      NM   R$  000000000184000000000018950000000001826000000000186500000000018380000000001830000000000183900122000000000000019000000000000035437400000000000000009999123100000010000000000000BRCSUDACNOR5109
012024053102FRAS3       010FRAS-LE     ON      N1   R$  000000000176100000000017720000000001735000000000174700000000017510000000001738000000000175101305000000000000265600000000000464019100000000000000009999123100000010000000000000BRFRASACNOR0159
012024053102SANB3       010SANTANDER BRON           R$  000000000130700000000013390000000001295000000000132300000000013300000000001325000000000133000671000000000000104100000000000137730400000000000000009999123100000010000000000000BRSANBACNOR8171
012024053102SANB4       010SANTANDER BRPN           R$  000000000145200000000014900000000001444000000000147400000000014700000000001469000000000147300906000000000000150700000000000222249100000000000000009999123100000010000000000000BRSANBACNPR5171
012024053102SAPR11      010SANEPAR     UNT     N2   R$  000000000279400000000027940000000002731000000000274400000000027310000000002730000000000273303570000000000001018000000000002793537700000000000000009999123100000010000000000000BRSAPRCDAM13117
012024053102SAPR3       010SANEPAR     ON      N2   R$  000000000052700000000005270000000000515000000000052000000000005150000000000515000000000051900639000000000000207200000000000107745700000000000000009999123100000010000000000000BRSAPRACNOR9158
012024053102SAPR4       010SANEPAR     PN      N2   R$  000000000056700000000005680000000000556000000000056100000000005590000000000557000000000055904526000000000001950900000000001094686600000000000000009999123100000010000000000000BRSAPRACNPR6158
012024053102SBFG3       010GRUPO SBF   ON      NM   R$  000000000118100000000011900000000001152000000000116400000000011630000000001162000000000116303273000000000000931400000000001084388300000000000000009999123100000010000000000000BRSBFGACNOR1103
012024053102ZAMP3       010ZAMP S.A.   ON           R$  000000000031000000000003200000000000307000000000031400000000003150000000000315000000000031802849000000000000595200000000000187465800000000000000009999123100000010000000000000BRZAMPACNOR5100
012024053102FRIO3       010METALFRIO   ON      NM   R$  000000003349900000000341000000000033000000000003387200000000340000000000015301000000003400000048000000000000007000000000000237106900000000000000009999123100000010000000000000BRFRIOACNOR2111
012024053102BRAP3       010BRADESPAR   ON      N1   R$  000000000189000000000018900000000001854000000000186300000000018620000000001859000000000186200478000000000000116900000000000217872500000000000000009999123100000010000000000000BRBRAPACNOR5148
012024053102ESPA3       010ESPACOLASER ON      NM   R$  000000000011600000000001170000000000114000000000011400000000001160000000000115000000000011600293000000000000851800000000000097940400000000000000009999123100000010000000000000BRESPAACNOR7103
012024053102EUCA3       010EUCATEX     ON      N1   R$  000000000144300000000014830000000001443000000000145600000000014830000000001446000000000150500003000000000000000300000000000000436900000000000000009999123100000010000000000000BREUCAACNOR1157
012024053102PETZ3       010PETZ        ON      NM   R$  000000000036900000000003820000000000361000000000037000000000003750000000000375000000000037810219000000000009352000000000003468979300000000000000009999123100000010000000000000BRPETZACNOR2110
012024053102ROMI3       010ROMI        ON      NM   R$  000000000105000000000010500000000001031000000000103600000000010350000000001033000000000103501027000000000000180500000000000187055500000000000000009999123100000010000000000000BRROMIACNOR8194
012024053102GFSA3       010GAFISA      ON      NM   R$  000000000041200000000004180000000000405000000000041000000000004140000000000414000000000041501685000000000001008800000000000414544000000000000000009999123100000010000000000000BRGFSAACNOR3124
012024053102GGBR3       010GERDAU      ON      N1   R$  000000000163500000000016350000000001611000000000162000000000016120000000001612000000000161300504000000000000080600000000000130632600000000000000009999123100000010000000000000BRGGBRACNOR1192
012024053102GGBR4       010GERDAU      PN      N1   R$  000000000181800000000018310000000001796000000000181000000000018110000000001808000000000181228416000000000020769600000000037610264600000000000000009999123100000010000000000000BRGGBRACNPR8192
012024053102ITUB3       010ITAUUNIBANCOON      N1   R$  000000000272200000000027340000000002689000000000269700000000026950000000002695000000000270001139000000000000361000000000000973896400000000000000009999123100000010000000000000BRITUBACNOR4335
012024053102ITUB4       010ITAUUNIBANCOPN      N1   R$  000000000313400000000031410000000003100000000000310900000000031030000000003102000000000310732454000000000034258100000000106539697200000000000000009999123100000010000000000000BRITUBACNPR1335
012024053102PRIO3       010PETRORIO    ON      NM   R$  000000000421100000000042580000000004139000000000417300000000041610000000004160000000000416127762000000000013169800000000054962338000000000000000009999123100000010000000000000BRPRIOACNOR1106
012024053102SBSP3       010SABESP      ON      NM   R$  000000000743400000000074500000000007317000000000738600000000073860000000007385000000000739622233000000000009328200000000068905444700000000000000009999123100000010000000000000BRSBSPACNOR5161
012024053102ONCO3       010ONCOCLINICASON  ES  NM   R$  000000000090900000000009270000000000893000000000090100000000008950000000000893000000000089519898000000000005687100000000005127553500000000000000009999123100000010000000000000BRONCOACNOR6101
012024053102OPCT3       010OCEANPACT   ON      NM   R$  000000000063400000000006340000000000613000000000061700000000006150000000000615000000000061701777000000000000378000000000000233242100000000000000009999123100000010000000000000BROPCTACNOR0100
012024053102ORVR3       010ORIZON      ON      NM   R$  000000000409600000000041140000000004029000000000406200000000040690000000004067000000000407100960000000000000269800000000001096192500000000000000009999123100000010000000000000BRORVRACNOR0101
012024053102RPAD3       010ALFA HOLDINGON           R$  000000000090000000000009000000000000900000000000090000000000009000000000000900000000000095600002000000000000000800000000000000720000000000000000009999123100000010000000000000BRRPADACNOR1198
012024053102RPAD5       010ALFA HOLDINGPNA          R$  000000000087900000000008790000000000879000000000087900000000008790000000000852000000000088000001000000000000000200000000000000175800000000000000009999123100000010000000000000BRRPADACNPA4218
012024053102RRRP3       0103R PETROLEUMON      NM   R$  000000000276400000000028200000000002742000000000278300000000028200000000002810000000000282010143000000000003806700000000010594525500000000000000009999123100000010000000000000BRRRRPACNOR5103
012024053102RSUL4       010RIOSULENSE  PN           R$  000000000699700000000069970000000006900000000000692400000000069000000000006401000000000690000004000000000000000400000000000002769700000000000000009999123100000010000000000000BRRSULACNPR3114
012024053102SCAR3       010SAO CARLOS  ON      NM   R$  000000000256500000000025900000000002490000000000253500000000025900000000002483000000000259600178000000000000073000000000000185112300000000000000009999123100000010000000000000BRSCARACNOR7131
012024053102SEER3       010SER EDUCA   ON      NM   R$  000000000050000000000005050000000000477000000000048900000000004940000000000487000000000049501337000000000000481800000000000235796700000000000000009999123100000010000000000000BRSEERACNOR5119
012024053102SEQL3       010SEQUOIA LOG ON  EG  NM   R$  000000000060200000000006490000000000597000000000062300000000006390000000000639000000000064200635000000000000305200000000000190313300000000000000009999123100000010000000000000BRSEQLACNOR2103
012024053102SHOW3       010TIME FOR FUNON      NM   R$  000000000018700000000001880000000000178000000000018100000000001790000000000179000000000018100290000000000000128400000000000023331200000000000000009999123100000010000000000000BRSHOWACNOR7105
012024053102SHUL4       010SCHULZ      PN           R$  000000000061400000000006140000000000596000000000060500000000006070000000000607000000000060902670000000000000844300000000000511105400000000000000009999123100000010000000000000BRSHULACNPR4155
012024053102SIMH3       010SIMPAR      ON      NM   R$  000000000060200000000006090000000000600000000000060200000000006030000000000601000000000060304682000000000004267100000000002569193800000000000000009999123100000010000000000000BRSIMHACNOR0107
012024053102CCRO3       010CCR SA      ON      NM   R$  000000000120700000000012240000000001197000000000120400000000012040000000001203000000000120415404000000000012840800000000015460417000000000000000009999123100000010000000000000BRCCROACNOR2145
012024053102CEAB3       010CEA MODAS   ON      NM   R$  000000000099000000000010250000000000951000000000097900000000009610000000000960000000000096108852000000000008266600000000008096324600000000000000009999123100000010000000000000BRCEABACNOR1102
012024053102CEBR3       010CEB         ON           R$  000000000235700000000024000000000002310000000000236400000000023100000000002309000000000237100021000000000000002800000000000006621000000000000000009999123100000010000000000000BRCEBRACNOR5125
012024053102CEBR5       010CEB         PNA          R$  000000000199900000000019990000000001964000000000198800000000019950000000001965000000000199800004000000000000000400000000000000795300000000000000009999123100000010000000000000BRCEBRACNPA8124
012024053102CEBR6       010CEB         PNB          R$  000000000205700000000020570000000002040000000000204800000000020500000000002050000000000210000009000000000000001000000000000002048700000000000000009999123100000010000000000000BRCEBRACNPB6124
012024053102CEEB3       010COELBA      ON           R$  000000000398900000000039970000000003970000000000398400000000039700000000003970000000000399800006000000000000000600000000000002390600000000000000009999123100000010000000000000BRCEEBACNOR3198
012024053102CGRA3       010GRAZZIOTIN  ON           R$  000000000249200000000024950000000002492000000000249400000000024950000000002481000000000249500010000000000000001200000000000002993500000000000000009999123100000010000000000000BRCGRAACNOR2082
012024053102CGRA4       010GRAZZIOTIN  PN           R$  000000000251900000000025540000000002519000000000253600000000025520000000002501000000000255300024000000000000002900000000000007355900000000000000009999123100000010000000000000BRCGRAACNPR9082
012024053102TTEN3       0103TENTOS     ON      NM   R$  000000000097300000000009750000000000953000000000096300000000009730000000000968000000000097302995000000000000605100000000000583253300000000000000009999123100000010000000000000BRTTENACNOR0103
012024053102TUPY3       010TUPY        ON  ED  NM   R$  000000000230500000000023350000000002281000000000230200000000023150000000002305000000000231504644000000000000858800000000001977057500000000000000009999123100000010000000000000BRTUPYACNOR1184
012024053102VALE3       010VALE        ON      NM   R$  000000000628900000000063450000000006279000000000631400000000063200000000006319000000000632030969000000000023382600000000147643140300000000000000009999123100000010000000000000BRVALEACNOR0210
012024053102PFRM3       010PROFARMA    ON      NM   R$  000000000052600000000005350000000000520000000000052700000000005270000000000525000000000052700641000000000000139700000000000073632100000000000000009999123100000010000000000000BRPFRMACNOR1116
012024053102PGMN3       010PAGUE MENOS ON      NM   R$  000000000023700000000002370000000000228000000000023000000000002290000000000229000000000023101615000000000000939300000000000216709100000000000000009999123100000010000000000000BRPGMNACNOR8103
012024053102MTRE3       010MITRE REALTYON  ED  NM   R$  000000000037700000000003780000000000368000000000037000000000003680000000000368000000000037101634000000000000961600000000000356593500000000000000009999123100000010000000000000BRMTREACNOR6111
012024053102MTSA4       010METISA      PN           R$  000000000457700000000045770000000004461000000000455400000000045600000000004400000000000456000014000000000000001800000000000008197200000000000000009999123100000010000000000000BRMTSAACNPR9072
012024053102MULT3       010MULTIPLAN   ON      N2   R$  000000000228000000000022950000000002250000000000227200000000022700000000002268000000000227712606000000000003220100000000007316474900000000000000009999123100000010000000000000BRMULTACNOR5138
012024053102MYPK3       010IOCHP-MAXIONON      NM   R$  000000000108600000000010880000000001071000000000107300000000010720000000001072000000000108305094000000000006088500000000006534341400000000000000009999123100000010000000000000BRMYPKACNOR7154
012024053102UCAS3       010UNICASA     ON      NM   R$  000000000023500000000002350000000000227000000000022900000000002270000000000227000000000022900165000000000000047700000000000010943800000000000000009999123100000010000000000000BRUCASACNOR1113
012024053102UGPA3       010ULTRAPAR    ON      NM   R$  000000000234600000000023580000000002307000000000232300000000023170000000002317000000000231825771000000000018564600000000043144060800000000000000009999123100000010000000000000BRUGPAACNOR8155
012024053102UNIP3       010UNIPAR      ON           R$  000000000501500000000050410000000004990000000000501300000000050070000000004990000000000500700030000000000000003300000000000016545100000000000000009999123100000010000000000000BRUNIPACNOR7206
012024053102UNIP5       010UNIPAR      PNA          R$  000000000603200000000061490000000006032000000000606100000000061490000000005491000000000614700004000000000000000400000000000002424500000000000000009999123100000010000000000000BRUNIPACNPA0208
012024053102UNIP6       010UNIPAR      PNB          R$  000000000501400000000050440000000004970000000000499700000000050010000000004995000000000500201391000000000000289400000000001446140100000000000000009999123100000010000000000000BRUNIPACNPB8206
012024053107NUTR3       010NUTRIPLANT  ON      MA   R$  000000000051500000000005510000000000501000000000052900000000005260000000000523000000000054000025000000000000005400000000000002860700000000000000009999123100000010000000000000BRNUTRACNOR0104
012024053107BHIA3       010CASAS BAHIA ON      NM   R$  000000000070800000000007100000000000686000000000069800000000007090000000000696000000000070902782000000000001734000000000001211558400000000000000009999123100000010000000000000BRBHIAACNOR1101
012024053107TXRX4       010TEX RENAUX  PN           R$  000000000025400000000002540000000000240000000000024300000000002400000000000240000000000025200008000000000000005500000000000001341400000000000000009999123100000010000000000000BRTXRXACNPR0142
012024053108AMER3       010AMERICANAS  ON  ES  NM   R$  000000000005200000000000530000000000046000000000004800000000000460000000000046000000000004703684000000000052720300000000002552537200000000000000009999123100000010000000000000BRAMERACNOR6102
012024053108LIGT3       010LIGHT S/A   ON      NM   R$  000000000051600000000005220000000000497000000000050300000000005000000000000500000000000050204712000000000001269900000000000639556000000000000000009999123100000010000000000000BRLIGTACNOR2124
012024053108NEXP3       010NEXPE       ON           R$  000000000041700000000004170000000000413000000000041400000000004130000000000413000000000041500008000000000000003800000000000001574200000000000000009999123100000010000000000000BRNEXPACNOR0101
012024053108HOOT4       010HOTEIS OTHONPN           R$  000000000027700000000002780000000000277000000000027700000000002770000000000276000000000027700005000000000000000800000000000000221700000000000000009999123100000010000000000000BRHOOTACNPR9015
012024053108JFEN3       010JOAO FORTES ON           R$  000000000013400000000001380000000000131000000000013400000000001330000000000132000000000013400067000000000000020000000000000002684700000000000000009999123100000010000000000000BRJFENACNOR0059
012024053108ATMP3       010ATMASA      ON           R$  000000000022900000000002380000000000224000000000022900000000002380000000000225000000000023800032000000000000016600000000000003802200000000000000009999123100000010000000000000BRATMPACNOR8100
012024053108CTSA3       010SANTANENSE  ON           R$  000000000023800000000002380000000000238000000000023800000000002380000000000238000000000024000001000000000000000100000000000000023800000000000000009999123100000010000000000000BRCTSAACNOR3062
012024053108CTSA4       010SANTANENSE  PN           R$  000000000011000000000001100000000000107000000000010800000000001090000000000107000000000010800031000000000000018800000000000002036800000000000000009999123100000010000000000000BRCTSAACNPR0062
012024053108BDLL4       010BARDELLA    PN           R$  000000000097000000000009700000000000960000000000096500000000009600000000000960000000000105000002000000000000000200000000000000193000000000000000009999123100000010000000000000BRBDLLACNPR8151
012024053108PMAM3       010PARANAPANEMAON      NM   R$  000000000026100000000002680000000000250000000000025400000000002510000000000251000000000025200244000000000000118300000000000030118600000000000000009999123100000010000000000000BRPMAMACNOR3039
012024053108CTNM4       010COTEMINAS   PN           R$  000000000008900000000000910000000000085000000000008600000000000850000000000085000000000008600042000000000000018600000000000001607600000000000000009999123100000010000000000000BRCTNMACNPR6129
012024053108ETER3       010ETERNIT     ON      NM   R$  000000000061500000000006190000000000601000000000061100000000006180000000000618000000000061900951000000000000223600000000000136686300000000000000009999123100000010000000000000BRETERACNOR3243
012024053108RNEW11      010RENOVA      UNT     N2   R$  000000000029400000000002990000000000293000000000029400000000002990000000000293000000000029900016000000000000009400000000000002766200000000000000009999123100000010000000000000BRRNEWCDAM15110
012024053108RNEW3       010RENOVA      ON      N2   R$  000000000009700000000001000000000000097000000000009800000000000990000000000098000000000009900044000000000000024600000000000002430200000000000000009999123100000010000000000000BRRNEWACNOR8110
012024053108RNEW4       010RENOVA      PN      N2   R$  000000000009700000000001010000000000096000000000009800000000001010000000000100000000000010100116000000000000151000000000000014858800000000000000009999123100000010000000000000BRRNEWACNPR5110
012024053108OIBR3       010OI          ON      N1   R$  000000000006100000000000620000000000060000000000006000000000000600000000000060000000000006100618000000000001603400000000000096870300000000000000009999123100000010000000000000BROIBRACNOR1110
012024053108OIBR4       010OI          PN      N1   R$  000000000017400000000001740000000000172000000000017300000000001720000000000172000000000017300046000000000000016000000000000002770000000000000000009999123100000010000000000000BROIBRACNPR8109
012024053108OSXB3       010OSX BRASIL  ON      NM   R$  000000000039000000000003960000000000381000000000039100000000003960000000000382000000000039700017000000000000003400000000000001329800000000000000009999123100000010000000000000BROSXBACNOR8109
012024053108RPMG3       010PET MANGUINHON           R$  000000000032500000000003500000000000290000000000032500000000002950000000000293000000000029500296000000000000203800000000000066420100000000000000009999123100000010000000000000BRRPMGACNOR9194
012024053108RSID3       010ROSSI RESID ON      NM   R$  000000000050800000000005160000000000505000000000050600000000005050000000000505000000000051500044000000000000011000000000000005572900000000000000009999123100000010000000000000BRRSIDACNOR8120
012024053108SGPS3       010SPRINGS     ON      NM   R$  000000000004600000000000470000000000044000000000004400000000000460000000000045000000000004600358000000000000319500000000000014351900000000000000009999123100000010000000000000BRSGPSACNOR4104
012024053110AGXY1       010AGROGALAXY  DIR ORD NM   R$  000000000000100000000000010000000000001000000000000100000000000010000000000000000000000000100023000000000000028900000000000000028900000000000000009999123100000010000000000000BRAGXYD01OR9102
012024053110AMER95      010AMERICANAS  DIR     NM   R$  000000000000200000000000140000000000002000000000000600000000000080000000000008000000000000901387000000000002071950000000000013420209000000000000009999123100000010000000000000BRAMERD01M17100
012024053110BNBR1       010NORD BRASIL DIR ORD      R$  000000000002000000000000200000000000020000000000002000000000000200000000000004000000000004500002000000000000000400000000000000008000000000000000009999123100000010000000000000BRBNBRD05OR4207
012024053110BSLI2       010BRB BANCO   DIR PRE      R$  000000000006700000000000670000000000060000000000006500000000000600000000000040000000000006400002000000000000000500000000000000032800000000000000009999123100000010000000000000BRBSLID02PR5192
012024053110ONCO1       010ONCOCLINICASDIR ORD NM   R$  000000000000400000000000040000000000002000000000000300000000000030000000000002000000000000300313000000000001250700000000000003947500000000000000009999123100000010000000000000BRONCOD01OR1100
012024053112ABCP11      010FII ABC IMOBCI           R$  000000000698600000000070490000000006986000000000703000000000070280000000007013000000000702900106000000000000000927000000000006517373000000000000009999123100000010000000000000BRABCPCTF000338
012024053112CNES11      010FII CENESP  CI  ER       R$  000000000016400000000001670000000000162000000000016300000000001640000000000163000000000016405180000000000000049178000000000008057625000000000000009999123100000010000000000000BRCNESCTF001259
012024053112EQIR11      010FII EQI RECECI  ER       R$  000000000090300000000009050000000000900000000000090100000000009050000000000905000000000090601991000000000000021425000000000019316974000000000000009999123100000010000000000000BREQIRCTF003132
012024053112BBIG11      010FII BBIG    CI           R$  000000000098700000000009890000000000981000000000098500000000009820000000000982000000000098900902000000000000012042000000000011871797000000000000009999123100000010000000000000BRBBIGCTF004100
012024053112BBRC11      010FII BB CORP CI           R$  000000001071500000000107150000000010670000000001070200000000107010000000010701000000001071000121000000000000000975000000000010435206000000000000009999123100000010000000000000BRBBRCCTF004252
012024053112CPFF11      010FII CAP REITCI           R$  000000000760000000000076520000000007600000000000760700000000076090000000007600000000000760900227000000000000003229000000000024565326000000000000009999123100000010000000000000BRCPFFCTF000155
012024053112TEPP11      010FII TEL PROPCI           R$  000000000954100000000095500000000009530000000000953500000000095480000000009541000000000955003832000000000000012814000000000122191849000000000000009999123100000010000000000000BRTEPPCTF006149
012024053112VCJR11      010FII VECTIS  CI           R$  000000000922400000000092870000000009215000000000925300000000092270000000009227000000000924706541000000000000035522000000000328716719000000000000009999123100000010000000000000BRVCJRCTF005154
012024053112VCRI11      010FII VINCI CRCI           R$  000000000087100000000008730000000000869000000000087200000000008730000000000869000000000087300215000000000000020027000000000017471809000000000000009999123100000010000000000000BRVCRICTF007124
012024053112VCRR11      010FII VECT RENCI           R$  000000000657000000000067020000000006570000000000665200000000066940000000006650000000000669400606000000000000004722000000000031414431000000000000009999123100000010000000000000BRVCRRCTF008135
012024053112VGHF11      010FII VALOR HECI           R$  000000000089100000000008950000000000889000000000089100000000008910000000000890000000000089116369000000000000411501000000000366989731000000000000009999123100000010000000000000BRVGHFCTF005143
012024053112VGIP11      010FII VALORAIPCI           R$  000000000899000000000090750000000008919000000000903600000000090640000000009062000000000906402564000000000000016969000000000153340705000000000000009999123100000010000000000000BRVGIPCTF002155
012024053112VGIR11      010FII VALREIIICI           R$  000000000097800000000009840000000000976000000000098000000000009820000000000981000000000098223855000000000000335372000000000328866343000000000000009999123100000010000000000000BRVGIRCTF008175
012024053112VGRI11      010FII VGRI    CI           R$  000000000091200000000009950000000000912000000000096300000000009800000000000980000000000098500444000000000000064505000000000062180595000000000000009999123100000010000000000000BRVGRICTF008102
012024053112VIFI11      010FII VINCI IFCI           R$  000000000081400000000008190000000000814000000000081400000000008170000000000814000000000081800200000000000000019672000000000016022024000000000000009999123100000010000000000000BRVIFICTF009155
012024053112VILG11      010FII VINCI LGCI           R$  000000000861100000000089130000000008576000000000874100000000088600000000008849000000000886010213000000000000050464000000000441109457000000000000009999123100000010000000000000BRVILGCTF001170
012024053112VINO11      010FII VINCI OFCI           R$  000000000078800000000007900000000000780000000000078500000000007860000000000786000000000078704923000000000000080840000000000063470793000000000000009999123100000010000000000000BRVINOCTF001156
012024053112VISC11      010FII VINCI SCCI           R$  000000001216200000000122060000000012104000000001216900000000121920000000012192000000001219311385000000000000051865000000000631174768000000000000009999123100000010000000000000BRVISCCTF005185
012024053112VIUR11      010FII VINCI IUCI           R$  000000000064500000000006510000000000645000000000064800000000006510000000000650000000000065101198000000000000035614000000000023107221000000000000009999123100000010000000000000BRVIURCTF009136
012024053112PRSV11      010FII P VARGASCI           R$  000000000650700000000065070000000006472000000000647500000000064720000000006365000000000663400002000000000000000010000000000000064755000000000000009999123100000010000000000000BRPRSVCTF008225
012024053112PVBI11      010FII VBI PRI CI           R$  000000000942300000000095790000000009423000000000953100000000095660000000009565000000000956609140000000000000038591000000000367819271000000000000009999123100000010000000000000BRPVBICTF003151
012024053112QAGR11      010FII QUASAR ACI           R$  000000000471500000000048200000000004701000000000477700000000048180000000004810000000000481801298000000000000003524000000000016836362000000000000009999123100000010000000000000BRQAGRCTF005154
012024053112NAVT11      010FII NAVI TOTCI           R$  000000000943000000000094300000000009260000000000929700000000093000000000009293000000000930000342000000000000004075000000000037886003000000000000009999123100000010000000000000BRNAVTCTF015138
012024053112NCHB11      010FII NCH BR  CI           R$  000000000092600000000009310000000000926000000000092900000000009310000000000928000000000093100598000000000000029630000000000027535079000000000000009999123100000010000000000000BRNCHBCTF000229
012024053112NCRI11      010FII NAVI CRICI           R$  000000000085700000000008770000000000857000000000086900000000008690000000000865000000000086900020000000000000000138000000000000120035000000000000009999123100000010000000000000BRNCRICTF004117
012024053112AFHI11      010FII AFHI CRICI  ES       R$  000000000970000000000097240000000009681000000000970400000000097050000000009695000000000970505433000000000000014877000000000144368372000000000000009999123100000010000000000000BRAFHICTF005142
012024053112AIEC11      010FII AUTONOMYCI           R$  000000000550000000000055500000000005496000000000551700000000055250000000005503000000000552500587000000000000006590000000000036362861000000000000009999123100000010000000000000BRAIECCTF009144
012024053112AJFI11      010FII AJ MALLSCI           R$  000000000091100000000009300000000000908000000000091400000000009150000000000913000000000091504701000000000000042740000000000039067275000000000000009999123100000010000000000000BRAJFICTF001106
012024053112ALZC11      010FII ALIANZACCI           R$  000000000971100000000097110000000009600000000000962600000000096000000000009413000000000990000005000000000000000020000000000000192533000000000000009999123100000010000000000000BRALZCCTF016103
012024053112ALZM11      010FII ALIANZMECI           R$  000000000083000000000008330000000000826000000000082700000000008290000000000827000000000082900293000000000000017930000000000014838000000000000000009999123100000010000000000000BRALZMCTF007122
012024053112ALZR11      010FII ALIANZA CI           R$  000000001095600000000110190000000010950000000001096800000000109990000000010995000000001099903566000000000000025529000000000280005048000000000000009999123100000010000000000000BRALZRCTF006182
012024053112MAXR11      010FII MAX RET CI           R$  000000000831300000000083230000000008240000000000829500000000082480000000008249000000000829600053000000000000000300000000000002488719000000000000009999123100000010000000000000BRMAXRCTF009267
012024053112MCCI11      010FII MAUA    CI           R$  000000000909900000000092000000000009033000000000909600000000090870000000009087000000000909906260000000000000045942000000000417921708000000000000009999123100000010000000000000BRMCCICTF008161
012024053112MCHY11      010FII MAUA HY CI           R$  000000000094300000000009770000000000943000000000096500000000009770000000000968000000000097722313000000000000857173000000000827386984000000000000009999123100000010000000000000BRMCHYCTF004137
012024053112ALMI11      010FII TORRE ALCI           R$  000000006450000000000645000000000063000000000006436500000000630000000000063200000000006449900058000000000000000261000000000016799472000000000000009999123100000010000000000000BRALMICTF003250
012024053112ICRI11      010FII CI IPCA CI           R$  000000000979700000000098760000000009771000000000982500000000098180000000009780000000000981800123000000000000003757000000000036913646000000000000009999123100000010000000000000BRICRICTF004103
012024053112IDFI11      010FII UNIDADESCI           R$  000000000130400000000013790000000001304000000000131100000000013740000000001305000000000137200017000000000000000139000000000000182295000000000000009999123100000010000000000000BRIDFICTF007131
012024053112IDGR11      010FII UNID II CI           R$  000000000135000000000013500000000001300000000000131600000000013000000000000700000000000125000002000000000000000003000000000000003950000000000000009999123100000010000000000000BRIDGRCTF006126
012024053112WHGR11      010FII WHG REALCI           R$  000000000098100000000009840000000000979000000000098100000000009840000000000983000000000098402452000000000000032592000000000031993715000000000000009999123100000010000000000000BRWHGRCTF008124
012024053112WPLZ11      010FII W PLAZA CI           R$  000000000615900000000061600000000006085000000000615400000000060850000000006016000000000608500010000000000000000030000000000000184645000000000000009999123100000010000000000000BRWPLZCTF004265
012024053112WSEC11      010FII WARREN  CI           R$  000000000859200000000085920000000008592000000000859200000000085920000000008592000000000860300006000000000000000142000000000001220064000000000000009999123100000010000000000000BRWSECCTF010119
012024053112XPCI11      010FII XP CRED CI           R$  000000000883000000000089250000000008826000000000890600000000089190000000008918000000000891906397000000000000013678000000000121827679000000000000009999123100000010000000000000BRXPCICTF007156
