00COTAHIST.2024BOVESPA 20240108                                                                                                                                                                                                                      
012024010802BRAP3       010BRADESPAR   ON      N1   R$  000000000229200000000022920000000002258000000000226700000000022610000000002260000000000226900460000000000000069500000000000157582700000000000000009999123100000010000000000000BRBRAPACNOR5147
012024010802BRAP4       010BRADESPAR   PN      N1   R$  000000000247600000000024780000000002454000000000246500000000024760000000002471000000000247605439000000000001993300000000004914966800000000000000009999123100000010000000000000BRBRAPACNPR2147
012024010802CPFE3       010CPFL ENERGIAON      NM   R$  000000000383300000000038370000000003780000000000380900000000038000000000003800000000000380707261000000000001984900000000007560719200000000000000009999123100000010000000000000BRCPFEACNOR0136
012024010802CPLE3       010COPEL       ON      N2   R$  000000000091400000000009230000000000906000000000091300000000009170000000000912000000000091806762000000000007289600000000006662009300000000000000009999123100000010000000000000BRCPLEACNOR8148
012024010802CPLE6       010COPEL       PNB     N2   R$  000000000100800000000010100000000000998000000000100400000000010050000000001005000000000100615015000000000014358600000000014419017700000000000000009999123100000010000000000000BRCPLEACNPB9145
012024010802ENEV3       010ENEVA       ON      NM   R$  000000000134600000000013700000000001346000000000135700000000013520000000001351000000000135310134000000000010494200000000014246854700000000000000009999123100000010000000000000BRENEVACNOR8105
012024010802ENGI11      010ENERGISA    UNT ED  N2   R$  000000000524000000000053840000000005214000000000528300000000053600000000005348000000000536009884000000000005064400000000026755480800000000000000009999123100000010000000000000BRENGICDAM16135
012024010802ENGI3       010ENERGISA    ON  ED  N2   R$  000000000189000000000018900000000001851000000000187500000000018800000000001775000000000197000032000000000000004000000000000007501100000000000000009999123100000010000000000000BRENGIACNOR0145
012024010802ENGI4       010ENERGISA    PN  ED  N2   R$  000000000084000000000008700000000000840000000000085000000000008690000000000852000000000086500059000000000000016100000000000013694100000000000000009999123100000010000000000000BRENGIACNPR7141
012024010802ENJU3       010ENJOEI      ON      NM   R$  000000000015800000000001770000000000158000000000017000000000001750000000000173000000000017500768000000000001684400000000000286720700000000000000009999123100000010000000000000BRENJUACNOR9100
012024010802ENMT3       010ENERGISA MT ON           R$  000000000690000000000069000000000006900000000000690000000000069000000000006111000000000720000001000000000000000100000000000000690000000000000000009999123100000010000000000000BRENMTACNOR5119
012024010802EPAR3       010EMBPAR S/A  ON  ED       R$  000000000103500000000010350000000001005000000000102100000000010060000000001005000000000101700180000000000000127600000000000130322900000000000000009999123100000010000000000000BREPARACNOR9104
012024010802EQMA3B      010EQTLMARANHAOON      MB   R$  000000000298000000000029800000000002980000000000298000000000029800000000002907000000000297900001000000000000000100000000000000298000000000000000009999123100000010000000000000BREQMAACNOR8107
012024010802EQPA3       010EQTL PARA   ON           R$  000000000077000000000007710000000000750000000000075800000000007700000000000761000000000077400019000000000000002300000000000001745000000000000000009999123100000010000000000000BREQPAACNOR1109
012024010802EQTL3       010EQUATORIAL  ON      NM   R$  000000000347800000000034910000000003425000000000346500000000034700000000003469000000000347121277000000000015471500000000053621528300000000000000009999123100000010000000000000BREQTLACNOR0129
012024010802IFCM3       010INFRACOMM   ON      NM   R$  000000000016200000000001660000000000161000000000016400000000001640000000000164000000000016502840000000000005038600000000000827668300000000000000009999123100000010000000000000BRIFCMACNOR8101
012024010802IGTI11      010IGUATEMI S.AUNT     N1   R$  000000000239300000000024650000000002393000000000244600000000024490000000002446000000000245311828000000000002011000000000004919041600000000000000009999123100000010000000000000BRIGTICDAM16104
012024010802PNVL3       010DIMED       ON  EJ  NM   R$  000000000129900000000013150000000001286000000000130300000000013000000000001300000000000130101063000000000000206800000000000269598500000000000000009999123100000010000000000000BRPNVLACNOR9205
012024010802POMO3       010MARCOPOLO   ON      N2   R$  000000000058000000000005820000000000570000000000058000000000005820000000000579000000000058201512000000000000773700000000000448995500000000000000009999123100000010000000000000BRPOMOACNOR0095
012024010802POMO4       010MARCOPOLO   PN      N2   R$  000000000075300000000007620000000000741000000000075300000000007590000000000758000000000076010301000000000008781800000000006620833000000000000000009999123100000010000000000000BRPOMOACNPR7095
012024010802PORT3       010WILSON SONS ON      NM   R$  000000000171400000000017380000000001713000000000172500000000017240000000001723000000000173500318000000000000130200000000000224641200000000000000009999123100000010000000000000BRPORTACNOR8105
012024010802POSI3       010POSITIVO TECON      NM   R$  000000000065300000000006770000000000642000000000066200000000006700000000000670000000000067202721000000000001279500000000000847626600000000000000009999123100000010000000000000BRPOSIACNOR9115
012024010802PRIO3       010PETRORIO    ON      NM   R$  000000000455000000000045810000000004421000000000450900000000045750000000004570000000000457526018000000000009674200000000043628071200000000000000009999123100000010000000000000BRPRIOACNOR1106
012024010802IGTI3       010IGUATEMI S.AON      N1   R$  000000000029200000000003120000000000292000000000030400000000003120000000000310000000000031200279000000000000150400000000000045751500000000000000009999123100000010000000000000BRIGTIACNOR8104
012024010802INEP3       010INEPAR      ON           R$  000000000041000000000004150000000000406000000000040800000000004090000000000406000000000041000057000000000000011100000000000004539300000000000000009999123100000010000000000000BRINEPACNOR1143
012024010802INEP4       010INEPAR      PN           R$  000000000032000000000003220000000000312000000000031600000000003150000000000315000000000032000168000000000000034300000000000010862600000000000000009999123100000010000000000000BRINEPACNPR8143
012024010802INTB3       010INTELBRAS   ON  EJ  NM   R$  000000000206700000000021490000000002067000000000211400000000021460000000002133000000000214603494000000000000901200000000001905344600000000000000009999123100000010000000000000BRINTBACNOR9109
012024010802IRBR3       010IRBBRASIL REON      NM   R$  000000000409400000000042700000000004076000000000418700000000042180000000004218000000000422205090000000000001500200000000006282185500000000000000009999123100000010000000000000BRIRBRACNOR4110
012024010802LUPA3       010LUPATECH    ON      NM   R$  000000000021600000000002190000000000214000000000021700000000002180000000000217000000000021800199000000000000114000000000000024746000000000000000009999123100000010000000000000BRLUPAACNOR8112
012024010802LVTC3       010WDC NETWORKSON      NM   R$  000000000039500000000004060000000000395000000000040000000000004060000000000399000000000040600073000000000000029100000000000011655800000000000000009999123100000010000000000000BRLVTCACNOR4102
012024010802LWSA3       010LOCAWEB     ON      NM   R$  000000000056000000000005800000000000553000000000056900000000005800000000000575000000000058011813000000000008121100000000004626560300000000000000009999123100000010000000000000BRLWSAACNOR8103
012024010802MDNE3       010MOURA DUBEUXON      NM   R$  000000000119500000000012130000000001170000000000119000000000011790000000001179000000000118803677000000000000973500000000001158479900000000000000009999123100000010000000000000BRMDNEACNOR9100
012024010802MEAL3       010IMC S/A     ON      NM   R$  000000000018100000000001920000000000180000000000018700000000001890000000000188000000000018901457000000000001465800000000000275300500000000000000009999123100000010000000000000BRMEALACNOR9105
012024010802MELK3       010MELNICK     ON      NM   R$  000000000046700000000004800000000000467000000000047500000000004710000000000471000000000047600329000000000000080100000000000038059100000000000000009999123100000010000000000000BRMELKACNOR8110
012024010802MGEL4       010MANGELS INDLPN           R$  000000000133900000000013750000000001339000000000136600000000013750000000001350000000000137800004000000000000000400000000000000546400000000000000009999123100000010000000000000BRMGELACNPR3147
012024010802MGLU3       010MAGAZ LUIZA ON      NM   R$  000000000019500000000002090000000000195000000000020200000000002090000000000208000000000020951702000000000137606300000000027930215000000000000000009999123100000010000000000000BRMGLUACNOR2121
012024010802ALPA3       010ALPARGATAS  ON      N1   R$  000000000098800000000010180000000000980000000000099200000000010170000000000996000000000101800047000000000000007400000000000007344900000000000000009999123100000010000000000000BRALPAACNOR0231
012024010802ALPA4       010ALPARGATAS  PN      N1   R$  000000000093600000000009840000000000936000000000097000000000009690000000000968000000000097210147000000000003871600000000003756292500000000000000009999123100000010000000000000BRALPAACNPR7232
012024010802ALPK3       010ESTAPAR     ON      NM   R$  000000000048100000000005060000000000479000000000049400000000004930000000000490000000000049300613000000000000254900000000000126012600000000000000009999123100000010000000000000BRALPKACNOR9101
012024010802BOBR4       010BOMBRIL     PN           R$  000000000020000000000002040000000000195000000000020100000000002030000000000201000000000020400038000000000000028800000000000005816700000000000000009999123100000010000000000000BRBOBRACNPR3128
012024010802GEPA4       010GER PARANAP PN           R$  000000000255100000000025510000000002550000000000255000000000025510000000002540000000000259000003000000000000000600000000000001530300000000000000009999123100000010000000000000BRGEPAACNPR9159
012024010802GFSA3       010GAFISA      ON      NM   R$  000000000111600000000011700000000001034000000000110800000000010550000000001055000000000105908262000000000004798300000000005320429500000000000000009999123100000010000000000000BRGFSAACNOR3123
012024010802ITUB3       010ITAUUNIBANCOON  EJ  N1   R$  000000000283500000000028530000000002823000000000283400000000028340000000002830000000000283400526000000000000170700000000000483887800000000000000009999123100000010000000000000BRITUBACNOR4329
012024010802ITUB4       010ITAUUNIBANCOPN  EJ  N1   R$  000000000335200000000033670000000003329000000000334100000000033340000000003333000000000333827849000000000011810700000000039468787000000000000000009999123100000010000000000000BRITUBACNPR1329
012024010802PINE4       010PINE        PN      N2   R$  000000000049000000000004970000000000480000000000049100000000004930000000000493000000000049403084000000000002111400000000001036971300000000000000009999123100000010000000000000BRPINEACNPR8147
012024010802PLAS3       010PLASCAR PARTON           R$  000000000072200000000007220000000000722000000000072200000000007220000000000711000000000073000002000000000000000600000000000000433200000000000000009999123100000010000000000000BRPLASACNOR2106
012024010802PLPL3       010PLANOEPLANO ON      NM   R$  000000000109900000000011260000000001077000000000110800000000011260000000001114000000000112602059000000000000444500000000000492581200000000000000009999123100000010000000000000BRPLPLACNOR5103
012024010802ATOM3       010ATOMPAR     ON           R$  000000000021800000000002190000000000217000000000021700000000002170000000000217000000000021800029000000000000011900000000000002592800000000000000009999123100000010000000000000BRATOMACNOR1106
012024010802AURE3       010AUREN       ON      NM   R$  000000000134600000000013610000000001339000000000135100000000013520000000001350000000000135207250000000000003738800000000005054803800000000000000009999123100000010000000000000BRAUREACNOR9103
012024010802AVLL3       010ALPHAVILLE  ON      NM   R$  000000000049600000000005000000000000491000000000049800000000005000000000000481000000000050900004000000000000001400000000000000698300000000000000009999123100000010000000000000BRAVLLACNOR5103
012024010802AZEV3       010AZEVEDO     ON           R$  000000000019900000000002010000000000197000000000019900000000001990000000000198000000000019900343000000000000258000000000000051423200000000000000009999123100000010000000000000BRAZEVACNOR0121
012024010802AZEV4       010AZEVEDO     PN           R$  000000000020000000000002020000000000198000000000019900000000002000000000000199000000000020001476000000000001360300000000000271538700000000000000009999123100000010000000000000BRAZEVACNPR7121
012024010802AZUL4       010AZUL        PN      N2   R$  000000000137200000000014910000000001370000000000145800000000014890000000001489000000000149022430000000000019427700000000028341336900000000000000009999123100000010000000000000BRAZULACNPR4102
012024010802BEEF3       010MINERVA     ON      NM   R$  000000000070900000000007230000000000703000000000071300000000007140000000000714000000000071806230000000000008735400000000006235055600000000000000009999123100000010000000000000BRBEEFACNOR6116
012024010802BEES3       010BANESTES    ON  EJ       R$  000000000097500000000009750000000000940000000000096600000000009620000000000962000000000097000123000000000000016400000000000015850000000000000000009999123100000010000000000000BRBEESACNOR9386
012024010802BRBI11      010BR PARTNERS UNT     N2   R$  000000000156800000000016100000000001541000000000158800000000016100000000001588000000000161200617000000000000139300000000000221247200000000000000009999123100000010000000000000BRBRBICDAM10107
012024010802BRFS3       010BRF SA      ON      NM   R$  000000000126800000000012800000000001258000000000126900000000012700000000001269000000000127114474000000000008423800000000010691477800000000000000009999123100000010000000000000BRBRFSACNOR8121
012024010802BRGE3       010ALFA CONSORCON           R$  000000000117100000000011710000000001171000000000117100000000011710000000001128000000000117000001000000000000000400000000000000468400000000000000009999123100000010000000000000BRBRGEACNOR6203
012024010802BRIT3       010BRISANET    ON      NM   R$  000000000032800000000003380000000000324000000000033000000000003330000000000333000000000033700960000000000000393000000000000130077700000000000000009999123100000010000000000000BRBRITACNOR0102
012024010802BRKM3       010BRASKEM     ON      N1   R$  000000000204700000000020670000000001994000000000202700000000020610000000002054000000000207100071000000000000014900000000000030212400000000000000009999123100000010000000000000BRBRKMACNOR1119
012024010802BRKM5       010BRASKEM     PNA     N1   R$  000000000199700000000020650000000001992000000000204100000000020510000000002051000000000205908335000000000002128200000000004345757100000000000000009999123100000010000000000000BRBRKMACNPA4121
012024010802CRFB3       010CARREFOUR BRON      NM   R$  000000000116000000000012060000000001156000000000119200000000011950000000001194000000000119613235000000000011337800000000013523365000000000000000009999123100000010000000000000BRCRFBACNOR2116
012024010802CRIV4       010ALFA FINANC PN  EJ       R$  000000000056600000000005660000000000564000000000056500000000005640000000000564000000000056900003000000000000000400000000000000226200000000000000009999123100000010000000000000BRCRIVACNPR1211
012024010802CRPG5       010CRISTAL     PNA          R$  000000000369000000000037480000000003690000000000373000000000037480000000003747000000000374800006000000000000000600000000000002238500000000000000009999123100000010000000000000BRCRPGACNPA3118
012024010802CSAN3       010COSAN       ON      NM   R$  000000000191500000000019520000000001907000000000193900000000019520000000001950000000000195215252000000000006728300000000013047479100000000000000009999123100000010000000000000BRCSANACNOR6124
012024010802CSED3       010CRUZEIRO EDUON      NM   R$  000000000048400000000005100000000000483000000000049900000000005000000000000499000000000050001772000000000000573300000000000286516000000000000000009999123100000010000000000000BRCSEDACNOR9104
012024010802CSMG3       010COPASA      ON      NM   R$  000000000206200000000021070000000002047000000000209000000000021070000000002105000000000210703487000000000000756200000000001581090800000000000000009999123100000010000000000000BRCSMGACNOR5171
012024010802ESPA3       010ESPACOLASER ON      NM   R$  000000000010900000000001140000000000107000000000011000000000001120000000000112000000000011301127000000000001729200000000000191312700000000000000009999123100000010000000000000BRESPAACNOR7103
012024010802EUCA3       010EUCATEX     ON  EJ  N1   R$  000000000170000000000017520000000001700000000000173000000000017520000000001721000000000175200015000000000000005100000000000008826100000000000000009999123100000010000000000000BREUCAACNOR1157
012024010802EUCA4       010EUCATEX     PN  EJ  N1   R$  000000000159400000000016270000000001581000000000160800000000016270000000001612000000000162700415000000000000141300000000000227276500000000000000009999123100000010000000000000BREUCAACNPR8044
012024010802EVEN3       010EVEN        ON      NM   R$  000000000075600000000007730000000000747000000000076300000000007610000000000760000000000076101755000000000000451400000000000344690200000000000000009999123100000010000000000000BREVENACNOR8118
012024010802EZTC3       010EZTEC       ON      NM   R$  000000000164000000000017300000000001624000000000169600000000017010000000001700000000000170107258000000000001851600000000003141270300000000000000009999123100000010000000000000BREZTCACNOR0123
012024010802ITSA3       010ITAUSA      ON      N1   R$  000000000102300000000010270000000001019000000000102200000000010190000000001019000000000102000280000000000000118500000000000121159400000000000000009999123100000010000000000000BRITSAACNOR0436
012024010802ITSA4       010ITAUSA      PN      N1   R$  000000000102300000000010250000000001013000000000101800000000010160000000001016000000000101822861000000000015826100000000016119401900000000000000009999123100000010000000000000BRITSAACNPR7436
012024010802ARZZ3       010AREZZO CO   ON      NM   R$  000000000606100000000064400000000006012000000000631500000000063980000000006396000000000640011636000000000002261100000000014279641300000000000000009999123100000010000000000000BRARZZACNOR3146
012024010802ASAI3       010ASSAI       ON      NM   R$  000000000135700000000014170000000001351000000000140200000000014170000000001417000000000141826285000000000017538900000000024594179000000000000000009999123100000010000000000000BRASAIACNOR0106
012024010802B3SA3       010B3          ON  EDJ NM   R$  000000000138600000000014310000000001385000000000141900000000014280000000001427000000000142840477000000000027469900000000038995130600000000000000009999123100000010000000000000BRB3SAACNOR6130
012024010802BEES4       010BANESTES    PN  EJ       R$  000000000099000000000010080000000000951000000000098900000000010080000000001000000000000100800054000000000000010200000000000010097900000000000000009999123100000010000000000000BRBEESACNPR6311
012024010802BGIP3       010BANESE      ON           R$  000000000269900000000027060000000002699000000000270200000000027060000000002635000000000000000002000000000000000200000000000000540500000000000000009999123100000010000000000000BRBGIPACNOR1206
012024010802BGIP4       010BANESE      PN           R$  000000000234000000000024000000000002340000000000238500000000024000000000002400000000000250000005000000000000000900000000000002146700000000000000009999123100000010000000000000BRBGIPACNPR8206
012024010802BHIA3       010CASAS BAHIA ON      NM   R$  000000000103600000000011100000000001031000000000108600000000011100000000001103000000000111006398000000000003271900000000003555386200000000000000009999123100000010000000000000BRBHIAACNOR1101
012024010802CSNA3       010SID NACIONALON           R$  000000000191100000000019360000000001897000000000192100000000019250000000001924000000000192709795000000000003769100000000007243070100000000000000009999123100000010000000000000BRCSNAACNOR6260
012024010802CSRN3       010COSERN      ON  EJ       R$  000000000290000000000029000000000002900000000000290000000000029000000000002620000000000290000003000000000000000400000000000001160000000000000000009999123100000010000000000000BRCSRNACNOR0190
012024010802FESA4       010FERBASA     PN      N1   R$  000000000439100000000044480000000004379000000000442200000000044300000000004420000000000443300818000000000000141000000000000623630200000000000000009999123100000010000000000000BRFESAACNPR5082
012024010802FHER3       010FER HERINGERON      NM   R$  000000000073800000000007690000000000738000000000076000000000007690000000000750000000000076900039000000000000008700000000000006615700000000000000009999123100000010000000000000BRFHERACNOR5103
012024010802FIQE3       010UNIFIQUE    ON      NM   R$  000000000039500000000003950000000000387000000000038900000000003920000000000391000000000039300428000000000000133700000000000052139400000000000000009999123100000010000000000000BRFIQEACNOR5105
012024010802FLRY3       010FLEURY      ON      NM   R$  000000000175300000000017650000000001736000000000175800000000017640000000001763000000000176407053000000000001667000000000002931398200000000000000009999123100000010000000000000BRFLRYACNOR5137
012024010802FRAS3       010FRAS-LE     ON      N1   R$  000000000163500000000016600000000001627000000000165000000000016500000000001650000000000165501480000000000000236500000000000390238400000000000000009999123100000010000000000000BRFRASACNOR0158
012024010802FRIO3       010METALFRIO   ON      NM   R$  000000002419900000000242000000000023525000000002403400000000235250000000023300000000002399900008000000000000000800000000000019227300000000000000009999123100000010000000000000BRFRIOACNOR2111
012024010802ONCO3       010ONCOCLINICASON      NM   R$  000000000123000000000012760000000001230000000000126100000000012690000000001267000000000126904970000000000001655500000000002088213200000000000000009999123100000010000000000000BRONCOACNOR6100
012024010802OPCT3       010OCEANPACT   ON      NM   R$  000000000062000000000006310000000000613000000000061800000000006190000000000614000000000061901896000000000000368500000000000227765800000000000000009999123100000010000000000000BROPCTACNOR0100
012024010802ORVR3       010ORIZON      ON      NM   R$  000000000369500000000037970000000003694000000000372800000000037290000000003729000000000373001618000000000000492900000000001837609400000000000000009999123100000010000000000000BRORVRACNOR0101
012024010802OSXB3       010OSX BRASIL  ON      NM   R$  000000000044500000000004470000000000437000000000044400000000004370000000000435000000000043700008000000000000001100000000000000488700000000000000009999123100000010000000000000BROSXBACNOR8109
012024010802RANI3       010IRANI       ON      NM   R$  000000000106900000000010890000000001063000000000107400000000010800000000001080000000000108102268000000000000627400000000000674432400000000000000009999123100000010000000000000BRRANIACNOR5069
012024010802RAPT3       010RANDON PART ON      N1   R$  000000000119900000000012000000000001181000000000119300000000012000000000001185000000000120000059000000000000009100000000000010863900000000000000009999123100000010000000000000BRRAPTACNOR7162
012024010802RAPT4       010RANDON PART PN      N1   R$  000000000128400000000013190000000001275000000000130400000000013080000000001305000000000130803584000000000000892900000000001165215100000000000000009999123100000010000000000000BRRAPTACNPR4162
012024010802RCSL3       010RECRUSUL    ON           R$  000000000029100000000003100000000000258000000000028700000000002940000000000294000000000030309255000000000010756900000000003088972900000000000000009999123100000010000000000000BRRCSLACNOR4133
012024010802RCSL4       010RECRUSUL    PN           R$  000000000008100000000000810000000000077000000000007900000000000800000000000079000000000008002002000000000004343700000000000343418300000000000000009999123100000010000000000000BRRCSLACNPR1133
012024010802RDNI3       010RNI         ON      NM   R$  000000000045000000000004650000000000450000000000045600000000004550000000000454000000000045800017000000000000007700000000000003514100000000000000009999123100000010000000000000BRRDNIACNOR9116
012024010802RDOR3       010REDE D OR   ON      NM   R$  000000000280000000000029180000000002786000000000288000000000028880000000002888000000000289911250000000000004818600000000013880784600000000000000009999123100000010000000000000BRRDORACNOR8111
012024010802RECV3       010PETRORECSA  ON      NM   R$  000000000208400000000020990000000002045000000000207700000000020950000000002095000000000209609649000000000002600100000000005402078200000000000000009999123100000010000000000000BRRECVACNOR3105
012024010802REDE3       010REDE ENERGIAON           R$  000000000070000000000007290000000000694000000000070500000000006990000000000698000000000069900054000000000000015100000000000010650400000000000000009999123100000010000000000000BRREDEACNOR7126
012024010802AALR3       010ALLIAR      ON      NM   R$  000000000088700000000008970000000000849000000000087100000000008800000000000877000000000088000819000000000000155500000000000135535000000000000000009999123100000010000000000000BRAALRACNOR6102
012024010802VITT3       010VITTIA      ON  EJ  NM   R$  000000000100100000000010200000000000993000000000100900000000010100000000001010000000000102100499000000000000076200000000000076926700000000000000009999123100000010000000000000BRVITTACNOR4106
012024010802PATI4       010PANATLANTICAPN           R$  000000000330000000000033000000000003300000000000330000000000033000000000003100000000000329800002000000000000000200000000000000660000000000000000009999123100000010000000000000BRPATIACNPR3064
012024010802PCAR3       010P.ACUCAR-CBDON      NM   R$  000000000040500000000004250000000000403000000000041500000000004090000000000409000000000041211336000000000010433400000000004338118200000000000000009999123100000010000000000000BRPCARACNOR3167
012024010802PDGR3       010PDG REALT   ON      NM   R$  000000000004200000000000440000000000041000000000004200000000000430000000000042000000000004300691000000000002762200000000000116525300000000000000009999123100000010000000000000BRPDGRACNOR8118
012024010802PDTC3       010PADTEC      ON      NM   R$  000000000031300000000003180000000000310000000000031300000000003170000000000315000000000031700139000000000000048500000000000015207200000000000000009999123100000010000000000000BRPDTCACNOR3100
012024010802PEAB3       010PAR AL BAHIAON           R$  000000000399000000000039900000000003990000000000399000000000039900000000003120000000000397900009000000000000001200000000000004788000000000000000009999123100000010000000000000BRPEABACNOR3131
012024010802PEAB4       010PAR AL BAHIAPN           R$  000000000452000000000045200000000004520000000000452000000000045200000000004411000000000500000002000000000000000500000000000002260000000000000000009999123100000010000000000000BRPEABACNPR0131
012024010802PETR3       010PETROBRAS   ON      N2   R$  000000000398000000000039990000000003901000000000394700000000039640000000003963000000000396919619000000000009800700000000038683756800000000000000009999123100000010000000000000BRPETRACNOR9202
012024010802PETR4       010PETROBRAS   PN      N2   R$  000000000383800000000038430000000003761000000000380000000000038430000000003838000000000384451484000000000035158100000000133620606200000000000000009999123100000010000000000000BRPETRACNPR6209
012024010802HYPE3       010HYPERA      ON  EJ  NM   R$  000000000352300000000036340000000003493000000000360300000000036230000000003612000000000362309401000000000002257200000000008133271800000000000000009999123100000010000000000000BRHYPEACNOR0136
012024010802KRSA3       010KORA SAUDE  ON      NM   R$  000000000012700000000001270000000000123000000000012500000000001250000000000125000000000012701691000000000000495600000000000062164100000000000000009999123100000010000000000000BRKRSAACNOR0100
012024010802LAND3       010TERRASANTAPAON      NM   R$  000000000170000000000017470000000001685000000000171200000000016850000000001685000000000170600275000000000000060500000000000103590900000000000000009999123100000010000000000000BRLANDACNOR9102
012024010802QUAL3       010QUALICORP   ON      NM   R$  000000000032800000000003370000000000321000000000033100000000003320000000000330000000000033203353000000000002662100000000000882397700000000000000009999123100000010000000000000BRQUALACNOR6119
012024010802RADL3       010RAIADROGASILON      NM   R$  000000000293500000000029870000000002912000000000293600000000029170000000002917000000000292412209000000000004429500000000013007188100000000000000009999123100000010000000000000BRRADLACNOR0154
012024010802RAIL3       010RUMO S.A.   ON      NM   R$  000000000226500000000023750000000002259000000000234000000000023640000000002363000000000236720929000000000010537300000000024664966500000000000000009999123100000010000000000000BRRAILACNOR9104
012024010802SRNA3       010SERENA      ON      NM   R$  000000000102000000000010270000000000998000000000101400000000010160000000001016000000000102801652000000000000551900000000000560015600000000000000009999123100000010000000000000BRSRNAACNOR4100
012024010802STBP3       010SANTOS BRP  ON  EDJ NM   R$  000000000093300000000009770000000000930000000000096300000000009710000000000971000000000097207287000000000003725700000000003589736600000000000000009999123100000010000000000000BRSTBPACNOR3128
012024010802SUZB3       010SUZANO S.A. ON      NM   R$  000000000537100000000054750000000005335000000000541300000000054750000000005455000000000547513096000000000002529400000000013693511600000000000000009999123100000010000000000000BRSUZBACNOR0129
012024010802PRNR3       010PRINER      ON      NM   R$  000000000112800000000011520000000001115000000000113600000000011470000000001146000000000114700504000000000000092300000000000104868700000000000000009999123100000010000000000000BRPRNRACNOR4108
012024010802PSSA3       010PORTO SEGUROON  EJ  NM   R$  000000000285600000000028810000000002832000000000285800000000028630000000002863000000000286404045000000000000831900000000002378135800000000000000009999123100000010000000000000BRPSSAACNOR7153
012024010802PTBL3       010PORTOBELLO  ON      NM   R$  000000000066600000000007030000000000666000000000068800000000006920000000000692000000000069301444000000000000636500000000000438363400000000000000009999123100000010000000000000BRPTBLACNOR8132
012024010802PTNT3       010PETTENATI   ON           R$  000000000118800000000011950000000001176000000000118700000000011950000000001189000000000119900021000000000000002500000000000002968500000000000000009999123100000010000000000000BRPTNTACNOR6042
012024010802PTNT4       010PETTENATI   PN           R$  000000000084500000000008450000000000820000000000082600000000008200000000000820000000000083000055000000000000023800000000000019663500000000000000009999123100000010000000000000BRPTNTACNPR3047
012024010802SMFT3       010SMART FIT   ON      NM   R$  000000000248300000000026250000000002464000000000259300000000025940000000002592000000000259410040000000000002981000000000007731969000000000000000009999123100000010000000000000BRSMFTACNOR1111
012024010802SMTO3       010SAO MARTINHOON      NM   R$  000000000283300000000028350000000002787000000000280700000000027880000000002788000000000281010312000000000002907400000000008162419400000000000000009999123100000010000000000000BRSMTOACNOR3125
012024010802SNSY3       010SANSUY      ON           R$  000000000050100000000005290000000000475000000000049800000000005280000000000508000000000052800022000000000000004100000000000002045200000000000000009999123100000010000000000000BRSNSYACNOR2113
012024010802SNSY5       010SANSUY      PNA          R$  000000000037100000000003760000000000370000000000037300000000003740000000000370000000000037600016000000000000003800000000000001418100000000000000009999123100000010000000000000BRSNSYACNPA5111
012024010802SOJA3       010BOA SAFRA   ON      NM   R$  000000000156600000000015670000000001532000000000154500000000015470000000001543000000000154700775000000000000131200000000000202816200000000000000009999123100000010000000000000BRSOJAACNOR9105
012024010802SOMA3       010GRUPO SOMA  ON      NM   R$  000000000077200000000008120000000000756000000000079700000000008120000000000810000000000081217576000000000022101600000000017615515700000000000000009999123100000010000000000000BRSOMAACNOR3102
012024010802SCAR3       010SAO CARLOS  ON      NM   R$  000000000263000000000026700000000002616000000000263900000000026290000000002623000000000263000145000000000000028300000000000074696100000000000000009999123100000010000000000000BRSCARACNOR7130
012024010802SEER3       010SER EDUCA   ON      NM   R$  000000000071200000000007270000000000702000000000072000000000007270000000000725000000000072701213000000000000480500000000000346078300000000000000009999123100000010000000000000BRSEERACNOR5119
012024010802SEQL3       010SEQUOIA LOG ON      NM   R$  000000000005700000000000590000000000052000000000005600000000000570000000000056000000000005709207000000000039273100000000002224727200000000000000009999123100000010000000000000BRSEQLACNOR2101
012024010802LAVV3       010LAVVI       ON      NM   R$  000000000081500000000008500000000000807000000000083500000000008500000000000842000000000085002776000000000000523700000000000437785000000000000000009999123100000010000000000000BRLAVVACNOR4110
012024010802LEVE3       010METAL LEVE  ON      NM   R$  000000000342800000000035020000000003385000000000345700000000035020000000003500000000000350201631000000000000397900000000001375730900000000000000009999123100000010000000000000BRLEVEACNOR2196
012024010802LIPR3       010ELETROPAR   ON           R$  000000000712100000000071210000000007121000000000712100000000071210000000007120000000000863700001000000000000000100000000000000712100000000000000009999123100000010000000000000BRLIPRACNOR7121
012024010802LJQQ3       010QUERO-QUERO ON  EJS NM   R$  000000000053600000000005870000000000532000000000056800000000005860000000000586000000000058705097000000000003162800000000001799505400000000000000009999123100000010000000000000BRLJQQACNOR5104
012024010802LOGG3       010LOG COM PROPON      NM   R$  000000000211500000000021840000000002099000000000216500000000021750000000002175000000000218201484000000000000344900000000000746788500000000000000009999123100000010000000000000BRLOGGACNOR7106
012024010802LOGN3       010LOG-IN      ON      NM   R$  000000000383700000000039000000000003729000000000385000000000038600000000003850000000000388500287000000000000093700000000000360807200000000000000009999123100000010000000000000BRLOGNACNOR3105
012024010802LPSB3       010LOPES BRASILON      NM   R$  000000000023400000000002390000000000230000000000023300000000002350000000000231000000000023500361000000000000074000000000000017298000000000000000009999123100000010000000000000BRLPSBACNOR0113
012024010802SGPS3       010SPRINGS     ON      NM   R$  000000000012500000000001280000000000124000000000012500000000001250000000000125000000000012700341000000000000205100000000000025827700000000000000009999123100000010000000000000BRSGPSACNOR4104
012024010802SHOW3       010TIME FOR FUNON      NM   R$  000000000021100000000002150000000000203000000000020600000000002040000000000204000000000020600361000000000000208700000000000043135700000000000000009999123100000010000000000000BRSHOWACNOR7105
012024010802SHUL4       010SCHULZ      PN  EJ       R$  000000000068900000000006910000000000681000000000068500000000006840000000000684000000000068700749000000000000230800000000000158323400000000000000009999123100000010000000000000BRSHULACNPR4154
012024010802SIMH3       010SIMPAR      ON      NM   R$  000000000091600000000009420000000000902000000000092800000000009380000000000936000000000093903551000000000001653400000000001535358100000000000000009999123100000010000000000000BRSIMHACNOR0107
012024010802SLCE3       010SLC AGRICOLAON  EJ  NM   R$  000000000185200000000018560000000001826000000000184100000000018360000000001835000000000184107076000000000001749600000000003221629100000000000000009999123100000010000000000000BRSLCEACNOR2124
012024010802PFRM3       010PROFARMA    ON  EJ  NM   R$  000000000052500000000005290000000000510000000000052200000000005210000000000521000000000052400808000000000000270000000000000141118900000000000000009999123100000010000000000000BRPFRMACNOR1116
012024010802PGMN3       010PAGUE MENOS ON      NM   R$  000000000035300000000003730000000000349000000000036300000000003720000000000372000000000037305193000000000002944800000000001071785000000000000000009999123100000010000000000000BRPGMNACNOR8102
012024010802PINE3       010PINE        ON      N2   R$  000000000052300000000005230000000000523000000000052300000000005230000000000150000000000052300001000000000000000100000000000000052300000000000000009999123100000010000000000000BRPINEACNOR1147
012024010802YDUQ3       010YDUQS PART  ON      NM   R$  000000000206200000000021350000000002058000000000210000000000021020000000002100000000000210512499000000000003506400000000007364045000000000000000009999123100000010000000000000BRYDUQACNOR3104
012024010802TASA3       010TAURUS ARMASON      N2   R$  000000000151800000000015350000000001509000000000152100000000015190000000001517000000000152500082000000000000010300000000000015666700000000000000009999123100000010000000000000BRTASAACNOR7103
012024010802TASA4       010TAURUS ARMASPN      N2   R$  000000000153600000000015390000000001515000000000152800000000015230000000001523000000000153001346000000000000226300000000000345965700000000000000009999123100000010000000000000BRTASAACNPR4103
012024010802TCSA3       010TECNISA     ON      NM   R$  000000000037700000000003800000000000369000000000037600000000003730000000000373000000000037800199000000000000056500000000000021281800000000000000009999123100000010000000000000BRTCSAACNOR3112
012024010802TECN3       010TECHNOS     ON      NM   R$  000000000036500000000003650000000000355000000000035800000000003580000000000357000000000035800491000000000000137200000000000049240700000000000000009999123100000010000000000000BRTECNACNOR6108
012024010802TELB3       010TELEBRAS    ON           R$  000000000155500000000015550000000001555000000000155500000000015550000000001536000000000156900001000000000000000100000000000000155500000000000000009999123100000010000000000000BRTELBACNOR2140
012024010802TELB4       010TELEBRAS    PN           R$  000000000124000000000012700000000001226000000000124100000000012490000000001238000000000125000030000000000000006000000000000007451600000000000000009999123100000010000000000000BRTELBACNPR9140
012024010802TEND3       010TENDA       ON      NM   R$  000000000115000000000012060000000001135000000000118300000000011990000000001191000000000120012560000000000003384100000000004005719700000000000000009999123100000010000000000000BRTENDACNOR4111
012024010802NORD3       010NORDON MET  ON           R$  000000000035400000000003540000000000354000000000035400000000003540000000000353000000000044300001000000000000000100000000000000035400000000000000009999123100000010000000000000BRNORDACNOR7135
012024010802NTCO3       010GRUPO NATURAON      NM   R$  000000000162400000000016740000000001596000000000164700000000016450000000001642000000000164525734000000000010023400000000016511660100000000000000009999123100000010000000000000BRNTCOACNOR5104
012024010802ODPV3       010ODONTOPREV  ON      NM   R$  000000000118300000000012310000000001180000000000121500000000012310000000001221000000000123106007000000000001580500000000001921787600000000000000009999123100000010000000000000BRODPVACNOR4198
012024010802OFSA3       010OUROFINO S/AON      NM   R$  000000000253300000000026010000000002533000000000258300000000026000000000002571000000000260000025000000000000005600000000000014467900000000000000009999123100000010000000000000BROFSAACNOR7117
012024010802CEAB3       010CEA MODAS   ON      NM   R$  000000000072100000000007610000000000719000000000074800000000007600000000000757000000000076003913000000000001641700000000001228308000000000000000009999123100000010000000000000BRCEABACNOR1101
012024010802DASA3       010DASA        ON      NM   R$  000000000091100000000009520000000000898000000000093500000000009380000000000938000000000094501283000000000000292100000000000273218800000000000000009999123100000010000000000000BRDASAACNOR1122
012024010802GMAT3       010GRUPO MATEUSON      NM   R$  000000000069500000000007170000000000689000000000071000000000007150000000000707000000000071506479000000000002798200000000001987249300000000000000009999123100000010000000000000BRGMATACNOR7100
012024010802GOAU3       010GERDAU MET  ON      N1   R$  000000000109500000000011080000000001092000000000110000000000011000000000001098000000000110000254000000000000050300000000000055331200000000000000009999123100000010000000000000BRGOAUACNOR1265
012024010802GOAU4       010GERDAU MET  PN      N1   R$  000000000106500000000010750000000001058000000000106800000000010690000000001068000000000106909682000000000006204500000000006629651400000000000000009999123100000010000000000000BRGOAUACNPR8266
012024010802GOLL4       010GOL         PN      N2   R$  000000000079300000000008440000000000791000000000082300000000008230000000000823000000000082409554000000000007744400000000006377373600000000000000009999123100000010000000000000BRGOLLACNPR4128
012024010802JALL3       010JALLESMACHADON      NM   R$  000000000076200000000007770000000000752000000000076600000000007690000000000769000000000077402848000000000000994600000000000762356600000000000000009999123100000010000000000000BRJALLACNOR0105
012024010802DESK3       010DESKTOP     ON      NM   R$  000000000136900000000013980000000001351000000000138100000000013950000000001395000000000139600390000000000000067700000000000093543300000000000000009999123100000010000000000000BRDESKACNOR2103
012024010802DEXP3       010DEXXOS PAR  ON      N1   R$  000000000116800000000011800000000001142000000000115800000000011800000000001170000000000118000349000000000000070200000000000081320000000000000000009999123100000010000000000000BRDEXPACNOR1104
012024010802DEXP4       010DEXXOS PAR  PN      N1   R$  000000000115000000000011940000000001150000000000116700000000011500000000001122000000000119300007000000000000000900000000000001050500000000000000009999123100000010000000000000BRDEXPACNPR8104
012024010802DIRR3       010DIRECIONAL  ON      NM   R$  000000000211100000000021740000000002096000000000214900000000021650000000002165000000000216706371000000000001188500000000002554572800000000000000009999123100000010000000000000BRDIRRACNOR0117
012024010802GGPS3       010GPS         ON      NM   R$  000000000187000000000019260000000001828000000000190300000000019060000000001905000000000191205942000000000001792300000000003411892800000000000000009999123100000010000000000000BRGGPSACNOR9102
012024010802SANB11      010SANTANDER BRUNT          R$  000000000320500000000032270000000003181000000000320200000000031920000000003191000000000319704892000000000001248400000000003998280600000000000000009999123100000010000000000000BRSANBCDAM13162
012024010802SANB3       010SANTANDER BRON           R$  000000000151200000000015220000000001505000000000151200000000015100000000001507000000000151000459000000000000061100000000000092386000000000000000009999123100000010000000000000BRSANBACNOR8169
012024010802SANB4       010SANTANDER BRPN           R$  000000000169200000000016990000000001680000000000168800000000016870000000001680000000000169500501000000000000067000000000000113126700000000000000009999123100000010000000000000BRSANBACNPR5169
012024010802SAPR11      010SANEPAR     UNT EJ  N2   R$  000000000276500000000028300000000002750000000000280200000000028300000000002819000000000283003440000000000000576600000000001615693000000000000000009999123100000010000000000000BRSAPRCDAM13117
012024010802SAPR3       010SANEPAR     ON  EJ  N2   R$  000000000052900000000005410000000000525000000000053300000000005370000000000537000000000054200479000000000000254000000000000135500700000000000000009999123100000010000000000000BRSAPRACNOR9158
012024010802SAPR4       010SANEPAR     PN  EJ  N2   R$  000000000055400000000005700000000000552000000000056200000000005700000000000567000000000057002731000000000001271100000000000714890000000000000000009999123100000010000000000000BRSAPRACNPR6158
012024010802SBFG3       010GRUPO SBF   ON      NM   R$  000000000105200000000011470000000001052000000000112400000000011470000000001135000000000114705036000000000001662900000000001870525000000000000000009999123100000010000000000000BRSBFGACNOR1102
012024010802SBSP3       010SABESP      ON      NM   R$  000000000720500000000073260000000007186000000000727700000000073260000000007304000000000732806675000000000001272800000000009262580000000000000000009999123100000010000000000000BRSBSPACNOR5160
012024010802VALE3       010VALE        ON      NM   R$  000000000739400000000074560000000007351000000000740000000000074270000000007426000000000742842115000000000023013300000000170298632900000000000000009999123100000010000000000000BRVALEACNOR0209
012024010802RSUL4       010RIOSULENSE  PN           R$  000000000760900000000076830000000007601000000000763900000000076800000000006440000000000768100009000000000000000900000000000006875600000000000000009999123100000010000000000000BRRSULACNPR3113
012024010802ZAMP3       010ZAMP S.A.   ON      NM   R$  000000000046500000000004800000000000452000000000046600000000004750000000000475000000000048005475000000000001328400000000000619956000000000000000009999123100000010000000000000BRZAMPACNOR5100
012024010802RENT3       010LOCALIZA    ON  EJS NM   R$  000000000603000000000063340000000005999000000000621400000000062800000000006280000000000628322692000000000005556800000000034530349100000000000000009999123100000010000000000000BRRENTACNOR4194
012024010802ROMI3       010ROMI        ON      NM   R$  000000000131900000000013430000000001305000000000132900000000013400000000001337000000000134001367000000000000239900000000000319030000000000000000009999123100000010000000000000BRROMIACNOR8192
012024010802RRRP3       0103R PETROLEUMON      NM   R$  000000000258900000000027420000000002566000000000267700000000027370000000002736000000000273721627000000000013105900000000035086959700000000000000009999123100000010000000000000BRRRRPACNOR5102
012024010802TRPL4       010TRAN PAULISTPN      N1   R$  000000000261500000000026250000000002597000000000260800000000026070000000002607000000000260807113000000000003344400000000008724558400000000000000009999123100000010000000000000BRTRPLACNPR1185
012024010802BAHI3       010BAHEMA      ON      MA   R$  000000000079200000000008200000000000791000000000080600000000007950000000000791000000000081500026000000000000012000000000000009673100000000000000009999123100000010000000000000BRBAHIACNOR1074
012024010802BAUH4       010EXCELSIOR   PN           R$  000000000818500000000081850000000008185000000000818500000000081850000000005100000000000818700001000000000000000100000000000000818500000000000000009999123100000010000000000000BRBAUHACNPR3117
012024010802BAZA3       010AMAZONIA    ON           R$  000000000943000000000094800000000009320000000000936100000000093800000000009322000000000939900022000000000000002800000000000026211500000000000000009999123100000010000000000000BRBAZAACNOR0178
012024010802BBAS3       010BRASIL      ON      NM   R$  000000000550500000000055480000000005478000000000551800000000055350000000005529000000000553516325000000000009053800000000049959600500000000000000009999123100000010000000000000BRBBASACNOR3319
012024010802BIOM3       010BIOMM       ON      MA   R$  000000000058100000000005950000000000581000000000058600000000005920000000000585000000000059200008000000000000000800000000000000469400000000000000009999123100000010000000000000BRBIOMACNOR2112
012024010802BLAU3       010BLAU        ON      NM   R$  000000000153300000000015710000000001518000000000155700000000015580000000001557000000000156901105000000000000165100000000000257184500000000000000009999123100000010000000000000BRBLAUACNOR8111
012024010802BMEB3       010MERCANTIL   ON  EJ  N1   R$  000000000204700000000020750000000002047000000000207100000000020750000000001610000000000207500008000000000000000800000000000001657200000000000000009999123100000010000000000000BRBMEBACNOR8205
012024010802BMEB4       010MERCANTIL   PN  EJ  N1   R$  000000000172300000000018000000000001657000000000179700000000017320000000001725000000000173200099000000000000325500000000000584991900000000000000009999123100000010000000000000BRBMEBACNPR5210
012024010802BMGB4       010BANCO BMG   PN      N1   R$  000000000030200000000003550000000000302000000000033800000000003550000000000353000000000035505718000000000004766000000000001613795200000000000000009999123100000010000000000000BRBMGBACNPR0108
012024010802BMIN4       010MERC INVEST PN           R$  000000000161000000000016200000000001610000000000161800000000016200000000001565000000000168000003000000000000000600000000000000971000000000000000009999123100000010000000000000BRBMINACNPR1175
012024010802BMKS3       010BIC MONARK  ON           R$  000000003600000000000370000000000036000000000003614200000000370000000000035070000000003680000002000000000000000007000000000000253000000000000000009999123100000010000000000000BRBMKSACNOR9165
012024010802BMOB3       010BEMOBI TECH ON      NM   R$  000000000128400000000013280000000001261000000000130500000000013170000000001317000000000132501116000000000000198300000000000258847900000000000000009999123100000010000000000000BRBMOBACNOR7103
012024010802BNBR3       010NORD BRASIL ON           R$  000000001169900000000117000000000011699000000001169900000000117000000000011450000000001195000002000000000000000200000000000002339900000000000000009999123100000010000000000000BRBNBRACNOR8206
012024010802BRSR3       010BANRISUL    ON      N1   R$  000000000138500000000013950000000001359000000000138300000000013950000000001378000000000139500034000000000000005100000000000007053900000000000000009999123100000010000000000000BRBRSRACNOR3185
012024010802BRSR6       010BANRISUL    PNB     N1   R$  000000000132400000000013470000000001306000000000133400000000013440000000001342000000000134403666000000000001104600000000001474207100000000000000009999123100000010000000000000BRBRSRACNPB4188
012024010802CSUD3       010CSU DIGITAL ON      NM   R$  000000000185000000000020000000000001850000000000195300000000019420000000001942000000000197000607000000000000100500000000000196374800000000000000009999123100000010000000000000BRCSUDACNOR5107
012024010802CTKA4       010KARSTEN     PN           R$  000000000183900000000018390000000001839000000000183900000000018390000000001839000000000190000001000000000000000200000000000000367800000000000000009999123100000010000000000000BRCTKAACNPR7043
012024010802CTNM4       010COTEMINAS   PN           R$  000000000015300000000001560000000000152000000000015400000000001540000000000154000000000015600073000000000000045800000000000007054500000000000000009999123100000010000000000000BRCTNMACNPR6129
012024010802CTSA3       010SANTANENSE  ON           R$  000000000048700000000004990000000000481000000000048500000000004830000000000483000000000049400035000000000000004600000000000002233500000000000000009999123100000010000000000000BRCTSAACNOR3062
012024010802CTSA4       010SANTANENSE  PN           R$  000000000022900000000002300000000000220000000000022500000000002230000000000223000000000022600275000000000000044600000000000010069700000000000000009999123100000010000000000000BRCTSAACNPR0062
012024010802CURY3       010CURY S/A    ON      NM   R$  000000000167400000000017930000000001672000000000176600000000017730000000001760000000000177306656000000000001463600000000002585688300000000000000009999123100000010000000000000BRCURYACNOR3107
012024010802CVCB3       010CVC BRASIL  ON      NM   R$  000000000031700000000003340000000000314000000000032600000000003320000000000332000000000033309217000000000014131000000000004618765400000000000000009999123100000010000000000000BRCVCBACNOR1115
012024010802CXSE3       010CAIXA SEGURION      NM   R$  000000000130000000000013070000000001295000000000130100000000013010000000001300000000000130104883000000000001669000000000002172331600000000000000009999123100000010000000000000BRCXSEACNOR7105
012024010802CYRE3       010CYRELA REALTON      NM   R$  000000000221000000000023000000000002185000000000226200000000022780000000002278000000000228017221000000000004880200000000011041593400000000000000009999123100000010000000000000BRCYREACNOR7139
012024010802GGBR3       010GERDAU      ON      N1   R$  000000000210500000000021300000000002085000000000211400000000021170000000002117000000000212800217000000000000039900000000000084378800000000000000009999123100000010000000000000BRGGBRACNOR1189
012024010802GGBR4       010GERDAU      PN      N1   R$  000000000231300000000023550000000002307000000000233800000000023360000000002335000000000233918446000000000008279200000000019362958800000000000000009999123100000010000000000000BRGGBRACNPR8189
012024010802MILS3       010MILLS       ON  EJ  NM   R$  000000000137000000000013840000000001353000000000137400000000013700000000001370000000000137102011000000000000993200000000001364677500000000000000009999123100000010000000000000BRMILSACNOR2124
012024010802MLAS3       010MULTILASER  ON      NM   R$  000000000020500000000002110000000000204000000000020800000000002080000000000208000000000021001203000000000001330200000000000277482900000000000000009999123100000010000000000000BRMLASACNOR9101
012024010802MNDL3       010MUNDIAL     ON           R$  000000000484100000000052990000000004840000000000491000000000052990000000004950000000000519800009000000000000000900000000000004419000000000000000009999123100000010000000000000BRMNDLACNOR4107
012024010802MNPR3       010MINUPAR     ON           R$  000000000181100000000018300000000001803000000000181000000000018030000000001760000000000185000005000000000000000500000000000000905000000000000000009999123100000010000000000000BRMNPRACNOR5122
012024010802MOVI3       010MOVIDA      ON      NM   R$  000000000112400000000011950000000001113000000000117600000000011950000000001184000000000119506277000000000003097400000000003642954200000000000000009999123100000010000000000000BRMOVIACNOR0122
012024010802MRFG3       010MARFRIG     ON      NM   R$  000000000094700000000009570000000000939000000000095000000000009500000000000950000000000095108758000000000003323600000000003158253700000000000000009999123100000010000000000000BRMRFGACNOR0116
012024010802TTEN3       0103TENTOS     ON      NM   R$  000000000110400000000011300000000001090000000000111700000000011300000000001125000000000113004122000000000000698500000000000780611000000000000000009999123100000010000000000000BRTTENACNOR0102
012024010802TUPY3       010TUPY        ON      NM   R$  000000000263200000000027160000000002632000000000268700000000026930000000002685000000000269302484000000000000470000000000001263191000000000000000009999123100000010000000000000BRTUPYACNOR1182
012024010802UCAS3       010UNICASA     ON      NM   R$  000000000026700000000002700000000000265000000000026800000000002660000000000266000000000027000074000000000000015400000000000004127300000000000000009999123100000010000000000000BRUCASACNOR1113
012024010802UGPA3       010ULTRAPAR    ON      NM   R$  000000000271200000000027500000000002674000000000270300000000026800000000002679000000000268015429000000000007431300000000020091354900000000000000009999123100000010000000000000BRUGPAACNOR8154
012024010802UNIP3       010UNIPAR      ON           R$  000000000691500000000069980000000006887000000000693800000000069680000000006902000000000697800062000000000000007700000000000053429600000000000000009999123100000010000000000000BRUNIPACNOR7204
012024010802UNIP5       010UNIPAR      PNA          R$  000000000760000000000076000000000007600000000000760000000000076000000000007600000000000799900001000000000000000100000000000000760000000000000000009999123100000010000000000000BRUNIPACNPA0206
012024010802UNIP6       010UNIPAR      PNB          R$  000000000739600000000075260000000007331000000000745400000000074870000000007487000000000749000630000000000000085700000000000638863800000000000000009999123100000010000000000000BRUNIPACNPB8204
012024010802USIM3       010USIMINAS    ON      N1   R$  000000000087900000000008790000000000854000000000086000000000008630000000000857000000000086402457000000000000640700000000000551424200000000000000009999123100000010000000000000BRUSIMACNOR3166
012024010802USIM5       010USIMINAS    PNA     N1   R$  000000000089100000000008940000000000880000000000088800000000008860000000000886000000000088810817000000000006237800000000005539208100000000000000009999123100000010000000000000BRUSIMACNPA6168
012024010802WEST3       010WESTWING    ON      NM   R$  000000000013600000000001370000000000134000000000013500000000001340000000000134000000000013700054000000000000053600000000000007249000000000000000009999123100000010000000000000BRWESTACNOR3100
012024010802WHRL3       010WHIRLPOOL   ON           R$  000000000043400000000004440000000000434000000000044000000000004420000000000438000000000044100005000000000000000500000000000000220400000000000000009999123100000010000000000000BRWHRLACNOR5128
012024010802WHRL4       010WHIRLPOOL   PN           R$  000000000046100000000004640000000000461000000000046100000000004640000000000461000000000046400012000000000000002500000000000001154400000000000000009999123100000010000000000000BRWHRLACNPR2128
012024010802WIZC3       010WIZ CO      ON      NM   R$  000000000067400000000006870000000000670000000000067900000000006830000000000682000000000068301323000000000000268500000000000182542100000000000000009999123100000010000000000000BRWIZCACNOR5101
012024010802WLMM3       010WLM IND COM ON           R$  000000000225500000000022550000000002255000000000225500000000022550000000002253000000000250000001000000000000000100000000000000225500000000000000009999123100000010000000000000BRWLMMACNOR6116
012024010802WLMM4       010WLM IND COM PN           R$  000000000279500000000027950000000002795000000000279500000000027950000000002012000000000279900001000000000000000100000000000000279500000000000000009999123100000010000000000000BRWLMMACNPR3116
012024010802ABCB4       010ABC BRASIL  PN  EJS N2   R$  000000000234400000000024030000000002327000000000237500000000024030000000002386000000000240302744000000000000480000000000001140381300000000000000009999123100000010000000000000BRABCBACNPR4145
012024010802ABEV3       010AMBEV S/A   ON           R$  000000000136100000000013750000000001358000000000137000000000013710000000001370000000000137117180000000000011014600000000015093238100000000000000009999123100000010000000000000BRABEVACNOR1127
012024010802CEBR3       010CEB         ON           R$  000000000179900000000018000000000001725000000000175100000000018000000000001781000000000180000047000000000000010200000000000017869500000000000000009999123100000010000000000000BRCEBRACNOR5124
012024010802CEBR5       010CEB         PNA          R$  000000000164600000000017190000000001631000000000166600000000017190000000001640000000000172000020000000000000002800000000000004665500000000000000009999123100000010000000000000BRCEBRACNPA8123
012024010802CEBR6       010CEB         PNB          R$  000000000192200000000019220000000001895000000000190400000000019130000000001900000000000191500040000000000000006500000000000012381000000000000000009999123100000010000000000000BRCEBRACNPB6123
012024010802CEDO3       010CEDRO       ON      N1   R$  000000000280000000000028000000000002800000000000280000000000028000000000002800000000000290000001000000000000000500000000000001400000000000000000009999123100000010000000000000BRCEDOACNOR8096
012024010802CEDO4       010CEDRO       PN      N1   R$  000000000277000000000028000000000002770000000000278100000000028000000000002797000000000284200004000000000000001600000000000004449900000000000000009999123100000010000000000000BRCEDOACNPR5128
012024010802CEEB3       010COELBA      ON  EJ       R$  000000000399900000000039990000000003999000000000399900000000039990000000003948000000000399900001000000000000000100000000000000399900000000000000009999123100000010000000000000BRCEEBACNOR3196
012024010802CGAS3       010COMGAS      ON  EJ       R$  000000001190000000000119000000000011900000000001190000000000119000000000011232000000001189000001000000000000000100000000000001190000000000000000009999123100000010000000000000BRCGASACNOR0162
012024010802CGAS5       010COMGAS      PNA EJ       R$  000000001261900000000126190000000012563000000001257800000000125630000000012500000000001263000004000000000000000400000000000005031300000000000000009999123100000010000000000000BRCGASACNPA3159
012024010802CGRA3       010GRAZZIOTIN  ON           R$  000000000259200000000026050000000002580000000000258200000000025850000000002585000000000260000015000000000000002700000000000006973800000000000000009999123100000010000000000000BRCGRAACNOR2081
012024010802CGRA4       010GRAZZIOTIN  PN           R$  000000000263800000000026380000000002570000000000258900000000025800000000002580000000000258800075000000000000013800000000000035737000000000000000009999123100000010000000000000BRCGRAACNPR9081
012024010802CIEL3       010CIELO       ON  EJ  NM   R$  000000000048600000000005020000000000483000000000049600000000004970000000000497000000000049826104000000000022322900000000011074173200000000000000009999123100000010000000000000BRCIELACNOR3156
012024010802DMVF3       010D1000VFARMA ON      NM   R$  000000000060500000000006130000000000586000000000059800000000005980000000000598000000000060500310000000000000102000000000000061084300000000000000009999123100000010000000000000BRDMVFACNOR9100
012024010802DOHL4       010DOHLER      PN           R$  000000000052600000000005260000000000515000000000051600000000005250000000000512000000000052500004000000000000002000000000000001032100000000000000009999123100000010000000000000BRDOHLACNPR9066
012024010802DOTZ3       010DOTZ SA     ON      NM   R$  000000000082700000000008270000000000787000000000080400000000007960000000000795000000000080300039000000000000009100000000000007322000000000000000009999123100000010000000000000BRDOTZACNOR7101
012024010802DXCO3       010DEXCO       ON      NM   R$  000000000076200000000008140000000000760000000000079900000000008080000000000808000000000080911969000000000003931800000000003144385500000000000000009999123100000010000000000000BRDXCOACNOR8104
012024010802EALT4       010ACO ALTONA  PN           R$  000000000093500000000009540000000000935000000000093800000000009360000000000935000000000094900013000000000000002200000000000002064000000000000000009999123100000010000000000000BREALTACNPR1137
012024010802ECOR3       010ECORODOVIAS ON      NM   R$  000000000091600000000009480000000000898000000000093100000000009350000000000930000000000093604487000000000001868400000000001740938200000000000000009999123100000010000000000000BRECORACNOR8119
012024010802EGIE3       010ENGIE BRASILON      NM   R$  000000000443100000000044520000000004398000000000441800000000043980000000004398000000000442005508000000000001038900000000004589999700000000000000009999123100000010000000000000BREGIEACNOR9125
012024010802ELET3       010ELETROBRAS  ON      N1   R$  000000000412300000000041350000000004070000000000410700000000041060000000004106000000000411015085000000000003643100000000014965028600000000000000009999123100000010000000000000BRELETACNOR6159
012024010802ELET6       010ELETROBRAS  PNB     N1   R$  000000000457400000000045940000000004528000000000457000000000045690000000004569000000000458003557000000000000657500000000003005418700000000000000009999123100000010000000000000BRELETACNPB7076
012024010802GRND3       010GRENDENE    ON      NM   R$  000000000068600000000007120000000000681000000000070100000000007120000000000706000000000071302965000000000001137000000000000797793500000000000000009999123100000010000000000000BRGRNDACNOR3172
012024010802GSHP3       010GENERALSHOPPON           R$  000000000140100000000014010000000001400000000000140000000000014000000000001381000000000168900003000000000000000300000000000000420100000000000000009999123100000010000000000000BRGSHPACNOR7102
012024010802GUAR3       010GUARARAPES  ON      NM   R$  000000000056700000000006020000000000567000000000059000000000005950000000000595000000000060002500000000000000920700000000000544027700000000000000009999123100000010000000000000BRGUARACNOR4172
012024010802HAGA3       010HAGA S/A    ON           R$  000000000025400000000002540000000000241000000000025100000000002500000000000249000000000025300024000000000000011000000000000002762500000000000000009999123100000010000000000000BRHAGAACNOR7103
012024010802HAGA4       010HAGA S/A    PN           R$  000000000011500000000001160000000000113000000000011300000000001160000000000115000000000011600020000000000000011300000000000001287600000000000000009999123100000010000000000000BRHAGAACNPR4103
012024010802HAPV3       010HAPVIDA     ON      NM   R$  000000000042700000000004490000000000425000000000044200000000004430000000000442000000000044442886000000000040303500000000017851996400000000000000009999123100000010000000000000BRHAPVACNOR4113
012024010802JHSF3       010JHSF PART   ON  ED  NM   R$  000000000050800000000005150000000000501000000000051100000000005150000000000514000000000051503970000000000001711500000000000874809600000000000000009999123100000010000000000000BRJHSFACNOR2131
012024010802JSLG3       010JSL         ON      NM   R$  000000000130500000000013150000000001277000000000129400000000012890000000001281000000000128901532000000000000282000000000000365072000000000000000009999123100000010000000000000BRJSLGACNOR2121
012024010802KEPL3       010KEPLER WEBERON      NM   R$  000000000103000000000010400000000001022000000000103200000000010330000000001033000000000103703059000000000000910100000000000939357100000000000000009999123100000010000000000000BRKEPLACNOR1061
012024010802KLBN11      010KLABIN S/A  UNT     N2   R$  000000000221400000000022400000000002193000000000222300000000022400000000002230000000000224009531000000000003388800000000007536159600000000000000009999123100000010000000000000BRKLBNCDAM18139
012024010802KLBN3       010KLABIN S/A  ON      N2   R$  000000000044000000000004470000000000439000000000044300000000004450000000000443000000000044501089000000000000418600000000000185558400000000000000009999123100000010000000000000BRKLBNACNOR2167
012024010802KLBN4       010KLABIN S/A  PN      N2   R$  000000000043900000000004480000000000439000000000044400000000004450000000000445000000000044603839000000000002240900000000000995561500000000000000009999123100000010000000000000BRKLBNACNPR9167
012024010802TFCO4       010TRACK FIELD PN  EJ  N2   R$  000000000139600000000014530000000001396000000000142800000000014410000000001431000000000144100450000000000000306700000000000438006300000000000000009999123100000010000000000000BRTFCOACNPR8111
012024010802TGMA3       010TEGMA       ON      NM   R$  000000000266400000000026640000000002631000000000264300000000026390000000002638000000000264500683000000000000177300000000000468655900000000000000009999123100000010000000000000BRTGMAACNOR7143
012024010802TIMS3       010TIM         ON      NM   R$  000000000171500000000017350000000001710000000000172900000000017350000000001732000000000173514328000000000004639600000000008023809000000000000000009999123100000010000000000000BRTIMSACNOR5114
012024010802TOTS3       010TOTVS       ON      NM   R$  000000000322800000000032720000000003194000000000323800000000032490000000003239000000000324910343000000000002512800000000008137684000000000000000009999123100000010000000000000BRTOTSACNOR8144
012024010802TPIS3       010TRIUNFO PARTON      NM   R$  000000000041100000000004130000000000408000000000041000000000004130000000000409000000000041300066000000000000016300000000000006694000000000000000009999123100000010000000000000BRTPISACNOR8118
012024010802TRAD3       010TC          ON      NM   R$  000000000008200000000000830000000000077000000000007900000000000820000000000081000000000008200552000000000001760100000000000139509500000000000000009999123100000010000000000000BRTRADACNOR3101
012024010802TRIS3       010TRISUL      ON      NM   R$  000000000053000000000005450000000000527000000000053800000000005450000000000542000000000054501421000000000000469900000000000253252000000000000000009999123100000010000000000000BRTRISACNOR4116
012024010802TRPL3       010TRAN PAULISTON      N1   R$  000000000351200000000035930000000003512000000000357700000000035810000000003528000000000359000011000000000000001300000000000004651300000000000000009999123100000010000000000000BRTRPLACNOR4185
012024010802VIVA3       010VIVARA S.A. ON      NM   R$  000000000336700000000034690000000003340000000000343200000000034690000000003452000000000346910667000000000002326500000000007986529800000000000000009999123100000010000000000000BRVIVAACNOR0106
012024010802VIVR3       010VIVER       ON      NM   R$  000000000049900000000005100000000000493000000000050000000000005100000000000510000000000051100342000000000000244500000000000122368800000000000000009999123100000010000000000000BRVIVRACNOR4120
012024010802VIVT3       010TELEF BRASILON  EJ       R$  000000000502600000000050730000000004998000000000502400000000050000000000004999000000000500009655000000000001813700000000009113257000000000000000009999123100000010000000000000BRVIVTACNOR0178
012024010802VLID3       010VALID       ON      NM   R$  000000000207500000000020850000000002045000000000207500000000020780000000002071000000000207802110000000000000638900000000001326096700000000000000009999123100000010000000000000BRVLIDACNOR5141
012024010802VSTE3       010VESTE       ON      NM   R$  000000000195500000000019550000000001923000000000194600000000019550000000001932000000000195500033000000000000005500000000000010708000000000000000009999123100000010000000000000BRVSTEACNOR5101
012024010802VULC3       010VULCABRAS   ON      NM   R$  000000000193200000000019640000000001906000000000194200000000019500000000001950000000000196702577000000000000397800000000000772535900000000000000009999123100000010000000000000BRVULCACNOR2156
012024010802VVEO3       010VIVEO       ON      NM   R$  000000000129200000000013740000000001275000000000131400000000013640000000001364000000000136805047000000000002336600000000003070720600000000000000009999123100000010000000000000BRVVEOACNOR0103
012024010802WEGE3       010WEG         ON      NM   R$  000000000358600000000036300000000003564000000000359600000000036060000000003601000000000360711539000000000003433300000000012347130000000000000000009999123100000010000000000000BRWEGEACNOR0220
012024010802MTRE3       010MITRE REALTYON      NM   R$  000000000052700000000005450000000000520000000000053200000000005340000000000532000000000053403230000000000002058600000000001095503400000000000000009999123100000010000000000000BRMTREACNOR6109
012024010802MTSA4       010METISA      PN           R$  000000000495900000000049690000000004841000000000490000000000049690000000004903000000000496900025000000000000006500000000000031854200000000000000009999123100000010000000000000BRMTSAACNPR9071
012024010802MULT3       010MULTIPLAN   ON  EJ  N2   R$  000000000279300000000028180000000002770000000000279600000000028180000000002803000000000281914358000000000002407000000000006730866400000000000000009999123100000010000000000000BRMULTACNOR5137
012024010802MYPK3       010IOCHP-MAXIONON      NM   R$  000000000123900000000012590000000001235000000000124900000000012500000000001249000000000125702806000000000000885500000000001106136000000000000000009999123100000010000000000000BRMYPKACNOR7153
012024010802NEOE3       010NEOENERGIA  ON  EJ  NM   R$  000000000203000000000020780000000002030000000000206100000000020670000000002067000000000207502320000000000000663100000000001366799700000000000000009999123100000010000000000000BRNEOEACNOR3121
012024010802NGRD3       010NEOGRID     ON      NM   R$  000000000012200000000001240000000000122000000000012300000000001220000000000122000000000012400512000000000000276200000000000033990600000000000000009999123100000010000000000000BRNGRDACNOR3103
012024010802NINJ3       010GETNINJAS   ON      NM   R$  000000000048600000000004990000000000486000000000049500000000004970000000000494000000000049700108000000000000038200000000000018921100000000000000009999123100000010000000000000BRNINJACNOR5100
012024010802PETZ3       010PETZ        ON      NM   R$  000000000037000000000003920000000000367000000000038400000000003860000000000386000000000038808496000000000010396000000000003999646000000000000000009999123100000010000000000000BRPETZACNOR2109
012024010802RAIZ4       010RAIZEN      PN      N2   R$  000000000040400000000004070000000000400000000000040300000000004050000000000404000000000040505892000000000008738900000000003525602300000000000000009999123100000010000000000000BRRAIZACNPR6109
012024010802SYNE3       010SYN PROP TECON      NM   R$  000000000047000000000004740000000000463000000000046900000000004690000000000469000000000047401068000000000000290700000000000136545800000000000000009999123100000010000000000000BRSYNEACNOR2102
012024010802TAEE11      010TAESA       UNT ED  N2   R$  000000000376000000000037600000000003733000000000374200000000037400000000003740000000000374104930000000000000918300000000003437037200000000000000009999123100000010000000000000BRTAEECDAM10145
012024010802TAEE3       010TAESA       ON  ED  N2   R$  000000000125000000000012530000000001238000000000124200000000012380000000001237000000000123800823000000000000108700000000000135070100000000000000009999123100000010000000000000BRTAEEACNOR9145
012024010802TAEE4       010TAESA       PN  ED  N2   R$  000000000125800000000012580000000001250000000000125300000000012500000000001250000000000125401123000000000000243200000000000304749700000000000000009999123100000010000000000000BRTAEEACNPR6145
012024010802VAMO3       010VAMOS       ON      NM   R$  000000000098000000000010070000000000962000000000099300000000010020000000001002000000000100612967000000000003868400000000003844734000000000000000009999123100000010000000000000BRVAMOACNOR7105
012024010802VBBR3       010VIBRA       ON  EJ  NM   R$  000000000227900000000023200000000002263000000000228900000000022830000000002274000000000228413715000000000006535200000000014960183500000000000000009999123100000010000000000000BRVBBRACNOR1106
012024010802COGN3       010COGNA ON    ON      NM   R$  000000000033100000000003420000000000330000000000033700000000003370000000000337000000000033811858000000000015626600000000005268156800000000000000009999123100000010000000000000BRCOGNACNOR2104
012024010802ELMD3       010ELETROMIDIA ON      NM   R$  000000000150000000000015870000000001490000000000154900000000015730000000001573000000000158200148000000000000027800000000000043065500000000000000009999123100000010000000000000BRELMDACNOR3100
012024010802EMAE4       010EMAE        PN           R$  000000000585400000000058540000000005800000000000582100000000058480000000005790000000000585100008000000000000001000000000000005821000000000000000009999123100000010000000000000BREMAEACNPR1124
012024010802EMBR3       010EMBRAER     ON      NM   R$  000000000213900000000021770000000002139000000000216300000000021680000000002168000000000216914332000000000004722900000000010216264800000000000000009999123100000010000000000000BREMBRACNOR4191
012024010802ENAT3       010ENAUTA PART ON      NM   R$  000000000188100000000018830000000001819000000000184700000000018500000000001850000000000185605170000000000001608100000000002971735400000000000000009999123100000010000000000000BRENATACNOR0104
012024010802LREN3       010LOJAS RENNERON      NM   R$  000000000165400000000017390000000001645000000000170600000000017280000000001721000000000172828080000000000015607500000000026640521000000000000000009999123100000010000000000000BRLRENACNOR1219
012024010802JBSS3       010JBS         ON      NM   R$  000000000239000000000024150000000002388000000000240000000000023940000000002394000000000239606962000000000003050400000000007321969500000000000000009999123100000010000000000000BRJBSSACNOR8121
012024010802MRSA3B      010MRS LOGIST  ON      MB   R$  000000000251000000000025100000000002506000000000250900000000025060000000002506000000000000000003000000000000000700000000000001756600000000000000009999123100000010000000000000BRMRSAACNOR6124
012024010802MRSA5B      010MRS LOGIST  PNA     MB   R$  000000000230600000000023060000000002306000000000230600000000023060000000002306000000000400000003000000000000000300000000000000691800000000000000009999123100000010000000000000BRMRSAACNPA9124
012024010802MRSA6B      010MRS LOGIST  PNB     MB   R$  000000000230600000000023060000000002306000000000230600000000023060000000002306000000000400000002000000000000000200000000000000461200000000000000009999123100000010000000000000BRMRSAACNPB7124
012024010802MRVE3       010MRV         ON      NM   R$  000000000098300000000010100000000000971000000000099600000000010050000000001005000000000100821319000000000017698600000000017639146700000000000000009999123100000010000000000000BRMRVEACNOR2126
012024010802AERI3       010AERIS       ON      NM   R$  000000000008400000000000860000000000083000000000008400000000000850000000000085000000000008602663000000000002892000000000000244847200000000000000009999123100000010000000000000BRAERIACNOR4101
012024010802AESB3       010AES BRASIL  ON      NM   R$  000000000121300000000012380000000001208000000000123000000000012360000000001234000000000123605407000000000001385900000000001705546400000000000000009999123100000010000000000000BRAESBACNOR7105
012024010802AFLT3       010AFLUENTE T  ON           R$  000000000084500000000008450000000000845000000000084500000000008450000000000804000000000084500005000000000000000500000000000000422500000000000000009999123100000010000000000000BRAFLTACNOR1120
012024010802AGRO3       010BRASILAGRO  ON      NM   R$  000000000256300000000025840000000002556000000000257200000000025720000000002572000000000257601486000000000000229900000000000591424300000000000000009999123100000010000000000000BRAGROACNOR7114
012024010802AGXY3       010AGROGALAXY  ON      NM   R$  000000000033400000000003340000000000316000000000032300000000003190000000000319000000000032300596000000000000235000000000000075978100000000000000009999123100000010000000000000BRAGXYACNOR4102
012024010802ALLD3       010ALLIED      ON      NM   R$  000000000076600000000007660000000000748000000000075400000000007530000000000750000000000075300176000000000000050600000000000038183000000000000000009999123100000010000000000000BRALLDACNOR3105
012024010802ALOS3       010ALLOS       ON      NM   R$  000000000252300000000025570000000002516000000000253900000000025520000000002552000000000255724570000000000010160400000000025801869200000000000000009999123100000010000000000000BRALOSACNOR5100
012024010802BBDC3       010BRADESCO    ON  EJ  N1   R$  000000000151500000000015210000000001504000000000151000000000015100000000001509000000000151105605000000000002185700000000003300826400000000000000009999123100000010000000000000BRBBDCACNOR1765
012024010802BBDC4       010BRADESCO    PN  EJ  N1   R$  000000000168800000000016970000000001674000000000168200000000016750000000001675000000000167840337000000000021044300000000035400238400000000000000009999123100000010000000000000BRBBDCACNPR8765
012024010802CLSA3       010CLEARSALE   ON      NM   R$  000000000035700000000003880000000000350000000000037400000000003800000000000376000000000038002096000000000001171100000000000438013000000000000000009999123100000010000000000000BRCLSAACNOR0100
012024010802CLSC3       010CELESC      ON  EJ  N2   R$  000000000655000000000066000000000006550000000000657900000000065990000000006201000000000659900007000000000000000700000000000004605400000000000000009999123100000010000000000000BRCLSCACNOR6149
012024010802CLSC4       010CELESC      PN  EJ  N2   R$  000000000644600000000065910000000006397000000000647400000000065880000000006525000000000659100020000000000000006700000000000043377600000000000000009999123100000010000000000000BRCLSCACNPR3128
012024010802CMIG3       010CEMIG       ON      N1   R$  000000000151300000000015300000000001505000000000151900000000015300000000001530000000000153300851000000000000273000000000000414700700000000000000009999123100000010000000000000BRCMIGACNOR6239
012024010802CMIG4       010CEMIG       PN      N1   R$  000000000115400000000011770000000001151000000000117000000000011750000000001171000000000117531363000000000011959800000000013997847900000000000000009999123100000010000000000000BRCMIGACNPR3240
012024010802HBOR3       010HELBOR      ON      NM   R$  000000000030600000000003150000000000293000000000030200000000003140000000000313000000000031401273000000000001431500000000000433247700000000000000009999123100000010000000000000BRHBORACNOR3117
012024010802HBRE3       010HBR REALTY  ON      NM   R$  000000000056700000000005670000000000548000000000055400000000005560000000000554000000000055600738000000000000590800000000000327840600000000000000009999123100000010000000000000BRHBREACNOR4100
012024010802HBSA3       010HIDROVIAS   ON      NM   R$  000000000037000000000003830000000000364000000000037600000000003790000000000379000000000038304844000000000004650800000000001751088700000000000000009999123100000010000000000000BRHBSAACNOR0100
012024010802HETA4       010HERCULES    PN           R$  000000000070000000000007000000000000700000000000070000000000007000000000000605000000000070000001000000000000000100000000000000070000000000000000009999123100000010000000000000BRHETAACNPR9136
012024010802BBSE3       010BBSEGURIDADEON      NM   R$  000000000336900000000033760000000003350000000000336000000000033520000000003352000000000335409906000000000003455700000000011613988300000000000000009999123100000010000000000000BRBBSEACNOR5123
012024010802BPAN4       010BANCO PAN   PN  EJ  N1   R$  000000000083000000000008630000000000821000000000084800000000008510000000000847000000000085103166000000000001901800000000001613084100000000000000009999123100000010000000000000BRBPANACNPR1115
012024010802ALUP11      010ALUPAR      UNT     N2   R$  000000000308400000000030840000000003027000000000305300000000030550000000003050000000000305901793000000000000361000000000001102450900000000000000009999123100000010000000000000BRALUPCDAM15117
012024010802ALUP3       010ALUPAR      ON      N2   R$  000000000101200000000010210000000001006000000000101200000000010100000000001009000000000102100056000000000000007900000000000008001300000000000000009999123100000010000000000000BRALUPACNOR8117
012024010802ALUP4       010ALUPAR      PN      N2   R$  000000000101200000000010320000000001011000000000101600000000010200000000001014000000000102100122000000000000021600000000000021957500000000000000009999123100000010000000000000BRALUPACNPR5117
012024010802AMAR3       010LOJAS MARISAON      NM   R$  000000000031200000000003200000000000307000000000031400000000003180000000000315000000000031800704000000000000368500000000000115885000000000000000009999123100000010000000000000BRAMARACNOR4114
012024010802AMBP3       010AMBIPAR     ON      NM   R$  000000000153800000000016120000000001504000000000157700000000016020000000001602000000000160304491000000000001019500000000001607897500000000000000009999123100000010000000000000BRAMBPACNOR6103
012024010802ANIM3       010ANIMA       ON      NM   R$  000000000041200000000004450000000000409000000000043600000000004390000000000438000000000043909370000000000008356700000000003649382000000000000000009999123100000010000000000000BRANIMACNOR6107
012024010802APER3       010ALPER S.A.  ON           R$  000000000434300000000044000000000004319000000000435200000000043520000000004352000000000436600087000000000000178800000000000778189700000000000000009999123100000010000000000000BRAPERACNOR9106
012024010802MAPT4       010CEMEPE      PN           R$  000000000050000000000005000000000000500000000000050000000000005000000000000400000000000100000005000000000000002100000000000001050000000000000000009999123100000010000000000000BRMAPTACNPR5106
012024010802MATD3       010MATER DEI   ON      NM   R$  000000000081300000000008400000000000808000000000082400000000008330000000000829000000000083301533000000000000306300000000000252635200000000000000009999123100000010000000000000BRMATDACNOR4103
012024010802MBLY3       010MOBLY       ON      NM   R$  000000000019900000000002050000000000195000000000020000000000002020000000000202000000000020400958000000000000878000000000000176035800000000000000009999123100000010000000000000BRMBLYACNOR5100
012024010802MDIA3       010M.DIASBRANCOON  EJ  NM   R$  000000000368300000000037750000000003675000000000373500000000037340000000003728000000000373501518000000000000274000000000001023662400000000000000009999123100000010000000000000BRMDIAACNOR7133
012024010802ARML3       010ARMAC       ON  EJ  NM   R$  000000000152500000000015830000000001515000000000155900000000015730000000001572000000000158401600000000000000339400000000000529261000000000000000009999123100000010000000000000BRARMLACNOR1110
012024010802BPAC11      010BTGP BANCO  UNT EJ  N2   R$  000000000366000000000037910000000003660000000000374900000000037910000000003784000000000379118963000000000007777700000000029163270600000000000000009999123100000010000000000000BRBPACUNT006118
012024010802BPAC3       010BTGP BANCO  ON  EJ  N2   R$  000000000173800000000017600000000001713000000000173600000000017390000000001701000000000173900068000000000000008600000000000014934900000000000000009999123100000010000000000000BRBPACACNOR7133
012024010802BPAC5       010BTGP BANCO  PNA EJ  N2   R$  000000000096500000000010100000000000963000000000098700000000010070000000000996000000000100900066000000000000011700000000000011548500000000000000009999123100000010000000000000BRBPACACNPA0133
012024010802CMIN3       010CSNMINERACAOON  EJ  N2   R$  000000000077900000000007880000000000767000000000077500000000007750000000000774000000000077509210000000000006873500000000005331241100000000000000009999123100000010000000000000BRCMINACNOR2110
012024010802COCE5       010COELCE      PNA          R$  000000000413000000000041450000000004071000000000411000000000041210000000004091000000000412100065000000000000008100000000000033292200000000000000009999123100000010000000000000BRCOCEACNPA3146
012024010802BSLI4       010BRB BANCO   PN           R$  000000000120500000000012050000000001205000000000120500000000012050000000001206000000000122100001000000000000000100000000000000120500000000000000009999123100000010000000000000BRBSLIACNPR2192
012024010802CAMB3       010CAMBUCI     ON           R$  000000000105600000000011150000000001046000000000108700000000011150000000001098000000000111500265000000000000078700000000000085547800000000000000009999123100000010000000000000BRCAMBACNOR4127
012024010802CAML3       010CAMIL       ON      NM   R$  000000000078200000000007900000000000777000000000078500000000007840000000000784000000000078901857000000000000415800000000000326546100000000000000009999123100000010000000000000BRCAMLACNOR3126
012024010802CASH3       010MELIUZ      ON      NM   R$  000000000076600000000007850000000000753000000000077100000000007670000000000766000000000076802199000000000001437800000000001109336100000000000000009999123100000010000000000000BRCASHACNOR8105
012024010802CBAV3       010CBA         ON      NM   R$  000000000050400000000005070000000000487000000000049700000000005000000000000500000000000050104369000000000003066600000000001526324800000000000000009999123100000010000000000000BRCBAVACNOR5104
012024010802CCRO3       010CCR SA      ON      NM   R$  000000000137600000000014130000000001369000000000139600000000013990000000001398000000000140009641000000000005943500000000008297380000000000000000009999123100000010000000000000BRCCROACNOR2144
012024010805BZLI11      010FII BRREALTYCI           R$  000000000170100000000017010000000001701000000000170100000000017010000000001700000000000170100001000000000000000001000000000000001701000000000000009999123100000010000000000000BRBZLICTF003100
012024010807NUTR3       010NUTRIPLANT  ON      MA   R$  000000000041300000000004450000000000413000000000042600000000004360000000000436000000000044700035000000000000008600000000000003671800000000000000009999123100000010000000000000BRNUTRACNOR0104
012024010808PMAM3       010PARANAPANEMAON  ES  NM   R$  000000000042500000000004290000000000412000000000042100000000004240000000000423000000000042400090000000000000013900000000000005857300000000000000009999123100000010000000000000BRPMAMACNOR3038
012024010808ATMP3       010ATMASA      ON           R$  000000000042000000000004270000000000324000000000036700000000003700000000000369000000000037000443000000000000223300000000000082121200000000000000009999123100000010000000000000BRATMPACNOR8100
012024010808ETER3       010ETERNIT     ON  EJ  NM   R$  000000000081000000000008200000000000791000000000081000000000008200000000000812000000000082000413000000000000119400000000000096762500000000000000009999123100000010000000000000BRETERACNOR3242
012024010808FRTA3       010POMIFRUTAS  ON      NM   R$  000000000017800000000001820000000000172000000000017600000000001800000000000176000000000018000021000000000000007900000000000001392200000000000000009999123100000010000000000000BRFRTAACNOR8103
012024010808OIBR3       010OI          ON      N1   R$  000000000006300000000000640000000000063000000000006300000000000640000000000063000000000006400648000000000004122200000000000260518500000000000000009999123100000010000000000000BROIBRACNOR1110
012024010808OIBR4       010OI          PN      N1   R$  000000000016200000000001640000000000162000000000016300000000001620000000000162000000000016400060000000000000016000000000000002609600000000000000009999123100000010000000000000BROIBRACNPR8109
012024010808HOOT4       010HOTEIS OTHONPN           R$  000000000028300000000002890000000000283000000000028500000000002890000000000273000000000028800005000000000000002000000000000000571800000000000000009999123100000010000000000000BRHOOTACNPR9015
012024010808LIGT3       010LIGHT S/A   ON      NM   R$  000000000065300000000006860000000000653000000000067300000000006820000000000678000000000068202958000000000000803600000000000541020700000000000000009999123100000010000000000000BRLIGTACNOR2124
012024010808TEKA4       010TEKA        PN           R$  000000000210000000000021000000000002100000000000210000000000021000000000002020000000000240000001000000000000000100000000000000210000000000000000009999123100000010000000000000BRTEKAACNPR3140
012024010808RSID3       010ROSSI RESID ON      NM   R$  000000000038600000000003940000000000380000000000038400000000003860000000000384000000000038600148000000000000085900000000000033038100000000000000009999123100000010000000000000BRRSIDACNOR8120
012024010808RNEW11      010RENOVA      UNT     N2   R$  000000000041300000000004370000000000412000000000041700000000004200000000000411000000000042200082000000000000009000000000000003759700000000000000009999123100000010000000000000BRRNEWCDAM15110
012024010808RNEW3       010RENOVA      ON      N2   R$  000000000013500000000001440000000000135000000000013900000000001390000000000137000000000014000215000000000000122300000000000017018800000000000000009999123100000010000000000000BRRNEWACNOR8110
012024010808RNEW4       010RENOVA      PN      N2   R$  000000000013600000000001400000000000136000000000013900000000001400000000000138000000000014000307000000000000182900000000000025426700000000000000009999123100000010000000000000BRRNEWACNPR5110
012024010808RPMG3       010PET MANGUINHON           R$  000000000021100000000002140000000000205000000000020700000000002070000000000206000000000020700047000000000000014600000000000003034400000000000000009999123100000010000000000000BRRPMGACNOR9194
012024010808JFEN3       010JOAO FORTES ON           R$  000000000021100000000002110000000000202000000000020400000000002020000000000202000000000020500069000000000000039200000000000008018800000000000000009999123100000010000000000000BRJFENACNOR0058
012024010808NEXP3       010NEXPE       ON      NM   R$  000000000050600000000005160000000000500000000000050500000000005120000000000504000000000051000010000000000000004900000000000002474500000000000000009999123100000010000000000000BRNEXPACNOR0101
012024010808AMER3       010AMERICANAS  ON      NM   R$  000000000008800000000000890000000000085000000000008700000000000870000000000086000000000008703244000000000033350800000000002907780700000000000000009999123100000010000000000000BRAMERACNOR6101
012024010810PMAM1       010PARANAPANEMADIR ORD NM   R$  000000000000100000000000010000000000001000000000000100000000000010000000000000000000000000100098000000000001972300000000000001972300000000000000009999123100000010000000000000BRPMAMD03OR4037
012024010810AVLL1       010ALPHAVILLE  DIR ORD NM   R$  000000000000100000000000020000000000001000000000000100000000000020000000000001000000000000200057000000000000295300000000000000314300000000000000009999123100000010000000000000BRAVLLD02OR8102
012024010810RENT1       010LOCALIZA    DIR ORD NM   R$  000000000160000000000019690000000001516000000000162300000000017800000000001778000000000191900269000000000000076300000000000123875500000000000000009999123100000010000000000000BRRENTD05OR0193
012024010810LJQQ1       010QUERO-QUERO DIR ORD NM   R$  000000000013000000000001950000000000125000000000016600000000001750000000000175000000000018800546000000000000108200000000000018032800000000000000009999123100000010000000000000BRLJQQD01OR0103
012024010810BIOM1       010BIOMM       DIR ORD MA   R$  000000000000200000000000020000000000001000000000000100000000000010000000000001000000000000200144000000000001755100000000000001918100000000000000009999123100000010000000000000BRBIOMD10OR8111
012024010810ABCB2       010ABC BRASIL  DIR PRE N2   R$  000000000043400000000004900000000000434000000000044700000000004520000000000451000000000051000333000000000000040600000000000018175500000000000000009999123100000010000000000000BRABCBD18PR3144
012024010810CBAV9       010CBA         ON  REC NM   R$  000000000049600000000004990000000000487000000000049400000000004920000000000492000000000049700047000000000000016500000000000008167100000000000000009999123100000010000000000000BRCBAVR01OR0103
012024010812CPFF11      010FII CAP REITCI           R$  000000000755000000000077690000000007550000000000768100000000077040000000007704000000000773700288000000000000002544000000000019542548000000000000009999123100000010000000000000BRCPFFCTF000150
012024010812EQIR11      010FII EQI RECECI           R$  000000000097500000000009800000000000970000000000097300000000009740000000000971000000000097402747000000000000014586000000000014202864000000000000009999123100000010000000000000BREQIRCTF003127
012024010812PORD11      010FII POLO CRICI  ER       R$  000000000904100000000091900000000009041000000000913200000000091900000000009145000000000919001495000000000000005668000000000051763570000000000000009999123100000010000000000000BRPORDCTF005168
012024010812PQAG11      010FII PARQ ANHCI  ER       R$  000000000590000000000059450000000005872000000000591300000000058720000000005631000000000587200004000000000000000006000000000000035478000000000000009999123100000010000000000000BRPQAGCTF009143
012024010812PQDP11      010FII D PEDRO CI  ER       R$  000000019549900000001962950000000193017000000019514500000001958900000000193611000000019589100038000000000000000089000000000017367991000000000000009999123100000010000000000000BRPQDPCTF004266
012024010812ASMT11      010FII ASA MET CI           R$  000000000570100000000057010000000005204000000000560400000000055090000000005330000000000550000037000000000000000253000000000001417848000000000000009999123100000010000000000000BRASMTCTF005107
012024010812LVBI11      010FII VBI LOG CI  ER       R$  000000001193700000000119980000000011857000000001192100000000118700000000011870000000001188111331000000000000036151000000000430982776000000000000009999123100000010000000000000BRLVBICTF002163
012024010812MFAI11      010FII MERITOFACI  ER       R$  000000000610600000000063000000000006106000000000624000000000062990000000006251000000000629900038000000000000000171000000000001067198000000000000009999123100000010000000000000BRMFAICTF005146
012024010812MFII11      010FII MERITO ICI  ER       R$  000000000956900000000095950000000009504000000000957300000000095950000000009581000000000959500391000000000000004596000000000044001239000000000000009999123100000010000000000000BRMFIICTF008229
012024010812MGHT11      010FII MOGNO HTCI           R$  000000000486400000000048870000000004760000000000478600000000047860000000004769000000000486100351000000000000001356000000000006490078000000000000009999123100000010000000000000BRMGHTCTF005148
012024010812BNFS11      010FII BANRISULCI  ER       R$  000000001205100000000120840000000012011000000001205100000000120500000000012047000000001205700136000000000000001840000000000022173942000000000000009999123100000010000000000000BRBNFSCTF000236
012024010812PLCR11      010FII PLURAL RCI  ER       R$  000000000890900000000089090000000008859000000000888100000000088590000000008862000000000886500210000000000000001782000000000015827714000000000000009999123100000010000000000000BRPLCRCTF003150
012024010812PLRI11      010FII POLO I  CI  ERA      R$  000000000163600000000016360000000001635000000000163500000000016350000000001552000000000163600005000000000000000010000000000000016352000000000000009999123100000010000000000000BRPLRICTF000239
012024010812ATSA11      010FII HATRIUM CI           R$  000000000544200000000054420000000005442000000000544200000000054420000000005442000000000544300001000000000000000017000000000000092514000000000000009999123100000010000000000000BRATSACTF000143
012024010812AURB11      010FII ALI URB CI           R$  000000000850000000000085000000000008500000000000850000000000085000000000008520000000001050000010000000000000000111000000000000943500000000000000009999123100000010000000000000BRAURBCTF008117
012024010812BCFF11      010FII BC FFII CI           R$  000000000093100000000009400000000000926000000000093100000000009290000000000929000000000093016357000000000000443102000000000412628377000000000000009999123100000010000000000000BRBCFFCTF000272
012024010812BCIA11      010FII BCIA    CI  ER       R$  000000001054900000000105530000000010400000000001049500000000105500000000010530000000001055000702000000000000005016000000000052644884000000000000009999123100000010000000000000BRBCIACTF005205
012024010812BCRI11      010FII BEES CRICI  ER       R$  000000000748000000000075700000000007480000000000753900000000075460000000007522000000000754701530000000000000005333000000000040206716000000000000009999123100000010000000000000BRBCRICTF009210
012024010812BRCO11      010FII BRESCO  CI  ER       R$  000000001250000000000125000000000012400000000001246200000000124550000000012455000000001246502512000000000000015833000000000197326394000000000000009999123100000010000000000000BRBRCOCTF007151
012024010812BRCR11      010FII BC FUND CI           R$  000000000605000000000060770000000006020000000000605100000000060730000000006070000000000607305282000000000000023892000000000144582958000000000000009999123100000010000000000000BRBRCRCTF000260
012024010812BRIM11      010FII BRIO II CI  ER       R$  000000010140000000001014000000000101400000000010140000000001014000000000085000000000011000000001000000000000000001000000000000101400000000000000009999123100000010000000000000BRBRIMCTF008125
012024010812CPSH11      010FII CPSH    CI           R$  000000001096100000000110990000000010961000000001099200000000110990000000011099000000001110000121000000000000002180000000000023964098000000000000009999123100000010000000000000BRCPSHCTF017107
012024010812CPTS11      010FII CAPI SECCI           R$  000000000085600000000008640000000000856000000000086000000000008630000000000863000000000086427954000000000000691017000000000594715344000000000000009999123100000010000000000000BRCPTSCTF004225
012024010812CRFF11      010FII CX RBRA2CI  ER       R$  000000000766900000000077490000000007669000000000769700000000077490000000007700000000000775000007000000000000000061000000000000469560000000000000009999123100000010000000000000BRCRFFCTF006156
