00COTAHIST.2024BOVESPA 20240304                                                                                                                                                                                                                      
012024030402DOHL4       010DOHLER      PN           R$  000000000049000000000004960000000000480000000000049000000000004890000000000477000000000049000006000000000000001700000000000000833700000000000000009999123100000010000000000000BRDOHLACNPR9066
012024030402DOTZ3       010DOTZ SA     ON      NM   R$  000000000069000000000007280000000000662000000000068700000000006620000000000662000000000068000050000000000000014400000000000009898200000000000000009999123100000010000000000000BRDOTZACNOR7101
012024030402DTCY3       010DTCOM-DIRECTON           R$  000000000057000000000006000000000000569000000000057900000000005690000000000400000000000056200003000000000000000300000000000000173900000000000000009999123100000010000000000000BRDTCYACNOR5109
012024030402DXCO3       010DEXCO       ON      NM   R$  000000000083000000000008460000000000815000000000082400000000008210000000000820000000000082607601000000000001828100000000001507744200000000000000009999123100000010000000000000BRDXCOACNOR8104
012024030402EALT3       010ACO ALTONA  ON           R$  000000000101000000000010100000000001010000000000101000000000010100000000000960000000000101000001000000000000000500000000000000505000000000000000009999123100000010000000000000BREALTACNOR4137
012024030402EALT4       010ACO ALTONA  PN           R$  000000000110400000000011070000000001071000000000109200000000010990000000001070000000000110000010000000000000001000000000000001092300000000000000009999123100000010000000000000BREALTACNPR1137
012024030402ECOR3       010ECORODOVIAS ON      NM   R$  000000000093000000000009400000000000909000000000091800000000009120000000000911000000000091205190000000000001540700000000001415873900000000000000009999123100000010000000000000BRECORACNOR8119
012024030402EGIE3       010ENGIE BRASILON      NM   R$  000000000410000000000041200000000004050000000000407100000000040510000000004051000000000407107052000000000001494400000000006084610400000000000000009999123100000010000000000000BREGIEACNOR9125
012024030402GPAR3       010CELGPAR     ON           R$  000000000427700000000042770000000004277000000000427700000000042770000000004020000000000500000003000000000000000300000000000001283100000000000000009999123100000010000000000000BRGPARACNOR4110
012024030402GRND3       010GRENDENE    ON      NM   R$  000000000064900000000006540000000000614000000000061700000000006150000000000614000000000061609115000000000011994800000000007412135800000000000000009999123100000010000000000000BRGRNDACNOR3172
012024030402GUAR3       010GUARARAPES  ON      NM   R$  000000000064400000000006500000000000621000000000063300000000006310000000000628000000000063105784000000000001953900000000001236906800000000000000009999123100000010000000000000BRGUARACNOR4172
012024030402MLAS3       010MULTILASER  ON      NM   R$  000000000021700000000002240000000000214000000000021600000000002140000000000214000000000021502497000000000001254500000000000272076700000000000000009999123100000010000000000000BRMLASACNOR9101
012024030402MNDL3       010MUNDIAL     ON           R$  000000000390000000000039000000000003900000000000390000000000039000000000003900000000000410000002000000000000000200000000000000780000000000000000009999123100000010000000000000BRMNDLACNOR4107
012024030402MNPR3       010MINUPAR     ON           R$  000000000198800000000019900000000001987000000000198900000000019900000000001990000000000201500005000000000000000600000000000001193500000000000000009999123100000010000000000000BRMNPRACNOR5122
012024030402MOVI3       010MOVIDA      ON      NM   R$  000000000084800000000008560000000000820000000000083500000000008370000000000836000000000083807232000000000002330100000000001945975800000000000000009999123100000010000000000000BRMOVIACNOR0122
012024030402MRFG3       010MARFRIG     ON      NM   R$  000000000098300000000009870000000000953000000000096800000000009770000000000973000000000097713108000000000004664000000000004516338700000000000000009999123100000010000000000000BRMRFGACNOR0116
012024030402MRVE3       010MRV         ON      NM   R$  000000000078300000000008020000000000765000000000077700000000007790000000000778000000000077917068000000000024568800000000019102635300000000000000009999123100000010000000000000BRMRVEACNOR2126
012024030402AALR3       010ALLIAR      ON      NM   R$  000000000082900000000008340000000000821000000000082500000000008210000000000821000000000082500239000000000000032300000000000026657800000000000000009999123100000010000000000000BRAALRACNOR6102
012024030402CEDO4       010CEDRO       PN      N1   R$  000000000260000000000026000000000002552000000000257600000000025520000000002552000000000260000002000000000000000400000000000001030400000000000000009999123100000010000000000000BRCEDOACNPR5128
012024030402CEEB3       010COELBA      ON           R$  000000000390300000000039850000000003903000000000393900000000039850000000003962000000000398700005000000000000001000000000000003939300000000000000009999123100000010000000000000BRCEEBACNOR3196
012024030402CGAS5       010COMGAS      PNA          R$  000000001106700000000111010000000011001000000001106800000000110010000000011001000000001119000005000000000000000500000000000005534100000000000000009999123100000010000000000000BRCGASACNPA3159
012024030402CGRA3       010GRAZZIOTIN  ON           R$  000000000259800000000025980000000002598000000000259800000000025980000000002544000000000259700002000000000000000300000000000000779400000000000000009999123100000010000000000000BRCGRAACNOR2081
012024030402CGRA4       010GRAZZIOTIN  PN           R$  000000000269600000000026970000000002660000000000267400000000026700000000002669000000000269000014000000000000001600000000000004279300000000000000009999123100000010000000000000BRCGRAACNPR9081
012024030402CIEL3       010CIELO       ON      NM   R$  000000000053500000000005400000000000534000000000053600000000005340000000000534000000000053513444000000000009306600000000004996093600000000000000009999123100000010000000000000BRCIELACNOR3156
012024030402GGBR3       010GERDAU      ON  ED  N1   R$  000000000205000000000020600000000001952000000000199100000000019690000000001963000000000196900367000000000000078700000000000156751300000000000000009999123100000010000000000000BRGGBRACNOR1190
012024030402GGBR4       010GERDAU      PN  ED  N1   R$  000000000223600000000022480000000002186000000000220200000000021930000000002192000000000219417492000000000007774500000000017121357800000000000000009999123100000010000000000000BRGGBRACNPR8190
012024030402ITUB3       010ITAUUNIBANCOON  EDJ N1   R$  000000000295000000000029680000000002929000000000294200000000029290000000002929000000000293101944000000000000447500000000001316642800000000000000009999123100000010000000000000BRITUBACNOR4332
012024030402ITUB4       010ITAUUNIBANCOPN  EDJ N1   R$  000000000340800000000034200000000003381000000000339500000000033810000000003381000000000338828775000000000015599500000000052963528900000000000000009999123100000010000000000000BRITUBACNPR1332
012024030402SAPR11      010SANEPAR     UNT     N2   R$  000000000261900000000026400000000002586000000000260100000000026000000000002599000000000260104176000000000000821700000000002137279900000000000000009999123100000010000000000000BRSAPRCDAM13117
012024030402SAPR3       010SANEPAR     ON      N2   R$  000000000050200000000005050000000000497000000000049900000000004990000000000497000000000049900461000000000000187300000000000093637000000000000000009999123100000010000000000000BRSAPRACNOR9158
012024030402SAPR4       010SANEPAR     PN      N2   R$  000000000052700000000005310000000000521000000000052400000000005210000000000521000000000052201843000000000001053400000000000552487100000000000000009999123100000010000000000000BRSAPRACNPR6158
012024030402SBFG3       010GRUPO SBF   ON      NM   R$  000000000126000000000012680000000001206000000000121900000000012200000000001220000000000122106677000000000001386200000000001690210600000000000000009999123100000010000000000000BRSBFGACNOR1102
012024030402VALE3       010VALE        ON      NM   R$  000000000669500000000067200000000006639000000000666900000000066730000000006671000000000667335431000000000013145000000000087675506600000000000000009999123100000010000000000000BRVALEACNOR0209
012024030402ROMI3       010ROMI        ON      NM   R$  000000000126800000000012680000000001254000000000125900000000012580000000001254000000000125900899000000000000163200000000000205485000000000000000009999123100000010000000000000BRROMIACNOR8192
012024030402RPAD3       010ALFA HOLDINGON           R$  000000000083600000000008360000000000836000000000083600000000008360000000000836000000000090000001000000000000000100000000000000083600000000000000009999123100000010000000000000BRRPADACNOR1198
012024030402RPAD5       010ALFA HOLDINGPNA          R$  000000000087800000000008780000000000805000000000081800000000008050000000000792000000000083500012000000000000003600000000000002948300000000000000009999123100000010000000000000BRRPADACNPA4218
012024030402RPAD6       010ALFA HOLDINGPNB          R$  000000000089700000000008970000000000836000000000087800000000008360000000000836000000000089700008000000000000002600000000000002283400000000000000009999123100000010000000000000BRRPADACNPB2198
012024030402RRRP3       0103R PETROLEUMON      NM   R$  000000000282800000000028570000000002780000000000280400000000028040000000002801000000000280406214000000000001907100000000005348931700000000000000009999123100000010000000000000BRRRRPACNOR5102
012024030402RSUL4       010RIOSULENSE  PN           R$  000000000839900000000083990000000008398000000000839800000000083980000000007600000000000839900002000000000000000200000000000001679700000000000000009999123100000010000000000000BRRSULACNPR3113
012024030402UNIP3       010UNIPAR      ON           R$  000000000630100000000063320000000006240000000000627500000000062400000000006240000000000629700082000000000000009500000000000059620700000000000000009999123100000010000000000000BRUNIPACNOR7204
012024030402UNIP6       010UNIPAR      PNB          R$  000000000669900000000067740000000006640000000000667800000000066450000000006644000000000665901242000000000000168200000000001123331100000000000000009999123100000010000000000000BRUNIPACNPB8204
012024030402USIM3       010USIMINAS    ON      N1   R$  000000000108200000000010860000000001036000000000104700000000010360000000001036000000000103903089000000000001699100000000001779701300000000000000009999123100000010000000000000BRUSIMACNOR3166
012024030402USIM5       010USIMINAS    PNA     N1   R$  000000000110900000000011090000000001063000000000107500000000010700000000001070000000000107117882000000000012020700000000012929049100000000000000009999123100000010000000000000BRUSIMACNPA6168
012024030402WEST3       010WESTWING    ON      NM   R$  000000000012300000000001260000000000122000000000012400000000001220000000000122000000000012300189000000000000074300000000000009218600000000000000009999123100000010000000000000BRWESTACNOR3100
012024030402WHRL3       010WHIRLPOOL   ON           R$  000000000042000000000004230000000000420000000000042100000000004200000000000420000000000042300007000000000000001100000000000000463300000000000000009999123100000010000000000000BRWHRLACNOR5128
012024030402WHRL4       010WHIRLPOOL   PN           R$  000000000045500000000004570000000000455000000000045500000000004550000000000455000000000045600015000000000000025000000000000011375200000000000000009999123100000010000000000000BRWHRLACNPR2128
012024030402WIZC3       010WIZ CO      ON      NM   R$  000000000063400000000006340000000000618000000000062400000000006180000000000618000000000062101009000000000000221600000000000138477400000000000000009999123100000010000000000000BRWIZCACNOR5101
012024030402WLMM4       010WLM IND COM PN           R$  000000000253900000000025390000000002405000000000245700000000024620000000002420000000000246300052000000000000010500000000000025801800000000000000009999123100000010000000000000BRWLMMACNPR3117
012024030402PFRM3       010PROFARMA    ON      NM   R$  000000000056100000000005690000000000542000000000055400000000005580000000000554000000000055800604000000000000137700000000000076316700000000000000009999123100000010000000000000BRPFRMACNOR1116
012024030402PGMN3       010PAGUE MENOS ON      NM   R$  000000000030400000000003160000000000302000000000030700000000003030000000000303000000000030701436000000000001810100000000000556555000000000000000009999123100000010000000000000BRPGMNACNOR8103
012024030402PINE3       010PINE        ON      N2   R$  000000000100000000000010000000000000861000000000092900000000008610000000000800000000000086100038000000000000009200000000000008547200000000000000009999123100000010000000000000BRPINEACNOR1148
012024030402SBSP3       010SABESP      ON      NM   R$  000000000798000000000080140000000007867000000000794900000000079580000000007928000000000795911979000000000002872900000000022839413600000000000000009999123100000010000000000000BRSBSPACNOR5160
012024030402SCAR3       010SAO CARLOS  ON      NM   R$  000000000261000000000026100000000002530000000000255500000000025300000000002530000000000257000038000000000000007500000000000019165100000000000000009999123100000010000000000000BRSCARACNOR7130
012024030402HAGA3       010HAGA S/A    ON           R$  000000000026200000000002740000000000262000000000026500000000002630000000000258000000000027400005000000000000001800000000000000477800000000000000009999123100000010000000000000BRHAGAACNOR7103
012024030402HAGA4       010HAGA S/A    PN           R$  000000000010700000000001120000000000107000000000010900000000001090000000000109000000000011100040000000000000023600000000000002581800000000000000009999123100000010000000000000BRHAGAACNPR4103
012024030402HAPV3       010HAPVIDA     ON      NM   R$  000000000037000000000003750000000000360000000000036400000000003600000000000360000000000036121429000000000046766100000000017026547600000000000000009999123100000010000000000000BRHAPVACNOR4113
012024030402JALL3       010JALLESMACHADON      NM   R$  000000000075000000000007620000000000745000000000075000000000007500000000000750000000000075201490000000000000309700000000000232581900000000000000009999123100000010000000000000BRJALLACNOR0105
012024030402JBSS3       010JBS         ON      NM   R$  000000000224900000000022760000000002232000000000225300000000022550000000002254000000000225808984000000000003533600000000007962521600000000000000009999123100000010000000000000BRJBSSACNOR8121
012024030402JHSF3       010JHSF PART   ON  ED  NM   R$  000000000044500000000004490000000000435000000000044000000000004350000000000435000000000043706932000000000002304000000000001014689200000000000000009999123100000010000000000000BRJHSFACNOR2133
012024030402MTRE3       010MITRE REALTYON      NM   R$  000000000059300000000005980000000000568000000000057400000000005700000000000569000000000057004206000000000001623000000000000933116100000000000000009999123100000010000000000000BRMTREACNOR6109
012024030402MTSA4       010METISA      PN           R$  000000000488000000000049790000000004809000000000488600000000049390000000004801000000000493900030000000000000003600000000000017590100000000000000009999123100000010000000000000BRMTSAACNPR9071
012024030402MULT3       010MULTIPLAN   ON      N2   R$  000000000262000000000026200000000002567000000000259000000000025990000000002595000000000259916126000000000003298900000000008547080500000000000000009999123100000010000000000000BRMULTACNOR5137
012024030402AERI3       010AERIS       ON      NM   R$  000000000006600000000000680000000000066000000000006700000000000680000000000067000000000006802353000000000001839500000000000123492800000000000000009999123100000010000000000000BRAERIACNOR4101
012024030402AESB3       010AES BRASIL  ON      NM   R$  000000000106500000000010670000000001040000000000104900000000010470000000001043000000000104803721000000000001277800000000001340770100000000000000009999123100000010000000000000BRAESBACNOR7105
012024030402AFLT3       010AFLUENTE T  ON           R$  000000000075400000000007580000000000754000000000075600000000007580000000000735000000000076700004000000000000000400000000000000302400000000000000009999123100000010000000000000BRAFLTACNOR1120
012024030402AGRO3       010BRASILAGRO  ON      NM   R$  000000000241000000000024100000000002386000000000239100000000023880000000002387000000000239202091000000000000584500000000001397540800000000000000009999123100000010000000000000BRAGROACNOR7114
012024030402AGXY3       010AGROGALAXY  ON      NM   R$  000000000017700000000001800000000000174000000000017800000000001800000000000179000000000018000450000000000000267000000000000047693900000000000000009999123100000010000000000000BRAGXYACNOR4102
012024030402ALLD3       010ALLIED      ON      NM   R$  000000000072000000000007300000000000707000000000072000000000007070000000000707000000000071000056000000000000015700000000000011316900000000000000009999123100000010000000000000BRALLDACNOR3105
012024030402ALOS3       010ALLOS       ON      NM   R$  000000000246000000000024630000000002412000000000242800000000024280000000002428000000000243004934000000000001442800000000003503322600000000000000009999123100000010000000000000BRALOSACNOR5100
012024030402CLSA3       010CLEARSALE   ON      NM   R$  000000000036800000000003750000000000353000000000036100000000003600000000000360000000000036102895000000000001086800000000000392386200000000000000009999123100000010000000000000BRCLSAACNOR0100
012024030402CLSC3       010CELESC      ON      N2   R$  000000000631300000000063130000000006313000000000631300000000063130000000006311000000000690000001000000000000000100000000000000631300000000000000009999123100000010000000000000BRCLSCACNOR6149
012024030402CLSC4       010CELESC      PN      N2   R$  000000000675600000000067980000000006559000000000667600000000065590000000006557000000000670000043000000000000005000000000000033384400000000000000009999123100000010000000000000BRCLSCACNPR3128
012024030402CMIG3       010CEMIG       ON      N1   R$  000000000151800000000015230000000001480000000000149500000000014920000000001492000000000150101418000000000000400600000000000599107400000000000000009999123100000010000000000000BRCMIGACNOR6239
012024030402CMIG4       010CEMIG       PN      N1   R$  000000000121000000000012160000000001188000000000119800000000011930000000001192000000000119414456000000000009899700000000011863516600000000000000009999123100000010000000000000BRCMIGACNPR3240
012024030402CMIN3       010CSNMINERACAOON      N2   R$  000000000060200000000006140000000000600000000000060700000000006080000000000606000000000060807218000000000005485200000000003331036700000000000000009999123100000010000000000000BRCMINACNOR2110
012024030402GGPS3       010GPS         ON      NM   R$  000000000175900000000017730000000001720000000000173900000000017420000000001740000000000174205848000000000001826400000000003177315700000000000000009999123100000010000000000000BRGGPSACNOR9102
012024030402GMAT3       010GRUPO MATEUSON      NM   R$  000000000079000000000007970000000000778000000000078300000000007800000000000779000000000078006558000000000003989700000000003126879900000000000000009999123100000010000000000000BRGMATACNOR7100
012024030402GOAU3       010GERDAU MET  ON  ED  N1   R$  000000000104600000000010550000000001030000000000104000000000010340000000001032000000000103400231000000000000041900000000000043594800000000000000009999123100000010000000000000BRGOAUACNOR1266
012024030402GOAU4       010GERDAU MET  PN  ED  N1   R$  000000000103300000000010420000000001016000000000102300000000010200000000001019000000000102008701000000000005478300000000005608433000000000000000009999123100000010000000000000BRGOAUACNPR8267
012024030402TASA3       010TAURUS ARMASON      N2   R$  000000000142500000000014430000000001415000000000142100000000014230000000001411000000000143100080000000000000011800000000000016779000000000000000009999123100000010000000000000BRTASAACNOR7103
012024030402TASA4       010TAURUS ARMASPN      N2   R$  000000000143400000000014370000000001410000000000142100000000014170000000001414000000000141700966000000000000176700000000000251135400000000000000009999123100000010000000000000BRTASAACNPR4103
012024030402TCSA3       010TECNISA     ON      NM   R$  000000000028900000000002900000000000285000000000028700000000002850000000000284000000000028500158000000000000064100000000000018441800000000000000009999123100000010000000000000BRTCSAACNOR3112
012024030402TECN3       010TECHNOS     ON      NM   R$  000000000032200000000003280000000000320000000000032300000000003200000000000319000000000032000216000000000000126300000000000040811900000000000000009999123100000010000000000000BRTECNACNOR6109
012024030402TELB4       010TELEBRAS    PN           R$  000000000113200000000011320000000001073000000000108800000000010800000000001079000000000109300036000000000000007000000000000007618800000000000000009999123100000010000000000000BRTELBACNPR9140
012024030402TEND3       010TENDA       ON      NM   R$  000000000105900000000010700000000001001000000000101800000000010070000000001006000000000100908628000000000002641800000000002690336700000000000000009999123100000010000000000000BRTENDACNOR4111
012024030402TFCO4       010TRACK FIELD PN      N2   R$  000000000131700000000013190000000001252000000000127900000000012750000000001275000000000128100588000000000000260900000000000333724600000000000000009999123100000010000000000000BRTFCOACNPR8111
012024030402TGMA3       010TEGMA       ON      NM   R$  000000000266500000000026730000000002615000000000262800000000026250000000002615000000000262500826000000000000129100000000000339306800000000000000009999123100000010000000000000BRTGMAACNOR7143
012024030402ITSA3       010ITAUSA      ON  EDJ N1   R$  000000000103500000000010350000000001027000000000103000000000010300000000001029000000000103000241000000000000055400000000000057075400000000000000009999123100000010000000000000BRITSAACNOR0438
012024030402ITSA4       010ITAUSA      PN  EDJ N1   R$  000000000103000000000010320000000001023000000000102600000000010270000000001026000000000102824110000000000010144400000000010418128700000000000000009999123100000010000000000000BRITSAACNPR7438
012024030402BIOM3       010BIOMM       ON      MA   R$  000000000099500000000010940000000000994000000000105500000000010700000000001050000000000107000094000000000000026900000000000028395600000000000000009999123100000010000000000000BRBIOMACNOR2112
012024030402BRGE5       010ALFA CONSORCPNA          R$  000000000125600000000013160000000001256000000000128600000000013160000000001316000000000200000002000000000000000200000000000000257200000000000000009999123100000010000000000000BRBRGEACNPA9218
012024030402BRGE7       010ALFA CONSORCPNC          R$  000000000130700000000013070000000001307000000000130700000000013070000000001307000000000000000002000000000000000500000000000000653500000000000000009999123100000010000000000000BRBRGEACNPC5220
012024030402BRIT3       010BRISANET    ON      NM   R$  000000000034700000000003540000000000342000000000034600000000003460000000000346000000000034900363000000000000520800000000000180513000000000000000009999123100000010000000000000BRBRITACNOR0102
012024030402BRIV3       010ALFA INVEST ON           R$  000000000131100000000013600000000001311000000000132500000000013150000000001315000000000134500007000000000000000800000000000001060600000000000000009999123100000010000000000000BRBRIVACNOR6209
012024030402BRIV4       010ALFA INVEST PN           R$  000000000118500000000012600000000001185000000000123500000000012600000000001245000000000127000003000000000000000500000000000000617700000000000000009999123100000010000000000000BRBRIVACNPR3218
012024030402BRKM3       010BRASKEM     ON      N1   R$  000000000218100000000021980000000002131000000000216000000000021980000000002190000000000219900059000000000000011500000000000024845900000000000000009999123100000010000000000000BRBRKMACNOR1119
012024030402BRKM5       010BRASKEM     PNA     N1   R$  000000000218900000000022140000000002125000000000217000000000022140000000002205000000000221408463000000000003270100000000007096766300000000000000009999123100000010000000000000BRBRKMACNPA4121
012024030402CSUD3       010CSU DIGITAL ON      NM   R$  000000000196000000000020000000000001960000000000197700000000019770000000001977000000000198000264000000000000041400000000000081850200000000000000009999123100000010000000000000BRCSUDACNOR5107
012024030402CTKA3       010KARSTEN     ON           R$  000000000180000000000019000000000001800000000000185300000000019000000000001822000000000210000006000000000000000600000000000001112200000000000000009999123100000010000000000000BRCTKAACNOR0043
012024030402CTNM4       010COTEMINAS   PN           R$  000000000013400000000001360000000000130000000000013000000000001300000000000130000000000013100059000000000000038600000000000005045700000000000000009999123100000010000000000000BRCTNMACNPR6129
012024030402CTSA3       010SANTANENSE  ON           R$  000000000031200000000003120000000000301000000000030400000000003050000000000303000000000030800022000000000000004000000000000001217000000000000000009999123100000010000000000000BRCTSAACNOR3062
012024030402CTSA4       010SANTANENSE  PN           R$  000000000017100000000001730000000000169000000000017000000000001720000000000168000000000017200026000000000000017500000000000002978900000000000000009999123100000010000000000000BRCTSAACNPR0062
012024030402CURY3       010CURY S/A    ON      NM   R$  000000000192200000000019430000000001896000000000191300000000019180000000001910000000000191806023000000000001350900000000002585163900000000000000009999123100000010000000000000BRCURYACNOR3107
012024030402CVCB3       010CVC BRASIL  ON      NM   R$  000000000034200000000003470000000000333000000000033600000000003340000000000334000000000033510524000000000010406900000000003499017700000000000000009999123100000010000000000000BRCVCBACNOR1115
012024030402ESPA3       010ESPACOLASER ON      NM   R$  000000000010900000000001100000000000106000000000010800000000001060000000000106000000000010700353000000000000486300000000000052600200000000000000009999123100000010000000000000BRESPAACNOR7103
012024030402EUCA3       010EUCATEX     ON      N1   R$  000000000175000000000017500000000001660000000000168300000000016990000000001690000000000170000020000000000000003300000000000005554100000000000000009999123100000010000000000000BREUCAACNOR1157
012024030402EUCA4       010EUCATEX     PN      N1   R$  000000000177200000000017800000000001754000000000176900000000017790000000001779000000000178000433000000000000081900000000000144895600000000000000009999123100000010000000000000BREUCAACNPR8044
012024030402EVEN3       010EVEN        ON      NM   R$  000000000084000000000008480000000000818000000000083000000000008340000000000834000000000084003723000000000002822400000000002343707100000000000000009999123100000010000000000000BREVENACNOR8118
012024030402EZTC3       010EZTEC       ON      NM   R$  000000000174900000000017580000000001716000000000173200000000017160000000001715000000000172306909000000000001506400000000002609571100000000000000009999123100000010000000000000BREZTCACNOR0123
012024030402CASH3       010MELIUZ      ON      NM   R$  000000000079500000000008040000000000789000000000079400000000007950000000000795000000000079803353000000000000919300000000000730607100000000000000009999123100000010000000000000BRCASHACNOR8105
012024030402CBAV3       010CBA         ON      NM   R$  000000000040100000000004130000000000392000000000039800000000003950000000000395000000000039604207000000000002304900000000000918485700000000000000009999123100000010000000000000BRCBAVACNOR5104
012024030402CXSE3       010CAIXA SEGURION      NM   R$  000000000145300000000014860000000001451000000000147400000000014800000000001478000000000148008624000000000005622600000000008291833400000000000000009999123100000010000000000000BRCXSEACNOR7105
012024030402CYRE3       010CYRELA REALTON      NM   R$  000000000245000000000024600000000002391000000000240900000000024180000000002410000000000241810087000000000003686300000000008880961500000000000000009999123100000010000000000000BRCYREACNOR7139
012024030402TIMS3       010TIM         ON      NM   R$  000000000184000000000018530000000001804000000000182100000000018150000000001815000000000181611761000000000005279600000000009617090100000000000000009999123100000010000000000000BRTIMSACNOR5114
012024030402TOTS3       010TOTVS       ON      NM   R$  000000000311600000000031370000000003076000000000310400000000030760000000003075000000000308808140000000000003044200000000009451487800000000000000009999123100000010000000000000BRTOTSACNOR8144
012024030402VITT3       010VITTIA      ON      NM   R$  000000000073800000000007380000000000721000000000072500000000007220000000000721000000000072601254000000000000171300000000000124279000000000000000009999123100000010000000000000BRVITTACNOR4106
012024030402VIVA3       010VIVARA S.A. ON      NM   R$  000000000322200000000032430000000003116000000000314500000000031620000000003153000000000316308979000000000002374600000000007470253300000000000000009999123100000010000000000000BRVIVAACNOR0106
012024030402SEER3       010SER EDUCA   ON      NM   R$  000000000064700000000006650000000000632000000000064600000000006320000000000632000000000063901347000000000000529700000000000342545100000000000000009999123100000010000000000000BRSEERACNOR5119
012024030402SEQL3       010SEQUOIA LOG ON      NM   R$  000000000004400000000000450000000000042000000000004200000000000420000000000042000000000004303696000000000006884400000000000295615400000000000000009999123100000010000000000000BRSEQLACNOR2101
012024030402SGPS3       010SPRINGS     ON      NM   R$  000000000009600000000000960000000000092000000000009300000000000920000000000092000000000009300220000000000000301400000000000028049100000000000000009999123100000010000000000000BRSGPSACNOR4104
012024030402SHOW3       010TIME FOR FUNON      NM   R$  000000000020000000000002010000000000197000000000019800000000001970000000000197000000000019800201000000000000050500000000000010000000000000000000009999123100000010000000000000BRSHOWACNOR7105
012024030402SHUL4       010SCHULZ      PN           R$  000000000070300000000007070000000000682000000000069200000000006820000000000682000000000068302075000000000000575800000000000398708900000000000000009999123100000010000000000000BRSHULACNPR4154
012024030402SIMH3       010SIMPAR      ON      NM   R$  000000000077600000000007940000000000756000000000076600000000007560000000000756000000000075906095000000000002708500000000002076025900000000000000009999123100000010000000000000BRSIMHACNOR0107
012024030402PETZ3       010PETZ        ON      NM   R$  000000000042100000000004220000000000391000000000040000000000003950000000000394000000000039510346000000000015884800000000006361605200000000000000009999123100000010000000000000BRPETZACNOR2109
012024030402SANB11      010SANTANDER BRUNT          R$  000000000287100000000028740000000002836000000000285500000000028510000000002849000000000285304692000000000001402400000000004004496300000000000000009999123100000010000000000000BRSANBCDAM13163
012024030402SANB3       010SANTANDER BRON           R$  000000000134300000000013500000000001333000000000134100000000013430000000001339000000000134400449000000000000064300000000000086270200000000000000009999123100000010000000000000BRSANBACNOR8170
012024030402SANB4       010SANTANDER BRPN           R$  000000000150800000000015230000000001505000000000151200000000015100000000001506000000000151000412000000000000069600000000000105304100000000000000009999123100000010000000000000BRSANBACNPR5170
012024030402BLAU3       010BLAU        ON      NM   R$  000000000127500000000012770000000001230000000000124300000000012300000000001230000000000123901544000000000000213800000000000265765500000000000000009999123100000010000000000000BRBLAUACNOR8111
012024030402BMEB3       010MERCANTIL   ON      N1   R$  000000000290000000000029000000000002900000000000290000000000029000000000002110000000000290000002000000000000000200000000000000580000000000000000009999123100000010000000000000BRBMEBACNOR8205
012024030402BMEB4       010MERCANTIL   PN      N1   R$  000000000301900000000030480000000002820000000000298300000000030200000000003020000000000304800255000000000000094200000000000281002500000000000000009999123100000010000000000000BRBMEBACNPR5210
012024030402ABCB4       010ABC BRASIL  PN      N2   R$  000000000239400000000024310000000002383000000000240400000000023970000000002395000000000240602814000000000000518500000000001246990300000000000000009999123100000010000000000000BRABCBACNPR4145
012024030402ABEV3       010AMBEV S/A   ON           R$  000000000124500000000012570000000001241000000000124700000000012480000000001248000000000124921198000000000016560500000000020665608700000000000000009999123100000010000000000000BRABEVACNOR1127
012024030402BBDC3       010BRADESCO    ON  EJ  N1   R$  000000000123800000000012440000000001219000000000123200000000012190000000001219000000000122707802000000000009126400000000011246408400000000000000009999123100000010000000000000BRBBDCACNOR1767
012024030402BBDC4       010BRADESCO    PN  EJ  N1   R$  000000000137800000000013830000000001363000000000136800000000013650000000001364000000000136541342000000000031807800000000043541520400000000000000009999123100000010000000000000BRBBDCACNPR8767
012024030402CCRO3       010CCR SA      ON      NM   R$  000000000136900000000013750000000001349000000000136300000000013680000000001367000000000136912001000000000006047300000000008243803700000000000000009999123100000010000000000000BRCCROACNOR2144
012024030402CEAB3       010CEA MODAS   ON      NM   R$  000000000097500000000009760000000000934000000000095400000000009560000000000955000000000095609377000000000006129500000000005851329700000000000000009999123100000010000000000000BRCEABACNOR1101
012024030402CEBR3       010CEB         ON           R$  000000000202400000000020420000000002007000000000202300000000020420000000002039000000000205000030000000000000004100000000000008298300000000000000009999123100000010000000000000BRCEBRACNOR5124
012024030402CEBR5       010CEB         PNA          R$  000000000180100000000018900000000001801000000000187800000000018850000000001850000000000188500033000000000000025500000000000047912700000000000000009999123100000010000000000000BRCEBRACNPA8123
012024030402CEBR6       010CEB         PNB          R$  000000000203600000000020560000000001980000000000201100000000020300000000001981000000000203000055000000000000016000000000000032189400000000000000009999123100000010000000000000BRCEBRACNPB6123
012024030402ARML3       010ARMAC       ON      NM   R$  000000000129200000000013000000000001263000000000127300000000012710000000001270000000000127101699000000000000292500000000000372416000000000000000009999123100000010000000000000BRARMLACNOR1110
012024030402ARZZ3       010AREZZO CO   ON      NM   R$  000000000594000000000059890000000005680000000000575900000000056830000000005683000000000568511062000000000002470600000000014228631400000000000000009999123100000010000000000000BRARZZACNOR3146
012024030402COCE5       010COELCE      PNA          R$  000000000418300000000042050000000004092000000000413300000000040920000000004092000000000417700115000000000000014000000000000057864100000000000000009999123100000010000000000000BRCOCEACNPA3146
012024030402COGN3       010COGNA ON    ON      NM   R$  000000000026100000000002650000000000255000000000025900000000002580000000000257000000000025810178000000000025014800000000006499330500000000000000009999123100000010000000000000BRCOGNACNOR2104
012024030402DMVF3       010D1000VFARMA ON      NM   R$  000000000059900000000005990000000000582000000000059000000000005820000000000582000000000059200260000000000000072100000000000042609200000000000000009999123100000010000000000000BRDMVFACNOR9100
012024030402VIVR3       010VIVER       ON      NM   R$  000000000031400000000003180000000000302000000000030800000000003070000000000305000000000030700206000000000000110400000000000034020100000000000000009999123100000010000000000000BRVIVRACNOR4122
012024030402VIVT3       010TELEF BRASILON           R$  000000000539800000000054080000000005242000000000528000000000052500000000005250000000000525207130000000000002266000000000011966320100000000000000009999123100000010000000000000BRVIVTACNOR0178
012024030402VLID3       010VALID       ON      NM   R$  000000000189700000000019360000000001836000000000186000000000018560000000001850000000000185602264000000000000417600000000000776876000000000000000009999123100000010000000000000BRVLIDACNOR5141
012024030402VSTE3       010VESTE       ON      NM   R$  000000000143300000000014490000000001433000000000144200000000014490000000001449000000000146700009000000000000000900000000000001298200000000000000009999123100000010000000000000BRVSTEACNOR5102
012024030402VULC3       010VULCABRAS   ON      NM   R$  000000000188500000000019130000000001838000000000189200000000019130000000001910000000000191305210000000000001656300000000003134227400000000000000009999123100000010000000000000BRVULCACNOR2157
012024030402VVEO3       010VIVEO       ON      NM   R$  000000000084700000000008540000000000815000000000082600000000008150000000000815000000000082205042000000000001133600000000000936573600000000000000009999123100000010000000000000BRVVEOACNOR0103
012024030402WEGE3       010WEG         ON  ED  NM   R$  000000000372200000000037430000000003667000000000370000000000037140000000003713000000000371416153000000000004484000000000016591206400000000000000009999123100000010000000000000BRWEGEACNOR0221
012024030402RADL3       010RAIADROGASILON      NM   R$  000000000265200000000026610000000002574000000000260200000000025840000000002584000000000258718850000000000008979700000000023370743500000000000000009999123100000010000000000000BRRADLACNOR0154
012024030402RAIL3       010RUMO S.A.   ON      NM   R$  000000000222600000000022330000000002203000000000221300000000022100000000002209000000000221513749000000000007588900000000016797922200000000000000009999123100000010000000000000BRRAILACNOR9104
012024030402SYNE3       010SYN PROP TECON      NM   R$  000000000078000000000007830000000000762000000000077500000000007800000000000774000000000078001924000000000000388900000000000301604300000000000000009999123100000010000000000000BRSYNEACNOR2102
012024030402TAEE11      010TAESA       UNT     N2   R$  000000000350000000000035110000000003475000000000348600000000034790000000003478000000000348206150000000000001214500000000004234605100000000000000009999123100000010000000000000BRTAEECDAM10145
012024030402TAEE3       010TAESA       ON      N2   R$  000000000115600000000011570000000001146000000000115100000000011480000000001148000000000115100783000000000000124600000000000143480100000000000000009999123100000010000000000000BRTAEEACNOR9145
012024030402TAEE4       010TAESA       PN      N2   R$  000000000117500000000011760000000001165000000000116900000000011670000000001167000000000116901088000000000000272100000000000318202500000000000000009999123100000010000000000000BRTAEEACNPR6145
012024030402VAMO3       010VAMOS       ON      NM   R$  000000000087400000000008780000000000836000000000084500000000008400000000000840000000000084210838000000000005847900000000004945098400000000000000009999123100000010000000000000BRVAMOACNOR7105
012024030402VBBR3       010VIBRA       ON      NM   R$  000000000267000000000026790000000002638000000000266300000000026560000000002654000000000265824307000000000007499400000000019976453200000000000000009999123100000010000000000000BRVBBRACNOR1106
012024030402BMGB4       010BANCO BMG   PN      N1   R$  000000000040000000000004040000000000394000000000039700000000003980000000000396000000000039801072000000000000422600000000000167878100000000000000009999123100000010000000000000BRBMGBACNPR0108
012024030402BMIN4       010MERC INVEST PN           R$  000000000156100000000016440000000001561000000000160200000000016440000000001562000000000164900002000000000000000200000000000000320500000000000000009999123100000010000000000000BRBMINACNPR1176
012024030402BMKS3       010BIC MONARK  ON           R$  000000003586800000000366000000000035868000000003651800000000366000000000036400000000003660000005000000000000000009000000000000328668000000000000009999123100000010000000000000BRBMKSACNOR9165
012024030402BMOB3       010BEMOBI TECH ON      NM   R$  000000000136300000000013630000000001312000000000132400000000013120000000001311000000000132300909000000000000199300000000000263911000000000000000009999123100000010000000000000BRBMOBACNOR7103
012024030402BNBR3       010NORD BRASIL ON           R$  000000001165000000000116500000000011650000000001165000000000116500000000011450000000001165000002000000000000000200000000000002330000000000000000009999123100000010000000000000BRBNBRACNOR8206
012024030402BOBR4       010BOMBRIL     PN           R$  000000000024500000000002470000000000242000000000024300000000002420000000000242000000000024400031000000000000015400000000000003752900000000000000009999123100000010000000000000BRBOBRACNPR3128
012024030402YDUQ3       010YDUQS PART  ON      NM   R$  000000000206500000000020670000000001969000000000199700000000019970000000001996000000000199707835000000000002053900000000004103528800000000000000009999123100000010000000000000BRYDUQACNOR3104
012024030402ZAMP3       010ZAMP S.A.   ON           R$  000000000041900000000004200000000000397000000000040200000000003970000000000397000000000040002484000000000000901800000000000362991500000000000000009999123100000010000000000000BRZAMPACNOR5100
012024030402RECV3       010PETRORECSA  ON      NM   R$  000000000233800000000023470000000002287000000000230400000000022920000000002292000000000229904340000000000001288000000000002968644200000000000000009999123100000010000000000000BRRECVACNOR3105
012024030402REDE3       010REDE ENERGIAON           R$  000000000068400000000006840000000000673000000000067800000000006810000000000674000000000068200017000000000000002300000000000001561000000000000000009999123100000010000000000000BRREDEACNOR7126
012024030402RENT3       010LOCALIZA    ON      NM   R$  000000000524000000000052900000000005101000000000513500000000051170000000005116000000000512533139000000000010150200000000052123014200000000000000009999123100000010000000000000BRRENTACNOR4194
012024030402TPIS3       010TRIUNFO PARTON      NM   R$  000000000039900000000004040000000000391000000000039600000000003980000000000392000000000039800078000000000000027600000000000010935000000000000000009999123100000010000000000000BRTPISACNOR8118
012024030402TRAD3       010TC          ON      NM   R$  000000000009400000000000980000000000089000000000009100000000000890000000000089000000000009000335000000000000618400000000000056278800000000000000009999123100000010000000000000BRTRADACNOR3101
012024030402TRIS3       010TRISUL      ON      NM   R$  000000000049400000000005100000000000488000000000049800000000005020000000000495000000000050301380000000000000794900000000000395985700000000000000009999123100000010000000000000BRTRISACNOR4116
012024030402TRPL3       010TRAN PAULISTON      N1   R$  000000000325200000000032520000000003207000000000321600000000032070000000003207000000000327500011000000000000001400000000000004503500000000000000009999123100000010000000000000BRTRPLACNOR4185
012024030402TRPL4       010TRAN PAULISTPN      N1   R$  000000000256000000000025600000000002449000000000247800000000024530000000002452000000000245916143000000000004075100000000010101856400000000000000009999123100000010000000000000BRTRPLACNPR1185
012024030402TTEN3       0103TENTOS     ON  ED  NM   R$  000000000107200000000010950000000001061000000000107800000000010850000000001080000000000108706801000000000001522100000000001641813000000000000000009999123100000010000000000000BRTTENACNOR0103
012024030402TUPY3       010TUPY        ON      NM   R$  000000000257500000000025750000000002532000000000254200000000025400000000002533000000000254702254000000000000371700000000000945101100000000000000009999123100000010000000000000BRTUPYACNOR1183
012024030402UCAS3       010UNICASA     ON      NM   R$  000000000026600000000002710000000000263000000000026400000000002630000000000263000000000026700094000000000000136100000000000036044400000000000000009999123100000010000000000000BRUCASACNOR1113
012024030402UGPA3       010ULTRAPAR    ON      NM   R$  000000000295000000000029670000000002912000000000292800000000029200000000002920000000000292515002000000000004928000000000014433186100000000000000009999123100000010000000000000BRUGPAACNOR8154
012024030402RAIZ4       010RAIZEN      PN      N2   R$  000000000035800000000003650000000000358000000000036200000000003620000000000361000000000036212701000000000015545800000000005636766600000000000000009999123100000010000000000000BRRAIZACNPR6109
012024030402RANI3       010IRANI       ON      NM   R$  000000000088600000000009140000000000883000000000090000000000008990000000000898000000000089905628000000000001581200000000001423508400000000000000009999123100000010000000000000BRRANIACNOR5069
012024030402RAPT3       010RANDON PART ON      N1   R$  000000000107400000000010920000000001066000000000107700000000010750000000001040000000000107700025000000000000004200000000000004523500000000000000009999123100000010000000000000BRRAPTACNOR7162
012024030402RAPT4       010RANDON PART PN      N1   R$  000000000111300000000011300000000001099000000000111200000000011090000000001104000000000110904645000000000000850800000000000946454700000000000000009999123100000010000000000000BRRAPTACNPR4162
012024030402MILS3       010MILLS       ON      NM   R$  000000000127100000000012770000000001231000000000125600000000012690000000001263000000000127203168000000000000898300000000001128848200000000000000009999123100000010000000000000BRMILSACNOR2124
012024030402PRNR3       010PRINER      ON      NM   R$  000000000113600000000011460000000001102000000000111700000000011150000000001114000000000112200900000000000000183900000000000205418700000000000000009999123100000010000000000000BRPRNRACNOR4108
012024030402PSSA3       010PORTO SEGUROON      NM   R$  000000000287400000000028850000000002831000000000285700000000028500000000002850000000000285807681000000000001887900000000005394484000000000000000009999123100000010000000000000BRPSSAACNOR7153
012024030402PTBL3       010PORTOBELLO  ON      NM   R$  000000000061400000000006310000000000590000000000060200000000005900000000000590000000000059603176000000000000880300000000000530066600000000000000009999123100000010000000000000BRPTBLACNOR8132
012024030402PTNT3       010PETTENATI   ON           R$  000000000124600000000012480000000001151000000000122200000000012450000000001141000000000124500019000000000000002100000000000002568100000000000000009999123100000010000000000000BRPTNTACNOR6042
012024030402PTNT4       010PETTENATI   PN           R$  000000000078200000000007900000000000778000000000078500000000007900000000000776000000000079000012000000000000001900000000000001492500000000000000009999123100000010000000000000BRPTNTACNPR3047
012024030402FRIO3       010METALFRIO   ON      NM   R$  000000003410000000000341000000000034050000000003407500000000340500000000034100000000003960000002000000000000000200000000000006815000000000000000009999123100000010000000000000BRFRIOACNOR2111
012024030402QUAL3       010QUALICORP   ON      NM   R$  000000000025300000000002580000000000248000000000025200000000002490000000000249000000000025006813000000000004335700000000001095980700000000000000009999123100000010000000000000BRQUALACNOR6119
012024030402SOMA3       010GRUPO SOMA  ON      NM   R$  000000000070700000000007140000000000671000000000068400000000006790000000000676000000000067925904000000000017719400000000012131775200000000000000009999123100000010000000000000BRSOMAACNOR3102
012024030402SRNA3       010SERENA      ON      NM   R$  000000000089300000000008990000000000839000000000085400000000008500000000000850000000000085207474000000000001806100000000001542719600000000000000009999123100000010000000000000BRSRNAACNOR4100
012024030402STBP3       010SANTOS BRP  ON      NM   R$  000000000106500000000010730000000001035000000000104600000000010530000000001047000000000105312576000000000003843200000000004020817700000000000000009999123100000010000000000000BRSTBPACNOR3128
012024030402GEPA3       010GER PARANAP ON           R$  000000000260000000000026000000000002600000000000260000000000026000000000002607000000000272000001000000000000000100000000000000260000000000000000009999123100000010000000000000BRGEPAACNOR2152
012024030402GEPA4       010GER PARANAP PN           R$  000000000265000000000026750000000002650000000000265000000000026750000000002675000000000270000005000000000000007300000000000019347500000000000000009999123100000010000000000000BRGEPAACNPR9159
012024030402GFSA3       010GAFISA      ON      NM   R$  000000000091500000000009580000000000909000000000093600000000009300000000000929000000000093006755000000000005283600000000004947223800000000000000009999123100000010000000000000BRGFSAACNOR3123
012024030402SUZB3       010SUZANO S.A. ON      NM   R$  000000000573900000000058550000000005739000000000580700000000058450000000005844000000000584515982000000000005250400000000030490559300000000000000009999123100000010000000000000BRSUZBACNOR0129
012024030402PINE4       010PINE        PN      N2   R$  000000000046300000000004750000000000446000000000045900000000004600000000000459000000000046000823000000000000429300000000000197243000000000000000009999123100000010000000000000BRPINEACNPR8148
012024030402PLAS3       010PLASCAR PARTON           R$  000000000077000000000007700000000000770000000000077000000000007700000000000800000000000081000001000000000000000100000000000000077000000000000000009999123100000010000000000000BRPLASACNOR2106
012024030402PLPL3       010PLANOEPLANO ON      NM   R$  000000000132500000000013440000000001312000000000132900000000013300000000001322000000000133002192000000000000523100000000000695645200000000000000009999123100000010000000000000BRPLPLACNOR5104
012024030402PNVL3       010DIMED       ON      NM   R$  000000000118200000000011880000000001157000000000116600000000011640000000001163000000000116501590000000000000240500000000000280649400000000000000009999123100000010000000000000BRPNVLACNOR9205
012024030402POMO3       010MARCOPOLO   ON  EJ  N2   R$  000000000066900000000006750000000000661000000000066800000000006710000000000670000000000067101037000000000000369400000000000247009600000000000000009999123100000010000000000000BRPOMOACNOR0096
012024030402POMO4       010MARCOPOLO   PN  EJ  N2   R$  000000000086300000000008660000000000844000000000085300000000008590000000000853000000000085907813000000000003486400000000002975411000000000000000009999123100000010000000000000BRPOMOACNPR7096
012024030402RCSL3       010RECRUSUL    ON           R$  000000000017800000000001860000000000175000000000018000000000001860000000000185000000000018604332000000000004825300000000000872198700000000000000009999123100000010000000000000BRRCSLACNOR4133
012024030402RCSL4       010RECRUSUL    PN           R$  000000000007200000000000750000000000071000000000007200000000000730000000000073000000000007403656000000000005545100000000000403658600000000000000009999123100000010000000000000BRRCSLACNPR1133
012024030402RDNI3       010RNI         ON      NM   R$  000000000042500000000004590000000000424000000000044100000000004250000000000419000000000042500255000000000000047700000000000021076700000000000000009999123100000010000000000000BRRDNIACNOR9116
012024030402RDOR3       010REDE D OR   ON      NM   R$  000000000254300000000025460000000002466000000000248600000000024720000000002471000000000247408945000000000003195600000000007947200000000000000000009999123100000010000000000000BRRDORACNOR8111
012024030402PORT3       010WILSON SONS ON      NM   R$  000000000173600000000017520000000001716000000000172900000000017380000000001725000000000173800903000000000000210100000000000363328700000000000000009999123100000010000000000000BRPORTACNOR8106
012024030402POSI3       010POSITIVO TECON      NM   R$  000000000082100000000008400000000000817000000000082800000000008330000000000826000000000083303996000000000000796500000000000660044100000000000000009999123100000010000000000000BRPOSIACNOR9115
012024030402PRIO3       010PETRORIO    ON      NM   R$  000000000443000000000044680000000004411000000000443200000000044110000000004410000000000441610813000000000003566600000000015810552000000000000000009999123100000010000000000000BRPRIOACNOR1106
012024030402SLCE3       010SLC AGRICOLAON      NM   R$  000000000195000000000019500000000001916000000000192800000000019290000000001929000000000193107356000000000004444400000000008572946500000000000000009999123100000010000000000000BRSLCEACNOR2124
012024030402DESK3       010DESKTOP     ON      NM   R$  000000000144100000000014430000000001391000000000140500000000013960000000001396000000000140701017000000000000132000000000000185587100000000000000009999123100000010000000000000BRDESKACNOR2103
012024030402DEXP3       010DEXXOS PAR  ON      N1   R$  000000000126100000000012750000000001223000000000124000000000012300000000001225000000000123000379000000000000073200000000000090781700000000000000009999123100000010000000000000BRDEXPACNOR1104
012024030402DEXP4       010DEXXOS PAR  PN      N1   R$  000000000125200000000012520000000001247000000000124900000000012470000000001222000000000129300002000000000000000200000000000000249900000000000000009999123100000010000000000000BRDEXPACNPR8104
012024030402DIRR3       010DIRECIONAL  ON      NM   R$  000000000239000000000024220000000002364000000000240100000000024140000000002409000000000241505581000000000001374300000000003300853200000000000000009999123100000010000000000000BRDIRRACNOR0117
012024030402FRAS3       010FRAS-LE     ON      N1   R$  000000000166200000000016860000000001634000000000164800000000016500000000001646000000000165401166000000000000205400000000000338515500000000000000009999123100000010000000000000BRFRASACNOR0158
012024030402SMFT3       010SMART FIT   ON      NM   R$  000000000253000000000025420000000002460000000000248200000000024620000000002461000000000247406666000000000001371600000000003404537100000000000000009999123100000010000000000000BRSMFTACNOR1111
012024030402SMTO3       010SAO MARTINHOON      NM   R$  000000000269600000000027280000000002655000000000269000000000026820000000002681000000000268208211000000000001797100000000004834394100000000000000009999123100000010000000000000BRSMTOACNOR3125
012024030402SNSY3       010SANSUY      ON           R$  000000000101100000000010650000000001011000000000105100000000010500000000001034000000000106000007000000000000000700000000000000735700000000000000009999123100000010000000000000BRSNSYACNOR2113
012024030402SNSY5       010SANSUY      PNA          R$  000000000050000000000005000000000000470000000000048000000000004800000000000480000000000049400031000000000000016000000000000007685600000000000000009999123100000010000000000000BRSNSYACNPA5111
012024030402SOJA3       010BOA SAFRA   ON      NM   R$  000000000150400000000015230000000001486000000000149100000000015220000000001516000000000152200993000000000000786900000000001173681300000000000000009999123100000010000000000000BRSOJAACNOR9105
012024030402DASA3       010DASA        ON      NM   R$  000000000079300000000008000000000000770000000000077800000000007730000000000773000000000077601010000000000000193400000000000150631800000000000000009999123100000010000000000000BRDASAACNOR1122
012024030402LJQQ3       010QUERO-QUERO ON      NM   R$  000000000054800000000005550000000000528000000000053600000000005300000000000530000000000053205022000000000001730400000000000927727200000000000000009999123100000010000000000000BRLJQQACNOR5104
012024030402LOGG3       010LOG COM PROPON      NM   R$  000000000221500000000022200000000002159000000000218800000000021850000000002184000000000220001156000000000000153400000000000335644200000000000000009999123100000010000000000000BRLOGGACNOR7107
012024030402LOGN3       010LOG-IN      ON      NM   R$  000000000394600000000039600000000003826000000000389600000000039600000000003932000000000396000116000000000000015400000000000060006800000000000000009999123100000010000000000000BRLOGNACNOR3105
012024030402LPSB3       010LOPES BRASILON      NM   R$  000000000019700000000001990000000000188000000000019100000000001890000000000189000000000019100302000000000000186900000000000035797100000000000000009999123100000010000000000000BRLPSBACNOR0113
012024030402LREN3       010LOJAS RENNERON      NM   R$  000000000166200000000016620000000001609000000000162600000000016170000000001617000000000161823418000000000009856700000000016032623400000000000000009999123100000010000000000000BRLRENACNOR1219
012024030402ODPV3       010ODONTOPREV  ON      NM   R$  000000000125100000000012830000000001222000000000124700000000012380000000001224000000000123807497000000000002800600000000003492690500000000000000009999123100000010000000000000BRODPVACNOR4198
012024030402OFSA3       010OUROFINO S/AON      NM   R$  000000000220000000000022000000000002151000000000215700000000021510000000002151000000000222900005000000000000001300000000000002805000000000000000009999123100000010000000000000BROFSAACNOR7117
012024030402ONCO3       010ONCOCLINICASON      NM   R$  000000000100700000000010250000000000978000000000098800000000009780000000000978000000000098008434000000000003209200000000003172411000000000000000009999123100000010000000000000BRONCOACNOR6100
012024030402OPCT3       010OCEANPACT   ON      NM   R$  000000000057800000000005780000000000565000000000057100000000005700000000000570000000000057502028000000000000471800000000000269484900000000000000009999123100000010000000000000BROPCTACNOR0100
012024030402ORVR3       010ORIZON      ON      NM   R$  000000000337800000000033890000000003319000000000336100000000033760000000003375000000000337601953000000000000512000000000001721246700000000000000009999123100000010000000000000BRORVRACNOR0101
012024030402PCAR3       010P.ACUCAR-CBDON      NM   R$  000000000038800000000003900000000000359000000000036700000000003600000000000360000000000036113727000000000021442400000000007884790900000000000000009999123100000010000000000000BRPCARACNOR3167
012024030402ASAI3       010ASSAI       ON      NM   R$  000000000141100000000014210000000001391000000000139800000000014030000000001403000000000140511715000000000006926800000000009689890800000000000000009999123100000010000000000000BRASAIACNOR0106
012024030402ATOM3       010ATOMPAR     ON           R$  000000000019300000000001940000000000190000000000019100000000001910000000000190000000000019300023000000000000003400000000000000649900000000000000009999123100000010000000000000BRATOMACNOR1106
012024030402AURE3       010AUREN       ON  ED  NM   R$  000000000124500000000012450000000001219000000000122800000000012190000000001219000000000122511597000000000006936300000000008518797100000000000000009999123100000010000000000000BRAUREACNOR9104
012024030402AVLL3       010ALPHAVILLE  ON      NM   R$  000000000046100000000004610000000000450000000000045000000000004500000000000439000000000045000007000000000000114700000000000051620500000000000000009999123100000010000000000000BRAVLLACNOR5103
012024030402AZEV3       010AZEVEDO     ON           R$  000000000015100000000001510000000000142000000000014500000000001440000000000143000000000014400516000000000000451100000000000065746700000000000000009999123100000010000000000000BRAZEVACNOR0121
012024030402BBSE3       010BBSEGURIDADEON      NM   R$  000000000329400000000033260000000003291000000000330300000000032910000000003291000000000330408085000000000002751200000000009088159700000000000000009999123100000010000000000000BRBBSEACNOR5124
012024030402BPAC11      010BTGP BANCO  UNT     N2   R$  000000000360100000000036300000000003548000000000359000000000036020000000003600000000000361017029000000000005068800000000018200793500000000000000009999123100000010000000000000BRBPACUNT006118
012024030402BPAC3       010BTGP BANCO  ON      N2   R$  000000000180000000000018000000000001709000000000174100000000017600000000001729000000000181300056000000000000007000000000000012191400000000000000009999123100000010000000000000BRBPACACNOR7133
012024030402BPAC5       010BTGP BANCO  PNA     N2   R$  000000000092300000000009290000000000911000000000091800000000009230000000000910000000000092500046000000000000006800000000000006243100000000000000009999123100000010000000000000BRBPACACNPA0133
012024030402CPFE3       010CPFL ENERGIAON      NM   R$  000000000353900000000035500000000003490000000000350000000000034900000000003490000000000351306621000000000001510100000000005286163700000000000000009999123100000010000000000000BRCPFEACNOR0136
012024030402CPLE3       010COPEL       ON      N2   R$  000000000090700000000009080000000000897000000000090200000000009020000000000901000000000090512583000000000009674800000000008728872100000000000000009999123100000010000000000000BRCPLEACNOR8148
012024030402CPLE5       010COPEL       PNA     N2   R$  000000000210400000000021500000000002103000000000212600000000021490000000002027000000000214800006000000000000000600000000000001275800000000000000009999123100000010000000000000BRCPLEACNPA1146
012024030402CPLE6       010COPEL       PNB     N2   R$  000000000100500000000010140000000001001000000000100700000000010080000000001008000000000101119380000000000013745000000000013848834400000000000000009999123100000010000000000000BRCPLEACNPB9145
012024030402CRFB3       010CARREFOUR BRON      NM   R$  000000000117000000000011700000000001126000000000113700000000011370000000001137000000000113811176000000000003897700000000004435301400000000000000009999123100000010000000000000BRCRFBACNOR2116
012024030402EKTR4       010ELEKTRO     PN           R$  000000000390500000000039900000000003901000000000391600000000039900000000003805000000000398500004000000000000000700000000000002741200000000000000009999123100000010000000000000BREKTRACNPR7159
012024030402ALPK3       010ESTAPAR     ON      NM   R$  000000000045700000000004580000000000438000000000044600000000004380000000000438000000000044000740000000000000158700000000000070795000000000000000009999123100000010000000000000BRALPKACNOR9101
012024030402ALUP11      010ALUPAR      UNT     N2   R$  000000000297900000000029890000000002950000000000297100000000029600000000002960000000000297403912000000000000704500000000002093422900000000000000009999123100000010000000000000BRALUPCDAM15117
012024030402ALUP3       010ALUPAR      ON      N2   R$  000000000099200000000009960000000000985000000000099200000000009850000000000980000000000099700096000000000000010800000000000010714400000000000000009999123100000010000000000000BRALUPACNOR8117
012024030402ALUP4       010ALUPAR      PN      N2   R$  000000000099600000000010400000000000980000000000098900000000009840000000000981000000000098800153000000000000024600000000000024339400000000000000009999123100000010000000000000BRALUPACNPR5117
012024030402AMAR3       010LOJAS MARISAON      NM   R$  000000000022900000000002330000000000226000000000022700000000002270000000000226000000000022800662000000000000912500000000000207783400000000000000009999123100000010000000000000BRAMARACNOR4114
012024030402AMBP3       010AMBIPAR     ON      NM   R$  000000000153400000000015390000000001507000000000152300000000015330000000001525000000000153302369000000000000504100000000000768179100000000000000009999123100000010000000000000BRAMBPACNOR6103
012024030402ANIM3       010ANIMA       ON      NM   R$  000000000052700000000005330000000000490000000000050300000000004960000000000495000000000049614825000000000009016600000000004540255300000000000000009999123100000010000000000000BRANIMACNOR6107
012024030402APER3       010ALPER S.A.  ON           R$  000000000435600000000043560000000003966000000000413900000000039660000000003810000000000399200031000000000000003100000000000012830900000000000000009999123100000010000000000000BRAPERACNOR9106
012024030402ELET3       010ELETROBRAS  ON      N1   R$  000000000435100000000043740000000004310000000000435100000000043600000000004359000000000436116858000000000004174800000000018166936700000000000000009999123100000010000000000000BRELETACNOR6159
012024030402ELET6       010ELETROBRAS  PNB     N1   R$  000000000482800000000048300000000004774000000000480900000000048110000000004810000000000481104443000000000001031100000000004958628400000000000000009999123100000010000000000000BRELETACNPB7076
012024030402HBOR3       010HELBOR      ON      NM   R$  000000000030100000000003110000000000292000000000030200000000002920000000000292000000000029600915000000000000759500000000000229588200000000000000009999123100000010000000000000BRHBORACNOR3117
012024030402HBRE3       010HBR REALTY  ON      NM   R$  000000000055000000000005700000000000542000000000055300000000005530000000000550000000000055302753000000000001414300000000000782442900000000000000009999123100000010000000000000BRHBREACNOR4100
012024030402HBSA3       010HIDROVIAS   ON      NM   R$  000000000037400000000003760000000000362000000000036600000000003620000000000362000000000036307925000000000005169600000000001893326300000000000000009999123100000010000000000000BRHBSAACNOR0100
012024030402HBTS5       010HABITASUL   PNA          R$  000000000388000000000038800000000003879000000000387900000000038790000000003350000000000387000003000000000000000300000000000001163800000000000000009999123100000010000000000000BRHBTSACNPA3127
012024030402FESA3       010FERBASA     ON      N1   R$  000000000141900000000014950000000001419000000000146800000000014950000000001402000000000157500005000000000000000500000000000000734300000000000000009999123100000010000000000000BRFESAACNOR8187
012024030402FESA4       010FERBASA     PN      N1   R$  000000000097700000000009820000000000935000000000094700000000009410000000000941000000000094703671000000000001064400000000001008378000000000000000009999123100000010000000000000BRFESAACNPR5083
012024030402FHER3       010FER HERINGERON      NM   R$  000000000059200000000005990000000000573000000000057800000000005730000000000573000000000058500053000000000000019800000000000011453800000000000000009999123100000010000000000000BRFHERACNOR5103
012024030402FIQE3       010UNIFIQUE    ON      NM   R$  000000000040600000000004160000000000401000000000040900000000004070000000000407000000000040802915000000000000546000000000000223315800000000000000009999123100000010000000000000BRFIQEACNOR5106
012024030402FLRY3       010FLEURY      ON      NM   R$  000000000161200000000016160000000001580000000000159000000000015890000000001588000000000158905249000000000001690600000000002688879000000000000000009999123100000010000000000000BRFLRYACNOR5137
012024030402HYPE3       010HYPERA      ON  EJ  NM   R$  000000000343500000000034490000000003363000000000338500000000033660000000003364000000000336608033000000000002056200000000006961115600000000000000009999123100000010000000000000BRHYPEACNOR0138
012024030402JSLG3       010JSL         ON      NM   R$  000000000118200000000012090000000001178000000000119000000000011860000000001184000000000118601544000000000000283700000000000337633900000000000000009999123100000010000000000000BRJSLGACNOR2121
012024030402MAPT4       010CEMEPE      PN           R$  000000000058600000000005860000000000559000000000058000000000005590000000000550000000000058500006000000000000001000000000000000580500000000000000009999123100000010000000000000BRMAPTACNPR5106
012024030402MATD3       010MATER DEI   ON      NM   R$  000000000064100000000006430000000000615000000000062000000000006170000000000617000000000062001565000000000000496900000000000308335900000000000000009999123100000010000000000000BRMATDACNOR4103
012024030402MBLY3       010MOBLY       ON      NM   R$  000000000022900000000002300000000000208000000000021400000000002120000000000212000000000021402530000000000002221900000000000476919100000000000000009999123100000010000000000000BRMBLYACNOR5100
012024030402MDIA3       010M.DIASBRANCOON      NM   R$  000000000405000000000040760000000004001000000000401900000000040010000000003997000000000401403493000000000000589100000000002367905200000000000000009999123100000010000000000000BRMDIAACNOR7133
012024030402MDNE3       010MOURA DUBEUXON      NM   R$  000000000128900000000012890000000001229000000000124600000000012320000000001231000000000124301193000000000000309200000000000385484900000000000000009999123100000010000000000000BRMDNEACNOR9100
012024030402MEAL3       010IMC S/A     ON      NM   R$  000000000021800000000002210000000000209000000000021400000000002180000000000216000000000021800902000000000001256600000000000270012100000000000000009999123100000010000000000000BRMEALACNOR9105
012024030402KEPL3       010KEPLER WEBERON      NM   R$  000000000097600000000009980000000000971000000000097900000000009800000000000979000000000098005827000000000001231200000000001206359400000000000000009999123100000010000000000000BRKEPLACNOR1061
012024030402KLBN11      010KLABIN S/A  UNT     N2   R$  000000000226000000000022600000000002230000000000224300000000022510000000002250000000000225108530000000000002056100000000004612487100000000000000009999123100000010000000000000BRKLBNCDAM18140
012024030402KLBN3       010KLABIN S/A  ON      N2   R$  000000000044800000000004500000000000445000000000044700000000004480000000000448000000000045000883000000000000340700000000000152488400000000000000009999123100000010000000000000BRKLBNACNOR2168
012024030402MELK3       010MELNICK     ON      NM   R$  000000000048600000000004860000000000472000000000048000000000004810000000000481000000000048600280000000000000097100000000000046619100000000000000009999123100000010000000000000BRMELKACNOR8110
012024030402MERC4       010MERC FINANC PN           R$  000000000090100000000009010000000000901000000000090100000000009010000000000901000000000093500002000000000000000200000000000000180200000000000000009999123100000010000000000000BRMERCACNPR9180
012024030402MGEL4       010MANGELS INDLPN           R$  000000000133000000000013300000000001291000000000131100000000013280000000001301000000000135000008000000000000001000000000000001311500000000000000009999123100000010000000000000BRMGELACNPR3147
012024030402MGLU3       010MAGAZ LUIZA ON      NM   R$  000000000022100000000002240000000000210000000000021500000000002130000000000212000000000021319028000000000109096500000000023471087300000000000000009999123100000010000000000000BRMGLUACNOR2123
012024030402KLBN4       010KLABIN S/A  PN      N2   R$  000000000044800000000004510000000000445000000000044700000000004480000000000448000000000044902249000000000001387500000000000621345100000000000000009999123100000010000000000000BRKLBNACNPR9168
012024030402BAHI3       010BAHEMA      ON      MA   R$  000000000066500000000006650000000000625000000000064700000000006250000000000620000000000063500020000000000000005600000000000003625100000000000000009999123100000010000000000000BRBAHIACNOR1074
012024030402BALM4       010BAUMER      PN           R$  000000000098100000000010250000000000980000000000098800000000009800000000000980000000000104500004000000000000000600000000000000592800000000000000009999123100000010000000000000BRBALMACNPR2056
012024030402BAZA3       010AMAZONIA    ON           R$  000000000900600000000090590000000008811000000000890100000000089000000000008900000000000900000041000000000000004800000000000042725100000000000000009999123100000010000000000000BRBAZAACNOR0178
012024030402BBAS3       010BRASIL      ON  EX  NM   R$  000000000580200000000058210000000005747000000000576800000000057680000000005767000000000577018255000000000006495100000000037470022700000000000000009999123100000010000000000000BRBBASACNOR3320
012024030402BHIA3       010CASAS BAHIA ON      NM   R$  000000000097500000000009980000000000963000000000097900000000009840000000000981000000000098407988000000000004339200000000004248431200000000000000009999123100000010000000000000BRBHIAACNOR1101
012024030402BRBI11      010BR PARTNERS UNT     N2   R$  000000000162900000000016300000000001587000000000161300000000016030000000001601000000000160301980000000000000312600000000000504459700000000000000009999123100000010000000000000BRBRBICDAM10107
012024030402BRFS3       010BRF SA      ON      NM   R$  000000000149100000000015390000000001483000000000151700000000015300000000001530000000000153124649000000000010251100000000015555580600000000000000009999123100000010000000000000BRBRFSACNOR8121
012024030402MWET4       010WETZEL S/A  PN           R$  000000000064700000000006470000000000624000000000062600000000006240000000000583000000000060800004000000000000001100000000000000688700000000000000009999123100000010000000000000BRMWETACNPR3118
012024030402MYPK3       010IOCHP-MAXIONON      NM   R$  000000000127800000000013000000000001267000000000128600000000012950000000001295000000000129602409000000000000544900000000000701214600000000000000009999123100000010000000000000BRMYPKACNOR7153
012024030402BRGE11      010ALFA CONSORCPNE          R$  000000000130000000000013110000000001300000000000130700000000013110000000001311000000000140000002000000000000000300000000000000392200000000000000009999123100000010000000000000BRBRGEACNPE1112
012024030402BRGE12      010ALFA CONSORCPNF          R$  000000000140000000000014000000000001400000000000140000000000014000000000001190000000000140000001000000000000000100000000000000140000000000000000009999123100000010000000000000BRBRGEACNPF8098
012024030402BRGE3       010ALFA CONSORCON           R$  000000000133900000000013390000000001339000000000133900000000013390000000001339000000000179900003000000000000000400000000000000535600000000000000009999123100000010000000000000BRBRGEACNOR6204
012024030402CSED3       010CRUZEIRO EDUON      NM   R$  000000000047300000000004730000000000431000000000044100000000004350000000000435000000000044002622000000000000880700000000000388977000000000000000009999123100000010000000000000BRCSEDACNOR9104
012024030402CSMG3       010COPASA      ON      NM   R$  000000000208800000000021000000000002011000000000203900000000020120000000002012000000000201907486000000000001854300000000003782552000000000000000009999123100000010000000000000BRCSMGACNOR5171
012024030402CSNA3       010SID NACIONALON           R$  000000000170600000000017140000000001665000000000167600000000016680000000001668000000000167008636000000000004615700000000007737140500000000000000009999123100000010000000000000BRCSNAACNOR6260
012024030402ENEV3       010ENEVA       ON      NM   R$  000000000126100000000012620000000001197000000000121500000000012190000000001218000000000122718902000000000015415100000000018736304600000000000000009999123100000010000000000000BRENEVACNOR8105
012024030402ENGI11      010ENERGISA    UNT     N2   R$  000000000503000000000050330000000004928000000000496000000000049870000000004986000000000499510887000000000001790300000000008880138400000000000000009999123100000010000000000000BRENGICDAM16135
012024030402ENGI3       010ENERGISA    ON      N2   R$  000000000164200000000016420000000001611000000000161700000000016130000000001613000000000162200044000000000000005000000000000008088800000000000000009999123100000010000000000000BRENGIACNOR0145
012024030402ENGI4       010ENERGISA    PN      N2   R$  000000000085000000000008880000000000829000000000084100000000008350000000000835000000000084800071000000000000012400000000000010429300000000000000009999123100000010000000000000BRENGIACNPR7141
012024030402ENJU3       010ENJOEI      ON      NM   R$  000000000018000000000001890000000000173000000000018200000000001870000000000186000000000018700618000000000000990200000000000181067200000000000000009999123100000010000000000000BRENJUACNOR9100
012024030402EPAR3       010EMBPAR S/A  ON           R$  000000000095400000000009630000000000943000000000095800000000009590000000000946000000000095900023000000000000006400000000000006132200000000000000009999123100000010000000000000BREPARACNOR9104
012024030402NEOE3       010NEOENERGIA  ON      NM   R$  000000000212700000000021590000000002109000000000213000000000021200000000002119000000000212006616000000000001332300000000002839107700000000000000009999123100000010000000000000BRNEOEACNOR3121
012024030402EQPA3       010EQTL PARA   ON           R$  000000000079500000000007960000000000791000000000079300000000007910000000000791000000000080400007000000000000004700000000000003727300000000000000009999123100000010000000000000BREQPAACNOR1110
012024030402EQTL3       010EQUATORIAL  ON      NM   R$  000000000338700000000033890000000003345000000000336700000000033710000000003371000000000337413601000000000004566400000000015375852400000000000000009999123100000010000000000000BREQTLACNOR0129
012024030402IGTI11      010IGUATEMI S.AUNT ED  N1   R$  000000000234800000000023650000000002319000000000234300000000023400000000002340000000000234909845000000000001992200000000004668887800000000000000009999123100000010000000000000BRIGTICDAM16105
012024030402IGTI3       010IGUATEMI S.AON  ED  N1   R$  000000000029700000000002990000000000291000000000029300000000002910000000000290000000000029100057000000000000016200000000000004750500000000000000009999123100000010000000000000BRIGTIACNOR8105
012024030402INEP3       010INEPAR      ON           R$  000000000034200000000003440000000000324000000000033300000000003280000000000328000000000032900156000000000000060500000000000020196000000000000000009999123100000010000000000000BRINEPACNOR1143
012024030402INEP4       010INEPAR      PN           R$  000000000030100000000003120000000000294000000000030200000000003020000000000298000000000030200181000000000000035500000000000010752400000000000000009999123100000010000000000000BRINEPACNPR8143
012024030402INTB3       010INTELBRAS   ON      NM   R$  000000000211200000000021480000000002094000000000211300000000021340000000002117000000000213505567000000000001499100000000003168181300000000000000009999123100000010000000000000BRINTBACNOR9109
012024030402IRBR3       010IRBBRASIL REON  ATZ NM   R$  000000000400000000000042780000000003974000000000418200000000042730000000004269000000000427316554000000000004781700000000019999610800000000000000009999123100000010000000000000BRIRBRACNOR4111
012024030402NGRD3       010NEOGRID     ON      NM   R$  000000000011300000000001160000000000110000000000011100000000001120000000000111000000000011200467000000000000457100000000000050955800000000000000009999123100000010000000000000BRNGRDACNOR3103
012024030402NINJ3       010GETNINJAS   ON      NM   R$  000000000050600000000005080000000000506000000000050600000000005060000000000506000000000050800401000000000000091000000000000046077300000000000000009999123100000010000000000000BRNINJACNOR5101
012024030402NORD3       010NORDON MET  ON           R$  000000000115100000000011690000000001119000000000115300000000011190000000001100000000000111900005000000000000000700000000000000807700000000000000009999123100000010000000000000BRNORDACNOR7135
012024030402NTCO3       010GRUPO NATURAON      NM   R$  000000000166200000000016620000000001605000000000162200000000016150000000001615000000000162021513000000000007490200000000012149392900000000000000009999123100000010000000000000BRNTCOACNOR5104
012024030402ALPA3       010ALPARGATAS  ON      N1   R$  000000000102400000000010790000000001024000000000104200000000010790000000001049000000000107900037000000000000006000000000000006253300000000000000009999123100000010000000000000BRALPAACNOR0231
012024030402ALPA4       010ALPARGATAS  PN      N1   R$  000000000103000000000010300000000000981000000000099100000000009810000000000981000000000098704100000000000002037600000000002019790200000000000000009999123100000010000000000000BRALPAACNPR7232
012024030402LUPA3       010LUPATECH    ON      NM   R$  000000000021400000000002250000000000206000000000021500000000002060000000000206000000000021200510000000000000324500000000000069788500000000000000009999123100000010000000000000BRLUPAACNOR8112
012024030402LVTC3       010WDC NETWORKSON      NM   R$  000000000039000000000003940000000000386000000000039000000000003930000000000386000000000039300061000000000000010500000000000004102500000000000000009999123100000010000000000000BRLVTCACNOR4102
012024030402LWSA3       010LWSA        ON      NM   R$  000000000057500000000005790000000000554000000000056100000000005640000000000560000000000056509441000000000004718700000000002648340800000000000000009999123100000010000000000000BRLWSAACNOR8103
012024030402PDGR3       010PDG REALT   ON      NM   R$  000000000003100000000000320000000000030000000000003000000000000300000000000030000000000003100282000000000000846800000000000025666600000000000000009999123100000010000000000000BRPDGRACNOR8118
012024030402PDTC3       010PADTEC      ON      NM   R$  000000000035400000000003640000000000341000000000034900000000003500000000000350000000000035700265000000000000137500000000000048044700000000000000009999123100000010000000000000BRPDTCACNOR3100
012024030402PETR3       010PETROBRAS   ON      N2   R$  000000000413100000000041840000000004088000000000412000000000041050000000004103000000000410517622000000000008429000000000034735416300000000000000009999123100000010000000000000BRPETRACNOR9202
012024030402PETR4       010PETROBRAS   PN  ATZ N2   R$  000000000402700000000040750000000004002000000000402800000000040080000000004007000000000400940648000000000021988000000000088586688000000000000000009999123100000010000000000000BRPETRACNPR6210
012024030402AZEV4       010AZEVEDO     PN           R$  000000000014700000000001480000000000136000000000014100000000001390000000000139000000000014001089000000000002517500000000000357310800000000000000009999123100000010000000000000BRAZEVACNPR7121
012024030402AZUL4       010AZUL        PN      N2   R$  000000000123000000000012330000000001188000000000119900000000011900000000001190000000000119209488000000000009338600000000011203562600000000000000009999123100000010000000000000BRAZULACNPR4102
012024030402B3SA3       010B3          ON  ED  NM   R$  000000000124200000000012440000000001226000000000123400000000012300000000001229000000000123033720000000000032530100000000040172502600000000000000009999123100000010000000000000BRB3SAACNOR6131
012024030402BEEF3       010MINERVA     ON      NM   R$  000000000068200000000006820000000000666000000000067200000000006710000000000670000000000067106551000000000008780100000000005904507400000000000000009999123100000010000000000000BRBEEFACNOR6116
012024030402BEES3       010BANESTES    ON  EJ       R$  000000000094600000000009500000000000940000000000094500000000009430000000000942000000000094600084000000000000016500000000000015596900000000000000009999123100000010000000000000BRBEESACNOR9388
012024030402BEES4       010BANESTES    PN  EJ       R$  000000000100100000000010500000000000997000000000100900000000010000000000000997000000000100000045000000000000004900000000000004947800000000000000009999123100000010000000000000BRBEESACNPR6313
012024030402BGIP3       010BANESE      ON  EJ       R$  000000000279100000000027910000000002791000000000279100000000027910000000000000000000000290000002000000000000000200000000000000558200000000000000009999123100000010000000000000BRBGIPACNOR1207
012024030402BGIP4       010BANESE      PN  EJ       R$  000000000272000000000027210000000002680000000000271100000000027140000000002672000000000271400006000000000000000600000000000001626900000000000000009999123100000010000000000000BRBGIPACNPR8207
012024030402BPAN4       010BANCO PAN   PN      N1   R$  000000000089400000000009050000000000874000000000088400000000008740000000000873000000000087704996000000000001439700000000001273730000000000000000009999123100000010000000000000BRBPANACNPR1115
012024030402BRAP3       010BRADESPAR   ON      N1   R$  000000000200100000000020200000000001988000000000199800000000020000000000001988000000000200000401000000000000082100000000000164056200000000000000009999123100000010000000000000BRBRAPACNOR5147
012024030402BRAP4       010BRADESPAR   PN      N1   R$  000000000208400000000021100000000002062000000000207600000000020670000000002066000000000206710870000000000005815200000000012074505500000000000000009999123100000010000000000000BRBRAPACNPR2147
012024030402CRIV3       010ALFA FINANC ON           R$  000000000069300000000006930000000000693000000000069300000000006930000000000693000000000069500001000000000000000100000000000000069300000000000000009999123100000010000000000000BRCRIVACNOR4195
012024030402CRIV4       010ALFA FINANC PN           R$  000000000066500000000006680000000000650000000000066700000000006680000000000668000000000067500010000000000000010200000000000006803900000000000000009999123100000010000000000000BRCRIVACNPR1211
012024030402CRPG5       010CRISTAL     PNA          R$  000000000360300000000036990000000003601000000000362700000000036010000000003551000000000363900023000000000000002700000000000009792900000000000000009999123100000010000000000000BRCRPGACNPA3118
012024030402CRPG6       010CRISTAL     PNB          R$  000000000350100000000035760000000003501000000000352000000000035760000000003513000000000357600011000000000000001400000000000004929200000000000000009999123100000010000000000000BRCRPGACNPB1118
012024030402CSAN3       010COSAN       ON      NM   R$  000000000167900000000016900000000001660000000000166900000000016600000000001660000000000166123211000000000006660900000000011120298900000000000000009999123100000010000000000000BRCSANACNOR6124
012024030402ELMD3       010ELETROMIDIA ON      NM   R$  000000000159700000000016050000000001585000000000159700000000015890000000001589000000000160900319000000000000040700000000000065009900000000000000009999123100000010000000000000BRELMDACNOR3100
012024030402EMAE4       010EMAE        PN           R$  000000000690000000000071310000000006900000000000705800000000071270000000006900000000000712500041000000000000006500000000000045880600000000000000009999123100000010000000000000BREMAEACNPR1124
012024030402EMBR3       010EMBRAER     ON      NM   R$  000000000259800000000027100000000002580000000000266000000000027000000000002700000000000270224360000000000020792900000000055327527100000000000000009999123100000010000000000000BREMBRACNOR4191
012024030402ENAT3       010ENAUTA PART ON      NM   R$  000000000259400000000025980000000002460000000000250500000000025140000000002509000000000251409025000000000002466800000000006181346500000000000000009999123100000010000000000000BRENATACNOR0104
012024030402IFCM3       010INFRACOMM   ON      NM   R$  000000000013700000000001400000000000122000000000012900000000001220000000000122000000000012316254000000000021265200000000002746740500000000000000009999123100000010000000000000BRIFCMACNOR8101
012024030402KRSA3       010KORA SAUDE  ON      NM   R$  000000000009100000000000930000000000089000000000009000000000000890000000000089000000000009000167000000000000321500000000000029100900000000000000009999123100000010000000000000BRKRSAACNOR0100
012024030402LAND3       010TERRASANTAPAON      NM   R$  000000000167100000000016940000000001639000000000165700000000016940000000001647000000000169800089000000000000015200000000000025186900000000000000009999123100000010000000000000BRLANDACNOR9102
012024030402LAVV3       010LAVVI       ON      NM   R$  000000000081100000000008250000000000804000000000081400000000008250000000000822000000000082501871000000000000674700000000000549416200000000000000009999123100000010000000000000BRLAVVACNOR4110
012024030402LEVE3       010METAL LEVE  ON      NM   R$  000000000363600000000036880000000003570000000000361200000000036180000000003612000000000361902543000000000000501200000000001810542900000000000000009999123100000010000000000000BRLEVEACNOR2196
012024030402BRSR3       010BANRISUL    ON      N1   R$  000000000147600000000014990000000001452000000000146500000000014580000000001458000000000148000065000000000000009800000000000014361500000000000000009999123100000010000000000000BRBRSRACNOR3185
012024030402BRSR6       010BANRISUL    PNB     N1   R$  000000000149300000000015170000000001479000000000149100000000014830000000001482000000000148305133000000000001819900000000002714259400000000000000009999123100000010000000000000BRBRSRACNPB4188
012024030402BSLI3       010BRB BANCO   ON           R$  000000000113500000000011410000000001110000000000112800000000011410000000001120000000000114100010000000000000001200000000000001354500000000000000009999123100000010000000000000BRBSLIACNOR5192
012024030402BSLI4       010BRB BANCO   PN           R$  000000000114900000000011490000000001149000000000114900000000011490000000001095000000000114800001000000000000000100000000000000114900000000000000009999123100000010000000000000BRBSLIACNPR2192
012024030402CAMB3       010CAMBUCI     ON           R$  000000000115900000000011610000000001126000000000114200000000011260000000001126000000000113900201000000000000050200000000000057353100000000000000009999123100000010000000000000BRCAMBACNOR4127
012024030402CAML3       010CAMIL       ON  EDJ NM   R$  000000000086200000000008730000000000843000000000085400000000008560000000000855000000000086002206000000000000468300000000000400130500000000000000009999123100000010000000000000BRCAMLACNOR3127
012024030405BZLI11      010FII BRREALTYCI           R$  000000000197800000000019780000000001978000000000197800000000019780000000001701000000000197900001000000000000000004000000000000007912000000000000009999123100000010000000000000BRBZLICTF003100
012024030407TXRX4       010TEX RENAUX  PN           R$  000000000026700000000002700000000000267000000000026700000000002700000000000270000000000028100002000000000000000500000000000000133800000000000000009999123100000010000000000000BRTXRXACNPR0142
012024030407NUTR3       010NUTRIPLANT  ON      MA   R$  000000000053000000000005470000000000530000000000053700000000005470000000000533000000000054700015000000000000001500000000000000805500000000000000009999123100000010000000000000BRNUTRACNOR0104
012024030408RNEW11      010RENOVA      UNT     N2   R$  000000000038000000000003840000000000378000000000038000000000003840000000000377000000000038400023000000000000004800000000000001824400000000000000009999123100000010000000000000BRRNEWCDAM15110
012024030408RNEW3       010RENOVA      ON      N2   R$  000000000012700000000001270000000000122000000000012400000000001260000000000124000000000012600212000000000000107900000000000013427500000000000000009999123100000010000000000000BRRNEWACNOR8110
012024030408RNEW4       010RENOVA      PN      N2   R$  000000000012600000000001300000000000125000000000012700000000001290000000000127000000000012900338000000000000280600000000000035801700000000000000009999123100000010000000000000BRRNEWACNPR5110
012024030408RPMG3       010PET MANGUINHON           R$  000000000020500000000002060000000000203000000000020400000000002030000000000202000000000020300016000000000000008400000000000001714900000000000000009999123100000010000000000000BRRPMGACNOR9194
012024030408RSID3       010ROSSI RESID ON      NM   R$  000000000038600000000003870000000000376000000000037900000000003820000000000376000000000038300058000000000000031300000000000011883200000000000000009999123100000010000000000000BRRSIDACNOR8120
012024030408JFEN3       010JOAO FORTES ON           R$  000000000018000000000001830000000000179000000000018100000000001800000000000180000000000018100019000000000000004500000000000000814500000000000000009999123100000010000000000000BRJFENACNOR0058
012024030408TEKA4       010TEKA        PN           R$  000000000380000000000039900000000003800000000000388000000000039500000000003237000000000418500012000000000000003100000000000012030100000000000000009999123100000010000000000000BRTEKAACNPR3140
012024030408ETER3       010ETERNIT     ON      NM   R$  000000000068700000000007020000000000676000000000068500000000006800000000000679000000000068001288000000000000451100000000000309133800000000000000009999123100000010000000000000BRETERACNOR3242
012024030408FRTA3       010POMIFRUTAS  ON      NM   R$  000000000014000000000001440000000000138000000000014000000000001380000000000138000000000014200033000000000000013700000000000001923200000000000000009999123100000010000000000000BRFRTAACNOR8103
012024030408PMAM3       010PARANAPANEMAON      NM   R$  000000000038400000000003840000000000373000000000037700000000003750000000000375000000000037700098000000000000019900000000000007505500000000000000009999123100000010000000000000BRPMAMACNOR3038
012024030408OIBR3       010OI          ON      N1   R$  000000000010400000000001060000000000102000000000010300000000001020000000000101000000000010202653000000000013016500000000001345204300000000000000009999123100000010000000000000BROIBRACNOR1110
012024030408OIBR4       010OI          PN      N1   R$  000000000020600000000002070000000000201000000000020400000000002010000000000201000000000020300141000000000000082800000000000016919800000000000000009999123100000010000000000000BROIBRACNPR8109
012024030408OSXB3       010OSX BRASIL  ON      NM   R$  000000000049900000000005000000000000481000000000048800000000004860000000000483000000000048600027000000000000008100000000000003954700000000000000009999123100000010000000000000BROSXBACNOR8109
012024030408ATMP3       010ATMASA      ON           R$  000000000029600000000002990000000000292000000000029400000000002920000000000292000000000029900018000000000000003500000000000001029700000000000000009999123100000010000000000000BRATMPACNOR8100
012024030408AMER3       010AMERICANAS  ON      NM   R$  000000000005400000000000550000000000052000000000005300000000000540000000000054000000000005503448000000000012478000000000000671980400000000000000009999123100000010000000000000BRAMERACNOR6101
012024030408HOOT4       010HOTEIS OTHONPN           R$  000000000028800000000002880000000000284000000000028500000000002840000000000284000000000028600003000000000000000500000000000000142800000000000000009999123100000010000000000000BRHOOTACNPR9015
012024030408NEXP3       010NEXPE       ON      NM   R$  000000000048300000000004830000000000468000000000047000000000004710000000000465000000000047100019000000000000005100000000000002400900000000000000009999123100000010000000000000BRNEXPACNOR0101
012024030408LIGT3       010LIGHT S/A   ON      NM   R$  000000000053400000000005440000000000511000000000052100000000005130000000000513000000000051605525000000000001019500000000000531899000000000000000009999123100000010000000000000BRLIGTACNOR2124
012024030410ABCB10      010ABC BRASIL  PN  REC N2   R$  000000000232300000000025000000000002314000000000240000000000023700000000001900000000000000000010000000000000001100000000000002640400000000000000009999123100000010000000000000BRABCBR19PR1144
012024030410VIVR12      010VIVER       DIR     NM   R$  000000000000200000000000030000000000001000000000000200000000000020000000000002000000000000300083000000000000124600000000000000251700000000000000009999123100000010000000000000BRVIVRD02M16121
012024030410XPIE12      010FIP XP INFRADIR          R$  000000000000200000000000030000000000001000000000000100000000000020000000000001000000000000200308000000000000027699000000000000046249000000000000009999123100000010000000000000BRXPIED04M15125
012024030410RENT9       010LOCALIZA    ON  REC NM   R$  000000000512000000000051400000000004961000000000509100000000049610000000004960000000000000000024000000000000002400000000000012219300000000000000009999123100000010000000000000BRRENTR05OR0193
012024030410LJQQ9       010QUERO-QUERO ON  REC NM   R$  000000000052500000000005460000000000525000000000053700000000005450000000000505000000000054300006000000000000000800000000000000429600000000000000009999123100000010000000000000BRLJQQR01OR0103
012024030410MGLU9       010MAGAZ LUIZA ON  REC NM   R$  000000000022200000000002220000000000207000000000021100000000002070000000000206000000000020700243000000000000258800000000000054810200000000000000009999123100000010000000000000BRMGLUR01OR7122
012024030412DPRO11      010FII DEVA PROCI           R$  000000000077800000000008040000000000777000000000078600000000007970000000000776000000000079500018000000000000000041000000000000032232000000000000009999123100000010000000000000BRDPROCTF005120
012024030412DRIT11      010FII MTGESTAOCI           R$  000000000769900000000077000000000007698000000000769800000000077000000000007551000000000800000005000000000000000017000000000000130882000000000000009999123100000010000000000000BRDRITCTF009249
012024030412DVFF11      010FII DEVA FOFCI           R$  000000000080000000000008080000000000790000000000079500000000008080000000000791000000000080802355000000000000013054000000000010380851000000000000009999123100000010000000000000BRDVFFCTF006134
012024030412EDGA11      010FII GALERIA CI  ER       R$  000000000202900000000020580000000002029000000000203800000000020300000000002030000000000205400019000000000000000161000000000000328251000000000000009999123100000010000000000000BREDGACTF001238
012024030412GSFI11      010FII GENERAL CI           R$  000000000078400000000007860000000000781000000000078400000000007860000000000781000000000078600095000000000000003613000000000002833093000000000000009999123100000010000000000000BRGSFICTF009102
012024030412GTWR11      010FII G TOWERSCI  ER       R$  000000000852900000000086000000000008525000000000854900000000085600000000008552000000000856001718000000000000007379000000000063087452000000000000009999123100000010000000000000BRGTWRCTF003160
012024030412GZIT11      010FII GAZIT   CI  ER       R$  000000000717100000000071710000000007050000000000710000000000071710000000007082000000000717100204000000000000006185000000000043916526000000000000009999123100000010000000000000BRGZITCTF005104
012024030412HAAA11      010FII HEDGEAAACI  ER       R$  000000000431800000000043180000000004265000000000431700000000042650000000004257000000000489900003000000000000000127000000000000548280000000000000009999123100000010000000000000BRHAAACTF003140
012024030412HABT11      010FII HABIT IICI  ER       R$  000000000910900000000092000000000009050000000000912500000000091200000000009119000000000912001144000000000000021327000000000194616924000000000000009999123100000010000000000000BRHABTCTF001157
012024030412MINT11      010FII MINT EDUCI           R$  000000000981600000000099890000000009711000000000973300000000099890000000009801000000001000000005000000000000000048000000000000467226000000000000009999123100000010000000000000BRMINTCTF009103
012024030412CEOC11      010FII CEO CCP CI           R$  000000000470000000000047000000000004669000000000468100000000046850000000004669000000000468500034000000000000000367000000000001718176000000000000009999123100000010000000000000BRCEOCCTF003211
012024030412SARE11      010FII SANT RENCI  ER       R$  000000000432500000000044200000000004320000000000437800000000043950000000004395000000000440204218000000000000031511000000000137980721000000000000009999123100000010000000000000BRSARECTF006153
012024030412RFOF11      010FII RB CFOF CI  ER       R$  000000000783200000000078980000000007793000000000783300000000078460000000007841000000000784500124000000000000002574000000000020164496000000000000009999123100000010000000000000BRRFOFCTF001148
012024030412RINV11      010FII REAL INVCI  ER       R$  000000001102500000000110990000000011020000000001103300000000110990000000011082000000001109000107000000000000001845000000000020355964000000000000009999123100000010000000000000BRRINVCTF004115
012024030412RMAI11      010FII REAGMULTCI  ER       R$  000000000706800000000072000000000007068000000000719600000000072000000000006682000000000720000188000000000000000263000000000001892803000000000000009999123100000010000000000000BRRMAICTF000131
012024030412RNDP11      010FII BB R PAPCI  ERA      R$  000000001130500000000113050000000011000000000001115800000000112290000000011000000000001123000025000000000000000153000000000001707267000000000000009999123100000010000000000000BRRNDPCTF007245
012024030412RNGO11      010FII RIONEGROCI  ER       R$  000000000451100000000045430000000004511000000000453600000000045390000000004536000000000454000077000000000000001474000000000006686684000000000000009999123100000010000000000000BRRNGOCTF003240
012024030412RPRI11      010FII RBR PR  CI  ER       R$  000000001003200000000102470000000010030000000001010700000000100650000000010065000000001012000095000000000000001189000000000012018374000000000000009999123100000010000000000000BRRPRICTF007125
012024030412RRCI11      010FII RBCAP RICI  ER       R$  000000000830300000000084050000000008301000000000836900000000083750000000008309000000000837500044000000000000000813000000000006804605000000000000009999123100000010000000000000BRRRCICTF005139
012024030412URPR11      010FII URCA RENCI  ER       R$  000000000884600000000088690000000008797000000000881200000000088200000000008820000000000882201786000000000000026386000000000232537674000000000000009999123100000010000000000000BRURPRCTF002155
