00COTAHIST.2024BOVESPA 20240408                                                                                                                                                                                                                      
012024040802ABCB4       010ABC BRASIL  PN      N2   R$  000000000244600000000024700000000002444000000000245600000000024500000000002449000000000245902664000000000000493300000000001211579800000000000000009999123100000010000000000000BRABCBACNPR4145
012024040802ABEV3       010AMBEV S/A   ON           R$  000000000122200000000012270000000001212000000000121800000000012170000000001217000000000121817118000000000018919200000000023053911800000000000000009999123100000010000000000000BRABEVACNOR1127
012024040802BBDC3       010BRADESCO    ON  EJ  N1   R$  000000000129200000000013110000000001287000000000130000000000012960000000001296000000000129704235000000000003308400000000004304047700000000000000009999123100000010000000000000BRBBDCACNOR1768
012024040802BBDC4       010BRADESCO    PN  EJ  N1   R$  000000000145600000000014780000000001453000000000146600000000014620000000001462000000000146329064000000000023453800000000034406662500000000000000009999123100000010000000000000BRBBDCACNPR8768
012024040802CEED4       010CEEE-D      PN           R$  000000000250000000000025000000000002500000000000250000000000025000000000001900000000000250000002000000000000000200000000000000500000000000000000009999123100000010000000000000BRCEEDACNPR6103
012024040802CGAS3       010COMGAS      ON  ED       R$  000000001225000000000122500000000012250000000001225000000000122500000000011982000000001224500001000000000000000100000000000001225000000000000000009999123100000010000000000000BRCGASACNOR0163
012024040802CGAS5       010COMGAS      PNA ED       R$  000000001124900000000114000000000011249000000001132800000000113020000000011301000000001130000005000000000000000500000000000005664100000000000000009999123100000010000000000000BRCGASACNPA3160
012024040802CGRA3       010GRAZZIOTIN  ON           R$  000000000265000000000026870000000002650000000000266200000000026870000000002629000000000269800003000000000000000300000000000000798700000000000000009999123100000010000000000000BRCGRAACNOR2081
012024040802CGRA4       010GRAZZIOTIN  PN           R$  000000000276800000000027680000000002720000000000275000000000027300000000002721000000000276800018000000000000003100000000000008526500000000000000009999123100000010000000000000BRCGRAACNPR9081
012024040802CAMB3       010CAMBUCI     ON  EJ       R$  000000000113800000000011400000000001126000000000113500000000011300000000001122000000000113000065000000000000011900000000000013515400000000000000009999123100000010000000000000BRCAMBACNOR4128
012024040802CAML3       010CAMIL       ON      NM   R$  000000000084300000000008510000000000837000000000084500000000008490000000000849000000000085002629000000000000640300000000000541608200000000000000009999123100000010000000000000BRCAMLACNOR3127
012024040802CASH3       010MELIUZ      ON  ER  NM   R$  000000000046500000000004700000000000454000000000046300000000004600000000000460000000000046306996000000000001967900000000000911336200000000000000009999123100000010000000000000BRCASHACNOR8106
012024040802CBAV3       010CBA         ON      NM   R$  000000000045800000000004910000000000457000000000047900000000004890000000000488000000000049010658000000000006392800000000003068256900000000000000009999123100000010000000000000BRCBAVACNOR5104
012024040802CCRO3       010CCR SA      ON      NM   R$  000000000137300000000013930000000001364000000000138000000000013860000000001383000000000138611639000000000007348400000000010142226100000000000000009999123100000010000000000000BRCCROACNOR2144
012024040802EALT3       010ACO ALTONA  ON           R$  000000000098800000000009880000000000988000000000098800000000009880000000000988000000000102900001000000000000000100000000000000098800000000000000009999123100000010000000000000BREALTACNOR4137
012024040802EALT4       010ACO ALTONA  PN           R$  000000000109000000000010990000000001079000000000108400000000010860000000001077000000000108600029000000000000006200000000000006725400000000000000009999123100000010000000000000BREALTACNPR1137
012024040802ECOR3       010ECORODOVIAS ON      NM   R$  000000000078400000000008120000000000779000000000080100000000008010000000000800000000000080112834000000000005556900000000004451776600000000000000009999123100000010000000000000BRECORACNOR8119
012024040802EGIE3       010ENGIE BRASILON      NM   R$  000000000411600000000042040000000004088000000000416800000000041900000000004187000000000419407191000000000002230500000000009297941500000000000000009999123100000010000000000000BREGIEACNOR9125
012024040802GRND3       010GRENDENE    ON      NM   R$  000000000063500000000006460000000000634000000000064100000000006420000000000642000000000064503315000000000001545300000000000990980600000000000000009999123100000010000000000000BRGRNDACNOR3172
012024040802GUAR3       010GUARARAPES  ON      NM   R$  000000000079700000000008250000000000793000000000081400000000008200000000000816000000000082006799000000000001934000000000001574935500000000000000009999123100000010000000000000BRGUARACNOR4172
012024040802HAGA3       010HAGA S/A    ON           R$  000000000026600000000002660000000000266000000000026600000000002660000000000256000000000026600001000000000000000100000000000000026600000000000000009999123100000010000000000000BRHAGAACNOR7103
012024040802HAGA4       010HAGA S/A    PN           R$  000000000011900000000001190000000000116000000000011700000000001170000000000117000000000011800007000000000000001000000000000000117400000000000000009999123100000010000000000000BRHAGAACNPR4103
012024040802HAPV3       010HAPVIDA     ON      NM   R$  000000000039800000000004060000000000393000000000040000000000004010000000000399000000000040128036000000000038843800000000015569847200000000000000009999123100000010000000000000BRHAPVACNOR4113
012024040802HBOR3       010HELBOR      ON      NM   R$  000000000029400000000002980000000000288000000000029100000000002930000000000292000000000029301054000000000000608100000000000177558700000000000000009999123100000010000000000000BRHBORACNOR3117
012024040802HBRE3       010HBR REALTY  ON      NM   R$  000000000061000000000006120000000000596000000000060200000000005980000000000598000000000059901902000000000000835400000000000503516700000000000000009999123100000010000000000000BRHBREACNOR4100
012024040802HBSA3       010HIDROVIAS   ON      NM   R$  000000000041900000000004250000000000412000000000042000000000004200000000000419000000000042111102000000000004409900000000001854615900000000000000009999123100000010000000000000BRHBSAACNOR0100
012024040802HETA4       010HERCULES    PN           R$  000000000060700000000006070000000000601000000000060200000000006010000000000602000000000064400004000000000000000600000000000000361200000000000000009999123100000010000000000000BRHETAACNPR9136
012024040802JALL3       010JALLESMACHADON      NM   R$  000000000074300000000007580000000000738000000000075000000000007580000000000755000000000075903443000000000000838100000000000628971100000000000000009999123100000010000000000000BRJALLACNOR0105
012024040802JBSS3       010JBS         ON      NM   R$  000000000212900000000021650000000002110000000000214700000000021550000000002151000000000215519560000000000009001600000000019334057100000000000000009999123100000010000000000000BRJBSSACNOR8121
012024040802JHSF3       010JHSF PART   ON  ED  NM   R$  000000000047100000000004780000000000467000000000047300000000004780000000000477000000000047803140000000000002072800000000000982318800000000000000009999123100000010000000000000BRJHSFACNOR2134
012024040802MTRE3       010MITRE REALTYON      NM   R$  000000000050000000000005160000000000496000000000051100000000005150000000000513000000000051602027000000000001344000000000000687273600000000000000009999123100000010000000000000BRMTREACNOR6109
012024040802MTSA4       010METISA      PN           R$  000000000481000000000048100000000004751000000000478000000000047890000000004755000000000479000010000000000000001100000000000005258600000000000000009999123100000010000000000000BRMTSAACNPR9071
012024040802MULT3       010MULTIPLAN   ON  EJ  N2   R$  000000000248900000000025290000000002484000000000251100000000025270000000002525000000000252915706000000000002857500000000007175690800000000000000009999123100000010000000000000BRMULTACNOR5138
012024040802MYPK3       010IOCHP-MAXIONON      NM   R$  000000000137300000000014040000000001369000000000139500000000013970000000001397000000000139804865000000000000832600000000001162006300000000000000009999123100000010000000000000BRMYPKACNOR7154
012024040802NEOE3       010NEOENERGIA  ON      NM   R$  000000000206500000000020930000000002061000000000207600000000020750000000002075000000000207602942000000000000706800000000001467447500000000000000009999123100000010000000000000BRNEOEACNOR3121
012024040802B3SA3       010B3          ON  EJ  NM   R$  000000000121500000000012200000000001200000000000120900000000012130000000001212000000000121335383000000000033474500000000040484118300000000000000009999123100000010000000000000BRB3SAACNOR6132
012024040802ZAMP3       010ZAMP S.A.   ON           R$  000000000030200000000003160000000000297000000000030600000000003120000000000311000000000031202460000000000000803700000000000246331700000000000000009999123100000010000000000000BRZAMPACNOR5100
012024040802RSUL4       010RIOSULENSE  PN           R$  000000000792700000000080730000000007927000000000803900000000080730000000008073000000000813800025000000000000002900000000000023313900000000000000009999123100000010000000000000BRRSULACNPR3113
012024040802DXCO3       010DEXCO       ON      NM   R$  000000000074500000000008020000000000745000000000078300000000007780000000000778000000000078012964000000000005687900000000004457806800000000000000009999123100000010000000000000BRDXCOACNOR8105
012024040802ELMD3       010ELETROMIDIA ON      NM   R$  000000000189200000000019620000000001875000000000190800000000019310000000001919000000000193100563000000000000131500000000000250953700000000000000009999123100000010000000000000BRELMDACNOR3100
012024040802EMAE4       010EMAE        PN           R$  000000000796000000000080890000000007850000000000794300000000079840000000007850000000000798500046000000000000004800000000000038127900000000000000009999123100000010000000000000BREMAEACNPR1124
012024040802EMBR3       010EMBRAER     ON      NM   R$  000000000323000000000032620000000003186000000000323200000000032490000000003247000000000324913668000000000004282600000000013842458100000000000000009999123100000010000000000000BREMBRACNOR4191
012024040802ENAT3       010ENAUTA PART ON      NM   R$  000000000266900000000027920000000002669000000000274600000000027440000000002742000000000274410838000000000002860800000000007856046400000000000000009999123100000010000000000000BRENATACNOR0104
012024040802IFCM3       010INFRACOMM   ON      NM   R$  000000000008200000000000830000000000079000000000008000000000000810000000000080000000000008106051000000000007049700000000000566307000000000000000009999123100000010000000000000BRIFCMACNOR8101
012024040802IGTI11      010IGUATEMI S.AUNT     N1   R$  000000000230000000000023470000000002285000000000232900000000023280000000002327000000000232910302000000000002223800000000005180014800000000000000009999123100000010000000000000BRIGTICDAM16105
012024040802IGTI3       010IGUATEMI S.AON      N1   R$  000000000031900000000003280000000000316000000000032200000000003190000000000319000000000032200173000000000000060000000000000019367600000000000000009999123100000010000000000000BRIGTIACNOR8105
012024040802IGTI4       010IGUATEMI S.APN      N1   R$  000000000099100000000009980000000000991000000000099500000000009980000000000942000000000101800003000000000000000500000000000000497600000000000000009999123100000010000000000000BRIGTIACNPR5105
012024040802KRSA3       010KORA SAUDE  ON      NM   R$  000000000007900000000000810000000000079000000000008000000000000800000000000079000000000008000083000000000000316900000000000025353400000000000000009999123100000010000000000000BRKRSAACNOR0100
012024040802LAND3       010TERRASANTAPAON      NM   R$  000000000122500000000012520000000001200000000000122600000000012150000000001215000000000123700978000000000000189800000000000232813200000000000000009999123100000010000000000000BRLANDACNOR9102
012024040802SANB11      010SANTANDER BRUNT          R$  000000000280800000000028470000000002805000000000282800000000028240000000002822000000000283306405000000000001257200000000003555641200000000000000009999123100000010000000000000BRSANBCDAM13163
012024040802SANB3       010SANTANDER BRON           R$  000000000132200000000013400000000001321000000000133300000000013300000000001330000000000133500527000000000000082700000000000110289500000000000000009999123100000010000000000000BRSANBACNOR8170
012024040802SANB4       010SANTANDER BRPN           R$  000000000148600000000015050000000001482000000000149400000000014910000000001491000000000149600573000000000000114000000000000170407000000000000000009999123100000010000000000000BRSANBACNPR5170
012024040802VALE3       010VALE        ON      NM   R$  000000000611000000000063130000000006080000000000622200000000062970000000006297000000000629813555000000000040281300000000250668806700000000000000009999123100000010000000000000BRVALEACNOR0210
012024040802WEST3       010WESTWING    ON      NM   R$  000000000012900000000001330000000000126000000000012900000000001310000000000129000000000013300127000000000000162500000000000021053600000000000000009999123100000010000000000000BRWESTACNOR3100
012024040802WHRL3       010WHIRLPOOL   ON           R$  000000000045600000000004590000000000455000000000045600000000004550000000000456000000000046000011000000000000001200000000000000547800000000000000009999123100000010000000000000BRWHRLACNOR5128
012024040802WHRL4       010WHIRLPOOL   PN           R$  000000000047300000000004740000000000467000000000047200000000004670000000000468000000000047200010000000000000001800000000000000850600000000000000009999123100000010000000000000BRWHRLACNPR2128
012024040802WIZC3       010WIZ CO      ON      NM   R$  000000000071300000000007330000000000706000000000072200000000007330000000000726000000000073302054000000000000516500000000000373088400000000000000009999123100000010000000000000BRWIZCACNOR5101
012024040802WLMM4       010WLM IND COM PN           R$  000000000231300000000024700000000002310000000000238500000000024700000000002374000000000246900034000000000000004600000000000010971400000000000000009999123100000010000000000000BRWLMMACNPR3117
012024040802YDUQ3       010YDUQS PART  ON      NM   R$  000000000166700000000016940000000001648000000000167500000000016840000000001681000000000168508760000000000002031100000000003402734600000000000000009999123100000010000000000000BRYDUQACNOR3104
012024040802NGRD3       010NEOGRID     ON      NM   R$  000000000010600000000001070000000000104000000000010500000000001050000000000105000000000010600444000000000000799500000000000084115300000000000000009999123100000010000000000000BRNGRDACNOR3103
012024040802NINJ3       010GETNINJAS   ON      NM   R$  000000000051100000000005150000000000511000000000051200000000005120000000000512000000000051300070000000000000019000000000000009735000000000000000009999123100000010000000000000BRNINJACNOR5101
012024040802NORD3       010NORDON MET  ON           R$  000000000085100000000008620000000000850000000000085200000000008500000000000790000000000089900009000000000000001000000000000000852700000000000000009999123100000010000000000000BRNORDACNOR7135
012024040802PETZ3       010PETZ        ON      NM   R$  000000000039500000000004040000000000383000000000039200000000003980000000000398000000000039914934000000000017419700000000006840491000000000000000009999123100000010000000000000BRPETZACNOR2109
012024040802ROMI3       010ROMI        ON  EJB NM   R$  000000000121500000000012410000000001211000000000122400000000012410000000001237000000000124101351000000000000227700000000000278736000000000000000009999123100000010000000000000BRROMIACNOR8194
012024040802RPAD6       010ALFA HOLDINGPNB          R$  000000000082000000000008200000000000740000000000077000000000007400000000000740000000000088000019000000000000003200000000000002467000000000000000009999123100000010000000000000BRRPADACNPB2198
012024040802RRRP3       0103R PETROLEUMON      NM   R$  000000000345300000000035420000000003426000000000349800000000034850000000003485000000000349015306000000000003968400000000013884546500000000000000009999123100000010000000000000BRRRRPACNOR5102
012024040802UNIP3       010UNIPAR      ON           R$  000000000617200000000061720000000006099000000000610600000000061000000000006097000000000610000142000000000000020700000000000126414500000000000000009999123100000010000000000000BRUNIPACNOR7205
012024040802UNIP5       010UNIPAR      PNA          R$  000000000655200000000065520000000006552000000000655200000000065520000000006502000000000670000001000000000000000100000000000000655200000000000000009999123100000010000000000000BRUNIPACNPA0207
012024040802UNIP6       010UNIPAR      PNB          R$  000000000652900000000065810000000006482000000000652000000000065260000000006526000000000657000906000000000000140900000000000918775300000000000000009999123100000010000000000000BRUNIPACNPB8205
012024040802USIM3       010USIMINAS    ON      N1   R$  000000000093900000000009840000000000934000000000096800000000009840000000000983000000000098401512000000000000461600000000000447241000000000000000009999123100000010000000000000BRUSIMACNOR3166
012024040802MAPT3       010CEMEPE      ON           R$  000000000050000000000005490000000000500000000000051900000000005490000000000549000000000060000010000000000000001000000000000000519600000000000000009999123100000010000000000000BRMAPTACNOR8106
012024040802MAPT4       010CEMEPE      PN           R$  000000000050000000000005000000000000435000000000046000000000004470000000000447000000000046000044000000000000008900000000000004097500000000000000009999123100000010000000000000BRMAPTACNPR5106
012024040802MATD3       010MATER DEI   ON      NM   R$  000000000056800000000005740000000000556000000000056700000000005670000000000565000000000056701955000000000000593000000000000336415000000000000000009999123100000010000000000000BRMATDACNOR4103
012024040802MBLY3       010MOBLY       ON      NM   R$  000000000024500000000002480000000000237000000000024300000000002450000000000242000000000024500646000000000000349300000000000084908500000000000000009999123100000010000000000000BRMBLYACNOR5100
012024040802EKTR4       010ELEKTRO     PN           R$  000000000490000000000049000000000004622000000000481700000000046610000000004670000000000489900008000000000000001200000000000005780500000000000000009999123100000010000000000000BREKTRACNPR7160
012024040802ELET3       010ELETROBRAS  ON      N1   R$  000000000411000000000041640000000004071000000000413700000000041440000000004137000000000414519395000000000004372300000000018088885800000000000000009999123100000010000000000000BRELETACNOR6159
012024040802ELET6       010ELETROBRAS  PNB     N1   R$  000000000457100000000046460000000004546000000000461800000000046240000000004619000000000462404421000000000001733100000000008004101500000000000000009999123100000010000000000000BRELETACNPB7076
012024040802KEPL3       010KEPLER WEBERON  ED  NM   R$  000000000103800000000010660000000001032000000000105100000000010640000000001060000000000106502901000000000000790600000000000831608100000000000000009999123100000010000000000000BRKEPLACNOR1062
012024040802KLBN11      010KLABIN S/A  UNT     N2   R$  000000000247300000000025080000000002453000000000248900000000024950000000002490000000000250011073000000000003095800000000007705663700000000000000009999123100000010000000000000BRKLBNCDAM18140
012024040802KLBN3       010KLABIN S/A  ON      N2   R$  000000000049400000000005010000000000490000000000049700000000005010000000000498000000000050100622000000000000219700000000000109272700000000000000009999123100000010000000000000BRKLBNACNOR2168
012024040802KLBN4       010KLABIN S/A  PN      N2   R$  000000000049200000000005010000000000491000000000049500000000004970000000000497000000000049801924000000000001237000000000000613453800000000000000009999123100000010000000000000BRKLBNACNPR9168
012024040802NTCO3       010GRUPO NATURAON      NM   R$  000000000176200000000018050000000001747000000000177700000000017740000000001773000000000177821853000000000009193500000000016337366700000000000000009999123100000010000000000000BRNTCOACNOR5105
012024040802ODPV3       010ODONTOPREV  ON  EJ  NM   R$  000000000120200000000012070000000001180000000000119500000000012020000000001200000000000120707055000000000001854500000000002217493900000000000000009999123100000010000000000000BRODPVACNOR4199
012024040802OFSA3       010OUROFINO S/AON      NM   R$  000000000239400000000024400000000002394000000000243200000000024400000000002413000000000244000013000000000000001900000000000004621800000000000000009999123100000010000000000000BROFSAACNOR7117
012024040802ONCO3       010ONCOCLINICASON      NM   R$  000000000080800000000008600000000000795000000000083300000000008580000000000855000000000085808341000000000005447000000000004540246000000000000000009999123100000010000000000000BRONCOACNOR6100
012024040802OPCT3       010OCEANPACT   ON      NM   R$  000000000060100000000006180000000000595000000000060300000000005980000000000598000000000060001854000000000001101900000000000665245400000000000000009999123100000010000000000000BROPCTACNOR0100
012024040802ORVR3       010ORIZON      ON      NM   R$  000000000368300000000037300000000003636000000000370200000000037060000000003706000000000371001999000000000000449500000000001664322500000000000000009999123100000010000000000000BRORVRACNOR0101
012024040802BAHI3       010BAHEMA      ON      MA   R$  000000000086200000000008930000000000850000000000086300000000008620000000000861000000000089400019000000000000004800000000000004145100000000000000009999123100000010000000000000BRBAHIACNOR1074
012024040802BALM4       010BAUMER      PN           R$  000000000100000000000010000000000001000000000000100000000000010000000000001002000000000104900002000000000000000300000000000000300000000000000000009999123100000010000000000000BRBALMACNPR2056
012024040802BRIT3       010BRISANET    ON      NM   R$  000000000044400000000004470000000000430000000000043900000000004410000000000440000000000044100664000000000000321700000000000141451500000000000000009999123100000010000000000000BRBRITACNOR0102
012024040802BRKM3       010BRASKEM     ON      N1   R$  000000000247500000000024750000000002412000000000243600000000024390000000002426000000000244700058000000000000010200000000000024848200000000000000009999123100000010000000000000BRBRKMACNOR1119
012024040802BRKM5       010BRASKEM     PNA     N1   R$  000000000252500000000025250000000002458000000000249300000000024990000000002499000000000250010032000000000004059700000000010121971800000000000000009999123100000010000000000000BRBRKMACNPA4121
012024040802CSRN3       010COSERN      ON           R$  000000000258000000000025800000000002500000000000255200000000025780000000002500000000000258000003000000000000000300000000000000765800000000000000009999123100000010000000000000BRCSRNACNOR0191
012024040802CSUD3       010CSU DIGITAL ON      NM   R$  000000000199000000000020090000000001975000000000198800000000019850000000001985000000000199100355000000000000121400000000000241352600000000000000009999123100000010000000000000BRCSUDACNOR5108
012024040802ITSA3       010ITAUSA      ON      N1   R$  000000000100200000000010160000000001000000000000101100000000010100000000001010000000000101100295000000000000083300000000000084262300000000000000009999123100000010000000000000BRITSAACNOR0439
012024040802ITSA4       010ITAUSA      PN      N1   R$  000000000100200000000010160000000000999000000000101000000000010100000000001010000000000101118912000000000020111600000000020315194900000000000000009999123100000010000000000000BRITSAACNPR7439
012024040802JSLG3       010JSL         ON      NM   R$  000000000133200000000013880000000001318000000000136400000000013820000000001378000000000138203430000000000000888100000000001212212300000000000000009999123100000010000000000000BRJSLGACNOR2121
012024040802HYPE3       010HYPERA      ON      NM   R$  000000000312400000000031630000000003090000000000311500000000031150000000003112000000000311812303000000000003336400000000010396102000000000000000009999123100000010000000000000BRHYPEACNOR0139
012024040802BPAC11      010BTGP BANCO  UNT     N2   R$  000000000354000000000036470000000003524000000000361200000000036320000000003632000000000363520106000000000007547900000000027264949800000000000000009999123100000010000000000000BRBPACUNT006118
012024040802BPAC3       010BTGP BANCO  ON      N2   R$  000000000172000000000018130000000001695000000000177300000000018120000000001768000000000181200039000000000000004300000000000007627900000000000000009999123100000010000000000000BRBPACACNOR7133
012024040802BPAC5       010BTGP BANCO  PNA     N2   R$  000000000092100000000009290000000000895000000000090800000000009060000000000905000000000090600095000000000000031900000000000028985800000000000000009999123100000010000000000000BRBPACACNPA0133
012024040802CPFE3       010CPFL ENERGIAON      NM   R$  000000000349600000000035620000000003477000000000354600000000035510000000003550000000000355108515000000000002197000000000007791452600000000000000009999123100000010000000000000BRCPFEACNOR0136
012024040802CPLE3       010COPEL       ON      N2   R$  000000000087000000000008810000000000866000000000087300000000008700000000000869000000000087121456000000000011110900000000009708622700000000000000009999123100000010000000000000BRCPLEACNOR8148
012024040802CPLE6       010COPEL       PNB     N2   R$  000000000097600000000009870000000000970000000000097900000000009800000000000979000000000098024876000000000010807400000000010581923200000000000000009999123100000010000000000000BRCPLEACNPB9145
012024040802FLRY3       010FLEURY      ON      NM   R$  000000000147100000000014830000000001467000000000147100000000014750000000001473000000000147504826000000000002222500000000003270083100000000000000009999123100000010000000000000BRFLRYACNOR5138
012024040802CRPG5       010CRISTAL     PNA          R$  000000000304800000000031490000000003021000000000308300000000031490000000003110000000000319700017000000000000001800000000000005550800000000000000009999123100000010000000000000BRCRPGACNPA3118
012024040802CRPG6       010CRISTAL     PNB          R$  000000000300100000000030270000000002999000000000302300000000030270000000003001000000000307500011000000000000001400000000000004232200000000000000009999123100000010000000000000BRCRPGACNPB1118
012024040802CSAN3       010COSAN       ON      NM   R$  000000000153100000000015870000000001521000000000156600000000015800000000001580000000000158331256000000000013093700000000020515454200000000000000009999123100000010000000000000BRCSANACNOR6124
012024040802MILS3       010MILLS       ON  EJ  NM   R$  000000000132200000000013470000000001312000000000133000000000013340000000001333000000000133402262000000000000636100000000000846283300000000000000009999123100000010000000000000BRMILSACNOR2125
012024040802MLAS3       010MULTILASER  ON      NM   R$  000000000024200000000002430000000000233000000000023800000000002350000000000235000000000023603134000000000001669800000000000397826200000000000000009999123100000010000000000000BRMLASACNOR9101
012024040802MNPR3       010MINUPAR     ON           R$  000000000180000000000019990000000001800000000000191100000000019000000000001850000000000194900010000000000000001300000000000002484900000000000000009999123100000010000000000000BRMNPRACNOR5122
012024040802MOVI3       010MOVIDA      ON      NM   R$  000000000079600000000008140000000000778000000000079900000000008010000000000800000000000080110253000000000003865600000000003090774600000000000000009999123100000010000000000000BRMOVIACNOR0122
012024040802BEEF3       010MINERVA     ON      NM   R$  000000000066500000000006660000000000657000000000066000000000006600000000000660000000000066108156000000000007657500000000005060208600000000000000009999123100000010000000000000BRBEEFACNOR6116
012024040802BPAN4       010BANCO PAN   PN      N1   R$  000000000091500000000009410000000000915000000000093100000000009350000000000934000000000093604613000000000001266900000000001180410800000000000000009999123100000010000000000000BRBPANACNPR1115
012024040802FRAS3       010FRAS-LE     ON      N1   R$  000000000174500000000017860000000001745000000000177200000000017850000000001785000000000178600790000000000000180400000000000319819200000000000000009999123100000010000000000000BRFRASACNOR0158
012024040802AZUL4       010AZUL        PN      N2   R$  000000000130500000000013580000000001295000000000133400000000013300000000001329000000000133110590000000000008204600000000010945932300000000000000009999123100000010000000000000BRAZULACNPR4102
012024040802BBSE3       010BBSEGURIDADEON      NM   R$  000000000329600000000033310000000003273000000000331100000000033180000000003317000000000331913206000000000005454500000000018062215200000000000000009999123100000010000000000000BRBBSEACNOR5124
012024040802BLAU3       010BLAU        ON      NM   R$  000000000120100000000012030000000001189000000000119400000000011930000000001192000000000119701052000000000000167500000000000200047000000000000000009999123100000010000000000000BRBLAUACNOR8112
012024040802BMEB4       010MERCANTIL   PN      N1   R$  000000000237900000000024800000000002291000000000238400000000022910000000002286000000000229100103000000000000026700000000000063669700000000000000009999123100000010000000000000BRBMEBACNPR5210
012024040802BMGB4       010BANCO BMG   PN      N1   R$  000000000034200000000003470000000000341000000000034400000000003460000000000344000000000034600779000000000000353100000000000121572400000000000000009999123100000010000000000000BRBMGBACNPR0108
012024040802BMIN4       010MERC INVEST PN           R$  000000000153100000000015310000000001530000000000153000000000015300000000001530000000000159500003000000000000000500000000000000765100000000000000009999123100000010000000000000BRBMINACNPR1176
012024040802BMKS3       010BIC MONARK  ON           R$  000000003969900000000405000000000039512000000003970300000000400010000000039901000000004170000013000000000000000946000000000037559880000000000000009999123100000010000000000000BRBMKSACNOR9165
012024040802BMOB3       010BEMOBI TECH ON      NM   R$  000000000133700000000013550000000001322000000000134200000000013460000000001345000000000135401611000000000000257400000000000345434200000000000000009999123100000010000000000000BRBMOBACNOR7103
012024040802BOBR4       010BOMBRIL     PN           R$  000000000022200000000002220000000000212000000000021600000000002170000000000216000000000021800117000000000000067800000000000014673600000000000000009999123100000010000000000000BRBOBRACNPR3128
012024040802BRSR3       010BANRISUL    ON      N1   R$  000000000134700000000013470000000001323000000000133200000000013460000000001324000000000134900030000000000000004500000000000005997700000000000000009999123100000010000000000000BRBRSRACNOR3186
012024040802BRSR6       010BANRISUL    PNB     N1   R$  000000000133700000000013590000000001335000000000134300000000013470000000001340000000000134803296000000000000779700000000001047529500000000000000009999123100000010000000000000BRBRSRACNPB4189
012024040802BSLI3       010BRB BANCO   ON           R$  000000000102800000000010280000000000950000000000096600000000009510000000000900000000000095100027000000000000008500000000000008212300000000000000009999123100000010000000000000BRBSLIACNOR5192
012024040802CXSE3       010CAIXA SEGURION      NM   R$  000000000156400000000015990000000001561000000000157700000000015750000000001575000000000157708076000000000002433300000000003838751400000000000000009999123100000010000000000000BRCXSEACNOR7105
012024040802CYRE3       010CYRELA REALTON      NM   R$  000000000235000000000024010000000002331000000000238200000000023810000000002381000000000238511202000000000003891600000000009272487600000000000000009999123100000010000000000000BRCYREACNOR7139
012024040802EKTR3       010ELEKTRO     ON           R$  000000000500000000000050000000000005000000000000500000000000050000000000004501000000000500000001000000000000000100000000000000500000000000000000009999123100000010000000000000BREKTRACNOR0160
012024040802CTKA4       010KARSTEN     PN           R$  000000000190100000000019020000000001900000000000190000000000019000000000001901000000000196900005000000000000004000000000000007600400000000000000009999123100000010000000000000BRCTKAACNPR7043
012024040802CTNM4       010COTEMINAS   PN           R$  000000000011700000000001190000000000115000000000011600000000001150000000000115000000000011600067000000000000051000000000000005925300000000000000009999123100000010000000000000BRCTNMACNPR6129
012024040802CTSA3       010SANTANENSE  ON           R$  000000000030300000000003030000000000291000000000029400000000002940000000000294000000000029600007000000000000000700000000000000206000000000000000009999123100000010000000000000BRCTSAACNOR3062
012024040802CTSA4       010SANTANENSE  PN           R$  000000000015200000000001570000000000151000000000015300000000001550000000000153000000000015500029000000000000024400000000000003755300000000000000009999123100000010000000000000BRCTSAACNPR0062
012024040802CURY3       010CURY S/A    ON      NM   R$  000000000205000000000020740000000002026000000000206000000000020650000000002065000000000207305987000000000001568300000000003231756000000000000000009999123100000010000000000000BRCURYACNOR3107
012024040802CVCB3       010CVC BRASIL  ON      NM   R$  000000000027300000000002750000000000265000000000026900000000002670000000000266000000000026712003000000000018883200000000005081930200000000000000009999123100000010000000000000BRCVCBACNOR1115
012024040802BRAP3       010BRADESPAR   ON      N1   R$  000000000198800000000020600000000001988000000000203300000000020520000000002052000000000206000649000000000000159400000000000324194300000000000000009999123100000010000000000000BRBRAPACNOR5147
012024040802BRAP4       010BRADESPAR   PN      N1   R$  000000000208000000000021280000000002066000000000211000000000021220000000002120000000000212211719000000000005083600000000010728798800000000000000009999123100000010000000000000BRBRAPACNPR2147
012024040802CRFB3       010CARREFOUR BRON      NM   R$  000000000138000000000014130000000001359000000000137600000000013670000000001366000000000137613044000000000006310800000000008684614700000000000000009999123100000010000000000000BRCRFBACNOR2116
012024040802MRFG3       010MARFRIG     ON      NM   R$  000000000102900000000010640000000001024000000000105200000000010620000000001060000000000106215631000000000006793100000000007150230600000000000000009999123100000010000000000000BRMRFGACNOR0116
012024040802ALPA3       010ALPARGATAS  ON      N1   R$  000000000097100000000009740000000000971000000000097300000000009740000000000974000000000099500006000000000000001300000000000001265900000000000000009999123100000010000000000000BRALPAACNOR0231
012024040802ALPA4       010ALPARGATAS  PN      N1   R$  000000000095600000000009610000000000932000000000094500000000009430000000000943000000000094605726000000000001765500000000001669255100000000000000009999123100000010000000000000BRALPAACNPR7232
012024040802ALPK3       010ESTAPAR     ON      NM   R$  000000000044500000000004500000000000441000000000044400000000004450000000000443000000000044500407000000000000199100000000000088571500000000000000009999123100000010000000000000BRALPKACNOR9101
012024040802ALUP11      010ALUPAR      UNT     N2   R$  000000000305000000000030530000000003020000000000304100000000030510000000003042000000000305103543000000000000770700000000002343890400000000000000009999123100000010000000000000BRALUPCDAM15117
012024040802ALUP3       010ALUPAR      ON      N2   R$  000000000104000000000010510000000001030000000000103500000000010330000000001032000000000104500119000000000000015300000000000015845500000000000000009999123100000010000000000000BRALUPACNOR8117
012024040802ALUP4       010ALUPAR      PN      N2   R$  000000000100500000000010090000000000981000000000099900000000010080000000001002000000000100800206000000000000034000000000000033991300000000000000009999123100000010000000000000BRALUPACNPR5117
012024040802AMAR3       010LOJAS MARISAON      NM   R$  000000000018100000000001840000000000179000000000018000000000001790000000000178000000000017900734000000000000232500000000000041942800000000000000009999123100000010000000000000BRAMARACNOR4114
012024040802AMBP3       010AMBIPAR     ON      NM   R$  000000000137800000000014010000000001367000000000138500000000013870000000001385000000000138702377000000000000599600000000000830896300000000000000009999123100000010000000000000BRAMBPACNOR6103
012024040802ANIM3       010ANIMA       ON      NM   R$  000000000045900000000004760000000000450000000000046400000000004730000000000473000000000047409716000000000003600000000000001671633200000000000000009999123100000010000000000000BRANIMACNOR6107
012024040802APER3       010ALPER S.A.  ON           R$  000000000425200000000042520000000004252000000000425200000000042520000000004251000000000445000003000000000000000300000000000001275600000000000000009999123100000010000000000000BRAPERACNOR9106
012024040802ARML3       010ARMAC       ON  EJ  NM   R$  000000000118300000000012130000000001179000000000119500000000012040000000001204000000000121403447000000000000560200000000000669903100000000000000009999123100000010000000000000BRARMLACNOR1111
012024040802ARZZ3       010AREZZO CO   ON      NM   R$  000000000567300000000057200000000005637000000000567100000000056600000000005660000000000567509407000000000001704700000000009668207300000000000000009999123100000010000000000000BRARZZACNOR3146
012024040802ASAI3       010ASSAI       ON      NM   R$  000000000137300000000014250000000001346000000000140500000000014120000000001411000000000141327722000000000017208100000000024180624100000000000000009999123100000010000000000000BRASAIACNOR0106
012024040802ATOM3       010ATOMPAR     ON           R$  000000000021100000000002110000000000204000000000020500000000002040000000000204000000000020800048000000000000012100000000000002488700000000000000009999123100000010000000000000BRATOMACNOR1106
012024040802AURE3       010AUREN       ON      NM   R$  000000000120400000000012090000000001194000000000120500000000012060000000001206000000000120704288000000000001869700000000002253999200000000000000009999123100000010000000000000BRAUREACNOR9104
012024040802AVLL3       010ALPHAVILLE  ON      NM   R$  000000000038200000000003820000000000382000000000038200000000003820000000000374000000000038200004000000000000001500000000000000573000000000000000009999123100000010000000000000BRAVLLACNOR5103
012024040802AZEV3       010AZEVEDO     ON           R$  000000000015300000000001800000000000153000000000016700000000001730000000000173000000000017701419000000000001428200000000000239326000000000000000009999123100000010000000000000BRAZEVACNOR0121
012024040802AZEV4       010AZEVEDO     PN           R$  000000000012700000000001550000000000125000000000013900000000001530000000000152000000000015303263000000000008347400000000001167447200000000000000009999123100000010000000000000BRAZEVACNPR7121
012024040802EZTC3       010EZTEC       ON      NM   R$  000000000151000000000015410000000001493000000000151200000000015410000000001531000000000154106991000000000001972800000000002984794400000000000000009999123100000010000000000000BREZTCACNOR0124
012024040802MDIA3       010M.DIASBRANCOON      NM   R$  000000000358000000000036480000000003579000000000362300000000036480000000003629000000000364903433000000000000785900000000002847570600000000000000009999123100000010000000000000BRMDIAACNOR7134
012024040802MDNE3       010MOURA DUBEUXON      NM   R$  000000000137600000000013990000000001333000000000136700000000013990000000001394000000000139903008000000000000586800000000000802387100000000000000009999123100000010000000000000BRMDNEACNOR9100
012024040802MEAL3       010IMC S/A     ON      NM   R$  000000000016500000000001670000000000164000000000016400000000001640000000000164000000000016500506000000000000423900000000000069839600000000000000009999123100000010000000000000BRMEALACNOR9105
012024040802MELK3       010MELNICK     ON      NM   R$  000000000048500000000005000000000000480000000000049000000000005000000000000498000000000050000774000000000000261100000000000128085300000000000000009999123100000010000000000000BRMELKACNOR8110
012024040802MERC4       010MERC FINANC PN           R$  000000000070000000000007000000000000700000000000070000000000007000000000000688000000000075000001000000000000000200000000000000140000000000000000009999123100000010000000000000BRMERCACNPR9180
012024040802MGEL4       010MANGELS INDLPN           R$  000000000165100000000017210000000001600000000000165500000000017210000000001721000000000192300019000000000000003000000000000004967100000000000000009999123100000010000000000000BRMGELACNPR3147
012024040802MGLU3       010MAGAZ LUIZA ON      NM   R$  000000000017100000000001820000000000171000000000017700000000001780000000000178000000000017938669000000000102330100000000018116307100000000000000009999123100000010000000000000BRMGLUACNOR2123
012024040802ENJU3       010ENJOEI      ON      NM   R$  000000000021100000000002170000000000193000000000020400000000002070000000000205000000000020701381000000000001746100000000000356251300000000000000009999123100000010000000000000BRENJUACNOR9100
012024040802EPAR3       010EMBPAR S/A  ON           R$  000000000080600000000008060000000000772000000000078800000000007720000000000771000000000077800112000000000000034400000000000027121700000000000000009999123100000010000000000000BREPARACNOR9104
012024040802EQPA3       010EQTL PARA   ON           R$  000000000080500000000008190000000000799000000000080700000000008070000000000799000000000080900021000000000000002600000000000002098700000000000000009999123100000010000000000000BREQPAACNOR1110
012024040802EQTL3       010EQUATORIAL  ON      NM   R$  000000000319800000000032340000000003170000000000321500000000032170000000003217000000000323515817000000000005846600000000018800803200000000000000009999123100000010000000000000BREQTLACNOR0129
012024040802INEP3       010INEPAR      ON           R$  000000000035100000000003670000000000348000000000035700000000003590000000000358000000000035900282000000000000085200000000000030490500000000000000009999123100000010000000000000BRINEPACNOR1143
012024040802INEP4       010INEPAR      PN           R$  000000000031000000000003150000000000295000000000030400000000003040000000000298000000000030500201000000000000064700000000000019682700000000000000009999123100000010000000000000BRINEPACNPR8143
012024040802INTB3       010INTELBRAS   ON      NM   R$  000000000199700000000020010000000001933000000000195700000000019590000000001959000000000196706158000000000001667100000000003262856500000000000000009999123100000010000000000000BRINTBACNOR9111
012024040802IRBR3       010IRBBRASIL REON      NM   R$  000000000423600000000042950000000004011000000000412100000000041250000000004122000000000412511486000000000003247600000000013384881600000000000000009999123100000010000000000000BRIRBRACNOR4111
012024040802FESA3       010FERBASA     ON      N1   R$  000000000158900000000015890000000001589000000000158900000000015890000000001540000000000159000001000000000000000100000000000000158900000000000000009999123100000010000000000000BRFESAACNOR8187
012024040802FESA4       010FERBASA     PN      N1   R$  000000000085100000000008850000000000850000000000086200000000008740000000000873000000000087503444000000000001015400000000000876284000000000000000009999123100000010000000000000BRFESAACNPR5083
012024040802FHER3       010FER HERINGERON      NM   R$  000000000056500000000005650000000000546000000000055000000000005460000000000546000000000054900071000000000000028000000000000015405100000000000000009999123100000010000000000000BRFHERACNOR5103
012024040802FIEI3       010FICA        ON           R$  000000000094000000000009400000000000931000000000093800000000009310000000000930000000000098600006000000000000001300000000000001220300000000000000009999123100000010000000000000BRFIEIACNOR2100
012024040802FIQE3       010UNIFIQUE    ON      NM   R$  000000000040200000000004070000000000398000000000040200000000004010000000000401000000000040200666000000000000325300000000000130776300000000000000009999123100000010000000000000BRFIQEACNOR5106
012024040802DIRR3       010DIRECIONAL  ON      NM   R$  000000000247700000000025090000000002450000000000249000000000025000000000002494000000000250206113000000000001118400000000002785722900000000000000009999123100000010000000000000BRDIRRACNOR0117
012024040802DMVF3       010D1000VFARMA ON      NM   R$  000000000066900000000006930000000000668000000000067900000000006810000000000673000000000068300293000000000000049000000000000033275800000000000000009999123100000010000000000000BRDMVFACNOR9100
012024040802DOHL3       010DOHLER      ON           R$  000000000064700000000006470000000000647000000000064700000000006470000000000644000000000099900001000000000000000100000000000000064700000000000000009999123100000010000000000000BRDOHLACNOR2063
012024040802DOHL4       010DOHLER      PN           R$  000000000044700000000004520000000000436000000000044500000000004520000000000436000000000045200007000000000000000800000000000000356500000000000000009999123100000010000000000000BRDOHLACNPR9066
012024040802DOTZ3       010DOTZ SA     ON      NM   R$  000000000048200000000004880000000000476000000000047900000000004760000000000476000000000048400049000000000000008800000000000004222400000000000000009999123100000010000000000000BRDOTZACNOR7101
012024040802LAVV3       010LAVVI       ON      NM   R$  000000000091700000000009370000000000907000000000091700000000009280000000000927000000000093603793000000000001182300000000001084426000000000000000009999123100000010000000000000BRLAVVACNOR4111
012024040802LEVE3       010METAL LEVE  ON      NM   R$  000000000342000000000034850000000003410000000000345500000000034790000000003467000000000348002164000000000000408000000000001410004900000000000000009999123100000010000000000000BRLEVEACNOR2196
012024040802LIPR3       010ELETROPAR   ON           R$  000000000510000000000052800000000005100000000000519000000000051900000000005003000000000528000003000000000000000300000000000001557000000000000000009999123100000010000000000000BRLIPRACNOR7121
012024040802LJQQ3       010QUERO-QUERO ON      NM   R$  000000000054600000000005530000000000539000000000054700000000005490000000000545000000000054906453000000000001960800000000001072664700000000000000009999123100000010000000000000BRLJQQACNOR5104
012024040802LOGG3       010LOG COM PROPON      NM   R$  000000000219900000000022290000000002178000000000220000000000022290000000002210000000000222901580000000000000242300000000000533119100000000000000009999123100000010000000000000BRLOGGACNOR7107
012024040802LOGN3       010LOG-IN      ON      NM   R$  000000000349600000000038840000000003477000000000371300000000038450000000003798000000000384500399000000000000057200000000000212402000000000000000009999123100000010000000000000BRLOGNACNOR3105
012024040802LPSB3       010LOPES BRASILON      NM   R$  000000000022000000000002230000000000217000000000021900000000002180000000000217000000000022000120000000000000052500000000000011508200000000000000009999123100000010000000000000BRLPSBACNOR0113
012024040802LREN3       010LOJAS RENNERON      NM   R$  000000000170300000000017320000000001684000000000171700000000017150000000001714000000000171716816000000000008473300000000014550884400000000000000009999123100000010000000000000BRLRENACNOR1220
012024040802PCAR3       010P.ACUCAR-CBDON      NM   R$  000000000026900000000002710000000000258000000000026300000000002610000000000261000000000026207438000000000013297600000000003509212400000000000000009999123100000010000000000000BRPCARACNOR3167
012024040802PDGR3       010PDG REALT   ON      NM   R$  000000000003000000000000310000000000029000000000002900000000000300000000000029000000000003000282000000000001075800000000000032234800000000000000009999123100000010000000000000BRPDGRACNOR8118
012024040802PDTC3       010PADTEC      ON      NM   R$  000000000025300000000002560000000000246000000000025000000000002470000000000246000000000024700233000000000000119400000000000029889600000000000000009999123100000010000000000000BRPDTCACNOR3100
012024040802PETR3       010PETROBRAS   ON      N2   R$  000000000389000000000039740000000003856000000000392200000000039600000000003958000000000396125530000000000011438000000000044860633800000000000000009999123100000010000000000000BRPETRACNOR9202
012024040802PETR4       010PETROBRAS   PN      N2   R$  000000000380300000000039060000000003773000000000383900000000038630000000003862000000000386457264000000000036384400000000139702115400000000000000009999123100000010000000000000BRPETRACNPR6210
012024040802BAUH4       010EXCELSIOR   PN           R$  000000000776500000000078790000000007765000000000782300000000078790000000000000000000000787900004000000000000000400000000000003129300000000000000009999123100000010000000000000BRBAUHACNPR3117
012024040802BAZA3       010AMAZONIA    ON           R$  000000001030000000000105990000000010240000000001040200000000105990000000010401000000001060000035000000000000004200000000000043691000000000000000009999123100000010000000000000BRBAZAACNOR0178
012024040802BBAS3       010BRASIL      ON      NM   R$  000000000575000000000058840000000005726000000000581400000000057900000000005790000000000580026731000000000009848000000000057265524400000000000000009999123100000010000000000000BRBBASACNOR3321
012024040802AALR3       010ALLIAR      ON      NM   R$  000000000092000000000009650000000000860000000000092200000000009510000000000945000000000095202491000000000000308600000000000284538900000000000000009999123100000010000000000000BRAALRACNOR6102
012024040802CEAB3       010CEA MODAS   ON      NM   R$  000000000120500000000012420000000001193000000000122400000000012360000000001235000000000123810462000000000002858700000000003499432800000000000000009999123100000010000000000000BRCEABACNOR1102
012024040802CEBR3       010CEB         ON           R$  000000000212900000000021670000000002095000000000214400000000021570000000002062000000000215700022000000000000003600000000000007720800000000000000009999123100000010000000000000BRCEBRACNOR5124
012024040802CEBR5       010CEB         PNA          R$  000000000195000000000021040000000001870000000000195000000000019690000000001969000000000197000038000000000000012500000000000024384100000000000000009999123100000010000000000000BRCEBRACNPA8123
012024040802CEBR6       010CEB         PNB          R$  000000000212700000000021670000000002127000000000215200000000021460000000002140000000000216000032000000000000007600000000000016359500000000000000009999123100000010000000000000BRCEBRACNPB6123
012024040802CEDO4       010CEDRO       PN      N1   R$  000000000278600000000027860000000002784000000000278400000000027840000000002726000000000278400009000000000000002200000000000006126100000000000000009999123100000010000000000000BRCEDOACNPR5128
012024040802CEEB3       010COELBA      ON           R$  000000000394700000000039550000000003883000000000393300000000039550000000003852000000000395500004000000000000000400000000000001573200000000000000009999123100000010000000000000BRCEEBACNOR3197
012024040802CIEL3       010CIELO       ON      NM   R$  000000000054300000000005440000000000540000000000054200000000005420000000000541000000000054214070000000000016639800000000009023406400000000000000009999123100000010000000000000BRCIELACNOR3157
012024040802CLSA3       010CLEARSALE   ON      NM   R$  000000000060100000000006010000000000561000000000058200000000005670000000000566000000000056705530000000000002792500000000001627293500000000000000009999123100000010000000000000BRCLSAACNOR0100
012024040802CLSC3       010CELESC      ON      N2   R$  000000000650000000000066000000000006500000000000655000000000066000000000006450000000000660000002000000000000000200000000000001310000000000000000009999123100000010000000000000BRCLSCACNOR6150
012024040802CLSC4       010CELESC      PN      N2   R$  000000000680000000000068010000000006728000000000678300000000067510000000006720000000000679900031000000000000003900000000000026457300000000000000009999123100000010000000000000BRCLSCACNPR3129
012024040802CMIG3       010CEMIG       ON  EJ  N1   R$  000000000148700000000015150000000001487000000000151100000000015130000000001512000000000151500718000000000000825500000000001247878500000000000000009999123100000010000000000000BRCMIGACNOR6240
012024040802CMIG4       010CEMIG       PN  EJ  N1   R$  000000000128800000000013110000000001282000000000130200000000013050000000001305000000000130614303000000000007228600000000009414962300000000000000009999123100000010000000000000BRCMIGACNPR3241
012024040802ENEV3       010ENEVA       ON      NM   R$  000000000127700000000013060000000001270000000000129200000000012940000000001294000000000129509487000000000005330500000000006889214900000000000000009999123100000010000000000000BRENEVACNOR8105
012024040802ENGI11      010ENERGISA    UNT     N2   R$  000000000475400000000048210000000004729000000000479500000000048120000000004812000000000481509715000000000002258700000000010832589400000000000000009999123100000010000000000000BRENGICDAM16135
012024040802ENGI3       010ENERGISA    ON      N2   R$  000000000153500000000015510000000001521000000000153000000000015210000000001521000000000154500022000000000000003100000000000004743200000000000000009999123100000010000000000000BRENGIACNOR0145
012024040802ENGI4       010ENERGISA    PN      N2   R$  000000000080200000000008190000000000802000000000080900000000008080000000000808000000000082000028000000000000011900000000000009635900000000000000009999123100000010000000000000BRENGIACNPR7141
012024040802DASA3       010DASA        ON      NM   R$  000000000056700000000005670000000000549000000000055300000000005540000000000554000000000055601137000000000000222700000000000123309400000000000000009999123100000010000000000000BRDASAACNOR1122
012024040802DESK3       010DESKTOP     ON      NM   R$  000000000151300000000015280000000001497000000000151700000000015270000000001522000000000152800534000000000000090600000000000137518500000000000000009999123100000010000000000000BRDESKACNOR2103
012024040802DEXP3       010DEXXOS PAR  ON      N1   R$  000000000113900000000011590000000001121000000000113800000000011300000000001130000000000113700338000000000000092100000000000104881600000000000000009999123100000010000000000000BRDEXPACNOR1104
012024040802DEXP4       010DEXXOS PAR  PN      N1   R$  000000000113900000000011390000000001100000000000111200000000011000000000001100000000000111500016000000000000003400000000000003781100000000000000009999123100000010000000000000BRDEXPACNPR8104
012024040802BIOM3       010BIOMM       ON      MA   R$  000000000109000000000010910000000001022000000000105300000000010460000000001039000000000106900107000000000000013100000000000013798100000000000000009999123100000010000000000000BRBIOMACNOR2112
012024040802BEES3       010BANESTES    ON  EJ       R$  000000000088600000000009080000000000869000000000088600000000009010000000000900000000000090100129000000000000019000000000000016851600000000000000009999123100000010000000000000BRBEESACNOR9389
012024040802BEES4       010BANESTES    PN  EJ       R$  000000000097400000000009800000000000973000000000097500000000009760000000000973000000000097500012000000000000002600000000000002536200000000000000009999123100000010000000000000BRBEESACNPR6314
012024040802BGIP3       010BANESE      ON           R$  000000000274000000000027400000000002740000000000274000000000027400000000002740000000000280000001000000000000000100000000000000274000000000000000009999123100000010000000000000BRBGIPACNOR1208
012024040802BGIP4       010BANESE      PN           R$  000000000233900000000023400000000002281000000000230900000000023400000000002281000000000234000012000000000000002500000000000005772800000000000000009999123100000010000000000000BRBGIPACNPR8208
012024040802BHIA3       010CASAS BAHIA ON      NM   R$  000000000067800000000007090000000000678000000000069600000000007050000000000704000000000070505653000000000005203200000000003622731800000000000000009999123100000010000000000000BRBHIAACNOR1101
012024040802BRBI11      010BR PARTNERS UNT     N2   R$  000000000164000000000016680000000001627000000000164600000000016580000000001658000000000166001661000000000000262700000000000432509700000000000000009999123100000010000000000000BRBRBICDAM10108
012024040802BRFS3       010BRF SA      ON      NM   R$  000000000161700000000016930000000001615000000000167100000000016790000000001678000000000168013595000000000005427100000000009073093200000000000000009999123100000010000000000000BRBRFSACNOR8121
012024040802CSED3       010CRUZEIRO EDUON      NM   R$  000000000044400000000004560000000000440000000000045000000000004460000000000446000000000045501794000000000000447400000000000201697000000000000000009999123100000010000000000000BRCSEDACNOR9104
012024040802CSMG3       010COPASA      ON      NM   R$  000000000212100000000021680000000002121000000000214500000000021370000000002136000000000214505870000000000001408300000000003021835300000000000000009999123100000010000000000000BRCSMGACNOR5172
012024040802CSNA3       010SID NACIONALON           R$  000000000151700000000015600000000001517000000000153800000000015340000000001534000000000153516932000000000008628200000000013278512700000000000000009999123100000010000000000000BRCSNAACNOR6260
012024040802GGPS3       010GPS         ON      NM   R$  000000000200500000000020130000000001992000000000200000000000020040000000002003000000000200603466000000000001129800000000002260386400000000000000009999123100000010000000000000BRGGPSACNOR9102
012024040802GMAT3       010GRUPO MATEUSON  EJ  NM   R$  000000000082400000000008300000000000818000000000082300000000008240000000000823000000000082507918000000000004224600000000003477406300000000000000009999123100000010000000000000BRGMATACNOR7101
012024040802GOAU3       010GERDAU MET  ON      N1   R$  000000000108600000000011000000000001080000000000109300000000010930000000001093000000000109800197000000000000032900000000000035962700000000000000009999123100000010000000000000BRGOAUACNOR1266
012024040802GOAU4       010GERDAU MET  PN      N1   R$  000000000106400000000010870000000001061000000000108000000000010830000000001082000000000108409615000000000007236400000000007819907200000000000000009999123100000010000000000000BRGOAUACNPR8267
012024040802MRSA3B      010MRS LOGIST  ON      MB   R$  000000000280700000000028070000000002800000000000280100000000028000000000002620000000000400000003000000000000000400000000000001120700000000000000009999123100000010000000000000BRMRSAACNOR6124
012024040802MRSA5B      010MRS LOGIST  PNA     MB   R$  000000000260600000000026060000000002606000000000260600000000026060000000002606000000000800000001000000000000000100000000000000260600000000000000009999123100000010000000000000BRMRSAACNPA9124
012024040802MRSA6B      010MRS LOGIST  PNB     MB   R$  000000000260600000000026060000000002606000000000260600000000026060000000002606000000000800000001000000000000000100000000000000260600000000000000009999123100000010000000000000BRMRSAACNPB7124
012024040802MRVE3       010MRV         ON      NM   R$  000000000074000000000007530000000000734000000000074500000000007500000000000750000000000075110920000000000008724200000000006507736400000000000000009999123100000010000000000000BRMRVEACNOR2126
012024040802RAIZ4       010RAIZEN      PN      N2   R$  000000000033400000000003380000000000332000000000033500000000003360000000000335000000000033610573000000000015802900000000005295312300000000000000009999123100000010000000000000BRRAIZACNPR6110
012024040802RANI3       010IRANI       ON      NM   R$  000000000092500000000009490000000000923000000000093900000000009440000000000943000000000094802468000000000000942100000000000885250600000000000000009999123100000010000000000000BRRANIACNOR5070
012024040802RAPT3       010RANDON PART ON      N1   R$  000000000105300000000010930000000001049000000000106000000000010930000000001079000000000109400136000000000000039100000000000041453800000000000000009999123100000010000000000000BRRAPTACNOR7162
012024040802RAPT4       010RANDON PART PN      N1   R$  000000000126900000000013230000000001269000000000131200000000013170000000001316000000000131806307000000000001596700000000002095065700000000000000009999123100000010000000000000BRRAPTACNPR4162
012024040802RCSL3       010RECRUSUL    ON           R$  000000000016300000000001630000000000161000000000016100000000001620000000000161000000000016200453000000000000482400000000000078067200000000000000009999123100000010000000000000BRRCSLACNOR4133
012024040802RCSL4       010RECRUSUL    PN           R$  000000000006400000000000660000000000064000000000006500000000000650000000000065000000000006601635000000000001359300000000000088414300000000000000009999123100000010000000000000BRRCSLACNPR1133
012024040802RDNI3       010RNI         ON      NM   R$  000000000038500000000003850000000000372000000000037900000000003800000000000376000000000038100017000000000000014200000000000005384400000000000000009999123100000010000000000000BRRDNIACNOR9116
012024040802RDOR3       010REDE D OR   ON  EJ  NM   R$  000000000251200000000025480000000002492000000000251100000000025100000000002508000000000251511588000000000004350500000000010927515200000000000000009999123100000010000000000000BRRDORACNOR8112
012024040802TAEE11      010TAESA       UNT     N2   R$  000000000361000000000036360000000003605000000000362100000000036200000000003619000000000362206828000000000002747200000000009949673400000000000000009999123100000010000000000000BRTAEECDAM10145
012024040802TAEE3       010TAESA       ON      N2   R$  000000000119800000000012000000000001193000000000119700000000011980000000001198000000000120000442000000000000078800000000000094339700000000000000009999123100000010000000000000BRTAEEACNOR9145
012024040802TAEE4       010TAESA       PN      N2   R$  000000000121000000000012170000000001207000000000121200000000012120000000001212000000000121300496000000000000109800000000000133166500000000000000009999123100000010000000000000BRTAEEACNPR6145
012024040802TASA3       010TAURUS ARMASON      N2   R$  000000000131500000000013640000000001309000000000133000000000013640000000001339000000000137500084000000000000014000000000000018621500000000000000009999123100000010000000000000BRTASAACNOR7103
012024040802TASA4       010TAURUS ARMASPN      N2   R$  000000000127100000000013250000000001271000000000129900000000013220000000001318000000000132301414000000000000382400000000000496874300000000000000009999123100000010000000000000BRTASAACNPR4103
012024040802TCSA3       010TECNISA     ON      NM   R$  000000000028700000000002910000000000285000000000028700000000002900000000000287000000000029000206000000000000065200000000000018768300000000000000009999123100000010000000000000BRTCSAACNOR3112
012024040802TECN3       010TECHNOS     ON      NM   R$  000000000044500000000004690000000000427000000000044200000000004450000000000442000000000044501233000000000000375900000000000166290300000000000000009999123100000010000000000000BRTECNACNOR6109
012024040802TELB4       010TELEBRAS    PN           R$  000000000102000000000010510000000000999000000000101600000000010510000000001018000000000105100014000000000000004400000000000004474000000000000000009999123100000010000000000000BRTELBACNPR9140
012024040802TEND3       010TENDA       ON      NM   R$  000000000126600000000013290000000001246000000000129100000000013230000000001320000000000132307195000000000002296700000000002965113800000000000000009999123100000010000000000000BRTENDACNOR4111
012024040802TFCO4       010TRACK FIELD PN  EJ  N2   R$  000000000119000000000011940000000001168000000000118400000000011900000000001189000000000119000724000000000000109800000000000130056700000000000000009999123100000010000000000000BRTFCOACNPR8112
012024040802TGMA3       010TEGMA       ON      NM   R$  000000000274100000000027680000000002708000000000273800000000027400000000002739000000000274500879000000000000128500000000000351958500000000000000009999123100000010000000000000BRTGMAACNOR7143
012024040802TIMS3       010TIM         ON      NM   R$  000000000184700000000018630000000001834000000000185100000000018540000000001854000000000185511077000000000004575300000000008471778300000000000000009999123100000010000000000000BRTIMSACNOR5115
012024040802VAMO3       010VAMOS       ON      NM   R$  000000000080400000000008330000000000801000000000082200000000008220000000000821000000000082319270000000000006349600000000005222160500000000000000009999123100000010000000000000BRVAMOACNOR7105
012024040802VBBR3       010VIBRA       ON      NM   R$  000000000256000000000025920000000002532000000000257000000000025650000000002564000000000256528019000000000008159100000000020973312000000000000000009999123100000010000000000000BRVBBRACNOR1106
012024040802RADL3       010RAIADROGASILON  EJ  NM   R$  000000000261000000000026390000000002589000000000263100000000026390000000002631000000000263908806000000000004307700000000011335821100000000000000009999123100000010000000000000BRRADLACNOR0155
012024040802RAIL3       010RUMO S.A.   ON      NM   R$  000000000225200000000022830000000002234000000000227100000000022800000000002277000000000228115768000000000006435700000000014621832800000000000000009999123100000010000000000000BRRAILACNOR9104
012024040802GEPA4       010GER PARANAP PN           R$  000000000267000000000026700000000002650000000000265700000000026520000000002655000000000273100014000000000000001600000000000004251700000000000000009999123100000010000000000000BRGEPAACNPR9159
012024040802GFSA3       010GAFISA      ON      NM   R$  000000000063900000000006450000000000592000000000060700000000006020000000000600000000000060203135000000000003485200000000002118536400000000000000009999123100000010000000000000BRGFSAACNOR3124
012024040802SRNA3       010SERENA      ON      NM   R$  000000000096000000000009680000000000938000000000094400000000009410000000000941000000000094306400000000000003203600000000003025792400000000000000009999123100000010000000000000BRSRNAACNOR4100
012024040802STBP3       010SANTOS BRP  ON      NM   R$  000000000131900000000013780000000001318000000000135900000000013710000000001371000000000137513430000000000005820500000000007912906600000000000000009999123100000010000000000000BRSTBPACNOR3129
012024040802SUZB3       010SUZANO S.A. ON      NM   R$  000000000628000000000062920000000006235000000000625900000000062600000000006256000000000626215590000000000003183900000000019930236700000000000000009999123100000010000000000000BRSUZBACNOR0129
012024040802SYNE3       010SYN PROP TECON      NM   R$  000000000086600000000008800000000000858000000000087100000000008780000000000872000000000087801728000000000000397600000000000346417600000000000000009999123100000010000000000000BRSYNEACNOR2102
012024040802GGBR3       010GERDAU      ON      N1   R$  000000000203000000000020800000000002030000000000206600000000020670000000002063000000000207800208000000000000035700000000000073766400000000000000009999123100000010000000000000BRGGBRACNOR1190
012024040802GGBR4       010GERDAU      PN      N1   R$  000000000230000000000023400000000002287000000000231800000000023150000000002314000000000232526297000000000008785700000000020365501700000000000000009999123100000010000000000000BRGGBRACNPR8190
012024040802ITUB3       010ITAUUNIBANCOON  EJ  N1   R$  000000000285900000000029060000000002859000000000288500000000028800000000002880000000000288100978000000000000274200000000000791307100000000000000009999123100000010000000000000BRITUBACNOR4334
012024040802ITUB4       010ITAUUNIBANCOPN  EJ  N1   R$  000000000329600000000033530000000003289000000000332900000000033220000000003322000000000332429506000000000017031700000000056706613800000000000000009999123100000010000000000000BRITUBACNPR1334
012024040802AERI3       010AERIS       ON      NM   R$  000000000006300000000000640000000000061000000000006200000000000620000000000061000000000006201515000000000001401000000000000087541100000000000000009999123100000010000000000000BRAERIACNOR4101
012024040802AESB3       010AES BRASIL  ON      NM   R$  000000000098100000000009900000000000964000000000097400000000009840000000000983000000000098405139000000000002631100000000002565092600000000000000009999123100000010000000000000BRAESBACNOR7105
012024040802AFLT3       010AFLUENTE T  ON           R$  000000000074900000000007490000000000725000000000073100000000007250000000000726000000000076100003000000000000000400000000000000292600000000000000009999123100000010000000000000BRAFLTACNOR1120
012024040802AGRO3       010BRASILAGRO  ON      NM   R$  000000000248900000000025150000000002480000000000249300000000024940000000002493000000000251001659000000000000229600000000000572540500000000000000009999123100000010000000000000BRAGROACNOR7114
012024040802PRNR3       010PRINER      ON      NM   R$  000000000125000000000013180000000001240000000000128600000000013080000000001305000000000130804246000000000000975800000000001255355700000000000000009999123100000010000000000000BRPRNRACNOR4108
012024040802PSSA3       010PORTO SEGUROON  EDJ NM   R$  000000000315000000000031500000000003102000000000311900000000031310000000003131000000000313305700000000000000943100000000002941629600000000000000009999123100000010000000000000BRPSSAACNOR7154
012024040802AGXY3       010AGROGALAXY  ON      NM   R$  000000000020800000000002120000000000199000000000020200000000002000000000000200000000000020201316000000000000580300000000000117725000000000000000009999123100000010000000000000BRAGXYACNOR4102
012024040802ALLD3       010ALLIED      ON      NM   R$  000000000096000000000009600000000000942000000000095000000000009500000000000948000000000095000265000000000000156900000000000149185800000000000000009999123100000010000000000000BRALLDACNOR3105
012024040802ALOS3       010ALLOS       ON      NM   R$  000000000238200000000024140000000002375000000000239800000000024030000000002402000000000240309536000000000002838700000000006807267200000000000000009999123100000010000000000000BRALOSACNOR5100
012024040802CMIN3       010CSNMINERACAOON      N2   R$  000000000052000000000005380000000000517000000000053100000000005340000000000533000000000053414972000000000012286000000000006533904000000000000000009999123100000010000000000000BRCMINACNOR2110
012024040802COCE5       010COELCE      PNA          R$  000000000350400000000035530000000003440000000000348700000000035080000000003481000000000350800086000000000000013800000000000048123200000000000000009999123100000010000000000000BRCOCEACNPA3146
012024040802COGN3       010COGNA ON    ON      NM   R$  000000000022500000000002300000000000223000000000022600000000002290000000000228000000000022913548000000000015731600000000003570886700000000000000009999123100000010000000000000BRCOGNACNOR2104
012024040802PTBL3       010PORTOBELLO  ON      NM   R$  000000000064400000000006630000000000641000000000065200000000006540000000000654000000000065901358000000000000405900000000000264740100000000000000009999123100000010000000000000BRPTBLACNOR8132
012024040802PTNT3       010PETTENATI   ON           R$  000000000110100000000011050000000001086000000000109800000000010990000000001080000000000109900016000000000000001700000000000001868200000000000000009999123100000010000000000000BRPTNTACNOR6042
012024040802PTNT4       010PETTENATI   PN           R$  000000000076200000000007800000000000762000000000077300000000007750000000000763000000000077500022000000000000007700000000000005952100000000000000009999123100000010000000000000BRPTNTACNPR3047
012024040802QUAL3       010QUALICORP   ON      NM   R$  000000000015800000000001700000000000157000000000016500000000001670000000000167000000000016804243000000000006707700000000001107602500000000000000009999123100000010000000000000BRQUALACNOR6119
012024040802SMFT3       010SMART FIT   ON      NM   R$  000000000258800000000026350000000002576000000000261000000000026230000000002622000000000263504110000000000001250400000000003264661100000000000000009999123100000010000000000000BRSMFTACNOR1111
012024040802SMTO3       010SAO MARTINHOON      NM   R$  000000000302900000000031260000000003023000000000308100000000031000000000003100000000000310707934000000000002471100000000007615628700000000000000009999123100000010000000000000BRSMTOACNOR3125
012024040802ESPA3       010ESPACOLASER ON      NM   R$  000000000009700000000001050000000000097000000000010100000000001010000000000101000000000010200707000000000001218600000000000123663100000000000000009999123100000010000000000000BRESPAACNOR7103
012024040802ESTR4       010ESTRELA     PN           R$  000000000020700000000002210000000000207000000000021100000000002210000000000207000000000021500004000000000000000800000000000000168900000000000000009999123100000010000000000000BRESTRACNPR0144
012024040802EUCA3       010EUCATEX     ON      N1   R$  000000000168100000000017080000000001681000000000169900000000017080000000001690000000000170800017000000000000009600000000000016316200000000000000009999123100000010000000000000BREUCAACNOR1157
012024040802EUCA4       010EUCATEX     PN      N1   R$  000000000168100000000017200000000001657000000000169200000000016950000000001695000000000169900416000000000000070500000000000119327700000000000000009999123100000010000000000000BREUCAACNPR8044
012024040802EVEN3       010EVEN        ON      NM   R$  000000000080000000000008250000000000789000000000081600000000008230000000000820000000000082304682000000000000980200000000000800059300000000000000009999123100000010000000000000BREVENACNOR8118
012024040802SNSY3       010SANSUY      ON           R$  000000000105000000000010980000000001022000000000106000000000010500000000001022000000000108900020000000000000004400000000000004665900000000000000009999123100000010000000000000BRSNSYACNOR2113
012024040802SNSY5       010SANSUY      PNA          R$  000000000062500000000006300000000000612000000000062100000000006200000000000620000000000062800043000000000000035700000000000022181000000000000000009999123100000010000000000000BRSNSYACNPA5111
012024040802SOJA3       010BOA SAFRA   ON      NM   R$  000000000176500000000017760000000001705000000000172900000000017070000000001705000000000170703158000000000000658000000000001137863300000000000000009999123100000010000000000000BRSOJAACNOR9105
012024040802SOMA3       010GRUPO SOMA  ON      NM   R$  000000000067200000000006770000000000664000000000067000000000006690000000000669000000000067010505000000000009253300000000006200775300000000000000009999123100000010000000000000BRSOMAACNOR3102
012024040802SOND5       010SONDOTECNICAPNA          R$  000000000540000000000054650000000005400000000000543200000000054650000000005051000000000589500002000000000000000200000000000001086500000000000000009999123100000010000000000000BRSONDACNPA8165
012024040802TPIS3       010TRIUNFO PARTON      NM   R$  000000000038800000000003950000000000387000000000039000000000003920000000000392000000000039300129000000000000024200000000000009456000000000000000009999123100000010000000000000BRTPISACNOR8118
012024040802TRAD3       010TC          ON      NM   R$  000000000008600000000000930000000000084000000000008800000000000920000000000090000000000009200479000000000000674800000000000059793800000000000000009999123100000010000000000000BRTRADACNOR3101
012024040802TRIS3       010TRISUL      ON      NM   R$  000000000053200000000005540000000000526000000000053900000000005540000000000552000000000055400968000000000000440300000000000237684900000000000000009999123100000010000000000000BRTRISACNOR4116
012024040802TRPL3       010TRAN PAULISTON      N1   R$  000000000325900000000032700000000003259000000000326700000000032700000000003260000000000327000004000000000000000400000000000001306900000000000000009999123100000010000000000000BRTRPLACNOR4185
012024040802TRPL4       010TRAN PAULISTPN      N1   R$  000000000257000000000026110000000002560000000000259400000000025960000000002595000000000259908789000000000002192700000000005689769300000000000000009999123100000010000000000000BRTRPLACNPR1185
012024040802TTEN3       0103TENTOS     ON      NM   R$  000000000103800000000010500000000001029000000000103700000000010430000000001043000000000104402469000000000000704900000000000731442300000000000000009999123100000010000000000000BRTTENACNOR0103
012024040802TUPY3       010TUPY        ON      NM   R$  000000000283100000000029020000000002830000000000286700000000028880000000002887000000000288802525000000000000374800000000001074637800000000000000009999123100000010000000000000BRTUPYACNOR1183
012024040802SCAR3       010SAO CARLOS  ON      NM   R$  000000000270000000000027280000000002700000000000272000000000027260000000002629000000000272700004000000000000000400000000000001088000000000000000009999123100000010000000000000BRSCARACNOR7130
012024040802SEER3       010SER EDUCA   ON      NM   R$  000000000068400000000006840000000000664000000000067300000000006780000000000675000000000067800833000000000000333000000000000224373400000000000000009999123100000010000000000000BRSEERACNOR5119
012024040802SEQL3       010SEQUOIA LOG ON      NM   R$  000000000003100000000000330000000000030000000000003100000000000310000000000030000000000003101838000000000020518200000000000638231600000000000000009999123100000010000000000000BRSEQLACNOR2101
012024040802SGPS3       010SPRINGS     ON      NM   R$  000000000008200000000000830000000000080000000000008000000000000820000000000081000000000008200117000000000000173100000000000013994200000000000000009999123100000010000000000000BRSGPSACNOR4104
012024040802SHOW3       010TIME FOR FUNON      NM   R$  000000000026200000000002720000000000258000000000026700000000002700000000000266000000000027000551000000000000130000000000000034738000000000000000009999123100000010000000000000BRSHOWACNOR7105
012024040802SHUL4       010SCHULZ      PN  EJ       R$  000000000068900000000006920000000000681000000000068700000000006880000000000687000000000069101375000000000000340200000000000234046300000000000000009999123100000010000000000000BRSHULACNPR4155
012024040802LUPA3       010LUPATECH    ON      NM   R$  000000000017500000000001810000000000175000000000017800000000001800000000000179000000000018000423000000000000355700000000000063414100000000000000009999123100000010000000000000BRLUPAACNOR8112
012024040802LUXM4       010TREVISA     PN           R$  000000000156900000000015700000000001569000000000156900000000015700000000001456000000000156900002000000000000000200000000000000313900000000000000009999123100000010000000000000BRLUXMACNPR4051
012024040802LVTC3       010WDC NETWORKSON      NM   R$  000000000037700000000003810000000000375000000000037600000000003780000000000378000000000037900046000000000000019600000000000007387700000000000000009999123100000010000000000000BRLVTCACNOR4102
012024040802LWSA3       010LWSA        ON      NM   R$  000000000053000000000005380000000000520000000000052900000000005320000000000529000000000053208207000000000004600100000000002436325500000000000000009999123100000010000000000000BRLWSAACNOR8103
012024040802UCAS3       010UNICASA     ON      NM   R$  000000000026500000000002660000000000263000000000026500000000002630000000000263000000000026400062000000000000014600000000000003869100000000000000009999123100000010000000000000BRUCASACNOR1113
012024040802UGPA3       010ULTRAPAR    ON      NM   R$  000000000278400000000028620000000002768000000000284000000000028590000000002848000000000285910723000000000002682100000000007618100800000000000000009999123100000010000000000000BRUGPAACNOR8155
012024040802SIMH3       010SIMPAR      ON      NM   R$  000000000070200000000007280000000000701000000000072000000000007220000000000721000000000072205563000000000002525000000000001818747600000000000000009999123100000010000000000000BRSIMHACNOR0107
012024040802SLCE3       010SLC AGRICOLAON      NM   R$  000000000194100000000019550000000001931000000000193900000000019390000000001938000000000194007270000000000001757500000000003408217200000000000000009999123100000010000000000000BRSLCEACNOR2124
012024040802PFRM3       010PROFARMA    ON      NM   R$  000000000053700000000005480000000000532000000000053800000000005420000000000537000000000054200661000000000000264000000000000142180600000000000000009999123100000010000000000000BRPFRMACNOR1116
012024040802PGMN3       010PAGUE MENOS ON      NM   R$  000000000026800000000002740000000000267000000000027100000000002720000000000272000000000027402069000000000000623200000000000168916600000000000000009999123100000010000000000000BRPGMNACNOR8103
012024040802VITT3       010VITTIA      ON      NM   R$  000000000062100000000006860000000000621000000000065200000000006740000000000674000000000068102750000000000001267500000000000827568500000000000000009999123100000010000000000000BRVITTACNOR4106
012024040802PINE3       010PINE        ON      N2   R$  000000000072200000000007220000000000722000000000072200000000007220000000000670000000000071700001000000000000000100000000000000072200000000000000009999123100000010000000000000BRPINEACNOR1148
012024040802PINE4       010PINE        PN      N2   R$  000000000044400000000004530000000000444000000000044700000000004480000000000448000000000045000875000000000000246500000000000110428100000000000000009999123100000010000000000000BRPINEACNPR8148
012024040802PLAS3       010PLASCAR PARTON           R$  000000000073800000000007800000000000700000000000074600000000007800000000000735000000000077900017000000000000002100000000000001568000000000000000009999123100000010000000000000BRPLASACNOR2106
012024040802PLPL3       010PLANOEPLANO ON      NM   R$  000000000132500000000013520000000001322000000000133400000000013320000000001332000000000133402810000000000000649800000000000867238900000000000000009999123100000010000000000000BRPLPLACNOR5104
012024040802PNVL3       010DIMED       ON  EJ  NM   R$  000000000120500000000012220000000001193000000000121000000000012220000000001221000000000122401079000000000000229600000000000277966200000000000000009999123100000010000000000000BRPNVLACNOR9206
012024040802POMO3       010MARCOPOLO   ON      N2   R$  000000000058500000000005950000000000582000000000058800000000005910000000000591000000000059500583000000000000190000000000000111907100000000000000009999123100000010000000000000BRPOMOACNOR0097
012024040802POMO4       010MARCOPOLO   PN      N2   R$  000000000074300000000007600000000000736000000000075200000000007530000000000753000000000075408525000000000004020000000000003025204200000000000000009999123100000010000000000000BRPOMOACNPR7097
012024040802PORT3       010WILSON SONS ON      NM   R$  000000000178900000000017890000000001776000000000178300000000017850000000001781000000000178502103000000000000753700000000001344253200000000000000009999123100000010000000000000BRPORTACNOR8106
012024040802POSI3       010POSITIVO TECON      NM   R$  000000000103900000000010500000000001018000000000103900000000010400000000001039000000000104008789000000000002383000000000002476875500000000000000009999123100000010000000000000BRPOSIACNOR9115
012024040802PRIO3       010PETRORIO    ON      NM   R$  000000000504900000000050620000000004938000000000497600000000049660000000004965000000000496720194000000000007864100000000039139053700000000000000009999123100000010000000000000BRPRIOACNOR1106
012024040802SAPR11      010SANEPAR     UNT     N2   R$  000000000253300000000025740000000002524000000000255100000000025630000000002562000000000256602917000000000000589700000000001504589500000000000000009999123100000010000000000000BRSAPRCDAM13117
012024040802SAPR3       010SANEPAR     ON      N2   R$  000000000049000000000004960000000000488000000000049200000000004960000000000495000000000049600473000000000000201500000000000099171300000000000000009999123100000010000000000000BRSAPRACNOR9158
012024040802SAPR4       010SANEPAR     PN      N2   R$  000000000051000000000005180000000000510000000000051300000000005160000000000515000000000051701689000000000001467100000000000753127300000000000000009999123100000010000000000000BRSAPRACNPR6158
012024040802SBFG3       010GRUPO SBF   ON      NM   R$  000000000135200000000014290000000001352000000000138900000000013870000000001387000000000138811960000000000003245100000000004508453400000000000000009999123100000010000000000000BRSBFGACNOR1102
012024040802SBSP3       010SABESP      ON      NM   R$  000000000844600000000085200000000008390000000000845100000000084500000000008450000000000846310230000000000002145500000000018133287200000000000000009999123100000010000000000000BRSBSPACNOR5160
012024040802USIM5       010USIMINAS    PNA     N1   R$  000000000100200000000010560000000001001000000000103300000000010500000000001050000000000105121852000000000014644600000000015135377000000000000000009999123100000010000000000000BRUSIMACNPA6168
012024040802VVEO3       010VIVEO       ON      NM   R$  000000000069200000000007270000000000676000000000068400000000007150000000000715000000000072305488000000000005803700000000003974373300000000000000009999123100000010000000000000BRVVEOACNOR0103
012024040802WEGE3       010WEG         ON      NM   R$  000000000379500000000038350000000003774000000000381700000000038200000000003815000000000382109309000000000003081900000000011764660600000000000000009999123100000010000000000000BRWEGEACNOR0222
012024040802RECV3       010PETRORECSA  ON      NM   R$  000000000211000000000021400000000002069000000000211500000000021170000000002115000000000212017110000000000004477900000000009472262500000000000000009999123100000010000000000000BRRECVACNOR3105
012024040802REDE3       010REDE ENERGIAON           R$  000000000068700000000007140000000000687000000000070100000000007060000000000693000000000070400013000000000000001600000000000001122400000000000000009999123100000010000000000000BRREDEACNOR7127
012024040802RENT3       010LOCALIZA    ON  EJ  NM   R$  000000000532000000000054060000000005262000000000535700000000053900000000005380000000000539019563000000000005176400000000027733789600000000000000009999123100000010000000000000BRRENTACNOR4195
012024040802TOTS3       010TOTVS       ON      NM   R$  000000000284800000000028660000000002835000000000285200000000028420000000002842000000000285309681000000000002003000000000005714264800000000000000009999123100000010000000000000BRTOTSACNOR8144
012024040802VIVA3       010VIVARA S.A. ON      NM   R$  000000000245100000000024560000000002380000000000241900000000024560000000002443000000000245613081000000000004709800000000011396528100000000000000009999123100000010000000000000BRVIVAACNOR0106
012024040802VIVR3       010VIVER       ON      NM   R$  000000000031100000000003130000000000308000000000031100000000003110000000000310000000000031200074000000000000031300000000000009738600000000000000009999123100000010000000000000BRVIVRACNOR4122
012024040802VIVT3       010TELEF BRASILON  EJ       R$  000000000514700000000051820000000005104000000000514400000000051530000000005151000000000515805050000000000000950400000000004889038200000000000000009999123100000010000000000000BRVIVTACNOR0179
012024040802VLID3       010VALID       ON      NM   R$  000000000184400000000018730000000001814000000000185200000000018640000000001858000000000186801178000000000000225700000000000418195300000000000000009999123100000010000000000000BRVLIDACNOR5141
012024040802VSTE3       010VESTE       ON      NM   R$  000000000164300000000016740000000001619000000000163900000000016190000000001402000000000164400038000000000000005600000000000009183500000000000000009999123100000010000000000000BRVSTEACNOR5102
012024040802VULC3       010VULCABRAS   ON      NM   R$  000000000168000000000017190000000001657000000000169800000000017140000000001706000000000171404799000000000000983400000000001669972900000000000000009999123100000010000000000000BRVULCACNOR2158
012024040807NUTR3       010NUTRIPLANT  ON      MA   R$  000000000050900000000005100000000000495000000000050100000000004990000000000500000000000050600021000000000000002600000000000001302900000000000000009999123100000010000000000000BRNUTRACNOR0104
012024040807TXRX3       010TEX RENAUX  ON           R$  000000000084400000000008440000000000844000000000084400000000008440000000000200000000000340000001000000000000000100000000000000084400000000000000009999123100000010000000000000BRTXRXACNOR3142
012024040807TXRX4       010TEX RENAUX  PN           R$  000000000024000000000002400000000000240000000000024000000000002400000000000239000000000024700001000000000000000100000000000000024000000000000000009999123100000010000000000000BRTXRXACNPR0142
012024040808JFEN3       010JOAO FORTES ON           R$  000000000017800000000002050000000000175000000000019100000000001840000000000184000000000019800385000000000000120300000000000023052000000000000000009999123100000010000000000000BRJFENACNOR0058
012024040808NEXP3       010NEXPE       ON      NM   R$  000000000045400000000004540000000000454000000000045400000000004540000000000453000000000046900002000000000000000400000000000000181600000000000000009999123100000010000000000000BRNEXPACNOR0101
012024040808RSID3       010ROSSI RESID ON      NM   R$  000000000038000000000004000000000000379000000000038800000000004000000000000391000000000040000074000000000000014400000000000005590800000000000000009999123100000010000000000000BRRSIDACNOR8120
012024040808RNEW11      010RENOVA      UNT     N2   R$  000000000035000000000003510000000000333000000000033700000000003390000000000334000000000033900104000000000000024600000000000008301400000000000000009999123100000010000000000000BRRNEWCDAM15110
012024040808RNEW3       010RENOVA      ON      N2   R$  000000000011600000000001160000000000113000000000011300000000001130000000000113000000000011400138000000000000050100000000000005703100000000000000009999123100000010000000000000BRRNEWACNOR8110
012024040808RNEW4       010RENOVA      PN      N2   R$  000000000011500000000001160000000000112000000000011300000000001120000000000112000000000011300235000000000000168900000000000019132600000000000000009999123100000010000000000000BRRNEWACNPR5110
012024040808RPMG3       010PET MANGUINHON           R$  000000000020600000000002060000000000206000000000020600000000002060000000000206000000000020800003000000000000000900000000000000185400000000000000009999123100000010000000000000BRRPMGACNOR9194
012024040808HOOT4       010HOTEIS OTHONPN           R$  000000000028500000000002850000000000280000000000028000000000002840000000000281000000000028500010000000000000007000000000000001966200000000000000009999123100000010000000000000BRHOOTACNPR9015
012024040808OIBR3       010OI          ON      N1   R$  000000000006400000000000660000000000063000000000006400000000000640000000000064000000000006502399000000000008196200000000000528661500000000000000009999123100000010000000000000BROIBRACNOR1110
012024040808OIBR4       010OI          PN      N1   R$  000000000018600000000001910000000000185000000000018700000000001860000000000185000000000018600051000000000000049200000000000009207500000000000000009999123100000010000000000000BROIBRACNPR8109
012024040808OSXB3       010OSX BRASIL  ON      NM   R$  000000000041500000000004210000000000412000000000041800000000004170000000000414000000000041700015000000000000003600000000000001506300000000000000009999123100000010000000000000BROSXBACNOR8109
012024040808BDLL3       010BARDELLA    ON           R$  000000000125000000000012500000000001250000000000125000000000012500000000001200000000000150000001000000000000000100000000000000125000000000000000009999123100000010000000000000BRBDLLACNOR1149
012024040808BDLL4       010BARDELLA    PN           R$  000000000074000000000010000000000000740000000000089000000000008310000000000831000000000094000071000000000000008600000000000007661100000000000000009999123100000010000000000000BRBDLLACNPR8151
012024040808FRTA3       010POMIFRUTAS  ON      NM   R$  000000000013200000000001440000000000132000000000013800000000001440000000000140000000000014400020000000000000007700000000000001063600000000000000009999123100000010000000000000BRFRTAACNOR8103
012024040808AMER3       010AMERICANAS  ON      NM   R$  000000000005700000000000570000000000055000000000005600000000000560000000000056000000000005702445000000000006773100000000000380421900000000000000009999123100000010000000000000BRAMERACNOR6101
012024040808ATMP3       010ATMASA      ON           R$  000000000019900000000001990000000000190000000000019400000000001960000000000194000000000019600025000000000000006100000000000001187800000000000000009999123100000010000000000000BRATMPACNOR8100
012024040808LIGT3       010LIGHT S/A   ON      NM   R$  000000000052700000000005400000000000524000000000053000000000005290000000000527000000000053001807000000000000443700000000000235328500000000000000009999123100000010000000000000BRLIGTACNOR2124
012024040808ETER3       010ETERNIT     ON      NM   R$  000000000072700000000007340000000000724000000000072900000000007300000000000730000000000073400320000000000000062300000000000045421100000000000000009999123100000010000000000000BRETERACNOR3243
012024040808PMAM3       010PARANAPANEMAON      NM   R$  000000000032100000000003260000000000315000000000031900000000003160000000000315000000000031700166000000000000064100000000000020507500000000000000009999123100000010000000000000BRPMAMACNOR3038
012024040810ABCB10      010ABC BRASIL  PN  REC N2   R$  000000000244700000000024470000000002434000000000244200000000024450000000002432000000000000000005000000000000000600000000000001465700000000000000009999123100000010000000000000BRABCBR19PR1144
012024040810DMFN1       010DMFINANCEIRADIR ORD      R$  000000000002400000000000480000000000024000000000003800000000000310000000000031000000000003600043000000000000004900000000000000191000000000000000009999123100000010000000000000BRDMFND01OR1101
012024040810BGIP2       010BANESE      DIR PRE      R$  000000000004000000000000800000000000040000000000005800000000000690000000000069000000000000000020000000000000002100000000000000123400000000000000009999123100000010000000000000BRBGIPD07PR0207
012024040810GFSA1       010GAFISA      DIR ORD NM   R$  000000000000200000000000030000000000001000000000000100000000000020000000000001000000000000200148000000000003809700000000000007542300000000000000009999123100000010000000000000BRGFSAD10OR9123
012024040812ABCP11      010FII ABC IMOBCI  ER       R$  000000000756600000000076030000000007521000000000755700000000075250000000007521000000000752500132000000000000000603000000000004557438000000000000009999123100000010000000000000BRABCPCTF000337
012024040812CEOC11      010FII CEO CCP CI  ER       R$  000000000460300000000046030000000004551000000000458500000000045870000000004583000000000458700056000000000000000364000000000001669283000000000000009999123100000010000000000000BRCEOCCTF003213
012024040812CACR11      010CARTESIA FIICI  ER       R$  000000001034000000000104000000000010340000000001038000000000103980000000010390000000001039800709000000000000007892000000000081921295000000000000009999123100000010000000000000BRCACRCTF004130
012024040812CARE11      010FII DEA CARECI           R$  000000000021300000000002190000000000205000000000021300000000002120000000000209000000000021200257000000000000014633000000000003119891000000000000009999123100000010000000000000BRCARECTF000112
012024040812CBOP11      010FII C BRANCOCI  ER       R$  000000000299400000000029940000000002993000000000299300000000029930000000002950000000000299300010000000000000000021000000000000062858000000000000009999123100000010000000000000BRCBOPCTF001228
012024040812CCME11      010FII CANUMA  CI           R$  000000000110300000000011030000000001100000000000110200000000011030000000001101000000000110300046000000000000003224000000000003554347000000000000009999123100000010000000000000BRCCMECTF007119
012024040812EDFO11      010FII OURINVESCI  ER       R$  000000001980000000000198000000000019800000000001980000000000198000000000019600000000001980000001000000000000000010000000000000198000000000000000009999123100000010000000000000BREDFOCTF004321
012024040812EDGA11      010FII GALERIA CI           R$  000000000196000000000019640000000001901000000000192800000000019160000000001917000000000194000067000000000000002596000000000005006422000000000000009999123100000010000000000000BREDGACTF001239
012024040812GSFI11      010FII GENERAL CI           R$  000000000078400000000007850000000000782000000000078400000000007850000000000783000000000078500065000000000000005904000000000004632860000000000000009999123100000010000000000000BRGSFICTF009102
012024040812GTWR11      010FII G TOWERSCI  ER       R$  000000000841000000000085250000000008395000000000846100000000084200000000008425000000000842805505000000000000021440000000000181405180000000000000009999123100000010000000000000BRGTWRCTF003161
012024040812GZIT11      010FII GAZIT   CI           R$  000000000671000000000068450000000006690000000000672100000000066900000000006690000000000682501061000000000000005302000000000035635360000000000000009999123100000010000000000000BRGZITCTF005105
012024040812HAAA11      010FII HEDGEAAACI  ER       R$  000000000443300000000044330000000004217000000000422700000000042170000000004217000000000479800004000000000000000021000000000000088778000000000000009999123100000010000000000000BRHAAACTF003141
012024040812HABT11      010FII HABIT IICI  ER       R$  000000000924800000000094030000000009231000000000935100000000093930000000009382000000000939302025000000000000020847000000000194952589000000000000009999123100000010000000000000BRHABTCTF001158
012024040812HCHG11      010FII HECT CRICI  ER       R$  000000000751100000000075110000000007510000000000751000000000075100000000007510000000000767900002000000000000000002000000000000015021000000000000009999123100000010000000000000BRHCHGCTF001135
012024040812HCRI11      010FII CRIANCA CI           R$  000000003044500000000304450000000030115000000003023500000000303940000000030122000000003038900039000000000000000178000000000005381996000000000000009999123100000010000000000000BRHCRICTF006326
012024040812HCTR11      010FII HECTARE CI  ER       R$  000000000328000000000033100000000003117000000000321000000000032810000000003277000000000328117880000000000000130413000000000418686261000000000000009999123100000010000000000000BRHCTRCTF003168
012024040812HFOF11      010FII HTOPFOF3CI  ER       R$  000000000774300000000077800000000007736000000000775300000000077730000000007761000000000777303086000000000000013708000000000106282062000000000000009999123100000010000000000000BRHFOFCTF002187
012024040812HGBS11      010FII HEDGEBS CI  ER       R$  000000002293000000000229720000000022850000000002290700000000229660000000022966000000002297105241000000000000013208000000000302562391000000000000009999123100000010000000000000BRHGBSCTF000308
012024040812HGCR11      010FII CSHG CRICI  ER       R$  000000001054700000000105990000000010523000000001055500000000105430000000010538000000001054305844000000000000033093000000000349325956000000000000009999123100000010000000000000BRHGCRCTF000244
012024040812HGFF11      010FII CSHG FOFCI  ER       R$  000000000889000000000089770000000008872000000000891800000000089600000000008959000000000896000604000000000000005113000000000045598539000000000000009999123100000010000000000000BRHGFFCTF008158
012024040812HGIC11      010FII HGI CRI CI  ER       R$  000000000930500000000097490000000009305000000000938800000000097480000000009433000000000974800016000000000000000031000000000000291058000000000000009999123100000010000000000000BRHGICCTF009138
012024040812HGLG11      010FII CSHG LOGCI  ER       R$  000000001683000000000168500000000016780000000001680000000000167800000000016780000000001678208651000000000000041075000000000690078076000000000000009999123100000010000000000000BRHGLGCTF004269
012024040812HGPO11      010FII CSHGPRIMCI  ER       R$  000000003072800000000312490000000030728000000003101900000000312480000000030945000000003124700661000000000000001191000000000036943953000000000000009999123100000010000000000000BRHGPOCTF009159
012024040812HGRE11      010FII HG REAL CI  ER       R$  000000001300500000000130390000000012976000000001301900000000130200000000013020000000001302403952000000000000012515000000000162933098000000000000009999123100000010000000000000BRHGRECTF006290
012024040812HGRU11      010FII CSHG URBCI  ER       R$  000000001353000000000135610000000013401000000001346300000000134400000000013418000000001344006469000000000000034689000000000467036738000000000000009999123100000010000000000000BRHGRUCTF002174
