00COTAHIST.2024BOVESPA 20240301                                                                                                                                                                                                                      
012024030102NEOE3       010NEOENERGIA  ON      NM   R$  000000000216000000000021740000000002108000000000213000000000021270000000002117000000000212804536000000000000877900000000001870452600000000000000009999123100000010000000000000BRNEOEACNOR3121
012024030102ATOM3       010ATOMPAR     ON           R$  000000000019100000000001950000000000190000000000019100000000001910000000000191000000000019400041000000000000016000000000000003059100000000000000009999123100000010000000000000BRATOMACNOR1106
012024030102AURE3       010AUREN       ON      NM   R$  000000000128700000000012930000000001284000000000128700000000012850000000001285000000000128610361000000000006759100000000008702177000000000000000009999123100000010000000000000BRAUREACNOR9103
012024030102AFLT3       010AFLUENTE T  ON           R$  000000000077200000000007720000000000755000000000076400000000007570000000000757000000000077200034000000000000006600000000000005046200000000000000009999123100000010000000000000BRAFLTACNOR1120
012024030102AGRO3       010BRASILAGRO  ON      NM   R$  000000000238800000000024000000000002373000000000238800000000024000000000002377000000000240001854000000000000296900000000000709168100000000000000009999123100000010000000000000BRAGROACNOR7114
012024030102AGXY3       010AGROGALAXY  ON      NM   R$  000000000017300000000001780000000000173000000000017500000000001770000000000175000000000017700483000000000000152100000000000026739200000000000000009999123100000010000000000000BRAGXYACNOR4102
012024030102AHEB3       010SPTURIS     ON           R$  000000000160500000000016100000000001605000000000160700000000016100000000001605000000000161000004000000000000000500000000000000803500000000000000009999123100000010000000000000BRAHEBACNOR0106
012024030102ALLD3       010ALLIED      ON      NM   R$  000000000076000000000007600000000000725000000000073600000000007260000000000726000000000073400131000000000000024200000000000017823300000000000000009999123100000010000000000000BRALLDACNOR3105
012024030102ALOS3       010ALLOS       ON      NM   R$  000000000246900000000024690000000002419000000000244400000000024570000000002456000000000246009271000000000002915300000000007127834700000000000000009999123100000010000000000000BRALOSACNOR5100
012024030102ALPA3       010ALPARGATAS  ON      N1   R$  000000000107900000000010790000000001020000000000104900000000010200000000001005000000000104700008000000000000001300000000000001364100000000000000009999123100000010000000000000BRALPAACNOR0231
012024030102ALPA4       010ALPARGATAS  PN      N1   R$  000000000101700000000010320000000001004000000000101800000000010280000000001027000000000102805690000000000002659800000000002709923900000000000000009999123100000010000000000000BRALPAACNPR7232
012024030102ALPK3       010ESTAPAR     ON      NM   R$  000000000045600000000004620000000000427000000000044400000000004620000000000452000000000046201451000000000000329300000000000146346900000000000000009999123100000010000000000000BRALPKACNOR9101
012024030102ALUP11      010ALUPAR      UNT     N2   R$  000000000298000000000029940000000002945000000000297600000000029790000000002979000000000298504764000000000001147700000000003415781400000000000000009999123100000010000000000000BRALUPCDAM15117
012024030102ALUP3       010ALUPAR      ON      N2   R$  000000000099500000000009970000000000982000000000099100000000009940000000000988000000000099500091000000000000011100000000000011000200000000000000009999123100000010000000000000BRALUPACNOR8117
012024030102ALUP4       010ALUPAR      PN      N2   R$  000000000099500000000010000000000000985000000000099100000000009960000000000989000000000099600119000000000000020300000000000020128800000000000000009999123100000010000000000000BRALUPACNPR5117
012024030102AMAR3       010LOJAS MARISAON      NM   R$  000000000023000000000002350000000000224000000000022800000000002290000000000229000000000023001658000000000000675300000000000154270500000000000000009999123100000010000000000000BRAMARACNOR4114
012024030102AMBP3       010AMBIPAR     ON      NM   R$  000000000148000000000015470000000001464000000000151600000000015390000000001535000000000154103901000000000000915700000000001389111300000000000000009999123100000010000000000000BRAMBPACNOR6103
012024030102CMIN3       010CSNMINERACAOON      N2   R$  000000000060700000000006090000000000599000000000060200000000006020000000000601000000000060209545000000000004174100000000002513037400000000000000009999123100000010000000000000BRCMINACNOR2110
012024030102COCE5       010COELCE      PNA          R$  000000000427000000000042700000000004158000000000424000000000042230000000004221000000000424900308000000000000041000000000000173853500000000000000009999123100000010000000000000BRCOCEACNPA3146
012024030102COGN3       010COGNA ON    ON      NM   R$  000000000025300000000002610000000000253000000000025800000000002600000000000259000000000026023995000000000022472900000000005806968500000000000000009999123100000010000000000000BRCOGNACNOR2104
012024030102EKTR4       010ELEKTRO     PN           R$  000000000399000000000039900000000003901000000000396700000000039900000000003805000000000403000004000000000000000400000000000001587100000000000000009999123100000010000000000000BREKTRACNPR7159
012024030102ELET3       010ELETROBRAS  ON      N1   R$  000000000435300000000044140000000004330000000000436900000000043750000000004375000000000437614159000000000003472200000000015172913600000000000000009999123100000010000000000000BRELETACNOR6159
012024030102ELET5       010ELETROBRAS  PNA     N1   R$  000000000990000000000099000000000009900000000000990000000000099000000000008000000000000000000001000000000000000200000000000001980000000000000000009999123100000010000000000000BRELETACNPA9076
012024030102LUPA3       010LUPATECH    ON      NM   R$  000000000020100000000002220000000000201000000000021600000000002170000000000217000000000021801074000000000001425100000000000308201200000000000000009999123100000010000000000000BRLUPAACNOR8112
012024030102LUXM4       010TREVISA     PN           R$  000000000157800000000015780000000001578000000000157800000000015780000000001426000000000157900001000000000000000100000000000000157800000000000000009999123100000010000000000000BRLUXMACNPR4051
012024030102LVTC3       010WDC NETWORKSON      NM   R$  000000000038100000000003910000000000381000000000038400000000003890000000000386000000000038900062000000000000011600000000000004460000000000000000009999123100000010000000000000BRLVTCACNOR4102
012024030102LWSA3       010LWSA        ON      NM   R$  000000000055800000000005840000000000558000000000057500000000005750000000000575000000000057611109000000000006339000000000003648459200000000000000009999123100000010000000000000BRLWSAACNOR8103
012024030102BBSE3       010BBSEGURIDADEON      NM   R$  000000000333500000000033410000000003286000000000330100000000032920000000003292000000000329811501000000000005042800000000016649902300000000000000009999123100000010000000000000BRBBSEACNOR5124
012024030102BPAC11      010BTGP BANCO  UNT     N2   R$  000000000363100000000036400000000003586000000000360700000000036010000000003601000000000360916633000000000005564400000000020075324600000000000000009999123100000010000000000000BRBPACUNT006118
012024030102BPAC3       010BTGP BANCO  ON      N2   R$  000000000177000000000017700000000001745000000000175200000000017570000000001750000000000178000012000000000000001600000000000002804300000000000000009999123100000010000000000000BRBPACACNOR7133
012024030102BPAC5       010BTGP BANCO  PNA     N2   R$  000000000093200000000009370000000000918000000000092600000000009370000000000937000000000094000015000000000000002100000000000001945600000000000000009999123100000010000000000000BRBPACACNPA0133
012024030102ELMD3       010ELETROMIDIA ON      NM   R$  000000000163200000000016400000000001581000000000160500000000015950000000001590000000000160100290000000000000095300000000000153014000000000000000009999123100000010000000000000BRELMDACNOR3100
012024030102EMAE4       010EMAE        PN           R$  000000000664800000000068360000000006648000000000675200000000068360000000006790000000000683700032000000000000005500000000000037138100000000000000009999123100000010000000000000BREMAEACNPR1124
012024030102EMBR3       010EMBRAER     ON      NM   R$  000000000249300000000025930000000002472000000000254900000000025880000000002587000000000258836613000000000015705100000000040038583200000000000000009999123100000010000000000000BREMBRACNOR4191
012024030102MAPT3       010CEMEPE      ON           R$  000000000060500000000006050000000000605000000000060500000000006050000000000605000000000075000001000000000000000100000000000000060500000000000000009999123100000010000000000000BRMAPTACNOR8106
012024030102MAPT4       010CEMEPE      PN           R$  000000000061000000000006100000000000586000000000059200000000005870000000000590000000000060500004000000000000000500000000000000296000000000000000009999123100000010000000000000BRMAPTACNPR5106
012024030102MATD3       010MATER DEI   ON      NM   R$  000000000062800000000006460000000000621000000000062900000000006400000000000635000000000064003157000000000001108300000000000698164000000000000000009999123100000010000000000000BRMATDACNOR4103
012024030102MBLY3       010MOBLY       ON      NM   R$  000000000024500000000002490000000000227000000000023300000000002270000000000226000000000022802211000000000000970500000000000226945400000000000000009999123100000010000000000000BRMBLYACNOR5100
012024030102MDIA3       010M.DIASBRANCOON      NM   R$  000000000412000000000041220000000003994000000000404500000000040360000000004033000000000404104204000000000000857800000000003470184500000000000000009999123100000010000000000000BRMDIAACNOR7133
012024030102MDNE3       010MOURA DUBEUXON      NM   R$  000000000130400000000013090000000001245000000000127200000000012790000000001261000000000127902200000000000000648000000000000824319200000000000000009999123100000010000000000000BRMDNEACNOR9100
012024030102MEAL3       010IMC S/A     ON      NM   R$  000000000021400000000002180000000000212000000000021500000000002180000000000216000000000021801546000000000001338700000000000287988500000000000000009999123100000010000000000000BRMEALACNOR9105
012024030102MELK3       010MELNICK     ON      NM   R$  000000000047400000000004860000000000467000000000047800000000004860000000000482000000000048600756000000000000158100000000000075698200000000000000009999123100000010000000000000BRMELKACNOR8110
012024030102PDGR3       010PDG REALT   ON      NM   R$  000000000003100000000000320000000000030000000000003000000000000310000000000030000000000003100287000000000000748000000000000023107300000000000000009999123100000010000000000000BRPDGRACNOR8118
012024030102PDTC3       010PADTEC      ON      NM   R$  000000000035900000000003680000000000350000000000035700000000003570000000000354000000000035700149000000000000081000000000000028940700000000000000009999123100000010000000000000BRPDTCACNOR3100
012024030102PEAB4       010PAR AL BAHIAPN           R$  000000000484000000000048500000000004840000000000484500000000048500000000004000000000000488900002000000000000000400000000000001938000000000000000009999123100000010000000000000BRPEABACNPR0131
012024030102PETR3       010PETROBRAS   ON      N2   R$  000000000413800000000041860000000004118000000000415000000000041210000000004121000000000413017730000000000009661400000000040097060900000000000000009999123100000010000000000000BRPETRACNOR9202
012024030102PETR4       010PETROBRAS   PN  ATZ N2   R$  000000000403500000000040850000000004014000000000404700000000040180000000004017000000000401844339000000000031239900000000126444237300000000000000009999123100000010000000000000BRPETRACNPR6210
012024030102NGRD3       010NEOGRID     ON      NM   R$  000000000011900000000001200000000000111000000000011400000000001120000000000112000000000011301287000000000000721900000000000082613700000000000000009999123100000010000000000000BRNGRDACNOR3103
012024030102NINJ3       010GETNINJAS   ON      NM   R$  000000000050900000000005090000000000505000000000050500000000005060000000000505000000000050600349000000000000114900000000000058061000000000000000009999123100000010000000000000BRNINJACNOR5101
012024030102NORD3       010NORDON MET  ON           R$  000000000116900000000011690000000001169000000000116900000000011690000000001168000000000120000002000000000000000200000000000000233800000000000000009999123100000010000000000000BRNORDACNOR7135
012024030102NTCO3       010GRUPO NATURAON      NM   R$  000000000163800000000016620000000001634000000000164800000000016620000000001655000000000166314464000000000004861200000000008011824000000000000000009999123100000010000000000000BRNTCOACNOR5104
012024030102BLAU3       010BLAU        ON      NM   R$  000000000124900000000012930000000001237000000000127200000000012750000000001275000000000128201733000000000000328200000000000417721400000000000000009999123100000010000000000000BRBLAUACNOR8111
012024030102BMEB3       010MERCANTIL   ON      N1   R$  000000000297300000000029730000000002900000000000293200000000029000000000002704000000000290000007000000000000001000000000000002932300000000000000009999123100000010000000000000BRBMEBACNOR8205
012024030102BMEB4       010MERCANTIL   PN      N1   R$  000000000325000000000032500000000002987000000000311100000000030300000000003026000000000308600245000000000000052800000000000164297800000000000000009999123100000010000000000000BRBMEBACNPR5210
012024030102BMGB4       010BANCO BMG   PN      N1   R$  000000000039900000000004000000000000393000000000039600000000004000000000000398000000000040001335000000000000531200000000000210857700000000000000009999123100000010000000000000BRBMGBACNPR0108
012024030102BMIN4       010MERC INVEST PN           R$  000000000164900000000016490000000001537000000000163400000000016300000000001565000000000164500017000000000000003200000000000005231200000000000000009999123100000010000000000000BRBMINACNPR1176
012024030102BMKS3       010BIC MONARK  ON           R$  000000003600000000000366000000000036000000000003602400000000366000000000036000000000003660000004000000000000000025000000000000900600000000000000009999123100000010000000000000BRBMKSACNOR9165
012024030102BMOB3       010BEMOBI TECH ON      NM   R$  000000000134700000000013680000000001344000000000135300000000013520000000001352000000000135501585000000000000243000000000000328918500000000000000009999123100000010000000000000BRBMOBACNOR7103
012024030102BNBR3       010NORD BRASIL ON           R$  000000001170000000000117000000000011700000000001170000000000117000000000009008000000001219900001000000000000000100000000000001170000000000000000009999123100000010000000000000BRBNBRACNOR8206
012024030102BRSR3       010BANRISUL    ON      N1   R$  000000000152700000000015280000000001423000000000146600000000014600000000001460000000000149000082000000000000019500000000000028604200000000000000009999123100000010000000000000BRBRSRACNOR3185
012024030102BRSR6       010BANRISUL    PNB     N1   R$  000000000151100000000015150000000001460000000000148100000000014910000000001486000000000149209176000000000003777600000000005597474500000000000000009999123100000010000000000000BRBRSRACNPB4188
012024030102CTKA3       010KARSTEN     ON           R$  000000000170000000000017000000000001700000000000170000000000017000000000001500000000000190000002000000000000000200000000000000340000000000000000009999123100000010000000000000BRCTKAACNOR0043
012024030102CTNM3       010COTEMINAS   ON           R$  000000000086700000000009150000000000867000000000086900000000009150000000000850000000000091500004000000000000001700000000000001478800000000000000009999123100000010000000000000BRCTNMACNOR9130
012024030102CTNM4       010COTEMINAS   PN           R$  000000000013300000000001330000000000132000000000013200000000001320000000000132000000000013400038000000000000013600000000000001803300000000000000009999123100000010000000000000BRCTNMACNPR6129
012024030102CTSA3       010SANTANENSE  ON           R$  000000000031900000000003240000000000305000000000031800000000003200000000000310000000000032000035000000000000006200000000000001976900000000000000009999123100000010000000000000BRCTSAACNOR3062
012024030102CTSA4       010SANTANENSE  PN           R$  000000000017000000000001730000000000170000000000017100000000001720000000000170000000000017200027000000000000005500000000000000944100000000000000009999123100000010000000000000BRCTSAACNPR0062
012024030102CURY3       010CURY S/A    ON      NM   R$  000000000192400000000019370000000001905000000000191700000000019150000000001906000000000191505629000000000001001100000000001919393400000000000000009999123100000010000000000000BRCURYACNOR3107
012024030102CVCB3       010CVC BRASIL  ON      NM   R$  000000000033400000000003470000000000332000000000034000000000003430000000000340000000000034311787000000000023285000000000007934727700000000000000009999123100000010000000000000BRCVCBACNOR1115
012024030102CXSE3       010CAIXA SEGURION      NM   R$  000000000143700000000014570000000001425000000000144500000000014460000000001446000000000144914339000000000005224400000000007552645600000000000000009999123100000010000000000000BRCXSEACNOR7105
012024030102CYRE3       010CYRELA REALTON      NM   R$  000000000240200000000024690000000002384000000000243500000000024470000000002442000000000244813382000000000006315900000000015383653200000000000000009999123100000010000000000000BRCYREACNOR7139
012024030102GGBR3       010GERDAU      ON      N1   R$  000000000202100000000020550000000001996000000000203900000000020350000000002035000000000204900634000000000000109700000000000223745000000000000000009999123100000010000000000000BRGGBRACNOR1189
012024030102GGBR4       010GERDAU      PN      N1   R$  000000000215800000000022430000000002158000000000221400000000022430000000002240000000000224448056000000000026132300000000057860285300000000000000009999123100000010000000000000BRGGBRACNPR8189
012024030102MILS3       010MILLS       ON      NM   R$  000000000124900000000012730000000001244000000000126300000000012690000000001264000000000126904167000000000000968200000000001223327100000000000000009999123100000010000000000000BRMILSACNOR2124
012024030102MLAS3       010MULTILASER  ON      NM   R$  000000000022400000000002340000000000219000000000022400000000002190000000000218000000000021903499000000000002419100000000000544043400000000000000009999123100000010000000000000BRMLASACNOR9101
012024030102MNDL3       010MUNDIAL     ON           R$  000000000410000000000041490000000004100000000000412600000000041480000000004050000000000415000006000000000000001100000000000004538900000000000000009999123100000010000000000000BRMNDLACNOR4107
012024030102MOVI3       010MOVIDA      ON      NM   R$  000000000085800000000008690000000000841000000000085100000000008480000000000847000000000084906036000000000002920200000000002485173700000000000000009999123100000010000000000000BRMOVIACNOR0122
012024030102PRNR3       010PRINER      ON      NM   R$  000000000113100000000011370000000001110000000000112600000000011360000000001136000000000113701116000000000000205500000000000231567300000000000000009999123100000010000000000000BRPRNRACNOR4108
012024030102PSSA3       010PORTO SEGUROON      NM   R$  000000000285700000000028640000000002825000000000284900000000028610000000002859000000000286208495000000000002157900000000006148818300000000000000009999123100000010000000000000BRPSSAACNOR7153
012024030102PTBL3       010PORTOBELLO  ON      NM   R$  000000000059600000000006260000000000593000000000061100000000006200000000000614000000000062002215000000000001026300000000000627263000000000000000009999123100000010000000000000BRPTBLACNOR8132
012024030102PTNT3       010PETTENATI   ON           R$  000000000124500000000012460000000001245000000000124500000000012460000000001141000000000124600002000000000000000200000000000000249100000000000000009999123100000010000000000000BRPTNTACNOR6042
012024030102PTNT4       010PETTENATI   PN           R$  000000000080000000000008000000000000780000000000078200000000007800000000000763000000000078000012000000000000004300000000000003362600000000000000009999123100000010000000000000BRPTNTACNPR3047
012024030102QUAL3       010QUALICORP   ON      NM   R$  000000000023700000000002640000000000234000000000025400000000002560000000000253000000000025611108000000000017949700000000004562942500000000000000009999123100000010000000000000BRQUALACNOR6119
012024030102SMFT3       010SMART FIT   ON      NM   R$  000000000244600000000025440000000002438000000000251300000000025300000000002523000000000253509822000000000002216300000000005571649800000000000000009999123100000010000000000000BRSMFTACNOR1111
012024030102SMTO3       010SAO MARTINHOON      NM   R$  000000000281900000000028320000000002701000000000273600000000027010000000002700000000000270117830000000000004668700000000012777241300000000000000009999123100000010000000000000BRSMTOACNOR3125
012024030102SNSY3       010SANSUY      ON           R$  000000000108000000000011090000000001035000000000105300000000010460000000001045000000000107000044000000000000008400000000000008851500000000000000009999123100000010000000000000BRSNSYACNOR2113
012024030102SNSY5       010SANSUY      PNA          R$  000000000052100000000005210000000000518000000000051900000000005180000000000493000000000051900003000000000000000300000000000000155800000000000000009999123100000010000000000000BRSNSYACNPA5111
012024030102SOJA3       010BOA SAFRA   ON      NM   R$  000000000153000000000015440000000001443000000000149800000000015060000000001505000000000150601399000000000001250800000000001874397300000000000000009999123100000010000000000000BRSOJAACNOR9105
012024030102SOMA3       010GRUPO SOMA  ON      NM   R$  000000000070300000000007100000000000691000000000070100000000007100000000000707000000000071108431000000000007682500000000005390554800000000000000009999123100000010000000000000BRSOMAACNOR3102
012024030102SRNA3       010SERENA      ON      NM   R$  000000000094000000000009600000000000881000000000091500000000008890000000000888000000000089006147000000000003241800000000002966558100000000000000009999123100000010000000000000BRSRNAACNOR4100
012024030102STBP3       010SANTOS BRP  ON      NM   R$  000000000105700000000010650000000001039000000000105300000000010610000000001054000000000106211483000000000005449500000000005739584000000000000000009999123100000010000000000000BRSTBPACNOR3128
012024030102SUZB3       010SUZANO S.A. ON      NM   R$  000000000564500000000057630000000005640000000000570400000000057490000000005747000000000574921191000000000007526900000000042935871000000000000000009999123100000010000000000000BRSUZBACNOR0129
012024030102PORT3       010WILSON SONS ON      NM   R$  000000000173100000000017420000000001723000000000173000000000017410000000001733000000000174101400000000000000628900000000001088343100000000000000009999123100000010000000000000BRPORTACNOR8106
012024030102POSI3       010POSITIVO TECON      NM   R$  000000000080200000000008440000000000802000000000082700000000008200000000000819000000000082004830000000000001737600000000001438158000000000000000009999123100000010000000000000BRPOSIACNOR9115
012024030102PRIO3       010PETRORIO    ON      NM   R$  000000000440600000000045090000000004403000000000445800000000044350000000004435000000000445016035000000000004751800000000021185757900000000000000009999123100000010000000000000BRPRIOACNOR1106
012024030102SEER3       010SER EDUCA   ON      NM   R$  000000000063000000000006480000000000629000000000064100000000006450000000000641000000000064601667000000000000604300000000000387791100000000000000009999123100000010000000000000BRSEERACNOR5119
012024030102SEQL3       010SEQUOIA LOG ON      NM   R$  000000000004500000000000460000000000043000000000004400000000000440000000000043000000000004403668000000000009058700000000000400528500000000000000009999123100000010000000000000BRSEQLACNOR2101
012024030102VALE3       010VALE        ON      NM   R$  000000000668900000000067060000000006637000000000666700000000066880000000006685000000000668848056000000000022404100000000149385755800000000000000009999123100000010000000000000BRVALEACNOR0209
012024030102ZAMP3       010ZAMP S.A.   ON           R$  000000000041700000000004250000000000410000000000041400000000004190000000000417000000000041903748000000000000658500000000000272991900000000000000009999123100000010000000000000BRZAMPACNOR5100
012024030102ROMI3       010ROMI        ON      NM   R$  000000000126700000000012800000000001256000000000126800000000012560000000001256000000000126301203000000000000300700000000000381372600000000000000009999123100000010000000000000BRROMIACNOR8192
012024030102RPAD3       010ALFA HOLDINGON           R$  000000000080000000000008360000000000800000000000083500000000008360000000000836000000000096000003000000000000006100000000000005096000000000000000009999123100000010000000000000BRRPADACNOR1198
012024030102RPAD5       010ALFA HOLDINGPNA          R$  000000000083500000000008990000000000835000000000084700000000008990000000000808000000000087800002000000000000000500000000000000423900000000000000009999123100000010000000000000BRRPADACNPA4218
012024030102RPAD6       010ALFA HOLDINGPNB          R$  000000000076000000000008360000000000760000000000082800000000008360000000000836000000000084400016000000000000009200000000000007624300000000000000009999123100000010000000000000BRRPADACNPB2198
012024030102RRRP3       0103R PETROLEUMON      NM   R$  000000000281100000000028660000000002811000000000283600000000028260000000002824000000000282707052000000000002090000000000005929247500000000000000009999123100000010000000000000BRRRRPACNOR5102
012024030102UNIP3       010UNIPAR      ON           R$  000000000632100000000063350000000006292000000000631400000000063000000000006300000000000631900029000000000000003400000000000021469800000000000000009999123100000010000000000000BRUNIPACNOR7204
012024030102UNIP6       010UNIPAR      PNB          R$  000000000663000000000067000000000006617000000000665300000000066860000000006657000000000668901139000000000000159300000000001059858700000000000000009999123100000010000000000000BRUNIPACNPB8204
012024030102USIM3       010USIMINAS    ON      N1   R$  000000000108000000000010900000000001073000000000108500000000010860000000001084000000000108701959000000000001354300000000001469796600000000000000009999123100000010000000000000BRUSIMACNOR3166
012024030102USIM5       010USIMINAS    PNA     N1   R$  000000000110200000000011270000000001100000000000111500000000011110000000001110000000000111218666000000000011319800000000012628744000000000000000009999123100000010000000000000BRUSIMACNPA6168
012024030102WEST3       010WESTWING    ON      NM   R$  000000000012300000000001240000000000121000000000012300000000001240000000000122000000000012300043000000000000028100000000000003464900000000000000009999123100000010000000000000BRWESTACNOR3100
012024030102WHRL3       010WHIRLPOOL   ON           R$  000000000042000000000004200000000000420000000000042000000000004200000000000415000000000042300001000000000000000700000000000000294000000000000000009999123100000010000000000000BRWHRLACNOR5128
012024030102WHRL4       010WHIRLPOOL   PN           R$  000000000045600000000004610000000000455000000000045600000000004570000000000455000000000045700014000000000000002600000000000001187300000000000000009999123100000010000000000000BRWHRLACNPR2128
012024030102WIZC3       010WIZ CO      ON      NM   R$  000000000062100000000006350000000000618000000000062800000000006350000000000630000000000063501638000000000000325000000000000204185600000000000000009999123100000010000000000000BRWIZCACNOR5101
012024030102WLMM4       010WLM IND COM PN           R$  000000000257000000000025700000000002503000000000250700000000025030000000002451000000000250300015000000000000003400000000000008525200000000000000009999123100000010000000000000BRWLMMACNPR3117
012024030102YDUQ3       010YDUQS PART  ON      NM   R$  000000000204300000000020790000000002029000000000204900000000020560000000002056000000000205707094000000000001932500000000003961559900000000000000009999123100000010000000000000BRYDUQACNOR3104
012024030102RAPT3       010RANDON PART ON      N1   R$  000000000106700000000010770000000001064000000000107300000000010730000000001062000000000107300027000000000000007600000000000008155600000000000000009999123100000010000000000000BRRAPTACNOR7162
012024030102RAPT4       010RANDON PART PN      N1   R$  000000000110100000000011340000000001100000000000111400000000011080000000001105000000000111006897000000000001639500000000001827867600000000000000009999123100000010000000000000BRRAPTACNPR4162
012024030102RCSL3       010RECRUSUL    ON           R$  000000000017900000000001830000000000177000000000017900000000001770000000000177000000000017901343000000000001192500000000000213762300000000000000009999123100000010000000000000BRRCSLACNOR4133
012024030102RCSL4       010RECRUSUL    PN           R$  000000000007200000000000730000000000071000000000007200000000000720000000000071000000000007202702000000000001862600000000000134323200000000000000009999123100000010000000000000BRRCSLACNPR1133
012024030102RDNI3       010RNI         ON      NM   R$  000000000041600000000004270000000000416000000000042100000000004180000000000418000000000042500008000000000000001100000000000000464000000000000000009999123100000010000000000000BRRDNIACNOR9116
012024030102RDOR3       010REDE D OR   ON      NM   R$  000000000253800000000025600000000002510000000000254100000000025430000000002540000000000254306989000000000004947900000000012573140500000000000000009999123100000010000000000000BRRDORACNOR8111
012024030102RECV3       010PETRORECSA  ON      NM   R$  000000000230900000000023780000000002306000000000234800000000023390000000002335000000000234707221000000000001561000000000003666722700000000000000009999123100000010000000000000BRRECVACNOR3105
012024030102REDE3       010REDE ENERGIAON           R$  000000000068400000000006890000000000670000000000068000000000006830000000000683000000000068600030000000000000004200000000000002859200000000000000009999123100000010000000000000BRREDEACNOR7126
012024030102RENT3       010LOCALIZA    ON      NM   R$  000000000530100000000053620000000005250000000000527900000000052500000000005249000000000525518731000000000005903200000000031163698700000000000000009999123100000010000000000000BRRENTACNOR4194
012024030102TOTS3       010TOTVS       ON      NM   R$  000000000308300000000031310000000003083000000000310700000000031160000000003112000000000311610713000000000004181300000000012994722800000000000000009999123100000010000000000000BRTOTSACNOR8144
012024030102TPIS3       010TRIUNFO PARTON      NM   R$  000000000039500000000004000000000000388000000000039200000000003990000000000390000000000039900134000000000000033700000000000013232200000000000000009999123100000010000000000000BRTPISACNOR8118
012024030102TRAD3       010TC          ON      NM   R$  000000000009200000000001000000000000092000000000009400000000000930000000000092000000000009301029000000000001239100000000000117378300000000000000009999123100000010000000000000BRTRADACNOR3101
012024030102TRIS3       010TRISUL      ON      NM   R$  000000000047900000000004940000000000475000000000048800000000004940000000000489000000000049501502000000000000469300000000000229021000000000000000009999123100000010000000000000BRTRISACNOR4116
012024030102TRPL3       010TRAN PAULISTON      N1   R$  000000000325100000000032910000000003200000000000324300000000032070000000003207000000000327700040000000000000004800000000000015567800000000000000009999123100000010000000000000BRTRPLACNOR4185
012024030102TRPL4       010TRAN PAULISTPN      N1   R$  000000000258200000000025870000000002550000000000256600000000025620000000002559000000000256409870000000000001595800000000004095846800000000000000009999123100000010000000000000BRTRPLACNPR1185
012024030102TTEN3       0103TENTOS     ON  ED  NM   R$  000000000106800000000010840000000001061000000000107600000000010720000000001072000000000107407099000000000001501000000000001615120100000000000000009999123100000010000000000000BRTTENACNOR0103
012024030102TUPY3       010TUPY        ON      NM   R$  000000000256800000000025910000000002532000000000256100000000025690000000002562000000000256903427000000000000610200000000001563332100000000000000009999123100000010000000000000BRTUPYACNOR1183
012024030102UCAS3       010UNICASA     ON      NM   R$  000000000026600000000002740000000000265000000000026900000000002670000000000267000000000027100074000000000000033300000000000008987200000000000000009999123100000010000000000000BRUCASACNOR1113
012024030102UGPA3       010ULTRAPAR    ON      NM   R$  000000000292800000000029500000000002899000000000293200000000029410000000002940000000000294617252000000000005358000000000015710979300000000000000009999123100000010000000000000BRUGPAACNOR8154
012024030102VVEO3       010VIVEO       ON      NM   R$  000000000084500000000008550000000000831000000000084700000000008470000000000847000000000085403708000000000001006200000000000852442500000000000000009999123100000010000000000000BRVVEOACNOR0103
012024030102WEGE3       010WEG         ON  ED  NM   R$  000000000367800000000037580000000003677000000000373000000000037290000000003729000000000373321140000000000006120900000000022832511300000000000000009999123100000010000000000000BRWEGEACNOR0221
012024030102RAIZ4       010RAIZEN      PN      N2   R$  000000000035600000000003680000000000354000000000036100000000003570000000000356000000000035715297000000000025448800000000009188578700000000000000009999123100000010000000000000BRRAIZACNPR6109
012024030102RANI3       010IRANI       ON      NM   R$  000000000091600000000009310000000000881000000000089300000000008820000000000882000000000088312757000000000004599700000000004110727400000000000000009999123100000010000000000000BRRANIACNOR5069
012024030102TASA3       010TAURUS ARMASON      N2   R$  000000000141500000000014370000000001415000000000143100000000014250000000001424000000000143000066000000000000017900000000000025620900000000000000009999123100000010000000000000BRTASAACNOR7103
012024030102TASA4       010TAURUS ARMASPN      N2   R$  000000000140900000000014530000000001409000000000143400000000014330000000001427000000000143401261000000000000502200000000000720267800000000000000009999123100000010000000000000BRTASAACNPR4103
012024030102TCSA3       010TECNISA     ON      NM   R$  000000000028500000000002890000000000283000000000028500000000002880000000000284000000000028800165000000000000109400000000000031277400000000000000009999123100000010000000000000BRTCSAACNOR3112
012024030102VITT3       010VITTIA      ON      NM   R$  000000000073400000000007450000000000726000000000073700000000007430000000000734000000000074401860000000000000252700000000000186487400000000000000009999123100000010000000000000BRVITTACNOR4106
012024030102VIVA3       010VIVARA S.A. ON      NM   R$  000000000323500000000032730000000003197000000000322200000000032310000000003227000000000323209436000000000001691700000000005451811600000000000000009999123100000010000000000000BRVIVAACNOR0106
012024030102VIVR3       010VIVER       ON      NM   R$  000000000031300000000003200000000000305000000000031200000000003110000000000311000000000031600306000000000000143400000000000044822600000000000000009999123100000010000000000000BRVIVRACNOR4122
012024030102VIVT3       010TELEF BRASILON           R$  000000000545100000000054760000000005391000000000542800000000053990000000005394000000000539910650000000000002360300000000012813193400000000000000009999123100000010000000000000BRVIVTACNOR0178
012024030102VLID3       010VALID       ON      NM   R$  000000000185400000000019120000000001854000000000189400000000018970000000001895000000000190903603000000000000672200000000001273689100000000000000009999123100000010000000000000BRVLIDACNOR5141
012024030102VSTE3       010VESTE       ON      NM   R$  000000000142700000000014340000000001427000000000143000000000014300000000001430000000000146900005000000000000000700000000000001001100000000000000009999123100000010000000000000BRVSTEACNOR5102
012024030102VULC3       010VULCABRAS   ON      NM   R$  000000000186700000000019090000000001859000000000188100000000018850000000001879000000000188507626000000000001337900000000002516858600000000000000009999123100000010000000000000BRVULCACNOR2157
012024030102RADL3       010RAIADROGASILON      NM   R$  000000000266800000000026840000000002646000000000266600000000026670000000002666000000000266914015000000000006806100000000018145498300000000000000009999123100000010000000000000BRRADLACNOR0154
012024030102RAIL3       010RUMO S.A.   ON      NM   R$  000000000227400000000022780000000002216000000000223400000000022260000000002225000000000222917237000000000010589400000000023659073800000000000000009999123100000010000000000000BRRAILACNOR9104
012024030102BEEF3       010MINERVA     ON      NM   R$  000000000068200000000006900000000000675000000000068000000000006800000000000679000000000068005758000000000004863200000000003308024000000000000000009999123100000010000000000000BRBEEFACNOR6116
012024030102BEES3       010BANESTES    ON           R$  000000000094900000000009550000000000941000000000094900000000009500000000000947000000000095000082000000000000014000000000000013287800000000000000009999123100000010000000000000BRBEESACNOR9387
012024030102BEES4       010BANESTES    PN           R$  000000000099900000000010030000000000998000000000100000000000010030000000001000000000000100600019000000000000002500000000000002500900000000000000009999123100000010000000000000BRBEESACNPR6312
012024030102BPAN4       010BANCO PAN   PN      N1   R$  000000000087700000000008970000000000872000000000088700000000008900000000000890000000000089204168000000000001374500000000001219831500000000000000009999123100000010000000000000BRBPANACNPR1115
012024030102BRAP3       010BRADESPAR   ON      N1   R$  000000000202800000000020280000000001986000000000200000000000020010000000002000000000000200500857000000000000217900000000000436006300000000000000009999123100000010000000000000BRBRAPACNOR5147
012024030102BRAP4       010BRADESPAR   PN      N1   R$  000000000212400000000021240000000002069000000000208100000000020840000000002084000000000208527150000000000014336000000000029840882500000000000000009999123100000010000000000000BRBRAPACNPR2147
012024030102CPFE3       010CPFL ENERGIAON      NM   R$  000000000354100000000035790000000003537000000000355100000000035400000000003536000000000354807057000000000001151700000000004090315500000000000000009999123100000010000000000000BRCPFEACNOR0136
012024030102CPLE3       010COPEL       ON      N2   R$  000000000092200000000009240000000000900000000000090700000000009070000000000907000000000090807259000000000008268600000000007503430300000000000000009999123100000010000000000000BRCPLEACNOR8148
012024030102CPLE6       010COPEL       PNB     N2   R$  000000000102300000000010250000000001003000000000101000000000010070000000001006000000000100732646000000000020082700000000020298068800000000000000009999123100000010000000000000BRCPLEACNPB9145
012024030102SYNE3       010SYN PROP TECON      NM   R$  000000000077200000000007960000000000742000000000077200000000007890000000000789000000000079004649000000000001854500000000001432911900000000000000009999123100000010000000000000BRSYNEACNOR2102
012024030102TAEE11      010TAESA       UNT     N2   R$  000000000353900000000035450000000003499000000000351600000000035000000000003500000000000350508208000000000002038800000000007168836500000000000000009999123100000010000000000000BRTAEECDAM10145
012024030102TAEE3       010TAESA       ON      N2   R$  000000000117000000000011700000000001154000000000116100000000011560000000001155000000000115900802000000000000130900000000000151976000000000000000009999123100000010000000000000BRTAEEACNOR9145
012024030102TAEE4       010TAESA       PN      N2   R$  000000000118600000000011890000000001174000000000117800000000011750000000001175000000000117900981000000000000252400000000000297497300000000000000009999123100000010000000000000BRTAEEACNPR6145
012024030102VAMO3       010VAMOS       ON      NM   R$  000000000087300000000008900000000000870000000000087900000000008750000000000875000000000087606832000000000003020800000000002656295700000000000000009999123100000010000000000000BRVAMOACNOR7105
012024030102VBBR3       010VIBRA       ON      NM   R$  000000000259000000000026800000000002573000000000263800000000026600000000002660000000000266220302000000000007941900000000020951671300000000000000009999123100000010000000000000BRVBBRACNOR1106
012024030102AERI3       010AERIS       ON      NM   R$  000000000006700000000000680000000000066000000000006600000000000660000000000066000000000006702816000000000002212000000000000147832800000000000000009999123100000010000000000000BRAERIACNOR4101
012024030102AESB3       010AES BRASIL  ON      NM   R$  000000000104400000000010710000000001042000000000105900000000010660000000001066000000000106705827000000000002531400000000002681297300000000000000009999123100000010000000000000BRAESBACNOR7105
012024030102CEBR3       010CEB         ON           R$  000000000201600000000020540000000002016000000000203600000000020260000000002023000000000205400029000000000000003800000000000007737000000000000000009999123100000010000000000000BRCEBRACNOR5124
012024030102CEBR5       010CEB         PNA          R$  000000000187800000000019030000000001878000000000188100000000018900000000001852000000000189000023000000000000008300000000000015613500000000000000009999123100000010000000000000BRCEBRACNPA8123
012024030102CEBR6       010CEB         PNB          R$  000000000200000000000020880000000002000000000000203800000000020200000000002020000000000203000058000000000000010100000000000020591300000000000000009999123100000010000000000000BRCEBRACNPB6123
012024030102CEDO3       010CEDRO       ON      N1   R$  000000000263000000000026300000000002630000000000263000000000026300000000000002000000000263000001000000000000000100000000000000263000000000000000009999123100000010000000000000BRCEDOACNOR8096
012024030102CEEB3       010COELBA      ON           R$  000000000391700000000039620000000003900000000000392600000000039620000000003920000000000396400010000000000000001100000000000004319400000000000000009999123100000010000000000000BRCEEBACNOR3196
012024030102CGAS3       010COMGAS      ON           R$  000000000940300000000094030000000009403000000000940300000000094030000000009403000000001299700002000000000000000200000000000001880600000000000000009999123100000010000000000000BRCGASACNOR0162
012024030102CGAS5       010COMGAS      PNA          R$  000000001101900000000111500000000011019000000001108700000000110500000000011000000000001147500008000000000000000800000000000008869600000000000000009999123100000010000000000000BRCGASACNPA3159
012024030102CGRA3       010GRAZZIOTIN  ON           R$  000000000255100000000026010000000002551000000000258400000000026010000000002561000000000260000015000000000000001600000000000004134700000000000000009999123100000010000000000000BRCGRAACNOR2081
012024030102CGRA4       010GRAZZIOTIN  PN           R$  000000000267300000000026980000000002673000000000268900000000026970000000002697000000000270000031000000000000003600000000000009681600000000000000009999123100000010000000000000BRCGRAACNPR9081
012024030102CIEL3       010CIELO       ON      NM   R$  000000000054000000000005400000000000533000000000053700000000005390000000000538000000000053911228000000000020411500000000010971327200000000000000009999123100000010000000000000BRCIELACNOR3156
012024030102CLSA3       010CLEARSALE   ON      NM   R$  000000000036500000000003750000000000357000000000036700000000003680000000000366000000000036802407000000000000906800000000000333581600000000000000009999123100000010000000000000BRCLSAACNOR0100
012024030102CLSC4       010CELESC      PN      N2   R$  000000000669000000000068000000000006690000000000673300000000068000000000006706000000000680000015000000000000002800000000000018852400000000000000009999123100000010000000000000BRCLSCACNPR3128
012024030102CMIG3       010CEMIG       ON      N1   R$  000000000151400000000015330000000001511000000000152000000000015150000000001515000000000151701159000000000000355600000000000540573500000000000000009999123100000010000000000000BRCMIGACNOR6239
012024030102CMIG4       010CEMIG       PN      N1   R$  000000000119700000000012300000000001197000000000121700000000012080000000001206000000000120831477000000000020878900000000025429549900000000000000009999123100000010000000000000BRCMIGACNPR3240
012024030102DOTZ3       010DOTZ SA     ON      NM   R$  000000000068200000000007090000000000681000000000069300000000006860000000000688000000000069700031000000000000008000000000000005548200000000000000009999123100000010000000000000BRDOTZACNOR7101
012024030102DXCO3       010DEXCO       ON      NM   R$  000000000081700000000008300000000000812000000000082000000000008300000000000826000000000083004184000000000001965500000000001612441600000000000000009999123100000010000000000000BRDXCOACNOR8104
012024030102HYPE3       010HYPERA      ON  EJ  NM   R$  000000000329500000000034360000000003261000000000339700000000034200000000003420000000000342210166000000000002719400000000009239826700000000000000009999123100000010000000000000BRHYPEACNOR0138
012024030102KRSA3       010KORA SAUDE  ON      NM   R$  000000000008900000000000930000000000088000000000008900000000000910000000000090000000000009100535000000000000618800000000000055529100000000000000009999123100000010000000000000BRKRSAACNOR0100
012024030102ELET6       010ELETROBRAS  PNB     N1   R$  000000000481100000000048730000000004778000000000482600000000048280000000004828000000000483504612000000000001005500000000004852602400000000000000009999123100000010000000000000BRELETACNPB7076
012024030102HAGA4       010HAGA S/A    PN           R$  000000000010700000000001100000000000106000000000010700000000001070000000000107000000000010800026000000000000008300000000000000893500000000000000009999123100000010000000000000BRHAGAACNPR4103
012024030102HAPV3       010HAPVIDA     ON      NM   R$  000000000036700000000003740000000000359000000000036700000000003720000000000371000000000037316662000000000037057100000000013627754700000000000000009999123100000010000000000000BRHAPVACNOR4113
012024030102HBOR3       010HELBOR      ON      NM   R$  000000000029500000000003040000000000289000000000029700000000003040000000000301000000000030401082000000000000764600000000000227451000000000000000009999123100000010000000000000BRHBORACNOR3117
012024030102HBRE3       010HBR REALTY  ON      NM   R$  000000000054600000000005600000000000528000000000055000000000005540000000000549000000000055401537000000000000996600000000000548741300000000000000009999123100000010000000000000BRHBREACNOR4100
012024030102HBSA3       010HIDROVIAS   ON      NM   R$  000000000038400000000003850000000000369000000000037600000000003740000000000372000000000037411949000000000006555100000000002465251300000000000000009999123100000010000000000000BRHBSAACNOR0100
012024030102HBTS5       010HABITASUL   PNA          R$  000000000370100000000037010000000003701000000000370100000000037010000000003500000000000389000001000000000000000100000000000000370100000000000000009999123100000010000000000000BRHBTSACNPA3127
012024030102HETA4       010HERCULES    PN           R$  000000000065200000000006770000000000652000000000067400000000006770000000000635000000000067700004000000000000001200000000000000809100000000000000009999123100000010000000000000BRHETAACNPR9136
012024030102B3SA3       010B3          ON  ED  NM   R$  000000000125200000000012760000000001242000000000125300000000012420000000001242000000000124356039000000000069625400000000087289221300000000000000009999123100000010000000000000BRB3SAACNOR6131
012024030102EALT3       010ACO ALTONA  ON           R$  000000000105000000000010500000000000962000000000099100000000009630000000000963000000000105000003000000000000000300000000000000297500000000000000009999123100000010000000000000BREALTACNOR4137
012024030102EALT4       010ACO ALTONA  PN           R$  000000000106300000000011140000000001062000000000109600000000011040000000001055000000000110400028000000000000003300000000000003619100000000000000009999123100000010000000000000BREALTACNPR1137
012024030102ECOR3       010ECORODOVIAS ON      NM   R$  000000000091800000000009540000000000916000000000093400000000009300000000000928000000000093010164000000000004153700000000003883245200000000000000009999123100000010000000000000BRECORACNOR8119
012024030102CRFB3       010CARREFOUR BRON      NM   R$  000000000120800000000012200000000001157000000000117700000000011680000000001168000000000117013598000000000007482500000000008810106300000000000000009999123100000010000000000000BRCRFBACNOR2116
012024030102ENAT3       010ENAUTA PART ON      NM   R$  000000000255000000000026340000000002528000000000259600000000025950000000002593000000000259808599000000000001910600000000004961817500000000000000009999123100000010000000000000BRENATACNOR0104
012024030102ENEV3       010ENEVA       ON      NM   R$  000000000128900000000012910000000001258000000000126900000000012610000000001261000000000126209707000000000006456400000000008196378100000000000000009999123100000010000000000000BRENEVACNOR8105
012024030102ENGI11      010ENERGISA    UNT     N2   R$  000000000507600000000051040000000005028000000000506200000000050520000000005048000000000506905743000000000000948800000000004803646800000000000000009999123100000010000000000000BRENGICDAM16135
012024030102ENGI3       010ENERGISA    ON      N2   R$  000000000163800000000016500000000001621000000000163600000000016420000000001640000000000164200047000000000000005900000000000009657800000000000000009999123100000010000000000000BRENGIACNOR0145
012024030102ENGI4       010ENERGISA    PN      N2   R$  000000000085100000000008700000000000848000000000085600000000008490000000000840000000000084900047000000000000013200000000000011305700000000000000009999123100000010000000000000BRENGIACNPR7141
012024030102ENJU3       010ENJOEI      ON      NM   R$  000000000017400000000001800000000000170000000000017300000000001790000000000176000000000017900558000000000000828500000000000143458800000000000000009999123100000010000000000000BRENJUACNOR9100
012024030102EPAR3       010EMBPAR S/A  ON           R$  000000000095600000000009680000000000930000000000094500000000009540000000000947000000000095400043000000000000017900000000000016928300000000000000009999123100000010000000000000BREPARACNOR9104
012024030102EQPA3       010EQTL PARA   ON           R$  000000000081000000000008200000000000790000000000080100000000007900000000000790000000000080900022000000000000005500000000000004408600000000000000009999123100000010000000000000BREQPAACNOR1110
012024030102EQTL3       010EQUATORIAL  ON      NM   R$  000000000341700000000034170000000003368000000000339300000000033850000000003383000000000338711358000000000003587900000000012175997500000000000000009999123100000010000000000000BREQTLACNOR0129
012024030102IFCM3       010INFRACOMM   ON      NM   R$  000000000014000000000001410000000000135000000000013700000000001360000000000136000000000013708056000000000007929300000000001087737600000000000000009999123100000010000000000000BRIFCMACNOR8101
012024030102IGTI11      010IGUATEMI S.AUNT ED  N1   R$  000000000236000000000023680000000002312000000000233800000000023590000000002348000000000235912271000000000001971800000000004611645200000000000000009999123100000010000000000000BRIGTICDAM16105
012024030102IGTI3       010IGUATEMI S.AON  ED  N1   R$  000000000029000000000002990000000000290000000000029400000000002970000000000293000000000029700119000000000000071800000000000021138600000000000000009999123100000010000000000000BRIGTIACNOR8105
012024030102IGTI4       010IGUATEMI S.APN  ED  N1   R$  000000000103500000000010350000000001028000000000103100000000010280000000000009000000000107400002000000000000000200000000000000206300000000000000009999123100000010000000000000BRIGTIACNPR5105
012024030102INEP3       010INEPAR      ON           R$  000000000035200000000003570000000000336000000000034100000000003420000000000340000000000034200232000000000000078200000000000026678100000000000000009999123100000010000000000000BRINEPACNOR1143
012024030102INEP4       010INEPAR      PN           R$  000000000030600000000003150000000000295000000000030300000000003100000000000306000000000031000162000000000000068500000000000020803800000000000000009999123100000010000000000000BRINEPACNPR8143
012024030102INTB3       010INTELBRAS   ON      NM   R$  000000000211900000000021360000000002095000000000210900000000021000000000002099000000000210005511000000000001114500000000002351072800000000000000009999123100000010000000000000BRINTBACNOR9109
012024030102IRBR3       010IRBBRASIL REON  ATZ NM   R$  000000000390000000000039270000000003811000000000386700000000038810000000003880000000000388806453000000000001559100000000006030563400000000000000009999123100000010000000000000BRIRBRACNOR4111
012024030102ANIM3       010ANIMA       ON      NM   R$  000000000050700000000005390000000000506000000000052200000000005240000000000523000000000052512739000000000012212100000000006378864700000000000000009999123100000010000000000000BRANIMACNOR6107
012024030102APER3       010ALPER S.A.  ON           R$  000000000443000000000044490000000004252000000000441600000000042520000000004200000000000425300036000000000000007000000000000030913600000000000000009999123100000010000000000000BRAPERACNOR9106
012024030102ARML3       010ARMAC       ON      NM   R$  000000000127400000000013280000000001269000000000129800000000012940000000001294000000000129503561000000000000720500000000000935717400000000000000009999123100000010000000000000BRARMLACNOR1110
012024030102ARZZ3       010AREZZO CO   ON      NM   R$  000000000593000000000059540000000005800000000000589800000000059350000000005928000000000593507374000000000001395100000000008228555200000000000000009999123100000010000000000000BRARZZACNOR3146
012024030102ASAI3       010ASSAI       ON      NM   R$  000000000142700000000014280000000001381000000000140600000000014050000000001405000000000140712866000000000007438200000000010463518400000000000000009999123100000010000000000000BRASAIACNOR0106
012024030102LAND3       010TERRASANTAPAON      NM   R$  000000000167200000000016820000000001640000000000166100000000016600000000001643000000000166200113000000000000019100000000000031727600000000000000009999123100000010000000000000BRLANDACNOR9102
012024030102LAVV3       010LAVVI       ON      NM   R$  000000000080100000000008180000000000797000000000081100000000008120000000000808000000000081304254000000000000901100000000000730873300000000000000009999123100000010000000000000BRLAVVACNOR4110
012024030102LEVE3       010METAL LEVE  ON      NM   R$  000000000361300000000036650000000003580000000000362100000000036360000000003622000000000364002586000000000000539800000000001955042800000000000000009999123100000010000000000000BRLEVEACNOR2196
012024030102ABEV3       010AMBEV S/A   ON           R$  000000000124600000000012670000000001230000000000124300000000012440000000001243000000000124436876000000000051143300000000063612180200000000000000009999123100000010000000000000BRABEVACNOR1127
012024030102BBDC3       010BRADESCO    ON      N1   R$  000000000123200000000012440000000001227000000000123700000000012400000000001240000000000124109070000000000007338100000000009081093400000000000000009999123100000010000000000000BRBBDCACNOR1766
012024030102BBDC4       010BRADESCO    PN      N1   R$  000000000137900000000013860000000001369000000000138000000000013800000000001379000000000138023778000000000029499300000000040714253500000000000000009999123100000010000000000000BRBBDCACNPR8766
012024030102BOBR4       010BOMBRIL     PN           R$  000000000024100000000002450000000000239000000000024100000000002450000000000242000000000024500036000000000000012400000000000002998500000000000000009999123100000010000000000000BRBOBRACNPR3128
012024030102BSLI3       010BRB BANCO   ON           R$  000000000114500000000011450000000001141000000000114300000000011410000000001134000000000122500015000000000000002900000000000003317400000000000000009999123100000010000000000000BRBSLIACNOR5192
012024030102BSLI4       010BRB BANCO   PN           R$  000000000113500000000011490000000001135000000000113700000000011490000000001090000000000114900002000000000000000700000000000000795900000000000000009999123100000010000000000000BRBSLIACNPR2192
012024030102EGIE3       010ENGIE BRASILON      NM   R$  000000000419700000000042190000000004070000000000410300000000041000000000004100000000000410914990000000000004862100000000019949917700000000000000009999123100000010000000000000BREGIEACNOR9125
012024030102GRND3       010GRENDENE    ON      NM   R$  000000000065600000000006770000000000638000000000065400000000006490000000000648000000000065004306000000000003946600000000002582909700000000000000009999123100000010000000000000BRGRNDACNOR3172
012024030102GUAR3       010GUARARAPES  ON      NM   R$  000000000060500000000006440000000000602000000000062800000000006410000000000634000000000064110623000000000003457000000000002174234300000000000000009999123100000010000000000000BRGUARACNOR4172
012024030102HAGA3       010HAGA S/A    ON           R$  000000000025300000000002630000000000253000000000025900000000002630000000000250000000000026200005000000000000001200000000000000310800000000000000009999123100000010000000000000BRHAGAACNOR7103
012024030102JHSF3       010JHSF PART   ON  ED  NM   R$  000000000044600000000004490000000000439000000000044400000000004420000000000442000000000044502993000000000002022400000000000899278200000000000000009999123100000010000000000000BRJHSFACNOR2133
012024030102JSLG3       010JSL         ON      NM   R$  000000000118700000000011980000000001182000000000118900000000011820000000001182000000000118801878000000000000507300000000000603376600000000000000009999123100000010000000000000BRJSLGACNOR2121
012024030102LJQQ3       010QUERO-QUERO ON      NM   R$  000000000052400000000005490000000000519000000000053900000000005460000000000546000000000054703763000000000002163400000000001167473200000000000000009999123100000010000000000000BRLJQQACNOR5104
012024030102LOGG3       010LOG COM PROPON      NM   R$  000000000218400000000022330000000002172000000000220100000000021930000000002192000000000219901301000000000000169400000000000372873500000000000000009999123100000010000000000000BRLOGGACNOR7107
012024030102LOGN3       010LOG-IN      ON      NM   R$  000000000379700000000039650000000003780000000000387600000000039540000000003869000000000395400150000000000000026300000000000101940300000000000000009999123100000010000000000000BRLOGNACNOR3105
012024030102LPSB3       010LOPES BRASILON      NM   R$  000000000019400000000002000000000000192000000000019600000000001950000000000193000000000019500272000000000000144300000000000028290100000000000000009999123100000010000000000000BRLPSBACNOR0113
012024030102LREN3       010LOJAS RENNERON      NM   R$  000000000159600000000016740000000001585000000000164000000000016630000000001662000000000166431657000000000021104600000000034622416300000000000000009999123100000010000000000000BRLRENACNOR1219
012024030102MSPA3       010MELHOR SP   ON           R$  000000000430000000000043000000000004300000000000430000000000043000000000004100000000000430000001000000000000000100000000000000430000000000000000009999123100000010000000000000BRMSPAACNOR0126
012024030102MSPA4       010MELHOR SP   PN           R$  000000000400000000000040000000000004000000000000400000000000040000000000003800000000000400000001000000000000000100000000000000400000000000000000009999123100000010000000000000BRMSPAACNPR7126
012024030102MTRE3       010MITRE REALTYON      NM   R$  000000000059500000000005970000000000557000000000057700000000005930000000000590000000000059407735000000000003816900000000002204228700000000000000009999123100000010000000000000BRMTREACNOR6109
012024030102MTSA4       010METISA      PN           R$  000000000477500000000048690000000004775000000000480500000000047990000000004781000000000480000004000000000000000400000000000001922000000000000000009999123100000010000000000000BRMTSAACNPR9071
012024030102MULT3       010MULTIPLAN   ON      N2   R$  000000000264200000000026460000000002585000000000260900000000026090000000002605000000000261217568000000000003283100000000008566592000000000000000009999123100000010000000000000BRMULTACNOR5137
012024030102MWET4       010WETZEL S/A  PN           R$  000000000059200000000006600000000000589000000000060800000000006240000000000607000000000062000019000000000000002500000000000001520400000000000000009999123100000010000000000000BRMWETACNPR3118
012024030102MYPK3       010IOCHP-MAXIONON      NM   R$  000000000126300000000012900000000001261000000000127400000000012790000000001278000000000128102803000000000001008100000000001284990300000000000000009999123100000010000000000000BRMYPKACNOR7153
012024030102CRIV4       010ALFA FINANC PN           R$  000000000063600000000006700000000000636000000000066300000000006680000000000668000000000067900052000000000000047300000000000031360800000000000000009999123100000010000000000000BRCRIVACNPR1211
012024030102CRPG5       010CRISTAL     PNA          R$  000000000357600000000036150000000003572000000000358800000000036110000000003550000000000361000008000000000000000800000000000002870500000000000000009999123100000010000000000000BRCRPGACNPA3118
012024030102CRPG6       010CRISTAL     PNB          R$  000000000357800000000035780000000003501000000000352700000000035480000000003501000000000359800015000000000000001500000000000005290700000000000000009999123100000010000000000000BRCRPGACNPB1118
012024030102CSAN3       010COSAN       ON      NM   R$  000000000170800000000017130000000001673000000000168800000000016790000000001678000000000168326481000000000010039100000000016948757000000000000000009999123100000010000000000000BRCSANACNOR6124
012024030102CSED3       010CRUZEIRO EDUON      NM   R$  000000000046300000000004690000000000452000000000046300000000004690000000000461000000000046902489000000000000534000000000000247286800000000000000009999123100000010000000000000BRCSEDACNOR9104
012024030102CSMG3       010COPASA      ON      NM   R$  000000000206900000000021090000000002054000000000208500000000020880000000002085000000000208810327000000000002002800000000004177185400000000000000009999123100000010000000000000BRCSMGACNOR5171
012024030102CSNA3       010SID NACIONALON           R$  000000000168400000000017070000000001678000000000169200000000017070000000001704000000000170809843000000000006173400000000010445824700000000000000009999123100000010000000000000BRCSNAACNOR6260
012024030102ESPA3       010ESPACOLASER ON      NM   R$  000000000010800000000001110000000000107000000000010900000000001070000000000107000000000010900995000000000000840200000000000091670400000000000000009999123100000010000000000000BRESPAACNOR7103
012024030102ESTR4       010ESTRELA     PN           R$  000000000022100000000002490000000000220000000000023500000000002460000000000222000000000024700032000000000000011000000000000002593500000000000000009999123100000010000000000000BRESTRACNPR0144
012024030102EUCA3       010EUCATEX     ON      N1   R$  000000000175100000000017510000000001750000000000175000000000017500000000001681000000000174700002000000000000000200000000000000350100000000000000009999123100000010000000000000BREUCAACNOR1157
012024030102EUCA4       010EUCATEX     PN      N1   R$  000000000172200000000017700000000001721000000000175300000000017700000000001751000000000177000495000000000000076000000000000133232700000000000000009999123100000010000000000000BREUCAACNPR8044
012024030102EVEN3       010EVEN        ON      NM   R$  000000000080800000000008360000000000802000000000082200000000008350000000000834000000000083504355000000000001953400000000001606542600000000000000009999123100000010000000000000BREVENACNOR8118
012024030102EZTC3       010EZTEC       ON      NM   R$  000000000169600000000017480000000001680000000000172500000000017440000000001739000000000174506486000000000002070100000000003571319300000000000000009999123100000010000000000000BREZTCACNOR0123
012024030102FESA3       010FERBASA     ON      N1   R$  000000000141000000000014470000000001400000000000142100000000014470000000001402000000000146700004000000000000000400000000000000568700000000000000009999123100000010000000000000BRFESAACNOR8187
012024030102FESA4       010FERBASA     PN      N1   R$  000000000096500000000009840000000000957000000000096900000000009720000000000972000000000097403038000000000000587300000000000569518100000000000000009999123100000010000000000000BRFESAACNPR5083
012024030102FHER3       010FER HERINGERON      NM   R$  000000000060000000000006000000000000581000000000058600000000005850000000000584000000000059400013000000000000001700000000000000997200000000000000009999123100000010000000000000BRFHERACNOR5103
012024030102ITSA3       010ITAUSA      ON  EDJ N1   R$  000000000103100000000010660000000001026000000000103700000000010350000000001035000000000103900421000000000000154300000000000160074600000000000000009999123100000010000000000000BRITSAACNOR0438
012024030102ITSA4       010ITAUSA      PN  EDJ N1   R$  000000000103000000000010360000000001024000000000103100000000010300000000001030000000000103119907000000000009556000000000009860020200000000000000009999123100000010000000000000BRITSAACNPR7438
012024030102MGEL4       010MANGELS INDLPN           R$  000000000129200000000013550000000001292000000000134600000000013500000000001330000000000136700009000000000000001500000000000002019500000000000000009999123100000010000000000000BRMGELACNPR3147
012024030102MGLU3       010MAGAZ LUIZA ON      NM   R$  000000000021500000000002250000000000213000000000021900000000002220000000000222000000000022319636000000000112411900000000024642735900000000000000009999123100000010000000000000BRMGLUACNOR2123
012024030102AVLL3       010ALPHAVILLE  ON      NM   R$  000000000047000000000004700000000000464000000000046500000000004650000000000465000000000047000004000000000000000400000000000000186300000000000000009999123100000010000000000000BRAVLLACNOR5103
012024030102AZEV3       010AZEVEDO     ON           R$  000000000015000000000001530000000000148000000000014900000000001500000000000149000000000015000293000000000000250300000000000037499400000000000000009999123100000010000000000000BRAZEVACNOR0121
012024030102AZEV4       010AZEVEDO     PN           R$  000000000015100000000001520000000000146000000000014700000000001470000000000146000000000014701558000000000001743600000000000258048300000000000000009999123100000010000000000000BRAZEVACNPR7121
012024030102AZUL4       010AZUL        PN      N2   R$  000000000121100000000012310000000001186000000000121400000000012250000000001224000000000122609372000000000009930800000000012065820700000000000000009999123100000010000000000000BRAZULACNPR4102
012024030102TECN3       010TECHNOS     ON      NM   R$  000000000032900000000003310000000000321000000000032400000000003210000000000321000000000032400654000000000000157800000000000051263600000000000000009999123100000010000000000000BRTECNACNOR6109
012024030102TELB3       010TELEBRAS    ON           R$  000000000154000000000015790000000001531000000000155900000000015700000000001545000000000157000006000000000000000600000000000000935400000000000000009999123100000010000000000000BRTELBACNOR2140
012024030102TELB4       010TELEBRAS    PN           R$  000000000103700000000011390000000001030000000000109800000000011270000000001090000000000112800037000000000000006200000000000006811600000000000000009999123100000010000000000000BRTELBACNPR9140
012024030102TEND3       010TENDA       ON      NM   R$  000000000108100000000010960000000001046000000000106300000000010580000000001056000000000105909296000000000005164600000000005492524300000000000000009999123100000010000000000000BRTENDACNOR4111
012024030102TFCO4       010TRACK FIELD PN      N2   R$  000000000134900000000013500000000001306000000000131900000000013130000000001313000000000131800613000000000000130200000000000171853000000000000000009999123100000010000000000000BRTFCOACNPR8111
012024030102TGMA3       010TEGMA       ON      NM   R$  000000000269800000000027240000000002657000000000268200000000026670000000002659000000000266701009000000000000159200000000000427128700000000000000009999123100000010000000000000BRTGMAACNOR7143
012024030102TIMS3       010TIM         ON      NM   R$  000000000181700000000018520000000001804000000000183600000000018410000000001839000000000184316265000000000006091000000000011183737100000000000000009999123100000010000000000000BRTIMSACNOR5114
012024030102FLRY3       010FLEURY      ON      NM   R$  000000000159200000000016200000000001588000000000160400000000016060000000001606000000000161208669000000000002391700000000003837262000000000000000009999123100000010000000000000BRFLRYACNOR5137
012024030102FRAS3       010FRAS-LE     ON      N1   R$  000000000163500000000016620000000001630000000000164600000000016620000000001651000000000166301418000000000000315900000000000520142000000000000000009999123100000010000000000000BRFRASACNOR0158
012024030102FRIO3       010METALFRIO   ON      NM   R$  000000003410000000000341000000000034100000000003410000000000341000000000034050000000003500000001000000000000000100000000000003410000000000000000009999123100000010000000000000BRFRIOACNOR2111
012024030102GEPA4       010GER PARANAP PN           R$  000000000261900000000026510000000002619000000000264600000000026500000000002610000000000270000014000000000000008800000000000023286300000000000000009999123100000010000000000000BRGEPAACNPR9159
012024030102KEPL3       010KEPLER WEBERON      NM   R$  000000000096500000000009850000000000951000000000097200000000009770000000000976000000000097804033000000000001085500000000001055119200000000000000009999123100000010000000000000BRKEPLACNOR1061
012024030102KLBN11      010KLABIN S/A  UNT     N2   R$  000000000225800000000022710000000002238000000000225300000000022500000000002250000000000225610803000000000003933100000000008863000100000000000000009999123100000010000000000000BRKLBNCDAM18140
012024030102KLBN3       010KLABIN S/A  ON      N2   R$  000000000045100000000004560000000000448000000000045000000000004480000000000448000000000045100624000000000000240500000000000108323400000000000000009999123100000010000000000000BRKLBNACNOR2168
012024030102KLBN4       010KLABIN S/A  PN      N2   R$  000000000045100000000004540000000000447000000000045000000000004480000000000448000000000045001846000000000001251400000000000563747200000000000000009999123100000010000000000000BRKLBNACNPR9168
012024030102MRVE3       010MRV         ON      NM   R$  000000000073500000000007680000000000706000000000073900000000007600000000000758000000000076029184000000000047236400000000034916588800000000000000009999123100000010000000000000BRMRVEACNOR2126
012024030102BHIA3       010CASAS BAHIA ON      NM   R$  000000000092100000000009860000000000921000000000095600000000009720000000000972000000000097408719000000000007432800000000007105767600000000000000009999123100000010000000000000BRBHIAACNOR1101
012024030102BRBI11      010BR PARTNERS UNT     N2   R$  000000000158100000000016290000000001581000000000161000000000016280000000001587000000000162802211000000000000340100000000000547738500000000000000009999123100000010000000000000BRBRBICDAM10107
012024030102BRFS3       010BRF SA      ON      NM   R$  000000000151100000000015150000000001460000000000147900000000014870000000001485000000000148821814000000000008196500000000012127421900000000000000009999123100000010000000000000BRBRFSACNOR8121
012024030102CRIV3       010ALFA FINANC ON           R$  000000000066000000000006930000000000660000000000069000000000006930000000000693000000000069900015000000000000013700000000000009464600000000000000009999123100000010000000000000BRCRIVACNOR4195
012024030102GFSA3       010GAFISA      ON      NM   R$  000000000088100000000009120000000000843000000000088000000000009050000000000904000000000090505500000000000003837000000000003378671000000000000000009999123100000010000000000000BRGFSAACNOR3123
012024030102ITUB3       010ITAUUNIBANCOON  EDJ N1   R$  000000000293100000000029620000000002929000000000295100000000029490000000002949000000000295802093000000000000563800000000001663928800000000000000009999123100000010000000000000BRITUBACNOR4332
012024030102ITUB4       010ITAUUNIBANCOPN  EDJ N1   R$  000000000341200000000034270000000003391000000000340700000000034070000000003405000000000341131594000000000014523200000000049493384700000000000000009999123100000010000000000000BRITUBACNPR1332
012024030102BGIP3       010BANESE      ON  EJ       R$  000000000278400000000027840000000002784000000000278400000000027840000000002752000000000289800001000000000000000100000000000000278400000000000000009999123100000010000000000000BRBGIPACNOR1207
012024030102BGIP4       010BANESE      PN  EJ       R$  000000000275400000000027540000000002721000000000273200000000027210000000002672000000000272100013000000000000001500000000000004098100000000000000009999123100000010000000000000BRBGIPACNPR8207
012024030102SGPS3       010SPRINGS     ON      NM   R$  000000000009700000000000990000000000095000000000009600000000000960000000000095000000000009600218000000000000379900000000000036739500000000000000009999123100000010000000000000BRSGPSACNOR4104
012024030102SHOW3       010TIME FOR FUNON      NM   R$  000000000020000000000002000000000000196000000000019800000000001990000000000199000000000020000224000000000000122700000000000024309200000000000000009999123100000010000000000000BRSHOWACNOR7105
012024030102SHUL4       010SCHULZ      PN           R$  000000000070600000000007090000000000695000000000069900000000007030000000000699000000000070302521000000000000499100000000000349351200000000000000009999123100000010000000000000BRSHULACNPR4154
012024030102SIMH3       010SIMPAR      ON      NM   R$  000000000077000000000007890000000000768000000000077900000000007760000000000775000000000078004576000000000002239000000000001745022000000000000000009999123100000010000000000000BRSIMHACNOR0107
012024030102SLCE3       010SLC AGRICOLAON      NM   R$  000000000196600000000019760000000001940000000000195100000000019500000000001949000000000195010086000000000002376700000000004637908700000000000000009999123100000010000000000000BRSLCEACNOR2124
012024030102PFRM3       010PROFARMA    ON      NM   R$  000000000058900000000005920000000000555000000000057200000000005590000000000557000000000055900926000000000000249700000000000143068000000000000000009999123100000010000000000000BRPFRMACNOR1116
012024030102PGMN3       010PAGUE MENOS ON      NM   R$  000000000029200000000003050000000000292000000000029900000000003040000000000303000000000030401567000000000001056500000000000316736700000000000000009999123100000010000000000000BRPGMNACNOR8103
012024030102PINE3       010PINE        ON      N2   R$  000000000080000000000009700000000000800000000000085700000000009610000000000960000000000105000048000000000000007700000000000006601000000000000000009999123100000010000000000000BRPINEACNOR1148
012024030102PINE4       010PINE        PN      N2   R$  000000000045200000000004630000000000450000000000045700000000004560000000000456000000000045901179000000000000455400000000000208424300000000000000009999123100000010000000000000BRPINEACNPR8148
012024030102PLAS3       010PLASCAR PARTON           R$  000000000079800000000008050000000000798000000000080100000000008020000000000750000000000080500006000000000000000900000000000000721300000000000000009999123100000010000000000000BRPLASACNOR2106
012024030102PLPL3       010PLANOEPLANO ON      NM   R$  000000000141100000000014110000000001308000000000134500000000013190000000001318000000000131905584000000000001439200000000001937134300000000000000009999123100000010000000000000BRPLPLACNOR5104
012024030102PNVL3       010DIMED       ON      NM   R$  000000000122400000000012240000000001176000000000118800000000011820000000001182000000000119101776000000000000395200000000000469864500000000000000009999123100000010000000000000BRPNVLACNOR9205
012024030102POMO3       010MARCOPOLO   ON  EJ  N2   R$  000000000067500000000006830000000000662000000000067000000000006660000000000665000000000066701344000000000001270200000000000851298500000000000000009999123100000010000000000000BRPOMOACNOR0096
012024030102POMO4       010MARCOPOLO   PN  EJ  N2   R$  000000000085900000000008720000000000849000000000086300000000008580000000000858000000000085911085000000000007804600000000006735482800000000000000009999123100000010000000000000BRPOMOACNPR7096
012024030102SAPR11      010SANEPAR     UNT     N2   R$  000000000258400000000026190000000002576000000000260400000000026190000000002600000000000261905888000000000001533400000000003993365700000000000000009999123100000010000000000000BRSAPRCDAM13117
012024030102SAPR3       010SANEPAR     ON      N2   R$  000000000050000000000005030000000000495000000000049800000000005010000000000498000000000050100803000000000000284400000000000141774500000000000000009999123100000010000000000000BRSAPRACNOR9158
012024030102SAPR4       010SANEPAR     PN      N2   R$  000000000052400000000005290000000000520000000000052400000000005260000000000523000000000052602582000000000002192100000000001148987500000000000000009999123100000010000000000000BRSAPRACNPR6158
012024030102SBFG3       010GRUPO SBF   ON      NM   R$  000000000123100000000012950000000001228000000000126600000000012600000000001256000000000126107998000000000002581700000000003269367500000000000000009999123100000010000000000000BRSBFGACNOR1102
012024030102SBSP3       010SABESP      ON      NM   R$  000000000791700000000080090000000007864000000000793700000000079670000000007959000000000796809678000000000002128700000000016897093600000000000000009999123100000010000000000000BRSBSPACNOR5160
012024030102SCAR3       010SAO CARLOS  ON      NM   R$  000000000262300000000026270000000002576000000000260400000000025760000000002576000000000259000029000000000000004200000000000010939600000000000000009999123100000010000000000000BRSCARACNOR7130
012024030102BAHI3       010BAHEMA      ON      MA   R$  000000000066000000000006650000000000660000000000066200000000006650000000000650000000000065700006000000000000003100000000000002052500000000000000009999123100000010000000000000BRBAHIACNOR1074
012024030102BALM3       010BAUMER      ON           R$  000000000112700000000011270000000001127000000000112700000000011270000000000975000000000115000001000000000000000200000000000000225400000000000000009999123100000010000000000000BRBALMACNOR5055
012024030102BAUH4       010EXCELSIOR   PN           R$  000000000800000000000080000000000008000000000000800000000000080000000000000000000000000808900001000000000000000100000000000000800000000000000000009999123100000010000000000000BRBAUHACNPR3117
012024030102BAZA3       010AMAZONIA    ON           R$  000000000912500000000091260000000008900000000000900700000000090000000000009000000000000903200048000000000000005200000000000046837600000000000000009999123100000010000000000000BRBAZAACNOR0178
012024030102BBAS3       010BRASIL      ON  EX  NM   R$  000000000579500000000058360000000005783000000000580300000000057920000000005792000000000579922194000000000005125400000000029747295100000000000000009999123100000010000000000000BRBBASACNOR3320
012024030102BRGE12      010ALFA CONSORCPNF          R$  000000000129800000000013380000000001298000000000132400000000013380000000001338000000000140000003000000000000000300000000000000397400000000000000009999123100000010000000000000BRBRGEACNPF8098
012024030102BRGE6       010ALFA CONSORCPNB          R$  000000000122100000000012820000000001220000000000127800000000012820000000001282000000000130500013000000000000007200000000000009205800000000000000009999123100000010000000000000BRBRGEACNPB7219
012024030102BRIT3       010BRISANET    ON      NM   R$  000000000035200000000003650000000000346000000000035300000000003460000000000346000000000035002093000000000000494600000000000175050900000000000000009999123100000010000000000000BRBRITACNOR0102
012024030102ODPV3       010ODONTOPREV  ON      NM   R$  000000000120600000000012630000000001203000000000123800000000012510000000001243000000000125211812000000000002412800000000002988668400000000000000009999123100000010000000000000BRODPVACNOR4198
012024030102OFSA3       010OUROFINO S/AON      NM   R$  000000000220000000000022280000000002200000000000220600000000022020000000002202000000000222900014000000000000002800000000000006177100000000000000009999123100000010000000000000BROFSAACNOR7117
012024030102BRIV3       010ALFA INVEST ON           R$  000000000127600000000012760000000001276000000000127600000000012760000000001276000000000136000008000000000000023700000000000030241200000000000000009999123100000010000000000000BRBRIVACNOR6209
012024030102BRIV4       010ALFA INVEST PN           R$  000000000119200000000012440000000001192000000000124300000000012440000000001244000000000126000049000000000000040200000000000049988000000000000000009999123100000010000000000000BRBRIVACNPR3218
012024030102BRKM3       010BRASKEM     ON      N1   R$  000000000210900000000021850000000002109000000000215400000000021820000000002155000000000218400253000000000000050900000000000109659500000000000000009999123100000010000000000000BRBRKMACNOR1119
012024030102BRKM5       010BRASKEM     PNA     N1   R$  000000000210700000000021890000000002106000000000216000000000021890000000002177000000000218909036000000000004050400000000008749865400000000000000009999123100000010000000000000BRBRKMACNPA4121
012024030102CSRN3       010COSERN      ON           R$  000000000269200000000027490000000002692000000000272000000000027490000000002694000000000275000002000000000000000200000000000000544100000000000000009999123100000010000000000000BRCSRNACNOR0190
012024030102CSUD3       010CSU DIGITAL ON      NM   R$  000000000195300000000019900000000001930000000000195400000000019770000000001963000000000197700283000000000000059100000000000115531000000000000000009999123100000010000000000000BRCSUDACNOR5107
012024030102FIQE3       010UNIFIQUE    ON      NM   R$  000000000041000000000004150000000000405000000000040900000000004090000000000408000000000040900924000000000000207400000000000085017500000000000000009999123100000010000000000000BRFIQEACNOR5106
012024030102ONCO3       010ONCOCLINICASON      NM   R$  000000000103000000000010480000000000991000000000101700000000010150000000001015000000000101808661000000000005128800000000005220169900000000000000009999123100000010000000000000BRONCOACNOR6100
012024030102OPCT3       010OCEANPACT   ON      NM   R$  000000000057900000000005860000000000556000000000056900000000005760000000000576000000000058101971000000000000645400000000000367700300000000000000009999123100000010000000000000BROPCTACNOR0100
012024030102ORVR3       010ORIZON      ON      NM   R$  000000000334900000000033980000000003275000000000334600000000033750000000003374000000000337902007000000000000461200000000001543336000000000000000009999123100000010000000000000BRORVRACNOR0101
012024030102PCAR3       010P.ACUCAR-CBDON      NM   R$  000000000040000000000004060000000000385000000000039300000000003880000000000388000000000038909553000000000012375200000000004866533900000000000000009999123100000010000000000000BRPCARACNOR3167
012024030102PETZ3       010PETZ        ON      NM   R$  000000000041700000000004280000000000411000000000042000000000004190000000000418000000000041908984000000000014518500000000006105381400000000000000009999123100000010000000000000BRPETZACNOR2109
012024030102RSUL4       010RIOSULENSE  PN           R$  000000000820100000000083760000000008201000000000830700000000083760000000008250000000000838900006000000000000000600000000000004984200000000000000009999123100000010000000000000BRRSULACNPR3113
012024030102SANB11      010SANTANDER BRUNT          R$  000000000284400000000028710000000002837000000000285500000000028590000000002856000000000287006404000000000001444500000000004124770200000000000000009999123100000010000000000000BRSANBCDAM13163
012024030102SANB3       010SANTANDER BRON           R$  000000000134200000000013480000000001333000000000134000000000013420000000001342000000000134300434000000000000063100000000000084603300000000000000009999123100000010000000000000BRSANBACNOR8170
012024030102SANB4       010SANTANDER BRPN           R$  000000000151400000000015200000000001507000000000151200000000015080000000001508000000000151900409000000000000059500000000000089995200000000000000009999123100000010000000000000BRSANBACNPR5170
012024030102AALR3       010ALLIAR      ON      NM   R$  000000000085300000000008560000000000829000000000084100000000008290000000000828000000000084500234000000000000030000000000000025243000000000000000009999123100000010000000000000BRAALRACNOR6102
012024030102ABCB4       010ABC BRASIL  PN      N2   R$  000000000236000000000024140000000002360000000000239400000000023970000000002386000000000240002792000000000000499300000000001195821700000000000000009999123100000010000000000000BRABCBACNPR4145
012024030102CAMB3       010CAMBUCI     ON           R$  000000000115000000000011990000000001148000000000116800000000011620000000001161000000000116700228000000000000072500000000000084693900000000000000009999123100000010000000000000BRCAMBACNOR4127
012024030102CAML3       010CAMIL       ON  EDJ NM   R$  000000000085700000000008690000000000853000000000086200000000008690000000000863000000000086901900000000000000393800000000000339636900000000000000009999123100000010000000000000BRCAMLACNOR3127
012024030102CASH3       010MELIUZ      ON      NM   R$  000000000079500000000008000000000000788000000000079500000000007990000000000795000000000080002296000000000000870500000000000692118000000000000000009999123100000010000000000000BRCASHACNOR8105
012024030102CBAV3       010CBA         ON      NM   R$  000000000040000000000004170000000000399000000000040600000000004030000000000403000000000040406550000000000002912000000000001184383600000000000000009999123100000010000000000000BRCBAVACNOR5104
012024030102CCRO3       010CCR SA      ON      NM   R$  000000000137800000000013960000000001369000000000137800000000013730000000001372000000000137816417000000000005729300000000007895916000000000000000009999123100000010000000000000BRCCROACNOR2144
012024030102CEAB3       010CEA MODAS   ON      NM   R$  000000000093700000000009880000000000930000000000096800000000009690000000000967000000000097214968000000000009687000000000009382949900000000000000009999123100000010000000000000BRCEABACNOR1101
012024030102DASA3       010DASA        ON      NM   R$  000000000077500000000008160000000000775000000000079300000000007920000000000792000000000079801504000000000000320800000000000254518800000000000000009999123100000010000000000000BRDASAACNOR1122
012024030102DESK3       010DESKTOP     ON      NM   R$  000000000141000000000014390000000001410000000000142400000000014390000000001428000000000143901784000000000000229700000000000327150300000000000000009999123100000010000000000000BRDESKACNOR2103
012024030102DEXP3       010DEXXOS PAR  ON      N1   R$  000000000133000000000013330000000001261000000000128700000000012610000000001260000000000128000458000000000000094500000000000121679200000000000000009999123100000010000000000000BRDEXPACNOR1104
012024030102DEXP4       010DEXXOS PAR  PN      N1   R$  000000000133900000000013390000000001252000000000126300000000012520000000001254000000000129300011000000000000002100000000000002652900000000000000009999123100000010000000000000BRDEXPACNPR8104
012024030102DIRR3       010DIRECIONAL  ON      NM   R$  000000000236700000000024270000000002354000000000239600000000023800000000002380000000000238407681000000000001870400000000004482305600000000000000009999123100000010000000000000BRDIRRACNOR0117
012024030102DMVF3       010D1000VFARMA ON      NM   R$  000000000058900000000005990000000000589000000000059600000000005990000000000593000000000059700262000000000000042300000000000025245600000000000000009999123100000010000000000000BRDMVFACNOR9100
012024030102GGPS3       010GPS         ON      NM   R$  000000000179200000000018100000000001746000000000177500000000017680000000001761000000000176806974000000000002520200000000004475319800000000000000009999123100000010000000000000BRGGPSACNOR9102
012024030102GMAT3       010GRUPO MATEUSON      NM   R$  000000000080700000000008110000000000789000000000079700000000007950000000000794000000000079507481000000000006635000000000005290292100000000000000009999123100000010000000000000BRGMATACNOR7100
012024030102GOAU3       010GERDAU MET  ON      N1   R$  000000000103600000000010600000000001036000000000104900000000010500000000001047000000000105000289000000000000062200000000000065300400000000000000009999123100000010000000000000BRGOAUACNOR1265
012024030102GOAU4       010GERDAU MET  PN      N1   R$  000000000101300000000010400000000001011000000000103300000000010360000000001036000000000103713850000000000012158000000000012564462000000000000000009999123100000010000000000000BRGOAUACNPR8266
012024030102JALL3       010JALLESMACHADON      NM   R$  000000000076000000000007650000000000746000000000075400000000007500000000000750000000000075304455000000000000710400000000000535718500000000000000009999123100000010000000000000BRJALLACNOR0105
012024030102JBSS3       010JBS         ON      NM   R$  000000000230700000000023380000000002251000000000228100000000022510000000002251000000000226312541000000000005865800000000013384663200000000000000009999123100000010000000000000BRJBSSACNOR8121
012024030102MRFG3       010MARFRIG     ON      NM   R$  000000000099000000000009970000000000975000000000098600000000009800000000000980000000000098414406000000000008492800000000008376513800000000000000009999123100000010000000000000BRMRFGACNOR0116
012024030102MRSA3B      010MRS LOGIST  ON      MB   R$  000000000240600000000024060000000002360000000000238300000000023600000000002360000000000800000003000000000000000400000000000000953200000000000000009999123100000010000000000000BRMRSAACNOR6124
012024030102MRSA5B      010MRS LOGIST  PNA     MB   R$  000000000230600000000023060000000002306000000000230600000000023060000000002306000000000600000001000000000000000100000000000000230600000000000000009999123100000010000000000000BRMRSAACNPA9124
012024030102MRSA6B      010MRS LOGIST  PNB     MB   R$  000000000230600000000023060000000002306000000000230600000000023060000000002306000000000245000001000000000000000100000000000000230600000000000000009999123100000010000000000000BRMRSAACNPB7124
012024030102BIOM3       010BIOMM       ON      MA   R$  000000000097200000000010120000000000958000000000098200000000010080000000000993000000000100800123000000000000022400000000000021997000000000000000009999123100000010000000000000BRBIOMACNOR2112
012024030107TXRX4       010TEX RENAUX  PN           R$  000000000027000000000002710000000000270000000000027000000000002700000000000260000000000027000008000000000000001600000000000000432500000000000000009999123100000010000000000000BRTXRXACNPR0142
012024030107NUTR3       010NUTRIPLANT  ON      MA   R$  000000000054900000000005580000000000531000000000054500000000005310000000000530000000000056300035000000000000005700000000000003108800000000000000009999123100000010000000000000BRNUTRACNOR0104
012024030108ATMP3       010ATMASA      ON           R$  000000000029400000000003000000000000294000000000029600000000003000000000000294000000000030000005000000000000001200000000000000356300000000000000009999123100000010000000000000BRATMPACNOR8100
012024030108NEXP3       010NEXPE       ON      NM   R$  000000000047200000000004750000000000471000000000047100000000004750000000000472000000000047600007000000000000001900000000000000896500000000000000009999123100000010000000000000BRNEXPACNOR0101
012024030108RNEW11      010RENOVA      UNT     N2   R$  000000000038500000000004100000000000380000000000038500000000003800000000000380000000000038500045000000000000010400000000000004006600000000000000009999123100000010000000000000BRRNEWCDAM15110
012024030108RNEW3       010RENOVA      ON      N2   R$  000000000013100000000001330000000000119000000000012500000000001250000000000126000000000012800255000000000000181000000000000022658900000000000000009999123100000010000000000000BRRNEWACNOR8110
012024030108RNEW4       010RENOVA      PN      N2   R$  000000000013000000000001300000000000125000000000012600000000001260000000000126000000000012700346000000000000246400000000000031271400000000000000009999123100000010000000000000BRRNEWACNPR5110
012024030108RPMG3       010PET MANGUINHON           R$  000000000020000000000002080000000000200000000000020300000000002050000000000205000000000020600009000000000000002800000000000000568400000000000000009999123100000010000000000000BRRPMGACNOR9194
012024030108HOOT4       010HOTEIS OTHONPN           R$  000000000028200000000002820000000000282000000000028200000000002820000000000283000000000028800002000000000000000300000000000000084600000000000000009999123100000010000000000000BRHOOTACNPR9015
012024030108AMER3       010AMERICANAS  ON      NM   R$  000000000005100000000000550000000000050000000000005200000000000540000000000053000000000005405821000000000020000900000000001053645600000000000000009999123100000010000000000000BRAMERACNOR6101
012024030108JFEN3       010JOAO FORTES ON           R$  000000000018200000000001920000000000178000000000018000000000001800000000000179000000000018000052000000000000017200000000000003101000000000000000009999123100000010000000000000BRJFENACNOR0058
012024030108LIGT3       010LIGHT S/A   ON      NM   R$  000000000050300000000005290000000000496000000000051200000000005290000000000525000000000052902978000000000001427300000000000731164300000000000000009999123100000010000000000000BRLIGTACNOR2124
012024030108ETER3       010ETERNIT     ON      NM   R$  000000000067000000000006870000000000666000000000067800000000006800000000000680000000000068200987000000000000443800000000000301267700000000000000009999123100000010000000000000BRETERACNOR3242
012024030108BDLL4       010BARDELLA    PN           R$  000000000080100000000008010000000000801000000000080100000000008010000000000801000000000084000001000000000000000100000000000000080100000000000000009999123100000010000000000000BRBDLLACNPR8151
012024030108TEKA3       010TEKA        ON           R$  000000000103000000000010300000000001030000000000103000000000010300000000000931000000000150000001000000000000000100000000000000103000000000000000009999123100000010000000000000BRTEKAACNOR6140
012024030108TEKA4       010TEKA        PN           R$  000000000380000000000038000000000003750000000000379500000000037500000000003237000000000375000003000000000000001200000000000004555000000000000000009999123100000010000000000000BRTEKAACNPR3140
012024030108FRTA3       010POMIFRUTAS  ON      NM   R$  000000000014300000000001430000000000140000000000014100000000001400000000000140000000000014300016000000000000005700000000000000807400000000000000009999123100000010000000000000BRFRTAACNOR8103
012024030108PMAM3       010PARANAPANEMAON      NM   R$  000000000037600000000003840000000000372000000000037600000000003840000000000379000000000038300070000000000000016500000000000006207700000000000000009999123100000010000000000000BRPMAMACNOR3038
012024030108OIBR3       010OI          ON      N1   R$  000000000010400000000001060000000000099000000000010200000000001020000000000102000000000010304491000000000025283700000000002601202600000000000000009999123100000010000000000000BROIBRACNOR1110
012024030108OIBR4       010OI          PN      N1   R$  000000000021100000000002140000000000204000000000020700000000002040000000000204000000000020600559000000000000338100000000000070203900000000000000009999123100000010000000000000BROIBRACNPR8109
012024030108OSXB3       010OSX BRASIL  ON      NM   R$  000000000049400000000005050000000000491000000000049600000000004970000000000493000000000049600030000000000000005300000000000002632300000000000000009999123100000010000000000000BROSXBACNOR8109
012024030108RSID3       010ROSSI RESID ON      NM   R$  000000000037800000000003850000000000371000000000037700000000003810000000000375000000000038100102000000000000038100000000000014375100000000000000009999123100000010000000000000BRRSIDACNOR8120
012024030110XPIE12      010FIP XP INFRADIR          R$  000000000000300000000000030000000000001000000000000200000000000030000000000002000000000000300092000000000000063310000000000000134005000000000000009999123100000010000000000000BRXPIED04M15125
012024030110RENT9       010LOCALIZA    ON  REC NM   R$  000000000515000000000053400000000005150000000000524600000000052480000000005000000000000000000155000000000000022600000000000118580700000000000000009999123100000010000000000000BRRENTR05OR0193
012024030110VIVR12      010VIVER       DIR     NM   R$  000000000000100000000000020000000000001000000000000100000000000020000000000001000000000000200055000000000000063900000000000000118900000000000000009999123100000010000000000000BRVIVRD02M16121
012024030110LJQQ9       010QUERO-QUERO ON  REC NM   R$  000000000053000000000005400000000000526000000000053300000000005290000000000450000000000060000073000000000000012100000000000006453900000000000000009999123100000010000000000000BRLJQQR01OR0103
012024030110ABCB10      010ABC BRASIL  PN  REC N2   R$  000000000235600000000023660000000002331000000000234900000000023660000000002212000000000000000010000000000000001100000000000002584700000000000000009999123100000010000000000000BRABCBR19PR1144
012024030112NAVT11      010FII NAVI TOTCI           R$  000000000931400000000093970000000009270000000000934800000000092970000000009296000000000929700096000000000000000914000000000008544707000000000000009999123100000010000000000000BRNAVTCTF015135
012024030112NCHB11      010FII NCH BR  CI           R$  000000000093000000000009420000000000930000000000093300000000009370000000000937000000000093900568000000000000044039000000000041097069000000000000009999123100000010000000000000BRNCHBCTF000226
012024030112NCRI11      010FII NAVI CRICI           R$  000000000092500000000009540000000000903000000000092500000000009450000000000918000000000097500026000000000000000143000000000000132397000000000000009999123100000010000000000000BRNCRICTF004114
012024030112ATSA11      010FII HATRIUM CI           R$  000000000551100000000055510000000005500000000000552000000000055510000000005515000000000555100005000000000000000023000000000000126965000000000000009999123100000010000000000000BRATSACTF000143
012024030112BBFI11B     010FII BB PROGRCI  ER  MB   R$  000000012500300000001299990000000125003000000012568100000001256000000000125600000000012689900098000000000000000255000000000032048862000000000000009999123100000010000000000000BRBBFICTF006324
012024030112BBFO11      010FII BB FOF  CI  ER       R$  000000000747400000000074980000000007425000000000746500000000074950000000007477000000000749500143000000000000008771000000000065481024000000000000009999123100000010000000000000BRBBFOCTF004138
012024030112BBRC11      010FII BB CORP CI  ER       R$  000000001139000000000114970000000011356000000001139100000000114240000000011404000000001144200105000000000000000909000000000010354802000000000000009999123100000010000000000000BRBBRCCTF004250
012024030112IBCR11      010FII BREI    CI           R$  000000000817400000000082520000000008149000000000819000000000081820000000008182000000000819700096000000000000006110000000000050045731000000000000009999123100000010000000000000BRIBCRCTF009133
012024030112AFHI11      010FII AFHI CRICI           R$  000000000975700000000098650000000009757000000000980400000000098000000000009798000000000980001306000000000000011396000000000111734998000000000000009999123100000010000000000000BRAFHICTF005138
012024030112AIEC11      010FII AUTONOMYCI  ER       R$  000000000495300000000050470000000004953000000000498400000000049970000000004990000000000499802188000000000000013038000000000064992681000000000000009999123100000010000000000000BRAIECCTF009142
012024030112AJFI11      010FII AJ MALLSCI           R$  000000000096300000000009770000000000961000000000096600000000009750000000000964000000000097613419000000000000126810000000000122539724000000000000009999123100000010000000000000BRAJFICTF001103
012024030112ALZM11      010FII ALIANZMECI           R$  000000000085300000000008600000000000850000000000085400000000008560000000000856000000000085801091000000000000019749000000000016880237000000000000009999123100000010000000000000BRALZMCTF007119
012024030112ALZR11      010FII ALIANZA CI           R$  000000001160000000000116560000000011590000000001162200000000116400000000011640000000001164704024000000000000016936000000000196841103000000000000009999123100000010000000000000BRALZRCTF006178
