00COTAHIST.2024BOVESPA 20240315                                                                                                                                                                                                                      
012024031502VITT3       010VITTIA      ON      NM   R$  000000000075300000000007650000000000720000000000074400000000007320000000000730000000000073301556000000000000277800000000000206710500000000000000009999123100000010000000000000BRVITTACNOR4106
012024031502VIVA3       010VIVARA S.A. ON      NM   R$  000000000315000000000031610000000003072000000000310000000000030720000000003072000000000308005542000000000001319500000000004091392800000000000000009999123100000010000000000000BRVIVAACNOR0106
012024031502VIVR3       010VIVER       ON      NM   R$  000000000033400000000003500000000000325000000000033700000000003330000000000327000000000033300251000000000000207300000000000069979800000000000000009999123100000010000000000000BRVIVRACNOR4122
012024031502VIVT3       010TELEF BRASILON           R$  000000000532400000000053760000000005202000000000522700000000052020000000005201000000000521408414000000000003821100000000019976224500000000000000009999123100000010000000000000BRVIVTACNOR0178
012024031502VLID3       010VALID       ON      NM   R$  000000000184400000000018460000000001802000000000182600000000018310000000001830000000000183201367000000000000311500000000000569067400000000000000009999123100000010000000000000BRVLIDACNOR5141
012024031502VSTE3       010VESTE       ON      NM   R$  000000000140600000000014100000000001394000000000140600000000014100000000001380000000000141000008000000000000001100000000000001546600000000000000009999123100000010000000000000BRVSTEACNOR5102
012024031502VULC3       010VULCABRAS   ON  ED  NM   R$  000000000184900000000018550000000001820000000000183900000000018370000000001820000000000183701726000000000000588800000000001082889700000000000000009999123100000010000000000000BRVULCACNOR2158
012024031502LREN3       010LOJAS RENNERON      NM   R$  000000000160500000000016190000000001530000000000156200000000015400000000001540000000000154140551000000000034828200000000054417233500000000000000009999123100000010000000000000BRLRENACNOR1219
012024031502PRNR3       010PRINER      ON      NM   R$  000000000120500000000012100000000001185000000000119700000000011910000000001191000000000120000981000000000000302700000000000362416900000000000000009999123100000010000000000000BRPRNRACNOR4108
012024031502PSSA3       010PORTO SEGUROON      NM   R$  000000000309000000000031020000000003060000000000307500000000030750000000003070000000000307503949000000000001322600000000004068019100000000000000009999123100000010000000000000BRPSSAACNOR7153
012024031502PTBL3       010PORTOBELLO  ON      NM   R$  000000000064300000000006710000000000632000000000064800000000006450000000000645000000000064605029000000000001792800000000001162287600000000000000009999123100000010000000000000BRPTBLACNOR8132
012024031502PTNT3       010PETTENATI   ON           R$  000000000130400000000013040000000001300000000000130200000000013000000000001280000000000132600002000000000000000200000000000000260400000000000000009999123100000010000000000000BRPTNTACNOR6042
012024031502PTNT4       010PETTENATI   PN           R$  000000000078500000000008080000000000780000000000078900000000007800000000000760000000000078000017000000000000001900000000000001500600000000000000009999123100000010000000000000BRPTNTACNPR3047
012024031502QUAL3       010QUALICORP   ON      NM   R$  000000000023400000000002360000000000225000000000022600000000002260000000000226000000000022903675000000000010158600000000002305610500000000000000009999123100000010000000000000BRQUALACNOR6119
012024031502SAPR11      010SANEPAR     UNT     N2   R$  000000000256100000000026590000000002550000000000259300000000025980000000002580000000000259904811000000000001560300000000004045902800000000000000009999123100000010000000000000BRSAPRCDAM13117
012024031502SAPR3       010SANEPAR     ON      N2   R$  000000000050000000000005120000000000495000000000050300000000005020000000000499000000000050201269000000000000468100000000000235583300000000000000009999123100000010000000000000BRSAPRACNOR9158
012024031502SAPR4       010SANEPAR     PN      N2   R$  000000000051600000000005350000000000512000000000052100000000005130000000000513000000000051603825000000000003964500000000002069350600000000000000009999123100000010000000000000BRSAPRACNPR6158
012024031502SBFG3       010GRUPO SBF   ON      NM   R$  000000000130600000000013150000000001255000000000127400000000012670000000001261000000000126704016000000000001129900000000001439516300000000000000009999123100000010000000000000BRSBFGACNOR1102
012024031502SBSP3       010SABESP      ON      NM   R$  000000000765900000000077030000000007602000000000764000000000076500000000007619000000000765007615000000000002395700000000018303792000000000000000009999123100000010000000000000BRSBSPACNOR5160
012024031502TFCO4       010TRACK FIELD PN      N2   R$  000000000131000000000013100000000001281000000000129000000000012920000000001281000000000129300453000000000000143000000000000184474100000000000000009999123100000010000000000000BRTFCOACNPR8111
012024031502TGMA3       010TEGMA       ON      NM   R$  000000000285600000000028830000000002848000000000286300000000028720000000002871000000000287901018000000000000129900000000000371977600000000000000009999123100000010000000000000BRTGMAACNOR7143
012024031502TIMS3       010TIM         ON      NM   R$  000000000188600000000019080000000001849000000000186300000000018620000000001856000000000186306415000000000005887900000000010972948700000000000000009999123100000010000000000000BRTIMSACNOR5114
012024031502RECV3       010PETRORECSA  ON      NM   R$  000000000218600000000022850000000002186000000000225400000000022850000000002280000000000228509698000000000005270400000000011883599600000000000000009999123100000010000000000000BRRECVACNOR3105
012024031502REDE3       010REDE ENERGIAON           R$  000000000073000000000007500000000000716000000000073600000000007430000000000743000000000074800061000000000000019400000000000014290000000000000000009999123100000010000000000000BRREDEACNOR7126
012024031502RENT3       010LOCALIZA    ON      NM   R$  000000000539200000000054120000000005273000000000531300000000052800000000005280000000000529418887000000000008371500000000044481559500000000000000009999123100000010000000000000BRRENTACNOR4194
012024031502SNSY3       010SANSUY      ON           R$  000000000122000000000012990000000001040000000000115300000000010400000000001025000000000109900098000000000000015500000000000017880600000000000000009999123100000010000000000000BRSNSYACNOR2113
012024031502SNSY5       010SANSUY      PNA          R$  000000000059800000000006700000000000586000000000062500000000006050000000000605000000000061400243000000000000079100000000000049467800000000000000009999123100000010000000000000BRSNSYACNPA5111
012024031502SOJA3       010BOA SAFRA   ON      NM   R$  000000000175800000000017790000000001724000000000175500000000017690000000001765000000000176901057000000000000948300000000001664722200000000000000009999123100000010000000000000BRSOJAACNOR9105
012024031502SOMA3       010GRUPO SOMA  ON      NM   R$  000000000073700000000007430000000000705000000000071100000000007050000000000705000000000070714887000000000022987200000000016351929500000000000000009999123100000010000000000000BRSOMAACNOR3102
012024031502NEOE3       010NEOENERGIA  ON      NM   R$  000000000209200000000020970000000002045000000000207100000000020860000000002075000000000208608705000000000004093600000000008480978500000000000000009999123100000010000000000000BRNEOEACNOR3121
012024031502BHIA3       010CASAS BAHIA ON      NM   R$  000000000080000000000008040000000000740000000000076100000000007400000000000740000000000074107111000000000005692500000000004336921800000000000000009999123100000010000000000000BRBHIAACNOR1101
012024031502BPAC11      010BTGP BANCO  UNT     N2   R$  000000000370700000000037570000000003627000000000366600000000036270000000003627000000000363417494000000000013136700000000048164139500000000000000009999123100000010000000000000BRBPACUNT006118
012024031502CCRO3       010CCR SA      ON      NM   R$  000000000139000000000014240000000001365000000000140300000000014000000000001400000000000140113237000000000013972200000000019607365400000000000000009999123100000010000000000000BRCCROACNOR2144
012024031502CEAB3       010CEA MODAS   ON      NM   R$  000000000097300000000009840000000000944000000000095700000000009510000000000949000000000095204433000000000002427700000000002325523400000000000000009999123100000010000000000000BRCEABACNOR1101
012024031502CEBR3       010CEB         ON           R$  000000000187400000000018790000000001847000000000186800000000018700000000001870000000000187800027000000000000004700000000000008780000000000000000009999123100000010000000000000BRCEBRACNOR5124
012024031502CEBR5       010CEB         PNA          R$  000000000188200000000018820000000001859000000000186200000000018600000000001825000000000186000005000000000000000800000000000001490000000000000000009999123100000010000000000000BRCEBRACNPA8123
012024031502CEBR6       010CEB         PNB          R$  000000000190100000000019160000000001863000000000189100000000018720000000001872000000000188000044000000000000007100000000000013427900000000000000009999123100000010000000000000BRCEBRACNPB6123
012024031502CEDO3       010CEDRO       ON      N1   R$  000000000280000000000028000000000002800000000000280000000000028000000000002600000000000297900002000000000000000200000000000000560000000000000000009999123100000010000000000000BRCEDOACNOR8096
012024031502CEDO4       010CEDRO       PN      N1   R$  000000000267200000000028000000000002672000000000269300000000028000000000002715000000000339600009000000000000001700000000000004579100000000000000009999123100000010000000000000BRCEDOACNPR5128
012024031502CEEB3       010COELBA      ON           R$  000000000393500000000039350000000003802000000000386500000000038020000000003800000000000396900005000000000000000600000000000002319000000000000000009999123100000010000000000000BRCEEBACNOR3196
012024031502CGAS5       010COMGAS      PNA          R$  000000001106000000000114350000000011050000000001117200000000113980000000011044000000001139900012000000000000001300000000000014523700000000000000009999123100000010000000000000BRCGASACNPA3159
012024031502CGRA3       010GRAZZIOTIN  ON           R$  000000000250900000000025370000000002507000000000252600000000025300000000002493000000000252900008000000000000001200000000000003031600000000000000009999123100000010000000000000BRCGRAACNOR2081
012024031502CGRA4       010GRAZZIOTIN  PN           R$  000000000263600000000027300000000002604000000000270000000000026040000000002602000000000266000047000000000000009900000000000026730300000000000000009999123100000010000000000000BRCGRAACNPR9081
012024031502CIEL3       010CIELO       ON      NM   R$  000000000053400000000005350000000000527000000000052800000000005270000000000527000000000052811726000000000037466700000000019795238900000000000000009999123100000010000000000000BRCIELACNOR3156
012024031502CSED3       010CRUZEIRO EDUON      NM   R$  000000000047000000000004720000000000445000000000045700000000004600000000000460000000000046601008000000000000551100000000000252069500000000000000009999123100000010000000000000BRCSEDACNOR9104
012024031502CSMG3       010COPASA      ON      NM   R$  000000000200000000000020180000000001979000000000201200000000020180000000002018000000000201907427000000000007361600000000014814770000000000000000009999123100000010000000000000BRCSMGACNOR5171
012024031502CSNA3       010SID NACIONALON           R$  000000000155600000000015560000000001510000000000152500000000015260000000001526000000000152717002000000000011901900000000018160115800000000000000009999123100000010000000000000BRCSNAACNOR6260
012024031502AERI3       010AERIS       ON      NM   R$  000000000005900000000000600000000000055000000000005600000000000550000000000055000000000005603107000000000004651900000000000264966600000000000000009999123100000010000000000000BRAERIACNOR4101
012024031502AESB3       010AES BRASIL  ON      NM   R$  000000000104500000000010460000000001030000000000103400000000010300000000001030000000000103506293000000000002174100000000002250120700000000000000009999123100000010000000000000BRAESBACNOR7105
012024031502BEEF3       010MINERVA     ON      NM   R$  000000000070500000000007100000000000694000000000070000000000007010000000000700000000000070109111000000000005834500000000004085251000000000000000009999123100000010000000000000BRBEEFACNOR6116
012024031502CAMB3       010CAMBUCI     ON           R$  000000000110000000000011100000000001068000000000107900000000010730000000001073000000000107500154000000000000043900000000000047406400000000000000009999123100000010000000000000BRCAMBACNOR4127
012024031502CAML3       010CAMIL       ON      NM   R$  000000000089500000000008950000000000862000000000087200000000008620000000000862000000000086701506000000000000511000000000000445611600000000000000009999123100000010000000000000BRCAMLACNOR3127
012024031502CASH3       010MELIUZ      ON      NM   R$  000000000083100000000008380000000000786000000000080000000000007880000000000788000000000079207750000000000003929200000000003147162100000000000000009999123100000010000000000000BRCASHACNOR8105
012024031502CBAV3       010CBA         ON      NM   R$  000000000041300000000004130000000000398000000000040100000000004000000000000400000000000040104638000000000004074600000000001636522600000000000000009999123100000010000000000000BRCBAVACNOR5104
012024031502CRFB3       010CARREFOUR BRON      NM   R$  000000000126000000000012630000000001237000000000124600000000012400000000001235000000000124013852000000000006830300000000008515375300000000000000009999123100000010000000000000BRCRFBACNOR2116
012024031502CRIV3       010ALFA FINANC ON           R$  000000000069600000000006960000000000696000000000069600000000006960000000000696000000000069900001000000000000000200000000000000139200000000000000009999123100000010000000000000BRCRIVACNOR4195
012024031502CRIV4       010ALFA FINANC PN           R$  000000000067100000000006710000000000671000000000067100000000006710000000000671000000000069900001000000000000000400000000000000268400000000000000009999123100000010000000000000BRCRIVACNPR1211
012024031502CRPG5       010CRISTAL     PNA          R$  000000000353700000000035400000000003414000000000348500000000034990000000003414000000000349900032000000000000005500000000000019168200000000000000009999123100000010000000000000BRCRPGACNPA3118
012024031502CRPG6       010CRISTAL     PNB          R$  000000000354300000000035780000000003502000000000354200000000035780000000003501000000000357900004000000000000000400000000000001416900000000000000009999123100000010000000000000BRCRPGACNPB1118
012024031502CSAN3       010COSAN       ON      NM   R$  000000000165800000000016810000000001640000000000165200000000016420000000001642000000000164413027000000000008408800000000013891729900000000000000009999123100000010000000000000BRCSANACNOR6124
012024031502GGBR3       010GERDAU      ON      N1   R$  000000000193600000000019360000000001870000000000189500000000018900000000001890000000000189600407000000000000102600000000000194457900000000000000009999123100000010000000000000BRGGBRACNOR1190
012024031502GGBR4       010GERDAU      PN      N1   R$  000000000209900000000021250000000002067000000000208300000000020780000000002077000000000208019894000000000016818000000000035035783300000000000000009999123100000010000000000000BRGGBRACNPR8190
012024031502BIOM3       010BIOMM       ON      MA   R$  000000000092400000000009240000000000873000000000090400000000009110000000000881000000000091200044000000000000010700000000000009682900000000000000009999123100000010000000000000BRBIOMACNOR2112
012024031502BLAU3       010BLAU        ON      NM   R$  000000000119000000000012020000000001180000000000119200000000011900000000001189000000000119301070000000000000200900000000000239576200000000000000009999123100000010000000000000BRBLAUACNOR8111
012024031502BMEB3       010MERCANTIL   ON      N1   R$  000000000250100000000025010000000002501000000000250100000000025010000000002350000000000250100004000000000000000400000000000001000400000000000000009999123100000010000000000000BRBMEBACNOR8205
012024031502BMEB4       010MERCANTIL   PN      N1   R$  000000000246400000000025770000000002463000000000250400000000025110000000002510000000000254200051000000000000007600000000000019031300000000000000009999123100000010000000000000BRBMEBACNPR5210
012024031502BMGB4       010BANCO BMG   PN      N1   R$  000000000037100000000003750000000000366000000000036900000000003660000000000365000000000036601037000000000000659600000000000243875300000000000000009999123100000010000000000000BRBMGBACNPR0108
012024031502BMIN4       010MERC INVEST PN           R$  000000000163000000000016300000000001630000000000163000000000016300000000001566000000000163000001000000000000000100000000000000163000000000000000009999123100000010000000000000BRBMINACNPR1176
012024031502BMKS3       010BIC MONARK  ON           R$  000000003689900000000368990000000036500000000003676600000000365000000000035706000000003650000003000000000000000003000000000000110298000000000000009999123100000010000000000000BRBMKSACNOR9165
012024031502BMOB3       010BEMOBI TECH ON      NM   R$  000000000135900000000013730000000001316000000000133200000000013160000000001316000000000133700944000000000000242500000000000323016400000000000000009999123100000010000000000000BRBMOBACNOR7103
012024031502BNBR3       010NORD BRASIL ON           R$  000000001140000000000114000000000011400000000001140000000000114000000000011310000000001150000001000000000000000100000000000001140000000000000000009999123100000010000000000000BRBNBRACNOR8206
012024031502BOBR4       010BOMBRIL     PN           R$  000000000022800000000002340000000000227000000000022800000000002270000000000227000000000022900028000000000002182400000000000497601900000000000000009999123100000010000000000000BRBOBRACNPR3128
012024031502BRBI11      010BR PARTNERS UNT     N2   R$  000000000163700000000016700000000001620000000000165100000000016600000000001653000000000166100897000000000000162200000000000267793400000000000000009999123100000010000000000000BRBRBICDAM10107
012024031502COCE5       010COELCE      PNA          R$  000000000384900000000038490000000003630000000000368200000000036450000000003645000000000369300177000000000000033300000000000122615800000000000000009999123100000010000000000000BRCOCEACNPA3146
012024031502COGN3       010COGNA ON    ON      NM   R$  000000000028000000000002830000000000248000000000025900000000002480000000000248000000000024915723000000000073806700000000019141789200000000000000009999123100000010000000000000BRCOGNACNOR2104
012024031502CXSE3       010CAIXA SEGURION      NM   R$  000000000160300000000016150000000001579000000000160500000000016150000000001600000000000161511952000000000007548600000000012121713700000000000000009999123100000010000000000000BRCXSEACNOR7105
012024031502KRSA3       010KORA SAUDE  ON      NM   R$  000000000009300000000000950000000000092000000000009200000000000920000000000091000000000009200051000000000000066800000000000006206700000000000000009999123100000010000000000000BRKRSAACNOR0100
012024031502ONCO3       010ONCOCLINICASON      NM   R$  000000000100400000000010130000000000995000000000100100000000010000000000001000000000000101204900000000000001025600000000001027538800000000000000009999123100000010000000000000BRONCOACNOR6100
012024031502OPCT3       010OCEANPACT   ON      NM   R$  000000000058600000000005900000000000581000000000058600000000005900000000000583000000000059001202000000000000431900000000000253310800000000000000009999123100000010000000000000BROPCTACNOR0100
012024031502ORVR3       010ORIZON      ON      NM   R$  000000000382200000000038730000000003810000000000384700000000038670000000003867000000000387901465000000000000280500000000001079141200000000000000009999123100000010000000000000BRORVRACNOR0101
012024031502LAND3       010TERRASANTAPAON      NM   R$  000000000182200000000018990000000001793000000000184800000000018700000000001865000000000187000198000000000000036500000000000067473500000000000000009999123100000010000000000000BRLANDACNOR9102
012024031502LAVV3       010LAVVI       ON  ED  NM   R$  000000000091600000000009240000000000898000000000091000000000009160000000000915000000000091602733000000000000913700000000000832249300000000000000009999123100000010000000000000BRLAVVACNOR4111
012024031502LEVE3       010METAL LEVE  ON      NM   R$  000000000323300000000032940000000003217000000000325000000000032400000000003235000000000324002321000000000000873800000000002839863400000000000000009999123100000010000000000000BRLEVEACNOR2196
012024031502MILS3       010MILLS       ON      NM   R$  000000000129500000000012990000000001280000000000128700000000012830000000001283000000000128402535000000000000505300000000000650615600000000000000009999123100000010000000000000BRMILSACNOR2124
012024031502MLAS3       010MULTILASER  ON      NM   R$  000000000022000000000002210000000000210000000000021300000000002140000000000212000000000021401689000000000001048200000000000223516600000000000000009999123100000010000000000000BRMLASACNOR9101
012024031502MNPR3       010MINUPAR     ON           R$  000000000205000000000020500000000001950000000000197400000000019500000000001630000000000195000010000000000000002100000000000004147100000000000000009999123100000010000000000000BRMNPRACNOR5122
012024031502MOVI3       010MOVIDA      ON      NM   R$  000000000093000000000009390000000000904000000000091500000000009110000000000908000000000091205336000000000001759300000000001610560100000000000000009999123100000010000000000000BRMOVIACNOR0122
012024031502MRFG3       010MARFRIG     ON      NM   R$  000000000102000000000010360000000000998000000000101300000000010030000000001003000000000100613007000000000006388600000000006476066600000000000000009999123100000010000000000000BRMRFGACNOR0116
012024031502RSUL4       010RIOSULENSE  PN           R$  000000000822000000000083980000000008219000000000830200000000083980000000007600000000000839800016000000000000001900000000000015774600000000000000009999123100000010000000000000BRRSULACNPR3113
012024031502PCAR3       010P.ACUCAR-CBDON      NM   R$  000000000032300000000003260000000000304000000000031600000000003100000000000309000000000031013545000000000035947300000000011360824700000000000000009999123100000010000000000000BRPCARACNOR3167
012024031502PFRM3       010PROFARMA    ON      NM   R$  000000000054200000000005480000000000515000000000052700000000005270000000000522000000000052700366000000000000181800000000000095979800000000000000009999123100000010000000000000BRPFRMACNOR1116
012024031502PGMN3       010PAGUE MENOS ON      NM   R$  000000000028300000000002860000000000276000000000028000000000002800000000000279000000000028001191000000000000890300000000000250071700000000000000009999123100000010000000000000BRPGMNACNOR8103
012024031502PINE3       010PINE        ON      N2   R$  000000000065500000000006550000000000640000000000064800000000006400000000000572000000000060000005000000000000000500000000000000324200000000000000009999123100000010000000000000BRPINEACNOR1148
012024031502PINE4       010PINE        PN      N2   R$  000000000046900000000004700000000000458000000000046400000000004650000000000459000000000046500219000000000000144800000000000067219800000000000000009999123100000010000000000000BRPINEACNPR8148
012024031502PLAS3       010PLASCAR PARTON           R$  000000000095100000000009510000000000951000000000095100000000009510000000000875000000000095000001000000000000000100000000000000095100000000000000009999123100000010000000000000BRPLASACNOR2106
012024031502PLPL3       010PLANOEPLANO ON      NM   R$  000000000145000000000014600000000001358000000000140200000000013600000000001360000000000137003286000000000001197600000000001679265000000000000000009999123100000010000000000000BRPLPLACNOR5104
012024031502PNVL3       010DIMED       ON      NM   R$  000000000121000000000012140000000001179000000000119200000000011930000000001192000000000119302948000000000001185400000000001413955900000000000000009999123100000010000000000000BRPNVLACNOR9205
012024031502POMO3       010MARCOPOLO   ON  EB  N2   R$  000000000056600000000005800000000000566000000000057100000000005750000000000568000000000057500737000000000000670500000000000382999700000000000000009999123100000010000000000000BRPOMOACNOR0097
012024031502POMO4       010MARCOPOLO   PN  EB  N2   R$  000000000073500000000007540000000000720000000000073600000000007250000000000725000000000072609706000000000005180200000000003816001500000000000000009999123100000010000000000000BRPOMOACNPR7097
012024031502PORT3       010WILSON SONS ON      NM   R$  000000000177800000000018200000000001772000000000180400000000018200000000001776000000000182002455000000000000784100000000001414908700000000000000009999123100000010000000000000BRPORTACNOR8106
012024031502POSI3       010POSITIVO TECON      NM   R$  000000000084200000000008450000000000801000000000081200000000008010000000000800000000000080102873000000000000858100000000000697340200000000000000009999123100000010000000000000BRPOSIACNOR9115
012024031502ROMI3       010ROMI        ON      NM   R$  000000000127100000000012830000000001269000000000127300000000012760000000001270000000000127600684000000000000144500000000000184051900000000000000009999123100000010000000000000BRROMIACNOR8192
012024031502SUZB3       010SUZANO S.A. ON      NM   R$  000000000594800000000061000000000005937000000000605800000000060800000000006074000000000608025715000000000009305900000000056381546400000000000000009999123100000010000000000000BRSUZBACNOR0129
012024031502TOTS3       010TOTVS       ON      NM   R$  000000000312500000000031270000000003097000000000310800000000030990000000003099000000000311208394000000000004284200000000013316403500000000000000009999123100000010000000000000BRTOTSACNOR8144
012024031502NGRD3       010NEOGRID     ON      NM   R$  000000000011000000000001130000000000108000000000011000000000001090000000000109000000000011000450000000000000388100000000000042862800000000000000009999123100000010000000000000BRNGRDACNOR3103
012024031502RANI3       010IRANI       ON  ED  NM   R$  000000000090200000000009160000000000893000000000090300000000009050000000000902000000000090503320000000000000897600000000000810655500000000000000009999123100000010000000000000BRRANIACNOR5070
012024031502RAPT3       010RANDON PART ON      N1   R$  000000000112300000000011400000000001114000000000112500000000011400000000001121000000000114000040000000000000008700000000000009789400000000000000009999123100000010000000000000BRRAPTACNOR7162
012024031502RAPT4       010RANDON PART PN      N1   R$  000000000118100000000012200000000001181000000000120800000000012030000000001203000000000120405917000000000002572400000000003107605700000000000000009999123100000010000000000000BRRAPTACNPR4162
012024031502CYRE3       010CYRELA REALTON      NM   R$  000000000251600000000025420000000002445000000000246700000000024630000000002462000000000246524658000000000009704800000000023947737100000000000000009999123100000010000000000000BRCYREACNOR7139
012024031502ENGI11      010ENERGISA    UNT     N2   R$  000000000489500000000049090000000004750000000000479100000000047760000000004776000000000480518771000000000009992500000000047874684800000000000000009999123100000010000000000000BRENGICDAM16135
012024031502ENGI3       010ENERGISA    ON      N2   R$  000000000159600000000016140000000001505000000000154600000000015050000000001505000000000152500091000000000000013000000000000020103800000000000000009999123100000010000000000000BRENGIACNOR0145
012024031502ENGI4       010ENERGISA    PN      N2   R$  000000000082900000000008300000000000810000000000082000000000008110000000000810000000000081900069000000000000021900000000000017964000000000000000009999123100000010000000000000BRENGIACNPR7141
012024031502ENJU3       010ENJOEI      ON      NM   R$  000000000017600000000001770000000000169000000000017200000000001690000000000168000000000016900250000000000000327800000000000056425000000000000000009999123100000010000000000000BRENJUACNOR9100
012024031502ENMT4       010ENERGISA MT PN           R$  000000000785000000000078500000000007850000000000785000000000078500000000007200000000000785000001000000000000000100000000000000785000000000000000009999123100000010000000000000BRENMTACNPR2124
012024031502EPAR3       010EMBPAR S/A  ON           R$  000000000092100000000009210000000000857000000000088600000000008580000000000857000000000085800101000000000000040400000000000035811600000000000000009999123100000010000000000000BREPARACNOR9104
012024031502EQPA3       010EQTL PARA   ON           R$  000000000080500000000008150000000000805000000000080600000000008150000000000815000000000081900006000000000000005800000000000004676600000000000000009999123100000010000000000000BREQPAACNOR1110
012024031502EQTL3       010EQUATORIAL  ON      NM   R$  000000000329800000000033560000000003291000000000333500000000033450000000003336000000000334520475000000000028726400000000095821429600000000000000009999123100000010000000000000BREQTLACNOR0129
012024031502HAGA3       010HAGA S/A    ON           R$  000000000029200000000002920000000000292000000000029200000000002920000000000279000000000028600001000000000000000200000000000000058400000000000000009999123100000010000000000000BRHAGAACNOR7103
012024031502HAGA4       010HAGA S/A    PN           R$  000000000011800000000001230000000000117000000000011800000000001180000000000117000000000011900054000000000000032800000000000003901200000000000000009999123100000010000000000000BRHAGAACNPR4103
012024031502HAPV3       010HAPVIDA     ON      NM   R$  000000000038700000000003880000000000380000000000038200000000003820000000000381000000000038214356000000000028485100000000010892975700000000000000009999123100000010000000000000BRHAPVACNOR4113
012024031502IFCM3       010INFRACOMM   ON      NM   R$  000000000011600000000001240000000000111000000000011700000000001120000000000112000000000011304887000000000011697400000000001370623800000000000000009999123100000010000000000000BRIFCMACNOR8101
012024031502JALL3       010JALLESMACHADON      NM   R$  000000000078000000000008000000000000762000000000077900000000007650000000000765000000000076603645000000000000938000000000000730793900000000000000009999123100000010000000000000BRJALLACNOR0105
012024031502JBSS3       010JBS         ON      NM   R$  000000000237000000000023960000000002325000000000233900000000023250000000002325000000000232714119000000000012448700000000029125471800000000000000009999123100000010000000000000BRJBSSACNOR8121
012024031502NINJ3       010GETNINJAS   ON      NM   R$  000000000051500000000005180000000000511000000000051400000000005160000000000515000000000051800059000000000000017000000000000008749000000000000000009999123100000010000000000000BRNINJACNOR5101
012024031502NORD3       010NORDON MET  ON           R$  000000000099500000000010070000000000911000000000096300000000009420000000000942000000000100600016000000000000001900000000000001830200000000000000009999123100000010000000000000BRNORDACNOR7135
012024031502NTCO3       010GRUPO NATURAON      NM   R$  000000000184900000000018530000000001806000000000181500000000018160000000001816000000000181822531000000000014267000000000025906857400000000000000009999123100000010000000000000BRNTCOACNOR5104
012024031502RCSL3       010RECRUSUL    ON           R$  000000000016800000000001680000000000160000000000016100000000001600000000000160000000000016400523000000000000702800000000000113721300000000000000009999123100000010000000000000BRRCSLACNOR4133
012024031502RCSL4       010RECRUSUL    PN           R$  000000000008600000000000880000000000067000000000007400000000000670000000000066000000000006702535000000000004417900000000000330705100000000000000009999123100000010000000000000BRRCSLACNPR1133
012024031502RDNI3       010RNI         ON      NM   R$  000000000041100000000004110000000000405000000000040600000000004050000000000405000000000040700028000000000000011800000000000004797900000000000000009999123100000010000000000000BRRDNIACNOR9116
012024031502RDOR3       010REDE D OR   ON      NM   R$  000000000254900000000025590000000002517000000000252800000000025220000000002521000000000253009287000000000004127800000000010436596900000000000000009999123100000010000000000000BRRDORACNOR8111
012024031502IGTI11      010IGUATEMI S.AUNT     N1   R$  000000000242200000000024300000000002384000000000240000000000023840000000002382000000000238813935000000000004671900000000011217065300000000000000009999123100000010000000000000BRIGTICDAM16105
012024031502IGTI3       010IGUATEMI S.AON      N1   R$  000000000030600000000003350000000000293000000000032700000000003350000000000330000000000033502871000000000002985000000000000978369500000000000000009999123100000010000000000000BRIGTIACNOR8105
012024031502IGTI4       010IGUATEMI S.APN      N1   R$  000000000095000000000009500000000000950000000000095100000000009500000000000950000000000107500204000000000000416100000000000395880200000000000000009999123100000010000000000000BRIGTIACNPR5105
012024031502INEP3       010INEPAR      ON           R$  000000000028400000000002960000000000284000000000028900000000002930000000000286000000000029300056000000000000021200000000000006134700000000000000009999123100000010000000000000BRINEPACNOR1143
012024031502INEP4       010INEPAR      PN           R$  000000000026900000000002720000000000264000000000026900000000002720000000000272000000000027300070000000000000010200000000000002745300000000000000009999123100000010000000000000BRINEPACNPR8143
012024031502INTB3       010INTELBRAS   ON      NM   R$  000000000217900000000021990000000002105000000000214200000000021280000000002120000000000212804346000000000001119200000000002398222600000000000000009999123100000010000000000000BRINTBACNOR9110
012024031502IRBR3       010IRBBRASIL REON      NM   R$  000000000403000000000040340000000003904000000000392800000000039040000000003904000000000390704479000000000001884600000000007404256800000000000000009999123100000010000000000000BRIRBRACNOR4111
012024031502SANB11      010SANTANDER BRUNT          R$  000000000287000000000028890000000002833000000000286600000000028740000000002872000000000287507072000000000002933900000000008409668200000000000000009999123100000010000000000000BRSANBCDAM13163
012024031502SANB3       010SANTANDER BRON           R$  000000000134500000000013630000000001335000000000134600000000013400000000001336000000000135500659000000000000088800000000000119595300000000000000009999123100000010000000000000BRSANBACNOR8170
012024031502SANB4       010SANTANDER BRPN           R$  000000000151300000000015240000000001500000000000151300000000015220000000001516000000000152200621000000000000106500000000000161189500000000000000009999123100000010000000000000BRSANBACNPR5170
012024031502TASA3       010TAURUS ARMASON      N2   R$  000000000138800000000014000000000001376000000000138700000000013810000000001375000000000138100073000000000000009900000000000013739000000000000000009999123100000010000000000000BRTASAACNOR7103
012024031502TASA4       010TAURUS ARMASPN      N2   R$  000000000138900000000014000000000001379000000000138800000000013830000000001383000000000138401019000000000000191400000000000265813000000000000000009999123100000010000000000000BRTASAACNPR4103
012024031502TCSA3       010TECNISA     ON      NM   R$  000000000028800000000002920000000000281000000000028500000000002810000000000281000000000028600187000000000000109800000000000031356100000000000000009999123100000010000000000000BRTCSAACNOR3112
012024031502JSLG3       010JSL         ON      NM   R$  000000000119100000000012070000000001185000000000119100000000011900000000001190000000000119201310000000000000548800000000000653977700000000000000009999123100000010000000000000BRJSLGACNOR2121
012024031502KEPL3       010KEPLER WEBERON      NM   R$  000000000102600000000010310000000001018000000000102400000000010250000000001025000000000102703287000000000000952700000000000976412200000000000000009999123100000010000000000000BRKEPLACNOR1061
012024031502KLBN11      010KLABIN S/A  UNT     N2   R$  000000000228200000000023290000000002261000000000231800000000023290000000002326000000000232912712000000000010755400000000024938026500000000000000009999123100000010000000000000BRKLBNCDAM18140
012024031502SRNA3       010SERENA      ON      NM   R$  000000000088600000000009410000000000886000000000091700000000009290000000000928000000000092906109000000000002420000000000002220012300000000000000009999123100000010000000000000BRSRNAACNOR4100
012024031502STBP3       010SANTOS BRP  ON      NM   R$  000000000116100000000011740000000001153000000000116600000000011720000000001172000000000117412876000000000005516500000000006436021900000000000000009999123100000010000000000000BRSTBPACNOR3128
012024031502KLBN3       010KLABIN S/A  ON      N2   R$  000000000045400000000004640000000000452000000000045800000000004620000000000462000000000046300804000000000000347400000000000159193800000000000000009999123100000010000000000000BRKLBNACNOR2168
012024031502KLBN4       010KLABIN S/A  PN      N2   R$  000000000045500000000004670000000000453000000000045900000000004670000000000465000000000046702067000000000001594000000000000733014400000000000000009999123100000010000000000000BRKLBNACNPR9168
012024031502PDGR3       010PDG REALT   ON      NM   R$  000000000003100000000000310000000000029000000000003000000000000300000000000029000000000003000302000000000001240100000000000037225500000000000000009999123100000010000000000000BRPDGRACNOR8118
012024031502PDTC3       010PADTEC      ON      NM   R$  000000000027800000000002810000000000266000000000027200000000002670000000000266000000000026700259000000000000121700000000000033120600000000000000009999123100000010000000000000BRPDTCACNOR3100
012024031502PETR3       010PETROBRAS   ON      N2   R$  000000000366600000000037000000000003645000000000366300000000036670000000003656000000000366813538000000000019050600000000069794744200000000000000009999123100000010000000000000BRPETRACNOR9202
012024031502PETR4       010PETROBRAS   PN      N2   R$  000000000363000000000036450000000003594000000000362100000000036320000000003624000000000363233794000000000059126000000000214101681700000000000000009999123100000010000000000000BRPETRACNPR6210
012024031502PRIO3       010PETRORIO    ON      NM   R$  000000000483300000000048700000000004694000000000476500000000047800000000004773000000000478323427000000000011887600000000056644562200000000000000009999123100000010000000000000BRPRIOACNOR1106
012024031502RPAD3       010ALFA HOLDINGON           R$  000000000083600000000008400000000000836000000000083800000000008400000000000840000000000089700002000000000000001000000000000000838000000000000000009999123100000010000000000000BRRPADACNOR1198
012024031502RRRP3       0103R PETROLEUMON      NM   R$  000000000292600000000029870000000002872000000000291300000000029050000000002905000000000291512809000000000007879500000000022956660700000000000000009999123100000010000000000000BRRRRPACNOR5102
012024031502VALE3       010VALE        ON  ED  NM   R$  000000000601000000000060240000000005936000000000596700000000059760000000005975000000000597658762000000000057008300000000340221416000000000000000009999123100000010000000000000BRVALEACNOR0210
012024031502MDNE3       010MOURA DUBEUXON      NM   R$  000000000128300000000012950000000001236000000000125100000000012460000000001246000000000125601545000000000000416100000000000520873400000000000000009999123100000010000000000000BRMDNEACNOR9100
012024031502MEAL3       010IMC S/A     ON      NM   R$  000000000022300000000002230000000000211000000000021400000000002130000000000212000000000021300865000000000000837400000000000179210000000000000000009999123100000010000000000000BRMEALACNOR9105
012024031502MELK3       010MELNICK     ON      NM   R$  000000000047200000000004760000000000456000000000046300000000004600000000000460000000000046100445000000000000139800000000000064782900000000000000009999123100000010000000000000BRMELKACNOR8110
012024031502MERC4       010MERC FINANC PN           R$  000000000079300000000008050000000000793000000000079600000000008050000000000725000000000096500004000000000000002000000000000001593200000000000000009999123100000010000000000000BRMERCACNPR9180
012024031502SYNE3       010SYN PROP TECON      NM   R$  000000000085900000000008810000000000853000000000086700000000008650000000000865000000000087300809000000000000318000000000000275995400000000000000009999123100000010000000000000BRSYNEACNOR2102
012024031502TAEE11      010TAESA       UNT     N2   R$  000000000354500000000035620000000003526000000000353500000000035330000000003532000000000353407226000000000003818400000000013498160000000000000000009999123100000010000000000000BRTAEECDAM10145
012024031502TAEE3       010TAESA       ON      N2   R$  000000000117000000000011780000000001170000000000117200000000011700000000001170000000000117200467000000000000082900000000000097180700000000000000009999123100000010000000000000BRTAEEACNOR9145
012024031502TAEE4       010TAESA       PN      N2   R$  000000000118800000000011920000000001180000000000118400000000011850000000001183000000000118500690000000000000200400000000000237410800000000000000009999123100000010000000000000BRTAEEACNPR6145
012024031502MGEL4       010MANGELS INDLPN           R$  000000000148300000000015000000000001426000000000144600000000014300000000001430000000000148000014000000000000002800000000000004050200000000000000009999123100000010000000000000BRMGELACNPR3147
012024031502MGLU3       010MAGAZ LUIZA ON      NM   R$  000000000020200000000002020000000000194000000000019600000000001960000000000196000000000019729600000000000141416500000000027857751600000000000000009999123100000010000000000000BRMGLUACNOR2123
012024031502MWET4       010WETZEL S/A  PN           R$  000000000058100000000005810000000000550000000000056800000000005600000000000555000000000057700017000000000000002100000000000001193400000000000000009999123100000010000000000000BRMWETACNPR3118
012024031502MYPK3       010IOCHP-MAXIONON  ED  NM   R$  000000000136300000000014000000000001362000000000138200000000013740000000001373000000000138505801000000000001210500000000001673421500000000000000009999123100000010000000000000BRMYPKACNOR7154
012024031502JHSF3       010JHSF PART   ON      NM   R$  000000000043800000000004420000000000429000000000043300000000004300000000000430000000000043202888000000000001607800000000000697630200000000000000009999123100000010000000000000BRJHSFACNOR2133
012024031502ODPV3       010ODONTOPREV  ON      NM   R$  000000000127100000000012850000000001268000000000127600000000012730000000001272000000000128002938000000000001543900000000001971268600000000000000009999123100000010000000000000BRODPVACNOR4198
012024031502OFSA3       010OUROFINO S/AON      NM   R$  000000000232500000000023250000000002300000000000232300000000023250000000002275000000000234800015000000000000002900000000000006737600000000000000009999123100000010000000000000BROFSAACNOR7117
012024031502UGPA3       010ULTRAPAR    ON  ED  NM   R$  000000000284500000000028900000000002838000000000285300000000028500000000002850000000000286410223000000000007292400000000020810137000000000000000009999123100000010000000000000BRUGPAACNOR8155
012024031502ZAMP3       010ZAMP S.A.   ON           R$  000000000037500000000003750000000000358000000000036400000000003610000000000361000000000036203364000000000000839100000000000305819400000000000000009999123100000010000000000000BRZAMPACNOR5100
012024031502TPIS3       010TRIUNFO PARTON      NM   R$  000000000038000000000003840000000000379000000000038100000000003840000000000382000000000038400056000000000000027000000000000010287200000000000000009999123100000010000000000000BRTPISACNOR8118
012024031502TRAD3       010TC          ON      NM   R$  000000000008400000000000840000000000081000000000008200000000000830000000000082000000000008300079000000000000207000000000000017113700000000000000009999123100000010000000000000BRTRADACNOR3101
012024031502TRIS3       010TRISUL      ON      NM   R$  000000000052700000000005480000000000522000000000053500000000005300000000000529000000000053001343000000000000881800000000000472609400000000000000009999123100000010000000000000BRTRISACNOR4116
012024031502WLMM4       010WLM IND COM PN           R$  000000000257000000000026000000000002570000000000258100000000025800000000002518000000000258800004000000000000000700000000000001807000000000000000009999123100000010000000000000BRWLMMACNPR3117
012024031502YDUQ3       010YDUQS PART  ON      NM   R$  000000000206400000000020800000000001898000000000194800000000019140000000001913000000000191538101000000000020281000000000039520025100000000000000009999123100000010000000000000BRYDUQACNOR3104
012024031502WEST3       010WESTWING    ON      NM   R$  000000000011700000000001200000000000117000000000011700000000001170000000000117000000000011800120000000000000123900000000000014548500000000000000009999123100000010000000000000BRWESTACNOR3100
012024031502WHRL3       010WHIRLPOOL   ON           R$  000000000044900000000004530000000000437000000000044900000000004530000000000453000000000045400008000000000000001000000000000000449100000000000000009999123100000010000000000000BRWHRLACNOR5128
012024031502WHRL4       010WHIRLPOOL   PN           R$  000000000045300000000004610000000000447000000000045700000000004600000000000460000000000046100024000000000000004700000000000002150700000000000000009999123100000010000000000000BRWHRLACNPR2128
012024031502WIZC3       010WIZ CO      ON      NM   R$  000000000064200000000006480000000000635000000000063900000000006360000000000636000000000063700746000000000000191000000000000122089700000000000000009999123100000010000000000000BRWIZCACNOR5101
012024031502VBBR3       010VIBRA       ON      NM   R$  000000000253500000000025520000000002497000000000252800000000025290000000002523000000000252918816000000000011630800000000029406095300000000000000009999123100000010000000000000BRVBBRACNOR1106
012024031502VAMO3       010VAMOS       ON      NM   R$  000000000086000000000008700000000000827000000000083500000000008280000000000828000000000083110415000000000008609000000000007191892400000000000000009999123100000010000000000000BRVAMOACNOR7105
012024031502SCAR3       010SAO CARLOS  ON      NM   R$  000000000260100000000026480000000002510000000000254000000000025100000000002506000000000251000038000000000000008100000000000020579300000000000000009999123100000010000000000000BRSCARACNOR7130
012024031502TRPL3       010TRAN PAULISTON      N1   R$  000000000340100000000034200000000003352000000000339500000000034050000000003350000000000340500017000000000000002700000000000009167200000000000000009999123100000010000000000000BRTRPLACNOR4185
012024031502TRPL4       010TRAN PAULISTPN      N1   R$  000000000245700000000024690000000002438000000000245200000000024510000000002450000000000245305606000000000002142700000000005255217800000000000000009999123100000010000000000000BRTRPLACNPR1185
012024031502TTEN3       0103TENTOS     ON      NM   R$  000000000105800000000010730000000001051000000000106000000000010600000000001054000000000106101617000000000000333300000000000353628900000000000000009999123100000010000000000000BRTTENACNOR0103
012024031502TUPY3       010TUPY        ON      NM   R$  000000000273500000000027370000000002675000000000269700000000026810000000002681000000000269801843000000000000265800000000000716972700000000000000009999123100000010000000000000BRTUPYACNOR1183
012024031502UCAS3       010UNICASA     ON      NM   R$  000000000026500000000002700000000000257000000000026100000000002570000000000257000000000026400584000000000000092000000000000024075900000000000000009999123100000010000000000000BRUCASACNOR1113
012024031502SMFT3       010SMART FIT   ON      NM   R$  000000000255000000000025760000000002518000000000253900000000025220000000002522000000000252307523000000000001472200000000003739352500000000000000009999123100000010000000000000BRSMFTACNOR1111
012024031502SMTO3       010SAO MARTINHOON      NM   R$  000000000277500000000027990000000002728000000000276300000000027680000000002767000000000276904620000000000001354400000000003742486700000000000000009999123100000010000000000000BRSMTOACNOR3125
012024031502ITUB3       010ITAUUNIBANCOON      N1   R$  000000000299500000000029960000000002964000000000297000000000029640000000002964000000000297701386000000000001807100000000005367619500000000000000009999123100000010000000000000BRITUBACNOR4332
012024031502ITUB4       010ITAUUNIBANCOPN      N1   R$  000000000348700000000034900000000003440000000000345600000000034540000000003454000000000345525785000000000037575400000000129869291300000000000000009999123100000010000000000000BRITUBACNPR1332
012024031502LUPA3       010LUPATECH    ON      NM   R$  000000000020300000000002050000000000196000000000019900000000001960000000000196000000000019900300000000000000371500000000000074087500000000000000009999123100000010000000000000BRLUPAACNOR8112
012024031502LVTC3       010WDC NETWORKSON      NM   R$  000000000038100000000003850000000000375000000000037800000000003750000000000375000000000038200070000000000000015000000000000005678900000000000000009999123100000010000000000000BRLVTCACNOR4102
012024031502LWSA3       010LWSA        ON      NM   R$  000000000058000000000005800000000000556000000000056500000000005660000000000565000000000056712277000000000014126600000000007989736200000000000000009999123100000010000000000000BRLWSAACNOR8103
012024031502MAPT4       010CEMEPE      PN           R$  000000000061500000000006400000000000615000000000061800000000006400000000000601000000000063000004000000000000000700000000000000433000000000000000009999123100000010000000000000BRMAPTACNPR5106
012024031502MATD3       010MATER DEI   ON      NM   R$  000000000062800000000006380000000000617000000000062500000000006170000000000616000000000062901205000000000000335900000000000210155900000000000000009999123100000010000000000000BRMATDACNOR4103
012024031502MBLY3       010MOBLY       ON      NM   R$  000000000021500000000002150000000000205000000000021000000000002130000000000210000000000021400924000000000000476000000000000100221700000000000000009999123100000010000000000000BRMBLYACNOR5100
012024031502MDIA3       010M.DIASBRANCOON  EJ  NM   R$  000000000418800000000042310000000004096000000000413800000000041390000000004104000000000414203050000000000000985200000000004077228100000000000000009999123100000010000000000000BRMDIAACNOR7134
012024031502MTRE3       010MITRE REALTYON      NM   R$  000000000055000000000005590000000000478000000000050100000000004830000000000483000000000048510362000000000008259600000000004143394300000000000000009999123100000010000000000000BRMTREACNOR6109
012024031502MTSA4       010METISA      PN           R$  000000000490000000000049100000000004900000000000490700000000049080000000004810000000000490900005000000000000002300000000000011287800000000000000009999123100000010000000000000BRMTSAACNPR9071
012024031502MULT3       010MULTIPLAN   ON      N2   R$  000000000264800000000026480000000002593000000000261000000000025930000000002593000000000260016262000000000005717300000000014923289700000000000000009999123100000010000000000000BRMULTACNOR5137
012024031502PETZ3       010PETZ        ON      NM   R$  000000000045000000000004730000000000431000000000045100000000004320000000000431000000000043313017000000000026498900000000011955660400000000000000009999123100000010000000000000BRPETZACNOR2109
012024031502RAIL3       010RUMO S.A.   ON      NM   R$  000000000221000000000022180000000002192000000000220100000000022060000000002203000000000220713710000000000018254000000000040182031500000000000000009999123100000010000000000000BRRAILACNOR9104
012024031502RAIZ4       010RAIZEN      PN      N2   R$  000000000034900000000003510000000000346000000000034700000000003460000000000346000000000034706975000000000005697700000000001981688800000000000000009999123100000010000000000000BRRAIZACNPR6109
012024031502SEER3       010SER EDUCA   ON      NM   R$  000000000069000000000006900000000000633000000000065300000000006330000000000633000000000063601548000000000000758600000000000495565500000000000000009999123100000010000000000000BRSEERACNOR5119
012024031502SEQL3       010SEQUOIA LOG ON      NM   R$  000000000004100000000000420000000000038000000000003900000000000390000000000038000000000003903373000000000010537600000000000416405700000000000000009999123100000010000000000000BRSEQLACNOR2101
012024031502SGPS3       010SPRINGS     ON      NM   R$  000000000009100000000000920000000000088000000000009000000000000890000000000088000000000008900121000000000000324900000000000029297700000000000000009999123100000010000000000000BRSGPSACNOR4104
012024031502SHOW3       010TIME FOR FUNON      NM   R$  000000000021500000000002200000000000212000000000021600000000002130000000000213000000000021600227000000000000124600000000000026946500000000000000009999123100000010000000000000BRSHOWACNOR7105
012024031502GRND3       010GRENDENE    ON      NM   R$  000000000064200000000006470000000000634000000000063800000000006390000000000638000000000063903375000000000007010900000000004478632500000000000000009999123100000010000000000000BRGRNDACNOR3172
012024031502GUAR3       010GUARARAPES  ON      NM   R$  000000000072100000000007340000000000683000000000070900000000007120000000000708000000000071209504000000000007243400000000005140259200000000000000009999123100000010000000000000BRGUARACNOR4172
012024031502ALPK3       010ESTAPAR     ON      NM   R$  000000000046200000000004640000000000454000000000045700000000004610000000000455000000000046100248000000000000069000000000000031596400000000000000009999123100000010000000000000BRALPKACNOR9101
012024031502ALUP11      010ALUPAR      UNT     N2   R$  000000000305900000000030670000000003016000000000303800000000030450000000003029000000000304601812000000000000557900000000001695419900000000000000009999123100000010000000000000BRALUPCDAM15117
012024031502ALUP3       010ALUPAR      ON      N2   R$  000000000102600000000010410000000001002000000000102300000000010250000000001024000000000104000184000000000000026700000000000027318400000000000000009999123100000010000000000000BRALUPACNOR8117
012024031502ALUP4       010ALUPAR      PN      N2   R$  000000000101900000000010220000000000997000000000100500000000009970000000000997000000000100500187000000000000033600000000000033796000000000000000009999123100000010000000000000BRALUPACNPR5117
012024031502AMAR3       010LOJAS MARISAON      NM   R$  000000000023700000000002410000000000225000000000023000000000002260000000000226000000000022800716000000000000343300000000000079127900000000000000009999123100000010000000000000BRAMARACNOR4114
012024031502AMBP3       010AMBIPAR     ON      NM   R$  000000000150900000000015530000000001499000000000154400000000015480000000001545000000000154802502000000000002595600000000004007720300000000000000009999123100000010000000000000BRAMBPACNOR6103
012024031502CURY3       010CURY S/A    ON      NM   R$  000000000206100000000021040000000002061000000000207000000000020650000000002064000000000206508768000000000007867900000000016292070200000000000000009999123100000010000000000000BRCURYACNOR3107
012024031502CVCB3       010CVC BRASIL  ON      NM   R$  000000000033600000000003410000000000332000000000033600000000003390000000000338000000000034006121000000000008481700000000002852580600000000000000009999123100000010000000000000BRCVCBACNOR1115
012024031502ENAT3       010ENAUTA PART ON      NM   R$  000000000277000000000028250000000002755000000000279000000000028060000000002806000000000282005624000000000001912900000000005337713700000000000000009999123100000010000000000000BRENATACNOR0104
012024031502ENEV3       010ENEVA       ON      NM   R$  000000000126000000000012850000000001244000000000127900000000012850000000001285000000000128617569000000000043078100000000055104256800000000000000009999123100000010000000000000BRENEVACNOR8105
012024031502ELMD3       010ELETROMIDIA ON      NM   R$  000000000157000000000016070000000001553000000000158300000000015760000000001575000000000158700215000000000000048900000000000077449000000000000000009999123100000010000000000000BRELMDACNOR3100
012024031502EMAE4       010EMAE        PN           R$  000000000830000000000083000000000007600000000000778900000000076300000000007610000000000767900087000000000000014700000000000114502100000000000000009999123100000010000000000000BREMAEACNPR1124
012024031502EMBR3       010EMBRAER     ON      NM   R$  000000000295300000000029800000000002903000000000293500000000029100000000002909000000000291222311000000000012606500000000037004098200000000000000009999123100000010000000000000BREMBRACNOR4191
012024031502GGPS3       010GPS         ON      NM   R$  000000000185300000000018750000000001827000000000185600000000018630000000001863000000000186505504000000000002096000000000003891826300000000000000009999123100000010000000000000BRGGPSACNOR9102
012024031502GMAT3       010GRUPO MATEUSON      NM   R$  000000000082700000000008320000000000804000000000081600000000008110000000000811000000000081808664000000000007102100000000005798393700000000000000009999123100000010000000000000BRGMATACNOR7100
012024031502GOAU3       010GERDAU MET  ON      N1   R$  000000000101000000000010120000000000995000000000100000000000010080000000001000000000000100800325000000000000070100000000000070123000000000000000009999123100000010000000000000BRGOAUACNOR1266
012024031502GOAU4       010GERDAU MET  PN      N1   R$  000000000097800000000009800000000000960000000000096900000000009720000000000971000000000097210703000000000013406100000000012994314900000000000000009999123100000010000000000000BRGOAUACNPR8267
012024031502AGRO3       010BRASILAGRO  ON      NM   R$  000000000238300000000023870000000002356000000000237000000000023700000000002370000000000237101479000000000000245200000000000581202500000000000000009999123100000010000000000000BRAGROACNOR7114
012024031502AGXY3       010AGROGALAXY  ON      NM   R$  000000000016800000000001680000000000165000000000016500000000001660000000000165000000000016600686000000000000168100000000000027881200000000000000009999123100000010000000000000BRAGXYACNOR4102
012024031502ALLD3       010ALLIED      ON      NM   R$  000000000072000000000007200000000000713000000000071700000000007160000000000711000000000071700050000000000000010400000000000007461700000000000000009999123100000010000000000000BRALLDACNOR3105
012024031502ALOS3       010ALLOS       ON      NM   R$  000000000246200000000024680000000002439000000000246000000000024660000000002459000000000246606126000000000003006700000000007397527400000000000000009999123100000010000000000000BRALOSACNOR5100
012024031502ALPA3       010ALPARGATAS  ON      N1   R$  000000000103000000000010310000000001030000000000103000000000010310000000001030000000000105000004000000000000003700000000000003811100000000000000009999123100000010000000000000BRALPAACNOR0231
012024031502ALPA4       010ALPARGATAS  PN      N1   R$  000000000101500000000010240000000000954000000000096600000000009540000000000954000000000095510403000000000007235200000000006994740600000000000000009999123100000010000000000000BRALPAACNPR7232
012024031502BEES3       010BANESTES    ON           R$  000000000090700000000009090000000000900000000000090200000000009000000000000899000000000090000096000000000000015400000000000013901700000000000000009999123100000010000000000000BRBEESACNOR9388
012024031502BEES4       010BANESTES    PN           R$  000000000098800000000009880000000000981000000000098300000000009810000000000980000000000098700015000000000000002000000000000001966500000000000000009999123100000010000000000000BRBEESACNPR6313
012024031502BGIP4       010BANESE      PN  ES       R$  000000000238500000000024240000000002385000000000240400000000024240000000002350000000000242500002000000000000000200000000000000480900000000000000009999123100000010000000000000BRBGIPACNPR8208
012024031502ANIM3       010ANIMA       ON      NM   R$  000000000051500000000005160000000000486000000000049700000000004920000000000490000000000049306233000000000004000100000000001991377700000000000000009999123100000010000000000000BRANIMACNOR6107
012024031502BPAC3       010BTGP BANCO  ON      N2   R$  000000000180800000000018190000000001750000000000178200000000017500000000001750000000000177600021000000000000002300000000000004099000000000000000009999123100000010000000000000BRBPACACNOR7133
012024031502BPAC5       010BTGP BANCO  PNA     N2   R$  000000000095900000000009590000000000930000000000093800000000009300000000000927000000000093000034000000000000005600000000000005257000000000000000009999123100000010000000000000BRBPACACNPA0133
012024031502CLSA3       010CLEARSALE   ON      NM   R$  000000000039500000000004060000000000390000000000039500000000003960000000000392000000000039601415000000000000533000000000000210548700000000000000009999123100000010000000000000BRCLSAACNOR0100
012024031502CLSC3       010CELESC      ON      N2   R$  000000000630300000000063030000000006303000000000630300000000063030000000006302000000000660000001000000000000000100000000000000630300000000000000009999123100000010000000000000BRCLSCACNOR6149
012024031502CLSC4       010CELESC      PN      N2   R$  000000000677800000000068880000000006750000000000678600000000067500000000006701000000000687100018000000000000003000000000000020359800000000000000009999123100000010000000000000BRCLSCACNPR3128
012024031502CMIG3       010CEMIG       ON      N1   R$  000000000139900000000014010000000001328000000000134200000000013280000000001328000000000135002788000000000002266000000000003041461200000000000000009999123100000010000000000000BRCMIGACNOR6239
012024031502CMIG4       010CEMIG       PN      N1   R$  000000000111600000000011430000000001115000000000113400000000011430000000001135000000000114319207000000000024574200000000027873414000000000000000009999123100000010000000000000BRCMIGACNPR3240
012024031502BRAP3       010BRADESPAR   ON      N1   R$  000000000194100000000019420000000001856000000000187000000000018560000000001856000000000189000847000000000000470700000000000880638000000000000000009999123100000010000000000000BRBRAPACNOR5147
012024031502BRAP4       010BRADESPAR   PN      N1   R$  000000000200300000000020070000000001950000000000196300000000019500000000001950000000000195912749000000000011761200000000023089660200000000000000009999123100000010000000000000BRBRAPACNPR2147
012024031502CMIN3       010CSNMINERACAOON      N2   R$  000000000056300000000005660000000000544000000000054700000000005440000000000543000000000054417304000000000023977400000000013136063900000000000000009999123100000010000000000000BRCMINACNOR2110
012024031502CSRN3       010COSERN      ON           R$  000000000228500000000023100000000002285000000000229900000000023100000000002210000000000231000004000000000000000500000000000001149900000000000000009999123100000010000000000000BRCSRNACNOR0190
012024031502CSUD3       010CSU DIGITAL ON      NM   R$  000000000200500000000020100000000001934000000000196600000000019610000000001961000000000196800112000000000000039100000000000076902100000000000000009999123100000010000000000000BRCSUDACNOR5107
012024031502CTNM3       010COTEMINAS   ON           R$  000000000083000000000008440000000000800000000000082900000000008400000000000780000000000084000006000000000000000600000000000000497400000000000000009999123100000010000000000000BRCTNMACNOR9130
012024031502CTNM4       010COTEMINAS   PN           R$  000000000012500000000001290000000000124000000000012600000000001250000000000125000000000012700038000000000000018400000000000002329200000000000000009999123100000010000000000000BRCTNMACNPR6129
012024031502CTSA3       010SANTANENSE  ON           R$  000000000030900000000003140000000000306000000000030700000000003060000000000306000000000031000013000000000000002000000000000000615200000000000000009999123100000010000000000000BRCTSAACNOR3062
012024031502CTSA4       010SANTANENSE  PN           R$  000000000016700000000001700000000000161000000000016500000000001610000000000161000000000016400310000000000000050700000000000008385800000000000000009999123100000010000000000000BRCTSAACNPR0062
012024031502APER3       010ALPER S.A.  ON           R$  000000000410100000000041080000000004100000000000410400000000041080000000003350000000000420000004000000000000000400000000000001641700000000000000009999123100000010000000000000BRAPERACNOR9106
012024031502ARML3       010ARMAC       ON      NM   R$  000000000132000000000013290000000001304000000000130900000000013040000000001304000000000130901511000000000000285000000000000373250300000000000000009999123100000010000000000000BRARMLACNOR1110
012024031502ARZZ3       010AREZZO CO   ON      NM   R$  000000000621900000000062450000000005988000000000605400000000059880000000005986000000000599508635000000000001677700000000010156907400000000000000009999123100000010000000000000BRARZZACNOR3146
012024031502ASAI3       010ASSAI       ON      NM   R$  000000000145400000000014650000000001434000000000145400000000014630000000001460000000000146312865000000000007761200000000011290887400000000000000009999123100000010000000000000BRASAIACNOR0106
012024031502BBDC3       010BRADESCO    ON      N1   R$  000000000126500000000012680000000001251000000000125400000000012530000000001252000000000125408387000000000011974100000000015024312300000000000000009999123100000010000000000000BRBBDCACNOR1767
012024031502BBDC4       010BRADESCO    PN      N1   R$  000000000143400000000014390000000001410000000000141400000000014110000000001411000000000141228375000000000030890100000000043696815500000000000000009999123100000010000000000000BRBBDCACNPR8767
012024031502BPAN4       010BANCO PAN   PN      N1   R$  000000000090000000000009040000000000880000000000089800000000008800000000000880000000000088503714000000000014624600000000013138449900000000000000009999123100000010000000000000BRBPANACNPR1115
012024031502HYPE3       010HYPERA      ON      NM   R$  000000000328500000000034200000000003284000000000338500000000034100000000003406000000000341214621000000000005184300000000017548957400000000000000009999123100000010000000000000BRHYPEACNOR0138
012024031502ITSA3       010ITAUSA      ON      N1   R$  000000000107200000000010790000000001056000000000107200000000010730000000001070000000000107300560000000000000148500000000000159247300000000000000009999123100000010000000000000BRITSAACNOR0438
012024031502ITSA4       010ITAUSA      PN      N1   R$  000000000107200000000010790000000001065000000000106700000000010660000000001065000000000106717601000000000049834000000000053182948800000000000000009999123100000010000000000000BRITSAACNPR7438
012024031502LJQQ3       010QUERO-QUERO ON      NM   R$  000000000059100000000006120000000000581000000000059600000000005950000000000590000000000059604359000000000003204500000000001911246400000000000000009999123100000010000000000000BRLJQQACNOR5104
012024031502LOGG3       010LOG COM PROPON      NM   R$  000000000228200000000022830000000002197000000000222400000000022170000000002217000000000222700966000000000000240100000000000534034600000000000000009999123100000010000000000000BRLOGGACNOR7107
012024031502LOGN3       010LOG-IN      ON      NM   R$  000000000390100000000039160000000003790000000000380100000000037900000000003787000000000384000136000000000000115500000000000439080400000000000000009999123100000010000000000000BRLOGNACNOR3105
012024031502LPSB3       010LOPES BRASILON      NM   R$  000000000020000000000002100000000000199000000000020500000000002100000000000208000000000021000358000000000000155700000000000032036000000000000000009999123100000010000000000000BRLPSBACNOR0113
012024031502USIM3       010USIMINAS    ON      N1   R$  000000000093300000000009370000000000901000000000093000000000009370000000000923000000000093801919000000000001495700000000001391426000000000000000009999123100000010000000000000BRUSIMACNOR3166
012024031502USIM5       010USIMINAS    PNA     N1   R$  000000000098400000000009840000000000954000000000097300000000009780000000000977000000000097916054000000000023133300000000022509746100000000000000009999123100000010000000000000BRUSIMACNPA6168
012024031502USIM6       010USIMINAS    PNB     N1   R$  000000000169000000000016900000000001690000000000169000000000016900000000001300000000000168900001000000000000000100000000000000169000000000000000009999123100000010000000000000BRUSIMACNPB4168
012024031502MRVE3       010MRV         ON      NM   R$  000000000082800000000008580000000000807000000000082900000000008240000000000823000000000082424753000000000040647000000000033717665400000000000000009999123100000010000000000000BRMRVEACNOR2126
012024031502RADL3       010RAIADROGASILON      NM   R$  000000000269100000000027700000000002690000000000272200000000027000000000002698000000000271214320000000000012665300000000034484670700000000000000009999123100000010000000000000BRRADLACNOR0154
012024031502HBOR3       010HELBOR      ON      NM   R$  000000000028900000000002900000000000277000000000028000000000002800000000000278000000000028000481000000000000331100000000000093012100000000000000009999123100000010000000000000BRHBORACNOR3117
012024031502HBRE3       010HBR REALTY  ON      NM   R$  000000000056000000000005640000000000537000000000054600000000005400000000000540000000000054101214000000000001091900000000000596621300000000000000009999123100000010000000000000BRHBREACNOR4100
012024031502HBSA3       010HIDROVIAS   ON      NM   R$  000000000034900000000003530000000000347000000000034900000000003500000000000350000000000035404529000000000002726800000000000954249500000000000000009999123100000010000000000000BRHBSAACNOR0100
012024031502AALR3       010ALLIAR      ON      NM   R$  000000000070600000000007190000000000690000000000070300000000007090000000000700000000000070900289000000000000043600000000000030663800000000000000009999123100000010000000000000BRAALRACNOR6102
012024031502ABCB4       010ABC BRASIL  PN      N2   R$  000000000246700000000024940000000002445000000000245500000000024510000000002451000000000245302660000000000002805100000000006886613500000000000000009999123100000010000000000000BRABCBACNPR4145
012024031502ABEV3       010AMBEV S/A   ON           R$  000000000128600000000012860000000001261000000000126600000000012630000000001262000000000126525108000000000036166000000000045811793800000000000000009999123100000010000000000000BRABEVACNOR1127
012024031502BAHI3       010BAHEMA      ON      MA   R$  000000000065500000000006550000000000644000000000064900000000006440000000000644000000000066200004000000000000000700000000000000454400000000000000009999123100000010000000000000BRBAHIACNOR1074
012024031502BALM3       010BAUMER      ON           R$  000000000102500000000010250000000001025000000000102500000000010250000000000985000000000109900001000000000000000100000000000000102500000000000000009999123100000010000000000000BRBALMACNOR5055
012024031502BAUH4       010EXCELSIOR   PN           R$  000000000788000000000078800000000007880000000000788000000000078800000000005100000000000798000003000000000000000300000000000002364000000000000000009999123100000010000000000000BRBAUHACNPR3117
012024031502BAZA3       010AMAZONIA    ON           R$  000000000891900000000094920000000008919000000000920800000000094920000000009260000000000949200053000000000000006700000000000061693600000000000000009999123100000010000000000000BRBAZAACNOR0178
012024031502BBAS3       010BRASIL      ON  EJ  NM   R$  000000000568200000000057520000000005677000000000571200000000057290000000005727000000000573018582000000000014192000000000081074301200000000000000009999123100000010000000000000BRBBASACNOR3321
012024031502BRSR3       010BANRISUL    ON      N1   R$  000000000144300000000014680000000001443000000000145300000000014560000000001450000000000146300024000000000000003500000000000005087400000000000000009999123100000010000000000000BRBRSRACNOR3185
012024031502BRSR6       010BANRISUL    PNB     N1   R$  000000000149100000000015040000000001485000000000149200000000014940000000001494000000000149803296000000000000998200000000001489930300000000000000009999123100000010000000000000BRBRSRACNPB4188
012024031502CPFE3       010CPFL ENERGIAON      NM   R$  000000000336300000000033760000000003329000000000334200000000033380000000003338000000000334709248000000000005670600000000018953069200000000000000009999123100000010000000000000BRCPFEACNOR0136
012024031502CPLE3       010COPEL       ON      N2   R$  000000000090600000000009090000000000885000000000089400000000008970000000000895000000000089704656000000000005703900000000005104050700000000000000009999123100000010000000000000BRCPLEACNOR8148
012024031502CPLE6       010COPEL       PNB     N2   R$  000000000099300000000010040000000000974000000000098400000000009870000000000986000000000098716350000000000016333000000000016086825000000000000000009999123100000010000000000000BRCPLEACNPB9145
012024031502EKTR4       010ELEKTRO     PN           R$  000000000403500000000040350000000004035000000000403500000000040350000000004016000000000470000001000000000000000100000000000000403500000000000000009999123100000010000000000000BREKTRACNPR7159
012024031502ELET3       010ELETROBRAS  ON      N1   R$  000000000440700000000044150000000004202000000000428300000000043000000000004297000000000430033701000000000018007200000000077131819000000000000000009999123100000010000000000000BRELETACNOR6159
012024031502ELET6       010ELETROBRAS  PNB     N1   R$  000000000488000000000048970000000004692000000000475700000000047510000000004751000000000475308307000000000002487900000000011837378500000000000000009999123100000010000000000000BRELETACNPB7076
012024031502FRAS3       010FRAS-LE     ON      N1   R$  000000000170800000000017590000000001708000000000174200000000017590000000001721000000000175901886000000000000465000000000000810344200000000000000009999123100000010000000000000BRFRASACNOR0158
012024031502GEPA3       010GER PARANAP ON           R$  000000000255700000000025570000000002557000000000255700000000025570000000002553000000000272000003000000000000000400000000000001022800000000000000009999123100000010000000000000BRGEPAACNOR2152
012024031502GFSA3       010GAFISA      ON      NM   R$  000000000125000000000012880000000001115000000000120600000000011150000000001115000000000112210969000000000008825000000000010650497100000000000000009999123100000010000000000000BRGFSAACNOR3123
012024031502BBSE3       010BBSEGURIDADEON      NM   R$  000000000331500000000033850000000003311000000000334400000000033270000000003326000000000332713173000000000009888900000000033075827300000000000000009999123100000010000000000000BRBBSEACNOR5124
012024031502BRGE3       010ALFA CONSORCON           R$  000000000135000000000013500000000001350000000000135000000000013500000000001344000000000175000001000000000000000100000000000000135000000000000000009999123100000010000000000000BRBRGEACNOR6204
012024031502BRIT3       010BRISANET    ON      NM   R$  000000000035900000000003600000000000348000000000035400000000003530000000000350000000000035301791000000000000630700000000000223837200000000000000009999123100000010000000000000BRBRITACNOR0102
012024031502BRIV4       010ALFA INVEST PN           R$  000000000125000000000012500000000001226000000000124900000000012500000000001250000000000129900009000000000000101400000000000126731000000000000000009999123100000010000000000000BRBRIVACNPR3218
012024031502BRKM3       010BRASKEM     ON      N1   R$  000000000205300000000021470000000002046000000000212300000000021200000000002120000000000213800063000000000000013500000000000028669800000000000000009999123100000010000000000000BRBRKMACNOR1119
012024031502BRKM5       010BRASKEM     PNA     N1   R$  000000000203700000000021710000000002031000000000214300000000021710000000002160000000000217112826000000000009422200000000020194250900000000000000009999123100000010000000000000BRBRKMACNPA4121
012024031502DXCO3       010DEXCO       ON  ED  NM   R$  000000000081800000000008300000000000798000000000080800000000008100000000000808000000000081108610000000000005167700000000004177440400000000000000009999123100000010000000000000BRDXCOACNOR8105
012024031502TECN3       010TECHNOS     ON      NM   R$  000000000037800000000003950000000000374000000000038600000000003820000000000382000000000038400667000000000000347600000000000134264200000000000000009999123100000010000000000000BRTECNACNOR6109
012024031502TELB3       010TELEBRAS    ON           R$  000000000137000000000014200000000001370000000000140000000000014190000000001405000000000142000024000000000000004200000000000005883000000000000000009999123100000010000000000000BRTELBACNOR2140
012024031502TELB4       010TELEBRAS    PN           R$  000000000108200000000011000000000001063000000000106900000000010700000000001069000000000108900031000000000000008200000000000008772100000000000000009999123100000010000000000000BRTELBACNPR9140
012024031502TEND3       010TENDA       ON      NM   R$  000000000108000000000012270000000001078000000000116600000000011940000000001192000000000119417013000000000008460000000000009870178300000000000000009999123100000010000000000000BRTENDACNOR4111
012024031502VVEO3       010VIVEO       ON      NM   R$  000000000073400000000007450000000000730000000000073800000000007380000000000736000000000073802837000000000000716700000000000529044100000000000000009999123100000010000000000000BRVVEOACNOR0103
012024031502EALT3       010ACO ALTONA  ON           R$  000000000100000000000010290000000001000000000000102400000000010290000000001000000000000104600002000000000000000600000000000000614500000000000000009999123100000010000000000000BREALTACNOR4137
012024031502WEGE3       010WEG         ON      NM   R$  000000000381600000000038830000000003755000000000381000000000038000000000003796000000000380115848000000000009874600000000037627958000000000000000009999123100000010000000000000BRWEGEACNOR0221
012024031502EALT4       010ACO ALTONA  PN           R$  000000000109700000000011000000000001063000000000109200000000010900000000001090000000000109700032000000000000005000000000000005460000000000000000009999123100000010000000000000BREALTACNPR1137
012024031502ECOR3       010ECORODOVIAS ON      NM   R$  000000000092000000000009210000000000881000000000089200000000008900000000000889000000000089011863000000000008952100000000007986275700000000000000009999123100000010000000000000BRECORACNOR8119
012024031502EGIE3       010ENGIE BRASILON      NM   R$  000000000403200000000040590000000004008000000000401800000000040150000000004012000000000401505118000000000003222200000000012948002000000000000000009999123100000010000000000000BREGIEACNOR9125
012024031502FESA3       010FERBASA     ON      N1   R$  000000000144400000000014440000000001444000000000144400000000014440000000001450000000000153100002000000000000000200000000000000288800000000000000009999123100000010000000000000BRFESAACNOR8187
012024031502FESA4       010FERBASA     PN      N1   R$  000000000086500000000008690000000000848000000000085400000000008540000000000853000000000085403584000000000000866700000000000740972400000000000000009999123100000010000000000000BRFESAACNPR5083
012024031502FHER3       010FER HERINGERON      NM   R$  000000000058100000000005810000000000573000000000057700000000005730000000000574000000000058000022000000000000004200000000000002426600000000000000009999123100000010000000000000BRFHERACNOR5103
012024031502FIQE3       010UNIFIQUE    ON      NM   R$  000000000042100000000004230000000000411000000000041700000000004150000000000415000000000042000697000000000000293500000000000122424500000000000000009999123100000010000000000000BRFIQEACNOR5106
012024031502FLRY3       010FLEURY      ON      NM   R$  000000000149800000000015020000000001482000000000149200000000014930000000001493000000000149609221000000000006568400000000009800858700000000000000009999123100000010000000000000BRFLRYACNOR5137
012024031502B3SA3       010B3          ON      NM   R$  000000000124700000000012590000000001231000000000123700000000012330000000001232000000000123422673000000000046396300000000057432295300000000000000009999123100000010000000000000BRB3SAACNOR6131
012024031502BRFS3       010BRF SA      ON      NM   R$  000000000172300000000017290000000001646000000000165200000000016460000000001646000000000165416276000000000031268500000000051686760600000000000000009999123100000010000000000000BRBRFSACNOR8121
012024031502DASA3       010DASA        ON      NM   R$  000000000070100000000007390000000000701000000000071800000000007390000000000720000000000074001204000000000000230700000000000165720900000000000000009999123100000010000000000000BRDASAACNOR1122
012024031502DESK3       010DESKTOP     ON      NM   R$  000000000142100000000014210000000001386000000000139400000000013860000000001386000000000138800417000000000000072900000000000101672700000000000000009999123100000010000000000000BRDESKACNOR2103
012024031502DEXP3       010DEXXOS PAR  ON      N1   R$  000000000126200000000012640000000001225000000000123500000000012250000000001224000000000123500126000000000000024200000000000029910700000000000000009999123100000010000000000000BRDEXPACNOR1104
012024031502DEXP4       010DEXXOS PAR  PN      N1   R$  000000000122700000000012270000000001227000000000122700000000012270000000001227000000000125000006000000000000002300000000000002822100000000000000009999123100000010000000000000BRDEXPACNPR8104
012024031502DIRR3       010DIRECIONAL  ON      NM   R$  000000000251500000000025300000000002473000000000249700000000025050000000002500000000000250504827000000000000892400000000002228516200000000000000009999123100000010000000000000BRDIRRACNOR0117
012024031502DMVF3       010D1000VFARMA ON      NM   R$  000000000064500000000006710000000000631000000000065100000000006310000000000631000000000065500434000000000000194500000000000126778300000000000000009999123100000010000000000000BRDMVFACNOR9100
012024031502DOHL4       010DOHLER      PN           R$  000000000048000000000004800000000000480000000000048000000000004800000000000472000000000048000001000000000000000100000000000000048000000000000000009999123100000010000000000000BRDOHLACNPR9066
012024031502DOTZ3       010DOTZ SA     ON      NM   R$  000000000064800000000006750000000000624000000000064100000000006250000000000625000000000063500063000000000000015800000000000010137000000000000000009999123100000010000000000000BRDOTZACNOR7101
012024031502ESPA3       010ESPACOLASER ON      NM   R$  000000000010900000000001110000000000107000000000010800000000001070000000000107000000000010800593000000000000410800000000000044405900000000000000009999123100000010000000000000BRESPAACNOR7103
012024031502ESTR4       010ESTRELA     PN           R$  000000000020200000000002170000000000202000000000020300000000002170000000000203000000000021600009000000000000003200000000000000652000000000000000009999123100000010000000000000BRESTRACNPR0144
012024031502EUCA3       010EUCATEX     ON      N1   R$  000000000167500000000017000000000001674000000000169900000000017000000000001653000000000171500016000000000000010100000000000017162400000000000000009999123100000010000000000000BREUCAACNOR1157
012024031502EUCA4       010EUCATEX     PN      N1   R$  000000000173500000000017410000000001698000000000172100000000017300000000001719000000000173000242000000000000058500000000000100690500000000000000009999123100000010000000000000BREUCAACNPR8044
012024031502EVEN3       010EVEN        ON      NM   R$  000000000086400000000008750000000000839000000000084900000000008390000000000839000000000084202633000000000000703800000000000597554600000000000000009999123100000010000000000000BREVENACNOR8118
012024031502EZTC3       010EZTEC       ON      NM   R$  000000000172500000000017820000000001613000000000166400000000016950000000001675000000000169514316000000000005845400000000009730531000000000000000009999123100000010000000000000BREZTCACNOR0123
012024031502ATOM3       010ATOMPAR     ON           R$  000000000019200000000001930000000000191000000000019100000000001910000000000190000000000019100013000000000000002600000000000000498000000000000000009999123100000010000000000000BRATOMACNOR1106
012024031502AURE3       010AUREN       ON      NM   R$  000000000120200000000012140000000001189000000000119600000000011950000000001194000000000119510970000000000009846100000000011782117900000000000000009999123100000010000000000000BRAUREACNOR9104
012024031502AVLL3       010ALPHAVILLE  ON      NM   R$  000000000040000000000004100000000000400000000000040600000000004100000000000401000000000041000003000000000000000300000000000000121900000000000000009999123100000010000000000000BRAVLLACNOR5103
012024031502AZEV3       010AZEVEDO     ON           R$  000000000013400000000001340000000000130000000000013100000000001300000000000130000000000013200270000000000000232100000000000030497500000000000000009999123100000010000000000000BRAZEVACNOR0121
012024031502AZEV4       010AZEVEDO     PN           R$  000000000012900000000001300000000000125000000000012600000000001250000000000125000000000012600670000000000001087800000000000137561300000000000000009999123100000010000000000000BRAZEVACNPR7121
012024031502AZUL4       010AZUL        PN      N2   R$  000000000126500000000013490000000001236000000000131100000000013490000000001346000000000134921534000000000023764500000000031174499900000000000000009999123100000010000000000000BRAZULACNPR4102
012024031502SHUL4       010SCHULZ      PN           R$  000000000069000000000006940000000000669000000000067400000000006690000000000669000000000067102583000000000000820700000000000553828900000000000000009999123100000010000000000000BRSHULACNPR4154
012024031502SIMH3       010SIMPAR      ON      NM   R$  000000000077000000000007770000000000760000000000076700000000007700000000000766000000000077108626000000000003218100000000002470513400000000000000009999123100000010000000000000BRSIMHACNOR0107
012024031502SLCE3       010SLC AGRICOLAON      NM   R$  000000000189600000000019240000000001886000000000189600000000018960000000001893000000000189808118000000000007562400000000014342488900000000000000009999123100000010000000000000BRSLCEACNOR2124
012024031502UNIP3       010UNIPAR      ON           R$  000000000612000000000062500000000006120000000000620200000000062180000000006199000000000621800086000000000000010700000000000066371000000000000000009999123100000010000000000000BRUNIPACNOR7204
012024031502UNIP5       010UNIPAR      PNA          R$  000000000704700000000071000000000007000000000000704900000000070000000000006683000000000709900003000000000000000300000000000002114700000000000000009999123100000010000000000000BRUNIPACNPA0206
012024031502UNIP6       010UNIPAR      PNB          R$  000000000654000000000068050000000006396000000000667000000000067030000000006700000000000670301943000000000001489600000000009935974800000000000000009999123100000010000000000000BRUNIPACNPB8204
012024031507NUTR3       010NUTRIPLANT  ON      MA   R$  000000000061000000000007100000000000606000000000066800000000006700000000000666000000000069100140000000000000018100000000000012097000000000000000009999123100000010000000000000BRNUTRACNOR0104
012024031507TXRX4       010TEX RENAUX  PN           R$  000000000026700000000002670000000000259000000000026100000000002590000000000259000000000026900006000000000000002700000000000000707100000000000000009999123100000010000000000000BRTXRXACNPR0142
012024031508HOOT4       010HOTEIS OTHONPN           R$  000000000028100000000002860000000000276000000000027700000000002860000000000278000000000028500023000000000000007600000000000002110200000000000000009999123100000010000000000000BRHOOTACNPR9015
012024031508OIBR3       010OI          ON      N1   R$  000000000007600000000000780000000000073000000000007400000000000740000000000074000000000007503494000000000006707400000000000500034400000000000000009999123100000010000000000000BROIBRACNOR1110
012024031508OIBR4       010OI          PN      N1   R$  000000000018200000000001920000000000182000000000018600000000001830000000000183000000000018400091000000000000038400000000000007165600000000000000009999123100000010000000000000BROIBRACNPR8109
012024031508LIGT3       010LIGHT S/A   ON      NM   R$  000000000051400000000005310000000000514000000000052000000000005180000000000517000000000051801378000000000000272100000000000141716400000000000000009999123100000010000000000000BRLIGTACNOR2124
012024031508RSID3       010ROSSI RESID ON      NM   R$  000000000036400000000003640000000000360000000000036300000000003640000000000356000000000036400025000000000001601600000000000582975600000000000000009999123100000010000000000000BRRSIDACNOR8120
012024031508PMAM3       010PARANAPANEMAON      NM   R$  000000000036100000000003700000000000361000000000036800000000003620000000000362000000000036900092000000000002857800000000001054427800000000000000009999123100000010000000000000BRPMAMACNOR3038
012024031508RNEW11      010RENOVA      UNT     N2   R$  000000000035700000000003670000000000330000000000035000000000003620000000000350000000000036200056000000000000008000000000000002806900000000000000009999123100000010000000000000BRRNEWCDAM15110
012024031508RNEW3       010RENOVA      ON      N2   R$  000000000012200000000001240000000000119000000000012000000000001200000000000119000000000012000076000000000000027700000000000003330900000000000000009999123100000010000000000000BRRNEWACNOR8110
012024031508RNEW4       010RENOVA      PN      N2   R$  000000000012000000000001210000000000118000000000011900000000001200000000000119000000000012000128000000000000050500000000000006016900000000000000009999123100000010000000000000BRRNEWACNPR5110
012024031508NEXP3       010NEXPE       ON      NM   R$  000000000046300000000004690000000000462000000000046400000000004690000000000456000000000046200007000000000000001200000000000000557000000000000000009999123100000010000000000000BRNEXPACNOR0101
012024031508RPMG3       010PET MANGUINHON           R$  000000000021400000000002170000000000210000000000021100000000002100000000000210000000000021400013000000000000003100000000000000657000000000000000009999123100000010000000000000BRRPMGACNOR9194
012024031508JFEN3       010JOAO FORTES ON           R$  000000000016900000000001700000000000168000000000016900000000001680000000000166000000000017200013000000000000005000000000000000846900000000000000009999123100000010000000000000BRJFENACNOR0058
012024031508AMER3       010AMERICANAS  ON      NM   R$  000000000005400000000000550000000000053000000000005300000000000530000000000053000000000005400873000000000005587900000000000299971500000000000000009999123100000010000000000000BRAMERACNOR6101
012024031508FRTA3       010POMIFRUTAS  ON      NM   R$  000000000013800000000001380000000000136000000000013600000000001380000000000136000000000013700005000000000000001300000000000000177200000000000000009999123100000010000000000000BRFRTAACNOR8103
012024031508TEKA4       010TEKA        PN           R$  000000000400000000000041000000000004000000000000406200000000040950000000003000000000000408000007000000000000000700000000000002843500000000000000009999123100000010000000000000BRTEKAACNPR3140
012024031508ETER3       010ETERNIT     ON      NM   R$  000000000071400000000007150000000000700000000000070500000000007040000000000704000000000070500416000000000000110200000000000077708000000000000000009999123100000010000000000000BRETERACNOR3243
012024031508ATMP3       010ATMASA      ON           R$  000000000025700000000002660000000000252000000000025400000000002660000000000251000000000026700036000000000000022300000000000005669500000000000000009999123100000010000000000000BRATMPACNOR8100
012024031510PGMN9       010PAGUE MENOS ON  REC NM   R$  000000000027500000000002750000000000275000000000027500000000002750000000000250000000000029600006000000000000001100000000000000302500000000000000009999123100000010000000000000BRPGMNR04OR7102
012024031510MGLU9       010MAGAZ LUIZA ON  REC NM   R$  000000000019600000000002050000000000191000000000019500000000001910000000000190000000000019100131000000000000077200000000000015095900000000000000009999123100000010000000000000BRMGLUR01OR7122
012024031510ABCB10      010ABC BRASIL  PN  REC N2   R$  000000000244000000000024550000000002440000000000244700000000024550000000002333000000000000000006000000000000000600000000000001468500000000000000009999123100000010000000000000BRABCBR19PR1144
012024031512VIUR11      010FII VINCI IUCI           R$  000000000070800000000007080000000000700000000000070300000000007030000000000702000000000070303406000000000000069382000000000048789974000000000000009999123100000010000000000000BRVIURCTF009134
012024031512VOTS11      010FII V MASTERCI           R$  000000000821000000000082100000000008194000000000819700000000081960000000008194000000000819600009000000000000000036000000000000295118000000000000009999123100000010000000000000BRVOTSCTF007167
012024031512VRTA11      010FII FATOR VECI           R$  000000000875500000000087920000000008751000000000876900000000087510000000008751000000000875201581000000000000016086000000000141065257000000000000009999123100000010000000000000BRVRTACTF008257
012024031512VRTM11      010FII VRTM    CI           R$  000000000101400000000010140000000000996000000000099600000000009960000000000996000000000109700005000000000000000076000000000000075736000000000000009999123100000010000000000000BRVRTMCTF003104
012024031512VSHO11      010FII VOT SHOPCI           R$  000000000813000000000081890000000008051000000000811200000000081000000000008100000000000815300224000000000000001212000000000009831792000000000000009999123100000010000000000000BRVSHOCTF002158
012024031512VSLH11      010FII VERS CRICI  ER       R$  000000000036600000000003700000000000360000000000036600000000003640000000000363000000000036402041000000000000035514000000000013005425000000000000009999123100000010000000000000BRVSLHCTF008140
012024031512VTLT11      010FII VOT LOG CI           R$  000000000969700000000098000000000009600000000000964600000000096900000000009632000000000969100097000000000000000892000000000008604696000000000000009999123100000010000000000000BRVTLTCTF001169
012024031512HCTR11      010FII HECTARE CI  ER       R$  000000000297000000000030140000000002950000000000298400000000030140000000003005000000000301402892000000000000033685000000000100546708000000000000009999123100000010000000000000BRHCTRCTF003167
012024031512HFOF11      010FII HTOPFOF3CI           R$  000000000771800000000077300000000007700000000000771200000000077300000000007729000000000773003635000000000000010484000000000080856762000000000000009999123100000010000000000000BRHFOFCTF002186
012024031512HGBS11      010FII HEDGEBS CI           R$  000000002300000000000231930000000022500000000002264500000000225000000000022500000000002272008057000000000000079941000000001810332304000000000000009999123100000010000000000000BRHGBSCTF000307
012024031512HGCR11      010FII CSHG CRICI           R$  000000001064900000000106970000000010545000000001064000000000105740000000010573000000001057506572000000000000041419000000000440729599000000000000009999123100000010000000000000BRHGCRCTF000243
012024031512HGFF11      010FII CSHG FOFCI           R$  000000000890600000000089300000000008890000000000891200000000088930000000008893000000000892902097000000000000005477000000000048811588000000000000009999123100000010000000000000BRHGFFCTF008157
012024031512HGIC11      010FII HGI CRI CI           R$  000000001049000000000104900000000010336000000001048100000000103360000000010337000000001040000015000000000000000081000000000000848989000000000000009999123100000010000000000000BRHGICCTF009137
012024031512HGLG11      010FII CSHG LOGCI           R$  000000001674000000000168990000000016650000000001678200000000166500000000016650000000001673011009000000000000057371000000000962853723000000000000009999123100000010000000000000BRHGLGCTF004268
012024031512HGPO11      010FII CSHGPRIMCI           R$  000000003044000000000310930000000030440000000003067900000000305400000000030540000000003064701573000000000000003325000000000102008238000000000000009999123100000010000000000000BRHGPOCTF009158
012024031512HGRE11      010FII HG REAL CI           R$  000000001284900000000130000000000012848000000001294600000000129260000000012922000000001292604134000000000000010630000000000137617718000000000000009999123100000010000000000000BRHGRECTF006289
012024031512HGRU11      010FII CSHG URBCI           R$  000000001360500000000137230000000013450000000001365200000000136680000000013580000000001366807273000000000000027123000000000370286755000000000000009999123100000010000000000000BRHGRUCTF002173
012024031512HLOG11      010FII HEDGELOGCI           R$  000000000820200000000083990000000008175000000000820500000000083490000000008323000000000834900067000000000000003635000000000029827666000000000000009999123100000010000000000000BRHLOGCTF008153
012024031512HOFC11      010FII HOFFICEICI           R$  000000000215000000000021730000000002150000000000215900000000021700000000002170000000000217400246000000000000004019000000000008678054000000000000009999123100000010000000000000BRHOFCCTF009114
012024031512HOSI11      010FII HOUSI   CI           R$  000000000893800000000089380000000008928000000000885100000000089280000000008852000000000895600022000000000000000205000000000001814506000000000000009999123100000010000000000000BRHOSICTF009142
012024031512HPDP11      010FII HEDGEPDPCI           R$  000000000875600000000087800000000008748000000000876900000000087700000000008751000000000887000005000000000000000180000000000001578591000000000000009999123100000010000000000000BRHPDPCTF003149
012024031512HRDF11      010FII HREALTY CI           R$  000000000040400000000004040000000000364000000000038700000000003990000000000376000000000039900009000000000000000053000000000000020525000000000000009999123100000010000000000000BRHRDFCTF000103
012024031512HREC11      010FII HEDGERECCI           R$  000000000086300000000008700000000000862000000000086500000000008690000000000868000000000087200857000000000000020242000000000017522709000000000000009999123100000010000000000000BRHRECCTF005146
012024031512HSAF11      010FII HSI CRI CI           R$  000000000875500000000088270000000008737000000000880300000000088060000000008806000000000881000715000000000000003822000000000033647370000000000000009999123100000010000000000000BRHSAFCTF004144
012024031512HSLG11      010FII HSI LOG CI           R$  000000000985200000000098520000000009702000000000978100000000097070000000009707000000000972901190000000000000005454000000000053347422000000000000009999123100000010000000000000BRHSLGCTF009139
012024031512HSML11      010FII HSI MALLCI           R$  000000000973000000000097980000000009726000000000975800000000097260000000009726000000000976609631000000000000040726000000000397429275000000000000009999123100000010000000000000BRHSMLCTF007157
012024031512HSRE11      010FII HSIRENDACI           R$  000000001066900000000106690000000010668000000001069900000000106680000000010668000000001200000003000000000000008415000000000090040373000000000000009999123100000010000000000000BRHSRECTF001138
012024031512HTMX11      010FII HOTEL MXCI           R$  000000001720200000000174460000000017200000000001731700000000173440000000017344000000001741601428000000000000005279000000000091421582000000000000009999123100000010000000000000BRHTMXCTF000277
012024031512HUCG11      010FII UNIMED CCI           R$  000000000940000000000100000000000009400000000000984100000000096000000000009310000000000999900012000000000000000046000000000000452691000000000000009999123100000010000000000000BRHUCGCTF004120
012024031512HUSC11      010FII H UNIMEDCI           R$  000000001200000000000120000000000011311000000001193100000000113110000000011312000000001199900004000000000000000010000000000000119311000000000000009999123100000010000000000000BRHUSCCTF009149
012024031512PRSN11      010FII PERSONALCI           R$  000000000011500000000001150000000000108000000000011300000000001080000000000108000000000011300003000000000000000063000000000000007154000000000000009999123100000010000000000000BRPRSNCTF005124
012024031512PRSV11      010FII P VARGASCI           R$  000000000849900000000084990000000008499000000000849900000000084990000000006920000000000850000001000000000000000001000000000000008499000000000000009999123100000010000000000000BRPRSVCTF008225
012024031512PVBI11      010FII VBI PRI CI           R$  000000001018100000000102280000000010116000000001017800000000101650000000010165000000001017509093000000000000049008000000000498837006000000000000009999123100000010000000000000BRPVBICTF003148
012024031512QAGR11      010FII QUASAR ACI           R$  000000000485400000000048540000000004795000000000481800000000048200000000004820000000000482100309000000000000002493000000000012012496000000000000009999123100000010000000000000BRQAGRCTF005152
