00COTAHIST.2024BOVESPA 20240119                                                                                                                                                                                                                      
012024011902UNIP3       010UNIPAR      ON           R$  000000000672600000000067260000000006631000000000667600000000067260000000006679000000000673300093000000000000011500000000000076774400000000000000009999123100000010000000000000BRUNIPACNOR7204
012024011902UNIP5       010UNIPAR      PNA          R$  000000000715100000000071570000000007150000000000715200000000071570000000007156000000000769600003000000000000000300000000000002145800000000000000009999123100000010000000000000BRUNIPACNPA0206
012024011902UNIP6       010UNIPAR      PNB          R$  000000000725700000000072980000000007143000000000723200000000072460000000007246000000000728301024000000000000152400000000001102303600000000000000009999123100000010000000000000BRUNIPACNPB8204
012024011902VAMO3       010VAMOS       ON      NM   R$  000000000084200000000008590000000000821000000000084300000000008500000000000848000000000085216927000000000007947000000000006699937700000000000000009999123100000010000000000000BRVAMOACNOR7105
012024011902VBBR3       010VIBRA       ON      NM   R$  000000000223000000000022750000000002205000000000224900000000022680000000002264000000000226816122000000000009391500000000021129046600000000000000009999123100000010000000000000BRVBBRACNOR1106
012024011902RCSL3       010RECRUSUL    ON           R$  000000000033500000000003400000000000315000000000032400000000003210000000000321000000000032202445000000000001978700000000000642960900000000000000009999123100000010000000000000BRRCSLACNOR4133
012024011902RCSL4       010RECRUSUL    PN           R$  000000000007100000000000760000000000070000000000007300000000000730000000000072000000000007300520000000000000954400000000000069844400000000000000009999123100000010000000000000BRRCSLACNPR1133
012024011902RDNI3       010RNI         ON      NM   R$  000000000047000000000004920000000000445000000000046400000000004850000000000472000000000048500081000000000000034500000000000016010200000000000000009999123100000010000000000000BRRDNIACNOR9116
012024011902RDOR3       010REDE D OR   ON      NM   R$  000000000268500000000026970000000002637000000000266100000000026650000000002663000000000269412057000000000003049000000000008115772700000000000000009999123100000010000000000000BRRDORACNOR8111
012024011902RECV3       010PETRORECSA  ON      NM   R$  000000000227400000000023680000000002253000000000233000000000023480000000002346000000000235018320000000000005316800000000012391199400000000000000009999123100000010000000000000BRRECVACNOR3105
012024011902REDE3       010REDE ENERGIAON           R$  000000000066900000000006690000000000649000000000065200000000006670000000000658000000000066700025000000000000012100000000000007898300000000000000009999123100000010000000000000BRREDEACNOR7126
012024011902RENT3       010LOCALIZA    ON      NM   R$  000000000595800000000060570000000005824000000000596600000000060090000000006008000000000601020306000000000005720600000000034130914100000000000000009999123100000010000000000000BRRENTACNOR4194
012024011902SYNE3       010SYN PROP TECON      NM   R$  000000000043000000000004400000000000428000000000043300000000004400000000000440000000000044100795000000000000158100000000000068609100000000000000009999123100000010000000000000BRSYNEACNOR2102
012024011902CALI3       010CONST A LINDON           R$  000000000185100000000019200000000001851000000000189000000000019200000000001702000000000200000003000000000000000300000000000000567000000000000000009999123100000010000000000000BRCALIACNOR1136
012024011902CAMB3       010CAMBUCI     ON           R$  000000000109600000000011090000000001073000000000108800000000011090000000001098000000000111000060000000000000017100000000000018621500000000000000009999123100000010000000000000BRCAMBACNOR4127
012024011902CAML3       010CAMIL       ON      NM   R$  000000000084200000000008610000000000826000000000084200000000008570000000000857000000000086003190000000000000860600000000000724658500000000000000009999123100000010000000000000BRCAMLACNOR3126
012024011902CASH3       010MELIUZ      ON      NM   R$  000000000073200000000007480000000000714000000000072900000000007430000000000742000000000074502411000000000001629400000000001188883600000000000000009999123100000010000000000000BRCASHACNOR8105
012024011902TAEE11      010TAESA       UNT     N2   R$  000000000372700000000037540000000003717000000000373500000000037350000000003734000000000374205516000000000001385400000000005174542800000000000000009999123100000010000000000000BRTAEECDAM10145
012024011902TAEE3       010TAESA       ON      N2   R$  000000000123200000000012380000000001227000000000123200000000012330000000001232000000000123700401000000000000057400000000000070737000000000000000009999123100000010000000000000BRTAEEACNOR9145
012024011902TAEE4       010TAESA       PN      N2   R$  000000000125200000000012590000000001246000000000125200000000012540000000001252000000000125700565000000000000174400000000000218406200000000000000009999123100000010000000000000BRTAEEACNPR6145
012024011902RAIZ4       010RAIZEN      PN      N2   R$  000000000037100000000003760000000000360000000000036900000000003740000000000373000000000037510595000000000009528600000000003516638900000000000000009999123100000010000000000000BRRAIZACNPR6109
012024011902RANI3       010IRANI       ON      NM   R$  000000000099500000000010170000000000995000000000100500000000010100000000001005000000000101002189000000000000558100000000000561392300000000000000009999123100000010000000000000BRRANIACNOR5069
012024011902RAPT3       010RANDON PART ON      N1   R$  000000000112600000000011420000000001103000000000112000000000011420000000001121000000000114900068000000000000012700000000000014236100000000000000009999123100000010000000000000BRRAPTACNOR7162
012024011902RAPT4       010RANDON PART PN      N1   R$  000000000116500000000011900000000001146000000000117000000000011700000000001170000000000117509678000000000002805300000000003284288200000000000000009999123100000010000000000000BRRAPTACNPR4162
012024011902SRNA3       010SERENA      ON      NM   R$  000000000093500000000009640000000000921000000000094500000000009510000000000950000000000095602818000000000000829500000000000784068100000000000000009999123100000010000000000000BRSRNAACNOR4100
012024011902STBP3       010SANTOS BRP  ON      NM   R$  000000000096900000000009760000000000948000000000096400000000009690000000000966000000000097107096000000000003565400000000003440068700000000000000009999123100000010000000000000BRSTBPACNOR3128
012024011902SUZB3       010SUZANO S.A. ON      NM   R$  000000000515500000000051920000000005098000000000513600000000051800000000005176000000000518813019000000000006574000000000033767766100000000000000009999123100000010000000000000BRSUZBACNOR0129
012024011902RAIL3       010RUMO S.A.   ON      NM   R$  000000000218200000000022590000000002151000000000221800000000022400000000002235000000000224024183000000000017895800000000039707001200000000000000009999123100000010000000000000BRRAILACNOR9104
012024011902SMTO3       010SAO MARTINHOON      NM   R$  000000000270800000000028350000000002663000000000276400000000028100000000002803000000000281707115000000000001906600000000005271349500000000000000009999123100000010000000000000BRSMTOACNOR3125
012024011902SNSY3       010SANSUY      ON           R$  000000000086200000000019460000000000862000000000143900000000019460000000001946000000000210000491000000000000084000000000000120890500000000000000009999123100000010000000000000BRSNSYACNOR2113
012024011902SNSY5       010SANSUY      PNA          R$  000000000045700000000005740000000000450000000000052400000000005210000000000521000000000053000804000000000000225900000000000118372000000000000000009999123100000010000000000000BRSNSYACNPA5111
012024011902SOJA3       010BOA SAFRA   ON      NM   R$  000000000160500000000016400000000001597000000000161900000000016400000000001631000000000164000905000000000000142700000000000231096500000000000000009999123100000010000000000000BRSOJAACNOR9105
012024011902SOMA3       010GRUPO SOMA  ON      NM   R$  000000000070000000000007100000000000669000000000069300000000006980000000000698000000000070215658000000000012787400000000008869086200000000000000009999123100000010000000000000BRSOMAACNOR3102
012024011902ZAMP3       010ZAMP S.A.   ON           R$  000000000058500000000005860000000000574000000000058100000000005810000000000580000000000058401990000000000000737800000000000428783000000000000000009999123100000010000000000000BRZAMPACNOR5100
012024011902CBAV3       010CBA         ON      NM   R$  000000000041500000000004200000000000403000000000041100000000004170000000000417000000000041806573000000000004406400000000001814952700000000000000009999123100000010000000000000BRCBAVACNOR5104
012024011902CCRO3       010CCR SA      ON      NM   R$  000000000133200000000013640000000001324000000000134600000000013510000000001350000000000135209245000000000006207400000000008355908100000000000000009999123100000010000000000000BRCCROACNOR2144
012024011902CVCB3       010CVC BRASIL  ON      NM   R$  000000000032900000000003340000000000313000000000032300000000003250000000000325000000000032812962000000000017439100000000005648111000000000000000009999123100000010000000000000BRCVCBACNOR1115
012024011902CXSE3       010CAIXA SEGURION      NM   R$  000000000137000000000013830000000001362000000000137400000000013780000000001377000000000138208400000000000003579600000000004918376900000000000000009999123100000010000000000000BRCXSEACNOR7105
012024011902CYRE3       010CYRELA REALTON      NM   R$  000000000218400000000022480000000002130000000000220300000000022310000000002231000000000223924713000000000009134000000000020131208500000000000000009999123100000010000000000000BRCYREACNOR7139
012024011902WEST3       010WESTWING    ON      NM   R$  000000000012900000000001300000000000126000000000012800000000001280000000000127000000000012800044000000000000035700000000000004586200000000000000009999123100000010000000000000BRWESTACNOR3100
012024011902WHRL3       010WHIRLPOOL   ON           R$  000000000041900000000004230000000000416000000000041900000000004210000000000417000000000041900011000000000000002500000000000001049400000000000000009999123100000010000000000000BRWHRLACNOR5128
012024011902WHRL4       010WHIRLPOOL   PN           R$  000000000043600000000004500000000000436000000000043800000000004360000000000436000000000043800035000000000000007400000000000003246400000000000000009999123100000010000000000000BRWHRLACNPR2128
012024011902WIZC3       010WIZ CO      ON      NM   R$  000000000064200000000006600000000000641000000000065000000000006480000000000648000000000065101510000000000000314800000000000204875500000000000000009999123100000010000000000000BRWIZCACNOR5101
012024011902WLMM4       010WLM IND COM PN           R$  000000000260100000000026970000000002561000000000261500000000025610000000002560000000000266100006000000000000001200000000000003138200000000000000009999123100000010000000000000BRWLMMACNPR3116
012024011902JOPA3       010JOSAPAR     ON           R$  000000000234900000000023490000000002130000000000222600000000021300000000002131000000000239800003000000000000000300000000000000668000000000000000009999123100000010000000000000BRJOPAACNOR5134
012024011902JSLG3       010JSL         ON      NM   R$  000000000119000000000011900000000001142000000000115200000000011620000000001162000000000118001698000000000001597500000000001841487600000000000000009999123100000010000000000000BRJSLGACNOR2121
012024011902KEPL3       010KEPLER WEBERON      NM   R$  000000000098500000000010050000000000972000000000098800000000010000000000001000000000000100505186000000000001088500000000001075895500000000000000009999123100000010000000000000BRKEPLACNOR1061
012024011902KLBN11      010KLABIN S/A  UNT     N2   R$  000000000215000000000021990000000002132000000000216900000000021750000000002175000000000218709350000000000003693800000000008012462900000000000000009999123100000010000000000000BRKLBNCDAM18139
012024011902KLBN3       010KLABIN S/A  ON      N2   R$  000000000043100000000004390000000000425000000000043100000000004340000000000434000000000043600777000000000000380500000000000164081500000000000000009999123100000010000000000000BRKLBNACNOR2167
012024011902KLBN4       010KLABIN S/A  PN      N2   R$  000000000043300000000004400000000000428000000000043300000000004360000000000436000000000043702415000000000001565100000000000679199100000000000000009999123100000010000000000000BRKLBNACNPR9167
012024011902MRVE3       010MRV         ON      NM   R$  000000000078300000000008040000000000755000000000078200000000007970000000000797000000000080018784000000000023326600000000018262605500000000000000009999123100000010000000000000BRMRVEACNOR2126
012024011902BEEF3       010MINERVA     ON      NM   R$  000000000067500000000006830000000000667000000000067500000000006780000000000678000000000068008115000000000007280300000000004917886200000000000000009999123100000010000000000000BRBEEFACNOR6116
012024011902BPAC11      010BTGP BANCO  UNT     N2   R$  000000000368300000000037060000000003624000000000367300000000036820000000003682000000000368820107000000000009374700000000034439774700000000000000009999123100000010000000000000BRBPACUNT006118
012024011902BPAC3       010BTGP BANCO  ON      N2   R$  000000000180000000000018320000000001772000000000181100000000017810000000001780000000000184000093000000000000010300000000000018656500000000000000009999123100000010000000000000BRBPACACNOR7133
012024011902BPAC5       010BTGP BANCO  PNA     N2   R$  000000000093000000000009390000000000920000000000092500000000009240000000000924000000000093400116000000000000025600000000000023703600000000000000009999123100000010000000000000BRBPACACNPA0133
012024011902BPAN4       010BANCO PAN   PN      N1   R$  000000000080100000000008150000000000796000000000080500000000008030000000000803000000000081002883000000000001355700000000001091637300000000000000009999123100000010000000000000BRBPANACNPR1115
012024011902CPFE3       010CPFL ENERGIAON      NM   R$  000000000364800000000036560000000003593000000000362100000000036200000000003620000000000362610562000000000003745800000000013567123700000000000000009999123100000010000000000000BRCPFEACNOR0136
012024011902ELMD3       010ELETROMIDIA ON      NM   R$  000000000174900000000017550000000001708000000000173600000000017490000000001730000000000175000098000000000000021200000000000036806500000000000000009999123100000010000000000000BRELMDACNOR3100
012024011902EMAE4       010EMAE        PN           R$  000000000578900000000058380000000005692000000000572300000000056930000000005675000000000577100022000000000000002500000000000014309200000000000000009999123100000010000000000000BREMAEACNPR1124
012024011902EMBR3       010EMBRAER     ON      NM   R$  000000000211000000000021480000000002082000000000212200000000021330000000002132000000000213909530000000000004405500000000009348848000000000000000009999123100000010000000000000BREMBRACNOR4191
012024011902HBOR3       010HELBOR      ON      NM   R$  000000000027800000000002800000000000266000000000027300000000002750000000000275000000000027701050000000000000852800000000000232912500000000000000009999123100000010000000000000BRHBORACNOR3117
012024011902HBRE3       010HBR REALTY  ON      NM   R$  000000000051100000000005250000000000500000000000051400000000005240000000000520000000000052400504000000000000262000000000000134785300000000000000009999123100000010000000000000BRHBREACNOR4100
012024011902HBSA3       010HIDROVIAS   ON      NM   R$  000000000037000000000003830000000000365000000000037500000000003790000000000379000000000038306903000000000002901200000000001088417500000000000000009999123100000010000000000000BRHBSAACNOR0100
012024011902HETA4       010HERCULES    PN           R$  000000000065000000000006790000000000620000000000064400000000006200000000000620000000000065300006000000000000000900000000000000579700000000000000009999123100000010000000000000BRHETAACNPR9136
012024011902HYPE3       010HYPERA      ON      NM   R$  000000000330400000000033090000000003211000000000326300000000032810000000003273000000000329016111000000000005481100000000017884937900000000000000009999123100000010000000000000BRHYPEACNOR0136
012024011902JHSF3       010JHSF PART   ON      NM   R$  000000000048800000000004980000000000480000000000048900000000004980000000000496000000000049803555000000000001395600000000000683727400000000000000009999123100000010000000000000BRJHSFACNOR2131
012024011902MRFG3       010MARFRIG     ON      NM   R$  000000000090900000000009250000000000892000000000091100000000009250000000000923000000000092611490000000000006598100000000006011449300000000000000009999123100000010000000000000BRMRFGACNOR0116
012024011902RRRP3       0103R PETROLEUMON      NM   R$  000000000292500000000029720000000002856000000000292800000000029550000000002955000000000295621773000000000007839600000000022959764900000000000000009999123100000010000000000000BRRRRPACNOR5102
012024011902TASA3       010TAURUS ARMASON      N2   R$  000000000145900000000015140000000001459000000000147900000000014990000000001490000000000150000072000000000000012700000000000018790300000000000000009999123100000010000000000000BRTASAACNOR7103
012024011902TASA4       010TAURUS ARMASPN      N2   R$  000000000145900000000014990000000001454000000000147700000000014900000000001489000000000149301200000000000000232000000000000342671100000000000000009999123100000010000000000000BRTASAACNPR4103
012024011902TCSA3       010TECNISA     ON      NM   R$  000000000033700000000003420000000000327000000000033300000000003420000000000337000000000034200373000000000000072500000000000024207600000000000000009999123100000010000000000000BRTCSAACNOR3112
012024011902TECN3       010TECHNOS     ON      NM   R$  000000000035200000000003620000000000352000000000035600000000003620000000000357000000000036200164000000000000090200000000000032145500000000000000009999123100000010000000000000BRTECNACNOR6108
012024011902TELB4       010TELEBRAS    PN           R$  000000000116800000000011880000000001168000000000117900000000011880000000001164000000000119800007000000000000000900000000000001061900000000000000009999123100000010000000000000BRTELBACNPR9140
012024011902TEND3       010TENDA       ON      NM   R$  000000000096000000000009870000000000950000000000097100000000009820000000000981000000000098209239000000000003843300000000003734020700000000000000009999123100000010000000000000BRTENDACNOR4111
012024011902TFCO4       010TRACK FIELD PN      N2   R$  000000000139400000000014400000000001366000000000138900000000013900000000001390000000000139300538000000000000171300000000000238010200000000000000009999123100000010000000000000BRTFCOACNPR8111
012024011902TGMA3       010TEGMA       ON      NM   R$  000000000259800000000026560000000002559000000000261500000000026420000000002629000000000264401826000000000000286900000000000750524700000000000000009999123100000010000000000000BRTGMAACNOR7143
012024011902TIMS3       010TIM         ON      NM   R$  000000000174100000000017620000000001729000000000175200000000017620000000001761000000000176208182000000000003562100000000006243283700000000000000009999123100000010000000000000BRTIMSACNOR5114
012024011902TOTS3       010TOTVS       ON      NM   R$  000000000313700000000031830000000003099000000000314500000000031720000000003159000000000317610914000000000003163700000000009951822100000000000000009999123100000010000000000000BRTOTSACNOR8144
012024011902TPIS3       010TRIUNFO PARTON      NM   R$  000000000041300000000004130000000000405000000000040800000000004120000000000405000000000041400060000000000000008500000000000003473000000000000000009999123100000010000000000000BRTPISACNOR8118
012024011902TRAD3       010TC          ON      NM   R$  000000000007700000000000780000000000070000000000007200000000000740000000000073000000000007400558000000000002694300000000000195650800000000000000009999123100000010000000000000BRTRADACNOR3101
012024011902TRIS3       010TRISUL      ON      NM   R$  000000000051000000000005150000000000487000000000049500000000004950000000000490000000000049602145000000000000778900000000000386195900000000000000009999123100000010000000000000BRTRISACNOR4116
012024011902MTRE3       010MITRE REALTYON      NM   R$  000000000051600000000005220000000000502000000000050900000000005150000000000513000000000051603686000000000002101300000000001070937400000000000000009999123100000010000000000000BRMTREACNOR6109
012024011902MTSA4       010METISA      PN           R$  000000000508900000000050950000000005026000000000508400000000050950000000005035000000000509500008000000000000002000000000000010169000000000000000009999123100000010000000000000BRMTSAACNPR9071
012024011902MULT3       010MULTIPLAN   ON      N2   R$  000000000275200000000027740000000002694000000000273300000000027630000000002756000000000276319072000000000003776900000000010325634300000000000000009999123100000010000000000000BRMULTACNOR5137
012024011902MWET4       010WETZEL S/A  PN           R$  000000000075800000000007970000000000749000000000077400000000007490000000000753000000000084800009000000000000002000000000000001548400000000000000009999123100000010000000000000BRMWETACNPR3118
012024011902MYPK3       010IOCHP-MAXIONON      NM   R$  000000000119500000000012220000000001176000000000119500000000012130000000001208000000000121406017000000000001115600000000001334138900000000000000009999123100000010000000000000BRMYPKACNOR7153
012024011902PCAR3       010P.ACUCAR-CBDON      NM   R$  000000000044000000000004620000000000427000000000044300000000004420000000000442000000000044311742000000000009946800000000004409455300000000000000009999123100000010000000000000BRPCARACNOR3167
012024011902PFRM3       010PROFARMA    ON      NM   R$  000000000047100000000004750000000000458000000000046600000000004720000000000468000000000047200518000000000000148300000000000069149300000000000000009999123100000010000000000000BRPFRMACNOR1116
012024011902PGMN3       010PAGUE MENOS ON      NM   R$  000000000034300000000003490000000000339000000000034300000000003450000000000344000000000034601388000000000001190800000000000409366000000000000000009999123100000010000000000000BRPGMNACNOR8102
012024011902PINE4       010PINE        PN      N2   R$  000000000042900000000004440000000000422000000000043100000000004340000000000430000000000043400775000000000000463900000000000200266600000000000000009999123100000010000000000000BRPINEACNPR8148
012024011902RSUL4       010RIOSULENSE  PN           R$  000000000780100000000079890000000007801000000000791700000000079890000000007850000000000809900027000000000000003000000000000023751200000000000000009999123100000010000000000000BRRSULACNPR3113
012024011902TRPL3       010TRAN PAULISTON      N1   R$  000000000371600000000037250000000003685000000000371400000000037250000000003693000000000372900004000000000000000900000000000003342800000000000000009999123100000010000000000000BRTRPLACNOR4185
012024011902TRPL4       010TRAN PAULISTPN      N1   R$  000000000265000000000026600000000002635000000000264500000000026450000000002643000000000265205645000000000001589300000000004203767600000000000000009999123100000010000000000000BRTRPLACNPR1185
012024011902TTEN3       0103TENTOS     ON      NM   R$  000000000115200000000011520000000001110000000000112900000000011390000000001138000000000113907966000000000001761400000000001988645700000000000000009999123100000010000000000000BRTTENACNOR0102
012024011902ONCO3       010ONCOCLINICASON      NM   R$  000000000118000000000011800000000001146000000000116400000000011650000000001161000000000116908110000000000002156000000000002511521800000000000000009999123100000010000000000000BRONCOACNOR6100
012024011902OPCT3       010OCEANPACT   ON      NM   R$  000000000056500000000005660000000000543000000000055500000000005550000000000555000000000055601840000000000000820400000000000455830500000000000000009999123100000010000000000000BROPCTACNOR0100
012024011902ORVR3       010ORIZON      ON      NM   R$  000000000351200000000035500000000003467000000000351200000000035430000000003543000000000354500928000000000000155800000000000547184000000000000000009999123100000010000000000000BRORVRACNOR0101
012024011902OSXB3       010OSX BRASIL  ON      NM   R$  000000000045300000000005450000000000453000000000050800000000005290000000000520000000000052900169000000000000045700000000000023229200000000000000009999123100000010000000000000BROSXBACNOR8109
012024011902TUPY3       010TUPY        ON      NM   R$  000000000262000000000026520000000002600000000000261900000000026310000000002630000000000264202560000000000000404200000000001058964400000000000000009999123100000010000000000000BRTUPYACNOR1182
012024011902UCAS3       010UNICASA     ON      NM   R$  000000000026900000000002790000000000266000000000027000000000002720000000000273000000000027700092000000000000071100000000000019233000000000000000009999123100000010000000000000BRUCASACNOR1113
012024011902UGPA3       010ULTRAPAR    ON      NM   R$  000000000275000000000027820000000002719000000000275400000000027660000000002766000000000276714329000000000005904800000000016266427300000000000000009999123100000010000000000000BRUGPAACNOR8154
012024011902SANB11      010SANTANDER BRUNT          R$  000000000301200000000030340000000002984000000000301000000000030210000000003021000000000302707400000000000001725300000000005194775600000000000000009999123100000010000000000000BRSANBCDAM13162
012024011902SANB3       010SANTANDER BRON           R$  000000000140500000000014220000000001395000000000140500000000014110000000001411000000000141300763000000000000111900000000000157245400000000000000009999123100000010000000000000BRSANBACNOR8169
012024011902SANB4       010SANTANDER BRPN           R$  000000000161000000000016100000000001591000000000160400000000016090000000001607000000000160900713000000000000191400000000000307053900000000000000009999123100000010000000000000BRSANBACNPR5169
012024011902SAPR11      010SANEPAR     UNT     N2   R$  000000000283400000000028810000000002816000000000284100000000028380000000002838000000000284104366000000000002243300000000006375311200000000000000009999123100000010000000000000BRSAPRCDAM13117
012024011902SAPR3       010SANEPAR     ON      N2   R$  000000000053000000000005450000000000527000000000053700000000005400000000000540000000000054300840000000000000438700000000000235731900000000000000009999123100000010000000000000BRSAPRACNOR9158
012024011902SAPR4       010SANEPAR     PN      N2   R$  000000000057200000000005820000000000570000000000057400000000005760000000000576000000000058002678000000000001808400000000001039410500000000000000009999123100000010000000000000BRSAPRACNPR6158
012024011902SBFG3       010GRUPO SBF   ON      NM   R$  000000000113900000000011800000000001107000000000115900000000011800000000001173000000000118007188000000000002429400000000002817350600000000000000009999123100000010000000000000BRSBFGACNOR1102
012024011902SBSP3       010SABESP      ON      NM   R$  000000000759000000000076540000000007501000000000758000000000076000000000007600000000000760211539000000000004699000000000035619766800000000000000009999123100000010000000000000BRSBSPACNOR5160
012024011902MAPT4       010CEMEPE      PN           R$  000000000190100000000020000000000001901000000000195000000000020000000000001750000000000200000002000000000000000200000000000000390100000000000000009999123100000010000000000000BRMAPTACNPR5106
012024011902MATD3       010MATER DEI   ON      NM   R$  000000000073700000000007370000000000698000000000071700000000007210000000000720000000000072102144000000000000427300000000000306514400000000000000009999123100000010000000000000BRMATDACNOR4103
012024011902MBLY3       010MOBLY       ON      NM   R$  000000000018500000000001880000000000181000000000018500000000001870000000000184000000000018705956000000000002549300000000000471647600000000000000009999123100000010000000000000BRMBLYACNOR5100
012024011902MDIA3       010M.DIASBRANCOON      NM   R$  000000000370500000000038680000000003687000000000380800000000038340000000003833000000000385903994000000000000979100000000003728965100000000000000009999123100000010000000000000BRMDIAACNOR7133
012024011902BMEB3       010MERCANTIL   ON      N1   R$  000000000211200000000021180000000002101000000000211000000000021010000000002101000000000217900003000000000000000300000000000000633100000000000000009999123100000010000000000000BRBMEBACNOR8205
012024011902BMEB4       010MERCANTIL   PN      N1   R$  000000000187600000000019120000000001872000000000188500000000019010000000001895000000000190800041000000000000009400000000000017728200000000000000009999123100000010000000000000BRBMEBACNPR5210
012024011902BMGB4       010BANCO BMG   PN      N1   R$  000000000033400000000003350000000000329000000000033200000000003350000000000333000000000033500814000000000000480300000000000159506900000000000000009999123100000010000000000000BRBMGBACNPR0108
012024011902BMKS3       010BIC MONARK  ON           R$  000000003650000000000365000000000036499000000003649900000000364990000000034930000000003645000005000000000000000019000000000000693499000000000000009999123100000010000000000000BRBMKSACNOR9165
012024011902BMOB3       010BEMOBI TECH ON      NM   R$  000000000125000000000012510000000001214000000000122600000000012160000000001216000000000122001672000000000000307700000000000377505300000000000000009999123100000010000000000000BRBMOBACNOR7103
012024011902BRSR3       010BANRISUL    ON      N1   R$  000000000139600000000014300000000001381000000000140700000000014090000000001409000000000143000021000000000000002800000000000003940600000000000000009999123100000010000000000000BRBRSRACNOR3185
012024011902BRSR6       010BANRISUL    PNB     N1   R$  000000000138900000000013960000000001378000000000139000000000013960000000001395000000000139705845000000000001570800000000002184870700000000000000009999123100000010000000000000BRBRSRACNPB4188
012024011902BSLI4       010BRB BANCO   PN           R$  000000000117900000000011790000000001178000000000117800000000011780000000001177000000000119600002000000000000000200000000000000235700000000000000009999123100000010000000000000BRBSLIACNPR2192
012024011902CSRN6       010COSERN      PNB          R$  000000000260000000000026000000000002600000000000260000000000026000000000002538000000000300000001000000000000000100000000000000260000000000000000009999123100000010000000000000BRCSRNACNPB1191
012024011902CSUD3       010CSU DIGITAL ON      NM   R$  000000000190400000000019410000000001870000000000190000000000019410000000001923000000000194200552000000000000071200000000000135310900000000000000009999123100000010000000000000BRCSUDACNOR5107
012024011902CTKA4       010KARSTEN     PN           R$  000000000185000000000018500000000001850000000000185000000000018500000000001725000000000193000001000000000000000100000000000000185000000000000000009999123100000010000000000000BRCTKAACNPR7043
012024011902CTNM3       010COTEMINAS   ON           R$  000000000082000000000008690000000000774000000000082000000000007740000000000774000000000078900005000000000000000500000000000000410100000000000000009999123100000010000000000000BRCTNMACNOR9130
012024011902CTNM4       010COTEMINAS   PN           R$  000000000014300000000001470000000000141000000000014300000000001440000000000144000000000014700073000000000000035400000000000005093800000000000000009999123100000010000000000000BRCTNMACNPR6129
012024011902CTSA3       010SANTANENSE  ON           R$  000000000043300000000004330000000000421000000000042800000000004270000000000423000000000042700013000000000000001800000000000000772100000000000000009999123100000010000000000000BRCTSAACNOR3062
012024011902CTSA4       010SANTANENSE  PN           R$  000000000020000000000002090000000000199000000000020300000000002050000000000205000000000020800233000000000000041600000000000008485600000000000000009999123100000010000000000000BRCTSAACNPR0062
012024011902CURY3       010CURY S/A    ON      NM   R$  000000000181700000000018640000000001796000000000183600000000018390000000001824000000000184006104000000000002161700000000003969886500000000000000009999123100000010000000000000BRCURYACNOR3107
012024011902LVTC3       010WDC NETWORKSON      NM   R$  000000000040300000000004100000000000393000000000039900000000003980000000000397000000000040400081000000000000041400000000000016524100000000000000009999123100000010000000000000BRLVTCACNOR4102
012024011902LWSA3       010LWSA        ON      NM   R$  000000000059200000000005920000000000558000000000057000000000005760000000000575000000000057815661000000000023593300000000013454555500000000000000009999123100000010000000000000BRLWSAACNOR8103
012024011902PTBL3       010PORTOBELLO  ON      NM   R$  000000000066200000000006630000000000632000000000064600000000006470000000000647000000000065002001000000000000638400000000000413007200000000000000009999123100000010000000000000BRPTBLACNOR8132
012024011902PTNT3       010PETTENATI   ON           R$  000000000119300000000011930000000001177000000000118600000000011770000000001050000000000117700006000000000000000800000000000000948800000000000000009999123100000010000000000000BRPTNTACNOR6042
012024011902PTNT4       010PETTENATI   PN           R$  000000000084100000000008410000000000820000000000082900000000008200000000000820000000000085900014000000000000007800000000000006473300000000000000009999123100000010000000000000BRPTNTACNPR3047
012024011902QUAL3       010QUALICORP   ON      NM   R$  000000000028800000000002910000000000264000000000027500000000002680000000000267000000000026810522000000000013837200000000003817429300000000000000009999123100000010000000000000BRQUALACNOR6119
012024011902RADL3       010RAIADROGASILON      NM   R$  000000000274100000000027460000000002670000000000269300000000026900000000002690000000000269619494000000000007833000000000021098893600000000000000009999123100000010000000000000BRRADLACNOR0154
012024011902SLCE3       010SLC AGRICOLAON      NM   R$  000000000192300000000019480000000001877000000000190200000000018920000000001891000000000189814507000000000004470400000000008502805800000000000000009999123100000010000000000000BRSLCEACNOR2124
012024011902SMFT3       010SMART FIT   ON      NM   R$  000000000253500000000025910000000002507000000000254300000000025730000000002568000000000258206960000000000001687800000000004292411700000000000000009999123100000010000000000000BRSMFTACNOR1111
012024011902FESA4       010FERBASA     PN      N1   R$  000000000427300000000043000000000004218000000000425700000000042580000000004258000000000429100709000000000000112900000000000480616700000000000000009999123100000010000000000000BRFESAACNPR5082
012024011902FHER3       010FER HERINGERON      NM   R$  000000000072400000000007430000000000724000000000073400000000007360000000000728000000000074400011000000000000002100000000000001543000000000000000009999123100000010000000000000BRFHERACNOR5103
012024011902FIQE3       010UNIFIQUE    ON      NM   R$  000000000038000000000003800000000000371000000000037400000000003770000000000375000000000037700469000000000000173200000000000064841700000000000000009999123100000010000000000000BRFIQEACNOR5105
012024011902FLRY3       010FLEURY      ON      NM   R$  000000000165400000000016540000000001600000000000162000000000016320000000001620000000000163207031000000000002663200000000004314529800000000000000009999123100000010000000000000BRFLRYACNOR5137
012024011902FRAS3       010FRAS-LE     ON      N1   R$  000000000155000000000015560000000001522000000000154000000000015500000000001550000000000155302379000000000000421400000000000649191500000000000000009999123100000010000000000000BRFRASACNOR0158
012024011902FRIO3       010METALFRIO   ON      NM   R$  000000002600000000000270000000000025000000000002611800000000270000000000025800000000002900000008000000000000001100000000000028730300000000000000009999123100000010000000000000BRFRIOACNOR2111
012024011902WEGE3       010WEG         ON      NM   R$  000000000333300000000033940000000003263000000000332800000000033480000000003348000000000335015059000000000006897400000000022957246100000000000000009999123100000010000000000000BRWEGEACNOR0220
012024011902MILS3       010MILLS       ON      NM   R$  000000000130500000000013140000000001276000000000129600000000013080000000001305000000000130802480000000000000605300000000000784728500000000000000009999123100000010000000000000BRMILSACNOR2124
012024011902MLAS3       010MULTILASER  ON      NM   R$  000000000019000000000001980000000000183000000000019000000000001930000000000193000000000019606160000000000005499400000000001049736000000000000000009999123100000010000000000000BRMLASACNOR9101
012024011902MNDL3       010MUNDIAL     ON           R$  000000000461800000000046180000000004618000000000461800000000046180000000004581000000000474800002000000000000000200000000000000923600000000000000009999123100000010000000000000BRMNDLACNOR4107
012024011902MNPR3       010MINUPAR     ON           R$  000000000230000000000023000000000002265000000000228600000000022650000000001900000000000223800011000000000000002500000000000005716800000000000000009999123100000010000000000000BRMNPRACNOR5122
012024011902MOVI3       010MOVIDA      ON      NM   R$  000000000096500000000010140000000000937000000000097700000000010000000000000999000000000100212835000000000005346200000000005225590200000000000000009999123100000010000000000000BRMOVIACNOR0122
012024011902ODPV3       010ODONTOPREV  ON      NM   R$  000000000118200000000012100000000001165000000000119300000000012060000000001195000000000120603834000000000001280200000000001528552300000000000000009999123100000010000000000000BRODPVACNOR4198
012024011902OFSA3       010OUROFINO S/AON      NM   R$  000000000235100000000023510000000002350000000000235000000000023500000000002348000000000240200005000000000000001600000000000003760100000000000000009999123100000010000000000000BROFSAACNOR7117
012024011902PNVL3       010DIMED       ON      NM   R$  000000000122700000000012270000000001189000000000120600000000012200000000001211000000000122002422000000000000379700000000000458194600000000000000009999123100000010000000000000BRPNVLACNOR9205
012024011902POMO3       010MARCOPOLO   ON      N2   R$  000000000055900000000005630000000000547000000000055200000000005600000000000558000000000056000284000000000000166500000000000092048700000000000000009999123100000010000000000000BRPOMOACNOR0095
012024011902POMO4       010MARCOPOLO   PN      N2   R$  000000000072400000000007260000000000699000000000071300000000007200000000000720000000000072112180000000000006097400000000004348044300000000000000009999123100000010000000000000BRPOMOACNPR7095
012024011902PORT3       010WILSON SONS ON      NM   R$  000000000169600000000017160000000001674000000000169600000000017070000000001707000000000171700454000000000000169600000000000287774200000000000000009999123100000010000000000000BRPORTACNOR8105
012024011902POSI3       010POSITIVO TECON      NM   R$  000000000065800000000006680000000000646000000000065300000000006650000000000664000000000066502613000000000001843500000000001205137600000000000000009999123100000010000000000000BRPOSIACNOR9115
012024011902PRIO3       010PETRORIO    ON      NM   R$  000000000446400000000044870000000004428000000000445500000000044610000000004460000000000446112978000000000004264800000000019003649700000000000000009999123100000010000000000000BRPRIOACNOR1106
012024011902USIM3       010USIMINAS    ON      N1   R$  000000000081400000000008240000000000802000000000081300000000008180000000000804000000000081803272000000000001444400000000001174810100000000000000009999123100000010000000000000BRUSIMACNOR3166
012024011902USIM5       010USIMINAS    PNA     N1   R$  000000000085900000000008770000000000848000000000085900000000008500000000000850000000000085212437000000000013249000000000011392068700000000000000009999123100000010000000000000BRUSIMACNPA6168
012024011902VITT3       010VITTIA      ON      NM   R$  000000000090400000000009160000000000891000000000090200000000009100000000000903000000000091000736000000000000191600000000000172949500000000000000009999123100000010000000000000BRVITTACNOR4106
012024011902VIVA3       010VIVARA S.A. ON      NM   R$  000000000348700000000035690000000003460000000000351500000000035340000000003533000000000355308349000000000002095600000000007366505000000000000000009999123100000010000000000000BRVIVAACNOR0106
012024011902VIVR3       010VIVER       ON  ES  NM   R$  000000000048600000000005020000000000471000000000048400000000004800000000000480000000000048600350000000000000206600000000000100125300000000000000009999123100000010000000000000BRVIVRACNOR4121
012024011902VIVT3       010TELEF BRASILON           R$  000000000506100000000050730000000005036000000000506000000000050650000000005064000000000507306045000000000001465500000000007416106400000000000000009999123100000010000000000000BRVIVTACNOR0178
012024011902VLID3       010VALID       ON      NM   R$  000000000204100000000020940000000002013000000000206500000000020910000000002076000000000209202208000000000000398600000000000823378800000000000000009999123100000010000000000000BRVLIDACNOR5141
012024011902VSTE3       010VESTE       ON  ES  NM   R$  000000000185100000000019690000000001825000000000189500000000018800000000001846000000000188000079000000000000018400000000000034879900000000000000009999123100000010000000000000BRVSTEACNOR5102
012024011902VULC3       010VULCABRAS   ON      NM   R$  000000000193200000000019470000000001900000000000192400000000019390000000001930000000000194001603000000000000240800000000000463384000000000000000009999123100000010000000000000BRVULCACNOR2156
012024011902VVEO3       010VIVEO       ON      NM   R$  000000000122000000000012470000000001200000000000122200000000012360000000001225000000000123702847000000000000531800000000000649900200000000000000009999123100000010000000000000BRVVEOACNOR0103
012024011902YDUQ3       010YDUQS PART  ON      NM   R$  000000000204500000000021260000000002001000000000205900000000021010000000002101000000000210913187000000000004630200000000009537482300000000000000009999123100000010000000000000BRYDUQACNOR3104
012024011902GEPA4       010GER PARANAP PN           R$  000000000255000000000025500000000002550000000000255000000000025500000000002551000000000260000001000000000000000100000000000000255000000000000000009999123100000010000000000000BRGEPAACNPR9159
012024011902GFSA3       010GAFISA      ON      NM   R$  000000000138100000000014500000000001320000000000138600000000013380000000001338000000000134907929000000000004562100000000006324503900000000000000009999123100000010000000000000BRGFSAACNOR3123
012024011902GGBR3       010GERDAU      ON      N1   R$  000000000194400000000019690000000001932000000000195300000000019690000000001960000000000196900263000000000000045000000000000087904400000000000000009999123100000010000000000000BRGGBRACNOR1189
012024011902GGBR4       010GERDAU      PN      N1   R$  000000000209600000000021250000000002081000000000210600000000021070000000002106000000000210921007000000000010723800000000022589594100000000000000009999123100000010000000000000BRGGBRACNPR8189
012024011902SHUL4       010SCHULZ      PN           R$  000000000068400000000006870000000000676000000000068200000000006810000000000681000000000068701490000000000000264400000000000180381900000000000000009999123100000010000000000000BRSHULACNPR4154
012024011902SIMH3       010SIMPAR      ON      NM   R$  000000000081600000000008280000000000796000000000081100000000008250000000000820000000000082506551000000000002925600000000002374611900000000000000009999123100000010000000000000BRSIMHACNOR0107
012024011902VALE3       010VALE        ON      NM   R$  000000000695000000000069510000000006805000000000682500000000068100000000006808000000000681064822000000000060243300000000411199688500000000000000009999123100000010000000000000BRVALEACNOR0209
012024011902PDGR3       010PDG REALT   ON      NM   R$  000000000004100000000000420000000000040000000000004100000000000410000000000041000000000004200418000000000001245300000000000051168000000000000000009999123100000010000000000000BRPDGRACNOR8118
012024011902PDTC3       010PADTEC      ON      NM   R$  000000000029700000000003030000000000296000000000029800000000002970000000000297000000000030000070000000000000032600000000000009733000000000000000009999123100000010000000000000BRPDTCACNOR3100
012024011902PETR3       010PETROBRAS   ON      N2   R$  000000000391000000000039460000000003859000000000388600000000038950000000003884000000000389511734000000000005853800000000022753176300000000000000009999123100000010000000000000BRPETRACNOR9202
012024011902PETR4       010PETROBRAS   PN      N2   R$  000000000378100000000037900000000003723000000000375100000000037530000000003747000000000375339117000000000030971400000000116192849200000000000000009999123100000010000000000000BRPETRACNPR6209
012024011902PLPL3       010PLANOEPLANO ON  ED  NM   R$  000000000111500000000011960000000001087000000000115300000000011940000000001185000000000119403234000000000001091700000000001259571900000000000000009999123100000010000000000000BRPLPLACNOR5104
012024011902KRSA3       010KORA SAUDE  ON      NM   R$  000000000011200000000001130000000000109000000000011000000000001100000000000110000000000011200390000000000000140200000000000015486700000000000000009999123100000010000000000000BRKRSAACNOR0100
012024011902LAND3       010TERRASANTAPAON      NM   R$  000000000158500000000016240000000001577000000000160400000000016030000000001603000000000162300091000000000000015500000000000024862100000000000000009999123100000010000000000000BRLANDACNOR9102
012024011902LAVV3       010LAVVI       ON      NM   R$  000000000075800000000007730000000000747000000000076200000000007650000000000764000000000076502147000000000000519400000000000396133700000000000000009999123100000010000000000000BRLAVVACNOR4110
012024011902LEVE3       010METAL LEVE  ON      NM   R$  000000000352200000000035330000000003442000000000348200000000034790000000003477000000000347902026000000000000390100000000001358414300000000000000009999123100000010000000000000BRLEVEACNOR2196
012024011902ABEV3       010AMBEV S/A   ON           R$  000000000134100000000013420000000001326000000000133300000000013350000000001334000000000133619566000000000028008400000000037351991100000000000000009999123100000010000000000000BRABEVACNOR1127
012024011902BRBI11      010BR PARTNERS UNT     N2   R$  000000000154000000000015650000000001510000000000152600000000015200000000001520000000000152100692000000000000226200000000000345376200000000000000009999123100000010000000000000BRBRBICDAM10107
012024011902BRFS3       010BRF SA      ON      NM   R$  000000000124900000000013220000000001244000000000128200000000013000000000001300000000000130121289000000000010529700000000013499769400000000000000009999123100000010000000000000BRBRFSACNOR8121
012024011902BRIT3       010BRISANET    ON      NM   R$  000000000032800000000003280000000000316000000000032000000000003220000000000322000000000032500363000000000000138100000000000044228700000000000000009999123100000010000000000000BRBRITACNOR0102
012024011902BRIV4       010ALFA INVEST PN           R$  000000000106500000000010650000000001064000000000106400000000010640000000001032000000000106400004000000000000000500000000000000532300000000000000009999123100000010000000000000BRBRIVACNPR3218
012024011902BRKM3       010BRASKEM     ON      N1   R$  000000000184600000000018470000000001830000000000183900000000018370000000001835000000000184700031000000000000004200000000000007724400000000000000009999123100000010000000000000BRBRKMACNOR1119
012024011902BRKM5       010BRASKEM     PNA     N1   R$  000000000177800000000017960000000001765000000000177500000000017650000000001765000000000176708596000000000002406400000000004273209600000000000000009999123100000010000000000000BRBRKMACNPA4121
012024011902CSED3       010CRUZEIRO EDUON      NM   R$  000000000045900000000004600000000000445000000000045300000000004530000000000452000000000045302188000000000000683100000000000309773900000000000000009999123100000010000000000000BRCSEDACNOR9104
012024011902CSMG3       010COPASA      ON      NM   R$  000000000224400000000022570000000002213000000000222400000000022210000000002219000000000222105892000000000001813800000000004034417600000000000000009999123100000010000000000000BRCSMGACNOR5171
012024011902CSNA3       010SID NACIONALON           R$  000000000172300000000017380000000001697000000000172200000000017330000000001729000000000173312903000000000007788200000000013411637300000000000000009999123100000010000000000000BRCSNAACNOR6260
012024011902AALR3       010ALLIAR      ON      NM   R$  000000000085100000000008650000000000842000000000085100000000008420000000000842000000000086200396000000000000055600000000000047328800000000000000009999123100000010000000000000BRAALRACNOR6102
012024011902ABCB4       010ABC BRASIL  PN      N2   R$  000000000235700000000023640000000002326000000000234600000000023640000000002350000000000236402973000000000000530800000000001245440100000000000000009999123100000010000000000000BRABCBACNPR4145
012024011902ITSA3       010ITAUSA      ON      N1   R$  000000000100100000000010030000000000995000000000099800000000009970000000000997000000000100300355000000000000133900000000000133695400000000000000009999123100000010000000000000BRITSAACNOR0436
012024011902ITSA4       010ITAUSA      PN      N1   R$  000000000099900000000010040000000000994000000000099900000000010040000000001001000000000100518363000000000013728500000000013724259300000000000000009999123100000010000000000000BRITSAACNPR7436
012024011902MDNE3       010MOURA DUBEUXON      NM   R$  000000000115900000000011850000000001152000000000116800000000011850000000001185000000000118600963000000000000223900000000000261627400000000000000009999123100000010000000000000BRMDNEACNOR9100
012024011902MEAL3       010IMC S/A     ON      NM   R$  000000000017900000000001830000000000176000000000017900000000001830000000000181000000000018300689000000000000692500000000000124347500000000000000009999123100000010000000000000BRMEALACNOR9105
012024011902MELK3       010MELNICK     ON      NM   R$  000000000043300000000004410000000000431000000000043500000000004330000000000433000000000044000434000000000000097100000000000042321000000000000000009999123100000010000000000000BRMELKACNOR8110
012024011902MGEL4       010MANGELS INDLPN           R$  000000000147200000000014720000000001472000000000147200000000014720000000001450000000000150000001000000000000000100000000000000147200000000000000009999123100000010000000000000BRMGELACNPR3147
012024011902MGLU3       010MAGAZ LUIZA ON      NM   R$  000000000020200000000002060000000000194000000000020000000000002030000000000203000000000020470751000000000186650800000000037408835400000000000000009999123100000010000000000000BRMGLUACNOR2122
012024011902AERI3       010AERIS       ON      NM   R$  000000000008200000000000830000000000081000000000008200000000000830000000000082000000000008303338000000000002277000000000000187357200000000000000009999123100000010000000000000BRAERIACNOR4101
012024011902AESB3       010AES BRASIL  ON      NM   R$  000000000113400000000011390000000001122000000000112600000000011260000000001125000000000112907798000000000002576300000000002902669600000000000000009999123100000010000000000000BRAESBACNOR7105
012024011902AFLT3       010AFLUENTE T  ON           R$  000000000080800000000008080000000000808000000000080800000000008080000000000794000000000080700001000000000000000200000000000000161600000000000000009999123100000010000000000000BRAFLTACNOR1120
012024011902AGRO3       010BRASILAGRO  ON      NM   R$  000000000247700000000025220000000002474000000000249700000000024990000000002499000000000250801378000000000000194300000000000485290000000000000000009999123100000010000000000000BRAGROACNOR7114
012024011902AGXY3       010AGROGALAXY  ON      NM   R$  000000000029100000000002910000000000278000000000028600000000002830000000000283000000000028400370000000000000156800000000000044882400000000000000009999123100000010000000000000BRAGXYACNOR4102
012024011902ALLD3       010ALLIED      ON      NM   R$  000000000071500000000007250000000000701000000000071100000000007110000000000711000000000072000076000000000000022700000000000016153400000000000000009999123100000010000000000000BRALLDACNOR3105
012024011902ALOS3       010ALLOS       ON      NM   R$  000000000245600000000024590000000002392000000000243500000000024490000000002446000000000245512939000000000004354000000000010602107300000000000000009999123100000010000000000000BRALOSACNOR5100
012024011902BIOM3       010BIOMM       ON      MA   R$  000000000056500000000005730000000000548000000000056300000000005480000000000548000000000056400016000000000000006100000000000003436200000000000000009999123100000010000000000000BRBIOMACNOR2112
012024011902BLAU3       010BLAU        ON      NM   R$  000000000137600000000013800000000001320000000000133200000000013200000000001320000000000132903516000000000000813300000000001083570500000000000000009999123100000010000000000000BRBLAUACNOR8111
012024011902INTB3       010INTELBRAS   ON      NM   R$  000000000213100000000022040000000002111000000000216400000000021850000000002161000000000218506589000000000001261300000000002730165300000000000000009999123100000010000000000000BRINTBACNOR9109
012024011902IRBR3       010IRBBRASIL REON      NM   R$  000000000389200000000038990000000003792000000000385000000000038550000000003854000000000386904715000000000001063000000000004093215100000000000000009999123100000010000000000000BRIRBRACNOR4110
012024011902LUPA3       010LUPATECH    ON      NM   R$  000000000022000000000002200000000000215000000000021600000000002160000000000216000000000021900339000000000000284400000000000061651100000000000000009999123100000010000000000000BRLUPAACNOR8112
012024011902EZTC3       010EZTEC       ON      NM   R$  000000000159600000000016350000000001534000000000158600000000016300000000001626000000000163513521000000000003248500000000005152650000000000000000009999123100000010000000000000BREZTCACNOR0123
012024011902IFCM3       010INFRACOMM   ON      NM   R$  000000000015900000000001640000000000156000000000015900000000001620000000000161000000000016203351000000000005540400000000000885799500000000000000009999123100000010000000000000BRIFCMACNOR8101
012024011902IGTI11      010IGUATEMI S.AUNT     N1   R$  000000000234300000000024160000000002313000000000235600000000023750000000002374000000000238016861000000000003083800000000007267111900000000000000009999123100000010000000000000BRIGTICDAM16104
012024011902IGTI3       010IGUATEMI S.AON      N1   R$  000000000029300000000002950000000000291000000000029300000000002940000000000293000000000029400575000000000000157400000000000046174500000000000000009999123100000010000000000000BRIGTIACNOR8104
012024011902IGTI4       010IGUATEMI S.APN      N1   R$  000000000102400000000010360000000001020000000000102900000000010360000000001000000000000105000003000000000000000400000000000000411600000000000000009999123100000010000000000000BRIGTIACNPR5104
012024011902INEP3       010INEPAR      ON           R$  000000000040400000000004120000000000399000000000040300000000004120000000000404000000000041100269000000000000136100000000000054981100000000000000009999123100000010000000000000BRINEPACNOR1143
012024011902INEP4       010INEPAR      PN           R$  000000000031700000000003190000000000309000000000031400000000003160000000000310000000000031600148000000000000023300000000000007334700000000000000009999123100000010000000000000BRINEPACNPR8143
012024011902ESPA3       010ESPACOLASER ON      NM   R$  000000000010800000000001100000000000104000000000010700000000001080000000000108000000000010901020000000000001683100000000000180543400000000000000009999123100000010000000000000BRESPAACNOR7103
012024011902ESTR3       010ESTRELA     ON           R$  000000000080000000000008000000000000800000000000080000000000008000000000000800000000000200000001000000000000000100000000000000080000000000000000009999123100000010000000000000BRESTRACNOR3144
012024011902EUCA3       010EUCATEX     ON      N1   R$  000000000161000000000016200000000001600000000000160200000000016000000000001592000000000160000017000000000000005300000000000008494300000000000000009999123100000010000000000000BREUCAACNOR1157
012024011902EUCA4       010EUCATEX     PN      N1   R$  000000000170100000000017010000000001668000000000167900000000016710000000001670000000000168300232000000000000046200000000000077587800000000000000009999123100000010000000000000BREUCAACNPR8044
012024011902EVEN3       010EVEN        ON      NM   R$  000000000073700000000007600000000000737000000000074800000000007550000000000751000000000075502428000000000000719400000000000538767000000000000000009999123100000010000000000000BREVENACNOR8118
012024011902LJQQ3       010QUERO-QUERO ON      NM   R$  000000000052500000000005540000000000509000000000053300000000005440000000000544000000000054707744000000000003307800000000001764969100000000000000009999123100000010000000000000BRLJQQACNOR5104
012024011902LOGG3       010LOG COM PROPON      NM   R$  000000000206100000000021110000000002030000000000206600000000020960000000002086000000000209801003000000000000149500000000000308982500000000000000009999123100000010000000000000BRLOGGACNOR7106
012024011902LOGN3       010LOG-IN      ON      NM   R$  000000000386400000000039130000000003767000000000384600000000038910000000003856000000000389200184000000000000023800000000000091551500000000000000009999123100000010000000000000BRLOGNACNOR3105
012024011902LPSB3       010LOPES BRASILON      NM   R$  000000000023600000000002400000000000228000000000023400000000002320000000000232000000000023600241000000000000343400000000000080674800000000000000009999123100000010000000000000BRLPSBACNOR0113
012024011902LREN3       010LOJAS RENNERON      NM   R$  000000000165800000000016800000000001608000000000163700000000016720000000001669000000000167430567000000000027179900000000044506079600000000000000009999123100000010000000000000BRLRENACNOR1219
012024011902BAHI3       010BAHEMA      ON      MA   R$  000000000079500000000007950000000000792000000000079300000000007950000000000783000000000079900012000000000000002100000000000001666700000000000000009999123100000010000000000000BRBAHIACNOR1074
012024011902BALM3       010BAUMER      ON           R$  000000000109900000000011000000000001099000000000109900000000011000000000001025000000000110000002000000000000000200000000000000219900000000000000009999123100000010000000000000BRBALMACNOR5055
012024011902BALM4       010BAUMER      PN           R$  000000000097800000000010010000000000978000000000098900000000010010000000001001000000000104400005000000000000000500000000000000494600000000000000009999123100000010000000000000BRBALMACNPR2056
012024011902BAZA3       010AMAZONIA    ON           R$  000000000939400000000093940000000009103000000000920900000000091670000000009063000000000916800019000000000000002900000000000026707800000000000000009999123100000010000000000000BRBAZAACNOR0178
012024011902BBAS3       010BRASIL      ON      NM   R$  000000000555300000000056350000000005528000000000557800000000055920000000005591000000000559924795000000000012652500000000070576254500000000000000009999123100000010000000000000BRBBASACNOR3319
012024011902BEES3       010BANESTES    ON           R$  000000000092100000000009490000000000898000000000091800000000009370000000000936000000000094700118000000000000022400000000000020585300000000000000009999123100000010000000000000BRBEESACNOR9386
012024011902BEES4       010BANESTES    PN           R$  000000000099900000000010000000000000994000000000099700000000009950000000000981000000000099900040000000000000005500000000000005485700000000000000009999123100000010000000000000BRBEESACNPR6311
012024011902BGIP4       010BANESE      PN           R$  000000000265100000000026510000000002643000000000264600000000026430000000002642000000000265000004000000000000000400000000000001058400000000000000009999123100000010000000000000BRBGIPACNPR8206
012024011902BHIA3       010CASAS BAHIA ON      NM   R$  000000000094500000000009520000000000908000000000092900000000009350000000000934000000000093707746000000000004296700000000003993479800000000000000009999123100000010000000000000BRBHIAACNOR1101
012024011902BRAP3       010BRADESPAR   ON      N1   R$  000000000212700000000021280000000002101000000000210700000000021060000000002102000000000210600401000000000000102600000000000216242300000000000000009999123100000010000000000000BRBRAPACNOR5147
012024011902BRAP4       010BRADESPAR   PN      N1   R$  000000000232300000000023230000000002272000000000228100000000022780000000002276000000000227906973000000000002702000000000006165519900000000000000009999123100000010000000000000BRBRAPACNPR2147
012024011902CPLE3       010COPEL       ON      N2   R$  000000000089900000000008990000000000890000000000089500000000008980000000000898000000000089906086000000000007440300000000006661052700000000000000009999123100000010000000000000BRCPLEACNOR8148
012024011902CPLE5       010COPEL       PNA     N2   R$  000000000240000000000024000000000002400000000000240000000000024000000000002303000000000258800001000000000000000100000000000000240000000000000000009999123100000010000000000000BRCPLEACNPA1146
012024011902CPLE6       010COPEL       PNB     N2   R$  000000000099500000000009990000000000989000000000099400000000009980000000000996000000000099809755000000000010324200000000010270721700000000000000009999123100000010000000000000BRCPLEACNPB9145
012024011902CRFB3       010CARREFOUR BRON      NM   R$  000000000116000000000011930000000001130000000000116600000000011830000000001182000000000118510057000000000004629800000000005402142600000000000000009999123100000010000000000000BRCRFBACNOR2116
012024011902CRIV3       010ALFA FINANC ON           R$  000000000058500000000005850000000000585000000000058500000000005850000000000580000000000058900001000000000000000100000000000000058500000000000000009999123100000010000000000000BRCRIVACNOR4195
012024011902CRIV4       010ALFA FINANC PN           R$  000000000055500000000005550000000000554000000000055400000000005540000000000551000000000056900002000000000000001100000000000000610400000000000000009999123100000010000000000000BRCRIVACNPR1211
012024011902CRPG5       010CRISTAL     PNA          R$  000000000366800000000036790000000003650000000000365900000000036590000000003651000000000367500012000000000000003200000000000011711700000000000000009999123100000010000000000000BRCRPGACNPA3118
012024011902CSAN3       010COSAN       ON      NM   R$  000000000178200000000018200000000001748000000000179000000000018090000000001808000000000181617524000000000012434000000000022259432600000000000000009999123100000010000000000000BRCSANACNOR6124
012024011902ENAT3       010ENAUTA PART ON      NM   R$  000000000190000000000019470000000001847000000000190500000000019240000000001923000000000193707154000000000002854800000000005440126800000000000000009999123100000010000000000000BRENATACNOR0104
012024011902ENEV3       010ENEVA       ON      NM   R$  000000000123000000000012760000000001227000000000125200000000012690000000001268000000000127312129000000000007310600000000009158107100000000000000009999123100000010000000000000BRENEVACNOR8105
012024011902ENGI11      010ENERGISA    UNT     N2   R$  000000000489900000000050060000000004879000000000494500000000049600000000004958000000000496117389000000000005825000000000028807605200000000000000009999123100000010000000000000BRENGICDAM16135
012024011902ENGI3       010ENERGISA    ON      N2   R$  000000000174900000000017490000000001674000000000169600000000017020000000001702000000000180900055000000000000006900000000000011705300000000000000009999123100000010000000000000BRENGIACNOR0145
012024011902ENGI4       010ENERGISA    PN      N2   R$  000000000080800000000008740000000000756000000000081700000000008130000000000807000000000081100190000000000000071100000000000058116700000000000000009999123100000010000000000000BRENGIACNPR7141
012024011902ENJU3       010ENJOEI      ON      NM   R$  000000000017600000000001760000000000169000000000017100000000001700000000000169000000000017101602000000000000503900000000000086391300000000000000009999123100000010000000000000BRENJUACNOR9100
012024011902EPAR3       010EMBPAR S/A  ON           R$  000000000099000000000009940000000000981000000000098500000000009810000000000981000000000099100035000000000000008200000000000008085100000000000000009999123100000010000000000000BREPARACNOR9104
012024011902EQMA3B      010EQTLMARANHAOON      MB   R$  000000000299000000000029900000000002851000000000293300000000029900000000002851000000000294900004000000000000000400000000000001173200000000000000009999123100000010000000000000BREQMAACNOR8107
012024011902EQPA3       010EQTL PARA   ON  EJ       R$  000000000077400000000007750000000000755000000000076000000000007750000000000756000000000077500008000000000000001900000000000001444300000000000000009999123100000010000000000000BREQPAACNOR1110
012024011902EQTL3       010EQUATORIAL  ON      NM   R$  000000000346000000000034700000000003416000000000344000000000034370000000003430000000000343819344000000000006351100000000021848241700000000000000009999123100000010000000000000BREQTLACNOR0129
012024011902NEOE3       010NEOENERGIA  ON      NM   R$  000000000207300000000020730000000002028000000000205400000000020650000000002054000000000206502646000000000000662100000000001360036700000000000000009999123100000010000000000000BRNEOEACNOR3121
012024011902NGRD3       010NEOGRID     ON      NM   R$  000000000012100000000001230000000000119000000000012000000000001200000000000120000000000012100409000000000000459600000000000055562400000000000000009999123100000010000000000000BRNGRDACNOR3103
012024011902NINJ3       010GETNINJAS   ON  ATZ NM   R$  000000000048000000000004950000000000480000000000049300000000004940000000000493000000000049400076000000000000081900000000000040447400000000000000009999123100000010000000000000BRNINJACNOR5101
012024011902NORD3       010NORDON MET  ON           R$  000000000173000000000019500000000001652000000000179900000000017250000000001652000000000180000120000000000000013300000000000023939600000000000000009999123100000010000000000000BRNORDACNOR7135
012024011902NTCO3       010GRUPO NATURAON      NM   R$  000000000166700000000017360000000001589000000000166200000000017240000000001722000000000172531970000000000021964500000000036508712100000000000000009999123100000010000000000000BRNTCOACNOR5104
012024011902PETZ3       010PETZ        ON      NM   R$  000000000036000000000003610000000000349000000000035500000000003550000000000355000000000035608644000000000013250600000000004706943800000000000000009999123100000010000000000000BRPETZACNOR2109
012024011902ROMI3       010ROMI        ON      NM   R$  000000000126000000000012770000000001237000000000125600000000012770000000001269000000000127701344000000000000363900000000000457187100000000000000009999123100000010000000000000BRROMIACNOR8192
012024011902RPAD5       010ALFA HOLDINGPNA          R$  000000000078000000000007800000000000760000000000077700000000007800000000000770000000000080900006000000000000002900000000000002253900000000000000009999123100000010000000000000BRRPADACNPA4217
012024011902PRNR3       010PRINER      ON      NM   R$  000000000112200000000011270000000001084000000000110400000000011190000000001113000000000111900737000000000000141900000000000156664400000000000000009999123100000010000000000000BRPRNRACNOR4108
012024011902PSSA3       010PORTO SEGUROON      NM   R$  000000000274500000000027810000000002735000000000276100000000027700000000002770000000000277305266000000000001319400000000003643153300000000000000009999123100000010000000000000BRPSSAACNOR7153
012024011902SCAR3       010SAO CARLOS  ON      NM   R$  000000000268900000000027000000000002616000000000266100000000027000000000002662000000000270000054000000000000008600000000000022888700000000000000009999123100000010000000000000BRSCARACNOR7130
012024011902SEER3       010SER EDUCA   ON      NM   R$  000000000065600000000006710000000000635000000000065300000000006630000000000663000000000066802417000000000000965300000000000630805300000000000000009999123100000010000000000000BRSEERACNOR5119
012024011902SEQL3       010SEQUOIA LOG ON      NM   R$  000000000005300000000000540000000000048000000000005000000000000520000000000052000000000005303656000000000009970300000000000507518500000000000000009999123100000010000000000000BRSEQLACNOR2101
012024011902SGPS3       010SPRINGS     ON      NM   R$  000000000012200000000001230000000000118000000000012000000000001220000000000122000000000012300128000000000000122500000000000014760600000000000000009999123100000010000000000000BRSGPSACNOR4104
012024011902SHOW3       010TIME FOR FUNON      NM   R$  000000000020500000000002070000000000203000000000020500000000002070000000000205000000000020700157000000000000044800000000000009191700000000000000009999123100000010000000000000BRSHOWACNOR7105
012024011902B3SA3       010B3          ON      NM   R$  000000000138500000000013960000000001354000000000137000000000013790000000001378000000000138027148000000000036616700000000050191917200000000000000009999123100000010000000000000BRB3SAACNOR6130
012024011902CMIN3       010CSNMINERACAOON      N2   R$  000000000067400000000006750000000000660000000000066400000000006660000000000664000000000066707054000000000004195600000000002789540000000000000000009999123100000010000000000000BRCMINACNOR2110
012024011902COCE5       010COELCE      PNA          R$  000000000413300000000042080000000004118000000000415500000000041750000000004115000000000417500045000000000000005700000000000023687300000000000000009999123100000010000000000000BRCOCEACNPA3146
012024011902COGN3       010COGNA ON    ON      NM   R$  000000000032000000000003220000000000311000000000031600000000003190000000000319000000000032210831000000000019601300000000006208369600000000000000009999123100000010000000000000BRCOGNACNOR2104
012024011902ELET3       010ELETROBRAS  ON      N1   R$  000000000411600000000042190000000004116000000000418400000000041710000000004171000000000418019348000000000007252300000000030349290400000000000000009999123100000010000000000000BRELETACNOR6159
012024011902ELET6       010ELETROBRAS  PNB     N1   R$  000000000463900000000047240000000004635000000000468100000000046700000000004666000000000467005711000000000001016900000000004760752800000000000000009999123100000010000000000000BRELETACNPB7076
012024011902GRND3       010GRENDENE    ON      NM   R$  000000000068500000000006910000000000671000000000068100000000006850000000000685000000000068903713000000000001282700000000000873758200000000000000009999123100000010000000000000BRGRNDACNOR3172
012024011902GUAR3       010GUARARAPES  ON      NM   R$  000000000055300000000005600000000000537000000000054900000000005550000000000554000000000055506267000000000002574400000000001415864000000000000000009999123100000010000000000000BRGUARACNOR4172
012024011902HAGA3       010HAGA S/A    ON           R$  000000000024800000000002580000000000248000000000025500000000002580000000000249000000000025600003000000000000001200000000000000306700000000000000009999123100000010000000000000BRHAGAACNOR7103
012024011902HAGA4       010HAGA S/A    PN           R$  000000000011000000000001110000000000109000000000010900000000001090000000000108000000000011000012000000000000005500000000000000602100000000000000009999123100000010000000000000BRHAGAACNPR4103
012024011902HAPV3       010HAPVIDA     ON      NM   R$  000000000040200000000004050000000000380000000000039400000000004020000000000401000000000040252401000000000130791200000000051637427200000000000000009999123100000010000000000000BRHAPVACNOR4113
012024011902JALL3       010JALLESMACHADON      NM   R$  000000000074300000000007530000000000736000000000074400000000007510000000000746000000000075201452000000000000376600000000000280393800000000000000009999123100000010000000000000BRJALLACNOR0105
012024011902JBSS3       010JBS         ON      NM   R$  000000000239300000000023930000000002351000000000236800000000023750000000002373000000000237711631000000000006594300000000015618774800000000000000009999123100000010000000000000BRJBSSACNOR8121
012024011902ASAI3       010ASSAI       ON      NM   R$  000000000138200000000014300000000001363000000000140000000000014300000000001421000000000143013594000000000005324100000000007455523000000000000000009999123100000010000000000000BRASAIACNOR0106
012024011902ATOM3       010ATOMPAR     ON           R$  000000000021600000000002170000000000214000000000021500000000002140000000000214000000000021500017000000000000002800000000000000604200000000000000009999123100000010000000000000BRATOMACNOR1106
012024011902AURE3       010AUREN       ON      NM   R$  000000000130800000000013100000000001300000000000130500000000013080000000001308000000000131007027000000000004875400000000006365700900000000000000009999123100000010000000000000BRAUREACNOR9103
012024011902AVLL3       010ALPHAVILLE  ON      NM   R$  000000000049000000000005170000000000490000000000049200000000005170000000000490000000000051800005000000000000001000000000000000492700000000000000009999123100000010000000000000BRAVLLACNOR5103
012024011902AZEV3       010AZEVEDO     ON           R$  000000000016400000000001680000000000155000000000016000000000001640000000000163000000000016400623000000000000699300000000000112444300000000000000009999123100000010000000000000BRAZEVACNOR0121
012024011902AZEV4       010AZEVEDO     PN           R$  000000000015800000000001620000000000152000000000015600000000001610000000000160000000000016101944000000000002990600000000000467628900000000000000009999123100000010000000000000BRAZEVACNPR7121
012024011902AZUL4       010AZUL        PN      N2   R$  000000000127800000000013260000000001249000000000128700000000013110000000001311000000000131219153000000000015800600000000020350891100000000000000009999123100000010000000000000BRAZULACNPR4102
012024011902BBSE3       010BBSEGURIDADEON      NM   R$  000000000344900000000034790000000003426000000000345400000000034550000000003453000000000346316520000000000005023400000000017351484900000000000000009999123100000010000000000000BRBBSEACNOR5123
012024011902CLSA3       010CLEARSALE   ON      NM   R$  000000000031200000000003210000000000307000000000031500000000003150000000000315000000000031600675000000000000390000000000000122963400000000000000009999123100000010000000000000BRCLSAACNOR0100
012024011902CLSC3       010CELESC      ON      N2   R$  000000000698000000000069890000000006980000000000698300000000069890000000006782000000000698000002000000000000000500000000000003491800000000000000009999123100000010000000000000BRCLSCACNOR6149
012024011902CLSC4       010CELESC      PN      N2   R$  000000000672200000000067900000000006650000000000670200000000067890000000006631000000000683900024000000000000004700000000000031502000000000000000009999123100000010000000000000BRCLSCACNPR3128
012024011902CMIG3       010CEMIG       ON      N1   R$  000000000151500000000015200000000001485000000000150100000000015150000000001512000000000151501708000000000000473400000000000710902900000000000000009999123100000010000000000000BRCMIGACNOR6239
012024011902CMIG4       010CEMIG       PN      N1   R$  000000000116500000000011740000000001147000000000115300000000011530000000001153000000000115419379000000000018219500000000021017381500000000000000009999123100000010000000000000BRCMIGACNPR3240
012024011902DMVF3       010D1000VFARMA ON      NM   R$  000000000059300000000006020000000000590000000000059500000000005990000000000593000000000060000195000000000000049100000000000029235200000000000000009999123100000010000000000000BRDMVFACNOR9100
012024011902DOHL4       010DOHLER      PN           R$  000000000050100000000005090000000000500000000000050200000000005010000000000501000000000050700009000000000000001800000000000000903600000000000000009999123100000010000000000000BRDOHLACNPR9066
012024011902DOTZ3       010DOTZ SA     ON      NM   R$  000000000076300000000007850000000000760000000000077400000000007600000000000760000000000077700026000000000000004400000000000003406000000000000000009999123100000010000000000000BRDOTZACNOR7101
012024011902DXCO3       010DEXCO       ON      NM   R$  000000000074900000000007600000000000733000000000074600000000007570000000000757000000000076109458000000000003925400000000002932158600000000000000009999123100000010000000000000BRDXCOACNOR8104
012024011902EALT3       010ACO ALTONA  ON           R$  000000000098700000000009890000000000987000000000098800000000009890000000000900000000000098900003000000000000000300000000000000296500000000000000009999123100000010000000000000BREALTACNOR4137
012024011902EALT4       010ACO ALTONA  PN           R$  000000000101200000000010120000000000981000000000100100000000010090000000000992000000000100900026000000000000010300000000000010319300000000000000009999123100000010000000000000BREALTACNPR1137
012024011902ECOR3       010ECORODOVIAS ON      NM   R$  000000000090200000000009200000000000884000000000090400000000009120000000000911000000000091409087000000000003258900000000002946848900000000000000009999123100000010000000000000BRECORACNOR8119
012024011902EGIE3       010ENGIE BRASILON      NM   R$  000000000411300000000041350000000004081000000000409900000000040810000000004081000000000409908157000000000002042900000000008374333600000000000000009999123100000010000000000000BREGIEACNOR9125
012024011902GOAU3       010GERDAU MET  ON      N1   R$  000000000101100000000010130000000001002000000000100700000000010080000000001008000000000101300221000000000000038800000000000039101200000000000000009999123100000010000000000000BRGOAUACNOR1265
012024011902GOAU4       010GERDAU MET  PN      N1   R$  000000000097500000000009830000000000970000000000097600000000009760000000000976000000000097709599000000000005606700000000005474227500000000000000009999123100000010000000000000BRGOAUACNPR8266
012024011902GOLL4       010GOL         PN      N2   R$  000000000067000000000007180000000000658000000000068500000000007040000000000704000000000070611582000000000013195000000000009049848400000000000000009999123100000010000000000000BRGOLLACNPR4128
012024011902AMBP3       010AMBIPAR     ON      NM   R$  000000000142100000000014410000000001395000000000141700000000014340000000001433000000000143502992000000000000652600000000000925073500000000000000009999123100000010000000000000BRAMBPACNOR6103
012024011902ANIM3       010ANIMA       ON      NM   R$  000000000044600000000004630000000000432000000000044700000000004560000000000455000000000045909296000000000006282000000000002813689000000000000000009999123100000010000000000000BRANIMACNOR6107
012024011902APER3       010ALPER S.A.  ON           R$  000000000435000000000043700000000004323000000000436500000000043690000000004369000000000437700026000000000000020300000000000088614900000000000000009999123100000010000000000000BRAPERACNOR9106
012024011902ARML3       010ARMAC       ON      NM   R$  000000000149700000000015160000000001446000000000148400000000014970000000001488000000000149802490000000000000380300000000000564539800000000000000009999123100000010000000000000BRARMLACNOR1110
012024011902ARZZ3       010AREZZO CO   ON      NM   R$  000000000584400000000059070000000005708000000000582200000000058510000000005850000000000587109809000000000003287500000000019140248700000000000000009999123100000010000000000000BRARZZACNOR3146
012024011902CEAB3       010CEA MODAS   ON      NM   R$  000000000072000000000007310000000000698000000000071500000000007200000000000720000000000072505270000000000001683100000000001205060500000000000000009999123100000010000000000000BRCEABACNOR1101
012024011902CEBR3       010CEB         ON           R$  000000000180000000000018020000000001776000000000179400000000017760000000001776000000000180200011000000000000002200000000000003947600000000000000009999123100000010000000000000BRCEBRACNOR5124
012024011902CEBR5       010CEB         PNA          R$  000000000170500000000017430000000001704000000000171000000000017040000000001704000000000172000014000000000000004000000000000006840600000000000000009999123100000010000000000000BRCEBRACNPA8123
012024011902CEBR6       010CEB         PNB          R$  000000000196800000000020540000000001968000000000201400000000020370000000001999000000000203800038000000000000009800000000000019743900000000000000009999123100000010000000000000BRCEBRACNPB6123
012024011902CEDO4       010CEDRO       PN      N1   R$  000000000290900000000029530000000002909000000000294100000000029530000000002842000000000295700004000000000000000400000000000001176600000000000000009999123100000010000000000000BRCEDOACNPR5128
012024011902CEEB3       010COELBA      ON           R$  000000000394500000000039750000000003930000000000394500000000039750000000003866000000000399400004000000000000000500000000000001972600000000000000009999123100000010000000000000BRCEEBACNOR3196
012024011902CGAS3       010COMGAS      ON           R$  000000001120000000000112000000000011200000000001120000000000112000000000011111000000001219400001000000000000000100000000000001120000000000000000009999123100000010000000000000BRCGASACNOR0162
012024011902CGAS5       010COMGAS      PNA          R$  000000001224200000000122420000000012002000000001215000000000121960000000012100000000001249900019000000000000002900000000000035236000000000000000009999123100000010000000000000BRCGASACNPA3159
012024011902CGRA3       010GRAZZIOTIN  ON           R$  000000000258200000000026100000000002580000000000259300000000026000000000002581000000000260000014000000000000002000000000000005187100000000000000009999123100000010000000000000BRCGRAACNOR2081
012024011902CGRA4       010GRAZZIOTIN  PN           R$  000000000259000000000026100000000002564000000000258300000000025810000000002573000000000258100028000000000000003900000000000010075800000000000000009999123100000010000000000000BRCGRAACNPR9081
012024011902CIEL3       010CIELO       ON      NM   R$  000000000044900000000004540000000000443000000000044700000000004480000000000448000000000045015630000000000019341100000000008662710500000000000000009999123100000010000000000000BRCIELACNOR3156
012024011902DASA3       010DASA        ON      NM   R$  000000000086100000000009120000000000851000000000088200000000008950000000000894000000000089501771000000000000356900000000000314888100000000000000009999123100000010000000000000BRDASAACNOR1122
012024011902DESK3       010DESKTOP     ON      NM   R$  000000000130800000000013280000000001280000000000130400000000013210000000001319000000000132900597000000000000078500000000000102380700000000000000009999123100000010000000000000BRDESKACNOR2103
012024011902DEXP3       010DEXXOS PAR  ON      N1   R$  000000000113300000000011330000000001112000000000112000000000011250000000001120000000000112500300000000000000077400000000000086698000000000000000009999123100000010000000000000BRDEXPACNOR1104
012024011902DEXP4       010DEXXOS PAR  PN      N1   R$  000000000108800000000010980000000001083000000000109500000000010980000000001096000000000116600011000000000000019100000000000020923800000000000000009999123100000010000000000000BRDEXPACNPR8104
012024011902DIRR3       010DIRECIONAL  ON      NM   R$  000000000211600000000021570000000002093000000000213300000000021500000000002150000000000215507918000000000002063100000000004402112400000000000000009999123100000010000000000000BRDIRRACNOR0117
012024011902GGPS3       010GPS         ON      NM   R$  000000000181700000000018460000000001787000000000181500000000018310000000001831000000000184305826000000000006173400000000011204925400000000000000009999123100000010000000000000BRGGPSACNOR9102
012024011902GMAT3       010GRUPO MATEUSON      NM   R$  000000000069300000000007000000000000683000000000069000000000007000000000000699000000000070105876000000000003347900000000002311837200000000000000009999123100000010000000000000BRGMATACNOR7100
012024011902ITUB3       010ITAUUNIBANCOON      N1   R$  000000000278200000000028190000000002773000000000279500000000028000000000002799000000000281003454000000000000888700000000002484263100000000000000009999123100000010000000000000BRITUBACNOR4329
012024011902ITUB4       010ITAUUNIBANCOPN      N1   R$  000000000329500000000033040000000003271000000000328900000000032940000000003294000000000329634137000000000031813600000000104635886700000000000000009999123100000010000000000000BRITUBACNPR1329
012024011902ALPA3       010ALPARGATAS  ON      N1   R$  000000000089300000000009080000000000893000000000089800000000009080000000000907000000000092600005000000000000000500000000000000449300000000000000009999123100000010000000000000BRALPAACNOR0231
012024011902ALPA4       010ALPARGATAS  PN      N1   R$  000000000082900000000008500000000000811000000000082800000000008330000000000832000000000083308602000000000006911500000000005723059900000000000000009999123100000010000000000000BRALPAACNPR7232
012024011902ALPK3       010ESTAPAR     ON      NM   R$  000000000046500000000004690000000000448000000000045600000000004670000000000461000000000046700171000000000000061100000000000027869000000000000000009999123100000010000000000000BRALPKACNOR9101
012024011902ALUP11      010ALUPAR      UNT     N2   R$  000000000295500000000029710000000002920000000000294200000000029400000000002938000000000294303173000000000000582400000000001713714700000000000000009999123100000010000000000000BRALUPCDAM15117
012024011902ALUP3       010ALUPAR      ON      N2   R$  000000000098300000000009850000000000975000000000098000000000009840000000000981000000000098600059000000000000008000000000000007844700000000000000009999123100000010000000000000BRALUPACNOR8117
012024011902ALUP4       010ALUPAR      PN      N2   R$  000000000098500000000009900000000000976000000000098100000000009760000000000976000000000099000097000000000000017700000000000017381300000000000000009999123100000010000000000000BRALUPACNPR5117
012024011902AMAR3       010LOJAS MARISAON      NM   R$  000000000027600000000002830000000000267000000000027400000000002830000000000277000000000028300821000000000000360100000000000098918600000000000000009999123100000010000000000000BRAMARACNOR4114
012024011902BBDC3       010BRADESCO    ON      N1   R$  000000000140600000000014060000000001378000000000138600000000013850000000001384000000000138609649000000000010329200000000014325242600000000000000009999123100000010000000000000BRBBDCACNOR1765
012024011902BBDC4       010BRADESCO    PN      N1   R$  000000000157000000000015770000000001544000000000156100000000015640000000001563000000000156427760000000000061767700000000096449910900000000000000009999123100000010000000000000BRBBDCACNPR8765
012024011902BNBR3       010NORD BRASIL ON           R$  000000001200000000000120100000000012000000000001200700000000120100000000011700000000001215000003000000000000000400000000000004803000000000000000009999123100000010000000000000BRBNBRACNOR8206
012024011902BOBR4       010BOMBRIL     PN           R$  000000000022600000000002280000000000220000000000022200000000002280000000000222000000000022800054000000000000038600000000000008595100000000000000009999123100000010000000000000BRBOBRACNPR3128
012024011907TXRX3       010TEX RENAUX  ON           R$  000000000050400000000005040000000000504000000000050400000000005040000000000504000000000950000001000000000000000100000000000000050400000000000000009999123100000010000000000000BRTXRXACNOR3142
012024011907NUTR3       010NUTRIPLANT  ON      MA   R$  000000000060400000000006210000000000558000000000058400000000005650000000000563000000000057600076000000000000013200000000000007710800000000000000009999123100000010000000000000BRNUTRACNOR0104
012024011908BDLL3       010BARDELLA    ON           R$  000000000130000000000013000000000001300000000000130000000000013000000000001200000000000140000005000000000000000600000000000000780000000000000000009999123100000010000000000000BRBDLLACNOR1149
012024011908BDLL4       010BARDELLA    PN           R$  000000000089700000000009100000000000850000000000088300000000008500000000000850000000000090900003000000000000000500000000000000441700000000000000009999123100000010000000000000BRBDLLACNPR8151
012024011908HOOT4       010HOTEIS OTHONPN           R$  000000000027500000000002820000000000275000000000027800000000002820000000000276000000000028600009000000000000004200000000000001168200000000000000009999123100000010000000000000BRHOOTACNPR9015
012024011908JFEN3       010JOAO FORTES ON           R$  000000000020700000000002190000000000205000000000020800000000002060000000000206000000000020800229000000000000058800000000000012260800000000000000009999123100000010000000000000BRJFENACNOR0058
012024011908TEKA4       010TEKA        PN           R$  000000000280000000000028000000000002800000000000280000000000028000000000002100000000000274000001000000000000000100000000000000280000000000000000009999123100000010000000000000BRTEKAACNPR3140
012024011908RSID3       010ROSSI RESID ON      NM   R$  000000000036400000000003830000000000360000000000037200000000003690000000000366000000000037000129000000000000055700000000000020767200000000000000009999123100000010000000000000BRRSIDACNOR8120
012024011908FRTA3       010POMIFRUTAS  ON      NM   R$  000000000016800000000001680000000000168000000000016800000000001680000000000168000000000017000014000000000000007200000000000001209600000000000000009999123100000010000000000000BRFRTAACNOR8103
012024011908OIBR3       010OI          ON      N1   R$  000000000006100000000000620000000000059000000000006000000000000600000000000060000000000006100980000000000003590600000000000216072600000000000000009999123100000010000000000000BROIBRACNOR1110
012024011908OIBR4       010OI          PN      N1   R$  000000000015400000000001540000000000152000000000015300000000001540000000000153000000000015400032000000000000012500000000000001914900000000000000009999123100000010000000000000BROIBRACNPR8109
012024011908PMAM3       010PARANAPANEMAON      NM   R$  000000000041300000000004260000000000402000000000041200000000004070000000000405000000000040800094000000000000021900000000000009028200000000000000009999123100000010000000000000BRPMAMACNOR3038
012024011908ETER3       010ETERNIT     ON      NM   R$  000000000078300000000007910000000000760000000000077100000000007720000000000772000000000077400659000000000000311000000000000239967000000000000000009999123100000010000000000000BRETERACNOR3242
012024011908LIGT3       010LIGHT S/A   ON      NM   R$  000000000061700000000006270000000000604000000000061700000000006180000000000618000000000062503195000000000000665500000000000410922100000000000000009999123100000010000000000000BRLIGTACNOR2124
012024011908RNEW11      010RENOVA      UNT     N2   R$  000000000038700000000003960000000000382000000000038900000000003940000000000374000000000039500035000000000000004700000000000001831200000000000000009999123100000010000000000000BRRNEWCDAM15110
012024011908RNEW3       010RENOVA      ON      N2   R$  000000000013000000000001350000000000129000000000013100000000001330000000000131000000000013300226000000000000112900000000000014818800000000000000009999123100000010000000000000BRRNEWACNOR8110
012024011908RNEW4       010RENOVA      PN      N2   R$  000000000013000000000001340000000000126000000000013100000000001340000000000133000000000013400271000000000000164900000000000021636200000000000000009999123100000010000000000000BRRNEWACNPR5110
012024011908RPMG3       010PET MANGUINHON           R$  000000000020600000000002060000000000206000000000020600000000002060000000000206000000000020700004000000000000000400000000000000082400000000000000009999123100000010000000000000BRRPMGACNOR9194
012024011908ATMP3       010ATMASA      ON           R$  000000000029200000000002970000000000284000000000029000000000002890000000000286000000000028900134000000000000018800000000000005452200000000000000009999123100000010000000000000BRATMPACNOR8100
012024011908AMER3       010AMERICANAS  ON      NM   R$  000000000008200000000000830000000000080000000000008100000000000830000000000082000000000008302932000000000006643100000000000543731100000000000000009999123100000010000000000000BRAMERACNOR6101
012024011910RENT1       010LOCALIZA    DIR ORD NM   R$  000000000147600000000018350000000001365000000000153700000000018350000000001613000000000000000092000000000000022100000000000033984100000000000000009999123100000010000000000000BRRENTD05OR0193
012024011910PMAM1       010PARANAPANEMADIR ORD NM   R$  000000000000100000000000010000000000001000000000000100000000000010000000000000000000000000100019000000000000008700000000000000008700000000000000009999123100000010000000000000BRPMAMD03OR4037
012024011910VIVR1       010VIVER       DIR ORD NM   R$  000000000005000000000000720000000000050000000000005800000000000600000000000052000000000006000147000000000000040000000000000002359700000000000000009999123100000010000000000000BRVIVRD17OR5120
012024011910ABCB2       010ABC BRASIL  DIR PRE N2   R$  000000000045700000000004570000000000424000000000043900000000004570000000000449000000000045700052000000000000008700000000000003825900000000000000009999123100000010000000000000BRABCBD18PR3144
012024011910LJQQ1       010QUERO-QUERO DIR ORD NM   R$  000000000013000000000001630000000000116000000000013400000000001600000000000145000000000016000144000000000000015700000000000002108200000000000000009999123100000010000000000000BRLJQQD01OR0103
012024011912RBVA11      010FII RIOB VA CI           R$  000000001130800000000113150000000011275000000001129600000000112890000000011287000000001128901761000000000000007233000000000081708965000000000000009999123100000010000000000000BRRBVACTF006160
012024011912RBVO11      010FII RIOBCRI2CI           R$  000000000082000000000008200000000000804000000000080500000000008050000000000805000000000081500014000000000000000075000000000000060448000000000000009999123100000010000000000000BRRBVOCTF007238
012024011912RCFA11      010FII GP RCFA CI           R$  000000000013300000000001330000000000130000000000013000000000001320000000000130000000000013200005000000000000000086000000000000011253000000000000009999123100000010000000000000BRRCFACTF007101
012024011912RCFF11      010FII RBR FEEDCI  ER       R$  000000000976300000000097630000000009763000000000976300000000097630000000009170000000000976300001000000000000000001000000000000009763000000000000009999123100000010000000000000BRRCFFCTF006107
012024011912RCRB11      010FII RIOB RC CI           R$  000000001593300000000164990000000015933000000001610800000000161570000000016099000000001632002542000000000000007216000000000116237651000000000000009999123100000010000000000000BRRCRBCTF000152
012024011912RECR11      010FII REC RECECI           R$  000000000860800000000086150000000008553000000000857600000000085590000000008554000000000856104036000000000000021633000000000185534656000000000000009999123100000010000000000000BRRECRCTF004146
012024011912RECT11      010FII REC RENDCI           R$  000000000450000000000045290000000004480000000000449500000000044840000000004482000000000448400755000000000000008063000000000036249814000000000000009999123100000010000000000000BRRECTCTF000162
012024011912RECX11      010FII REC FOF CI  ER       R$  000000000673000000000067300000000006730000000000673000000000067300000000006522000000000689800002000000000000000135000000000000908550000000000000009999123100000010000000000000BRRECXCTF002134
012024011912RELG11      010FII REC LOG CI           R$  000000000468500000000047450000000004685000000000469300000000046900000000004690000000000469900188000000000000001468000000000006890415000000000000009999123100000010000000000000BRRELGCTF008130
012024011912BTRA11      010FII BTG TAGRCI           R$  000000000602800000000060280000000005970000000000599000000000060070000000006000000000000600701503000000000000006631000000000039722773000000000000009999123100000010000000000000BRBTRACTF000130
012024011912BVAR11      010FII B VAREJOCI           R$  000000006520000000000652000000000059003000000005900400000000590030000000070000000000008400000007000000000000006500000000000383531894000000000000009999123100000010000000000000BRBVARCTF006210
012024011912CACR11      010CARTESIA FIICI           R$  000000001034500000000103900000000010300000000001033600000000103550000000010354000000001035502514000000000000014024000000000144952914000000000000009999123100000010000000000000BRCACRCTF004127
012024011912CARE11      010FII DEA CARECI           R$  000000000015700000000001640000000000151000000000015900000000001630000000000162000000000016300214000000000000016347000000000002614005000000000000009999123100000010000000000000BRCARECTF000112
012024011912RBDS11      010FII RBRESID2CI           R$  000000000023300000000002450000000000220000000000023100000000002400000000000221000000000024000010000000000000000851000000000000197060000000000000009999123100000010000000000000BRRBDSCTF006179
012024011912RBED11      010FII RIOB ED CI           R$  000000001482300000000149490000000014799000000001483600000000149300000000014895000000001492900179000000000000001664000000000024687882000000000000009999123100000010000000000000BRRBEDCTF006159
012024011912RBFF11      010FII RIOB FF CI           R$  000000000611600000000061490000000006102000000000612600000000061430000000006124000000000614303151000000000000014539000000000089069995000000000000009999123100000010000000000000BRRBFFCTF008155
012024011912RBHG11      010FII RBCRI IVCI           R$  000000000919300000000093890000000009193000000000929600000000093260000000009326000000000938600864000000000000002792000000000025956306000000000000009999123100000010000000000000BRRBHGCTF002129
012024011912RBHY11      010FII RB YIELDCI           R$  000000000931700000000093170000000009268000000000929300000000093100000000009293000000000931100068000000000000000589000000000005474127000000000000009999123100000010000000000000BRRBHYCTF005139
012024011912RBIR11      010FII RBRES IVCI           R$  000000000925000000000094950000000009231000000000933100000000094830000000009301000000000949500016000000000000000128000000000001194485000000000000009999123100000010000000000000BRRBIRCTF007111
012024011912RBOP11      010FII MERC BR CI  ER       R$  000000003154000000000334000000000031000000000003189300000000317000000000031101000000003170000110000000000000000227000000000007239770000000000000009999123100000010000000000000BRRBOPCTF009116
012024011912RBRD11      010FII RB II   CI           R$  000000000410800000000041080000000004023000000000405100000000040590000000004027000000000406000075000000000000000559000000000002264833000000000000009999123100000010000000000000BRRBRDCTF008258
012024011912RBRF11      010FII RBRALPHACI  ER       R$  000000000804100000000081460000000008016000000000807300000000081150000000008115000000000812806184000000000000034289000000000276836639000000000000009999123100000010000000000000BRRBRFCTF003181
012024011912RBRL11      010FII RBR LOG CI           R$  000000000883800000000088780000000008757000000000879900000000088260000000008826000000000882703689000000000000010972000000000096551642000000000000009999123100000010000000000000BRRBRLCTF001149
012024011912SPTW11      010FII SP DOWNTCI           R$  000000000427100000000043220000000004266000000000429800000000043220000000004322000000000434500195000000000000001555000000000006684747000000000000009999123100000010000000000000BRSPTWCTF002230
012024011912SPXS11      010FII SPX SYN CI           R$  000000000093700000000009500000000000931000000000093800000000009410000000000941000000000094310341000000000000068531000000000064337308000000000000009999123100000010000000000000BRSPXSCTF002119
012024011912SNCI11      010FII SUNO CRICI  ER       R$  000000000998900000000100130000000009989000000001000000000000100060000000010006000000001000900532000000000000004569000000000045690823000000000000009999123100000010000000000000BRSNCICTF002131
012024011912SNEL11      010FII SUNO EL CI  ER       R$  000000001254900000000125500000000012460000000001250700000000125270000000012526000000001252700309000000000000002619000000000032757305000000000000009999123100000010000000000000BRSNELCTF010103
012024011912SNFF11      010FII SUNOFOFICI  ER       R$  000000000860000000000086450000000008600000000000862800000000086350000000008610000000000863500338000000000000003549000000000030623087000000000000009999123100000010000000000000BRSNFFCTF001133
012024011912SNLG11      010FII SUNO LG CI           R$  000000000235900000000023820000000002357000000000235900000000023730000000002357000000000237300136000000000000000795000000000001875578000000000000009999123100000010000000000000BRSNLGCTF007103
012024011912SNME11      010FII SNME    CI  ER       R$  000000000104400000000010580000000001016000000000104900000000010500000000001022000000000105000027000000000000000891000000000000935220000000000000009999123100000010000000000000BRSNMECTF000102
