00COTAHIST.2024BOVESPA 20240217                                                                                                                                                                                                                      
012024021602BIOM3       010BIOMM       ON      MA   R$  000000000054400000000005440000000000534000000000053700000000005360000000000536000000000053700041000000000000035400000000000019044100000000000000009999123100000010000000000000BRBIOMACNOR2112
012024021602BLAU3       010BLAU        ON      NM   R$  000000000119000000000012240000000001172000000000119500000000012220000000001219000000000122201421000000000000219000000000000261793000000000000000009999123100000010000000000000BRBLAUACNOR8111
012024021602BMEB3       010MERCANTIL   ON      N1   R$  000000000239100000000023950000000002391000000000239300000000023950000000002205000000000245000002000000000000000200000000000000478600000000000000009999123100000010000000000000BRBMEBACNOR8205
012024021602BMEB4       010MERCANTIL   PN      N1   R$  000000000257300000000025920000000002520000000000254200000000025250000000002525000000000257500052000000000000008100000000000020595100000000000000009999123100000010000000000000BRBMEBACNPR5210
012024021602BRIT3       010BRISANET    ON      NM   R$  000000000029100000000002920000000000283000000000028600000000002870000000000286000000000028700890000000000000579900000000000166244500000000000000009999123100000010000000000000BRBRITACNOR0102
012024021602BRIV4       010ALFA INVEST PN           R$  000000000111900000000011190000000001119000000000111900000000011190000000001089000000000111900001000000000000000200000000000000223800000000000000009999123100000010000000000000BRBRIVACNPR3218
012024021602BRKM3       010BRASKEM     ON      N1   R$  000000000184600000000020430000000001846000000000196300000000019800000000001980000000000199000256000000000000047600000000000093486200000000000000009999123100000010000000000000BRBRKMACNOR1119
012024021602BRKM5       010BRASKEM     PNA     N1   R$  000000000175500000000019580000000001755000000000189000000000019250000000001923000000000192719261000000000011251100000000021268849800000000000000009999123100000010000000000000BRBRKMACNPA4121
012024021602GGPS3       010GPS         ON      NM   R$  000000000183600000000018500000000001807000000000182900000000018290000000001825000000000183404965000000000001571400000000002874408100000000000000009999123100000010000000000000BRGGPSACNOR9102
012024021602GMAT3       010GRUPO MATEUSON      NM   R$  000000000074500000000007460000000000721000000000073000000000007280000000000727000000000073408013000000000004730100000000003456990200000000000000009999123100000010000000000000BRGMATACNOR7100
012024021602GOAU3       010GERDAU MET  ON      N1   R$  000000000102400000000010330000000001010000000000102300000000010330000000001025000000000103400304000000000000061000000000000062439200000000000000009999123100000010000000000000BRGOAUACNOR1265
012024021602RPAD6       010ALFA HOLDINGPNB          R$  000000000080500000000008050000000000805000000000080500000000008050000000000805000000000081000003000000000000000300000000000000241500000000000000009999123100000010000000000000BRRPADACNPB2198
012024021602RRRP3       0103R PETROLEUMON      NM   R$  000000000285000000000029660000000002831000000000291100000000029330000000002933000000000293613503000000000004670400000000013599304200000000000000009999123100000010000000000000BRRRRPACNOR5102
012024021602TASA3       010TAURUS ARMASON      N2   R$  000000000143000000000014380000000001428000000000143200000000014310000000001430000000000144000042000000000000009400000000000013463600000000000000009999123100000010000000000000BRTASAACNOR7103
012024021602TASA4       010TAURUS ARMASPN      N2   R$  000000000142400000000014380000000001422000000000143100000000014330000000001427000000000143301164000000000000215900000000000309027300000000000000009999123100000010000000000000BRTASAACNPR4103
012024021602TCSA3       010TECNISA     ON      NM   R$  000000000030400000000003090000000000297000000000030200000000002970000000000295000000000029700134000000000000050900000000000015373800000000000000009999123100000010000000000000BRTCSAACNOR3112
012024021602TECN3       010TECHNOS     ON      NM   R$  000000000033500000000003390000000000332000000000033400000000003370000000000335000000000033700292000000000000170600000000000057131200000000000000009999123100000010000000000000BRTECNACNOR6109
012024021602TELB3       010TELEBRAS    ON           R$  000000000145300000000015190000000001452000000000148000000000015190000000001474000000000151800012000000000000001500000000000002221200000000000000009999123100000010000000000000BRTELBACNOR2140
012024021602CSED3       010CRUZEIRO EDUON      NM   R$  000000000039300000000004150000000000393000000000040800000000004150000000000412000000000041601692000000000000962700000000000393386800000000000000009999123100000010000000000000BRCSEDACNOR9104
012024021602CSMG3       010COPASA      ON      NM   R$  000000000217200000000021980000000002142000000000217500000000021790000000002175000000000218005628000000000001027400000000002235238400000000000000009999123100000010000000000000BRCSMGACNOR5171
012024021602ENGI11      010ENERGISA    UNT     N2   R$  000000000510300000000051030000000005007000000000505200000000050620000000005061000000000507306327000000000001869700000000009446863700000000000000009999123100000010000000000000BRENGICDAM16135
012024021602ENGI3       010ENERGISA    ON      N2   R$  000000000166500000000016950000000001665000000000167600000000016850000000001665000000000168400028000000000000004300000000000007211000000000000000009999123100000010000000000000BRENGIACNOR0145
012024021602ENGI4       010ENERGISA    PN      N2   R$  000000000086000000000008600000000000836000000000084600000000008500000000000838000000000085600023000000000000003000000000000002538100000000000000009999123100000010000000000000BRENGIACNPR7141
012024021602ENJU3       010ENJOEI      ON      NM   R$  000000000015100000000001550000000000148000000000015100000000001550000000000153000000000015500303000000000000337500000000000051140500000000000000009999123100000010000000000000BRENJUACNOR9100
012024021602EPAR3       010EMBPAR S/A  ON           R$  000000000095100000000009790000000000950000000000097100000000009700000000000967000000000097600025000000000000004200000000000004078200000000000000009999123100000010000000000000BREPARACNOR9104
012024021602EQMA3B      010EQTLMARANHAOON      MB   R$  000000000290100000000029490000000002901000000000292500000000029490000000002901000000000298000002000000000000000200000000000000585000000000000000009999123100000010000000000000BREQMAACNOR8107
012024021602EQPA3       010EQTL PARA   ON           R$  000000000077900000000008180000000000777000000000080400000000008130000000000786000000000081600033000000000000004500000000000003620800000000000000009999123100000010000000000000BREQPAACNOR1110
012024021602EQTL3       010EQUATORIAL  ON      NM   R$  000000000342400000000034370000000003376000000000339500000000033900000000003390000000000340013000000000000005271600000000017897834100000000000000009999123100000010000000000000BREQTLACNOR0129
012024021602TELB4       010TELEBRAS    PN           R$  000000000107700000000010850000000001056000000000107500000000010810000000001081000000000108600011000000000000003400000000000003658100000000000000009999123100000010000000000000BRTELBACNPR9140
012024021602TEND3       010TENDA       ON      NM   R$  000000000101000000000010560000000001002000000000103600000000010540000000001043000000000105509496000000000002580100000000002673673300000000000000009999123100000010000000000000BRTENDACNOR4111
012024021602TFCO4       010TRACK FIELD PN      N2   R$  000000000139800000000014300000000001382000000000141200000000014300000000001414000000000143000244000000000000039600000000000055932700000000000000009999123100000010000000000000BRTFCOACNPR8111
012024021602TGMA3       010TEGMA       ON      NM   R$  000000000255500000000025740000000002514000000000255100000000025720000000002558000000000257400853000000000000099200000000000253110500000000000000009999123100000010000000000000BRTGMAACNOR7143
012024021602TIMS3       010TIM         ON      NM   R$  000000000181500000000018180000000001728000000000175100000000017400000000001740000000000174116054000000000012070700000000021147562000000000000000009999123100000010000000000000BRTIMSACNOR5114
012024021602TOTS3       010TOTVS       ON      NM   R$  000000000307800000000031000000000003032000000000306400000000030840000000003070000000000308515604000000000004935500000000015126536900000000000000009999123100000010000000000000BRTOTSACNOR8144
012024021602JALL3       010JALLESMACHADON      NM   R$  000000000075200000000007620000000000740000000000074700000000007470000000000746000000000075001877000000000000454500000000000339653900000000000000009999123100000010000000000000BRJALLACNOR0105
012024021602JBSS3       010JBS         ON      NM   R$  000000000225100000000022620000000002211000000000223600000000022450000000002245000000000224812905000000000004933900000000011036370700000000000000009999123100000010000000000000BRJBSSACNOR8121
012024021602ANIM3       010ANIMA       ON      NM   R$  000000000043000000000004510000000000424000000000044200000000004460000000000446000000000045006967000000000006611100000000002927215100000000000000009999123100000010000000000000BRANIMACNOR6107
012024021602ARML3       010ARMAC       ON      NM   R$  000000000137800000000013920000000001331000000000135500000000013610000000001361000000000136902638000000000000382700000000000518729100000000000000009999123100000010000000000000BRARMLACNOR1110
012024021602ARZZ3       010AREZZO CO   ON      NM   R$  000000000590000000000059450000000005750000000000582500000000058780000000005868000000000588009650000000000002056600000000011980136800000000000000009999123100000010000000000000BRARZZACNOR3146
012024021602ASAI3       010ASSAI       ON      NM   R$  000000000134700000000013730000000001325000000000135100000000013600000000001359000000000136511686000000000004964600000000006710219700000000000000009999123100000010000000000000BRASAIACNOR0106
012024021602BMGB4       010BANCO BMG   PN      N1   R$  000000000038800000000003920000000000380000000000038400000000003830000000000383000000000038701288000000000001275900000000000490315500000000000000009999123100000010000000000000BRBMGBACNPR0108
012024021602TPIS3       010TRIUNFO PARTON      NM   R$  000000000037400000000003780000000000361000000000037200000000003750000000000373000000000037500128000000000000060100000000000022380700000000000000009999123100000010000000000000BRTPISACNOR8118
012024021602TRAD3       010TC          ON      NM   R$  000000000007000000000000770000000000070000000000007300000000000740000000000074000000000007500318000000000000883300000000000064778700000000000000009999123100000010000000000000BRTRADACNOR3101
012024021602WEST3       010WESTWING    ON      NM   R$  000000000012000000000001220000000000120000000000012100000000001220000000000121000000000012200022000000000000017000000000000002062200000000000000009999123100000010000000000000BRWESTACNOR3100
012024021602WHRL3       010WHIRLPOOL   ON           R$  000000000042100000000004290000000000421000000000042600000000004270000000000421000000000042700009000000000000001200000000000000511400000000000000009999123100000010000000000000BRWHRLACNOR5128
012024021602WHRL4       010WHIRLPOOL   PN           R$  000000000045700000000004630000000000457000000000046000000000004580000000000458000000000046300014000000000000002700000000000001242300000000000000009999123100000010000000000000BRWHRLACNPR2128
012024021602WIZC3       010WIZ CO      ON      NM   R$  000000000061600000000006260000000000609000000000061600000000006260000000000626000000000062701114000000000000315900000000000194658400000000000000009999123100000010000000000000BRWIZCACNOR5101
012024021602WLMM3       010WLM IND COM ON  EJ       R$  000000000240000000000024000000000002400000000000240000000000024000000000001700000000000250000002000000000000000200000000000000480000000000000000009999123100000010000000000000BRWLMMACNOR6117
012024021602WLMM4       010WLM IND COM PN  EJ       R$  000000000295000000000029500000000002800000000000284300000000028440000000002662000000000284500025000000000000003000000000000008531100000000000000009999123100000010000000000000BRWLMMACNPR3117
012024021602BMIN3       010MERC INVEST ON           R$  000000000195100000000019510000000001951000000000195100000000019510000000001950000000000210400002000000000000000200000000000000390200000000000000009999123100000010000000000000BRBMINACNOR4170
012024021602BMIN4       010MERC INVEST PN           R$  000000000158900000000015890000000001589000000000158900000000015890000000001500000000000157500001000000000000000100000000000000158900000000000000009999123100000010000000000000BRBMINACNPR1176
012024021602BMKS3       010BIC MONARK  ON           R$  000000003520100000000360000000000035201000000003555000000000360000000000035400000000003649700005000000000000000005000000000000177752000000000000009999123100000010000000000000BRBMKSACNOR9165
012024021602BMOB3       010BEMOBI TECH ON      NM   R$  000000000123200000000012600000000001218000000000124500000000012600000000001260000000000126101023000000000000167900000000000209082300000000000000009999123100000010000000000000BRBMOBACNOR7103
012024021602BOBR4       010BOMBRIL     PN           R$  000000000022600000000002350000000000219000000000022700000000002320000000000231000000000023400085000000000000052500000000000011958900000000000000009999123100000010000000000000BRBOBRACNPR3128
012024021602BRSR3       010BANRISUL    ON      N1   R$  000000000146900000000014790000000001460000000000146800000000014790000000001479000000000148000021000000000000003200000000000004699700000000000000009999123100000010000000000000BRBRSRACNOR3185
012024021602BRSR6       010BANRISUL    PNB     N1   R$  000000000148900000000015020000000001464000000000147900000000014920000000001490000000000149202791000000000000589800000000000872540000000000000000009999123100000010000000000000BRBRSRACNPB4188
012024021602CPFE3       010CPFL ENERGIAON      NM   R$  000000000361600000000036450000000003586000000000360200000000035860000000003585000000000359704624000000000000962200000000003466401200000000000000009999123100000010000000000000BRCPFEACNOR0136
012024021602CPLE3       010COPEL       ON      N2   R$  000000000092700000000009290000000000918000000000092300000000009250000000000922000000000092505864000000000007894200000000007293939900000000000000009999123100000010000000000000BRCPLEACNOR8148
012024021602CPLE6       010COPEL       PNB     N2   R$  000000000102600000000010280000000001016000000000102200000000010210000000001021000000000102214069000000000009541100000000009751706300000000000000009999123100000010000000000000BRCPLEACNPB9145
012024021602YDUQ3       010YDUQS PART  ON      NM   R$  000000000187900000000019710000000001876000000000192100000000019100000000001910000000000191716261000000000004753700000000009136174400000000000000009999123100000010000000000000BRYDUQACNOR3104
012024021602ODPV3       010ODONTOPREV  ON      NM   R$  000000000132000000000013250000000001288000000000131400000000013200000000001314000000000132002007000000000000717500000000000943403300000000000000009999123100000010000000000000BRODPVACNOR4198
012024021602OFSA3       010OUROFINO S/AON      NM   R$  000000000210300000000021280000000002075000000000209600000000020750000000002075000000000214700043000000000000008600000000000018033600000000000000009999123100000010000000000000BROFSAACNOR7117
012024021602CRFB3       010CARREFOUR BRON      NM   R$  000000000114000000000011400000000001105000000000111400000000011130000000001112000000000111509643000000000006031200000000006724008300000000000000009999123100000010000000000000BRCRFBACNOR2116
012024021602ELMD3       010ELETROMIDIA ON      NM   R$  000000000171400000000017380000000001681000000000170900000000017000000000001700000000000171500146000000000000023200000000000039660900000000000000009999123100000010000000000000BRELMDACNOR3100
012024021602EMAE4       010EMAE        PN           R$  000000000589600000000060500000000005869000000000593700000000060500000000005951000000000605000016000000000000003000000000000017812400000000000000009999123100000010000000000000BREMAEACNPR1124
012024021602EMBR3       010EMBRAER     ON      NM   R$  000000000227700000000022870000000002239000000000225500000000022510000000002250000000000225506519000000000002941200000000006632435400000000000000009999123100000010000000000000BREMBRACNOR4191
012024021602ENAT3       010ENAUTA PART ON      NM   R$  000000000203200000000022250000000002031000000000215400000000022240000000002219000000000222509850000000000003726600000000008029403400000000000000009999123100000010000000000000BRENATACNOR0104
012024021602ENEV3       010ENEVA       ON      NM   R$  000000000121000000000012500000000001208000000000122800000000012360000000001235000000000123716119000000000008744800000000010743610600000000000000009999123100000010000000000000BRENEVACNOR8105
012024021602ONCO3       010ONCOCLINICASON      NM   R$  000000000108900000000010900000000001017000000000103600000000010170000000001017000000000102011712000000000005945600000000006160182700000000000000009999123100000010000000000000BRONCOACNOR6100
012024021602OPCT3       010OCEANPACT   ON      NM   R$  000000000053600000000005430000000000532000000000053800000000005430000000000537000000000054302562000000000000739500000000000397901400000000000000009999123100000010000000000000BROPCTACNOR0100
012024021602ORVR3       010ORIZON      ON      NM   R$  000000000331000000000033250000000003221000000000326600000000033080000000003283000000000330801871000000000000324200000000001058882900000000000000009999123100000010000000000000BRORVRACNOR0101
012024021602GOAU4       010GERDAU MET  PN      N1   R$  000000000098600000000010050000000000982000000000099500000000009990000000000999000000000100106527000000000005606100000000005582846200000000000000009999123100000010000000000000BRGOAUACNPR8266
012024021602ITUB3       010ITAUUNIBANCOON      N1   R$  000000000295600000000029800000000002940000000000296200000000029730000000002965000000000297401576000000000000311800000000000923593000000000000000009999123100000010000000000000BRITUBACNOR4330
012024021602ITUB4       010ITAUUNIBANCOPN      N1   R$  000000000346800000000034790000000003428000000000345800000000034540000000003451000000000345430897000000000022821200000000078935266200000000000000009999123100000010000000000000BRITUBACNPR1330
012024021602AERI3       010AERIS       ON      NM   R$  000000000007600000000000770000000000076000000000007600000000000760000000000076000000000007701905000000000002584200000000000197293400000000000000009999123100000010000000000000BRAERIACNOR4101
012024021602AESB3       010AES BRASIL  ON      NM   R$  000000000103000000000010420000000001022000000000103100000000010350000000001035000000000104003687000000000001797700000000001854232200000000000000009999123100000010000000000000BRAESBACNOR7105
012024021602AFLT3       010AFLUENTE T  ON           R$  000000000076200000000007740000000000761000000000076900000000007740000000000751000000000078900003000000000000000500000000000000384500000000000000009999123100000010000000000000BRAFLTACNOR1120
012024021602AGRO3       010BRASILAGRO  ON      NM   R$  000000000237300000000024030000000002360000000000238500000000023980000000002398000000000240001709000000000000270100000000000644415800000000000000009999123100000010000000000000BRAGROACNOR7114
012024021602AGXY3       010AGROGALAXY  ON      NM   R$  000000000018500000000001850000000000176000000000018000000000001840000000000182000000000018400729000000000000286000000000000051484200000000000000009999123100000010000000000000BRAGXYACNOR4102
012024021602ALLD3       010ALLIED      ON      NM   R$  000000000068500000000007030000000000682000000000068700000000006830000000000680000000000068900056000000000000010100000000000006944600000000000000009999123100000010000000000000BRALLDACNOR3105
012024021602ALOS3       010ALLOS       ON      NM   R$  000000000236100000000023740000000002310000000000233300000000023470000000002346000000000234709521000000000005171100000000012065351900000000000000009999123100000010000000000000BRALOSACNOR5100
012024021602BRBI11      010BR PARTNERS UNT     N2   R$  000000000153300000000015800000000001525000000000155000000000015700000000001570000000000157801008000000000000142200000000000220485700000000000000009999123100000010000000000000BRBRBICDAM10107
012024021602BRFS3       010BRF SA      ON      NM   R$  000000000144600000000014500000000001399000000000142500000000014290000000001428000000000143110242000000000004702500000000006705265300000000000000009999123100000010000000000000BRBRFSACNOR8121
012024021602FRAS3       010FRAS-LE     ON      N1   R$  000000000155400000000015690000000001528000000000154700000000015670000000001560000000000156900956000000000000180200000000000278906200000000000000009999123100000010000000000000BRFRASACNOR0158
012024021602FRIO3       010METALFRIO   ON      NM   R$  000000003100000000000330000000000031000000000003195400000000330000000000032856000000003300000026000000000000004700000000000150184900000000000000009999123100000010000000000000BRFRIOACNOR2111
012024021602BPAC11      010BTGP BANCO  UNT     N2   R$  000000000367300000000036830000000003609000000000364800000000036420000000003642000000000365415349000000000004919400000000017949903700000000000000009999123100000010000000000000BRBPACUNT006118
012024021602BPAC3       010BTGP BANCO  ON      N2   R$  000000000181100000000018510000000001793000000000182500000000018450000000001801000000000184500029000000000000003200000000000005841700000000000000009999123100000010000000000000BRBPACACNOR7133
012024021602BPAC5       010BTGP BANCO  PNA     N2   R$  000000000093000000000009300000000000880000000000089900000000008920000000000892000000000089500093000000000000027600000000000024830100000000000000009999123100000010000000000000BRBPACACNPA0133
012024021602CMIN3       010CSNMINERACAOON      N2   R$  000000000064500000000006670000000000641000000000065600000000006510000000000651000000000065307108000000000006076600000000003990206800000000000000009999123100000010000000000000BRCMINACNOR2110
012024021602COCE5       010COELCE      PNA          R$  000000000415900000000041780000000004086000000000413300000000041640000000004127000000000416400131000000000000022000000000000090935100000000000000009999123100000010000000000000BRCOCEACNPA3146
012024021602COGN3       010COGNA ON    ON      NM   R$  000000000023900000000002500000000000239000000000024500000000002420000000000242000000000024313966000000000039418200000000009684579100000000000000009999123100000010000000000000BRCOGNACNOR2104
012024021602GEPA3       010GER PARANAP ON           R$  000000000269700000000026970000000002697000000000269700000000026970000000002500000000000269700001000000000000000600000000000001618200000000000000009999123100000010000000000000BRGEPAACNOR2152
012024021602GEPA4       010GER PARANAP PN           R$  000000000259800000000025980000000002567000000000258200000000025670000000002543000000000258700002000000000000000200000000000000516500000000000000009999123100000010000000000000BRGEPAACNPR9159
012024021602GFSA3       010GAFISA      ON      NM   R$  000000000060800000000006150000000000586000000000059800000000006000000000000598000000000060006618000000000003935900000000002357023800000000000000009999123100000010000000000000BRGFSAACNOR3123
012024021602MAPT4       010CEMEPE      PN           R$  000000000082700000000008270000000000827000000000082700000000008270000000000801000000000086300001000000000000000100000000000000082700000000000000009999123100000010000000000000BRMAPTACNPR5106
012024021602MATD3       010MATER DEI   ON      NM   R$  000000000065100000000006680000000000646000000000065600000000006630000000000663000000000066901747000000000000332900000000000218697400000000000000009999123100000010000000000000BRMATDACNOR4103
012024021602BEEF3       010MINERVA     ON      NM   R$  000000000064900000000006630000000000645000000000065300000000006520000000000652000000000065407922000000000008631500000000005641382800000000000000009999123100000010000000000000BRBEEFACNOR6116
012024021602HYPE3       010HYPERA      ON      NM   R$  000000000322200000000033380000000003172000000000328700000000033220000000003319000000000332212565000000000004765400000000015668531600000000000000009999123100000010000000000000BRHYPEACNOR0137
012024021602JHSF3       010JHSF PART   ON      NM   R$  000000000042600000000004280000000000422000000000042500000000004260000000000425000000000042703407000000000003155000000000001343098700000000000000009999123100000010000000000000BRJHSFACNOR2132
012024021602JSLG3       010JSL         ON      NM   R$  000000000108500000000010850000000001065000000000107000000000010750000000001065000000000107501188000000000000331100000000000354418400000000000000009999123100000010000000000000BRJSLGACNOR2121
012024021602KEPL3       010KEPLER WEBERON      NM   R$  000000000093100000000009380000000000922000000000092900000000009340000000000932000000000093504304000000000000764400000000000710460400000000000000009999123100000010000000000000BRKEPLACNOR1061
012024021602EGIE3       010ENGIE BRASILON      NM   R$  000000000411400000000041260000000004072000000000408800000000040760000000004076000000000409903771000000000001625600000000006645539200000000000000009999123100000010000000000000BREGIEACNOR9125
012024021602ELET3       010ELETROBRAS  ON      N1   R$  000000000430100000000043120000000004240000000000425500000000042500000000004250000000000425418771000000000005785400000000024620005200000000000000009999123100000010000000000000BRELETACNOR6159
012024021602ELET6       010ELETROBRAS  PNB     N1   R$  000000000471300000000047370000000004663000000000468700000000046840000000004681000000000468405779000000000000938200000000004397557600000000000000009999123100000010000000000000BRELETACNPB7076
012024021602GGBR3       010GERDAU      ON      N1   R$  000000000194700000000020040000000001947000000000198700000000019980000000001988000000000199800192000000000000040800000000000081083100000000000000009999123100000010000000000000BRGGBRACNOR1189
012024021602GGBR4       010GERDAU      PN      N1   R$  000000000208700000000021400000000002076000000000211800000000021210000000002120000000000212223492000000000019410300000000041128533300000000000000009999123100000010000000000000BRGGBRACNPR8189
012024021602MILS3       010MILLS       ON      NM   R$  000000000120200000000012120000000001188000000000119500000000011930000000001193000000000119502176000000000000758900000000000907173900000000000000009999123100000010000000000000BRMILSACNOR2124
012024021602MLAS3       010MULTILASER  ON      NM   R$  000000000018900000000001910000000000186000000000018800000000001910000000000190000000000019103132000000000001871200000000000353399000000000000000009999123100000010000000000000BRMLASACNOR9101
012024021602MNPR3       010MINUPAR     ON           R$  000000000197700000000020080000000001977000000000199200000000020080000000001743000000000198400002000000000000000200000000000000398500000000000000009999123100000010000000000000BRMNPRACNOR5122
012024021602MOVI3       010MOVIDA      ON      NM   R$  000000000081500000000008360000000000793000000000080600000000008090000000000807000000000081110267000000000006487000000000005231351500000000000000009999123100000010000000000000BRMOVIACNOR0122
012024021602MRFG3       010MARFRIG     ON      NM   R$  000000000091300000000009200000000000896000000000090400000000009050000000000905000000000090606841000000000003039800000000002750554700000000000000009999123100000010000000000000BRMRFGACNOR0116
012024021602ATOM3       010ATOMPAR     ON           R$  000000000020700000000002070000000000199000000000020000000000001990000000000198000000000019900069000000000000062400000000000012501100000000000000009999123100000010000000000000BRATOMACNOR1106
012024021602AURE3       010AUREN       ON      NM   R$  000000000129700000000013060000000001294000000000130000000000013040000000001301000000000130604693000000000003137500000000004079062900000000000000009999123100000010000000000000BRAUREACNOR9103
012024021602AZEV3       010AZEVEDO     ON           R$  000000000015500000000001550000000000151000000000015200000000001530000000000152000000000015300286000000000000334400000000000050985100000000000000009999123100000010000000000000BRAZEVACNOR0121
012024021602AZEV4       010AZEVEDO     PN           R$  000000000015500000000001550000000000150000000000015100000000001530000000000152000000000015300620000000000001355900000000000204908200000000000000009999123100000010000000000000BRAZEVACNPR7121
012024021602AZUL4       010AZUL        PN      N2   R$  000000000122600000000012590000000001190000000000121800000000012200000000001220000000000122212888000000000013198400000000016078188200000000000000009999123100000010000000000000BRAZULACNPR4102
012024021602CXSE3       010CAIXA SEGURION      NM   R$  000000000137200000000013900000000001368000000000137800000000013830000000001380000000000138419062000000000005849700000000008062891600000000000000009999123100000010000000000000BRCXSEACNOR7105
012024021602CYRE3       010CYRELA REALTON      NM   R$  000000000221700000000022420000000002190000000000220300000000022030000000002198000000000220813482000000000003763700000000008291791000000000000000009999123100000010000000000000BRCYREACNOR7139
012024021602ESTR4       010ESTRELA     PN           R$  000000000038200000000003820000000000375000000000038000000000003750000000000365000000000037500007000000000000002500000000000000951100000000000000009999123100000010000000000000BRESTRACNPR0144
012024021602EUCA3       010EUCATEX     ON      N1   R$  000000000165000000000016650000000001630000000000164800000000016300000000001586000000000163000006000000000000000600000000000000989000000000000000009999123100000010000000000000BREUCAACNOR1157
012024021602EUCA4       010EUCATEX     PN      N1   R$  000000000158100000000016280000000001576000000000160200000000016060000000001606000000000161600240000000000000106200000000000170182900000000000000009999123100000010000000000000BREUCAACNPR8044
012024021602ITSA3       010ITAUSA      ON      N1   R$  000000000104900000000010530000000001040000000000104500000000010430000000001043000000000105200216000000000000081000000000000084699000000000000000009999123100000010000000000000BRITSAACNOR0436
012024021602ITSA4       010ITAUSA      PN      N1   R$  000000000104400000000010510000000001039000000000104600000000010460000000001044000000000104627851000000000018463300000000019316353500000000000000009999123100000010000000000000BRITSAACNPR7436
012024021602MBLY3       010MOBLY       ON      NM   R$  000000000021300000000002190000000000210000000000021600000000002180000000000216000000000021901420000000000000761800000000000164584900000000000000009999123100000010000000000000BRMBLYACNOR5100
012024021602MDIA3       010M.DIASBRANCOON      NM   R$  000000000390500000000039320000000003854000000000389500000000039050000000003896000000000390502865000000000000603900000000002352497700000000000000009999123100000010000000000000BRMDIAACNOR7133
012024021602MDNE3       010MOURA DUBEUXON      NM   R$  000000000107900000000010980000000001057000000000107800000000010980000000001088000000000109801427000000000000252300000000000272112100000000000000009999123100000010000000000000BRMDNEACNOR9100
012024021602MEAL3       010IMC S/A     ON      NM   R$  000000000018000000000001830000000000178000000000018000000000001830000000000182000000000018300280000000000000681600000000000123041500000000000000009999123100000010000000000000BRMEALACNOR9105
012024021602BGIP3       010BANESE      ON           R$  000000000270000000000027050000000002700000000000270200000000027050000000002650000000000270000002000000000000000200000000000000540500000000000000009999123100000010000000000000BRBGIPACNOR1206
012024021602BGIP4       010BANESE      PN           R$  000000000258000000000025800000000002580000000000258000000000025800000000002582000000000264900001000000000000000100000000000000258000000000000000009999123100000010000000000000BRBGIPACNPR8206
012024021602BHIA3       010CASAS BAHIA ON      NM   R$  000000000079700000000008400000000000790000000000081300000000008360000000000835000000000083709513000000000007718000000000006281230000000000000000009999123100000010000000000000BRBHIAACNOR1101
012024021602BPAN4       010BANCO PAN   PN      N1   R$  000000000088200000000009130000000000880000000000090000000000009050000000000901000000000090507745000000000007961300000000007166933400000000000000009999123100000010000000000000BRBPANACNPR1115
012024021602BRAP3       010BRADESPAR   ON      N1   R$  000000000206500000000020990000000002050000000000208400000000020870000000002076000000000208800162000000000000030200000000000062957000000000000000009999123100000010000000000000BRBRAPACNOR5147
012024021602BRAP4       010BRADESPAR   PN      N1   R$  000000000221400000000022490000000002203000000000222600000000022250000000002225000000000223610675000000000006275900000000013971633500000000000000009999123100000010000000000000BRBRAPACNPR2147
012024021602EVEN3       010EVEN        ON      NM   R$  000000000075000000000007660000000000740000000000075400000000007570000000000757000000000076302445000000000000630900000000000476123800000000000000009999123100000010000000000000BREVENACNOR8118
012024021602EZTC3       010EZTEC       ON      NM   R$  000000000149600000000015390000000001477000000000150400000000015360000000001526000000000153710503000000000002536700000000003817712800000000000000009999123100000010000000000000BREZTCACNOR0123
012024021602FLRY3       010FLEURY      ON      NM   R$  000000000159500000000016020000000001574000000000158600000000015880000000001588000000000159308771000000000002175700000000003451512700000000000000009999123100000010000000000000BRFLRYACNOR5137
012024021602IFCM3       010INFRACOMM   ON      NM   R$  000000000013200000000001350000000000131000000000013200000000001340000000000133000000000013402732000000000006010100000000000797755100000000000000009999123100000010000000000000BRIFCMACNOR8101
012024021602IGTI11      010IGUATEMI S.AUNT     N1   R$  000000000232900000000023360000000002282000000000230400000000023110000000002305000000000231310193000000000002176100000000005014767600000000000000009999123100000010000000000000BRIGTICDAM16104
012024021602IGTI3       010IGUATEMI S.AON      N1   R$  000000000028600000000002890000000000283000000000028600000000002890000000000282000000000028900101000000000000080900000000000023212000000000000000009999123100000010000000000000BRIGTIACNOR8104
012024021602IGTI4       010IGUATEMI S.APN      N1   R$  000000000101100000000010110000000001011000000000101100000000010110000000001011000000000109300002000000000000000200000000000000202200000000000000009999123100000010000000000000BRIGTIACNPR5104
012024021602INEP3       010INEPAR      ON           R$  000000000038900000000003890000000000380000000000038200000000003810000000000381000000000038300075000000000000040900000000000015661300000000000000009999123100000010000000000000BRINEPACNOR1143
012024021602FESA3       010FERBASA     ON      N1   R$  000000000153900000000015390000000001539000000000153900000000015390000000001503000000000157600001000000000000000100000000000000153900000000000000009999123100000010000000000000BRFESAACNOR8187
012024021602FESA4       010FERBASA     PN      N1   R$  000000000094200000000009760000000000935000000000096000000000009510000000000951000000000095803339000000000000694700000000000667545500000000000000009999123100000010000000000000BRFESAACNPR5083
012024021602FHER3       010FER HERINGERON      NM   R$  000000000060000000000006050000000000595000000000059700000000005960000000000596000000000059900030000000000000005200000000000003106500000000000000009999123100000010000000000000BRFHERACNOR5103
012024021602FIQE3       010UNIFIQUE    ON  EJ  NM   R$  000000000038200000000003920000000000380000000000038700000000003920000000000388000000000039200545000000000000213100000000000082496100000000000000009999123100000010000000000000BRFIQEACNOR5106
012024021602INEP4       010INEPAR      PN           R$  000000000031500000000003240000000000310000000000031500000000003210000000000311000000000032100162000000000000029400000000000009277200000000000000009999123100000010000000000000BRINEPACNPR8143
012024021602INTB3       010INTELBRAS   ON      NM   R$  000000000197400000000019870000000001933000000000195900000000019680000000001960000000000196902442000000000000626900000000001228384000000000000000009999123100000010000000000000BRINTBACNOR9109
012024021602IRBR3       010IRBBRASIL REON      NM   R$  000000000403100000000040610000000003952000000000400700000000040510000000004045000000000405205607000000000001306300000000005234607200000000000000009999123100000010000000000000BRIRBRACNOR4110
012024021602LJQQ3       010QUERO-QUERO ON      NM   R$  000000000047300000000004810000000000462000000000047200000000004770000000000476000000000048102749000000000001852600000000000874882800000000000000009999123100000010000000000000BRLJQQACNOR5104
012024021602LOGG3       010LOG COM PROPON  ED  NM   R$  000000000204000000000020480000000002001000000000203000000000020450000000002027000000000204500753000000000000100200000000000203453100000000000000009999123100000010000000000000BRLOGGACNOR7107
012024021602LOGN3       010LOG-IN      ON      NM   R$  000000000384300000000038430000000003634000000000371500000000037840000000003691000000000378400149000000000000019500000000000072444800000000000000009999123100000010000000000000BRLOGNACNOR3105
012024021602LPSB3       010LOPES BRASILON      NM   R$  000000000019700000000002000000000000193000000000019500000000001960000000000196000000000019900184000000000000150600000000000029457400000000000000009999123100000010000000000000BRLPSBACNOR0113
012024021602LREN3       010LOJAS RENNERON      NM   R$  000000000146300000000014690000000001432000000000144600000000014400000000001439000000000144015285000000000010531100000000015230906500000000000000009999123100000010000000000000BRLRENACNOR1219
012024021602BAHI3       010BAHEMA      ON      MA   R$  000000000069900000000006990000000000655000000000068900000000006790000000000654000000000067600014000000000000003500000000000002411700000000000000009999123100000010000000000000BRBAHIACNOR1074
012024021602BAZA3       010AMAZONIA    ON           R$  000000000878000000000088910000000008778000000000881700000000088300000000008800000000000886900028000000000000003400000000000029978900000000000000009999123100000010000000000000BRBAZAACNOR0178
012024021602BBAS3       010BRASIL      ON      NM   R$  000000000585800000000058800000000005741000000000578700000000057870000000005780000000000578721066000000000009489500000000054916698500000000000000009999123100000010000000000000BRBBASACNOR3319
012024021602BBSE3       010BBSEGURIDADEON  EDR NM   R$  000000000330300000000033140000000003264000000000327600000000032660000000003266000000000326714680000000000006557400000000021482786200000000000000009999123100000010000000000000BRBBSEACNOR5124
012024021602CLSA3       010CLEARSALE   ON      NM   R$  000000000040000000000004020000000000389000000000039600000000003900000000000390000000000039100934000000000000581700000000000230687500000000000000009999123100000010000000000000BRCLSAACNOR0100
012024021602CLSC4       010CELESC      PN      N2   R$  000000000655100000000066150000000006550000000000655800000000066150000000006511000000000659900013000000000000002900000000000019019100000000000000009999123100000010000000000000BRCLSCACNPR3128
012024021602CMIG3       010CEMIG       ON      N1   R$  000000000150000000000015090000000001500000000000150500000000015090000000001502000000000150900732000000000000149600000000000225195800000000000000009999123100000010000000000000BRCMIGACNOR6239
012024021602CMIG4       010CEMIG       PN      N1   R$  000000000115500000000011720000000001150000000000116200000000011660000000001165000000000116811137000000000012319200000000014319095100000000000000009999123100000010000000000000BRCMIGACNPR3240
012024021602CSRN3       010COSERN      ON           R$  000000000283900000000028400000000002839000000000283900000000028400000000002760000000000299900002000000000000000200000000000000567900000000000000009999123100000010000000000000BRCSRNACNOR0190
012024021602CSUD3       010CSU DIGITAL ON      NM   R$  000000000183600000000018640000000001816000000000184400000000018490000000001835000000000185700608000000000000068700000000000126722600000000000000009999123100000010000000000000BRCSUDACNOR5107
012024021602CTNM4       010COTEMINAS   PN           R$  000000000014200000000001460000000000136000000000014000000000001380000000000138000000000014000149000000000000074000000000000010375600000000000000009999123100000010000000000000BRCTNMACNPR6129
012024021602CTSA3       010SANTANENSE  ON           R$  000000000032500000000003250000000000324000000000032400000000003240000000000320000000000032400003000000000000000300000000000000097400000000000000009999123100000010000000000000BRCTSAACNOR3062
012024021602CTSA4       010SANTANENSE  PN           R$  000000000017200000000001760000000000169000000000017300000000001750000000000175000000000017700230000000000000033200000000000005748300000000000000009999123100000010000000000000BRCTSAACNPR0062
012024021602CURY3       010CURY S/A    ON      NM   R$  000000000180900000000018210000000001785000000000180200000000017980000000001797000000000180603667000000000001218300000000002195929300000000000000009999123100000010000000000000BRCURYACNOR3107
012024021602CVCB3       010CVC BRASIL  ON      NM   R$  000000000031700000000003200000000000312000000000031500000000003150000000000315000000000031605253000000000012034900000000003793220700000000000000009999123100000010000000000000BRCVCBACNOR1115
012024021602B3SA3       010B3          ON      NM   R$  000000000127500000000012790000000001260000000000127000000000012730000000001271000000000127435369000000000066926100000000084997103100000000000000009999123100000010000000000000BRB3SAACNOR6130
012024021602CCRO3       010CCR SA      ON      NM   R$  000000000136600000000013710000000001324000000000133800000000013270000000001326000000000133113160000000000006719900000000008991755200000000000000009999123100000010000000000000BRCCROACNOR2144
012024021602CIEL3       010CIELO       ON      NM   R$  000000000052700000000005310000000000525000000000052700000000005280000000000527000000000052913645000000000041786100000000022047103400000000000000009999123100000010000000000000BRCIELACNOR3156
012024021602CSNA3       010SID NACIONALON           R$  000000000186300000000019280000000001863000000000189900000000019040000000001904000000000190709867000000000007848700000000014911271600000000000000009999123100000010000000000000BRCSNAACNOR6260
012024021602HBOR3       010HELBOR      ON      NM   R$  000000000026900000000002690000000000263000000000026400000000002640000000000264000000000026500610000000000000651500000000000172560400000000000000009999123100000010000000000000BRHBORACNOR3117
012024021602HBRE3       010HBR REALTY  ON      NM   R$  000000000047400000000004890000000000473000000000047900000000004820000000000482000000000048401035000000000000445100000000000213487600000000000000009999123100000010000000000000BRHBREACNOR4100
012024021602HBSA3       010HIDROVIAS   ON      NM   R$  000000000035600000000003590000000000348000000000035500000000003590000000000356000000000035908680000000000005831000000000002071523900000000000000009999123100000010000000000000BRHBSAACNOR0100
012024021602KLBN11      010KLABIN S/A  UNT ED  N2   R$  000000000215200000000021830000000002145000000000216800000000021650000000002164000000000216909126000000000002590400000000005617973700000000000000009999123100000010000000000000BRKLBNCDAM18140
012024021602KLBN3       010KLABIN S/A  ON  ED  N2   R$  000000000042800000000004350000000000428000000000043200000000004340000000000431000000000043400966000000000000393500000000000170176100000000000000009999123100000010000000000000BRKLBNACNOR2168
012024021602KLBN4       010KLABIN S/A  PN  ED  N2   R$  000000000042800000000004360000000000428000000000043300000000004320000000000432000000000043302647000000000001928400000000000835805300000000000000009999123100000010000000000000BRKLBNACNPR9168
012024021602KRSA3       010KORA SAUDE  ON      NM   R$  000000000009400000000000970000000000091000000000009300000000000910000000000091000000000009400430000000000000144100000000000013490300000000000000009999123100000010000000000000BRKRSAACNOR0100
012024021602LAND3       010TERRASANTAPAON      NM   R$  000000000151600000000015720000000001515000000000154100000000015360000000001535000000000153700141000000000000033600000000000051803600000000000000009999123100000010000000000000BRLANDACNOR9102
012024021602LAVV3       010LAVVI       ON      NM   R$  000000000076000000000007760000000000748000000000076000000000007760000000000769000000000077701727000000000000471500000000000358637900000000000000009999123100000010000000000000BRLAVVACNOR4110
012024021602RSUL4       010RIOSULENSE  PN           R$  000000000775900000000078250000000007647000000000773800000000078250000000007600000000000782600015000000000000001500000000000011607200000000000000009999123100000010000000000000BRRSULACNPR3113
012024021602TRIS3       010TRISUL      ON      NM   R$  000000000042700000000004400000000000426000000000043300000000004340000000000434000000000043900909000000000000383700000000000166437000000000000000009999123100000010000000000000BRTRISACNOR4116
012024021602TRPL3       010TRAN PAULISTON      N1   R$  000000000326400000000032640000000003150000000000319100000000031500000000003150000000000321700027000000000000003300000000000010531500000000000000009999123100000010000000000000BRTRPLACNOR4185
012024021602TRPL4       010TRAN PAULISTPN      N1   R$  000000000266000000000026620000000002611000000000263600000000026330000000002632000000000263807019000000000001321600000000003484319600000000000000009999123100000010000000000000BRTRPLACNPR1185
012024021602TTEN3       0103TENTOS     ON      NM   R$  000000000097600000000009860000000000952000000000096400000000009630000000000962000000000096306748000000000001663200000000001604278700000000000000009999123100000010000000000000BRTTENACNOR0102
012024021602TUPY3       010TUPY        ON      NM   R$  000000000250900000000025280000000002489000000000251200000000025260000000002511000000000252602073000000000000287300000000000721921700000000000000009999123100000010000000000000BRTUPYACNOR1183
012024021602UCAS3       010UNICASA     ON      NM   R$  000000000027300000000002750000000000263000000000026400000000002630000000000263000000000026800067000000000000041300000000000010920800000000000000009999123100000010000000000000BRUCASACNOR1113
012024021602UGPA3       010ULTRAPAR    ON      NM   R$  000000000296100000000030000000000002922000000000297700000000029830000000002979000000000298816042000000000004431000000000013192788000000000000000009999123100000010000000000000BRUGPAACNOR8154
012024021602BSLI3       010BRB BANCO   ON           R$  000000000127600000000012760000000001261000000000127200000000012760000000001260000000000127600006000000000000000800000000000001017800000000000000009999123100000010000000000000BRBSLIACNOR5192
012024021602BSLI4       010BRB BANCO   PN           R$  000000000113100000000011660000000001125000000000114700000000011660000000001132000000000116500006000000000000000600000000000000688300000000000000009999123100000010000000000000BRBSLIACNPR2192
012024021602ZAMP3       010ZAMP S.A.   ON           R$  000000000044900000000004520000000000399000000000041700000000004080000000000408000000000040905723000000000003204400000000001339028900000000000000009999123100000010000000000000BRZAMPACNOR5100
012024021602PCAR3       010P.ACUCAR-CBDON      NM   R$  000000000038700000000003950000000000384000000000038900000000003900000000000390000000000039102502000000000002397800000000000933348800000000000000009999123100000010000000000000BRPCARACNOR3167
012024021602PDGR3       010PDG REALT   ON      NM   R$  000000000003500000000000360000000000034000000000003400000000000340000000000034000000000003500237000000000000598200000000000020668200000000000000009999123100000010000000000000BRPDGRACNOR8118
012024021602PDTC3       010PADTEC      ON      NM   R$  000000000029800000000003070000000000296000000000030000000000003000000000000300000000000030200098000000000000030400000000000009139700000000000000009999123100000010000000000000BRPDTCACNOR3100
012024021602PETR3       010PETROBRAS   ON      N2   R$  000000000433000000000044310000000004324000000000441000000000044300000000004421000000000443023501000000000012797400000000056442831800000000000000009999123100000010000000000000BRPETRACNOR9202
012024021602CEAB3       010CEA MODAS   ON      NM   R$  000000000080000000000008120000000000781000000000080000000000008100000000000809000000000081004677000000000002563200000000002050813800000000000000009999123100000010000000000000BRCEABACNOR1101
012024021602CEBR3       010CEB         ON           R$  000000000195300000000020370000000001953000000000199200000000020360000000001990000000000203600020000000000000002600000000000005181300000000000000009999123100000010000000000000BRCEBRACNOR5124
012024021602CEBR5       010CEB         PNA          R$  000000000179100000000018800000000001791000000000185000000000018550000000001856000000000188000018000000000000006400000000000011843100000000000000009999123100000010000000000000BRCEBRACNPA8123
012024021602CEBR6       010CEB         PNB          R$  000000000223200000000023360000000002230000000000227400000000023150000000002310000000000232100035000000000000004000000000000009099400000000000000009999123100000010000000000000BRCEBRACNPB6123
012024021602CEDO3       010CEDRO       ON      N1   R$  000000000248400000000026450000000002484000000000248900000000024840000000002484000000000259400010000000000000005300000000000013192900000000000000009999123100000010000000000000BRCEDOACNOR8096
012024021602CEDO4       010CEDRO       PN      N1   R$  000000000264000000000026400000000002554000000000257400000000025540000000002554000000000260000011000000000000003200000000000008237200000000000000009999123100000010000000000000BRCEDOACNPR5128
012024021602CEEB3       010COELBA      ON           R$  000000000398700000000039870000000003987000000000398700000000039870000000003940000000000398600001000000000000000100000000000000398700000000000000009999123100000010000000000000BRCEEBACNOR3196
012024021602CGAS3       010COMGAS      ON           R$  000000001018700000000102010000000010026000000001007300000000101000000000009500000000001039000015000000000000001900000000000019139300000000000000009999123100000010000000000000BRCGASACNOR0162
012024021602CGAS5       010COMGAS      PNA          R$  000000001125100000000113000000000011250000000001128400000000112500000000011201000000001154100016000000000000001900000000000021440000000000000000009999123100000010000000000000BRCGASACNPA3159
012024021602CGRA3       010GRAZZIOTIN  ON           R$  000000000253400000000025340000000002475000000000249900000000024750000000002479000000000254200008000000000000001200000000000002999800000000000000009999123100000010000000000000BRCGRAACNOR2081
012024021602CGRA4       010GRAZZIOTIN  PN           R$  000000000254000000000025500000000002518000000000253600000000025500000000002545000000000255900038000000000000006400000000000016231900000000000000009999123100000010000000000000BRCGRAACNPR9081
012024021602CAMB3       010CAMBUCI     ON           R$  000000000108700000000011220000000001083000000000109800000000011200000000001104000000000112100143000000000000026800000000000029452400000000000000009999123100000010000000000000BRCAMBACNOR4127
012024021602CAML3       010CAMIL       ON      NM   R$  000000000088400000000008910000000000862000000000087800000000008830000000000875000000000088302790000000000000697800000000000613337200000000000000009999123100000010000000000000BRCAMLACNOR3126
012024021602CASH3       010MELIUZ      ON      NM   R$  000000000071600000000007230000000000705000000000071300000000007050000000000705000000000070803090000000000001616300000000001153264200000000000000009999123100000010000000000000BRCASHACNOR8105
012024021602CBAV3       010CBA         ON      NM   R$  000000000037900000000003940000000000378000000000038700000000003880000000000387000000000038906913000000000004541500000000001758891100000000000000009999123100000010000000000000BRCBAVACNOR5104
012024021602CRIV4       010ALFA FINANC PN           R$  000000000059800000000006210000000000594000000000060600000000006200000000000596000000000062000004000000000000000500000000000000303100000000000000009999123100000010000000000000BRCRIVACNPR1211
012024021602CRPG5       010CRISTAL     PNA          R$  000000000362900000000036290000000003600000000000360900000000036160000000003600000000000361500009000000000000000900000000000003248600000000000000009999123100000010000000000000BRCRPGACNPA3118
012024021602CRPG6       010CRISTAL     PNB          R$  000000000364900000000036490000000003649000000000364900000000036490000000003581000000000362500001000000000000000100000000000000364900000000000000009999123100000010000000000000BRCRPGACNPB1118
012024021602CSAN3       010COSAN       ON      NM   R$  000000000186500000000018990000000001853000000000188100000000018940000000001891000000000189414542000000000006291500000000011840246200000000000000009999123100000010000000000000BRCSANACNOR6124
012024021602PETR4       010PETROBRAS   PN      N2   R$  000000000420900000000042890000000004206000000000426400000000042690000000004267000000000426953689000000000037186100000000158587682000000000000000009999123100000010000000000000BRPETRACNPR6209
012024021602PETZ3       010PETZ        ON      NM   R$  000000000035500000000003600000000000346000000000035100000000003550000000000353000000000035507396000000000013297100000000004676316700000000000000009999123100000010000000000000BRPETZACNOR2109
012024021602ROMI3       010ROMI        ON      NM   R$  000000000123000000000012420000000001224000000000123200000000012420000000001238000000000124201132000000000000212000000000000261324500000000000000009999123100000010000000000000BRROMIACNOR8192
012024021602HAGA3       010HAGA S/A    ON           R$  000000000024300000000002430000000000240000000000024100000000002400000000000242000000000024900004000000000000001000000000000000241400000000000000009999123100000010000000000000BRHAGAACNOR7103
012024021602HAGA4       010HAGA S/A    PN           R$  000000000010400000000001060000000000103000000000010300000000001050000000000105000000000010600012000000000000004200000000000000435600000000000000009999123100000010000000000000BRHAGAACNPR4103
012024021602HAPV3       010HAPVIDA     ON      NM   R$  000000000035000000000003550000000000341000000000034600000000003480000000000347000000000034932177000000000063737000000000022112620000000000000000009999123100000010000000000000BRHAPVACNOR4113
012024021602MELK3       010MELNICK     ON      NM   R$  000000000044500000000004450000000000435000000000044100000000004450000000000441000000000044500275000000000000170500000000000075243300000000000000009999123100000010000000000000BRMELKACNOR8110
012024021602MGEL4       010MANGELS INDLPN           R$  000000000135100000000013510000000001331000000000133700000000013350000000001339000000000136000006000000000000001600000000000002140200000000000000009999123100000010000000000000BRMGELACNPR3147
012024021602MGLU3       010MAGAZ LUIZA ON      NM   R$  000000000020700000000002090000000000202000000000020500000000002040000000000204000000000020519739000000000108019800000000022188633900000000000000009999123100000010000000000000BRMGLUACNOR2123
012024021602RCSL3       010RECRUSUL    ON           R$  000000000016700000000001750000000000163000000000016800000000001740000000000173000000000017404659000000000004700200000000000790159800000000000000009999123100000010000000000000BRRCSLACNOR4133
012024021602RCSL4       010RECRUSUL    PN           R$  000000000007000000000000720000000000070000000000007000000000000710000000000070000000000007100865000000000001062800000000000075358900000000000000009999123100000010000000000000BRRCSLACNPR1133
012024021602RDNI3       010RNI         ON      NM   R$  000000000043500000000004430000000000431000000000043400000000004310000000000430000000000044300009000000000000001000000000000000434600000000000000009999123100000010000000000000BRRDNIACNOR9116
012024021602RDOR3       010REDE D OR   ON      NM   R$  000000000266000000000026820000000002562000000000261400000000026420000000002642000000000264811140000000000003450300000000009021674200000000000000009999123100000010000000000000BRRDORACNOR8111
012024021602RECV3       010PETRORECSA  ON      NM   R$  000000000225400000000023630000000002254000000000232100000000023350000000002334000000000234507911000000000002278300000000005288111800000000000000009999123100000010000000000000BRRECVACNOR3105
012024021602REDE3       010REDE ENERGIAON           R$  000000000068800000000007000000000000688000000000069700000000006910000000000691000000000069700009000000000000001200000000000000836400000000000000009999123100000010000000000000BRREDEACNOR7126
012024021602RENT3       010LOCALIZA    ON      NM   R$  000000000523300000000052560000000005132000000000518200000000051860000000005183000000000518618258000000000006151000000000031879427600000000000000009999123100000010000000000000BRRENTACNOR4194
012024021602EALT3       010ACO ALTONA  ON           R$  000000000093100000000009310000000000931000000000093100000000009310000000000900000000000097000002000000000000000500000000000000465500000000000000009999123100000010000000000000BREALTACNOR4137
012024021602EALT4       010ACO ALTONA  PN           R$  000000000099100000000010000000000000967000000000098900000000010000000000000982000000000100000051000000000000014500000000000014347700000000000000009999123100000010000000000000BREALTACNPR1137
012024021602ECOR3       010ECORODOVIAS ON      NM   R$  000000000092200000000009300000000000901000000000091000000000009010000000000900000000000090203589000000000001665500000000001515809300000000000000009999123100000010000000000000BRECORACNOR8119
012024021602SYNE3       010SYN PROP TECON      NM   R$  000000000043600000000004500000000000435000000000044400000000004490000000000446000000000044900265000000000000094100000000000041872600000000000000009999123100000010000000000000BRSYNEACNOR2102
012024021602TAEE11      010TAESA       UNT     N2   R$  000000000359000000000036050000000003555000000000356600000000035650000000003565000000000357607439000000000001756800000000006265389800000000000000009999123100000010000000000000BRTAEECDAM10145
012024021602TAEE3       010TAESA       ON      N2   R$  000000000119000000000011950000000001178000000000118100000000011830000000001181000000000118601394000000000000189200000000000223576900000000000000009999123100000010000000000000BRTAEEACNOR9145
012024021602TAEE4       010TAESA       PN      N2   R$  000000000120200000000012080000000001190000000000119300000000011970000000001193000000000119701613000000000000357200000000000426309600000000000000009999123100000010000000000000BRTAEEACNPR6145
012024021602VALE3       010VALE        ON      NM   R$  000000000664900000000068320000000006634000000000675100000000067680000000006765000000000676862651000000000040732600000000275017629500000000000000009999123100000010000000000000BRVALEACNOR0209
012024021602WEGE3       010WEG         ON      NM   R$  000000000334000000000033570000000003315000000000333900000000033400000000003339000000000334911341000000000006428400000000021468788300000000000000009999123100000010000000000000BRWEGEACNOR0220
012024021602RAIZ4       010RAIZEN      PN      N2   R$  000000000038400000000003920000000000380000000000038500000000003890000000000389000000000039014802000000000010342200000000003989348000000000000000009999123100000010000000000000BRRAIZACNPR6109
012024021602RANI3       010IRANI       ON      NM   R$  000000000101400000000010300000000001010000000000102200000000010220000000001021000000000102802046000000000000575700000000000588796400000000000000009999123100000010000000000000BRRANIACNOR5069
012024021602RAPT3       010RANDON PART ON      N1   R$  000000000104400000000010700000000001035000000000105600000000010620000000001054000000000106400059000000000000009800000000000010353300000000000000009999123100000010000000000000BRRAPTACNOR7162
012024021602RAPT4       010RANDON PART PN      N1   R$  000000000106200000000010800000000001047000000000105900000000010720000000001068000000000107207673000000000001872600000000001984190500000000000000009999123100000010000000000000BRRAPTACNPR4162
012024021602SRNA3       010SERENA      ON      NM   R$  000000000099700000000010100000000000985000000000100000000000010040000000000994000000000100401613000000000000361400000000000361684400000000000000009999123100000010000000000000BRSRNAACNOR4100
012024021602STBP3       010SANTOS BRP  ON      NM   R$  000000000112500000000011270000000001082000000000110100000000010820000000001082000000000108510892000000000004767600000000005249545300000000000000009999123100000010000000000000BRSTBPACNOR3128
012024021602SUZB3       010SUZANO S.A. ON      NM   R$  000000000524300000000053480000000005211000000000530200000000053050000000005300000000000532014135000000000003225000000000017100739200000000000000009999123100000010000000000000BRSUZBACNOR0129
012024021602VITT3       010VITTIA      ON      NM   R$  000000000079200000000008220000000000777000000000081300000000008170000000000817000000000082101070000000000000745300000000000606365800000000000000009999123100000010000000000000BRVITTACNOR4106
012024021602VIVA3       010VIVARA S.A. ON      NM   R$  000000000322100000000032210000000003167000000000319500000000032050000000003191000000000320504635000000000001226800000000003920811200000000000000009999123100000010000000000000BRVIVAACNOR0106
012024021602VIVR3       010VIVER       ON  ES  NM   R$  000000000039500000000003960000000000385000000000039000000000003880000000000387000000000038800125000000000000058000000000000022647500000000000000009999123100000010000000000000BRVIVRACNOR4122
012024021602VIVT3       010TELEF BRASILON           R$  000000000542000000000054280000000005261000000000529300000000052660000000005263000000000527008891000000000002341400000000012394835300000000000000009999123100000010000000000000BRVIVTACNOR0178
012024021602VLID3       010VALID       ON      NM   R$  000000000191500000000019740000000001890000000000194000000000019590000000001954000000000196002117000000000000416500000000000808084600000000000000009999123100000010000000000000BRVLIDACNOR5141
012024021602VSTE3       010VESTE       ON      NM   R$  000000000166900000000016800000000001640000000000165800000000016400000000001640000000000167000019000000000000003600000000000005969100000000000000009999123100000010000000000000BRVSTEACNOR5102
012024021602VULC3       010VULCABRAS   ON      NM   R$  000000000178100000000018220000000001771000000000180000000000018130000000001810000000000181304286000000000000838100000000001508585300000000000000009999123100000010000000000000BRVULCACNOR2157
012024021602VVEO3       010VIVEO       ON      NM   R$  000000000079900000000008180000000000776000000000079500000000007950000000000788000000000079504824000000000001856800000000001476756700000000000000009999123100000010000000000000BRVVEOACNOR0103
012024021602MWET4       010WETZEL S/A  PN           R$  000000000056200000000005620000000000562000000000056200000000005620000000000562000000000058400001000000000000000100000000000000056200000000000000009999123100000010000000000000BRMWETACNPR3118
012024021602MYPK3       010IOCHP-MAXIONON      NM   R$  000000000119800000000012260000000001185000000000120600000000012250000000001225000000000122604737000000000001125700000000001358277300000000000000009999123100000010000000000000BRMYPKACNOR7153
012024021602DASA3       010DASA        ON      NM   R$  000000000071700000000007370000000000716000000000072600000000007250000000000724000000000072500984000000000000185600000000000134803300000000000000009999123100000010000000000000BRDASAACNOR1122
012024021602DESK3       010DESKTOP     ON      NM   R$  000000000130000000000013140000000001252000000000128300000000013090000000001305000000000131001039000000000000486900000000000624943700000000000000009999123100000010000000000000BRDESKACNOR2103
012024021602DEXP3       010DEXXOS PAR  ON      N1   R$  000000000121000000000012300000000001180000000000119600000000012110000000001211000000000122400258000000000000052700000000000063030100000000000000009999123100000010000000000000BRDEXPACNOR1104
012024021602DIRR3       010DIRECIONAL  ON      NM   R$  000000000220000000000022140000000002166000000000219500000000022100000000002210000000000221504848000000000001147400000000002519605700000000000000009999123100000010000000000000BRDIRRACNOR0117
012024021602DMVF3       010D1000VFARMA ON      NM   R$  000000000059600000000005960000000000573000000000057900000000005750000000000575000000000058200310000000000000073300000000000042499400000000000000009999123100000010000000000000BRDMVFACNOR9100
012024021602DOHL4       010DOHLER      PN           R$  000000000050100000000005020000000000497000000000050000000000004970000000000486000000000049900003000000000000000500000000000000250200000000000000009999123100000010000000000000BRDOHLACNPR9066
012024021602DOTZ3       010DOTZ SA     ON      NM   R$  000000000070100000000007400000000000701000000000072300000000007380000000000715000000000073900020000000000000005700000000000004123500000000000000009999123100000010000000000000BRDOTZACNOR7101
012024021602DXCO3       010DEXCO       ON      NM   R$  000000000073600000000007500000000000735000000000074200000000007420000000000741000000000074207651000000000003406000000000002527480700000000000000009999123100000010000000000000BRDXCOACNOR8104
012024021602SNSY3       010SANSUY      ON           R$  000000000104500000000012200000000001045000000000111700000000011000000000001100000000000114700063000000000000014800000000000016532300000000000000009999123100000010000000000000BRSNSYACNOR2113
012024021602SNSY5       010SANSUY      PNA          R$  000000000052400000000005240000000000481000000000050500000000005180000000000485000000000051900016000000000000002100000000000001061700000000000000009999123100000010000000000000BRSNSYACNPA5111
012024021602SOJA3       010BOA SAFRA   ON      NM   R$  000000000151500000000015840000000001491000000000155200000000015570000000001557000000000158001290000000000000240400000000000373295300000000000000009999123100000010000000000000BRSOJAACNOR9105
012024021602SOMA3       010GRUPO SOMA  ON      NM   R$  000000000070000000000007100000000000685000000000069500000000007090000000000709000000000071010095000000000013397700000000009324290400000000000000009999123100000010000000000000BRSOMAACNOR3102
012024021602VAMO3       010VAMOS       ON      NM   R$  000000000079800000000008270000000000784000000000080300000000008270000000000818000000000082710804000000000008081700000000006492337300000000000000009999123100000010000000000000BRVAMOACNOR7105
012024021602VBBR3       010VIBRA       ON      NM   R$  000000000239000000000024570000000002369000000000243000000000024260000000002420000000000242724517000000000008623000000000020957458600000000000000009999123100000010000000000000BRVBBRACNOR1106
012024021602PRNR3       010PRINER      ON      NM   R$  000000000109900000000011060000000001091000000000109600000000010980000000001091000000000109900719000000000000215900000000000236657600000000000000009999123100000010000000000000BRPRNRACNOR4108
012024021602PSSA3       010PORTO SEGUROON      NM   R$  000000000261600000000026400000000002574000000000260300000000026120000000002612000000000261608923000000000002537200000000006604398900000000000000009999123100000010000000000000BRPSSAACNOR7153
012024021602PTBL3       010PORTOBELLO  ON      NM   R$  000000000058700000000005900000000000572000000000058100000000005850000000000584000000000058902215000000000000463600000000000269814100000000000000009999123100000010000000000000BRPTBLACNOR8132
012024021602PTNT3       010PETTENATI   ON           R$  000000000119400000000012000000000001194000000000119700000000012000000000001142000000000120000004000000000000000400000000000000478900000000000000009999123100000010000000000000BRPTNTACNOR6042
012024021602PTNT4       010PETTENATI   PN           R$  000000000076300000000007800000000000750000000000076000000000007700000000000755000000000077000105000000000000047100000000000035842400000000000000009999123100000010000000000000BRPTNTACNPR3047
012024021602LUPA3       010LUPATECH    ON      NM   R$  000000000018300000000001890000000000182000000000018500000000001890000000000188000000000018900274000000000000128700000000000023931300000000000000009999123100000010000000000000BRLUPAACNOR8112
012024021602LUXM4       010TREVISA     PN           R$  000000000158900000000015890000000001589000000000158900000000015890000000000801000000000158900001000000000000000100000000000000158900000000000000009999123100000010000000000000BRLUXMACNPR4051
012024021602LVTC3       010WDC NETWORKSON      NM   R$  000000000038500000000003900000000000376000000000038100000000003890000000000381000000000039100070000000000000023600000000000009001200000000000000009999123100000010000000000000BRLVTCACNOR4102
012024021602LWSA3       010LWSA        ON      NM   R$  000000000053300000000005520000000000531000000000054200000000005420000000000542000000000054309616000000000008290600000000004496432300000000000000009999123100000010000000000000BRLWSAACNOR8103
012024021602QUAL3       010QUALICORP   ON      NM   R$  000000000020400000000002150000000000202000000000020800000000002140000000000214000000000021506978000000000008596400000000001792568100000000000000009999123100000010000000000000BRQUALACNOR6119
012024021602SGPS3       010SPRINGS     ON      NM   R$  000000000010300000000001030000000000099000000000010000000000001010000000000101000000000010200376000000000000570800000000000057617200000000000000009999123100000010000000000000BRSGPSACNOR4104
012024021602SHOW3       010TIME FOR FUNON      NM   R$  000000000020700000000002070000000000200000000000020200000000002030000000000201000000000020300280000000000000351700000000000071355500000000000000009999123100000010000000000000BRSHOWACNOR7105
012024021602SHUL4       010SCHULZ      PN           R$  000000000063800000000006490000000000633000000000064100000000006430000000000642000000000064300883000000000000233500000000000149675800000000000000009999123100000010000000000000BRSHULACNPR4154
012024021602SIMH3       010SIMPAR      ON      NM   R$  000000000073900000000007450000000000718000000000072900000000007430000000000739000000000074308059000000000004542600000000003315788600000000000000009999123100000010000000000000BRSIMHACNOR0107
012024021602SLCE3       010SLC AGRICOLAON      NM   R$  000000000189100000000019740000000001873000000000194700000000019500000000001950000000000195716157000000000006836100000000013310991600000000000000009999123100000010000000000000BRSLCEACNOR2124
012024021602MTRE3       010MITRE REALTYON      NM   R$  000000000048600000000004920000000000473000000000048100000000004870000000000485000000000048803877000000000001271900000000000612542900000000000000009999123100000010000000000000BRMTREACNOR6109
012024021602MTSA4       010METISA      PN           R$  000000000480000000000048230000000004798000000000481600000000047980000000004767000000000484400006000000000000000700000000000003371300000000000000009999123100000010000000000000BRMTSAACNPR9071
012024021602MULT3       010MULTIPLAN   ON      N2   R$  000000000258300000000025900000000002535000000000256300000000025900000000002576000000000259028043000000000006779100000000017375614100000000000000009999123100000010000000000000BRMULTACNOR5137
012024021602SBFG3       010GRUPO SBF   ON      NM   R$  000000000117100000000011860000000001120000000000115100000000011760000000001170000000000117710646000000000004003200000000004608268600000000000000009999123100000010000000000000BRSBFGACNOR1102
012024021602SBSP3       010SABESP      ON      NM   R$  000000000806700000000081930000000007982000000000812400000000081440000000008144000000000815013103000000000002301100000000018694368400000000000000009999123100000010000000000000BRSBSPACNOR5160
012024021602SCAR3       010SAO CARLOS  ON      NM   R$  000000000271800000000027180000000002718000000000271800000000027180000000002681000000000271900003000000000000000400000000000001087200000000000000009999123100000010000000000000BRSCARACNOR7130
012024021602SEER3       010SER EDUCA   ON      NM   R$  000000000059100000000006090000000000551000000000057200000000005600000000000558000000000056007466000000000003523800000000002017307600000000000000009999123100000010000000000000BRSEERACNOR5119
012024021602SEQL3       010SEQUOIA LOG ON      NM   R$  000000000004800000000000510000000000047000000000004900000000000490000000000049000000000005003322000000000009531100000000000467805300000000000000009999123100000010000000000000BRSEQLACNOR2101
012024021602LEVE3       010METAL LEVE  ON      NM   R$  000000000331500000000033710000000003273000000000332700000000033450000000003345000000000334701803000000000000360200000000001198431400000000000000009999123100000010000000000000BRLEVEACNOR2196
012024021602MRVE3       010MRV         ON      NM   R$  000000000071000000000007380000000000708000000000072500000000007300000000000730000000000073229432000000000021921000000000015902450500000000000000009999123100000010000000000000BRMRVEACNOR2126
012024021602PFRM3       010PROFARMA    ON      NM   R$  000000000046100000000004800000000000454000000000047000000000004800000000000472000000000048000463000000000000110800000000000052121700000000000000009999123100000010000000000000BRPFRMACNOR1116
012024021602PGMN3       010PAGUE MENOS ON      NM   R$  000000000028400000000002910000000000284000000000028600000000002910000000000289000000000029103560000000000001580500000000000453249700000000000000009999123100000010000000000000BRPGMNACNOR8103
012024021602PINE3       010PINE        ON      N2   R$  000000000044900000000004490000000000449000000000044900000000004490000000000520000000000044900003000000000000000400000000000000179600000000000000009999123100000010000000000000BRPINEACNOR1148
012024021602PINE4       010PINE        PN      N2   R$  000000000041900000000004430000000000419000000000043300000000004430000000000442000000000044300529000000000000363000000000000157261000000000000000009999123100000010000000000000BRPINEACNPR8148
012024021602PLAS3       010PLASCAR PARTON           R$  000000000070000000000007000000000000700000000000070000000000007000000000000696000000000073900002000000000000000300000000000000210000000000000000009999123100000010000000000000BRPLASACNOR2106
012024021602PLPL3       010PLANOEPLANO ON      NM   R$  000000000115300000000012200000000001147000000000119700000000012100000000001209000000000121003376000000000000966100000000001156437400000000000000009999123100000010000000000000BRPLPLACNOR5104
012024021602PNVL3       010DIMED       ON      NM   R$  000000000112100000000011350000000001112000000000112500000000011350000000001135000000000113601060000000000000199800000000000224971000000000000000009999123100000010000000000000BRPNVLACNOR9205
012024021602POMO3       010MARCOPOLO   ON      N2   R$  000000000064500000000006500000000000633000000000064400000000006420000000000638000000000064201412000000000000254500000000000163972300000000000000009999123100000010000000000000BRPOMOACNOR0095
012024021602POMO4       010MARCOPOLO   PN      N2   R$  000000000082900000000008370000000000820000000000083000000000008280000000000827000000000082808521000000000004084400000000003393835800000000000000009999123100000010000000000000BRPOMOACNPR7095
012024021602PORT3       010WILSON SONS ON      NM   R$  000000000169000000000016920000000001668000000000167900000000016840000000001675000000000168400713000000000000316000000000000530866400000000000000009999123100000010000000000000BRPORTACNOR8106
012024021602POSI3       010POSITIVO TECON      NM   R$  000000000072800000000007330000000000717000000000072000000000007170000000000717000000000071901681000000000000600300000000000432449000000000000000009999123100000010000000000000BRPOSIACNOR9115
012024021602PRIO3       010PETRORIO    ON      NM   R$  000000000445700000000045700000000004437000000000452700000000045400000000004535000000000454029582000000000009044900000000040951786000000000000000009999123100000010000000000000BRPRIOACNOR1106
012024021602SANB11      010SANTANDER BRUNT          R$  000000000284800000000029230000000002848000000000290500000000029050000000002901000000000290706119000000000001646200000000004782463100000000000000009999123100000010000000000000BRSANBCDAM13163
012024021602SANB3       010SANTANDER BRON           R$  000000000133600000000013750000000001336000000000136000000000013730000000001365000000000137500655000000000000078800000000000107205100000000000000009999123100000010000000000000BRSANBACNOR8170
012024021602SANB4       010SANTANDER BRPN           R$  000000000150700000000015460000000001507000000000153400000000015410000000001535000000000154100492000000000000077100000000000118306200000000000000009999123100000010000000000000BRSANBACNPR5170
012024021602SAPR11      010SANEPAR     UNT     N2   R$  000000000263300000000026840000000002606000000000265800000000026720000000002670000000000267203625000000000000752200000000001999943900000000000000009999123100000010000000000000BRSAPRCDAM13117
012024021602NEOE3       010NEOENERGIA  ON      NM   R$  000000000207300000000021600000000002073000000000213100000000021180000000002117000000000213607543000000000001659700000000003536903500000000000000009999123100000010000000000000BRNEOEACNOR3121
012024021602NGRD3       010NEOGRID     ON      NM   R$  000000000010700000000001090000000000106000000000010700000000001080000000000107000000000010800345000000000000445300000000000047701500000000000000009999123100000010000000000000BRNGRDACNOR3103
012024021602NINJ3       010GETNINJAS   ON      NM   R$  000000000050600000000005060000000000504000000000050400000000005050000000000504000000000050500036000000000000010100000000000005093400000000000000009999123100000010000000000000BRNINJACNOR5101
012024021602NORD3       010NORDON MET  ON           R$  000000000127000000000012700000000001132000000000117800000000011770000000001176000000000129300021000000000000002400000000000002827200000000000000009999123100000010000000000000BRNORDACNOR7135
012024021602NTCO3       010GRUPO NATURAON      NM   R$  000000000163500000000016460000000001607000000000163100000000016320000000001631000000000164115681000000000007850600000000012806097000000000000000009999123100000010000000000000BRNTCOACNOR5104
012024021602RADL3       010RAIADROGASILON      NM   R$  000000000256800000000025680000000002506000000000252300000000025240000000002518000000000252415865000000000004804800000000012122685100000000000000009999123100000010000000000000BRRADLACNOR0154
012024021602RAIL3       010RUMO S.A.   ON      NM   R$  000000000239400000000023940000000002302000000000233400000000023430000000002340000000000234623515000000000014352100000000033501814500000000000000009999123100000010000000000000BRRAILACNOR9104
012024021602SMFT3       010SMART FIT   ON      NM   R$  000000000246800000000024900000000002423000000000244200000000024400000000002440000000000244104956000000000001155500000000002822848600000000000000009999123100000010000000000000BRSMFTACNOR1111
012024021602SMTO3       010SAO MARTINHOON      NM   R$  000000000261200000000026350000000002571000000000259400000000025900000000002590000000000259211313000000000002554700000000006628927500000000000000009999123100000010000000000000BRSMTOACNOR3125
012024021602SAPR3       010SANEPAR     ON      N2   R$  000000000050300000000005120000000000499000000000050600000000005100000000000508000000000051000651000000000000223100000000000113038400000000000000009999123100000010000000000000BRSAPRACNOR9158
012024021602SAPR4       010SANEPAR     PN      N2   R$  000000000053100000000005400000000000523000000000053400000000005370000000000537000000000053802572000000000002757200000000001474654800000000000000009999123100000010000000000000BRSAPRACNPR6158
012024021602UNIP3       010UNIPAR      ON           R$  000000000638400000000064920000000006350000000000643400000000064250000000006353000000000642700027000000000000003100000000000019945700000000000000009999123100000010000000000000BRUNIPACNOR7204
012024021602UNIP6       010UNIPAR      PNB          R$  000000000679400000000068680000000006740000000000681700000000068270000000006812000000000682700604000000000000098800000000000673595600000000000000009999123100000010000000000000BRUNIPACNPB8204
012024021602USIM3       010USIMINAS    ON      N1   R$  000000000095500000000009950000000000952000000000098100000000009950000000000975000000000099703184000000000001495500000000001467931200000000000000009999123100000010000000000000BRUSIMACNOR3166
012024021602USIM5       010USIMINAS    PNA     N1   R$  000000000099000000000010290000000000983000000000100700000000010110000000001010000000000101125161000000000020479700000000020642005400000000000000009999123100000010000000000000BRUSIMACNPA6168
012024021602AALR3       010ALLIAR      ON      NM   R$  000000000084000000000008830000000000832000000000085900000000008680000000000868000000000087600486000000000000092400000000000079377800000000000000009999123100000010000000000000BRAALRACNOR6102
012024021602ABCB4       010ABC BRASIL  PN      N2   R$  000000000245000000000024810000000002389000000000245000000000024750000000002464000000000247503498000000000000716000000000001754412600000000000000009999123100000010000000000000BRABCBACNPR4145
012024021602ABEV3       010AMBEV S/A   ON           R$  000000000129000000000012900000000001275000000000128000000000012760000000001276000000000128021057000000000020983400000000026862176100000000000000009999123100000010000000000000BRABEVACNOR1127
012024021602BEES3       010BANESTES    ON           R$  000000000096500000000009650000000000953000000000095800000000009590000000000956000000000095900038000000000000005500000000000005272300000000000000009999123100000010000000000000BRBEESACNOR9387
012024021602BEES4       010BANESTES    PN           R$  000000000100500000000010120000000000997000000000100100000000010000000000000998000000000100500030000000000000004200000000000004207900000000000000009999123100000010000000000000BRBEESACNPR6312
012024021602ALPA3       010ALPARGATAS  ON      N1   R$  000000000096900000000009990000000000959000000000098100000000009590000000000924000000000096000026000000000000006000000000000005889900000000000000009999123100000010000000000000BRALPAACNOR0231
012024021602ALPA4       010ALPARGATAS  PN      N1   R$  000000000091200000000009520000000000898000000000093100000000009340000000000931000000000093410902000000000005005400000000004663518500000000000000009999123100000010000000000000BRALPAACNPR7232
012024021602ALPK3       010ESTAPAR     ON      NM   R$  000000000044200000000004500000000000437000000000044500000000004500000000000446000000000045000193000000000000105500000000000047040000000000000000009999123100000010000000000000BRALPKACNOR9101
012024021602ALUP11      010ALUPAR      UNT     N2   R$  000000000292500000000029350000000002893000000000290900000000029010000000002901000000000291102839000000000000478800000000001393159400000000000000009999123100000010000000000000BRALUPCDAM15117
012024021602ALUP3       010ALUPAR      ON      N2   R$  000000000096700000000009780000000000961000000000096800000000009710000000000962000000000097300044000000000000007200000000000006970600000000000000009999123100000010000000000000BRALUPACNOR8117
012024021602ALUP4       010ALUPAR      PN      N2   R$  000000000097200000000009750000000000967000000000097100000000009710000000000967000000000097100053000000000000008200000000000007964300000000000000009999123100000010000000000000BRALUPACNPR5117
012024021602AMAR3       010LOJAS MARISAON      NM   R$  000000000026900000000002750000000000267000000000027200000000002720000000000271000000000027200533000000000000322200000000000087785400000000000000009999123100000010000000000000BRAMARACNOR4114
012024021602AMBP3       010AMBIPAR     ON      NM   R$  000000000139800000000014210000000001371000000000139900000000014180000000001418000000000142002254000000000000485700000000000679887600000000000000009999123100000010000000000000BRAMBPACNOR6103
012024021602BBDC3       010BRADESCO    ON      N1   R$  000000000123000000000012350000000001212000000000122200000000012280000000001226000000000122809896000000000011874200000000014519846900000000000000009999123100000010000000000000BRBBDCACNOR1766
012024021602BBDC4       010BRADESCO    PN      N1   R$  000000000135200000000013620000000001335000000000134500000000013480000000001347000000000134943348000000000055168200000000074251406000000000000000009999123100000010000000000000BRBBDCACNPR8766
012024021602ESPA3       010ESPACOLASER ON      NM   R$  000000000009400000000001010000000000094000000000009700000000000980000000000098000000000010000943000000000001556700000000000152135200000000000000009999123100000010000000000000BRESPAACNOR7103
012024021602GRND3       010GRENDENE    ON      NM   R$  000000000063900000000006450000000000635000000000064100000000006450000000000644000000000064502806000000000001302800000000000835853500000000000000009999123100000010000000000000BRGRNDACNOR3172
012024021602GUAR3       010GUARARAPES  ON      NM   R$  000000000048700000000005020000000000479000000000049000000000005020000000000502000000000050304091000000000001674000000000000820789600000000000000009999123100000010000000000000BRGUARACNOR4172
012024021605BZLI11      010FII BRREALTYCI           R$  000000000197900000000019790000000001700000000000173900000000017000000000001700000000000197800002000000000000000070000000000000121790000000000000009999123100000010000000000000BRBZLICTF003100
012024021607NUTR3       010NUTRIPLANT  ON      MA   R$  000000000052900000000005460000000000510000000000052000000000005200000000000520000000000055100024000000000000003300000000000001719200000000000000009999123100000010000000000000BRNUTRACNOR0104
012024021607TXRX4       010TEX RENAUX  PN           R$  000000000031700000000003180000000000283000000000029100000000002930000000000286000000000029400034000000000000008700000000000002538100000000000000009999123100000010000000000000BRTXRXACNPR0142
012024021608RPMG3       010PET MANGUINHON           R$  000000000020600000000002140000000000205000000000020900000000002070000000000207000000000020800073000000000000039300000000000008241900000000000000009999123100000010000000000000BRRPMGACNOR9194
012024021608TEKA4       010TEKA        PN           R$  000000000267000000000033500000000002670000000000278700000000032000000000002828000000000320000040000000000000017500000000000048779800000000000000009999123100000010000000000000BRTEKAACNPR3140
012024021608OIBR3       010OI          ON      N1   R$  000000000010800000000001130000000000104000000000010700000000001050000000000105000000000010605128000000000024007400000000002578206800000000000000009999123100000010000000000000BROIBRACNOR1110
012024021608OIBR4       010OI          PN      N1   R$  000000000021400000000002210000000000206000000000021200000000002120000000000212000000000021300275000000000000152600000000000032501800000000000000009999123100000010000000000000BROIBRACNPR8109
012024021608OSXB3       010OSX BRASIL  ON      NM   R$  000000000049100000000005170000000000489000000000050700000000005070000000000504000000000050800090000000000000016600000000000008431000000000000000009999123100000010000000000000BROSXBACNOR8109
012024021608FRTA3       010POMIFRUTAS  ON      NM   R$  000000000015100000000001510000000000145000000000014900000000001490000000000149000000000015100015000000000000004700000000000000701100000000000000009999123100000010000000000000BRFRTAACNOR8103
012024021608BDLL4       010BARDELLA    PN           R$  000000000080100000000008010000000000801000000000080100000000008010000000000775000000000085000001000000000000000100000000000000080100000000000000009999123100000010000000000000BRBDLLACNPR8151
012024021608JFEN3       010JOAO FORTES ON           R$  000000000018100000000001830000000000180000000000018100000000001820000000000181000000000018300013000000000000011600000000000002101300000000000000009999123100000010000000000000BRJFENACNOR0058
012024021608ATMP3       010ATMASA      ON           R$  000000000030800000000003080000000000298000000000030400000000003010000000000301000000000030700014000000000000006700000000000002037600000000000000009999123100000010000000000000BRATMPACNOR8100
012024021608ETER3       010ETERNIT     ON      NM   R$  000000000069500000000007150000000000677000000000069300000000007150000000000700000000000071500720000000000000177200000000000122856600000000000000009999123100000010000000000000BRETERACNOR3242
012024021608HOOT4       010HOTEIS OTHONPN           R$  000000000029500000000002950000000000282000000000028500000000002830000000000283000000000028400013000000000000002800000000000000798300000000000000009999123100000010000000000000BRHOOTACNPR9015
012024021608RSID3       010ROSSI RESID ON      NM   R$  000000000037400000000003830000000000360000000000037100000000003600000000000359000000000036000140000000000000054500000000000020267100000000000000009999123100000010000000000000BRRSIDACNOR8120
012024021608RNEW11      010RENOVA      UNT     N2   R$  000000000038200000000004150000000000382000000000040100000000004140000000000390000000000041500119000000000000025600000000000010276200000000000000009999123100000010000000000000BRRNEWCDAM15110
012024021608RNEW3       010RENOVA      ON      N2   R$  000000000013000000000001390000000000130000000000013400000000001360000000000134000000000013600237000000000000139900000000000018793400000000000000009999123100000010000000000000BRRNEWACNOR8110
012024021608RNEW4       010RENOVA      PN      N2   R$  000000000013200000000001380000000000128000000000013300000000001340000000000133000000000013400436000000000000473400000000000063345900000000000000009999123100000010000000000000BRRNEWACNPR5110
012024021608LIGT3       010LIGHT S/A   ON      NM   R$  000000000053200000000005500000000000526000000000054300000000005500000000000550000000000055101496000000000000502800000000000273348000000000000000009999123100000010000000000000BRLIGTACNOR2124
012024021608PMAM3       010PARANAPANEMAON      NM   R$  000000000037600000000003790000000000376000000000037700000000003790000000000377000000000037900038000000000000004800000000000001811900000000000000009999123100000010000000000000BRPMAMACNOR3038
012024021608NEXP3       010NEXPE       ON      NM   R$  000000000049300000000004930000000000475000000000048300000000004750000000000472000000000049100012000000000000002000000000000000966200000000000000009999123100000010000000000000BRNEXPACNOR0101
012024021608AMER3       010AMERICANAS  ON      NM   R$  000000000005800000000000610000000000056000000000005800000000000590000000000059000000000006006584000000000024180300000000001421889300000000000000009999123100000010000000000000BRAMERACNOR6101
012024021610LJQQ9       010QUERO-QUERO ON  REC NM   R$  000000000045000000000004600000000000436000000000044800000000004600000000000450000000000047400012000000000000001600000000000000717400000000000000009999123100000010000000000000BRLJQQR01OR0103
012024021610CDII12      010SPARTA CDII DIR          R$  000000000001100000000000140000000000003000000000000800000000000090000000000008000000000000900182000000000000034372000000000000275434000000000000009999123100000010000000000000BRCDIID03M11111
012024021610MGLU1       010MAGAZ LUIZA DIR ORD NM   R$  000000000001500000000000160000000000012000000000001300000000000120000000000012000000000001301557000000000013092000000000000175604100000000000000009999123100000010000000000000BRMGLUD01OR7122
012024021610VIVR12      010VIVER       DIR     NM   R$  000000000000500000000000050000000000002000000000000200000000000030000000000002000000000000300082000000000000094100000000000000282200000000000000009999123100000010000000000000BRVIVRD02M16121
012024021610PGMN1       010PAGUE MENOS DIR ORD NM   R$  000000000000500000000000070000000000005000000000000500000000000060000000000005000000000000600083000000000000487300000000000002838300000000000000009999123100000010000000000000BRPGMND03OR9102
012024021612BIME11      010FII BRIO ME CI  ER       R$  000000000073400000000007400000000000733000000000073400000000007340000000000733000000000073401045000000000000019818000000000014549237000000000000009999123100000010000000000000BRBIMECTF006128
012024021612BLCA11      010FII BLUE AAACI  ER       R$  000000001210000000000124000000000010951000000001100000000000110000000000010990000000001100000137000000000000028219000000000310412988000000000000009999123100000010000000000000BRBLCACTF009127
012024021612BLMG11      010FII BLUE LOGCI  ER       R$  000000000392100000000039650000000003921000000000394900000000039580000000003958000000000396000501000000000000006828000000000026967750000000000000009999123100000010000000000000BRBLMGCTF005143
012024021612BLMO11      010FII BLUEMAC CI           R$  000000000899800000000089980000000008600000000000883000000000089980000000008890000000000899800014000000000000000050000000000000441529000000000000009999123100000010000000000000BRBLMOCTF009127
012024021612BLUR11      010FII BLUE RECCI  ER       R$  000000000949700000000099990000000009003000000000976600000000090030000000009002000000000956900007000000000000000021000000000000205094000000000000009999123100000010000000000000BRBLURCTF005123
012024021612BRIM11      010FII BRIO II CI           R$  000000012657200000001265720000000126572000000012657200000001265720000000126572000000000000000002000000000000000010000000000001265720000000000000009999123100000010000000000000BRBRIMCTF008126
012024021612BRIP11      010FII BRIO IIICI  ER       R$  000000009254200000000927200000000087005000000009010800000000894100000000089408000000000000000059000000000000000068000000000006127391000000000000009999123100000010000000000000BRBRIPCTF001108
012024021612GGRC11      010FII GGRCOVEPCI           R$  000000001136000000000114000000000011351000000001138300000000113510000000011351000000001139803000000000000000012068000000000137378495000000000000009999123100000010000000000000BRGGRCCTF002188
012024021612GLOG11      010FII PLURAL LCI           R$  000000000668100000000067980000000006550000000000660100000000066000000000006601000000000667800083000000000000001189000000000007848738000000000000009999123100000010000000000000BRGLOGCTF000109
012024021612RPRI11      010FII RBR PR  CI           R$  000000001015300000000102980000000010120000000001015300000000101260000000010126000000001019300168000000000000002661000000000027018451000000000000009999123100000010000000000000BRRPRICTF007124
012024021612RRCI11      010FII RBCAP RICI           R$  000000000834400000000083440000000008250000000000830100000000083100000000008277000000000831100055000000000000000960000000000007969627000000000000009999123100000010000000000000BRRRCICTF005138
012024021612EQIR11      010FII EQI RECECI           R$  000000000091800000000009230000000000916000000000091800000000009230000000000919000000000092300516000000000000053664000000000049289894000000000000009999123100000010000000000000BREQIRCTF003128
012024021612ERPA11      010FII EUROPA  CI  ER       R$  000000001297700000000129770000000012977000000001297700000000129770000000011500000000001297700001000000000000000276000000000003581652000000000000009999123100000010000000000000BRERPACTF002125
012024021612TEPP11      010FII TEL PROPCI           R$  000000000945000000000094790000000009390000000000941200000000094150000000009403000000000943203223000000000000012527000000000117909594000000000000009999123100000010000000000000BRTEPPCTF006146
012024021612TGAR11      010FII TG ATIVOCI           R$  000000001257000000000126710000000012570000000001264000000000126040000000012604000000001262913969000000000000058377000000000737910350000000000000009999123100000010000000000000BRTGARCTF009187
012024021612TMPS11      010FII ITAU TEMCI           R$  000000001023400000000102340000000010100000000001020300000000101000000000010100000000001020400009000000000000000337000000000003438530000000000000009999123100000010000000000000BRTMPSCTF003110
012024021612TORD11      010FII TORDE EICI           R$  000000000020000000000002020000000000200000000000020100000000002010000000000201000000000020200980000000000000074486000000000014995403000000000000009999123100000010000000000000BRTORDCTF015138
012024021612APTO11      010FII NAVI RSDCI           R$  000000000096700000000009700000000000962000000000096800000000009690000000000968000000000096900231000000000000001951000000000001889971000000000000009999123100000010000000000000BRAPTOCTF007127
012024021612APXM11      010FII APEX MS CI           R$  000000000989800000000098980000000009898000000000989800000000098980000000009895000000000989800001000000000000000001000000000000009898000000000000009999123100000010000000000000BRAPXMCTF003105
012024021612AROA11      010FII AROA    CI           R$  000000000012100000000001280000000000118000000000011900000000001190000000000118000000000011900135000000000000003312000000000000395922000000000000009999123100000010000000000000BRAROACTF003114
012024021612ARRI11      010FII ATRIO   CI           R$  000000000091700000000009210000000000910000000000091400000000009210000000000921000000000092200851000000000000028961000000000026498054000000000000009999123100000010000000000000BRARRICTF009155
012024021612ARXD11      010FII ARXD R  CI           R$  000000000974400000000098120000000009744000000000975000000000098120000000009744000000000987900002000000000000000011000000000000107252000000000000009999123100000010000000000000BRARXDCTF008111
012024021612TRBL11      010FII SDI LOG CI           R$  000000001000500000000100700000000009979000000001001900000000100170000000010017000000001003301484000000000000009317000000000093349332000000000000009999123100000010000000000000BRTRBLCTF007108
012024021612WHGR11      010FII WHG REALCI           R$  000000000098300000000009830000000000975000000000097700000000009780000000000975000000000097802944000000000000055394000000000054160113000000000000009999123100000010000000000000BRWHGRCTF008120
012024021612WPLZ11      010FII W PLAZA CI           R$  000000000655500000000066340000000006444000000000657400000000064440000000006443000000000644400023000000000000000041000000000000269570000000000000009999123100000010000000000000BRWPLZCTF004262
012024021612BMLC11      010FII BMBRC LCCI  ER       R$  000000001059800000000105980000000010590000000001059500000000105980000000010590000000001059800005000000000000000016000000000000169528000000000000009999123100000010000000000000BRBMLCCTF004246
012024021612BNFS11      010FII BANRISULCI           R$  000000001195100000000121000000000011951000000001201100000000120150000000012015000000001201900127000000000000000657000000000007891295000000000000009999123100000010000000000000BRBNFSCTF000237
012024021612WSEC11      010FII WARREN  CI  ER       R$  000000000852300000000085230000000008522000000000852200000000085230000000008500000000000870000007000000000000000070000000000000596560000000000000009999123100000010000000000000BRWSECCTF010116
012024021612WTSP11      010FII WTC SP  CI           R$  000000000357100000000035710000000003571000000000357100000000035710000000003580000000000369000001000000000000000002000000000000007142000000000000009999123100000010000000000000BRWTSPCTF002158
012024021612XPCI11      010FII XP CRED CI           R$  000000000895800000000090950000000008945000000000900400000000089620000000008962000000000900705278000000000000022818000000000205464903000000000000009999123100000010000000000000BRXPCICTF007153
012024021612XPCM11      010FII XP MACAECI           R$  000000000095300000000009650000000000950000000000095500000000009590000000000957000000000095900172000000000000001894000000000001809430000000000000009999123100000010000000000000BRXPCMCTF009230
012024021612XPIN11      010FII XP INDL CI  ER       R$  000000000817200000000081980000000008064000000000812900000000080810000000008081000000000812002332000000000000011802000000000095945078000000000000009999123100000010000000000000BRXPINCTF004170
012024021612XPLG11      010FII XP LOG  CI           R$  000000001097200000000110300000000010970000000001100200000000109900000000010990000000001101014901000000000000048242000000000530761572000000000000009999123100000010000000000000BRXPLGCTF002173
