00COTAHIST.2024BOVESPA 20240429                                                                                                                                                                                                                      
012024042902VITT3       010VITTIA      ON      NM   R$  000000000058000000000005930000000000560000000000057700000000005870000000000587000000000059101137000000000000271900000000000157157200000000000000009999123100000010000000000000BRVITTACNOR4107
012024042902TOTS3       010TOTVS       ON      NM   R$  000000000280800000000028400000000002784000000000280100000000027950000000002795000000000280010269000000000004342100000000012165385600000000000000009999123100000010000000000000BRTOTSACNOR8144
012024042902TPIS3       010TRIUNFO PARTON      NM   R$  000000000038800000000003920000000000382000000000038600000000003820000000000382000000000038800055000000000000017700000000000006835800000000000000009999123100000010000000000000BRTPISACNOR8118
012024042902TRAD3       010TC          ON      NM   R$  000000000008000000000000870000000000077000000000008200000000000850000000000084000000000008500419000000000000481600000000000039734800000000000000009999123100000010000000000000BRTRADACNOR3101
012024042902TRIS3       010TRISUL      ON  ED  NM   R$  000000000046600000000004740000000000459000000000046500000000004680000000000464000000000046800923000000000000325300000000000151462300000000000000009999123100000010000000000000BRTRISACNOR4117
012024042902TRPL3       010TRAN PAULISTON      N1   R$  000000000331400000000033280000000003277000000000331100000000033130000000003273000000000333500017000000000000002400000000000007946700000000000000009999123100000010000000000000BRTRPLACNOR4185
012024042902TRPL4       010TRAN PAULISTPN      N1   R$  000000000252900000000025510000000002499000000000252900000000025280000000002528000000000253516743000000000003533800000000008939868200000000000000009999123100000010000000000000BRTRPLACNPR1185
012024042902TTEN3       0103TENTOS     ON      NM   R$  000000000100800000000010320000000001007000000000102400000000010300000000001016000000000103102073000000000000551800000000000565442900000000000000009999123100000010000000000000BRTTENACNOR0103
012024042902MGLU3       010MAGAZ LUIZA ON      NM   R$  000000000014300000000001500000000000140000000000014400000000001450000000000145000000000014637400000000000103369800000000014949062600000000000000009999123100000010000000000000BRMGLUACNOR2123
012024042902MYPK3       010IOCHP-MAXIONON      NM   R$  000000000124000000000012770000000001240000000000126100000000012720000000001252000000000127202107000000000000622500000000000785261100000000000000009999123100000010000000000000BRMYPKACNOR7154
012024042902YDUQ3       010YDUQS PART  ON  ED  NM   R$  000000000155500000000015610000000001508000000000152600000000015350000000001531000000000153509173000000000002679500000000004089380200000000000000009999123100000010000000000000BRYDUQACNOR3105
012024042902ZAMP3       010ZAMP S.A.   ON           R$  000000000039900000000003990000000000378000000000038700000000003820000000000382000000000038402352000000000000663800000000000257176000000000000000009999123100000010000000000000BRZAMPACNOR5100
012024042902NEOE3       010NEOENERGIA  ON  ED  NM   R$  000000000193600000000019380000000001910000000000192400000000019310000000001928000000000193103328000000000001104100000000002125045900000000000000009999123100000010000000000000BRNEOEACNOR3122
012024042902NGRD3       010NEOGRID     ON  ED  NM   R$  000000000010100000000001030000000000100000000000010100000000001020000000000102000000000010300282000000000000341900000000000034837400000000000000009999123100000010000000000000BRNGRDACNOR3104
012024042902NINJ3       010GETNINJAS   ON      NM   R$  000000000047000000000004890000000000470000000000048000000000004810000000000477000000000048900056000000000000035600000000000017089100000000000000009999123100000010000000000000BRNINJACNOR5101
012024042902NORD3       010NORDON MET  ON           R$  000000000091800000000010200000000000918000000000096900000000010200000000000850000000000101800003000000000000000300000000000000290800000000000000009999123100000010000000000000BRNORDACNOR7135
012024042902NTCO3       010GRUPO NATURAON      NM   R$  000000000168800000000016970000000001658000000000168300000000016880000000001685000000000168814826000000000004783800000000008053570400000000000000009999123100000010000000000000BRNTCOACNOR5106
012024042902ASAI3       010ASSAI       ON      NM   R$  000000000134000000000013640000000001331000000000135500000000013590000000001355000000000135912533000000000006604200000000008950774800000000000000009999123100000010000000000000BRASAIACNOR0106
012024042902ATOM3       010ATOMPAR     ON           R$  000000000021500000000002320000000000215000000000022400000000002250000000000225000000000022800085000000000000023300000000000005236700000000000000009999123100000010000000000000BRATOMACNOR1106
012024042902AURE3       010AUREN       ON      NM   R$  000000000115100000000011680000000001149000000000116000000000011600000000001160000000000116104473000000000002083900000000002417765300000000000000009999123100000010000000000000BRAUREACNOR9104
012024042902BIOM3       010BIOMM       ON      MA   R$  000000000162400000000017830000000001572000000000167600000000017770000000001750000000000177701510000000000000311600000000000522370000000000000000009999123100000010000000000000BRBIOMACNOR2112
012024042902BLAU3       010BLAU        ON      NM   R$  000000000108100000000010900000000001055000000000107000000000010650000000001064000000000107302083000000000000312800000000000334953300000000000000009999123100000010000000000000BRBLAUACNOR8112
012024042902BMEB4       010MERCANTIL   PN      N1   R$  000000000220500000000022390000000002185000000000219700000000021980000000002192000000000219800043000000000000019300000000000042406300000000000000009999123100000010000000000000BRBMEBACNPR5210
012024042902BMGB4       010BANCO BMG   PN  EJ  N1   R$  000000000032400000000003320000000000324000000000032700000000003280000000000328000000000032900397000000000000187700000000000061555200000000000000009999123100000010000000000000BRBMGBACNPR0109
012024042902BMIN4       010MERC INVEST PN           R$  000000000152000000000015200000000001520000000000152000000000015200000000001520000000000156900001000000000000000100000000000000152000000000000000009999123100000010000000000000BRBMINACNPR1176
012024042902BMKS3       010BIC MONARK  ON           R$  000000004300000000000430000000000040002000000004192000000000428010000000040801000000004299800059000000000000000433000000000018151657000000000000009999123100000010000000000000BRBMKSACNOR9165
012024042902BMOB3       010BEMOBI TECH ON      NM   R$  000000000118100000000011980000000001175000000000118600000000011920000000001192000000000119400666000000000000276700000000000328168800000000000000009999123100000010000000000000BRBMOBACNOR7103
012024042902BOBR4       010BOMBRIL     PN           R$  000000000022500000000002290000000000224000000000022600000000002240000000000224000000000022800076000000000000015400000000000003493400000000000000009999123100000010000000000000BRBOBRACNPR3128
012024042902BPAC11      010BTGP BANCO  UNT     N2   R$  000000000339400000000034100000000003375000000000339600000000033940000000003391000000000339414456000000000004991700000000016956580500000000000000009999123100000010000000000000BRBPACUNT006118
012024042902BPAC3       010BTGP BANCO  ON      N2   R$  000000000166300000000016630000000001654000000000165400000000016590000000001650000000000169900005000000000000000800000000000001323400000000000000009999123100000010000000000000BRBPACACNOR7133
012024042902BPAC5       010BTGP BANCO  PNA     N2   R$  000000000086500000000008650000000000865000000000086500000000008650000000000810000000000086500002000000000000000300000000000000259500000000000000009999123100000010000000000000BRBPACACNPA0133
012024042902CMIN3       010CSNMINERACAOON      N2   R$  000000000049700000000005040000000000493000000000049900000000005000000000000499000000000050009726000000000007962900000000003978527700000000000000009999123100000010000000000000BRCMINACNOR2110
012024042902VIVA3       010VIVARA S.A. ON      NM   R$  000000000231700000000023280000000002291000000000230500000000022980000000002298000000000230506266000000000001645400000000003793032900000000000000009999123100000010000000000000BRVIVAACNOR0106
012024042902RAIL3       010RUMO S.A.   ON      NM   R$  000000000208300000000020940000000002063000000000207900000000020830000000002067000000000208416826000000000010647300000000022137721200000000000000009999123100000010000000000000BRRAILACNOR9104
012024042902RAIZ4       010RAIZEN      PN      N2   R$  000000000030700000000003100000000000304000000000030600000000003070000000000307000000000030813780000000000007119400000000002185197200000000000000009999123100000010000000000000BRRAIZACNPR6110
012024042902RANI3       010IRANI       ON  ED  NM   R$  000000000090300000000009040000000000879000000000088600000000008960000000000891000000000089603274000000000001542600000000001368013800000000000000009999123100000010000000000000BRRANIACNOR5071
012024042902MRSA6B      010MRS LOGIST  PNB ED  MB   R$  000000000255000000000025500000000002550000000000255000000000025500000000002506000000000000000001000000000000000200000000000000510000000000000000009999123100000010000000000000BRMRSAACNPB7125
012024042902MRVE3       010MRV         ON      NM   R$  000000000066900000000006940000000000665000000000068400000000006880000000000688000000000069011768000000000012452300000000008526331400000000000000009999123100000010000000000000BRMRVEACNOR2126
012024042902MTRE3       010MITRE REALTYON  ED  NM   R$  000000000043900000000004430000000000433000000000043700000000004350000000000434000000000043500890000000000000587400000000000256769800000000000000009999123100000010000000000000BRMTREACNOR6110
012024042902MTSA4       010METISA      PN           R$  000000000483300000000048330000000004660000000000475100000000048330000000004663000000000485000046000000000000010000000000000047514700000000000000009999123100000010000000000000BRMTSAACNPR9071
012024042902MULT3       010MULTIPLAN   ON      N2   R$  000000000240100000000024170000000002374000000000239600000000023890000000002388000000000239513926000000000004764900000000011416776300000000000000009999123100000010000000000000BRMULTACNOR5138
012024042902PETZ3       010PETZ        ON      NM   R$  000000000050100000000005070000000000481000000000049100000000004830000000000482000000000048307479000000000010384600000000005104861400000000000000009999123100000010000000000000BRPETZACNOR2109
012024042902PRNR3       010PRINER      ON      NM   R$  000000000128700000000013160000000001278000000000129100000000013010000000001291000000000130101069000000000000266600000000000344365900000000000000009999123100000010000000000000BRPRNRACNOR4108
012024042902PSSA3       010PORTO SEGUROON      NM   R$  000000000304000000000030410000000002972000000000299500000000030060000000003005000000000300807069000000000001794800000000005376196700000000000000009999123100000010000000000000BRPSSAACNOR7154
012024042902PTBL3       010PORTOBELLO  ON      NM   R$  000000000059200000000005970000000000580000000000058500000000005900000000000583000000000059000975000000000000350100000000000204908900000000000000009999123100000010000000000000BRPTBLACNOR8132
012024042902SEER3       010SER EDUCA   ON      NM   R$  000000000056200000000005780000000000559000000000056600000000005760000000000573000000000057600722000000000000363700000000000205894900000000000000009999123100000010000000000000BRSEERACNOR5119
012024042902SEQL3       010SEQUOIA LOG ON      NM   R$  000000000004100000000000420000000000039000000000004000000000000400000000000039000000000004000640000000000003514300000000000141798100000000000000009999123100000010000000000000BRSEQLACNOR2102
012024042902SGPS3       010SPRINGS     ON      NM   R$  000000000007900000000000810000000000078000000000007900000000000800000000000080000000000008100129000000000000291700000000000023243100000000000000009999123100000010000000000000BRSGPSACNOR4104
012024042902SHOW3       010TIME FOR FUNON      NM   R$  000000000025100000000002590000000000250000000000025500000000002540000000000252000000000025400262000000000000112400000000000028670400000000000000009999123100000010000000000000BRSHOWACNOR7105
012024042902SHUL4       010SCHULZ      PN           R$  000000000062600000000006300000000000618000000000062600000000006300000000000630000000000063200630000000000000343800000000000215238900000000000000009999123100000010000000000000BRSHULACNPR4155
012024042902SIMH3       010SIMPAR      ON      NM   R$  000000000059600000000006130000000000596000000000060400000000006040000000000600000000000060507424000000000004627000000000002799101100000000000000009999123100000010000000000000BRSIMHACNOR0107
012024042902QUAL3       010QUALICORP   ON      NM   R$  000000000016900000000001740000000000165000000000016900000000001690000000000168000000000016902151000000000004200600000000000712171800000000000000009999123100000010000000000000BRQUALACNOR6119
012024042902RADL3       010RAIADROGASILON  ED  NM   R$  000000000255000000000026000000000002542000000000257700000000025730000000002572000000000257514177000000000006198500000000015976557000000000000000009999123100000010000000000000BRRADLACNOR0156
012024042902SBFG3       010GRUPO SBF   ON  ED  NM   R$  000000000117600000000011860000000001152000000000116500000000011670000000001157000000000116802209000000000000659500000000000768422900000000000000009999123100000010000000000000BRSBFGACNOR1103
012024042902SBSP3       010SABESP      ON  EJ  NM   R$  000000000823000000000082870000000008201000000000822800000000082360000000008231000000000823707050000000000001357500000000011170682000000000000000009999123100000010000000000000BRSBSPACNOR5161
012024042902SCAR3       010SAO CARLOS  ON      NM   R$  000000000259000000000026600000000002590000000000264100000000026380000000002619000000000263800113000000000000030500000000000080572000000000000000009999123100000010000000000000BRSCARACNOR7130
012024042902BRFS3       010BRF SA      ON      NM   R$  000000000174500000000017600000000001713000000000172500000000017240000000001721000000000172517882000000000007518600000000012971343000000000000000009999123100000010000000000000BRBRFSACNOR8121
012024042902FESA3       010FERBASA     ON      N1   R$  000000000148000000000014870000000001480000000000148400000000014870000000001481000000000154000003000000000000000300000000000000445400000000000000009999123100000010000000000000BRFESAACNOR8187
012024042902FESA4       010FERBASA     PN      N1   R$  000000000081800000000008260000000000808000000000081700000000008240000000000820000000000082401667000000000000873500000000000713953700000000000000009999123100000010000000000000BRFESAACNPR5083
012024042902FHER3       010FER HERINGERON      NM   R$  000000000050000000000005060000000000496000000000049800000000004970000000000496000000000049700019000000000000007000000000000003486400000000000000009999123100000010000000000000BRFHERACNOR5103
012024042902FIQE3       010UNIFIQUE    ON      NM   R$  000000000038300000000003850000000000379000000000038200000000003820000000000382000000000038300184000000000000076200000000000029114900000000000000009999123100000010000000000000BRFIQEACNOR5106
012024042902PCAR3       010P.ACUCAR-CBDON      NM   R$  000000000028000000000003030000000000276000000000029100000000003010000000000300000000000030110266000000000024060700000000007021681300000000000000009999123100000010000000000000BRPCARACNOR3167
012024042902PDGR3       010PDG REALT   ON      NM   R$  000000000002200000000000230000000000021000000000002100000000000220000000000021000000000002200466000000000002238500000000000049032400000000000000009999123100000010000000000000BRPDGRACNOR8118
012024042902PDTC3       010PADTEC      ON  ED  NM   R$  000000000022800000000002380000000000224000000000022800000000002300000000000227000000000023000103000000000000056500000000000012893100000000000000009999123100000010000000000000BRPDTCACNOR3101
012024042902PEAB3       010PAR AL BAHIAON           R$  000000000455100000000045510000000004551000000000455100000000045510000000004300000000000499900001000000000000000100000000000000455100000000000000009999123100000010000000000000BRPEABACNOR3132
012024042902PEAB4       010PAR AL BAHIAPN           R$  000000000539300000000053930000000004823000000000501300000000048260000000004700000000000499900006000000000000000600000000000003008300000000000000009999123100000010000000000000BRPEABACNPR0132
012024042902PETR3       010PETROBRAS   ON  EDR N2   R$  000000000436700000000044540000000004360000000000441600000000044540000000004450000000000445518155000000000010042900000000044351670100000000000000009999123100000010000000000000BRPETRACNOR9203
012024042902PETR4       010PETROBRAS   PN  EDR N2   R$  000000000414800000000042150000000004132000000000417800000000042150000000004212000000000421549866000000000027886000000000116515125900000000000000009999123100000010000000000000BRPETRACNPR6211
012024042902RAPT3       010RANDON PART ON      N1   R$  000000000094800000000009510000000000925000000000093700000000009400000000000940000000000094400108000000000000034200000000000032051000000000000000009999123100000010000000000000BRRAPTACNOR7162
012024042902RAPT4       010RANDON PART PN      N1   R$  000000000110000000000011310000000001100000000000111400000000011100000000001104000000000111104498000000000001611500000000001795893000000000000000009999123100000010000000000000BRRAPTACNPR4162
012024042902GGBR4       010GERDAU      PN  EB  N1   R$  000000000187000000000018740000000001845000000000186000000000018600000000001860000000000186114811000000000007728500000000014378871000000000000000009999123100000010000000000000BRGGBRACNPR8191
012024042902HYPE3       010HYPERA      ON  EJ  NM   R$  000000000293600000000030390000000002920000000000300200000000030080000000003008000000000301030648000000000009174200000000027545494000000000000000009999123100000010000000000000BRHYPEACNOR0140
012024042902USIM3       010USIMINAS    ON  ED  N1   R$  000000000077200000000007720000000000760000000000076500000000007650000000000765000000000076601230000000000000335200000000000256501400000000000000009999123100000010000000000000BRUSIMACNOR3167
012024042902USIM5       010USIMINAS    PNA ED  N1   R$  000000000082000000000008250000000000814000000000081900000000008210000000000820000000000082113747000000000010833200000000008880884100000000000000009999123100000010000000000000BRUSIMACNPA6169
012024042902TKNO4       010TEKNO       PN           R$  000000000600500000000060050000000006005000000000600500000000060050000000005910000000000647000002000000000000000200000000000001201000000000000000009999123100000010000000000000BRTKNOACNPR5075
012024042902ITUB3       010ITAUUNIBANCOON      N1   R$  000000000280600000000028150000000002756000000000277700000000027800000000002778000000000278101156000000000000238300000000000661861500000000000000009999123100000010000000000000BRITUBACNOR4334
012024042902ITUB4       010ITAUUNIBANCOPN      N1   R$  000000000322500000000032300000000003171000000000319100000000031960000000003192000000000319629134000000000022083300000000070470115400000000000000009999123100000010000000000000BRITUBACNPR1334
012024042902ODPV3       010ODONTOPREV  ON      NM   R$  000000000116900000000011960000000001167000000000117700000000011960000000001181000000000119603366000000000000961100000000001131745400000000000000009999123100000010000000000000BRODPVACNOR4200
012024042902OFSA3       010OUROFINO S/AON      NM   R$  000000000215000000000021510000000002150000000000215000000000021500000000002150000000000219600005000000000000000700000000000001505100000000000000009999123100000010000000000000BROFSAACNOR7117
012024042902SYNE3       010SYN PROP TECON      NM   R$  000000000087800000000009000000000000874000000000089000000000008960000000000895000000000089600543000000000000165600000000000147406000000000000000009999123100000010000000000000BRSYNEACNOR2102
012024042902RSUL4       010RIOSULENSE  PN  ED       R$  000000000799800000000079980000000007800000000000788700000000079190000000007459000000000792000005000000000000000500000000000003943700000000000000009999123100000010000000000000BRRSULACNPR3114
012024042902SNSY3       010SANSUY      ON           R$  000000000116200000000011800000000001140000000000114300000000011800000000001126000000000119000005000000000000003200000000000003658800000000000000009999123100000010000000000000BRSNSYACNOR2113
012024042902SNSY5       010SANSUY      PNA          R$  000000000063800000000006390000000000625000000000063400000000006250000000000623000000000063200013000000000000003600000000000002282500000000000000009999123100000010000000000000BRSNSYACNPA5111
012024042902SOJA3       010BOA SAFRA   ON      NM   R$  000000000183100000000018420000000001812000000000182600000000018420000000001842000000000184301510000000000000212600000000000388228700000000000000009999123100000010000000000000BRSOJAACNOR9105
012024042902SOMA3       010GRUPO SOMA  ON      NM   R$  000000000060800000000006200000000000602000000000061000000000006080000000000606000000000060816726000000000016777300000000010238554300000000000000009999123100000010000000000000BRSOMAACNOR3102
012024042902TUPY3       010TUPY        ON      NM   R$  000000000264600000000026750000000002617000000000263900000000026380000000002619000000000263801522000000000000308900000000000815443500000000000000009999123100000010000000000000BRTUPYACNOR1183
012024042902TAEE11      010TAESA       UNT     N2   R$  000000000353600000000035410000000003504000000000351500000000035200000000003519000000000352107269000000000002195700000000007718258500000000000000009999123100000010000000000000BRTAEECDAM10145
012024042902TAEE3       010TAESA       ON      N2   R$  000000000117200000000011750000000001163000000000116600000000011660000000001166000000000116800792000000000000179000000000000208870200000000000000009999123100000010000000000000BRTAEEACNOR9145
012024042902TAEE4       010TAESA       PN      N2   R$  000000000118600000000011870000000001172000000000117600000000011790000000001176000000000117901167000000000000318700000000000374894600000000000000009999123100000010000000000000BRTAEEACNPR6145
012024042902TASA3       010TAURUS ARMASON      N2   R$  000000000128400000000012890000000001280000000000128200000000012810000000001281000000000128500057000000000000009300000000000011930900000000000000009999123100000010000000000000BRTASAACNOR7103
012024042902TASA4       010TAURUS ARMASPN      N2   R$  000000000121600000000012330000000001211000000000122200000000012330000000001217000000000123300881000000000000306400000000000374707000000000000000009999123100000010000000000000BRTASAACNPR4103
012024042902TCSA3       010TECNISA     ON      NM   R$  000000000024800000000002480000000000237000000000024100000000002420000000000240000000000024200214000000000000092200000000000022283800000000000000009999123100000010000000000000BRTCSAACNOR3112
012024042902TECN3       010TECHNOS     ON      NM   R$  000000000048500000000004980000000000473000000000048300000000004760000000000476000000000047900205000000000000122700000000000059362600000000000000009999123100000010000000000000BRTECNACNOR6109
012024042902TELB3       010TELEBRAS    ON           R$  000000000136600000000013660000000001366000000000136600000000013660000000001366000000000141500001000000000000000100000000000000136600000000000000009999123100000010000000000000BRTELBACNOR2140
012024042902TELB4       010TELEBRAS    PN           R$  000000000098500000000009980000000000936000000000097700000000009900000000000950000000000099100017000000000000002100000000000002053200000000000000009999123100000010000000000000BRTELBACNPR9140
012024042902TEND3       010TENDA       ON      NM   R$  000000000130500000000013330000000001288000000000131300000000013330000000001328000000000133307830000000000002539500000000003336213800000000000000009999123100000010000000000000BRTENDACNOR4111
012024042902EUCA3       010EUCATEX     ON      N1   R$  000000000164300000000016430000000001566000000000160400000000015660000000001569000000000160000002000000000000000200000000000000320900000000000000009999123100000010000000000000BREUCAACNOR1157
012024042902EUCA4       010EUCATEX     PN      N1   R$  000000000163800000000016380000000001550000000000157900000000016070000000001589000000000160900241000000000000038600000000000060967000000000000000009999123100000010000000000000BREUCAACNPR8044
012024042902EVEN3       010EVEN        ON      NM   R$  000000000072700000000007340000000000718000000000072500000000007260000000000721000000000072601229000000000000276000000000000200224500000000000000009999123100000010000000000000BREVENACNOR8118
012024042902EZTC3       010EZTEC       ON      NM   R$  000000000138800000000014380000000001380000000000141600000000014240000000001424000000000142505410000000000001793300000000002540861200000000000000009999123100000010000000000000BREZTCACNOR0124
012024042902HAGA3       010HAGA S/A    ON           R$  000000000025300000000002530000000000253000000000025000000000002530000000000244000000000024800002000000000000000200000000000000050100000000000000009999123100000010000000000000BRHAGAACNOR7103
012024042902HAGA4       010HAGA S/A    PN           R$  000000000011700000000001170000000000115000000000011600000000001150000000000115000000000011600003000000000000000300000000000000034900000000000000009999123100000010000000000000BRHAGAACNPR4103
012024042902HAPV3       010HAPVIDA     ON      NM   R$  000000000037600000000003910000000000376000000000038200000000003820000000000381000000000038224125000000000036499800000000013947841900000000000000009999123100000010000000000000BRHAPVACNOR4113
012024042902HBOR3       010HELBOR      ON      NM   R$  000000000027500000000002860000000000275000000000028200000000002850000000000285000000000028600597000000000000432900000000000122234700000000000000009999123100000010000000000000BRHBORACNOR3117
012024042902HBRE3       010HBR REALTY  ON      NM   R$  000000000053500000000005490000000000525000000000053400000000005370000000000536000000000053800916000000000000809200000000000432350700000000000000009999123100000010000000000000BRHBREACNOR4100
012024042902HBSA3       010HIDROVIAS   ON      NM   R$  000000000043300000000004400000000000431000000000043500000000004370000000000433000000000043703104000000000002485700000000001082090700000000000000009999123100000010000000000000BRHBSAACNOR0100
012024042902HETA4       010HERCULES    PN           R$  000000000055000000000006000000000000550000000000056200000000005520000000000552000000000059800014000000000000002300000000000001292700000000000000009999123100000010000000000000BRHETAACNPR9136
012024042902B3SA3       010B3          ON      NM   R$  000000000112000000000011310000000001109000000000111500000000011140000000001114000000000111531225000000000043235700000000048241529400000000000000009999123100000010000000000000BRB3SAACNOR6132
012024042902BRBI11      010BR PARTNERS UNT     N2   R$  000000000147800000000014960000000001473000000000148500000000014780000000001473000000000149700478000000000000072200000000000107252800000000000000009999123100000010000000000000BRBRBICDAM10108
012024042902ONCO3       010ONCOCLINICASON      NM   R$  000000000073000000000007360000000000689000000000071800000000007360000000000727000000000073619991000000000006170500000000004432556600000000000000009999123100000010000000000000BRONCOACNOR6100
012024042902OPCT3       010OCEANPACT   ON      NM   R$  000000000064900000000006500000000000639000000000064600000000006390000000000639000000000064500753000000000000426300000000000275530600000000000000009999123100000010000000000000BROPCTACNOR0100
012024042902ORVR3       010ORIZON      ON      NM   R$  000000000378500000000038860000000003783000000000385300000000038700000000003855000000000387301213000000000000375500000000001446994900000000000000009999123100000010000000000000BRORVRACNOR0101
012024042902MAPT3       010CEMEPE      ON           R$  000000000055100000000008100000000000551000000000071300000000006900000000000630000000000079900028000000000000003300000000000002355500000000000000009999123100000010000000000000BRMAPTACNOR8106
012024042902MAPT4       010CEMEPE      PN           R$  000000000072100000000008890000000000710000000000079400000000008380000000000782000000000083900029000000000000004500000000000003574700000000000000009999123100000010000000000000BRMAPTACNPR5106
012024042902MATD3       010MATER DEI   ON      NM   R$  000000000056600000000006000000000000556000000000057900000000005880000000000585000000000059001865000000000000883800000000000512570100000000000000009999123100000010000000000000BRMATDACNOR4103
012024042902MBLY3       010MOBLY       ON      NM   R$  000000000023400000000002380000000000232000000000023500000000002380000000000238000000000023900316000000000000218700000000000051536700000000000000009999123100000010000000000000BRMBLYACNOR5100
012024042902MDIA3       010M.DIASBRANCOON      NM   R$  000000000343000000000034870000000003419000000000343700000000034400000000003434000000000344304170000000000002142900000000007365326000000000000000009999123100000010000000000000BRMDIAACNOR7134
012024042902MDNE3       010MOURA DUBEUXON      NM   R$  000000000122200000000012420000000001194000000000121600000000012230000000001223000000000122401438000000000000510000000000000620342700000000000000009999123100000010000000000000BRMDNEACNOR9100
012024042902MEAL3       010IMC S/A     ON      NM   R$  000000000015700000000001630000000000157000000000016000000000001630000000000161000000000016300697000000000000458000000000000073478600000000000000009999123100000010000000000000BRMEALACNOR9105
012024042902MELK3       010MELNICK     ON      NM   R$  000000000045100000000004530000000000446000000000045000000000004510000000000451000000000045200524000000000000261300000000000117811500000000000000009999123100000010000000000000BRMELKACNOR8110
012024042902COCE5       010COELCE      PNA          R$  000000000353800000000035380000000003436000000000347100000000034650000000003465000000000357300090000000000000012600000000000043736400000000000000009999123100000010000000000000BRCOCEACNPA3146
012024042902COGN3       010COGNA ON    ON      NM   R$  000000000021600000000002260000000000215000000000022000000000002250000000000224000000000022514479000000000027519700000000006077498800000000000000009999123100000010000000000000BRCOGNACNOR2104
012024042902PLPL3       010PLANOEPLANO ON      NM   R$  000000000118600000000012050000000001169000000000118800000000011980000000001186000000000119802432000000000000661800000000000786813600000000000000009999123100000010000000000000BRPLPLACNOR5104
012024042902PNVL3       010DIMED       ON      NM   R$  000000000112200000000011300000000001114000000000112300000000011300000000001123000000000113000941000000000000148300000000000166636300000000000000009999123100000010000000000000BRPNVLACNOR9206
012024042902POMO3       010MARCOPOLO   ON      N2   R$  000000000053700000000005470000000000533000000000053800000000005390000000000537000000000053900800000000000000623400000000000335960400000000000000009999123100000010000000000000BRPOMOACNOR0097
012024042902POMO4       010MARCOPOLO   PN      N2   R$  000000000069300000000007090000000000693000000000069900000000006970000000000695000000000069708862000000000005247700000000003668230100000000000000009999123100000010000000000000BRPOMOACNPR7097
012024042902PORT3       010WILSON SONS ON  ED  NM   R$  000000000167300000000016800000000001669000000000167900000000016800000000001678000000000168001165000000000000378400000000000635378600000000000000009999123100000010000000000000BRPORTACNOR8107
012024042902POSI3       010POSITIVO TECON      NM   R$  000000000094800000000009530000000000906000000000092000000000009130000000000912000000000091403145000000000000923500000000000849902700000000000000009999123100000010000000000000BRPOSIACNOR9115
012024042902PRIO3       010PETRORIO    ON      NM   R$  000000000492000000000049560000000004883000000000492500000000049560000000004954000000000495617649000000000004722600000000023258911600000000000000009999123100000010000000000000BRPRIOACNOR1106
012024042902AALR3       010ALLIAR      ON      NM   R$  000000000101300000000010340000000001010000000000102400000000010260000000001026000000000103500150000000000000025100000000000025706900000000000000009999123100000010000000000000BRAALRACNOR6102
012024042902ABCB4       010ABC BRASIL  PN      N2   R$  000000000230000000000023190000000002284000000000230000000000023040000000002294000000000230401251000000000000415600000000000956111700000000000000009999123100000010000000000000BRABCBACNPR4145
012024042902ABEV3       010AMBEV S/A   ON           R$  000000000120000000000012130000000001196000000000120600000000012100000000001209000000000121127843000000000026520800000000031991949000000000000000009999123100000010000000000000BRABEVACNOR1127
012024042902BEES3       010BANESTES    ON           R$  000000000087400000000009500000000000873000000000089800000000009140000000000909000000000091500194000000000000038800000000000034876200000000000000009999123100000010000000000000BRBEESACNOR9389
012024042902BEES4       010BANESTES    PN           R$  000000000095400000000009750000000000953000000000096700000000009740000000000969000000000099200031000000000000005800000000000005609600000000000000009999123100000010000000000000BRBEESACNPR6314
012024042902BGIP3       010BANESE      ON           R$  000000000239900000000024200000000002399000000000240900000000024200000000000000000000000322500003000000000000000400000000000000963900000000000000009999123100000010000000000000BRBGIPACNOR1208
012024042902BGIP4       010BANESE      PN           R$  000000000221500000000022910000000002215000000000225200000000022910000000002225000000000244500003000000000000000300000000000000675600000000000000009999123100000010000000000000BRBGIPACNPR8208
012024042902BHIA3       010CASAS BAHIA ON      NM   R$  000000000062300000000007300000000000616000000000067400000000007300000000000728000000000073022675000000000032305600000000021781501300000000000000009999123100000010000000000000BRBHIAACNOR1101
012024042902CEBR3       010CEB         ON           R$  000000000269000000000027650000000002690000000000274000000000027450000000002745000000000276900110000000000000017000000000000046589700000000000000009999123100000010000000000000BRCEBRACNOR5124
012024042902CEBR5       010CEB         PNA          R$  000000000231900000000023500000000002250000000000229100000000022920000000002291000000000230900028000000000000007100000000000016272500000000000000009999123100000010000000000000BRCEBRACNPA8123
012024042902CEBR6       010CEB         PNB          R$  000000000239000000000024000000000002337000000000239200000000023950000000002390000000000241900038000000000000009500000000000022732800000000000000009999123100000010000000000000BRCEBRACNPB6123
012024042902CEDO3       010CEDRO       ON      N1   R$  000000000325000000000032700000000003200000000000324000000000032000000000003020000000000320000003000000000000000300000000000000972000000000000000009999123100000010000000000000BRCEDOACNOR8096
012024042902CEED3       010CEEE-D      ON           R$  000000000200100000000020010000000001900000000000192500000000019010000000001525000000000228500004000000000000000400000000000000770300000000000000009999123100000010000000000000BRCEEDACNOR9103
012024042902CGAS3       010COMGAS      ON           R$  000000001075300000000108000000000010600000000001067000000000106000000000010600000000001109000004000000000000000500000000000005335400000000000000009999123100000010000000000000BRCGASACNOR0163
012024042902CGAS5       010COMGAS      PNA          R$  000000001127000000000112700000000011133000000001122300000000112680000000011169000000001127000005000000000000000600000000000006734200000000000000009999123100000010000000000000BRCGASACNPA3160
012024042902CGRA3       010GRAZZIOTIN  ON  ES       R$  000000000273300000000027330000000002640000000000268600000000026400000000002619000000000267900002000000000000000200000000000000537300000000000000009999123100000010000000000000BRCGRAACNOR2082
012024042902CGRA4       010GRAZZIOTIN  PN  ES       R$  000000000266100000000026770000000002633000000000265900000000026450000000002645000000000265000020000000000000004600000000000012235600000000000000009999123100000010000000000000BRCGRAACNPR9082
012024042902CIEL3       010CIELO       ON      NM   R$  000000000055700000000005590000000000556000000000055800000000005590000000000558000000000055910540000000000016506200000000009211289600000000000000009999123100000010000000000000BRCIELACNOR3157
012024042902CLSA3       010CLEARSALE   ON      NM   R$  000000000076400000000007970000000000742000000000077500000000007800000000000775000000000078003443000000000001515600000000001174824200000000000000009999123100000010000000000000BRCLSAACNOR0100
012024042902CLSC3       010CELESC      ON      N2   R$  000000000673000000000067300000000006730000000000673000000000067300000000006401000000000699900001000000000000000300000000000002019000000000000000009999123100000010000000000000BRCLSCACNOR6150
012024042902CLSC4       010CELESC      PN      N2   R$  000000000692700000000069270000000006835000000000684400000000068350000000006835000000000687700017000000000000002600000000000017794800000000000000009999123100000010000000000000BRCLSCACNPR3129
012024042902CMIG3       010CEMIG       ON      N1   R$  000000000148000000000014930000000001471000000000147900000000014720000000001472000000000149300668000000000000194100000000000287201200000000000000009999123100000010000000000000BRCMIGACNOR6240
012024042902CMIG4       010CEMIG       PN      N1   R$  000000000126200000000012800000000001260000000000127000000000012690000000001269000000000127012027000000000008911600000000011326234700000000000000009999123100000010000000000000BRCMIGACNPR3241
012024042902CRPG5       010CRISTAL     PNA          R$  000000000304900000000030490000000002961000000000297600000000029610000000002961000000000298500024000000000000003700000000000011014400000000000000009999123100000010000000000000BRCRPGACNPA3118
012024042902CRPG6       010CRISTAL     PNB          R$  000000000297400000000029740000000002974000000000297400000000029740000000002950000000000296900001000000000000000100000000000000297400000000000000009999123100000010000000000000BRCRPGACNPB1118
012024042902CSAN3       010COSAN       ON      NM   R$  000000000147800000000014880000000001457000000000146800000000014680000000001464000000000146813706000000000009170400000000013462949500000000000000009999123100000010000000000000BRCSANACNOR6124
012024042902CSED3       010CRUZEIRO EDUON      NM   R$  000000000043200000000004440000000000420000000000043100000000004210000000000421000000000042800817000000000000776700000000000335021200000000000000009999123100000010000000000000BRCSEDACNOR9104
012024042902CSMG3       010COPASA      ON  ED  NM   R$  000000000208500000000020980000000002048000000000207000000000020760000000002075000000000207703541000000000001013300000000002097630200000000000000009999123100000010000000000000BRCSMGACNOR5173
012024042902EALT3       010ACO ALTONA  ON  EDJ      R$  000000000098700000000009870000000000987000000000098700000000009870000000000851000000000098700001000000000000000100000000000000098700000000000000009999123100000010000000000000BREALTACNOR4138
012024042902EALT4       010ACO ALTONA  PN  EDJ      R$  000000000103000000000010300000000000971000000000101900000000010230000000001023000000000102400019000000000000006200000000000006322400000000000000009999123100000010000000000000BREALTACNPR1138
012024042902ECOR3       010ECORODOVIAS ON      NM   R$  000000000074300000000007540000000000743000000000074800000000007510000000000744000000000075106040000000000004444600000000003325051500000000000000009999123100000010000000000000BRECORACNOR8119
012024042902EGIE3       010ENGIE BRASILON      NM   R$  000000000400000000000040940000000003991000000000406300000000040670000000004062000000000407708330000000000002510300000000010199423200000000000000009999123100000010000000000000BREGIEACNOR9125
012024042902GGPS3       010GPS         ON      NM   R$  000000000189600000000019340000000001888000000000191800000000019200000000001909000000000192002784000000000000960300000000001841861100000000000000009999123100000010000000000000BRGGPSACNOR9103
012024042902GMAT3       010GRUPO MATEUSON      NM   R$  000000000075400000000007680000000000751000000000076200000000007670000000000763000000000076705456000000000003283400000000002504975000000000000000009999123100000010000000000000BRGMATACNOR7101
012024042902JHSF3       010JHSF PART   ON      NM   R$  000000000043300000000004430000000000429000000000043500000000004430000000000436000000000044301790000000000001782000000000000775540900000000000000009999123100000010000000000000BRJHSFACNOR2134
012024042902CAMB3       010CAMBUCI     ON           R$  000000000102000000000010300000000001000000000000100900000000010050000000001005000000000100700177000000000000047400000000000047840100000000000000009999123100000010000000000000BRCAMBACNOR4128
012024042902CAML3       010CAMIL       ON      NM   R$  000000000083300000000008640000000000832000000000085300000000008640000000000846000000000086400842000000000000388000000000000331011300000000000000009999123100000010000000000000BRCAMLACNOR3127
012024042902CASH3       010MELIUZ      ON      NM   R$  000000000045600000000004620000000000449000000000045200000000004540000000000453000000000045401915000000000000997000000000000451071400000000000000009999123100000010000000000000BRCASHACNOR8106
012024042902CBAV3       010CBA         ON      NM   R$  000000000050100000000005190000000000498000000000050900000000005130000000000512000000000051304217000000000003040800000000001548072400000000000000009999123100000010000000000000BRCBAVACNOR5104
012024042902CCRO3       010CCR SA      ON  ED  NM   R$  000000000124500000000012550000000001240000000000124700000000012480000000001248000000000124910099000000000003635300000000004536319600000000000000009999123100000010000000000000BRCCROACNOR2145
012024042902CEAB3       010CEA MODAS   ON      NM   R$  000000000119700000000012030000000001155000000000118200000000011910000000001190000000000119104447000000000002155000000000002547695500000000000000009999123100000010000000000000BRCEABACNOR1102
012024042902CPFE3       010CPFL ENERGIAON  ED  NM   R$  000000000324900000000032550000000003186000000000322600000000032370000000003231000000000323806207000000000002946700000000009506233700000000000000009999123100000010000000000000BRCPFEACNOR0137
012024042902CPLE3       010COPEL       ON  ED  N2   R$  000000000083400000000008370000000000827000000000083200000000008360000000000836000000000083705445000000000003183800000000002652090300000000000000009999123100000010000000000000BRCPLEACNOR8149
012024042902CPLE5       010COPEL       PNA ED  N2   R$  000000000209800000000020980000000002098000000000209800000000020980000000000800000000000209900002000000000000002100000000000004405800000000000000009999123100000010000000000000BRCPLEACNPA1147
012024042902CPLE6       010COPEL       PNB ED  N2   R$  000000000090600000000009210000000000906000000000091500000000009170000000000916000000000091715964000000000012841200000000011758487300000000000000009999123100000010000000000000BRCPLEACNPB9146
012024042902CRFB3       010CARREFOUR BRON      NM   R$  000000000116700000000011690000000001153000000000116000000000011620000000001155000000000116306194000000000003125700000000003626877100000000000000009999123100000010000000000000BRCRFBACNOR2116
012024042902INEP3       010INEPAR      ON           R$  000000000032800000000003320000000000313000000000032300000000003280000000000324000000000032800151000000000000047600000000000015411000000000000000009999123100000010000000000000BRINEPACNOR1143
012024042902INEP4       010INEPAR      PN           R$  000000000029700000000003080000000000290000000000030200000000003050000000000298000000000030500093000000000000030800000000000009326200000000000000009999123100000010000000000000BRINEPACNPR8143
012024042902INTB3       010INTELBRAS   ON      NM   R$  000000000190500000000019180000000001878000000000189800000000019180000000001897000000000191803563000000000000756800000000001436921000000000000000009999123100000010000000000000BRINTBACNOR9111
012024042902IRBR3       010IRBBRASIL REON      NM   R$  000000000421500000000043270000000004153000000000426700000000043020000000004300000000000430604264000000000000948700000000004048634500000000000000009999123100000010000000000000BRIRBRACNOR4111
012024042902JALL3       010JALLESMACHADON      NM   R$  000000000072000000000007240000000000710000000000071900000000007230000000000721000000000072300995000000000000503100000000000361787700000000000000009999123100000010000000000000BRJALLACNOR0105
012024042902JBSS3       010JBS         ON      NM   R$  000000000229900000000023400000000002295000000000232800000000023400000000002338000000000234014335000000000006087700000000014176006600000000000000009999123100000010000000000000BRJBSSACNOR8121
012024042902BAHI3       010BAHEMA      ON      MA   R$  000000000082300000000008240000000000823000000000082300000000008240000000000760000000000082400002000000000000000200000000000000164700000000000000009999123100000010000000000000BRBAHIACNOR1074
012024042902BAUH4       010EXCELSIOR   PN           R$  000000000778500000000079900000000007785000000000794400000000079900000000000000000000000799000006000000000000000900000000000007150000000000000000009999123100000010000000000000BRBAUHACNPR3117
012024042902BAZA3       010AMAZONIA    ON  ERJ      R$  000000000990000000000102840000000009900000000001004000000000102840000000010001000000001028500038000000000000005800000000000058235200000000000000009999123100000010000000000000BRBAZAACNOR0179
012024042902BBAS3       010BRASIL      ON      NM   R$  000000000275700000000027660000000002738000000000275400000000027550000000002755000000000275621696000000000008658100000000023852346700000000000000009999123100000010000000000000BRBBASACNOR3322
012024042902BBSE3       010BBSEGURIDADEON      NM   R$  000000000321200000000032290000000003195000000000321600000000032290000000003222000000000322911338000000000003246400000000010440914700000000000000009999123100000010000000000000BRBBSEACNOR5124
012024042902BRIT3       010BRISANET    ON  ED  NM   R$  000000000039100000000004080000000000391000000000039900000000003990000000000395000000000039900557000000000000376400000000000150494900000000000000009999123100000010000000000000BRBRITACNOR0103
012024042902BRKM3       010BRASKEM     ON      N1   R$  000000000217900000000022550000000002170000000000221400000000021700000000002171000000000220000045000000000000006400000000000014172900000000000000009999123100000010000000000000BRBRKMACNOR1119
012024042902BRKM5       010BRASKEM     PNA     N1   R$  000000000227000000000023450000000002238000000000227500000000022380000000002238000000000224006978000000000002775200000000006316123400000000000000009999123100000010000000000000BRBRKMACNPA4121
012024042902BRSR3       010BANRISUL    ON      N1   R$  000000000125300000000012600000000001252000000000125800000000012600000000001252000000000126000028000000000000005300000000000006669100000000000000009999123100000010000000000000BRBRSRACNOR3186
012024042902BRSR6       010BANRISUL    PNB     N1   R$  000000000125300000000012670000000001247000000000125600000000012670000000001260000000000126802489000000000001158600000000001455323100000000000000009999123100000010000000000000BRBRSRACNPB4189
012024042902IFCM3       010INFRACOMM   ON      NM   R$  000000000007800000000000790000000000076000000000007700000000000760000000000076000000000007701208000000000003848500000000000296503300000000000000009999123100000010000000000000BRIFCMACNOR8101
012024042902IGTI11      010IGUATEMI S.AUNT ED  N1   R$  000000000210700000000021510000000002104000000000213800000000021430000000002132000000000214409783000000000002338900000000005001598400000000000000009999123100000010000000000000BRIGTICDAM16106
012024042902IGTI3       010IGUATEMI S.AON  ED  N1   R$  000000000029300000000002970000000000292000000000029400000000002920000000000292000000000029600057000000000000015700000000000004629100000000000000009999123100000010000000000000BRIGTIACNOR8106
012024042902GEPA3       010GER PARANAP ON           R$  000000000279900000000028000000000002799000000000279900000000028000000000002618000000000280000003000000000000000300000000000000839800000000000000009999123100000010000000000000BRGEPAACNOR2152
012024042902GEPA4       010GER PARANAP PN           R$  000000000279900000000028000000000002751000000000279700000000028000000000002799000000000280000028000000000000006600000000000018462100000000000000009999123100000010000000000000BRGEPAACNPR9159
012024042902GFSA3       010GAFISA      ON      NM   R$  000000000056000000000005600000000000545000000000054900000000005460000000000545000000000054801489000000000001037800000000000570505800000000000000009999123100000010000000000000BRGFSAACNOR3124
012024042902GGBR3       010GERDAU      ON  EB  N1   R$  000000000163200000000016560000000001624000000000164400000000016430000000001642000000000165600316000000000000062000000000000101946900000000000000009999123100000010000000000000BRGGBRACNOR1191
012024042902FLRY3       010FLEURY      ON      NM   R$  000000000146000000000014690000000001445000000000145700000000014620000000001461000000000146307764000000000002271200000000003311007500000000000000009999123100000010000000000000BRFLRYACNOR5138
012024042902FRAS3       010FRAS-LE     ON  ED  N1   R$  000000000180000000000018130000000001780000000000180000000000018030000000001792000000000180300572000000000000170900000000000307728700000000000000009999123100000010000000000000BRFRASACNOR0159
012024042902SRNA3       010SERENA      ON      NM   R$  000000000084600000000008580000000000839000000000084600000000008440000000000836000000000084403275000000000001019000000000000862357200000000000000009999123100000010000000000000BRSRNAACNOR4100
012024042902STBP3       010SANTOS BRP  ON      NM   R$  000000000137200000000013780000000001351000000000136500000000013640000000001356000000000136604898000000000003098600000000004231264900000000000000009999123100000010000000000000BRSTBPACNOR3129
012024042902SUZB3       010SUZANO S.A. ON      NM   R$  000000000595800000000059660000000005855000000000589900000000058900000000005882000000000589021192000000000005769400000000034036791900000000000000009999123100000010000000000000BRSUZBACNOR0129
012024042902WEST3       010WESTWING    ON      NM   R$  000000000011700000000001190000000000116000000000011600000000001180000000000117000000000011800035000000000000015100000000000001763900000000000000009999123100000010000000000000BRWESTACNOR3100
012024042902TFCO4       010TRACK FIELD PN      N2   R$  000000000114300000000011500000000001115000000000112800000000011150000000001115000000000112700199000000000000043100000000000048617300000000000000009999123100000010000000000000BRTFCOACNPR8112
012024042902TGMA3       010TEGMA       ON      NM   R$  000000000245500000000024710000000002418000000000243300000000024270000000002427000000000243900928000000000000208600000000000507627500000000000000009999123100000010000000000000BRTGMAACNOR7144
012024042902TIMS3       010TIM         ON      NM   R$  000000000174100000000017800000000001741000000000176400000000017600000000001760000000000176114454000000000005094000000000008986684600000000000000009999123100000010000000000000BRTIMSACNOR5116
012024042902VALE3       010VALE        ON      NM   R$  000000000628800000000063950000000006280000000000635300000000063900000000006390000000000639134636000000000018487200000000117454125500000000000000009999123100000010000000000000BRVALEACNOR0210
012024042902WLMM4       010WLM IND COM PN           R$  000000000335000000000033700000000003350000000000336300000000033700000000003286000000000337000005000000000000000600000000000002018000000000000000009999123100000010000000000000BRWLMMACNPR3117
012024042902RCSL3       010RECRUSUL    ON           R$  000000000015700000000001640000000000157000000000016100000000001620000000000162000000000016302015000000000001323200000000000213243800000000000000009999123100000010000000000000BRRCSLACNOR4133
012024042902RCSL4       010RECRUSUL    PN           R$  000000000005100000000000510000000000050000000000005000000000000500000000000049000000000005000703000000000000892200000000000044679000000000000000009999123100000010000000000000BRRCSLACNPR1133
012024042902RDNI3       010RNI         ON      NM   R$  000000000035300000000003640000000000353000000000035900000000003620000000000355000000000036200007000000000000000700000000000000251600000000000000009999123100000010000000000000BRRDNIACNOR9116
012024042902RDOR3       010REDE D OR   ON      NM   R$  000000000268000000000027020000000002635000000000266300000000026460000000002645000000000264620926000000000007834000000000020864890700000000000000009999123100000010000000000000BRRDORACNOR8112
012024042902RECV3       010PETRORECSA  ON  ED  NM   R$  000000000224900000000022490000000002175000000000221800000000022390000000002239000000000224007441000000000002399500000000005322931000000000000000009999123100000010000000000000BRRECVACNOR3106
012024042902VAMO3       010VAMOS       ON      NM   R$  000000000072500000000007480000000000725000000000074200000000007450000000000744000000000074508858000000000012097900000000008982046900000000000000009999123100000010000000000000BRVAMOACNOR7105
012024042902VBBR3       010VIBRA       ON  ED  NM   R$  000000000235600000000023770000000002351000000000236500000000023690000000002367000000000236912314000000000004861200000000011497121900000000000000009999123100000010000000000000BRVBBRACNOR1107
012024042902AVLL3       010ALPHAVILLE  ON      NM   R$  000000000036800000000003680000000000368000000000036800000000003680000000000300000000000036000001000000000000000100000000000000036800000000000000009999123100000010000000000000BRAVLLACNOR5103
012024042902AZEV3       010AZEVEDO     ON           R$  000000000013500000000001390000000000133000000000013500000000001370000000000136000000000013700379000000000000430200000000000058421400000000000000009999123100000010000000000000BRAZEVACNOR0121
012024042902AZEV4       010AZEVEDO     PN           R$  000000000012500000000001310000000000121000000000012600000000001270000000000126000000000012700924000000000003254500000000000410382800000000000000009999123100000010000000000000BRAZEVACNPR7121
012024042902AZUL4       010AZUL        PN      N2   R$  000000000098200000000010220000000000982000000000100600000000010030000000001002000000000100316747000000000018286300000000018404405200000000000000009999123100000010000000000000BRAZULACNPR4102
012024042902BBDC3       010BRADESCO    ON      N1   R$  000000000122000000000012390000000001218000000000123100000000012390000000001236000000000123909757000000000004219100000000005197144000000000000000009999123100000010000000000000BRBBDCACNOR1768
012024042902BBDC4       010BRADESCO    PN      N1   R$  000000000138900000000014060000000001384000000000139900000000014060000000001404000000000140723559000000000025762000000000036045737700000000000000009999123100000010000000000000BRBBDCACNPR8768
012024042902BPAN4       010BANCO PAN   PN      N1   R$  000000000091600000000009220000000000906000000000091400000000009160000000000912000000000091601305000000000000806300000000000737095800000000000000009999123100000010000000000000BRBPANACNPR1115
012024042902BRAP3       010BRADESPAR   ON      N1   R$  000000000204000000000020900000000002033000000000207100000000020900000000002071000000000209000664000000000000216100000000000447589900000000000000009999123100000010000000000000BRBRAPACNOR5147
012024042902BRAP4       010BRADESPAR   PN      N1   R$  000000000212000000000021510000000002108000000000213700000000021460000000002145000000000214713376000000000007311000000000015626847100000000000000009999123100000010000000000000BRBRAPACNPR2147
012024042902ESPA3       010ESPACOLASER ON      NM   R$  000000000009300000000000970000000000093000000000009500000000000960000000000096000000000009700134000000000000498000000000000047719800000000000000009999123100000010000000000000BRESPAACNOR7103
012024042902WHRL3       010WHIRLPOOL   ON           R$  000000000047600000000004760000000000475000000000047500000000004760000000000461000000000047400004000000000000001200000000000000571100000000000000009999123100000010000000000000BRWHRLACNOR5128
012024042902WHRL4       010WHIRLPOOL   PN           R$  000000000046500000000004670000000000465000000000046500000000004660000000000465000000000046700020000000000000008500000000000003952800000000000000009999123100000010000000000000BRWHRLACNPR2128
012024042902WIZC3       010WIZ CO      ON      NM   R$  000000000073900000000007400000000000719000000000072600000000007250000000000725000000000072601058000000000000270900000000000196791600000000000000009999123100000010000000000000BRWIZCACNOR5101
012024042902REDE3       010REDE ENERGIAON           R$  000000000068800000000007050000000000676000000000069300000000006870000000000687000000000070200021000000000000003500000000000002425600000000000000009999123100000010000000000000BRREDEACNOR7127
012024042902RENT3       010LOCALIZA    ON      NM   R$  000000000500500000000050840000000005005000000000504500000000050550000000005046000000000505515412000000000003845800000000019404616800000000000000009999123100000010000000000000BRRENTACNOR4195
012024042902ROMI3       010ROMI        ON      NM   R$  000000000103800000000010590000000001032000000000103600000000010400000000001038000000000104000963000000000000176700000000000183171400000000000000009999123100000010000000000000BRROMIACNOR8194
012024042902RPAD3       010ALFA HOLDINGON           R$  000000000088000000000008970000000000880000000000088200000000008970000000000849000000000089700002000000000000000600000000000000529700000000000000009999123100000010000000000000BRRPADACNOR1198
012024042902RRRP3       0103R PETROLEUMON      NM   R$  000000000353500000000035430000000003345000000000341100000000034490000000003446000000000344919232000000000007841600000000026751087000000000000000009999123100000010000000000000BRRRRPACNOR5102
012024042902SLCE3       010SLC AGRICOLAON      NM   R$  000000000187700000000019240000000001872000000000191100000000019190000000001919000000000192106082000000000001673800000000003199135000000000000000009999123100000010000000000000BRSLCEACNOR2124
012024042902SMFT3       010SMART FIT   ON      NM   R$  000000000251800000000025420000000002512000000000252400000000025180000000002517000000000252506162000000000001221600000000003083782500000000000000009999123100000010000000000000BRSMFTACNOR1111
012024042902SMTO3       010SAO MARTINHOON      NM   R$  000000000281300000000028930000000002778000000000285400000000028850000000002881000000000288805683000000000001674800000000004781364900000000000000009999123100000010000000000000BRSMTOACNOR3125
012024042902VIVR3       010VIVER       ON      NM   R$  000000000030900000000003090000000000301000000000030300000000003040000000000302000000000030400087000000000000056000000000000017007800000000000000009999123100000010000000000000BRVIVRACNOR4122
012024042902VIVT3       010TELEF BRASILON           R$  000000000479800000000048700000000004788000000000481800000000047930000000004793000000000480506742000000000001634300000000007874237200000000000000009999123100000010000000000000BRVIVTACNOR0180
012024042902VLID3       010VALID       ON  ED  NM   R$  000000000181300000000018320000000001805000000000181900000000018240000000001818000000000182401101000000000000148700000000000270531500000000000000009999123100000010000000000000BRVLIDACNOR5142
012024042902VSTE3       010VESTE       ON  ED  NM   R$  000000000147400000000015200000000001470000000000148400000000014710000000001470000000000155800016000000000000002400000000000003562800000000000000009999123100000010000000000000BRVSTEACNOR5103
012024042902VULC3       010VULCABRAS   ON      NM   R$  000000000164000000000016420000000001610000000000162300000000016230000000001610000000000162301867000000000000420900000000000683124500000000000000009999123100000010000000000000BRVULCACNOR2158
012024042902VVEO3       010VIVEO       ON      NM   R$  000000000055100000000005650000000000520000000000053300000000005300000000000527000000000053005202000000000002278500000000001215090300000000000000009999123100000010000000000000BRVVEOACNOR0103
012024042902WEGE3       010WEG         ON      NM   R$  000000000392200000000039470000000003894000000000392700000000039360000000003931000000000393613497000000000004677100000000018367409000000000000000009999123100000010000000000000BRWEGEACNOR0222
012024042902DASA3       010DASA        ON      NM   R$  000000000046000000000004860000000000452000000000046800000000004710000000000465000000000047101754000000000000726800000000000340511000000000000000009999123100000010000000000000BRDASAACNOR1122
012024042902DESK3       010DESKTOP     ON  ED  NM   R$  000000000132500000000013250000000001293000000000130300000000012960000000001295000000000130600622000000000000115600000000000150641100000000000000009999123100000010000000000000BRDESKACNOR2104
012024042902DEXP3       010DEXXOS PAR  ON      N1   R$  000000000112400000000011390000000001101000000000111000000000011080000000001108000000000110900188000000000000048000000000000053307200000000000000009999123100000010000000000000BRDEXPACNOR1104
012024042902DIRR3       010DIRECIONAL  ON      NM   R$  000000000244000000000024590000000002380000000000241100000000024170000000002416000000000241905559000000000001224800000000002953319000000000000000009999123100000010000000000000BRDIRRACNOR0117
012024042902DMVF3       010D1000VFARMA ON      NM   R$  000000000072000000000007470000000000704000000000072900000000007380000000000728000000000073802212000000000000311800000000000227594400000000000000009999123100000010000000000000BRDMVFACNOR9100
012024042902DOHL3       010DOHLER      ON           R$  000000000063500000000006350000000000635000000000063500000000006350000000000500000000000063000001000000000000000100000000000000063500000000000000009999123100000010000000000000BRDOHLACNOR2063
012024042902DOTZ3       010DOTZ SA     ON      NM   R$  000000000072800000000007650000000000680000000000071400000000007600000000000689000000000077000093000000000000023900000000000017087000000000000000009999123100000010000000000000BRDOTZACNOR7101
012024042902DTCY3       010DTCOM-DIRECTON           R$  000000000050000000000005200000000000500000000000051000000000005200000000000000000000000052000002000000000000000200000000000000102000000000000000009999123100000010000000000000BRDTCYACNOR5109
012024042902DXCO3       010DEXCO       ON      NM   R$  000000000073100000000007420000000000728000000000073400000000007350000000000732000000000073503966000000000002404600000000001767098900000000000000009999123100000010000000000000BRDXCOACNOR8105
012024042902ENEV3       010ENEVA       ON      NM   R$  000000000127700000000012870000000001259000000000126900000000012620000000001262000000000126609950000000000003890300000000004938958200000000000000009999123100000010000000000000BRENEVACNOR8105
012024042902ENGI11      010ENERGISA    UNT     N2   R$  000000000461500000000046800000000004568000000000462000000000045880000000004565000000000459108589000000000001959000000000009050836800000000000000009999123100000010000000000000BRENGICDAM16135
012024042902ENGI3       010ENERGISA    ON      N2   R$  000000000144800000000014880000000001448000000000146500000000014880000000001469000000000150000048000000000000012400000000000018170000000000000000009999123100000010000000000000BRENGIACNOR0145
012024042902ENGI4       010ENERGISA    PN      N2   R$  000000000079200000000007950000000000773000000000078700000000007730000000000773000000000078900037000000000000007000000000000005514800000000000000009999123100000010000000000000BRENGIACNPR7141
012024042902ENJU3       010ENJOEI      ON      NM   R$  000000000021500000000002300000000000213000000000021900000000002130000000000213000000000021503353000000000004351300000000000956442100000000000000009999123100000010000000000000BRENJUACNOR9100
012024042902EPAR3       010EMBPAR S/A  ON           R$  000000000075900000000007670000000000755000000000076000000000007600000000000757000000000076000019000000000000008800000000000006689800000000000000009999123100000010000000000000BREPARACNOR9104
012024042902EQPA3       010EQTL PARA   ON           R$  000000000081200000000008300000000000811000000000082300000000008170000000000816000000000082900038000000000000013200000000000010874600000000000000009999123100000010000000000000BREQPAACNOR1110
012024042902EQTL3       010EQUATORIAL  ON      NM   R$  000000000311300000000031530000000003061000000000310900000000031000000000003100000000000310216224000000000005196000000000016156971200000000000000009999123100000010000000000000BREQTLACNOR0129
012024042902GOAU3       010GERDAU MET  ON      N1   R$  000000000105900000000010840000000001059000000000107200000000010660000000001066000000000107500136000000000000032000000000000034317800000000000000009999123100000010000000000000BRGOAUACNOR1266
012024042902GOAU4       010GERDAU MET  PN      N1   R$  000000000106500000000010740000000001056000000000106600000000010660000000001066000000000106708655000000000010915600000000011639012600000000000000009999123100000010000000000000BRGOAUACNPR8267
012024042902GRND3       010GRENDENE    ON      NM   R$  000000000061100000000006250000000000611000000000061800000000006250000000000615000000000062501616000000000001011500000000000625232100000000000000009999123100000010000000000000BRGRNDACNOR3172
012024042902GSHP3       010GENERALSHOPPON           R$  000000000108000000000010800000000001080000000000108000000000010800000000001080000000000122500001000000000000000100000000000000108000000000000000009999123100000010000000000000BRGSHPACNOR7102
012024042902GUAR3       010GUARARAPES  ON      NM   R$  000000000072800000000007300000000000714000000000072200000000007260000000000720000000000072702277000000000000854900000000000617301300000000000000009999123100000010000000000000BRGUARACNOR4172
012024042902ALPK3       010ESTAPAR     ON      NM   R$  000000000039900000000004080000000000396000000000040000000000003970000000000396000000000040200229000000000000055600000000000022281100000000000000009999123100000010000000000000BRALPKACNOR9101
012024042902ALUP11      010ALUPAR      UNT EDB N2   R$  000000000276500000000028020000000002756000000000278400000000027950000000002782000000000279501579000000000001083500000000003017443500000000000000009999123100000010000000000000BRALUPCDAM15118
012024042902ALUP3       010ALUPAR      ON  EDB N2   R$  000000000092000000000009380000000000920000000000093000000000009320000000000932000000000093500080000000000000013600000000000012650000000000000000009999123100000010000000000000BRALUPACNOR8118
012024042902ALUP4       010ALUPAR      PN  EDB N2   R$  000000000092600000000009330000000000912000000000092300000000009310000000000930000000000093100093000000000000016000000000000014778400000000000000009999123100000010000000000000BRALUPACNPR5118
012024042902AMAR3       010LOJAS MARISAON      NM   R$  000000000015700000000001580000000000152000000000015600000000001550000000000155000000000015700614000000000000272500000000000042512000000000000000009999123100000010000000000000BRAMARACNOR4114
012024042902AMBP3       010AMBIPAR     ON      NM   R$  000000000104200000000010550000000001020000000000103600000000010390000000001038000000000103902317000000000000840600000000000871208600000000000000009999123100000010000000000000BRAMBPACNOR6103
012024042902ANIM3       010ANIMA       ON      NM   R$  000000000037100000000003740000000000357000000000036300000000003610000000000360000000000036104550000000000003744200000000001361148000000000000000009999123100000010000000000000BRANIMACNOR6107
012024042902APER3       010ALPER S.A.  ON           R$  000000000441000000000045100000000004402000000000446400000000044100000000004403000000000450000010000000000000001000000000000004464100000000000000009999123100000010000000000000BRAPERACNOR9106
012024042902ARML3       010ARMAC       ON      NM   R$  000000000112300000000011390000000001113000000000113000000000011340000000001131000000000113502992000000000000576100000000000651032900000000000000009999123100000010000000000000BRARMLACNOR1111
012024042902ARZZ3       010AREZZO CO   ON      NM   R$  000000000518000000000052930000000005158000000000521500000000051890000000005162000000000519212448000000000002121900000000011066694200000000000000009999123100000010000000000000BRARZZACNOR3146
012024042902CXSE3       010CAIXA SEGURION  EDR NM   R$  000000000157600000000015840000000001506000000000154800000000015640000000001563000000000156411210000000000006035800000000009347796300000000000000009999123100000010000000000000BRCXSEACNOR7106
012024042902CYRE3       010CYRELA REALTON  ED  NM   R$  000000000209300000000021240000000002085000000000210500000000021070000000002105000000000210809468000000000002635600000000005548418700000000000000009999123100000010000000000000BRCYREACNOR7140
012024042902ELMD3       010ELETROMIDIA ON  ED  NM   R$  000000000175000000000017560000000001715000000000173500000000017530000000001738000000000175300269000000000000036200000000000062807800000000000000009999123100000010000000000000BRELMDACNOR3101
012024042902EMAE3       010EMAE        ON           R$  000000000692800000000069280000000006928000000000692800000000069280000000007011000000000650000001000000000000000100000000000000692800000000000000009999123100000010000000000000BREMAEACNOR4125
012024042902EMAE4       010EMAE        PN           R$  000000000589400000000058990000000005600000000000573800000000058250000000005710000000000584800027000000000000003600000000000020660100000000000000009999123100000010000000000000BREMAEACNPR1125
012024042902EMBR3       010EMBRAER     ON      NM   R$  000000000331500000000033540000000003295000000000332700000000033300000000003330000000000333112731000000000005785600000000019253472100000000000000009999123100000010000000000000BREMBRACNOR4191
012024042902ENAT3       010ENAUTA PART ON      NM   R$  000000000288100000000028970000000002759000000000280800000000028210000000002814000000000282105252000000000001781500000000005003951400000000000000009999123100000010000000000000BRENATACNOR0104
012024042902ITSA3       010ITAUSA      ON      N1   R$  000000000096900000000009690000000000958000000000096300000000009680000000000965000000000096800284000000000000084600000000000081495500000000000000009999123100000010000000000000BRITSAACNOR0439
012024042902ITSA4       010ITAUSA      PN      N1   R$  000000000097000000000009730000000000957000000000096400000000009660000000000965000000000096714785000000000016735600000000016135257800000000000000009999123100000010000000000000BRITSAACNPR7439
012024042902LOGN3       010LOG-IN      ON      NM   R$  000000000395300000000039830000000003907000000000393400000000039250000000003925000000000398400129000000000000016400000000000064533300000000000000009999123100000010000000000000BRLOGNACNOR3105
012024042902LPSB3       010LOPES BRASILON      NM   R$  000000000022500000000002330000000000218000000000022400000000002260000000000225000000000022700154000000000000087000000000000019524400000000000000009999123100000010000000000000BRLPSBACNOR0113
012024042902LREN3       010LOJAS RENNERON      NM   R$  000000000157200000000015820000000001559000000000156900000000015690000000001569000000000157012373000000000005978100000000009379859300000000000000009999123100000010000000000000BRLRENACNOR1220
012024042902LUPA3       010LUPATECH    ON      NM   R$  000000000014800000000001530000000000145000000000014700000000001470000000000146000000000014700312000000000000199200000000000029323400000000000000009999123100000010000000000000BRLUPAACNOR8112
012024042902LVTC3       010WDC NETWORKSON      NM   R$  000000000037900000000003790000000000375000000000037500000000003770000000000375000000000037800029000000000000007200000000000002704900000000000000009999123100000010000000000000BRLVTCACNOR4102
012024042902LWSA3       010LWSA        ON      NM   R$  000000000047000000000004800000000000465000000000047200000000004750000000000475000000000047610234000000000006203700000000002933571000000000000000009999123100000010000000000000BRLWSAACNOR8103
012024042902MILS3       010MILLS       ON      NM   R$  000000000134500000000013560000000001328000000000133800000000013450000000001344000000000134501853000000000000914800000000001224580600000000000000009999123100000010000000000000BRMILSACNOR2125
012024042902MLAS3       010MULTILASER  ON      NM   R$  000000000019600000000001990000000000195000000000019600000000001980000000000196000000000019902349000000000001961200000000000384716900000000000000009999123100000010000000000000BRMLASACNOR9101
012024042902MOVI3       010MOVIDA      ON      NM   R$  000000000072800000000007440000000000722000000000073100000000007320000000000731000000000073203490000000000001754700000000001283855500000000000000009999123100000010000000000000BRMOVIACNOR0122
012024042902MRFG3       010MARFRIG     ON      NM   R$  000000000097200000000009800000000000963000000000096800000000009680000000000967000000000096906809000000000002941400000000002849556800000000000000009999123100000010000000000000BRMRFGACNOR0116
012024042902AERI3       010AERIS       ON      NM   R$  000000000005700000000000580000000000056000000000005700000000000570000000000056000000000005703093000000000001595500000000000091466600000000000000009999123100000010000000000000BRAERIACNOR4101
012024042902AESB3       010AES BRASIL  ON  ED  NM   R$  000000000091900000000009550000000000917000000000094100000000009500000000000950000000000095206511000000000002866900000000002700583800000000000000009999123100000010000000000000BRAESBACNOR7106
012024042902AFLT3       010AFLUENTE T  ON           R$  000000000074900000000007490000000000749000000000074900000000007490000000000726000000000076800001000000000000000100000000000000074900000000000000009999123100000010000000000000BRAFLTACNOR1121
012024042902AGRO3       010BRASILAGRO  ON      NM   R$  000000000253600000000026130000000002535000000000258200000000026010000000002595000000000260102313000000000000362800000000000936977000000000000000009999123100000010000000000000BRAGROACNOR7114
012024042902AGXY3       010AGROGALAXY  ON      NM   R$  000000000017400000000001760000000000170000000000017200000000001730000000000173000000000017400261000000000000152500000000000026373400000000000000009999123100000010000000000000BRAGXYACNOR4102
012024042902AHEB3       010SPTURIS     ON           R$  000000000222300000000022230000000002222000000000222200000000022220000000001922000000000240000002000000000000000200000000000000444500000000000000009999123100000010000000000000BRAHEBACNOR0106
012024042902ALLD3       010ALLIED      ON      NM   R$  000000000075500000000007680000000000735000000000074400000000007430000000000743000000000075300592000000000000112300000000000083563800000000000000009999123100000010000000000000BRALLDACNOR3106
012024042902ALOS3       010ALLOS       ON      NM   R$  000000000214500000000021610000000002135000000000214800000000021500000000002148000000000215006142000000000002023400000000004346290400000000000000009999123100000010000000000000BRALOSACNOR5100
012024042902ALPA3       010ALPARGATAS  ON      N1   R$  000000000096500000000009990000000000965000000000097900000000009900000000000887000000000099800045000000000000004700000000000004602700000000000000009999123100000010000000000000BRALPAACNOR0231
012024042902ALPA4       010ALPARGATAS  PN      N1   R$  000000000094000000000009800000000000935000000000096300000000009770000000000976000000000097709291000000000005804600000000005590751800000000000000009999123100000010000000000000BRALPAACNPR7232
012024042902CSNA3       010SID NACIONALON           R$  000000000141300000000014300000000001401000000000141600000000014210000000001419000000000142111823000000000007069100000000010016837800000000000000009999123100000010000000000000BRCSNAACNOR6260
012024042902CSRN3       010COSERN      ON           R$  000000000235200000000023520000000002351000000000235100000000023510000000002370000000000245200002000000000000000200000000000000470300000000000000009999123100000010000000000000BRCSRNACNOR0192
012024042902CSUD3       010CSU DIGITAL ON      NM   R$  000000000182900000000018440000000001804000000000182200000000018240000000001815000000000182400201000000000000032200000000000058688700000000000000009999123100000010000000000000BRCSUDACNOR5108
012024042902CTKA4       010KARSTEN     PN           R$  000000000190000000000019300000000001900000000000191500000000019300000000001800000000000193000002000000000000000200000000000000383000000000000000009999123100000010000000000000BRCTKAACNPR7043
012024042902CTNM4       010COTEMINAS   PN           R$  000000000010700000000001100000000000104000000000010600000000001040000000000104000000000010700097000000000000077400000000000008221500000000000000009999123100000010000000000000BRCTNMACNPR6129
012024042902CTSA3       010SANTANENSE  ON           R$  000000000026000000000002960000000000253000000000027700000000002720000000000271000000000029200054000000000000016400000000000004545900000000000000009999123100000010000000000000BRCTSAACNOR3062
012024042902CTSA4       010SANTANENSE  PN           R$  000000000012300000000001490000000000123000000000013500000000001370000000000137000000000013800149000000000000093400000000000012682200000000000000009999123100000010000000000000BRCTSAACNPR0062
012024042902CURY3       010CURY S/A    ON      NM   R$  000000000199900000000020340000000001988000000000200000000000020100000000002010000000000201107196000000000001599700000000003200911900000000000000009999123100000010000000000000BRCURYACNOR3107
012024042902CVCB3       010CVC BRASIL  ON      NM   R$  000000000021000000000002140000000000207000000000021000000000002080000000000208000000000020906714000000000012068000000000002539531200000000000000009999123100000010000000000000BRCVCBACNOR1115
012024042902EKTR4       010ELEKTRO     PN           R$  000000000394500000000040730000000003945000000000398200000000039800000000003975000000000405900005000000000000000600000000000002389600000000000000009999123100000010000000000000BREKTRACNPR7161
012024042902ELET3       010ELETROBRAS  ON  ED  N1   R$  000000000373200000000037720000000003711000000000375600000000037630000000003748000000000376424426000000000010734900000000040328110700000000000000009999123100000010000000000000BRELETACNOR6160
012024042902ELET6       010ELETROBRAS  PNB ED  N1   R$  000000000407000000000041600000000004070000000000412300000000041220000000004110000000000412306889000000000001676200000000006911515200000000000000009999123100000010000000000000BRELETACNPB7077
012024042902SANB11      010SANTANDER BRUNT EJ       R$  000000000274500000000028160000000002730000000000279500000000028130000000002804000000000281312673000000000005269200000000014731753500000000000000009999123100000010000000000000BRSANBCDAM13164
012024042902SANB3       010SANTANDER BRON  EJ       R$  000000000128700000000013210000000001282000000000130200000000013150000000001310000000000131500818000000000000168700000000000219733200000000000000009999123100000010000000000000BRSANBACNOR8171
012024042902SANB4       010SANTANDER BRPN  EJ       R$  000000000145600000000014930000000001450000000000147800000000014910000000001488000000000149100747000000000000157300000000000232629500000000000000009999123100000010000000000000BRSANBACNPR5171
012024042902SAPR11      010SANEPAR     UNT     N2   R$  000000000259500000000026130000000002580000000000259400000000025970000000002596000000000259701877000000000000500500000000001298571900000000000000009999123100000010000000000000BRSAPRCDAM13117
012024042902SAPR3       010SANEPAR     ON      N2   R$  000000000049800000000005020000000000496000000000049800000000004970000000000497000000000049800325000000000000115300000000000057438200000000000000009999123100000010000000000000BRSAPRACNOR9158
012024042902SAPR4       010SANEPAR     PN      N2   R$  000000000052500000000005280000000000520000000000052300000000005260000000000522000000000052601455000000000000992100000000000519598800000000000000009999123100000010000000000000BRSAPRACNPR6158
012024042902KRSA3       010KORA SAUDE  ON      NM   R$  000000000008600000000000890000000000086000000000008600000000000870000000000086000000000008800214000000000001921000000000000166436000000000000000009999123100000010000000000000BRKRSAACNOR0100
012024042902LAND3       010TERRASANTAPAON  ED  NM   R$  000000000144800000000015000000000001430000000000146000000000014300000000001424000000000143000205000000000000069500000000000101538500000000000000009999123100000010000000000000BRLANDACNOR9103
012024042902LAVV3       010LAVVI       ON      NM   R$  000000000088200000000008860000000000870000000000087600000000008800000000000876000000000088001560000000000000493600000000000432744900000000000000009999123100000010000000000000BRLAVVACNOR4111
012024042902LEVE3       010METAL LEVE  ON      NM   R$  000000000332600000000033690000000003312000000000333500000000033260000000003326000000000333502499000000000000579500000000001933035900000000000000009999123100000010000000000000BRLEVEACNOR2196
012024042902LIPR3       010ELETROPAR   ON           R$  000000000493100000000049310000000004931000000000493100000000049310000000003938000000000538000001000000000000000100000000000000493100000000000000009999123100000010000000000000BRLIPRACNOR7121
012024042902LJQQ3       010QUERO-QUERO ON      NM   R$  000000000049700000000005020000000000428000000000044700000000004370000000000436000000000043707482000000000008351700000000003733635500000000000000009999123100000010000000000000BRLJQQACNOR5104
012024042902LOGG3       010LOG COM PROPON      NM   R$  000000000219900000000022200000000002147000000000218100000000022200000000002151000000000222001030000000000000159900000000000348854700000000000000009999123100000010000000000000BRLOGGACNOR7107
012024042902PFRM3       010PROFARMA    ON      NM   R$  000000000059000000000006070000000000570000000000058800000000005990000000000599000000000060000650000000000000272000000000000160060300000000000000009999123100000010000000000000BRPFRMACNOR1116
012024042902PGMN3       010PAGUE MENOS ON      NM   R$  000000000025900000000002650000000000259000000000026000000000002650000000000263000000000026500833000000000000545900000000000142375900000000000000009999123100000010000000000000BRPGMNACNOR8103
012024042902PINE3       010PINE        ON      N2   R$  000000000058200000000005860000000000577000000000058000000000005860000000000580000000000064800005000000000000000600000000000000348000000000000000009999123100000010000000000000BRPINEACNOR1149
012024042902PINE4       010PINE        PN      N2   R$  000000000044500000000004470000000000436000000000044000000000004430000000000441000000000044400628000000000000179200000000000078865400000000000000009999123100000010000000000000BRPINEACNPR8149
012024042902JSLG3       010JSL         ON      NM   R$  000000000120000000000012300000000001186000000000120900000000012300000000001192000000000123000728000000000000224500000000000271559800000000000000009999123100000010000000000000BRJSLGACNOR2121
012024042902KEPL3       010KEPLER WEBERON      NM   R$  000000000098700000000009910000000000975000000000098100000000009780000000000978000000000098201251000000000000385600000000000378374400000000000000009999123100000010000000000000BRKEPLACNOR1062
012024042902KLBN11      010KLABIN S/A  UNT     N2   R$  000000000230900000000023140000000002292000000000230700000000023140000000002314000000000231509415000000000004307900000000009938737800000000000000009999123100000010000000000000BRKLBNCDAM18140
012024042902KLBN3       010KLABIN S/A  ON      N2   R$  000000000046100000000004630000000000459000000000046000000000004610000000000461000000000046300662000000000000309000000000000142280100000000000000009999123100000010000000000000BRKLBNACNOR2168
012024042902KLBN4       010KLABIN S/A  PN      N2   R$  000000000046300000000004640000000000459000000000046000000000004630000000000462000000000046301922000000000000848200000000000390957800000000000000009999123100000010000000000000BRKLBNACNPR9168
012024042902BEEF3       010MINERVA     ON      NM   R$  000000000061400000000006190000000000612000000000061500000000006170000000000617000000000061804966000000000003496900000000002152200400000000000000009999123100000010000000000000BRBEEFACNOR6116
012024042902BSLI3       010BRB BANCO   ON           R$  000000000093100000000009770000000000921000000000094400000000009770000000000931000000000099100018000000000000005400000000000005100000000000000000009999123100000010000000000000BRBSLIACNOR5192
012024042902BSLI4       010BRB BANCO   PN           R$  000000000099600000000009970000000000950000000000098100000000009960000000000950000000000099600015000000000000001800000000000001766500000000000000009999123100000010000000000000BRBSLIACNPR2192
012024042902UCAS3       010UNICASA     ON      NM   R$  000000000023600000000002440000000000234000000000024100000000002440000000000241000000000024400084000000000000025100000000000006062000000000000000009999123100000010000000000000BRUCASACNOR1113
012024042902UGPA3       010ULTRAPAR    ON      NM   R$  000000000263700000000026630000000002632000000000264500000000026440000000002643000000000264406950000000000001780500000000004710049700000000000000009999123100000010000000000000BRUGPAACNOR8155
012024042902UNIP3       010UNIPAR      ON  EB       R$  000000000535600000000053560000000005271000000000528500000000052860000000005282000000000528500067000000000000007400000000000039109800000000000000009999123100000010000000000000BRUNIPACNOR7206
012024042902UNIP5       010UNIPAR      PNA EB       R$  000000000572400000000057240000000005724000000000572400000000057240000000005550000000000590000001000000000000000100000000000000572400000000000000009999123100000010000000000000BRUNIPACNPA0208
012024042902UNIP6       010UNIPAR      PNB EB       R$  000000000534100000000053980000000005312000000000534600000000053580000000005344000000000535801044000000000000224900000000001202491100000000000000009999123100000010000000000000BRUNIPACNPB8206
012024042907TXRX4       010TEX RENAUX  PN           R$  000000000024400000000002450000000000230000000000024300000000002300000000000230000000000024000004000000000000001400000000000000340300000000000000009999123100000010000000000000BRTXRXACNPR0142
012024042907NUTR3       010NUTRIPLANT  ON      MA   R$  000000000050000000000005270000000000471000000000049400000000004980000000000471000000000050100087000000000000020900000000000010338800000000000000009999123100000010000000000000BRNUTRACNOR0104
012024042908NEXP3       010NEXPE       ON      NM   R$  000000000042700000000004270000000000422000000000042500000000004220000000000421000000000042800019000000000000003400000000000001445700000000000000009999123100000010000000000000BRNEXPACNOR0101
012024042908ATMP3       010ATMASA      ON           R$  000000000020200000000002030000000000198000000000020000000000002030000000000198000000000020300011000000000000002500000000000000501700000000000000009999123100000010000000000000BRATMPACNOR8100
012024042908RSID3       010ROSSI RESID ON      NM   R$  000000000052900000000005300000000000518000000000052100000000005220000000000515000000000052200065000000000000011100000000000005788200000000000000009999123100000010000000000000BRRSIDACNOR8120
012024042908HOOT4       010HOTEIS OTHONPN           R$  000000000027900000000002850000000000279000000000027900000000002850000000000279000000000028500008000000000000002100000000000000587500000000000000009999123100000010000000000000BRHOOTACNPR9015
012024042908OIBR3       010OI          ON      N1   R$  000000000006800000000000680000000000066000000000006700000000000680000000000067000000000006801879000000000008360400000000000560428800000000000000009999123100000010000000000000BROIBRACNOR1110
012024042908OIBR4       010OI          PN      N1   R$  000000000017700000000001850000000000177000000000018000000000001850000000000185000000000018700085000000000000069600000000000012595600000000000000009999123100000010000000000000BROIBRACNPR8109
012024042908OSXB3       010OSX BRASIL  ON      NM   R$  000000000040400000000004050000000000380000000000039000000000003980000000000388000000000039900065000000000000024600000000000009607600000000000000009999123100000010000000000000BROSXBACNOR8109
012024042908PMAM3       010PARANAPANEMAON      NM   R$  000000000027700000000002810000000000261000000000026600000000002610000000000261000000000027000126000000000000066700000000000017804700000000000000009999123100000010000000000000BRPMAMACNOR3038
012024042908JFEN3       010JOAO FORTES ON  ES       R$  000000000015800000000001580000000000149000000000015100000000001510000000000151000000000015200048000000000000014900000000000002253900000000000000009999123100000010000000000000BRJFENACNOR0059
012024042908ETER3       010ETERNIT     ON      NM   R$  000000000072800000000007310000000000714000000000072000000000007160000000000716000000000072300827000000000000193700000000000139475000000000000000009999123100000010000000000000BRETERACNOR3243
012024042908RNEW11      010RENOVA      UNT     N2   R$  000000000030800000000003150000000000307000000000031300000000003150000000000313000000000031500014000000000000001800000000000000563500000000000000009999123100000010000000000000BRRNEWCDAM15110
012024042908RNEW3       010RENOVA      ON      N2   R$  000000000010500000000001090000000000102000000000010400000000001060000000000105000000000010600078000000000000038100000000000003985900000000000000009999123100000010000000000000BRRNEWACNOR8110
012024042908RNEW4       010RENOVA      PN      N2   R$  000000000010400000000001060000000000103000000000010400000000001060000000000104000000000010600079000000000000043600000000000004570000000000000000009999123100000010000000000000BRRNEWACNPR5110
012024042908RPMG3       010PET MANGUINHON           R$  000000000020200000000002040000000000200000000000020000000000002000000000000200000000000020100010000000000000007400000000000001483500000000000000009999123100000010000000000000BRRPMGACNOR9194
012024042908AMER3       010AMERICANAS  ON      NM   R$  000000000005600000000000570000000000055000000000005500000000000550000000000055000000000005602152000000000010011600000000000556755700000000000000009999123100000010000000000000BRAMERACNOR6101
012024042908LIGT3       010LIGHT S/A   ON      NM   R$  000000000050300000000005080000000000495000000000050100000000005050000000000501000000000050501835000000000000434300000000000217696200000000000000009999123100000010000000000000BRLIGTACNOR2124
012024042910SEQL11      010SEQUOIA LOG DIR     NM   R$  000000000000100000000000010000000000001000000000000100000000000010000000000000000000000000100026000000000000201800000000000000201800000000000000009999123100000010000000000000BRSEQLD01M19101
012024042910SEQL12      010SEQUOIA LOG DIR     NM   R$  000000000000100000000000010000000000001000000000000100000000000010000000000000000000000000100046000000000000466000000000000000466000000000000000009999123100000010000000000000BRSEQLD02M18101
012024042910ABCB10      010ABC BRASIL  PN  REC N2   R$  000000000221300000000022130000000002213000000000221300000000022130000000002000000000000230000001000000000000000100000000000000221300000000000000009999123100000010000000000000BRABCBR19PR1144
012024042910CGRA2       010GRAZZIOTIN  DIR PRE      R$  000000000003300000000000470000000000033000000000004400000000000460000000000046000000000004800013000000000000003500000000000000155700000000000000009999123100000010000000000000BRCGRAD05PR5081
012024042910JFEN1       010JOAO FORTES DIR ORD      R$  000000000000100000000000010000000000001000000000000100000000000010000000000000000000000000100021000000000000022300000000000000022300000000000000009999123100000010000000000000BRJFEND10OR6058
012024042912VGHF11      010FII VALOR HECI           R$  000000000090600000000009060000000000886000000000089300000000008890000000000889000000000089012924000000000000494692000000000442078828000000000000009999123100000010000000000000BRVGHFCTF005142
012024042912VGIP11      010FII VALORAIPCI           R$  000000000910800000000091600000000009075000000000912300000000090960000000009096000000000910207119000000000000017771000000000162132050000000000000009999123100000010000000000000BRVGIPCTF002154
012024042912VGIR11      010FII VALREIIICI           R$  000000000097100000000009730000000000968000000000097000000000009710000000000970000000000097117098000000000000270237000000000262250460000000000000009999123100000010000000000000BRVGIRCTF008173
012024042912VGRI11      010FII VGRI    CI           R$  000000000097100000000009850000000000970000000000098100000000009800000000000980000000000098400764000000000000008183000000000008032639000000000000009999123100000010000000000000BRVGRICTF008101
012024042912VIFI11      010FII VINCI IFCI           R$  000000000081600000000008270000000000813000000000081700000000008140000000000814000000000081700108000000000000004257000000000003479420000000000000009999123100000010000000000000BRVIFICTF009154
012024042912VILG11      010FII VINCI LGCI           R$  000000000931000000000093990000000009237000000000931100000000092830000000009283000000000930504815000000000000017403000000000162039724000000000000009999123100000010000000000000BRVILGCTF001169
012024042912VINO11      010FII VINCI OFCI           R$  000000000076800000000007710000000000760000000000076600000000007680000000000767000000000076802634000000000000086294000000000066110140000000000000009999123100000010000000000000BRVINOCTF001155
012024042912VISC11      010FII VINCI SCCI           R$  000000001183400000000119300000000011815000000001187900000000119270000000011927000000001192814879000000000000068475000000000813473572000000000000009999123100000010000000000000BRVISCCTF005184
012024042912VIUR11      010FII VINCI IUCI           R$  000000000071900000000007200000000000712000000000071600000000007180000000000717000000000071803514000000000000079062000000000056677777000000000000009999123100000010000000000000BRVIURCTF009135
012024042912TRBL11      010FII SDI LOG CI           R$  000000001020100000000102490000000010029000000001010300000000101000000000010100000000001012000836000000000000006611000000000066795746000000000000009999123100000010000000000000BRTRBLCTF007110
012024042912TRNT11      010FII TORRE NOCI           R$  000000001210000000000121000000000012100000000001210000000000121000000000012001000000001254900001000000000000000040000000000000484000000000000000009999123100000010000000000000BRTRNTCTF013339
012024042912TRXF11      010FII TRX REALCI           R$  000000001103500000000110780000000011030000000001104600000000110680000000011068000000001107007845000000000000216693000000002393751780000000000000009999123100000010000000000000BRTRXFCTF003162
012024042912MFII11      010FII MERITO ICI           R$  000000001040000000000104030000000010376000000001038800000000103850000000010385000000001039100668000000000000006769000000000070322914000000000000009999123100000010000000000000BRMFIICTF008233
012024042912MGHT11      010FII MOGNO HTCI           R$  000000000440000000000044570000000004399000000000440500000000044150000000004415000000000443500281000000000000002085000000000009184610000000000000009999123100000010000000000000BRMGHTCTF005152
012024042912MXRF11      010FII MAXI RENCI           R$  000000000103700000000010430000000001030000000000103500000000010430000000001042000000000104327581000000000001302649000000001348751110000000000000009999123100000010000000000000BRMXRFCTF008250
012024042912ZAVI11      010FII ZAVIT R CI           R$  000000001299600000000130380000000012429000000001258100000000124980000000012498000000001259302125000000000000008600000000000108203722000000000000009999123100000010000000000000BRZAVICTF004119
012024042912ZIFI11      010FII ZION    CI           R$  000000008720000000000872000000000087200000000008720000000000872000000000000000000000008750000001000000000000000001000000000000087200000000000000009999123100000010000000000000BRZIFICTF000103
012024042912RZAK11      010FII RIZA AKNCI           R$  000000000858000000000086520000000008574000000000861200000000085970000000008580000000000859705319000000000000025284000000000217746788000000000000009999123100000010000000000000BRRZAKCTF008142
012024042912RZAT11      010FII ARCTIUM CI           R$  000000000998500000000100130000000009852000000000996400000000100110000000009999000000001001100886000000000000009732000000000096973296000000000000009999123100000010000000000000BRRZATCTF009115
012024042912RZTR11      010FII RIZA TX CI           R$  000000000944900000000095400000000009410000000000947700000000094990000000009481000000000950514344000000000000054720000000000518593043000000000000009999123100000010000000000000BRRZTRCTF003146
012024042912NAVT11      010FII NAVI TOTCI           R$  000000000939800000000093980000000009312000000000936200000000093560000000009331000000000935600242000000000000002739000000000025643071000000000000009999123100000010000000000000BRNAVTCTF015137
012024042912NCHB11      010FII NCH BR  CI           R$  000000000095100000000009550000000000949000000000095100000000009540000000000951000000000095400314000000000000032428000000000030857999000000000000009999123100000010000000000000BRNCHBCTF000228
012024042912NCRI11      010FII NAVI CRICI           R$  000000000085500000000008860000000000854000000000087200000000008860000000000863000000000088700023000000000000000138000000000000120385000000000000009999123100000010000000000000BRNCRICTF004116
012024042912NEWL11      010FII NEWPORT CI           R$  000000001202900000000122000000000012029000000001209500000000122000000000012200000000001230000169000000000000113708000000001375390797000000000000009999123100000010000000000000BRNEWLCTF004153
012024042912NEWU11      010FII NEWRU   CI           R$  000000000743100000000075000000000007431000000000744600000000075000000000007500000000000779200002000000000000000009000000000000067017000000000000009999123100000010000000000000BRNEWUCTF005119
012024042912NSLU11      010FII LOURDES CI           R$  000000001834400000000184480000000018225000000001833500000000184190000000018396000000001841900117000000000000000597000000000010946501000000000000009999123100000010000000000000BRNSLUCTF008309
012024042912ASMT11      010FII ASA MET CI           R$  000000000505700000000050570000000005057000000000505700000000050570000000005025000000000505700006000000000000000027000000000000136539000000000000009999123100000010000000000000BRASMTCTF005107
012024042912BICE11      010FII BRIO CRECI           R$  000000009800000000000980000000000098000000000009800000000000980000000000097260000000009800000001000000000000000001000000000000098000000000000000009999123100000010000000000000BRBICECTF007123
012024042912BICR11      010FII INTER   CI           R$  000000000484900000000048490000000004849000000000484900000000048490000000004849000000000520700002000000000000000008000000000000038792000000000000009999123100000010000000000000BRBICRCTF009150
012024042912BIME11      010FII BRIO ME CI           R$  000000000073000000000007300000000000723000000000072600000000007300000000000728000000000073000656000000000000023334000000000016956994000000000000009999123100000010000000000000BRBIMECTF006130
012024042912BLCA11      010FII BLUE AAACI           R$  000000001061700000000108160000000010502000000001052400000000107940000000010507000000001079500013000000000000000116000000000001220788000000000000009999123100000010000000000000BRBLCACTF009129
012024042912BLMG11      010FII BLUE LOGCI           R$  000000000389000000000039000000000003840000000000387500000000038730000000003873000000000388701281000000000000032767000000000126975688000000000000009999123100000010000000000000BRBLMGCTF005145
012024042912BLMO11      010FII BLUEMAC CI           R$  000000000895400000000089550000000008621000000000875000000000087500000000008620000000000875000067000000000000000564000000000004935227000000000000009999123100000010000000000000BRBLMOCTF009129
012024042912BLUR11      010FII BLUE RECCI           R$  000000000899900000000089990000000008999000000000899900000000089990000000008502000000000999900001000000000000000001000000000000008999000000000000009999123100000010000000000000BRBLURCTF005125
012024042912BMLC11      010FII BMBRC LCCI           R$  000000000995300000000099990000000009603000000000994900000000099990000000009601000000001008000012000000000000007497000000000074590935000000000000009999123100000010000000000000BRBMLCCTF004249
