00COTAHIST.2024BOVESPA 20240223                                                                                                                                                                                                                      
012024022302YDUQ3       010YDUQS PART  ON      NM   R$  000000000199000000000019920000000001908000000000194700000000019560000000000000000000000000014695000000000004438900000000008646072700000000000000009999123100000010000000000000BRYDUQACNOR3104
012024022302GOAU4       010GERDAU MET  PN      N1   R$  000000000101400000000010200000000000999000000000100600000000010030000000000000000000000000010230000000000005652400000000005690468600000000000000009999123100000010000000000000BRGOAUACNPR8266
012024022302GRND3       010GRENDENE    ON      NM   R$  000000000065000000000006570000000000646000000000065000000000006500000000000000000000000000003280000000000001469300000000000956022300000000000000009999123100000010000000000000BRGRNDACNOR3172
012024022302GUAR3       010GUARARAPES  ON      NM   R$  000000000055600000000005840000000000555000000000057100000000005790000000000000000000000000005610000000000002691900000000001538180500000000000000009999123100000010000000000000BRGUARACNOR4172
012024022302NEOE3       010NEOENERGIA  ON      NM   R$  000000000209300000000021230000000002080000000000211400000000021180000000000000000000000000003132000000000000691000000000001461078600000000000000009999123100000010000000000000BRNEOEACNOR3121
012024022302NGRD3       010NEOGRID     ON      NM   R$  000000000010800000000001090000000000107000000000010800000000001090000000000000000000000000000321000000000000250900000000000027143800000000000000009999123100000010000000000000BRNGRDACNOR3103
012024022302NINJ3       010GETNINJAS   ON      NM   R$  000000000050500000000005080000000000504000000000050700000000005080000000000000000000000000000116000000000000037100000000000018812800000000000000009999123100000010000000000000BRNINJACNOR5101
012024022302NORD3       010NORDON MET  ON           R$  000000000120600000000012340000000001119000000000119400000000011650000000000000000000000000000021000000000000002500000000000002986700000000000000009999123100000010000000000000BRNORDACNOR7135
012024022302NTCO3       010GRUPO NATURAON      NM   R$  000000000168900000000016970000000001651000000000166100000000016540000000000000000000000000012709000000000004267500000000007088801800000000000000009999123100000010000000000000BRNTCOACNOR5104
012024022302RPAD3       010ALFA HOLDINGON           R$  000000000083400000000008360000000000834000000000083500000000008360000000000000000000000000000003000000000000001100000000000000918500000000000000009999123100000010000000000000BRRPADACNOR1198
012024022302RPAD5       010ALFA HOLDINGPNA          R$  000000000083000000000008300000000000830000000000083000000000008300000000000000000000000000000001000000000000000400000000000000332000000000000000009999123100000010000000000000BRRPADACNPA4218
012024022302RPAD6       010ALFA HOLDINGPNB          R$  000000000082500000000008270000000000825000000000082500000000008270000000000000000000000000000004000000000000000900000000000000742900000000000000009999123100000010000000000000BRRPADACNPB2198
012024022302RRRP3       0103R PETROLEUMON      NM   R$  000000000291700000000029250000000002817000000000284700000000028170000000000000000000000000015382000000000004765200000000013569516500000000000000009999123100000010000000000000BRRRRPACNOR5102
012024022302RSUL4       010RIOSULENSE  PN           R$  000000000777700000000080000000000007775000000000786900000000079890000000000000000000000000000019000000000000002100000000000016525100000000000000009999123100000010000000000000BRRSULACNPR3113
012024022302SOND5       010SONDOTECNICAPNA          R$  000000000506500000000050650000000005065000000000506500000000050650000000000000000000000000000001000000000000000200000000000001013000000000000000009999123100000010000000000000BRSONDACNPA8165
012024022302SRNA3       010SERENA      ON      NM   R$  000000000098000000000009960000000000955000000000096500000000009550000000000000000000000000003147000000000001066100000000001029267200000000000000009999123100000010000000000000BRSRNAACNOR4100
012024022302STBP3       010SANTOS BRP  ON      NM   R$  000000000107500000000010750000000001051000000000105800000000010600000000000000000000000000005632000000000002015300000000002133471700000000000000009999123100000010000000000000BRSTBPACNOR3128
012024022302SUZB3       010SUZANO S.A. ON      NM   R$  000000000560000000000056330000000005484000000000553600000000055270000000000000000000000000012759000000000003128300000000017318772900000000000000009999123100000010000000000000BRSUZBACNOR0129
012024022302BAHI3       010BAHEMA      ON      MA   R$  000000000067000000000006700000000000670000000000067000000000006700000000000000000000000000000002000000000000001300000000000000871000000000000000009999123100000010000000000000BRBAHIACNOR1074
012024022302BALM4       010BAUMER      PN           R$  000000000097700000000009990000000000977000000000098800000000009990000000000000000000000000000002000000000000000200000000000000197600000000000000009999123100000010000000000000BRBALMACNPR2056
012024022302BAUH4       010EXCELSIOR   PN           R$  000000000790000000000079000000000007900000000000790000000000079000000000000000000000000000000001000000000000000100000000000000790000000000000000009999123100000010000000000000BRBAUHACNPR3117
012024022302BAZA3       010AMAZONIA    ON           R$  000000000903100000000090840000000008975000000000902500000000090470000000000000000000000000000022000000000000002600000000000023465100000000000000009999123100000010000000000000BRBAZAACNOR0178
012024022302BBAS3       010BRASIL      ON  EX  NM   R$  000000000581300000000058260000000005714000000000575100000000057380000000000000000000000000026207000000000010270700000000059069010900000000000000009999123100000010000000000000BRBBASACNOR3320
012024022302BEES3       010BANESTES    ON           R$  000000000096400000000009640000000000955000000000095900000000009560000000000000000000000000000062000000000000007500000000000007194400000000000000009999123100000010000000000000BRBEESACNOR9387
012024022302BEES4       010BANESTES    PN           R$  000000000100500000000010080000000001005000000000100600000000010060000000000000000000000000000012000000000000001500000000000001509900000000000000009999123100000010000000000000BRBEESACNPR6312
012024022302PDGR3       010PDG REALT   ON      NM   R$  000000000003300000000000340000000000031000000000003200000000000320000000000000000000000000000429000000000002093200000000000067947000000000000000009999123100000010000000000000BRPDGRACNOR8118
012024022302PDTC3       010PADTEC      ON      NM   R$  000000000031900000000003230000000000317000000000031900000000003170000000000000000000000000000087000000000000035900000000000011459100000000000000009999123100000010000000000000BRPDTCACNOR3100
012024022302PETR3       010PETROBRAS   ON      N2   R$  000000000436700000000043730000000004298000000000434100000000043620000000000000000000000000020466000000000013302200000000057753930100000000000000009999123100000010000000000000BRPETRACNOR9202
012024022302PETR4       010PETROBRAS   PN  ATZ N2   R$  000000000421400000000042240000000004161000000000419900000000041900000000000000000000000000050733000000000043887800000000184324660900000000000000009999123100000010000000000000BRPETRACNPR6210
012024022302BLAU3       010BLAU        ON      NM   R$  000000000128800000000012920000000001225000000000124900000000012330000000000000000000000000002036000000000000255600000000000319467600000000000000009999123100000010000000000000BRBLAUACNOR8111
012024022302BMEB3       010MERCANTIL   ON      N1   R$  000000000262800000000027000000000002590000000000266900000000026210000000000000000000000000000023000000000000007200000000000019218600000000000000009999123100000010000000000000BRBMEBACNOR8205
012024022302BMEB4       010MERCANTIL   PN      N1   R$  000000000276000000000029200000000002760000000000287400000000029000000000000000000000000000000117000000000000020500000000000058924600000000000000009999123100000010000000000000BRBMEBACNPR5210
012024022302BMGB4       010BANCO BMG   PN      N1   R$  000000000041800000000004200000000000400000000000040800000000004010000000000000000000000000001480000000000000916400000000000374600600000000000000009999123100000010000000000000BRBMGBACNPR0108
012024022302BMIN4       010MERC INVEST PN           R$  000000000157000000000015900000000001531000000000157500000000015500000000000000000000000000000017000000000000004100000000000006458100000000000000009999123100000010000000000000BRBMINACNPR1176
012024022302BMKS3       010BIC MONARK  ON           R$  000000003650000000000365000000000035512000000003625300000000365000000000000000000000000000000007000000000000000008000000000000290024000000000000009999123100000010000000000000BRBMKSACNOR9165
012024022302BMOB3       010BEMOBI TECH ON      NM   R$  000000000131900000000013240000000001299000000000131100000000013150000000000000000000000000001138000000000000164400000000000215546400000000000000009999123100000010000000000000BRBMOBACNOR7103
012024022302BOBR4       010BOMBRIL     PN           R$  000000000024400000000002450000000000235000000000023900000000002380000000000000000000000000000051000000000000021200000000000005078900000000000000009999123100000010000000000000BRBOBRACNPR3128
012024022302BPAC11      010BTGP BANCO  UNT     N2   R$  000000000380000000000038000000000003659000000000370600000000036950000000000000000000000000017914000000000006276600000000023264623600000000000000009999123100000010000000000000BRBPACUNT006118
012024022302BPAC3       010BTGP BANCO  ON      N2   R$  000000000187200000000018720000000001780000000000180100000000017810000000000000000000000000000089000000000000016100000000000029000700000000000000009999123100000010000000000000BRBPACACNOR7133
012024022302BPAC5       010BTGP BANCO  PNA     N2   R$  000000000095100000000009690000000000921000000000094400000000009690000000000000000000000000000072000000000000012800000000000012090800000000000000009999123100000010000000000000BRBPACACNPA0133
012024022302BPAN4       010BANCO PAN   PN      N1   R$  000000000087700000000008900000000000865000000000087800000000008700000000000000000000000000002682000000000001257300000000001104745400000000000000009999123100000010000000000000BRBPANACNPR1115
012024022302BRAP3       010BRADESPAR   ON      N1   R$  000000000206200000000020890000000002055000000000207200000000020550000000000000000000000000000351000000000000069500000000000144025700000000000000009999123100000010000000000000BRBRAPACNOR5147
012024022302CAMB3       010CAMBUCI     ON           R$  000000000111000000000011360000000001110000000000113000000000011340000000000000000000000000000080000000000000033300000000000037632700000000000000009999123100000010000000000000BRCAMBACNOR4127
012024022302CAML3       010CAMIL       ON  EDJ NM   R$  000000000088200000000008830000000000864000000000087200000000008640000000000000000000000000001412000000000000307300000000000268245200000000000000009999123100000010000000000000BRCAMLACNOR3127
012024022302CASH3       010MELIUZ      ON      NM   R$  000000000076200000000007700000000000751000000000075700000000007620000000000000000000000000002586000000000000733600000000000555905200000000000000009999123100000010000000000000BRCASHACNOR8105
012024022302CBAV3       010CBA         ON      NM   R$  000000000040600000000004110000000000389000000000039700000000003930000000000000000000000000004190000000000003190500000000001269634000000000000000009999123100000010000000000000BRCBAVACNOR5104
012024022302TOTS3       010TOTVS       ON      NM   R$  000000000319900000000032370000000003147000000000317900000000031470000000000000000000000000012139000000000003076200000000009780429300000000000000009999123100000010000000000000BRTOTSACNOR8144
012024022302TPIS3       010TRIUNFO PARTON      NM   R$  000000000037200000000003770000000000370000000000037400000000003770000000000000000000000000000109000000000000107600000000000040265600000000000000009999123100000010000000000000BRTPISACNOR8118
012024022302TRAD3       010TC          ON      NM   R$  000000000008200000000000880000000000081000000000008300000000000850000000000000000000000000000526000000000000791600000000000066463300000000000000009999123100000010000000000000BRTRADACNOR3101
012024022302TRIS3       010TRISUL      ON      NM   R$  000000000046700000000004700000000000457000000000046200000000004610000000000000000000000000001351000000000000387300000000000178983900000000000000009999123100000010000000000000BRTRISACNOR4116
012024022302TRPL3       010TRAN PAULISTON      N1   R$  000000000329800000000033180000000003272000000000327800000000032740000000000000000000000000000020000000000000002400000000000007869000000000000000009999123100000010000000000000BRTRPLACNOR4185
012024022302TRPL4       010TRAN PAULISTPN      N1   R$  000000000258400000000025930000000002527000000000254500000000025340000000000000000000000000010780000000000002012100000000005122034600000000000000009999123100000010000000000000BRTRPLACNPR1185
012024022302VAMO3       010VAMOS       ON      NM   R$  000000000087300000000008730000000000857000000000086600000000008710000000000000000000000000010476000000000006036400000000005228795200000000000000009999123100000010000000000000BRVAMOACNOR7105
012024022302VBBR3       010VIBRA       ON      NM   R$  000000000258600000000026000000000002545000000000256900000000025750000000000000000000000000017383000000000005926100000000015228295400000000000000009999123100000010000000000000BRVBBRACNOR1106
012024022302CCRO3       010CCR SA      ON      NM   R$  000000000138900000000013950000000001370000000000138000000000013750000000000000000000000000010289000000000005059300000000006985418600000000000000009999123100000010000000000000BRCCROACNOR2144
012024022302CEAB3       010CEA MODAS   ON      NM   R$  000000000088100000000009000000000000846000000000086500000000008630000000000000000000000000004886000000000003190500000000002762932100000000000000009999123100000010000000000000BRCEABACNOR1101
012024022302DESK3       010DESKTOP     ON      NM   R$  000000000138200000000013820000000001332000000000135600000000013480000000000000000000000000000419000000000000133500000000000181134100000000000000009999123100000010000000000000BRDESKACNOR2103
012024022302DEXP3       010DEXXOS PAR  ON      N1   R$  000000000124500000000012750000000001217000000000124000000000012220000000000000000000000000000230000000000000060000000000000074452400000000000000009999123100000010000000000000BRDEXPACNOR1104
012024022302DEXP4       010DEXXOS PAR  PN      N1   R$  000000000126800000000012690000000001268000000000126800000000012690000000000000000000000000000003000000000000000400000000000000507500000000000000009999123100000010000000000000BRDEXPACNPR8104
012024022302DIRR3       010DIRECIONAL  ON      NM   R$  000000000232900000000023410000000002300000000000232800000000023310000000000000000000000000005034000000000001255200000000002922746600000000000000009999123100000010000000000000BRDIRRACNOR0117
012024022302DMVF3       010D1000VFARMA ON      NM   R$  000000000058400000000005940000000000574000000000058300000000005830000000000000000000000000000388000000000000061300000000000035752800000000000000009999123100000010000000000000BRDMVFACNOR9100
012024022302DOHL4       010DOHLER      PN           R$  000000000047800000000005000000000000478000000000048900000000005000000000000000000000000000000006000000000000000900000000000000440800000000000000009999123100000010000000000000BRDOHLACNPR9066
012024022302DOTZ3       010DOTZ SA     ON      NM   R$  000000000072800000000007390000000000707000000000071800000000007360000000000000000000000000000050000000000000017500000000000012579400000000000000009999123100000010000000000000BRDOTZACNOR7101
012024022302DXCO3       010DEXCO       ON      NM   R$  000000000081600000000008270000000000800000000000080900000000008060000000000000000000000000007437000000000002967500000000002400786300000000000000009999123100000010000000000000BRDXCOACNOR8104
012024022302EALT3       010ACO ALTONA  ON           R$  000000000094200000000009420000000000931000000000093100000000009310000000000000000000000000000006000000000000002800000000000002608300000000000000009999123100000010000000000000BREALTACNOR4137
012024022302EALT4       010ACO ALTONA  PN           R$  000000000101400000000010300000000001000000000000101500000000010290000000000000000000000000000020000000000000006800000000000006906200000000000000009999123100000010000000000000BREALTACNPR1137
012024022302ECOR3       010ECORODOVIAS ON      NM   R$  000000000092500000000009250000000000901000000000090800000000009030000000000000000000000000003890000000000001523600000000001384846300000000000000009999123100000010000000000000BRECORACNOR8119
012024022302TECN3       010TECHNOS     ON      NM   R$  000000000033500000000003370000000000332000000000033400000000003350000000000000000000000000000184000000000000091900000000000030757400000000000000009999123100000010000000000000BRTECNACNOR6109
012024022302ZAMP3       010ZAMP S.A.   ON           R$  000000000042700000000004300000000000408000000000041400000000004160000000000000000000000000004366000000000001701300000000000704471300000000000000009999123100000010000000000000BRZAMPACNOR5100
012024022302WEST3       010WESTWING    ON      NM   R$  000000000011900000000001210000000000119000000000012000000000001210000000000000000000000000000032000000000000021800000000000002621600000000000000009999123100000010000000000000BRWESTACNOR3100
012024022302WHRL4       010WHIRLPOOL   PN           R$  000000000046400000000004640000000000457000000000046000000000004600000000000000000000000000000014000000000000001800000000000000828100000000000000009999123100000010000000000000BRWHRLACNPR2128
012024022302EGIE3       010ENGIE BRASILON      NM   R$  000000000413400000000041850000000004092000000000412100000000041190000000000000000000000000006468000000000001197900000000004937480800000000000000009999123100000010000000000000BREGIEACNOR9125
012024022302HAGA4       010HAGA S/A    PN           R$  000000000010500000000001050000000000101000000000010300000000001030000000000000000000000000000026000000000000009400000000000000970300000000000000009999123100000010000000000000BRHAGAACNPR4103
012024022302HAPV3       010HAPVIDA     ON      NM   R$  000000000036000000000003630000000000351000000000035800000000003590000000000000000000000000030243000000000052726200000000018884034100000000000000009999123100000010000000000000BRHAPVACNOR4113
012024022302HBOR3       010HELBOR      ON      NM   R$  000000000028500000000002880000000000279000000000028400000000002870000000000000000000000000000480000000000000456200000000000129587400000000000000009999123100000010000000000000BRHBORACNOR3117
012024022302HBRE3       010HBR REALTY  ON      NM   R$  000000000048500000000004910000000000478000000000048200000000004880000000000000000000000000000358000000000000216600000000000104479800000000000000009999123100000010000000000000BRHBREACNOR4100
012024022302HBSA3       010HIDROVIAS   ON      NM   R$  000000000038700000000003870000000000374000000000037700000000003770000000000000000000000000004326000000000002874300000000001085054200000000000000009999123100000010000000000000BRHBSAACNOR0100
012024022302HBTS5       010HABITASUL   PNA          R$  000000000350500000000035050000000003500000000000350200000000035000000000000000000000000000000002000000000000000200000000000000700500000000000000009999123100000010000000000000BRHBTSACNPA3127
012024022302HETA4       010HERCULES    PN           R$  000000000066000000000006870000000000635000000000065500000000006440000000000000000000000000000008000000000000000800000000000000524200000000000000009999123100000010000000000000BRHETAACNPR9136
012024022302ITUB3       010ITAUUNIBANCOON  ED  N1   R$  000000000296400000000029840000000002932000000000296700000000029650000000000000000000000000006873000000000001272900000000003776990400000000000000009999123100000010000000000000BRITUBACNOR4331
012024022302ITUB4       010ITAUUNIBANCOPN  ED  N1   R$  000000000342000000000034380000000003387000000000341600000000034260000000000000000000000000045046000000000022703500000000077562255100000000000000009999123100000010000000000000BRITUBACNPR1331
012024022302ODPV3       010ODONTOPREV  ON      NM   R$  000000000130700000000013070000000001277000000000128600000000012800000000000000000000000000002009000000000000456600000000000587300900000000000000009999123100000010000000000000BRODPVACNOR4198
012024022302OFSA3       010OUROFINO S/AON      NM   R$  000000000208300000000021270000000002080000000000210300000000021180000000000000000000000000000010000000000000001300000000000002734200000000000000009999123100000010000000000000BROFSAACNOR7117
012024022302ONCO3       010ONCOCLINICASON      NM   R$  000000000102500000000010250000000000990000000000099900000000009920000000000000000000000000004946000000000001875100000000001873515000000000000000009999123100000010000000000000BRONCOACNOR6100
012024022302OPCT3       010OCEANPACT   ON      NM   R$  000000000053900000000005410000000000533000000000053600000000005390000000000000000000000000001548000000000000729400000000000391047000000000000000009999123100000010000000000000BROPCTACNOR0100
012024022302ORVR3       010ORIZON      ON      NM   R$  000000000332700000000033290000000003272000000000329200000000032880000000000000000000000000001246000000000000219400000000000722326500000000000000009999123100000010000000000000BRORVRACNOR0101
012024022302PCAR3       010P.ACUCAR-CBDON      NM   R$  000000000040100000000004010000000000378000000000038600000000003780000000000000000000000000010460000000000014234000000000005495037800000000000000009999123100000010000000000000BRPCARACNOR3167
012024022302EVEN3       010EVEN        ON      NM   R$  000000000081400000000008200000000000795000000000080800000000008010000000000000000000000000002112000000000000718800000000000581216700000000000000009999123100000010000000000000BREVENACNOR8118
012024022302EZTC3       010EZTEC       ON      NM   R$  000000000163000000000016970000000001616000000000167800000000016930000000000000000000000000012666000000000003435300000000005766567200000000000000009999123100000010000000000000BREZTCACNOR0123
012024022302FESA3       010FERBASA     ON      N1   R$  000000000142300000000014230000000001406000000000141200000000014060000000000000000000000000000007000000000000001200000000000001694700000000000000009999123100000010000000000000BRFESAACNOR8187
012024022302FESA4       010FERBASA     PN      N1   R$  000000000096800000000009910000000000968000000000097600000000009700000000000000000000000000001834000000000000463500000000000452810100000000000000009999123100000010000000000000BRFESAACNPR5083
012024022302FHER3       010FER HERINGERON      NM   R$  000000000057600000000005820000000000576000000000057900000000005810000000000000000000000000000019000000000000004000000000000002319000000000000000009999123100000010000000000000BRFHERACNOR5103
012024022302FIQE3       010UNIFIQUE    ON      NM   R$  000000000040700000000004070000000000395000000000040100000000004050000000000000000000000000000482000000000000167800000000000067321400000000000000009999123100000010000000000000BRFIQEACNOR5106
012024022302FLRY3       010FLEURY      ON      NM   R$  000000000157800000000015850000000001558000000000156900000000015720000000000000000000000000009340000000000003229500000000005067352800000000000000009999123100000010000000000000BRFLRYACNOR5137
012024022302IFCM3       010INFRACOMM   ON      NM   R$  000000000014400000000001500000000000139000000000014400000000001400000000000000000000000000003498000000000006331000000000000914207200000000000000009999123100000010000000000000BRIFCMACNOR8101
012024022302IGTI11      010IGUATEMI S.AUNT     N1   R$  000000000239600000000024030000000002328000000000234800000000023450000000000000000000000000010956000000000002111000000000004957729500000000000000009999123100000010000000000000BRIGTICDAM16104
012024022302IGTI3       010IGUATEMI S.AON      N1   R$  000000000029200000000002950000000000285000000000029000000000002930000000000000000000000000000879000000000000477300000000000138864200000000000000009999123100000010000000000000BRIGTIACNOR8104
012024022302IGTI4       010IGUATEMI S.APN      N1   R$  000000000105500000000010550000000001018000000000103300000000010180000000000000000000000000000004000000000000000500000000000000516600000000000000009999123100000010000000000000BRIGTIACNPR5104
012024022302INEP3       010INEPAR      ON           R$  000000000037700000000003840000000000374000000000037500000000003760000000000000000000000000000070000000000000023500000000000008833700000000000000009999123100000010000000000000BRINEPACNOR1143
012024022302INEP4       010INEPAR      PN           R$  000000000031600000000003240000000000313000000000031500000000003130000000000000000000000000000063000000000000013500000000000004263000000000000000009999123100000010000000000000BRINEPACNPR8143
012024022302INTB3       010INTELBRAS   ON      NM   R$  000000000211000000000021290000000002071000000000210800000000021180000000000000000000000000003571000000000001237600000000002608993900000000000000009999123100000010000000000000BRINTBACNOR9109
012024022302IRBR3       010IRBBRASIL REON  ATZ NM   R$  000000000413100000000041850000000004090000000000412300000000041290000000000000000000000000003286000000000000829400000000003420130200000000000000009999123100000010000000000000BRIRBRACNOR4111
012024022302KRSA3       010KORA SAUDE  ON      NM   R$  000000000009200000000000960000000000090000000000009200000000000900000000000000000000000000000171000000000000368500000000000034144200000000000000009999123100000010000000000000BRKRSAACNOR0100
012024022302WEGE3       010WEG         ON      NM   R$  000000000355000000000036380000000003538000000000360400000000035980000000000000000000000000023634000000000008754000000000031552990100000000000000009999123100000010000000000000BRWEGEACNOR0220
012024022302RANI3       010IRANI       ON      NM   R$  000000000103400000000010340000000000933000000000096200000000009350000000000000000000000000014091000000000005444200000000005242689100000000000000009999123100000010000000000000BRRANIACNOR5069
012024022302RAPT3       010RANDON PART ON      N1   R$  000000000106700000000010670000000001052000000000105700000000010570000000000000000000000000000011000000000000001500000000000001586100000000000000009999123100000010000000000000BRRAPTACNOR7162
012024022302RAPT4       010RANDON PART PN      N1   R$  000000000108600000000010920000000001060000000000107100000000010600000000000000000000000000005137000000000002100900000000002251574100000000000000009999123100000010000000000000BRRAPTACNPR4162
012024022302CTNM3       010COTEMINAS   ON           R$  000000000099400000000009940000000000905000000000093800000000009050000000000000000000000000000011000000000000001100000000000001032600000000000000009999123100000010000000000000BRCTNMACNOR9130
012024022302CTNM4       010COTEMINAS   PN           R$  000000000013300000000001350000000000131000000000013200000000001320000000000000000000000000000107000000000000119400000000000015839500000000000000009999123100000010000000000000BRCTNMACNPR6129
012024022302CTSA3       010SANTANENSE  ON           R$  000000000032600000000003260000000000308000000000031300000000003100000000000000000000000000000011000000000000002300000000000000721600000000000000009999123100000010000000000000BRCTSAACNOR3062
012024022302CTSA4       010SANTANENSE  PN           R$  000000000017700000000001880000000000170000000000017600000000001730000000000000000000000000000279000000000000101700000000000017901200000000000000009999123100000010000000000000BRCTSAACNPR0062
012024022302CURY3       010CURY S/A    ON      NM   R$  000000000192700000000019430000000001859000000000189900000000019100000000000000000000000000004970000000000001060700000000002014773800000000000000009999123100000010000000000000BRCURYACNOR3107
012024022302CVCB3       010CVC BRASIL  ON      NM   R$  000000000032800000000003280000000000315000000000031900000000003190000000000000000000000000007828000000000012716100000000004056910100000000000000009999123100000010000000000000BRCVCBACNOR1115
012024022302GGPS3       010GPS         ON      NM   R$  000000000182600000000018380000000001806000000000182200000000018210000000000000000000000000002762000000000000931500000000001697227200000000000000009999123100000010000000000000BRGGPSACNOR9102
012024022302ITSA3       010ITAUSA      ON  ED  N1   R$  000000000104400000000010470000000001026000000000103200000000010310000000000000000000000000000373000000000000128000000000000132140300000000000000009999123100000010000000000000BRITSAACNOR0437
012024022302ITSA4       010ITAUSA      PN  ED  N1   R$  000000000104300000000010440000000001019000000000102700000000010320000000000000000000000000027622000000000037040400000000038045912600000000000000009999123100000010000000000000BRITSAACNPR7437
012024022302MSPA3       010MELHOR SP   ON           R$  000000000430000000000043000000000004300000000000430000000000043000000000000000000000000000000001000000000000000100000000000000430000000000000000009999123100000010000000000000BRMSPAACNOR0126
012024022302MSPA4       010MELHOR SP   PN           R$  000000000400000000000040000000000004000000000000400000000000040000000000000000000000000000000001000000000000000100000000000000400000000000000000009999123100000010000000000000BRMSPAACNPR7126
012024022302MTRE3       010MITRE REALTYON      NM   R$  000000000052600000000005340000000000504000000000051600000000005040000000000000000000000000001699000000000000925100000000000477448300000000000000009999123100000010000000000000BRMTREACNOR6109
012024022302MTSA4       010METISA      PN           R$  000000000460100000000046020000000004535000000000458600000000045500000000000000000000000000000043000000000000014300000000000065581300000000000000009999123100000010000000000000BRMTSAACNPR9071
012024022302MULT3       010MULTIPLAN   ON      N2   R$  000000000255700000000025900000000002539000000000256700000000025820000000000000000000000000036739000000000008200500000000021051468600000000000000009999123100000010000000000000BRMULTACNOR5137
012024022302MYPK3       010IOCHP-MAXIONON      NM   R$  000000000125500000000012580000000001236000000000124900000000012550000000000000000000000000002591000000000000553400000000000691744700000000000000009999123100000010000000000000BRMYPKACNOR7153
012024022302WIZC3       010WIZ CO      ON      NM   R$  000000000063600000000006360000000000617000000000062400000000006290000000000000000000000000000992000000000000261300000000000163078900000000000000009999123100000010000000000000BRWIZCACNOR5101
012024022302WLMM4       010WLM IND COM PN           R$  000000000260000000000026140000000002483000000000251500000000024850000000000000000000000000000073000000000000010700000000000026918300000000000000009999123100000010000000000000BRWLMMACNPR3117
012024022302AALR3       010ALLIAR      ON      NM   R$  000000000089500000000008950000000000870000000000088100000000008840000000000000000000000000000269000000000000035100000000000030942900000000000000009999123100000010000000000000BRAALRACNOR6102
012024022302ABCB4       010ABC BRASIL  PN      N2   R$  000000000247900000000025070000000002430000000000245000000000024520000000000000000000000000002019000000000000386100000000000946283800000000000000009999123100000010000000000000BRABCBACNPR4145
012024022302ABEV3       010AMBEV S/A   ON           R$  000000000130000000000013010000000001282000000000129000000000012890000000000000000000000000018721000000000018944300000000024447063100000000000000009999123100000010000000000000BRABEVACNOR1127
012024022302B3SA3       010B3          ON      NM   R$  000000000126100000000012730000000001211000000000123700000000012450000000000000000000000000071683000000000062078100000000076843397800000000000000009999123100000010000000000000BRB3SAACNOR6130
012024022302RECV3       010PETRORECSA  ON      NM   R$  000000000241500000000024330000000002334000000000235400000000023410000000000000000000000000010979000000000002558000000000006023046500000000000000009999123100000010000000000000BRRECVACNOR3105
012024022302REDE3       010REDE ENERGIAON           R$  000000000069100000000006980000000000686000000000069100000000006980000000000000000000000000000022000000000000003700000000000002559700000000000000009999123100000010000000000000BRREDEACNOR7126
012024022302RENT3       010LOCALIZA    ON      NM   R$  000000000538900000000053890000000005221000000000528100000000053190000000000000000000000000022890000000000005948200000000031418377900000000000000009999123100000010000000000000BRRENTACNOR4194
012024022302ROMI3       010ROMI        ON      NM   R$  000000000125900000000012640000000001242000000000125000000000012530000000000000000000000000000954000000000000187300000000000234272500000000000000009999123100000010000000000000BRROMIACNOR8192
012024022302SLCE3       010SLC AGRICOLAON      NM   R$  000000000195800000000019670000000001921000000000193900000000019370000000000000000000000000006253000000000001411600000000002737187600000000000000009999123100000010000000000000BRSLCEACNOR2124
012024022302SMFT3       010SMART FIT   ON      NM   R$  000000000253600000000025430000000002436000000000246000000000024520000000000000000000000000007303000000000001597500000000003930673900000000000000009999123100000010000000000000BRSMFTACNOR1111
012024022302SMTO3       010SAO MARTINHOON      NM   R$  000000000270700000000027120000000002670000000000268700000000026850000000000000000000000000006801000000000001456700000000003914537800000000000000009999123100000010000000000000BRSMTOACNOR3125
012024022302SNSY3       010SANSUY      ON           R$  000000000108900000000010890000000001005000000000102900000000010260000000000000000000000000000034000000000000005100000000000005251300000000000000009999123100000010000000000000BRSNSYACNOR2113
012024022302SNSY5       010SANSUY      PNA          R$  000000000048700000000004930000000000455000000000046500000000004910000000000000000000000000000020000000000000005100000000000002372600000000000000009999123100000010000000000000BRSNSYACNPA5111
012024022302SOJA3       010BOA SAFRA   ON      NM   R$  000000000153800000000015390000000001502000000000151300000000015160000000000000000000000000000849000000000000154900000000000234433600000000000000009999123100000010000000000000BRSOJAACNOR9105
012024022302SOMA3       010GRUPO SOMA  ON      NM   R$  000000000071200000000007120000000000701000000000070600000000007090000000000000000000000000012857000000000009780800000000006907867000000000000000009999123100000010000000000000BRSOMAACNOR3102
012024022302TELB4       010TELEBRAS    PN           R$  000000000104100000000010500000000001037000000000104100000000010430000000000000000000000000000021000000000000006700000000000006979900000000000000009999123100000010000000000000BRTELBACNPR9140
012024022302TEND3       010TENDA       ON      NM   R$  000000000113700000000011410000000001101000000000111200000000011060000000000000000000000000004222000000000001523800000000001694775700000000000000009999123100000010000000000000BRTENDACNOR4111
012024022302TFCO4       010TRACK FIELD PN      N2   R$  000000000138300000000013870000000001348000000000135700000000013550000000000000000000000000000182000000000000038100000000000051703400000000000000009999123100000010000000000000BRTFCOACNPR8111
012024022302TGMA3       010TEGMA       ON      NM   R$  000000000257200000000025770000000002540000000000255900000000025720000000000000000000000000000645000000000000087500000000000223933100000000000000009999123100000010000000000000BRTGMAACNOR7143
012024022302TIMS3       010TIM         ON      NM   R$  000000000186800000000018680000000001828000000000184100000000018380000000000000000000000000011723000000000003475800000000006401284400000000000000009999123100000010000000000000BRTIMSACNOR5114
012024022302COGN3       010COGNA ON    ON      NM   R$  000000000024600000000002460000000000234000000000023800000000002360000000000000000000000000014233000000000028868100000000006873776500000000000000009999123100000010000000000000BRCOGNACNOR2104
012024022302ELMD3       010ELETROMIDIA ON      NM   R$  000000000173400000000017340000000001653000000000169500000000016900000000000000000000000000000192000000000000052800000000000089530500000000000000009999123100000010000000000000BRELMDACNOR3100
012024022302EMAE4       010EMAE        PN           R$  000000000629900000000063530000000006100000000000624800000000063530000000000000000000000000000016000000000000003300000000000020618800000000000000009999123100000010000000000000BREMAEACNPR1124
012024022302EMBR3       010EMBRAER     ON      NM   R$  000000000227700000000023080000000002266000000000227600000000022730000000000000000000000000009351000000000004201000000000009561611100000000000000009999123100000010000000000000BREMBRACNOR4191
012024022302ENAT3       010ENAUTA PART ON      NM   R$  000000000241500000000024720000000002383000000000242300000000023950000000000000000000000000009821000000000002734000000000006626520000000000000000009999123100000010000000000000BRENATACNOR0104
012024022302ENEV3       010ENEVA       ON      NM   R$  000000000124400000000012470000000001217000000000122800000000012200000000000000000000000000018544000000000007529300000000009250669700000000000000009999123100000010000000000000BRENEVACNOR8105
012024022302BRKM5       010BRASKEM     PNA     N1   R$  000000000205900000000020890000000002013000000000204000000000020210000000000000000000000000007875000000000003226100000000006581322500000000000000009999123100000010000000000000BRBRKMACNPA4121
012024022302BRKM6       010BRASKEM     PNB     N1   R$  000000000160000000000016000000000001600000000000160000000000016000000000000000000000000000000001000000000000000100000000000000160000000000000000009999123100000010000000000000BRBRKMACNPB2114
012024022302ENGI11      010ENERGISA    UNT     N2   R$  000000000502500000000050590000000004991000000000503000000000050360000000000000000000000000007384000000000001100200000000005535088400000000000000009999123100000010000000000000BRENGICDAM16135
012024022302ENGI3       010ENERGISA    ON      N2   R$  000000000163900000000016400000000001615000000000162500000000016270000000000000000000000000000022000000000000002600000000000004226400000000000000009999123100000010000000000000BRENGIACNOR0145
012024022302ENGI4       010ENERGISA    PN      N2   R$  000000000085000000000008580000000000844000000000085200000000008470000000000000000000000000000025000000000000003300000000000002813200000000000000009999123100000010000000000000BRENGIACNPR7141
012024022302ENJU3       010ENJOEI      ON      NM   R$  000000000015900000000001670000000000158000000000016300000000001670000000000000000000000000000817000000000000485800000000000079239700000000000000009999123100000010000000000000BRENJUACNOR9100
012024022302ENMT3       010ENERGISA MT ON           R$  000000000755900000000075590000000007559000000000755900000000075590000000000000000000000000000001000000000000000100000000000000755900000000000000009999123100000010000000000000BRENMTACNOR5119
012024022302ENMT4       010ENERGISA MT PN           R$  000000000695500000000071490000000006955000000000700800000000071380000000000000000000000000000008000000000000001400000000000009811300000000000000009999123100000010000000000000BRENMTACNPR2124
012024022302EPAR3       010EMBPAR S/A  ON           R$  000000000097100000000009710000000000959000000000096400000000009700000000000000000000000000000020000000000000005100000000000004920700000000000000009999123100000010000000000000BREPARACNOR9104
012024022302EQPA3       010EQTL PARA   ON           R$  000000000078600000000007980000000000783000000000079100000000007970000000000000000000000000000008000000000000001400000000000001107400000000000000009999123100000010000000000000BREQPAACNOR1110
012024022302EQTL3       010EQUATORIAL  ON      NM   R$  000000000337100000000033720000000003322000000000334600000000033600000000000000000000000000016551000000000004065600000000013604903200000000000000009999123100000010000000000000BREQTLACNOR0129
012024022302SANB11      010SANTANDER BRUNT          R$  000000000290000000000029000000000002833000000000284900000000028510000000000000000000000000005412000000000001061400000000003024514800000000000000009999123100000010000000000000BRSANBCDAM13163
012024022302SANB3       010SANTANDER BRON           R$  000000000136800000000013680000000001315000000000134000000000013310000000000000000000000000001007000000000000165200000000000221399000000000000000009999123100000010000000000000BRSANBACNOR8170
012024022302SANB4       010SANTANDER BRPN           R$  000000000153300000000016000000000001496000000000151700000000015260000000000000000000000000001038000000000000192000000000000291282400000000000000009999123100000010000000000000BRSANBACNPR5170
012024022302SAPR11      010SANEPAR     UNT     N2   R$  000000000262000000000026200000000002573000000000258700000000025800000000000000000000000000003458000000000000842900000000002180704400000000000000009999123100000010000000000000BRSAPRCDAM13117
012024022302SAPR3       010SANEPAR     ON      N2   R$  000000000050300000000005030000000000494000000000049700000000004980000000000000000000000000000708000000000000254300000000000126446100000000000000009999123100000010000000000000BRSAPRACNOR9158
012024022302SAPR4       010SANEPAR     PN      N2   R$  000000000052800000000005280000000000516000000000051900000000005190000000000000000000000000002884000000000001485300000000000771912800000000000000009999123100000010000000000000BRSAPRACNPR6158
012024022302SBFG3       010GRUPO SBF   ON      NM   R$  000000000127500000000012820000000001255000000000126600000000012580000000000000000000000000005169000000000001549800000000001963137400000000000000009999123100000010000000000000BRSBFGACNOR1102
012024022302SBSP3       010SABESP      ON      NM   R$  000000000807800000000081020000000007966000000000801800000000080190000000000000000000000000009251000000000001623500000000013017573300000000000000009999123100000010000000000000BRSBSPACNOR5160
012024022302SYNE3       010SYN PROP TECON      NM   R$  000000000045300000000004550000000000444000000000045100000000004550000000000000000000000000000327000000000000219900000000000099191400000000000000009999123100000010000000000000BRSYNEACNOR2102
012024022302BEEF3       010MINERVA     ON      NM   R$  000000000067000000000006700000000000649000000000065400000000006500000000000000000000000000011747000000000012822800000000008393398300000000000000009999123100000010000000000000BRBEEFACNOR6116
012024022302CRPG5       010CRISTAL     PNA          R$  000000000360900000000036090000000003531000000000357400000000035490000000000000000000000000000051000000000000008400000000000030025500000000000000009999123100000010000000000000BRCRPGACNPA3118
012024022302CSAN3       010COSAN       ON      NM   R$  000000000181200000000018310000000001774000000000179300000000017740000000000000000000000000013656000000000007815600000000014018611600000000000000009999123100000010000000000000BRCSANACNOR6124
012024022302CSED3       010CRUZEIRO EDUON      NM   R$  000000000043500000000004410000000000414000000000042200000000004190000000000000000000000000001251000000000000550400000000000232615400000000000000009999123100000010000000000000BRCSEDACNOR9104
012024022302CSMG3       010COPASA      ON      NM   R$  000000000215500000000021600000000002082000000000210400000000020970000000000000000000000000005558000000000001260500000000002653231200000000000000009999123100000010000000000000BRCSMGACNOR5171
012024022302TAEE11      010TAESA       UNT     N2   R$  000000000353100000000035470000000003497000000000351800000000035200000000000000000000000000009322000000000002048900000000007208860500000000000000009999123100000010000000000000BRTAEECDAM10145
012024022302TAEE3       010TAESA       ON      N2   R$  000000000116600000000011700000000001153000000000116000000000011640000000000000000000000000000725000000000000124000000000000143881200000000000000009999123100000010000000000000BRTAEEACNOR9145
012024022302TAEE4       010TAESA       PN      N2   R$  000000000118100000000011850000000001173000000000117900000000011840000000000000000000000000000933000000000000263100000000000310202300000000000000009999123100000010000000000000BRTAEEACNPR6145
012024022302TASA3       010TAURUS ARMASON      N2   R$  000000000142700000000014270000000001410000000000141600000000014170000000000000000000000000000088000000000000021400000000000030319100000000000000009999123100000010000000000000BRTASAACNOR7103
012024022302TASA4       010TAURUS ARMASPN      N2   R$  000000000141700000000014200000000001402000000000141000000000014080000000000000000000000000001042000000000000239000000000000337003300000000000000009999123100000010000000000000BRTASAACNPR4103
012024022302TCSA3       010TECNISA     ON      NM   R$  000000000029000000000002930000000000287000000000028900000000002910000000000000000000000000000136000000000000097500000000000028188000000000000000009999123100000010000000000000BRTCSAACNOR3112
012024022302CSNA3       010SID NACIONALON           R$  000000000175000000000017800000000001748000000000176800000000017730000000000000000000000000009361000000000006210000000000010981717200000000000000009999123100000010000000000000BRCSNAACNOR6260
012024022302FRAS3       010FRAS-LE     ON      N1   R$  000000000165400000000016540000000001607000000000162200000000016370000000000000000000000000001517000000000000310100000000000503080800000000000000009999123100000010000000000000BRFRASACNOR0158
012024022302FRIO3       010METALFRIO   ON      NM   R$  000000003410000000000341000000000034000000000003406000000000340000000000000000000000000000000005000000000000000500000000000017030000000000000000009999123100000010000000000000BRFRIOACNOR2111
012024022302GEPA4       010GER PARANAP PN           R$  000000000251900000000025300000000002519000000000252300000000025200000000000000000000000000000003000000000000000300000000000000756900000000000000009999123100000010000000000000BRGEPAACNPR9159
012024022302GFSA3       010GAFISA      ON      NM   R$  000000000070500000000007520000000000685000000000072500000000007380000000000000000000000000009571000000000006526200000000004734706000000000000000009999123100000010000000000000BRGFSAACNOR3123
012024022302GGBR3       010GERDAU      ON      N1   R$  000000000200400000000020110000000001970000000000198700000000020000000000000000000000000000000202000000000000038900000000000077330800000000000000009999123100000010000000000000BRGGBRACNOR1189
012024022302GGBR4       010GERDAU      PN      N1   R$  000000000216500000000021910000000002135000000000215900000000021460000000000000000000000000027173000000000010307700000000022262214900000000000000009999123100000010000000000000BRGGBRACNPR8189
012024022302MRFG3       010MARFRIG     ON      NM   R$  000000000088000000000008830000000000850000000000085600000000008520000000000000000000000000010931000000000005871700000000005027024400000000000000009999123100000010000000000000BRMRFGACNOR0116
012024022302MRVE3       010MRV         ON      NM   R$  000000000077300000000007890000000000767000000000077700000000007700000000000000000000000000016343000000000016139600000000012553638600000000000000009999123100000010000000000000BRMRVEACNOR2126
012024022302ATOM3       010ATOMPAR     ON           R$  000000000019300000000001970000000000192000000000019400000000001940000000000000000000000000000036000000000000009600000000000001865400000000000000009999123100000010000000000000BRATOMACNOR1106
012024022302AURE3       010AUREN       ON      NM   R$  000000000130100000000013040000000001290000000000129300000000012900000000000000000000000000008218000000000004572800000000005915072900000000000000009999123100000010000000000000BRAUREACNOR9103
012024022302ESPA3       010ESPACOLASER ON      NM   R$  000000000010100000000001020000000000100000000000010100000000001000000000000000000000000000000897000000000000513600000000000051889200000000000000009999123100000010000000000000BRESPAACNOR7103
012024022302JHSF3       010JHSF PART   ON      NM   R$  000000000045000000000004530000000000435000000000044000000000004360000000000000000000000000004075000000000002497200000000001101033800000000000000009999123100000010000000000000BRJHSFACNOR2132
012024022302JSLG3       010JSL         ON      NM   R$  000000000118300000000012000000000001161000000000117500000000011750000000000000000000000000001091000000000000225600000000000265251300000000000000009999123100000010000000000000BRJSLGACNOR2121
012024022302AVLL3       010ALPHAVILLE  ON      NM   R$  000000000047500000000004980000000000469000000000048200000000004690000000000000000000000000000016000000000000002000000000000000964800000000000000009999123100000010000000000000BRAVLLACNOR5103
012024022302AZEV3       010AZEVEDO     ON           R$  000000000015700000000001590000000000150000000000015200000000001510000000000000000000000000000360000000000000344000000000000052325500000000000000009999123100000010000000000000BRAZEVACNOR0121
012024022302AZEV4       010AZEVEDO     PN           R$  000000000015900000000001590000000000149000000000015100000000001500000000000000000000000000001135000000000002541000000000000384039800000000000000009999123100000010000000000000BRAZEVACNPR7121
012024022302AZUL4       010AZUL        PN      N2   R$  000000000121000000000012240000000001174000000000118700000000011740000000000000000000000000013849000000000011075700000000013157535300000000000000009999123100000010000000000000BRAZULACNPR4102
012024022302ARZZ3       010AREZZO CO   ON      NM   R$  000000000600000000000060180000000005920000000000597200000000059970000000000000000000000000010546000000000002054400000000012270236700000000000000009999123100000010000000000000BRARZZACNOR3146
012024022302ASAI3       010ASSAI       ON      NM   R$  000000000149200000000014920000000001443000000000146400000000014720000000000000000000000000019637000000000007821200000000011455059300000000000000009999123100000010000000000000BRASAIACNOR0106
012024022302BRGE3       010ALFA CONSORCON           R$  000000000119100000000011910000000001191000000000119100000000011910000000000000000000000000000002000000000000001100000000000001310100000000000000009999123100000010000000000000BRBRGEACNOR6204
012024022302BRGE6       010ALFA CONSORCPNB          R$  000000000125000000000015000000000001250000000000144400000000013800000000000000000000000000000011000000000000002100000000000003032400000000000000009999123100000010000000000000BRBRGEACNPB7219
012024022302BRGE7       010ALFA CONSORCPNC          R$  000000000135000000000013500000000001350000000000135000000000013500000000000000000000000000000001000000000000000100000000000000135000000000000000009999123100000010000000000000BRBRGEACNPC5220
012024022302BRGE8       010ALFA CONSORCPND          R$  000000000116600000000011660000000001165000000000116500000000011650000000000000000000000000000002000000000000000700000000000000815700000000000000009999123100000010000000000000BRBRGEACNPD3221
012024022302BRIT3       010BRISANET    ON      NM   R$  000000000034600000000003550000000000340000000000034700000000003510000000000000000000000000000560000000000000336500000000000116839100000000000000009999123100000010000000000000BRBRITACNOR0102
012024022302BRIV3       010ALFA INVEST ON           R$  000000000113200000000011350000000001132000000000113200000000011350000000000000000000000000000003000000000000004800000000000005436600000000000000009999123100000010000000000000BRBRIVACNOR6209
012024022302BRIV4       010ALFA INVEST PN           R$  000000000110400000000012140000000001104000000000113200000000012090000000000000000000000000000022000000000000005900000000000006680900000000000000009999123100000010000000000000BRBRIVACNPR3218
012024022302BRKM3       010BRASKEM     ON      N1   R$  000000000210400000000021230000000002045000000000208400000000020700000000000000000000000000000099000000000000019000000000000039601500000000000000009999123100000010000000000000BRBRKMACNOR1119
012024022302RCSL3       010RECRUSUL    ON           R$  000000000017300000000001740000000000166000000000016900000000001680000000000000000000000000001798000000000001915300000000000323951200000000000000009999123100000010000000000000BRRCSLACNOR4133
012024022302RCSL4       010RECRUSUL    PN           R$  000000000008100000000000880000000000080000000000008300000000000830000000000000000000000000007007000000000011965500000000001005090600000000000000009999123100000010000000000000BRRCSLACNPR1133
012024022302RDNI3       010RNI         ON      NM   R$  000000000043000000000004300000000000425000000000042500000000004250000000000000000000000000000018000000000000005600000000000002383500000000000000009999123100000010000000000000BRRDNIACNOR9116
012024022302RDOR3       010REDE D OR   ON      NM   R$  000000000256300000000025640000000002492000000000250800000000025100000000000000000000000000017340000000000006646500000000016670872800000000000000009999123100000010000000000000BRRDORACNOR8111
012024022302BBSE3       010BBSEGURIDADEON      NM   R$  000000000334800000000033560000000003305000000000332300000000033050000000000000000000000000007818000000000002079900000000006912603500000000000000009999123100000010000000000000BRBBSEACNOR5124
012024022302CPFE3       010CPFL ENERGIAON      NM   R$  000000000358700000000036180000000003543000000000358600000000035860000000000000000000000000007548000000000002263200000000008117412100000000000000009999123100000010000000000000BRCPFEACNOR0136
012024022302CPLE3       010COPEL       ON      N2   R$  000000000093000000000009330000000000917000000000092300000000009220000000000000000000000000004633000000000003780300000000003492613700000000000000009999123100000010000000000000BRCPLEACNOR8148
012024022302CPLE6       010COPEL       PNB     N2   R$  000000000103000000000010360000000001016000000000102200000000010180000000000000000000000000017276000000000013718700000000014026842500000000000000009999123100000010000000000000BRCPLEACNPB9145
012024022302CRFB3       010CARREFOUR BRON      NM   R$  000000000128800000000012880000000001227000000000124500000000012310000000000000000000000000015638000000000006606700000000008228665100000000000000009999123100000010000000000000BRCRFBACNOR2116
012024022302CRIV3       010ALFA FINANC ON           R$  000000000061600000000006160000000000615000000000061500000000006150000000000000000000000000000002000000000000001000000000000000615500000000000000009999123100000010000000000000BRCRIVACNOR4195
012024022302CRIV4       010ALFA FINANC PN           R$  000000000059300000000006090000000000591000000000059200000000005910000000000000000000000000000008000000000000001900000000000001126200000000000000009999123100000010000000000000BRCRIVACNPR1211
012024022302ESTR4       010ESTRELA     PN           R$  000000000029700000000002970000000000296000000000029600000000002960000000000000000000000000000006000000000000000600000000000000178100000000000000009999123100000010000000000000BRESTRACNPR0144
012024022302EUCA4       010EUCATEX     PN      N1   R$  000000000170200000000017020000000001664000000000167800000000016820000000000000000000000000000115000000000000021300000000000035745400000000000000009999123100000010000000000000BREUCAACNPR8044
012024022302HYPE3       010HYPERA      ON  EJ  NM   R$  000000000337400000000033950000000003331000000000336000000000033530000000000000000000000000010937000000000002746000000000009228322500000000000000009999123100000010000000000000BRHYPEACNOR0138
012024022302DASA3       010DASA        ON      NM   R$  000000000072400000000007310000000000706000000000071900000000007060000000000000000000000000000970000000000000171100000000000123087300000000000000009999123100000010000000000000BRDASAACNOR1122
012024022302GMAT3       010GRUPO MATEUSON      NM   R$  000000000080300000000008060000000000788000000000079800000000007980000000000000000000000000012011000000000009392600000000007500317200000000000000009999123100000010000000000000BRGMATACNOR7100
012024022302GOAU3       010GERDAU MET  ON      N1   R$  000000000102800000000010350000000001008000000000101500000000010110000000000000000000000000000312000000000000092800000000000094224100000000000000009999123100000010000000000000BRGOAUACNOR1265
012024022302JALL3       010JALLESMACHADON      NM   R$  000000000076000000000007600000000000740000000000074700000000007410000000000000000000000000001809000000000000365500000000000273115800000000000000009999123100000010000000000000BRJALLACNOR0105
012024022302JBSS3       010JBS         ON      NM   R$  000000000216400000000021680000000002116000000000212900000000021250000000000000000000000000014929000000000006878500000000014649427700000000000000009999123100000010000000000000BRJBSSACNOR8121
012024022302MAPT3       010CEMEPE      ON           R$  000000000100000000000011010000000001000000000000106700000000011000000000000000000000000000000003000000000000000300000000000000320100000000000000009999123100000010000000000000BRMAPTACNOR8106
012024022302MAPT4       010CEMEPE      PN           R$  000000000078000000000007800000000000780000000000078000000000007800000000000000000000000000000001000000000000000100000000000000078000000000000000009999123100000010000000000000BRMAPTACNPR5106
012024022302MATD3       010MATER DEI   ON      NM   R$  000000000063800000000006380000000000626000000000062900000000006270000000000000000000000000001358000000000000412900000000000259835800000000000000009999123100000010000000000000BRMATDACNOR4103
012024022302MBLY3       010MOBLY       ON      NM   R$  000000000023900000000002440000000000236000000000024100000000002410000000000000000000000000001120000000000000997300000000000240976400000000000000009999123100000010000000000000BRMBLYACNOR5100
012024022302MDIA3       010M.DIASBRANCOON      NM   R$  000000000390500000000040450000000003887000000000399500000000040130000000000000000000000000004946000000000001332000000000005321965000000000000000009999123100000010000000000000BRMDIAACNOR7133
012024022302MDNE3       010MOURA DUBEUXON      NM   R$  000000000123600000000012360000000001191000000000120800000000012250000000000000000000000000000919000000000000278300000000000336408400000000000000009999123100000010000000000000BRMDNEACNOR9100
012024022302MEAL3       010IMC S/A     ON      NM   R$  000000000019000000000001930000000000189000000000019100000000001920000000000000000000000000000344000000000000499500000000000095480400000000000000009999123100000010000000000000BRMEALACNOR9105
012024022302MELK3       010MELNICK     ON      NM   R$  000000000048500000000004850000000000470000000000047600000000004800000000000000000000000000000218000000000000122900000000000058591100000000000000009999123100000010000000000000BRMELKACNOR8110
012024022302MGEL4       010MANGELS INDLPN           R$  000000000132600000000013500000000001319000000000132500000000013190000000000000000000000000000008000000000000000800000000000001060300000000000000009999123100000010000000000000BRMGELACNPR3147
012024022302MGLU3       010MAGAZ LUIZA ON      NM   R$  000000000021100000000002150000000000205000000000021000000000002150000000000000000000000000016153000000000108668200000000022823746300000000000000009999123100000010000000000000BRMGLUACNOR2123
012024022302AERI3       010AERIS       ON      NM   R$  000000000007600000000000770000000000071000000000007300000000000740000000000000000000000000006691000000000008379200000000000615642700000000000000009999123100000010000000000000BRAERIACNOR4101
012024022302AESB3       010AES BRASIL  ON      NM   R$  000000000105600000000010750000000001044000000000106100000000010680000000000000000000000000006169000000000002095500000000002225339900000000000000009999123100000010000000000000BRAESBACNOR7105
012024022302AGRO3       010BRASILAGRO  ON      NM   R$  000000000239400000000024290000000002361000000000238200000000023610000000000000000000000000001548000000000000272600000000000649439800000000000000009999123100000010000000000000BRAGROACNOR7114
012024022302AGXY3       010AGROGALAXY  ON      NM   R$  000000000017100000000001730000000000166000000000016800000000001680000000000000000000000000000481000000000000134600000000000022692100000000000000009999123100000010000000000000BRAGXYACNOR4102
012024022302ALLD3       010ALLIED      ON      NM   R$  000000000068800000000006990000000000688000000000069200000000006910000000000000000000000000000020000000000000002700000000000001870800000000000000009999123100000010000000000000BRALLDACNOR3105
012024022302ALOS3       010ALLOS       ON      NM   R$  000000000241800000000024180000000002373000000000239400000000023980000000000000000000000000010669000000000003087800000000007392346100000000000000009999123100000010000000000000BRALOSACNOR5100
012024022302ALPA3       010ALPARGATAS  ON      N1   R$  000000000100300000000010490000000001000000000000102900000000010170000000000000000000000000000014000000000000002400000000000002469700000000000000009999123100000010000000000000BRALPAACNOR0231
012024022302ALPA4       010ALPARGATAS  PN      N1   R$  000000000099400000000010090000000000979000000000099500000000010050000000000000000000000000013436000000000006635300000000006607602300000000000000009999123100000010000000000000BRALPAACNPR7232
012024022302BBDC3       010BRADESCO    ON      N1   R$  000000000124900000000012530000000001234000000000124400000000012450000000000000000000000000009565000000000008908200000000011087657300000000000000009999123100000010000000000000BRBBDCACNOR1766
012024022302BBDC4       010BRADESCO    PN      N1   R$  000000000140300000000014100000000001377000000000138900000000013820000000000000000000000000029185000000000034747400000000048283420100000000000000009999123100000010000000000000BRBBDCACNPR8766
012024022302CEBR3       010CEB         ON           R$  000000000204900000000020490000000001992000000000201700000000020180000000000000000000000000000030000000000000004500000000000009079200000000000000009999123100000010000000000000BRCEBRACNOR5124
012024022302CEBR5       010CEB         PNA          R$  000000000186700000000018670000000001850000000000186000000000018650000000000000000000000000000012000000000000002400000000000004466100000000000000009999123100000010000000000000BRCEBRACNPA8123
012024022302CEBR6       010CEB         PNB          R$  000000000225200000000022840000000002215000000000225600000000022750000000000000000000000000000017000000000000002000000000000004513100000000000000009999123100000010000000000000BRCEBRACNPB6123
012024022302CEDO3       010CEDRO       ON      N1   R$  000000000248400000000024840000000002484000000000248400000000024840000000000000000000000000000005000000000000006000000000000014904000000000000000009999123100000010000000000000BRCEDOACNOR8096
012024022302CEDO4       010CEDRO       PN      N1   R$  000000000250100000000025010000000002493000000000249500000000024940000000000000000000000000000020000000000000006600000000000016469800000000000000009999123100000010000000000000BRCEDOACNPR5128
012024022302CEEB3       010COELBA      ON           R$  000000000393500000000039500000000003930000000000393700000000039500000000000000000000000000000004000000000000000400000000000001574900000000000000009999123100000010000000000000BRCEEBACNOR3196
012024022302CEGR3       010CEG         ON           R$  000000000715000000000071500000000006800000000000697700000000068000000000000000000000000000000003000000000000000300000000000002093200000000000000009999123100000010000000000000BRCEGRACNOR4144
012024022302CGAS3       010COMGAS      ON           R$  000000000951600000000095160000000009516000000000951600000000095160000000000000000000000000000001000000000000000100000000000000951600000000000000009999123100000010000000000000BRCGASACNOR0162
012024022302CGAS5       010COMGAS      PNA          R$  000000001105000000000110990000000011000000000001106800000000110990000000000000000000000000000007000000000000000700000000000007747600000000000000009999123100000010000000000000BRCGASACNPA3159
012024022302CGRA3       010GRAZZIOTIN  ON           R$  000000000259500000000025950000000002595000000000259500000000025950000000000000000000000000000001000000000000000200000000000000519000000000000000009999123100000010000000000000BRCGRAACNOR2081
012024022302CGRA4       010GRAZZIOTIN  PN           R$  000000000263300000000026650000000002601000000000264200000000026650000000000000000000000000000027000000000000004300000000000011361500000000000000009999123100000010000000000000BRCGRAACNPR9081
012024022302CIEL3       010CIELO       ON      NM   R$  000000000053000000000005350000000000527000000000053100000000005350000000000000000000000000010999000000000017302600000000009194786900000000000000009999123100000010000000000000BRCIELACNOR3156
012024022302CLSA3       010CLEARSALE   ON      NM   R$  000000000039300000000004020000000000383000000000039500000000004000000000000000000000000000006644000000000002477700000000000981118300000000000000009999123100000010000000000000BRCLSAACNOR0100
012024022302CLSC4       010CELESC      PN      N2   R$  000000000659900000000066980000000006599000000000669000000000066980000000000000000000000000000013000000000000003300000000000022077700000000000000009999123100000010000000000000BRCLSCACNPR3128
012024022302EKTR4       010ELEKTRO     PN           R$  000000000400800000000040080000000004008000000000400800000000040080000000000000000000000000000003000000000000000300000000000001202400000000000000009999123100000010000000000000BREKTRACNPR7159
012024022302ELET3       010ELETROBRAS  ON      N1   R$  000000000436800000000043730000000004283000000000431000000000043140000000000000000000000000017744000000000006597300000000028437165800000000000000009999123100000010000000000000BRELETACNOR6159
012024022302ELET6       010ELETROBRAS  PNB     N1   R$  000000000482600000000048260000000004722000000000475200000000047470000000000000000000000000004658000000000000673600000000003201504900000000000000009999123100000010000000000000BRELETACNPB7076
012024022302LUPA3       010LUPATECH    ON      NM   R$  000000000019300000000001940000000000188000000000018900000000001910000000000000000000000000000201000000000000068500000000000013014300000000000000009999123100000010000000000000BRLUPAACNOR8112
012024022302LUXM4       010TREVISA     PN           R$  000000000158800000000015880000000001550000000000157500000000015880000000000000000000000000000003000000000000000300000000000000472600000000000000009999123100000010000000000000BRLUXMACNPR4051
012024022302LVTC3       010WDC NETWORKSON      NM   R$  000000000038200000000003920000000000381000000000038400000000003910000000000000000000000000000047000000000000010200000000000003922100000000000000009999123100000010000000000000BRLVTCACNOR4102
012024022302LWSA3       010LWSA        ON      NM   R$  000000000055000000000005530000000000541000000000054500000000005450000000000000000000000000006704000000000002935800000000001600949800000000000000009999123100000010000000000000BRLWSAACNOR8103
012024022302BGIP4       010BANESE      PN           R$  000000000257500000000026900000000002575000000000266100000000026890000000000000000000000000000015000000000000002400000000000006388300000000000000009999123100000010000000000000BRBGIPACNPR8206
012024022302BHIA3       010CASAS BAHIA ON      NM   R$  000000000090100000000009010000000000833000000000085300000000008330000000000000000000000000007530000000000005232000000000004468030100000000000000009999123100000010000000000000BRBHIAACNOR1101
012024022302CSUD3       010CSU DIGITAL ON      NM   R$  000000000189400000000019330000000001890000000000190600000000019100000000000000000000000000000230000000000000038400000000000073207000000000000000009999123100000010000000000000BRCSUDACNOR5107
012024022302CTKA4       010KARSTEN     PN           R$  000000000165000000000016500000000001560000000000157300000000016300000000000000000000000000000010000000000000005000000000000007869300000000000000009999123100000010000000000000BRCTKAACNPR7043
012024022302BIOM3       010BIOMM       ON      MA   R$  000000000081900000000010200000000000819000000000096400000000010070000000000000000000000000000744000000000000173600000000000167428000000000000000009999123100000010000000000000BRBIOMACNOR2112
012024022302BRSR3       010BANRISUL    ON      N1   R$  000000000150000000000015430000000001492000000000150800000000015010000000000000000000000000000022000000000000002300000000000003469900000000000000009999123100000010000000000000BRBRSRACNOR3185
012024022302BRSR6       010BANRISUL    PNB     N1   R$  000000000153300000000015350000000001502000000000150900000000015120000000000000000000000000003328000000000000878900000000001326859000000000000000009999123100000010000000000000BRBRSRACNPB4188
012024022302CXSE3       010CAIXA SEGURION      NM   R$  000000000147000000000014970000000001450000000000147900000000014770000000000000000000000000017071000000000007049400000000010429620000000000000000009999123100000010000000000000BRCXSEACNOR7105
012024022302CYRE3       010CYRELA REALTON      NM   R$  000000000231100000000023170000000002280000000000229600000000022900000000000000000000000000007802000000000002336200000000005364860300000000000000009999123100000010000000000000BRCYREACNOR7139
012024022302VULC3       010VULCABRAS   ON      NM   R$  000000000186700000000018950000000001850000000000187000000000018700000000000000000000000000005024000000000001333400000000002494429100000000000000009999123100000010000000000000BRVULCACNOR2157
012024022302VVEO3       010VIVEO       ON      NM   R$  000000000082000000000008400000000000807000000000082000000000008170000000000000000000000000005957000000000001358200000000001114653400000000000000009999123100000010000000000000BRVVEOACNOR0103
012024022302MLAS3       010MULTILASER  ON      NM   R$  000000000021100000000002120000000000201000000000020400000000002010000000000000000000000000003041000000000001073400000000000219908500000000000000009999123100000010000000000000BRMLASACNOR9101
012024022302MNPR3       010MINUPAR     ON           R$  000000000184900000000018810000000001849000000000185000000000018810000000000000000000000000000010000000000000010300000000000019055500000000000000009999123100000010000000000000BRMNPRACNOR5122
012024022302MOVI3       010MOVIDA      ON      NM   R$  000000000084300000000008450000000000803000000000081400000000008250000000000000000000000000006442000000000004689700000000003820256700000000000000009999123100000010000000000000BRMOVIACNOR0122
012024022302RADL3       010RAIADROGASILON      NM   R$  000000000260000000000026180000000002581000000000260200000000026180000000000000000000000000011991000000000005287100000000013759018300000000000000009999123100000010000000000000BRRADLACNOR0154
012024022302RAIL3       010RUMO S.A.   ON      NM   R$  000000000229900000000023120000000002280000000000229100000000022810000000000000000000000000015863000000000007771500000000017809433200000000000000009999123100000010000000000000BRRAILACNOR9104
012024022302RAIZ4       010RAIZEN      PN      N2   R$  000000000038400000000003850000000000368000000000037300000000003690000000000000000000000000021816000000000017252500000000006436151700000000000000009999123100000010000000000000BRRAIZACNPR6109
012024022302SCAR3       010SAO CARLOS  ON      NM   R$  000000000265900000000026590000000002571000000000260500000000025890000000000000000000000000000056000000000000020600000000000053675300000000000000009999123100000010000000000000BRSCARACNOR7130
012024022302SEER3       010SER EDUCA   ON      NM   R$  000000000064100000000006440000000000619000000000062800000000006200000000000000000000000000001105000000000000364300000000000229005700000000000000009999123100000010000000000000BRSEERACNOR5119
012024022302SEQL3       010SEQUOIA LOG ON      NM   R$  000000000004300000000000470000000000042000000000004400000000000450000000000000000000000000002000000000000013407000000000000595090900000000000000009999123100000010000000000000BRSEQLACNOR2101
012024022302SGPS3       010SPRINGS     ON      NM   R$  000000000010000000000001040000000000099000000000010100000000000990000000000000000000000000000344000000000000477000000000000048205600000000000000009999123100000010000000000000BRSGPSACNOR4104
012024022302SHOW3       010TIME FOR FUNON      NM   R$  000000000020100000000002030000000000200000000000020100000000002000000000000000000000000000000214000000000000223000000000000044928200000000000000009999123100000010000000000000BRSHOWACNOR7105
012024022302SHUL4       010SCHULZ      PN           R$  000000000068700000000006870000000000675000000000067900000000006770000000000000000000000000001422000000000000294300000000000199860300000000000000009999123100000010000000000000BRSHULACNPR4154
012024022302SIMH3       010SIMPAR      ON      NM   R$  000000000077000000000007740000000000756000000000076100000000007610000000000000000000000000004646000000000001794500000000001367239700000000000000009999123100000010000000000000BRSIMHACNOR0107
012024022302VALE3       010VALE        ON      NM   R$  000000000682500000000069070000000006724000000000680800000000067380000000000000000000000000069103000000000042104500000000286658194000000000000000009999123100000010000000000000BRVALEACNOR0209
012024022302LAND3       010TERRASANTAPAON      NM   R$  000000000155700000000016020000000001540000000000156700000000015920000000000000000000000000000072000000000000018600000000000029164000000000000000009999123100000010000000000000BRLANDACNOR9102
012024022302LAVV3       010LAVVI       ON      NM   R$  000000000078900000000008090000000000766000000000077700000000007800000000000000000000000000003242000000000001031000000000000801793000000000000000009999123100000010000000000000BRLAVVACNOR4110
012024022302LEVE3       010METAL LEVE  ON      NM   R$  000000000357300000000035820000000003470000000000350400000000034940000000000000000000000000002069000000000000335300000000001174913400000000000000009999123100000010000000000000BRLEVEACNOR2196
012024022302LJQQ3       010QUERO-QUERO ON      NM   R$  000000000052800000000005340000000000518000000000052400000000005240000000000000000000000000003554000000000001976600000000001037046400000000000000009999123100000010000000000000BRLJQQACNOR5104
012024022302LOGG3       010LOG COM PROPON  ED  NM   R$  000000000210300000000021030000000002073000000000208900000000020870000000000000000000000000001372000000000000186200000000000389141200000000000000009999123100000010000000000000BRLOGGACNOR7107
012024022302LOGN3       010LOG-IN      ON      NM   R$  000000000372500000000037250000000003655000000000369600000000036790000000000000000000000000000120000000000000016900000000000062474400000000000000009999123100000010000000000000BRLOGNACNOR3105
012024022302LPSB3       010LOPES BRASILON      NM   R$  000000000020000000000002040000000000197000000000020000000000002010000000000000000000000000000194000000000000097000000000000019464900000000000000009999123100000010000000000000BRLPSBACNOR0113
012024022302LREN3       010LOJAS RENNERON      NM   R$  000000000155000000000015730000000001498000000000153100000000015260000000000000000000000000024582000000000016917800000000025907213800000000000000009999123100000010000000000000BRLRENACNOR1219
012024022302MILS3       010MILLS       ON      NM   R$  000000000123900000000012470000000001222000000000122800000000012220000000000000000000000000001831000000000000659800000000000810301500000000000000009999123100000010000000000000BRMILSACNOR2124
012024022302PFRM3       010PROFARMA    ON      NM   R$  000000000051200000000005290000000000508000000000052000000000005180000000000000000000000000000667000000000000237700000000000123700000000000000000009999123100000010000000000000BRPFRMACNOR1116
012024022302PGMN3       010PAGUE MENOS ON      NM   R$  000000000028600000000002880000000000284000000000028400000000002850000000000000000000000000001724000000000001204800000000000343242400000000000000009999123100000010000000000000BRPGMNACNOR8103
012024022302PINE3       010PINE        ON      N2   R$  000000000050100000000007990000000000501000000000067900000000006300000000000000000000000000000035000000000000003800000000000002582200000000000000009999123100000010000000000000BRPINEACNOR1148
012024022302PINE4       010PINE        PN      N2   R$  000000000046400000000004680000000000445000000000045500000000004550000000000000000000000000000549000000000000360900000000000164293900000000000000009999123100000010000000000000BRPINEACNPR8148
012024022302PLPL3       010PLANOEPLANO ON      NM   R$  000000000134300000000013550000000001295000000000131600000000012950000000000000000000000000001335000000000000406400000000000534871600000000000000009999123100000010000000000000BRPLPLACNOR5104
012024022302PNVL3       010DIMED       ON      NM   R$  000000000119300000000011940000000001167000000000117300000000011670000000000000000000000000001400000000000000221500000000000260010100000000000000009999123100000010000000000000BRPNVLACNOR9205
012024022302POMO3       010MARCOPOLO   ON      N2   R$  000000000065300000000006640000000000626000000000063700000000006400000000000000000000000000003402000000000001161100000000000739754900000000000000009999123100000010000000000000BRPOMOACNOR0095
012024022302POMO4       010MARCOPOLO   PN      N2   R$  000000000082700000000008300000000000791000000000080100000000007980000000000000000000000000013317000000000010187400000000008166448900000000000000009999123100000010000000000000BRPOMOACNPR7095
012024022302PORT3       010WILSON SONS ON      NM   R$  000000000169500000000016980000000001666000000000168300000000016980000000000000000000000000000642000000000000172000000000000289577200000000000000009999123100000010000000000000BRPORTACNOR8106
012024022302POSI3       010POSITIVO TECON      NM   R$  000000000083000000000008300000000000772000000000079600000000007720000000000000000000000000003233000000000001140500000000000908463100000000000000009999123100000010000000000000BRPOSIACNOR9115
012024022302PRNR3       010PRINER      ON      NM   R$  000000000114800000000011530000000001136000000000114800000000011520000000000000000000000000000479000000000000083100000000000095438700000000000000009999123100000010000000000000BRPRNRACNOR4108
012024022302PSSA3       010PORTO SEGUROON      NM   R$  000000000266400000000026980000000002661000000000268000000000026750000000000000000000000000006712000000000001773500000000004754586900000000000000009999123100000010000000000000BRPSSAACNOR7153
012024022302PTBL3       010PORTOBELLO  ON      NM   R$  000000000059400000000006010000000000578000000000058400000000005820000000000000000000000000002171000000000000482300000000000281875500000000000000009999123100000010000000000000BRPTBLACNOR8132
012024022302PTNT3       010PETTENATI   ON           R$  000000000118800000000012410000000001188000000000119900000000012410000000000000000000000000000013000000000000002300000000000002758800000000000000009999123100000010000000000000BRPTNTACNOR6042
012024022302PTNT4       010PETTENATI   PN           R$  000000000076400000000007640000000000751000000000075400000000007540000000000000000000000000000012000000000000002900000000000002187000000000000000009999123100000010000000000000BRPTNTACNPR3047
012024022302QUAL3       010QUALICORP   ON      NM   R$  000000000024400000000002440000000000226000000000023100000000002320000000000000000000000000004364000000000006064700000000001401913000000000000000009999123100000010000000000000BRQUALACNOR6119
012024022302USIM5       010USIMINAS    PNA     N1   R$  000000000106600000000010700000000001052000000000106200000000010700000000000000000000000000016948000000000012143900000000012908898800000000000000009999123100000010000000000000BRUSIMACNPA6168
012024022302PRIO3       010PETRORIO    ON      NM   R$  000000000465600000000046940000000004540000000000461000000000045800000000000000000000000000025206000000000010263800000000047317145600000000000000009999123100000010000000000000BRPRIOACNOR1106
012024022302VITT3       010VITTIA      ON      NM   R$  000000000076100000000007710000000000702000000000072000000000007200000000000000000000000000003127000000000001194500000000000860279400000000000000009999123100000010000000000000BRVITTACNOR4106
012024022302VIVA3       010VIVARA S.A. ON      NM   R$  000000000332800000000033290000000003250000000000328600000000033020000000000000000000000000005007000000000001066100000000003504155800000000000000009999123100000010000000000000BRVIVAACNOR0106
012024022302VIVR3       010VIVER       ON      NM   R$  000000000037000000000003700000000000352000000000036200000000003560000000000000000000000000000223000000000000221800000000000080420000000000000000009999123100000010000000000000BRVIVRACNOR4122
012024022302VIVT3       010TELEF BRASILON           R$  000000000563800000000056550000000005529000000000556600000000055310000000000000000000000000009811000000000002032500000000011314011100000000000000009999123100000010000000000000BRVIVTACNOR0178
012024022302VLID3       010VALID       ON      NM   R$  000000000193100000000019430000000001875000000000189600000000018920000000000000000000000000002859000000000000612200000000001161297800000000000000009999123100000010000000000000BRVLIDACNOR5141
012024022302VSTE3       010VESTE       ON      NM   R$  000000000144000000000014400000000001422000000000143200000000014260000000000000000000000000000016000000000000002400000000000003439000000000000000009999123100000010000000000000BRVSTEACNOR5102
012024022302TTEN3       0103TENTOS     ON      NM   R$  000000000098800000000009940000000000972000000000098200000000009880000000000000000000000000004381000000000000964400000000000947344300000000000000009999123100000010000000000000BRTTENACNOR0102
012024022302TUPY3       010TUPY        ON      NM   R$  000000000255600000000025690000000002475000000000250200000000024860000000000000000000000000004425000000000000995400000000002491108200000000000000009999123100000010000000000000BRTUPYACNOR1183
012024022302UCAS3       010UNICASA     ON      NM   R$  000000000026500000000002650000000000262000000000026300000000002630000000000000000000000000000050000000000000014200000000000003747000000000000000009999123100000010000000000000BRUCASACNOR1113
012024022302UGPA3       010ULTRAPAR    ON      NM   R$  000000000311000000000031100000000003040000000000305800000000030510000000000000000000000000017266000000000004783300000000014629547200000000000000009999123100000010000000000000BRUGPAACNOR8154
012024022302UNIP3       010UNIPAR      ON           R$  000000000637000000000063750000000006295000000000632100000000063380000000000000000000000000000048000000000000005500000000000034765700000000000000009999123100000010000000000000BRUNIPACNOR7204
012024022302UNIP6       010UNIPAR      PNB          R$  000000000687700000000069200000000006669000000000672100000000066690000000000000000000000000001173000000000000169000000000001135882400000000000000009999123100000010000000000000BRUNIPACNPB8204
012024022302USIM3       010USIMINAS    ON      N1   R$  000000000104100000000010500000000001033000000000104200000000010500000000000000000000000000001684000000000001064800000000001110063700000000000000009999123100000010000000000000BRUSIMACNOR3166
012024022302PETZ3       010PETZ        ON      NM   R$  000000000038400000000003900000000000377000000000038300000000003810000000000000000000000000008027000000000008529700000000003271323700000000000000009999123100000010000000000000BRPETZACNOR2109
012024022302ALUP11      010ALUPAR      UNT     N2   R$  000000000296900000000030000000000002950000000000297500000000029900000000000000000000000000002682000000000000622500000000001852112400000000000000009999123100000010000000000000BRALUPCDAM15117
012024022302ALUP3       010ALUPAR      ON      N2   R$  000000000099000000000009990000000000982000000000098800000000009990000000000000000000000000000058000000000000006500000000000006428400000000000000009999123100000010000000000000BRALUPACNOR8117
012024022302ALUP4       010ALUPAR      PN      N2   R$  000000000099000000000009990000000000982000000000099100000000009990000000000000000000000000000101000000000000012800000000000012688300000000000000009999123100000010000000000000BRALUPACNPR5117
012024022302AMAR3       010LOJAS MARISAON      NM   R$  000000000024200000000002420000000000233000000000023400000000002340000000000000000000000000000660000000000000880200000000000206295100000000000000009999123100000010000000000000BRAMARACNOR4114
012024022302AMBP3       010AMBIPAR     ON      NM   R$  000000000151500000000015380000000001502000000000152100000000015340000000000000000000000000003199000000000000737100000000001121446200000000000000009999123100000010000000000000BRAMBPACNOR6103
012024022302ANIM3       010ANIMA       ON      NM   R$  000000000046200000000004710000000000452000000000046000000000004600000000000000000000000000007239000000000005600200000000002578814900000000000000009999123100000010000000000000BRANIMACNOR6107
012024022302APER3       010ALPER S.A.  ON           R$  000000000441300000000044500000000004412000000000441700000000044150000000000000000000000000000020000000000000003400000000000015021000000000000000009999123100000010000000000000BRAPERACNOR9106
012024022302ARML3       010ARMAC       ON      NM   R$  000000000135400000000013540000000001300000000000131300000000013010000000000000000000000000002371000000000000424700000000000557739400000000000000009999123100000010000000000000BRARMLACNOR1110
012024022302ALPK3       010ESTAPAR     ON      NM   R$  000000000046700000000004700000000000454000000000046200000000004700000000000000000000000000000206000000000000054800000000000025325000000000000000009999123100000010000000000000BRALPKACNOR9101
012024022302KEPL3       010KEPLER WEBERON      NM   R$  000000000100400000000010070000000000994000000000100000000000009940000000000000000000000000002911000000000000994200000000000994276800000000000000009999123100000010000000000000BRKEPLACNOR1061
012024022302KLBN11      010KLABIN S/A  UNT ED  N2   R$  000000000219500000000022100000000002164000000000218600000000021680000000000000000000000000009273000000000003445700000000007534747300000000000000009999123100000010000000000000BRKLBNCDAM18140
012024022302KLBN3       010KLABIN S/A  ON  ED  N2   R$  000000000043700000000004410000000000433000000000043700000000004350000000000000000000000000000652000000000000249900000000000109270300000000000000009999123100000010000000000000BRKLBNACNOR2168
012024022302KLBN4       010KLABIN S/A  PN  ED  N2   R$  000000000043900000000004420000000000432000000000043600000000004320000000000000000000000000002209000000000001512500000000000660914500000000000000009999123100000010000000000000BRKLBNACNPR9168
012024022302BRAP4       010BRADESPAR   PN      N1   R$  000000000221300000000022280000000002169000000000219700000000021770000000000000000000000000011536000000000005649400000000012416272600000000000000009999123100000010000000000000BRBRAPACNPR2147
012024022302BRBI11      010BR PARTNERS UNT     N2   R$  000000000155600000000015590000000001532000000000154700000000015510000000000000000000000000000631000000000000193400000000000299238100000000000000009999123100000010000000000000BRBRBICDAM10107
012024022302BRFS3       010BRF SA      ON      NM   R$  000000000139000000000013990000000001341000000000135400000000013500000000000000000000000000014596000000000008875800000000012023932500000000000000009999123100000010000000000000BRBRFSACNOR8121
012024022302CMIG3       010CEMIG       ON      N1   R$  000000000151700000000015170000000001500000000000150600000000015130000000000000000000000000001200000000000000228700000000000344642200000000000000009999123100000010000000000000BRCMIGACNOR6239
012024022302CMIG4       010CEMIG       PN      N1   R$  000000000117700000000011800000000001154000000000116100000000011600000000000000000000000000012555000000000007877300000000009152015700000000000000009999123100000010000000000000BRCMIGACNPR3240
012024022302CMIN3       010CSNMINERACAOON      N2   R$  000000000062500000000006300000000000615000000000061900000000006150000000000000000000000000009298000000000004286400000000002655366600000000000000009999123100000010000000000000BRCMINACNOR2110
012024022302COCE5       010COELCE      PNA          R$  000000000441900000000046470000000004400000000000453800000000045530000000000000000000000000000331000000000000039100000000000177455300000000000000009999123100000010000000000000BRCOCEACNPA3146
012024022307NUTR3       010NUTRIPLANT  ON      MA   R$  000000000058100000000005810000000000556000000000056900000000005730000000000000000000000000000020000000000000003600000000000002049900000000000000009999123100000010000000000000BRNUTRACNOR0104
012024022307TXRX4       010TEX RENAUX  PN           R$  000000000027800000000002780000000000262000000000027100000000002750000000000000000000000000000006000000000000001100000000000000298400000000000000009999123100000010000000000000BRTXRXACNPR0142
012024022308NEXP3       010NEXPE       ON      NM   R$  000000000048000000000004860000000000476000000000047700000000004760000000000000000000000000000008000000000000002800000000000001338300000000000000009999123100000010000000000000BRNEXPACNOR0101
012024022308RPMG3       010PET MANGUINHON           R$  000000000020700000000002090000000000204000000000020600000000002040000000000000000000000000000009000000000000001500000000000000309500000000000000009999123100000010000000000000BRRPMGACNOR9194
012024022308RSID3       010ROSSI RESID ON      NM   R$  000000000036700000000003810000000000363000000000036800000000003710000000000000000000000000000231000000000000085100000000000031330900000000000000009999123100000010000000000000BRRSIDACNOR8120
012024022308HOOT4       010HOTEIS OTHONPN           R$  000000000028300000000002840000000000283000000000028300000000002830000000000000000000000000000008000000000000001700000000000000481600000000000000009999123100000010000000000000BRHOOTACNPR9015
012024022308TEKA4       010TEKA        PN           R$  000000000324800000000041000000000002950000000000372900000000041000000000000000000000000000000108000000000000045700000000000170459400000000000000009999123100000010000000000000BRTEKAACNPR3140
012024022308OIBR3       010OI          ON      N1   R$  000000000012800000000001390000000000117000000000012500000000001240000000000000000000000000013114000000000051898600000000006520763400000000000000009999123100000010000000000000BROIBRACNOR1110
012024022308OIBR4       010OI          PN      N1   R$  000000000027900000000003050000000000260000000000028100000000002680000000000000000000000000002233000000000001287000000000000362724100000000000000009999123100000010000000000000BROIBRACNPR8109
012024022308OSXB3       010OSX BRASIL  ON      NM   R$  000000000051200000000005180000000000505000000000051000000000005050000000000000000000000000000030000000000000005900000000000003014600000000000000009999123100000010000000000000BROSXBACNOR8109
012024022308RNEW11      010RENOVA      UNT     N2   R$  000000000041400000000004300000000000413000000000041600000000004270000000000000000000000000000014000000000000002700000000000001124300000000000000009999123100000010000000000000BRRNEWCDAM15110
012024022308RNEW3       010RENOVA      ON      N2   R$  000000000013800000000001400000000000135000000000013700000000001390000000000000000000000000000158000000000000139100000000000019112100000000000000009999123100000010000000000000BRRNEWACNOR8110
012024022308RNEW4       010RENOVA      PN      N2   R$  000000000013800000000001420000000000136000000000013900000000001380000000000000000000000000000251000000000000348400000000000048744500000000000000009999123100000010000000000000BRRNEWACNPR5110
012024022308FRTA3       010POMIFRUTAS  ON      NM   R$  000000000014700000000001470000000000140000000000014300000000001400000000000000000000000000000029000000000000022700000000000003256700000000000000009999123100000010000000000000BRFRTAACNOR8103
012024022308ATMP3       010ATMASA      ON           R$  000000000030500000000003050000000000293000000000029900000000002980000000000000000000000000000024000000000000005700000000000001706500000000000000009999123100000010000000000000BRATMPACNOR8100
012024022308JFEN3       010JOAO FORTES ON           R$  000000000018500000000001900000000000182000000000018500000000001840000000000000000000000000000020000000000000005000000000000000927000000000000000009999123100000010000000000000BRJFENACNOR0058
012024022308ETER3       010ETERNIT     ON      NM   R$  000000000073500000000007390000000000716000000000072200000000007260000000000000000000000000000928000000000000215100000000000155427400000000000000009999123100000010000000000000BRETERACNOR3242
012024022308LIGT3       010LIGHT S/A   ON      NM   R$  000000000055000000000005520000000000525000000000053600000000005290000000000000000000000000007625000000000002042200000000001094854700000000000000009999123100000010000000000000BRLIGTACNOR2124
012024022308PMAM3       010PARANAPANEMAON      NM   R$  000000000038400000000003870000000000375000000000037800000000003790000000000000000000000000000073000000000000024800000000000009378400000000000000009999123100000010000000000000BRPMAMACNOR3038
012024022308AMER3       010AMERICANAS  ON      NM   R$  000000000005300000000000540000000000051000000000005200000000000520000000000000000000000000004055000000000028478700000000001487681500000000000000009999123100000010000000000000BRAMERACNOR6101
012024022310ABCB10      010ABC BRASIL  PN  REC N2   R$  000000000245500000000024550000000002435000000000244200000000024350000000000000000000000000000003000000000000000400000000000000977000000000000000009999123100000010000000000000BRABCBR19PR1144
012024022310RENT9       010LOCALIZA    ON  REC NM   R$  000000000528000000000052800000000005201000000000525300000000052010000000000000000000000000000003000000000000000300000000000001576100000000000000009999123100000010000000000000BRRENTR05OR0193
012024022310MGLU1       010MAGAZ LUIZA DIR ORD NM   R$  000000000001300000000000150000000000011000000000001300000000000150000000000000000000000000002331000000000011469200000000000153572200000000000000009999123100000010000000000000BRMGLUD01OR7122
012024022310LJQQ9       010QUERO-QUERO ON  REC NM   R$  000000000051400000000005270000000000514000000000051700000000005270000000000000000000000000000007000000000000000800000000000000413900000000000000009999123100000010000000000000BRLJQQR01OR0103
012024022310PGMN1       010PAGUE MENOS DIR ORD NM   R$  000000000000300000000000040000000000002000000000000200000000000030000000000000000000000000000172000000000001092000000000000002341600000000000000009999123100000010000000000000BRPGMND03OR9102
012024022310VIVR12      010VIVER       DIR     NM   R$  000000000000200000000000030000000000001000000000000100000000000010000000000000000000000000000040000000000000049800000000000000098000000000000000009999123100000010000000000000BRVIVRD02M16121
012024022312XPIN11      010FII XP INDL CI           R$  000000000811200000000081500000000008080000000000809400000000080870000000000000000000000000001349000000000000009646000000000078078528000000000000009999123100000010000000000000BRXPINCTF004170
012024022312XPLG11      010FII XP LOG  CI           R$  000000001115200000000112270000000011150000000001118700000000111500000000000000000000000000006131000000000000035014000000000391712353000000000000009999123100000010000000000000BRXPLGCTF002173
012024022312XPML11      010FII XP MALLSCI  ER       R$  000000001178700000000118430000000011787000000001181900000000118230000000000000000000000000017016000000000000073836000000000872697373000000000000009999123100000010000000000000BRXPMLCTF000180
012024022312XPPR11      010FII XP PROP CI           R$  000000000266100000000027460000000002594000000000268200000000026110000000000000000000000000002166000000000000047124000000000126391540000000000000009999123100000010000000000000BRXPPRCTF000151
012024022312XPSF11      010FII XP SELECCI           R$  000000000084100000000008440000000000831000000000083900000000008420000000000000000000000000003546000000000000064519000000000054144003000000000000009999123100000010000000000000BRXPSFCTF009152
012024022312RECR11      010FII REC RECECI           R$  000000000854000000000086350000000008527000000000857800000000086200000000000000000000000000005870000000000000028563000000000245017439000000000000009999123100000010000000000000BRRECRCTF004147
012024022312RECT11      010FII REC RENDCI           R$  000000000438000000000043800000000004330000000000435100000000043630000000000000000000000000000660000000000000013602000000000059193251000000000000009999123100000010000000000000BRRECTCTF000163
012024022312GSFI11      010FII GENERAL CI           R$  000000000078600000000007900000000000781000000000078200000000007870000000000000000000000000000124000000000000007123000000000005573549000000000000009999123100000010000000000000BRGSFICTF009102
012024022312GTWR11      010FII G TOWERSCI           R$  000000000857800000000086350000000008578000000000861800000000086250000000000000000000000000004060000000000000009331000000000080415322000000000000009999123100000010000000000000BRGTWRCTF003159
012024022312NAVT11      010FII NAVI TOTCI  ER       R$  000000000937600000000093760000000009192000000000925500000000092810000000000000000000000000000056000000000000000649000000000006006755000000000000009999123100000010000000000000BRNAVTCTF015135
012024022312NCHB11      010FII NCH BR  CI           R$  000000000093800000000009400000000000926000000000093400000000009330000000000000000000000000000264000000000000022096000000000020643670000000000000009999123100000010000000000000BRNCHBCTF000226
012024022312NCRI11      010FII NAVI CRICI           R$  000000000090900000000009880000000000893000000000091600000000009850000000000000000000000000000177000000000000000256000000000000234670000000000000009999123100000010000000000000BRNCRICTF004114
012024022312NEWL11      010FII NEWPORT CI           R$  000000001219500000000122250000000012035000000001215500000000120350000000000000000000000000000609000000000000001798000000000021856205000000000000009999123100000010000000000000BRNEWLCTF004150
012024022312NEWU11      010FII NEWRU   CI           R$  000000000758200000000075830000000007582000000000758200000000075830000000000000000000000000000002000000000000000003000000000000022748000000000000009999123100000010000000000000BRNEWUCTF005117
012024022312NSLU11      010FII LOURDES CI           R$  000000001940100000000194010000000019229000000001927600000000193210000000000000000000000000000073000000000000001236000000000023826287000000000000009999123100000010000000000000BRNSLUCTF008307
012024022312NVHO11      010FII NOVOHORICI           R$  000000000114500000000011450000000001107000000000112600000000011210000000000000000000000000000016000000000000000404000000000000455054000000000000009999123100000010000000000000BRNVHOCTF003224
012024022312ROOF11      010FII ROOFTOPICI           R$  000000007272000000000727200000000072720000000007272000000000727200000000000000000000000000000001000000000000000001000000000000072720000000000000009999123100000010000000000000BRROOFCTF003110
012024022312RPRI11      010FII RBR PR  CI           R$  000000001001000000000101980000000010010000000001011000000000101380000000000000000000000000000523000000000000001699000000000017178229000000000000009999123100000010000000000000BRRPRICTF007124
012024022312RRCI11      010FII RBCAP RICI           R$  000000000825100000000083250000000008251000000000828500000000083170000000000000000000000000000005000000000000000043000000000000356267000000000000009999123100000010000000000000BRRRCICTF005138
012024022312SPTW11      010FII SP DOWNTCI           R$  000000000434600000000043880000000004320000000000434700000000043200000000000000000000000000000262000000000000002026000000000008808695000000000000009999123100000010000000000000BRSPTWCTF002231
012024022312SPXS11      010FII SPX SYN CI           R$  000000000094300000000009540000000000936000000000094900000000009500000000000000000000000000005630000000000000035846000000000034051448000000000000009999123100000010000000000000BRSPXSCTF002120
012024022312BARI11      010FII BARIGUI CI           R$  000000000850600000000086000000000008502000000000856800000000085860000000000000000000000000001520000000000000006831000000000058532106000000000000009999123100000010000000000000BRBARICTF003158
012024022312HOSI11      010FII HOUSI   CI           R$  000000000899300000000089930000000008900000000000893900000000089750000000000000000000000000000014000000000000000041000000000000366535000000000000009999123100000010000000000000BRHOSICTF009141
012024022312HPDP11      010FII HEDGEPDPCI           R$  000000000875600000000089990000000008756000000000875600000000089990000000000000000000000000000020000000000000129170000000001131018346000000000000009999123100000010000000000000BRHPDPCTF003148
