00COTAHIST.2024BOVESPA 20240205                                                                                                                                                                                                                      
012024020502CEBR6       010CEB         PNB          R$  000000000214000000000021400000000002121000000000212700000000021400000000002121000000000214000024000000000000004300000000000009149300000000000000009999123100000010000000000000BRCEBRACNPB6123
012024020502CEDO3       010CEDRO       ON      N1   R$  000000000278000000000027800000000002780000000000278000000000027800000000001500000000000278000002000000000000001300000000000003614000000000000000009999123100000010000000000000BRCEDOACNOR8096
012024020502CEDO4       010CEDRO       PN      N1   R$  000000000266800000000026680000000002600000000000261900000000026000000000002590000000000260000010000000000000003000000000000007857800000000000000009999123100000010000000000000BRCEDOACNPR5128
012024020502CEEB3       010COELBA      ON           R$  000000000391400000000039140000000003914000000000391400000000039140000000003891000000000399200001000000000000000300000000000001174200000000000000009999123100000010000000000000BRCEEBACNOR3196
012024020502CGAS5       010COMGAS      PNA          R$  000000001180000000000119990000000011740000000001178400000000117970000000011700000000001194300023000000000000004000000000000047137600000000000000009999123100000010000000000000BRCGASACNPA3159
012024020502CGRA3       010GRAZZIOTIN  ON           R$  000000000249300000000025640000000002470000000000251600000000025630000000002524000000000256400029000000000000005300000000000013336700000000000000009999123100000010000000000000BRCGRAACNOR2081
012024020502CGRA4       010GRAZZIOTIN  PN           R$  000000000255000000000025880000000002518000000000255100000000025580000000002535000000000256200034000000000000005800000000000014796400000000000000009999123100000010000000000000BRCGRAACNPR9081
012024020502CIEL3       010CIELO       ON      NM   R$  000000000049400000000005100000000000490000000000050100000000005030000000000503000000000050431693000000000044095600000000022116843300000000000000009999123100000010000000000000BRCIELACNOR3156
012024020502HYPE3       010HYPERA      ON  EJ  NM   R$  000000000312100000000031480000000003091000000000312100000000031300000000003129000000000313008310000000000001744600000000005445953800000000000000009999123100000010000000000000BRHYPEACNOR0137
012024020502LAND3       010TERRASANTAPAON      NM   R$  000000000149500000000015300000000001471000000000149800000000014820000000001482000000000150800171000000000000045500000000000068163500000000000000009999123100000010000000000000BRLANDACNOR9102
012024020502LAVV3       010LAVVI       ON      NM   R$  000000000076700000000007750000000000756000000000076600000000007690000000000769000000000077003121000000000000732100000000000561237700000000000000009999123100000010000000000000BRLAVVACNOR4110
012024020502LEVE3       010METAL LEVE  ON      NM   R$  000000000339000000000034060000000003342000000000337000000000033420000000003341000000000335802159000000000000505500000000001703900800000000000000009999123100000010000000000000BRLEVEACNOR2196
012024020502LJQQ3       010QUERO-QUERO ON      NM   R$  000000000048800000000004910000000000461000000000047200000000004730000000000468000000000047307828000000000003351900000000001582923500000000000000009999123100000010000000000000BRLJQQACNOR5104
012024020502LOGG3       010LOG COM PROPON      NM   R$  000000000202400000000020600000000002016000000000203300000000020470000000002033000000000204801035000000000000139500000000000283736600000000000000009999123100000010000000000000BRLOGGACNOR7106
012024020502LOGN3       010LOG-IN      ON      NM   R$  000000000367600000000036760000000003550000000000360000000000036000000000003600000000000363700172000000000000022700000000000081729200000000000000009999123100000010000000000000BRLOGNACNOR3105
012024020502LPSB3       010LOPES BRASILON      NM   R$  000000000022600000000002320000000000223000000000022700000000002270000000000226000000000022700155000000000000047500000000000010824900000000000000009999123100000010000000000000BRLPSBACNOR0113
012024020502LREN3       010LOJAS RENNERON      NM   R$  000000000156500000000015800000000001495000000000152000000000015020000000001501000000000150230182000000000014862500000000022597383100000000000000009999123100000010000000000000BRLRENACNOR1219
012024020502ASAI3       010ASSAI       ON      NM   R$  000000000135200000000013640000000001331000000000134600000000013420000000001342000000000134812667000000000005345100000000007198395300000000000000009999123100000010000000000000BRASAIACNOR0106
012024020502ATOM3       010ATOMPAR     ON           R$  000000000021100000000002120000000000208000000000020900000000002110000000000208000000000021100019000000000000003800000000000000797000000000000000009999123100000010000000000000BRATOMACNOR1106
012024020502AURE3       010AUREN       ON      NM   R$  000000000128900000000012950000000001282000000000128700000000012860000000001286000000000128907032000000000003478100000000004478472200000000000000009999123100000010000000000000BRAUREACNOR9103
012024020502AVLL3       010ALPHAVILLE  ON      NM   R$  000000000048800000000004880000000000488000000000048800000000004880000000000488000000000050300001000000000000000100000000000000048800000000000000009999123100000010000000000000BRAVLLACNOR5103
012024020502EPAR3       010EMBPAR S/A  ON           R$  000000000096000000000009680000000000936000000000095600000000009650000000000954000000000096800025000000000000004100000000000003920600000000000000009999123100000010000000000000BREPARACNOR9104
012024020502EQMA3B      010EQTLMARANHAOON      MB   R$  000000000289900000000030490000000002852000000000298100000000028520000000002851000000000294900013000000000000004300000000000012820200000000000000009999123100000010000000000000BREQMAACNOR8107
012024020502EQPA3       010EQTL PARA   ON           R$  000000000075600000000008000000000000755000000000077800000000008000000000000765000000000079900009000000000000002900000000000002258500000000000000009999123100000010000000000000BREQPAACNOR1110
012024020502EQTL3       010EQUATORIAL  ON      NM   R$  000000000352400000000035490000000003482000000000351000000000035200000000003518000000000352015068000000000003468900000000012176496500000000000000009999123100000010000000000000BREQTLACNOR0129
012024020502ESPA3       010ESPACOLASER ON      NM   R$  000000000010400000000001060000000000102000000000010300000000001020000000000102000000000010400966000000000001869800000000000192963400000000000000009999123100000010000000000000BRESPAACNOR7103
012024020502ESTR4       010ESTRELA     PN           R$  000000000039200000000003920000000000381000000000038500000000003810000000000381000000000041800007000000000000004800000000000001848900000000000000009999123100000010000000000000BRESTRACNPR0144
012024020502IFCM3       010INFRACOMM   ON      NM   R$  000000000015000000000001510000000000138000000000014200000000001380000000000138000000000013905089000000000010674800000000001520994700000000000000009999123100000010000000000000BRIFCMACNOR8101
012024020502IGTI11      010IGUATEMI S.AUNT     N1   R$  000000000238000000000023880000000002343000000000235500000000023560000000002355000000000236114130000000000002165800000000005102221500000000000000009999123100000010000000000000BRIGTICDAM16104
012024020502IGTI3       010IGUATEMI S.AON      N1   R$  000000000028800000000002900000000000286000000000028800000000002900000000000286000000000029000044000000000000031900000000000009205200000000000000009999123100000010000000000000BRIGTIACNOR8104
012024020502IGTI4       010IGUATEMI S.APN      N1   R$  000000000102400000000010380000000001024000000000103300000000010380000000001000000000000105900002000000000000000300000000000000310000000000000000009999123100000010000000000000BRIGTIACNPR5104
012024020502INEP3       010INEPAR      ON           R$  000000000040600000000004060000000000394000000000039600000000003950000000000395000000000039800067000000000000026900000000000010670400000000000000009999123100000010000000000000BRINEPACNOR1143
012024020502INEP4       010INEPAR      PN           R$  000000000034100000000003420000000000327000000000033600000000003390000000000337000000000033900216000000000000033700000000000011348000000000000000009999123100000010000000000000BRINEPACNPR8143
012024020502INTB3       010INTELBRAS   ON      NM   R$  000000000210000000000021120000000002020000000000205300000000020380000000002035000000000204403811000000000000830400000000001705576200000000000000009999123100000010000000000000BRINTBACNOR9109
012024020502IRBR3       010IRBBRASIL REON      NM   R$  000000000403500000000040700000000004015000000000404000000000040580000000004056000000000405803779000000000000769900000000003110669900000000000000009999123100000010000000000000BRIRBRACNOR4110
012024020502KRSA3       010KORA SAUDE  ON      NM   R$  000000000009800000000001000000000000095000000000009700000000000950000000000095000000000009600173000000000000153500000000000014934800000000000000009999123100000010000000000000BRKRSAACNOR0100
012024020502EALT4       010ACO ALTONA  PN           R$  000000000100300000000010160000000001003000000000101100000000010130000000001002000000000101300007000000000000001200000000000001214100000000000000009999123100000010000000000000BREALTACNPR1137
012024020502ECOR3       010ECORODOVIAS ON      NM   R$  000000000088100000000008930000000000856000000000087100000000008620000000000862000000000086307465000000000003306700000000002881987900000000000000009999123100000010000000000000BRECORACNOR8119
012024020502EGIE3       010ENGIE BRASILON      NM   R$  000000000397500000000040240000000003946000000000398900000000040200000000004020000000000402509593000000000001879100000000007496476500000000000000009999123100000010000000000000BREGIEACNOR9125
012024020502GGPS3       010GPS         ON      NM   R$  000000000185900000000019110000000001852000000000188100000000018750000000001863000000000187607612000000000001636900000000003079020700000000000000009999123100000010000000000000BRGGPSACNOR9102
012024020502GMAT3       010GRUPO MATEUSON      NM   R$  000000000070300000000007180000000000695000000000070800000000007120000000000711000000000071211293000000000009520100000000006746386100000000000000009999123100000010000000000000BRGMATACNOR7100
012024020502GOAU3       010GERDAU MET  ON      N1   R$  000000000102800000000010370000000001016000000000102500000000010250000000001024000000000102600357000000000000066500000000000068203900000000000000009999123100000010000000000000BRGOAUACNOR1265
012024020502GOAU4       010GERDAU MET  PN      N1   R$  000000000100000000000010070000000000988000000000099700000000009980000000000998000000000099909777000000000006405800000000006391775600000000000000009999123100000010000000000000BRGOAUACNPR8266
012024020502BPAN4       010BANCO PAN   PN      N1   R$  000000000083700000000008500000000000800000000000081400000000008260000000000825000000000082606874000000000003945700000000003214185300000000000000009999123100000010000000000000BRBPANACNPR1115
012024020502BRAP3       010BRADESPAR   ON      N1   R$  000000000202800000000020280000000002002000000000201300000000020220000000002009000000000202200591000000000000192200000000000386956100000000000000009999123100000010000000000000BRBRAPACNOR5147
012024020502BRAP4       010BRADESPAR   PN      N1   R$  000000000219800000000022020000000002176000000000218900000000021880000000002187000000000218909333000000000003271600000000007162310000000000000000009999123100000010000000000000BRBRAPACNPR2147
012024020502CPFE3       010CPFL ENERGIAON      NM   R$  000000000356300000000036110000000003557000000000358500000000035910000000003590000000000360406891000000000001119800000000004015441100000000000000009999123100000010000000000000BRCPFEACNOR0136
012024020502CPLE3       010COPEL       ON      N2   R$  000000000090000000000009080000000000889000000000089900000000009040000000000903000000000090403565000000000002231600000000002008147200000000000000009999123100000010000000000000BRCPLEACNOR8148
012024020502CPLE5       010COPEL       PNA     N2   R$  000000000233000000000023300000000002330000000000233000000000023300000000002206000000000234300001000000000000000100000000000000233000000000000000009999123100000010000000000000BRCPLEACNPA1146
012024020502CPLE6       010COPEL       PNB     N2   R$  000000000100600000000010140000000000992000000000100500000000010140000000001010000000000101412304000000000008968200000000009019616400000000000000009999123100000010000000000000BRCPLEACNPB9145
012024020502CXSE3       010CAIXA SEGURION      NM   R$  000000000143200000000014420000000001403000000000142200000000014420000000001440000000000144310189000000000004873500000000006934403500000000000000009999123100000010000000000000BRCXSEACNOR7105
012024020502BEEF3       010MINERVA     ON      NM   R$  000000000067900000000006830000000000664000000000067100000000006710000000000671000000000067207780000000000006678700000000004484256300000000000000009999123100000010000000000000BRBEEFACNOR6116
012024020502CYRE3       010CYRELA REALTON      NM   R$  000000000224300000000022570000000002185000000000221800000000022130000000002212000000000221513324000000000003701000000000008209374700000000000000009999123100000010000000000000BRCYREACNOR7139
012024020502DASA3       010DASA        ON      NM   R$  000000000074900000000007980000000000725000000000075300000000007370000000000737000000000073803240000000000000677700000000000510462600000000000000009999123100000010000000000000BRDASAACNOR1122
012024020502BPAC11      010BTGP BANCO  UNT     N2   R$  000000000372000000000037300000000003600000000000366000000000036980000000003684000000000369820151000000000005046900000000018473774100000000000000009999123100000010000000000000BRBPACUNT006118
012024020502BPAC3       010BTGP BANCO  ON      N2   R$  000000000183800000000019680000000001759000000000181600000000017590000000001759000000000178500080000000000000011400000000000020704200000000000000009999123100000010000000000000BRBPACACNOR7133
012024020502BPAC5       010BTGP BANCO  PNA     N2   R$  000000000093300000000009780000000000911000000000092300000000009430000000000919000000000094700055000000000000009300000000000008585800000000000000009999123100000010000000000000BRBPACACNPA0133
012024020502CLSC4       010CELESC      PN      N2   R$  000000000665000000000066500000000006577000000000662200000000065780000000006576000000000664900008000000000000000800000000000005298000000000000000009999123100000010000000000000BRCLSCACNPR3128
012024020502CMIG3       010CEMIG       ON      N1   R$  000000000151000000000015170000000001497000000000150500000000015140000000001514000000000151801120000000000000292000000000000439658200000000000000009999123100000010000000000000BRCMIGACNOR6239
012024020502CMIG4       010CEMIG       PN      N1   R$  000000000113600000000011420000000001110000000000112700000000011370000000001136000000000113821027000000000011654700000000013143468300000000000000009999123100000010000000000000BRCMIGACNPR3240
012024020502CMIN3       010CSNMINERACAOON      N2   R$  000000000066000000000006610000000000636000000000064800000000006460000000000646000000000065008475000000000007004200000000004542020900000000000000009999123100000010000000000000BRCMINACNOR2110
012024020502EUCA3       010EUCATEX     ON      N1   R$  000000000168200000000017250000000001675000000000169500000000017200000000001700000000000174900008000000000000000800000000000001356700000000000000009999123100000010000000000000BREUCAACNOR1157
012024020502EUCA4       010EUCATEX     PN      N1   R$  000000000164100000000016780000000001612000000000164300000000016270000000001626000000000164900440000000000000105700000000000173706300000000000000009999123100000010000000000000BREUCAACNPR8044
012024020502DESK3       010DESKTOP     ON      NM   R$  000000000128600000000012970000000001258000000000127000000000012650000000001262000000000126500470000000000000083300000000000105816900000000000000009999123100000010000000000000BRDESKACNOR2103
012024020502GGBR3       010GERDAU      ON      N1   R$  000000000201700000000020170000000001973000000000199200000000020040000000001989000000000200400190000000000000027800000000000055385300000000000000009999123100000010000000000000BRGGBRACNOR1189
012024020502GGBR4       010GERDAU      PN      N1   R$  000000000214600000000021550000000002113000000000213500000000021340000000002134000000000213816393000000000005248700000000011209610900000000000000009999123100000010000000000000BRGGBRACNPR8189
012024020502ITUB3       010ITAUUNIBANCOON  EJ  N1   R$  000000000279500000000028500000000002778000000000282400000000028290000000002829000000000283201346000000000000480500000000001357345900000000000000009999123100000010000000000000BRITUBACNOR4330
012024020502ITUB4       010ITAUUNIBANCOPN  EJ  N1   R$  000000000328800000000033370000000003280000000000331000000000033360000000003335000000000333733939000000000018657900000000061761531100000000000000009999123100000010000000000000BRITUBACNPR1330
012024020502MGLU3       010MAGAZ LUIZA ON  ES  NM   R$  000000000019600000000002000000000000190000000000019500000000001950000000000195000000000019636923000000000128676900000000025140206800000000000000009999123100000010000000000000BRMGLUACNOR2123
012024020502PINE3       010PINE        ON      N2   R$  000000000049000000000004900000000000490000000000049000000000004900000000000490000000000049300001000000000000000100000000000000049000000000000000009999123100000010000000000000BRPINEACNOR1148
012024020502PINE4       010PINE        PN      N2   R$  000000000041100000000004150000000000397000000000040200000000004060000000000406000000000040701439000000000000481900000000000193775600000000000000009999123100000010000000000000BRPINEACNPR8148
012024020502PLAS3       010PLASCAR PARTON           R$  000000000070900000000007090000000000709000000000070900000000007090000000000705000000000075000001000000000000000100000000000000070900000000000000009999123100000010000000000000BRPLASACNOR2106
012024020502EVEN3       010EVEN        ON      NM   R$  000000000072800000000007320000000000716000000000072200000000007320000000000729000000000073204203000000000001345400000000000971635300000000000000009999123100000010000000000000BREVENACNOR8118
012024020502EZTC3       010EZTEC       ON      NM   R$  000000000154900000000015750000000001502000000000153000000000015200000000001520000000000152406962000000000001680600000000002572636200000000000000009999123100000010000000000000BREZTCACNOR0123
012024020502PLPL3       010PLANOEPLANO ON      NM   R$  000000000111800000000011460000000001088000000000111800000000011200000000001120000000000112103042000000000000709600000000000793859200000000000000009999123100000010000000000000BRPLPLACNOR5104
012024020502PNVL3       010DIMED       ON      NM   R$  000000000120000000000012100000000001174000000000118800000000011810000000001178000000000118302048000000000000334200000000000397302600000000000000009999123100000010000000000000BRPNVLACNOR9205
012024020502POMO3       010MARCOPOLO   ON      N2   R$  000000000062500000000006260000000000608000000000061700000000006200000000000620000000000062500856000000000000244400000000000150949100000000000000009999123100000010000000000000BRPOMOACNOR0095
012024020502POMO4       010MARCOPOLO   PN      N2   R$  000000000082100000000008210000000000788000000000080600000000008140000000000813000000000081411424000000000005501100000000004437342300000000000000009999123100000010000000000000BRPOMOACNPR7095
012024020502PORT3       010WILSON SONS ON      NM   R$  000000000168200000000016890000000001673000000000167800000000016740000000001674000000000168200543000000000000229900000000000385900300000000000000009999123100000010000000000000BRPORTACNOR8106
012024020502FESA3       010FERBASA     ON      N1   R$  000000000154800000000015480000000001548000000000154800000000015480000000001480000000000154500001000000000000000100000000000000154800000000000000009999123100000010000000000000BRFESAACNOR8187
012024020502FESA4       010FERBASA     PN      N1   R$  000000000099700000000009970000000000968000000000097600000000009680000000000968000000000097404242000000000000821400000000000802020500000000000000009999123100000010000000000000BRFESAACNPR5083
012024020502FHER3       010FER HERINGERON      NM   R$  000000000063000000000006400000000000612000000000062000000000006400000000000622000000000064000032000000000000009100000000000005645600000000000000009999123100000010000000000000BRFHERACNOR5103
012024020502VALE3       010VALE        ON      NM   R$  000000000659000000000066200000000006535000000000655900000000065510000000006551000000000655249715000000000024103300000000158097308700000000000000009999123100000010000000000000BRVALEACNOR0209
012024020502PATI3       010PANATLANTICAON           R$  000000000275100000000027510000000002751000000000275100000000027510000000002750000000000289900002000000000000000200000000000000550200000000000000009999123100000010000000000000BRPATIACNOR6064
012024020502FIQE3       010UNIFIQUE    ON      NM   R$  000000000037600000000003770000000000365000000000036900000000003670000000000367000000000036801484000000000000493000000000000182016000000000000000009999123100000010000000000000BRFIQEACNOR5105
012024020502FLRY3       010FLEURY      ON      NM   R$  000000000162600000000016410000000001614000000000162700000000016320000000001632000000000163306658000000000001888300000000003073681500000000000000009999123100000010000000000000BRFLRYACNOR5137
012024020502JSLG3       010JSL         ON      NM   R$  000000000107500000000010800000000001041000000000105800000000010500000000001050000000000105103100000000000000640700000000000678145500000000000000009999123100000010000000000000BRJSLGACNOR2121
012024020502BMEB4       010MERCANTIL   PN      N1   R$  000000000194000000000019400000000001929000000000193400000000019390000000001931000000000193900018000000000000002800000000000005416600000000000000009999123100000010000000000000BRBMEBACNPR5210
012024020502BMGB4       010BANCO BMG   PN      N1   R$  000000000034200000000003550000000000337000000000034700000000003550000000000354000000000035501545000000000001235000000000000429022100000000000000009999123100000010000000000000BRBMGBACNPR0108
012024020502BMIN3       010MERC INVEST ON  EDJ      R$  000000000259000000000026500000000002000000000000230100000000020000000000001950000000000215000007000000000000000700000000000001610800000000000000009999123100000010000000000000BRBMINACNOR4170
012024020502BMIN4       010MERC INVEST PN  EDJ      R$  000000000155100000000016300000000001420000000000148400000000014520000000001451000000000150000143000000000000025700000000000038142800000000000000009999123100000010000000000000BRBMINACNPR1176
012024020502BMKS3       010BIC MONARK  ON           R$  000000003583800000000358380000000035500000000003562700000000355000000000035500000000003645000008000000000000000014000000000000498789000000000000009999123100000010000000000000BRBMKSACNOR9165
012024020502BMOB3       010BEMOBI TECH ON      NM   R$  000000000122500000000012450000000001208000000000122400000000012260000000001226000000000122901452000000000000201300000000000246507100000000000000009999123100000010000000000000BRBMOBACNOR7103
012024020502BBDC4       010BRADESCO    PN  EJ  N1   R$  000000000153200000000015670000000001532000000000155200000000015630000000001562000000000156335772000000000031582200000000049022873000000000000000009999123100000010000000000000BRBBDCACNPR8766
012024020502BRSR3       010BANRISUL    ON      N1   R$  000000000144500000000014690000000001424000000000144000000000014240000000001423000000000144300119000000000000029400000000000042356700000000000000009999123100000010000000000000BRBRSRACNOR3185
012024020502BRSR6       010BANRISUL    PNB     N1   R$  000000000147500000000014900000000001461000000000147100000000014680000000001468000000000147205068000000000001227800000000001806518900000000000000009999123100000010000000000000BRBRSRACNPB4188
012024020502BSLI3       010BRB BANCO   ON           R$  000000000127900000000013320000000001263000000000128400000000013320000000001280000000000138300008000000000000000800000000000001027200000000000000009999123100000010000000000000BRBSLIACNOR5192
012024020502BSLI4       010BRB BANCO   PN           R$  000000000118000000000011940000000001180000000000118900000000011940000000001178000000000123400002000000000000000300000000000000356800000000000000009999123100000010000000000000BRBSLIACNPR2192
012024020502CURY3       010CURY S/A    ON      NM   R$  000000000181300000000018470000000001813000000000183400000000018360000000001832000000000183604741000000000001965800000000003605496700000000000000009999123100000010000000000000BRCURYACNOR3107
012024020502CVCB3       010CVC BRASIL  ON      NM   R$  000000000030300000000003110000000000300000000000030600000000003070000000000306000000000030713698000000000019601400000000005998410700000000000000009999123100000010000000000000BRCVCBACNOR1115
012024020502FRAS3       010FRAS-LE     ON      N1   R$  000000000153800000000015450000000001506000000000152000000000015200000000001518000000000152302077000000000000295300000000000448983400000000000000009999123100000010000000000000BRFRASACNOR0158
012024020502FRIO3       010METALFRIO   ON      NM   R$  000000002975000000000300000000000029600000000002986000000000298000000000029700000000003000000017000000000000002500000000000074650000000000000000009999123100000010000000000000BRFRIOACNOR2111
012024020502CSED3       010CRUZEIRO EDUON      NM   R$  000000000040400000000004040000000000380000000000038900000000003800000000000380000000000038301909000000000000698700000000000272344600000000000000009999123100000010000000000000BRCSEDACNOR9104
012024020502CSMG3       010COPASA      ON      NM   R$  000000000211100000000021540000000002097000000000212700000000021490000000002143000000000215005518000000000001237200000000002631552000000000000000009999123100000010000000000000BRCSMGACNOR5171
012024020502CSNA3       010SID NACIONALON           R$  000000000170000000000017500000000001695000000000172900000000017370000000001737000000000173811063000000000006373400000000011020506700000000000000009999123100000010000000000000BRCSNAACNOR6260
012024020502ELMD3       010ELETROMIDIA ON      NM   R$  000000000175700000000017810000000001733000000000175500000000017810000000001761000000000178100189000000000000043100000000000075672000000000000000009999123100000010000000000000BRELMDACNOR3100
012024020502EMAE4       010EMAE        PN           R$  000000000564100000000057170000000005571000000000560400000000055710000000005570000000000569800016000000000000002200000000000012330800000000000000009999123100000010000000000000BREMAEACNPR1124
012024020502EMBR3       010EMBRAER     ON      NM   R$  000000000224700000000022840000000002216000000000224600000000022700000000002270000000000227115764000000000005416300000000012169860800000000000000009999123100000010000000000000BREMBRACNOR4191
012024020502ENAT3       010ENAUTA PART ON      NM   R$  000000000186000000000019050000000001850000000000187900000000018800000000001880000000000188205304000000000001099500000000002066897300000000000000009999123100000010000000000000BRENATACNOR0104
012024020502MBLY3       010MOBLY       ON      NM   R$  000000000020400000000002100000000000199000000000020500000000002080000000000207000000000020800881000000000000689100000000000141304700000000000000009999123100000010000000000000BRMBLYACNOR5100
012024020502MDIA3       010M.DIASBRANCOON      NM   R$  000000000387600000000038840000000003810000000000383000000000038280000000003825000000000382802008000000000001017400000000003896999000000000000000009999123100000010000000000000BRMDIAACNOR7133
012024020502MDNE3       010MOURA DUBEUXON      NM   R$  000000000112100000000011310000000001061000000000108600000000010780000000001076000000000107803442000000000001446500000000001572251600000000000000009999123100000010000000000000BRMDNEACNOR9100
012024020502MEAL3       010IMC S/A     ON      NM   R$  000000000018000000000001800000000000173000000000017600000000001760000000000174000000000017601483000000000000976500000000000172361300000000000000009999123100000010000000000000BRMEALACNOR9105
012024020502MELK3       010MELNICK     ON      NM   R$  000000000042600000000004380000000000426000000000042900000000004310000000000431000000000043600342000000000000082800000000000035591500000000000000009999123100000010000000000000BRMELKACNOR8110
012024020502MERC4       010MERC FINANC PN  EDJ      R$  000000000121000000000012250000000001100000000000119300000000011000000000000000000000000110000013000000000000003900000000000004656000000000000000009999123100000010000000000000BRMERCACNPR9180
012024020502BAHI3       010BAHEMA      ON      MA   R$  000000000078700000000007870000000000785000000000078500000000007850000000000795000000000079700003000000000000001000000000000000785500000000000000009999123100000010000000000000BRBAHIACNOR1074
012024020502BAZA3       010AMAZONIA    ON           R$  000000000905000000000090500000000008901000000000899300000000090000000000009000000000000904700010000000000000001100000000000009893000000000000000009999123100000010000000000000BRBAZAACNOR0178
012024020502BBAS3       010BRASIL      ON      NM   R$  000000000577300000000058340000000005735000000000578300000000058340000000005825000000000583425728000000000007574400000000043809571700000000000000009999123100000010000000000000BRBBASACNOR3319
012024020502BEES3       010BANESTES    ON  EJ       R$  000000000097600000000009760000000000910000000000093900000000009660000000000968000000000097700167000000000000033400000000000031369200000000000000009999123100000010000000000000BRBEESACNOR9387
012024020502BEES4       010BANESTES    PN  EJ       R$  000000000100100000000010020000000000976000000000099200000000010020000000000985000000000101000055000000000000010700000000000010622400000000000000009999123100000010000000000000BRBEESACNPR6312
012024020502ABCB4       010ABC BRASIL  PN      N2   R$  000000000243000000000024470000000002401000000000241900000000024190000000002416000000000242603904000000000000591300000000001430894400000000000000009999123100000010000000000000BRABCBACNPR4145
012024020502ABEV3       010AMBEV S/A   ON           R$  000000000130800000000013190000000001304000000000131100000000013090000000001309000000000131023989000000000016606500000000021775752000000000000000009999123100000010000000000000BRABEVACNOR1127
012024020502BRBI11      010BR PARTNERS UNT     N2   R$  000000000161900000000016260000000001558000000000159200000000015880000000001585000000000158801432000000000000349400000000000556451100000000000000009999123100000010000000000000BRBRBICDAM10107
012024020502BRFS3       010BRF SA      ON      NM   R$  000000000142900000000014660000000001414000000000144200000000014490000000001449000000000145209788000000000004632400000000006682865400000000000000009999123100000010000000000000BRBRFSACNOR8121
012024020502CRFB3       010CARREFOUR BRON      NM   R$  000000000109200000000011070000000001070000000000109200000000011050000000001090000000000110514120000000000006330300000000006915347100000000000000009999123100000010000000000000BRCRFBACNOR2116
012024020502CRIV3       010ALFA FINANC ON           R$  000000000060500000000006050000000000604000000000060400000000006050000000000605000000000060900012000000000000016100000000000009739500000000000000009999123100000010000000000000BRCRIVACNOR4195
012024020502CRIV4       010ALFA FINANC PN           R$  000000000063000000000006310000000000630000000000063000000000006300000000000630000000000063200009000000000000010100000000000006363500000000000000009999123100000010000000000000BRCRIVACNPR1211
012024020502CRPG5       010CRISTAL     PNA          R$  000000000359900000000036160000000003565000000000358500000000035650000000003565000000000358800011000000000000001400000000000005019600000000000000009999123100000010000000000000BRCRPGACNPA3118
012024020502CRPG6       010CRISTAL     PNB          R$  000000000356100000000036480000000003561000000000361600000000036480000000003601000000000364900006000000000000000600000000000002169900000000000000009999123100000010000000000000BRCRPGACNPB1118
012024020502CSAN3       010COSAN       ON      NM   R$  000000000180000000000018240000000001785000000000180600000000018090000000001809000000000181114738000000000005059500000000009137487300000000000000009999123100000010000000000000BRCSANACNOR6124
012024020502DEXP3       010DEXXOS PAR  ON      N1   R$  000000000123000000000012990000000001210000000000125000000000012400000000001229000000000124000968000000000000264800000000000331097000000000000000009999123100000010000000000000BRDEXPACNOR1104
012024020502DEXP4       010DEXXOS PAR  PN      N1   R$  000000000120000000000012600000000001200000000000122800000000012410000000001221000000000127000014000000000000005100000000000006265900000000000000009999123100000010000000000000BRDEXPACNPR8104
012024020502DIRR3       010DIRECIONAL  ON      NM   R$  000000000216000000000021940000000002133000000000216200000000021770000000002175000000000218208222000000000001780000000000003848577900000000000000009999123100000010000000000000BRDIRRACNOR0117
012024020502HAGA3       010HAGA S/A    ON           R$  000000000024700000000002470000000000246000000000024600000000002460000000000247000000000025300002000000000000001000000000000000246400000000000000009999123100000010000000000000BRHAGAACNOR7103
012024020502HAGA4       010HAGA S/A    PN           R$  000000000010600000000001100000000000106000000000010700000000001080000000000108000000000010900009000000000000003200000000000000345000000000000000009999123100000010000000000000BRHAGAACNPR4103
012024020502HAPV3       010HAPVIDA     ON      NM   R$  000000000038500000000003910000000000380000000000038500000000003850000000000385000000000038640244000000000052484000000000020248912100000000000000009999123100000010000000000000BRHAPVACNOR4113
012024020502JALL3       010JALLESMACHADON      NM   R$  000000000073600000000007430000000000730000000000073400000000007360000000000733000000000073602006000000000000538500000000000395545000000000000000009999123100000010000000000000BRJALLACNOR0105
012024020502JBSS3       010JBS         ON      NM   R$  000000000231900000000023590000000002288000000000233800000000023460000000002345000000000235117444000000000007060400000000016510848100000000000000009999123100000010000000000000BRJBSSACNOR8121
012024020502JHSF3       010JHSF PART   ON  ED  NM   R$  000000000046300000000004660000000000457000000000045900000000004620000000000460000000000046204250000000000001936000000000000890411100000000000000009999123100000010000000000000BRJHSFACNOR2132
012024020502MILS3       010MILLS       ON      NM   R$  000000000128300000000013040000000001257000000000127200000000012640000000001262000000000126402893000000000000609700000000000775823500000000000000009999123100000010000000000000BRMILSACNOR2124
012024020502MLAS3       010MULTILASER  ON      NM   R$  000000000019100000000001950000000000187000000000018900000000001900000000000187000000000019004708000000000003606700000000000684294600000000000000009999123100000010000000000000BRMLASACNOR9101
012024020502MNDL3       010MUNDIAL     ON           R$  000000000400000000000043000000000004000000000000427000000000043000000000004000000000000429700002000000000000001000000000000004270000000000000000009999123100000010000000000000BRMNDLACNOR4107
012024020502BOBR4       010BOMBRIL     PN           R$  000000000022100000000002210000000000210000000000021500000000002210000000000215000000000022100033000000000000008400000000000001812800000000000000009999123100000010000000000000BRBOBRACNPR3128
012024020502BRGE12      010ALFA CONSORCPNF ED       R$  000000000114000000000011420000000001140000000000114000000000011420000000001144000000000118100003000000000000000500000000000000570200000000000000009999123100000010000000000000BRBRGEACNPF8098
012024020502BRGE6       010ALFA CONSORCPNB ED       R$  000000000117000000000011700000000001170000000000117000000000011700000000001170000000000119900002000000000000000500000000000000585000000000000000009999123100000010000000000000BRBRGEACNPB7219
012024020502BRIT3       010BRISANET    ON      NM   R$  000000000030500000000003050000000000298000000000030000000000002980000000000298000000000030001994000000000000404400000000000121563000000000000000009999123100000010000000000000BRBRITACNOR0102
012024020502BRIV3       010ALFA INVEST ON           R$  000000000111400000000011140000000001114000000000111400000000011140000000001114000000000112200001000000000000000100000000000000111400000000000000009999123100000010000000000000BRBRIVACNOR6209
012024020502BRIV4       010ALFA INVEST PN           R$  000000000112500000000011320000000001125000000000112800000000011320000000001132000000000115000004000000000000003000000000000003384700000000000000009999123100000010000000000000BRBRIVACNPR3218
012024020502BRKM3       010BRASKEM     ON      N1   R$  000000000183300000000018580000000001789000000000182000000000018440000000001833000000000185800058000000000000010500000000000019113100000000000000009999123100000010000000000000BRBRKMACNOR1119
012024020502BRKM5       010BRASKEM     PNA     N1   R$  000000000176100000000017710000000001696000000000173600000000017580000000001756000000000176008652000000000003901500000000006776689000000000000000009999123100000010000000000000BRBRKMACNPA4121
012024020502ELET3       010ELETROBRAS  ON      N1   R$  000000000406500000000041090000000004030000000000407500000000040830000000004081000000000408617406000000000004361500000000017773862200000000000000009999123100000010000000000000BRELETACNOR6159
012024020502ELET6       010ELETROBRAS  PNB     N1   R$  000000000454500000000045910000000004507000000000455500000000045840000000004565000000000458504027000000000000751000000000003421004400000000000000009999123100000010000000000000BRELETACNPB7076
012024020502GRND3       010GRENDENE    ON      NM   R$  000000000066300000000006630000000000646000000000065100000000006470000000000646000000000064902942000000000001138200000000000741920800000000000000009999123100000010000000000000BRGRNDACNOR3172
012024020502GUAR3       010GUARARAPES  ON      NM   R$  000000000051300000000005160000000000493000000000050100000000005000000000000497000000000050004393000000000001564100000000000783636700000000000000009999123100000010000000000000BRGUARACNOR4172
012024020502PETZ3       010PETZ        ON      NM   R$  000000000031400000000003150000000000303000000000030800000000003090000000000308000000000031109749000000000019364200000000005969097900000000000000009999123100000010000000000000BRPETZACNOR2109
012024020502RSUL4       010RIOSULENSE  PN           R$  000000000809000000000080900000000007812000000000787700000000078120000000007800000000000790000028000000000000003400000000000026784700000000000000009999123100000010000000000000BRRSULACNPR3113
012024020502SANB11      010SANTANDER BRUNT          R$  000000000288500000000029250000000002875000000000289900000000029130000000002900000000000291505546000000000001295600000000003756464600000000000000009999123100000010000000000000BRSANBCDAM13163
012024020502SANB3       010SANTANDER BRON           R$  000000000135800000000013740000000001353000000000136200000000013680000000001367000000000137000746000000000000113200000000000154262400000000000000009999123100000010000000000000BRSANBACNOR8170
012024020502SANB4       010SANTANDER BRPN           R$  000000000153500000000015480000000001523000000000153400000000015410000000001531000000000154100605000000000000100200000000000153786500000000000000009999123100000010000000000000BRSANBACNPR5170
012024020502SAPR11      010SANEPAR     UNT     N2   R$  000000000271700000000027560000000002683000000000271500000000027470000000002743000000000275004901000000000001060000000000002878172700000000000000009999123100000010000000000000BRSAPRCDAM13117
012024020502SAPR3       010SANEPAR     ON      N2   R$  000000000051900000000005220000000000511000000000051500000000005220000000000520000000000052200733000000000000284600000000000146793300000000000000009999123100000010000000000000BRSAPRACNOR9158
012024020502SAPR4       010SANEPAR     PN      N2   R$  000000000054700000000005560000000000539000000000054700000000005530000000000552000000000055302778000000000001724500000000000943911500000000000000009999123100000010000000000000BRSAPRACNPR6158
012024020502UNIP3       010UNIPAR      ON           R$  000000000666600000000066660000000006332000000000645800000000063320000000006332000000000637800096000000000000013800000000000089132300000000000000009999123100000010000000000000BRUNIPACNOR7204
012024020502UNIP6       010UNIPAR      PNB          R$  000000000693000000000069960000000006882000000000692100000000069300000000006899000000000693000953000000000000153500000000001062433100000000000000009999123100000010000000000000BRUNIPACNPB8204
012024020502USIM3       010USIMINAS    ON      N1   R$  000000000086700000000008670000000000848000000000086100000000008630000000000861000000000086601757000000000000876200000000000754904200000000000000009999123100000010000000000000BRUSIMACNOR3166
012024020502USIM5       010USIMINAS    PNA     N1   R$  000000000090600000000009170000000000901000000000090700000000009090000000000908000000000091012824000000000008194000000000007438677200000000000000009999123100000010000000000000BRUSIMACNPA6168
012024020502VITT3       010VITTIA      ON      NM   R$  000000000079600000000007960000000000768000000000077900000000007840000000000782000000000078402486000000000000606500000000000472689200000000000000009999123100000010000000000000BRVITTACNOR4106
012024020502VIVA3       010VIVARA S.A. ON      NM   R$  000000000331300000000033430000000003242000000000327000000000032550000000003252000000000326008977000000000001796100000000005874080100000000000000009999123100000010000000000000BRVIVAACNOR0106
012024020502VIVR3       010VIVER       ON      NM   R$  000000000042600000000004390000000000413000000000042200000000004270000000000414000000000042700283000000000000150200000000000063450800000000000000009999123100000010000000000000BRVIVRACNOR4121
012024020502VIVT3       010TELEF BRASILON           R$  000000000526700000000053190000000005189000000000526000000000052880000000005287000000000530406224000000000001254300000000006598781400000000000000009999123100000010000000000000BRVIVTACNOR0178
012024020502VLID3       010VALID       ON      NM   R$  000000000215200000000021600000000002085000000000210800000000020950000000002085000000000209501523000000000000275300000000000580346100000000000000009999123100000010000000000000BRVLIDACNOR5141
012024020502UCAS3       010UNICASA     ON      NM   R$  000000000027500000000002810000000000270000000000027100000000002700000000000270000000000027500078000000000000067200000000000018273000000000000000009999123100000010000000000000BRUCASACNOR1113
012024020502UGPA3       010ULTRAPAR    ON      NM   R$  000000000276400000000028250000000002749000000000279500000000028180000000002817000000000281812493000000000004013500000000011221650000000000000000009999123100000010000000000000BRUGPAACNOR8154
012024020502VAMO3       010VAMOS       ON      NM   R$  000000000079500000000007990000000000757000000000077200000000007760000000000775000000000077819130000000000009821100000000007588461300000000000000009999123100000010000000000000BRVAMOACNOR7105
012024020502VBBR3       010VIBRA       ON      NM   R$  000000000232600000000024000000000002316000000000235600000000023660000000002366000000000236726099000000000010587800000000024952161100000000000000009999123100000010000000000000BRVBBRACNOR1106
012024020502TASA3       010TAURUS ARMASON      N2   R$  000000000143000000000014360000000001418000000000142400000000014180000000001418000000000142400083000000000000015600000000000022218000000000000000009999123100000010000000000000BRTASAACNOR7103
012024020502TASA4       010TAURUS ARMASPN      N2   R$  000000000143000000000014400000000001410000000000141900000000014130000000001413000000000141501756000000000000330000000000000468400600000000000000009999123100000010000000000000BRTASAACNPR4103
012024020502TCSA3       010TECNISA     ON      NM   R$  000000000029800000000003040000000000289000000000029500000000002900000000000289000000000029000160000000000000055800000000000016474500000000000000009999123100000010000000000000BRTCSAACNOR3112
012024020502TECN3       010TECHNOS     ON  ED  NM   R$  000000000033700000000003410000000000336000000000033700000000003360000000000336000000000033800348000000000000110400000000000037307600000000000000009999123100000010000000000000BRTECNACNOR6109
012024020502TELB3       010TELEBRAS    ON           R$  000000000148000000000014800000000001460000000000146200000000014800000000001435000000000149500006000000000000002000000000000002925300000000000000009999123100000010000000000000BRTELBACNOR2140
012024020502TELB4       010TELEBRAS    PN           R$  000000000110800000000011100000000001102000000000110600000000011100000000001109000000000111500011000000000000003200000000000003540000000000000000009999123100000010000000000000BRTELBACNPR9140
012024020502TEND3       010TENDA       ON      NM   R$  000000000095300000000009700000000000930000000000094400000000009420000000000942000000000094309138000000000002937900000000002773606700000000000000009999123100000010000000000000BRTENDACNOR4111
012024020502TFCO4       010TRACK FIELD PN      N2   R$  000000000133300000000013490000000001319000000000133300000000013400000000001338000000000134100261000000000000047600000000000063494400000000000000009999123100000010000000000000BRTFCOACNPR8111
012024020502TGMA3       010TEGMA       ON      NM   R$  000000000265500000000026550000000002589000000000261200000000026000000000002598000000000261800931000000000000111700000000000291824300000000000000009999123100000010000000000000BRTGMAACNOR7143
012024020502TIMS3       010TIM         ON      NM   R$  000000000177000000000017970000000001763000000000178300000000017890000000001788000000000179322223000000000006652800000000011863981200000000000000009999123100000010000000000000BRTIMSACNOR5114
012024020502TOTS3       010TOTVS       ON      NM   R$  000000000315800000000031960000000003150000000000316800000000031790000000003172000000000318010000000000000002281100000000007227405400000000000000009999123100000010000000000000BRTOTSACNOR8144
012024020502MNPR3       010MINUPAR     ON           R$  000000000224300000000022450000000002200000000000222100000000022190000000001746000000000222000010000000000000005800000000000012886400000000000000009999123100000010000000000000BRMNPRACNOR5122
012024020502MOVI3       010MOVIDA      ON      NM   R$  000000000091600000000009230000000000883000000000089300000000008910000000000890000000000089107186000000000002611100000000002332055000000000000000009999123100000010000000000000BRMOVIACNOR0122
012024020502MRFG3       010MARFRIG     ON      NM   R$  000000000091000000000009200000000000900000000000090700000000009090000000000909000000000091008646000000000003501500000000003177928300000000000000009999123100000010000000000000BRMRFGACNOR0116
012024020502MRSA3B      010MRS LOGIST  ON      MB   R$  000000000260000000000026000000000002600000000000260000000000026000000000002455000000000360000001000000000000000100000000000000260000000000000000009999123100000010000000000000BRMRSAACNOR6124
012024020502MRVE3       010MRV         ON      NM   R$  000000000076000000000007670000000000718000000000073600000000007430000000000742000000000074328260000000000026457800000000019481136200000000000000009999123100000010000000000000BRMRVEACNOR2126
012024020502RAIZ4       010RAIZEN      PN      N2   R$  000000000037800000000003810000000000373000000000037700000000003770000000000376000000000037910202000000000007313500000000002759083000000000000000009999123100000010000000000000BRRAIZACNPR6109
012024020502RANI3       010IRANI       ON      NM   R$  000000000098900000000010090000000000988000000000099400000000009900000000000989000000000099002631000000000000637600000000000634243200000000000000009999123100000010000000000000BRRANIACNOR5069
012024020502RAPT3       010RANDON PART ON      N1   R$  000000000113300000000011400000000001115000000000113100000000011400000000001130000000000114000081000000000000015700000000000017767100000000000000009999123100000010000000000000BRRAPTACNOR7162
012024020502RAPT4       010RANDON PART PN      N1   R$  000000000113400000000011530000000001127000000000114100000000011520000000001147000000000115207668000000000001545800000000001764366500000000000000009999123100000010000000000000BRRAPTACNPR4162
012024020502KLBN3       010KLABIN S/A  ON      N2   R$  000000000042000000000004280000000000411000000000041800000000004230000000000423000000000042801930000000000000735000000000000307615000000000000000009999123100000010000000000000BRKLBNACNOR2167
012024020502KLBN4       010KLABIN S/A  PN      N2   R$  000000000042000000000004270000000000411000000000041800000000004270000000000426000000000042705059000000000003643200000000001522920900000000000000009999123100000010000000000000BRKLBNACNPR9167
012024020502AERI3       010AERIS       ON      NM   R$  000000000007800000000000790000000000077000000000007700000000000770000000000077000000000007802457000000000002712200000000000210731900000000000000009999123100000010000000000000BRAERIACNOR4101
012024020502AESB3       010AES BRASIL  ON      NM   R$  000000000105500000000010690000000001004000000000103800000000010650000000001060000000000106512869000000000007368900000000007652087000000000000000009999123100000010000000000000BRAESBACNOR7105
012024020502AFLT3       010AFLUENTE T  ON           R$  000000000079400000000007940000000000794000000000079400000000007940000000000794000000000084800002000000000000000200000000000000158800000000000000009999123100000010000000000000BRAFLTACNOR1120
012024020502AGRO3       010BRASILAGRO  ON      NM   R$  000000000247000000000024700000000002415000000000244300000000024150000000002415000000000242801980000000000000386400000000000944260800000000000000009999123100000010000000000000BRAGROACNOR7114
012024020502AGXY3       010AGROGALAXY  ON      NM   R$  000000000027900000000002790000000000243000000000025900000000002480000000000248000000000025200616000000000000347200000000000090181500000000000000009999123100000010000000000000BRAGXYACNOR4102
012024020502ALLD3       010ALLIED      ON      NM   R$  000000000070900000000007100000000000670000000000069200000000006700000000000670000000000068300155000000000000043500000000000030102700000000000000009999123100000010000000000000BRALLDACNOR3105
012024020502ALOS3       010ALLOS       ON      NM   R$  000000000244800000000024680000000002398000000000242200000000024310000000002431000000000243412695000000000002884700000000006988762700000000000000009999123100000010000000000000BRALOSACNOR5100
012024020502BIOM3       010BIOMM       ON      MA   R$  000000000051400000000005490000000000500000000000052600000000005170000000000509000000000053000214000000000000036200000000000019057800000000000000009999123100000010000000000000BRBIOMACNOR2112
012024020502BLAU3       010BLAU        ON      NM   R$  000000000118700000000011870000000001160000000000117300000000011710000000001170000000000117102375000000000000443100000000000519776100000000000000009999123100000010000000000000BRBLAUACNOR8111
012024020502VSTE3       010VESTE       ON      NM   R$  000000000176500000000017700000000001733000000000175600000000017700000000001770000000000179700028000000000000004100000000000007202300000000000000009999123100000010000000000000BRVSTEACNOR5102
012024020502VULC3       010VULCABRAS   ON  ED  NM   R$  000000000187500000000018860000000001796000000000183900000000018500000000001847000000000185303161000000000000677000000000001245450800000000000000009999123100000010000000000000BRVULCACNOR2157
012024020502VVEO3       010VIVEO       ON      NM   R$  000000000093900000000009420000000000904000000000092100000000009200000000000914000000000092103242000000000000712200000000000656050000000000000000009999123100000010000000000000BRVVEOACNOR0103
012024020502RCSL3       010RECRUSUL    ON           R$  000000000021800000000002300000000000198000000000021500000000002020000000000202000000000020408073000000000006489300000000001399632800000000000000009999123100000010000000000000BRRCSLACNOR4133
012024020502SYNE3       010SYN PROP TECON      NM   R$  000000000044600000000004600000000000441000000000044800000000004520000000000451000000000045200519000000000000156900000000000070418800000000000000009999123100000010000000000000BRSYNEACNOR2102
012024020502TAEE11      010TAESA       UNT     N2   R$  000000000365300000000036530000000003614000000000362800000000036290000000003629000000000363007223000000000001840700000000006678889500000000000000009999123100000010000000000000BRTAEECDAM10145
012024020502TAEE3       010TAESA       ON      N2   R$  000000000120900000000012140000000001198000000000120100000000012030000000001202000000000120300808000000000000145300000000000174568700000000000000009999123100000010000000000000BRTAEEACNOR9145
012024020502WEGE3       010WEG         ON      NM   R$  000000000325900000000033420000000003250000000000330000000000033260000000003325000000000332615122000000000007346000000000024245233600000000000000009999123100000010000000000000BRWEGEACNOR0220
012024020502TAEE4       010TAESA       PN      N2   R$  000000000122500000000012250000000001209000000000121400000000012140000000001214000000000121800951000000000000285000000000000346221900000000000000009999123100000010000000000000BRTAEEACNPR6145
012024020502RADL3       010RAIADROGASILON      NM   R$  000000000247500000000024820000000002430000000000244400000000024460000000002445000000000244623142000000000010037100000000024533383800000000000000009999123100000010000000000000BRRADLACNOR0154
012024020502RAIL3       010RUMO S.A.   ON      NM   R$  000000000228300000000023090000000002261000000000227800000000022670000000002267000000000228014988000000000005289500000000012050624900000000000000009999123100000010000000000000BRRAILACNOR9104
012024020502SNSY3       010SANSUY      ON           R$  000000000129200000000013290000000001230000000000126900000000012510000000001200000000000125100026000000000000003000000000000003809200000000000000009999123100000010000000000000BRSNSYACNOR2113
012024020502SNSY5       010SANSUY      PNA          R$  000000000043200000000004570000000000430000000000044400000000004560000000000442000000000045700022000000000000003900000000000001732100000000000000009999123100000010000000000000BRSNSYACNPA5111
012024020502SOJA3       010BOA SAFRA   ON      NM   R$  000000000154300000000015430000000001482000000000149600000000014820000000001480000000000148200646000000000000135300000000000202443300000000000000009999123100000010000000000000BRSOJAACNOR9105
012024020502SOMA3       010GRUPO SOMA  ON      NM   R$  000000000082000000000008250000000000712000000000074900000000007190000000000718000000000072035363000000000047445300000000035572044400000000000000009999123100000010000000000000BRSOMAACNOR3102
012024020502MTRE3       010MITRE REALTYON      NM   R$  000000000044800000000004540000000000434000000000044000000000004340000000000434000000000044004697000000000002340000000000001031469700000000000000009999123100000010000000000000BRMTREACNOR6109
012024020502MTSA4       010METISA      PN           R$  000000000504800000000050890000000005006000000000505200000000050890000000005009000000000509000020000000000000002700000000000013642200000000000000009999123100000010000000000000BRMTSAACNPR9071
012024020502MULT3       010MULTIPLAN   ON      N2   R$  000000000272600000000027580000000002699000000000272600000000027400000000002740000000000274220534000000000003002500000000008185462400000000000000009999123100000010000000000000BRMULTACNOR5137
012024020502MWET4       010WETZEL S/A  PN           R$  000000000065700000000006570000000000633000000000064100000000006330000000000621000000000067900002000000000000000300000000000000192300000000000000009999123100000010000000000000BRMWETACNPR3118
012024020502MYPK3       010IOCHP-MAXIONON      NM   R$  000000000119400000000012080000000001172000000000118200000000011810000000001179000000000118205047000000000000991100000000001171563900000000000000009999123100000010000000000000BRMYPKACNOR7153
012024020502SRNA3       010SERENA      ON      NM   R$  000000000097700000000010020000000000946000000000095600000000009500000000000949000000000095004909000000000001036400000000000991688800000000000000009999123100000010000000000000BRSRNAACNOR4100
012024020502STBP3       010SANTOS BRP  ON      NM   R$  000000000105200000000010520000000001018000000000103000000000010200000000001019000000000102410503000000000004834500000000004982625800000000000000009999123100000010000000000000BRSTBPACNOR3128
012024020502SUZB3       010SUZANO S.A. ON      NM   R$  000000000510000000000051970000000005100000000000515200000000051750000000005174000000000518112310000000000002717700000000014003123700000000000000009999123100000010000000000000BRSUZBACNOR0129
012024020502PRNR3       010PRINER      ON      NM   R$  000000000116800000000011680000000001132000000000115100000000011590000000001148000000000115900628000000000000171700000000000197644900000000000000009999123100000010000000000000BRPRNRACNOR4108
012024020502NEOE3       010NEOENERGIA  ON      NM   R$  000000000207000000000020700000000002026000000000205200000000020680000000002067000000000206804072000000000000613900000000001259764400000000000000009999123100000010000000000000BRNEOEACNOR3121
012024020502PSSA3       010PORTO SEGUROON      NM   R$  000000000268900000000027090000000002677000000000269800000000027040000000002704000000000270505724000000000001404900000000003790440200000000000000009999123100000010000000000000BRPSSAACNOR7153
012024020502PTBL3       010PORTOBELLO  ON      NM   R$  000000000060000000000006050000000000580000000000058800000000005830000000000583000000000058602040000000000000669100000000000393539900000000000000009999123100000010000000000000BRPTBLACNOR8132
012024020502PTNT3       010PETTENATI   ON           R$  000000000117000000000012380000000001170000000000120400000000012380000000001166000000000123900003000000000000000400000000000000481600000000000000009999123100000010000000000000BRPTNTACNOR6042
012024020502PTNT4       010PETTENATI   PN           R$  000000000080000000000008050000000000790000000000079800000000007900000000000790000000000079900019000000000000006700000000000005351700000000000000009999123100000010000000000000BRPTNTACNPR3047
012024020502NGRD3       010NEOGRID     ON      NM   R$  000000000010900000000001120000000000107000000000010800000000001090000000000108000000000010900246000000000000202000000000000021983400000000000000009999123100000010000000000000BRNGRDACNOR3103
012024020502NINJ3       010GETNINJAS   ON      NM   R$  000000000050600000000005060000000000501000000000050100000000005030000000000501000000000050300290000000000000122200000000000061248800000000000000009999123100000010000000000000BRNINJACNOR5101
012024020502NORD3       010NORDON MET  ON           R$  000000000120000000000012000000000001100000000000113500000000011000000000001100000000000119500011000000000000001200000000000001362200000000000000009999123100000010000000000000BRNORDACNOR7135
012024020502NTCO3       010GRUPO NATURAON      NM   R$  000000000160500000000016320000000001576000000000160100000000016060000000001605000000000160716308000000000009025600000000014455760400000000000000009999123100000010000000000000BRNTCOACNOR5104
012024020502QUAL3       010QUALICORP   ON      NM   R$  000000000020900000000002120000000000197000000000020200000000001980000000000198000000000019908188000000000008778800000000001778621900000000000000009999123100000010000000000000BRQUALACNOR6119
012024020502SLCE3       010SLC AGRICOLAON      NM   R$  000000000191000000000019220000000001886000000000190800000000019100000000001910000000000191507333000000000002082200000000003973391400000000000000009999123100000010000000000000BRSLCEACNOR2124
012024020502SMFT3       010SMART FIT   ON      NM   R$  000000000243700000000025230000000002437000000000248900000000024900000000002485000000000249213342000000000002273500000000005660785800000000000000009999123100000010000000000000BRSMFTACNOR1111
012024020502SMTO3       010SAO MARTINHOON      NM   R$  000000000271700000000027530000000002676000000000270900000000027090000000002703000000000270909460000000000002771800000000007511409400000000000000009999123100000010000000000000BRSMTOACNOR3125
012024020502ROMI3       010ROMI        ON      NM   R$  000000000128500000000012940000000001258000000000127100000000012600000000001259000000000126002562000000000000467400000000000594103200000000000000009999123100000010000000000000BRROMIACNOR8192
012024020502RPAD6       010ALFA HOLDINGPNB          R$  000000000080300000000008030000000000803000000000080300000000008030000000000803000000000082700001000000000000000100000000000000080300000000000000009999123100000010000000000000BRRPADACNPB2198
012024020502PCAR3       010P.ACUCAR-CBDON      NM   R$  000000000040900000000004100000000000392000000000039800000000003930000000000393000000000039405168000000000005465400000000002180223300000000000000009999123100000010000000000000BRPCARACNOR3167
012024020502PDGR3       010PDG REALT   ON      NM   R$  000000000003500000000000350000000000032000000000003300000000000330000000000033000000000003400710000000000002036100000000000068639500000000000000009999123100000010000000000000BRPDGRACNOR8118
012024020502PDTC3       010PADTEC      ON      NM   R$  000000000030500000000003130000000000302000000000030700000000003060000000000306000000000030800109000000000000037000000000000011359800000000000000009999123100000010000000000000BRPDTCACNOR3100
012024020502PEAB3       010PAR AL BAHIAON           R$  000000000420000000000042000000000004200000000000420000000000042000000000003850000000000430000002000000000000000300000000000001260000000000000000009999123100000010000000000000BRPEABACNOR3131
012024020502PETR3       010PETROBRAS   ON      N2   R$  000000000422100000000042820000000004202000000000424400000000042330000000004231000000000423520078000000000011064600000000046964546200000000000000009999123100000010000000000000BRPETRACNOR9202
012024020502PETR4       010PETROBRAS   PN      N2   R$  000000000410100000000041680000000004093000000000413000000000041210000000004121000000000412440610000000000027503000000000113595753400000000000000009999123100000010000000000000BRPETRACNPR6209
012024020502POSI3       010POSITIVO TECON      NM   R$  000000000071600000000007160000000000690000000000069900000000006990000000000699000000000070003085000000000000947700000000000663113000000000000000009999123100000010000000000000BRPOSIACNOR9115
012024020502PRIO3       010PETRORIO    ON      NM   R$  000000000422000000000042630000000004187000000000422000000000042050000000004204000000000420526959000000000007334700000000030956848400000000000000009999123100000010000000000000BRPRIOACNOR1106
012024020502RRRP3       0103R PETROLEUMON      NM   R$  000000000268000000000027240000000002660000000000271500000000027190000000002713000000000271908103000000000018156000000000049298420100000000000000009999123100000010000000000000BRRRRPACNOR5102
012024020502TPIS3       010TRIUNFO PARTON      NM   R$  000000000039500000000003950000000000387000000000038900000000003940000000000387000000000039400111000000000000049800000000000019415400000000000000009999123100000010000000000000BRTPISACNOR8118
012024020502TRAD3       010TC          ON      NM   R$  000000000006800000000000680000000000065000000000006600000000000670000000000067000000000006800150000000000000559100000000000037155700000000000000009999123100000010000000000000BRTRADACNOR3101
012024020502TRIS3       010TRISUL      ON      NM   R$  000000000046500000000004700000000000451000000000045600000000004560000000000455000000000045603234000000000000941600000000000429562400000000000000009999123100000010000000000000BRTRISACNOR4116
012024020502TRPL3       010TRAN PAULISTON      N1   R$  000000000333900000000034790000000003260000000000335600000000034770000000003392000000000347900031000000000000003400000000000011410800000000000000009999123100000010000000000000BRTRPLACNOR4185
012024020502TRPL4       010TRAN PAULISTPN      N1   R$  000000000259600000000026180000000002564000000000259200000000026110000000002605000000000261210153000000000001702100000000004412038600000000000000009999123100000010000000000000BRTRPLACNPR1185
012024020502SBFG3       010GRUPO SBF   ON      NM   R$  000000000131900000000013430000000001256000000000128700000000012790000000001277000000000128010026000000000002980900000000003836823700000000000000009999123100000010000000000000BRSBFGACNOR1102
012024020502SBSP3       010SABESP      ON      NM   R$  000000000787400000000079380000000007779000000000788200000000079250000000007925000000000792907791000000000001679900000000013241282300000000000000009999123100000010000000000000BRSBSPACNOR5160
012024020502SCAR3       010SAO CARLOS  ON      NM   R$  000000000270200000000027020000000002620000000000265900000000026200000000002620000000000264900050000000000000012100000000000032176700000000000000009999123100000010000000000000BRSCARACNOR7130
012024020502SEER3       010SER EDUCA   ON      NM   R$  000000000058400000000005950000000000567000000000057800000000005800000000000572000000000058001746000000000000904100000000000522659100000000000000009999123100000010000000000000BRSEERACNOR5119
012024020502SEQL3       010SEQUOIA LOG ON      NM   R$  000000000004800000000000490000000000046000000000004700000000000460000000000046000000000004703097000000000005133200000000000242220900000000000000009999123100000010000000000000BRSEQLACNOR2101
012024020502SGPS3       010SPRINGS     ON      NM   R$  000000000011700000000001180000000000113000000000011400000000001130000000000113000000000011400177000000000000288800000000000033199400000000000000009999123100000010000000000000BRSGPSACNOR4104
012024020502SHOW3       010TIME FOR FUNON      NM   R$  000000000020800000000002110000000000205000000000020600000000002070000000000205000000000020700345000000000000165300000000000034193400000000000000009999123100000010000000000000BRSHOWACNOR7105
012024020502TTEN3       0103TENTOS     ON      NM   R$  000000000105700000000010750000000001045000000000106000000000010650000000001063000000000106505614000000000001024800000000001086641100000000000000009999123100000010000000000000BRTTENACNOR0102
012024020502TUPY3       010TUPY        ON      NM   R$  000000000253800000000025550000000002521000000000253400000000025430000000002534000000000254502845000000000000436400000000001106031500000000000000009999123100000010000000000000BRTUPYACNOR1183
012024020502SHUL4       010SCHULZ      PN           R$  000000000063500000000006490000000000625000000000063600000000006320000000000632000000000063602261000000000000545500000000000347460200000000000000009999123100000010000000000000BRSHULACNPR4154
012024020502SIMH3       010SIMPAR      ON      NM   R$  000000000075100000000007580000000000724000000000073800000000007400000000000740000000000074807719000000000004071200000000003005032000000000000000009999123100000010000000000000BRSIMHACNOR0107
012024020502WEST3       010WESTWING    ON      NM   R$  000000000012700000000001270000000000122000000000012300000000001220000000000122000000000012300051000000000000043800000000000005387400000000000000009999123100000010000000000000BRWESTACNOR3100
012024020502WHRL3       010WHIRLPOOL   ON           R$  000000000042200000000004220000000000420000000000042000000000004220000000000420000000000042300011000000000000001500000000000000631100000000000000009999123100000010000000000000BRWHRLACNOR5128
012024020502WHRL4       010WHIRLPOOL   PN           R$  000000000045100000000004570000000000450000000000045100000000004570000000000451000000000045700016000000000000004300000000000001941900000000000000009999123100000010000000000000BRWHRLACNPR2128
012024020502WIZC3       010WIZ CO      ON      NM   R$  000000000065500000000006590000000000638000000000064400000000006380000000000637000000000064301347000000000000344600000000000222068800000000000000009999123100000010000000000000BRWIZCACNOR5101
012024020502WLMM3       010WLM IND COM ON           R$  000000000250000000000025000000000002212000000000231700000000023500000000002251000000000240000018000000000000002700000000000006256600000000000000009999123100000010000000000000BRWLMMACNOR6116
012024020502WLMM4       010WLM IND COM PN           R$  000000000264100000000027470000000002604000000000265600000000027470000000002640000000000274800023000000000000003400000000000009030800000000000000009999123100000010000000000000BRWLMMACNPR3116
012024020502AALR3       010ALLIAR      ON      NM   R$  000000000082600000000008310000000000805000000000081300000000008160000000000815000000000081600389000000000000053800000000000043782900000000000000009999123100000010000000000000BRAALRACNOR6102
012024020502YDUQ3       010YDUQS PART  ON      NM   R$  000000000185100000000018700000000001810000000000183700000000018320000000001831000000000183216545000000000005043600000000009266091100000000000000009999123100000010000000000000BRYDUQACNOR3104
012024020502ZAMP3       010ZAMP S.A.   ON           R$  000000000049300000000005040000000000470000000000048000000000004730000000000473000000000047801805000000000000557800000000000268158300000000000000009999123100000010000000000000BRZAMPACNOR5100
012024020502BGIP3       010BANESE      ON           R$  000000000275000000000027500000000002734000000000274400000000027340000000000000000000000000000003000000000000000300000000000000823400000000000000009999123100000010000000000000BRBGIPACNOR1206
012024020502BGIP4       010BANESE      PN           R$  000000000264900000000026700000000002649000000000266600000000026680000000002630000000000266800014000000000000002400000000000006400600000000000000009999123100000010000000000000BRBGIPACNPR8206
012024020502RCSL4       010RECRUSUL    PN           R$  000000000007600000000000800000000000074000000000007700000000000750000000000074000000000007502065000000000004145700000000000319391400000000000000009999123100000010000000000000BRRCSLACNPR1133
012024020502RDNI3       010RNI         ON      NM   R$  000000000045400000000004540000000000446000000000044900000000004470000000000446000000000045200029000000000000019800000000000008908200000000000000009999123100000010000000000000BRRDNIACNOR9116
012024020502RDOR3       010REDE D OR   ON      NM   R$  000000000266600000000027130000000002645000000000267600000000026810000000002677000000000268407745000000000002936000000000007856804500000000000000009999123100000010000000000000BRRDORACNOR8111
012024020502RECV3       010PETRORECSA  ON      NM   R$  000000000219400000000022320000000002179000000000219900000000021930000000002193000000000219908109000000000001647500000000003623618800000000000000009999123100000010000000000000BRRECVACNOR3105
012024020502REDE3       010REDE ENERGIAON           R$  000000000069200000000006950000000000684000000000069100000000006950000000000688000000000069500016000000000000002000000000000001382600000000000000009999123100000010000000000000BRREDEACNOR7126
012024020502RENT3       010LOCALIZA    ON      NM   R$  000000000533700000000054170000000005296000000000536300000000053740000000005374000000000537521816000000000005464400000000029308789000000000000000009999123100000010000000000000BRRENTACNOR4194
012024020502ALPA3       010ALPARGATAS  ON      N1   R$  000000000093900000000009390000000000873000000000090500000000008730000000000873000000000088300025000000000000005400000000000004888800000000000000009999123100000010000000000000BRALPAACNOR0231
012024020502ALPA4       010ALPARGATAS  PN      N1   R$  000000000082700000000008390000000000795000000000081000000000008070000000000807000000000081312523000000000005702100000000004621992000000000000000009999123100000010000000000000BRALPAACNPR7232
012024020502ALPK3       010ESTAPAR     ON      NM   R$  000000000043500000000004350000000000414000000000042200000000004230000000000417000000000042300213000000000000079200000000000033434900000000000000009999123100000010000000000000BRALPKACNOR9101
012024020502ALUP11      010ALUPAR      UNT     N2   R$  000000000291700000000029380000000002900000000000291900000000029260000000002918000000000292602687000000000000572600000000001671796400000000000000009999123100000010000000000000BRALUPCDAM15117
012024020502ALUP3       010ALUPAR      ON      N2   R$  000000000097000000000009800000000000968000000000097200000000009690000000000968000000000097100078000000000000011800000000000011471500000000000000009999123100000010000000000000BRALUPACNOR8117
012024020502ALUP4       010ALUPAR      PN      N2   R$  000000000097400000000009790000000000966000000000097100000000009760000000000970000000000097700128000000000000023100000000000022449700000000000000009999123100000010000000000000BRALUPACNPR5117
012024020502AMAR3       010LOJAS MARISAON      NM   R$  000000000025700000000002570000000000245000000000025000000000002540000000000248000000000025400668000000000000245600000000000061603800000000000000009999123100000010000000000000BRAMARACNOR4114
012024020502AMBP3       010AMBIPAR     ON      NM   R$  000000000137500000000013970000000001352000000000136800000000013670000000001365000000000136903692000000000000817600000000001119257100000000000000009999123100000010000000000000BRAMBPACNOR6103
012024020502ANIM3       010ANIMA       ON      NM   R$  000000000042000000000004200000000000403000000000041100000000004150000000000413000000000041712238000000000006809400000000002803314900000000000000009999123100000010000000000000BRANIMACNOR6107
012024020502APER3       010ALPER S.A.  ON           R$  000000000450100000000045010000000004165000000000438600000000043900000000004390000000000450000034000000000000008000000000000035090300000000000000009999123100000010000000000000BRAPERACNOR9106
012024020502ARML3       010ARMAC       ON      NM   R$  000000000137400000000014120000000001340000000000136100000000013540000000001350000000000135903330000000000000535000000000000728538400000000000000009999123100000010000000000000BRARMLACNOR1110
012024020502ARZZ3       010AREZZO CO   ON      NM   R$  000000000658600000000065860000000005928000000000622700000000059350000000005935000000000594529237000000000007243800000000045111206100000000000000009999123100000010000000000000BRARZZACNOR3146
012024020502BBDC3       010BRADESCO    ON  EJ  N1   R$  000000000136400000000013970000000001364000000000138200000000013910000000001390000000000139206594000000000004445300000000006146003800000000000000009999123100000010000000000000BRBBDCACNOR1766
012024020502HBOR3       010HELBOR      ON      NM   R$  000000000026800000000002720000000000262000000000026600000000002710000000000267000000000027101257000000000000502100000000000134006300000000000000009999123100000010000000000000BRHBORACNOR3117
012024020502HBRE3       010HBR REALTY  ON      NM   R$  000000000049800000000005000000000000475000000000047900000000004750000000000475000000000047700802000000000000406300000000000194936500000000000000009999123100000010000000000000BRHBREACNOR4100
012024020502HBSA3       010HIDROVIAS   ON      NM   R$  000000000037400000000003800000000000365000000000037000000000003680000000000368000000000036907467000000000004604100000000001706840900000000000000009999123100000010000000000000BRHBSAACNOR0100
012024020502HBTS5       010HABITASUL   PNA          R$  000000000380000000000038000000000003320000000000345600000000033210000000003320000000000349900018000000000000002000000000000006913600000000000000009999123100000010000000000000BRHBTSACNPA3127
012024020502HETA4       010HERCULES    PN           R$  000000000065000000000006500000000000650000000000065000000000006500000000000594000000000063600001000000000000000100000000000000065000000000000000009999123100000010000000000000BRHETAACNPR9136
012024020502KEPL3       010KEPLER WEBERON      NM   R$  000000000093000000000009430000000000918000000000093400000000009380000000000935000000000093906940000000000001439300000000001345144300000000000000009999123100000010000000000000BRKEPLACNOR1061
012024020502KLBN11      010KLABIN S/A  UNT     N2   R$  000000000210000000000021370000000002051000000000209400000000021190000000002117000000000212015320000000000006395300000000013396238800000000000000009999123100000010000000000000BRKLBNCDAM18139
012024020502ITSA3       010ITAUSA      ON      N1   R$  000000000100400000000010180000000000999000000000100800000000010110000000001011000000000101800391000000000000175400000000000176804100000000000000009999123100000010000000000000BRITSAACNOR0436
012024020502ITSA4       010ITAUSA      PN      N1   R$  000000000100000000000010170000000000998000000000101000000000010150000000001014000000000101529255000000000017922000000000018104631500000000000000009999123100000010000000000000BRITSAACNPR7436
012024020502LUPA3       010LUPATECH    ON      NM   R$  000000000018800000000001880000000000176000000000017900000000001760000000000176000000000017800584000000000000322100000000000057975500000000000000009999123100000010000000000000BRLUPAACNOR8112
012024020502LVTC3       010WDC NETWORKSON      NM   R$  000000000039700000000004140000000000395000000000040500000000004120000000000405000000000041200132000000000000033400000000000013546200000000000000009999123100000010000000000000BRLVTCACNOR4102
012024020502LWSA3       010LWSA        ON      NM   R$  000000000053000000000005300000000000497000000000050700000000005080000000000507000000000050815296000000000011450100000000005807161500000000000000009999123100000010000000000000BRLWSAACNOR8103
012024020502ODPV3       010ODONTOPREV  ON      NM   R$  000000000126000000000013020000000001252000000000128700000000013000000000001294000000000130016236000000000006806500000000008762507400000000000000009999123100000010000000000000BRODPVACNOR4198
012024020502OFSA3       010OUROFINO S/AON      NM   R$  000000000230800000000023080000000002300000000000230300000000023080000000002285000000000230800007000000000000001500000000000003455100000000000000009999123100000010000000000000BROFSAACNOR7117
012024020502ONCO3       010ONCOCLINICASON      NM   R$  000000000113300000000011580000000001116000000000113000000000011230000000001123000000000112504626000000000001090800000000001233571500000000000000009999123100000010000000000000BRONCOACNOR6100
012024020502OPCT3       010OCEANPACT   ON      NM   R$  000000000061600000000006210000000000590000000000060400000000005900000000000590000000000059101911000000000000565200000000000341865600000000000000009999123100000010000000000000BROPCTACNOR0100
012024020502ORVR3       010ORIZON      ON      NM   R$  000000000348500000000035100000000003452000000000347000000000034570000000003457000000000347301156000000000000225700000000000783367300000000000000009999123100000010000000000000BRORVRACNOR0101
012024020502AZEV3       010AZEVEDO     ON           R$  000000000015100000000001540000000000147000000000015100000000001480000000000148000000000015000509000000000000640800000000000097104500000000000000009999123100000010000000000000BRAZEVACNOR0121
012024020502AZEV4       010AZEVEDO     PN           R$  000000000014300000000001460000000000140000000000014300000000001430000000000142000000000014300882000000000001212900000000000173461300000000000000009999123100000010000000000000BRAZEVACNPR7121
012024020502AZUL4       010AZUL        PN      N2   R$  000000000135000000000013840000000001288000000000131700000000012910000000001291000000000129218652000000000014663600000000019322549800000000000000009999123100000010000000000000BRAZULACNPR4102
012024020502B3SA3       010B3          ON      NM   R$  000000000131700000000013260000000001296000000000130600000000013070000000001307000000000130846924000000000023037300000000030089819800000000000000009999123100000010000000000000BRB3SAACNOR6130
012024020502BBSE3       010BBSEGURIDADEON      NM   R$  000000000345600000000034820000000003412000000000344300000000034550000000003455000000000345632886000000000009137200000000031463880000000000000000009999123100000010000000000000BRBBSEACNOR5123
012024020502CLSA3       010CLEARSALE   ON      NM   R$  000000000033300000000003770000000000325000000000035800000000003760000000000375000000000037605009000000000002355000000000000844383200000000000000009999123100000010000000000000BRCLSAACNOR0100
012024020502ENEV3       010ENEVA       ON      NM   R$  000000000125900000000012740000000001249000000000126300000000012670000000001266000000000126713765000000000004066800000000005139077300000000000000009999123100000010000000000000BRENEVACNOR8105
012024020502ENGI11      010ENERGISA    UNT     N2   R$  000000000505100000000051300000000005004000000000504400000000050580000000005051000000000505811274000000000002366100000000011935641100000000000000009999123100000010000000000000BRENGICDAM16135
012024020502ENGI3       010ENERGISA    ON      N2   R$  000000000174400000000017450000000001681000000000168700000000016810000000001681000000000171000024000000000000009500000000000016035900000000000000009999123100000010000000000000BRENGIACNOR0145
012024020502ENGI4       010ENERGISA    PN      N2   R$  000000000084000000000008520000000000810000000000081500000000008100000000000810000000000084900052000000000000038300000000000031238600000000000000009999123100000010000000000000BRENGIACNPR7141
012024020502ENJU3       010ENJOEI      ON      NM   R$  000000000015500000000001560000000000150000000000015100000000001500000000000150000000000015100650000000000000493100000000000074849800000000000000009999123100000010000000000000BRENJUACNOR9100
012024020502BHIA3       010CASAS BAHIA ON      NM   R$  000000000071500000000007200000000000670000000000069200000000006980000000000696000000000069808599000000000006487500000000004491809600000000000000009999123100000010000000000000BRBHIAACNOR1101
012024020502COCE5       010COELCE      PNA          R$  000000000407400000000041070000000004029000000000407200000000041070000000004075000000000411900061000000000000007000000000000028506700000000000000009999123100000010000000000000BRCOCEACNPA3146
012024020502COGN3       010COGNA ON    ON      NM   R$  000000000026400000000002650000000000243000000000025200000000002510000000000250000000000025117882000000000080879700000000020409413700000000000000009999123100000010000000000000BRCOGNACNOR2104
012024020502CSRN3       010COSERN      ON           R$  000000000274500000000028400000000002741000000000277500000000028400000000002750000000000288000003000000000000000300000000000000832600000000000000009999123100000010000000000000BRCSRNACNOR0190
012024020502CSUD3       010CSU DIGITAL ON      NM   R$  000000000190500000000019050000000001815000000000184300000000018150000000001815000000000181700284000000000000055600000000000102510000000000000000009999123100000010000000000000BRCSUDACNOR5107
012024020502CTNM4       010COTEMINAS   PN           R$  000000000014200000000001440000000000131000000000013600000000001320000000000132000000000013300155000000000000133000000000000018186600000000000000009999123100000010000000000000BRCTNMACNPR6129
012024020502CTSA3       010SANTANENSE  ON           R$  000000000038600000000003860000000000356000000000037500000000003580000000000357000000000036900029000000000000010000000000000003750900000000000000009999123100000010000000000000BRCTSAACNOR3062
012024020502CTSA4       010SANTANENSE  PN           R$  000000000017700000000001820000000000163000000000017300000000001700000000000169000000000017400144000000000000029200000000000005053000000000000000009999123100000010000000000000BRCTSAACNPR0062
012024020502MAPT4       010CEMEPE      PN           R$  000000000094000000000010530000000000926000000000095400000000010530000000000895000000000104000004000000000000000500000000000000477100000000000000009999123100000010000000000000BRMAPTACNPR5106
012024020502MATD3       010MATER DEI   ON      NM   R$  000000000064800000000006560000000000618000000000063500000000006320000000000632000000000063302927000000000001150400000000000730552800000000000000009999123100000010000000000000BRMATDACNOR4103
012024020502GEPA4       010GER PARANAP PN           R$  000000000258000000000026000000000002580000000000259000000000026000000000002562000000000260000002000000000000000200000000000000518000000000000000009999123100000010000000000000BRGEPAACNPR9159
012024020502GFSA3       010GAFISA      ON      NM   R$  000000000109100000000010970000000000891000000000097300000000009180000000000917000000000091911697000000000006981500000000006795929100000000000000009999123100000010000000000000BRGFSAACNOR3123
012024020502MGEL4       010MANGELS INDLPN           R$  000000000139800000000013980000000001398000000000139800000000013980000000001333000000000142000002000000000000000900000000000001258200000000000000009999123100000010000000000000BRMGELACNPR3147
012024020502PFRM3       010PROFARMA    ON      NM   R$  000000000048000000000004940000000000473000000000048300000000004750000000000475000000000047800799000000000000298700000000000144452400000000000000009999123100000010000000000000BRPFRMACNOR1116
012024020502PGMN3       010PAGUE MENOS ON  EJS NM   R$  000000000030800000000003130000000000304000000000030700000000003060000000000305000000000030702129000000000001192800000000000366265000000000000000009999123100000010000000000000BRPGMNACNOR8103
012024020502CAMB3       010CAMBUCI     ON           R$  000000000108400000000010840000000001022000000000104800000000010430000000001041000000000104300141000000000000036300000000000038061200000000000000009999123100000010000000000000BRCAMBACNOR4127
012024020502CAML3       010CAMIL       ON      NM   R$  000000000088100000000008830000000000864000000000086900000000008690000000000869000000000087103307000000000000887400000000000771778800000000000000009999123100000010000000000000BRCAMLACNOR3126
012024020502CASH3       010MELIUZ      ON      NM   R$  000000000075800000000007590000000000740000000000074900000000007590000000000756000000000075903628000000000001394100000000001044894000000000000000009999123100000010000000000000BRCASHACNOR8105
012024020502CBAV3       010CBA         ON      NM   R$  000000000038100000000003850000000000375000000000037900000000003820000000000381000000000038206323000000000005398400000000002049265100000000000000009999123100000010000000000000BRCBAVACNOR5104
012024020502CCRO3       010CCR SA      ON      NM   R$  000000000131100000000013250000000001306000000000131600000000013110000000001311000000000131308032000000000004557800000000005999539600000000000000009999123100000010000000000000BRCCROACNOR2144
012024020502CEAB3       010CEA MODAS   ON      NM   R$  000000000072600000000007290000000000694000000000070400000000006990000000000698000000000070004378000000000002395000000000001688075100000000000000009999123100000010000000000000BRCEABACNOR1101
012024020502CEBR3       010CEB         ON           R$  000000000187000000000018930000000001813000000000184400000000018570000000001815000000000189000044000000000000014000000000000025822500000000000000009999123100000010000000000000BRCEBRACNOR5124
012024020502CEBR5       010CEB         PNA          R$  000000000174300000000017680000000001721000000000175400000000017650000000001721000000000176500019000000000000004100000000000007191400000000000000009999123100000010000000000000BRCEBRACNPA8123
012024020502DMVF3       010D1000VFARMA ON      NM   R$  000000000060800000000006090000000000598000000000060200000000006000000000000600000000000060400073000000000000013600000000000008194500000000000000009999123100000010000000000000BRDMVFACNOR9100
012024020502DOHL4       010DOHLER      PN           R$  000000000048900000000005000000000000489000000000049800000000005000000000000481000000000050000003000000000000001200000000000000597800000000000000009999123100000010000000000000BRDOHLACNPR9066
012024020502DOTZ3       010DOTZ SA     ON      NM   R$  000000000071600000000007430000000000685000000000071800000000007130000000000690000000000071400040000000000000011400000000000008196200000000000000009999123100000010000000000000BRDOTZACNOR7101
012024020502DXCO3       010DEXCO       ON      NM   R$  000000000076500000000007680000000000748000000000075700000000007600000000000760000000000076404721000000000002019300000000001530206200000000000000009999123100000010000000000000BRDXCOACNOR8104
012024020507TXRX4       010TEX RENAUX  PN           R$  000000000036500000000003950000000000305000000000033800000000003110000000000311000000000032500091000000000000024200000000000008183500000000000000009999123100000010000000000000BRTXRXACNPR0142
012024020507NUTR3       010NUTRIPLANT  ON      MA   R$  000000000048500000000004950000000000480000000000048500000000004800000000000480000000000049500010000000000000001500000000000000728400000000000000009999123100000010000000000000BRNUTRACNOR0104
012024020508LIGT3       010LIGHT S/A   ON      NM   R$  000000000057800000000005830000000000564000000000057000000000005640000000000564000000000056903691000000000000572400000000000326786300000000000000009999123100000010000000000000BRLIGTACNOR2124
012024020508ATMP3       010ATMASA      ON           R$  000000000030000000000003030000000000296000000000029900000000003000000000000296000000000030200010000000000000001700000000000000509100000000000000009999123100000010000000000000BRATMPACNOR8100
012024020508ETER3       010ETERNIT     ON      NM   R$  000000000071500000000007220000000000701000000000070900000000007210000000000720000000000072101317000000000000258600000000000183488900000000000000009999123100000010000000000000BRETERACNOR3242
012024020508BDLL4       010BARDELLA    PN           R$  000000000078100000000007810000000000780000000000078000000000007800000000000775000000000088000006000000000000001100000000000000858100000000000000009999123100000010000000000000BRBDLLACNPR8151
012024020508PMAM3       010PARANAPANEMAON      NM   R$  000000000038500000000003850000000000377000000000038100000000003820000000000378000000000038500109000000000000032700000000000012488300000000000000009999123100000010000000000000BRPMAMACNOR3038
012024020508HOOT4       010HOTEIS OTHONPN           R$  000000000028000000000002850000000000277000000000028000000000002840000000000283000000000028500041000000000000028600000000000008034800000000000000009999123100000010000000000000BRHOOTACNPR9015
012024020508FRTA3       010POMIFRUTAS  ON      NM   R$  000000000016200000000001620000000000150000000000015400000000001510000000000150000000000015400090000000000000021400000000000003305400000000000000009999123100000010000000000000BRFRTAACNOR8103
012024020508JFEN3       010JOAO FORTES ON           R$  000000000018900000000002010000000000182000000000018900000000001860000000000186000000000018900063000000000000013200000000000002495000000000000000009999123100000010000000000000BRJFENACNOR0058
012024020508RSID3       010ROSSI RESID ON      NM   R$  000000000037400000000003850000000000365000000000037300000000003780000000000377000000000037800205000000000000078100000000000029192900000000000000009999123100000010000000000000BRRSIDACNOR8120
012024020508TEKA4       010TEKA        PN           R$  000000000241000000000027100000000002410000000000244400000000027100000000002503000000000271000012000000000000012700000000000031039800000000000000009999123100000010000000000000BRTEKAACNPR3140
012024020508NEXP3       010NEXPE       ON      NM   R$  000000000050500000000005050000000000505000000000050500000000005050000000000496000000000050200001000000000000000100000000000000050500000000000000009999123100000010000000000000BRNEXPACNOR0101
012024020508RNEW11      010RENOVA      UNT     N2   R$  000000000038100000000003810000000000376000000000037700000000003760000000000372000000000037900004000000000000000600000000000000226600000000000000009999123100000010000000000000BRRNEWCDAM15110
012024020508RNEW3       010RENOVA      ON      N2   R$  000000000013100000000001310000000000125000000000012600000000001250000000000125000000000012800116000000000000089700000000000011333800000000000000009999123100000010000000000000BRRNEWACNOR8110
012024020508RNEW4       010RENOVA      PN      N2   R$  000000000012700000000001300000000000121000000000012400000000001250000000000123000000000012500222000000000000205800000000000025555700000000000000009999123100000010000000000000BRRNEWACNPR5110
012024020508RPMG3       010PET MANGUINHON           R$  000000000021500000000002150000000000205000000000020900000000002050000000000205000000000020700021000000000000014100000000000002947300000000000000009999123100000010000000000000BRRPMGACNOR9194
012024020508AMER3       010AMERICANAS  ON      NM   R$  000000000007900000000000800000000000072000000000007600000000000720000000000072000000000007308244000000000028255200000000002150331400000000000000009999123100000010000000000000BRAMERACNOR6101
012024020508OIBR3       010OI          ON      N1   R$  000000000006100000000000630000000000061000000000006100000000000620000000000062000000000006300885000000000003438800000000000212550400000000000000009999123100000010000000000000BROIBRACNOR1110
012024020508OIBR4       010OI          PN      N1   R$  000000000014900000000001500000000000148000000000014900000000001480000000000148000000000014900052000000000000022900000000000003420000000000000000009999123100000010000000000000BROIBRACNPR8109
012024020508OSXB3       010OSX BRASIL  ON      NM   R$  000000000053400000000005500000000000503000000000051600000000005170000000000517000000000053100070000000000000017900000000000009250500000000000000009999123100000010000000000000BROSXBACNOR8109
012024020510VIVR1       010VIVER       DIR ORD NM   R$  000000000000700000000000070000000000006000000000000600000000000070000000000006000000000000700058000000000000069900000000000000422600000000000000009999123100000010000000000000BRVIVRD17OR5120
012024020510VSTE1       010VESTE       DIR ORD NM   R$  000000000003000000000000350000000000021000000000002700000000000270000000000021000000000002700008000000000000001700000000000000046700000000000000009999123100000010000000000000BRVSTED02OR8101
012024020510MGLU1       010MAGAZ LUIZA DIR ORD NM   R$  000000000001500000000000160000000000011000000000001300000000000120000000000012000000000001312611000000000010703200000000000148580900000000000000009999123100000010000000000000BRMGLUD01OR7122
012024020510PGMN1       010PAGUE MENOS DIR ORD NM   R$  000000000001900000000000200000000000015000000000001600000000000160000000000016000000000001700113000000000000142200000000000002380800000000000000009999123100000010000000000000BRPGMND03OR9102
012024020512BCFF11      010FII BC FFII CI           R$  000000000091300000000009130000000000910000000000091100000000009100000000000910000000000091110536000000000000333329000000000303905886000000000000009999123100000010000000000000BRBCFFCTF000273
012024020512BCIA11      010FII BCIA    CI  ER       R$  000000001060000000000107990000000010600000000001071000000000106900000000010690000000001076101382000000000000009957000000000106640079000000000000009999123100000010000000000000BRBCIACTF005206
012024020512CEOC11      010FII CEO CCP CI           R$  000000000495000000000049500000000004880000000000491100000000049460000000004899000000000494500027000000000000000279000000000001370421000000000000009999123100000010000000000000BRCEOCCTF003210
012024020512HUCG11      010FII UNIMED CCI           R$  000000000890000000000089000000000008900000000000890000000000089000000000008701000000000890000004000000000000000024000000000000213600000000000000009999123100000010000000000000BRHUCGCTF004120
012024020512HUSC11      010FII H UNIMEDCI  ER       R$  000000001199900000000119990000000011999000000001199900000000119990000000011600000000001200000001000000000000000001000000000000011999000000000000009999123100000010000000000000BRHUSCCTF009148
012024020512LASC11      010FII LEGATUS CI  ER       R$  000000001030000000000103850000000010223000000001033200000000103850000000010385000000001039900039000000000000000462000000000004773738000000000000009999123100000010000000000000BRLASCCTF003148
012024020512LFTT11      010FII LOFT II CI  EA       R$  000000000305000000000030510000000003050000000000305000000000030510000000003050000000000305100008000000000000000110000000000000335550000000000000009999123100000010000000000000BRLFTTCTF004130
012024020512LGCP11      010FII LGCP INTCI  ER       R$  000000000892500000000089610000000008881000000000891900000000089610000000008961000000000897500532000000000000003916000000000034927828000000000000009999123100000010000000000000BRLGCPCTF006152
012024020512LIFE11      010FII LIFE    CI  ER       R$  000000000100200000000010090000000000995000000000100000000000010030000000001003000000000100600535000000000000009567000000000009573384000000000000009999123100000010000000000000BRLIFECTF017125
012024020512ASMT11      010FII ASA MET CI           R$  000000000639900000000063990000000006200000000000629100000000062000000000006001000000000621000005000000000000000007000000000000044043000000000000009999123100000010000000000000BRASMTCTF005107
012024020512ATSA11      010FII HATRIUM CI           R$  000000000564800000000056480000000005648000000000564800000000056480000000005400000000000564900001000000000000000002000000000000011296000000000000009999123100000010000000000000BRATSACTF000143
012024020512EQIR11      010FII EQI RECECI           R$  000000000094200000000009420000000000930000000000093300000000009300000000000929000000000093402256000000000000082420000000000076938753000000000000009999123100000010000000000000BREQIRCTF003128
012024020512IDFI11      010FII UNIDADESCI  ERA      R$  000000000180100000000018490000000001800000000000181400000000018490000000001808000000000184900024000000000000000803000000000001456744000000000000009999123100000010000000000000BRIDFICTF007128
012024020512IDGR11      010FII UNID II CI  ERA      R$  000000000150000000000015000000000001500000000000150000000000015000000000001196000000000150000005000000000000000050000000000000075000000000000000009999123100000010000000000000BRIDGRCTF006123
012024020512KNCR11      010FII KINEA RICI  ER       R$  000000001022000000000102200000000010146000000001019300000000101460000000010146000000001015117085000000000000100560000000001025090713000000000000009999123100000010000000000000BRKNCRCTF000235
012024020512KNHF11      010FII KINEA HFCI  ER       R$  000000001036000000000103720000000010340000000001035800000000103670000000010366000000001036700416000000000000006586000000000068219064000000000000009999123100000010000000000000BRKNHFCTF004107
012024020512KNHY11      010FII KINEA HYCI  ER       R$  000000001049700000000106080000000010459000000001056500000000105630000000010563000000001056804854000000000000038009000000000401581290000000000000009999123100000010000000000000BRKNHYCTF005167
012024020512KNIP11      010FII KINEA IPCI  ER       R$  000000000950100000000095620000000009494000000000953200000000095360000000009536000000000954209342000000000000074531000000000710486123000000000000009999123100000010000000000000BRKNIPCTF001189
012024020512KNRE11      010FII KII REALCI           R$  000000000004000000000000420000000000039000000000004000000000000400000000000040000000000004100044000000000000036819000000000001476528000000000000009999123100000010000000000000BRKNRECTF006129
012024020512KNRI11      010FII KINEA   CI  ER       R$  000000001617500000000161850000000016141000000001616600000000161800000000016177000000001618003235000000000000019887000000000321509004000000000000009999123100000010000000000000BRKNRICTF007259
012024020512KNSC11      010FII KINEA SCCI  ER       R$  000000000089800000000009010000000000895000000000089800000000008990000000000899000000000090014354000000000000229455000000000206251806000000000000009999123100000010000000000000BRKNSCCTF008143
012024020512KNUQ11      010FII KINEA UNCI  ER       R$  000000001047600000000104770000000010309000000001041700000000104730000000010403000000001047300220000000000000004147000000000043199637000000000000009999123100000010000000000000BRKNUQCTF004108
012024020512KORE11      010FII KORE    CI  ER       R$  000000001100000000000110980000000010921000000001100700000000109420000000010943000000001095501584000000000000013258000000000145935136000000000000009999123100000010000000000000BRKORECTF012102
012024020512EDFO11      010FII OURINVESCI  ER       R$  000000001969600000000199900000000019696000000001997600000000199900000000018735000000001998400005000000000000000022000000000000439472000000000000009999123100000010000000000000BREDFOCTF004319
012024020512EDGA11      010FII GALERIA CI  ER       R$  000000000211000000000021300000000002084000000000210800000000021100000000002087000000000211900049000000000000004001000000000008434209000000000000009999123100000010000000000000BREDGACTF001237
