00COTAHIST.2024BOVESPA 20240809                                                                                                                                                                                                                      
012024080902BRFS3       010BRF SA      ON      NM   R$  000000000215400000000022090000000002154000000000218800000000021930000000002191000000000219517126000000000004444500000000009726132400000000000000009999123100000010000000000000BRBRFSACNOR8122
012024080902CSNA3       010SID NACIONALON           R$  000000000114900000000011740000000001142000000000116200000000011690000000001168000000000116910086000000000005200100000000006044126000000000000000009999123100000010000000000000BRCSNAACNOR6261
012024080902CSRN3       010COSERN      ON           R$  000000000161400000000016400000000001600000000000162300000000016000000000001580000000000163800012000000000000002300000000000003732900000000000000009999123100000010000000000000BRCSRNACNOR0194
012024080902CSRN6       010COSERN      PNB          R$  000000000170000000000017000000000001666000000000168800000000016660000000001666000000000169500002000000000000000300000000000000506600000000000000009999123100000010000000000000BRCSRNACNPB1195
012024080902CSUD3       010CSU DIGITAL ON      NM   R$  000000000189500000000019010000000001850000000000186800000000018800000000001880000000000188200270000000000000055700000000000104048500000000000000009999123100000010000000000000BRCSUDACNOR5110
012024080902CTKA4       010KARSTEN     PN           R$  000000000170000000000017060000000001545000000000163000000000016350000000001635000000000164000024000000000000005600000000000009128700000000000000009999123100000010000000000000BRCTKAACNPR7043
012024080902HBOR3       010HELBOR      ON      NM   R$  000000000022900000000002380000000000228000000000023300000000002330000000000233000000000023400373000000000000376800000000000087873600000000000000009999123100000010000000000000BRHBORACNOR3118
012024080902CMIN3       010CSNMINERACAOON      N2   R$  000000000048300000000004910000000000481000000000048600000000004910000000000490000000000049110279000000000004733000000000002302857400000000000000009999123100000010000000000000BRCMINACNOR2111
012024080902COCE5       010COELCE      PNA          R$  000000000314000000000032510000000003140000000000320900000000031900000000003190000000000324900035000000000000005100000000000016370900000000000000009999123100000010000000000000BRCOCEACNPA3147
012024080902COGN3       010COGNA ON    ON      NM   R$  000000000015500000000001580000000000151000000000015300000000001520000000000152000000000015314284000000000046924300000000007210735900000000000000009999123100000010000000000000BRCOGNACNOR2104
012024080902EZTC3       010EZTEC       ON  ED  NM   R$  000000000137500000000014220000000001375000000000140300000000014180000000001416000000000142004795000000000001362800000000001912230700000000000000009999123100000010000000000000BREZTCACNOR0126
012024080902JALL3       010JALLESMACHADON      NM   R$  000000000069300000000007110000000000687000000000070100000000007040000000000704000000000070701873000000000000480000000000000336516500000000000000009999123100000010000000000000BRJALLACNOR0106
012024080902JBSS3       010JBS         ON      NM   R$  000000000330000000000033480000000003281000000000331600000000033310000000003324000000000333216813000000000003964200000000013145619700000000000000009999123100000010000000000000BRJBSSACNOR8121
012024080902ALPA3       010ALPARGATAS  ON      N1   R$  000000000081000000000008130000000000800000000000081000000000008000000000000800000000000081500006000000000000000700000000000000567000000000000000009999123100000010000000000000BRALPAACNOR0231
012024080902ALPA4       010ALPARGATAS  PN      N1   R$  000000000088000000000008860000000000832000000000084300000000008350000000000835000000000083611248000000000007241300000000006110050100000000000000009999123100000010000000000000BRALPAACNPR7232
012024080902ALPK3       010ESTAPAR     ON      NM   R$  000000000039200000000004000000000000377000000000038500000000003970000000000397000000000039800499000000000000164600000000000063525700000000000000009999123100000010000000000000BRALPKACNOR9101
012024080902ALUP11      010ALUPAR      UNT     N2   R$  000000000317300000000031860000000003102000000000314400000000031360000000003136000000000315405327000000000001028000000000003232806800000000000000009999123100000010000000000000BRALUPCDAM15119
012024080902ALUP3       010ALUPAR      ON      N2   R$  000000000107300000000010940000000001066000000000107600000000010890000000001076000000000109000039000000000000005100000000000005489100000000000000009999123100000010000000000000BRALUPACNOR8119
012024080902ALUP4       010ALUPAR      PN      N2   R$  000000000103600000000010450000000001014000000000103300000000010320000000001031000000000103500054000000000000009100000000000009404300000000000000009999123100000010000000000000BRALUPACNPR5119
012024080902AMAR3       010LOJAS MARISAON      NM   R$  000000000013800000000001390000000000135000000000013600000000001350000000000134000000000013501022000000000000636600000000000086900300000000000000009999123100000010000000000000BRAMARACNOR4115
012024080902AMBP3       010AMBIPAR     ON      NM   R$  000000000811400000000097350000000007932000000000910100000000097350000000009700000000000973510846000000000003020400000000027491018000000000000000009999123100000010000000000000BRAMBPACNOR6103
012024080902AZZA3       010AZZAS 2154  ON      NM   R$  000000000516000000000054520000000005158000000000532900000000053910000000005381000000000539112309000000000003482000000000018557240300000000000000009999123100000010000000000000BRAZZAACNOR9100
012024080902IGTI11      010IGUATEMI S.AUNT     N1   R$  000000000222200000000022880000000002221000000000226400000000022880000000002272000000000228810559000000000003311100000000007499089600000000000000009999123100000010000000000000BRIGTICDAM16106
012024080902IGTI3       010IGUATEMI S.AON      N1   R$  000000000027500000000002850000000000275000000000027800000000002850000000000278000000000028500088000000000000044600000000000012431000000000000000009999123100000010000000000000BRIGTIACNOR8106
012024080902IGTI4       010IGUATEMI S.APN      N1   R$  000000000099800000000009980000000000998000000000099800000000009980000000000865000000000103100001000000000000000200000000000000199600000000000000009999123100000010000000000000BRIGTIACNPR5106
012024080902INEP3       010INEPAR      ON           R$  000000000019300000000001970000000000191000000000019200000000001940000000000191000000000019400046000000000000015900000000000003059200000000000000009999123100000010000000000000BRINEPACNOR1143
012024080902INEP4       010INEPAR      PN           R$  000000000019200000000001920000000000190000000000019100000000001920000000000188000000000019200011000000000000003500000000000000671200000000000000009999123100000010000000000000BRINEPACNPR8143
012024080902INTB3       010INTELBRAS   ON  ED  NM   R$  000000000214200000000022100000000002131000000000216700000000021520000000002151000000000216604588000000000000885000000000001917826400000000000000009999123100000010000000000000BRINTBACNOR9112
012024080902CAMB3       010CAMBUCI     ON           R$  000000000119200000000011950000000001161000000000118500000000011950000000001184000000000119700115000000000000033100000000000039237200000000000000009999123100000010000000000000BRCAMBACNOR4130
012024080902CAML3       010CAMIL       ON      NM   R$  000000000095200000000009810000000000952000000000097000000000009800000000000973000000000098002096000000000000520300000000000505184100000000000000009999123100000010000000000000BRCAMLACNOR3128
012024080902CASH3       010MELIUZ      ON      NM   R$  000000000058100000000006480000000000581000000000062100000000006370000000000635000000000063706650000000000004764600000000002961892500000000000000009999123100000010000000000000BRCASHACNOR8106
012024080902CBAV3       010CBA         ON      NM   R$  000000000047200000000004800000000000462000000000046800000000004660000000000466000000000046805539000000000002440700000000001142779600000000000000009999123100000010000000000000BRCBAVACNOR5104
012024080902CCRO3       010CCR SA      ON      NM   R$  000000000131800000000013300000000001306000000000132000000000013230000000001317000000000132411082000000000004717300000000006228648700000000000000009999123100000010000000000000BRCCROACNOR2145
012024080902KRSA3       010KORA SAUDE  ON      NM   R$  000000000007500000000000760000000000072000000000007300000000000730000000000072000000000007300191000000000000545900000000000040255500000000000000009999123100000010000000000000BRKRSAACNOR0100
012024080902DESK3       010DESKTOP     ON      NM   R$  000000000163800000000016900000000001630000000000166200000000016760000000001662000000000167700646000000000000165300000000000274780900000000000000009999123100000010000000000000BRDESKACNOR2104
012024080902DEXP3       010DEXXOS PAR  ON      N1   R$  000000000100500000000010280000000000981000000000100400000000010260000000001017000000000102600670000000000000265300000000000266390400000000000000009999123100000010000000000000BRDEXPACNOR1105
012024080902DEXP4       010DEXXOS PAR  PN      N1   R$  000000000103200000000010320000000000990000000000100100000000010090000000001001000000000100900051000000000000014200000000000014224600000000000000009999123100000010000000000000BRDEXPACNPR8105
012024080902DIRR3       010DIRECIONAL  ON      NM   R$  000000000280100000000029030000000002801000000000286800000000028870000000002885000000000289010005000000000001764900000000005062123700000000000000009999123100000010000000000000BRDIRRACNOR0118
012024080902DMVF3       010D1000VFARMA ON      NM   R$  000000000073700000000007480000000000723000000000073500000000007440000000000739000000000074400775000000000000131700000000000096900700000000000000009999123100000010000000000000BRDMVFACNOR9100
012024080902DOTZ3       010DOTZ SA     ON      NM   R$  000000000063800000000006540000000000617000000000063400000000006500000000000619000000000065000061000000000000013900000000000008822000000000000000009999123100000010000000000000BRDOTZACNOR7101
012024080902DXCO3       010DEXCO       ON      NM   R$  000000000078500000000008130000000000769000000000079400000000008050000000000804000000000080514552000000000006679000000000005305816900000000000000009999123100000010000000000000BRDXCOACNOR8105
012024080902EQPA3       010EQTL PARA   ON           R$  000000000069400000000007090000000000693000000000070200000000007090000000000696000000000070900018000000000000002400000000000001685200000000000000009999123100000010000000000000BREQPAACNOR1111
012024080902EQTL3       010EQUATORIAL  ON      NM   R$  000000000335900000000034740000000003359000000000343800000000034660000000003459000000000346726167000000000009810600000000033733377400000000000000009999123100000010000000000000BREQTLACNOR0130
012024080902ESPA3       010ESPACOLASER ON      NM   R$  000000000010800000000001080000000000099000000000010200000000001030000000000102000000000010300558000000000001221900000000000124944700000000000000009999123100000010000000000000BRESPAACNOR7103
012024080902ESTR4       010ESTRELA     PN           R$  000000000021100000000002110000000000211000000000021100000000002110000000000211000000000021400001000000000000003900000000000000822900000000000000009999123100000010000000000000BRESTRACNPR0144
012024080902ENEV3       010ENEVA       ON      NM   R$  000000000131500000000013260000000001306000000000131700000000013160000000001315000000000131913132000000000004883400000000006434343100000000000000009999123100000010000000000000BRENEVACNOR8106
012024080902ENGI11      010ENERGISA    UNT     N2   R$  000000000464900000000046940000000004606000000000466400000000046580000000004658000000000466712293000000000008187100000000038189446200000000000000009999123100000010000000000000BRENGICDAM16135
012024080902ENGI3       010ENERGISA    ON      N2   R$  000000000139600000000014080000000001393000000000139700000000013930000000001371000000000139300042000000000000010000000000000013977400000000000000009999123100000010000000000000BRENGIACNOR0145
012024080902ENGI4       010ENERGISA    PN      N2   R$  000000000080000000000008300000000000800000000000081600000000008250000000000816000000000082500065000000000000019900000000000016243000000000000000009999123100000010000000000000BRENGIACNPR7141
012024080902ENJU3       010ENJOEI      ON      NM   R$  000000000017800000000001870000000000175000000000018000000000001870000000000186000000000018700875000000000000966800000000000174857600000000000000009999123100000010000000000000BRENJUACNOR9100
012024080902ENMT3       010ENERGISA MT ON           R$  000000000780100000000083700000000007801000000000788200000000083700000000000000000000000845000003000000000000000700000000000005517600000000000000009999123100000010000000000000BRENMTACNOR5121
012024080902EPAR3       010EMBPAR S/A  ON           R$  000000000059500000000006010000000000590000000000059200000000005900000000000591000000000059500009000000000000007700000000000004563000000000000000009999123100000010000000000000BREPARACNOR9105
012024080902JSLG3       010JSL         ON      NM   R$  000000000088600000000009110000000000870000000000089000000000008980000000000897000000000089802467000000000000890600000000000792697600000000000000009999123100000010000000000000BRJSLGACNOR2121
012024080902KEPL3       010KEPLER WEBERON      NM   R$  000000000111800000000011610000000001115000000000114700000000011500000000001150000000000115504944000000000001542400000000001770650700000000000000009999123100000010000000000000BRKEPLACNOR1063
012024080902BMGB4       010BANCO BMG   PN      N1   R$  000000000035000000000003570000000000350000000000035300000000003550000000000353000000000035500649000000000000459100000000000162209000000000000000009999123100000010000000000000BRBMGBACNPR0110
012024080902BMKS3       010BIC MONARK  ON           R$  000000003150000000000315000000000031499000000003149900000000314990000000031499000000003150000038000000000000000133000000000004189482000000000000009999123100000010000000000000BRBMKSACNOR9166
012024080902BMOB3       010BEMOBI TECH ON      NM   R$  000000000148700000000015650000000001487000000000153900000000015650000000001559000000000156602370000000000000690100000000001062631400000000000000009999123100000010000000000000BRBMOBACNOR7103
012024080902BOBR4       010BOMBRIL     PN           R$  000000000019900000000001990000000000195000000000019500000000001950000000000195000000000019800027000000000000005100000000000000997600000000000000009999123100000010000000000000BRBOBRACNPR3128
012024080902KLBN11      010KLABIN S/A  UNT ED  N2   R$  000000000208900000000020990000000002066000000000208300000000020880000000002087000000000209212165000000000003432800000000007153030000000000000000009999123100000010000000000000BRKLBNCDAM18143
012024080902KLBN3       010KLABIN S/A  ON  ED  N2   R$  000000000042400000000004240000000000415000000000041800000000004190000000000419000000000042200458000000000000167700000000000070160900000000000000009999123100000010000000000000BRKLBNACNOR2171
012024080902KLBN4       010KLABIN S/A  PN  ED  N2   R$  000000000041800000000004190000000000413000000000041600000000004190000000000418000000000041901431000000000001081500000000000450233400000000000000009999123100000010000000000000BRKLBNACNPR9171
012024080902ASAI3       010ASSAI       ON      NM   R$  000000000104500000000010460000000000997000000000102100000000010270000000001026000000000102746582000000000024885400000000025422612000000000000000009999123100000010000000000000BRASAIACNOR0106
012024080902ATOM3       010ATOMPAR     ON           R$  000000000019500000000001960000000000194000000000019400000000001950000000000194000000000019600007000000000000002300000000000000446600000000000000009999123100000010000000000000BRATOMACNOR1106
012024080902MTRE3       010MITRE REALTYON      NM   R$  000000000042100000000004290000000000387000000000040400000000004000000000000400000000000040202274000000000001297100000000000524367000000000000000009999123100000010000000000000BRMTREACNOR6113
012024080902MTSA4       010METISA      PN           R$  000000000420500000000042390000000004125000000000417200000000042390000000004174000000000424000046000000000000011100000000000046311100000000000000009999123100000010000000000000BRMTSAACNPR9072
012024080902MULT3       010MULTIPLAN   ON      N2   R$  000000000259600000000026300000000002560000000000261100000000026300000000002623000000000263012537000000000003440000000000008983192100000000000000009999123100000010000000000000BRMULTACNOR5139
012024080902MWET4       010WETZEL S/A  PN           R$  000000000092900000000009340000000000929000000000093100000000009340000000000857000000000093000002000000000000000200000000000000186300000000000000009999123100000010000000000000BRMWETACNPR3118
012024080902RSUL4       010RIOSULENSE  PN           R$  000000000605000000000061990000000006050000000000613700000000061990000000006056000000000620000009000000000000001200000000000007364600000000000000009999123100000010000000000000BRRSULACNPR3114
012024080902SANB4       010SANTANDER BRPN           R$  000000000148000000000015080000000001479000000000149500000000014950000000001495000000000150500515000000000000074700000000000111731700000000000000009999123100000010000000000000BRSANBACNPR5172
012024080902SMFT3       010SMART FIT   ON      NM   R$  000000000227800000000023190000000002267000000000229300000000022790000000002278000000000229911568000000000003321800000000007618729700000000000000009999123100000010000000000000BRSMFTACNOR1112
012024080902SMTO3       010SAO MARTINHOON      NM   R$  000000000288300000000029750000000002872000000000292100000000029220000000002920000000000292607473000000000001385500000000004047707000000000000000009999123100000010000000000000BRSMTOACNOR3127
012024080902SNSY3       010SANSUY      ON           R$  000000000127000000000012790000000001270000000000127800000000012790000000001230000000000126000002000000000000001500000000000001917600000000000000009999123100000010000000000000BRSNSYACNOR2113
012024080902SNSY5       010SANSUY      PNA          R$  000000000056200000000005680000000000540000000000055200000000005400000000000540000000000056600037000000000000016200000000000008950200000000000000009999123100000010000000000000BRSNSYACNPA5111
012024080902SOJA3       010BOA SAFRA   ON      NM   R$  000000000142800000000014410000000001351000000000139400000000013920000000001390000000000139203750000000000000945200000000001318275200000000000000009999123100000010000000000000BRSOJAACNOR9105
012024080902BRIT3       010BRISANET    ON      NM   R$  000000000039100000000003990000000000388000000000039300000000003980000000000394000000000039900566000000000000268800000000000105837600000000000000009999123100000010000000000000BRBRITACNOR0103
012024080902BRKM3       010BRASKEM     ON      N1   R$  000000000174100000000018000000000001705000000000174700000000017720000000001771000000000177200070000000000000010900000000000019044100000000000000009999123100000010000000000000BRBRKMACNOR1119
012024080902BRKM5       010BRASKEM     PNA     N1   R$  000000000172500000000017340000000001672000000000170400000000017220000000001720000000000172408380000000000002743900000000004677520700000000000000009999123100000010000000000000BRBRKMACNPA4121
012024080902CURY3       010CURY S/A    ON      NM   R$  000000000226600000000023520000000002260000000000231300000000023310000000002324000000000233207420000000000001410600000000003263922000000000000000009999123100000010000000000000BRCURYACNOR3109
012024080902CVCB3       010CVC BRASIL  ON      NM   R$  000000000018600000000001920000000000184000000000018800000000001910000000000190000000000019106217000000000016241900000000003057470300000000000000009999123100000010000000000000BRCVCBACNOR1116
012024080902DASA3       010DASA        ON      NM   R$  000000000029100000000003030000000000281000000000029400000000002980000000000298000000000029902129000000000001161500000000000342301800000000000000009999123100000010000000000000BRDASAACNOR1122
012024080902EUCA3       010EUCATEX     ON      N1   R$  000000000160000000000016000000000001588000000000159400000000015880000000001560000000000172900002000000000000000200000000000000318800000000000000009999123100000010000000000000BREUCAACNOR1157
012024080902EUCA4       010EUCATEX     PN      N1   R$  000000000150000000000015500000000001500000000000152300000000015440000000001535000000000154400222000000000000036600000000000055757100000000000000009999123100000010000000000000BREUCAACNPR8044
012024080902EVEN3       010EVEN        ON      NM   R$  000000000063000000000006570000000000630000000000064600000000006480000000000648000000000064903130000000000000784900000000000507705700000000000000009999123100000010000000000000BREVENACNOR8119
012024080902IFCM3       010INFRACOMM   ON      NM   R$  000000000003600000000000400000000000035000000000003700000000000370000000000036000000000003704223000000000015600400000000000579092200000000000000009999123100000010000000000000BRIFCMACNOR8101
012024080902B3SA3       010B3          ON      NM   R$  000000000117100000000012130000000001161000000000118900000000012020000000001201000000000120356488000000000057151900000000067965247400000000000000009999123100000010000000000000BRB3SAACNOR6133
012024080902WHRL3       010WHIRLPOOL   ON           R$  000000000043600000000004580000000000436000000000045100000000004520000000000436000000000045100009000000000000001000000000000000451600000000000000009999123100000010000000000000BRWHRLACNOR5128
012024080902WHRL4       010WHIRLPOOL   PN           R$  000000000043900000000004470000000000437000000000044300000000004470000000000443000000000044800015000000000000003300000000000001465000000000000000009999123100000010000000000000BRWHRLACNPR2128
012024080902WIZC3       010WIZ CO      ON      NM   R$  000000000060500000000006050000000000590000000000059600000000005990000000000596000000000059901609000000000000451500000000000269350600000000000000009999123100000010000000000000BRWIZCACNOR5102
012024080902WLMM3       010WLM IND COM ON           R$  000000000270000000000027500000000002689000000000271800000000027500000000002000000000000274900004000000000000000400000000000001087400000000000000009999123100000010000000000000BRWLMMACNOR6118
012024080902WLMM4       010WLM IND COM PN           R$  000000000305000000000031200000000003050000000000309800000000031000000000002700000000000310000007000000000000000700000000000002169000000000000000009999123100000010000000000000BRWLMMACNPR3118
012024080902BLAU3       010BLAU        ON      NM   R$  000000000117000000000011730000000001143000000000116200000000011620000000001162000000000116800998000000000000170800000000000198614800000000000000009999123100000010000000000000BRBLAUACNOR8114
012024080902BMEB4       010MERCANTIL   PN      N1   R$  000000000359900000000036600000000003540000000000361400000000036600000000003580000000000366000048000000000000010000000000000036142200000000000000009999123100000010000000000000BRBMEBACNPR5211
012024080902BRAP3       010BRADESPAR   ON      N1   R$  000000000173000000000017410000000001725000000000173300000000017380000000001738000000000174600176000000000000031700000000000054960100000000000000009999123100000010000000000000BRBRAPACNOR5148
012024080902BRAP4       010BRADESPAR   PN      N1   R$  000000000181000000000018100000000001790000000000180000000000018070000000001806000000000180906227000000000001751900000000003154345900000000000000009999123100000010000000000000BRBRAPACNPR2148
012024080902BRBI11      010BR PARTNERS UNT     N2   R$  000000000150000000000015350000000001465000000000150200000000015200000000001500000000000152001502000000000000362500000000000544741900000000000000009999123100000010000000000000BRBRBICDAM10109
012024080902BEES3       010BANESTES    ON  EJ       R$  000000000089700000000008970000000000889000000000089200000000008890000000000889000000000089200113000000000000026500000000000023649000000000000000009999123100000010000000000000BRBEESACNOR9394
012024080902BEES4       010BANESTES    PN  EJ       R$  000000000095100000000009600000000000930000000000094300000000009350000000000934000000000094900053000000000000006700000000000006319400000000000000009999123100000010000000000000BRBEESACNPR6319
012024080902ELET6       010ELETROBRAS  PNB     N1   R$  000000000432400000000044420000000004304000000000440400000000044160000000004414000000000442310524000000000002283800000000010058775800000000000000009999123100000010000000000000BRELETACNPB7077
012024080902GGPS3       010GPS         ON      NM   R$  000000000183900000000018920000000001831000000000186700000000018670000000001867000000000188205127000000000001758000000000003282461300000000000000009999123100000010000000000000BRGGPSACNOR9103
012024080902GMAT3       010GRUPO MATEUSON      NM   R$  000000000076900000000007970000000000769000000000079000000000007940000000000793000000000079512142000000000004354900000000003441446300000000000000009999123100000010000000000000BRGMATACNOR7102
012024080902ITUB3       010ITAUUNIBANCOON  EJ  N1   R$  000000000292400000000029710000000002905000000000295200000000029640000000002964000000000296901801000000000000385000000000001136662000000000000000009999123100000010000000000000BRITUBACNOR4339
012024080902ITUB4       010ITAUUNIBANCOPN  EJ  N1   R$  000000000338000000000034560000000003375000000000343100000000034560000000003455000000000345648941000000000024139400000000082842697400000000000000009999123100000010000000000000BRITUBACNPR1339
012024080902AALR3       010ALLIAR      ON      NM   R$  000000000101300000000010590000000001012000000000103300000000010590000000001052000000000105900251000000000000052200000000000053928700000000000000009999123100000010000000000000BRAALRACNOR6102
012024080902ABCB4       010ABC BRASIL  PN      N2   R$  000000000222500000000023320000000002218000000000227900000000023130000000002313000000000231803678000000000000910100000000002074262100000000000000009999123100000010000000000000BRABCBACNPR4146
012024080902ABEV3       010AMBEV S/A   ON           R$  000000000124400000000012480000000001231000000000124000000000012450000000001245000000000124624269000000000019113700000000023705092400000000000000009999123100000010000000000000BRABEVACNOR1128
012024080902BBSE3       010BBSEGURIDADEON      NM   R$  000000000361600000000036300000000003573000000000360200000000036160000000003614000000000361616557000000000005082000000000018308874000000000000000009999123100000010000000000000BRBBSEACNOR5124
012024080902CPFE3       010CPFL ENERGIAON      NM   R$  000000000328500000000033400000000003252000000000331000000000033100000000003310000000000332807115000000000001356300000000004490414100000000000000009999123100000010000000000000BRCPFEACNOR0137
012024080902EALT3       010ACO ALTONA  ON           R$  000000000142000000000016990000000001420000000000153400000000015000000000001350000000000155000057000000000000008400000000000012886500000000000000009999123100000010000000000000BREALTACNOR4138
012024080902EALT4       010ACO ALTONA  PN           R$  000000000140900000000017800000000001400000000000154800000000015860000000001550000000000158600605000000000000172400000000000266932700000000000000009999123100000010000000000000BREALTACNPR1138
012024080902ECOR3       010ECORODOVIAS ON      NM   R$  000000000077400000000007900000000000773000000000078300000000007850000000000784000000000078507487000000000002659800000000002083093300000000000000009999123100000010000000000000BRECORACNOR8120
012024080902EGIE3       010ENGIE BRASILON      NM   R$  000000000449700000000045760000000004480000000000454700000000045680000000004563000000000457105843000000000000859000000000003906394000000000000000009999123100000010000000000000BREGIEACNOR9126
012024080902FRAS3       010FRAS-LE     ON      N1   R$  000000000182200000000018580000000001813000000000184100000000018470000000001847000000000184802424000000000000520000000000000957573400000000000000009999123100000010000000000000BRFRASACNOR0160
012024080902FRIO3       010METALFRIO   ON      NM   R$  000000001900000000000192280000000017601000000001884200000000176010000000017600000000001900000005000000000000000600000000000011305700000000000000009999123100000010000000000000BRFRIOACNOR2111
012024080902SANB11      010SANTANDER BRUNT          R$  000000000282100000000028840000000002821000000000286500000000028670000000002864000000000287106162000000000001083700000000003105562500000000000000009999123100000010000000000000BRSANBCDAM13165
012024080902SANB3       010SANTANDER BRON           R$  000000000134100000000013730000000001341000000000136100000000013610000000001359000000000137100342000000000000049900000000000067934600000000000000009999123100000010000000000000BRSANBACNOR8172
012024080902GEPA4       010GER PARANAP PN           R$  000000000260000000000026000000000002600000000000260000000000026000000000002576000000000260000003000000000000000500000000000001300000000000000000009999123100000010000000000000BRGEPAACNPR9160
012024080902GFSA3       010GAFISA      ON  ES  NM   R$  000000000031900000000003210000000000294000000000030400000000003100000000000309000000000031103157000000000004877700000000001483800900000000000000009999123100000010000000000000BRGFSAACNOR3125
012024080902GGBR3       010GERDAU      ON      N1   R$  000000000156000000000015800000000001560000000000157000000000015640000000001562000000000156500255000000000000042700000000000067058100000000000000009999123100000010000000000000BRGGBRACNOR1192
012024080902GGBR4       010GERDAU      PN      N1   R$  000000000175400000000017620000000001744000000000175000000000017510000000001751000000000175223113000000000010482000000000018352208800000000000000009999123100000010000000000000BRGGBRACNPR8192
012024080902ITSA3       010ITAUSA      ON      N1   R$  000000000101600000000010340000000001002000000000102300000000010310000000001031000000000103300484000000000000132200000000000135322200000000000000009999123100000010000000000000BRITSAACNOR0441
012024080902ITSA4       010ITAUSA      PN      N1   R$  000000000101300000000010350000000001010000000000102600000000010350000000001034000000000103524516000000000024543000000000025191733400000000000000009999123100000010000000000000BRITSAACNPR7441
012024080902MRSA6B      010MRS LOGIST  PNB     MB   R$  000000000329900000000032990000000003299000000000329900000000032990000000003000000000000339900001000000000000000100000000000000329900000000000000009999123100000010000000000000BRMRSAACNPB7125
012024080902MRVE3       010MRV         ON      NM   R$  000000000069700000000007230000000000684000000000070800000000007180000000000718000000000071917905000000000018507200000000013111207800000000000000009999123100000010000000000000BRMRVEACNOR2127
012024080902SLCE3       010SLC AGRICOLAON      NM   R$  000000000181300000000018520000000001805000000000183700000000018370000000001837000000000184508828000000000002471300000000004542109500000000000000009999123100000010000000000000BRSLCEACNOR2125
012024080902VALE3       010VALE        ON  EJ  NM   R$  000000000571200000000057160000000005650000000000568200000000057060000000005705000000000570657004000000000021986700000000124945779000000000000000009999123100000010000000000000BRVALEACNOR0211
012024080902MILS3       010MILLS       ON      NM   R$  000000000112800000000011400000000001110000000000112500000000011200000000001119000000000112002640000000000000525000000000000591086700000000000000009999123100000010000000000000BRMILSACNOR2127
012024080902MLAS3       010MULTILASER  ON      NM   R$  000000000019800000000002150000000000196000000000020700000000002120000000000210000000000021204906000000000004383700000000000910293400000000000000009999123100000010000000000000BRMLASACNOR9101
012024080902MOVI3       010MOVIDA      ON      NM   R$  000000000073000000000007500000000000718000000000073700000000007500000000000748000000000075010001000000000006807800000000005021738500000000000000009999123100000010000000000000BRMOVIACNOR0122
012024080902VITT3       010VITTIA      ON      NM   R$  000000000060000000000006170000000000598000000000060500000000006110000000000606000000000061100644000000000000200600000000000121417700000000000000009999123100000010000000000000BRVITTACNOR4107
012024080902VIVA3       010VIVARA S.A. ON      NM   R$  000000000253500000000026730000000002535000000000263000000000026470000000002646000000000264735334000000000010141900000000026673391200000000000000009999123100000010000000000000BRVIVAACNOR0107
012024080902VIVR3       010VIVER       ON      NM   R$  000000000026000000000002600000000000252000000000025600000000002560000000000255000000000025800098000000000000033400000000000008559900000000000000009999123100000010000000000000BRVIVRACNOR4123
012024080902VIVT3       010TELEF BRASILON           R$  000000000509900000000051110000000005025000000000506400000000050760000000005064000000000508008852000000000001479500000000007492386900000000000000009999123100000010000000000000BRVIVTACNOR0183
012024080902JHSF3       010JHSF PART   ON  ED  NM   R$  000000000041000000000004210000000000408000000000041600000000004170000000000417000000000041803924000000000004558400000000001897734300000000000000009999123100000010000000000000BRJHSFACNOR2138
012024080902PETR4       010PETROBRAS   PN      N2   R$  000000000361300000000036950000000003558000000000363600000000036510000000003650000000000365189229000000000066077900000000240288806600000000000000009999123100000010000000000000BRPETRACNPR6213
012024080902PETZ3       010PETZ        ON      NM   R$  000000000039700000000004080000000000385000000000039800000000004030000000000402000000000040311318000000000007619100000000003035243600000000000000009999123100000010000000000000BRPETZACNOR2110
012024080902RCSL3       010RECRUSUL    ON           R$  000000000030500000000003130000000000297000000000030200000000003020000000000302000000000030302203000000000000717600000000000217277500000000000000009999123100000010000000000000BRRCSLACNOR4134
012024080902RCSL4       010RECRUSUL    PN           R$  000000000009000000000000900000000000089000000000008900000000000900000000000089000000000009000108000000000000082900000000000007406900000000000000009999123100000010000000000000BRRCSLACNPR1134
012024080902RDNI3       010RNI         ON      NM   R$  000000000030800000000003100000000000304000000000030500000000003040000000000304000000000030900019000000000000005800000000000001773200000000000000009999123100000010000000000000BRRDNIACNOR9116
012024080902RDOR3       010REDE D OR   ON      NM   R$  000000000295500000000029850000000002932000000000296100000000029680000000002967000000000297118148000000000003608400000000010686504000000000000000009999123100000010000000000000BRRDORACNOR8113
012024080902RECV3       010PETRORECSA  ON      NM   R$  000000000209300000000021670000000002078000000000213300000000021310000000002128000000000213210921000000000003151000000000006722644700000000000000009999123100000010000000000000BRRECVACNOR3107
012024080902REDE3       010REDE ENERGIAON           R$  000000000068500000000006850000000000684000000000068400000000006850000000000684000000000068900005000000000000000500000000000000342400000000000000009999123100000010000000000000BRREDEACNOR7128
012024080902RENT3       010LOCALIZA    ON      NM   R$  000000000491900000000049550000000004847000000000490200000000048850000000004885000000000490022257000000000005876700000000028807724000000000000000009999123100000010000000000000BRRENTACNOR4196
012024080902TOTS3       010TOTVS       ON  EJ  NM   R$  000000000285500000000029670000000002840000000000292400000000029620000000002956000000000296319339000000000004163900000000012178808500000000000000009999123100000010000000000000BRTOTSACNOR8145
012024080902TPIS3       010TRIUNFO PARTON      NM   R$  000000000039300000000004150000000000393000000000040200000000004040000000000404000000000040800238000000000000106900000000000043034100000000000000009999123100000010000000000000BRTPISACNOR8118
012024080902TRAD3       010TC          ON      NM   R$  000000000035500000000003750000000000354000000000036400000000003690000000000369000000000037900173000000000000068900000000000025105100000000000000009999123100000010000000000000BRTRADACNOR3102
012024080902TRIS3       010TRISUL      ON      NM   R$  000000000047200000000004830000000000471000000000047800000000004790000000000478000000000048001602000000000000743300000000000355445900000000000000009999123100000010000000000000BRTRISACNOR4118
012024080902TRPL3       010TRAN PAULISTON      N1   R$  000000000320700000000032310000000003204000000000321000000000032070000000003207000000000321900013000000000000002100000000000006742700000000000000009999123100000010000000000000BRTRPLACNOR4185
012024080902TRPL4       010TRAN PAULISTPN      N1   R$  000000000243000000000024430000000002408000000000242400000000024430000000002442000000000244316156000000000005068300000000012289147600000000000000009999123100000010000000000000BRTRPLACNPR1185
012024080902VAMO3       010VAMOS       ON      NM   R$  000000000083800000000008620000000000822000000000084300000000008480000000000848000000000085017094000000000007501400000000006329741500000000000000009999123100000010000000000000BRVAMOACNOR7105
012024080902VBBR3       010VIBRA       ON      NM   R$  000000000242900000000024900000000002404000000000246600000000024750000000002471000000000247932123000000000008052600000000019862043600000000000000009999123100000010000000000000BRVBBRACNOR1108
012024080902MDNE3       010MOURA DUBEUXON      NM   R$  000000000147100000000015230000000001465000000000149400000000014930000000001484000000000149305294000000000001191500000000001780837600000000000000009999123100000010000000000000BRMDNEACNOR9100
012024080902MEAL3       010IMC S/A     ON      NM   R$  000000000015100000000001650000000000151000000000016000000000001590000000000158000000000015900584000000000000956100000000000153586400000000000000009999123100000010000000000000BRMEALACNOR9105
012024080902MELK3       010MELNICK     ON      NM   R$  000000000036600000000003660000000000350000000000035600000000003600000000000360000000000036100434000000000000288700000000000102793000000000000000009999123100000010000000000000BRMELKACNOR8111
012024080902HYPE3       010HYPERA      ON      NM   R$  000000000297700000000029840000000002932000000000294900000000029410000000002940000000000295708812000000000002316200000000006830944600000000000000009999123100000010000000000000BRHYPEACNOR0143
012024080902MGEL4       010MANGELS INDLPN           R$  000000000126000000000012600000000001260000000000126000000000012600000000001250000000000129200001000000000000004600000000000005796000000000000000009999123100000010000000000000BRMGELACNPR3147
012024080902MGLU3       010MAGAZ LUIZA ON      NM   R$  000000000129000000000013250000000001221000000000128300000000012960000000001295000000000129643477000000000041143500000000052823016300000000000000009999123100000010000000000000BRMGLUACNOR2124
012024080902PCAR3       010P.ACUCAR-CBDON      NM   R$  000000000031500000000003270000000000308000000000031800000000003130000000000312000000000031314758000000000012687600000000004043265800000000000000009999123100000010000000000000BRPCARACNOR3167
012024080902PDGR3       010PDG REALT   ON  ES  NM   R$  000000000001900000000000200000000000018000000000001800000000000190000000000018000000000001900442000000000004000600000000000075772700000000000000009999123100000010000000000000BRPDGRACNOR8119
012024080902PDTC3       010PADTEC      ON      NM   R$  000000000019000000000001920000000000181000000000018600000000001810000000000181000000000018500088000000000000058800000000000010950800000000000000009999123100000010000000000000BRPDTCACNOR3101
012024080902PETR3       010PETROBRAS   ON      N2   R$  000000000391500000000039790000000003832000000000392300000000039360000000003932000000000393824944000000000008716600000000034201767800000000000000009999123100000010000000000000BRPETRACNOR9205
012024080902RAIZ4       010RAIZEN      PN  ED  N2   R$  000000000031500000000003320000000000315000000000032600000000003290000000000328000000000032919997000000000021070100000000006877170400000000000000009999123100000010000000000000BRRAIZACNPR6111
012024080902RANI3       010IRANI       ON  ED  NM   R$  000000000081600000000008200000000000806000000000081200000000008110000000000811000000000081202427000000000000559800000000000454847100000000000000009999123100000010000000000000BRRANIACNOR5073
012024080902RAPT3       010RANDON PART ON      N1   R$  000000000092600000000009310000000000919000000000092600000000009300000000000925000000000093000124000000000000026500000000000024562200000000000000009999123100000010000000000000BRRAPTACNOR7163
012024080902RAPT4       010RANDON PART PN      N1   R$  000000000112900000000011430000000001104000000000112300000000011180000000001117000000000111908430000000000002400300000000002697060000000000000000009999123100000010000000000000BRRAPTACNPR4163
012024080902ANIM3       010ANIMA       ON      NM   R$  000000000039000000000003990000000000361000000000037700000000003700000000000370000000000037113432000000000017506200000000006606834400000000000000009999123100000010000000000000BRANIMACNOR6108
012024080902APER3       010ALPER S.A.  ON           R$  000000000450800000000045150000000004508000000000451100000000045150000000004460000000000455000002000000000000000200000000000000902300000000000000009999123100000010000000000000BRAPERACNOR9106
012024080902ARML3       010ARMAC       ON      NM   R$  000000000088000000000009070000000000860000000000088400000000008840000000000884000000000088504057000000000000783600000000000693165000000000000000009999123100000010000000000000BRARMLACNOR1112
012024080902TAEE11      010TAESA       UNT     N2   R$  000000000351600000000035390000000003510000000000352600000000035390000000003536000000000354007823000000000001480500000000005221618500000000000000009999123100000010000000000000BRTAEECDAM10147
012024080902TAEE3       010TAESA       ON      N2   R$  000000000116000000000011690000000001159000000000116400000000011690000000001168000000000116900287000000000000052600000000000061251000000000000000009999123100000010000000000000BRTAEEACNOR9147
012024080902TAEE4       010TAESA       PN      N2   R$  000000000117500000000011830000000001175000000000117800000000011820000000001181000000000118200491000000000000134600000000000158645300000000000000009999123100000010000000000000BRTAEEACNPR6147
012024080902TASA3       010TAURUS ARMASON      N2   R$  000000000115400000000011750000000001151000000000116400000000011750000000001166000000000117600043000000000000011800000000000013740000000000000000009999123100000010000000000000BRTASAACNOR7104
012024080902TASA4       010TAURUS ARMASPN      N2   R$  000000000113600000000011650000000001134000000000115200000000011620000000001162000000000116300986000000000000184200000000000212348800000000000000009999123100000010000000000000BRTASAACNPR4104
012024080902TCSA3       010TECNISA     ON      NM   R$  000000000021700000000002170000000000203000000000020800000000002090000000000209000000000021000288000000000000287400000000000059803900000000000000009999123100000010000000000000BRTCSAACNOR3112
012024080902TECN3       010TECHNOS     ON      NM   R$  000000000054400000000005570000000000527000000000054400000000005540000000000552000000000055400271000000000000125700000000000068503600000000000000009999123100000010000000000000BRTECNACNOR6109
012024080902TELB3       010TELEBRAS    ON           R$  000000000139100000000014100000000001390000000000139200000000014100000000001388000000000141600014000000000000002500000000000003482000000000000000009999123100000010000000000000BRTELBACNOR2140
012024080902TELB4       010TELEBRAS    PN           R$  000000000100500000000010140000000001005000000000101000000000010100000000001000000000000101300007000000000000001900000000000001920500000000000000009999123100000010000000000000BRTELBACNPR9140
012024080902TEND3       010TENDA       ON      NM   R$  000000000128400000000013350000000001284000000000131300000000013190000000001318000000000132010585000000000003081300000000004046801100000000000000009999123100000010000000000000BRTENDACNOR4111
012024080902SRNA3       010SERENA      ON      NM   R$  000000000089000000000009100000000000889000000000090000000000009000000000000900000000000090303717000000000001051500000000000946739800000000000000009999123100000010000000000000BRSRNAACNOR4100
012024080902STBP3       010SANTOS BRP  ON      NM   R$  000000000139200000000014460000000001392000000000142800000000014450000000001445000000000144612423000000000003649600000000005214555800000000000000009999123100000010000000000000BRSTBPACNOR3130
012024080902WEST3       010WESTWING    ON      NM   R$  000000000009200000000000920000000000089000000000009000000000000910000000000089000000000009100050000000000000058500000000000005276600000000000000009999123100000010000000000000BRWESTACNOR3100
012024080902TFCO4       010TRACK FIELD PN      N2   R$  000000000118000000000012050000000001162000000000119700000000012040000000001188000000000120401127000000000000210800000000000252366300000000000000009999123100000010000000000000BRTFCOACNPR8114
012024080902TGMA3       010TEGMA       ON  EDJ NM   R$  000000000248000000000025080000000002470000000000248900000000024980000000002489000000000249800848000000000000120500000000000299965200000000000000009999123100000010000000000000BRTGMAACNOR7145
012024080902TIMS3       010TIM         ON      NM   R$  000000000175200000000017630000000001739000000000175200000000017620000000001753000000000176315163000000000004719500000000008271737900000000000000009999123100000010000000000000BRTIMSACNOR5117
012024080902ODPV3       010ODONTOPREV  ON      NM   R$  000000000117600000000011890000000001172000000000117800000000011770000000001175000000000117702969000000000000643900000000000759065100000000000000009999123100000010000000000000BRODPVACNOR4202
012024080902OFSA3       010OUROFINO S/AON      NM   R$  000000000212900000000022150000000002129000000000219100000000022150000000002203000000000221900016000000000000002500000000000005479200000000000000009999123100000010000000000000BROFSAACNOR7118
012024080902QUAL3       010QUALICORP   ON      NM   R$  000000000015900000000001690000000000159000000000016300000000001640000000000163000000000016404471000000000004963200000000000813418200000000000000009999123100000010000000000000BRQUALACNOR6120
012024080902SAPR11      010SANEPAR     UNT     N2   R$  000000000283000000000028690000000002708000000000282000000000028520000000002852000000000286010280000000000002147500000000006057350300000000000000009999123100000010000000000000BRSAPRCDAM13118
012024080902SAPR3       010SANEPAR     ON      N2   R$  000000000052800000000005310000000000507000000000052100000000005300000000000528000000000053001251000000000000414300000000000215867500000000000000009999123100000010000000000000BRSAPRACNOR9159
012024080902SAPR4       010SANEPAR     PN      N2   R$  000000000056700000000005810000000000557000000000057200000000005800000000000578000000000058003887000000000001595500000000000912755600000000000000009999123100000010000000000000BRSAPRACNPR6159
012024080902SBFG3       010GRUPO SBF   ON      NM   R$  000000000163000000000016740000000001607000000000164700000000016430000000001643000000000164509117000000000002458600000000004050991100000000000000009999123100000010000000000000BRSBFGACNOR1103
012024080902SBSP3       010SABESP      ON      NM   R$  000000000955000000000097610000000009425000000000957300000000097330000000009731000000000973440783000000000010410400000000099667092800000000000000009999123100000010000000000000BRSBSPACNOR5161
012024080902SUZB3       010SUZANO S.A. ON      NM   R$  000000000552300000000055690000000005401000000000545300000000054500000000005449000000000545055591000000000017572900000000095831062200000000000000009999123100000010000000000000BRSUZBACNOR0130
012024080902ZAMP3       010ZAMP S.A.   ON           R$  000000000034000000000003430000000000331000000000033900000000003400000000000337000000000034101953000000000000637200000000000216091800000000000000009999123100000010000000000000BRZAMPACNOR5101
012024080902LUPA3       010LUPATECH    ON      NM   R$  000000000016600000000001690000000000166000000000016700000000001690000000000166000000000016900059000000000000043600000000000007283800000000000000009999123100000010000000000000BRLUPAACNOR8112
012024080902GUAR3       010GUARARAPES  ON      NM   R$  000000000082000000000008340000000000794000000000081300000000008100000000000809000000000081605976000000000001825700000000001484705000000000000000009999123100000010000000000000BRGUARACNOR4173
012024080902HAGA3       010HAGA S/A    ON           R$  000000000025200000000002540000000000222000000000024000000000002360000000000236000000000024400117000000000000030700000000000007397300000000000000009999123100000010000000000000BRHAGAACNOR7103
012024080902HAGA4       010HAGA S/A    PN           R$  000000000012000000000001200000000000118000000000011900000000001200000000000118000000000012000014000000000000009700000000000001157900000000000000009999123100000010000000000000BRHAGAACNPR4103
012024080902LVTC3       010WDC NETWORKSON      NM   R$  000000000035700000000004120000000000357000000000038800000000004050000000000405000000000040900106000000000000050900000000000019784100000000000000009999123100000010000000000000BRLVTCACNOR4102
012024080902LWSA3       010LWSA        ON      NM   R$  000000000046600000000004720000000000462000000000046700000000004700000000000469000000000047008924000000000003448500000000001611762400000000000000009999123100000010000000000000BRLWSAACNOR8103
012024080902HAPV3       010HAPVIDA     ON      NM   R$  000000000045500000000004590000000000421000000000044100000000004430000000000442000000000044389442000000000135886500000000060011389200000000000000009999123100000010000000000000BRHAPVACNOR4114
012024080902AERI3       010AERIS       ON      NM   R$  000000000063800000000006700000000000622000000000064100000000006290000000000629000000000063800507000000000000150600000000000096665600000000000000009999123100000010000000000000BRAERIACNOR4102
012024080902AESB3       010AES BRASIL  ON      NM   R$  000000000113200000000011360000000001130000000000113300000000011360000000001134000000000113603398000000000002907300000000003294472500000000000000009999123100000010000000000000BRAESBACNOR7106
012024080902AFLT3       010AFLUENTE T  ON           R$  000000000072000000000007260000000000720000000000072400000000007260000000000712000000000075900003000000000000000300000000000000217200000000000000009999123100000010000000000000BRAFLTACNOR1122
012024080902AGRO3       010BRASILAGRO  ON      NM   R$  000000000258000000000026370000000002580000000000261700000000026130000000002610000000000262501246000000000000154500000000000404392800000000000000009999123100000010000000000000BRAGROACNOR7114
012024080902AGXY3       010AGROGALAXY  ON      NM   R$  000000000014900000000001490000000000143000000000014500000000001460000000000145000000000014600161000000000000071500000000000010402700000000000000009999123100000010000000000000BRAGXYACNOR4103
012024080902MAPT3       010CEMEPE      ON           R$  000000000042000000000004200000000000420000000000042000000000004200000000000422000000000060000002000000000000000200000000000000084000000000000000009999123100000010000000000000BRMAPTACNOR8106
012024080902MAPT4       010CEMEPE      PN           R$  000000000053000000000005590000000000530000000000053900000000005590000000000530000000000060000002000000000000000300000000000000161900000000000000009999123100000010000000000000BRMAPTACNPR5106
012024080902MATD3       010MATER DEI   ON      NM   R$  000000000047600000000004760000000000451000000000045500000000004610000000000458000000000046102621000000000001310000000000000597220500000000000000009999123100000010000000000000BRMATDACNOR4104
012024080902MBLY3       010MOBLY       ON      NM   R$  000000000031000000000003300000000000295000000000031200000000003080000000000308000000000030901582000000000001561700000000000488316200000000000000009999123100000010000000000000BRMBLYACNOR5100
012024080902MDIA3       010M.DIASBRANCOON      NM   R$  000000000291300000000029750000000002907000000000294400000000029530000000002953000000000295403598000000000000735500000000002165587200000000000000009999123100000010000000000000BRMDIAACNOR7135
012024080902MRFG3       010MARFRIG     ON      NM   R$  000000000118800000000012180000000001182000000000120300000000012120000000001212000000000121512376000000000003759700000000004524306200000000000000009999123100000010000000000000BRMRFGACNOR0116
012024080902POMO3       010MARCOPOLO   ON      N2   R$  000000000056300000000005630000000000548000000000055500000000005500000000000550000000000055601096000000000000178900000000000099325100000000000000009999123100000010000000000000BRPOMOACNOR0098
012024080902POMO4       010MARCOPOLO   PN      N2   R$  000000000072700000000007320000000000707000000000071600000000007100000000000710000000000071119253000000000007045700000000005046299300000000000000009999123100000010000000000000BRPOMOACNPR7098
012024080902PORT3       010WILSON SONS ON      NM   R$  000000000162400000000016490000000001605000000000163200000000016330000000001633000000000163601771000000000000360200000000000588037400000000000000009999123100000010000000000000BRPORTACNOR8109
012024080902POSI3       010POSITIVO TECON      NM   R$  000000000070100000000007160000000000696000000000070700000000007080000000000707000000000070804384000000000001444200000000001022437900000000000000009999123100000010000000000000BRPOSIACNOR9116
012024080902PRIO3       010PETRORIO    ON      NM   R$  000000000481000000000049150000000004770000000000483700000000047830000000004782000000000478338096000000000014573600000000070506484700000000000000009999123100000010000000000000BRPRIOACNOR1107
012024080902ROMI3       010ROMI        ON      NM   R$  000000000105300000000010830000000001053000000000107000000000010700000000001070000000000107100939000000000000168500000000000180454800000000000000009999123100000010000000000000BRROMIACNOR8195
012024080902RRRP3       0103R PETROLEUMON      NM   R$  000000000278800000000029490000000002786000000000290400000000029480000000002945000000000294831277000000000010723700000000031142650800000000000000009999123100000010000000000000BRRRRPACNOR5103
012024080902CEAB3       010CEA MODAS   ON      NM   R$  000000000088400000000008840000000000835000000000085600000000008560000000000856000000000085911238000000000006452500000000005526027700000000000000009999123100000010000000000000BRCEABACNOR1102
012024080902CEBR3       010CEB         ON           R$  000000000192400000000019990000000001924000000000195600000000019790000000001945000000000199200019000000000000002400000000000004696000000000000000009999123100000010000000000000BRCEBRACNOR5125
012024080902CEBR5       010CEB         PNA          R$  000000000169500000000017860000000001695000000000170900000000017090000000001692000000000171300024000000000000007300000000000012479900000000000000009999123100000010000000000000BRCEBRACNPA8124
012024080902CEBR6       010CEB         PNB          R$  000000000176100000000018450000000001761000000000179000000000017960000000001772000000000179800028000000000000003500000000000006266500000000000000009999123100000010000000000000BRCEBRACNPB6124
012024080902CEDO3       010CEDRO       ON      N1   R$  000000000261000000000026100000000002610000000000261000000000026100000000000002000000000280000001000000000000000100000000000000261000000000000000009999123100000010000000000000BRCEDOACNOR8096
012024080902CEEB3       010COELBA      ON           R$  000000000390800000000039080000000003881000000000390000000000038810000000003880000000000400600004000000000000000400000000000001560100000000000000009999123100000010000000000000BRCEEBACNOR3199
012024080902CGAS3       010COMGAS      ON           R$  000000001100800000000122000000000011008000000001186800000000122000000000011300000000001236000006000000000000000600000000000007120800000000000000009999123100000010000000000000BRCGASACNOR0163
012024080902CGAS5       010COMGAS      PNA          R$  000000001198900000000126380000000011989000000001224800000000122000000000012002000000001239500074000000000000010700000000000131063800000000000000009999123100000010000000000000BRCGASACNPA3160
012024080902UNIP5       010UNIPAR      PNA          R$  000000000500000000000050200000000004950000000000501200000000049500000000004951000000000502000008000000000000002200000000000011028000000000000000009999123100000010000000000000BRUNIPACNPA0208
012024080902UNIP6       010UNIPAR      PNB          R$  000000000502400000000051000000000004910000000000501000000000050000000000004997000000000500401944000000000000397500000000001991635100000000000000009999123100000010000000000000BRUNIPACNPB8206
012024080902USIM3       010USIMINAS    ON      N1   R$  000000000058000000000005870000000000574000000000058100000000005850000000000585000000000058701062000000000000351500000000000204500000000000000000009999123100000010000000000000BRUSIMACNOR3167
012024080902USIM5       010USIMINAS    PNA     N1   R$  000000000058600000000005960000000000581000000000058900000000005950000000000595000000000059616916000000000012736700000000007505979200000000000000009999123100000010000000000000BRUSIMACNPA6169
012024080902VLID3       010VALID       ON      NM   R$  000000000192400000000020030000000001915000000000196900000000019840000000001977000000000198404628000000000000813200000000001601790300000000000000009999123100000010000000000000BRVLIDACNOR5143
012024080902CGRA3       010GRAZZIOTIN  ON           R$  000000000250200000000025020000000002500000000000250000000000025000000000002505000000000252000009000000000000001700000000000004251500000000000000009999123100000010000000000000BRCGRAACNOR2083
012024080902CGRA4       010GRAZZIOTIN  PN           R$  000000000254600000000025460000000002476000000000249900000000025020000000002502000000000252800055000000000000011000000000000027490100000000000000009999123100000010000000000000BRCGRAACNPR9083
012024080902CIEL3       010CIELO       ON      NM   R$  000000000057900000000005800000000000578000000000057800000000005790000000000579000000000058008132000000000058091800000000033603996400000000000000009999123100000010000000000000BRCIELACNOR3157
012024080902CLSA3       010CLEARSALE   ON      NM   R$  000000000077900000000007910000000000766000000000077800000000007730000000000773000000000077503307000000000000905300000000000704947100000000000000009999123100000010000000000000BRCLSAACNOR0100
012024080902CLSC4       010CELESC      PN      N2   R$  000000000758000000000075800000000007544000000000756900000000075440000000007536000000000757000006000000000000001800000000000013625400000000000000009999123100000010000000000000BRCLSCACNPR3131
012024080902CMIG3       010CEMIG       ON      N1   R$  000000000124200000000012540000000001232000000000124100000000012420000000001241000000000124200591000000000000115900000000000143878800000000000000009999123100000010000000000000BRCMIGACNOR6242
012024080902CMIG4       010CEMIG       PN      N1   R$  000000000107900000000010900000000001068000000000108300000000010860000000001086000000000108719185000000000009629900000000010437265200000000000000009999123100000010000000000000BRCMIGACNPR3243
012024080902VSTE3       010VESTE       ON      NM   R$  000000000139800000000015200000000001367000000000140900000000013820000000001382000000000145800065000000000000013200000000000018607500000000000000009999123100000010000000000000BRVSTEACNOR5103
012024080902VTRU3       010VITRUEDUCA  ON      NM   R$  000000000122000000000012840000000001220000000000124300000000012290000000001229000000000124500190000000000000038000000000000047251800000000000000009999123100000010000000000000BRVTRUACNOR3100
012024080902VULC3       010VULCABRAS   ON      NM   R$  000000000176300000000017990000000001756000000000178800000000017980000000001798000000000179903836000000000000744300000000001331171100000000000000009999123100000010000000000000BRVULCACNOR2159
012024080902VVEO3       010VIVEO       ON      NM   R$  000000000026900000000002780000000000259000000000026700000000002710000000000271000000000027206342000000000003502200000000000938240700000000000000009999123100000010000000000000BRVVEOACNOR0104
012024080902WEGE3       010WEG         ON  ED  NM   R$  000000000497700000000050100000000004869000000000495000000000049700000000004969000000000497528095000000000007694300000000038087436700000000000000009999123100000010000000000000BRWEGEACNOR0224
012024080902PFRM3       010PROFARMA    ON      NM   R$  000000000061700000000006270000000000604000000000061500000000006150000000000610000000000061500630000000000000188500000000000116095700000000000000009999123100000010000000000000BRPFRMACNOR1116
012024080902PGMN3       010PAGUE MENOS ON      NM   R$  000000000029000000000003090000000000287000000000030100000000003020000000000302000000000030306751000000000002188500000000000659015600000000000000009999123100000010000000000000BRPGMNACNOR8103
012024080902PINE3       010PINE        ON      N2   R$  000000000055900000000005940000000000559000000000056200000000005700000000000555000000000059000006000000000000002400000000000001350800000000000000009999123100000010000000000000BRPINEACNOR1150
012024080902PINE4       010PINE        PN      N2   R$  000000000043000000000004310000000000421000000000042500000000004300000000000430000000000043100847000000000000499000000000000212421900000000000000009999123100000010000000000000BRPINEACNPR8150
012024080902PLAS3       010PLASCAR PARTON           R$  000000000053000000000005500000000000530000000000053500000000005500000000000533000000000057000003000000000000000400000000000000214000000000000000009999123100000010000000000000BRPLASACNOR2106
012024080902PLPL3       010PLANOEPLANO ON      NM   R$  000000000125300000000012890000000001229000000000126600000000012680000000001264000000000126905583000000000001457000000000001844923300000000000000009999123100000010000000000000BRPLPLACNOR5104
012024080902CXSE3       010CAIXA SEGURION  ED  NM   R$  000000000140400000000014100000000001342000000000137000000000013900000000001389000000000139017619000000000006834500000000009366683000000000000000009999123100000010000000000000BRCXSEACNOR7107
012024080902ELMD3       010ELETROMIDIA ON      NM   R$  000000000183500000000018860000000001805000000000183800000000018390000000001838000000000183900724000000000000405100000000000744648100000000000000009999123100000010000000000000BRELMDACNOR3101
012024080902EMAE4       010EMAE        PN           R$  000000000416500000000041650000000004102000000000413900000000041650000000004022000000000419700010000000000000001100000000000004552900000000000000009999123100000010000000000000BREMAEACNPR1125
012024080902EMBR3       010EMBRAER     ON      NM   R$  000000000423700000000043260000000004121000000000424500000000043250000000004320000000000432550048000000000010542800000000044757171400000000000000009999123100000010000000000000BREMBRACNOR4191
012024080902HBRE3       010HBR REALTY  ON      NM   R$  000000000052000000000005420000000000516000000000053100000000005400000000000540000000000054101210000000000000481600000000000255943000000000000000009999123100000010000000000000BRHBREACNOR4100
012024080902HBSA3       010HIDROVIAS   ON      NM   R$  000000000037000000000003900000000000370000000000038000000000003800000000000378000000000038003939000000000001780500000000000678001100000000000000009999123100000010000000000000BRHBSAACNOR0100
012024080902PNVL3       010DIMED       ON      NM   R$  000000000105800000000010850000000001026000000000106900000000010780000000001071000000000107802636000000000000504700000000000539631100000000000000009999123100000010000000000000BRPNVLACNOR9207
012024080902TTEN3       0103TENTOS     ON      NM   R$  000000000104500000000010830000000001030000000000106700000000010740000000001071000000000107406437000000000001954700000000002087208100000000000000009999123100000010000000000000BRTTENACNOR0103
012024080902TUPY3       010TUPY        ON      NM   R$  000000000253900000000025790000000002527000000000255400000000025380000000002538000000000255602799000000000000465100000000001187939000000000000000009999123100000010000000000000BRTUPYACNOR1184
012024080902UCAS3       010UNICASA     ON      NM   R$  000000000022800000000002280000000000221000000000022300000000002220000000000222000000000022300184000000000000037000000000000008263100000000000000009999123100000010000000000000BRUCASACNOR1113
012024080902UGPA3       010ULTRAPAR    ON      NM   R$  000000000226000000000023580000000002260000000000231500000000023050000000002304000000000230525789000000000006193500000000014341822000000000000000009999123100000010000000000000BRUGPAACNOR8155
012024080902UNIP3       010UNIPAR      ON           R$  000000000494300000000050270000000004855000000000492200000000049550000000004950000000000500200085000000000000015800000000000077778200000000000000009999123100000010000000000000BRUNIPACNOR7206
012024080902BGIP3       010BANESE      ON           R$  000000000249700000000025000000000002497000000000249800000000025000000000002500000000000000000002000000000000000200000000000000499700000000000000009999123100000010000000000000BRBGIPACNOR1208
012024080902BGIP4       010BANESE      PN           R$  000000000240000000000024000000000002350000000000236700000000023510000000002340000000000239000003000000000000000300000000000000710100000000000000009999123100000010000000000000BRBGIPACNPR8208
012024080902BHIA3       010CASAS BAHIA ON      NM   R$  000000000053300000000005390000000000476000000000050100000000004810000000000480000000000048108131000000000011102400000000005569454700000000000000009999123100000010000000000000BRBHIAACNOR1102
012024080902BPAN4       010BANCO PAN   PN      N1   R$  000000000088800000000009190000000000888000000000091000000000009170000000000917000000000091904467000000000001432700000000001304050100000000000000009999123100000010000000000000BRBPANACNPR1115
012024080902CSED3       010CRUZEIRO EDUON      NM   R$  000000000041500000000004320000000000408000000000042100000000004320000000000425000000000043300834000000000000718800000000000302997000000000000000009999123100000010000000000000BRCSEDACNOR9104
012024080902CSMG3       010COPASA      ON      NM   R$  000000000216800000000022490000000002168000000000223000000000022380000000002238000000000224005597000000000001238200000000002761795800000000000000009999123100000010000000000000BRCSMGACNOR5174
012024080902ONCO3       010ONCOCLINICASON      NM   R$  000000000067300000000006840000000000645000000000064700000000006450000000000645000000000064704664000000000029107000000000018846387300000000000000009999123100000010000000000000BRONCOACNOR6101
012024080902OPCT3       010OCEANPACT   ON      NM   R$  000000000065000000000006700000000000643000000000066000000000006700000000000664000000000067104257000000000001085300000000000716713000000000000000009999123100000010000000000000BROPCTACNOR0100
012024080902ORVR3       010ORIZON      ON      NM   R$  000000000447900000000044970000000004418000000000445300000000044580000000004458000000000445901290000000000000206800000000000920930500000000000000009999123100000010000000000000BRORVRACNOR0101
012024080902GOAU3       010GERDAU MET  ON      N1   R$  000000000102700000000010330000000001027000000000103000000000010330000000001029000000000103500091000000000000012800000000000013192500000000000000009999123100000010000000000000BRGOAUACNOR1267
012024080902GOAU4       010GERDAU MET  PN      N1   R$  000000000100900000000010180000000001007000000000101300000000010180000000001016000000000101909382000000000004544300000000004605540900000000000000009999123100000010000000000000BRGOAUACNPR8268
012024080902GRND3       010GRENDENE    ON      NM   R$  000000000060300000000006220000000000603000000000061600000000006170000000000617000000000062103371000000000001736600000000001069997500000000000000009999123100000010000000000000BRGRNDACNOR3174
012024080902PATI3       010PANATLANTICAON           R$  000000000240000000000024000000000002400000000000240000000000024000000000002400000000000249900001000000000000000100000000000000240000000000000000009999123100000010000000000000BRPATIACNOR6065
012024080902YDUQ3       010YDUQS PART  ON      NM   R$  000000000103800000000010600000000000988000000000102500000000010330000000001032000000000103319874000000000010723800000000010993597500000000000000009999123100000010000000000000BRYDUQACNOR3105
012024080902LAND3       010TERRASANTAPAON      NM   R$  000000000131300000000013390000000001306000000000131700000000013160000000001312000000000131700093000000000000029000000000000038218900000000000000009999123100000010000000000000BRLANDACNOR9103
012024080902LAVV3       010LAVVI       ON      NM   R$  000000000085800000000008760000000000855000000000086700000000008600000000000860000000000086202166000000000000510700000000000443147200000000000000009999123100000010000000000000BRLAVVACNOR4112
012024080902LEVE3       010METAL LEVE  ON      NM   R$  000000000333200000000034180000000003321000000000338300000000033790000000003377000000000338001563000000000000305800000000001034749400000000000000009999123100000010000000000000BRLEVEACNOR2197
012024080902LIPR3       010ELETROPAR   ON           R$  000000000471800000000047180000000004718000000000471800000000047180000000004676000000000479000001000000000000000100000000000000471800000000000000009999123100000010000000000000BRLIPRACNOR7122
012024080902LJQQ3       010QUERO-QUERO ON      NM   R$  000000000042300000000004420000000000417000000000043200000000004380000000000438000000000043905353000000000002492000000000001078750400000000000000009999123100000010000000000000BRLJQQACNOR5104
012024080902RADL3       010RAIADROGASILON      NM   R$  000000000290000000000029340000000002867000000000290900000000029340000000002931000000000293418476000000000006106600000000017765319600000000000000009999123100000010000000000000BRRADLACNOR0157
012024080902RAIL3       010RUMO S.A.   ON      NM   R$  000000000239900000000024100000000002322000000000235000000000023580000000002341000000000235828731000000000014337400000000033698759100000000000000009999123100000010000000000000BRRAILACNOR9105
012024080902SCAR3       010SAO CARLOS  ON      NM   R$  000000000233400000000023550000000002334000000000234300000000023390000000002306000000000234000007000000000000000900000000000002109400000000000000009999123100000010000000000000BRSCARACNOR7131
012024080902SEER3       010SER EDUCA   ON      NM   R$  000000000050700000000005240000000000507000000000051800000000005180000000000518000000000052200927000000000000247400000000000128222100000000000000009999123100000010000000000000BRSEERACNOR5119
012024080902LOGG3       010LOG COM PROPON      NM   R$  000000000229800000000023560000000002298000000000233200000000023550000000002333000000000235901917000000000000463300000000001080727400000000000000009999123100000010000000000000BRLOGGACNOR7107
012024080902LOGN3       010LOG-IN      ON      NM   R$  000000000371700000000037170000000003482000000000360400000000035080000000003508000000000361300094000000000000018300000000000065957200000000000000009999123100000010000000000000BRLOGNACNOR3105
012024080902LPSB3       010LOPES BRASILON      NM   R$  000000000017500000000001810000000000174000000000017800000000001750000000000174000000000017900155000000000000061700000000000011005500000000000000009999123100000010000000000000BRLPSBACNOR0114
012024080902LREN3       010LOJAS RENNERON      NM   R$  000000000153000000000015660000000001495000000000153500000000015450000000001544000000000154546983000000000036291600000000055734146100000000000000009999123100000010000000000000BRLRENACNOR1221
012024080902BRSR3       010BANRISUL    ON      N1   R$  000000000122800000000012280000000001180000000000119300000000011840000000001184000000000122900042000000000000006000000000000007159800000000000000009999123100000010000000000000BRBRSRACNOR3188
012024080902BRSR6       010BANRISUL    PNB     N1   R$  000000000115000000000011670000000001141000000000115100000000011540000000001153000000000115503957000000000000846900000000000975488100000000000000009999123100000010000000000000BRBRSRACNPB4191
012024080902BSLI3       010BRB BANCO   ON           R$  000000000098000000000009800000000000980000000000098000000000009800000000000923000000000100100001000000000000000100000000000000098000000000000000009999123100000010000000000000BRBSLIACNOR5194
012024080902BSLI4       010BRB BANCO   PN           R$  000000000103200000000010320000000000960000000000096800000000009610000000000961000000000100200006000000000000000900000000000000871700000000000000009999123100000010000000000000BRBSLIACNPR2194
012024080902SEQL3       010SEQUOIA LOG ON      NM   R$  000000000059000000000007780000000000587000000000070500000000007270000000000727000000000072905927000000000003878700000000002734862200000000000000009999123100000010000000000000BRSEQLACNOR2103
012024080902SHOW3       010TIME FOR FUNON      NM   R$  000000000014000000000001410000000000132000000000013400000000001320000000000132000000000013300809000000000000641900000000000086624300000000000000009999123100000010000000000000BRSHOWACNOR7105
012024080902SHUL4       010SCHULZ      PN           R$  000000000064800000000006590000000000645000000000065200000000006560000000000655000000000065600550000000000000143500000000000093562700000000000000009999123100000010000000000000BRSHULACNPR4156
012024080902SIMH3       010SIMPAR      ON      NM   R$  000000000067000000000006800000000000632000000000065800000000006660000000000664000000000066607084000000000004227600000000002783576400000000000000009999123100000010000000000000BRSIMHACNOR0107
012024080902SYNE3       010SYN PROP TECON      NM   R$  000000000103100000000010450000000001029000000000103800000000010370000000001036000000000103800572000000000000275500000000000286149900000000000000009999123100000010000000000000BRSYNEACNOR2102
012024080902CYRE3       010CYRELA REALTON      NM   R$  000000000213500000000022040000000002135000000000217300000000021770000000002174000000000217832445000000000010390000000000022583659900000000000000009999123100000010000000000000BRCYREACNOR7140
012024080902MYPK3       010IOCHP-MAXIONON      NM   R$  000000000116800000000011760000000001128000000000115400000000011670000000001167000000000116805290000000000000946200000000001092785700000000000000009999123100000010000000000000BRMYPKACNOR7155
012024080902AHEB3       010SPTURIS     ON           R$  000000000350000000000035000000000003500000000000350000000000035000000000002901000000000400000002000000000000000400000000000001400000000000000000009999123100000010000000000000BRAHEBACNOR0106
012024080902ALLD3       010ALLIED      ON      NM   R$  000000000080500000000008050000000000755000000000077100000000007620000000000762000000000076300816000000000000307500000000000237185100000000000000009999123100000010000000000000BRALLDACNOR3106
012024080902ALOS3       010ALLOS       ON      NM   R$  000000000228000000000023290000000002265000000000229400000000023070000000002305000000000230715247000000000005589000000000012825907300000000000000009999123100000010000000000000BRALOSACNOR5101
012024080902BAHI3       010BAHEMA      ON      MA   R$  000000000061700000000006680000000000617000000000063800000000006640000000000630000000000066700027000000000000006200000000000003956600000000000000009999123100000010000000000000BRBAHIACNOR1074
012024080902BALM3       010BAUMER      ON           R$  000000000125000000000012500000000001250000000000125000000000012500000000001022000000000165000001000000000000000100000000000000125000000000000000009999123100000010000000000000BRBALMACNOR5055
012024080902NEOE3       010NEOENERGIA  ON      NM   R$  000000000185000000000018730000000001845000000000186300000000018700000000001870000000000187102561000000000000542600000000001011257900000000000000009999123100000010000000000000BRNEOEACNOR3123
012024080902BAZA3       010AMAZONIA    ON           R$  000000000994300000000099430000000009263000000000946700000000094940000000009415000000000949500017000000000000001900000000000017987700000000000000009999123100000010000000000000BRBAZAACNOR0179
012024080902BBAS3       010BRASIL      ON      NM   R$  000000000263000000000026630000000002625000000000265000000000026550000000002654000000000265534906000000000013001800000000034456803400000000000000009999123100000010000000000000BRBBASACNOR3324
012024080902BEEF3       010MINERVA     ON      NM   R$  000000000072900000000007540000000000726000000000074300000000007510000000000751000000000075222674000000000014185100000000010544627100000000000000009999123100000010000000000000BRBEEFACNOR6116
012024080902NGRD3       010NEOGRID     ON      NM   R$  000000000012200000000001220000000000116000000000011800000000001180000000000118000000000012000648000000000000524600000000000062097000000000000000009999123100000010000000000000BRNGRDACNOR3104
012024080902NINJ3       010GETNINJAS   ON      NM   R$  000000000047900000000004790000000000473000000000047400000000004740000000000468000000000047400018000000000000008200000000000003886800000000000000009999123100000010000000000000BRNINJACNOR5101
012024080902NORD3       010NORDON MET  ON           R$  000000000071100000000007110000000000655000000000069700000000006550000000000690000000000078700007000000000000001200000000000000836400000000000000009999123100000010000000000000BRNORDACNOR7135
012024080902NTCO3       010GRUPO NATURAON      NM   R$  000000000161500000000016730000000001600000000000164400000000016530000000001653000000000165416135000000000006096900000000010024043100000000000000009999123100000010000000000000BRNTCOACNOR5106
012024080902BPAC11      010BTGP BANCO  UNT     N2   R$  000000000346200000000034950000000003432000000000345600000000034520000000003451000000000345622392000000000007222300000000024960364100000000000000009999123100000010000000000000BRBPACUNT006119
012024080902BPAC3       010BTGP BANCO  ON      N2   R$  000000000166400000000016990000000001643000000000167400000000016550000000001606000000000167500042000000000000008200000000000013727600000000000000009999123100000010000000000000BRBPACACNOR7134
012024080902BPAC5       010BTGP BANCO  PNA     N2   R$  000000000088500000000008970000000000872000000000088500000000008970000000000878000000000089500032000000000000006100000000000005402900000000000000009999123100000010000000000000BRBPACACNPA0134
012024080902CPLE3       010COPEL       ON      N2   R$  000000000091500000000009310000000000907000000000091900000000009290000000000928000000000093008930000000000006146100000000005650264100000000000000009999123100000010000000000000BRCPLEACNOR8149
012024080902CPLE5       010COPEL       PNA     N2   R$  000000000130200000000013020000000001302000000000130200000000013020000000001303000000000145500001000000000000000100000000000000130200000000000000009999123100000010000000000000BRCPLEACNPA1147
012024080902CPLE6       010COPEL       PNB     N2   R$  000000000101300000000010300000000001003000000000101800000000010270000000001026000000000102821703000000000016791600000000017096178000000000000000009999123100000010000000000000BRCPLEACNPB9146
012024080902PRNR3       010PRINER      ON      NM   R$  000000000102000000000010800000000001016000000000104600000000010770000000001070000000000107701796000000000000599200000000000627076600000000000000009999123100000010000000000000BRPRNRACNOR4109
012024080902PSSA3       010PORTO SEGUROON      NM   R$  000000000307000000000031180000000003055000000000308900000000031180000000003107000000000311906870000000000001521200000000004700159500000000000000009999123100000010000000000000BRPSSAACNOR7155
012024080902PTBL3       010PORTOBELLO  ON      NM   R$  000000000044800000000004940000000000448000000000047800000000004940000000000489000000000049501423000000000000988000000000000473038900000000000000009999123100000010000000000000BRPTBLACNOR8132
012024080902PTNT4       010PETTENATI   PN           R$  000000000062500000000006410000000000625000000000063200000000006410000000000625000000000064100005000000000000000500000000000000316100000000000000009999123100000010000000000000BRPTNTACNPR3047
012024080902CRFB3       010CARREFOUR BRON      NM   R$  000000000098900000000009890000000000951000000000097100000000009770000000000976000000000097819073000000000007083200000000006883511100000000000000009999123100000010000000000000BRCRFBACNOR2116
012024080902CRPG5       010CRISTAL     PNA          R$  000000000293000000000029300000000002930000000000293000000000029300000000002903000000000293500001000000000000000100000000000000293000000000000000009999123100000010000000000000BRCRPGACNPA3119
012024080902CSAN3       010COSAN       ON      NM   R$  000000000133800000000013610000000001335000000000135100000000013610000000001357000000000136213650000000000006252100000000008448468100000000000000009999123100000010000000000000BRCSANACNOR6126
012024080902EKTR4       010ELEKTRO     PN           R$  000000000418600000000042000000000004185000000000419600000000041850000000004183000000000420000007000000000000000800000000000003357100000000000000009999123100000010000000000000BREKTRACNPR7164
012024080902ELET3       010ELETROBRAS  ON      N1   R$  000000000388100000000040110000000003878000000000397400000000039860000000003986000000000399428652000000000009439300000000037514604300000000000000009999123100000010000000000000BRELETACNOR6160
012024080902FESA3       010FERBASA     ON      N1   R$  000000000134800000000013480000000001348000000000134800000000013480000000001250000000000134500001000000000000000100000000000000134800000000000000009999123100000010000000000000BRFESAACNOR8188
012024080902FESA4       010FERBASA     PN      N1   R$  000000000081500000000008190000000000799000000000080500000000008010000000000801000000000080601867000000000000692000000000000557491900000000000000009999123100000010000000000000BRFESAACNPR5084
012024080902FHER3       010FER HERINGERON      NM   R$  000000000043300000000004430000000000428000000000043000000000004280000000000428000000000043400017000000000000005400000000000002323800000000000000009999123100000010000000000000BRFHERACNOR5103
012024080902FIQE3       010UNIFIQUE    ON      NM   R$  000000000037200000000003820000000000364000000000037600000000003800000000000379000000000038001426000000000001014900000000000382186500000000000000009999123100000010000000000000BRFIQEACNOR5107
012024080902FLRY3       010FLEURY      ON      NM   R$  000000000156900000000016000000000001550000000000156300000000015850000000001585000000000159315216000000000010382800000000016236244800000000000000009999123100000010000000000000BRFLRYACNOR5138
012024080902IRBR3       010IRBBRASIL REON      NM   R$  000000000291400000000029700000000002886000000000293100000000029440000000002943000000000294905313000000000001184800000000003473477200000000000000009999123100000010000000000000BRIRBRACNOR4111
012024080902AURE3       010AUREN       ON      NM   R$  000000000114900000000011610000000001146000000000115200000000011540000000001154000000000115510346000000000004051700000000004668927300000000000000009999123100000010000000000000BRAUREACNOR9104
012024080902AVLL3       010ALPHAVILLE  ON      NM   R$  000000000039800000000004140000000000390000000000040500000000004140000000000371000000000041400025000000000000015600000000000006321600000000000000009999123100000010000000000000BRAVLLACNOR5103
012024080902AZEV3       010AZEVEDO     ON           R$  000000000015500000000001580000000000151000000000015300000000001530000000000153000000000015400694000000000000496100000000000076210400000000000000009999123100000010000000000000BRAZEVACNOR0121
012024080902AZEV4       010AZEVEDO     PN           R$  000000000015000000000001590000000000149000000000015400000000001540000000000153000000000015401995000000000002706800000000000417029900000000000000009999123100000010000000000000BRAZEVACNPR7121
012024080902AZUL4       010AZUL        PN      N2   R$  000000000077200000000007970000000000729000000000076800000000007950000000000794000000000079517840000000000036577600000000028105832200000000000000009999123100000010000000000000BRAZULACNPR4102
012024080902BBDC3       010BRADESCO    ON  EJ  N1   R$  000000000128700000000013120000000001277000000000129700000000013030000000001302000000000130514862000000000006346800000000008237826600000000000000009999123100000010000000000000BRBBDCACNOR1773
012024080902BBDC4       010BRADESCO    PN  EJ  N1   R$  000000000142500000000014690000000001423000000000145100000000014600000000001459000000000146181805000000000037787600000000054833892000000000000000009999123100000010000000000000BRBBDCACNPR8773
012024080902BIOM3       010BIOMM       ON      MA   R$  000000000089900000000009790000000000886000000000091700000000009780000000000941000000000097800284000000000000054100000000000049654800000000000000009999123100000010000000000000BRBIOMACNOR2112
012024080907NUTR3       010NUTRIPLANT  ON      MA   R$  000000000049300000000004930000000000474000000000048500000000004910000000000476000000000049200042000000000000008400000000000004079700000000000000009999123100000010000000000000BRNUTRACNOR0104
012024080908CTNM4       010COTEMINAS   PN           R$  000000000009000000000000900000000000090000000000009000000000000900000000000089000000000009000019000000000000027900000000000002511000000000000000009999123100000010000000000000BRCTNMACNPR6129
012024080908CTSA3       010SANTANENSE  ON           R$  000000000029800000000003050000000000287000000000029400000000002950000000000290000000000029500028000000000000009700000000000002860500000000000000009999123100000010000000000000BRCTSAACNOR3062
012024080908ATMP3       010ATMASA      ON           R$  000000000017100000000001710000000000161000000000016400000000001650000000000165000000000016600037000000000000018800000000000003087500000000000000009999123100000010000000000000BRATMPACNOR8100
012024080908RSID3       010ROSSI RESID ON      NM   R$  000000000035000000000003630000000000340000000000034300000000003630000000000347000000000036300230000000000001040000000000000357335600000000000000009999123100000010000000000000BRRSIDACNOR8120
012024080908CTSA4       010SANTANENSE  PN           R$  000000000013200000000001420000000000129000000000013400000000001400000000000138000000000014000090000000000000062700000000000008453600000000000000009999123100000010000000000000BRCTSAACNPR0062
012024080908ETER3       010ETERNIT     ON      NM   R$  000000000058000000000006200000000000573000000000059600000000006200000000000611000000000062001418000000000000848500000000000506288400000000000000009999123100000010000000000000BRETERACNOR3243
012024080908JFEN3       010JOAO FORTES ON           R$  000000000003200000000000330000000000030000000000003100000000000310000000000031000000000003200479000000000001653400000000000051944100000000000000009999123100000010000000000000BRJFENACNOR0059
012024080908AMER3       010AMERICANAS  ON      NM   R$  000000000005900000000000590000000000054000000000005500000000000540000000000054000000000005504534000000000056388100000000003145670600000000000000009999123100000010000000000000BRAMERACNOR6102
012024080908RNEW11      010RENOVA      UNT     N2   R$  000000000025000000000002540000000000250000000000025100000000002520000000000249000000000025300011000000000000002000000000000000502900000000000000009999123100000010000000000000BRRNEWCDAM15110
012024080908RNEW3       010RENOVA      ON      N2   R$  000000000008300000000000860000000000082000000000008300000000000840000000000082000000000008500054000000000000060900000000000005091700000000000000009999123100000010000000000000BRRNEWACNOR8110
012024080908RNEW4       010RENOVA      PN      N2   R$  000000000008100000000000850000000000081000000000008300000000000820000000000082000000000008400110000000000000183600000000000015305400000000000000009999123100000010000000000000BRRNEWACNPR5110
012024080908RPMG3       010PET MANGUINHON           R$  000000000027300000000002910000000000269000000000027400000000002730000000000272000000000027400127000000000000020400000000000005605200000000000000009999123100000010000000000000BRRPMGACNOR9194
012024080908HOOT4       010HOTEIS OTHONPN           R$  000000000022900000000002500000000000229000000000024500000000002500000000000231000000000025000009000000000000002900000000000000712600000000000000009999123100000010000000000000BRHOOTACNPR9015
012024080908PMAM3       010PARANAPANEMAON      NM   R$  000000000021800000000002250000000000215000000000021800000000002240000000000223000000000022500121000000000000057600000000000012558500000000000000009999123100000010000000000000BRPMAMACNOR3039
012024080908OIBR3       010OI          ON      N1   R$  000000000043200000000004400000000000425000000000043400000000004250000000000425000000000042600642000000000000490400000000000213089600000000000000009999123100000010000000000000BROIBRACNOR1111
012024080908OIBR4       010OI          PN      N1   R$  000000000120600000000012290000000001206000000000122500000000012260000000001226000000000123000013000000000000001900000000000002328600000000000000009999123100000010000000000000BROIBRACNPR8110
012024080908OSXB3       010OSX BRASIL  ON      NM   R$  000000000037500000000003830000000000366000000000037300000000003700000000000369000000000037400024000000000000006300000000000002352100000000000000009999123100000010000000000000BROSXBACNOR8109
012024080908LIGT3       010LIGHT S/A   ON      NM   R$  000000000042000000000004290000000000418000000000042200000000004250000000000425000000000042803055000000000001493200000000000631373100000000000000009999123100000010000000000000BRLIGTACNOR2124
012024080908SGPS3       010SPRINGS     ON      NM   R$  000000000018800000000001880000000000188000000000018800000000001880000000000188000000000019300023000000000000031300000000000005884400000000000000009999123100000010000000000000BRSGPSACNOR4105
012024080908NEXP3       010NEXPE       ON           R$  000000000040300000000004190000000000398000000000040500000000004000000000000400000000000041300007000000000000001100000000000000446500000000000000009999123100000010000000000000BRNEXPACNOR0101
012024080910PDGR95      010PDG REALT   DIR     NM   R$  000000000000100000000000010000000000001000000000000100000000000010000000000000000000000000100098000000000000117238000000000000117238000000000000009999123100000010000000000000BRPDGRD03M17100
012024080910ZAMP1       010ZAMP S.A.   DIR ORD      R$  000000000000900000000000100000000000008000000000000800000000000090000000000008000000000000900332000000000000614400000000000005416400000000000000009999123100000010000000000000BRZAMPD01OR0100
012024080912CNES11      010FII CENESP  CI           R$  000000000015000000000001510000000000150000000000015000000000001510000000000150000000000015100540000000000000070202000000000010539313000000000000009999123100000010000000000000BRCNESCTF001261
012024080912ALZM11      010FII ALIANZMECI           R$  000000000077600000000007760000000000771000000000077400000000007750000000000775000000000077600750000000000000013663000000000010575645000000000000009999123100000010000000000000BRALZMCTF007124
012024080912ALZR11      010FII ALIANZA CI           R$  000000001077500000000107900000000010750000000001077100000000107880000000010761000000001078803223000000000000018697000000000201385853000000000000009999123100000010000000000000BRALZRCTF006184
012024080912BTRA11      010FII BTG TAGRCI           R$  000000000485200000000048530000000004803000000000482600000000048450000000004820000000000484500146000000000000002434000000000011747007000000000000009999123100000010000000000000BRBTRACTF000138
012024080912KNCR11      010FII KINEA RICI  ER       R$  000000001042500000000104340000000010368000000001038700000000103980000000010385000000001039813432000000000000106815000000001109492828000000000000009999123100000010000000000000BRKNCRCTF000242
012024080912KNHF11      010FII KINEA HFCI  ER       R$  000000000941300000000094810000000009388000000000944100000000094810000000009451000000000948105571000000000000036301000000000342741954000000000000009999123100000010000000000000BRKNHFCTF004113
012024080912KNHY11      010FII KINEA HYCI  ER       R$  000000001046100000000104980000000010451000000001047100000000104870000000010487000000001049002744000000000000020582000000000215527280000000000000009999123100000010000000000000BRKNHYCTF005174
012024080912KNIP11      010FII KINEA IPCI  ER       R$  000000000942000000000095000000000009402000000000942700000000094500000000009450000000000948012502000000000000106822000000001007116659000000000000009999123100000010000000000000BRKNIPCTF001195
012024080912CACR11      010CARTESIA FIICI  ER       R$  000000001040100000000104200000000010395000000001040900000000104200000000010410000000001041900520000000000000005745000000000059805313000000000000009999123100000010000000000000BRCACRCTF004135
012024080912CARE11      010FII DEA CARECI           R$  000000000016500000000001690000000000161000000000016400000000001650000000000165000000000016700096000000000000004782000000000000785285000000000000009999123100000010000000000000BRCARECTF000112
012024080912CBOP11      010FII CBOP PAXCI  ER       R$  000000000279900000000028060000000002799000000000279900000000028060000000002799000000000280600007000000000000000849000000000002376967000000000000009999123100000010000000000000BRCBOPCTF001232
012024080912CCME11      010FII CANUMA  CI  ER       R$  000000000103900000000010500000000001004000000000103300000000010420000000001023000000000104222541000000000000103868000000000107378807000000000000009999123100000010000000000000BRCCMECTF007125
012024080912KNRE11      010FII KII REALCI           R$  000000000004100000000000420000000000041000000000004100000000000410000000000041000000000004200023000000000000000483000000000000020084000000000000009999123100000010000000000000BRKNRECTF006129
012024080912KNRI11      010FII KINEA   CI  ER       R$  000000001549700000000155470000000015497000000001552400000000155320000000015532000000001553503510000000000000030466000000000472978215000000000000009999123100000010000000000000BRKNRICTF007266
012024080912KNSC11      010FII KINEA SCCI  ER       R$  000000000091500000000009180000000000909000000000091300000000009120000000000911000000000091212906000000000000333029000000000304075756000000000000009999123100000010000000000000BRKNSCCTF008149
012024080912KNUQ11      010FII KINEA UNCI  ER       R$  000000001031100000000103410000000010301000000001030900000000103010000000010301000000001031901874000000000000011513000000000118689072000000000000009999123100000010000000000000BRKNUQCTF004115
012024080912KORE11      010FII KORE    CI  ER       R$  000000001020500000000102690000000010185000000001023800000000101990000000010199000000001021801960000000000000025929000000000265482944000000000000009999123100000010000000000000BRKORECTF012108
012024080912DEVA11      010FII DEVANT  CI  ER       R$  000000000380000000000038290000000003800000000000381500000000038160000000003816000000000381900937000000000000013790000000000052614796000000000000009999123100000010000000000000BRDEVACTF000151
012024080912DPRO11      010FII DEVA PROCI  ER       R$  000000000073200000000007360000000000699000000000072800000000007000000000000699000000000070000037000000000000001198000000000000872434000000000000009999123100000010000000000000BRDPROCTF005126
012024080912DRIT11      010FII MTGESTAOCI  ER       R$  000000000999000000000099900000000009569000000000962600000000096650000000008243000000000998700004000000000000000019000000000000182905000000000000009999123100000010000000000000BRDRITCTF009255
012024080912DVFF11      010FII DEVA FOFCI  ER       R$  000000000074000000000007440000000000731000000000073700000000007390000000000737000000000074000029000000000000000227000000000000167487000000000000009999123100000010000000000000BRDVFFCTF006140
012024080912ERPA11      010FII EUROPA  CI  ER       R$  000000001339900000000133990000000013399000000001339900000000133990000000011700000000001340000001000000000000000150000000000002009850000000000000009999123100000010000000000000BRERPACTF002131
012024080912EQIR11      010FII EQI RECECI           R$  000000000090200000000009020000000000897000000000089900000000009000000000000898000000000090000130000000000000007540000000000006783217000000000000009999123100000010000000000000BREQIRCTF003134
012024080912JPPA11      010FII JPPA CRICI  ER       R$  000000000812400000000082000000000008124000000000815700000000081990000000008199000000000820000116000000000000001267000000000010335695000000000000009999123100000010000000000000BRJPPACTF005163
012024080912JSAF11      010FII JS A FINCI  ER       R$  000000000939300000000093930000000009290000000000936300000000093900000000009385000000000939002132000000000000050253000000000470553694000000000000009999123100000010000000000000BRJSAFCTF000135
012024080912JSCR11      010FII JSCR    CI  ER       R$  000000000990500000000100000000000009905000000000992200000000100000000000009775000000000000000006000000000000001837000000000018227466000000000000009999123100000010000000000000BRJSCRCTF001101
012024080912JSRE11      010FII JS REAL CI  ER       R$  000000000654900000000065500000000006411000000000647100000000064770000000006476000000000647708211000000000000026274000000000170024176000000000000009999123100000010000000000000BRJSRECTF007264
012024080912KCRE11      010FII KINEA CRCI  ER       R$  000000000095100000000009510000000000942000000000094500000000009480000000000946000000000094801217000000000000042895000000000040576920000000000000009999123100000010000000000000BRKCRECTF009127
012024080912KFOF11      010FII KINEAFOFCI  ER       R$  000000000883000000000088990000000008797000000000883100000000088360000000008794000000000883700999000000000000007614000000000067242712000000000000009999123100000010000000000000BRKFOFCTF006171
012024080912KISU11      010FII KILIMA  CI  ER       R$  000000000081300000000008140000000000806000000000080800000000008110000000000810000000000081102230000000000000081325000000000065760736000000000000009999123100000010000000000000BRKISUCTF000146
012024080912KIVO11      010FII KIVO    CI  ER       R$  000000000800600000000080490000000007944000000000799200000000079600000000007960000000000799302341000000000000006445000000000051508658000000000000009999123100000010000000000000BRKIVOCTF007129
012024080912BMLC11      010FII BMBRC LCCI  ER       R$  000000000976300000000097630000000009762000000000976200000000097630000000009682000000000980000003000000000000000019000000000000185490000000000000009999123100000010000000000000BRBMLCCTF004253
012024080912BNFS11      010FII BANRISULCI  ER       R$  000000001208400000000120980000000011910000000001197700000000119100000000011910000000001194000063000000000000000331000000000003964420000000000000009999123100000010000000000000BRBNFSCTF000243
012024080912AROA11      010FII AROA    CI  ER       R$  000000000010500000000001080000000000099000000000010100000000001000000000000099000000000010000131000000000000016305000000000001662732000000000000009999123100000010000000000000BRAROACTF003120
012024080912ARRI11      010FII ATRIO   CI  ER       R$  000000000090100000000009070000000000897000000000090100000000009020000000000900000000000090201497000000000000044485000000000040123155000000000000009999123100000010000000000000BRARRICTF009163
012024080912ARXD11      010FII ARXD R  CI  ER       R$  000000000977200000000098300000000009626000000000970300000000097300000000009675000000000973000021000000000000001045000000000010140459000000000000009999123100000010000000000000BRARXDCTF008117
012024080912ASMT11      010FII ASA MET CI           R$  000000000378700000000038620000000003736000000000379700000000038620000000003613000000000386200006000000000000000007000000000000026580000000000000009999123100000010000000000000BRASMTCTF005107
012024080912ASRF11      010FII ASA RET CI           R$  000000108820000000010882000000001088200000000108820000000010882000000000800000000000110000000001000000000000000004000000000004352800000000000000009999123100000010000000000000BRASRFCTF003100
012024080912RVBI11      010FII VBI REITCI  ER       R$  000000000738800000000073990000000007281000000000731200000000073190000000007315000000000731905982000000000000029547000000000216073013000000000000009999123100000010000000000000BRRVBICTF009154
012024080912RZAK11      010FII RIZA AKNCI           R$  000000000827600000000083020000000008253000000000827400000000082890000000008282000000000828904603000000000000022092000000000182808643000000000000009999123100000010000000000000BRRZAKCTF008145
012024080912SMRE11      010FII SMRE    CI  ER       R$  000000001000000000000105000000000010000000000001008300000000100000000000009850000000001000000005000000000000000006000000000000060500000000000000009999123100000010000000000000BRSMRECTF001103
