00COTAHIST.2024BOVESPA 20240129                                                                                                                                                                                                                      
012024012902HAGA3       010HAGA S/A    ON           R$  000000000025900000000002600000000000259000000000025900000000002600000000000260000000000026700003000000000000000800000000000000207300000000000000009999123100000010000000000000BRHAGAACNOR7103
012024012902HAGA4       010HAGA S/A    PN           R$  000000000011000000000001100000000000110000000000011000000000001100000000000109000000000011000002000000000000000200000000000000022000000000000000009999123100000010000000000000BRHAGAACNPR4103
012024012902HAPV3       010HAPVIDA     ON      NM   R$  000000000039300000000003960000000000385000000000038900000000003900000000000389000000000039124263000000000058088600000000022631783200000000000000009999123100000010000000000000BRHAPVACNOR4113
012024012902JSLG3       010JSL         ON      NM   R$  000000000110600000000011060000000001064000000000107700000000010780000000001061000000000107801141000000000000227100000000000244607800000000000000009999123100000010000000000000BRJSLGACNOR2121
012024012902KEPL3       010KEPLER WEBERON      NM   R$  000000000098500000000009870000000000961000000000097000000000009630000000000963000000000096403258000000000000928300000000000900752300000000000000009999123100000010000000000000BRKEPLACNOR1061
012024012902TOTS3       010TOTVS       ON      NM   R$  000000000308100000000031590000000003071000000000313900000000031430000000003140000000000314309982000000000002758800000000008660478600000000000000009999123100000010000000000000BRTOTSACNOR8144
012024012902TPIS3       010TRIUNFO PARTON      NM   R$  000000000041400000000004140000000000400000000000040200000000004000000000000400000000000040800156000000000000058800000000000023695300000000000000009999123100000010000000000000BRTPISACNOR8118
012024012902TRAD3       010TC          ON      NM   R$  000000000007200000000000730000000000069000000000007000000000000700000000000069000000000007000187000000000000374900000000000026438300000000000000009999123100000010000000000000BRTRADACNOR3101
012024012902TRIS3       010TRISUL      ON      NM   R$  000000000048400000000004860000000000472000000000047600000000004730000000000473000000000047701118000000000000372200000000000177501500000000000000009999123100000010000000000000BRTRISACNOR4116
012024012902TRPL3       010TRAN PAULISTON      N1   R$  000000000355000000000035820000000003531000000000355500000000035820000000003540000000000363900011000000000000001700000000000006044400000000000000009999123100000010000000000000BRTRPLACNOR4185
012024012902TRPL4       010TRAN PAULISTPN      N1   R$  000000000260700000000026230000000002601000000000261000000000026110000000002611000000000261604405000000000000730300000000001906299800000000000000009999123100000010000000000000BRTRPLACNPR1185
012024012902TTEN3       0103TENTOS     ON      NM   R$  000000000111400000000011140000000001086000000000109300000000010940000000001094000000000109605800000000000001282700000000001403261800000000000000009999123100000010000000000000BRTTENACNOR0102
012024012902KLBN11      010KLABIN S/A  UNT     N2   R$  000000000219700000000021970000000002125000000000214400000000021540000000002154000000000215509968000000000004670300000000010015927400000000000000009999123100000010000000000000BRKLBNCDAM18139
012024012902KLBN3       010KLABIN S/A  ON      N2   R$  000000000043900000000004390000000000424000000000042800000000004280000000000428000000000043101627000000000000776900000000000332544800000000000000009999123100000010000000000000BRKLBNACNOR2167
012024012902KLBN4       010KLABIN S/A  PN      N2   R$  000000000044000000000004410000000000426000000000042900000000004310000000000431000000000043203936000000000003630600000000001560001600000000000000009999123100000010000000000000BRKLBNACNPR9167
012024012902MRVE3       010MRV         ON      NM   R$  000000000081000000000008210000000000793000000000080200000000007960000000000796000000000079710977000000000010102800000000008109262200000000000000009999123100000010000000000000BRMRVEACNOR2126
012024012902MTRE3       010MITRE REALTYON      NM   R$  000000000049900000000004990000000000465000000000047900000000004700000000000470000000000047104888000000000004022800000000001926970900000000000000009999123100000010000000000000BRMTREACNOR6109
012024012902MTSA4       010METISA      PN           R$  000000000500000000000050280000000004998000000000501500000000050280000000005000000000000502800011000000000000002000000000000010031900000000000000009999123100000010000000000000BRMTSAACNPR9071
012024012902MULT3       010MULTIPLAN   ON      N2   R$  000000000282000000000028370000000002794000000000281200000000028150000000002813000000000281913636000000000002669900000000007509357600000000000000009999123100000010000000000000BRMULTACNOR5137
012024012902AERI3       010AERIS       ON      NM   R$  000000000007900000000000800000000000078000000000007900000000000790000000000078000000000007904149000000000003358600000000000265840400000000000000009999123100000010000000000000BRAERIACNOR4101
012024012902AESB3       010AES BRASIL  ON      NM   R$  000000000113500000000011830000000001130000000000114800000000011640000000001161000000000116416384000000000010880100000000012497593300000000000000009999123100000010000000000000BRAESBACNOR7105
012024012902GOLL4       010GOL         PN      N2   R$  000000000058000000000005810000000000385000000000047200000000003930000000000393000000000039450073000000000053740000000000025400648100000000000000009999123100000010000000000000BRGOLLACNPR4128
012024012902JHSF3       010JHSF PART   ON      NM   R$  000000000048800000000004900000000000478000000000048300000000004810000000000481000000000048202999000000000002363700000000001142574100000000000000009999123100000010000000000000BRJHSFACNOR2131
012024012902JOPA3       010JOSAPAR     ON           R$  000000000214000000000021400000000002140000000000214000000000021400000000002102000000000220000001000000000000000200000000000000428000000000000000009999123100000010000000000000BRJOPAACNOR5134
012024012902RADL3       010RAIADROGASILON      NM   R$  000000000261500000000026460000000002606000000000263000000000026300000000002630000000000263111685000000000002785700000000007326943300000000000000009999123100000010000000000000BRRADLACNOR0154
012024012902PRIO3       010PETRORIO    ON      NM   R$  000000000457700000000045790000000004421000000000448000000000044760000000004470000000000447714958000000000006249100000000028000694000000000000000009999123100000010000000000000BRPRIOACNOR1106
012024012902SMFT3       010SMART FIT   ON      NM   R$  000000000248500000000025170000000002467000000000248200000000024800000000002479000000000249002812000000000000576800000000001432097500000000000000009999123100000010000000000000BRSMFTACNOR1111
012024012902SMTO3       010SAO MARTINHOON      NM   R$  000000000280500000000029110000000002800000000000286900000000028610000000002855000000000286206682000000000002279400000000006541435200000000000000009999123100000010000000000000BRSMTOACNOR3125
012024012902AFLT3       010AFLUENTE T  ON           R$  000000000080000000000008100000000000800000000000080300000000008100000000000808000000000081000004000000000000000800000000000000642900000000000000009999123100000010000000000000BRAFLTACNOR1120
012024012902AGRO3       010BRASILAGRO  ON      NM   R$  000000000254600000000025460000000002487000000000250100000000024910000000002491000000000250601325000000000000191200000000000478249500000000000000009999123100000010000000000000BRAGROACNOR7114
012024012902AGXY3       010AGROGALAXY  ON      NM   R$  000000000028600000000002860000000000281000000000028300000000002820000000000281000000000028200195000000000000067500000000000019129400000000000000009999123100000010000000000000BRAGXYACNOR4102
012024012902ALLD3       010ALLIED      ON      NM   R$  000000000070400000000007250000000000700000000000070400000000007160000000000701000000000071700129000000000000022300000000000015713200000000000000009999123100000010000000000000BRALLDACNOR3105
012024012902ALOS3       010ALLOS       ON      NM   R$  000000000245400000000024770000000002431000000000244800000000024310000000002430000000000243207742000000000002427100000000005942440700000000000000009999123100000010000000000000BRALOSACNOR5100
012024012902ALPA3       010ALPARGATAS  ON      N1   R$  000000000092200000000009340000000000908000000000091800000000009220000000000909000000000093600021000000000000002900000000000002662900000000000000009999123100000010000000000000BRALPAACNOR0231
012024012902ALPA4       010ALPARGATAS  PN      N1   R$  000000000087000000000008700000000000836000000000084800000000008440000000000844000000000085205694000000000002204300000000001870907100000000000000009999123100000010000000000000BRALPAACNPR7232
012024012902WEGE3       010WEG         ON      NM   R$  000000000331500000000033770000000003312000000000333800000000033250000000003325000000000332713313000000000004135300000000013806611700000000000000009999123100000010000000000000BRWEGEACNOR0220
012024012902RAIL3       010RUMO S.A.   ON      NM   R$  000000000226100000000022890000000002233000000000226800000000022860000000002281000000000229009344000000000005827500000000013221213000000000000000009999123100000010000000000000BRRAILACNOR9104
012024012902RAIZ4       010RAIZEN      PN      N2   R$  000000000037400000000003830000000000371000000000037900000000003810000000000381000000000038209698000000000014380900000000005459631900000000000000009999123100000010000000000000BRRAIZACNPR6109
012024012902RANI3       010IRANI       ON      NM   R$  000000000100500000000010140000000000994000000000100200000000010000000000000999000000000100303320000000000000752900000000000754408700000000000000009999123100000010000000000000BRRANIACNOR5069
012024012902SYNE3       010SYN PROP TECON      NM   R$  000000000043200000000004400000000000422000000000042900000000004320000000000428000000000043201072000000000000407500000000000175144800000000000000009999123100000010000000000000BRSYNEACNOR2102
012024012902BPAC11      010BTGP BANCO  UNT     N2   R$  000000000370500000000037050000000003650000000000366700000000036660000000003664000000000366811088000000000003057400000000011212572300000000000000009999123100000010000000000000BRBPACUNT006118
012024012902BPAC3       010BTGP BANCO  ON      N2   R$  000000000180700000000018080000000001763000000000177800000000017750000000001764000000000177500020000000000000002000000000000003557900000000000000009999123100000010000000000000BRBPACACNOR7133
012024012902BPAC5       010BTGP BANCO  PNA     N2   R$  000000000092900000000009800000000000929000000000095600000000009470000000000939000000000094700025000000000000005000000000000004782300000000000000009999123100000010000000000000BRBPACACNPA0133
012024012902CPFE3       010CPFL ENERGIAON      NM   R$  000000000371300000000037250000000003627000000000365900000000036600000000003657000000000366106444000000000002608100000000009545461900000000000000009999123100000010000000000000BRCPFEACNOR0136
012024012902TAEE11      010TAESA       UNT     N2   R$  000000000368500000000037040000000003670000000000368100000000036770000000003676000000000369005148000000000001125300000000004143169500000000000000009999123100000010000000000000BRTAEECDAM10145
012024012902TAEE3       010TAESA       ON      N2   R$  000000000122200000000012240000000001208000000000121500000000012120000000001212000000000121900648000000000000177100000000000215212600000000000000009999123100000010000000000000BRTAEEACNOR9145
012024012902TAEE4       010TAESA       PN      N2   R$  000000000123600000000012390000000001230000000000123300000000012390000000001238000000000123900600000000000000191800000000000236556700000000000000009999123100000010000000000000BRTAEEACNPR6145
012024012902TASA3       010TAURUS ARMASON      N2   R$  000000000145600000000014600000000001450000000000145300000000014560000000001456000000000146000079000000000000015400000000000022382100000000000000009999123100000010000000000000BRTASAACNOR7103
012024012902TASA4       010TAURUS ARMASPN      N2   R$  000000000145900000000014590000000001445000000000145000000000014530000000001451000000000145301150000000000000258500000000000374883500000000000000009999123100000010000000000000BRTASAACNPR4103
012024012902TCSA3       010TECNISA     ON      NM   R$  000000000033000000000003300000000000313000000000031800000000003140000000000313000000000031400252000000000000137600000000000043880800000000000000009999123100000010000000000000BRTCSAACNOR3112
012024012902EMBR3       010EMBRAER     ON      NM   R$  000000000223100000000022370000000002186000000000221400000000022320000000002232000000000223507176000000000005862000000000012984035200000000000000009999123100000010000000000000BREMBRACNOR4191
012024012902ENAT3       010ENAUTA PART ON      NM   R$  000000000197000000000019740000000001908000000000193300000000019420000000001941000000000194604963000000000001177200000000002276624600000000000000009999123100000010000000000000BRENATACNOR0104
012024012902FRAS3       010FRAS-LE     ON      N1   R$  000000000150500000000015120000000001478000000000149000000000014970000000001488000000000149803342000000000000535400000000000798252800000000000000009999123100000010000000000000BRFRASACNOR0158
012024012902FRIO3       010METALFRIO   ON      NM   R$  000000002520000000000252000000000025200000000002520000000000252000000000025050000000002899900001000000000000000100000000000002520000000000000000009999123100000010000000000000BRFRIOACNOR2111
012024012902NGRD3       010NEOGRID     ON      NM   R$  000000000011600000000001180000000000113000000000011500000000001140000000000114000000000011500427000000000000452300000000000052197500000000000000009999123100000010000000000000BRNGRDACNOR3103
012024012902NINJ3       010GETNINJAS   ON  ATZ NM   R$  000000000048900000000005000000000000487000000000049200000000004980000000000492000000000049800139000000000000136300000000000067144300000000000000009999123100000010000000000000BRNINJACNOR5101
012024012902NORD3       010NORDON MET  ON           R$  000000000126800000000015880000000001211000000000136900000000012850000000001263000000000128600108000000000000013400000000000018356600000000000000009999123100000010000000000000BRNORDACNOR7135
012024012902NTCO3       010GRUPO NATURAON      NM   R$  000000000159700000000016070000000001560000000000158100000000015600000000001560000000000156518019000000000008943800000000014147945900000000000000009999123100000010000000000000BRNTCOACNOR5104
012024012902ALPK3       010ESTAPAR     ON      NM   R$  000000000046000000000004650000000000431000000000043900000000004320000000000432000000000043400838000000000000278800000000000122620500000000000000009999123100000010000000000000BRALPKACNOR9101
012024012902ALUP11      010ALUPAR      UNT     N2   R$  000000000292300000000029410000000002903000000000292500000000029360000000002932000000000294001922000000000000497100000000001454310100000000000000009999123100000010000000000000BRALUPCDAM15117
012024012902ALUP3       010ALUPAR      ON      N2   R$  000000000097900000000009800000000000969000000000097600000000009790000000000975000000000098000053000000000000007500000000000007325700000000000000009999123100000010000000000000BRALUPACNOR8117
012024012902ALUP4       010ALUPAR      PN      N2   R$  000000000097400000000009800000000000966000000000097300000000009770000000000976000000000098000132000000000000026200000000000025499200000000000000009999123100000010000000000000BRALUPACNPR5117
012024012902AMAR3       010LOJAS MARISAON      NM   R$  000000000027600000000002770000000000268000000000027100000000002700000000000268000000000027000630000000000000309200000000000083880800000000000000009999123100000010000000000000BRAMARACNOR4114
012024012902AMBP3       010AMBIPAR     ON      NM   R$  000000000143900000000014470000000001402000000000141400000000014020000000001402000000000141002850000000000000756600000000001069980700000000000000009999123100000010000000000000BRAMBPACNOR6103
012024012902ANIM3       010ANIMA       ON      NM   R$  000000000044000000000004440000000000422000000000043100000000004280000000000424000000000042806744000000000004220900000000001820054400000000000000009999123100000010000000000000BRANIMACNOR6107
012024012902APER3       010ALPER S.A.  ON           R$  000000000438400000000043900000000004381000000000438400000000043840000000004382000000000439900007000000000000000800000000000003507200000000000000009999123100000010000000000000BRAPERACNOR9106
012024012902ARML3       010ARMAC       ON      NM   R$  000000000147400000000014930000000001452000000000147200000000014780000000001478000000000149301930000000000000368800000000000543140300000000000000009999123100000010000000000000BRARMLACNOR1110
012024012902ARZZ3       010AREZZO CO   ON      NM   R$  000000000578000000000058750000000005700000000000578200000000057000000000005698000000000570008508000000000001650900000000009546471100000000000000009999123100000010000000000000BRARZZACNOR3146
012024012902BBSE3       010BBSEGURIDADEON      NM   R$  000000000338600000000034090000000003371000000000339900000000034090000000003405000000000340908827000000000002700200000000009178548200000000000000009999123100000010000000000000BRBBSEACNOR5123
012024012902BPAN4       010BANCO PAN   PN      N1   R$  000000000079900000000007990000000000785000000000079000000000007900000000000789000000000079101361000000000000923600000000000729820000000000000000009999123100000010000000000000BRBPANACNPR1115
012024012902BMEB4       010MERCANTIL   PN      N1   R$  000000000197600000000019870000000001934000000000197600000000019840000000001964000000000198400053000000000000009700000000000019168400000000000000009999123100000010000000000000BRBMEBACNPR5210
012024012902MOVI3       010MOVIDA      ON      NM   R$  000000000094000000000009510000000000924000000000093300000000009380000000000938000000000093904147000000000001665500000000001555148300000000000000009999123100000010000000000000BRMOVIACNOR0122
012024012902MRFG3       010MARFRIG     ON      NM   R$  000000000098000000000009800000000000938000000000095000000000009470000000000947000000000095208375000000000003723200000000003537660500000000000000009999123100000010000000000000BRMRFGACNOR0116
012024012902AALR3       010ALLIAR      ON      NM   R$  000000000084500000000008470000000000813000000000082800000000008370000000000830000000000083700446000000000000064700000000000053599800000000000000009999123100000010000000000000BRAALRACNOR6102
012024012902ABCB4       010ABC BRASIL  PN      N2   R$  000000000231600000000023200000000002289000000000230100000000023100000000002301000000000231202170000000000000399100000000000918486900000000000000009999123100000010000000000000BRABCBACNPR4145
012024012902ABEV3       010AMBEV S/A   ON           R$  000000000131600000000013290000000001312000000000132300000000013250000000001325000000000132612318000000000010163100000000013449221600000000000000009999123100000010000000000000BRABEVACNOR1127
012024012902ELMD3       010ELETROMIDIA ON      NM   R$  000000000174400000000017440000000001697000000000171700000000017200000000001716000000000173300207000000000000039500000000000067827700000000000000009999123100000010000000000000BRELMDACNOR3100
012024012902EMAE4       010EMAE        PN           R$  000000000571100000000057290000000005650000000000569400000000057220000000005607000000000574700026000000000000005000000000000028470900000000000000009999123100000010000000000000BREMAEACNPR1124
012024012902GEPA4       010GER PARANAP PN           R$  000000000255200000000025990000000002551000000000255700000000025510000000002551000000000259600008000000000000000900000000000002302100000000000000009999123100000010000000000000BRGEPAACNPR9159
012024012902GFSA3       010GAFISA      ON      NM   R$  000000000109200000000012010000000001088000000000116000000000011540000000001154000000000116108912000000000004715200000000005471063600000000000000009999123100000010000000000000BRGFSAACNOR3123
012024012902GGBR3       010GERDAU      ON      N1   R$  000000000204200000000020420000000001994000000000200700000000019940000000001993000000000200900255000000000000048600000000000097581100000000000000009999123100000010000000000000BRGGBRACNOR1189
012024012902GGBR4       010GERDAU      PN      N1   R$  000000000218500000000021930000000002126000000000214300000000021360000000002136000000000214012363000000000008897500000000019072189200000000000000009999123100000010000000000000BRGGBRACNPR8189
012024012902ITUB3       010ITAUUNIBANCOON      N1   R$  000000000280200000000028100000000002780000000000279300000000027950000000002794000000000279500876000000000000196400000000000548599300000000000000009999123100000010000000000000BRITUBACNOR4329
012024012902ITUB4       010ITAUUNIBANCOPN      N1   R$  000000000327100000000032880000000003245000000000326100000000032640000000003264000000000326618411000000000008784400000000028646446300000000000000009999123100000010000000000000BRITUBACNPR1329
012024012902RAPT3       010RANDON PART ON      N1   R$  000000000114200000000011420000000001115000000000112400000000011250000000001116000000000112500103000000000000041300000000000046435000000000000000009999123100000010000000000000BRRAPTACNOR7162
012024012902RAPT4       010RANDON PART PN      N1   R$  000000000114100000000011550000000001118000000000113000000000011220000000001120000000000112505428000000000001900900000000002148605700000000000000009999123100000010000000000000BRRAPTACNPR4162
012024012902ESPA3       010ESPACOLASER ON      NM   R$  000000000010900000000001100000000000104000000000010600000000001050000000000105000000000010600662000000000000946500000000000100951000000000000000009999123100000010000000000000BRESPAACNOR7103
012024012902EUCA3       010EUCATEX     ON      N1   R$  000000000179300000000017930000000001793000000000179300000000017930000000001750000000000179200001000000000000000100000000000000179300000000000000009999123100000010000000000000BREUCAACNOR1157
012024012902EUCA4       010EUCATEX     PN      N1   R$  000000000167200000000016720000000001624000000000164000000000016540000000001641000000000165500264000000000000055200000000000090559200000000000000009999123100000010000000000000BREUCAACNPR8044
012024012902EVEN3       010EVEN        ON      NM   R$  000000000074500000000007480000000000732000000000073700000000007380000000000735000000000073801317000000000000381000000000000280817000000000000000009999123100000010000000000000BREVENACNOR8118
012024012902EZTC3       010EZTEC       ON      NM   R$  000000000159100000000015990000000001565000000000157700000000015730000000001572000000000157605347000000000001057800000000001668833300000000000000009999123100000010000000000000BREZTCACNOR0123
012024012902FLRY3       010FLEURY      ON      NM   R$  000000000164300000000016450000000001627000000000163700000000016410000000001636000000000164105603000000000001448100000000002371851200000000000000009999123100000010000000000000BRFLRYACNOR5137
012024012902ITSA3       010ITAUSA      ON      N1   R$  000000000099300000000009990000000000989000000000099400000000009990000000000999000000000100000472000000000000260100000000000258608900000000000000009999123100000010000000000000BRITSAACNOR0436
012024012902ITSA4       010ITAUSA      PN      N1   R$  000000000100000000000010040000000000991000000000099400000000009930000000000992000000000099316543000000000010130500000000010072091500000000000000009999123100000010000000000000BRITSAACNPR7436
012024012902FESA3       010FERBASA     ON  EB  N1   R$  000000000150100000000015010000000001501000000000150100000000015010000000001513000000000159300001000000000000000100000000000000150100000000000000009999123100000010000000000000BRFESAACNOR8187
012024012902FESA4       010FERBASA     PN  EB  N1   R$  000000000108300000000010940000000001070000000000107800000000010750000000001075000000000108002292000000000000501700000000000541072100000000000000009999123100000010000000000000BRFESAACNPR5083
012024012902FHER3       010FER HERINGERON      NM   R$  000000000072900000000007290000000000713000000000072200000000007130000000000712000000000072000030000000000000008200000000000005928200000000000000009999123100000010000000000000BRFHERACNOR5103
012024012902FIQE3       010UNIFIQUE    ON      NM   R$  000000000037500000000003800000000000373000000000037700000000003730000000000373000000000037600440000000000000164000000000000061835400000000000000009999123100000010000000000000BRFIQEACNOR5105
012024012902BBDC3       010BRADESCO    ON      N1   R$  000000000137700000000013810000000001366000000000137100000000013700000000001370000000000137404680000000000002328800000000003193870700000000000000009999123100000010000000000000BRBBDCACNOR1765
012024012902BBDC4       010BRADESCO    PN      N1   R$  000000000155000000000015520000000001534000000000153900000000015380000000001538000000000154016783000000000017302700000000026637311100000000000000009999123100000010000000000000BRBBDCACNPR8765
012024012902CMIN3       010CSNMINERACAOON      N2   R$  000000000068300000000006860000000000670000000000067900000000006830000000000682000000000068307612000000000005945600000000004040706600000000000000009999123100000010000000000000BRCMINACNOR2110
012024012902COCE5       010COELCE      PNA          R$  000000000414700000000041470000000004011000000000403600000000040300000000004030000000000404200135000000000000014800000000000059740100000000000000009999123100000010000000000000BRCOCEACNPA3146
012024012902COGN3       010COGNA ON    ON      NM   R$  000000000030100000000003030000000000294000000000029700000000002940000000000293000000000029507173000000000020167900000000005993636800000000000000009999123100000010000000000000BRCOGNACNOR2104
012024012902ELET3       010ELETROBRAS  ON      N1   R$  000000000408800000000041520000000004079000000000410400000000040870000000004085000000000409013263000000000004326000000000017757415900000000000000009999123100000010000000000000BRELETACNOR6159
012024012902ELET6       010ELETROBRAS  PNB     N1   R$  000000000460400000000046540000000004586000000000461100000000046000000000004597000000000460702719000000000000531900000000002452898400000000000000009999123100000010000000000000BRELETACNPB7076
012024012902CLSA3       010CLEARSALE   ON      NM   R$  000000000031200000000003180000000000306000000000031100000000003110000000000311000000000031200863000000000000647000000000000201785900000000000000009999123100000010000000000000BRCLSAACNOR0100
012024012902CLSC4       010CELESC      PN      N2   R$  000000000675300000000067530000000006603000000000661900000000066040000000006603000000000668500010000000000000001000000000000006619500000000000000009999123100000010000000000000BRCLSCACNPR3128
012024012902CMIG3       010CEMIG       ON      N1   R$  000000000149700000000015060000000001485000000000149900000000015020000000001502000000000150301596000000000000459100000000000688264900000000000000009999123100000010000000000000BRCMIGACNOR6239
012024012902CMIG4       010CEMIG       PN      N1   R$  000000000116100000000011720000000001160000000000116300000000011650000000001164000000000116517049000000000006527100000000007595250300000000000000009999123100000010000000000000BRCMIGACNPR3240
012024012902DIRR3       010DIRECIONAL  ON      NM   R$  000000000220900000000022160000000002179000000000219200000000021860000000002185000000000218603217000000000000629800000000001380776000000000000000009999123100000010000000000000BRDIRRACNOR0117
012024012902DMVF3       010D1000VFARMA ON      NM   R$  000000000059700000000006090000000000595000000000060100000000006040000000000593000000000060400515000000000000088000000000000052899100000000000000009999123100000010000000000000BRDMVFACNOR9100
012024012902DOHL4       010DOHLER      PN           R$  000000000050000000000005070000000000490000000000049600000000005070000000000485000000000050700005000000000000000900000000000000446400000000000000009999123100000010000000000000BRDOHLACNPR9066
012024012902DOTZ3       010DOTZ SA     ON      NM   R$  000000000071500000000007880000000000715000000000075600000000007520000000000752000000000077300082000000000000019200000000000014530700000000000000009999123100000010000000000000BRDOTZACNOR7101
012024012902DXCO3       010DEXCO       ON      NM   R$  000000000078200000000007830000000000754000000000076200000000007680000000000768000000000077106516000000000002401600000000001832314000000000000000009999123100000010000000000000BRDXCOACNOR8104
012024012902EALT3       010ACO ALTONA  ON           R$  000000000101500000000010150000000001015000000000101500000000010150000000000950000000000101500002000000000000000300000000000000304500000000000000009999123100000010000000000000BREALTACNOR4137
012024012902EALT4       010ACO ALTONA  PN           R$  000000000102000000000010280000000001003000000000101900000000010200000000001020000000000102800016000000000000006700000000000006833600000000000000009999123100000010000000000000BREALTACNPR1137
012024012902ECOR3       010ECORODOVIAS ON      NM   R$  000000000090300000000009070000000000895000000000090000000000009030000000000900000000000090604155000000000001066700000000000960561000000000000000009999123100000010000000000000BRECORACNOR8119
012024012902EGIE3       010ENGIE BRASILON      NM   R$  000000000411000000000041100000000004017000000000404200000000040400000000004037000000000404507211000000000001738200000000007026887600000000000000009999123100000010000000000000BREGIEACNOR9125
012024012902ENEV3       010ENEVA       ON      NM   R$  000000000128400000000012990000000001279000000000128800000000012920000000001291000000000129308871000000000002757500000000003553732000000000000000009999123100000010000000000000BRENEVACNOR8105
012024012902ENGI11      010ENERGISA    UNT     N2   R$  000000000499100000000050820000000004958000000000501300000000050560000000005055000000000505908163000000000003077900000000015430766400000000000000009999123100000010000000000000BRENGICDAM16135
012024012902ENGI3       010ENERGISA    ON      N2   R$  000000000165800000000016870000000001621000000000166400000000016710000000001671000000000169300054000000000000006300000000000010489100000000000000009999123100000010000000000000BRENGIACNOR0145
012024012902ENGI4       010ENERGISA    PN      N2   R$  000000000083000000000008480000000000826000000000083200000000008370000000000810000000000084500073000000000000018200000000000015152700000000000000009999123100000010000000000000BRENGIACNPR7141
012024012902ENJU3       010ENJOEI      ON      NM   R$  000000000017300000000001800000000000172000000000017400000000001730000000000173000000000017601331000000000000307900000000000053867300000000000000009999123100000010000000000000BRENJUACNOR9100
012024012902ENMT3       010ENERGISA MT ON           R$  000000000719500000000073070000000007195000000000725100000000073070000000000000000000000737500002000000000000000200000000000001450200000000000000009999123100000010000000000000BRENMTACNOR5119
012024012902EPAR3       010EMBPAR S/A  ON           R$  000000000098500000000009870000000000961000000000097600000000009610000000000961000000000097000082000000000000031400000000000030650400000000000000009999123100000010000000000000BREPARACNOR9104
012024012902EQMA3B      010EQTLMARANHAOON      MB   R$  000000000285000000000028500000000002850000000000285000000000028500000000002850000000000289900003000000000000002500000000000007125000000000000000009999123100000010000000000000BREQMAACNOR8107
012024012902EQPA3       010EQTL PARA   ON           R$  000000000077100000000008200000000000771000000000081500000000008150000000000785000000000081500172000000000000020400000000000016642300000000000000009999123100000010000000000000BREQPAACNOR1110
012024012902EQPA6       010EQTL PARA   PNB          R$  000000000075000000000007500000000000750000000000075000000000007500000000000752000000000080000001000000000000000200000000000000150000000000000000009999123100000010000000000000BREQPAACNPB2110
012024012902EQPA7       010EQTL PARA   PNC          R$  000000000077500000000007750000000000775000000000077500000000007750000000000750000000000100000001000000000000000300000000000000232500000000000000009999123100000010000000000000BREQPAACNPC0110
012024012902EQTL3       010EQUATORIAL  ON      NM   R$  000000000350800000000035360000000003500000000000351700000000035190000000003519000000000352108714000000000003220200000000011326939800000000000000009999123100000010000000000000BREQTLACNOR0129
012024012902IFCM3       010INFRACOMM   ON      NM   R$  000000000016400000000001660000000000158000000000016000000000001600000000000159000000000016003289000000000005521000000000000887236800000000000000009999123100000010000000000000BRIFCMACNOR8101
012024012902IGTI11      010IGUATEMI S.AUNT     N1   R$  000000000234000000000023950000000002334000000000237700000000023750000000002375000000000237910104000000000002934300000000006976682300000000000000009999123100000010000000000000BRIGTICDAM16104
012024012902IGTI3       010IGUATEMI S.AON      N1   R$  000000000028700000000002950000000000287000000000029100000000002900000000000289000000000029000076000000000000087900000000000025609300000000000000009999123100000010000000000000BRIGTIACNOR8104
012024012902IGTI4       010IGUATEMI S.APN      N1   R$  000000000105000000000010500000000001050000000000105000000000010500000000000980000000000105500002000000000000000200000000000000210000000000000000009999123100000010000000000000BRIGTIACNPR5104
012024012902INEP3       010INEPAR      ON           R$  000000000042700000000004330000000000416000000000042300000000004280000000000416000000000042800170000000000000046200000000000019553900000000000000009999123100000010000000000000BRINEPACNOR1143
012024012902INEP4       010INEPAR      PN           R$  000000000033300000000003470000000000326000000000033400000000003330000000000328000000000033300210000000000000044200000000000014775700000000000000009999123100000010000000000000BRINEPACNPR8143
012024012902INTB3       010INTELBRAS   ON      NM   R$  000000000217800000000021950000000002118000000000214600000000021220000000002122000000000213304156000000000000817100000000001754227000000000000000009999123100000010000000000000BRINTBACNOR9109
012024012902HETA4       010HERCULES    PN           R$  000000000062500000000006250000000000625000000000062500000000006250000000000591000000000068800001000000000000000100000000000000062500000000000000009999123100000010000000000000BRHETAACNPR9136
012024012902HYPE3       010HYPERA      ON      NM   R$  000000000309300000000032040000000003081000000000316100000000031950000000003195000000000319709138000000000003510400000000011096993600000000000000009999123100000010000000000000BRHYPEACNOR0136
012024012902KRSA3       010KORA SAUDE  ON      NM   R$  000000000009900000000001020000000000099000000000010100000000001020000000000101000000000010200120000000000000165800000000000016747900000000000000009999123100000010000000000000BRKRSAACNOR0100
012024012902LAND3       010TERRASANTAPAON      NM   R$  000000000168000000000016800000000001625000000000164300000000016250000000001625000000000165000040000000000000006300000000000010356700000000000000009999123100000010000000000000BRLANDACNOR9102
012024012902LAVV3       010LAVVI       ON      NM   R$  000000000075500000000007660000000000745000000000075400000000007580000000000754000000000075901622000000000000411600000000000310384300000000000000009999123100000010000000000000BRLAVVACNOR4110
012024012902LEVE3       010METAL LEVE  ON      NM   R$  000000000343500000000034390000000003342000000000336900000000033540000000003354000000000336702935000000000000704400000000002373603000000000000000009999123100000010000000000000BRLEVEACNOR2196
012024012902LIPR3       010ELETROPAR   ON           R$  000000000687600000000068760000000006803000000000683900000000068030000000006603000000000711300002000000000000000200000000000001367900000000000000009999123100000010000000000000BRLIPRACNOR7121
012024012902LJQQ3       010QUERO-QUERO ON      NM   R$  000000000051400000000005270000000000503000000000051300000000005060000000000504000000000050803113000000000001669200000000000857227100000000000000009999123100000010000000000000BRLJQQACNOR5104
012024012902LOGG3       010LOG COM PROPON      NM   R$  000000000204800000000020810000000002040000000000205700000000020630000000002062000000000208500644000000000000094800000000000195072800000000000000009999123100000010000000000000BRLOGGACNOR7106
012024012902LOGN3       010LOG-IN      ON      NM   R$  000000000390200000000039020000000003814000000000383300000000038150000000003815000000000385800119000000000000017000000000000065161400000000000000009999123100000010000000000000BRLOGNACNOR3105
012024012902LPSB3       010LOPES BRASILON      NM   R$  000000000022200000000002280000000000221000000000022400000000002270000000000226000000000022800126000000000000037000000000000008315200000000000000009999123100000010000000000000BRLPSBACNOR0113
012024012902LREN3       010LOJAS RENNERON      NM   R$  000000000157800000000015880000000001565000000000157500000000015710000000001570000000000157216228000000000006588900000000010378469200000000000000009999123100000010000000000000BRLRENACNOR1219
012024012902ODPV3       010ODONTOPREV  ON      NM   R$  000000000118300000000012240000000001175000000000121200000000012110000000001211000000000121506587000000000005536600000000006712312700000000000000009999123100000010000000000000BRODPVACNOR4198
012024012902OFSA3       010OUROFINO S/AON      NM   R$  000000000232000000000023200000000002300000000000230300000000023090000000002300000000000234100009000000000000004000000000000009213500000000000000009999123100000010000000000000BROFSAACNOR7117
012024012902ONCO3       010ONCOCLINICASON      NM   R$  000000000119700000000012140000000001156000000000117500000000011590000000001159000000000116603720000000000001066900000000001253862400000000000000009999123100000010000000000000BRONCOACNOR6100
012024012902OPCT3       010OCEANPACT   ON      NM   R$  000000000058600000000005940000000000576000000000058700000000005920000000000591000000000059201421000000000000438600000000000257843700000000000000009999123100000010000000000000BROPCTACNOR0100
012024012902ORVR3       010ORIZON      ON      NM   R$  000000000353200000000035570000000003475000000000350500000000035250000000003525000000000353400908000000000000181900000000000637737800000000000000009999123100000010000000000000BRORVRACNOR0101
012024012902PATI4       010PANATLANTICAPN           R$  000000000350000000000035000000000003500000000000350000000000035000000000003400000000000370000002000000000000000300000000000001050000000000000000009999123100000010000000000000BRPATIACNPR3064
012024012902PCAR3       010P.ACUCAR-CBDON      NM   R$  000000000041400000000004210000000000404000000000041100000000004100000000000409000000000041003850000000000004214700000000001734765800000000000000009999123100000010000000000000BRPCARACNOR3167
012024012902PFRM3       010PROFARMA    ON      NM   R$  000000000047100000000004750000000000459000000000046600000000004710000000000467000000000047100585000000000000299800000000000139975500000000000000009999123100000010000000000000BRPFRMACNOR1116
012024012902PGMN3       010PAGUE MENOS ON  EJS NM   R$  000000000030600000000003200000000000302000000000030900000000003200000000000318000000000032003450000000000002896800000000000896849800000000000000009999123100000010000000000000BRPGMNACNOR8103
012024012902PINE4       010PINE        PN      N2   R$  000000000040800000000004100000000000391000000000039900000000003960000000000396000000000039801250000000000000507400000000000202483700000000000000009999123100000010000000000000BRPINEACNPR8148
012024012902PLAS3       010PLASCAR PARTON           R$  000000000070000000000007000000000000666000000000068600000000006680000000000667000000000069700010000000000000001000000000000000686700000000000000009999123100000010000000000000BRPLASACNOR2106
012024012902PLPL3       010PLANOEPLANO ON  ED  NM   R$  000000000121000000000012360000000001179000000000120500000000011900000000001190000000000119202644000000000000638900000000000770208500000000000000009999123100000010000000000000BRPLPLACNOR5104
012024012902MWET4       010WETZEL S/A  PN           R$  000000000074500000000007450000000000745000000000074500000000007450000000000738000000000076600001000000000000000100000000000000074500000000000000009999123100000010000000000000BRMWETACNPR3118
012024012902MYPK3       010IOCHP-MAXIONON      NM   R$  000000000117800000000011860000000001172000000000117800000000011730000000001173000000000118203179000000000000627300000000000738968200000000000000009999123100000010000000000000BRMYPKACNOR7153
012024012902NEOE3       010NEOENERGIA  ON      NM   R$  000000000207600000000021060000000002049000000000206500000000020720000000002071000000000207302512000000000000475300000000000981800100000000000000009999123100000010000000000000BRNEOEACNOR3121
012024012902BRAP3       010BRADESPAR   ON      N1   R$  000000000216000000000021600000000002092000000000211000000000021090000000002109000000000212300274000000000000063500000000000134036200000000000000009999123100000010000000000000BRBRAPACNOR5147
012024012902BRAP4       010BRADESPAR   PN      N1   R$  000000000232200000000023350000000002288000000000230200000000023020000000002302000000000230307572000000000002056500000000004735460300000000000000009999123100000010000000000000BRBRAPACNPR2147
012024012902BRBI11      010BR PARTNERS UNT     N2   R$  000000000158300000000016060000000001550000000000157600000000015620000000001555000000000156200975000000000000144200000000000227329700000000000000009999123100000010000000000000BRBRBICDAM10107
012024012902BRFS3       010BRF SA      ON      NM   R$  000000000146100000000014620000000001411000000000142900000000014260000000001426000000000143109951000000000004050400000000005791045400000000000000009999123100000010000000000000BRBRFSACNOR8121
012024012902VULC3       010VULCABRAS   ON  ED  NM   R$  000000000184900000000018990000000001845000000000186900000000018750000000001875000000000189204877000000000001147200000000002144961200000000000000009999123100000010000000000000BRVULCACNOR2157
012024012902VVEO3       010VIVEO       ON      NM   R$  000000000112500000000011250000000000980000000000101700000000009860000000000985000000000098606648000000000001984200000000002019507200000000000000009999123100000010000000000000BRVVEOACNOR0103
012024012902IRBR3       010IRBBRASIL REON      NM   R$  000000000405200000000040920000000003995000000000402800000000040120000000004011000000000402404320000000000000947300000000003816515100000000000000009999123100000010000000000000BRIRBRACNOR4110
012024012902MDIA3       010M.DIASBRANCOON      NM   R$  000000000384900000000039150000000003830000000000387100000000038620000000003862000000000387801884000000000000316400000000001224970400000000000000009999123100000010000000000000BRMDIAACNOR7133
012024012902MDNE3       010MOURA DUBEUXON      NM   R$  000000000118700000000012000000000001169000000000118300000000011820000000001175000000000118300738000000000000162700000000000192524200000000000000009999123100000010000000000000BRMDNEACNOR9100
012024012902MEAL3       010IMC S/A     ON      NM   R$  000000000018500000000001850000000000179000000000018100000000001800000000000180000000000018200547000000000000537900000000000097406800000000000000009999123100000010000000000000BRMEALACNOR9105
012024012902MELK3       010MELNICK     ON      NM   R$  000000000043300000000004360000000000428000000000043200000000004340000000000431000000000043400199000000000000074700000000000032334200000000000000009999123100000010000000000000BRMELKACNOR8110
012024012902MERC4       010MERC FINANC PN           R$  000000000115000000000012000000000001050000000000116000000000011980000000001170000000000119800024000000000000003200000000000003712700000000000000009999123100000010000000000000BRMERCACNPR9179
012024012902MGEL4       010MANGELS INDLPN           R$  000000000143900000000014390000000001439000000000143900000000014390000000001403000000000143800001000000000000000100000000000000143900000000000000009999123100000010000000000000BRMGELACNPR3147
012024012902MGLU3       010MAGAZ LUIZA ON      NM   R$  000000000022400000000002280000000000207000000000021500000000002070000000000207000000000020840624000000000226045800000000048802685500000000000000009999123100000010000000000000BRMGLUACNOR2122
012024012902BAHI3       010BAHEMA      ON      MA   R$  000000000078400000000007850000000000762000000000077400000000007620000000000762000000000078200052000000000000006000000000000004648800000000000000009999123100000010000000000000BRBAHIACNOR1074
012024012902BALM4       010BAUMER      PN           R$  000000000102500000000010250000000001025000000000102500000000010250000000000977000000000108500001000000000000000200000000000000205000000000000000009999123100000010000000000000BRBALMACNPR2056
012024012902BAUH4       010EXCELSIOR   PN           R$  000000000808800000000080880000000008088000000000808800000000080880000000000100000000000808800002000000000000000200000000000001617600000000000000009999123100000010000000000000BRBAUHACNPR3117
012024012902BAZA3       010AMAZONIA    ON           R$  000000000910000000000091000000000009050000000000907600000000090800000000009080000000000912000011000000000000001500000000000013614100000000000000009999123100000010000000000000BRBAZAACNOR0178
012024012902BBAS3       010BRASIL      ON      NM   R$  000000000569600000000057030000000005606000000000564700000000056520000000005650000000000565216226000000000005632100000000031810052400000000000000009999123100000010000000000000BRBBASACNOR3319
012024012902BIOM3       010BIOMM       ON      MA   R$  000000000053800000000005550000000000517000000000054000000000005180000000000518000000000052600119000000000000031300000000000016933000000000000000009999123100000010000000000000BRBIOMACNOR2112
012024012902BLAU3       010BLAU        ON      NM   R$  000000000127700000000012770000000001240000000000125200000000012490000000001249000000000125601250000000000000315800000000000395393200000000000000009999123100000010000000000000BRBLAUACNOR8111
012024012902CAMB3       010CAMBUCI     ON           R$  000000000112700000000011600000000001120000000000113400000000011200000000001120000000000112900171000000000000052800000000000059925500000000000000009999123100000010000000000000BRCAMBACNOR4127
012024012902CAML3       010CAMIL       ON      NM   R$  000000000089600000000009060000000000891000000000090000000000009060000000000904000000000090602797000000000000694500000000000625525200000000000000009999123100000010000000000000BRCAMLACNOR3126
012024012902CASH3       010MELIUZ      ON      NM   R$  000000000080100000000008270000000000786000000000080300000000007860000000000786000000000079004721000000000002422100000000001946459500000000000000009999123100000010000000000000BRCASHACNOR8105
012024012902CBAV3       010CBA         ON      NM   R$  000000000041700000000004180000000000399000000000040400000000004020000000000401000000000040306651000000000003570200000000001442716000000000000000009999123100000010000000000000BRCBAVACNOR5104
012024012902CBEE3       010AMPLA ENERG ON           R$  000000000120000000000012000000000001200000000000120000000000012000000000001235000000000148700001000000000000000200000000000000240000000000000000009999123100000010000000000000BRCBEEACNOR3159
012024012902CCRO3       010CCR SA      ON      NM   R$  000000000132800000000013380000000001320000000000132600000000013250000000001323000000000132507469000000000003529200000000004682920700000000000000009999123100000010000000000000BRCCROACNOR2144
012024012902CEAB3       010CEA MODAS   ON      NM   R$  000000000078000000000008000000000000770000000000078800000000007900000000000790000000000079105621000000000002271400000000001790201600000000000000009999123100000010000000000000BRCEABACNOR1101
012024012902CEBR3       010CEB         ON           R$  000000000188000000000018850000000001860000000000187200000000018800000000001850000000000188500041000000000000007900000000000014794400000000000000009999123100000010000000000000BRCEBRACNOR5124
012024012902CEBR5       010CEB         PNA          R$  000000000174900000000017580000000001737000000000175000000000017500000000001740000000000175000015000000000000004600000000000008050300000000000000009999123100000010000000000000BRCEBRACNPA8123
012024012902CEBR6       010CEB         PNB          R$  000000000213700000000021400000000002100000000000212100000000021210000000002110000000000214000041000000000000010500000000000022271100000000000000009999123100000010000000000000BRCEBRACNPB6123
012024012902CEDO4       010CEDRO       PN      N1   R$  000000000272600000000028420000000002726000000000281600000000028420000000002726000000000284200010000000000000001200000000000003379800000000000000009999123100000010000000000000BRCEDOACNPR5128
012024012902CGAS5       010COMGAS      PNA          R$  000000001216800000000121680000000011784000000001199100000000118070000000011807000000001201900008000000000000001000000000000011991000000000000000009999123100000010000000000000BRCGASACNPA3159
012024012902CGRA3       010GRAZZIOTIN  ON           R$  000000000253200000000025670000000002518000000000253300000000025620000000002525000000000256400014000000000000002500000000000006334700000000000000009999123100000010000000000000BRCGRAACNOR2081
012024012902CGRA4       010GRAZZIOTIN  PN           R$  000000000255100000000025510000000002530000000000254000000000025310000000002531000000000254900018000000000000002900000000000007368600000000000000009999123100000010000000000000BRCGRAACNPR9081
012024012902CIEL3       010CIELO       ON      NM   R$  000000000048600000000004990000000000483000000000049100000000004830000000000482000000000048623742000000000033340400000000016384299700000000000000009999123100000010000000000000BRCIELACNOR3156
012024012902CXSE3       010CAIXA SEGURION      NM   R$  000000000139700000000014300000000001388000000000140900000000014100000000001409000000000141114964000000000006142200000000008660108300000000000000009999123100000010000000000000BRCXSEACNOR7105
012024012902CYRE3       010CYRELA REALTON      NM   R$  000000000227800000000022930000000002249000000000227000000000022550000000002254000000000225509185000000000002909500000000006604605000000000000000009999123100000010000000000000BRCYREACNOR7139
012024012902DASA3       010DASA        ON      NM   R$  000000000085900000000008740000000000836000000000085200000000008390000000000836000000000083901482000000000000237400000000000202315200000000000000009999123100000010000000000000BRDASAACNOR1122
012024012902LUPA3       010LUPATECH    ON      NM   R$  000000000020800000000002090000000000205000000000020600000000002050000000000205000000000020600230000000000000137000000000000028229700000000000000009999123100000010000000000000BRLUPAACNOR8112
012024012902LVTC3       010WDC NETWORKSON      NM   R$  000000000039400000000003940000000000383000000000038700000000003830000000000383000000000038500045000000000000044200000000000017114200000000000000009999123100000010000000000000BRLVTCACNOR4102
012024012902LWSA3       010LWSA        ON      NM   R$  000000000055500000000005620000000000546000000000055100000000005490000000000548000000000055107869000000000007677100000000004234349200000000000000009999123100000010000000000000BRLWSAACNOR8103
012024012902DESK3       010DESKTOP     ON      NM   R$  000000000132300000000013310000000001271000000000130100000000012710000000001271000000000128000590000000000000125000000000000162696600000000000000009999123100000010000000000000BRDESKACNOR2103
012024012902DEXP3       010DEXXOS PAR  ON      N1   R$  000000000118100000000011990000000001162000000000118600000000011750000000001174000000000119100361000000000000070100000000000083149600000000000000009999123100000010000000000000BRDEXPACNOR1104
012024012902DEXP4       010DEXXOS PAR  PN      N1   R$  000000000117600000000011760000000001176000000000117600000000011760000000001141000000000117600003000000000000001200000000000001411200000000000000009999123100000010000000000000BRDEXPACNPR8104
012024012902MAPT4       010CEMEPE      PN           R$  000000000105000000000010500000000001050000000000105000000000010500000000000708000000000110000002000000000000000300000000000000315000000000000000009999123100000010000000000000BRMAPTACNPR5106
012024012902MATD3       010MATER DEI   ON      NM   R$  000000000068200000000006930000000000668000000000067800000000006750000000000675000000000067701047000000000000201000000000000136332800000000000000009999123100000010000000000000BRMATDACNOR4103
012024012902MBLY3       010MOBLY       ON      NM   R$  000000000019400000000001990000000000190000000000019300000000001960000000000196000000000019702513000000000001348400000000000261580300000000000000009999123100000010000000000000BRMBLYACNOR5100
012024012902PDGR3       010PDG REALT   ON      NM   R$  000000000003900000000000400000000000038000000000003800000000000390000000000039000000000004000577000000000002697100000000000105056300000000000000009999123100000010000000000000BRPDGRACNOR8118
012024012902PDTC3       010PADTEC      ON      NM   R$  000000000032900000000003380000000000318000000000032900000000003350000000000333000000000033500179000000000000072000000000000023756300000000000000009999123100000010000000000000BRPDTCACNOR3100
012024012902PETR3       010PETROBRAS   ON      N2   R$  000000000420400000000042560000000004158000000000421300000000042360000000004236000000000423716364000000000009031900000000038057227000000000000000009999123100000010000000000000BRPETRACNOR9202
012024012902PETR4       010PETROBRAS   PN      N2   R$  000000000400000000000040590000000003983000000000402400000000040570000000004053000000000405745091000000000030547000000000122940538200000000000000009999123100000010000000000000BRPETRACNPR6209
012024012902PRNR3       010PRINER      ON      NM   R$  000000000118300000000012040000000001175000000000119000000000012000000000001200000000000120100554000000000000148100000000000176289200000000000000009999123100000010000000000000BRPRNRACNOR4108
012024012902PSSA3       010PORTO SEGUROON      NM   R$  000000000269000000000027020000000002673000000000268700000000026880000000002685000000000268806289000000000001377700000000003702372500000000000000009999123100000010000000000000BRPSSAACNOR7153
012024012902B3SA3       010B3          ON      NM   R$  000000000132500000000013320000000001309000000000131800000000013210000000001319000000000132144518000000000019832000000000026149040800000000000000009999123100000010000000000000BRB3SAACNOR6130
012024012902BRSR3       010BANRISUL    ON      N1   R$  000000000144000000000014720000000001425000000000144300000000014500000000001428000000000144900091000000000000016100000000000023233200000000000000009999123100000010000000000000BRBRSRACNOR3185
012024012902BRSR6       010BANRISUL    PNB     N1   R$  000000000144000000000014480000000001419000000000143900000000014450000000001445000000000144605104000000000001337500000000001925832300000000000000009999123100000010000000000000BRBRSRACNPB4188
012024012902BSLI3       010BRB BANCO   ON           R$  000000000131000000000014280000000001310000000000138100000000014250000000001332000000000142400023000000000000002700000000000003730200000000000000009999123100000010000000000000BRBSLIACNOR5192
012024012902BSLI4       010BRB BANCO   PN           R$  000000000121100000000013040000000001210000000000125700000000012970000000001184000000000130000021000000000000002100000000000002640700000000000000009999123100000010000000000000BRBSLIACNPR2192
012024012902CSUD3       010CSU DIGITAL ON      NM   R$  000000000190100000000019060000000001876000000000188600000000018840000000001882000000000189800149000000000000025100000000000047360000000000000000009999123100000010000000000000BRCSUDACNOR5107
012024012902CTKA4       010KARSTEN     PN           R$  000000000175000000000017500000000001750000000000175000000000017500000000001700000000000184800002000000000000001100000000000001925000000000000000009999123100000010000000000000BRCTKAACNPR7043
012024012902CTNM4       010COTEMINAS   PN           R$  000000000015000000000001580000000000150000000000015400000000001510000000000151000000000015400126000000000000108100000000000016648000000000000000009999123100000010000000000000BRCTNMACNPR6129
012024012902BMGB4       010BANCO BMG   PN      N1   R$  000000000033100000000003370000000000326000000000033000000000003360000000000334000000000033601181000000000000867000000000000286793000000000000000009999123100000010000000000000BRBMGBACNPR0108
012024012902BMIN3       010MERC INVEST ON           R$  000000000262000000000033330000000002619000000000281000000000033000000000002700000000000333300027000000000000002800000000000007869600000000000000009999123100000010000000000000BRBMINACNOR4169
012024012902BMIN4       010MERC INVEST PN           R$  000000000191000000000026500000000001910000000000232800000000025500000000002550000000000265000302000000000000060400000000000140625900000000000000009999123100000010000000000000BRBMINACNPR1175
012024012902BMKS3       010BIC MONARK  ON           R$  000000003649000000000365000000000034086000000003460200000000361000000000034151000000003610000021000000000000000078000000000002699013000000000000009999123100000010000000000000BRBMKSACNOR9165
012024012902BMOB3       010BEMOBI TECH ON      NM   R$  000000000124000000000012480000000001211000000000123200000000012430000000001242000000000124301470000000000000240200000000000296086100000000000000009999123100000010000000000000BRBMOBACNOR7103
012024012902BOBR4       010BOMBRIL     PN           R$  000000000022900000000002340000000000215000000000022400000000002150000000000215000000000022600077000000000000050400000000000011331800000000000000009999123100000010000000000000BRBOBRACNPR3128
012024012902CTSA3       010SANTANENSE  ON           R$  000000000042300000000004290000000000416000000000041800000000004160000000000415000000000042000019000000000000007300000000000003056800000000000000009999123100000010000000000000BRCTSAACNOR3062
012024012902CTSA4       010SANTANENSE  PN           R$  000000000020200000000002070000000000197000000000020100000000001980000000000198000000000020100240000000000000063500000000000012814800000000000000009999123100000010000000000000BRCTSAACNPR0062
012024012902CURY3       010CURY S/A    ON      NM   R$  000000000183500000000018640000000001834000000000184700000000018500000000001850000000000185903356000000000001528900000000002824977100000000000000009999123100000010000000000000BRCURYACNOR3107
012024012902CVCB3       010CVC BRASIL  ON      NM   R$  000000000030600000000003080000000000290000000000029800000000002970000000000296000000000029710934000000000026528300000000007906208200000000000000009999123100000010000000000000BRCVCBACNOR1115
012024012902HBOR3       010HELBOR      ON      NM   R$  000000000027000000000002700000000000258000000000026300000000002580000000000258000000000026100427000000000000412200000000000108685500000000000000009999123100000010000000000000BRHBORACNOR3117
012024012902HBRE3       010HBR REALTY  ON      NM   R$  000000000048800000000004880000000000471000000000047800000000004710000000000471000000000047400590000000000000492200000000000235745400000000000000009999123100000010000000000000BRHBREACNOR4100
012024012902HBSA3       010HIDROVIAS   ON      NM   R$  000000000037000000000003750000000000368000000000037100000000003710000000000370000000000037205775000000000003644500000000001353974700000000000000009999123100000010000000000000BRHBSAACNOR0100
012024012902HBTS5       010HABITASUL   PNA          R$  000000000375000000000037500000000003750000000000375000000000037500000000003620000000000375000005000000000000000600000000000002250000000000000000009999123100000010000000000000BRHBTSACNPA3127
012024012902PNVL3       010DIMED       ON      NM   R$  000000000121600000000012300000000001200000000000121800000000012300000000001224000000000123302498000000000000354700000000000432114900000000000000009999123100000010000000000000BRPNVLACNOR9205
012024012902POMO3       010MARCOPOLO   ON      N2   R$  000000000059900000000005990000000000582000000000058600000000005820000000000582000000000058700481000000000000166800000000000097819700000000000000009999123100000010000000000000BRPOMOACNOR0095
012024012902POMO4       010MARCOPOLO   PN      N2   R$  000000000077700000000007800000000000755000000000075900000000007600000000000757000000000076007941000000000004279600000000003251875600000000000000009999123100000010000000000000BRPOMOACNPR7095
012024012902PORT3       010WILSON SONS ON  ED  NM   R$  000000000165400000000016540000000001626000000000163800000000016440000000001636000000000164401018000000000000421900000000000691077400000000000000009999123100000010000000000000BRPORTACNOR8106
012024012902POSI3       010POSITIVO TECON      NM   R$  000000000071500000000007270000000000706000000000071500000000007240000000000723000000000072702542000000000001144100000000000818898800000000000000009999123100000010000000000000BRPOSIACNOR9115
012024012902ASAI3       010ASSAI       ON      NM   R$  000000000137100000000014480000000001371000000000142100000000014460000000001438000000000144616921000000000011897100000000016915105800000000000000009999123100000010000000000000BRASAIACNOR0106
012024012902ATOM3       010ATOMPAR     ON           R$  000000000022000000000002220000000000212000000000021600000000002120000000000212000000000021700064000000000000021700000000000004689100000000000000009999123100000010000000000000BRATOMACNOR1106
012024012902AURE3       010AUREN       ON      NM   R$  000000000132000000000013240000000001307000000000131200000000013080000000001308000000000130905368000000000003775900000000004955895300000000000000009999123100000010000000000000BRAUREACNOR9103
012024012902AVLL3       010ALPHAVILLE  ON      NM   R$  000000000052000000000005200000000000520000000000052000000000005200000000000488000000000052000002000000000000000200000000000000104000000000000000009999123100000010000000000000BRAVLLACNOR5103
012024012902AZEV3       010AZEVEDO     ON           R$  000000000016300000000001630000000000156000000000015900000000001570000000000156000000000015700329000000000000205000000000000032614500000000000000009999123100000010000000000000BRAZEVACNOR0121
012024012902AZEV4       010AZEVEDO     PN           R$  000000000016000000000001600000000000151000000000015300000000001510000000000151000000000015200987000000000001503000000000000231345100000000000000009999123100000010000000000000BRAZEVACNPR7121
012024012902AZUL4       010AZUL        PN      N2   R$  000000000142000000000014360000000001372000000000139600000000013840000000001384000000000138517416000000000012002400000000016757404500000000000000009999123100000010000000000000BRAZULACNPR4102
012024012902BEEF3       010MINERVA     ON      NM   R$  000000000071700000000007170000000000698000000000070400000000007050000000000704000000000070609370000000000009279800000000006533126100000000000000009999123100000010000000000000BRBEEFACNOR6116
012024012902BEES3       010BANESTES    ON           R$  000000000096600000000009770000000000964000000000096700000000009720000000000972000000000097800052000000000000007800000000000007545700000000000000009999123100000010000000000000BRBEESACNOR9386
012024012902BEES4       010BANESTES    PN           R$  000000000100000000000010040000000000999000000000100100000000010030000000001002000000000100300022000000000000002900000000000002905600000000000000009999123100000010000000000000BRBEESACNPR6311
012024012902BGIP4       010BANESE      PN           R$  000000000250000000000026800000000002450000000000260700000000026800000000002600000000000269000016000000000000002300000000000005996500000000000000009999123100000010000000000000BRBGIPACNPR8206
012024012902BHIA3       010CASAS BAHIA ON      NM   R$  000000000087400000000008990000000000829000000000085000000000008290000000000828000000000082906858000000000004743000000000004033085400000000000000009999123100000010000000000000BRBHIAACNOR1101
012024012902BRGE11      010ALFA CONSORCPNE ED       R$  000000000114900000000011510000000001149000000000115000000000011510000000001127000000000115300003000000000000000900000000000001035600000000000000009999123100000010000000000000BRBRGEACNPE1112
012024012902BRGE3       010ALFA CONSORCON  ED       R$  000000000117000000000011780000000001155000000000116500000000011550000000001155000000000117800009000000000000005400000000000006296200000000000000009999123100000010000000000000BRBRGEACNOR6204
012024012902BRGE5       010ALFA CONSORCPNA ED       R$  000000000115500000000011600000000001155000000000115500000000011600000000001132000000000116000004000000000000001800000000000002079500000000000000009999123100000010000000000000BRBRGEACNPA9218
012024012902BRGE6       010ALFA CONSORCPNB ED       R$  000000000112200000000011490000000001122000000000114800000000011490000000001122000000000000000009000000000000005400000000000006201800000000000000009999123100000010000000000000BRBRGEACNPB7219
012024012902BRGE7       010ALFA CONSORCPNC ED       R$  000000000114400000000011500000000001144000000000114900000000011500000000001122000000000128000007000000000000001600000000000001839400000000000000009999123100000010000000000000BRBRGEACNPC5220
012024012902BRGE8       010ALFA CONSORCPND ED       R$  000000000115000000000011500000000001148000000000114900000000011490000000001132000000000115600006000000000000002600000000000002987500000000000000009999123100000010000000000000BRBRGEACNPD3221
012024012902SRNA3       010SERENA      ON      NM   R$  000000000094100000000009510000000000919000000000093000000000009250000000000923000000000092502458000000000000527200000000000490309200000000000000009999123100000010000000000000BRSRNAACNOR4100
012024012902STBP3       010SANTOS BRP  ON      NM   R$  000000000097500000000009870000000000962000000000097700000000009840000000000984000000000098505260000000000001883400000000001841637200000000000000009999123100000010000000000000BRSTBPACNOR3128
012024012902SUZB3       010SUZANO S.A. ON      NM   R$  000000000520200000000052240000000005031000000000509200000000050800000000005080000000000509436380000000000012405500000000063170464800000000000000009999123100000010000000000000BRSUZBACNOR0129
012024012902PETZ3       010PETZ        ON      NM   R$  000000000034000000000003470000000000336000000000034100000000003380000000000338000000000034011253000000000009381100000000003207347000000000000000009999123100000010000000000000BRPETZACNOR2109
012024012902SEQL3       010SEQUOIA LOG ON      NM   R$  000000000005200000000000540000000000050000000000005100000000000500000000000050000000000005102601000000000009396700000000000485094600000000000000009999123100000010000000000000BRSEQLACNOR2101
012024012902SGPS3       010SPRINGS     ON      NM   R$  000000000012000000000001210000000000116000000000011800000000001180000000000117000000000011800156000000000000260900000000000030802300000000000000009999123100000010000000000000BRSGPSACNOR4104
012024012902SHOW3       010TIME FOR FUNON      NM   R$  000000000021200000000002130000000000205000000000020700000000002050000000000205000000000020700199000000000000105200000000000021812200000000000000009999123100000010000000000000BRSHOWACNOR7105
012024012902SHUL4       010SCHULZ      PN           R$  000000000067400000000006750000000000661000000000066400000000006620000000000662000000000066701240000000000000279800000000000186049500000000000000009999123100000010000000000000BRSHULACNPR4154
012024012902SIMH3       010SIMPAR      ON      NM   R$  000000000078500000000007890000000000767000000000077400000000007700000000000769000000000077304944000000000002380400000000001842582400000000000000009999123100000010000000000000BRSIMHACNOR0107
012024012902SLCE3       010SLC AGRICOLAON      NM   R$  000000000193000000000019300000000001881000000000190100000000018950000000001894000000000190005769000000000001553000000000002952613900000000000000009999123100000010000000000000BRSLCEACNOR2124
012024012902SAPR11      010SANEPAR     UNT     N2   R$  000000000281400000000028140000000002762000000000277700000000027910000000002788000000000279202629000000000000562400000000001562150800000000000000009999123100000010000000000000BRSAPRCDAM13117
012024012902SAPR3       010SANEPAR     ON      N2   R$  000000000052600000000005290000000000515000000000052300000000005220000000000521000000000052201247000000000000537200000000000281116800000000000000009999123100000010000000000000BRSAPRACNOR9158
012024012902SAPR4       010SANEPAR     PN      N2   R$  000000000056500000000005650000000000557000000000055900000000005620000000000562000000000056302191000000000001289200000000000721901900000000000000009999123100000010000000000000BRSAPRACNPR6158
012024012902SBFG3       010GRUPO SBF   ON      NM   R$  000000000133900000000013490000000001313000000000133400000000013480000000001344000000000134805853000000000001053800000000001406334300000000000000009999123100000010000000000000BRSBFGACNOR1102
012024012902SBSP3       010SABESP      ON      NM   R$  000000000770400000000077890000000007666000000000774200000000077590000000007737000000000775910669000000000001927800000000014926705100000000000000009999123100000010000000000000BRSBSPACNOR5160
012024012902SCAR3       010SAO CARLOS  ON      NM   R$  000000000271100000000027240000000002640000000000265900000000026400000000002640000000000267600133000000000000045700000000000121516400000000000000009999123100000010000000000000BRSCARACNOR7130
012024012902SEER3       010SER EDUCA   ON      NM   R$  000000000066000000000006620000000000635000000000064900000000006350000000000634000000000063501916000000000000662500000000000430100100000000000000009999123100000010000000000000BRSEERACNOR5119
012024012902VALE3       010VALE        ON      NM   R$  000000000694900000000069490000000006823000000000688000000000069170000000006916000000000691736003000000000015864500000000109151659900000000000000009999123100000010000000000000BRVALEACNOR0209
012024012902RSUL4       010RIOSULENSE  PN           R$  000000000793300000000081500000000007930000000000803100000000080940000000008094000000000820000021000000000000002200000000000017669800000000000000009999123100000010000000000000BRRSULACNPR3113
012024012902RCSL3       010RECRUSUL    ON           R$  000000000024400000000002490000000000223000000000023200000000002340000000000234000000000023504987000000000004443400000000001034111800000000000000009999123100000010000000000000BRRCSLACNOR4133
012024012902RCSL4       010RECRUSUL    PN           R$  000000000007000000000000720000000000068000000000006900000000000690000000000069000000000007000798000000000002195500000000000152999800000000000000009999123100000010000000000000BRRCSLACNPR1133
012024012902RDNI3       010RNI         ON      NM   R$  000000000047100000000004850000000000468000000000047400000000004730000000000467000000000047200016000000000000003400000000000001614800000000000000009999123100000010000000000000BRRDNIACNOR9116
012024012902RDOR3       010REDE D OR   ON      NM   R$  000000000272700000000027680000000002681000000000271200000000027130000000002713000000000271406740000000000001813500000000004919448700000000000000009999123100000010000000000000BRRDORACNOR8111
012024012902RECV3       010PETRORECSA  ON      NM   R$  000000000239000000000023970000000002311000000000233100000000023290000000002328000000000233806636000000000001534800000000003579040800000000000000009999123100000010000000000000BRRECVACNOR3105
012024012902REDE3       010REDE ENERGIAON           R$  000000000071900000000007240000000000670000000000070300000000006830000000000675000000000068300049000000000000011600000000000008164900000000000000009999123100000010000000000000BRREDEACNOR7126
012024012902RENT3       010LOCALIZA    ON      NM   R$  000000000562300000000057310000000005504000000000558700000000055450000000005536000000000554529983000000000007615500000000042552286300000000000000009999123100000010000000000000BRRENTACNOR4194
012024012902TELB3       010TELEBRAS    ON           R$  000000000150000000000015080000000001500000000000150400000000015080000000001501000000000153000002000000000000000200000000000000300800000000000000009999123100000010000000000000BRTELBACNOR2140
012024012902TELB4       010TELEBRAS    PN           R$  000000000115000000000011500000000001142000000000114800000000011500000000001140000000000116500011000000000000002800000000000003214400000000000000009999123100000010000000000000BRTELBACNPR9140
012024012902TEND3       010TENDA       ON      NM   R$  000000000103000000000010450000000001009000000000102100000000010130000000001013000000000101904666000000000001601000000000001636122900000000000000009999123100000010000000000000BRTENDACNOR4111
012024012902TFCO4       010TRACK FIELD PN      N2   R$  000000000139800000000014000000000001355000000000137100000000013550000000001355000000000137300338000000000000097200000000000133308100000000000000009999123100000010000000000000BRTFCOACNPR8111
012024012902TGMA3       010TEGMA       ON      NM   R$  000000000255600000000025680000000002531000000000255000000000025610000000002552000000000256100746000000000000102100000000000260366900000000000000009999123100000010000000000000BRTGMAACNOR7143
012024012902TIMS3       010TIM         ON      NM   R$  000000000175100000000017560000000001737000000000174500000000017460000000001746000000000174706894000000000002193900000000003829354200000000000000009999123100000010000000000000BRTIMSACNOR5114
012024012902TUPY3       010TUPY        ON  EJ  NM   R$  000000000260100000000026020000000002578000000000258700000000025920000000002580000000000259202379000000000000404100000000001045756000000000000000009999123100000010000000000000BRTUPYACNOR1183
012024012902VITT3       010VITTIA      ON      NM   R$  000000000077100000000008150000000000764000000000078900000000008140000000000805000000000081407231000000000002576400000000002033816000000000000000009999123100000010000000000000BRVITTACNOR4106
012024012902TECN3       010TECHNOS     ON      NM   R$  000000000036200000000003620000000000351000000000035300000000003510000000000351000000000035200167000000000000084700000000000029916900000000000000009999123100000010000000000000BRTECNACNOR6108
012024012902VAMO3       010VAMOS       ON      NM   R$  000000000081800000000008260000000000812000000000081700000000008130000000000812000000000081509293000000000004173900000000003412278900000000000000009999123100000010000000000000BRVAMOACNOR7105
012024012902VBBR3       010VIBRA       ON      NM   R$  000000000232900000000023290000000002283000000000230200000000023010000000002301000000000230207488000000000002219300000000005110283400000000000000009999123100000010000000000000BRVBBRACNOR1106
012024012902PTBL3       010PORTOBELLO  ON      NM   R$  000000000064600000000006570000000000622000000000063500000000006310000000000625000000000063201759000000000000679100000000000431541200000000000000009999123100000010000000000000BRPTBLACNOR8132
012024012902PTNT3       010PETTENATI   ON           R$  000000000124800000000012480000000001138000000000117800000000011900000000001141000000000122900007000000000000000800000000000000943100000000000000009999123100000010000000000000BRPTNTACNOR6042
012024012902PTNT4       010PETTENATI   PN           R$  000000000084200000000008430000000000827000000000083900000000008270000000000821000000000082700004000000000000000500000000000000419600000000000000009999123100000010000000000000BRPTNTACNPR3047
012024012902QUAL3       010QUALICORP   ON      NM   R$  000000000024500000000002460000000000231000000000023700000000002320000000000232000000000023307947000000000009918700000000002357280700000000000000009999123100000010000000000000BRQUALACNOR6119
012024012902SNSY3       010SANSUY      ON           R$  000000000161900000000017790000000001502000000000163000000000015690000000001558000000000159500208000000000000033500000000000054629300000000000000009999123100000010000000000000BRSNSYACNOR2113
012024012902SNSY5       010SANSUY      PNA          R$  000000000045400000000004700000000000440000000000045000000000004470000000000441000000000044800034000000000000005500000000000002479400000000000000009999123100000010000000000000BRSNSYACNPA5111
012024012902SOJA3       010BOA SAFRA   ON      NM   R$  000000000158000000000015860000000001539000000000155400000000015460000000001542000000000154600676000000000000123600000000000192115000000000000000009999123100000010000000000000BRSOJAACNOR9105
012024012902SOMA3       010GRUPO SOMA  ON      NM   R$  000000000069500000000007040000000000678000000000068600000000006800000000000680000000000068109456000000000008302000000000005702035000000000000000009999123100000010000000000000BRSOMAACNOR3102
012024012902VIVA3       010VIVARA S.A. ON      NM   R$  000000000349400000000035190000000003447000000000347200000000034650000000003461000000000346505382000000000001346000000000004674143800000000000000009999123100000010000000000000BRVIVAACNOR0106
012024012902VIVR3       010VIVER       ON  ES  NM   R$  000000000047300000000004760000000000450000000000046400000000004580000000000455000000000045800203000000000000163500000000000075959600000000000000009999123100000010000000000000BRVIVRACNOR4121
012024012902VIVT3       010TELEF BRASILON           R$  000000000512500000000051250000000005077000000000509800000000050980000000005093000000000510103711000000000001032500000000005263873300000000000000009999123100000010000000000000BRVIVTACNOR0178
012024012902VLID3       010VALID       ON      NM   R$  000000000215500000000021740000000002080000000000211500000000021030000000002103000000000212101786000000000000367700000000000777743900000000000000009999123100000010000000000000BRVLIDACNOR5141
012024012902VSTE3       010VESTE       ON  ES  NM   R$  000000000177700000000017770000000001763000000000177000000000017630000000001763000000000177900002000000000000000200000000000000354000000000000000009999123100000010000000000000BRVSTEACNOR5102
012024012902BRIT3       010BRISANET    ON      NM   R$  000000000032300000000003230000000000305000000000031100000000003070000000000306000000000031000625000000000000274700000000000085450600000000000000009999123100000010000000000000BRBRITACNOR0102
012024012902BRIV3       010ALFA INVEST ON           R$  000000000109000000000010970000000001090000000000109200000000010970000000001101000000000112200003000000000000000300000000000000327700000000000000009999123100000010000000000000BRBRIVACNOR6209
012024012902BRIV4       010ALFA INVEST PN           R$  000000000106000000000011000000000001060000000000109600000000010810000000001077000000000110000085000000000000328300000000000360143900000000000000009999123100000010000000000000BRBRIVACNPR3218
012024012902BRKM3       010BRASKEM     ON      N1   R$  000000000196000000000019810000000001897000000000194300000000019610000000001940000000000196500103000000000000020300000000000039454100000000000000009999123100000010000000000000BRBRKMACNOR1119
012024012902BRKM5       010BRASKEM     PNA     N1   R$  000000000184500000000018940000000001817000000000186200000000018780000000001876000000000187805765000000000002112000000000003934317900000000000000009999123100000010000000000000BRBRKMACNPA4121
012024012902CSED3       010CRUZEIRO EDUON      NM   R$  000000000040100000000004110000000000401000000000040600000000004010000000000401000000000040500640000000000000190700000000000077471100000000000000009999123100000010000000000000BRCSEDACNOR9104
012024012902CSMG3       010COPASA      ON      NM   R$  000000000215800000000021650000000002121000000000214800000000021540000000002148000000000215406053000000000000989000000000002124416300000000000000009999123100000010000000000000BRCSMGACNOR5171
012024012902CSNA3       010SID NACIONALON           R$  000000000181700000000018190000000001774000000000179500000000018080000000001805000000000180807066000000000003443300000000006180938000000000000000009999123100000010000000000000BRCSNAACNOR6260
012024012902GRND3       010GRENDENE    ON      NM   R$  000000000068100000000006850000000000672000000000067900000000006800000000000677000000000068103043000000000000825500000000000561092600000000000000009999123100000010000000000000BRGRNDACNOR3172
012024012902CPLE3       010COPEL       ON      N2   R$  000000000090300000000009050000000000894000000000089800000000008950000000000895000000000090005127000000000004492200000000004036999400000000000000009999123100000010000000000000BRCPLEACNOR8148
012024012902CPLE6       010COPEL       PNB     N2   R$  000000000100800000000010130000000000998000000000100300000000010030000000001001000000000100309804000000000005595300000000005613448800000000000000009999123100000010000000000000BRCPLEACNPB9145
012024012902GGPS3       010GPS         ON      NM   R$  000000000192100000000019340000000001893000000000190600000000019020000000001902000000000190803517000000000000579500000000001104710400000000000000009999123100000010000000000000BRGGPSACNOR9102
012024012902JALL3       010JALLESMACHADON      NM   R$  000000000075400000000007580000000000747000000000075000000000007470000000000747000000000074901321000000000000372000000000000279052500000000000000009999123100000010000000000000BRJALLACNOR0105
012024012902JBSS3       010JBS         ON      NM   R$  000000000242500000000024300000000002363000000000238200000000023760000000002375000000000237708164000000000004990200000000011889951400000000000000009999123100000010000000000000BRJBSSACNOR8121
012024012902MILS3       010MILLS       ON      NM   R$  000000000128100000000012870000000001260000000000127300000000012760000000001276000000000127701691000000000000455800000000000580448600000000000000009999123100000010000000000000BRMILSACNOR2124
012024012902MLAS3       010MULTILASER  ON      NM   R$  000000000018900000000001900000000000185000000000018700000000001890000000000187000000000018904869000000000002682600000000000503375800000000000000009999123100000010000000000000BRMLASACNOR9101
012024012902MNDL3       010MUNDIAL     ON           R$  000000000462000000000046200000000004331000000000446400000000043340000000004333000000000468300017000000000000001700000000000007590400000000000000009999123100000010000000000000BRMNDLACNOR4107
012024012902MOAR3       010MONT ARANHA ON           R$  000000003989700000000398970000000039897000000003989700000000398970000000020002000000003989800001000000000000000100000000000003989700000000000000009999123100000010000000000000BRMOARACNOR5233
012024012902GUAR3       010GUARARAPES  ON      NM   R$  000000000053300000000005340000000000517000000000052300000000005170000000000517000000000051902449000000000001015600000000000531779900000000000000009999123100000010000000000000BRGUARACNOR4172
012024012902SANB11      010SANTANDER BRUNT EJ       R$  000000000295000000000029500000000002887000000000290100000000028910000000002890000000000290207116000000000001394700000000004046185500000000000000009999123100000010000000000000BRSANBCDAM13163
012024012902SANB3       010SANTANDER BRON  EJ       R$  000000000138200000000013830000000001362000000000137100000000013650000000001364000000000136500780000000000000114700000000000157267800000000000000009999123100000010000000000000BRSANBACNOR8170
012024012902SANB4       010SANTANDER BRPN  EJ       R$  000000000155500000000015630000000001528000000000153900000000015450000000001535000000000154500790000000000000120400000000000185401000000000000000009999123100000010000000000000BRSANBACNPR5170
012024012902UCAS3       010UNICASA     ON      NM   R$  000000000027900000000002810000000000272000000000027500000000002810000000000276000000000028100057000000000000014700000000000004043000000000000000009999123100000010000000000000BRUCASACNOR1113
012024012902UGPA3       010ULTRAPAR    ON      NM   R$  000000000284000000000028610000000002780000000000279400000000027930000000002793000000000279408353000000000002873900000000008030933000000000000000009999123100000010000000000000BRUGPAACNOR8154
012024012902UNIP3       010UNIPAR      ON           R$  000000000670000000000067000000000006660000000000668000000000066980000000006691000000000669900027000000000000003100000000000020708900000000000000009999123100000010000000000000BRUNIPACNOR7204
012024012902UNIP5       010UNIPAR      PNA          R$  000000000718500000000071850000000007180000000000718200000000071800000000007180000000000730000003000000000000000300000000000002154600000000000000009999123100000010000000000000BRUNIPACNPA0206
012024012902UNIP6       010UNIPAR      PNB          R$  000000000712500000000071250000000007009000000000706100000000070900000000007088000000000709000942000000000000151000000000001066220700000000000000009999123100000010000000000000BRUNIPACNPB8204
012024012902USIM3       010USIMINAS    ON      N1   R$  000000000090400000000009050000000000855000000000087200000000008810000000000872000000000088102353000000000001772000000000001546730800000000000000009999123100000010000000000000BRUSIMACNOR3166
012024012902USIM5       010USIMINAS    PNA     N1   R$  000000000095400000000009540000000000914000000000092600000000009300000000000930000000000093112508000000000010409400000000009642492000000000000000009999123100000010000000000000BRUSIMACNPA6168
012024012902WHRL4       010WHIRLPOOL   PN           R$  000000000044500000000004450000000000440000000000044200000000004420000000000442000000000044300010000000000000002000000000000000885000000000000000009999123100000010000000000000BRWHRLACNPR2128
012024012902WIZC3       010WIZ CO      ON      NM   R$  000000000066300000000006640000000000650000000000065500000000006530000000000652000000000065701429000000000000306800000000000201099200000000000000009999123100000010000000000000BRWIZCACNOR5101
012024012902WLMM4       010WLM IND COM PN           R$  000000000269900000000026990000000002605000000000266400000000026900000000002690000000000269900003000000000000000300000000000000799400000000000000009999123100000010000000000000BRWLMMACNPR3116
012024012902YDUQ3       010YDUQS PART  ON      NM   R$  000000000197900000000020000000000001949000000000196900000000019540000000001953000000000195909137000000000002096300000000004127963200000000000000009999123100000010000000000000BRYDUQACNOR3104
012024012902ZAMP3       010ZAMP S.A.   ON           R$  000000000051900000000005260000000000503000000000051100000000005080000000000504000000000050801628000000000000360400000000000184322600000000000000009999123100000010000000000000BRZAMPACNOR5100
012024012902ROMI3       010ROMI        ON      NM   R$  000000000129600000000013030000000001280000000000128800000000012880000000001285000000000128800947000000000000156800000000000202057800000000000000009999123100000010000000000000BRROMIACNOR8192
012024012902RPAD3       010ALFA HOLDINGON           R$  000000000081100000000008110000000000811000000000081100000000008110000000000811000000000082000001000000000000000100000000000000081100000000000000009999123100000010000000000000BRRPADACNOR1198
012024012902RPAD5       010ALFA HOLDINGPNA ED       R$  000000000076800000000008000000000000736000000000079700000000007990000000000775000000000080000024000000000000020300000000000016187500000000000000009999123100000010000000000000BRRPADACNPA4218
012024012902RRRP3       0103R PETROLEUMON      NM   R$  000000000288100000000028900000000002788000000000281300000000028110000000002810000000000281207977000000000005619500000000015810131100000000000000009999123100000010000000000000BRRRRPACNOR5102
012024012902WEST3       010WESTWING    ON      NM   R$  000000000012600000000001280000000000125000000000012600000000001260000000000126000000000012700028000000000000028200000000000003567400000000000000009999123100000010000000000000BRWESTACNOR3100
012024012902WHRL3       010WHIRLPOOL   ON           R$  000000000041600000000004200000000000416000000000041800000000004190000000000417000000000041900033000000000000008700000000000003643400000000000000009999123100000010000000000000BRWHRLACNOR5128
012024012902CRFB3       010CARREFOUR BRON      NM   R$  000000000107500000000010750000000001030000000000104500000000010370000000001037000000000103820660000000000015237500000000015923486600000000000000009999123100000010000000000000BRCRFBACNOR2116
012024012902CRIV3       010ALFA FINANC ON           R$  000000000059800000000006150000000000598000000000060300000000005980000000000598000000000060900016000000000000012400000000000007479800000000000000009999123100000010000000000000BRCRIVACNOR4195
012024012902CRIV4       010ALFA FINANC PN           R$  000000000055600000000006350000000000556000000000058800000000005760000000000576000000000059700073000000000000243300000000000143262100000000000000009999123100000010000000000000BRCRIVACNPR1211
012024012902CRPG3       010CRISTAL     ON           R$  000000000409900000000040990000000004099000000000409900000000040990000000003600000000000409900001000000000000000200000000000000819800000000000000009999123100000010000000000000BRCRPGACNOR0118
012024012902CRPG5       010CRISTAL     PNA          R$  000000000366000000000037600000000003585000000000364100000000036400000000003565000000000364600039000000000000006100000000000022212100000000000000009999123100000010000000000000BRCRPGACNPA3118
012024012902CSAN3       010COSAN       ON      NM   R$  000000000186000000000018770000000001813000000000184000000000018250000000001825000000000182908109000000000004650100000000008556424900000000000000009999123100000010000000000000BRCSANACNOR6124
012024012902GMAT3       010GRUPO MATEUSON      NM   R$  000000000069000000000007000000000000673000000000068300000000006780000000000677000000000068008207000000000003224200000000002204760100000000000000009999123100000010000000000000BRGMATACNOR7100
012024012902GOAU3       010GERDAU MET  ON      N1   R$  000000000103600000000010370000000001013000000000102300000000010160000000001016000000000102400316000000000000067600000000000069204900000000000000009999123100000010000000000000BRGOAUACNOR1265
012024012902GOAU4       010GERDAU MET  PN      N1   R$  000000000100900000000010120000000000995000000000100000000000009980000000000997000000000099907653000000000007188100000000007194732200000000000000009999123100000010000000000000BRGOAUACNPR8266
012024012907NUTR3       010NUTRIPLANT  ON      MA   R$  000000000055100000000005660000000000538000000000055100000000005400000000000535000000000054000041000000000000007400000000000004079000000000000000009999123100000010000000000000BRNUTRACNOR0104
012024012907TXRX4       010TEX RENAUX  PN           R$  000000000036400000000003980000000000345000000000037100000000003770000000000350000000000037700071000000000000018600000000000006903900000000000000009999123100000010000000000000BRTXRXACNPR0142
012024012908JFEN3       010JOAO FORTES ON           R$  000000000020600000000002060000000000201000000000020300000000002010000000000202000000000020400022000000000000015200000000000003093200000000000000009999123100000010000000000000BRJFENACNOR0058
012024012908FRTA3       010POMIFRUTAS  ON      NM   R$  000000000017200000000001720000000000160000000000016400000000001630000000000163000000000016800060000000000000024900000000000004093500000000000000009999123100000010000000000000BRFRTAACNOR8103
012024012908AMER3       010AMERICANAS  ON      NM   R$  000000000008300000000000830000000000081000000000008200000000000830000000000082000000000008301175000000000004215300000000000345996700000000000000009999123100000010000000000000BRAMERACNOR6101
012024012908ETER3       010ETERNIT     ON      NM   R$  000000000075600000000007600000000000741000000000074500000000007410000000000741000000000074500643000000000000155700000000000116139900000000000000009999123100000010000000000000BRETERACNOR3242
012024012908HOOT4       010HOTEIS OTHONPN           R$  000000000028700000000002870000000000280000000000028300000000002840000000000282000000000028700006000000000000008300000000000002350200000000000000009999123100000010000000000000BRHOOTACNPR9015
012024012908LIGT3       010LIGHT S/A   ON      NM   R$  000000000062500000000006320000000000621000000000062700000000006260000000000626000000000062801211000000000000298900000000000187612100000000000000009999123100000010000000000000BRLIGTACNOR2124
012024012908OIBR3       010OI          ON      N1   R$  000000000006400000000000660000000000063000000000006400000000000640000000000064000000000006501317000000000006777900000000000439896600000000000000009999123100000010000000000000BROIBRACNOR1110
012024012908OIBR4       010OI          PN      N1   R$  000000000015700000000001610000000000155000000000015700000000001570000000000156000000000015700096000000000000045000000000000007109300000000000000009999123100000010000000000000BROIBRACNPR8109
012024012908OSXB3       010OSX BRASIL  ON      NM   R$  000000000064100000000007000000000000580000000000063000000000006100000000000610000000000061900230000000000000054800000000000034556100000000000000009999123100000010000000000000BROSXBACNOR8109
012024012908NEXP3       010NEXPE       ON      NM   R$  000000000049500000000004950000000000491000000000049200000000004910000000000491000000000049300008000000000000001900000000000000936000000000000000009999123100000010000000000000BRNEXPACNOR0101
012024012908PMAM3       010PARANAPANEMAON      NM   R$  000000000042700000000004270000000000414000000000041700000000004180000000000418000000000041900036000000000000006100000000000002547600000000000000009999123100000010000000000000BRPMAMACNOR3038
012024012908ATMP3       010ATMASA      ON           R$  000000000030500000000003090000000000300000000000030400000000003090000000000301000000000030900032000000000000010900000000000003315000000000000000009999123100000010000000000000BRATMPACNOR8100
012024012908BDLL4       010BARDELLA    PN           R$  000000000083000000000008300000000000800000000000081200000000008000000000000800000000000089000006000000000000001100000000000000893600000000000000009999123100000010000000000000BRBDLLACNPR8151
012024012908RSID3       010ROSSI RESID ON      NM   R$  000000000037500000000003780000000000363000000000037100000000003760000000000370000000000037700100000000000000041900000000000015545700000000000000009999123100000010000000000000BRRSIDACNOR8120
012024012908TEKA4       010TEKA        PN           R$  000000000250000000000027850000000002500000000000270100000000027850000000002650000000000275200015000000000000001500000000000004052300000000000000009999123100000010000000000000BRTEKAACNPR3140
012024012908RNEW11      010RENOVA      UNT     N2   R$  000000000037600000000003770000000000361000000000036600000000003660000000000366000000000036800027000000000000005500000000000002017200000000000000009999123100000010000000000000BRRNEWCDAM15110
012024012908RNEW3       010RENOVA      ON      N2   R$  000000000012900000000001290000000000125000000000012500000000001270000000000125000000000012700100000000000000040000000000000005027400000000000000009999123100000010000000000000BRRNEWACNOR8110
012024012908RNEW4       010RENOVA      PN      N2   R$  000000000012600000000001270000000000122000000000012200000000001230000000000123000000000012400211000000000000203600000000000025033700000000000000009999123100000010000000000000BRRNEWACNPR5110
012024012908RPMG3       010PET MANGUINHON           R$  000000000020700000000002090000000000205000000000020500000000002060000000000208000000000020900007000000000000002000000000000000411400000000000000009999123100000010000000000000BRRPMGACNOR9194
012024012910ABCB2       010ABC BRASIL  DIR PRE N2   R$  000000000041900000000004190000000000391000000000040200000000003910000000000389000000000039100293000000000000030100000000000012112800000000000000009999123100000010000000000000BRABCBD18PR3144
012024012910LJQQ1       010QUERO-QUERO DIR ORD NM   R$  000000000010700000000001220000000000102000000000011200000000001020000000000102000000000011500166000000000000024800000000000002789000000000000000009999123100000010000000000000BRLJQQD01OR0103
012024012910RENT1       010LOCALIZA    DIR ORD NM   R$  000000000125000000000013160000000001119000000000120700000000011190000000000805000000000112000120000000000000019500000000000023538500000000000000009999123100000010000000000000BRRENTD05OR0193
012024012910VIVR1       010VIVER       DIR ORD NM   R$  000000000000400000000000090000000000004000000000000600000000000070000000000007000000000000900394000000000000461800000000000002775100000000000000009999123100000010000000000000BRVIVRD17OR5120
012024012910VSTE1       010VESTE       DIR ORD NM   R$  000000000001800000000000890000000000018000000000005100000000000300000000000035000000000008300024000000000000003000000000000000154500000000000000009999123100000010000000000000BRVSTED02OR8101
012024012912JSAF11      010FII JS A FINCI           R$  000000001019800000000102170000000010027000000001010800000000100570000000010057000000001010103122000000000000021813000000000220493029000000000000009999123100000010000000000000BRJSAFCTF000127
012024012912JSRE11      010FII JS REAL CI           R$  000000000758500000000076660000000007557000000000761300000000076250000000007593000000000762506600000000000000038485000000000293017543000000000000009999123100000010000000000000BRJSRECTF007257
012024012912KCRE11      010FII KINEA CRCI           R$  000000000990000000000099570000000009853000000000990200000000099060000000009888000000000990600311000000000000003168000000000031372016000000000000009999123100000010000000000000BRKCRECTF009119
012024012912TORD11      010FII TORDE EICI           R$  000000000021300000000002130000000000210000000000021000000000002100000000000209000000000021000897000000000000062936000000000013262285000000000000009999123100000010000000000000BRTORDCTF015138
012024012912TRBL11      010FII SDI LOG CI           R$  000000000982900000000099850000000009810000000000986900000000099840000000009874000000000998402277000000000000007525000000000074268008000000000000009999123100000010000000000000BRTRBLCTF007107
012024012912TRNT11      010FII TORRE NOCI           R$  000000001240000000000126990000000012001000000001254300000000126990000000011840000000001270000004000000000000000113000000000001417447000000000000009999123100000010000000000000BRTRNTCTF013336
012024012912TRXB11      010FII TRX R IICI           R$  000000001449500000000144950000000014400000000001446300000000144000000000013751000000001480000002000000000000000003000000000000043390000000000000009999123100000010000000000000BRTRXBCTF002145
012024012912TRXF11      010FII TRX REALCI           R$  000000001111500000000111440000000011093000000001110500000000110990000000011098000000001109907140000000000000138562000000001538860191000000000000009999123100000010000000000000BRTRXFCTF003158
012024012912KEVE11      010FII EVEN II CI           R$  000000011421400000001142250000000114212000000011421200000001142250000000114225000000011690000008000000000000000054000000000006167500000000000000009999123100000010000000000000BRKEVECTF007110
012024012912KFOF11      010FII KINEAFOFCI           R$  000000001010000000000101430000000010059000000001009500000000100940000000010088000000001009401800000000000000007541000000000076128692000000000000009999123100000010000000000000BRKFOFCTF006164
012024012912KISU11      010FII KILIMA  CI           R$  000000000084600000000008480000000000840000000000084300000000008440000000000842000000000084405192000000000000104376000000000088024982000000000000009999123100000010000000000000BRKISUCTF000139
012024012912KIVO11      010FII KIVO    CI           R$  000000000947000000000095550000000009412000000000947500000000095300000000009531000000000954500841000000000000002533000000000024001460000000000000009999123100000010000000000000BRKIVOCTF007122
012024012912KNCR11      010FII KINEA RICI           R$  000000001030500000000103120000000010266000000001028900000000102870000000010286000000001028712735000000000000080861000000000832053126000000000000009999123100000010000000000000BRKNCRCTF000234
012024012912KNHF11      010FII KINEA HFCI           R$  000000001041900000000104680000000010411000000001043600000000104380000000010420000000001044002713000000000000014300000000000149235797000000000000009999123100000010000000000000BRKNHFCTF004106
012024012912KNHY11      010FII KINEA HYCI           R$  000000001051100000000106390000000010511000000001058400000000106000000000010600000000001060711311000000000000043826000000000463881737000000000000009999123100000010000000000000BRKNHYCTF005166
012024012912KNIP11      010FII KINEA IPCI           R$  000000000965200000000096780000000009645000000000964900000000096580000000009658000000000966808073000000000000099956000000000964482747000000000000009999123100000010000000000000BRKNIPCTF001188
012024012912KNRE11      010FII KII REALCI           R$  000000000004000000000000420000000000039000000000003900000000000390000000000039000000000004000057000000000000106578000000000004235603000000000000009999123100000010000000000000BRKNRECTF006129
