00COTAHIST.2024BOVESPA 20240115                                                                                                                                                                                                                      
012024011502VIVR3       010VIVER       ON      NM   R$  000000000052900000000005810000000000517000000000055200000000005710000000000569000000000057101521000000000000751000000000000415289400000000000000009999123100000010000000000000BRVIVRACNOR4120
012024011502VIVT3       010TELEF BRASILON           R$  000000000507500000000050910000000005041000000000507100000000050690000000005063000000000507703344000000000000696400000000003531752700000000000000009999123100000010000000000000BRVIVTACNOR0178
012024011502WEST3       010WESTWING    ON      NM   R$  000000000013400000000001360000000000133000000000013400000000001340000000000134000000000013500044000000000000051700000000000006928900000000000000009999123100000010000000000000BRWESTACNOR3100
012024011502WHRL3       010WHIRLPOOL   ON           R$  000000000042800000000004280000000000421000000000042300000000004210000000000421000000000042400006000000000000001300000000000000549900000000000000009999123100000010000000000000BRWHRLACNOR5128
012024011502WHRL4       010WHIRLPOOL   PN           R$  000000000044500000000004450000000000440000000000044300000000004420000000000442000000000044500033000000000000035600000000000015801700000000000000009999123100000010000000000000BRWHRLACNPR2128
012024011502WIZC3       010WIZ CO      ON      NM   R$  000000000066700000000006670000000000648000000000065400000000006540000000000653000000000065401253000000000000293500000000000192024500000000000000009999123100000010000000000000BRWIZCACNOR5101
012024011502SANB11      010SANTANDER BRUNT          R$  000000000303500000000030490000000002991000000000301800000000030290000000003029000000000303505902000000000001334400000000004027727600000000000000009999123100000010000000000000BRSANBCDAM13162
012024011502BGIP4       010BANESE      PN           R$  000000000250000000000027200000000002500000000000258500000000027200000000002600000000000274500015000000000000001800000000000004653400000000000000009999123100000010000000000000BRBGIPACNPR8206
012024011502BHIA3       010CASAS BAHIA ON      NM   R$  000000000100500000000010280000000001000000000000101500000000010110000000001011000000000101204574000000000002238000000000002272732000000000000000009999123100000010000000000000BRBHIAACNOR1101
012024011502BRBI11      010BR PARTNERS UNT     N2   R$  000000000155300000000016200000000001551000000000160300000000016010000000001601000000000161201344000000000000235900000000000378197600000000000000009999123100000010000000000000BRBRBICDAM10107
012024011502BRFS3       010BRF SA      ON      NM   R$  000000000128500000000013230000000001271000000000129900000000013130000000001312000000000131307045000000000003193000000000004150426800000000000000009999123100000010000000000000BRBRFSACNOR8121
012024011502SANB3       010SANTANDER BRON           R$  000000000142700000000014350000000001410000000000142200000000014280000000001428000000000143201103000000000000175800000000000249988800000000000000009999123100000010000000000000BRSANBACNOR8169
012024011502SANB4       010SANTANDER BRPN           R$  000000000160500000000016120000000001581000000000159900000000016040000000001604000000000161301022000000000000194700000000000311463900000000000000009999123100000010000000000000BRSANBACNPR5169
012024011502CRFB3       010CARREFOUR BRON      NM   R$  000000000122000000000012270000000001195000000000121300000000012140000000001214000000000121507322000000000005490700000000006662144200000000000000009999123100000010000000000000BRCRFBACNOR2116
012024011502CRIV4       010ALFA FINANC PN  EJ       R$  000000000055400000000005710000000000554000000000056300000000005710000000000552000000000057100003000000000000000700000000000000394600000000000000009999123100000010000000000000BRCRIVACNPR1211
012024011502CRPG5       010CRISTAL     PNA          R$  000000000371800000000037180000000003669000000000369000000000036690000000003650000000000370000016000000000000002100000000000007749700000000000000009999123100000010000000000000BRCRPGACNPA3118
012024011502CRPG6       010CRISTAL     PNB          R$  000000000369900000000037150000000003699000000000370300000000037150000000003603000000000371300003000000000000000400000000000001481200000000000000009999123100000010000000000000BRCRPGACNPB1118
012024011502CSAN3       010COSAN       ON      NM   R$  000000000195300000000019600000000001930000000000194500000000019550000000001953000000000195716126000000000004557300000000008867320000000000000000009999123100000010000000000000BRCSANACNOR6124
012024011502ENGI11      010ENERGISA    UNT     N2   R$  000000000535300000000054080000000005316000000000537000000000054010000000005374000000000540405975000000000000884600000000004751108400000000000000009999123100000010000000000000BRENGICDAM16135
012024011502ENGI3       010ENERGISA    ON      N2   R$  000000000187900000000018790000000001837000000000185300000000018660000000001848000000000186700027000000000000003500000000000006487100000000000000009999123100000010000000000000BRENGIACNOR0145
012024011502NEOE3       010NEOENERGIA  ON  EJ  NM   R$  000000000210900000000021300000000002101000000000211700000000021110000000002111000000000212002668000000000000505900000000001071143800000000000000009999123100000010000000000000BRNEOEACNOR3121
012024011502NGRD3       010NEOGRID     ON      NM   R$  000000000012400000000001290000000000123000000000012600000000001270000000000126000000000012700702000000000000600800000000000075930700000000000000009999123100000010000000000000BRNGRDACNOR3103
012024011502NINJ3       010GETNINJAS   ON      NM   R$  000000000049500000000004960000000000491000000000049100000000004910000000000491000000000049500115000000000000030300000000000014907000000000000000009999123100000010000000000000BRNINJACNOR5100
012024011502ENGI4       010ENERGISA    PN      N2   R$  000000000087000000000008870000000000869000000000087600000000008870000000000882000000000089000023000000000000003900000000000003416900000000000000009999123100000010000000000000BRENGIACNPR7141
012024011502ENJU3       010ENJOEI      ON      NM   R$  000000000018100000000001840000000000175000000000017900000000001800000000000180000000000018101619000000000000531600000000000095439800000000000000009999123100000010000000000000BRENJUACNOR9100
012024011502EPAR3       010EMBPAR S/A  ON           R$  000000000100300000000010150000000000995000000000100400000000010000000000000999000000000100000049000000000000018600000000000018679400000000000000009999123100000010000000000000BREPARACNOR9104
012024011502EQMA3B      010EQTLMARANHAOON      MB   R$  000000000298000000000030000000000002980000000000299400000000029990000000002908000000000300000004000000000000001200000000000003593900000000000000009999123100000010000000000000BREQMAACNOR8107
012024011502EQPA3       010EQTL PARA   ON  EJ       R$  000000000076000000000007680000000000725000000000074500000000007540000000000738000000000075500049000000000000007800000000000005812700000000000000009999123100000010000000000000BREQPAACNOR1110
012024011502EQTL3       010EQUATORIAL  ON      NM   R$  000000000348000000000035860000000003480000000000354200000000035640000000003563000000000356517255000000000005619400000000019904586100000000000000009999123100000010000000000000BREQTLACNOR0129
012024011502NORD3       010NORDON MET  ON           R$  000000000099500000000012600000000000933000000000114700000000010820000000001081000000000119700149000000000000019700000000000022614600000000000000009999123100000010000000000000BRNORDACNOR7135
012024011502NTCO3       010GRUPO NATURAON      NM   R$  000000000169100000000016910000000001645000000000166700000000016700000000001670000000000167808750000000000003277600000000005465727900000000000000009999123100000010000000000000BRNTCOACNOR5104
012024011502PETZ3       010PETZ        ON      NM   R$  000000000036400000000003670000000000360000000000036400000000003640000000000364000000000036505432000000000005823600000000002120083200000000000000009999123100000010000000000000BRPETZACNOR2109
012024011502RPAD5       010ALFA HOLDINGPNA          R$  000000000079000000000007900000000000790000000000079000000000007900000000000780000000000080900002000000000000000300000000000000237000000000000000009999123100000010000000000000BRRPADACNPA4217
012024011502RRRP3       0103R PETROLEUMON      NM   R$  000000000285700000000029200000000002840000000000287500000000029040000000002900000000000290710246000000000003859400000000011097855900000000000000009999123100000010000000000000BRRRRPACNOR5102
012024011502UCAS3       010UNICASA     ON      NM   R$  000000000026600000000002700000000000266000000000026800000000002660000000000266000000000027000058000000000000033600000000000009032500000000000000009999123100000010000000000000BRUCASACNOR1113
012024011502JHSF3       010JHSF PART   ON      NM   R$  000000000051300000000005180000000000507000000000051100000000005140000000000513000000000051603310000000000001419600000000000725543900000000000000009999123100000010000000000000BRJHSFACNOR2131
012024011502JSLG3       010JSL         ON      NM   R$  000000000127700000000013040000000001266000000000129200000000013040000000001292000000000130400601000000000000182000000000000235173900000000000000009999123100000010000000000000BRJSLGACNOR2121
012024011502UGPA3       010ULTRAPAR    ON      NM   R$  000000000278500000000028060000000002763000000000278600000000028060000000002804000000000280805597000000000001409400000000003927640900000000000000009999123100000010000000000000BRUGPAACNOR8154
012024011502UNIP3       010UNIPAR      ON           R$  000000000697300000000069730000000006785000000000681800000000068230000000006795000000000682300125000000000000014700000000000100230300000000000000009999123100000010000000000000BRUNIPACNOR7204
012024011502UNIP5       010UNIPAR      PNA          R$  000000000777900000000077800000000007700000000000773900000000077800000000007779000000000809800004000000000000000400000000000003095900000000000000009999123100000010000000000000BRUNIPACNPA0206
012024011502UNIP6       010UNIPAR      PNB          R$  000000000737800000000074500000000007341000000000738700000000073910000000007391000000000739900516000000000000068900000000000509005500000000000000009999123100000010000000000000BRUNIPACNPB8204
012024011502USIM3       010USIMINAS    ON      N1   R$  000000000081100000000008200000000000798000000000080900000000008200000000000813000000000082002541000000000000903100000000000730921600000000000000009999123100000010000000000000BRUSIMACNOR3166
012024011502USIM5       010USIMINAS    PNA     N1   R$  000000000084100000000008540000000000836000000000084700000000008540000000000852000000000085407647000000000003936400000000003335759600000000000000009999123100000010000000000000BRUSIMACNPA6168
012024011502USIM6       010USIMINAS    PNB     N1   R$  000000000160000000000016280000000001600000000000160900000000016280000000001250000000000179900002000000000000000300000000000000482800000000000000009999123100000010000000000000BRUSIMACNPB4168
012024011502KEPL3       010KEPLER WEBERON      NM   R$  000000000101500000000010160000000001005000000000101000000000010080000000001008000000000101202259000000000000657800000000000664816900000000000000009999123100000010000000000000BRKEPLACNOR1061
012024011502KLBN11      010KLABIN S/A  UNT     N2   R$  000000000225100000000022660000000002236000000000225200000000022660000000002259000000000226705368000000000001528100000000003442680800000000000000009999123100000010000000000000BRKLBNCDAM18139
012024011502KLBN3       010KLABIN S/A  ON      N2   R$  000000000044900000000004510000000000446000000000044800000000004510000000000450000000000045100953000000000000325100000000000145894300000000000000009999123100000010000000000000BRKLBNACNOR2167
012024011502KLBN4       010KLABIN S/A  PN      N2   R$  000000000045000000000004530000000000447000000000044900000000004520000000000452000000000045301807000000000001268800000000000570904100000000000000009999123100000010000000000000BRKLBNACNPR9167
012024011502WLMM4       010WLM IND COM PN           R$  000000000280000000000028500000000002800000000000281600000000028410000000002701000000000284200007000000000000001500000000000004224100000000000000009999123100000010000000000000BRWLMMACNPR3116
012024011502MRVE3       010MRV         ON      NM   R$  000000000079600000000008170000000000778000000000079500000000007860000000000786000000000078736341000000000032865500000000026137025300000000000000009999123100000010000000000000BRMRVEACNOR2126
012024011502B3SA3       010B3          ON      NM   R$  000000000141000000000014150000000001399000000000140900000000014130000000001413000000000141415299000000000013922400000000019624949900000000000000009999123100000010000000000000BRB3SAACNOR6130
012024011502YDUQ3       010YDUQS PART  ON      NM   R$  000000000209900000000021490000000002084000000000212700000000021310000000002131000000000213208835000000000001898300000000004038916300000000000000009999123100000010000000000000BRYDUQACNOR3104
012024011502ZAMP3       010ZAMP S.A.   ON           R$  000000000057900000000005900000000000571000000000057900000000005850000000000585000000000058801002000000000001433700000000000830368100000000000000009999123100000010000000000000BRZAMPACNOR5100
012024011502RECV3       010PETRORECSA  ON      NM   R$  000000000208000000000021490000000002063000000000212200000000021240000000002123000000000213804791000000000001103700000000002342852000000000000000009999123100000010000000000000BRRECVACNOR3105
012024011502BEEF3       010MINERVA     ON      NM   R$  000000000070500000000007100000000000700000000000070500000000007060000000000706000000000070704113000000000005973300000000004212443900000000000000009999123100000010000000000000BRBEEFACNOR6116
012024011502BPAN4       010BANCO PAN   PN      N1   R$  000000000082800000000008300000000000812000000000082100000000008240000000000823000000000082601693000000000000571400000000000469531900000000000000009999123100000010000000000000BRBPANACNPR1115
012024011502REDE3       010REDE ENERGIAON           R$  000000000070600000000007260000000000695000000000070000000000007000000000000696000000000070200106000000000000027200000000000019066200000000000000009999123100000010000000000000BRREDEACNOR7126
012024011502RENT3       010LOCALIZA    ON      NM   R$  000000000610100000000061500000000005970000000000607500000000061180000000006116000000000612411679000000000002178400000000013235195700000000000000009999123100000010000000000000BRRENTACNOR4194
012024011502BRAP3       010BRADESPAR   ON      N1   R$  000000000218200000000021820000000002161000000000217000000000021750000000002170000000000217500300000000000000055900000000000121316900000000000000009999123100000010000000000000BRBRAPACNOR5147
012024011502BRAP4       010BRADESPAR   PN      N1   R$  000000000238000000000023860000000002350000000000236900000000023860000000002385000000000238604941000000000001468400000000003478907700000000000000009999123100000010000000000000BRBRAPACNPR2147
012024011502CPFE3       010CPFL ENERGIAON      NM   R$  000000000375400000000037750000000003724000000000374700000000037600000000003760000000000376903970000000000000747600000000002801582800000000000000009999123100000010000000000000BRCPFEACNOR0136
012024011502CPLE3       010COPEL       ON      N2   R$  000000000091400000000009220000000000905000000000091300000000009140000000000914000000000091703424000000000004482700000000004094589300000000000000009999123100000010000000000000BRCPLEACNOR8148
012024011502CPLE6       010COPEL       PNB     N2   R$  000000000100900000000010220000000001008000000000101600000000010220000000001021000000000102212361000000000008596800000000008741410200000000000000009999123100000010000000000000BRCPLEACNPB9145
012024011502ELMD3       010ELETROMIDIA ON      NM   R$  000000000176000000000018000000000001741000000000177900000000017800000000001759000000000178200252000000000000050100000000000089177800000000000000009999123100000010000000000000BRELMDACNOR3100
012024011502EMAE4       010EMAE        PN           R$  000000000577000000000058450000000005727000000000578200000000058300000000005775000000000584800015000000000000001700000000000009830100000000000000009999123100000010000000000000BREMAEACNPR1124
012024011502EMBR3       010EMBRAER     ON      NM   R$  000000000216300000000021680000000002136000000000214300000000021420000000002142000000000214904470000000000001649100000000003535154700000000000000009999123100000010000000000000BREMBRACNOR4191
012024011502ENAT3       010ENAUTA PART ON      NM   R$  000000000184700000000019470000000001844000000000191000000000019420000000001938000000000194206630000000000002311300000000004415923100000000000000009999123100000010000000000000BRENATACNOR0104
012024011502MLAS3       010MULTILASER  ON      NM   R$  000000000020000000000002030000000000198000000000020000000000002020000000000200000000000020202233000000000001293100000000000258678100000000000000009999123100000010000000000000BRMLASACNOR9101
012024011502MNDL3       010MUNDIAL     ON           R$  000000000475000000000047500000000004655000000000468600000000046550000000004656000000000497600003000000000000000300000000000001406000000000000000009999123100000010000000000000BRMNDLACNOR4107
012024011502MNPR3       010MINUPAR     ON           R$  000000000184900000000018780000000001849000000000185400000000018780000000001743000000000188000004000000000000000600000000000001112700000000000000009999123100000010000000000000BRMNPRACNOR5122
012024011502MOVI3       010MOVIDA      ON      NM   R$  000000000104000000000010470000000001022000000000103400000000010310000000001031000000000103307640000000000002754400000000002848280300000000000000009999123100000010000000000000BRMOVIACNOR0122
012024011502RANI3       010IRANI       ON      NM   R$  000000000105700000000010670000000001051000000000106000000000010630000000001061000000000106301386000000000000362400000000000384300000000000000000009999123100000010000000000000BRRANIACNOR5069
012024011502RAPT3       010RANDON PART ON      N1   R$  000000000117300000000011800000000001131000000000116700000000011800000000001180000000000118500106000000000000027900000000000032575000000000000000009999123100000010000000000000BRRAPTACNOR7162
012024011502RAPT4       010RANDON PART PN      N1   R$  000000000125800000000012660000000001222000000000124600000000012380000000001236000000000123903832000000000001676800000000002089367200000000000000009999123100000010000000000000BRRAPTACNPR4162
012024011502BAHI3       010BAHEMA      ON      MA   R$  000000000077900000000007800000000000779000000000077900000000007790000000000765000000000077900003000000000000001500000000000001169400000000000000009999123100000010000000000000BRBAHIACNOR1074
012024011502RCSL3       010RECRUSUL    ON           R$  000000000034900000000003630000000000336000000000034700000000003450000000000345000000000034904924000000000004607400000000001602343100000000000000009999123100000010000000000000BRRCSLACNOR4133
012024011502RCSL4       010RECRUSUL    PN           R$  000000000008000000000000810000000000078000000000007900000000000800000000000079000000000008001185000000000001091400000000000086907000000000000000009999123100000010000000000000BRRCSLACNPR1133
012024011502RDNI3       010RNI         ON      NM   R$  000000000046000000000004600000000000452000000000045400000000004560000000000451000000000045600014000000000000001900000000000000864200000000000000009999123100000010000000000000BRRDNIACNOR9116
012024011502RDOR3       010REDE D OR   ON      NM   R$  000000000280400000000028740000000002804000000000284100000000028350000000002834000000000283705152000000000001183400000000003362830500000000000000009999123100000010000000000000BRRDORACNOR8111
012024011502TAEE11      010TAESA       UNT ED  N2   R$  000000000375800000000037850000000003744000000000376800000000037850000000003784000000000378504519000000000000933100000000003516164800000000000000009999123100000010000000000000BRTAEECDAM10145
012024011502TAEE3       010TAESA       ON  ED  N2   R$  000000000124800000000012540000000001241000000000124900000000012530000000001247000000000125400456000000000000110700000000000138292200000000000000009999123100000010000000000000BRTAEEACNOR9145
012024011502TAEE4       010TAESA       PN  ED  N2   R$  000000000125400000000012640000000001251000000000125700000000012580000000001258000000000126300597000000000000181200000000000227887400000000000000009999123100000010000000000000BRTAEEACNPR6145
012024011502BALM4       010BAUMER      PN           R$  000000000104000000000010400000000001039000000000103900000000010400000000001000000000000108000004000000000000001300000000000001350900000000000000009999123100000010000000000000BRBALMACNPR2056
012024011502BAUH4       010EXCELSIOR   PN           R$  000000000800000000000081590000000008000000000000811900000000081590000000008000000000000816000003000000000000000400000000000003247700000000000000009999123100000010000000000000BRBAUHACNPR3117
012024011502BAZA3       010AMAZONIA    ON           R$  000000000916100000000092100000000009113000000000916900000000091540000000009113000000000920000013000000000000001700000000000015587600000000000000009999123100000010000000000000BRBAZAACNOR0178
012024011502BBAS3       010BRASIL      ON      NM   R$  000000000551000000000056200000000005500000000000557200000000056200000000005619000000000562025550000000000008413800000000046887122100000000000000009999123100000010000000000000BRBBASACNOR3319
012024011502BEES3       010BANESTES    ON           R$  000000000091900000000009350000000000917000000000092200000000009350000000000931000000000093400064000000000000008000000000000007380000000000000000009999123100000010000000000000BRBEESACNOR9386
012024011502BEES4       010BANESTES    PN           R$  000000000099200000000009970000000000984000000000099000000000009960000000000993000000000100000024000000000000002900000000000002871400000000000000009999123100000010000000000000BRBEESACNPR6311
012024011502RADL3       010RAIADROGASILON      NM   R$  000000000281700000000028210000000002780000000000279200000000027960000000002793000000000279706602000000000001919500000000005360901300000000000000009999123100000010000000000000BRRADLACNOR0154
012024011502SMTO3       010SAO MARTINHOON      NM   R$  000000000267400000000027210000000002662000000000270000000000027110000000002698000000000271103496000000000000671300000000001812799500000000000000009999123100000010000000000000BRSMTOACNOR3125
012024011502SNSY3       010SANSUY      ON           R$  000000000053000000000006440000000000508000000000055900000000005570000000000540000000000055800098000000000000014100000000000007891700000000000000009999123100000010000000000000BRSNSYACNOR2113
012024011502SNSY5       010SANSUY      PNA          R$  000000000035500000000003720000000000350000000000035700000000003600000000000360000000000037200062000000000000036800000000000013170000000000000000009999123100000010000000000000BRSNSYACNPA5111
012024011502SOJA3       010BOA SAFRA   ON      NM   R$  000000000157800000000016180000000001560000000000159900000000016090000000001607000000000161100867000000000000153600000000000245691900000000000000009999123100000010000000000000BRSOJAACNOR9105
012024011502SOMA3       010GRUPO SOMA  ON      NM   R$  000000000078200000000007820000000000754000000000076400000000007600000000000760000000000076114715000000000007435200000000005684290100000000000000009999123100000010000000000000BRSOMAACNOR3102
012024011502SOND5       010SONDOTECNICAPNA          R$  000000000540000000000054000000000005400000000000540000000000054000000000005113000000000540000001000000000000000100000000000000540000000000000000009999123100000010000000000000BRSONDACNPA8165
012024011502SEER3       010SER EDUCA   ON      NM   R$  000000000070100000000007160000000000692000000000070600000000007120000000000712000000000071500932000000000000406200000000000287000600000000000000009999123100000010000000000000BRSEERACNOR5119
012024011502SEQL3       010SEQUOIA LOG ON      NM   R$  000000000006000000000000610000000000058000000000005900000000000600000000000059000000000006004909000000000006829700000000000404932100000000000000009999123100000010000000000000BRSEQLACNOR2101
012024011502SGPS3       010SPRINGS     ON      NM   R$  000000000012300000000001370000000000122000000000013100000000001310000000000131000000000013200993000000000001870000000000000245039000000000000000009999123100000010000000000000BRSGPSACNOR4104
012024011502SHOW3       010TIME FOR FUNON      NM   R$  000000000020900000000002140000000000206000000000021000000000002140000000000211000000000021400253000000000000213400000000000044924000000000000000009999123100000010000000000000BRSHOWACNOR7105
012024011502SHUL4       010SCHULZ      PN           R$  000000000068700000000006870000000000674000000000068100000000006850000000000681000000000068501528000000000000300500000000000204654500000000000000009999123100000010000000000000BRSHULACNPR4154
012024011502SIMH3       010SIMPAR      ON      NM   R$  000000000090400000000009170000000000900000000000090700000000009120000000000912000000000091304268000000000001917200000000001739711800000000000000009999123100000010000000000000BRSIMHACNOR0107
012024011502SLCE3       010SLC AGRICOLAON      NM   R$  000000000176900000000017940000000001764000000000177800000000017750000000001775000000000177704769000000000001290500000000002295018800000000000000009999123100000010000000000000BRSLCEACNOR2124
012024011502SMFT3       010SMART FIT   ON      NM   R$  000000000254500000000025640000000002499000000000251900000000025350000000002534000000000254107045000000000004521200000000011391922500000000000000009999123100000010000000000000BRSMFTACNOR1111
012024011502PDGR3       010PDG REALT   ON      NM   R$  000000000004200000000000450000000000041000000000004200000000000430000000000042000000000004300668000000000003907800000000000166776300000000000000009999123100000010000000000000BRPDGRACNOR8118
012024011502PDTC3       010PADTEC      ON      NM   R$  000000000030600000000003100000000000301000000000030300000000003030000000000302000000000030300115000000000000062600000000000018984800000000000000009999123100000010000000000000BRPDTCACNOR3100
012024011502PETR3       010PETROBRAS   ON      N2   R$  000000000393600000000040040000000003931000000000398300000000040040000000003986000000000400406746000000000002358000000000009394028200000000000000009999123100000010000000000000BRPETRACNOR9202
012024011502PETR4       010PETROBRAS   PN      N2   R$  000000000379900000000038620000000003786000000000383600000000038580000000003858000000000385922809000000000013818300000000053015722300000000000000009999123100000010000000000000BRPETRACNPR6209
012024011502PFRM3       010PROFARMA    ON      NM   R$  000000000049200000000005000000000000483000000000048900000000004900000000000490000000000049100646000000000000228000000000000111530100000000000000009999123100000010000000000000BRPFRMACNOR1116
012024011502PGMN3       010PAGUE MENOS ON      NM   R$  000000000036600000000003700000000000361000000000036400000000003630000000000363000000000036402252000000000001279000000000000466711400000000000000009999123100000010000000000000BRPGMNACNOR8102
012024011502PINE4       010PINE        PN  EJ  N2   R$  000000000043400000000004590000000000427000000000044800000000004530000000000451000000000045302269000000000001167400000000000523549900000000000000009999123100000010000000000000BRPINEACNPR8148
012024011502PLAS3       010PLASCAR PARTON           R$  000000000072200000000007310000000000722000000000072300000000007310000000000685000000000073100002000000000000000500000000000000361900000000000000009999123100000010000000000000BRPLASACNOR2106
012024011502PLPL3       010PLANOEPLANO ON      NM   R$  000000000110400000000011380000000001100000000000111800000000011000000000001100000000000110701913000000000000485700000000000543448700000000000000009999123100000010000000000000BRPLPLACNOR5103
012024011502PNVL3       010DIMED       ON      NM   R$  000000000127800000000012950000000001264000000000127500000000012800000000001280000000000128201154000000000000220500000000000281356200000000000000009999123100000010000000000000BRPNVLACNOR9205
012024011502POMO3       010MARCOPOLO   ON      N2   R$  000000000056100000000005660000000000554000000000056100000000005650000000000558000000000056500335000000000000196700000000000110454400000000000000009999123100000010000000000000BRPOMOACNOR0095
012024011502POMO4       010MARCOPOLO   PN      N2   R$  000000000071800000000007340000000000713000000000072900000000007310000000000728000000000073105421000000000002285200000000001666801700000000000000009999123100000010000000000000BRPOMOACNPR7095
012024011502PORT3       010WILSON SONS ON      NM   R$  000000000172600000000018040000000001725000000000174500000000017500000000001740000000000175000345000000000000091100000000000159011000000000000000009999123100000010000000000000BRPORTACNOR8105
012024011502POSI3       010POSITIVO TECON      NM   R$  000000000067600000000006820000000000670000000000067500000000006790000000000678000000000068001698000000000000980700000000000662833300000000000000009999123100000010000000000000BRPOSIACNOR9115
012024011502PRIO3       010PETRORIO    ON      NM   R$  000000000457600000000047150000000004559000000000466100000000047070000000004707000000000470915682000000000005513600000000025701707000000000000000009999123100000010000000000000BRPRIOACNOR1106
012024011502SAPR11      010SANEPAR     UNT     N2   R$  000000000288200000000029440000000002882000000000292100000000029390000000002925000000000294302562000000000000617400000000001803876700000000000000009999123100000010000000000000BRSAPRCDAM13117
012024011502SAPR3       010SANEPAR     ON      N2   R$  000000000055500000000005600000000000551000000000055500000000005560000000000556000000000056000512000000000000208800000000000116055700000000000000009999123100000010000000000000BRSAPRACNOR9158
012024011502SAPR4       010SANEPAR     PN      N2   R$  000000000058200000000005920000000000579000000000058700000000005880000000000588000000000059202690000000000001775600000000001042623100000000000000009999123100000010000000000000BRSAPRACNPR6158
012024011502SBFG3       010GRUPO SBF   ON      NM   R$  000000000117600000000011830000000001150000000000117000000000011750000000001174000000000117903281000000000001334900000000001562450600000000000000009999123100000010000000000000BRSBFGACNOR1102
012024011502SBSP3       010SABESP      ON      NM   R$  000000000770000000000077800000000007692000000000773400000000077300000000007730000000000774806933000000000001345800000000010409584000000000000000009999123100000010000000000000BRSBSPACNOR5160
012024011502SCAR3       010SAO CARLOS  ON      NM   R$  000000000275800000000027580000000002660000000000268600000000026820000000002452000000000268300010000000000000001100000000000002955600000000000000009999123100000010000000000000BRSCARACNOR7130
012024011502VALE3       010VALE        ON      NM   R$  000000000712200000000071700000000007070000000000711900000000071550000000007154000000000715832988000000000012745700000000090742048700000000000000009999123100000010000000000000BRVALEACNOR0209
012024011502MWET4       010WETZEL S/A  PN           R$  000000000072600000000007600000000000726000000000075300000000007280000000000731000000000075900008000000000000001400000000000001054200000000000000009999123100000010000000000000BRMWETACNPR3118
012024011502MYPK3       010IOCHP-MAXIONON      NM   R$  000000000121800000000012400000000001205000000000122100000000012170000000001217000000000122703768000000000001448600000000001769625700000000000000009999123100000010000000000000BRMYPKACNOR7153
012024011502ODPV3       010ODONTOPREV  ON      NM   R$  000000000120100000000012140000000001191000000000120000000000012000000000001200000000000120303188000000000002056700000000002468512200000000000000009999123100000010000000000000BRODPVACNOR4198
012024011502OFSA3       010OUROFINO S/AON      NM   R$  000000000258000000000027720000000002480000000000265300000000024800000000002480000000000252000084000000000000012800000000000033967400000000000000009999123100000010000000000000BROFSAACNOR7117
012024011502ONCO3       010ONCOCLINICASON      NM   R$  000000000120800000000012110000000001175000000000118900000000011830000000001182000000000118303100000000000000810900000000000964866800000000000000009999123100000010000000000000BRONCOACNOR6100
012024011502OPCT3       010OCEANPACT   ON      NM   R$  000000000058700000000005930000000000563000000000057300000000005680000000000565000000000056804437000000000001755700000000001006368000000000000000009999123100000010000000000000BROPCTACNOR0100
012024011502ORVR3       010ORIZON      ON      NM   R$  000000000365100000000036510000000003593000000000361500000000036150000000003615000000000361701379000000000000201700000000000729169400000000000000009999123100000010000000000000BRORVRACNOR0101
012024011502OSXB3       010OSX BRASIL  ON      NM   R$  000000000043000000000004420000000000427000000000043700000000004400000000000430000000000043900012000000000000005900000000000002583500000000000000009999123100000010000000000000BROSXBACNOR8109
012024011502ALLD3       010ALLIED      ON      NM   R$  000000000074000000000007550000000000732000000000074500000000007400000000000740000000000074700078000000000000017800000000000013269700000000000000009999123100000010000000000000BRALLDACNOR3105
012024011502ALOS3       010ALLOS       ON      NM   R$  000000000255800000000025820000000002540000000000255700000000025560000000002556000000000256007685000000000001490000000000003811366500000000000000009999123100000010000000000000BRALOSACNOR5100
012024011502ALPA3       010ALPARGATAS  ON      N1   R$  000000000097100000000009710000000000971000000000097100000000009710000000000950000000000097400002000000000000000200000000000000194200000000000000009999123100000010000000000000BRALPAACNOR0231
012024011502BBDC3       010BRADESCO    ON      N1   R$  000000000143000000000014350000000001417000000000142700000000014350000000001433000000000143503863000000000002719600000000003880930500000000000000009999123100000010000000000000BRBBDCACNOR1765
012024011502BBDC4       010BRADESCO    PN      N1   R$  000000000157500000000015890000000001565000000000158100000000015870000000001586000000000158722928000000000011765400000000018603833700000000000000009999123100000010000000000000BRBBDCACNPR8765
012024011502CBAV3       010CBA         ON      NM   R$  000000000046400000000004640000000000450000000000045400000000004530000000000453000000000045404482000000000001908200000000000868056800000000000000009999123100000010000000000000BRCBAVACNOR5104
012024011502CCRO3       010CCR SA      ON      NM   R$  000000000137200000000013810000000001358000000000136800000000013810000000001376000000000138105097000000000002559900000000003502904900000000000000009999123100000010000000000000BRCCROACNOR2144
012024011502CEAB3       010CEA MODAS   ON      NM   R$  000000000073600000000007640000000000731000000000075100000000007560000000000756000000000075803880000000000001399400000000001051546600000000000000009999123100000010000000000000BRCEABACNOR1101
012024011502BLAU3       010BLAU        ON      NM   R$  000000000154400000000015440000000001504000000000151400000000015120000000001512000000000151901283000000000000300800000000000455619700000000000000009999123100000010000000000000BRBLAUACNOR8111
012024011502PCAR3       010P.ACUCAR-CBDON      NM   R$  000000000040500000000005200000000000397000000000046900000000005000000000000500000000000050224807000000000034092300000000015993823600000000000000009999123100000010000000000000BRPCARACNOR3167
012024011502RSUL4       010RIOSULENSE  PN           R$  000000000789800000000079990000000007700000000000782100000000078090000000007636000000000839900029000000000000003400000000000026592600000000000000009999123100000010000000000000BRRSULACNPR3113
012024011502ENEV3       010ENEVA       ON      NM   R$  000000000127700000000012930000000001267000000000127700000000012800000000001279000000000128010536000000000004571600000000005840258300000000000000009999123100000010000000000000BRENEVACNOR8105
012024011502HBOR3       010HELBOR      ON      NM   R$  000000000028600000000002920000000000283000000000028800000000002920000000000291000000000029200829000000000000631600000000000182041500000000000000009999123100000010000000000000BRHBORACNOR3117
012024011502HBRE3       010HBR REALTY  ON      NM   R$  000000000052900000000005450000000000520000000000053500000000005390000000000539000000000054500517000000000000425900000000000227907800000000000000009999123100000010000000000000BRHBREACNOR4100
012024011502HBSA3       010HIDROVIAS   ON      NM   R$  000000000038500000000003890000000000378000000000038300000000003800000000000380000000000038105166000000000005028700000000001931000500000000000000009999123100000010000000000000BRHBSAACNOR0100
012024011502ROMI3       010ROMI        ON      NM   R$  000000000131900000000013200000000001306000000000131200000000013120000000001310000000000131500754000000000000137400000000000180276600000000000000009999123100000010000000000000BRROMIACNOR8192
012024011502TOTS3       010TOTVS       ON      NM   R$  000000000327400000000032740000000003210000000000322600000000032440000000003228000000000324405512000000000001117000000000003603668700000000000000009999123100000010000000000000BRTOTSACNOR8144
012024011502TPIS3       010TRIUNFO PARTON      NM   R$  000000000040500000000004080000000000402000000000040600000000004080000000000406000000000040800035000000000000022000000000000008953600000000000000009999123100000010000000000000BRTPISACNOR8118
012024011502TRAD3       010TC          ON      NM   R$  000000000008000000000000820000000000079000000000008000000000000800000000000079000000000008000203000000000000913100000000000073250000000000000000009999123100000010000000000000BRTRADACNOR3101
012024011502TRIS3       010TRISUL      ON      NM   R$  000000000052700000000005300000000000518000000000052500000000005220000000000520000000000052201351000000000000353300000000000185528100000000000000009999123100000010000000000000BRTRISACNOR4116
012024011502TRPL3       010TRAN PAULISTON      N1   R$  000000000366500000000037440000000003665000000000370500000000037350000000003736000000000383400013000000000000001500000000000005558000000000000000009999123100000010000000000000BRTRPLACNOR4185
012024011502TRPL4       010TRAN PAULISTPN      N1   R$  000000000268000000000026900000000002665000000000267900000000026860000000002682000000000268604992000000000001069600000000002866149900000000000000009999123100000010000000000000BRTRPLACNPR1185
012024011502TTEN3       0103TENTOS     ON      NM   R$  000000000109800000000011040000000001082000000000109700000000010930000000001093000000000109806250000000000001222400000000001341351400000000000000009999123100000010000000000000BRTTENACNOR0102
012024011502TUPY3       010TUPY        ON      NM   R$  000000000265300000000026650000000002626000000000263900000000026340000000002634000000000264001732000000000000342100000000000902991900000000000000009999123100000010000000000000BRTUPYACNOR1182
012024011502HYPE3       010HYPERA      ON      NM   R$  000000000351500000000035170000000003437000000000346500000000034480000000003445000000000344804642000000000000888300000000003078175100000000000000009999123100000010000000000000BRHYPEACNOR0136
012024011502MRFG3       010MARFRIG     ON      NM   R$  000000000095600000000009670000000000945000000000095800000000009600000000000960000000000096105457000000000002186000000000002096242100000000000000009999123100000010000000000000BRMRFGACNOR0116
012024011502MILS3       010MILLS       ON      NM   R$  000000000131000000000013300000000001298000000000132000000000013180000000001318000000000131900981000000000000238500000000000314887400000000000000009999123100000010000000000000BRMILSACNOR2124
012024011502VITT3       010VITTIA      ON      NM   R$  000000000097500000000009750000000000955000000000095800000000009550000000000955000000000095900849000000000000155900000000000149417800000000000000009999123100000010000000000000BRVITTACNOR4106
012024011502VIVA3       010VIVARA S.A. ON      NM   R$  000000000352000000000035580000000003494000000000352300000000035290000000003524000000000353007158000000000001196500000000004216051200000000000000009999123100000010000000000000BRVIVAACNOR0106
012024011502TASA3       010TAURUS ARMASON      N2   R$  000000000151500000000015150000000001491000000000150000000000015040000000001500000000000150600034000000000000006000000000000009005700000000000000009999123100000010000000000000BRTASAACNOR7103
012024011502TASA4       010TAURUS ARMASPN      N2   R$  000000000150800000000015100000000001496000000000150200000000015040000000001503000000000150400694000000000000120000000000000180267600000000000000009999123100000010000000000000BRTASAACNPR4103
012024011502TCSA3       010TECNISA     ON      NM   R$  000000000035000000000003600000000000331000000000034100000000003450000000000345000000000035900209000000000000130500000000000044578900000000000000009999123100000010000000000000BRTCSAACNOR3112
012024011502TECN3       010TECHNOS     ON      NM   R$  000000000036700000000003680000000000357000000000036300000000003660000000000363000000000036600349000000000000116000000000000042151800000000000000009999123100000010000000000000BRTECNACNOR6108
012024011502TELB3       010TELEBRAS    ON           R$  000000000155300000000015690000000001553000000000156100000000015690000000001552000000000159500002000000000000000200000000000000312200000000000000009999123100000010000000000000BRTELBACNOR2140
012024011502TELB4       010TELEBRAS    PN           R$  000000000118000000000011900000000001170000000000118100000000011900000000001190000000000119700014000000000000003300000000000003898400000000000000009999123100000010000000000000BRTELBACNPR9140
012024011502TEND3       010TENDA       ON      NM   R$  000000000100000000000010380000000000984000000000101200000000010140000000001012000000000101506236000000000003568400000000003612017800000000000000009999123100000010000000000000BRTENDACNOR4111
012024011502TFCO4       010TRACK FIELD PN      N2   R$  000000000142400000000014490000000001395000000000142000000000014100000000001410000000000141100785000000000000105700000000000150166000000000000000009999123100000010000000000000BRTFCOACNPR8111
012024011502TGMA3       010TEGMA       ON      NM   R$  000000000267300000000026760000000002633000000000265800000000026730000000002659000000000267300627000000000000100700000000000267732100000000000000009999123100000010000000000000BRTGMAACNOR7143
012024011502TIMS3       010TIM         ON      NM   R$  000000000172300000000017460000000001717000000000173500000000017460000000001741000000000174804605000000000001902800000000003302200900000000000000009999123100000010000000000000BRTIMSACNOR5114
012024011502VAMO3       010VAMOS       ON      NM   R$  000000000094000000000009590000000000940000000000095100000000009530000000000951000000000095307519000000000002435000000000002317593400000000000000009999123100000010000000000000BRVAMOACNOR7105
012024011502VBBR3       010VIBRA       ON      NM   R$  000000000230100000000023140000000002278000000000228700000000023010000000002299000000000230909003000000000007201400000000016476243900000000000000009999123100000010000000000000BRVBBRACNOR1106
012024011502VLID3       010VALID       ON      NM   R$  000000000203300000000020670000000002010000000000204700000000020590000000002045000000000206002975000000000000540400000000001106299300000000000000009999123100000010000000000000BRVLIDACNOR5141
012024011502VSTE3       010VESTE       ON      NM   R$  000000000190500000000019050000000001847000000000188700000000019000000000001900000000000190200052000000000000010600000000000020008200000000000000009999123100000010000000000000BRVSTEACNOR5101
012024011502VULC3       010VULCABRAS   ON      NM   R$  000000000200200000000020370000000001970000000000201700000000020290000000002023000000000202901669000000000000245700000000000495766900000000000000009999123100000010000000000000BRVULCACNOR2156
012024011502VVEO3       010VIVEO       ON      NM   R$  000000000127400000000012810000000001253000000000126300000000012610000000001261000000000127201713000000000000515700000000000651626800000000000000009999123100000010000000000000BRVVEOACNOR0103
012024011502WEGE3       010WEG         ON      NM   R$  000000000346700000000034790000000003421000000000344000000000034320000000003432000000000343308258000000000002592600000000008919899800000000000000009999123100000010000000000000BRWEGEACNOR0220
012024011502RAIL3       010RUMO S.A.   ON      NM   R$  000000000234600000000023510000000002315000000000233200000000023290000000002328000000000232907774000000000003910300000000009120236400000000000000009999123100000010000000000000BRRAILACNOR9104
012024011502RAIZ4       010RAIZEN      PN      N2   R$  000000000039900000000004010000000000395000000000039800000000004000000000000399000000000040004574000000000005014300000000001998809700000000000000009999123100000010000000000000BRRAIZACNPR6109
012024011502SRNA3       010SERENA      ON      NM   R$  000000000098300000000010050000000000968000000000099500000000009980000000000993000000000100001026000000000000246800000000000245766400000000000000009999123100000010000000000000BRSRNAACNOR4100
012024011502STBP3       010SANTOS BRP  ON      NM   R$  000000000098200000000009840000000000969000000000097500000000009770000000000976000000000098403381000000000001342500000000001309588900000000000000009999123100000010000000000000BRSTBPACNOR3128
012024011502SUZB3       010SUZANO S.A. ON      NM   R$  000000000536100000000054050000000005342000000000538100000000053860000000005384000000000538605805000000000001117900000000006015452400000000000000009999123100000010000000000000BRSUZBACNOR0129
012024011502SYNE3       010SYN PROP TECON      NM   R$  000000000044400000000004650000000000444000000000045600000000004540000000000454000000000045501060000000000000225800000000000103055400000000000000009999123100000010000000000000BRSYNEACNOR2102
012024011502PRNR3       010PRINER      ON      NM   R$  000000000114500000000011450000000001109000000000112200000000011300000000001130000000000113300691000000000000123800000000000139018800000000000000009999123100000010000000000000BRPRNRACNOR4108
012024011502PSSA3       010PORTO SEGUROON      NM   R$  000000000275000000000027990000000002715000000000275900000000027800000000002780000000000278706153000000000001355100000000003739636500000000000000009999123100000010000000000000BRPSSAACNOR7153
012024011502PTBL3       010PORTOBELLO  ON      NM   R$  000000000067700000000006880000000000664000000000067900000000006850000000000680000000000068501184000000000000288000000000000195712300000000000000009999123100000010000000000000BRPTBLACNOR8132
012024011502PTNT3       010PETTENATI   ON           R$  000000000119600000000011960000000001190000000000119300000000011900000000001141000000000119600002000000000000000200000000000000238600000000000000009999123100000010000000000000BRPTNTACNOR6042
012024011502PTNT4       010PETTENATI   PN           R$  000000000083400000000008500000000000834000000000084000000000008500000000000831000000000085000012000000000000007100000000000005966700000000000000009999123100000010000000000000BRPTNTACNPR3047
012024011502QUAL3       010QUALICORP   ON      NM   R$  000000000032700000000003270000000000320000000000032400000000003240000000000323000000000032503955000000000002028800000000000658061100000000000000009999123100000010000000000000BRQUALACNOR6119
012024011502BMEB3       010MERCANTIL   ON      N1   R$  000000000210000000000021000000000002100000000000210000000000021000000000002050000000000210000004000000000000000400000000000000840000000000000000009999123100000010000000000000BRBMEBACNOR8205
012024011502BMEB4       010MERCANTIL   PN      N1   R$  000000000184500000000018450000000001818000000000183300000000018400000000001832000000000184000037000000000000006900000000000012648000000000000000009999123100000010000000000000BRBMEBACNPR5210
012024011502BMGB4       010BANCO BMG   PN      N1   R$  000000000033500000000003450000000000331000000000033800000000003360000000000335000000000033603428000000000001338400000000000452864900000000000000009999123100000010000000000000BRBMGBACNPR0108
012024011502BMKS3       010BIC MONARK  ON           R$  000000003680000000000368000000000034905000000003601500000000351000000000034906000000003680000006000000000000000007000000000000252110000000000000009999123100000010000000000000BRBMKSACNOR9165
012024011502BMOB3       010BEMOBI TECH ON      NM   R$  000000000134000000000013400000000001323000000000133200000000013340000000001327000000000133401132000000000000194000000000000258552400000000000000009999123100000010000000000000BRBMOBACNOR7103
012024011502BNBR3       010NORD BRASIL ON           R$  000000001195000000000119500000000011950000000001195000000000119500000000011700000000001220000003000000000000000400000000000004780000000000000000009999123100000010000000000000BRBNBRACNOR8206
012024011502BRKM3       010BRASKEM     ON      N1   R$  000000000190100000000019590000000001901000000000193800000000019310000000001925000000000200100146000000000000034700000000000067256600000000000000009999123100000010000000000000BRBRKMACNOR1119
012024011502BRKM5       010BRASKEM     PNA     N1   R$  000000000188600000000019040000000001872000000000188800000000018940000000001892000000000189403427000000000001179600000000002227702300000000000000009999123100000010000000000000BRBRKMACNPA4121
012024011502CSED3       010CRUZEIRO EDUON      NM   R$  000000000047900000000004830000000000475000000000047900000000004830000000000480000000000048301354000000000000271300000000000130121000000000000000009999123100000010000000000000BRCSEDACNOR9104
012024011502CSMG3       010COPASA      ON      NM   R$  000000000222800000000022890000000002228000000000226100000000022480000000002235000000000224805741000000000001179000000000002666738100000000000000009999123100000010000000000000BRCSMGACNOR5171
012024011502CSNA3       010SID NACIONALON           R$  000000000176500000000017870000000001746000000000177000000000017840000000001783000000000178605306000000000002763100000000004891470700000000000000009999123100000010000000000000BRCSNAACNOR6260
012024011502ESPA3       010ESPACOLASER ON      NM   R$  000000000010900000000001130000000000107000000000011000000000001110000000000110000000000011100456000000000001238300000000000136484700000000000000009999123100000010000000000000BRESPAACNOR7103
012024011502ESTR4       010ESTRELA     PN           R$  000000000045000000000004510000000000450000000000045000000000004500000000000450000000000052000004000000000000002500000000000001125100000000000000009999123100000010000000000000BRESTRACNPR0144
012024011502EUCA3       010EUCATEX     ON      N1   R$  000000000179100000000017910000000001771000000000177600000000017710000000001740000000000177100007000000000000001800000000000003197400000000000000009999123100000010000000000000BREUCAACNOR1157
012024011502BOBR4       010BOMBRIL     PN           R$  000000000022000000000002370000000000218000000000022900000000002280000000000230000000000023300131000000000000130800000000000029953700000000000000009999123100000010000000000000BRBOBRACNPR3128
012024011502BRSR3       010BANRISUL    ON      N1   R$  000000000141300000000014130000000001364000000000138900000000013910000000001374000000000140500051000000000000012900000000000017921700000000000000009999123100000010000000000000BRBRSRACNOR3185
012024011502BRSR6       010BANRISUL    PNB     N1   R$  000000000137000000000013770000000001358000000000136800000000013700000000001370000000000137202874000000000000739900000000001012393000000000000000009999123100000010000000000000BRBRSRACNPB4188
012024011502BSLI4       010BRB BANCO   PN           R$  000000000120100000000012010000000001198000000000119900000000011980000000001190000000000120500003000000000000000300000000000000359900000000000000009999123100000010000000000000BRBSLIACNPR2192
012024011502CTKA4       010KARSTEN     PN           R$  000000000180000000000020240000000001721000000000178400000000020240000000001763000000000202400006000000000000001200000000000002141500000000000000009999123100000010000000000000BRCTKAACNPR7043
012024011502CTNM4       010COTEMINAS   PN           R$  000000000014900000000001620000000000149000000000015600000000001580000000000156000000000015800111000000000000117700000000000018392000000000000000009999123100000010000000000000BRCTNMACNPR6129
012024011502CTSA3       010SANTANENSE  ON           R$  000000000044500000000004750000000000445000000000046500000000004600000000000460000000000046300038000000000000022600000000000010514800000000000000009999123100000010000000000000BRCTSAACNOR3062
012024011502CTSA4       010SANTANENSE  PN           R$  000000000022200000000002380000000000220000000000022500000000002250000000000223000000000022500246000000000000049200000000000011082200000000000000009999123100000010000000000000BRCTSAACNPR0062
012024011502CURY3       010CURY S/A    ON      NM   R$  000000000176900000000018030000000001761000000000178400000000017750000000001775000000000177703904000000000000664800000000001186580100000000000000009999123100000010000000000000BRCURYACNOR3107
012024011502CVCB3       010CVC BRASIL  ON      NM   R$  000000000032700000000003370000000000318000000000032600000000003350000000000335000000000033606604000000000014122800000000004615426600000000000000009999123100000010000000000000BRCVCBACNOR1115
012024011502FLRY3       010FLEURY      ON      NM   R$  000000000175400000000017580000000001736000000000174500000000017480000000001747000000000174904095000000000000960200000000001675986300000000000000009999123100000010000000000000BRFLRYACNOR5137
012024011502FRAS3       010FRAS-LE     ON      N1   R$  000000000161300000000016190000000001590000000000160500000000016120000000001612000000000162001133000000000000193100000000000310078600000000000000009999123100000010000000000000BRFRASACNOR0158
012024011502FRIO3       010METALFRIO   ON      NM   R$  000000002400000000000240000000000023712000000002387000000000239000000000021500000000002700000003000000000000000300000000000007161200000000000000009999123100000010000000000000BRFRIOACNOR2111
012024011502CXSE3       010CAIXA SEGURION      NM   R$  000000000132600000000013490000000001315000000000133800000000013380000000001338000000000133906642000000000002535000000000003393154600000000000000009999123100000010000000000000BRCXSEACNOR7105
012024011502CYRE3       010CYRELA REALTON      NM   R$  000000000226800000000023250000000002256000000000228900000000022870000000002286000000000229508546000000000002165600000000004958652100000000000000009999123100000010000000000000BRCYREACNOR7139
012024011502GGBR3       010GERDAU      ON      N1   R$  000000000200500000000020050000000001979000000000198900000000019990000000001998000000000200000315000000000000043500000000000086545200000000000000009999123100000010000000000000BRGGBRACNOR1189
012024011502GGBR4       010GERDAU      PN      N1   R$  000000000212500000000021320000000002105000000000212000000000021280000000002124000000000212811739000000000005029200000000010664740900000000000000009999123100000010000000000000BRGGBRACNPR8189
012024011502CAMB3       010CAMBUCI     ON           R$  000000000114400000000011440000000001122000000000113400000000011220000000001122000000000112900212000000000000044300000000000050236500000000000000009999123100000010000000000000BRCAMBACNOR4127
012024011502CAML3       010CAMIL       ON      NM   R$  000000000087100000000008850000000000851000000000087200000000008730000000000872000000000087305881000000000001424500000000001243373800000000000000009999123100000010000000000000BRCAMLACNOR3126
012024011502CASH3       010MELIUZ      ON      NM   R$  000000000075200000000007560000000000733000000000074300000000007460000000000745000000000074601554000000000000939300000000000697914700000000000000009999123100000010000000000000BRCASHACNOR8105
012024011502CSRN3       010COSERN      ON  EJ       R$  000000000290000000000029000000000002660000000000278000000000026600000000002670000000000289800002000000000000000200000000000000556000000000000000009999123100000010000000000000BRCSRNACNOR0190
012024011502CSUD3       010CSU DIGITAL ON      NM   R$  000000000198300000000020180000000001962000000000198800000000019900000000001980000000000199300596000000000000116800000000000232218500000000000000009999123100000010000000000000BRCSUDACNOR5107
012024011502HAGA4       010HAGA S/A    PN           R$  000000000011100000000001140000000000111000000000011200000000001140000000000113000000000011400025000000000000007100000000000000800500000000000000009999123100000010000000000000BRHAGAACNPR4103
012024011502HAPV3       010HAPVIDA     ON      NM   R$  000000000045000000000004630000000000450000000000045800000000004560000000000455000000000045719393000000000025791000000000011815443500000000000000009999123100000010000000000000BRHAPVACNOR4113
012024011502JALL3       010JALLESMACHADON      NM   R$  000000000076600000000007670000000000753000000000075600000000007530000000000753000000000075502203000000000000554200000000000419393500000000000000009999123100000010000000000000BRJALLACNOR0105
012024011502JBSS3       010JBS         ON      NM   R$  000000000248000000000024950000000002465000000000247800000000024730000000002472000000000247707631000000000002371300000000005876688700000000000000009999123100000010000000000000BRJBSSACNOR8121
012024011502ASAI3       010ASSAI       ON      NM   R$  000000000142400000000014790000000001414000000000145600000000014700000000001469000000000147013526000000000008029800000000011695671000000000000000009999123100000010000000000000BRASAIACNOR0106
012024011502ATOM3       010ATOMPAR     ON           R$  000000000021500000000002180000000000215000000000021600000000002150000000000215000000000021600021000000000000003900000000000000843700000000000000009999123100000010000000000000BRATOMACNOR1106
012024011502AURE3       010AUREN       ON      NM   R$  000000000132700000000013350000000001324000000000132900000000013310000000001331000000000133205120000000000001955800000000002600505400000000000000009999123100000010000000000000BRAUREACNOR9103
012024011502DMVF3       010D1000VFARMA ON      NM   R$  000000000059800000000006050000000000594000000000059800000000005980000000000595000000000059900108000000000000023800000000000014234300000000000000009999123100000010000000000000BRDMVFACNOR9100
012024011502DOHL4       010DOHLER      PN           R$  000000000050100000000005140000000000501000000000050200000000005030000000000503000000000051100007000000000000000900000000000000452600000000000000009999123100000010000000000000BRDOHLACNPR9066
012024011502DOTZ3       010DOTZ SA     ON      NM   R$  000000000082800000000008630000000000802000000000083100000000008020000000000802000000000084500037000000000000008600000000000007147100000000000000009999123100000010000000000000BRDOTZACNOR7101
012024011502DXCO3       010DEXCO       ON      NM   R$  000000000079800000000008070000000000788000000000079700000000008000000000000800000000000080106660000000000002815800000000002246859600000000000000009999123100000010000000000000BRDXCOACNOR8104
012024011502CLSC4       010CELESC      PN      N2   R$  000000000667500000000067880000000006670000000000675500000000067560000000006756000000000677000017000000000000005700000000000038504200000000000000009999123100000010000000000000BRCLSCACNPR3128
012024011502CMIG3       010CEMIG       ON      N1   R$  000000000152400000000015670000000001513000000000152600000000015380000000001536000000000153800860000000000000246300000000000375933600000000000000009999123100000010000000000000BRCMIGACNOR6239
012024011502CMIG4       010CEMIG       PN      N1   R$  000000000121000000000012190000000001196000000000120600000000012150000000001214000000000121619275000000000007291300000000008798358100000000000000009999123100000010000000000000BRCMIGACNPR3240
012024011502DASA3       010DASA        ON      NM   R$  000000000093900000000009390000000000910000000000091800000000009150000000000915000000000092000844000000000000119000000000000109278000000000000000009999123100000010000000000000BRDASAACNOR1122
012024011502DESK3       010DESKTOP     ON      NM   R$  000000000133100000000013590000000001321000000000134600000000013340000000001331000000000133400445000000000000081900000000000110269000000000000000009999123100000010000000000000BRDESKACNOR2103
012024011502DEXP3       010DEXXOS PAR  ON      N1   R$  000000000118100000000011900000000001164000000000117900000000011670000000001167000000000117700223000000000000040100000000000047284700000000000000009999123100000010000000000000BRDEXPACNOR1104
012024011502DEXP4       010DEXXOS PAR  PN      N1   R$  000000000119000000000011900000000001161000000000118200000000011900000000001166000000000119000004000000000000000400000000000000473100000000000000009999123100000010000000000000BRDEXPACNPR8104
012024011502DIRR3       010DIRECIONAL  ON      NM   R$  000000000217800000000021910000000002156000000000217600000000021750000000002175000000000218003645000000000001058900000000002304713100000000000000009999123100000010000000000000BRDIRRACNOR0117
012024011502GEPA3       010GER PARANAP ON           R$  000000000269700000000026970000000002697000000000269700000000026970000000002676000000000269700001000000000000000100000000000000269700000000000000009999123100000010000000000000BRGEPAACNOR2152
012024011502GFSA3       010GAFISA      ON      NM   R$  000000000139000000000015870000000001373000000000148300000000015600000000001559000000000156011923000000000007706300000000011430355100000000000000009999123100000010000000000000BRGFSAACNOR3123
012024011502INEP3       010INEPAR      ON           R$  000000000039800000000004120000000000393000000000039700000000003960000000000396000000000040000173000000000000064100000000000025471100000000000000009999123100000010000000000000BRINEPACNOR1143
012024011502INEP4       010INEPAR      PN           R$  000000000031500000000003200000000000310000000000031400000000003110000000000311000000000031200124000000000000084700000000000026601100000000000000009999123100000010000000000000BRINEPACNPR8143
012024011502INTB3       010INTELBRAS   ON      NM   R$  000000000200100000000020090000000001956000000000199300000000020000000000002000000000000200702747000000000000523700000000001043763300000000000000009999123100000010000000000000BRINTBACNOR9109
012024011502IRBR3       010IRBBRASIL REON      NM   R$  000000000405000000000040880000000004017000000000405400000000040650000000004065000000000406602612000000000000658000000000002667863200000000000000009999123100000010000000000000BRIRBRACNOR4110
012024011502LUPA3       010LUPATECH    ON      NM   R$  000000000022700000000002380000000000221000000000023200000000002370000000000237000000000023800811000000000000791400000000000184148800000000000000009999123100000010000000000000BRLUPAACNOR8112
012024011502LVTC3       010WDC NETWORKSON      NM   R$  000000000041600000000004240000000000413000000000041800000000004230000000000416000000000042300064000000000000021400000000000008958800000000000000009999123100000010000000000000BRLVTCACNOR4102
012024011502LWSA3       010LWSA        ON      NM   R$  000000000062400000000006240000000000613000000000061900000000006200000000000619000000000062105908000000000004128300000000002556641100000000000000009999123100000010000000000000BRLWSAACNOR8103
012024011502BRIT3       010BRISANET    ON      NM   R$  000000000033900000000003500000000000335000000000034200000000003420000000000342000000000034800957000000000000357400000000000122501300000000000000009999123100000010000000000000BRBRITACNOR0102
012024011502BRIV3       010ALFA INVEST ON           R$  000000000107600000000010760000000001076000000000107600000000010760000000001076000000000109000002000000000000006000000000000006456000000000000000009999123100000010000000000000BRBRIVACNOR6209
012024011502BRIV4       010ALFA INVEST PN  EJ       R$  000000000104900000000010500000000001049000000000104900000000010500000000001033000000000107200002000000000000001600000000000001679900000000000000009999123100000010000000000000BRBRIVACNPR3218
012024011502EUCA4       010EUCATEX     PN      N1   R$  000000000175600000000017600000000001703000000000172000000000017200000000001717000000000172000591000000000000151700000000000261072700000000000000009999123100000010000000000000BREUCAACNPR8044
012024011502EVEN3       010EVEN        ON      NM   R$  000000000076100000000008200000000000761000000000080400000000008040000000000801000000000080406262000000000002327500000000001871317800000000000000009999123100000010000000000000BREVENACNOR8118
012024011502EZTC3       010EZTEC       ON      NM   R$  000000000167500000000017370000000001650000000000168400000000016640000000001663000000000167004488000000000001147100000000001932585900000000000000009999123100000010000000000000BREZTCACNOR0123
012024011502EALT4       010ACO ALTONA  PN           R$  000000000101200000000010450000000001007000000000101800000000010450000000001045000000000104800043000000000000022200000000000022608200000000000000009999123100000010000000000000BREALTACNPR1137
012024011502ECOR3       010ECORODOVIAS ON      NM   R$  000000000092600000000009410000000000915000000000092800000000009390000000000936000000000094104057000000000001852400000000001719674600000000000000009999123100000010000000000000BRECORACNOR8119
012024011502GGPS3       010GPS         ON      NM   R$  000000000183400000000018450000000001812000000000183500000000018360000000001836000000000184705109000000000000873800000000001603761800000000000000009999123100000010000000000000BRGGPSACNOR9102
012024011502GMAT3       010GRUPO MATEUSON      NM   R$  000000000070600000000007120000000000695000000000070400000000007080000000000707000000000071307874000000000002689400000000001893794600000000000000009999123100000010000000000000BRGMATACNOR7100
012024011502GOAU3       010GERDAU MET  ON      N1   R$  000000000103200000000010390000000001021000000000103000000000010380000000001033000000000103800322000000000000063800000000000065729000000000000000009999123100000010000000000000BRGOAUACNOR1265
012024011502FESA3       010FERBASA     ON      N1   R$  000000000620000000000062000000000006200000000000620000000000062000000000006195000000000640000001000000000000000100000000000000620000000000000000009999123100000010000000000000BRFESAACNOR8186
012024011502FESA4       010FERBASA     PN      N1   R$  000000000447700000000044770000000004370000000000439300000000044290000000004398000000000442901000000000000000160800000000000706446300000000000000009999123100000010000000000000BRFESAACNPR5082
012024011502FHER3       010FER HERINGERON      NM   R$  000000000074000000000007590000000000732000000000074200000000007500000000000745000000000075000028000000000000005500000000000004085200000000000000009999123100000010000000000000BRFHERACNOR5103
012024011502FIEI3       010FICA        ON           R$  000000000128000000000012990000000001280000000000129200000000012990000000000900000000000128000002000000000000000300000000000000387800000000000000009999123100000010000000000000BRFIEIACNOR2100
012024011502GOAU4       010GERDAU MET  PN      N1   R$  000000000099500000000010000000000000987000000000099300000000010000000000000999000000000100107592000000000005946600000000005907797400000000000000009999123100000010000000000000BRGOAUACNPR8266
012024011502ITUB3       010ITAUUNIBANCOON      N1   R$  000000000282900000000028460000000002810000000000282900000000028460000000002843000000000284700501000000000000108000000000000305610700000000000000009999123100000010000000000000BRITUBACNOR4329
012024011502ITUB4       010ITAUUNIBANCOPN      N1   R$  000000000333700000000033570000000003318000000000334100000000033450000000003344000000000335220208000000000009858400000000032946568200000000000000009999123100000010000000000000BRITUBACNPR1329
012024011502AERI3       010AERIS       ON      NM   R$  000000000008900000000000890000000000087000000000008800000000000870000000000087000000000008803227000000000003355400000000000295342200000000000000009999123100000010000000000000BRAERIACNOR4101
012024011502AESB3       010AES BRASIL  ON      NM   R$  000000000124300000000012430000000001205000000000122400000000012250000000001224000000000122704196000000000001749600000000002142598100000000000000009999123100000010000000000000BRAESBACNOR7105
012024011502AGRO3       010BRASILAGRO  ON      NM   R$  000000000249800000000024980000000002479000000000248900000000024870000000002487000000000249201002000000000000151600000000000377396200000000000000009999123100000010000000000000BRAGROACNOR7114
012024011502AGXY3       010AGROGALAXY  ON      NM   R$  000000000030400000000003070000000000296000000000029900000000002980000000000298000000000030100256000000000000078400000000000023514500000000000000009999123100000010000000000000BRAGXYACNOR4102
012024011502FIQE3       010UNIFIQUE    ON      NM   R$  000000000039400000000003950000000000389000000000039200000000003950000000000392000000000039500393000000000000118900000000000046676200000000000000009999123100000010000000000000BRFIQEACNOR5105
012024011502IFCM3       010INFRACOMM   ON      NM   R$  000000000017300000000001730000000000165000000000016700000000001660000000000166000000000016702481000000000004197100000000000703033000000000000000009999123100000010000000000000BRIFCMACNOR8101
012024011502IGTI11      010IGUATEMI S.AUNT     N1   R$  000000000245800000000024640000000002427000000000244500000000024420000000002441000000000244608040000000000001404000000000003433953500000000000000009999123100000010000000000000BRIGTICDAM16104
012024011502IGTI3       010IGUATEMI S.AON      N1   R$  000000000029800000000003050000000000298000000000030000000000003030000000000300000000000030300100000000000000068600000000000020626300000000000000009999123100000010000000000000BRIGTIACNOR8104
012024011502IGTI4       010IGUATEMI S.APN      N1   R$  000000000106700000000010670000000001067000000000106700000000010670000000001000000000000108500001000000000000000100000000000000106700000000000000009999123100000010000000000000BRIGTIACNPR5104
012024011502KRSA3       010KORA SAUDE  ON      NM   R$  000000000012200000000001220000000000113000000000011400000000001150000000000115000000000011602979000000000000869200000000000099632000000000000000009999123100000010000000000000BRKRSAACNOR0100
012024011502LAND3       010TERRASANTAPAON      NM   R$  000000000163200000000016320000000001590000000000160200000000016000000000001600000000000161000193000000000000034000000000000054480100000000000000009999123100000010000000000000BRLANDACNOR9102
012024011502LAVV3       010LAVVI       ON      NM   R$  000000000083000000000008410000000000813000000000082400000000008150000000000815000000000081701926000000000000473800000000000390757200000000000000009999123100000010000000000000BRLAVVACNOR4110
012024011502LEVE3       010METAL LEVE  ON      NM   R$  000000000368000000000037090000000003617000000000365700000000036600000000003660000000000367202062000000000000436200000000001595388900000000000000009999123100000010000000000000BRLEVEACNOR2196
012024011502LJQQ3       010QUERO-QUERO ON      NM   R$  000000000056300000000005690000000000551000000000056000000000005670000000000566000000000056802184000000000001310600000000000735152700000000000000009999123100000010000000000000BRLJQQACNOR5104
012024011502LOGG3       010LOG COM PROPON      NM   R$  000000000225500000000023020000000002236000000000228300000000022750000000002275000000000229100778000000000000119800000000000273568500000000000000009999123100000010000000000000BRLOGGACNOR7106
012024011502LOGN3       010LOG-IN      ON      NM   R$  000000000399000000000039900000000003850000000000387900000000038740000000003872000000000389900168000000000000023500000000000091178800000000000000009999123100000010000000000000BRLOGNACNOR3105
012024011502LPSB3       010LOPES BRASILON      NM   R$  000000000022900000000002330000000000227000000000023000000000002290000000000229000000000023500181000000000000053700000000000012363500000000000000009999123100000010000000000000BRLPSBACNOR0113
012024011502LREN3       010LOJAS RENNERON      NM   R$  000000000169000000000017270000000001681000000000170400000000017000000000001700000000000170715071000000000007320800000000012477469300000000000000009999123100000010000000000000BRLRENACNOR1219
012024011502MTRE3       010MITRE REALTYON      NM   R$  000000000051200000000005180000000000504000000000050900000000005100000000000509000000000051002449000000000001634000000000000832475500000000000000009999123100000010000000000000BRMTREACNOR6109
012024011502MTSA4       010METISA      PN           R$  000000000515000000000051550000000005026000000000510300000000051370000000005050000000000513700020000000000000003300000000000016841900000000000000009999123100000010000000000000BRMTSAACNPR9071
012024011502MULT3       010MULTIPLAN   ON      N2   R$  000000000288900000000028950000000002854000000000287300000000028650000000002865000000000287710022000000000001434300000000004121256100000000000000009999123100000010000000000000BRMULTACNOR5137
012024011502MDIA3       010M.DIASBRANCOON      NM   R$  000000000373000000000037610000000003696000000000373300000000037250000000003720000000000372500951000000000000159600000000000595919000000000000000009999123100000010000000000000BRMDIAACNOR7133
012024011502MDNE3       010MOURA DUBEUXON      NM   R$  000000000119000000000012270000000001174000000000120100000000012080000000001196000000000120802031000000000000807300000000000970307700000000000000009999123100000010000000000000BRMDNEACNOR9100
012024011502MEAL3       010IMC S/A     ON      NM   R$  000000000019100000000001920000000000188000000000018900000000001910000000000189000000000019101235000000000000890500000000000168936100000000000000009999123100000010000000000000BRMEALACNOR9105
012024011502MELK3       010MELNICK     ON      NM   R$  000000000045500000000004550000000000442000000000044800000000004420000000000442000000000044700571000000000000172200000000000077152000000000000000009999123100000010000000000000BRMELKACNOR8110
012024011502MGEL4       010MANGELS INDLPN           R$  000000000139300000000014400000000001380000000000139300000000014400000000001373000000000146900007000000000000003000000000000004180100000000000000009999123100000010000000000000BRMGELACNPR3147
012024011502MGLU3       010MAGAZ LUIZA ON  ATZ NM   R$  000000000022900000000002300000000000221000000000022600000000002280000000000227000000000022914228000000000112816600000000025525628200000000000000009999123100000010000000000000BRMGLUACNOR2122
012024011502AVLL3       010ALPHAVILLE  ON      NM   R$  000000000049000000000004990000000000490000000000049600000000004990000000000480000000000050900003000000000000000400000000000000198400000000000000009999123100000010000000000000BRAVLLACNOR5103
012024011502AZEV3       010AZEVEDO     ON           R$  000000000018500000000001890000000000180000000000018200000000001820000000000181000000000018200483000000000000378800000000000069116500000000000000009999123100000010000000000000BRAZEVACNOR0121
012024011502AZEV4       010AZEVEDO     PN           R$  000000000017900000000001790000000000174000000000017600000000001760000000000176000000000017701542000000000001874900000000000330489400000000000000009999123100000010000000000000BRAZEVACNPR7121
012024011502AZUL4       010AZUL        PN      N2   R$  000000000136000000000013900000000001327000000000136600000000013640000000001364000000000136518545000000000015553100000000021252752000000000000000009999123100000010000000000000BRAZULACNPR4102
012024011502BBSE3       010BBSEGURIDADEON      NM   R$  000000000333800000000033690000000003331000000000335000000000033690000000003369000000000337007022000000000002596100000000008699178900000000000000009999123100000010000000000000BRBBSEACNOR5123
012024011502BPAC11      010BTGP BANCO  UNT EJ  N2   R$  000000000383400000000038630000000003801000000000383500000000038470000000003843000000000384908245000000000002266100000000008690955500000000000000009999123100000010000000000000BRBPACUNT006118
012024011502BPAC3       010BTGP BANCO  ON  EJ  N2   R$  000000000181900000000018390000000001808000000000182700000000018390000000001740000000000184000061000000000000008100000000000014805700000000000000009999123100000010000000000000BRBPACACNOR7133
012024011502BPAC5       010BTGP BANCO  PNA EJ  N2   R$  000000000099400000000010240000000000980000000000099600000000010000000000000992000000000100000061000000000000015800000000000015743700000000000000009999123100000010000000000000BRBPACACNPA0133
012024011502COCE5       010COELCE      PNA          R$  000000000404100000000042960000000004041000000000416800000000042390000000004239000000000428900110000000000000017900000000000074617200000000000000009999123100000010000000000000BRCOCEACNPA3146
012024011502COGN3       010COGNA ON    ON      NM   R$  000000000033100000000003360000000000329000000000033200000000003340000000000334000000000033505553000000000007501900000000002494256900000000000000009999123100000010000000000000BRCOGNACNOR2104
012024011502GRND3       010GRENDENE    ON      NM   R$  000000000070900000000007090000000000695000000000069900000000007010000000000700000000000070402180000000000000708900000000000495544400000000000000009999123100000010000000000000BRGRNDACNOR3172
012024011502GUAR3       010GUARARAPES  ON      NM   R$  000000000059100000000005950000000000579000000000058700000000005880000000000585000000000058801872000000000000678000000000000398403300000000000000009999123100000010000000000000BRGUARACNOR4172
012024011502CMIN3       010CSNMINERACAOON      N2   R$  000000000070000000000007020000000000681000000000069100000000006940000000000693000000000069510500000000000009595800000000006636156700000000000000009999123100000010000000000000BRCMINACNOR2110
012024011502EGIE3       010ENGIE BRASILON      NM   R$  000000000431400000000043500000000004254000000000431600000000043340000000004328000000000433408311000000000001420600000000006132478500000000000000009999123100000010000000000000BREGIEACNOR9125
012024011502EKTR4       010ELEKTRO     PN  EJ       R$  000000000381200000000038980000000003809000000000381700000000038980000000003810000000000388800006000000000000001200000000000004580800000000000000009999123100000010000000000000BREKTRACNPR7159
012024011502ELET3       010ELETROBRAS  ON      N1   R$  000000000429200000000044430000000004292000000000437200000000043490000000004349000000000435423309000000000005982100000000026157287500000000000000009999123100000010000000000000BRELETACNOR6159
012024011502ELET6       010ELETROBRAS  PNB     N1   R$  000000000482300000000049390000000004811000000000491400000000049170000000004913000000000492011943000000000001777700000000008735904200000000000000009999123100000010000000000000BRELETACNPB7076
012024011502GOLL4       010GOL         PN      N2   R$  000000000067900000000007200000000000661000000000068700000000007140000000000713000000000071517945000000000023922900000000016445821300000000000000009999123100000010000000000000BRGOLLACNPR4128
012024011502ALPA4       010ALPARGATAS  PN      N1   R$  000000000091600000000009170000000000898000000000090500000000009030000000000903000000000090403911000000000001799900000000001630135200000000000000009999123100000010000000000000BRALPAACNPR7232
012024011502ALPK3       010ESTAPAR     ON      NM   R$  000000000047900000000004840000000000471000000000047800000000004840000000000480000000000048400208000000000000075800000000000036276300000000000000009999123100000010000000000000BRALPKACNOR9101
012024011502ALUP11      010ALUPAR      UNT     N2   R$  000000000303900000000030610000000003020000000000304700000000030430000000003043000000000304600930000000000000176100000000000536680400000000000000009999123100000010000000000000BRALUPCDAM15117
012024011502ALUP3       010ALUPAR      ON      N2   R$  000000000100900000000010160000000001007000000000100900000000010110000000001009000000000101600037000000000000006000000000000006056700000000000000009999123100000010000000000000BRALUPACNOR8117
012024011502ALUP4       010ALUPAR      PN      N2   R$  000000000101300000000010210000000001007000000000101600000000010210000000001019000000000102200069000000000000010000000000000010163300000000000000009999123100000010000000000000BRALUPACNPR5117
012024011502AMAR3       010LOJAS MARISAON      NM   R$  000000000029500000000002950000000000288000000000029100000000002910000000000291000000000029200813000000000000302800000000000088337000000000000000009999123100000010000000000000BRAMARACNOR4114
012024011502AMBP3       010AMBIPAR     ON      NM   R$  000000000149800000000014980000000001446000000000146300000000014720000000001469000000000147303757000000000001040900000000001523128200000000000000009999123100000010000000000000BRAMBPACNOR6103
012024011502ANIM3       010ANIMA       ON      NM   R$  000000000046000000000004740000000000457000000000046700000000004690000000000464000000000046908528000000000004357800000000002035834100000000000000009999123100000010000000000000BRANIMACNOR6107
012024011502APER3       010ALPER S.A.  ON           R$  000000000439700000000044000000000004361000000000438400000000043830000000004362000000000438300040000000000000036100000000000158273500000000000000009999123100000010000000000000BRAPERACNOR9106
012024011502ARML3       010ARMAC       ON      NM   R$  000000000157500000000016250000000001539000000000160000000000016070000000001601000000000160800949000000000000177100000000000283378000000000000000009999123100000010000000000000BRARMLACNOR1110
012024011502ARZZ3       010AREZZO CO   ON      NM   R$  000000000629000000000062900000000006091000000000616200000000061300000000006130000000000614407818000000000001991700000000012274506800000000000000009999123100000010000000000000BRARZZACNOR3146
012024011502CLSA3       010CLEARSALE   ON      NM   R$  000000000038200000000003820000000000359000000000036500000000003590000000000359000000000036201041000000000000558900000000000204241500000000000000009999123100000010000000000000BRCLSAACNOR0100
012024011502CLSC3       010CELESC      ON      N2   R$  000000000689800000000069000000000006898000000000689800000000069000000000006310000000000698900003000000000000000400000000000002759500000000000000009999123100000010000000000000BRCLSCACNOR6149
012024011502AALR3       010ALLIAR      ON      NM   R$  000000000089800000000009100000000000880000000000089900000000009070000000000907000000000090900724000000000000088400000000000079472500000000000000009999123100000010000000000000BRAALRACNOR6102
012024011502ABCB4       010ABC BRASIL  PN      N2   R$  000000000237000000000023890000000002348000000000236400000000023740000000002374000000000238102349000000000000466100000000001102033600000000000000009999123100000010000000000000BRABCBACNPR4145
012024011502ABEV3       010AMBEV S/A   ON           R$  000000000134800000000013600000000001346000000000135500000000013590000000001358000000000135907139000000000004752100000000006442500300000000000000009999123100000010000000000000BRABEVACNOR1127
012024011502BIOM3       010BIOMM       ON      MA   R$  000000000055900000000005700000000000535000000000053900000000005500000000000537000000000055700578000000000000063600000000000034341300000000000000009999123100000010000000000000BRBIOMACNOR2112
012024011502CEBR3       010CEB         ON           R$  000000000178500000000018100000000001785000000000180700000000018090000000001801000000000180900041000000000000009700000000000017531500000000000000009999123100000010000000000000BRCEBRACNOR5124
012024011502CEBR5       010CEB         PNA          R$  000000000171900000000017590000000001691000000000172500000000017490000000001737000000000174900043000000000000018300000000000031581700000000000000009999123100000010000000000000BRCEBRACNPA8123
012024011502CEBR6       010CEB         PNB          R$  000000000194300000000019980000000001927000000000198500000000019980000000001970000000000199800039000000000000009600000000000019064500000000000000009999123100000010000000000000BRCEBRACNPB6123
012024011502CEDO3       010CEDRO       ON      N1   R$  000000000309900000000030990000000003099000000000309900000000030990000000002500000000000399000001000000000000000100000000000000309900000000000000009999123100000010000000000000BRCEDOACNOR8096
012024011502CEDO4       010CEDRO       PN      N1   R$  000000000294400000000029550000000002906000000000294900000000029550000000002912000000000295500010000000000000002400000000000007078800000000000000009999123100000010000000000000BRCEDOACNPR5128
012024011502CEEB3       010COELBA      ON  EJ       R$  000000000389000000000039960000000003890000000000394900000000039610000000003879000000000399900003000000000000000300000000000001184700000000000000009999123100000010000000000000BRCEEBACNOR3196
012024011502CGAS3       010COMGAS      ON           R$  000000001110300000000111030000000011103000000001110300000000111030000000011134000000001179900001000000000000000100000000000001110300000000000000009999123100000010000000000000BRCGASACNOR0162
012024011502CGAS5       010COMGAS      PNA          R$  000000001248500000000124850000000012400000000001241800000000124100000000012343000000001263600020000000000000002700000000000033529600000000000000009999123100000010000000000000BRCGASACNPA3159
012024011502CGRA3       010GRAZZIOTIN  ON           R$  000000000260900000000026100000000002609000000000260900000000026100000000002590000000000260900003000000000000000700000000000001826900000000000000009999123100000010000000000000BRCGRAACNOR2081
012024011502CGRA4       010GRAZZIOTIN  PN           R$  000000000261300000000026130000000002590000000000259800000000025900000000002597000000000261600023000000000000003200000000000008316100000000000000009999123100000010000000000000BRCGRAACNPR9081
012024011502CIEL3       010CIELO       ON      NM   R$  000000000047300000000004740000000000466000000000046900000000004700000000000470000000000047108162000000000009797700000000004596825200000000000000009999123100000010000000000000BRCIELACNOR3156
012024011502ITSA3       010ITAUSA      ON      N1   R$  000000000101500000000010230000000001013000000000101800000000010200000000001020000000000102400367000000000000079000000000000080458300000000000000009999123100000010000000000000BRITSAACNOR0436
012024011502ITSA4       010ITAUSA      PN      N1   R$  000000000101500000000010220000000001010000000000101700000000010220000000001021000000000102313252000000000009958800000000010129091500000000000000009999123100000010000000000000BRITSAACNPR7436
012024011502MAPT4       010CEMEPE      PN           R$  000000000209900000000021500000000001900000000000196400000000019000000000001711000000000300000005000000000000000700000000000001374900000000000000009999123100000010000000000000BRMAPTACNPR5106
012024011502MATD3       010MATER DEI   ON      NM   R$  000000000078500000000007890000000000766000000000077800000000007750000000000775000000000078001375000000000000360100000000000280287000000000000000009999123100000010000000000000BRMATDACNOR4103
012024011502MBLY3       010MOBLY       ON      NM   R$  000000000019800000000002030000000000198000000000020100000000002020000000000200000000000020200335000000000000463700000000000093271000000000000000009999123100000010000000000000BRMBLYACNOR5100
012024011505BZLI11      010FII BRREALTYCI           R$  000000000170100000000017010000000001700000000000170000000000017000000000001700000000000197800002000000000000000002000000000000003401000000000000009999123100000010000000000000BRBZLICTF003100
012024011507NUTR3       010NUTRIPLANT  ON      MA   R$  000000000062200000000006700000000000570000000000061300000000005780000000000578000000000060000194000000000000049600000000000030427600000000000000009999123100000010000000000000BRNUTRACNOR0104
012024011507TXRX4       010TEX RENAUX  PN           R$  000000000026700000000002670000000000267000000000026700000000002670000000000267000000000028000001000000000000000100000000000000026700000000000000009999123100000010000000000000BRTXRXACNPR0142
012024011508NEXP3       010NEXPE       ON      NM   R$  000000000050500000000005050000000000505000000000050500000000005050000000000507000000000051500003000000000000000500000000000000252500000000000000009999123100000010000000000000BRNEXPACNOR0101
012024011508RPMG3       010PET MANGUINHON           R$  000000000020800000000002080000000000207000000000020700000000002080000000000207000000000020800005000000000000001000000000000000207300000000000000009999123100000010000000000000BRRPMGACNOR9194
012024011508JFEN3       010JOAO FORTES ON           R$  000000000020200000000002090000000000202000000000020700000000002060000000000205000000000020600017000000000000004100000000000000849600000000000000009999123100000010000000000000BRJFENACNOR0058
012024011508RNEW11      010RENOVA      UNT     N2   R$  000000000044100000000004430000000000430000000000044000000000004400000000000401000000000044000010000000000000001100000000000000484200000000000000009999123100000010000000000000BRRNEWCDAM15110
012024011508RNEW3       010RENOVA      ON      N2   R$  000000000014800000000001500000000000144000000000014600000000001470000000000146000000000014700197000000000000153900000000000022512100000000000000009999123100000010000000000000BRRNEWACNOR8110
012024011508RNEW4       010RENOVA      PN      N2   R$  000000000014700000000001500000000000145000000000014600000000001460000000000144000000000014600289000000000000153500000000000022512000000000000000009999123100000010000000000000BRRNEWACNPR5110
012024011508PMAM3       010PARANAPANEMAON      NM   R$  000000000041700000000004220000000000415000000000041700000000004200000000000420000000000042200074000000000000027800000000000011613600000000000000009999123100000010000000000000BRPMAMACNOR3038
012024011508OIBR3       010OI          ON      N1   R$  000000000006400000000000640000000000061000000000006200000000000630000000000062000000000006301372000000000008302400000000000517594500000000000000009999123100000010000000000000BROIBRACNOR1110
012024011508OIBR4       010OI          PN      N1   R$  000000000015900000000001620000000000158000000000015900000000001590000000000159000000000016000062000000000000026100000000000004162200000000000000009999123100000010000000000000BROIBRACNPR8109
012024011508RSID3       010ROSSI RESID ON      NM   R$  000000000035600000000003730000000000350000000000036400000000003730000000000365000000000037400194000000000000064500000000000023539000000000000000009999123100000010000000000000BRRSIDACNOR8120
012024011508HOOT4       010HOTEIS OTHONPN           R$  000000000027500000000002800000000000275000000000027600000000002770000000000273000000000028000008000000000000002700000000000000746700000000000000009999123100000010000000000000BRHOOTACNPR9015
012024011508ETER3       010ETERNIT     ON      NM   R$  000000000080000000000008200000000000795000000000080700000000008190000000000815000000000081900411000000000000125800000000000101575200000000000000009999123100000010000000000000BRETERACNOR3242
012024011508FRTA3       010POMIFRUTAS  ON      NM   R$  000000000017600000000001920000000000170000000000017900000000001850000000000185000000000018700157000000000000094100000000000016922200000000000000009999123100000010000000000000BRFRTAACNOR8103
012024011508ATMP3       010ATMASA      ON           R$  000000000031800000000003200000000000308000000000031700000000003190000000000309000000000031900029000000000000008600000000000002733000000000000000009999123100000010000000000000BRATMPACNOR8100
012024011508LIGT3       010LIGHT S/A   ON      NM   R$  000000000064200000000006540000000000623000000000064400000000006430000000000643000000000064502880000000000000700500000000000451529300000000000000009999123100000010000000000000BRLIGTACNOR2124
012024011508AMER3       010AMERICANAS  ON      NM   R$  000000000008200000000000860000000000080000000000008300000000000850000000000084000000000008503226000000000031934700000000002659804500000000000000009999123100000010000000000000BRAMERACNOR6101
012024011510RENT1       010LOCALIZA    DIR ORD NM   R$  000000000170000000000020000000000001611000000000166400000000020000000000002000000000000000000360000000000000045500000000000075736200000000000000009999123100000010000000000000BRRENTD05OR0193
012024011510PMAM1       010PARANAPANEMADIR ORD NM   R$  000000000000100000000000010000000000001000000000000100000000000010000000000000000000000000100035000000000000105200000000000000105200000000000000009999123100000010000000000000BRPMAMD03OR4037
012024011510CBAV9       010CBA         ON  REC NM   R$  000000000045700000000004570000000000446000000000045200000000004460000000000445000000000045500235000000000000051600000000000023335600000000000000009999123100000010000000000000BRCBAVR01OR0103
012024011510LJQQ1       010QUERO-QUERO DIR ORD NM   R$  000000000015700000000001690000000000157000000000016000000000001570000000000157000000000016200092000000000000058700000000000009395400000000000000009999123100000010000000000000BRLJQQD01OR0103
012024011510AVLL1       010ALPHAVILLE  DIR ORD NM   R$  000000000000100000000000010000000000001000000000000100000000000010000000000000000000000000100039000000000000109200000000000000109200000000000000009999123100000010000000000000BRAVLLD02OR8102
012024011510ABCB2       010ABC BRASIL  DIR PRE N2   R$  000000000046700000000005000000000000456000000000046600000000004800000000000466000000000049900088000000000000013200000000000006157500000000000000009999123100000010000000000000BRABCBD18PR3144
012024011512WHGR11      010FII WHG REALCI           R$  000000000097500000000009780000000000972000000000097400000000009750000000000974000000000097500859000000000000030815000000000030038726000000000000009999123100000010000000000000BRWHGRCTF008119
012024011512SADI11      010FII SANT PAPCI           R$  000000000891800000000089420000000008902000000000891800000000089310000000008929000000000893100945000000000000003725000000000033221498000000000000009999123100000010000000000000BRSADICTF007154
012024011512BRCO11      010FII BRESCO  CI           R$  000000001241100000000125760000000012411000000001249400000000124780000000012478000000001257403443000000000000028192000000000352244891000000000000009999123100000010000000000000BRBRCOCTF007151
012024011512BRCR11      010FII BC FUND CI  ER       R$  000000000605100000000060700000000006032000000000605300000000060530000000006051000000000605307361000000000000039361000000000238252282000000000000009999123100000010000000000000BRBRCRCTF000261
012024011512NAVT11      010FII NAVI TOTCI  ER       R$  000000000890100000000092300000000008901000000000911400000000090350000000009035000000000911500322000000000000003589000000000032711876000000000000009999123100000010000000000000BRNAVTCTF015134
012024011512NCHB11      010FII NCH BR  CI  ER       R$  000000000828900000000083950000000008281000000000832900000000083690000000008352000000000836800793000000000000003087000000000025712811000000000000009999123100000010000000000000BRNCHBCTF000224
012024011512CPSH11      010FII CPSH    CI           R$  000000001097700000000110680000000010977000000001099900000000110640000000010982000000001106800118000000000000002292000000000025210027000000000000009999123100000010000000000000BRCPSHCTF017107
012024011512CPTS11      010FII CAPI SECCI  ER       R$  000000000085000000000008560000000000838000000000084700000000008380000000000838000000000084037794000000000001389991000000001178141983000000000000009999123100000010000000000000BRCPTSCTF004226
012024011512CRFF11      010FII CX RBRA2CI           R$  000000000785100000000080000000000007850000000000797000000000080000000000007960000000000800000024000000000000002520000000000020085773000000000000009999123100000010000000000000BRCRFFCTF006156
012024011512NCRI11      010FII NAVI CRICI  ER       R$  000000000095000000000009500000000000871000000000089300000000009450000000000881000000000094500063000000000000000867000000000000774924000000000000009999123100000010000000000000BRNCRICTF004113
012024011512NEWL11      010FII NEWPORT CI           R$  000000001174000000000118410000000011721000000001179400000000118200000000011790000000001182000111000000000000001718000000000020262699000000000000009999123100000010000000000000BRNEWLCTF004149
012024011512NEWU11      010FII NEWRU   CI           R$  000000000800000000000080000000000007998000000000799900000000080000000000007716000000000800000007000000000000000018000000000000143989000000000000009999123100000010000000000000BRNEWUCTF005116
012024011512EQIR11      010FII EQI RECECI           R$  000000000097800000000009780000000000969000000000096900000000009720000000000969000000000097202449000000000000021377000000000020733238000000000000009999123100000010000000000000BREQIRCTF003127
012024011512IBCR11      010FII BREI    CI  ER       R$  000000000804100000000080950000000008028000000000805900000000080630000000008063000000000809200235000000000000001194000000000009622845000000000000009999123100000010000000000000BRIBCRCTF009132
012024011512NSLU11      010FII LOURDES CI           R$  000000001960900000000196670000000019221000000001948500000000195200000000019226000000001952000080000000000000000387000000000007540889000000000000009999123100000010000000000000BRNSLUCTF008306
012024011512RPRI11      010FII RBR PR  CI           R$  000000001032000000000103200000000010119000000001018800000000102850000000010200000000001028504090000000000000005805000000000059144320000000000000009999123100000010000000000000BRRPRICTF007123
012024011512RRCI11      010FII RBCAP RICI           R$  000000000830000000000083490000000008279000000000829600000000083000000000008258000000000830000053000000000000001330000000000011034998000000000000009999123100000010000000000000BRRRCICTF005137
012024011512JFLL11      010FII JFL LIV CI           R$  000000000759700000000075970000000007450000000000757100000000075750000000007576000000000759000077000000000000001021000000000007730472000000000000009999123100000010000000000000BRJFLLCTF002135
012024011512JPPA11      010FII JPPA CRICI           R$  000000000955900000000095790000000009251000000000944700000000094160000000009416000000000947500308000000000000001769000000000016712111000000000000009999123100000010000000000000BRJPPACTF005156
012024011512JSAF11      010FII JS A FINCI           R$  000000001017300000000102000000000010126000000001015500000000101540000000010154000000001017701306000000000000007108000000000072187135000000000000009999123100000010000000000000BRJSAFCTF000127
012024011512JSRE11      010FII JS REAL CI           R$  000000000764900000000077590000000007621000000000769100000000076950000000007695000000000773804816000000000000069108000000000531509812000000000000009999123100000010000000000000BRJSRECTF007257
012024011512URPR11      010FII URCA RENCI           R$  000000000895000000000090540000000008940000000000899200000000089910000000008993000000000900002725000000000000022102000000000198758679000000000000009999123100000010000000000000BRURPRCTF002153
012024011512KCRE11      010FII KINEA CRCI           R$  000000000980600000000098950000000009806000000000985000000000098940000000009890000000000989401467000000000000006050000000000059595375000000000000009999123100000010000000000000BRKCRECTF009119
012024011512KEVE11      010FII EVEN II CI           R$  000000011178900000001117890000000111500000000011163900000001116000000000111599000000011660000004000000000000000016000000000001786225000000000000009999123100000010000000000000BRKEVECTF007110
012024011512KFOF11      010FII KINEAFOFCI           R$  000000001015200000000101900000000010112000000001014500000000101120000000010112000000001015500966000000000000012907000000000130948122000000000000009999123100000010000000000000BRKFOFCTF006164
012024011512KISU11      010FII KILIMA  CI           R$  000000000083000000000008390000000000830000000000083300000000008330000000000832000000000083326531000000000000167042000000000139241596000000000000009999123100000010000000000000BRKISUCTF000139
012024011512KIVO11      010FII KIVO    CI           R$  000000000909500000000092400000000009012000000000914400000000091970000000009103000000000919700389000000000000005241000000000047923806000000000000009999123100000010000000000000BRKIVOCTF007122
012024011512WPLZ11      010FII W PLAZA CI           R$  000000000668000000000067990000000006525000000000670100000000067260000000006503000000000659200019000000000000000127000000000000851044000000000000009999123100000010000000000000BRWPLZCTF004261
012024011512WSEC11      010FII WARREN  CI  ER       R$  000000000837600000000083760000000008300000000000831500000000083700000000008302000000000836900019000000000000000162000000000001347097000000000000009999123100000010000000000000BRWSECCTF010115
