00COTAHIST.2024BOVESPA 20240209                                                                                                                                                                                                                      
012024020902BIOM3       010BIOMM       ON      MA   R$  000000000052700000000005390000000000525000000000053300000000005280000000000000000000000000000012000000000000001400000000000000746300000000000000009999123100000010000000000000BRBIOMACNOR2112
012024020902FESA3       010FERBASA     ON      N1   R$  000000000155000000000015500000000001550000000000155000000000015500000000000000000000000000000001000000000000000100000000000000155000000000000000009999123100000010000000000000BRFESAACNOR8187
012024020902FESA4       010FERBASA     PN      N1   R$  000000000097800000000009850000000000958000000000096400000000009580000000000000000000000000002192000000000000587800000000000567033800000000000000009999123100000010000000000000BRFESAACNPR5083
012024020902FHER3       010FER HERINGERON      NM   R$  000000000060500000000006200000000000602000000000060800000000006070000000000000000000000000000028000000000000007600000000000004621100000000000000009999123100000010000000000000BRFHERACNOR5103
012024020902FIQE3       010UNIFIQUE    ON  EJ  NM   R$  000000000037200000000003760000000000367000000000036900000000003710000000000000000000000000001748000000000000262800000000000097144800000000000000009999123100000010000000000000BRFIQEACNOR5106
012024020902FLRY3       010FLEURY      ON      NM   R$  000000000162000000000016280000000001603000000000161300000000016100000000000000000000000000007216000000000001645300000000002654302700000000000000009999123100000010000000000000BRFLRYACNOR5137
012024020902IFCM3       010INFRACOMM   ON      NM   R$  000000000013700000000001440000000000135000000000013900000000001400000000000000000000000000008497000000000007672400000000001068883200000000000000009999123100000010000000000000BRIFCMACNOR8101
012024020902BNBR3       010NORD BRASIL ON           R$  000000001170200000000117020000000011700000000001170100000000117000000000000000000000000000000002000000000000000300000000000003510400000000000000009999123100000010000000000000BRBNBRACNOR8206
012024020902BOBR4       010BOMBRIL     PN           R$  000000000023800000000002380000000000231000000000023400000000002350000000000000000000000000000046000000000000026100000000000006112500000000000000009999123100000010000000000000BRBOBRACNPR3128
012024020902BRSR3       010BANRISUL    ON      N1   R$  000000000139800000000015000000000001398000000000147300000000014730000000000000000000000000000139000000000000032900000000000048480600000000000000009999123100000010000000000000BRBRSRACNOR3185
012024020902BRSR6       010BANRISUL    PNB     N1   R$  000000000140000000000015270000000001395000000000149600000000015030000000000000000000000000010794000000000003701500000000005538889900000000000000009999123100000010000000000000BRBRSRACNPB4188
012024020902IGTI11      010IGUATEMI S.AUNT     N1   R$  000000000236800000000023930000000002339000000000236700000000023800000000000000000000000000019401000000000003193800000000007561414900000000000000009999123100000010000000000000BRIGTICDAM16104
012024020902IGTI3       010IGUATEMI S.AON      N1   R$  000000000029100000000002980000000000286000000000029000000000002980000000000000000000000000000072000000000000077500000000000022542900000000000000009999123100000010000000000000BRIGTIACNOR8104
012024020902IGTI4       010IGUATEMI S.APN      N1   R$  000000000104000000000010400000000001002000000000103000000000010020000000000000000000000000000004000000000000000400000000000000412200000000000000009999123100000010000000000000BRIGTIACNPR5104
012024020902ARML3       010ARMAC       ON      NM   R$  000000000139500000000014250000000001366000000000139900000000013870000000000000000000000000002962000000000000402500000000000563109500000000000000009999123100000010000000000000BRARMLACNOR1110
012024020902ARZZ3       010AREZZO CO   ON      NM   R$  000000000585000000000061280000000005847000000000601600000000060200000000000000000000000000009779000000000002102500000000012648807800000000000000009999123100000010000000000000BRARZZACNOR3146
012024020902ASAI3       010ASSAI       ON      NM   R$  000000000138300000000013830000000001332000000000135600000000013350000000000000000000000000025076000000000018542900000000025150947100000000000000009999123100000010000000000000BRASAIACNOR0106
012024020902ATOM3       010ATOMPAR     ON           R$  000000000021100000000002110000000000207000000000020800000000002070000000000000000000000000000019000000000000003000000000000000624600000000000000009999123100000010000000000000BRATOMACNOR1106
012024020902BSLI3       010BRB BANCO   ON           R$  000000000128400000000012840000000001260000000000128200000000012840000000000000000000000000000005000000000000001900000000000002437100000000000000009999123100000010000000000000BRBSLIACNOR5192
012024020902BSLI4       010BRB BANCO   PN           R$  000000000116400000000011640000000001164000000000116400000000011640000000000000000000000000000002000000000000000400000000000000465600000000000000009999123100000010000000000000BRBSLIACNPR2192
012024020902CSED3       010CRUZEIRO EDUON      NM   R$  000000000038200000000003890000000000381000000000038500000000003880000000000000000000000000000643000000000000320000000000000123379200000000000000009999123100000010000000000000BRCSEDACNOR9104
012024020902CSMG3       010COPASA      ON      NM   R$  000000000212200000000022070000000002112000000000216800000000021870000000000000000000000000007551000000000001457200000000003159952900000000000000009999123100000010000000000000BRCSMGACNOR5171
012024020902CSNA3       010SID NACIONALON           R$  000000000180100000000018490000000001743000000000178800000000017800000000000000000000000000010723000000000007244100000000012957167400000000000000009999123100000010000000000000BRCSNAACNOR6260
012024020902AURE3       010AUREN       ON      NM   R$  000000000128500000000013120000000001285000000000129500000000012970000000000000000000000000006039000000000004943100000000006403288400000000000000009999123100000010000000000000BRAUREACNOR9103
012024020902BRGE3       010ALFA CONSORCON           R$  000000000115500000000011820000000001155000000000116900000000011820000000000000000000000000000004000000000000000400000000000000467700000000000000009999123100000010000000000000BRBRGEACNOR6204
012024020902BRGE6       010ALFA CONSORCPNB          R$  000000000120000000000012000000000001200000000000120000000000012000000000000000000000000000000002000000000000000200000000000000240000000000000000009999123100000010000000000000BRBRGEACNPB7219
012024020902BRIT3       010BRISANET    ON      NM   R$  000000000029700000000003050000000000289000000000029600000000003010000000000000000000000000003307000000000001497800000000000443913100000000000000009999123100000010000000000000BRBRITACNOR0102
012024020902BRIV3       010ALFA INVEST ON           R$  000000000111700000000011270000000001117000000000112600000000011270000000000000000000000000000003000000000000004400000000000004957800000000000000009999123100000010000000000000BRBRIVACNOR6209
012024020902BRIV4       010ALFA INVEST PN           R$  000000000113000000000011300000000001087000000000111800000000011110000000000000000000000000000012000000000000013100000000000014651200000000000000009999123100000010000000000000BRBRIVACNPR3218
012024020902BRKM3       010BRASKEM     ON      N1   R$  000000000182400000000018830000000001817000000000183600000000018200000000000000000000000000000075000000000000012000000000000022033400000000000000009999123100000010000000000000BRBRKMACNOR1119
012024020902BRKM5       010BRASKEM     PNA     N1   R$  000000000175100000000017720000000001729000000000174700000000017350000000000000000000000000004399000000000001586400000000002771846700000000000000009999123100000010000000000000BRBRKMACNPA4121
012024020902EUCA4       010EUCATEX     PN      N1   R$  000000000163000000000016540000000001622000000000163400000000016310000000000000000000000000000154000000000000034900000000000057057500000000000000009999123100000010000000000000BREUCAACNPR8044
012024020902EVEN3       010EVEN        ON      NM   R$  000000000072500000000007260000000000708000000000071800000000007200000000000000000000000000003637000000000000778700000000000559815900000000000000009999123100000010000000000000BREVENACNOR8118
012024020902EZTC3       010EZTEC       ON      NM   R$  000000000151900000000015480000000001490000000000152300000000015410000000000000000000000000007611000000000001950800000000002971404500000000000000009999123100000010000000000000BREZTCACNOR0123
012024020902CRFB3       010CARREFOUR BRON      NM   R$  000000000116400000000011890000000001140000000000116500000000011770000000000000000000000000013698000000000008646100000000010075112600000000000000009999123100000010000000000000BRCRFBACNOR2116
012024020902CRIV3       010ALFA FINANC ON           R$  000000000060600000000006110000000000590000000000060700000000006110000000000000000000000000000019000000000000072900000000000044306700000000000000009999123100000010000000000000BRCRIVACNOR4195
012024020902CRIV4       010ALFA FINANC PN           R$  000000000062400000000006240000000000612000000000061800000000006200000000000000000000000000000003000000000000000300000000000000185600000000000000009999123100000010000000000000BRCRIVACNPR1211
012024020902CRPG5       010CRISTAL     PNA          R$  000000000364000000000036400000000003590000000000362300000000036390000000000000000000000000000003000000000000000300000000000001086900000000000000009999123100000010000000000000BRCRPGACNPA3118
012024020902CRPG6       010CRISTAL     PNB          R$  000000000364000000000036400000000003640000000000364000000000036400000000000000000000000000000001000000000000000100000000000000364000000000000000009999123100000010000000000000BRCRPGACNPB1118
012024020902CSAN3       010COSAN       ON      NM   R$  000000000185100000000018880000000001826000000000185500000000018510000000000000000000000000034790000000000009168100000000017010414500000000000000009999123100000010000000000000BRCSANACNOR6124
012024020902ENGI11      010ENERGISA    UNT     N2   R$  000000000508200000000051500000000005031000000000510600000000051430000000000000000000000000012863000000000002751000000000014048986200000000000000009999123100000010000000000000BRENGICDAM16135
012024020902ENGI3       010ENERGISA    ON      N2   R$  000000000168500000000017330000000001673000000000169300000000016730000000000000000000000000000041000000000000008400000000000014223400000000000000009999123100000010000000000000BRENGIACNOR0145
012024020902ENGI4       010ENERGISA    PN      N2   R$  000000000084000000000008550000000000815000000000083100000000008300000000000000000000000000000048000000000000022300000000000018537500000000000000009999123100000010000000000000BRENGIACNPR7141
012024020902ENJU3       010ENJOEI      ON      NM   R$  000000000015800000000001600000000000155000000000015600000000001550000000000000000000000000000257000000000000289800000000000045266100000000000000009999123100000010000000000000BRENJUACNOR9100
012024020902ENMT3       010ENERGISA MT ON           R$  000000000755000000000075500000000007550000000000755000000000075500000000000000000000000000000001000000000000000100000000000000755000000000000000009999123100000010000000000000BRENMTACNOR5119
012024020902EPAR3       010EMBPAR S/A  ON           R$  000000000096900000000009700000000000945000000000096200000000009450000000000000000000000000000060000000000000020700000000000019920700000000000000009999123100000010000000000000BREPARACNOR9104
012024020902EQPA3       010EQTL PARA   ON           R$  000000000077300000000007870000000000773000000000077700000000007870000000000000000000000000000018000000000000003100000000000002411600000000000000009999123100000010000000000000BREQPAACNOR1110
012024020902EQPA6       010EQTL PARA   PNB          R$  000000000090000000000009000000000000900000000000090000000000009000000000000000000000000000000002000000000000000200000000000000180000000000000000009999123100000010000000000000BREQPAACNPB2110
012024020902EQTL3       010EQUATORIAL  ON      NM   R$  000000000341000000000034610000000003390000000000342500000000034090000000000000000000000000019112000000000006009700000000020588619000000000000000009999123100000010000000000000BREQTLACNOR0129
012024020902ESPA3       010ESPACOLASER ON      NM   R$  000000000009700000000000990000000000096000000000009700000000000970000000000000000000000000001085000000000001157400000000000112308800000000000000009999123100000010000000000000BRESPAACNOR7103
012024020902JSLG3       010JSL         ON      NM   R$  000000000106100000000010690000000001050000000000105700000000010510000000000000000000000000001060000000000000208700000000000220656400000000000000009999123100000010000000000000BRJSLGACNOR2121
012024020902BGIP4       010BANESE      PN           R$  000000000263600000000026890000000002636000000000264800000000026500000000000000000000000000000011000000000000003400000000000009006200000000000000009999123100000010000000000000BRBGIPACNPR8206
012024020902BHIA3       010CASAS BAHIA ON      NM   R$  000000000074700000000008020000000000735000000000077300000000007820000000000000000000000000009797000000000007738500000000005987208000000000000000009999123100000010000000000000BRBHIAACNOR1101
012024020902BPAC11      010BTGP BANCO  UNT     N2   R$  000000000373200000000037690000000003716000000000374100000000037570000000000000000000000000018658000000000008294200000000031036660100000000000000009999123100000010000000000000BRBPACUNT006118
012024020902BPAC3       010BTGP BANCO  ON      N2   R$  000000000181300000000018540000000001813000000000182900000000018540000000000000000000000000000015000000000000001500000000000002744600000000000000009999123100000010000000000000BRBPACACNOR7133
012024020902BPAC5       010BTGP BANCO  PNA     N2   R$  000000000096400000000009850000000000924000000000094000000000009240000000000000000000000000000039000000000000006600000000000006207100000000000000009999123100000010000000000000BRBPACACNPA0133
012024020902BPAN4       010BANCO PAN   PN      N1   R$  000000000084100000000009060000000000833000000000088500000000008910000000000000000000000000014731000000000005301900000000004696083600000000000000009999123100000010000000000000BRBPANACNPR1115
012024020902COCE5       010COELCE      PNA          R$  000000000403300000000040970000000004028000000000403800000000040460000000000000000000000000000051000000000000018600000000000075114000000000000000009999123100000010000000000000BRCOCEACNPA3146
012024020902COGN3       010COGNA ON    ON      NM   R$  000000000024600000000002530000000000240000000000024500000000002400000000000000000000000000019725000000000036002200000000008841750500000000000000009999123100000010000000000000BRCOGNACNOR2104
012024020902EKTR4       010ELEKTRO     PN           R$  000000000390200000000039020000000003902000000000390200000000039020000000000000000000000000000003000000000000000300000000000001170600000000000000009999123100000010000000000000BREKTRACNPR7159
012024020902ELET3       010ELETROBRAS  ON      N1   R$  000000000431900000000043900000000004268000000000433400000000043640000000000000000000000000026056000000000010495800000000045492125500000000000000009999123100000010000000000000BRELETACNOR6159
012024020902ELET6       010ELETROBRAS  PNB     N1   R$  000000000477200000000048480000000004744000000000479300000000048290000000000000000000000000006558000000000001640000000000007861178400000000000000009999123100000010000000000000BRELETACNPB7076
012024020902GRND3       010GRENDENE    ON      NM   R$  000000000063100000000006450000000000629000000000064000000000006380000000000000000000000000004834000000000001721600000000001102029900000000000000009999123100000010000000000000BRGRNDACNOR3172
012024020902GSHP3       010GENERALSHOPPON           R$  000000000140000000000014000000000001400000000000140000000000014000000000000000000000000000000001000000000000000100000000000000140000000000000000009999123100000010000000000000BRGSHPACNOR7102
012024020902GUAR3       010GUARARAPES  ON      NM   R$  000000000049400000000005020000000000485000000000049400000000004900000000000000000000000000003545000000000001343700000000000664266100000000000000009999123100000010000000000000BRGUARACNOR4172
012024020902HAGA3       010HAGA S/A    ON           R$  000000000024900000000002490000000000249000000000024900000000002490000000000000000000000000000001000000000000001000000000000000249000000000000000009999123100000010000000000000BRHAGAACNOR7103
012024020902HAGA4       010HAGA S/A    PN           R$  000000000010800000000001080000000000108000000000010800000000001080000000000000000000000000000002000000000000000200000000000000021600000000000000009999123100000010000000000000BRHAGAACNPR4103
012024020902HAPV3       010HAPVIDA     ON      NM   R$  000000000033800000000003550000000000331000000000034500000000003510000000000000000000000000044860000000000092548600000000031990311700000000000000009999123100000010000000000000BRHAPVACNOR4113
012024020902JALL3       010JALLESMACHADON      NM   R$  000000000073700000000007380000000000720000000000072500000000007200000000000000000000000000003342000000000001319500000000000957255400000000000000009999123100000010000000000000BRJALLACNOR0105
012024020902RCSL3       010RECRUSUL    ON           R$  000000000019200000000002010000000000187000000000019200000000001910000000000000000000000000003820000000000003515400000000000677107000000000000000009999123100000010000000000000BRRCSLACNOR4133
012024020902RCSL4       010RECRUSUL    PN           R$  000000000007800000000000790000000000077000000000007700000000000770000000000000000000000000000367000000000000491200000000000038170300000000000000009999123100000010000000000000BRRCSLACNPR1133
012024020902RDNI3       010RNI         ON      NM   R$  000000000045000000000004600000000000442000000000045300000000004570000000000000000000000000000019000000000000006400000000000002899900000000000000009999123100000010000000000000BRRDNIACNOR9116
012024020902RDOR3       010REDE D OR   ON      NM   R$  000000000275400000000028150000000002740000000000278200000000027800000000000000000000000000011150000000000003864500000000010752047000000000000000009999123100000010000000000000BRRDORACNOR8111
012024020902TASA3       010TAURUS ARMASON      N2   R$  000000000143200000000014390000000001414000000000141900000000014140000000000000000000000000000067000000000000015700000000000022292900000000000000009999123100000010000000000000BRTASAACNOR7103
012024020902TASA4       010TAURUS ARMASPN      N2   R$  000000000142200000000014390000000001406000000000142000000000014100000000000000000000000000001438000000000000266500000000000378680000000000000000009999123100000010000000000000BRTASAACNPR4103
012024020902TCSA3       010TECNISA     ON      NM   R$  000000000030900000000003290000000000302000000000031300000000003180000000000000000000000000000196000000000000084600000000000026503900000000000000009999123100000010000000000000BRTCSAACNOR3112
012024020902TECN3       010TECHNOS     ON  ED  NM   R$  000000000034200000000003460000000000335000000000033900000000003360000000000000000000000000000450000000000000282100000000000095870700000000000000009999123100000010000000000000BRTECNACNOR6109
012024020902TELB3       010TELEBRAS    ON           R$  000000000149000000000014950000000001489000000000149100000000014950000000000000000000000000000003000000000000000400000000000000596400000000000000009999123100000010000000000000BRTELBACNOR2140
012024020902TELB4       010TELEBRAS    PN           R$  000000000112000000000011390000000001080000000000111000000000010900000000000000000000000000000025000000000000004500000000000004998600000000000000009999123100000010000000000000BRTELBACNPR9140
012024020902TEND3       010TENDA       ON      NM   R$  000000000096600000000010390000000000958000000000100800000000010320000000000000000000000000012957000000000003930900000000003962680100000000000000009999123100000010000000000000BRTENDACNOR4111
012024020902VAMO3       010VAMOS       ON      NM   R$  000000000080500000000008180000000000789000000000080000000000007950000000000000000000000000011366000000000005956100000000004766389800000000000000009999123100000010000000000000BRVAMOACNOR7105
012024020902VBBR3       010VIBRA       ON      NM   R$  000000000238500000000024640000000002364000000000244400000000024550000000000000000000000000017461000000000008503600000000020784115600000000000000009999123100000010000000000000BRVBBRACNOR1106
012024020902AALR3       010ALLIAR      ON      NM   R$  000000000081300000000008590000000000802000000000082500000000008590000000000000000000000000000385000000000000056500000000000046655400000000000000009999123100000010000000000000BRAALRACNOR6102
012024020902ABCB4       010ABC BRASIL  PN      N2   R$  000000000235000000000023840000000002323000000000236000000000023730000000000000000000000000002708000000000000398900000000000941769500000000000000009999123100000010000000000000BRABCBACNPR4145
012024020902ABEV3       010AMBEV S/A   ON           R$  000000000129200000000012980000000001281000000000129000000000012950000000000000000000000000023639000000000015446600000000019931735300000000000000009999123100000010000000000000BRABEVACNOR1127
012024020902BEEF3       010MINERVA     ON      NM   R$  000000000066500000000006670000000000652000000000065600000000006550000000000000000000000000008542000000000010051200000000006600106700000000000000009999123100000010000000000000BRBEEFACNOR6116
012024020902EALT3       010ACO ALTONA  ON           R$  000000000095000000000009500000000000920000000000093100000000009300000000000000000000000000000005000000000000000900000000000000838000000000000000009999123100000010000000000000BREALTACNOR4137
012024020902EALT4       010ACO ALTONA  PN           R$  000000000099200000000010140000000000986000000000100200000000010120000000000000000000000000000022000000000000003100000000000003107800000000000000009999123100000010000000000000BREALTACNPR1137
012024020902ECOR3       010ECORODOVIAS ON      NM   R$  000000000090700000000009290000000000898000000000090800000000009050000000000000000000000000003402000000000002740600000000002488924400000000000000009999123100000010000000000000BRECORACNOR8119
012024020902EGIE3       010ENGIE BRASILON      NM   R$  000000000405500000000040600000000004010000000000403900000000040310000000000000000000000000003947000000000001119600000000004522318000000000000000009999123100000010000000000000BREGIEACNOR9125
012024020902BBSE3       010BBSEGURIDADEON  EDR NM   R$  000000000330000000000033200000000003210000000000328300000000032790000000000000000000000000020018000000000007152300000000023482675300000000000000009999123100000010000000000000BRBBSEACNOR5124
012024020902CLSA3       010CLEARSALE   ON      NM   R$  000000000039500000000004000000000000383000000000039100000000003840000000000000000000000000001240000000000000592100000000000231552000000000000000009999123100000010000000000000BRCLSAACNOR0100
012024020902CLSC4       010CELESC      PN      N2   R$  000000000655800000000065720000000006507000000000651800000000065110000000000000000000000000000024000000000000004200000000000027376100000000000000009999123100000010000000000000BRCLSCACNPR3128
012024020902SUZB3       010SUZANO S.A. ON      NM   R$  000000000535000000000053770000000005242000000000530900000000052700000000000000000000000000015015000000000004039200000000021444373300000000000000009999123100000010000000000000BRSUZBACNOR0129
012024020902MILS3       010MILLS       ON      NM   R$  000000000124500000000012580000000001221000000000123600000000012280000000000000000000000000002318000000000000577000000000000713602500000000000000009999123100000010000000000000BRMILSACNOR2124
012024020902MLAS3       010MULTILASER  ON      NM   R$  000000000018900000000001930000000000187000000000019000000000001920000000000000000000000000004060000000000002293300000000000437094800000000000000009999123100000010000000000000BRMLASACNOR9101
012024020902MNDL3       010MUNDIAL     ON           R$  000000000449500000000044970000000004300000000000446300000000043000000000000000000000000000000005000000000000000600000000000002678000000000000000009999123100000010000000000000BRMNDLACNOR4107
012024020902MNPR3       010MINUPAR     ON           R$  000000000200100000000020500000000001900000000000199100000000020010000000000000000000000000000009000000000000001600000000000003186100000000000000009999123100000010000000000000BRMNPRACNOR5122
012024020902MOVI3       010MOVIDA      ON      NM   R$  000000000085500000000008570000000000820000000000083100000000008300000000000000000000000000011399000000000004463900000000003712007000000000000000009999123100000010000000000000BRMOVIACNOR0122
012024020902MRFG3       010MARFRIG     ON      NM   R$  000000000092500000000009320000000000886000000000090000000000009000000000000000000000000000013324000000000007999700000000007202809200000000000000009999123100000010000000000000BRMRFGACNOR0116
012024020902PRNR3       010PRINER      ON      NM   R$  000000000113500000000011460000000001110000000000112800000000011170000000000000000000000000000993000000000000817100000000000922159600000000000000009999123100000010000000000000BRPRNRACNOR4108
012024020902CMIG3       010CEMIG       ON      N1   R$  000000000149900000000015130000000001498000000000150300000000015000000000000000000000000000000897000000000000221800000000000333523700000000000000009999123100000010000000000000BRCMIGACNOR6239
012024020902CMIG4       010CEMIG       PN      N1   R$  000000000112400000000011430000000001118000000000113200000000011380000000000000000000000000015415000000000009100400000000010303980000000000000000009999123100000010000000000000BRCMIGACNPR3240
012024020902CMIN3       010CSNMINERACAOON      N2   R$  000000000065900000000006680000000000647000000000065500000000006470000000000000000000000000007384000000000003247300000000002129645300000000000000009999123100000010000000000000BRCMINACNOR2110
012024020902DASA3       010DASA        ON      NM   R$  000000000070400000000007190000000000687000000000070000000000007070000000000000000000000000002032000000000000400300000000000280530300000000000000009999123100000010000000000000BRDASAACNOR1122
012024020902PSSA3       010PORTO SEGUROON      NM   R$  000000000265200000000026860000000002640000000000266700000000026650000000000000000000000000007342000000000002927100000000007808973300000000000000009999123100000010000000000000BRPSSAACNOR7153
012024020902PTBL3       010PORTOBELLO  ON      NM   R$  000000000057500000000005820000000000565000000000057000000000005700000000000000000000000000001205000000000000438300000000000250248600000000000000009999123100000010000000000000BRPTBLACNOR8132
012024020902PTNT4       010PETTENATI   PN           R$  000000000080000000000008000000000000784000000000079000000000007950000000000000000000000000000015000000000000005600000000000004427700000000000000009999123100000010000000000000BRPTNTACNPR3047
012024020902SLCE3       010SLC AGRICOLAON      NM   R$  000000000190500000000019390000000001905000000000192300000000019200000000000000000000000000004526000000000000964600000000001855347500000000000000009999123100000010000000000000BRSLCEACNOR2124
012024020902DESK3       010DESKTOP     ON      NM   R$  000000000122900000000013110000000001219000000000127300000000013020000000000000000000000000002051000000000000358600000000000456718700000000000000009999123100000010000000000000BRDESKACNOR2103
012024020902DEXP3       010DEXXOS PAR  ON      N1   R$  000000000119900000000012370000000001198000000000121600000000012370000000000000000000000000000190000000000000059700000000000072650500000000000000009999123100000010000000000000BRDEXPACNOR1104
012024020902DEXP4       010DEXXOS PAR  PN      N1   R$  000000000120000000000012000000000001200000000000120000000000012000000000000000000000000000000001000000000000000100000000000000120000000000000000009999123100000010000000000000BRDEXPACNPR8104
012024020902DIRR3       010DIRECIONAL  ON      NM   R$  000000000221300000000022480000000002199000000000222700000000022260000000000000000000000000004693000000000001010600000000002251293200000000000000009999123100000010000000000000BRDIRRACNOR0117
012024020902DMVF3       010D1000VFARMA ON      NM   R$  000000000061100000000006210000000000605000000000060700000000006060000000000000000000000000000175000000000000530700000000000322247200000000000000009999123100000010000000000000BRDMVFACNOR9100
012024020902SMFT3       010SMART FIT   ON      NM   R$  000000000245200000000025250000000002452000000000249200000000024940000000000000000000000000005165000000000001451100000000003616877000000000000000009999123100000010000000000000BRSMFTACNOR1111
012024020902SMTO3       010SAO MARTINHOON      NM   R$  000000000271000000000028350000000002606000000000268000000000026640000000000000000000000000024489000000000007442600000000019950514300000000000000009999123100000010000000000000BRSMTOACNOR3125
012024020902SNSY3       010SANSUY      ON           R$  000000000107100000000013000000000001071000000000119900000000011020000000000000000000000000000117000000000000015800000000000018946100000000000000009999123100000010000000000000BRSNSYACNOR2113
012024020902SNSY5       010SANSUY      PNA          R$  000000000046800000000005000000000000451000000000048200000000004840000000000000000000000000000054000000000000023600000000000011383100000000000000009999123100000010000000000000BRSNSYACNPA5111
012024020902PNVL3       010DIMED       ON      NM   R$  000000000116200000000011620000000001106000000000112400000000011270000000000000000000000000004984000000000001283200000000001443153300000000000000009999123100000010000000000000BRPNVLACNOR9205
012024020902POMO3       010MARCOPOLO   ON      N2   R$  000000000062800000000006450000000000628000000000064000000000006420000000000000000000000000000673000000000000116200000000000074463600000000000000009999123100000010000000000000BRPOMOACNOR0095
012024020902DOHL4       010DOHLER      PN           R$  000000000050100000000005010000000000480000000000048700000000005010000000000000000000000000000006000000000000000700000000000000341500000000000000009999123100000010000000000000BRDOHLACNPR9066
012024020902DOTZ3       010DOTZ SA     ON      NM   R$  000000000076600000000007660000000000718000000000073500000000007190000000000000000000000000000045000000000000012200000000000008971100000000000000009999123100000010000000000000BRDOTZACNOR7101
012024020902DXCO3       010DEXCO       ON      NM   R$  000000000076500000000007700000000000756000000000076000000000007560000000000000000000000000005168000000000001429900000000001087878900000000000000009999123100000010000000000000BRDXCOACNOR8104
012024020902GGPS3       010GPS         ON      NM   R$  000000000185700000000018850000000001843000000000185700000000018570000000000000000000000000005819000000000000951100000000001766933700000000000000009999123100000010000000000000BRGGPSACNOR9102
012024020902GMAT3       010GRUPO MATEUSON      NM   R$  000000000073500000000007600000000000732000000000075100000000007600000000000000000000000000009703000000000005405400000000004062646800000000000000009999123100000010000000000000BRGMATACNOR7100
012024020902GOAU3       010GERDAU MET  ON      N1   R$  000000000104200000000010500000000001022000000000103200000000010220000000000000000000000000000353000000000000073900000000000076280700000000000000009999123100000010000000000000BRGOAUACNOR1265
012024020902POMO4       010MARCOPOLO   PN      N2   R$  000000000082500000000008460000000000825000000000083200000000008340000000000000000000000000021944000000000013032300000000010844125200000000000000009999123100000010000000000000BRPOMOACNPR7095
012024020902PORT3       010WILSON SONS ON      NM   R$  000000000167200000000016720000000001640000000000165500000000016550000000000000000000000000001606000000000000635200000000001051855100000000000000009999123100000010000000000000BRPORTACNOR8106
012024020902POSI3       010POSITIVO TECON      NM   R$  000000000073000000000007350000000000715000000000072200000000007200000000000000000000000000001865000000000000664000000000000479945400000000000000009999123100000010000000000000BRPOSIACNOR9115
012024020902PRIO3       010PETRORIO    ON      NM   R$  000000000433400000000043440000000004205000000000425400000000042360000000000000000000000000025157000000000009205500000000039161740800000000000000009999123100000010000000000000BRPRIOACNOR1106
012024020902SBFG3       010GRUPO SBF   ON      NM   R$  000000000134000000000013510000000001206000000000125600000000012060000000000000000000000000011336000000000004900100000000006156074900000000000000009999123100000010000000000000BRSBFGACNOR1102
012024020902SBSP3       010SABESP      ON      NM   R$  000000000789000000000080330000000007834000000000796100000000079790000000000000000000000000006910000000000001501600000000011954333800000000000000009999123100000010000000000000BRSBSPACNOR5160
012024020902SCAR3       010SAO CARLOS  ON      NM   R$  000000000266700000000026960000000002650000000000265600000000026500000000000000000000000000000007000000000000001300000000000003452900000000000000009999123100000010000000000000BRSCARACNOR7130
012024020902GOAU4       010GERDAU MET  PN      N1   R$  000000000100200000000010120000000000987000000000099500000000009880000000000000000000000000010309000000000007343600000000007310785600000000000000009999123100000010000000000000BRGOAUACNPR8266
012024020902ITUB3       010ITAUUNIBANCOON  EJ  N1   R$  000000000289900000000029510000000002892000000000292500000000029340000000000000000000000000004361000000000000852400000000002493858300000000000000009999123100000010000000000000BRITUBACNOR4330
012024020902ITUB4       010ITAUUNIBANCOPN  EJ  N1   R$  000000000338800000000034410000000003374000000000341500000000034290000000000000000000000000031225000000000026971700000000092127986200000000000000009999123100000010000000000000BRITUBACNPR1330
012024020902BAHI3       010BAHEMA      ON      MA   R$  000000000067100000000006920000000000662000000000067600000000006900000000000000000000000000000010000000000000002400000000000001622500000000000000009999123100000010000000000000BRBAHIACNOR1074
012024020902BALM4       010BAUMER      PN           R$  000000000102400000000010280000000001024000000000102600000000010280000000000000000000000000000005000000000000000500000000000000513100000000000000009999123100000010000000000000BRBALMACNPR2056
012024020902BAZA3       010AMAZONIA    ON           R$  000000000891700000000089500000000008828000000000889700000000089500000000000000000000000000000021000000000000002300000000000020463800000000000000009999123100000010000000000000BRBAZAACNOR0178
012024020902BBAS3       010BRASIL      ON      NM   R$  000000000585000000000058580000000005530000000000572400000000057570000000000000000000000000057239000000000024065300000000137760678300000000000000009999123100000010000000000000BRBBASACNOR3319
012024020902CEBR3       010CEB         ON           R$  000000000191900000000020400000000001919000000000196300000000020390000000000000000000000000000050000000000000007700000000000015121900000000000000009999123100000010000000000000BRCEBRACNOR5124
012024020902CEBR5       010CEB         PNA          R$  000000000180400000000018050000000001804000000000180400000000018050000000000000000000000000000004000000000000000500000000000000902300000000000000009999123100000010000000000000BRCEBRACNPA8123
012024020902CEBR6       010CEB         PNB          R$  000000000230900000000023500000000002242000000000230800000000023500000000000000000000000000000027000000000000004400000000000010156700000000000000009999123100000010000000000000BRCEBRACNPB6123
012024020902SANB11      010SANTANDER BRUNT          R$  000000000283400000000028710000000002834000000000285400000000028530000000000000000000000000005152000000000001104900000000003153391900000000000000009999123100000010000000000000BRSANBCDAM13163
012024020902SANB3       010SANTANDER BRON           R$  000000000133600000000013520000000001334000000000134100000000013400000000000000000000000000000551000000000000080900000000000108535100000000000000009999123100000010000000000000BRSANBACNOR8170
012024020902SANB4       010SANTANDER BRPN           R$  000000000150400000000015220000000001502000000000151100000000015170000000000000000000000000000404000000000000089100000000000134659600000000000000009999123100000010000000000000BRSANBACNPR5170
012024020902CEDO3       010CEDRO       ON      N1   R$  000000000294700000000029470000000002484000000000260600000000024840000000000000000000000000000026000000000000007000000000000018244400000000000000009999123100000010000000000000BRCEDOACNOR8096
012024020902CEDO4       010CEDRO       PN      N1   R$  000000000259100000000026600000000002590000000000259600000000026580000000000000000000000000000012000000000000003100000000000008050100000000000000009999123100000010000000000000BRCEDOACNPR5128
012024020902CEEB3       010COELBA      ON           R$  000000000391000000000039980000000003904000000000392900000000039980000000000000000000000000000007000000000000000800000000000003143900000000000000009999123100000010000000000000BRCEEBACNOR3196
012024020902CGAS3       010COMGAS      ON           R$  000000001003000000000110190000000010030000000001042500000000110190000000000000000000000000000005000000000000000500000000000005212800000000000000009999123100000010000000000000BRCGASACNOR0162
012024020902CGAS5       010COMGAS      PNA          R$  000000001160000000000116000000000011598000000001159900000000115980000000000000000000000000000002000000000000000200000000000002319800000000000000009999123100000010000000000000BRCGASACNPA3159
012024020902CGRA3       010GRAZZIOTIN  ON           R$  000000000253000000000025300000000002528000000000252900000000025280000000000000000000000000000005000000000000000600000000000001517600000000000000009999123100000010000000000000BRCGRAACNOR2081
012024020902CGRA4       010GRAZZIOTIN  PN           R$  000000000251800000000025270000000002516000000000252100000000025260000000000000000000000000000027000000000000003400000000000008574000000000000000009999123100000010000000000000BRCGRAACNPR9081
012024020902CIEL3       010CIELO       ON      NM   R$  000000000051500000000005320000000000512000000000052300000000005240000000000000000000000000042015000000000046154100000000024142351400000000000000009999123100000010000000000000BRCIELACNOR3156
012024020902SAPR11      010SANEPAR     UNT     N2   R$  000000000270600000000028280000000002687000000000277600000000027950000000000000000000000000005024000000000001246300000000003460537900000000000000009999123100000010000000000000BRSAPRCDAM13117
012024020902SAPR3       010SANEPAR     ON      N2   R$  000000000052400000000005320000000000514000000000052700000000005320000000000000000000000000000995000000000000411900000000000217189600000000000000009999123100000010000000000000BRSAPRACNOR9158
012024020902SAPR4       010SANEPAR     PN      N2   R$  000000000054800000000005700000000000541000000000056000000000005690000000000000000000000000002968000000000002036700000000001142256900000000000000009999123100000010000000000000BRSAPRACNPR6158
012024020902VALE3       010VALE        ON      NM   R$  000000000661000000000066590000000006538000000000659000000000065920000000000000000000000000038120000000000018524800000000122085539900000000000000009999123100000010000000000000BRVALEACNOR0209
012024020902WEST3       010WESTWING    ON      NM   R$  000000000012100000000001230000000000120000000000012000000000001200000000000000000000000000000025000000000000045100000000000005425700000000000000009999123100000010000000000000BRWESTACNOR3100
012024020902CXSE3       010CAIXA SEGURION      NM   R$  000000000138400000000014060000000001376000000000139000000000013840000000000000000000000000013346000000000004303700000000005982667800000000000000009999123100000010000000000000BRCXSEACNOR7105
012024020902CYRE3       010CYRELA REALTON      NM   R$  000000000226500000000023360000000002251000000000230200000000023130000000000000000000000000014269000000000005209700000000011995833700000000000000009999123100000010000000000000BRCYREACNOR7139
012024020902GGBR3       010GERDAU      ON      N1   R$  000000000201000000000020300000000001966000000000199000000000019730000000000000000000000000000317000000000000062100000000000123630000000000000000009999123100000010000000000000BRGGBRACNOR1189
012024020902GGBR4       010GERDAU      PN      N1   R$  000000000212300000000021620000000002090000000000211000000000020980000000000000000000000000015706000000000008161800000000017225579200000000000000009999123100000010000000000000BRGGBRACNPR8189
012024020902ITSA3       010ITAUSA      ON      N1   R$  000000000102500000000010440000000001025000000000103900000000010430000000000000000000000000000849000000000000233500000000000242644000000000000000009999123100000010000000000000BRITSAACNOR0436
012024020902WHRL3       010WHIRLPOOL   ON           R$  000000000041100000000004300000000000411000000000042700000000004270000000000000000000000000000015000000000000005900000000000002524200000000000000009999123100000010000000000000BRWHRLACNOR5128
012024020902WHRL4       010WHIRLPOOL   PN           R$  000000000046000000000004630000000000457000000000046000000000004620000000000000000000000000000012000000000000001600000000000000736300000000000000009999123100000010000000000000BRWHRLACNPR2128
012024020902WIZC3       010WIZ CO      ON      NM   R$  000000000063400000000006340000000000617000000000062300000000006210000000000000000000000000001612000000000000493800000000000307674300000000000000009999123100000010000000000000BRWIZCACNOR5101
012024020902WLMM4       010WLM IND COM PN  EJ       R$  000000000279800000000028390000000002702000000000276700000000028390000000000000000000000000000006000000000000000600000000000001660300000000000000009999123100000010000000000000BRWLMMACNPR3117
012024020902ITSA4       010ITAUSA      PN      N1   R$  000000000103400000000010440000000001030000000000103900000000010370000000000000000000000000027378000000000017720900000000018413757000000000000000009999123100000010000000000000BRITSAACNPR7436
012024020902MAPT4       010CEMEPE      PN           R$  000000000098300000000009830000000000983000000000098300000000009830000000000000000000000000000001000000000000000100000000000000098300000000000000009999123100000010000000000000BRMAPTACNPR5106
012024020902MATD3       010MATER DEI   ON      NM   R$  000000000063300000000006630000000000630000000000065000000000006570000000000000000000000000001821000000000000336200000000000218762100000000000000009999123100000010000000000000BRMATDACNOR4103
012024020902MBLY3       010MOBLY       ON      NM   R$  000000000021900000000002240000000000211000000000021700000000002190000000000000000000000000004888000000000002025600000000000440902000000000000000009999123100000010000000000000BRMBLYACNOR5100
012024020902MDIA3       010M.DIASBRANCOON      NM   R$  000000000388000000000039400000000003814000000000389400000000039070000000000000000000000000002788000000000000621700000000002421313100000000000000009999123100000010000000000000BRMDIAACNOR7133
012024020902MDNE3       010MOURA DUBEUXON      NM   R$  000000000109500000000011300000000001086000000000111300000000011280000000000000000000000000002998000000000000433400000000000482598100000000000000009999123100000010000000000000BRMDNEACNOR9100
012024020902MEAL3       010IMC S/A     ON      NM   R$  000000000017000000000001870000000000167000000000017700000000001870000000000000000000000000000811000000000002167600000000000383766700000000000000009999123100000010000000000000BRMEALACNOR9105
012024020902MELK3       010MELNICK     ON      NM   R$  000000000044500000000004550000000000435000000000044400000000004500000000000000000000000000000234000000000000180800000000000080402900000000000000009999123100000010000000000000BRMELKACNOR8110
012024020902B3SA3       010B3          ON      NM   R$  000000000131100000000013330000000001307000000000132100000000013240000000000000000000000000044892000000000076234800000000100748513500000000000000009999123100000010000000000000BRB3SAACNOR6130
012024020902ROMI3       010ROMI        ON      NM   R$  000000000126400000000012780000000001240000000000125600000000012400000000000000000000000000001411000000000000268600000000000337569800000000000000009999123100000010000000000000BRROMIACNOR8192
012024020902TFCO4       010TRACK FIELD PN      N2   R$  000000000137000000000014160000000001370000000000140000000000014160000000000000000000000000000179000000000000036500000000000051120100000000000000009999123100000010000000000000BRTFCOACNPR8111
012024020902TGMA3       010TEGMA       ON      NM   R$  000000000260300000000026410000000002555000000000260300000000025810000000000000000000000000000628000000000000079000000000000205713300000000000000009999123100000010000000000000BRTGMAACNOR7143
012024020902TIMS3       010TIM         ON      NM   R$  000000000183700000000018520000000001812000000000182900000000018380000000000000000000000000011226000000000004193000000000007670898300000000000000009999123100000010000000000000BRTIMSACNOR5114
012024020902TOTS3       010TOTVS       ON      NM   R$  000000000295700000000030840000000002925000000000303000000000030620000000000000000000000000020801000000000006940900000000021033390200000000000000009999123100000010000000000000BRTOTSACNOR8144
012024020902TPIS3       010TRIUNFO PARTON      NM   R$  000000000038800000000003880000000000380000000000038400000000003880000000000000000000000000000087000000000000051200000000000019709300000000000000009999123100000010000000000000BRTPISACNOR8118
012024020902TRAD3       010TC          ON      NM   R$  000000000006800000000000700000000000067000000000006700000000000690000000000000000000000000000143000000000000207300000000000014049900000000000000009999123100000010000000000000BRTRADACNOR3101
012024020902TRIS3       010TRISUL      ON      NM   R$  000000000043600000000004440000000000428000000000043700000000004350000000000000000000000000001064000000000000334300000000000146195600000000000000009999123100000010000000000000BRTRISACNOR4116
012024020902TRPL3       010TRAN PAULISTON      N1   R$  000000000339300000000034000000000003280000000000332100000000032800000000000000000000000000000099000000000000011400000000000037865600000000000000009999123100000010000000000000BRTRPLACNOR4185
012024020902TRPL4       010TRAN PAULISTPN      N1   R$  000000000263600000000026680000000002594000000000263700000000026530000000000000000000000000011569000000000002586500000000006821927500000000000000009999123100000010000000000000BRTRPLACNPR1185
012024020902TTEN3       0103TENTOS     ON      NM   R$  000000000100100000000010070000000000965000000000098300000000009680000000000000000000000000008698000000000002830200000000002784356300000000000000009999123100000010000000000000BRTTENACNOR0102
012024020902TUPY3       010TUPY        ON      NM   R$  000000000256200000000025690000000002500000000000252600000000025000000000000000000000000000001938000000000000310200000000000783643200000000000000009999123100000010000000000000BRTUPYACNOR1183
012024020902VITT3       010VITTIA      ON      NM   R$  000000000081000000000008190000000000750000000000077500000000007770000000000000000000000000003184000000000000958900000000000743990300000000000000009999123100000010000000000000BRVITTACNOR4106
012024020902VIVA3       010VIVARA S.A. ON      NM   R$  000000000316600000000032440000000003166000000000320800000000031870000000000000000000000000005908000000000001170300000000003754742100000000000000009999123100000010000000000000BRVIVAACNOR0106
012024020902VIVR3       010VIVER       ON  ES  NM   R$  000000000041300000000004150000000000400000000000040500000000004060000000000000000000000000000198000000000000137000000000000055559600000000000000009999123100000010000000000000BRVIVRACNOR4122
012024020902VIVT3       010TELEF BRASILON           R$  000000000539600000000053980000000005302000000000534700000000053660000000000000000000000000005018000000000000941000000000005032060300000000000000009999123100000010000000000000BRVIVTACNOR0178
012024020902VLID3       010VALID       ON      NM   R$  000000000200600000000020080000000001966000000000198000000000019870000000000000000000000000001540000000000000287200000000000568864300000000000000009999123100000010000000000000BRVLIDACNOR5141
012024020902VSTE3       010VESTE       ON      NM   R$  000000000172000000000017500000000001710000000000171900000000017100000000000000000000000000000007000000000000000700000000000001203800000000000000009999123100000010000000000000BRVSTEACNOR5102
012024020902VULC3       010VULCABRAS   ON      NM   R$  000000000175000000000017870000000001728000000000175900000000017690000000000000000000000000006019000000000001470700000000002588149300000000000000009999123100000010000000000000BRVULCACNOR2157
012024020902VVEO3       010VIVEO       ON      NM   R$  000000000088400000000008960000000000826000000000085000000000008590000000000000000000000000008355000000000001983000000000001686931300000000000000009999123100000010000000000000BRVVEOACNOR0103
012024020902MTRE3       010MITRE REALTYON      NM   R$  000000000045500000000004840000000000452000000000047100000000004800000000000000000000000000003215000000000001314900000000000620447200000000000000009999123100000010000000000000BRMTREACNOR6109
012024020902MTSA4       010METISA      PN           R$  000000000493400000000049790000000004910000000000493200000000049100000000000000000000000000000027000000000000003100000000000015290500000000000000009999123100000010000000000000BRMTSAACNPR9071
012024020902MULT3       010MULTIPLAN   ON      N2   R$  000000000273100000000027310000000002609000000000263900000000026430000000000000000000000000029292000000000007128400000000018812915900000000000000009999123100000010000000000000BRMULTACNOR5137
012024020902MWET4       010WETZEL S/A  PN           R$  000000000057000000000005700000000000570000000000057000000000005700000000000000000000000000000002000000000000000300000000000000171000000000000000009999123100000010000000000000BRMWETACNPR3118
012024020902MYPK3       010IOCHP-MAXIONON      NM   R$  000000000117800000000011980000000001170000000000118300000000011770000000000000000000000000002256000000000000508400000000000601441200000000000000009999123100000010000000000000BRMYPKACNOR7153
012024020902RANI3       010IRANI       ON      NM   R$  000000000100800000000010270000000000992000000000100700000000010020000000000000000000000000003607000000000000970000000000000976912800000000000000009999123100000010000000000000BRRANIACNOR5069
012024020902RAPT3       010RANDON PART ON      N1   R$  000000000106100000000010840000000001044000000000105700000000010520000000000000000000000000000062000000000000018800000000000019874300000000000000009999123100000010000000000000BRRAPTACNOR7162
012024020902RAPT4       010RANDON PART PN      N1   R$  000000000109000000000011090000000001061000000000107500000000010620000000000000000000000000010545000000000002611900000000002808491100000000000000009999123100000010000000000000BRRAPTACNPR4162
012024020902LUPA3       010LUPATECH    ON      NM   R$  000000000018800000000001910000000000183000000000018600000000001850000000000000000000000000000501000000000000392500000000000073126600000000000000009999123100000010000000000000BRLUPAACNOR8112
012024020902LVTC3       010WDC NETWORKSON      NM   R$  000000000038000000000003800000000000370000000000037500000000003790000000000000000000000000000085000000000000029100000000000010940200000000000000009999123100000010000000000000BRLVTCACNOR4102
012024020902LWSA3       010LWSA        ON      NM   R$  000000000055000000000005720000000000546000000000056300000000005590000000000000000000000000008713000000000006452400000000003635399500000000000000009999123100000010000000000000BRLWSAACNOR8103
012024020902OFSA3       010OUROFINO S/AON      NM   R$  000000000224300000000022440000000002220000000000222100000000022200000000000000000000000000000015000000000000005900000000000013106900000000000000009999123100000010000000000000BROFSAACNOR7117
012024020902ONCO3       010ONCOCLINICASON      NM   R$  000000000108600000000010990000000001081000000000109000000000010990000000000000000000000000007365000000000003741500000000004080647400000000000000009999123100000010000000000000BRONCOACNOR6100
012024020902OPCT3       010OCEANPACT   ON      NM   R$  000000000056300000000005780000000000550000000000056100000000005600000000000000000000000000001184000000000000672500000000000377865800000000000000009999123100000010000000000000BROPCTACNOR0100
012024020902ORVR3       010ORIZON      ON      NM   R$  000000000343600000000034700000000003319000000000335000000000033360000000000000000000000000002565000000000000491400000000001646536000000000000000009999123100000010000000000000BRORVRACNOR0101
012024020902UCAS3       010UNICASA     ON      NM   R$  000000000026400000000002690000000000262000000000026400000000002650000000000000000000000000000055000000000000013200000000000003494600000000000000009999123100000010000000000000BRUCASACNOR1113
012024020902UGPA3       010ULTRAPAR    ON      NM   R$  000000000290000000000029890000000002900000000000296300000000029630000000000000000000000000013227000000000004692600000000013904593900000000000000009999123100000010000000000000BRUGPAACNOR8154
012024020902UNIP3       010UNIPAR      ON           R$  000000000640500000000064050000000006311000000000634600000000063480000000000000000000000000000064000000000000008300000000000052679700000000000000009999123100000010000000000000BRUNIPACNOR7204
012024020902UNIP5       010UNIPAR      PNA          R$  000000000719900000000072490000000007199000000000721200000000072490000000000000000000000000000003000000000000000400000000000002884800000000000000009999123100000010000000000000BRUNIPACNPA0206
012024020902UNIP6       010UNIPAR      PNB          R$  000000000688700000000069130000000006708000000000678400000000067080000000000000000000000000001106000000000000189100000000001282940900000000000000009999123100000010000000000000BRUNIPACNPB8204
012024020902PCAR3       010P.ACUCAR-CBDON      NM   R$  000000000039800000000004140000000000395000000000040100000000003960000000000000000000000000004313000000000005051200000000002029945200000000000000009999123100000010000000000000BRPCARACNOR3167
012024020902PDGR3       010PDG REALT   ON      NM   R$  000000000003300000000000360000000000033000000000003400000000000340000000000000000000000000000630000000000002936900000000000101349700000000000000009999123100000010000000000000BRPDGRACNOR8118
012024020902PDTC3       010PADTEC      ON      NM   R$  000000000031500000000003150000000000303000000000030600000000003030000000000000000000000000000076000000000000033100000000000010133100000000000000009999123100000010000000000000BRPDTCACNOR3100
012024020902PETZ3       010PETZ        ON      NM   R$  000000000035500000000003580000000000339000000000035000000000003530000000000000000000000000009356000000000015865500000000005567813300000000000000009999123100000010000000000000BRPETZACNOR2109
012024020902RPAD3       010ALFA HOLDINGON           R$  000000000082300000000008320000000000823000000000082900000000008320000000000000000000000000000005000000000000006300000000000005226500000000000000009999123100000010000000000000BRRPADACNOR1198
012024020902RRRP3       0103R PETROLEUMON      NM   R$  000000000293500000000029430000000002802000000000284400000000028190000000000000000000000000017508000000000005513700000000015682104700000000000000009999123100000010000000000000BRRRRPACNOR5102
012024020902RSUL4       010RIOSULENSE  PN           R$  000000000785000000000079990000000007850000000000790000000000079990000000000000000000000000000006000000000000000600000000000004740100000000000000009999123100000010000000000000BRRSULACNPR3113
012024020902USIM3       010USIMINAS    ON      N1   R$  000000000090300000000009200000000000871000000000089100000000008940000000000000000000000000002900000000000001503100000000001340467400000000000000009999123100000010000000000000BRUSIMACNOR3166
012024020902USIM5       010USIMINAS    PNA     N1   R$  000000000096700000000009770000000000901000000000092800000000009280000000000000000000000000019858000000000031510500000000029243142700000000000000009999123100000010000000000000BRUSIMACNPA6168
012024020902WEGE3       010WEG         ON      NM   R$  000000000337900000000033800000000003327000000000334500000000033370000000000000000000000000011091000000000004039400000000013514188600000000000000009999123100000010000000000000BRWEGEACNOR0220
012024020902KRSA3       010KORA SAUDE  ON      NM   R$  000000000009300000000000950000000000091000000000009200000000000910000000000000000000000000000153000000000000123300000000000011451100000000000000009999123100000010000000000000BRKRSAACNOR0100
012024020902LAND3       010TERRASANTAPAON      NM   R$  000000000145400000000015400000000001403000000000147200000000014870000000000000000000000000000526000000000000107600000000000158451000000000000000009999123100000010000000000000BRLANDACNOR9102
012024020902LAVV3       010LAVVI       ON      NM   R$  000000000077100000000007830000000000757000000000076900000000007720000000000000000000000000002593000000000000556100000000000427951600000000000000009999123100000010000000000000BRLAVVACNOR4110
012024020902LEVE3       010METAL LEVE  ON      NM   R$  000000000332800000000033980000000003323000000000336300000000033570000000000000000000000000002416000000000000382000000000001284955100000000000000009999123100000010000000000000BRLEVEACNOR2196
012024020902LJQQ3       010QUERO-QUERO ON      NM   R$  000000000048100000000004940000000000473000000000048100000000004790000000000000000000000000004308000000000003359000000000001617965700000000000000009999123100000010000000000000BRLJQQACNOR5104
012024020902LOGG3       010LOG COM PROPON      NM   R$  000000000215300000000021770000000002113000000000215200000000021350000000000000000000000000001145000000000000186200000000000400833700000000000000009999123100000010000000000000BRLOGGACNOR7106
012024020902LOGN3       010LOG-IN      ON      NM   R$  000000000365200000000037460000000003589000000000365300000000035890000000000000000000000000000209000000000000027600000000000100827900000000000000009999123100000010000000000000BRLOGNACNOR3105
012024020902LPSB3       010LOPES BRASILON      NM   R$  000000000021500000000002170000000000204000000000021000000000002050000000000000000000000000000331000000000000235200000000000049473700000000000000009999123100000010000000000000BRLPSBACNOR0113
012024020902LREN3       010LOJAS RENNERON      NM   R$  000000000150300000000015350000000001476000000000150000000000014830000000000000000000000000023031000000000010396400000000015596926800000000000000009999123100000010000000000000BRLRENACNOR1219
012024020902NEOE3       010NEOENERGIA  ON      NM   R$  000000000209300000000020990000000002030000000000205000000000020460000000000000000000000000006416000000000001692300000000003469869000000000000000009999123100000010000000000000BRNEOEACNOR3121
012024020902NGRD3       010NEOGRID     ON      NM   R$  000000000011100000000001130000000000110000000000011100000000001110000000000000000000000000000236000000000000256700000000000028526200000000000000009999123100000010000000000000BRNGRDACNOR3103
012024020902SEER3       010SER EDUCA   ON      NM   R$  000000000056400000000005780000000000562000000000056700000000005670000000000000000000000000001963000000000000495700000000000281508900000000000000009999123100000010000000000000BRSEERACNOR5119
012024020902SEQL3       010SEQUOIA LOG ON      NM   R$  000000000004800000000000490000000000047000000000004700000000000480000000000000000000000000003712000000000004154800000000000198261900000000000000009999123100000010000000000000BRSEQLACNOR2101
012024020902SGPS3       010SPRINGS     ON      NM   R$  000000000011400000000001140000000000108000000000011000000000001100000000000000000000000000000141000000000000236800000000000026240600000000000000009999123100000010000000000000BRSGPSACNOR4104
012024020902SHOW3       010TIME FOR FUNON      NM   R$  000000000020500000000002060000000000203000000000020400000000002030000000000000000000000000000169000000000000067700000000000013814300000000000000009999123100000010000000000000BRSHOWACNOR7105
012024020902SHUL4       010SCHULZ      PN           R$  000000000065500000000006620000000000648000000000065100000000006490000000000000000000000000000794000000000000222900000000000145198800000000000000009999123100000010000000000000BRSHULACNPR4154
012024020902SIMH3       010SIMPAR      ON      NM   R$  000000000075200000000007640000000000737000000000074600000000007370000000000000000000000000004946000000000002240600000000001672308600000000000000009999123100000010000000000000BRSIMHACNOR0107
012024020902ZAMP3       010ZAMP S.A.   ON           R$  000000000046500000000004860000000000463000000000047700000000004780000000000000000000000000002967000000000000865200000000000413348100000000000000009999123100000010000000000000BRZAMPACNOR5100
012024020902BLAU3       010BLAU        ON      NM   R$  000000000121900000000012330000000001193000000000121400000000012000000000000000000000000000001864000000000000305900000000000371587000000000000000009999123100000010000000000000BRBLAUACNOR8111
012024020902HYPE3       010HYPERA      ON  EJ  NM   R$  000000000321000000000032370000000003170000000000319600000000031850000000000000000000000000005623000000000001193900000000003815713400000000000000009999123100000010000000000000BRHYPEACNOR0137
012024020902JBSS3       010JBS         ON      NM   R$  000000000229000000000023060000000002233000000000225300000000022450000000000000000000000000017064000000000005038000000000011354496500000000000000009999123100000010000000000000BRJBSSACNOR8121
012024020902JHSF3       010JHSF PART   ON  ED  NM   R$  000000000044300000000004450000000000430000000000043300000000004310000000000000000000000000005628000000000011448000000000004963160000000000000000009999123100000010000000000000BRJHSFACNOR2132
012024020902APER3       010ALPER S.A.  ON           R$  000000000391000000000044730000000003910000000000439200000000043970000000000000000000000000000044000000000000006700000000000029427100000000000000009999123100000010000000000000BRAPERACNOR9106
012024020902BBDC3       010BRADESCO    ON  EJ  N1   R$  000000000126300000000012640000000001218000000000124000000000012400000000000000000000000000018859000000000015144900000000018780780400000000000000009999123100000010000000000000BRBBDCACNOR1766
012024020902BBDC4       010BRADESCO    PN  EJ  N1   R$  000000000136600000000013750000000001318000000000134400000000013460000000000000000000000000072512000000000099711000000000134038890100000000000000009999123100000010000000000000BRBBDCACNPR8766
012024020902BRAP3       010BRADESPAR   ON      N1   R$  000000000205700000000020650000000002034000000000204400000000020490000000000000000000000000000244000000000000042700000000000087296400000000000000009999123100000010000000000000BRBRAPACNOR5147
012024020902BRAP4       010BRADESPAR   PN      N1   R$  000000000221800000000022360000000002186000000000220300000000021930000000000000000000000000005500000000000002222600000000004897885000000000000000009999123100000010000000000000BRBRAPACNPR2147
012024020902BRBI11      010BR PARTNERS UNT     N2   R$  000000000150000000000015600000000001484000000000151500000000015310000000000000000000000000002504000000000000492900000000000746964100000000000000009999123100000010000000000000BRBRBICDAM10107
012024020902BRFS3       010BRF SA      ON      NM   R$  000000000145400000000014600000000001423000000000144100000000014480000000000000000000000000014952000000000004407200000000006352543800000000000000009999123100000010000000000000BRBRFSACNOR8121
012024020902BMEB3       010MERCANTIL   ON      N1   R$  000000000229900000000024300000000002233000000000233000000000024300000000000000000000000000000024000000000000013700000000000031929400000000000000009999123100000010000000000000BRBMEBACNOR8205
012024020902BMEB4       010MERCANTIL   PN      N1   R$  000000000229400000000026000000000002294000000000245600000000026000000000000000000000000000000175000000000000052400000000000128700000000000000000009999123100000010000000000000BRBMEBACNPR5210
012024020902BMGB4       010BANCO BMG   PN      N1   R$  000000000041000000000004280000000000406000000000041500000000004250000000000000000000000000004450000000000002354000000000000978852600000000000000009999123100000010000000000000BRBMGBACNPR0108
012024020902BMIN3       010MERC INVEST ON  EDJ      R$  000000000197300000000021290000000001973000000000202500000000021290000000000000000000000000000003000000000000000300000000000000607600000000000000009999123100000010000000000000BRBMINACNOR4170
012024020902BMIN4       010MERC INVEST PN  EDJ      R$  000000000150000000000015400000000001500000000000151800000000015350000000000000000000000000000010000000000000001600000000000002429200000000000000009999123100000010000000000000BRBMINACNPR1176
012024020902BMKS3       010BIC MONARK  ON           R$  000000003589900000000365000000000035899000000003600600000000365000000000000000000000000000000006000000000000000013000000000000468089000000000000009999123100000010000000000000BRBMKSACNOR9165
012024020902BMOB3       010BEMOBI TECH ON      NM   R$  000000000123500000000012590000000001228000000000124500000000012440000000000000000000000000000922000000000000223300000000000278180300000000000000009999123100000010000000000000BRBMOBACNOR7103
012024020902MGLU3       010MAGAZ LUIZA ON  ES  NM   R$  000000000020700000000002140000000000205000000000020900000000002080000000000000000000000000023638000000000164807400000000034584622700000000000000009999123100000010000000000000BRMGLUACNOR2123
012024020902PETR3       010PETROBRAS   ON      N2   R$  000000000432300000000043540000000004252000000000428500000000042740000000000000000000000000019408000000000011993700000000051402185800000000000000009999123100000010000000000000BRPETRACNOR9202
012024020902PETR4       010PETROBRAS   PN      N2   R$  000000000421400000000042330000000004130000000000417100000000041300000000000000000000000000039807000000000030351400000000126601434900000000000000009999123100000010000000000000BRPETRACNPR6209
012024020902PFRM3       010PROFARMA    ON      NM   R$  000000000046000000000004670000000000452000000000045700000000004520000000000000000000000000000420000000000000217000000000000099280800000000000000009999123100000010000000000000BRPFRMACNOR1116
012024020902PGMN3       010PAGUE MENOS ON      NM   R$  000000000029000000000002900000000000284000000000028600000000002850000000000000000000000000002428000000000002174300000000000622130400000000000000009999123100000010000000000000BRPGMNACNOR8103
012024020902PINE3       010PINE        ON      N2   R$  000000000043900000000004390000000000439000000000043900000000004390000000000439000000000046700004000000000000001100000000000000482900000000000000009999123100000010000000000000BRPINEACNOR1148
012024020902PINE4       010PINE        PN      N2   R$  000000000044000000000004530000000000428000000000043800000000004360000000000000000000000000001179000000000000679500000000000297712900000000000000009999123100000010000000000000BRPINEACNPR8148
012024020902PLPL3       010PLANOEPLANO ON      NM   R$  000000000119900000000012220000000001165000000000118800000000011690000000000000000000000000001765000000000000618000000000000734624900000000000000009999123100000010000000000000BRPLPLACNOR5104
012024020902CPFE3       010CPFL ENERGIAON      NM   R$  000000000357100000000035920000000003531000000000356600000000035860000000000000000000000000005638000000000001267100000000004519046600000000000000009999123100000010000000000000BRCPFEACNOR0136
012024020902CPLE3       010COPEL       ON      N2   R$  000000000090100000000009150000000000896000000000090400000000009110000000000000000000000000005832000000000006078900000000005497209700000000000000009999123100000010000000000000BRCPLEACNOR8148
012024020902CPLE5       010COPEL       PNA     N2   R$  000000000221300000000022130000000002192000000000220300000000021920000000000000000000000000000003000000000000000300000000000000661100000000000000009999123100000010000000000000BRCPLEACNPA1146
012024020902CPLE6       010COPEL       PNB     N2   R$  000000000100800000000010250000000001003000000000101600000000010200000000000000000000000000020579000000000011165200000000011344404100000000000000009999123100000010000000000000BRCPLEACNPB9145
012024020902ELMD3       010ELETROMIDIA ON      NM   R$  000000000174600000000018100000000001746000000000178900000000017780000000000000000000000000000175000000000000057000000000000102007900000000000000009999123100000010000000000000BRELMDACNOR3100
012024020902EMBR3       010EMBRAER     ON      NM   R$  000000000218900000000022780000000002189000000000224700000000022560000000000000000000000000017818000000000008860000000000019911772300000000000000009999123100000010000000000000BREMBRACNOR4191
012024020902ENAT3       010ENAUTA PART ON      NM   R$  000000000193800000000019390000000001913000000000192300000000019180000000000000000000000000003748000000000000761600000000001464725900000000000000009999123100000010000000000000BRENATACNOR0104
012024020902ENEV3       010ENEVA       ON      NM   R$  000000000126800000000013020000000001262000000000128600000000012830000000000000000000000000013144000000000005050900000000006497789400000000000000009999123100000010000000000000BRENEVACNOR8105
012024020902HBOR3       010HELBOR      ON      NM   R$  000000000026600000000002710000000000262000000000026700000000002700000000000000000000000000000480000000000000420300000000000112225100000000000000009999123100000010000000000000BRHBORACNOR3117
012024020902HBRE3       010HBR REALTY  ON      NM   R$  000000000047100000000004850000000000460000000000047100000000004710000000000000000000000000000472000000000000220800000000000104187800000000000000009999123100000010000000000000BRHBREACNOR4100
012024020902HBSA3       010HIDROVIAS   ON      NM   R$  000000000036400000000003700000000000362000000000036400000000003630000000000000000000000000006824000000000003281900000000001195103600000000000000009999123100000010000000000000BRHBSAACNOR0100
012024020902HBTS5       010HABITASUL   PNA          R$  000000000331000000000033100000000003300000000000330300000000033000000000000000000000000000000003000000000000000400000000000001321200000000000000009999123100000010000000000000BRHBTSACNPA3127
012024020902CAMB3       010CAMBUCI     ON           R$  000000000113400000000011450000000001045000000000110200000000011390000000000000000000000000000144000000000000048800000000000053803400000000000000009999123100000010000000000000BRCAMBACNOR4127
012024020902CAML3       010CAMIL       ON      NM   R$  000000000084800000000008790000000000846000000000086600000000008700000000000000000000000000001574000000000000380500000000000329528100000000000000009999123100000010000000000000BRCAMLACNOR3126
012024020902CASH3       010MELIUZ      ON      NM   R$  000000000074200000000007540000000000733000000000074300000000007390000000000000000000000000004984000000000002047600000000001522349600000000000000009999123100000010000000000000BRCASHACNOR8105
012024020902CBAV3       010CBA         ON      NM   R$  000000000038200000000003870000000000376000000000038100000000003850000000000000000000000000006839000000000003948900000000001506416000000000000000009999123100000010000000000000BRCBAVACNOR5104
012024020902CCRO3       010CCR SA      ON      NM   R$  000000000133000000000013800000000001328000000000135700000000013650000000000000000000000000017828000000000011503800000000015616808500000000000000009999123100000010000000000000BRCCROACNOR2144
012024020902CEAB3       010CEA MODAS   ON      NM   R$  000000000081400000000008580000000000808000000000083200000000008170000000000000000000000000009081000000000005487300000000004568766600000000000000009999123100000010000000000000BRCEABACNOR1101
012024020902CSUD3       010CSU DIGITAL ON      NM   R$  000000000183000000000018540000000001803000000000183000000000018520000000000000000000000000000433000000000000056600000000000103612300000000000000009999123100000010000000000000BRCSUDACNOR5107
012024020902CTNM3       010COTEMINAS   ON           R$  000000000098000000000010000000000000900000000000095300000000009500000000000000000000000000000010000000000000001000000000000000953100000000000000009999123100000010000000000000BRCTNMACNOR9130
012024020902CTNM4       010COTEMINAS   PN           R$  000000000013900000000001400000000000136000000000013800000000001360000000000000000000000000000074000000000000049000000000000006766500000000000000009999123100000010000000000000BRCTNMACNPR6129
012024020902CTSA3       010SANTANENSE  ON           R$  000000000032200000000003450000000000322000000000032800000000003280000000000000000000000000000011000000000000002600000000000000853100000000000000009999123100000010000000000000BRCTSAACNOR3062
012024020902CTSA4       010SANTANENSE  PN           R$  000000000017900000000001830000000000171000000000017500000000001710000000000000000000000000000196000000000000041400000000000007267800000000000000009999123100000010000000000000BRCTSAACNPR0062
012024020902CURY3       010CURY S/A    ON      NM   R$  000000000188900000000019030000000001842000000000188000000000018420000000000000000000000000004857000000000001780600000000003348037400000000000000009999123100000010000000000000BRCURYACNOR3107
012024020902CVCB3       010CVC BRASIL  ON      NM   R$  000000000031300000000003230000000000309000000000031600000000003180000000000000000000000000007910000000000018355100000000005804594400000000000000009999123100000010000000000000BRCVCBACNOR1115
012024020902FRAS3       010FRAS-LE     ON      N1   R$  000000000151200000000015410000000001510000000000152100000000015230000000000000000000000000000987000000000000133400000000000202977700000000000000009999123100000010000000000000BRFRASACNOR0158
012024020902FRIO3       010METALFRIO   ON      NM   R$  000000003099900000000309990000000030999000000003099900000000309990000000000000000000000000000001000000000000000100000000000003099900000000000000009999123100000010000000000000BRFRIOACNOR2111
012024020902ALPA3       010ALPARGATAS  ON      N1   R$  000000000088200000000009210000000000882000000000090200000000008930000000000000000000000000000028000000000000004600000000000004153500000000000000009999123100000010000000000000BRALPAACNOR0231
012024020902ALPA4       010ALPARGATAS  PN      N1   R$  000000000080200000000008670000000000793000000000084800000000008620000000000000000000000000011748000000000012262000000000010399984700000000000000009999123100000010000000000000BRALPAACNPR7232
012024020902ALPK3       010ESTAPAR     ON      NM   R$  000000000041900000000004310000000000416000000000042300000000004260000000000000000000000000000242000000000000071200000000000030162900000000000000009999123100000010000000000000BRALPKACNOR9101
012024020902ALUP11      010ALUPAR      UNT     N2   R$  000000000290500000000029190000000002881000000000290300000000029080000000000000000000000000004076000000000000680400000000001975249500000000000000009999123100000010000000000000BRALUPCDAM15117
012024020902ALUP3       010ALUPAR      ON      N2   R$  000000000097100000000009740000000000961000000000096800000000009730000000000000000000000000000059000000000000007200000000000006974000000000000000009999123100000010000000000000BRALUPACNOR8117
012024020902ALUP4       010ALUPAR      PN      N2   R$  000000000097100000000009740000000000963000000000096800000000009740000000000000000000000000000098000000000000015500000000000015004000000000000000009999123100000010000000000000BRALUPACNPR5117
012024020902AMAR3       010LOJAS MARISAON      NM   R$  000000000025600000000002630000000000255000000000025900000000002560000000000000000000000000000609000000000000250300000000000064859200000000000000009999123100000010000000000000BRAMARACNOR4114
012024020902AMBP3       010AMBIPAR     ON      NM   R$  000000000138800000000014080000000001363000000000138200000000013790000000000000000000000000002322000000000000488700000000000675719800000000000000009999123100000010000000000000BRAMBPACNOR6103
012024020902ANIM3       010ANIMA       ON      NM   R$  000000000041200000000004260000000000410000000000041600000000004110000000000000000000000000005103000000000003208300000000001336833500000000000000009999123100000010000000000000BRANIMACNOR6107
012024020902GFSA3       010GAFISA      ON      NM   R$  000000000060000000000006370000000000578000000000060400000000006040000000000000000000000000011235000000000008069000000000004876965100000000000000009999123100000010000000000000BRGFSAACNOR3123
012024020902INEP3       010INEPAR      ON           R$  000000000038400000000003950000000000377000000000038500000000003950000000000000000000000000000149000000000000063100000000000024295700000000000000009999123100000010000000000000BRINEPACNOR1143
012024020902INEP4       010INEPAR      PN           R$  000000000032700000000003370000000000327000000000033100000000003310000000000000000000000000000066000000000000020300000000000006735700000000000000009999123100000010000000000000BRINEPACNPR8143
012024020902INTB3       010INTELBRAS   ON      NM   R$  000000000197500000000020040000000001954000000000197000000000019590000000000000000000000000003133000000000000602400000000001187306600000000000000009999123100000010000000000000BRINTBACNOR9109
012024020902IRBR3       010IRBBRASIL REON      NM   R$  000000000408000000000041220000000003980000000000402900000000039800000000000000000000000000003886000000000001020500000000004112494500000000000000009999123100000010000000000000BRIRBRACNOR4110
012024020902AERI3       010AERIS       ON      NM   R$  000000000007700000000000770000000000076000000000007600000000000770000000000000000000000000001018000000000002111800000000000161613100000000000000009999123100000010000000000000BRAERIACNOR4101
012024020902AESB3       010AES BRASIL  ON      NM   R$  000000000102800000000010350000000001006000000000101800000000010270000000000000000000000000007917000000000002954900000000003010116700000000000000009999123100000010000000000000BRAESBACNOR7105
012024020902AFLT3       010AFLUENTE T  ON           R$  000000000079500000000007950000000000795000000000079500000000007950000000000000000000000000000001000000000000000200000000000000159000000000000000009999123100000010000000000000BRAFLTACNOR1120
012024020902AGRO3       010BRASILAGRO  ON      NM   R$  000000000242800000000024290000000002369000000000239200000000023840000000000000000000000000002543000000000000398300000000000952895900000000000000009999123100000010000000000000BRAGROACNOR7114
012024020902AGXY3       010AGROGALAXY  ON      NM   R$  000000000022100000000002230000000000196000000000020500000000002000000000000000000000000000001001000000000000711300000000000145818900000000000000009999123100000010000000000000BRAGXYACNOR4102
012024020902ALLD3       010ALLIED      ON      NM   R$  000000000069100000000006970000000000688000000000069300000000006940000000000000000000000000000035000000000000008200000000000005687100000000000000009999123100000010000000000000BRALLDACNOR3105
012024020902AVLL3       010ALPHAVILLE  ON      NM   R$  000000000049000000000005000000000000482000000000049700000000004980000000000000000000000000000017000000000000003700000000000001840300000000000000009999123100000010000000000000BRAVLLACNOR5103
012024020902AZEV3       010AZEVEDO     ON           R$  000000000016200000000001680000000000154000000000016100000000001560000000000000000000000000000596000000000000633200000000000102010800000000000000009999123100000010000000000000BRAZEVACNOR0121
012024020902AZEV4       010AZEVEDO     PN           R$  000000000016100000000001700000000000149000000000015900000000001570000000000000000000000000001662000000000003228300000000000515464100000000000000009999123100000010000000000000BRAZEVACNPR7121
012024020902AZUL4       010AZUL        PN      N2   R$  000000000124000000000012570000000001208000000000122500000000012150000000000000000000000000012490000000000011611000000000014229506000000000000000009999123100000010000000000000BRAZULACNPR4102
012024020902NINJ3       010GETNINJAS   ON      NM   R$  000000000050400000000005060000000000503000000000050300000000005060000000000000000000000000000080000000000000026200000000000013196900000000000000009999123100000010000000000000BRNINJACNOR5101
012024020902NORD3       010NORDON MET  ON           R$  000000000126900000000012690000000001103000000000117500000000011030000000000000000000000000000014000000000000001400000000000001645800000000000000009999123100000010000000000000BRNORDACNOR7135
012024020902NTCO3       010GRUPO NATURAON      NM   R$  000000000164800000000016670000000001619000000000163800000000016490000000000000000000000000027981000000000010857900000000017789094800000000000000009999123100000010000000000000BRNTCOACNOR5104
012024020902ODPV3       010ODONTOPREV  ON      NM   R$  000000000131800000000013370000000001311000000000132000000000013160000000000000000000000000005543000000000001399300000000001848464500000000000000009999123100000010000000000000BRODPVACNOR4198
012024020902RECV3       010PETRORECSA  ON      NM   R$  000000000225200000000022760000000002187000000000220900000000021980000000000000000000000000006918000000000001829100000000004040654700000000000000009999123100000010000000000000BRRECVACNOR3105
012024020902REDE3       010REDE ENERGIAON           R$  000000000069100000000006910000000000682000000000068500000000006870000000000000000000000000000017000000000000003200000000000002193400000000000000009999123100000010000000000000BRREDEACNOR7126
012024020902RENT3       010LOCALIZA    ON      NM   R$  000000000526500000000053380000000005236000000000527000000000052500000000000000000000000000015795000000000002738500000000014434536500000000000000009999123100000010000000000000BRRENTACNOR4194
012024020902ALOS3       010ALLOS       ON      NM   R$  000000000241000000000024320000000002380000000000240200000000023960000000000000000000000000011470000000000002916000000000007006410600000000000000009999123100000010000000000000BRALOSACNOR5100
012024020902BEES3       010BANESTES    ON  EJ       R$  000000000096800000000009750000000000959000000000096500000000009680000000000000000000000000000055000000000000008400000000000008106300000000000000009999123100000010000000000000BRBEESACNOR9387
012024020902BEES4       010BANESTES    PN  EJ       R$  000000000100600000000010070000000001004000000000100500000000010050000000000000000000000000000020000000000000002700000000000002715800000000000000009999123100000010000000000000BRBEESACNPR6312
012024020902KEPL3       010KEPLER WEBERON      NM   R$  000000000096700000000009770000000000940000000000095700000000009400000000000000000000000000003566000000000001057200000000001012377100000000000000009999123100000010000000000000BRKEPLACNOR1061
012024020902KLBN11      010KLABIN S/A  UNT     N2   R$  000000000216200000000021710000000002137000000000214900000000021370000000000000000000000000007233000000000002533900000000005446400200000000000000009999123100000010000000000000BRKLBNCDAM18139
012024020902KLBN3       010KLABIN S/A  ON      N2   R$  000000000042900000000004330000000000425000000000042900000000004250000000000000000000000000001143000000000000416900000000000179076700000000000000009999123100000010000000000000BRKLBNACNOR2167
012024020902KLBN4       010KLABIN S/A  PN      N2   R$  000000000043200000000004350000000000429000000000043100000000004320000000000000000000000000002462000000000001948500000000000841389100000000000000009999123100000010000000000000BRKLBNACNPR9167
012024020902RAIL3       010RUMO S.A.   ON      NM   R$  000000000238600000000024550000000002371000000000242100000000024090000000000000000000000000035297000000000022070400000000053432488000000000000000009999123100000010000000000000BRRAILACNOR9104
012024020902RAIZ4       010RAIZEN      PN      N2   R$  000000000040000000000004070000000000388000000000039600000000003880000000000000000000000000019437000000000021731200000000008624623900000000000000009999123100000010000000000000BRRAIZACNPR6109
012024020902SYNE3       010SYN PROP TECON      NM   R$  000000000045100000000004560000000000445000000000045300000000004560000000000000000000000000000364000000000000139700000000000063311300000000000000009999123100000010000000000000BRSYNEACNOR2102
012024020902TAEE11      010TAESA       UNT     N2   R$  000000000360000000000036220000000003582000000000359800000000036080000000000000000000000000009059000000000001927300000000006935987700000000000000009999123100000010000000000000BRTAEECDAM10145
012024020902TAEE3       010TAESA       ON      N2   R$  000000000120000000000012010000000001188000000000119100000000011940000000000000000000000000001081000000000000150800000000000179733200000000000000009999123100000010000000000000BRTAEEACNOR9145
012024020902TAEE4       010TAESA       PN      N2   R$  000000000120700000000012150000000001198000000000120300000000012090000000000000000000000000001226000000000000323600000000000389332400000000000000009999123100000010000000000000BRTAEEACNPR6145
012024020902MRVE3       010MRV         ON      NM   R$  000000000067900000000007260000000000673000000000071000000000007160000000000000000000000000053557000000000055503800000000039413166700000000000000009999123100000010000000000000BRMRVEACNOR2126
012024020902QUAL3       010QUALICORP   ON      NM   R$  000000000020900000000002140000000000201000000000020500000000002010000000000000000000000000003323000000000004908000000000001008317500000000000000009999123100000010000000000000BRQUALACNOR6119
012024020902RADL3       010RAIADROGASILON      NM   R$  000000000250300000000025640000000002498000000000253700000000025430000000000000000000000000016796000000000006185300000000015692358500000000000000009999123100000010000000000000BRRADLACNOR0154
012024020902SOJA3       010BOA SAFRA   ON      NM   R$  000000000154100000000015550000000001513000000000154200000000015550000000000000000000000000000776000000000000139100000000000214618400000000000000009999123100000010000000000000BRSOJAACNOR9105
012024020902SOMA3       010GRUPO SOMA  ON      NM   R$  000000000070900000000007480000000000700000000000072400000000007220000000000000000000000000012891000000000010482900000000007595089400000000000000009999123100000010000000000000BRSOMAACNOR3102
012024020902SRNA3       010SERENA      ON      NM   R$  000000000100900000000010350000000000997000000000102400000000010320000000000000000000000000002401000000000000434200000000000444709100000000000000009999123100000010000000000000BRSRNAACNOR4100
012024020902STBP3       010SANTOS BRP  ON      NM   R$  000000000111100000000011280000000001100000000000111100000000011150000000000000000000000000014527000000000003738900000000004155627400000000000000009999123100000010000000000000BRSTBPACNOR3128
012024020902YDUQ3       010YDUQS PART  ON      NM   R$  000000000189900000000019540000000001866000000000190100000000018760000000000000000000000000009654000000000003450900000000006563365100000000000000009999123100000010000000000000BRYDUQACNOR3104
012024020907TXRX4       010TEX RENAUX  PN           R$  000000000030000000000003190000000000296000000000031400000000003180000000000000000000000000000015000000000000003500000000000001099900000000000000009999123100000010000000000000BRTXRXACNPR0142
012024020907NUTR3       010NUTRIPLANT  ON      MA   R$  000000000055600000000005740000000000545000000000056000000000005700000000000000000000000000000049000000000000008700000000000004877500000000000000009999123100000010000000000000BRNUTRACNOR0104
012024020908ATMP3       010ATMASA      ON           R$  000000000029000000000003050000000000275000000000029100000000003050000000000000000000000000000055000000000000022700000000000006619700000000000000009999123100000010000000000000BRATMPACNOR8100
012024020908ETER3       010ETERNIT     ON      NM   R$  000000000068900000000006950000000000676000000000068400000000006890000000000000000000000000000982000000000000262500000000000179668200000000000000009999123100000010000000000000BRETERACNOR3242
012024020908TEKA4       010TEKA        PN           R$  000000000269900000000026990000000002690000000000269200000000026900000000000000000000000000000006000000000000012300000000000033116700000000000000009999123100000010000000000000BRTEKAACNPR3140
012024020908RNEW11      010RENOVA      UNT     N2   R$  000000000038000000000003920000000000376000000000038100000000003860000000000000000000000000000055000000000000005600000000000002136600000000000000009999123100000010000000000000BRRNEWCDAM15110
012024020908RNEW3       010RENOVA      ON      N2   R$  000000000013100000000001310000000000127000000000012900000000001310000000000000000000000000000143000000000000054500000000000007053200000000000000009999123100000010000000000000BRRNEWACNOR8110
012024020908RNEW4       010RENOVA      PN      N2   R$  000000000012900000000001300000000000126000000000012800000000001300000000000000000000000000000260000000000000127100000000000016306200000000000000009999123100000010000000000000BRRNEWACNPR5110
012024020908OIBR3       010OI          ON      N1   R$  000000000009800000000001050000000000093000000000009800000000000990000000000000000000000000006002000000000033792000000000003332054200000000000000009999123100000010000000000000BROIBRACNOR1110
012024020908OIBR4       010OI          PN      N1   R$  000000000020200000000002170000000000189000000000020100000000002040000000000000000000000000000677000000000000555100000000000112105200000000000000009999123100000010000000000000BROIBRACNPR8109
012024020908OSXB3       010OSX BRASIL  ON      NM   R$  000000000052200000000005220000000000505000000000051600000000005060000000000000000000000000000011000000000000001800000000000000928900000000000000009999123100000010000000000000BROSXBACNOR8109
012024020908RPMG3       010PET MANGUINHON           R$  000000000020900000000002140000000000205000000000020500000000002050000000000000000000000000000038000000000000020600000000000004233200000000000000009999123100000010000000000000BRRPMGACNOR9194
012024020908RSID3       010ROSSI RESID ON      NM   R$  000000000036200000000003810000000000362000000000037200000000003750000000000000000000000000000140000000000000037600000000000013998000000000000000009999123100000010000000000000BRRSIDACNOR8120
012024020908LIGT3       010LIGHT S/A   ON      NM   R$  000000000055000000000005500000000000538000000000054300000000005450000000000000000000000000001611000000000000454500000000000246998000000000000000009999123100000010000000000000BRLIGTACNOR2124
012024020908NEXP3       010NEXPE       ON      NM   R$  000000000050100000000005010000000000487000000000048800000000004990000000000000000000000000000005000000000000002200000000000001074000000000000000009999123100000010000000000000BRNEXPACNOR0101
012024020908JFEN3       010JOAO FORTES ON           R$  000000000018500000000001930000000000181000000000018500000000001840000000000000000000000000000026000000000000011200000000000002077300000000000000009999123100000010000000000000BRJFENACNOR0058
012024020908PMAM3       010PARANAPANEMAON      NM   R$  000000000039300000000003990000000000387000000000039000000000003950000000000000000000000000000076000000000000020600000000000008035700000000000000009999123100000010000000000000BRPMAMACNOR3038
012024020908HOOT4       010HOTEIS OTHONPN           R$  000000000028600000000002860000000000283000000000028300000000002830000000000000000000000000000013000000000000001600000000000000453800000000000000009999123100000010000000000000BRHOOTACNPR9015
012024020908FRTA3       010POMIFRUTAS  ON      NM   R$  000000000014900000000001500000000000147000000000014900000000001470000000000000000000000000000010000000000000006500000000000000969100000000000000009999123100000010000000000000BRFRTAACNOR8103
012024020908AMER3       010AMERICANAS  ON      NM   R$  000000000006800000000000700000000000064000000000006700000000000650000000000000000000000000004037000000000024205200000000001625894400000000000000009999123100000010000000000000BRAMERACNOR6101
012024020910VIVR1       010VIVER       DIR ORD NM   R$  000000000000500000000000050000000000003000000000000300000000000030000000000000000000000000000129000000000000299000000000000001127000000000000000009999123100000010000000000000BRVIVRD17OR5120
012024020910VSTE1       010VESTE       DIR ORD NM   R$  000000000000500000000000050000000000001000000000000100000000000010000000000000000000000000000007000000000000047400000000000000073300000000000000009999123100000010000000000000BRVSTED02OR8101
012024020910LJQQ9       010QUERO-QUERO ON  REC NM   R$  000000000048100000000004810000000000481000000000048100000000004810000000000000000000000000000002000000000000000200000000000000096200000000000000009999123100000010000000000000BRLJQQR01OR0103
012024020910MGLU1       010MAGAZ LUIZA DIR ORD NM   R$  000000000001600000000000200000000000015000000000001700000000000200000000000000000000000000004096000000000014483400000000000256576500000000000000009999123100000010000000000000BRMGLUD01OR7122
012024020910PGMN1       010PAGUE MENOS DIR ORD NM   R$  000000000001100000000000120000000000007000000000000800000000000120000000000000000000000000000504000000000000306900000000000002689000000000000000009999123100000010000000000000BRPGMND03OR9102
012024020910CDII12      010SPARTA CDII DIR          R$  000000000002900000000000500000000000027000000000003700000000000400000000000000000000000000000188000000000000033806000000000001282870000000000000009999123100000010000000000000BRCDIID03M11111
012024020912BIME11      010FII BRIO ME CI  ER       R$  000000000073800000000007380000000000733000000000073500000000007360000000000000000000000000000261000000000000004084000000000003003284000000000000009999123100000010000000000000BRBIMECTF006128
012024020912FAED11      010FII ANH EDUCCI  ER       R$  000000001549900000000155380000000015000000000001529700000000155030000000000000000000000000000073000000000000000314000000000004803320000000000000009999123100000010000000000000BRFAEDCTF003274
012024020912FAMB11B     010FII ALMIRANTCI      MB   R$  000000007370600000000760000000000073706000000007462700000000759980000000000000000000000000000005000000000000000005000000000000373137000000000000009999123100000010000000000000BRFAMBCTF018314
012024020912FATN11      010FII ATHENA ICI  ER       R$  000000000917900000000091900000000009150000000000916800000000091860000000000000000000000000001095000000000000016083000000000147455492000000000000009999123100000010000000000000BRFATNCTF000148
012024020912FCFL11      010FII CAMPUSFLCI           R$  000000001188600000000119300000000011876000000001189200000000118830000000000000000000000000000242000000000000001876000000000022309879000000000000009999123100000010000000000000BRFCFLCTF009265
012024020912FIGS11      010FII GEN SHOPCI  ER       R$  000000000596400000000059880000000005926000000000594100000000059700000000000000000000000000000161000000000000003132000000000018608516000000000000009999123100000010000000000000BRFIGSCTF009224
012024020912FIIB11      010FII INDL BR CI  ER       R$  000000005273900000000528100000000052500000000005257200000000525470000000000000000000000000000145000000000000000722000000000037957641000000000000009999123100000010000000000000BRFIIBCTF001247
012024020912FIIP11B     010FII RB CAP ICI  ER  MB   R$  000000001810000000000182000000000017800000000001805600000000182000000000000000000000000000000076000000000000000458000000000008270082000000000000009999123100000010000000000000BRFIIPCTF001270
012024020912FISC11      010FII SC 401  CI  ER       R$  000000000649900000000064990000000004901000000000607300000000058000000000000000000000000000000011000000000000000077000000000000467680000000000000009999123100000010000000000000BRFISCCTF008132
012024020912FIVN11      010FII VIDANOVACI           R$  000000000034000000000003650000000000339000000000034500000000003430000000000000000000000000000050000000000000001320000000000000455858000000000000009999123100000010000000000000BRFIVNCTF009100
012024020912FLCR11      010FII FL RECEBCI  ER       R$  000000001001600000000100180000000010009000000001001400000000100180000000000000000000000000000044000000000000000513000000000005137676000000000000009999123100000010000000000000BRFLCRCTF004138
012024020912FLMA11      010FII S F LIMACI  ER       R$  000000001386100000000139000000000013861000000001389200000000139000000000000000000000000000000082000000000000000642000000000008919034000000000000009999123100000010000000000000BRFLMACTF009338
012024020912FLRP11      010FII FLORIPA CI  ER       R$  000000020010200000002110000000000200102000000020551300000002110000000000000000000000000000000017000000000000000029000000000005959900000000000000009999123100000010000000000000BRFLRPCTF006266
012024020912IDFI11      010FII UNIDADESCI  ERA      R$  000000000199900000000019990000000001999000000000199900000000019990000000000000000000000000000006000000000000000051000000000000101949000000000000009999123100000010000000000000BRIDFICTF007128
012024020912IDGR11      010FII UNID II CI  ERA      R$  000000000150000000000015000000000001500000000000150000000000015000000000000000000000000000000001000000000000000002000000000000003000000000000000009999123100000010000000000000BRIDGRCTF006123
012024020912BNFS11      010FII BANRISULCI  ER       R$  000000001209800000000121210000000011850000000001200800000000119000000000000000000000000000000135000000000000001244000000000014938249000000000000009999123100000010000000000000BRBNFSCTF000237
012024020912BROF11      010FII BROF    CI           R$  000000000572800000000057980000000005680000000000573200000000057490000000000000000000000000002232000000000000023304000000000133600555000000000000009999123100000010000000000000BRBROFCTF000109
012024020912APTO11      010FII NAVI RSDCI  ER       R$  000000000097300000000009730000000000961000000000096500000000009640000000000000000000000000000203000000000000002616000000000002526582000000000000009999123100000010000000000000BRAPTOCTF007127
012024020912AROA11      010FII AROA    CI  ER       R$  000000000011700000000001280000000000117000000000012000000000001190000000000000000000000000000187000000000000012653000000000001529929000000000000009999123100000010000000000000BRAROACTF003114
012024020912ARRI11      010FII ATRIO   CI  ER       R$  000000000090500000000009150000000000901000000000090600000000009140000000000000000000000000000552000000000000030869000000000027995599000000000000009999123100000010000000000000BRARRICTF009155
012024020912ARXD11      010FII ARXD R  CI  ER       R$  000000000994000000000099400000000009870000000000988500000000098700000000000000000000000000000016000000000000000511000000000005051369000000000000009999123100000010000000000000BRARXDCTF008111
012024020912ASMT11      010FII ASA MET CI           R$  000000000622300000000065000000000006053000000000631900000000063000000000000000000000000000000020000000000000000113000000000000714105000000000000009999123100000010000000000000BRASMTCTF005107
012024020912ATSA11      010FII HATRIUM CI           R$  000000000550300000000055030000000005503000000000550300000000055030000000000000000000000000000003000000000000000009000000000000049527000000000000009999123100000010000000000000BRATSACTF000143
012024020912CPSH11      010FII CPSH    CI           R$  000000001096600000000109670000000010948000000001096300000000109500000000000000000000000000000068000000000000001104000000000012103473000000000000009999123100000010000000000000BRCPSHCTF017108
012024020912EURO11      010FII EUROPAR CI  ER       R$  000000002508600000000253140000000025054000000002515300000000253000000000000000000000000000000100000000000000000135000000000003395738000000000000009999123100000010000000000000BREUROCTF011355
012024020912EVBI11      010FII VBI CON CI  ER       R$  000000000988800000000098890000000009811000000000987000000000098890000000000000000000000000000014000000000000000072000000000000710684000000000000009999123100000010000000000000BREVBICTF007145
012024020912CPTS11      010FII CAPI SECCI           R$  000000000085300000000008550000000000850000000000085300000000008540000000000000000000000000032678000000000000795215000000000678372291000000000000009999123100000010000000000000BRCPTSCTF004226
012024020912CRFF11      010FII CX RBRA2CI  ER       R$  000000000805600000000080560000000008001000000000801600000000080200000000000000000000000000000008000000000000000047000000000000376757000000000000009999123100000010000000000000BRCRFFCTF006157
012024020912EQIR11      010FII EQI RECECI           R$  000000000092000000000009280000000000918000000000092000000000009280000000000000000000000000000405000000000000032799000000000030190406000000000000009999123100000010000000000000BREQIRCTF003128
