00COTAHIST.2024BOVESPA 20240426                                                                                                                                                                                                                      
012024042602BIOM3       010BIOMM       ON      MA   R$  000000000160000000000016350000000001580000000000160300000000016010000000001597000000000160600674000000000000124800000000000200058300000000000000009999123100000010000000000000BRBIOMACNOR2112
012024042602BRIT3       010BRISANET    ON  ED  NM   R$  000000000038300000000003950000000000380000000000038600000000003940000000000392000000000039401728000000000001007100000000000388768400000000000000009999123100000010000000000000BRBRITACNOR0103
012024042602BRKM3       010BRASKEM     ON      N1   R$  000000000217600000000022270000000002176000000000221000000000022050000000002205000000000221400084000000000000010000000000000022106400000000000000009999123100000010000000000000BRBRKMACNOR1119
012024042602BRKM5       010BRASKEM     PNA     N1   R$  000000000225500000000023060000000002243000000000228300000000022810000000002275000000000228105718000000000002547000000000005815118400000000000000009999123100000010000000000000BRBRKMACNPA4121
012024042602CAMB3       010CAMBUCI     ON           R$  000000000102100000000010310000000001006000000000102300000000010270000000001020000000000102700089000000000000025600000000000026202600000000000000009999123100000010000000000000BRCAMBACNOR4128
012024042602CAML3       010CAMIL       ON      NM   R$  000000000082600000000008390000000000824000000000083300000000008340000000000834000000000083700720000000000000177100000000000147701300000000000000009999123100000010000000000000BRCAMLACNOR3127
012024042602CASH3       010MELIUZ      ON      NM   R$  000000000045200000000004660000000000450000000000045800000000004560000000000456000000000045703173000000000001346200000000000616794600000000000000009999123100000010000000000000BRCASHACNOR8106
012024042602CBAV3       010CBA         ON      NM   R$  000000000049100000000005090000000000491000000000050100000000005030000000000502000000000050303621000000000002132800000000001069935400000000000000009999123100000010000000000000BRCBAVACNOR5104
012024042602CCRO3       010CCR SA      ON  ED  NM   R$  000000000123600000000012540000000001228000000000124600000000012490000000001248000000000124910870000000000004936700000000006152733500000000000000009999123100000010000000000000BRCCROACNOR2145
012024042602CEAB3       010CEA MODAS   ON      NM   R$  000000000109700000000011960000000001090000000000116300000000011960000000001195000000000119611308000000000005850300000000006809525700000000000000009999123100000010000000000000BRCEABACNOR1102
012024042602DASA3       010DASA        ON      NM   R$  000000000043700000000004600000000000437000000000045200000000004600000000000454000000000046001515000000000000364800000000000165043900000000000000009999123100000010000000000000BRDASAACNOR1122
012024042602DESK3       010DESKTOP     ON  ED  NM   R$  000000000129500000000013250000000001290000000000130400000000013090000000001307000000000131000601000000000000084800000000000110655500000000000000009999123100000010000000000000BRDESKACNOR2104
012024042602DEXP3       010DEXXOS PAR  ON      N1   R$  000000000111700000000011500000000001110000000000112800000000011240000000001115000000000112400175000000000000044000000000000049642100000000000000009999123100000010000000000000BRDEXPACNOR1104
012024042602DIRR3       010DIRECIONAL  ON      NM   R$  000000000232100000000024600000000002321000000000241000000000024330000000002431000000000243910432000000000002606800000000006282833100000000000000009999123100000010000000000000BRDIRRACNOR0117
012024042602DMVF3       010D1000VFARMA ON      NM   R$  000000000069600000000007400000000000695000000000071100000000007070000000000706000000000071200677000000000000133100000000000094736200000000000000009999123100000010000000000000BRDMVFACNOR9100
012024042602DOHL3       010DOHLER      ON           R$  000000000064100000000006410000000000641000000000064100000000006410000000000300000000000100000001000000000000000100000000000000064100000000000000009999123100000010000000000000BRDOHLACNOR2063
012024042602DOTZ3       010DOTZ SA     ON      NM   R$  000000000065700000000008000000000000657000000000075500000000007370000000000737000000000075800372000000000000076700000000000057983900000000000000009999123100000010000000000000BRDOTZACNOR7101
012024042602TAEE11      010TAESA       UNT     N2   R$  000000000352200000000035670000000003522000000000354300000000035250000000003523000000000353705104000000000001863800000000006605208300000000000000009999123100000010000000000000BRTAEECDAM10145
012024042602TAEE3       010TAESA       ON      N2   R$  000000000116600000000011800000000001166000000000117200000000011700000000001170000000000117500420000000000000084700000000000099331700000000000000009999123100000010000000000000BRTAEEACNOR9145
012024042602TAEE4       010TAESA       PN      N2   R$  000000000117900000000011910000000001173000000000118500000000011870000000001186000000000118700605000000000000172800000000000204770700000000000000009999123100000010000000000000BRTAEEACNPR6145
012024042602TASA3       010TAURUS ARMASON      N2   R$  000000000130000000000013000000000001285000000000128800000000012880000000001283000000000128800043000000000000008100000000000010434000000000000000009999123100000010000000000000BRTASAACNOR7103
012024042602VAMO3       010VAMOS       ON      NM   R$  000000000069700000000007280000000000693000000000071600000000007250000000000723000000000072617876000000000010310100000000007390736000000000000000009999123100000010000000000000BRVAMOACNOR7105
012024042602VBBR3       010VIBRA       ON  ED  NM   R$  000000000229900000000023720000000002297000000000235800000000023590000000002358000000000236116242000000000007225900000000017039343000000000000000009999123100000010000000000000BRVBBRACNOR1107
012024042602RAPT3       010RANDON PART ON      N1   R$  000000000097200000000009720000000000942000000000094800000000009480000000000948000000000095300106000000000000031600000000000029980400000000000000009999123100000010000000000000BRRAPTACNOR7162
012024042602RAPT4       010RANDON PART PN      N1   R$  000000000110300000000011190000000001094000000000110300000000011000000000001100000000000110304968000000000002320300000000002559926400000000000000009999123100000010000000000000BRRAPTACNPR4162
012024042602JALL3       010JALLESMACHADON      NM   R$  000000000071500000000007230000000000710000000000071500000000007150000000000713000000000071500834000000000000308700000000000220988300000000000000009999123100000010000000000000BRJALLACNOR0105
012024042602JBSS3       010JBS         ON      NM   R$  000000000223000000000023050000000002216000000000228600000000022910000000002290000000000229218777000000000008910900000000020370535800000000000000009999123100000010000000000000BRJBSSACNOR8121
012024042602MRSA3B      010MRS LOGIST  ON      MB   R$  000000000269000000000026900000000002690000000000269000000000026900000000002610000000000300000001000000000000000700000000000001883000000000000000009999123100000010000000000000BRMRSAACNOR6124
012024042602MRSA5B      010MRS LOGIST  PNA     MB   R$  000000000269000000000026900000000002690000000000269000000000026900000000002606000000000279000001000000000000000300000000000000807000000000000000009999123100000010000000000000BRMRSAACNPA9124
012024042602MRSA6B      010MRS LOGIST  PNB     MB   R$  000000000270600000000027060000000002706000000000270600000000027060000000002202000000000000000002000000000000000400000000000001082400000000000000009999123100000010000000000000BRMRSAACNPB7124
012024042602MRVE3       010MRV         ON      NM   R$  000000000064300000000006700000000000642000000000066200000000006670000000000667000000000066811481000000000013191300000000008744157300000000000000009999123100000010000000000000BRMRVEACNOR2126
012024042602STBP3       010SANTOS BRP  ON      NM   R$  000000000131100000000013790000000001302000000000135900000000013720000000001368000000000137315010000000000009498900000000012916267700000000000000009999123100000010000000000000BRSTBPACNOR3129
012024042602SUZB3       010SUZANO S.A. ON      NM   R$  000000000601000000000060670000000005946000000000598700000000059580000000005955000000000596014707000000000003971700000000023780203100000000000000009999123100000010000000000000BRSUZBACNOR0129
012024042602PRNR3       010PRINER      ON      NM   R$  000000000126000000000013000000000001252000000000127800000000012860000000001285000000000128602090000000000000420600000000000537641800000000000000009999123100000010000000000000BRPRNRACNOR4108
012024042602PSSA3       010PORTO SEGUROON      NM   R$  000000000299500000000030430000000002995000000000302800000000030300000000003027000000000303906948000000000002454600000000007433506300000000000000009999123100000010000000000000BRPSSAACNOR7154
012024042602PTBL3       010PORTOBELLO  ON      NM   R$  000000000057100000000005940000000000571000000000058400000000005820000000000582000000000059001232000000000000345000000000000201757900000000000000009999123100000010000000000000BRPTBLACNOR8132
012024042602PTNT3       010PETTENATI   ON           R$  000000000099900000000010390000000000999000000000101200000000010390000000001010000000000103900006000000000000001000000000000001012700000000000000009999123100000010000000000000BRPTNTACNOR6042
012024042602PTNT4       010PETTENATI   PN           R$  000000000075400000000007540000000000740000000000074500000000007490000000000739000000000074900007000000000000001400000000000001043900000000000000009999123100000010000000000000BRPTNTACNPR3047
012024042602JSLG3       010JSL         ON      NM   R$  000000000120000000000012250000000001183000000000120200000000012000000000001200000000000120101660000000000000308700000000000371088400000000000000009999123100000010000000000000BRJSLGACNOR2121
012024042602KEPL3       010KEPLER WEBERON      NM   R$  000000000096500000000009900000000000965000000000098200000000009860000000000986000000000098801763000000000000650100000000000638699500000000000000009999123100000010000000000000BRKEPLACNOR1062
012024042602KLBN11      010KLABIN S/A  UNT     N2   R$  000000000232700000000023480000000002303000000000231600000000023090000000002308000000000231012571000000000004933000000000011427499400000000000000009999123100000010000000000000BRKLBNCDAM18140
012024042602KLBN3       010KLABIN S/A  ON      N2   R$  000000000046500000000004690000000000460000000000046300000000004600000000000460000000000046100869000000000000326000000000000150959100000000000000009999123100000010000000000000BRKLBNACNOR2168
012024042602KLBN4       010KLABIN S/A  PN      N2   R$  000000000046400000000004700000000000461000000000046400000000004640000000000462000000000046402013000000000001281300000000000595667300000000000000009999123100000010000000000000BRKLBNACNPR9168
012024042602NGRD3       010NEOGRID     ON  ED  NM   R$  000000000010200000000001060000000000101000000000010200000000001010000000000101000000000010200438000000000000626600000000000064334100000000000000009999123100000010000000000000BRNGRDACNOR3104
012024042602BLAU3       010BLAU        ON      NM   R$  000000000104000000000010920000000001040000000000106800000000010790000000001075000000000108201802000000000000359800000000000384552700000000000000009999123100000010000000000000BRBLAUACNOR8112
012024042602NINJ3       010GETNINJAS   ON      NM   R$  000000000048300000000004880000000000471000000000047900000000004800000000000477000000000048700027000000000000004000000000000001918900000000000000009999123100000010000000000000BRNINJACNOR5101
012024042602NTCO3       010GRUPO NATURAON      NM   R$  000000000167000000000017020000000001652000000000168600000000016880000000001687000000000168910165000000000003752700000000006330352900000000000000009999123100000010000000000000BRNTCOACNOR5106
012024042602CEBR3       010CEB         ON           R$  000000000255000000000027200000000002550000000000266500000000026900000000002681000000000269000089000000000000019900000000000053036500000000000000009999123100000010000000000000BRCEBRACNOR5124
012024042602CEBR5       010CEB         PNA          R$  000000000231800000000023180000000002230000000000228000000000022990000000002246000000000229900047000000000000014600000000000033294300000000000000009999123100000010000000000000BRCEBRACNPA8123
012024042602CEBR6       010CEB         PNB          R$  000000000232800000000023960000000002270000000000234700000000023960000000002370000000000239600072000000000000015100000000000035452200000000000000009999123100000010000000000000BRCEBRACNPB6123
012024042602CEDO3       010CEDRO       ON      N1   R$  000000000300000000000030000000000003000000000000300000000000030000000000003250000000000340000002000000000000000200000000000000600000000000000000009999123100000010000000000000BRCEDOACNOR8096
012024042602CEEB3       010COELBA      ON           R$  000000000389900000000038990000000003817000000000384300000000038900000000003865000000000399100012000000000000001600000000000006149500000000000000009999123100000010000000000000BRCEEBACNOR3198
012024042602CEED3       010CEEE-D      ON           R$  000000000200100000000020010000000002001000000000200100000000020010000000002001000000000228800001000000000000000100000000000000200100000000000000009999123100000010000000000000BRCEEDACNOR9103
012024042602CGAS3       010COMGAS      ON           R$  000000001115000000000111500000000010752000000001095100000000107520000000010800000000001110000002000000000000000200000000000002190200000000000000009999123100000010000000000000BRCGASACNOR0163
012024042602CGAS5       010COMGAS      PNA          R$  000000001131300000000113130000000011250000000001130000000000113090000000011300000000001154600006000000000000000700000000000007910500000000000000009999123100000010000000000000BRCGASACNPA3160
012024042602CGRA3       010GRAZZIOTIN  ON  ES       R$  000000000266700000000026670000000002667000000000266700000000026670000000002614000000000266400001000000000000000100000000000000266700000000000000009999123100000010000000000000BRCGRAACNOR2082
012024042602CGRA4       010GRAZZIOTIN  PN  ES       R$  000000000268000000000027190000000002660000000000268100000000026600000000002642000000000268100011000000000000001600000000000004290100000000000000009999123100000010000000000000BRCGRAACNPR9082
012024042602CIEL3       010CIELO       ON      NM   R$  000000000055900000000005590000000000556000000000055700000000005590000000000557000000000055918862000000000017353500000000009675805900000000000000009999123100000010000000000000BRCIELACNOR3157
012024042602CLSA3       010CLEARSALE   ON      NM   R$  000000000072600000000007700000000000694000000000074700000000007650000000000763000000000076504526000000000002183600000000001631824100000000000000009999123100000010000000000000BRCLSAACNOR0100
012024042602CLSC3       010CELESC      ON      N2   R$  000000000672000000000067200000000006720000000000672000000000067200000000006608000000000699900003000000000000000300000000000002016000000000000000009999123100000010000000000000BRCLSCACNOR6150
012024042602CLSC4       010CELESC      PN      N2   R$  000000000698800000000069880000000006918000000000693700000000069320000000006851000000000693300011000000000000001200000000000008324900000000000000009999123100000010000000000000BRCLSCACNPR3129
012024042602CMIG3       010CEMIG       ON      N1   R$  000000000148500000000014940000000001470000000000147900000000014700000000001470000000000147900520000000000000110700000000000163769200000000000000009999123100000010000000000000BRCMIGACNOR6240
012024042602CMIG4       010CEMIG       PN      N1   R$  000000000127100000000012780000000001257000000000126300000000012590000000001258000000000126015316000000000008115300000000010251244900000000000000009999123100000010000000000000BRCMIGACNPR3241
012024042602EALT4       010ACO ALTONA  PN           R$  000000000097100000000009950000000000970000000000099200000000009950000000000985000000000099500066000000000000029100000000000028882300000000000000009999123100000010000000000000BREALTACNPR1137
012024042602ECOR3       010ECORODOVIAS ON      NM   R$  000000000072600000000007530000000000726000000000074700000000007470000000000746000000000074707941000000000004865600000000003637341200000000000000009999123100000010000000000000BRECORACNOR8119
012024042602EGIE3       010ENGIE BRASILON      NM   R$  000000000396000000000039910000000003955000000000397400000000039790000000003975000000000398004474000000000001609100000000006395639600000000000000009999123100000010000000000000BREGIEACNOR9125
012024042602GRND3       010GRENDENE    ON      NM   R$  000000000060800000000006160000000000607000000000061200000000006110000000000611000000000061401522000000000000661000000000000404911000000000000000009999123100000010000000000000BRGRNDACNOR3172
012024042602GUAR3       010GUARARAPES  ON      NM   R$  000000000070500000000007240000000000701000000000071500000000007240000000000718000000000072402483000000000001137400000000000814177200000000000000009999123100000010000000000000BRGUARACNOR4172
012024042602BRSR3       010BANRISUL    ON      N1   R$  000000000124700000000012600000000001241000000000125200000000012510000000001252000000000125900035000000000000009800000000000012275200000000000000009999123100000010000000000000BRBRSRACNOR3186
012024042602BRSR5       010BANRISUL    PNA     N1   R$  000000000150000000000015000000000001500000000000150000000000015000000000001450000000000199000001000000000000000100000000000000150000000000000000009999123100000010000000000000BRBRSRACNPA6190
012024042602BRSR6       010BANRISUL    PNB     N1   R$  000000000124500000000012600000000001245000000000125100000000012490000000001249000000000125004050000000000000921100000000001152771200000000000000009999123100000010000000000000BRBRSRACNPB4189
012024042602CXSE3       010CAIXA SEGURION      NM   R$  000000000160500000000016420000000001604000000000162600000000016330000000001633000000000163512506000000000004239500000000006897485600000000000000009999123100000010000000000000BRCXSEACNOR7105
012024042602CYRE3       010CYRELA REALTON  ED  NM   R$  000000000206500000000021290000000002065000000000209400000000020910000000002090000000000209218455000000000007177500000000015029824800000000000000009999123100000010000000000000BRCYREACNOR7140
012024042602ROMI3       010ROMI        ON      NM   R$  000000000104900000000010640000000001034000000000104300000000010370000000001037000000000104101271000000000000370600000000000386729800000000000000009999123100000010000000000000BRROMIACNOR8194
012024042602RRRP3       0103R PETROLEUMON      NM   R$  000000000343500000000035670000000003435000000000353200000000035350000000003532000000000353618223000000000006727500000000023763392900000000000000009999123100000010000000000000BRRRRPACNOR5102
012024042602TTEN3       0103TENTOS     ON      NM   R$  000000000100000000000010260000000001000000000000101300000000010080000000001005000000000100802768000000000000718300000000000727753200000000000000009999123100000010000000000000BRTTENACNOR0103
012024042602TUPY3       010TUPY        ON      NM   R$  000000000262100000000026560000000002621000000000263500000000026320000000002628000000000263801882000000000000367200000000000967621300000000000000009999123100000010000000000000BRTUPYACNOR1183
012024042602DXCO3       010DEXCO       ON      NM   R$  000000000071300000000007360000000000712000000000073000000000007310000000000730000000000073105769000000000002774200000000002025762900000000000000009999123100000010000000000000BRDXCOACNOR8105
012024042602GGPS3       010GPS         ON      NM   R$  000000000187300000000019260000000001866000000000190600000000018960000000001896000000000190805056000000000001415800000000002698808400000000000000009999123100000010000000000000BRGGPSACNOR9103
012024042602GMAT3       010GRUPO MATEUSON      NM   R$  000000000073600000000007590000000000734000000000075100000000007540000000000752000000000075407018000000000003045100000000002289527500000000000000009999123100000010000000000000BRGMATACNOR7101
012024042602GOAU3       010GERDAU MET  ON      N1   R$  000000000104400000000010850000000001044000000000106600000000010690000000001069000000000108100121000000000000020400000000000021748200000000000000009999123100000010000000000000BRGOAUACNOR1266
012024042602GOAU4       010GERDAU MET  PN      N1   R$  000000000104500000000010680000000001038000000000105800000000010640000000001063000000000106511017000000000010085800000000010677643100000000000000009999123100000010000000000000BRGOAUACNPR8267
012024042602WEGE3       010WEG         ON      NM   R$  000000000388700000000039380000000003866000000000391800000000039220000000003921000000000392217373000000000005977700000000023424078600000000000000009999123100000010000000000000BRWEGEACNOR0222
012024042602GGBR3       010GERDAU      ON  EB  N1   R$  000000000160600000000016360000000001603000000000161900000000016300000000001630000000000163700286000000000000079700000000000129054800000000000000009999123100000010000000000000BRGGBRACNOR1191
012024042602GGBR4       010GERDAU      PN  EB  N1   R$  000000000183000000000018680000000001815000000000185100000000018630000000001862000000000186423276000000000011849900000000021939866800000000000000009999123100000010000000000000BRGGBRACNPR8191
012024042602MILS3       010MILLS       ON      NM   R$  000000000134700000000013610000000001342000000000134900000000013470000000001347000000000134902029000000000000909700000000001227898700000000000000009999123100000010000000000000BRMILSACNOR2125
012024042602MLAS3       010MULTILASER  ON      NM   R$  000000000019900000000002000000000000195000000000019700000000001970000000000196000000000019703297000000000003237600000000000638494700000000000000009999123100000010000000000000BRMLASACNOR9101
012024042602MNDL3       010MUNDIAL     ON           R$  000000000469100000000048000000000004691000000000471100000000048000000000004464000000000500000004000000000000000600000000000002826600000000000000009999123100000010000000000000BRMNDLACNOR4107
012024042602MNPR3       010MINUPAR     ON           R$  000000000183800000000018380000000001838000000000183800000000018380000000001756000000000185000001000000000000000100000000000000183800000000000000009999123100000010000000000000BRMNPRACNOR5122
012024042602MOAR3       010MONT ARANHA ON           R$  000000003949900000000394990000000039499000000003949900000000394990000000035001000000003950000001000000000000000100000000000003949900000000000000009999123100000010000000000000BRMOARACNOR5234
012024042602MOVI3       010MOVIDA      ON      NM   R$  000000000071400000000007420000000000714000000000072700000000007320000000000727000000000073205705000000000002290000000000001665772300000000000000009999123100000010000000000000BRMOVIACNOR0122
012024042602MRFG3       010MARFRIG     ON      NM   R$  000000000097500000000009870000000000966000000000097600000000009770000000000976000000000097809029000000000007390000000000007218187200000000000000009999123100000010000000000000BRMRFGACNOR0116
012024042602RANI3       010IRANI       ON      NM   R$  000000000090900000000009400000000000906000000000092900000000009400000000000940000000000094102555000000000000881600000000000819766300000000000000009999123100000010000000000000BRRANIACNOR5070
012024042602AURE3       010AUREN       ON      NM   R$  000000000113800000000011630000000001137000000000115000000000011480000000001147000000000114806445000000000004980700000000005732306400000000000000009999123100000010000000000000BRAUREACNOR9104
012024042602AVLL3       010ALPHAVILLE  ON      NM   R$  000000000035900000000003610000000000359000000000036000000000003610000000000349000000000036800005000000000000004400000000000001587800000000000000009999123100000010000000000000BRAVLLACNOR5103
012024042602AZEV3       010AZEVEDO     ON           R$  000000000013500000000001400000000000132000000000013500000000001330000000000132000000000013300405000000000000429200000000000058135300000000000000009999123100000010000000000000BRAZEVACNOR0121
012024042602AZEV4       010AZEVEDO     PN           R$  000000000012800000000001320000000000122000000000012500000000001250000000000124000000000012501312000000000002726700000000000343154800000000000000009999123100000010000000000000BRAZEVACNPR7121
012024042602AZUL4       010AZUL        PN      N2   R$  000000000094500000000009840000000000932000000000096000000000009770000000000976000000000097715053000000000015580500000000014957508300000000000000009999123100000010000000000000BRAZULACNPR4102
012024042602RADL3       010RAIADROGASILON  ED  NM   R$  000000000251400000000025620000000002499000000000254600000000025620000000002561000000000256409647000000000004983600000000012691021800000000000000009999123100000010000000000000BRRADLACNOR0156
012024042602RAIL3       010RUMO S.A.   ON      NM   R$  000000000206800000000021050000000002061000000000208800000000020840000000002083000000000208415749000000000011120100000000023222408900000000000000009999123100000010000000000000BRRAILACNOR9104
012024042602RAIZ4       010RAIZEN      PN      N2   R$  000000000030700000000003110000000000304000000000030700000000003070000000000306000000000030711725000000000007496800000000002308230400000000000000009999123100000010000000000000BRRAIZACNPR6110
012024042602SOND6       010SONDOTECNICAPNB          R$  000000000600000000000060000000000006000000000000600000000000060000000000003900000000000000000002000000000000000200000000000001200000000000000000009999123100000010000000000000BRSONDACNPB6165
012024042602SRNA3       010SERENA      ON      NM   R$  000000000083700000000008610000000000837000000000085000000000008500000000000847000000000085403974000000000001262600000000001074388100000000000000009999123100000010000000000000BRSRNAACNOR4100
012024042602BMEB4       010MERCANTIL   PN      N1   R$  000000000218000000000022100000000002175000000000219300000000021850000000002179000000000221600033000000000000007600000000000016673600000000000000009999123100000010000000000000BRBMEBACNPR5210
012024042602BMGB4       010BANCO BMG   PN  EJ  N1   R$  000000000031900000000003250000000000319000000000032200000000003240000000000324000000000032500436000000000000291900000000000094082800000000000000009999123100000010000000000000BRBMGBACNPR0109
012024042602BMKS3       010BIC MONARK  ON           R$  000000004300000000000430000000000042900000000004299900000000430000000000041201000000004300000033000000000000000250000000000010749773000000000000009999123100000010000000000000BRBMKSACNOR9165
012024042602BMOB3       010BEMOBI TECH ON      NM   R$  000000000118200000000012000000000001182000000000118800000000011870000000001186000000000118700914000000000000169200000000000201130300000000000000009999123100000010000000000000BRBMOBACNOR7103
012024042602BOBR4       010BOMBRIL     PN           R$  000000000022600000000002300000000000221000000000022600000000002250000000000225000000000022900031000000000000009600000000000002178500000000000000009999123100000010000000000000BRBOBRACNPR3128
012024042602KRSA3       010KORA SAUDE  ON      NM   R$  000000000008400000000000860000000000080000000000008100000000000860000000000084000000000008600887000000000002509100000000000205590900000000000000009999123100000010000000000000BRKRSAACNOR0100
012024042602LAND3       010TERRASANTAPAON      NM   R$  000000000150000000000015320000000001449000000000148900000000014720000000001472000000000148400159000000000000037000000000000055106500000000000000009999123100000010000000000000BRLANDACNOR9102
012024042602LAVV3       010LAVVI       ON      NM   R$  000000000084000000000008770000000000840000000000087000000000008770000000000870000000000087701157000000000000333100000000000289884900000000000000009999123100000010000000000000BRLAVVACNOR4111
012024042602LEVE3       010METAL LEVE  ON      NM   R$  000000000328000000000033460000000003280000000000330900000000032950000000003295000000000330102352000000000000381200000000001261599000000000000000009999123100000010000000000000BRLEVEACNOR2196
012024042602LJQQ3       010QUERO-QUERO ON      NM   R$  000000000048500000000004960000000000484000000000049100000000004910000000000488000000000049106182000000000002146900000000001055056800000000000000009999123100000010000000000000BRLJQQACNOR5104
012024042602LOGG3       010LOG COM PROPON      NM   R$  000000000219100000000022180000000002149000000000217900000000021770000000002166000000000217801368000000000000202600000000000441580000000000000000009999123100000010000000000000BRLOGGACNOR7107
012024042602LOGN3       010LOG-IN      ON      NM   R$  000000000399600000000040990000000003887000000000398200000000039500000000003926000000000398300194000000000000027600000000000109928400000000000000009999123100000010000000000000BRLOGNACNOR3105
012024042602LPSB3       010LOPES BRASILON      NM   R$  000000000022000000000002330000000000219000000000022400000000002190000000000219000000000022200236000000000000082800000000000018559200000000000000009999123100000010000000000000BRLPSBACNOR0113
012024042602LREN3       010LOJAS RENNERON      NM   R$  000000000156800000000015920000000001558000000000157100000000015710000000001571000000000157215954000000000008314000000000013065457700000000000000009999123100000010000000000000BRLRENACNOR1220
012024042602ODPV3       010ODONTOPREV  ON      NM   R$  000000000115500000000011820000000001152000000000116900000000011690000000001168000000000116902832000000000000879700000000001029137800000000000000009999123100000010000000000000BRODPVACNOR4200
012024042602OFSA3       010OUROFINO S/AON      NM   R$  000000000217100000000021880000000002170000000000217700000000021700000000002170000000000221000009000000000000001200000000000002613000000000000000009999123100000010000000000000BROFSAACNOR7117
012024042602ONCO3       010ONCOCLINICASON      NM   R$  000000000072000000000007450000000000720000000000073300000000007340000000000730000000000073406444000000000001511100000000001108441000000000000000009999123100000010000000000000BRONCOACNOR6100
012024042602OPCT3       010OCEANPACT   ON      NM   R$  000000000064500000000006490000000000638000000000064600000000006490000000000645000000000064902053000000000000839900000000000543340100000000000000009999123100000010000000000000BROPCTACNOR0100
012024042602ORVR3       010ORIZON      ON      NM   R$  000000000367600000000038190000000003676000000000377900000000037850000000003783000000000378801111000000000000559800000000002115620300000000000000009999123100000010000000000000BRORVRACNOR0101
012024042602PCAR3       010P.ACUCAR-CBDON      NM   R$  000000000028900000000002900000000000272000000000027800000000002760000000000275000000000027614670000000000016046200000000004473743100000000000000009999123100000010000000000000BRPCARACNOR3167
012024042602AALR3       010ALLIAR      ON      NM   R$  000000000103500000000010350000000000999000000000101900000000010230000000001005000000000102300316000000000000047600000000000048535900000000000000009999123100000010000000000000BRAALRACNOR6102
012024042602ABCB4       010ABC BRASIL  PN      N2   R$  000000000229600000000023300000000002296000000000231200000000023070000000002307000000000232101658000000000000258200000000000597047400000000000000009999123100000010000000000000BRABCBACNPR4145
012024042602ABEV3       010AMBEV S/A   ON           R$  000000000120300000000012080000000001198000000000120300000000012010000000001200000000000120214380000000000016177900000000019468650100000000000000009999123100000010000000000000BRABEVACNOR1127
012024042602BBDC3       010BRADESCO    ON      N1   R$  000000000121100000000012290000000001202000000000122000000000012200000000001219000000000122104555000000000003191900000000003896892400000000000000009999123100000010000000000000BRBBDCACNOR1768
012024042602BBDC4       010BRADESCO    PN      N1   R$  000000000137400000000014000000000001370000000000138900000000013880000000001387000000000138817518000000000023750000000000033007734900000000000000009999123100000010000000000000BRBBDCACNPR8768
012024042602CMIN3       010CSNMINERACAOON      N2   R$  000000000050000000000005030000000000495000000000049900000000004980000000000498000000000049909973000000000005131100000000002561096300000000000000009999123100000010000000000000BRCMINACNOR2110
012024042602COCE5       010COELCE      PNA          R$  000000000358000000000035800000000003469000000000351700000000035380000000003492000000000353800064000000000000011100000000000039039200000000000000009999123100000010000000000000BRCOCEACNPA3146
012024042602EKTR4       010ELEKTRO     PN           R$  000000000395100000000040910000000003920000000000395300000000039220000000003922000000000394800033000000000000003800000000000015025000000000000000009999123100000010000000000000BREKTRACNPR7161
012024042602ELET3       010ELETROBRAS  ON      N1   R$  000000000375100000000038450000000003734000000000377300000000037700000000003770000000000377125581000000000013655400000000051533033600000000000000009999123100000010000000000000BRELETACNOR6159
012024042602ELET6       010ELETROBRAS  PNB     N1   R$  000000000424700000000043400000000004228000000000426900000000042450000000004245000000000425008287000000000002743800000000011713811800000000000000009999123100000010000000000000BRELETACNPB7076
012024042602HBOR3       010HELBOR      ON      NM   R$  000000000027200000000002790000000000270000000000027500000000002780000000000278000000000027900755000000000000531400000000000146612200000000000000009999123100000010000000000000BRHBORACNOR3117
012024042602HBRE3       010HBR REALTY  ON      NM   R$  000000000052500000000005470000000000525000000000054000000000005410000000000539000000000054100650000000000000337700000000000182541300000000000000009999123100000010000000000000BRHBREACNOR4100
012024042602HBSA3       010HIDROVIAS   ON      NM   R$  000000000042100000000004370000000000420000000000043200000000004320000000000432000000000043303009000000000003919100000000001696943100000000000000009999123100000010000000000000BRHBSAACNOR0100
012024042602HETA4       010HERCULES    PN           R$  000000000054500000000005790000000000520000000000054200000000005200000000000520000000000057500008000000000000000900000000000000488500000000000000009999123100000010000000000000BRHETAACNPR9136
012024042602BSLI4       010BRB BANCO   PN           R$  000000000097600000000009970000000000976000000000098300000000009970000000000900000000000099700003000000000000000300000000000000294900000000000000009999123100000010000000000000BRBSLIACNPR2192
012024042602GEPA4       010GER PARANAP PN           R$  000000000272000000000027500000000002720000000000273400000000027500000000002716000000000279700015000000000000002300000000000006289800000000000000009999123100000010000000000000BRGEPAACNPR9159
012024042602GFSA3       010GAFISA      ON      NM   R$  000000000053200000000005610000000000532000000000054800000000005530000000000553000000000055501899000000000001389800000000000762100100000000000000009999123100000010000000000000BRGFSAACNOR3124
012024042602ITSA4       010ITAUSA      PN      N1   R$  000000000095500000000009730000000000952000000000096700000000009690000000000969000000000097015926000000000015210400000000014710073700000000000000009999123100000010000000000000BRITSAACNPR7439
012024042602ITUB3       010ITAUUNIBANCOON      N1   R$  000000000277500000000028120000000002746000000000279800000000028060000000002802000000000280600645000000000000200600000000000561287600000000000000009999123100000010000000000000BRITUBACNOR4334
012024042602ITUB4       010ITAUUNIBANCOPN      N1   R$  000000000318200000000032350000000003172000000000321600000000032210000000003220000000000322231834000000000027149700000000087325427400000000000000009999123100000010000000000000BRITUBACNPR1334
012024042602ASAI3       010ASSAI       ON      NM   R$  000000000134500000000013520000000001318000000000133700000000013320000000001331000000000133225767000000000014489900000000019386481800000000000000009999123100000010000000000000BRASAIACNOR0106
012024042602ATOM3       010ATOMPAR     ON           R$  000000000022100000000002250000000000214000000000021800000000002150000000000213000000000021900106000000000000022800000000000004979500000000000000009999123100000010000000000000BRATOMACNOR1106
012024042602REDE3       010REDE ENERGIAON           R$  000000000068500000000006930000000000681000000000068700000000006910000000000691000000000069200017000000000000002200000000000001511800000000000000009999123100000010000000000000BRREDEACNOR7127
012024042602RENT3       010LOCALIZA    ON      NM   R$  000000000491500000000050700000000004915000000000503800000000050500000000005049000000000505019747000000000007623200000000038407762000000000000000009999123100000010000000000000BRRENTACNOR4195
012024042602TASA4       010TAURUS ARMASPN      N2   R$  000000000121500000000012310000000001206000000000121500000000012160000000001216000000000121701004000000000000348400000000000423549500000000000000009999123100000010000000000000BRTASAACNPR4103
012024042602TCSA3       010TECNISA     ON      NM   R$  000000000024500000000002450000000000238000000000024000000000002420000000000240000000000024200173000000000000223700000000000053905100000000000000009999123100000010000000000000BRTCSAACNOR3112
012024042602TECN3       010TECHNOS     ON      NM   R$  000000000048700000000005050000000000482000000000049100000000004900000000000485000000000049000795000000000000190300000000000093529300000000000000009999123100000010000000000000BRTECNACNOR6109
012024042602TELB4       010TELEBRAS    PN           R$  000000000095100000000009840000000000950000000000096700000000009830000000000952000000000098300010000000000000001100000000000001064700000000000000009999123100000010000000000000BRTELBACNPR9140
012024042602TEND3       010TENDA       ON      NM   R$  000000000122100000000013060000000001205000000000126500000000013060000000001292000000000130608233000000000003534200000000004473581800000000000000009999123100000010000000000000BRTENDACNOR4111
012024042602TFCO4       010TRACK FIELD PN      N2   R$  000000000113900000000011450000000001115000000000113500000000011380000000001137000000000113900608000000000000182500000000000207308000000000000000009999123100000010000000000000BRTFCOACNPR8112
012024042602TGMA3       010TEGMA       ON      NM   R$  000000000241600000000024750000000002416000000000245700000000024560000000002455000000000245600832000000000000107400000000000263944900000000000000009999123100000010000000000000BRTGMAACNOR7144
012024042602TIMS3       010TIM         ON      NM   R$  000000000174900000000017630000000001739000000000174900000000017490000000001748000000000175008957000000000003809600000000006666362300000000000000009999123100000010000000000000BRTIMSACNOR5116
012024042602TKNO4       010TEKNO       PN           R$  000000000600000000000065000000000006000000000000605500000000065000000000006005000000000720000005000000000000000900000000000005450000000000000000009999123100000010000000000000BRTKNOACNPR5075
012024042602TOTS3       010TOTVS       ON      NM   R$  000000000281200000000028490000000002801000000000282500000000028080000000002808000000000281508072000000000002841300000000008027736700000000000000009999123100000010000000000000BRTOTSACNOR8144
012024042602TPIS3       010TRIUNFO PARTON      NM   R$  000000000038200000000003940000000000382000000000038900000000003920000000000386000000000039200051000000000000025200000000000009818500000000000000009999123100000010000000000000BRTPISACNOR8118
012024042602TRAD3       010TC          ON      NM   R$  000000000008000000000000840000000000079000000000008100000000000800000000000079000000000008000184000000000000457700000000000037441200000000000000009999123100000010000000000000BRTRADACNOR3101
012024042602TRIS3       010TRISUL      ON  ED  NM   R$  000000000045500000000004740000000000454000000000046600000000004660000000000465000000000046601084000000000000579900000000000270687300000000000000009999123100000010000000000000BRTRISACNOR4117
012024042602POMO4       010MARCOPOLO   PN      N2   R$  000000000069800000000007110000000000689000000000069600000000006960000000000694000000000069607426000000000004830000000000003363918800000000000000009999123100000010000000000000BRPOMOACNPR7097
012024042602PORT3       010WILSON SONS ON      NM   R$  000000000168500000000016930000000001677000000000168400000000016850000000001683000000000168501871000000000000809200000000001363440000000000000000009999123100000010000000000000BRPORTACNOR8106
012024042602POSI3       010POSITIVO TECON      NM   R$  000000000090700000000009450000000000907000000000093600000000009440000000000935000000000094405676000000000001197800000000001121831600000000000000009999123100000010000000000000BRPOSIACNOR9115
012024042602PRIO3       010PETRORIO    ON      NM   R$  000000000496000000000049950000000004895000000000493300000000049250000000004923000000000492620139000000000006197600000000030573842200000000000000009999123100000010000000000000BRPRIOACNOR1106
012024042602SEER3       010SER EDUCA   ON      NM   R$  000000000055800000000005720000000000558000000000056300000000005610000000000560000000000056101186000000000000478200000000000269649000000000000000009999123100000010000000000000BRSEERACNOR5119
012024042602SANB11      010SANTANDER BRUNT EJ       R$  000000000266800000000027500000000002655000000000272100000000027450000000002744000000000275008515000000000003441700000000009367800800000000000000009999123100000010000000000000BRSANBCDAM13164
012024042602SANB3       010SANTANDER BRON  EJ       R$  000000000125500000000012880000000001247000000000127200000000012860000000001280000000000128800592000000000000116300000000000147939800000000000000009999123100000010000000000000BRSANBACNOR8171
012024042602SANB4       010SANTANDER BRPN  EJ       R$  000000000141700000000014590000000001411000000000143800000000014580000000001448000000000145900692000000000000149600000000000215264600000000000000009999123100000010000000000000BRSANBACNPR5171
012024042602YDUQ3       010YDUQS PART  ON      NM   R$  000000000152500000000015680000000001520000000000154900000000015570000000001557000000000155810817000000000003852900000000005968904400000000000000009999123100000010000000000000BRYDUQACNOR3104
012024042602ZAMP3       010ZAMP S.A.   ON           R$  000000000038500000000004050000000000384000000000039700000000003990000000000398000000000040201826000000000000899100000000000357274400000000000000009999123100000010000000000000BRZAMPACNOR5100
012024042602PFRM3       010PROFARMA    ON      NM   R$  000000000060000000000006080000000000574000000000059200000000005930000000000588000000000059301218000000000000376600000000000223254600000000000000009999123100000010000000000000BRPFRMACNOR1116
012024042602PGMN3       010PAGUE MENOS ON      NM   R$  000000000025100000000002580000000000250000000000025400000000002570000000000255000000000025700990000000000000674500000000000171347100000000000000009999123100000010000000000000BRPGMNACNOR8103
012024042602PINE3       010PINE        ON      N2   R$  000000000063500000000006480000000000607000000000063500000000006070000000000601000000000064800006000000000000000900000000000000572100000000000000009999123100000010000000000000BRPINEACNOR1149
012024042602PINE4       010PINE        PN      N2   R$  000000000044900000000004500000000000444000000000044600000000004440000000000444000000000044600193000000000000071700000000000032016100000000000000009999123100000010000000000000BRPINEACNPR8149
012024042602SAPR11      010SANEPAR     UNT     N2   R$  000000000258000000000026350000000002580000000000260800000000025940000000002594000000000260002205000000000000596000000000001554831900000000000000009999123100000010000000000000BRSAPRCDAM13117
012024042602SAPR3       010SANEPAR     ON      N2   R$  000000000049600000000005030000000000494000000000049900000000004970000000000497000000000049900471000000000000143200000000000071458400000000000000009999123100000010000000000000BRSAPRACNOR9158
012024042602SAPR4       010SANEPAR     PN      N2   R$  000000000052000000000005300000000000520000000000052500000000005250000000000525000000000052601635000000000001065000000000000560080000000000000000009999123100000010000000000000BRSAPRACNPR6158
012024042602SBFG3       010GRUPO SBF   ON      NM   R$  000000000115000000000011850000000001150000000000117400000000011850000000001180000000000118604364000000000001029400000000001208799400000000000000009999123100000010000000000000BRSBFGACNOR1102
012024042602SBSP3       010SABESP      ON  EJ  NM   R$  000000000825000000000082740000000008181000000000823000000000082300000000008228000000000823008762000000000002997300000000024670380000000000000000009999123100000010000000000000BRSBSPACNOR5161
012024042602SCAR3       010SAO CARLOS  ON      NM   R$  000000000246500000000025740000000002465000000000247200000000025710000000002501000000000257200011000000000000012500000000000030902100000000000000009999123100000010000000000000BRSCARACNOR7130
012024042602VALE3       010VALE        ON      NM   R$  000000000626000000000063160000000006235000000000627800000000062740000000006274000000000628028628000000000015532200000000097522297700000000000000009999123100000010000000000000BRVALEACNOR0210
012024042602PETZ3       010PETZ        ON      NM   R$  000000000048500000000005170000000000485000000000050200000000005030000000000502000000000050313785000000000022729800000000011430897000000000000000009999123100000010000000000000BRPETZACNOR2109
012024042602RSUL4       010RIOSULENSE  PN  ED       R$  000000000776700000000078980000000007710000000000780700000000078980000000007458000000000799800008000000000000000800000000000006246300000000000000009999123100000010000000000000BRRSULACNPR3114
012024042602UCAS3       010UNICASA     ON      NM   R$  000000000023600000000002410000000000234000000000023700000000002380000000000238000000000024000154000000000000016900000000000004011100000000000000009999123100000010000000000000BRUCASACNOR1113
012024042602UGPA3       010ULTRAPAR    ON      NM   R$  000000000264100000000026780000000002625000000000266000000000026500000000002650000000000265408923000000000002958400000000007871056700000000000000009999123100000010000000000000BRUGPAACNOR8155
012024042602UNIP3       010UNIPAR      ON  EB       R$  000000000530500000000053560000000005274000000000530300000000053560000000005260000000000537900098000000000000012900000000000068419100000000000000009999123100000010000000000000BRUNIPACNOR7206
012024042602UNIP6       010UNIPAR      PNB EB       R$  000000000532100000000054490000000005321000000000537000000000053300000000005330000000000533201233000000000000191200000000001026825000000000000000009999123100000010000000000000BRUNIPACNPB8206
012024042602USIM3       010USIMINAS    ON  ED  N1   R$  000000000078300000000007840000000000758000000000076500000000007610000000000760000000000076402559000000000000943400000000000722488600000000000000009999123100000010000000000000BRUSIMACNOR3167
012024042602USIM5       010USIMINAS    PNA ED  N1   R$  000000000083900000000008400000000000811000000000081900000000008200000000000819000000000082022809000000000020223800000000016582830200000000000000009999123100000010000000000000BRUSIMACNPA6169
012024042602WEST3       010WESTWING    ON      NM   R$  000000000011800000000001210000000000116000000000011700000000001160000000000116000000000011900213000000000000034100000000000003995500000000000000009999123100000010000000000000BRWESTACNOR3100
012024042602SNSY3       010SANSUY      ON           R$  000000000118000000000011900000000001159000000000117200000000011590000000001145000000000119000003000000000000000400000000000000468800000000000000009999123100000010000000000000BRSNSYACNOR2113
012024042602SNSY5       010SANSUY      PNA          R$  000000000063300000000006390000000000633000000000063500000000006380000000000626000000000063900003000000000000000500000000000000317600000000000000009999123100000010000000000000BRSNSYACNPA5111
012024042602SOJA3       010BOA SAFRA   ON      NM   R$  000000000184000000000018690000000001802000000000182900000000018320000000001819000000000183203803000000000000590100000000001079454600000000000000009999123100000010000000000000BRSOJAACNOR9105
012024042602SOMA3       010GRUPO SOMA  ON      NM   R$  000000000061600000000006300000000000601000000000061000000000006110000000000610000000000061217601000000000020574600000000012568314900000000000000009999123100000010000000000000BRSOMAACNOR3102
012024042602PLPL3       010PLANOEPLANO ON      NM   R$  000000000112100000000011700000000001121000000000115400000000011640000000001150000000000116401513000000000000326800000000000377201200000000000000009999123100000010000000000000BRPLPLACNOR5104
012024042602PNVL3       010DIMED       ON      NM   R$  000000000109800000000011270000000001098000000000111500000000011210000000001121000000000112501092000000000000191000000000000213109000000000000000009999123100000010000000000000BRPNVLACNOR9206
012024042602POMO3       010MARCOPOLO   ON      N2   R$  000000000054600000000005540000000000539000000000054300000000005390000000000539000000000054500507000000000000208700000000000113423200000000000000009999123100000010000000000000BRPOMOACNOR0097
012024042602FESA3       010FERBASA     ON      N1   R$  000000000148900000000014890000000001401000000000146600000000014750000000001475000000000150900009000000000000000900000000000001320000000000000000009999123100000010000000000000BRFESAACNOR8187
012024042602FESA4       010FERBASA     PN      N1   R$  000000000080300000000008190000000000803000000000081200000000008130000000000812000000000081402368000000000000682500000000000554669800000000000000009999123100000010000000000000BRFESAACNPR5083
012024042602FHER3       010FER HERINGERON      NM   R$  000000000049500000000005050000000000495000000000049900000000005050000000000500000000000050400005000000000000000800000000000000399400000000000000009999123100000010000000000000BRFHERACNOR5103
012024042602BBSE3       010BBSEGURIDADEON      NM   R$  000000000322000000000032350000000003206000000000321800000000032090000000003209000000000321210270000000000003071300000000009884970700000000000000009999123100000010000000000000BRBBSEACNOR5124
012024042602BEEF3       010MINERVA     ON      NM   R$  000000000060300000000006170000000000603000000000061200000000006130000000000613000000000061408127000000000007661700000000004691235400000000000000009999123100000010000000000000BRBEEFACNOR6116
012024042602BPAN4       010BANCO PAN   PN      N1   R$  000000000091200000000009310000000000904000000000091600000000009160000000000916000000000092103074000000000001244600000000001140762900000000000000009999123100000010000000000000BRBPANACNPR1115
012024042602BRAP3       010BRADESPAR   ON      N1   R$  000000000201800000000020420000000002014000000000203100000000020400000000002030000000000204100564000000000000116500000000000236719700000000000000009999123100000010000000000000BRBRAPACNOR5147
012024042602BRAP4       010BRADESPAR   PN      N1   R$  000000000210400000000021220000000002095000000000211000000000021070000000002107000000000211009521000000000006149100000000012974778000000000000000009999123100000010000000000000BRBRAPACNPR2147
012024042602CRPG5       010CRISTAL     PNA          R$  000000000305000000000030500000000003001000000000302200000000030010000000003000000000000309900010000000000000001800000000000005440300000000000000009999123100000010000000000000BRCRPGACNPA3118
012024042602CRPG6       010CRISTAL     PNB          R$  000000000290100000000029740000000002901000000000294900000000029740000000002951000000000297500011000000000000001500000000000004424700000000000000009999123100000010000000000000BRCRPGACNPB1118
012024042602CSAN3       010COSAN       ON      NM   R$  000000000144400000000014880000000001437000000000147500000000014760000000001475000000000147615205000000000008763000000000012933251500000000000000009999123100000010000000000000BRCSANACNOR6124
012024042602CSED3       010CRUZEIRO EDUON      NM   R$  000000000041500000000004390000000000415000000000042800000000004390000000000430000000000043900923000000000000404700000000000173510200000000000000009999123100000010000000000000BRCSEDACNOR9104
012024042602CSMG3       010COPASA      ON      NM   R$  000000000213600000000021830000000002136000000000216400000000021570000000002157000000000216703513000000000000960900000000002080144100000000000000009999123100000010000000000000BRCSMGACNOR5172
012024042602EQTL3       010EQUATORIAL  ON      NM   R$  000000000310300000000031590000000003093000000000312200000000031250000000003120000000000312617813000000000005634300000000017593809500000000000000009999123100000010000000000000BREQTLACNOR0129
012024042602ESPA3       010ESPACOLASER ON      NM   R$  000000000009100000000000970000000000091000000000009400000000000940000000000094000000000009500658000000000001026300000000000096626000000000000000009999123100000010000000000000BRESPAACNOR7103
012024042602EUCA3       010EUCATEX     ON      N1   R$  000000000160100000000016010000000001560000000000158400000000016000000000001575000000000169900014000000000000002100000000000003326800000000000000009999123100000010000000000000BREUCAACNOR1157
012024042602EUCA4       010EUCATEX     PN      N1   R$  000000000156100000000016340000000001530000000000157600000000016340000000001563000000000163400364000000000000059600000000000093957400000000000000009999123100000010000000000000BREUCAACNPR8044
012024042602EVEN3       010EVEN        ON      NM   R$  000000000071300000000007310000000000711000000000072300000000007270000000000725000000000072701719000000000000403000000000000291404100000000000000009999123100000010000000000000BREVENACNOR8118
012024042602EZTC3       010EZTEC       ON      NM   R$  000000000134400000000013950000000001340000000000137800000000013950000000001385000000000139604597000000000001763800000000002431812600000000000000009999123100000010000000000000BREZTCACNOR0124
012024042602ITSA3       010ITAUSA      ON      N1   R$  000000000095500000000009710000000000952000000000096300000000009670000000000967000000000096900458000000000000207800000000000200204400000000000000009999123100000010000000000000BRITSAACNOR0439
012024042602MGEL4       010MANGELS INDLPN           R$  000000000181700000000018250000000001790000000000181500000000018250000000001740000000000182500009000000000000004900000000000008895400000000000000009999123100000010000000000000BRMGELACNPR3147
012024042602MGLU3       010MAGAZ LUIZA ON      NM   R$  000000000014100000000001440000000000140000000000014100000000001430000000000143000000000014421619000000000085678100000000012135349500000000000000009999123100000010000000000000BRMGLUACNOR2123
012024042602ALPA3       010ALPARGATAS  ON      N1   R$  000000000096800000000009880000000000950000000000095900000000009500000000000941000000000097200014000000000000002000000000000001919400000000000000009999123100000010000000000000BRALPAACNOR0231
012024042602ALPA4       010ALPARGATAS  PN      N1   R$  000000000093600000000009550000000000934000000000094400000000009410000000000940000000000094305942000000000002192100000000002069798600000000000000009999123100000010000000000000BRALPAACNPR7232
012024042602ALPK3       010ESTAPAR     ON      NM   R$  000000000038900000000004050000000000389000000000039700000000003990000000000396000000000039900352000000000000090700000000000036027400000000000000009999123100000010000000000000BRALPKACNOR9101
012024042602ALUP11      010ALUPAR      UNT EDB N2   R$  000000000274000000000028680000000002740000000000277000000000027720000000002759000000000277203659000000000001269100000000003516060900000000000000009999123100000010000000000000BRALUPCDAM15118
012024042602ALUP3       010ALUPAR      ON  EDB N2   R$  000000000092300000000009500000000000911000000000092100000000009260000000000920000000000092600152000000000000021200000000000019543000000000000000009999123100000010000000000000BRALUPACNOR8118
012024042602ALUP4       010ALUPAR      PN  EDB N2   R$  000000000091000000000009400000000000910000000000091900000000009210000000000915000000000092100175000000000000029700000000000027306900000000000000009999123100000010000000000000BRALUPACNPR5118
012024042602AMAR3       010LOJAS MARISAON      NM   R$  000000000015700000000001630000000000155000000000015700000000001550000000000155000000000015700800000000000000438200000000000069157300000000000000009999123100000010000000000000BRAMARACNOR4114
012024042602AMBP3       010AMBIPAR     ON      NM   R$  000000000100600000000010630000000001006000000000104500000000010370000000001032000000000104204916000000000001607400000000001680192700000000000000009999123100000010000000000000BRAMBPACNOR6103
012024042602ANIM3       010ANIMA       ON      NM   R$  000000000035300000000003760000000000352000000000036700000000003700000000000367000000000037009003000000000007224100000000002653225200000000000000009999123100000010000000000000BRANIMACNOR6107
012024042602APER3       010ALPER S.A.  ON           R$  000000000442900000000044500000000004355000000000443000000000044100000000004401000000000449000009000000000000001200000000000005316900000000000000009999123100000010000000000000BRAPERACNOR9106
012024042602ARML3       010ARMAC       ON      NM   R$  000000000108900000000011240000000001082000000000110000000000011230000000001114000000000112303107000000000000627200000000000690522800000000000000009999123100000010000000000000BRARMLACNOR1111
012024042602ARZZ3       010AREZZO CO   ON      NM   R$  000000000522900000000053180000000005135000000000521500000000052030000000005191000000000520408798000000000001935300000000010093013000000000000000009999123100000010000000000000BRARZZACNOR3146
012024042602BPAC11      010BTGP BANCO  UNT     N2   R$  000000000330500000000034230000000003273000000000337300000000034100000000003408000000000341127869000000000011814400000000039854455400000000000000009999123100000010000000000000BRBPACUNT006118
012024042602BPAC3       010BTGP BANCO  ON      N2   R$  000000000167000000000017000000000001645000000000167100000000016830000000001611000000000169500055000000000000006900000000000011530100000000000000009999123100000010000000000000BRBPACACNOR7133
012024042602BPAC5       010BTGP BANCO  PNA     N2   R$  000000000081400000000008570000000000814000000000084400000000008570000000000829000000000085600047000000000000008700000000000007350100000000000000009999123100000010000000000000BRBPACACNPA0133
012024042602CPFE3       010CPFL ENERGIAON      NM   R$  000000000349400000000035200000000003475000000000349500000000034940000000003488000000000349506863000000000002497900000000008730942000000000000000009999123100000010000000000000BRCPFEACNOR0136
012024042602CPLE3       010COPEL       ON  ED  N2   R$  000000000082000000000008370000000000818000000000082900000000008340000000000834000000000083523504000000000011283700000000009361954300000000000000009999123100000010000000000000BRCPLEACNOR8149
012024042602CPLE6       010COPEL       PNB ED  N2   R$  000000000090600000000009190000000000900000000000091100000000009100000000000910000000000091124126000000000017615100000000016053021400000000000000009999123100000010000000000000BRCPLEACNPB9146
012024042602CRFB3       010CARREFOUR BRON      NM   R$  000000000113500000000011630000000001127000000000114300000000011550000000001153000000000115612676000000000006381300000000007298472400000000000000009999123100000010000000000000BRCRFBACNOR2116
012024042602ENAT3       010ENAUTA PART ON      NM   R$  000000000283500000000029180000000002833000000000288500000000028820000000002879000000000288208431000000000002047400000000005906749400000000000000009999123100000010000000000000BRENATACNOR0104
012024042602ENEV3       010ENEVA       ON      NM   R$  000000000128000000000012980000000001273000000000128100000000012830000000001281000000000128310625000000000008326700000000010674191500000000000000009999123100000010000000000000BRENEVACNOR8105
012024042602ENGI11      010ENERGISA    UNT     N2   R$  000000000460500000000046570000000004561000000000463000000000046370000000004637000000000463812817000000000002827000000000013090173900000000000000009999123100000010000000000000BRENGICDAM16135
012024042602ENGI3       010ENERGISA    ON      N2   R$  000000000145100000000014790000000001378000000000141900000000014490000000001440000000000144900135000000000000017600000000000024985300000000000000009999123100000010000000000000BRENGIACNOR0145
012024042602ENGI4       010ENERGISA    PN      N2   R$  000000000078200000000008150000000000780000000000080600000000007920000000000792000000000079900153000000000000077600000000000062548100000000000000009999123100000010000000000000BRENGIACNPR7141
012024042602ENJU3       010ENJOEI      ON      NM   R$  000000000019800000000002190000000000198000000000020600000000002140000000000214000000000021501579000000000004122400000000000853127500000000000000009999123100000010000000000000BRENJUACNOR9100
012024042602ENMT3       010ENERGISA MT ON           R$  000000000819000000000081900000000008190000000000819000000000081900000000000000000000000819000001000000000000000100000000000000819000000000000000009999123100000010000000000000BRENMTACNOR5120
012024042602EPAR3       010EMBPAR S/A  ON           R$  000000000075800000000007590000000000746000000000075400000000007460000000000755000000000076000010000000000000001100000000000000829800000000000000009999123100000010000000000000BREPARACNOR9104
012024042602EQPA3       010EQTL PARA   ON           R$  000000000081400000000008300000000000810000000000081700000000008160000000000816000000000082900035000000000000008200000000000006705200000000000000009999123100000010000000000000BREQPAACNOR1110
012024042602HAGA3       010HAGA S/A    ON           R$  000000000025400000000002540000000000254000000000025400000000002540000000000245000000000025400001000000000000000100000000000000025400000000000000009999123100000010000000000000BRHAGAACNOR7103
012024042602HAGA4       010HAGA S/A    PN           R$  000000000011800000000001180000000000115000000000011500000000001150000000000116000000000011700023000000000000015700000000000001818200000000000000009999123100000010000000000000BRHAGAACNPR4103
012024042602HAPV3       010HAPVIDA     ON      NM   R$  000000000036400000000003820000000000363000000000037700000000003780000000000377000000000037820907000000000040151700000000015142820900000000000000009999123100000010000000000000BRHAPVACNOR4113
012024042602JHSF3       010JHSF PART   ON      NM   R$  000000000042400000000004370000000000424000000000043200000000004330000000000430000000000043302874000000000002080500000000000899363100000000000000009999123100000010000000000000BRJHSFACNOR2134
012024042602IGTI11      010IGUATEMI S.AUNT ED  N1   R$  000000000205600000000021320000000002042000000000210200000000021260000000002121000000000212717637000000000005313100000000011169657700000000000000009999123100000010000000000000BRIGTICDAM16106
012024042602IGTI3       010IGUATEMI S.AON  ED  N1   R$  000000000030100000000003010000000000290000000000029400000000002910000000000291000000000029300166000000000000047700000000000014050500000000000000009999123100000010000000000000BRIGTIACNOR8106
012024042602INEP3       010INEPAR      ON           R$  000000000033400000000003400000000000319000000000032800000000003270000000000322000000000032700279000000000000085200000000000027988000000000000000009999123100000010000000000000BRINEPACNOR1143
012024042602INEP4       010INEPAR      PN           R$  000000000027600000000003060000000000275000000000029300000000002960000000000277000000000029700212000000000000072900000000000021382300000000000000009999123100000010000000000000BRINEPACNPR8143
012024042602INTB3       010INTELBRAS   ON      NM   R$  000000000190300000000019490000000001897000000000192200000000019050000000001898000000000190603378000000000000785400000000001509618100000000000000009999123100000010000000000000BRINTBACNOR9111
012024042602IRBR3       010IRBBRASIL REON      NM   R$  000000000415300000000042760000000004125000000000421900000000042350000000004235000000000423705371000000000001308400000000005520625600000000000000009999123100000010000000000000BRIRBRACNOR4111
012024042602LUPA3       010LUPATECH    ON      NM   R$  000000000015200000000001590000000000146000000000015100000000001460000000000146000000000014900685000000000000680800000000000103026300000000000000009999123100000010000000000000BRLUPAACNOR8112
012024042602LUXM4       010TREVISA     PN  ED       R$  000000000156900000000015690000000001569000000000156900000000015690000000001398000000000155800001000000000000000100000000000000156900000000000000009999123100000010000000000000BRLUXMACNPR4052
012024042602MTRE3       010MITRE REALTYON  ED  NM   R$  000000000043100000000004470000000000431000000000043700000000004360000000000434000000000043701595000000000000940300000000000411364100000000000000009999123100000010000000000000BRMTREACNOR6110
012024042602MTSA4       010METISA      PN           R$  000000000482400000000048240000000004824000000000482400000000048240000000004674000000000482000001000000000000000100000000000000482400000000000000009999123100000010000000000000BRMTSAACNPR9071
012024042602MULT3       010MULTIPLAN   ON      N2   R$  000000000238200000000024540000000002368000000000241800000000024000000000002396000000000240226308000000000009238500000000022343351800000000000000009999123100000010000000000000BRMULTACNOR5138
012024042602MWET4       010WETZEL S/A  PN           R$  000000000054700000000005470000000000519000000000052100000000005220000000000522000000000053300023000000000000006200000000000003233000000000000000009999123100000010000000000000BRMWETACNPR3118
012024042602MYPK3       010IOCHP-MAXIONON      NM   R$  000000000125200000000012680000000001243000000000125100000000012430000000001243000000000125002781000000000000646300000000000808627300000000000000009999123100000010000000000000BRMYPKACNOR7154
012024042602LVTC3       010WDC NETWORKSON      NM   R$  000000000037800000000003780000000000375000000000037600000000003770000000000377000000000037800057000000000000008300000000000003126900000000000000009999123100000010000000000000BRLVTCACNOR4102
012024042602LWSA3       010LWSA        ON      NM   R$  000000000046300000000004710000000000455000000000046500000000004700000000000469000000000047109579000000000010539500000000004906762200000000000000009999123100000010000000000000BRLWSAACNOR8103
012024042602MAPT3       010CEMEPE      ON           R$  000000000070000000000007500000000000600000000000065400000000006000000000000600000000000066500011000000000000001100000000000000719400000000000000009999123100000010000000000000BRMAPTACNOR8106
012024042602MAPT4       010CEMEPE      PN           R$  000000000081900000000008480000000000730000000000079800000000007300000000000721000000000078900016000000000000002900000000000002315700000000000000009999123100000010000000000000BRMAPTACNPR5106
012024042602MATD3       010MATER DEI   ON      NM   R$  000000000054900000000005750000000000548000000000056300000000005710000000000571000000000057301305000000000000208000000000000117281700000000000000009999123100000010000000000000BRMATDACNOR4103
012024042602MBLY3       010MOBLY       ON      NM   R$  000000000022900000000002360000000000229000000000023300000000002350000000000232000000000023500306000000000000376700000000000088145000000000000000009999123100000010000000000000BRMBLYACNOR5100
012024042602MDIA3       010M.DIASBRANCOON      NM   R$  000000000343900000000034700000000003420000000000343700000000034300000000003430000000000344005064000000000001456000000000005005158800000000000000009999123100000010000000000000BRMDIAACNOR7134
012024042602MDNE3       010MOURA DUBEUXON      NM   R$  000000000116900000000012150000000001169000000000119800000000012150000000001210000000000121502650000000000000514200000000000616459700000000000000009999123100000010000000000000BRMDNEACNOR9100
012024042602MEAL3       010IMC S/A     ON      NM   R$  000000000015200000000001580000000000152000000000015500000000001570000000000155000000000015701078000000000000710200000000000110124400000000000000009999123100000010000000000000BRMEALACNOR9105
012024042602NEOE3       010NEOENERGIA  ON  ED  NM   R$  000000000193000000000019420000000001928000000000193300000000019330000000001928000000000193703725000000000000727700000000001407123100000000000000009999123100000010000000000000BRNEOEACNOR3122
012024042602MELK3       010MELNICK     ON      NM   R$  000000000044500000000004520000000000440000000000044800000000004490000000000448000000000044900191000000000000099600000000000044641200000000000000009999123100000010000000000000BRMELKACNOR8110
012024042602MERC4       010MERC FINANC PN           R$  000000000077100000000007710000000000771000000000077100000000007710000000000710000000000079900002000000000000000400000000000000308400000000000000009999123100000010000000000000BRMERCACNPR9180
012024042602PDGR3       010PDG REALT   ON      NM   R$  000000000002300000000000240000000000022000000000002200000000000220000000000022000000000002300438000000000002551500000000000057631400000000000000009999123100000010000000000000BRPDGRACNOR8118
012024042602PDTC3       010PADTEC      ON      NM   R$  000000000023000000000002340000000000228000000000023000000000002300000000000230000000000023000076000000000000022300000000000005132200000000000000009999123100000010000000000000BRPDTCACNOR3100
012024042602PETR3       010PETROBRAS   ON  EDR N2   R$  000000000432200000000043930000000004306000000000436300000000043750000000004373000000000437615303000000000008957000000000039081803000000000000000009999123100000010000000000000BRPETRACNOR9203
012024042602PETR4       010PETROBRAS   PN  EDR N2   R$  000000000412900000000041780000000004107000000000414700000000041410000000004141000000000414257312000000000031887500000000132263254700000000000000009999123100000010000000000000BRPETRACNPR6211
012024042602BAHI3       010BAHEMA      ON      MA   R$  000000000077700000000008230000000000777000000000080000000000008230000000000760000000000082400005000000000000000800000000000000640000000000000000009999123100000010000000000000BRBAHIACNOR1074
012024042602BAZA3       010AMAZONIA    ON           R$  000000001032100000000103500000000010200000000001025000000000102110000000010200000000001034800038000000000000005500000000000056378100000000000000009999123100000010000000000000BRBAZAACNOR0178
012024042602BBAS3       010BRASIL      ON      NM   R$  000000000275100000000027700000000002744000000000275600000000027550000000002754000000000275725033000000000012571300000000034654074000000000000000009999123100000010000000000000BRBBASACNOR3322
012024042602AERI3       010AERIS       ON      NM   R$  000000000005500000000000590000000000055000000000005600000000000570000000000056000000000005702460000000000002169800000000000123512600000000000000009999123100000010000000000000BRAERIACNOR4101
012024042602AESB3       010AES BRASIL  ON  ED  NM   R$  000000000091700000000009310000000000916000000000092200000000009220000000000919000000000092203472000000000001402900000000001293916400000000000000009999123100000010000000000000BRAESBACNOR7106
012024042602AFLT3       010AFLUENTE T  ON           R$  000000000070400000000007490000000000698000000000071500000000007490000000000726000000000078900006000000000000001000000000000000715000000000000000009999123100000010000000000000BRAFLTACNOR1121
012024042602AGRO3       010BRASILAGRO  ON      NM   R$  000000000252500000000025520000000002509000000000253100000000025300000000002530000000000254700926000000000000138000000000000349321600000000000000009999123100000010000000000000BRAGROACNOR7114
012024042602AGXY3       010AGROGALAXY  ON      NM   R$  000000000017800000000001800000000000171000000000017400000000001730000000000172000000000017300651000000000000222000000000000038637700000000000000009999123100000010000000000000BRAGXYACNOR4102
012024042602ALLD3       010ALLIED      ON      NM   R$  000000000074400000000007640000000000737000000000074700000000007480000000000744000000000074800322000000000000092700000000000069289400000000000000009999123100000010000000000000BRALLDACNOR3106
012024042602ALOS3       010ALLOS       ON      NM   R$  000000000209000000000021670000000002086000000000213400000000021450000000002144000000000214520738000000000009625900000000020549438600000000000000009999123100000010000000000000BRALOSACNOR5100
012024042602TRPL3       010TRAN PAULISTON      N1   R$  000000000327200000000032720000000003272000000000327200000000032720000000003270000000000329000001000000000000000100000000000000327200000000000000009999123100000010000000000000BRTRPLACNOR4185
012024042602TRPL4       010TRAN PAULISTPN      N1   R$  000000000252200000000025570000000002515000000000254000000000025330000000002533000000000253408883000000000003125000000000007939651300000000000000009999123100000010000000000000BRTRPLACNPR1185
012024042602VITT3       010VITTIA      ON      NM   R$  000000000057100000000005840000000000561000000000057100000000005680000000000568000000000056903109000000000000582100000000000332495500000000000000009999123100000010000000000000BRVITTACNOR4107
012024042602VIVA3       010VIVARA S.A. ON      NM   R$  000000000224100000000023120000000002241000000000229300000000023010000000002292000000000230207980000000000002887400000000006623505200000000000000009999123100000010000000000000BRVIVAACNOR0106
012024042602VIVR3       010VIVER       ON      NM   R$  000000000029800000000003090000000000298000000000030400000000003050000000000304000000000030700073000000000000041200000000000012558700000000000000009999123100000010000000000000BRVIVRACNOR4122
012024042602VIVT3       010TELEF BRASILON           R$  000000000478100000000048380000000004781000000000481300000000048000000000004800000000000482006955000000000001710400000000008233419800000000000000009999123100000010000000000000BRVIVTACNOR0180
012024042602VLID3       010VALID       ON  ED  NM   R$  000000000178000000000018230000000001768000000000180500000000018130000000001813000000000181701399000000000000319800000000000577333800000000000000009999123100000010000000000000BRVLIDACNOR5142
012024042602COGN3       010COGNA ON    ON      NM   R$  000000000022000000000002220000000000214000000000021700000000002170000000000216000000000021710679000000000025283400000000005499489100000000000000009999123100000010000000000000BRCOGNACNOR2104
012024042602ELMD3       010ELETROMIDIA ON      NM   R$  000000000176000000000017710000000001729000000000175000000000017440000000001744000000000175000354000000000000061000000000000106760300000000000000009999123100000010000000000000BRELMDACNOR3100
012024042602EMAE4       010EMAE        PN           R$  000000000571000000000059350000000005702000000000583600000000058800000000005755000000000588000037000000000000004600000000000026848400000000000000009999123100000010000000000000BREMAEACNPR1125
012024042602EMBR3       010EMBRAER     ON      NM   R$  000000000324700000000033440000000003225000000000331100000000033200000000003319000000000332015968000000000007141200000000023646261700000000000000009999123100000010000000000000BREMBRACNOR4191
012024042602IFCM3       010INFRACOMM   ON      NM   R$  000000000007800000000000800000000000076000000000007800000000000770000000000077000000000007801124000000000004436500000000000346132600000000000000009999123100000010000000000000BRIFCMACNOR8101
012024042602VSTE3       010VESTE       ON      NM   R$  000000000147100000000015400000000001471000000000152200000000015390000000001476000000000153900016000000000000002400000000000003653700000000000000009999123100000010000000000000BRVSTEACNOR5102
012024042602VULC3       010VULCABRAS   ON      NM   R$  000000000162700000000016500000000001621000000000163700000000016310000000001629000000000163602136000000000000589100000000000964876800000000000000009999123100000010000000000000BRVULCACNOR2158
012024042602VVEO3       010VIVEO       ON      NM   R$  000000000054900000000005630000000000537000000000054700000000005460000000000541000000000054605604000000000001632400000000000892995200000000000000009999123100000010000000000000BRVVEOACNOR0103
012024042602HYPE3       010HYPERA      ON  EJ  NM   R$  000000000274000000000028660000000002731000000000281500000000028550000000002852000000000285620423000000000007505400000000021130832900000000000000009999123100000010000000000000BRHYPEACNOR0140
012024042602QUAL3       010QUALICORP   ON      NM   R$  000000000017100000000001750000000000169000000000017200000000001710000000000170000000000017102253000000000004648700000000000800260700000000000000009999123100000010000000000000BRQUALACNOR6119
012024042602SMFT3       010SMART FIT   ON      NM   R$  000000000246600000000025300000000002460000000000249800000000025300000000002508000000000253107745000000000003016900000000007537976300000000000000009999123100000010000000000000BRSMFTACNOR1111
012024042602SMTO3       010SAO MARTINHOON      NM   R$  000000000276200000000028260000000002746000000000279700000000028130000000002809000000000281404810000000000002623900000000007339815100000000000000009999123100000010000000000000BRSMTOACNOR3125
012024042602B3SA3       010B3          ON      NM   R$  000000000109700000000011270000000001087000000000111200000000011220000000001122000000000112353916000000000060635700000000067484483100000000000000009999123100000010000000000000BRB3SAACNOR6132
012024042602FIQE3       010UNIFIQUE    ON      NM   R$  000000000037600000000003840000000000375000000000038000000000003830000000000379000000000038300366000000000000125000000000000047586000000000000000009999123100000010000000000000BRFIQEACNOR5106
012024042602FLRY3       010FLEURY      ON      NM   R$  000000000147500000000014890000000001455000000000146400000000014610000000001459000000000146206706000000000002942400000000004308970300000000000000009999123100000010000000000000BRFLRYACNOR5138
012024042602FRAS3       010FRAS-LE     ON  ED  N1   R$  000000000175100000000018050000000001751000000000178700000000017960000000001796000000000180500619000000000000113800000000000203454400000000000000009999123100000010000000000000BRFRASACNOR0159
012024042602BEES3       010BANESTES    ON           R$  000000000087600000000008760000000000870000000000087300000000008740000000000870000000000087400071000000000000013200000000000011527100000000000000009999123100000010000000000000BRBEESACNOR9389
012024042602BEES4       010BANESTES    PN           R$  000000000096700000000009670000000000952000000000095800000000009530000000000952000000000095800014000000000000003600000000000003449100000000000000009999123100000010000000000000BRBEESACNPR6314
012024042602BGIP3       010BANESE      ON           R$  000000000243400000000024340000000002434000000000243400000000024340000000000000000000000249000001000000000000000100000000000000243400000000000000009999123100000010000000000000BRBGIPACNOR1208
012024042602BHIA3       010CASAS BAHIA ON      NM   R$  000000000055700000000005660000000000542000000000054900000000005440000000000543000000000054506019000000000006009700000000003304244800000000000000009999123100000010000000000000BRBHIAACNOR1101
012024042602BRBI11      010BR PARTNERS UNT     N2   R$  000000000143800000000015000000000001438000000000148200000000015000000000001475000000000150101147000000000000189000000000000280172500000000000000009999123100000010000000000000BRBRBICDAM10108
012024042602BRFS3       010BRF SA      ON      NM   R$  000000000173900000000017780000000001735000000000175500000000017450000000001743000000000174612664000000000004855100000000008521524400000000000000009999123100000010000000000000BRBRFSACNOR8121
012024042602CSNA3       010SID NACIONALON           R$  000000000142100000000014330000000001408000000000141700000000014120000000001411000000000141409433000000000005534000000000007845867900000000000000009999123100000010000000000000BRCSNAACNOR6260
012024042602CSRN3       010COSERN      ON           R$  000000000235000000000024510000000002350000000000240000000000024510000000002350000000000245200002000000000000000200000000000000480100000000000000009999123100000010000000000000BRCSRNACNOR0192
012024042602CSUD3       010CSU DIGITAL ON      NM   R$  000000000177100000000018550000000001770000000000182100000000018490000000001834000000000184900284000000000000071100000000000129522000000000000000009999123100000010000000000000BRCSUDACNOR5108
012024042602SEQL3       010SEQUOIA LOG ON      NM   R$  000000000004300000000000440000000000041000000000004200000000000410000000000041000000000004200742000000000005621600000000000239341700000000000000009999123100000010000000000000BRSEQLACNOR2102
012024042602SGPS3       010SPRINGS     ON      NM   R$  000000000007800000000000810000000000077000000000007900000000000790000000000078000000000007900598000000000000301900000000000023931900000000000000009999123100000010000000000000BRSGPSACNOR4104
012024042602SHOW3       010TIME FOR FUNON      NM   R$  000000000025300000000002640000000000251000000000025500000000002550000000000255000000000025900490000000000000151900000000000038874600000000000000009999123100000010000000000000BRSHOWACNOR7105
012024042602SHUL4       010SCHULZ      PN           R$  000000000059700000000006280000000000597000000000062000000000006260000000000620000000000062601352000000000000629000000000000390065700000000000000009999123100000010000000000000BRSHULACNPR4155
012024042602SIMH3       010SIMPAR      ON      NM   R$  000000000057500000000006060000000000575000000000059600000000005960000000000595000000000059713068000000000008998900000000005363452600000000000000009999123100000010000000000000BRSIMHACNOR0107
012024042602SLCE3       010SLC AGRICOLAON      NM   R$  000000000189500000000018980000000001865000000000187600000000018730000000001872000000000187806645000000000003133300000000005879506900000000000000009999123100000010000000000000BRSLCEACNOR2124
012024042602WHRL3       010WHIRLPOOL   ON           R$  000000000045700000000004770000000000456000000000046900000000004770000000000466000000000047500008000000000000001000000000000000469800000000000000009999123100000010000000000000BRWHRLACNOR5128
012024042602WHRL4       010WHIRLPOOL   PN           R$  000000000046500000000004650000000000465000000000046500000000004650000000000465000000000046600003000000000000000600000000000000279000000000000000009999123100000010000000000000BRWHRLACNPR2128
012024042602WIZC3       010WIZ CO      ON      NM   R$  000000000073500000000007510000000000733000000000074300000000007420000000000738000000000074201286000000000000295800000000000219847400000000000000009999123100000010000000000000BRWIZCACNOR5101
012024042602WLMM4       010WLM IND COM PN           R$  000000000320000000000033000000000003200000000000327200000000033000000000003240000000000335000012000000000000001500000000000004908800000000000000009999123100000010000000000000BRWLMMACNPR3117
012024042602RECV3       010PETRORECSA  ON  ED  NM   R$  000000000220500000000022700000000002194000000000224100000000022600000000002254000000000226108549000000000002994700000000006712621100000000000000009999123100000010000000000000BRRECVACNOR3106
012024042602RCSL3       010RECRUSUL    ON           R$  000000000015700000000001610000000000155000000000015700000000001570000000000157000000000015801369000000000001129900000000000178450400000000000000009999123100000010000000000000BRRCSLACNOR4133
012024042602RCSL4       010RECRUSUL    PN           R$  000000000005100000000000510000000000049000000000005000000000000510000000000050000000000005100228000000000000478900000000000024025600000000000000009999123100000010000000000000BRRCSLACNPR1133
012024042602RDNI3       010RNI         ON      NM   R$  000000000035600000000003590000000000351000000000035500000000003590000000000354000000000035900016000000000000014100000000000005017900000000000000009999123100000010000000000000BRRDNIACNOR9116
012024042602RDOR3       010REDE D OR   ON      NM   R$  000000000250900000000026160000000002508000000000258400000000025850000000002583000000000258713881000000000006358900000000016434344800000000000000009999123100000010000000000000BRRDORACNOR8112
012024042602SYNE3       010SYN PROP TECON      NM   R$  000000000085700000000008900000000000857000000000087800000000008800000000000876000000000088300779000000000000277000000000000243460100000000000000009999123100000010000000000000BRSYNEACNOR2102
012024042602CTKA4       010KARSTEN     PN           R$  000000000190000000000019000000000001900000000000190000000000019000000000001800000000000193000001000000000000000100000000000000190000000000000000009999123100000010000000000000BRCTKAACNPR7043
012024042602CTNM4       010COTEMINAS   PN           R$  000000000010600000000001080000000000105000000000010600000000001060000000000104000000000010700053000000000000050000000000000005307700000000000000009999123100000010000000000000BRCTNMACNPR6129
012024042602CTSA3       010SANTANENSE  ON           R$  000000000026200000000002630000000000250000000000025200000000002590000000000250000000000026100013000000000000002400000000000000606600000000000000009999123100000010000000000000BRCTSAACNOR3062
012024042602CTSA4       010SANTANENSE  PN           R$  000000000012400000000001270000000000123000000000012400000000001250000000000124000000000012700030000000000000021500000000000002667300000000000000009999123100000010000000000000BRCTSAACNPR0062
012024042602CURY3       010CURY S/A    ON      NM   R$  000000000191200000000019950000000001912000000000197700000000019940000000001987000000000199506502000000000001310300000000002591706400000000000000009999123100000010000000000000BRCURYACNOR3107
012024042602CVCB3       010CVC BRASIL  ON      NM   R$  000000000020500000000002140000000000204000000000020700000000002100000000000209000000000021008875000000000011362300000000002360891900000000000000009999123100000010000000000000BRCVCBACNOR1115
012024042607NUTR3       010NUTRIPLANT  ON      MA   R$  000000000050800000000005200000000000480000000000049900000000005070000000000482000000000050700096000000000000026000000000000012996500000000000000009999123100000010000000000000BRNUTRACNOR0104
012024042607TXRX4       010TEX RENAUX  PN           R$  000000000024300000000002430000000000243000000000024300000000002430000000000230000000000024000001000000000000000100000000000000024300000000000000009999123100000010000000000000BRTXRXACNPR0142
012024042608NEXP3       010NEXPE       ON      NM   R$  000000000042500000000004270000000000422000000000042500000000004260000000000422000000000042700006000000000000000900000000000000383300000000000000009999123100000010000000000000BRNEXPACNOR0101
012024042608RNEW11      010RENOVA      UNT     N2   R$  000000000030800000000003120000000000308000000000031100000000003120000000000310000000000031300004000000000000000400000000000000124400000000000000009999123100000010000000000000BRRNEWCDAM15110
012024042608RNEW3       010RENOVA      ON      N2   R$  000000000010300000000001050000000000103000000000010300000000001050000000000103000000000010500027000000000000015700000000000001631300000000000000009999123100000010000000000000BRRNEWACNOR8110
012024042608RNEW4       010RENOVA      PN      N2   R$  000000000010400000000001050000000000102000000000010300000000001040000000000104000000000010500074000000000000065900000000000006840700000000000000009999123100000010000000000000BRRNEWACNPR5110
012024042608RPMG3       010PET MANGUINHON           R$  000000000020400000000002040000000000200000000000020100000000002020000000000202000000000020400005000000000000001400000000000000281400000000000000009999123100000010000000000000BRRPMGACNOR9194
012024042608LIGT3       010LIGHT S/A   ON      NM   R$  000000000050500000000005110000000000501000000000050500000000005010000000000501000000000050201049000000000000233500000000000118063300000000000000009999123100000010000000000000BRLIGTACNOR2124
012024042608OIBR3       010OI          ON      N1   R$  000000000006700000000000680000000000066000000000006700000000000680000000000067000000000006804147000000000003090000000000000207714700000000000000009999123100000010000000000000BROIBRACNOR1110
012024042608OIBR4       010OI          PN      N1   R$  000000000017900000000001830000000000179000000000018000000000001800000000000180000000000018200028000000000000017700000000000003200300000000000000009999123100000010000000000000BROIBRACNPR8109
012024042608OSXB3       010OSX BRASIL  ON      NM   R$  000000000041800000000004180000000000399000000000040300000000004050000000000400000000000040500010000000000000001900000000000000765800000000000000009999123100000010000000000000BROSXBACNOR8109
012024042608HOOT4       010HOTEIS OTHONPN           R$  000000000028000000000002800000000000279000000000027900000000002800000000000280000000000028500004000000000000005600000000000001566500000000000000009999123100000010000000000000BRHOOTACNPR9015
012024042608ATMP3       010ATMASA      ON           R$  000000000019400000000002030000000000193000000000019900000000002030000000000194000000000019900037000000000000011800000000000002352300000000000000009999123100000010000000000000BRATMPACNOR8100
012024042608RSID3       010ROSSI RESID ON      NM   R$  000000000053500000000005350000000000513000000000052600000000005260000000000520000000000052600119000000000000027300000000000014363900000000000000009999123100000010000000000000BRRSIDACNOR8120
012024042608PMAM3       010PARANAPANEMAON      NM   R$  000000000027500000000002790000000000261000000000026800000000002720000000000272000000000027700144000000000000061200000000000016438400000000000000009999123100000010000000000000BRPMAMACNOR3038
012024042608BDLL3       010BARDELLA    ON           R$  000000000130100000000013010000000001301000000000130100000000013010000000001201000000000130100001000000000000000100000000000000130100000000000000009999123100000010000000000000BRBDLLACNOR1149
012024042608BDLL4       010BARDELLA    PN           R$  000000000105100000000010510000000001051000000000105100000000010510000000001005000000000105100004000000000000000800000000000000840800000000000000009999123100000010000000000000BRBDLLACNPR8151
012024042608ETER3       010ETERNIT     ON      NM   R$  000000000072300000000007310000000000717000000000072400000000007270000000000723000000000072700545000000000000148600000000000107661100000000000000009999123100000010000000000000BRETERACNOR3243
012024042608AMER3       010AMERICANAS  ON      NM   R$  000000000005600000000000590000000000056000000000005700000000000560000000000056000000000005702506000000000023082600000000001317057000000000000000009999123100000010000000000000BRAMERACNOR6101
012024042608JFEN3       010JOAO FORTES ON  ES       R$  000000000015000000000001580000000000149000000000015200000000001530000000000150000000000015300090000000000000020100000000000003057300000000000000009999123100000010000000000000BRJFENACNOR0059
012024042610CGRA2       010GRAZZIOTIN  DIR PRE      R$  000000000003100000000000330000000000031000000000003200000000000330000000000033000000000004500012000000000000002600000000000000085400000000000000009999123100000010000000000000BRCGRAD05PR5081
012024042610ABCB10      010ABC BRASIL  PN  REC N2   R$  000000000226800000000022680000000002213000000000223800000000022130000000002185000000000000000009000000000000001100000000000002461800000000000000009999123100000010000000000000BRABCBR19PR1144
012024042610SEQL11      010SEQUOIA LOG DIR     NM   R$  000000000000100000000000010000000000001000000000000100000000000010000000000000000000000000100043000000000000827300000000000000827300000000000000009999123100000010000000000000BRSEQLD01M19101
012024042610SEQL12      010SEQUOIA LOG DIR     NM   R$  000000000000100000000000010000000000001000000000000100000000000010000000000000000000000000100037000000000000817800000000000000817800000000000000009999123100000010000000000000BRSEQLD02M18101
012024042610JFEN1       010JOAO FORTES DIR ORD      R$  000000000000100000000000010000000000001000000000000100000000000010000000000000000000000000100018000000000000025000000000000000025000000000000000009999123100000010000000000000BRJFEND10OR6058
012024042612BIME11      010FII BRIO ME CI           R$  000000000073000000000007300000000000722000000000072700000000007300000000000728000000000073000145000000000000013791000000000010039640000000000000009999123100000010000000000000BRBIMECTF006130
012024042612BRIM11      010FII BRIO II CI           R$  000000012522300000001252230000000125223000000012522300000001252230000000100100000000012522300001000000000000000001000000000000125223000000000000009999123100000010000000000000BRBRIMCTF008126
012024042612BTCI11      010FII BTG CRI CI           R$  000000000101200000000010260000000001009000000000101700000000010180000000001017000000000101813160000000000000151866000000000154541570000000000000009999123100000010000000000000BRBTCICTF005118
012024042612BTHI11      010BTG HOTEL FICI           R$  000000000435600000000043890000000004200000000000431100000000042720000000004229000000000435400033000000000000000237000000000001021910000000000000009999123100000010000000000000BRBTHICTF004107
012024042612VCRR11      010FII VECT RENCI           R$  000000000687500000000070780000000006874000000000690900000000070740000000006905000000000707400300000000000000003997000000000027617873000000000000009999123100000010000000000000BRVCRRCTF008134
012024042612VGHF11      010FII VALOR HECI           R$  000000000087600000000009060000000000876000000000089500000000009060000000000905000000000090615074000000000000591504000000000529791825000000000000009999123100000010000000000000BRVGHFCTF005142
012024042612VGIP11      010FII VALORAIPCI           R$  000000000912800000000091500000000009070000000000911500000000091080000000009108000000000911904411000000000000018815000000000171501652000000000000009999123100000010000000000000BRVGIPCTF002154
012024042612VGIR11      010FII VALREIIICI           R$  000000000096600000000009730000000000962000000000096500000000009710000000000970000000000097132387000000000000482287000000000465613273000000000000009999123100000010000000000000BRVGIRCTF008173
012024042612VGRI11      010FII VGRI    CI           R$  000000000097000000000009890000000000953000000000097500000000009650000000000965000000000097706801000000000000052777000000000051470447000000000000009999123100000010000000000000BRVGRICTF008101
012024042612VIFI11      010FII VINCI IFCI           R$  000000000082000000000008240000000000814000000000081600000000008160000000000816000000000082300124000000000000030970000000000025281243000000000000009999123100000010000000000000BRVIFICTF009154
012024042612BTLG11      010FII BTLG    CI           R$  000000001009000000000101490000000010090000000001012000000000101000000000010100000000001012516667000000000000098329000000000995108327000000000000009999123100000010000000000000BRBTLGCTF000161
012024042612BTRA11      010FII BTG TAGRCI  ER       R$  000000000532800000000056000000000005202000000000537600000000054630000000005431000000000546300558000000000000015790000000000084892703000000000000009999123100000010000000000000BRBTRACTF000135
012024042612BTWR11      010FII BTOWERS CI           R$  000000001130000000000120000000000011300000000001144000000000120000000000011400000000000000000004000000000000000005000000000000057200000000000000009999123100000010000000000000BRBTWRCTF004134
012024042612CACR11      010CARTESIA FIICI           R$  000000001057000000000105810000000010510000000001054000000000105580000000010551000000001055802157000000000000012767000000000134570121000000000000009999123100000010000000000000BRCACRCTF004130
012024042612CARE11      010FII DEA CARECI           R$  000000000019500000000001970000000000189000000000019200000000001920000000000192000000000019300094000000000000002016000000000000388941000000000000009999123100000010000000000000BRCARECTF000112
012024042612CBOP11      010FII C BRANCOCI           R$  000000000286100000000028620000000002860000000000286100000000028610000000002861000000000294100006000000000000000040000000000000114446000000000000009999123100000010000000000000BRCBOPCTF001228
012024042612CCME11      010FII CANUMA  CI           R$  000000000113500000000011360000000001128000000000113500000000011360000000001128000000000115400018000000000000000278000000000000315551000000000000009999123100000010000000000000BRCCMECTF007120
012024042612DAMA11      010FII DAMA    CI           R$  000000000101200000000010630000000001005000000000100600000000010070000000001007000000000101505253000000000000071439000000000071892610000000000000009999123100000010000000000000BRDAMACTF007100
012024042612DAMT11B     010FII DIAMANTECI      MB   R$  000000000102900000000010290000000001027000000000102700000000010270000000001027000000000112500060000000000000000060000000000000061643000000000000009999123100000010000000000000BRDAMTCTF007116
012024042612DEVA11      010FII DEVANT  CI           R$  000000000463500000000047000000000004625000000000466800000000047000000000004676000000000470001888000000000000037580000000000175434147000000000000009999123100000010000000000000BRDEVACTF000147
012024042612DPRO11      010FII DEVA PROCI           R$  000000000066900000000006780000000000668000000000067000000000006700000000000700000000000073600016000000000000000199000000000000133493000000000000009999123100000010000000000000BRDPROCTF005122
012024042612DRIT11      010FII MTGESTAOCI           R$  000000000780200000000078310000000007802000000000782700000000078310000000007802000000000870000003000000000000000008000000000000062619000000000000009999123100000010000000000000BRDRITCTF009251
012024042612VCJR11      010FII VECTIS  CI           R$  000000000914000000000091500000000008729000000000896300000000090550000000009020000000000906221941000000000000167839000000001504459727000000000000009999123100000010000000000000BRVCJRCTF005153
012024042612VCRI11      010FII VINCI CRCI           R$  000000000085000000000008560000000000843000000000084800000000008560000000000850000000000085601605000000000000024528000000000020808760000000000000009999123100000010000000000000BRVCRICTF007123
012024042612RBED11      010FII RIOB ED CI           R$  000000001397300000000141970000000013973000000001409500000000141220000000014109000000001412100222000000000000001178000000000016604408000000000000009999123100000010000000000000BRRBEDCTF006162
012024042612RBFF11      010FII RIOB FF CI           R$  000000000629900000000063180000000006248000000000625700000000062650000000006264000000000626500494000000000000005137000000000032143465000000000000009999123100000010000000000000BRRBFFCTF008158
012024042612RBHG11      010FII RBCRI IVCI           R$  000000000901800000000090660000000009001000000000903900000000090380000000009037000000000904901498000000000000002324000000000021007540000000000000009999123100000010000000000000BRRBHGCTF002132
012024042612RBHY11      010FII RB YIELDCI           R$  000000000892200000000089770000000008922000000000895900000000089650000000008953000000000896500059000000000000000544000000000004873787000000000000009999123100000010000000000000BRRBHYCTF005142
012024042612RBIR11      010FII RBRES IVCI           R$  000000000901400000000090140000000009014000000000901400000000090140000000008938000000000901000001000000000000000001000000000000009014000000000000009999123100000010000000000000BRRBIRCTF007111
012024042612RBOP11      010FII MERC BR CI           R$  000000003950000000000395000000000038021000000003859500000000384130000000038104000000003930000019000000000000000035000000000001350847000000000000009999123100000010000000000000BRRBOPCTF009119
012024042612RBRD11      010FII RB II   CI           R$  000000000394000000000039470000000003932000000000393900000000039450000000003932000000000394500016000000000000000075000000000000295488000000000000009999123100000010000000000000BRRBRDCTF008261
012024042612RBRF11      010FII RBRALPHACI           R$  000000000077900000000007940000000000775000000000078700000000007890000000000785000000000079021932000000000000718853000000000565761643000000000000009999123100000010000000000000BRRBRFCTF003185
012024042612RBRL11      010FII RBR LOG CI           R$  000000000817500000000083700000000008142000000000824600000000083400000000008322000000000833905345000000000000014862000000000122554941000000000000009999123100000010000000000000BRRBRLCTF001152
012024042612RBRP11      010FII RBR PROPCI           R$  000000000597000000000060900000000005945000000000603500000000060000000000006000000000000603306350000000000000024801000000000149692671000000000000009999123100000010000000000000BRRBRPCTF002171
012024042612RBRR11      010FII RBRHGRADCI           R$  000000000931400000000093770000000009280000000000931100000000092880000000009288000000000930914246000000000000031863000000000296696234000000000000009999123100000010000000000000BRRBRRCTF008178
012024042612RBRS11      010FII RIOB RR CI           R$  000000000472300000000047990000000004706000000000475200000000047990000000004750000000000480000008000000000000000089000000000000423015000000000000009999123100000010000000000000BRRBRSCTF006138
