00COTAHIST.2024BOVESPA 20240805                                                                                                                                                                                                                      
012024080502BMOB3       010BEMOBI TECH ON      NM   R$  000000000142000000000014400000000001394000000000142200000000014260000000001420000000000142601090000000000000177800000000000252889900000000000000009999123100000010000000000000BRBMOBACNOR7103
012024080502BNBR3       010NORD BRASIL ON           R$  000000000958000000000099000000000009580000000000971000000000099000000000009475000000001138900003000000000000000300000000000002913000000000000000009999123100000010000000000000BRBNBRACNOR8208
012024080502BOBR4       010BOMBRIL     PN           R$  000000000020100000000002010000000000193000000000019500000000001940000000000194000000000019500044000000000000039000000000000007606000000000000000009999123100000010000000000000BRBOBRACNPR3128
012024080502BRIT3       010BRISANET    ON      NM   R$  000000000038000000000003890000000000363000000000037800000000003780000000000377000000000037801523000000000001069200000000000405148300000000000000009999123100000010000000000000BRBRITACNOR0103
012024080502BRKM3       010BRASKEM     ON      N1   R$  000000000169400000000016940000000001600000000000164200000000016630000000001662000000000169500106000000000000020500000000000033671200000000000000009999123100000010000000000000BRBRKMACNOR1119
012024080502BRKM5       010BRASKEM     PNA     N1   R$  000000000159400000000016180000000001533000000000158300000000016110000000001611000000000161215056000000000005961700000000009441253600000000000000009999123100000010000000000000BRBRKMACNPA4121
012024080502CSED3       010CRUZEIRO EDUON      NM   R$  000000000037500000000004090000000000368000000000039100000000004090000000000408000000000040901092000000000000542600000000000212435500000000000000009999123100000010000000000000BRCSEDACNOR9104
012024080502CSMG3       010COPASA      ON      NM   R$  000000000205900000000021120000000002046000000000207800000000020990000000002096000000000210005836000000000002349100000000004882475300000000000000009999123100000010000000000000BRCSMGACNOR5174
012024080502CSNA3       010SID NACIONALON           R$  000000000110000000000011450000000001090000000000112200000000011350000000001134000000000113614694000000000006382000000000007162848500000000000000009999123100000010000000000000BRCSNAACNOR6261
012024080502ENEV3       010ENEVA       ON      NM   R$  000000000123500000000012510000000001221000000000124000000000012410000000001240000000000124817192000000000005054900000000006271842200000000000000009999123100000010000000000000BRENEVACNOR8106
012024080502ENGI11      010ENERGISA    UNT     N2   R$  000000000441000000000044930000000004404000000000443500000000044040000000004402000000000442810764000000000002519500000000011175856500000000000000009999123100000010000000000000BRENGICDAM16135
012024080502ENGI3       010ENERGISA    ON      N2   R$  000000000138300000000013870000000001341000000000135900000000013500000000001349000000000138000060000000000000007600000000000010335800000000000000009999123100000010000000000000BRENGIACNOR0145
012024080502ENGI4       010ENERGISA    PN      N2   R$  000000000079900000000007990000000000768000000000077200000000007680000000000765000000000077400082000000000000016000000000000012353700000000000000009999123100000010000000000000BRENGIACNPR7141
012024080502ENJU3       010ENJOEI      ON      NM   R$  000000000018000000000001910000000000178000000000018800000000001860000000000186000000000018702547000000000001112300000000000209422100000000000000009999123100000010000000000000BRENJUACNOR9100
012024080502EPAR3       010EMBPAR S/A  ON           R$  000000000058700000000006000000000000583000000000058800000000005900000000000586000000000059400034000000000000011800000000000006945800000000000000009999123100000010000000000000BREPARACNOR9105
012024080502EQMA3B      010EQTLMARANHAOON      MB   R$  000000000256400000000025640000000002501000000000253700000000025470000000002499000000000254900003000000000000000300000000000000761200000000000000009999123100000010000000000000BREQMAACNOR8108
012024080502EQPA3       010EQTL PARA   ON           R$  000000000071500000000007160000000000700000000000070900000000007070000000000706000000000070700028000000000000009100000000000006453900000000000000009999123100000010000000000000BREQPAACNOR1111
012024080502EQTL3       010EQUATORIAL  ON      NM   R$  000000000325900000000032880000000003230000000000326300000000032620000000003260000000000327118288000000000008611300000000028103816100000000000000009999123100000010000000000000BREQTLACNOR0130
012024080502KLBN3       010KLABIN S/A  ON      N2   R$  000000000043500000000004360000000000428000000000043000000000004310000000000431000000000043201031000000000000481700000000000207523600000000000000009999123100000010000000000000BRKLBNACNOR2170
012024080502KLBN4       010KLABIN S/A  PN      N2   R$  000000000043000000000004330000000000421000000000042600000000004300000000000429000000000043003292000000000001673600000000000714619400000000000000009999123100000010000000000000BRKLBNACNPR9170
012024080502ALUP3       010ALUPAR      ON      N2   R$  000000000106600000000010870000000001029000000000104900000000010870000000001048000000000108700126000000000000023000000000000024137500000000000000009999123100000010000000000000BRALUPACNOR8119
012024080502ALUP4       010ALUPAR      PN      N2   R$  000000000100000000000010190000000001000000000000100700000000010050000000001002000000000100600106000000000000020800000000000020953600000000000000009999123100000010000000000000BRALUPACNPR5119
012024080502AMAR3       010LOJAS MARISAON      NM   R$  000000000014100000000001420000000000136000000000013900000000001410000000000140000000000014100639000000000000302600000000000042251300000000000000009999123100000010000000000000BRAMARACNOR4115
012024080502AMBP3       010AMBIPAR     ON      NM   R$  000000000658000000000072370000000005959000000000653400000000067300000000006700000000000673020175000000000007340100000000047966147700000000000000009999123100000010000000000000BRAMBPACNOR6103
012024080502BBDC3       010BRADESCO    ON  EJ  N1   R$  000000000113100000000012360000000001131000000000120500000000012270000000001227000000000122937141000000000028304800000000034110232200000000000000009999123100000010000000000000BRBBDCACNOR1773
012024080502BBDC4       010BRADESCO    PN  EJ  N1   R$  000000000128500000000013760000000001265000000000133500000000013610000000001360000000000136251809000000000133145300000000177764709800000000000000009999123100000010000000000000BRBBDCACNPR8773
012024080502BIOM3       010BIOMM       ON      MA   R$  000000000089000000000009640000000000851000000000091200000000009220000000000913000000000092200353000000000000079400000000000072416800000000000000009999123100000010000000000000BRBIOMACNOR2112
012024080502ALLD3       010ALLIED      ON      NM   R$  000000000079700000000008110000000000771000000000079000000000008100000000000804000000000081100317000000000000070300000000000055605800000000000000009999123100000010000000000000BRALLDACNOR3106
012024080502ALOS3       010ALLOS       ON      NM   R$  000000000215000000000021890000000002141000000000217000000000021780000000002175000000000217811719000000000002392700000000005193628900000000000000009999123100000010000000000000BRALOSACNOR5101
012024080502BHIA3       010CASAS BAHIA ON      NM   R$  000000000039900000000004490000000000395000000000041800000000004490000000000446000000000044905479000000000008818700000000003688857400000000000000009999123100000010000000000000BRBHIAACNOR1102
012024080502HYPE3       010HYPERA      ON  EJ  NM   R$  000000000279600000000029140000000002760000000000286700000000029050000000002905000000000291014676000000000005063800000000014522092800000000000000009999123100000010000000000000BRHYPEACNOR0143
012024080502JALL3       010JALLESMACHADON  ED  NM   R$  000000000065000000000006660000000000642000000000065500000000006660000000000663000000000066601888000000000000601600000000000394508500000000000000009999123100000010000000000000BRJALLACNOR0106
012024080502JBSS3       010JBS         ON      NM   R$  000000000326100000000033230000000003211000000000327800000000032950000000003293000000000329616226000000000007152800000000023449083500000000000000009999123100000010000000000000BRJBSSACNOR8121
012024080502MILS3       010MILLS       ON      NM   R$  000000000108500000000010890000000001067000000000107700000000010700000000001070000000000107502907000000000000887200000000000955828200000000000000009999123100000010000000000000BRMILSACNOR2127
012024080502MLAS3       010MULTILASER  ON      NM   R$  000000000018900000000001940000000000182000000000018800000000001940000000000193000000000019402213000000000003339500000000000630082000000000000000009999123100000010000000000000BRMLASACNOR9101
012024080502MNPR3       010MINUPAR     ON           R$  000000000130000000000013700000000001300000000000131800000000013080000000001308000000000133800041000000000000010900000000000014374400000000000000009999123100000010000000000000BRMNPRACNOR5122
012024080502KRSA3       010KORA SAUDE  ON      NM   R$  000000000007600000000000770000000000071000000000007400000000000750000000000075000000000007600225000000000000317500000000000023659300000000000000009999123100000010000000000000BRKRSAACNOR0100
012024080502BEEF3       010MINERVA     ON      NM   R$  000000000062500000000006650000000000620000000000065600000000006620000000000661000000000066210506000000000008261900000000005426601000000000000000009999123100000010000000000000BRBEEFACNOR6116
012024080502AERI3       010AERIS       ON      NM   R$  000000000051500000000005370000000000508000000000052000000000005330000000000528000000000053300441000000000000127600000000000066410900000000000000009999123100000010000000000000BRAERIACNOR4102
012024080502AESB3       010AES BRASIL  ON      NM   R$  000000000112000000000011230000000001105000000000111500000000011200000000001119000000000112004555000000000004737100000000005285203800000000000000009999123100000010000000000000BRAESBACNOR7106
012024080502AGRO3       010BRASILAGRO  ON      NM   R$  000000000253800000000025800000000002510000000000255200000000025800000000002572000000000258001685000000000000238500000000000608849500000000000000009999123100000010000000000000BRAGROACNOR7114
012024080502AGXY3       010AGROGALAXY  ON      NM   R$  000000000013500000000001410000000000132000000000013700000000001400000000000138000000000014000312000000000000212900000000000029229400000000000000009999123100000010000000000000BRAGXYACNOR4103
012024080502AHEB3       010SPTURIS     ON           R$  000000000280000000000028000000000002800000000000280000000000028000000000002500000000000400000003000000000000000300000000000000840000000000000000009999123100000010000000000000BRAHEBACNOR0106
012024080502BPAC11      010BTGP BANCO  UNT     N2   R$  000000000314500000000032030000000003090000000000316900000000031790000000003177000000000318026446000000000013679800000000043351767400000000000000009999123100000010000000000000BRBPACUNT006119
012024080502BPAC3       010BTGP BANCO  ON      N2   R$  000000000154700000000015470000000001480000000000151900000000015270000000001520000000000153400059000000000000007200000000000010941000000000000000009999123100000010000000000000BRBPACACNOR7134
012024080502BPAC5       010BTGP BANCO  PNA     N2   R$  000000000083400000000008340000000000808000000000081600000000008150000000000814000000000082300066000000000000010500000000000008569300000000000000009999123100000010000000000000BRBPACACNPA0134
012024080502CPFE3       010CPFL ENERGIAON      NM   R$  000000000330200000000033020000000003228000000000325400000000032280000000003228000000000322908119000000000001743200000000005672400300000000000000009999123100000010000000000000BRCPFEACNOR0137
012024080502CPLE3       010COPEL       ON      N2   R$  000000000087900000000009020000000000878000000000089100000000009000000000000900000000000090206152000000000009519100000000008484587600000000000000009999123100000010000000000000BRCPLEACNOR8149
012024080502CPLE5       010COPEL       PNA     N2   R$  000000000130000000000013000000000001300000000000130000000000013000000000001166000000000139600001000000000000000100000000000000130000000000000000009999123100000010000000000000BRCPLEACNPA1147
012024080502JHSF3       010JHSF PART   ON  ED  NM   R$  000000000039200000000004010000000000385000000000039600000000004000000000000400000000000040103199000000000003278300000000001300089700000000000000009999123100000010000000000000BRJHSFACNOR2138
012024080502JSLG3       010JSL         ON      NM   R$  000000000092600000000009440000000000909000000000092400000000009440000000000919000000000094400957000000000000228400000000000211189200000000000000009999123100000010000000000000BRJSLGACNOR2121
012024080502KEPL3       010KEPLER WEBERON      NM   R$  000000000105900000000010670000000001030000000000105300000000010570000000001057000000000106104281000000000001113100000000001172912400000000000000009999123100000010000000000000BRKEPLACNOR1063
012024080502KLBN11      010KLABIN S/A  UNT     N2   R$  000000000214900000000021490000000002113000000000213700000000021430000000002142000000000214710799000000000004336300000000009270405800000000000000009999123100000010000000000000BRKLBNCDAM18142
012024080502AALR3       010ALLIAR      ON      NM   R$  000000000099800000000010200000000000988000000000100300000000010200000000001020000000000102600072000000000000014100000000000014147800000000000000009999123100000010000000000000BRAALRACNOR6102
012024080502ABCB4       010ABC BRASIL  PN      N2   R$  000000000222200000000022320000000002191000000000221800000000022170000000002217000000000223104161000000000000804300000000001784040100000000000000009999123100000010000000000000BRABCBACNPR4146
012024080502ABEV3       010AMBEV S/A   ON           R$  000000000118300000000011910000000001158000000000118000000000011850000000001185000000000118726302000000000028528000000000033684982300000000000000009999123100000010000000000000BRABEVACNOR1128
012024080502BEES3       010BANESTES    ON  EJ       R$  000000000089200000000008960000000000882000000000088500000000008830000000000882000000000088300122000000000000032100000000000028418400000000000000009999123100000010000000000000BRBEESACNOR9394
012024080502BEES4       010BANESTES    PN  EJ       R$  000000000096200000000009780000000000934000000000095400000000009540000000000953000000000095700018000000000000002900000000000002768500000000000000009999123100000010000000000000BRBEESACNPR6319
012024080502BGIP4       010BANESE      PN           R$  000000000223500000000022350000000002235000000000223500000000022350000000002211000000000228000003000000000000000900000000000002011500000000000000009999123100000010000000000000BRBGIPACNPR8208
012024080502ESPA3       010ESPACOLASER ON      NM   R$  000000000009800000000000980000000000090000000000009300000000000960000000000095000000000009600385000000000001432600000000000134495700000000000000009999123100000010000000000000BRESPAACNOR7103
012024080502ESTR4       010ESTRELA     PN           R$  000000000021100000000002200000000000204000000000020900000000002190000000000204000000000022000008000000000000002000000000000000418700000000000000009999123100000010000000000000BRESTRACNPR0144
012024080502EUCA3       010EUCATEX     ON      N1   R$  000000000162000000000016200000000001620000000000162000000000016200000000001540000000000173000002000000000000000200000000000000324000000000000000009999123100000010000000000000BREUCAACNOR1157
012024080502EUCA4       010EUCATEX     PN      N1   R$  000000000145100000000014790000000001438000000000145800000000014700000000001469000000000147200262000000000000044400000000000064745600000000000000009999123100000010000000000000BREUCAACNPR8044
012024080502EVEN3       010EVEN        ON      NM   R$  000000000060900000000006250000000000591000000000061100000000006140000000000614000000000061803567000000000000659200000000000403350100000000000000009999123100000010000000000000BREVENACNOR8119
012024080502AZUL4       010AZUL        PN      N2   R$  000000000075100000000007740000000000733000000000075400000000007730000000000773000000000077416651000000000020585000000000015530062100000000000000009999123100000010000000000000BRAZULACNPR4102
012024080502CBAV3       010CBA         ON      NM   R$  000000000047300000000005020000000000467000000000048600000000004970000000000497000000000049804036000000000002348700000000001142409600000000000000009999123100000010000000000000BRCBAVACNOR5104
012024080502CCRO3       010CCR SA      ON      NM   R$  000000000126100000000012750000000001229000000000125900000000012640000000001264000000000126613229000000000006479400000000008159723700000000000000009999123100000010000000000000BRCCROACNOR2145
012024080502CEAB3       010CEA MODAS   ON      NM   R$  000000000084200000000008790000000000823000000000085100000000008710000000000871000000000087605302000000000002386300000000002032115500000000000000009999123100000010000000000000BRCEABACNOR1102
012024080502CEBR3       010CEB         ON           R$  000000000188700000000019000000000001850000000000188900000000018970000000001898000000000191400013000000000000002800000000000005290000000000000000009999123100000010000000000000BRCEBRACNOR5125
012024080502CEBR5       010CEB         PNA          R$  000000000169000000000016900000000001631000000000165700000000016470000000001647000000000175000023000000000000002800000000000004639800000000000000009999123100000010000000000000BRCEBRACNPA8124
012024080502CEBR6       010CEB         PNB          R$  000000000170000000000017570000000001665000000000170600000000017290000000001729000000000174500079000000000000023200000000000039583000000000000000009999123100000010000000000000BRCEBRACNPB6124
012024080502CEDO3       010CEDRO       ON      N1   R$  000000000270000000000027000000000002700000000000270000000000027000000000002200000000000280000002000000000000000700000000000001890000000000000000009999123100000010000000000000BRCEDOACNOR8096
012024080502CEDO4       010CEDRO       PN      N1   R$  000000000220100000000022010000000002150000000000219100000000021590000000001700000000000224000006000000000000001000000000000002191700000000000000009999123100000010000000000000BRCEDOACNPR5128
012024080502CEEB3       010COELBA      ON           R$  000000000399200000000039920000000003899000000000390800000000039040000000003903000000000398000007000000000000001200000000000004689600000000000000009999123100000010000000000000BRCEEBACNOR3199
012024080502CMIG4       010CEMIG       PN      N1   R$  000000000104400000000010780000000001036000000000106800000000010740000000001073000000000107420736000000000015126900000000016164822100000000000000009999123100000010000000000000BRCMIGACNPR3243
012024080502CXSE3       010CAIXA SEGURION  ED  NM   R$  000000000139200000000014070000000001374000000000139200000000014070000000001406000000000140710459000000000003078100000000004285432300000000000000009999123100000010000000000000BRCXSEACNOR7107
012024080502CYRE3       010CYRELA REALTON      NM   R$  000000000190600000000019770000000001874000000000192900000000019450000000001944000000000194514666000000000007243200000000013972135800000000000000009999123100000010000000000000BRCYREACNOR7140
012024080502FIQE3       010UNIFIQUE    ON      NM   R$  000000000033500000000003370000000000332000000000033400000000003350000000000334000000000033502028000000000000823000000000000274938700000000000000009999123100000010000000000000BRFIQEACNOR5107
012024080502FLRY3       010FLEURY      ON      NM   R$  000000000150200000000015280000000001497000000000151600000000015240000000001520000000000152510956000000000002305000000000003495593300000000000000009999123100000010000000000000BRFLRYACNOR5138
012024080502ITSA3       010ITAUSA      ON      N1   R$  000000000097500000000009870000000000965000000000097900000000009840000000000984000000000098700609000000000000162700000000000159402100000000000000009999123100000010000000000000BRITSAACNOR0441
012024080502LUPA3       010LUPATECH    ON      NM   R$  000000000016300000000001660000000000156000000000016200000000001630000000000163000000000016500310000000000000301100000000000048817500000000000000009999123100000010000000000000BRLUPAACNOR8112
012024080502LVTC3       010WDC NETWORKSON      NM   R$  000000000034100000000003480000000000339000000000034000000000003400000000000340000000000034300054000000000000017300000000000005898300000000000000009999123100000010000000000000BRLVTCACNOR4102
012024080502LWSA3       010LWSA        ON      NM   R$  000000000041800000000004400000000000415000000000042800000000004340000000000433000000000043508015000000000004220700000000001808291100000000000000009999123100000010000000000000BRLWSAACNOR8103
012024080502MATD3       010MATER DEI   ON      NM   R$  000000000046500000000004650000000000448000000000045200000000004510000000000450000000000045401140000000000000316400000000000143323300000000000000009999123100000010000000000000BRMATDACNOR4104
012024080502BRBI11      010BR PARTNERS UNT     N2   R$  000000000138700000000014060000000001360000000000139100000000013930000000001393000000000140401075000000000000197600000000000274989300000000000000009999123100000010000000000000BRBRBICDAM10109
012024080502BRFS3       010BRF SA      ON      NM   R$  000000000205000000000020810000000002025000000000205700000000020680000000002067000000000206814631000000000004630500000000009525522800000000000000009999123100000010000000000000BRBRFSACNOR8122
012024080502MBLY3       010MOBLY       ON      NM   R$  000000000027000000000002730000000000250000000000026300000000002680000000000267000000000026900629000000000000705600000000000185842800000000000000009999123100000010000000000000BRMBLYACNOR5100
012024080502ANIM3       010ANIMA       ON      NM   R$  000000000033800000000003470000000000326000000000033600000000003440000000000344000000000034505677000000000005245800000000001764450100000000000000009999123100000010000000000000BRANIMACNOR6108
012024080502APER3       010ALPER S.A.  ON           R$  000000000449900000000045000000000004499000000000449900000000044990000000004350000000000453000010000000000000001800000000000008098400000000000000009999123100000010000000000000BRAPERACNOR9106
012024080502ARML3       010ARMAC       ON      NM   R$  000000000084200000000008620000000000822000000000083700000000008530000000000853000000000085403891000000000001535000000000001286223900000000000000009999123100000010000000000000BRARMLACNOR1112
012024080502ASAI3       010ASSAI       ON      NM   R$  000000000099000000000010290000000000981000000000101400000000010210000000001020000000000102117192000000000010460200000000010608436200000000000000009999123100000010000000000000BRASAIACNOR0106
012024080502CRFB3       010CARREFOUR BRON      NM   R$  000000000092000000000009390000000000912000000000092800000000009330000000000933000000000093510840000000000004248200000000003946090500000000000000009999123100000010000000000000BRCRFBACNOR2116
012024080502CRPG5       010CRISTAL     PNA          R$  000000000288000000000029490000000002880000000000291200000000029490000000002900000000000295400013000000000000002500000000000007280900000000000000009999123100000010000000000000BRCRPGACNPA3119
012024080502CRPG6       010CRISTAL     PNB          R$  000000000293900000000029490000000002939000000000294200000000029490000000002901000000000294900003000000000000000400000000000001176800000000000000009999123100000010000000000000BRCRPGACNPB1119
012024080502CSAN3       010COSAN       ON      NM   R$  000000000126700000000012850000000001256000000000126900000000012800000000001280000000000128217996000000000009744100000000012368476800000000000000009999123100000010000000000000BRCSANACNOR6126
012024080502ELMD3       010ELETROMIDIA ON      NM   R$  000000000174000000000018360000000001705000000000177400000000018200000000001820000000000183200415000000000000081000000000000143705400000000000000009999123100000010000000000000BRELMDACNOR3101
012024080502EMAE4       010EMAE        PN           R$  000000000405600000000041280000000004030000000000410100000000040300000000004013000000000412900023000000000000003300000000000013534700000000000000009999123100000010000000000000BREMAEACNPR1125
012024080502EMBR3       010EMBRAER     ON      NM   R$  000000000378000000000039400000000003742000000000385400000000038730000000003873000000000388028943000000000009411400000000036273973400000000000000009999123100000010000000000000BREMBRACNOR4191
012024080502WLMM4       010WLM IND COM PN           R$  000000000308100000000031270000000003075000000000309100000000031090000000003030000000000312000008000000000000001000000000000003091500000000000000009999123100000010000000000000BRWLMMACNPR3118
012024080502YDUQ3       010YDUQS PART  ON      NM   R$  000000000103200000000010850000000001023000000000106300000000010740000000001074000000000107711895000000000003133500000000003333466200000000000000009999123100000010000000000000BRYDUQACNOR3105
012024080502PCAR3       010P.ACUCAR-CBDON      NM   R$  000000000025900000000003150000000000256000000000029000000000003070000000000306000000000030715175000000000032508900000000009452869100000000000000009999123100000010000000000000BRPCARACNOR3167
012024080502RANI3       010IRANI       ON      NM   R$  000000000081600000000008230000000000797000000000081000000000008040000000000804000000000080705251000000000001513500000000001227327600000000000000009999123100000010000000000000BRRANIACNOR5072
012024080502RAPT3       010RANDON PART ON      N1   R$  000000000087600000000008900000000000867000000000087300000000008770000000000876000000000089200081000000000000017200000000000015021700000000000000009999123100000010000000000000BRRAPTACNOR7163
012024080502RAPT4       010RANDON PART PN      N1   R$  000000000102800000000010520000000001018000000000103600000000010520000000001046000000000105206241000000000002521900000000002613304300000000000000009999123100000010000000000000BRRAPTACNPR4163
012024080502RCSL3       010RECRUSUL    ON           R$  000000000026500000000002790000000000250000000000027000000000002750000000000273000000000027500291000000000000145500000000000039299400000000000000009999123100000010000000000000BRRCSLACNOR4134
012024080502RCSL4       010RECRUSUL    PN           R$  000000000008500000000000870000000000077000000000008300000000000860000000000085000000000008600474000000000000555300000000000046475900000000000000009999123100000010000000000000BRRCSLACNPR1134
012024080502RDNI3       010RNI         ON      NM   R$  000000000031500000000003280000000000313000000000031700000000003210000000000314000000000032000023000000000000004800000000000001522900000000000000009999123100000010000000000000BRRDNIACNOR9116
012024080502RDOR3       010REDE D OR   ON      NM   R$  000000000278400000000028030000000002686000000000274900000000027360000000002736000000000274020022000000000005458900000000015007741800000000000000009999123100000010000000000000BRRDORACNOR8113
012024080502SUZB3       010SUZANO S.A. ON      NM   R$  000000000521400000000053160000000005171000000000526600000000053030000000005302000000000530524696000000000005982900000000031507939000000000000000009999123100000010000000000000BRSUZBACNOR0130
012024080502VALE3       010VALE        ON  EJ  NM   R$  000000000563100000000057390000000005590000000000568700000000057020000000005701000000000570251105000000000024635900000000140118659000000000000000009999123100000010000000000000BRVALEACNOR0211
012024080502ODPV3       010ODONTOPREV  ON      NM   R$  000000000114600000000011940000000001125000000000117800000000011900000000001189000000000119004566000000000001400200000000001649826800000000000000009999123100000010000000000000BRODPVACNOR4202
012024080502OFSA3       010OUROFINO S/AON      NM   R$  000000000190100000000019570000000001901000000000193900000000019570000000001957000000000214600014000000000000002300000000000004461700000000000000009999123100000010000000000000BROFSAACNOR7118
012024080502ONCO3       010ONCOCLINICASON      NM   R$  000000000062400000000006510000000000613000000000063000000000006170000000000615000000000061705444000000000003214700000000002025880400000000000000009999123100000010000000000000BRONCOACNOR6101
012024080502OPCT3       010OCEANPACT   ON      NM   R$  000000000062300000000006340000000000613000000000062400000000006280000000000628000000000063001462000000000000459300000000000286670000000000000000009999123100000010000000000000BROPCTACNOR0100
012024080502ORVR3       010ORIZON      ON      NM   R$  000000000415800000000041990000000004081000000000416800000000041570000000004156000000000418102358000000000000396000000000001650775000000000000000009999123100000010000000000000BRORVRACNOR0101
012024080502RAIL3       010RUMO S.A.   ON      NM   R$  000000000228400000000023010000000002252000000000227500000000022690000000002269000000000227026911000000000015126200000000034421557100000000000000009999123100000010000000000000BRRAILACNOR9105
012024080502RAIZ4       010RAIZEN      PN  ED  N2   R$  000000000028300000000002960000000000282000000000029000000000002950000000000295000000000029614937000000000019898700000000005774793300000000000000009999123100000010000000000000BRRAIZACNPR6111
012024080502SMFT3       010SMART FIT   ON      NM   R$  000000000195800000000020800000000001958000000000205500000000020530000000002053000000000206811475000000000003544200000000007283744400000000000000009999123100000010000000000000BRSMFTACNOR1112
012024080502SMTO3       010SAO MARTINHOON  ED  NM   R$  000000000271900000000028140000000002719000000000277400000000027810000000002780000000000278206028000000000001230500000000003413952900000000000000009999123100000010000000000000BRSMTOACNOR3127
012024080502SNSY5       010SANSUY      PNA          R$  000000000057000000000005840000000000564000000000057200000000005840000000000568000000000058300005000000000000001500000000000000859100000000000000009999123100000010000000000000BRSNSYACNPA5111
012024080502SOJA3       010BOA SAFRA   ON      NM   R$  000000000145600000000014770000000001426000000000144700000000014260000000001425000000000143401920000000000000568400000000000822795300000000000000009999123100000010000000000000BRSOJAACNOR9105
012024080502BPAN4       010BANCO PAN   PN      N1   R$  000000000085100000000008670000000000839000000000085300000000008590000000000859000000000086402505000000000000665100000000000567810000000000000000009999123100000010000000000000BRBPANACNPR1115
012024080502BRAP3       010BRADESPAR   ON      N1   R$  000000000172300000000017250000000001674000000000170500000000017170000000001716000000000171700572000000000000116300000000000198301900000000000000009999123100000010000000000000BRBRAPACNOR5148
012024080502BRAP4       010BRADESPAR   PN      N1   R$  000000000175600000000017940000000001740000000000177300000000017850000000001785000000000178606905000000000003764200000000006674403000000000000000009999123100000010000000000000BRBRAPACNPR2148
012024080502HBOR3       010HELBOR      ON      NM   R$  000000000021500000000002190000000000210000000000021400000000002190000000000218000000000021900384000000000000313600000000000067355900000000000000009999123100000010000000000000BRHBORACNOR3118
012024080502HBRE3       010HBR REALTY  ON      NM   R$  000000000051000000000005310000000000508000000000051800000000005290000000000528000000000052900984000000000000470400000000000243901400000000000000009999123100000010000000000000BRHBREACNOR4100
012024080502HBSA3       010HIDROVIAS   ON      NM   R$  000000000034000000000003610000000000338000000000035000000000003580000000000356000000000035904849000000000002318900000000000813152300000000000000009999123100000010000000000000BRHBSAACNOR0100
012024080502HBTS5       010HABITASUL   PNA          R$  000000000431500000000043580000000004315000000000435000000000043580000000001000000000000450000004000000000000000600000000000002610500000000000000009999123100000010000000000000BRHBTSACNPA3128
012024080502VITT3       010VITTIA      ON      NM   R$  000000000060600000000006140000000000595000000000060400000000006020000000000602000000000060501918000000000000457200000000000276377200000000000000009999123100000010000000000000BRVITTACNOR4107
012024080502VIVA3       010VIVARA S.A. ON      NM   R$  000000000237000000000024320000000002332000000000239500000000024150000000002411000000000241619078000000000004750200000000011380911600000000000000009999123100000010000000000000BRVIVAACNOR0107
012024080502VIVR3       010VIVER       ON      NM   R$  000000000024400000000002470000000000236000000000023900000000002410000000000241000000000024500162000000000000062900000000000015078800000000000000009999123100000010000000000000BRVIVRACNOR4123
012024080502VIVT3       010TELEF BRASILON  EJ       R$  000000000493800000000049630000000004870000000000490100000000048900000000004890000000000489413177000000000002688700000000013178427500000000000000009999123100000010000000000000BRVIVTACNOR0183
012024080502VLID3       010VALID       ON      NM   R$  000000000167500000000016840000000001632000000000165700000000016700000000001670000000000167103316000000000000609400000000001010265200000000000000009999123100000010000000000000BRVLIDACNOR5143
012024080502MRVE3       010MRV         ON      NM   R$  000000000064500000000006680000000000633000000000065300000000006620000000000661000000000066314070000000000011605400000000007588682600000000000000009999123100000010000000000000BRMRVEACNOR2127
012024080502MTRE3       010MITRE REALTYON      NM   R$  000000000037600000000003950000000000367000000000038300000000003930000000000391000000000039301396000000000000691700000000000265421300000000000000009999123100000010000000000000BRMTREACNOR6113
012024080502MTSA4       010METISA      PN           R$  000000000425500000000043490000000004251000000000430100000000043490000000004232000000000435000010000000000000001200000000000005162200000000000000009999123100000010000000000000BRMTSAACNPR9072
012024080502MULT3       010MULTIPLAN   ON      N2   R$  000000000241400000000024790000000002390000000000244300000000024790000000002459000000000247916664000000000004740600000000011582877100000000000000009999123100000010000000000000BRMULTACNOR5139
012024080502PRNR3       010PRINER      ON      NM   R$  000000000102600000000010350000000000996000000000100800000000010060000000001004000000000100600890000000000000271000000000000273321800000000000000009999123100000010000000000000BRPRNRACNOR4109
012024080502PSSA3       010PORTO SEGUROON      NM   R$  000000000303900000000030650000000003015000000000305200000000030650000000003063000000000306505415000000000001110600000000003389562400000000000000009999123100000010000000000000BRPSSAACNOR7155
012024080502PTBL3       010PORTOBELLO  ON      NM   R$  000000000041500000000004330000000000403000000000042200000000004310000000000431000000000043201017000000000000343300000000000144914200000000000000009999123100000010000000000000BRPTBLACNOR8132
012024080502PTNT3       010PETTENATI   ON           R$  000000000091900000000009590000000000911000000000092300000000009220000000000910000000000092100023000000000000003800000000000003508900000000000000009999123100000010000000000000BRPTNTACNOR6042
012024080502PTNT4       010PETTENATI   PN           R$  000000000063000000000006380000000000621000000000062700000000006210000000000616000000000063300012000000000000004300000000000002697900000000000000009999123100000010000000000000BRPTNTACNPR3047
012024080502SBSP3       010SABESP      ON      NM   R$  000000000877900000000088880000000008727000000000882600000000088620000000008862000000000886512696000000000002841300000000025078139300000000000000009999123100000010000000000000BRSBSPACNOR5161
012024080502SCAR3       010SAO CARLOS  ON      NM   R$  000000000235100000000023510000000002332000000000233600000000023350000000002335000000000235900044000000000000023200000000000054200400000000000000009999123100000010000000000000BRSCARACNOR7131
012024080502SEER3       010SER EDUCA   ON      NM   R$  000000000049900000000005170000000000488000000000050300000000005020000000000501000000000050201419000000000000509700000000000256589300000000000000009999123100000010000000000000BRSEERACNOR5119
012024080502SEQL3       010SEQUOIA LOG ON      NM   R$  000000000040000000000004430000000000395000000000042300000000004350000000000434000000000043500931000000000000408400000000000173079500000000000000009999123100000010000000000000BRSEQLACNOR2103
012024080502SHOW3       010TIME FOR FUNON      NM   R$  000000000015200000000001540000000000148000000000015000000000001540000000000151000000000015300192000000000000043600000000000006572500000000000000009999123100000010000000000000BRSHOWACNOR7105
012024080502SHUL4       010SCHULZ      PN           R$  000000000060300000000006330000000000600000000000061600000000006200000000000620000000000062201135000000000000355500000000000219120100000000000000009999123100000010000000000000BRSHULACNPR4156
012024080502SIMH3       010SIMPAR      ON      NM   R$  000000000063000000000006490000000000621000000000063700000000006380000000000638000000000064406779000000000003545200000000002259253000000000000000009999123100000010000000000000BRSIMHACNOR0107
012024080502VAMO3       010VAMOS       ON      NM   R$  000000000085900000000009050000000000852000000000088600000000008970000000000892000000000089725268000000000015685200000000013911504400000000000000009999123100000010000000000000BRVAMOACNOR7105
012024080502VBBR3       010VIBRA       ON      NM   R$  000000000226500000000023210000000002234000000000229000000000022990000000002298000000000229929214000000000012437500000000028488626100000000000000009999123100000010000000000000BRVBBRACNOR1108
012024080502MDIA3       010M.DIASBRANCOON      NM   R$  000000000266100000000027110000000002616000000000268400000000026970000000002693000000000269703682000000000000697700000000001872809500000000000000009999123100000010000000000000BRMDIAACNOR7135
012024080502FRAS3       010FRAS-LE     ON      N1   R$  000000000185300000000018630000000001817000000000183100000000018250000000001825000000000182602394000000000000755700000000001383818300000000000000009999123100000010000000000000BRFRASACNOR0160
012024080502FRIO3       010METALFRIO   ON      NM   R$  000000002100000000000210000000000021000000000002100000000000210000000000017000000000002200000001000000000000000100000000000002100000000000000000009999123100000010000000000000BRFRIOACNOR2111
012024080502MDNE3       010MOURA DUBEUXON      NM   R$  000000000132400000000013580000000001311000000000133900000000013390000000001334000000000133902138000000000000426800000000000571506500000000000000009999123100000010000000000000BRMDNEACNOR9100
012024080502MEAL3       010IMC S/A     ON      NM   R$  000000000015200000000001530000000000143000000000014800000000001490000000000147000000000014900398000000000000940400000000000139958300000000000000009999123100000010000000000000BRMEALACNOR9105
012024080502MELK3       010MELNICK     ON      NM   R$  000000000034200000000003450000000000338000000000034000000000003400000000000340000000000034300535000000000000342700000000000116790200000000000000009999123100000010000000000000BRMELKACNOR8111
012024080502MGEL4       010MANGELS INDLPN           R$  000000000126000000000012600000000001200000000000124900000000012000000000001209000000000125000014000000000000020300000000000025364300000000000000009999123100000010000000000000BRMGELACNPR3147
012024080502MGLU3       010MAGAZ LUIZA ON      NM   R$  000000000110000000000011650000000001062000000000110500000000011540000000001154000000000115533620000000000032001700000000035372970800000000000000009999123100000010000000000000BRMGLUACNOR2124
012024080502CPLE6       010COPEL       PNB     N2   R$  000000000099800000000010030000000000981000000000099700000000010010000000001001000000000100320796000000000014031800000000013999210400000000000000009999123100000010000000000000BRCPLEACNPB9146
012024080502EKTR4       010ELEKTRO     PN  ED       R$  000000000408000000000042040000000004080000000000413500000000042040000000004086000000000420400016000000000000001800000000000007443200000000000000009999123100000010000000000000BREKTRACNPR7164
012024080502ELET3       010ELETROBRAS  ON      N1   R$  000000000377000000000037970000000003723000000000377100000000037690000000003769000000000378024993000000000008323800000000031393012800000000000000009999123100000010000000000000BRELETACNOR6160
012024080502ELET5       010ELETROBRAS  PNA     N1   R$  000000000950000000000095000000000009500000000000950000000000095000000000008500000000000000000001000000000000000200000000000001900000000000000000009999123100000010000000000000BRELETACNPA9077
012024080502ELET6       010ELETROBRAS  PNB     N1   R$  000000000419000000000042090000000004125000000000417600000000041930000000004193000000000419506814000000000001680300000000007018293400000000000000009999123100000010000000000000BRELETACNPB7077
012024080502FESA3       010FERBASA     ON      N1   R$  000000000125000000000012500000000001250000000000125000000000012500000000001260000000000140900001000000000000000100000000000000125000000000000000009999123100000010000000000000BRFESAACNOR8188
012024080502FESA4       010FERBASA     PN      N1   R$  000000000078800000000008100000000000772000000000079400000000008000000000000800000000000080103057000000000000968400000000000769263600000000000000009999123100000010000000000000BRFESAACNPR5084
012024080502FHER3       010FER HERINGERON      NM   R$  000000000045000000000004660000000000438000000000044900000000004430000000000443000000000044400046000000000000038200000000000017165200000000000000009999123100000010000000000000BRFHERACNOR5103
012024080502FIEI3       010FICA        ON           R$  000000000120000000000012000000000001200000000000120000000000012000000000001185000000000125000001000000000000000200000000000000240000000000000000009999123100000010000000000000BRFIEIACNOR2100
012024080502SAPR11      010SANEPAR     UNT     N2   R$  000000000279900000000028490000000002767000000000281100000000028110000000002811000000000281405750000000000001577700000000004435715000000000000000009999123100000010000000000000BRSAPRCDAM13118
012024080502SAPR3       010SANEPAR     ON      N2   R$  000000000051900000000005280000000000510000000000051900000000005220000000000522000000000052401100000000000000418900000000000217600300000000000000009999123100000010000000000000BRSAPRACNOR9159
012024080502SAPR4       010SANEPAR     PN      N2   R$  000000000056500000000005770000000000560000000000057000000000005680000000000568000000000056903926000000000001993400000000001137347500000000000000009999123100000010000000000000BRSAPRACNPR6159
012024080502SBFG3       010GRUPO SBF   ON      NM   R$  000000000149200000000015480000000001454000000000151600000000015190000000001518000000000151908169000000000002332400000000003537295800000000000000009999123100000010000000000000BRSBFGACNOR1103
012024080502UNIP3       010UNIPAR      ON           R$  000000000502600000000050400000000004849000000000494000000000050200000000004997000000000502000052000000000000006500000000000032111300000000000000009999123100000010000000000000BRUNIPACNOR7206
012024080502UNIP5       010UNIPAR      PNA          R$  000000000514900000000051500000000005136000000000514600000000051360000000005072000000000518500004000000000000000400000000000002058400000000000000009999123100000010000000000000BRUNIPACNPA0208
012024080502UNIP6       010UNIPAR      PNB          R$  000000000500000000000051100000000004885000000000503300000000050650000000005065000000000507001634000000000000242500000000001220502800000000000000009999123100000010000000000000BRUNIPACNPB8206
012024080502CGAS5       010COMGAS      PNA          R$  000000001100000000000110510000000010999000000001101200000000110510000000011050000000001130000004000000000000000400000000000004404900000000000000009999123100000010000000000000BRCGASACNPA3160
012024080502CGRA3       010GRAZZIOTIN  ON           R$  000000000250000000000025080000000002500000000000250600000000025080000000002480000000000250800007000000000000000700000000000001754400000000000000009999123100000010000000000000BRCGRAACNOR2083
012024080502CGRA4       010GRAZZIOTIN  PN           R$  000000000247500000000024810000000002460000000000247100000000024720000000002471000000000248700033000000000000004500000000000011123900000000000000009999123100000010000000000000BRCGRAACNPR9083
012024080502CIEL3       010CIELO       ON      NM   R$  000000000057700000000005790000000000576000000000057700000000005790000000000578000000000057909099000000000011894900000000006874971400000000000000009999123100000010000000000000BRCIELACNOR3157
012024080502CLSA3       010CLEARSALE   ON      NM   R$  000000000075700000000008020000000000756000000000078200000000007770000000000777000000000078003851000000000001289400000000001008967800000000000000009999123100000010000000000000BRCLSAACNOR0100
012024080502CLSC4       010CELESC      PN      N2   R$  000000000749300000000075350000000007472000000000750000000000075100000000007473000000000751400009000000000000001000000000000007500000000000000000009999123100000010000000000000BRCLSCACNPR3131
012024080502CMIG3       010CEMIG       ON      N1   R$  000000000123700000000012490000000001212000000000123200000000012400000000001240000000000124100672000000000000118600000000000146218400000000000000009999123100000010000000000000BRCMIGACNOR6242
012024080502USIM3       010USIMINAS    ON      N1   R$  000000000056900000000005770000000000554000000000056800000000005720000000000572000000000057401467000000000000588300000000000334547800000000000000009999123100000010000000000000BRUSIMACNOR3167
012024080502USIM5       010USIMINAS    PNA     N1   R$  000000000057000000000005870000000000565000000000057800000000005810000000000580000000000058225955000000000021005800000000012153670700000000000000009999123100000010000000000000BRUSIMACNPA6169
012024080502GEPA3       010GER PARANAP ON           R$  000000000257000000000026490000000002570000000000262200000000026490000000002526000000000262900002000000000000000300000000000000786800000000000000009999123100000010000000000000BRGEPAACNOR2153
012024080502GEPA4       010GER PARANAP PN           R$  000000000262500000000026250000000002625000000000262500000000026250000000002600000000000262100002000000000000000200000000000000525000000000000000009999123100000010000000000000BRGEPAACNPR9160
012024080502GFSA3       010GAFISA      ON      NM   R$  000000000028300000000002970000000000276000000000028400000000002950000000000294000000000029503316000000000005300500000000001507764800000000000000009999123100000010000000000000BRGFSAACNOR3124
012024080502ATOM3       010ATOMPAR     ON           R$  000000000019800000000001980000000000185000000000019100000000001900000000000190000000000019600075000000000000030700000000000005888000000000000000009999123100000010000000000000BRATOMACNOR1106
012024080502AURE3       010AUREN       ON      NM   R$  000000000115000000000011690000000001128000000000115300000000011660000000001166000000000116710792000000000006031900000000006959171100000000000000009999123100000010000000000000BRAUREACNOR9104
012024080502AVLL3       010ALPHAVILLE  ON      NM   R$  000000000034100000000003690000000000341000000000034800000000003690000000000338000000000036900016000000000000003700000000000001290300000000000000009999123100000010000000000000BRAVLLACNOR5103
012024080502AZEV3       010AZEVEDO     ON           R$  000000000013800000000001460000000000135000000000014000000000001430000000000143000000000014600341000000000000292300000000000041213400000000000000009999123100000010000000000000BRAZEVACNOR0121
012024080502AZEV4       010AZEVEDO     PN           R$  000000000013400000000001440000000000134000000000013900000000001430000000000142000000000014301852000000000002628000000000000366079700000000000000009999123100000010000000000000BRAZEVACNPR7121
012024080502HAGA3       010HAGA S/A    ON           R$  000000000026900000000002690000000000250000000000025600000000002540000000000254000000000026300030000000000000005700000000000001464200000000000000009999123100000010000000000000BRHAGAACNOR7103
012024080502HAGA4       010HAGA S/A    PN           R$  000000000011800000000001180000000000113000000000011400000000001140000000000114000000000011500027000000000000039900000000000004582700000000000000009999123100000010000000000000BRHAGAACNPR4103
012024080502HAPV3       010HAPVIDA     ON      NM   R$  000000000042000000000004320000000000414000000000042400000000004310000000000430000000000043136153000000000096505500000000041010184500000000000000009999123100000010000000000000BRHAPVACNOR4114
012024080502CAMB3       010CAMBUCI     ON           R$  000000000112000000000011200000000001050000000000109700000000011050000000001103000000000110500134000000000000041400000000000045450800000000000000009999123100000010000000000000BRCAMBACNOR4130
012024080502CAML3       010CAMIL       ON      NM   R$  000000000089900000000009340000000000896000000000092200000000009190000000000919000000000092203368000000000000734500000000000677304200000000000000009999123100000010000000000000BRCAMLACNOR3128
012024080502CASH3       010MELIUZ      ON      NM   R$  000000000053900000000005520000000000532000000000054100000000005410000000000541000000000054502343000000000001085300000000000587691000000000000000009999123100000010000000000000BRCASHACNOR8106
012024080502CSRN3       010COSERN      ON  ED       R$  000000000160100000000016990000000001600000000000165700000000016480000000001611000000000168800015000000000000001800000000000002983600000000000000009999123100000010000000000000BRCSRNACNOR0194
012024080502GRND3       010GRENDENE    ON      NM   R$  000000000057600000000005940000000000573000000000058600000000005930000000000592000000000059302531000000000001083100000000000635199100000000000000009999123100000010000000000000BRGRNDACNOR3174
012024080502GUAR3       010GUARARAPES  ON      NM   R$  000000000066700000000007160000000000652000000000068700000000007050000000000703000000000070505311000000000001823500000000001253195500000000000000009999123100000010000000000000BRGUARACNOR4173
012024080502CSRN5       010COSERN      PNA ED       R$  000000000185000000000018500000000001850000000000185000000000018500000000001600000000000184000001000000000000000100000000000000185000000000000000009999123100000010000000000000BRCSRNACNPA3194
012024080502CSRN6       010COSERN      PNB ED       R$  000000000191900000000019190000000001690000000000174400000000016900000000001690000000000177000015000000000000001900000000000003315400000000000000009999123100000010000000000000BRCSRNACNPB1195
012024080502CSUD3       010CSU DIGITAL ON      NM   R$  000000000192800000000019430000000001850000000000191300000000019200000000001917000000000192000150000000000000046000000000000088005300000000000000009999123100000010000000000000BRCSUDACNOR5110
012024080502CURY3       010CURY S/A    ON      NM   R$  000000000209900000000021810000000002040000000000214500000000021380000000002138000000000214908456000000000001639700000000003517796200000000000000009999123100000010000000000000BRCURYACNOR3109
012024080502CVCB3       010CVC BRASIL  ON      NM   R$  000000000017600000000001780000000000171000000000017400000000001740000000000174000000000017509892000000000016852700000000002945036500000000000000009999123100000010000000000000BRCVCBACNOR1116
012024080502EALT4       010ACO ALTONA  PN           R$  000000000121300000000012490000000001213000000000123300000000012470000000001223000000000124800043000000000000006800000000000008387500000000000000009999123100000010000000000000BREALTACNPR1138
012024080502ECOR3       010ECORODOVIAS ON      NM   R$  000000000073900000000007550000000000729000000000073900000000007340000000000733000000000073414575000000000004670300000000003451762700000000000000009999123100000010000000000000BRECORACNOR8120
012024080502EGIE3       010ENGIE BRASILON      NM   R$  000000000439000000000044060000000004330000000000438000000000043880000000004386000000000438805922000000000001021900000000004476841500000000000000009999123100000010000000000000BREGIEACNOR9126
012024080502GGPS3       010GPS         ON      NM   R$  000000000177500000000017950000000001741000000000177600000000017810000000001781000000000179311879000000000002841800000000005049733300000000000000009999123100000010000000000000BRGGPSACNOR9103
012024080502GMAT3       010GRUPO MATEUSON      NM   R$  000000000067800000000007070000000000674000000000069600000000007050000000000704000000000070708487000000000002827400000000001969425500000000000000009999123100000010000000000000BRGMATACNOR7102
012024080502EZTC3       010EZTEC       ON      NM   R$  000000000131900000000013510000000001293000000000132700000000013310000000001329000000000133307204000000000002760500000000003663980700000000000000009999123100000010000000000000BREZTCACNOR0125
012024080502IFCM3       010INFRACOMM   ON      NM   R$  000000000003400000000000340000000000032000000000003300000000000330000000000033000000000003404158000000000009261100000000000308322700000000000000009999123100000010000000000000BRIFCMACNOR8101
012024080502IGTI11      010IGUATEMI S.AUNT     N1   R$  000000000210700000000021400000000002077000000000211200000000021110000000002110000000000211208388000000000002159500000000004561929400000000000000009999123100000010000000000000BRIGTICDAM16106
012024080502IGTI3       010IGUATEMI S.AON      N1   R$  000000000026000000000002630000000000258000000000025900000000002630000000000260000000000026300095000000000000055500000000000014409300000000000000009999123100000010000000000000BRIGTIACNOR8106
012024080502IGTI4       010IGUATEMI S.APN      N1   R$  000000000092900000000009290000000000929000000000092900000000009290000000000865000000000103100001000000000000000100000000000000092900000000000000009999123100000010000000000000BRIGTIACNPR5106
012024080502INEP3       010INEPAR      ON           R$  000000000018500000000001930000000000176000000000018300000000001820000000000181000000000018200173000000000000070600000000000012946200000000000000009999123100000010000000000000BRINEPACNOR1143
012024080502INEP4       010INEPAR      PN           R$  000000000017800000000001870000000000178000000000018100000000001800000000000179000000000018000032000000000000017400000000000003166500000000000000009999123100000010000000000000BRINEPACNPR8143
012024080502INTB3       010INTELBRAS   ON  ED  NM   R$  000000000210500000000021500000000002064000000000211100000000020990000000002099000000000212002900000000000000716200000000001512319800000000000000009999123100000010000000000000BRINTBACNOR9112
012024080502IRBR3       010IRBBRASIL REON      NM   R$  000000000280500000000028770000000002751000000000282400000000028670000000002865000000000286804738000000000001209800000000003416985700000000000000009999123100000010000000000000BRIRBRACNOR4111
012024080502LAND3       010TERRASANTAPAON      NM   R$  000000000142500000000014600000000001387000000000142600000000014210000000001413000000000142900133000000000000021900000000000031243700000000000000009999123100000010000000000000BRLANDACNOR9103
012024080502LAVV3       010LAVVI       ON      NM   R$  000000000088300000000008830000000000862000000000086700000000008650000000000865000000000086803117000000000000840600000000000729263800000000000000009999123100000010000000000000BRLAVVACNOR4112
012024080502LEVE3       010METAL LEVE  ON      NM   R$  000000000326500000000033190000000003164000000000325900000000032610000000003261000000000328902202000000000000437100000000001424862800000000000000009999123100000010000000000000BRLEVEACNOR2197
012024080502LJQQ3       010QUERO-QUERO ON      NM   R$  000000000039000000000003970000000000376000000000038900000000003870000000000387000000000038904695000000000003505700000000001364689000000000000000009999123100000010000000000000BRLJQQACNOR5104
012024080502LOGG3       010LOG COM PROPON      NM   R$  000000000220000000000022550000000002177000000000223000000000022360000000002235000000000223904164000000000000530600000000001183438200000000000000009999123100000010000000000000BRLOGGACNOR7107
012024080502LOGN3       010LOG-IN      ON      NM   R$  000000000359000000000036770000000003472000000000359400000000036440000000003608000000000368000108000000000000013100000000000047094300000000000000009999123100000010000000000000BRLOGNACNOR3105
012024080502LPSB3       010LOPES BRASILON      NM   R$  000000000017600000000001770000000000169000000000017100000000001720000000000172000000000017300226000000000000121100000000000020787700000000000000009999123100000010000000000000BRLPSBACNOR0114
012024080502LREN3       010LOJAS RENNERON      NM   R$  000000000131400000000014100000000001297000000000136000000000013970000000001397000000000139827833000000000018740100000000025490567300000000000000009999123100000010000000000000BRLRENACNOR1221
012024080502ALPA3       010ALPARGATAS  ON      N1   R$  000000000082300000000008230000000000790000000000079500000000007900000000000790000000000080500041000000000000016600000000000013197300000000000000009999123100000010000000000000BRALPAACNOR0231
012024080502ALPA4       010ALPARGATAS  PN      N1   R$  000000000084000000000008440000000000825000000000083300000000008280000000000828000000000083007170000000000002222700000000001852805000000000000000009999123100000010000000000000BRALPAACNPR7232
012024080502ALPK3       010ESTAPAR     ON      NM   R$  000000000035700000000003660000000000334000000000035300000000003650000000000361000000000036500421000000000000154800000000000054788000000000000000009999123100000010000000000000BRALPKACNOR9101
012024080502ALUP11      010ALUPAR      UNT     N2   R$  000000000306800000000030940000000003043000000000307800000000030750000000003074000000000308404629000000000000946600000000002914426100000000000000009999123100000010000000000000BRALUPCDAM15119
012024080502MOVI3       010MOVIDA      ON      NM   R$  000000000062300000000006520000000000617000000000063900000000006430000000000643000000000064406285000000000003653000000000002335974000000000000000009999123100000010000000000000BRMOVIACNOR0122
012024080502MRFG3       010MARFRIG     ON      NM   R$  000000000111600000000011410000000001106000000000112600000000011300000000001129000000000113013647000000000006608200000000007445153100000000000000009999123100000010000000000000BRMRFGACNOR0116
012024080502BAHI3       010BAHEMA      ON      MA   R$  000000000065200000000006520000000000650000000000065000000000006500000000000646000000000069000007000000000000000800000000000000520200000000000000009999123100000010000000000000BRBAHIACNOR1074
012024080502BALM4       010BAUMER      PN           R$  000000000098000000000009800000000000980000000000098000000000009800000000000980000000000104900003000000000000000300000000000000294000000000000000009999123100000010000000000000BRBALMACNPR2056
012024080502BAZA3       010AMAZONIA    ON           R$  000000000920000000000093490000000009100000000000925100000000092990000000009250000000000929900011000000000000001300000000000012026300000000000000009999123100000010000000000000BRBAZAACNOR0179
012024080502BBAS3       010BRASIL      ON      NM   R$  000000000260000000000026330000000002560000000000261500000000026200000000002619000000000262136414000000000020254500000000052968947900000000000000009999123100000010000000000000BRBBASACNOR3324
012024080502BLAU3       010BLAU        ON      NM   R$  000000000102000000000010320000000001003000000000101500000000010180000000001018000000000102600980000000000000178400000000000181215700000000000000009999123100000010000000000000BRBLAUACNOR8114
012024080502BMEB4       010MERCANTIL   PN  EJ  N1   R$  000000000340400000000034050000000003201000000000330800000000033950000000003370000000000339500059000000000000009200000000000030438200000000000000009999123100000010000000000000BRBMEBACNPR5211
012024080502BMGB4       010BANCO BMG   PN      N1   R$  000000000034200000000003450000000000330000000000033900000000003410000000000340000000000034100974000000000000604500000000000205351200000000000000009999123100000010000000000000BRBMGBACNPR0110
012024080502BMIN4       010MERC INVEST PN           R$  000000000153700000000015370000000001537000000000153700000000015370000000001555000000000165000001000000000000000300000000000000461100000000000000009999123100000010000000000000BRBMINACNPR1176
012024080502BMKS3       010BIC MONARK  ON           R$  000000003200000000000320000000000031701000000003195100000000318500000000031800000000003190000006000000000000000030000000000000958551000000000000009999123100000010000000000000BRBMKSACNOR9166
012024080502BRSR3       010BANRISUL    ON      N1   R$  000000000119600000000012180000000001175000000000118300000000012170000000001200000000000121700049000000000000010300000000000012187100000000000000009999123100000010000000000000BRBRSRACNOR3188
012024080502BRSR6       010BANRISUL    PNB     N1   R$  000000000110200000000011250000000001101000000000111300000000011200000000001120000000000112404089000000000000967500000000001077534800000000000000009999123100000010000000000000BRBRSRACNPB4191
012024080502B3SA3       010B3          ON      NM   R$  000000000104700000000010870000000001043000000000106700000000010860000000001085000000000108741342000000000039632900000000042322398700000000000000009999123100000010000000000000BRB3SAACNOR6133
012024080502BBSE3       010BBSEGURIDADEON      NM   R$  000000000345700000000034740000000003347000000000344000000000034600000000003460000000000346323864000000000006276200000000021593237100000000000000009999123100000010000000000000BRBBSEACNOR5124
012024080502GOAU3       010GERDAU MET  ON      N1   R$  000000000102500000000010270000000001002000000000101700000000010210000000001020000000000102200335000000000000059400000000000060411400000000000000009999123100000010000000000000BRGOAUACNOR1267
012024080502GOAU4       010GERDAU MET  PN      N1   R$  000000000100000000000010120000000000982000000000099900000000010020000000001002000000000100312118000000000008279400000000008278020400000000000000009999123100000010000000000000BRGOAUACNPR8268
012024080502ITUB3       010ITAUUNIBANCOON  EJ  N1   R$  000000000280000000000028350000000002771000000000281300000000028250000000002825000000000283101791000000000000407200000000001145661900000000000000009999123100000010000000000000BRITUBACNOR4339
012024080502ITUB4       010ITAUUNIBANCOPN  EJ  N1   R$  000000000324500000000033030000000003235000000000328000000000032950000000003294000000000329530825000000000026510800000000086956310500000000000000009999123100000010000000000000BRITUBACNPR1339
012024080502AZZA3       010AZZAS 2154  ON      NM   R$  000000000480000000000049890000000004750000000000488500000000049190000000004918000000000493906791000000000002085600000000010189888400000000000000009999123100000010000000000000BRAZZAACNOR9100
012024080502CMIN3       010CSNMINERACAOON      N2   R$  000000000047900000000004880000000000473000000000048000000000004850000000000484000000000048511057000000000008385900000000004033245600000000000000009999123100000010000000000000BRCMINACNOR2111
012024080502DASA3       010DASA        ON      NM   R$  000000000025600000000002680000000000251000000000025800000000002610000000000261000000000026502219000000000001407500000000000363258400000000000000009999123100000010000000000000BRDASAACNOR1122
012024080502DESK3       010DESKTOP     ON      NM   R$  000000000167900000000016790000000001633000000000165100000000016510000000001651000000000165201083000000000000251500000000000415375100000000000000009999123100000010000000000000BRDESKACNOR2104
012024080502DEXP3       010DEXXOS PAR  ON      N1   R$  000000000101000000000010180000000000994000000000100300000000010070000000001006000000000100800223000000000000064100000000000064329100000000000000009999123100000010000000000000BRDEXPACNOR1105
012024080502DEXP4       010DEXXOS PAR  PN      N1   R$  000000000101200000000010250000000001001000000000101400000000010100000000001010000000000102300021000000000000006100000000000006186300000000000000009999123100000010000000000000BRDEXPACNPR8105
012024080502DIRR3       010DIRECIONAL  ON      NM   R$  000000000265200000000027190000000002601000000000267800000000026660000000002666000000000267104825000000000001115800000000002988545400000000000000009999123100000010000000000000BRDIRRACNOR0118
012024080502GGBR3       010GERDAU      ON      N1   R$  000000000154000000000015490000000001503000000000153200000000015370000000001536000000000154900390000000000000064100000000000098212800000000000000009999123100000010000000000000BRGGBRACNOR1192
012024080502GGBR4       010GERDAU      PN      N1   R$  000000000170800000000017370000000001682000000000171500000000017220000000001720000000000172220692000000000014510300000000024893429800000000000000009999123100000010000000000000BRGGBRACNPR8192
012024080502ITSA4       010ITAUSA      PN      N1   R$  000000000096500000000009860000000000964000000000097700000000009820000000000981000000000098223621000000000024448000000000023901559700000000000000009999123100000010000000000000BRITSAACNPR7441
012024080502PFRM3       010PROFARMA    ON      NM   R$  000000000055600000000005710000000000550000000000056300000000005710000000000566000000000057100447000000000000153200000000000086262400000000000000009999123100000010000000000000BRPFRMACNOR1116
012024080502PGMN3       010PAGUE MENOS ON      NM   R$  000000000025200000000002630000000000247000000000025500000000002610000000000260000000000026101343000000000000726500000000000185879400000000000000009999123100000010000000000000BRPGMNACNOR8103
012024080502PINE3       010PINE        ON      N2   R$  000000000054900000000006090000000000549000000000057900000000006090000000000549000000000060900002000000000000000400000000000000231600000000000000009999123100000010000000000000BRPINEACNOR1150
012024080502PINE4       010PINE        PN      N2   R$  000000000040900000000004250000000000398000000000040800000000004210000000000417000000000042200515000000000000185700000000000075777100000000000000009999123100000010000000000000BRPINEACNPR8150
012024080502PLAS3       010PLASCAR PARTON           R$  000000000052000000000005200000000000501000000000050900000000005150000000000505000000000059900006000000000000001200000000000000611100000000000000009999123100000010000000000000BRPLASACNOR2106
012024080502PLPL3       010PLANOEPLANO ON      NM   R$  000000000115100000000011770000000001122000000000114700000000011590000000001150000000000115904358000000000001252400000000001437604300000000000000009999123100000010000000000000BRPLPLACNOR5104
012024080502PNVL3       010DIMED       ON      NM   R$  000000000099300000000010200000000000983000000000100900000000010190000000001012000000000102001485000000000000285900000000000288754000000000000000009999123100000010000000000000BRPNVLACNOR9207
012024080502POMO3       010MARCOPOLO   ON      N2   R$  000000000050500000000005470000000000500000000000052500000000005450000000000543000000000054500699000000000000303300000000000159451200000000000000009999123100000010000000000000BRPOMOACNOR0098
012024080502POMO4       010MARCOPOLO   PN      N2   R$  000000000065300000000007060000000000645000000000068700000000007030000000000699000000000070321363000000000013202000000000009071248700000000000000009999123100000010000000000000BRPOMOACNPR7098
012024080502PORT3       010WILSON SONS ON      NM   R$  000000000158200000000015970000000001567000000000157700000000015700000000001570000000000157701648000000000000340300000000000536746300000000000000009999123100000010000000000000BRPORTACNOR8109
012024080502POSI3       010POSITIVO TECON      NM   R$  000000000068000000000006930000000000671000000000068300000000006870000000000686000000000068703283000000000001401000000000000958220300000000000000009999123100000010000000000000BRPOSIACNOR9116
012024080502PRIO3       010PETRORIO    ON      NM   R$  000000000446000000000045560000000004449000000000448500000000044670000000004467000000000447731268000000000012727300000000057091165700000000000000009999123100000010000000000000BRPRIOACNOR1107
012024080502RSUL4       010RIOSULENSE  PN           R$  000000000597000000000059700000000005970000000000597000000000059700000000005903000000000599900003000000000000000300000000000001791000000000000000009999123100000010000000000000BRRSULACNPR3114
012024080502COCE5       010COELCE      PNA          R$  000000000304000000000031760000000003011000000000309900000000031690000000003054000000000317000036000000000000004200000000000013018400000000000000009999123100000010000000000000BRCOCEACNPA3147
012024080502COGN3       010COGNA ON    ON      NM   R$  000000000014400000000001530000000000142000000000014700000000001500000000000150000000000015113465000000000029992500000000004419658000000000000000009999123100000010000000000000BRCOGNACNOR2104
012024080502DMVF3       010D1000VFARMA ON      NM   R$  000000000071500000000007430000000000702000000000071800000000007380000000000728000000000073800490000000000000089800000000000064552900000000000000009999123100000010000000000000BRDMVFACNOR9100
012024080502DOHL4       010DOHLER      PN           R$  000000000039200000000004140000000000392000000000040600000000004140000000000396000000000040900003000000000000000500000000000000203300000000000000009999123100000010000000000000BRDOHLACNPR9066
012024080502DOTZ3       010DOTZ SA     ON      NM   R$  000000000065800000000006720000000000656000000000066200000000006610000000000660000000000066900018000000000000004600000000000003047700000000000000009999123100000010000000000000BRDOTZACNOR7101
012024080502DXCO3       010DEXCO       ON      NM   R$  000000000069300000000007050000000000686000000000069400000000006940000000000693000000000069807883000000000002846500000000001978099300000000000000009999123100000010000000000000BRDXCOACNOR8105
012024080502SANB11      010SANTANDER BRUNT          R$  000000000277100000000028630000000002763000000000282100000000028330000000002833000000000283510121000000000002373500000000006696571700000000000000009999123100000010000000000000BRSANBCDAM13165
012024080502SANB3       010SANTANDER BRON           R$  000000000132600000000013650000000001300000000000133800000000013490000000001343000000000135001563000000000000271700000000000363717300000000000000009999123100000010000000000000BRSANBACNOR8172
012024080502SANB4       010SANTANDER BRPN           R$  000000000145900000000014990000000001451000000000147400000000014910000000001488000000000149401227000000000000207300000000000305759200000000000000009999123100000010000000000000BRSANBACNPR5172
012024080502TPIS3       010TRIUNFO PARTON      NM   R$  000000000036800000000003690000000000359000000000036300000000003650000000000359000000000036400114000000000000042100000000000015305300000000000000009999123100000010000000000000BRTPISACNOR8118
012024080502TRAD3       010TC          ON      NM   R$  000000000035600000000003570000000000337000000000034600000000003570000000000348000000000035700162000000000000105600000000000036639200000000000000009999123100000010000000000000BRTRADACNOR3102
012024080502TRIS3       010TRISUL      ON      NM   R$  000000000047000000000004730000000000455000000000046500000000004620000000000461000000000046202000000000000000655400000000000305009100000000000000009999123100000010000000000000BRTRISACNOR4118
012024080502TRPL3       010TRAN PAULISTON      N1   R$  000000000317000000000032450000000003138000000000321300000000032420000000003204000000000324400025000000000000002700000000000008676500000000000000009999123100000010000000000000BRTRPLACNOR4185
012024080502TRPL4       010TRAN PAULISTPN      N1   R$  000000000243100000000024510000000002391000000000242200000000024390000000002438000000000244018492000000000004198900000000010171316800000000000000009999123100000010000000000000BRTRPLACNPR1185
012024080502TTEN3       0103TENTOS     ON      NM   R$  000000000101200000000010360000000001009000000000102600000000010290000000001029000000000103303079000000000000553200000000000567760600000000000000009999123100000010000000000000BRTTENACNOR0103
012024080502TUPY3       010TUPY        ON      NM   R$  000000000241500000000024930000000002366000000000245300000000024660000000002466000000000248104627000000000000751400000000001843756900000000000000009999123100000010000000000000BRTUPYACNOR1184
012024080502UCAS3       010UNICASA     ON      NM   R$  000000000021700000000002300000000000216000000000022100000000002270000000000224000000000022700359000000000000057300000000000012672800000000000000009999123100000010000000000000BRUCASACNOR1113
012024080502UGPA3       010ULTRAPAR    ON      NM   R$  000000000222600000000022500000000002176000000000221200000000022140000000002213000000000222121412000000000009106600000000020145384600000000000000009999123100000010000000000000BRUGPAACNOR8155
012024080502ROMI3       010ROMI        ON      NM   R$  000000000103500000000010420000000001011000000000102700000000010340000000001034000000000103601083000000000000195400000000000200831200000000000000009999123100000010000000000000BRROMIACNOR8195
012024080502RRRP3       0103R PETROLEUMON      NM   R$  000000000259900000000026400000000002567000000000260500000000026400000000002635000000000264013219000000000005036500000000013120415800000000000000009999123100000010000000000000BRRRRPACNOR5103
012024080502TASA3       010TAURUS ARMASON      N2   R$  000000000112500000000011440000000001110000000000113500000000011300000000001123000000000113500076000000000000017100000000000019424600000000000000009999123100000010000000000000BRTASAACNOR7104
012024080502TASA4       010TAURUS ARMASPN      N2   R$  000000000110500000000011420000000001090000000000112300000000011420000000001142000000000114301746000000000000369400000000000415005400000000000000009999123100000010000000000000BRTASAACNPR4104
012024080502TCSA3       010TECNISA     ON      NM   R$  000000000020100000000002040000000000198000000000020000000000002030000000000203000000000020400147000000000000069600000000000013970600000000000000009999123100000010000000000000BRTCSAACNOR3112
012024080502TECN3       010TECHNOS     ON      NM   R$  000000000051600000000005200000000000500000000000050700000000005100000000000510000000000051100639000000000000246600000000000125156400000000000000009999123100000010000000000000BRTECNACNOR6109
012024080502TELB3       010TELEBRAS    ON           R$  000000000132000000000013850000000001320000000000135500000000013850000000001361000000000138000011000000000000002200000000000002981400000000000000009999123100000010000000000000BRTELBACNOR2140
012024080502TELB4       010TELEBRAS    PN           R$  000000000095500000000010080000000000940000000000098600000000010070000000001007000000000100800036000000000000012000000000000011840300000000000000009999123100000010000000000000BRTELBACNPR9140
012024080502TEND3       010TENDA       ON      NM   R$  000000000125700000000013070000000001227000000000128400000000013000000000001298000000000130006092000000000001718400000000002207034300000000000000009999123100000010000000000000BRTENDACNOR4111
012024080502TFCO4       010TRACK FIELD PN      N2   R$  000000000112600000000011380000000001097000000000112400000000011380000000001120000000000113800305000000000000087700000000000098655700000000000000009999123100000010000000000000BRTFCOACNPR8114
012024080502TGMA3       010TEGMA       ON      NM   R$  000000000237100000000024180000000002355000000000239000000000024180000000002382000000000241800813000000000000120600000000000288242000000000000000009999123100000010000000000000BRTGMAACNOR7144
012024080502TIMS3       010TIM         ON      NM   R$  000000000176100000000017610000000001714000000000172600000000017150000000001715000000000171609922000000000004300500000000007422752700000000000000009999123100000010000000000000BRTIMSACNOR5117
012024080502TOTS3       010TOTVS       ON      NM   R$  000000000267800000000027750000000002663000000000271800000000026980000000002697000000000270015499000000000004390600000000011934180300000000000000009999123100000010000000000000BRTOTSACNOR8144
012024080502ZAMP3       010ZAMP S.A.   ON  ES       R$  000000000031400000000003190000000000311000000000031300000000003150000000000314000000000031502805000000000001504200000000000471945600000000000000009999123100000010000000000000BRZAMPACNOR5101
012024080502PDGR3       010PDG REALT   ON  ES  NM   R$  000000000001700000000000180000000000016000000000001700000000000180000000000017000000000001800721000000000010341000000000000178423600000000000000009999123100000010000000000000BRPDGRACNOR8119
012024080502PDTC3       010PADTEC      ON      NM   R$  000000000018900000000001890000000000181000000000018300000000001820000000000182000000000018300134000000000000068800000000000012613800000000000000009999123100000010000000000000BRPDTCACNOR3101
012024080502PEAB3       010PAR AL BAHIAON           R$  000000000431100000000043110000000004311000000000431100000000043110000000004311000000000440000001000000000000000100000000000000431100000000000000009999123100000010000000000000BRPEABACNOR3133
012024080502PETR3       010PETROBRAS   ON      N2   R$  000000000379000000000038410000000003735000000000380800000000038320000000003831000000000383420783000000000009875300000000037609351200000000000000009999123100000010000000000000BRPETRACNOR9205
012024080502PETR4       010PETROBRAS   PN      N2   R$  000000000348000000000035700000000003460000000000351800000000035700000000003555000000000357052095000000000044765900000000157529411300000000000000009999123100000010000000000000BRPETRACNPR6213
012024080502PETZ3       010PETZ        ON      NM   R$  000000000034300000000003740000000000343000000000036000000000003730000000000371000000000037308521000000000008884000000000003207016300000000000000009999123100000010000000000000BRPETZACNOR2110
012024080502RECV3       010PETRORECSA  ON      NM   R$  000000000193200000000019670000000001898000000000194400000000019560000000001955000000000195908623000000000001973700000000003837256300000000000000009999123100000010000000000000BRRECVACNOR3107
012024080502REDE3       010REDE ENERGIAON           R$  000000000069800000000006980000000000683000000000069000000000006930000000000691000000000069600023000000000000002600000000000001795900000000000000009999123100000010000000000000BRREDEACNOR7128
012024080502RENT3       010LOCALIZA    ON      NM   R$  000000000441500000000044290000000004244000000000436900000000043940000000004390000000000439436181000000000009432200000000041218682700000000000000009999123100000010000000000000BRRENTACNOR4196
012024080502SYNE3       010SYN PROP TECON      NM   R$  000000000101700000000010220000000000991000000000100800000000010150000000001012000000000101500628000000000000248400000000000250567000000000000000009999123100000010000000000000BRSYNEACNOR2102
012024080502TAEE11      010TAESA       UNT     N2   R$  000000000344100000000034620000000003405000000000344700000000034500000000003450000000000345609061000000000001842800000000006353826600000000000000009999123100000010000000000000BRTAEECDAM10147
012024080502TAEE3       010TAESA       ON      N2   R$  000000000113400000000011450000000001124000000000113800000000011400000000001139000000000114200677000000000000115600000000000131588000000000000000009999123100000010000000000000BRTAEEACNOR9147
012024080502TAEE4       010TAESA       PN      N2   R$  000000000114900000000011570000000001138000000000115100000000011540000000001154000000000115600881000000000000191500000000000220498400000000000000009999123100000010000000000000BRTAEEACNPR6147
012024080502WEST3       010WESTWING    ON      NM   R$  000000000008600000000000890000000000085000000000008600000000000880000000000087000000000008800070000000000000066800000000000005808100000000000000009999123100000010000000000000BRWESTACNOR3100
012024080502WHRL3       010WHIRLPOOL   ON           R$  000000000043700000000004370000000000435000000000043600000000004370000000000432000000000043700006000000000000001400000000000000611200000000000000009999123100000010000000000000BRWHRLACNOR5128
012024080502WHRL4       010WHIRLPOOL   PN           R$  000000000043800000000004430000000000435000000000043500000000004430000000000438000000000044300017000000000000013400000000000005841200000000000000009999123100000010000000000000BRWHRLACNPR2128
012024080502WIZC3       010WIZ CO      ON      NM   R$  000000000058500000000005880000000000573000000000058000000000005810000000000581000000000058401982000000000000737900000000000428029700000000000000009999123100000010000000000000BRWIZCACNOR5102
012024080502SRNA3       010SERENA      ON      NM   R$  000000000084900000000008580000000000831000000000084100000000008330000000000833000000000084203891000000000001638600000000001378998400000000000000009999123100000010000000000000BRSRNAACNOR4100
012024080502STBP3       010SANTOS BRP  ON      NM   R$  000000000130800000000013560000000001275000000000133100000000013450000000001345000000000134812315000000000003700500000000004927521600000000000000009999123100000010000000000000BRSTBPACNOR3130
012024080502VSTE3       010VESTE       ON      NM   R$  000000000137600000000013760000000001376000000000137600000000013760000000001359000000000139500001000000000000000100000000000000137600000000000000009999123100000010000000000000BRVSTEACNOR5103
012024080502VTRU3       010VITRUEDUCA  ON      NM   R$  000000000120500000000012880000000001152000000000121500000000012670000000001266000000000127600465000000000000090300000000000109732600000000000000009999123100000010000000000000BRVTRUACNOR3100
012024080502VULC3       010VULCABRAS   ON      NM   R$  000000000153800000000015820000000001510000000000155600000000015600000000001560000000000156404182000000000000815200000000001268500400000000000000009999123100000010000000000000BRVULCACNOR2159
012024080502VVEO3       010VIVEO       ON      NM   R$  000000000021100000000002300000000000210000000000022000000000002300000000000230000000000023104425000000000003249500000000000717364900000000000000009999123100000010000000000000BRVVEOACNOR0104
012024080502WEGE3       010WEG         ON  ED  NM   R$  000000000480000000000049430000000004757000000000486600000000048860000000004885000000000488836823000000000010892300000000053012648200000000000000009999123100000010000000000000BRWEGEACNOR0224
012024080502MWET4       010WETZEL S/A  PN           R$  000000000093400000000009340000000000934000000000093400000000009340000000000851000000000093400002000000000000000200000000000000186800000000000000009999123100000010000000000000BRMWETACNPR3118
012024080502MYPK3       010IOCHP-MAXIONON      NM   R$  000000000117500000000012120000000001158000000000119000000000012120000000001204000000000121306450000000000001160500000000001381416900000000000000009999123100000010000000000000BRMYPKACNOR7155
012024080502NEOE3       010NEOENERGIA  ON      NM   R$  000000000181100000000018320000000001798000000000181800000000018100000000001810000000000182604379000000000000920500000000001673917700000000000000009999123100000010000000000000BRNEOEACNOR3123
012024080502NGRD3       010NEOGRID     ON      NM   R$  000000000011200000000001210000000000106000000000011300000000001160000000000115000000000011601410000000000001237900000000000140841600000000000000009999123100000010000000000000BRNGRDACNOR3104
012024080502NINJ3       010GETNINJAS   ON      NM   R$  000000000047400000000004910000000000474000000000048100000000004900000000000476000000000049000045000000000000012000000000000005772600000000000000009999123100000010000000000000BRNINJACNOR5101
012024080502NORD3       010NORDON MET  ON           R$  000000000096500000000010000000000000900000000000093400000000009450000000000945000000000110000015000000000000002500000000000002337200000000000000009999123100000010000000000000BRNORDACNOR7135
012024080502NTCO3       010GRUPO NATURAON      NM   R$  000000000144300000000014740000000001406000000000145300000000014740000000001472000000000147717473000000000006744500000000009800703800000000000000009999123100000010000000000000BRNTCOACNOR5106
012024080502QUAL3       010QUALICORP   ON      NM   R$  000000000014300000000001460000000000137000000000014100000000001440000000000144000000000014503218000000000008382600000000001184098400000000000000009999123100000010000000000000BRQUALACNOR6120
012024080502RADL3       010RAIADROGASILON      NM   R$  000000000280500000000030070000000002792000000000291900000000030070000000003001000000000300725914000000000011267900000000032897725200000000000000009999123100000010000000000000BRRADLACNOR0157
012024080502SLCE3       010SLC AGRICOLAON      NM   R$  000000000173200000000017670000000001728000000000175100000000017520000000001752000000000175306840000000000001649000000000002887472700000000000000009999123100000010000000000000BRSLCEACNOR2125
012024080507NUTR3       010NUTRIPLANT  ON      MA   R$  000000000050400000000005270000000000471000000000048600000000004930000000000480000000000049200051000000000000012500000000000006082300000000000000009999123100000010000000000000BRNUTRACNOR0104
012024080508BDLL3       010BARDELLA    ON           R$  000000000130100000000013010000000001301000000000130100000000013010000000000800000000000130100001000000000000000100000000000000130100000000000000009999123100000010000000000000BRBDLLACNOR1149
012024080508ETER3       010ETERNIT     ON      NM   R$  000000000057600000000006270000000000569000000000060800000000006210000000000615000000000062101038000000000000502300000000000305844000000000000000009999123100000010000000000000BRETERACNOR3243
012024080508AMER3       010AMERICANAS  ON      NM   R$  000000000005800000000000630000000000057000000000006000000000000610000000000061000000000006201985000000000018068800000000001087911100000000000000009999123100000010000000000000BRAMERACNOR6102
012024080508OIBR3       010OI          ON      N1   R$  000000000041000000000004270000000000402000000000041200000000004220000000000421000000000042201225000000000000845700000000000348545900000000000000009999123100000010000000000000BROIBRACNOR1111
012024080508OIBR4       010OI          PN      N1   R$  000000000123000000000012900000000001225000000000124300000000012250000000001225000000000126200032000000000000003500000000000004350700000000000000009999123100000010000000000000BROIBRACNPR8110
012024080508OSXB3       010OSX BRASIL  ON      NM   R$  000000000043000000000004500000000000373000000000040500000000003800000000000380000000000040300137000000000000046100000000000018709200000000000000009999123100000010000000000000BROSXBACNOR8109
012024080508SGPS3       010SPRINGS     ON      NM   R$  000000000022300000000002230000000000223000000000022300000000002230000000000200000000000022300002000000000000000200000000000000044600000000000000009999123100000010000000000000BRSGPSACNOR4105
012024080508ATMP3       010ATMASA      ON           R$  000000000017200000000001850000000000165000000000017500000000001720000000000170000000000017200023000000000000011800000000000002071700000000000000009999123100000010000000000000BRATMPACNOR8100
012024080508CTNM4       010COTEMINAS   PN           R$  000000000008800000000000880000000000088000000000008800000000000880000000000088000000000009000009000000000000006400000000000000563200000000000000009999123100000010000000000000BRCTNMACNPR6129
012024080508CTSA3       010SANTANENSE  ON           R$  000000000032700000000003450000000000280000000000030900000000002970000000000292000000000030000123000000000000036900000000000011414000000000000000009999123100000010000000000000BRCTSAACNOR3062
012024080508CTSA4       010SANTANENSE  PN           R$  000000000013800000000001430000000000126000000000013300000000001320000000000130000000000013200194000000000000118800000000000015833600000000000000009999123100000010000000000000BRCTSAACNPR0062
012024080508HOOT4       010HOTEIS OTHONPN           R$  000000000023500000000002450000000000231000000000023400000000002330000000000233000000000024500023000000000000005400000000000001266600000000000000009999123100000010000000000000BRHOOTACNPR9015
012024080508LIGT3       010LIGHT S/A   ON      NM   R$  000000000041100000000004220000000000402000000000041500000000004190000000000419000000000042103003000000000000933900000000000388104400000000000000009999123100000010000000000000BRLIGTACNOR2124
012024080508JFEN3       010JOAO FORTES ON           R$  000000000003200000000000360000000000029000000000003200000000000330000000000033000000000003401604000000000007145700000000000232703000000000000000009999123100000010000000000000BRJFENACNOR0059
012024080508PMAM3       010PARANAPANEMAON      NM   R$  000000000022700000000002300000000000218000000000022400000000002200000000000220000000000022500151000000000000075900000000000017048900000000000000009999123100000010000000000000BRPMAMACNOR3039
012024080508RSID3       010ROSSI RESID ON      NM   R$  000000000038100000000003860000000000371000000000037800000000003860000000000374000000000038900146000000000000024300000000000009192600000000000000009999123100000010000000000000BRRSIDACNOR8120
012024080508RNEW11      010RENOVA      UNT     N2   R$  000000000026000000000002600000000000252000000000025400000000002520000000000252000000000025300054000000000000016500000000000004191500000000000000009999123100000010000000000000BRRNEWCDAM15110
012024080508RNEW3       010RENOVA      ON      N2   R$  000000000008700000000000890000000000083000000000008400000000000850000000000083000000000008500133000000000000084600000000000007147900000000000000009999123100000010000000000000BRRNEWACNOR8110
012024080508RNEW4       010RENOVA      PN      N2   R$  000000000008700000000000880000000000083000000000008400000000000830000000000083000000000008400211000000000000217900000000000018306200000000000000009999123100000010000000000000BRRNEWACNPR5110
012024080508RPMG3       010PET MANGUINHON           R$  000000000026300000000002890000000000263000000000027600000000002710000000000271000000000028000226000000000000027100000000000007489500000000000000009999123100000010000000000000BRRPMGACNOR9194
012024080508NEXP3       010NEXPE       ON           R$  000000000041600000000004160000000000406000000000040900000000004060000000000406000000000041100005000000000000000500000000000000204500000000000000009999123100000010000000000000BRNEXPACNOR0101
012024080510ZAMP1       010ZAMP S.A.   DIR ORD      R$  000000000000400000000000060000000000003000000000000400000000000040000000000003000000000000400411000000000000621300000000000002721500000000000000009999123100000010000000000000BRZAMPD01OR0100
012024080510PDGR95      010PDG REALT   DIR     NM   R$  000000000000100000000000010000000000001000000000000100000000000010000000000000000000000000100008000000000000015521000000000000015521000000000000009999123100000010000000000000BRPDGRD03M17100
012024080512BNFS11      010FII BANRISULCI  ER       R$  000000001192600000000119660000000011720000000001187000000000119000000000011900000000001196300129000000000000000964000000000011443238000000000000009999123100000010000000000000BRBNFSCTF000243
012024080512BRIM11      010FII BRIO II CI  ER       R$  000000010090000000001009000000000100900000000010090000000001009000000000100900000000014140000002000000000000000002000000000000201800000000000000009999123100000010000000000000BRBRIMCTF008129
012024080512BRIP11      010FII BRIO IIICI           R$  000000008900100000000920000000000089001000000009100000000000919990000000089002000000009199500003000000000000000003000000000000273000000000000000009999123100000010000000000000BRBRIPCTF001114
012024080512EQIR11      010FII EQI RECECI           R$  000000000090200000000009020000000000897000000000089900000000009000000000000898000000000090000189000000000000017078000000000015362430000000000000009999123100000010000000000000BREQIRCTF003134
012024080512KNCR11      010FII KINEA RICI  ER       R$  000000001049400000000105460000000010416000000001048600000000104970000000010465000000001049714739000000000000121887000000001278134167000000000000009999123100000010000000000000BRKNCRCTF000242
012024080512KNHF11      010FII KINEA HFCI  ER       R$  000000000951500000000095320000000009449000000000950400000000095100000000009507000000000951004152000000000000027709000000000263364419000000000000009999123100000010000000000000BRKNHFCTF004113
012024080512KNHY11      010FII KINEA HYCI  ER       R$  000000001048800000000105100000000010430000000001048200000000104600000000010460000000001046501970000000000000016172000000000169517454000000000000009999123100000010000000000000BRKNHYCTF005174
012024080512KNIP11      010FII KINEA IPCI  ER       R$  000000000940000000000094540000000009392000000000941000000000094540000000009454000000000945506403000000000000049427000000000465130140000000000000009999123100000010000000000000BRKNIPCTF001195
012024080512ALZC11      010FII ALIANZACCI           R$  000000000960000000000096000000000009600000000000960000000000096000000000009300000000000960000005000000000000000014000000000000134400000000000000009999123100000010000000000000BRALZCCTF016105
012024080512ALZM11      010FII ALIANZMECI           R$  000000000076900000000007700000000000763000000000076500000000007630000000000763000000000076500980000000000000026146000000000020026402000000000000009999123100000010000000000000BRALZMCTF007124
012024080512ALZR11      010FII ALIANZA CI           R$  000000001072600000000108050000000010726000000001077100000000108000000000010800000000001080502558000000000000021808000000000234906990000000000000009999123100000010000000000000BRALZRCTF006184
012024080512AIEC11      010FII AUTONOMYCI  ER       R$  000000000545200000000054520000000005299000000000537900000000053680000000005346000000000536800484000000000000005654000000000030414539000000000000009999123100000010000000000000BRAIECCTF009147
012024080512AJFI11      010FII AJ MALLSCI           R$  000000000085000000000008610000000000844000000000085300000000008590000000000852000000000085901682000000000000028552000000000024362596000000000000009999123100000010000000000000BRAJFICTF001108
012024080512ALMI11      010FII TORRE ALCI           R$  000000006555500000000655550000000065333000000006554700000000655550000000065001000000006709000040000000000000000235000000000015403649000000000000009999123100000010000000000000BRALMICTF003251
012024080512KNRE11      010FII KII REALCI           R$  000000000004400000000000450000000000042000000000004300000000000430000000000042000000000004300061000000000000007171000000000000312350000000000000009999123100000010000000000000BRKNRECTF006129
012024080512KNRI11      010FII KINEA   CI  ER       R$  000000001547700000000155000000000015300000000001538300000000154440000000015444000000001544905827000000000000035038000000000538999671000000000000009999123100000010000000000000BRKNRICTF007266
012024080512KNSC11      010FII KINEA SCCI  ER       R$  000000000091100000000009280000000000911000000000091800000000009220000000000922000000000092315356000000000000432342000000000397223782000000000000009999123100000010000000000000BRKNSCCTF008149
012024080512KNUQ11      010FII KINEA UNCI  ER       R$  000000001036000000000103980000000010303000000001031800000000103050000000010305000000001031701279000000000000020505000000000211572691000000000000009999123100000010000000000000BRKNUQCTF004115
012024080512KORE11      010FII KORE    CI  ER       R$  000000001022800000000102800000000010170000000001019300000000102800000000010244000000001028001592000000000000016142000000000164551016000000000000009999123100000010000000000000BRKORECTF012108
012024080512BICR11      010FII INTER   CI  ER       R$  000000000634900000000063490000000005800000000000602300000000063000000000005351000000000629500009000000000000000017000000000000102392000000000000009999123100000010000000000000BRBICRCTF009154
012024080512BCIA11      010FII BCIA    CI  ER       R$  000000001010000000000101320000000009990000000001004700000000101280000000010066000000001012801154000000000000009657000000000097030797000000000000009999123100000010000000000000BRBCIACTF005212
012024080512BCRI11      010FII BEES CRICI  ER       R$  000000000669000000000066900000000006599000000000665300000000066850000000006668000000000668500764000000000000009050000000000060216742000000000000009999123100000010000000000000BRBCRICTF009217
012024080512AFHI11      010FII AFHI CRICI           R$  000000000964700000000096840000000009599000000000964000000000096550000000009655000000000966503025000000000000014510000000000139888502000000000000009999123100000010000000000000BRAFHICTF005144
012024080512CPFF11      010FII CAP REITCI           R$  000000000720000000000072330000000007200000000000720000000000072000000000007200000000000720700370000000000000001701000000000012248249000000000000009999123100000010000000000000BRCPFFCTF000157
012024080512JFLL11      010FII JFL LIV CI  ER       R$  000000000713100000000072000000000007100000000000713500000000071490000000007147000000000719400056000000000000000478000000000003410714000000000000009999123100000010000000000000BRJFLLCTF002142
012024080512JPPA11      010FII JPPA CRICI  ER       R$  000000000824000000000082980000000007745000000000818800000000082360000000008236000000000824200342000000000000004969000000000040689039000000000000009999123100000010000000000000BRJPPACTF005163
012024080512JSAF11      010FII JS A FINCI  ER       R$  000000000930000000000093000000000009201000000000923700000000092240000000009204000000000922400748000000000000014402000000000133039425000000000000009999123100000010000000000000BRJSAFCTF000135
012024080512JSRE11      010FII JS REAL CI  ER       R$  000000000659600000000065960000000006481000000000651500000000064920000000006492000000000650503194000000000000024728000000000161108898000000000000009999123100000010000000000000BRJSRECTF007264
012024080512KCRE11      010FII KINEA CRCI  ER       R$  000000000095100000000009520000000000945000000000094800000000009500000000000949000000000095000504000000000000031389000000000029771461000000000000009999123100000010000000000000BRKCRECTF009127
012024080512KEVE11      010FII EVEN II CI  EA       R$  000000010500000000001050000000000105000000000010500000000001050000000000104100000000011150000005000000000000000034000000000003570000000000000000009999123100000010000000000000BRKEVECTF007116
012024080512KFOF11      010FII KINEAFOFCI  ER       R$  000000000877600000000089020000000008675000000000881600000000087610000000008761000000000883901877000000000000019094000000000168344602000000000000009999123100000010000000000000BRKFOFCTF006171
012024080512KISU11      010FII KILIMA  CI  ER       R$  000000000081500000000008150000000000802000000000080700000000008100000000000809000000000081004025000000000000159690000000000128894132000000000000009999123100000010000000000000BRKISUCTF000146
012024080512KIVO11      010FII KIVO    CI  ER       R$  000000000820100000000082300000000008150000000000816900000000082000000000008155000000000819901661000000000000003959000000000032343412000000000000009999123100000010000000000000BRKIVOCTF007129
012024080512ABCP11      010FII ABC IMOBCI  ER       R$  000000000665200000000066520000000006499000000000654100000000065530000000006550000000000655300125000000000000001046000000000006842412000000000000009999123100000010000000000000BRABCPCTF000341
012024080512BTHI11      010BTG HOTEL FICI           R$  000000000422800000000042280000000004137000000000417200000000041370000000004100000000000413700019000000000000000276000000000001151633000000000000009999123100000010000000000000BRBTHICTF004110
012024080512BTLG11      010FII BTLG    CI           R$  000000000998900000000100700000000009940000000001000700000000100100000000010007000000001001011509000000000000085324000000000853887595000000000000009999123100000010000000000000BRBTLGCTF000164
012024080512BTRA11      010FII BTG TAGRCI  ER       R$  000000000502300000000050300000000004908000000000498300000000049300000000004930000000000495902403000000000000017624000000000087820720000000000000009999123100000010000000000000BRBTRACTF000138
012024080512BTSG11      010FII BTSP I  CI  ER       R$  000000001597400000000159740000000015974000000001597400000000159740000000000000000000000000000002000000000000000002000000000000031948000000000000009999123100000010000000000000BRBTSGCTF005133
012024080512EURO11      010FII EUROPAR CI  ER       R$  000000002477300000000247730000000024001000000002442800000000247630000000024400000000002477000047000000000000000234000000000005716206000000000000009999123100000010000000000000BREUROCTF011361
012024080512EVBI11      010FII VBI CON CI  ER       R$  000000000100200000000010020000000000990000000000099300000000009980000000000991000000000100300105000000000000003521000000000003499170000000000000009999123100000010000000000000BREVBICTF007152
012024080512EXES11      010FII EXES    CI           R$  000000000099000000000009910000000000979000000000098800000000009790000000000946000000000097900039000000000000002026000000000002003358000000000000009999123100000010000000000000BREXESCTF006127
