00COTAHIST.2024BOVESPA 20240617                                                                                                                                                                                                                      
012024061702NEOE3       010NEOENERGIA  ON      NM   R$  000000000183000000000018350000000001794000000000180200000000018010000000001801000000000180704008000000000000976000000000001759252700000000000000009999123100000010000000000000BRNEOEACNOR3122
012024061702NGRD3       010NEOGRID     ON      NM   R$  000000000008000000000000830000000000079000000000008100000000000820000000000081000000000008200349000000000000258300000000000020974000000000000000009999123100000010000000000000BRNGRDACNOR3104
012024061702NINJ3       010GETNINJAS   ON      NM   R$  000000000045800000000004680000000000454000000000045700000000004570000000000451000000000045700175000000000000026100000000000011947500000000000000009999123100000010000000000000BRNINJACNOR5101
012024061702SANB11      010SANTANDER BRUNT          R$  000000000269600000000027510000000002696000000000273100000000027470000000002742000000000274809785000000000002397500000000006548870800000000000000009999123100000010000000000000BRSANBCDAM13164
012024061702PSSA3       010PORTO SEGUROON      NM   R$  000000000297000000000029860000000002930000000000294500000000029380000000002936000000000294004751000000000001171900000000003451647300000000000000009999123100000010000000000000BRPSSAACNOR7154
012024061702PTBL3       010PORTOBELLO  ON      NM   R$  000000000039800000000003990000000000389000000000039100000000003900000000000390000000000039201056000000000000393800000000000154228200000000000000009999123100000010000000000000BRPTBLACNOR8132
012024061702PTNT3       010PETTENATI   ON           R$  000000000094300000000009810000000000921000000000095200000000009510000000000800000000000096500007000000000000000700000000000000666700000000000000009999123100000010000000000000BRPTNTACNOR6042
012024061702PTNT4       010PETTENATI   PN           R$  000000000061000000000006100000000000582000000000059200000000005820000000000581000000000058700020000000000000004600000000000002724300000000000000009999123100000010000000000000BRPTNTACNPR3047
012024061702EQMA3B      010EQTLMARANHAOON      MB   R$  000000000273800000000027380000000002738000000000273800000000027380000000002605000000000273300001000000000000000200000000000000547600000000000000009999123100000010000000000000BREQMAACNOR8108
012024061702EQPA3       010EQTL PARA   ON           R$  000000000069200000000006940000000000655000000000066900000000006750000000000671000000000068700030000000000000007400000000000004951400000000000000009999123100000010000000000000BREQPAACNOR1111
012024061702EQTL3       010EQUATORIAL  ON      NM   R$  000000000296200000000029800000000002925000000000294800000000029250000000002925000000000294014640000000000004856200000000014319174500000000000000009999123100000010000000000000BREQTLACNOR0130
012024061702ESPA3       010ESPACOLASER ON      NM   R$  000000000010800000000001080000000000104000000000010500000000001040000000000104000000000010500096000000000000124100000000000013071700000000000000009999123100000010000000000000BRESPAACNOR7103
012024061702ESTR4       010ESTRELA     PN           R$  000000000019200000000001950000000000180000000000018500000000001900000000000165000000000019000008000000000000003400000000000000631000000000000000009999123100000010000000000000BRESTRACNPR0144
012024061702IFCM3       010INFRACOMM   ON      NM   R$  000000000003600000000000370000000000034000000000003400000000000340000000000034000000000003501353000000000003898500000000000135659600000000000000009999123100000010000000000000BRIFCMACNOR8101
012024061702IGTI11      010IGUATEMI S.AUNT     N1   R$  000000000196000000000019610000000001929000000000194200000000019310000000001931000000000193217592000000000003579000000000006950644200000000000000009999123100000010000000000000BRIGTICDAM16106
012024061702IGTI3       010IGUATEMI S.AON      N1   R$  000000000027200000000002720000000000260000000000026400000000002670000000000265000000000026700070000000000000016800000000000004447500000000000000009999123100000010000000000000BRIGTIACNOR8106
012024061702IGTI4       010IGUATEMI S.APN      N1   R$  000000000084200000000008420000000000842000000000084200000000008420000000000783000000000084900001000000000000000100000000000000084200000000000000009999123100000010000000000000BRIGTIACNPR5106
012024061702INEP3       010INEPAR      ON           R$  000000000018300000000001910000000000182000000000018600000000001820000000000180000000000018200077000000000000047000000000000008749400000000000000009999123100000010000000000000BRINEPACNOR1143
012024061702INEP4       010INEPAR      PN           R$  000000000017200000000001800000000000169000000000017200000000001780000000000173000000000017800035000000000000050200000000000008672800000000000000009999123100000010000000000000BRINEPACNPR8143
012024061702INTB3       010INTELBRAS   ON      NM   R$  000000000227400000000023030000000002229000000000227500000000022820000000002282000000000228602973000000000000686200000000001561275600000000000000009999123100000010000000000000BRINTBACNOR9111
012024061702IRBR3       010IRBBRASIL REON      NM   R$  000000000318400000000031950000000003114000000000314500000000031370000000003135000000000314302656000000000000583500000000001835616500000000000000009999123100000010000000000000BRIRBRACNOR4111
012024061702TOTS3       010TOTVS       ON      NM   R$  000000000304900000000030920000000003002000000000304600000000030420000000003038000000000304214668000000000004634800000000014118103200000000000000009999123100000010000000000000BRTOTSACNOR8144
012024061702TPIS3       010TRIUNFO PARTON      NM   R$  000000000038600000000003870000000000372000000000037700000000003800000000000373000000000038000642000000000000181000000000000068347100000000000000009999123100000010000000000000BRTPISACNOR8118
012024061702TRAD3       010TC          ON      NM   R$  000000000006600000000000680000000000063000000000006400000000000640000000000063000000000006400128000000000000180800000000000011669300000000000000009999123100000010000000000000BRTRADACNOR3101
012024061702TRIS3       010TRISUL      ON      NM   R$  000000000045900000000004600000000000449000000000045400000000004550000000000455000000000045601323000000000000646300000000000294028000000000000000009999123100000010000000000000BRTRISACNOR4118
012024061702TRPL3       010TRAN PAULISTON      N1   R$  000000000332700000000033700000000003315000000000333700000000033700000000003297000000000336600013000000000000001400000000000004673100000000000000009999123100000010000000000000BRTRPLACNOR4185
012024061702TRPL4       010TRAN PAULISTPN      N1   R$  000000000252400000000025500000000002510000000000253300000000025270000000002526000000000253310783000000000001782800000000004517482800000000000000009999123100000010000000000000BRTRPLACNPR1185
012024061702ITSA3       010ITAUSA      ON      N1   R$  000000000096200000000009720000000000960000000000096500000000009660000000000966000000000096700279000000000000112000000000000108139400000000000000009999123100000010000000000000BRITSAACNOR0440
012024061702ITSA4       010ITAUSA      PN      N1   R$  000000000096000000000009710000000000956000000000096400000000009640000000000964000000000096521620000000000024494000000000023626389900000000000000009999123100000010000000000000BRITSAACNPR7440
012024061702ARZZ3       010AREZZO CO   ON      NM   R$  000000000502600000000050790000000004967000000000503100000000050350000000005035000000000504708337000000000001648100000000008292768800000000000000009999123100000010000000000000BRARZZACNOR3146
012024061702ASAI3       010ASSAI       ON      NM   R$  000000000115700000000011570000000001123000000000113700000000011260000000001126000000000112912208000000000006046900000000006877435400000000000000009999123100000010000000000000BRASAIACNOR0106
012024061702TAEE11      010TAESA       UNT     N2   R$  000000000333600000000033470000000003323000000000333100000000033230000000003322000000000333005608000000000001177000000000003921206600000000000000009999123100000010000000000000BRTAEECDAM10147
012024061702TAEE3       010TAESA       ON      N2   R$  000000000111100000000011120000000001102000000000110500000000011020000000001102000000000110400611000000000000108200000000000119595900000000000000009999123100000010000000000000BRTAEEACNOR9147
012024061702TAEE4       010TAESA       PN      N2   R$  000000000111900000000011200000000001112000000000111500000000011140000000001113000000000111400898000000000000195700000000000218252900000000000000009999123100000010000000000000BRTAEEACNPR6147
012024061702BBSE3       010BBSEGURIDADEON      NM   R$  000000000324800000000032530000000003231000000000324100000000032390000000003238000000000324011288000000000003964300000000012848471900000000000000009999123100000010000000000000BRBBSEACNOR5124
012024061702COCE5       010COELCE      PNA          R$  000000000303400000000030800000000002980000000000302700000000030800000000003019000000000308000194000000000000027700000000000083864500000000000000009999123100000010000000000000BRCOCEACNPA3147
012024061702COGN3       010COGNA ON    ON      NM   R$  000000000016700000000001690000000000161000000000016400000000001620000000000162000000000016307455000000000026300400000000004336409300000000000000009999123100000010000000000000BRCOGNACNOR2104
012024061702CSUD3       010CSU DIGITAL ON      NM   R$  000000000186700000000018670000000001820000000000183100000000018260000000001823000000000185200166000000000000028400000000000052028000000000000000009999123100000010000000000000BRCSUDACNOR5109
012024061702CTKA4       010KARSTEN     PN           R$  000000000170000000000017000000000001700000000000170000000000017000000000001405000000000170000001000000000000000100000000000000170000000000000000009999123100000010000000000000BRCTKAACNPR7043
012024061702CURY3       010CURY S/A    ON      NM   R$  000000000185000000000018900000000001850000000000187300000000018700000000001868000000000187005668000000000000974900000000001826926400000000000000009999123100000010000000000000BRCURYACNOR3109
012024061702CVCB3       010CVC BRASIL  ON      NM   R$  000000000020100000000002040000000000197000000000020000000000002020000000000202000000000020403546000000000006575700000000001315828300000000000000009999123100000010000000000000BRCVCBACNOR1115
012024061702EUCA3       010EUCATEX     ON      N1   R$  000000000149000000000014900000000001490000000000149000000000014900000000001473000000000152000002000000000000000200000000000000298000000000000000009999123100000010000000000000BREUCAACNOR1157
012024061702EUCA4       010EUCATEX     PN      N1   R$  000000000143300000000015190000000001413000000000143600000000014600000000001459000000000147600352000000000000059300000000000085176600000000000000009999123100000010000000000000BREUCAACNPR8044
012024061702EVEN3       010EVEN        ON      NM   R$  000000000063200000000006360000000000616000000000062600000000006190000000000616000000000061902269000000000001235400000000000774401600000000000000009999123100000010000000000000BREVENACNOR8119
012024061702PLPL3       010PLANOEPLANO ON      NM   R$  000000000099000000000009910000000000964000000000097400000000009750000000000971000000000097601683000000000000426200000000000415293200000000000000009999123100000010000000000000BRPLPLACNOR5104
012024061702PNVL3       010DIMED       ON      NM   R$  000000000097400000000009800000000000959000000000096800000000009670000000000967000000000096801295000000000000228100000000000220990100000000000000009999123100000010000000000000BRPNVLACNOR9206
012024061702POMO3       010MARCOPOLO   ON      N2   R$  000000000047100000000004740000000000451000000000046000000000004510000000000451000000000045301861000000000000337700000000000155451000000000000000009999123100000010000000000000BRPOMOACNOR0098
012024061702POMO4       010MARCOPOLO   PN      N2   R$  000000000060700000000006130000000000584000000000059400000000005840000000000584000000000058511950000000000005676100000000003371968600000000000000009999123100000010000000000000BRPOMOACNPR7098
012024061702PORT3       010WILSON SONS ON      NM   R$  000000000145300000000014570000000001445000000000144900000000014500000000001445000000000145101571000000000000421100000000000610291500000000000000009999123100000010000000000000BRPORTACNOR8108
012024061702POSI3       010POSITIVO TECON      NM   R$  000000000087300000000008770000000000860000000000086400000000008610000000000860000000000086201809000000000000502400000000000434170500000000000000009999123100000010000000000000BRPOSIACNOR9116
012024061702ROMI3       010ROMI        ON      NM   R$  000000000105000000000010680000000001045000000000105700000000010560000000001056000000000105801107000000000000264800000000000279896800000000000000009999123100000010000000000000BRROMIACNOR8194
012024061702RRRP3       0103R PETROLEUMON      NM   R$  000000000258400000000025910000000002538000000000256000000000025530000000002553000000000255506890000000000002240400000000005736018900000000000000009999123100000010000000000000BRRRRPACNOR5103
012024061702EZTC3       010EZTEC       ON      NM   R$  000000000132900000000013330000000001298000000000130700000000012980000000001297000000000129902754000000000000971400000000001270366800000000000000009999123100000010000000000000BREZTCACNOR0125
012024061702SNSY3       010SANSUY      ON           R$  000000000099500000000010400000000000985000000000100600000000010400000000000995000000000104000003000000000000000300000000000000302000000000000000009999123100000010000000000000BRSNSYACNOR2113
012024061702SNSY5       010SANSUY      PNA          R$  000000000055700000000005570000000000534000000000054000000000005450000000000545000000000058300008000000000000001100000000000000594800000000000000009999123100000010000000000000BRSNSYACNPA5111
012024061702SOJA3       010BOA SAFRA   ON      NM   R$  000000000145600000000015020000000001444000000000147000000000014690000000001469000000000147502159000000000000708800000000001042489300000000000000009999123100000010000000000000BRSOJAACNOR9105
012024061702SOMA3       010GRUPO SOMA  ON      NM   R$  000000000058800000000005960000000000585000000000059000000000005880000000000586000000000058910145000000000005779800000000003412142400000000000000009999123100000010000000000000BRSOMAACNOR3102
012024061702SRNA3       010SERENA      ON      NM   R$  000000000084400000000008490000000000810000000000082100000000008120000000000812000000000081603277000000000001141600000000000938085300000000000000009999123100000010000000000000BRSRNAACNOR4100
012024061702QUAL3       010QUALICORP   ON      NM   R$  000000000017500000000001750000000000154000000000016200000000001540000000000154000000000015504759000000000008523100000000001382811900000000000000009999123100000010000000000000BRQUALACNOR6120
012024061702SCAR3       010SAO CARLOS  ON      NM   R$  000000000224100000000022790000000002215000000000222900000000022150000000002215000000000223000044000000000000007200000000000016049500000000000000009999123100000010000000000000BRSCARACNOR7131
012024061702SEER3       010SER EDUCA   ON      NM   R$  000000000052300000000005230000000000491000000000050300000000005000000000000500000000000050101230000000000000595700000000000299660300000000000000009999123100000010000000000000BRSEERACNOR5119
012024061702SEQL3       010SEQUOIA LOG ON      NM   R$  000000000062900000000006300000000000604000000000061200000000006140000000000604000000000061600207000000000000061800000000000037868000000000000000009999123100000010000000000000BRSEQLACNOR2103
012024061702SHOW3       010TIME FOR FUNON      NM   R$  000000000015400000000001580000000000151000000000015200000000001520000000000152000000000015300309000000000000174000000000000026593300000000000000009999123100000010000000000000BRSHOWACNOR7105
012024061702SHUL4       010SCHULZ      PN           R$  000000000059000000000005900000000000580000000000058400000000005830000000000583000000000058700788000000000000276300000000000161418100000000000000009999123100000010000000000000BRSHULACNPR4155
012024061702SIMH3       010SIMPAR      ON      NM   R$  000000000053300000000005350000000000516000000000052500000000005160000000000516000000000051805061000000000002722900000000001430637900000000000000009999123100000010000000000000BRSIMHACNOR0107
012024061702LAND3       010TERRASANTAPAON      NM   R$  000000000158500000000015940000000001540000000000157500000000015850000000001566000000000158600155000000000000158300000000000249414300000000000000009999123100000010000000000000BRLANDACNOR9103
012024061702LAVV3       010LAVVI       ON      NM   R$  000000000079400000000007940000000000778000000000078500000000007890000000000783000000000078902264000000000000517300000000000406378100000000000000009999123100000010000000000000BRLAVVACNOR4112
012024061702LEVE3       010METAL LEVE  ON      NM   R$  000000000304600000000030620000000003012000000000303700000000030430000000003043000000000305301503000000000000251300000000000763365000000000000000009999123100000010000000000000BRLEVEACNOR2197
012024061702SLCE3       010SLC AGRICOLAON      NM   R$  000000000176300000000017710000000001744000000000175800000000017600000000001760000000000176803454000000000001083000000000001904395100000000000000009999123100000010000000000000BRSLCEACNOR2125
012024061702USIM5       010USIMINAS    PNA     N1   R$  000000000071100000000007180000000000707000000000071200000000007100000000000709000000000071211562000000000004801500000000003420455500000000000000009999123100000010000000000000BRUSIMACNPA6169
012024061702WEST3       010WESTWING    ON      NM   R$  000000000009900000000001000000000000095000000000009500000000000950000000000095000000000009600070000000000000071100000000000006818600000000000000009999123100000010000000000000BRWESTACNOR3100
012024061702WHRL4       010WHIRLPOOL   PN           R$  000000000046500000000004670000000000462000000000046500000000004620000000000463000000000046600011000000000000002900000000000001350200000000000000009999123100000010000000000000BRWHRLACNPR2128
012024061702WIZC3       010WIZ CO      ON      NM   R$  000000000057900000000005790000000000569000000000057200000000005740000000000573000000000057401479000000000000271800000000000155689800000000000000009999123100000010000000000000BRWIZCACNOR5102
012024061702SANB3       010SANTANDER BRON           R$  000000000127900000000013050000000001273000000000129100000000013000000000001298000000000130100517000000000000075300000000000097253400000000000000009999123100000010000000000000BRSANBACNOR8171
012024061702SANB4       010SANTANDER BRPN           R$  000000000142000000000014400000000001420000000000143400000000014390000000001437000000000143900607000000000000111300000000000159713700000000000000009999123100000010000000000000BRSANBACNPR5171
012024061702SAPR11      010SANEPAR     UNT     N2   R$  000000000263300000000026330000000002591000000000260300000000026080000000002602000000000260902840000000000000707300000000001841142200000000000000009999123100000010000000000000BRSAPRCDAM13117
012024061702LJQQ3       010QUERO-QUERO ON      NM   R$  000000000039400000000003950000000000368000000000037800000000003720000000000370000000000037305586000000000002755300000000001042265500000000000000009999123100000010000000000000BRLJQQACNOR5104
012024061702LOGG3       010LOG COM PROPON      NM   R$  000000000223200000000022370000000002179000000000219600000000021790000000002179000000000218900974000000000000131800000000000289483400000000000000009999123100000010000000000000BRLOGGACNOR7107
012024061702LOGN3       010LOG-IN      ON      NM   R$  000000000355000000000035590000000003475000000000351300000000034750000000003475000000000352400205000000000000025000000000000087832300000000000000009999123100000010000000000000BRLOGNACNOR3105
012024061702LPSB3       010LOPES BRASILON      NM   R$  000000000018800000000001880000000000162000000000017300000000001680000000000168000000000016900517000000000000325400000000000056617200000000000000009999123100000010000000000000BRLPSBACNOR0114
012024061702LREN3       010LOJAS RENNERON      NM   R$  000000000127300000000012840000000001242000000000125600000000012420000000001242000000000124511532000000000008225100000000010333117800000000000000009999123100000010000000000000BRLRENACNOR1220
012024061702ALPA3       010ALPARGATAS  ON      N1   R$  000000000093000000000009300000000000900000000000091400000000009240000000000910000000000094900024000000000000014800000000000013537600000000000000009999123100000010000000000000BRALPAACNOR0231
012024061702ALPA4       010ALPARGATAS  PN      N1   R$  000000000091500000000009210000000000900000000000090600000000009000000000000900000000000090704343000000000002798400000000002535395300000000000000009999123100000010000000000000BRALPAACNPR7232
012024061702ALPK3       010ESTAPAR     ON      NM   R$  000000000028200000000002880000000000263000000000026800000000002630000000000262000000000026700641000000000000222100000000000059696200000000000000009999123100000010000000000000BRALPKACNOR9101
012024061702ALUP11      010ALUPAR      UNT     N2   R$  000000000293400000000029630000000002914000000000294000000000029510000000002938000000000295103200000000000000840200000000002470353800000000000000009999123100000010000000000000BRALUPCDAM15119
012024061702ALUP3       010ALUPAR      ON      N2   R$  000000000099200000000009990000000000979000000000098500000000009810000000000981000000000098800055000000000000007400000000000007289600000000000000009999123100000010000000000000BRALUPACNOR8119
012024061702ALUP4       010ALUPAR      PN      N2   R$  000000000097300000000009800000000000966000000000097300000000009700000000000970000000000098000069000000000000010800000000000010517800000000000000009999123100000010000000000000BRALUPACNPR5119
012024061702SAPR3       010SANEPAR     ON      N2   R$  000000000050100000000005010000000000494000000000049600000000004950000000000495000000000049600632000000000000259500000000000128784000000000000000009999123100000010000000000000BRSAPRACNOR9158
012024061702SAPR4       010SANEPAR     PN      N2   R$  000000000053100000000005350000000000526000000000052900000000005290000000000529000000000053001891000000000000799100000000000422909200000000000000009999123100000010000000000000BRSAPRACNPR6158
012024061702SBFG3       010GRUPO SBF   ON      NM   R$  000000000115900000000011750000000001122000000000114400000000011240000000001123000000000113005797000000000001976900000000002261843100000000000000009999123100000010000000000000BRSBFGACNOR1103
012024061702SBSP3       010SABESP      ON      NM   R$  000000000748200000000075150000000007423000000000747500000000074320000000007432000000000748009998000000000001908100000000014264044800000000000000009999123100000010000000000000BRSBSPACNOR5161
012024061702RADL3       010RAIADROGASILON      NM   R$  000000000257000000000025700000000002486000000000251700000000025070000000002505000000000251112702000000000005162700000000012997425000000000000000009999123100000010000000000000BRRADLACNOR0156
012024061702RAIL3       010RUMO S.A.   ON      NM   R$  000000000195300000000019600000000001926000000000193600000000019270000000001927000000000192910611000000000006933900000000013425051000000000000000009999123100000010000000000000BRRAILACNOR9105
012024061702VALE3       010VALE        ON      NM   R$  000000000600400000000060450000000005984000000000601500000000060380000000006037000000000603828584000000000013976100000000084074325400000000000000009999123100000010000000000000BRVALEACNOR0210
012024061702AMAR3       010LOJAS MARISAON  ES  NM   R$  000000000015600000000001590000000000146000000000015200000000001470000000000146000000000014700928000000000000763900000000000116648700000000000000009999123100000010000000000000BRAMARACNOR4115
012024061702AMBP3       010AMBIPAR     ON      NM   R$  000000000084000000000008510000000000822000000000083800000000008420000000000842000000000084902185000000000001009100000000000845777400000000000000009999123100000010000000000000BRAMBPACNOR6103
012024061702ANIM3       010ANIMA       ON      NM   R$  000000000032400000000003250000000000308000000000031400000000003130000000000313000000000031406553000000000004406100000000001383940800000000000000009999123100000010000000000000BRANIMACNOR6107
012024061702APER3       010ALPER S.A.  ON           R$  000000000435100000000043990000000004315000000000434300000000043150000000004300000000000435900012000000000000001800000000000007817600000000000000009999123100000010000000000000BRAPERACNOR9106
012024061702ARML3       010ARMAC       ON      NM   R$  000000000097300000000009730000000000929000000000094400000000009290000000000929000000000093202081000000000000499200000000000471258000000000000000009999123100000010000000000000BRARMLACNOR1111
012024061702BBDC3       010BRADESCO    ON      N1   R$  000000000113800000000011480000000001132000000000114200000000011420000000001142000000000114311140000000000007609800000000008696450000000000000000009999123100000010000000000000BRBBDCACNOR1770
012024061702BBDC4       010BRADESCO    PN      N1   R$  000000000128500000000013010000000001281000000000129400000000012970000000001296000000000129781099000000000059437200000000076949027900000000000000009999123100000010000000000000BRBBDCACNPR8770
012024061702CAML3       010CAMIL       ON      NM   R$  000000000089800000000009070000000000884000000000089400000000008960000000000894000000000089602546000000000000637700000000000570411500000000000000009999123100000010000000000000BRCAMLACNOR3128
012024061702CASH3       010MELIUZ      ON      NM   R$  000000000058400000000005850000000000565000000000057100000000005700000000000570000000000057403067000000000001195300000000000682588000000000000000009999123100000010000000000000BRCASHACNOR8106
012024061702CBAV3       010CBA         ON      NM   R$  000000000064700000000006600000000000613000000000062500000000006260000000000620000000000062606099000000000004582400000000002864181500000000000000009999123100000010000000000000BRCBAVACNOR5104
012024061702CCRO3       010CCR SA      ON      NM   R$  000000000115600000000011640000000001144000000000115300000000011440000000001144000000000115209324000000000008373200000000009662299700000000000000009999123100000010000000000000BRCCROACNOR2145
012024061702WLMM4       010WLM IND COM PN           R$  000000000308000000000030800000000003080000000000304900000000030800000000002700000000000307900002000000000000000200000000000000609900000000000000009999123100000010000000000000BRWLMMACNPR3118
012024061702YDUQ3       010YDUQS PART  ON      NM   R$  000000000111100000000011120000000001074000000000108500000000010780000000001077000000000107908083000000000003937700000000004274478300000000000000009999123100000010000000000000BRYDUQACNOR3105
012024061702ZAMP3       010ZAMP S.A.   ON           R$  000000000035100000000003530000000000334000000000034000000000003340000000000334000000000033901955000000000000580700000000000197763000000000000000009999123100000010000000000000BRZAMPACNOR5100
012024061702MRFG3       010MARFRIG     ON      NM   R$  000000000104800000000010480000000001016000000000102500000000010250000000001020000000000102512538000000000004985900000000005111589500000000000000009999123100000010000000000000BRMRFGACNOR0116
012024061702MRVE3       010MRV         ON      NM   R$  000000000068300000000006880000000000671000000000067900000000006770000000000676000000000067710273000000000006586100000000004472592400000000000000009999123100000010000000000000BRMRVEACNOR2127
012024061702PRNR3       010PRINER      ON      NM   R$  000000000102900000000010290000000000981000000000099700000000009810000000000981000000000098801074000000000000292100000000000291337700000000000000009999123100000010000000000000BRPRNRACNOR4109
012024061702CLSA3       010CLEARSALE   ON      NM   R$  000000000069000000000007160000000000659000000000068300000000007000000000000700000000000070103985000000000001839900000000001257993700000000000000009999123100000010000000000000BRCLSAACNOR0100
012024061702CLSC4       010CELESC      PN      N2   R$  000000000691600000000069190000000006850000000000687800000000068500000000006751000000000685000038000000000000007800000000000053652400000000000000009999123100000010000000000000BRCLSCACNPR3130
012024061702ENAT3       010ENAUTA PART ON      NM   R$  000000000203100000000020540000000002014000000000203400000000020370000000002032000000000203804515000000000001349000000000002744828000000000000000009999123100000010000000000000BRENATACNOR0104
012024061702ENEV3       010ENEVA       ON  ATZ NM   R$  000000000124000000000012500000000001229000000000123600000000012320000000001231000000000123211675000000000005232500000000006470284100000000000000009999123100000010000000000000BRENEVACNOR8106
012024061702ENGI11      010ENERGISA    UNT     N2   R$  000000000449100000000045090000000004406000000000444200000000044350000000004434000000000444506470000000000002136400000000009490080500000000000000009999123100000010000000000000BRENGICDAM16135
012024061702ENGI3       010ENERGISA    ON      N2   R$  000000000137600000000014030000000001333000000000136000000000013330000000001333000000000139800036000000000000005500000000000007483600000000000000009999123100000010000000000000BRENGIACNOR0145
012024061702ENGI4       010ENERGISA    PN      N2   R$  000000000078500000000008050000000000743000000000076700000000007430000000000743000000000075700066000000000000013700000000000010517700000000000000009999123100000010000000000000BRENGIACNPR7141
012024061702DXCO3       010DEXCO       ON      NM   R$  000000000066600000000006680000000000653000000000066100000000006580000000000658000000000066204169000000000001515100000000001002077800000000000000009999123100000010000000000000BRDXCOACNOR8105
012024061702ITUB3       010ITAUUNIBANCOON      N1   R$  000000000271500000000027780000000002715000000000275900000000027740000000002768000000000277701033000000000000290900000000000802628000000000000000009999123100000010000000000000BRITUBACNOR4336
012024061702ITUB4       010ITAUUNIBANCOPN      N1   R$  000000000314100000000032000000000003129000000000317400000000031900000000003187000000000319056963000000000026902400000000085391759700000000000000009999123100000010000000000000BRITUBACNPR1336
012024061702B3SA3       010B3          ON      NM   R$  000000000103000000000010570000000001029000000000104800000000010560000000001056000000000105730559000000000036269600000000038040483200000000000000009999123100000010000000000000BRB3SAACNOR6132
012024061702JSLG3       010JSL         ON      NM   R$  000000000090600000000009060000000000881000000000089300000000008890000000000886000000000089001195000000000000354300000000000316420800000000000000009999123100000010000000000000BRJSLGACNOR2121
012024061702KEPL3       010KEPLER WEBERON      NM   R$  000000000098800000000009880000000000973000000000097700000000009730000000000972000000000097901535000000000000504500000000000493288800000000000000009999123100000010000000000000BRKEPLACNOR1062
012024061702KLBN11      010KLABIN S/A  UNT     N2   R$  000000000202500000000020500000000002018000000000203300000000020340000000002033000000000203411011000000000003458500000000007032976900000000000000009999123100000010000000000000BRKLBNCDAM18142
012024061702KLBN3       010KLABIN S/A  ON      N2   R$  000000000040700000000004130000000000407000000000041000000000004080000000000407000000000040900643000000000000274100000000000112421300000000000000009999123100000010000000000000BRKLBNACNOR2170
012024061702KLBN4       010KLABIN S/A  PN      N2   R$  000000000040200000000004090000000000402000000000040500000000004040000000000404000000000040501823000000000001649900000000000669044900000000000000009999123100000010000000000000BRKLBNACNPR9170
012024061702BEEF3       010MINERVA     ON      NM   R$  000000000061300000000006160000000000605000000000060900000000006100000000000609000000000061104860000000000003729400000000002274757800000000000000009999123100000010000000000000BRBEEFACNOR6116
012024061702BPAC11      010BTGP BANCO  UNT     N2   R$  000000000317200000000031890000000003137000000000316200000000031670000000003160000000000316717176000000000007878500000000024915336500000000000000009999123100000010000000000000BRBPACUNT006118
012024061702BPAC3       010BTGP BANCO  ON      N2   R$  000000000156000000000015990000000001550000000000156900000000015810000000001574000000000167000049000000000000007500000000000011770200000000000000009999123100000010000000000000BRBPACACNOR7133
012024061702BPAC5       010BTGP BANCO  PNA     N2   R$  000000000077700000000008020000000000777000000000079400000000007990000000000786000000000080000028000000000000004000000000000003178300000000000000009999123100000010000000000000BRBPACACNPA0133
012024061702CPFE3       010CPFL ENERGIAON      NM   R$  000000000327000000000032700000000003225000000000323900000000032350000000003234000000000323503366000000000000625100000000002024801100000000000000009999123100000010000000000000BRCPFEACNOR0137
012024061702AERI3       010AERIS       ON      NM   R$  000000000063100000000006330000000000581000000000060100000000005810000000000581000000000058200880000000000000322400000000000194026300000000000000009999123100000010000000000000BRAERIACNOR4102
012024061702AESB3       010AES BRASIL  ON      NM   R$  000000000112300000000011270000000001121000000000112300000000011250000000001125000000000112602735000000000005911000000000006639130800000000000000009999123100000010000000000000BRAESBACNOR7106
012024061702AFLT3       010AFLUENTE T  ON           R$  000000000071900000000007190000000000719000000000071900000000007190000000000704000000000074900001000000000000000200000000000000143800000000000000009999123100000010000000000000BRAFLTACNOR1121
012024061702AGRO3       010BRASILAGRO  ON      NM   R$  000000000255000000000025790000000002525000000000255500000000025530000000002553000000000256701354000000000000228900000000000584928500000000000000009999123100000010000000000000BRAGROACNOR7114
012024061702AGXY3       010AGROGALAXY  ON      NM   R$  000000000009600000000000980000000000094000000000009500000000000950000000000094000000000009500379000000000000124800000000000011902100000000000000009999123100000010000000000000BRAGXYACNOR4103
012024061702AHEB3       010SPTURIS     ON           R$  000000000275000000000027500000000002750000000000275000000000027500000000002335000000000300000001000000000000000100000000000000275000000000000000009999123100000010000000000000BRAHEBACNOR0106
012024061702CXSE3       010CAIXA SEGURION      NM   R$  000000000144300000000014490000000001409000000000142500000000014230000000001422000000000142308350000000000003013800000000004296742200000000000000009999123100000010000000000000BRCXSEACNOR7106
012024061702CYRE3       010CYRELA REALTON      NM   R$  000000000190000000000019040000000001870000000000188100000000018700000000001869000000000187610622000000000003272100000000006156017000000000000000009999123100000010000000000000BRCYREACNOR7140
012024061702FRAS3       010FRAS-LE     ON      N1   R$  000000000169700000000017190000000001681000000000170000000000017050000000001696000000000170500877000000000000192500000000000327285500000000000000009999123100000010000000000000BRFRASACNOR0159
012024061702RDNI3       010RNI         ON      NM   R$  000000000032500000000003270000000000308000000000031800000000003160000000000316000000000031900029000000000000007600000000000002421900000000000000009999123100000010000000000000BRRDNIACNOR9116
012024061702RDOR3       010REDE D OR   ON      NM   R$  000000000266100000000026770000000002542000000000258300000000025540000000002554000000000255913344000000000007800100000000020149399500000000000000009999123100000010000000000000BRRDORACNOR8112
012024061702RECV3       010PETRORECSA  ON  EJ  NM   R$  000000000180500000000018400000000001775000000000181200000000018100000000001810000000000181107662000000000002205300000000003996406500000000000000009999123100000010000000000000BRRECVACNOR3107
012024061702SUZB3       010SUZANO S.A. ON  ATZ NM   R$  000000000489000000000048980000000004835000000000485500000000048510000000004851000000000485215281000000000003995800000000019401754900000000000000009999123100000010000000000000BRSUZBACNOR0130
012024061702MYPK3       010IOCHP-MAXIONON      NM   R$  000000000106600000000010820000000001050000000000107000000000010730000000001070000000000107304033000000000001163300000000001245411500000000000000009999123100000010000000000000BRMYPKACNOR7154
012024061702ALLD3       010ALLIED      ON      NM   R$  000000000070000000000007000000000000682000000000068800000000006880000000000682000000000069000315000000000000074400000000000051227900000000000000009999123100000010000000000000BRALLDACNOR3106
012024061702ALOS3       010ALLOS       ON      NM   R$  000000000207000000000020870000000002046000000000206800000000020650000000002064000000000207310283000000000004151400000000008586891800000000000000009999123100000010000000000000BRALOSACNOR5101
012024061702BRSR3       010BANRISUL    ON  EJ  N1   R$  000000000114600000000011460000000001116000000000112600000000011200000000001120000000000114100034000000000000005000000000000005631700000000000000009999123100000010000000000000BRBRSRACNOR3188
012024061702BRSR6       010BANRISUL    PNB EJ  N1   R$  000000000108500000000010950000000001074000000000108500000000010820000000001082000000000108303803000000000000909600000000000986966800000000000000009999123100000010000000000000BRBRSRACNPB4191
012024061702BSLI3       010BRB BANCO   ON           R$  000000000092000000000009210000000000920000000000092000000000009210000000000920000000000092100003000000000000000300000000000000276200000000000000009999123100000010000000000000BRBSLIACNOR5194
012024061702BSLI4       010BRB BANCO   PN           R$  000000000096000000000009600000000000960000000000096000000000009600000000000951000000000103400001000000000000000100000000000000096000000000000000009999123100000010000000000000BRBSLIACNPR2194
012024061702GFSA3       010GAFISA      ON      NM   R$  000000000036000000000003630000000000338000000000034700000000003440000000000343000000000034402443000000000001618400000000000562297800000000000000009999123100000010000000000000BRGFSAACNOR3124
012024061702GGBR3       010GERDAU      ON      N1   R$  000000000152000000000015490000000001503000000000151100000000015100000000001509000000000152000315000000000000077400000000000116974200000000000000009999123100000010000000000000BRGGBRACNOR1192
012024061702GGBR4       010GERDAU      PN      N1   R$  000000000168900000000016950000000001668000000000168000000000016890000000001688000000000169014263000000000007319800000000012300425600000000000000009999123100000010000000000000BRGGBRACNPR8192
012024061702LUPA3       010LUPATECH    ON      NM   R$  000000000016000000000001640000000000159000000000016100000000001630000000000162000000000016300133000000000000151600000000000024445400000000000000009999123100000010000000000000BRLUPAACNOR8112
012024061702LVTC3       010WDC NETWORKSON      NM   R$  000000000033600000000003450000000000325000000000033400000000003320000000000326000000000033200051000000000000027700000000000009270900000000000000009999123100000010000000000000BRLVTCACNOR4102
012024061702LWSA3       010LWSA        ON      NM   R$  000000000041700000000004180000000000402000000000040700000000004020000000000402000000000040307891000000000007537900000000003068101300000000000000009999123100000010000000000000BRLWSAACNOR8103
012024061702MATD3       010MATER DEI   ON      NM   R$  000000000048100000000004810000000000462000000000046900000000004620000000000462000000000046402424000000000000599100000000000281402000000000000000009999123100000010000000000000BRMATDACNOR4104
012024061702CAMB3       010CAMBUCI     ON  EJ       R$  000000000104500000000010490000000001012000000000102800000000010410000000001040000000000104100097000000000000022500000000000023151400000000000000009999123100000010000000000000BRCAMBACNOR4130
012024061702ELMD3       010ELETROMIDIA ON      NM   R$  000000000176200000000017640000000001716000000000173400000000017250000000001725000000000172700510000000000000082500000000000143129100000000000000009999123100000010000000000000BRELMDACNOR3101
012024061702EMAE4       010EMAE        PN           R$  000000000467900000000046790000000004602000000000462200000000046630000000004589000000000467000009000000000000001300000000000006009300000000000000009999123100000010000000000000BREMAEACNPR1125
012024061702EMBR3       010EMBRAER     ON      NM   R$  000000000371200000000037900000000003674000000000374700000000037680000000003768000000000376916580000000000006666600000000024983009000000000000000009999123100000010000000000000BREMBRACNOR4191
012024061702MBLY3       010MOBLY       ON      NM   R$  000000000020900000000002150000000000209000000000021100000000002110000000000211000000000021400116000000000000290900000000000061426500000000000000009999123100000010000000000000BRMBLYACNOR5100
012024061702MDIA3       010M.DIASBRANCOON  EJ  NM   R$  000000000301200000000030600000000003003000000000302900000000030250000000003024000000000303002132000000000000404800000000001226423600000000000000009999123100000010000000000000BRMDIAACNOR7135
012024061702MDNE3       010MOURA DUBEUXON      NM   R$  000000000103800000000010380000000001008000000000101700000000010140000000001013000000000101800895000000000000236700000000000240753300000000000000009999123100000010000000000000BRMDNEACNOR9100
012024061702MEAL3       010IMC S/A     ON      NM   R$  000000000012500000000001260000000000121000000000012200000000001220000000000122000000000012300619000000000000412200000000000050424700000000000000009999123100000010000000000000BRMEALACNOR9105
012024061702MELK3       010MELNICK     ON      NM   R$  000000000036300000000003670000000000358000000000036100000000003620000000000361000000000036200663000000000000244300000000000088319800000000000000009999123100000010000000000000BRMELKACNOR8111
012024061702AURE3       010AUREN       ON      NM   R$  000000000122000000000012250000000001211000000000121500000000012130000000001212000000000121705107000000000002677800000000003254833200000000000000009999123100000010000000000000BRAUREACNOR9104
012024061702AVLL3       010ALPHAVILLE  ON      NM   R$  000000000032000000000003290000000000320000000000032400000000003290000000000301000000000032900002000000000000000200000000000000064900000000000000009999123100000010000000000000BRAVLLACNOR5103
012024061702AZEV3       010AZEVEDO     ON           R$  000000000012600000000001280000000000121000000000012400000000001220000000000122000000000012300492000000000000484100000000000060233500000000000000009999123100000010000000000000BRAZEVACNOR0121
012024061702AZEV4       010AZEVEDO     PN           R$  000000000011900000000001220000000000113000000000011500000000001130000000000113000000000011400886000000000002443000000000000283358500000000000000009999123100000010000000000000BRAZEVACNPR7121
012024061702AZUL4       010AZUL        PN      N2   R$  000000000090800000000009140000000000891000000000090200000000009000000000000899000000000090007302000000000008283300000000007474176700000000000000009999123100000010000000000000BRAZULACNPR4102
012024061702HAGA3       010HAGA S/A    ON           R$  000000000026500000000002760000000000256000000000026200000000002760000000000256000000000027500064000000000000031200000000000008201500000000000000009999123100000010000000000000BRHAGAACNOR7103
012024061702HAGA4       010HAGA S/A    PN           R$  000000000011700000000001200000000000117000000000011800000000001200000000000118000000000011900014000000000000003800000000000000449200000000000000009999123100000010000000000000BRHAGAACNPR4103
012024061702HAPV3       010HAPVIDA     ON      NM   R$  000000000037200000000003740000000000364000000000036800000000003660000000000366000000000036729352000000000050061400000000018472524800000000000000009999123100000010000000000000BRHAPVACNOR4114
012024061702HBOR3       010HELBOR      ON      NM   R$  000000000021400000000002140000000000204000000000020900000000002040000000000204000000000020500616000000000000354000000000000074323300000000000000009999123100000010000000000000BRHBORACNOR3118
012024061702HBRE3       010HBR REALTY  ON      NM   R$  000000000048000000000004800000000000457000000000046600000000004570000000000457000000000045800554000000000000334000000000000155784900000000000000009999123100000010000000000000BRHBREACNOR4100
012024061702HBSA3       010HIDROVIAS   ON      NM   R$  000000000035600000000003610000000000351000000000035500000000003530000000000352000000000035403072000000000002859200000000001016688700000000000000009999123100000010000000000000BRHBSAACNOR0100
012024061702HBTS5       010HABITASUL   PNA          R$  000000000362000000000036200000000003620000000000362000000000036200000000003515000000000362000004000000000000000500000000000001810000000000000000009999123100000010000000000000BRHBTSACNPA3128
012024061702JALL3       010JALLESMACHADON      NM   R$  000000000065500000000006570000000000648000000000065200000000006520000000000651000000000065301378000000000000394700000000000257375000000000000000009999123100000010000000000000BRJALLACNOR0105
012024061702JBSS3       010JBS         ON      NM   R$  000000000286200000000028680000000002777000000000279900000000027830000000002783000000000278415771000000000006752900000000018907970000000000000000009999123100000010000000000000BRJBSSACNOR8121
012024061702MILS3       010MILLS       ON      NM   R$  000000000101500000000010250000000001005000000000101400000000010110000000001011000000000101403390000000000000973600000000000987934900000000000000009999123100000010000000000000BRMILSACNOR2126
012024061702MLAS3       010MULTILASER  ON      NM   R$  000000000019700000000002000000000000191000000000019400000000001950000000000194000000000019607129000000000003767900000000000732745000000000000000009999123100000010000000000000BRMLASACNOR9101
012024061702MNDL3       010MUNDIAL     ON           R$  000000000117000000000011900000000001170000000000117500000000011900000000001170000000000121400002000000000000000400000000000000470000000000000000009999123100000010000000000000BRMNDLACNOR4109
012024061702MNPR3       010MINUPAR     ON           R$  000000000110000000000011000000000001032000000000104200000000010320000000001020000000000105000007000000000000000900000000000000938400000000000000009999123100000010000000000000BRMNPRACNOR5122
012024061702MOVI3       010MOVIDA      ON      NM   R$  000000000060200000000006030000000000584000000000058900000000005840000000000584000000000058905529000000000002952700000000001741663600000000000000009999123100000010000000000000BRMOVIACNOR0122
012024061702BAZA3       010AMAZONIA    ON           R$  000000000903400000000090350000000008973000000000902200000000090350000000009000000000000917900004000000000000000400000000000003609100000000000000009999123100000010000000000000BRBAZAACNOR0179
012024061702BBAS3       010BRASIL      ON  EDJ NM   R$  000000000264500000000026480000000002622000000000263800000000026450000000002644000000000264530456000000000010363900000000027347269000000000000000009999123100000010000000000000BRBBASACNOR3324
012024061702BIOM3       010BIOMM       ON      MA   R$  000000000138900000000014060000000001340000000000139200000000014050000000001399000000000140500601000000000000157700000000000219621900000000000000009999123100000010000000000000BRBIOMACNOR2112
012024061702BRBI11      010BR PARTNERS UNT     N2   R$  000000000132900000000013290000000001292000000000130300000000012930000000001292000000000129301812000000000000359200000000000468084300000000000000009999123100000010000000000000BRBRBICDAM10109
012024061702BRFS3       010BRF SA      ON      NM   R$  000000000184900000000018610000000001813000000000183000000000018190000000001818000000000181912903000000000005236900000000009585684800000000000000009999123100000010000000000000BRBRFSACNOR8122
012024061702EALT3       010ACO ALTONA  ON           R$  000000000112000000000011200000000001120000000000112000000000011200000000000720000000000114200001000000000000000100000000000000112000000000000000009999123100000010000000000000BREALTACNOR4138
012024061702EALT4       010ACO ALTONA  PN           R$  000000000113400000000011450000000001121000000000113100000000011330000000001116000000000113400016000000000000002300000000000002603000000000000000009999123100000010000000000000BREALTACNPR1138
012024061702ECOR3       010ECORODOVIAS ON      NM   R$  000000000062500000000006270000000000615000000000061900000000006200000000000619000000000062005777000000000003919700000000002429993700000000000000009999123100000010000000000000BRECORACNOR8120
012024061702EGIE3       010ENGIE BRASILON      NM   R$  000000000441600000000044410000000004369000000000439000000000043840000000004381000000000438504029000000000000734600000000003225134600000000000000009999123100000010000000000000BREGIEACNOR9126
012024061702GGPS3       010GPS         ON      NM   R$  000000000175200000000017560000000001720000000000173300000000017250000000001725000000000172602360000000000001503800000000002606453000000000000000009999123100000010000000000000BRGGPSACNOR9103
012024061702GMAT3       010GRUPO MATEUSON  EJ  NM   R$  000000000071500000000007250000000000712000000000071600000000007120000000000711000000000071805802000000000003316500000000002376660700000000000000009999123100000010000000000000BRGMATACNOR7102
012024061702GOAU3       010GERDAU MET  ON      N1   R$  000000000101700000000010180000000001005000000000100800000000010080000000001008000000000101100177000000000000068700000000000069289800000000000000009999123100000010000000000000BRGOAUACNOR1267
012024061702GOAU4       010GERDAU MET  PN      N1   R$  000000000099500000000009980000000000984000000000098800000000009900000000000988000000000099009041000000000007007400000000006927190700000000000000009999123100000010000000000000BRGOAUACNPR8268
012024061702BEES3       010BANESTES    ON           R$  000000000087500000000008750000000000869000000000087200000000008710000000000871000000000087400077000000000000012100000000000010558800000000000000009999123100000010000000000000BRBEESACNOR9391
012024061702BEES4       010BANESTES    PN           R$  000000000093500000000009410000000000935000000000093700000000009390000000000937000000000094000014000000000000002200000000000002063100000000000000009999123100000010000000000000BRBEESACNPR6316
012024061702PATI3       010PANATLANTICAON           R$  000000000260000000000026000000000002600000000000260000000000026000000000002500000000000270000001000000000000000100000000000000260000000000000000009999123100000010000000000000BRPATIACNOR6065
012024061702PCAR3       010P.ACUCAR-CBDON      NM   R$  000000000030200000000003070000000000293000000000029700000000002930000000000293000000000029406167000000000008277800000000002466521500000000000000009999123100000010000000000000BRPCARACNOR3167
012024061702RAPT3       010RANDON PART ON      N1   R$  000000000079000000000007910000000000774000000000077700000000007740000000000774000000000078100121000000000000032600000000000025335100000000000000009999123100000010000000000000BRRAPTACNOR7162
012024061702RAPT4       010RANDON PART PN      N1   R$  000000000092300000000009290000000000902000000000091200000000009020000000000902000000000091203104000000000001301800000000001188219700000000000000009999123100000010000000000000BRRAPTACNPR4162
012024061702UCAS3       010UNICASA     ON      NM   R$  000000000021700000000002190000000000214000000000021500000000002160000000000216000000000021800060000000000000043900000000000009460100000000000000009999123100000010000000000000BRUCASACNOR1113
012024061702UGPA3       010ULTRAPAR    ON      NM   R$  000000000215700000000021830000000002140000000000216000000000021570000000002151000000000215710956000000000003383200000000007307729700000000000000009999123100000010000000000000BRUGPAACNOR8155
012024061702UNIP3       010UNIPAR      ON           R$  000000000484900000000048920000000004795000000000484300000000048800000000004855000000000488000065000000000000008300000000000040197500000000000000009999123100000010000000000000BRUNIPACNOR7206
012024061702UNIP5       010UNIPAR      PNA          R$  000000000541600000000054160000000005415000000000541500000000054150000000005132000000000549000005000000000000000500000000000002707700000000000000009999123100000010000000000000BRUNIPACNPA0208
012024061702UNIP6       010UNIPAR      PNB          R$  000000000486300000000049410000000004800000000000487800000000049000000000004899000000000490500893000000000000142800000000000696670800000000000000009999123100000010000000000000BRUNIPACNPB8206
012024061702USIM3       010USIMINAS    ON      N1   R$  000000000067000000000006700000000000659000000000066500000000006660000000000665000000000066600759000000000000451000000000000300076600000000000000009999123100000010000000000000BRUSIMACNOR3167
012024061702VIVR3       010VIVER       ON      NM   R$  000000000020000000000002040000000000196000000000019800000000001980000000000196000000000019800191000000000000259200000000000051388600000000000000009999123100000010000000000000BRVIVRACNOR4122
012024061702VIVT3       010TELEF BRASILON           R$  000000000446700000000044810000000004418000000000444100000000044300000000004430000000000444110329000000000001799600000000007992182100000000000000009999123100000010000000000000BRVIVTACNOR0181
012024061702VLID3       010VALID       ON      NM   R$  000000000155200000000015520000000001504000000000152400000000015320000000001518000000000153202110000000000000304700000000000464594000000000000000009999123100000010000000000000BRVLIDACNOR5143
012024061702VSTE3       010VESTE       ON      NM   R$  000000000170500000000017090000000001681000000000169800000000017000000000001676000000000170000050000000000000016600000000000028199400000000000000009999123100000010000000000000BRVSTEACNOR5103
012024061702VTRU3       010VITRUEDUCA  ON      NM   R$  000000000161500000000016400000000001515000000000159500000000016400000000001613000000000164000665000000000000178300000000000284396300000000000000009999123100000010000000000000BRVTRUACNOR3100
012024061702VULC3       010VULCABRAS   ON      NM   R$  000000000146000000000014790000000001440000000000146500000000014680000000001466000000000147503593000000000000694400000000001017702500000000000000009999123100000010000000000000BRVULCACNOR2159
012024061702VVEO3       010VIVEO       ON      NM   R$  000000000021600000000002190000000000203000000000020700000000002040000000000203000000000020602513000000000001685100000000000349682300000000000000009999123100000010000000000000BRVVEOACNOR0104
012024061702WEGE3       010WEG         ON      NM   R$  000000000386000000000039270000000003840000000000388200000000038770000000003875000000000387717452000000000006603100000000025633270600000000000000009999123100000010000000000000BRWEGEACNOR0222
012024061702PRIO3       010PETRORIO    ON      NM   R$  000000000418900000000042300000000004126000000000417500000000041720000000004172000000000418023304000000000007714000000000032210799300000000000000009999123100000010000000000000BRPRIOACNOR1106
012024061702RSUL4       010RIOSULENSE  PN           R$  000000000676000000000068670000000006741000000000680900000000068500000000006740000000000690000017000000000000001700000000000011575900000000000000009999123100000010000000000000BRRSULACNPR3114
012024061702CEAB3       010CEA MODAS   ON      NM   R$  000000000094800000000009670000000000931000000000095200000000009600000000000960000000000096105193000000000003062700000000002917591800000000000000009999123100000010000000000000BRCEABACNOR1102
012024061702CEBR3       010CEB         ON           R$  000000000201600000000020340000000002015000000000202400000000020280000000002028000000000203200024000000000000003300000000000006681500000000000000009999123100000010000000000000BRCEBRACNOR5125
012024061702CEBR5       010CEB         PNA          R$  000000000183900000000018390000000001815000000000182600000000018150000000001816000000000181800004000000000000000400000000000000730600000000000000009999123100000010000000000000BRCEBRACNPA8124
012024061702CEBR6       010CEB         PNB          R$  000000000201600000000020160000000001945000000000195400000000019450000000001938000000000198000033000000000000008400000000000016421300000000000000009999123100000010000000000000BRCEBRACNPB6124
012024061702CEEB3       010COELBA      ON           R$  000000000395700000000039570000000003900000000000391000000000039000000000003860000000000395500008000000000000001000000000000003910300000000000000009999123100000010000000000000BRCEEBACNOR3198
012024061702CGAS5       010COMGAS      PNA          R$  000000001114100000000116990000000011098000000001118400000000111000000000011000000000001110000031000000000000003900000000000043619200000000000000009999123100000010000000000000BRCGASACNPA3160
012024061702CGRA3       010GRAZZIOTIN  ON           R$  000000000245800000000024580000000002451000000000245400000000024510000000002450000000000247000005000000000000000600000000000001472900000000000000009999123100000010000000000000BRCGRAACNOR2082
012024061702CGRA4       010GRAZZIOTIN  PN           R$  000000000254700000000025470000000002500000000000250800000000025140000000002509000000000251400030000000000000005400000000000013546100000000000000009999123100000010000000000000BRCGRAACNPR9082
012024061702CIEL3       010CIELO       ON      NM   R$  000000000056200000000005650000000000561000000000056200000000005650000000000564000000000056506722000000000045453500000000025582517600000000000000009999123100000010000000000000BRCIELACNOR3157
012024061702NTCO3       010GRUPO NATURAON      NM   R$  000000000148000000000014850000000001448000000000146000000000014540000000001452000000000145910023000000000005623500000000008210586100000000000000009999123100000010000000000000BRNTCOACNOR5106
012024061702RAIZ4       010RAIZEN      PN      N2   R$  000000000027800000000002810000000000272000000000027600000000002780000000000278000000000027913505000000000012943300000000003577750800000000000000009999123100000010000000000000BRRAIZACNPR6110
012024061702RANI3       010IRANI       ON      NM   R$  000000000082800000000008340000000000820000000000082600000000008330000000000829000000000083301854000000000000482500000000000398716600000000000000009999123100000010000000000000BRRANIACNOR5072
012024061702SMFT3       010SMART FIT   ON      NM   R$  000000000215100000000021880000000002144000000000216000000000021550000000002155000000000216807157000000000002864800000000006188936600000000000000009999123100000010000000000000BRSMFTACNOR1111
012024061702SMTO3       010SAO MARTINHOON      NM   R$  000000000305800000000031150000000003051000000000309700000000031150000000003108000000000311507134000000000001849000000000005727503500000000000000009999123100000010000000000000BRSMTOACNOR3125
012024061702STBP3       010SANTOS BRP  ON      NM   R$  000000000117900000000011980000000001167000000000118700000000011880000000001187000000000119005948000000000005997700000000007121803300000000000000009999123100000010000000000000BRSTBPACNOR3130
012024061702MTRE3       010MITRE REALTYON      NM   R$  000000000034600000000003470000000000339000000000034200000000003420000000000340000000000034201839000000000000887400000000000304274100000000000000009999123100000010000000000000BRMTREACNOR6111
012024061702MTSA4       010METISA      PN           R$  000000000399000000000040360000000003967000000000400200000000040360000000003942000000000403700015000000000000003100000000000012407800000000000000009999123100000010000000000000BRMTSAACNPR9072
012024061702MULT3       010MULTIPLAN   ON      N2   R$  000000000224600000000022460000000002215000000000222300000000022150000000002215000000000222508993000000000001813700000000004033344300000000000000009999123100000010000000000000BRMULTACNOR5138
012024061702FESA4       010FERBASA     PN  EJ  N1   R$  000000000076700000000007690000000000755000000000076000000000007610000000000760000000000076102164000000000000674400000000000512967200000000000000009999123100000010000000000000BRFESAACNPR5084
012024061702FHER3       010FER HERINGERON      NM   R$  000000000037500000000003750000000000371000000000037300000000003750000000000374000000000037500013000000000000002100000000000000785300000000000000009999123100000010000000000000BRFHERACNOR5103
012024061702FIQE3       010UNIFIQUE    ON  EDJ NM   R$  000000000034500000000003520000000000336000000000034300000000003430000000000342000000000034301115000000000000684700000000000235010100000000000000009999123100000010000000000000BRFIQEACNOR5107
012024061702FLRY3       010FLEURY      ON      NM   R$  000000000142200000000014250000000001394000000000140000000000013980000000001398000000000140204642000000000001402300000000001964551400000000000000009999123100000010000000000000BRFLRYACNOR5138
012024061702ATOM3       010ATOMPAR     ON           R$  000000000020100000000002050000000000198000000000020000000000001980000000000197000000000019800032000000000000008500000000000001701000000000000000009999123100000010000000000000BRATOMACNOR1106
012024061702CMIG3       010CEMIG       ON      N1   R$  000000000122800000000012400000000001220000000000123000000000012400000000001226000000000124001152000000000000306200000000000376756600000000000000009999123100000010000000000000BRCMIGACNOR6241
012024061702CMIG4       010CEMIG       PN      N1   R$  000000000100200000000010130000000001001000000000100600000000010070000000001006000000000100817275000000000009044600000000009101809200000000000000009999123100000010000000000000BRCMIGACNPR3242
012024061702CMIN3       010CSNMINERACAOON      N2   R$  000000000048200000000004900000000000480000000000048500000000004860000000000486000000000048706428000000000004200500000000002038416600000000000000009999123100000010000000000000BRCMINACNOR2111
012024061702CSED3       010CRUZEIRO EDUON      NM   R$  000000000038500000000003850000000000368000000000037400000000003700000000000370000000000037301125000000000000375700000000000140744500000000000000009999123100000010000000000000BRCSEDACNOR9104
012024061702CSMG3       010COPASA      ON      NM   R$  000000000196100000000019980000000001954000000000197700000000019830000000001982000000000198303314000000000000971700000000001921370700000000000000009999123100000010000000000000BRCSMGACNOR5173
012024061702CSNA3       010SID NACIONALON           R$  000000000118600000000012070000000001179000000000119300000000011910000000001191000000000119212134000000000004505000000000005375096000000000000000009999123100000010000000000000BRCSNAACNOR6261
012024061702ENJU3       010ENJOEI      ON      NM   R$  000000000021600000000002170000000000211000000000021400000000002160000000000214000000000021600555000000000000391200000000000083952500000000000000009999123100000010000000000000BRENJUACNOR9100
012024061702ENMT4       010ENERGISA MT PN           R$  000000000599000000000060000000000005990000000000599700000000060000000000005700000000000613000004000000000000000400000000000002398900000000000000009999123100000010000000000000BRENMTACNPR2125
012024061702EPAR3       010EMBPAR S/A  ON           R$  000000000059100000000005990000000000583000000000058800000000005980000000000587000000000059800049000000000000012900000000000007592200000000000000009999123100000010000000000000BREPARACNOR9105
012024061702KRSA3       010KORA SAUDE  ON      NM   R$  000000000005400000000000560000000000052000000000005400000000000540000000000054000000000005500353000000000000786300000000000042964600000000000000009999123100000010000000000000BRKRSAACNOR0100
012024061702PDGR3       010PDG REALT   ON      NM   R$  000000000001900000000000200000000000019000000000001900000000000200000000000019000000000002000280000000000000625300000000000012320700000000000000009999123100000010000000000000BRPDGRACNOR8118
012024061702PDTC3       010PADTEC      ON      NM   R$  000000000018800000000001880000000000181000000000018100000000001820000000000181000000000018200057000000000000022500000000000004091200000000000000009999123100000010000000000000BRPDTCACNOR3101
012024061702PETR3       010PETROBRAS   ON  EDJ N2   R$  000000000364900000000036720000000003624000000000364800000000036650000000003665000000000366633651000000000020157600000000073535340500000000000000009999123100000010000000000000BRPETRACNOR9205
012024061702PETR4       010PETROBRAS   PN  EDJ N2   R$  000000000344100000000035130000000003427000000000347500000000034810000000003481000000000348458821000000000040941800000000142286088800000000000000009999123100000010000000000000BRPETRACNPR6213
012024061702PETZ3       010PETZ        ON      NM   R$  000000000034700000000003480000000000339000000000034200000000003410000000000340000000000034106161000000000005623100000000001923827500000000000000009999123100000010000000000000BRPETZACNOR2110
012024061702REDE3       010REDE ENERGIAON           R$  000000000067100000000006710000000000664000000000066600000000006640000000000663000000000066900006000000000000000600000000000000399700000000000000009999123100000010000000000000BRREDEACNOR7127
012024061702RENT3       010LOCALIZA    ON      NM   R$  000000000400900000000040090000000003925000000000396600000000039400000000003938000000000394116003000000000008040300000000031895444900000000000000009999123100000010000000000000BRRENTACNOR4195
012024061702SYNE3       010SYN PROP TECON      NM   R$  000000000086000000000008850000000000854000000000086500000000008670000000000860000000000086800941000000000000272400000000000235654700000000000000009999123100000010000000000000BRSYNEACNOR2102
012024061702TTEN3       0103TENTOS     ON      NM   R$  000000000099700000000010050000000000986000000000099500000000009870000000000987000000000099704895000000000000970200000000000965495100000000000000009999123100000010000000000000BRTTENACNOR0103
012024061702TUPY3       010TUPY        ON      NM   R$  000000000214700000000021610000000002124000000000213300000000021300000000002130000000000213302268000000000000516300000000001101557100000000000000009999123100000010000000000000BRTUPYACNOR1184
012024061702VAMO3       010VAMOS       ON      NM   R$  000000000072700000000007290000000000706000000000071300000000007060000000000706000000000070809348000000000003992100000000002849954900000000000000009999123100000010000000000000BRVAMOACNOR7105
012024061702VBBR3       010VIBRA       ON      NM   R$  000000000207000000000020730000000002019000000000203300000000020190000000002019000000000202512928000000000003644400000000007410031500000000000000009999123100000010000000000000BRVBBRACNOR1107
012024061702RCSL3       010RECRUSUL    ON           R$  000000000034500000000003490000000000312000000000033300000000003130000000000313000000000031401837000000000000671300000000000223580900000000000000009999123100000010000000000000BRRCSLACNOR4134
012024061702RCSL4       010RECRUSUL    PN           R$  000000000011800000000001230000000000115000000000011800000000001170000000000116000000000011700816000000000000731800000000000086693700000000000000009999123100000010000000000000BRRCSLACNPR1134
012024061702VITT3       010VITTIA      ON      NM   R$  000000000054200000000005420000000000523000000000053100000000005300000000000530000000000053101827000000000000521900000000000277170500000000000000009999123100000010000000000000BRVITTACNOR4107
012024061702HYPE3       010HYPERA      ON      NM   R$  000000000287400000000028860000000002850000000000286900000000028700000000002870000000000287404431000000000002850700000000008180883900000000000000009999123100000010000000000000BRHYPEACNOR0141
012024061702JHSF3       010JHSF PART   ON      NM   R$  000000000037500000000003780000000000369000000000037300000000003740000000000373000000000037403526000000000010654900000000003974495100000000000000009999123100000010000000000000BRJHSFACNOR2136
012024061702AALR3       010ALLIAR      ON      NM   R$  000000000097000000000010080000000000963000000000099700000000010050000000000980000000000100500145000000000000072800000000000072607400000000000000009999123100000010000000000000BRAALRACNOR6102
012024061702ABCB4       010ABC BRASIL  PN      N2   R$  000000000209600000000021060000000002080000000000208900000000020870000000002087000000000209701384000000000000269700000000000563429000000000000000009999123100000010000000000000BRABCBACNPR4145
012024061702ABEV3       010AMBEV S/A   ON           R$  000000000112100000000011330000000001119000000000112600000000011240000000001123000000000112434269000000000018072300000000020362978800000000000000009999123100000010000000000000BRABEVACNOR1127
012024061702VIVA3       010VIVARA S.A. ON      NM   R$  000000000202800000000020370000000001990000000000200400000000019950000000001995000000000200007366000000000003171900000000006357083800000000000000009999123100000010000000000000BRVIVAACNOR0107
012024061702PFRM3       010PROFARMA    ON      NM   R$  000000000053500000000005350000000000521000000000052500000000005280000000000523000000000052800545000000000000161900000000000085148100000000000000009999123100000010000000000000BRPFRMACNOR1116
012024061702PGMN3       010PAGUE MENOS ON      NM   R$  000000000022400000000002250000000000220000000000022100000000002200000000000220000000000022100745000000000000351500000000000077719400000000000000009999123100000010000000000000BRPGMNACNOR8103
012024061702PINE4       010PINE        PN      N2   R$  000000000040500000000004110000000000399000000000040400000000004030000000000403000000000040900409000000000000142900000000000057792700000000000000009999123100000010000000000000BRPINEACNPR8149
012024061702PLAS3       010PLASCAR PARTON           R$  000000000051600000000005160000000000511000000000051400000000005110000000000499000000000059500003000000000000000300000000000000154300000000000000009999123100000010000000000000BRPLASACNOR2106
012024061702BLAU3       010BLAU        ON      NM   R$  000000000100000000000010030000000000985000000000099400000000009920000000000992000000000099400878000000000000138600000000000137893200000000000000009999123100000010000000000000BRBLAUACNOR8113
012024061702TASA3       010TAURUS ARMASON      N2   R$  000000000110200000000011150000000001101000000000110700000000011030000000001103000000000111100050000000000000007700000000000008524500000000000000009999123100000010000000000000BRTASAACNOR7104
012024061702TASA4       010TAURUS ARMASPN      N2   R$  000000000107000000000011000000000001068000000000108100000000010900000000001086000000000109001201000000000000423400000000000457933600000000000000009999123100000010000000000000BRTASAACNPR4104
012024061702TCSA3       010TECNISA     ON      NM   R$  000000000020200000000002070000000000195000000000019900000000001980000000000197000000000019800171000000000000095100000000000018944900000000000000009999123100000010000000000000BRTCSAACNOR3112
012024061702TECN3       010TECHNOS     ON      NM   R$  000000000043200000000004430000000000422000000000042700000000004230000000000423000000000042700222000000000000100000000000000042758700000000000000009999123100000010000000000000BRTECNACNOR6109
012024061702TELB3       010TELEBRAS    ON           R$  000000000134000000000013400000000001340000000000134000000000013400000000001270000000000134000002000000000000000200000000000000268000000000000000009999123100000010000000000000BRTELBACNOR2140
012024061702TELB4       010TELEBRAS    PN           R$  000000000091900000000009200000000000890000000000090000000000008900000000000889000000000090000008000000000000000900000000000000810000000000000000009999123100000010000000000000BRTELBACNPR9140
012024061702TEND3       010TENDA       ON      NM   R$  000000000112200000000011340000000001103000000000111500000000011090000000001109000000000111004521000000000001606900000000001791861200000000000000009999123100000010000000000000BRTENDACNOR4111
012024061702TFCO4       010TRACK FIELD PN      N2   R$  000000000115700000000011600000000001141000000000114600000000011410000000001141000000000115300187000000000000055500000000000063655000000000000000009999123100000010000000000000BRTFCOACNPR8113
012024061702TGMA3       010TEGMA       ON      NM   R$  000000000232600000000023400000000002300000000000231800000000023270000000002313000000000232703508000000000000773800000000001794023900000000000000009999123100000010000000000000BRTGMAACNOR7144
012024061702TIMS3       010TIM         ON      NM   R$  000000000157600000000015800000000001544000000000155500000000015530000000001551000000000156015115000000000004954200000000007706784000000000000000009999123100000010000000000000BRTIMSACNOR5116
012024061702BMEB3       010MERCANTIL   ON      N1   R$  000000000252000000000025200000000002520000000000252000000000025200000000001701000000000260000003000000000000003000000000000007560000000000000000009999123100000010000000000000BRBMEBACNOR8205
012024061702BMEB4       010MERCANTIL   PN      N1   R$  000000000264000000000026760000000002620000000000263600000000026220000000002621000000000269100018000000000000003600000000000009492400000000000000009999123100000010000000000000BRBMEBACNPR5210
012024061702BMGB4       010BANCO BMG   PN      N1   R$  000000000031900000000003200000000000313000000000031600000000003140000000000313000000000031600730000000000000244800000000000077437400000000000000009999123100000010000000000000BRBMGBACNPR0109
012024061702BMKS3       010BIC MONARK  ON           R$  000000003320000000000335000000000033200000000003341400000000335000000000032500000000003549800003000000000000000007000000000000233900000000000000009999123100000010000000000000BRBMKSACNOR9166
012024061702BMOB3       010BEMOBI TECH ON      NM   R$  000000000132800000000013290000000001298000000000131100000000013090000000001309000000000131201079000000000000186400000000000244412300000000000000009999123100000010000000000000BRBMOBACNOR7103
012024061702BOBR4       010BOMBRIL     PN           R$  000000000020300000000002040000000000200000000000020000000000002030000000000198000000000020300033000000000000025700000000000005156000000000000000009999123100000010000000000000BRBOBRACNPR3128
012024061702BRIT3       010BRISANET    ON      NM   R$  000000000040000000000004020000000000392000000000039400000000003920000000000392000000000039300711000000000000316600000000000124762000000000000000009999123100000010000000000000BRBRITACNOR0103
012024061702BRKM3       010BRASKEM     ON      N1   R$  000000000183900000000018390000000001790000000000180900000000017950000000001780000000000179500096000000000000014800000000000026787300000000000000009999123100000010000000000000BRBRKMACNOR1119
012024061702BRKM5       010BRASKEM     PNA     N1   R$  000000000182800000000018280000000001743000000000177700000000017470000000001746000000000174708030000000000003871100000000006879503800000000000000009999123100000010000000000000BRBRKMACNPA4121
012024061702EKTR4       010ELEKTRO     PN           R$  000000000394800000000039490000000003900000000000391100000000039000000000003900000000000394000011000000000000001300000000000005084600000000000000009999123100000010000000000000BREKTRACNPR7162
012024061702ELET3       010ELETROBRAS  ON      N1   R$  000000000355400000000035590000000003479000000000351600000000035140000000003514000000000351615440000000000006107000000000021473996200000000000000009999123100000010000000000000BRELETACNOR6160
012024061702ELET6       010ELETROBRAS  PNB     N1   R$  000000000396700000000039710000000003910000000000394300000000039400000000003940000000000394505024000000000001264700000000004987117100000000000000009999123100000010000000000000BRELETACNPB7077
012024061702GRND3       010GRENDENE    ON      NM   R$  000000000060900000000006160000000000602000000000060900000000006090000000000609000000000061203801000000000000992900000000000605463500000000000000009999123100000010000000000000BRGRNDACNOR3174
012024061702GUAR3       010GUARARAPES  ON      NM   R$  000000000067300000000006770000000000646000000000065700000000006530000000000651000000000065404412000000000001691600000000001112699500000000000000009999123100000010000000000000BRGUARACNOR4173
012024061702BGIP3       010BANESE      ON           R$  000000000303700000000030370000000003000000000000301200000000030000000000000000000000000298900003000000000000000300000000000000903700000000000000009999123100000010000000000000BRBGIPACNOR1208
012024061702BGIP4       010BANESE      PN           R$  000000000225000000000022500000000002241000000000224800000000022410000000002250000000000229000006000000000000000700000000000001574100000000000000009999123100000010000000000000BRBGIPACNPR8208
012024061702BPAN4       010BANCO PAN   PN      N1   R$  000000000085700000000008600000000000839000000000084600000000008420000000000841000000000084604379000000000001364200000000001154241300000000000000009999123100000010000000000000BRBPANACNPR1115
012024061702BRAP3       010BRADESPAR   ON      N1   R$  000000000176000000000017600000000001710000000000172400000000017220000000001721000000000172200466000000000000094000000000000162071300000000000000009999123100000010000000000000BRBRAPACNOR5148
012024061702BRAP4       010BRADESPAR   PN      N1   R$  000000000179000000000017970000000001750000000000176700000000017830000000001782000000000178411248000000000009853100000000017416476900000000000000009999123100000010000000000000BRBRAPACNPR2148
012024061702CPLE3       010COPEL       ON      N2   R$  000000000083200000000008320000000000821000000000082400000000008210000000000820000000000082604461000000000002988800000000002464313400000000000000009999123100000010000000000000BRCPLEACNOR8149
012024061702CPLE5       010COPEL       PNA     N2   R$  000000000155000000000015500000000001550000000000155000000000015500000000001520000000000204900004000000000000000500000000000000775000000000000000009999123100000010000000000000BRCPLEACNPA1147
012024061702CPLE6       010COPEL       PNB     N2   R$  000000000093500000000009350000000000919000000000092500000000009220000000000922000000000092311907000000000013493800000000012494872200000000000000009999123100000010000000000000BRCPLEACNPB9146
012024061702CRFB3       010CARREFOUR BRON      NM   R$  000000000094000000000009490000000000915000000000093300000000009150000000000915000000000091808178000000000003566100000000003330409000000000000000009999123100000010000000000000BRCRFBACNOR2116
012024061702CSAN3       010COSAN       ON  ED  NM   R$  000000000127000000000012730000000001246000000000125300000000012480000000001248000000000125118771000000000010579200000000013255763400000000000000009999123100000010000000000000BRCSANACNOR6126
012024061702DASA3       010DASA        ON      NM   R$  000000000040800000000004220000000000362000000000038400000000003690000000000368000000000036906965000000000007079900000000002725657800000000000000009999123100000010000000000000BRDASAACNOR1122
012024061702DESK3       010DESKTOP     ON      NM   R$  000000000151800000000015570000000001464000000000148300000000014730000000001473000000000147600630000000000000254200000000000377073900000000000000009999123100000010000000000000BRDESKACNOR2104
012024061702DEXP3       010DEXXOS PAR  ON      N1   R$  000000000100300000000010170000000000976000000000099300000000010080000000000997000000000100800421000000000000086200000000000085628400000000000000009999123100000010000000000000BRDEXPACNOR1105
012024061702DEXP4       010DEXXOS PAR  PN      N1   R$  000000000100100000000010010000000000978000000000098600000000009780000000000978000000000099900012000000000000003400000000000003353100000000000000009999123100000010000000000000BRDEXPACNPR8105
012024061702DIRR3       010DIRECIONAL  ON      NM   R$  000000000253100000000025400000000002499000000000251300000000024990000000002498000000000250004613000000000001482600000000003726427900000000000000009999123100000010000000000000BRDIRRACNOR0117
012024061702DMVF3       010D1000VFARMA ON      NM   R$  000000000070300000000007030000000000692000000000069500000000006950000000000695000000000069900463000000000000107000000000000074367100000000000000009999123100000010000000000000BRDMVFACNOR9100
012024061702DOTZ3       010DOTZ SA     ON      NM   R$  000000000075800000000007580000000000671000000000072700000000006850000000000684000000000069400054000000000000012300000000000008944900000000000000009999123100000010000000000000BRDOTZACNOR7101
012024061702MGEL4       010MANGELS INDLPN           R$  000000000139700000000013970000000001397000000000139700000000013970000000001267000000000139900001000000000000000100000000000000139700000000000000009999123100000010000000000000BRMGELACNPR3147
012024061702MGLU3       010MAGAZ LUIZA ON      NM   R$  000000000112700000000011330000000001099000000000111400000000010990000000001098000000000109914982000000000014745400000000016430767300000000000000009999123100000010000000000000BRMGLUACNOR2124
012024061702ODPV3       010ODONTOPREV  ON      NM   R$  000000000111500000000011160000000001092000000000110100000000010960000000001095000000000110303388000000000000933300000000001028263700000000000000009999123100000010000000000000BRODPVACNOR4201
012024061702OFSA3       010OUROFINO S/AON      NM   R$  000000000194300000000019430000000001943000000000194300000000019430000000001878000000000195000003000000000000001800000000000003497400000000000000009999123100000010000000000000BROFSAACNOR7118
012024061702ONCO3       010ONCOCLINICASON      NM   R$  000000000060100000000006040000000000575000000000058600000000005830000000000582000000000058507663000000000006027300000000003534052000000000000000009999123100000010000000000000BRONCOACNOR6101
012024061702OPCT3       010OCEANPACT   ON      NM   R$  000000000065000000000006590000000000647000000000065400000000006580000000000658000000000065901086000000000000378700000000000247727700000000000000009999123100000010000000000000BROPCTACNOR0100
012024061702ORVR3       010ORIZON      ON      NM   R$  000000000378700000000038210000000003713000000000376100000000037640000000003762000000000377701691000000000000422400000000001588654700000000000000009999123100000010000000000000BRORVRACNOR0101
012024061707TXRX4       010TEX RENAUX  PN           R$  000000000023300000000002330000000000227000000000022700000000002270000000000227000000000023600016000000000000012900000000000002930100000000000000009999123100000010000000000000BRTXRXACNPR0142
012024061707BHIA3       010CASAS BAHIA ON      NM   R$  000000000060500000000006080000000000565000000000058100000000005650000000000565000000000057002916000000000003166600000000001842441600000000000000009999123100000010000000000000BRBHIAACNOR1101
012024061707NUTR3       010NUTRIPLANT  ON      MA   R$  000000000054000000000005430000000000514000000000052800000000005430000000000523000000000054300043000000000000010200000000000005386200000000000000009999123100000010000000000000BRNUTRACNOR0104
012024061708NEXP3       010NEXPE       ON           R$  000000000041000000000004160000000000408000000000041000000000004100000000000409000000000041300007000000000000000800000000000000328500000000000000009999123100000010000000000000BRNEXPACNOR0101
012024061708ETER3       010ETERNIT     ON      NM   R$  000000000061400000000006150000000000594000000000059900000000005950000000000595000000000059801046000000000000205300000000000123114900000000000000009999123100000010000000000000BRETERACNOR3243
012024061708CTNM4       010COTEMINAS   PN           R$  000000000007700000000000770000000000077000000000007700000000000770000000000077000000000007800013000000000000013600000000000001047200000000000000009999123100000010000000000000BRCTNMACNPR6129
012024061708CTSA3       010SANTANENSE  ON           R$  000000000022500000000002350000000000221000000000022600000000002280000000000228000000000023300029000000000000007000000000000001587900000000000000009999123100000010000000000000BRCTSAACNOR3062
012024061708CTSA4       010SANTANENSE  PN           R$  000000000009100000000000940000000000091000000000009100000000000920000000000091000000000009200023000000000000009400000000000000859000000000000000009999123100000010000000000000BRCTSAACNPR0062
012024061708PMAM3       010PARANAPANEMAON      NM   R$  000000000024900000000002510000000000242000000000024400000000002440000000000243000000000024400067000000000000027200000000000006638600000000000000009999123100000010000000000000BRPMAMACNOR3039
012024061708RNEW11      010RENOVA      UNT     N2   R$  000000000029200000000002940000000000291000000000029200000000002910000000000291000000000029300039000000000000018900000000000005519900000000000000009999123100000010000000000000BRRNEWCDAM15110
012024061708RNEW3       010RENOVA      ON      N2   R$  000000000009700000000000990000000000095000000000009700000000000970000000000096000000000009700081000000000000134700000000000013143400000000000000009999123100000010000000000000BRRNEWACNOR8110
012024061708RNEW4       010RENOVA      PN      N2   R$  000000000009600000000000980000000000095000000000009600000000000960000000000095000000000009600116000000000000143200000000000013788500000000000000009999123100000010000000000000BRRNEWACNPR5110
012024061708RPMG3       010PET MANGUINHON           R$  000000000022800000000002360000000000225000000000023000000000002250000000000225000000000023100372000000000000061400000000000014159400000000000000009999123100000010000000000000BRRPMGACNOR9194
012024061708SGPS3       010SPRINGS     ON      NM   R$  000000000003500000000000350000000000035000000000003500000000000350000000000035000000000003600032000000000000020300000000000000710500000000000000009999123100000010000000000000BRSGPSACNOR4104
012024061708LIGT3       010LIGHT S/A   ON      NM   R$  000000000052500000000005270000000000508000000000051500000000005080000000000508000000000051002179000000000000553200000000000285236000000000000000009999123100000010000000000000BRLIGTACNOR2124
012024061708AMER3       010AMERICANAS  ON      NM   R$  000000000003900000000000440000000000038000000000004100000000000430000000000042000000000004301519000000000021214400000000000873541200000000000000009999123100000010000000000000BRAMERACNOR6102
012024061708BDLL4       010BARDELLA    PN           R$  000000000095100000000009510000000000951000000000095100000000009510000000000900000000000100000003000000000000000600000000000000570600000000000000009999123100000010000000000000BRBDLLACNPR8151
012024061708RSID3       010ROSSI RESID ON      NM   R$  000000000051900000000005220000000000480000000000049200000000004820000000000480000000000048500304000000000000159900000000000078800300000000000000009999123100000010000000000000BRRSIDACNOR8120
012024061708ATMP3       010ATMASA      ON           R$  000000000023000000000002300000000000224000000000022700000000002260000000000222000000000022600013000000000000004100000000000000933400000000000000009999123100000010000000000000BRATMPACNOR8100
012024061708JFEN3       010JOAO FORTES ON           R$  000000000011300000000001150000000000100000000000010500000000001020000000000102000000000010700094000000000000039400000000000004146400000000000000009999123100000010000000000000BRJFENACNOR0059
012024061708OIBR3       010OI          ON  EG  N1   R$  000000000047000000000005020000000000443000000000046400000000004440000000000443000000000044502568000000000001563300000000000726052500000000000000009999123100000010000000000000BROIBRACNOR1111
012024061708OIBR4       010OI          PN  EG  N1   R$  000000000156000000000015600000000001340000000000138600000000013410000000001340000000000134200086000000000000013600000000000018853200000000000000009999123100000010000000000000BROIBRACNPR8110
012024061708OSXB3       010OSX BRASIL  ON      NM   R$  000000000039800000000003980000000000375000000000038500000000003940000000000386000000000039400021000000000000006600000000000002542000000000000000009999123100000010000000000000BROSXBACNOR8109
012024061710EQTL9       010EQUATORIAL  ON  REC NM   R$  000000000295100000000030000000000002951000000000299300000000030000000000002886000000000300000002000000000000000800000000000002395100000000000000009999123100000010000000000000BREQTLR03OR1129
012024061710AMAR1       010LOJAS MARISADIR ORD NM   R$  000000000000200000000000190000000000001000000000000500000000000180000000000016000000000001801885000000000005639500000000000031544600000000000000009999123100000010000000000000BRAMARD02OR7114
012024061710AMER95      010AMERICANAS  DIR     NM   R$  000000000000100000000000010000000000001000000000000100000000000010000000000000000000000000100087000000000001465536000000000001465536000000000000009999123100000010000000000000BRAMERD01M17100
012024061710RBIF12      010FIC FI RB ESDIR          R$  000000000000200000000000740000000000002000000000002100000000000090000000000009000000000001100115000000000000020495000000000000438116000000000000009999123100000010000000000000BRRBIFD02M10124
012024061710ONCO1       010ONCOCLINICASDIR ORD NM   R$  000000000000100000000000010000000000001000000000000100000000000010000000000000000000000000100011000000000000016500000000000000016500000000000000009999123100000010000000000000BRONCOD01OR1100
012024061712NCRI11      010FII NAVI CRICI  ER       R$  000000000085200000000008520000000000837000000000084400000000008410000000000838000000000084800013000000000000000015000000000000012666000000000000009999123100000010000000000000BRNCRICTF004118
012024061712NEWL11      010FII NEWPORT CI           R$  000000001209000000000120900000000011975000000001202000000000120480000000011988000000001204800207000000000000001398000000000016804004000000000000009999123100000010000000000000BRNEWLCTF004155
012024061712SADI11      010FII SANT PAPCI           R$  000000000904800000000090840000000009025000000000904500000000090450000000009044000000000904500115000000000000000529000000000004784824000000000000009999123100000010000000000000BRSADICTF007159
012024061712PRSN11      010FII PERSONALCI           R$  000000000011200000000001120000000000109000000000011000000000001120000000000111000000000011200004000000000000000013000000000000001438000000000000009999123100000010000000000000BRPRSNCTF005124
012024061712PRSV11      010FII P VARGASCI           R$  000000000630000000000063000000000006300000000000630000000000063000000000006300000000000640000001000000000000000015000000000000094500000000000000009999123100000010000000000000BRPRSVCTF008225
012024061712PVBI11      010FII VBI PRI CI           R$  000000000899700000000092500000000008951000000000910200000000090450000000009035000000000904518279000000000000101201000000000921229071000000000000009999123100000010000000000000BRPVBICTF003152
012024061712QAGR11      010FII QUASAR ACI           R$  000000000465400000000046990000000004649000000000466600000000046670000000004649000000000466700203000000000000002149000000000010028292000000000000009999123100000010000000000000BRQAGRCTF005155
012024061712ERPA11      010FII EUROPA  CI  ER       R$  000000001345000000000134500000000013450000000001345000000000134500000000011000000000001346000001000000000000000500000000000006725000000000000000009999123100000010000000000000BRERPACTF002129
012024061712ICRI11      010FII CI IPCA CI           R$  000000000965000000000096500000000009601000000000961300000000096250000000009625000000000964800150000000000000004590000000000044126206000000000000009999123100000010000000000000BRICRICTF004104
012024061712IDFI11      010FII UNIDADESCI           R$  000000000133300000000013340000000001276000000000128400000000012760000000001276000000000133300016000000000000000805000000000001033931000000000000009999123100000010000000000000BRIDFICTF007132
012024061712IDGR11      010FII UNID II CI           R$  000000000113700000000011370000000001137000000000113700000000011370000000001137000000000153500001000000000000000001000000000000001137000000000000009999123100000010000000000000BRIDGRCTF006127
012024061712TJKB11      010FII TJK RENDCI           R$  000000002704500000000270500000000024802000000002690200000000265000000000024900000000002700000015000000000000000238000000000006402836000000000000009999123100000010000000000000BRTJKBCTF006129
012024061712TMPS11      010FII ITAU TEMCI           R$  000000000938800000000094480000000009372000000000940800000000093990000000009387000000000943001080000000000000002083000000000019598111000000000000009999123100000010000000000000BRTMPSCTF003114
012024061712TORD11      010FII TORDE EICI           R$  000000000014700000000001510000000000142000000000014500000000001470000000000146000000000014700746000000000000103414000000000015095519000000000000009999123100000010000000000000BRTORDCTF015138
012024061712TRBL11      010FII SDI LOG CI           R$  000000000978200000000100560000000009781000000000995700000000098800000000009865000000000988001160000000000000011555000000000115059673000000000000009999123100000010000000000000BRTRBLCTF007112
012024061712TRNT11      010FII TORRE NOCI  ER       R$  000000001098800000000112490000000010830000000001120700000000112000000000010837000000001120000008000000000000000031000000000000347428000000000000009999123100000010000000000000BRTRNTCTF013341
012024061712IRDM11      010FII IRIDIUM CI  ER       R$  000000000725600000000072710000000007221000000000724000000000072410000000007230000000000724106002000000000000047249000000000342090511000000000000009999123100000010000000000000BRIRDMCTF004186
012024061712IRIM11      010FII IRIM    CI  ER       R$  000000000759500000000075950000000007510000000000757100000000075280000000007530000000000758900039000000000000000405000000000003066452000000000000009999123100000010000000000000BRIRIMCTF003135
012024061712ITIP11      010FII INTER IPCI           R$  000000000847400000000085520000000008474000000000851200000000085250000000008475000000000852500275000000000000001157000000000009849060000000000000009999123100000010000000000000BRITIPCTF002129
012024061712ITIT11      010FII INTER ITCI           R$  000000000784400000000079250000000007841000000000789100000000079250000000007925000000000792900161000000000000001284000000000010132947000000000000009999123100000010000000000000BRITITCTF004129
012024061712ITRI11      010FII ITRI    CI           R$  000000000925900000000092610000000009085000000000913300000000091300000000009110000000000913001948000000000000024729000000000225861088000000000000009999123100000010000000000000BRITRICTF008102
012024061712LSPA11      010FII LESTE PACI           R$  000000000840300000000084030000000008001000000000823400000000083960000000008001000000000839600019000000000000000093000000000000765790000000000000009999123100000010000000000000BRLSPACTF005139
012024061712ASMT11      010FII ASA MET CI           R$  000000000431000000000043100000000004239000000000429600000000043000000000004240000000000430000010000000000000000116000000000000498416000000000000009999123100000010000000000000BRASMTCTF005107
012024061712BBIG11      010FII BBIG    CI           R$  000000000094700000000009580000000000947000000000095200000000009500000000000949000000000095004843000000000000045334000000000043172903000000000000009999123100000010000000000000BRBBIGCTF004101
012024061712BBRC11      010FII BB CORP CI           R$  000000001075900000000108960000000010712000000001077200000000107660000000010790000000001083800075000000000000000444000000000004782777000000000000009999123100000010000000000000BRBBRCCTF004253
012024061712CNES11      010FII CENESP  CI           R$  000000000016000000000001630000000000158000000000016000000000001620000000000161000000000016201174000000000000071475000000000011483648000000000000009999123100000010000000000000BRCNESCTF001259
012024061712CTXT11      010FII C TEXTILCI           R$  000000000088500000000008850000000000842000000000084900000000008720000000000844000000000087200016000000000000000098000000000000083207000000000000009999123100000010000000000000BRCTXTCTF014207
012024061712CVBI11      010FII VBI CRI CI  ER       R$  000000000929900000000093550000000009256000000000929200000000092810000000009281000000000929103564000000000000023732000000000220535445000000000000009999123100000010000000000000BRCVBICTF001166
012024061712EURO11      010FII EUROPAR CI           R$  000000002489600000000249000000000024896000000002489800000000249000000000024898000000002490000020000000000000000361000000000008988509000000000000009999123100000010000000000000BREUROCTF011359
012024061712EVBI11      010FII VBI CON CI  EB       R$  000000000098700000000009870000000000984000000000098500000000009840000000000966000000000098400057000000000000000638000000000000628463000000000000009999123100000010000000000000BREVBICTF007150
012024061712PLCR11      010FII PLURAL RCI           R$  000000000843100000000084970000000008431000000000846900000000084500000000008450000000000847000316000000000000004898000000000041484220000000000000009999123100000010000000000000BRPLCRCTF003155
012024061712PLRI11      010FII POLO I  CI           R$  000000000150100000000015010000000001501000000000150100000000015010000000001500000000000170400001000000000000000001000000000000001501000000000000009999123100000010000000000000BRPLRICTF000242
012024061712PMIS11      010FII PMIS    CI           R$  000000000093500000000009400000000000925000000000093000000000009400000000000925000000000094000186000000000000023559000000000021924122000000000000009999123100000010000000000000BRPMISCTF006106
012024061712PNPR11      010FII PAN PROPCI           R$  000000000700000000000075990000000007000000000000729900000000075990000000007000000000000759900002000000000000000002000000000000014599000000000000009999123100000010000000000000BRPNPRCTF001102
012024061712PORD11      010FII POLO CRICI           R$  000000000089900000000009110000000000895000000000090700000000009090000000000908000000000090907512000000000000050855000000000046136463000000000000009999123100000010000000000000BRPORDCTF005174
012024061712RFOF11      010FII RB CFOF CI           R$  000000000729100000000072910000000006985000000000702300000000070150000000007006000000000705400290000000000000008387000000000058905605000000000000009999123100000010000000000000BRRFOFCTF001151
012024061712RINV11      010FII REAL INVCI  ER       R$  000000001109500000000111670000000011051000000001112300000000111390000000011080000000001113800180000000000000001522000000000016929421000000000000009999123100000010000000000000BRRINVCTF004119
012024061712RMAI11      010FII REAGMULTCI           R$  000000000718900000000071900000000007189000000000718900000000071900000000007176000000000719000100000000000000000100000000000000718999000000000000009999123100000010000000000000BRRMAICTF000134
012024061712RNDP11      010FII BB R PAPCI           R$  000000000635300000000063560000000006352000000000635300000000063520000000006352000000000675000012000000000000000066000000000000419353000000000000009999123100000010000000000000BRRNDPCTF007248
012024061712RNGO11      010FII RIONEGROCI           R$  000000000461500000000046370000000004503000000000455500000000045030000000004503000000000455900123000000000000001497000000000006819373000000000000009999123100000010000000000000BRRNGOCTF003243
012024061712RPRI11      010FII RBR PR  CI           R$  000000000946000000000094600000000009305000000000934600000000094100000000009336000000000941000610000000000000006112000000000057124441000000000000009999123100000010000000000000BRRPRICTF007128
012024061712RRCI11      010FII RBCAP RICI           R$  000000000792300000000079230000000007800000000000783100000000078230000000007817000000000782300058000000000000000656000000000005137719000000000000009999123100000010000000000000BRRRCICTF005142
012024061712EXES11      010FII EXES    CI           R$  000000000096000000000009600000000000960000000000096000000000009600000000000390000000000098700002000000000000000011000000000000010560000000000000009999123100000010000000000000BREXESCTF006124
012024061712FAED11      010FII ANH EDUCCI  ER       R$  000000001534900000000153490000000015144000000001522100000000151440000000015144000000001533000075000000000000000472000000000007184506000000000000009999123100000010000000000000BRFAEDCTF003278
012024061712FATN11      010FII ATHENA ICI  ER       R$  000000000926500000000094240000000009265000000000934000000000093800000000009380000000000938100561000000000000006369000000000059491062000000000000009999123100000010000000000000BRFATNCTF000152
012024061712FCFL11      010FII CAMPUSFLCI           R$  000000001184300000000118430000000011568000000001168400000000117460000000011630000000001174600079000000000000001305000000000015247851000000000000009999123100000010000000000000BRFCFLCTF009269
012024061712SNLG11      010FII SUNO LG CI  ER       R$  000000000316000000000033950000000003101000000000315600000000031970000000003101000000000319800132000000000000003104000000000009799212000000000000009999123100000010000000000000BRSNLGCTF007104
012024061712SNME11      010FII SNME    CI  ER       R$  000000000096900000000009690000000000958000000000095900000000009590000000000958000000000095900126000000000000004835000000000004640431000000000000009999123100000010000000000000BRSNMECTF000107
