00COTAHIST.2024BOVESPA 20240311                                                                                                                                                                                                                      
012024031102VSTE3       010VESTE       ON      NM   R$  000000000141900000000014190000000001385000000000139400000000013850000000001380000000000138500028000000000000005400000000000007528400000000000000009999123100000010000000000000BRVSTEACNOR5102
012024031102VULC3       010VULCABRAS   ON      NM   R$  000000000187300000000019110000000001853000000000187700000000018930000000001892000000000190505413000000000003016800000000005663699400000000000000009999123100000010000000000000BRVULCACNOR2157
012024031102VVEO3       010VIVEO       ON      NM   R$  000000000073600000000007620000000000736000000000074500000000007450000000000744000000000074603241000000000000753700000000000561655800000000000000009999123100000010000000000000BRVVEOACNOR0103
012024031102WEGE3       010WEG         ON      NM   R$  000000000366800000000037330000000003665000000000370500000000037160000000003715000000000371709908000000000003755200000000013916455100000000000000009999123100000010000000000000BRWEGEACNOR0221
012024031102PFRM3       010PROFARMA    ON      NM   R$  000000000056200000000005760000000000558000000000056200000000005590000000000559000000000056300494000000000000169500000000000095286400000000000000009999123100000010000000000000BRPFRMACNOR1116
012024031102PGMN3       010PAGUE MENOS ON      NM   R$  000000000028400000000002840000000000279000000000028000000000002800000000000279000000000028002261000000000000689600000000000193400800000000000000009999123100000010000000000000BRPGMNACNOR8103
012024031102RSUL4       010RIOSULENSE  PN           R$  000000000825000000000082500000000008020000000000815800000000082400000000008100000000000825000014000000000000001800000000000014685200000000000000009999123100000010000000000000BRRSULACNPR3113
012024031102ROMI3       010ROMI        ON      NM   R$  000000000129000000000012960000000001282000000000128700000000012820000000001282000000000128300897000000000000152000000000000195689500000000000000009999123100000010000000000000BRROMIACNOR8192
012024031102RPAD5       010ALFA HOLDINGPNA          R$  000000000078600000000007860000000000786000000000078600000000007860000000000786000000000083600006000000000000005600000000000004401600000000000000009999123100000010000000000000BRRPADACNPA4218
012024031102RRRP3       0103R PETROLEUMON      NM   R$  000000000282700000000029340000000002824000000000289900000000029090000000002908000000000290913400000000000004454700000000012917965900000000000000009999123100000010000000000000BRRRRPACNOR5102
012024031102TTEN3       0103TENTOS     ON      NM   R$  000000000105500000000010760000000001046000000000105700000000010560000000001050000000000105602466000000000000416500000000000440250100000000000000009999123100000010000000000000BRTTENACNOR0103
012024031102TUPY3       010TUPY        ON      NM   R$  000000000275600000000027920000000002740000000000276900000000027830000000002778000000000278303913000000000000582600000000001613794500000000000000009999123100000010000000000000BRTUPYACNOR1183
012024031102RCSL3       010RECRUSUL    ON           R$  000000000017600000000001780000000000172000000000017500000000001760000000000174000000000017600570000000000000500000000000000087724400000000000000009999123100000010000000000000BRRCSLACNOR4133
012024031102RCSL4       010RECRUSUL    PN           R$  000000000009500000000000990000000000095000000000009700000000000970000000000096000000000009703232000000000003394500000000000329704500000000000000009999123100000010000000000000BRRCSLACNPR1133
012024031102RDNI3       010RNI         ON      NM   R$  000000000041100000000004150000000000409000000000040900000000004100000000000409000000000041300027000000000000008300000000000003402900000000000000009999123100000010000000000000BRRDNIACNOR9116
012024031102RDOR3       010REDE D OR   ON      NM   R$  000000000248400000000025340000000002477000000000251700000000025240000000002524000000000253006966000000000001893600000000004766649900000000000000009999123100000010000000000000BRRDORACNOR8111
012024031102SYNE3       010SYN PROP TECON      NM   R$  000000000084700000000008900000000000843000000000086700000000008820000000000876000000000088201428000000000000550100000000000477059700000000000000009999123100000010000000000000BRSYNEACNOR2102
012024031102TAEE11      010TAESA       UNT     N2   R$  000000000353800000000035490000000003525000000000353800000000035350000000003532000000000353806416000000000001136200000000004020073500000000000000009999123100000010000000000000BRTAEECDAM10145
012024031102TAEE3       010TAESA       ON      N2   R$  000000000117100000000011750000000001161000000000116900000000011610000000001161000000000116800673000000000000113000000000000132195900000000000000009999123100000010000000000000BRTAEEACNOR9145
012024031102TAEE4       010TAESA       PN      N2   R$  000000000118700000000011900000000001180000000000118500000000011870000000001182000000000118700911000000000000227100000000000269308400000000000000009999123100000010000000000000BRTAEEACNPR6145
012024031102TASA3       010TAURUS ARMASON      N2   R$  000000000141700000000014250000000001401000000000140500000000014100000000001407000000000140900062000000000000009300000000000013067800000000000000009999123100000010000000000000BRTASAACNOR7103
012024031102TASA4       010TAURUS ARMASPN      N2   R$  000000000141000000000014170000000001398000000000140500000000014110000000001410000000000141201074000000000000245100000000000344500500000000000000009999123100000010000000000000BRTASAACNPR4103
012024031102TCSA3       010TECNISA     ON      NM   R$  000000000028800000000002910000000000285000000000028700000000002870000000000287000000000028800118000000000000052200000000000015017800000000000000009999123100000010000000000000BRTCSAACNOR3112
012024031102RAIL3       010RUMO S.A.   ON      NM   R$  000000000221500000000022420000000002206000000000221900000000022200000000002219000000000222512751000000000005835500000000012949719600000000000000009999123100000010000000000000BRRAILACNOR9104
012024031102RAIZ4       010RAIZEN      PN      N2   R$  000000000034800000000003540000000000346000000000034900000000003490000000000348000000000034909874000000000008463000000000002957580700000000000000009999123100000010000000000000BRRAIZACNPR6109
012024031102SRNA3       010SERENA      ON      NM   R$  000000000084300000000008660000000000841000000000085800000000008550000000000853000000000085804851000000000001929600000000001656507800000000000000009999123100000010000000000000BRSRNAACNOR4100
012024031102STBP3       010SANTOS BRP  ON      NM   R$  000000000107100000000011110000000001071000000000110100000000011060000000001105000000000110708564000000000003629100000000003996444900000000000000009999123100000010000000000000BRSTBPACNOR3128
012024031102SUZB3       010SUZANO S.A. ON      NM   R$  000000000587200000000059540000000005830000000000588000000000058570000000005847000000000585714839000000000005215800000000030669175500000000000000009999123100000010000000000000BRSUZBACNOR0129
012024031102ZAMP3       010ZAMP S.A.   ON           R$  000000000038600000000003890000000000375000000000037900000000003780000000000378000000000037903489000000000000763900000000000289841100000000000000009999123100000010000000000000BRZAMPACNOR5100
012024031102PRNR3       010PRINER      ON      NM   R$  000000000124400000000012500000000001227000000000124000000000012310000000001231000000000124200528000000000000119100000000000147741700000000000000009999123100000010000000000000BRPRNRACNOR4108
012024031102PSSA3       010PORTO SEGUROON      NM   R$  000000000311100000000031300000000003071000000000310200000000030960000000003088000000000309805158000000000001157400000000003591272600000000000000009999123100000010000000000000BRPSSAACNOR7153
012024031102PTBL3       010PORTOBELLO  ON      NM   R$  000000000058600000000005860000000000565000000000057200000000005660000000000565000000000056601676000000000000674200000000000386228000000000000000009999123100000010000000000000BRPTBLACNOR8132
012024031102PTNT3       010PETTENATI   ON           R$  000000000128800000000013790000000001270000000000131800000000013300000000001038000000000133100020000000000000002500000000000003296100000000000000009999123100000010000000000000BRPTNTACNOR6042
012024031102PTNT4       010PETTENATI   PN           R$  000000000079100000000007990000000000760000000000077800000000007600000000000760000000000076500020000000000000004400000000000003425000000000000000009999123100000010000000000000BRPTNTACNPR3047
012024031102QUAL3       010QUALICORP   ON      NM   R$  000000000023600000000002490000000000235000000000024400000000002440000000000244000000000024503370000000000003708600000000000905464500000000000000009999123100000010000000000000BRQUALACNOR6119
012024031102RADL3       010RAIADROGASILON      NM   R$  000000000257200000000026430000000002572000000000261600000000026360000000002635000000000263911399000000000005844700000000015295204400000000000000009999123100000010000000000000BRRADLACNOR0154
012024031102SMFT3       010SMART FIT   ON      NM   R$  000000000245200000000024940000000002421000000000245200000000024470000000002440000000000245006008000000000002221600000000005448181700000000000000009999123100000010000000000000BRSMFTACNOR1111
012024031102SMTO3       010SAO MARTINHOON      NM   R$  000000000275800000000028160000000002726000000000276400000000027360000000002729000000000274005346000000000001145900000000003168287300000000000000009999123100000010000000000000BRSMTOACNOR3125
012024031102SNSY3       010SANSUY      ON           R$  000000000098500000000009850000000000985000000000098500000000009850000000000921000000000098000001000000000000000100000000000000098500000000000000009999123100000010000000000000BRSNSYACNOR2113
012024031102SNSY5       010SANSUY      PNA          R$  000000000047100000000004900000000000466000000000047200000000004900000000000487000000000049000023000000000000005300000000000002504300000000000000009999123100000010000000000000BRSNSYACNPA5111
012024031102SOJA3       010BOA SAFRA   ON      NM   R$  000000000150500000000015550000000001486000000000153100000000015400000000001527000000000154001829000000000000368900000000000565107800000000000000009999123100000010000000000000BRSOJAACNOR9105
012024031102SOMA3       010GRUPO SOMA  ON      NM   R$  000000000069800000000007070000000000692000000000069600000000006960000000000693000000000069708023000000000005559700000000003874814600000000000000009999123100000010000000000000BRSOMAACNOR3102
012024031102WEST3       010WESTWING    ON      NM   R$  000000000012100000000001220000000000120000000000012000000000001210000000000120000000000012100097000000000000048700000000000005857100000000000000009999123100000010000000000000BRWESTACNOR3100
012024031102WHRL3       010WHIRLPOOL   ON           R$  000000000043900000000004390000000000438000000000043800000000004380000000000426000000000044000002000000000000000200000000000000087700000000000000009999123100000010000000000000BRWHRLACNOR5128
012024031102WHRL4       010WHIRLPOOL   PN           R$  000000000045100000000004510000000000440000000000044200000000004420000000000442000000000044800029000000000000006600000000000002922400000000000000009999123100000010000000000000BRWHRLACNPR2128
012024031102WIZC3       010WIZ CO      ON      NM   R$  000000000066100000000006610000000000625000000000063500000000006320000000000632000000000063402357000000000000613900000000000390019700000000000000009999123100000010000000000000BRWIZCACNOR5101
012024031102WLMM4       010WLM IND COM PN           R$  000000000255900000000025590000000002550000000000255200000000025510000000002406000000000255200006000000000000000600000000000001531300000000000000009999123100000010000000000000BRWLMMACNPR3117
012024031102YDUQ3       010YDUQS PART  ON      NM   R$  000000000212600000000021400000000002083000000000211200000000021170000000002116000000000212007088000000000001681000000000003550897000000000000000009999123100000010000000000000BRYDUQACNOR3104
012024031102SCAR3       010SAO CARLOS  ON      NM   R$  000000000257500000000025900000000002554000000000257400000000025550000000002554000000000257400011000000000000001200000000000003088800000000000000009999123100000010000000000000BRSCARACNOR7130
012024031102BMEB3       010MERCANTIL   ON      N1   R$  000000000250100000000025010000000002501000000000250100000000025010000000002212000000000277000001000000000000000100000000000000250100000000000000009999123100000010000000000000BRBMEBACNOR8205
012024031102BMEB4       010MERCANTIL   PN      N1   R$  000000000258500000000025850000000002450000000000249600000000024800000000002476000000000248000133000000000000017700000000000044183000000000000000009999123100000010000000000000BRBMEBACNPR5210
012024031102BMGB4       010BANCO BMG   PN      N1   R$  000000000037500000000003760000000000367000000000036900000000003670000000000367000000000036801052000000000000481100000000000178005600000000000000009999123100000010000000000000BRBMGBACNPR0108
012024031102BMIN4       010MERC INVEST PN           R$  000000000164300000000016430000000001643000000000164200000000016430000000001557000000000164000002000000000000000300000000000000492600000000000000009999123100000010000000000000BRBMINACNPR1176
012024031102BMKS3       010BIC MONARK  ON           R$  000000003550500000000360010000000035505000000003570900000000360010000000036001000000003670000008000000000000000015000000000000535638000000000000009999123100000010000000000000BRBMKSACNOR9165
012024031102BMOB3       010BEMOBI TECH ON      NM   R$  000000000137000000000013760000000001363000000000137100000000013730000000001373000000000137501212000000000000161100000000000221027100000000000000009999123100000010000000000000BRBMOBACNOR7103
012024031102BOBR4       010BOMBRIL     PN           R$  000000000023700000000002370000000000230000000000023400000000002330000000000232000000000023300081000000000000057100000000000013371200000000000000009999123100000010000000000000BRBOBRACNPR3128
012024031102BRIT3       010BRISANET    ON      NM   R$  000000000036200000000003680000000000357000000000036200000000003660000000000361000000000036600908000000000000530300000000000192085800000000000000009999123100000010000000000000BRBRITACNOR0102
012024031102BRIV3       010ALFA INVEST ON           R$  000000000127600000000012820000000001276000000000128000000000012820000000001282000000000132500008000000000000005300000000000006784300000000000000009999123100000010000000000000BRBRIVACNOR6209
012024031102BRIV4       010ALFA INVEST PN           R$  000000000124800000000012480000000001248000000000124800000000012480000000001248000000000129900001000000000000000200000000000000249600000000000000009999123100000010000000000000BRBRIVACNPR3218
012024031102BRKM3       010BRASKEM     ON      N1   R$  000000000197800000000020600000000001976000000000201900000000020350000000002035000000000205200037000000000000005100000000000010300000000000000000009999123100000010000000000000BRBRKMACNOR1119
012024031102BRKM5       010BRASKEM     PNA     N1   R$  000000000200400000000020740000000001998000000000204400000000020450000000002045000000000205106336000000000003737800000000007643208600000000000000009999123100000010000000000000BRBRKMACNPA4121
012024031102EGIE3       010ENGIE BRASILON      NM   R$  000000000407900000000041090000000004076000000000409600000000041040000000004086000000000410404373000000000000913200000000003740576900000000000000009999123100000010000000000000BREGIEACNOR9125
012024031102EKTR4       010ELEKTRO     PN           R$  000000000390000000000039000000000003900000000000390000000000039000000000003920000000000400000001000000000000000100000000000000390000000000000000009999123100000010000000000000BREKTRACNPR7159
012024031102ELET3       010ELETROBRAS  ON      N1   R$  000000000431700000000043460000000004298000000000431700000000043160000000004315000000000432012914000000000005309400000000022921965400000000000000009999123100000010000000000000BRELETACNOR6159
012024031102ELET6       010ELETROBRAS  PNB     N1   R$  000000000478200000000048240000000004763000000000480500000000048110000000004810000000000481103455000000000000881200000000004234487400000000000000009999123100000010000000000000BRELETACNPB7076
012024031102GRND3       010GRENDENE    ON      NM   R$  000000000064900000000006500000000000632000000000063900000000006390000000000638000000000064004069000000000001427500000000000913017700000000000000009999123100000010000000000000BRGRNDACNOR3172
012024031102GUAR3       010GUARARAPES  ON      NM   R$  000000000077100000000008130000000000747000000000078100000000008080000000000807000000000080809938000000000004481100000000003501207700000000000000009999123100000010000000000000BRGUARACNOR4172
012024031102SEER3       010SER EDUCA   ON      NM   R$  000000000064300000000006430000000000606000000000061800000000006060000000000606000000000061003205000000000000850100000000000525401700000000000000009999123100000010000000000000BRSEERACNOR5119
012024031102SEQL3       010SEQUOIA LOG ON      NM   R$  000000000004300000000000430000000000041000000000004200000000000420000000000041000000000004202244000000000002799200000000000118090300000000000000009999123100000010000000000000BRSEQLACNOR2101
012024031102SGPS3       010SPRINGS     ON      NM   R$  000000000008900000000000900000000000088000000000008800000000000890000000000088000000000008900115000000000000082500000000000007314900000000000000009999123100000010000000000000BRSGPSACNOR4104
012024031102SHOW3       010TIME FOR FUNON      NM   R$  000000000021000000000002170000000000210000000000021400000000002150000000000212000000000021500195000000000000065700000000000014097100000000000000009999123100000010000000000000BRSHOWACNOR7105
012024031102SHUL4       010SCHULZ      PN           R$  000000000070000000000007040000000000685000000000069300000000006930000000000693000000000069401837000000000000394600000000000273731600000000000000009999123100000010000000000000BRSHULACNPR4154
012024031102SIMH3       010SIMPAR      ON      NM   R$  000000000075400000000007700000000000748000000000075900000000007610000000000760000000000076103986000000000002333000000000001771832700000000000000009999123100000010000000000000BRSIMHACNOR0107
012024031102JHSF3       010JHSF PART   ON  ED  NM   R$  000000000043400000000004390000000000428000000000043100000000004290000000000429000000000043102418000000000002020200000000000872292400000000000000009999123100000010000000000000BRJHSFACNOR2133
012024031102JSLG3       010JSL         ON      NM   R$  000000000122600000000012350000000001200000000000121800000000012200000000001218000000000122001122000000000000221500000000000269875400000000000000009999123100000010000000000000BRJSLGACNOR2121
012024031102KEPL3       010KEPLER WEBERON      NM   R$  000000000101600000000010460000000001016000000000103200000000010310000000001029000000000103202637000000000000948700000000000979658800000000000000009999123100000010000000000000BRKEPLACNOR1061
012024031102KLBN11      010KLABIN S/A  UNT     N2   R$  000000000220000000000022340000000002188000000000221100000000022110000000002207000000000221214159000000000004048100000000008951571400000000000000009999123100000010000000000000BRKLBNCDAM18140
012024031102KLBN3       010KLABIN S/A  ON      N2   R$  000000000044000000000004450000000000437000000000044100000000004380000000000437000000000043800760000000000000349700000000000154218500000000000000009999123100000010000000000000BRKLBNACNOR2168
012024031102KLBN4       010KLABIN S/A  PN      N2   R$  000000000044200000000004470000000000438000000000044200000000004440000000000443000000000044402274000000000002133800000000000943478900000000000000009999123100000010000000000000BRKLBNACNPR9168
012024031102MRSA3B      010MRS LOGIST  ON      MB   R$  000000000298500000000031000000000002985000000000307700000000031000000000002900000000000800000005000000000000001000000000000003077000000000000000009999123100000010000000000000BRMRSAACNOR6124
012024031102MRVE3       010MRV         ON      NM   R$  000000000077600000000007800000000000766000000000077300000000007780000000000776000000000077809808000000000008309000000000006429989400000000000000009999123100000010000000000000BRMRVEACNOR2126
012024031102CVCB3       010CVC BRASIL  ON      NM   R$  000000000033400000000003360000000000327000000000033000000000003280000000000328000000000032906682000000000007557100000000002500970800000000000000009999123100000010000000000000BRCVCBACNOR1115
012024031102GFSA3       010GAFISA      ON      NM   R$  000000000088800000000010400000000000883000000000096800000000010290000000001028000000000102916449000000000008794800000000008518632000000000000000009999123100000010000000000000BRGFSAACNOR3123
012024031102GGBR3       010GERDAU      ON  ED  N1   R$  000000000194700000000019710000000001940000000000196200000000019580000000001952000000000196800337000000000000067800000000000133069200000000000000009999123100000010000000000000BRGGBRACNOR1190
012024031102GGBR4       010GERDAU      PN  ED  N1   R$  000000000210200000000021440000000002100000000000212600000000021190000000002118000000000212214120000000000006653000000000014145662400000000000000009999123100000010000000000000BRGGBRACNPR8190
012024031102ITSA3       010ITAUSA      ON  EJ  N1   R$  000000000104600000000010520000000001031000000000104400000000010430000000001042000000000104900350000000000000165000000000000172413800000000000000009999123100000010000000000000BRITSAACNOR0438
012024031102ITSA4       010ITAUSA      PN  EJ  N1   R$  000000000104000000000010500000000001038000000000104500000000010440000000001043000000000104417594000000000014238400000000014879343200000000000000009999123100000010000000000000BRITSAACNPR7438
012024031102AZEV3       010AZEVEDO     ON           R$  000000000014200000000001420000000000133000000000013600000000001330000000000133000000000013400569000000000000496500000000000067742100000000000000009999123100000010000000000000BRAZEVACNOR0121
012024031102AZEV4       010AZEVEDO     PN           R$  000000000013700000000001370000000000128000000000013100000000001280000000000128000000000012901261000000000002666300000000000349885500000000000000009999123100000010000000000000BRAZEVACNPR7121
012024031102AZUL4       010AZUL        PN      N2   R$  000000000121500000000012410000000001208000000000122400000000012090000000001208000000000121010507000000000009481800000000011614753200000000000000009999123100000010000000000000BRAZULACNPR4102
012024031102B3SA3       010B3          ON      NM   R$  000000000123600000000012720000000001236000000000125600000000012580000000001258000000000125929606000000000034745900000000043645657300000000000000009999123100000010000000000000BRB3SAACNOR6131
012024031102BBSE3       010BBSEGURIDADEON      NM   R$  000000000328000000000033110000000003272000000000328900000000032830000000003280000000000328408942000000000003570500000000011744895300000000000000009999123100000010000000000000BRBBSEACNOR5124
012024031102BPAC11      010BTGP BANCO  UNT     N2   R$  000000000355000000000035750000000003541000000000355800000000035560000000003556000000000356215787000000000005799900000000020640692900000000000000009999123100000010000000000000BRBPACUNT006118
012024031102COCE5       010COELCE      PNA          R$  000000000394900000000039600000000003870000000000391000000000038700000000003870000000000391100154000000000000022000000000000086020400000000000000009999123100000010000000000000BRCOCEACNPA3146
012024031102UCAS3       010UNICASA     ON      NM   R$  000000000026300000000002630000000000254000000000025700000000002570000000000256000000000025700075000000000000054200000000000013934600000000000000009999123100000010000000000000BRUCASACNOR1113
012024031102UGPA3       010ULTRAPAR    ON  ED  NM   R$  000000000285700000000028910000000002828000000000285200000000028410000000002839000000000284213538000000000003694200000000010538630400000000000000009999123100000010000000000000BRUGPAACNOR8155
012024031102UNIP3       010UNIPAR      ON           R$  000000000620200000000062500000000006196000000000622900000000061960000000006196000000000622000078000000000000012200000000000075995200000000000000009999123100000010000000000000BRUNIPACNOR7204
012024031102UNIP6       010UNIPAR      PNB          R$  000000000667400000000067060000000006629000000000666200000000066720000000006635000000000667200864000000000000138700000000000924053000000000000000009999123100000010000000000000BRUNIPACNPB8204
012024031102COGN3       010COGNA ON    ON      NM   R$  000000000026500000000002720000000000264000000000026900000000002690000000000269000000000027012150000000000017948200000000004834577900000000000000009999123100000010000000000000BRCOGNACNOR2104
012024031102FESA3       010FERBASA     ON      N1   R$  000000000137000000000013840000000001370000000000137800000000013840000000001360000000000140900006000000000000000800000000000001102500000000000000009999123100000010000000000000BRFESAACNOR8187
012024031102USIM3       010USIMINAS    ON      N1   R$  000000000102600000000010350000000000988000000000099600000000009950000000000992000000000099601859000000000001300400000000001295930000000000000000009999123100000010000000000000BRUSIMACNOR3166
012024031102FESA4       010FERBASA     PN      N1   R$  000000000090800000000009160000000000896000000000090600000000009020000000000901000000000090202306000000000000494900000000000448614400000000000000009999123100000010000000000000BRFESAACNPR5083
012024031102FHER3       010FER HERINGERON      NM   R$  000000000057800000000005800000000000575000000000057900000000005760000000000576000000000057900009000000000000003100000000000001795000000000000000009999123100000010000000000000BRFHERACNOR5103
012024031102FIQE3       010UNIFIQUE    ON      NM   R$  000000000043400000000004370000000000421000000000042900000000004330000000000429000000000043301177000000000000413200000000000177368300000000000000009999123100000010000000000000BRFIQEACNOR5106
012024031102FLRY3       010FLEURY      ON      NM   R$  000000000152900000000015400000000001522000000000153000000000015370000000001536000000000153707150000000000002066200000000003161339300000000000000009999123100000010000000000000BRFLRYACNOR5137
012024031102FRAS3       010FRAS-LE     ON      N1   R$  000000000166500000000016800000000001652000000000166900000000016740000000001666000000000167400834000000000000258000000000000430619700000000000000009999123100000010000000000000BRFRASACNOR0158
012024031102FRIO3       010METALFRIO   ON      NM   R$  000000002966500000000296650000000029665000000002966500000000296650000000021500000000003410000001000000000000000100000000000002966500000000000000009999123100000010000000000000BRFRIOACNOR2111
012024031102BPAC3       010BTGP BANCO  ON      N2   R$  000000000170900000000017180000000001707000000000171700000000017180000000001700000000000174900040000000000000007000000000000012022500000000000000009999123100000010000000000000BRBPACACNOR7133
012024031102BPAC5       010BTGP BANCO  PNA     N2   R$  000000000090800000000009200000000000908000000000091500000000009200000000000909000000000091900035000000000000005100000000000004669600000000000000009999123100000010000000000000BRBPACACNPA0133
012024031102BPAN4       010BANCO PAN   PN      N1   R$  000000000086100000000008740000000000860000000000086300000000008650000000000864000000000086502746000000000001746600000000001508405700000000000000009999123100000010000000000000BRBPANACNPR1115
012024031102BRAP3       010BRADESPAR   ON      N1   R$  000000000198900000000019890000000001944000000000195500000000019490000000001949000000000195300665000000000000174100000000000340509000000000000000009999123100000010000000000000BRBRAPACNOR5147
012024031102GEPA4       010GER PARANAP PN           R$  000000000262500000000026250000000002625000000000262500000000026250000000002613000000000269900001000000000000000100000000000000262500000000000000009999123100000010000000000000BRGEPAACNPR9159
012024031102IRBR3       010IRBBRASIL REON      NM   R$  000000000428300000000043360000000004044000000000418900000000040640000000004058000000000406408569000000000003102100000000012996350200000000000000009999123100000010000000000000BRIRBRACNOR4111
012024031102LUPA3       010LUPATECH    ON      NM   R$  000000000020700000000002120000000000204000000000020900000000002080000000000208000000000020900513000000000000131800000000000027581700000000000000009999123100000010000000000000BRLUPAACNOR8112
012024031102BAHI3       010BAHEMA      ON      MA   R$  000000000064200000000006450000000000626000000000064100000000006260000000000625000000000064200004000000000000002800000000000001796100000000000000009999123100000010000000000000BRBAHIACNOR1074
012024031102BAZA3       010AMAZONIA    ON           R$  000000000905100000000090550000000008808000000000896600000000088080000000008700000000000900000034000000000000005000000000000044833400000000000000009999123100000010000000000000BRBAZAACNOR0178
012024031102BBAS3       010BRASIL      ON      NM   R$  000000000577000000000057700000000005690000000000572700000000057230000000005723000000000572532947000000000012581900000000072059016200000000000000009999123100000010000000000000BRBBASACNOR3320
012024031102LUXM4       010TREVISA     PN           R$  000000000157000000000015700000000001570000000000157000000000015700000000001510000000000157900001000000000000000100000000000000157000000000000000009999123100000010000000000000BRLUXMACNPR4051
012024031102LVTC3       010WDC NETWORKSON      NM   R$  000000000038200000000003940000000000382000000000038600000000003840000000000383000000000038800045000000000000007700000000000002978900000000000000009999123100000010000000000000BRLVTCACNOR4102
012024031102LWSA3       010LWSA        ON      NM   R$  000000000057000000000005840000000000565000000000057400000000005770000000000576000000000057809355000000000005823500000000003346256700000000000000009999123100000010000000000000BRLWSAACNOR8103
012024031102MAPT4       010CEMEPE      PN           R$  000000000058300000000006100000000000583000000000059600000000006100000000000581000000000067000002000000000000000200000000000000119300000000000000009999123100000010000000000000BRMAPTACNPR5106
012024031102MATD3       010MATER DEI   ON      NM   R$  000000000061100000000006310000000000611000000000062200000000006230000000000616000000000062301692000000000001100300000000000684637500000000000000009999123100000010000000000000BRMATDACNOR4103
012024031102MBLY3       010MOBLY       ON      NM   R$  000000000020500000000002070000000000200000000000020200000000002030000000000203000000000020400640000000000000399800000000000080938800000000000000009999123100000010000000000000BRMBLYACNOR5100
012024031102MDIA3       010M.DIASBRANCOON      NM   R$  000000000407000000000041000000000003946000000000400800000000039950000000003991000000000400002489000000000000799900000000003206322300000000000000009999123100000010000000000000BRMDIAACNOR7133
012024031102MDNE3       010MOURA DUBEUXON      NM   R$  000000000121300000000012440000000001209000000000122900000000012350000000001235000000000123900945000000000000282300000000000347200900000000000000009999123100000010000000000000BRMDNEACNOR9100
012024031102MEAL3       010IMC S/A     ON      NM   R$  000000000022500000000002250000000000220000000000022200000000002210000000000221000000000022200556000000000000656000000000000145710600000000000000009999123100000010000000000000BRMEALACNOR9105
012024031102MELK3       010MELNICK     ON      NM   R$  000000000047900000000004930000000000474000000000048200000000004780000000000478000000000048001410000000000000275900000000000133221700000000000000009999123100000010000000000000BRMELKACNOR8110
012024031102MGEL4       010MANGELS INDLPN           R$  000000000148300000000015180000000001481000000000150200000000015180000000001425000000000152500013000000000000001700000000000002555000000000000000009999123100000010000000000000BRMGELACNPR3147
012024031102MGLU3       010MAGAZ LUIZA ON      NM   R$  000000000020400000000002060000000000200000000000020200000000002000000000000200000000000020118436000000000058152200000000011770804400000000000000009999123100000010000000000000BRMGLUACNOR2123
012024031102PCAR3       010P.ACUCAR-CBDON      NM   R$  000000000035100000000003560000000000342000000000034600000000003490000000000348000000000034905629000000000012735300000000004417793600000000000000009999123100000010000000000000BRPCARACNOR3167
012024031102PDGR3       010PDG REALT   ON      NM   R$  000000000003200000000000350000000000031000000000003300000000000330000000000033000000000003400902000000000006319300000000000210459200000000000000009999123100000010000000000000BRPDGRACNOR8118
012024031102PDTC3       010PADTEC      ON      NM   R$  000000000030900000000003090000000000293000000000029800000000002930000000000293000000000029400418000000000000258500000000000077159400000000000000009999123100000010000000000000BRPDTCACNOR3100
012024031102PEAB4       010PAR AL BAHIAPN           R$  000000000453700000000045370000000004537000000000453700000000045370000000004537000000000470000004000000000000000400000000000001814800000000000000009999123100000010000000000000BRPEABACNPR0131
012024031102PETR3       010PETROBRAS   ON      N2   R$  000000000367000000000037970000000003614000000000369300000000036270000000003626000000000362747204000000000047244600000000174493607400000000000000009999123100000010000000000000BRPETRACNOR9202
012024031102PETR4       010PETROBRAS   PN      N2   R$  000000000356700000000037740000000003530000000000363200000000035650000000003565000000000356644440000000000127528700000000463269130900000000000000009999123100000010000000000000BRPETRACNPR6210
012024031102ASAI3       010ASSAI       ON      NM   R$  000000000143100000000014460000000001420000000000143000000000014290000000001429000000000143012699000000000006189600000000008852615400000000000000009999123100000010000000000000BRASAIACNOR0106
012024031102ATOM3       010ATOMPAR     ON           R$  000000000019100000000001930000000000189000000000019000000000001890000000000189000000000019100042000000000000010300000000000001967200000000000000009999123100000010000000000000BRATOMACNOR1106
012024031102AURE3       010AUREN       ON  ED  NM   R$  000000000121500000000012170000000001199000000000120500000000012030000000001203000000000120405841000000000003360500000000004050955800000000000000009999123100000010000000000000BRAUREACNOR9104
012024031102CLSA3       010CLEARSALE   ON      NM   R$  000000000037200000000003730000000000357000000000036400000000003640000000000364000000000036501273000000000000440100000000000160394700000000000000009999123100000010000000000000BRCLSAACNOR0100
012024031102CLSC4       010CELESC      PN      N2   R$  000000000681500000000068150000000006749000000000679100000000068000000000006800000000000685000019000000000000003800000000000025805800000000000000009999123100000010000000000000BRCLSCACNPR3128
012024031102CMIG3       010CEMIG       ON      N1   R$  000000000150100000000015060000000001480000000000149200000000014870000000001482000000000148700859000000000000186300000000000278116300000000000000009999123100000010000000000000BRCMIGACNOR6239
012024031102CMIG4       010CEMIG       PN      N1   R$  000000000119300000000011980000000001180000000000118700000000011850000000001183000000000118612214000000000006563000000000007796717800000000000000009999123100000010000000000000BRCMIGACNPR3240
012024031102CMIN3       010CSNMINERACAOON      N2   R$  000000000058700000000005870000000000571000000000057600000000005780000000000577000000000057912884000000000006965800000000004018030300000000000000009999123100000010000000000000BRCMINACNOR2110
012024031102ENJU3       010ENJOEI      ON      NM   R$  000000000017000000000001830000000000169000000000017300000000001730000000000171000000000017300329000000000000535200000000000092874700000000000000009999123100000010000000000000BRENJUACNOR9100
012024031102EPAR3       010EMBPAR S/A  ON           R$  000000000094400000000009440000000000934000000000093800000000009350000000000934000000000094400018000000000000003100000000000002909400000000000000009999123100000010000000000000BREPARACNOR9104
012024031102EQMA3B      010EQTLMARANHAOON      MB   R$  000000000299900000000030000000000002999000000000299900000000030000000000002951000000000299800004000000000000000500000000000001499900000000000000009999123100000010000000000000BREQMAACNOR8107
012024031102EQPA3       010EQTL PARA   ON           R$  000000000079900000000007990000000000787000000000079300000000007870000000000785000000000078700018000000000000004800000000000003807800000000000000009999123100000010000000000000BREQPAACNOR1110
012024031102EQTL3       010EQUATORIAL  ON      NM   R$  000000000334100000000033580000000003320000000000333100000000033350000000003335000000000333615854000000000009314600000000031036066500000000000000009999123100000010000000000000BREQTLACNOR0129
012024031102ESPA3       010ESPACOLASER ON      NM   R$  000000000011000000000001110000000000105000000000010700000000001060000000000106000000000010700659000000000000507900000000000054643200000000000000009999123100000010000000000000BRESPAACNOR7103
012024031102ESTR4       010ESTRELA     PN           R$  000000000023900000000002390000000000214000000000022900000000002250000000000213000000000022600012000000000000003200000000000000734900000000000000009999123100000010000000000000BRESTRACNPR0144
012024031102EUCA4       010EUCATEX     PN      N1   R$  000000000179300000000017930000000001766000000000177900000000017890000000001780000000000178900188000000000000033400000000000059442700000000000000009999123100000010000000000000BREUCAACNPR8044
012024031102EVEN3       010EVEN        ON      NM   R$  000000000086800000000008750000000000861000000000087000000000008680000000000867000000000086803413000000000000838100000000000729581200000000000000009999123100000010000000000000BREVENACNOR8118
012024031102EZTC3       010EZTEC       ON      NM   R$  000000000160400000000016560000000001598000000000164300000000016540000000001653000000000165503623000000000001095900000000001801151800000000000000009999123100000010000000000000BREZTCACNOR0123
012024031102IFCM3       010INFRACOMM   ON      NM   R$  000000000010700000000001110000000000105000000000010800000000001070000000000107000000000010804179000000000006056900000000000657303100000000000000009999123100000010000000000000BRIFCMACNOR8101
012024031102IGTI11      010IGUATEMI S.AUNT     N1   R$  000000000236600000000023830000000002350000000000236500000000023510000000002351000000000236710425000000000002258100000000005342209900000000000000009999123100000010000000000000BRIGTICDAM16105
012024031102IGTI3       010IGUATEMI S.AON      N1   R$  000000000029300000000002980000000000292000000000029400000000002980000000000293000000000029800069000000000000015700000000000004626800000000000000009999123100000010000000000000BRIGTIACNOR8105
012024031102IGTI4       010IGUATEMI S.APN      N1   R$  000000000103100000000010310000000001027000000000102800000000010270000000000970000000000107500002000000000000000300000000000000308500000000000000009999123100000010000000000000BRIGTIACNPR5105
012024031102INEP3       010INEPAR      ON           R$  000000000031900000000003230000000000290000000000030100000000003070000000000302000000000030700310000000000000249300000000000075257600000000000000009999123100000010000000000000BRINEPACNOR1143
012024031102INEP4       010INEPAR      PN           R$  000000000029000000000002940000000000283000000000028200000000002830000000000283000000000028400132000000000000087800000000000024825900000000000000009999123100000010000000000000BRINEPACNPR8143
012024031102INTB3       010INTELBRAS   ON  ED  NM   R$  000000000214100000000021620000000002101000000000213200000000021260000000002126000000000213004346000000000000787700000000001679704700000000000000009999123100000010000000000000BRINTBACNOR9110
012024031102LREN3       010LOJAS RENNERON      NM   R$  000000000161000000000016290000000001583000000000160000000000015940000000001594000000000159720492000000000007594400000000012157649100000000000000009999123100000010000000000000BRLRENACNOR1219
012024031102ODPV3       010ODONTOPREV  ON      NM   R$  000000000130200000000013050000000001291000000000129700000000012950000000001291000000000129504165000000000001796700000000002330810700000000000000009999123100000010000000000000BRODPVACNOR4198
012024031102OFSA3       010OUROFINO S/AON      NM   R$  000000000225100000000023500000000002251000000000231700000000023500000000002278000000000235100030000000000000004000000000000009271900000000000000009999123100000010000000000000BROFSAACNOR7117
012024031102ONCO3       010ONCOCLINICASON      NM   R$  000000000102700000000010370000000001013000000000102000000000010140000000001014000000000102104209000000000000896700000000000915471600000000000000009999123100000010000000000000BRONCOACNOR6100
012024031102MYPK3       010IOCHP-MAXIONON      NM   R$  000000000135000000000013770000000001346000000000135800000000013530000000001353000000000135903109000000000000587700000000000798101800000000000000009999123100000010000000000000BRMYPKACNOR7153
012024031102NEOE3       010NEOENERGIA  ON      NM   R$  000000000218700000000021890000000002133000000000215000000000021450000000002143000000000214505577000000000001274600000000002741009800000000000000009999123100000010000000000000BRNEOEACNOR3121
012024031102NGRD3       010NEOGRID     ON      NM   R$  000000000010900000000001090000000000106000000000010700000000001070000000000107000000000010800292000000000000469100000000000050474400000000000000009999123100000010000000000000BRNGRDACNOR3103
012024031102NINJ3       010GETNINJAS   ON      NM   R$  000000000051000000000005290000000000508000000000051700000000005140000000000514000000000051800205000000000000069200000000000035839800000000000000009999123100000010000000000000BRNINJACNOR5101
012024031102NORD3       010NORDON MET  ON           R$  000000000112900000000011290000000001129000000000112900000000011290000000001103000000000123000001000000000000000100000000000000112900000000000000009999123100000010000000000000BRNORDACNOR7135
012024031102NTCO3       010GRUPO NATURAON      NM   R$  000000000175900000000017810000000001711000000000174100000000017330000000001732000000000173322016000000000013141800000000022891859700000000000000009999123100000010000000000000BRNTCOACNOR5104
012024031102AERI3       010AERIS       ON      NM   R$  000000000006600000000000670000000000065000000000006500000000000650000000000065000000000006602041000000000001478400000000000096852200000000000000009999123100000010000000000000BRAERIACNOR4101
012024031102AESB3       010AES BRASIL  ON      NM   R$  000000000104500000000010590000000001045000000000105200000000010500000000001050000000000105506098000000000001866800000000001965499800000000000000009999123100000010000000000000BRAESBACNOR7105
012024031102AGRO3       010BRASILAGRO  ON      NM   R$  000000000240800000000024200000000002387000000000240000000000024010000000002398000000000240101377000000000000237800000000000570860500000000000000009999123100000010000000000000BRAGROACNOR7114
012024031102AGXY3       010AGROGALAXY  ON      NM   R$  000000000019000000000001910000000000185000000000018800000000001850000000000185000000000018700326000000000000123400000000000023236200000000000000009999123100000010000000000000BRAGXYACNOR4102
012024031102ALLD3       010ALLIED      ON      NM   R$  000000000070300000000007090000000000692000000000070200000000007040000000000704000000000070900058000000000000011600000000000008146800000000000000009999123100000010000000000000BRALLDACNOR3105
012024031102ALOS3       010ALLOS       ON      NM   R$  000000000241600000000024300000000002392000000000240900000000024130000000002412000000000241508850000000000003758900000000009057870500000000000000009999123100000010000000000000BRALOSACNOR5100
012024031102BBDC3       010BRADESCO    ON  EJ  N1   R$  000000000121900000000012350000000001218000000000122800000000012310000000001230000000000123209330000000000012577100000000015444757700000000000000009999123100000010000000000000BRBBDCACNOR1767
012024031102BBDC4       010BRADESCO    PN  EJ  N1   R$  000000000138100000000013970000000001378000000000139000000000013920000000001391000000000139331628000000000027118300000000037720884500000000000000009999123100000010000000000000BRBBDCACNPR8767
012024031102BRSR3       010BANRISUL    ON      N1   R$  000000000148200000000014830000000001460000000000146900000000014610000000001461000000000147900025000000000000004400000000000006464000000000000000009999123100000010000000000000BRBRSRACNOR3185
012024031102BRSR6       010BANRISUL    PNB     N1   R$  000000000149800000000015140000000001485000000000149700000000015010000000001496000000000150102493000000000000575900000000000862319100000000000000009999123100000010000000000000BRBRSRACNPB4188
012024031102BSLI4       010BRB BANCO   PN           R$  000000000109000000000011220000000001090000000000111000000000011220000000001050000000000110600005000000000000000600000000000000666200000000000000009999123100000010000000000000BRBSLIACNPR2192
012024031102CALI3       010CONST A LINDON           R$  000000000230000000000023000000000002300000000000230000000000023000000000002300000000000249500001000000000000000100000000000000230000000000000000009999123100000010000000000000BRCALIACNOR1136
012024031102CAMB3       010CAMBUCI     ON           R$  000000000110000000000011400000000001100000000000112400000000011330000000001124000000000113300150000000000000034000000000000038239300000000000000009999123100000010000000000000BRCAMBACNOR4127
012024031102CAML3       010CAMIL       ON      NM   R$  000000000085100000000008580000000000849000000000085200000000008530000000000849000000000085301007000000000000224400000000000191356700000000000000009999123100000010000000000000BRCAMLACNOR3127
012024031102CASH3       010MELIUZ      ON      NM   R$  000000000085200000000008570000000000834000000000084300000000008340000000000833000000000083803218000000000001016800000000000857631700000000000000009999123100000010000000000000BRCASHACNOR8105
012024031102CBAV3       010CBA         ON      NM   R$  000000000039400000000004070000000000390000000000040000000000004000000000000399000000000040006067000000000003036100000000001216184700000000000000009999123100000010000000000000BRCBAVACNOR5104
012024031102ELMD3       010ELETROMIDIA ON      NM   R$  000000000155400000000015740000000001523000000000154300000000015300000000001530000000000154600347000000000000051500000000000079482400000000000000009999123100000010000000000000BRELMDACNOR3100
012024031102EMAE4       010EMAE        PN           R$  000000000799900000000080990000000007800000000000797200000000079900000000007900000000000800000058000000000000011800000000000094073400000000000000009999123100000010000000000000BREMAEACNPR1124
012024031102EMBR3       010EMBRAER     ON      NM   R$  000000000267900000000026960000000002609000000000264600000000026630000000002660000000000266310455000000000003576800000000009466806300000000000000009999123100000010000000000000BREMBRACNOR4191
012024031102HBRE3       010HBR REALTY  ON      NM   R$  000000000053700000000005410000000000527000000000053600000000005380000000000537000000000053800691000000000000359100000000000192833000000000000000009999123100000010000000000000BRHBREACNOR4100
012024031102HBSA3       010HIDROVIAS   ON      NM   R$  000000000034900000000003580000000000348000000000035200000000003520000000000350000000000035206078000000000002497200000000000879102900000000000000009999123100000010000000000000BRHBSAACNOR0100
012024031102HETA4       010HERCULES    PN           R$  000000000062200000000006650000000000622000000000064300000000006650000000000622000000000066500002000000000000000200000000000000128700000000000000009999123100000010000000000000BRHETAACNPR9136
012024031102EALT4       010ACO ALTONA  PN           R$  000000000106100000000010800000000001040000000000105000000000010420000000001042000000000104400038000000000000006700000000000007035300000000000000009999123100000010000000000000BREALTACNPR1137
012024031102ECOR3       010ECORODOVIAS ON      NM   R$  000000000088900000000009220000000000889000000000090700000000009130000000000912000000000091504795000000000002122400000000001926580800000000000000009999123100000010000000000000BRECORACNOR8119
012024031102GGPS3       010GPS         ON      NM   R$  000000000176700000000017820000000001750000000000175700000000017590000000001759000000000176306477000000000002484800000000004366661400000000000000009999123100000010000000000000BRGGPSACNOR9102
012024031102GMAT3       010GRUPO MATEUSON      NM   R$  000000000080700000000008130000000000789000000000079600000000007930000000000793000000000079504623000000000002957000000000002356265900000000000000009999123100000010000000000000BRGMATACNOR7100
012024031102GOAU3       010GERDAU MET  ON  ED  N1   R$  000000000101300000000010180000000001005000000000100900000000010090000000001008000000000101000209000000000000039400000000000039792400000000000000009999123100000010000000000000BRGOAUACNOR1266
012024031102GOAU4       010GERDAU MET  PN  ED  N1   R$  000000000097500000000009910000000000972000000000098300000000009840000000000983000000000098510008000000000005914900000000005816436900000000000000009999123100000010000000000000BRGOAUACNPR8267
012024031102RECV3       010PETRORECSA  ON      NM   R$  000000000212400000000022220000000002124000000000218300000000021690000000002168000000000217311426000000000003519100000000007684777000000000000000009999123100000010000000000000BRRECVACNOR3105
012024031102REDE3       010REDE ENERGIAON           R$  000000000068900000000006900000000000668000000000067700000000006820000000000678000000000068700045000000000000009700000000000006574200000000000000009999123100000010000000000000BRREDEACNOR7126
012024031102RENT3       010LOCALIZA    ON      NM   R$  000000000528800000000053190000000005220000000000526700000000052300000000005227000000000523022821000000000008745600000000046064002600000000000000009999123100000010000000000000BRRENTACNOR4194
012024031102TECN3       010TECHNOS     ON      NM   R$  000000000038000000000003800000000000358000000000036400000000003590000000000359000000000036000487000000000000209100000000000076242800000000000000009999123100000010000000000000BRTECNACNOR6109
012024031102TELB3       010TELEBRAS    ON           R$  000000000143000000000014300000000001400000000000142600000000014000000000001377000000000141900005000000000000001200000000000001711900000000000000009999123100000010000000000000BRTELBACNOR2140
012024031102TELB4       010TELEBRAS    PN           R$  000000000105800000000010820000000001058000000000106500000000010820000000001060000000000108500005000000000000000600000000000000639200000000000000009999123100000010000000000000BRTELBACNPR9140
012024031102TEND3       010TENDA       ON      NM   R$  000000000112300000000011440000000001090000000000112000000000011280000000001128000000000113308124000000000002472500000000002769502300000000000000009999123100000010000000000000BRTENDACNOR4111
012024031102TFCO4       010TRACK FIELD PN      N2   R$  000000000132100000000013350000000001310000000000131800000000013160000000001316000000000132400350000000000000147900000000000194945200000000000000009999123100000010000000000000BRTFCOACNPR8111
012024031102TGMA3       010TEGMA       ON      NM   R$  000000000279400000000028250000000002776000000000280100000000028250000000002815000000000282500985000000000000221700000000000621106000000000000000009999123100000010000000000000BRTGMAACNOR7143
012024031102TIMS3       010TIM         ON      NM   R$  000000000188500000000018920000000001827000000000184300000000018270000000001827000000000183316513000000000008464800000000015604828100000000000000009999123100000010000000000000BRTIMSACNOR5114
012024031102TOTS3       010TOTVS       ON      NM   R$  000000000298100000000030270000000002981000000000300400000000030210000000003017000000000302408287000000000003491100000000010488702500000000000000009999123100000010000000000000BRTOTSACNOR8144
012024031102TPIS3       010TRIUNFO PARTON      NM   R$  000000000039400000000003990000000000380000000000038900000000003860000000000386000000000038700126000000000000063200000000000024602100000000000000009999123100000010000000000000BRTPISACNOR8118
012024031102TRAD3       010TC          ON      NM   R$  000000000008800000000000890000000000086000000000008700000000000870000000000086000000000008700104000000000000138300000000000012075600000000000000009999123100000010000000000000BRTRADACNOR3101
012024031102TRIS3       010TRISUL      ON      NM   R$  000000000051000000000005250000000000505000000000051400000000005140000000000512000000000051401855000000000000794700000000000408519600000000000000009999123100000010000000000000BRTRISACNOR4116
012024031102TRPL3       010TRAN PAULISTON      N1   R$  000000000333600000000033360000000003304000000000333100000000033040000000003301000000000335100011000000000000001700000000000005663100000000000000009999123100000010000000000000BRTRPLACNOR4185
012024031102TRPL4       010TRAN PAULISTPN      N1   R$  000000000250700000000025210000000002484000000000250400000000024950000000002488000000000249808818000000000001746400000000004373138900000000000000009999123100000010000000000000BRTRPLACNPR1185
012024031102RANI3       010IRANI       ON  ED  NM   R$  000000000086800000000008820000000000856000000000086300000000008560000000000856000000000085703497000000000001591900000000001374488700000000000000009999123100000010000000000000BRRANIACNOR5070
012024031102RAPT3       010RANDON PART ON      N1   R$  000000000110400000000011140000000001090000000000110200000000011140000000001090000000000111400023000000000000005800000000000006395400000000000000009999123100000010000000000000BRRAPTACNOR7162
012024031102RAPT4       010RANDON PART PN      N1   R$  000000000113700000000011620000000001136000000000115000000000011460000000001146000000000114903171000000000000767600000000000883459600000000000000009999123100000010000000000000BRRAPTACNPR4162
012024031102CPFE3       010CPFL ENERGIAON      NM   R$  000000000341900000000034960000000003419000000000346900000000034560000000003456000000000346009882000000000002753100000000009550921500000000000000009999123100000010000000000000BRCPFEACNOR0136
012024031102CPLE3       010COPEL       ON      N2   R$  000000000091000000000009120000000000898000000000090300000000009020000000000902000000000090403251000000000008750200000000007907809400000000000000009999123100000010000000000000BRCPLEACNOR8148
012024031102CPLE6       010COPEL       PNB     N2   R$  000000000101400000000010190000000001002000000000100800000000010030000000001003000000000100414175000000000009410600000000009487549100000000000000009999123100000010000000000000BRCPLEACNPB9145
012024031102CSUD3       010CSU DIGITAL ON      NM   R$  000000000207700000000020770000000001971000000000200100000000019720000000001972000000000198800248000000000000038300000000000076656200000000000000009999123100000010000000000000BRCSUDACNOR5107
012024031102CTKA4       010KARSTEN     PN           R$  000000000170000000000017000000000001700000000000170000000000017000000000001700000000000180000005000000000000004000000000000006800000000000000000009999123100000010000000000000BRCTKAACNPR7043
012024031102CTNM4       010COTEMINAS   PN           R$  000000000012700000000001280000000000125000000000012500000000001260000000000126000000000012700020000000000000012800000000000001606300000000000000009999123100000010000000000000BRCTNMACNPR6129
012024031102CTSA3       010SANTANENSE  ON           R$  000000000030100000000003090000000000299000000000030100000000003090000000000302000000000030800010000000000000001400000000000000421800000000000000009999123100000010000000000000BRCTSAACNOR3062
012024031102CTSA4       010SANTANENSE  PN           R$  000000000016700000000001710000000000164000000000016600000000001640000000000164000000000016600060000000000000014500000000000002413600000000000000009999123100000010000000000000BRCTSAACNPR0062
012024031102CURY3       010CURY S/A    ON      NM   R$  000000000195100000000019910000000001942000000000196200000000019590000000001953000000000195908237000000000002174400000000004267521900000000000000009999123100000010000000000000BRCURYACNOR3107
012024031102CXSE3       010CAIXA SEGURION      NM   R$  000000000159700000000016070000000001575000000000158900000000015890000000001589000000000159108771000000000003093900000000004917517900000000000000009999123100000010000000000000BRCXSEACNOR7105
012024031102CYRE3       010CYRELA REALTON      NM   R$  000000000244200000000024670000000002422000000000244800000000024590000000002450000000000246108874000000000002844900000000006965827500000000000000009999123100000010000000000000BRCYREACNOR7139
012024031102ITUB3       010ITAUUNIBANCOON  EJ  N1   R$  000000000294000000000029660000000002940000000000295200000000029490000000002945000000000295301786000000000000436300000000001288244000000000000000009999123100000010000000000000BRITUBACNOR4332
012024031102ITUB4       010ITAUUNIBANCOPN  EJ  N1   R$  000000000340100000000034270000000003399000000000341600000000034270000000003424000000000342726149000000000020181300000000068959252700000000000000009999123100000010000000000000BRITUBACNPR1332
012024031102BEEF3       010MINERVA     ON      NM   R$  000000000067000000000006810000000000666000000000067100000000006700000000000668000000000067006946000000000005520200000000003704295600000000000000009999123100000010000000000000BRBEEFACNOR6116
012024031102BEES3       010BANESTES    ON  EJ       R$  000000000092000000000009260000000000910000000000091900000000009160000000000915000000000092100066000000000000011100000000000010200900000000000000009999123100000010000000000000BRBEESACNOR9388
012024031102BEES4       010BANESTES    PN  EJ       R$  000000000098000000000009890000000000980000000000098400000000009840000000000984000000000098800026000000000000002800000000000002756900000000000000009999123100000010000000000000BRBEESACNPR6313
012024031102SLCE3       010SLC AGRICOLAON      NM   R$  000000000192500000000019460000000001902000000000191700000000019050000000001905000000000191308809000000000003157400000000006054468000000000000000009999123100000010000000000000BRSLCEACNOR2124
012024031102PINE3       010PINE        ON      N2   R$  000000000069400000000006980000000000637000000000065500000000006390000000000638000000000068600013000000000000001700000000000001113900000000000000009999123100000010000000000000BRPINEACNOR1148
012024031102PINE4       010PINE        PN      N2   R$  000000000047600000000004760000000000462000000000046600000000004640000000000463000000000046400400000000000000318100000000000148255300000000000000009999123100000010000000000000BRPINEACNPR8148
012024031102PLAS3       010PLASCAR PARTON           R$  000000000083300000000009000000000000833000000000089400000000009000000000000852000000000090000004000000000000001200000000000001073300000000000000009999123100000010000000000000BRPLASACNOR2106
012024031102PLPL3       010PLANOEPLANO ON      NM   R$  000000000140000000000014110000000001333000000000135500000000013420000000001342000000000135002092000000000000563700000000000764334400000000000000009999123100000010000000000000BRPLPLACNOR5104
012024031102CRFB3       010CARREFOUR BRON      NM   R$  000000000116600000000011810000000001154000000000116500000000011700000000001166000000000117009803000000000007139200000000008318863900000000000000009999123100000010000000000000BRCRFBACNOR2116
012024031102CRIV4       010ALFA FINANC PN           R$  000000000065300000000007060000000000605000000000066800000000007060000000000671000000000070700013000000000000013700000000000009163600000000000000009999123100000010000000000000BRCRIVACNPR1211
012024031102CRPG5       010CRISTAL     PNA          R$  000000000368700000000036990000000003639000000000367100000000036990000000003626000000000369900011000000000000001100000000000004038200000000000000009999123100000010000000000000BRCRPGACNPA3118
012024031102CRPG6       010CRISTAL     PNB          R$  000000000359600000000035960000000003596000000000359600000000035960000000003513000000000359500002000000000000000200000000000000719200000000000000009999123100000010000000000000BRCRPGACNPB1118
012024031102CSAN3       010COSAN       ON      NM   R$  000000000163500000000016720000000001625000000000165600000000016510000000001650000000000165611723000000000007329300000000012137915700000000000000009999123100000010000000000000BRCSANACNOR6124
012024031102PNVL3       010DIMED       ON      NM   R$  000000000119800000000012100000000001183000000000119400000000011900000000001190000000000119501008000000000000143500000000000171425800000000000000009999123100000010000000000000BRPNVLACNOR9205
012024031102POMO3       010MARCOPOLO   ON  EJB N2   R$  000000000055900000000005590000000000551000000000055400000000005550000000000553000000000055500807000000000000622500000000000345182900000000000000009999123100000010000000000000BRPOMOACNOR0097
012024031102POMO4       010MARCOPOLO   PN  EJB N2   R$  000000000070000000000007190000000000699000000000070900000000007110000000000708000000000071110334000000000011372300000000008074258700000000000000009999123100000010000000000000BRPOMOACNPR7097
012024031102PORT3       010WILSON SONS ON      NM   R$  000000000178700000000017970000000001775000000000178600000000017900000000001790000000000179601088000000000000193100000000000344968700000000000000009999123100000010000000000000BRPORTACNOR8106
012024031102POSI3       010POSITIVO TECON      NM   R$  000000000082600000000008380000000000814000000000082700000000008320000000000831000000000083301726000000000000431500000000000357264500000000000000009999123100000010000000000000BRPOSIACNOR9115
012024031102PRIO3       010PETRORIO    ON      NM   R$  000000000444900000000045600000000004365000000000450000000000044900000000004480000000000449228306000000000010045200000000045212481600000000000000009999123100000010000000000000BRPRIOACNOR1106
012024031102SANB4       010SANTANDER BRPN           R$  000000000150500000000015170000000001502000000000151000000000015030000000001503000000000151100504000000000000092200000000000139226300000000000000009999123100000010000000000000BRSANBACNPR5170
012024031102BGIP3       010BANESE      ON  EJ       R$  000000000274000000000027400000000002740000000000274000000000027400000000002741000000000299900001000000000000000100000000000000274000000000000000009999123100000010000000000000BRBGIPACNOR1207
012024031102BGIP4       010BANESE      PN  EJ       R$  000000000247800000000024780000000002460000000000247500000000024600000000002452000000000246000005000000000000000600000000000001485000000000000000009999123100000010000000000000BRBGIPACNPR8207
012024031102BHIA3       010CASAS BAHIA ON      NM   R$  000000000080300000000008210000000000792000000000080400000000008090000000000808000000000080905697000000000003459600000000002784942400000000000000009999123100000010000000000000BRBHIAACNOR1101
012024031102BRAP4       010BRADESPAR   PN      N1   R$  000000000203000000000020390000000001995000000000201400000000020190000000002018000000000202010676000000000005012500000000010099915000000000000000009999123100000010000000000000BRBRAPACNPR2147
012024031102BRBI11      010BR PARTNERS UNT     N2   R$  000000000169000000000017140000000001665000000000168600000000016700000000001670000000000168501575000000000000209200000000000352850800000000000000009999123100000010000000000000BRBRBICDAM10107
012024031102JALL3       010JALLESMACHADON      NM   R$  000000000073600000000007510000000000736000000000074100000000007380000000000738000000000074201332000000000000397100000000000294632300000000000000009999123100000010000000000000BRJALLACNOR0105
012024031102JBSS3       010JBS         ON      NM   R$  000000000214600000000022200000000002144000000000219400000000022070000000002207000000000220809811000000000004695000000000010305077000000000000000009999123100000010000000000000BRJBSSACNOR8121
012024031102MNDL3       010MUNDIAL     ON           R$  000000000429500000000042950000000004295000000000429500000000042950000000003952000000000440000001000000000000000100000000000000429500000000000000009999123100000010000000000000BRMNDLACNOR4107
012024031102MNPR3       010MINUPAR     ON           R$  000000000220000000000022000000000002150000000000218000000000021500000000002100000000000215000014000000000000002500000000000005451800000000000000009999123100000010000000000000BRMNPRACNOR5122
012024031102MOVI3       010MOVIDA      ON      NM   R$  000000000090800000000009190000000000887000000000090600000000008990000000000899000000000090207879000000000002593800000000002351928900000000000000009999123100000010000000000000BRMOVIACNOR0122
012024031102MRFG3       010MARFRIG     ON      NM   R$  000000000095300000000009740000000000952000000000096200000000009530000000000953000000000095508322000000000003438600000000003309499400000000000000009999123100000010000000000000BRMRFGACNOR0116
012024031102BRFS3       010BRF SA      ON      NM   R$  000000000166900000000016870000000001644000000000166100000000016610000000001658000000000166112547000000000005791800000000009625639600000000000000009999123100000010000000000000BRBRFSACNOR8121
012024031102BRGE12      010ALFA CONSORCPNF          R$  000000000129000000000012900000000001290000000000129000000000012900000000001193000000000135000001000000000000000100000000000000129000000000000000009999123100000010000000000000BRBRGEACNPF8098
012024031102CSED3       010CRUZEIRO EDUON      NM   R$  000000000046500000000004680000000000445000000000045100000000004450000000000445000000000045101349000000000000413800000000000186745900000000000000009999123100000010000000000000BRCSEDACNOR9104
012024031102CSMG3       010COPASA      ON      NM   R$  000000000211000000000021170000000002055000000000207500000000020700000000002064000000000207105610000000000001172800000000002433895300000000000000009999123100000010000000000000BRCSMGACNOR5171
012024031102CSNA3       010SID NACIONALON           R$  000000000159100000000016190000000001583000000000159800000000016020000000001600000000000160312416000000000007550200000000012071588500000000000000009999123100000010000000000000BRCSNAACNOR6260
012024031102DASA3       010DASA        ON      NM   R$  000000000072600000000007470000000000723000000000073300000000007290000000000729000000000073001134000000000000186300000000000136583000000000000000009999123100000010000000000000BRDASAACNOR1122
012024031102DESK3       010DESKTOP     ON      NM   R$  000000000139900000000014240000000001387000000000140600000000014050000000001404000000000140500281000000000000039900000000000056103100000000000000009999123100000010000000000000BRDESKACNOR2103
012024031102DEXP3       010DEXXOS PAR  ON      N1   R$  000000000125000000000012580000000001192000000000121700000000011920000000001192000000000121000273000000000000059600000000000072546800000000000000009999123100000010000000000000BRDEXPACNOR1104
012024031102DEXP4       010DEXXOS PAR  PN      N1   R$  000000000121300000000012490000000001213000000000122500000000012490000000001205000000000125000003000000000000000300000000000000367500000000000000009999123100000010000000000000BRDEXPACNPR8104
012024031102DIRR3       010DIRECIONAL  ON      NM   R$  000000000251800000000025240000000002449000000000248000000000024860000000002476000000000248606691000000000001490300000000003697021800000000000000009999123100000010000000000000BRDIRRACNOR0117
012024031102DMVF3       010D1000VFARMA ON      NM   R$  000000000060400000000006100000000000601000000000060700000000006080000000000604000000000060800196000000000000047900000000000029087700000000000000009999123100000010000000000000BRDMVFACNOR9100
012024031102DOHL4       010DOHLER      PN           R$  000000000048800000000004910000000000474000000000048800000000004740000000000474000000000048900023000000000000011800000000000005766800000000000000009999123100000010000000000000BRDOHLACNPR9066
012024031102DOTZ3       010DOTZ SA     ON      NM   R$  000000000066900000000006900000000000636000000000066000000000006520000000000635000000000067300063000000000000019500000000000012882600000000000000009999123100000010000000000000BRDOTZACNOR7101
012024031102DTCY3       010DTCOM-DIRECTON           R$  000000000056300000000005630000000000563000000000056300000000005630000000000400000000000055500001000000000000000100000000000000056300000000000000009999123100000010000000000000BRDTCYACNOR5109
012024031102DXCO3       010DEXCO       ON      NM   R$  000000000081200000000008360000000000807000000000081800000000008150000000000811000000000081505858000000000002098900000000001717426100000000000000009999123100000010000000000000BRDXCOACNOR8104
012024031102SAPR11      010SANEPAR     UNT     N2   R$  000000000262700000000026340000000002569000000000258800000000025780000000002571000000000258403245000000000000597500000000001546674100000000000000009999123100000010000000000000BRSAPRCDAM13117
012024031102SAPR3       010SANEPAR     ON      N2   R$  000000000051400000000005140000000000500000000000050400000000005050000000000503000000000050500761000000000000234000000000000118058000000000000000009999123100000010000000000000BRSAPRACNOR9158
012024031102SAPR4       010SANEPAR     PN      N2   R$  000000000052600000000005270000000000514000000000051800000000005150000000000515000000000051603505000000000001954800000000001013550100000000000000009999123100000010000000000000BRSAPRACNPR6158
012024031102SBFG3       010GRUPO SBF   ON      NM   R$  000000000119800000000012130000000001188000000000119800000000011900000000001190000000000119802798000000000000616800000000000739325400000000000000009999123100000010000000000000BRSBFGACNOR1102
012024031102SBSP3       010SABESP      ON      NM   R$  000000000797400000000080140000000007808000000000785900000000078100000000007809000000000781815662000000000003462600000000027215975700000000000000009999123100000010000000000000BRSBSPACNOR5160
012024031102VALE3       010VALE        ON      NM   R$  000000000647800000000064780000000006372000000000640900000000063960000000006396000000000639801862000000000058622400000000375723935600000000000000009999123100000010000000000000BRVALEACNOR0209
012024031102VITT3       010VITTIA      ON      NM   R$  000000000074400000000007720000000000744000000000075500000000007550000000000753000000000075501059000000000000230600000000000174267000000000000000009999123100000010000000000000BRVITTACNOR4106
012024031102VIVA3       010VIVARA S.A. ON      NM   R$  000000000323800000000032670000000003145000000000317300000000031490000000003149000000000315506321000000000001310100000000004157973900000000000000009999123100000010000000000000BRVIVAACNOR0106
012024031102VIVR3       010VIVER       ON      NM   R$  000000000031400000000003240000000000311000000000031700000000003150000000000315000000000031600182000000000000170200000000000054061200000000000000009999123100000010000000000000BRVIVRACNOR4122
012024031102VIVT3       010TELEF BRASILON           R$  000000000519300000000052560000000005181000000000521200000000052260000000005216000000000522707518000000000001536800000000008010726300000000000000009999123100000010000000000000BRVIVTACNOR0178
012024031102VLID3       010VALID       ON      NM   R$  000000000184700000000019040000000001839000000000186400000000018390000000001839000000000185401434000000000000258400000000000481827400000000000000009999123100000010000000000000BRVLIDACNOR5141
012024031102SANB11      010SANTANDER BRUNT          R$  000000000285300000000028640000000002842000000000285300000000028530000000002852000000000285304055000000000000951800000000002715548800000000000000009999123100000010000000000000BRSANBCDAM13163
012024031102SANB3       010SANTANDER BRON           R$  000000000133200000000013460000000001332000000000134100000000013340000000001334000000000133500515000000000000087000000000000116669800000000000000009999123100000010000000000000BRSANBACNOR8170
012024031102USIM5       010USIMINAS    PNA     N1   R$  000000000107500000000010770000000001026000000000104100000000010350000000001035000000000103624922000000000015490000000000016127174900000000000000009999123100000010000000000000BRUSIMACNPA6168
012024031102VAMO3       010VAMOS       ON      NM   R$  000000000081700000000008430000000000814000000000082800000000008410000000000838000000000084106084000000000004043700000000003351661700000000000000009999123100000010000000000000BRVAMOACNOR7105
012024031102VBBR3       010VIBRA       ON      NM   R$  000000000239000000000024340000000002362000000000240000000000024260000000002423000000000242821125000000000013680200000000032840675500000000000000009999123100000010000000000000BRVBBRACNOR1106
012024031102MILS3       010MILLS       ON      NM   R$  000000000133300000000013540000000001331000000000134700000000013500000000001346000000000135002988000000000000646600000000000871463200000000000000009999123100000010000000000000BRMILSACNOR2124
012024031102MLAS3       010MULTILASER  ON      NM   R$  000000000021300000000002160000000000210000000000021200000000002100000000000210000000000021201156000000000000540300000000000114926000000000000000009999123100000010000000000000BRMLASACNOR9101
012024031102PETZ3       010PETZ        ON      NM   R$  000000000041700000000004300000000000407000000000041500000000004160000000000415000000000041611369000000000018471100000000007683474100000000000000009999123100000010000000000000BRPETZACNOR2109
012024031102OPCT3       010OCEANPACT   ON      NM   R$  000000000062600000000006260000000000612000000000061800000000006120000000000612000000000061402035000000000000562500000000000348115100000000000000009999123100000010000000000000BROPCTACNOR0100
012024031102ORVR3       010ORIZON      ON      NM   R$  000000000379500000000038450000000003772000000000380700000000038000000000003783000000000380001988000000000000419600000000001597737300000000000000009999123100000010000000000000BRORVRACNOR0101
012024031102HYPE3       010HYPERA      ON      NM   R$  000000000328000000000033180000000003272000000000329400000000032760000000003272000000000328206090000000000001154800000000003803989100000000000000009999123100000010000000000000BRHYPEACNOR0138
012024031102ALPA3       010ALPARGATAS  ON      N1   R$  000000000098800000000010130000000000966000000000099000000000010060000000000990000000000100700023000000000000002600000000000002575000000000000000009999123100000010000000000000BRALPAACNOR0231
012024031102ALPA4       010ALPARGATAS  PN      N1   R$  000000000096600000000009850000000000961000000000096900000000009680000000000967000000000097006973000000000005538800000000005371774100000000000000009999123100000010000000000000BRALPAACNPR7232
012024031102ALPK3       010ESTAPAR     ON      NM   R$  000000000045700000000004700000000000449000000000045700000000004590000000000451000000000045900367000000000000111700000000000051130300000000000000009999123100000010000000000000BRALPKACNOR9101
012024031102ALUP11      010ALUPAR      UNT     N2   R$  000000000304100000000030750000000003013000000000303200000000030220000000003019000000000302902949000000000000945500000000002867368200000000000000009999123100000010000000000000BRALUPCDAM15117
012024031102ALUP3       010ALUPAR      ON      N2   R$  000000000102900000000010300000000001001000000000101300000000010050000000001001000000000100500196000000000000032100000000000032531500000000000000009999123100000010000000000000BRALUPACNOR8117
012024031102ALUP4       010ALUPAR      PN      N2   R$  000000000101900000000010230000000001002000000000101200000000010070000000001003000000000100800148000000000000022300000000000022589000000000000000009999123100000010000000000000BRALUPACNPR5117
012024031102AMAR3       010LOJAS MARISAON      NM   R$  000000000025000000000002580000000000243000000000024900000000002430000000000243000000000024400573000000000000296800000000000074129400000000000000009999123100000010000000000000BRAMARACNOR4114
012024031102AMBP3       010AMBIPAR     ON      NM   R$  000000000145500000000015140000000001434000000000148400000000014790000000001471000000000147903655000000000000804200000000001194042400000000000000009999123100000010000000000000BRAMBPACNOR6103
012024031102MSPA4       010MELHOR SP   PN           R$  000000000380000000000038000000000003800000000000380000000000038000000000003800000000000390000001000000000000000100000000000000380000000000000000009999123100000010000000000000BRMSPAACNPR7126
012024031102MTRE3       010MITRE REALTYON      NM   R$  000000000056000000000005650000000000545000000000055600000000005650000000000564000000000056502981000000000001524200000000000847589500000000000000009999123100000010000000000000BRMTREACNOR6109
012024031102MTSA4       010METISA      PN           R$  000000000502000000000050200000000004914000000000496500000000049140000000004807000000000491500019000000000000002200000000000010924200000000000000009999123100000010000000000000BRMTSAACNPR9071
012024031102MULT3       010MULTIPLAN   ON      N2   R$  000000000260400000000026280000000002595000000000260800000000026040000000002601000000000260511848000000000002152000000000005612725400000000000000009999123100000010000000000000BRMULTACNOR5137
012024031102ANIM3       010ANIMA       ON      NM   R$  000000000049800000000005080000000000482000000000049400000000005030000000000503000000000050408914000000000005986300000000002959201700000000000000009999123100000010000000000000BRANIMACNOR6107
012024031102APER3       010ALPER S.A.  ON           R$  000000000425000000000044000000000004250000000000432500000000044000000000003350000000000441000002000000000000000200000000000000865000000000000000009999123100000010000000000000BRAPERACNOR9106
012024031102ARML3       010ARMAC       ON      NM   R$  000000000129100000000013090000000001272000000000128500000000012810000000001281000000000128201288000000000000244200000000000313999100000000000000009999123100000010000000000000BRARMLACNOR1110
012024031102ARZZ3       010AREZZO CO   ON      NM   R$  000000000586700000000059470000000005842000000000588000000000058500000000005850000000000585805470000000000000970900000000005709518500000000000000009999123100000010000000000000BRARZZACNOR3146
012024031102CCRO3       010CCR SA      ON      NM   R$  000000000137600000000014030000000001372000000000139400000000013970000000001395000000000139714919000000000006512700000000009079148400000000000000009999123100000010000000000000BRCCROACNOR2144
012024031102CEAB3       010CEA MODAS   ON      NM   R$  000000000098000000000009820000000000955000000000096600000000009570000000000956000000000096403275000000000001849600000000001787914500000000000000009999123100000010000000000000BRCEABACNOR1101
012024031102CEBR3       010CEB         ON           R$  000000000191900000000019500000000001911000000000192700000000019490000000001901000000000194900028000000000000006500000000000012528800000000000000009999123100000010000000000000BRCEBRACNOR5124
012024031102CEBR5       010CEB         PNA          R$  000000000183100000000018750000000001831000000000185500000000018730000000001855000000000187400019000000000000003200000000000005937400000000000000009999123100000010000000000000BRCEBRACNPA8123
012024031102CEBR6       010CEB         PNB          R$  000000000198900000000019900000000001951000000000197600000000019510000000001951000000000199000022000000000000004800000000000009488500000000000000009999123100000010000000000000BRCEBRACNPB6123
012024031102CEDO3       010CEDRO       ON      N1   R$  000000000260100000000026010000000002601000000000260100000000026010000000002600000000000280000002000000000000000200000000000000520200000000000000009999123100000010000000000000BRCEDOACNOR8096
012024031102CEDO4       010CEDRO       PN      N1   R$  000000000278400000000027840000000002700000000000274900000000027790000000002700000000000278000012000000000000001600000000000004398900000000000000009999123100000010000000000000BRCEDOACNPR5128
012024031102CEEB3       010COELBA      ON           R$  000000000388100000000038810000000003881000000000388100000000038810000000003853000000000393100001000000000000000100000000000000388100000000000000009999123100000010000000000000BRCEEBACNOR3196
012024031102CGAS5       010COMGAS      PNA          R$  000000001106400000000110640000000011000000000001100400000000110000000000011000000000001111300021000000000000004100000000000045116900000000000000009999123100000010000000000000BRCGASACNPA3159
012024031102CGRA3       010GRAZZIOTIN  ON           R$  000000000253700000000025370000000002480000000000249600000000024800000000002480000000000251400023000000000000003300000000000008238200000000000000009999123100000010000000000000BRCGRAACNOR2081
012024031102CGRA4       010GRAZZIOTIN  PN           R$  000000000267600000000026760000000002601000000000265500000000026440000000002630000000000267100020000000000000003400000000000009027500000000000000009999123100000010000000000000BRCGRAACNPR9081
012024031102CIEL3       010CIELO       ON      NM   R$  000000000053400000000005370000000000533000000000053500000000005350000000000534000000000053609690000000000006592100000000003530533500000000000000009999123100000010000000000000BRCIELACNOR3156
012024031102ENAT3       010ENAUTA PART ON      NM   R$  000000000251100000000026370000000002500000000000258800000000026240000000002622000000000263506927000000000002875300000000007442211300000000000000009999123100000010000000000000BRENATACNOR0104
012024031102ENEV3       010ENEVA       ON      NM   R$  000000000124200000000012650000000001231000000000124200000000012360000000001236000000000123812415000000000005422300000000006737646700000000000000009999123100000010000000000000BRENEVACNOR8105
012024031102ENGI11      010ENERGISA    UNT     N2   R$  000000000510000000000051500000000005050000000000509300000000050500000000005045000000000505211888000000000003908100000000019905712600000000000000009999123100000010000000000000BRENGICDAM16135
012024031102ENGI3       010ENERGISA    ON      N2   R$  000000000166900000000016690000000001634000000000165400000000016550000000001649000000000165500048000000000000007700000000000012738300000000000000009999123100000010000000000000BRENGIACNOR0145
012024031102ENGI4       010ENERGISA    PN      N2   R$  000000000087000000000008740000000000857000000000086000000000008600000000000856000000000086200047000000000000010200000000000008775700000000000000009999123100000010000000000000BRENGIACNPR7141
012024031102KRSA3       010KORA SAUDE  ON      NM   R$  000000000009700000000000980000000000092000000000009400000000000930000000000093000000000009500843000000000000355800000000000033481400000000000000009999123100000010000000000000BRKRSAACNOR0100
012024031102LAND3       010TERRASANTAPAON      NM   R$  000000000172800000000017940000000001728000000000176000000000017550000000001732000000000175700217000000000000051900000000000091387900000000000000009999123100000010000000000000BRLANDACNOR9102
012024031102LAVV3       010LAVVI       ON      NM   R$  000000000090000000000009150000000000885000000000090500000000009070000000000904000000000090803203000000000000999400000000000904543900000000000000009999123100000010000000000000BRLAVVACNOR4110
012024031102LEVE3       010METAL LEVE  ON      NM   R$  000000000365000000000036600000000003585000000000361900000000036260000000003626000000000363002322000000000000481800000000001743725800000000000000009999123100000010000000000000BRLEVEACNOR2196
012024031102LJQQ3       010QUERO-QUERO ON      NM   R$  000000000055800000000005690000000000531000000000054100000000005310000000000531000000000053205052000000000003040900000000001647978700000000000000009999123100000010000000000000BRLJQQACNOR5104
012024031102LOGG3       010LOG COM PROPON      NM   R$  000000000221600000000022680000000002216000000000224600000000022680000000002251000000000226801196000000000000160400000000000360377800000000000000009999123100000010000000000000BRLOGGACNOR7107
012024031102LOGN3       010LOG-IN      ON      NM   R$  000000000400400000000040500000000003968000000000400600000000040500000000003998000000000405000073000000000000009500000000000038062000000000000000009999123100000010000000000000BRLOGNACNOR3105
012024031102LPSB3       010LOPES BRASILON      NM   R$  000000000019200000000001920000000000189000000000019000000000001900000000000189000000000019000121000000000000039700000000000007551900000000000000009999123100000010000000000000BRLPSBACNOR0113
012024031102MWET4       010WETZEL S/A  PN           R$  000000000058500000000005850000000000580000000000058400000000005800000000000570000000000058900005000000000000000600000000000000350900000000000000009999123100000010000000000000BRMWETACNPR3118
012024031102AALR3       010ALLIAR      ON      NM   R$  000000000070100000000007150000000000680000000000069200000000006800000000000680000000000069000451000000000000123300000000000085435000000000000000009999123100000010000000000000BRAALRACNOR6102
012024031102ABCB4       010ABC BRASIL  PN      N2   R$  000000000236500000000023840000000002355000000000236800000000023740000000002360000000000237502178000000000000428800000000001015668100000000000000009999123100000010000000000000BRABCBACNPR4145
012024031102ABEV3       010AMBEV S/A   ON           R$  000000000127700000000012900000000001268000000000127600000000012800000000001278000000000128018587000000000020348100000000025976818200000000000000009999123100000010000000000000BRABEVACNOR1127
012024031102BIOM3       010BIOMM       ON      MA   R$  000000000089600000000009090000000000870000000000089500000000009090000000000888000000000090900062000000000000012200000000000010930600000000000000009999123100000010000000000000BRBIOMACNOR2112
012024031102BLAU3       010BLAU        ON      NM   R$  000000000121500000000012320000000001183000000000120100000000011830000000001183000000000118601124000000000000256100000000000307804500000000000000009999123100000010000000000000BRBLAUACNOR8111
012024031102HAGA3       010HAGA S/A    ON           R$  000000000028600000000002860000000000286000000000028600000000002860000000000274000000000028500002000000000000001000000000000000286000000000000000009999123100000010000000000000BRHAGAACNOR7103
012024031102HAGA4       010HAGA S/A    PN           R$  000000000011200000000001150000000000112000000000011400000000001150000000000115000000000011600020000000000000021600000000000002480700000000000000009999123100000010000000000000BRHAGAACNPR4103
012024031102HAPV3       010HAPVIDA     ON      NM   R$  000000000038400000000003940000000000381000000000038800000000003850000000000384000000000038530659000000000052429500000000020368703700000000000000009999123100000010000000000000BRHAPVACNOR4113
012024031102HBOR3       010HELBOR      ON      NM   R$  000000000027500000000002790000000000272000000000027500000000002720000000000272000000000027400318000000000000189400000000000052146100000000000000009999123100000010000000000000BRHBORACNOR3117
012024031107TXRX4       010TEX RENAUX  PN           R$  000000000025000000000002500000000000241000000000024800000000002500000000000245000000000025500005000000000000001300000000000000322500000000000000009999123100000010000000000000BRTXRXACNPR0142
012024031107NUTR3       010NUTRIPLANT  ON      MA   R$  000000000057000000000005700000000000554000000000055800000000005600000000000556000000000056400025000000000000002500000000000001395400000000000000009999123100000010000000000000BRNUTRACNOR0104
012024031108RSID3       010ROSSI RESID ON      NM   R$  000000000036400000000003710000000000359000000000036200000000003650000000000360000000000036500076000000000000024600000000000008921700000000000000009999123100000010000000000000BRRSIDACNOR8120
012024031108RPMG3       010PET MANGUINHON           R$  000000000020400000000002060000000000204000000000020400000000002050000000000204000000000020500021000000000000010300000000000002111400000000000000009999123100000010000000000000BRRPMGACNOR9194
012024031108JFEN3       010JOAO FORTES ON           R$  000000000018100000000001830000000000175000000000017600000000001750000000000175000000000017800026000000000000014000000000000002469400000000000000009999123100000010000000000000BRJFENACNOR0058
012024031108FRTA3       010POMIFRUTAS  ON      NM   R$  000000000013900000000001410000000000137000000000013800000000001390000000000138000000000013900008000000000000002100000000000000290200000000000000009999123100000010000000000000BRFRTAACNOR8103
012024031108ATMP3       010ATMASA      ON           R$  000000000028000000000002870000000000260000000000027100000000002730000000000273000000000027400074000000000000031400000000000008540700000000000000009999123100000010000000000000BRATMPACNOR8100
012024031108ETER3       010ETERNIT     ON  ED  NM   R$  000000000070900000000007170000000000700000000000070500000000007050000000000701000000000070500541000000000000177200000000000124994900000000000000009999123100000010000000000000BRETERACNOR3243
012024031108OIBR3       010OI          ON      N1   R$  000000000009000000000000920000000000083000000000008600000000000850000000000085000000000008602398000000000009805100000000000852122000000000000000009999123100000010000000000000BROIBRACNOR1110
012024031108OIBR4       010OI          PN      N1   R$  000000000020300000000002090000000000196000000000020100000000001990000000000199000000000020100235000000000000122600000000000024706000000000000000009999123100000010000000000000BROIBRACNPR8109
012024031108NEXP3       010NEXPE       ON      NM   R$  000000000046000000000004680000000000460000000000046000000000004600000000000460000000000046700008000000000000002300000000000001059700000000000000009999123100000010000000000000BRNEXPACNOR0101
012024031108HOOT4       010HOTEIS OTHONPN           R$  000000000028100000000002820000000000281000000000028100000000002820000000000281000000000028400011000000000000002000000000000000563000000000000000009999123100000010000000000000BRHOOTACNPR9015
012024031108TEKA3       010TEKA        ON           R$  000000000494000000000050000000000004940000000000498000000000050000000000003000000000000550000003000000000000000300000000000001494000000000000000009999123100000010000000000000BRTEKAACNOR6140
012024031108PMAM3       010PARANAPANEMAON      NM   R$  000000000038000000000003800000000000360000000000036900000000003710000000000369000000000037100145000000000000027500000000000010168400000000000000009999123100000010000000000000BRPMAMACNOR3038
012024031108RNEW11      010RENOVA      UNT     N2   R$  000000000035900000000003590000000000350000000000035300000000003500000000000350000000000035500021000000000000005400000000000001908500000000000000009999123100000010000000000000BRRNEWCDAM15110
012024031108RNEW3       010RENOVA      ON      N2   R$  000000000012200000000001240000000000115000000000011700000000001160000000000116000000000011900183000000000000119500000000000014010800000000000000009999123100000010000000000000BRRNEWACNOR8110
012024031108RNEW4       010RENOVA      PN      N2   R$  000000000011900000000001190000000000115000000000011700000000001160000000000116000000000011700168000000000000140800000000000016479600000000000000009999123100000010000000000000BRRNEWACNPR5110
012024031108OSXB3       010OSX BRASIL  ON      NM   R$  000000000044500000000004740000000000424000000000045000000000004370000000000422000000000045500052000000000000020400000000000009199700000000000000009999123100000010000000000000BROSXBACNOR8109
012024031108AMER3       010AMERICANAS  ON      NM   R$  000000000005500000000000560000000000054000000000005500000000000550000000000055000000000005601589000000000005026600000000000276814700000000000000009999123100000010000000000000BRAMERACNOR6101
012024031108LIGT3       010LIGHT S/A   ON      NM   R$  000000000051700000000005250000000000513000000000051900000000005230000000000518000000000052301250000000000000342500000000000177804800000000000000009999123100000010000000000000BRLIGTACNOR2124
012024031110PGMN9       010PAGUE MENOS ON  REC NM   R$  000000000025500000000002690000000000255000000000026100000000002680000000000255000000000027000010000000000000002300000000000000601500000000000000009999123100000010000000000000BRPGMNR04OR7102
012024031110RENT9       010LOCALIZA    ON  REC NM   R$  000000000526000000000052920000000005129000000000522300000000051290000000005126000000000000000013000000000000001300000000000006790500000000000000009999123100000010000000000000BRRENTR05OR0193
012024031110MGLU9       010MAGAZ LUIZA ON  REC NM   R$  000000000020000000000002020000000000194000000000019700000000001970000000000196000000000019700061000000000000043600000000000008627700000000000000009999123100000010000000000000BRMGLUR01OR7122
012024031110ABCB10      010ABC BRASIL  PN  REC N2   R$  000000000235100000000023510000000002350000000000235000000000023500000000002330000000000241000002000000000000000200000000000000470100000000000000009999123100000010000000000000BRABCBR19PR1144
012024031112VTLT11      010FII VOT LOG CI  ER       R$  000000000962800000000096720000000009600000000000962900000000096720000000009619000000000967200117000000000000001985000000000019115198000000000000009999123100000010000000000000BRVTLTCTF001169
012024031112VVCO11      010FII V2EDCORPCI           R$  000000000136000000000013640000000001332000000000134100000000013560000000001357000000000136000018000000000000000185000000000000248173000000000000009999123100000010000000000000BRVVCOCTF007101
012024031112VVCR11      010FII V2 RECE CI           R$  000000000101500000000010230000000001002000000000101300000000010200000000001019000000000102300039000000000000000422000000000000427610000000000000009999123100000010000000000000BRVVCRCTF000112
012024031112VVMR11      010FII MULT RENCI  ER       R$  000000000915000000000093000000000009150000000000923800000000093000000000009170000000000930000007000000000000000174000000000001607540000000000000009999123100000010000000000000BRVVMRCTF009101
012024031112RVBI11      010FII VBI REITCI  ER       R$  000000000857600000000086530000000008526000000000860200000000086080000000008575000000000860800229000000000000002180000000000018752612000000000000009999123100000010000000000000BRRVBICTF009149
012024031112RZAK11      010FII RIZA AKNCI           R$  000000000900000000000090380000000009000000000000901500000000090000000000009000000000000901303774000000000000026591000000000239725373000000000000009999123100000010000000000000BRRZAKCTF008140
012024031112RZAT11      010FII ARCTIUM CI           R$  000000000962000000000096980000000009601000000000965600000000096750000000009675000000000968601047000000000000010236000000000098842546000000000000009999123100000010000000000000BRRZATCTF009113
012024031112RZTR11      010FII RIZA TX CI  ER       R$  000000000987500000000099000000000009700000000000979300000000097020000000009702000000000970907581000000000000050774000000000497247246000000000000009999123100000010000000000000BRRZTRCTF003145
012024031112RNGO11      010FII RIONEGROCI  ER       R$  000000000458000000000046400000000004575000000000458500000000046040000000004610000000000462600083000000000000002039000000000009349406000000000000009999123100000010000000000000BRRNGOCTF003240
012024031112RPRI11      010FII RBR PR  CI  ER       R$  000000001001400000000100930000000009901000000001007700000000100500000000010050000000001008500050000000000000005862000000000059073332000000000000009999123100000010000000000000BRRPRICTF007125
012024031112RRCI11      010FII RBCAP RICI  ER       R$  000000000831000000000083200000000008252000000000830000000000082520000000008258000000000831900023000000000000000232000000000001925826000000000000009999123100000010000000000000BRRRCICTF005139
012024031112TVRI11      010FII TIVIO RICI  ER       R$  000000001031200000000105430000000010290000000001045200000000105430000000010495000000001054300664000000000000012715000000000132904853000000000000009999123100000010000000000000BRTVRICTF001105
012024031112RBRX11      010FII RBR MULTCI  ES       R$  000000000096000000000009740000000000960000000000096700000000009740000000000965000000000097405001000000000000121816000000000117875825000000000000009999123100000010000000000000BRRBRXCTF006125
012024031112RBRY11      010FII RBR PCRICI  ES       R$  000000000999000000000100300000000009913000000000999600000000100240000000010024000000001002504888000000000000041947000000000419316376000000000000009999123100000010000000000000BRRBRYCTF004164
012024031112RBTS11      010FII RB TFO  CI  EA       R$  000000007250200000000750000000000072502000000007375100000000750000000000072586000000007880000002000000000000000002000000000000147502000000000000009999123100000010000000000000BRRBTSCTF002116
012024031112RBVA11      010FII RIOB VA CI  ER       R$  000000001127500000000113000000000011121000000001115900000000111280000000011128000000001114802974000000000000020999000000000234328338000000000000009999123100000010000000000000BRRBVACTF006162
012024031112RBVO11      010FII RIOBCRI2CI  ERA      R$  000000000100000000000010010000000000999000000000099900000000010010000000001001000000000103000071000000000000002911000000000002910996000000000000009999123100000010000000000000BRRBVOCTF007240
012024031112RCFA11      010FII GP RCFA CI           R$  000000000012400000000001260000000000123000000000012400000000001240000000000123000000000012400013000000000000001030000000000000127742000000000000009999123100000010000000000000BRRCFACTF007101
012024031112RCRB11      010FII RIOB RC CI  ER       R$  000000001602300000000162090000000016023000000001617600000000161900000000016190000000001620000401000000000000001810000000000029279800000000000000009999123100000010000000000000BRRCRBCTF000154
012024031112SPTW11      010FII SP DOWNTCI  ER       R$  000000000419100000000042760000000004185000000000422400000000042740000000004270000000000427400277000000000000001683000000000007110451000000000000009999123100000010000000000000BRSPTWCTF002232
012024031112SPXS11      010FII SPX SYN CI  ER       R$  000000000095000000000009550000000000945000000000094900000000009520000000000946000000000095203180000000000000085395000000000081111858000000000000009999123100000010000000000000BRSPXSCTF002121
012024031112ZAVI11      010FII ZAVIT R CI  ER       R$  000000001312000000000132250000000013119000000001316200000000131620000000013163000000001322200099000000000000001324000000000017427240000000000000009999123100000010000000000000BRZAVICTF004118
012024031112PRSN11      010FII PERSONALCI           R$  000000000010800000000001150000000000108000000000011200000000001130000000000112000000000011300010000000000000000064000000000000007177000000000000009999123100000010000000000000BRPRSNCTF005124
012024031112PRSV11      010FII P VARGASCI           R$  000000000660000000000066000000000006600000000000660000000000066000000000006401000000000698800001000000000000000001000000000000006600000000000000009999123100000010000000000000BRPRSVCTF008225
012024031112PVBI11      010FII VBI PRI CI  ER       R$  000000001022400000000102240000000010175000000001019300000000101990000000010197000000001019907529000000000000035102000000000357829383000000000000009999123100000010000000000000BRPVBICTF003148
012024031112QAGR11      010FII QUASAR ACI  ER       R$  000000000482000000000048250000000004799000000000480800000000048120000000004802000000000481200296000000000000002805000000000013487388000000000000009999123100000010000000000000BRQAGRCTF005152
012024031112SNCI11      010FII SUNO CRICI           R$  000000001001000000000100300000000009997000000001000400000000100000000000009997000000001000000604000000000000006812000000000068151382000000000000009999123100000010000000000000BRSNCICTF002132
012024031112SNEL11      010FII SUNO EL CI           R$  000000001425000000000144990000000014001000000001439700000000144460000000014235000000001444900178000000000000001466000000000021106704000000000000009999123100000010000000000000BRSNELCTF010104
012024031112SNFF11      010FII SUNOFOFICI           R$  000000000858800000000086500000000008521000000000857800000000085890000000008550000000000858901398000000000000007594000000000065146028000000000000009999123100000010000000000000BRSNFFCTF001134
012024031112SNLG11      010FII SUNO LG CI           R$  000000000243100000000024310000000002397000000000241400000000024200000000002407000000000243100324000000000000002313000000000005584206000000000000009999123100000010000000000000BRSNLGCTF007103
012024031112SNME11      010FII SNME    CI           R$  000000000099900000000010100000000000989000000000099800000000009990000000000995000000000099900274000000000000032432000000000032373519000000000000009999123100000010000000000000BRSNMECTF000103
012024031112WHGR11      010FII WHG REALCI  ER       R$  000000000096400000000009670000000000960000000000096200000000009670000000000962000000000096702621000000000000021347000000000020542644000000000000009999123100000010000000000000BRWHGRCTF008121
