00COTAHIST.2024BOVESPA 20240715                                                                                                                                                                                                                      
012024071502HYPE3       010HYPERA      ON      NM   R$  000000000293600000000029390000000002861000000000288300000000028900000000002885000000000289014556000000000003293600000000009496848600000000000000009999123100000010000000000000BRHYPEACNOR0142
012024071502BEES3       010BANESTES    ON           R$  000000000090700000000009080000000000903000000000090600000000009080000000000906000000000090800048000000000000007100000000000006433600000000000000009999123100000010000000000000BRBEESACNOR9393
012024071502BEES4       010BANESTES    PN           R$  000000000098000000000009850000000000977000000000098000000000009770000000000976000000000098800015000000000000002600000000000002549600000000000000009999123100000010000000000000BRBEESACNPR6318
012024071502BGIP4       010BANESE      PN           R$  000000000229000000000022900000000002290000000000229000000000022900000000002241000000000229000002000000000000000200000000000000458000000000000000009999123100000010000000000000BRBGIPACNPR8208
012024071502BHIA3       010CASAS BAHIA ON      NM   R$  000000000057200000000005780000000000567000000000057200000000005730000000000572000000000057302849000000000001989100000000001137945700000000000000009999123100000010000000000000BRBHIAACNOR1102
012024071502BRAP3       010BRADESPAR   ON      N1   R$  000000000185500000000018820000000001850000000000186600000000018760000000001876000000000187700261000000000000042200000000000078779600000000000000009999123100000010000000000000BRBRAPACNOR5148
012024071502BRAP4       010BRADESPAR   PN      N1   R$  000000000192400000000019500000000001918000000000193900000000019460000000001945000000000193206986000000000002910700000000005644624600000000000000009999123100000010000000000000BRBRAPACNPR2148
012024071502CRFB3       010CARREFOUR BRON      NM   R$  000000000106900000000010900000000001061000000000108000000000010900000000001087000000000109007149000000000003712700000000004011800100000000000000009999123100000010000000000000BRCRFBACNOR2116
012024071502CRPG5       010CRISTAL     PNA          R$  000000000294000000000029670000000002905000000000293000000000029670000000002911000000000296700030000000000000003400000000000009962700000000000000009999123100000010000000000000BRCRPGACNPA3119
012024071502CRPG6       010CRISTAL     PNB          R$  000000000293000000000029490000000002930000000000293100000000029490000000002905000000000298900002000000000000001100000000000003224900000000000000009999123100000010000000000000BRCRPGACNPB1119
012024071502CSAN3       010COSAN       ON      NM   R$  000000000143500000000014420000000001418000000000142900000000014310000000001431000000000143211130000000000009607600000000013736059000000000000000009999123100000010000000000000BRCSANACNOR6126
012024071502ELMD3       010ELETROMIDIA ON      NM   R$  000000000185000000000018500000000001815000000000182800000000018230000000001823000000000182800312000000000000034300000000000062719300000000000000009999123100000010000000000000BRELMDACNOR3101
012024071502EMAE4       010EMAE        PN           R$  000000000500100000000051900000000004863000000000501200000000050900000000005055000000000517900016000000000000004300000000000021552700000000000000009999123100000010000000000000BREMAEACNPR1125
012024071502EMBR3       010EMBRAER     ON      NM   R$  000000000402600000000041020000000003974000000000405700000000040930000000004093000000000409514694000000000004539600000000018419175100000000000000009999123100000010000000000000BREMBRACNOR4191
012024071502ITUB3       010ITAUUNIBANCOON      N1   R$  000000000288700000000028870000000002868000000000287500000000028730000000002870000000000287501224000000000000245700000000000706563300000000000000009999123100000010000000000000BRITUBACNOR4338
012024071502ITUB4       010ITAUUNIBANCOPN      N1   R$  000000000335000000000033670000000003338000000000335300000000033590000000003358000000000335928993000000000019714400000000066106837500000000000000009999123100000010000000000000BRITUBACNPR1338
012024071502B3SA3       010B3          ON      NM   R$  000000000115000000000011560000000001143000000000114700000000011460000000001152000000000114526714000000000025362600000000029111567800000000000000009999123100000010000000000000BRB3SAACNOR6133
012024071502BEEF3       010MINERVA     ON      NM   R$  000000000068200000000006900000000000681000000000068400000000006820000000000682000000000068304836000000000003810700000000002609738300000000000000009999123100000010000000000000BRBEEFACNOR6116
012024071502BPAN4       010BANCO PAN   PN      N1   R$  000000000085400000000008570000000000842000000000085000000000008520000000000851000000000085203254000000000000777000000000000660463700000000000000009999123100000010000000000000BRBPANACNPR1115
012024071502DESK3       010DESKTOP     ON      NM   R$  000000000155000000000015870000000001531000000000154400000000015310000000001531000000000153700732000000000000147500000000000227773500000000000000009999123100000010000000000000BRDESKACNOR2104
012024071502DEXP3       010DEXXOS PAR  ON      N1   R$  000000000105100000000010610000000001042000000000104800000000010490000000001045000000000105000135000000000000019800000000000020768200000000000000009999123100000010000000000000BRDEXPACNOR1105
012024071502DEXP4       010DEXXOS PAR  PN      N1   R$  000000000102200000000010230000000001013000000000102100000000010230000000001020000000000102300007000000000000002900000000000002961500000000000000009999123100000010000000000000BRDEXPACNPR8105
012024071502DIRR3       010DIRECIONAL  ON  ED  NM   R$  000000000279000000000027960000000002740000000000277800000000027820000000002782000000000278306144000000000001091400000000003032257200000000000000009999123100000010000000000000BRDIRRACNOR0118
012024071502NORD3       010NORDON MET  ON           R$  000000000059000000000006190000000000590000000000061400000000005900000000000590000000000062000004000000000000001200000000000000736900000000000000009999123100000010000000000000BRNORDACNOR7135
012024071502NTCO3       010GRUPO NATURAON      NM   R$  000000000160100000000016090000000001578000000000159300000000015980000000001597000000000159908717000000000003056100000000004869203400000000000000009999123100000010000000000000BRNTCOACNOR5106
012024071502PETZ3       010PETZ        ON      NM   R$  000000000041100000000004250000000000406000000000041600000000004240000000000423000000000042407433000000000007501400000000003124203300000000000000009999123100000010000000000000BRPETZACNOR2110
012024071502RCSL3       010RECRUSUL    ON           R$  000000000030400000000003040000000000295000000000030000000000003000000000000299000000000030000246000000000000114100000000000034336200000000000000009999123100000010000000000000BRRCSLACNOR4134
012024071502RCSL4       010RECRUSUL    PN           R$  000000000011600000000001200000000000114000000000011600000000001180000000000118000000000011901021000000000001221400000000000142147700000000000000009999123100000010000000000000BRRCSLACNPR1134
012024071502RDNI3       010RNI         ON      NM   R$  000000000031200000000003160000000000311000000000031400000000003150000000000310000000000031600009000000000000004800000000000001510000000000000000009999123100000010000000000000BRRDNIACNOR9116
012024071502RDOR3       010REDE D OR   ON      NM   R$  000000000289400000000029510000000002873000000000293300000000029470000000002963000000000294012224000000000003138900000000009206410900000000000000009999123100000010000000000000BRRDORACNOR8113
012024071502RECV3       010PETRORECSA  ON      NM   R$  000000000210000000000021440000000002097000000000212000000000021110000000002110000000000211205355000000000001395500000000002959821600000000000000009999123100000010000000000000BRRECVACNOR3107
012024071502REDE3       010REDE ENERGIAON  ED       R$  000000000069900000000007010000000000699000000000070000000000006990000000000699000000000070900007000000000000000900000000000000630000000000000000009999123100000010000000000000BRREDEACNOR7128
012024071502SMFT3       010SMART FIT   ON      NM   R$  000000000229500000000023220000000002273000000000230300000000023020000000002302000000000230405562000000000001123200000000002587498400000000000000009999123100000010000000000000BRSMFTACNOR1112
012024071502SMTO3       010SAO MARTINHOON      NM   R$  000000000326000000000033420000000003212000000000330800000000033310000000003330000000000333111279000000000001937400000000006410787000000000000000009999123100000010000000000000BRSMTOACNOR3126
012024071502MTRE3       010MITRE REALTYON      NM   R$  000000000043900000000004430000000000430000000000043500000000004310000000000431000000000043401342000000000000609800000000000265592300000000000000009999123100000010000000000000BRMTREACNOR6112
012024071502MTSA4       010METISA      PN           R$  000000000441600000000044500000000004416000000000443600000000044500000000004412000000000445100004000000000000000400000000000001774600000000000000009999123100000010000000000000BRMTSAACNPR9072
012024071502MULT3       010MULTIPLAN   ON      N2   R$  000000000247000000000024910000000002452000000000247700000000024680000000002489000000000247015031000000000003631700000000008998166500000000000000009999123100000010000000000000BRMULTACNOR5139
012024071502MYPK3       010IOCHP-MAXIONON      NM   R$  000000000117700000000012040000000001177000000000118700000000011820000000001182000000000119003346000000000000777300000000000923409800000000000000009999123100000010000000000000BRMYPKACNOR7155
012024071502NEOE3       010NEOENERGIA  ON      NM   R$  000000000192200000000019240000000001852000000000186600000000018520000000001852000000000185704543000000000001519900000000002837059700000000000000009999123100000010000000000000BRNEOEACNOR3123
012024071502VBBR3       010VIBRA       ON      NM   R$  000000000228500000000022980000000002260000000000227700000000022670000000002267000000000227913164000000000004549600000000010360304800000000000000009999123100000010000000000000BRVBBRACNOR1108
012024071502FESA3       010FERBASA     ON      N1   R$  000000000139300000000013930000000001390000000000139000000000013900000000001384000000000142000002000000000000000400000000000000556300000000000000009999123100000010000000000000BRFESAACNOR8188
012024071502FESA4       010FERBASA     PN      N1   R$  000000000089700000000008970000000000876000000000088400000000008760000000000876000000000087901605000000000000442300000000000391179900000000000000009999123100000010000000000000BRFESAACNPR5084
012024071502FHER3       010FER HERINGERON      NM   R$  000000000040600000000004060000000000400000000000040200000000004040000000000397000000000040400011000000000000004000000000000001608000000000000000009999123100000010000000000000BRFHERACNOR5103
012024071502FIEI3       010FICA        ON           R$  000000000110000000000011000000000001100000000000110000000000011000000000001100000000000120000003000000000000004100000000000004510000000000000000009999123100000010000000000000BRFIEIACNOR2100
012024071502FIQE3       010UNIFIQUE    ON      NM   R$  000000000034200000000003440000000000339000000000034000000000003390000000000339000000000034000922000000000000798500000000000271668900000000000000009999123100000010000000000000BRFIQEACNOR5107
012024071502AMAR3       010LOJAS MARISAON      NM   R$  000000000014300000000001450000000000143000000000014300000000001450000000000143000000000014500451000000000000396200000000000056891700000000000000009999123100000010000000000000BRAMARACNOR4115
012024071502AMBP3       010AMBIPAR     ON      NM   R$  000000000222700000000022290000000002005000000000211400000000021440000000002133000000000214411333000000000005207000000000011012042600000000000000009999123100000010000000000000BRAMBPACNOR6103
012024071502BBDC3       010BRADESCO    ON      N1   R$  000000000116400000000011640000000001149000000000115200000000011500000000001149000000000115105468000000000002980800000000003434648000000000000000009999123100000010000000000000BRBBDCACNOR1772
012024071502BBDC4       010BRADESCO    PN      N1   R$  000000000126800000000012700000000001258000000000126100000000012610000000001260000000000126124229000000000018471500000000023308720700000000000000009999123100000010000000000000BRBBDCACNPR8772
012024071502BSLI3       010BRB BANCO   ON           R$  000000000096000000000010010000000000960000000000099100000000010010000000000960000000000099900004000000000000000900000000000000892000000000000000009999123100000010000000000000BRBSLIACNOR5194
012024071502BSLI4       010BRB BANCO   PN           R$  000000000103000000000010300000000001022000000000102500000000010250000000000991000000000103000006000000000000000700000000000000717700000000000000009999123100000010000000000000BRBSLIACNPR2194
012024071502FLRY3       010FLEURY      ON      NM   R$  000000000156400000000015760000000001551000000000156300000000015600000000001559000000000156006375000000000002183700000000003413279500000000000000009999123100000010000000000000BRFLRYACNOR5138
012024071502FRAS3       010FRAS-LE     ON      N1   R$  000000000206200000000020620000000002023000000000203200000000020310000000002027000000000203101478000000000000393000000000000798949300000000000000009999123100000010000000000000BRFRASACNOR0159
012024071502WHRL4       010WHIRLPOOL   PN           R$  000000000045800000000004580000000000449000000000045600000000004580000000000453000000000045800014000000000000015400000000000007027900000000000000009999123100000010000000000000BRWHRLACNPR2128
012024071502WIZC3       010WIZ CO      ON      NM   R$  000000000060200000000006050000000000589000000000059600000000005890000000000588000000000059401775000000000000377600000000000225380800000000000000009999123100000010000000000000BRWIZCACNOR5102
012024071502WLMM4       010WLM IND COM PN           R$  000000000310000000000031350000000003100000000000311700000000031350000000003000000000000313600007000000000000000800000000000002494000000000000000009999123100000010000000000000BRWLMMACNPR3118
012024071502MILS3       010MILLS       ON      NM   R$  000000000116900000000011690000000001137000000000114200000000011380000000001138000000000114202148000000000000441700000000000504726000000000000000009999123100000010000000000000BRMILSACNOR2127
012024071502MLAS3       010MULTILASER  ON      NM   R$  000000000021900000000002210000000000213000000000021500000000002160000000000215000000000021603547000000000002188800000000000472308700000000000000009999123100000010000000000000BRMLASACNOR9101
012024071502GEPA3       010GER PARANAP ON           R$  000000000260000000000026000000000002600000000000260000000000026000000000002550000000000260000001000000000000000100000000000000260000000000000000009999123100000010000000000000BRGEPAACNOR2153
012024071502GFSA3       010GAFISA      ON      NM   R$  000000000037300000000004040000000000367000000000038700000000003990000000000398000000000039103982000000000004678700000000001811299300000000000000009999123100000010000000000000BRGFSAACNOR3124
012024071502IFCM3       010INFRACOMM   ON      NM   R$  000000000004300000000000430000000000041000000000004200000000000420000000000042000000000004302515000000000004549200000000000191640200000000000000009999123100000010000000000000BRIFCMACNOR8101
012024071502IGTI11      010IGUATEMI S.AUNT     N1   R$  000000000220800000000022080000000002182000000000219700000000021950000000002195000000000220504324000000000001121700000000002464749700000000000000009999123100000010000000000000BRIGTICDAM16106
012024071502IGTI3       010IGUATEMI S.AON      N1   R$  000000000027200000000002740000000000271000000000027100000000002730000000000272000000000027300100000000000000024100000000000006550000000000000000009999123100000010000000000000BRIGTIACNOR8106
012024071502IGTI4       010IGUATEMI S.APN      N1   R$  000000000095900000000009630000000000959000000000096100000000009630000000000900000000000108500002000000000000000300000000000000288500000000000000009999123100000010000000000000BRIGTIACNPR5106
012024071502INEP3       010INEPAR      ON           R$  000000000019900000000001990000000000191000000000019300000000001910000000000191000000000019200108000000000000059000000000000011434100000000000000009999123100000010000000000000BRINEPACNOR1143
012024071502INEP4       010INEPAR      PN           R$  000000000018500000000001890000000000184000000000018500000000001870000000000185000000000018800042000000000000012400000000000002305800000000000000009999123100000010000000000000BRINEPACNPR8143
012024071502INTB3       010INTELBRAS   ON      NM   R$  000000000228000000000023090000000002252000000000227600000000022700000000002288000000000227704057000000000001005200000000002288707900000000000000009999123100000010000000000000BRINTBACNOR9111
012024071502IRBR3       010IRBBRASIL REON      NM   R$  000000000315100000000031950000000003123000000000316100000000031820000000003182000000000318303105000000000000599600000000001895494800000000000000009999123100000010000000000000BRIRBRACNOR4111
012024071502JSLG3       010JSL         ON      NM   R$  000000000102300000000010230000000000998000000000100800000000010070000000001007000000000101000688000000000000111500000000000112420400000000000000009999123100000010000000000000BRJSLGACNOR2121
012024071502KEPL3       010KEPLER WEBERON      NM   R$  000000000100300000000010120000000000997000000000100500000000010070000000001005000000000100702696000000000001267400000000001274359000000000000000009999123100000010000000000000BRKEPLACNOR1063
012024071502VITT3       010VITTIA      ON      NM   R$  000000000064600000000006460000000000614000000000062700000000006250000000000625000000000062901588000000000000330800000000000207549500000000000000009999123100000010000000000000BRVITTACNOR4107
012024071502ODPV3       010ODONTOPREV  ON      NM   R$  000000000120900000000012090000000001175000000000118500000000011900000000001187000000000118205133000000000001124900000000001333291100000000000000009999123100000010000000000000BRODPVACNOR4202
012024071502OFSA3       010OUROFINO S/AON      NM   R$  000000000188200000000019380000000001872000000000190400000000019060000000001880000000000191400007000000000000003000000000000005712900000000000000009999123100000010000000000000BROFSAACNOR7118
012024071502ONCO3       010ONCOCLINICASON      NM   R$  000000000073600000000007860000000000722000000000076500000000007690000000000768000000000077008444000000000005693900000000004355989800000000000000009999123100000010000000000000BRONCOACNOR6101
012024071502OPCT3       010OCEANPACT   ON      NM   R$  000000000067700000000006780000000000660000000000067000000000006600000000000660000000000067500449000000000000148000000000000099241800000000000000009999123100000010000000000000BROPCTACNOR0100
012024071502ORVR3       010ORIZON      ON      NM   R$  000000000423800000000043290000000004152000000000417700000000041770000000004174000000000418101664000000000000289100000000001207776800000000000000009999123100000010000000000000BRORVRACNOR0101
012024071502PATI3       010PANATLANTICAON           R$  000000000250000000000025000000000002500000000000250000000000025000000000000000000000000259900002000000000000000200000000000000500000000000000000009999123100000010000000000000BRPATIACNOR6065
012024071502PCAR3       010P.ACUCAR-CBDON      NM   R$  000000000033800000000003410000000000330000000000033600000000003400000000000340000000000033808386000000000011219400000000003778041500000000000000009999123100000010000000000000BRPCARACNOR3167
012024071502RENT3       010LOCALIZA    ON      NM   R$  000000000468000000000046800000000004607000000000465000000000046440000000004654000000000465027548000000000006189100000000028782477100000000000000009999123100000010000000000000BRRENTACNOR4196
012024071502SNSY3       010SANSUY      ON           R$  000000000120500000000012490000000001205000000000123100000000012400000000001205000000000124400011000000000000001500000000000001847900000000000000009999123100000010000000000000BRSNSYACNOR2113
012024071502SNSY5       010SANSUY      PNA          R$  000000000057000000000005730000000000548000000000055200000000005480000000000548000000000057400017000000000000005000000000000002764800000000000000009999123100000010000000000000BRSNSYACNPA5111
012024071502SOJA3       010BOA SAFRA   ON      NM   R$  000000000155100000000015730000000001547000000000155900000000015520000000001552000000000156802258000000000000372500000000000581009200000000000000009999123100000010000000000000BRSOJAACNOR9105
012024071502SOMA3       010GRUPO SOMA  ON      NM   R$  000000000064200000000006520000000000635000000000064400000000006460000000000646000000000064709567000000000006468400000000004167530400000000000000009999123100000010000000000000BRSOMAACNOR3102
012024071502SRNA3       010SERENA      ON      NM   R$  000000000094500000000009500000000000930000000000094100000000009390000000000939000000000094305265000000000001254100000000001180395500000000000000009999123100000010000000000000BRSRNAACNOR4100
012024071502STBP3       010SANTOS BRP  ON      NM   R$  000000000148900000000015000000000001474000000000148400000000014850000000001485000000000147609458000000000003343400000000004964046100000000000000009999123100000010000000000000BRSTBPACNOR3130
012024071502SUZB3       010SUZANO S.A. ON      NM   R$  000000000525800000000054810000000005258000000000538900000000054200000000005426000000000532942516000000000014250100000000076806515800000000000000009999123100000010000000000000BRSUZBACNOR0130
012024071502NGRD3       010NEOGRID     ON      NM   R$  000000000010000000000001050000000000099000000000010200000000001020000000000104000000000010300903000000000000965300000000000099341500000000000000009999123100000010000000000000BRNGRDACNOR3104
012024071502NINJ3       010GETNINJAS   ON      NM   R$  000000000045700000000004620000000000446000000000045200000000004500000000000450000000000045600050000000000000009700000000000004393100000000000000009999123100000010000000000000BRNINJACNOR5101
012024071502CVCB3       010CVC BRASIL  ON      NM   R$  000000000020900000000002110000000000205000000000020700000000002100000000000209000000000021004570000000000008799100000000001825968400000000000000009999123100000010000000000000BRCVCBACNOR1116
012024071502CXSE3       010CAIXA SEGURION      NM   R$  000000000144100000000014510000000001438000000000144300000000014430000000001443000000000144405799000000000001682800000000002429692300000000000000009999123100000010000000000000BRCXSEACNOR7106
012024071502CYRE3       010CYRELA REALTON      NM   R$  000000000202400000000020570000000002014000000000204000000000020570000000002054000000000205713946000000000003202000000000006535247000000000000000009999123100000010000000000000BRCYREACNOR7140
012024071502ESPA3       010ESPACOLASER ON      NM   R$  000000000010600000000001090000000000105000000000010600000000001070000000000106000000000010700373000000000000404300000000000043139500000000000000009999123100000010000000000000BRESPAACNOR7103
012024071502ESTR4       010ESTRELA     PN           R$  000000000018400000000001840000000000184000000000018400000000001840000000000181000000000018500001000000000000000100000000000000018400000000000000009999123100000010000000000000BRESTRACNPR0144
012024071502EUCA3       010EUCATEX     ON      N1   R$  000000000162500000000016250000000001625000000000162500000000016250000000001592000000000162600001000000000000000100000000000000162500000000000000009999123100000010000000000000BREUCAACNOR1157
012024071502EUCA4       010EUCATEX     PN      N1   R$  000000000163500000000016430000000001594000000000160900000000016180000000001603000000000161800332000000000000061200000000000098492500000000000000009999123100000010000000000000BREUCAACNPR8044
012024071502EVEN3       010EVEN        ON      NM   R$  000000000064000000000006470000000000639000000000064200000000006430000000000642000000000064301272000000000000258500000000000166072600000000000000009999123100000010000000000000BREVENACNOR8119
012024071502EZTC3       010EZTEC       ON      NM   R$  000000000147000000000014860000000001457000000000147000000000014860000000001484000000000148605338000000000001971400000000002899208500000000000000009999123100000010000000000000BREZTCACNOR0125
012024071502JHSF3       010JHSF PART   ON      NM   R$  000000000043100000000004320000000000421000000000042800000000004220000000000422000000000042304097000000000010751100000000004611567500000000000000009999123100000010000000000000BRJHSFACNOR2137
012024071502JOPA3       010JOSAPAR     ON           R$  000000000230000000000023000000000002300000000000230000000000023000000000002110000000000228900001000000000000000200000000000000460000000000000000009999123100000010000000000000BRJOPAACNOR5135
012024071502AERI3       010AERIS       ON      NM   R$  000000000066800000000007000000000000661000000000068500000000006930000000000693000000000069600516000000000000221100000000000151529800000000000000009999123100000010000000000000BRAERIACNOR4102
012024071502AESB3       010AES BRASIL  ON      NM   R$  000000000114100000000011440000000001138000000000114000000000011440000000001141000000000114401818000000000002135100000000002436137900000000000000009999123100000010000000000000BRAESBACNOR7106
012024071502AGRO3       010BRASILAGRO  ON      NM   R$  000000000272000000000027320000000002685000000000270100000000027100000000002706000000000271001308000000000000200500000000000541714000000000000000009999123100000010000000000000BRAGROACNOR7114
012024071502AGXY3       010AGROGALAXY  ON      NM   R$  000000000016100000000001610000000000153000000000015500000000001540000000000154000000000015500516000000000000405400000000000063159600000000000000009999123100000010000000000000BRAGXYACNOR4103
012024071502ALLD3       010ALLIED      ON      NM   R$  000000000079200000000008250000000000787000000000081000000000008130000000000809000000000081300295000000000000079700000000000064598800000000000000009999123100000010000000000000BRALLDACNOR3106
012024071502ALOS3       010ALLOS       ON      NM   R$  000000000221000000000022520000000002194000000000222800000000022370000000002232000000000221113151000000000003361600000000007492525300000000000000009999123100000010000000000000BRALOSACNOR5101
012024071502BMEB4       010MERCANTIL   PN      N1   R$  000000000294300000000029870000000002924000000000295100000000029560000000002903000000000295600031000000000000003800000000000011213900000000000000009999123100000010000000000000BRBMEBACNPR5210
012024071502BMGB4       010BANCO BMG   PN      N1   R$  000000000035800000000003660000000000357000000000036100000000003650000000000364000000000036601023000000000000551900000000000199468600000000000000009999123100000010000000000000BRBMGBACNPR0109
012024071502BMIN4       010MERC INVEST PN           R$  000000000156100000000015610000000001540000000000154500000000015400000000001540000000000161100002000000000000000400000000000000618100000000000000009999123100000010000000000000BRBMINACNPR1176
012024071502BMKS3       010BIC MONARK  ON           R$  000000003350000000000335000000000032800000000003306400000000328000000000033000000000003470000007000000000000000011000000000000363712000000000000009999123100000010000000000000BRBMKSACNOR9166
012024071502BMOB3       010BEMOBI TECH ON      NM   R$  000000000149300000000014980000000001462000000000148100000000014830000000001483000000000149501280000000000000206300000000000305681700000000000000009999123100000010000000000000BRBMOBACNOR7103
012024071502BNBR3       010NORD BRASIL ON           R$  000000001159000000000115900000000011150000000001126000000000111500000000011150000000001139900004000000000000000400000000000004504000000000000000009999123100000010000000000000BRBNBRACNOR8208
012024071502BOBR4       010BOMBRIL     PN           R$  000000000020600000000002080000000000203000000000020400000000002070000000000204000000000020700025000000000000013000000000000002663600000000000000009999123100000010000000000000BRBOBRACNPR3128
012024071502BRKM3       010BRASKEM     ON      N1   R$  000000000194400000000019470000000001911000000000192900000000019470000000001935000000000194700020000000000000003200000000000006174200000000000000009999123100000010000000000000BRBRKMACNOR1119
012024071502BRKM5       010BRASKEM     PNA     N1   R$  000000000194000000000019580000000001926000000000194000000000019530000000001948000000000193306530000000000001686000000000003271585300000000000000009999123100000010000000000000BRBRKMACNPA4121
012024071502BRSR3       010BANRISUL    ON      N1   R$  000000000124000000000012580000000001230000000000124300000000012580000000001241000000000125900032000000000000004500000000000005594000000000000000009999123100000010000000000000BRBRSRACNOR3188
012024071502BRSR6       010BANRISUL    PNB     N1   R$  000000000118000000000011880000000001171000000000118000000000011840000000001183000000000118803550000000000000788200000000000930620300000000000000009999123100000010000000000000BRBRSRACNPB4191
012024071502CSRN3       010COSERN      ON           R$  000000000225000000000022500000000002250000000000225000000000022500000000002248000000000229600004000000000000000800000000000001800000000000000000009999123100000010000000000000BRCSRNACNOR0193
012024071502CSUD3       010CSU DIGITAL ON      NM   R$  000000000200000000000020470000000002000000000000203100000000020360000000002022000000000203600213000000000000043100000000000087560600000000000000009999123100000010000000000000BRCSUDACNOR5110
012024071502ENGI11      010ENERGISA    UNT     N2   R$  000000000485000000000048590000000004763000000000480500000000047630000000004761000000000478309447000000000001684700000000008095980000000000000000009999123100000010000000000000BRENGICDAM16135
012024071502ENGI3       010ENERGISA    ON      N2   R$  000000000149700000000014990000000001483000000000149000000000014830000000001475000000000149200009000000000000000900000000000001341000000000000000009999123100000010000000000000BRENGIACNOR0145
012024071502ENGI4       010ENERGISA    PN      N2   R$  000000000082600000000008360000000000825000000000083100000000008260000000000823000000000083500010000000000000001500000000000001246700000000000000009999123100000010000000000000BRENGIACNPR7141
012024071502ENJU3       010ENJOEI      ON      NM   R$  000000000022600000000002350000000000204000000000021400000000002060000000000206000000000020901380000000000002800500000000000600703700000000000000009999123100000010000000000000BRENJUACNOR9100
012024071502EPAR3       010EMBPAR S/A  ON           R$  000000000063000000000006300000000000629000000000062900000000006290000000000629000000000063000034000000000000009200000000000005795100000000000000009999123100000010000000000000BREPARACNOR9105
012024071502EQMA3B      010EQTLMARANHAOON      MB   R$  000000000259900000000025990000000002599000000000259900000000025990000000002521000000000259800002000000000000000200000000000000519800000000000000009999123100000010000000000000BREQMAACNOR8108
012024071502EQPA3       010EQTL PARA   ON           R$  000000000071700000000007250000000000717000000000072200000000007240000000000724000000000074200028000000000000005200000000000003759300000000000000009999123100000010000000000000BREQPAACNOR1111
012024071502EQTL3       010EQUATORIAL  ON      NM   R$  000000000342400000000034290000000003374000000000338700000000033740000000003373000000000338014744000000000004605800000000015601789200000000000000009999123100000010000000000000BREQTLACNOR0130
012024071502RAIZ4       010RAIZEN      PN      N2   R$  000000000030900000000003120000000000307000000000030900000000003090000000000309000000000031007892000000000006986800000000002164960800000000000000009999123100000010000000000000BRRAIZACNPR6110
012024071502RANI3       010IRANI       ON      NM   R$  000000000087900000000009020000000000873000000000089100000000009000000000000900000000000090102446000000000000719600000000000641504000000000000000009999123100000010000000000000BRRANIACNOR5072
012024071502RAPT3       010RANDON PART ON      N1   R$  000000000102600000000010450000000001021000000000103200000000010310000000001031000000000104500104000000000000023700000000000024466200000000000000009999123100000010000000000000BRRAPTACNOR7162
012024071502RAPT4       010RANDON PART PN      N1   R$  000000000123300000000012470000000001222000000000123900000000012310000000001230000000000123104305000000000001495500000000001853366600000000000000009999123100000010000000000000BRRAPTACNPR4162
012024071502MNPR3       010MINUPAR     ON           R$  000000000131500000000013490000000001315000000000132200000000013210000000001321000000000134900007000000000000001100000000000001454800000000000000009999123100000010000000000000BRMNPRACNOR5122
012024071502MOVI3       010MOVIDA      ON      NM   R$  000000000068300000000006870000000000665000000000066900000000006650000000000664000000000066507120000000000003261400000000002183751300000000000000009999123100000010000000000000BRMOVIACNOR0122
012024071502MRFG3       010MARFRIG     ON      NM   R$  000000000123200000000012450000000001224000000000123500000000012340000000001238000000000123210003000000000002908900000000003593103500000000000000009999123100000010000000000000BRMRFGACNOR0116
012024071502PRNR3       010PRINER      ON      NM   R$  000000000107000000000010720000000001056000000000106300000000010620000000001061000000000106900968000000000000160000000000000170203300000000000000009999123100000010000000000000BRPRNRACNOR4109
012024071502PSSA3       010PORTO SEGUROON      NM   R$  000000000306600000000030900000000003032000000000307200000000030750000000003074000000000303804536000000000001056700000000003246274000000000000000009999123100000010000000000000BRPSSAACNOR7155
012024071502PTBL3       010PORTOBELLO  ON      NM   R$  000000000050800000000005150000000000500000000000050700000000005140000000000512000000000051400583000000000000208400000000000105834000000000000000009999123100000010000000000000BRPTBLACNOR8132
012024071502PTNT3       010PETTENATI   ON           R$  000000000097300000000009730000000000971000000000097200000000009710000000000954000000000097200002000000000000000200000000000000194400000000000000009999123100000010000000000000BRPTNTACNOR6042
012024071502PTNT4       010PETTENATI   PN           R$  000000000063300000000006330000000000626000000000063100000000006260000000000620000000000062600010000000000000002900000000000001832100000000000000009999123100000010000000000000BRPTNTACNPR3047
012024071502MRVE3       010MRV         ON      NM   R$  000000000069400000000007190000000000693000000000070800000000007140000000000714000000000071521718000000000012525500000000008876535000000000000000009999123100000010000000000000BRMRVEACNOR2127
012024071502RADL3       010RAIADROGASILON  EJ  NM   R$  000000000259100000000025910000000002544000000000257100000000025880000000002576000000000258809161000000000002995200000000007700815100000000000000009999123100000010000000000000BRRADLACNOR0157
012024071502RAIL3       010RUMO S.A.   ON      NM   R$  000000000227800000000023250000000002270000000000229400000000023160000000002315000000000231714735000000000012879400000000029555558800000000000000009999123100000010000000000000BRRAILACNOR9105
012024071502SCAR3       010SAO CARLOS  ON      NM   R$  000000000228300000000022890000000002231000000000225800000000022310000000002228000000000228000050000000000000007400000000000016711900000000000000009999123100000010000000000000BRSCARACNOR7131
012024071502USIM3       010USIMINAS    ON      N1   R$  000000000076500000000007720000000000754000000000076300000000007710000000000771000000000077200687000000000000198500000000000151547700000000000000009999123100000010000000000000BRUSIMACNOR3167
012024071502USIM5       010USIMINAS    PNA     N1   R$  000000000080500000000008190000000000795000000000080700000000008170000000000817000000000081812992000000000008722400000000007044678600000000000000009999123100000010000000000000BRUSIMACNPA6169
012024071502WEGE3       010WEG         ON      NM   R$  000000000458900000000046630000000004577000000000462700000000046510000000004649000000000459815091000000000004646400000000021502971900000000000000009999123100000010000000000000BRWEGEACNOR0223
012024071502RSUL4       010RIOSULENSE  PN           R$  000000000680100000000068690000000006800000000000682700000000068590000000006600000000000686000020000000000000002000000000000013654200000000000000009999123100000010000000000000BRRSULACNPR3114
012024071502SEER3       010SER EDUCA   ON      NM   R$  000000000055100000000005860000000000545000000000056500000000005820000000000582000000000058303490000000000001298800000000000734680400000000000000009999123100000010000000000000BRSEERACNOR5119
012024071502SEQL3       010SEQUOIA LOG ON      NM   R$  000000000046500000000004980000000000464000000000048100000000004840000000000482000000000048400732000000000000238600000000000114936200000000000000009999123100000010000000000000BRSEQLACNOR2103
012024071502SHOW3       010TIME FOR FUNON      NM   R$  000000000016900000000001720000000000167000000000016900000000001710000000000170000000000017100186000000000000076200000000000012906200000000000000009999123100000010000000000000BRSHOWACNOR7105
012024071502SHUL4       010SCHULZ      PN           R$  000000000065200000000007010000000000651000000000067200000000006780000000000677000000000067800865000000000000357900000000000240621000000000000000009999123100000010000000000000BRSHULACNPR4156
012024071502SIMH3       010SIMPAR      ON      NM   R$  000000000067500000000006790000000000667000000000067100000000006750000000000674000000000067503375000000000001583100000000001063651300000000000000009999123100000010000000000000BRSIMHACNOR0107
012024071502SLCE3       010SLC AGRICOLAON      NM   R$  000000000191000000000019160000000001887000000000189300000000018960000000001888000000000188907765000000000001527300000000002891873000000000000000009999123100000010000000000000BRSLCEACNOR2125
012024071502VALE3       010VALE        ON      NM   R$  000000000628000000000063180000000006242000000000628400000000062990000000006299000000000630024238000000000010198000000000064084756600000000000000009999123100000010000000000000BRVALEACNOR0210
012024071502WEST3       010WESTWING    ON      NM   R$  000000000009200000000000940000000000090000000000009000000000000940000000000091000000000009400051000000000000131700000000000011901600000000000000009999123100000010000000000000BRWESTACNOR3100
012024071502WHRL3       010WHIRLPOOL   ON           R$  000000000045200000000004520000000000450000000000045100000000004500000000000450000000000045100005000000000000001000000000000000451400000000000000009999123100000010000000000000BRWHRLACNOR5128
012024071502QUAL3       010QUALICORP   ON      NM   R$  000000000018200000000001870000000000180000000000018300000000001810000000000180000000000018102297000000000002363700000000000433291700000000000000009999123100000010000000000000BRQUALACNOR6120
012024071502SAPR11      010SANEPAR     UNT     N2   R$  000000000269000000000027100000000002660000000000268600000000026770000000002677000000000268003414000000000000959000000000002576046300000000000000009999123100000010000000000000BRSAPRCDAM13118
012024071502SAPR3       010SANEPAR     ON      N2   R$  000000000051100000000005140000000000509000000000051000000000005110000000000510000000000051100333000000000000117800000000000060152200000000000000009999123100000010000000000000BRSAPRACNOR9159
012024071502SAPR4       010SANEPAR     PN      N2   R$  000000000054600000000005480000000000541000000000054400000000005450000000000545000000000054601677000000000000663800000000000361366300000000000000009999123100000010000000000000BRSAPRACNPR6159
012024071502SBFG3       010GRUPO SBF   ON      NM   R$  000000000133400000000013680000000001320000000000135400000000013640000000001356000000000136404840000000000001344500000000001821395100000000000000009999123100000010000000000000BRSBFGACNOR1103
012024071502SBSP3       010SABESP      ON      NM   R$  000000000833000000000083500000000008167000000000821700000000081670000000008166000000000816915613000000000003190600000000026218826600000000000000009999123100000010000000000000BRSBSPACNOR5161
012024071502UNIP3       010UNIPAR      ON           R$  000000000503900000000051500000000005011000000000507200000000051500000000005032000000000515000059000000000000008500000000000043118200000000000000009999123100000010000000000000BRUNIPACNOR7206
012024071502UNIP5       010UNIPAR      PNA          R$  000000000525900000000052590000000005218000000000525000000000052180000000005218000000000525900004000000000000000500000000000002625400000000000000009999123100000010000000000000BRUNIPACNPA0208
012024071502UNIP6       010UNIPAR      PNB          R$  000000000518900000000052490000000005162000000000520700000000052070000000005207000000000521101052000000000000135300000000000704635200000000000000009999123100000010000000000000BRUNIPACNPB8206
012024071502KLBN11      010KLABIN S/A  UNT     N2   R$  000000000209800000000021440000000002082000000000212300000000021270000000002124000000000212715633000000000003977400000000008447157000000000000000009999123100000010000000000000BRKLBNCDAM18142
012024071502KLBN3       010KLABIN S/A  ON      N2   R$  000000000042100000000004300000000000420000000000042500000000004280000000000427000000000042800683000000000000275700000000000117264500000000000000009999123100000010000000000000BRKLBNACNOR2170
012024071502KLBN4       010KLABIN S/A  PN      N2   R$  000000000041900000000004280000000000418000000000042300000000004260000000000425000000000042701650000000000001092500000000000463178300000000000000009999123100000010000000000000BRKLBNACNPR9170
012024071502ALPA3       010ALPARGATAS  ON      N1   R$  000000000090700000000009170000000000906000000000090800000000009060000000000906000000000091400035000000000000004800000000000004360400000000000000009999123100000010000000000000BRALPAACNOR0231
012024071502ALPA4       010ALPARGATAS  PN      N1   R$  000000000093000000000009420000000000924000000000093300000000009330000000000931000000000093007698000000000002000400000000001868174600000000000000009999123100000010000000000000BRALPAACNPR7232
012024071502ALPK3       010ESTAPAR     ON      NM   R$  000000000035600000000003600000000000348000000000035200000000003550000000000351000000000035500239000000000000077500000000000027349900000000000000009999123100000010000000000000BRALPKACNOR9101
012024071502ALUP11      010ALUPAR      UNT     N2   R$  000000000318300000000031900000000003140000000000315100000000031420000000003142000000000315503618000000000000657900000000002073347500000000000000009999123100000010000000000000BRALUPCDAM15119
012024071502ALUP3       010ALUPAR      ON      N2   R$  000000000107900000000010900000000001066000000000107100000000010700000000001068000000000107000064000000000000008800000000000009429100000000000000009999123100000010000000000000BRALUPACNOR8119
012024071502ALUP4       010ALUPAR      PN      N2   R$  000000000104900000000010580000000001039000000000104200000000010430000000001037000000000104400069000000000000010900000000000011368200000000000000009999123100000010000000000000BRALUPACNPR5119
012024071502SANB11      010SANTANDER BRUNT          R$  000000000284700000000028490000000002810000000000282900000000028340000000002834000000000282805814000000000001989100000000005627756200000000000000009999123100000010000000000000BRSANBCDAM13164
012024071502SANB3       010SANTANDER BRON           R$  000000000135000000000013550000000001337000000000134500000000013450000000001342000000000134800411000000000000064200000000000086356500000000000000009999123100000010000000000000BRSANBACNOR8171
012024071502SANB4       010SANTANDER BRPN           R$  000000000149300000000014930000000001476000000000148400000000014930000000001491000000000149300580000000000000091800000000000136301900000000000000009999123100000010000000000000BRSANBACNPR5171
012024071502TAEE11      010TAESA       UNT     N2   R$  000000000353300000000035350000000003501000000000351000000000035120000000003526000000000351104799000000000001134400000000003982839700000000000000009999123100000010000000000000BRTAEECDAM10147
012024071502TAEE3       010TAESA       ON      N2   R$  000000000116900000000011690000000001159000000000116200000000011630000000001160000000000116300457000000000000087400000000000101586200000000000000009999123100000010000000000000BRTAEEACNOR9147
012024071502TAEE4       010TAESA       PN      N2   R$  000000000118300000000011830000000001172000000000117600000000011770000000001176000000000117700768000000000000167200000000000196717300000000000000009999123100000010000000000000BRTAEEACNPR6147
012024071502TASA3       010TAURUS ARMASON      N2   R$  000000000127100000000012870000000001241000000000126900000000012820000000001261000000000128200064000000000000010200000000000012949500000000000000009999123100000010000000000000BRTASAACNOR7104
012024071502TASA4       010TAURUS ARMASPN      N2   R$  000000000127000000000012780000000001262000000000126900000000012730000000001269000000000127301116000000000000214200000000000271892700000000000000009999123100000010000000000000BRTASAACNPR4104
012024071502TCSA3       010TECNISA     ON      NM   R$  000000000023300000000002360000000000227000000000023200000000002320000000000232000000000023500117000000000000043000000000000010018400000000000000009999123100000010000000000000BRTCSAACNOR3112
012024071502LJQQ3       010QUERO-QUERO ON      NM   R$  000000000044800000000004500000000000440000000000044500000000004440000000000444000000000044704015000000000001425900000000000634881700000000000000009999123100000010000000000000BRLJQQACNOR5104
012024071502LOGG3       010LOG COM PROPON      NM   R$  000000000235100000000023520000000002312000000000233300000000023300000000002318000000000233000803000000000000099500000000000232216200000000000000009999123100000010000000000000BRLOGGACNOR7107
012024071502LOGN3       010LOG-IN      ON      NM   R$  000000000413300000000041690000000004074000000000413300000000041460000000004146000000000416600112000000000000018400000000000076048200000000000000009999123100000010000000000000BRLOGNACNOR3105
012024071502LPSB3       010LOPES BRASILON      NM   R$  000000000019700000000001990000000000193000000000019500000000001930000000000192000000000019600146000000000000115600000000000022627400000000000000009999123100000010000000000000BRLPSBACNOR0114
012024071502LREN3       010LOJAS RENNERON      NM   R$  000000000135700000000013850000000001342000000000137300000000013740000000001374000000000137516145000000000009550300000000013118902200000000000000009999123100000010000000000000BRLRENACNOR1221
012024071502ANIM3       010ANIMA       ON      NM   R$  000000000038800000000003980000000000379000000000039200000000003950000000000394000000000039516553000000000007717800000000003029967300000000000000009999123100000010000000000000BRANIMACNOR6107
012024071502APER3       010ALPER S.A.  ON           R$  000000000459100000000045910000000004589000000000458900000000045890000000004589000000000462000005000000000000001100000000000005048200000000000000009999123100000010000000000000BRAPERACNOR9106
012024071502TECN3       010TECHNOS     ON      NM   R$  000000000059800000000005980000000000580000000000058700000000005820000000000582000000000058300317000000000000084700000000000049727100000000000000009999123100000010000000000000BRTECNACNOR6109
012024071502TELB3       010TELEBRAS    ON           R$  000000000127400000000012740000000001274000000000127400000000012740000000001272000000000131800001000000000000000100000000000000127400000000000000009999123100000010000000000000BRTELBACNOR2140
012024071502TELB4       010TELEBRAS    PN           R$  000000000095400000000009540000000000890000000000090000000000008960000000000896000000000090900063000000000000011300000000000010180300000000000000009999123100000010000000000000BRTELBACNPR9140
012024071502TEND3       010TENDA       ON      NM   R$  000000000127500000000013010000000001260000000000128400000000013010000000001301000000000130211849000000000002874100000000003691724500000000000000009999123100000010000000000000BRTENDACNOR4111
012024071502TTEN3       0103TENTOS     ON      NM   R$  000000000107400000000011000000000001062000000000108500000000010920000000001091000000000109504318000000000000730100000000000792337500000000000000009999123100000010000000000000BRTTENACNOR0103
012024071502TUPY3       010TUPY        ON      NM   R$  000000000255700000000025760000000002538000000000255800000000025640000000002554000000000256602445000000000000442900000000001133036800000000000000009999123100000010000000000000BRTUPYACNOR1184
012024071502TFCO4       010TRACK FIELD PN      N2   R$  000000000111800000000011480000000001117000000000113600000000011480000000001131000000000114800220000000000000067800000000000077038900000000000000009999123100000010000000000000BRTFCOACNPR8114
012024071502TGMA3       010TEGMA       ON      NM   R$  000000000259500000000026090000000002582000000000259200000000025890000000002588000000000260000385000000000000062700000000000162526400000000000000009999123100000010000000000000BRTGMAACNOR7144
012024071502TIMS3       010TIM         ON      NM   R$  000000000170200000000017030000000001658000000000167400000000016750000000001703000000000167514528000000000006314100000000010571677100000000000000009999123100000010000000000000BRTIMSACNOR5117
012024071502DXCO3       010DEXCO       ON      NM   R$  000000000072300000000007310000000000704000000000071200000000007050000000000705000000000070807514000000000002624400000000001869264500000000000000009999123100000010000000000000BRDXCOACNOR8105
012024071502JALL3       010JALLESMACHADON      NM   R$  000000000077000000000007820000000000769000000000077200000000007700000000000770000000000077301321000000000000398300000000000307830600000000000000009999123100000010000000000000BRJALLACNOR0105
012024071502JBSS3       010JBS         ON      NM   R$  000000000319600000000032280000000003180000000000320400000000032020000000003202000000000320308862000000000004709300000000015089468300000000000000009999123100000010000000000000BRJBSSACNOR8121
012024071502AALR3       010ALLIAR      ON      NM   R$  000000000138300000000014550000000001376000000000141600000000014040000000001396000000000140400340000000000000064400000000000091193700000000000000009999123100000010000000000000BRAALRACNOR6102
012024071502ABCB4       010ABC BRASIL  PN      N2   R$  000000000232700000000023510000000002312000000000232900000000023260000000002322000000000232602360000000000000436600000000001016967300000000000000009999123100000010000000000000BRABCBACNPR4146
012024071502TOTS3       010TOTVS       ON      NM   R$  000000000293900000000029780000000002911000000000294200000000029610000000002961000000000291708138000000000001864200000000005486330200000000000000009999123100000010000000000000BRTOTSACNOR8144
012024071502TPIS3       010TRIUNFO PARTON      NM   R$  000000000038400000000003950000000000383000000000038800000000003950000000000386000000000039600065000000000000025800000000000010032000000000000000009999123100000010000000000000BRTPISACNOR8118
012024071502TRAD3       010TC          ON      NM   R$  000000000005900000000000650000000000057000000000006100000000000640000000000062000000000006400304000000000001631500000000000100941900000000000000009999123100000010000000000000BRTRADACNOR3101
012024071502TRIS3       010TRISUL      ON      NM   R$  000000000051900000000005210000000000508000000000051200000000005110000000000511000000000051501363000000000000516800000000000264783600000000000000009999123100000010000000000000BRTRISACNOR4118
012024071502TRPL3       010TRAN PAULISTON      N1   R$  000000000334000000000033400000000003296000000000330300000000032960000000003290000000000329600027000000000000005600000000000018497300000000000000009999123100000010000000000000BRTRPLACNOR4185
012024071502TRPL4       010TRAN PAULISTPN      N1   R$  000000000258000000000025880000000002538000000000256400000000025850000000002569000000000256016482000000000004336300000000011120394200000000000000009999123100000010000000000000BRTRPLACNPR1185
012024071502ABEV3       010AMBEV S/A   ON  ATZ      R$  000000000116600000000011660000000001156000000000116000000000011640000000001163000000000116416755000000000012421100000000014417994900000000000000009999123100000010000000000000BRABEVACNOR1128
012024071502BAHI3       010BAHEMA      ON      MA   R$  000000000065200000000006650000000000652000000000065700000000006650000000000651000000000068700012000000000000005400000000000003548700000000000000009999123100000010000000000000BRBAHIACNOR1074
012024071502BALM3       010BAUMER      ON           R$  000000000125000000000012500000000001250000000000125000000000012500000000001010000000000200000001000000000000000100000000000000125000000000000000009999123100000010000000000000BRBALMACNOR5055
012024071502BAZA3       010AMAZONIA    ON           R$  000000000997900000000099900000000009900000000000989800000000099000000000009802000000000990000009000000000000001100000000000010888300000000000000009999123100000010000000000000BRBAZAACNOR0179
012024071502BBAS3       010BRASIL      ON      NM   R$  000000000268500000000026990000000002669000000000268900000000026950000000002695000000000269123045000000000011535200000000031021240100000000000000009999123100000010000000000000BRBBASACNOR3324
012024071502EALT3       010ACO ALTONA  ON           R$  000000000108000000000010800000000001080000000000108000000000010800000000001034000000000108000001000000000000000100000000000000108000000000000000009999123100000010000000000000BREALTACNOR4138
012024071502EALT4       010ACO ALTONA  PN           R$  000000000112900000000011420000000001129000000000113300000000011420000000001129000000000114200011000000000000004600000000000005215500000000000000009999123100000010000000000000BREALTACNPR1138
012024071502ECOR3       010ECORODOVIAS ON      NM   R$  000000000073800000000007450000000000732000000000073700000000007450000000000745000000000073804936000000000002897800000000002138247000000000000000009999123100000010000000000000BRECORACNOR8120
012024071502EGIE3       010ENGIE BRASILON      NM   R$  000000000464600000000046670000000004611000000000462800000000046350000000004625000000000463504096000000000001792800000000008298611000000000000000009999123100000010000000000000BREGIEACNOR9126
012024071502GGBR3       010GERDAU      ON      N1   R$  000000000162600000000016450000000001620000000000163700000000016350000000001635000000000163900350000000000000060400000000000098907000000000000000009999123100000010000000000000BRGGBRACNOR1192
012024071502GGBR4       010GERDAU      PN      N1   R$  000000000182700000000018690000000001816000000000185200000000018600000000001859000000000185819128000000000007465600000000013830961000000000000000009999123100000010000000000000BRGGBRACNPR8192
012024071502BIOM3       010BIOMM       ON      MA   R$  000000000139600000000013960000000001296000000000132200000000013100000000001308000000000131000501000000000000170300000000000225173600000000000000009999123100000010000000000000BRBIOMACNOR2112
012024071502VIVA3       010VIVARA S.A. ON      NM   R$  000000000232800000000023750000000002297000000000234900000000023570000000002355000000000236214450000000000003717700000000008734527600000000000000009999123100000010000000000000BRVIVAACNOR0107
012024071502VIVR3       010VIVER       ON      NM   R$  000000000025800000000002650000000000251000000000025900000000002510000000000251000000000025500227000000000000100400000000000026018900000000000000009999123100000010000000000000BRVIVRACNOR4123
012024071502LUPA3       010LUPATECH    ON      NM   R$  000000000017000000000001710000000000169000000000016900000000001700000000000170000000000017100069000000000000065800000000000011174300000000000000009999123100000010000000000000BRLUPAACNOR8112
012024071502LVTC3       010WDC NETWORKSON      NM   R$  000000000037000000000003790000000000366000000000037100000000003670000000000367000000000037900031000000000000006800000000000002528900000000000000009999123100000010000000000000BRLVTCACNOR4102
012024071502LWSA3       010LWSA        ON      NM   R$  000000000045700000000004690000000000456000000000046200000000004650000000000465000000000046808029000000000005637800000000002606811900000000000000009999123100000010000000000000BRLWSAACNOR8103
012024071502PDGR3       010PDG REALT   ON      NM   R$  000000000002000000000000210000000000018000000000001900000000000190000000000018000000000001900824000000000005411300000000000103538600000000000000009999123100000010000000000000BRPDGRACNOR8118
012024071502PDTC3       010PADTEC      ON      NM   R$  000000000019400000000001970000000000194000000000019400000000001950000000000195000000000019700070000000000000047300000000000009196100000000000000009999123100000010000000000000BRPDTCACNOR3101
012024071502PETR3       010PETROBRAS   ON      N2   R$  000000000410000000000041760000000004094000000000415200000000041460000000004145000000000415021756000000000009383600000000038965531700000000000000009999123100000010000000000000BRPETRACNOR9205
012024071502PETR4       010PETROBRAS   PN      N2   R$  000000000383000000000038730000000003820000000000385600000000038500000000003862000000000385051179000000000022969200000000088574391900000000000000009999123100000010000000000000BRPETRACNPR6213
012024071502PFRM3       010PROFARMA    ON      NM   R$  000000000054400000000005460000000000520000000000052900000000005300000000000529000000000053000840000000000000306700000000000162412300000000000000009999123100000010000000000000BRPFRMACNOR1116
012024071502PGMN3       010PAGUE MENOS ON      NM   R$  000000000027900000000002850000000000275000000000027800000000002850000000000281000000000028501202000000000000636500000000000177064700000000000000009999123100000010000000000000BRPGMNACNOR8103
012024071502PINE3       010PINE        ON  EJ  N2   R$  000000000058700000000005880000000000579000000000058600000000005880000000000575000000000058800010000000000000003400000000000001994600000000000000009999123100000010000000000000BRPINEACNOR1150
012024071502PINE4       010PINE        PN  EJ  N2   R$  000000000043500000000004370000000000422000000000042600000000004240000000000424000000000042500405000000000000215500000000000091890000000000000000009999123100000010000000000000BRPINEACNPR8150
012024071502PLAS3       010PLASCAR PARTON           R$  000000000061700000000006180000000000550000000000056900000000005500000000000550000000000059900010000000000000002100000000000001196700000000000000009999123100000010000000000000BRPLASACNOR2106
012024071502PLPL3       010PLANOEPLANO ON      NM   R$  000000000104100000000010670000000001029000000000105300000000010650000000001065000000000106602101000000000000651000000000000686144100000000000000009999123100000010000000000000BRPLPLACNOR5104
012024071502BLAU3       010BLAU        ON      NM   R$  000000000118700000000012280000000001187000000000120300000000012280000000001228000000000122901201000000000000226500000000000272505200000000000000009999123100000010000000000000BRBLAUACNOR8114
012024071502BRBI11      010BR PARTNERS UNT     N2   R$  000000000147500000000014910000000001447000000000146500000000014470000000001447000000000146601006000000000000235800000000000345560900000000000000009999123100000010000000000000BRBRBICDAM10109
012024071502KRSA3       010KORA SAUDE  ON      NM   R$  000000000006600000000000670000000000065000000000006500000000000660000000000065000000000006600060000000000000121700000000000007955100000000000000009999123100000010000000000000BRKRSAACNOR0100
012024071502BRFS3       010BRF SA      ON      NM   R$  000000000226000000000022800000000002246000000000226100000000022500000000002249000000000225010084000000000003137100000000007093983400000000000000009999123100000010000000000000BRBRFSACNOR8122
012024071502BRIT3       010BRISANET    ON      NM   R$  000000000042500000000004400000000000423000000000043400000000004370000000000437000000000043800693000000000000706000000000000306540400000000000000009999123100000010000000000000BRBRITACNOR0103
012024071502CSED3       010CRUZEIRO EDUON      NM   R$  000000000041700000000004250000000000415000000000042100000000004190000000000419000000000042200769000000000000228400000000000096220500000000000000009999123100000010000000000000BRCSEDACNOR9104
012024071502CSMG3       010COPASA      ON      NM   R$  000000000207200000000020720000000002024000000000204400000000020360000000002035000000000203704520000000000001017100000000002079854100000000000000009999123100000010000000000000BRCSMGACNOR5174
012024071502CSNA3       010SID NACIONALON           R$  000000000133700000000013460000000001327000000000133900000000013460000000001346000000000134208271000000000003634000000000004868094400000000000000009999123100000010000000000000BRCSNAACNOR6261
012024071502ENAT3       010ENAUTA PART ON      NM   R$  000000000221900000000022520000000002185000000000222100000000022250000000002224000000000222506299000000000001613000000000003583748000000000000000009999123100000010000000000000BRENATACNOR0104
012024071502ENEV3       010ENEVA       ON      NM   R$  000000000134100000000013430000000001316000000000133000000000013250000000001325000000000132912796000000000004092100000000005444961300000000000000009999123100000010000000000000BRENEVACNOR8106
012024071502HBOR3       010HELBOR      ON      NM   R$  000000000023400000000002360000000000228000000000022900000000002280000000000227000000000023000589000000000000501800000000000115411500000000000000009999123100000010000000000000BRHBORACNOR3118
012024071502HBRE3       010HBR REALTY  ON      NM   R$  000000000059500000000006020000000000580000000000059100000000005910000000000591000000000059300983000000000000384500000000000227239700000000000000009999123100000010000000000000BRHBREACNOR4100
012024071502HBSA3       010HIDROVIAS   ON      NM   R$  000000000040200000000004030000000000388000000000039400000000003950000000000394000000000039704181000000000004810700000000001899948500000000000000009999123100000010000000000000BRHBSAACNOR0100
012024071502PNVL3       010DIMED       ON      NM   R$  000000000101400000000010330000000001014000000000102300000000010250000000001023000000000102502230000000000000288600000000000295426800000000000000009999123100000010000000000000BRPNVLACNOR9207
012024071502POMO3       010MARCOPOLO   ON      N2   R$  000000000051700000000005270000000000514000000000052100000000005200000000000520000000000052600569000000000000169500000000000088348900000000000000009999123100000010000000000000BRPOMOACNOR0098
012024071502POMO4       010MARCOPOLO   PN      N2   R$  000000000065900000000006720000000000651000000000066400000000006630000000000662000000000066608666000000000002661000000000001769482500000000000000009999123100000010000000000000BRPOMOACNPR7098
012024071502PORT3       010WILSON SONS ON      NM   R$  000000000162100000000016320000000001602000000000161600000000016200000000001616000000000162001393000000000000382600000000000618650100000000000000009999123100000010000000000000BRPORTACNOR8108
012024071502POSI3       010POSITIVO TECON      NM   R$  000000000082500000000008270000000000794000000000080400000000008000000000000799000000000080003921000000000001745900000000001404861700000000000000009999123100000010000000000000BRPOSIACNOR9116
012024071502HETA4       010HERCULES    PN           R$  000000000054500000000005540000000000545000000000054800000000005450000000000540000000000055400003000000000000000300000000000000164400000000000000009999123100000010000000000000BRHETAACNPR9136
012024071502LAND3       010TERRASANTAPAON      NM   R$  000000000145000000000014690000000001432000000000145000000000014560000000001456000000000145700190000000000000023200000000000033650400000000000000009999123100000010000000000000BRLANDACNOR9103
012024071502LAVV3       010LAVVI       ON      NM   R$  000000000094100000000009450000000000928000000000093300000000009300000000000929000000000093001710000000000000541000000000000504789300000000000000009999123100000010000000000000BRLAVVACNOR4112
012024071502LEVE3       010METAL LEVE  ON      NM   R$  000000000341700000000034380000000003396000000000341200000000033960000000003395000000000340501382000000000000252200000000000860546900000000000000009999123100000010000000000000BRLEVEACNOR2197
012024071502CPFE3       010CPFL ENERGIAON      NM   R$  000000000339000000000033900000000003317000000000333700000000033190000000003319000000000329806352000000000001629000000000005437526600000000000000009999123100000010000000000000BRCPFEACNOR0137
012024071502CPLE3       010COPEL       ON      N2   R$  000000000091000000000009100000000000896000000000090000000000009010000000000901000000000090204584000000000002459000000000002215369000000000000000009999123100000010000000000000BRCPLEACNOR8149
012024071502CPLE5       010COPEL       PNA     N2   R$  000000000140000000000014000000000001400000000000140000000000014000000000001400000000000148300001000000000000000100000000000000140000000000000000009999123100000010000000000000BRCPLEACNPA1147
012024071502CPLE6       010COPEL       PNB     N2   R$  000000000102400000000010240000000001008000000000101300000000010170000000001013000000000101718077000000000011168300000000011322487300000000000000009999123100000010000000000000BRCPLEACNPB9146
012024071502ARML3       010ARMAC       ON  EDJ NM   R$  000000000106000000000010600000000001023000000000103500000000010350000000001035000000000104003294000000000000701700000000000726762500000000000000009999123100000010000000000000BRARMLACNOR1112
012024071502ARZZ3       010AREZZO CO   ON  ED  NM   R$  000000000542800000000054500000000005350000000000539400000000053850000000005385000000000539004820000000000001477100000000007967781200000000000000009999123100000010000000000000BRARZZACNOR3147
012024071502CEAB3       010CEA MODAS   ON      NM   R$  000000000105000000000010720000000001047000000000105900000000010550000000001055000000000105602800000000000001429100000000001513440200000000000000009999123100000010000000000000BRCEABACNOR1102
012024071502CEBR3       010CEB         ON           R$  000000000209700000000021060000000002088000000000209700000000021060000000002089000000000210600025000000000000003100000000000006502800000000000000009999123100000010000000000000BRCEBRACNOR5125
012024071502CEBR5       010CEB         PNA          R$  000000000182500000000018270000000001806000000000181300000000018110000000001810000000000182900010000000000000001100000000000001994900000000000000009999123100000010000000000000BRCEBRACNPA8124
012024071502CEBR6       010CEB         PNB          R$  000000000193500000000019350000000001922000000000192800000000019340000000001924000000000193800028000000000000004400000000000008487300000000000000009999123100000010000000000000BRCEBRACNPB6124
012024071502CEDO4       010CEDRO       PN      N1   R$  000000000218500000000021850000000002140000000000216200000000021400000000001967000000000214000004000000000000000400000000000000865000000000000000009999123100000010000000000000BRCEDOACNPR5128
012024071502CEEB3       010COELBA      ON           R$  000000000404600000000040460000000004015000000000403000000000040150000000003962000000000418000002000000000000000200000000000000806100000000000000009999123100000010000000000000BRCEEBACNOR3199
012024071502GRND3       010GRENDENE    ON      NM   R$  000000000060900000000006110000000000603000000000060600000000006080000000000608000000000061001793000000000000547400000000000332250200000000000000009999123100000010000000000000BRGRNDACNOR3174
012024071502GUAR3       010GUARARAPES  ON      NM   R$  000000000075400000000007700000000000754000000000076300000000007660000000000765000000000072503277000000000000945000000000000721375500000000000000009999123100000010000000000000BRGUARACNOR4173
012024071502YDUQ3       010YDUQS PART  ON      NM   R$  000000000120000000000012420000000001176000000000121700000000012350000000001237000000000123611165000000000003108400000000003784333300000000000000009999123100000010000000000000BRYDUQACNOR3105
012024071502ZAMP3       010ZAMP S.A.   ON           R$  000000000035000000000003560000000000350000000000035200000000003560000000000355000000000035000742000000000000143500000000000050582500000000000000009999123100000010000000000000BRZAMPACNOR5100
012024071502HAGA3       010HAGA S/A    ON           R$  000000000027600000000003100000000000270000000000028300000000003060000000000281000000000030600051000000000000018800000000000005329300000000000000009999123100000010000000000000BRHAGAACNOR7103
012024071502HAGA4       010HAGA S/A    PN           R$  000000000011800000000001230000000000117000000000012000000000001230000000000119000000000012300046000000000000019900000000000002392600000000000000009999123100000010000000000000BRHAGAACNPR4103
012024071502HAPV3       010HAPVIDA     ON      NM   R$  000000000041000000000004190000000000408000000000041300000000004150000000000415000000000041614163000000000040352000000000016670274100000000000000009999123100000010000000000000BRHAPVACNOR4114
012024071502ITSA3       010ITAUSA      ON      N1   R$  000000000102000000000010250000000001018000000000102000000000010210000000001019000000000102100344000000000000098700000000000100744300000000000000009999123100000010000000000000BRITSAACNOR0441
012024071502ITSA4       010ITAUSA      PN      N1   R$  000000000102200000000010250000000001016000000000101900000000010220000000001021000000000102213084000000000018683600000000019044326800000000000000009999123100000010000000000000BRITSAACNPR7441
012024071502AZUL4       010AZUL        PN      N2   R$  000000000088100000000009030000000000864000000000088600000000009000000000000900000000000090008509000000000009435200000000008366023700000000000000009999123100000010000000000000BRAZULACNPR4102
012024071502CMIN3       010CSNMINERACAOON      N2   R$  000000000054800000000005540000000000541000000000054900000000005540000000000552000000000055406332000000000005790600000000003183800400000000000000009999123100000010000000000000BRCMINACNOR2111
012024071502DMVF3       010D1000VFARMA ON      NM   R$  000000000076800000000007950000000000762000000000077900000000007870000000000787000000000079400255000000000000052600000000000041022200000000000000009999123100000010000000000000BRDMVFACNOR9100
012024071502DOHL4       010DOHLER      PN           R$  000000000040000000000004000000000000399000000000039900000000004000000000000388000000000040000003000000000000000700000000000000279900000000000000009999123100000010000000000000BRDOHLACNPR9066
012024071502DOTZ3       010DOTZ SA     ON      NM   R$  000000000065400000000006770000000000637000000000065600000000006680000000000643000000000065900050000000000000013100000000000008603900000000000000009999123100000010000000000000BRDOTZACNOR7101
012024071502MATD3       010MATER DEI   ON      NM   R$  000000000051000000000005100000000000486000000000049400000000004860000000000486000000000049001077000000000000518200000000000256107200000000000000009999123100000010000000000000BRMATDACNOR4104
012024071502ASAI3       010ASSAI       ON      NM   R$  000000000112200000000011260000000001111000000000111500000000011130000000001113000000000111811112000000000005840400000000006517687400000000000000009999123100000010000000000000BRASAIACNOR0106
012024071502ATOM3       010ATOMPAR     ON           R$  000000000020500000000002090000000000202000000000020700000000002020000000000204000000000020700013000000000000003400000000000000704300000000000000009999123100000010000000000000BRATOMACNOR1106
012024071502AURE3       010AUREN       ON      NM   R$  000000000124800000000012510000000001241000000000124600000000012480000000001244000000000124504048000000000001253800000000001562326900000000000000009999123100000010000000000000BRAUREACNOR9104
012024071502AVLL3       010ALPHAVILLE  ON      NM   R$  000000000033000000000003300000000000330000000000033000000000003300000000000318000000000032900001000000000000000100000000000000033000000000000000009999123100000010000000000000BRAVLLACNOR5103
012024071502AZEV3       010AZEVEDO     ON           R$  000000000017000000000001890000000000165000000000017300000000001860000000000186000000000018801337000000000001553600000000000270069100000000000000009999123100000010000000000000BRAZEVACNOR0121
012024071502AZEV4       010AZEVEDO     PN           R$  000000000016900000000001910000000000164000000000017700000000001880000000000187000000000018803578000000000008525000000000001511954100000000000000009999123100000010000000000000BRAZEVACNPR7121
012024071502MBLY3       010MOBLY       ON      NM   R$  000000000026200000000002700000000000254000000000026200000000002640000000000264000000000026500662000000000000713200000000000186870000000000000000009999123100000010000000000000BRMBLYACNOR5100
012024071502MDIA3       010M.DIASBRANCOON      NM   R$  000000000283900000000028490000000002761000000000280700000000028100000000002802000000000279407261000000000001613400000000004529576800000000000000009999123100000010000000000000BRMDIAACNOR7135
012024071502MDNE3       010MOURA DUBEUXON      NM   R$  000000000138000000000013810000000001334000000000135400000000013340000000001333000000000133802929000000000000460500000000000623517000000000000000009999123100000010000000000000BRMDNEACNOR9100
012024071502MEAL3       010IMC S/A     ON      NM   R$  000000000015500000000001640000000000155000000000016000000000001630000000000162000000000016300585000000000000637400000000000102497300000000000000009999123100000010000000000000BRMEALACNOR9105
012024071502MELK3       010MELNICK     ON      NM   R$  000000000037300000000003790000000000366000000000037400000000003760000000000376000000000037900445000000000000184700000000000069141400000000000000009999123100000010000000000000BRMELKACNOR8111
012024071502CGAS5       010COMGAS      PNA          R$  000000001126000000000113630000000011260000000001133900000000113500000000011355000000001149700008000000000000000800000000000009071500000000000000009999123100000010000000000000BRCGASACNPA3160
012024071502CGRA3       010GRAZZIOTIN  ON           R$  000000000249700000000025330000000002492000000000250100000000024920000000002491000000000259900016000000000000001900000000000004751900000000000000009999123100000010000000000000BRCGRAACNOR2083
012024071502CGRA4       010GRAZZIOTIN  PN           R$  000000000258400000000025940000000002577000000000258400000000025940000000002586000000000261300013000000000000001600000000000004135000000000000000009999123100000010000000000000BRCGRAACNPR9083
012024071502CIEL3       010CIELO       ON      NM   R$  000000000057300000000005740000000000572000000000057300000000005740000000000573000000000057415248000000000012396000000000007107747900000000000000009999123100000010000000000000BRCIELACNOR3157
012024071502CLSA3       010CLEARSALE   ON      NM   R$  000000000073800000000007540000000000685000000000070800000000007060000000000698000000000070605734000000000002527000000000001791323100000000000000009999123100000010000000000000BRCLSAACNOR0100
012024071502CLSC4       010CELESC      PN      N2   R$  000000000765100000000077690000000007649000000000770200000000077680000000007649000000000777000013000000000000001400000000000010783400000000000000009999123100000010000000000000BRCLSCACNPR3131
012024071502CMIG3       010CEMIG       ON      N1   R$  000000000130800000000013100000000001300000000000130600000000013030000000001303000000000130600581000000000000128000000000000167201300000000000000009999123100000010000000000000BRCMIGACNOR6242
012024071502CMIG4       010CEMIG       PN      N1   R$  000000000107000000000010780000000001066000000000107100000000010720000000001076000000000107311150000000000007381900000000007908917800000000000000009999123100000010000000000000BRCMIGACNPR3243
012024071502MGEL4       010MANGELS INDLPN           R$  000000000132500000000013680000000001325000000000132700000000013680000000001326000000000137500010000000000000003400000000000004514800000000000000009999123100000010000000000000BRMGELACNPR3147
012024071502MGLU3       010MAGAZ LUIZA ON      NM   R$  000000000138500000000014330000000001365000000000140000000000014330000000001431000000000138818760000000000019057800000000026694874500000000000000009999123100000010000000000000BRMGLUACNOR2124
012024071502BBSE3       010BBSEGURIDADEON      NM   R$  000000000340000000000034080000000003383000000000339600000000034040000000003403000000000339308357000000000001990800000000006762132700000000000000009999123100000010000000000000BRBBSEACNOR5124
012024071502DASA3       010DASA        ON      NM   R$  000000000036500000000003700000000000353000000000036200000000003650000000000365000000000036601819000000000000954200000000000346246100000000000000009999123100000010000000000000BRDASAACNOR1122
012024071502BPAC11      010BTGP BANCO  UNT EJ  N2   R$  000000000327500000000032750000000003212000000000322600000000032170000000003216000000000321908720000000000004182400000000013492835200000000000000009999123100000010000000000000BRBPACUNT006119
012024071502BPAC3       010BTGP BANCO  ON  EJ  N2   R$  000000000155600000000015630000000001549000000000155600000000015630000000001549000000000156600005000000000000000500000000000000778100000000000000009999123100000010000000000000BRBPACACNOR7134
012024071502BPAC5       010BTGP BANCO  PNA EJ  N2   R$  000000000083600000000008460000000000827000000000083500000000008300000000000826000000000084200011000000000000001200000000000001002100000000000000009999123100000010000000000000BRBPACACNPA0134
012024071502COCE5       010COELCE      PNA          R$  000000000311000000000031100000000003071000000000307800000000030750000000003072000000000310000050000000000000008500000000000026164400000000000000009999123100000010000000000000BRCOCEACNPA3147
012024071502COGN3       010COGNA ON    ON      NM   R$  000000000018800000000001930000000000186000000000019000000000001930000000000192000000000019322167000000000020365400000000003887158900000000000000009999123100000010000000000000BRCOGNACNOR2104
012024071502EKTR4       010ELEKTRO     PN           R$  000000000395500000000039550000000003931000000000395300000000039550000000003930000000000395500012000000000000001700000000000006721100000000000000009999123100000010000000000000BREKTRACNPR7163
012024071502CAMB3       010CAMBUCI     ON           R$  000000000112600000000011260000000001110000000000111900000000011240000000001120000000000112400032000000000000004700000000000005262900000000000000009999123100000010000000000000BRCAMBACNOR4130
012024071502CAML3       010CAMIL       ON      NM   R$  000000000092900000000009350000000000907000000000092100000000009240000000000917000000000091503067000000000000725100000000000668222600000000000000009999123100000010000000000000BRCAMLACNOR3128
012024071502CASH3       010MELIUZ      ON      NM   R$  000000000061100000000006180000000000599000000000060700000000006000000000000600000000000060203041000000000001162500000000000705733200000000000000009999123100000010000000000000BRCASHACNOR8106
012024071502CBAV3       010CBA         ON      NM   R$  000000000074200000000007470000000000728000000000073600000000007280000000000728000000000073104873000000000002129700000000001568050900000000000000009999123100000010000000000000BRCBAVACNOR5104
012024071502CBEE3       010AMPLA ENERG ON           R$  000000000098000000000009800000000000980000000000098000000000009800000000000500000000000100000001000000000000000200000000000000196000000000000000009999123100000010000000000000BRCBEEACNOR3159
012024071502CCRO3       010CCR SA      ON      NM   R$  000000000130100000000013030000000001282000000000128700000000012840000000001283000000000128710229000000000005419600000000006978988100000000000000009999123100000010000000000000BRCCROACNOR2145
012024071502CURY3       010CURY S/A    ON      NM   R$  000000000210200000000021410000000002082000000000212200000000021200000000002118000000000212009003000000000001379900000000002928217300000000000000009999123100000010000000000000BRCURYACNOR3109
012024071502ELET3       010ELETROBRAS  ON      N1   R$  000000000391000000000039350000000003872000000000388300000000038750000000003875000000000388814846000000000004486200000000017422818100000000000000009999123100000010000000000000BRELETACNOR6160
012024071502ELET6       010ELETROBRAS  PNB     N1   R$  000000000435000000000043580000000004287000000000430300000000043050000000004305000000000429504328000000000001236200000000005320572600000000000000009999123100000010000000000000BRELETACNPB7077
012024071502GGPS3       010GPS         ON      NM   R$  000000000176300000000017690000000001722000000000173600000000017370000000001726000000000173804032000000000001129700000000001961972700000000000000009999123100000010000000000000BRGGPSACNOR9103
012024071502GMAT3       010GRUPO MATEUSON      NM   R$  000000000072800000000007340000000000721000000000072900000000007300000000000730000000000073103094000000000001193000000000000870092800000000000000009999123100000010000000000000BRGMATACNOR7102
012024071502GOAU3       010GERDAU MET  ON      N1   R$  000000000109000000000011070000000001077000000000109400000000010960000000001096000000000110500217000000000000048400000000000052973400000000000000009999123100000010000000000000BRGOAUACNOR1267
012024071502GOAU4       010GERDAU MET  PN      N1   R$  000000000107400000000011050000000001070000000000109200000000011030000000001102000000000110217072000000000012393100000000013541431500000000000000009999123100000010000000000000BRGOAUACNPR8268
012024071502UCAS3       010UNICASA     ON      NM   R$  000000000023500000000002450000000000234000000000023900000000002420000000000239000000000024000170000000000000046800000000000011231300000000000000009999123100000010000000000000BRUCASACNOR1113
012024071502UGPA3       010ULTRAPAR    ON      NM   R$  000000000227900000000022880000000002231000000000225100000000022400000000002239000000000223411746000000000002864900000000006450838900000000000000009999123100000010000000000000BRUGPAACNOR8155
012024071502VIVT3       010TELEF BRASILON           R$  000000000496100000000049770000000004873000000000490300000000048950000000004890000000000489908447000000000001836100000000009002488800000000000000009999123100000010000000000000BRVIVTACNOR0182
012024071502VLID3       010VALID       ON      NM   R$  000000000156800000000015970000000001542000000000157400000000015810000000001580000000000158103947000000000000564900000000000889401600000000000000009999123100000010000000000000BRVLIDACNOR5143
012024071502VSTE3       010VESTE       ON      NM   R$  000000000142000000000014260000000001411000000000141800000000014160000000001416000000000143000034000000000000003900000000000005531300000000000000009999123100000010000000000000BRVSTEACNOR5103
012024071502VTRU3       010VITRUEDUCA  ON      NM   R$  000000000138400000000014050000000001362000000000138500000000013910000000001379000000000139100455000000000000060700000000000084121200000000000000009999123100000010000000000000BRVTRUACNOR3100
012024071502VULC3       010VULCABRAS   ON      NM   R$  000000000155000000000016040000000001538000000000158100000000015880000000001587000000000159603479000000000000791000000000001250840900000000000000009999123100000010000000000000BRVULCACNOR2159
012024071502VVEO3       010VIVEO       ON      NM   R$  000000000026400000000002690000000000255000000000025900000000002550000000000255000000000025603437000000000001750600000000000454161600000000000000009999123100000010000000000000BRVVEOACNOR0104
012024071502PRIO3       010PETRORIO    ON      NM   R$  000000000455900000000046820000000004555000000000464300000000046520000000004643000000000465414949000000000006846900000000031793274700000000000000009999123100000010000000000000BRPRIOACNOR1106
012024071502SYNE3       010SYN PROP TECON      NM   R$  000000000099400000000010090000000000987000000000100100000000009990000000000999000000000100500680000000000000151600000000000151794900000000000000009999123100000010000000000000BRSYNEACNOR2102
012024071502ROMI3       010ROMI        ON      NM   R$  000000000110600000000011160000000001102000000000110900000000011120000000001109000000000111200789000000000000115500000000000128204400000000000000009999123100000010000000000000BRROMIACNOR8195
012024071502RPAD5       010ALFA HOLDINGPNA          R$  000000000086200000000008620000000000860000000000086000000000008600000000000852000000000086000009000000000000005500000000000004731300000000000000009999123100000010000000000000BRRPADACNPA4218
012024071502RRRP3       0103R PETROLEUMON      NM   R$  000000000276000000000028110000000002727000000000278000000000028000000000002800000000000280111529000000000003413200000000009490753900000000000000009999123100000010000000000000BRRRRPACNOR5103
012024071502VAMO3       010VAMOS       ON      NM   R$  000000000091100000000009310000000000909000000000092200000000009280000000000928000000000091909541000000000005495500000000005070914400000000000000009999123100000010000000000000BRVAMOACNOR7105
012024071507NUTR3       010NUTRIPLANT  ON      MA   R$  000000000047800000000004780000000000440000000000046500000000004690000000000469000000000047500048000000000000008700000000000004051200000000000000009999123100000010000000000000BRNUTRACNOR0104
012024071508HOOT4       010HOTEIS OTHONPN           R$  000000000025100000000002510000000000244000000000024700000000002470000000000246000000000025800009000000000000003100000000000000768000000000000000009999123100000010000000000000BRHOOTACNPR9015
012024071508BDLL4       010BARDELLA    PN           R$  000000000100000000000010000000000001000000000000100000000000010000000000000950000000000102500001000000000000000100000000000000100000000000000000009999123100000010000000000000BRBDLLACNPR8151
012024071508OIBR3       010OI          ON      N1   R$  000000000059100000000006360000000000587000000000061900000000006330000000000631000000000063301968000000000001535700000000000951175200000000000000009999123100000010000000000000BROIBRACNOR1111
012024071508OIBR4       010OI          PN      N1   R$  000000000151500000000015740000000001515000000000154300000000015730000000001540000000000157400062000000000000013000000000000020064300000000000000009999123100000010000000000000BROIBRACNPR8110
012024071508OSXB3       010OSX BRASIL  ON      NM   R$  000000000039300000000003930000000000393000000000039300000000003930000000000385000000000039300001000000000000000100000000000000039300000000000000009999123100000010000000000000BROSXBACNOR8109
012024071508NEXP3       010NEXPE       ON           R$  000000000042800000000004280000000000416000000000042100000000004160000000000416000000000042200008000000000000001100000000000000463100000000000000009999123100000010000000000000BRNEXPACNOR0101
012024071508ETER3       010ETERNIT     ON      NM   R$  000000000063500000000006350000000000626000000000062800000000006260000000000626000000000062800394000000000000093200000000000058594900000000000000009999123100000010000000000000BRETERACNOR3243
012024071508JFEN3       010JOAO FORTES ON           R$  000000000003300000000000330000000000028000000000002900000000000290000000000028000000000002901139000000000002346600000000000070056500000000000000009999123100000010000000000000BRJFENACNOR0059
012024071508CTNM4       010COTEMINAS   PN           R$  000000000008000000000000800000000000080000000000008000000000000800000000000080000000000008200022000000000000054200000000000004336000000000000000009999123100000010000000000000BRCTNMACNPR6129
012024071508CTSA3       010SANTANENSE  ON           R$  000000000024500000000002490000000000243000000000024400000000002480000000000244000000000024800019000000000000006200000000000001514200000000000000009999123100000010000000000000BRCTSAACNOR3062
012024071508RSID3       010ROSSI RESID ON      NM   R$  000000000050400000000005040000000000494000000000049600000000004950000000000493000000000049700067000000000000023600000000000011707600000000000000009999123100000010000000000000BRRSIDACNOR8120
012024071508SGPS3       010SPRINGS     ON      NM   R$  000000000020100000000002010000000000201000000000020100000000002010000000000201000000000020200021000000000000025700000000000005167000000000000000009999123100000010000000000000BRSGPSACNOR4105
012024071508LIGT3       010LIGHT S/A   ON      NM   R$  000000000050600000000005060000000000502000000000050300000000005050000000000504000000000050500971000000000000285600000000000143821000000000000000009999123100000010000000000000BRLIGTACNOR2124
012024071508AMER3       010AMERICANAS  ON      NM   R$  000000000006700000000000690000000000061000000000006400000000000620000000000062000000000006305850000000000049948800000000003226840400000000000000009999123100000010000000000000BRAMERACNOR6102
012024071508TEKA4       010TEKA        PN           R$  000000000280700000000030590000000002807000000000293300000000030590000000002830000000000315700002000000000000000200000000000000586600000000000000009999123100000010000000000000BRTEKAACNPR3140
012024071508PMAM3       010PARANAPANEMAON      NM   R$  000000000024100000000002410000000000237000000000023900000000002400000000000239000000000024000067000000000000015800000000000003785000000000000000009999123100000010000000000000BRPMAMACNOR3039
012024071508ATMP3       010ATMASA      ON           R$  000000000019500000000001960000000000194000000000019500000000001960000000000195000000000019800008000000000000002000000000000000391300000000000000009999123100000010000000000000BRATMPACNOR8100
012024071508CTSA4       010SANTANENSE  PN           R$  000000000010800000000001100000000000101000000000010500000000001090000000000105000000000010800132000000000000109100000000000011506300000000000000009999123100000010000000000000BRCTSAACNPR0062
012024071508RNEW11      010RENOVA      UNT     N2   R$  000000000027200000000002740000000000272000000000027200000000002740000000000272000000000027400007000000000000003800000000000001035800000000000000009999123100000010000000000000BRRNEWCDAM15110
012024071508RNEW3       010RENOVA      ON      N2   R$  000000000009000000000000920000000000090000000000009000000000000910000000000090000000000009200023000000000000013000000000000001171500000000000000009999123100000010000000000000BRRNEWACNOR8110
012024071508RNEW4       010RENOVA      PN      N2   R$  000000000009100000000000920000000000090000000000009000000000000910000000000090000000000009100057000000000000041300000000000003739400000000000000009999123100000010000000000000BRRNEWACNPR5110
012024071508RPMG3       010PET MANGUINHON           R$  000000000026300000000002890000000000260000000000028300000000002880000000000287000000000028900140000000000000143700000000000040748700000000000000009999123100000010000000000000BRRPMGACNOR9194
012024071510RENT1       010LOCALIZA    DIR ORD NM   R$  000000000140700000000014190000000001329000000000136300000000014190000000001378000000000141900613000000000000103300000000000140860500000000000000009999123100000010000000000000BRRENTD06OR8195
012024071510EQTL9       010EQUATORIAL  ON  REC NM   R$  000000000346800000000034680000000003350000000000340100000000033560000000003301000000000349900008000000000000002200000000000007483100000000000000009999123100000010000000000000BREQTLR03OR1129
012024071510VIVR1       010VIVER       DIR ORD NM   R$  000000000000100000000000010000000000001000000000000100000000000010000000000000000000000000100006000000000000003000000000000000003000000000000000009999123100000010000000000000BRVIVRD18OR3122
012024071512HLOG11      010FII HEDGELOGCI           R$  000000000832600000000083260000000008100000000000821200000000083200000000008218000000000832000034000000000000000306000000000002512927000000000000009999123100000010000000000000BRHLOGCTF008157
012024071512HOFC11      010FII HOFFICEICI           R$  000000000295000000000030410000000002870000000000295400000000029010000000002901000000000296100188000000000000002985000000000008819469000000000000009999123100000010000000000000BRHOFCCTF009115
012024071512HOSI11      010FII HOUSI   CI           R$  000000000959800000000096000000000009501000000000953300000000095020000000009502000000000964800013000000000000000273000000000002602650000000000000009999123100000010000000000000BRHOSICTF009146
012024071512HPDP11      010FII HEDGEPDPCI           R$  000000000871800000000088960000000008665000000000881900000000088950000000008800000000000889600115000000000000057519000000000507260556000000000000009999123100000010000000000000BRHPDPCTF003153
012024071512HRDF11      010FII HREALTY CI           R$  000000000034000000000003400000000000340000000000034000000000003400000000000333000000000033600003000000000000000009000000000000003060000000000000009999123100000010000000000000BRHRDFCTF000103
012024071512HREC11      010FII HEDGERECCI           R$  000000000087100000000008710000000000855000000000086000000000008610000000000857000000000086200187000000000000016630000000000014317207000000000000009999123100000010000000000000BRHRECCTF005150
012024071512HRES11      010FII HIRE RESCI  ER       R$  000000001240000000000124000000000012400000000001240000000000124000000000012575000000000000000002000000000000000002000000000000024800000000000000009999123100000010000000000000BRHRESCTF001101
012024071512HSAF11      010FII HSI CRI CI           R$  000000000850000000000085360000000008457000000000849400000000084900000000008490000000000850001417000000000000006914000000000058727922000000000000009999123100000010000000000000BRHSAFCTF004149
012024071512HSLG11      010FII HSI LOG CI           R$  000000000878500000000089500000000008652000000000879600000000087190000000008717000000000872001494000000000000015232000000000133988373000000000000009999123100000010000000000000BRHSLGCTF009143
012024071512HSML11      010FII HSI MALLCI           R$  000000000943000000000094720000000009415000000000943900000000094420000000009442000000000944405077000000000000030364000000000286629401000000000000009999123100000010000000000000BRHSMLCTF007162
012024071512HSRE11      010FII HSIRENDACI           R$  000000001089900000000109000000000010899000000001089900000000109000000000010532000000001090000003000000000000000012000000000000130799000000000000009999123100000010000000000000BRHSRECTF001142
012024071512HTMX11      010FII HOTEL MXCI           R$  000000001795000000000180990000000017812000000001791400000000179790000000017978000000001804401395000000000000005455000000000097723266000000000000009999123100000010000000000000BRHTMXCTF000281
012024071512HUCG11      010FII UNIMED CCI           R$  000000000840000000000084000000000008400000000000840000000000084000000000008221000000000840000003000000000000000017000000000000142800000000000000009999123100000010000000000000BRHUCGCTF004120
012024071512HUSC11      010FII H UNIMEDCI           R$  000000001120000000000112490000000011199000000001124000000000112480000000010819000000001124900006000000000000000012000000000000134888000000000000009999123100000010000000000000BRHUSCCTF009153
012024071512BPFF11      010FII ABSOLUTOCI           R$  000000000706700000000071000000000007029000000000709200000000071000000000007083000000000710000331000000000000003509000000000024887517000000000000009999123100000010000000000000BRBPFFCTF002237
012024071512BPML11      010FII BTG SHOPCI           R$  000000000927000000000092700000000009171000000000923100000000092500000000009290000000000927001314000000000000008436000000000077879584000000000000009999123100000010000000000000BRBPMLCTF006131
012024071512CPLG11      010FII CPLG    CI           R$  000000000105000000000010500000000001050000000000105000000000010500000000000000000000000105000001000000000000000001000000000000001050000000000000009999123100000010000000000000BRCPLGCTF006100
012024071512CPSH11      010FII CPSH    CI           R$  000000000111000000000011120000000001103000000000110600000000011090000000001109000000000111306982000000000000139597000000000154439323000000000000009999123100000010000000000000BRCPSHCTF017114
012024071512CPTS11      010FII CAPI SECCI  ER       R$  000000000082900000000008330000000000829000000000083000000000008330000000000832000000000083337079000000000000537718000000000446612619000000000000009999123100000010000000000000BRCPTSCTF004232
012024071512CRFF11      010FII CX RBRA2CI           R$  000000000788300000000078830000000007855000000000787300000000078820000000007781000000000788300008000000000000000014000000000000110227000000000000009999123100000010000000000000BRCRFFCTF006162
012024071512BCFF11      010FII BC FFII CI  ER       R$  000000000086500000000008720000000000856000000000086200000000008620000000000860000000000086210471000000000000388361000000000334917777000000000000009999123100000010000000000000BRBCFFCTF000279
012024071512BCIA11      010FII BCIA    CI           R$  000000001042000000000104730000000010373000000001041900000000104020000000010400000000001040201220000000000000003953000000000041189249000000000000009999123100000010000000000000BRBCIACTF005211
012024071512BCRI11      010FII BEES CRICI           R$  000000000665900000000067180000000006650000000000669000000000067040000000006703000000000670400992000000000000007392000000000049455158000000000000009999123100000010000000000000BRBCRICTF009216
012024071512DEVA11      010FII DEVANT  CI  ER       R$  000000000407600000000040890000000004020000000000405600000000040700000000004070000000000407802489000000000000023239000000000094278121000000000000009999123100000010000000000000BRDEVACTF000150
012024071512FCFL11      010FII CAMPUSFLCI           R$  000000001154000000000118100000000011452000000001163900000000118090000000011681000000001180900397000000000000002113000000000024593894000000000000009999123100000010000000000000BRFCFLCTF009270
012024071512NSLU11      010FII LOURDES CI           R$  000000001845100000000185980000000018319000000001841200000000184650000000018340000000001846500063000000000000000478000000000008800990000000000000009999123100000010000000000000BRNSLUCTF008312
012024071512RBED11      010FII RIOB ED CI           R$  000000001379400000000138000000000013700000000001377200000000137940000000013793000000001379400123000000000000001426000000000019638985000000000000009999123100000010000000000000BRRBEDCTF006165
012024071512RBFF11      010FII RIOB FF CI           R$  000000000620000000000062100000000006183000000000619200000000062100000000006210000000000621200386000000000000004031000000000024963766000000000000009999123100000010000000000000BRRBFFCTF008161
012024071512RBHG11      010FII RBCRI IVCI           R$  000000000870000000000087000000000008655000000000866700000000086810000000008681000000000868500895000000000000005972000000000051763635000000000000009999123100000010000000000000BRRBHGCTF002135
012024071512RBHY11      010FII RB YIELDCI           R$  000000000897100000000090340000000008971000000000901100000000090100000000009010000000000902700068000000000000000634000000000005713161000000000000009999123100000010000000000000BRRBHYCTF005145
012024071512RBIR11      010FII RBRES IVCI           R$  000000000844000000000084400000000008439000000000843900000000084400000000008401000000000844500015000000000000000207000000000001747071000000000000009999123100000010000000000000BRRBIRCTF007112
012024071512RBOP11      010FII MERC BR CI  ER       R$  000000003755000000000375500000000036100000000003728600000000373910000000037391000000003739500029000000000000000051000000000001901624000000000000009999123100000010000000000000BRRBOPCTF009122
012024071512RBRD11      010FII RB II   CI           R$  000000000377000000000037990000000003770000000000377400000000037990000000003776000000000379900034000000000000000293000000000001105901000000000000009999123100000010000000000000BRRBRDCTF008264
012024071512RBRF11      010FII RBRALPHACI  ER       R$  000000000077000000000007740000000000767000000000077000000000007730000000000773000000000077419341000000000000217144000000000167378181000000000000009999123100000010000000000000BRRBRFCTF003188
012024071512RBRL11      010FII RBR LOG CI  ER       R$  000000000772900000000077690000000007712000000000773000000000077600000000007730000000000776000492000000000000003437000000000026569305000000000000009999123100000010000000000000BRRBRLCTF001155
012024071512RBRP11      010FII RBR PROPCI  ER       R$  000000000575000000000058200000000005720000000000575400000000057350000000005735000000000579803339000000000000015965000000000091864624000000000000009999123100000010000000000000BRRBRPCTF002174
012024071512RBRR11      010FII RBRHGRADCI  ER       R$  000000000921500000000092150000000009100000000000912400000000091610000000009142000000000916110922000000000000040554000000000370019523000000000000009999123100000010000000000000BRRBRRCTF008181
012024071512RBRS11      010FII RIOB RR CI           R$  000000000435000000000043500000000004350000000000435000000000043500000000004340000000000440400002000000000000000002000000000000008700000000000000009999123100000010000000000000BRRBRSCTF006138
