00COTAHIST.2024BOVESPA 20240701                                                                                                                                                                                                                      
012024070102ARZZ3       010AREZZO CO   ON      NM   R$  000000000513700000000051650000000005017000000000510700000000051090000000005100000000000510905573000000000001003900000000005127405300000000000000009999123100000010000000000000BRARZZACNOR3146
012024070102CPFE3       010CPFL ENERGIAON      NM   R$  000000000328900000000033260000000003246000000000328400000000032800000000003272000000000328108525000000000001797600000000005905030100000000000000009999123100000010000000000000BRCPFEACNOR0137
012024070102CPLE3       010COPEL       ON      N2   R$  000000000083200000000008370000000000821000000000083100000000008310000000000831000000000083306564000000000002864700000000002383397600000000000000009999123100000010000000000000BRCPLEACNOR8149
012024070102CPLE5       010COPEL       PNA     N2   R$  000000000155000000000015500000000001500000000000153300000000015000000000001500000000000155000003000000000000000300000000000000460000000000000000009999123100000010000000000000BRCPLEACNPA1147
012024070102CPLE6       010COPEL       PNB     N2   R$  000000000092600000000009440000000000922000000000093500000000009350000000000935000000000093824869000000000015471300000000014478264200000000000000009999123100000010000000000000BRCPLEACNPB9146
012024070102EKTR4       010ELEKTRO     PN  EJ       R$  000000000395500000000039550000000003900000000000391400000000039000000000003900000000000395200004000000000000000400000000000001565600000000000000009999123100000010000000000000BREKTRACNPR7163
012024070102ELET3       010ELETROBRAS  ON      N1   R$  000000000357000000000036900000000003540000000000365900000000036510000000003650000000000365228245000000000011579800000000042373223800000000000000009999123100000010000000000000BRELETACNOR6160
012024070102ELET6       010ELETROBRAS  PNB     N1   R$  000000000399900000000041100000000003970000000000406500000000040710000000004071000000000407406187000000000001237100000000005029449600000000000000009999123100000010000000000000BRELETACNPB7077
012024070102HBOR3       010HELBOR      ON      NM   R$  000000000020600000000002100000000000204000000000020700000000002040000000000204000000000020700608000000000000386300000000000080078400000000000000009999123100000010000000000000BRHBORACNOR3118
012024070102HBRE3       010HBR REALTY  ON      NM   R$  000000000050800000000005200000000000499000000000051000000000005120000000000512000000000051600710000000000000335200000000000171146500000000000000009999123100000010000000000000BRHBREACNOR4100
012024070102BHIA3       010CASAS BAHIA ON  ATZ NM   R$  000000000054500000000005470000000000514000000000052600000000005150000000000514000000000051605741000000000005533600000000002914147400000000000000009999123100000010000000000000BRBHIAACNOR1102
012024070102BRIT3       010BRISANET    ON      NM   R$  000000000040000000000004090000000000398000000000040300000000004010000000000400000000000040101399000000000000455300000000000183683400000000000000009999123100000010000000000000BRBRITACNOR0103
012024070102BRKM3       010BRASKEM     ON      N1   R$  000000000180500000000018250000000001790000000000181300000000018250000000001825000000000202400037000000000000005000000000000009069300000000000000009999123100000010000000000000BRBRKMACNOR1119
012024070102BRKM5       010BRASKEM     PNA     N1   R$  000000000178800000000018150000000001760000000000177800000000017620000000001761000000000176507902000000000002423900000000004311030800000000000000009999123100000010000000000000BRBRKMACNPA4121
012024070102CSRN3       010COSERN      ON  EJ       R$  000000000229000000000022900000000002290000000000229000000000022900000000002175000000000228900001000000000000000400000000000000916000000000000000009999123100000010000000000000BRCSRNACNOR0193
012024070102CSUD3       010CSU DIGITAL ON  EJ  NM   R$  000000000181000000000018800000000001802000000000184600000000018800000000001880000000000190000479000000000000081800000000000151036700000000000000009999123100000010000000000000BRCSUDACNOR5110
012024070102CTKA4       010KARSTEN     PN           R$  000000000160000000000017000000000001600000000000162500000000017000000000001600000000000170000003000000000000000400000000000000650000000000000000009999123100000010000000000000BRCTKAACNPR7043
012024070102CURY3       010CURY S/A    ON      NM   R$  000000000207100000000020830000000002038000000000206200000000020570000000002052000000000205706734000000000001892600000000003904147100000000000000009999123100000010000000000000BRCURYACNOR3109
012024070102CVCB3       010CVC BRASIL  ON  ATZ NM   R$  000000000019500000000002000000000000193000000000019600000000001950000000000194000000000019506212000000000004890700000000000959908000000000000000009999123100000010000000000000BRCVCBACNOR1116
012024070102CXSE3       010CAIXA SEGURION      NM   R$  000000000143200000000014510000000001421000000000143600000000014240000000001424000000000143008728000000000002736900000000003930920500000000000000009999123100000010000000000000BRCXSEACNOR7106
012024070102SANB4       010SANTANDER BRPN           R$  000000000144300000000014510000000001433000000000144000000000014350000000001435000000000143700458000000000000066100000000000095220600000000000000009999123100000010000000000000BRSANBACNPR5171
012024070102SAPR11      010SANEPAR     UNT EJ  N2   R$  000000000271500000000027150000000002623000000000264700000000026280000000002626000000000263104671000000000000818200000000002166064200000000000000009999123100000010000000000000BRSAPRCDAM13118
012024070102SAPR3       010SANEPAR     ON  EJ  N2   R$  000000000051100000000005140000000000498000000000050400000000005000000000000498000000000050001198000000000000345800000000000174300500000000000000009999123100000010000000000000BRSAPRACNOR9159
012024070102SAPR4       010SANEPAR     PN  EJ  N2   R$  000000000054700000000005470000000000533000000000053900000000005350000000000535000000000053703472000000000001610400000000000868182300000000000000009999123100000010000000000000BRSAPRACNPR6159
012024070102SBFG3       010GRUPO SBF   ON      NM   R$  000000000120000000000012180000000001186000000000120200000000012000000000001200000000000120106735000000000001402000000000001686596400000000000000009999123100000010000000000000BRSBFGACNOR1103
012024070102TRPL3       010TRAN PAULISTON      N1   R$  000000000341500000000034220000000003380000000000341600000000033800000000003359000000000342200010000000000000001100000000000003758400000000000000009999123100000010000000000000BRTRPLACNOR4185
012024070102TRPL4       010TRAN PAULISTPN      N1   R$  000000000262300000000026810000000002608000000000265700000000026500000000002649000000000265512223000000000002176100000000005783249700000000000000009999123100000010000000000000BRTRPLACNPR1185
012024070102ASAI3       010ASSAI       ON      NM   R$  000000000103000000000010410000000000990000000000101500000000010000000000001000000000000100127770000000000019240000000000019533120600000000000000009999123100000010000000000000BRASAIACNOR0106
012024070102ATOM3       010ATOMPAR     ON           R$  000000000019600000000001990000000000196000000000019700000000001970000000000196000000000019700011000000000000001800000000000000356000000000000000009999123100000010000000000000BRATOMACNOR1106
012024070102AURE3       010AUREN       ON      NM   R$  000000000123700000000012500000000001233000000000123800000000012340000000001234000000000123505769000000000002679400000000003319032300000000000000009999123100000010000000000000BRAUREACNOR9104
012024070102AVLL3       010ALPHAVILLE  ON      NM   R$  000000000033100000000003310000000000331000000000033100000000003310000000000318000000000033500001000000000000000300000000000000099300000000000000009999123100000010000000000000BRAVLLACNOR5103
012024070102AZEV3       010AZEVEDO     ON           R$  000000000015800000000001610000000000152000000000015500000000001550000000000155000000000015600607000000000000545700000000000084938100000000000000009999123100000010000000000000BRAZEVACNOR0121
012024070102AZEV4       010AZEVEDO     PN           R$  000000000014800000000001540000000000139000000000014600000000001490000000000149000000000015004501000000000005269800000000000773888700000000000000009999123100000010000000000000BRAZEVACNPR7121
012024070102WEGE3       010WEG         ON  EJ  NM   R$  000000000418500000000042460000000004178000000000420200000000041970000000004196000000000419812175000000000003981200000000016731984500000000000000009999123100000010000000000000BRWEGEACNOR0223
012024070102ROMI3       010ROMI        ON      NM   R$  000000000105000000000010500000000001034000000000104300000000010470000000001040000000000104700945000000000000153700000000000160321000000000000000009999123100000010000000000000BRROMIACNOR8195
012024070102RRRP3       0103R PETROLEUMON      NM   R$  000000000275500000000027960000000002726000000000276500000000027800000000002780000000000278111700000000000002942500000000008137319200000000000000009999123100000010000000000000BRRRRPACNOR5103
012024070102SYNE3       010SYN PROP TECON      NM   R$  000000000092100000000009350000000000915000000000092500000000009220000000000921000000000092600967000000000000358400000000000331546500000000000000009999123100000010000000000000BRSYNEACNOR2102
012024070102INEP3       010INEPAR      ON           R$  000000000020400000000002080000000000196000000000020000000000002000000000000196000000000020000132000000000000046300000000000009277700000000000000009999123100000010000000000000BRINEPACNOR1143
012024070102INEP4       010INEPAR      PN           R$  000000000019000000000001930000000000185000000000018700000000001870000000000186000000000019000075000000000000130400000000000024484600000000000000009999123100000010000000000000BRINEPACNPR8143
012024070102INTB3       010INTELBRAS   ON      NM   R$  000000000231000000000023110000000002265000000000228000000000022700000000002269000000000227005588000000000001368800000000003122011800000000000000009999123100000010000000000000BRINTBACNOR9111
012024070102IRBR3       010IRBBRASIL REON      NM   R$  000000000317400000000031800000000003120000000000314800000000031410000000003141000000000314404014000000000001064100000000003350003700000000000000009999123100000010000000000000BRIRBRACNOR4111
012024070102GEPA3       010GER PARANAP ON           R$  000000000264900000000026490000000002649000000000264900000000026490000000002520000000000264900001000000000000000300000000000000794700000000000000009999123100000010000000000000BRGEPAACNOR2153
012024070102GEPA4       010GER PARANAP PN           R$  000000000262000000000026200000000002526000000000259600000000025260000000002526000000000264900006000000000000000700000000000001817700000000000000009999123100000010000000000000BRGEPAACNPR9160
012024070102GFSA3       010GAFISA      ON      NM   R$  000000000033700000000003410000000000323000000000032900000000003230000000000323000000000032502534000000000003658200000000001206380600000000000000009999123100000010000000000000BRGFSAACNOR3124
012024070102GGBR3       010GERDAU      ON      N1   R$  000000000163500000000016410000000001614000000000162200000000016240000000001617000000000162400149000000000000020800000000000033741600000000000000009999123100000010000000000000BRGGBRACNOR1192
012024070102GGBR4       010GERDAU      PN      N1   R$  000000000184100000000018500000000001813000000000182700000000018320000000001830000000000183316610000000000007030800000000012849995900000000000000009999123100000010000000000000BRGGBRACNPR8192
012024070102MRVE3       010MRV         ON      NM   R$  000000000066600000000006690000000000655000000000066000000000006570000000000656000000000065711195000000000010317400000000006813765800000000000000009999123100000010000000000000BRMRVEACNOR2127
012024070102MATD3       010MATER DEI   ON      NM   R$  000000000046000000000004610000000000445000000000045300000000004550000000000455000000000045601666000000000000680600000000000308347100000000000000009999123100000010000000000000BRMATDACNOR4104
012024070102MBLY3       010MOBLY       ON      NM   R$  000000000021700000000002180000000000204000000000021000000000002100000000000209000000000021001228000000000000459200000000000096890400000000000000009999123100000010000000000000BRMBLYACNOR5100
012024070102QUAL3       010QUALICORP   ON      NM   R$  000000000014000000000001430000000000138000000000014000000000001410000000000140000000000014101640000000000002619600000000000367729100000000000000009999123100000010000000000000BRQUALACNOR6120
012024070102SEER3       010SER EDUCA   ON      NM   R$  000000000048100000000004860000000000470000000000047400000000004710000000000471000000000047304866000000000000891400000000000423191800000000000000009999123100000010000000000000BRSEERACNOR5119
012024070102SEQL3       010SEQUOIA LOG ON      NM   R$  000000000046300000000004630000000000420000000000043100000000004210000000000421000000000042201278000000000000442100000000000190721500000000000000009999123100000010000000000000BRSEQLACNOR2103
012024070102SHOW3       010TIME FOR FUNON      NM   R$  000000000014800000000001500000000000147000000000014800000000001490000000000147000000000014900308000000000000129800000000000019262400000000000000009999123100000010000000000000BRSHOWACNOR7105
012024070102SHUL4       010SCHULZ      PN  EJ       R$  000000000059600000000006070000000000594000000000060100000000006010000000000601000000000060301038000000000000300400000000000180796000000000000000009999123100000010000000000000BRSHULACNPR4156
012024070102SIMH3       010SIMPAR      ON      NM   R$  000000000053300000000005450000000000530000000000053700000000005380000000000536000000000053807766000000000003051200000000001639571400000000000000009999123100000010000000000000BRSIMHACNOR0107
012024070102BIOM3       010BIOMM       ON      MA   R$  000000000148500000000015030000000001416000000000145600000000014380000000001411000000000143800691000000000000135600000000000197467900000000000000009999123100000010000000000000BRBIOMACNOR2112
012024070102BLAU3       010BLAU        ON  EJ  NM   R$  000000000104100000000010460000000001011000000000102200000000010240000000001014000000000102400904000000000000206600000000000211205700000000000000009999123100000010000000000000BRBLAUACNOR8114
012024070102BMEB3       010MERCANTIL   ON      N1   R$  000000000252000000000025220000000002520000000000252000000000025200000000002550000000000268000005000000000000002300000000000005796300000000000000009999123100000010000000000000BRBMEBACNOR8205
012024070102BMEB4       010MERCANTIL   PN      N1   R$  000000000280000000000028250000000002775000000000280100000000028250000000002825000000000293000056000000000000009600000000000026896500000000000000009999123100000010000000000000BRBMEBACNPR5210
012024070102BMGB4       010BANCO BMG   PN      N1   R$  000000000034400000000003560000000000333000000000034000000000003360000000000335000000000033601965000000000001257800000000000428847800000000000000009999123100000010000000000000BRBMGBACNPR0109
012024070102BMKS3       010BIC MONARK  ON           R$  000000003348100000000339900000000032007000000003280100000000330000000000032512000000003309900013000000000000000040000000000001312044000000000000009999123100000010000000000000BRBMKSACNOR9166
012024070102SANB11      010SANTANDER BRUNT          R$  000000000275000000000027590000000002725000000000273900000000027360000000002736000000000273708324000000000001923500000000005269704100000000000000009999123100000010000000000000BRSANBCDAM13164
012024070102SANB3       010SANTANDER BRON           R$  000000000131300000000013130000000001284000000000129500000000012960000000001296000000000130200585000000000000124900000000000161811400000000000000009999123100000010000000000000BRSANBACNOR8171
012024070102PRIO3       010PETRORIO    ON      NM   R$  000000000438300000000045540000000004376000000000447800000000045100000000004510000000000451428810000000000010769700000000048230692600000000000000009999123100000010000000000000BRPRIOACNOR1106
012024070102KRSA3       010KORA SAUDE  ON      NM   R$  000000000006200000000000690000000000061000000000006700000000000690000000000068000000000006902105000000000000937400000000000063119900000000000000009999123100000010000000000000BRKRSAACNOR0100
012024070102LAND3       010TERRASANTAPAON      NM   R$  000000000145200000000014610000000001422000000000143800000000014320000000001421000000000143900344000000000000048700000000000070049800000000000000009999123100000010000000000000BRLANDACNOR9103
012024070102NEOE3       010NEOENERGIA  ON      NM   R$  000000000186000000000018810000000001848000000000186900000000018650000000001864000000000186903612000000000000811000000000001516436200000000000000009999123100000010000000000000BRNEOEACNOR3122
012024070102NGRD3       010NEOGRID     ON      NM   R$  000000000008200000000000950000000000081000000000008800000000000890000000000089000000000009003243000000000001923500000000000170642700000000000000009999123100000010000000000000BRNGRDACNOR3104
012024070102NINJ3       010GETNINJAS   ON      NM   R$  000000000043900000000004570000000000434000000000044800000000004430000000000442000000000044300190000000000000040700000000000018239300000000000000009999123100000010000000000000BRNINJACNOR5101
012024070102CEEB3       010COELBA      ON  EJ       R$  000000000398100000000039820000000003972000000000397800000000039720000000003910000000000397300003000000000000000300000000000001193500000000000000009999123100000010000000000000BRCEEBACNOR3199
012024070102CGAS5       010COMGAS      PNA          R$  000000001149000000000114900000000011383000000001143600000000113830000000011301000000001148000002000000000000000200000000000002287300000000000000009999123100000010000000000000BRCGASACNPA3160
012024070102DMVF3       010D1000VFARMA ON      NM   R$  000000000074700000000007470000000000716000000000072200000000007290000000000720000000000072900835000000000000104600000000000075570700000000000000009999123100000010000000000000BRDMVFACNOR9100
012024070102DOHL4       010DOHLER      PN           R$  000000000039800000000003980000000000398000000000039800000000003980000000000381000000000039800001000000000000000200000000000000079600000000000000009999123100000010000000000000BRDOHLACNPR9066
012024070102DOTZ3       010DOTZ SA     ON      NM   R$  000000000063100000000006640000000000631000000000065300000000006600000000000647000000000065700026000000000000005900000000000003853000000000000000009999123100000010000000000000BRDOTZACNOR7101
012024070102EALT4       010ACO ALTONA  PN           R$  000000000111800000000011250000000001097000000000110700000000011060000000001104000000000111300055000000000000018100000000000020050400000000000000009999123100000010000000000000BREALTACNPR1138
012024070102ECOR3       010ECORODOVIAS ON      NM   R$  000000000066400000000006820000000000659000000000067100000000006650000000000663000000000066506385000000000003518000000000002363123300000000000000009999123100000010000000000000BRECORACNOR8120
012024070102EGIE3       010ENGIE BRASILON      NM   R$  000000000441800000000044640000000004410000000000444400000000044450000000004443000000000444505082000000000000801900000000003563720800000000000000009999123100000010000000000000BREGIEACNOR9126
012024070102FLRY3       010FLEURY      ON      NM   R$  000000000152100000000015600000000001501000000000154000000000015370000000001537000000000153810381000000000004018300000000006191398900000000000000009999123100000010000000000000BRFLRYACNOR5138
012024070102DASA3       010DASA        ON      NM   R$  000000000027300000000002990000000000270000000000028500000000002910000000000291000000000029202732000000000001840700000000000525865600000000000000009999123100000010000000000000BRDASAACNOR1122
012024070102DESK3       010DESKTOP     ON      NM   R$  000000000148600000000015100000000001430000000000146200000000014500000000001446000000000145002813000000000000930900000000001361161000000000000000009999123100000010000000000000BRDESKACNOR2104
012024070102DEXP3       010DEXXOS PAR  ON      N1   R$  000000000104900000000010670000000001030000000000105000000000010300000000001030000000000104300292000000000000053200000000000055863100000000000000009999123100000010000000000000BRDEXPACNOR1105
012024070102DEXP4       010DEXXOS PAR  PN      N1   R$  000000000102800000000010280000000001028000000000102800000000010280000000001010000000000102500001000000000000000100000000000000102800000000000000009999123100000010000000000000BRDEXPACNPR8105
012024070102DIRR3       010DIRECIONAL  ON      NM   R$  000000000267200000000027240000000002627000000000268800000000026950000000002690000000000269807307000000000003250600000000008740734600000000000000009999123100000010000000000000BRDIRRACNOR0117
012024070102ESPA3       010ESPACOLASER ON      NM   R$  000000000010300000000001030000000000100000000000010100000000001000000000000100000000000010200214000000000000383500000000000038796400000000000000009999123100000010000000000000BRESPAACNOR7103
012024070102EUCA3       010EUCATEX     ON      N1   R$  000000000153600000000015360000000001500000000000151800000000015000000000001503000000000160000002000000000000000200000000000000303600000000000000009999123100000010000000000000BREUCAACNOR1157
012024070102EUCA4       010EUCATEX     PN      N1   R$  000000000150500000000015240000000001487000000000150500000000015060000000001498000000000150600281000000000000041700000000000062765100000000000000009999123100000010000000000000BREUCAACNPR8044
012024070102EVEN3       010EVEN        ON      NM   R$  000000000065500000000006590000000000636000000000064500000000006360000000000636000000000064202782000000000000519500000000000335110600000000000000009999123100000010000000000000BREVENACNOR8119
012024070102BAHI3       010BAHEMA      ON      MA   R$  000000000065000000000006500000000000650000000000065000000000006500000000000623000000000066000003000000000000000500000000000000325000000000000000009999123100000010000000000000BRBAHIACNOR1074
012024070102BAUH4       010EXCELSIOR   PN           R$  000000000760100000000079990000000007601000000000780000000000079990000000007600000000000000000002000000000000000200000000000001560000000000000000009999123100000010000000000000BRBAUHACNPR3118
012024070102BAZA3       010AMAZONIA    ON           R$  000000000919700000000104500000000009197000000001015600000000099000000000009710000000000990000113000000000000022600000000000229526000000000000000009999123100000010000000000000BRBAZAACNOR0179
012024070102BBAS3       010BRASIL      ON      NM   R$  000000000267400000000026800000000002632000000000265000000000026360000000002635000000000263753319000000000020469000000000054246025600000000000000009999123100000010000000000000BRBBASACNOR3324
012024070102YDUQ3       010YDUQS PART  ON      NM   R$  000000000104000000000010800000000001025000000000105900000000010590000000001058000000000106207904000000000003880400000000004111508900000000000000009999123100000010000000000000BRYDUQACNOR3105
012024070102JSLG3       010JSL         ON      NM   R$  000000000094000000000009500000000000924000000000093500000000009360000000000930000000000093700969000000000000223300000000000208858900000000000000009999123100000010000000000000BRJSLGACNOR2121
012024070102KEPL3       010KEPLER WEBERON  ED  NM   R$  000000000093600000000009730000000000925000000000093600000000009250000000000925000000000092903845000000000001022200000000000957251300000000000000009999123100000010000000000000BRKEPLACNOR1063
012024070102CYRE3       010CYRELA REALTON      NM   R$  000000000188500000000018880000000001848000000000186700000000018610000000001860000000000186216817000000000006157900000000011498751000000000000000009999123100000010000000000000BRCYREACNOR7140
012024070102UNIP3       010UNIPAR      ON           R$  000000000476200000000048630000000004762000000000482300000000048630000000004828000000000486600029000000000000003400000000000016400700000000000000009999123100000010000000000000BRUNIPACNOR7206
012024070102UNIP5       010UNIPAR      PNA          R$  000000000497100000000049800000000004900000000000492200000000049000000000004821000000000496700010000000000000001000000000000004922300000000000000009999123100000010000000000000BRUNIPACNPA0208
012024070102UNIP6       010UNIPAR      PNB          R$  000000000488300000000049230000000004794000000000486700000000048650000000004864000000000487701010000000000000138800000000000675552000000000000000009999123100000010000000000000BRUNIPACNPB8206
012024070102USIM3       010USIMINAS    ON      N1   R$  000000000077200000000007720000000000746000000000075300000000007460000000000746000000000075001202000000000000348100000000000262333600000000000000009999123100000010000000000000BRUSIMACNOR3167
012024070102USIM5       010USIMINAS    PNA     N1   R$  000000000079600000000008020000000000781000000000078900000000007870000000000786000000000078815862000000000008641800000000006826408900000000000000009999123100000010000000000000BRUSIMACNPA6169
012024070102WEST3       010WESTWING    ON      NM   R$  000000000008600000000000870000000000085000000000008500000000000870000000000085000000000008700030000000000000016000000000000001374900000000000000009999123100000010000000000000BRWESTACNOR3100
012024070102TELB3       010TELEBRAS    ON           R$  000000000129200000000013000000000001291000000000129300000000013000000000001281000000000130500004000000000000000400000000000000517400000000000000009999123100000010000000000000BRTELBACNOR2140
012024070102TELB4       010TELEBRAS    PN           R$  000000000088600000000008890000000000856000000000087200000000008640000000000863000000000086800031000000000000005300000000000004625300000000000000009999123100000010000000000000BRTELBACNPR9140
012024070102TEND3       010TENDA       ON      NM   R$  000000000108800000000010880000000001052000000000106900000000010680000000001067000000000106903401000000000001018700000000001089110600000000000000009999123100000010000000000000BRTENDACNOR4111
012024070102TFCO4       010TRACK FIELD PN  EJ  N2   R$  000000000106500000000010820000000001056000000000107000000000010680000000001065000000000106801174000000000000173300000000000185530900000000000000009999123100000010000000000000BRTFCOACNPR8114
012024070102TGMA3       010TEGMA       ON      NM   R$  000000000242800000000024640000000002417000000000243900000000024370000000002437000000000244900856000000000000142600000000000347855400000000000000009999123100000010000000000000BRTGMAACNOR7144
012024070102TIMS3       010TIM         ON  EJ  NM   R$  000000000158800000000016220000000001560000000000159800000000016050000000001605000000000160618169000000000014155300000000022633493700000000000000009999123100000010000000000000BRTIMSACNOR5117
012024070102KLBN11      010KLABIN S/A  UNT     N2   R$  000000000216200000000022050000000002145000000000218200000000021800000000002180000000000218114753000000000008053600000000017576074100000000000000009999123100000010000000000000BRKLBNCDAM18142
012024070102KLBN3       010KLABIN S/A  ON      N2   R$  000000000042900000000004420000000000428000000000043700000000004360000000000436000000000043700949000000000000452900000000000198209500000000000000009999123100000010000000000000BRKLBNACNOR2170
012024070102KLBN4       010KLABIN S/A  PN      N2   R$  000000000042600000000004400000000000423000000000043400000000004330000000000433000000000043502278000000000002008300000000000872560400000000000000009999123100000010000000000000BRKLBNACNPR9170
012024070102NORD3       010NORDON MET  ON           R$  000000000060500000000006050000000000600000000000060100000000006000000000000450000000000064700003000000000000000800000000000000481300000000000000009999123100000010000000000000BRNORDACNOR7135
012024070102NTCO3       010GRUPO NATURAON      NM   R$  000000000153800000000015900000000001535000000000156300000000015550000000001553000000000155610490000000000003726500000000005824821800000000000000009999123100000010000000000000BRNTCOACNOR5106
012024070102ZAMP3       010ZAMP S.A.   ON           R$  000000000037000000000003850000000000362000000000037200000000003650000000000365000000000037102398000000000000571700000000000212790000000000000000009999123100000010000000000000BRZAMPACNOR5100
012024070102PNVL3       010DIMED       ON  EJ  NM   R$  000000000096500000000009780000000000942000000000096400000000009710000000000971000000000097801382000000000000237000000000000228650700000000000000009999123100000010000000000000BRPNVLACNOR9207
012024070102POMO3       010MARCOPOLO   ON      N2   R$  000000000049000000000004930000000000468000000000047800000000004700000000000470000000000047700889000000000000371800000000000177796100000000000000009999123100000010000000000000BRPOMOACNOR0098
012024070102POMO4       010MARCOPOLO   PN      N2   R$  000000000063600000000006390000000000592000000000061400000000006110000000000610000000000061213781000000000009781800000000006007607500000000000000009999123100000010000000000000BRPOMOACNPR7098
012024070102PORT3       010WILSON SONS ON      NM   R$  000000000152100000000015210000000001500000000000151000000000015120000000001506000000000151201968000000000001008800000000001523675100000000000000009999123100000010000000000000BRPORTACNOR8108
012024070102POSI3       010POSITIVO TECON      NM   R$  000000000078700000000008010000000000774000000000078300000000007800000000000779000000000078607561000000000001795000000000001406460800000000000000009999123100000010000000000000BRPOSIACNOR9116
012024070102BRSR3       010BANRISUL    ON      N1   R$  000000000121300000000012130000000001189000000000119500000000011940000000001194000000000120400029000000000000004100000000000004902300000000000000009999123100000010000000000000BRBRSRACNOR3188
012024070102BRSR6       010BANRISUL    PNB     N1   R$  000000000113400000000011440000000001125000000000113200000000011350000000001132000000000113507632000000000002084800000000002361842200000000000000009999123100000010000000000000BRBRSRACNPB4191
012024070102BSLI3       010BRB BANCO   ON           R$  000000000092900000000010020000000000929000000000097000000000010010000000000961000000000100100009000000000000001200000000000001164400000000000000009999123100000010000000000000BRBSLIACNOR5194
012024070102BSLI4       010BRB BANCO   PN           R$  000000000107600000000010760000000001001000000000104500000000010590000000000976000000000105800003000000000000000300000000000000313600000000000000009999123100000010000000000000BRBSLIACNPR2194
012024070102VTRU3       010VITRUEDUCA  ON      NM   R$  000000000127900000000013280000000001272000000000129800000000013130000000001300000000000131500454000000000000065800000000000085422800000000000000009999123100000010000000000000BRVTRUACNOR3100
012024070102VULC3       010VULCABRAS   ON      NM   R$  000000000147400000000014860000000001450000000000146600000000014520000000001452000000000145903915000000000000627600000000000920610900000000000000009999123100000010000000000000BRVULCACNOR2159
012024070102VVEO3       010VIVEO       ON      NM   R$  000000000022200000000002290000000000213000000000022000000000002130000000000213000000000021803338000000000001578900000000000347464900000000000000009999123100000010000000000000BRVVEOACNOR0104
012024070102EZTC3       010EZTEC       ON      NM   R$  000000000129100000000013180000000001276000000000130200000000013000000000001296000000000130404168000000000001386700000000001805762900000000000000009999123100000010000000000000BREZTCACNOR0125
012024070102FRAS3       010FRAS-LE     ON      N1   R$  000000000195300000000019670000000001918000000000193900000000019430000000001940000000000194303057000000000000502200000000000974170400000000000000009999123100000010000000000000BRFRASACNOR0159
012024070102FRIO3       010METALFRIO   ON      NM   R$  000000003399900000000339990000000028318000000003014100000000283180000000026100000000003000000023000000000000002500000000000075354300000000000000009999123100000010000000000000BRFRIOACNOR2111
012024070102AMAR3       010LOJAS MARISAON      NM   R$  000000000013600000000001400000000000135000000000013600000000001350000000000135000000000013601734000000000000649000000000000088693100000000000000009999123100000010000000000000BRAMARACNOR4115
012024070102AMBP3       010AMBIPAR     ON      NM   R$  000000000139700000000014650000000001325000000000139800000000014650000000001460000000000146516084000000000007746200000000010829240300000000000000009999123100000010000000000000BRAMBPACNOR6103
012024070102ANIM3       010ANIMA       ON      NM   R$  000000000031500000000003250000000000311000000000031800000000003150000000000315000000000031706712000000000003467000000000001105735200000000000000009999123100000010000000000000BRANIMACNOR6107
012024070102APER3       010ALPER S.A.  ON           R$  000000000448300000000046190000000004355000000000455500000000045710000000004571000000000461900006000000000000000700000000000003188500000000000000009999123100000010000000000000BRAPERACNOR9106
012024070102ARML3       010ARMAC       ON      NM   R$  000000000100500000000010050000000000956000000000097900000000009810000000000981000000000098201643000000000000366300000000000358861400000000000000009999123100000010000000000000BRARMLACNOR1111
012024070102RCSL3       010RECRUSUL    ON           R$  000000000028300000000002880000000000279000000000028300000000002800000000000279000000000028000190000000000000076600000000000021692200000000000000009999123100000010000000000000BRRCSLACNOR4134
012024070102RCSL4       010RECRUSUL    PN           R$  000000000011800000000001240000000000116000000000011800000000001170000000000117000000000011801484000000000001393400000000000165645800000000000000009999123100000010000000000000BRRCSLACNPR1134
012024070102RDNI3       010RNI         ON      NM   R$  000000000030400000000003080000000000304000000000030400000000003040000000000303000000000030700011000000000000008300000000000002524000000000000000009999123100000010000000000000BRRDNIACNOR9116
012024070102RDOR3       010REDE D OR   ON  EJ  NM   R$  000000000266000000000027050000000002645000000000267700000000026700000000002670000000000267713149000000000005220000000000013975431600000000000000009999123100000010000000000000BRRDORACNOR8113
012024070102SNSY3       010SANSUY      ON           R$  000000000125000000000012500000000001234000000000124000000000012450000000001205000000000126000005000000000000000500000000000000620300000000000000009999123100000010000000000000BRSNSYACNOR2113
012024070102SNSY5       010SANSUY      PNA          R$  000000000059000000000005900000000000590000000000059000000000005900000000000590000000000061800004000000000000000400000000000000236000000000000000009999123100000010000000000000BRSNSYACNPA5111
012024070102SOJA3       010BOA SAFRA   ON      NM   R$  000000000148000000000015140000000001464000000000149300000000014900000000001490000000000149501972000000000000585800000000000875073300000000000000009999123100000010000000000000BRSOJAACNOR9105
012024070102SOMA3       010GRUPO SOMA  ON      NM   R$  000000000061100000000006170000000000595000000000060600000000006020000000000601000000000060311081000000000006051200000000003671578700000000000000009999123100000010000000000000BRSOMAACNOR3102
012024070102SRNA3       010SERENA      ON      NM   R$  000000000087100000000008990000000000865000000000088400000000008800000000000875000000000088204337000000000000961800000000000850664400000000000000009999123100000010000000000000BRSRNAACNOR4100
012024070102STBP3       010SANTOS BRP  ON      NM   R$  000000000137300000000013730000000001300000000000132500000000013050000000001304000000000130515578000000000007690700000000010191522800000000000000009999123100000010000000000000BRSTBPACNOR3130
012024070102SUZB3       010SUZANO S.A. ON      NM   R$  000000000571700000000057940000000005707000000000575000000000057650000000005751000000000576524709000000000007509200000000043183841300000000000000009999123100000010000000000000BRSUZBACNOR0130
012024070102RADL3       010RAIADROGASILON      NM   R$  000000000253000000000025740000000002526000000000254800000000025600000000002555000000000256011150000000000002775200000000007073790600000000000000009999123100000010000000000000BRRADLACNOR0156
012024070102RAIL3       010RUMO S.A.   ON      NM   R$  000000000205500000000020820000000002046000000000206200000000020600000000002058000000000206122598000000000010526600000000021706451100000000000000009999123100000010000000000000BRRAILACNOR9105
012024070102RAIZ4       010RAIZEN      PN      N2   R$  000000000029500000000003000000000000294000000000029700000000002980000000000297000000000029811758000000000014052700000000004176692300000000000000009999123100000010000000000000BRRAIZACNPR6110
012024070102SMFT3       010SMART FIT   ON  EJ  NM   R$  000000000219100000000022250000000002153000000000219900000000021800000000002180000000000219307010000000000002306200000000005072937400000000000000009999123100000010000000000000BRSMFTACNOR1112
012024070102SMTO3       010SAO MARTINHOON  EJ  NM   R$  000000000323300000000034400000000003221000000000336600000000034060000000003406000000000342713257000000000002578800000000008682311600000000000000009999123100000010000000000000BRSMTOACNOR3126
012024070102ENGI11      010ENERGISA    UNT     N2   R$  000000000449800000000046180000000004498000000000456800000000045600000000004559000000000456011379000000000003220800000000014712721900000000000000009999123100000010000000000000BRENGICDAM16135
012024070102ENGI3       010ENERGISA    ON      N2   R$  000000000140500000000014500000000001405000000000142600000000014500000000001410000000000149200026000000000000002800000000000003994500000000000000009999123100000010000000000000BRENGIACNOR0145
012024070102ENGI4       010ENERGISA    PN      N2   R$  000000000078300000000007900000000000776000000000078200000000007790000000000777000000000078000031000000000000006500000000000005085000000000000000009999123100000010000000000000BRENGIACNPR7141
012024070102ENJU3       010ENJOEI      ON      NM   R$  000000000020100000000002110000000000200000000000020500000000002030000000000202000000000020401692000000000000863400000000000177419400000000000000009999123100000010000000000000BRENJUACNOR9100
012024070102ENMT4       010ENERGISA MT PN           R$  000000000749000000000075100000000007400000000000746600000000075100000000005870000000000752500003000000000000000300000000000002240000000000000000009999123100000010000000000000BRENMTACNPR2125
012024070102EPAR3       010EMBPAR S/A  ON           R$  000000000063000000000006300000000000628000000000062900000000006290000000000629000000000063000025000000000000006600000000000004154300000000000000009999123100000010000000000000BREPARACNOR9105
012024070102EQPA3       010EQTL PARA   ON           R$  000000000068000000000007120000000000680000000000070300000000007070000000000700000000000070700024000000000000013900000000000009773900000000000000009999123100000010000000000000BREQPAACNOR1111
012024070102EQTL3       010EQUATORIAL  ON      NM   R$  000000000312100000000032160000000003074000000000317800000000032030000000003196000000000320363910000000000020925600000000066513458400000000000000009999123100000010000000000000BREQTLACNOR0130
012024070102ITSA3       010ITAUSA      ON  EJ  N1   R$  000000000098500000000009940000000000975000000000098600000000009750000000000974000000000098000432000000000000102900000000000101471200000000000000009999123100000010000000000000BRITSAACNOR0441
012024070102ITSA4       010ITAUSA      PN  EJ  N1   R$  000000000098000000000009910000000000972000000000098000000000009750000000000975000000000097620445000000000016583200000000016252873100000000000000009999123100000010000000000000BRITSAACNPR7441
012024070102B3SA3       010B3          ON      NM   R$  000000000102300000000010520000000001019000000000104400000000010470000000001044000000000104745996000000000048451600000000050584920800000000000000009999123100000010000000000000BRB3SAACNOR6133
012024070102BEEF3       010MINERVA     ON      NM   R$  000000000066000000000006730000000000647000000000066500000000006690000000000668000000000066909344000000000006964500000000004631600200000000000000009999123100000010000000000000BRBEEFACNOR6116
012024070102BRAP3       010BRADESPAR   ON      N1   R$  000000000179800000000018250000000001798000000000181300000000018110000000001810000000000181700409000000000000086100000000000156115300000000000000009999123100000010000000000000BRBRAPACNOR5148
012024070102BRAP4       010BRADESPAR   PN      N1   R$  000000000186800000000018940000000001863000000000188100000000018840000000001883000000000188706788000000000002174600000000004092378200000000000000009999123100000010000000000000BRBRAPACNPR2148
012024070102BRBI11      010BR PARTNERS UNT     N2   R$  000000000145000000000014500000000001416000000000142900000000014380000000001428000000000143801238000000000000246000000000000351548500000000000000009999123100000010000000000000BRBRBICDAM10109
012024070102BRFS3       010BRF SA      ON      NM   R$  000000000226900000000023090000000002235000000000228100000000023020000000002301000000000230214743000000000006777400000000015460963700000000000000009999123100000010000000000000BRBRFSACNOR8122
012024070102CSED3       010CRUZEIRO EDUON      NM   R$  000000000037500000000003810000000000368000000000037400000000003780000000000378000000000038101174000000000000950900000000000356087800000000000000009999123100000010000000000000BRCSEDACNOR9104
012024070102CSMG3       010COPASA      ON  EDJ NM   R$  000000000207500000000020770000000001988000000000201100000000019910000000001991000000000199409878000000000005784200000000011633363500000000000000009999123100000010000000000000BRCSMGACNOR5174
012024070102CSNA3       010SID NACIONALON           R$  000000000130100000000013190000000001289000000000130200000000012910000000001291000000000129212993000000000005507800000000007171927300000000000000009999123100000010000000000000BRCSNAACNOR6261
012024070102ENAT3       010ENAUTA PART ON      NM   R$  000000000221900000000022600000000002164000000000222700000000022550000000002239000000000225507631000000000001786600000000003980275300000000000000009999123100000010000000000000BRENATACNOR0104
012024070102ENEV3       010ENEVA       ON      NM   R$  000000000126300000000012870000000001254000000000127600000000012710000000001270000000000127822139000000000006864500000000008762806900000000000000009999123100000010000000000000BRENEVACNOR8106
012024070102IFCM3       010INFRACOMM   ON      NM   R$  000000000003500000000000350000000000033000000000003300000000000330000000000033000000000003401231000000000002755100000000000092207300000000000000009999123100000010000000000000BRIFCMACNOR8101
012024070102IGTI11      010IGUATEMI S.AUNT     N1   R$  000000000204600000000020930000000002033000000000207400000000020800000000002080000000000208111622000000000004016900000000008332777500000000000000009999123100000010000000000000BRIGTICDAM16106
012024070102IGTI3       010IGUATEMI S.AON      N1   R$  000000000026500000000002670000000000259000000000026200000000002620000000000262000000000026300093000000000000021900000000000005747600000000000000009999123100000010000000000000BRIGTIACNOR8106
012024070102IGTI4       010IGUATEMI S.APN      N1   R$  000000000090400000000009040000000000903000000000090300000000009030000000000903000000000108600002000000000000000300000000000000271100000000000000009999123100000010000000000000BRIGTIACNPR5106
012024070102WHRL3       010WHIRLPOOL   ON           R$  000000000045500000000004550000000000444000000000045200000000004550000000000444000000000045500009000000000000002100000000000000949900000000000000009999123100000010000000000000BRWHRLACNOR5128
012024070102WHRL4       010WHIRLPOOL   PN           R$  000000000045300000000004570000000000453000000000045300000000004550000000000455000000000045600011000000000000005600000000000002540300000000000000009999123100000010000000000000BRWHRLACNPR2128
012024070102WIZC3       010WIZ CO      ON      NM   R$  000000000057100000000005780000000000566000000000057100000000005670000000000567000000000057102184000000000000386700000000000221133400000000000000009999123100000010000000000000BRWIZCACNOR5102
012024070102WLMM4       010WLM IND COM PN           R$  000000000322000000000032200000000003200000000000321000000000032000000000003160000000000321000002000000000000000200000000000000642000000000000000009999123100000010000000000000BRWLMMACNPR3118
012024070102PFRM3       010PROFARMA    ON      NM   R$  000000000051500000000005230000000000506000000000051200000000005100000000000508000000000051000866000000000000292500000000000149802200000000000000009999123100000010000000000000BRPFRMACNOR1116
012024070102PGMN3       010PAGUE MENOS ON      NM   R$  000000000025600000000002600000000000248000000000025500000000002550000000000254000000000025601334000000000000858800000000000219193500000000000000009999123100000010000000000000BRPGMNACNOR8103
012024070102PINE3       010PINE        ON      N2   R$  000000000051800000000005180000000000471000000000048600000000005000000000000484000000000051000048000000000000009700000000000004714900000000000000009999123100000010000000000000BRPINEACNOR1149
012024070102PINE4       010PINE        PN      N2   R$  000000000041100000000004190000000000402000000000040800000000004050000000000405000000000040600847000000000000254800000000000104014300000000000000009999123100000010000000000000BRPINEACNPR8149
012024070102PLAS3       010PLASCAR PARTON           R$  000000000050000000000005000000000000500000000000050000000000005000000000000495000000000056900002000000000000000300000000000000150000000000000000009999123100000010000000000000BRPLASACNOR2106
012024070102PLPL3       010PLANOEPLANO ON      NM   R$  000000000102800000000010480000000001002000000000101900000000010020000000001001000000000101102247000000000000670100000000000683028800000000000000009999123100000010000000000000BRPLPLACNOR5104
012024070102RSUL4       010RIOSULENSE  PN           R$  000000000692700000000069270000000006704000000000678400000000067990000000006725000000000680000008000000000000000800000000000005427900000000000000009999123100000010000000000000BRRSULACNPR3114
012024070102TASA3       010TAURUS ARMASON      N2   R$  000000000120000000000012440000000001196000000000122400000000012180000000001210000000000121800108000000000000019000000000000023268400000000000000009999123100000010000000000000BRTASAACNOR7104
012024070102TASA4       010TAURUS ARMASPN      N2   R$  000000000113700000000012300000000001137000000000119500000000012030000000001200000000000120403495000000000000734900000000000878856500000000000000009999123100000010000000000000BRTASAACNPR4104
012024070102TCSA3       010TECNISA     ON      NM   R$  000000000019900000000002000000000000197000000000019900000000001990000000000196000000000020000110000000000000070000000000000013939800000000000000009999123100000010000000000000BRTCSAACNOR3112
012024070102TECN3       010TECHNOS     ON      NM   R$  000000000045400000000004950000000000447000000000048500000000004900000000000483000000000049001854000000000000589800000000000286109600000000000000009999123100000010000000000000BRTECNACNOR6109
012024070102TTEN3       0103TENTOS     ON      NM   R$  000000000098800000000010290000000000980000000000101400000000010230000000001022000000000102605755000000000001036300000000001051138200000000000000009999123100000010000000000000BRTTENACNOR0103
012024070102TUPY3       010TUPY        ON      NM   R$  000000000237500000000023780000000002321000000000234800000000023380000000002338000000000234703173000000000000588900000000001382951100000000000000009999123100000010000000000000BRTUPYACNOR1184
012024070102UCAS3       010UNICASA     ON      NM   R$  000000000021600000000002260000000000215000000000022000000000002170000000000217000000000022100135000000000000035300000000000007784600000000000000009999123100000010000000000000BRUCASACNOR1113
012024070102UGPA3       010ULTRAPAR    ON      NM   R$  000000000215700000000021870000000002144000000000216200000000021740000000002168000000000217409611000000000003054000000000006604451900000000000000009999123100000010000000000000BRUGPAACNOR8155
012024070102TAEE11      010TAESA       UNT     N2   R$  000000000342300000000034420000000003411000000000343100000000034370000000003437000000000343905366000000000001236600000000004243038900000000000000009999123100000010000000000000BRTAEECDAM10147
012024070102TAEE3       010TAESA       ON      N2   R$  000000000113500000000011400000000001130000000000113500000000011380000000001135000000000113800613000000000000122600000000000139155000000000000000009999123100000010000000000000BRTAEEACNOR9147
012024070102TAEE4       010TAESA       PN      N2   R$  000000000114600000000011580000000001142000000000114900000000011490000000001149000000000115000959000000000000254400000000000292541100000000000000009999123100000010000000000000BRTAEEACNPR6147
012024070102VBBR3       010VIBRA       ON  EJ  NM   R$  000000000205600000000020640000000001995000000000202300000000019950000000001994000000000199525066000000000007962800000000016111209500000000000000009999123100000010000000000000BRVBBRACNOR1108
012024070102SLCE3       010SLC AGRICOLAON      NM   R$  000000000176600000000018920000000001757000000000185800000000018710000000001871000000000187216337000000000007088400000000013175924600000000000000009999123100000010000000000000BRSLCEACNOR2125
012024070102VALE3       010VALE        ON      NM   R$  000000000627100000000063330000000006260000000000630500000000063140000000006314000000000631642642000000000020236800000000127607267300000000000000009999123100000010000000000000BRVALEACNOR0210
012024070102SBSP3       010SABESP      ON      NM   R$  000000000740100000000079100000000007373000000000775700000000078150000000007810000000000782536774000000000010928600000000084783906400000000000000009999123100000010000000000000BRSBSPACNOR5161
012024070102SCAR3       010SAO CARLOS  ON      NM   R$  000000000238000000000023800000000002282000000000230800000000022900000000002290000000000231900138000000000000029300000000000067645900000000000000009999123100000010000000000000BRSCARACNOR7131
012024070102DXCO3       010DEXCO       ON      NM   R$  000000000065600000000006650000000000645000000000065400000000006510000000000650000000000065106805000000000003398300000000002222618300000000000000009999123100000010000000000000BRDXCOACNOR8105
012024070102PETZ3       010PETZ        ON      NM   R$  000000000036200000000003880000000000358000000000037600000000003700000000000370000000000037208069000000000008327700000000003137398600000000000000009999123100000010000000000000BRPETZACNOR2110
012024070102FESA4       010FERBASA     PN      N1   R$  000000000080500000000008150000000000797000000000080300000000008020000000000801000000000080202600000000000000610600000000000490672800000000000000009999123100000010000000000000BRFESAACNPR5084
012024070102FHER3       010FER HERINGERON      NM   R$  000000000038000000000003820000000000380000000000038100000000003810000000000378000000000038100008000000000000001900000000000000725200000000000000009999123100000010000000000000BRFHERACNOR5103
012024070102FIQE3       010UNIFIQUE    ON      NM   R$  000000000034600000000003520000000000343000000000034800000000003450000000000344000000000034901086000000000000460800000000000160598800000000000000009999123100000010000000000000BRFIQEACNOR5107
012024070102ITUB3       010ITAUUNIBANCOON  EJ  N1   R$  000000000280900000000028230000000002782000000000279900000000027870000000002785000000000279001012000000000000214600000000000600846900000000000000009999123100000010000000000000BRITUBACNOR4338
012024070102ITUB4       010ITAUUNIBANCOPN  EJ  N1   R$  000000000323800000000032660000000003217000000000323700000000032240000000003224000000000322529262000000000015617100000000050565149900000000000000009999123100000010000000000000BRITUBACNPR1338
012024070102AALR3       010ALLIAR      ON      NM   R$  000000000104200000000010810000000001030000000000105100000000010700000000001051000000000107000120000000000000026500000000000027854700000000000000009999123100000010000000000000BRAALRACNOR6102
012024070102ABCB4       010ABC BRASIL  PN  EJ  N2   R$  000000000214600000000021530000000002084000000000212500000000021120000000002111000000000211904974000000000001051000000000002233436300000000000000009999123100000010000000000000BRABCBACNPR4146
012024070102ABEV3       010AMBEV S/A   ON           R$  000000000114200000000011500000000001133000000000114200000000011450000000001143000000000114623051000000000019515400000000022292836500000000000000009999123100000010000000000000BRABEVACNOR1127
012024070102BBDC3       010BRADESCO    ON      N1   R$  000000000112300000000011280000000001109000000000111800000000011110000000001111000000000111208666000000000007584100000000008483312900000000000000009999123100000010000000000000BRBBDCACNOR1771
012024070102BBDC4       010BRADESCO    PN      N1   R$  000000000124300000000012480000000001223000000000123200000000012270000000001226000000000122724446000000000018567800000000022892865300000000000000009999123100000010000000000000BRBBDCACNPR8771
012024070102CGRA3       010GRAZZIOTIN  ON  EJ       R$  000000000253600000000025360000000002534000000000253500000000025340000000002483000000000253400003000000000000000400000000000001014200000000000000009999123100000010000000000000BRCGRAACNOR2083
012024070102CGRA4       010GRAZZIOTIN  PN  EJ       R$  000000000251500000000025610000000002515000000000254800000000025610000000002559000000000256100031000000000000004400000000000011212800000000000000009999123100000010000000000000BRCGRAACNPR9083
012024070102CIEL3       010CIELO       ON      NM   R$  000000000056300000000005650000000000563000000000056400000000005650000000000564000000000056507400000000000016486600000000009301407900000000000000009999123100000010000000000000BRCIELACNOR3157
012024070102MILS3       010MILLS       ON  EJ  NM   R$  000000000105500000000010550000000001025000000000103700000000010280000000001028000000000103703060000000000000955800000000000991467100000000000000009999123100000010000000000000BRMILSACNOR2127
012024070102MLAS3       010MULTILASER  ON      NM   R$  000000000019600000000001960000000000190000000000019200000000001910000000000191000000000019203670000000000002867700000000000551152600000000000000009999123100000010000000000000BRMLASACNOR9101
012024070102MNDL3       010MUNDIAL     ON           R$  000000000129800000000013300000000001290000000000130000000000013300000000001255000000000133000013000000000000006700000000000008713800000000000000009999123100000010000000000000BRMNDLACNOR4109
012024070102MNPR3       010MINUPAR     ON           R$  000000000119000000000013000000000001160000000000119800000000012250000000001204000000000127800041000000000000013500000000000016175300000000000000009999123100000010000000000000BRMNPRACNOR5122
012024070102MOVI3       010MOVIDA      ON      NM   R$  000000000060200000000006190000000000595000000000060500000000005990000000000599000000000060006164000000000003918700000000002373338100000000000000009999123100000010000000000000BRMOVIACNOR0122
012024070102BEES3       010BANESTES    ON  EJ       R$  000000000089700000000009200000000000896000000000090700000000009150000000000905000000000091500108000000000000018500000000000016783000000000000000009999123100000010000000000000BRBEESACNOR9392
012024070102BEES4       010BANESTES    PN  EJ       R$  000000000097400000000009890000000000969000000000097700000000009850000000000975000000000099900046000000000000006900000000000006744900000000000000009999123100000010000000000000BRBEESACNPR6317
012024070102CLSA3       010CLEARSALE   ON      NM   R$  000000000073300000000007610000000000717000000000074400000000007430000000000743000000000074403243000000000001251800000000000932165300000000000000009999123100000010000000000000BRCLSAACNOR0100
012024070102CLSC3       010CELESC      ON  EJ  N2   R$  000000000694800000000071000000000006948000000000706100000000070150000000007000000000000799700005000000000000001400000000000009885900000000000000009999123100000010000000000000BRCLSCACNOR6152
012024070102CLSC4       010CELESC      PN  EJ  N2   R$  000000000725900000000080980000000007259000000000785200000000073320000000007331000000000743500130000000000000021300000000000167267200000000000000009999123100000010000000000000BRCLSCACNPR3131
012024070102CMIG3       010CEMIG       ON  EJ  N1   R$  000000000122500000000012580000000001214000000000123900000000012540000000001248000000000125801169000000000000238700000000000295885600000000000000009999123100000010000000000000BRCMIGACNOR6242
012024070102CMIG4       010CEMIG       PN  EJ  N1   R$  000000000099000000000010220000000000983000000000100800000000010200000000001017000000000102044765000000000019535200000000019695548200000000000000009999123100000010000000000000BRCMIGACNPR3243
012024070102CMIN3       010CSNMINERACAOON      N2   R$  000000000052900000000005500000000000526000000000054000000000005450000000000545000000000054614052000000000015961700000000008622675500000000000000009999123100000010000000000000BRCMINACNOR2111
012024070102GGPS3       010GPS         ON      NM   R$  000000000172700000000017290000000001681000000000169700000000016890000000001687000000000169306354000000000002443700000000004149369500000000000000009999123100000010000000000000BRGGPSACNOR9103
012024070102GMAT3       010GRUPO MATEUSON      NM   R$  000000000069200000000006940000000000680000000000068700000000006840000000000683000000000068406484000000000003681700000000002531388600000000000000009999123100000010000000000000BRGMATACNOR7102
012024070102GOAU3       010GERDAU MET  ON      N1   R$  000000000107000000000010820000000001066000000000107500000000010770000000001072000000000107700170000000000000033800000000000036352300000000000000009999123100000010000000000000BRGOAUACNOR1267
012024070102HBSA3       010HIDROVIAS   ON      NM   R$  000000000037200000000003720000000000365000000000036900000000003700000000000370000000000037309031000000000003300900000000001220779300000000000000009999123100000010000000000000BRHBSAACNOR0100
012024070102HETA4       010HERCULES    PN           R$  000000000053600000000005360000000000530000000000053200000000005300000000000527000000000063200003000000000000000300000000000000159700000000000000009999123100000010000000000000BRHETAACNPR9136
012024070102JALL3       010JALLESMACHADON      NM   R$  000000000069400000000007470000000000687000000000072800000000007470000000000746000000000074804250000000000002537500000000001847724700000000000000009999123100000010000000000000BRJALLACNOR0105
012024070102JBSS3       010JBS         ON      NM   R$  000000000322400000000033030000000003216000000000327700000000032670000000003266000000000326718587000000000006116400000000020044761800000000000000009999123100000010000000000000BRJBSSACNOR8121
012024070102MTRE3       010MITRE REALTYON  ED  NM   R$  000000000035400000000003590000000000348000000000035300000000003550000000000355000000000035601458000000000000739100000000000261179700000000000000009999123100000010000000000000BRMTREACNOR6112
012024070102MTSA4       010METISA      PN           R$  000000000445000000000044500000000004200000000000441500000000044480000000004200000000000444800019000000000000002900000000000012803500000000000000009999123100000010000000000000BRMTSAACNPR9072
012024070102MULT3       010MULTIPLAN   ON  EJ  N2   R$  000000000224200000000022960000000002241000000000227400000000022580000000002258000000000226411238000000000003605600000000008199478500000000000000009999123100000010000000000000BRMULTACNOR5139
012024070102MYPK3       010IOCHP-MAXIONON      NM   R$  000000000117600000000011890000000001169000000000117600000000011730000000001172000000000117304641000000000001025500000000001206777100000000000000009999123100000010000000000000BRMYPKACNOR7154
012024070102HYPE3       010HYPERA      ON  EJ  NM   R$  000000000282300000000029050000000002798000000000286200000000028940000000002884000000000289513390000000000006463700000000018500533100000000000000009999123100000010000000000000BRHYPEACNOR0142
012024070102AERI3       010AERIS       ON      NM   R$  000000000051000000000005240000000000505000000000051500000000005170000000000513000000000051700453000000000000145500000000000075060500000000000000009999123100000010000000000000BRAERIACNOR4102
012024070102AESB3       010AES BRASIL  ON      NM   R$  000000000113800000000011400000000001135000000000113700000000011360000000001136000000000113703321000000000004315700000000004909295700000000000000009999123100000010000000000000BRAESBACNOR7106
012024070102AFLT3       010AFLUENTE T  ON  EJ       R$  000000000072000000000007200000000000719000000000071900000000007190000000000719000000000073900002000000000000000300000000000000215900000000000000009999123100000010000000000000BRAFLTACNOR1122
012024070102AGRO3       010BRASILAGRO  ON      NM   R$  000000000256400000000026090000000002548000000000258000000000025780000000002577000000000258301601000000000000234500000000000605080700000000000000009999123100000010000000000000BRAGROACNOR7114
012024070102AGXY3       010AGROGALAXY  ON      NM   R$  000000000010500000000001130000000000105000000000011000000000001120000000000112000000000011300462000000000000425400000000000046908800000000000000009999123100000010000000000000BRAGXYACNOR4103
012024070102VITT3       010VITTIA      ON      NM   R$  000000000058100000000006120000000000580000000000060100000000006050000000000604000000000061101785000000000000338100000000000203388800000000000000009999123100000010000000000000BRVITTACNOR4107
012024070102VIVA3       010VIVARA S.A. ON      NM   R$  000000000207900000000021190000000002070000000000210400000000021010000000002101000000000211109320000000000002743500000000005773519700000000000000009999123100000010000000000000BRVIVAACNOR0107
012024070102VIVR3       010VIVER       ON      NM   R$  000000000023200000000002410000000000232000000000023600000000002410000000000237000000000024100098000000000000028800000000000006821900000000000000009999123100000010000000000000BRVIVRACNOR4123
012024070102VIVT3       010TELEF BRASILON  EJ       R$  000000000451900000000046020000000004502000000000456200000000045890000000004585000000000458920046000000000005004400000000022833260900000000000000009999123100000010000000000000BRVIVTACNOR0182
012024070102MRFG3       010MARFRIG     ON      NM   R$  000000000124700000000012680000000001225000000000125400000000012570000000001256000000000125820832000000000006214500000000007794685000000000000000009999123100000010000000000000BRMRFGACNOR0116
012024070102RECV3       010PETRORECSA  ON      NM   R$  000000000187200000000019550000000001844000000000192400000000019310000000001928000000000193110644000000000004605200000000008861536900000000000000009999123100000010000000000000BRRECVACNOR3107
012024070102REDE3       010REDE ENERGIAON           R$  000000000065900000000006630000000000658000000000066000000000006630000000000659000000000066300016000000000000002700000000000001783300000000000000009999123100000010000000000000BRREDEACNOR7127
012024070102RENT3       010LOCALIZA    ON  EJS NM   R$  000000000418600000000043110000000004165000000000423000000000041770000000004176000000000418829066000000000009860900000000041720073200000000000000009999123100000010000000000000BRRENTACNOR4196
012024070102VAMO3       010VAMOS       ON      NM   R$  000000000075600000000007680000000000747000000000076100000000007620000000000760000000000076209160000000000003700100000000002816203800000000000000009999123100000010000000000000BRVAMOACNOR7105
012024070102RANI3       010IRANI       ON      NM   R$  000000000085000000000008750000000000840000000000086400000000008620000000000862000000000086503775000000000001798600000000001555396900000000000000009999123100000010000000000000BRRANIACNOR5072
012024070102PCAR3       010P.ACUCAR-CBDON      NM   R$  000000000027100000000002730000000000262000000000026600000000002620000000000262000000000026309576000000000016490700000000004387328200000000000000009999123100000010000000000000BRPCARACNOR3167
012024070102PDGR3       010PDG REALT   ON      NM   R$  000000000001800000000000190000000000017000000000001800000000000180000000000017000000000001800239000000000001300800000000000023500400000000000000009999123100000010000000000000BRPDGRACNOR8118
012024070102PDTC3       010PADTEC      ON      NM   R$  000000000019500000000002010000000000192000000000019700000000001980000000000198000000000019900045000000000000012300000000000002432700000000000000009999123100000010000000000000BRPDTCACNOR3101
012024070102PEAB3       010PAR AL BAHIAON           R$  000000000450500000000045050000000004505000000000450500000000045050000000000000000000000499000002000000000000000800000000000003604000000000000000009999123100000010000000000000BRPEABACNOR3133
012024070102PEAB4       010PAR AL BAHIAPN           R$  000000000498500000000050840000000004985000000000502600000000050800000000004500000000000571100006000000000000001000000000000005026700000000000000009999123100000010000000000000BRPEABACNPR0133
012024070102PETR3       010PETROBRAS   ON      N2   R$  000000000405200000000041180000000004040000000000408900000000040870000000004086000000000408712677000000000006075800000000024847281400000000000000009999123100000010000000000000BRPETRACNOR9205
012024070102PETR4       010PETROBRAS   PN      N2   R$  000000000383100000000038760000000003818000000000385400000000038630000000003862000000000386361746000000000024963500000000096231532500000000000000009999123100000010000000000000BRPETRACNPR6213
012024070102BMOB3       010BEMOBI TECH ON      NM   R$  000000000135400000000013540000000001320000000000133000000000013280000000001325000000000132901295000000000000479000000000000637296700000000000000009999123100000010000000000000BRBMOBACNOR7103
012024070102BOBR4       010BOMBRIL     PN           R$  000000000020000000000002060000000000200000000000020300000000002050000000000201000000000020500022000000000000003800000000000000772300000000000000009999123100000010000000000000BRBOBRACNPR3128
012024070102LAVV3       010LAVVI       ON      NM   R$  000000000086300000000008700000000000846000000000085700000000008490000000000845000000000084903883000000000000782800000000000670970600000000000000009999123100000010000000000000BRLAVVACNOR4112
012024070102LEVE3       010METAL LEVE  ON      NM   R$  000000000326500000000032700000000003160000000000320700000000031600000000003160000000000316804562000000000000775600000000002487627500000000000000009999123100000010000000000000BRLEVEACNOR2197
012024070102LJQQ3       010QUERO-QUERO ON      NM   R$  000000000037200000000003800000000000366000000000037400000000003700000000000369000000000037005133000000000003928200000000001469206600000000000000009999123100000010000000000000BRLJQQACNOR5104
012024070102LOGG3       010LOG COM PROPON      NM   R$  000000000233500000000023570000000002294000000000233000000000023180000000002318000000000235001655000000000000226000000000000526691800000000000000009999123100000010000000000000BRLOGGACNOR7107
012024070102GOAU4       010GERDAU MET  PN      N1   R$  000000000106900000000010710000000001056000000000106500000000010690000000001068000000000106908243000000000003678700000000003918222200000000000000009999123100000010000000000000BRGOAUACNPR8268
012024070102GRND3       010GRENDENE    ON      NM   R$  000000000057600000000005820000000000573000000000057700000000005750000000000575000000000057803433000000000001258600000000000727293400000000000000009999123100000010000000000000BRGRNDACNOR3174
012024070102GSHP3       010GENERALSHOPPON           R$  000000000105000000000010500000000001050000000000105000000000010500000000001050000000000149200001000000000000000100000000000000105000000000000000009999123100000010000000000000BRGSHPACNOR7102
012024070102GUAR3       010GUARARAPES  ON      NM   R$  000000000069000000000006910000000000651000000000066600000000006510000000000650000000000065307650000000000002205100000000001468728300000000000000009999123100000010000000000000BRGUARACNOR4173
012024070102CAMB3       010CAMBUCI     ON           R$  000000000105200000000010520000000001025000000000103400000000010300000000001030000000000103200143000000000000045800000000000047380400000000000000009999123100000010000000000000BRCAMBACNOR4130
012024070102CAML3       010CAMIL       ON      NM   R$  000000000082400000000008420000000000810000000000083100000000008330000000000830000000000083403793000000000000900000000000000748125800000000000000009999123100000010000000000000BRCAMLACNOR3128
012024070102CASH3       010MELIUZ      ON      NM   R$  000000000059400000000005950000000000555000000000056700000000005550000000000555000000000055806889000000000003744300000000002123526800000000000000009999123100000010000000000000BRCASHACNOR8106
012024070102CBAV3       010CBA         ON      NM   R$  000000000069600000000007080000000000680000000000069100000000006870000000000686000000000068705799000000000002357400000000001629108600000000000000009999123100000010000000000000BRCBAVACNOR5104
012024070102CBEE3       010AMPLA ENERG ON           R$  000000000100000000000010000000000000990000000000099500000000009900000000000980000000000102000002000000000000000200000000000000199000000000000000009999123100000010000000000000BRCBEEACNOR3159
012024070102CCRO3       010CCR SA      ON      NM   R$  000000000116300000000011750000000001147000000000115700000000011470000000001147000000000115110445000000000004520100000000005233973900000000000000009999123100000010000000000000BRCCROACNOR2145
012024070102CEAB3       010CEA MODAS   ON      NM   R$  000000000093600000000009480000000000918000000000093500000000009360000000000931000000000093706763000000000001954600000000001828552300000000000000009999123100000010000000000000BRCEABACNOR1102
012024070102CEBR3       010CEB         ON           R$  000000000209700000000020970000000002032000000000205700000000020470000000002047000000000208000023000000000000003200000000000006584200000000000000009999123100000010000000000000BRCEBRACNOR5125
012024070102CEBR5       010CEB         PNA          R$  000000000184000000000018400000000001795000000000180200000000017950000000001795000000000182600017000000000000002800000000000005047800000000000000009999123100000010000000000000BRCEBRACNPA8124
012024070102CEBR6       010CEB         PNB          R$  000000000196300000000019950000000001948000000000197100000000019580000000001940000000000195800025000000000000006600000000000013010900000000000000009999123100000010000000000000BRCEBRACNPB6124
012024070102CEDO4       010CEDRO       PN      N1   R$  000000000224100000000022410000000002241000000000224100000000022410000000002241000000000235000002000000000000000200000000000000448200000000000000009999123100000010000000000000BRCEDOACNPR5128
012024070102ALLD3       010ALLIED      ON      NM   R$  000000000074500000000007490000000000730000000000073800000000007400000000000733000000000074000548000000000000100900000000000074466300000000000000009999123100000010000000000000BRALLDACNOR3106
012024070102ALOS3       010ALLOS       ON      NM   R$  000000000209600000000021290000000002090000000000211200000000021080000000002108000000000211307903000000000001991300000000004207183000000000000000009999123100000010000000000000BRALOSACNOR5101
012024070102ALPA3       010ALPARGATAS  ON      N1   R$  000000000097500000000009840000000000957000000000096700000000009600000000000960000000000099300004000000000000000500000000000000483600000000000000009999123100000010000000000000BRALPAACNOR0231
012024070102ALPA4       010ALPARGATAS  PN      N1   R$  000000000091300000000009200000000000897000000000090600000000009040000000000904000000000090707363000000000002900100000000002628237600000000000000009999123100000010000000000000BRALPAACNPR7232
012024070102ALPK3       010ESTAPAR     ON      NM   R$  000000000033400000000003370000000000308000000000032000000000003180000000000311000000000031901511000000000000303800000000000097316300000000000000009999123100000010000000000000BRALPKACNOR9101
012024070102ALUP11      010ALUPAR      UNT     N2   R$  000000000299000000000030160000000002958000000000299500000000030060000000002995000000000300602800000000000000663600000000001987602700000000000000009999123100000010000000000000BRALUPCDAM15119
012024070102ALUP3       010ALUPAR      ON      N2   R$  000000000100400000000010170000000000992000000000100500000000010170000000001007000000000101800062000000000000009600000000000009655900000000000000009999123100000010000000000000BRALUPACNOR8119
012024070102ALUP4       010ALUPAR      PN      N2   R$  000000000099600000000010000000000000976000000000099100000000010000000000000995000000000100000103000000000000023000000000000022812200000000000000009999123100000010000000000000BRALUPACNPR5119
012024070102COCE5       010COELCE      PNA          R$  000000000302300000000030520000000002957000000000299100000000029570000000002957000000000302700163000000000000022600000000000067610200000000000000009999123100000010000000000000BRCOCEACNPA3147
012024070102COGN3       010COGNA ON    ON      NM   R$  000000000017800000000001840000000000176000000000018000000000001790000000000178000000000017913351000000000037318800000000006734067200000000000000009999123100000010000000000000BRCOGNACNOR2104
012024070102BPAN4       010BANCO PAN   PN      N1   R$  000000000081000000000008150000000000799000000000080600000000008010000000000800000000000080306218000000000001817000000000001465556400000000000000009999123100000010000000000000BRBPANACNPR1115
012024070102CRFB3       010CARREFOUR BRON      NM   R$  000000000090100000000009200000000000888000000000090300000000009030000000000903000000000090420189000000000008453500000000007636497800000000000000009999123100000010000000000000BRCRFBACNOR2116
012024070102CRPG5       010CRISTAL     PNA          R$  000000000294000000000029480000000002914000000000292200000000029160000000002916000000000294000011000000000000002100000000000006136200000000000000009999123100000010000000000000BRCRPGACNPA3119
012024070102CRPG6       010CRISTAL     PNB          R$  000000000290100000000029490000000002900000000000291000000000029490000000002901000000000299400003000000000000000500000000000001455000000000000000009999123100000010000000000000BRCRPGACNPB1119
012024070102CSAN3       010COSAN       ON      NM   R$  000000000135300000000013810000000001349000000000136200000000013590000000001358000000000135917102000000000018338200000000024988963500000000000000009999123100000010000000000000BRCSANACNOR6126
012024070102ELMD3       010ELETROMIDIA ON      NM   R$  000000000175000000000017950000000001729000000000175800000000017560000000001749000000000175600625000000000000086200000000000151606100000000000000009999123100000010000000000000BRELMDACNOR3101
012024070102EMAE4       010EMAE        PN           R$  000000000475700000000047570000000004740000000000474800000000047570000000004700000000000475700003000000000000000400000000000001899400000000000000009999123100000010000000000000BREMAEACNPR1125
012024070102EMBR3       010EMBRAER     ON      NM   R$  000000000362500000000036700000000003570000000000362800000000036700000000003667000000000367019639000000000004988300000000018098160100000000000000009999123100000010000000000000BREMBRACNOR4191
012024070102LOGN3       010LOG-IN      ON      NM   R$  000000000352000000000036840000000003489000000000360400000000036010000000003591000000000360100315000000000000034000000000000122557100000000000000009999123100000010000000000000BRLOGNACNOR3105
012024070102LPSB3       010LOPES BRASILON      NM   R$  000000000018500000000001860000000000179000000000018200000000001810000000000181000000000018200170000000000000049100000000000008951500000000000000009999123100000010000000000000BRLPSBACNOR0114
012024070102LREN3       010LOJAS RENNERON  EJ  NM   R$  000000000124400000000012600000000001227000000000124600000000012460000000001246000000000124716586000000000008466500000000010549913700000000000000009999123100000010000000000000BRLRENACNOR1221
012024070102LUPA3       010LUPATECH    ON      NM   R$  000000000015800000000001580000000000154000000000015400000000001540000000000153000000000015600139000000000000128300000000000019835600000000000000009999123100000010000000000000BRLUPAACNOR8112
012024070102LVTC3       010WDC NETWORKSON      NM   R$  000000000034200000000003570000000000342000000000034600000000003440000000000344000000000034700038000000000000011100000000000003844500000000000000009999123100000010000000000000BRLVTCACNOR4102
012024070102LWSA3       010LWSA        ON      NM   R$  000000000040600000000004060000000000398000000000040000000000003990000000000399000000000040007726000000000004338100000000001739272200000000000000009999123100000010000000000000BRLWSAACNOR8103
012024070102HAGA3       010HAGA S/A    ON           R$  000000000026300000000002800000000000257000000000026500000000002600000000000252000000000026000012000000000000001500000000000000398200000000000000009999123100000010000000000000BRHAGAACNOR7103
012024070102HAGA4       010HAGA S/A    PN           R$  000000000011400000000001150000000000113000000000011300000000001140000000000114000000000011500024000000000000017400000000000001982800000000000000009999123100000010000000000000BRHAGAACNPR4103
012024070102HAPV3       010HAPVIDA     ON      NM   R$  000000000038300000000003870000000000375000000000038000000000003760000000000375000000000037718878000000000050127300000000019061153200000000000000009999123100000010000000000000BRHAPVACNOR4114
012024070102JHSF3       010JHSF PART   ON  ED  NM   R$  000000000039200000000003990000000000392000000000039500000000003950000000000394000000000039605350000000000002695300000000001065290800000000000000009999123100000010000000000000BRJHSFACNOR2137
012024070102ODPV3       010ODONTOPREV  ON  EJ  NM   R$  000000000114100000000011590000000001125000000000114800000000011580000000001155000000000115902746000000000000815000000000000936083900000000000000009999123100000010000000000000BRODPVACNOR4202
012024070102OFSA3       010OUROFINO S/AON      NM   R$  000000000187100000000018850000000001871000000000188400000000018850000000001884000000000190900004000000000000004200000000000007913700000000000000009999123100000010000000000000BROFSAACNOR7118
012024070102ONCO3       010ONCOCLINICASON      NM   R$  000000000061400000000006210000000000593000000000060500000000005930000000000593000000000059502304000000000001674200000000001014155800000000000000009999123100000010000000000000BRONCOACNOR6101
012024070102OPCT3       010OCEANPACT   ON      NM   R$  000000000064300000000006500000000000632000000000063900000000006380000000000632000000000063800888000000000000296400000000000189650100000000000000009999123100000010000000000000BROPCTACNOR0100
012024070102ORVR3       010ORIZON      ON      NM   R$  000000000389800000000039510000000003844000000000392300000000038850000000003881000000000389503765000000000000906200000000003555622100000000000000009999123100000010000000000000BRORVRACNOR0101
012024070102RAPT3       010RANDON PART ON      N1   R$  000000000092600000000009540000000000920000000000093200000000009540000000000944000000000095400119000000000000031900000000000029745600000000000000009999123100000010000000000000BRRAPTACNOR7162
012024070102RAPT4       010RANDON PART PN      N1   R$  000000000109800000000011440000000001082000000000111800000000011380000000001134000000000113911425000000000009030400000000010100811200000000000000009999123100000010000000000000BRRAPTACNPR4162
012024070102AZUL4       010AZUL        PN      N2   R$  000000000073500000000007420000000000721000000000073300000000007300000000000729000000000073011008000000000013772600000000010102620300000000000000009999123100000010000000000000BRAZULACNPR4102
012024070102BBSE3       010BBSEGURIDADEON      NM   R$  000000000329800000000033120000000003277000000000328900000000032820000000003282000000000328310935000000000003226000000000010612952300000000000000009999123100000010000000000000BRBBSEACNOR5124
012024070102BPAC11      010BTGP BANCO  UNT     N2   R$  000000000309800000000031520000000003070000000000310400000000031200000000003107000000000312025670000000000034507700000000107117191200000000000000009999123100000010000000000000BRBPACUNT006118
012024070102BPAC3       010BTGP BANCO  ON      N2   R$  000000000155700000000015600000000001528000000000153900000000015330000000001532000000000154900062000000000000006500000000000010009300000000000000009999123100000010000000000000BRBPACACNOR7133
012024070102BPAC5       010BTGP BANCO  PNA     N2   R$  000000000078600000000008000000000000771000000000078500000000007800000000000777000000000078700093000000000000015600000000000012254600000000000000009999123100000010000000000000BRBPACACNPA0133
012024070102MDIA3       010M.DIASBRANCOON      NM   R$  000000000293400000000029410000000002837000000000287600000000028370000000002837000000000285104771000000000001223700000000003519501400000000000000009999123100000010000000000000BRMDIAACNOR7135
012024070102MDNE3       010MOURA DUBEUXON      NM   R$  000000000112100000000011780000000001108000000000115700000000011490000000001146000000000115004488000000000000862200000000000998401500000000000000009999123100000010000000000000BRMDNEACNOR9100
012024070102MEAL3       010IMC S/A     ON      NM   R$  000000000012600000000001300000000000125000000000012700000000001280000000000127000000000012800888000000000000780600000000000099878300000000000000009999123100000010000000000000BRMEALACNOR9105
012024070102MELK3       010MELNICK     ON      NM   R$  000000000034800000000003530000000000340000000000034900000000003460000000000346000000000034900751000000000000245300000000000085618500000000000000009999123100000010000000000000BRMELKACNOR8111
012024070102MGEL4       010MANGELS INDLPN           R$  000000000128400000000012840000000001284000000000128400000000012840000000001280000000000132800001000000000000000100000000000000128400000000000000009999123100000010000000000000BRMGELACNPR3147
012024070102MGLU3       010MAGAZ LUIZA ON      NM   R$  000000000120200000000012290000000001188000000000121500000000012140000000001214000000000121516344000000000016498900000000020062462600000000000000009999123100000010000000000000BRMGLUACNOR2124
012024070102PRNR3       010PRINER      ON      NM   R$  000000000108000000000010800000000001045000000000105900000000010610000000001061000000000106201307000000000000294200000000000311826500000000000000009999123100000010000000000000BRPRNRACNOR4109
012024070102PSSA3       010PORTO SEGUROON  EJ  NM   R$  000000000307000000000030790000000003041000000000306400000000030570000000003056000000000305704236000000000000833600000000002554155900000000000000009999123100000010000000000000BRPSSAACNOR7155
012024070102PTBL3       010PORTOBELLO  ON      NM   R$  000000000046500000000004760000000000453000000000046400000000004610000000000461000000000046401788000000000000635700000000000295440600000000000000009999123100000010000000000000BRPTBLACNOR8132
012024070102PTNT3       010PETTENATI   ON           R$  000000000096000000000009760000000000960000000000096800000000009760000000000942000000000097500002000000000000000200000000000000193600000000000000009999123100000010000000000000BRPTNTACNOR6042
012024070102PTNT4       010PETTENATI   PN           R$  000000000060000000000006090000000000600000000000060400000000006090000000000592000000000060900009000000000000001200000000000000725700000000000000009999123100000010000000000000BRPTNTACNPR3047
012024070102TOTS3       010TOTVS       ON      NM   R$  000000000302900000000030330000000002978000000000299700000000029890000000002981000000000299010609000000000001658800000000004972717700000000000000009999123100000010000000000000BRTOTSACNOR8144
012024070102TPIS3       010TRIUNFO PARTON      NM   R$  000000000038200000000004120000000000375000000000039400000000004010000000000395000000000040100799000000000000132900000000000052486700000000000000009999123100000010000000000000BRTPISACNOR8118
012024070102TRAD3       010TC          ON      NM   R$  000000000005200000000000530000000000047000000000004900000000000480000000000047000000000004801755000000000002659000000000000131725700000000000000009999123100000010000000000000BRTRADACNOR3101
012024070102TRIS3       010TRISUL      ON      NM   R$  000000000048300000000004880000000000475000000000048000000000004830000000000477000000000048301167000000000000470400000000000226028800000000000000009999123100000010000000000000BRTRISACNOR4118
012024070102VLID3       010VALID       ON      NM   R$  000000000152500000000015280000000001477000000000150400000000015150000000001505000000000151503537000000000000625500000000000941280500000000000000009999123100000010000000000000BRVLIDACNOR5143
012024070102VSTE3       010VESTE       ON      NM   R$  000000000170800000000017080000000001630000000000167200000000016300000000001630000000000165000104000000000000014600000000000024419100000000000000009999123100000010000000000000BRVSTEACNOR5103
012024070107NUTR3       010NUTRIPLANT  ON      MA   R$  000000000049800000000005150000000000498000000000050900000000004990000000000499000000000051000020000000000000003900000000000001985700000000000000009999123100000010000000000000BRNUTRACNOR0104
012024070108CTNM4       010COTEMINAS   PN           R$  000000000006500000000000650000000000065000000000006500000000000650000000000065000000000007300015000000000000072400000000000004706000000000000000009999123100000010000000000000BRCTNMACNPR6129
012024070108CTSA3       010SANTANENSE  ON           R$  000000000022400000000002260000000000220000000000022400000000002200000000000218000000000022000010000000000000002000000000000000448600000000000000009999123100000010000000000000BRCTSAACNOR3062
012024070108CTSA4       010SANTANENSE  PN           R$  000000000008000000000000830000000000080000000000008100000000000810000000000081000000000008300007000000000000002000000000000000162300000000000000009999123100000010000000000000BRCTSAACNPR0062
012024070108ATMP3       010ATMASA      ON           R$  000000000019300000000001980000000000181000000000018500000000001810000000000181000000000018200082000000000000037300000000000006921400000000000000009999123100000010000000000000BRATMPACNOR8100
012024070108RNEW11      010RENOVA      UNT     N2   R$  000000000027100000000002710000000000271000000000027100000000002710000000000271000000000027400002000000000000000200000000000000054200000000000000009999123100000010000000000000BRRNEWCDAM15110
012024070108RNEW3       010RENOVA      ON      N2   R$  000000000009000000000000940000000000089000000000008900000000000910000000000091000000000009200046000000000000030700000000000002761800000000000000009999123100000010000000000000BRRNEWACNOR8110
012024070108RNEW4       010RENOVA      PN      N2   R$  000000000009100000000000930000000000089000000000009000000000000910000000000090000000000009200072000000000000067800000000000006156500000000000000009999123100000010000000000000BRRNEWACNPR5110
012024070108RPMG3       010PET MANGUINHON           R$  000000000025900000000002650000000000247000000000026100000000002630000000000258000000000026300234000000000000123300000000000032215500000000000000009999123100000010000000000000BRRPMGACNOR9194
012024070108SGPS3       010SPRINGS     ON      NM   R$  000000000003700000000000370000000000037000000000003700000000000370000000000036000000000003700031000000000000029500000000000001091500000000000000009999123100000010000000000000BRSGPSACNOR4104
012024070108NEXP3       010NEXPE       ON           R$  000000000043200000000004320000000000417000000000042000000000004180000000000416000000000043600005000000000000000600000000000000252100000000000000009999123100000010000000000000BRNEXPACNOR0101
012024070108ETER3       010ETERNIT     ON      NM   R$  000000000059800000000005980000000000588000000000059200000000005910000000000588000000000059100455000000000000158800000000000094038900000000000000009999123100000010000000000000BRETERACNOR3243
012024070108TEKA3       010TEKA        ON           R$  000000000425000000000042500000000004250000000000425000000000042500000000002400000000000580000001000000000000000100000000000000425000000000000000009999123100000010000000000000BRTEKAACNOR6140
012024070108AMER3       010AMERICANAS  ON      NM   R$  000000000003900000000000410000000000038000000000003900000000000400000000000040000000000004102773000000000015712600000000000622684700000000000000009999123100000010000000000000BRAMERACNOR6102
012024070108BDLL4       010BARDELLA    PN           R$  000000000092000000000009500000000000900000000000091100000000009500000000000905000000000100000003000000000000000600000000000000547000000000000000009999123100000010000000000000BRBDLLACNPR8151
012024070108PMAM3       010PARANAPANEMAON      NM   R$  000000000023800000000002420000000000232000000000023500000000002350000000000234000000000023600183000000000000073600000000000017335300000000000000009999123100000010000000000000BRPMAMACNOR3039
012024070108RSID3       010ROSSI RESID ON      NM   R$  000000000054000000000005400000000000512000000000052300000000005190000000000519000000000052400069000000000000014800000000000007742800000000000000009999123100000010000000000000BRRSIDACNOR8120
012024070108LIGT3       010LIGHT S/A   ON      NM   R$  000000000050500000000005050000000000492000000000049600000000004960000000000496000000000049803508000000000000790000000000000392129000000000000000009999123100000010000000000000BRLIGTACNOR2124
012024070108JFEN3       010JOAO FORTES ON           R$  000000000005100000000000520000000000049000000000005000000000000510000000000049000000000005100949000000000000263700000000000013252200000000000000009999123100000010000000000000BRJFENACNOR0059
012024070108OIBR3       010OI          ON      N1   R$  000000000053900000000006070000000000539000000000058800000000005970000000000597000000000059802951000000000001681000000000000989524600000000000000009999123100000010000000000000BROIBRACNOR1111
012024070108OIBR4       010OI          PN      N1   R$  000000000134700000000015610000000001347000000000150400000000015390000000001528000000000153900171000000000000047500000000000071482800000000000000009999123100000010000000000000BROIBRACNPR8110
012024070108OSXB3       010OSX BRASIL  ON      NM   R$  000000000038400000000003940000000000379000000000038400000000003900000000000375000000000039000021000000000000006300000000000002419700000000000000009999123100000010000000000000BROSXBACNOR8109
012024070110AMAR1       010LOJAS MARISADIR ORD NM   R$  000000000000100000000000010000000000001000000000000100000000000010000000000000000000000000100060000000000000199900000000000000199900000000000000009999123100000010000000000000BRAMARD02OR7114
012024070110EQTL9       010EQUATORIAL  ON  REC NM   R$  000000000311200000000032370000000003112000000000320800000000032320000000000000000000000339900045000000000000009300000000000029836700000000000000009999123100000010000000000000BREQTLR03OR1129
012024070110VIVR1       010VIVER       DIR ORD NM   R$  000000000000100000000000010000000000001000000000000100000000000010000000000000000000000000100006000000000000052300000000000000052300000000000000009999123100000010000000000000BRVIVRD18OR3122
012024070110RENT1       010LOCALIZA    DIR ORD NM   R$  000000000119500000000011950000000000932000000000098400000000009700000000000950000000000097500444000000000000077200000000000076032400000000000000009999123100000010000000000000BRRENTD06OR8195
012024070110BODB12      010FIC FI BCNA DIR          R$  000000000000300000000000060000000000001000000000000200000000000040000000000001000000000000300325000000000000254038000000000000556640000000000000009999123100000010000000000000BRBODBD04M10134
012024070112ARRI11      010FII ATRIO   CI  ER       R$  000000000090700000000009080000000000895000000000089800000000009000000000000898000000000090001364000000000000041720000000000037473288000000000000009999123100000010000000000000BRARRICTF009162
012024070112ARXD11      010FII ARXD R  CI  ERS      R$  000000000999900000000099990000000009850000000000988800000000099290000000009824000000000992900017000000000000000687000000000006793719000000000000009999123100000010000000000000BRARXDCTF008116
012024070112CPFF11      010FII CAP REITCI           R$  000000000742500000000074250000000007280000000000733100000000072900000000007290000000000732000099000000000000001225000000000008981120000000000000009999123100000010000000000000BRCPFFCTF000156
012024070112CPLG11      010FII CPLG    CI           R$  000000000104000000000010400000000001040000000000104000000000010400000000000000000000000104000002000000000000000002000000000000002080000000000000009999123100000010000000000000BRCPLGCTF006100
012024070112CPSH11      010FII CPSH    CI           R$  000000000107100000000010740000000001060000000000106700000000010600000000001060000000000107302197000000000000107352000000000114627635000000000000009999123100000010000000000000BRCPSHCTF017114
012024070112EGYR11      010FII ENERGY  CI           R$  000000000032100000000003260000000000315000000000032300000000003170000000000318000000000032600031000000000000000251000000000000081158000000000000009999123100000010000000000000BREGYRCTF001102
012024070112BRIM11      010FII BRIO II CI  ER       R$  000000011040000000001104000000000110400000000011040000000001104000000000063000000000011040000004000000000000000004000000000000441600000000000000009999123100000010000000000000BRBRIMCTF008128
012024070112CTXT11      010FII C TEXTILCI           R$  000000000087900000000008790000000000878000000000087800000000008780000000000841000000000087800002000000000000000002000000000000001757000000000000009999123100000010000000000000BRCTXTCTF014207
012024070112CVBI11      010FII VBI CRI CI           R$  000000000943600000000096430000000009436000000000960000000000095600000000009560000000000957109284000000000000210905000000002024876265000000000000009999123100000010000000000000BRCVBICTF001166
012024070112CXAG11      010FII CAIXA AGCI  ER       R$  000000000755300000000076380000000007540000000000756700000000075900000000007590000000000759300168000000000000003333000000000025223373000000000000009999123100000010000000000000BRCXAGCTF003129
012024070112CXCE11      010FII CX CEDAECI  ER       R$  000000000400000000000040470000000003967000000000399400000000039670000000003967000000000404700029000000000000000189000000000000755032000000000000009999123100000010000000000000BRCXCECTF004270
012024070112CXCI11      010FII CAIXA CICI           R$  000000000829800000000082980000000008101000000000812400000000082370000000008110000000000823900109000000000000001524000000000012382450000000000000009999123100000010000000000000BRCXCICTF005127
012024070112CXCO11      010FII CEF CORPCI  ER       R$  000000000759700000000075970000000007433000000000750300000000074990000000007499000000000751400217000000000000002657000000000019936043000000000000009999123100000010000000000000BRCXCOCTF003139
012024070112CXRI11      010FII CX RBRAVCI           R$  000000000815000000000081550000000008000000000000810700000000080000000000007955000000000799900013000000000000000126000000000001021512000000000000009999123100000010000000000000BRCXRICTF003228
012024070112SAPI11      010FII SAPI    CI  ER       R$  000000000920000000000092000000000009135000000000916300000000091890000000009150000000000918900025000000000000000681000000000006240420000000000000009999123100000010000000000000BRSAPICTF001109
012024070112SARE11      010FII SANT RENCI  ER       R$  000000000415500000000041660000000003990000000000403000000000040500000000004049000000000405002137000000000000038942000000000156957198000000000000009999123100000010000000000000BRSARECTF006157
012024070112TRNT11      010FII TORRE NOCI           R$  000000001100200000000114970000000010980000000001113700000000114970000000010728000000001140000004000000000000000007000000000000077960000000000000009999123100000010000000000000BRTRNTCTF013341
012024070112TRXB11      010FII TRX R IICI  ER       R$  000000001400000000000148990000000014000000000001433700000000148990000000014001000000001410000005000000000000000008000000000000114701000000000000009999123100000010000000000000BRTRXBCTF002152
012024070112TRXF11      010FII TRX REALCI  ER       R$  000000001044500000000104780000000010405000000001043500000000104200000000010420000000001042608174000000000000074016000000000772410632000000000000009999123100000010000000000000BRTRXFCTF003165
012024070112ASMT11      010FII ASA MET CI           R$  000000000411300000000041130000000003900000000000396300000000039000000000003856000000000390000003000000000000000011000000000000043596000000000000009999123100000010000000000000BRASMTCTF005107
012024070112RFOF11      010FII RB CFOF CI  ER       R$  000000000723500000000072710000000007040000000000717900000000070980000000007098000000000723100115000000000000001565000000000011236531000000000000009999123100000010000000000000BRRFOFCTF001152
012024070112RINV11      010FII REAL INVCI           R$  000000001116500000000112750000000011032000000001114100000000111620000000011162000000001127400919000000000000005213000000000058081348000000000000009999123100000010000000000000BRRINVCTF004119
012024070112RMAI11      010FII REAGMULTCI  ER       R$  000000000718000000000071800000000007179000000000717900000000071800000000007092000000000950000025000000000000000028000000000000201037000000000000009999123100000010000000000000BRRMAICTF000135
012024070112RNDP11      010FII BB R PAPCI  ER       R$  000000000630300000000065840000000006303000000000635300000000064950000000006351000000000649000016000000000000000140000000000000889421000000000000009999123100000010000000000000BRRNDPCTF007249
012024070112RNGO11      010FII RIONEGROCI  ER       R$  000000000460300000000046610000000004590000000000463200000000046520000000004652000000000469000133000000000000001843000000000008537382000000000000009999123100000010000000000000BRRNGOCTF003244
012024070112RPRI11      010FII RBR PR  CI  ER       R$  000000000939000000000093900000000009270000000000929600000000093380000000009307000000000934600269000000000000005277000000000049058739000000000000009999123100000010000000000000BRRPRICTF007129
012024070112RRCI11      010FII RBCAP RICI  ER       R$  000000000772700000000077290000000007653000000000770000000000076840000000007684000000000771500051000000000000000301000000000002317704000000000000009999123100000010000000000000BRRRCICTF005143
012024070112GAME11      010FII GUARD MUCI           R$  000000000090600000000009080000000000902000000000090600000000009060000000000905000000000090600459000000000000011205000000000010153470000000000000009999123100000010000000000000BRGAMECTF002132
012024070112GARE11      010FII GUARDIANCI  ER       R$  000000000090100000000009020000000000897000000000089800000000008980000000000897000000000089838792000000000000661671000000000594587384000000000000009999123100000010000000000000BRGARECTF001105
012024070112GCRI11      010FII GLPG CRICI           R$  000000000739800000000074480000000007280000000000738000000000072800000000007280000000000730700069000000000000001499000000000011062844000000000000009999123100000010000000000000BRGCRICTF008144
012024070112MALL11      010FII MALLS BPCI  ER       R$  000000001101900000000110190000000010830000000001092700000000109680000000010966000000001096806848000000000000023345000000000255114136000000000000009999123100000010000000000000BRMALLCTF007182
012024070112MANA11      010FII MANATI  CI  ER       R$  000000000098900000000009960000000000963000000000097600000000009630000000000963000000000098100602000000000000072616000000000070916627000000000000009999123100000010000000000000BRMANACTF006126
012024070112MAXR11      010FII MAX RET CI           R$  000000000820000000000082000000000008053000000000812500000000081060000000008106000000000815100037000000000000000317000000000002575897000000000000009999123100000010000000000000BRMAXRCTF009268
012024070112MCCI11      010FII MAUA    CI           R$  000000000909000000000091000000000008954000000000899800000000090000000000008989000000000900011676000000000000044748000000000402662585000000000000009999123100000010000000000000BRMCCICTF008162
012024070112MCHY11      010FII MAUA HY CI           R$  000000000097100000000009810000000000962000000000097000000000009670000000000967000000000096811938000000000000320702000000000311095794000000000000009999123100000010000000000000BRMCHYCTF004138
012024070112SCPF11      010FII SCP     CI           R$  000000000029300000000002930000000000289000000000028900000000002900000000000289000000000029100064000000000000007061000000000002046398000000000000009999123100000010000000000000BRSCPFCTF003302
012024070112SEQR11      010FII SEQUOIA CI           R$  000000000520000000000052980000000005200000000000523000000000052910000000005252000000000529100094000000000000001024000000000005355640000000000000009999123100000010000000000000BRSEQRCTF002143
