00COTAHIST.2024BOVESPA 20240801                                                                                                                                                                                                                      
012024073102VAMO3       010VAMOS       ON      NM   R$  000000000083900000000008670000000000827000000000084900000000008630000000000863000000000086411437000000000007542900000000006408466300000000000000009999123100000010000000000000BRVAMOACNOR7105
012024073102BRIT3       010BRISANET    ON      NM   R$  000000000039600000000004080000000000396000000000040400000000004080000000000405000000000040800555000000000000248600000000000100591600000000000000009999123100000010000000000000BRBRITACNOR0103
012024073102BRKM3       010BRASKEM     ON      N1   R$  000000000178500000000018050000000001775000000000178200000000017750000000001775000000000178500024000000000000003800000000000006772200000000000000009999123100000010000000000000BRBRKMACNOR1119
012024073102BRKM5       010BRASKEM     PNA     N1   R$  000000000178500000000018030000000001750000000000177100000000017550000000001754000000000175605994000000000001512100000000002678750400000000000000009999123100000010000000000000BRBRKMACNPA4121
012024073102CXSE3       010CAIXA SEGURION      NM   R$  000000000144800000000014580000000001442000000000144800000000014420000000001442000000000144312655000000000003031100000000004390707200000000000000009999123100000010000000000000BRCXSEACNOR7106
012024073102ANIM3       010ANIMA       ON      NM   R$  000000000034500000000003640000000000345000000000035700000000003600000000000358000000000036007468000000000004100100000000001463941800000000000000009999123100000010000000000000BRANIMACNOR6108
012024073102ARML3       010ARMAC       ON      NM   R$  000000000086400000000008820000000000854000000000086900000000008770000000000877000000000088405276000000000001623700000000001411135600000000000000009999123100000010000000000000BRARMLACNOR1112
012024073102ARZZ3       010AREZZO CO   ON      NM   R$  000000000488000000000049800000000004864000000000490000000000048650000000004864000000000487306217000000000001740500000000008529911100000000000000009999123100000010000000000000BRARZZACNOR3147
012024073102ASAI3       010ASSAI       ON      NM   R$  000000000095500000000009860000000000951000000000097400000000009820000000000982000000000098317486000000000017487100000000017042851000000000000000009999123100000010000000000000BRASAIACNOR0106
012024073102BBSE3       010BBSEGURIDADEON      NM   R$  000000000349700000000035180000000003493000000000350600000000035170000000003509000000000351813464000000000004510300000000015813542000000000000000009999123100000010000000000000BRBBSEACNOR5124
012024073102BRAP3       010BRADESPAR   ON      N1   R$  000000000174500000000017760000000001745000000000176600000000017710000000001771000000000177400549000000000000110600000000000195353600000000000000009999123100000010000000000000BRBRAPACNOR5148
012024073102BRAP4       010BRADESPAR   PN      N1   R$  000000000183300000000018570000000001826000000000184600000000018520000000001852000000000185308719000000000002821600000000005210398100000000000000009999123100000010000000000000BRBRAPACNPR2148
012024073102BRBI11      010BR PARTNERS UNT     N2   R$  000000000139000000000014120000000001390000000000139700000000013900000000001390000000000140000747000000000000145500000000000203315000000000000000009999123100000010000000000000BRBRBICDAM10109
012024073102PINE3       010PINE        ON      N2   R$  000000000056700000000005670000000000560000000000056400000000005600000000000531000000000060900003000000000000000300000000000000169400000000000000009999123100000010000000000000BRPINEACNOR1150
012024073102PINE4       010PINE        PN      N2   R$  000000000042000000000004330000000000420000000000042700000000004280000000000426000000000042800394000000000000111300000000000047593300000000000000009999123100000010000000000000BRPINEACNPR8150
012024073102PLAS3       010PLASCAR PARTON           R$  000000000052500000000005250000000000522000000000052200000000005220000000000520000000000058000002000000000000000400000000000000209100000000000000009999123100000010000000000000BRPLASACNOR2106
012024073102PLPL3       010PLANOEPLANO ON      NM   R$  000000000118300000000012330000000001172000000000120700000000012140000000001213000000000122504178000000000001184300000000001429602000000000000000009999123100000010000000000000BRPLPLACNOR5104
012024073102PNVL3       010DIMED       ON      NM   R$  000000000100000000000010260000000000997000000000101600000000010190000000001018000000000101901237000000000000249100000000000253200800000000000000009999123100000010000000000000BRPNVLACNOR9207
012024073102POMO3       010MARCOPOLO   ON      N2   R$  000000000048100000000004830000000000471000000000047400000000004710000000000471000000000047300945000000000000294000000000000139377100000000000000009999123100000010000000000000BRPOMOACNOR0098
012024073102POMO4       010MARCOPOLO   PN      N2   R$  000000000062000000000006260000000000605000000000061200000000006070000000000607000000000060809475000000000013929700000000008528037600000000000000009999123100000010000000000000BRPOMOACNPR7098
012024073102BRFS3       010BRF SA      ON      NM   R$  000000000213800000000021800000000002102000000000212700000000021060000000002106000000000210915534000000000005254600000000011181396000000000000000009999123100000010000000000000BRBRFSACNOR8122
012024073102CSRN3       010COSERN      ON  ED       R$  000000000169000000000016900000000001550000000000158500000000015700000000001550000000000158900100000000000000015300000000000024258400000000000000009999123100000010000000000000BRCSRNACNOR0194
012024073102CSRN6       010COSERN      PNB ED       R$  000000000195000000000019500000000001930000000000194000000000019300000000001600000000000190700007000000000000002000000000000003880000000000000000009999123100000010000000000000BRCSRNACNPB1195
012024073102CSUD3       010CSU DIGITAL ON      NM   R$  000000000193500000000019550000000001925000000000193900000000019440000000001944000000000194800090000000000000023700000000000045977100000000000000009999123100000010000000000000BRCSUDACNOR5110
012024073102CURY3       010CURY S/A    ON      NM   R$  000000000217500000000022390000000002170000000000221600000000022200000000002218000000000222708195000000000001903400000000004219029600000000000000009999123100000010000000000000BRCURYACNOR3109
012024073102CVCB3       010CVC BRASIL  ON      NM   R$  000000000018000000000001860000000000179000000000018100000000001820000000000181000000000018204970000000000009196200000000001670192200000000000000009999123100000010000000000000BRCVCBACNOR1116
012024073102ESPA3       010ESPACOLASER ON      NM   R$  000000000009700000000000990000000000097000000000009800000000000990000000000099000000000010000112000000000000211200000000000020746600000000000000009999123100000010000000000000BRESPAACNOR7103
012024073102ESTR4       010ESTRELA     PN           R$  000000000019800000000002010000000000198000000000019800000000002010000000000201000000000020500003000000000000000600000000000000119100000000000000009999123100000010000000000000BRESTRACNPR0144
012024073102EUCA4       010EUCATEX     PN      N1   R$  000000000150900000000015380000000001495000000000151700000000015280000000001528000000000153000221000000000000038700000000000058712400000000000000009999123100000010000000000000BREUCAACNPR8044
012024073102EVEN3       010EVEN        ON      NM   R$  000000000061100000000006330000000000610000000000062400000000006290000000000628000000000063302268000000000000569400000000000355799100000000000000009999123100000010000000000000BREVENACNOR8119
012024073102EZTC3       010EZTEC       ON      NM   R$  000000000131000000000013250000000001301000000000131300000000013190000000001319000000000132006141000000000002726100000000003579907600000000000000009999123100000010000000000000BREZTCACNOR0125
012024073102YDUQ3       010YDUQS PART  ON      NM   R$  000000000109100000000011050000000001070000000000108700000000010940000000001094000000000109509484000000000003280300000000003567830900000000000000009999123100000010000000000000BRYDUQACNOR3105
012024073102ZAMP3       010ZAMP S.A.   ON  ES       R$  000000000034300000000003440000000000332000000000033600000000003320000000000332000000000033401920000000000000727900000000000245240700000000000000009999123100000010000000000000BRZAMPACNOR5101
012024073102SCAR3       010SAO CARLOS  ON      NM   R$  000000000242900000000024650000000002367000000000241700000000024350000000002400000000000243500133000000000000037600000000000090893100000000000000009999123100000010000000000000BRSCARACNOR7131
012024073102SEER3       010SER EDUCA   ON      NM   R$  000000000050400000000005270000000000504000000000051900000000005240000000000524000000000052501113000000000000376900000000000195788700000000000000009999123100000010000000000000BRSEERACNOR5119
012024073102SEQL3       010SEQUOIA LOG ON      NM   R$  000000000039500000000004060000000000387000000000040000000000004030000000000402000000000040300512000000000000292200000000000117058300000000000000009999123100000010000000000000BRSEQLACNOR2103
012024073102SHOW3       010TIME FOR FUNON      NM   R$  000000000015000000000001550000000000150000000000015100000000001500000000000150000000000015200219000000000000122700000000000018578300000000000000009999123100000010000000000000BRSHOWACNOR7105
012024073102SHUL4       010SCHULZ      PN           R$  000000000062000000000006330000000000618000000000062900000000006310000000000630000000000063200496000000000000303800000000000191246700000000000000009999123100000010000000000000BRSHULACNPR4156
012024073102WEST3       010WESTWING    ON      NM   R$  000000000008500000000000900000000000085000000000008700000000000880000000000087000000000008800086000000000000086400000000000007541700000000000000009999123100000010000000000000BRWESTACNOR3100
012024073102WHRL3       010WHIRLPOOL   ON           R$  000000000044100000000004410000000000435000000000043800000000004410000000000441000000000044800011000000000000001600000000000000700800000000000000009999123100000010000000000000BRWHRLACNOR5128
012024073102WHRL4       010WHIRLPOOL   PN           R$  000000000044700000000004520000000000444000000000044700000000004520000000000446000000000045100011000000000000001500000000000000671700000000000000009999123100000010000000000000BRWHRLACNPR2128
012024073102CYRE3       010CYRELA REALTON      NM   R$  000000000193000000000019620000000001922000000000194400000000019490000000001949000000000195512324000000000004052200000000007879228100000000000000009999123100000010000000000000BRCYREACNOR7140
012024073102FRAS3       010FRAS-LE     ON  EJ  N1   R$  000000000190000000000019190000000001891000000000189800000000019060000000001904000000000191303012000000000001562700000000002966542900000000000000009999123100000010000000000000BRFRASACNOR0160
012024073102FRIO3       010METALFRIO   ON      NM   R$  000000001650000000000249990000000016500000000002315800000000249990000000018500000000002499900087000000000000027700000000000641478500000000000000009999123100000010000000000000BRFRIOACNOR2111
012024073102GEPA3       010GER PARANAP ON           R$  000000000260000000000026000000000002600000000000260000000000026000000000002551000000000264900001000000000000000200000000000000520000000000000000009999123100000010000000000000BRGEPAACNOR2153
012024073102PORT3       010WILSON SONS ON      NM   R$  000000000155900000000015880000000001555000000000157300000000015740000000001573000000000158201775000000000000635800000000001000451400000000000000009999123100000010000000000000BRPORTACNOR8109
012024073102POSI3       010POSITIVO TECON      NM   R$  000000000067600000000006960000000000664000000000067200000000006760000000000675000000000067604116000000000001511500000000001016724300000000000000009999123100000010000000000000BRPOSIACNOR9116
012024073102PRIO3       010PETRORIO    ON      NM   R$  000000000479600000000048200000000004731000000000477800000000048050000000004804000000000480523230000000000006884800000000032902252100000000000000009999123100000010000000000000BRPRIOACNOR1107
012024073102SAPR11      010SANEPAR     UNT     N2   R$  000000000275200000000027770000000002720000000000273600000000027320000000002732000000000273303967000000000001877300000000005136681400000000000000009999123100000010000000000000BRSAPRCDAM13118
012024073102SAPR3       010SANEPAR     ON      N2   R$  000000000052000000000005210000000000509000000000051400000000005090000000000509000000000051300439000000000000119600000000000061592100000000000000009999123100000010000000000000BRSAPRACNOR9159
012024073102SAPR4       010SANEPAR     PN      N2   R$  000000000056100000000005640000000000553000000000055600000000005540000000000554000000000055502080000000000001108600000000000616490800000000000000009999123100000010000000000000BRSAPRACNPR6159
012024073102SBFG3       010GRUPO SBF   ON      NM   R$  000000000157200000000015770000000001483000000000152100000000015120000000001512000000000151308954000000000003537000000000005380062200000000000000009999123100000010000000000000BRSBFGACNOR1103
012024073102SBSP3       010SABESP      ON      NM   R$  000000000875400000000089220000000008741000000000884200000000088240000000008819000000000882418768000000000005549200000000049070958300000000000000009999123100000010000000000000BRSBSPACNOR5161
012024073102UNIP3       010UNIPAR      ON           R$  000000000504500000000051500000000005023000000000508200000000051000000000005100000000000515000039000000000000008200000000000041676300000000000000009999123100000010000000000000BRUNIPACNOR7206
012024073102UNIP5       010UNIPAR      PNA          R$  000000000519900000000052000000000005199000000000519900000000052000000000005072000000000535800002000000000000000200000000000001039900000000000000009999123100000010000000000000BRUNIPACNPA0208
012024073102UNIP6       010UNIPAR      PNB          R$  000000000503000000000052420000000005021000000000518100000000052090000000005209000000000521000973000000000000209800000000001087051300000000000000009999123100000010000000000000BRUNIPACNPB8206
012024073102USIM3       010USIMINAS    ON      N1   R$  000000000060500000000006110000000000594000000000060500000000006040000000000603000000000060401545000000000000763600000000000462088400000000000000009999123100000010000000000000BRUSIMACNOR3167
012024073102USIM5       010USIMINAS    PNA     N1   R$  000000000063500000000006380000000000620000000000062800000000006220000000000622000000000062314364000000000020686400000000013005332400000000000000009999123100000010000000000000BRUSIMACNPA6169
012024073102RSUL4       010RIOSULENSE  PN           R$  000000000612900000000062880000000005999000000000612700000000059990000000005976000000000600000032000000000000004300000000000026346900000000000000009999123100000010000000000000BRRSULACNPR3114
012024073102SANB11      010SANTANDER BRUNT EJ       R$  000000000288500000000028910000000002855000000000286900000000028650000000002862000000000286607170000000000003256900000000009344316700000000000000009999123100000010000000000000BRSANBCDAM13165
012024073102SANB3       010SANTANDER BRON  EJ       R$  000000000136800000000013700000000001351000000000135900000000013590000000001355000000000135900364000000000000057000000000000077514900000000000000009999123100000010000000000000BRSANBACNOR8172
012024073102SANB4       010SANTANDER BRPN  EJ       R$  000000000151500000000015180000000001501000000000150600000000015100000000001502000000000151000461000000000000077200000000000116316800000000000000009999123100000010000000000000BRSANBACNPR5172
012024073102TOTS3       010TOTVS       ON      NM   R$  000000000275500000000027830000000002738000000000276000000000027750000000002772000000000277509630000000000002363000000000006522801500000000000000009999123100000010000000000000BRTOTSACNOR8144
012024073102TPIS3       010TRIUNFO PARTON      NM   R$  000000000037000000000003750000000000369000000000037000000000003690000000000369000000000037100032000000000000011400000000000004227800000000000000009999123100000010000000000000BRTPISACNOR8118
012024073102TRAD3       010TC          ON  EG  NM   R$  000000000036700000000003730000000000357000000000036700000000003680000000000368000000000037000188000000000000058700000000000021565500000000000000009999123100000010000000000000BRTRADACNOR3102
012024073102RDNI3       010RNI         ON      NM   R$  000000000031200000000003290000000000312000000000032000000000003260000000000316000000000032700038000000000000014600000000000004685700000000000000009999123100000010000000000000BRRDNIACNOR9116
012024073102RDOR3       010REDE D OR   ON      NM   R$  000000000284200000000028450000000002759000000000278700000000027590000000002759000000000276217623000000000005162800000000014392630400000000000000009999123100000010000000000000BRRDORACNOR8113
012024073102SOJA3       010BOA SAFRA   ON      NM   R$  000000000150300000000015190000000001496000000000150400000000014990000000001499000000000150401573000000000000335100000000000504052000000000000000009999123100000010000000000000BRSOJAACNOR9105
012024073102SOMA3       010GRUPO SOMA  ON      NM   R$  000000000060000000000006070000000000587000000000059400000000005940000000000590000000000059418333000000000016781700000000009971652900000000000000009999123100000010000000000000BRSOMAACNOR3102
012024073102SRNA3       010SERENA      ON      NM   R$  000000000085800000000008730000000000852000000000086400000000008640000000000861000000000086604748000000000002392900000000002069132700000000000000009999123100000010000000000000BRSRNAACNOR4100
012024073102STBP3       010SANTOS BRP  ON      NM   R$  000000000132200000000013310000000001302000000000131300000000013110000000001311000000000131812918000000000005598100000000007352737100000000000000009999123100000010000000000000BRSTBPACNOR3130
012024073102SUZB3       010SUZANO S.A. ON      NM   R$  000000000534300000000054040000000005271000000000535900000000053860000000005358000000000538620702000000000005640200000000030229435800000000000000009999123100000010000000000000BRSUZBACNOR0130
012024073102RADL3       010RAIADROGASILON      NM   R$  000000000276900000000027960000000002749000000000276500000000027600000000002760000000000277114064000000000005383200000000014886695100000000000000009999123100000010000000000000BRRADLACNOR0157
012024073102RAIL3       010RUMO S.A.   ON      NM   R$  000000000220600000000022310000000002205000000000221600000000022150000000002214000000000221515278000000000007590400000000016824462600000000000000009999123100000010000000000000BRRAILACNOR9105
012024073102RAIZ4       010RAIZEN      PN      N2   R$  000000000030000000000003040000000000298000000000030000000000002990000000000299000000000030011198000000000020291400000000006090217200000000000000009999123100000010000000000000BRRAIZACNPR6110
012024073102SMFT3       010SMART FIT   ON      NM   R$  000000000208100000000021510000000002072000000000210600000000021200000000002119000000000212311431000000000004048100000000008528707700000000000000009999123100000010000000000000BRSMFTACNOR1112
012024073102SMTO3       010SAO MARTINHOON  ED  NM   R$  000000000282100000000029410000000002819000000000290700000000029060000000002906000000000291306547000000000001562000000000004541523700000000000000009999123100000010000000000000BRSMTOACNOR3127
012024073102PRNR3       010PRINER      ON      NM   R$  000000000103100000000010500000000001024000000000103600000000010300000000001028000000000104000902000000000000281800000000000292186700000000000000009999123100000010000000000000BRPRNRACNOR4109
012024073102GEPA4       010GER PARANAP PN           R$  000000000262500000000026550000000002625000000000264200000000026550000000002640000000000265900008000000000000001200000000000003171400000000000000009999123100000010000000000000BRGEPAACNPR9160
012024073102GFSA3       010GAFISA      ON      NM   R$  000000000031600000000003260000000000316000000000032100000000003190000000000319000000000032001556000000000001537600000000000494179200000000000000009999123100000010000000000000BRGFSAACNOR3124
012024073102GGBR3       010GERDAU      ON      N1   R$  000000000161600000000016210000000001590000000000161100000000015900000000001590000000000161200285000000000000047200000000000076083100000000000000009999123100000010000000000000BRGGBRACNOR1192
012024073102GGBR4       010GERDAU      PN      N1   R$  000000000180200000000018370000000001800000000000182700000000018260000000001825000000000182614249000000000008662400000000015827911000000000000000009999123100000010000000000000BRGGBRACNPR8192
012024073102MILS3       010MILLS       ON      NM   R$  000000000109200000000011300000000001092000000000111400000000011110000000001110000000000111203248000000000000955500000000001064897700000000000000009999123100000010000000000000BRMILSACNOR2127
012024073102MLAS3       010MULTILASER  ON      NM   R$  000000000019100000000001980000000000190000000000019300000000001950000000000194000000000019502795000000000003309600000000000640033300000000000000009999123100000010000000000000BRMLASACNOR9101
012024073102MNPR3       010MINUPAR     ON           R$  000000000138100000000014870000000001381000000000144400000000014870000000001385000000000148900007000000000000000800000000000001155500000000000000009999123100000010000000000000BRMNPRACNOR5122
012024073102MOVI3       010MOVIDA      ON      NM   R$  000000000062500000000006660000000000622000000000064800000000006530000000000653000000000065407326000000000004997800000000003239202800000000000000009999123100000010000000000000BRMOVIACNOR0122
012024073102ALLD3       010ALLIED      ON      NM   R$  000000000078200000000007890000000000771000000000077900000000007850000000000781000000000078500228000000000000044100000000000034377000000000000000009999123100000010000000000000BRALLDACNOR3106
012024073102ALOS3       010ALLOS       ON      NM   R$  000000000216600000000022000000000002166000000000219000000000021840000000002184000000000219111574000000000003729600000000008168282000000000000000009999123100000010000000000000BRALOSACNOR5101
012024073102BBDC3       010BRADESCO    ON      N1   R$  000000000112400000000011270000000001118000000000112200000000011230000000001122000000000112406651000000000005033400000000005650474100000000000000009999123100000010000000000000BRBBDCACNOR1772
012024073102BBDC4       010BRADESCO    PN      N1   R$  000000000124000000000012480000000001238000000000124200000000012430000000001242000000000124323965000000000032230200000000040036917600000000000000009999123100000010000000000000BRBBDCACNPR8772
012024073102CPLE3       010COPEL       ON      N2   R$  000000000089800000000009050000000000895000000000089900000000008980000000000898000000000090006644000000000004129600000000003712872500000000000000009999123100000010000000000000BRCPLEACNOR8149
012024073102CPLE5       010COPEL       PNA     N2   R$  000000000139900000000013990000000001399000000000139900000000013990000000001399000000000144900002000000000000000500000000000000699500000000000000009999123100000010000000000000BRCPLEACNPA1147
012024073102CPLE6       010COPEL       PNB     N2   R$  000000000101000000000010180000000001000000000000100700000000010090000000001008000000000100910371000000000008206500000000008270083600000000000000009999123100000010000000000000BRCPLEACNPB9146
012024073102MDNE3       010MOURA DUBEUXON      NM   R$  000000000140600000000014230000000001399000000000141000000000014080000000001408000000000141902758000000000000526400000000000742591000000000000000009999123100000010000000000000BRMDNEACNOR9100
012024073102MEAL3       010IMC S/A     ON      NM   R$  000000000015800000000001600000000000157000000000015800000000001580000000000157000000000015800223000000000000197100000000000031287800000000000000009999123100000010000000000000BRMEALACNOR9105
012024073102MELK3       010MELNICK     ON      NM   R$  000000000034100000000003460000000000341000000000034300000000003450000000000345000000000034600232000000000000077000000000000026485300000000000000009999123100000010000000000000BRMELKACNOR8111
012024073102MGEL4       010MANGELS INDLPN           R$  000000000132000000000013300000000001300000000000130800000000013010000000001300000000000132700014000000000000002700000000000003533100000000000000009999123100000010000000000000BRMGELACNPR3147
012024073102MGLU3       010MAGAZ LUIZA ON      NM   R$  000000000112200000000011460000000001107000000000112300000000011070000000001107000000000110916112000000000014502800000000016290489900000000000000009999123100000010000000000000BRMGLUACNOR2124
012024073102ALPA3       010ALPARGATAS  ON      N1   R$  000000000082100000000008300000000000803000000000080800000000008030000000000803000000000082800015000000000000003600000000000002909400000000000000009999123100000010000000000000BRALPAACNOR0231
012024073102ALPA4       010ALPARGATAS  PN      N1   R$  000000000086000000000008730000000000852000000000086100000000008600000000000860000000000086108608000000000003115000000000002682792800000000000000009999123100000010000000000000BRALPAACNPR7232
012024073102ALPK3       010ESTAPAR     ON      NM   R$  000000000035500000000003600000000000354000000000035600000000003540000000000353000000000036000151000000000000062800000000000022385000000000000000009999123100000010000000000000BRALPKACNOR9101
012024073102ALUP11      010ALUPAR      UNT     N2   R$  000000000308500000000030950000000003057000000000307600000000030800000000003080000000000308105284000000000001567300000000004821907500000000000000009999123100000010000000000000BRALUPCDAM15119
012024073102ALUP3       010ALUPAR      ON      N2   R$  000000000103400000000010420000000001033000000000103800000000010390000000001021000000000103900022000000000000002400000000000002492300000000000000009999123100000010000000000000BRALUPACNOR8119
012024073102ALUP4       010ALUPAR      PN      N2   R$  000000000102500000000010250000000001014000000000102000000000010140000000001014000000000102000040000000000000008300000000000008466600000000000000009999123100000010000000000000BRALUPACNPR5119
012024073102AMAR3       010LOJAS MARISAON      NM   R$  000000000014300000000001440000000000142000000000014300000000001440000000000143000000000014400305000000000000147200000000000021094500000000000000009999123100000010000000000000BRAMARACNOR4115
012024073102AMBP3       010AMBIPAR     ON      NM   R$  000000000424900000000054280000000004177000000000471900000000050550000000005053000000000508830264000000000008903800000000042021176000000000000000009999123100000010000000000000BRAMBPACNOR6103
012024073102PSSA3       010PORTO SEGUROON      NM   R$  000000000302000000000030750000000003020000000000304600000000030600000000003058000000000306106796000000000004638000000000014128440700000000000000009999123100000010000000000000BRPSSAACNOR7155
012024073102PTBL3       010PORTOBELLO  ON      NM   R$  000000000048400000000004930000000000449000000000046400000000004530000000000453000000000045601976000000000001008400000000000468567700000000000000009999123100000010000000000000BRPTBLACNOR8132
012024073102PTNT3       010PETTENATI   ON           R$  000000000096300000000009630000000000930000000000093800000000009300000000000928000000000094900013000000000000001900000000000001782700000000000000009999123100000010000000000000BRPTNTACNOR6042
012024073102PTNT4       010PETTENATI   PN           R$  000000000064900000000006490000000000626000000000063100000000006300000000000625000000000063000054000000000000020100000000000012701200000000000000009999123100000010000000000000BRPTNTACNPR3047
012024073102WIZC3       010WIZ CO      ON      NM   R$  000000000058800000000006090000000000588000000000060000000000006090000000000605000000000060901440000000000000419500000000000251733300000000000000009999123100000010000000000000BRWIZCACNOR5102
012024073102WLMM4       010WLM IND COM PN           R$  000000000321900000000032190000000003122000000000315200000000031600000000002700000000000316000014000000000000001900000000000005989200000000000000009999123100000010000000000000BRWLMMACNPR3118
012024073102PFRM3       010PROFARMA    ON      NM   R$  000000000059400000000005990000000000586000000000059100000000005890000000000587000000000059000564000000000000109700000000000064910600000000000000009999123100000010000000000000BRPFRMACNOR1116
012024073102PGMN3       010PAGUE MENOS ON      NM   R$  000000000025000000000002580000000000249000000000025400000000002550000000000255000000000025600813000000000000364900000000000092978600000000000000009999123100000010000000000000BRPGMNACNOR8103
012024073102CALI3       010CONST A LINDON           R$  000000000260000000000026000000000002600000000000260000000000026000000000001500000000000350000001000000000000000100000000000000260000000000000000009999123100000010000000000000BRCALIACNOR1137
012024073102CAMB3       010CAMBUCI     ON           R$  000000000115300000000011590000000001135000000000114700000000011570000000001143000000000115700093000000000000031700000000000036372600000000000000009999123100000010000000000000BRCAMBACNOR4130
012024073102CAML3       010CAMIL       ON      NM   R$  000000000088300000000008930000000000871000000000088200000000008820000000000882000000000088502675000000000000684800000000000604178600000000000000009999123100000010000000000000BRCAMLACNOR3128
012024073102CASH3       010MELIUZ      ON      NM   R$  000000000056100000000005650000000000557000000000056000000000005570000000000557000000000056000839000000000000375300000000000210370600000000000000009999123100000010000000000000BRCASHACNOR8106
012024073102CBAV3       010CBA         ON      NM   R$  000000000052000000000005370000000000507000000000052100000000005310000000000530000000000053208751000000000006322200000000003299428200000000000000009999123100000010000000000000BRCBAVACNOR5104
012024073102BPAC11      010BTGP BANCO  UNT     N2   R$  000000000321500000000032740000000003209000000000325400000000032610000000003255000000000326119099000000000005781500000000018817074300000000000000009999123100000010000000000000BRBPACUNT006119
012024073102BPAC3       010BTGP BANCO  ON      N2   R$  000000000156000000000015610000000001547000000000155400000000015530000000001536000000000156000006000000000000000600000000000000932800000000000000009999123100000010000000000000BRBPACACNOR7134
012024073102BPAC5       010BTGP BANCO  PNA     N2   R$  000000000083800000000008500000000000838000000000084600000000008390000000000839000000000085300007000000000000002300000000000001947800000000000000009999123100000010000000000000BRBPACACNPA0134
012024073102BPAN4       010BANCO PAN   PN      N1   R$  000000000084200000000008830000000000842000000000086900000000008680000000000868000000000087403866000000000001535200000000001335200500000000000000009999123100000010000000000000BRBPANACNPR1115
012024073102CSED3       010CRUZEIRO EDUON      NM   R$  000000000038400000000004060000000000384000000000039600000000003990000000000399000000000040500579000000000000488200000000000193377300000000000000009999123100000010000000000000BRCSEDACNOR9104
012024073102CSMG3       010COPASA      ON      NM   R$  000000000221900000000022660000000002091000000000219100000000021970000000002197000000000220011248000000000003577200000000007838965700000000000000009999123100000010000000000000BRCSMGACNOR5174
012024073102CSNA3       010SID NACIONALON           R$  000000000118100000000012010000000001174000000000118800000000011860000000001184000000000118608204000000000003861900000000004591758700000000000000009999123100000010000000000000BRCSNAACNOR6261
012024073102ENGI11      010ENERGISA    UNT     N2   R$  000000000441500000000044370000000004358000000000438200000000043930000000004393000000000439413967000000000004846000000000021239753400000000000000009999123100000010000000000000BRENGICDAM16135
012024073102ENGI3       010ENERGISA    ON      N2   R$  000000000144200000000014420000000001342000000000135200000000013420000000001336000000000135000045000000000000004900000000000006629300000000000000009999123100000010000000000000BRENGIACNOR0145
012024073102ENGI4       010ENERGISA    PN      N2   R$  000000000076600000000007680000000000755000000000076100000000007640000000000758000000000076500078000000000000016500000000000012572700000000000000009999123100000010000000000000BRENGIACNPR7141
012024073102ENJU3       010ENJOEI      ON      NM   R$  000000000017400000000001790000000000172000000000017500000000001720000000000172000000000017400569000000000000495800000000000087041600000000000000009999123100000010000000000000BRENJUACNOR9100
012024073102CRFB3       010CARREFOUR BRON      NM   R$  000000000090800000000009310000000000908000000000092100000000009260000000000926000000000092709316000000000006117400000000005635777400000000000000009999123100000010000000000000BRCRFBACNOR2116
012024073102CRPG5       010CRISTAL     PNA          R$  000000000290500000000029150000000002900000000000290400000000029150000000002901000000000291500011000000000000001800000000000005228200000000000000009999123100000010000000000000BRCRPGACNPA3119
012024073102CRPG6       010CRISTAL     PNB          R$  000000000292000000000029690000000002910000000000292500000000029690000000002911000000000299900013000000000000001600000000000004681100000000000000009999123100000010000000000000BRCRPGACNPB1119
012024073102CSAN3       010COSAN       ON      NM   R$  000000000134400000000013560000000001326000000000133800000000013370000000001336000000000133811154000000000008905700000000011921646800000000000000009999123100000010000000000000BRCSANACNOR6126
012024073102EMBR3       010EMBRAER     ON      NM   R$  000000000429500000000044220000000004265000000000437200000000043810000000004381000000000438926825000000000007428400000000032481881100000000000000009999123100000010000000000000BREMBRACNOR4191
012024073102ENAT3       010ENAUTA PART ON      NM   R$  000000000222000000000022260000000002107000000000215400000000021640000000002161000000000216831892000000000009361300000000020167939900000000000000009999123100000010000000000000BRENATACNOR0104
012024073102ENEV3       010ENEVA       ON      NM   R$  000000000126600000000012800000000001257000000000126500000000012630000000001263000000000126415899000000000007347100000000009299086000000000000000009999123100000010000000000000BRENEVACNOR8106
012024073102TRIS3       010TRISUL      ON      NM   R$  000000000047500000000004890000000000475000000000048200000000004850000000000484000000000048500756000000000000325800000000000157347400000000000000009999123100000010000000000000BRTRISACNOR4118
012024073102TRPL3       010TRAN PAULISTON      N1   R$  000000000319900000000032150000000003170000000000319800000000031990000000003170000000000325200015000000000000002400000000000007677200000000000000009999123100000010000000000000BRTRPLACNOR4185
012024073102TRPL4       010TRAN PAULISTPN      N1   R$  000000000247200000000024730000000002442000000000245500000000024560000000002456000000000245711290000000000003602500000000008846232300000000000000009999123100000010000000000000BRTRPLACNPR1185
012024073102TTEN3       0103TENTOS     ON      NM   R$  000000000105100000000010790000000001051000000000106800000000010680000000001067000000000107003240000000000000601500000000000642548500000000000000009999123100000010000000000000BRTTENACNOR0103
012024073102TUPY3       010TUPY        ON      NM   R$  000000000245000000000024920000000002450000000000246800000000024700000000002469000000000247002388000000000000537700000000001327136600000000000000009999123100000010000000000000BRTUPYACNOR1184
012024073102VLID3       010VALID       ON      NM   R$  000000000170000000000017280000000001679000000000170600000000017160000000001716000000000172601937000000000000363700000000000620593500000000000000009999123100000010000000000000BRVLIDACNOR5143
012024073102VSTE3       010VESTE       ON      NM   R$  000000000140500000000014690000000001368000000000140500000000013680000000001350000000000143000075000000000000013800000000000019402400000000000000009999123100000010000000000000BRVSTEACNOR5103
012024073102VTRU3       010VITRUEDUCA  ON      NM   R$  000000000123800000000012870000000001215000000000124500000000012620000000001261000000000126300248000000000000053500000000000066616300000000000000009999123100000010000000000000BRVTRUACNOR3100
012024073102VULC3       010VULCABRAS   ON      NM   R$  000000000155500000000015800000000001542000000000155700000000015480000000001548000000000154903223000000000000896700000000001396834400000000000000009999123100000010000000000000BRVULCACNOR2159
012024073102VVEO3       010VIVEO       ON      NM   R$  000000000022700000000002400000000000226000000000023100000000002280000000000227000000000022902816000000000002460400000000000568379600000000000000009999123100000010000000000000BRVVEOACNOR0104
012024073102QUAL3       010QUALICORP   ON      NM   R$  000000000015100000000001550000000000149000000000015100000000001500000000000150000000000015102809000000000002628100000000000398899900000000000000009999123100000010000000000000BRQUALACNOR6120
012024073102SIMH3       010SIMPAR      ON      NM   R$  000000000059800000000006460000000000598000000000062500000000006330000000000633000000000063706332000000000003992500000000002496465500000000000000009999123100000010000000000000BRSIMHACNOR0107
012024073102SLCE3       010SLC AGRICOLAON      NM   R$  000000000180000000000018080000000001786000000000179600000000017960000000001796000000000179807589000000000003057000000000005491203600000000000000009999123100000010000000000000BRSLCEACNOR2125
012024073102KLBN11      010KLABIN S/A  UNT     N2   R$  000000000221000000000022260000000002184000000000220200000000022090000000002198000000000220914371000000000004234000000000009325713500000000000000009999123100000010000000000000BRKLBNCDAM18142
012024073102KLBN3       010KLABIN S/A  ON      N2   R$  000000000044400000000004470000000000439000000000044100000000004400000000000440000000000044300709000000000000300900000000000132963900000000000000009999123100000010000000000000BRKLBNACNOR2170
012024073102KLBN4       010KLABIN S/A  PN      N2   R$  000000000044300000000004440000000000437000000000043900000000004400000000000439000000000044001782000000000001408200000000000619293400000000000000009999123100000010000000000000BRKLBNACNPR9170
012024073102NGRD3       010NEOGRID     ON      NM   R$  000000000011400000000001200000000000114000000000011700000000001180000000000118000000000011900772000000000000866200000000000102043200000000000000009999123100000010000000000000BRNGRDACNOR3104
012024073102NINJ3       010GETNINJAS   ON      NM   R$  000000000047000000000004770000000000470000000000047300000000004740000000000472000000000047400014000000000000002900000000000001372800000000000000009999123100000010000000000000BRNINJACNOR5101
012024073102VALE3       010VALE        ON      NM   R$  000000000609100000000061680000000006076000000000613100000000061630000000006154000000000616336109000000000034433100000000211110412100000000000000009999123100000010000000000000BRVALEACNOR0210
012024073102NORD3       010NORDON MET  ON           R$  000000000093100000000012800000000000925000000000119000000000011980000000001113000000000119900100000000000000017500000000000020838700000000000000009999123100000010000000000000BRNORDACNOR7135
012024073102NTCO3       010GRUPO NATURAON      NM   R$  000000000149300000000015080000000001476000000000149200000000014930000000001492000000000149511269000000000004681400000000006985190400000000000000009999123100000010000000000000BRNTCOACNOR5106
012024073102ODPV3       010ODONTOPREV  ON      NM   R$  000000000113000000000011480000000001130000000000113500000000011320000000001131000000000114501899000000000000692700000000000786636200000000000000009999123100000010000000000000BRODPVACNOR4202
012024073102OFSA3       010OUROFINO S/AON      NM   R$  000000000194000000000020400000000001940000000000203800000000020400000000001950000000000213000012000000000000027800000000000056671500000000000000009999123100000010000000000000BROFSAACNOR7118
012024073102ONCO3       010ONCOCLINICASON      NM   R$  000000000064400000000006600000000000628000000000064300000000006280000000000627000000000063405537000000000003417900000000002201112300000000000000009999123100000010000000000000BRONCOACNOR6101
012024073102OPCT3       010OCEANPACT   ON      NM   R$  000000000062900000000006610000000000623000000000064800000000006560000000000656000000000065702035000000000000785800000000000509776700000000000000009999123100000010000000000000BROPCTACNOR0100
012024073102ORVR3       010ORIZON      ON      NM   R$  000000000425100000000043180000000004241000000000428800000000042720000000004271000000000428502459000000000000546100000000002341978000000000000000009999123100000010000000000000BRORVRACNOR0101
012024073102PETZ3       010PETZ        ON      NM   R$  000000000034800000000003540000000000344000000000034800000000003500000000000347000000000035006941000000000007166700000000002498516000000000000000009999123100000010000000000000BRPETZACNOR2110
012024073102BAHI3       010BAHEMA      ON      MA   R$  000000000064800000000006480000000000648000000000064800000000006480000000000620000000000064800001000000000000000100000000000000064800000000000000009999123100000010000000000000BRBAHIACNOR1074
012024073102BALM4       010BAUMER      PN           R$  000000000100000000000010000000000000995000000000099700000000009950000000000997000000000102500002000000000000000200000000000000199500000000000000009999123100000010000000000000BRBALMACNPR2056
012024073102BAZA3       010AMAZONIA    ON           R$  000000000922900000000092500000000009190000000000922000000000092020000000009202000000000998900019000000000000002900000000000026739200000000000000009999123100000010000000000000BRBAZAACNOR0179
012024073102BBAS3       010BRASIL      ON      NM   R$  000000000270000000000027050000000002651000000000266400000000026550000000002654000000000265843905000000000017872300000000047612719200000000000000009999123100000010000000000000BRBBASACNOR3324
012024073102BIOM3       010BIOMM       ON      MA   R$  000000000096900000000010640000000000947000000000101500000000010200000000001020000000000104200505000000000000139100000000000141249900000000000000009999123100000010000000000000BRBIOMACNOR2112
012024073102BLAU3       010BLAU        ON      NM   R$  000000000105900000000010680000000001035000000000104800000000010360000000001036000000000104000914000000000000189400000000000198550500000000000000009999123100000010000000000000BRBLAUACNOR8114
012024073102BMEB3       010MERCANTIL   ON  EJ  N1   R$  000000000306000000000030600000000003040000000000305600000000030400000000002939000000000318000004000000000000000500000000000001528000000000000000009999123100000010000000000000BRBMEBACNOR8206
012024073102BMEB4       010MERCANTIL   PN  EJ  N1   R$  000000000330800000000033080000000003109000000000320400000000031300000000003111000000000316100080000000000000018400000000000058970400000000000000009999123100000010000000000000BRBMEBACNPR5211
012024073102BMGB4       010BANCO BMG   PN  EJ  N1   R$  000000000035000000000003560000000000348000000000035100000000003510000000000351000000000035200844000000000000349000000000000122506500000000000000009999123100000010000000000000BRBMGBACNPR0110
012024073102BMIN4       010MERC INVEST PN           R$  000000000160000000000016010000000001600000000000160000000000016000000000001600000000000165000004000000000000001000000000000001600200000000000000009999123100000010000000000000BRBMINACNPR1176
012024073102BMKS3       010BIC MONARK  ON           R$  000000003231100000000329900000000031010000000003170600000000329900000000031700000000003299000016000000000000000095000000000003012113000000000000009999123100000010000000000000BRBMKSACNOR9166
012024073102BMOB3       010BEMOBI TECH ON      NM   R$  000000000142700000000014560000000001421000000000144200000000014460000000001446000000000144701194000000000000180900000000000260922300000000000000009999123100000010000000000000BRBMOBACNOR7103
012024073102BNBR3       010NORD BRASIL ON           R$  000000000943000000000099000000000009375000000000951200000000094000000000009225000000000945000021000000000000002200000000000020928100000000000000009999123100000010000000000000BRBNBRACNOR8208
012024073102BOBR4       010BOMBRIL     PN           R$  000000000020600000000002060000000000200000000000020100000000002010000000000200000000000020100035000000000000020300000000000004083000000000000000009999123100000010000000000000BRBOBRACNPR3128
012024073102CCRO3       010CCR SA      ON      NM   R$  000000000121700000000012490000000001208000000000123400000000012380000000001238000000000124210597000000000010808700000000013347252800000000000000009999123100000010000000000000BRCCROACNOR2145
012024073102CEAB3       010CEA MODAS   ON      NM   R$  000000000084200000000008590000000000831000000000084500000000008440000000000844000000000084504144000000000001863600000000001575264100000000000000009999123100000010000000000000BRCEABACNOR1102
012024073102FESA3       010FERBASA     ON      N1   R$  000000000135000000000013500000000001350000000000135000000000013500000000001300000000000134900002000000000000000300000000000000405000000000000000009999123100000010000000000000BRFESAACNOR8188
012024073102FESA4       010FERBASA     PN      N1   R$  000000000080200000000008290000000000797000000000081600000000008220000000000821000000000082301961000000000000724200000000000591289400000000000000009999123100000010000000000000BRFESAACNPR5084
012024073102FHER3       010FER HERINGERON      NM   R$  000000000040500000000004480000000000403000000000043700000000004370000000000437000000000043800110000000000000035500000000000015531100000000000000009999123100000010000000000000BRFHERACNOR5103
012024073102FIEI3       010FICA        ON           R$  000000000129900000000012990000000001200000000000125800000000012000000000001185000000000129900006000000000000008500000000000010695000000000000000009999123100000010000000000000BRFIEIACNOR2100
012024073102FIQE3       010UNIFIQUE    ON      NM   R$  000000000033700000000003410000000000337000000000033900000000003400000000000339000000000034001053000000000001455900000000000494594300000000000000009999123100000010000000000000BRFIQEACNOR5107
012024073102FLRY3       010FLEURY      ON      NM   R$  000000000150800000000015270000000001501000000000151700000000015160000000001516000000000151806385000000000001867900000000002834729700000000000000009999123100000010000000000000BRFLRYACNOR5138
012024073102ITUB3       010ITAUUNIBANCOON      N1   R$  000000000294600000000029490000000002912000000000292800000000029120000000002912000000000291702178000000000000365200000000001069491200000000000000009999123100000010000000000000BRITUBACNOR4338
012024073102ITUB4       010ITAUUNIBANCOPN      N1   R$  000000000342600000000034410000000003385000000000340900000000033880000000003388000000000339033847000000000025302400000000086270827300000000000000009999123100000010000000000000BRITUBACNPR1338
012024073102RANI3       010IRANI       ON      NM   R$  000000000086600000000008710000000000844000000000085200000000008440000000000844000000000084902617000000000001413100000000001204582200000000000000009999123100000010000000000000BRRANIACNOR5072
012024073102RAPT3       010RANDON PART ON  EJ  N1   R$  000000000090700000000009190000000000884000000000089600000000009070000000000905000000000092300174000000000000033800000000000030307200000000000000009999123100000010000000000000BRRAPTACNOR7163
012024073102RAPT4       010RANDON PART PN  EJ  N1   R$  000000000105500000000010820000000001042000000000106200000000010680000000001068000000000106906955000000000002552800000000002712234700000000000000009999123100000010000000000000BRRAPTACNPR4163
012024073102LUPA3       010LUPATECH    ON      NM   R$  000000000017500000000001800000000000172000000000017400000000001750000000000173000000000017500170000000000000097800000000000017080300000000000000009999123100000010000000000000BRLUPAACNOR8112
012024073102LVTC3       010WDC NETWORKSON      NM   R$  000000000035800000000003700000000000358000000000036400000000003700000000000362000000000037100038000000000000013800000000000005023800000000000000009999123100000010000000000000BRLVTCACNOR4102
012024073102LWSA3       010LWSA        ON      NM   R$  000000000042600000000004410000000000426000000000043500000000004400000000000440000000000044110914000000000006029000000000002625444300000000000000009999123100000010000000000000BRLWSAACNOR8103
012024073102RCSL3       010RECRUSUL    ON           R$  000000000028600000000002860000000000280000000000028100000000002800000000000280000000000028100050000000000000016900000000000004756100000000000000009999123100000010000000000000BRRCSLACNOR4134
012024073102RCSL4       010RECRUSUL    PN           R$  000000000009900000000001010000000000099000000000009900000000000990000000000099000000000010000320000000000000317100000000000031507200000000000000009999123100000010000000000000BRRCSLACNPR1134
012024073102MAPT3       010CEMEPE      ON           R$  000000000042000000000004200000000000420000000000042100000000004200000000000425000000000050000003000000000000000300000000000000126500000000000000009999123100000010000000000000BRMAPTACNOR8106
012024073102MATD3       010MATER DEI   ON      NM   R$  000000000046800000000004790000000000461000000000046800000000004680000000000468000000000047101168000000000000216500000000000101466800000000000000009999123100000010000000000000BRMATDACNOR4104
012024073102ROMI3       010ROMI        ON      NM   R$  000000000104100000000010650000000001040000000000105500000000010550000000001055000000000105600654000000000000178000000000000187825700000000000000009999123100000010000000000000BRROMIACNOR8195
012024073102RPAD3       010ALFA HOLDINGON           R$  000000000088200000000008820000000000881000000000088100000000008810000000000875000000000095500006000000000000002200000000000001938300000000000000009999123100000010000000000000BRRPADACNOR1198
012024073102RPAD6       010ALFA HOLDINGPNB          R$  000000000088000000000008800000000000880000000000088000000000008800000000000866000000000094000001000000000000000100000000000000088000000000000000009999123100000010000000000000BRRPADACNPB2198
012024073102RRRP3       0103R PETROLEUMON      NM   R$  000000000276000000000027800000000002629000000000268700000000027060000000002702000000000270641042000000000012853700000000034541117000000000000000009999123100000010000000000000BRRRRPACNOR5103
012024073102MBLY3       010MOBLY       ON      NM   R$  000000000029200000000003000000000000284000000000029100000000002950000000000290000000000029501195000000000001286100000000000374923300000000000000009999123100000010000000000000BRMBLYACNOR5100
012024073102MDIA3       010M.DIASBRANCOON      NM   R$  000000000273200000000027680000000002694000000000271600000000026940000000002693000000000270902616000000000000627800000000001705466400000000000000009999123100000010000000000000BRMDIAACNOR7135
012024073102TAEE11      010TAESA       UNT     N2   R$  000000000340000000000034080000000003373000000000338400000000033790000000003377000000000338307919000000000001902600000000006438430400000000000000009999123100000010000000000000BRTAEECDAM10147
012024073102TAEE3       010TAESA       ON      N2   R$  000000000112700000000011280000000001120000000000112300000000011210000000001121000000000112500566000000000000091400000000000102647900000000000000009999123100000010000000000000BRTAEEACNOR9147
012024073102TAEE4       010TAESA       PN      N2   R$  000000000113600000000011400000000001129000000000113200000000011300000000001130000000000113300839000000000000179400000000000203251600000000000000009999123100000010000000000000BRTAEEACNPR6147
012024073102TASA3       010TAURUS ARMASON      N2   R$  000000000113500000000011700000000001133000000000114400000000011700000000001143000000000118500087000000000000015000000000000017166300000000000000009999123100000010000000000000BRTASAACNOR7104
012024073102TASA4       010TAURUS ARMASPN      N2   R$  000000000111200000000011530000000001112000000000113100000000011530000000001150000000000115301213000000000000249300000000000282051800000000000000009999123100000010000000000000BRTASAACNPR4104
012024073102TCSA3       010TECNISA     ON      NM   R$  000000000021200000000002250000000000211000000000021700000000002250000000000218000000000022500158000000000000056400000000000012275200000000000000009999123100000010000000000000BRTCSAACNOR3112
012024073102TECN3       010TECHNOS     ON      NM   R$  000000000053000000000005430000000000527000000000053500000000005370000000000535000000000053900217000000000000057700000000000030915600000000000000009999123100000010000000000000BRTECNACNOR6109
012024073102TELB3       010TELEBRAS    ON           R$  000000000136400000000013640000000001330000000000134700000000013300000000001330000000000136200002000000000000000200000000000000269400000000000000009999123100000010000000000000BRTELBACNOR2140
012024073102TELB4       010TELEBRAS    PN           R$  000000000092900000000009500000000000918000000000094000000000009450000000000932000000000094900019000000000000004600000000000004327200000000000000009999123100000010000000000000BRTELBACNPR9140
012024073102TEND3       010TENDA       ON      NM   R$  000000000127500000000013110000000001259000000000129000000000013070000000001300000000000130706816000000000002321800000000002996087400000000000000009999123100000010000000000000BRTENDACNOR4111
012024073102AALR3       010ALLIAR      ON      NM   R$  000000000111700000000011340000000001105000000000112000000000011240000000001120000000000112700060000000000000015600000000000017486200000000000000009999123100000010000000000000BRAALRACNOR6102
012024073102ABCB4       010ABC BRASIL  PN      N2   R$  000000000224100000000022420000000002182000000000219900000000022020000000002201000000000220702950000000000000669400000000001472477300000000000000009999123100000010000000000000BRABCBACNPR4146
012024073102ABEV3       010AMBEV S/A   ON           R$  000000000116000000000011730000000001151000000000115800000000011580000000001156000000000115928182000000000066719000000000077271116600000000000000009999123100000010000000000000BRABEVACNOR1128
012024073102TFCO4       010TRACK FIELD PN      N2   R$  000000000111100000000011110000000001100000000000110500000000011050000000001102000000000110600528000000000000095400000000000105504900000000000000009999123100000010000000000000BRTFCOACNPR8114
012024073102TGMA3       010TEGMA       ON      NM   R$  000000000240500000000024510000000002404000000000243300000000024220000000002422000000000243800748000000000000128000000000000311501200000000000000009999123100000010000000000000BRTGMAACNOR7144
012024073102TIMS3       010TIM         ON      NM   R$  000000000167900000000017490000000001653000000000171700000000017490000000001741000000000174924252000000000014348700000000024642525600000000000000009999123100000010000000000000BRTIMSACNOR5117
012024073102VBBR3       010VIBRA       ON      NM   R$  000000000231200000000023390000000002306000000000232200000000023160000000002315000000000231618560000000000005986700000000013901440900000000000000009999123100000010000000000000BRVBBRACNOR1108
012024073102CPFE3       010CPFL ENERGIAON      NM   R$  000000000327900000000032830000000003242000000000325500000000032480000000003248000000000325706274000000000001244000000000004049910300000000000000009999123100000010000000000000BRCPFEACNOR0137
012024073102ELMD3       010ELETROMIDIA ON      NM   R$  000000000176200000000017820000000001752000000000176400000000017580000000001757000000000178000223000000000000025100000000000044292300000000000000009999123100000010000000000000BRELMDACNOR3101
012024073102EMAE4       010EMAE        PN           R$  000000000436800000000043680000000004231000000000428400000000042310000000004230000000000434900024000000000000002800000000000011996700000000000000009999123100000010000000000000BREMAEACNPR1125
012024073102VITT3       010VITTIA      ON      NM   R$  000000000061300000000006280000000000609000000000061400000000006100000000000609000000000061701190000000000000260000000000000159886700000000000000009999123100000010000000000000BRVITTACNOR4107
012024073102VIVA3       010VIVARA S.A. ON      NM   R$  000000000232600000000024050000000002306000000000238200000000024050000000002393000000000240511264000000000003960400000000009435805100000000000000009999123100000010000000000000BRVIVAACNOR0107
012024073102VIVR3       010VIVER       ON      NM   R$  000000000024200000000002560000000000230000000000024200000000002300000000000230000000000023200260000000000000111900000000000027104500000000000000009999123100000010000000000000BRVIVRACNOR4123
012024073102VIVT3       010TELEF BRASILON  EJ       R$  000000000472000000000048910000000004671000000000484100000000048510000000004850000000000485115902000000000004834600000000023404649000000000000000009999123100000010000000000000BRVIVTACNOR0183
012024073102RECV3       010PETRORECSA  ON      NM   R$  000000000208000000000020850000000002058000000000206800000000020660000000002066000000000206805393000000000001745300000000003610406000000000000000009999123100000010000000000000BRRECVACNOR3107
012024073102REDE3       010REDE ENERGIAON           R$  000000000068400000000006920000000000680000000000068600000000006880000000000684000000000068800012000000000000001800000000000001235300000000000000009999123100000010000000000000BRREDEACNOR7128
012024073102RENT3       010LOCALIZA    ON      NM   R$  000000000421400000000044000000000004205000000000433800000000043830000000004376000000000438430337000000000010333300000000044826010400000000000000009999123100000010000000000000BRRENTACNOR4196
012024073102SYNE3       010SYN PROP TECON      NM   R$  000000000101300000000010270000000001013000000000102000000000010170000000001017000000000102000370000000000000109800000000000112000500000000000000009999123100000010000000000000BRSYNEACNOR2102
012024073102BGIP4       010BANESE      PN           R$  000000000229900000000022990000000002299000000000229900000000022990000000002210000000000229900001000000000000000100000000000000229900000000000000009999123100000010000000000000BRBGIPACNPR8208
012024073102BHIA3       010CASAS BAHIA ON      NM   R$  000000000046100000000004620000000000447000000000045300000000004470000000000447000000000044902293000000000003400100000000001540704000000000000000009999123100000010000000000000BRBHIAACNOR1102
012024073102DASA3       010DASA        ON      NM   R$  000000000027800000000002850000000000275000000000027700000000002750000000000275000000000027902498000000000001334900000000000369913600000000000000009999123100000010000000000000BRDASAACNOR1122
012024073102DMVF3       010D1000VFARMA ON      NM   R$  000000000078700000000007960000000000765000000000077800000000007650000000000763000000000076900492000000000000075800000000000059014900000000000000009999123100000010000000000000BRDMVFACNOR9100
012024073102DOHL4       010DOHLER      PN           R$  000000000041900000000004190000000000419000000000041900000000004190000000000405000000000041400001000000000000000100000000000000041900000000000000009999123100000010000000000000BRDOHLACNPR9066
012024073102DOTZ3       010DOTZ SA     ON      NM   R$  000000000067400000000006740000000000647000000000065900000000006670000000000654000000000066600023000000000000005000000000000003299200000000000000009999123100000010000000000000BRDOTZACNOR7101
012024073102DXCO3       010DEXCO       ON      NM   R$  000000000071000000000007360000000000710000000000072800000000007310000000000731000000000073205569000000000002583700000000001881906900000000000000009999123100000010000000000000BRDXCOACNOR8105
012024073102DESK3       010DESKTOP     ON      NM   R$  000000000163100000000016590000000001621000000000163800000000016290000000001628000000000164301103000000000000206400000000000338171800000000000000009999123100000010000000000000BRDESKACNOR2104
012024073102DEXP3       010DEXXOS PAR  ON      N1   R$  000000000102800000000010280000000001010000000000101400000000010270000000001020000000000103100572000000000000143300000000000145308500000000000000009999123100000010000000000000BRDEXPACNOR1105
012024073102DEXP4       010DEXXOS PAR  PN      N1   R$  000000000101900000000010200000000001019000000000101900000000010200000000001006000000000102000023000000000000091000000000000092811600000000000000009999123100000010000000000000BRDEXPACNPR8105
012024073102DIRR3       010DIRECIONAL  ON      NM   R$  000000000279000000000028000000000002742000000000277600000000027800000000002779000000000278408083000000000002162700000000006004774700000000000000009999123100000010000000000000BRDIRRACNOR0118
012024073102UCAS3       010UNICASA     ON      NM   R$  000000000022500000000002300000000000225000000000022700000000002280000000000226000000000022800078000000000000014900000000000003385300000000000000009999123100000010000000000000BRUCASACNOR1113
012024073102UGPA3       010ULTRAPAR    ON      NM   R$  000000000224700000000022660000000002200000000000222700000000022210000000002221000000000222515322000000000004788100000000010666463900000000000000009999123100000010000000000000BRUGPAACNOR8155
012024073102WEGE3       010WEG         ON      NM   R$  000000000472200000000050880000000004714000000000496900000000050660000000005066000000000506850609000000000021911100000000108889937700000000000000009999123100000010000000000000BRWEGEACNOR0223
012024073102KRSA3       010KORA SAUDE  ON      NM   R$  000000000006900000000000730000000000066000000000006900000000000720000000000072000000000007300938000000000000653300000000000045124900000000000000009999123100000010000000000000BRKRSAACNOR0100
012024073102LAND3       010TERRASANTAPAON      NM   R$  000000000142800000000014550000000001382000000000141400000000013820000000001382000000000139500287000000000000046100000000000065219100000000000000009999123100000010000000000000BRLANDACNOR9103
012024073102LAVV3       010LAVVI       ON      NM   R$  000000000090000000000009250000000000875000000000089000000000008910000000000891000000000089301558000000000000515300000000000458868300000000000000009999123100000010000000000000BRLAVVACNOR4112
012024073102LEVE3       010METAL LEVE  ON      NM   R$  000000000325800000000033880000000003250000000000333500000000033750000000003374000000000337602574000000000000504100000000001681292100000000000000009999123100000010000000000000BRLEVEACNOR2197
012024073102LIPR3       010ELETROPAR   ON           R$  000000000490000000000049000000000004800000000000485000000000048000000000000000000000000480000002000000000000000200000000000000970000000000000000009999123100000010000000000000BRLIPRACNOR7122
012024073102LJQQ3       010QUERO-QUERO ON      NM   R$  000000000039600000000004040000000000389000000000039500000000003910000000000390000000000039604982000000000002072400000000000819140800000000000000009999123100000010000000000000BRLJQQACNOR5104
012024073102LOGG3       010LOG COM PROPON      NM   R$  000000000216000000000021740000000002138000000000215800000000021740000000002158000000000217401995000000000000340200000000000734465300000000000000009999123100000010000000000000BRLOGGACNOR7107
012024073102LOGN3       010LOG-IN      ON      NM   R$  000000000364700000000037770000000003605000000000368400000000037420000000003709000000000374200097000000000000014000000000000051581600000000000000009999123100000010000000000000BRLOGNACNOR3105
012024073102LPSB3       010LOPES BRASILON      NM   R$  000000000016800000000001800000000000168000000000017400000000001740000000000174000000000017600206000000000000088200000000000015432200000000000000009999123100000010000000000000BRLPSBACNOR0114
012024073102LREN3       010LOJAS RENNERON      NM   R$  000000000131500000000013460000000001305000000000132600000000013260000000001325000000000132616564000000000012824000000000017014596800000000000000009999123100000010000000000000BRLRENACNOR1221
012024073102PATI3       010PANATLANTICAON           R$  000000000240000000000024000000000002400000000000240000000000024000000000002300000000000249900001000000000000000100000000000000240000000000000000009999123100000010000000000000BRPATIACNOR6065
012024073102PCAR3       010P.ACUCAR-CBDON      NM   R$  000000000026900000000002720000000000265000000000026700000000002650000000000264000000000026507227000000000010680900000000002854882500000000000000009999123100000010000000000000BRPCARACNOR3167
012024073102PDGR3       010PDG REALT   ON      NM   R$  000000000001800000000000190000000000017000000000001700000000000180000000000017000000000001800274000000000001799200000000000032274600000000000000009999123100000010000000000000BRPDGRACNOR8118
012024073102PDTC3       010PADTEC      ON      NM   R$  000000000018900000000001900000000000187000000000018900000000001900000000000188000000000019000054000000000000022600000000000004280300000000000000009999123100000010000000000000BRPDTCACNOR3101
012024073102PETR3       010PETROBRAS   ON      N2   R$  000000000400000000000040600000000004000000000000403400000000040600000000004050000000000406018765000000000008469400000000034166380100000000000000009999123100000010000000000000BRPETRACNOR9205
012024073102PETR4       010PETROBRAS   PN      N2   R$  000000000370500000000037410000000003696000000000372500000000037410000000003732000000000374136174000000000028561100000000106409066200000000000000009999123100000010000000000000BRPETRACNPR6213
012024073102CMIN3       010CSNMINERACAOON      N2   R$  000000000049900000000005170000000000496000000000051000000000005120000000000512000000000051312556000000000011867700000000006062924000000000000000009999123100000010000000000000BRCMINACNOR2111
012024073102COCE3       010COELCE      ON           R$  000000000306000000000030600000000003060000000000306000000000030600000000003051000000000325000001000000000000000100000000000000306000000000000000009999123100000010000000000000BRCOCEACNOR0146
012024073102COCE5       010COELCE      PNA          R$  000000000304900000000030680000000003040000000000304700000000030640000000003045000000000306500047000000000000015800000000000048148600000000000000009999123100000010000000000000BRCOCEACNPA3147
012024073102COGN3       010COGNA ON    ON      NM   R$  000000000015200000000001550000000000151000000000015200000000001520000000000152000000000015312689000000000042303900000000006452088300000000000000009999123100000010000000000000BRCOGNACNOR2104
012024073102HBOR3       010HELBOR      ON      NM   R$  000000000022200000000002330000000000222000000000022500000000002230000000000222000000000022400518000000000000529300000000000119503900000000000000009999123100000010000000000000BRHBORACNOR3118
012024073102HBRE3       010HBR REALTY  ON      NM   R$  000000000055300000000005590000000000545000000000055100000000005500000000000548000000000055000851000000000000471300000000000259743300000000000000009999123100000010000000000000BRHBREACNOR4100
012024073102HBSA3       010HIDROVIAS   ON      NM   R$  000000000034400000000003580000000000342000000000035100000000003520000000000352000000000035603969000000000002582000000000000906915800000000000000009999123100000010000000000000BRHBSAACNOR0100
012024073102HYPE3       010HYPERA      ON  EJ  NM   R$  000000000295300000000029530000000002868000000000289000000000028800000000002875000000000288110150000000000003231300000000009338856800000000000000009999123100000010000000000000BRHYPEACNOR0143
012024073102JOPA3       010JOSAPAR     ON           R$  000000000228900000000022890000000002289000000000228900000000022890000000002100000000000228900001000000000000000100000000000000228900000000000000009999123100000010000000000000BRJOPAACNOR5135
012024073102JSLG3       010JSL         ON      NM   R$  000000000090800000000009510000000000900000000000093000000000009450000000000945000000000094601076000000000000275900000000000256856300000000000000009999123100000010000000000000BRJSLGACNOR2121
012024073102KEPL3       010KEPLER WEBERON      NM   R$  000000000103600000000010630000000001035000000000105400000000010580000000001057000000000105803155000000000000966900000000001019414900000000000000009999123100000010000000000000BRKEPLACNOR1063
012024073102AURE3       010AUREN       ON      NM   R$  000000000118500000000011950000000001182000000000118800000000011880000000001188000000000118904995000000000003204200000000003807520100000000000000009999123100000010000000000000BRAUREACNOR9104
012024073102AVLL3       010ALPHAVILLE  ON      NM   R$  000000000036500000000003800000000000365000000000037200000000003800000000000359000000000038000009000000000000006800000000000002531200000000000000009999123100000010000000000000BRAVLLACNOR5103
012024073102AZEV3       010AZEVEDO     ON           R$  000000000013800000000001480000000000138000000000014300000000001440000000000144000000000014500419000000000000546800000000000078410500000000000000009999123100000010000000000000BRAZEVACNOR0121
012024073102AZEV4       010AZEVEDO     PN           R$  000000000013800000000001470000000000137000000000014300000000001430000000000143000000000014401067000000000003495000000000000499995800000000000000009999123100000010000000000000BRAZEVACNPR7121
012024073102AZUL4       010AZUL        PN      N2   R$  000000000081000000000008290000000000800000000000081600000000008000000000000800000000000080108201000000000016999200000000013873981800000000000000009999123100000010000000000000BRAZULACNPR4102
012024073102BEEF3       010MINERVA     ON      NM   R$  000000000063100000000006420000000000626000000000063100000000006290000000000629000000000063007067000000000004712500000000002974607400000000000000009999123100000010000000000000BRBEEFACNOR6116
012024073102BRSR3       010BANRISUL    ON      N1   R$  000000000123300000000012330000000001217000000000122700000000012190000000001220000000000123300013000000000000001500000000000001841000000000000000009999123100000010000000000000BRBRSRACNOR3188
012024073102BRSR6       010BANRISUL    PNB     N1   R$  000000000114000000000011650000000001137000000000114600000000011440000000001143000000000114505584000000000001606500000000001842451700000000000000009999123100000010000000000000BRBRSRACNPB4191
012024073102EALT3       010ACO ALTONA  ON           R$  000000000128000000000012890000000001181000000000120600000000012470000000001200000000000124700033000000000000007600000000000009168100000000000000009999123100000010000000000000BREALTACNOR4138
012024073102GGPS3       010GPS         ON      NM   R$  000000000170000000000017510000000001693000000000173200000000017400000000001735000000000174110756000000000004684500000000008116450000000000000000009999123100000010000000000000BRGGPSACNOR9103
012024073102GMAT3       010GRUPO MATEUSON      NM   R$  000000000066700000000006780000000000667000000000067100000000006690000000000669000000000067307087000000000003216500000000002159924900000000000000009999123100000010000000000000BRGMATACNOR7102
012024073102CEBR3       010CEB         ON           R$  000000000200200000000020020000000001983000000000198600000000019860000000001975000000000199000016000000000000002600000000000005165900000000000000009999123100000010000000000000BRCEBRACNOR5125
012024073102CEBR5       010CEB         PNA          R$  000000000179000000000017900000000001760000000000177000000000017800000000001758000000000178000026000000000000003700000000000006551300000000000000009999123100000010000000000000BRCEBRACNPA8124
012024073102CEBR6       010CEB         PNB          R$  000000000188200000000018840000000001800000000000185100000000018490000000001849000000000185700058000000000000017300000000000032038000000000000000009999123100000010000000000000BRCEBRACNPB6124
012024073102CEDO4       010CEDRO       PN      N1   R$  000000000241100000000024110000000002400000000000240300000000024000000000002170000000000240000002000000000000000300000000000000721100000000000000009999123100000010000000000000BRCEDOACNPR5128
012024073102CGAS5       010COMGAS      PNA          R$  000000001115100000000111520000000011000000000001114100000000111500000000011150000000001129000004000000000000001700000000000018940300000000000000009999123100000010000000000000BRCGASACNPA3160
012024073102CGRA3       010GRAZZIOTIN  ON           R$  000000000248900000000025220000000002466000000000249000000000024660000000002466000000000256900017000000000000003200000000000007969700000000000000009999123100000010000000000000BRCGRAACNOR2083
012024073102CGRA4       010GRAZZIOTIN  PN           R$  000000000250300000000025120000000002484000000000249400000000024890000000002487000000000248900029000000000000004400000000000010977400000000000000009999123100000010000000000000BRCGRAACNPR9083
012024073102CIEL3       010CIELO       ON      NM   R$  000000000057600000000005770000000000575000000000057600000000005770000000000576000000000057704111000000000018477600000000010646974800000000000000009999123100000010000000000000BRCIELACNOR3157
012024073102GOAU3       010GERDAU MET  ON      N1   R$  000000000106200000000010790000000001062000000000107200000000010690000000001069000000000108000102000000000000017600000000000018873600000000000000009999123100000010000000000000BRGOAUACNOR1267
012024073102GOAU4       010GERDAU MET  PN      N1   R$  000000000105300000000010670000000001051000000000106200000000010630000000001063000000000106406666000000000004776500000000005073748000000000000000009999123100000010000000000000BRGOAUACNPR8268
012024073102JALL3       010JALLESMACHADON  ED  NM   R$  000000000068300000000007020000000000683000000000069700000000007000000000000700000000000070101024000000000000348000000000000242689200000000000000009999123100000010000000000000BRJALLACNOR0106
012024073102JBSS3       010JBS         ON      NM   R$  000000000343700000000034600000000003350000000000338800000000033720000000003371000000000337921622000000000010988100000000037235544900000000000000009999123100000010000000000000BRJBSSACNOR8121
012024073102MRFG3       010MARFRIG     ON      NM   R$  000000000115600000000011670000000001129000000000114200000000011310000000001131000000000113413741000000000004855500000000005545219800000000000000009999123100000010000000000000BRMRFGACNOR0116
012024073102MRVE3       010MRV         ON      NM   R$  000000000065600000000006850000000000649000000000067200000000006730000000000672000000000067418028000000000018191200000000012236154700000000000000009999123100000010000000000000BRMRVEACNOR2127
012024073102ATOM3       010ATOMPAR     ON           R$  000000000019900000000001990000000000193000000000019500000000001960000000000195000000000019900044000000000000026500000000000005175900000000000000009999123100000010000000000000BRATOMACNOR1106
012024073102CLSA3       010CLEARSALE   ON      NM   R$  000000000084700000000008520000000000809000000000083000000000008290000000000828000000000082903232000000000001199600000000000996229200000000000000009999123100000010000000000000BRCLSAACNOR0100
012024073102CLSC4       010CELESC      PN      N2   R$  000000000757000000000076190000000007525000000000756600000000075250000000007525000000000761500016000000000000002500000000000018915200000000000000009999123100000010000000000000BRCLSCACNPR3131
012024073102CMIG3       010CEMIG       ON      N1   R$  000000000126600000000012720000000001255000000000126200000000012590000000001256000000000126200575000000000000139400000000000176014900000000000000009999123100000010000000000000BRCMIGACNOR6242
012024073102CMIG4       010CEMIG       PN      N1   R$  000000000108500000000011030000000001071000000000108900000000010860000000001086000000000108716990000000000020745900000000022598424900000000000000009999123100000010000000000000BRCMIGACNPR3243
012024073102EALT4       010ACO ALTONA  PN           R$  000000000115500000000012600000000001133000000000120900000000012310000000001231000000000125000403000000000000288300000000000348838900000000000000009999123100000010000000000000BREALTACNPR1138
012024073102ECOR3       010ECORODOVIAS ON      NM   R$  000000000068900000000007130000000000686000000000070200000000007090000000000708000000000071004838000000000003390800000000002383475000000000000000009999123100000010000000000000BRECORACNOR8120
012024073102EGIE3       010ENGIE BRASILON      NM   R$  000000000442000000000044430000000004402000000000441900000000044230000000004419000000000442504399000000000000867400000000003833734400000000000000009999123100000010000000000000BREGIEACNOR9126
012024073102EKTR4       010ELEKTRO     PN  ED       R$  000000000405000000000042400000000004000000000000405500000000040580000000004001000000000425400011000000000000001700000000000006894400000000000000009999123100000010000000000000BREKTRACNPR7164
012024073102ELET3       010ELETROBRAS  ON      N1   R$  000000000388700000000039970000000003884000000000395500000000039570000000003954000000000396033948000000000014446900000000057146728800000000000000009999123100000010000000000000BRELETACNOR6160
012024073102ELET6       010ELETROBRAS  PNB     N1   R$  000000000426700000000044240000000004258000000000437200000000043610000000004360000000000436209523000000000002432000000000010634147500000000000000009999123100000010000000000000BRELETACNPB7077
012024073102GRND3       010GRENDENE    ON      NM   R$  000000000058300000000005930000000000583000000000058800000000005880000000000587000000000059002149000000000000903700000000000531758900000000000000009999123100000010000000000000BRGRNDACNOR3174
012024073102GUAR3       010GUARARAPES  ON      NM   R$  000000000069200000000007150000000000685000000000070100000000006850000000000684000000000068604042000000000002066600000000001450372700000000000000009999123100000010000000000000BRGUARACNOR4173
012024073102HAGA3       010HAGA S/A    ON           R$  000000000027000000000002740000000000265000000000026900000000002660000000000266000000000026700039000000000000008000000000000002152700000000000000009999123100000010000000000000BRHAGAACNOR7103
012024073102HAGA4       010HAGA S/A    PN           R$  000000000011600000000001160000000000116000000000011600000000001160000000000116000000000011700002000000000000000900000000000000104400000000000000009999123100000010000000000000BRHAGAACNPR4103
012024073102HAPV3       010HAPVIDA     ON      NM   R$  000000000041300000000004240000000000406000000000041100000000004070000000000407000000000040843949000000000078726100000000032378861300000000000000009999123100000010000000000000BRHAPVACNOR4114
012024073102JHSF3       010JHSF PART   ON      NM   R$  000000000040200000000004110000000000402000000000040600000000004080000000000408000000000040903088000000000003763600000000001529637700000000000000009999123100000010000000000000BRJHSFACNOR2137
012024073102EPAR3       010EMBPAR S/A  ON           R$  000000000059100000000005910000000000586000000000058700000000005870000000000586000000000059400018000000000000006400000000000003760300000000000000009999123100000010000000000000BREPARACNOR9105
012024073102EQMA3B      010EQTLMARANHAOON      MB   R$  000000000252600000000025490000000002501000000000251000000000025490000000002505000000000255500004000000000000000800000000000002008600000000000000009999123100000010000000000000BREQMAACNOR8108
012024073102EQPA3       010EQTL PARA   ON           R$  000000000073000000000007340000000000730000000000073200000000007310000000000725000000000074100011000000000000001200000000000000879100000000000000009999123100000010000000000000BREQPAACNOR1111
012024073102EQTL3       010EQUATORIAL  ON      NM   R$  000000000323300000000032760000000003230000000000326100000000032640000000003262000000000326430946000000000009656900000000031498553800000000000000009999123100000010000000000000BREQTLACNOR0130
012024073102ITSA3       010ITAUSA      ON      N1   R$  000000000102900000000010290000000001015000000000102000000000010180000000001016000000000101800264000000000000065900000000000067226800000000000000009999123100000010000000000000BRITSAACNOR0441
012024073102ITSA4       010ITAUSA      PN      N1   R$  000000000102600000000010270000000001012000000000101700000000010170000000001014000000000101727769000000000033386400000000033976668300000000000000009999123100000010000000000000BRITSAACNPR7441
012024073102MTRE3       010MITRE REALTYON  ED  NM   R$  000000000038200000000003960000000000381000000000039100000000003950000000000392000000000039501105000000000000677100000000000264935700000000000000009999123100000010000000000000BRMTREACNOR6113
012024073102MTSA4       010METISA      PN           R$  000000000431000000000044800000000004310000000000439400000000044800000000004206000000000448000016000000000000004600000000000020214100000000000000009999123100000010000000000000BRMTSAACNPR9072
012024073102MULT3       010MULTIPLAN   ON      N2   R$  000000000237800000000024180000000002377000000000240200000000023960000000002396000000000240513882000000000003859600000000009274009700000000000000009999123100000010000000000000BRMULTACNOR5139
012024073102MYPK3       010IOCHP-MAXIONON      NM   R$  000000000124800000000012790000000001240000000000126000000000012490000000001249000000000125905370000000000001265900000000001595615100000000000000009999123100000010000000000000BRMYPKACNOR7155
012024073102AERI3       010AERIS       ON      NM   R$  000000000055100000000005600000000000534000000000054500000000005340000000000534000000000053600420000000000000121800000000000066468400000000000000009999123100000010000000000000BRAERIACNOR4102
012024073102AESB3       010AES BRASIL  ON      NM   R$  000000000113000000000011350000000001127000000000112900000000011290000000001128000000000113102720000000000003377600000000003815252800000000000000009999123100000010000000000000BRAESBACNOR7106
012024073102AFLT3       010AFLUENTE T  ON           R$  000000000071800000000007180000000000718000000000071800000000007180000000000718000000000074400001000000000000000100000000000000071800000000000000009999123100000010000000000000BRAFLTACNOR1122
012024073102AGRO3       010BRASILAGRO  ON      NM   R$  000000000261800000000026540000000002613000000000263200000000026350000000002635000000000263801132000000000000202600000000000533345800000000000000009999123100000010000000000000BRAGROACNOR7114
012024073102AGXY3       010AGROGALAXY  ON      NM   R$  000000000013400000000001410000000000133000000000013700000000001360000000000135000000000013600476000000000000216500000000000029731000000000000000009999123100000010000000000000BRAGXYACNOR4103
012024073102AHEB3       010SPTURIS     ON           R$  000000000350000000000035000000000003500000000000350000000000035000000000003000000000000395000001000000000000000100000000000000350000000000000000009999123100000010000000000000BRAHEBACNOR0106
012024073102NEOE3       010NEOENERGIA  ON      NM   R$  000000000183500000000018420000000001810000000000182300000000018120000000001812000000000181602030000000000000491300000000000896092200000000000000009999123100000010000000000000BRNEOEACNOR3123
012024073102IFCM3       010INFRACOMM   ON      NM   R$  000000000003500000000000360000000000034000000000003400000000000340000000000034000000000003501555000000000005326900000000000184530600000000000000009999123100000010000000000000BRIFCMACNOR8101
012024073102IGTI11      010IGUATEMI S.AUNT     N1   R$  000000000209300000000021190000000002081000000000210400000000021080000000002106000000000211211749000000000003272100000000006885525900000000000000009999123100000010000000000000BRIGTICDAM16106
012024073102IGTI3       010IGUATEMI S.AON      N1   R$  000000000026000000000002620000000000259000000000025900000000002590000000000258000000000025900141000000000000052500000000000013632400000000000000009999123100000010000000000000BRIGTIACNOR8106
012024073102INEP3       010INEPAR      ON           R$  000000000019800000000002010000000000187000000000019200000000001890000000000189000000000019300084000000000000051500000000000009902900000000000000009999123100000010000000000000BRINEPACNOR1143
012024073102INEP4       010INEPAR      PN           R$  000000000019900000000001990000000000185000000000019500000000001990000000000192000000000019900047000000000000016000000000000003129100000000000000009999123100000010000000000000BRINEPACNPR8143
012024073102INTB3       010INTELBRAS   ON      NM   R$  000000000216200000000021870000000002095000000000212300000000021050000000002105000000000212006557000000000001643400000000003489125000000000000000009999123100000010000000000000BRINTBACNOR9111
012024073102IRBR3       010IRBBRASIL REON      NM   R$  000000000290800000000029550000000002904000000000293200000000029310000000002931000000000294802947000000000000642300000000001883245400000000000000009999123100000010000000000000BRIRBRACNOR4111
012024073102B3SA3       010B3          ON      NM   R$  000000000107800000000010860000000001067000000000107900000000010850000000001085000000000108626209000000000032559100000000035149903000000000000000009999123100000010000000000000BRB3SAACNOR6133
012024073102BEES3       010BANESTES    ON           R$  000000000089400000000009020000000000893000000000089600000000009020000000000894000000000090200044000000000000007200000000000006456200000000000000009999123100000010000000000000BRBEESACNOR9393
012024073102BEES4       010BANESTES    PN           R$  000000000097000000000009700000000000962000000000096400000000009620000000000960000000000096600021000000000000004200000000000004052900000000000000009999123100000010000000000000BRBEESACNPR6318
012024073107NUTR3       010NUTRIPLANT  ON      MA   R$  000000000052700000000005270000000000499000000000051400000000005270000000000511000000000052700059000000000000010700000000000005507300000000000000009999123100000010000000000000BRNUTRACNOR0104
012024073107TXRX4       010TEX RENAUX  PN           R$  000000000022500000000002250000000000225000000000022500000000002250000000000225000000000023700001000000000000000200000000000000045000000000000000009999123100000010000000000000BRTXRXACNPR0142
012024073108PMAM3       010PARANAPANEMAON      NM   R$  000000000024100000000002410000000000234000000000023500000000002350000000000235000000000023600083000000000000053900000000000012702200000000000000009999123100000010000000000000BRPMAMACNOR3039
012024073108CTNM4       010COTEMINAS   PN           R$  000000000009800000000000980000000000098000000000009800000000000980000000000097000000000009800011000000000000005600000000000000548800000000000000009999123100000010000000000000BRCTNMACNPR6129
012024073108CTSA3       010SANTANENSE  ON           R$  000000000030600000000003120000000000290000000000029800000000003040000000000295000000000030400041000000000000012500000000000003736400000000000000009999123100000010000000000000BRCTSAACNOR3062
012024073108CTSA4       010SANTANENSE  PN           R$  000000000016500000000001680000000000151000000000015700000000001510000000000151000000000015500240000000000000099100000000000015584200000000000000009999123100000010000000000000BRCTSAACNPR0062
012024073108ETER3       010ETERNIT     ON      NM   R$  000000000056700000000005790000000000560000000000056900000000005790000000000574000000000057900635000000000000298200000000000169810400000000000000009999123100000010000000000000BRETERACNOR3243
012024073108SGPS3       010SPRINGS     ON      NM   R$  000000000021000000000002100000000000210000000000021000000000002100000000000205000000000021500007000000000000007000000000000001470000000000000000009999123100000010000000000000BRSGPSACNOR4105
012024073108RSID3       010ROSSI RESID ON      NM   R$  000000000040400000000004050000000000400000000000040100000000004040000000000404000000000041000024000000000000006200000000000002490500000000000000009999123100000010000000000000BRRSIDACNOR8120
012024073108AMER3       010AMERICANAS  ON      NM   R$  000000000005800000000000590000000000055000000000005600000000000550000000000055000000000005604592000000000040929300000000002326256000000000000000009999123100000010000000000000BRAMERACNOR6102
012024073108NEXP3       010NEXPE       ON           R$  000000000042200000000004220000000000410000000000041000000000004100000000000410000000000041600008000000000000001700000000000000698600000000000000009999123100000010000000000000BRNEXPACNOR0101
012024073108OIBR3       010OI          ON      N1   R$  000000000042100000000004240000000000416000000000041900000000004170000000000417000000000041800707000000000000580100000000000243323100000000000000009999123100000010000000000000BROIBRACNOR1111
012024073108OIBR4       010OI          PN      N1   R$  000000000122600000000013450000000001200000000000125500000000013240000000001287000000000132500103000000000000013500000000000016943400000000000000009999123100000010000000000000BROIBRACNPR8110
012024073108OSXB3       010OSX BRASIL  ON      NM   R$  000000000037800000000003780000000000369000000000037200000000003770000000000376000000000038400020000000000000008000000000000002982700000000000000009999123100000010000000000000BROSXBACNOR8109
012024073108RNEW3       010RENOVA      ON      N2   R$  000000000009000000000000900000000000087000000000008700000000000870000000000087000000000008900067000000000000040400000000000003536400000000000000009999123100000010000000000000BRRNEWACNOR8110
012024073108RNEW4       010RENOVA      PN      N2   R$  000000000008800000000000890000000000087000000000008700000000000880000000000087000000000008800042000000000000038500000000000003385900000000000000009999123100000010000000000000BRRNEWACNPR5110
012024073108RPMG3       010PET MANGUINHON           R$  000000000027300000000002920000000000273000000000028200000000002820000000000280000000000028700179000000000000025600000000000007244700000000000000009999123100000010000000000000BRRPMGACNOR9194
012024073108RNEW11      010RENOVA      UNT     N2   R$  000000000026800000000002680000000000265000000000026500000000002650000000000265000000000026900003000000000000000700000000000000185800000000000000009999123100000010000000000000BRRNEWCDAM15110
012024073108LIGT3       010LIGHT S/A   ON      NM   R$  000000000040800000000004150000000000390000000000040400000000004140000000000407000000000041402531000000000000783000000000000316776100000000000000009999123100000010000000000000BRLIGTACNOR2124
012024073108HOOT4       010HOTEIS OTHONPN           R$  000000000023500000000002780000000000235000000000025700000000002460000000000246000000000025000055000000000000015900000000000004094000000000000000009999123100000010000000000000BRHOOTACNPR9015
012024073108BDLL4       010BARDELLA    PN           R$  000000000096000000000009600000000000960000000000096000000000009600000000000905000000000100600001000000000000000300000000000000288000000000000000009999123100000010000000000000BRBDLLACNPR8151
012024073108ATMP3       010ATMASA      ON           R$  000000000019000000000001900000000000188000000000018800000000001880000000000187000000000018800005000000000000001500000000000000282400000000000000009999123100000010000000000000BRATMPACNOR8100
012024073108JFEN3       010JOAO FORTES ON           R$  000000000003600000000000390000000000033000000000003600000000000350000000000034000000000003502879000000000011451100000000000414415100000000000000009999123100000010000000000000BRJFENACNOR0059
012024073110ZAMP1       010ZAMP S.A.   DIR ORD      R$  000000000001700000000000170000000000005000000000000700000000000070000000000007000000000000801574000000000001089300000000000007965700000000000000009999123100000010000000000000BRZAMPD01OR0100
012024073110RENT1       010LOCALIZA    DIR ORD NM   R$  000000000099800000000011590000000000987000000000109500000000011590000000001099000000000116700098000000000000052600000000000057639200000000000000009999123100000010000000000000BRRENTD06OR8195
012024073112BRIM11      010FII BRIO II CI           R$  000000009890000000001050000000000098900000000010347500000001050000000000098901000000014140000004000000000000000004000000000000413900000000000000009999123100000010000000000000BRBRIMCTF008128
012024073112BRIP11      010FII BRIO IIICI           R$  000000009199700000000919970000000089003000000009083300000000890030000000089003000000009199700003000000000000000006000000000000545000000000000000009999123100000010000000000000BRBRIPCTF001114
012024073112CXAG11      010FII CAIXA AGCI           R$  000000000766800000000077290000000007668000000000768700000000077280000000007715000000000772800085000000000000001373000000000010555343000000000000009999123100000010000000000000BRCXAGCTF003129
012024073112CXCE11      010FII CX CEDAECI           R$  000000000410000000000041500000000004080000000000411900000000041010000000004101000000000413500027000000000000000360000000000001483172000000000000009999123100000010000000000000BRCXCECTF004270
012024073112CXCI11      010FII CAIXA CICI           R$  000000000807100000000082160000000008071000000000816200000000081940000000008120000000000819400056000000000000000755000000000006162980000000000000009999123100000010000000000000BRCXCICTF005128
012024073112CXCO11      010FII CEF CORPCI           R$  000000000748600000000074870000000007420000000000746000000000074830000000007480000000000748500139000000000000001221000000000009109301000000000000009999123100000010000000000000BRCXCOCTF003139
012024073112CXRI11      010FII CX RBRAVCI           R$  000000000778500000000078780000000007600000000000767300000000078780000000007877000000000787800037000000000000017763000000000136312708000000000000009999123100000010000000000000BRCXRICTF003229
012024073112CXTL11      010FII CX TRX  CI           R$  000000002287600000000229100000000022650000000002282100000000226500000000022650000000002280700014000000000000000022000000000000502074000000000000009999123100000010000000000000BRCXTLCTF003238
012024073112CYCR11      010FII CYRELA  CI           R$  000000000097900000000009790000000000966000000000097400000000009790000000000976000000000097902987000000000000072317000000000070468079000000000000009999123100000010000000000000BRCYCRCTF004140
012024073112ANCR11      010FII ANCAR ICCI           R$  000000000810000000000081000000000008100000000000810000000000081000000000007700000000000810000001000000000000000001000000000000008100000000000000009999123100000010000000000000BRANCRCTF001159
012024073112APTO11      010FII NAVI RSDCI           R$  000000000095600000000009560000000000933000000000094700000000009500000000000948000000000095000186000000000000003340000000000003164649000000000000009999123100000010000000000000BRAPTOCTF007132
012024073112APXM11      010FII APEX MS CI           R$  000000000970000000000111560000000009700000000000994500000000099000000000009179000000000990000117000000000000002004000000000019930522000000000000009999123100000010000000000000BRAPXMCTF003111
012024073112AROA11      010FII AROA    CI           R$  000000000010000000000001000000000000098000000000009800000000000990000000000098000000000009900101000000000000003377000000000000332563000000000000009999123100000010000000000000BRAROACTF003119
012024073112ARRI11      010FII ATRIO   CI           R$  000000000091000000000009180000000000907000000000091000000000009170000000000912000000000091703202000000000000042946000000000039115718000000000000009999123100000010000000000000BRARRICTF009162
012024073112ARXD11      010FII ARXD R  CI           R$  000000000989800000000098980000000009898000000000989900000000098980000000009811000000000990000002000000000000000011000000000000108898000000000000009999123100000010000000000000BRARXDCTF008116
012024073112BBFI11      010FII BB PROGRCI           R$  000000007212200000000721220000000071000000000007135300000000714140000000071301000000007160000129000000000000000431000000000030753356000000000000009999123100000010000000000000BRBBFICTF006329
012024073112BBFO11      010FII BB FOF  CI           R$  000000000728800000000073190000000007236000000000726900000000072500000000007256000000000728400106000000000000004042000000000029382552000000000000009999123100000010000000000000BRBBFOCTF004142
012024073112BBIG11      010FII BBIG    CI           R$  000000000092000000000009320000000000918000000000092900000000009320000000000931000000000093200367000000000000091641000000000085152854000000000000009999123100000010000000000000BRBBIGCTF004102
012024073112BBRC11      010FII BB CORP CI           R$  000000001149000000000114900000000011380000000001145300000000114500000000011453000000001149000055000000000000000242000000000002771656000000000000009999123100000010000000000000BRBBRCCTF004254
012024073112BPFF11      010FII ABSOLUTOCI           R$  000000000702200000000070720000000007001000000000702900000000070010000000007001000000000702500626000000000000005617000000000039486598000000000000009999123100000010000000000000BRBPFFCTF002237
012024073112BPML11      010FII BTG SHOPCI           R$  000000000872400000000088630000000008724000000000880100000000088630000000008863000000000889003737000000000000065167000000000573545802000000000000009999123100000010000000000000BRBPMLCTF006132
012024073112BRCO11      010FII BRESCO  CI           R$  000000001168500000000117850000000011603000000001169100000000116960000000011671000000001169605064000000000000016472000000000192575402000000000000009999123100000010000000000000BRBRCOCTF007158
012024073112PLCR11      010FII PLURAL RCI           R$  000000000860100000000086490000000008520000000000859100000000085760000000008576000000000859500246000000000000002635000000000022638878000000000000009999123100000010000000000000BRPLCRCTF003156
012024073112PMIS11      010FII PMIS    CI           R$  000000000095900000000010150000000000928000000000096100000000010150000000000958000000000099001155000000000000061653000000000059275924000000000000009999123100000010000000000000BRPMISCTF006107
012024073112PNDL11      010FII PANORAMACI           R$  000000011950000000001195000000000119500000000011950000000001195000000000000000000000011970000001000000000000000001000000000000119500000000000000009999123100000010000000000000BRPNDLCTF000103
012024073112PORD11      010FII POLO CRICI           R$  000000000091700000000009170000000000910000000000091200000000009140000000000912000000000091401182000000000000049546000000000045199772000000000000009999123100000010000000000000BRPORDCTF005175
012024073112BRCR11      010FII BC FUND CI           R$  000000000507800000000050920000000004970000000000500100000000049990000000004982000000000499908678000000000000058488000000000292544624000000000000009999123100000010000000000000BRBRCRCTF000268
012024073112CTXT11      010FII C TEXTILCI           R$  000000000084500000000008450000000000845000000000084500000000008450000000000821000000000084600001000000000000000001000000000000000845000000000000009999123100000010000000000000BRCTXTCTF014207
012024073112CVBI11      010FII VBI CRI CI           R$  000000000930000000000094000000000009300000000000935200000000093700000000009365000000000937003640000000000000013891000000000129912678000000000000009999123100000010000000000000BRCVBICTF001167
012024073112EURO11      010FII EUROPAR CI           R$  000000002588700000000258880000000024807000000002520800000000254880000000025296000000002548900035000000000000000225000000000005671926000000000000009999123100000010000000000000BREUROCTF011360
012024073112EVBI11      010FII VBI CON CI           R$  000000000099800000000010090000000000982000000000098300000000010060000000000982000000000100600065000000000000510302000000000501635032000000000000009999123100000010000000000000BREVBICTF007151
012024073112EXES11      010FII EXES    CI           R$  000000000093900000000009900000000000939000000000098500000000009900000000000941000000000099000005000000000000000032000000000000031527000000000000009999123100000010000000000000BREXESCTF006127
012024073112FAED11      010FII ANH EDUCCI           R$  000000001540400000000154040000000015332000000001535700000000153520000000015340000000001535200010000000000000000018000000000000276429000000000000009999123100000010000000000000BRFAEDCTF003279
012024073112FATN11      010FII ATHENA ICI           R$  000000000919800000000091990000000009165000000000918000000000091790000000009178000000000918502664000000000000012470000000000114474990000000000000009999123100000010000000000000BRFATNCTF000153
012024073112FCFL11      010FII CAMPUSFLCI           R$  000000001169100000000117040000000011604000000001168800000000116910000000011670000000001172900201000000000000001631000000000019063461000000000000009999123100000010000000000000BRFCFLCTF009271
012024073112ZAGH11      010FII ZAGH    CI           R$  000000000117500000000012000000000001175000000000119500000000011990000000000880000000000119900006000000000000000013000000000000015540000000000000009999123100000010000000000000BRZAGHCTF007105
012024073112ZAVC11      010FII ZAVIT C CI           R$  000000000100100000000010010000000000990000000000099800000000009900000000000990000000000100100004000000000000000005000000000000004994000000000000009999123100000010000000000000BRZAVCCTF007103
012024073112ZAVI11      010FII ZAVIT R CI           R$  000000001031400000000103140000000010150000000001020700000000101800000000010200000000001028700285000000000000000713000000000007277620000000000000009999123100000010000000000000BRZAVICTF004122
