00COTAHIST.2024BOVESPA 20240725                                                                                                                                                                                                                      
012024072502ITSA3       010ITAUSA      ON      N1   R$  000000000102400000000010270000000001014000000000101900000000010190000000001017000000000101900236000000000000067900000000000069237800000000000000009999123100000010000000000000BRITSAACNOR0441
012024072502ITSA4       010ITAUSA      PN      N1   R$  000000000102200000000010290000000001011000000000101900000000010160000000001016000000000101817422000000000025757400000000026259029600000000000000009999123100000010000000000000BRITSAACNPR7441
012024072502MGEL4       010MANGELS INDLPN           R$  000000000131800000000013500000000001317000000000132000000000013500000000001350000000000136800014000000000000008600000000000011357300000000000000009999123100000010000000000000BRMGELACNPR3147
012024072502MGLU3       010MAGAZ LUIZA ON      NM   R$  000000000116700000000011930000000001154000000000117400000000011600000000001160000000000116116937000000000014540200000000017076930900000000000000009999123100000010000000000000BRMGLUACNOR2124
012024072502CGAS3       010COMGAS      ON           R$  000000001051000000000105100000000010510000000001051000000000105100000000010511000000001109000002000000000000000200000000000002102000000000000000009999123100000010000000000000BRCGASACNOR0163
012024072502CGAS5       010COMGAS      PNA          R$  000000001103900000000110390000000010960000000001099200000000109600000000010910000000001130000005000000000000000500000000000005496100000000000000009999123100000010000000000000BRCGASACNPA3160
012024072502BHIA3       010CASAS BAHIA ON      NM   R$  000000000047600000000005050000000000476000000000049000000000004860000000000486000000000048705215000000000004778700000000002346208500000000000000009999123100000010000000000000BRBHIAACNOR1102
012024072502BRKM3       010BRASKEM     ON      N1   R$  000000000177800000000017980000000001773000000000178200000000017730000000001773000000000195000027000000000000003900000000000006950900000000000000009999123100000010000000000000BRBRKMACNOR1119
012024072502BRKM5       010BRASKEM     PNA     N1   R$  000000000177500000000017970000000001762000000000178200000000017930000000001792000000000179306147000000000001768400000000003151760500000000000000009999123100000010000000000000BRBRKMACNPA4121
012024072502BRKM6       010BRASKEM     PNB     N1   R$  000000000140100000000014010000000001401000000000140100000000014010000000001300000000000155000014000000000000008400000000000011774300000000000000009999123100000010000000000000BRBRKMACNPB2114
012024072502BRSR3       010BANRISUL    ON      N1   R$  000000000120600000000012240000000001170000000000119100000000011700000000001150000000000117000041000000000000006200000000000007387000000000000000009999123100000010000000000000BRBRSRACNOR3188
012024072502BRSR6       010BANRISUL    PNB     N1   R$  000000000115500000000011650000000001123000000000113500000000011240000000001124000000000112503882000000000001238600000000001406381200000000000000009999123100000010000000000000BRBRSRACNPB4191
012024072502ESPA3       010ESPACOLASER ON      NM   R$  000000000010000000000001000000000000096000000000009800000000000990000000000097000000000009901779000000000001205000000000000118378400000000000000009999123100000010000000000000BRESPAACNOR7103
012024072502EUCA3       010EUCATEX     ON      N1   R$  000000000162600000000016260000000001626000000000162600000000016260000000001625000000000169900001000000000000000100000000000000162600000000000000009999123100000010000000000000BREUCAACNOR1157
012024072502EUCA4       010EUCATEX     PN      N1   R$  000000000153500000000015370000000001517000000000152900000000015360000000001536000000000154000144000000000000020600000000000031498600000000000000009999123100000010000000000000BREUCAACNPR8044
012024072502SNSY5       010SANSUY      PNA          R$  000000000055300000000005750000000000551000000000055400000000005510000000000551000000000055500012000000000000002100000000000001164400000000000000009999123100000010000000000000BRSNSYACNPA5111
012024072502SOJA3       010BOA SAFRA   ON      NM   R$  000000000151000000000015230000000001500000000000151000000000015230000000001510000000000152301142000000000000202900000000000306429700000000000000009999123100000010000000000000BRSOJAACNOR9105
012024072502SOMA3       010GRUPO SOMA  ON      NM   R$  000000000062300000000006270000000000605000000000061200000000006070000000000607000000000060907521000000000003522400000000002156393500000000000000009999123100000010000000000000BRSOMAACNOR3102
012024072502SRNA3       010SERENA      ON      NM   R$  000000000086900000000008760000000000853000000000086200000000008610000000000857000000000086104051000000000001177800000000001015915300000000000000009999123100000010000000000000BRSRNAACNOR4100
012024072502STBP3       010SANTOS BRP  ON      NM   R$  000000000143100000000014310000000001377000000000139100000000013850000000001384000000000138508434000000000003206800000000004462921700000000000000009999123100000010000000000000BRSTBPACNOR3130
012024072502CGRA3       010GRAZZIOTIN  ON           R$  000000000254700000000025470000000002547000000000254700000000025470000000002546000000000259000001000000000000000100000000000000254700000000000000009999123100000010000000000000BRCGRAACNOR2083
012024072502CGRA4       010GRAZZIOTIN  PN           R$  000000000257500000000025890000000002575000000000257800000000025750000000002565000000000257500004000000000000000400000000000001031400000000000000009999123100000010000000000000BRCGRAACNPR9083
012024072502CIEL3       010CIELO       ON      NM   R$  000000000057400000000005760000000000574000000000057400000000005750000000000575000000000057606501000000000012976600000000007459367600000000000000009999123100000010000000000000BRCIELACNOR3157
012024072502CLSA3       010CLEARSALE   ON      NM   R$  000000000084400000000008580000000000804000000000083600000000008150000000000810000000000081703617000000000001689900000000001413718000000000000000009999123100000010000000000000BRCLSAACNOR0100
012024072502CLSC4       010CELESC      PN      N2   R$  000000000757700000000076280000000007519000000000758600000000076260000000007518000000000762700008000000000000001700000000000012896900000000000000009999123100000010000000000000BRCLSCACNPR3131
012024072502CMIG3       010CEMIG       ON      N1   R$  000000000126100000000012810000000001260000000000126900000000012650000000001263000000000126700620000000000000124300000000000157778000000000000000009999123100000010000000000000BRCMIGACNOR6242
012024072502CMIG4       010CEMIG       PN      N1   R$  000000000106100000000010760000000001058000000000106700000000010630000000001063000000000106521393000000000008324100000000008886787100000000000000009999123100000010000000000000BRCMIGACNPR3243
012024072502CMIN3       010CSNMINERACAOON      N2   R$  000000000049800000000005080000000000493000000000050100000000005020000000000502000000000050410624000000000006438800000000003226767100000000000000009999123100000010000000000000BRCMINACNOR2111
012024072502EGIE3       010ENGIE BRASILON      NM   R$  000000000443400000000044590000000004410000000000442600000000044170000000004412000000000442206268000000000001088600000000004818960400000000000000009999123100000010000000000000BREGIEACNOR9126
012024072502EKTR4       010ELEKTRO     PN           R$  000000000456700000000045670000000004450000000000451500000000045300000000004510000000000453000054000000000000011900000000000053735600000000000000009999123100000010000000000000BREKTRACNPR7163
012024072502ELET3       010ELETROBRAS  ON      N1   R$  000000000371600000000037760000000003700000000000374200000000037620000000003762000000000376319687000000000006834100000000025577103200000000000000009999123100000010000000000000BRELETACNOR6160
012024072502ELET6       010ELETROBRAS  PNB     N1   R$  000000000416200000000042110000000004134000000000417500000000041980000000004186000000000419904617000000000000940100000000003925755200000000000000009999123100000010000000000000BRELETACNPB7077
012024072502ENAT3       010ENAUTA PART ON      NM   R$  000000000209000000000020980000000002054000000000206900000000020700000000002060000000000207012017000000000004981300000000010309334100000000000000009999123100000010000000000000BRENATACNOR0104
012024072502ENEV3       010ENEVA       ON      NM   R$  000000000126100000000012740000000001251000000000126500000000012740000000001271000000000127411218000000000007379700000000009341442400000000000000009999123100000010000000000000BRENEVACNOR8106
012024072502ENGI11      010ENERGISA    UNT     N2   R$  000000000447100000000044800000000004398000000000442700000000044100000000004401000000000441814143000000000002841900000000012583206000000000000000009999123100000010000000000000BRENGICDAM16135
012024072502MAPT3       010CEMEPE      ON           R$  000000000045000000000004500000000000410000000000042200000000004200000000000420000000000047000004000000000000000400000000000000169000000000000000009999123100000010000000000000BRMAPTACNOR8106
012024072502MATD3       010MATER DEI   ON      NM   R$  000000000046700000000004920000000000459000000000046800000000004900000000000488000000000049002846000000000001418700000000000664572000000000000000009999123100000010000000000000BRMATDACNOR4104
012024072502MBLY3       010MOBLY       ON      NM   R$  000000000026000000000002700000000000259000000000026300000000002640000000000264000000000026500648000000000000664500000000000175249900000000000000009999123100000010000000000000BRMBLYACNOR5100
012024072502MDIA3       010M.DIASBRANCOON      NM   R$  000000000283600000000028360000000002764000000000278900000000027830000000002781000000000278301620000000000000599000000000001671176200000000000000009999123100000010000000000000BRMDIAACNOR7135
012024072502MDNE3       010MOURA DUBEUXON      NM   R$  000000000133100000000013520000000001328000000000133900000000013440000000001337000000000135102363000000000000352100000000000471769500000000000000009999123100000010000000000000BRMDNEACNOR9100
012024072502MEAL3       010IMC S/A     ON      NM   R$  000000000015300000000001580000000000152000000000015500000000001550000000000155000000000015700697000000000000711000000000000110881600000000000000009999123100000010000000000000BRMEALACNOR9105
012024072502MELK3       010MELNICK     ON      NM   R$  000000000035200000000003520000000000342000000000034400000000003420000000000342000000000034600220000000000000161300000000000055622300000000000000009999123100000010000000000000BRMELKACNOR8111
012024072502BEEF3       010MINERVA     ON      NM   R$  000000000062400000000006320000000000616000000000062200000000006180000000000618000000000061906815000000000004626900000000002880996100000000000000009999123100000010000000000000BRBEEFACNOR6116
012024072502BEES3       010BANESTES    ON           R$  000000000085000000000008950000000000849000000000086400000000008850000000000882000000000088600314000000000000108800000000000094047800000000000000009999123100000010000000000000BRBEESACNOR9393
012024072502BEES4       010BANESTES    PN           R$  000000000097400000000009760000000000969000000000097100000000009690000000000957000000000100000011000000000000012300000000000011949100000000000000009999123100000010000000000000BRBEESACNPR6318
012024072502BRBI11      010BR PARTNERS UNT     N2   R$  000000000141400000000014300000000001377000000000140100000000014300000000001420000000000143001078000000000000188500000000000264160300000000000000009999123100000010000000000000BRBRBICDAM10109
012024072502BRFS3       010BRF SA      ON      NM   R$  000000000207000000000021050000000002042000000000208000000000021050000000002095000000000210613430000000000004566600000000009500911100000000000000009999123100000010000000000000BRBRFSACNOR8122
012024072502BRIT3       010BRISANET    ON      NM   R$  000000000039700000000004040000000000393000000000039800000000004010000000000401000000000040200880000000000000472400000000000188143000000000000000009999123100000010000000000000BRBRITACNOR0103
012024072502CSRN3       010COSERN      ON           R$  000000000239000000000024190000000002272000000000237600000000024190000000002349000000000241900057000000000000015200000000000036117600000000000000009999123100000010000000000000BRCSRNACNOR0193
012024072502CSRN5       010COSERN      PNA          R$  000000000237900000000024080000000002379000000000239200000000024080000000002350000000000240800011000000000000001400000000000003349300000000000000009999123100000010000000000000BRCSRNACNPA3193
012024072502CSRN6       010COSERN      PNB          R$  000000000238500000000023900000000002350000000000236400000000023500000000000000000000000235000010000000000000002200000000000005202800000000000000009999123100000010000000000000BRCSRNACNPB1194
012024072502CSUD3       010CSU DIGITAL ON      NM   R$  000000000195200000000019600000000001911000000000193000000000019410000000001926000000000194500066000000000000018100000000000034947400000000000000009999123100000010000000000000BRCSUDACNOR5110
012024072502CTKA4       010KARSTEN     PN           R$  000000000190000000000019000000000001900000000000190000000000019000000000001701000000000190000002000000000000000200000000000000380000000000000000009999123100000010000000000000BRCTKAACNPR7043
012024072502CURY3       010CURY S/A    ON      NM   R$  000000000215000000000021820000000002133000000000214500000000021360000000002135000000000214504461000000000000799000000000001714150000000000000000009999123100000010000000000000BRCURYACNOR3109
012024072502CVCB3       010CVC BRASIL  ON      NM   R$  000000000018100000000001840000000000178000000000018100000000001820000000000182000000000018305426000000000009550600000000001733566400000000000000009999123100000010000000000000BRCVCBACNOR1116
012024072502GRND3       010GRENDENE    ON      NM   R$  000000000059300000000005940000000000587000000000059000000000005890000000000589000000000059001846000000000000555100000000000327714700000000000000009999123100000010000000000000BRGRNDACNOR3174
012024072502GUAR3       010GUARARAPES  ON      NM   R$  000000000070100000000007080000000000685000000000069500000000006950000000000690000000000069502666000000000001253100000000000871586500000000000000009999123100000010000000000000BRGUARACNOR4173
012024072502HAGA3       010HAGA S/A    ON           R$  000000000027400000000002740000000000268000000000027000000000002680000000000267000000000027100025000000000000025900000000000007014500000000000000009999123100000010000000000000BRHAGAACNOR7103
012024072502HAGA4       010HAGA S/A    PN           R$  000000000011800000000001190000000000117000000000011800000000001170000000000117000000000012000011000000000000001300000000000000154000000000000000009999123100000010000000000000BRHAGAACNPR4103
012024072502HAPV3       010HAPVIDA     ON      NM   R$  000000000039500000000004060000000000392000000000040000000000004030000000000402000000000040320751000000000052015400000000020820100300000000000000009999123100000010000000000000BRHAPVACNOR4114
012024072502JHSF3       010JHSF PART   ON      NM   R$  000000000039900000000004010000000000395000000000039700000000003950000000000395000000000039703378000000000002572800000000001021458900000000000000009999123100000010000000000000BRJHSFACNOR2137
012024072502JSLG3       010JSL         ON      NM   R$  000000000097100000000009710000000000941000000000095100000000009510000000000948000000000095101604000000000000328000000000000311980000000000000000009999123100000010000000000000BRJSLGACNOR2121
012024072502KEPL3       010KEPLER WEBERON      NM   R$  000000000102300000000010230000000001001000000000100700000000010140000000001012000000000101702351000000000001042000000000001050073200000000000000009999123100000010000000000000BRKEPLACNOR1063
012024072502MTRE3       010MITRE REALTYON  ED  NM   R$  000000000039500000000003950000000000383000000000038600000000003840000000000384000000000038501295000000000000753200000000000291103100000000000000009999123100000010000000000000BRMTREACNOR6113
012024072502MTSA4       010METISA      PN           R$  000000000439800000000043980000000004200000000000424800000000042000000000004167000000000430000025000000000000002700000000000011472100000000000000009999123100000010000000000000BRMTSAACNPR9072
012024072502MULT3       010MULTIPLAN   ON      N2   R$  000000000240000000000024270000000002367000000000238700000000023750000000002375000000000237620324000000000003843200000000009176000300000000000000009999123100000010000000000000BRMULTACNOR5139
012024072502MWET4       010WETZEL S/A  PN           R$  000000000093400000000009340000000000934000000000093400000000009340000000000905000000000099900001000000000000000100000000000000093400000000000000009999123100000010000000000000BRMWETACNPR3118
012024072502MYPK3       010IOCHP-MAXIONON      NM   R$  000000000117700000000012140000000001173000000000119800000000012010000000001201000000000120304750000000000000869300000000001042148800000000000000009999123100000010000000000000BRMYPKACNOR7155
012024072502PETZ3       010PETZ        ON      NM   R$  000000000035000000000003640000000000350000000000035700000000003570000000000356000000000035706715000000000004668700000000001667416400000000000000009999123100000010000000000000BRPETZACNOR2110
012024072502ASAI3       010ASSAI       ON      NM   R$  000000000099900000000010130000000000989000000000099900000000009900000000000990000000000099119471000000000020234100000000020230859500000000000000009999123100000010000000000000BRASAIACNOR0106
012024072502ATOM3       010ATOMPAR     ON           R$  000000000020200000000002030000000000199000000000020100000000001990000000000199000000000020100016000000000000002900000000000000585000000000000000009999123100000010000000000000BRATOMACNOR1106
012024072502AURE3       010AUREN       ON      NM   R$  000000000121500000000012240000000001202000000000120900000000012040000000001204000000000120507516000000000002152600000000002602920600000000000000009999123100000010000000000000BRAUREACNOR9104
012024072502AVLL3       010ALPHAVILLE  ON      NM   R$  000000000033800000000003550000000000338000000000034000000000003550000000000320000000000038400004000000000000000600000000000000204500000000000000009999123100000010000000000000BRAVLLACNOR5103
012024072502AZEV3       010AZEVEDO     ON           R$  000000000015200000000001550000000000145000000000014700000000001460000000000146000000000014700619000000000001015800000000000149643100000000000000009999123100000010000000000000BRAZEVACNOR0121
012024072502GEPA4       010GER PARANAP PN           R$  000000000260000000000026250000000002600000000000261600000000026250000000002625000000000264800003000000000000000300000000000000785000000000000000009999123100000010000000000000BRGEPAACNPR9160
012024072502GFSA3       010GAFISA      ON      NM   R$  000000000033900000000003470000000000338000000000034000000000003380000000000338000000000033901666000000000001633300000000000556788500000000000000009999123100000010000000000000BRGFSAACNOR3124
012024072502GGBR3       010GERDAU      ON      N1   R$  000000000157500000000016340000000001570000000000160400000000016270000000001620000000000162700192000000000000037300000000000059852900000000000000009999123100000010000000000000BRGGBRACNOR1192
012024072502GGBR4       010GERDAU      PN      N1   R$  000000000178200000000018480000000001778000000000182300000000018320000000001832000000000183322794000000000013581600000000024762823700000000000000009999123100000010000000000000BRGGBRACNPR8192
012024072502MILS3       010MILLS       ON      NM   R$  000000000112300000000011250000000001100000000000110500000000011070000000001103000000000110703106000000000000779400000000000861922300000000000000009999123100000010000000000000BRMILSACNOR2127
012024072502MLAS3       010MULTILASER  ON      NM   R$  000000000019400000000001950000000000190000000000019200000000001920000000000191000000000019202876000000000001636100000000000314189200000000000000009999123100000010000000000000BRMLASACNOR9101
012024072502MNDL3       010MUNDIAL     ON           R$  000000000155400000000015540000000001553000000000155300000000015530000000001400000000000155400002000000000000000400000000000000621400000000000000009999123100000010000000000000BRMNDLACNOR4109
012024072502MNPR3       010MINUPAR     ON           R$  000000000132000000000013780000000001320000000000135700000000013780000000001211000000000138000009000000000000001800000000000002443100000000000000009999123100000010000000000000BRMNPRACNOR5122
012024072502MOVI3       010MOVIDA      ON      NM   R$  000000000059600000000006030000000000588000000000059300000000005900000000000590000000000059205410000000000003885300000000002306888000000000000000009999123100000010000000000000BRMOVIACNOR0122
012024072502PRNR3       010PRINER      ON      NM   R$  000000000104900000000010520000000001034000000000103900000000010360000000001033000000000103700785000000000000160500000000000166822800000000000000009999123100000010000000000000BRPRNRACNOR4109
012024072502PSSA3       010PORTO SEGUROON      NM   R$  000000000300100000000030350000000002991000000000301400000000030100000000003005000000000301004630000000000000943200000000002843152300000000000000009999123100000010000000000000BRPSSAACNOR7155
012024072502PTBL3       010PORTOBELLO  ON      NM   R$  000000000048000000000004890000000000472000000000047700000000004730000000000472000000000047303272000000000000533000000000000254681700000000000000009999123100000010000000000000BRPTBLACNOR8132
012024072502PTNT3       010PETTENATI   ON           R$  000000000098800000000009890000000000988000000000098800000000009890000000000938000000000098800002000000000000000200000000000000197700000000000000009999123100000010000000000000BRPTNTACNOR6042
012024072502PTNT4       010PETTENATI   PN           R$  000000000066900000000006690000000000620000000000063300000000006330000000000630000000000063400033000000000000012600000000000007977500000000000000009999123100000010000000000000BRPTNTACNPR3047
012024072502QUAL3       010QUALICORP   ON      NM   R$  000000000015500000000001580000000000153000000000015400000000001540000000000154000000000015501620000000000001839300000000000284542800000000000000009999123100000010000000000000BRQUALACNOR6120
012024072502RADL3       010RAIADROGASILON      NM   R$  000000000262000000000026350000000002591000000000261300000000026050000000002604000000000260817631000000000010265700000000026826105700000000000000009999123100000010000000000000BRRADLACNOR0157
012024072502SMFT3       010SMART FIT   ON      NM   R$  000000000211300000000021560000000002110000000000212600000000021240000000002123000000000212611753000000000005031400000000010701638600000000000000009999123100000010000000000000BRSMFTACNOR1112
012024072502SCAR3       010SAO CARLOS  ON      NM   R$  000000000223800000000023900000000002238000000000230100000000023400000000002285000000000234000137000000000000089300000000000205482500000000000000009999123100000010000000000000BRSCARACNOR7131
012024072502SEER3       010SER EDUCA   ON      NM   R$  000000000049800000000005180000000000495000000000050700000000005040000000000504000000000051101439000000000000375200000000000190531000000000000000009999123100000010000000000000BRSEERACNOR5119
012024072502SEQL3       010SEQUOIA LOG ON      NM   R$  000000000038600000000004070000000000386000000000039400000000003870000000000386000000000039100449000000000000240300000000000094797800000000000000009999123100000010000000000000BRSEQLACNOR2103
012024072502SHOW3       010TIME FOR FUNON      NM   R$  000000000015500000000001550000000000152000000000015200000000001520000000000152000000000015400165000000000000041000000000000006254400000000000000009999123100000010000000000000BRSHOWACNOR7105
012024072502SHUL4       010SCHULZ      PN           R$  000000000064100000000006410000000000623000000000062700000000006240000000000624000000000062600431000000000000204700000000000128405500000000000000009999123100000010000000000000BRSHULACNPR4156
012024072502SIMH3       010SIMPAR      ON      NM   R$  000000000060100000000006130000000000593000000000059800000000005970000000000595000000000059704377000000000002958300000000001771341300000000000000009999123100000010000000000000BRSIMHACNOR0107
012024072502SLCE3       010SLC AGRICOLAON      NM   R$  000000000184200000000018550000000001824000000000183400000000018240000000001823000000000183005210000000000001046300000000001919421600000000000000009999123100000010000000000000BRSLCEACNOR2125
012024072502VALE3       010VALE        ON      NM   R$  000000000605000000000061190000000006026000000000607000000000060570000000006057000000000605936824000000000017959500000000109028925000000000000000009999123100000010000000000000BRVALEACNOR0210
012024072502ZAMP3       010ZAMP S.A.   ON           R$  000000000033400000000003410000000000330000000000033500000000003370000000000337000000000034001693000000000000311100000000000104479500000000000000009999123100000010000000000000BRZAMPACNOR5100
012024072502PFRM3       010PROFARMA    ON      NM   R$  000000000056800000000005700000000000546000000000055700000000005600000000000560000000000056100584000000000000186900000000000104171800000000000000009999123100000010000000000000BRPFRMACNOR1116
012024072502PGMN3       010PAGUE MENOS ON      NM   R$  000000000025700000000002570000000000248000000000025000000000002520000000000248000000000025201123000000000000471500000000000118051000000000000000009999123100000010000000000000BRPGMNACNOR8103
012024072502PINE3       010PINE        ON      N2   R$  000000000059000000000005910000000000590000000000059000000000005910000000000560000000000059200003000000000000001000000000000000590700000000000000009999123100000010000000000000BRPINEACNOR1150
012024072502PINE4       010PINE        PN      N2   R$  000000000042000000000004200000000000409000000000041400000000004140000000000414000000000041500214000000000000068000000000000028156800000000000000009999123100000010000000000000BRPINEACNPR8150
012024072502PLPL3       010PLANOEPLANO ON      NM   R$  000000000113500000000011530000000001116000000000113900000000011410000000001141000000000114502339000000000000643100000000000732724600000000000000009999123100000010000000000000BRPLPLACNOR5104
012024072502PNVL3       010DIMED       ON      NM   R$  000000000098500000000010090000000000974000000000099700000000010050000000001000000000000100501765000000000000311300000000000310437200000000000000009999123100000010000000000000BRPNVLACNOR9207
012024072502POMO3       010MARCOPOLO   ON      N2   R$  000000000048900000000004920000000000480000000000048300000000004800000000000480000000000048400438000000000000089500000000000043305900000000000000009999123100000010000000000000BRPOMOACNOR0098
012024072502POMO4       010MARCOPOLO   PN      N2   R$  000000000063300000000006340000000000611000000000061800000000006160000000000616000000000062007736000000000003955400000000002447520500000000000000009999123100000010000000000000BRPOMOACNPR7098
012024072502PORT3       010WILSON SONS ON  ED  NM   R$  000000000160900000000016090000000001580000000000158700000000015910000000001590000000000159201305000000000000213600000000000339127200000000000000009999123100000010000000000000BRPORTACNOR8109
012024072502POSI3       010POSITIVO TECON      NM   R$  000000000071500000000007230000000000696000000000070400000000006960000000000696000000000070003821000000000002438500000000001717583500000000000000009999123100000010000000000000BRPOSIACNOR9116
012024072502PRIO3       010PETRORIO    ON  ATZ NM   R$  000000000455000000000045910000000004521000000000456100000000045820000000004578000000000458420627000000000006882800000000031395997200000000000000009999123100000010000000000000BRPRIOACNOR1107
012024072502SAPR11      010SANEPAR     UNT     N2   R$  000000000264600000000026640000000002642000000000265200000000026500000000002650000000000265204253000000000001004000000000002663237900000000000000009999123100000010000000000000BRSAPRCDAM13118
012024072502SAPR3       010SANEPAR     ON      N2   R$  000000000050000000000005020000000000498000000000049900000000004990000000000499000000000050000327000000000000120300000000000060096500000000000000009999123100000010000000000000BRSAPRACNOR9159
012024072502SAPR4       010SANEPAR     PN      N2   R$  000000000053600000000005400000000000535000000000053700000000005390000000000538000000000053902305000000000000945900000000000508293600000000000000009999123100000010000000000000BRSAPRACNPR6159
012024072502SBFG3       010GRUPO SBF   ON      NM   R$  000000000134300000000013500000000001317000000000132800000000013230000000001320000000000132302470000000000000473800000000000629585200000000000000009999123100000010000000000000BRSBFGACNOR1103
012024072502SBSP3       010SABESP      ON      NM   R$  000000000883600000000089160000000008672000000000874000000000086720000000008672000000000868525380000000000006660900000000058217871600000000000000009999123100000010000000000000BRSBSPACNOR5161
012024072502UNIP3       010UNIPAR      ON           R$  000000000500400000000050290000000004983000000000500500000000050130000000004990000000000501300012000000000000001300000000000006506700000000000000009999123100000010000000000000BRUNIPACNOR7206
012024072502UNIP6       010UNIPAR      PNB          R$  000000000509000000000051000000000005024000000000505100000000050290000000005028000000000503401125000000000000166400000000000840585300000000000000009999123100000010000000000000BRUNIPACNPB8206
012024072502BAHI3       010BAHEMA      ON      MA   R$  000000000065300000000006530000000000653000000000065300000000006530000000000621000000000065500003000000000000001000000000000000653000000000000000009999123100000010000000000000BRBAHIACNOR1074
012024072502BAZA3       010AMAZONIA    ON           R$  000000000923100000000092990000000009078000000000919500000000090780000000009052000000000924100024000000000000004300000000000039541800000000000000009999123100000010000000000000BRBAZAACNOR0179
012024072502BBAS3       010BRASIL      ON      NM   R$  000000000268400000000027050000000002672000000000269000000000026890000000002688000000000268921413000000000011896200000000032005078700000000000000009999123100000010000000000000BRBBASACNOR3324
012024072502EZTC3       010EZTEC       ON      NM   R$  000000000136300000000013960000000001347000000000136600000000013470000000001347000000000134804919000000000001721600000000002352026700000000000000009999123100000010000000000000BREZTCACNOR0125
012024072502FLRY3       010FLEURY      ON      NM   R$  000000000154400000000015450000000001514000000000152400000000015180000000001518000000000152206530000000000001739700000000002651453200000000000000009999123100000010000000000000BRFLRYACNOR5138
012024072502ITUB3       010ITAUUNIBANCOON      N1   R$  000000000293100000000029320000000002904000000000291900000000029130000000002911000000000291300936000000000000212400000000000620039400000000000000009999123100000010000000000000BRITUBACNOR4338
012024072502ITUB4       010ITAUUNIBANCOPN      N1   R$  000000000340700000000034210000000003384000000000340600000000033990000000003397000000000340023732000000000019825200000000067539567900000000000000009999123100000010000000000000BRITUBACNPR1338
012024072502DOTZ3       010DOTZ SA     ON      NM   R$  000000000064700000000006710000000000647000000000065900000000006470000000000647000000000066800031000000000000006100000000000004024300000000000000009999123100000010000000000000BRDOTZACNOR7101
012024072502DXCO3       010DEXCO       ON      NM   R$  000000000070000000000007210000000000697000000000070700000000007050000000000705000000000070906004000000000002957500000000002092847300000000000000009999123100000010000000000000BRDXCOACNOR8105
012024072502EALT4       010ACO ALTONA  PN           R$  000000000114200000000011470000000001127000000000113300000000011310000000001131000000000114600017000000000000003200000000000003625900000000000000009999123100000010000000000000BREALTACNPR1138
012024072502ECOR3       010ECORODOVIAS ON      NM   R$  000000000069900000000007020000000000682000000000068700000000006830000000000683000000000068407760000000000003534900000000002431895100000000000000009999123100000010000000000000BRECORACNOR8120
012024072502ELMD3       010ELETROMIDIA ON      NM   R$  000000000182100000000018210000000001735000000000176700000000017580000000001747000000000175800450000000000000066000000000000116639700000000000000009999123100000010000000000000BRELMDACNOR3101
012024072502EMAE4       010EMAE        PN           R$  000000000467900000000046790000000004649000000000465500000000046500000000004552000000000464900004000000000000000500000000000002327800000000000000009999123100000010000000000000BREMAEACNPR1125
012024072502EMBR3       010EMBRAER     ON      NM   R$  000000000409900000000041120000000004016000000000406800000000040640000000004064000000000407019005000000000004544900000000018488742900000000000000009999123100000010000000000000BREMBRACNOR4191
012024072502KLBN11      010KLABIN S/A  UNT     N2   R$  000000000215900000000021740000000002141000000000215100000000021410000000002141000000000214511762000000000003147000000000006771472400000000000000009999123100000010000000000000BRKLBNCDAM18142
012024072502KLBN3       010KLABIN S/A  ON      N2   R$  000000000043500000000004360000000000428000000000043200000000004290000000000428000000000042900483000000000000187400000000000081034600000000000000009999123100000010000000000000BRKLBNACNOR2170
012024072502KLBN4       010KLABIN S/A  PN      N2   R$  000000000043100000000004350000000000427000000000043000000000004280000000000427000000000042801261000000000000704200000000000303374700000000000000009999123100000010000000000000BRKLBNACNPR9170
012024072502KRSA3       010KORA SAUDE  ON      NM   R$  000000000007100000000000720000000000070000000000007000000000000710000000000070000000000007100104000000000000212700000000000014961400000000000000009999123100000010000000000000BRKRSAACNOR0100
012024072502LAND3       010TERRASANTAPAON      NM   R$  000000000142000000000014860000000001364000000000141400000000014510000000001447000000000147000393000000000000167800000000000237352600000000000000009999123100000010000000000000BRLANDACNOR9103
012024072502LAVV3       010LAVVI       ON      NM   R$  000000000089700000000009000000000000879000000000088400000000008850000000000885000000000088601715000000000000328700000000000290865100000000000000009999123100000010000000000000BRLAVVACNOR4112
012024072502LEVE3       010METAL LEVE  ON      NM   R$  000000000328200000000032980000000003251000000000326400000000032570000000003254000000000326801042000000000000189600000000000618966900000000000000009999123100000010000000000000BRLEVEACNOR2197
012024072502NEOE3       010NEOENERGIA  ON      NM   R$  000000000180600000000018090000000001786000000000179600000000017870000000001787000000000179005202000000000001543300000000002772608500000000000000009999123100000010000000000000BRNEOEACNOR3123
012024072502NGRD3       010NEOGRID     ON      NM   R$  000000000011000000000001140000000000107000000000010900000000001090000000000108000000000010900444000000000001425000000000000156395100000000000000009999123100000010000000000000BRNGRDACNOR3104
012024072502NINJ3       010GETNINJAS   ON      NM   R$  000000000046000000000004700000000000451000000000045900000000004700000000000442000000000047000104000000000000037800000000000017357200000000000000009999123100000010000000000000BRNINJACNOR5101
012024072502NORD3       010NORDON MET  ON           R$  000000000061700000000009000000000000617000000000081800000000008800000000000720000000000090000048000000000000006200000000000005072400000000000000009999123100000010000000000000BRNORDACNOR7135
012024072502NTCO3       010GRUPO NATURAON      NM   R$  000000000147500000000014920000000001469000000000148200000000014820000000001481000000000148709239000000000002657500000000003940872900000000000000009999123100000010000000000000BRNTCOACNOR5106
012024072502AZUL4       010AZUL        PN      N2   R$  000000000078500000000007920000000000763000000000077500000000007720000000000772000000000077315629000000000020737800000000016089989700000000000000009999123100000010000000000000BRAZULACNPR4102
012024072502AZEV4       010AZEVEDO     PN           R$  000000000015200000000001540000000000142000000000014600000000001460000000000145000000000014602299000000000005501200000000000807907200000000000000009999123100000010000000000000BRAZEVACNPR7121
012024072502BBSE3       010BBSEGURIDADEON      NM   R$  000000000341500000000034300000000003401000000000341300000000034100000000003409000000000341111361000000000003226300000000011014324800000000000000009999123100000010000000000000BRBBSEACNOR5124
012024072502BPAN4       010BANCO PAN   PN      N1   R$  000000000088000000000008840000000000862000000000087300000000008650000000000865000000000086703665000000000001269900000000001109451500000000000000009999123100000010000000000000BRBPANACNPR1115
012024072502BRAP3       010BRADESPAR   ON      N1   R$  000000000180000000000018000000000001776000000000178500000000017910000000001791000000000179600313000000000000052400000000000093565000000000000000009999123100000010000000000000BRBRAPACNOR5148
012024072502BRAP4       010BRADESPAR   PN      N1   R$  000000000184800000000018640000000001837000000000184900000000018430000000001843000000000184607331000000000002154200000000003984425700000000000000009999123100000010000000000000BRBRAPACNPR2148
012024072502CSED3       010CRUZEIRO EDUON      NM   R$  000000000038800000000003940000000000378000000000038700000000003840000000000383000000000038700580000000000000232900000000000090241900000000000000009999123100000010000000000000BRCSEDACNOR9104
012024072502CSMG3       010COPASA      ON      NM   R$  000000000217000000000022200000000002150000000000218900000000021820000000002178000000000218705013000000000001227100000000002686266300000000000000009999123100000010000000000000BRCSMGACNOR5174
012024072502CSNA3       010SID NACIONALON           R$  000000000119600000000012100000000001183000000000119600000000011960000000001196000000000119710954000000000005223600000000006252178800000000000000009999123100000010000000000000BRCSNAACNOR6261
012024072502GGPS3       010GPS         ON      NM   R$  000000000172600000000017260000000001687000000000169900000000017030000000001703000000000170906007000000000002484100000000004222835600000000000000009999123100000010000000000000BRGGPSACNOR9103
012024072502GMAT3       010GRUPO MATEUSON      NM   R$  000000000070200000000007050000000000691000000000069600000000006910000000000691000000000069803549000000000001889100000000001315990700000000000000009999123100000010000000000000BRGMATACNOR7102
012024072502GOAU3       010GERDAU MET  ON      N1   R$  000000000106400000000010830000000001055000000000106900000000010780000000001073000000000107800150000000000000044400000000000047466200000000000000009999123100000010000000000000BRGOAUACNOR1267
012024072502GOAU4       010GERDAU MET  PN      N1   R$  000000000104300000000010740000000001038000000000105900000000010660000000001063000000000106810730000000000005982600000000006339214400000000000000009999123100000010000000000000BRGOAUACNPR8268
012024072502JALL3       010JALLESMACHADON      NM   R$  000000000068700000000006990000000000680000000000069200000000006990000000000695000000000069901483000000000000361000000000000249821600000000000000009999123100000010000000000000BRJALLACNOR0105
012024072502JBSS3       010JBS         ON      NM   R$  000000000308700000000030940000000003027000000000306200000000030940000000003091000000000309414736000000000005140000000000015740182300000000000000009999123100000010000000000000BRJBSSACNOR8121
012024072502MRFG3       010MARFRIG     ON      NM   R$  000000000109800000000011060000000001074000000000109200000000011000000000001098000000000110014387000000000004321900000000004721573600000000000000009999123100000010000000000000BRMRFGACNOR0116
012024072502MRVE3       010MRV         ON      NM   R$  000000000065800000000006820000000000658000000000066800000000006620000000000661000000000066209193000000000008815200000000005889565700000000000000009999123100000010000000000000BRMRVEACNOR2127
012024072502ALPK3       010ESTAPAR     ON      NM   R$  000000000034900000000003580000000000347000000000035200000000003470000000000346000000000035000171000000000000080000000000000028186600000000000000009999123100000010000000000000BRALPKACNOR9101
012024072502ALUP11      010ALUPAR      UNT     N2   R$  000000000314600000000031460000000003102000000000311400000000031080000000003105000000000311603035000000000000593900000000001849924300000000000000009999123100000010000000000000BRALUPCDAM15119
012024072502ALUP3       010ALUPAR      ON      N2   R$  000000000106500000000010760000000001039000000000106300000000010390000000001039000000000105900045000000000000007000000000000007441200000000000000009999123100000010000000000000BRALUPACNOR8119
012024072502ALUP4       010ALUPAR      PN      N2   R$  000000000102200000000010350000000001020000000000102600000000010310000000001021000000000103200033000000000000004200000000000004311300000000000000009999123100000010000000000000BRALUPACNPR5119
012024072502AMAR3       010LOJAS MARISAON      NM   R$  000000000014300000000001440000000000141000000000014200000000001430000000000142000000000014300272000000000000097300000000000013873900000000000000009999123100000010000000000000BRAMARACNOR4115
012024072502AMBP3       010AMBIPAR     ON      NM   R$  000000000350000000000035490000000003151000000000340400000000035310000000003531000000000353622194000000000008177900000000027838249400000000000000009999123100000010000000000000BRAMBPACNOR6103
012024072502ANIM3       010ANIMA       ON  ATZ NM   R$  000000000033700000000003480000000000333000000000034000000000003430000000000343000000000034404216000000000004106100000000001399754800000000000000009999123100000010000000000000BRANIMACNOR6108
012024072502APER3       010ALPER S.A.  ON           R$  000000000450000000000045010000000004420000000000446600000000045000000000004480000000000453000020000000000000002800000000000012505400000000000000009999123100000010000000000000BRAPERACNOR9106
012024072502ARML3       010ARMAC       ON      NM   R$  000000000095200000000009590000000000939000000000094600000000009450000000000945000000000095003443000000000000780200000000000738714700000000000000009999123100000010000000000000BRARMLACNOR1112
012024072502ARZZ3       010AREZZO CO   ON      NM   R$  000000000518100000000052000000000005012000000000507800000000050400000000005029000000000504004953000000000001040000000000005282110800000000000000009999123100000010000000000000BRARZZACNOR3147
012024072502BPAC11      010BTGP BANCO  UNT     N2   R$  000000000318100000000032260000000003155000000000319600000000032060000000003205000000000320716733000000000008556900000000027351656000000000000000009999123100000010000000000000BRBPACUNT006119
012024072502BPAC3       010BTGP BANCO  ON      N2   R$  000000000153200000000015560000000001532000000000154900000000015560000000001532000000000156000005000000000000000500000000000000774900000000000000009999123100000010000000000000BRBPACACNOR7134
012024072502BPAC5       010BTGP BANCO  PNA     N2   R$  000000000081100000000008290000000000806000000000081900000000008270000000000820000000000083400016000000000000001800000000000001474500000000000000009999123100000010000000000000BRBPACACNPA0134
012024072502CRFB3       010CARREFOUR BRON      NM   R$  000000000095600000000009560000000000922000000000093200000000009310000000000931000000000093217220000000000013122400000000012237880200000000000000009999123100000010000000000000BRCRFBACNOR2116
012024072502CRPG5       010CRISTAL     PNA          R$  000000000291300000000029790000000002906000000000292300000000029790000000002905000000000298000036000000000000005000000000000014619800000000000000009999123100000010000000000000BRCRPGACNPA3119
012024072502CSAN3       010COSAN       ON      NM   R$  000000000135400000000013650000000001336000000000135100000000013550000000001354000000000135514594000000000006067400000000008201830700000000000000009999123100000010000000000000BRCSANACNOR6126
012024072502FRAS3       010FRAS-LE     ON  EJ  N1   R$  000000000196300000000019660000000001922000000000193500000000019290000000001929000000000193002622000000000000550700000000001065650200000000000000009999123100000010000000000000BRFRASACNOR0160
012024072502USIM3       010USIMINAS    ON      N1   R$  000000000074500000000007770000000000745000000000076100000000007630000000000763000000000076901022000000000000280100000000000213365200000000000000009999123100000010000000000000BRUSIMACNOR3167
012024072502USIM5       010USIMINAS    PNA     N1   R$  000000000080700000000008350000000000806000000000082200000000008280000000000826000000000082812594000000000011250000000000009251079400000000000000009999123100000010000000000000BRUSIMACNPA6169
012024072502WEST3       010WESTWING    ON      NM   R$  000000000008900000000000890000000000085000000000008500000000000860000000000086000000000008700095000000000000123700000000000010635800000000000000009999123100000010000000000000BRWESTACNOR3100
012024072502WHRL3       010WHIRLPOOL   ON           R$  000000000044800000000004480000000000442000000000044400000000004420000000000441000000000044500011000000000000002100000000000000934300000000000000009999123100000010000000000000BRWHRLACNOR5128
012024072502WHRL4       010WHIRLPOOL   PN           R$  000000000045300000000004560000000000428000000000044300000000004280000000000428000000000043300059000000000000047700000000000021170700000000000000009999123100000010000000000000BRWHRLACNPR2128
012024072502WIZC3       010WIZ CO      ON      NM   R$  000000000057900000000005880000000000575000000000058200000000005850000000000582000000000058601461000000000000443300000000000258409700000000000000009999123100000010000000000000BRWIZCACNOR5102
012024072502WLMM4       010WLM IND COM PN           R$  000000000306200000000030620000000003020000000000305000000000030620000000002700000000000306200008000000000000000800000000000002440600000000000000009999123100000010000000000000BRWLMMACNPR3118
012024072502LJQQ3       010QUERO-QUERO ON      NM   R$  000000000039200000000004020000000000390000000000039500000000003980000000000397000000000039803523000000000001586500000000000628247400000000000000009999123100000010000000000000BRLJQQACNOR5104
012024072502LOGG3       010LOG COM PROPON      NM   R$  000000000217200000000021720000000002119000000000214400000000021410000000002140000000000214101438000000000000439500000000000942413500000000000000009999123100000010000000000000BRLOGGACNOR7107
012024072502LOGN3       010LOG-IN      ON      NM   R$  000000000373800000000037970000000003712000000000374300000000037120000000003707000000000371500160000000000000022100000000000082738200000000000000009999123100000010000000000000BRLOGNACNOR3105
012024072502LPSB3       010LOPES BRASILON      NM   R$  000000000018600000000001870000000000180000000000018400000000001810000000000180000000000018400201000000000000082900000000000015284000000000000000009999123100000010000000000000BRLPSBACNOR0114
012024072502LREN3       010LOJAS RENNERON      NM   R$  000000000127600000000013280000000001273000000000131300000000013180000000001317000000000131926622000000000025958100000000034099048300000000000000009999123100000010000000000000BRLRENACNOR1221
012024072502ODPV3       010ODONTOPREV  ON      NM   R$  000000000114900000000011490000000001121000000000113000000000011310000000001130000000000113502866000000000000670500000000000757959700000000000000009999123100000010000000000000BRODPVACNOR4202
012024072502FESA3       010FERBASA     ON      N1   R$  000000000130100000000013010000000001301000000000130100000000013010000000001300000000000130100001000000000000000100000000000000130100000000000000009999123100000010000000000000BRFESAACNOR8188
012024072502FESA4       010FERBASA     PN      N1   R$  000000000081700000000008220000000000809000000000081500000000008190000000000817000000000081901871000000000000440500000000000359398600000000000000009999123100000010000000000000BRFESAACNPR5084
012024072502FHER3       010FER HERINGERON      NM   R$  000000000041200000000004120000000000401000000000040700000000004120000000000405000000000041100017000000000000003300000000000001344900000000000000009999123100000010000000000000BRFHERACNOR5103
012024072502FIEI3       010FICA        ON           R$  000000000130000000000013000000000001200000000000123800000000012000000000001200000000000130000004000000000000000600000000000000743000000000000000009999123100000010000000000000BRFIEIACNOR2100
012024072502FIQE3       010UNIFIQUE    ON      NM   R$  000000000033700000000003390000000000334000000000033600000000003370000000000336000000000033700988000000000000679900000000000228735200000000000000009999123100000010000000000000BRFIQEACNOR5107
012024072502VIVT3       010TELEF BRASILON           R$  000000000490700000000049430000000004879000000000490400000000048790000000004875000000000489009796000000000001490300000000007309664800000000000000009999123100000010000000000000BRVIVTACNOR0182
012024072502VLID3       010VALID       ON      NM   R$  000000000168000000000017180000000001670000000000169500000000017010000000001699000000000170102005000000000000402600000000000682728800000000000000009999123100000010000000000000BRVLIDACNOR5143
012024072502VSTE3       010VESTE       ON      NM   R$  000000000137100000000013840000000001371000000000137300000000013710000000001371000000000138400008000000000000001000000000000001373500000000000000009999123100000010000000000000BRVSTEACNOR5103
012024072502VTRU3       010VITRUEDUCA  ON      NM   R$  000000000134700000000013880000000001302000000000134900000000013020000000001301000000000133000194000000000000032700000000000044140400000000000000009999123100000010000000000000BRVTRUACNOR3100
012024072502VULC3       010VULCABRAS   ON      NM   R$  000000000151100000000015570000000001506000000000152900000000015280000000001524000000000152907654000000000001539800000000002354811000000000000000009999123100000010000000000000BRVULCACNOR2159
012024072502AALR3       010ALLIAR      ON      NM   R$  000000000109100000000011190000000001041000000000108100000000010900000000001069000000000109000483000000000000070100000000000075828200000000000000009999123100000010000000000000BRAALRACNOR6102
012024072502ABCB4       010ABC BRASIL  PN      N2   R$  000000000228700000000022950000000002231000000000225000000000022310000000002230000000000223102495000000000000417200000000000938897300000000000000009999123100000010000000000000BRABCBACNPR4146
012024072502ABEV3       010AMBEV S/A   ON           R$  000000000117900000000011920000000001173000000000118500000000011850000000001184000000000118619809000000000021585700000000025598812100000000000000009999123100000010000000000000BRABEVACNOR1128
012024072502BBDC3       010BRADESCO    ON      N1   R$  000000000113600000000011390000000001118000000000112600000000011230000000001123000000000112408349000000000006399200000000007207502100000000000000009999123100000010000000000000BRBBDCACNOR1772
012024072502BBDC4       010BRADESCO    PN      N1   R$  000000000125100000000012560000000001234000000000124300000000012350000000001235000000000123624248000000000027476800000000034162405200000000000000009999123100000010000000000000BRBBDCACNPR8772
012024072502VVEO3       010VIVEO       ON      NM   R$  000000000022600000000002330000000000219000000000022300000000002260000000000225000000000022602413000000000001396100000000000311768000000000000000009999123100000010000000000000BRVVEOACNOR0104
012024072502WEGE3       010WEG         ON      NM   R$  000000000463400000000046490000000004567000000000460000000000045950000000004595000000000459819546000000000005990900000000027559435400000000000000009999123100000010000000000000BRWEGEACNOR0223
012024072502RECV3       010PETRORECSA  ON      NM   R$  000000000209500000000021170000000002060000000000207600000000020640000000002064000000000206505419000000000001290500000000002679958000000000000000009999123100000010000000000000BRRECVACNOR3107
012024072502REDE3       010REDE ENERGIAON           R$  000000000069300000000006930000000000693000000000069300000000006930000000000691000000000069300005000000000000000600000000000000415800000000000000009999123100000010000000000000BRREDEACNOR7128
012024072502RENT3       010LOCALIZA    ON      NM   R$  000000000427800000000043640000000004250000000000431600000000043060000000004305000000000430825931000000000009905700000000042755427800000000000000009999123100000010000000000000BRRENTACNOR4196
012024072502SYNE3       010SYN PROP TECON      NM   R$  000000000100300000000010260000000001000000000000101400000000010150000000001015000000000102000394000000000000325300000000000330109600000000000000009999123100000010000000000000BRSYNEACNOR2102
012024072502TAEE11      010TAESA       UNT     N2   R$  000000000339000000000034000000000003371000000000338100000000033710000000003370000000000337806319000000000001191800000000004030105900000000000000009999123100000010000000000000BRTAEECDAM10147
012024072502TAEE3       010TAESA       ON      N2   R$  000000000112500000000011270000000001118000000000112000000000011180000000001118000000000112200561000000000000110200000000000123511900000000000000009999123100000010000000000000BRTAEEACNOR9147
012024072502TAEE4       010TAESA       PN      N2   R$  000000000113600000000011380000000001129000000000113300000000011310000000001130000000000113100819000000000000194900000000000220864300000000000000009999123100000010000000000000BRTAEEACNPR6147
012024072502VAMO3       010VAMOS       ON      NM   R$  000000000089500000000009010000000000868000000000087800000000008690000000000869000000000087216286000000000005928200000000005209043700000000000000009999123100000010000000000000BRVAMOACNOR7105
012024072502VBBR3       010VIBRA       ON      NM   R$  000000000228100000000022840000000002256000000000227300000000022740000000002274000000000227717106000000000005950100000000013528808000000000000000009999123100000010000000000000BRVBBRACNOR1108
012024072502COCE5       010COELCE      PNA          R$  000000000301200000000030500000000002999000000000301700000000030500000000003050000000000309000046000000000000007300000000000022026900000000000000009999123100000010000000000000BRCOCEACNPA3147
012024072502COGN3       010COGNA ON    ON      NM   R$  000000000015600000000001600000000000155000000000015700000000001570000000000157000000000015811983000000000038626500000000006083942600000000000000009999123100000010000000000000BRCOGNACNOR2104
012024072502ENGI3       010ENERGISA    ON      N2   R$  000000000137700000000013880000000001355000000000136700000000013560000000001356000000000135900046000000000000005400000000000007383000000000000000009999123100000010000000000000BRENGIACNOR0145
012024072502ENGI4       010ENERGISA    PN      N2   R$  000000000077400000000007780000000000763000000000076900000000007630000000000763000000000077300061000000000000012400000000000009535700000000000000009999123100000010000000000000BRENGIACNPR7141
012024072502ENJU3       010ENJOEI      ON      NM   R$  000000000018300000000001850000000000179000000000018100000000001800000000000180000000000018200452000000000000335100000000000060882000000000000000009999123100000010000000000000BRENJUACNOR9100
012024072502ENMT4       010ENERGISA MT PN           R$  000000000799500000000079950000000007995000000000799500000000079950000000005000000000000799500001000000000000000100000000000000799500000000000000009999123100000010000000000000BRENMTACNPR2126
012024072502EPAR3       010EMBPAR S/A  ON           R$  000000000060000000000006000000000000591000000000059300000000005940000000000591000000000059400015000000000000006600000000000003917300000000000000009999123100000010000000000000BREPARACNOR9105
012024072502EQMA3B      010EQTLMARANHAOON      MB   R$  000000000254900000000025500000000002549000000000254900000000025500000000002525000000000254900003000000000000001700000000000004334800000000000000009999123100000010000000000000BREQMAACNOR8108
012024072502EQPA3       010EQTL PARA   ON           R$  000000000073500000000007730000000000735000000000075300000000007730000000000735000000000075900011000000000000002100000000000001581300000000000000009999123100000010000000000000BREQPAACNOR1111
012024072502EQTL3       010EQUATORIAL  ON      NM   R$  000000000321300000000032400000000003196000000000322200000000032300000000003230000000000323518188000000000005244900000000016903977900000000000000009999123100000010000000000000BREQTLACNOR0130
012024072502OFSA3       010OUROFINO S/AON      NM   R$  000000000188100000000018840000000001881000000000188100000000018840000000001881000000000194900002000000000000000400000000000000752700000000000000009999123100000010000000000000BROFSAACNOR7118
012024072502ONCO3       010ONCOCLINICASON      NM   R$  000000000071100000000007280000000000699000000000071900000000007220000000000721000000000072204140000000000005327900000000003835925400000000000000009999123100000010000000000000BRONCOACNOR6101
012024072502OPCT3       010OCEANPACT   ON      NM   R$  000000000066500000000006660000000000644000000000065500000000006620000000000653000000000066200805000000000000434500000000000284727700000000000000009999123100000010000000000000BROPCTACNOR0100
012024072502ORVR3       010ORIZON      ON      NM   R$  000000000424700000000043350000000004212000000000429200000000043190000000004319000000000432101786000000000000553700000000002376632700000000000000009999123100000010000000000000BRORVRACNOR0101
012024072502PATI3       010PANATLANTICAON           R$  000000000250000000000025000000000002500000000000250000000000025000000000002450000000000250000001000000000000000200000000000000500000000000000000009999123100000010000000000000BRPATIACNOR6065
012024072502PCAR3       010P.ACUCAR-CBDON      NM   R$  000000000028500000000002880000000000282000000000028400000000002830000000000282000000000028305854000000000007380100000000002101290600000000000000009999123100000010000000000000BRPCARACNOR3167
012024072502B3SA3       010B3          ON      NM   R$  000000000109700000000011060000000001082000000000109000000000010900000000001090000000000109120664000000000016615700000000018118478200000000000000009999123100000010000000000000BRB3SAACNOR6133
012024072502CXSE3       010CAIXA SEGURION      NM   R$  000000000145300000000014570000000001433000000000144100000000014410000000001441000000000144505718000000000002105400000000003035237000000000000000009999123100000010000000000000BRCXSEACNOR7106
012024072502CYRE3       010CYRELA REALTON      NM   R$  000000000196500000000019890000000001949000000000196400000000019570000000001957000000000196514368000000000005512400000000010829607400000000000000009999123100000010000000000000BRCYREACNOR7140
012024072502HBOR3       010HELBOR      ON      NM   R$  000000000022500000000002280000000000222000000000022500000000002220000000000222000000000022400245000000000000181500000000000040908400000000000000009999123100000010000000000000BRHBORACNOR3118
012024072502HBRE3       010HBR REALTY  ON      NM   R$  000000000055100000000005580000000000544000000000054900000000005470000000000545000000000054800306000000000000183200000000000100602400000000000000009999123100000010000000000000BRHBREACNOR4100
012024072502HBSA3       010HIDROVIAS   ON      NM   R$  000000000037400000000003770000000000358000000000036100000000003580000000000357000000000036103939000000000002301900000000000833181300000000000000009999123100000010000000000000BRHBSAACNOR0100
012024072502HBTS5       010HABITASUL   PNA          R$  000000000429100000000043150000000004100000000000420100000000043150000000003999000000000440100004000000000000000400000000000001680600000000000000009999123100000010000000000000BRHBTSACNPA3128
012024072502HYPE3       010HYPERA      ON  EJ  NM   R$  000000000279400000000028100000000002769000000000278300000000027900000000002789000000000279011769000000000004689900000000013056407700000000000000009999123100000010000000000000BRHYPEACNOR0143
012024072502YDUQ3       010YDUQS PART  ON      NM   R$  000000000105900000000010740000000001051000000000106000000000010540000000001054000000000105508814000000000003075000000000003261007300000000000000009999123100000010000000000000BRYDUQACNOR3105
012024072502VITT3       010VITTIA      ON      NM   R$  000000000060700000000006080000000000597000000000060200000000006000000000000599000000000060000929000000000000131900000000000079449600000000000000009999123100000010000000000000BRVITTACNOR4107
012024072502VIVA3       010VIVARA S.A. ON      NM   R$  000000000224700000000022800000000002232000000000224800000000022600000000002253000000000226009270000000000002331100000000005242178100000000000000009999123100000010000000000000BRVIVAACNOR0107
012024072502RANI3       010IRANI       ON      NM   R$  000000000087200000000008780000000000863000000000086900000000008650000000000864000000000087302255000000000000640100000000000556660300000000000000009999123100000010000000000000BRRANIACNOR5072
012024072502RAPT3       010RANDON PART ON  EJ  N1   R$  000000000096100000000009610000000000913000000000093800000000009500000000000950000000000095100265000000000000073900000000000069367000000000000000009999123100000010000000000000BRRAPTACNOR7163
012024072502RAPT4       010RANDON PART PN  EJ  N1   R$  000000000111500000000011260000000001077000000000109000000000010820000000001082000000000108305867000000000002388600000000002603914000000000000000009999123100000010000000000000BRRAPTACNPR4163
012024072502RSUL4       010RIOSULENSE  PN           R$  000000000618800000000062800000000006101000000000619900000000061010000000006011000000000625900028000000000000003200000000000019836900000000000000009999123100000010000000000000BRRSULACNPR3114
012024072502SANB11      010SANTANDER BRUNT EJ       R$  000000000283800000000028410000000002760000000000279800000000027720000000002771000000000277409117000000000004633100000000012965356800000000000000009999123100000010000000000000BRSANBCDAM13165
012024072502SANB3       010SANTANDER BRON  EJ       R$  000000000135000000000013510000000001311000000000132700000000013120000000001312000000000132400490000000000000102000000000000135365000000000000000009999123100000010000000000000BRSANBACNOR8172
012024072502SANB4       010SANTANDER BRPN  EJ       R$  000000000148000000000014950000000001451000000000146900000000014550000000001452000000000146100528000000000000086200000000000126672200000000000000009999123100000010000000000000BRSANBACNPR5172
012024072502TPIS3       010TRIUNFO PARTON      NM   R$  000000000037500000000003770000000000373000000000037300000000003730000000000373000000000037500056000000000000019100000000000007141800000000000000009999123100000010000000000000BRTPISACNOR8118
012024072502TRAD3       010TC          ON  EG  NM   R$  000000000037700000000003890000000000363000000000037600000000003890000000000383000000000038900168000000000000076800000000000028952800000000000000009999123100000010000000000000BRTRADACNOR3102
012024072502TRIS3       010TRISUL      ON      NM   R$  000000000050400000000005100000000000495000000000049900000000004980000000000496000000000049800995000000000000418300000000000208884500000000000000009999123100000010000000000000BRTRISACNOR4118
012024072502TRPL3       010TRAN PAULISTON      N1   R$  000000000318100000000032140000000003180000000000318800000000031810000000003181000000000321300008000000000000000800000000000002551100000000000000009999123100000010000000000000BRTRPLACNOR4185
012024072502TRPL4       010TRAN PAULISTPN      N1   R$  000000000246000000000024620000000002431000000000244200000000024400000000002438000000000244212479000000000004964200000000012123746100000000000000009999123100000010000000000000BRTRPLACNPR1185
012024072502TTEN3       0103TENTOS     ON      NM   R$  000000000106900000000010870000000001068000000000107800000000010760000000001073000000000107904408000000000000962200000000001037423800000000000000009999123100000010000000000000BRTTENACNOR0103
012024072502TUPY3       010TUPY        ON      NM   R$  000000000254500000000025490000000002478000000000250500000000024910000000002485000000000249202760000000000000429300000000001075781500000000000000009999123100000010000000000000BRTUPYACNOR1184
012024072502UCAS3       010UNICASA     ON      NM   R$  000000000022800000000002310000000000224000000000022700000000002250000000000225000000000022700077000000000000020100000000000004567800000000000000009999123100000010000000000000BRUCASACNOR1113
012024072502UGPA3       010ULTRAPAR    ON      NM   R$  000000000227700000000022800000000002222000000000223900000000022220000000002222000000000222515547000000000004412400000000009880991400000000000000009999123100000010000000000000BRUGPAACNOR8155
012024072502ROMI3       010ROMI        ON      NM   R$  000000000106000000000010610000000001052000000000105600000000010530000000001052000000000105300762000000000000159000000000000167987800000000000000009999123100000010000000000000BRROMIACNOR8195
012024072502RPAD3       010ALFA HOLDINGON           R$  000000000088100000000008810000000000881000000000088100000000008810000000000888000000000095000004000000000000002600000000000002290600000000000000009999123100000010000000000000BRRPADACNOR1198
012024072502RPAD5       010ALFA HOLDINGPNA          R$  000000000085600000000008560000000000851000000000085500000000008560000000000854000000000089900012000000000000006100000000000005217500000000000000009999123100000010000000000000BRRPADACNPA4218
012024072502RPAD6       010ALFA HOLDINGPNB          R$  000000000088100000000008880000000000881000000000088400000000008880000000000885000000000099800013000000000000005600000000000004955400000000000000009999123100000010000000000000BRRPADACNPB2198
012024072502RRRP3       0103R PETROLEUMON      NM   R$  000000000261000000000026190000000002573000000000258900000000025920000000002590000000000259214339000000000007058600000000018276294300000000000000009999123100000010000000000000BRRRRPACNOR5103
012024072502TASA3       010TAURUS ARMASON      N2   R$  000000000118400000000011840000000001169000000000117700000000011720000000001169000000000118000032000000000000005700000000000006713400000000000000009999123100000010000000000000BRTASAACNOR7104
012024072502TASA4       010TAURUS ARMASPN      N2   R$  000000000116500000000011730000000001151000000000115800000000011540000000001154000000000115601072000000000000170500000000000197516500000000000000009999123100000010000000000000BRTASAACNPR4104
012024072502TCSA3       010TECNISA     ON      NM   R$  000000000022000000000002250000000000216000000000021800000000002250000000000221000000000022500104000000000000025300000000000005536900000000000000009999123100000010000000000000BRTCSAACNOR3112
012024072502TECN3       010TECHNOS     ON      NM   R$  000000000052600000000005480000000000516000000000053100000000005210000000000521000000000052300402000000000000212500000000000112869800000000000000009999123100000010000000000000BRTECNACNOR6109
012024072502TELB3       010TELEBRAS    ON           R$  000000000133300000000013330000000001331000000000132900000000013310000000001325000000000133900003000000000000000300000000000000398900000000000000009999123100000010000000000000BRTELBACNOR2140
012024072502TELB4       010TELEBRAS    PN           R$  000000000093300000000009330000000000912000000000091500000000009130000000000913000000000092400019000000000000002900000000000002653500000000000000009999123100000010000000000000BRTELBACNPR9140
012024072502TEND3       010TENDA       ON      NM   R$  000000000126900000000012940000000001252000000000126900000000012660000000001265000000000128103580000000000001257700000000001596573000000000000000009999123100000010000000000000BRTENDACNOR4111
012024072502TFCO4       010TRACK FIELD PN      N2   R$  000000000110300000000011050000000001081000000000109300000000010990000000001092000000000110000678000000000000162300000000000177417200000000000000009999123100000010000000000000BRTFCOACNPR8114
012024072502TGMA3       010TEGMA       ON      NM   R$  000000000246200000000024620000000002429000000000244100000000024470000000002425000000000244700608000000000000080100000000000195566200000000000000009999123100000010000000000000BRTGMAACNOR7144
012024072502TIMS3       010TIM         ON      NM   R$  000000000165800000000016680000000001639000000000165300000000016390000000001638000000000163913093000000000008863500000000014655943100000000000000009999123100000010000000000000BRTIMSACNOR5117
012024072502TOTS3       010TOTVS       ON      NM   R$  000000000275300000000027940000000002718000000000276000000000027580000000002758000000000276013618000000000003783800000000010444512400000000000000009999123100000010000000000000BRTOTSACNOR8144
012024072502VIVR3       010VIVER       ON      NM   R$  000000000021900000000002290000000000218000000000022400000000002250000000000220000000000022500223000000000000066800000000000014975800000000000000009999123100000010000000000000BRVIVRACNOR4123
012024072502AERI3       010AERIS       ON      NM   R$  000000000055900000000005690000000000559000000000056300000000005630000000000563000000000056400255000000000000069300000000000039034800000000000000009999123100000010000000000000BRAERIACNOR4102
012024072502AESB3       010AES BRASIL  ON      NM   R$  000000000113700000000011390000000001134000000000113700000000011390000000001138000000000113901639000000000001786000000000002030781100000000000000009999123100000010000000000000BRAESBACNOR7106
012024072502AGRO3       010BRASILAGRO  ON      NM   R$  000000000268800000000026880000000002641000000000266100000000026470000000002647000000000266201327000000000000196000000000000521629400000000000000009999123100000010000000000000BRAGROACNOR7114
012024072502AGXY3       010AGROGALAXY  ON      NM   R$  000000000014800000000001520000000000141000000000014400000000001410000000000141000000000014200467000000000000384600000000000055440000000000000000009999123100000010000000000000BRAGXYACNOR4103
012024072502ALLD3       010ALLIED      ON      NM   R$  000000000079500000000007970000000000786000000000079000000000007860000000000786000000000078800074000000000000019800000000000015659400000000000000009999123100000010000000000000BRALLDACNOR3106
012024072502IFCM3       010INFRACOMM   ON      NM   R$  000000000003500000000000360000000000034000000000003400000000000340000000000034000000000003502581000000000004739800000000000165347900000000000000009999123100000010000000000000BRIFCMACNOR8101
012024072502IGTI11      010IGUATEMI S.AUNT     N1   R$  000000000210000000000021100000000002080000000000209000000000020810000000002081000000000209307797000000000001861700000000003891455300000000000000009999123100000010000000000000BRIGTICDAM16106
012024072502IGTI3       010IGUATEMI S.AON      N1   R$  000000000026300000000002640000000000260000000000026100000000002620000000000260000000000026200133000000000000038200000000000009972100000000000000009999123100000010000000000000BRIGTIACNOR8106
012024072502IGTI4       010IGUATEMI S.APN      N1   R$  000000000091800000000009180000000000918000000000091800000000009180000000000900000000000108500001000000000000000100000000000000091800000000000000009999123100000010000000000000BRIGTIACNPR5106
012024072502INEP3       010INEPAR      ON           R$  000000000019600000000002040000000000195000000000019900000000002000000000000197000000000020100115000000000000048700000000000009710200000000000000009999123100000010000000000000BRINEPACNOR1143
012024072502INEP4       010INEPAR      PN           R$  000000000019400000000002090000000000194000000000020000000000001980000000000198000000000020000052000000000000031000000000000006203200000000000000009999123100000010000000000000BRINEPACNPR8143
012024072502INTB3       010INTELBRAS   ON      NM   R$  000000000221000000000022790000000002210000000000224900000000022450000000002238000000000224504346000000000000870900000000001959095400000000000000009999123100000010000000000000BRINTBACNOR9111
012024072502IRBR3       010IRBBRASIL REON      NM   R$  000000000289900000000029280000000002841000000000286300000000028440000000002844000000000284904531000000000001526500000000004370947000000000000000009999123100000010000000000000BRIRBRACNOR4111
012024072502LUPA3       010LUPATECH    ON      NM   R$  000000000018200000000001830000000000179000000000018000000000001800000000000178000000000018000197000000000000057800000000000010439900000000000000009999123100000010000000000000BRLUPAACNOR8112
012024072502LVTC3       010WDC NETWORKSON      NM   R$  000000000034600000000003590000000000345000000000034800000000003450000000000345000000000035900034000000000000027400000000000009539300000000000000009999123100000010000000000000BRLVTCACNOR4102
012024072502LWSA3       010LWSA        ON      NM   R$  000000000043200000000004550000000000432000000000044400000000004450000000000445000000000044610823000000000008181500000000003634849300000000000000009999123100000010000000000000BRLWSAACNOR8103
012024072502SUZB3       010SUZANO S.A. ON      NM   R$  000000000532100000000054160000000005240000000000529000000000052470000000005246000000000525122037000000000006972800000000036890568100000000000000009999123100000010000000000000BRSUZBACNOR0130
012024072502CAMB3       010CAMBUCI     ON           R$  000000000112400000000011350000000001106000000000111800000000011320000000001114000000000113200194000000000000047100000000000052668000000000000000009999123100000010000000000000BRCAMBACNOR4130
012024072502CAML3       010CAMIL       ON      NM   R$  000000000087000000000008800000000000858000000000087100000000008800000000000873000000000088001245000000000000254400000000000221680600000000000000009999123100000010000000000000BRCAMLACNOR3128
012024072502CASH3       010MELIUZ      ON      NM   R$  000000000058000000000005850000000000572000000000057600000000005720000000000572000000000057401500000000000000532400000000000307021800000000000000009999123100000010000000000000BRCASHACNOR8106
012024072502CBAV3       010CBA         ON      NM   R$  000000000051900000000005740000000000518000000000055000000000005540000000000553000000000055412234000000000007894000000000004349528100000000000000009999123100000010000000000000BRCBAVACNOR5104
012024072502CCRO3       010CCR SA      ON      NM   R$  000000000122800000000012350000000001217000000000122600000000012330000000001231000000000123306886000000000007369500000000009035119000000000000000009999123100000010000000000000BRCCROACNOR2145
012024072502CEAB3       010CEA MODAS   ON      NM   R$  000000000085300000000008690000000000833000000000084700000000008400000000000837000000000084004475000000000002073700000000001756789200000000000000009999123100000010000000000000BRCEABACNOR1102
012024072502CEBR3       010CEB         ON           R$  000000000198300000000019920000000001977000000000198100000000019830000000001975000000000198300013000000000000001600000000000003170400000000000000009999123100000010000000000000BRCEBRACNOR5125
012024072502CEBR5       010CEB         PNA          R$  000000000178000000000017800000000001780000000000178000000000017800000000001778000000000180000003000000000000000300000000000000534000000000000000009999123100000010000000000000BRCEBRACNPA8124
012024072502CEBR6       010CEB         PNB          R$  000000000187900000000018790000000001840000000000186100000000018750000000001860000000000187800029000000000000003500000000000006513500000000000000009999123100000010000000000000BRCEBRACNPB6124
012024072502CEDO4       010CEDRO       PN      N1   R$  000000000248100000000024810000000002481000000000248100000000024810000000002150000000000246500003000000000000000300000000000000744300000000000000009999123100000010000000000000BRCEDOACNPR5128
012024072502CEEB3       010COELBA      ON           R$  000000000413000000000041300000000004130000000000413000000000041300000000004050000000000420000001000000000000000100000000000000413000000000000000009999123100000010000000000000BRCEEBACNOR3199
012024072502CEGR3       010CEG         ON           R$  000000000667800000000066780000000006678000000000667800000000066780000000000000000000000667900001000000000000000300000000000002003400000000000000009999123100000010000000000000BRCEGRACNOR4145
012024072502DASA3       010DASA        ON      NM   R$  000000000031300000000003240000000000296000000000030500000000002980000000000298000000000029902172000000000001095900000000000334851000000000000000009999123100000010000000000000BRDASAACNOR1122
012024072502DESK3       010DESKTOP     ON      NM   R$  000000000155200000000015940000000001552000000000157300000000015900000000001578000000000159000354000000000000250200000000000393761700000000000000009999123100000010000000000000BRDESKACNOR2104
012024072502DEXP3       010DEXXOS PAR  ON      N1   R$  000000000104100000000010420000000001016000000000102700000000010160000000001016000000000102700110000000000000034800000000000035750500000000000000009999123100000010000000000000BRDEXPACNOR1105
012024072502DEXP4       010DEXXOS PAR  PN      N1   R$  000000000102400000000010240000000001024000000000101700000000010240000000001020000000000102300005000000000000003700000000000003764600000000000000009999123100000010000000000000BRDEXPACNPR8105
012024072502DIRR3       010DIRECIONAL  ON      NM   R$  000000000284900000000028900000000002792000000000283100000000028320000000002828000000000283307606000000000001782700000000005046879700000000000000009999123100000010000000000000BRDIRRACNOR0118
012024072502DMVF3       010D1000VFARMA ON      NM   R$  000000000077900000000007920000000000758000000000077400000000007580000000000758000000000076000427000000000000084000000000000065077600000000000000009999123100000010000000000000BRDMVFACNOR9100
012024072502DOHL4       010DOHLER      PN           R$  000000000040500000000004090000000000405000000000040600000000004090000000000398000000000040900003000000000000001500000000000000609300000000000000009999123100000010000000000000BRDOHLACNPR9066
012024072502ALOS3       010ALLOS       ON      NM   R$  000000000216000000000021650000000002133000000000214400000000021440000000002142000000000214412742000000000002983500000000006397803500000000000000009999123100000010000000000000BRALOSACNOR5101
012024072502ALPA3       010ALPARGATAS  ON      N1   R$  000000000085000000000008640000000000820000000000083000000000008260000000000826000000000083400073000000000000036400000000000030221100000000000000009999123100000010000000000000BRALPAACNOR0231
012024072502ALPA4       010ALPARGATAS  PN      N1   R$  000000000084900000000008720000000000836000000000085500000000008550000000000855000000000085605871000000000003025500000000002588828100000000000000009999123100000010000000000000BRALPAACNPR7232
012024072502CPFE3       010CPFL ENERGIAON      NM   R$  000000000329900000000033070000000003231000000000325300000000032310000000003231000000000324207881000000000001418300000000004614455800000000000000009999123100000010000000000000BRCPFEACNOR0137
012024072502CPLE3       010COPEL       ON      N2   R$  000000000089400000000008950000000000886000000000089000000000008900000000000890000000000089304191000000000004340700000000003864023600000000000000009999123100000010000000000000BRCPLEACNOR8149
012024072502CPLE6       010COPEL       PNB     N2   R$  000000000100100000000010120000000000997000000000100100000000010020000000001001000000000100312138000000000008008500000000008023835500000000000000009999123100000010000000000000BRCPLEACNPB9146
012024072502EVEN3       010EVEN        ON      NM   R$  000000000061300000000006230000000000602000000000060800000000006070000000000602000000000060803733000000000000636800000000000387221800000000000000009999123100000010000000000000BREVENACNOR8119
012024072502PDGR3       010PDG REALT   ON      NM   R$  000000000001800000000000190000000000018000000000001800000000000180000000000018000000000001900257000000000001016000000000000018624900000000000000009999123100000010000000000000BRPDGRACNOR8118
012024072502PDTC3       010PADTEC      ON      NM   R$  000000000019300000000001960000000000186000000000019000000000001860000000000186000000000018800063000000000000018300000000000003493700000000000000009999123100000010000000000000BRPDTCACNOR3101
012024072502PEAB3       010PAR AL BAHIAON           R$  000000000440000000000044000000000004400000000000440000000000044000000000000000000000000490000001000000000000000200000000000000880000000000000000009999123100000010000000000000BRPEABACNOR3133
012024072502PETR3       010PETROBRAS   ON      N2   R$  000000000406900000000040880000000004032000000000406700000000040730000000004072000000000408215985000000000006905700000000028085616100000000000000009999123100000010000000000000BRPETRACNOR9205
012024072502PETR4       010PETROBRAS   PN      N2   R$  000000000375600000000037750000000003727000000000375600000000037680000000003768000000000376929935000000000019562600000000073477734200000000000000009999123100000010000000000000BRPETRACNPR6213
012024072502RCSL3       010RECRUSUL    ON           R$  000000000028400000000002890000000000277000000000028300000000002890000000000286000000000028900137000000000000079400000000000022528700000000000000009999123100000010000000000000BRRCSLACNOR4134
012024072502RCSL4       010RECRUSUL    PN           R$  000000000010200000000001070000000000101000000000010300000000001040000000000103000000000010402421000000000001717100000000000177648000000000000000009999123100000010000000000000BRRCSLACNPR1134
012024072502RDNI3       010RNI         ON      NM   R$  000000000030800000000003140000000000306000000000030800000000003080000000000308000000000031300039000000000000008900000000000002748100000000000000009999123100000010000000000000BRRDNIACNOR9116
012024072502RDOR3       010REDE D OR   ON      NM   R$  000000000275000000000027500000000002692000000000271800000000027060000000002706000000000271016528000000000004897300000000013313690200000000000000009999123100000010000000000000BRRDORACNOR8113
012024072502RAIL3       010RUMO S.A.   ON      NM   R$  000000000219600000000022320000000002183000000000221000000000022250000000002222000000000222514413000000000006940800000000015342105200000000000000009999123100000010000000000000BRRAILACNOR9105
012024072502RAIZ4       010RAIZEN      PN      N2   R$  000000000030300000000003080000000000302000000000030500000000003070000000000306000000000030713594000000000011844100000000003616823900000000000000009999123100000010000000000000BRRAIZACNPR6110
012024072502SMTO3       010SAO MARTINHOON      NM   R$  000000000299800000000030600000000002974000000000302800000000030380000000003032000000000304406437000000000001360600000000004120458100000000000000009999123100000010000000000000BRSMTOACNOR3126
012024072502BIOM3       010BIOMM       ON      MA   R$  000000000119600000000011960000000001101000000000112800000000011010000000001101000000000110500441000000000000088800000000000100179700000000000000009999123100000010000000000000BRBIOMACNOR2112
012024072502BLAU3       010BLAU        ON      NM   R$  000000000110000000000011440000000001100000000000111500000000011100000000001110000000000112300796000000000000586400000000000653919800000000000000009999123100000010000000000000BRBLAUACNOR8114
012024072502BMEB3       010MERCANTIL   ON      N1   R$  000000000318700000000031870000000003187000000000318700000000031870000000002503000000000315000002000000000000000600000000000001912200000000000000009999123100000010000000000000BRBMEBACNOR8205
012024072502BMEB4       010MERCANTIL   PN      N1   R$  000000000323300000000034810000000003233000000000335500000000034110000000003411000000000342700147000000000000024700000000000082876500000000000000009999123100000010000000000000BRBMEBACNPR5210
012024072502BMGB4       010BANCO BMG   PN  EJ  N1   R$  000000000034500000000003480000000000341000000000034400000000003480000000000347000000000034800448000000000000208200000000000071627900000000000000009999123100000010000000000000BRBMGBACNPR0110
012024072502BMIN4       010MERC INVEST PN           R$  000000000175000000000017500000000001750000000000175000000000017500000000001565000000000174500002000000000000000200000000000000350000000000000000009999123100000010000000000000BRBMINACNPR1176
012024072502BMKS3       010BIC MONARK  ON           R$  000000003250000000000325000000000032009000000003217700000000324980000000032201000000003249700010000000000000000038000000000001222759000000000000009999123100000010000000000000BRBMKSACNOR9166
012024072502BMOB3       010BEMOBI TECH ON      NM   R$  000000000141400000000014490000000001404000000000142400000000014490000000001445000000000144900776000000000000132300000000000188484200000000000000009999123100000010000000000000BRBMOBACNOR7103
012024072502BOBR4       010BOMBRIL     PN           R$  000000000020200000000002040000000000202000000000020200000000002020000000000202000000000020400007000000000000001500000000000000303400000000000000009999123100000010000000000000BRBOBRACNPR3128
012024072507NUTR3       010NUTRIPLANT  ON      MA   R$  000000000051500000000005290000000000491000000000051000000000005060000000000498000000000050700057000000000000010000000000000005107900000000000000009999123100000010000000000000BRNUTRACNOR0104
012024072508ETER3       010ETERNIT     ON      NM   R$  000000000060900000000006210000000000553000000000058100000000005530000000000552000000000055302674000000000001697900000000000987891400000000000000009999123100000010000000000000BRETERACNOR3243
012024072508CTNM3       010COTEMINAS   ON           R$  000000000075000000000007500000000000750000000000075000000000007500000000000000000000000075000001000000000000000100000000000000075000000000000000009999123100000010000000000000BRCTNMACNOR9130
012024072508CTNM4       010COTEMINAS   PN           R$  000000000009900000000000990000000000099000000000009900000000000990000000000098000000000009900014000000000000025000000000000002475000000000000000009999123100000010000000000000BRCTNMACNPR6129
012024072508CTSA3       010SANTANENSE  ON           R$  000000000023800000000002530000000000238000000000024600000000002400000000000240000000000025000014000000000000004400000000000001084300000000000000009999123100000010000000000000BRCTSAACNOR3062
012024072508CTSA4       010SANTANENSE  PN           R$  000000000011400000000001210000000000111000000000011600000000001170000000000114000000000011900323000000000000155700000000000018070700000000000000009999123100000010000000000000BRCTSAACNPR0062
012024072508JFEN3       010JOAO FORTES ON           R$  000000000004100000000000480000000000037000000000004100000000000370000000000036000000000003703142000000000013981200000000000584494700000000000000009999123100000010000000000000BRJFENACNOR0059
012024072508SGPS3       010SPRINGS     ON      NM   R$  000000000021600000000002160000000000216000000000021600000000002160000000000216000000000021800006000000000000013200000000000002851200000000000000009999123100000010000000000000BRSGPSACNOR4105
012024072508PMAM3       010PARANAPANEMAON      NM   R$  000000000023600000000002410000000000236000000000023800000000002410000000000237000000000024200064000000000000015300000000000003646600000000000000009999123100000010000000000000BRPMAMACNOR3039
012024072508LIGT3       010LIGHT S/A   ON      NM   R$  000000000043100000000004420000000000426000000000043400000000004350000000000435000000000043902285000000000000975800000000000423914500000000000000009999123100000010000000000000BRLIGTACNOR2124
012024072508NEXP3       010NEXPE       ON           R$  000000000042100000000004210000000000410000000000041300000000004100000000000407000000000041900002000000000000000300000000000000124100000000000000009999123100000010000000000000BRNEXPACNOR0101
012024072508AMER3       010AMERICANAS  ON      NM   R$  000000000007600000000000790000000000075000000000007600000000000760000000000076000000000007702282000000000023616100000000001799455200000000000000009999123100000010000000000000BRAMERACNOR6102
012024072508OIBR3       010OI          ON      N1   R$  000000000043900000000004480000000000436000000000044100000000004460000000000446000000000044700688000000000000747600000000000330211300000000000000009999123100000010000000000000BROIBRACNOR1111
012024072508OIBR4       010OI          PN      N1   R$  000000000129600000000012960000000001275000000000127700000000012750000000001275000000000128000011000000000000001900000000000002427800000000000000009999123100000010000000000000BROIBRACNPR8110
012024072508OSXB3       010OSX BRASIL  ON      NM   R$  000000000039100000000003910000000000382000000000038300000000003820000000000383000000000039000004000000000000001300000000000000498400000000000000009999123100000010000000000000BROSXBACNOR8109
012024072508HOOT4       010HOTEIS OTHONPN           R$  000000000022700000000002270000000000227000000000022700000000002270000000000227000000000024300001000000000000000100000000000000022700000000000000009999123100000010000000000000BRHOOTACNPR9015
012024072508RSID3       010ROSSI RESID ON      NM   R$  000000000044100000000004430000000000419000000000042700000000004290000000000420000000000042900239000000000000048400000000000020667600000000000000009999123100000010000000000000BRRSIDACNOR8120
012024072508RNEW11      010RENOVA      UNT     N2   R$  000000000026800000000002710000000000267000000000026800000000002670000000000266000000000027000038000000000000009300000000000002493200000000000000009999123100000010000000000000BRRNEWCDAM15110
012024072508RNEW3       010RENOVA      ON      N2   R$  000000000008700000000000900000000000087000000000008900000000000900000000000089000000000009000065000000000000027200000000000002427800000000000000009999123100000010000000000000BRRNEWACNOR8110
012024072508RNEW4       010RENOVA      PN      N2   R$  000000000008800000000000930000000000087000000000008900000000000890000000000088000000000008900101000000000000102300000000000009171900000000000000009999123100000010000000000000BRRNEWACNPR5110
012024072508RPMG3       010PET MANGUINHON           R$  000000000031100000000003190000000000300000000000030900000000003000000000000295000000000030400130000000000000019600000000000006069400000000000000009999123100000010000000000000BRRPMGACNOR9194
012024072510RENT1       010LOCALIZA    DIR ORD NM   R$  000000000108900000000011000000000001001000000000105900000000011000000000001100000000000110200376000000000000102500000000000108635700000000000000009999123100000010000000000000BRRENTD06OR8195
012024072512ITIT11      010FII INTER ITCI           R$  000000000745000000000074970000000007437000000000745300000000074540000000007440000000000745400084000000000000001227000000000009145292000000000000009999123100000010000000000000BRITITCTF004130
012024072512ITRI11      010FII ITRI    CI           R$  000000000947400000000095680000000009429000000000948800000000094980000000009444000000000949800879000000000000012197000000000115732679000000000000009999123100000010000000000000BRITRICTF008103
012024072512MFAI11      010FII MERITOFACI           R$  000000000610200000000061850000000006100000000000611600000000061850000000006120000000000618500029000000000000000461000000000002819531000000000000009999123100000010000000000000BRMFAICTF005152
012024072512MFCR11      010FII MERITO RCI           R$  000000000250200000000026640000000002502000000000258500000000026640000000002554000000000279900007000000000000000025000000000000064635000000000000009999123100000010000000000000BRMFCRCTF002125
012024072512MFII11      010FII MERITO ICI           R$  000000001010500000000101500000000010105000000001011900000000101470000000010130000000001014700382000000000000003551000000000035933334000000000000009999123100000010000000000000BRMFIICTF008236
012024072512MGHT11      010FII MOGNO HTCI           R$  000000000220200000000023000000000002201000000000224200000000022520000000002241000000000225200263000000000000003032000000000006798478000000000000009999123100000010000000000000BRMGHTCTF005155
012024072512CEOC11      010FII CEO CCP CI           R$  000000000431500000000043650000000004315000000000432200000000043650000000004346000000000439700065000000000000000642000000000002775277000000000000009999123100000010000000000000BRCEOCCTF003216
012024072512BICR11      010FII INTER   CI           R$  000000000627200000000062720000000005912000000000600400000000059830000000005982000000000648800006000000000000000015000000000000090071000000000000009999123100000010000000000000BRBICRCTF009153
012024072512BROF11      010FII BROF    CI  ER       R$  000000000497100000000050140000000004961000000000498300000000050110000000004977000000000501100930000000000000001531000000000007629241000000000000009999123100000010000000000000BRBROFCTF000115
012024072512BTAL11      010FII BTG AGROCI  ER       R$  000000000789800000000078980000000007808000000000783800000000078160000000007816000000000782900844000000000000004840000000000037938041000000000000009999123100000010000000000000BRBTALCTF003141
012024072512BTCI11      010FII BTG CRI CI           R$  000000000099900000000010000000000000991000000000099300000000009930000000000992000000000099310167000000000000142112000000000141155215000000000000009999123100000010000000000000BRBTCICTF005121
012024072512EURO11      010FII EUROPAR CI           R$  000000002455400000000247750000000024400000000002462400000000247740000000024601000000002477500021000000000000000037000000000000911097000000000000009999123100000010000000000000BREUROCTF011360
012024072512IRDM11      010FII IRIDIUM CI           R$  000000000723000000000072500000000007200000000000721700000000072290000000007227000000000722905297000000000000047177000000000340505472000000000000009999123100000010000000000000BRIRDMCTF004187
012024072512IRIM11      010FII IRIM    CI           R$  000000000740000000000074310000000007384000000000741600000000074200000000007382000000000742000077000000000000000387000000000002870364000000000000009999123100000010000000000000BRIRIMCTF003136
012024072512ITIP11      010FII INTER IPCI           R$  000000000805800000000080930000000008050000000000808100000000080500000000008026000000000806500195000000000000001208000000000009762133000000000000009999123100000010000000000000BRITIPCTF002130
012024072512SNFF11      010FII SUNOFOFICI  ER       R$  000000000865000000000087060000000008639000000000867000000000086490000000008648000000000864900739000000000000005640000000000048900781000000000000009999123100000010000000000000BRSNFFCTF001139
012024072512SNLG11      010FII SUNO LG CI  ER       R$  000000000323000000000033270000000003230000000000326300000000032650000000003264000000000326500074000000000000001722000000000005620424000000000000009999123100000010000000000000BRSNLGCTF007105
012024072512SNME11      010FII SNME    CI  ER       R$  000000000097000000000009700000000000965000000000096600000000009660000000000964000000000096600085000000000000002563000000000002475915000000000000009999123100000010000000000000BRSNMECTF000108
012024072512SPGM11      010FII SPGM    CI           R$  000000000106700000000010670000000001067000000000106700000000010670000000000000000000000106700032000000000000004260000000000004545420000000000000009999123100000010000000000000BRSPGMCTF000100
012024072512SPGM15      010FII SPGM    CI           R$  000000000115500000000011550000000001155000000000115500000000011550000000000000000000000115500032000000000000043502000000000050244810000000000000009999123100000010000000000000BRSPGMCTF018100
012024072512SPGM16      010FII SPGM    CI           R$  000000000100000000000010000000000001000000000000100000000000010000000000000000000000000100000032000000000000000425000000000000425000000000000000009999123100000010000000000000BRSPGMCTF026100
012024072512SPTW11      010FII SP DOWNTCI           R$  000000000410900000000041190000000004105000000000411100000000041100000000004108000000000411000125000000000000000884000000000003634921000000000000009999123100000010000000000000BRSPTWCTF002236
012024072512SPXS11      010FII SPX SYN CI           R$  000000000095400000000009540000000000934000000000093900000000009430000000000939000000000094305609000000000000249338000000000234208330000000000000009999123100000010000000000000BRSPXSCTF002125
012024072512CJCT11      010FII CJCTOWERCI           R$  000000000620100000000063900000000006201000000000628300000000063900000000006301000000000639900004000000000000000007000000000000043985000000000000009999123100000010000000000000BRCJCTCTF001116
012024072512CLIN11      010FII CLAVE INCI           R$  000000000959500000000096420000000009503000000000954800000000095180000000009518000000000954110136000000000000037880000000000361680432000000000000009999123100000010000000000000BRCLINCTF007109
012024072512EGDB11      010FII EGDB    CI           R$  000000010113700000001011370000000101137000000010113700000001011370000000000000000000000000000001000000000000000073000000000007383001000000000000009999123100000010000000000000BREGDBCTF009100
012024072512EGYR11      010FII ENERGY  CI           R$  000000000050400000000006000000000000499000000000057700000000005990000000000585000000000059900065000000000000002799000000000001615255000000000000009999123100000010000000000000BREGYRCTF001102
012024072512ICRI11      010FII CI IPCA CI           R$  000000000973000000000097700000000009612000000000967000000000096470000000009647000000000968201110000000000000013451000000000130075398000000000000009999123100000010000000000000BRICRICTF004105
012024072512MALL11      010FII MALLS BPCI           R$  000000001135700000000113570000000011250000000001123300000000113490000000011328000000001134903111000000000000038930000000000437309822000000000000009999123100000010000000000000BRMALLCTF007182
012024072512MANA11      010FII MANATI  CI           R$  000000000096400000000009640000000000958000000000096000000000009620000000000960000000000096202008000000000000026412000000000025364892000000000000009999123100000010000000000000BRMANACTF006126
012024072512MAXR11      010FII MAX RET CI           R$  000000000811500000000082000000000008115000000000816100000000081980000000008143000000000819500038000000000000000245000000000001999643000000000000009999123100000010000000000000BRMAXRCTF009269
012024072512MCCI11      010FII MAUA    CI           R$  000000000920500000000092850000000009109000000000919600000000092670000000009267000000000926904718000000000000038934000000000358048029000000000000009999123100000010000000000000BRMCCICTF008163
012024072512MCEM11      010FII MCEM    CI           R$  000000001098400000000109840000000010984000000001098400000000109840000000010801000000001099700001000000000000000002000000000000021968000000000000009999123100000010000000000000BRMCEMCTF006100
012024072512MCHY11      010FII MAUA HY CI  ER       R$  000000000095400000000009540000000000944000000000094600000000009460000000000946000000000094921637000000000000330876000000000313287919000000000000009999123100000010000000000000BRMCHYCTF004139
012024072512BRCO11      010FII BRESCO  CI           R$  000000001176700000000118140000000011721000000001176000000000117340000000011734000000001175406135000000000000020300000000000238738516000000000000009999123100000010000000000000BRBRCOCTF007158
012024072512BRCR11      010FII BC FUND CI           R$  000000000510000000000051000000000005050000000000506200000000050530000000005052000000000505904947000000000000015899000000000080488222000000000000009999123100000010000000000000BRBRCRCTF000268
012024072512BRIM11      010FII BRIO II CI           R$  000000009692000000000969200000000096919000000009691900000000969190000000050500000000009692000004000000000000000008000000000000775358000000000000009999123100000010000000000000BRBRIMCTF008128
012024072512BRIP11      010FII BRIO IIICI           R$  000000009390000000000939000000000093799000000009384900000000937990000000088001000000009379900002000000000000000002000000000000187699000000000000009999123100000010000000000000BRBRIPCTF001114
012024072512CTXT11      010FII C TEXTILCI           R$  000000000084600000000008480000000000827000000000083800000000008270000000000827000000000084700015000000000000000085000000000000071235000000000000009999123100000010000000000000BRCTXTCTF014207
012024072512CVBI11      010FII VBI CRI CI           R$  000000000931500000000093540000000009256000000000928700000000092600000000009260000000000928706248000000000000018452000000000171366441000000000000009999123100000010000000000000BRCVBICTF001167
012024072512GSFI11      010FII GENERAL CI           R$  000000000080600000000008100000000000791000000000079900000000007970000000000791000000000079700056000000000000001530000000000001223223000000000000009999123100000010000000000000BRGSFICTF009102
012024072512GTWR11      010FII G TOWERSCI           R$  000000000826000000000082830000000008232000000000825100000000082600000000008255000000000826001258000000000000005120000000000042248295000000000000009999123100000010000000000000BRGTWRCTF003164
