00COTAHIST.2024BOVESPA 20240709                                                                                                                                                                                                                      
012024070902CEAB3       010CEA MODAS   ON      NM   R$  000000000098600000000010070000000000982000000000099300000000009940000000000988000000000099404375000000000001530600000000001520558900000000000000009999123100000010000000000000BRCEABACNOR1102
012024070902CEBR3       010CEB         ON           R$  000000000196000000000020190000000001953000000000197700000000020190000000002000000000000204000029000000000000004200000000000008304600000000000000009999123100000010000000000000BRCEBRACNOR5125
012024070902CEBR5       010CEB         PNA          R$  000000000183800000000018380000000001810000000000181700000000018300000000001804000000000183900008000000000000001100000000000001999700000000000000009999123100000010000000000000BRCEBRACNPA8124
012024070902CEBR6       010CEB         PNB          R$  000000000194100000000019410000000001920000000000192900000000019200000000001920000000000194700014000000000000001900000000000003666500000000000000009999123100000010000000000000BRCEBRACNPB6124
012024070902CEDO4       010CEDRO       PN      N1   R$  000000000225900000000022590000000002259000000000225900000000022590000000002259000000000243800005000000000000001500000000000003388500000000000000009999123100000010000000000000BRCEDOACNPR5128
012024070902CEEB3       010COELBA      ON           R$  000000000391200000000039300000000003908000000000391800000000039300000000003903000000000398400005000000000000000500000000000001959100000000000000009999123100000010000000000000BRCEEBACNOR3199
012024070902CGAS5       010COMGAS      PNA          R$  000000001199800000000119980000000011998000000001199800000000119980000000011300000000001169000002000000000000000200000000000002399600000000000000009999123100000010000000000000BRCGASACNPA3160
012024070902CGRA3       010GRAZZIOTIN  ON           R$  000000000253500000000025350000000002535000000000253500000000025350000000002535000000000254000003000000000000000300000000000000760500000000000000009999123100000010000000000000BRCGRAACNOR2083
012024070902CGRA4       010GRAZZIOTIN  PN           R$  000000000254000000000025580000000002540000000000254700000000025550000000002545000000000256600016000000000000002200000000000005604800000000000000009999123100000010000000000000BRCGRAACNPR9083
012024070902CIEL3       010CIELO       ON      NM   R$  000000000057000000000005720000000000570000000000057000000000005720000000000571000000000057208900000000000013078600000000007466098700000000000000009999123100000010000000000000BRCIELACNOR3157
012024070902EPAR3       010EMBPAR S/A  ON           R$  000000000062600000000006300000000000626000000000062700000000006290000000000626000000000062900015000000000000005200000000000003263700000000000000009999123100000010000000000000BREPARACNOR9105
012024070902EQMA3B      010EQTLMARANHAOON      MB   R$  000000000258000000000025990000000002580000000000258900000000025990000000002531000000000260000002000000000000000200000000000000517900000000000000009999123100000010000000000000BREQMAACNOR8108
012024070902EQPA3       010EQTL PARA   ON           R$  000000000072100000000007210000000000703000000000070900000000007050000000000704000000000071000062000000000000007200000000000005108300000000000000009999123100000010000000000000BREQPAACNOR1111
012024070902EQTL3       010EQUATORIAL  ON      NM   R$  000000000327500000000033740000000003275000000000333900000000033460000000003345000000000334725440000000000008225000000000027469986600000000000000009999123100000010000000000000BREQTLACNOR0130
012024070902IFCM3       010INFRACOMM   ON      NM   R$  000000000003900000000000450000000000038000000000004200000000000450000000000044000000000004503499000000000015102700000000000637241500000000000000009999123100000010000000000000BRIFCMACNOR8101
012024070902IGTI11      010IGUATEMI S.AUNT     N1   R$  000000000216200000000022240000000002160000000000219400000000021970000000002197000000000219911072000000000003047200000000006687360500000000000000009999123100000010000000000000BRIGTICDAM16106
012024070902IGTI3       010IGUATEMI S.AON      N1   R$  000000000027200000000002770000000000271000000000027200000000002720000000000271000000000027400165000000000000061900000000000016893500000000000000009999123100000010000000000000BRIGTIACNOR8106
012024070902IGTI4       010IGUATEMI S.APN      N1   R$  000000000095900000000009590000000000959000000000095900000000009590000000000900000000000108600001000000000000000200000000000000191800000000000000009999123100000010000000000000BRIGTIACNPR5106
012024070902INEP3       010INEPAR      ON           R$  000000000019500000000002000000000000192000000000019600000000001960000000000196000000000019800151000000000000040000000000000007867200000000000000009999123100000010000000000000BRINEPACNOR1143
012024070902INEP4       010INEPAR      PN           R$  000000000018700000000001950000000000185000000000018800000000001880000000000187000000000019000039000000000000019200000000000003610000000000000000009999123100000010000000000000BRINEPACNPR8143
012024070902INTB3       010INTELBRAS   ON      NM   R$  000000000225400000000023030000000002231000000000226600000000022810000000002281000000000230404339000000000001286400000000002915254900000000000000009999123100000010000000000000BRINTBACNOR9111
012024070902IRBR3       010IRBBRASIL REON      NM   R$  000000000301800000000030700000000003002000000000304600000000030610000000003060000000000306102703000000000000664500000000002024125500000000000000009999123100000010000000000000BRIRBRACNOR4111
012024070902LUPA3       010LUPATECH    ON      NM   R$  000000000016900000000001700000000000167000000000016700000000001680000000000168000000000016900135000000000000093300000000000015670100000000000000009999123100000010000000000000BRLUPAACNOR8112
012024070902LVTC3       010WDC NETWORKSON      NM   R$  000000000037900000000003790000000000363000000000037300000000003790000000000369000000000038000022000000000000005700000000000002129100000000000000009999123100000010000000000000BRLVTCACNOR4102
012024070902EUCA4       010EUCATEX     PN      N1   R$  000000000156500000000015650000000001531000000000155000000000015600000000001560000000000156200129000000000000020600000000000031950200000000000000009999123100000010000000000000BREUCAACNPR8044
012024070902EVEN3       010EVEN        ON      NM   R$  000000000065700000000006590000000000648000000000065300000000006570000000000650000000000065701701000000000000405000000000000264839700000000000000009999123100000010000000000000BREVENACNOR8119
012024070902AZUL4       010AZUL        PN      N2   R$  000000000085900000000009030000000000853000000000088600000000008900000000000890000000000089114612000000000016149400000000014312562800000000000000009999123100000010000000000000BRAZULACNPR4102
012024070902BBSE3       010BBSEGURIDADEON      NM   R$  000000000331800000000033300000000003301000000000331300000000033250000000003324000000000332513372000000000004066000000000013474535000000000000000009999123100000010000000000000BRBBSEACNOR5124
012024070902BPAN4       010BANCO PAN   PN      N1   R$  000000000082900000000008480000000000819000000000083900000000008410000000000838000000000084204136000000000001843000000000001547768500000000000000009999123100000010000000000000BRBPANACNPR1115
012024070902BRAP3       010BRADESPAR   ON      N1   R$  000000000183700000000018630000000001837000000000185400000000018620000000001862000000000186500377000000000000068400000000000126842200000000000000009999123100000010000000000000BRBRAPACNOR5148
012024070902BRAP4       010BRADESPAR   PN      N1   R$  000000000190000000000019250000000001896000000000191200000000019100000000001910000000000191504916000000000001891500000000003617807400000000000000009999123100000010000000000000BRBRAPACNPR2148
012024070902CRPG5       010CRISTAL     PNA          R$  000000000291500000000029290000000002900000000000290500000000029010000000002901000000000291900018000000000000002500000000000007263600000000000000009999123100000010000000000000BRCRPGACNPA3119
012024070902CRPG6       010CRISTAL     PNB          R$  000000000294400000000029440000000002901000000000292800000000029010000000002876000000000294800003000000000000000300000000000000878400000000000000009999123100000010000000000000BRCRPGACNPB1119
012024070902CSAN3       010COSAN       ON      NM   R$  000000000139000000000014210000000001386000000000140700000000014080000000001408000000000140909789000000000003935700000000005539244800000000000000009999123100000010000000000000BRCSANACNOR6126
012024070902DASA3       010DASA        ON      NM   R$  000000000033600000000003530000000000330000000000034500000000003500000000000350000000000035102120000000000001212900000000000419128100000000000000009999123100000010000000000000BRDASAACNOR1122
012024070902DESK3       010DESKTOP     ON      NM   R$  000000000152700000000015410000000001494000000000150800000000015020000000001502000000000151000749000000000000262900000000000396467600000000000000009999123100000010000000000000BRDESKACNOR2104
012024070902DEXP3       010DEXXOS PAR  ON      N1   R$  000000000102200000000010340000000001014000000000102100000000010230000000001022000000000102300220000000000000049600000000000050643600000000000000009999123100000010000000000000BRDEXPACNOR1105
012024070902DEXP4       010DEXXOS PAR  PN      N1   R$  000000000102700000000010270000000001027000000000102700000000010270000000001012000000000102600001000000000000000100000000000000102700000000000000009999123100000010000000000000BRDEXPACNPR8105
012024070902DIRR3       010DIRECIONAL  ON  ED  NM   R$  000000000262400000000026740000000002617000000000264900000000026730000000002658000000000267305417000000000000956400000000002534099500000000000000009999123100000010000000000000BRDIRRACNOR0118
012024070902DMVF3       010D1000VFARMA ON      NM   R$  000000000074400000000007730000000000731000000000075700000000007560000000000746000000000075600260000000000000065500000000000049617000000000000000009999123100000010000000000000BRDMVFACNOR9100
012024070902DOHL4       010DOHLER      PN           R$  000000000039800000000004040000000000398000000000039900000000004040000000000393000000000039900005000000000000000800000000000000319600000000000000009999123100000010000000000000BRDOHLACNPR9066
012024070902DOTZ3       010DOTZ SA     ON      NM   R$  000000000064400000000006590000000000631000000000064100000000006390000000000639000000000064100039000000000000008900000000000005708100000000000000009999123100000010000000000000BRDOTZACNOR7101
012024070902CLSA3       010CLEARSALE   ON      NM   R$  000000000083500000000009070000000000830000000000087700000000008890000000000889000000000089005794000000000002742500000000002405718700000000000000009999123100000010000000000000BRCLSAACNOR0100
012024070902CLSC4       010CELESC      PN      N2   R$  000000000772800000000077510000000007726000000000774300000000077510000000007751000000000788000008000000000000001200000000000009291700000000000000009999123100000010000000000000BRCLSCACNPR3131
012024070902CMIG3       010CEMIG       ON      N1   R$  000000000127900000000012930000000001270000000000128600000000012930000000001284000000000129300687000000000000109500000000000140871000000000000000009999123100000010000000000000BRCMIGACNOR6242
012024070902CMIG4       010CEMIG       PN      N1   R$  000000000105400000000010660000000001046000000000105500000000010510000000001050000000000105227797000000000009149700000000009662073200000000000000009999123100000010000000000000BRCMIGACNPR3243
012024070902ENAT3       010ENAUTA PART ON      NM   R$  000000000225300000000022720000000002223000000000225100000000022720000000002260000000000227303565000000000000897800000000002021601000000000000000009999123100000010000000000000BRENATACNOR0104
012024070902ENEV3       010ENEVA       ON      NM   R$  000000000127000000000013230000000001270000000000130800000000013230000000001321000000000132314326000000000004616000000000006039611500000000000000009999123100000010000000000000BRENEVACNOR8106
012024070902ENGI11      010ENERGISA    UNT     N2   R$  000000000469100000000047900000000004691000000000476800000000047900000000004760000000000479113362000000000002478300000000011818411500000000000000009999123100000010000000000000BRENGICDAM16135
012024070902ENGI3       010ENERGISA    ON      N2   R$  000000000148800000000015630000000001488000000000151700000000015350000000001530000000000156300050000000000000008500000000000012897500000000000000009999123100000010000000000000BRENGIACNOR0145
012024070902ENGI4       010ENERGISA    PN      N2   R$  000000000081000000000008200000000000797000000000080300000000008080000000000797000000000080900053000000000000015500000000000012459000000000000000009999123100000010000000000000BRENGIACNPR7141
012024070902ENJU3       010ENJOEI      ON      NM   R$  000000000020000000000002190000000000200000000000021100000000002160000000000216000000000021701940000000000001023800000000000216908700000000000000009999123100000010000000000000BRENJUACNOR9100
012024070902LWSA3       010LWSA        ON      NM   R$  000000000044700000000004540000000000436000000000044400000000004490000000000449000000000045005613000000000007173300000000003188930600000000000000009999123100000010000000000000BRLWSAACNOR8103
012024070902ONCO3       010ONCOCLINICASON      NM   R$  000000000076000000000008360000000000760000000000081200000000008180000000000816000000000081808758000000000006480400000000005265368800000000000000009999123100000010000000000000BRONCOACNOR6101
012024070902OPCT3       010OCEANPACT   ON      NM   R$  000000000066100000000006690000000000657000000000066400000000006690000000000664000000000066900352000000000000188700000000000125474300000000000000009999123100000010000000000000BROPCTACNOR0100
012024070902ORVR3       010ORIZON      ON      NM   R$  000000000400000000000042050000000003999000000000415500000000041780000000004176000000000417802042000000000000364400000000001514279400000000000000009999123100000010000000000000BRORVRACNOR0101
012024070902PCAR3       010P.ACUCAR-CBDON      NM   R$  000000000031200000000003250000000000308000000000031900000000003220000000000320000000000032207665000000000013670900000000004363510500000000000000009999123100000010000000000000BRPCARACNOR3167
012024070902BAHI3       010BAHEMA      ON      MA   R$  000000000062600000000006610000000000626000000000064000000000006410000000000641000000000067200006000000000000003000000000000001922200000000000000009999123100000010000000000000BRBAHIACNOR1074
012024070902BALM4       010BAUMER      PN           R$  000000000102500000000010250000000001025000000000102500000000010250000000001006000000000102900001000000000000000100000000000000102500000000000000009999123100000010000000000000BRBALMACNPR2056
012024070902BAZA3       010AMAZONIA    ON           R$  000000000960100000000099400000000009601000000000987600000000099400000000009602000000000994000010000000000000001200000000000011851800000000000000009999123100000010000000000000BRBAZAACNOR0179
012024070902BBAS3       010BRASIL      ON      NM   R$  000000000262800000000026280000000002599000000000261300000000026200000000002618000000000262048948000000000018032800000000047133399800000000000000009999123100000010000000000000BRBBASACNOR3324
012024070902BIOM3       010BIOMM       ON      MA   R$  000000000146800000000015160000000001455000000000148700000000014650000000001464000000000148000438000000000000071700000000000106633200000000000000009999123100000010000000000000BRBIOMACNOR2112
012024070902BLAU3       010BLAU        ON      NM   R$  000000000117700000000011950000000001158000000000117600000000011950000000001189000000000119500906000000000000151600000000000178296600000000000000009999123100000010000000000000BRBLAUACNOR8114
012024070902BMEB4       010MERCANTIL   PN      N1   R$  000000000284000000000029600000000002840000000000290700000000029600000000002960000000000297700028000000000000003800000000000011047200000000000000009999123100000010000000000000BRBMEBACNPR5210
012024070902BMGB4       010BANCO BMG   PN      N1   R$  000000000035500000000003560000000000352000000000035300000000003550000000000354000000000035500727000000000000279100000000000098725800000000000000009999123100000010000000000000BRBMGBACNPR0109
012024070902BMKS3       010BIC MONARK  ON           R$  000000003305000000000349900000000032506000000003265700000000349900000000032517000000003489900006000000000000000020000000000000653148000000000000009999123100000010000000000000BRBMKSACNOR9166
012024070902BMOB3       010BEMOBI TECH ON      NM   R$  000000000147400000000014860000000001428000000000145100000000014380000000001438000000000144303329000000000000616900000000000895484700000000000000009999123100000010000000000000BRBMOBACNOR7103
012024070902CAMB3       010CAMBUCI     ON           R$  000000000105200000000010800000000001051000000000106900000000010600000000001060000000000107800084000000000000055800000000000059692200000000000000009999123100000010000000000000BRCAMBACNOR4130
012024070902CAML3       010CAMIL       ON      NM   R$  000000000087100000000008710000000000848000000000085500000000008620000000000857000000000086201711000000000000432700000000000370213400000000000000009999123100000010000000000000BRCAMLACNOR3128
012024070902CASH3       010MELIUZ      ON      NM   R$  000000000062000000000006250000000000611000000000061500000000006110000000000611000000000061601800000000000000765200000000000471230300000000000000009999123100000010000000000000BRCASHACNOR8106
012024070902BOBR4       010BOMBRIL     PN           R$  000000000020700000000002080000000000205000000000020600000000002070000000000204000000000020700021000000000000007900000000000001629200000000000000009999123100000010000000000000BRBOBRACNPR3128
012024070902BRSR3       010BANRISUL    ON      N1   R$  000000000125000000000012620000000001235000000000124900000000012610000000001235000000000126100035000000000000007900000000000009872900000000000000009999123100000010000000000000BRBRSRACNOR3188
012024070902BRSR6       010BANRISUL    PNB     N1   R$  000000000120000000000012000000000001151000000000116700000000011840000000001184000000000118506392000000000003098000000000003616639500000000000000009999123100000010000000000000BRBRSRACNPB4191
012024070902LAND3       010TERRASANTAPAON      NM   R$  000000000142300000000014500000000001404000000000142000000000014230000000001423000000000142500333000000000000049400000000000070178400000000000000009999123100000010000000000000BRLANDACNOR9103
012024070902LAVV3       010LAVVI       ON      NM   R$  000000000090300000000009030000000000885000000000089400000000008990000000000893000000000089902141000000000000511600000000000457837300000000000000009999123100000010000000000000BRLAVVACNOR4112
012024070902LEVE3       010METAL LEVE  ON      NM   R$  000000000332900000000033440000000003288000000000331700000000033220000000003321000000000332701347000000000000254300000000000843568900000000000000009999123100000010000000000000BRLEVEACNOR2197
012024070902LJQQ3       010QUERO-QUERO ON      NM   R$  000000000042200000000004320000000000415000000000042200000000004250000000000421000000000042503582000000000002148700000000000907099500000000000000009999123100000010000000000000BRLJQQACNOR5104
012024070902DXCO3       010DEXCO       ON      NM   R$  000000000068300000000007030000000000671000000000068700000000007030000000000696000000000070308105000000000003756600000000002583280100000000000000009999123100000010000000000000BRDXCOACNOR8105
012024070902GGPS3       010GPS         ON      NM   R$  000000000168100000000017250000000001664000000000171000000000017140000000001714000000000171605995000000000002061800000000003526411000000000000000009999123100000010000000000000BRGGPSACNOR9103
012024070902GMAT3       010GRUPO MATEUSON      NM   R$  000000000073300000000007370000000000726000000000073000000000007320000000000731000000000073204392000000000001980200000000001446215700000000000000009999123100000010000000000000BRGMATACNOR7102
012024070902GOAU3       010GERDAU MET  ON      N1   R$  000000000106700000000010690000000001054000000000106300000000010660000000001065000000000107000093000000000000017800000000000018931300000000000000009999123100000010000000000000BRGOAUACNOR1267
012024070902GOAU4       010GERDAU MET  PN      N1   R$  000000000105400000000010570000000001036000000000104800000000010550000000001055000000000105607076000000000004096500000000004295611300000000000000009999123100000010000000000000BRGOAUACNPR8268
012024070902MILS3       010MILLS       ON  EJ  NM   R$  000000000112300000000011500000000001107000000000113700000000011500000000001145000000000115003599000000000001160500000000001319720100000000000000009999123100000010000000000000BRMILSACNOR2127
012024070902MLAS3       010MULTILASER  ON      NM   R$  000000000021100000000002180000000000209000000000021400000000002170000000000216000000000021702882000000000001394700000000000299393200000000000000009999123100000010000000000000BRMLASACNOR9101
012024070902MNPR3       010MINUPAR     ON           R$  000000000130000000000013000000000001300000000000130000000000013000000000001211000000000130300001000000000000000500000000000000650000000000000000009999123100000010000000000000BRMNPRACNOR5122
012024070902MOVI3       010MOVIDA      ON      NM   R$  000000000068200000000007070000000000665000000000069500000000006960000000000695000000000069711011000000000004463600000000003106280400000000000000009999123100000010000000000000BRMOVIACNOR0122
012024070902ASAI3       010ASSAI       ON      NM   R$  000000000116200000000011730000000001145000000000115400000000011480000000001148000000000114919778000000000014484000000000016716624500000000000000009999123100000010000000000000BRASAIACNOR0106
012024070902ATOM3       010ATOMPAR     ON           R$  000000000020200000000002040000000000202000000000020200000000002040000000000201000000000020400009000000000000002700000000000000546600000000000000009999123100000010000000000000BRATOMACNOR1106
012024070902BPAC11      010BTGP BANCO  UNT EJ  N2   R$  000000000323900000000032390000000003174000000000320200000000031980000000003197000000000320023890000000000015917300000000050982258000000000000000009999123100000010000000000000BRBPACUNT006119
012024070902BPAC3       010BTGP BANCO  ON  EJ  N2   R$  000000000155800000000015650000000001550000000000155500000000015500000000001546000000000156700027000000000000006200000000000009644700000000000000009999123100000010000000000000BRBPACACNOR7134
012024070902BPAC5       010BTGP BANCO  PNA EJ  N2   R$  000000000082100000000008210000000000812000000000081600000000008160000000000816000000000083100019000000000000003100000000000002530400000000000000009999123100000010000000000000BRBPACACNPA0134
012024070902CPFE3       010CPFL ENERGIAON      NM   R$  000000000335000000000033690000000003329000000000334500000000033370000000003337000000000335204756000000000001130700000000003783175600000000000000009999123100000010000000000000BRCPFEACNOR0137
012024070902CPLE3       010COPEL       ON      N2   R$  000000000087300000000008930000000000870000000000088700000000008900000000000890000000000089104775000000000002454600000000002177372400000000000000009999123100000010000000000000BRCPLEACNOR8149
012024070902CPLE6       010COPEL       PNB     N2   R$  000000000098400000000010020000000000981000000000099600000000010000000000000998000000000100114466000000000010757000000000010715079400000000000000009999123100000010000000000000BRCPLEACNPB9146
012024070902CRFB3       010CARREFOUR BRON      NM   R$  000000000103400000000010450000000001015000000000103300000000010340000000001034000000000103510063000000000004776800000000004935540300000000000000009999123100000010000000000000BRCRFBACNOR2116
012024070902FRAS3       010FRAS-LE     ON      N1   R$  000000000203400000000020340000000002011000000000202200000000020260000000002025000000000202601060000000000000266500000000000539008500000000000000009999123100000010000000000000BRFRASACNOR0159
012024070902FRIO3       010METALFRIO   ON      NM   R$  000000002585000000000258500000000025500000000002567500000000255000000000025500000000002590000002000000000000000400000000000010270000000000000000009999123100000010000000000000BRFRIOACNOR2111
012024070902GEPA4       010GER PARANAP PN           R$  000000000263000000000026450000000002600000000000263100000000026000000000002575000000000264900007000000000000000800000000000002105500000000000000009999123100000010000000000000BRGEPAACNPR9160
012024070902GFSA3       010GAFISA      ON      NM   R$  000000000033600000000003490000000000334000000000034100000000003410000000000341000000000034201987000000000003255200000000001113174900000000000000009999123100000010000000000000BRGFSAACNOR3124
012024070902GGBR3       010GERDAU      ON      N1   R$  000000000159300000000016190000000001581000000000159900000000016100000000001605000000000161000131000000000000027200000000000043494700000000000000009999123100000010000000000000BRGGBRACNOR1192
012024070902GGBR4       010GERDAU      PN      N1   R$  000000000177900000000017940000000001757000000000177800000000017910000000001787000000000179111348000000000005638400000000010027293600000000000000009999123100000010000000000000BRGGBRACNPR8192
012024070902ALPA3       010ALPARGATAS  ON      N1   R$  000000000092000000000010000000000000920000000000096100000000010000000000000946000000000102000063000000000000008800000000000008461500000000000000009999123100000010000000000000BRALPAACNOR0231
012024070902ALPA4       010ALPARGATAS  PN      N1   R$  000000000092400000000009530000000000915000000000094000000000009500000000000948000000000095106201000000000002237300000000002104493300000000000000009999123100000010000000000000BRALPAACNPR7232
012024070902ALPK3       010ESTAPAR     ON      NM   R$  000000000034500000000003450000000000329000000000033900000000003450000000000340000000000034500692000000000000104000000000000035312900000000000000009999123100000010000000000000BRALPKACNOR9101
012024070902ALUP11      010ALUPAR      UNT     N2   R$  000000000307600000000031180000000003065000000000310400000000031180000000003106000000000312003216000000000000647500000000002010183700000000000000009999123100000010000000000000BRALUPCDAM15119
012024070902ALUP3       010ALUPAR      ON      N2   R$  000000000104700000000010600000000001047000000000105400000000010600000000001052000000000106000038000000000000003900000000000004113000000000000000009999123100000010000000000000BRALUPACNOR8119
012024070902ALUP4       010ALUPAR      PN      N2   R$  000000000101400000000010250000000001012000000000101800000000010240000000001013000000000102300066000000000000008100000000000008246700000000000000009999123100000010000000000000BRALUPACNPR5119
012024070902AMAR3       010LOJAS MARISAON      NM   R$  000000000014800000000001520000000000144000000000014600000000001470000000000145000000000014701023000000000001019300000000000149797700000000000000009999123100000010000000000000BRAMARACNOR4115
012024070902AMBP3       010AMBIPAR     ON      NM   R$  000000000186900000000020500000000001842000000000197400000000020340000000002034000000000204010427000000000005083600000000010036958700000000000000009999123100000010000000000000BRAMBPACNOR6103
012024070902ANIM3       010ANIMA       ON      NM   R$  000000000036500000000003820000000000358000000000037300000000003820000000000381000000000038303700000000000003974700000000001483531200000000000000009999123100000010000000000000BRANIMACNOR6107
012024070902ARML3       010ARMAC       ON  EDJ NM   R$  000000000107500000000010930000000001059000000000107900000000010820000000001081000000000108202652000000000000907300000000000979531700000000000000009999123100000010000000000000BRARMLACNOR1112
012024070902LOGG3       010LOG COM PROPON      NM   R$  000000000244200000000024860000000002424000000000245900000000024780000000002466000000000247802085000000000000308300000000000758396600000000000000009999123100000010000000000000BRLOGGACNOR7107
012024070902LOGN3       010LOG-IN      ON      NM   R$  000000000401200000000042630000000003965000000000418300000000042440000000004241000000000425400118000000000000028000000000000117135100000000000000009999123100000010000000000000BRLOGNACNOR3105
012024070902LPSB3       010LOPES BRASILON      NM   R$  000000000019200000000002100000000000190000000000019600000000001920000000000191000000000019400306000000000000089000000000000017516200000000000000009999123100000010000000000000BRLPSBACNOR0114
012024070902LREN3       010LOJAS RENNERON      NM   R$  000000000130500000000013320000000001302000000000131900000000013240000000001323000000000132518067000000000010975700000000014485381200000000000000009999123100000010000000000000BRLRENACNOR1221
012024070902NGRD3       010NEOGRID     ON      NM   R$  000000000009500000000000990000000000092000000000009400000000000920000000000092000000000009300605000000000000627200000000000059464000000000000000009999123100000010000000000000BRNGRDACNOR3104
012024070902KLBN11      010KLABIN S/A  UNT     N2   R$  000000000208000000000020860000000002063000000000207400000000020860000000002084000000000208613197000000000003885800000000008062859100000000000000009999123100000010000000000000BRKLBNCDAM18142
012024070902KLBN3       010KLABIN S/A  ON      N2   R$  000000000041900000000004190000000000413000000000041500000000004190000000000418000000000041900602000000000000217600000000000090450600000000000000009999123100000010000000000000BRKLBNACNOR2170
012024070902KLBN4       010KLABIN S/A  PN      N2   R$  000000000041800000000004180000000000413000000000041500000000004150000000000415000000000041601704000000000000917400000000000380788900000000000000009999123100000010000000000000BRKLBNACNPR9170
012024070902RPAD3       010ALFA HOLDINGON           R$  000000000087600000000008760000000000876000000000087600000000008760000000000872000000000094500001000000000000000300000000000000262800000000000000009999123100000010000000000000BRRPADACNOR1198
012024070902RRRP3       0103R PETROLEUMON      NM   R$  000000000281200000000028430000000002768000000000280200000000028150000000002815000000000281807212000000000002160700000000006055819300000000000000009999123100000010000000000000BRRRRPACNOR5103
012024070902RSUL4       010RIOSULENSE  PN           R$  000000000680000000000069250000000006621000000000680400000000069250000000006787000000000692600046000000000000006400000000000043547000000000000000009999123100000010000000000000BRRSULACNPR3114
012024070902NINJ3       010GETNINJAS   ON      NM   R$  000000000045700000000004720000000000452000000000046300000000004640000000000461000000000046400070000000000000011200000000000005186500000000000000009999123100000010000000000000BRNINJACNOR5101
012024070902NORD3       010NORDON MET  ON           R$  000000000055900000000005590000000000520000000000054000000000005410000000000540000000000060900012000000000000001400000000000000757300000000000000009999123100000010000000000000BRNORDACNOR7135
012024070902NTCO3       010GRUPO NATURAON      NM   R$  000000000158000000000016110000000001580000000000159600000000015890000000001589000000000159606865000000000006745700000000010772274800000000000000009999123100000010000000000000BRNTCOACNOR5106
012024070902SYNE3       010SYN PROP TECON      NM   R$  000000000101800000000010330000000001010000000000102000000000010210000000001021000000000102800834000000000000233600000000000238278000000000000000009999123100000010000000000000BRSYNEACNOR2102
012024070902BEES3       010BANESTES    ON  EJ       R$  000000000090500000000009060000000000901000000000090300000000009010000000000900000000000090200037000000000000004700000000000004248500000000000000009999123100000010000000000000BRBEESACNOR9393
012024070902BEES4       010BANESTES    PN  EJ       R$  000000000097600000000009760000000000965000000000096800000000009670000000000961000000000097000016000000000000002400000000000002325100000000000000009999123100000010000000000000BRBEESACNPR6318
012024070902TAEE11      010TAESA       UNT     N2   R$  000000000345000000000034780000000003445000000000346800000000034690000000003469000000000347303954000000000000788000000000002733543900000000000000009999123100000010000000000000BRTAEECDAM10147
012024070902TAEE3       010TAESA       ON      N2   R$  000000000114100000000011500000000001141000000000114600000000011450000000001145000000000114800312000000000000065800000000000075452900000000000000009999123100000010000000000000BRTAEEACNOR9147
012024070902TAEE4       010TAESA       PN      N2   R$  000000000115700000000011680000000001156000000000116200000000011650000000001163000000000116500471000000000000105600000000000122745100000000000000009999123100000010000000000000BRTAEEACNPR6147
012024070902VAMO3       010VAMOS       ON      NM   R$  000000000089100000000009080000000000878000000000089300000000009060000000000906000000000090712471000000000006492100000000005798652200000000000000009999123100000010000000000000BRVAMOACNOR7105
012024070902PETZ3       010PETZ        ON      NM   R$  000000000037200000000003960000000000371000000000038700000000003930000000000393000000000039406695000000000006107900000000002365592400000000000000009999123100000010000000000000BRPETZACNOR2110
012024070902BGIP4       010BANESE      PN           R$  000000000228000000000022900000000002280000000000228800000000022900000000002260000000000229000003000000000000000700000000000001602000000000000000009999123100000010000000000000BRBGIPACNPR8208
012024070902BHIA3       010CASAS BAHIA ON      NM   R$  000000000056800000000005840000000000567000000000057700000000005750000000000575000000000057702206000000000002368700000000001367036900000000000000009999123100000010000000000000BRBHIAACNOR1102
012024070902ROMI3       010ROMI        ON      NM   R$  000000000109100000000011030000000001084000000000109100000000011000000000001089000000000110100809000000000000138300000000000151000200000000000000009999123100000010000000000000BRROMIACNOR8195
012024070902RECV3       010PETRORECSA  ON      NM   R$  000000000205100000000020690000000002030000000000205400000000020660000000002064000000000206603395000000000001128600000000002318643700000000000000009999123100000010000000000000BRRECVACNOR3107
012024070902REDE3       010REDE ENERGIAON  ED       R$  000000000069300000000007090000000000691000000000069800000000007010000000000701000000000070900013000000000000001300000000000000907900000000000000009999123100000010000000000000BRREDEACNOR7128
012024070902BRIT3       010BRISANET    ON      NM   R$  000000000041100000000004180000000000410000000000041300000000004100000000000410000000000041200323000000000000267500000000000110696600000000000000009999123100000010000000000000BRBRITACNOR0103
012024070902BRKM3       010BRASKEM     ON      N1   R$  000000000181800000000018700000000001818000000000184000000000018590000000001849000000000186900017000000000000004600000000000008466800000000000000009999123100000010000000000000BRBRKMACNOR1119
012024070902BRKM5       010BRASKEM     PNA     N1   R$  000000000185300000000018640000000001831000000000185000000000018440000000001844000000000184505445000000000001536100000000002841836400000000000000009999123100000010000000000000BRBRKMACNPA4121
012024070902CSUD3       010CSU DIGITAL ON  EJ  NM   R$  000000000199700000000020000000000001971000000000198700000000019940000000001991000000000199400157000000000000034000000000000067564400000000000000009999123100000010000000000000BRCSUDACNOR5110
012024070902CTKA3       010KARSTEN     ON           R$  000000000216000000000021600000000002160000000000216000000000021600000000001000000000000220000001000000000000000100000000000000216000000000000000009999123100000010000000000000BRCTKAACNOR0043
012024070902CTKA4       010KARSTEN     PN           R$  000000000197000000000020000000000001970000000000197700000000020000000000001701000000000200000003000000000000000400000000000000791000000000000000009999123100000010000000000000BRCTKAACNPR7043
012024070902CURY3       010CURY S/A    ON      NM   R$  000000000214200000000021550000000002130000000000214100000000021550000000002150000000000215607394000000000001385300000000002966038300000000000000009999123100000010000000000000BRCURYACNOR3109
012024070902RENT3       010LOCALIZA    ON      NM   R$  000000000435400000000044780000000004335000000000443200000000044420000000004442000000000444418022000000000005540200000000024556708000000000000000009999123100000010000000000000BRRENTACNOR4196
012024070902SNSY3       010SANSUY      ON           R$  000000000129900000000013390000000001280000000000132200000000013090000000001270000000000131000017000000000000003700000000000004894700000000000000009999123100000010000000000000BRSNSYACNOR2113
012024070902SNSY5       010SANSUY      PNA          R$  000000000059500000000006050000000000588000000000059300000000005880000000000588000000000060900022000000000000003600000000000002136500000000000000009999123100000010000000000000BRSNSYACNPA5111
012024070902SOJA3       010BOA SAFRA   ON      NM   R$  000000000154100000000015410000000001511000000000151900000000015200000000001517000000000152001845000000000000281200000000000427386100000000000000009999123100000010000000000000BRSOJAACNOR9105
012024070902SOMA3       010GRUPO SOMA  ON      NM   R$  000000000063200000000006460000000000629000000000064100000000006450000000000644000000000064510583000000000004099800000000002631067900000000000000009999123100000010000000000000BRSOMAACNOR3102
012024070902CVCB3       010CVC BRASIL  ON      NM   R$  000000000020000000000002190000000000199000000000021100000000002150000000000215000000000021611103000000000038618200000000008185553600000000000000009999123100000010000000000000BRCVCBACNOR1116
012024070902ELET3       010ELETROBRAS  ON      N1   R$  000000000376600000000038660000000003766000000000383500000000038550000000003849000000000385521854000000000006961500000000026699465800000000000000009999123100000010000000000000BRELETACNOR6160
012024070902ELET6       010ELETROBRAS  PNB     N1   R$  000000000420100000000042880000000004190000000000426800000000042730000000004269000000000427305021000000000001153700000000004924193700000000000000009999123100000010000000000000BRELETACNPB7077
012024070902HBOR3       010HELBOR      ON      NM   R$  000000000022300000000002240000000000219000000000022100000000002230000000000221000000000022300748000000000000531100000000000117581500000000000000009999123100000010000000000000BRHBORACNOR3118
012024070902HBRE3       010HBR REALTY  ON      NM   R$  000000000054400000000005620000000000533000000000054800000000005600000000000560000000000056100999000000000000397200000000000217748700000000000000009999123100000010000000000000BRHBREACNOR4100
012024070902HBSA3       010HIDROVIAS   ON      NM   R$  000000000039600000000004030000000000388000000000039300000000003940000000000394000000000039706319000000000005484900000000002160456500000000000000009999123100000010000000000000BRHBSAACNOR0100
012024070902HBTS5       010HABITASUL   PNA          R$  000000000380800000000038080000000003808000000000380800000000038080000000003761000000000409600001000000000000000100000000000000380800000000000000009999123100000010000000000000BRHBTSACNPA3128
012024070902HETA4       010HERCULES    PN           R$  000000000053500000000005350000000000535000000000053500000000005350000000000521000000000053900001000000000000000100000000000000053500000000000000009999123100000010000000000000BRHETAACNPR9136
012024070902SRNA3       010SERENA      ON      NM   R$  000000000091000000000009360000000000904000000000092700000000009330000000000931000000000093304313000000000000947900000000000879281200000000000000009999123100000010000000000000BRSRNAACNOR4100
012024070902STBP3       010SANTOS BRP  ON      NM   R$  000000000143100000000014490000000001411000000000142400000000014340000000001433000000000143407943000000000002329300000000003317896600000000000000009999123100000010000000000000BRSTBPACNOR3130
012024070902SUZB3       010SUZANO S.A. ON      NM   R$  000000000532300000000053600000000005260000000000529100000000052830000000005280000000000528326592000000000007561400000000040008382000000000000000009999123100000010000000000000BRSUZBACNOR0130
012024070902RAIZ4       010RAIZEN      PN      N2   R$  000000000030500000000003070000000000302000000000030400000000003030000000000303000000000030407537000000000011385000000000003463869500000000000000009999123100000010000000000000BRRAIZACNPR6110
012024070902RANI3       010IRANI       ON      NM   R$  000000000091000000000009100000000000886000000000089600000000008950000000000894000000000089502424000000000000832600000000000746279000000000000000009999123100000010000000000000BRRANIACNOR5072
012024070902RAPT3       010RANDON PART ON      N1   R$  000000000098100000000010080000000000972000000000099300000000010080000000000985000000000100800087000000000000016100000000000015992500000000000000009999123100000010000000000000BRRAPTACNOR7162
012024070902RAPT4       010RANDON PART PN      N1   R$  000000000115500000000011680000000001139000000000115200000000011620000000001162000000000117007546000000000005649900000000006509091000000000000000009999123100000010000000000000BRRAPTACNPR4162
012024070902HYPE3       010HYPERA      ON      NM   R$  000000000285000000000029070000000002842000000000289700000000029070000000002903000000000290707126000000000003038100000000008802933900000000000000009999123100000010000000000000BRHYPEACNOR0142
012024070902RCSL3       010RECRUSUL    ON           R$  000000000031300000000003190000000000306000000000031400000000003150000000000314000000000031501196000000000000426600000000000133982500000000000000009999123100000010000000000000BRRCSLACNOR4134
012024070902RCSL4       010RECRUSUL    PN           R$  000000000010900000000001160000000000109000000000011300000000001150000000000114000000000011500945000000000000971700000000000110292400000000000000009999123100000010000000000000BRRCSLACNPR1134
012024070902RDNI3       010RNI         ON      NM   R$  000000000031000000000003110000000000306000000000030900000000003090000000000307000000000031000014000000000000006200000000000001918900000000000000009999123100000010000000000000BRRDNIACNOR9116
012024070902RDOR3       010REDE D OR   ON  EJ  NM   R$  000000000278500000000028590000000002774000000000281600000000028590000000002850000000000285922315000000000007759400000000021856253300000000000000009999123100000010000000000000BRRDORACNOR8113
012024070902SMFT3       010SMART FIT   ON      NM   R$  000000000228400000000023030000000002258000000000228300000000022890000000002287000000000229005023000000000000863800000000001972453400000000000000009999123100000010000000000000BRSMFTACNOR1112
012024070902SMTO3       010SAO MARTINHOON      NM   R$  000000000329500000000033090000000003237000000000326700000000032630000000003262000000000326906197000000000001034100000000003378866800000000000000009999123100000010000000000000BRSMTOACNOR3126
012024070902VALE3       010VALE        ON      NM   R$  000000000629700000000063230000000006271000000000629700000000063020000000006302000000000630322235000000000009794400000000061676704900000000000000009999123100000010000000000000BRVALEACNOR0210
012024070902TRPL3       010TRAN PAULISTON      N1   R$  000000000340100000000034500000000003400000000000342500000000034490000000003234000000000345000004000000000000000400000000000001370000000000000000009999123100000010000000000000BRTRPLACNOR4185
012024070902TRPL4       010TRAN PAULISTPN      N1   R$  000000000269400000000027400000000002689000000000272800000000027340000000002725000000000273408685000000000001585500000000004325562700000000000000009999123100000010000000000000BRTRPLACNPR1185
012024070902TTEN3       0103TENTOS     ON      NM   R$  000000000104600000000010640000000001046000000000105600000000010600000000001060000000000106502706000000000000399600000000000422143200000000000000009999123100000010000000000000BRTTENACNOR0103
012024070902TUPY3       010TUPY        ON      NM   R$  000000000246900000000025190000000002457000000000249400000000024940000000002494000000000251202432000000000000468000000000001167380200000000000000009999123100000010000000000000BRTUPYACNOR1184
012024070902UCAS3       010UNICASA     ON      NM   R$  000000000022500000000002270000000000221000000000022400000000002250000000000223000000000022500111000000000000018200000000000004081300000000000000009999123100000010000000000000BRUCASACNOR1113
012024070902UGPA3       010ULTRAPAR    ON      NM   R$  000000000225400000000023220000000002238000000000229900000000022980000000002298000000000230219315000000000004626600000000010639023200000000000000009999123100000010000000000000BRUGPAACNOR8155
012024070902VLID3       010VALID       ON      NM   R$  000000000155700000000015850000000001546000000000156600000000015850000000001566000000000158502779000000000000383400000000000600723400000000000000009999123100000010000000000000BRVLIDACNOR5143
012024070902VSTE3       010VESTE       ON      NM   R$  000000000147100000000014890000000001444000000000146000000000014440000000001440000000000144400030000000000000003700000000000005405200000000000000009999123100000010000000000000BRVSTEACNOR5103
012024070902VTRU3       010VITRUEDUCA  ON      NM   R$  000000000141600000000014380000000001396000000000141400000000014130000000001410000000000141500415000000000000066000000000000093330000000000000000009999123100000010000000000000BRVTRUACNOR3100
012024070902VULC3       010VULCABRAS   ON      NM   R$  000000000153000000000015580000000001520000000000154300000000015580000000001552000000000155803087000000000000708400000000001093675200000000000000009999123100000010000000000000BRVULCACNOR2159
012024070902VVEO3       010VIVEO       ON      NM   R$  000000000031100000000003170000000000298000000000030900000000003110000000000307000000000031105221000000000003830800000000001184442500000000000000009999123100000010000000000000BRVVEOACNOR0104
012024070902WEGE3       010WEG         ON  EJ  NM   R$  000000000440900000000044600000000004405000000000443600000000044550000000004446000000000445517645000000000005605400000000024869029800000000000000009999123100000010000000000000BRWEGEACNOR0223
012024070902MTRE3       010MITRE REALTYON      NM   R$  000000000040700000000004100000000000400000000000040400000000004010000000000400000000000040102832000000000000805900000000000325944900000000000000009999123100000010000000000000BRMTREACNOR6112
012024070902MTSA4       010METISA      PN           R$  000000000450000000000045170000000004419000000000448200000000045170000000004101000000000451800036000000000000003900000000000017480300000000000000009999123100000010000000000000BRMTSAACNPR9072
012024070902MULT3       010MULTIPLAN   ON      N2   R$  000000000240500000000024320000000002396000000000241500000000024320000000002432000000000243313448000000000003120300000000007537040400000000000000009999123100000010000000000000BRMULTACNOR5139
012024070902MYPK3       010IOCHP-MAXIONON  EJ  NM   R$  000000000119100000000011910000000001152000000000116800000000011670000000001167000000000116804622000000000001151600000000001345651500000000000000009999123100000010000000000000BRMYPKACNOR7155
012024070902NEOE3       010NEOENERGIA  ON  EJ  NM   R$  000000000188900000000019270000000001877000000000191000000000019150000000001913000000000191504584000000000001111300000000002123616000000000000000009999123100000010000000000000BRNEOEACNOR3123
012024070902PFRM3       010PROFARMA    ON      NM   R$  000000000053400000000005510000000000527000000000053200000000005510000000000541000000000055300523000000000000222000000000000118224500000000000000009999123100000010000000000000BRPFRMACNOR1116
012024070902PGMN3       010PAGUE MENOS ON      NM   R$  000000000027000000000002700000000000263000000000026600000000002680000000000267000000000026900666000000000000412500000000000109807700000000000000009999123100000010000000000000BRPGMNACNOR8103
012024070902PINE3       010PINE        ON  EJ  N2   R$  000000000057800000000005800000000000578000000000057900000000005800000000000543000000000058000003000000000000000400000000000000231600000000000000009999123100000010000000000000BRPINEACNOR1150
012024070902PINE4       010PINE        PN  EJ  N2   R$  000000000042800000000004390000000000418000000000042700000000004350000000000435000000000043800477000000000000229100000000000098030000000000000000009999123100000010000000000000BRPINEACNPR8150
012024070902PLPL3       010PLANOEPLANO ON      NM   R$  000000000100600000000010170000000000995000000000100300000000010000000000000999000000000100502341000000000000731400000000000734224500000000000000009999123100000010000000000000BRPLPLACNOR5104
012024070902PNVL3       010DIMED       ON      NM   R$  000000000100100000000010050000000000985000000000099300000000009930000000000993000000000099401060000000000000208700000000000207345900000000000000009999123100000010000000000000BRPNVLACNOR9207
012024070902POMO3       010MARCOPOLO   ON      N2   R$  000000000051800000000005180000000000500000000000050900000000005150000000000509000000000051600829000000000000483400000000000246521300000000000000009999123100000010000000000000BRPOMOACNOR0098
012024070902POMO4       010MARCOPOLO   PN      N2   R$  000000000065500000000006550000000000640000000000064800000000006520000000000651000000000065210644000000000005064700000000003282234300000000000000009999123100000010000000000000BRPOMOACNPR7098
012024070902PORT3       010WILSON SONS ON      NM   R$  000000000154500000000015650000000001534000000000155300000000015580000000001554000000000156400656000000000000188300000000000292542500000000000000009999123100000010000000000000BRPORTACNOR8108
012024070902POSI3       010POSITIVO TECON      NM   R$  000000000083800000000008600000000000836000000000085100000000008450000000000844000000000084502425000000000000573200000000000487969900000000000000009999123100000010000000000000BRPOSIACNOR9116
012024070902PRIO3       010PETRORIO    ON      NM   R$  000000000451600000000045650000000004474000000000452800000000045410000000004540000000000454215688000000000003451900000000015632363500000000000000009999123100000010000000000000BRPRIOACNOR1106
012024070902EGIE3       010ENGIE BRASILON      NM   R$  000000000456000000000046100000000004550000000000458500000000045770000000004576000000000457903254000000000000764200000000003504584500000000000000009999123100000010000000000000BREGIEACNOR9126
012024070902EKTR4       010ELEKTRO     PN           R$  000000000395000000000039500000000003945000000000394800000000039450000000003945000000000395000003000000000000000300000000000001184500000000000000009999123100000010000000000000BREKTRACNPR7163
012024070902GRND3       010GRENDENE    ON      NM   R$  000000000059500000000006100000000000594000000000060300000000006100000000000603000000000061002171000000000000890800000000000538035000000000000000009999123100000010000000000000BRGRNDACNOR3174
012024070902HAGA3       010HAGA S/A    ON           R$  000000000025700000000002640000000000253000000000025700000000002600000000000255000000000026000030000000000000017900000000000004615200000000000000009999123100000010000000000000BRHAGAACNOR7103
012024070902HAGA4       010HAGA S/A    PN           R$  000000000011600000000001180000000000116000000000011700000000001170000000000117000000000011800008000000000000002500000000000000294100000000000000009999123100000010000000000000BRHAGAACNPR4103
012024070902HAPV3       010HAPVIDA     ON      NM   R$  000000000039200000000004080000000000392000000000040100000000004060000000000406000000000040735427000000000044820600000000018010783500000000000000009999123100000010000000000000BRHAPVACNOR4114
012024070902JALL3       010JALLESMACHADON      NM   R$  000000000077300000000007810000000000759000000000076400000000007610000000000761000000000076700942000000000000352100000000000269088200000000000000009999123100000010000000000000BRJALLACNOR0105
012024070902JBSS3       010JBS         ON      NM   R$  000000000312500000000031300000000003092000000000310900000000030920000000003092000000000309909542000000000002773100000000008623386700000000000000009999123100000010000000000000BRJBSSACNOR8121
012024070902JHSF3       010JHSF PART   ON  ED  NM   R$  000000000042000000000004250000000000415000000000042000000000004250000000000423000000000042502657000000000002430600000000001021001000000000000000009999123100000010000000000000BRJHSFACNOR2137
012024070902MRFG3       010MARFRIG     ON      NM   R$  000000000120900000000012240000000001187000000000121400000000011910000000001191000000000119211257000000000010288800000000012494689700000000000000009999123100000010000000000000BRMRFGACNOR0116
012024070902MRVE3       010MRV         ON      NM   R$  000000000067800000000006920000000000674000000000068300000000006900000000000688000000000069110031000000000005116600000000003499566500000000000000009999123100000010000000000000BRMRVEACNOR2127
012024070902AURE3       010AUREN       ON      NM   R$  000000000123200000000012460000000001230000000000123800000000012400000000001240000000000124108893000000000003745100000000004637709900000000000000009999123100000010000000000000BRAUREACNOR9104
012024070902AVLL3       010ALPHAVILLE  ON      NM   R$  000000000032000000000003280000000000318000000000032300000000003280000000000320000000000032800009000000000000002400000000000000775800000000000000009999123100000010000000000000BRAVLLACNOR5103
012024070902AZEV3       010AZEVEDO     ON           R$  000000000015800000000001600000000000154000000000015600000000001560000000000156000000000015700473000000000000735800000000000115204100000000000000009999123100000010000000000000BRAZEVACNOR0121
012024070902AZEV4       010AZEVEDO     PN           R$  000000000015500000000001580000000000152000000000015400000000001540000000000154000000000015500862000000000002734100000000000422117900000000000000009999123100000010000000000000BRAZEVACNPR7121
012024070902GUAR3       010GUARARAPES  ON      NM   R$  000000000072600000000007400000000000724000000000073000000000007290000000000727000000000072902622000000000000888900000000000649654300000000000000009999123100000010000000000000BRGUARACNOR4173
012024070902BRFS3       010BRF SA      ON      NM   R$  000000000226600000000022820000000002213000000000223100000000022150000000002214000000000221715371000000000004691500000000010470104400000000000000009999123100000010000000000000BRBRFSACNOR8122
012024070902CSED3       010CRUZEIRO EDUON      NM   R$  000000000041100000000004270000000000411000000000041800000000004200000000000418000000000042100902000000000000437200000000000183162500000000000000009999123100000010000000000000BRCSEDACNOR9104
012024070902CSMG3       010COPASA      ON      NM   R$  000000000209900000000021010000000002063000000000207600000000020690000000002066000000000207002850000000000000589400000000001223688700000000000000009999123100000010000000000000BRCSMGACNOR5174
012024070902CSNA3       010SID NACIONALON           R$  000000000129600000000013130000000001293000000000130400000000013020000000001302000000000130407675000000000003099800000000004042419100000000000000009999123100000010000000000000BRCSNAACNOR6261
012024070902EALT4       010ACO ALTONA  PN           R$  000000000112600000000011260000000001112000000000111700000000011150000000001114000000000112200028000000000000012500000000000013974700000000000000009999123100000010000000000000BREALTACNPR1138
012024070902ECOR3       010ECORODOVIAS ON      NM   R$  000000000073000000000007470000000000718000000000073400000000007460000000000745000000000074706834000000000002878100000000002113340000000000000000009999123100000010000000000000BRECORACNOR8120
012024070902AGXY3       010AGROGALAXY  ON      NM   R$  000000000017300000000001890000000000172000000000018100000000001790000000000179000000000018001306000000000001419200000000000258129000000000000000009999123100000010000000000000BRAGXYACNOR4103
012024070902ALLD3       010ALLIED      ON      NM   R$  000000000078900000000007890000000000771000000000078000000000007800000000000771000000000078000256000000000000067700000000000052843000000000000000009999123100000010000000000000BRALLDACNOR3106
012024070902ALOS3       010ALLOS       ON      NM   R$  000000000218700000000022130000000002187000000000220500000000022130000000002209000000000221607540000000000002899100000000006394554100000000000000009999123100000010000000000000BRALOSACNOR5101
012024070902CMIN3       010CSNMINERACAOON      N2   R$  000000000052800000000005290000000000523000000000052500000000005270000000000525000000000052709439000000000005370400000000002824465900000000000000009999123100000010000000000000BRCMINACNOR2111
012024070902ESPA3       010ESPACOLASER ON      NM   R$  000000000010600000000001070000000000104000000000010600000000001040000000000104000000000010500472000000000000428700000000000045471300000000000000009999123100000010000000000000BRESPAACNOR7103
012024070902MATD3       010MATER DEI   ON      NM   R$  000000000049400000000005140000000000493000000000050000000000005060000000000505000000000050601100000000000001182300000000000591786800000000000000009999123100000010000000000000BRMATDACNOR4104
012024070902MBLY3       010MOBLY       ON      NM   R$  000000000022000000000002450000000000220000000000023200000000002450000000000245000000000024600867000000000001358000000000000316280900000000000000009999123100000010000000000000BRMBLYACNOR5100
012024070902MDIA3       010M.DIASBRANCOON      NM   R$  000000000279300000000028130000000002767000000000277800000000027750000000002775000000000278003444000000000000690100000000001917103500000000000000009999123100000010000000000000BRMDIAACNOR7135
012024070902MDNE3       010MOURA DUBEUXON      NM   R$  000000000126300000000012970000000001262000000000129000000000012970000000001295000000000129702673000000000000643500000000000830220400000000000000009999123100000010000000000000BRMDNEACNOR9100
012024070902MEAL3       010IMC S/A     ON      NM   R$  000000000015700000000001580000000000147000000000015200000000001550000000000154000000000015502439000000000001271000000000000194404500000000000000009999123100000010000000000000BRMEALACNOR9105
012024070902MELK3       010MELNICK     ON      NM   R$  000000000037000000000003790000000000370000000000037500000000003790000000000373000000000037900169000000000000096600000000000036286100000000000000009999123100000010000000000000BRMELKACNOR8111
012024070902MGEL4       010MANGELS INDLPN           R$  000000000131200000000013120000000001312000000000131200000000013120000000001275000000000131200002000000000000000200000000000000262400000000000000009999123100000010000000000000BRMGELACNPR3147
012024070902MGLU3       010MAGAZ LUIZA ON      NM   R$  000000000129000000000013550000000001283000000000133200000000013510000000001351000000000135218276000000000016900000000000022521668700000000000000009999123100000010000000000000BRMGLUACNOR2124
012024070902PDGR3       010PDG REALT   ON      NM   R$  000000000001800000000000190000000000017000000000001700000000000180000000000018000000000001900553000000000000926100000000000016643500000000000000009999123100000010000000000000BRPDGRACNOR8118
012024070902PDTC3       010PADTEC      ON      NM   R$  000000000020200000000002020000000000195000000000019800000000001950000000000195000000000019700069000000000000036300000000000007194000000000000000009999123100000010000000000000BRPDTCACNOR3101
012024070902PEAB3       010PAR AL BAHIAON           R$  000000000465000000000046500000000004650000000000465000000000046500000000004400000000000472000003000000000000000400000000000001860000000000000000009999123100000010000000000000BRPEABACNOR3133
012024070902PETR3       010PETROBRAS   ON      N2   R$  000000000412400000000041320000000004089000000000410600000000040890000000004089000000000409816968000000000008823000000000036230417600000000000000009999123100000010000000000000BRPETRACNOR9205
012024070902PETR4       010PETROBRAS   PN      N2   R$  000000000384500000000038700000000003827000000000384800000000038430000000003843000000000384441102000000000034832500000000134062403500000000000000009999123100000010000000000000BRPETRACNPR6213
012024070902B3SA3       010B3          ON      NM   R$  000000000106800000000010740000000001056000000000106500000000010620000000001061000000000106326665000000000023203400000000024719133600000000000000009999123100000010000000000000BRB3SAACNOR6133
012024070902BEEF3       010MINERVA     ON      NM   R$  000000000068500000000006920000000000675000000000067900000000006760000000000675000000000067604022000000000003931500000000002671259100000000000000009999123100000010000000000000BRBEEFACNOR6116
012024070902BRBI11      010BR PARTNERS UNT     N2   R$  000000000143500000000014470000000001424000000000143500000000014450000000001442000000000144500579000000000000155900000000000223803900000000000000009999123100000010000000000000BRBRBICDAM10109
012024070902ARZZ3       010AREZZO CO   ON      NM   R$  000000000533400000000054280000000005303000000000539200000000053950000000005388000000000539508448000000000001936400000000010441814500000000000000009999123100000010000000000000BRARZZACNOR3146
012024070902BBDC3       010BRADESCO    ON  EJ  N1   R$  000000000113200000000011410000000001122000000000113300000000011350000000001135000000000113805990000000000004938300000000005597519500000000000000009999123100000010000000000000BRBBDCACNOR1772
012024070902BBDC4       010BRADESCO    PN  EJ  N1   R$  000000000124200000000012560000000001235000000000124700000000012460000000001246000000000124719172000000000018579400000000023180949000000000000000009999123100000010000000000000BRBBDCACNPR8772
012024070902COCE5       010COELCE      PNA          R$  000000000298400000000030220000000002980000000000299500000000029990000000002999000000000301800047000000000000005600000000000016774500000000000000009999123100000010000000000000BRCOCEACNPA3147
012024070902COGN3       010COGNA ON    ON      NM   R$  000000000018400000000001880000000000182000000000018600000000001880000000000187000000000018809420000000000019943900000000003712222600000000000000009999123100000010000000000000BRCOGNACNOR2104
012024070902EZTC3       010EZTEC       ON      NM   R$  000000000134200000000013870000000001331000000000136700000000013810000000001380000000000138204855000000000001782700000000002437080100000000000000009999123100000010000000000000BREZTCACNOR0125
012024070902FESA4       010FERBASA     PN      N1   R$  000000000087400000000008900000000000859000000000087700000000008900000000000890000000000089101632000000000000494600000000000433957800000000000000009999123100000010000000000000BRFESAACNPR5084
012024070902FHER3       010FER HERINGERON      NM   R$  000000000040100000000004140000000000401000000000041000000000004140000000000412000000000041400024000000000000012100000000000004966800000000000000009999123100000010000000000000BRFHERACNOR5103
012024070902FIQE3       010UNIFIQUE    ON      NM   R$  000000000034300000000003450000000000339000000000034000000000003400000000000339000000000034000527000000000000413100000000000140744100000000000000009999123100000010000000000000BRFIQEACNOR5107
012024070902FLRY3       010FLEURY      ON      NM   R$  000000000150000000000015480000000001495000000000152100000000015470000000001546000000000154709283000000000003465800000000005273840800000000000000009999123100000010000000000000BRFLRYACNOR5138
012024070902ITSA3       010ITAUSA      ON      N1   R$  000000000098700000000009970000000000984000000000099100000000009930000000000993000000000099600520000000000000129100000000000127940000000000000000009999123100000010000000000000BRITSAACNOR0441
012024070902ITSA4       010ITAUSA      PN      N1   R$  000000000098800000000009970000000000984000000000099200000000009970000000000996000000000099716693000000000013752800000000013643737200000000000000009999123100000010000000000000BRITSAACNPR7441
012024070902ITUB3       010ITAUUNIBANCOON  EJ  N1   R$  000000000283600000000028550000000002804000000000283200000000028550000000002854000000000285501980000000000000413000000000001169664600000000000000009999123100000010000000000000BRITUBACNOR4338
012024070902ITUB4       010ITAUUNIBANCOPN  EJ  N1   R$  000000000327400000000033100000000003255000000000329100000000033100000000003305000000000331026294000000000016794100000000055284696600000000000000009999123100000010000000000000BRITUBACNPR1338
012024070902AERI3       010AERIS       ON      NM   R$  000000000062700000000006490000000000623000000000063400000000006490000000000641000000000064900456000000000000177600000000000112632700000000000000009999123100000010000000000000BRAERIACNOR4102
012024070902AESB3       010AES BRASIL  ON      NM   R$  000000000113700000000011400000000001135000000000113800000000011400000000001138000000000114004789000000000006074000000000006912736500000000000000009999123100000010000000000000BRAESBACNOR7106
012024070902AFLT3       010AFLUENTE T  ON           R$  000000000073800000000007380000000000716000000000072100000000007160000000000717000000000072500011000000000000001300000000000000938400000000000000009999123100000010000000000000BRAFLTACNOR1122
012024070902AGRO3       010BRASILAGRO  ON      NM   R$  000000000268300000000027200000000002665000000000269000000000026830000000002681000000000268301099000000000000188200000000000506324300000000000000009999123100000010000000000000BRAGROACNOR7114
012024070902CXSE3       010CAIXA SEGURION      NM   R$  000000000142200000000014410000000001412000000000142700000000014310000000001427000000000143108116000000000003009500000000004296430900000000000000009999123100000010000000000000BRCXSEACNOR7106
012024070902CYRE3       010CYRELA REALTON      NM   R$  000000000196100000000020120000000001943000000000198800000000020040000000001999000000000200409619000000000003713600000000007383811400000000000000009999123100000010000000000000BRCYREACNOR7140
012024070902ELMD3       010ELETROMIDIA ON      NM   R$  000000000187500000000018930000000001839000000000186500000000018660000000001849000000000186600242000000000000035000000000000065283900000000000000009999123100000010000000000000BRELMDACNOR3101
012024070902EMAE4       010EMAE        PN           R$  000000000486500000000048650000000004848000000000485500000000048600000000004677000000000486000006000000000000000600000000000002913000000000000000009999123100000010000000000000BREMAEACNPR1125
012024070902EMBR3       010EMBRAER     ON      NM   R$  000000000367000000000038990000000003662000000000381900000000038800000000003880000000000388534675000000000011636200000000044449535700000000000000009999123100000010000000000000BREMBRACNOR4191
012024070902KRSA3       010KORA SAUDE  ON      NM   R$  000000000006600000000000680000000000065000000000006600000000000680000000000067000000000006800522000000000000488500000000000032638300000000000000009999123100000010000000000000BRKRSAACNOR0100
012024070902JSLG3       010JSL         ON      NM   R$  000000000098300000000009850000000000958000000000097200000000009750000000000970000000000097502339000000000000534700000000000520126400000000000000009999123100000010000000000000BRJSLGACNOR2121
012024070902KEPL3       010KEPLER WEBERON  ED  NM   R$  000000000097500000000009850000000000973000000000097900000000009760000000000976000000000097702222000000000000765500000000000749857800000000000000009999123100000010000000000000BRKEPLACNOR1063
012024070902AALR3       010ALLIAR      ON      NM   R$  000000000135000000000014630000000001350000000000140800000000014630000000001463000000000146500367000000000000091000000000000128128300000000000000009999123100000010000000000000BRAALRACNOR6102
012024070902ABCB4       010ABC BRASIL  PN  EJ  N2   R$  000000000226700000000022670000000002231000000000224400000000022490000000002249000000000225601762000000000000322500000000000723993500000000000000009999123100000010000000000000BRABCBACNPR4146
012024070902ABEV3       010AMBEV S/A   ON           R$  000000000112500000000011300000000001118000000000112500000000011250000000001125000000000112719256000000000025686000000000028919736000000000000000009999123100000010000000000000BRABEVACNOR1127
012024070902CBAV3       010CBA         ON      NM   R$  000000000071100000000007350000000000704000000000072400000000007320000000000732000000000073307008000000000003942200000000002857217800000000000000009999123100000010000000000000BRCBAVACNOR5104
012024070902CCRO3       010CCR SA      ON      NM   R$  000000000124200000000012660000000001236000000000125300000000012630000000001259000000000126311261000000000006082300000000007623375600000000000000009999123100000010000000000000BRCCROACNOR2145
012024070902ZAMP3       010ZAMP S.A.   ON           R$  000000000035900000000003630000000000346000000000035100000000003520000000000349000000000035301203000000000000551500000000000193778400000000000000009999123100000010000000000000BRZAMPACNOR5100
012024070902RADL3       010RAIADROGASILON  EJ  NM   R$  000000000250300000000025470000000002496000000000253000000000025190000000002518000000000252011473000000000006160600000000015586502100000000000000009999123100000010000000000000BRRADLACNOR0157
012024070902RAIL3       010RUMO S.A.   ON      NM   R$  000000000212700000000021880000000002127000000000217000000000021770000000002177000000000217816458000000000006775400000000014705406400000000000000009999123100000010000000000000BRRAILACNOR9105
012024070902UNIP3       010UNIPAR      ON           R$  000000000503400000000051300000000005015000000000508400000000051300000000005038000000000513000054000000000000007300000000000037114100000000000000009999123100000010000000000000BRUNIPACNOR7206
012024070902UNIP6       010UNIPAR      PNB          R$  000000000519900000000052700000000005151000000000521600000000052130000000005208000000000521300944000000000000173300000000000904069800000000000000009999123100000010000000000000BRUNIPACNPB8206
012024070902USIM3       010USIMINAS    ON      N1   R$  000000000074600000000007600000000000746000000000075300000000007590000000000758000000000075901089000000000000200400000000000150978300000000000000009999123100000010000000000000BRUSIMACNOR3167
012024070902USIM5       010USIMINAS    PNA     N1   R$  000000000078500000000008020000000000784000000000079400000000008020000000000800000000000080207459000000000005059900000000004019883800000000000000009999123100000010000000000000BRUSIMACNPA6169
012024070902WEST3       010WESTWING    ON      NM   R$  000000000009600000000000970000000000092000000000009400000000000920000000000092000000000009300072000000000000043700000000000004120900000000000000009999123100000010000000000000BRWESTACNOR3100
012024070902WHRL3       010WHIRLPOOL   ON           R$  000000000044500000000004450000000000441000000000044500000000004410000000000443000000000045100003000000000000000500000000000000222500000000000000009999123100000010000000000000BRWHRLACNOR5128
012024070902WHRL4       010WHIRLPOOL   PN           R$  000000000045300000000004580000000000451000000000045500000000004580000000000453000000000045800012000000000000002400000000000001092300000000000000009999123100000010000000000000BRWHRLACNPR2128
012024070902WIZC3       010WIZ CO      ON      NM   R$  000000000059100000000005950000000000585000000000058800000000005880000000000588000000000058901196000000000000215800000000000126989500000000000000009999123100000010000000000000BRWIZCACNOR5102
012024070902WLMM4       010WLM IND COM PN           R$  000000000313000000000031400000000003100000000000312700000000031400000000003100000000000315000004000000000000000400000000000001251000000000000000009999123100000010000000000000BRWLMMACNPR3118
012024070902YDUQ3       010YDUQS PART  ON      NM   R$  000000000117900000000012090000000001166000000000119100000000012050000000001202000000000120506853000000000002475000000000002949678900000000000000009999123100000010000000000000BRYDUQACNOR3105
012024070902PRNR3       010PRINER      ON      NM   R$  000000000109400000000011050000000001093000000000109800000000011000000000001095000000000110000742000000000000178900000000000196544900000000000000009999123100000010000000000000BRPRNRACNOR4109
012024070902PSSA3       010PORTO SEGUROON  EJ  NM   R$  000000000295900000000029590000000002930000000000294300000000029400000000002940000000000294105756000000000001207800000000003554914000000000000000009999123100000010000000000000BRPSSAACNOR7155
012024070902PTBL3       010PORTOBELLO  ON      NM   R$  000000000047800000000004900000000000477000000000048300000000004890000000000486000000000048900596000000000000263300000000000127427800000000000000009999123100000010000000000000BRPTBLACNOR8132
012024070902PTNT3       010PETTENATI   ON           R$  000000000095100000000009670000000000951000000000095500000000009670000000000935000000000096700003000000000000000400000000000000382000000000000000009999123100000010000000000000BRPTNTACNOR6042
012024070902PTNT4       010PETTENATI   PN           R$  000000000061600000000006200000000000605000000000061400000000006050000000000605000000000062000019000000000000024300000000000014943100000000000000009999123100000010000000000000BRPTNTACNPR3047
012024070902QUAL3       010QUALICORP   ON      NM   R$  000000000017600000000001840000000000176000000000017900000000001810000000000180000000000018103039000000000003931200000000000707583400000000000000009999123100000010000000000000BRQUALACNOR6120
012024070902SCAR3       010SAO CARLOS  ON      NM   R$  000000000228200000000023000000000002275000000000229300000000022900000000002250000000000229000026000000000000005800000000000013303600000000000000009999123100000010000000000000BRSCARACNOR7131
012024070902SEER3       010SER EDUCA   ON      NM   R$  000000000054500000000005630000000000545000000000055200000000005540000000000554000000000055701185000000000000353900000000000195676400000000000000009999123100000010000000000000BRSEERACNOR5119
012024070902SEQL3       010SEQUOIA LOG ON      NM   R$  000000000047700000000004820000000000460000000000046900000000004620000000000462000000000046300343000000000000198000000000000093014700000000000000009999123100000010000000000000BRSEQLACNOR2103
012024070902SHOW3       010TIME FOR FUNON      NM   R$  000000000016900000000001740000000000166000000000016900000000001740000000000170000000000017400264000000000000075000000000000012729600000000000000009999123100000010000000000000BRSHOWACNOR7105
012024070902SHUL4       010SCHULZ      PN           R$  000000000062400000000006500000000000624000000000064100000000006500000000000650000000000065101102000000000000344600000000000221097100000000000000009999123100000010000000000000BRSHULACNPR4156
012024070902SIMH3       010SIMPAR      ON      NM   R$  000000000066400000000006940000000000661000000000068100000000006870000000000686000000000068905288000000000002349100000000001601696000000000000000009999123100000010000000000000BRSIMHACNOR0107
012024070902SLCE3       010SLC AGRICOLAON      NM   R$  000000000190900000000019290000000001882000000000190800000000019090000000001909000000000191006649000000000001846700000000003524938600000000000000009999123100000010000000000000BRSLCEACNOR2125
012024070902ODPV3       010ODONTOPREV  ON      NM   R$  000000000117600000000011820000000001162000000000117600000000011760000000001176000000000117902035000000000000550000000000000647288500000000000000009999123100000010000000000000BRODPVACNOR4202
012024070902OFSA3       010OUROFINO S/AON      NM   R$  000000000188800000000018880000000001860000000000187300000000018750000000001875000000000190000007000000000000002500000000000004684200000000000000009999123100000010000000000000BROFSAACNOR7118
012024070902SBFG3       010GRUPO SBF   ON      NM   R$  000000000131600000000013400000000001292000000000131700000000013400000000001338000000000134006061000000000002396200000000003157012000000000000000009999123100000010000000000000BRSBFGACNOR1103
012024070902SBSP3       010SABESP      ON      NM   R$  000000000832800000000085000000000008328000000000842200000000084270000000008416000000000842724370000000000005803300000000048876403800000000000000009999123100000010000000000000BRSBSPACNOR5161
012024070902TPIS3       010TRIUNFO PARTON      NM   R$  000000000037700000000003830000000000376000000000037900000000003830000000000382000000000038300061000000000000013300000000000005051600000000000000009999123100000010000000000000BRTPISACNOR8118
012024070902TRAD3       010TC          ON      NM   R$  000000000005600000000000580000000000055000000000005600000000000570000000000056000000000005700105000000000000304800000000000017173500000000000000009999123100000010000000000000BRTRADACNOR3101
012024070902TRIS3       010TRISUL      ON      NM   R$  000000000050700000000005110000000000497000000000050300000000005080000000000506000000000050800888000000000000391700000000000197045200000000000000009999123100000010000000000000BRTRISACNOR4118
012024070902SANB11      010SANTANDER BRUNT          R$  000000000265600000000026740000000002630000000000265600000000026740000000002674000000000267616285000000000005610400000000014903728100000000000000009999123100000010000000000000BRSANBCDAM13164
012024070902SANB3       010SANTANDER BRON           R$  000000000125400000000012600000000001237000000000124700000000012600000000001254000000000126001293000000000000260800000000000325237800000000000000009999123100000010000000000000BRSANBACNOR8171
012024070902SANB4       010SANTANDER BRPN           R$  000000000141700000000014170000000001396000000000140700000000014120000000001410000000000141501224000000000000290700000000000409015300000000000000009999123100000010000000000000BRSANBACNPR5171
012024070902SAPR11      010SANEPAR     UNT EJ  N2   R$  000000000272600000000027430000000002709000000000272300000000027100000000002710000000000272503338000000000000684100000000001863015900000000000000009999123100000010000000000000BRSAPRCDAM13118
012024070902SAPR3       010SANEPAR     ON  EJ  N2   R$  000000000051600000000005200000000000514000000000051800000000005170000000000517000000000052000280000000000000134900000000000069894800000000000000009999123100000010000000000000BRSAPRACNOR9159
012024070902SAPR4       010SANEPAR     PN  EJ  N2   R$  000000000055200000000005580000000000550000000000055400000000005540000000000553000000000055402168000000000000534900000000000296399500000000000000009999123100000010000000000000BRSAPRACNPR6159
012024070902TASA3       010TAURUS ARMASON      N2   R$  000000000124200000000012600000000001231000000000125300000000012600000000001242000000000126000029000000000000004700000000000005889800000000000000009999123100000010000000000000BRTASAACNOR7104
012024070902TASA4       010TAURUS ARMASPN      N2   R$  000000000123000000000012640000000001225000000000124800000000012490000000001247000000000124901268000000000000223900000000000279520700000000000000009999123100000010000000000000BRTASAACNPR4104
012024070902TCSA3       010TECNISA     ON      NM   R$  000000000020500000000002090000000000205000000000020700000000002060000000000206000000000020900104000000000000027900000000000005786800000000000000009999123100000010000000000000BRTCSAACNOR3112
012024070902TECN3       010TECHNOS     ON      NM   R$  000000000054200000000005500000000000525000000000054500000000005470000000000541000000000054700591000000000000315800000000000172208000000000000000009999123100000010000000000000BRTECNACNOR6109
012024070902TELB3       010TELEBRAS    ON           R$  000000000126100000000012900000000001261000000000128400000000012900000000001260000000000128900003000000000000000500000000000000642100000000000000009999123100000010000000000000BRTELBACNOR2140
012024070902TELB4       010TELEBRAS    PN           R$  000000000087500000000008750000000000875000000000087500000000008750000000000869000000000087500001000000000000000100000000000000087500000000000000009999123100000010000000000000BRTELBACNPR9140
012024070902TEND3       010TENDA       ON      NM   R$  000000000118200000000012070000000001178000000000119300000000011920000000001192000000000119504074000000000001114500000000001330520600000000000000009999123100000010000000000000BRTENDACNOR4111
012024070902TFCO4       010TRACK FIELD PN  EJ  N2   R$  000000000110300000000011300000000001098000000000111400000000011300000000001120000000000113000500000000000000078200000000000087126300000000000000009999123100000010000000000000BRTFCOACNPR8114
012024070902TGMA3       010TEGMA       ON      NM   R$  000000000257800000000025870000000002558000000000257000000000025710000000002559000000000257400622000000000000097000000000000249325900000000000000009999123100000010000000000000BRTGMAACNOR7144
012024070902TIMS3       010TIM         ON      NM   R$  000000000158600000000016140000000001574000000000159500000000015840000000001584000000000159509442000000000004754000000000007585957600000000000000009999123100000010000000000000BRTIMSACNOR5117
012024070902TOTS3       010TOTVS       ON      NM   R$  000000000298500000000030100000000002935000000000296300000000029900000000002984000000000299008359000000000002882600000000008541323800000000000000009999123100000010000000000000BRTOTSACNOR8144
012024070902VBBR3       010VIBRA       ON  EJ  NM   R$  000000000218800000000022240000000002185000000000221600000000022200000000002215000000000222115015000000000005354500000000011866548900000000000000009999123100000010000000000000BRVBBRACNOR1108
012024070902VITT3       010VITTIA      ON      NM   R$  000000000059100000000006000000000000586000000000059400000000005950000000000595000000000059900847000000000000226000000000000134351100000000000000009999123100000010000000000000BRVITTACNOR4107
012024070902VIVA3       010VIVARA S.A. ON      NM   R$  000000000224200000000022750000000002209000000000224700000000022750000000002264000000000227505432000000000001710300000000003843114700000000000000009999123100000010000000000000BRVIVAACNOR0107
012024070902VIVR3       010VIVER       ON      NM   R$  000000000023700000000002520000000000237000000000024600000000002500000000000246000000000025000184000000000000069700000000000017189200000000000000009999123100000010000000000000BRVIVRACNOR4123
012024070902VIVT3       010TELEF BRASILON           R$  000000000464500000000047320000000004635000000000468000000000046760000000004676000000000468210800000000000002058900000000009636724400000000000000009999123100000010000000000000BRVIVTACNOR0182
012024070907TXRX4       010TEX RENAUX  PN           R$  000000000023600000000002480000000000233000000000024000000000002330000000000233000000000024700014000000000000004000000000000000963100000000000000009999123100000010000000000000BRTXRXACNPR0142
012024070907NUTR3       010NUTRIPLANT  ON      MA   R$  000000000050100000000005010000000000494000000000049700000000004960000000000496000000000050100014000000000000001400000000000000696600000000000000009999123100000010000000000000BRNUTRACNOR0104
012024070908ETER3       010ETERNIT     ON      NM   R$  000000000061800000000006250000000000609000000000061600000000006250000000000619000000000062500499000000000000157400000000000097112700000000000000009999123100000010000000000000BRETERACNOR3243
012024070908OIBR4       010OI          PN      N1   R$  000000000156100000000015610000000001435000000000147700000000014600000000001458000000000148500126000000000000021500000000000031759500000000000000009999123100000010000000000000BROIBRACNPR8110
012024070908OSXB3       010OSX BRASIL  ON      NM   R$  000000000038300000000003830000000000378000000000038100000000003780000000000378000000000038300003000000000000000400000000000000152700000000000000009999123100000010000000000000BROSXBACNOR8109
012024070908LIGT3       010LIGHT S/A   ON      NM   R$  000000000049800000000005160000000000498000000000050800000000005050000000000505000000000050901692000000000000509800000000000259390400000000000000009999123100000010000000000000BRLIGTACNOR2124
012024070908ATMP3       010ATMASA      ON           R$  000000000018900000000001980000000000188000000000019600000000001980000000000190000000000019500019000000000000021600000000000004240000000000000000009999123100000010000000000000BRATMPACNOR8100
012024070908AMER3       010AMERICANAS  ON      NM   R$  000000000005000000000000690000000000050000000000006100000000000690000000000069000000000007010845000000000078939600000000004893371000000000000000009999123100000010000000000000BRAMERACNOR6102
012024070908NEXP3       010NEXPE       ON           R$  000000000042800000000004280000000000415000000000041800000000004150000000000416000000000042400006000000000000000800000000000000334600000000000000009999123100000010000000000000BRNEXPACNOR0101
012024070908RPMG3       010PET MANGUINHON           R$  000000000028100000000002810000000000255000000000026400000000002610000000000261000000000026200257000000000000044300000000000011718100000000000000009999123100000010000000000000BRRPMGACNOR9194
012024070908RSID3       010ROSSI RESID ON      NM   R$  000000000053300000000005390000000000490000000000050900000000005020000000000497000000000050200176000000000000061200000000000031203200000000000000009999123100000010000000000000BRRSIDACNOR8120
012024070908RNEW11      010RENOVA      UNT     N2   R$  000000000027500000000002770000000000274000000000027400000000002740000000000273000000000027400010000000000000001500000000000000411600000000000000009999123100000010000000000000BRRNEWCDAM15110
012024070908RNEW3       010RENOVA      ON      N2   R$  000000000009100000000000930000000000090000000000009100000000000910000000000091000000000009200050000000000000044500000000000004064500000000000000009999123100000010000000000000BRRNEWACNOR8110
012024070908RNEW4       010RENOVA      PN      N2   R$  000000000009200000000000940000000000090000000000009100000000000900000000000090000000000009100088000000000000135900000000000012412900000000000000009999123100000010000000000000BRRNEWACNPR5110
012024070908CTNM4       010COTEMINAS   PN           R$  000000000007200000000000720000000000072000000000007200000000000720000000000072000000000007400012000000000000015800000000000001137600000000000000009999123100000010000000000000BRCTNMACNPR6129
012024070908CTSA3       010SANTANENSE  ON           R$  000000000022800000000002300000000000227000000000022800000000002290000000000228000000000023000011000000000000001600000000000000365900000000000000009999123100000010000000000000BRCTSAACNOR3062
012024070908CTSA4       010SANTANENSE  PN           R$  000000000008400000000000840000000000082000000000008200000000000820000000000081000000000008300013000000000000006700000000000000551000000000000000009999123100000010000000000000BRCTSAACNPR0062
012024070908PMAM3       010PARANAPANEMAON      NM   R$  000000000024300000000002450000000000241000000000024300000000002450000000000243000000000024500054000000000000010800000000000002627600000000000000009999123100000010000000000000BRPMAMACNOR3039
012024070908JFEN3       010JOAO FORTES ON           R$  000000000003700000000000370000000000034000000000003500000000000350000000000034000000000003500880000000000001043200000000000036965200000000000000009999123100000010000000000000BRJFENACNOR0059
012024070908SGPS3       010SPRINGS     ON  EG  NM   R$  000000000020000000000002000000000000200000000000020000000000002000000000000200000000000020100025000000000000013700000000000002740000000000000000009999123100000010000000000000BRSGPSACNOR4105
012024070908OIBR3       010OI          ON      N1   R$  000000000061200000000006180000000000566000000000058200000000005750000000000574000000000057502066000000000001719300000000001001174300000000000000009999123100000010000000000000BROIBRACNOR1111
012024070910EQTL9       010EQUATORIAL  ON  REC NM   R$  000000000321500000000033400000000003213000000000326900000000033230000000003225000000000334000081000000000000015600000000000050996700000000000000009999123100000010000000000000BREQTLR03OR1129
012024070910BODB12      010FIC FI BCNA DIR          R$  000000000000100000000000010000000000001000000000000100000000000010000000000000000000000000100007000000000000002960000000000000002960000000000000009999123100000010000000000000BRBODBD04M10134
012024070910AMAR1       010LOJAS MARISADIR ORD NM   R$  000000000000100000000000010000000000001000000000000100000000000010000000000000000000000000100049000000000000231300000000000000231300000000000000009999123100000010000000000000BRAMARD02OR7114
012024070910RENT1       010LOCALIZA    DIR ORD NM   R$  000000000113800000000011950000000001073000000000115500000000011950000000001161000000000119500186000000000000045900000000000053044000000000000000009999123100000010000000000000BRRENTD06OR8195
012024070910VIVR1       010VIVER       DIR ORD NM   R$  000000000000100000000000010000000000001000000000000100000000000010000000000000000000000000100011000000000000008000000000000000008000000000000000009999123100000010000000000000BRVIVRD18OR3122
012024070912ITIT11      010FII INTER ITCI  ER       R$  000000000746300000000075740000000007454000000000753300000000075660000000007478000000000756700128000000000000001824000000000013740549000000000000009999123100000010000000000000BRITITCTF004130
012024070912ITRI11      010FII ITRI    CI  ER       R$  000000000966800000000096850000000009402000000000958200000000095120000000009512000000000953600478000000000000008005000000000076710108000000000000009999123100000010000000000000BRITRICTF008103
012024070912CEOC11      010FII CEO CCP CI  ER       R$  000000000444000000000044800000000004311000000000438300000000043840000000004335000000000439300032000000000000000230000000000001008206000000000000009999123100000010000000000000BRCEOCCTF003216
012024070912CJCT11      010FII CJCTOWERCI  ER       R$  000000000644900000000064490000000006449000000000644900000000064490000000006364000000000649600002000000000000000365000000000002353885000000000000009999123100000010000000000000BRCJCTCTF001116
012024070912EQIR11      010FII EQI RECECI           R$  000000000090200000000009050000000000895000000000089400000000009000000000000896000000000090000268000000000000037305000000000033364747000000000000009999123100000010000000000000BREQIRCTF003133
012024070912ICRI11      010FII CI IPCA CI  ER       R$  000000000962400000000096930000000009613000000000965500000000096700000000009670000000000967500563000000000000005802000000000056022065000000000000009999123100000010000000000000BRICRICTF004105
012024070912IDFI11      010FII UNIDADESCI  ERA      R$  000000000094100000000009450000000000941000000000094400000000009440000000000943000000000094400031000000000000000942000000000000889960000000000000009999123100000010000000000000BRIDFICTF007133
012024070912IDGR11      010FII UNID II CI  ER       R$  000000000092000000000009200000000000900000000000091100000000009000000000000890000000000090000007000000000000000097000000000000088420000000000000009999123100000010000000000000BRIDGRCTF006128
012024070912LSPA11      010FII LESTE PACI  EA       R$  000000000710000000000074550000000006990000000000703400000000074490000000006990000000000745000058000000000000000245000000000001723470000000000000009999123100000010000000000000BRLSPACTF005140
012024070912LUGG11      010FII LUGGO   CI  ER       R$  000000000746200000000074800000000007445000000000746400000000074790000000007447000000000747900076000000000000000405000000000003023211000000000000009999123100000010000000000000BRLUGGCTF007156
012024070912LVBI11      010FII VBI LOG CI  ER       R$  000000001071600000000107870000000010707000000001073900000000107360000000010736000000001075005710000000000000025403000000000272819273000000000000009999123100000010000000000000BRLVBICTF002170
012024070912EURO11      010FII EUROPAR CI  ER       R$  000000002440100000000244500000000024400000000002441200000000244500000000024382000000002445000009000000000000000021000000000000512662000000000000009999123100000010000000000000BREUROCTF011360
012024070912EVBI11      010FII VBI CON CI  ER       R$  000000000098800000000009900000000000979000000000098800000000009900000000000981000000000099000036000000000000005232000000000005174006000000000000009999123100000010000000000000BREVBICTF007151
012024070912EXES11      010FII EXES    CI           R$  000000000098500000000009850000000000985000000000098500000000009850000000000000000000000000000002000000000000000002000000000000001970000000000000009999123100000010000000000000BREXESCTF006125
012024070912IRDM11      010FII IRIDIUM CI           R$  000000000740100000000074210000000007361000000000739100000000074000000000007395000000000740003804000000000000033677000000000248930885000000000000009999123100000010000000000000BRIRDMCTF004186
012024070912IRIM11      010FII IRIM    CI           R$  000000000751100000000076000000000007484000000000755700000000075000000000007490000000000750000088000000000000001817000000000013732334000000000000009999123100000010000000000000BRIRIMCTF003135
012024070912ITIP11      010FII INTER IPCI  ER       R$  000000000807000000000080700000000008000000000000805900000000080700000000008068000000000807000261000000000000001360000000000010961073000000000000009999123100000010000000000000BRITIPCTF002130
012024070912BBFI11      010FII BB PROGRCI  EA       R$  000000006849800000000689140000000068101000000006857600000000688980000000068413000000006889900086000000000000000188000000000012892390000000000000009999123100000010000000000000BRBBFICTF006329
012024070912BBFO11      010FII BB FOF  CI  ER       R$  000000000711800000000072000000000007054000000000712000000000071000000000007053000000000709800115000000000000006045000000000043044638000000000000009999123100000010000000000000BRBBFOCTF004142
012024070912BBIG11      010FII BBIG    CI  ER       R$  000000000092900000000009330000000000922000000000093100000000009320000000000931000000000093200321000000000000049593000000000046195904000000000000009999123100000010000000000000BRBBIGCTF004102
012024070912BBRC11      010FII BB CORP CI  ER       R$  000000001081900000000108720000000010818000000001082900000000108710000000010871000000001087300062000000000000000433000000000004689021000000000000009999123100000010000000000000BRBBRCCTF004254
012024070912BPFF11      010FII ABSOLUTOCI  ER       R$  000000000690600000000070000000000006906000000000695400000000070000000000006999000000000700000306000000000000001945000000000013526428000000000000009999123100000010000000000000BRBPFFCTF002237
012024070912BPML11      010FII BTG SHOPCI           R$  000000000950000000000095000000000009272000000000930400000000092720000000009272000000000934200710000000000000009755000000000090764031000000000000009999123100000010000000000000BRBPMLCTF006131
012024070912CRFF11      010FII CX RBRA2CI  ER       R$  000000000775300000000077530000000007613000000000764700000000076130000000007612000000000775400004000000000000000015000000000000114709000000000000009999123100000010000000000000BRCRFFCTF006162
012024070912DAMA11      010FII DAMA    CI  ER       R$  000000000101000000000010130000000001004000000000100400000000010060000000001000000000000100600257000000000000046520000000000046709029000000000000009999123100000010000000000000BRDAMACTF007101
012024070912DAMT11      010FII DIAMANTECI           R$  000000000090000000000009000000000000900000000000090000000000009000000000000801000000000090000005000000000000000104000000000000093600000000000000009999123100000010000000000000BRDAMTCTF007117
012024070912DEVA11      010FII DEVANT  CI  ER       R$  000000000390000000000039270000000003887000000000390400000000039160000000003915000000000391601169000000000000013324000000000052028077000000000000009999123100000010000000000000BRDEVACTF000150
012024070912DPRO11      010FII DEVA PROCI  ER       R$  000000000070500000000007200000000000705000000000071800000000007190000000000631000000000071900012000000000000000064000000000000045982000000000000009999123100000010000000000000BRDPROCTF005125
012024070912CLIN11      010FII CLAVE INCI  ER       R$  000000000959300000000096680000000009554000000000963600000000096680000000009639000000000966801067000000000000010055000000000096897286000000000000009999123100000010000000000000BRCLINCTF007109
012024070912OUFF11      010FII OURI FOFCI           R$  000000000615000000000062000000000006120000000000619000000000061990000000006152000000000619900044000000000000007450000000000046122030000000000000009999123100000010000000000000BROUFFCTF005160
012024070912OUJP11      010FII OURI JPPCI  ER       R$  000000000799900000000080720000000007910000000000798500000000080480000000008010000000000804803127000000000000013677000000000109218289000000000000009999123100000010000000000000BROUJPCTF006188
012024070912OULG11      010FII OURILOG CI           R$  000000000289000000000029000000000002890000000000289500000000028950000000002895000000000289602074000000000000020512000000000059401778000000000000009999123100000010000000000000BROULGCTF001153
012024070912OURE11      010FII OU RENDACI           R$  000000000779500000000079130000000007783000000000783700000000078000000000007803000000000783000439000000000000001309000000000010258960000000000000009999123100000010000000000000BROURECTF003143
012024070912PABY11      010FII PANAMBY CI           R$  000000000132000000000013210000000001320000000000132000000000013210000000001321000000000135000006000000000000000059000000000000077903000000000000009999123100000010000000000000BRPABYCTF012158
012024070912PATC11      010FII PATRIA  CI  ER       R$  000000000350100000000035200000000003500000000000350800000000035020000000003502000000000351700054000000000000000844000000000002961319000000000000009999123100000010000000000000BRPATCCTF002171
012024070912PATL11      010FII PATLOGISCI  ER       R$  000000000607500000000060990000000006035000000000605100000000060500000000006040000000000605501531000000000000006296000000000038103182000000000000009999123100000010000000000000BRPATLCTF003147
012024070912BARI11      010FII BARIGUI CI  ER       R$  000000000818700000000083280000000008187000000000821800000000081940000000008194000000000822700621000000000000005171000000000042497617000000000000009999123100000010000000000000BRBARICTF003163
012024070912BICE11      010FII BRIO CRECI  ER       R$  000000009200000000000920000000000091000000000009150000000000910000000000091000000000009400000002000000000000000002000000000000183000000000000000009999123100000010000000000000BRBICECTF007126
012024070912BICR11      010FII INTER   CI  ER       R$  000000000580600000000058060000000005805000000000580500000000058050000000005805000000000584000003000000000000000057000000000000330890000000000000009999123100000010000000000000BRBICRCTF009153
012024070912BIME11      010FII BRIO ME CI  ER       R$  000000000072000000000007230000000000718000000000072000000000007210000000000721000000000072200121000000000000002592000000000001867025000000000000009999123100000010000000000000BRBIMECTF006133
012024070912BLCA11      010FII BLUE AAACI  ER       R$  000000001023700000000103900000000010237000000001024300000000102950000000010001000000001029500014000000000000000114000000000001167801000000000000009999123100000010000000000000BRBLCACTF009132
012024070912BLMG11      010FII BLUE LOGCI           R$  000000000387100000000039040000000003863000000000387500000000039040000000003878000000000390400367000000000000028376000000000109977575000000000000009999123100000010000000000000BRBLMGCTF005147
012024070912BMLC11      010FII BMBRC LCCI  ER       R$  000000000950100000000099810000000009501000000000994000000000099810000000009981000000000999800003000000000000000012000000000000119291000000000000009999123100000010000000000000BRBMLCCTF004252
012024070912CACR11      010CARTESIA FIICI  ER       R$  000000001033000000000103940000000010324000000001036800000000103520000000010350000000001035202174000000000000009112000000000094473572000000000000009999123100000010000000000000BRCACRCTF004134
012024070912CARE11      010FII DEA CARECI           R$  000000000016300000000001680000000000160000000000016200000000001670000000000165000000000016700107000000000000014203000000000002311011000000000000009999123100000010000000000000BRCARECTF000112
012024070912BNFS11      010FII BANRISULCI  ER       R$  000000001172000000000117690000000011720000000001174800000000117400000000011726000000001174000051000000000000000214000000000002514168000000000000009999123100000010000000000000BRBNFSCTF000242
012024070912BROF11      010FII BROF    CI           R$  000000000507900000000051970000000005079000000000513100000000051970000000005150000000000519701437000000000000005291000000000027148891000000000000009999123100000010000000000000BRBROFCTF000114
012024070912BTAL11      010FII BTG AGROCI           R$  000000000765500000000076550000000007580000000000760300000000076000000000007600000000000764500953000000000000017453000000000132704357000000000000009999123100000010000000000000BRBTALCTF003140
012024070912BTCI11      010FII BTG CRI CI  ER       R$  000000000098900000000009930000000000987000000000099000000000009920000000000992000000000099305485000000000000093163000000000092237189000000000000009999123100000010000000000000BRBTCICTF005121
