00COTAHIST.2024BOVESPA 20240730                                                                                                                                                                                                                      
012024073002FHER3       010FER HERINGERON      NM   R$  000000000043400000000004340000000000405000000000041100000000004120000000000412000000000041300051000000000000018600000000000007662600000000000000009999123100000010000000000000BRFHERACNOR5103
012024073002FIQE3       010UNIFIQUE    ON      NM   R$  000000000033900000000003400000000000334000000000033600000000003380000000000337000000000033801121000000000000813800000000000274125900000000000000009999123100000010000000000000BRFIQEACNOR5107
012024073002FLRY3       010FLEURY      ON      NM   R$  000000000153000000000015310000000001511000000000151600000000015170000000001515000000000152008654000000000001671800000000002535804500000000000000009999123100000010000000000000BRFLRYACNOR5138
012024073002ITSA4       010ITAUSA      PN      N1   R$  000000000103100000000010320000000001019000000000102500000000010250000000001025000000000102918785000000000021228400000000021768445300000000000000009999123100000010000000000000BRITSAACNPR7441
012024073002ITUB3       010ITAUUNIBANCOON      N1   R$  000000000295700000000029570000000002927000000000294000000000029460000000002945000000000295300963000000000000228500000000000672009600000000000000009999123100000010000000000000BRITUBACNOR4338
012024073002ITUB4       010ITAUUNIBANCOPN      N1   R$  000000000344200000000034510000000003414000000000343300000000034360000000003435000000000343723553000000000017627800000000060532556600000000000000009999123100000010000000000000BRITUBACNPR1338
012024073002KRSA3       010KORA SAUDE  ON      NM   R$  000000000006900000000000700000000000067000000000006900000000000680000000000067000000000006900130000000000001797300000000000124647200000000000000009999123100000010000000000000BRKRSAACNOR0100
012024073002ARML3       010ARMAC       ON      NM   R$  000000000092000000000009200000000000860000000000087900000000008600000000000860000000000086405487000000000001491700000000001311339300000000000000009999123100000010000000000000BRARMLACNOR1112
012024073002ARZZ3       010AREZZO CO   ON      NM   R$  000000000496900000000049690000000004860000000000488600000000048690000000004864000000000487004919000000000000943200000000004608886500000000000000009999123100000010000000000000BRARZZACNOR3147
012024073002BBSE3       010BBSEGURIDADEON      NM   R$  000000000346800000000034970000000003467000000000348600000000034970000000003491000000000349710057000000000003122900000000010887807900000000000000009999123100000010000000000000BRBBSEACNOR5124
012024073002BRAP3       010BRADESPAR   ON      N1   R$  000000000177300000000017730000000001740000000000174900000000017400000000001740000000000174100626000000000000103900000000000181787900000000000000009999123100000010000000000000BRBRAPACNOR5148
012024073002BRAP4       010BRADESPAR   PN      N1   R$  000000000183500000000018360000000001813000000000181900000000018180000000001818000000000182004157000000000002019200000000003673843900000000000000009999123100000010000000000000BRBRAPACNPR2148
012024073002BRBI11      010BR PARTNERS UNT     N2   R$  000000000141300000000014160000000001384000000000139600000000014000000000001399000000000140001371000000000000273800000000000382386200000000000000009999123100000010000000000000BRBRBICDAM10109
012024073002BRFS3       010BRF SA      ON      NM   R$  000000000213000000000021720000000002119000000000214400000000021320000000002131000000000213421528000000000011674300000000025036875600000000000000009999123100000010000000000000BRBRFSACNOR8122
012024073002CSED3       010CRUZEIRO EDUON      NM   R$  000000000039600000000003960000000000378000000000038400000000003820000000000382000000000038300537000000000000315500000000000121197500000000000000009999123100000010000000000000BRCSEDACNOR9104
012024073002CSMG3       010COPASA      ON      NM   R$  000000000220700000000022190000000002191000000000220800000000022120000000002212000000000221603852000000000000718800000000001587213200000000000000009999123100000010000000000000BRCSMGACNOR5174
012024073002CSNA3       010SID NACIONALON           R$  000000000118300000000011850000000001165000000000117200000000011720000000001171000000000117208529000000000003190100000000003738866600000000000000009999123100000010000000000000BRCSNAACNOR6261
012024073002AZEV3       010AZEVEDO     ON           R$  000000000013900000000001390000000000132000000000013500000000001370000000000135000000000013700547000000000000533500000000000072102100000000000000009999123100000010000000000000BRAZEVACNOR0121
012024073002AZEV4       010AZEVEDO     PN           R$  000000000013700000000001380000000000131000000000013500000000001380000000000137000000000013801890000000000002741400000000000370092600000000000000009999123100000010000000000000BRAZEVACNPR7121
012024073002AZUL4       010AZUL        PN      N2   R$  000000000078500000000008170000000000785000000000080200000000008150000000000814000000000081509143000000000013776800000000011061334800000000000000009999123100000010000000000000BRAZULACNPR4102
012024073002BEES3       010BANESTES    ON           R$  000000000089300000000008950000000000890000000000089100000000008910000000000891000000000089500045000000000000007700000000000006866900000000000000009999123100000010000000000000BRBEESACNOR9393
012024073002BEES4       010BANESTES    PN           R$  000000000097100000000009750000000000950000000000096200000000009710000000000960000000000097000015000000000000005200000000000005002500000000000000009999123100000010000000000000BRBEESACNPR6318
012024073002BGIP3       010BANESE      ON           R$  000000000240000000000024000000000002400000000000240000000000024000000000002350000000000242000001000000000000000100000000000000240000000000000000009999123100000010000000000000BRBGIPACNOR1208
012024073002BGIP4       010BANESE      PN           R$  000000000228000000000023000000000002280000000000229500000000022990000000002240000000000229900005000000000000000500000000000001147800000000000000009999123100000010000000000000BRBGIPACNPR8208
012024073002BHIA3       010CASAS BAHIA ON      NM   R$  000000000045900000000004670000000000451000000000045600000000004570000000000456000000000045702550000000000002541800000000001160268900000000000000009999123100000010000000000000BRBHIAACNOR1102
012024073002BRSR3       010BANRISUL    ON      N1   R$  000000000121900000000012290000000001219000000000122400000000012250000000001224000000000123100040000000000000007000000000000008574400000000000000009999123100000010000000000000BRBRSRACNOR3188
012024073002BRSR5       010BANRISUL    PNA     N1   R$  000000000150000000000015000000000001500000000000150000000000015000000000001480000000000209900001000000000000000100000000000000150000000000000000009999123100000010000000000000BRBRSRACNPA6192
012024073002BRSR6       010BANRISUL    PNB     N1   R$  000000000113800000000011420000000001124000000000113500000000011410000000001140000000000114103730000000000000806400000000000915310700000000000000009999123100000010000000000000BRBRSRACNPB4191
012024073002BSLI3       010BRB BANCO   ON           R$  000000000095700000000009610000000000957000000000095900000000009610000000000961000000000100100002000000000000000500000000000000479700000000000000009999123100000010000000000000BRBSLIACNOR5194
012024073002BSLI4       010BRB BANCO   PN           R$  000000000100000000000010000000000001000000000000100000000000010000000000000951000000000104400001000000000000000100000000000000100000000000000000009999123100000010000000000000BRBSLIACNPR2194
012024073002YDUQ3       010YDUQS PART  ON      NM   R$  000000000108500000000011120000000001071000000000108500000000010790000000001079000000000108011182000000000003178200000000003448376400000000000000009999123100000010000000000000BRYDUQACNOR3105
012024073002LAND3       010TERRASANTAPAON      NM   R$  000000000146400000000014750000000001416000000000143500000000014280000000001416000000000142800116000000000000017500000000000025121800000000000000009999123100000010000000000000BRLANDACNOR9103
012024073002LAVV3       010LAVVI       ON      NM   R$  000000000088000000000008830000000000870000000000087500000000008770000000000875000000000087701682000000000000299200000000000261826200000000000000009999123100000010000000000000BRLAVVACNOR4112
012024073002LEVE3       010METAL LEVE  ON      NM   R$  000000000330700000000033080000000003222000000000325900000000032570000000003255000000000326901259000000000000231900000000000755839700000000000000009999123100000010000000000000BRLEVEACNOR2197
012024073002ZAMP3       010ZAMP S.A.   ON  ES       R$  000000000035000000000003500000000000340000000000034200000000003430000000000341000000000034301432000000000000314800000000000107696200000000000000009999123100000010000000000000BRZAMPACNOR5101
012024073002PRNR3       010PRINER      ON      NM   R$  000000000103000000000010470000000001027000000000103200000000010310000000001031000000000103200630000000000000116400000000000120220600000000000000009999123100000010000000000000BRPRNRACNOR4109
012024073002PSSA3       010PORTO SEGUROON      NM   R$  000000000302700000000030290000000003001000000000301700000000030230000000003022000000000302703477000000000001142500000000003447574500000000000000009999123100000010000000000000BRPSSAACNOR7155
012024073002PTBL3       010PORTOBELLO  ON      NM   R$  000000000048200000000004850000000000477000000000048100000000004820000000000481000000000048203336000000000000511600000000000246495700000000000000009999123100000010000000000000BRPTBLACNOR8132
012024073002PTNT3       010PETTENATI   ON           R$  000000000094600000000009460000000000921000000000093500000000009210000000000920000000000094200005000000000000000500000000000000467700000000000000009999123100000010000000000000BRPTNTACNOR6042
012024073002PTNT4       010PETTENATI   PN           R$  000000000064300000000006510000000000632000000000063300000000006320000000000632000000000064500008000000000000004700000000000002979000000000000000009999123100000010000000000000BRPTNTACNPR3047
012024073002QUAL3       010QUALICORP   ON      NM   R$  000000000015200000000001520000000000147000000000014900000000001490000000000149000000000015001571000000000002086600000000000311883000000000000000009999123100000010000000000000BRQUALACNOR6120
012024073002SMFT3       010SMART FIT   ON      NM   R$  000000000212100000000021440000000002073000000000209400000000020790000000002078000000000208007902000000000002114600000000004428216500000000000000009999123100000010000000000000BRSMFTACNOR1112
012024073002SMTO3       010SAO MARTINHOON  ED  NM   R$  000000000296700000000030000000000002780000000000283500000000028420000000002840000000000284211774000000000003565900000000010112029700000000000000009999123100000010000000000000BRSMTOACNOR3127
012024073002VALE3       010VALE        ON      NM   R$  000000000610300000000061110000000006020000000000605300000000060220000000006022000000000602312016000000000028562300000000172896228900000000000000009999123100000010000000000000BRVALEACNOR0210
012024073002WEST3       010WESTWING    ON      NM   R$  000000000008700000000000870000000000085000000000008600000000000860000000000085000000000008600033000000000000016000000000000001377700000000000000009999123100000010000000000000BRWESTACNOR3100
012024073002WHRL3       010WHIRLPOOL   ON           R$  000000000044200000000004420000000000438000000000044000000000004380000000000434000000000044900009000000000000000900000000000000396100000000000000009999123100000010000000000000BRWHRLACNOR5128
012024073002WHRL4       010WHIRLPOOL   PN           R$  000000000044500000000004480000000000441000000000044300000000004430000000000442000000000044800015000000000000005100000000000002262500000000000000009999123100000010000000000000BRWHRLACNPR2128
012024073002WIZC3       010WIZ CO      ON      NM   R$  000000000058500000000005890000000000576000000000058500000000005880000000000586000000000058901349000000000000239300000000000140017500000000000000009999123100000010000000000000BRWIZCACNOR5102
012024073002PDGR3       010PDG REALT   ON      NM   R$  000000000001800000000000190000000000017000000000001700000000000180000000000017000000000001800234000000000001081100000000000019047400000000000000009999123100000010000000000000BRPDGRACNOR8118
012024073002PDTC3       010PADTEC      ON      NM   R$  000000000018900000000001900000000000186000000000018700000000001880000000000187000000000018900025000000000000005600000000000001052100000000000000009999123100000010000000000000BRPDTCACNOR3101
012024073002PEAB4       010PAR AL BAHIAPN           R$  000000000480000000000048500000000004799000000000480800000000048500000000000000000000000491900006000000000000000600000000000002884900000000000000009999123100000010000000000000BRPEABACNPR0133
012024073002PETR3       010PETROBRAS   ON      N2   R$  000000000396600000000039820000000003934000000000395200000000039530000000003952000000000395516486000000000005542000000000021907156400000000000000009999123100000010000000000000BRPETRACNOR9205
012024073002PETR4       010PETROBRAS   PN      N2   R$  000000000365100000000036770000000003639000000000366100000000036650000000003665000000000366640509000000000016040700000000058725014200000000000000009999123100000010000000000000BRPETRACNPR6213
012024073002SCAR3       010SAO CARLOS  ON      NM   R$  000000000236500000000024290000000002330000000000239900000000024290000000002321000000000243000088000000000000026000000000000062379500000000000000009999123100000010000000000000BRSCARACNOR7131
012024073002SEER3       010SER EDUCA   ON      NM   R$  000000000050800000000005080000000000496000000000050100000000005020000000000502000000000050602115000000000000466900000000000234204200000000000000009999123100000010000000000000BRSEERACNOR5119
012024073002SEQL3       010SEQUOIA LOG ON      NM   R$  000000000039300000000003990000000000386000000000039000000000003860000000000386000000000038900241000000000000095400000000000037286200000000000000009999123100000010000000000000BRSEQLACNOR2103
012024073002SHOW3       010TIME FOR FUNON      NM   R$  000000000015200000000001530000000000151000000000015100000000001510000000000151000000000015200169000000000000038100000000000005777600000000000000009999123100000010000000000000BRSHOWACNOR7105
012024073002SHUL4       010SCHULZ      PN           R$  000000000061600000000006160000000000604000000000061100000000006150000000000614000000000061600585000000000000194900000000000119260000000000000000009999123100000010000000000000BRSHULACNPR4156
012024073002SIMH3       010SIMPAR      ON      NM   R$  000000000061500000000006150000000000595000000000059900000000005960000000000596000000000060004759000000000002741600000000001644759900000000000000009999123100000010000000000000BRSIMHACNOR0107
012024073002SLCE3       010SLC AGRICOLAON      NM   R$  000000000181900000000018240000000001800000000000180900000000018000000000001800000000000180304999000000000002037200000000003685927900000000000000009999123100000010000000000000BRSLCEACNOR2125
012024073002VLID3       010VALID       ON      NM   R$  000000000168000000000016900000000001641000000000166400000000016870000000001678000000000168701766000000000000276200000000000459799900000000000000009999123100000010000000000000BRVLIDACNOR5143
012024073002VSTE3       010VESTE       ON      NM   R$  000000000139700000000014100000000001395000000000139800000000013960000000001396000000000140900038000000000000011900000000000016640400000000000000009999123100000010000000000000BRVSTEACNOR5103
012024073002VTRU3       010VITRUEDUCA  ON      NM   R$  000000000131000000000013180000000001238000000000126800000000012380000000001238000000000125500232000000000000044800000000000056824200000000000000009999123100000010000000000000BRVTRUACNOR3100
012024073002VULC3       010VULCABRAS   ON      NM   R$  000000000155000000000015700000000001542000000000155400000000015540000000001554000000000156803331000000000000531300000000000825995200000000000000009999123100000010000000000000BRVULCACNOR2159
012024073002VVEO3       010VIVEO       ON      NM   R$  000000000021900000000002340000000000215000000000022100000000002270000000000225000000000022705013000000000002406000000000000532317600000000000000009999123100000010000000000000BRVVEOACNOR0104
012024073002COCE3       010COELCE      ON           R$  000000000304100000000030410000000003041000000000304100000000030410000000003050000000000345000001000000000000000100000000000000304100000000000000009999123100000010000000000000BRCOCEACNOR0146
012024073002COCE5       010COELCE      PNA          R$  000000000307700000000030770000000003026000000000304900000000030450000000003035000000000305900065000000000000009700000000000029576600000000000000009999123100000010000000000000BRCOCEACNPA3147
012024073002COGN3       010COGNA ON    ON      NM   R$  000000000015400000000001560000000000150000000000015200000000001510000000000151000000000015208900000000000024438900000000003720860300000000000000009999123100000010000000000000BRCOGNACNOR2104
012024073002ELMD3       010ELETROMIDIA ON      NM   R$  000000000176400000000017960000000001743000000000177100000000017780000000001758000000000177800434000000000000142300000000000252116300000000000000009999123100000010000000000000BRELMDACNOR3101
012024073002EMAE4       010EMAE        PN           R$  000000000437200000000043980000000004280000000000432700000000043100000000004283000000000434000042000000000000004700000000000020341000000000000000009999123100000010000000000000BREMAEACNPR1125
012024073002GGPS3       010GPS         ON      NM   R$  000000000169500000000017030000000001657000000000168900000000016950000000001693000000000169707459000000000001606800000000002714389500000000000000009999123100000010000000000000BRGGPSACNOR9103
012024073002GMAT3       010GRUPO MATEUSON      NM   R$  000000000067000000000006740000000000658000000000066600000000006670000000000667000000000067206369000000000002667600000000001777684700000000000000009999123100000010000000000000BRGMATACNOR7102
012024073002GOAU3       010GERDAU MET  ON      N1   R$  000000000106800000000010680000000001051000000000105600000000010640000000001058000000000106400068000000000000008500000000000008981200000000000000009999123100000010000000000000BRGOAUACNOR1267
012024073002GOAU4       010GERDAU MET  PN      N1   R$  000000000105000000000010540000000001039000000000104600000000010510000000001051000000000105305229000000000002933900000000003071746400000000000000009999123100000010000000000000BRGOAUACNPR8268
012024073002JALL3       010JALLESMACHADON  ED  NM   R$  000000000069300000000006940000000000680000000000068500000000006840000000000683000000000068401955000000000000584300000000000400487500000000000000009999123100000010000000000000BRJALLACNOR0106
012024073002JBSS3       010JBS         ON      NM   R$  000000000337300000000034670000000003339000000000341700000000034560000000003450000000000345622123000000000006964100000000023797086600000000000000009999123100000010000000000000BRJBSSACNOR8121
012024073002MNPR3       010MINUPAR     ON           R$  000000000145000000000014500000000001381000000000142100000000013810000000001381000000000145000010000000000000001400000000000001990300000000000000009999123100000010000000000000BRMNPRACNOR5122
012024073002MOVI3       010MOVIDA      ON      NM   R$  000000000061600000000006240000000000609000000000061700000000006170000000000616000000000061705706000000000003965700000000002446941800000000000000009999123100000010000000000000BRMOVIACNOR0122
012024073002MRFG3       010MARFRIG     ON      NM   R$  000000000111800000000011600000000001113000000000114000000000011530000000001153000000000115511075000000000005059400000000005771061800000000000000009999123100000010000000000000BRMRFGACNOR0116
012024073002MRVE3       010MRV         ON      NM   R$  000000000065200000000006560000000000642000000000064900000000006510000000000650000000000065112321000000000009416600000000006113175800000000000000009999123100000010000000000000BRMRVEACNOR2127
012024073002AURE3       010AUREN       ON      NM   R$  000000000119500000000011950000000001183000000000118600000000011840000000001184000000000118908392000000000002457200000000002915942500000000000000009999123100000010000000000000BRAUREACNOR9104
012024073002AVLL3       010ALPHAVILLE  ON      NM   R$  000000000035900000000003700000000000359000000000036100000000003700000000000328000000000036800012000000000000007900000000000002854700000000000000009999123100000010000000000000BRAVLLACNOR5103
012024073002BAZA3       010AMAZONIA    ON           R$  000000000930000000000093000000000009204000000000924600000000092040000000009144000000000929700011000000000000001500000000000013869600000000000000009999123100000010000000000000BRBAZAACNOR0179
012024073002BBAS3       010BRASIL      ON      NM   R$  000000000271600000000027190000000002686000000000269600000000026950000000002694000000000269525306000000000010185700000000027468917000000000000000009999123100000010000000000000BRBBASACNOR3324
012024073002CMIN3       010CSNMINERACAOON      N2   R$  000000000049700000000005000000000000491000000000049500000000004970000000000496000000000049705003000000000005282100000000002619271200000000000000009999123100000010000000000000BRCMINACNOR2111
012024073002EGIE3       010ENGIE BRASILON      NM   R$  000000000448200000000044830000000004422000000000443200000000044260000000004425000000000443003631000000000000623900000000002765182200000000000000009999123100000010000000000000BREGIEACNOR9126
012024073002EKTR4       010ELEKTRO     PN  ED       R$  000000000406800000000040880000000004068000000000407700000000040680000000004000000000000406800004000000000000000400000000000001631100000000000000009999123100000010000000000000BREKTRACNPR7164
012024073002ELET3       010ELETROBRAS  ON      N1   R$  000000000380600000000038320000000003792000000000380900000000037990000000003799000000000381011514000000000006145000000000023410860600000000000000009999123100000010000000000000BRELETACNOR6160
012024073002ELET6       010ELETROBRAS  PNB     N1   R$  000000000426200000000042620000000004230000000000424100000000042410000000004241000000000424502245000000000000475300000000002015820200000000000000009999123100000010000000000000BRELETACNPB7077
012024073002FRAS3       010FRAS-LE     ON  EJ  N1   R$  000000000189000000000019090000000001871000000000189400000000018920000000001892000000000189803138000000000000687400000000001302145800000000000000009999123100000010000000000000BRFRASACNOR0160
012024073002FRIO3       010METALFRIO   ON      NM   R$  000000001800000000000260000000000018000000000002582400000000260000000000025500000000002600000049000000000000025300000000000653349900000000000000009999123100000010000000000000BRFRIOACNOR2111
012024073002GEPA4       010GER PARANAP PN           R$  000000000262500000000026250000000002625000000000262500000000026250000000002600000000000262500001000000000000000100000000000000262500000000000000009999123100000010000000000000BRGEPAACNPR9160
012024073002GFSA3       010GAFISA      ON      NM   R$  000000000032700000000003280000000000314000000000031900000000003140000000000314000000000031602597000000000002855600000000000912655400000000000000009999123100000010000000000000BRGFSAACNOR3124
012024073002GGBR3       010GERDAU      ON      N1   R$  000000000161200000000016140000000001583000000000159900000000016140000000001603000000000161800150000000000000024000000000000038378000000000000000009999123100000010000000000000BRGGBRACNOR1192
012024073002GGBR4       010GERDAU      PN      N1   R$  000000000180300000000018160000000001780000000000179700000000018030000000001802000000000180812129000000000007199200000000012943607100000000000000009999123100000010000000000000BRGGBRACNPR8192
012024073002ITSA3       010ITAUSA      ON      N1   R$  000000000103400000000010340000000001024000000000102800000000010320000000001031000000000103200235000000000000077400000000000079605000000000000000009999123100000010000000000000BRITSAACNOR0441
012024073002MATD3       010MATER DEI   ON      NM   R$  000000000047800000000004780000000000455000000000046300000000004660000000000459000000000046601730000000000000446700000000000206827600000000000000009999123100000010000000000000BRMATDACNOR4104
012024073002MBLY3       010MOBLY       ON      NM   R$  000000000030100000000003010000000000284000000000029200000000002950000000000294000000000029500873000000000000473800000000000138353400000000000000009999123100000010000000000000BRMBLYACNOR5100
012024073002MDIA3       010M.DIASBRANCOON      NM   R$  000000000275800000000027700000000002706000000000272600000000027220000000002719000000000272203263000000000000812700000000002216052300000000000000009999123100000010000000000000BRMDIAACNOR7135
012024073002MDNE3       010MOURA DUBEUXON      NM   R$  000000000138200000000014080000000001351000000000138500000000014040000000001402000000000140402276000000000000475500000000000658858100000000000000009999123100000010000000000000BRMDNEACNOR9100
012024073002MEAL3       010IMC S/A     ON      NM   R$  000000000015800000000001620000000000157000000000015800000000001580000000000157000000000015800242000000000000274000000000000043548500000000000000009999123100000010000000000000BRMEALACNOR9105
012024073002WEGE3       010WEG         ON      NM   R$  000000000464600000000046510000000004571000000000459100000000045860000000004586000000000458716389000000000007409900000000034020467200000000000000009999123100000010000000000000BRWEGEACNOR0223
012024073002PFRM3       010PROFARMA    ON      NM   R$  000000000058500000000006040000000000580000000000059300000000005950000000000595000000000060200730000000000000220100000000000130571700000000000000009999123100000010000000000000BRPFRMACNOR1116
012024073002PGMN3       010PAGUE MENOS ON      NM   R$  000000000024800000000002510000000000242000000000024500000000002510000000000249000000000025101060000000000000484100000000000119036300000000000000009999123100000010000000000000BRPGMNACNOR8103
012024073002PINE3       010PINE        ON      N2   R$  000000000055100000000005510000000000551000000000055100000000005510000000000539000000000055900001000000000000000100000000000000055100000000000000009999123100000010000000000000BRPINEACNOR1150
012024073002PINE4       010PINE        PN      N2   R$  000000000041600000000004350000000000413000000000042000000000004280000000000423000000000042900314000000000000090400000000000037986600000000000000009999123100000010000000000000BRPINEACNPR8150
012024073002PLAS3       010PLASCAR PARTON           R$  000000000052500000000005250000000000525000000000052500000000005250000000000525000000000056700001000000000000000100000000000000052500000000000000009999123100000010000000000000BRPLASACNOR2106
012024073002NEOE3       010NEOENERGIA  ON      NM   R$  000000000183500000000018570000000001821000000000184300000000018350000000001835000000000184604014000000000001076100000000001983907300000000000000009999123100000010000000000000BRNEOEACNOR3123
012024073002NGRD3       010NEOGRID     ON      NM   R$  000000000011200000000001160000000000110000000000011300000000001150000000000114000000000011500720000000000000925300000000000105095900000000000000009999123100000010000000000000BRNGRDACNOR3104
012024073002NINJ3       010GETNINJAS   ON      NM   R$  000000000047100000000004750000000000469000000000047300000000004690000000000468000000000047100016000000000000007000000000000003311700000000000000009999123100000010000000000000BRNINJACNOR5101
012024073002PLPL3       010PLANOEPLANO ON      NM   R$  000000000114800000000011930000000001116000000000115900000000011850000000001177000000000118503680000000000002487500000000002885286500000000000000009999123100000010000000000000BRPLPLACNOR5104
012024073002PNVL3       010DIMED       ON      NM   R$  000000000100100000000010090000000000990000000000099800000000010010000000001000000000000100101988000000000000363200000000000362615200000000000000009999123100000010000000000000BRPNVLACNOR9207
012024073002POMO3       010MARCOPOLO   ON      N2   R$  000000000048200000000004850000000000478000000000048000000000004810000000000481000000000048500201000000000000086400000000000041504700000000000000009999123100000010000000000000BRPOMOACNOR0098
012024073002POMO4       010MARCOPOLO   PN      N2   R$  000000000061900000000006280000000000615000000000062100000000006210000000000620000000000062105393000000000003776800000000002346094400000000000000009999123100000010000000000000BRPOMOACNPR7098
012024073002PORT3       010WILSON SONS ON      NM   R$  000000000157000000000015800000000001546000000000155400000000015560000000001550000000000155702020000000000000418600000000000650606000000000000000009999123100000010000000000000BRPORTACNOR8109
012024073002POSI3       010POSITIVO TECON      NM   R$  000000000067500000000006770000000000665000000000066900000000006700000000000669000000000067003802000000000001207900000000000808883700000000000000009999123100000010000000000000BRPOSIACNOR9116
012024073002PRIO3       010PETRORIO    ON      NM   R$  000000000472800000000048170000000004681000000000474200000000047040000000004688000000000470422540000000000005968400000000028302689100000000000000009999123100000010000000000000BRPRIOACNOR1107
012024073002NORD3       010NORDON MET  ON           R$  000000000072100000000011500000000000705000000000093000000000008600000000000800000000000100000092000000000000012500000000000011635400000000000000009999123100000010000000000000BRNORDACNOR7135
012024073002NTCO3       010GRUPO NATURAON      NM   R$  000000000152500000000015300000000001484000000000149500000000014860000000001486000000000149113104000000000004275200000000006393667100000000000000009999123100000010000000000000BRNTCOACNOR5106
012024073002ODPV3       010ODONTOPREV  ON      NM   R$  000000000114500000000011550000000001132000000000113700000000011320000000001131000000000114302930000000000000605500000000000688695900000000000000009999123100000010000000000000BRODPVACNOR4202
012024073002OFSA3       010OUROFINO S/AON      NM   R$  000000000191000000000019540000000001910000000000193700000000019540000000001910000000000195500009000000000000001300000000000002518200000000000000009999123100000010000000000000BROFSAACNOR7118
012024073002SAPR11      010SANEPAR     UNT     N2   R$  000000000266100000000027540000000002653000000000272100000000027520000000002750000000000275306204000000000001414500000000003849694800000000000000009999123100000010000000000000BRSAPRCDAM13118
012024073002SAPR3       010SANEPAR     ON      N2   R$  000000000050000000000005200000000000500000000000050900000000005180000000000518000000000051900798000000000000437000000000000222825300000000000000009999123100000010000000000000BRSAPRACNOR9159
012024073002SAPR4       010SANEPAR     PN      N2   R$  000000000054100000000005620000000000541000000000055300000000005580000000000558000000000055902097000000000001473600000000000816033100000000000000009999123100000010000000000000BRSAPRACNPR6159
012024073002SBFG3       010GRUPO SBF   ON      NM   R$  000000000147000000000015720000000001470000000000152100000000015660000000001562000000000156613011000000000004053200000000006165069500000000000000009999123100000010000000000000BRSBFGACNOR1103
012024073002SBSP3       010SABESP      ON      NM   R$  000000000864600000000087840000000008612000000000872300000000087350000000008734000000000873616152000000000007865300000000068613729300000000000000009999123100000010000000000000BRSBSPACNOR5161
012024073002UNIP3       010UNIPAR      ON           R$  000000000495100000000050150000000004915000000000498400000000049990000000004975000000000499900051000000000000008700000000000043367700000000000000009999123100000010000000000000BRUNIPACNOR7206
012024073002UNIP6       010UNIPAR      PNB          R$  000000000505500000000050550000000004970000000000499200000000050150000000005005000000000501701327000000000000213400000000001065450600000000000000009999123100000010000000000000BRUNIPACNPB8206
012024073002ONCO3       010ONCOCLINICASON      NM   R$  000000000067700000000006780000000000629000000000064400000000006380000000000637000000000064114304000000000004199100000000002706871700000000000000009999123100000010000000000000BRONCOACNOR6101
012024073002PETZ3       010PETZ        ON      NM   R$  000000000035400000000003630000000000343000000000034700000000003460000000000345000000000034607523000000000007584500000000002638954100000000000000009999123100000010000000000000BRPETZACNOR2110
012024073002AALR3       010ALLIAR      ON      NM   R$  000000000110800000000011170000000001085000000000110500000000011170000000001094000000000111700061000000000000008800000000000009731700000000000000009999123100000010000000000000BRAALRACNOR6102
012024073002USIM3       010USIMINAS    ON      N1   R$  000000000057200000000006050000000000565000000000058200000000006040000000000602000000000060402234000000000000974300000000000567338100000000000000009999123100000010000000000000BRUSIMACNOR3167
012024073002USIM5       010USIMINAS    PNA     N1   R$  000000000059900000000006370000000000591000000000061300000000006330000000000633000000000063430250000000000048880200000000029974132200000000000000009999123100000010000000000000BRUSIMACNPA6169
012024073002ABCB4       010ABC BRASIL  PN      N2   R$  000000000223800000000022380000000002207000000000222000000000022230000000002221000000000223302969000000000000535500000000001189068700000000000000009999123100000010000000000000BRABCBACNPR4146
012024073002ABEV3       010AMBEV S/A   ON           R$  000000000117900000000011810000000001164000000000116900000000011640000000001164000000000116727276000000000029077200000000034015098300000000000000009999123100000010000000000000BRABEVACNOR1128
012024073002BBDC3       010BRADESCO    ON      N1   R$  000000000113400000000011340000000001120000000000112400000000011240000000001123000000000112507167000000000003223000000000003622920900000000000000009999123100000010000000000000BRBBDCACNOR1772
012024073002BBDC4       010BRADESCO    PN      N1   R$  000000000124500000000012480000000001236000000000124100000000012400000000001240000000000124223004000000000020995500000000026074100900000000000000009999123100000010000000000000BRBBDCACNPR8772
012024073002CPFE3       010CPFL ENERGIAON      NM   R$  000000000329700000000032970000000003269000000000327700000000032690000000003269000000000327905114000000000001063500000000003485936200000000000000009999123100000010000000000000BRCPFEACNOR0137
012024073002VITT3       010VITTIA      ON      NM   R$  000000000061000000000006190000000000602000000000061100000000006190000000000612000000000061900778000000000000159600000000000097640100000000000000009999123100000010000000000000BRVITTACNOR4107
012024073002VIVA3       010VIVARA S.A. ON      NM   R$  000000000228600000000023420000000002284000000000231200000000023110000000002310000000000231214043000000000004078400000000009432666900000000000000009999123100000010000000000000BRVIVAACNOR0107
012024073002VIVR3       010VIVER       ON      NM   R$  000000000025900000000002590000000000235000000000024500000000002370000000000232000000000023700187000000000000156700000000000038520500000000000000009999123100000010000000000000BRVIVRACNOR4123
012024073002VIVT3       010TELEF BRASILON  EJ       R$  000000000483100000000048990000000004710000000000476600000000047290000000004727000000000473210822000000000002630200000000012535714000000000000000009999123100000010000000000000BRVIVTACNOR0183
012024073002CPLE3       010COPEL       ON      N2   R$  000000000089700000000009060000000000897000000000090300000000009010000000000900000000000090504775000000000004514200000000004077505000000000000000009999123100000010000000000000BRCPLEACNOR8149
012024073002CPLE5       010COPEL       PNA     N2   R$  000000000140000000000014000000000001400000000000140000000000014000000000001300000000000140000001000000000000000100000000000000140000000000000000009999123100000010000000000000BRCPLEACNPA1147
012024073002CPLE6       010COPEL       PNB     N2   R$  000000000100500000000010160000000001003000000000101000000000010120000000001012000000000101410795000000000005899400000000005960433600000000000000009999123100000010000000000000BRCPLEACNPB9146
012024073002GRND3       010GRENDENE    ON      NM   R$  000000000059000000000005900000000000584000000000058600000000005840000000000584000000000058702815000000000000652500000000000382613600000000000000009999123100000010000000000000BRGRNDACNOR3174
012024073002GUAR3       010GUARARAPES  ON      NM   R$  000000000068600000000006900000000000674000000000068200000000006860000000000684000000000068602726000000000000894900000000000610427100000000000000009999123100000010000000000000BRGUARACNOR4173
012024073002HAGA3       010HAGA S/A    ON           R$  000000000026200000000002760000000000258000000000027100000000002660000000000266000000000026900083000000000000015200000000000004122900000000000000009999123100000010000000000000BRHAGAACNOR7103
012024073002HAGA4       010HAGA S/A    PN           R$  000000000011500000000001170000000000115000000000011600000000001160000000000115000000000011600005000000000000000900000000000000104800000000000000009999123100000010000000000000BRHAGAACNPR4103
012024073002HAPV3       010HAPVIDA     ON      NM   R$  000000000041500000000004170000000000410000000000041300000000004120000000000411000000000041318423000000000030216000000000012496779800000000000000009999123100000010000000000000BRHAPVACNOR4114
012024073002JHSF3       010JHSF PART   ON      NM   R$  000000000040100000000004020000000000397000000000039900000000004000000000000400000000000040102923000000000001896800000000000758361000000000000000009999123100000010000000000000BRJHSFACNOR2137
012024073002MTRE3       010MITRE REALTYON  ED  NM   R$  000000000038100000000003820000000000374000000000037700000000003760000000000376000000000038001352000000000000489000000000000184660300000000000000009999123100000010000000000000BRMTREACNOR6113
012024073002MTSA4       010METISA      PN           R$  000000000428900000000043100000000004256000000000429800000000043100000000004206000000000431000008000000000000000900000000000003868300000000000000009999123100000010000000000000BRMTSAACNPR9072
012024073002MULT3       010MULTIPLAN   ON      N2   R$  000000000239200000000024190000000002374000000000238400000000023770000000002377000000000239410696000000000001960300000000004674018000000000000000009999123100000010000000000000BRMULTACNOR5139
012024073002MWET3       010WETZEL S/A  ON           R$  000000000094100000000009410000000000941000000000094100000000009410000000000501000000000260000001000000000000000100000000000000094100000000000000009999123100000010000000000000BRMWETACNOR6118
012024073002MYPK3       010IOCHP-MAXIONON      NM   R$  000000000122100000000012520000000001208000000000123800000000012510000000001250000000000125105078000000000001080700000000001338313700000000000000009999123100000010000000000000BRMYPKACNOR7155
012024073002MELK3       010MELNICK     ON      NM   R$  000000000034400000000003440000000000338000000000033900000000003400000000000339000000000034000564000000000000211300000000000071729200000000000000009999123100000010000000000000BRMELKACNOR8111
012024073002MGEL4       010MANGELS INDLPN           R$  000000000131900000000013190000000001317000000000131700000000013180000000001317000000000133900009000000000000002100000000000002766300000000000000009999123100000010000000000000BRMGELACNPR3147
012024073002MGLU3       010MAGAZ LUIZA ON      NM   R$  000000000111200000000011410000000001104000000000111700000000011080000000001108000000000110916831000000000015764700000000017617765200000000000000009999123100000010000000000000BRMGLUACNOR2124
012024073002ASAI3       010ASSAI       ON      NM   R$  000000000095000000000009740000000000943000000000095400000000009440000000000943000000000094413241000000000013878900000000013252127700000000000000009999123100000010000000000000BRASAIACNOR0106
012024073002ATOM3       010ATOMPAR     ON           R$  000000000019800000000002000000000000197000000000019700000000001970000000000197000000000019900013000000000000001500000000000000296400000000000000009999123100000010000000000000BRATOMACNOR1106
012024073002TFCO4       010TRACK FIELD PN      N2   R$  000000000110100000000011060000000001083000000000109400000000010980000000001094000000000109900761000000000000143600000000000157221100000000000000009999123100000010000000000000BRTFCOACNPR8114
012024073002TGMA3       010TEGMA       ON      NM   R$  000000000243400000000024390000000002392000000000241100000000024100000000002409000000000241000889000000000000130400000000000314449500000000000000009999123100000010000000000000BRTGMAACNOR7144
012024073002TIMS3       010TIM         ON      NM   R$  000000000160500000000016380000000001599000000000162900000000016370000000001636000000000163812411000000000010648000000000017350262100000000000000009999123100000010000000000000BRTIMSACNOR5117
012024073002TOTS3       010TOTVS       ON      NM   R$  000000000275100000000028290000000002741000000000276900000000027520000000002748000000000275409771000000000001749700000000004846053700000000000000009999123100000010000000000000BRTOTSACNOR8144
012024073002RECV3       010PETRORECSA  ON      NM   R$  000000000205000000000020700000000002044000000000205600000000020570000000002055000000000205705179000000000000995000000000002045839600000000000000009999123100000010000000000000BRRECVACNOR3107
012024073002BEEF3       010MINERVA     ON      NM   R$  000000000061500000000006350000000000615000000000062600000000006310000000000631000000000063208539000000000005520500000000003460316200000000000000009999123100000010000000000000BRBEEFACNOR6116
012024073002BRIT3       010BRISANET    ON      NM   R$  000000000039600000000004020000000000395000000000039700000000003960000000000396000000000040200650000000000000362900000000000144195800000000000000009999123100000010000000000000BRBRITACNOR0103
012024073002BRKM3       010BRASKEM     ON      N1   R$  000000000179700000000018090000000001780000000000179300000000017840000000001784000000000181300031000000000000005000000000000008969700000000000000009999123100000010000000000000BRBRKMACNOR1119
012024073002BRKM5       010BRASKEM     PNA     N1   R$  000000000179100000000018120000000001781000000000178900000000017810000000001781000000000178502835000000000000919800000000001646040500000000000000009999123100000010000000000000BRBRKMACNPA4121
012024073002CSRN3       010COSERN      ON  ED       R$  000000000195000000000019500000000001670000000000174100000000016700000000001665000000000168000139000000000000021800000000000037968100000000000000009999123100000010000000000000BRCSRNACNOR0194
012024073002CSRN6       010COSERN      PNB ED       R$  000000000201600000000020160000000001950000000000200900000000019500000000001750000000000199900005000000000000001100000000000002210100000000000000009999123100000010000000000000BRCSRNACNPB1195
012024073002REDE3       010REDE ENERGIAON           R$  000000000068800000000006880000000000684000000000068800000000006840000000000686000000000069200004000000000000000500000000000000344400000000000000009999123100000010000000000000BRREDEACNOR7128
012024073002RENT3       010LOCALIZA    ON      NM   R$  000000000423000000000042680000000004172000000000420500000000042040000000004204000000000420519543000000000006178400000000025982092600000000000000009999123100000010000000000000BRRENTACNOR4196
012024073002SYNE3       010SYN PROP TECON      NM   R$  000000000101500000000010270000000001005000000000101600000000010200000000001013000000000102000893000000000000506300000000000514792500000000000000009999123100000010000000000000BRSYNEACNOR2102
012024073002INEP3       010INEPAR      ON           R$  000000000019600000000002000000000000194000000000019700000000001970000000000194000000000019800094000000000000047300000000000009323200000000000000009999123100000010000000000000BRINEPACNOR1143
012024073002INEP4       010INEPAR      PN           R$  000000000019500000000002050000000000194000000000019900000000001990000000000194000000000020200034000000000000018300000000000003658100000000000000009999123100000010000000000000BRINEPACNPR8143
012024073002INTB3       010INTELBRAS   ON      NM   R$  000000000216000000000022070000000002019000000000213700000000021610000000002160000000000216311855000000000004259800000000009104289100000000000000009999123100000010000000000000BRINTBACNOR9111
012024073002LUPA3       010LUPATECH    ON      NM   R$  000000000017400000000001760000000000172000000000017300000000001730000000000172000000000017300185000000000000054800000000000009493700000000000000009999123100000010000000000000BRLUPAACNOR8112
012024073002LVTC3       010WDC NETWORKSON      NM   R$  000000000036700000000003670000000000353000000000035900000000003580000000000357000000000035800030000000000000012400000000000004453400000000000000009999123100000010000000000000BRLVTCACNOR4102
012024073002LWSA3       010LWSA        ON      NM   R$  000000000042100000000004330000000000421000000000042400000000004240000000000423000000000042408453000000000004133600000000001755465300000000000000009999123100000010000000000000BRLWSAACNOR8103
012024073002TAEE11      010TAESA       UNT     N2   R$  000000000338600000000033960000000003374000000000338300000000033870000000003387000000000338804652000000000001140900000000003860558000000000000000009999123100000010000000000000BRTAEECDAM10147
012024073002TAEE3       010TAESA       ON      N2   R$  000000000112300000000011290000000001120000000000112200000000011250000000001123000000000112500435000000000000088300000000000099116100000000000000009999123100000010000000000000BRTAEEACNOR9147
012024073002TAEE4       010TAESA       PN      N2   R$  000000000113400000000011350000000001129000000000113200000000011350000000001135000000000113600659000000000000183100000000000207294000000000000000009999123100000010000000000000BRTAEEACNPR6147
012024073002RANI3       010IRANI       ON      NM   R$  000000000086000000000008680000000000850000000000086000000000008660000000000863000000000086602535000000000000675600000000000581045700000000000000009999123100000010000000000000BRRANIACNOR5072
012024073002RAPT3       010RANDON PART ON  EJ  N1   R$  000000000092900000000009290000000000896000000000090700000000008960000000000895000000000089700182000000000000044700000000000040553900000000000000009999123100000010000000000000BRRAPTACNOR7163
012024073002RAPT4       010RANDON PART PN  EJ  N1   R$  000000000107100000000010710000000001043000000000105400000000010550000000001054000000000105505652000000000002008000000000002118077200000000000000009999123100000010000000000000BRRAPTACNPR4163
012024073002AMAR3       010LOJAS MARISAON      NM   R$  000000000014100000000001440000000000141000000000014200000000001430000000000142000000000014300291000000000000146300000000000020841500000000000000009999123100000010000000000000BRAMARACNOR4115
012024073002AMBP3       010AMBIPAR     ON      NM   R$  000000000390000000000042000000000003601000000000394600000000042000000000004139000000000420022272000000000006618300000000026120217100000000000000009999123100000010000000000000BRAMBPACNOR6103
012024073002ANIM3       010ANIMA       ON  ATZ NM   R$  000000000033800000000003460000000000337000000000034100000000003440000000000343000000000034404158000000000002029300000000000693063100000000000000009999123100000010000000000000BRANIMACNOR6108
012024073002APER3       010ALPER S.A.  ON           R$  000000000450800000000045080000000004508000000000450800000000045080000000004499000000000456900002000000000000000400000000000001803200000000000000009999123100000010000000000000BRAPERACNOR9106
012024073002RCSL3       010RECRUSUL    ON           R$  000000000028400000000002870000000000279000000000028200000000002810000000000281000000000028300255000000000000112700000000000031845700000000000000009999123100000010000000000000BRRCSLACNOR4134
012024073002RCSL4       010RECRUSUL    PN           R$  000000000010400000000001040000000000100000000000010000000000001010000000000101000000000010200834000000000000925900000000000093104800000000000000009999123100000010000000000000BRRCSLACNPR1134
012024073002RDNI3       010RNI         ON      NM   R$  000000000031800000000003200000000000307000000000031100000000003120000000000312000000000032500071000000000000025800000000000008044500000000000000009999123100000010000000000000BRRDNIACNOR9116
012024073002RDOR3       010REDE D OR   ON      NM   R$  000000000282000000000028440000000002810000000000282500000000028170000000002817000000000283210811000000000002891600000000008170040100000000000000009999123100000010000000000000BRRDORACNOR8113
012024073002SRNA3       010SERENA      ON      NM   R$  000000000086300000000008660000000000851000000000085500000000008520000000000852000000000085604189000000000001701100000000001456036300000000000000009999123100000010000000000000BRSRNAACNOR4100
012024073002STBP3       010SANTOS BRP  ON      NM   R$  000000000134200000000013450000000001311000000000132300000000013230000000001323000000000132616371000000000004354300000000005762721900000000000000009999123100000010000000000000BRSTBPACNOR3130
012024073002SUZB3       010SUZANO S.A. ON      NM   R$  000000000528000000000053730000000005218000000000529900000000053420000000005340000000000534316938000000000007154700000000037915564300000000000000009999123100000010000000000000BRSUZBACNOR0130
012024073002RADL3       010RAIADROGASILON      NM   R$  000000000271800000000027620000000002693000000000273200000000027550000000002753000000000275709959000000000003283800000000008972926900000000000000009999123100000010000000000000BRRADLACNOR0157
012024073002RAIL3       010RUMO S.A.   ON      NM   R$  000000000222600000000022350000000002198000000000221200000000022190000000002219000000000222613255000000000005311200000000011753365600000000000000009999123100000010000000000000BRRAILACNOR9105
012024073002RAIZ4       010RAIZEN      PN      N2   R$  000000000030100000000003020000000000298000000000029900000000002990000000000299000000000030011430000000000009309200000000002785390500000000000000009999123100000010000000000000BRRAIZACNPR6110
012024073002SNSY3       010SANSUY      ON           R$  000000000122900000000012650000000001229000000000125800000000012650000000001224000000000127000004000000000000000600000000000000754900000000000000009999123100000010000000000000BRSNSYACNOR2113
012024073002SOJA3       010BOA SAFRA   ON      NM   R$  000000000149600000000015020000000001489000000000149600000000015020000000001493000000000150201496000000000000232700000000000348177400000000000000009999123100000010000000000000BRSOJAACNOR9105
012024073002SOMA3       010GRUPO SOMA  ON      NM   R$  000000000060200000000006050000000000586000000000059100000000005940000000000592000000000059513591000000000011771300000000006966624200000000000000009999123100000010000000000000BRSOMAACNOR3102
012024073002WLMM3       010WLM IND COM ON           R$  000000000260000000000026000000000002600000000000260000000000026000000000002500000000000265000001000000000000000100000000000000260000000000000000009999123100000010000000000000BRWLMMACNOR6118
012024073002WLMM4       010WLM IND COM PN           R$  000000000322000000000032200000000003220000000000322000000000032200000000002700000000000322300001000000000000000100000000000000322000000000000000009999123100000010000000000000BRWLMMACNPR3118
012024073002CAMB3       010CAMBUCI     ON           R$  000000000115000000000011590000000001124000000000114400000000011550000000001142000000000115500139000000000000032500000000000037211000000000000000009999123100000010000000000000BRCAMBACNOR4130
012024073002CAML3       010CAMIL       ON      NM   R$  000000000087000000000008860000000000864000000000087400000000008860000000000881000000000088602313000000000000405600000000000354842000000000000000009999123100000010000000000000BRCAMLACNOR3128
012024073002CASH3       010MELIUZ      ON      NM   R$  000000000057500000000005750000000000557000000000056300000000005590000000000558000000000055902139000000000000992500000000000558995100000000000000009999123100000010000000000000BRCASHACNOR8106
012024073002CBAV3       010CBA         ON      NM   R$  000000000052200000000005220000000000505000000000051100000000005100000000000509000000000051204955000000000002922300000000001495287200000000000000009999123100000010000000000000BRCBAVACNOR5104
012024073002CXSE3       010CAIXA SEGURION      NM   R$  000000000146100000000014610000000001439000000000144800000000014390000000001439000000000144106778000000000002180600000000003157649400000000000000009999123100000010000000000000BRCXSEACNOR7106
012024073002CYRE3       010CYRELA REALTON      NM   R$  000000000193900000000019570000000001918000000000192700000000019210000000001920000000000192910027000000000002642900000000005093441700000000000000009999123100000010000000000000BRCYREACNOR7140
012024073002DASA3       010DASA        ON      NM   R$  000000000027400000000002840000000000274000000000027800000000002740000000000273000000000027402015000000000001173800000000000326321500000000000000009999123100000010000000000000BRDASAACNOR1122
012024073002ENGI11      010ENERGISA    UNT     N2   R$  000000000446800000000044940000000004415000000000444800000000044150000000004414000000000443008755000000000002544800000000011321730600000000000000009999123100000010000000000000BRENGICDAM16135
012024073002ENGI3       010ENERGISA    ON      N2   R$  000000000139100000000013940000000001356000000000137300000000013560000000001356000000000138900023000000000000002400000000000003297200000000000000009999123100000010000000000000BRENGIACNOR0145
012024073002ENGI4       010ENERGISA    PN      N2   R$  000000000075600000000007740000000000756000000000076700000000007650000000000765000000000077600046000000000000010600000000000008132300000000000000009999123100000010000000000000BRENGIACNPR7141
012024073002ENJU3       010ENJOEI      ON      NM   R$  000000000017200000000001790000000000172000000000017600000000001730000000000173000000000017400539000000000000467700000000000082370900000000000000009999123100000010000000000000BRENJUACNOR9100
012024073002ENMT4       010ENERGISA MT PN           R$  000000000799900000000082990000000007999000000000814900000000082990000000005000000000000840000002000000000000000200000000000001629800000000000000009999123100000010000000000000BRENMTACNPR2126
012024073002EPAR3       010EMBPAR S/A  ON           R$  000000000059700000000005970000000000589000000000059400000000005900000000000585000000000059900023000000000000006200000000000003683000000000000000009999123100000010000000000000BREPARACNOR9105
012024073002EQMA3B      010EQTLMARANHAOON      MB   R$  000000000254800000000025550000000002548000000000255100000000025550000000002501000000000290000004000000000000000400000000000001020600000000000000009999123100000010000000000000BREQMAACNOR8108
012024073002EQPA3       010EQTL PARA   ON           R$  000000000073100000000007450000000000712000000000072500000000007200000000000718000000000072800025000000000000005100000000000003698200000000000000009999123100000010000000000000BREQPAACNOR1111
012024073002EQTL3       010EQUATORIAL  ON      NM   R$  000000000325000000000032500000000003199000000000322500000000032330000000003232000000000323815914000000000004257600000000013732133400000000000000009999123100000010000000000000BREQTLACNOR0130
012024073002IRBR3       010IRBBRASIL REON      NM   R$  000000000289900000000029020000000002853000000000288400000000029020000000002896000000000290302370000000000000455300000000001313407000000000000000009999123100000010000000000000BRIRBRACNOR4111
012024073002KLBN11      010KLABIN S/A  UNT     N2   R$  000000000218800000000022330000000002166000000000219900000000022050000000002204000000000220720911000000000007096300000000015610249700000000000000009999123100000010000000000000BRKLBNCDAM18142
012024073002KLBN3       010KLABIN S/A  ON      N2   R$  000000000043400000000004470000000000434000000000044200000000004440000000000442000000000044401061000000000000462800000000000204708800000000000000009999123100000010000000000000BRKLBNACNOR2170
012024073002KLBN4       010KLABIN S/A  PN      N2   R$  000000000043400000000004460000000000433000000000043800000000004380000000000438000000000043902735000000000002234400000000000980344500000000000000009999123100000010000000000000BRKLBNACNPR9170
012024073002CRPG5       010CRISTAL     PNA          R$  000000000290200000000029020000000002885000000000289800000000028850000000002883000000000290500012000000000000002100000000000006087500000000000000009999123100000010000000000000BRCRPGACNPA3119
012024073002CSAN3       010COSAN       ON      NM   R$  000000000133600000000013430000000001327000000000133400000000013380000000001338000000000133910876000000000007411100000000009887433800000000000000009999123100000010000000000000BRCSANACNOR6126
012024073002HBOR3       010HELBOR      ON      NM   R$  000000000022300000000002240000000000218000000000022000000000002200000000000219000000000022100465000000000000336500000000000074179300000000000000009999123100000010000000000000BRHBORACNOR3118
012024073002HBRE3       010HBR REALTY  ON      NM   R$  000000000054100000000005540000000000537000000000054900000000005500000000000548000000000055000977000000000000343800000000000188788300000000000000009999123100000010000000000000BRHBREACNOR4100
012024073002HBSA3       010HIDROVIAS   ON      NM   R$  000000000035400000000003540000000000340000000000034300000000003420000000000342000000000034406569000000000002972700000000001022330600000000000000009999123100000010000000000000BRHBSAACNOR0100
012024073002HETA4       010HERCULES    PN           R$  000000000052400000000005240000000000524000000000052400000000005240000000000501000000000063100001000000000000000300000000000000157200000000000000009999123100000010000000000000BRHETAACNPR9136
012024073002HYPE3       010HYPERA      ON  EJ  NM   R$  000000000294500000000029540000000002911000000000293700000000029530000000002947000000000295314038000000000003992300000000011725507900000000000000009999123100000010000000000000BRHYPEACNOR0143
012024073002BPAC11      010BTGP BANCO  UNT     N2   R$  000000000321500000000032390000000003201000000000321700000000032050000000003205000000000320910542000000000004177400000000013439508500000000000000009999123100000010000000000000BRBPACUNT006119
012024073002BPAC3       010BTGP BANCO  ON      N2   R$  000000000153000000000015450000000001501000000000153900000000015410000000001541000000000155500011000000000000001300000000000002001100000000000000009999123100000010000000000000BRBPACACNOR7134
012024073002BPAC5       010BTGP BANCO  PNA     N2   R$  000000000083000000000008420000000000830000000000083500000000008340000000000826000000000084000009000000000000001100000000000000919200000000000000009999123100000010000000000000BRBPACACNPA0134
012024073002BPAN4       010BANCO PAN   PN      N1   R$  000000000084600000000008520000000000834000000000084300000000008500000000000849000000000085103043000000000000864400000000000729282700000000000000009999123100000010000000000000BRBPANACNPR1115
012024073002CRFB3       010CARREFOUR BRON      NM   R$  000000000089300000000009120000000000883000000000090200000000009060000000000906000000000090706223000000000005105100000000004607310700000000000000009999123100000010000000000000BRCRFBACNOR2116
012024073002AERI3       010AERIS       ON      NM   R$  000000000055400000000005600000000000545000000000055100000000005450000000000544000000000054500472000000000000119500000000000065920500000000000000009999123100000010000000000000BRAERIACNOR4102
012024073002AESB3       010AES BRASIL  ON      NM   R$  000000000113500000000011360000000001130000000000113200000000011310000000001131000000000113203216000000000006206000000000007027507500000000000000009999123100000010000000000000BRAESBACNOR7106
012024073002AGRO3       010BRASILAGRO  ON      NM   R$  000000000263600000000026520000000002609000000000262700000000026330000000002631000000000263901747000000000000220200000000000578633700000000000000009999123100000010000000000000BRAGROACNOR7114
012024073002AGXY3       010AGROGALAXY  ON      NM   R$  000000000014200000000001420000000000133000000000013500000000001330000000000133000000000013400405000000000000247600000000000033636700000000000000009999123100000010000000000000BRAGXYACNOR4103
012024073002CLSA3       010CLEARSALE   ON      NM   R$  000000000083500000000008590000000000826000000000084100000000008460000000000845000000000084604078000000000001366900000000001149781600000000000000009999123100000010000000000000BRCLSAACNOR0100
012024073002CLSC3       010CELESC      ON      N2   R$  000000000719900000000071990000000007199000000000719900000000071990000000006980000000000719900001000000000000000100000000000000719900000000000000009999123100000010000000000000BRCLSCACNOR6152
012024073002CLSC4       010CELESC      PN      N2   R$  000000000761800000000076180000000007598000000000760500000000076000000000007554000000000760000005000000000000000600000000000004563300000000000000009999123100000010000000000000BRCLSCACNPR3131
012024073002CMIG3       010CEMIG       ON      N1   R$  000000000128800000000012890000000001266000000000127700000000012750000000001266000000000127500543000000000000086200000000000110122500000000000000009999123100000010000000000000BRCMIGACNOR6242
012024073002CMIG4       010CEMIG       PN      N1   R$  000000000109500000000011070000000001087000000000109600000000010870000000001087000000000108821227000000000010072000000000011048207400000000000000009999123100000010000000000000BRCMIGACNPR3243
012024073002DESK3       010DESKTOP     ON      NM   R$  000000000162500000000016410000000001608000000000162500000000016280000000001628000000000164000456000000000000094500000000000153595800000000000000009999123100000010000000000000BRDESKACNOR2104
012024073002ALLD3       010ALLIED      ON      NM   R$  000000000078900000000007890000000000752000000000076600000000007700000000000767000000000077000552000000000000107100000000000082128500000000000000009999123100000010000000000000BRALLDACNOR3106
012024073002ALOS3       010ALLOS       ON      NM   R$  000000000215000000000021760000000002139000000000216000000000021660000000002165000000000216609372000000000002609500000000005638039500000000000000009999123100000010000000000000BRALOSACNOR5101
012024073002ALPA3       010ALPARGATAS  ON      N1   R$  000000000081700000000008170000000000816000000000081600000000008160000000000815000000000083000004000000000000001300000000000001061700000000000000009999123100000010000000000000BRALPAACNOR0231
012024073002ALPA4       010ALPARGATAS  PN      N1   R$  000000000086000000000008630000000000851000000000085600000000008560000000000856000000000085805138000000000002413700000000002067833600000000000000009999123100000010000000000000BRALPAACNPR7232
012024073002ALPK3       010ESTAPAR     ON      NM   R$  000000000035400000000003550000000000350000000000035200000000003550000000000351000000000035500203000000000000070400000000000024822700000000000000009999123100000010000000000000BRALPKACNOR9101
012024073002ALUP11      010ALUPAR      UNT     N2   R$  000000000311100000000031110000000003082000000000309200000000030870000000003085000000000308703366000000000000549600000000001699904100000000000000009999123100000010000000000000BRALUPCDAM15119
012024073002ALUP3       010ALUPAR      ON      N2   R$  000000000104700000000010470000000001034000000000104500000000010340000000001035000000000104700012000000000000001600000000000001672000000000000000009999123100000010000000000000BRALUPACNOR8119
012024073002ALUP4       010ALUPAR      PN      N2   R$  000000000102500000000010290000000001016000000000102300000000010240000000001021000000000102500021000000000000002500000000000002557600000000000000009999123100000010000000000000BRALUPACNPR5119
012024073002JSLG3       010JSL         ON      NM   R$  000000000093700000000009370000000000899000000000090800000000009000000000000900000000000090600874000000000000148000000000000134530600000000000000009999123100000010000000000000BRJSLGACNOR2121
012024073002KEPL3       010KEPLER WEBERON      NM   R$  000000000103600000000010440000000001020000000000103000000000010390000000001037000000000103903039000000000000794400000000000818676700000000000000009999123100000010000000000000BRKEPLACNOR1063
012024073002MILS3       010MILLS       ON      NM   R$  000000000111100000000011110000000001086000000000109500000000010930000000001092000000000109903068000000000000653200000000000715441000000000000000009999123100000010000000000000BRMILSACNOR2127
012024073002MLAS3       010MULTILASER  ON      NM   R$  000000000019400000000001940000000000188000000000019000000000001910000000000189000000000019101914000000000002632100000000000500546000000000000000009999123100000010000000000000BRMLASACNOR9101
012024073002MNDL3       010MUNDIAL     ON           R$  000000000159800000000015990000000001598000000000159800000000015990000000001400000000000159900004000000000000001000000000000001598900000000000000009999123100000010000000000000BRMNDLACNOR4109
012024073002B3SA3       010B3          ON      NM   R$  000000000107800000000010840000000001068000000000107500000000010760000000001076000000000107926587000000000021917500000000023579607300000000000000009999123100000010000000000000BRB3SAACNOR6133
012024073002EUCA4       010EUCATEX     PN      N1   R$  000000000153900000000015390000000001504000000000151300000000015090000000001509000000000151500189000000000000022900000000000034661900000000000000009999123100000010000000000000BREUCAACNPR8044
012024073002EVEN3       010EVEN        ON      NM   R$  000000000060900000000006090000000000602000000000060500000000006060000000000605000000000060602281000000000000483100000000000292643900000000000000009999123100000010000000000000BREVENACNOR8119
012024073002EZTC3       010EZTEC       ON      NM   R$  000000000134300000000013450000000001297000000000131100000000013080000000001307000000000130805738000000000002275300000000002984730900000000000000009999123100000010000000000000BREZTCACNOR0125
012024073002FESA4       010FERBASA     PN      N1   R$  000000000080000000000008010000000000786000000000079200000000007950000000000794000000000079501775000000000000609000000000000482713800000000000000009999123100000010000000000000BRFESAACNPR5084
012024073002LJQQ3       010QUERO-QUERO ON      NM   R$  000000000038900000000003930000000000384000000000038900000000003870000000000387000000000038804725000000000001315900000000000511950400000000000000009999123100000010000000000000BRLJQQACNOR5104
012024073002LOGG3       010LOG COM PROPON      NM   R$  000000000212200000000021490000000002109000000000212400000000021490000000002131000000000214901948000000000000621800000000001321042100000000000000009999123100000010000000000000BRLOGGACNOR7107
012024073002LOGN3       010LOG-IN      ON      NM   R$  000000000368700000000036920000000003578000000000360400000000035950000000003595000000000362600126000000000000014600000000000052626000000000000000009999123100000010000000000000BRLOGNACNOR3105
012024073002LPSB3       010LOPES BRASILON      NM   R$  000000000017000000000001750000000000168000000000017100000000001680000000000168000000000017000156000000000000078100000000000013366300000000000000009999123100000010000000000000BRLPSBACNOR0114
012024073002LREN3       010LOJAS RENNERON      NM   R$  000000000134200000000013670000000001300000000000131500000000013030000000001303000000000130430714000000000026392600000000034720752500000000000000009999123100000010000000000000BRLRENACNOR1221
012024073002OPCT3       010OCEANPACT   ON      NM   R$  000000000062900000000006370000000000616000000000062400000000006300000000000625000000000063002342000000000000621000000000000387843400000000000000009999123100000010000000000000BROPCTACNOR0100
012024073002ORVR3       010ORIZON      ON      NM   R$  000000000432500000000043250000000004217000000000425200000000042510000000004242000000000425102540000000000000509000000000002164444400000000000000009999123100000010000000000000BRORVRACNOR0101
012024073002BIOM3       010BIOMM       ON      MA   R$  000000000103000000000010300000000000940000000000097400000000009580000000000958000000000096100345000000000000072500000000000070631200000000000000009999123100000010000000000000BRBIOMACNOR2112
012024073002BNBR3       010NORD BRASIL ON           R$  000000000941000000000097800000000009410000000000953100000000094300000000009425000000000955000009000000000000000900000000000008578200000000000000009999123100000010000000000000BRBNBRACNOR8208
012024073002BOBR4       010BOMBRIL     PN           R$  000000000019800000000002050000000000198000000000020100000000002050000000000201000000000020500017000000000000004400000000000000887100000000000000009999123100000010000000000000BRBOBRACNPR3128
012024073002CCRO3       010CCR SA      ON      NM   R$  000000000124800000000012550000000001213000000000122200000000012170000000001217000000000121809077000000000003800800000000004644642400000000000000009999123100000010000000000000BRCCROACNOR2145
012024073002SANB11      010SANTANDER BRUNT EJ       R$  000000000283200000000029020000000002826000000000288200000000028770000000002877000000000288309490000000000003195000000000009209489200000000000000009999123100000010000000000000BRSANBCDAM13165
012024073002SANB3       010SANTANDER BRON  EJ       R$  000000000133700000000013730000000001337000000000136600000000013710000000001367000000000137101036000000000000154200000000000210675700000000000000009999123100000010000000000000BRSANBACNOR8172
012024073002CEAB3       010CEA MODAS   ON      NM   R$  000000000083700000000008440000000000815000000000082700000000008310000000000831000000000083204696000000000001625200000000001345592300000000000000009999123100000010000000000000BRCEABACNOR1102
012024073002CEBR3       010CEB         ON           R$  000000000198600000000019860000000001979000000000198200000000019850000000001975000000000198500010000000000000001500000000000002974200000000000000009999123100000010000000000000BRCEBRACNOR5125
012024073002CEBR5       010CEB         PNA          R$  000000000179900000000017990000000001769000000000178100000000017690000000001757000000000176900004000000000000000400000000000000712700000000000000009999123100000010000000000000BRCEBRACNPA8124
012024073002CEBR6       010CEB         PNB          R$  000000000186700000000018820000000001851000000000187000000000018810000000001854000000000188100018000000000000005700000000000010663100000000000000009999123100000010000000000000BRCEBRACNPB6124
012024073002CGAS5       010COMGAS      PNA          R$  000000001096100000000111520000000010950000000001109500000000111520000000010955000000001115200014000000000000003100000000000034395100000000000000009999123100000010000000000000BRCGASACNPA3160
012024073002CGRA3       010GRAZZIOTIN  ON           R$  000000000249000000000025200000000002490000000000250200000000025130000000002493000000000253100004000000000000000800000000000002002300000000000000009999123100000010000000000000BRCGRAACNOR2083
012024073002CGRA4       010GRAZZIOTIN  PN           R$  000000000248000000000024890000000002475000000000248000000000024890000000002489000000000249800023000000000000003200000000000007937400000000000000009999123100000010000000000000BRCGRAACNPR9083
012024073002CIEL3       010CIELO       ON      NM   R$  000000000057500000000005760000000000575000000000057500000000005760000000000575000000000057603065000000000020501900000000011803752300000000000000009999123100000010000000000000BRCIELACNOR3157
012024073002SANB4       010SANTANDER BRPN  EJ       R$  000000000149000000000015260000000001488000000000151100000000015130000000001511000000000151901015000000000000138500000000000209304500000000000000009999123100000010000000000000BRSANBACNPR5172
012024073002TPIS3       010TRIUNFO PARTON      NM   R$  000000000037200000000003720000000000367000000000036700000000003670000000000366000000000037200021000000000000010900000000000004005700000000000000009999123100000010000000000000BRTPISACNOR8118
012024073002TRAD3       010TC          ON  EG  NM   R$  000000000037700000000003770000000000359000000000036400000000003670000000000361000000000036700184000000000000106300000000000038720900000000000000009999123100000010000000000000BRTRADACNOR3102
012024073002TRIS3       010TRISUL      ON      NM   R$  000000000048900000000004890000000000470000000000047400000000004720000000000471000000000047201413000000000000666400000000000316341100000000000000009999123100000010000000000000BRTRISACNOR4118
012024073002TRPL3       010TRAN PAULISTON      N1   R$  000000000318100000000031990000000003167000000000318800000000031960000000003169000000000319600021000000000000002300000000000007333100000000000000009999123100000010000000000000BRTRPLACNOR4185
012024073002TRPL4       010TRAN PAULISTPN      N1   R$  000000000248000000000024830000000002453000000000247000000000024720000000002471000000000247205645000000000002826200000000006981785000000000000000009999123100000010000000000000BRTRPLACNPR1185
012024073002PATI3       010PANATLANTICAON           R$  000000000245000000000024500000000002400000000000241600000000024000000000002400000000000249900002000000000000000300000000000000725000000000000000009999123100000010000000000000BRPATIACNOR6065
012024073002PATI4       010PANATLANTICAPN           R$  000000000270100000000027010000000002701000000000270100000000027010000000002672000000000327500001000000000000000100000000000000270100000000000000009999123100000010000000000000BRPATIACNPR3065
012024073002PCAR3       010P.ACUCAR-CBDON      NM   R$  000000000027300000000002730000000000265000000000026700000000002680000000000267000000000026811150000000000010445700000000002795575800000000000000009999123100000010000000000000BRPCARACNOR3167
012024073002RSUL4       010RIOSULENSE  PN           R$  000000000614800000000061480000000006100000000000611200000000061000000000006000000000000613000004000000000000000400000000000002444800000000000000009999123100000010000000000000BRRSULACNPR3114
012024073002TTEN3       0103TENTOS     ON      NM   R$  000000000106500000000010690000000001052000000000105900000000010600000000001055000000000106004963000000000000819500000000000868055200000000000000009999123100000010000000000000BRTTENACNOR0103
012024073002TUPY3       010TUPY        ON      NM   R$  000000000248000000000024980000000002460000000000247500000000024660000000002466000000000247401762000000000000266700000000000660325700000000000000009999123100000010000000000000BRTUPYACNOR1184
012024073002UCAS3       010UNICASA     ON      NM   R$  000000000022700000000002270000000000224000000000022400000000002240000000000224000000000022600092000000000000028200000000000006344200000000000000009999123100000010000000000000BRUCASACNOR1113
012024073002UGPA3       010ULTRAPAR    ON      NM   R$  000000000226400000000022930000000002242000000000226100000000022460000000002246000000000224708496000000000003215600000000007270685600000000000000009999123100000010000000000000BRUGPAACNOR8155
012024073002VAMO3       010VAMOS       ON      NM   R$  000000000085000000000008520000000000826000000000083300000000008360000000000835000000000083619400000000000008186100000000006820396300000000000000009999123100000010000000000000BRVAMOACNOR7105
012024073002VBBR3       010VIBRA       ON      NM   R$  000000000229800000000023390000000002290000000000232400000000023190000000002318000000000231911384000000000004098600000000009525546000000000000000009999123100000010000000000000BRVBBRACNOR1108
012024073002ROMI3       010ROMI        ON      NM   R$  000000000105700000000010570000000001035000000000104000000000010350000000001035000000000103900934000000000000153200000000000159442900000000000000009999123100000010000000000000BRROMIACNOR8195
012024073002RRRP3       0103R PETROLEUMON      NM   R$  000000000264200000000027350000000002640000000000269500000000026800000000002677000000000268015748000000000004814000000000012976698100000000000000009999123100000010000000000000BRRRRPACNOR5103
012024073002TASA3       010TAURUS ARMASON      N2   R$  000000000115400000000011540000000001122000000000113700000000011230000000001123000000000112400055000000000000011300000000000012848200000000000000009999123100000010000000000000BRTASAACNOR7104
012024073002TASA4       010TAURUS ARMASPN      N2   R$  000000000114300000000011430000000001105000000000111600000000011050000000001105000000000111101560000000000000316600000000000353621600000000000000009999123100000010000000000000BRTASAACNPR4104
012024073002TCSA3       010TECNISA     ON      NM   R$  000000000021400000000002140000000000210000000000021100000000002120000000000212000000000021300123000000000000054100000000000011436500000000000000009999123100000010000000000000BRTCSAACNOR3112
012024073002TECN3       010TECHNOS     ON      NM   R$  000000000053500000000005470000000000517000000000052900000000005340000000000522000000000053400532000000000000144100000000000076239300000000000000009999123100000010000000000000BRTECNACNOR6109
012024073002TELB3       010TELEBRAS    ON           R$  000000000133000000000013300000000001330000000000133000000000013300000000001283000000000132000001000000000000000100000000000000133000000000000000009999123100000010000000000000BRTELBACNOR2140
012024073002TELB4       010TELEBRAS    PN           R$  000000000090600000000009220000000000905000000000091600000000009100000000000910000000000092900010000000000000001300000000000001191500000000000000009999123100000010000000000000BRTELBACNPR9140
012024073002TEND3       010TENDA       ON      NM   R$  000000000127000000000012700000000001230000000000125200000000012560000000001253000000000125703951000000000001269500000000001589471200000000000000009999123100000010000000000000BRTENDACNOR4111
012024073002DEXP3       010DEXXOS PAR  ON      N1   R$  000000000104500000000010450000000001008000000000101200000000010120000000001012000000000101700669000000000000157000000000000158924200000000000000009999123100000010000000000000BRDEXPACNOR1105
012024073002DEXP4       010DEXXOS PAR  PN      N1   R$  000000000101600000000010160000000001010000000000101100000000010100000000001005000000000101000009000000000000004600000000000004653600000000000000009999123100000010000000000000BRDEXPACNPR8105
012024073002DIRR3       010DIRECIONAL  ON      NM   R$  000000000278100000000027970000000002736000000000275800000000027700000000002770000000000277108452000000000003109600000000008577355300000000000000009999123100000010000000000000BRDIRRACNOR0118
012024073002DMVF3       010D1000VFARMA ON      NM   R$  000000000077700000000007920000000000769000000000078300000000007750000000000774000000000078800774000000000000093100000000000072949900000000000000009999123100000010000000000000BRDMVFACNOR9100
012024073002DOHL4       010DOHLER      PN           R$  000000000040100000000004160000000000401000000000040300000000004160000000000403000000000041600003000000000000000600000000000000242100000000000000009999123100000010000000000000BRDOHLACNPR9066
012024073002DOTZ3       010DOTZ SA     ON      NM   R$  000000000064600000000006670000000000646000000000066000000000006660000000000653000000000066600024000000000000006300000000000004159100000000000000009999123100000010000000000000BRDOTZACNOR7101
012024073002DXCO3       010DEXCO       ON      NM   R$  000000000071200000000007200000000000706000000000071300000000007140000000000713000000000071703810000000000001377600000000000983166000000000000000009999123100000010000000000000BRDXCOACNOR8105
012024073002EALT3       010ACO ALTONA  ON           R$  000000000111000000000012050000000001109000000000117500000000012000000000001111000000000118000022000000000000007100000000000008348000000000000000009999123100000010000000000000BREALTACNOR4138
012024073002EALT4       010ACO ALTONA  PN           R$  000000000116000000000011670000000001130000000000114400000000011300000000001129000000000113000028000000000000006200000000000007095300000000000000009999123100000010000000000000BREALTACNPR1138
012024073002ECOR3       010ECORODOVIAS ON      NM   R$  000000000069500000000007010000000000679000000000068500000000006830000000000683000000000068405307000000000001981500000000001359139300000000000000009999123100000010000000000000BRECORACNOR8120
012024073002ESPA3       010ESPACOLASER ON      NM   R$  000000000009700000000000990000000000096000000000009700000000000970000000000097000000000009800149000000000000342600000000000033356000000000000000009999123100000010000000000000BRESPAACNOR7103
012024073002ESTR4       010ESTRELA     PN           R$  000000000019800000000001980000000000198000000000019800000000001980000000000200000000000020400001000000000000000200000000000000039600000000000000009999123100000010000000000000BRESTRACNPR0144
012024073002CSUD3       010CSU DIGITAL ON      NM   R$  000000000194000000000019400000000001904000000000192100000000019350000000001925000000000193500150000000000000027900000000000053618000000000000000009999123100000010000000000000BRCSUDACNOR5110
012024073002CTKA4       010KARSTEN     PN           R$  000000000184100000000018410000000001810000000000182400000000018100000000001760000000000188000007000000000000000700000000000001277300000000000000009999123100000010000000000000BRCTKAACNPR7043
012024073002CURY3       010CURY S/A    ON      NM   R$  000000000212100000000021740000000002108000000000215100000000021600000000002159000000000216006362000000000001834800000000003948150500000000000000009999123100000010000000000000BRCURYACNOR3109
012024073002CVCB3       010CVC BRASIL  ON      NM   R$  000000000018100000000001820000000000175000000000017800000000001790000000000178000000000018006139000000000011984100000000002134061100000000000000009999123100000010000000000000BRCVCBACNOR1116
012024073002BLAU3       010BLAU        ON      NM   R$  000000000107300000000010780000000001024000000000104300000000010380000000001037000000000103800995000000000000170700000000000178060000000000000000009999123100000010000000000000BRBLAUACNOR8114
012024073002EMBR3       010EMBRAER     ON      NM   R$  000000000410100000000043390000000004101000000000426700000000042850000000004285000000000428727881000000000008842600000000037737080500000000000000009999123100000010000000000000BREMBRACNOR4191
012024073002ENAT3       010ENAUTA PART ON      NM   R$  000000000214400000000021970000000002119000000000216000000000021410000000002141000000000214507950000000000002362700000000005104477100000000000000009999123100000010000000000000BRENATACNOR0104
012024073002ENEV3       010ENEVA       ON      NM   R$  000000000127500000000012850000000001267000000000127300000000012700000000001270000000000127509517000000000004505500000000005737082000000000000000009999123100000010000000000000BRENEVACNOR8106
012024073002IFCM3       010INFRACOMM   ON      NM   R$  000000000003500000000000360000000000034000000000003400000000000340000000000034000000000003502354000000000004039900000000000139842600000000000000009999123100000010000000000000BRIFCMACNOR8101
012024073002IGTI11      010IGUATEMI S.AUNT     N1   R$  000000000210000000000021080000000002083000000000209200000000020900000000002090000000000209408764000000000001951500000000004084122800000000000000009999123100000010000000000000BRIGTICDAM16106
012024073002IGTI3       010IGUATEMI S.AON      N1   R$  000000000026000000000002610000000000258000000000025900000000002580000000000258000000000025900131000000000000032500000000000008428800000000000000009999123100000010000000000000BRIGTIACNOR8106
012024073002IGTI4       010IGUATEMI S.APN      N1   R$  000000000092200000000009220000000000922000000000092200000000009220000000000900000000000108500001000000000000000100000000000000092200000000000000009999123100000010000000000000BRIGTIACNPR5106
012024073002BMEB3       010MERCANTIL   ON  EJ  N1   R$  000000000304300000000030430000000003040000000000304200000000030400000000002900000000000317700010000000000000001200000000000003651300000000000000009999123100000010000000000000BRBMEBACNOR8206
012024073002BMEB4       010MERCANTIL   PN  EJ  N1   R$  000000000339000000000033900000000003200000000000326800000000032420000000003242000000000326000146000000000000025500000000000083357900000000000000009999123100000010000000000000BRBMEBACNPR5211
012024073002BMGB4       010BANCO BMG   PN  EJ  N1   R$  000000000034100000000003500000000000341000000000034500000000003500000000000349000000000035000688000000000000699400000000000241825600000000000000009999123100000010000000000000BRBMGBACNPR0110
012024073002BMKS3       010BIC MONARK  ON           R$  000000003230600000000330000000000032304000000003292300000000323070000000032306000000003289000024000000000000000138000000000004543500000000000000009999123100000010000000000000BRBMKSACNOR9166
012024073002BMOB3       010BEMOBI TECH ON      NM   R$  000000000143600000000014510000000001416000000000142700000000014210000000001420000000000142101128000000000000184400000000000263244900000000000000009999123100000010000000000000BRBMOBACNOR7103
012024073007NUTR3       010NUTRIPLANT  ON      MA   R$  000000000051400000000005370000000000503000000000051800000000005270000000000507000000000052700039000000000000007700000000000003992000000000000000009999123100000010000000000000BRNUTRACNOR0104
012024073008SGPS3       010SPRINGS     ON      NM   R$  000000000022000000000002200000000000220000000000022000000000002200000000000218000000000022000013000000000000003600000000000000792000000000000000009999123100000010000000000000BRSGPSACNOR4105
012024073008NEXP3       010NEXPE       ON           R$  000000000040800000000004150000000000408000000000041000000000004100000000000410000000000041700006000000000000000600000000000000246500000000000000009999123100000010000000000000BRNEXPACNOR0101
012024073008PMAM3       010PARANAPANEMAON      NM   R$  000000000023600000000002380000000000231000000000023400000000002370000000000235000000000023700089000000000000053900000000000012648800000000000000009999123100000010000000000000BRPMAMACNOR3039
012024073008OIBR3       010OI          ON      N1   R$  000000000041500000000004270000000000415000000000041900000000004190000000000419000000000042100841000000000000581600000000000243801400000000000000009999123100000010000000000000BROIBRACNOR1111
012024073008OIBR4       010OI          PN      N1   R$  000000000123500000000012420000000001225000000000122800000000012250000000001225000000000122600019000000000000003200000000000003930700000000000000009999123100000010000000000000BROIBRACNPR8110
012024073008JFEN3       010JOAO FORTES ON           R$  000000000003300000000000410000000000030000000000003700000000000350000000000035000000000003603361000000000021851100000000000813951600000000000000009999123100000010000000000000BRJFENACNOR0059
012024073008ATMP3       010ATMASA      ON           R$  000000000019200000000001920000000000190000000000019100000000001900000000000188000000000019200003000000000000000300000000000000057400000000000000009999123100000010000000000000BRATMPACNOR8100
012024073008AMER3       010AMERICANAS  ON      NM   R$  000000000006400000000000650000000000059000000000006100000000000620000000000061000000000006202993000000000032088500000000001978394000000000000000009999123100000010000000000000BRAMERACNOR6102
012024073008HOOT4       010HOTEIS OTHONPN           R$  000000000023700000000002370000000000233000000000023400000000002330000000000231000000000024200003000000000000000800000000000000187200000000000000009999123100000010000000000000BRHOOTACNPR9015
012024073008LIGT3       010LIGHT S/A   ON      NM   R$  000000000041200000000004170000000000394000000000040200000000003990000000000398000000000040002874000000000001837700000000000739243000000000000000009999123100000010000000000000BRLIGTACNOR2124
012024073008OSXB3       010OSX BRASIL  ON      NM   R$  000000000037700000000003820000000000377000000000037900000000003780000000000377000000000038100007000000000000002600000000000000986100000000000000009999123100000010000000000000BROSXBACNOR8109
012024073008RSID3       010ROSSI RESID ON      NM   R$  000000000041300000000004130000000000404000000000040800000000004040000000000404000000000041000023000000000000004300000000000001757900000000000000009999123100000010000000000000BRRSIDACNOR8120
012024073008RNEW11      010RENOVA      UNT     N2   R$  000000000026400000000002680000000000264000000000026500000000002680000000000264000000000026800008000000000000001200000000000000318200000000000000009999123100000010000000000000BRRNEWCDAM15110
012024073008RNEW3       010RENOVA      ON      N2   R$  000000000008700000000000900000000000086000000000008800000000000890000000000089000000000009000046000000000000021300000000000001886400000000000000009999123100000010000000000000BRRNEWACNOR8110
012024073008RNEW4       010RENOVA      PN      N2   R$  000000000008900000000000910000000000087000000000008900000000000890000000000088000000000008900074000000000000050500000000000004512200000000000000009999123100000010000000000000BRRNEWACNPR5110
012024073008RPMG3       010PET MANGUINHON           R$  000000000029800000000003000000000000281000000000028800000000002810000000000280000000000028100186000000000000029100000000000008399700000000000000009999123100000010000000000000BRRPMGACNOR9194
012024073008ETER3       010ETERNIT     ON      NM   R$  000000000054000000000005780000000000529000000000054400000000005780000000000562000000000057801072000000000000485300000000000264187500000000000000009999123100000010000000000000BRETERACNOR3243
012024073008CTNM4       010COTEMINAS   PN           R$  000000000010500000000001050000000000105000000000010500000000001050000000000098000000000010500012000000000000006000000000000000630000000000000000009999123100000010000000000000BRCTNMACNPR6129
012024073008CTSA3       010SANTANENSE  ON           R$  000000000028000000000003060000000000280000000000029500000000003050000000000298000000000030500110000000000000043100000000000012740500000000000000009999123100000010000000000000BRCTSAACNOR3062
012024073008CTSA4       010SANTANENSE  PN           R$  000000000016500000000001870000000000156000000000017000000000001610000000000161000000000016200494000000000000320100000000000054472800000000000000009999123100000010000000000000BRCTSAACNPR0062
012024073010ZAMP1       010ZAMP S.A.   DIR ORD      R$  000000000001600000000000290000000000015000000000001700000000000180000000000017000000000001800650000000000000513200000000000009043700000000000000009999123100000010000000000000BRZAMPD01OR0100
012024073010RENT1       010LOCALIZA    DIR ORD NM   R$  000000000100000000000010000000000000882000000000093500000000010000000000001000000000000101000473000000000000110700000000000103589300000000000000009999123100000010000000000000BRRENTD06OR8195
012024073012FIGS11      010FII GEN SHOPCI           R$  000000000553100000000055480000000005500000000000552700000000055320000000005502000000000553400083000000000000001729000000000009557205000000000000009999123100000010000000000000BRFIGSCTF009229
012024073012FIIB11      010FII INDL BR CI           R$  000000005051500000000509920000000050404000000005059600000000504040000000050403000000005040400149000000000000000433000000000021908449000000000000009999123100000010000000000000BRFIIBCTF001252
012024073012FIIP11B     010FII RB CAP ICI      MB   R$  000000001831900000000183190000000017720000000001802800000000182150000000018020000000001820000243000000000000002004000000000036128143000000000000009999123100000010000000000000BRFIIPCTF001275
012024073012FIVN11      010FII VIDANOVACI           R$  000000000029400000000002990000000000289000000000029500000000002960000000000293000000000029600023000000000000001057000000000000312233000000000000009999123100000010000000000000BRFIVNCTF009100
012024073012FLCR11      010FII FL RECEBCI           R$  000000000985700000000098570000000009781000000000980400000000098160000000009808000000000981600055000000000000000372000000000003647404000000000000009999123100000010000000000000BRFLCRCTF004143
012024073012FLMA11      010FII S F LIMACI           R$  000000001411000000000141950000000014110000000001413800000000141710000000014172000000001420000043000000000000000203000000000002870209000000000000009999123100000010000000000000BRFLMACTF009343
012024073012FLRP11      010FII FLORIPA CI           R$  000000020600000000002060000000000205990000000020599600000002059900000000200901000000020599000002000000000000000003000000000000617990000000000000009999123100000010000000000000BRFLRPCTF006272
012024073012KNCR11      010FII KINEA RICI           R$  000000001050800000000105820000000010500000000001052700000000105400000000010540000000001056817877000000000000088890000000000935824787000000000000009999123100000010000000000000BRKNCRCTF000241
012024073012KNHF11      010FII KINEA HFCI           R$  000000000968600000000097200000000009651000000000968100000000096610000000009657000000000968005967000000000000020556000000000199012557000000000000009999123100000010000000000000BRKNHFCTF004112
012024073012KNHY11      010FII KINEA HYCI           R$  000000001056000000000105930000000010529000000001055600000000105490000000010544000000001054904138000000000000024509000000000258723715000000000000009999123100000010000000000000BRKNHYCTF005173
012024073012KNIP11      010FII KINEA IPCI           R$  000000000946700000000095200000000009440000000000945800000000094870000000009484000000000948719223000000000000146864000000001389092927000000000000009999123100000010000000000000BRKNIPCTF001194
012024073012KNRE11      010FII KII REALCI           R$  000000000004200000000000420000000000041000000000004100000000000410000000000041000000000004200026000000000000000442000000000000018294000000000000009999123100000010000000000000BRKNRECTF006129
012024073012KNRI11      010FII KINEA   CI           R$  000000001530400000000154350000000015304000000001538200000000154090000000015409000000001541006144000000000000030958000000000476212853000000000000009999123100000010000000000000BRKNRICTF007265
012024073012KNSC11      010FII KINEA SCCI           R$  000000000093000000000009310000000000927000000000092900000000009300000000000929000000000093011641000000000000378739000000000351894577000000000000009999123100000010000000000000BRKNSCCTF008148
012024073012KNUQ11      010FII KINEA UNCI           R$  000000001043000000000104670000000010364000000001039200000000103870000000010378000000001038702154000000000000018946000000000196903758000000000000009999123100000010000000000000BRKNUQCTF004114
012024073012KORE11      010FII KORE    CI           R$  000000001034500000000104250000000010323000000001036200000000103600000000010358000000001036101200000000000000007861000000000081460266000000000000009999123100000010000000000000BRKORECTF012107
012024073012AROA11      010FII AROA    CI           R$  000000000010000000000001000000000000099000000000009900000000001000000000000099000000000010000099000000000000021263000000000002125675000000000000009999123100000010000000000000BRAROACTF003119
012024073012ARRI11      010FII ATRIO   CI           R$  000000000090900000000009100000000000906000000000090800000000009100000000000908000000000091000929000000000000035484000000000032246296000000000000009999123100000010000000000000BRARRICTF009162
012024073012ARXD11      010FII ARXD R  CI           R$  000000000984100000000098410000000009840000000000984000000000098400000000009811000000000984100002000000000000000011000000000000108241000000000000009999123100000010000000000000BRARXDCTF008116
012024073012BBFI11      010FII BB PROGRCI           R$  000000007200100000000724870000000071024000000007230400000000724840000000071918000000007248400093000000000000000176000000000012725591000000000000009999123100000010000000000000BRBBFICTF006329
012024073012BBFO11      010FII BB FOF  CI           R$  000000000724000000000072990000000007200000000000724700000000072860000000007262000000000728600273000000000000009603000000000069600417000000000000009999123100000010000000000000BRBBFOCTF004142
012024073012BBIG11      010FII BBIG    CI           R$  000000000092200000000009220000000000917000000000091800000000009200000000000918000000000092000379000000000000040586000000000037264945000000000000009999123100000010000000000000BRBBIGCTF004102
012024073012BBRC11      010FII BB CORP CI           R$  000000001140500000000114890000000011379000000001140000000000114300000000011428000000001143000099000000000000001257000000000014329897000000000000009999123100000010000000000000BRBBRCCTF004254
012024073012BPFF11      010FII ABSOLUTOCI           R$  000000000697700000000070830000000006970000000000700600000000070220000000007020000000000702900302000000000000004240000000000029708030000000000000009999123100000010000000000000BRBPFFCTF002237
012024073012BPML11      010FII BTG SHOPCI  ER       R$  000000000876000000000088600000000008659000000000874100000000087220000000008722000000000874001833000000000000011807000000000103212170000000000000009999123100000010000000000000BRBPMLCTF006132
012024073012BPRP11      010FII BRLPROP CI           R$  000000001070000000000107000000000010700000000001070000000000107000000000010100000000001070000001000000000000000001000000000000010700000000000000009999123100000010000000000000BRBPRPCTF006160
012024073012BRCO11      010FII BRESCO  CI           R$  000000001170100000000117480000000011515000000001162500000000116860000000011620000000001168607003000000000000021186000000000246296193000000000000009999123100000010000000000000BRBRCOCTF007158
012024073012BRCR11      010FII BC FUND CI           R$  000000000493200000000050800000000004930000000000502300000000050790000000005072000000000508016462000000000000045983000000000230980025000000000000009999123100000010000000000000BRBRCRCTF000268
012024073012IBCR11      010FII BREI    CI           R$  000000000710300000000071030000000007026000000000704400000000070420000000007059000000000709000074000000000000000813000000000005727515000000000000009999123100000010000000000000BRIBCRCTF009138
012024073012BRLA11      010FII BRLPROIICI           R$  000000001590000000000159000000000015900000000001590000000000159000000000015200000000001580000001000000000000000052000000000000826800000000000000009999123100000010000000000000BRBRLACTF007148
012024073012BROF11      010FII BROF    CI           R$  000000000495900000000049960000000004928000000000496500000000049660000000004966000000000497401054000000000000006593000000000032738628000000000000009999123100000010000000000000BRBROFCTF000115
012024073012BTAL11      010FII BTG AGROCI           R$  000000000782500000000078820000000007728000000000778300000000077650000000007755000000000776502574000000000000009758000000000075953626000000000000009999123100000010000000000000BRBTALCTF003141
012024073012BTCI11      010FII BTG CRI CI           R$  000000000099100000000009950000000000988000000000099000000000009930000000000993000000000099409175000000000000136774000000000135542232000000000000009999123100000010000000000000BRBTCICTF005121
012024073012BTHI11      010BTG HOTEL FICI           R$  000000000412500000000041250000000004065000000000409100000000040650000000004065000000000412500018000000000000000089000000000000364152000000000000009999123100000010000000000000BRBTHICTF004110
012024073012BTLG11      010FII BTLG    CI           R$  000000001005500000000101280000000010001000000001005700000000101060000000010103000000001010620826000000000000089388000000000899057562000000000000009999123100000010000000000000BRBTLGCTF000164
012024073012BTRA11      010FII BTG TAGRCI  ER       R$  000000000523900000000052390000000005142000000000516800000000051790000000005179000000000520800728000000000000003088000000000015961863000000000000009999123100000010000000000000BRBTRACTF000138
012024073012BTSG11      010FII BTSP I  CI           R$  000000001590800000000159080000000015908000000001590800000000159080000000000000000000000000000001000000000000000025000000000000397700000000000000009999123100000010000000000000BRBTSGCTF005132
012024073012CACR11      010CARTESIA FIICI           R$  000000001054500000000105950000000010500000000001054800000000105400000000010536000000001054001077000000000000014198000000000149774277000000000000009999123100000010000000000000BRCACRCTF004134
012024073012XPCI11      010FII XP CRED CI           R$  000000000869300000000087500000000008624000000000867800000000086850000000008669000000000868514638000000000000032454000000000281658574000000000000009999123100000010000000000000BRXPCICTF007158
012024073012XPCM11      010FII XP MACAECI           R$  000000000078900000000007890000000000733000000000077500000000007420000000000743000000000078300100000000000000001693000000000001313376000000000000009999123100000010000000000000BRXPCMCTF009230
012024073012XPIN11      010FII XP INDL CI  ER       R$  000000000791000000000079900000000007872000000000794200000000079500000000007950000000000795500495000000000000007693000000000061103404000000000000009999123100000010000000000000BRXPINCTF004175
