00COTAHIST.2024BOVESPA 20240712                                                                                                                                                                                                                      
012024071202KEPL3       010KEPLER WEBERON      NM   R$  000000000099000000000010090000000000984000000000100100000000010060000000001005000000000100603479000000000001043300000000001044868400000000000000009999123100000010000000000000BRKEPLACNOR1063
012024071202KLBN11      010KLABIN S/A  UNT     N2   R$  000000000209500000000021090000000002081000000000209400000000020950000000002095000000000209707411000000000002089600000000004375674700000000000000009999123100000010000000000000BRKLBNCDAM18142
012024071202KLBN3       010KLABIN S/A  ON      N2   R$  000000000042100000000004240000000000418000000000042100000000004220000000000422000000000042400457000000000000224700000000000094607300000000000000009999123100000010000000000000BRKLBNACNOR2170
012024071202KLBN4       010KLABIN S/A  PN      N2   R$  000000000041800000000004210000000000416000000000041800000000004180000000000418000000000042001639000000000001174900000000000491174500000000000000009999123100000010000000000000BRKLBNACNPR9170
012024071202APER3       010ALPER S.A.  ON           R$  000000000458100000000045810000000004580000000000457300000000045800000000004491000000000467000007000000000000001200000000000005488100000000000000009999123100000010000000000000BRAPERACNOR9106
012024071202ARML3       010ARMAC       ON  EDJ NM   R$  000000000107800000000010800000000001046000000000106000000000010460000000001044000000000105003343000000000000877000000000000930131700000000000000009999123100000010000000000000BRARMLACNOR1112
012024071202COCE5       010COELCE      PNA          R$  000000000312800000000031650000000003068000000000311700000000030750000000003075000000000311100132000000000000015800000000000049255800000000000000009999123100000010000000000000BRCOCEACNPA3147
012024071202COGN3       010COGNA ON    ON      NM   R$  000000000019000000000001910000000000187000000000018800000000001890000000000188000000000018907952000000000016091400000000003033136800000000000000009999123100000010000000000000BRCOGNACNOR2104
012024071202HBOR3       010HELBOR      ON      NM   R$  000000000024000000000002400000000000231000000000023300000000002330000000000232000000000023300554000000000000437400000000000102103300000000000000009999123100000010000000000000BRHBORACNOR3118
012024071202HBRE3       010HBR REALTY  ON      NM   R$  000000000057600000000006110000000000574000000000059700000000006000000000000600000000000060401778000000000000970800000000000580419700000000000000009999123100000010000000000000BRHBREACNOR4100
012024071202HBSA3       010HIDROVIAS   ON      NM   R$  000000000040200000000004020000000000393000000000039600000000004000000000000398000000000040003978000000000003464400000000001375215400000000000000009999123100000010000000000000BRHBSAACNOR0100
012024071202HBTS5       010HABITASUL   PNA          R$  000000000409600000000040960000000004096000000000409600000000040960000000003865000000000409600001000000000000000100000000000000409600000000000000009999123100000010000000000000BRHBTSACNPA3128
012024071202HETA4       010HERCULES    PN           R$  000000000055000000000005500000000000545000000000054600000000005450000000000530000000000062700002000000000000000300000000000000164000000000000000009999123100000010000000000000BRHETAACNPR9136
012024071202MRFG3       010MARFRIG     ON      NM   R$  000000000120500000000012310000000001199000000000122000000000012260000000001222000000000122609145000000000003050600000000003723516500000000000000009999123100000010000000000000BRMRFGACNOR0116
012024071202MRSA5B      010MRS LOGIST  PNA     MB   R$  000000000265600000000026560000000002656000000000265600000000026560000000002656000000000000000002000000000000000300000000000000796800000000000000009999123100000010000000000000BRMRSAACNPA9125
012024071202MRVE3       010MRV         ON      NM   R$  000000000072800000000007280000000000695000000000070400000000006960000000000696000000000069810750000000000012693200000000008940715000000000000000009999123100000010000000000000BRMRVEACNOR2127
012024071202ALPA3       010ALPARGATAS  ON      N1   R$  000000000089900000000009140000000000899000000000090700000000009090000000000904000000000090900044000000000000005800000000000005262400000000000000009999123100000010000000000000BRALPAACNOR0231
012024071202ALPA4       010ALPARGATAS  PN      N1   R$  000000000092900000000009440000000000921000000000093200000000009310000000000930000000000093107263000000000002308700000000002151904200000000000000009999123100000010000000000000BRALPAACNPR7232
012024071202ALPK3       010ESTAPAR     ON      NM   R$  000000000036000000000003600000000000352000000000035500000000003600000000000355000000000036000282000000000000063800000000000022681000000000000000009999123100000010000000000000BRALPKACNOR9101
012024071202ALUP11      010ALUPAR      UNT     N2   R$  000000000316800000000031920000000003144000000000317300000000031820000000003180000000000318201962000000000000383800000000001217986300000000000000009999123100000010000000000000BRALUPCDAM15119
012024071202ALUP3       010ALUPAR      ON      N2   R$  000000000108900000000010890000000001072000000000107800000000010800000000001077000000000108000060000000000000008000000000000008627200000000000000009999123100000010000000000000BRALUPACNOR8119
012024071202ALUP4       010ALUPAR      PN      N2   R$  000000000104800000000010570000000001039000000000104300000000010490000000001043000000000105600079000000000000011100000000000011585200000000000000009999123100000010000000000000BRALUPACNPR5119
012024071202AMAR3       010LOJAS MARISAON      NM   R$  000000000014600000000001460000000000141000000000014300000000001430000000000142000000000014300555000000000000491800000000000070568800000000000000009999123100000010000000000000BRAMARACNOR4115
012024071202AMBP3       010AMBIPAR     ON      NM   R$  000000000218100000000021900000000001738000000000196100000000021000000000002079000000000210022062000000000011527800000000022606644300000000000000009999123100000010000000000000BRAMBPACNOR6103
012024071202ANIM3       010ANIMA       ON      NM   R$  000000000038300000000003950000000000376000000000038500000000003880000000000384000000000038805865000000000004447200000000001713993600000000000000009999123100000010000000000000BRANIMACNOR6107
012024071202BBDC3       010BRADESCO    ON      N1   R$  000000000116200000000011650000000001154000000000115900000000011560000000001156000000000115706162000000000005518900000000006397036300000000000000009999123100000010000000000000BRBBDCACNOR1772
012024071202BBDC4       010BRADESCO    PN      N1   R$  000000000126800000000012680000000001258000000000126300000000012640000000001263000000000126522975000000000028892700000000036494630300000000000000009999123100000010000000000000BRBBDCACNPR8772
012024071202CMIN3       010CSNMINERACAOON      N2   R$  000000000053500000000005500000000000532000000000054400000000005480000000000548000000000054907350000000000006638800000000003612714800000000000000009999123100000010000000000000BRCMINACNOR2111
012024071202EGIE3       010ENGIE BRASILON      NM   R$  000000000459600000000046640000000004580000000000464500000000046610000000004661000000000466403466000000000000832400000000003866685300000000000000009999123100000010000000000000BREGIEACNOR9126
012024071202EKTR4       010ELEKTRO     PN           R$  000000000395000000000039550000000003950000000000395300000000039550000000003930000000000395500004000000000000000400000000000001581500000000000000009999123100000010000000000000BREKTRACNPR7163
012024071202CURY3       010CURY S/A    ON      NM   R$  000000000219000000000021940000000002084000000000213200000000021010000000002100000000000210109124000000000001743000000000003716577600000000000000009999123100000010000000000000BRCURYACNOR3109
012024071202CVCB3       010CVC BRASIL  ON      NM   R$  000000000021600000000002160000000000209000000000021200000000002090000000000209000000000021002991000000000007052600000000001496642400000000000000009999123100000010000000000000BRCVCBACNOR1116
012024071202CXSE3       010CAIXA SEGURION      NM   R$  000000000143100000000014450000000001431000000000143900000000014400000000001439000000000144006453000000000001982800000000002853267600000000000000009999123100000010000000000000BRCXSEACNOR7106
012024071202FESA3       010FERBASA     ON      N1   R$  000000000138900000000013890000000001382000000000138300000000013820000000001368000000000141100006000000000000000600000000000000829900000000000000009999123100000010000000000000BRFESAACNOR8188
012024071202GEPA4       010GER PARANAP PN           R$  000000000262500000000026590000000002600000000000262800000000026590000000002575000000000265900003000000000000000300000000000000788400000000000000009999123100000010000000000000BRGEPAACNPR9160
012024071202GFSA3       010GAFISA      ON      NM   R$  000000000039900000000004020000000000367000000000037700000000003730000000000373000000000037404656000000000006619300000000002500592800000000000000009999123100000010000000000000BRGFSAACNOR3124
012024071202GGBR3       010GERDAU      ON      N1   R$  000000000162800000000016300000000001611000000000162500000000016240000000001623000000000163000233000000000000038900000000000063218500000000000000009999123100000010000000000000BRGGBRACNOR1192
012024071202GGBR4       010GERDAU      PN      N1   R$  000000000181600000000018350000000001806000000000182300000000018270000000001826000000000182909714000000000004444500000000008104483300000000000000009999123100000010000000000000BRGGBRACNPR8192
012024071202ITUB3       010ITAUUNIBANCOON      N1   R$  000000000288300000000028860000000002856000000000286800000000028680000000002867000000000287301064000000000000242400000000000695283000000000000000009999123100000010000000000000BRITUBACNOR4338
012024071202ITUB4       010ITAUUNIBANCOPN      N1   R$  000000000336500000000033690000000003332000000000334400000000033460000000003346000000000334733568000000000022058200000000073781314400000000000000009999123100000010000000000000BRITUBACNPR1338
012024071202UCAS3       010UNICASA     ON      NM   R$  000000000023000000000002380000000000225000000000023200000000002380000000000235000000000023800139000000000000047300000000000011018400000000000000009999123100000010000000000000BRUCASACNOR1113
012024071202UGPA3       010ULTRAPAR    ON      NM   R$  000000000230900000000023190000000002266000000000228000000000022700000000002269000000000227115011000000000003227000000000007360289600000000000000009999123100000010000000000000BRUGPAACNOR8155
012024071202VLID3       010VALID       ON      NM   R$  000000000157600000000015800000000001548000000000156100000000015640000000001556000000000156402833000000000000375100000000000585743000000000000000009999123100000010000000000000BRVLIDACNOR5143
012024071202VSTE3       010VESTE       ON      NM   R$  000000000143500000000014470000000001417000000000143400000000014170000000001410000000000141800018000000000000001900000000000002725800000000000000009999123100000010000000000000BRVSTEACNOR5103
012024071202TOTS3       010TOTVS       ON      NM   R$  000000000297600000000029930000000002916000000000293900000000029280000000002928000000000293011366000000000002347500000000006899810700000000000000009999123100000010000000000000BRTOTSACNOR8144
012024071202TPIS3       010TRIUNFO PARTON      NM   R$  000000000038200000000003870000000000382000000000038400000000003850000000000384000000000038600036000000000000008200000000000003153900000000000000009999123100000010000000000000BRTPISACNOR8118
012024071202TRAD3       010TC          ON      NM   R$  000000000006000000000000620000000000057000000000005800000000000590000000000058000000000005900318000000000000937800000000000055217400000000000000009999123100000010000000000000BRTRADACNOR3101
012024071202TRIS3       010TRISUL      ON      NM   R$  000000000052800000000005360000000000519000000000052700000000005190000000000518000000000052101311000000000000422100000000000222635000000000000000009999123100000010000000000000BRTRISACNOR4118
012024071202TRPL3       010TRAN PAULISTON      N1   R$  000000000341100000000034110000000003340000000000335400000000033400000000003335000000000340000021000000000000002500000000000008386900000000000000009999123100000010000000000000BRTRPLACNOR4185
012024071202TRPL4       010TRAN PAULISTPN      N1   R$  000000000255000000000026260000000002550000000000258900000000025950000000002592000000000259522025000000000006663000000000017254318100000000000000009999123100000010000000000000BRTRPLACNPR1185
012024071202VITT3       010VITTIA      ON      NM   R$  000000000061600000000006460000000000608000000000063100000000006460000000000644000000000064601183000000000000445600000000000281571600000000000000009999123100000010000000000000BRVITTACNOR4107
012024071202FESA4       010FERBASA     PN      N1   R$  000000000089900000000009010000000000879000000000088500000000008900000000000890000000000089201216000000000000442900000000000392174300000000000000009999123100000010000000000000BRFESAACNPR5084
012024071202FHER3       010FER HERINGERON      NM   R$  000000000041200000000004120000000000395000000000039600000000004050000000000396000000000040600033000000000000009300000000000003691900000000000000009999123100000010000000000000BRFHERACNOR5103
012024071202FIQE3       010UNIFIQUE    ON      NM   R$  000000000034000000000003470000000000339000000000034100000000003390000000000339000000000034001108000000000000753300000000000257100200000000000000009999123100000010000000000000BRFIQEACNOR5107
012024071202FLRY3       010FLEURY      ON      NM   R$  000000000156100000000015610000000001543000000000155400000000015580000000001555000000000155904701000000000000979700000000001523408200000000000000009999123100000010000000000000BRFLRYACNOR5138
012024071202EVEN3       010EVEN        ON      NM   R$  000000000066900000000006690000000000635000000000064900000000006380000000000638000000000063902677000000000000750800000000000487622400000000000000009999123100000010000000000000BREVENACNOR8119
012024071202EZTC3       010EZTEC       ON      NM   R$  000000000145400000000014560000000001426000000000143500000000014310000000001430000000000143103165000000000001500800000000002154996100000000000000009999123100000010000000000000BREZTCACNOR0125
012024071202INEP3       010INEPAR      ON           R$  000000000020000000000002020000000000199000000000020000000000002010000000000200000000000020100060000000000000023100000000000004639300000000000000009999123100000010000000000000BRINEPACNOR1143
012024071202INEP4       010INEPAR      PN           R$  000000000019100000000001920000000000185000000000018600000000001850000000000185000000000019100051000000000000041800000000000007807000000000000000009999123100000010000000000000BRINEPACNPR8143
012024071202INTB3       010INTELBRAS   ON      NM   R$  000000000231600000000023160000000002272000000000228800000000022850000000002285000000000229003289000000000000694500000000001589504000000000000000009999123100000010000000000000BRINTBACNOR9111
012024071202IRBR3       010IRBBRASIL REON      NM   R$  000000000310300000000031620000000003085000000000313400000000031470000000003145000000000314903542000000000000809500000000002536973700000000000000009999123100000010000000000000BRIRBRACNOR4111
012024071202KRSA3       010KORA SAUDE  ON      NM   R$  000000000006700000000000670000000000065000000000006500000000000670000000000066000000000006700075000000000000185800000000000012247500000000000000009999123100000010000000000000BRKRSAACNOR0100
012024071202QUAL3       010QUALICORP   ON      NM   R$  000000000019000000000001900000000000183000000000018500000000001850000000000184000000000018502217000000000002663800000000000493989300000000000000009999123100000010000000000000BRQUALACNOR6120
012024071202SIMH3       010SIMPAR      ON      NM   R$  000000000070300000000007030000000000677000000000068700000000006770000000000676000000000067704126000000000002154100000000001480104300000000000000009999123100000010000000000000BRSIMHACNOR0107
012024071202SLCE3       010SLC AGRICOLAON      NM   R$  000000000191600000000019200000000001900000000000190600000000019110000000001900000000000191104336000000000001247600000000002378515600000000000000009999123100000010000000000000BRSLCEACNOR2125
012024071202VALE3       010VALE        ON      NM   R$  000000000620700000000062920000000006196000000000625700000000062920000000006290000000000629227131000000000013141700000000082235653100000000000000009999123100000010000000000000BRVALEACNOR0210
012024071202WEST3       010WESTWING    ON      NM   R$  000000000009500000000000950000000000090000000000009100000000000920000000000091000000000009200084000000000000051300000000000004702400000000000000009999123100000010000000000000BRWESTACNOR3100
012024071202WHRL3       010WHIRLPOOL   ON           R$  000000000045000000000004520000000000450000000000045000000000004520000000000444000000000045100003000000000000000500000000000000225300000000000000009999123100000010000000000000BRWHRLACNOR5128
012024071202WHRL4       010WHIRLPOOL   PN           R$  000000000045200000000004580000000000452000000000045700000000004580000000000453000000000045800012000000000000011700000000000005356300000000000000009999123100000010000000000000BRWHRLACNPR2128
012024071202WIZC3       010WIZ CO      ON      NM   R$  000000000059800000000006020000000000591000000000059500000000005990000000000593000000000059902038000000000000293700000000000174952700000000000000009999123100000010000000000000BRWIZCACNOR5102
012024071202WLMM4       010WLM IND COM PN           R$  000000000317900000000031800000000003175000000000317800000000031790000000002980000000000317700005000000000000000800000000000002543000000000000000009999123100000010000000000000BRWLMMACNPR3118
012024071202NEOE3       010NEOENERGIA  ON      NM   R$  000000000191100000000019200000000001901000000000191400000000019200000000001917000000000192002584000000000000501400000000000959784700000000000000009999123100000010000000000000BRNEOEACNOR3123
012024071202AVLL3       010ALPHAVILLE  ON      NM   R$  000000000033400000000003340000000000330000000000033000000000003300000000000320000000000033100003000000000000001800000000000000595000000000000000009999123100000010000000000000BRAVLLACNOR5103
012024071202AZEV3       010AZEVEDO     ON           R$  000000000016000000000001730000000000157000000000016600000000001690000000000169000000000017000673000000000000890700000000000148618800000000000000009999123100000010000000000000BRAZEVACNOR0121
012024071202AZEV4       010AZEVEDO     PN           R$  000000000015500000000001720000000000154000000000016300000000001700000000000169000000000017002844000000000006500300000000001065559000000000000000009999123100000010000000000000BRAZEVACNPR7121
012024071202AZUL4       010AZUL        PN      N2   R$  000000000087100000000008830000000000829000000000085700000000008830000000000882000000000088312309000000000012204800000000010460504300000000000000009999123100000010000000000000BRAZULACNPR4102
012024071202MNPR3       010MINUPAR     ON           R$  000000000137900000000013800000000001360000000000136300000000013700000000001300000000000137000004000000000000001300000000000001772900000000000000009999123100000010000000000000BRMNPRACNOR5122
012024071202MOVI3       010MOVIDA      ON      NM   R$  000000000069100000000007080000000000683000000000069200000000006850000000000684000000000068508488000000000003583200000000002482904700000000000000009999123100000010000000000000BRMOVIACNOR0122
012024071202AERI3       010AERIS       ON      NM   R$  000000000067500000000006900000000000665000000000067600000000006700000000000670000000000067400363000000000000094100000000000063691100000000000000009999123100000010000000000000BRAERIACNOR4102
012024071202AESB3       010AES BRASIL  ON      NM   R$  000000000114000000000011420000000001138000000000114000000000011420000000001140000000000114202831000000000003779500000000004312039900000000000000009999123100000010000000000000BRAESBACNOR7106
012024071202AFLT3       010AFLUENTE T  ON           R$  000000000072400000000007260000000000724000000000072500000000007260000000000718000000000075900003000000000000000400000000000000290000000000000000009999123100000010000000000000BRAFLTACNOR1122
012024071202AGRO3       010BRASILAGRO  ON      NM   R$  000000000270200000000027190000000002666000000000271100000000027190000000002716000000000271900986000000000000395000000000001071050500000000000000009999123100000010000000000000BRAGROACNOR7114
012024071202AGXY3       010AGROGALAXY  ON      NM   R$  000000000016300000000001670000000000157000000000016100000000001590000000000158000000000015900538000000000000398500000000000064345600000000000000009999123100000010000000000000BRAGXYACNOR4103
012024071202ALLD3       010ALLIED      ON      NM   R$  000000000076900000000007970000000000767000000000077900000000007920000000000786000000000079200293000000000000084200000000000065602700000000000000009999123100000010000000000000BRALLDACNOR3106
012024071202ALOS3       010ALLOS       ON      NM   R$  000000000219200000000022170000000002166000000000219700000000022100000000002207000000000221010819000000000004382200000000009627716300000000000000009999123100000010000000000000BRALOSACNOR5101
012024071202CEAB3       010CEA MODAS   ON      NM   R$  000000000110100000000011190000000001046000000000106500000000010540000000001050000000000105404587000000000002566400000000002735272900000000000000009999123100000010000000000000BRCEABACNOR1102
012024071202CEBR3       010CEB         ON           R$  000000000210500000000021100000000002050000000000209000000000020990000000002070000000000209900020000000000000002400000000000005016500000000000000009999123100000010000000000000BRCEBRACNOR5125
012024071202CEBR5       010CEB         PNA          R$  000000000183800000000018380000000001838000000000183800000000018380000000001812000000000183800001000000000000000100000000000000183800000000000000009999123100000010000000000000BRCEBRACNPA8124
012024071202LUPA3       010LUPATECH    ON      NM   R$  000000000016900000000001700000000000167000000000016800000000001700000000000168000000000017000108000000000000089100000000000015031300000000000000009999123100000010000000000000BRLUPAACNOR8112
012024071202LVTC3       010WDC NETWORKSON      NM   R$  000000000036700000000003790000000000367000000000037200000000003710000000000370000000000037900016000000000000002500000000000000932000000000000000009999123100000010000000000000BRLVTCACNOR4102
012024071202LWSA3       010LWSA        ON      NM   R$  000000000047000000000004750000000000454000000000046100000000004590000000000457000000000045906035000000000004603600000000002126584500000000000000009999123100000010000000000000BRLWSAACNOR8103
012024071202ODPV3       010ODONTOPREV  ON      NM   R$  000000000119000000000012090000000001181000000000119800000000012000000000001193000000000120206202000000000001159800000000001390225400000000000000009999123100000010000000000000BRODPVACNOR4202
012024071202BGIP4       010BANESE      PN           R$  000000000226700000000022670000000002239000000000224100000000022410000000002241000000000230000009000000000000001800000000000004035300000000000000009999123100000010000000000000BRBGIPACNPR8208
012024071202BHIA3       010CASAS BAHIA ON      NM   R$  000000000057900000000005820000000000568000000000057400000000005730000000000573000000000057402474000000000002225000000000001278498400000000000000009999123100000010000000000000BRBHIAACNOR1102
012024071202BRBI11      010BR PARTNERS UNT     N2   R$  000000000144800000000014800000000001443000000000146900000000014750000000001466000000000147501326000000000000371600000000000545967600000000000000009999123100000010000000000000BRBRBICDAM10109
012024071202BRFS3       010BRF SA      ON      NM   R$  000000000220000000000022630000000002194000000000224100000000022460000000002246000000000224811243000000000004560000000000010221140100000000000000009999123100000010000000000000BRBRFSACNOR8122
012024071202CSED3       010CRUZEIRO EDUON      NM   R$  000000000041200000000004250000000000412000000000041900000000004160000000000416000000000041800866000000000000275000000000000115450800000000000000009999123100000010000000000000BRCSEDACNOR9104
012024071202CSMG3       010COPASA      ON      NM   R$  000000000206800000000020720000000002054000000000206300000000020660000000002059000000000206802631000000000000641000000000001322827900000000000000009999123100000010000000000000BRCSMGACNOR5174
012024071202CSNA3       010SID NACIONALON           R$  000000000131200000000013350000000001305000000000132700000000013350000000001333000000000133508477000000000004662600000000006188025000000000000000009999123100000010000000000000BRCSNAACNOR6261
012024071202EQPA3       010EQTL PARA   ON           R$  000000000071500000000007180000000000715000000000071700000000007180000000000716000000000071700007000000000000001300000000000000932300000000000000009999123100000010000000000000BREQPAACNOR1111
012024071202EQTL3       010EQUATORIAL  ON      NM   R$  000000000339100000000034380000000003374000000000340800000000034160000000003414000000000342111436000000000005330100000000018165121000000000000000009999123100000010000000000000BREQTLACNOR0130
012024071202ESPA3       010ESPACOLASER ON      NM   R$  000000000010600000000001080000000000105000000000010600000000001080000000000107000000000010800344000000000000341000000000000036289800000000000000009999123100000010000000000000BRESPAACNOR7103
012024071202EUCA3       010EUCATEX     ON      N1   R$  000000000164100000000016420000000001629000000000163000000000016290000000001627000000000162900014000000000000001800000000000002934700000000000000009999123100000010000000000000BREUCAACNOR1157
012024071202EUCA4       010EUCATEX     PN      N1   R$  000000000161400000000016370000000001599000000000161700000000016350000000001635000000000163600135000000000000019700000000000031862400000000000000009999123100000010000000000000BREUCAACNPR8044
012024071202VIVA3       010VIVARA S.A. ON      NM   R$  000000000229800000000023210000000002260000000000229900000000023140000000002313000000000231808224000000000002836200000000006520961200000000000000009999123100000010000000000000BRVIVAACNOR0107
012024071202VIVR3       010VIVER       ON      NM   R$  000000000025400000000002600000000000252000000000025500000000002600000000000257000000000026000100000000000000074900000000000019135700000000000000009999123100000010000000000000BRVIVRACNOR4123
012024071202VIVT3       010TELEF BRASILON           R$  000000000488000000000049790000000004879000000000495500000000049470000000004945000000000495012053000000000002657300000000013169392500000000000000009999123100000010000000000000BRVIVTACNOR0182
012024071202BEEF3       010MINERVA     ON      NM   R$  000000000068600000000006870000000000678000000000068200000000006820000000000681000000000068204582000000000002646700000000001806238700000000000000009999123100000010000000000000BRBEEFACNOR6116
012024071202BPAN4       010BANCO PAN   PN      N1   R$  000000000085800000000008610000000000850000000000085500000000008550000000000852000000000085502668000000000000997400000000000853197100000000000000009999123100000010000000000000BRBPANACNPR1115
012024071202BRAP3       010BRADESPAR   ON      N1   R$  000000000185900000000018610000000001839000000000184700000000018490000000001849000000000185300850000000000000101400000000000187294500000000000000009999123100000010000000000000BRBRAPACNOR5148
012024071202BRAP4       010BRADESPAR   PN      N1   R$  000000000191200000000019240000000001904000000000191500000000019240000000001922000000000192406289000000000001929100000000003694648500000000000000009999123100000010000000000000BRBRAPACNPR2148
012024071202CRFB3       010CARREFOUR BRON      NM   R$  000000000107400000000010860000000001064000000000107400000000010670000000001066000000000106911222000000000005739600000000006165805700000000000000009999123100000010000000000000BRCRFBACNOR2116
012024071202EQMA3B      010EQTLMARANHAOON      MB   R$  000000000256100000000025610000000002550000000000255100000000025500000000002540000000000255000008000000000000003000000000000007654200000000000000009999123100000010000000000000BREQMAACNOR8108
012024071202IFCM3       010INFRACOMM   ON      NM   R$  000000000004300000000000440000000000041000000000004200000000000420000000000042000000000004302724000000000005227900000000000221197000000000000000009999123100000010000000000000BRIFCMACNOR8101
012024071202IGTI11      010IGUATEMI S.AUNT     N1   R$  000000000219000000000021970000000002165000000000218200000000021970000000002181000000000219705457000000000001229500000000002683562400000000000000009999123100000010000000000000BRIGTICDAM16106
012024071202IGTI3       010IGUATEMI S.AON      N1   R$  000000000027000000000002720000000000269000000000027000000000002720000000000271000000000027200049000000000000012400000000000003355100000000000000009999123100000010000000000000BRIGTIACNOR8106
012024071202VTRU3       010VITRUEDUCA  ON      NM   R$  000000000137400000000014080000000001372000000000139000000000014050000000001375000000000140500343000000000000043100000000000059929600000000000000009999123100000010000000000000BRVTRUACNOR3100
012024071202VULC3       010VULCABRAS   ON      NM   R$  000000000157100000000015710000000001540000000000155300000000015530000000001550000000000155302170000000000000453500000000000704424800000000000000009999123100000010000000000000BRVULCACNOR2159
012024071202VVEO3       010VIVEO       ON      NM   R$  000000000028100000000002860000000000263000000000027100000000002630000000000263000000000026404642000000000002879300000000000780821900000000000000009999123100000010000000000000BRVVEOACNOR0104
012024071202MELK3       010MELNICK     ON      NM   R$  000000000037800000000003780000000000365000000000036900000000003760000000000368000000000037600634000000000000327000000000000120683800000000000000009999123100000010000000000000BRMELKACNOR8111
012024071202MERC4       010MERC FINANC PN           R$  000000000090000000000009000000000000900000000000090000000000009000000000000900000000000094300001000000000000000100000000000000090000000000000000009999123100000010000000000000BRMERCACNPR9180
012024071202MGEL4       010MANGELS INDLPN           R$  000000000132500000000013250000000001325000000000132500000000013250000000001314000000000132500003000000000000000300000000000000397500000000000000009999123100000010000000000000BRMGELACNPR3147
012024071202MGLU3       010MAGAZ LUIZA ON      NM   R$  000000000137100000000013940000000001354000000000137600000000013870000000001385000000000138717350000000000014197100000000019547452200000000000000009999123100000010000000000000BRMGLUACNOR2124
012024071202PDGR3       010PDG REALT   ON      NM   R$  000000000002300000000000250000000000020000000000002100000000000200000000000019000000000002001236000000000013844300000000000302063100000000000000009999123100000010000000000000BRPDGRACNOR8118
012024071202PDTC3       010PADTEC      ON      NM   R$  000000000019900000000001990000000000195000000000019500000000001950000000000195000000000019600059000000000000027800000000000005438400000000000000009999123100000010000000000000BRPDTCACNOR3101
012024071202PETR3       010PETROBRAS   ON      N2   R$  000000000412000000000041280000000004086000000000409800000000040880000000004088000000000409009570000000000004707000000000019291031900000000000000009999123100000010000000000000BRPETRACNOR9205
012024071202OFSA3       010OUROFINO S/AON      NM   R$  000000000188800000000018880000000001888000000000188800000000018880000000001866000000000192900002000000000000000300000000000000566400000000000000009999123100000010000000000000BROFSAACNOR7118
012024071202ONCO3       010ONCOCLINICASON      NM   R$  000000000074600000000007540000000000718000000000073100000000007350000000000735000000000073804553000000000003434600000000002511769700000000000000009999123100000010000000000000BRONCOACNOR6101
012024071202OPCT3       010OCEANPACT   ON      NM   R$  000000000068100000000006820000000000672000000000067600000000006750000000000675000000000068101453000000000000570400000000000385749300000000000000009999123100000010000000000000BROPCTACNOR0100
012024071202ORVR3       010ORIZON      ON      NM   R$  000000000423000000000042300000000004143000000000419100000000042020000000004184000000000420301909000000000000294000000000001232159700000000000000009999123100000010000000000000BRORVRACNOR0101
012024071202PETR4       010PETROBRAS   PN      N2   R$  000000000384300000000038510000000003814000000000382800000000038150000000003815000000000381730893000000000015779100000000060404673700000000000000009999123100000010000000000000BRPETRACNPR6213
012024071202PETZ3       010PETZ        ON      NM   R$  000000000040100000000004150000000000400000000000040800000000004100000000000409000000000041007089000000000004708100000000001924240000000000000000009999123100000010000000000000BRPETZACNOR2110
012024071202ROMI3       010ROMI        ON      NM   R$  000000000112000000000011220000000001100000000000110900000000011000000000001100000000000110701129000000000000218000000000000241954600000000000000009999123100000010000000000000BRROMIACNOR8195
012024071202NTCO3       010GRUPO NATURAON      NM   R$  000000000159200000000016200000000001584000000000159700000000015950000000001594000000000159809455000000000006676400000000010667407200000000000000009999123100000010000000000000BRNTCOACNOR5106
012024071202RECV3       010PETRORECSA  ON      NM   R$  000000000209700000000021100000000002075000000000209700000000021000000000002100000000000210302867000000000000980600000000002056506500000000000000009999123100000010000000000000BRRECVACNOR3107
012024071202REDE3       010REDE ENERGIAON  ED       R$  000000000069400000000006990000000000694000000000069600000000006990000000000698000000000069900009000000000000001200000000000000835700000000000000009999123100000010000000000000BRREDEACNOR7128
012024071202RENT3       010LOCALIZA    ON      NM   R$  000000000467500000000047270000000004642000000000469300000000046700000000004670000000000467330555000000000012341200000000057918434100000000000000009999123100000010000000000000BRRENTACNOR4196
012024071202WEGE3       010WEG         ON      NM   R$  000000000449600000000046460000000004495000000000459200000000045880000000004586000000000458822194000000000008072900000000037073310100000000000000009999123100000010000000000000BRWEGEACNOR0223
012024071202PFRM3       010PROFARMA    ON      NM   R$  000000000055800000000005620000000000544000000000055000000000005440000000000543000000000054500560000000000000153300000000000084440100000000000000009999123100000010000000000000BRPFRMACNOR1116
012024071202PGMN3       010PAGUE MENOS ON      NM   R$  000000000028900000000002910000000000276000000000028000000000002780000000000278000000000028001784000000000000933700000000000261581400000000000000009999123100000010000000000000BRPGMNACNOR8103
012024071202PINE3       010PINE        ON  EJ  N2   R$  000000000056900000000005880000000000569000000000057400000000005880000000000550000000000058700003000000000000000400000000000000229700000000000000009999123100000010000000000000BRPINEACNOR1150
012024071202PINE4       010PINE        PN  EJ  N2   R$  000000000043700000000004370000000000430000000000043100000000004320000000000430000000000043200212000000000000094700000000000040877000000000000000009999123100000010000000000000BRPINEACNPR8150
012024071202PLPL3       010PLANOEPLANO ON      NM   R$  000000000105100000000010820000000001034000000000105500000000010340000000001034000000000104402464000000000001090900000000001151005400000000000000009999123100000010000000000000BRPLPLACNOR5104
012024071202PNVL3       010DIMED       ON      NM   R$  000000000103000000000010420000000001020000000000103200000000010240000000001024000000000102804018000000000000554000000000000571824800000000000000009999123100000010000000000000BRPNVLACNOR9207
012024071202POMO3       010MARCOPOLO   ON      N2   R$  000000000051400000000005170000000000507000000000051100000000005170000000000515000000000051700692000000000000114700000000000058724000000000000000009999123100000010000000000000BRPOMOACNOR0098
012024071202POMO4       010MARCOPOLO   PN      N2   R$  000000000065700000000006610000000000649000000000065200000000006540000000000654000000000065810935000000000008961500000000005850959400000000000000009999123100000010000000000000BRPOMOACNPR7098
012024071202SYNE3       010SYN PROP TECON      NM   R$  000000000103000000000010400000000000996000000000101500000000009960000000000996000000000100000867000000000000245000000000000248877200000000000000009999123100000010000000000000BRSYNEACNOR2102
012024071202TAEE11      010TAESA       UNT     N2   R$  000000000352000000000035380000000003506000000000351900000000035270000000003522000000000352804039000000000001072000000000003772699700000000000000009999123100000010000000000000BRTAEECDAM10147
012024071202TAEE3       010TAESA       ON      N2   R$  000000000116400000000011700000000001159000000000116400000000011640000000001164000000000116800333000000000000065800000000000076604300000000000000009999123100000010000000000000BRTAEEACNOR9147
012024071202TAEE4       010TAESA       PN      N2   R$  000000000118200000000011830000000001175000000000117900000000011830000000001181000000000118400531000000000000122500000000000144433100000000000000009999123100000010000000000000BRTAEEACNPR6147
012024071202TASA3       010TAURUS ARMASON      N2   R$  000000000127200000000012750000000001247000000000126400000000012710000000001270000000000128300033000000000000003900000000000004932300000000000000009999123100000010000000000000BRTASAACNOR7104
012024071202TASA4       010TAURUS ARMASPN      N2   R$  000000000127000000000012700000000001253000000000125700000000012530000000001253000000000126001664000000000000287900000000000361896700000000000000009999123100000010000000000000BRTASAACNPR4104
012024071202VAMO3       010VAMOS       ON      NM   R$  000000000093900000000009390000000000906000000000091500000000009150000000000913000000000091513631000000000009959600000000009115998300000000000000009999123100000010000000000000BRVAMOACNOR7105
012024071202VBBR3       010VIBRA       ON      NM   R$  000000000230300000000023050000000002269000000000227800000000022750000000002275000000000228513913000000000004926200000000011224623200000000000000009999123100000010000000000000BRVBBRACNOR1108
012024071202NGRD3       010NEOGRID     ON      NM   R$  000000000009800000000001030000000000097000000000009900000000000990000000000098000000000009901113000000000001344800000000000133705800000000000000009999123100000010000000000000BRNGRDACNOR3104
012024071202NINJ3       010GETNINJAS   ON      NM   R$  000000000046200000000004740000000000452000000000046500000000004520000000000451000000000045900106000000000000014900000000000006929200000000000000009999123100000010000000000000BRNINJACNOR5101
012024071202NORD3       010NORDON MET  ON           R$  000000000062100000000006210000000000590000000000061200000000005900000000000571000000000059000003000000000000000700000000000000428500000000000000009999123100000010000000000000BRNORDACNOR7135
012024071202ZAMP3       010ZAMP S.A.   ON           R$  000000000035200000000003590000000000350000000000035200000000003500000000000350000000000035300734000000000000238300000000000083899900000000000000009999123100000010000000000000BRZAMPACNOR5100
012024071202PTBL3       010PORTOBELLO  ON      NM   R$  000000000051300000000005170000000000500000000000050800000000005080000000000504000000000050801002000000000000378800000000000192721900000000000000009999123100000010000000000000BRPTBLACNOR8132
012024071202PTNT3       010PETTENATI   ON           R$  000000000096700000000009670000000000967000000000096700000000009670000000000947000000000096700001000000000000000100000000000000096700000000000000009999123100000010000000000000BRPTNTACNOR6042
012024071202PTNT4       010PETTENATI   PN           R$  000000000062000000000006340000000000620000000000062700000000006270000000000624000000000062800012000000000000002300000000000001443600000000000000009999123100000010000000000000BRPTNTACNPR3047
012024071202MTRE3       010MITRE REALTYON      NM   R$  000000000044800000000004520000000000436000000000044200000000004380000000000437000000000043802270000000000000847400000000000375171900000000000000009999123100000010000000000000BRMTREACNOR6112
012024071202MTSA4       010METISA      PN           R$  000000000448000000000044800000000004480000000000448000000000044800000000004412000000000448400001000000000000000100000000000000448000000000000000009999123100000010000000000000BRMTSAACNPR9072
012024071202MULT3       010MULTIPLAN   ON      N2   R$  000000000246600000000024870000000002439000000000246300000000024690000000002468000000000247120814000000000008308300000000020464699500000000000000009999123100000010000000000000BRMULTACNOR5139
012024071202RANI3       010IRANI       ON      NM   R$  000000000088100000000008850000000000871000000000087600000000008720000000000872000000000087602383000000000000821900000000000720616600000000000000009999123100000010000000000000BRRANIACNOR5072
012024071202RAPT3       010RANDON PART ON      N1   R$  000000000102100000000010400000000001018000000000102600000000010400000000001020000000000104000137000000000000050700000000000052040100000000000000009999123100000010000000000000BRRAPTACNOR7162
012024071202RAPT4       010RANDON PART PN      N1   R$  000000000121900000000012390000000001201000000000122500000000012280000000001227000000000123106883000000000001703500000000002087440800000000000000009999123100000010000000000000BRRAPTACNPR4162
012024071202RCSL3       010RECRUSUL    ON           R$  000000000030000000000003030000000000295000000000029900000000003010000000000295000000000030100123000000000000072700000000000021762400000000000000009999123100000010000000000000BRRCSLACNOR4134
012024071202RCSL4       010RECRUSUL    PN           R$  000000000011800000000001180000000000114000000000011500000000001160000000000115000000000011600381000000000000534000000000000061709800000000000000009999123100000010000000000000BRRCSLACNPR1134
012024071202RDNI3       010RNI         ON      NM   R$  000000000031100000000003190000000000311000000000031500000000003120000000000312000000000031700008000000000000001000000000000000315100000000000000009999123100000010000000000000BRRDNIACNOR9116
012024071202RDOR3       010REDE D OR   ON      NM   R$  000000000285600000000029190000000002837000000000289800000000028940000000002893000000000289817331000000000005394600000000015635203100000000000000009999123100000010000000000000BRRDORACNOR8113
012024071202SRNA3       010SERENA      ON      NM   R$  000000000093100000000009450000000000920000000000093300000000009370000000000936000000000093804518000000000002079400000000001940729500000000000000009999123100000010000000000000BRSRNAACNOR4100
012024071202STBP3       010SANTOS BRP  ON      NM   R$  000000000146700000000015290000000001461000000000149700000000014880000000001487000000000148923669000000000010504000000000015733032800000000000000009999123100000010000000000000BRSTBPACNOR3130
012024071202SUZB3       010SUZANO S.A. ON      NM   R$  000000000530500000000053560000000005204000000000524600000000052300000000005230000000000523420749000000000006791700000000035634490900000000000000009999123100000010000000000000BRSUZBACNOR0130
012024071202RAIL3       010RUMO S.A.   ON      NM   R$  000000000231000000000023380000000002278000000000229300000000022780000000002278000000000227923829000000000010747500000000024649210300000000000000009999123100000010000000000000BRRAILACNOR9105
012024071202RAIZ4       010RAIZEN      PN      N2   R$  000000000031100000000003130000000000306000000000030900000000003080000000000308000000000030915041000000000012600200000000003898490800000000000000009999123100000010000000000000BRRAIZACNPR6110
012024071202SMFT3       010SMART FIT   ON      NM   R$  000000000230600000000023240000000002288000000000230000000000022970000000002297000000000230804717000000000001388000000000003193214000000000000000009999123100000010000000000000BRSMFTACNOR1112
012024071202SMTO3       010SAO MARTINHOON      NM   R$  000000000321200000000032570000000003190000000000321600000000032460000000003246000000000325505537000000000001778200000000005719559800000000000000009999123100000010000000000000BRSMTOACNOR3126
012024071202EPAR3       010EMBPAR S/A  ON           R$  000000000062900000000006300000000000628000000000062900000000006300000000000627000000000063000018000000000000008900000000000005606500000000000000009999123100000010000000000000BREPARACNOR9105
012024071202ENMT4       010ENERGISA MT PN  ED       R$  000000000700100000000078990000000007001000000000765500000000078990000000007355000000000799900019000000000000002000000000000015311500000000000000009999123100000010000000000000BRENMTACNPR2126
012024071202ENMT3       010ENERGISA MT ON  ED       R$  000000000850000000000085000000000008500000000000850000000000085000000000000000000000000860000001000000000000000100000000000000850000000000000000009999123100000010000000000000BRENMTACNOR5121
012024071202ENJU3       010ENJOEI      ON      NM   R$  000000000021700000000002300000000000217000000000022400000000002240000000000222000000000022400625000000000000869400000000000194868000000000000000009999123100000010000000000000BRENJUACNOR9100
012024071202ENGI4       010ENERGISA    PN      N2   R$  000000000081900000000008370000000000801000000000082600000000008370000000000830000000000083700037000000000000006400000000000005288100000000000000009999123100000010000000000000BRENGIACNPR7141
012024071202ENGI3       010ENERGISA    ON      N2   R$  000000000152000000000015410000000001484000000000150800000000014840000000001483000000000151500049000000000000006400000000000009655000000000000000009999123100000010000000000000BRENGIACNOR0145
012024071202ENGI11      010ENERGISA    UNT     N2   R$  000000000479900000000048620000000004761000000000483600000000048500000000004842000000000485006495000000000001290200000000006240565700000000000000009999123100000010000000000000BRENGICDAM16135
012024071202ENEV3       010ENEVA       ON      NM   R$  000000000133000000000013420000000001321000000000133500000000013390000000001337000000000133907361000000000002173000000000002902519400000000000000009999123100000010000000000000BRENEVACNOR8106
012024071202ENAT3       010ENAUTA PART ON      NM   R$  000000000225700000000022600000000002205000000000221900000000022220000000002210000000000222304436000000000001020900000000002265449600000000000000009999123100000010000000000000BRENATACNOR0104
012024071202CSAN3       010COSAN       ON      NM   R$  000000000143100000000014350000000001410000000000142100000000014280000000001428000000000143212431000000000008700900000000012371614900000000000000009999123100000010000000000000BRCSANACNOR6126
012024071202CRPG6       010CRISTAL     PNB          R$  000000000294900000000029490000000002900000000000290800000000029000000000002900000000000294900007000000000000000700000000000002036200000000000000009999123100000010000000000000BRCRPGACNPB1119
012024071202CRPG5       010CRISTAL     PNA          R$  000000000293000000000029400000000002930000000000293700000000029400000000002924000000000293900008000000000000001400000000000004112500000000000000009999123100000010000000000000BRCRPGACNPA3119
012024071202B3SA3       010B3          ON      NM   R$  000000000110500000000011520000000001103000000000114000000000011510000000001150000000000115172618000000000069549900000000079313358800000000000000009999123100000010000000000000BRB3SAACNOR6133
012024071202PCAR3       010P.ACUCAR-CBDON      NM   R$  000000000033000000000003450000000000329000000000033600000000003360000000000335000000000033610865000000000022767000000000007658465300000000000000009999123100000010000000000000BRPCARACNOR3167
012024071202PATI3       010PANATLANTICAON           R$  000000000251500000000025150000000002500000000000250700000000025000000000002207000000000259900002000000000000000400000000000001003000000000000000009999123100000010000000000000BRPATIACNOR6065
012024071202TUPY3       010TUPY        ON      NM   R$  000000000252400000000025720000000002517000000000255300000000025570000000002556000000000256003917000000000001307400000000003337862700000000000000009999123100000010000000000000BRTUPYACNOR1184
012024071202TTEN3       0103TENTOS     ON      NM   R$  000000000105700000000010700000000001045000000000106200000000010700000000001061000000000107004348000000000000710500000000000754803100000000000000009999123100000010000000000000BRTTENACNOR0103
012024071202SAPR4       010SANEPAR     PN      N2   R$  000000000054600000000005490000000000543000000000054500000000005460000000000545000000000054602246000000000000896000000000000488997700000000000000009999123100000010000000000000BRSAPRACNPR6159
012024071202SAPR3       010SANEPAR     ON      N2   R$  000000000051500000000005150000000000508000000000051100000000005090000000000509000000000051000483000000000000125600000000000064258800000000000000009999123100000010000000000000BRSAPRACNOR9159
012024071202SAPR11      010SANEPAR     UNT     N2   R$  000000000268900000000026960000000002666000000000268000000000026820000000002669000000000268302008000000000000419300000000001123900800000000000000009999123100000010000000000000BRSAPRCDAM13118
012024071202SANB4       010SANTANDER BRPN           R$  000000000149300000000015030000000001489000000000149300000000014930000000001491000000000149300536000000000000089800000000000134119800000000000000009999123100000010000000000000BRSANBACNPR5171
012024071202SANB3       010SANTANDER BRON           R$  000000000136000000000013650000000001344000000000135400000000013480000000001348000000000135800575000000000000083300000000000112802400000000000000009999123100000010000000000000BRSANBACNOR8171
012024071202SANB11      010SANTANDER BRUNT          R$  000000000286400000000028650000000002836000000000284500000000028410000000002841000000000285303295000000000001059800000000003015757800000000000000009999123100000010000000000000BRSANBCDAM13164
012024071202EMBR3       010EMBRAER     ON      NM   R$  000000000403800000000041180000000003996000000000404900000000040250000000004008000000000402615995000000000004814600000000019496666800000000000000009999123100000010000000000000BREMBRACNOR4191
012024071202EMAE4       010EMAE        PN           R$  000000000500000000000050000000000004850000000000493200000000049680000000004767000000000513000009000000000000002400000000000011837800000000000000009999123100000010000000000000BREMAEACNPR1125
012024071202ELMD3       010ELETROMIDIA ON      NM   R$  000000000183200000000018690000000001824000000000184100000000018450000000001827000000000184500310000000000000041700000000000076810900000000000000009999123100000010000000000000BRELMDACNOR3101
012024071202CPLE6       010COPEL       PNB     N2   R$  000000000102300000000010320000000001018000000000102400000000010230000000001021000000000102313733000000000012358700000000012662321000000000000000009999123100000010000000000000BRCPLEACNPB9146
012024071202CPLE3       010COPEL       ON      N2   R$  000000000090600000000009140000000000900000000000090900000000009100000000000909000000000091108508000000000004676600000000004251939300000000000000009999123100000010000000000000BRCPLEACNOR8149
012024071202CPFE3       010CPFL ENERGIAON      NM   R$  000000000338500000000033930000000003359000000000338000000000033790000000003378000000000338103525000000000000917800000000003102516900000000000000009999123100000010000000000000BRCPFEACNOR0137
012024071202BPAC5       010BTGP BANCO  PNA EJ  N2   R$  000000000081700000000008480000000000817000000000083000000000008480000000000826000000000084600025000000000000003800000000000003157400000000000000009999123100000010000000000000BRBPACACNPA0134
012024071202BPAC3       010BTGP BANCO  ON  EJ  N2   R$  000000000153000000000015860000000001530000000000156200000000015560000000001556000000000158400029000000000000004600000000000007189100000000000000009999123100000010000000000000BRBPACACNOR7134
012024071202BPAC11      010BTGP BANCO  UNT EJ  N2   R$  000000000317900000000032520000000003164000000000323200000000032520000000003240000000000325214918000000000005502700000000017788626400000000000000009999123100000010000000000000BRBPACUNT006119
012024071202BBSE3       010BBSEGURIDADEON      NM   R$  000000000335900000000033990000000003355000000000338500000000033960000000003396000000000339709341000000000003674000000000012437048600000000000000009999123100000010000000000000BRBBSEACNOR5124
012024071202MYPK3       010IOCHP-MAXIONON      NM   R$  000000000115800000000011920000000001156000000000118100000000011840000000001184000000000118503870000000000000862800000000001019386200000000000000009999123100000010000000000000BRMYPKACNOR7155
012024071202LREN3       010LOJAS RENNERON      NM   R$  000000000137000000000013780000000001348000000000135700000000013550000000001354000000000135514490000000000010914500000000014813706700000000000000009999123100000010000000000000BRLRENACNOR1221
012024071202LPSB3       010LOPES BRASILON      NM   R$  000000000019100000000001970000000000191000000000019400000000001960000000000196000000000019700199000000000000145500000000000028335400000000000000009999123100000010000000000000BRLPSBACNOR0114
012024071202LOGN3       010LOG-IN      ON      NM   R$  000000000417100000000042370000000004155000000000418700000000041690000000004141000000000418800121000000000000014000000000000058631500000000000000009999123100000010000000000000BRLOGNACNOR3105
012024071202LOGG3       010LOG COM PROPON      NM   R$  000000000238000000000024000000000002325000000000236200000000023390000000002321000000000234000866000000000000116500000000000275189800000000000000009999123100000010000000000000BRLOGGACNOR7107
012024071202LJQQ3       010QUERO-QUERO ON      NM   R$  000000000044500000000004550000000000440000000000044600000000004440000000000444000000000044605425000000000003226600000000001439864900000000000000009999123100000010000000000000BRLJQQACNOR5104
012024071202SHUL4       010SCHULZ      PN           R$  000000000065100000000006560000000000648000000000065100000000006510000000000651000000000065400711000000000000402300000000000262034100000000000000009999123100000010000000000000BRSHULACNPR4156
012024071202SHOW3       010TIME FOR FUNON      NM   R$  000000000017200000000001730000000000168000000000016900000000001700000000000168000000000017000177000000000000091200000000000015492500000000000000009999123100000010000000000000BRSHOWACNOR7105
012024071202SEQL3       010SEQUOIA LOG ON      NM   R$  000000000045900000000004680000000000455000000000046100000000004640000000000463000000000046400227000000000000110200000000000050846400000000000000009999123100000010000000000000BRSEQLACNOR2103
012024071202SEER3       010SER EDUCA   ON      NM   R$  000000000054200000000005590000000000540000000000055200000000005540000000000549000000000055401197000000000000392800000000000217135800000000000000009999123100000010000000000000BRSEERACNOR5119
012024071202SCAR3       010SAO CARLOS  ON      NM   R$  000000000229900000000022990000000002272000000000228700000000022720000000002271000000000231300005000000000000000500000000000001143800000000000000009999123100000010000000000000BRSCARACNOR7131
012024071202RADL3       010RAIADROGASILON  EJ  NM   R$  000000000253600000000025900000000002531000000000256600000000025760000000002575000000000258008337000000000003513800000000009017327700000000000000009999123100000010000000000000BRRADLACNOR0157
012024071202LEVE3       010METAL LEVE  ON      NM   R$  000000000337000000000034260000000003365000000000340300000000034200000000003420000000000342502187000000000000365300000000001243133800000000000000009999123100000010000000000000BRLEVEACNOR2197
012024071202LAVV3       010LAVVI       ON      NM   R$  000000000094100000000009510000000000940000000000094500000000009410000000000941000000000094501362000000000000343700000000000324801400000000000000009999123100000010000000000000BRLAVVACNOR4112
012024071202LAND3       010TERRASANTAPAON      NM   R$  000000000142500000000014740000000001422000000000144700000000014230000000001423000000000144500287000000000000196200000000000284025900000000000000009999123100000010000000000000BRLANDACNOR9103
012024071202CYRE3       010CYRELA REALTON      NM   R$  000000000209800000000021110000000002028000000000204700000000020280000000002028000000000203614429000000000006548700000000013409136400000000000000009999123100000010000000000000BRCYREACNOR7140
012024071202CCRO3       010CCR SA      ON      NM   R$  000000000129500000000013040000000001286000000000129500000000012990000000001297000000000130009726000000000004323200000000005602430800000000000000009999123100000010000000000000BRCCROACNOR2145
012024071202CBAV3       010CBA         ON      NM   R$  000000000075400000000007560000000000738000000000074300000000007400000000000739000000000074007125000000000002469600000000001836805500000000000000009999123100000010000000000000BRCBAVACNOR5104
012024071202CASH3       010MELIUZ      ON      NM   R$  000000000061700000000006180000000000606000000000061200000000006090000000000608000000000060902315000000000000704400000000000431515900000000000000009999123100000010000000000000BRCASHACNOR8106
012024071202CAML3       010CAMIL       ON      NM   R$  000000000087500000000009410000000000874000000000092000000000009240000000000924000000000092804655000000000001904500000000001753651000000000000000009999123100000010000000000000BRCAMLACNOR3128
012024071202CAMB3       010CAMBUCI     ON           R$  000000000110000000000011260000000001100000000000111200000000011260000000001105000000000112600175000000000000037800000000000042063700000000000000009999123100000010000000000000BRCAMBACNOR4130
012024071202BRSR6       010BANRISUL    PNB     N1   R$  000000000119300000000011960000000001170000000000117700000000011800000000001175000000000118102752000000000000751300000000000884696700000000000000009999123100000010000000000000BRBRSRACNPB4191
012024071202BRSR3       010BANRISUL    ON      N1   R$  000000000125500000000012550000000001249000000000125200000000012490000000001242000000000124800013000000000000001800000000000002254300000000000000009999123100000010000000000000BRBRSRACNOR3188
012024071202BOBR4       010BOMBRIL     PN           R$  000000000020500000000002120000000000204000000000020800000000002060000000000205000000000020600048000000000000050100000000000010426400000000000000009999123100000010000000000000BRBOBRACNPR3128
012024071202ABEV3       010AMBEV S/A   ON  ATZ      R$  000000000115100000000011660000000001151000000000116000000000011640000000001159000000000116519055000000000016859800000000019560697700000000000000009999123100000010000000000000BRABEVACNOR1128
012024071202ABCB4       010ABC BRASIL  PN      N2   R$  000000000229500000000023260000000002275000000000231000000000023200000000002313000000000232202984000000000000528100000000001220323400000000000000009999123100000010000000000000BRABCBACNPR4146
012024071202AALR3       010ALLIAR      ON      NM   R$  000000000170800000000017320000000001385000000000152100000000013850000000001384000000000138500691000000000000196700000000000299252100000000000000009999123100000010000000000000BRAALRACNOR6102
012024071202GOAU4       010GERDAU MET  PN      N1   R$  000000000106900000000010780000000001062000000000107100000000010730000000001072000000000107407925000000000003457100000000003702936800000000000000009999123100000010000000000000BRGOAUACNPR8268
012024071202GOAU3       010GERDAU MET  ON      N1   R$  000000000107400000000010850000000001072000000000107900000000010850000000001080000000000108500131000000000000025200000000000027191000000000000000009999123100000010000000000000BRGOAUACNOR1267
012024071202GMAT3       010GRUPO MATEUSON      NM   R$  000000000072500000000007380000000000716000000000072900000000007290000000000728000000000072904439000000000002685400000000001959522200000000000000009999123100000010000000000000BRGMATACNOR7102
012024071202GGPS3       010GPS         ON      NM   R$  000000000171300000000017720000000001695000000000172300000000017610000000001761000000000176907029000000000010069500000000017354025600000000000000009999123100000010000000000000BRGGPSACNOR9103
012024071202ECOR3       010ECORODOVIAS ON      NM   R$  000000000075300000000007570000000000734000000000074200000000007440000000000737000000000074404951000000000002770500000000002056414500000000000000009999123100000010000000000000BRECORACNOR8120
012024071202EALT4       010ACO ALTONA  PN           R$  000000000112600000000011300000000001116000000000112500000000011280000000001123000000000112800023000000000000005100000000000005739800000000000000009999123100000010000000000000BREALTACNPR1138
012024071202HYPE3       010HYPERA      ON      NM   R$  000000000286600000000029470000000002830000000000291000000000029470000000002927000000000294708233000000000002026600000000005897933500000000000000009999123100000010000000000000BRHYPEACNOR0142
012024071202AURE3       010AUREN       ON      NM   R$  000000000125000000000012540000000001238000000000124800000000012480000000001247000000000124804304000000000001898300000000002370569900000000000000009999123100000010000000000000BRAUREACNOR9104
012024071202ATOM3       010ATOMPAR     ON           R$  000000000020800000000002080000000000201000000000020500000000002070000000000203000000000020700019000000000000005500000000000001131300000000000000009999123100000010000000000000BRATOMACNOR1106
012024071202ASAI3       010ASSAI       ON      NM   R$  000000000112500000000011360000000001113000000000112200000000011240000000001124000000000112517425000000000011713600000000013150395500000000000000009999123100000010000000000000BRASAIACNOR0106
012024071202ARZZ3       010AREZZO CO   ON  ED  NM   R$  000000000539000000000054320000000005324000000000538800000000054300000000005420000000000543008949000000000001543700000000008318221100000000000000009999123100000010000000000000BRARZZACNOR3147
012024071202JSLG3       010JSL         ON      NM   R$  000000000105200000000010560000000001006000000000102000000000010070000000001006000000000101101155000000000000318600000000000325280300000000000000009999123100000010000000000000BRJSLGACNOR2121
012024071202JHSF3       010JHSF PART   ON      NM   R$  000000000043100000000004320000000000424000000000042800000000004310000000000430000000000043202456000000000002166800000000000928888400000000000000009999123100000010000000000000BRJHSFACNOR2137
012024071202BMKS3       010BIC MONARK  ON           R$  000000003406500000000340650000000033400000000003356000000000334000000000033250000000003340000004000000000000000006000000000000201365000000000000009999123100000010000000000000BRBMKSACNOR9166
012024071202BMGB4       010BANCO BMG   PN      N1   R$  000000000035700000000003580000000000355000000000035600000000003580000000000357000000000035800503000000000000290800000000000103748000000000000000009999123100000010000000000000BRBMGBACNPR0109
012024071202BMEB4       010MERCANTIL   PN      N1   R$  000000000297200000000029740000000002938000000000296000000000029650000000002903000000000296700035000000000000006400000000000018945000000000000000009999123100000010000000000000BRBMEBACNPR5210
012024071202BLAU3       010BLAU        ON      NM   R$  000000000117100000000011990000000001141000000000118200000000011900000000001190000000000119801308000000000000326700000000000386410400000000000000009999123100000010000000000000BRBLAUACNOR8114
012024071202BIOM3       010BIOMM       ON      MA   R$  000000000141600000000014160000000001380000000000140000000000013800000000001380000000000139900407000000000000133000000000000186323700000000000000009999123100000010000000000000BRBIOMACNOR2112
012024071202CTKA3       010KARSTEN     ON           R$  000000000215900000000021590000000002159000000000215900000000021590000000001000000000000215900001000000000000000100000000000000215900000000000000009999123100000010000000000000BRCTKAACNOR0043
012024071202CSUD3       010CSU DIGITAL ON      NM   R$  000000000198400000000020010000000001970000000000198500000000019970000000001984000000000199700136000000000000020900000000000041494400000000000000009999123100000010000000000000BRCSUDACNOR5110
012024071202CSRN3       010COSERN      ON           R$  000000000225000000000022500000000002250000000000225000000000022500000000002248000000000225000002000000000000000200000000000000450000000000000000009999123100000010000000000000BRCSRNACNOR0193
012024071202BRKM5       010BRASKEM     PNA     N1   R$  000000000193500000000019590000000001926000000000194100000000019400000000001938000000000194104865000000000001557600000000003023840900000000000000009999123100000010000000000000BRBRKMACNPA4121
012024071202BRKM3       010BRASKEM     ON      N1   R$  000000000193000000000019490000000001924000000000194100000000019440000000001920000000000194500008000000000000001100000000000002135800000000000000009999123100000010000000000000BRBRKMACNOR1119
012024071202BRIT3       010BRISANET    ON      NM   R$  000000000041000000000004270000000000407000000000042000000000004270000000000425000000000042701031000000000000860400000000000361913500000000000000009999123100000010000000000000BRBRITACNOR0103
012024071202BMOB3       010BEMOBI TECH ON      NM   R$  000000000149100000000015050000000001467000000000148000000000014760000000001463000000000147601450000000000000210100000000000311153400000000000000009999123100000010000000000000BRBMOBACNOR7103
012024071202BBAS3       010BRASIL      ON      NM   R$  000000000265700000000026830000000002640000000000266800000000026830000000002680000000000268327815000000000015241100000000040664968100000000000000009999123100000010000000000000BRBBASACNOR3324
012024071202BAZA3       010AMAZONIA    ON           R$  000000000994000000000099400000000009670000000000977400000000098800000000009304000000000999700005000000000000000500000000000004887100000000000000009999123100000010000000000000BRBAZAACNOR0179
012024071202BAUH4       010EXCELSIOR   PN           R$  000000000790000000000079000000000007900000000000790000000000079000000000007750000000000795000001000000000000000100000000000000790000000000000000009999123100000010000000000000BRBAUHACNPR3118
012024071202BALM4       010BAUMER      PN           R$  000000000102500000000010250000000001025000000000102500000000010250000000001005000000000103000001000000000000000200000000000000205000000000000000009999123100000010000000000000BRBALMACNPR2056
012024071202BAHI3       010BAHEMA      ON      MA   R$  000000000067200000000006720000000000672000000000067200000000006720000000000655000000000069800001000000000000000600000000000000403200000000000000009999123100000010000000000000BRBAHIACNOR1074
012024071202TIMS3       010TIM         ON      NM   R$  000000000167300000000017040000000001660000000000169300000000016950000000001694000000000169712102000000000007035100000000011917351600000000000000009999123100000010000000000000BRTIMSACNOR5117
012024071202TGMA3       010TEGMA       ON      NM   R$  000000000260800000000026080000000002571000000000259200000000025990000000002599000000000260400593000000000000072100000000000186952600000000000000009999123100000010000000000000BRTGMAACNOR7144
012024071202TFCO4       010TRACK FIELD PN      N2   R$  000000000112900000000011310000000001117000000000112400000000011250000000001120000000000112500500000000000000094000000000000105659100000000000000009999123100000010000000000000BRTFCOACNPR8114
012024071202TEND3       010TENDA       ON      NM   R$  000000000134600000000013790000000001249000000000128600000000012740000000001270000000000127512308000000000006356900000000008176012100000000000000009999123100000010000000000000BRTENDACNOR4111
012024071202TELB4       010TELEBRAS    PN           R$  000000000089800000000009730000000000891000000000093400000000009250000000000911000000000092900133000000000000024400000000000022805700000000000000009999123100000010000000000000BRTELBACNPR9140
012024071202TELB3       010TELEBRAS    ON           R$  000000000135000000000013920000000001297000000000135600000000012970000000001287000000000132500031000000000000003500000000000004746500000000000000009999123100000010000000000000BRTELBACNOR2140
012024071202TECN3       010TECHNOS     ON      NM   R$  000000000056300000000005970000000000556000000000058200000000005970000000000597000000000059801975000000000000984700000000000573697000000000000000009999123100000010000000000000BRTECNACNOR6109
012024071202TCSA3       010TECNISA     ON      NM   R$  000000000023600000000002360000000000228000000000023000000000002310000000000231000000000023400156000000000000055000000000000012665800000000000000009999123100000010000000000000BRTCSAACNOR3112
012024071202RRRP3       0103R PETROLEUMON      NM   R$  000000000280600000000028130000000002738000000000275500000000027600000000002760000000000276310191000000000004103900000000011309776800000000000000009999123100000010000000000000BRRRRPACNOR5103
012024071202ITSA3       010ITAUSA      ON      N1   R$  000000000101500000000010210000000001011000000000101600000000010190000000001017000000000101900303000000000000124100000000000126178300000000000000009999123100000010000000000000BRITSAACNOR0441
012024071202FRIO3       010METALFRIO   ON      NM   R$  000000002450000000000245000000000024500000000002450000000000245000000000018000000000002450000001000000000000000100000000000002450000000000000000009999123100000010000000000000BRFRIOACNOR2111
012024071202FRAS3       010FRAS-LE     ON      N1   R$  000000000204000000000020610000000002029000000000205100000000020520000000002047000000000205200953000000000000258200000000000529795100000000000000009999123100000010000000000000BRFRASACNOR0159
012024071202MEAL3       010IMC S/A     ON      NM   R$  000000000016000000000001610000000000155000000000015600000000001550000000000155000000000015600299000000000000486400000000000076162000000000000000009999123100000010000000000000BRMEALACNOR9105
012024071202MDNE3       010MOURA DUBEUXON      NM   R$  000000000137500000000013850000000001343000000000136000000000013610000000001361000000000136202225000000000000445200000000000605767600000000000000009999123100000010000000000000BRMDNEACNOR9100
012024071202MDIA3       010M.DIASBRANCOON      NM   R$  000000000283000000000028500000000002824000000000283800000000028400000000002836000000000284101817000000000001642300000000004660961400000000000000009999123100000010000000000000BRMDIAACNOR7135
012024071202MBLY3       010MOBLY       ON      NM   R$  000000000024400000000002620000000000237000000000025300000000002620000000000261000000000026200567000000000000393600000000000099820800000000000000009999123100000010000000000000BRMBLYACNOR5100
012024071202MATD3       010MATER DEI   ON      NM   R$  000000000050700000000005090000000000490000000000049900000000005000000000000499000000000050001601000000000000546500000000000272877200000000000000009999123100000010000000000000BRMATDACNOR4104
012024071202MAPT4       010CEMEPE      PN           R$  000000000062800000000006490000000000610000000000061700000000006100000000000580000000000065000005000000000000001600000000000000988300000000000000009999123100000010000000000000BRMAPTACNPR5106
012024071202ITSA4       010ITAUSA      PN      N1   R$  000000000101400000000010210000000001008000000000101600000000010210000000001020000000000102116112000000000022080800000000022436212800000000000000009999123100000010000000000000BRITSAACNPR7441
012024071202DXCO3       010DEXCO       ON      NM   R$  000000000070600000000007180000000000699000000000071200000000007180000000000715000000000071803790000000000001625900000000001158141100000000000000009999123100000010000000000000BRDXCOACNOR8105
012024071202DOTZ3       010DOTZ SA     ON      NM   R$  000000000064400000000006820000000000644000000000066100000000006540000000000653000000000068200040000000000000008400000000000005555800000000000000009999123100000010000000000000BRDOTZACNOR7101
012024071202DOHL4       010DOHLER      PN           R$  000000000040400000000004040000000000399000000000040000000000004000000000000393000000000040000004000000000000000400000000000000160200000000000000009999123100000010000000000000BRDOHLACNPR9066
012024071202DMVF3       010D1000VFARMA ON      NM   R$  000000000076900000000007730000000000758000000000076300000000007700000000000760000000000077100212000000000000049400000000000037706300000000000000009999123100000010000000000000BRDMVFACNOR9100
012024071202DMFN3       010DMFINANCEIRAON           R$  000000000125000000000012500000000001250000000000125000000000012500000000001250000000000230000001000000000000000100000000000000125000000000000000009999123100000010000000000000BRDMFNACNOR6103
012024071202DIRR3       010DIRECIONAL  ON  ED  NM   R$  000000000284000000000028400000000002751000000000276900000000027770000000002777000000000277911065000000000003453900000000009564567900000000000000009999123100000010000000000000BRDIRRACNOR0118
012024071202DEXP4       010DEXXOS PAR  PN      N1   R$  000000000102000000000010220000000001020000000000102100000000010220000000001015000000000102200017000000000000005000000000000005106000000000000000009999123100000010000000000000BRDEXPACNPR8105
012024071202DEXP3       010DEXXOS PAR  ON      N1   R$  000000000104600000000010630000000001045000000000105100000000010510000000001047000000000105100194000000000000047200000000000049645900000000000000009999123100000010000000000000BRDEXPACNOR1105
012024071202DESK3       010DESKTOP     ON      NM   R$  000000000151900000000015900000000001512000000000157200000000015640000000001559000000000156400836000000000001585400000000002492739200000000000000009999123100000010000000000000BRDESKACNOR2104
012024071202DASA3       010DASA        ON      NM   R$  000000000033200000000003700000000000327000000000035200000000003650000000000363000000000036502567000000000001974100000000000695601400000000000000009999123100000010000000000000BRDASAACNOR1122
012024071202CMIG4       010CEMIG       PN      N1   R$  000000000107000000000010710000000001063000000000106700000000010680000000001067000000000106809449000000000011890300000000012697362000000000000000009999123100000010000000000000BRCMIGACNPR3243
012024071202CMIG3       010CEMIG       ON      N1   R$  000000000130000000000013090000000001294000000000130200000000013080000000001305000000000130900487000000000000094600000000000123227600000000000000009999123100000010000000000000BRCMIGACNOR6242
012024071202CLSC4       010CELESC      PN      N2   R$  000000000770100000000077010000000007525000000000758100000000076490000000007527000000000765000016000000000000002300000000000017438400000000000000009999123100000010000000000000BRCLSCACNPR3131
012024071202CLSA3       010CLEARSALE   ON      NM   R$  000000000081800000000008280000000000737000000000077600000000007380000000000738000000000074007689000000000003519900000000002733890000000000000000009999123100000010000000000000BRCLSAACNOR0100
012024071202CIEL3       010CIELO       ON      NM   R$  000000000057200000000005740000000000572000000000057200000000005730000000000572000000000057306630000000000017441000000000009990072000000000000000009999123100000010000000000000BRCIELACNOR3157
012024071202CGRA4       010GRAZZIOTIN  PN           R$  000000000257600000000026010000000002576000000000259200000000026010000000002587000000000262300025000000000000002800000000000007259100000000000000009999123100000010000000000000BRCGRAACNPR9083
012024071202CGRA3       010GRAZZIOTIN  ON           R$  000000000254500000000025770000000002488000000000251600000000025000000000002491000000000259900010000000000000001000000000000002516400000000000000009999123100000010000000000000BRCGRAACNOR2083
012024071202CEEB3       010COELBA      ON           R$  000000000392100000000039510000000003921000000000393600000000039510000000003962000000000418000002000000000000000200000000000000787200000000000000009999123100000010000000000000BRCEEBACNOR3199
012024071202CEBR6       010CEB         PNB          R$  000000000198900000000019890000000001931000000000194200000000019380000000001936000000000194200023000000000000005900000000000011460400000000000000009999123100000010000000000000BRCEBRACNPB6124
012024071202MLAS3       010MULTILASER  ON      NM   R$  000000000022700000000002320000000000218000000000022300000000002180000000000218000000000021902498000000000002887500000000000644622800000000000000009999123100000010000000000000BRMLASACNOR9101
012024071202MILS3       010MILLS       ON      NM   R$  000000000115100000000011610000000001150000000000115500000000011520000000001152000000000115702723000000000000545800000000000630930000000000000000009999123100000010000000000000BRMILSACNOR2127
012024071202JBSS3       010JBS         ON      NM   R$  000000000318400000000032420000000003176000000000321400000000032100000000003207000000000321015338000000000003849800000000012373506700000000000000009999123100000010000000000000BRJBSSACNOR8121
012024071202JALL3       010JALLESMACHADON      NM   R$  000000000077100000000007830000000000771000000000077700000000007750000000000773000000000077501009000000000000269100000000000209153000000000000000009999123100000010000000000000BRJALLACNOR0105
012024071202HAPV3       010HAPVIDA     ON      NM   R$  000000000041000000000004130000000000405000000000040800000000004080000000000408000000000040924383000000000085563000000000034946359300000000000000009999123100000010000000000000BRHAPVACNOR4114
012024071202HAGA4       010HAGA S/A    PN           R$  000000000011900000000001190000000000119000000000011900000000001190000000000118000000000012000007000000000000002200000000000000261800000000000000009999123100000010000000000000BRHAGAACNPR4103
012024071202HAGA3       010HAGA S/A    ON           R$  000000000028100000000002950000000000261000000000027900000000002930000000000267000000000029300103000000000000024200000000000006771400000000000000009999123100000010000000000000BRHAGAACNOR7103
012024071202GUAR3       010GUARARAPES  ON      NM   R$  000000000078800000000007880000000000753000000000076400000000007580000000000758000000000076104075000000000001383500000000001057363400000000000000009999123100000010000000000000BRGUARACNOR4173
012024071202GSHP3       010GENERALSHOPPON           R$  000000000105000000000010500000000001050000000000105000000000010500000000001050000000000149000001000000000000000100000000000000105000000000000000009999123100000010000000000000BRGSHPACNOR7102
012024071202GRND3       010GRENDENE    ON      NM   R$  000000000060400000000006100000000000602000000000060600000000006100000000000607000000000061101754000000000000778100000000000471535100000000000000009999123100000010000000000000BRGRNDACNOR3174
012024071202ELET6       010ELETROBRAS  PNB     N1   R$  000000000429700000000043780000000004286000000000435200000000043320000000004331000000000433507927000000000001714400000000007462368400000000000000009999123100000010000000000000BRELETACNPB7077
012024071202ELET3       010ELETROBRAS  ON      N1   R$  000000000386100000000039380000000003856000000000391200000000039100000000003908000000000391225097000000000007013100000000027439372600000000000000009999123100000010000000000000BRELETACNOR6160
012024071202SNSY3       010SANSUY      ON           R$  000000000122300000000012400000000001195000000000122300000000012200000000001185000000000122500009000000000000001400000000000001713300000000000000009999123100000010000000000000BRSNSYACNOR2113
012024071202SNSY5       010SANSUY      PNA          R$  000000000060500000000006050000000000555000000000058600000000005990000000000556000000000059900004000000000000000600000000000000352000000000000000009999123100000010000000000000BRSNSYACNPA5111
012024071202SOJA3       010BOA SAFRA   ON      NM   R$  000000000157300000000015840000000001541000000000156300000000015510000000001550000000000155802019000000000000329500000000000515038100000000000000009999123100000010000000000000BRSOJAACNOR9105
012024071202SOMA3       010GRUPO SOMA  ON      NM   R$  000000000065000000000006500000000000634000000000064200000000006470000000000645000000000064714292000000000007145100000000004588516300000000000000009999123100000010000000000000BRSOMAACNOR3102
012024071202BEES3       010BANESTES    ON           R$  000000000090700000000009100000000000902000000000090500000000009070000000000903000000000090700058000000000000011000000000000009964300000000000000009999123100000010000000000000BRBEESACNOR9393
012024071202BEES4       010BANESTES    PN           R$  000000000096900000000009800000000000969000000000097400000000009800000000000976000000000100000011000000000000002600000000000002533900000000000000009999123100000010000000000000BRBEESACNPR6318
012024071202YDUQ3       010YDUQS PART  ON      NM   R$  000000000118500000000012040000000001153000000000118400000000011960000000001193000000000119607946000000000002634700000000003120352900000000000000009999123100000010000000000000BRYDUQACNOR3105
012024071202PRNR3       010PRINER      ON      NM   R$  000000000106800000000010770000000001061000000000106700000000010700000000001063000000000107100827000000000000140100000000000149610600000000000000009999123100000010000000000000BRPRNRACNOR4109
012024071202PSSA3       010PORTO SEGUROON      NM   R$  000000000296100000000030850000000002960000000000304500000000030700000000003069000000000307009645000000000002389200000000007275617400000000000000009999123100000010000000000000BRPSSAACNOR7155
012024071202SBFG3       010GRUPO SBF   ON      NM   R$  000000000135000000000013600000000001331000000000134200000000013310000000001331000000000133403604000000000001088600000000001461673500000000000000009999123100000010000000000000BRSBFGACNOR1103
012024071202SBSP3       010SABESP      ON      NM   R$  000000000840500000000084550000000008302000000000835400000000083150000000008314000000000833228542000000000006100100000000050962678000000000000000009999123100000010000000000000BRSBSPACNOR5161
012024071202UNIP3       010UNIPAR      ON           R$  000000000500100000000050630000000004991000000000502200000000050360000000005020000000000509900035000000000000003600000000000018080000000000000000009999123100000010000000000000BRUNIPACNOR7206
012024071202UNIP5       010UNIPAR      PNA          R$  000000000521800000000054450000000005217000000000531200000000052800000000005141000000000539800008000000000000000800000000000004249600000000000000009999123100000010000000000000BRUNIPACNPA0208
012024071202UNIP6       010UNIPAR      PNB          R$  000000000515200000000051890000000005101000000000515800000000051890000000005179000000000518900690000000000000087400000000000450850600000000000000009999123100000010000000000000BRUNIPACNPB8206
012024071202USIM3       010USIMINAS    ON      N1   R$  000000000075900000000007650000000000753000000000075700000000007640000000000757000000000076400511000000000000144300000000000109366000000000000000009999123100000010000000000000BRUSIMACNOR3167
012024071202USIM5       010USIMINAS    PNA     N1   R$  000000000080000000000008070000000000793000000000080000000000008060000000000801000000000080609513000000000005539500000000004432129300000000000000009999123100000010000000000000BRUSIMACNPA6169
012024071202PORT3       010WILSON SONS ON      NM   R$  000000000160600000000016220000000001596000000000161200000000016140000000001614000000000162101503000000000000397700000000000641213200000000000000009999123100000010000000000000BRPORTACNOR8108
012024071202POSI3       010POSITIVO TECON      NM   R$  000000000082700000000008340000000000820000000000082500000000008240000000000823000000000082403104000000000001396100000000001151809000000000000000009999123100000010000000000000BRPOSIACNOR9116
012024071202PRIO3       010PETRORIO    ON      NM   R$  000000000453800000000045980000000004538000000000456800000000045590000000004557000000000456109673000000000004764800000000021770014500000000000000009999123100000010000000000000BRPRIOACNOR1106
012024071202RSUL4       010RIOSULENSE  PN           R$  000000000686800000000069770000000006800000000000685300000000068000000000006600000000000690000012000000000000001200000000000008224300000000000000009999123100000010000000000000BRRSULACNPR3114
012024071207TXRX4       010TEX RENAUX  PN           R$  000000000023900000000002390000000000236000000000023800000000002360000000000232000000000023900003000000000000000300000000000000071400000000000000009999123100000010000000000000BRTXRXACNPR0142
012024071207NUTR3       010NUTRIPLANT  ON      MA   R$  000000000048000000000004840000000000472000000000047700000000004820000000000470000000000047900028000000000000009800000000000004675800000000000000009999123100000010000000000000BRNUTRACNOR0104
012024071208JFEN3       010JOAO FORTES ON           R$  000000000003400000000000360000000000031000000000003300000000000320000000000031000000000003201207000000000002838100000000000094072700000000000000009999123100000010000000000000BRJFENACNOR0059
012024071208ATMP3       010ATMASA      ON           R$  000000000019900000000002000000000000194000000000019700000000002000000000000196000000000020000014000000000000004600000000000000909600000000000000009999123100000010000000000000BRATMPACNOR8100
012024071208HOOT4       010HOTEIS OTHONPN           R$  000000000025400000000002540000000000250000000000025100000000002510000000000251000000000026000014000000000000004000000000000001005500000000000000009999123100000010000000000000BRHOOTACNPR9015
012024071208AMER3       010AMERICANAS  ON      NM   R$  000000000007700000000000790000000000069000000000007200000000000690000000000069000000000007006677000000000060681100000000004404769600000000000000009999123100000010000000000000BRAMERACNOR6102
012024071208CTSA3       010SANTANENSE  ON           R$  000000000025200000000002520000000000240000000000024700000000002470000000000247000000000024900013000000000000003600000000000000889600000000000000009999123100000010000000000000BRCTSAACNOR3062
012024071208CTSA4       010SANTANENSE  PN           R$  000000000011200000000001120000000000105000000000010600000000001060000000000106000000000010800063000000000000058900000000000006281300000000000000009999123100000010000000000000BRCTSAACNPR0062
012024071208LIGT3       010LIGHT S/A   ON      NM   R$  000000000050300000000005090000000000502000000000050500000000005080000000000507000000000050800945000000000000252100000000000127421900000000000000009999123100000010000000000000BRLIGTACNOR2124
012024071208SGPS3       010SPRINGS     ON      NM   R$  000000000019800000000001980000000000198000000000019800000000001980000000000198000000000019900031000000000000033700000000000006672600000000000000009999123100000010000000000000BRSGPSACNOR4105
012024071208ETER3       010ETERNIT     ON      NM   R$  000000000063300000000006380000000000625000000000063100000000006330000000000626000000000063300498000000000000139900000000000088296900000000000000009999123100000010000000000000BRETERACNOR3243
012024071208CTNM4       010COTEMINAS   PN           R$  000000000007500000000000750000000000075000000000007500000000000750000000000074000000000007500011000000000000005000000000000000375000000000000000009999123100000010000000000000BRCTNMACNPR6129
012024071208OIBR3       010OI          ON      N1   R$  000000000059200000000005980000000000583000000000058800000000005910000000000587000000000059100897000000000000500500000000000294767100000000000000009999123100000010000000000000BROIBRACNOR1111
012024071208OIBR4       010OI          PN      N1   R$  000000000155000000000015590000000001499000000000151600000000015050000000001505000000000152000063000000000000023900000000000036232700000000000000009999123100000010000000000000BROIBRACNPR8110
012024071208OSXB3       010OSX BRASIL  ON      NM   R$  000000000039100000000003930000000000391000000000039100000000003930000000000385000000000039300009000000000000001400000000000000548600000000000000009999123100000010000000000000BROSXBACNOR8109
012024071208RNEW11      010RENOVA      UNT     N2   R$  000000000027700000000002770000000000271000000000027200000000002710000000000271000000000027500018000000000000007000000000000001905600000000000000009999123100000010000000000000BRRNEWCDAM15110
012024071208RNEW3       010RENOVA      ON      N2   R$  000000000009000000000000910000000000090000000000009000000000000900000000000089000000000009000060000000000000123200000000000011120900000000000000009999123100000010000000000000BRRNEWACNOR8110
012024071208RNEW4       010RENOVA      PN      N2   R$  000000000009200000000000920000000000091000000000009100000000000910000000000091000000000009200044000000000000031700000000000002893100000000000000009999123100000010000000000000BRRNEWACNPR5110
012024071208PMAM3       010PARANAPANEMAON      NM   R$  000000000023800000000002410000000000236000000000023800000000002410000000000238000000000024100052000000000000020500000000000004899300000000000000009999123100000010000000000000BRPMAMACNOR3039
012024071208RPMG3       010PET MANGUINHON           R$  000000000027000000000002790000000000262000000000026800000000002640000000000262000000000026600091000000000000033900000000000009111800000000000000009999123100000010000000000000BRRPMGACNOR9194
012024071208NEXP3       010NEXPE       ON           R$  000000000042400000000004240000000000420000000000042200000000004200000000000416000000000042400002000000000000000200000000000000084400000000000000009999123100000010000000000000BRNEXPACNOR0101
012024071208RSID3       010ROSSI RESID ON      NM   R$  000000000050000000000005070000000000496000000000050300000000005040000000000492000000000050400167000000000000019900000000000010022800000000000000009999123100000010000000000000BRRSIDACNOR8120
012024071210BSLI10      010BRB BANCO   PN  REC      R$  000000000089000000000008900000000000880000000000088100000000008800000000000854000000000103200003000000000000001100000000000000970000000000000000009999123100000010000000000000BRBSLIR02PR5192
012024071210EQTL9       010EQUATORIAL  ON  REC NM   R$  000000000339900000000034810000000003399000000000342200000000034680000000002715000000000349900013000000000000001900000000000006502600000000000000009999123100000010000000000000BREQTLR03OR1129
012024071210VIVR1       010VIVER       DIR ORD NM   R$  000000000000100000000000010000000000001000000000000100000000000010000000000000000000000000100005000000000000002700000000000000002700000000000000009999123100000010000000000000BRVIVRD18OR3122
012024071210RENT1       010LOCALIZA    DIR ORD NM   R$  000000000140200000000014500000000001366000000000142200000000014190000000001390000000000141900460000000000000094400000000000134328100000000000000009999123100000010000000000000BRRENTD06OR8195
012024071212JFLL11      010FII JFL LIV CI           R$  000000000756200000000075620000000007325000000000739600000000074790000000007386000000000747000073000000000000000978000000000007233887000000000000009999123100000010000000000000BRJFLLCTF002141
012024071212JPPA11      010FII JPPA CRICI           R$  000000000820000000000082590000000008200000000000822300000000082400000000008215000000000824000229000000000000001644000000000013519187000000000000009999123100000010000000000000BRJPPACTF005162
012024071212JSAF11      010FII JS A FINCI           R$  000000000942500000000094630000000009410000000000942800000000094280000000009428000000000943901378000000000000018276000000000172308871000000000000009999123100000010000000000000BRJSAFCTF000134
012024071212JSRE11      010FII JS REAL CI           R$  000000000645000000000065670000000006449000000000650400000000064860000000006470000000000648608301000000000000030121000000000195926841000000000000009999123100000010000000000000BRJSRECTF007263
012024071212KCRE11      010FII KINEA CRCI           R$  000000000095900000000009670000000000955000000000096100000000009660000000000965000000000096601597000000000000044189000000000042485173000000000000009999123100000010000000000000BRKCRECTF009126
012024071212KEVE11      010FII EVEN II CI           R$  000000011000100000001102000000000110000000000011000600000001101000000000110001000000011260000012000000000000000087000000000009570604000000000000009999123100000010000000000000BRKEVECTF007115
012024071212KFOF11      010FII KINEAFOFCI           R$  000000000902000000000091270000000008993000000000905000000000090900000000009090000000000911501800000000000000015794000000000142949644000000000000009999123100000010000000000000BRKFOFCTF006170
012024071212KISU11      010FII KILIMA  CI           R$  000000000082800000000008350000000000827000000000083000000000008330000000000832000000000083304606000000000000108384000000000090040232000000000000009999123100000010000000000000BRKISUCTF000145
012024071212KIVO11      010FII KIVO    CI           R$  000000000833800000000084280000000008295000000000834000000000083500000000008350000000000838900539000000000000004134000000000034479507000000000000009999123100000010000000000000BRKIVOCTF007128
012024071212APTO11      010FII NAVI RSDCI           R$  000000000094100000000009660000000000941000000000095800000000009660000000000961000000000096600146000000000000001831000000000001755017000000000000009999123100000010000000000000BRAPTOCTF007132
012024071212APXM11      010FII APEX MS CI           R$  000000000999900000000099990000000009999000000000999900000000099990000000009700000000000999900001000000000000000002000000000000019998000000000000009999123100000010000000000000BRAPXMCTF003110
012024071212AROA11      010FII AROA    CI           R$  000000000010100000000001020000000000100000000000010000000000001000000000000100000000000010100120000000000000001774000000000000178649000000000000009999123100000010000000000000BRAROACTF003119
012024071212ARRI11      010FII ATRIO   CI           R$  000000000090500000000009050000000000902000000000090400000000009050000000000904000000000090501441000000000000050905000000000046028223000000000000009999123100000010000000000000BRARRICTF009162
012024071212ARXD11      010FII ARXD R  CI           R$  000000000990000000000099000000000009898000000000989800000000099000000000009897000000000990000015000000000000000607000000000006008513000000000000009999123100000010000000000000BRARXDCTF008116
012024071212ASMT11      010FII ASA MET CI           R$  000000000364600000000037300000000003646000000000369500000000036500000000003649000000000407700021000000000000000321000000000001186337000000000000009999123100000010000000000000BRASMTCTF005107
012024071212CNES11      010FII CENESP  CI           R$  000000000015000000000001520000000000149000000000014900000000001500000000000150000000000015101526000000000000057027000000000008539490000000000000009999123100000010000000000000BRCNESCTF001260
012024071212HCHG11      010FII HECT CRICI           R$  000000000709400000000070940000000007092000000000709300000000070920000000006911000000000709300008000000000000000052000000000000368885000000000000009999123100000010000000000000BRHCHGCTF001138
012024071212HCRI11      010FII CRIANCA CI           R$  000000002709800000000271490000000026700000000002701000000000271490000000027000000000002719800040000000000000000098000000000002647033000000000000009999123100000010000000000000BRHCRICTF006329
012024071212HCTR11      010FII HECTARE CI  ER       R$  000000000312700000000032000000000003120000000000318600000000031950000000003195000000000319802692000000000000038150000000000121578992000000000000009999123100000010000000000000BRHCTRCTF003171
012024071212HFOF11      010FII HTOPFOF3CI           R$  000000000706000000000070650000000007020000000000703700000000070580000000007041000000000705804179000000000000027795000000000195620731000000000000009999123100000010000000000000BRHFOFCTF002190
012024071212HGBL11      010FII HGBL    CI           R$  000000000103600000000010360000000001029000000000103200000000010300000000001029000000000103000065000000000000001249000000000001289066000000000000009999123100000010000000000000BRHGBLCTF005105
012024071212HGBS11      010FII HEDGEBS CI           R$  000000002175700000000218190000000021685000000002174000000000217240000000021722000000002172404723000000000000016823000000000365748739000000000000009999123100000010000000000000BRHGBSCTF000311
012024071212HGCR11      010FII HGCR PAXCI           R$  000000001037000000000104700000000010364000000001040900000000103890000000010389000000001041504645000000000000032721000000000340600668000000000000009999123100000010000000000000BRHGCRCTF000247
012024071212HGFF11      010FII HGFF PAXCI           R$  000000000857000000000086680000000008510000000000862300000000086160000000008556000000000861600997000000000000007561000000000065199029000000000000009999123100000010000000000000BRHGFFCTF008161
012024071212HGIC11      010FII HGI CRI CI  ER       R$  000000000970000000000097000000000009700000000000970000000000097000000000009433000000000970000004000000000000000005000000000000048500000000000000009999123100000010000000000000BRHGICCTF009141
012024071212HGLG11      010FII CSHG LOGCI           R$  000000001618200000000162330000000016150000000001621100000000162150000000016213000000001621509490000000000000038568000000000625242861000000000000009999123100000010000000000000BRHGLGCTF004272
012024071212HGPO11      010FII HGPO PAXCI           R$  000000003101800000000311000000000030860000000003104200000000309990000000030911000000003100000257000000000000001039000000000032252827000000000000009999123100000010000000000000BRHGPOCTF009162
012024071212HGRE11      010FII HG REAL CI           R$  000000001140800000000115350000000011401000000001149100000000114950000000011495000000001150003700000000000000015211000000000174798053000000000000009999123100000010000000000000BRHGRECTF006293
012024071212HGRU11      010FII HGRU PAXCI           R$  000000001284900000000129290000000012825000000001288200000000129220000000012921000000001292203501000000000000017259000000000222342363000000000000009999123100000010000000000000BRHGRUCTF002177
012024071212HLOG11      010FII HEDGELOGCI           R$  000000000834000000000083400000000008255000000000829700000000083260000000008247000000000834000027000000000000000155000000000001286126000000000000009999123100000010000000000000BRHLOGCTF008157
012024071212HOFC11      010FII HOFFICEICI           R$  000000000290000000000029500000000002852000000000288800000000029500000000002950000000000300700953000000000000002403000000000006940770000000000000009999123100000010000000000000BRHOFCCTF009115
012024071212HOSI11      010FII HOUSI   CI           R$  000000000947900000000095000000000009465000000000946800000000094650000000009465000000000957600011000000000000000063000000000000596536000000000000009999123100000010000000000000BRHOSICTF009146
012024071212HPDP11      010FII HEDGEPDPCI           R$  000000000889600000000088960000000008896000000000889600000000088960000000008800000000000889600001000000000000000005000000000000044480000000000000009999123100000010000000000000BRHPDPCTF003153
012024071212HREC11      010FII HEDGERECCI           R$  000000000087600000000008760000000000865000000000086800000000008710000000000867000000000087100075000000000000001551000000000001346761000000000000009999123100000010000000000000BRHRECCTF005150
012024071212HSAF11      010FII HSI CRI CI           R$  000000000849500000000085240000000008450000000000850100000000085120000000008456000000000851200761000000000000002703000000000022978786000000000000009999123100000010000000000000BRHSAFCTF004149
012024071212HSLG11      010FII HSI LOG CI           R$  000000000862000000000088000000000008620000000000871600000000087850000000008785000000000879600787000000000000006011000000000052396763000000000000009999123100000010000000000000BRHSLGCTF009143
012024071212HSML11      010FII HSI MALLCI           R$  000000000937400000000094730000000009360000000000940000000000094390000000009439000000000944008983000000000000035212000000000331006207000000000000009999123100000010000000000000BRHSMLCTF007162
012024071212HSRE11      010FII HSIRENDACI           R$  000000001076900000000108990000000010500000000001089700000000108990000000010611000000001089900006000000000000004613000000000050270154000000000000009999123100000010000000000000BRHSRECTF001142
012024071212HTMX11      010FII HOTEL MXCI           R$  000000001784000000000179970000000017701000000001791100000000179580000000017950000000001795800914000000000000003490000000000062512192000000000000009999123100000010000000000000BRHTMXCTF000281
012024071212HUCG11      010FII UNIMED CCI           R$  000000000839900000000084000000000008399000000000839900000000084000000000008222000000000840000002000000000000000002000000000000016799000000000000009999123100000010000000000000BRHUCGCTF004120
012024071212JCCJ11      010FII JHSF CJ CI  ER       R$  000000001449900000000144990000000014489000000001448900000000144890000000013200000000001448900008000000000000000051000000000000738949000000000000009999123100000010000000000000BRJCCJCTF002112
