00COTAHIST.2024BOVESPA 20240711                                                                                                                                                                                                                      
012024071102BPAC3       010BTGP BANCO  ON  EJ  N2   R$  000000000156100000000015610000000001510000000000154500000000015100000000001504000000000154000026000000000000003400000000000005253900000000000000009999123100000010000000000000BRBPACACNOR7134
012024071102DOTZ3       010DOTZ SA     ON      NM   R$  000000000064300000000006820000000000643000000000066100000000006630000000000649000000000066400045000000000000009100000000000006015200000000000000009999123100000010000000000000BRDOTZACNOR7101
012024071102GGBR3       010GERDAU      ON      N1   R$  000000000159000000000016250000000001590000000000161100000000016250000000001618000000000162500184000000000000037300000000000060115200000000000000009999123100000010000000000000BRGGBRACNOR1192
012024071102MDNE3       010MOURA DUBEUXON      NM   R$  000000000136500000000013920000000001351000000000138000000000013850000000001383000000000138503933000000000000744500000000001027560500000000000000009999123100000010000000000000BRMDNEACNOR9100
012024071102MGLU3       010MAGAZ LUIZA ON      NM   R$  000000000139700000000014040000000001363000000000137600000000013710000000001370000000000137115328000000000013490500000000018564766300000000000000009999123100000010000000000000BRMGLUACNOR2124
012024071102ALUP11      010ALUPAR      UNT     N2   R$  000000000317100000000031760000000003130000000000316700000000031710000000003168000000000317304065000000000002465400000000007809761900000000000000009999123100000010000000000000BRALUPCDAM15119
012024071102JHSF3       010JHSF PART   ON      NM   R$  000000000042500000000004310000000000425000000000042900000000004290000000000429000000000043003415000000000002275500000000000976485600000000000000009999123100000010000000000000BRJHSFACNOR2137
012024071102CGRA4       010GRAZZIOTIN  PN           R$  000000000257700000000025870000000002577000000000258000000000025870000000002571000000000259900006000000000000000600000000000001548200000000000000009999123100000010000000000000BRCGRAACNPR9083
012024071102CMIG3       010CEMIG       ON      N1   R$  000000000129000000000013050000000001284000000000129400000000013000000000001299000000000130700414000000000000091600000000000118548400000000000000009999123100000010000000000000BRCMIGACNOR6242
012024071102CVCB3       010CVC BRASIL  ON      NM   R$  000000000021200000000002180000000000211000000000021500000000002150000000000215000000000021610033000000000008869100000000001909764100000000000000009999123100000010000000000000BRCVCBACNOR1116
012024071102KLBN3       010KLABIN S/A  ON      N2   R$  000000000041900000000004220000000000417000000000041900000000004200000000000420000000000042200524000000000000276000000000000115902200000000000000009999123100000010000000000000BRKLBNACNOR2170
012024071102FIQE3       010UNIFIQUE    ON      NM   R$  000000000034000000000003440000000000339000000000034000000000003390000000000339000000000034002040000000000001017800000000000347051100000000000000009999123100000010000000000000BRFIQEACNOR5107
012024071102BGIP3       010BANESE      ON           R$  000000000241700000000024170000000002417000000000241700000000024170000000002417000000000350000002000000000000000200000000000000483400000000000000009999123100000010000000000000BRBGIPACNOR1208
012024071102BRAP4       010BRADESPAR   PN      N1   R$  000000000191200000000019200000000001902000000000191200000000019160000000001915000000000191609015000000000002373300000000004538060000000000000000009999123100000010000000000000BRBRAPACNPR2148
012024071102CRPG5       010CRISTAL     PNA          R$  000000000291100000000029500000000002911000000000293200000000029500000000002950000000000299900011000000000000001200000000000003519000000000000000009999123100000010000000000000BRCRPGACNPA3119
012024071102HBOR3       010HELBOR      ON      NM   R$  000000000023100000000002430000000000230000000000023700000000002400000000000235000000000024001243000000000001361300000000000323871900000000000000009999123100000010000000000000BRHBORACNOR3118
012024071102HETA4       010HERCULES    PN           R$  000000000054000000000005400000000000540000000000054000000000005400000000000530000000000062900001000000000000000100000000000000054000000000000000009999123100000010000000000000BRHETAACNPR9136
012024071102MNPR3       010MINUPAR     ON           R$  000000000130200000000013700000000001300000000000133500000000013660000000001339000000000136600025000000000000014000000000000018696800000000000000009999123100000010000000000000BRMNPRACNOR5122
012024071102BEEF3       010MINERVA     ON      NM   R$  000000000068100000000006890000000000675000000000068200000000006830000000000683000000000068506083000000000004874700000000003325900500000000000000009999123100000010000000000000BRBEEFACNOR6116
012024071102CPLE3       010COPEL       ON      N2   R$  000000000089100000000009100000000000891000000000090400000000009070000000000903000000000090703971000000000003857400000000003489720300000000000000009999123100000010000000000000BRCPLEACNOR8149
012024071102EALT4       010ACO ALTONA  PN           R$  000000000111100000000011350000000001108000000000111500000000011120000000001111000000000111800020000000000000007500000000000008364900000000000000009999123100000010000000000000BREALTACNPR1138
012024071102MAPT4       010CEMEPE      PN           R$  000000000058900000000006300000000000589000000000061700000000006280000000000560000000000063000007000000000000001100000000000000679700000000000000009999123100000010000000000000BRMAPTACNPR5106
012024071102PRIO3       010PETRORIO    ON      NM   R$  000000000454800000000045770000000004488000000000452500000000045360000000004528000000000453615862000000000004624700000000020926810700000000000000009999123100000010000000000000BRPRIOACNOR1106
012024071102VSTE3       010VESTE       ON      NM   R$  000000000144200000000014570000000001410000000000142900000000014100000000001410000000000147000060000000000000010000000000000014295300000000000000009999123100000010000000000000BRVSTEACNOR5103
012024071102RSUL4       010RIOSULENSE  PN           R$  000000000690600000000070000000000006800000000000692600000000070000000000006851000000000700000045000000000000006500000000000045021600000000000000009999123100000010000000000000BRRSULACNPR3114
012024071102TFCO4       010TRACK FIELD PN      N2   R$  000000000114800000000011600000000001118000000000112400000000011210000000001121000000000112500702000000000000143700000000000161631400000000000000009999123100000010000000000000BRTFCOACNPR8114
012024071102ROMI3       010ROMI        ON      NM   R$  000000000109800000000011220000000001098000000000111700000000011200000000001118000000000112001223000000000000219500000000000245323500000000000000009999123100000010000000000000BRROMIACNOR8195
012024071102SYNE3       010SYN PROP TECON      NM   R$  000000000101100000000010380000000001011000000000102800000000010310000000001031000000000103501558000000000000590400000000000607074400000000000000009999123100000010000000000000BRSYNEACNOR2102
012024071102ODPV3       010ODONTOPREV  ON      NM   R$  000000000117200000000012000000000001172000000000118800000000011810000000001181000000000119006395000000000001348800000000001602916700000000000000009999123100000010000000000000BRODPVACNOR4202
012024071102ORVR3       010ORIZON      ON      NM   R$  000000000422300000000042460000000004183000000000421500000000042100000000004207000000000421002250000000000000382600000000001612867100000000000000009999123100000010000000000000BRORVRACNOR0101
012024071102WEGE3       010WEG         ON      NM   R$  000000000439000000000044960000000004390000000000447600000000044960000000004493000000000449714468000000000005502300000000024631616100000000000000009999123100000010000000000000BRWEGEACNOR0223
012024071102DOHL4       010DOHLER      PN           R$  000000000040400000000004040000000000404000000000040400000000004040000000000391000000000039900001000000000000000100000000000000040400000000000000009999123100000010000000000000BRDOHLACNPR9066
012024071102GFSA3       010GAFISA      ON      NM   R$  000000000036700000000003980000000000358000000000038500000000003910000000000390000000000039104806000000000006727900000000002591598900000000000000009999123100000010000000000000BRGFSAACNOR3124
012024071102ITUB4       010ITAUUNIBANCOPN      N1   R$  000000000334500000000033660000000003338000000000335400000000033650000000003363000000000336523385000000000019611900000000065791610600000000000000009999123100000010000000000000BRITUBACNPR1338
012024071102MGEL4       010MANGELS INDLPN           R$  000000000131900000000013200000000001319000000000131900000000013200000000001301000000000132000003000000000000000400000000000000527900000000000000009999123100000010000000000000BRMGELACNPR3147
012024071102ALPK3       010ESTAPAR     ON      NM   R$  000000000036200000000003680000000000351000000000035800000000003610000000000357000000000036100385000000000000097400000000000034965000000000000000009999123100000010000000000000BRALPKACNOR9101
012024071102HYPE3       010HYPERA      ON      NM   R$  000000000293100000000029480000000002873000000000289500000000028790000000002878000000000288009129000000000002797500000000008099128800000000000000009999123100000010000000000000BRHYPEACNOR0142
012024071102CGRA3       010GRAZZIOTIN  ON           R$  000000000253500000000025400000000002535000000000253700000000025400000000002516000000000254000002000000000000000200000000000000507500000000000000009999123100000010000000000000BRCGRAACNOR2083
012024071102CLSC4       010CELESC      PN      N2   R$  000000000774500000000077960000000007700000000000774500000000077960000000007700000000000779700014000000000000002800000000000021688000000000000000009999123100000010000000000000BRCLSCACNPR3131
012024071102CURY3       010CURY S/A    ON      NM   R$  000000000222000000000022200000000002158000000000217500000000021720000000002172000000000217812679000000000003111900000000006771296000000000000000009999123100000010000000000000BRCURYACNOR3109
012024071102FESA4       010FERBASA     PN      N1   R$  000000000089000000000009150000000000888000000000090400000000009000000000000899000000000090303116000000000000812200000000000734592800000000000000009999123100000010000000000000BRFESAACNPR5084
012024071102FHER3       010FER HERINGERON      NM   R$  000000000041500000000004180000000000406000000000040800000000004120000000000407000000000041200033000000000000008500000000000003472300000000000000009999123100000010000000000000BRFHERACNOR5103
012024071102BEES4       010BANESTES    PN  EJ       R$  000000000097500000000009750000000000965000000000096800000000009670000000000950000000000096700016000000000000002600000000000002517800000000000000009999123100000010000000000000BRBEESACNPR6318
012024071102BRAP3       010BRADESPAR   ON      N1   R$  000000000184600000000018600000000001845000000000185400000000018590000000001845000000000185900663000000000000143900000000000266879500000000000000009999123100000010000000000000BRBRAPACNOR5148
012024071102CRFB3       010CARREFOUR BRON      NM   R$  000000000106000000000010990000000001056000000000107500000000010730000000001071000000000107321857000000000012307000000000013241039000000000000000009999123100000010000000000000BRCRFBACNOR2116
012024071102ELET6       010ELETROBRAS  PNB     N1   R$  000000000428600000000043390000000004283000000000430300000000042880000000004288000000000429204834000000000000977600000000004206686100000000000000009999123100000010000000000000BRELETACNPB7077
012024071102HBTS5       010HABITASUL   PNA          R$  000000000380900000000038100000000003809000000000380900000000038100000000003808000000000409600002000000000000000200000000000000761900000000000000009999123100000010000000000000BRHBTSACNPA3128
012024071102MNDL3       010MUNDIAL     ON           R$  000000000140000000000014000000000001322000000000139200000000014000000000001200000000000140000010000000000000003900000000000005431500000000000000009999123100000010000000000000BRMNDLACNOR4109
012024071102B3SA3       010B3          ON      NM   R$  000000000108400000000011110000000001073000000000110000000000011050000000001104000000000110548807000000000060570000000000066627198000000000000000009999123100000010000000000000BRB3SAACNOR6133
012024071102CPFE3       010CPFL ENERGIAON      NM   R$  000000000335000000000033820000000003336000000000336800000000033710000000003370000000000338104406000000000000815400000000002747020100000000000000009999123100000010000000000000BRCPFEACNOR0137
012024071102EALT3       010ACO ALTONA  ON           R$  000000000105400000000010800000000001050000000000105100000000010800000000001050000000000108000023000000000000003300000000000003468400000000000000009999123100000010000000000000BREALTACNOR4138
012024071102EKTR4       010ELEKTRO     PN           R$  000000000395000000000039500000000003950000000000395000000000039500000000003950000000000395500004000000000000001100000000000004345500000000000000009999123100000010000000000000BREKTRACNPR7163
012024071102MDIA3       010M.DIASBRANCOON      NM   R$  000000000279500000000028590000000002789000000000283300000000028330000000002828000000000283302983000000000000555200000000001573027100000000000000009999123100000010000000000000BRMDIAACNOR7135
012024071102VLID3       010VALID       ON      NM   R$  000000000156500000000015900000000001554000000000156900000000015750000000001572000000000157703733000000000000577200000000000905839700000000000000009999123100000010000000000000BRVLIDACNOR5143
012024071102RRRP3       0103R PETROLEUMON      NM   R$  000000000279800000000028100000000002741000000000276800000000027850000000002785000000000278612235000000000003804300000000010533915300000000000000009999123100000010000000000000BRRRRPACNOR5103
012024071102TEND3       010TENDA       ON      NM   R$  000000000125100000000013430000000001251000000000131300000000013330000000001333000000000133815590000000000004636700000000006090938000000000000000009999123100000010000000000000BRTENDACNOR4111
012024071102TKNO4       010TEKNO       PN           R$  000000000700000000000070000000000007000000000000700000000000070000000000006500000000000800000001000000000000000100000000000000700000000000000000009999123100000010000000000000BRTKNOACNPR5075
012024071102RPAD6       010ALFA HOLDINGPNB          R$  000000000087500000000008750000000000875000000000087500000000008750000000000878000000000099900001000000000000000100000000000000087500000000000000009999123100000010000000000000BRRPADACNPB2198
012024071102TAEE4       010TAESA       PN      N2   R$  000000000117000000000011820000000001169000000000117600000000011820000000001178000000000118200460000000000000130600000000000153627400000000000000009999123100000010000000000000BRTAEEACNPR6147
012024071102OPCT3       010OCEANPACT   ON      NM   R$  000000000067600000000006850000000000666000000000067400000000006820000000000673000000000068202459000000000000935400000000000631302300000000000000009999123100000010000000000000BROPCTACNOR0100
012024071102VVEO3       010VIVEO       ON      NM   R$  000000000026500000000002900000000000255000000000027200000000002820000000000281000000000028210011000000000005180000000000001412138000000000000000009999123100000010000000000000BRVVEOACNOR0104
012024071102PDTC3       010PADTEC      ON      NM   R$  000000000019900000000001990000000000194000000000019600000000001990000000000195000000000019900062000000000000037300000000000007330100000000000000009999123100000010000000000000BRPDTCACNOR3101
012024071102DMVF3       010D1000VFARMA ON      NM   R$  000000000075200000000007750000000000752000000000076900000000007690000000000762000000000076900308000000000000054100000000000041619400000000000000009999123100000010000000000000BRDMVFACNOR9100
012024071102GEPA4       010GER PARANAP PN           R$  000000000265000000000026600000000002625000000000264000000000026600000000002600000000000266500006000000000000000600000000000001584000000000000000009999123100000010000000000000BRGEPAACNPR9160
012024071102ITUB3       010ITAUUNIBANCOON      N1   R$  000000000286100000000028850000000002859000000000287400000000028820000000002881000000000288201095000000000000288700000000000829773100000000000000009999123100000010000000000000BRITUBACNOR4338
012024071102MELK3       010MELNICK     ON      NM   R$  000000000037900000000003830000000000372000000000037500000000003750000000000374000000000037500640000000000000243700000000000091476800000000000000009999123100000010000000000000BRMELKACNOR8111
012024071102ALPA4       010ALPARGATAS  PN      N1   R$  000000000095300000000009560000000000928000000000093600000000009290000000000928000000000093008485000000000003079300000000002885040000000000000000009999123100000010000000000000BRALPAACNPR7232
012024071102ALUP4       010ALUPAR      PN      N2   R$  000000000104200000000010470000000001028000000000103800000000010410000000001039000000000104800068000000000000010300000000000010695800000000000000009999123100000010000000000000BRALUPACNPR5119
012024071102CGAS5       010COMGAS      PNA          R$  000000001150000000000115000000000011498000000001149900000000115000000000011206000000001153000003000000000000000300000000000003449800000000000000009999123100000010000000000000BRCGASACNPA3160
012024071102CLSA3       010CLEARSALE   ON      NM   R$  000000000088300000000008920000000000816000000000084500000000008160000000000816000000000081705991000000000003381600000000002859135400000000000000009999123100000010000000000000BRCLSAACNOR0100
012024071102CSUD3       010CSU DIGITAL ON      NM   R$  000000000199400000000019940000000001957000000000197300000000019790000000001961000000000197900148000000000000023900000000000047171800000000000000009999123100000010000000000000BRCSUDACNOR5110
012024071102KLBN11      010KLABIN S/A  UNT     N2   R$  000000000208200000000021010000000002081000000000208900000000020890000000002088000000000209009099000000000002060800000000004306982100000000000000009999123100000010000000000000BRKLBNCDAM18142
012024071102MRVE3       010MRV         ON      NM   R$  000000000072700000000007360000000000711000000000072400000000007260000000000724000000000072723721000000000040699000000000029470558600000000000000009999123100000010000000000000BRMRVEACNOR2127
012024071102BEES3       010BANESTES    ON  EJ       R$  000000000090100000000009110000000000901000000000090500000000009040000000000901000000000091000057000000000000007000000000000006341900000000000000009999123100000010000000000000BRBEESACNOR9393
012024071102BHIA3       010CASAS BAHIA ON      NM   R$  000000000057100000000005810000000000565000000000057300000000005790000000000576000000000057902559000000000002520000000000001444186900000000000000009999123100000010000000000000BRBHIAACNOR1102
012024071102BRFS3       010BRF SA      ON      NM   R$  000000000220000000000022070000000002165000000000218300000000021960000000002196000000000219713843000000000005206600000000011367375900000000000000009999123100000010000000000000BRBRFSACNOR8122
012024071102ELET3       010ELETROBRAS  ON      N1   R$  000000000386000000000038960000000003842000000000386500000000038610000000003859000000000386118452000000000007075700000000027350664000000000000000009999123100000010000000000000BRELETACNOR6160
012024071102HBSA3       010HIDROVIAS   ON      NM   R$  000000000039100000000004050000000000390000000000039800000000003990000000000399000000000040208149000000000002735700000000001090557500000000000000009999123100000010000000000000BRHBSAACNOR0100
012024071102MLAS3       010MULTILASER  ON      NM   R$  000000000022000000000002290000000000214000000000022300000000002270000000000226000000000022705755000000000004167200000000000929709000000000000000009999123100000010000000000000BRMLASACNOR9101
012024071102MRFG3       010MARFRIG     ON      NM   R$  000000000120600000000012190000000001195000000000120300000000012030000000001198000000000120311409000000000003994100000000004807174600000000000000009999123100000010000000000000BRMRFGACNOR0116
012024071102BPAN4       010BANCO PAN   PN      N1   R$  000000000083700000000008590000000000834000000000084700000000008580000000000855000000000085906210000000000001785300000000001512862700000000000000009999123100000010000000000000BRBPANACNPR1115
012024071102CPLE6       010COPEL       PNB     N2   R$  000000000100600000000010250000000001005000000000101900000000010210000000001020000000000102213975000000000012079900000000012310011300000000000000009999123100000010000000000000BRCPLEACNPB9146
012024071102EGIE3       010ENGIE BRASILON      NM   R$  000000000457600000000046180000000004563000000000458800000000045960000000004593000000000459604449000000000000881900000000004046892000000000000000009999123100000010000000000000BREGIEACNOR9126
012024071102MBLY3       010MOBLY       ON      NM   R$  000000000026100000000002620000000000251000000000025500000000002510000000000250000000000025100717000000000000422300000000000108070000000000000000009999123100000010000000000000BRMBLYACNOR5100
012024071102UGPA3       010ULTRAPAR    ON      NM   R$  000000000230500000000023290000000002292000000000231200000000023150000000002313000000000231616064000000000004212600000000009740015200000000000000009999123100000010000000000000BRUGPAACNOR8155
012024071102VULC3       010VULCABRAS   ON      NM   R$  000000000152900000000015710000000001521000000000155100000000015710000000001555000000000157103739000000000000664200000000001030583400000000000000009999123100000010000000000000BRVULCACNOR2159
012024071102TELB4       010TELEBRAS    PN           R$  000000000088800000000008900000000000876000000000088600000000008820000000000872000000000088200029000000000000006500000000000005764900000000000000009999123100000010000000000000BRTELBACNPR9140
012024071102TIMS3       010TIM         ON      NM   R$  000000000161400000000016890000000001614000000000166900000000016760000000001675000000000167720757000000000010243200000000017102136400000000000000009999123100000010000000000000BRTIMSACNOR5117
012024071102RPAD5       010ALFA HOLDINGPNA          R$  000000000086000000000008600000000000860000000000086000000000008600000000000842000000000088000002000000000000000900000000000000774000000000000000009999123100000010000000000000BRRPADACNPA4218
012024071102TAEE3       010TAESA       ON      N2   R$  000000000115700000000011650000000001154000000000116100000000011630000000001161000000000116400315000000000000069000000000000080116600000000000000009999123100000010000000000000BRTAEEACNOR9147
012024071102ONCO3       010ONCOCLINICASON      NM   R$  000000000080000000000008060000000000737000000000076100000000007530000000000752000000000075307057000000000004730700000000003602274200000000000000009999123100000010000000000000BRONCOACNOR6101
012024071102GUAR3       010GUARARAPES  ON      NM   R$  000000000074400000000007860000000000744000000000076800000000007860000000000780000000000078607793000000000002390300000000001836116400000000000000009999123100000010000000000000BRGUARACNOR4173
012024071102PDGR3       010PDG REALT   ON      NM   R$  000000000001800000000000260000000000017000000000002200000000000230000000000023000000000002402724000000000028465900000000000645229700000000000000009999123100000010000000000000BRPDGRACNOR8118
012024071102DASA3       010DASA        ON      NM   R$  000000000034800000000003560000000000331000000000034000000000003310000000000331000000000033502562000000000001694100000000000576762000000000000000009999123100000010000000000000BRDASAACNOR1122
012024071102DXCO3       010DEXCO       ON      NM   R$  000000000070600000000007110000000000700000000000070400000000007030000000000702000000000070405971000000000002096100000000001476725100000000000000009999123100000010000000000000BRDXCOACNOR8105
012024071102GGBR4       010GERDAU      PN      N1   R$  000000000179300000000018190000000001790000000000181100000000018120000000001810000000000181314260000000000005953800000000010786027600000000000000009999123100000010000000000000BRGGBRACNPR8192
012024071102MEAL3       010IMC S/A     ON      NM   R$  000000000015700000000001590000000000153000000000015600000000001590000000000157000000000015900307000000000000632400000000000098800800000000000000009999123100000010000000000000BRMEALACNOR9105
012024071102ALPA3       010ALPARGATAS  ON      N1   R$  000000000093300000000009330000000000900000000000091200000000009000000000000900000000000090300299000000000000063800000000000058220300000000000000009999123100000010000000000000BRALPAACNOR0231
012024071102ALUP3       010ALUPAR      ON      N2   R$  000000000107800000000010930000000001030000000000107400000000010900000000001053000000000109000114000000000000015600000000000016755000000000000000009999123100000010000000000000BRALUPACNOR8119
012024071102CEEB3       010COELBA      ON           R$  000000000396700000000039670000000003967000000000396700000000039670000000003966000000000419700002000000000000000200000000000000793400000000000000009999123100000010000000000000BRCEEBACNOR3199
012024071102CIEL3       010CIELO       ON      NM   R$  000000000057300000000005740000000000571000000000057200000000005730000000000572000000000057311224000000000035634900000000020413737400000000000000009999123100000010000000000000BRCIELACNOR3157
012024071102CMIG4       010CEMIG       PN      N1   R$  000000000104800000000010720000000001047000000000106400000000010700000000001069000000000107026390000000000009629100000000010247765900000000000000009999123100000010000000000000BRCMIGACNPR3243
012024071102KEPL3       010KEPLER WEBERON      NM   R$  000000000098700000000010050000000000980000000000099400000000009980000000000998000000000099904398000000000001482100000000001473928600000000000000009999123100000010000000000000BRKEPLACNOR1063
012024071102KLBN4       010KLABIN S/A  PN      N2   R$  000000000041800000000004200000000000415000000000041700000000004180000000000418000000000041901589000000000000895300000000000373895200000000000000009999123100000010000000000000BRKLBNACNPR9170
012024071102FLRY3       010FLEURY      ON      NM   R$  000000000154300000000015650000000001543000000000155800000000015620000000001561000000000156406925000000000001511500000000002354969400000000000000009999123100000010000000000000BRFLRYACNOR5138
012024071102BGIP4       010BANESE      PN           R$  000000000231500000000023150000000002310000000000231200000000023140000000002250000000000239500004000000000000000600000000000001387400000000000000009999123100000010000000000000BRBGIPACNPR8208
012024071102BRBI11      010BR PARTNERS UNT     N2   R$  000000000145600000000014610000000001432000000000144900000000014430000000001443000000000145800976000000000000264100000000000382754700000000000000009999123100000010000000000000BRBRBICDAM10109
012024071102CSAN3       010COSAN       ON      NM   R$  000000000141500000000014430000000001414000000000142700000000014300000000001428000000000143016712000000000007856600000000011219136700000000000000009999123100000010000000000000BRCSANACNOR6126
012024071102HBRE3       010HBR REALTY  ON      NM   R$  000000000057300000000005870000000000570000000000057800000000005780000000000577000000000057800333000000000000217400000000000125742700000000000000009999123100000010000000000000BRHBREACNOR4100
012024071102MILS3       010MILLS       ON      NM   R$  000000000115100000000011750000000001130000000000115600000000011510000000001151000000000115405582000000000001020200000000001180251800000000000000009999123100000010000000000000BRMILSACNOR2127
012024071102MOVI3       010MOVIDA      ON      NM   R$  000000000071000000000007170000000000693000000000070100000000006930000000000693000000000069505646000000000002995700000000002102250400000000000000009999123100000010000000000000BRMOVIACNOR0122
012024071102BPAC5       010BTGP BANCO  PNA EJ  N2   R$  000000000082000000000008210000000000807000000000081200000000008150000000000810000000000081800029000000000000004100000000000003332200000000000000009999123100000010000000000000BRBPACACNPA0134
012024071102CPLE5       010COPEL       PNA     N2   R$  000000000140000000000014000000000001400000000000140000000000014000000000001323000000000147500001000000000000000100000000000000140000000000000000009999123100000010000000000000BRCPLEACNPA1147
012024071102ECOR3       010ECORODOVIAS ON      NM   R$  000000000076300000000007770000000000749000000000076600000000007600000000000754000000000076110100000000000005282500000000004047093200000000000000009999123100000010000000000000BRECORACNOR8120
012024071102MATD3       010MATER DEI   ON      NM   R$  000000000050800000000005150000000000499000000000051000000000005100000000000510000000000051101206000000000000167600000000000085582600000000000000009999123100000010000000000000BRMATDACNOR4104
012024071102UCAS3       010UNICASA     ON      NM   R$  000000000022500000000002300000000000223000000000022500000000002300000000000227000000000023000132000000000000102900000000000023188200000000000000009999123100000010000000000000BRUCASACNOR1113
012024071102VTRU3       010VITRUEDUCA  ON      NM   R$  000000000138700000000014060000000001372000000000138800000000013750000000001373000000000139500261000000000000029500000000000040956900000000000000009999123100000010000000000000BRVTRUACNOR3100
012024071102TECN3       010TECHNOS     ON      NM   R$  000000000054000000000005630000000000536000000000055800000000005620000000000558000000000056202102000000000000774000000000000432376300000000000000009999123100000010000000000000BRTECNACNOR6109
012024071102TGMA3       010TEGMA       ON      NM   R$  000000000256300000000026110000000002563000000000259200000000025870000000002587000000000261200947000000000000158600000000000411150700000000000000009999123100000010000000000000BRTGMAACNOR7144
012024071102RPAD3       010ALFA HOLDINGON           R$  000000000088000000000008800000000000873000000000087800000000008730000000000875000000000095500002000000000000000400000000000000351300000000000000009999123100000010000000000000BRRPADACNOR1198
012024071102TAEE11      010TAESA       UNT     N2   R$  000000000349500000000035290000000003490000000000351600000000035200000000003518000000000352105641000000000001305000000000004588573300000000000000009999123100000010000000000000BRTAEECDAM10147
012024071102OFSA3       010OUROFINO S/AON      NM   R$  000000000188800000000019120000000001850000000000187200000000018880000000001857000000000188900022000000000000004800000000000008987900000000000000009999123100000010000000000000BROFSAACNOR7118
012024071102GRND3       010GRENDENE    ON      NM   R$  000000000060800000000006120000000000602000000000060700000000006040000000000604000000000060803567000000000000883100000000000536510700000000000000009999123100000010000000000000BRGRNDACNOR3174
012024071102PCAR3       010P.ACUCAR-CBDON      NM   R$  000000000032700000000003310000000000323000000000032700000000003300000000000329000000000033009894000000000011768900000000003853695600000000000000009999123100000010000000000000BRPCARACNOR3167
012024071102PETR3       010PETROBRAS   ON      N2   R$  000000000409100000000041280000000004084000000000410700000000041110000000004110000000000411217944000000000006295200000000025857295500000000000000009999123100000010000000000000BRPETRACNOR9205
012024071102PINE3       010PINE        ON  EJ  N2   R$  000000000057000000000005700000000000570000000000057000000000005700000000000545000000000059000003000000000000000300000000000000171000000000000000009999123100000010000000000000BRPINEACNOR1150
012024071102HAGA4       010HAGA S/A    PN           R$  000000000011800000000001200000000000117000000000011800000000001200000000000118000000000012100023000000000000007600000000000000903600000000000000009999123100000010000000000000BRHAGAACNPR4103
012024071102AURE3       010AUREN       ON      NM   R$  000000000124100000000012570000000001240000000000125000000000012450000000001244000000000124607186000000000002692900000000003368101800000000000000009999123100000010000000000000BRAUREACNOR9104
012024071102AZUL4       010AZUL        PN      N2   R$  000000000085500000000008780000000000847000000000086300000000008630000000000863000000000086412426000000000012861300000000011110047100000000000000009999123100000010000000000000BRAZULACNPR4102
012024071102SANB4       010SANTANDER BRPN           R$  000000000145600000000015010000000001456000000000148600000000014930000000001491000000000149301344000000000000253900000000000377365500000000000000009999123100000010000000000000BRSANBACNPR5171
012024071102TRIS3       010TRISUL      ON      NM   R$  000000000051800000000005300000000000512000000000052100000000005280000000000527000000000052802616000000000000884400000000000461640700000000000000009999123100000010000000000000BRTRISACNOR4118
012024071102TUPY3       010TUPY        ON      NM   R$  000000000245800000000025320000000002458000000000251300000000025260000000002525000000000252602992000000000000448400000000001127024200000000000000009999123100000010000000000000BRTUPYACNOR1184
012024071102SNSY5       010SANSUY      PNA          R$  000000000060200000000006030000000000602000000000060200000000006030000000000566000000000060400002000000000000000900000000000000542500000000000000009999123100000010000000000000BRSNSYACNPA5111
012024071102PTNT3       010PETTENATI   ON           R$  000000000096100000000009610000000000961000000000096100000000009610000000000935000000000096100001000000000000000100000000000000096100000000000000009999123100000010000000000000BRPTNTACNOR6042
012024071102SEER3       010SER EDUCA   ON      NM   R$  000000000053900000000005520000000000539000000000054700000000005460000000000546000000000055000925000000000000232900000000000127452600000000000000009999123100000010000000000000BRSEERACNOR5119
012024071102SIMH3       010SIMPAR      ON      NM   R$  000000000070200000000007110000000000692000000000070200000000007000000000000700000000000070105905000000000002378100000000001671720500000000000000009999123100000010000000000000BRSIMHACNOR0107
012024071102WHRL4       010WHIRLPOOL   PN           R$  000000000045100000000004580000000000449000000000045300000000004580000000000453000000000045800028000000000000012200000000000005527000000000000000009999123100000010000000000000BRWHRLACNPR2128
012024071102TOTS3       010TOTVS       ON      NM   R$  000000000301500000000030470000000002984000000000301200000000029840000000002984000000000298609534000000000002730400000000008224910800000000000000009999123100000010000000000000BRTOTSACNOR8144
012024071102VIVA3       010VIVARA S.A. ON      NM   R$  000000000227100000000023080000000002269000000000228900000000022900000000002290000000000229112919000000000003161200000000007237073200000000000000009999123100000010000000000000BRVIVAACNOR0107
012024071102TASA4       010TAURUS ARMASPN      N2   R$  000000000123800000000012690000000001238000000000125800000000012670000000001267000000000126802237000000000000311700000000000392256200000000000000009999123100000010000000000000BRTASAACNPR4104
012024071102PETZ3       010PETZ        ON      NM   R$  000000000040200000000004120000000000401000000000040500000000004030000000000402000000000040408135000000000004938500000000002001010100000000000000009999123100000010000000000000BRPETZACNOR2110
012024071102RANI3       010IRANI       ON      NM   R$  000000000088300000000008870000000000869000000000087700000000008790000000000878000000000087903345000000000001019600000000000894492000000000000000009999123100000010000000000000BRRANIACNOR5072
012024071102RCSL4       010RECRUSUL    PN           R$  000000000011900000000001210000000000118000000000011900000000001190000000000118000000000011901343000000000001496100000000000178120300000000000000009999123100000010000000000000BRRCSLACNPR1134
012024071102STBP3       010SANTOS BRP  ON      NM   R$  000000000144200000000014740000000001413000000000143200000000014300000000001427000000000143013211000000000006128400000000008781547000000000000000009999123100000010000000000000BRSTBPACNOR3130
012024071102PLPL3       010PLANOEPLANO ON      NM   R$  000000000102600000000010570000000001018000000000103900000000010550000000001045000000000105506406000000000004457100000000004631035200000000000000009999123100000010000000000000BRPLPLACNOR5104
012024071102PORT3       010WILSON SONS ON      NM   R$  000000000157500000000016130000000001575000000000160000000000016060000000001606000000000160902533000000000000652200000000001043578000000000000000009999123100000010000000000000BRPORTACNOR8108
012024071102LJQQ3       010QUERO-QUERO ON      NM   R$  000000000044900000000004580000000000444000000000045100000000004480000000000447000000000044905189000000000003370400000000001521384400000000000000009999123100000010000000000000BRLJQQACNOR5104
012024071102LREN3       010LOJAS RENNERON      NM   R$  000000000136400000000013850000000001352000000000137100000000013710000000001371000000000137721985000000000012460200000000017092182700000000000000009999123100000010000000000000BRLRENACNOR1221
012024071102IGTI11      010IGUATEMI S.AUNT     N1   R$  000000000219300000000022150000000002176000000000219000000000021900000000002190000000000219107542000000000001848600000000004049987900000000000000009999123100000010000000000000BRIGTICDAM16106
012024071102INEP4       010INEPAR      PN           R$  000000000018900000000001970000000000186000000000018800000000001900000000000190000000000019300080000000000000074000000000000013963600000000000000009999123100000010000000000000BRINEPACNPR8143
012024071102MYPK3       010IOCHP-MAXIONON  EJ  NM   R$  000000000115800000000011710000000001148000000000116200000000011650000000001164000000000116504818000000000001063500000000001236341500000000000000009999123100000010000000000000BRMYPKACNOR7155
012024071102CBAV3       010CBA         ON      NM   R$  000000000074000000000007590000000000738000000000075000000000007540000000000752000000000075505926000000000003623900000000002720774000000000000000009999123100000010000000000000BRCBAVACNOR5104
012024071102EQPA3       010EQTL PARA   ON           R$  000000000070900000000007190000000000709000000000071100000000007100000000000710000000000071700017000000000000002600000000000001850400000000000000009999123100000010000000000000BREQPAACNOR1111
012024071102ESPA3       010ESPACOLASER ON      NM   R$  000000000010500000000001090000000000105000000000010700000000001070000000000107000000000010900496000000000000498000000000000053656200000000000000009999123100000010000000000000BRESPAACNOR7103
012024071102NTCO3       010GRUPO NATURAON      NM   R$  000000000157900000000016080000000001565000000000159500000000016070000000001606000000000160710104000000000004723700000000007538349400000000000000009999123100000010000000000000BRNTCOACNOR5106
012024071102PETR4       010PETROBRAS   PN      N2   R$  000000000381600000000038450000000003811000000000383000000000038330000000003833000000000383441724000000000017229400000000065992814800000000000000009999123100000010000000000000BRPETRACNPR6213
012024071102PINE4       010PINE        PN  EJ  N2   R$  000000000043400000000004400000000000431000000000043500000000004330000000000433000000000043600378000000000000135200000000000058863900000000000000009999123100000010000000000000BRPINEACNPR8150
012024071102HAPV3       010HAPVIDA     ON      NM   R$  000000000040900000000004150000000000406000000000040900000000004090000000000408000000000041015413000000000036357600000000014895236200000000000000009999123100000010000000000000BRHAPVACNOR4114
012024071102AVLL3       010ALPHAVILLE  ON      NM   R$  000000000033000000000003300000000000330000000000033000000000003300000000000318000000000033000002000000000000001100000000000000363000000000000000009999123100000010000000000000BRAVLLACNOR5103
012024071102JSLG3       010JSL         ON      NM   R$  000000000098500000000010570000000000985000000000103100000000010450000000001044000000000104602705000000000000607000000000000626300300000000000000009999123100000010000000000000BRJSLGACNOR2121
012024071102SAPR11      010SANEPAR     UNT     N2   R$  000000000270700000000027240000000002670000000000269300000000026700000000002670000000000268503614000000000000718200000000001934693500000000000000009999123100000010000000000000BRSAPRCDAM13118
012024071102TRPL3       010TRAN PAULISTON      N1   R$  000000000341200000000034500000000003390000000000342200000000034110000000003410000000000345000015000000000000002400000000000008214000000000000000009999123100000010000000000000BRTRPLACNOR4185
012024071102SMFT3       010SMART FIT   ON      NM   R$  000000000233500000000023450000000002297000000000231900000000023120000000002312000000000231506440000000000001052100000000002440671900000000000000009999123100000010000000000000BRSMFTACNOR1112
012024071102SOJA3       010BOA SAFRA   ON      NM   R$  000000000152300000000015690000000001523000000000155500000000015640000000001564000000000157002492000000000000396400000000000616603700000000000000009999123100000010000000000000BRSOJAACNOR9105
012024071102PTNT4       010PETTENATI   PN           R$  000000000063800000000006420000000000616000000000062400000000006220000000000620000000000062400034000000000000010300000000000006429500000000000000009999123100000010000000000000BRPTNTACNPR3047
012024071102SEQL3       010SEQUOIA LOG ON      NM   R$  000000000046800000000004700000000000457000000000046000000000004570000000000457000000000045800275000000000000174800000000000080523900000000000000009999123100000010000000000000BRSEQLACNOR2103
012024071102SLCE3       010SLC AGRICOLAON      NM   R$  000000000191400000000019300000000001910000000000191600000000019160000000001913000000000191608534000000000002214400000000004244523100000000000000009999123100000010000000000000BRSLCEACNOR2125
012024071102WIZC3       010WIZ CO      ON      NM   R$  000000000059400000000006060000000000593000000000059900000000005980000000000597000000000059801701000000000000328900000000000197043200000000000000009999123100000010000000000000BRWIZCACNOR5102
012024071102TPIS3       010TRIUNFO PARTON      NM   R$  000000000038400000000003860000000000375000000000038100000000003860000000000383000000000038600082000000000000025500000000000009717700000000000000009999123100000010000000000000BRTPISACNOR8118
012024071102VIVR3       010VIVER       ON      NM   R$  000000000025200000000002540000000000247000000000025100000000002520000000000250000000000025200089000000000000042400000000000010645500000000000000009999123100000010000000000000BRVIVRACNOR4123
012024071102TCSA3       010TECNISA     ON      NM   R$  000000000023600000000002510000000000226000000000023700000000002340000000000234000000000023600253000000000000216400000000000051439000000000000000009999123100000010000000000000BRTCSAACNOR3112
012024071102RECV3       010PETRORECSA  ON      NM   R$  000000000206600000000021030000000002058000000000208400000000020920000000002092000000000209404993000000000001385800000000002888843200000000000000009999123100000010000000000000BRRECVACNOR3107
012024071102RAPT3       010RANDON PART ON      N1   R$  000000000101900000000010300000000001014000000000102100000000010300000000001021000000000103000040000000000000019700000000000020121000000000000000009999123100000010000000000000BRRAPTACNOR7162
012024071102RDNI3       010RNI         ON      NM   R$  000000000030700000000003180000000000307000000000031300000000003130000000000310000000000031400019000000000000012100000000000003794300000000000000009999123100000010000000000000BRRDNIACNOR9116
012024071102SUZB3       010SUZANO S.A. ON      NM   R$  000000000525500000000053370000000005228000000000528900000000053010000000005293000000000530215889000000000004254200000000022503741600000000000000009999123100000010000000000000BRSUZBACNOR0130
012024071102PNVL3       010DIMED       ON      NM   R$  000000000098100000000010290000000000980000000000100100000000010290000000001026000000000102904633000000000000818900000000000820360000000000000000009999123100000010000000000000BRPNVLACNOR9207
012024071102POSI3       010POSITIVO TECON      NM   R$  000000000085000000000008570000000000820000000000083100000000008300000000000827000000000083003814000000000001230900000000001023766100000000000000009999123100000010000000000000BRPOSIACNOR9116
012024071102LOGG3       010LOG COM PROPON      NM   R$  000000000237400000000024180000000002354000000000239100000000023650000000002363000000000238301185000000000000134300000000000321222900000000000000009999123100000010000000000000BRLOGGACNOR7107
012024071102MTRE3       010MITRE REALTYON      NM   R$  000000000042700000000004450000000000425000000000043500000000004420000000000441000000000044204799000000000003034200000000001320430400000000000000009999123100000010000000000000BRMTREACNOR6112
012024071102IGTI3       010IGUATEMI S.AON      N1   R$  000000000027100000000002770000000000269000000000027100000000002690000000000268000000000027100132000000000000040200000000000010931800000000000000009999123100000010000000000000BRIGTIACNOR8106
012024071102INTB3       010INTELBRAS   ON      NM   R$  000000000228200000000023460000000002282000000000231900000000023020000000002301000000000230805424000000000001306900000000003031258300000000000000009999123100000010000000000000BRINTBACNOR9111
012024071102CAMB3       010CAMBUCI     ON           R$  000000000109500000000011200000000001090000000000110200000000011200000000001101000000000112000176000000000000045200000000000049842300000000000000009999123100000010000000000000BRCAMBACNOR4130
012024071102CCRO3       010CCR SA      ON      NM   R$  000000000128500000000013080000000001281000000000129600000000012950000000001295000000000129622912000000000019519500000000025315330800000000000000009999123100000010000000000000BRCCROACNOR2145
012024071102EQPA6       010EQTL PARA   PNB          R$  000000000070000000000007000000000000700000000000070000000000007000000000000700000000000090000001000000000000000100000000000000070000000000000000009999123100000010000000000000BREQPAACNPB2111
012024071102NGRD3       010NEOGRID     ON      NM   R$  000000000009700000000000980000000000093000000000009400000000000960000000000095000000000009600794000000000000744300000000000070667900000000000000009999123100000010000000000000BRNGRDACNOR3104
012024071102BAHI3       010BAHEMA      ON      MA   R$  000000000067100000000006710000000000671000000000067100000000006710000000000646000000000067100004000000000000001000000000000000671000000000000000009999123100000010000000000000BRBAHIACNOR1074
012024071102PGMN3       010PAGUE MENOS ON      NM   R$  000000000027600000000002880000000000274000000000028200000000002880000000000286000000000028801557000000000000910600000000000257099500000000000000009999123100000010000000000000BRPGMNACNOR8103
012024071102HAGA3       010HAGA S/A    ON           R$  000000000026500000000002810000000000257000000000027200000000002810000000000263000000000028100054000000000000008800000000000002394000000000000000009999123100000010000000000000BRHAGAACNOR7103
012024071102JBSS3       010JBS         ON      NM   R$  000000000309500000000031800000000003082000000000313500000000031800000000003179000000000318014570000000000006572800000000020609669900000000000000009999123100000010000000000000BRJBSSACNOR8121
012024071102AZEV4       010AZEVEDO     PN           R$  000000000015900000000001610000000000155000000000015700000000001560000000000155000000000015601294000000000002122400000000000333613900000000000000009999123100000010000000000000BRAZEVACNPR7121
012024071102SANB3       010SANTANDER BRON           R$  000000000131100000000013600000000001311000000000133900000000013600000000001344000000000136001428000000000000276100000000000369893000000000000000009999123100000010000000000000BRSANBACNOR8171
012024071102SAPR4       010SANEPAR     PN      N2   R$  000000000055200000000005540000000000545000000000054800000000005450000000000544000000000054702039000000000000691000000000000379026400000000000000009999123100000010000000000000BRSAPRACNPR6159
012024071102TTEN3       0103TENTOS     ON      NM   R$  000000000105000000000010660000000001038000000000105200000000010570000000001051000000000105705692000000000000908500000000000956626800000000000000009999123100000010000000000000BRTTENACNOR0103
012024071102SNSY3       010SANSUY      ON           R$  000000000131000000000013400000000001180000000000124200000000012380000000001210000000000123500057000000000000007000000000000008699900000000000000009999123100000010000000000000BRSNSYACNOR2113
012024071102PTBL3       010PORTOBELLO  ON      NM   R$  000000000048500000000005150000000000485000000000049900000000005070000000000507000000000050902272000000000000796900000000000398391000000000000000009999123100000010000000000000BRPTBLACNOR8132
012024071102RADL3       010RAIADROGASILON  EJ  NM   R$  000000000252000000000025500000000002517000000000253400000000025410000000002531000000000254212659000000000006296100000000015960003800000000000000009999123100000010000000000000BRRADLACNOR0157
012024071102SHUL4       010SCHULZ      PN           R$  000000000064900000000006550000000000647000000000065000000000006500000000000650000000000065201104000000000000338000000000000219843300000000000000009999123100000010000000000000BRSHULACNPR4156
012024071102WHRL3       010WHIRLPOOL   ON           R$  000000000044300000000004520000000000443000000000044300000000004520000000000443000000000045200003000000000000001200000000000000532500000000000000009999123100000010000000000000BRWHRLACNOR5128
012024071102WLMM4       010WLM IND COM PN           R$  000000000314000000000031400000000003060000000000310000000000031370000000003137000000000314000015000000000000002000000000000006201700000000000000009999123100000010000000000000BRWLMMACNPR3118
012024071102VITT3       010VITTIA      ON      NM   R$  000000000058500000000006170000000000585000000000060600000000006170000000000617000000000061800768000000000000208200000000000126286200000000000000009999123100000010000000000000BRVITTACNOR4107
012024071102TASA3       010TAURUS ARMASON      N2   R$  000000000126000000000012730000000001235000000000125900000000012710000000001251000000000127900063000000000000009300000000000011709700000000000000009999123100000010000000000000BRTASAACNOR7104
012024071102VBBR3       010VIBRA       ON      NM   R$  000000000225200000000023090000000002242000000000229200000000023000000000002300000000000230118649000000000005051700000000011582451800000000000000009999123100000010000000000000BRVBBRACNOR1108
012024071102RENT3       010LOCALIZA    ON      NM   R$  000000000458000000000046620000000004549000000000462800000000046600000000004660000000000466121968000000000008646500000000040020773800000000000000009999123100000010000000000000BRRENTACNOR4196
012024071102RCSL3       010RECRUSUL    ON           R$  000000000031700000000003220000000000300000000000031100000000003000000000000300000000000030300478000000000000294100000000000091474900000000000000009999123100000010000000000000BRRCSLACNOR4134
012024071102SRNA3       010SERENA      ON      NM   R$  000000000095000000000009520000000000920000000000093000000000009270000000000923000000000092805485000000000001639400000000001525549400000000000000009999123100000010000000000000BRSRNAACNOR4100
012024071102RAIZ4       010RAIZEN      PN      N2   R$  000000000030300000000003120000000000301000000000030800000000003100000000000309000000000031111641000000000019735600000000006095505200000000000000009999123100000010000000000000BRRAIZACNPR6110
012024071102POMO4       010MARCOPOLO   PN      N2   R$  000000000065100000000006580000000000644000000000065000000000006550000000000653000000000065616201000000000006383800000000004155422500000000000000009999123100000010000000000000BRPOMOACNPR7098
012024071102BPAC11      010BTGP BANCO  UNT EJ  N2   R$  000000000321000000000032100000000003155000000000319000000000031800000000003180000000000318118768000000000021254600000000067815460400000000000000009999123100000010000000000000BRBPACUNT006119
012024071102LPSB3       010LOPES BRASILON      NM   R$  000000000019400000000002000000000000191000000000019200000000001920000000000192000000000019300209000000000000081300000000000015652000000000000000009999123100000010000000000000BRLPSBACNOR0114
012024071102MULT3       010MULTIPLAN   ON      N2   R$  000000000244600000000024750000000002438000000000245400000000024560000000002453000000000245718277000000000007455500000000018296599100000000000000009999123100000010000000000000BRMULTACNOR5139
012024071102INEP3       010INEPAR      ON           R$  000000000020000000000002020000000000197000000000019800000000002000000000000200000000000020200109000000000000047500000000000009447100000000000000009999123100000010000000000000BRINEPACNOR1143
012024071102MWET4       010WETZEL S/A  PN           R$  000000000083700000000008370000000000837000000000083700000000008370000000000801000000000089500001000000000000000100000000000000083700000000000000009999123100000010000000000000BRMWETACNPR3118
012024071102CASH3       010MELIUZ      ON      NM   R$  000000000060700000000006210000000000604000000000061500000000006150000000000614000000000061504038000000000001298900000000000799327100000000000000009999123100000010000000000000BRCASHACNOR8106
012024071102CEAB3       010CEA MODAS   ON      NM   R$  000000000105000000000011000000000001050000000000107600000000011000000000001099000000000110106850000000000002671800000000002876120400000000000000009999123100000010000000000000BRCEABACNOR1102
012024071102EQTL3       010EQUATORIAL  ON      NM   R$  000000000337000000000034120000000003363000000000339500000000033930000000003390000000000340012918000000000004830400000000016400395000000000000000009999123100000010000000000000BREQTLACNOR0130
012024071102NORD3       010NORDON MET  ON           R$  000000000055000000000006200000000000550000000000060900000000006200000000000571000000000060500007000000000000001000000000000000609700000000000000009999123100000010000000000000BRNORDACNOR7135
012024071102BAZA3       010AMAZONIA    ON           R$  000000000991900000000099200000000009860000000000988700000000098610000000009861000000000992000007000000000000000700000000000006921000000000000000009999123100000010000000000000BRBAZAACNOR0179
012024071102PFRM3       010PROFARMA    ON      NM   R$  000000000056200000000005700000000000549000000000056100000000005570000000000557000000000056001063000000000000251000000000000140973600000000000000009999123100000010000000000000BRPFRMACNOR1116
012024071102PLAS3       010PLASCAR PARTON           R$  000000000055100000000005510000000000551000000000055100000000005510000000000551000000000061700001000000000000000100000000000000055100000000000000009999123100000010000000000000BRPLASACNOR2106
012024071102JALL3       010JALLESMACHADON      NM   R$  000000000075000000000007800000000000750000000000076800000000007800000000000770000000000078001993000000000000602900000000000463315800000000000000009999123100000010000000000000BRJALLACNOR0105
012024071102AZEV3       010AZEVEDO     ON           R$  000000000016200000000001630000000000158000000000015900000000001600000000000159000000000016000381000000000000290000000000000046319300000000000000009999123100000010000000000000BRAZEVACNOR0121
012024071102SANB11      010SANTANDER BRUNT          R$  000000000278600000000028610000000002786000000000283500000000028610000000002857000000000286114587000000000004992000000000014156217000000000000000009999123100000010000000000000BRSANBCDAM13164
012024071102SAPR3       010SANEPAR     ON      N2   R$  000000000051300000000005190000000000512000000000051400000000005130000000000512000000000051500330000000000000100100000000000051512500000000000000009999123100000010000000000000BRSAPRACNOR9159
012024071102TRPL4       010TRAN PAULISTPN      N1   R$  000000000274800000000027700000000002710000000000273800000000027100000000002709000000000271010036000000000002328900000000006378034200000000000000009999123100000010000000000000BRTRPLACNPR1185
012024071102SMTO3       010SAO MARTINHOON      NM   R$  000000000326600000000032660000000003213000000000322600000000032150000000003215000000000322003439000000000000520500000000001679478800000000000000009999123100000010000000000000BRSMTOACNOR3126
012024071102SOMA3       010GRUPO SOMA  ON      NM   R$  000000000065100000000006540000000000645000000000064800000000006500000000000649000000000065006928000000000003639000000000002358630000000000000000009999123100000010000000000000BRSOMAACNOR3102
012024071102QUAL3       010QUALICORP   ON      NM   R$  000000000018300000000001920000000000183000000000018800000000001890000000000188000000000018903170000000000002619900000000000494724000000000000000009999123100000010000000000000BRQUALACNOR6120
012024071102SHOW3       010TIME FOR FUNON      NM   R$  000000000017400000000001780000000000170000000000017200000000001700000000000170000000000017100264000000000000166600000000000028805900000000000000009999123100000010000000000000BRSHOWACNOR7105
012024071102VALE3       010VALE        ON      NM   R$  000000000624200000000062690000000006184000000000621600000000062010000000006201000000000620234967000000000013413600000000083390383200000000000000009999123100000010000000000000BRVALEACNOR0210
012024071102WLMM3       010WLM IND COM ON           R$  000000000255100000000025510000000002551000000000255100000000025510000000002060000000000268000001000000000000000100000000000000255100000000000000009999123100000010000000000000BRWLMMACNOR6118
012024071102TRAD3       010TC          ON      NM   R$  000000000006000000000000620000000000059000000000005900000000000600000000000059000000000006000198000000000000541800000000000032193600000000000000009999123100000010000000000000BRTRADACNOR3101
012024071102VIVT3       010TELEF BRASILON           R$  000000000480400000000049060000000004797000000000488200000000049000000000004900000000000490110170000000000002630200000000012840970500000000000000009999123100000010000000000000BRVIVTACNOR0182
012024071102VAMO3       010VAMOS       ON      NM   R$  000000000094400000000009550000000000931000000000094400000000009390000000000938000000000093922874000000000008622700000000008144318400000000000000009999123100000010000000000000BRVAMOACNOR7105
012024071102REDE3       010REDE ENERGIAON  ED       R$  000000000069700000000006980000000000683000000000069400000000006970000000000696000000000070900027000000000000003300000000000002291600000000000000009999123100000010000000000000BRREDEACNOR7128
012024071102RAPT4       010RANDON PART PN      N1   R$  000000000118200000000012160000000001181000000000120600000000012160000000001206000000000121605568000000000001495400000000001803676800000000000000009999123100000010000000000000BRRAPTACNPR4162
012024071102RDOR3       010REDE D OR   ON      NM   R$  000000000286500000000028960000000002850000000000286500000000028650000000002864000000000286914739000000000006605000000000018928492500000000000000009999123100000010000000000000BRRDORACNOR8113
012024071102RAIL3       010RUMO S.A.   ON      NM   R$  000000000224500000000023140000000002245000000000228600000000023110000000002310000000000231227537000000000014239600000000032564201200000000000000009999123100000010000000000000BRRAILACNOR9105
012024071102POMO3       010MARCOPOLO   ON      N2   R$  000000000051000000000005160000000000504000000000051000000000005100000000000510000000000051300722000000000000211300000000000107862100000000000000009999123100000010000000000000BRPOMOACNOR0098
012024071102BBSE3       010BBSEGURIDADEON      NM   R$  000000000333300000000033570000000003323000000000334200000000033550000000003355000000000335609483000000000002573900000000008603193800000000000000009999123100000010000000000000BRBBSEACNOR5124
012024071102LOGN3       010LOG-IN      ON      NM   R$  000000000416200000000042590000000004145000000000420400000000041450000000004145000000000417500139000000000000015900000000000066855000000000000000009999123100000010000000000000BRLOGNACNOR3105
012024071102MTSA4       010METISA      PN           R$  000000000442500000000044800000000004425000000000444700000000044800000000004425000000000448900003000000000000000500000000000002223500000000000000009999123100000010000000000000BRMTSAACNPR9072
012024071102IGTI4       010IGUATEMI S.APN      N1   R$  000000000096200000000009620000000000962000000000096200000000009620000000000900000000000108500001000000000000000200000000000000192400000000000000009999123100000010000000000000BRIGTIACNPR5106
012024071102IRBR3       010IRBBRASIL REON      NM   R$  000000000311100000000031380000000003084000000000310900000000030990000000003098000000000310002966000000000000691400000000002150245500000000000000009999123100000010000000000000BRIRBRACNOR4111
012024071102CAML3       010CAMIL       ON      NM   R$  000000000085700000000008760000000000857000000000086700000000008640000000000863000000000086402636000000000000691400000000000600064200000000000000009999123100000010000000000000BRCAMLACNOR3128
012024071102NEOE3       010NEOENERGIA  ON  EJ  NM   R$  000000000191100000000019310000000001901000000000191300000000019100000000001903000000000191003779000000000000607300000000001162125200000000000000009999123100000010000000000000BRNEOEACNOR3123
012024071102EQPA7       010EQTL PARA   PNC          R$  000000000082400000000008240000000000824000000000082400000000008240000000000700000000000150000001000000000000000100000000000000082400000000000000009999123100000010000000000000BREQPAACNPC0111
012024071102NINJ3       010GETNINJAS   ON      NM   R$  000000000046400000000004710000000000460000000000046500000000004600000000000456000000000047000025000000000000003700000000000001722200000000000000009999123100000010000000000000BRNINJACNOR5101
012024071102BALM3       010BAUMER      ON           R$  000000000124900000000012490000000001249000000000124900000000012490000000001010000000000125000001000000000000000100000000000000124900000000000000009999123100000010000000000000BRBALMACNOR5055
012024071102BBAS3       010BRASIL      ON      NM   R$  000000000266300000000026840000000002632000000000264700000000026480000000002647000000000264833758000000000018918900000000050087244300000000000000009999123100000010000000000000BRBBASACNOR3324
012024071102AFLT3       010AFLUENTE T  ON           R$  000000000071600000000007160000000000715000000000071500000000007160000000000715000000000072300003000000000000000500000000000000357700000000000000009999123100000010000000000000BRAFLTACNOR1122
012024071102BRIT3       010BRISANET    ON      NM   R$  000000000040500000000004150000000000404000000000041100000000004140000000000408000000000041400844000000000000653000000000000268613400000000000000009999123100000010000000000000BRBRITACNOR0103
012024071102BRKM5       010BRASKEM     PNA     N1   R$  000000000187800000000019430000000001878000000000192000000000019270000000001925000000000192711294000000000003686300000000007078479600000000000000009999123100000010000000000000BRBRKMACNPA4121
012024071102ELMD3       010ELETROMIDIA ON      NM   R$  000000000185200000000018940000000001841000000000186600000000018670000000001836000000000186700533000000000000072400000000000135140900000000000000009999123100000010000000000000BRELMDACNOR3101
012024071102EUCA4       010EUCATEX     PN      N1   R$  000000000164100000000016410000000001590000000000160200000000016210000000001596000000000162100399000000000000062400000000000100019700000000000000009999123100000010000000000000BREUCAACNPR8044
012024071102ZAMP3       010ZAMP S.A.   ON           R$  000000000035800000000003630000000000350000000000035400000000003500000000000349000000000035001637000000000000449100000000000159031200000000000000009999123100000010000000000000BRZAMPACNOR5100
012024071102SBSP3       010SABESP      ON      NM   R$  000000000855000000000086000000000008383000000000846200000000084330000000008431000000000844828486000000000004775100000000040410634300000000000000009999123100000010000000000000BRSBSPACNOR5161
012024071102UNIP6       010UNIPAR      PNB          R$  000000000515400000000052300000000005135000000000516800000000051390000000005139000000000516400977000000000000122500000000000633137100000000000000009999123100000010000000000000BRUNIPACNPB8206
012024071102GGPS3       010GPS         ON      NM   R$  000000000174300000000017550000000001712000000000173100000000017120000000001712000000000172506437000000000001503800000000002603166200000000000000009999123100000010000000000000BRGGPSACNOR9103
012024071102DESK3       010DESKTOP     ON      NM   R$  000000000149600000000015480000000001490000000000152000000000015440000000001525000000000154400958000000000000240300000000000365375400000000000000009999123100000010000000000000BRDESKACNOR2104
012024071102AALR3       010ALLIAR      ON      NM   R$  000000000163500000000017110000000001622000000000168300000000017070000000001691000000000170800377000000000000082600000000000139033000000000000000009999123100000010000000000000BRAALRACNOR6102
012024071102BMGB4       010BANCO BMG   PN      N1   R$  000000000035600000000003590000000000355000000000035600000000003560000000000356000000000035800493000000000000218000000000000077749800000000000000009999123100000010000000000000BRBMGBACNPR0109
012024071102BRSR3       010BANRISUL    ON      N1   R$  000000000126200000000012630000000001249000000000125900000000012550000000001255000000000126300030000000000000005800000000000007302200000000000000009999123100000010000000000000BRBRSRACNOR3188
012024071102ENAT3       010ENAUTA PART ON      NM   R$  000000000225000000000022790000000002185000000000221800000000022320000000002227000000000223307461000000000001828100000000004056124800000000000000009999123100000010000000000000BRENATACNOR0104
012024071102ENGI4       010ENERGISA    PN      N2   R$  000000000080200000000008160000000000802000000000080600000000008160000000000807000000000081900011000000000000003300000000000002660200000000000000009999123100000010000000000000BRENGIACNPR7141
012024071102IFCM3       010INFRACOMM   ON      NM   R$  000000000004400000000000460000000000041000000000004200000000000430000000000042000000000004304367000000000013369700000000000569883300000000000000009999123100000010000000000000BRIFCMACNOR8101
012024071102LEVE3       010METAL LEVE  ON      NM   R$  000000000331100000000033770000000003311000000000334500000000033700000000003364000000000337001833000000000000288900000000000966599200000000000000009999123100000010000000000000BRLEVEACNOR2197
012024071102ASAI3       010ASSAI       ON      NM   R$  000000000114500000000011580000000001107000000000112200000000011250000000001125000000000112623365000000000013851900000000015543301900000000000000009999123100000010000000000000BRASAIACNOR0106
012024071102ANIM3       010ANIMA       ON      NM   R$  000000000038800000000003900000000000378000000000038300000000003820000000000382000000000038505611000000000005083800000000001951478600000000000000009999123100000010000000000000BRANIMACNOR6107
012024071102CEBR5       010CEB         PNA          R$  000000000181800000000018180000000001818000000000181800000000018180000000001814000000000182600001000000000000000100000000000000181800000000000000009999123100000010000000000000BRCEBRACNPA8124
012024071102ITSA4       010ITAUSA      PN      N1   R$  000000000101200000000010160000000001009000000000101200000000010160000000001014000000000101620142000000000016364300000000016573678200000000000000009999123100000010000000000000BRITSAACNPR7441
012024071102CMIN3       010CSNMINERACAOON      N2   R$  000000000052900000000005360000000000525000000000053200000000005340000000000534000000000053507508000000000006611600000000003518673700000000000000009999123100000010000000000000BRCMINACNOR2111
012024071102CYRE3       010CYRELA REALTON      NM   R$  000000000208000000000021250000000002065000000000210000000000021170000000002114000000000211917933000000000007928700000000016656142900000000000000009999123100000010000000000000BRCYREACNOR7140
012024071108CTNM4       010COTEMINAS   PN           R$  000000000007700000000000770000000000077000000000007700000000000770000000000075000000000007700018000000000000025300000000000001948100000000000000009999123100000010000000000000BRCTNMACNPR6129
012024071108BDLL3       010BARDELLA    ON           R$  000000000130100000000013010000000001301000000000130100000000013010000000001200000000000130100001000000000000000100000000000000130100000000000000009999123100000010000000000000BRBDLLACNOR1149
012024071108RNEW3       010RENOVA      ON      N2   R$  000000000009200000000000920000000000090000000000009000000000000900000000000090000000000009100067000000000000032200000000000002916700000000000000009999123100000010000000000000BRRNEWACNOR8110
012024071108OIBR4       010OI          PN      N1   R$  000000000152800000000015800000000001522000000000155200000000015220000000001530000000000153500088000000000000015400000000000023907400000000000000009999123100000010000000000000BROIBRACNPR8110
012024071108LIGT3       010LIGHT S/A   ON      NM   R$  000000000050800000000005120000000000502000000000050700000000005060000000000505000000000050601086000000000000232700000000000118083200000000000000009999123100000010000000000000BRLIGTACNOR2124
012024071108AMER3       010AMERICANAS  ON      NM   R$  000000000008300000000000860000000000076000000000007900000000000770000000000077000000000007816455000000000060402300000000004809979400000000000000009999123100000010000000000000BRAMERACNOR6102
012024071112DAMA11      010FII DAMA    CI  ER       R$  000000000100600000000010060000000001000000000000100200000000010060000000001000000000000100600020000000000000000792000000000000793692000000000000009999123100000010000000000000BRDAMACTF007101
012024071102BIOM3       010BIOMM       ON      MA   R$  000000000145700000000014610000000001405000000000142300000000014050000000001405000000000142400369000000000000094400000000000134394800000000000000009999123100000010000000000000BRBIOMACNOR2112
012024071102AGRO3       010BRASILAGRO  ON      NM   R$  000000000267700000000027020000000002656000000000268500000000027020000000002688000000000270201568000000000000250500000000000672592900000000000000009999123100000010000000000000BRAGROACNOR7114
012024071102ALLD3       010ALLIED      ON      NM   R$  000000000078000000000007980000000000755000000000078200000000007680000000000767000000000076800573000000000000146000000000000114224300000000000000009999123100000010000000000000BRALLDACNOR3106
012024071102CSED3       010CRUZEIRO EDUON      NM   R$  000000000041900000000004320000000000413000000000041900000000004220000000000419000000000042201186000000000000398100000000000167083100000000000000009999123100000010000000000000BRCSEDACNOR9104
012024071102EMAE4       010EMAE        PN           R$  000000000479900000000048780000000004799000000000483100000000048780000000004730000000000488000007000000000000000900000000000004348500000000000000009999123100000010000000000000BREMAEACNPR1125
012024071102EVEN3       010EVEN        ON      NM   R$  000000000065800000000006670000000000653000000000066200000000006640000000000664000000000066502533000000000000592400000000000392302400000000000000009999123100000010000000000000BREVENACNOR8119
012024071102PRNR3       010PRINER      ON      NM   R$  000000000107000000000010830000000001041000000000106900000000010760000000001075000000000107701428000000000000284700000000000304497200000000000000009999123100000010000000000000BRPRNRACNOR4109
012024071102SCAR3       010SAO CARLOS  ON      NM   R$  000000000231400000000023140000000002270000000000228300000000023000000000002277000000000231800015000000000000002300000000000005251400000000000000009999123100000010000000000000BRSCARACNOR7131
012024071102USIM3       010USIMINAS    ON      N1   R$  000000000075000000000007640000000000750000000000075900000000007620000000000757000000000076201328000000000000217700000000000165275500000000000000009999123100000010000000000000BRUSIMACNOR3167
012024071102GMAT3       010GRUPO MATEUSON      NM   R$  000000000072800000000007370000000000716000000000072400000000007260000000000725000000000072706311000000000003755000000000002719124200000000000000009999123100000010000000000000BRGMATACNOR7102
012024071102DEXP3       010DEXXOS PAR  ON      N1   R$  000000000102800000000010600000000001028000000000104900000000010480000000001047000000000105700262000000000000049400000000000051850400000000000000009999123100000010000000000000BRDEXPACNOR1105
012024071102ABCB4       010ABC BRASIL  PN      N2   R$  000000000226400000000022950000000002247000000000227800000000022950000000002286000000000229502175000000000000315700000000000719345900000000000000009999123100000010000000000000BRABCBACNPR4146
012024071102BMKS3       010BIC MONARK  ON           R$  000000003419900000000348900000000032901000000003464800000000340000000000033201000000003469900011000000000000000075000000000002598656000000000000009999123100000010000000000000BRBMKSACNOR9166
012024071102BRSR5       010BANRISUL    PNA     N1   R$  000000000169900000000016990000000001699000000000169900000000016990000000001451000000000170000001000000000000000100000000000000169900000000000000009999123100000010000000000000BRBRSRACNPA6192
012024071102ENEV3       010ENEVA       ON      NM   R$  000000000134600000000013540000000001330000000000133900000000013310000000001330000000000133209379000000000002714200000000003635190400000000000000009999123100000010000000000000BRENEVACNOR8106
012024071102ENJU3       010ENJOEI      ON      NM   R$  000000000021600000000002220000000000215000000000021800000000002200000000000217000000000022001389000000000000465900000000000101986500000000000000009999123100000010000000000000BRENJUACNOR9100
012024071102KRSA3       010KORA SAUDE  ON      NM   R$  000000000006700000000000690000000000066000000000006700000000000670000000000066000000000006700886000000000000357400000000000024099200000000000000009999123100000010000000000000BRKRSAACNOR0100
012024071102APER3       010ALPER S.A.  ON           R$  000000000465000000000046500000000004650000000000465000000000046500000000004650000000000469000001000000000000000400000000000001860000000000000000009999123100000010000000000000BRAPERACNOR9106
012024071102ATOM3       010ATOMPAR     ON           R$  000000000020700000000002070000000000201000000000020500000000002070000000000205000000000020700022000000000000003200000000000000657400000000000000009999123100000010000000000000BRATOMACNOR1106
012024071102BBDC3       010BRADESCO    ON  EJ  N1   R$  000000000115800000000011630000000001152000000000115700000000011590000000001158000000000115908079000000000011949100000000013830121800000000000000009999123100000010000000000000BRBBDCACNOR1772
012024071102CEBR6       010CEB         PNB          R$  000000000194900000000019550000000001943000000000195100000000019470000000001940000000000195000016000000000000005400000000000010540700000000000000009999123100000010000000000000BRCEBRACNPB6124
012024071102LUPA3       010LUPATECH    ON      NM   R$  000000000016900000000001720000000000167000000000016800000000001680000000000168000000000016900148000000000000140600000000000023760100000000000000009999123100000010000000000000BRLUPAACNOR8112
012024071102COCE5       010COELCE      PNA          R$  000000000310000000000031320000000003077000000000309100000000031100000000003110000000000314500074000000000000010600000000000032766900000000000000009999123100000010000000000000BRCOCEACNPA3147
012024071102FRAS3       010FRAS-LE     ON      N1   R$  000000000201500000000020450000000002015000000000203500000000020450000000002035000000000204502010000000000000423500000000000862207200000000000000009999123100000010000000000000BRFRASACNOR0159
012024071108CTSA3       010SANTANENSE  ON           R$  000000000026700000000002740000000000250000000000025600000000002520000000000252000000000026000043000000000000008900000000000002278800000000000000009999123100000010000000000000BRCTSAACNOR3062
012024071108BDLL4       010BARDELLA    PN           R$  000000000100000000000010000000000001000000000000100000000000010000000000000960000000000103500001000000000000000100000000000000100000000000000000009999123100000010000000000000BRBDLLACNPR8151
012024071108RNEW4       010RENOVA      PN      N2   R$  000000000009000000000000920000000000090000000000009000000000000910000000000090000000000009100090000000000000065000000000000005893900000000000000009999123100000010000000000000BRRNEWACNPR5110
012024071108OSXB3       010OSX BRASIL  ON      NM   R$  000000000038800000000003880000000000383000000000038500000000003830000000000383000000000039100005000000000000002200000000000000848600000000000000009999123100000010000000000000BROSXBACNOR8109
012024071108NEXP3       010NEXPE       ON           R$  000000000043000000000004300000000000426000000000042800000000004260000000000420000000000042900003000000000000000700000000000000300100000000000000009999123100000010000000000000BRNEXPACNOR0101
012024071110VIVR1       010VIVER       DIR ORD NM   R$  000000000000100000000000010000000000001000000000000100000000000010000000000000000000000000100011000000000000154900000000000000154900000000000000009999123100000010000000000000BRVIVRD18OR3122
012024071112DAMT11      010FII DIAMANTECI           R$  000000000090000000000009000000000000900000000000090000000000009000000000000800000000000090000002000000000000000014000000000000012600000000000000009999123100000010000000000000BRDAMTCTF007117
012024071102AESB3       010AES BRASIL  ON      NM   R$  000000000113900000000011420000000001137000000000114000000000011420000000001141000000000114204363000000000009224500000000010519226200000000000000009999123100000010000000000000BRAESBACNOR7106
012024071102BLAU3       010BLAU        ON      NM   R$  000000000119800000000012030000000001160000000000117800000000011600000000001160000000000117100981000000000000218500000000000257498400000000000000009999123100000010000000000000BRBLAUACNOR8114
012024071102BRKM3       010BRASKEM     ON      N1   R$  000000000191000000000019300000000001905000000000191900000000019130000000001912000000000193500092000000000000017400000000000033404700000000000000009999123100000010000000000000BRBRKMACNOR1119
012024071102CSNA3       010SID NACIONALON           R$  000000000129900000000013240000000001294000000000131000000000013100000000001309000000000131108437000000000010232100000000013409431000000000000000009999123100000010000000000000BRCSNAACNOR6261
012024071102EUCA3       010EUCATEX     ON      N1   R$  000000000162800000000016440000000001628000000000163300000000016440000000001644000000000171000002000000000000000300000000000000490000000000000000009999123100000010000000000000BREUCAACNOR1157
012024071102YDUQ3       010YDUQS PART  ON      NM   R$  000000000121900000000012220000000001164000000000118200000000011800000000001180000000000118112754000000000004418100000000005225668900000000000000009999123100000010000000000000BRYDUQACNOR3105
012024071102SBFG3       010GRUPO SBF   ON      NM   R$  000000000135000000000013650000000001335000000000134800000000013490000000001348000000000135009398000000000002221700000000002995868500000000000000009999123100000010000000000000BRSBFGACNOR1103
012024071102UNIP5       010UNIPAR      PNA          R$  000000000529600000000052960000000005296000000000529600000000052960000000005120000000000539900004000000000000000400000000000002118400000000000000009999123100000010000000000000BRUNIPACNPA0208
012024071102WEST3       010WESTWING    ON      NM   R$  000000000009500000000000960000000000090000000000009300000000000940000000000093000000000009500075000000000000099600000000000009360800000000000000009999123100000010000000000000BRWESTACNOR3100
012024071102GOAU4       010GERDAU MET  PN      N1   R$  000000000105800000000010680000000001053000000000106400000000010660000000001065000000000106711460000000000005384500000000005729305300000000000000009999123100000010000000000000BRGOAUACNPR8268
012024071102DIRR3       010DIRECIONAL  ON  ED  NM   R$  000000000276600000000028400000000002748000000000280900000000028090000000002808000000000281011549000000000002936600000000008249234300000000000000009999123100000010000000000000BRDIRRACNOR0118
012024071102BMEB4       010MERCANTIL   PN      N1   R$  000000000298300000000029980000000002927000000000296600000000029980000000002998000000000299900041000000000000007900000000000023436200000000000000009999123100000010000000000000BRBMEBACNPR5210
012024071102BOBR4       010BOMBRIL     PN           R$  000000000020500000000002080000000000203000000000020500000000002050000000000204000000000020600030000000000000006200000000000001271100000000000000009999123100000010000000000000BRBOBRACNPR3128
012024071102BSLI4       010BRB BANCO   PN           R$  000000000104000000000010400000000001040000000000104000000000010400000000001001000000000104900001000000000000000100000000000000104000000000000000009999123100000010000000000000BRBSLIACNPR2194
012024071102ENGI3       010ENERGISA    ON      N2   R$  000000000154000000000015500000000001520000000000153600000000015200000000001520000000000157000021000000000000003000000000000004610200000000000000009999123100000010000000000000BRENGIACNOR0145
012024071102EPAR3       010EMBPAR S/A  ON           R$  000000000063000000000006300000000000626000000000062800000000006280000000000628000000000063000028000000000000009200000000000005783800000000000000009999123100000010000000000000BREPARACNOR9105
012024071102LAVV3       010LAVVI       ON      NM   R$  000000000091000000000009500000000000909000000000093400000000009500000000000945000000000095004100000000000001444200000000001349756500000000000000009999123100000010000000000000BRLAVVACNOR4112
012024071102ARZZ3       010AREZZO CO   ON  ED  NM   R$  000000000538500000000054400000000005359000000000539900000000053900000000005389000000000539005635000000000001247300000000006734301800000000000000009999123100000010000000000000BRARZZACNOR3147
012024071102AMBP3       010AMBIPAR     ON      NM   R$  000000000229200000000023490000000002160000000000224900000000022300000000002229000000000223015611000000000006508800000000014640437900000000000000009999123100000010000000000000BRAMBPACNOR6103
012024071102CEBR3       010CEB         ON           R$  000000000210100000000021050000000002080000000000209400000000020800000000002050000000000209000007000000000000000900000000000001885000000000000000009999123100000010000000000000BRCEBRACNOR5125
012024071102ITSA3       010ITAUSA      ON      N1   R$  000000000101100000000010170000000001011000000000101400000000010140000000001014000000000101600309000000000000116100000000000117828500000000000000009999123100000010000000000000BRITSAACNOR0441
012024071102LWSA3       010LWSA        ON      NM   R$  000000000047500000000004820000000000468000000000047400000000004710000000000470000000000047112550000000000008332500000000003957438300000000000000009999123100000010000000000000BRLWSAACNOR8103
012024071102CXSE3       010CAIXA SEGURION      NM   R$  000000000142900000000014370000000001422000000000142900000000014270000000001427000000000143108490000000000002815100000000004025166100000000000000009999123100000010000000000000BRCXSEACNOR7106
012024071108JFEN3       010JOAO FORTES ON           R$  000000000003600000000000400000000000032000000000003500000000000330000000000032000000000003302199000000000004726300000000000169504300000000000000009999123100000010000000000000BRJFENACNOR0059
012024071108HOOT4       010HOTEIS OTHONPN           R$  000000000025600000000002560000000000256000000000025600000000002560000000000256000000000026000001000000000000000100000000000000025600000000000000009999123100000010000000000000BRHOOTACNPR9015
012024071108RNEW11      010RENOVA      UNT     N2   R$  000000000027500000000002800000000000272000000000027500000000002730000000000272000000000027300025000000000000003800000000000001045700000000000000009999123100000010000000000000BRRNEWCDAM15110
012024071108OIBR3       010OI          ON      N1   R$  000000000059900000000006200000000000590000000000060500000000005950000000000593000000000059501179000000000000739100000000000447849100000000000000009999123100000010000000000000BROIBRACNOR1111
012024071108PMAM3       010PARANAPANEMAON      NM   R$  000000000024200000000002420000000000238000000000024000000000002380000000000238000000000024000125000000000000149200000000000035847900000000000000009999123100000010000000000000BRPMAMACNOR3039
012024071108ATMP3       010ATMASA      ON           R$  000000000019800000000002000000000000195000000000019800000000002000000000000197000000000020000021000000000000010300000000000002047000000000000000009999123100000010000000000000BRATMPACNOR8100
012024071110EQTL9       010EQUATORIAL  ON  REC NM   R$  000000000331000000000033990000000003310000000000336000000000033990000000003290000000000340000010000000000000001200000000000004032000000000000000009999123100000010000000000000BREQTLR03OR1129
012024071112DRIT11      010FII MTGESTAOCI  ER       R$  000000000847000000000084700000000008368000000000838200000000083680000000008400000000000847000003000000000000000007000000000000058678000000000000009999123100000010000000000000BRDRITCTF009254
012024071102AERI3       010AERIS       ON      NM   R$  000000000069300000000006930000000000666000000000067500000000006710000000000671000000000067500550000000000000149600000000000101094500000000000000009999123100000010000000000000BRAERIACNOR4102
012024071102AGXY3       010AGROGALAXY  ON      NM   R$  000000000016900000000001720000000000155000000000016000000000001600000000000160000000000016200894000000000000765200000000000122895800000000000000009999123100000010000000000000BRAGXYACNOR4103
012024071102ALOS3       010ALLOS       ON      NM   R$  000000000221000000000022280000000002178000000000219500000000021900000000002188000000000219013461000000000008939700000000019623869200000000000000009999123100000010000000000000BRALOSACNOR5101
012024071102CSMG3       010COPASA      ON      NM   R$  000000000206200000000020880000000002055000000000207100000000020600000000002060000000000206204246000000000000991700000000002054069600000000000000009999123100000010000000000000BRCSMGACNOR5174
012024071102EMBR3       010EMBRAER     ON      NM   R$  000000000397200000000040610000000003957000000000401400000000040500000000004049000000000405017723000000000005836300000000023430240800000000000000009999123100000010000000000000BREMBRACNOR4191
012024071102EZTC3       010EZTEC       ON      NM   R$  000000000143800000000014780000000001438000000000146700000000014600000000001460000000000146408489000000000002202700000000003231504500000000000000009999123100000010000000000000BREZTCACNOR0125
012024071102PSSA3       010PORTO SEGUROON      NM   R$  000000000294500000000029600000000002931000000000294700000000029570000000002950000000000295806399000000000003028500000000008926465200000000000000009999123100000010000000000000BRPSSAACNOR7155
012024071102UNIP3       010UNIPAR      ON           R$  000000000505300000000051080000000004991000000000505800000000049910000000004991000000000505500068000000000000007500000000000037939500000000000000009999123100000010000000000000BRUNIPACNOR7206
012024071102USIM5       010USIMINAS    PNA     N1   R$  000000000079600000000008020000000000794000000000079800000000008000000000000798000000000080010080000000000008336800000000006656086400000000000000009999123100000010000000000000BRUSIMACNPA6169
012024071102GOAU3       010GERDAU MET  ON      N1   R$  000000000107600000000010790000000001070000000000107400000000010740000000001073000000000107600156000000000000036100000000000038787300000000000000009999123100000010000000000000BRGOAUACNOR1267
012024071102DEXP4       010DEXXOS PAR  PN      N1   R$  000000000102000000000010220000000001020000000000102000000000010200000000001012000000000102000045000000000000016100000000000016428700000000000000009999123100000010000000000000BRDEXPACNPR8105
012024071102ABEV3       010AMBEV S/A   ON  ATZ      R$  000000000114500000000011670000000001140000000000115700000000011530000000001153000000000115431403000000000022185700000000025670675100000000000000009999123100000010000000000000BRABEVACNOR1128
012024071102BMOB3       010BEMOBI TECH ON      NM   R$  000000000148100000000015090000000001480000000000149500000000014910000000001486000000000149602805000000000000522100000000000780939500000000000000009999123100000010000000000000BRBMOBACNOR7103
012024071102BRSR6       010BANRISUL    PNB     N1   R$  000000000116900000000012010000000001169000000000118800000000011930000000001193000000000119904630000000000001527300000000001815795300000000000000009999123100000010000000000000BRBRSRACNPB4191
012024071102ENGI11      010ENERGISA    UNT     N2   R$  000000000478400000000048200000000004771000000000480100000000047990000000004794000000000479909905000000000001664300000000007990469500000000000000009999123100000010000000000000BRENGICDAM16135
012024071102ENMT4       010ENERGISA MT PN  ED       R$  000000000745500000000074550000000007455000000000745500000000074550000000000000000000000745500001000000000000000200000000000001491000000000000000009999123100000010000000000000BRENMTACNPR2126
012024071102LAND3       010TERRASANTAPAON      NM   R$  000000000142400000000014270000000001407000000000141800000000014240000000001410000000000142400223000000000000038500000000000054629100000000000000009999123100000010000000000000BRLANDACNOR9103
012024071102ARML3       010ARMAC       ON  EDJ NM   R$  000000000110800000000011100000000001076000000000109200000000010760000000001076000000000108303989000000000000905200000000000989011000000000000000009999123100000010000000000000BRARMLACNOR1112
012024071102AMAR3       010LOJAS MARISAON      NM   R$  000000000014800000000001490000000000144000000000014500000000001460000000000145000000000014600795000000000000559300000000000081448100000000000000009999123100000010000000000000BRAMARACNOR4115
012024071102BBDC4       010BRADESCO    PN  EJ  N1   R$  000000000127200000000012790000000001261000000000126600000000012670000000001267000000000126830260000000000035308200000000044713480100000000000000009999123100000010000000000000BRBBDCACNPR8772
012024071102CEDO4       010CEDRO       PN      N1   R$  000000000217200000000021720000000002110000000000216400000000021100000000002106000000000222000010000000000000001700000000000003680000000000000000009999123100000010000000000000BRCEDOACNPR5128
012024071102LVTC3       010WDC NETWORKSON      NM   R$  000000000036600000000003800000000000366000000000037200000000003800000000000376000000000038000029000000000000015200000000000005659300000000000000009999123100000010000000000000BRLVTCACNOR4102
012024071102COGN3       010COGNA ON    ON      NM   R$  000000000018700000000001920000000000185000000000018900000000001900000000000189000000000019015056000000000022407300000000004239029800000000000000009999123100000010000000000000BRCOGNACNOR2104
012024071107NUTR3       010NUTRIPLANT  ON      MA   R$  000000000048900000000004920000000000473000000000048100000000004820000000000474000000000048200038000000000000006700000000000003224300000000000000009999123100000010000000000000BRNUTRACNOR0104
012024071108CTSA4       010SANTANENSE  PN           R$  000000000011700000000001230000000000107000000000011200000000001110000000000111000000000011300221000000000000160500000000000018048700000000000000009999123100000010000000000000BRCTSAACNPR0062
012024071108RSID3       010ROSSI RESID ON      NM   R$  000000000050700000000005140000000000488000000000049600000000005080000000000499000000000050800190000000000000076000000000000037727700000000000000009999123100000010000000000000BRRSIDACNOR8120
012024071108RPMG3       010PET MANGUINHON           R$  000000000025700000000002680000000000257000000000026400000000002620000000000261000000000026600143000000000000018800000000000004975800000000000000009999123100000010000000000000BRRPMGACNOR9194
012024071108SGPS3       010SPRINGS     ON  EG  NM   R$  000000000019700000000001970000000000197000000000019700000000001970000000000195000000000019700021000000000000019900000000000003920300000000000000009999123100000010000000000000BRSGPSACNOR4105
012024071108ETER3       010ETERNIT     ON      NM   R$  000000000062200000000006350000000000622000000000062900000000006310000000000628000000000063100387000000000000092700000000000058343000000000000000009999123100000010000000000000BRETERACNOR3243
012024071110RENT1       010LOCALIZA    DIR ORD NM   R$  000000000130000000000014000000000001263000000000131600000000014000000000001400000000000140400654000000000000117300000000000154404600000000000000009999123100000010000000000000BRRENTD06OR8195
012024071112DPRO11      010FII DEVA PROCI  ER       R$  000000000069200000000007180000000000692000000000071400000000007150000000000690000000000071500005000000000000000010000000000000007148000000000000009999123100000010000000000000BRDPROCTF005125
012024071112DVFF11      010FII DEVA FOFCI  ER       R$  000000000074400000000007490000000000738000000000074300000000007390000000000739000000000074000079000000000000000930000000000000691729000000000000009999123100000010000000000000BRDVFFCTF006139
012024071112MGHT11      010FII MOGNO HTCI  ER       R$  000000000283500000000029000000000002503000000000263900000000026030000000002603000000000265000893000000000000020987000000000055397842000000000000009999123100000010000000000000BRMGHTCTF005155
012024071112GCRI11      010FII GLPG CRICI           R$  000000000719500000000072380000000007100000000000716600000000071940000000007180000000000719400315000000000000006395000000000045827392000000000000009999123100000010000000000000BRGCRICTF008144
012024071112HTMX11      010FII HOTEL MXCI           R$  000000001792200000000179750000000017701000000001784200000000178200000000017770000000001782001027000000000000005243000000000093547666000000000000009999123100000010000000000000BRHTMXCTF000281
012024071112JFLL11      010FII JFL LIV CI           R$  000000000742000000000074860000000007419000000000742300000000074860000000007432000000000749600017000000000000000261000000000001937629000000000000009999123100000010000000000000BRJFLLCTF002141
012024071112CVBI11      010FII VBI CRI CI  ER       R$  000000000914900000000091510000000009061000000000911400000000091170000000009093000000000911705381000000000000028031000000000255476087000000000000009999123100000010000000000000BRCVBICTF001167
012024071112KCRE11      010FII KINEA CRCI           R$  000000000096300000000009630000000000954000000000095600000000009560000000000956000000000095700640000000000000015027000000000014376571000000000000009999123100000010000000000000BRKCRECTF009126
012024071112KIVO11      010FII KIVO    CI           R$  000000000835900000000083930000000008282000000000831800000000083200000000008283000000000832001930000000000000008650000000000071954113000000000000009999123100000010000000000000BRKIVOCTF007128
012024071112FCFL11      010FII CAMPUSFLCI           R$  000000001151500000000115190000000011408000000001150400000000115190000000011410000000001151901034000000000000006392000000000073536898000000000000009999123100000010000000000000BRFCFLCTF009270
012024071112FISC11      010FII SC 401  CI  ER       R$  000000000690000000000069000000000006111000000000650500000000061110000000006180000000000690000002000000000000000004000000000000026022000000000000009999123100000010000000000000BRFISCCTF008137
012024071112FLRP11      010FII FLORIPA CI           R$  000000020700000000002070000000000207000000000020700000000002070000000000204000000000020960000001000000000000000001000000000000207000000000000000009999123100000010000000000000BRFLRPCTF006272
012024071112BRCR11      010FII BC FUND CI  ER       R$  000000000496300000000050190000000004963000000000499800000000050000000000004998000000000500006781000000000000021315000000000106544791000000000000009999123100000010000000000000BRBRCRCTF000268
012024071112HDEL11      010FII HEDGE DVCI           R$  000000001099900000000109990000000010999000000001099900000000109990000000000000000000001099900001000000000000000001000000000000010999000000000000009999123100000010000000000000BRHDELCTF006104
012024071112HGCR11      010FII HGCR PAXCI           R$  000000001038300000000104200000000010358000000001037800000000103600000000010360000000001036902380000000000000021195000000000219966720000000000000009999123100000010000000000000BRHGCRCTF000247
012024071112HGPO11      010FII HGPO PAXCI           R$  000000003080000000000311000000000030760000000003099600000000308990000000030899000000003098400207000000000000000770000000000023867298000000000000009999123100000010000000000000BRHGPOCTF009162
012024071112HOFC11      010FII HOFFICEICI           R$  000000000291900000000029900000000002805000000000288100000000029500000000002950000000000300100952000000000000004294000000000012374907000000000000009999123100000010000000000000BRHOFCCTF009115
012024071112HREC11      010FII HEDGERECCI           R$  000000000085600000000008780000000000856000000000087200000000008740000000000874000000000087600751000000000000138796000000000121102446000000000000009999123100000010000000000000BRHRECCTF005150
012024071112BCRI11      010FII BEES CRICI           R$  000000000664500000000066500000000006581000000000661300000000066080000000006608000000000662200343000000000000004409000000000029160109000000000000009999123100000010000000000000BRBCRICTF009216
012024071112CPLG11      010FII CPLG    CI           R$  000000000105000000000010500000000001050000000000105000000000010500000000000990000000000105000001000000000000000020000000000000021000000000000000009999123100000010000000000000BRCPLGCTF006100
012024071112EDFO11      010FII OURINVESCI           R$  000000001899900000000189990000000018999000000001899900000000189990000000018001000000001899900005000000000000000053000000000001006947000000000000009999123100000010000000000000BREDFOCTF004324
012024071112MCCI11      010FII MAUA    CI  ER       R$  000000000911400000000091350000000009061000000000909300000000091080000000009082000000000910801591000000000000029644000000000269571910000000000000009999123100000010000000000000BRMCCICTF008163
012024071112VRTA11      010FII FATOR VECI           R$  000000000882000000000088300000000008718000000000876400000000087520000000008752000000000877004448000000000000016579000000000145300250000000000000009999123100000010000000000000BRVRTACTF008261
012024071112VTLT11      010FII VOT LOG CI           R$  000000000932000000000093670000000009310000000000933100000000093110000000009311000000000935000815000000000000001213000000000011318754000000000000009999123100000010000000000000BRVTLTCTF001173
012024071112RZAT11      010FII ARCTIUM CI           R$  000000000976000000000098010000000009749000000000978500000000097950000000009793000000000979500404000000000000005875000000000057492417000000000000009999123100000010000000000000BRRZATCTF009117
012024071112TJKB11      010FII TJK RENDCI           R$  000000002830000000000283000000000028300000000002830000000000283000000000027000000000002830000003000000000000000038000000000001075400000000000000009999123100000010000000000000BRTJKBCTF006130
012024071112RNDP11      010FII BB R PAPCI           R$  000000000654000000000067490000000006540000000000669200000000066790000000006600000000000674800017000000000000000130000000000000869984000000000000009999123100000010000000000000BRRNDPCTF007249
012024071112GZIT11      010FII GAZIT   CI           R$  000000000557900000000056500000000005550000000000558500000000055610000000005561000000000556208505000000000000025920000000000144766815000000000000009999123100000010000000000000BRGZITCTF005108
012024071112OURE11      010FII OU RENDACI           R$  000000000788900000000079000000000007728000000000779400000000078250000000007810000000000782501502000000000000004900000000000038194313000000000000009999123100000010000000000000BROURECTF003143
012024071112VVRI11      010FII V2 RENDACI           R$  000000001044100000000104410000000010441000000001044100000000104410000000009900000000001099400001000000000000000002000000000000020882000000000000009999123100000010000000000000BRVVRICTF007116
012024071112HABT11      010FII HABIT IICI           R$  000000000869100000000087590000000008664000000000870900000000087010000000008701000000000872702575000000000000015946000000000138878438000000000000009999123100000010000000000000BRHABTCTF001161
012024071112JSAF11      010FII JS A FINCI           R$  000000000942900000000094940000000009400000000000942200000000094220000000009415000000000942200714000000000000014489000000000136526257000000000000009999123100000010000000000000BRJSAFCTF000134
012024071112MFII11      010FII MERITO ICI           R$  000000001004200000000101230000000010042000000001006300000000100630000000010047000000001006300542000000000000005096000000000051283243000000000000009999123100000010000000000000BRMFIICTF008236
012024071112GARE11      010FII GUARDIANCI           R$  000000000090700000000009100000000000905000000000090700000000009080000000000908000000000090911117000000000000349371000000000317204220000000000000009999123100000010000000000000BRGARECTF001105
