00COTAHIST.2024BOVESPA 20241107                                                                                                                                                                                                                      
012024110702AZEV3       010AZEVEDO     ON           R$  000000000012000000000001230000000000117000000000011900000000001180000000000117000000000011800182000000000000192900000000000023072000000000000000009999123100000010000000000000BRAZEVACNOR0121
012024110702AZEV4       010AZEVEDO     PN           R$  000000000012000000000001230000000000116000000000011800000000001160000000000116000000000011700838000000000002462200000000000292878200000000000000009999123100000010000000000000BRAZEVACNPR7121
012024110702AZUL4       010AZUL        PN      N2   R$  000000000053400000000005420000000000505000000000051900000000005120000000000511000000000051212199000000000022590800000000011745585100000000000000009999123100000010000000000000BRAZULACNPR4103
012024110702BRSR3       010BANRISUL    ON      N1   R$  000000000122200000000012390000000001175000000000119500000000011960000000001181000000000122500092000000000000015800000000000018882500000000000000009999123100000010000000000000BRBRSRACNOR3189
012024110702BRSR6       010BANRISUL    PNB     N1   R$  000000000112400000000011310000000001107000000000111600000000011170000000001110000000000111702465000000000001079200000000001204649600000000000000009999123100000010000000000000BRBRSRACNPB4192
012024110702CCRO3       010CCR SA      ON  ED  NM   R$  000000000120100000000012250000000001196000000000120700000000012070000000001207000000000120812329000000000009199100000000011111599900000000000000009999123100000010000000000000BRCCROACNOR2146
012024110702CEAB3       010CEA MODAS   ON      NM   R$  000000000138900000000014100000000001251000000000132100000000012600000000001255000000000126016074000000000007627000000000010081686200000000000000009999123100000010000000000000BRCEABACNOR1102
012024110702CPLE5       010COPEL       PNA     N2   R$  000000000113600000000011360000000001034000000000105400000000010340000000001033000000000118000005000000000000000500000000000000527200000000000000009999123100000010000000000000BRCPLEACNPA1148
012024110702CPLE6       010COPEL       PNB     N2   R$  000000000096300000000009770000000000944000000000095500000000009530000000000953000000000095419289000000000019060700000000018221590700000000000000009999123100000010000000000000BRCPLEACNPB9147
012024110702CRFB3       010CARREFOUR BRON      NM   R$  000000000073800000000007560000000000703000000000072200000000007100000000000710000000000071315257000000000014556500000000010517924900000000000000009999123100000010000000000000BRCRFBACNOR2116
012024110702GRND3       010GRENDENE    ON      NM   R$  000000000052800000000005430000000000527000000000053200000000005320000000000532000000000053503874000000000001496600000000000797547800000000000000009999123100000010000000000000BRGRNDACNOR3175
012024110702LJQQ3       010QUERO-QUERO ON      NM   R$  000000000029400000000003000000000000282000000000029100000000002840000000000284000000000028606577000000000007879000000000002294420600000000000000009999123100000010000000000000BRLJQQACNOR5104
012024110702AERI3       010AERIS       ON      NM   R$  000000000066200000000006620000000000578000000000061800000000005800000000000580000000000058302105000000000001066500000000000659315200000000000000009999123100000010000000000000BRAERIACNOR4102
012024110702AFLT3       010AFLUENTE T  ON           R$  000000000075800000000007580000000000758000000000075800000000007580000000000701000000000075800001000000000000000100000000000000075800000000000000009999123100000010000000000000BRAFLTACNOR1122
012024110702AGRO3       010BRASILAGRO  ON      NM   R$  000000000245900000000025330000000002355000000000243100000000023600000000002360000000000236803566000000000000608000000000001478274300000000000000009999123100000010000000000000BRAGROACNOR7115
012024110702GUAR3       010GUARARAPES  ON      NM   R$  000000000096400000000009640000000000840000000000089300000000008470000000000847000000000085010700000000000005667500000000005063839700000000000000009999123100000010000000000000BRGUARACNOR4173
012024110702HAGA3       010HAGA S/A    ON           R$  000000000025100000000002510000000000244000000000024500000000002490000000000244000000000024900047000000000000017000000000000004175200000000000000009999123100000010000000000000BRHAGAACNOR7103
012024110702HAGA4       010HAGA S/A    PN           R$  000000000012900000000001300000000000126000000000012700000000001290000000000126000000000012900017000000000000003700000000000000470100000000000000009999123100000010000000000000BRHAGAACNPR4103
012024110702HAPV3       010HAPVIDA     ON      NM   R$  000000000033800000000003460000000000328000000000033500000000003300000000000329000000000033119420000000000061808200000000020722763000000000000000009999123100000010000000000000BRHAPVACNOR4115
012024110702ATOM3       010ATOMPAR     ON           R$  000000000041200000000004170000000000339000000000038300000000003590000000000358000000000036700636000000000000260000000000000099654500000000000000009999123100000010000000000000BRATOMACNOR1106
012024110702AURE3       010AUREN       ON      NM   R$  000000000102000000000010340000000001010000000000101900000000010150000000001014000000000101909350000000000005037600000000005133769500000000000000009999123100000010000000000000BRAUREACNOR9104
012024110702AVLL3       010ALPHAVILLE  ON      NM   R$  000000000028900000000002890000000000288000000000028800000000002880000000000282000000000028800005000000000000002100000000000000605800000000000000009999123100000010000000000000BRAVLLACNOR5103
012024110702BLAU3       010BLAU        ON      NM   R$  000000000169700000000017070000000001613000000000165300000000016150000000001615000000000161602709000000000000472200000000000780560700000000000000009999123100000010000000000000BRBLAUACNOR8115
012024110702BSLI3       010BRB BANCO   ON  ES       R$  000000000087200000000008720000000000871000000000087100000000008710000000000850000000000087100003000000000000000600000000000000522700000000000000009999123100000010000000000000BRBSLIACNOR5195
012024110702BMEB3       010MERCANTIL   ON      N1   R$  000000000387300000000038730000000003700000000000373500000000037010000000003502000000000379900004000000000000000500000000000001867700000000000000009999123100000010000000000000BRBMEBACNOR8206
012024110702BMEB4       010MERCANTIL   PN      N1   R$  000000000411700000000041860000000003872000000000397000000000039370000000003926000000000393800254000000000000038600000000000153245300000000000000009999123100000010000000000000BRBMEBACNPR5211
012024110702BMGB4       010BANCO BMG   PN      N1   R$  000000000040800000000004080000000000401000000000040400000000004050000000000405000000000040600666000000000000318900000000000128950200000000000000009999123100000010000000000000BRBMGBACNPR0111
012024110702BMIN4       010MERC INVEST PN           R$  000000000160500000000016050000000001605000000000160500000000016050000000001610000000000178500001000000000000000100000000000000160500000000000000009999123100000010000000000000BRBMINACNPR1176
012024110702BMOB3       010BEMOBI TECH ON      NM   R$  000000000150500000000015300000000001463000000000148400000000014710000000001471000000000147601314000000000000239500000000000355426000000000000000009999123100000010000000000000BRBMOBACNOR7103
012024110702CPFE3       010CPFL ENERGIAON      NM   R$  000000000325100000000033000000000003226000000000325500000000032350000000003235000000000325004749000000000001054000000000003431434900000000000000009999123100000010000000000000BRCPFEACNOR0137
012024110702CPLE3       010COPEL       ON      N2   R$  000000000085900000000008690000000000836000000000084700000000008450000000000842000000000084510098000000000005853200000000004959704600000000000000009999123100000010000000000000BRCPLEACNOR8150
012024110702EKTR4       010ELEKTRO     PN           R$  000000000454500000000045450000000004545000000000454500000000045450000000004107000000000454500001000000000000000100000000000000454500000000000000009999123100000010000000000000BREKTRACNPR7166
012024110702ELET3       010ELETROBRAS  ON      N1   R$  000000000372000000000037660000000003596000000000365800000000036020000000003602000000000360732886000000000015879600000000058098435700000000000000009999123100000010000000000000BRELETACNOR6160
012024110702ELET6       010ELETROBRAS  PNB     N1   R$  000000000419700000000042440000000004039000000000411400000000040390000000004039000000000404409211000000000003026900000000012453668600000000000000009999123100000010000000000000BRELETACNPB7077
012024110702GGPS3       010GPS         ON      NM   R$  000000000173900000000017430000000001667000000000168800000000016810000000001675000000000168707105000000000002360000000000003983782400000000000000009999123100000010000000000000BRGGPSACNOR9103
012024110702PSSA3       010PORTO SEGUROON      NM   R$  000000000384600000000038710000000003809000000000383600000000038360000000003818000000000383710007000000000002240500000000008595576800000000000000009999123100000010000000000000BRPSSAACNOR7156
012024110702SBFG3       010GRUPO SBF   ON      NM   R$  000000000144200000000014620000000001384000000000140100000000013890000000001384000000000138904467000000000001694200000000002373582900000000000000009999123100000010000000000000BRSBFGACNOR1103
012024110702SBSP3       010SABESP      ON      NM   R$  000000000913100000000092790000000009000000000000908700000000090140000000009009000000000903911378000000000002076300000000018867931100000000000000009999123100000010000000000000BRSBSPACNOR5161
012024110702SCAR3       010SAO CARLOS  ON      NM   R$  000000000214100000000021830000000002099000000000210800000000021000000000002080000000000215000031000000000000007600000000000016027900000000000000009999123100000010000000000000BRSCARACNOR7131
012024110702SEER3       010SER EDUCA   ON      NM   R$  000000000076800000000007760000000000708000000000072800000000007160000000000716000000000072005958000000000001379800000000001005113600000000000000009999123100000010000000000000BRSEERACNOR5119
012024110702SHOW3       010TIME FOR FUNON      NM   R$  000000000009200000000000950000000000090000000000009200000000000900000000000090000000000009200227000000000000196000000000000018202800000000000000009999123100000010000000000000BRSHOWACNOR7105
012024110702SHUL4       010SCHULZ      PN           R$  000000000063200000000006320000000000610000000000061600000000006110000000000611000000000061301920000000000000886700000000000546251600000000000000009999123100000010000000000000BRSHULACNPR4157
012024110702SIMH3       010SIMPAR      ON      NM   R$  000000000056200000000005700000000000530000000000054600000000005300000000000530000000000053404598000000000002898500000000001582593500000000000000009999123100000010000000000000BRSIMHACNOR0107
012024110702WEST3       010WESTWING    ON      NM   R$  000000000008100000000000810000000000078000000000007800000000000780000000000077000000000007800043000000000000033500000000000002644500000000000000009999123100000010000000000000BRWESTACNOR3100
012024110702WHRL3       010WHIRLPOOL   ON           R$  000000000041500000000004150000000000415000000000041500000000004150000000000414000000000041500002000000000000001500000000000000622500000000000000009999123100000010000000000000BRWHRLACNOR5129
012024110702WHRL4       010WHIRLPOOL   PN           R$  000000000044700000000004470000000000442000000000044300000000004420000000000441000000000044400013000000000000001800000000000000798700000000000000009999123100000010000000000000BRWHRLACNPR2129
012024110702WIZC3       010WIZ CO      ON      NM   R$  000000000058000000000005940000000000579000000000058600000000005850000000000583000000000058501933000000000000406800000000000238468000000000000000009999123100000010000000000000BRWIZCACNOR5102
012024110702LAND3       010TERRASANTAPAON      NM   R$  000000000125400000000012650000000001219000000000123600000000012250000000001225000000000123000155000000000000021000000000000025974300000000000000009999123100000010000000000000BRLANDACNOR9103
012024110702LAVV3       010LAVVI       ON      NM   R$  000000000090000000000009130000000000878000000000089400000000008810000000000881000000000088705960000000000001903600000000001703506500000000000000009999123100000010000000000000BRLAVVACNOR4113
012024110702LEVE3       010METAL LEVE  ON      NM   R$  000000000308000000000031380000000002995000000000303600000000030120000000003009000000000301203162000000000000577500000000001753531000000000000000009999123100000010000000000000BRLEVEACNOR2197
012024110702GMAT3       010GRUPO MATEUSON      NM   R$  000000000076600000000007740000000000734000000000074700000000007420000000000742000000000074604865000000000002617100000000001955999000000000000000009999123100000010000000000000BRGMATACNOR7103
012024110702GOAU3       010GERDAU MET  ON      N1   R$  000000000108000000000011130000000001076000000000109800000000011090000000001108000000000111300760000000000000111200000000000122166800000000000000009999123100000010000000000000BRGOAUACNOR1268
012024110702GOAU4       010GERDAU MET  PN      N1   R$  000000000112800000000011600000000001115000000000114100000000011600000000001155000000000116012293000000000012154700000000013875872100000000000000009999123100000010000000000000BRGOAUACNPR8269
012024110702ITUB3       010ITAUUNIBANCOON  EJ  N1   R$  000000000313000000000031580000000003065000000000309400000000030840000000003084000000000308502240000000000000616500000000001907542800000000000000009999123100000010000000000000BRITUBACNOR4343
012024110702ITUB4       010ITAUUNIBANCOPN  EJ  N1   R$  000000000361300000000036480000000003556000000000358200000000035640000000003563000000000356529953000000000014842300000000053172528900000000000000009999123100000010000000000000BRITUBACNPR1343
012024110702ARML3       010ARMAC       ON      NM   R$  000000000078700000000008190000000000760000000000078000000000007680000000000767000000000076803542000000000000870200000000000679565400000000000000009999123100000010000000000000BRARMLACNOR1113
012024110702ASAI3       010ASSAI       ON      NM   R$  000000000075200000000007770000000000700000000000073200000000007220000000000722000000000072336446000000000035385500000000025927928100000000000000009999123100000010000000000000BRASAIACNOR0106
012024110702YDUQ3       010YDUQS PART  ON      NM   R$  000000000109000000000011200000000001024000000000105700000000010370000000001035000000000104013021000000000005716300000000006043387500000000000000009999123100000010000000000000BRYDUQACNOR3105
012024110702MILS3       010MILLS       ON      NM   R$  000000000106300000000010800000000001027000000000104800000000010270000000001026000000000102709741000000000003576000000000003747688800000000000000009999123100000010000000000000BRMILSACNOR2128
012024110702MLAS3       010MULTILASER  ON      NM   R$  000000000016400000000001670000000000155000000000015900000000001550000000000155000000000015702936000000000003078900000000000492195300000000000000009999123100000010000000000000BRMLASACNOR9101
012024110702MNDL3       010MUNDIAL     ON           R$  000000000155200000000015820000000001466000000000154200000000015820000000001582000000000163000009000000000000001300000000000002004700000000000000009999123100000010000000000000BRMNDLACNOR4109
012024110702MNPR3       010MINUPAR     ON           R$  000000000200000000000020400000000002000000000000200300000000020200000000001950000000000202000006000000000000001600000000000003206100000000000000009999123100000010000000000000BRMNPRACNOR5122
012024110702MOVI3       010MOVIDA      ON      NM   R$  000000000064800000000006720000000000636000000000065300000000006560000000000655000000000065613981000000000008238400000000005386262300000000000000009999123100000010000000000000BRMOVIACNOR0123
012024110702BRIT3       010BRISANET    ON      NM   R$  000000000032300000000003360000000000323000000000033100000000003260000000000326000000000032801017000000000000315200000000000104435300000000000000009999123100000010000000000000BRBRITACNOR0103
012024110702BRKM3       010BRASKEM     ON      N1   R$  000000000170900000000017640000000001610000000000169400000000016100000000001610000000000163700165000000000000021500000000000036432800000000000000009999123100000010000000000000BRBRKMACNOR1119
012024110702BRKM5       010BRASKEM     PNA     N1   R$  000000000176800000000018100000000001636000000000171600000000016360000000001636000000000163915947000000000007598700000000013044893800000000000000009999123100000010000000000000BRBRKMACNPA4121
012024110702DTCY3       010DTCOM-DIRECTON           R$  000000000041000000000004100000000000410000000000041000000000004100000000000370000000000041000001000000000000000100000000000000041000000000000000009999123100000010000000000000BRDTCYACNOR5109
012024110702DXCO3       010DEXCO       ON      NM   R$  000000000087000000000008760000000000804000000000083000000000008200000000000815000000000082009187000000000005656400000000004699048600000000000000009999123100000010000000000000BRDXCOACNOR8105
012024110702SANB11      010SANTANDER BRUNT          R$  000000000270000000000027290000000002683000000000269900000000027010000000002700000000000270507051000000000002077400000000005607622000000000000000009999123100000010000000000000BRSANBCDAM13166
012024110702SANB3       010SANTANDER BRON           R$  000000000128100000000012940000000001273000000000128200000000012820000000001279000000000128200345000000000000070600000000000090559300000000000000009999123100000010000000000000BRSANBACNOR8173
012024110702SANB4       010SANTANDER BRPN           R$  000000000142100000000014340000000001413000000000142100000000014230000000001419000000000142300327000000000000077000000000000109473900000000000000009999123100000010000000000000BRSANBACNPR5173
012024110702SAPR11      010SANEPAR     UNT     N2   R$  000000000263100000000026760000000002584000000000261100000000026000000000002587000000000260303912000000000000820300000000002142389100000000000000009999123100000010000000000000BRSAPRCDAM13118
012024110702SAPR3       010SANEPAR     ON      N2   R$  000000000050500000000005140000000000498000000000050200000000004980000000000497000000000049800844000000000000264300000000000132893700000000000000009999123100000010000000000000BRSAPRACNOR9159
012024110702SAPR4       010SANEPAR     PN      N2   R$  000000000053200000000005420000000000525000000000052900000000005250000000000525000000000052703561000000000002084100000000001104169400000000000000009999123100000010000000000000BRSAPRACNPR6159
012024110702EALT3       010ACO ALTONA  ON           R$  000000000143500000000015550000000001435000000000150500000000014990000000001480000000000155300014000000000000004500000000000006774100000000000000009999123100000010000000000000BREALTACNOR4138
012024110702EALT4       010ACO ALTONA  PN           R$  000000000137100000000014380000000001360000000000140400000000014300000000001396000000000143000152000000000000071500000000000100436100000000000000009999123100000010000000000000BREALTACNPR1138
012024110702ECOR3       010ECORODOVIAS ON      NM   R$  000000000072700000000007370000000000697000000000071000000000006970000000000697000000000070004516000000000003080000000000002187910600000000000000009999123100000010000000000000BRECORACNOR8120
012024110702EGIE3       010ENGIE BRASILON      NM   R$  000000000404500000000041500000000004000000000000406200000000040410000000004041000000000405909344000000000001818600000000007387181600000000000000009999123100000010000000000000BREGIEACNOR9127
012024110702VALE3       010VALE        ON      NM   R$  000000000620200000000063990000000006200000000000634400000000063560000000006356000000000636980708000000000038173300000000242196205200000000000000009999123100000010000000000000BRVALEACNOR0211
012024110702VVEO3       010VIVEO       ON      NM   R$  000000000027200000000002770000000000226000000000024600000000002400000000000240000000000024106648000000000005315400000000001310646600000000000000009999123100000010000000000000BRVVEOACNOR0104
012024110702ITSA3       010ITAUSA      ON      N1   R$  000000000110700000000011100000000001083000000000109300000000010860000000001086000000000109100280000000000000060700000000000066356600000000000000009999123100000010000000000000BRITSAACNOR0443
012024110702ITSA4       010ITAUSA      PN      N1   R$  000000000109700000000011110000000001080000000000109300000000010890000000001088000000000108922247000000000024367600000000026641360500000000000000009999123100000010000000000000BRITSAACNPR7443
012024110702LOGG3       010LOG COM PROPON      NM   R$  000000000231800000000023740000000002204000000000227200000000023340000000002334000000000234704072000000000000507200000000001152732900000000000000009999123100000010000000000000BRLOGGACNOR7107
012024110702LOGN3       010LOG-IN      ON      NM   R$  000000000253700000000025500000000002450000000000251000000000024500000000002450000000000249000294000000000000108200000000000271676400000000000000009999123100000010000000000000BRLOGNACNOR3105
012024110702LPSB3       010LOPES BRASILON      NM   R$  000000000017100000000001740000000000166000000000017000000000001700000000000168000000000017100215000000000000133800000000000022766100000000000000009999123100000010000000000000BRLPSBACNOR0114
012024110702LREN3       010LOJAS RENNERON      NM   R$  000000000186100000000019090000000001782000000000183100000000018080000000001808000000000181242176000000000020265000000000037113602000000000000000009999123100000010000000000000BRLRENACNOR1222
012024110702MRFG3       010MARFRIG     ON      NM   R$  000000000160000000000016010000000001503000000000154200000000015620000000001561000000000156320878000000000007119800000000010980498600000000000000009999123100000010000000000000BRMRFGACNOR0116
012024110702MRSA3B      010MRS LOGIST  ON      MB   R$  000000000270000000000030000000000002700000000000276000000000030000000000002801000000000300000003000000000000000500000000000001380000000000000000009999123100000010000000000000BRMRSAACNOR6125
012024110702MRVE3       010MRV         ON      NM   R$  000000000071700000000007390000000000701000000000072000000000007070000000000705000000000070715700000000000018128600000000013058623900000000000000009999123100000010000000000000BRMRVEACNOR2127
012024110702PRNR3       010PRINER      ON      NM   R$  000000000145900000000014980000000001447000000000147800000000014830000000001483000000000148402448000000000000453500000000000670668700000000000000009999123100000010000000000000BRPRNRACNOR4109
012024110702WEGE3       010WEG         ON      NM   R$  000000000558600000000056190000000005486000000000556200000000055770000000005576000000000557818609000000000004521400000000025150870900000000000000009999123100000010000000000000BRWEGEACNOR0225
012024110702TOTS3       010TOTVS       ON      NM   R$  000000000334000000000034560000000003113000000000319500000000031130000000003113000000000312032519000000000011588100000000037031975700000000000000009999123100000010000000000000BRTOTSACNOR8145
012024110702TPIS3       010TRIUNFO PARTON      NM   R$  000000000069900000000007100000000000667000000000069100000000006890000000000688000000000068900382000000000000075800000000000052427600000000000000009999123100000010000000000000BRTPISACNOR8118
012024110702TRAD3       010TC          ON      NM   R$  000000000060000000000006950000000000589000000000065800000000006950000000000680000000000069500937000000000000333500000000000219617600000000000000009999123100000010000000000000BRTRADACNOR3102
012024110702TRIS3       010TRISUL      ON      NM   R$  000000000055100000000005650000000000533000000000055000000000005500000000000543000000000055002163000000000001020600000000000561558700000000000000009999123100000010000000000000BRTRISACNOR4118
012024110702TRPL3       010TRAN PAULISTON      N1   R$  000000000316400000000031640000000003036000000000307100000000030510000000003051000000000315600025000000000000003300000000000010137400000000000000009999123100000010000000000000BRTRPLACNOR4185
012024110702TRPL4       010TRAN PAULISTPN      N1   R$  000000000245000000000024770000000002421000000000244000000000024300000000002429000000000243608232000000000001777500000000004338802600000000000000009999123100000010000000000000BRTRPLACNPR1185
012024110702VAMO3       010VAMOS       ON      NM   R$  000000000061200000000006270000000000578000000000059100000000005820000000000582000000000058312604000000000007416800000000004385159700000000000000009999123100000010000000000000BRVAMOACNOR7105
012024110702VBBR3       010VIBRA       ON      NM   R$  000000000230600000000023200000000002228000000000225700000000022410000000002238000000000224432424000000000015728800000000035500308600000000000000009999123100000010000000000000BRVBBRACNOR1109
012024110702LUPA3       010LUPATECH    ON      NM   R$  000000000014600000000001470000000000140000000000014200000000001400000000000140000000000014100165000000000000348600000000000049514100000000000000009999123100000010000000000000BRLUPAACNOR8112
012024110702LVTC3       010WDC NETWORKSON      NM   R$  000000000035100000000003550000000000339000000000034500000000003530000000000346000000000035300084000000000000053800000000000018565300000000000000009999123100000010000000000000BRLVTCACNOR4102
012024110702LWSA3       010LWSA        ON      NM   R$  000000000045000000000004620000000000433000000000044400000000004390000000000438000000000044011618000000000005579800000000002477771800000000000000009999123100000010000000000000BRLWSAACNOR8103
012024110702PETZ3       010PETZ        ON      NM   R$  000000000059000000000005900000000000500000000000053700000000005000000000000500000000000050322979000000000032614300000000017522318200000000000000009999123100000010000000000000BRPETZACNOR2110
012024110702RAIZ4       010RAIZEN      PN      N2   R$  000000000029000000000002930000000000278000000000028300000000002810000000000280000000000028111929000000000019803300000000005622886200000000000000009999123100000010000000000000BRRAIZACNPR6111
012024110702TASA3       010TAURUS ARMASON      N2   R$  000000000104500000000010770000000001020000000000104500000000010350000000001027000000000103400107000000000000016800000000000017561200000000000000009999123100000010000000000000BRTASAACNOR7104
012024110702TASA4       010TAURUS ARMASPN      N2   R$  000000000103700000000010630000000001004000000000103500000000010450000000001043000000000104501861000000000000389700000000000403417300000000000000009999123100000010000000000000BRTASAACNPR4104
012024110702TCSA3       010TECNISA     ON      NM   R$  000000000014100000000001520000000000141000000000014700000000001440000000000141000000000014300273000000000000218500000000000032202900000000000000009999123100000010000000000000BRTCSAACNOR3112
012024110702TECN3       010TECHNOS     ON      NM   R$  000000000051800000000005300000000000505000000000052000000000005050000000000505000000000051100138000000000000039900000000000020758900000000000000009999123100000010000000000000BRTECNACNOR6109
012024110702TELB3       010TELEBRAS    ON           R$  000000000137500000000013750000000001300000000000131700000000013000000000001300000000000132000009000000000000002800000000000003688400000000000000009999123100000010000000000000BRTELBACNOR2140
012024110702TELB4       010TELEBRAS    PN           R$  000000000087800000000008780000000000853000000000086700000000008630000000000854000000000086400014000000000000003500000000000003035000000000000000009999123100000010000000000000BRTELBACNPR9140
012024110702TEND3       010TENDA       ON      NM   R$  000000000164400000000017590000000001619000000000168400000000016490000000001640000000000164931303000000000013018000000000021923807500000000000000009999123100000010000000000000BRTENDACNOR4111
012024110702TFCO4       010TRACK FIELD PN      N2   R$  000000000101300000000010190000000000986000000000100100000000010070000000000996000000000100700796000000000000165500000000000165803100000000000000009999123100000010000000000000BRTFCOACNPR8115
012024110702TGMA3       010TEGMA       ON      NM   R$  000000000321300000000032500000000003118000000000318200000000031460000000003144000000000316002898000000000000425100000000001352822900000000000000009999123100000010000000000000BRTGMAACNOR7145
012024110702TIMS3       010TIM         ON      NM   R$  000000000160700000000016240000000001589000000000160400000000016080000000001608000000000160910937000000000006701700000000010751001700000000000000009999123100000010000000000000BRTIMSACNOR5118
012024110702MWET4       010WETZEL S/A  PN           R$  000000000137200000000013720000000001180000000000124500000000012370000000001181000000000122700025000000000000006000000000000007472300000000000000009999123100000010000000000000BRMWETACNPR3118
012024110702MYPK3       010IOCHP-MAXIONON      NM   R$  000000000113000000000011950000000001110000000000114200000000011400000000001140000000000114121625000000000006565600000000007504314100000000000000009999123100000010000000000000BRMYPKACNOR7156
012024110702NEOE3       010NEOENERGIA  ON      NM   R$  000000000194100000000019570000000001931000000000194200000000019350000000001934000000000194004462000000000001168700000000002269811800000000000000009999123100000010000000000000BRNEOEACNOR3123
012024110702NGRD3       010NEOGRID     ON      NM   R$  000000000249500000000025100000000002440000000000248400000000024990000000002480000000000249900283000000000000047400000000000117773300000000000000009999123100000010000000000000BRNGRDACNOR3106
012024110702NINJ3       010GETNINJAS   ON      NM   R$  000000000043700000000004380000000000437000000000043700000000004380000000000437000000000045800003000000000000001400000000000000613000000000000000009999123100000010000000000000BRNINJACNOR5101
012024110702NORD3       010NORDON MET  ON           R$  000000000073600000000007360000000000736000000000073600000000007360000000000680000000000073600004000000000000000900000000000000662400000000000000009999123100000010000000000000BRNORDACNOR7135
012024110702NTCO3       010GRUPO NATURAON      NM   R$  000000000141700000000014620000000001394000000000141300000000014120000000001410000000000141215818000000000008708900000000012312788900000000000000009999123100000010000000000000BRNTCOACNOR5106
012024110702RADL3       010RAIADROGASILON      NM   R$  000000000254500000000026040000000002529000000000256500000000025620000000002558000000000256921113000000000008079300000000020725750800000000000000009999123100000010000000000000BRRADLACNOR0158
012024110702RAIL3       010RUMO S.A.   ON      NM   R$  000000000202600000000020690000000002003000000000202600000000020100000000002009000000000201037547000000000015678700000000031770561100000000000000009999123100000010000000000000BRRAILACNOR9105
012024110702SMFT3       010SMART FIT   ON      NM   R$  000000000219100000000022280000000002080000000000212300000000020800000000002078000000000210215710000000000003912000000000008309040500000000000000009999123100000010000000000000BRSMFTACNOR1112
012024110702SMTO3       010SAO MARTINHOON      NM   R$  000000000271800000000027180000000002553000000000260500000000025530000000002552000000000255407557000000000001364200000000003554293200000000000000009999123100000010000000000000BRSMTOACNOR3127
012024110702SYNE3       010SYN PROP TECON      NM   R$  000000000087400000000008770000000000861000000000086900000000008730000000000870000000000087300743000000000000215000000000000186836700000000000000009999123100000010000000000000BRSYNEACNOR2103
012024110702TAEE11      010TAESA       UNT     N2   R$  000000000348300000000035690000000003476000000000351500000000034830000000003482000000000349609946000000000002830100000000009948013000000000000000009999123100000010000000000000BRTAEECDAM10148
012024110702TAEE3       010TAESA       ON      N2   R$  000000000115600000000011800000000001156000000000116800000000011650000000001163000000000116500522000000000000108000000000000126159500000000000000009999123100000010000000000000BRTAEEACNOR9148
012024110702TAEE4       010TAESA       PN      N2   R$  000000000116500000000011900000000001163000000000117500000000011720000000001172000000000117300680000000000000183600000000000215808900000000000000009999123100000010000000000000BRTAEEACNPR6148
012024110702BGIP4       010BANESE      PN           R$  000000000233800000000023380000000002338000000000233800000000023380000000002336000000000269900003000000000000000300000000000000701400000000000000009999123100000010000000000000BRBGIPACNPR8210
012024110702BHIA3       010CASAS BAHIA ON      NM   R$  000000000042600000000004420000000000406000000000041900000000004100000000000409000000000041002821000000000003100200000000001300898700000000000000009999123100000010000000000000BRBHIAACNOR1102
012024110702CMIG3       010CEMIG       ON      N1   R$  000000000145200000000014780000000001446000000000146200000000014460000000001446000000000145500587000000000000083300000000000121795900000000000000009999123100000010000000000000BRCMIGACNOR6244
012024110702CMIG4       010CEMIG       PN      N1   R$  000000000113700000000011630000000001128000000000114200000000011370000000001137000000000113913985000000000009468900000000010821939000000000000000009999123100000010000000000000BRCMIGACNPR3245
012024110702CRPG5       010CRISTAL     PNA          R$  000000000248500000000024850000000002466000000000247300000000024660000000002466000000000249200005000000000000000600000000000001483900000000000000009999123100000010000000000000BRCRPGACNPA3119
012024110702CRPG6       010CRISTAL     PNB          R$  000000000260000000000026000000000002600000000000260000000000026000000000002570000000000259700002000000000000000200000000000000520000000000000000009999123100000010000000000000BRCRPGACNPB1119
012024110702CSAN3       010COSAN       ON      NM   R$  000000000120600000000012270000000001200000000000121400000000012050000000001205000000000121021288000000000011773000000000014300694500000000000000009999123100000010000000000000BRCSANACNOR6126
012024110702ELMD3       010ELETROMIDIA ON      NM   R$  000000000263300000000026890000000002633000000000265600000000026550000000002651000000000265801342000000000000458600000000001218098800000000000000009999123100000010000000000000BRELMDACNOR3101
012024110702EMAE3       010EMAE        ON           R$  000000000582100000000058210000000005821000000000582100000000058210000000004500000000000678000001000000000000010500000000000061120500000000000000009999123100000010000000000000BREMAEACNOR4126
012024110702EMAE4       010EMAE        PN           R$  000000000397900000000040340000000003950000000000398700000000040340000000003913000000000418800003000000000000000300000000000001196300000000000000009999123100000010000000000000BREMAEACNPR1126
012024110702EMBR3       010EMBRAER     ON      NM   R$  000000000500500000000050390000000004954000000000500400000000050050000000005000000000000500815910000000000004019700000000020116057700000000000000009999123100000010000000000000BREMBRACNOR4191
012024110702HBOR3       010HELBOR      ON      NM   R$  000000000019300000000001950000000000184000000000018700000000001850000000000185000000000018600441000000000000692800000000000129807700000000000000009999123100000010000000000000BRHBORACNOR3118
012024110702HBRE3       010HBR REALTY  ON      NM   R$  000000000046300000000004650000000000434000000000044700000000004450000000000445000000000044902252000000000001000400000000000447526700000000000000009999123100000010000000000000BRHBREACNOR4100
012024110702HBSA3       010HIDROVIAS   ON      NM   R$  000000000032700000000003310000000000321000000000032400000000003280000000000326000000000032805139000000000002646100000000000859410700000000000000009999123100000010000000000000BRHBSAACNOR0101
012024110702CSUD3       010CSU DIGITAL ON      NM   R$  000000000173700000000017380000000001656000000000168100000000016580000000001655000000000166700298000000000000062800000000000105573800000000000000009999123100000010000000000000BRCSUDACNOR5111
012024110702CTKA4       010KARSTEN     PN           R$  000000000190000000000019000000000001900000000000190000000000019000000000001834000000000194000001000000000000000100000000000000190000000000000000009999123100000010000000000000BRCTKAACNPR7043
012024110702CURY3       010CURY S/A    ON      NM   R$  000000000238200000000023930000000002283000000000231800000000022830000000002282000000000229806919000000000001359500000000003152300400000000000000009999123100000010000000000000BRCURYACNOR3110
012024110702CVCB3       010CVC BRASIL  ON      NM   R$  000000000021900000000002250000000000205000000000021300000000002070000000000206000000000020706454000000000026013400000000005546127000000000000000009999123100000010000000000000BRCVCBACNOR1116
012024110702ENGI4       010ENERGISA    PN      N2   R$  000000000074800000000007500000000000725000000000073500000000007250000000000727000000000074000058000000000000008400000000000006176200000000000000009999123100000010000000000000BRENGIACNPR7142
012024110702ENJU3       010ENJOEI      ON      NM   R$  000000000013100000000001350000000000130000000000013200000000001310000000000131000000000013300657000000000000301600000000000040089500000000000000009999123100000010000000000000BRENJUACNOR9100
012024110702EPAR3       010EMBPAR S/A  ON           R$  000000000055900000000005740000000000546000000000056000000000005460000000000549000000000056300030000000000000007300000000000004094100000000000000009999123100000010000000000000BREPARACNOR9105
012024110702ROMI3       010ROMI        ON      NM   R$  000000000099800000000010070000000000979000000000098900000000009790000000000978000000000097901310000000000000315800000000000312641300000000000000009999123100000010000000000000BRROMIACNOR8196
012024110702CGAS3       010COMGAS      ON           R$  000000001315000000000131500000000013150000000001315000000000131500000000012100000000001350000001000000000000000100000000000001315000000000000000009999123100000010000000000000BRCGASACNOR0164
012024110702CGAS5       010COMGAS      PNA          R$  000000001309800000000130980000000012631000000001285400000000129700000000012600000000001300000011000000000000001100000000000014139900000000000000009999123100000010000000000000BRCGASACNPA3161
012024110702CGRA3       010GRAZZIOTIN  ON           R$  000000000247800000000024790000000002478000000000247800000000024790000000002410000000000246500002000000000000000300000000000000743600000000000000009999123100000010000000000000BRCGRAACNOR2083
012024110702CGRA4       010GRAZZIOTIN  PN           R$  000000000246400000000024650000000002422000000000244500000000024220000000002421000000000244000004000000000000000400000000000000978100000000000000009999123100000010000000000000BRCGRAACNPR9083
012024110702CLSA3       010CLEARSALE   ON      NM   R$  000000000096900000000009690000000000956000000000096100000000009670000000000962000000000096801989000000000001538400000000001479447100000000000000009999123100000010000000000000BRCLSAACNOR0100
012024110702CLSC3       010CELESC      ON      N2   R$  000000000749900000000075000000000007499000000000749900000000075000000000007401000000000772000002000000000000000200000000000001499900000000000000009999123100000010000000000000BRCLSCACNOR6153
012024110702CLSC4       010CELESC      PN      N2   R$  000000000800000000000081480000000007901000000000801600000000079920000000007900000000000814000012000000000000001300000000000010422000000000000000009999123100000010000000000000BRCLSCACNPR3132
012024110702RSUL4       010RIOSULENSE  PN           R$  000000000597000000000060200000000005970000000000598500000000059900000000005970000000000608000016000000000000002000000000000011970300000000000000009999123100000010000000000000BRRSULACNPR3114
012024110702USIM5       010USIMINAS    PNA     N1   R$  000000000066200000000006720000000000655000000000066500000000006650000000000665000000000066613082000000000015586500000000010378516100000000000000009999123100000010000000000000BRUSIMACNPA6169
012024110702VIVR3       010VIVER       ON      NM   R$  000000000015100000000001510000000000144000000000014600000000001440000000000144000000000014700060000000000000055000000000000008079600000000000000009999123100000010000000000000BRVIVRACNOR4123
012024110702VIVT3       010TELEF BRASILON           R$  000000000524500000000054000000000005235000000000533800000000053340000000005334000000000534309797000000000001912300000000010209141000000000000000009999123100000010000000000000BRVIVTACNOR0184
012024110702VLID3       010VALID       ON      NM   R$  000000000265000000000026640000000002351000000000245900000000023920000000002380000000000239306320000000000001323300000000003254996800000000000000009999123100000010000000000000BRVLIDACNOR5144
012024110702VSTE3       010VESTE       ON      NM   R$  000000000102000000000010300000000000986000000000100700000000010280000000001028000000000105700074000000000000011500000000000011584200000000000000009999123100000010000000000000BRVSTEACNOR5103
012024110702VTRU3       010VITRUEDUCA  ON      NM   R$  000000000091800000000009620000000000867000000000091100000000008670000000000867000000000088000753000000000000164300000000000149701500000000000000009999123100000010000000000000BRVTRUACNOR3100
012024110702VULC3       010VULCABRAS   ON      NM   R$  000000000172000000000017310000000001640000000000166300000000016450000000001645000000000166004815000000000001351300000000002248300600000000000000009999123100000010000000000000BRVULCACNOR2163
012024110702PDGR3       010PDG REALT   ON      NM   R$  000000000000100000000000020000000000001000000000000100000000000010000000000001000000000000200790000000000061535500000000000081291300000000000000009999123100000010000000000000BRPDGRACNOR8119
012024110702PDTC3       010PADTEC      ON      NM   R$  000000000018100000000001860000000000178000000000017800000000001790000000000179000000000018000079000000000000121300000000000021660100000000000000009999123100000010000000000000BRPDTCACNOR3101
012024110702PEAB3       010PAR AL BAHIAON           R$  000000000428000000000042800000000004280000000000428000000000042800000000000000000000000437900002000000000000000400000000000001712000000000000000009999123100000010000000000000BRPEABACNOR3133
012024110702PETR3       010PETROBRAS   ON      N2   R$  000000000380100000000038820000000003800000000000384500000000038380000000003837000000000384024029000000000011429700000000043958539400000000000000009999123100000010000000000000BRPETRACNOR9206
012024110702PETR4       010PETROBRAS   PN      N2   R$  000000000354900000000035890000000003527000000000355600000000035510000000003551000000000356158142000000000034081200000000121193713600000000000000009999123100000010000000000000BRPETRACNPR6214
012024110702PFRM3       010PROFARMA    ON      NM   R$  000000000077100000000007860000000000746000000000076100000000007470000000000745000000000074801024000000000000310100000000000236255100000000000000009999123100000010000000000000BRPFRMACNOR1116
012024110702PGMN3       010PAGUE MENOS ON      NM   R$  000000000033600000000003420000000000326000000000033100000000003310000000000329000000000033101220000000000000772600000000000256064300000000000000009999123100000010000000000000BRPGMNACNOR8103
012024110702PINE3       010PINE        ON      N2   R$  000000000048600000000004860000000000475000000000047800000000004800000000000454000000000048000008000000000000001300000000000000622200000000000000009999123100000010000000000000BRPINEACNOR1152
012024110702PINE4       010PINE        PN      N2   R$  000000000046000000000004670000000000455000000000045800000000004550000000000455000000000045800236000000000000108200000000000049630800000000000000009999123100000010000000000000BRPINEACNPR8152
012024110702PLAS3       010PLASCAR PARTON           R$  000000000060000000000006000000000000600000000000060000000000006000000000000551000000000061900004000000000000003900000000000002340000000000000000009999123100000010000000000000BRPLASACNOR2106
012024110702PLPL3       010PLANOEPLANO ON      NM   R$  000000000134000000000013690000000001287000000000132100000000013200000000001316000000000132107259000000000001464700000000001936107700000000000000009999123100000010000000000000BRPLPLACNOR5104
012024110702PNVL3       010DIMED       ON      NM   R$  000000000101000000000010330000000000999000000000101100000000010020000000001002000000000100401536000000000000327900000000000331567200000000000000009999123100000010000000000000BRPNVLACNOR9208
012024110702POMO3       010MARCOPOLO   ON      N2   R$  000000000065800000000006630000000000641000000000065000000000006480000000000648000000000065201495000000000000822900000000000535133300000000000000009999123100000010000000000000BRPOMOACNOR0099
012024110702POMO4       010MARCOPOLO   PN      N2   R$  000000000085700000000008670000000000845000000000085800000000008640000000000860000000000086418105000000000009311200000000007992478600000000000000009999123100000010000000000000BRPOMOACNPR7099
012024110702PORT3       010WILSON SONS ON      NM   R$  000000000158900000000015900000000001570000000000158000000000015880000000001582000000000158803599000000000002604600000000004116084500000000000000009999123100000010000000000000BRPORTACNOR8110
012024110702POSI3       010POSITIVO TECON      NM   R$  000000000063200000000006340000000000609000000000062000000000006100000000000610000000000061502004000000000001051800000000000652164200000000000000009999123100000010000000000000BRPOSIACNOR9116
012024110702PRIO3       010PETRORIO    ON      NM   R$  000000000406100000000040800000000003973000000000400800000000039910000000003990000000000399320584000000000006830300000000027381358900000000000000009999123100000010000000000000BRPRIOACNOR1107
012024110702RECV3       010PETRORECSA  ON      NM   R$  000000000173100000000017540000000001707000000000172300000000017180000000001718000000000172106911000000000001150500000000001983037000000000000000009999123100000010000000000000BRRECVACNOR3107
012024110702REDE3       010REDE ENERGIAON           R$  000000000067700000000006780000000000675000000000067600000000006780000000000676000000000068200005000000000000000700000000000000473200000000000000009999123100000010000000000000BRREDEACNOR7128
012024110702RENT3       010LOCALIZA    ON      NM   R$  000000000421600000000043630000000004170000000000424700000000042050000000004193000000000420833240000000000009145500000000038845192300000000000000009999123100000010000000000000BRRENTACNOR4197
012024110702TTEN3       0103TENTOS     ON      NM   R$  000000000122600000000012550000000001196000000000121900000000012010000000001201000000000120805901000000000000872700000000001063946300000000000000009999123100000010000000000000BRTTENACNOR0103
012024110702TUPY3       010TUPY        ON      NM   R$  000000000235500000000024780000000002351000000000239200000000023850000000002385000000000239406320000000000001240900000000002968987700000000000000009999123100000010000000000000BRTUPYACNOR1184
012024110702UCAS3       010UNICASA     ON      NM   R$  000000000021300000000002180000000000212000000000021400000000002120000000000212000000000021400118000000000000043200000000000009248400000000000000009999123100000010000000000000BRUCASACNOR1113
012024110702UGPA3       010ULTRAPAR    ON      NM   R$  000000000212100000000021590000000002082000000000211400000000020820000000002081000000000209214348000000000004573000000000009670033000000000000000009999123100000010000000000000BRUGPAACNOR8156
012024110702UNIP3       010UNIPAR      ON           R$  000000000463100000000047540000000004450000000000454400000000045060000000004500000000000465000050000000000000007400000000000033632300000000000000009999123100000010000000000000BRUNIPACNOR7206
012024110702UNIP5       010UNIPAR      PNA          R$  000000000484000000000048400000000004747000000000479400000000047470000000004556000000000507900004000000000000000400000000000001917800000000000000009999123100000010000000000000BRUNIPACNPA0208
012024110702UNIP6       010UNIPAR      PNB          R$  000000000476900000000048450000000004502000000000462200000000045020000000004501000000000453601347000000000000194100000000000897295100000000000000009999123100000010000000000000BRUNIPACNPB8206
012024110702USIM3       010USIMINAS    ON      N1   R$  000000000064600000000006550000000000644000000000064900000000006500000000000650000000000065100965000000000000304000000000000197369200000000000000009999123100000010000000000000BRUSIMACNOR3167
012024110702HYPE3       010HYPERA      ON      NM   R$  000000000220100000000022380000000002109000000000215000000000021520000000002151000000000215319705000000000007368100000000015847749300000000000000009999123100000010000000000000BRHYPEACNOR0144
012024110702AZZA3       010AZZAS 2154  ON      NM   R$  000000000409000000000041800000000003980000000000407400000000040370000000004034000000000404105087000000000001032000000000004205161300000000000000009999123100000010000000000000BRAZZAACNOR9100
012024110702BBSE3       010BBSEGURIDADEON      NM   R$  000000000344000000000034940000000003427000000000345900000000034800000000003474000000000348011023000000000005890900000000020378730500000000000000009999123100000010000000000000BRBBSEACNOR5125
012024110702BALM4       010BAUMER      PN           R$  000000000105000000000010500000000001020000000000104700000000010500000000001020000000000108400006000000000000002500000000000002619100000000000000009999123100000010000000000000BRBALMACNPR2056
012024110702BAZA3       010AMAZONIA    ON           R$  000000000930000000000093000000000009053000000000916100000000092000000000008862000000000920000009000000000000001400000000000012825800000000000000009999123100000010000000000000BRBAZAACNOR0179
012024110702BBAS3       010BRASIL      ON      NM   R$  000000000263000000000026640000000002613000000000263100000000026190000000002619000000000262330693000000000011667700000000030699638800000000000000009999123100000010000000000000BRBBASACNOR3326
012024110702BEES3       010BANESTES    ON  EJ       R$  000000000086000000000008660000000000850000000000085700000000008500000000000850000000000086400100000000000000021500000000000018429500000000000000009999123100000010000000000000BRBEESACNOR9397
012024110702BEES4       010BANESTES    PN  EJ       R$  000000000088100000000008880000000000870000000000087800000000008700000000000870000000000088300045000000000000007400000000000006503800000000000000009999123100000010000000000000BRBEESACNPR6322
012024110702ENGI3       010ENERGISA    ON      N2   R$  000000000127100000000013060000000001241000000000126900000000012540000000001254000000000125900033000000000000003700000000000004698200000000000000009999123100000010000000000000BRENGIACNOR0146
012024110702JALL3       010JALLESMACHADON      NM   R$  000000000060400000000006110000000000591000000000059700000000005910000000000591000000000059202244000000000000755200000000000451116400000000000000009999123100000010000000000000BRJALLACNOR0106
012024110702JBSS3       010JBS         ON      NM   R$  000000000367200000000036900000000003512000000000358500000000035860000000003585000000000359028843000000000008821600000000031627102100000000000000009999123100000010000000000000BRJBSSACNOR8122
012024110702KEPL3       010KEPLER WEBERON      NM   R$  000000000107500000000010770000000001022000000000103900000000010230000000001023000000000102604550000000000001223600000000001272433300000000000000009999123100000010000000000000BRKEPLACNOR1064
012024110702KLBN11      010KLABIN S/A  UNT     N2   R$  000000000218200000000021970000000002106000000000212900000000021220000000002121000000000212516182000000000006973300000000014847225700000000000000009999123100000010000000000000BRKLBNCDAM18143
012024110702KLBN3       010KLABIN S/A  ON      N2   R$  000000000044500000000004450000000000425000000000042800000000004250000000000425000000000042800684000000000000351800000000000150883200000000000000009999123100000010000000000000BRKLBNACNOR2171
012024110702KLBN4       010KLABIN S/A  PN      N2   R$  000000000043800000000004400000000000421000000000042600000000004230000000000423000000000042502197000000000001606500000000000685457300000000000000009999123100000010000000000000BRKLBNACNPR9171
012024110702AALR3       010ALLIAR      ON      NM   R$  000000000148500000000014850000000001474000000000147800000000014760000000001456000000000149800013000000000000002300000000000003400000000000000000009999123100000010000000000000BRAALRACNOR6102
012024110702ABCB4       010ABC BRASIL  PN      N2   R$  000000000209100000000021150000000002046000000000207100000000020560000000002049000000000205604995000000000000927500000000001921407200000000000000009999123100000010000000000000BRABCBACNPR4146
012024110702ABEV3       010AMBEV S/A   ON           R$  000000000123900000000012690000000001239000000000125700000000012550000000001255000000000125628024000000000023946600000000030114691200000000000000009999123100000010000000000000BRABEVACNOR1128
012024110702EQMA3B      010EQTLMARANHAOON      MB   R$  000000000230000000000023500000000002300000000000233100000000023500000000002350000000000239600009000000000000001100000000000002564100000000000000009999123100000010000000000000BREQMAACNOR8108
012024110702EQPA3       010EQTL PARA   ON           R$  000000000059300000000005930000000000584000000000058800000000005840000000000577000000000058600022000000000000004800000000000002826200000000000000009999123100000010000000000000BREQPAACNOR1111
012024110702EQTL3       010EQUATORIAL  ON      NM   R$  000000000316500000000032300000000003151000000000319500000000031690000000003167000000000317324854000000000011917600000000038078004300000000000000009999123100000010000000000000BREQTLACNOR0131
012024110702ESPA3       010ESPACOLASER ON      NM   R$  000000000010000000000001040000000000099000000000010200000000001040000000000103000000000010400429000000000000637200000000000065328400000000000000009999123100000010000000000000BRESPAACNOR7103
012024110702ETER3       010ETERNIT     ON      NM   R$  000000000053700000000005390000000000522000000000052700000000005230000000000522000000000052400747000000000000258700000000000136584700000000000000009999123100000010000000000000BRETERACNOR3244
012024110702EUCA4       010EUCATEX     PN      N1   R$  000000000143800000000014510000000001401000000000141900000000014010000000001400000000000141400307000000000000052900000000000075085100000000000000009999123100000010000000000000BREUCAACNPR8044
012024110702EVEN3       010EVEN        ON      NM   R$  000000000060400000000006120000000000585000000000059600000000005900000000000590000000000059403035000000000000976600000000000582378400000000000000009999123100000010000000000000BREVENACNOR8120
012024110702JHSF3       010JHSF PART   ON  ED  NM   R$  000000000046100000000004680000000000451000000000045900000000004530000000000452000000000045503032000000000002150000000000000988586700000000000000009999123100000010000000000000BRJHSFACNOR2141
012024110702BRAP4       010BRADESPAR   PN      N1   R$  000000000198000000000020470000000001978000000000202900000000020220000000002021000000000202425643000000000010906000000000022132195200000000000000009999123100000010000000000000BRBRAPACNPR2148
012024110702CMIN3       010CSNMINERACAOON      N2   R$  000000000062200000000006300000000000615000000000062200000000006190000000000619000000000062007215000000000009985400000000006213959200000000000000009999123100000010000000000000BRCMINACNOR2112
012024110702COCE5       010COELCE      PNA          R$  000000000276000000000027940000000002643000000000267100000000026600000000002660000000000270300065000000000000021100000000000056372800000000000000009999123100000010000000000000BRCOCEACNPA3147
012024110702COGN3       010COGNA ON    ON      NM   R$  000000000015300000000001550000000000142000000000014700000000001420000000000142000000000014315240000000000042946700000000006348067800000000000000009999123100000010000000000000BRCOGNACNOR2105
012024110702CSED3       010CRUZEIRO EDUON      NM   R$  000000000034400000000003500000000000330000000000033700000000003320000000000331000000000033200850000000000000418700000000000141161900000000000000009999123100000010000000000000BRCSEDACNOR9105
012024110702CSMG3       010COPASA      ON      NM   R$  000000000233900000000024070000000002309000000000235700000000023110000000002311000000000232308146000000000002059300000000004854288100000000000000009999123100000010000000000000BRCSMGACNOR5175
012024110702CSNA3       010SID NACIONALON           R$  000000000120500000000012470000000001196000000000123000000000012290000000001229000000000123615338000000000011624900000000014299274600000000000000009999123100000010000000000000BRCSNAACNOR6261
012024110702ENEV3       010ENEVA       ON      NM   R$  000000000124800000000012770000000001232000000000124400000000012490000000001245000000000125019171000000000007677000000000009553080400000000000000009999123100000010000000000000BRENEVACNOR8106
012024110702ENGI11      010ENERGISA    UNT     N2   R$  000000000420600000000043090000000004156000000000421700000000042070000000004207000000000420813026000000000003399900000000014339118900000000000000009999123100000010000000000000BRENGICDAM16136
012024110702CXSE3       010CAIXA SEGURION  ED  NM   R$  000000000144100000000014490000000001414000000000142600000000014190000000001419000000000142009216000000000003678500000000005248689400000000000000009999123100000010000000000000BRCXSEACNOR7108
012024110702CYRE3       010CYRELA REALTON      NM   R$  000000000216100000000022430000000002140000000000218200000000021740000000002173000000000218213912000000000004753800000000010373108300000000000000009999123100000010000000000000BRCYREACNOR7140
012024110702EZTC3       010EZTEC       ON  ED  NM   R$  000000000146200000000014910000000001425000000000145200000000014350000000001434000000000144808760000000000003057100000000004439092900000000000000009999123100000010000000000000BREZTCACNOR0127
012024110702CAMB3       010CAMBUCI     ON           R$  000000000117700000000011790000000001116000000000114100000000011250000000001125000000000114100319000000000000077200000000000088119900000000000000009999123100000010000000000000BRCAMBACNOR4131
012024110702CAML3       010CAMIL       ON      NM   R$  000000000080600000000008090000000000784000000000079500000000007910000000000791000000000079201341000000000000352900000000000280689500000000000000009999123100000010000000000000BRCAMLACNOR3129
012024110702CASH3       010MELIUZ      ON      NM   R$  000000000036500000000003650000000000341000000000035200000000003540000000000354000000000035501457000000000001031100000000000363139700000000000000009999123100000010000000000000BRCASHACNOR8107
012024110702CBAV3       010CBA         ON      NM   R$  000000000062200000000006240000000000586000000000061100000000006050000000000603000000000060608661000000000005771600000000003527134000000000000000009999123100000010000000000000BRCBAVACNOR5104
012024110702ALPA3       010ALPARGATAS  ON      N1   R$  000000000062700000000006550000000000627000000000064500000000006470000000000638000000000064600030000000000000009300000000000006007500000000000000009999123100000010000000000000BRALPAACNOR0231
012024110702ALPA4       010ALPARGATAS  PN      N1   R$  000000000072100000000007350000000000707000000000071500000000007090000000000708000000000071409783000000000003730700000000002667626400000000000000009999123100000010000000000000BRALPAACNPR7232
012024110702ALPK3       010ESTAPAR     ON      NM   R$  000000000031600000000003170000000000285000000000029400000000002850000000000285000000000029400464000000000000406300000000000119732900000000000000009999123100000010000000000000BRALPKACNOR9101
012024110702ALUP11      010ALUPAR      UNT     N2   R$  000000000287100000000029290000000002856000000000288500000000028950000000002871000000000289504473000000000000667500000000001925933900000000000000009999123100000010000000000000BRALUPCDAM15120
012024110702ALUP3       010ALUPAR      ON      N2   R$  000000000099900000000010100000000000979000000000099000000000009790000000000979000000000098500044000000000000005900000000000005844600000000000000009999123100000010000000000000BRALUPACNOR8120
012024110702ALUP4       010ALUPAR      PN      N2   R$  000000000095300000000009650000000000940000000000095300000000009400000000000940000000000094400063000000000000009300000000000008867600000000000000009999123100000010000000000000BRALUPACNPR5120
012024110702AMAR3       010LOJAS MARISAON      NM   R$  000000000009400000000000960000000000093000000000009400000000000930000000000093000000000009500332000000000000187200000000000017699700000000000000009999123100000010000000000000BRAMARACNOR4115
012024110702AMBP3       010AMBIPAR     ON      NM   R$  000000001459900000000160000000000014506000000001534800000000149420000000014910000000001494201408000000000000219500000000003368933300000000000000009999123100000010000000000000BRAMBPACNOR6103
012024110702ANIM3       010ANIMA       ON      NM   R$  000000000027800000000002830000000000242000000000025700000000002440000000000244000000000024511759000000000022387100000000005774773200000000000000009999123100000010000000000000BRANIMACNOR6109
012024110702BBDC3       010BRADESCO    ON  EJ  N1   R$  000000000121800000000012360000000001209000000000121800000000012170000000001217000000000121909129000000000007215600000000008793182700000000000000009999123100000010000000000000BRBBDCACNOR1777
012024110702BBDC4       010BRADESCO    PN  EJ  N1   R$  000000000137500000000013880000000001355000000000136600000000013660000000001364000000000136639413000000000035235600000000048159258100000000000000009999123100000010000000000000BRBBDCACNPR8777
012024110702BRBI11      010BR PARTNERS UNT     N2   R$  000000000155500000000015560000000001503000000000152000000000015050000000001505000000000151801460000000000000249900000000000379982700000000000000009999123100000010000000000000BRBRBICDAM10110
012024110702BRFS3       010BRF SA      ON      NM   R$  000000000260000000000026020000000002420000000000247100000000024640000000002463000000000246522452000000000009452600000000023365724500000000000000009999123100000010000000000000BRBRFSACNOR8122
012024110702KRSA3       010KORA SAUDE  ON      NM   R$  000000000062000000000006590000000000605000000000063400000000006300000000000630000000000063900089000000000000083200000000000052765800000000000000009999123100000010000000000000BRKRSAACNOR0101
012024110702GEPA4       010GER PARANAP PN           R$  000000000300000000000030000000000002975000000000298700000000029750000000002950000000000301000002000000000000000200000000000000597500000000000000009999123100000010000000000000BRGEPAACNPR9161
012024110702GFSA3       010GAFISA      ON      NM   R$  000000000015300000000001580000000000149000000000015200000000001500000000000149000000000015001427000000000003310600000000000505331000000000000000009999123100000010000000000000BRGFSAACNOR3125
012024110702GGBR3       010GERDAU      ON      N1   R$  000000000198300000000020180000000001962000000000199000000000020060000000002000000000000200600900000000000000190900000000000379999200000000000000009999123100000010000000000000BRGGBRACNOR1193
012024110702GGBR4       010GERDAU      PN      N1   R$  000000000198000000000020670000000001972000000000202900000000020500000000002050000000000205538798000000000025280100000000051306979500000000000000009999123100000010000000000000BRGGBRACNPR8193
012024110702INEP3       010INEPAR      ON           R$  000000000014800000000001570000000000148000000000015400000000001520000000000151000000000015300043000000000000030000000000000004636400000000000000009999123100000010000000000000BRINEPACNOR1143
012024110702INEP4       010INEPAR      PN           R$  000000000014900000000001520000000000146000000000014800000000001460000000000142000000000014600023000000000000008200000000000001216700000000000000009999123100000010000000000000BRINEPACNPR8143
012024110702INTB3       010INTELBRAS   ON      NM   R$  000000000181800000000018270000000001742000000000178000000000017690000000001758000000000176906734000000000001798700000000003201799200000000000000009999123100000010000000000000BRINTBACNOR9112
012024110702IRBR3       010IRBBRASIL REON      NM   R$  000000000422100000000042770000000004073000000000414600000000040890000000004084000000000408905290000000000001056000000000004378525400000000000000009999123100000010000000000000BRIRBRACNOR4111
012024110702BOBR4       010BOMBRIL     PN           R$  000000000027300000000002770000000000258000000000026900000000002680000000000268000000000027300142000000000000039000000000000010522600000000000000009999123100000010000000000000BRBOBRACNPR3128
012024110702BRAV3       010BRAVA       ON      NM   R$  000000000172700000000017360000000001694000000000170600000000016990000000001699000000000170009113000000000003845800000000006561322100000000000000009999123100000010000000000000BRBRAVACNOR3100
012024110702DESK3       010DESKTOP     ON      NM   R$  000000000142200000000014300000000001344000000000138500000000013850000000001382000000000138500602000000000000124900000000000173070900000000000000009999123100000010000000000000BRDESKACNOR2104
012024110702DEXP3       010DEXXOS PAR  ON      N1   R$  000000000087200000000008880000000000865000000000087500000000008650000000000865000000000087200483000000000000088300000000000077269700000000000000009999123100000010000000000000BRDEXPACNOR1105
012024110702DIRR3       010DIRECIONAL  ON      NM   R$  000000000306000000000031300000000002993000000000304700000000030100000000003010000000000301213072000000000002630100000000008016325800000000000000009999123100000010000000000000BRDIRRACNOR0119
012024110702DMVF3       010D1000VFARMA ON      NM   R$  000000000071100000000007480000000000711000000000072700000000007210000000000721000000000072800309000000000000083200000000000060510400000000000000009999123100000010000000000000BRDMVFACNOR9100
012024110702DOHL4       010DOHLER      PN           R$  000000000040400000000004040000000000404000000000040400000000004040000000000396000000000040400001000000000000000100000000000000040400000000000000009999123100000010000000000000BRDOHLACNPR9066
012024110702B3SA3       010B3          ON      NM   R$  000000000106000000000011010000000001049000000000106600000000010710000000001066000000000107240063000000000055293600000000058963736700000000000000009999123100000010000000000000BRB3SAACNOR6134
012024110702FESA4       010FERBASA     PN      N1   R$  000000000079000000000008030000000000776000000000078700000000007840000000000783000000000078501185000000000000257500000000000202708200000000000000009999123100000010000000000000BRFESAACNPR5085
012024110702FHER3       010FER HERINGERON      NM   R$  000000000037000000000003700000000000365000000000036600000000003650000000000365000000000037000003000000000000000500000000000000183000000000000000009999123100000010000000000000BRFHERACNOR5103
012024110702FIEI3       010FICA        ON           R$  000000000102500000000010250000000001025000000000102500000000010250000000000960000000000110000001000000000000000200000000000000205000000000000000009999123100000010000000000000BRFIEIACNOR2100
012024110702DASA3       010DASA        ON      NM   R$  000000000026700000000002820000000000253000000000026800000000002580000000000256000000000025802297000000000001275300000000000341787700000000000000009999123100000010000000000000BRDASAACNOR1123
012024110702BEEF3       010MINERVA     ON      NM   R$  000000000059000000000005900000000000556000000000056900000000005570000000000557000000000055811865000000000014877100000000008476463500000000000000009999123100000010000000000000BRBEEFACNOR6117
012024110702BPAC11      010BTGP BANCO  UNT     N2   R$  000000000329600000000033740000000003275000000000331100000000033070000000003304000000000330713742000000000004538100000000015027158800000000000000009999123100000010000000000000BRBPACUNT006119
012024110702BPAC3       010BTGP BANCO  ON      N2   R$  000000000155500000000015680000000001543000000000155300000000015430000000001523000000000156500015000000000000001800000000000002797100000000000000009999123100000010000000000000BRBPACACNOR7134
012024110702BPAC5       010BTGP BANCO  PNA     N2   R$  000000000088500000000008850000000000858000000000086800000000008580000000000843000000000087000013000000000000002700000000000002345200000000000000009999123100000010000000000000BRBPACACNPA0134
012024110702CEBR3       010CEB         ON           R$  000000000185200000000019290000000001852000000000190400000000019290000000001830000000000194000014000000000000002400000000000004571200000000000000009999123100000010000000000000BRCEBRACNOR5125
012024110702CEBR5       010CEB         PNA          R$  000000000172900000000017290000000001656000000000170100000000017090000000001660000000000171000009000000000000001000000000000001701200000000000000009999123100000010000000000000BRCEBRACNPA8124
012024110702CEBR6       010CEB         PNB          R$  000000000187200000000018770000000001795000000000181700000000018130000000001811000000000181300051000000000000013200000000000023987500000000000000009999123100000010000000000000BRCEBRACNPB6124
012024110702CEEB3       010COELBA      ON           R$  000000000385600000000038570000000003850000000000385500000000038500000000003850000000000429800005000000000000000500000000000001927500000000000000009999123100000010000000000000BRCEEBACNOR3200
012024110702FIQE3       010UNIFIQUE    ON      NM   R$  000000000040900000000004090000000000383000000000039600000000003830000000000383000000000038701048000000000000438500000000000173795700000000000000009999123100000010000000000000BRFIQEACNOR5107
012024110702FLRY3       010FLEURY      ON      NM   R$  000000000143000000000014600000000001423000000000143900000000014430000000001439000000000144812958000000000004012600000000005777874600000000000000009999123100000010000000000000BRFLRYACNOR5139
012024110702IFCM3       010INFRACOMM   ON      NM   R$  000000000001400000000000140000000000013000000000001300000000000140000000000013000000000001400703000000000003332400000000000045685100000000000000009999123100000010000000000000BRIFCMACNOR8101
012024110702DOTZ3       010DOTZ SA     ON      NM   R$  000000000050100000000005270000000000501000000000051800000000005160000000000510000000000052800064000000000000019000000000000009860500000000000000009999123100000010000000000000BRDOTZACNOR7101
012024110702FRAS3       010FRAS-LE     ON      N1   R$  000000000216700000000021810000000002108000000000213400000000021140000000002114000000000211802296000000000000401600000000000857385700000000000000009999123100000010000000000000BRFRASACNOR0160
012024110702FRIO3       010METALFRIO   ON      NM   R$  000000001401000000000149000000000014000000000001467000000000149000000000014233000000001490000016000000000000002000000000000029341000000000000000009999123100000010000000000000BRFRIOACNOR2111
012024110702BPAN4       010BANCO PAN   PN      N1   R$  000000000079800000000008080000000000788000000000079600000000008010000000000801000000000080207465000000000002821500000000002247425000000000000000009999123100000010000000000000BRBPANACNPR1115
012024110702BRAP3       010BRADESPAR   ON      N1   R$  000000000181600000000018640000000001816000000000185200000000018410000000001840000000000185700528000000000000128500000000000238047700000000000000009999123100000010000000000000BRBRAPACNOR5148
012024110702IGTI11      010IGUATEMI S.AUNT     N1   R$  000000000205800000000021280000000002016000000000206200000000020510000000002051000000000206411563000000000003762100000000007760403100000000000000009999123100000010000000000000BRIGTICDAM16106
012024110702IGTI3       010IGUATEMI S.AON      N1   R$  000000000025100000000002560000000000241000000000024600000000002450000000000244000000000024500307000000000000131000000000000032241700000000000000009999123100000010000000000000BRIGTIACNOR8106
012024110702JSLG3       010JSL         ON      NM   R$  000000000084100000000008500000000000763000000000079400000000007800000000000777000000000078204012000000000001401900000000001114379500000000000000009999123100000010000000000000BRJSLGACNOR2121
012024110702VITT3       010VITTIA      ON      NM   R$  000000000056600000000005740000000000551000000000055800000000005510000000000551000000000055200874000000000000158400000000000088530200000000000000009999123100000010000000000000BRVITTACNOR4108
012024110702VIVA3       010VIVARA S.A. ON      NM   R$  000000000259200000000026510000000002487000000000255700000000024950000000002495000000000249816354000000000004665600000000011934544300000000000000009999123100000010000000000000BRVIVAACNOR0107
012024110702MATD3       010MATER DEI   ON      NM   R$  000000000042700000000004350000000000413000000000042400000000004150000000000413000000000041500644000000000000337900000000000143530900000000000000009999123100000010000000000000BRMATDACNOR4104
012024110702MBLY3       010MOBLY       ON      NM   R$  000000000020500000000002090000000000197000000000020300000000001970000000000197000000000019800226000000000000185000000000000037663400000000000000009999123100000010000000000000BRMBLYACNOR5101
012024110702MDIA3       010M.DIASBRANCOON      NM   R$  000000000264400000000026500000000002582000000000260700000000026080000000002608000000000261203845000000000000817100000000002130419200000000000000009999123100000010000000000000BRMDIAACNOR7136
012024110702MDNE3       010MOURA DUBEUXON      NM   R$  000000000166700000000016780000000001627000000000164400000000016440000000001632000000000164404214000000000000734600000000001208122400000000000000009999123100000010000000000000BRMDNEACNOR9100
012024110702MEAL3       010IMC S/A     ON      NM   R$  000000000013900000000001400000000000132000000000013600000000001330000000000133000000000013400197000000000000416600000000000056705000000000000000009999123100000010000000000000BRMEALACNOR9105
012024110702MELK3       010MELNICK     ON      NM   R$  000000000037000000000003730000000000355000000000036100000000003580000000000358000000000035900703000000000000478600000000000172851000000000000000009999123100000010000000000000BRMELKACNOR8111
012024110702MGEL4       010MANGELS INDLPN           R$  000000000080000000000008000000000000800000000000080000000000008000000000000778000000000082800001000000000000000200000000000000160000000000000000009999123100000010000000000000BRMGELACNPR3147
012024110702MGLU3       010MAGAZ LUIZA ON      NM   R$  000000000098100000000010100000000000936000000000096900000000009380000000000938000000000094030752000000000039611000000000038407566500000000000000009999123100000010000000000000BRMGLUACNOR2125
012024110702ODPV3       010ODONTOPREV  ON      NM   R$  000000000121000000000012230000000001126000000000115900000000011340000000001134000000000114204652000000000001934400000000002243426400000000000000009999123100000010000000000000BRODPVACNOR4204
012024110702OFSA3       010OUROFINO S/AON      NM   R$  000000000220000000000022000000000002200000000000220000000000022000000000002200000000000223800005000000000000001700000000000003740000000000000000009999123100000010000000000000BROFSAACNOR7118
012024110702ONCO3       010ONCOCLINICASON      NM   R$  000000000045000000000004530000000000438000000000044300000000004440000000000442000000000044502524000000000002991500000000001327443000000000000000009999123100000010000000000000BRONCOACNOR6101
012024110702OPCT3       010OCEANPACT   ON      NM   R$  000000000062000000000006250000000000598000000000060300000000005980000000000598000000000060202028000000000000546400000000000329590400000000000000009999123100000010000000000000BROPCTACNOR0100
012024110702ORVR3       010ORIZON      ON      NM   R$  000000000482800000000048360000000004673000000000474100000000047150000000004715000000000473402933000000000000533900000000002531511400000000000000009999123100000010000000000000BRORVRACNOR0101
012024110702PATI3       010PANATLANTICAON           R$  000000000280000000000028000000000002800000000000280000000000028000000000002450000000000290000002000000000000000200000000000000560000000000000000009999123100000010000000000000BRPATIACNOR6067
012024110702PATI4       010PANATLANTICAPN           R$  000000000330000000000033000000000003300000000000330000000000033000000000003160000000000350000001000000000000000100000000000000330000000000000000009999123100000010000000000000BRPATIACNPR3067
012024110702PCAR3       010P.ACUCAR-CBDON  ATZ NM   R$  000000000031500000000003200000000000301000000000031100000000003050000000000304000000000030511512000000000011749100000000003660000100000000000000009999123100000010000000000000BRPCARACNOR3168
012024110702RANI3       010IRANI       ON      NM   R$  000000000074900000000007560000000000718000000000073300000000007260000000000726000000000072703166000000000001035900000000000760287900000000000000009999123100000010000000000000BRRANIACNOR5073
012024110702RAPT3       010RANDON PART ON      N1   R$  000000000092800000000009410000000000927000000000093300000000009400000000000928000000000094000077000000000000019700000000000018384900000000000000009999123100000010000000000000BRRAPTACNOR7163
012024110702RAPT4       010RANDON PART PN      N1   R$  000000000109200000000011100000000001066000000000108100000000010710000000001071000000000107204649000000000001589800000000001719643400000000000000009999123100000010000000000000BRRAPTACNPR4163
012024110702ALLD3       010ALLIED      ON      NM   R$  000000000078000000000007800000000000759000000000076800000000007640000000000763000000000077100122000000000000021000000000000016147300000000000000009999123100000010000000000000BRALLDACNOR3106
012024110702ALOS3       010ALLOS       ON      NM   R$  000000000219900000000022600000000002181000000000222000000000022020000000002201000000000220310688000000000003723200000000008265882300000000000000009999123100000010000000000000BRALOSACNOR5103
012024110702RCSL3       010RECRUSUL    ON           R$  000000000041800000000004290000000000403000000000041500000000004220000000000421000000000042202728000000000001645700000000000683946500000000000000009999123100000010000000000000BRRCSLACNOR4134
012024110702RCSL4       010RECRUSUL    PN           R$  000000000020100000000002040000000000186000000000019300000000001890000000000188000000000018904605000000000007663200000000001485922600000000000000009999123100000010000000000000BRRCSLACNPR1134
012024110702RDNI3       010RNI         ON      NM   R$  000000000030800000000003090000000000308000000000030800000000003090000000000308000000000030900006000000000000001300000000000000400500000000000000009999123100000010000000000000BRRDNIACNOR9116
012024110702RDOR3       010REDE D OR   ON      NM   R$  000000000290700000000029690000000002867000000000290800000000029060000000002896000000000290812933000000000003028800000000008808632300000000000000009999123100000010000000000000BRRDORACNOR8114
012024110702MTRE3       010MITRE REALTYON      NM   R$  000000000038000000000003830000000000365000000000037300000000003660000000000366000000000036700830000000000000599800000000000223875600000000000000009999123100000010000000000000BRMTREACNOR6116
012024110702MTSA4       010METISA      PN           R$  000000000355900000000036570000000003335000000000342200000000034000000000003335000000000342000035000000000000004800000000000016428700000000000000009999123100000010000000000000BRMTSAACNPR9073
012024110702MULT3       010MULTIPLAN   ON      N2   R$  000000000249800000000025910000000002467000000000251800000000024890000000002489000000000250418518000000000004782400000000012045175000000000000000009999123100000010000000000000BRMULTACNOR5139
012024110702PTBL3       010PORTOBELLO  ON      NM   R$  000000000043000000000004400000000000406000000000041700000000004080000000000408000000000040902262000000000001340000000000000559825500000000000000009999123100000010000000000000BRPTBLACNOR8132
012024110702PTNT3       010PETTENATI   ON  EDJ      R$  000000000093300000000009330000000000929000000000093000000000009290000000000914000000000092600003000000000000000500000000000000465300000000000000009999123100000010000000000000BRPTNTACNOR6043
012024110702PTNT4       010PETTENATI   PN  EDJ      R$  000000000063300000000006590000000000632000000000064600000000006320000000000616000000000066800027000000000000007500000000000004847400000000000000009999123100000010000000000000BRPTNTACNPR3048
012024110702QUAL3       010QUALICORP   ON      NM   R$  000000000026400000000002750000000000219000000000024800000000002260000000000225000000000022609095000000000016997600000000004218025900000000000000009999123100000010000000000000BRQUALACNOR6120
012024110702SLCE3       010SLC AGRICOLAON      NM   R$  000000000178900000000018110000000001747000000000177800000000017470000000001746000000000175305908000000000001784300000000003174186600000000000000009999123100000010000000000000BRSLCEACNOR2125
012024110702SNSY3       010SANSUY      ON           R$  000000000121000000000012490000000001100000000000114700000000011100000000001060000000000114000011000000000000002200000000000002523600000000000000009999123100000010000000000000BRSNSYACNOR2113
012024110702SNSY5       010SANSUY      PNA          R$  000000000057700000000005770000000000499000000000051600000000005020000000000502000000000052000034000000000000013000000000000006712100000000000000009999123100000010000000000000BRSNSYACNPA5111
012024110702SOJA3       010BOA SAFRA   ON      NM   R$  000000000133700000000013530000000001250000000000129400000000012500000000001250000000000126302833000000000000599000000000000775413700000000000000009999123100000010000000000000BRSOJAACNOR9106
012024110702SRNA3       010SERENA      ON      NM   R$  000000000074500000000007590000000000730000000000074300000000007450000000000738000000000074511073000000000004796400000000003564620800000000000000009999123100000010000000000000BRSRNAACNOR4100
012024110702STBP3       010SANTOS BRP  ON  EDJ NM   R$  000000000128300000000012830000000001262000000000126900000000012740000000001270000000000127406678000000000009490800000000012053044100000000000000009999123100000010000000000000BRSTBPACNOR3133
012024110702SUZB3       010SUZANO S.A. ON      NM   R$  000000000591100000000059470000000005839000000000589400000000058890000000005889000000000590029978000000000008987700000000052975160900000000000000009999123100000010000000000000BRSUZBACNOR0130
012024110702ZAMP3       010ZAMP S.A.   ON           R$  000000000024100000000002580000000000241000000000024900000000002480000000000245000000000024801967000000000000713400000000000178329700000000000000009999123100000010000000000000BRZAMPACNOR5101
012024110702BIOM3       010BIOMM       ON      MA   R$  000000000099200000000009950000000000917000000000097400000000009950000000000990000000000099500285000000000000078900000000000076877400000000000000009999123100000010000000000000BRBIOMACNOR2112
012024110707SEQL3       010SEQUOIA LOG ON      NM   R$  000000000039800000000004140000000000379000000000039200000000003830000000000383000000000038401416000000000000950000000000000373033000000000000000009999123100000010000000000000BRSEQLACNOR2103
012024110707NUTR3       010NUTRIPLANT  ON      MA   R$  000000000039100000000003910000000000376000000000038200000000003760000000000376000000000038300023000000000000003700000000000001415900000000000000009999123100000010000000000000BRNUTRACNOR0104
012024110707TXRX4       010TEX RENAUX  PN           R$  000000000022000000000002200000000000220000000000022000000000002200000000000218000000000022600002000000000000000200000000000000044000000000000000009999123100000010000000000000BRTXRXACNPR0142
012024110708LIGT3       010LIGHT S/A   ON  ES  NM   R$  000000000049800000000005010000000000487000000000049200000000004950000000000490000000000049501534000000000000396300000000000195070900000000000000009999123100000010000000000000BRLIGTACNOR2125
012024110708ATMP3       010ATMASA      ON           R$  000000000013700000000001370000000000133000000000013400000000001330000000000133000000000013600003000000000000001000000000000000134200000000000000009999123100000010000000000000BRATMPACNOR8100
012024110708NEXP3       010NEXPE       ON           R$  000000000043700000000004450000000000437000000000044100000000004450000000000437000000000044900002000000000000000200000000000000088200000000000000009999123100000010000000000000BRNEXPACNOR0101
012024110708CTSA3       010SANTANENSE  ON           R$  000000000020800000000002080000000000208000000000020800000000002080000000000179000000000021500009000000000000003000000000000000624000000000000000009999123100000010000000000000BRCTSAACNOR3062
012024110708CTSA4       010SANTANENSE  PN           R$  000000000010300000000001030000000000103000000000010300000000001030000000000100000000000011100003000000000000000400000000000000041200000000000000009999123100000010000000000000BRCTSAACNPR0062
012024110708RNEW11      010RENOVA      UNT     N2   R$  000000000032200000000003380000000000322000000000032800000000003250000000000323000000000033300040000000000000012300000000000004038100000000000000009999123100000010000000000000BRRNEWCDAM15110
012024110708RNEW3       010RENOVA      ON      N2   R$  000000000010800000000001100000000000105000000000010800000000001070000000000105000000000010700118000000000000082500000000000008930200000000000000009999123100000010000000000000BRRNEWACNOR8110
012024110708RNEW4       010RENOVA      PN      N2   R$  000000000010800000000001130000000000107000000000010900000000001090000000000107000000000010900242000000000000220200000000000024154300000000000000009999123100000010000000000000BRRNEWACNPR5110
012024110708RPMG3       010PET MANGUINHON           R$  000000000027500000000002750000000000257000000000026700000000002600000000000260000000000026700064000000000000036200000000000009675000000000000000009999123100000010000000000000BRRPMGACNOR9194
012024110708RSID3       010ROSSI RESID ON      NM   R$  000000000031600000000003170000000000303000000000031000000000003170000000000313000000000031700337000000000000056700000000000017619300000000000000009999123100000010000000000000BRRSIDACNOR8120
012024110708HOOT4       010HOTEIS OTHONPN           R$  000000000023900000000002390000000000228000000000023300000000002300000000000230000000000023400018000000000000005300000000000001236000000000000000009999123100000010000000000000BRHOOTACNPR9015
012024110708PMAM3       010PARANAPANEMAON      NM   R$  000000000010100000000001070000000000100000000000010300000000001010000000000101000000000010200343000000000000275200000000000028358700000000000000009999123100000010000000000000BRPMAMACNOR3040
012024110708JFEN3       010JOAO FORTES ON           R$  000000000002400000000000250000000000023000000000002300000000000230000000000022000000000002300224000000000001232800000000000029256600000000000000009999123100000010000000000000BRJFENACNOR0059
012024110708AMER3       010AMERICANAS  ON      NM   R$  000000000032600000000003360000000000322000000000032800000000003240000000000322000000000032407139000000000011846600000000003895199300000000000000009999123100000010000000000000BRAMERACNOR6103
012024110708OIBR3       010OI          ON      N1   R$  000000000046100000000004620000000000415000000000043400000000004210000000000420000000000042101773000000000001211000000000000526361400000000000000009999123100000010000000000000BROIBRACNOR1112
012024110708OIBR4       010OI          PN      N1   R$  000000000115300000000012430000000001057000000000117100000000011050000000001105000000000112500097000000000000018200000000000021325400000000000000009999123100000010000000000000BROIBRACNPR8111
012024110708OSXB3       010OSX BRASIL  ON      NM   R$  000000000049700000000005150000000000467000000000049400000000004990000000000474000000000049900016000000000000003000000000000001482600000000000000009999123100000010000000000000BROSXBACNOR8109
012024110708AGXY3       010AGROGALAXY  ON      NM   R$  000000000004300000000000470000000000043000000000004400000000000440000000000043000000000004400322000000000000379400000000000016940700000000000000009999123100000010000000000000BRAGXYACNOR4103
012024110710LIGT11      010LIGHT S/A   DIR     NM   R$  000000000000100000000000010000000000001000000000000100000000000010000000000000000000000000100102000000000000313600000000000000313600000000000000009999123100000010000000000000BRLIGTD01M16124
012024110710LIGT13      010LIGHT S/A   DIR     NM   R$  000000000000100000000000010000000000001000000000000100000000000010000000000000000000000000100049000000000000110400000000000000110400000000000000009999123100000010000000000000BRLIGTD02M15124
012024110710BSLI2       010BRB BANCO   DIR PRE      R$  000000000005800000000000580000000000058000000000005800000000000580000000000005000000000005400001000000000000000100000000000000005800000000000000009999123100000010000000000000BRBSLID03PR3194
012024110710HBSA1       010HIDROVIAS   DIR ORD NM   R$  000000000000200000000000020000000000001000000000000100000000000010000000000000000000000000100092000000000004601400000000000005257800000000000000009999123100000010000000000000BRHBSAD01OR5100
012024110710MBLY1       010MOBLY       DIR ORD NM   R$  000000000000100000000000010000000000001000000000000100000000000010000000000000000000000000100004000000000000003900000000000000003900000000000000009999123100000010000000000000BRMBLYD01OR0100
012024110710MBLY11      010MOBLY       DIR     NM   R$  000000000000600000000000100000000000005000000000000600000000000070000000000007000000000000900030000000000000031500000000000000204000000000000000009999123100000010000000000000BRMBLYD01M18100
012024110712AZPL11      010FII AZPL    CI  ER       R$  000000000070500000000007290000000000703000000000071400000000007070000000000708000000000072001586000000000000076628000000000054729140000000000000009999123100000010000000000000BRAZPLCTF000105
012024110712BROF11      010FII BROF    CI           R$  000000000471900000000047860000000004626000000000471400000000047270000000004727000000000475600869000000000000005624000000000026512571000000000000009999123100000010000000000000BRBROFCTF000118
012024110712CBOP11      010FII CBOP PAXCI  ER       R$  000000000266900000000026690000000002450000000000253200000000026000000000002480000000000270000131000000000000000224000000000000567184000000000000009999123100000010000000000000BRCBOPCTF001235
012024110712CCME11      010FII CANUMA  CI           R$  000000000092000000000009220000000000915000000000091600000000009220000000000917000000000092205427000000000000041488000000000038022472000000000000009999123100000010000000000000BRCCMECTF007127
012024110712CPLG11      010FII CPLG    CI           R$  000000000109000000000010900000000001090000000000109000000000010900000000001002000000000109000001000000000000000010000000000000010900000000000000009999123100000010000000000000BRCPLGCTF006101
012024110712CPOF11      010FII CPOF    CI           R$  000000001000000000000109000000000010000000000001082200000000109000000000010100000000001090000004000000000000000022000000000000238100000000000000009999123100000010000000000000BRCPOFCTF002111
012024110712CPSH11      010FII CPSH    CI           R$  000000000097600000000009890000000000972000000000098200000000009890000000000989000000000099005344000000000000115283000000000113288686000000000000009999123100000010000000000000BRCPSHCTF017118
012024110712CPTS11      010FII CAPI SECCI           R$  000000000072800000000007300000000000724000000000072600000000007280000000000727000000000072820310000000000000892548000000000648375345000000000000009999123100000010000000000000BRCPTSCTF004235
012024110712CPUR11      010FII CPHBC URCI           R$  000000000096000000000009600000000000900000000000092000000000009600000000000925000000000096000011000000000000001363000000000001254815000000000000009999123100000010000000000000BRCPURCTF004100
012024110712GRUL11      010FII GRUL    CI  ER       R$  000000000085800000000008660000000000841000000000084800000000008490000000000845000000000085500131000000000000024946000000000021172616000000000000009999123100000010000000000000BRGRULCTF004101
012024110712GSFI11      010FII GENERAL CI           R$  000000000076700000000007690000000000746000000000075100000000007490000000000749000000000075000157000000000000021114000000000015866317000000000000009999123100000010000000000000BRGSFICTF009103
012024110712LIFE11      010FII LIFE    CI  ER       R$  000000000096500000000009800000000000956000000000096800000000009750000000000975000000000097801850000000000000066372000000000064261064000000000000009999123100000010000000000000BRLIFECTF017135
012024110712AFHI11      010FII AFHI CRICI           R$  000000000946600000000094710000000009375000000000942300000000094180000000009418000000000941901439000000000000009886000000000093160045000000000000009999123100000010000000000000BRAFHICTF005147
012024110712GTWR11      010FII G TOWERSCI  ER       R$  000000000735000000000073960000000007300000000000735000000000073960000000007362000000000739701746000000000000006417000000000047165773000000000000009999123100000010000000000000BRGTWRCTF003168
012024110712GZIT11      010FII GAZIT   CI           R$  000000000457400000000046390000000004574000000000459600000000046290000000004584000000000462900665000000000000006154000000000028286999000000000000009999123100000010000000000000BRGZITCTF005112
012024110712HABT11      010FII HABIT IICI  ER       R$  000000000790800000000079450000000007852000000000790900000000079170000000007903000000000791701578000000000000014984000000000118515825000000000000009999123100000010000000000000BRHABTCTF001165
012024110712ASMT11      010FII ASA MET CI           R$  000000000369300000000036930000000003650000000000365100000000036500000000003610000000000387100002000000000000000043000000000000156993000000000000009999123100000010000000000000BRASMTCTF005107
012024110712ATSA11      010FII HATRIUM CI           R$  000000000510700000000051070000000005107000000000510700000000051070000000004900000000000510700002000000000000000006000000000000030642000000000000009999123100000010000000000000BRATSACTF000145
012024110712AURB11      010FII ALI URB CI           R$  000000000780000000000078000000000007800000000000780000000000078000000000007800000000000000000001000000000000000001000000000000007800000000000000009999123100000010000000000000BRAURBCTF008117
012024110712BLCA11      010FII BLUE AAACI           R$  000000000984200000000098480000000009751000000000976900000000098000000000009770000000000984800124000000000000002446000000000023895068000000000000009999123100000010000000000000BRBLCACTF009135
012024110712BLMG11      010FII BLUE LOGCI           R$  000000000338100000000034460000000003375000000000339600000000034130000000003413000000000341701062000000000000027965000000000094990969000000000000009999123100000010000000000000BRBLMGCTF005151
012024110712BTAL11      010FII BTG AGROCI           R$  000000000699400000000070500000000006980000000000702500000000070380000000007038000000000705000768000000000000009512000000000066828250000000000000009999123100000010000000000000BRBTALCTF003144
012024110712BTCI11      010FII BTG CRI CI           R$  000000000091200000000009250000000000907000000000091400000000009160000000000916000000000091707272000000000000201102000000000183836324000000000000009999123100000010000000000000BRBTCICTF005124
012024110712BTHI11      010BTG HOTEL FICI  ER       R$  000000000389600000000039970000000003896000000000393700000000039200000000003920000000000398300055000000000000002030000000000007993452000000000000009999123100000010000000000000BRBTHICTF004114
012024110712BTLG11      010FII BTLG    CI           R$  000000000959000000000096560000000009586000000000961500000000096560000000009656000000000965710469000000000000070120000000000674222323000000000000009999123100000010000000000000BRBTLGCTF000167
012024110712BTRA11      010FII BTG TAGRCI           R$  000000000409300000000042000000000004093000000000416000000000041560000000004113000000000415600436000000000000005639000000000023459768000000000000009999123100000010000000000000BRBTRACTF000141
012024110712BLOG11      010FII BLOG    CI           R$  000000000105000000000010500000000001050000000000105000000000010500000000001030000000000105000004000000000000000013000000000000013650000000000000009999123100000010000000000000BRBLOGCTF001105
012024110712BLUR11      010FII BLUE RECCI           R$  000000000789400000000085000000000007100000000000721400000000085000000000007100000000000850000008000000000000000061000000000000440102000000000000009999123100000010000000000000BRBLURCTF005131
012024110712BMLC11      010FII BMBRC LCCI           R$  000000000992800000000099280000000009301000000000956300000000098000000000009450000000000980000028000000000000000401000000000003835072000000000000009999123100000010000000000000BRBMLCCTF004255
012024110712BTSG11      010FII BTSP I  CI  ER       R$  000000001590500000000159050000000015905000000001590500000000159050000000015905000000000000000003000000000000000015000000000000238575000000000000009999123100000010000000000000BRBTSGCTF005136
012024110712BTWR11      010FII BTOWERS CI  ER       R$  000000001054900000000105490000000010549000000001054900000000105490000000000000000000000000000001000000000000000670000000000007067830000000000000009999123100000010000000000000BRBTWRCTF004141
012024110712BTYU11      010FII BTYU    CI           R$  000000000111000000000011100000000001110000000000111000000000011100000000001001000000000113000001000000000000000003000000000000003330000000000000009999123100000010000000000000BRBTYUCTF004106
012024110712CPFF11      010FII CAP REITCI           R$  000000000615500000000063010000000006155000000000618500000000063010000000006158000000000636200548000000000000001766000000000010923672000000000000009999123100000010000000000000BRCPFFCTF000160
012024110712EGYR11      010FII ENERGY  CI           R$  000000000035000000000003600000000000330000000000034600000000003600000000000331000000000035500021000000000000000064000000000000022186000000000000009999123100000010000000000000BREGYRCTF001102
012024110712GGRC11      010FII GGRCOVEPCI  ER       R$  000000000101400000000010220000000001013000000000101600000000010180000000001018000000000102203515000000000000115329000000000117246148000000000000009999123100000010000000000000BRGGRCCTF002200
012024110712GLOG11      010FII PLURAL LCI  ER       R$  000000000582600000000060420000000005826000000000603900000000060420000000005856000000000601900004000000000000000102000000000000615997000000000000009999123100000010000000000000BRGLOGCTF000118
012024110712PRSN11      010FII PERSONALCI           R$  000000000013100000000001310000000000111000000000011300000000001120000000000112000000000012000020000000000000000569000000000000064365000000000000009999123100000010000000000000BRPRSNCTF005125
012024110712PRSV11      010FII P VARGASCI           R$  000000000602400000000060240000000006000000000000601900000000060240000000006000000000000640000004000000000000000011000000000000066216000000000000009999123100000010000000000000BRPRSVCTF008226
012024110712SARE11      010FII SANT RENCI  ER       R$  000000000039800000000003980000000000393000000000039500000000003940000000000394000000000039701071000000000000130810000000000051782489000000000000009999123100000010000000000000BRSARECTF006162
012024110712SCPF11      010FII SCP     CI           R$  000000000019500000000001980000000000189000000000019400000000001980000000000192000000000019800044000000000000000552000000000000107554000000000000009999123100000010000000000000BRSCPFCTF003302
012024110712SEQR11      010FII SEQUOIA CI           R$  000000000503000000000050500000000005030000000000503200000000050400000000005033000000000504000061000000000000004297000000000021626179000000000000009999123100000010000000000000BRSEQRCTF002147
012024110712SHPH11      010FII HIGIENOPCI  ER       R$  000000008748900000000874890000000086355000000008653600000000863550000000086355000000008685000015000000000000000037000000000003201866000000000000009999123100000010000000000000BRSHPHCTF008355
012024110712WHGR11      010FII WHG REALCI  ER       R$  000000000086700000000008810000000000864000000000087100000000008760000000000876000000000088000392000000000000012530000000000010921198000000000000009999123100000010000000000000BRWHGRCTF008130
012024110712WPLZ11      010FII W PLAZA CI  ER       R$  000000000562200000000056220000000005444000000000549600000000055000000000005401000000000550000009000000000000000145000000000000797010000000000000009999123100000010000000000000BRWPLZCTF004271
012024110712WSEC11      010FII WARREN  CI           R$  000000000080000000000008240000000000798000000000080000000000008240000000000823000000000082503268000000000000016810000000000013464384000000000000009999123100000010000000000000BRWSECCTF010125
012024110712WTSP11      010FII WTC SP  CI           R$  000000000549900000000054990000000005400000000000543000000000054000000000005119000000000550000022000000000000001454000000000007896546000000000000009999123100000010000000000000BRWTSPCTF002168
