00COTAHIST.2024BOVESPA 20241111                                                                                                                                                                                                                      
012024111102BRFS3       010BRF SA      ON      NM   R$  000000000240700000000024340000000002394000000000241200000000024210000000002420000000000242210749000000000005377700000000012976105800000000000000009999123100000010000000000000BRBRFSACNOR8122
012024111102EQMA3B      010EQTLMARANHAOON      MB   R$  000000000231000000000023400000000002310000000000231700000000023400000000002320000000000233900007000000000000001900000000000004404100000000000000009999123100000010000000000000BREQMAACNOR8108
012024111102EQPA3       010EQTL PARA   ON           R$  000000000058100000000005860000000000570000000000057700000000005700000000000575000000000057800018000000000000005000000000000002887800000000000000009999123100000010000000000000BREQPAACNOR1111
012024111102EQTL3       010EQUATORIAL  ON      NM   R$  000000000314200000000031520000000003125000000000314000000000031360000000003135000000000314717402000000000004407500000000013843879800000000000000009999123100000010000000000000BREQTLACNOR0131
012024111102ESPA3       010ESPACOLASER ON      NM   R$  000000000010100000000001020000000000099000000000010000000000001000000000000100000000000010100099000000000000576800000000000058056500000000000000009999123100000010000000000000BRESPAACNOR7103
012024111102ETER3       010ETERNIT     ON  EJ  NM   R$  000000000052400000000005440000000000515000000000053000000000005430000000000534000000000054300859000000000000298600000000000158403200000000000000009999123100000010000000000000BRETERACNOR3245
012024111102EUCA3       010EUCATEX     ON      N1   R$  000000000160700000000016390000000001607000000000161700000000016390000000001597000000000163900004000000000000000600000000000000970600000000000000009999123100000010000000000000BREUCAACNOR1157
012024111102EUCA4       010EUCATEX     PN      N1   R$  000000000142000000000014250000000001385000000000139500000000013870000000001387000000000139800192000000000000029200000000000040761600000000000000009999123100000010000000000000BREUCAACNPR8044
012024111102EVEN3       010EVEN        ON      NM   R$  000000000058100000000005900000000000578000000000058200000000005810000000000579000000000058102201000000000000706700000000000411686200000000000000009999123100000010000000000000BREVENACNOR8120
012024111102ATOM3       010ATOMPAR     ON           R$  000000000035300000000003830000000000323000000000035200000000003230000000000314000000000032500362000000000000181600000000000063926900000000000000009999123100000010000000000000BRATOMACNOR1106
012024111102AURE3       010AUREN       ON      NM   R$  000000000101700000000010200000000001003000000000100600000000010030000000001002000000000100407643000000000004401900000000004432230500000000000000009999123100000010000000000000BRAUREACNOR9104
012024111102TCSA3       010TECNISA     ON      NM   R$  000000000013900000000001420000000000137000000000013800000000001420000000000139000000000014200142000000000000092400000000000012840500000000000000009999123100000010000000000000BRTCSAACNOR3112
012024111102TECN3       010TECHNOS     ON      NM   R$  000000000052100000000005470000000000513000000000052900000000005470000000000529000000000054700150000000000000052800000000000027980800000000000000009999123100000010000000000000BRTECNACNOR6109
012024111102TELB3       010TELEBRAS    ON           R$  000000000126600000000013000000000001205000000000126100000000013000000000001272000000000131000016000000000000001800000000000002271500000000000000009999123100000010000000000000BRTELBACNOR2140
012024111102TELB4       010TELEBRAS    PN           R$  000000000083100000000008310000000000800000000000081000000000008180000000000818000000000082000025000000000000004400000000000003567400000000000000009999123100000010000000000000BRTELBACNPR9140
012024111102TEND3       010TENDA       ON      NM   R$  000000000164900000000017690000000001623000000000172800000000017610000000001758000000000176217350000000000005399200000000009331455400000000000000009999123100000010000000000000BRTENDACNOR4111
012024111102TFCO4       010TRACK FIELD PN      N2   R$  000000000099000000000009910000000000974000000000097900000000009790000000000979000000000098200849000000000000376400000000000368683000000000000000009999123100000010000000000000BRTFCOACNPR8115
012024111102TGMA3       010TEGMA       ON  EDJ NM   R$  000000000313400000000031430000000003092000000000312600000000031430000000003137000000000314400783000000000000135200000000000422696600000000000000009999123100000010000000000000BRTGMAACNOR7146
012024111102TIMS3       010TIM         ON      NM   R$  000000000159500000000016630000000001592000000000164500000000016610000000001650000000000166217844000000000011463300000000018865959900000000000000009999123100000010000000000000BRTIMSACNOR5118
012024111102TOTS3       010TOTVS       ON      NM   R$  000000000306000000000030890000000002986000000000301200000000030000000000002999000000000300015730000000000004252900000000012813575200000000000000009999123100000010000000000000BRTOTSACNOR8145
012024111102VLID3       010VALID       ON  EJ  NM   R$  000000000253500000000026280000000002490000000000258100000000026020000000002600000000000260504645000000000000896200000000002313935600000000000000009999123100000010000000000000BRVLIDACNOR5145
012024111102VSTE3       010VESTE       ON      NM   R$  000000000099100000000010180000000000990000000000100300000000010100000000000994000000000101000021000000000000002300000000000002309000000000000000009999123100000010000000000000BRVSTEACNOR5103
012024111102VTRU3       010VITRUEDUCA  ON      NM   R$  000000000087400000000008800000000000844000000000085500000000008560000000000854000000000085600523000000000000155600000000000133151900000000000000009999123100000010000000000000BRVTRUACNOR3100
012024111102VULC3       010VULCABRAS   ON      NM   R$  000000000163800000000016430000000001579000000000161200000000016090000000001608000000000161304102000000000001258700000000002029745200000000000000009999123100000010000000000000BRVULCACNOR2163
012024111102VVEO3       010VIVEO       ON      NM   R$  000000000024000000000002400000000000230000000000023400000000002330000000000233000000000023501847000000000001228900000000000287635400000000000000009999123100000010000000000000BRVVEOACNOR0104
012024111102WEGE3       010WEG         ON      NM   R$  000000000546600000000055490000000005455000000000551800000000055490000000005537000000000554914383000000000003348100000000018475098900000000000000009999123100000010000000000000BRWEGEACNOR0225
012024111102ZAMP3       010ZAMP S.A.   ON           R$  000000000026400000000002660000000000252000000000025600000000002610000000000253000000000026101569000000000000813700000000000208887800000000000000009999123100000010000000000000BRZAMPACNOR5101
012024111102CEAB3       010CEA MODAS   ON      NM   R$  000000000127600000000013610000000001270000000000132800000000013460000000001343000000000134811266000000000004291300000000005700620300000000000000009999123100000010000000000000BRCEABACNOR1102
012024111102CEBR3       010CEB         ON           R$  000000000189500000000019000000000001855000000000187000000000018560000000001856000000000186000024000000000000004900000000000009165200000000000000009999123100000010000000000000BRCEBRACNOR5125
012024111102CEBR5       010CEB         PNA          R$  000000000167500000000016860000000001611000000000166100000000016690000000001669000000000167800005000000000000000700000000000001162700000000000000009999123100000010000000000000BRCEBRACNPA8124
012024111102CEBR6       010CEB         PNB          R$  000000000180200000000018200000000001800000000000180600000000018080000000001805000000000180800040000000000000014300000000000025839800000000000000009999123100000010000000000000BRCEBRACNPB6124
012024111102CEDO3       010CEDRO       ON      N1   R$  000000000249900000000025000000000002499000000000249900000000025000000000002450000000000269000004000000000000002200000000000005499300000000000000009999123100000010000000000000BRCEDOACNOR8096
012024111102CEDO4       010CEDRO       PN      N1   R$  000000000260000000000026000000000002500000000000253600000000025010000000002500000000000254600006000000000000001100000000000002790100000000000000009999123100000010000000000000BRCEDOACNPR5128
012024111102CEEB3       010COELBA      ON           R$  000000000426500000000042650000000003900000000000416000000000039000000000003900000000000400000005000000000000000600000000000002496000000000000000009999123100000010000000000000BRCEEBACNOR3200
012024111102CGAS3       010COMGAS      ON           R$  000000001315000000000131500000000013000000000001310000000000130000000000013000000000001329900003000000000000000300000000000003930000000000000000009999123100000010000000000000BRCGASACNOR0164
012024111102CGAS5       010COMGAS      PNA          R$  000000001360000000000139000000000013600000000001368200000000137000000000013600000000001370000017000000000000001900000000000025997600000000000000009999123100000010000000000000BRCGASACNPA3161
012024111102CGRA3       010GRAZZIOTIN  ON           R$  000000000247900000000026000000000002479000000000257700000000025500000000002450000000000257500017000000000000003200000000000008249500000000000000009999123100000010000000000000BRCGRAACNOR2083
012024111102CGRA4       010GRAZZIOTIN  PN           R$  000000000246900000000025150000000002442000000000248000000000024780000000002477000000000253500047000000000000006400000000000015876000000000000000009999123100000010000000000000BRCGRAACNPR9083
012024111102BRAP4       010BRADESPAR   PN      N1   R$  000000000191800000000019190000000001894000000000190400000000019000000000001900000000000190115293000000000007255800000000013815612900000000000000009999123100000010000000000000BRBRAPACNPR2148
012024111102CSED3       010CRUZEIRO EDUON      NM   R$  000000000031700000000003400000000000312000000000032800000000003390000000000337000000000033901167000000000000479100000000000157313900000000000000009999123100000010000000000000BRCSEDACNOR9105
012024111102CSMG3       010COPASA      ON      NM   R$  000000000232900000000024490000000002289000000000240000000000024240000000002424000000000242509452000000000002529600000000006071762400000000000000009999123100000010000000000000BRCSMGACNOR5175
012024111102CSNA3       010SID NACIONALON           R$  000000000115800000000011620000000001125000000000113400000000011290000000001129000000000113010782000000000007766000000000008811015600000000000000009999123100000010000000000000BRCSNAACNOR6261
012024111102ELMD3       010ELETROMIDIA ON      NM   R$  000000000266000000000027610000000002655000000000270100000000027300000000002730000000000273201207000000000000781000000000002110044000000000000000009999123100000010000000000000BRELMDACNOR3101
012024111102EMAE3       010EMAE        ON           R$  000000000700000000000070000000000007000000000000700000000000070000000000007000000000000000000002000000000000000200000000000001400000000000000000009999123100000010000000000000BREMAEACNOR4126
012024111102EMAE4       010EMAE        PN           R$  000000000396200000000040700000000003962000000000402300000000040700000000003905000000000408000003000000000000000300000000000001206900000000000000009999123100000010000000000000BREMAEACNPR1126
012024111102EMBR3       010EMBRAER     ON      NM   R$  000000000543400000000056010000000005392000000000552800000000055650000000005562000000000556532123000000000009368100000000051793595400000000000000009999123100000010000000000000BREMBRACNOR4191
012024111102CLSA3       010CLEARSALE   ON      NM   R$  000000000098000000000009910000000000970000000000097900000000009820000000000978000000000098203708000000000003700100000000003624641000000000000000009999123100000010000000000000BRCLSAACNOR0100
012024111102CLSC4       010CELESC      PN      N2   R$  000000000810100000000081720000000008004000000000812700000000081200000000008026000000000818500015000000000000001500000000000012191500000000000000009999123100000010000000000000BRCLSCACNPR3132
012024111102CMIG3       010CEMIG       ON      N1   R$  000000000145400000000014720000000001433000000000144800000000014720000000001461000000000147200652000000000000113400000000000164263300000000000000009999123100000010000000000000BRCMIGACNOR6244
012024111102CMIG4       010CEMIG       PN      N1   R$  000000000113000000000011540000000001126000000000114300000000011510000000001150000000000115215298000000000009303700000000010634549500000000000000009999123100000010000000000000BRCMIGACNPR3245
012024111102CSUD3       010CSU DIGITAL ON      NM   R$  000000000159300000000016150000000001521000000000154400000000015250000000001525000000000154800677000000000000109300000000000168801000000000000000009999123100000010000000000000BRCSUDACNOR5111
012024111102CURY3       010CURY S/A    ON      NM   R$  000000000226400000000022890000000002231000000000226900000000022710000000002271000000000227507649000000000001809400000000004106318000000000000000009999123100000010000000000000BRCURYACNOR3110
012024111102CVCB3       010CVC BRASIL  ON      NM   R$  000000000020200000000002080000000000200000000000020300000000002080000000000208000000000020905884000000000010964600000000002228723400000000000000009999123100000010000000000000BRCVCBACNOR1116
012024111102ENEV3       010ENEVA       ON      NM   R$  000000000122200000000012410000000001220000000000123200000000012320000000001232000000000123313408000000000004903900000000006045750700000000000000009999123100000010000000000000BRENEVACNOR8106
012024111102ENGI11      010ENERGISA    UNT     N2   R$  000000000409200000000041760000000004085000000000413400000000041220000000004122000000000414012817000000000002358400000000009749659300000000000000009999123100000010000000000000BRENGICDAM16136
012024111102ENGI3       010ENERGISA    ON      N2   R$  000000000122000000000012300000000001208000000000121500000000012110000000001211000000000123000026000000000000003200000000000003889200000000000000009999123100000010000000000000BRENGIACNOR0146
012024111102ENGI4       010ENERGISA    PN      N2   R$  000000000074000000000007400000000000718000000000072600000000007280000000000726000000000073900041000000000000006400000000000004648300000000000000009999123100000010000000000000BRENGIACNPR7142
012024111102ENJU3       010ENJOEI      ON      NM   R$  000000000012900000000001330000000000127000000000013000000000001310000000000131000000000013200380000000000000217300000000000028462200000000000000009999123100000010000000000000BRENJUACNOR9100
012024111102EPAR3       010EMBPAR S/A  ON           R$  000000000057100000000005710000000000552000000000055700000000005520000000000553000000000055500024000000000000003500000000000001952700000000000000009999123100000010000000000000BREPARACNOR9105
012024111102BLAU3       010BLAU        ON      NM   R$  000000000152300000000015400000000001506000000000152100000000015250000000001509000000000152501610000000000000236500000000000359904700000000000000009999123100000010000000000000BRBLAUACNOR8115
012024111102BPAC11      010BTGP BANCO  UNT     N2   R$  000000000323500000000033640000000003218000000000331000000000033600000000003350000000000336323532000000000010805900000000035769832200000000000000009999123100000010000000000000BRBPACUNT006119
012024111102BPAC3       010BTGP BANCO  ON      N2   R$  000000000151000000000015800000000001494000000000154800000000015800000000001517000000000158000046000000000000006400000000000009913300000000000000009999123100000010000000000000BRBPACACNOR7134
012024111102BPAC5       010BTGP BANCO  PNA     N2   R$  000000000086600000000009030000000000863000000000087000000000008690000000000857000000000088800049000000000000008900000000000007746800000000000000009999123100000010000000000000BRBPACACNPA0134
012024111102CRPG5       010CRISTAL     PNA          R$  000000000243900000000024400000000002412000000000243300000000024400000000002401000000000244000015000000000000002400000000000005839200000000000000009999123100000010000000000000BRCRPGACNPA3119
012024111102CRPG6       010CRISTAL     PNB          R$  000000000253600000000025490000000002501000000000252100000000025490000000002451000000000254900004000000000000000400000000000001008700000000000000009999123100000010000000000000BRCRPGACNPB1119
012024111102CSAN3       010COSAN       ON      NM   R$  000000000116100000000011740000000001145000000000115900000000011630000000001163000000000116513040000000000007949600000000009218247700000000000000009999123100000010000000000000BRCSANACNOR6126
012024111102GGPS3       010GPS         ON      NM   R$  000000000167100000000016760000000001655000000000166700000000016730000000001665000000000167405342000000000001307400000000002180076300000000000000009999123100000010000000000000BRGGPSACNOR9103
012024111102ANIM3       010ANIMA       ON      NM   R$  000000000023400000000002440000000000230000000000023600000000002420000000000240000000000024204888000000000008250100000000001950236700000000000000009999123100000010000000000000BRANIMACNOR6109
012024111102GMAT3       010GRUPO MATEUSON      NM   R$  000000000073400000000007560000000000734000000000074800000000007470000000000746000000000074810697000000000004687400000000003508154000000000000000009999123100000010000000000000BRGMATACNOR7103
012024111102GOAU3       010GERDAU MET  ON      N1   R$  000000000110000000000011060000000001048000000000108300000000010910000000001090000000000109700660000000000000129500000000000140371600000000000000009999123100000010000000000000BRGOAUACNOR1268
012024111102GOAU4       010GERDAU MET  PN      N1   R$  000000000113700000000011490000000001119000000000113900000000011480000000001147000000000114808815000000000007881400000000008978744900000000000000009999123100000010000000000000BRGOAUACNPR8269
012024111102ITSA3       010ITAUSA      ON      N1   R$  000000000107000000000010730000000001063000000000106300000000010630000000001062000000000106500320000000000003460800000000003679213300000000000000009999123100000010000000000000BRITSAACNOR0443
012024111102ITSA4       010ITAUSA      PN      N1   R$  000000000106400000000010700000000001060000000000106500000000010650000000001065000000000106624052000000000026880900000000028641988300000000000000009999123100000010000000000000BRITSAACNPR7443
012024111102BIOM3       010BIOMM       ON      MA   R$  000000000099900000000010040000000000958000000000098200000000009740000000000971000000000097400203000000000000054700000000000053725800000000000000009999123100000010000000000000BRBIOMACNOR2112
012024111102ROMI3       010ROMI        ON      NM   R$  000000000096700000000009700000000000958000000000096200000000009700000000000960000000000097000712000000000000176500000000000169871400000000000000009999123100000010000000000000BRROMIACNOR8196
012024111102RSUL4       010RIOSULENSE  PN           R$  000000000606900000000060690000000006020000000000604100000000060200000000006000000000000602000005000000000000000500000000000003020500000000000000009999123100000010000000000000BRRSULACNPR3114
012024111102PLPL3       010PLANOEPLANO ON      NM   R$  000000000130700000000013270000000001287000000000130900000000013250000000001315000000000132504469000000000001160100000000001519161300000000000000009999123100000010000000000000BRPLPLACNOR5104
012024111102PNVL3       010DIMED       ON      NM   R$  000000000099500000000010000000000000983000000000099100000000009970000000000988000000000099701128000000000000218400000000000216625500000000000000009999123100000010000000000000BRPNVLACNOR9208
012024111102POMO3       010MARCOPOLO   ON      N2   R$  000000000066700000000006800000000000658000000000066800000000006800000000000675000000000068000653000000000000252900000000000169092000000000000000009999123100000010000000000000BRPOMOACNOR0099
012024111102POMO4       010MARCOPOLO   PN      N2   R$  000000000089000000000009050000000000875000000000089000000000009040000000000901000000000090421631000000000010114500000000009002784200000000000000009999123100000010000000000000BRPOMOACNPR7099
012024111102PORT3       010WILSON SONS ON      NM   R$  000000000157100000000015800000000001560000000000157200000000015770000000001575000000000157802260000000000001426600000000002243672700000000000000009999123100000010000000000000BRPORTACNOR8110
012024111102POSI3       010POSITIVO TECON      NM   R$  000000000059200000000006050000000000590000000000059800000000006050000000000600000000000060501492000000000000686300000000000410917900000000000000009999123100000010000000000000BRPOSIACNOR9116
012024111102VITT3       010VITTIA      ON      NM   R$  000000000054000000000005420000000000531000000000053500000000005360000000000536000000000054000800000000000000128400000000000068793300000000000000009999123100000010000000000000BRVITTACNOR4108
012024111102SYNE3       010SYN PROP TECON      NM   R$  000000000086900000000008880000000000861000000000087600000000008860000000000881000000000088601510000000000000423900000000000371394000000000000000009999123100000010000000000000BRSYNEACNOR2103
012024111102GRND3       010GRENDENE    ON      NM   R$  000000000053300000000005390000000000525000000000053300000000005390000000000535000000000054001923000000000000948500000000000506241300000000000000009999123100000010000000000000BRGRNDACNOR3175
012024111102GUAR3       010GUARARAPES  ON      NM   R$  000000000083600000000008900000000000828000000000086400000000008900000000000888000000000089003832000000000001425000000000001231887700000000000000009999123100000010000000000000BRGUARACNOR4173
012024111102HAGA3       010HAGA S/A    ON           R$  000000000024200000000002440000000000241000000000024300000000002440000000000241000000000024400033000000000000003300000000000000804300000000000000009999123100000010000000000000BRHAGAACNOR7103
012024111102HAGA4       010HAGA S/A    PN           R$  000000000012800000000001290000000000124000000000012600000000001290000000000125000000000012900033000000000000013600000000000001726400000000000000009999123100000010000000000000BRHAGAACNPR4103
012024111102HAPV3       010HAPVIDA     ON      NM   R$  000000000031900000000003220000000000311000000000031500000000003170000000000317000000000031822952000000000078190700000000024696327000000000000000009999123100000010000000000000BRHAPVACNOR4115
012024111102ITUB3       010ITAUUNIBANCOON  EJ  N1   R$  000000000304300000000030640000000003034000000000304700000000030480000000003039000000000304802248000000000000389100000000001185662500000000000000009999123100000010000000000000BRITUBACNOR4343
012024111102ITUB4       010ITAUUNIBANCOPN  EJ  N1   R$  000000000349600000000035420000000003491000000000352000000000035120000000003510000000000351227370000000000018250400000000064245279800000000000000009999123100000010000000000000BRITUBACNPR1343
012024111102SANB11      010SANTANDER BRUNT          R$  000000000266800000000026750000000002637000000000265300000000026370000000002637000000000264006657000000000001940900000000005149358200000000000000009999123100000010000000000000BRSANBCDAM13166
012024111102SANB3       010SANTANDER BRON           R$  000000000128400000000012840000000001251000000000125900000000012510000000001251000000000125500699000000000000185100000000000233177500000000000000009999123100000010000000000000BRSANBACNOR8173
012024111102SANB4       010SANTANDER BRPN           R$  000000000140700000000014150000000001391000000000140100000000013920000000001391000000000139700861000000000000228600000000000320331700000000000000009999123100000010000000000000BRSANBACNPR5173
012024111102VALE3       010VALE        ON      NM   R$  000000000597500000000059870000000005865000000000591700000000058650000000005865000000000586643727000000000024483700000000144883962800000000000000009999123100000010000000000000BRVALEACNOR0211
012024111102ALLD3       010ALLIED      ON      NM   R$  000000000083000000000008630000000000825000000000084600000000008480000000000845000000000084800683000000000000196800000000000166656500000000000000009999123100000010000000000000BRALLDACNOR3106
012024111102ALOS3       010ALLOS       ON      NM   R$  000000000216700000000021850000000002151000000000217200000000021750000000002174000000000217509916000000000002957600000000006425347900000000000000009999123100000010000000000000BRALOSACNOR5103
012024111102BAHI3       010BAHEMA      ON      MA   R$  000000000046000000000004780000000000456000000000047100000000004770000000000456000000000048300006000000000000000600000000000000282700000000000000009999123100000010000000000000BRBAHIACNOR1074
012024111102BALM3       010BAUMER      ON           R$  000000000130000000000013000000000001300000000000130000000000013000000000001200000000000154000001000000000000000300000000000000390000000000000000009999123100000010000000000000BRBALMACNOR5055
012024111102BALM4       010BAUMER      PN           R$  000000000100700000000010070000000001007000000000100700000000010070000000001003000000000104900001000000000000000100000000000000100700000000000000009999123100000010000000000000BRBALMACNPR2056
012024111102BAUH4       010EXCELSIOR   PN           R$  000000000788800000000078880000000007888000000000788800000000078880000000000000000000000500000007000000000000005600000000000044172800000000000000009999123100000010000000000000BRBAUHACNPR3118
012024111102BAZA3       010AMAZONIA    ON           R$  000000000909100000000091000000000009015000000000908200000000090400000000008894000000000924700011000000000000002100000000000019073500000000000000009999123100000010000000000000BRBAZAACNOR0179
012024111102BBAS3       010BRASIL      ON      NM   R$  000000000261000000000026100000000002595000000000260100000000026010000000002600000000000260227935000000000010515100000000027360212000000000000000009999123100000010000000000000BRBBASACNOR3326
012024111102BEEF3       010MINERVA     ON      NM   R$  000000000054000000000005420000000000530000000000053500000000005420000000000539000000000054208850000000000007300400000000003906918100000000000000009999123100000010000000000000BRBEEFACNOR6117
012024111102VIVA3       010VIVARA S.A. ON      NM   R$  000000000256200000000025900000000002508000000000253900000000025170000000002517000000000251911194000000000003112600000000007905170200000000000000009999123100000010000000000000BRVIVAACNOR0107
012024111102VIVR3       010VIVER       ON      NM   R$  000000000014400000000001440000000000140000000000014000000000001400000000000140000000000014100080000000000000071600000000000010081300000000000000009999123100000010000000000000BRVIVRACNOR4123
012024111102VIVT3       010TELEF BRASILON           R$  000000000519000000000053080000000005160000000000527400000000053000000000005294000000000530610289000000000001660600000000008758960900000000000000009999123100000010000000000000BRVIVTACNOR0184
012024111102JALL3       010JALLESMACHADON      NM   R$  000000000058900000000005890000000000575000000000057900000000005850000000000578000000000058602579000000000000949500000000000550537100000000000000009999123100000010000000000000BRJALLACNOR0106
012024111102JBSS3       010JBS         ON      NM   R$  000000000349700000000035730000000003497000000000352600000000035190000000003510000000000352018810000000000004080800000000014389937700000000000000009999123100000010000000000000BRJBSSACNOR8122
012024111102PDGR3       010PDG REALT   ON      NM   R$  000000000000100000000000020000000000001000000000000100000000000010000000000001000000000000200616000000000035800200000000000038144300000000000000009999123100000010000000000000BRPDGRACNOR8119
012024111102PDTC3       010PADTEC      ON      NM   R$  000000000017900000000001800000000000175000000000017600000000001770000000000176000000000017700050000000000000022300000000000003934900000000000000009999123100000010000000000000BRPDTCACNOR3101
012024111102PEAB4       010PAR AL BAHIAPN           R$  000000000470000000000047000000000004700000000000470000000000047000000000004500000000000489900001000000000000000100000000000000470000000000000000009999123100000010000000000000BRPEABACNPR0133
012024111102PETR3       010PETROBRAS   ON      N2   R$  000000000388000000000039280000000003860000000000390300000000039140000000003914000000000391512452000000000006025500000000023520227300000000000000009999123100000010000000000000BRPETRACNOR9206
012024111102PETR4       010PETROBRAS   PN      N2   R$  000000000359900000000036420000000003590000000000362300000000036250000000003624000000000362556656000000000021413600000000077601650500000000000000009999123100000010000000000000BRPETRACNPR6214
012024111102PFRM3       010PROFARMA    ON      NM   R$  000000000074700000000007500000000000726000000000073700000000007360000000000733000000000073600929000000000000362000000000000266850200000000000000009999123100000010000000000000BRPFRMACNOR1116
012024111102PGMN3       010PAGUE MENOS ON      NM   R$  000000000031900000000003260000000000313000000000031600000000003260000000000320000000000032600905000000000000530800000000000168105200000000000000009999123100000010000000000000BRPGMNACNOR8103
012024111102PINE3       010PINE        ON      N2   R$  000000000048000000000004800000000000479000000000047900000000004790000000000468000000000048000002000000000000000200000000000000095900000000000000009999123100000010000000000000BRPINEACNOR1152
012024111102PINE4       010PINE        PN      N2   R$  000000000045900000000004590000000000450000000000045300000000004510000000000450000000000045400221000000000000082500000000000037391400000000000000009999123100000010000000000000BRPINEACNPR8152
012024111102AALR3       010ALLIAR      ON      NM   R$  000000000147900000000014910000000001432000000000147400000000014900000000001460000000000149900135000000000000023200000000000034215800000000000000009999123100000010000000000000BRAALRACNOR6102
012024111102ABCB4       010ABC BRASIL  PN      N2   R$  000000000206500000000020690000000002036000000000205000000000020570000000002056000000000205703102000000000000695200000000001425220000000000000000009999123100000010000000000000BRABCBACNPR4146
012024111102ABEV3       010AMBEV S/A   ON           R$  000000000123100000000012550000000001226000000000124500000000012510000000001251000000000125230659000000000020684800000000025769625500000000000000009999123100000010000000000000BRABEVACNOR1128
012024111102BMEB3       010MERCANTIL   ON      N1   R$  000000000350500000000035050000000003502000000000350300000000035020000000003351000000000358000003000000000000000300000000000001051000000000000000009999123100000010000000000000BRBMEBACNOR8206
012024111102BMEB4       010MERCANTIL   PN      N1   R$  000000000380000000000038000000000003679000000000372000000000036800000000003680000000000372300363000000000000054400000000000202402500000000000000009999123100000010000000000000BRBMEBACNPR5211
012024111102BMGB4       010BANCO BMG   PN      N1   R$  000000000039800000000004020000000000396000000000039900000000004010000000000400000000000040101249000000000000574000000000000229126500000000000000009999123100000010000000000000BRBMGBACNPR0111
012024111102BMIN3       010MERC INVEST ON           R$  000000000207000000000020700000000002070000000000207000000000020700000000002070000000000240000001000000000000000100000000000000207000000000000000009999123100000010000000000000BRBMINACNOR4170
012024111102BMIN4       010MERC INVEST PN           R$  000000000161000000000016100000000001600000000000160400000000016000000000001610000000000179000007000000000000001000000000000001604500000000000000009999123100000010000000000000BRBMINACNPR1176
012024111102BMKS3       010BIC MONARK  ON           R$  000000003070600000000312990000000030706000000003083100000000309900000000030800000000003129900005000000000000000016000000000000493309000000000000009999123100000010000000000000BRBMKSACNOR9166
012024111102EGIE3       010ENGIE BRASILON      NM   R$  000000000402500000000040280000000003904000000000394600000000039400000000003940000000000394612164000000000002751300000000010857609700000000000000009999123100000010000000000000BREGIEACNOR9127
012024111102FLRY3       010FLEURY      ON      NM   R$  000000000136000000000014070000000001353000000000139000000000013960000000001395000000000140308384000000000002914600000000004052186100000000000000009999123100000010000000000000BRFLRYACNOR5139
012024111102FRAS3       010FRAS-LE     ON      N1   R$  000000000210000000000021040000000002068000000000208600000000020890000000002080000000000209000814000000000000205800000000000429487600000000000000009999123100000010000000000000BRFRASACNOR0160
012024111102BMOB3       010BEMOBI TECH ON      NM   R$  000000000146600000000014690000000001430000000000145500000000014670000000001460000000000146701124000000000000174400000000000253770700000000000000009999123100000010000000000000BRBMOBACNOR7103
012024111102LUPA3       010LUPATECH    ON      NM   R$  000000000013900000000001400000000000138000000000013900000000001400000000000139000000000014000075000000000000087400000000000012170300000000000000009999123100000010000000000000BRLUPAACNOR8112
012024111102LUXM4       010TREVISA     PN           R$  000000000116100000000012500000000001161000000000121400000000012500000000001100000000000125000004000000000000000500000000000000607100000000000000009999123100000010000000000000BRLUXMACNPR4052
012024111102LVTC3       010WDC NETWORKSON      NM   R$  000000000034200000000003500000000000342000000000034600000000003440000000000344000000000034600028000000000000007300000000000002527200000000000000009999123100000010000000000000BRLVTCACNOR4102
012024111102LWSA3       010LWSA        ON      NM   R$  000000000042800000000004340000000000425000000000042800000000004260000000000426000000000042707245000000000004792500000000002052163600000000000000009999123100000010000000000000BRLWSAACNOR8103
012024111102ALPA3       010ALPARGATAS  ON      N1   R$  000000000063000000000006470000000000608000000000062700000000006290000000000615000000000062900037000000000000009300000000000005834100000000000000009999123100000010000000000000BRALPAACNOR0231
012024111102EALT4       010ACO ALTONA  PN           R$  000000000145000000000014860000000001431000000000145200000000014570000000001454000000000145800090000000000000018300000000000026580500000000000000009999123100000010000000000000BREALTACNPR1138
012024111102ECOR3       010ECORODOVIAS ON      NM   R$  000000000067300000000006800000000000653000000000066900000000006760000000000673000000000067710724000000000004175800000000002794513700000000000000009999123100000010000000000000BRECORACNOR8120
012024111102BBSE3       010BBSEGURIDADEON      NM   R$  000000000343100000000034550000000003415000000000343400000000034200000000003419000000000342708756000000000002584600000000008877026500000000000000009999123100000010000000000000BRBBSEACNOR5125
012024111102BRSR3       010BANRISUL    ON      N1   R$  000000000119500000000012190000000001185000000000119600000000011860000000001185000000000121600041000000000000006300000000000007535900000000000000009999123100000010000000000000BRBRSRACNOR3189
012024111102BRSR6       010BANRISUL    PNB     N1   R$  000000000111900000000011230000000001103000000000110800000000011080000000001107000000000110803143000000000000832700000000000922841200000000000000009999123100000010000000000000BRBRSRACNPB4192
012024111102BSLI3       010BRB BANCO   ON  ES       R$  000000000092200000000009220000000000860000000000088000000000008600000000000851000000000086000007000000000000000700000000000000616200000000000000009999123100000010000000000000BRBSLIACNOR5195
012024111102CPFE3       010CPFL ENERGIAON      NM   R$  000000000324200000000032520000000003217000000000323600000000032310000000003227000000000323504714000000000000821200000000002657676200000000000000009999123100000010000000000000BRCPFEACNOR0137
012024111102CALI3       010CONST A LINDON           R$  000000000250000000000025000000000002500000000000250000000000025000000000002200000000000350000001000000000000000100000000000000250000000000000000009999123100000010000000000000BRCALIACNOR1137
012024111102CAMB3       010CAMBUCI     ON           R$  000000000115300000000011710000000001135000000000115600000000011690000000001157000000000117000204000000000000036800000000000042550400000000000000009999123100000010000000000000BRCAMBACNOR4131
012024111102CAML3       010CAMIL       ON      NM   R$  000000000078400000000008020000000000777000000000079300000000008020000000000794000000000080201204000000000000333100000000000264245100000000000000009999123100000010000000000000BRCAMLACNOR3129
012024111102CASH3       010MELIUZ      ON      NM   R$  000000000034200000000003440000000000332000000000033600000000003350000000000335000000000033601637000000000000686200000000000231049100000000000000009999123100000010000000000000BRCASHACNOR8107
012024111102CBAV3       010CBA         ON      NM   R$  000000000053600000000005510000000000532000000000054000000000005480000000000547000000000054908759000000000003678300000000001989119600000000000000009999123100000010000000000000BRCBAVACNOR5104
012024111102B3SA3       010B3          ON      NM   R$  000000000102500000000010270000000001007000000000101500000000010160000000001015000000000101629662000000000066093200000000067108623700000000000000009999123100000010000000000000BRB3SAACNOR6134
012024111102AVLL3       010ALPHAVILLE  ON      NM   R$  000000000026500000000002900000000000265000000000028600000000002900000000000270000000000029100010000000000000004900000000000001403500000000000000009999123100000010000000000000BRAVLLACNOR5103
012024111102AZEV3       010AZEVEDO     ON           R$  000000000011700000000001230000000000116000000000011900000000001220000000000120000000000012200338000000000000521700000000000062371700000000000000009999123100000010000000000000BRAZEVACNOR0121
012024111102AZEV4       010AZEVEDO     PN           R$  000000000011600000000001210000000000115000000000011900000000001210000000000120000000000012100889000000000002335000000000000278349700000000000000009999123100000010000000000000BRAZEVACNPR7121
012024111102AZUL4       010AZUL        PN      N2   R$  000000000050700000000005130000000000499000000000050600000000005070000000000507000000000050806886000000000011466100000000005803218100000000000000009999123100000010000000000000BRAZULACNPR4103
012024111102BBDC3       010BRADESCO    ON  EJ  N1   R$  000000000120000000000012070000000001192000000000120000000000011990000000001199000000000120108797000000000007315000000000008778403400000000000000009999123100000010000000000000BRBBDCACNOR1777
012024111102BBDC4       010BRADESCO    PN  EJ  N1   R$  000000000135100000000013550000000001337000000000134300000000013460000000001345000000000134634068000000000036639600000000049213932500000000000000009999123100000010000000000000BRBBDCACNPR8777
012024111102BNBR3       010NORD BRASIL ON           R$  000000000920100000000099830000000009201000000000959200000000099830000000009402000000000998300002000000000000000200000000000001918400000000000000009999123100000010000000000000BRBNBRACNOR8209
012024111102ARML3       010ARMAC       ON      NM   R$  000000000072500000000007410000000000715000000000073000000000007400000000000735000000000074002634000000000000912500000000000666177800000000000000009999123100000010000000000000BRARMLACNOR1113
012024111102ASAI3       010ASSAI       ON      NM   R$  000000000070500000000007100000000000684000000000069700000000007080000000000708000000000071026636000000000023554000000000016436650900000000000000009999123100000010000000000000BRASAIACNOR0106
012024111102BOBR4       010BOMBRIL     PN           R$  000000000027400000000002740000000000251000000000025900000000002560000000000252000000000025600249000000000000160900000000000041825000000000000000009999123100000010000000000000BRBOBRACNPR3128
012024111102BRAV3       010BRAVA       ON      NM   R$  000000000161800000000016400000000001605000000000161900000000016080000000001608000000000161309716000000000003756000000000006081100200000000000000009999123100000010000000000000BRBRAVACNOR3100
012024111102CCRO3       010CCR SA      ON  ED  NM   R$  000000000117200000000011810000000001161000000000117100000000011800000000001175000000000118109788000000000006397900000000007494966500000000000000009999123100000010000000000000BRCCROACNOR2146
012024111102CMIN3       010CSNMINERACAOON      N2   R$  000000000058100000000005810000000000570000000000057500000000005770000000000577000000000057807424000000000009266100000000005329847900000000000000009999123100000010000000000000BRCMINACNOR2112
012024111102CXSE3       010CAIXA SEGURION  ED  NM   R$  000000000141700000000014450000000001409000000000142900000000014270000000001425000000000142709385000000000003507600000000005015351500000000000000009999123100000010000000000000BRCXSEACNOR7108
012024111102CYRE3       010CYRELA REALTON      NM   R$  000000000213100000000022010000000002131000000000217700000000021810000000002181000000000218509303000000000003092900000000006734552200000000000000009999123100000010000000000000BRCYREACNOR7140
012024111102BRBI11      010BR PARTNERS UNT     N2   R$  000000000152000000000015340000000001517000000000152600000000015340000000001526000000000153501104000000000000197200000000000301037500000000000000009999123100000010000000000000BRBRBICDAM10110
012024111102TAEE11      010TAESA       UNT     N2   R$  000000000350000000000035330000000003498000000000352000000000035330000000003529000000000353309886000000000002004800000000007058875000000000000000009999123100000010000000000000BRTAEECDAM10148
012024111102TAEE3       010TAESA       ON      N2   R$  000000000116800000000011720000000001155000000000116700000000011640000000001164000000000117100512000000000000120700000000000140888100000000000000009999123100000010000000000000BRTAEEACNOR9148
012024111102TAEE4       010TAESA       PN      N2   R$  000000000117400000000011790000000001169000000000117500000000011780000000001178000000000118000760000000000000169300000000000198976600000000000000009999123100000010000000000000BRTAEEACNPR6148
012024111102VAMO3       010VAMOS       ON      NM   R$  000000000056600000000005720000000000557000000000056600000000005700000000000568000000000057109732000000000006986700000000003956024300000000000000009999123100000010000000000000BRVAMOACNOR7105
012024111102VBBR3       010VIBRA       ON      NM   R$  000000000224500000000022730000000002240000000000225900000000022540000000002253000000000225419741000000000007766900000000017553078200000000000000009999123100000010000000000000BRVBBRACNOR1109
012024111102ODPV3       010ODONTOPREV  ON  ED  NM   R$  000000000111900000000011190000000001081000000000109000000000010840000000001083000000000108402390000000000000595900000000000649784100000000000000009999123100000010000000000000BRODPVACNOR4205
012024111102OFSA3       010OUROFINO S/AON      NM   R$  000000000216000000000022180000000002160000000000219400000000022180000000002200000000000225000008000000000000001200000000000002633700000000000000009999123100000010000000000000BROFSAACNOR7118
012024111102ONCO3       010ONCOCLINICASON      NM   R$  000000000042900000000004440000000000403000000000042900000000004440000000000442000000000044503903000000000004233500000000001820063800000000000000009999123100000010000000000000BRONCOACNOR6101
012024111102OPCT3       010OCEANPACT   ON      NM   R$  000000000061800000000006180000000000603000000000060600000000006090000000000609000000000061001649000000000000455800000000000276478400000000000000009999123100000010000000000000BROPCTACNOR0100
012024111102ORVR3       010ORIZON      ON      NM   R$  000000000466200000000047160000000004599000000000467900000000047040000000004690000000000470701779000000000000261700000000001224588200000000000000009999123100000010000000000000BRORVRACNOR0101
012024111102CPLE3       010COPEL       ON      N2   R$  000000000082900000000008410000000000828000000000083700000000008410000000000841000000000084208037000000000005545500000000004646766100000000000000009999123100000010000000000000BRCPLEACNOR8150
012024111102CPLE5       010COPEL       PNA     N2   R$  000000000115000000000011500000000001150000000000115000000000011500000000001002000000000115000002000000000000000200000000000000230000000000000000009999123100000010000000000000BRCPLEACNPA1148
012024111102CPLE6       010COPEL       PNB     N2   R$  000000000093700000000009490000000000932000000000094200000000009470000000000947000000000094816223000000000013569800000000012795077300000000000000009999123100000010000000000000BRCPLEACNPB9147
012024111102PATI3       010PANATLANTICAON           R$  000000000290000000000029000000000002900000000000290000000000029000000000002450000000000290000002000000000000000200000000000000580000000000000000009999123100000010000000000000BRPATIACNOR6067
012024111102PATI4       010PANATLANTICAPN           R$  000000000334100000000033410000000003340000000000334000000000033400000000003300000000000350000002000000000000000200000000000000668100000000000000009999123100000010000000000000BRPATIACNPR3067
012024111102PCAR3       010P.ACUCAR-CBDON  ATZ NM   R$  000000000029200000000002960000000000289000000000029200000000002930000000000293000000000029506739000000000007622900000000002229854600000000000000009999123100000010000000000000BRPCARACNOR3168
012024111102PETZ3       010PETZ        ON      NM   R$  000000000048900000000005070000000000488000000000049900000000004980000000000498000000000049908552000000000011188000000000005583241500000000000000009999123100000010000000000000BRPETZACNOR2110
012024111102REDE3       010REDE ENERGIAON           R$  000000000068300000000006850000000000681000000000068200000000006830000000000682000000000068700016000000000000003400000000000002321100000000000000009999123100000010000000000000BRREDEACNOR7128
012024111102RENT3       010LOCALIZA    ON      NM   R$  000000000410000000000042570000000004072000000000419000000000042570000000004231000000000425733086000000000015227300000000063802502700000000000000009999123100000010000000000000BRRENTACNOR4197
012024111102STBP3       010SANTOS BRP  ON      NM   R$  000000000127000000000012780000000001266000000000127200000000012760000000001276000000000127703972000000000004966500000000006317758000000000000000009999123100000010000000000000BRSTBPACNOR3133
012024111102SUZB3       010SUZANO S.A. ON      NM   R$  000000000589500000000059050000000005786000000000581900000000058170000000005815000000000582815017000000000003401900000000019798455200000000000000009999123100000010000000000000BRSUZBACNOR0130
012024111102HYPE3       010HYPERA      ON      NM   R$  000000000209000000000021230000000002087000000000210100000000020970000000002094000000000209713643000000000004486500000000009429716100000000000000009999123100000010000000000000BRHYPEACNOR0144
012024111102MATD3       010MATER DEI   ON      NM   R$  000000000044300000000004540000000000430000000000044600000000004540000000000451000000000045401326000000000000609900000000000272284200000000000000009999123100000010000000000000BRMATDACNOR4104
012024111102MBLY3       010MOBLY       ON      NM   R$  000000000019600000000002050000000000195000000000020200000000002050000000000202000000000020500104000000000000082500000000000016669900000000000000009999123100000010000000000000BRMBLYACNOR5101
012024111102GEPA3       010GER PARANAP ON           R$  000000000311000000000031100000000003110000000000311000000000031100000000003000000000000311000001000000000000000300000000000000933000000000000000009999123100000010000000000000BRGEPAACNOR2154
012024111102GEPA4       010GER PARANAP PN           R$  000000000297500000000029750000000002975000000000297500000000029750000000002950000000000302100001000000000000000100000000000000297500000000000000009999123100000010000000000000BRGEPAACNPR9161
012024111102GFSA3       010GAFISA      ON      NM   R$  000000000014900000000001760000000000146000000000016000000000001580000000000157000000000015805926000000000018489800000000002969346900000000000000009999123100000010000000000000BRGFSAACNOR3125
012024111102IFCM3       010INFRACOMM   ON      NM   R$  000000000001300000000000130000000000012000000000001200000000000130000000000012000000000001300548000000000005086900000000000064448900000000000000009999123100000010000000000000BRIFCMACNOR8101
012024111102IGTI11      010IGUATEMI S.AUNT     N1   R$  000000000201100000000020290000000001997000000000201800000000020200000000002020000000000202907074000000000001729300000000003490967400000000000000009999123100000010000000000000BRIGTICDAM16106
012024111102IGTI3       010IGUATEMI S.AON      N1   R$  000000000024500000000002480000000000240000000000024400000000002480000000000245000000000024800107000000000000072400000000000017673100000000000000009999123100000010000000000000BRIGTIACNOR8106
012024111102IGTI4       010IGUATEMI S.APN      N1   R$  000000000089300000000008930000000000893000000000089300000000008930000000000851000000000105000001000000000000000200000000000000178600000000000000009999123100000010000000000000BRIGTIACNPR5106
012024111102CRFB3       010CARREFOUR BRON      NM   R$  000000000069600000000007100000000000686000000000069800000000006980000000000698000000000070408894000000000005696300000000003980227800000000000000009999123100000010000000000000BRCRFBACNOR2116
012024111102EKTR4       010ELEKTRO     PN           R$  000000000430000000000043000000000004300000000000430000000000043000000000004300000000000454400001000000000000000100000000000000430000000000000000009999123100000010000000000000BREKTRACNPR7166
012024111102ELET3       010ELETROBRAS  ON      N1   R$  000000000357000000000036050000000003539000000000357700000000035840000000003581000000000359023023000000000007033000000000025162648600000000000000009999123100000010000000000000BRELETACNOR6160
012024111102ELET6       010ELETROBRAS  PNB     N1   R$  000000000401700000000040720000000003995000000000404900000000040610000000004059000000000406505402000000000001380800000000005591155400000000000000009999123100000010000000000000BRELETACNPB7077
012024111102HBSA3       010HIDROVIAS   ON      NM   R$  000000000032700000000003270000000000306000000000031100000000003120000000000311000000000031203780000000000005686600000000001769200200000000000000009999123100000010000000000000BRHBSAACNOR0101
012024111102HETA4       010HERCULES    PN           R$  000000000060000000000006000000000000600000000000060000000000006000000000000620000000000067300001000000000000000100000000000000060000000000000000009999123100000010000000000000BRHETAACNPR9136
012024111102QUAL3       010QUALICORP   ON      NM   R$  000000000022800000000002350000000000216000000000022400000000002250000000000224000000000022504050000000000005194600000000001166191600000000000000009999123100000010000000000000BRQUALACNOR6120
012024111102INEP3       010INEPAR      ON           R$  000000000014800000000001510000000000146000000000014800000000001460000000000146000000000015000041000000000000027600000000000004096400000000000000009999123100000010000000000000BRINEPACNOR1143
012024111102INEP4       010INEPAR      PN           R$  000000000014800000000001480000000000140000000000014200000000001410000000000141000000000014400031000000000000014400000000000002047700000000000000009999123100000010000000000000BRINEPACNPR8143
012024111102INTB3       010INTELBRAS   ON      NM   R$  000000000173000000000017460000000001708000000000172800000000017240000000001722000000000172405298000000000001584000000000002738217400000000000000009999123100000010000000000000BRINTBACNOR9112
012024111102ALPA4       010ALPARGATAS  PN      N1   R$  000000000064900000000007010000000000649000000000068100000000006800000000000678000000000068309093000000000005166000000000003520656000000000000000009999123100000010000000000000BRALPAACNPR7232
012024111102ALPK3       010ESTAPAR     ON      NM   R$  000000000028300000000002900000000000278000000000028100000000002800000000000279000000000028000294000000000000121300000000000034137400000000000000009999123100000010000000000000BRALPKACNOR9101
012024111102ALUP11      010ALUPAR      UNT     N2   R$  000000000288000000000028800000000002820000000000283600000000028320000000002830000000000284804388000000000000861700000000002444175100000000000000009999123100000010000000000000BRALUPCDAM15120
012024111102ALUP3       010ALUPAR      ON      N2   R$  000000000098800000000009880000000000966000000000097000000000009670000000000967000000000098500064000000000000008200000000000007956900000000000000009999123100000010000000000000BRALUPACNOR8120
012024111102ALUP4       010ALUPAR      PN      N2   R$  000000000094100000000009490000000000927000000000093300000000009490000000000929000000000094900149000000000000020100000000000018767900000000000000009999123100000010000000000000BRALUPACNPR5120
012024111102AMAR3       010LOJAS MARISAON      NM   R$  000000000009400000000000940000000000089000000000009100000000000910000000000091000000000009200501000000000000333400000000000030371000000000000000009999123100000010000000000000BRAMARACNOR4115
012024111102AMBP3       010AMBIPAR     ON      NM   R$  000000001575000000000165000000000015601000000001615100000000165000000000016400000000001650000923000000000000156100000000002521253400000000000000009999123100000010000000000000BRAMBPACNOR6103
012024111102BEES3       010BANESTES    ON  EJ       R$  000000000084600000000008550000000000844000000000084800000000008470000000000847000000000084800059000000000000009600000000000008147000000000000000009999123100000010000000000000BRBEESACNOR9397
012024111102BEES4       010BANESTES    PN  EJ       R$  000000000085100000000008700000000000850000000000085900000000008590000000000859000000000097500035000000000000008800000000000007565300000000000000009999123100000010000000000000BRBEESACNPR6322
012024111102GGBR3       010GERDAU      ON      N1   R$  000000000192900000000019420000000001908000000000192200000000019410000000001932000000000194200505000000000000112900000000000217057200000000000000009999123100000010000000000000BRGGBRACNOR1193
012024111102GGBR4       010GERDAU      PN      N1   R$  000000000202500000000020470000000002002000000000203000000000020450000000002044000000000204524189000000000011700000000000023758147700000000000000009999123100000010000000000000BRGGBRACNPR8193
012024111102IRBR3       010IRBBRASIL REON      NM   R$  000000000407500000000042430000000004070000000000416600000000042300000000004230000000000423503588000000000000847300000000003530362500000000000000009999123100000010000000000000BRIRBRACNOR4111
012024111102JHSF3       010JHSF PART   ON  ED  NM   R$  000000000045500000000004560000000000442000000000044700000000004440000000000444000000000044504471000000000001523100000000000681439700000000000000009999123100000010000000000000BRJHSFACNOR2141
012024111102PRIO3       010PETRORIO    ON      NM   R$  000000000388500000000039730000000003858000000000393500000000039310000000003931000000000393524024000000000007588100000000029865423600000000000000009999123100000010000000000000BRPRIOACNOR1107
012024111102RADL3       010RAIADROGASILON      NM   R$  000000000254500000000025490000000002496000000000252500000000025460000000002539000000000254722121000000000006057700000000015299398900000000000000009999123100000010000000000000BRRADLACNOR0158
012024111102RAIZ4       010RAIZEN      PN      N2   R$  000000000027000000000002720000000000266000000000026900000000002700000000000270000000000027108689000000000009046400000000002436072000000000000000009999123100000010000000000000BRRAIZACNPR6111
012024111102RANI3       010IRANI       ON  ED  NM   R$  000000000071400000000007180000000000707000000000071100000000007100000000000709000000000071002179000000000000798000000000000567910300000000000000009999123100000010000000000000BRRANIACNOR5074
012024111102UNIP3       010UNIPAR      ON           R$  000000000445000000000044660000000004381000000000442100000000044540000000004454000000000446700033000000000000004200000000000018569000000000000000009999123100000010000000000000BRUNIPACNOR7206
012024111102UNIP5       010UNIPAR      PNA          R$  000000000477000000000047700000000004770000000000477000000000047700000000004450000000000479900001000000000000000100000000000000477000000000000000009999123100000010000000000000BRUNIPACNPA0208
012024111102UNIP6       010UNIPAR      PNB          R$  000000000444900000000046230000000004424000000000450400000000045320000000004497000000000453201162000000000000210000000000000945868500000000000000009999123100000010000000000000BRUNIPACNPB8206
012024111102AZZA3       010AZZAS 2154  ON      NM   R$  000000000399900000000040790000000003941000000000402600000000040430000000004043000000000404507883000000000001323200000000005328259700000000000000009999123100000010000000000000BRAZZAACNOR9100
012024111102BRIT3       010BRISANET    ON      NM   R$  000000000033000000000003350000000000325000000000032800000000003270000000000327000000000032800251000000000000163100000000000053617900000000000000009999123100000010000000000000BRBRITACNOR0103
012024111102BRKM3       010BRASKEM     ON      N1   R$  000000000161500000000016210000000001566000000000158600000000016210000000001570000000000163500139000000000000026300000000000041715200000000000000009999123100000010000000000000BRBRKMACNOR1119
012024111102BRKM5       010BRASKEM     PNA     N1   R$  000000000158100000000016040000000001571000000000158400000000015750000000001574000000000157510800000000000003155300000000004998243900000000000000009999123100000010000000000000BRBRKMACNPA4121
012024111102COCE5       010COELCE      PNA          R$  000000000270600000000027140000000002651000000000268000000000026750000000002647000000000268700022000000000000003100000000000008309700000000000000009999123100000010000000000000BRCOCEACNPA3147
012024111102USIM3       010USIMINAS    ON      N1   R$  000000000061200000000006130000000000590000000000059800000000006000000000000598000000000060000910000000000000423200000000000253494900000000000000009999123100000010000000000000BRUSIMACNOR3167
012024111102USIM5       010USIMINAS    PNA     N1   R$  000000000062000000000006240000000000597000000000060600000000006090000000000608000000000060913490000000000017063900000000010355397600000000000000009999123100000010000000000000BRUSIMACNPA6169
012024111102MTRE3       010MITRE REALTYON      NM   R$  000000000036800000000003840000000000363000000000037300000000003700000000000368000000000037001489000000000000905000000000000337773700000000000000009999123100000010000000000000BRMTREACNOR6116
012024111102MTSA4       010METISA      PN           R$  000000000331000000000033980000000003250000000000328600000000033400000000003245000000000334000027000000000000004200000000000013801700000000000000009999123100000010000000000000BRMTSAACNPR9073
012024111102MULT3       010MULTIPLAN   ON      N2   R$  000000000244800000000024680000000002440000000000245200000000024520000000002452000000000246007490000000000001305000000000003200159100000000000000009999123100000010000000000000BRMULTACNOR5139
012024111102PRNR3       010PRINER      ON      NM   R$  000000000142700000000014760000000001425000000000144900000000014460000000001443000000000145201288000000000000410500000000000595058100000000000000009999123100000010000000000000BRPRNRACNOR4109
012024111102PSSA3       010PORTO SEGUROON      NM   R$  000000000388100000000039090000000003845000000000386700000000038570000000003857000000000386009508000000000002430200000000009397792900000000000000009999123100000010000000000000BRPSSAACNOR7156
012024111102COGN3       010COGNA ON    ON      NM   R$  000000000013600000000001490000000000135000000000014100000000001480000000000147000000000014816347000000000044075600000000006233618700000000000000009999123100000010000000000000BRCOGNACNOR2105
012024111102BGIP4       010BANESE      PN           R$  000000000234000000000024050000000002336000000000237700000000024050000000002405000000000265000006000000000000000700000000000001664100000000000000009999123100000010000000000000BRBGIPACNPR8210
012024111102BHIA3       010CASAS BAHIA ON      NM   R$  000000000040500000000004100000000000404000000000040500000000004100000000000406000000000041001617000000000001161300000000000471409100000000000000009999123100000010000000000000BRBHIAACNOR1102
012024111102BPAN4       010BANCO PAN   PN      N1   R$  000000000080000000000008020000000000785000000000079200000000007880000000000788000000000079004154000000000003538100000000002803767900000000000000009999123100000010000000000000BRBPANACNPR1115
012024111102BRAP3       010BRADESPAR   ON      N1   R$  000000000179600000000017960000000001766000000000177600000000017840000000001781000000000178400760000000000000169900000000000301742400000000000000009999123100000010000000000000BRBRAPACNOR5148
012024111102PTBL3       010PORTOBELLO  ON      NM   R$  000000000041000000000004130000000000404000000000040800000000004130000000000410000000000041301780000000000000517600000000000211589100000000000000009999123100000010000000000000BRPTBLACNOR8132
012024111102PTNT3       010PETTENATI   ON           R$  000000000092800000000009280000000000920000000000092400000000009200000000000917000000000092300003000000000000000300000000000000277300000000000000009999123100000010000000000000BRPTNTACNOR6043
012024111102PTNT4       010PETTENATI   PN           R$  000000000067500000000006800000000000675000000000067800000000006790000000000663000000000067800009000000000000002500000000000001695600000000000000009999123100000010000000000000BRPTNTACNPR3048
012024111102DASA3       010DASA        ON      NM   R$  000000000025000000000002510000000000240000000000024500000000002420000000000242000000000024501604000000000000783700000000000192490400000000000000009999123100000010000000000000BRDASAACNOR1123
012024111102DESK3       010DESKTOP     ON      NM   R$  000000000138100000000013970000000001359000000000138300000000013960000000001396000000000140000399000000000000095300000000000131811600000000000000009999123100000010000000000000BRDESKACNOR2104
012024111102DEXP3       010DEXXOS PAR  ON      N1   R$  000000000086100000000008900000000000847000000000086000000000008870000000000879000000000088700454000000000000099400000000000085487500000000000000009999123100000010000000000000BRDEXPACNOR1105
012024111102DEXP4       010DEXXOS PAR  PN      N1   R$  000000000087500000000008750000000000855000000000085600000000008550000000000860000000000089900003000000000000001100000000000000942500000000000000009999123100000010000000000000BRDEXPACNPR8105
012024111102DIRR3       010DIRECIONAL  ON      NM   R$  000000000304800000000031040000000003010000000000306500000000030680000000003068000000000307007133000000000001728700000000005298828000000000000000009999123100000010000000000000BRDIRRACNOR0119
012024111102SLCE3       010SLC AGRICOLAON      NM   R$  000000000173500000000017540000000001721000000000173300000000017470000000001745000000000175104804000000000001638800000000002841415800000000000000009999123100000010000000000000BRSLCEACNOR2125
012024111102TPIS3       010TRIUNFO PARTON      NM   R$  000000000071000000000007200000000000680000000000069400000000006800000000000680000000000068900348000000000000066400000000000046115700000000000000009999123100000010000000000000BRTPISACNOR8118
012024111102TRAD3       010TC          ON      NM   R$  000000000074600000000007550000000000692000000000072800000000007240000000000723000000000072400682000000000000185100000000000134861800000000000000009999123100000010000000000000BRTRADACNOR3102
012024111102TRIS3       010TRISUL      ON      NM   R$  000000000054900000000005730000000000549000000000056500000000005610000000000561000000000056601444000000000000698600000000000394884000000000000000009999123100000010000000000000BRTRISACNOR4118
012024111102TRPL3       010TRAN PAULISTON      N1   R$  000000000314800000000031480000000003012000000000308100000000031010000000003100000000000315900035000000000000004100000000000012633700000000000000009999123100000010000000000000BRTRPLACNOR4185
012024111102TRPL4       010TRAN PAULISTPN      N1   R$  000000000243700000000024670000000002429000000000245500000000024530000000002453000000000245708057000000000001805800000000004433983900000000000000009999123100000010000000000000BRTRPLACNPR1185
012024111102DMVF3       010D1000VFARMA ON      NM   R$  000000000069400000000006980000000000675000000000068500000000006810000000000681000000000068800330000000000000084200000000000057705600000000000000009999123100000010000000000000BRDMVFACNOR9100
012024111102DOHL4       010DOHLER      PN           R$  000000000039100000000004030000000000391000000000039700000000004030000000000391000000000040200002000000000000000200000000000000079400000000000000009999123100000010000000000000BRDOHLACNPR9066
012024111102DOTZ3       010DOTZ SA     ON      NM   R$  000000000051600000000005390000000000512000000000052300000000005120000000000511000000000052100046000000000000018400000000000009631800000000000000009999123100000010000000000000BRDOTZACNOR7101
012024111102DXCO3       010DEXCO       ON      NM   R$  000000000079400000000007990000000000782000000000078800000000007890000000000787000000000079204338000000000001770600000000001396117300000000000000009999123100000010000000000000BRDXCOACNOR8105
012024111102TTEN3       0103TENTOS     ON      NM   R$  000000000119000000000012220000000001174000000000121000000000012190000000001219000000000122104739000000000001254600000000001519019700000000000000009999123100000010000000000000BRTTENACNOR0103
012024111102TUPY3       010TUPY        ON      NM   R$  000000000238600000000023900000000002351000000000237300000000023850000000002376000000000238501829000000000000320800000000000761531500000000000000009999123100000010000000000000BRTUPYACNOR1184
012024111102EZTC3       010EZTEC       ON  ED  NM   R$  000000000142000000000014620000000001417000000000143800000000014300000000001429000000000143008481000000000004002800000000005756427000000000000000009999123100000010000000000000BREZTCACNOR0127
012024111102UCAS3       010UNICASA     ON      NM   R$  000000000021700000000002170000000000214000000000021500000000002140000000000214000000000021600073000000000000016600000000000003575500000000000000009999123100000010000000000000BRUCASACNOR1113
012024111102UGPA3       010ULTRAPAR    ON      NM   R$  000000000203000000000020680000000002028000000000204900000000020500000000002050000000000206011635000000000003996200000000008191197600000000000000009999123100000010000000000000BRUGPAACNOR8156
012024111102WEST3       010WESTWING    ON      NM   R$  000000000007600000000000780000000000073000000000007400000000000740000000000073000000000007400104000000000000191500000000000014315200000000000000009999123100000010000000000000BRWESTACNOR3100
012024111102WHRL3       010WHIRLPOOL   ON           R$  000000000040700000000004090000000000406000000000040700000000004060000000000406000000000040700017000000000000003400000000000001384500000000000000009999123100000010000000000000BRWHRLACNOR5129
012024111102WHRL4       010WHIRLPOOL   PN           R$  000000000043900000000004400000000000427000000000043000000000004280000000000427000000000042800088000000000000050800000000000021880100000000000000009999123100000010000000000000BRWHRLACNPR2129
012024111102WIZC3       010WIZ CO      ON      NM   R$  000000000058100000000005930000000000578000000000058500000000005850000000000585000000000058701351000000000000346600000000000202780500000000000000009999123100000010000000000000BRWIZCACNOR5102
012024111102WLMM4       010WLM IND COM PN  EJ       R$  000000000305000000000030500000000003050000000000305000000000030500000000002921000000000000000001000000000000000100000000000000305000000000000000009999123100000010000000000000BRWLMMACNPR3120
012024111102FESA3       010FERBASA     ON      N1   R$  000000000122500000000012250000000001225000000000122500000000012250000000001166000000000125000002000000000000001000000000000001225000000000000000009999123100000010000000000000BRFESAACNOR8189
012024111102FESA4       010FERBASA     PN      N1   R$  000000000077000000000007710000000000752000000000075900000000007700000000000762000000000077001154000000000000427100000000000324460900000000000000009999123100000010000000000000BRFESAACNPR5085
012024111102FHER3       010FER HERINGERON      NM   R$  000000000036300000000003690000000000360000000000036100000000003600000000000360000000000036100019000000000000004600000000000001663800000000000000009999123100000010000000000000BRFHERACNOR5103
012024111102FIQE3       010UNIFIQUE    ON      NM   R$  000000000038000000000003870000000000377000000000038100000000003870000000000385000000000038700439000000000000288600000000000110228800000000000000009999123100000010000000000000BRFIQEACNOR5107
012024111102MDIA3       010M.DIASBRANCOON      NM   R$  000000000227000000000023910000000002186000000000227700000000023660000000002365000000000236717894000000000006572500000000014967499900000000000000009999123100000010000000000000BRMDIAACNOR7136
012024111102MDNE3       010MOURA DUBEUXON      NM   R$  000000000163900000000016430000000001598000000000161400000000016000000000001600000000000161202044000000000000492700000000000795320900000000000000009999123100000010000000000000BRMDNEACNOR9100
012024111102MEAL3       010IMC S/A     ON      NM   R$  000000000013200000000001340000000000131000000000013200000000001330000000000133000000000013400127000000000000375100000000000049523200000000000000009999123100000010000000000000BRMEALACNOR9105
012024111102MELK3       010MELNICK     ON      NM   R$  000000000035200000000003560000000000350000000000035100000000003530000000000351000000000035300512000000000000350900000000000123506100000000000000009999123100000010000000000000BRMELKACNOR8111
012024111102MGEL4       010MANGELS INDLPN           R$  000000000079000000000007900000000000781000000000078700000000007810000000000781000000000079500003000000000000000300000000000000236100000000000000009999123100000010000000000000BRMGELACNPR3147
012024111102MGLU3       010MAGAZ LUIZA ON      NM   R$  000000000095000000000009570000000000922000000000094100000000009400000000000940000000000094130550000000000033018800000000031086839800000000000000009999123100000010000000000000BRMGLUACNOR2125
012024111102RAIL3       010RUMO S.A.   ON      NM   R$  000000000192100000000019820000000001921000000000195900000000019720000000001968000000000197218228000000000010037700000000019666475900000000000000009999123100000010000000000000BRRAILACNOR9105
012024111102RAPT3       010RANDON PART ON      N1   R$  000000000093500000000009420000000000915000000000093200000000009420000000000937000000000094200107000000000000024000000000000022369400000000000000009999123100000010000000000000BRRAPTACNOR7163
012024111102RAPT4       010RANDON PART PN      N1   R$  000000000105300000000010900000000001049000000000107600000000010740000000001071000000000107503956000000000001297500000000001396602200000000000000009999123100000010000000000000BRRAPTACNPR4163
012024111102RCSL3       010RECRUSUL    ON           R$  000000000042800000000004300000000000415000000000042000000000004150000000000414000000000041501298000000000000617900000000000260040400000000000000009999123100000010000000000000BRRCSLACNOR4134
012024111102RCSL4       010RECRUSUL    PN           R$  000000000019200000000002000000000000189000000000019200000000001900000000000189000000000019305268000000000006396200000000001231000100000000000000009999123100000010000000000000BRRCSLACNPR1134
012024111102RDNI3       010RNI         ON      NM   R$  000000000028200000000002920000000000282000000000028700000000002870000000000282000000000028800015000000000000008000000000000002298600000000000000009999123100000010000000000000BRRDNIACNOR9116
012024111102RDOR3       010REDE D OR   ON      NM   R$  000000000284600000000028770000000002841000000000285900000000028630000000002863000000000286409571000000000002484200000000007103330000000000000000009999123100000010000000000000BRRDORACNOR8114
012024111102RECV3       010PETRORECSA  ON      NM   R$  000000000178000000000018490000000001780000000000182800000000018460000000001844000000000184614941000000000004882200000000008926309600000000000000009999123100000010000000000000BRRECVACNOR3107
012024111102SMFT3       010SMART FIT   ON      NM   R$  000000000206200000000020720000000002008000000000202800000000020170000000002017000000000204010657000000000002960400000000006005448500000000000000009999123100000010000000000000BRSMFTACNOR1112
012024111102SMTO3       010SAO MARTINHOON      NM   R$  000000000259500000000025950000000002508000000000253900000000025310000000002529000000000255805536000000000001068100000000002712254600000000000000009999123100000010000000000000BRSMTOACNOR3127
012024111102SNSY3       010SANSUY      ON           R$  000000000110000000000011000000000001100000000000110000000000011000000000001070000000000115000002000000000000000200000000000000220000000000000000009999123100000010000000000000BRSNSYACNOR2113
012024111102SNSY5       010SANSUY      PNA          R$  000000000051400000000005140000000000499000000000050600000000004990000000000479000000000049900002000000000000000200000000000000101300000000000000009999123100000010000000000000BRSNSYACNPA5111
012024111102SOJA3       010BOA SAFRA   ON      NM   R$  000000000123600000000012540000000001222000000000124200000000012540000000001250000000000125401524000000000000325700000000000404807500000000000000009999123100000010000000000000BRSOJAACNOR9106
012024111102SRNA3       010SERENA      ON      NM   R$  000000000073400000000007350000000000715000000000072100000000007210000000000721000000000072404529000000000001611700000000001163432200000000000000009999123100000010000000000000BRSRNAACNOR4100
012024111102MWET4       010WETZEL S/A  PN           R$  000000000114100000000011410000000001140000000000114000000000011400000000001031000000000138900003000000000000000300000000000000342100000000000000009999123100000010000000000000BRMWETACNPR3118
012024111102MYPK3       010IOCHP-MAXIONON      NM   R$  000000000115500000000011990000000001147000000000117600000000011900000000001185000000000119008857000000000002911700000000003426299300000000000000009999123100000010000000000000BRMYPKACNOR7156
012024111102NEOE3       010NEOENERGIA  ON      NM   R$  000000000195400000000019570000000001904000000000192700000000019040000000001903000000000190705214000000000001019500000000001965337100000000000000009999123100000010000000000000BRNEOEACNOR3123
012024111102NGRD3       010NEOGRID     ON      NM   R$  000000000270200000000028600000000002570000000000271600000000027490000000002740000000000274900438000000000000079700000000000216492600000000000000009999123100000010000000000000BRNGRDACNOR3106
012024111102NINJ3       010GETNINJAS   ON      NM   R$  000000000046000000000004690000000000437000000000045600000000004600000000000438000000000046900044000000000000019900000000000009082000000000000000009999123100000010000000000000BRNINJACNOR5101
012024111102NORD3       010NORDON MET  ON           R$  000000000077600000000007760000000000705000000000071700000000007050000000000706000000000073500014000000000000004100000000000002941900000000000000009999123100000010000000000000BRNORDACNOR7135
012024111102NTCO3       010GRUPO NATURAON      NM   R$  000000000144900000000014560000000001404000000000142300000000014320000000001432000000000143416705000000000006329300000000009007892700000000000000009999123100000010000000000000BRNTCOACNOR5106
012024111102HBOR3       010HELBOR      ON      NM   R$  000000000018200000000001860000000000182000000000018300000000001820000000000182000000000018400280000000000000214200000000000039393700000000000000009999123100000010000000000000BRHBORACNOR3118
012024111102HBRE3       010HBR REALTY  ON      NM   R$  000000000044100000000004460000000000433000000000043800000000004380000000000438000000000043901524000000000000664700000000000291392300000000000000009999123100000010000000000000BRHBREACNOR4100
012024111102AERI3       010AERIS       ON      NM   R$  000000000055300000000005880000000000550000000000056800000000005560000000000556000000000055801080000000000000403900000000000229653300000000000000009999123100000010000000000000BRAERIACNOR4102
012024111102AFLT3       010AFLUENTE T  ON           R$  000000000075800000000007590000000000758000000000075800000000007580000000000758000000000076600005000000000000000500000000000000379100000000000000009999123100000010000000000000BRAFLTACNOR1122
012024111102AGRO3       010BRASILAGRO  ON      NM   R$  000000000239500000000023950000000002353000000000236300000000023630000000002363000000000236501335000000000000199600000000000471705000000000000000009999123100000010000000000000BRAGROACNOR7115
012024111102YDUQ3       010YDUQS PART  ON      NM   R$  000000000102000000000011000000000001017000000000106600000000010830000000001081000000000108312287000000000006051000000000006454251100000000000000009999123100000010000000000000BRYDUQACNOR3105
012024111102KRSA3       010KORA SAUDE  ON      NM   R$  000000000064100000000006620000000000630000000000064100000000006550000000000639000000000065500078000000000000036500000000000023418800000000000000009999123100000010000000000000BRKRSAACNOR0101
012024111102LAND3       010TERRASANTAPAON      NM   R$  000000000122700000000012470000000001217000000000123000000000012170000000001216000000000123900124000000000000020600000000000025339600000000000000009999123100000010000000000000BRLANDACNOR9103
012024111102LAVV3       010LAVVI       ON      NM   R$  000000000089600000000008990000000000881000000000089200000000008980000000000895000000000089801869000000000000574300000000000512769200000000000000009999123100000010000000000000BRLAVVACNOR4113
012024111102LEVE3       010METAL LEVE  ON  EJ  NM   R$  000000000299400000000030190000000002904000000000295700000000029770000000002965000000000297702474000000000000402600000000001190488400000000000000009999123100000010000000000000BRLEVEACNOR2198
012024111102LJQQ3       010QUERO-QUERO ON      NM   R$  000000000028000000000002830000000000275000000000027700000000002780000000000278000000000027903550000000000002954800000000000820508200000000000000009999123100000010000000000000BRLJQQACNOR5104
012024111102LOGG3       010LOG COM PROPON      NM   R$  000000000235200000000023520000000002276000000000229800000000022920000000002275000000000229202210000000000000259600000000000596643100000000000000009999123100000010000000000000BRLOGGACNOR7107
012024111102LOGN3       010LOG-IN      ON      NM   R$  000000000247000000000025970000000002451000000000250700000000024990000000002495000000000249900394000000000000092200000000000231155600000000000000009999123100000010000000000000BRLOGNACNOR3105
012024111102LPSB3       010LOPES BRASILON      NM   R$  000000000016500000000001670000000000161000000000016500000000001650000000000165000000000016700126000000000000059700000000000009869100000000000000009999123100000010000000000000BRLPSBACNOR0114
012024111102LREN3       010LOJAS RENNERON      NM   R$  000000000169600000000017070000000001653000000000167100000000016740000000001672000000000167939004000000000017184400000000028723289000000000000000009999123100000010000000000000BRLRENACNOR1222
012024111102MRSA6B      010MRS LOGIST  PNB     MB   R$  000000000299900000000029990000000002999000000000299900000000029990000000002500000000000309900002000000000000000200000000000000599800000000000000009999123100000010000000000000BRMRSAACNPB7125
012024111102MRVE3       010MRV         ON      NM   R$  000000000069400000000007220000000000686000000000070700000000007100000000000710000000000071111526000000000010012100000000007084095900000000000000009999123100000010000000000000BRMRVEACNOR2127
012024111102SBSP3       010SABESP      ON      NM   R$  000000000895500000000092300000000008934000000000914600000000092060000000009206000000000920815080000000000003447600000000031534344000000000000000009999123100000010000000000000BRSBSPACNOR5161
012024111102SCAR3       010SAO CARLOS  ON      NM   R$  000000000212700000000021690000000002086000000000209900000000020900000000002087000000000209000185000000000000114900000000000241179400000000000000009999123100000010000000000000BRSCARACNOR7131
012024111102SEER3       010SER EDUCA   ON      NM   R$  000000000071500000000007400000000000702000000000072100000000007400000000000720000000000074003266000000000000736600000000000531215400000000000000009999123100000010000000000000BRSEERACNOR5119
012024111102SHOW3       010TIME FOR FUNON      NM   R$  000000000008900000000000910000000000089000000000008900000000000910000000000088000000000009100175000000000000063700000000000005722200000000000000009999123100000010000000000000BRSHOWACNOR7105
012024111102SHUL4       010SCHULZ      PN           R$  000000000060500000000006060000000000592000000000059600000000005940000000000593000000000059601682000000000000544200000000000324798500000000000000009999123100000010000000000000BRSHULACNPR4157
012024111102SIMH3       010SIMPAR      ON      NM   R$  000000000051700000000005340000000000514000000000052600000000005330000000000529000000000053304363000000000002514600000000001323562100000000000000009999123100000010000000000000BRSIMHACNOR0107
012024111102JSLG3       010JSL         ON      NM   R$  000000000077600000000007800000000000750000000000076400000000007690000000000762000000000076902535000000000000451600000000000345162200000000000000009999123100000010000000000000BRJSLGACNOR2121
012024111102KEPL3       010KEPLER WEBERON      NM   R$  000000000099500000000010220000000000991000000000100900000000010220000000001020000000000102202588000000000000653500000000000659916200000000000000009999123100000010000000000000BRKEPLACNOR1064
012024111102KLBN11      010KLABIN S/A  UNT     N2   R$  000000000207500000000020820000000002055000000000207100000000020790000000002074000000000208008870000000000005292900000000010963861400000000000000009999123100000010000000000000BRKLBNCDAM18143
012024111102KLBN3       010KLABIN S/A  ON      N2   R$  000000000041800000000004190000000000414000000000041600000000004170000000000416000000000041700705000000000000317700000000000132384300000000000000009999123100000010000000000000BRKLBNACNOR2171
012024111102KLBN4       010KLABIN S/A  PN      N2   R$  000000000041500000000004170000000000411000000000041400000000004160000000000415000000000041601677000000000001172500000000000485601900000000000000009999123100000010000000000000BRKLBNACNPR9171
012024111102MILS3       010MILLS       ON      NM   R$  000000000099900000000010100000000000988000000000100000000000010050000000001001000000000100503725000000000001171500000000001171500300000000000000009999123100000010000000000000BRMILSACNOR2128
012024111102MLAS3       010MULTILASER  ON      NM   R$  000000000015400000000001550000000000150000000000015200000000001540000000000153000000000015402268000000000001471100000000000224613700000000000000009999123100000010000000000000BRMLASACNOR9101
012024111102MNPR3       010MINUPAR     ON           R$  000000000197600000000020190000000001910000000000194800000000019990000000001910000000000200000007000000000000000700000000000001363700000000000000009999123100000010000000000000BRMNPRACNOR5122
012024111102MOVI3       010MOVIDA      ON      NM   R$  000000000064600000000006590000000000622000000000064600000000006430000000000639000000000064412114000000000004738100000000003063154700000000000000009999123100000010000000000000BRMOVIACNOR0123
012024111102MRFG3       010MARFRIG     ON      NM   R$  000000000150900000000015450000000001509000000000153100000000015400000000001537000000000154412637000000000003625700000000005554198200000000000000009999123100000010000000000000BRMRFGACNOR0116
012024111102SAPR11      010SANEPAR     UNT     N2   R$  000000000259600000000026670000000002592000000000264300000000026560000000002656000000000266505820000000000000859300000000002271733000000000000000009999123100000010000000000000BRSAPRCDAM13118
012024111102SAPR3       010SANEPAR     ON      N2   R$  000000000049800000000005070000000000496000000000050200000000005000000000000500000000000050300778000000000000200900000000000100964400000000000000009999123100000010000000000000BRSAPRACNOR9159
012024111102SAPR4       010SANEPAR     PN      N2   R$  000000000052900000000005400000000000525000000000053400000000005350000000000535000000000053703781000000000001618900000000000865408700000000000000009999123100000010000000000000BRSAPRACNPR6159
012024111102SBFG3       010GRUPO SBF   ON      NM   R$  000000000136200000000013920000000001345000000000137300000000013690000000001368000000000137704945000000000001137400000000001562764600000000000000009999123100000010000000000000BRSBFGACNOR1103
012024111102TASA3       010TAURUS ARMASON      N2   R$  000000000104800000000010480000000001002000000000101400000000010040000000001004000000000101000087000000000000019500000000000019780100000000000000009999123100000010000000000000BRTASAACNOR7104
012024111102TASA4       010TAURUS ARMASPN      N2   R$  000000000102300000000010230000000001000000000000100800000000010040000000001004000000000101001255000000000000226200000000000228123100000000000000009999123100000010000000000000BRTASAACNPR4104
012024111107NUTR3       010NUTRIPLANT  ON      MA   R$  000000000037000000000003780000000000362000000000036700000000003660000000000366000000000037100020000000000000004300000000000001578900000000000000009999123100000010000000000000BRNUTRACNOR0104
012024111107SEQL3       010SEQUOIA LOG ON      NM   R$  000000000037800000000003780000000000366000000000037100000000003690000000000368000000000037000851000000000000513200000000000190403300000000000000009999123100000010000000000000BRSEQLACNOR2103
012024111108ATMP3       010ATMASA      ON           R$  000000000013300000000001330000000000131000000000013200000000001310000000000131000000000013300002000000000000019100000000000002540100000000000000009999123100000010000000000000BRATMPACNOR8100
012024111108TEKA4       010TEKA        PN           R$  000000000295000000000029500000000002950000000000295000000000029500000000001645000000000299500002000000000000000200000000000000590000000000000000009999123100000010000000000000BRTEKAACNPR3140
012024111108CTSA3       010SANTANENSE  ON           R$  000000000020000000000002000000000000200000000000020000000000002000000000000179000000000020700002000000000000000200000000000000040000000000000000009999123100000010000000000000BRCTSAACNOR3062
012024111108CTSA4       010SANTANENSE  PN           R$  000000000010900000000001090000000000109000000000010900000000001090000000000103000000000011300002000000000000000700000000000000076300000000000000009999123100000010000000000000BRCTSAACNPR0062
012024111108AMER3       010AMERICANAS  ON      NM   R$  000000000031500000000003470000000000312000000000032700000000003470000000000347000000000034808464000000000017199000000000005625027000000000000000009999123100000010000000000000BRAMERACNOR6103
012024111108RNEW11      010RENOVA      UNT     N2   R$  000000000032600000000003300000000000315000000000032100000000003150000000000315000000000032000033000000000000005300000000000001702700000000000000009999123100000010000000000000BRRNEWCDAM15110
012024111108RNEW3       010RENOVA      ON      N2   R$  000000000010600000000001080000000000105000000000010600000000001050000000000105000000000010700073000000000000066600000000000007116100000000000000009999123100000010000000000000BRRNEWACNOR8110
012024111108RNEW4       010RENOVA      PN      N2   R$  000000000011000000000001110000000000106000000000010700000000001060000000000106000000000010700134000000000000089000000000000009591200000000000000009999123100000010000000000000BRRNEWACNPR5110
012024111108RPMG3       010PET MANGUINHON           R$  000000000026100000000002690000000000257000000000025900000000002640000000000262000000000026400026000000000000012900000000000003348800000000000000009999123100000010000000000000BRRPMGACNOR9194
012024111108RSID3       010ROSSI RESID ON      NM   R$  000000000032400000000003300000000000306000000000031600000000003230000000000323000000000032800626000000000000131800000000000041768000000000000000009999123100000010000000000000BRRSIDACNOR8120
012024111108PMAM3       010PARANAPANEMAON      NM   R$  000000000010500000000001150000000000104000000000010700000000001050000000000105000000000010700442000000000000536800000000000057672700000000000000009999123100000010000000000000BRPMAMACNOR3040
012024111108OIBR3       010OI          ON      N1   R$  000000000042000000000004200000000000250000000000033900000000002500000000000240000000000026105149000000000004477200000000001521290800000000000000009999123100000010000000000000BROIBRACNOR1112
012024111108OIBR4       010OI          PN      N1   R$  000000000125800000000012580000000001120000000000114700000000011200000000001120000000000119900041000000000000009400000000000010787800000000000000009999123100000010000000000000BROIBRACNPR8111
012024111108OSXB3       010OSX BRASIL  ON      NM   R$  000000000050100000000005130000000000470000000000048700000000004960000000000477000000000048900037000000000000005500000000000002681800000000000000009999123100000010000000000000BROSXBACNOR8109
012024111108HOOT4       010HOTEIS OTHONPN           R$  000000000022600000000002480000000000225000000000022900000000002350000000000234000000000024000007000000000000002100000000000000481600000000000000009999123100000010000000000000BRHOOTACNPR9015
012024111108JFEN3       010JOAO FORTES ON           R$  000000000002200000000000230000000000021000000000002200000000000230000000000022000000000002300142000000000000338700000000000007502900000000000000009999123100000010000000000000BRJFENACNOR0059
012024111108NEXP3       010NEXPE       ON           R$  000000000044900000000004490000000000449000000000044900000000004490000000000414000000000044800001000000000000000100000000000000044900000000000000009999123100000010000000000000BRNEXPACNOR0101
012024111108AGXY3       010AGROGALAXY  ON      NM   R$  000000000004300000000000430000000000041000000000004200000000000430000000000042000000000004300161000000000000041600000000000001770300000000000000009999123100000010000000000000BRAGXYACNOR4103
012024111108LIGT3       010LIGHT S/A   ON      NM   R$  000000000048700000000004950000000000486000000000049000000000004900000000000490000000000049201022000000000000392900000000000192751200000000000000009999123100000010000000000000BRLIGTACNOR2125
012024111110BSLI1       010BRB BANCO   DIR ORD      R$  000000000006000000000000600000000000059000000000005900000000000590000000000004000000000005900006000000000000000800000000000000047700000000000000009999123100000010000000000000BRBSLID04OR4194
012024111110BSLI2       010BRB BANCO   DIR PRE      R$  000000000005200000000000520000000000045000000000005000000000000450000000000007000000000004000003000000000000000700000000000000035000000000000000009999123100000010000000000000BRBSLID03PR3194
012024111110MBLY1       010MOBLY       DIR ORD NM   R$  000000000000100000000000010000000000001000000000000100000000000010000000000000000000000000100004000000000000003600000000000000003600000000000000009999123100000010000000000000BRMBLYD01OR0100
012024111110MBLY11      010MOBLY       DIR     NM   R$  000000000000600000000000280000000000006000000000001800000000000210000000000012000000000002200062000000000000027200000000000000494300000000000000009999123100000010000000000000BRMBLYD01M18100
012024111110HBSA1       010HIDROVIAS   DIR ORD NM   R$  000000000000100000000000010000000000001000000000000100000000000010000000000000000000000000100023000000000000054000000000000000054000000000000000009999123100000010000000000000BRHBSAD01OR5100
012024111110MERC2       010MERC FINANC DIR PRE      R$  000000000003600000000000360000000000029000000000003400000000000290000000000007000000000007900007000000000000001300000000000000045300000000000000009999123100000010000000000000BRMERCD02PR2180
012024111110LIGT11      010LIGHT S/A   DIR     NM   R$  000000000000100000000000010000000000001000000000000100000000000010000000000000000000000000100142000000000000275400000000000000275400000000000000009999123100000010000000000000BRLIGTD01M16124
012024111110LIGT13      010LIGHT S/A   DIR     NM   R$  000000000000100000000000010000000000001000000000000100000000000010000000000000000000000000100016000000000000049100000000000000049100000000000000009999123100000010000000000000BRLIGTD02M15124
012024111112BRCR11      010FII BC FUND CI  ER       R$  000000000438700000000043870000000004310000000000433000000000043280000000004328000000000432904002000000000000029205000000000126485159000000000000009999123100000010000000000000BRBRCRCTF000272
012024111112EQIR11      010FII EQI RECECI           R$  000000000084100000000008500000000000840000000000084100000000008410000000000841000000000084603926000000000000019405000000000016336544000000000000009999123100000010000000000000BREQIRCTF003137
012024111112EURO11      010FII EUROPAR CI  ER       R$  000000002210000000000223980000000021990000000002221100000000223970000000021943000000002239800030000000000000000520000000000011550098000000000000009999123100000010000000000000BREUROCTF011364
012024111112IBCR11      010FII BREI    CI           R$  000000000568200000000056990000000005635000000000567400000000056650000000005637000000000566400163000000000000001237000000000007019379000000000000009999123100000010000000000000BRIBCRCTF009141
012024111112ASMT11      010FII ASA MET CI           R$  000000000360200000000036020000000003601000000000360100000000036010000000003600000000000387100002000000000000000002000000000000007203000000000000009999123100000010000000000000BRASMTCTF005107
012024111112ATSA11      010FII HATRIUM CI           R$  000000000510600000000051060000000005106000000000510600000000051060000000005000000000000510700001000000000000000013000000000000066378000000000000009999123100000010000000000000BRATSACTF000145
012024111112TEPP11      010FII TEL PROPCI  ER       R$  000000000869000000000086900000000008585000000000863400000000086250000000008625000000000864601289000000000000010455000000000090268876000000000000009999123100000010000000000000BRTEPPCTF006155
012024111112TGAR11      010FII TG ATIVOCI  ER       R$  000000000989000000000099500000000009800000000000985600000000098100000000009810000000000982010012000000000000096140000000000947567279000000000000009999123100000010000000000000BRTGARCTF009196
012024111112TJKB11      010FII TJK RENDCI  ES       R$  000000002800000000000280000000000028000000000002800000000000280000000000027008000000002800000001000000000000000001000000000000028000000000000000009999123100000010000000000000BRTJKBCTF006135
012024111112TMPS11      010FII ITAU TEMCI  ER       R$  000000000811500000000081990000000008072000000000815500000000081700000000008157000000000818300338000000000000009468000000000077213965000000000000009999123100000010000000000000BRTMPSCTF003119
012024111112TOPP11      010FII TOPP    CI           R$  000000000850000000000085470000000008160000000000830000000000081820000000008182000000000829801018000000000000011944000000000099140387000000000000009999123100000010000000000000BRTOPPCTF013101
012024111112TORD11      010FII TORDE EICI           R$  000000000009800000000000990000000000097000000000009700000000000980000000000097000000000009800345000000000000082660000000000008097995000000000000009999123100000010000000000000BRTORDCTF015138
012024111112VOTS11      010FII V MASTERCI  ER       R$  000000000730100000000075740000000007301000000000743600000000075710000000007300000000000757100005000000000000000006000000000000044619000000000000009999123100000010000000000000BRVOTSCTF007175
012024111112VRTA11      010FII FATOR VECI  ER       R$  000000000806500000000080680000000008000000000000801700000000080000000000008000000000000801303262000000000000019628000000000157371500000000000000009999123100000010000000000000BRVRTACTF008265
012024111112VRTM11      010FII VRTM    CI  ER       R$  000000000074200000000007430000000000733000000000073800000000007430000000000740000000000074300276000000000000042560000000000031414841000000000000009999123100000010000000000000BRVRTMCTF003113
012024111112VSHO11      010FII VOT SHOPCI  ER       R$  000000000709900000000070990000000006893000000000692700000000069000000000006899000000000694400412000000000000000571000000000003955771000000000000009999123100000010000000000000BRVSHOCTF002166
012024111112VSLH11      010FII VERS CRICI  ER       R$  000000000033500000000003350000000000325000000000033100000000003320000000000326000000000033201877000000000000055877000000000018526121000000000000009999123100000010000000000000BRVSLHCTF008148
012024111112VTLT11      010FII VOT LOG CI  ER       R$  000000000907500000000090750000000008991000000000903900000000089910000000008991000000000903000130000000000000000854000000000007719828000000000000009999123100000010000000000000BRVTLTCTF001177
012024111112VVCO11      010FII V2EDCORPCI           R$  000000000127100000000013100000000001270000000000129000000000013100000000001275000000000131500014000000000000000397000000000000512246000000000000009999123100000010000000000000BRVVCOCTF007101
012024111112VVCR11      010FII V2 RECE CI           R$  000000000094100000000009460000000000941000000000094400000000009460000000000946000000000095900008000000000000000046000000000000043453000000000000009999123100000010000000000000BRVVCRCTF000120
012024111112VVMR11      010FII MULT RENCI  ER       R$  000000000869500000000086970000000008695000000000869600000000086970000000007831000000000869700003000000000000000095000000000000826209000000000000009999123100000010000000000000BRVVMRCTF009110
012024111112ZAGH11      010FII ZAGH    CI           R$  000000000130000000000013000000000001250000000000128800000000013000000000001250000000000130000010000000000000000021000000000000027050000000000000009999123100000010000000000000BRZAGHCTF007109
012024111112ZAVC11      010FII ZAVIT C CI  ER       R$  000000000103000000000010300000000001030000000000103000000000010300000000000951000000000104900002000000000000000002000000000000002060000000000000009999123100000010000000000000BRZAVCCTF007107
012024111112ZAVI11      010FII ZAVIT R CI  ER       R$  000000001040100000000104560000000010200000000001033200000000103100000000010454000000001054900362000000000000003302000000000034117561000000000000009999123100000010000000000000BRZAVICTF004126
012024111112CEOC11      010FII CEO CCP CI  ER       R$  000000000406700000000041350000000003800000000000395000000000039660000000003990000000000402900133000000000000002911000000000011498609000000000000009999123100000010000000000000BRCEOCCTF003220
012024111112CJCT11      010FII CJCTOWERCI  ER       R$  000000000506900000000052000000000004995000000000501100000000052000000000005076000000000530000010000000000000000072000000000000360850000000000000009999123100000010000000000000BRCJCTCTF001120
012024111112CLIN11      010FII CLAVE INCI  ER       R$  000000000927200000000093000000000009107000000000921800000000091100000000009110000000000914602719000000000000022084000000000203576533000000000000009999123100000010000000000000BRCLINCTF007113
012024111112CTXT11      010FII C TEXTILCI           R$  000000000069800000000006980000000000638000000000064100000000006480000000000641000000000064800025000000000000000485000000000000311068000000000000009999123100000010000000000000BRCTXTCTF014207
012024111112CVBI11      010FII VBI CRI CI  ER       R$  000000000849800000000084980000000008207000000000837700000000084070000000008253000000000840707258000000000000040087000000000335848226000000000000009999123100000010000000000000BRCVBICTF001171
012024111112HGBL11      010FII HGBL    CI  ER       R$  000000000102800000000010280000000001010000000000101400000000010200000000001012000000000102000283000000000000006581000000000006677221000000000000009999123100000010000000000000BRHGBLCTF005111
012024111112HGBS11      010FII HEDGEBS CI  ER       R$  000000001965000000000196970000000019530000000001960600000000195710000000019571000000001965002692000000000000014421000000000282741543000000000000009999123100000010000000000000BRHGBSCTF000315
012024111112HGCR11      010FII HGCR PAXCI  ER       R$  000000000961800000000098450000000009610000000000974100000000097060000000009706000000000975605483000000000000073021000000000711338394000000000000009999123100000010000000000000BRHGCRCTF000251
012024111112HGFF11      010FII HGFF PAXCI  ER       R$  000000000755000000000076250000000007430000000000753800000000074300000000007430000000000745001945000000000000007180000000000054127447000000000000009999123100000010000000000000BRHGFFCTF008165
012024111112CRFF11      010FII CX RBRA2CI  ER       R$  000000000710700000000071070000000006956000000000708000000000069580000000006957000000000729700009000000000000000017000000000000120362000000000000009999123100000010000000000000BRCRFFCTF006166
012024111112GGRC11      010FII GGRCOVEPCI  ER       R$  000000000102300000000010240000000001013000000000101800000000010150000000001015000000000101704014000000000000209180000000000212973991000000000000009999123100000010000000000000BRGGRCCTF002200
