00COTAHIST.2024BOVESPA 20241101                                                                                                                                                                                                                      
012024110102AALR3       010ALLIAR      ON      NM   R$  000000000154300000000015430000000001417000000000145400000000014170000000001417000000000145700164000000000000018600000000000027050800000000000000009999123100000010000000000000BRAALRACNOR6102
012024110102SHUL4       010SCHULZ      PN           R$  000000000062800000000006300000000000614000000000061900000000006140000000000614000000000061601077000000000000360900000000000223418000000000000000009999123100000010000000000000BRSHULACNPR4157
012024110102SIMH3       010SIMPAR      ON      NM   R$  000000000053800000000005420000000000496000000000051200000000004980000000000498000000000049906089000000000003582700000000001835491300000000000000009999123100000010000000000000BRSIMHACNOR0107
012024110102SLCE3       010SLC AGRICOLAON      NM   R$  000000000171200000000017350000000001695000000000171700000000017300000000001726000000000173006320000000000001712500000000002941733100000000000000009999123100000010000000000000BRSLCEACNOR2125
012024110102BMKS3       010BIC MONARK  ON           R$  000000003067400000000310420000000030674000000003076600000000310420000000030700000000003129700002000000000000000004000000000000123064000000000000009999123100000010000000000000BRBMKSACNOR9166
012024110102BMOB3       010BEMOBI TECH ON      NM   R$  000000000154900000000015490000000001444000000000148600000000014670000000001467000000000146802028000000000000441200000000000655988000000000000000009999123100000010000000000000BRBMOBACNOR7103
012024110102BOBR4       010BOMBRIL     PN           R$  000000000027200000000002780000000000265000000000026800000000002710000000000263000000000027100054000000000000040200000000000010795200000000000000009999123100000010000000000000BRBOBRACNPR3128
012024110102BRAV3       010BRAVA       ON      NM   R$  000000000171500000000017150000000001660000000000168500000000016600000000001659000000000166213793000000000005754500000000009699667400000000000000009999123100000010000000000000BRBRAVACNOR3100
012024110102CPLE5       010COPEL       PNA     N2   R$  000000000115000000000011500000000001150000000000115000000000011500000000001100000000000115000005000000000000000500000000000000575000000000000000009999123100000010000000000000BRCPLEACNPA1148
012024110102CPLE6       010COPEL       PNB     N2   R$  000000000098100000000009810000000000950000000000095800000000009560000000000955000000000095722268000000000023245700000000022285454400000000000000009999123100000010000000000000BRCPLEACNPB9147
012024110102CRFB3       010CARREFOUR BRON      NM   R$  000000000076000000000007950000000000742000000000076900000000007540000000000754000000000075522082000000000022090000000000016994545200000000000000009999123100000010000000000000BRCRFBACNOR2116
012024110102HBOR3       010HELBOR      ON      NM   R$  000000000018900000000001890000000000179000000000018200000000001800000000000179000000000018000533000000000000842200000000000153621600000000000000009999123100000010000000000000BRHBORACNOR3118
012024110102JHSF3       010JHSF PART   ON  ED  NM   R$  000000000044100000000004420000000000428000000000043100000000004310000000000430000000000043106395000000000004540200000000001961268100000000000000009999123100000010000000000000BRJHSFACNOR2141
012024110102PRNR3       010PRINER      ON      NM   R$  000000000138500000000013850000000001344000000000135600000000013550000000001351000000000135601053000000000000231500000000000314013400000000000000009999123100000010000000000000BRPRNRACNOR4109
012024110102PSSA3       010PORTO SEGUROON      NM   R$  000000000379200000000038290000000003768000000000380000000000038000000000003800000000000380109144000000000002724300000000010353852300000000000000009999123100000010000000000000BRPSSAACNOR7156
012024110102PTBL3       010PORTOBELLO  ON      NM   R$  000000000042000000000004200000000000399000000000040300000000004000000000000400000000000040502364000000000000961400000000000388013600000000000000009999123100000010000000000000BRPTBLACNOR8132
012024110102PTNT3       010PETTENATI   ON  EDJ      R$  000000000097600000000009760000000000933000000000094700000000009650000000000913000000000095900010000000000000001100000000000001041900000000000000009999123100000010000000000000BRPTNTACNOR6043
012024110102PTNT4       010PETTENATI   PN  EDJ      R$  000000000062100000000006290000000000615000000000062000000000006290000000000619000000000062800026000000000000005900000000000003662200000000000000009999123100000010000000000000BRPTNTACNPR3048
012024110102QUAL3       010QUALICORP   ON      NM   R$  000000000022700000000002310000000000220000000000022700000000002310000000000229000000000023103321000000000005256800000000001195860400000000000000009999123100000010000000000000BRQUALACNOR6120
012024110102SEER3       010SER EDUCA   ON      NM   R$  000000000071400000000007550000000000665000000000071400000000006870000000000684000000000068707022000000000002347700000000001678596900000000000000009999123100000010000000000000BRSEERACNOR5119
012024110102SHOW3       010TIME FOR FUNON      NM   R$  000000000009500000000000950000000000090000000000009100000000000900000000000090000000000009100242000000000000138700000000000012726300000000000000009999123100000010000000000000BRSHOWACNOR7105
012024110102NTCO3       010GRUPO NATURAON      NM   R$  000000000137200000000013810000000001353000000000136400000000013620000000001359000000000136314183000000000011540400000000015746486500000000000000009999123100000010000000000000BRNTCOACNOR5106
012024110102ASAI3       010ASSAI       ON      NM   R$  000000000075500000000007550000000000733000000000074000000000007330000000000733000000000073424786000000000017152100000000012696845800000000000000009999123100000010000000000000BRASAIACNOR0106
012024110102ATOM3       010ATOMPAR     ON           R$  000000000038300000000004000000000000379000000000039000000000004000000000000393000000000040000505000000000000090900000000000035521900000000000000009999123100000010000000000000BRATOMACNOR1106
012024110102AURE3       010AUREN       ON      NM   R$  000000000102400000000010300000000001008000000000102000000000010220000000001022000000000102313692000000000007024700000000007168202100000000000000009999123100000010000000000000BRAUREACNOR9104
012024110102AVLL3       010ALPHAVILLE  ON      NM   R$  000000000029200000000002950000000000291000000000029300000000002950000000000281000000000029500031000000000000026000000000000007633700000000000000009999123100000010000000000000BRAVLLACNOR5103
012024110102AZEV3       010AZEVEDO     ON           R$  000000000011800000000001180000000000113000000000011400000000001130000000000113000000000011400253000000000000405500000000000046496600000000000000009999123100000010000000000000BRAZEVACNOR0121
012024110102AZEV4       010AZEVEDO     PN           R$  000000000011700000000001180000000000114000000000011500000000001140000000000113000000000011400936000000000001135200000000000130562900000000000000009999123100000010000000000000BRAZEVACNPR7121
012024110102AZUL4       010AZUL        PN      N2   R$  000000000056700000000005670000000000526000000000054200000000005310000000000530000000000053211760000000000021584300000000011719877900000000000000009999123100000010000000000000BRAZULACNPR4103
012024110102BRIT3       010BRISANET    ON      NM   R$  000000000031000000000003120000000000304000000000030700000000003050000000000305000000000030800860000000000000347600000000000106765800000000000000009999123100000010000000000000BRBRITACNOR0103
012024110102BRKM3       010BRASKEM     ON      N1   R$  000000000170400000000017100000000001665000000000169300000000017070000000001690000000000170700124000000000000016800000000000028448700000000000000009999123100000010000000000000BRBRKMACNOR1119
012024110102BRKM5       010BRASKEM     PNA     N1   R$  000000000176700000000017670000000001699000000000172600000000017240000000001723000000000172908755000000000002629200000000004539788000000000000000009999123100000010000000000000BRBRKMACNPA4121
012024110102BRKM6       010BRASKEM     PNB     N1   R$  000000000125200000000013200000000001250000000000127400000000013200000000001250000000000140000008000000000000000800000000000001019700000000000000009999123100000010000000000000BRBRKMACNPB2114
012024110102CSED3       010CRUZEIRO EDUON      NM   R$  000000000033300000000003330000000000310000000000031700000000003100000000000309000000000031101251000000000001031000000000000326857700000000000000009999123100000010000000000000BRCSEDACNOR9105
012024110102CSMG3       010COPASA      ON      NM   R$  000000000230400000000023540000000002280000000000232600000000023290000000002328000000000233109936000000000001980400000000004606959600000000000000009999123100000010000000000000BRCSMGACNOR5175
012024110102CSNA3       010SID NACIONALON           R$  000000000118000000000011800000000001153000000000116200000000011650000000001164000000000116512269000000000006232100000000007242056600000000000000009999123100000010000000000000BRCSNAACNOR6261
012024110102CSUD3       010CSU DIGITAL ON      NM   R$  000000000175100000000017560000000001717000000000173000000000017230000000001718000000000172300193000000000000032400000000000056072300000000000000009999123100000010000000000000BRCSUDACNOR5111
012024110102ENEV3       010ENEVA       ON      NM   R$  000000000130400000000013080000000001261000000000127400000000012660000000001266000000000126721599000000000012622200000000016092419900000000000000009999123100000010000000000000BRENEVACNOR8106
012024110102ENGI11      010ENERGISA    UNT     N2   R$  000000000429100000000043030000000004190000000000422500000000041900000000004189000000000420013536000000000002706500000000011435118700000000000000009999123100000010000000000000BRENGICDAM16136
012024110102ENGI3       010ENERGISA    ON      N2   R$  000000000128000000000012990000000001252000000000127000000000012990000000001252000000000129900040000000000000005200000000000006605600000000000000009999123100000010000000000000BRENGIACNOR0146
012024110102ENGI4       010ENERGISA    PN      N2   R$  000000000075500000000007550000000000728000000000074000000000007310000000000731000000000074900093000000000000019200000000000014215900000000000000009999123100000010000000000000BRENGIACNPR7142
012024110102ENJU3       010ENJOEI      ON      NM   R$  000000000013100000000001320000000000120000000000012600000000001220000000000121000000000012201297000000000001077300000000000135953300000000000000009999123100000010000000000000BRENJUACNOR9100
012024110102EPAR3       010EMBPAR S/A  ON           R$  000000000056400000000005750000000000558000000000056900000000005700000000000570000000000057700026000000000000005500000000000003132400000000000000009999123100000010000000000000BREPARACNOR9105
012024110102EQMA3B      010EQTLMARANHAOON      MB   R$  000000000231000000000023100000000002252000000000229200000000022520000000002261000000000233000005000000000000000700000000000001604500000000000000009999123100000010000000000000BREQMAACNOR8108
012024110102EQPA3       010EQTL PARA   ON           R$  000000000058500000000005950000000000584000000000058900000000005880000000000587000000000059400013000000000000001400000000000000824600000000000000009999123100000010000000000000BREQPAACNOR1111
012024110102EQTL3       010EQUATORIAL  ON      NM   R$  000000000321300000000032220000000003141000000000316300000000031410000000003140000000000314224422000000000007220300000000022842757000000000000000009999123100000010000000000000BREQTLACNOR0131
012024110102JSLG3       010JSL         ON      NM   R$  000000000080400000000008040000000000760000000000076500000000007610000000000761000000000076202203000000000000554300000000000424147600000000000000009999123100000010000000000000BRJSLGACNOR2121
012024110102KEPL3       010KEPLER WEBERON      NM   R$  000000000100900000000010140000000000983000000000099900000000009890000000000989000000000099605529000000000001688000000000001687650900000000000000009999123100000010000000000000BRKEPLACNOR1064
012024110102KLBN11      010KLABIN S/A  UNT     N2   R$  000000000208500000000021070000000002078000000000209500000000021020000000002096000000000210213751000000000008907100000000018667471000000000000000009999123100000010000000000000BRKLBNCDAM18143
012024110102KLBN3       010KLABIN S/A  ON      N2   R$  000000000041900000000004240000000000417000000000042000000000004210000000000421000000000042400883000000000000484900000000000203772300000000000000009999123100000010000000000000BRKLBNACNOR2171
012024110102KLBN4       010KLABIN S/A  PN      N2   R$  000000000041700000000004210000000000415000000000041700000000004190000000000418000000000041902472000000000001690900000000000706630600000000000000009999123100000010000000000000BRKLBNACNPR9171
012024110102ALPA3       010ALPARGATAS  ON      N1   R$  000000000064000000000006400000000000630000000000063700000000006300000000000629000000000063100003000000000000000700000000000000446000000000000000009999123100000010000000000000BRALPAACNOR0231
012024110102ALPA4       010ALPARGATAS  PN      N1   R$  000000000071900000000007340000000000713000000000072400000000007220000000000721000000000072409507000000000003814600000000002764946400000000000000009999123100000010000000000000BRALPAACNPR7232
012024110102ALPK3       010ESTAPAR     ON      NM   R$  000000000028800000000002880000000000275000000000027900000000002750000000000274000000000027800297000000000000166900000000000046691500000000000000009999123100000010000000000000BRALPKACNOR9101
012024110102ALUP11      010ALUPAR      UNT     N2   R$  000000000293000000000029410000000002874000000000289700000000028880000000002888000000000288906847000000000002067200000000005990457800000000000000009999123100000010000000000000BRALUPCDAM15120
012024110102ALUP3       010ALUPAR      ON      N2   R$  000000000100000000000010050000000000974000000000098600000000009740000000000974000000000098600072000000000000012300000000000012134500000000000000009999123100000010000000000000BRALUPACNOR8120
012024110102ALUP4       010ALUPAR      PN      N2   R$  000000000096500000000009660000000000930000000000095200000000009300000000000930000000000094700126000000000000021500000000000020489100000000000000009999123100000010000000000000BRALUPACNPR5120
012024110102AMAR3       010LOJAS MARISAON      NM   R$  000000000009600000000000960000000000093000000000009400000000000930000000000093000000000009500342000000000000126200000000000011927200000000000000009999123100000010000000000000BRAMARACNOR4115
012024110102AMBP3       010AMBIPAR     ON      NM   R$  000000001296700000000130780000000012005000000001252000000000126800000000012475000000001268001337000000000000237800000000002977450900000000000000009999123100000010000000000000BRAMBPACNOR6103
012024110102ANIM3       010ANIMA       ON      NM   R$  000000000025300000000002540000000000231000000000023700000000002320000000000232000000000023313139000000000020235800000000004809900100000000000000009999123100000010000000000000BRANIMACNOR6109
012024110102ARML3       010ARMAC       ON      NM   R$  000000000075100000000007520000000000723000000000073300000000007270000000000727000000000073001924000000000000491000000000000359939400000000000000009999123100000010000000000000BRARMLACNOR1113
012024110102BBSE3       010BBSEGURIDADEON      NM   R$  000000000345500000000034590000000003411000000000343200000000034280000000003424000000000342811118000000000002680800000000009202989700000000000000009999123100000010000000000000BRBBSEACNOR5125
012024110102BEEF3       010MINERVA     ON  ATZ NM   R$  000000000058000000000005830000000000572000000000057700000000005760000000000575000000000057609800000000000006639300000000003832763000000000000000009999123100000010000000000000BRBEEFACNOR6117
012024110102CMIN3       010CSNMINERACAOON      N2   R$  000000000062500000000006270000000000604000000000061400000000006180000000000618000000000062012926000000000011157200000000006859667000000000000000009999123100000010000000000000BRCMINACNOR2112
012024110102COCE5       010COELCE      PNA          R$  000000000262500000000026480000000002607000000000262700000000026200000000002620000000000271700055000000000000010700000000000028115700000000000000009999123100000010000000000000BRCOCEACNPA3147
012024110102COGN3       010COGNA ON    ON      NM   R$  000000000014200000000001430000000000135000000000013800000000001360000000000136000000000013714329000000000036029500000000004976663800000000000000009999123100000010000000000000BRCOGNACNOR2105
012024110102DASA3       010DASA        ON      NM   R$  000000000026700000000002670000000000253000000000025800000000002530000000000253000000000025602407000000000000965200000000000249093500000000000000009999123100000010000000000000BRDASAACNOR1123
012024110102DESK3       010DESKTOP     ON      NM   R$  000000000133200000000013320000000001296000000000130500000000013000000000001297000000000130000605000000000000075800000000000098928400000000000000009999123100000010000000000000BRDESKACNOR2104
012024110102DEXP3       010DEXXOS PAR  ON      N1   R$  000000000088800000000008930000000000873000000000087700000000008930000000000875000000000089600428000000000000060600000000000053171900000000000000009999123100000010000000000000BRDEXPACNOR1105
012024110102DEXP4       010DEXXOS PAR  PN      N1   R$  000000000089800000000008980000000000870000000000088000000000008700000000000867000000000089000006000000000000001000000000000000880000000000000000009999123100000010000000000000BRDEXPACNPR8105
012024110102DIRR3       010DIRECIONAL  ON      NM   R$  000000000314500000000031840000000003049000000000311200000000030650000000003065000000000306613507000000000003883900000000012090450400000000000000009999123100000010000000000000BRDIRRACNOR0119
012024110102FRAS3       010FRAS-LE     ON      N1   R$  000000000218200000000021820000000002105000000000212300000000021100000000002110000000000211502289000000000000555800000000001180238000000000000000009999123100000010000000000000BRFRASACNOR0160
012024110102FRIO3       010METALFRIO   ON      NM   R$  000000001299900000000130000000000011100000000001218500000000119910000000011500000000001199100042000000000000007000000000000085298700000000000000009999123100000010000000000000BRFRIOACNOR2111
012024110102GEPA3       010GER PARANAP ON           R$  000000000297600000000029760000000002976000000000297600000000029760000000002850000000000315000001000000000000000100000000000000297600000000000000009999123100000010000000000000BRGEPAACNOR2154
012024110102GEPA4       010GER PARANAP PN           R$  000000000302500000000030250000000002926000000000295800000000029500000000002950000000000302500006000000000000000600000000000001775200000000000000009999123100000010000000000000BRGEPAACNPR9161
012024110102GFSA3       010GAFISA      ON      NM   R$  000000000015300000000001540000000000146000000000014900000000001460000000000145000000000014601990000000000005039700000000000754808100000000000000009999123100000010000000000000BRGFSAACNOR3125
012024110102GGBR3       010GERDAU      ON      N1   R$  000000000177300000000017850000000001727000000000175500000000017740000000001765000000000178100476000000000000092900000000000163097800000000000000009999123100000010000000000000BRGGBRACNOR1193
012024110102GGBR4       010GERDAU      PN      N1   R$  000000000182400000000018300000000001802000000000181600000000018200000000001818000000000182215424000000000007633400000000013862602200000000000000009999123100000010000000000000BRGGBRACNPR8193
012024110102ITSA3       010ITAUSA      ON      N1   R$  000000000105800000000010640000000001049000000000105800000000010490000000001049000000000105300243000000000000053100000000000056181300000000000000009999123100000010000000000000BRITSAACNOR0443
012024110102ITSA4       010ITAUSA      PN      N1   R$  000000000106300000000010640000000001048000000000105500000000010510000000001050000000000105127247000000000017743500000000018735570000000000000000009999123100000010000000000000BRITSAACNPR7443
012024110102KRSA3       010KORA SAUDE  ON      NM   R$  000000000053200000000005620000000000532000000000055000000000005610000000000561000000000056200053000000000000019400000000000010682000000000000000009999123100000010000000000000BRKRSAACNOR0101
012024110102LAND3       010TERRASANTAPAON      NM   R$  000000000124500000000012790000000001241000000000125700000000012470000000001240000000000126000163000000000000024700000000000031054900000000000000009999123100000010000000000000BRLANDACNOR9103
012024110102PINE3       010PINE        ON      N2   R$  000000000046200000000004880000000000458000000000046900000000004880000000000458000000000048800008000000000000001000000000000000469400000000000000009999123100000010000000000000BRPINEACNOR1152
012024110102PINE4       010PINE        PN      N2   R$  000000000046000000000004600000000000450000000000045300000000004520000000000452000000000045500325000000000000152200000000000069029600000000000000009999123100000010000000000000BRPINEACNPR8152
012024110102PLAS3       010PLASCAR PARTON           R$  000000000055100000000005510000000000550000000000055000000000005500000000000540000000000059900003000000000000002000000000000001100100000000000000009999123100000010000000000000BRPLASACNOR2106
012024110102PLPL3       010PLANOEPLANO ON      NM   R$  000000000143000000000014300000000001367000000000140600000000013800000000001380000000000138106055000000000002285300000000003214374400000000000000009999123100000010000000000000BRPLPLACNOR5104
012024110102LAVV3       010LAVVI       ON      NM   R$  000000000084800000000008480000000000818000000000082400000000008210000000000821000000000082503508000000000001320200000000001089096500000000000000009999123100000010000000000000BRLAVVACNOR4113
012024110102LEVE3       010METAL LEVE  ON      NM   R$  000000000300100000000030150000000002983000000000300300000000030060000000003001000000000300702503000000000000344000000000001033124500000000000000009999123100000010000000000000BRLEVEACNOR2197
012024110102LJQQ3       010QUERO-QUERO ON      NM   R$  000000000029100000000002910000000000274000000000027900000000002740000000000274000000000027505903000000000004813000000000001344743700000000000000009999123100000010000000000000BRLJQQACNOR5104
012024110102LOGG3       010LOG COM PROPON      NM   R$  000000000227000000000022710000000002204000000000223500000000022400000000002228000000000224601872000000000000487000000000001088870600000000000000009999123100000010000000000000BRLOGGACNOR7107
012024110102LOGN3       010LOG-IN      ON      NM   R$  000000000260800000000026080000000002448000000000250300000000025960000000002563000000000259700450000000000000055500000000000138960800000000000000009999123100000010000000000000BRLOGNACNOR3105
012024110102LPSB3       010LOPES BRASILON      NM   R$  000000000016000000000001610000000000157000000000015800000000001580000000000158000000000016000132000000000000061100000000000009697900000000000000009999123100000010000000000000BRLPSBACNOR0114
012024110102LREN3       010LOJAS RENNERON      NM   R$  000000000186500000000018650000000001810000000000182700000000018110000000001811000000000181518340000000000007680800000000014039550100000000000000009999123100000010000000000000BRLRENACNOR1222
012024110102MYPK3       010IOCHP-MAXIONON      NM   R$  000000000102900000000010290000000000987000000000100100000000009930000000000993000000000099605511000000000001319400000000001321395800000000000000009999123100000010000000000000BRMYPKACNOR7156
012024110102NEOE3       010NEOENERGIA  ON      NM   R$  000000000191300000000019130000000001895000000000190800000000019100000000001910000000000191103105000000000002069500000000003948723900000000000000009999123100000010000000000000BRNEOEACNOR3123
012024110102NGRD3       010NEOGRID     ON      NM   R$  000000000235200000000024260000000002351000000000238200000000024130000000002408000000000241300076000000000000010900000000000025966600000000000000009999123100000010000000000000BRNGRDACNOR3106
012024110102NINJ3       010GETNINJAS   ON      NM   R$  000000000044900000000004490000000000436000000000044700000000004400000000000440000000000044300100000000000000115400000000000051614300000000000000009999123100000010000000000000BRNINJACNOR5101
012024110102NORD3       010NORDON MET  ON           R$  000000000083300000000008600000000000789000000000081600000000007890000000000751000000000079000005000000000000000600000000000000489900000000000000009999123100000010000000000000BRNORDACNOR7135
012024110102BBDC3       010BRADESCO    ON      N1   R$  000000000127600000000012770000000001243000000000125100000000012520000000001249000000000125314333000000000010653900000000013332446900000000000000009999123100000010000000000000BRBBDCACNOR1776
012024110102BBDC4       010BRADESCO    PN      N1   R$  000000000144600000000014470000000001405000000000141600000000014110000000001411000000000141265807000000000062202000000000088108729400000000000000009999123100000010000000000000BRBBDCACNPR8776
012024110102BRBI11      010BR PARTNERS UNT     N2   R$  000000000149400000000015150000000001488000000000150000000000014970000000001497000000000150302280000000000000322900000000000484357400000000000000009999123100000010000000000000BRBRBICDAM10110
012024110102BRFS3       010BRF SA      ON      NM   R$  000000000262600000000026380000000002559000000000258500000000025820000000002582000000000258414130000000000004981200000000012879832500000000000000009999123100000010000000000000BRBRFSACNOR8122
012024110102MRFG3       010MARFRIG     ON      NM   R$  000000000156600000000015730000000001519000000000153900000000015370000000001537000000000153818656000000000004988500000000007680354200000000000000009999123100000010000000000000BRMRFGACNOR0116
012024110102CRPG5       010CRISTAL     PNA          R$  000000000250000000000025100000000002475000000000249300000000024750000000002451000000000249800012000000000000001200000000000002992100000000000000009999123100000010000000000000BRCRPGACNPA3119
012024110102CRPG6       010CRISTAL     PNB          R$  000000000255100000000025990000000002551000000000257500000000025990000000002551000000000259900002000000000000000200000000000000515000000000000000009999123100000010000000000000BRCRPGACNPB1119
012024110102CSAN3       010COSAN       ON      NM   R$  000000000119100000000011940000000001148000000000115700000000011500000000001149000000000115015343000000000010321300000000011950799200000000000000009999123100000010000000000000BRCSANACNOR6126
012024110102ELMD3       010ELETROMIDIA ON      NM   R$  000000000181500000000018150000000001767000000000178600000000017900000000001778000000000179000535000000000000166200000000000296930800000000000000009999123100000010000000000000BRELMDACNOR3101
012024110102EMAE4       010EMAE        PN           R$  000000000395000000000039510000000003930000000000393800000000039330000000003932000000000404000006000000000000000600000000000002363000000000000000009999123100000010000000000000BREMAEACNPR1126
012024110102EMBR3       010EMBRAER     ON      NM   R$  000000000487400000000049020000000004794000000000485600000000048470000000004847000000000485316999000000000004230600000000020547736900000000000000009999123100000010000000000000BREMBRACNOR4191
012024110102HBRE3       010HBR REALTY  ON      NM   R$  000000000045400000000004600000000000436000000000044200000000004380000000000437000000000043801502000000000000521600000000000230557500000000000000009999123100000010000000000000BRHBREACNOR4100
012024110102HBSA3       010HIDROVIAS   ON      NM   R$  000000000031400000000003150000000000306000000000031000000000003070000000000307000000000030907426000000000004055200000000001257633200000000000000009999123100000010000000000000BRHBSAACNOR0101
012024110102HBTS5       010HABITASUL   PNA          R$  000000000300000000000030000000000003000000000000300000000000030000000000003000000000000310000001000000000000000100000000000000300000000000000000009999123100000010000000000000BRHBTSACNPA3128
012024110102HETA4       010HERCULES    PN           R$  000000000067100000000006710000000000631000000000064700000000006350000000000619000000000063500008000000000000000800000000000000517800000000000000009999123100000010000000000000BRHETAACNPR9136
012024110102TOTS3       010TOTVS       ON      NM   R$  000000000299500000000031970000000002956000000000307600000000030950000000003091000000000309536116000000000011641100000000035813898500000000000000009999123100000010000000000000BRTOTSACNOR8145
012024110102TPIS3       010TRIUNFO PARTON      NM   R$  000000000067900000000006860000000000658000000000066700000000006680000000000668000000000067100147000000000000034300000000000022885600000000000000009999123100000010000000000000BRTPISACNOR8118
012024110102TRAD3       010TC          ON      NM   R$  000000000055700000000005570000000000514000000000053400000000005140000000000514000000000052600271000000000000070900000000000037908000000000000000009999123100000010000000000000BRTRADACNOR3102
012024110102TRIS3       010TRISUL      ON      NM   R$  000000000053100000000005340000000000520000000000052400000000005200000000000519000000000052301008000000000000310800000000000162862400000000000000009999123100000010000000000000BRTRISACNOR4118
012024110102TRPL3       010TRAN PAULISTON      N1   R$  000000000302700000000031050000000003024000000000303800000000030600000000003019000000000308500013000000000000001600000000000004862000000000000000009999123100000010000000000000BRTRPLACNOR4185
012024110102TRPL4       010TRAN PAULISTPN      N1   R$  000000000243000000000024310000000002403000000000241400000000024100000000002409000000000241210386000000000001823100000000004401935500000000000000009999123100000010000000000000BRTRPLACNPR1185
012024110102BIOM3       010BIOMM       ON      MA   R$  000000000087600000000008830000000000848000000000086500000000008700000000000855000000000087000132000000000000030400000000000026316400000000000000009999123100000010000000000000BRBIOMACNOR2112
012024110102FIQE3       010UNIFIQUE    ON      NM   R$  000000000038800000000003880000000000375000000000037700000000003750000000000375000000000037800940000000000000413500000000000156187500000000000000009999123100000010000000000000BRFIQEACNOR5107
012024110102FLRY3       010FLEURY      ON      NM   R$  000000000147600000000014760000000001417000000000144000000000014240000000001423000000000142511633000000000004638700000000006681237400000000000000009999123100000010000000000000BRFLRYACNOR5139
012024110102INEP3       010INEPAR      ON           R$  000000000015600000000001570000000000152000000000015300000000001520000000000152000000000015300024000000000000010100000000000001547300000000000000009999123100000010000000000000BRINEPACNOR1143
012024110102INEP4       010INEPAR      PN           R$  000000000015400000000001540000000000148000000000015000000000001480000000000148000000000014900026000000000000011300000000000001702400000000000000009999123100000010000000000000BRINEPACNPR8143
012024110102INTB3       010INTELBRAS   ON      NM   R$  000000000192000000000019200000000001857000000000187900000000018570000000001857000000000186204694000000000001113200000000002091822500000000000000009999123100000010000000000000BRINTBACNOR9112
012024110102IRBR3       010IRBBRASIL REON      NM   R$  000000000433400000000043600000000004158000000000423100000000041690000000004169000000000417404357000000000001012500000000004284490200000000000000009999123100000010000000000000BRIRBRACNOR4111
012024110102LUPA3       010LUPATECH    ON      NM   R$  000000000014700000000001470000000000143000000000014300000000001430000000000143000000000014500075000000000000055900000000000008042100000000000000009999123100000010000000000000BRLUPAACNOR8112
012024110102LUXM4       010TREVISA     PN           R$  000000000125000000000012500000000001198000000000124400000000011980000000001100000000000119900010000000000000001800000000000002239500000000000000009999123100000010000000000000BRLUXMACNPR4052
012024110102LVTC3       010WDC NETWORKSON      NM   R$  000000000036500000000003650000000000348000000000035600000000003550000000000355000000000035900045000000000000021500000000000007673500000000000000009999123100000010000000000000BRLVTCACNOR4102
012024110102LWSA3       010LWSA        ON      NM   R$  000000000041600000000004190000000000399000000000040900000000004090000000000408000000000040910522000000000008480500000000003469032000000000000000009999123100000010000000000000BRLWSAACNOR8103
012024110102BRSR3       010BANRISUL    ON      N1   R$  000000000126100000000012610000000001222000000000123400000000012310000000001226000000000123200042000000000000007600000000000009379400000000000000009999123100000010000000000000BRBRSRACNOR3189
012024110102BRSR6       010BANRISUL    PNB     N1   R$  000000000113000000000011300000000001111000000000111600000000011200000000001118000000000112003739000000000000805300000000000899311000000000000000009999123100000010000000000000BRBRSRACNPB4192
012024110102BSLI3       010BRB BANCO   ON           R$  000000000088600000000009190000000000886000000000090200000000009190000000000881000000000092000002000000000000000200000000000000180500000000000000009999123100000010000000000000BRBSLIACNOR5194
012024110102BSLI4       010BRB BANCO   PN           R$  000000000093100000000009310000000000922000000000092900000000009220000000000901000000000094900004000000000000000600000000000000557400000000000000009999123100000010000000000000BRBSLIACNPR2194
012024110102PNVL3       010DIMED       ON      NM   R$  000000000101100000000010130000000000984000000000099100000000009890000000000988000000000099101326000000000000777800000000000771490800000000000000009999123100000010000000000000BRPNVLACNOR9208
012024110102POMO3       010MARCOPOLO   ON      N2   R$  000000000066900000000006690000000000622000000000064200000000006380000000000632000000000063801469000000000000596900000000000383508500000000000000009999123100000010000000000000BRPOMOACNOR0099
012024110102POMO4       010MARCOPOLO   PN      N2   R$  000000000086500000000008740000000000811000000000083400000000008320000000000832000000000083333278000000000022302700000000018607620800000000000000009999123100000010000000000000BRPOMOACNPR7099
012024110102PORT3       010WILSON SONS ON      NM   R$  000000000158500000000015920000000001567000000000158000000000015800000000001575000000000158102528000000000002701000000000004269355400000000000000009999123100000010000000000000BRPORTACNOR8110
012024110102POSI3       010POSITIVO TECON      NM   R$  000000000064200000000006490000000000606000000000062100000000006060000000000606000000000060703405000000000001402100000000000871064300000000000000009999123100000010000000000000BRPOSIACNOR9116
012024110102REDE3       010REDE ENERGIAON           R$  000000000068200000000006830000000000682000000000068200000000006830000000000678000000000068300006000000000000000600000000000000409300000000000000009999123100000010000000000000BRREDEACNOR7128
012024110102RENT3       010LOCALIZA    ON      NM   R$  000000000425300000000042530000000004066000000000411600000000040760000000004071000000000407622479000000000007644300000000031464260500000000000000009999123100000010000000000000BRRENTACNOR4197
012024110102TASA3       010TAURUS ARMASON      N2   R$  000000000098500000000009850000000000961000000000097300000000009740000000000963000000000098000038000000000000008600000000000008373700000000000000009999123100000010000000000000BRTASAACNOR7104
012024110102TASA4       010TAURUS ARMASPN      N2   R$  000000000094000000000009450000000000923000000000093000000000009270000000000926000000000092901307000000000000255600000000000237852000000000000000009999123100000010000000000000BRTASAACNPR4104
012024110102TCSA3       010TECNISA     ON      NM   R$  000000000013500000000001390000000000134000000000013500000000001340000000000134000000000013500149000000000000115800000000000015683600000000000000009999123100000010000000000000BRTCSAACNOR3112
012024110102TECN3       010TECHNOS     ON      NM   R$  000000000055400000000005570000000000521000000000053200000000005250000000000521000000000052500257000000000000087300000000000046491600000000000000009999123100000010000000000000BRTECNACNOR6109
012024110102TELB3       010TELEBRAS    ON           R$  000000000142500000000014250000000001425000000000142500000000014250000000001365000000000139900001000000000000000100000000000000142500000000000000009999123100000010000000000000BRTELBACNOR2140
012024110102TELB4       010TELEBRAS    PN           R$  000000000091000000000009110000000000880000000000090100000000009020000000000885000000000090300015000000000000002600000000000002342700000000000000009999123100000010000000000000BRTELBACNPR9140
012024110102TEND3       010TENDA       ON      NM   R$  000000000149000000000015090000000001460000000000149100000000014870000000001487000000000149110145000000000003009300000000004488494600000000000000009999123100000010000000000000BRTENDACNOR4111
012024110102TFCO4       010TRACK FIELD PN      N2   R$  000000000103200000000010320000000000980000000000099200000000009800000000000980000000000099401303000000000000412500000000000409443200000000000000009999123100000010000000000000BRTFCOACNPR8115
012024110102TGMA3       010TEGMA       ON      NM   R$  000000000295000000000029540000000002910000000000293000000000029360000000002910000000000293601171000000000000159200000000000466514500000000000000009999123100000010000000000000BRTGMAACNOR7145
012024110102TIMS3       010TIM         ON      NM   R$  000000000165000000000016650000000001648000000000165600000000016520000000001652000000000165717054000000000007568700000000012539965300000000000000009999123100000010000000000000BRTIMSACNOR5118
012024110102CAMB3       010CAMBUCI     ON           R$  000000000122000000000012200000000001193000000000120200000000011930000000001190000000000119300148000000000000040400000000000048593900000000000000009999123100000010000000000000BRCAMBACNOR4131
012024110102CAML3       010CAMIL       ON      NM   R$  000000000079300000000007970000000000774000000000078100000000007790000000000776000000000077902311000000000000662200000000000517682500000000000000009999123100000010000000000000BRCAMLACNOR3129
012024110102CASH3       010MELIUZ      ON      NM   R$  000000000034300000000003470000000000338000000000034100000000003400000000000339000000000034000915000000000000434100000000000148112700000000000000009999123100000010000000000000BRCASHACNOR8107
012024110102CBAV3       010CBA         ON      NM   R$  000000000059000000000005900000000000570000000000057500000000005710000000000570000000000057106895000000000002644800000000001521319600000000000000009999123100000010000000000000BRCBAVACNOR5104
012024110102CCRO3       010CCR SA      ON      NM   R$  000000000122100000000012210000000001172000000000118500000000011850000000001185000000000118819833000000000015257200000000018091150500000000000000009999123100000010000000000000BRCCROACNOR2145
012024110102ESPA3       010ESPACOLASER ON      NM   R$  000000000009500000000000970000000000095000000000009500000000000950000000000095000000000009600131000000000000126500000000000012036100000000000000009999123100000010000000000000BRESPAACNOR7103
012024110102WHRL3       010WHIRLPOOL   ON           R$  000000000041800000000004190000000000414000000000041700000000004180000000000415000000000041800008000000000000001200000000000000501400000000000000009999123100000010000000000000BRWHRLACNOR5129
012024110102WHRL4       010WHIRLPOOL   PN           R$  000000000044500000000004470000000000441000000000044400000000004450000000000441000000000044600010000000000000001000000000000000444700000000000000009999123100000010000000000000BRWHRLACNPR2129
012024110102WIZC3       010WIZ CO      ON      NM   R$  000000000057600000000005780000000000570000000000057400000000005700000000000570000000000057301560000000000000487200000000000279960700000000000000009999123100000010000000000000BRWIZCACNOR5102
012024110102WLMM4       010WLM IND COM PN           R$  000000000301300000000030500000000003013000000000302900000000030500000000003002000000000305000006000000000000001100000000000003332800000000000000009999123100000010000000000000BRWLMMACNPR3119
012024110102ESTR4       010ESTRELA     PN           R$  000000000039900000000003990000000000341000000000036300000000003600000000000356000000000038700011000000000000001800000000000000654600000000000000009999123100000010000000000000BRESTRACNPR0144
012024110102ETER3       010ETERNIT     ON      NM   R$  000000000052700000000005320000000000518000000000052100000000005210000000000519000000000052100506000000000000192700000000000100421000000000000000009999123100000010000000000000BRETERACNOR3244
012024110102EUCA4       010EUCATEX     PN      N1   R$  000000000143300000000014440000000001412000000000141800000000014210000000001413000000000142500261000000000000040900000000000058035300000000000000009999123100000010000000000000BREUCAACNPR8044
012024110102EVEN3       010EVEN        ON      NM   R$  000000000060600000000006080000000000586000000000059700000000005900000000000587000000000059005131000000000000890400000000000532309500000000000000009999123100000010000000000000BREVENACNOR8120
012024110102EZTC3       010EZTEC       ON      NM   R$  000000000149200000000015530000000001487000000000151700000000014880000000001488000000000149024955000000000010942300000000016602032200000000000000009999123100000010000000000000BREZTCACNOR0126
012024110102IFCM3       010INFRACOMM   ON      NM   R$  000000000001400000000000140000000000013000000000001300000000000140000000000013000000000001400391000000000001135800000000000015452700000000000000009999123100000010000000000000BRIFCMACNOR8101
012024110102IGTI11      010IGUATEMI S.AUNT     N1   R$  000000000212000000000021200000000002040000000000206600000000020400000000002040000000000204510857000000000002637300000000005449442100000000000000009999123100000010000000000000BRIGTICDAM16106
012024110102IGTI3       010IGUATEMI S.AON      N1   R$  000000000025400000000002560000000000247000000000025100000000002480000000000247000000000024800080000000000000060100000000000015117600000000000000009999123100000010000000000000BRIGTIACNOR8106
012024110102IGTI4       010IGUATEMI S.APN      N1   R$  000000000091500000000009150000000000915000000000091500000000009150000000000851000000000105000001000000000000000100000000000000091500000000000000009999123100000010000000000000BRIGTIACNPR5106
012024110102VALE3       010VALE        ON      NM   R$  000000000621400000000062440000000006179000000000620700000000062030000000006202000000000620432329000000000015236400000000094579926300000000000000009999123100000010000000000000BRVALEACNOR0211
012024110102OFSA3       010OUROFINO S/AON      NM   R$  000000000216000000000021700000000002120000000000214400000000021440000000002050000000000214500009000000000000002300000000000004932300000000000000009999123100000010000000000000BROFSAACNOR7118
012024110102ONCO3       010ONCOCLINICASON      NM   R$  000000000046400000000004640000000000437000000000044500000000004440000000000440000000000044403011000000000002732900000000001218165000000000000000009999123100000010000000000000BRONCOACNOR6101
012024110102OPCT3       010OCEANPACT   ON      NM   R$  000000000062800000000006280000000000590000000000060400000000005980000000000590000000000059803614000000000000862900000000000521288900000000000000009999123100000010000000000000BROPCTACNOR0100
012024110102ORVR3       010ORIZON      ON      NM   R$  000000000470300000000048140000000004566000000000464800000000045750000000004575000000000458903682000000000000726200000000003375685200000000000000009999123100000010000000000000BRORVRACNOR0101
012024110102BRAP3       010BRADESPAR   ON      N1   R$  000000000183900000000018390000000001791000000000180800000000018100000000001801000000000181200688000000000000183100000000000331107900000000000000009999123100000010000000000000BRBRAPACNOR5148
012024110102BRAP4       010BRADESPAR   PN      N1   R$  000000000198400000000019990000000001973000000000198400000000019770000000001977000000000197823447000000000013723300000000027237510000000000000000009999123100000010000000000000BRBRAPACNPR2148
012024110102EKTR4       010ELEKTRO     PN  ED       R$  000000000429000000000043500000000004290000000000430400000000043000000000004300000000000440000007000000000000000900000000000003874000000000000000009999123100000010000000000000BREKTRACNPR7166
012024110102ELET3       010ELETROBRAS  ON      N1   R$  000000000379900000000038000000000003647000000000368500000000036720000000003672000000000367326014000000000011466800000000042261510000000000000000009999123100000010000000000000BRELETACNOR6160
012024110102ELET6       010ELETROBRAS  PNB     N1   R$  000000000421100000000042200000000004100000000000413100000000041170000000004117000000000412108684000000000002360600000000009752022400000000000000009999123100000010000000000000BRELETACNPB7077
012024110102BLAU3       010BLAU        ON      NM   R$  000000000150000000000015180000000001460000000000148700000000014750000000001475000000000147801908000000000000252400000000000375352200000000000000009999123100000010000000000000BRBLAUACNOR8115
012024110102BPAN4       010BANCO PAN   PN      N1   R$  000000000085200000000008530000000000799000000000081400000000008010000000000801000000000080204337000000000002061700000000001680168600000000000000009999123100000010000000000000BRBPANACNPR1115
012024110102PCAR3       010P.ACUCAR-CBDON      NM   R$  000000000030200000000003030000000000288000000000029300000000002930000000000292000000000029309898000000000010572400000000003101186200000000000000009999123100000010000000000000BRPCARACNOR3167
012024110102PFRM3       010PROFARMA    ON      NM   R$  000000000069900000000007150000000000682000000000069500000000006950000000000688000000000069501260000000000000421600000000000293016400000000000000009999123100000010000000000000BRPFRMACNOR1116
012024110102PGMN3       010PAGUE MENOS ON      NM   R$  000000000028700000000002900000000000282000000000028400000000002830000000000283000000000028401038000000000000625400000000000178036100000000000000009999123100000010000000000000BRPGMNACNOR8103
012024110102BGIP4       010BANESE      PN           R$  000000000234100000000023410000000002341000000000234100000000023410000000002335000000000240000001000000000000000100000000000000234100000000000000009999123100000010000000000000BRBGIPACNPR8210
012024110102BHIA3       010CASAS BAHIA ON      NM   R$  000000000041400000000004150000000000403000000000040800000000004110000000000410000000000041102164000000000001913300000000000781554600000000000000009999123100000010000000000000BRBHIAACNOR1102
012024110102BPAC11      010BTGP BANCO  UNT     N2   R$  000000000325800000000032580000000003163000000000318100000000031690000000003168000000000317020332000000000007950200000000025294179100000000000000009999123100000010000000000000BRBPACUNT006119
012024110102BPAC3       010BTGP BANCO  ON      N2   R$  000000000151000000000015100000000001482000000000149100000000014840000000001484000000000149700025000000000000002500000000000003728500000000000000009999123100000010000000000000BRBPACACNOR7134
012024110102HAGA3       010HAGA S/A    ON           R$  000000000025400000000002580000000000250000000000025100000000002500000000000250000000000025400028000000000000006600000000000001658100000000000000009999123100000010000000000000BRHAGAACNOR7103
012024110102HAGA4       010HAGA S/A    PN           R$  000000000013000000000001310000000000127000000000012900000000001300000000000129000000000013000018000000000000003000000000000000387600000000000000009999123100000010000000000000BRHAGAACNPR4103
012024110102HAPV3       010HAPVIDA     ON      NM   R$  000000000035200000000003540000000000332000000000033900000000003330000000000333000000000033441728000000000104287100000000035414911800000000000000009999123100000010000000000000BRHAPVACNOR4115
012024110102BAHI3       010BAHEMA      ON      MA   R$  000000000047700000000004800000000000466000000000047500000000004800000000000465000000000048000005000000000000004100000000000001950500000000000000009999123100000010000000000000BRBAHIACNOR1074
012024110102BALM3       010BAUMER      ON           R$  000000000134000000000013400000000001340000000000134000000000013400000000001340000000000154000003000000000000000400000000000000536000000000000000009999123100000010000000000000BRBALMACNOR5055
012024110102BAZA3       010AMAZONIA    ON           R$  000000000913000000000091310000000009057000000000910000000000091000000000009100000000000949900008000000000000001000000000000009100700000000000000009999123100000010000000000000BRBAZAACNOR0179
012024110102BBAS3       010BRASIL      ON      NM   R$  000000000263500000000026400000000002601000000000261300000000026090000000002607000000000260937772000000000015216400000000039767798600000000000000009999123100000010000000000000BRBBASACNOR3326
012024110102BEES3       010BANESTES    ON           R$  000000000087100000000008750000000000866000000000087000000000008680000000000868000000000087000091000000000000015800000000000013752200000000000000009999123100000010000000000000BRBEESACNOR9396
012024110102BEES4       010BANESTES    PN           R$  000000000088400000000009030000000000884000000000089200000000008950000000000890000000000089500023000000000000007900000000000007050400000000000000009999123100000010000000000000BRBEESACNPR6321
012024110102GRND3       010GRENDENE    ON      NM   R$  000000000054000000000005460000000000520000000000052400000000005200000000000519000000000052303851000000000001201100000000000630021700000000000000009999123100000010000000000000BRGRNDACNOR3175
012024110102GUAR3       010GUARARAPES  ON      NM   R$  000000000084900000000008520000000000824000000000083300000000008370000000000832000000000083702507000000000000902600000000000752698900000000000000009999123100000010000000000000BRGUARACNOR4173
012024110102BPAC5       010BTGP BANCO  PNA     N2   R$  000000000085900000000008590000000000839000000000084600000000008490000000000838000000000085000026000000000000003300000000000002794800000000000000009999123100000010000000000000BRBPACACNPA0134
012024110102CPFE3       010CPFL ENERGIAON      NM   R$  000000000327500000000032880000000003242000000000326100000000032420000000003242000000000325205922000000000001040300000000003393099700000000000000009999123100000010000000000000BRCPFEACNOR0137
012024110102CPLE3       010COPEL       ON      N2   R$  000000000087100000000008710000000000842000000000085100000000008520000000000852000000000085307032000000000009383500000000007987012800000000000000009999123100000010000000000000BRCPLEACNOR8150
012024110102DMVF3       010D1000VFARMA ON      NM   R$  000000000071500000000007850000000000715000000000075500000000007620000000000762000000000076301389000000000000267500000000000202156200000000000000009999123100000010000000000000BRDMVFACNOR9100
012024110102DOHL4       010DOHLER      PN           R$  000000000039800000000004070000000000398000000000040000000000004050000000000398000000000040400010000000000000002000000000000000800600000000000000009999123100000010000000000000BRDOHLACNPR9066
012024110102DOTZ3       010DOTZ SA     ON      NM   R$  000000000052500000000005250000000000490000000000050200000000004950000000000490000000000051600069000000000000017100000000000008587600000000000000009999123100000010000000000000BRDOTZACNOR7101
012024110102SRNA3       010SERENA      ON      NM   R$  000000000081800000000008180000000000753000000000078100000000007690000000000768000000000077008749000000000006835000000000005343174100000000000000009999123100000010000000000000BRSRNAACNOR4100
012024110102STBP3       010SANTOS BRP  ON  EDJ NM   R$  000000000126200000000012750000000001260000000000126800000000012680000000001266000000000126809965000000000010373900000000013159113400000000000000009999123100000010000000000000BRSTBPACNOR3133
012024110102SUZB3       010SUZANO S.A. ON      NM   R$  000000000598000000000060190000000005945000000000599000000000059990000000005999000000000600124916000000000005955100000000035675398400000000000000009999123100000010000000000000BRSUZBACNOR0130
012024110102VIVR3       010VIVER       ON      NM   R$  000000000015400000000001540000000000144000000000014900000000001440000000000144000000000014500136000000000000246700000000000036811800000000000000009999123100000010000000000000BRVIVRACNOR4123
012024110102VIVT3       010TELEF BRASILON           R$  000000000526300000000053230000000005239000000000527900000000052390000000005238000000000524112323000000000002056500000000010856662900000000000000009999123100000010000000000000BRVIVTACNOR0184
012024110102VLID3       010VALID       ON      NM   R$  000000000240000000000024060000000002332000000000236700000000023320000000002332000000000233503229000000000000586500000000001388490900000000000000009999123100000010000000000000BRVLIDACNOR5144
012024110102VSTE3       010VESTE       ON      NM   R$  000000000099900000000010780000000000990000000000103100000000010080000000001008000000000101100145000000000000022800000000000023523400000000000000009999123100000010000000000000BRVSTEACNOR5103
012024110102VTRU3       010VITRUEDUCA  ON      NM   R$  000000000088600000000008870000000000835000000000086300000000008800000000000876000000000088000975000000000000261300000000000225754500000000000000009999123100000010000000000000BRVTRUACNOR3100
012024110102VULC3       010VULCABRAS   ON      NM   R$  000000000165200000000016520000000001628000000000164000000000016340000000001633000000000163702511000000000000702800000000001153070500000000000000009999123100000010000000000000BRVULCACNOR2163
012024110102VVEO3       010VIVEO       ON      NM   R$  000000000020500000000002220000000000196000000000020700000000002070000000000207000000000021006434000000000006014000000000001247106000000000000000009999123100000010000000000000BRVVEOACNOR0104
012024110102MRVE3       010MRV         ON      NM   R$  000000000070200000000007020000000000673000000000068100000000006750000000000674000000000067517290000000000011092500000000007561126200000000000000009999123100000010000000000000BRMRVEACNOR2127
012024110102MTRE3       010MITRE REALTYON  ED  NM   R$  000000000036900000000003690000000000354000000000036000000000003640000000000357000000000036400817000000000000684000000000000246307600000000000000009999123100000010000000000000BRMTREACNOR6116
012024110102MTSA4       010METISA      PN           R$  000000000350900000000036000000000003470000000000352700000000036000000000003452000000000365800023000000000000002700000000000009525000000000000000009999123100000010000000000000BRMTSAACNPR9073
012024110102MULT3       010MULTIPLAN   ON      N2   R$  000000000256000000000025680000000002495000000000251700000000025040000000002501000000000250414258000000000002677400000000006741029800000000000000009999123100000010000000000000BRMULTACNOR5139
012024110102RADL3       010RAIADROGASILON      NM   R$  000000000244500000000024570000000002422000000000244000000000024300000000002428000000000243213546000000000005087500000000012415600100000000000000009999123100000010000000000000BRRADLACNOR0158
012024110102RAIL3       010RUMO S.A.   ON      NM   R$  000000000199500000000019960000000001933000000000195100000000019450000000001943000000000194631589000000000016370200000000031942508200000000000000009999123100000010000000000000BRRAILACNOR9105
012024110102SMFT3       010SMART FIT   ON      NM   R$  000000000220200000000022040000000002101000000000212100000000021060000000002104000000000211505579000000000001484000000000003149011600000000000000009999123100000010000000000000BRSMFTACNOR1112
012024110102SMTO3       010SAO MARTINHOON      NM   R$  000000000262300000000027250000000002565000000000263100000000026640000000002658000000000266414998000000000003667000000000009648539200000000000000009999123100000010000000000000BRSMTOACNOR3127
012024110102VAMO3       010VAMOS       ON      NM   R$  000000000062900000000006300000000000572000000000059200000000005770000000000576000000000057710173000000000007357000000000004355829600000000000000009999123100000010000000000000BRVAMOACNOR7105
012024110102VBBR3       010VIBRA       ON      NM   R$  000000000225400000000022540000000002198000000000221400000000022120000000002210000000000221219785000000000006808600000000015079741500000000000000009999123100000010000000000000BRVBBRACNOR1109
012024110102VITT3       010VITTIA      ON  EJ  NM   R$  000000000055100000000005510000000000535000000000054200000000005490000000000545000000000054901000000000000000217700000000000118145800000000000000009999123100000010000000000000BRVITTACNOR4108
012024110102VIVA3       010VIVARA S.A. ON      NM   R$  000000000258000000000025800000000002467000000000250400000000024740000000002474000000000247511513000000000002956800000000007404684700000000000000009999123100000010000000000000BRVIVAACNOR0107
012024110102MATD3       010MATER DEI   ON      NM   R$  000000000042500000000004250000000000406000000000041200000000004070000000000407000000000041000538000000000000263900000000000108831000000000000000009999123100000010000000000000BRMATDACNOR4104
012024110102MBLY3       010MOBLY       ON  ES  NM   R$  000000000021400000000002140000000000209000000000021100000000002090000000000209000000000021200084000000000000168300000000000035576200000000000000009999123100000010000000000000BRMBLYACNOR5101
012024110102MDIA3       010M.DIASBRANCOON      NM   R$  000000000251900000000025690000000002501000000000253100000000025500000000002550000000000255202992000000000001188700000000003008771200000000000000009999123100000010000000000000BRMDIAACNOR7136
012024110102MDNE3       010MOURA DUBEUXON      NM   R$  000000000161900000000016190000000001533000000000155300000000015330000000001533000000000154704906000000000001128600000000001753523500000000000000009999123100000010000000000000BRMDNEACNOR9100
012024110102MEAL3       010IMC S/A     ON      NM   R$  000000000013100000000001320000000000126000000000012800000000001270000000000127000000000012800322000000000000447300000000000057571500000000000000009999123100000010000000000000BRMEALACNOR9105
012024110102MELK3       010MELNICK     ON      NM   R$  000000000036000000000003600000000000351000000000035300000000003510000000000351000000000035300533000000000000638100000000000225711600000000000000009999123100000010000000000000BRMELKACNOR8111
012024110102MGEL4       010MANGELS INDLPN           R$  000000000079900000000007990000000000799000000000079900000000007990000000000779000000000079600002000000000000000200000000000000159800000000000000009999123100000010000000000000BRMGELACNPR3147
012024110102MGLU3       010MAGAZ LUIZA ON      NM   R$  000000000095900000000009590000000000878000000000090400000000008860000000000886000000000088722422000000000028708900000000025975814600000000000000009999123100000010000000000000BRMGLUACNOR2125
012024110102AZZA3       010AZZAS 2154  ON      NM   R$  000000000412300000000041300000000003995000000000405100000000040000000000004000000000000402007013000000000001688200000000006839612600000000000000009999123100000010000000000000BRAZZAACNOR9100
012024110102B3SA3       010B3          ON      NM   R$  000000000106500000000010650000000001033000000000104200000000010420000000001041000000000104227750000000000033123200000000034533066600000000000000009999123100000010000000000000BRB3SAACNOR6134
012024110102CEAB3       010CEA MODAS   ON      NM   R$  000000000132000000000013200000000001269000000000128300000000012720000000001272000000000127506175000000000002002500000000002570188400000000000000009999123100000010000000000000BRCEABACNOR1102
012024110102CEBR3       010CEB         ON           R$  000000000184200000000019050000000001823000000000184300000000018270000000001820000000000189000024000000000000005300000000000009771100000000000000009999123100000010000000000000BRCEBRACNOR5125
012024110102CEBR5       010CEB         PNA          R$  000000000161700000000016310000000001617000000000161900000000016310000000001604000000000165000004000000000000000500000000000000809900000000000000009999123100000010000000000000BRCEBRACNPA8124
012024110102CEBR6       010CEB         PNB          R$  000000000177100000000017990000000001759000000000176400000000017610000000001761000000000178500028000000000000005500000000000009705000000000000000009999123100000010000000000000BRCEBRACNPB6124
012024110102CEDO4       010CEDRO       PN      N1   R$  000000000239900000000023990000000002351000000000238500000000023510000000002305000000000244600006000000000000000900000000000002146700000000000000009999123100000010000000000000BRCEDOACNPR5128
012024110102CGRA3       010GRAZZIOTIN  ON           R$  000000000250300000000025100000000002499000000000250100000000025000000000002500000000000252000007000000000000002700000000000006753300000000000000009999123100000010000000000000BRCGRAACNOR2083
012024110102CGRA4       010GRAZZIOTIN  PN           R$  000000000249900000000025020000000002483000000000248800000000024840000000002484000000000250500012000000000000001300000000000003234400000000000000009999123100000010000000000000BRCGRAACNPR9083
012024110102CLSA3       010CLEARSALE   ON      NM   R$  000000000095100000000009570000000000949000000000095300000000009550000000000954000000000095502157000000000000856900000000000816641900000000000000009999123100000010000000000000BRCLSAACNOR0100
012024110102CLSC3       010CELESC      ON      N2   R$  000000000763000000000076300000000007630000000000763000000000076300000000007410000000000763000001000000000000000100000000000000763000000000000000009999123100000010000000000000BRCLSCACNOR6153
012024110102CLSC4       010CELESC      PN      N2   R$  000000000792500000000079250000000007788000000000782100000000079080000000007792000000000790900028000000000000002800000000000021900400000000000000009999123100000010000000000000BRCLSCACNPR3132
012024110102CMIG3       010CEMIG       ON      N1   R$  000000000145100000000014730000000001451000000000146200000000014730000000001464000000000147300688000000000000142100000000000207821600000000000000009999123100000010000000000000BRCMIGACNOR6244
012024110102CMIG4       010CEMIG       PN      N1   R$  000000000113700000000011490000000001136000000000114100000000011360000000001136000000000113721212000000000011858700000000013542507900000000000000009999123100000010000000000000BRCMIGACNPR3245
012024110102CURY3       010CURY S/A    ON      NM   R$  000000000245200000000024570000000002396000000000241200000000023960000000002396000000000240707534000000000001900800000000004586103600000000000000009999123100000010000000000000BRCURYACNOR3110
012024110102CVCB3       010CVC BRASIL  ON      NM   R$  000000000020500000000002060000000000193000000000019800000000001940000000000194000000000019507420000000000021186300000000004201598400000000000000009999123100000010000000000000BRCVCBACNOR1116
012024110102CXSE3       010CAIXA SEGURION      NM   R$  000000000145000000000014770000000001440000000000145800000000014540000000001453000000000145615594000000000007857900000000011463990400000000000000009999123100000010000000000000BRCXSEACNOR7107
012024110102CYRE3       010CYRELA REALTON      NM   R$  000000000219600000000021960000000002123000000000213900000000021300000000002128000000000213015446000000000008022200000000017163282500000000000000009999123100000010000000000000BRCYREACNOR7140
012024110102FESA3       010FERBASA     ON      N1   R$  000000000120200000000012180000000001201000000000120400000000012010000000001151000000000120100006000000000000000600000000000000722600000000000000009999123100000010000000000000BRFESAACNOR8189
012024110102FESA4       010FERBASA     PN      N1   R$  000000000075700000000007580000000000732000000000073800000000007350000000000735000000000073602831000000000000667200000000000492695800000000000000009999123100000010000000000000BRFESAACNPR5085
012024110102FHER3       010FER HERINGERON      NM   R$  000000000036100000000003850000000000360000000000037900000000003790000000000375000000000037900086000000000000009400000000000003563900000000000000009999123100000010000000000000BRFHERACNOR5103
012024110102FIEI3       010FICA        ON           R$  000000000115000000000011500000000001150000000000115000000000011500000000001060000000000115000001000000000000000100000000000000115000000000000000009999123100000010000000000000BRFIEIACNOR2100
012024110102HYPE3       010HYPERA      ON      NM   R$  000000000223000000000023150000000002228000000000228600000000022720000000002271000000000227525612000000000009578000000000021897931300000000000000009999123100000010000000000000BRHYPEACNOR0144
012024110102JALL3       010JALLESMACHADON      NM   R$  000000000060700000000006110000000000592000000000059900000000005960000000000595000000000059904239000000000001353700000000000811312300000000000000009999123100000010000000000000BRJALLACNOR0106
012024110102JBSS3       010JBS         ON      NM   R$  000000000361100000000036230000000003543000000000357600000000035500000000003549000000000356623683000000000006022400000000021537088600000000000000009999123100000010000000000000BRJBSSACNOR8122
012024110102MILS3       010MILLS       ON      NM   R$  000000000105200000000010580000000001014000000000102700000000010200000000001018000000000102102664000000000000762400000000000783693500000000000000009999123100000010000000000000BRMILSACNOR2128
012024110102MLAS3       010MULTILASER  ON      NM   R$  000000000016300000000001630000000000157000000000015900000000001590000000000158000000000015902913000000000001141500000000000181514200000000000000009999123100000010000000000000BRMLASACNOR9101
012024110102MNDL3       010MUNDIAL     ON           R$  000000000172000000000017200000000001580000000000170400000000015800000000001550000000000161000005000000000000000900000000000001534000000000000000009999123100000010000000000000BRMNDLACNOR4109
012024110102MNPR3       010MINUPAR     ON           R$  000000000202900000000020290000000001940000000000196300000000019740000000001974000000000197500012000000000000001200000000000002356300000000000000009999123100000010000000000000BRMNPRACNOR5122
012024110102MOVI3       010MOVIDA      ON  ATZ NM   R$  000000000060100000000006030000000000567000000000057300000000005670000000000567000000000056908182000000000005800300000000003329118500000000000000009999123100000010000000000000BRMOVIACNOR0123
012024110102SBFG3       010GRUPO SBF   ON      NM   R$  000000000144700000000014470000000001346000000000138400000000013640000000001361000000000136407541000000000003301100000000004570062600000000000000009999123100000010000000000000BRSBFGACNOR1103
012024110102SBSP3       010SABESP      ON      NM   R$  000000000920900000000092420000000008939000000000904800000000089390000000008939000000000896513593000000000003048400000000027583267100000000000000009999123100000010000000000000BRSBSPACNOR5161
012024110102SCAR3       010SAO CARLOS  ON      NM   R$  000000000218100000000022020000000002141000000000218200000000022020000000002140000000000225000040000000000000005300000000000011568400000000000000009999123100000010000000000000BRSCARACNOR7131
012024110102SANB11      010SANTANDER BRUNT          R$  000000000273500000000027360000000002661000000000268100000000026800000000002679000000000268118423000000000004264000000000011432005500000000000000009999123100000010000000000000BRSANBCDAM13166
012024110102SANB3       010SANTANDER BRON           R$  000000000130000000000013050000000001262000000000127600000000012800000000001275000000000128001600000000000000261200000000000333320000000000000000009999123100000010000000000000BRSANBACNOR8173
012024110102SANB4       010SANTANDER BRPN           R$  000000000143000000000014300000000001402000000000141100000000014120000000001408000000000141501259000000000000252400000000000356224400000000000000009999123100000010000000000000BRSANBACNPR5173
012024110102TAEE11      010TAESA       UNT     N2   R$  000000000350000000000035060000000003462000000000347900000000034620000000003461000000000347307012000000000001453700000000005058299500000000000000009999123100000010000000000000BRTAEECDAM10148
012024110102TAEE3       010TAESA       ON      N2   R$  000000000115900000000011650000000001148000000000115300000000011480000000001147000000000114900374000000000000074300000000000085680100000000000000009999123100000010000000000000BRTAEEACNOR9148
012024110102TAEE4       010TAESA       PN      N2   R$  000000000116600000000011710000000001152000000000116000000000011520000000001151000000000115300477000000000000101100000000000117343200000000000000009999123100000010000000000000BRTAEEACNPR6148
012024110102WEST3       010WESTWING    ON      NM   R$  000000000007900000000000790000000000077000000000007700000000000780000000000077000000000007900019000000000000014000000000000001091700000000000000009999123100000010000000000000BRWESTACNOR3100
012024110102RAIZ4       010RAIZEN      PN      N2   R$  000000000028100000000002870000000000280000000000028300000000002850000000000285000000000028619621000000000028994500000000008225661600000000000000009999123100000010000000000000BRRAIZACNPR6111
012024110102RANI3       010IRANI       ON      NM   R$  000000000075000000000007610000000000722000000000073100000000007250000000000725000000000072905169000000000001680600000000001229058300000000000000009999123100000010000000000000BRRANIACNOR5073
012024110102SAPR11      010SANEPAR     UNT     N2   R$  000000000270100000000027090000000002619000000000264900000000026190000000002619000000000262007773000000000001645400000000004360192500000000000000009999123100000010000000000000BRSAPRCDAM13118
012024110102SAPR3       010SANEPAR     ON      N2   R$  000000000051500000000005170000000000501000000000050700000000005010000000000501000000000050500838000000000000228900000000000116206600000000000000009999123100000010000000000000BRSAPRACNOR9159
012024110102SAPR4       010SANEPAR     PN      N2   R$  000000000055200000000005540000000000531000000000053800000000005310000000000531000000000053203246000000000001835900000000000988990000000000000000009999123100000010000000000000BRSAPRACNPR6159
012024110102TTEN3       0103TENTOS     ON      NM   R$  000000000113500000000011370000000001123000000000113100000000011350000000001135000000000113802856000000000000484100000000000547812900000000000000009999123100000010000000000000BRTTENACNOR0103
012024110102TUPY3       010TUPY        ON      NM   R$  000000000233000000000023400000000002303000000000232200000000023110000000002310000000000231304114000000000000898000000000002085422900000000000000009999123100000010000000000000BRTUPYACNOR1184
012024110102SNSY3       010SANSUY      ON           R$  000000000106000000000010790000000001035000000000104700000000010790000000001025000000000106300017000000000000002100000000000002199500000000000000009999123100000010000000000000BRSNSYACNOR2113
012024110102SNSY5       010SANSUY      PNA          R$  000000000050000000000005070000000000500000000000050600000000005070000000000471000000000050700003000000000000001200000000000000607700000000000000009999123100000010000000000000BRSNSYACNPA5111
012024110102SOJA3       010BOA SAFRA   ON      NM   R$  000000000124600000000012490000000001220000000000122700000000012210000000001220000000000122102390000000000000351000000000000430898500000000000000009999123100000010000000000000BRSOJAACNOR9106
012024110102UCAS3       010UNICASA     ON      NM   R$  000000000021600000000002180000000000213000000000021500000000002130000000000213000000000021600072000000000000010300000000000002222400000000000000009999123100000010000000000000BRUCASACNOR1113
012024110102UGPA3       010ULTRAPAR    ON      NM   R$  000000000208900000000020940000000002036000000000205000000000020500000000002050000000000205216309000000000003412000000000006995258200000000000000009999123100000010000000000000BRUGPAACNOR8156
012024110102UNIP3       010UNIPAR      ON           R$  000000000444200000000044740000000004367000000000441800000000044150000000004380000000000441200053000000000000007900000000000034908600000000000000009999123100000010000000000000BRUNIPACNOR7206
012024110102UNIP6       010UNIPAR      PNB          R$  000000000448000000000044830000000004363000000000440000000000044140000000004401000000000441401400000000000000204800000000000901127400000000000000009999123100000010000000000000BRUNIPACNPB8206
012024110102USIM3       010USIMINAS    ON      N1   R$  000000000063500000000006350000000000608000000000061400000000006080000000000608000000000060900959000000000000210800000000000129608800000000000000009999123100000010000000000000BRUSIMACNOR3167
012024110102USIM5       010USIMINAS    PNA     N1   R$  000000000065800000000006590000000000625000000000063600000000006320000000000632000000000063319131000000000013517100000000008607725300000000000000009999123100000010000000000000BRUSIMACNPA6169
012024110102PDGR3       010PDG REALT   ON      NM   R$  000000000000100000000000020000000000001000000000000100000000000010000000000001000000000000200693000000000172997900000000000175417600000000000000009999123100000010000000000000BRPDGRACNOR8119
012024110102PDTC3       010PADTEC      ON      NM   R$  000000000019000000000001900000000000177000000000018000000000001780000000000178000000000018000137000000000000136600000000000024633400000000000000009999123100000010000000000000BRPDTCACNOR3101
012024110102PETR3       010PETROBRAS   ON      N2   R$  000000000392400000000039310000000003825000000000385900000000038300000000003828000000000383122956000000000008818300000000034031350000000000000000009999123100000010000000000000BRPETRACNOR9206
012024110102PETR4       010PETROBRAS   PN      N2   R$  000000000362000000000036370000000003530000000000356200000000035420000000003542000000000354359184000000000030605300000000109043434600000000000000009999123100000010000000000000BRPETRACNPR6214
012024110102PRIO3       010PETRORIO    ON      NM   R$  000000000413600000000041460000000003965000000000401200000000039850000000003985000000000398628565000000000011400100000000045745040400000000000000009999123100000010000000000000BRPRIOACNOR1107
012024110102ROMI3       010ROMI        ON      NM   R$  000000000101000000000010120000000001000000000000100400000000010000000000000999000000000100000730000000000000129000000000000129609300000000000000009999123100000010000000000000BRROMIACNOR8196
012024110102RSUL4       010RIOSULENSE  PN           R$  000000000615900000000061600000000006060000000000612500000000060990000000005884000000000610000013000000000000001300000000000007962500000000000000009999123100000010000000000000BRRSULACNPR3114
012024110102ALLD3       010ALLIED      ON      NM   R$  000000000076700000000007670000000000747000000000075600000000007470000000000747000000000075200157000000000000040300000000000030470400000000000000009999123100000010000000000000BRALLDACNOR3106
012024110102ALOS3       010ALLOS       ON      NM   R$  000000000222700000000022270000000002155000000000217200000000021560000000002155000000000216417375000000000006163500000000013389419200000000000000009999123100000010000000000000BRALOSACNOR5103
012024110102BMEB3       010MERCANTIL   ON      N1   R$  000000000370000000000037000000000003700000000000370000000000037000000000003505000000000370000001000000000000000100000000000000370000000000000000009999123100000010000000000000BRBMEBACNOR8206
012024110102BMEB4       010MERCANTIL   PN      N1   R$  000000000424900000000043870000000004181000000000429800000000043870000000004333000000000439900135000000000000015600000000000067060500000000000000009999123100000010000000000000BRBMEBACNPR5211
012024110102BMGB4       010BANCO BMG   PN      N1   R$  000000000040400000000004060000000000397000000000040000000000003980000000000397000000000039900792000000000000670400000000000268560100000000000000009999123100000010000000000000BRBMGBACNPR0111
012024110102AERI3       010AERIS       ON      NM   R$  000000000061900000000006240000000000605000000000061200000000006090000000000608000000000061000632000000000000204200000000000125170800000000000000009999123100000010000000000000BRAERIACNOR4102
012024110102AFLT3       010AFLUENTE T  ON           R$  000000000070000000000007000000000000681000000000069200000000006810000000000681000000000070100005000000000000000700000000000000484400000000000000009999123100000010000000000000BRAFLTACNOR1122
012024110102AGRO3       010BRASILAGRO  ON  ED  NM   R$  000000000235500000000023690000000002334000000000235400000000023500000000002350000000000235601723000000000000319200000000000751703900000000000000009999123100000010000000000000BRAGROACNOR7115
012024110102DXCO3       010DEXCO       ON      NM   R$  000000000083300000000008330000000000804000000000081200000000008060000000000806000000000080907826000000000004773900000000003878091700000000000000009999123100000010000000000000BRDXCOACNOR8105
012024110102EALT3       010ACO ALTONA  ON           R$  000000000145900000000015000000000001435000000000144500000000015000000000001435000000000152500008000000000000001400000000000002023600000000000000009999123100000010000000000000BREALTACNOR4138
012024110102EALT4       010ACO ALTONA  PN           R$  000000000130200000000013240000000001296000000000130700000000013230000000001296000000000132300041000000000000011300000000000014772700000000000000009999123100000010000000000000BREALTACNPR1138
012024110102ECOR3       010ECORODOVIAS ON      NM   R$  000000000071400000000007140000000000671000000000068300000000006710000000000671000000000067306330000000000003529100000000002413569200000000000000009999123100000010000000000000BRECORACNOR8120
012024110102EGIE3       010ENGIE BRASILON      NM   R$  000000000415000000000041580000000004111000000000413100000000041110000000004111000000000413007959000000000001407200000000005813952900000000000000009999123100000010000000000000BREGIEACNOR9127
012024110102GGPS3       010GPS         ON      NM   R$  000000000172200000000017220000000001673000000000169100000000016740000000001672000000000167805752000000000001911400000000003233261800000000000000009999123100000010000000000000BRGGPSACNOR9103
012024110102GMAT3       010GRUPO MATEUSON      NM   R$  000000000076500000000007700000000000742000000000075100000000007460000000000745000000000074608778000000000003317400000000002493124200000000000000009999123100000010000000000000BRGMATACNOR7103
012024110102GOAU3       010GERDAU MET  ON      N1   R$  000000000101300000000010160000000001001000000000100600000000010010000000001001000000000101000327000000000000051200000000000051545200000000000000009999123100000010000000000000BRGOAUACNOR1268
012024110102GOAU4       010GERDAU MET  PN      N1   R$  000000000102600000000010270000000001008000000000101200000000010170000000001015000000000101712580000000000007404300000000007500527600000000000000009999123100000010000000000000BRGOAUACNPR8269
012024110102ITUB3       010ITAUUNIBANCOON  EJ  N1   R$  000000000301000000000030360000000003002000000000302000000000030030000000003003000000000301001766000000000000338600000000001022662700000000000000009999123100000010000000000000BRITUBACNOR4343
012024110102ITUB4       010ITAUUNIBANCOPN  EJ  N1   R$  000000000350000000000035300000000003479000000000350200000000034810000000003481000000000348847532000000000022751600000000079690682300000000000000009999123100000010000000000000BRITUBACNPR1343
012024110102YDUQ3       010YDUQS PART  ON      NM   R$  000000000106300000000010730000000001011000000000102800000000010140000000001014000000000101609324000000000003232600000000003323405700000000000000009999123100000010000000000000BRYDUQACNOR3105
012024110102ZAMP3       010ZAMP S.A.   ON           R$  000000000024100000000002430000000000228000000000023300000000002300000000000230000000000023401886000000000000984500000000000230265300000000000000009999123100000010000000000000BRZAMPACNOR5101
012024110102WEGE3       010WEG         ON      NM   R$  000000000549500000000055550000000005463000000000550600000000054700000000005470000000000548822331000000000006364400000000035042549500000000000000009999123100000010000000000000BRWEGEACNOR0225
012024110102ODPV3       010ODONTOPREV  ON      NM   R$  000000000109900000000011020000000001082000000000109400000000010960000000001095000000000109704437000000000001309700000000001433767900000000000000009999123100000010000000000000BRODPVACNOR4204
012024110102PETZ3       010PETZ        ON      NM   R$  000000000049600000000005000000000000491000000000049500000000004990000000000499000000000050005903000000000003767400000000001865018600000000000000009999123100000010000000000000BRPETZACNOR2110
012024110102RAPT3       010RANDON PART ON      N1   R$  000000000093200000000009320000000000900000000000091400000000009150000000000908000000000091500182000000000000060900000000000055675500000000000000009999123100000010000000000000BRRAPTACNOR7163
012024110102RAPT4       010RANDON PART PN      N1   R$  000000000108000000000010800000000001034000000000104600000000010400000000001040000000000104104816000000000001759300000000001840656500000000000000009999123100000010000000000000BRRAPTACNPR4163
012024110102RCSL3       010RECRUSUL    ON           R$  000000000038400000000003890000000000374000000000038100000000003820000000000381000000000038201464000000000000725600000000000276863000000000000000009999123100000010000000000000BRRCSLACNOR4134
012024110102RCSL4       010RECRUSUL    PN           R$  000000000019500000000002100000000000189000000000019900000000001930000000000193000000000019407508000000000007084000000000001414640000000000000000009999123100000010000000000000BRRCSLACNPR1134
012024110102RDNI3       010RNI         ON      NM   R$  000000000030900000000003090000000000301000000000030300000000003020000000000303000000000030600014000000000000003600000000000001091400000000000000009999123100000010000000000000BRRDNIACNOR9116
012024110102RDOR3       010REDE D OR   ON      NM   R$  000000000291900000000029350000000002855000000000288100000000028770000000002874000000000287718704000000000007163400000000020638699500000000000000009999123100000010000000000000BRRDORACNOR8114
012024110102RECV3       010PETRORECSA  ON      NM   R$  000000000170500000000017160000000001650000000000166800000000016500000000001650000000000165409090000000000001929600000000003218895900000000000000009999123100000010000000000000BRRECVACNOR3107
012024110102SYNE3       010SYN PROP TECON      NM   R$  000000000084500000000008580000000000842000000000084900000000008430000000000842000000000084502460000000000000919200000000000781231100000000000000009999123100000010000000000000BRSYNEACNOR2103
012024110102ABCB4       010ABC BRASIL  PN      N2   R$  000000000210900000000021090000000002048000000000206500000000020670000000002067000000000206804614000000000001369100000000002827938400000000000000009999123100000010000000000000BRABCBACNPR4146
012024110102ABEV3       010AMBEV S/A   ON           R$  000000000125100000000012650000000001248000000000125600000000012540000000001252000000000125534885000000000029027800000000036462257700000000000000009999123100000010000000000000BRABEVACNOR1128
012024110107SEQL3       010SEQUOIA LOG ON      NM   R$  000000000038400000000003900000000000368000000000037800000000003770000000000375000000000037701216000000000001074100000000000406066200000000000000009999123100000010000000000000BRSEQLACNOR2103
012024110107NUTR3       010NUTRIPLANT  ON      MA   R$  000000000038900000000004010000000000384000000000039200000000003910000000000387000000000038900022000000000000004200000000000001646600000000000000009999123100000010000000000000BRNUTRACNOR0104
012024110108ATMP3       010ATMASA      ON           R$  000000000013600000000001380000000000134000000000013500000000001380000000000134000000000013800006000000000000001500000000000000202600000000000000009999123100000010000000000000BRATMPACNOR8100
012024110108AMER3       010AMERICANAS  ON      NM   R$  000000000037300000000003740000000000345000000000035900000000003480000000000348000000000034903784000000000002929300000000001053043100000000000000009999123100000010000000000000BRAMERACNOR6103
012024110108PMAM3       010PARANAPANEMAON      NM   R$  000000000009900000000001110000000000092000000000009900000000001090000000000108000000000010900427000000000000659400000000000065426400000000000000009999123100000010000000000000BRPMAMACNOR3040
012024110108LIGT3       010LIGHT S/A   ON  ES  NM   R$  000000000051800000000005200000000000480000000000050500000000005010000000000500000000000050102829000000000001352600000000000683706100000000000000009999123100000010000000000000BRLIGTACNOR2125
012024110108NEXP3       010NEXPE       ON           R$  000000000043700000000004490000000000437000000000044400000000004490000000000437000000000044800004000000000000000400000000000000177600000000000000009999123100000010000000000000BRNEXPACNOR0101
012024110108HOOT4       010HOTEIS OTHONPN           R$  000000000022400000000002270000000000224000000000022600000000002270000000000224000000000022800005000000000000000800000000000000181100000000000000009999123100000010000000000000BRHOOTACNPR9015
012024110108OIBR3       010OI          ON      N1   R$  000000000044900000000004550000000000448000000000045000000000004480000000000448000000000044900329000000000000164700000000000074232700000000000000009999123100000010000000000000BROIBRACNOR1112
012024110108OIBR4       010OI          PN      N1   R$  000000000107300000000011270000000001060000000000110200000000011200000000001072000000000112000028000000000000004700000000000005181100000000000000009999123100000010000000000000BROIBRACNPR8111
012024110108OSXB3       010OSX BRASIL  ON      NM   R$  000000000045900000000004690000000000452000000000046000000000004600000000000436000000000045700016000000000000002900000000000001336400000000000000009999123100000010000000000000BROSXBACNOR8109
012024110108JFEN3       010JOAO FORTES ON           R$  000000000002600000000000270000000000024000000000002400000000000250000000000025000000000002600366000000000002196700000000000054591900000000000000009999123100000010000000000000BRJFENACNOR0059
012024110108CTSA3       010SANTANENSE  ON           R$  000000000020100000000002010000000000201000000000020100000000002010000000000174000000000023600003000000000000002500000000000000502500000000000000009999123100000010000000000000BRCTSAACNOR3062
012024110108CTSA4       010SANTANENSE  PN           R$  000000000010600000000001060000000000106000000000010600000000001060000000000106000000000011000009000000000000012600000000000001335600000000000000009999123100000010000000000000BRCTSAACNPR0062
012024110108RNEW11      010RENOVA      UNT     N2   R$  000000000031500000000003220000000000314000000000031800000000003210000000000314000000000032100017000000000000007200000000000002292700000000000000009999123100000010000000000000BRRNEWCDAM15110
012024110108RNEW3       010RENOVA      ON      N2   R$  000000000010700000000001080000000000104000000000010500000000001040000000000103000000000010500128000000000000090400000000000009551900000000000000009999123100000010000000000000BRRNEWACNOR8110
012024110108RNEW4       010RENOVA      PN      N2   R$  000000000010500000000001080000000000103000000000010400000000001050000000000103000000000010500188000000000000174300000000000018294600000000000000009999123100000010000000000000BRRNEWACNPR5110
012024110108RPMG3       010PET MANGUINHON           R$  000000000029700000000002970000000000288000000000029400000000002950000000000290000000000029500046000000000000013100000000000003852600000000000000009999123100000010000000000000BRRPMGACNOR9194
012024110108RSID3       010ROSSI RESID ON      NM   R$  000000000030000000000003000000000000280000000000028900000000002910000000000291000000000029500186000000000000070400000000000020372600000000000000009999123100000010000000000000BRRSIDACNOR8120
012024110108AGXY3       010AGROGALAXY  ON      NM   R$  000000000004000000000000400000000000039000000000003900000000000400000000000039000000000004000190000000000000227000000000000008918000000000000000009999123100000010000000000000BRAGXYACNOR4103
012024110110PINE1       010PINE        DIR ORD N2   R$  000000000001100000000000140000000000010000000000001100000000000100000000000011000000000001400021000000000000012100000000000000136100000000000000009999123100000010000000000000BRPINED04OR0150
012024110110PINE2       010PINE        DIR PRE N2   R$  000000000002900000000000290000000000021000000000002200000000000210000000000021000000000002800009000000000000006600000000000000146400000000000000009999123100000010000000000000BRPINED06PR2150
012024110110LIGT11      010LIGHT S/A   DIR     NM   R$  000000000006400000000000640000000000012000000000002100000000000200000000000020000000000002501270000000000001123000000000000023881600000000000000009999123100000010000000000000BRLIGTD01M16124
012024110110LIGT13      010LIGHT S/A   DIR     NM   R$  000000000005000000000000500000000000010000000000001500000000000200000000000020000000000002200623000000000000546000000000000008287000000000000000009999123100000010000000000000BRLIGTD02M15124
012024110110HBSA1       010HIDROVIAS   DIR ORD NM   R$  000000000000200000000000020000000000001000000000000100000000000010000000000000000000000000100141000000000006522100000000000006685900000000000000009999123100000010000000000000BRHBSAD01OR5100
012024110110MBLY1       010MOBLY       DIR ORD NM   R$  000000000000100000000000010000000000001000000000000100000000000010000000000000000000000000100010000000000000029600000000000000029600000000000000009999123100000010000000000000BRMBLYD01OR0100
012024110110MBLY11      010MOBLY       DIR     NM   R$  000000000001400000000000140000000000007000000000000800000000000080000000000008000000000001100023000000000000006500000000000000057000000000000000009999123100000010000000000000BRMBLYD01M18100
012024110112SHPH11      010FII HIGIENOPCI  ER       R$  000000008660200000000870000000000086399000000008686600000000865000000000086000000000008699500009000000000000000042000000000003648405000000000000009999123100000010000000000000BRSHPHCTF008355
012024110112SJAU11      010FII SJ AU   CI           R$  000000000511000000000051100000000005110000000000511000000000051100000000005057000000000649700004000000000000000004000000000000020440000000000000009999123100000010000000000000BRSJAUCTF009102
012024110112BMLC11      010FII BMBRC LCCI           R$  000000000961400000000098000000000009301000000000960000000000098000000000009700000000000980000027000000000000000287000000000002755336000000000000009999123100000010000000000000BRBMLCCTF004255
012024110112BNFS11      010FII BANRISULCI  ER       R$  000000001118000000000111990000000011000000000001103700000000110050000000011000000000001100500128000000000000000732000000000008079313000000000000009999123100000010000000000000BRBNFSCTF000246
012024110112CPLG11      010FII CPLG    CI           R$  000000000109000000000010900000000001080000000000108400000000010800000000001000000000000108000004000000000000000023000000000000024950000000000000009999123100000010000000000000BRCPLGCTF006101
012024110112CPSH11      010FII CPSH    CI           R$  000000000099000000000009900000000000975000000000098400000000009880000000000987000000000098801632000000000000172768000000000170010661000000000000009999123100000010000000000000BRCPSHCTF017118
012024110112CPTS11      010FII CAPI SECCI           R$  000000000072400000000007280000000000717000000000072100000000007210000000000720000000000072127707000000000001487981000000001073105316000000000000009999123100000010000000000000BRCPTSCTF004235
012024110112HBCR11      010FII HBC REN CI  ER       R$  000000001350000000000136000000000013500000000001350000000000136000000000000000000000000000000002000000000000370001000000004995013600000000000000009999123100000010000000000000BRHBCRCTF001147
012024110112PRSN11      010FII PERSONALCI           R$  000000000011600000000001310000000000115000000000012200000000001300000000000124000000000012800011000000000000000172000000000000021009000000000000009999123100000010000000000000BRPRSNCTF005125
012024110112PRSV11      010FII P VARGASCI           R$  000000000589900000000058990000000005899000000000589900000000058990000000005801000000000589900001000000000000000012000000000000070788000000000000009999123100000010000000000000BRPRSVCTF008226
012024110112PULV11      010FII PULV    CI  ER       R$  000000000093100000000009890000000000931000000000095400000000009850000000000944000000000098500026000000000000000061000000000000058237000000000000009999123100000010000000000000BRPULVCTF007106
012024110112PVBI11      010FII VBI PRI CI  ER       R$  000000000783000000000079410000000007801000000000786200000000078660000000007860000000000786619217000000000000109676000000000862293410000000000000009999123100000010000000000000BRPVBICTF003157
012024110112QAGR11      010FII QUASAR ACI           R$  000000000451000000000045500000000004462000000000448200000000044700000000004469000000000448700408000000000000004501000000000020176124000000000000009999123100000010000000000000BRQAGRCTF005159
012024110112SCPF11      010FII SCP     CI           R$  000000000018600000000001990000000000184000000000018800000000001980000000000190000000000019800028000000000000000390000000000000073490000000000000009999123100000010000000000000BRSCPFCTF003302
012024110112SEQR11      010FII SEQUOIA CI           R$  000000000499300000000049930000000004970000000000498100000000049810000000004981000000000502100094000000000000001891000000000009419571000000000000009999123100000010000000000000BRSEQRCTF002147
012024110112NSLU11      010FII LOURDES CI  ER       R$  000000001669400000000166950000000016450000000001656600000000166790000000016500000000001666000068000000000000000270000000000004472981000000000000009999123100000010000000000000BRNSLUCTF008316
012024110112AROA11      010FII AROA    CI  ER       R$  000000000011500000000001150000000000112000000000011300000000001140000000000113000000000011400163000000000000006713000000000000760340000000000000009999123100000010000000000000BRAROACTF003123
012024110112ARRI11      010FII ATRIO   CI  ER       R$  000000000082900000000008560000000000829000000000084100000000008560000000000840000000000085602267000000000000058216000000000048979509000000000000009999123100000010000000000000BRARRICTF009166
012024110112ARXD11      010FII ARXD R  CI  ER       R$  000000000850600000000088500000000008506000000000864100000000087000000000008700000000000884800020000000000000001068000000000009228727000000000000009999123100000010000000000000BRARXDCTF008120
012024110112ASMT11      010FII ASA MET CI           R$  000000000359800000000038450000000003598000000000366000000000035990000000003598000000000387000004000000000000000004000000000000014641000000000000009999123100000010000000000000BRASMTCTF005107
012024110112ATSA11      010FII HATRIUM CI           R$  000000000508900000000054000000000005089000000000510800000000051080000000005000000000000540000006000000000000000042000000000000214562000000000000009999123100000010000000000000BRATSACTF000145
012024110112AZPL11      010FII AZPL    CI  ER       R$  000000000075900000000007590000000000687000000000071300000000007100000000000710000000000071806726000000000000134600000000000095978537000000000000009999123100000010000000000000BRAZPLCTF000105
012024110112BRIM11      010FII BRIO II CI  ER       R$  000000011500000000001150000000000110000000000011045400000001100000000000105167000000011000000006000000000000000011000000000001215000000000000000009999123100000010000000000000BRBRIMCTF008132
012024110112BRIP11      010FII BRIO IIICI           R$  000000009479900000000947990000000091000000000009176000000000910000000000091002000000009479800004000000000000000010000000000000917600000000000000009999123100000010000000000000BRBRIPCTF001117
012024110112BRIX16      010FII BRIX    CI           R$  000000008000100000000800010000000080001000000008000100000000800010000000000000000000000000000001000000000000000010000000000000800010000000000000009999123100000010000000000000BRBRIXCTF021100
012024110112EQIR11      010FII EQI RECECI           R$  000000000085700000000008600000000000850000000000085300000000008560000000000850000000000085600872000000000000016245000000000013864537000000000000009999123100000010000000000000BREQIRCTF003137
012024110112IBCR11      010FII BREI    CI           R$  000000000553200000000055500000000005475000000000551700000000055270000000005525000000000552700137000000000000001574000000000008685152000000000000009999123100000010000000000000BRIBCRCTF009141
012024110112JPPA11      010FII JPPA CRICI  ER       R$  000000000817000000000081700000000007705000000000807600000000081550000000008153000000000815500160000000000000002743000000000022153006000000000000009999123100000010000000000000BRJPPACTF005166
012024110112JPPC11      010FII JPP CAPICI           R$  000000001830500000000183050000000018305000000001830500000000183050000000020000000000003999900001000000000000000002000000000000036610000000000000009999123100000010000000000000BRJPPCCTF001124
012024110112JSAF11      010FII JS A FINCI  ER       R$  000000000845900000000085000000000008223000000000833600000000083140000000008298000000000831401410000000000000029715000000000247710159000000000000009999123100000010000000000000BRJSAFCTF000138
012024110112JSCR11      010FII JSCR    CI  ER       R$  000000000945000000000094500000000008433000000000888100000000086510000000008650000000000900000037000000000000003037000000000026972737000000000000009999123100000010000000000000BRJSCRCTF001104
012024110112JSRE11      010FII JS REAL CI  ER       R$  000000000624900000000062720000000006141000000000618000000000061900000000006190000000000620418019000000000000042965000000000265548256000000000000009999123100000010000000000000BRJSRECTF007267
012024110112KCRE11      010FII KINEA CRCI  ER       R$  000000000088000000000008800000000000871000000000087500000000008720000000000872000000000087501431000000000000045642000000000039968946000000000000009999123100000010000000000000BRKCRECTF009130
012024110112KFOF11      010FII KINEAFOFCI  ER       R$  000000000755500000000076250000000007516000000000755500000000075660000000007563000000000758304586000000000000026344000000000199043357000000000000009999123100000010000000000000BRKFOFCTF006174
012024110112KISU11      010FII KILIMA  CI  ER       R$  000000000073300000000007480000000000730000000000073800000000007370000000000737000000000073901863000000000000053158000000000039280871000000000000009999123100000010000000000000BRKISUCTF000149
012024110112KIVO11      010FII KIVO    CI  ER       R$  000000000754800000000079000000000007450000000000766200000000077110000000007710000000000782000448000000000000013803000000000105762573000000000000009999123100000010000000000000BRKIVOCTF007132
012024110112KNCR11      010FII KINEA RICI  ER       R$  000000001035000000000103550000000010309000000001032700000000103150000000010315000000001032318074000000000000107605000000001111307621000000000000009999123100000010000000000000BRKNCRCTF000246
012024110112ALZM11      010FII ALIANZMECI           R$  000000000073100000000007370000000000728000000000073200000000007350000000000733000000000073500269000000000000010775000000000007887453000000000000009999123100000010000000000000BRALZMCTF007127
012024110112ALZR11      010FII ALIANZA CI           R$  000000001014600000000102380000000010145000000001019800000000102000000000010200000000001021003208000000000000015863000000000161772174000000000000009999123100000010000000000000BRALZRCTF006187
012024110112ANCR11      010FII ANCAR ICCI  ER       R$  000000001000000000000100000000000010000000000001000000000000100000000000006000000000000000000003000000000000000003000000000000030000000000000000009999123100000010000000000000BRANCRCTF001162
012024110112APTO11      010FII NAVI RSDCI  ER       R$  000000000090400000000009380000000000902000000000090800000000009020000000000902000000000090600129000000000000000855000000000000776351000000000000009999123100000010000000000000BRAPTOCTF007136
012024110112APXM11      010FII APEX MS CI           R$  000000000999900000000099990000000009950000000000995200000000099500000000009301000000000995000011000000000000000017000000000000169199000000000000009999123100000010000000000000BRAPXMCTF003115
012024110112BCIA11      010FII BCIA    CI  ER       R$  000000000895000000000090320000000008860000000000894900000000089070000000008886000000000890700691000000000000010225000000000091509571000000000000009999123100000010000000000000BRBCIACTF005215
012024110112BCRI11      010FII BEES CRICI  ER       R$  000000000640000000000064000000000006305000000000636500000000063120000000006310000000000631200888000000000000008251000000000052522796000000000000009999123100000010000000000000BRBCRICTF009220
012024110112CNES11      010FII CENESP  CI  ER       R$  000000000013000000000001360000000000130000000000013200000000001310000000000131000000000013301092000000000000031976000000000004243352000000000000009999123100000010000000000000BRCNESCTF001264
