00COTAHIST.2024BOVESPA 20241106                                                                                                                                                                                                                      
012024110602UCAS3       010UNICASA     ON      NM   R$  000000000021300000000002150000000000213000000000021300000000002140000000000214000000000021500072000000000000010000000000000002138500000000000000009999123100000010000000000000BRUCASACNOR1113
012024110602UGPA3       010ULTRAPAR    ON      NM   R$  000000000210900000000021780000000002066000000000214700000000021610000000002160000000000216515358000000000005046900000000010840302900000000000000009999123100000010000000000000BRUGPAACNOR8156
012024110602ALLD3       010ALLIED      ON      NM   R$  000000000076000000000007800000000000752000000000076600000000007710000000000763000000000077400254000000000000058800000000000045071000000000000000009999123100000010000000000000BRALLDACNOR3106
012024110602ALOS3       010ALLOS       ON      NM   R$  000000000220800000000022240000000002166000000000219900000000022140000000002214000000000221716142000000000004887500000000010751072500000000000000009999123100000010000000000000BRALOSACNOR5103
012024110602B3SA3       010B3          ON      NM   R$  000000000107100000000010760000000001053000000000106600000000010650000000001065000000000106834893000000000037995800000000040540712900000000000000009999123100000010000000000000BRB3SAACNOR6134
012024110602BBSE3       010BBSEGURIDADEON      NM   R$  000000000346500000000035180000000003434000000000346900000000034610000000003461000000000346315872000000000006260100000000021720383900000000000000009999123100000010000000000000BRBBSEACNOR5125
012024110602BPAC11      010BTGP BANCO  UNT     N2   R$  000000000323800000000033440000000003216000000000328100000000033280000000003324000000000332919380000000000008501600000000027894078200000000000000009999123100000010000000000000BRBPACUNT006119
012024110602BPAC3       010BTGP BANCO  ON      N2   R$  000000000154000000000015680000000001509000000000154100000000015530000000001538000000000156800032000000000000003400000000000005240100000000000000009999123100000010000000000000BRBPACACNOR7134
012024110602BPAC5       010BTGP BANCO  PNA     N2   R$  000000000086500000000008900000000000850000000000087500000000008850000000000862000000000090100028000000000000004500000000000003939500000000000000009999123100000010000000000000BRBPACACNPA0134
012024110602COCE5       010COELCE      PNA          R$  000000000272100000000027600000000002712000000000274900000000027600000000002740000000000276000050000000000000025600000000000070382600000000000000009999123100000010000000000000BRCOCEACNPA3147
012024110602COGN3       010COGNA ON    ON      NM   R$  000000000014700000000001540000000000145000000000014900000000001530000000000153000000000015414630000000000052025200000000007791658800000000000000009999123100000010000000000000BRCOGNACNOR2105
012024110602DIRR3       010DIRECIONAL  ON      NM   R$  000000000308300000000030830000000002975000000000302200000000030410000000003040000000000304615744000000000002873300000000008685912200000000000000009999123100000010000000000000BRDIRRACNOR0119
012024110602DMVF3       010D1000VFARMA ON      NM   R$  000000000071000000000007240000000000701000000000071000000000007120000000000711000000000071200246000000000000062300000000000044241600000000000000009999123100000010000000000000BRDMVFACNOR9100
012024110602DOHL4       010DOHLER      PN           R$  000000000040000000000004000000000000400000000000040000000000004000000000000400000000000040500003000000000000000300000000000000120000000000000000009999123100000010000000000000BRDOHLACNPR9066
012024110602DOTZ3       010DOTZ SA     ON      NM   R$  000000000051300000000005340000000000504000000000052200000000005120000000000511000000000052000052000000000000012800000000000006687900000000000000009999123100000010000000000000BRDOTZACNOR7101
012024110602DXCO3       010DEXCO       ON      NM   R$  000000000083600000000008630000000000835000000000085000000000008550000000000855000000000086107972000000000002763100000000002349608000000000000000009999123100000010000000000000BRDXCOACNOR8105
012024110602EALT3       010ACO ALTONA  ON           R$  000000000150000000000015000000000001500000000000150000000000015000000000001500000000000153000001000000000000000100000000000000150000000000000000009999123100000010000000000000BREALTACNOR4138
012024110602EALT4       010ACO ALTONA  PN           R$  000000000133000000000013580000000001330000000000135200000000013580000000001336000000000135800030000000000000010200000000000013793100000000000000009999123100000010000000000000BREALTACNPR1138
012024110602ECOR3       010ECORODOVIAS ON      NM   R$  000000000070900000000007340000000000699000000000071800000000007340000000000728000000000073405742000000000003300200000000002372737000000000000000009999123100000010000000000000BRECORACNOR8120
012024110602EGIE3       010ENGIE BRASILON      NM   R$  000000000413000000000041300000000004000000000000406400000000040560000000004055000000000407013358000000000003908100000000015883170500000000000000009999123100000010000000000000BREGIEACNOR9127
012024110602ITSA3       010ITAUSA      ON      N1   R$  000000000109600000000011080000000001087000000000109600000000011080000000001104000000000110900246000000000000135800000000000148961400000000000000009999123100000010000000000000BRITSAACNOR0443
012024110602ITSA4       010ITAUSA      PN      N1   R$  000000000109300000000011070000000001083000000000109700000000011040000000001103000000000110434046000000000021420700000000023504620700000000000000009999123100000010000000000000BRITSAACNPR7443
012024110602LUPA3       010LUPATECH    ON      NM   R$  000000000014600000000001490000000000144000000000014500000000001460000000000146000000000014700161000000000000135300000000000019751100000000000000009999123100000010000000000000BRLUPAACNOR8112
012024110602LVTC3       010WDC NETWORKSON      NM   R$  000000000035100000000003600000000000343000000000035100000000003430000000000343000000000035900083000000000000046700000000000016435500000000000000009999123100000010000000000000BRLVTCACNOR4102
012024110602LWSA3       010LWSA        ON      NM   R$  000000000044800000000004550000000000441000000000044800000000004540000000000453000000000045507674000000000004833100000000002167944400000000000000009999123100000010000000000000BRLWSAACNOR8103
012024110602AZZA3       010AZZAS 2154  ON      NM   R$  000000000405000000000041430000000003975000000000405100000000041000000000004100000000000410607923000000000001833500000000007427818000000000000000009999123100000010000000000000BRAZZAACNOR9100
012024110602CEBR5       010CEB         PNA          R$  000000000168700000000016890000000001684000000000168600000000016850000000001680000000000171800008000000000000001100000000000001854900000000000000009999123100000010000000000000BRCEBRACNPA8124
012024110602CEBR6       010CEB         PNB          R$  000000000182900000000018600000000001829000000000184000000000018440000000001830000000000184400060000000000000016400000000000030182900000000000000009999123100000010000000000000BRCEBRACNPB6124
012024110602CEDO3       010CEDRO       ON      N1   R$  000000000259800000000026000000000002598000000000259900000000026000000000002500000000000269000003000000000000000300000000000000779700000000000000009999123100000010000000000000BRCEDOACNOR8096
012024110602CEDO4       010CEDRO       PN      N1   R$  000000000244500000000026500000000002445000000000253300000000026500000000002600000000000269900013000000000000003200000000000008108400000000000000009999123100000010000000000000BRCEDOACNPR5128
012024110602CEEB3       010COELBA      ON           R$  000000000384600000000038470000000003846000000000384600000000038470000000003846000000000399000004000000000000000500000000000001923200000000000000009999123100000010000000000000BRCEEBACNOR3200
012024110602CGAS5       010COMGAS      PNA          R$  000000001260000000000129490000000012600000000001289000000000129490000000012500000000001297900007000000000000000700000000000009023500000000000000009999123100000010000000000000BRCGASACNPA3161
012024110602CGRA3       010GRAZZIOTIN  ON           R$  000000000242800000000024650000000002428000000000245200000000024650000000002464000000000247900003000000000000000300000000000000735700000000000000009999123100000010000000000000BRCGRAACNOR2083
012024110602CGRA4       010GRAZZIOTIN  PN           R$  000000000239300000000024900000000002390000000000241500000000024340000000002413000000000248700029000000000000003100000000000007488500000000000000009999123100000010000000000000BRCGRAACNPR9083
012024110602CLSA3       010CLEARSALE   ON      NM   R$  000000000096300000000009720000000000952000000000096300000000009690000000000968000000000097003083000000000001957300000000001885822800000000000000009999123100000010000000000000BRCLSAACNOR0100
012024110602CLSC4       010CELESC      PN      N2   R$  000000000803200000000080320000000007871000000000798400000000080310000000008000000000000803200020000000000000002500000000000019962100000000000000009999123100000010000000000000BRCLSCACNPR3132
012024110602CMIG3       010CEMIG       ON      N1   R$  000000000147800000000014780000000001445000000000145700000000014450000000001445000000000145202125000000000000355100000000000517613500000000000000009999123100000010000000000000BRCMIGACNOR6244
012024110602CMIG4       010CEMIG       PN      N1   R$  000000000114700000000011540000000001126000000000114200000000011430000000001142000000000114816517000000000009938100000000011355540400000000000000009999123100000010000000000000BRCMIGACNPR3245
012024110602CMIN3       010CSNMINERACAOON      N2   R$  000000000060700000000006220000000000596000000000061100000000006170000000000616000000000061710871000000000011368600000000006955291900000000000000009999123100000010000000000000BRCMINACNOR2112
012024110602UNIP3       010UNIPAR      ON           R$  000000000445400000000046480000000004454000000000458000000000046480000000004650000000000475000059000000000000006600000000000030228100000000000000009999123100000010000000000000BRUNIPACNOR7206
012024110602VITT3       010VITTIA      ON      NM   R$  000000000055800000000005650000000000544000000000055700000000005650000000000565000000000056600956000000000000174300000000000097160700000000000000009999123100000010000000000000BRVITTACNOR4108
012024110602VIVA3       010VIVARA S.A. ON      NM   R$  000000000253400000000026000000000002507000000000256200000000025920000000002587000000000259217516000000000003554000000000009105407100000000000000009999123100000010000000000000BRVIVAACNOR0107
012024110602VIVR3       010VIVER       ON      NM   R$  000000000014400000000001520000000000144000000000014600000000001480000000000146000000000014800135000000000000074800000000000010990800000000000000009999123100000010000000000000BRVIVRACNOR4123
012024110602VIVT3       010TELEF BRASILON           R$  000000000525000000000054730000000005207000000000532600000000052910000000005278000000000529418547000000000003296100000000017557839200000000000000009999123100000010000000000000BRVIVTACNOR0184
012024110602VLID3       010VALID       ON      NM   R$  000000000256000000000026420000000002527000000000259500000000026420000000002642000000000264503981000000000000704500000000001828513400000000000000009999123100000010000000000000BRVLIDACNOR5144
012024110602CXSE3       010CAIXA SEGURION  ED  NM   R$  000000000145400000000014790000000001428000000000145500000000014460000000001446000000000145511701000000000004006800000000005831497200000000000000009999123100000010000000000000BRCXSEACNOR7108
012024110602CYRE3       010CYRELA REALTON      NM   R$  000000000216100000000022110000000002104000000000215900000000021890000000002186000000000219020281000000000007886600000000017027696300000000000000009999123100000010000000000000BRCYREACNOR7140
012024110602FESA4       010FERBASA     PN      N1   R$  000000000079000000000008030000000000775000000000079200000000008020000000000800000000000080201859000000000000734700000000000582395200000000000000009999123100000010000000000000BRFESAACNPR5085
012024110602FHER3       010FER HERINGERON      NM   R$  000000000036300000000003700000000000363000000000036600000000003700000000000366000000000037000012000000000000003800000000000001392500000000000000009999123100000010000000000000BRFHERACNOR5103
012024110602FIQE3       010UNIFIQUE    ON      NM   R$  000000000039700000000004090000000000392000000000040100000000004090000000000407000000000040901261000000000000532500000000000213836600000000000000009999123100000010000000000000BRFIQEACNOR5107
012024110602KEPL3       010KEPLER WEBERON      NM   R$  000000000104900000000010760000000001048000000000106400000000010700000000001063000000000107104024000000000001228200000000001307550600000000000000009999123100000010000000000000BRKEPLACNOR1064
012024110602KLBN11      010KLABIN S/A  UNT     N2   R$  000000000218000000000022320000000002180000000000220500000000021990000000002198000000000219914261000000000009240700000000020376037900000000000000009999123100000010000000000000BRKLBNCDAM18143
012024110602KLBN3       010KLABIN S/A  ON      N2   R$  000000000044000000000004480000000000439000000000044300000000004430000000000440000000000044300571000000000000234000000000000103697000000000000000009999123100000010000000000000BRKLBNACNOR2171
012024110602KLBN4       010KLABIN S/A  PN      N2   R$  000000000043900000000004460000000000438000000000044100000000004400000000000438000000000044001735000000000001312100000000000579190400000000000000009999123100000010000000000000BRKLBNACNPR9171
012024110602MTRE3       010MITRE REALTYON      NM   R$  000000000037500000000003810000000000367000000000037400000000003800000000000378000000000038000668000000000000453800000000000170015800000000000000009999123100000010000000000000BRMTREACNOR6116
012024110602MTSA4       010METISA      PN           R$  000000000345000000000034600000000003428000000000344400000000034280000000003428000000000346900021000000000000002200000000000007577100000000000000009999123100000010000000000000BRMTSAACNPR9073
012024110602MULT3       010MULTIPLAN   ON      N2   R$  000000000250100000000025420000000002469000000000250300000000025290000000002528000000000252923087000000000004995200000000012504663800000000000000009999123100000010000000000000BRMULTACNOR5139
012024110602MWET4       010WETZEL S/A  PN           R$  000000000113500000000014300000000001135000000000129700000000014000000000001152000000000142900020000000000000003200000000000004151900000000000000009999123100000010000000000000BRMWETACNPR3118
012024110602MYPK3       010IOCHP-MAXIONON      NM   R$  000000000104100000000010600000000001027000000000104300000000010600000000001060000000000106107611000000000002002200000000002089901600000000000000009999123100000010000000000000BRMYPKACNOR7156
012024110602WEGE3       010WEG         ON      NM   R$  000000000556200000000056610000000005517000000000559800000000056090000000005601000000000561022328000000000005170500000000028946989400000000000000009999123100000010000000000000BRWEGEACNOR0225
012024110602ROMI3       010ROMI        ON      NM   R$  000000000099100000000010000000000000989000000000099500000000009970000000000996000000000099901006000000000000182700000000000181799600000000000000009999123100000010000000000000BRROMIACNOR8196
012024110602RSUL4       010RIOSULENSE  PN           R$  000000000605500000000061480000000005960000000000602200000000059820000000005982000000000600000034000000000000004500000000000027100900000000000000009999123100000010000000000000BRRSULACNPR3114
012024110602GUAR3       010GUARARAPES  ON      NM   R$  000000000092400000000009710000000000916000000000095200000000009710000000000967000000000097105139000000000002076000000000001977416700000000000000009999123100000010000000000000BRGUARACNOR4173
012024110602HAGA3       010HAGA S/A    ON           R$  000000000024700000000002550000000000245000000000024700000000002460000000000245000000000025200008000000000000000900000000000000223000000000000000009999123100000010000000000000BRHAGAACNOR7103
012024110602HAGA4       010HAGA S/A    PN           R$  000000000012700000000001300000000000127000000000012800000000001300000000000126000000000012900004000000000000000400000000000000051400000000000000009999123100000010000000000000BRHAGAACNPR4103
012024110602HAPV3       010HAPVIDA     ON      NM   R$  000000000033300000000003400000000000329000000000033500000000003390000000000339000000000034026820000000000062681900000000021045609400000000000000009999123100000010000000000000BRHAPVACNOR4115
012024110602BEEF3       010MINERVA     ON  ATZ NM   R$  000000000057000000000005910000000000566000000000057900000000005900000000000590000000000059109013000000000009175000000000005316283700000000000000009999123100000010000000000000BRBEEFACNOR6117
012024110602BPAN4       010BANCO PAN   PN      N1   R$  000000000084400000000008450000000000785000000000079900000000007950000000000794000000000079510584000000000005770300000000004614010600000000000000009999123100000010000000000000BRBPANACNPR1115
012024110602CPFE3       010CPFL ENERGIAON      NM   R$  000000000325200000000032760000000003232000000000325800000000032560000000003256000000000326205568000000000001153900000000003759838300000000000000009999123100000010000000000000BRCPFEACNOR0137
012024110602EKTR4       010ELEKTRO     PN           R$  000000000439800000000045450000000004398000000000447100000000045440000000004107000000000454500008000000000000001000000000000004471300000000000000009999123100000010000000000000BREKTRACNPR7166
012024110602ELET3       010ELETROBRAS  ON      N1   R$  000000000366100000000037040000000003627000000000367000000000036790000000003678000000000367926599000000000011076700000000040657196400000000000000009999123100000010000000000000BRELETACNOR6160
012024110602ELET6       010ELETROBRAS  PNB     N1   R$  000000000413800000000041460000000004074000000000411700000000041380000000004136000000000413809277000000000002186600000000009002978000000000000000009999123100000010000000000000BRELETACNPB7077
012024110602GGPS3       010GPS         ON      NM   R$  000000000168800000000017330000000001646000000000169800000000017210000000001720000000000172107213000000000002327200000000003953526400000000000000009999123100000010000000000000BRGGPSACNOR9103
012024110602GMAT3       010GRUPO MATEUSON      NM   R$  000000000076000000000007700000000000744000000000076100000000007670000000000764000000000077004772000000000002155900000000001641858700000000000000009999123100000010000000000000BRGMATACNOR7103
012024110602GOAU3       010GERDAU MET  ON      N1   R$  000000000102000000000010900000000001020000000000106800000000010880000000001085000000000108800825000000000000184200000000000196765500000000000000009999123100000010000000000000BRGOAUACNOR1268
012024110602GOAU4       010GERDAU MET  PN      N1   R$  000000000107300000000011340000000001069000000000111100000000011330000000001132000000000113323586000000000023854200000000026517886400000000000000009999123100000010000000000000BRGOAUACNPR8269
012024110602ITUB3       010ITAUUNIBANCOON  EJ  N1   R$  000000000312800000000031580000000003078000000000312900000000031490000000003147000000000315002715000000000000540900000000001692626100000000000000009999123100000010000000000000BRITUBACNOR4343
012024110602ITUB4       010ITAUUNIBANCOPN  EJ  N1   R$  000000000358700000000036430000000003552000000000359700000000036170000000003615000000000361756901000000000038887000000000139890498600000000000000009999123100000010000000000000BRITUBACNPR1343
012024110602MATD3       010MATER DEI   ON      NM   R$  000000000042400000000004280000000000413000000000042000000000004260000000000426000000000042700816000000000000625300000000000262982100000000000000009999123100000010000000000000BRMATDACNOR4104
012024110602MBLY3       010MOBLY       ON      NM   R$  000000000019900000000002080000000000194000000000019700000000002080000000000201000000000020800158000000000000368300000000000072858000000000000000009999123100000010000000000000BRMBLYACNOR5101
012024110602MDIA3       010M.DIASBRANCOON      NM   R$  000000000258700000000026560000000002579000000000262700000000026420000000002639000000000264504274000000000000935700000000002458192400000000000000009999123100000010000000000000BRMDIAACNOR7136
012024110602MDNE3       010MOURA DUBEUXON      NM   R$  000000000160900000000016640000000001579000000000163700000000016640000000001657000000000166404030000000000000662200000000001084566000000000000000009999123100000010000000000000BRMDNEACNOR9100
012024110602MEAL3       010IMC S/A     ON      NM   R$  000000000013100000000001390000000000129000000000013300000000001390000000000139000000000014000233000000000000618200000000000082571900000000000000009999123100000010000000000000BRMEALACNOR9105
012024110602MELK3       010MELNICK     ON      NM   R$  000000000037300000000003760000000000365000000000037000000000003700000000000370000000000037300590000000000000446200000000000165490000000000000000009999123100000010000000000000BRMELKACNOR8111
012024110602MGEL4       010MANGELS INDLPN           R$  000000000079900000000007990000000000799000000000079900000000007990000000000803000000000082800001000000000000000100000000000000079900000000000000009999123100000010000000000000BRMGELACNPR3147
012024110602MGLU3       010MAGAZ LUIZA ON      NM   R$  000000000097400000000009920000000000954000000000097200000000009730000000000973000000000097426953000000000029309700000000028506476500000000000000009999123100000010000000000000BRMGLUACNOR2125
012024110602DASA3       010DASA        ON      NM   R$  000000000026200000000002720000000000258000000000026600000000002700000000000269000000000027001730000000000000684200000000000182269900000000000000009999123100000010000000000000BRDASAACNOR1123
012024110602DESK3       010DESKTOP     ON      NM   R$  000000000136700000000014320000000001344000000000140500000000014220000000001421000000000142701081000000000000318400000000000447561700000000000000009999123100000010000000000000BRDESKACNOR2104
012024110602DEXP3       010DEXXOS PAR  ON      N1   R$  000000000087600000000008860000000000871000000000087800000000008730000000000873000000000088200312000000000000040200000000000035335100000000000000009999123100000010000000000000BRDEXPACNOR1105
012024110602DEXP4       010DEXXOS PAR  PN      N1   R$  000000000088000000000008940000000000880000000000089100000000008940000000000873000000000089500005000000000000000600000000000000534700000000000000009999123100000010000000000000BRDEXPACNPR8105
012024110602GEPA4       010GER PARANAP PN           R$  000000000300000000000030000000000002975000000000298800000000029750000000002950000000000299900004000000000000000400000000000001195300000000000000009999123100000010000000000000BRGEPAACNPR9161
012024110602GFSA3       010GAFISA      ON      NM   R$  000000000015200000000001570000000000150000000000015300000000001540000000000154000000000015501280000000000003156900000000000485679900000000000000009999123100000010000000000000BRGFSAACNOR3125
012024110602GGBR3       010GERDAU      ON      N1   R$  000000000185000000000019910000000001850000000000193100000000019840000000001969000000000198401526000000000000403300000000000778929400000000000000009999123100000010000000000000BRGGBRACNOR1193
012024110602GGBR4       010GERDAU      PN      N1   R$  000000000190000000000019980000000001890000000000195300000000019960000000001993000000000199767550000000000045316700000000088547406500000000000000009999123100000010000000000000BRGGBRACNPR8193
012024110602INEP3       010INEPAR      ON           R$  000000000015000000000001520000000000147000000000014800000000001490000000000148000000000015100029000000000000017100000000000002544800000000000000009999123100000010000000000000BRINEPACNOR1143
012024110602INEP4       010INEPAR      PN           R$  000000000014800000000001550000000000148000000000015000000000001510000000000151000000000015400023000000000000025500000000000003842200000000000000009999123100000010000000000000BRINEPACNPR8143
012024110602INTB3       010INTELBRAS   ON      NM   R$  000000000183400000000018550000000001814000000000182800000000018260000000001817000000000182706712000000000001350400000000002469451800000000000000009999123100000010000000000000BRINTBACNOR9112
012024110602IRBR3       010IRBBRASIL REON      NM   R$  000000000421200000000043160000000004190000000000424300000000042490000000004245000000000424903994000000000000753700000000003198139200000000000000009999123100000010000000000000BRIRBRACNOR4111
012024110602LEVE3       010METAL LEVE  ON      NM   R$  000000000304000000000031060000000002999000000000306000000000030910000000003085000000000309202920000000000000455200000000001392948800000000000000009999123100000010000000000000BRLEVEACNOR2197
012024110602LJQQ3       010QUERO-QUERO ON      NM   R$  000000000028500000000002960000000000283000000000029000000000002950000000000294000000000029505125000000000005167400000000001502425000000000000000009999123100000010000000000000BRLJQQACNOR5104
012024110602LOGG3       010LOG COM PROPON      NM   R$  000000000222600000000023500000000002199000000000229100000000023500000000002323000000000235002479000000000000360900000000000827043100000000000000009999123100000010000000000000BRLOGGACNOR7107
012024110602LOGN3       010LOG-IN      ON      NM   R$  000000000250200000000025490000000002472000000000252400000000025210000000002521000000000252500520000000000000144300000000000364237700000000000000009999123100000010000000000000BRLOGNACNOR3105
012024110602LPSB3       010LOPES BRASILON      NM   R$  000000000015800000000001700000000000158000000000016600000000001700000000000166000000000017000180000000000000144700000000000024105600000000000000009999123100000010000000000000BRLPSBACNOR0114
012024110602ATOM3       010ATOMPAR     ON           R$  000000000042600000000004310000000000405000000000041300000000004120000000000412000000000041500265000000000000069300000000000028652400000000000000009999123100000010000000000000BRATOMACNOR1106
012024110602AURE3       010AUREN       ON      NM   R$  000000000103000000000010320000000001016000000000102300000000010250000000001025000000000102906991000000000004374600000000004477831800000000000000009999123100000010000000000000BRAUREACNOR9104
012024110602AVLL3       010ALPHAVILLE  ON      NM   R$  000000000028600000000002890000000000281000000000028100000000002810000000000281000000000028900005000000000000008100000000000002278400000000000000009999123100000010000000000000BRAVLLACNOR5103
012024110602AZEV3       010AZEVEDO     ON           R$  000000000012000000000001210000000000117000000000011800000000001200000000000119000000000012100161000000000000254100000000000030200700000000000000009999123100000010000000000000BRAZEVACNOR0121
012024110602AZEV4       010AZEVEDO     PN           R$  000000000012000000000001210000000000118000000000011900000000001190000000000119000000000012000680000000000001478900000000000176815300000000000000009999123100000010000000000000BRAZEVACNPR7121
012024110602AZUL4       010AZUL        PN      N2   R$  000000000050800000000005350000000000504000000000051800000000005340000000000533000000000053412773000000000023255300000000012055800000000000000000009999123100000010000000000000BRAZULACNPR4103
012024110602CAMB3       010CAMBUCI     ON           R$  000000000114800000000011730000000001143000000000115300000000011570000000001157000000000117300133000000000000032100000000000037038100000000000000009999123100000010000000000000BRCAMBACNOR4131
012024110602CAML3       010CAMIL       ON      NM   R$  000000000078800000000008060000000000779000000000079200000000008060000000000805000000000080601465000000000000346300000000000274399500000000000000009999123100000010000000000000BRCAMLACNOR3129
012024110602CASH3       010MELIUZ      ON      NM   R$  000000000036300000000003660000000000355000000000035900000000003650000000000364000000000036501031000000000000727400000000000261809200000000000000009999123100000010000000000000BRCASHACNOR8107
012024110602CBAV3       010CBA         ON      NM   R$  000000000059900000000006180000000000594000000000060700000000006180000000000617000000000061806858000000000003983900000000002421539000000000000000009999123100000010000000000000BRCBAVACNOR5104
012024110602CCRO3       010CCR SA      ON  ED  NM   R$  000000000118000000000012080000000001173000000000119100000000012080000000001201000000000120814966000000000011150800000000013286288600000000000000009999123100000010000000000000BRCCROACNOR2146
012024110602CEAB3       010CEA MODAS   ON      NM   R$  000000000132200000000013830000000001309000000000135200000000013810000000001378000000000138107382000000000002195000000000002968039300000000000000009999123100000010000000000000BRCEABACNOR1102
012024110602CEBR3       010CEB         ON           R$  000000000185400000000019200000000001854000000000190100000000019100000000001894000000000191700023000000000000003500000000000006653900000000000000009999123100000010000000000000BRCEBRACNOR5125
012024110602FLRY3       010FLEURY      ON      NM   R$  000000000143700000000014480000000001425000000000143700000000014420000000001442000000000144310362000000000002259700000000003247329300000000000000009999123100000010000000000000BRFLRYACNOR5139
012024110602FRAS3       010FRAS-LE     ON      N1   R$  000000000214600000000021860000000002122000000000215000000000021730000000002171000000000218601348000000000000196000000000000421592200000000000000009999123100000010000000000000BRFRASACNOR0160
012024110602FRIO3       010METALFRIO   ON      NM   R$  000000001440000000000147420000000014400000000001451400000000147420000000013000000000001459900002000000000000000300000000000004354200000000000000009999123100000010000000000000BRFRIOACNOR2111
012024110602TTEN3       0103TENTOS     ON      NM   R$  000000000117000000000012470000000001165000000000122800000000012430000000001236000000000124306483000000000001406200000000001727125300000000000000009999123100000010000000000000BRTTENACNOR0103
012024110602TUPY3       010TUPY        ON      NM   R$  000000000233100000000023620000000002315000000000234500000000023540000000002349000000000235603461000000000000982000000000002303703500000000000000009999123100000010000000000000BRTUPYACNOR1184
012024110602IFCM3       010INFRACOMM   ON      NM   R$  000000000001400000000000140000000000013000000000001300000000000130000000000013000000000001400984000000000001678800000000000022990700000000000000009999123100000010000000000000BRIFCMACNOR8101
012024110602IGTI11      010IGUATEMI S.AUNT     N1   R$  000000000207700000000020880000000002033000000000205900000000020710000000002070000000000207814222000000000005106500000000010518441000000000000000009999123100000010000000000000BRIGTICDAM16106
012024110602IGTI3       010IGUATEMI S.AON      N1   R$  000000000025200000000002530000000000247000000000024800000000002510000000000247000000000025100102000000000000029400000000000007320000000000000000009999123100000010000000000000BRIGTIACNOR8106
012024110602IGTI4       010IGUATEMI S.APN      N1   R$  000000000091500000000009180000000000895000000000090500000000009180000000000851000000000105000010000000000000002600000000000002354800000000000000009999123100000010000000000000BRIGTIACNPR5106
012024110602ARML3       010ARMAC       ON      NM   R$  000000000075900000000008240000000000749000000000079400000000008080000000000808000000000081302888000000000000787800000000000626145400000000000000009999123100000010000000000000BRARMLACNOR1113
012024110602ASAI3       010ASSAI       ON      NM   R$  000000000074600000000007920000000000735000000000076400000000007560000000000756000000000076322989000000000021286800000000016275789500000000000000009999123100000010000000000000BRASAIACNOR0106
012024110602BRSR3       010BANRISUL    ON      N1   R$  000000000120600000000012360000000001205000000000121000000000012070000000001206000000000123000039000000000000009400000000000011382300000000000000009999123100000010000000000000BRBRSRACNOR3189
012024110602BRSR6       010BANRISUL    PNB     N1   R$  000000000113000000000011360000000001113000000000112500000000011260000000001125000000000112702162000000000000929100000000001045871600000000000000009999123100000010000000000000BRBRSRACNPB4192
012024110602BSLI4       010BRB BANCO   PN  ES       R$  000000000086400000000009190000000000864000000000087800000000008680000000000867000000000089900007000000000000000900000000000000790200000000000000009999123100000010000000000000BRBSLIACNPR2195
012024110602CSUD3       010CSU DIGITAL ON      NM   R$  000000000172000000000017590000000001692000000000172500000000017200000000001718000000000173500196000000000000038300000000000066101600000000000000009999123100000010000000000000BRCSUDACNOR5111
012024110602CURY3       010CURY S/A    ON      NM   R$  000000000235000000000024010000000002296000000000234700000000023500000000002350000000000235811460000000000002189800000000005141003700000000000000009999123100000010000000000000BRCURYACNOR3110
012024110602CVCB3       010CVC BRASIL  ON      NM   R$  000000000020900000000002220000000000208000000000021400000000002220000000000220000000000022207824000000000020204500000000004335569800000000000000009999123100000010000000000000BRCVCBACNOR1116
012024110602QUAL3       010QUALICORP   ON      NM   R$  000000000025600000000002720000000000251000000000026300000000002640000000000264000000000026703743000000000005263400000000001385143300000000000000009999123100000010000000000000BRQUALACNOR6120
012024110602RADL3       010RAIADROGASILON      NM   R$  000000000255100000000025990000000002493000000000253600000000025510000000002551000000000255324384000000000011283100000000028619114500000000000000009999123100000010000000000000BRRADLACNOR0158
012024110602SLCE3       010SLC AGRICOLAON      NM   R$  000000000173200000000018300000000001708000000000178600000000017900000000001790000000000179111977000000000004066000000000007262914100000000000000009999123100000010000000000000BRSLCEACNOR2125
012024110602ESPA3       010ESPACOLASER ON      NM   R$  000000000009600000000001000000000000096000000000009800000000001000000000000100000000000010100106000000000000288600000000000028555600000000000000009999123100000010000000000000BRESPAACNOR7103
012024110602ESTR4       010ESTRELA     PN           R$  000000000034100000000003410000000000341000000000034100000000003410000000000365000000000038900001000000000000000200000000000000068200000000000000009999123100000010000000000000BRESTRACNPR0144
012024110602ETER3       010ETERNIT     ON      NM   R$  000000000053700000000005480000000000531000000000053800000000005350000000000534000000000053600904000000000000386500000000000208148300000000000000009999123100000010000000000000BRETERACNOR3244
012024110602EUCA4       010EUCATEX     PN      N1   R$  000000000141200000000014480000000001405000000000142700000000014050000000001405000000000140600368000000000000064800000000000092516400000000000000009999123100000010000000000000BREUCAACNPR8044
012024110602EVEN3       010EVEN        ON      NM   R$  000000000059900000000006010000000000590000000000059400000000006010000000000595000000000060102053000000000000807400000000000480389500000000000000009999123100000010000000000000BREVENACNOR8120
012024110602ZAMP3       010ZAMP S.A.   ON           R$  000000000023400000000002450000000000233000000000024000000000002450000000000242000000000024501379000000000000420700000000000101300600000000000000009999123100000010000000000000BRZAMPACNOR5101
012024110602MRSA5B      010MRS LOGIST  PNA     MB   R$  000000000280000000000028000000000002800000000000280000000000028000000000002700000000000000000002000000000000000200000000000000560000000000000000009999123100000010000000000000BRMRSAACNPA9125
012024110602MRSA6B      010MRS LOGIST  PNB     MB   R$  000000000280000000000028000000000002800000000000280000000000028000000000002800000000000000000002000000000000000200000000000000560000000000000000009999123100000010000000000000BRMRSAACNPB7125
012024110602MRVE3       010MRV         ON      NM   R$  000000000071200000000007240000000000687000000000070300000000007190000000000718000000000071925503000000000020443900000000014375819800000000000000009999123100000010000000000000BRMRVEACNOR2127
012024110602PRNR3       010PRINER      ON      NM   R$  000000000144200000000014840000000001419000000000145600000000014840000000001468000000000148401920000000000000359300000000000523216700000000000000009999123100000010000000000000BRPRNRACNOR4109
012024110602EZTC3       010EZTEC       ON  ED  NM   R$  000000000145500000000015020000000001420000000000146300000000014740000000001474000000000148112760000000000003610900000000005283578200000000000000009999123100000010000000000000BREZTCACNOR0127
012024110602JHSF3       010JHSF PART   ON  ED  NM   R$  000000000045400000000004650000000000447000000000045800000000004600000000000459000000000046203144000000000002239300000000001026424600000000000000009999123100000010000000000000BRJHSFACNOR2141
012024110602JSLG3       010JSL         ON      NM   R$  000000000082000000000008500000000000808000000000083400000000008410000000000840000000000084802682000000000000479400000000000400073900000000000000009999123100000010000000000000BRJSLGACNOR2121
012024110602PATI3       010PANATLANTICAON           R$  000000000280100000000028010000000002801000000000280100000000028010000000002450000000000290000001000000000000000200000000000000560200000000000000009999123100000010000000000000BRPATIACNOR6067
012024110602PCAR3       010P.ACUCAR-CBDON  ATZ NM   R$  000000000031700000000003240000000000296000000000031200000000003140000000000314000000000031510002000000000020844000000000006516135300000000000000009999123100000010000000000000BRPCARACNOR3168
012024110602RAIZ4       010RAIZEN      PN      N2   R$  000000000028400000000002940000000000283000000000028700000000002910000000000291000000000029313103000000000013862400000000003981627300000000000000009999123100000010000000000000BRRAIZACNPR6111
012024110602RANI3       010IRANI       ON      NM   R$  000000000074400000000007550000000000741000000000074900000000007500000000000746000000000075001598000000000000447700000000000335756500000000000000009999123100000010000000000000BRRANIACNOR5073
012024110602SNSY3       010SANSUY      ON           R$  000000000110800000000011990000000001106000000000113500000000011990000000001147000000000119500014000000000000005600000000000006357500000000000000009999123100000010000000000000BRSNSYACNOR2113
012024110602SNSY5       010SANSUY      PNA          R$  000000000050500000000005770000000000505000000000054500000000005760000000000524000000000057800033000000000000009500000000000005181200000000000000009999123100000010000000000000BRSNSYACNPA5111
012024110602SOJA3       010BOA SAFRA   ON      NM   R$  000000000130100000000013410000000001276000000000131800000000013320000000001332000000000133802275000000000000544100000000000717626300000000000000009999123100000010000000000000BRSOJAACNOR9106
012024110602SRNA3       010SERENA      ON      NM   R$  000000000071500000000007520000000000706000000000073200000000007450000000000744000000000074910681000000000005087400000000003728065900000000000000009999123100000010000000000000BRSRNAACNOR4100
012024110602STBP3       010SANTOS BRP  ON  EDJ NM   R$  000000000127700000000012810000000001266000000000127200000000012760000000001275000000000127705899000000000005402500000000006877149500000000000000009999123100000010000000000000BRSTBPACNOR3133
012024110602PTBL3       010PORTOBELLO  ON      NM   R$  000000000041300000000004390000000000409000000000042100000000004390000000000430000000000043901730000000000000621500000000000262233900000000000000009999123100000010000000000000BRPTBLACNOR8132
012024110602PTNT3       010PETTENATI   ON  EDJ      R$  000000000093500000000009350000000000932000000000093300000000009330000000000931000000000093300005000000000000000500000000000000466600000000000000009999123100000010000000000000BRPTNTACNOR6043
012024110602PTNT4       010PETTENATI   PN  EDJ      R$  000000000063000000000006410000000000630000000000063600000000006320000000000612000000000063300011000000000000002800000000000001783500000000000000009999123100000010000000000000BRPTNTACNPR3048
012024110602PSSA3       010PORTO SEGUROON      NM   R$  000000000380900000000038660000000003771000000000383500000000038460000000003844000000000385507983000000000001677400000000006433683700000000000000009999123100000010000000000000BRPSSAACNOR7156
012024110602SBSP3       010SABESP      ON      NM   R$  000000000898100000000092660000000008946000000000912500000000091440000000009143000000000914412960000000000002514200000000022943640300000000000000009999123100000010000000000000BRSBSPACNOR5161
012024110602SCAR3       010SAO CARLOS  ON      NM   R$  000000000215000000000021760000000002141000000000215100000000021410000000002141000000000222000032000000000000008000000000000017211600000000000000009999123100000010000000000000BRSCARACNOR7131
012024110602SEER3       010SER EDUCA   ON      NM   R$  000000000074700000000007830000000000738000000000077000000000007650000000000762000000000076505520000000000001387500000000001068382300000000000000009999123100000010000000000000BRSEERACNOR5119
012024110602SHOW3       010TIME FOR FUNON      NM   R$  000000000008800000000000930000000000086000000000009000000000000920000000000091000000000009300254000000000000158700000000000014373200000000000000009999123100000010000000000000BRSHOWACNOR7105
012024110602SHUL4       010SCHULZ      PN           R$  000000000064000000000006400000000000625000000000063300000000006360000000000630000000000063600324000000000000127200000000000080537100000000000000009999123100000010000000000000BRSHULACNPR4157
012024110602SIMH3       010SIMPAR      ON      NM   R$  000000000053400000000005720000000000527000000000054800000000005600000000000560000000000056306700000000000004437700000000002434761300000000000000009999123100000010000000000000BRSIMHACNOR0107
012024110602VALE3       010VALE        ON      NM   R$  000000000613000000000061630000000006074000000000612300000000061420000000006142000000000614341140000000000019726800000000120789255400000000000000009999123100000010000000000000BRVALEACNOR0211
012024110602WEST3       010WESTWING    ON      NM   R$  000000000008000000000000800000000000078000000000007900000000000800000000000079000000000008000025000000000000068700000000000005477500000000000000009999123100000010000000000000BRWESTACNOR3100
012024110602WHRL3       010WHIRLPOOL   ON           R$  000000000041100000000004140000000000411000000000041200000000004130000000000414000000000041800003000000000000000300000000000000123800000000000000009999123100000010000000000000BRWHRLACNOR5129
012024110602WHRL4       010WHIRLPOOL   PN           R$  000000000044800000000004480000000000442000000000044500000000004430000000000443000000000044700031000000000000005300000000000002360600000000000000009999123100000010000000000000BRWHRLACNPR2129
012024110602WIZC3       010WIZ CO      ON      NM   R$  000000000057600000000005890000000000574000000000058200000000005890000000000586000000000058901720000000000000331600000000000193285400000000000000009999123100000010000000000000BRWIZCACNOR5102
012024110602WLMM4       010WLM IND COM PN           R$  000000000300000000000030000000000003000000000000300000000000030000000000002925000000000299900001000000000000001000000000000003000000000000000000009999123100000010000000000000BRWLMMACNPR3119
012024110602YDUQ3       010YDUQS PART  ON      NM   R$  000000000105300000000010940000000001034000000000106800000000010900000000001090000000000109108770000000000003575400000000003819152400000000000000009999123100000010000000000000BRYDUQACNOR3105
012024110602MILS3       010MILLS       ON      NM   R$  000000000104800000000010730000000001035000000000106100000000010730000000001070000000000107301899000000000000497300000000000527685500000000000000009999123100000010000000000000BRMILSACNOR2128
012024110602MLAS3       010MULTILASER  ON      NM   R$  000000000016700000000001670000000000159000000000016300000000001630000000000163000000000016403507000000000002785500000000000454446500000000000000009999123100000010000000000000BRMLASACNOR9101
012024110602MNPR3       010MINUPAR     ON           R$  000000000204900000000020490000000002000000000000203300000000020490000000001901000000000205000009000000000000001900000000000003864300000000000000009999123100000010000000000000BRMNPRACNOR5122
012024110602MOVI3       010MOVIDA      ON  ATZ NM   R$  000000000062500000000006580000000000623000000000064200000000006500000000000649000000000065011144000000000005476300000000003517550400000000000000009999123100000010000000000000BRMOVIACNOR0123
012024110602MRFG3       010MARFRIG     ON      NM   R$  000000000160200000000016120000000001543000000000158700000000016070000000001605000000000160814169000000000003658400000000005807566200000000000000009999123100000010000000000000BRMRFGACNOR0116
012024110602SANB11      010SANTANDER BRUNT          R$  000000000267100000000027100000000002654000000000268300000000027100000000002704000000000271010415000000000002586800000000006940533800000000000000009999123100000010000000000000BRSANBCDAM13166
012024110602SANB3       010SANTANDER BRON           R$  000000000127700000000012870000000001259000000000126700000000012810000000001280000000000128400604000000000000184700000000000234069600000000000000009999123100000010000000000000BRSANBACNOR8173
012024110602SANB4       010SANTANDER BRPN           R$  000000000141600000000014220000000001400000000000140800000000014220000000001415000000000142200621000000000000171500000000000241577000000000000000009999123100000010000000000000BRSANBACNPR5173
012024110602SAPR11      010SANEPAR     UNT     N2   R$  000000000263700000000026370000000002577000000000260600000000026240000000002620000000000262403867000000000000715300000000001864406400000000000000009999123100000010000000000000BRSAPRCDAM13118
012024110602SAPR3       010SANEPAR     ON      N2   R$  000000000050500000000005100000000000496000000000050300000000005050000000000505000000000050700847000000000000283800000000000143019400000000000000009999123100000010000000000000BRSAPRACNOR9159
012024110602SAPR4       010SANEPAR     PN      N2   R$  000000000053000000000005350000000000524000000000052900000000005320000000000532000000000053302770000000000001354000000000000717606000000000000000009999123100000010000000000000BRSAPRACNPR6159
012024110602SBFG3       010GRUPO SBF   ON      NM   R$  000000000139600000000014470000000001368000000000141500000000014400000000001436000000000144004761000000000001386900000000001962701800000000000000009999123100000010000000000000BRSBFGACNOR1103
012024110602UNIP5       010UNIPAR      PNA          R$  000000000480500000000048400000000004805000000000481800000000048400000000004780000000000494000003000000000000000300000000000001445400000000000000009999123100000010000000000000BRUNIPACNPA0208
012024110602UNIP6       010UNIPAR      PNB          R$  000000000466100000000047890000000004575000000000469900000000047890000000004766000000000479001250000000000000176900000000000831300600000000000000009999123100000010000000000000BRUNIPACNPB8206
012024110602USIM3       010USIMINAS    ON      N1   R$  000000000064400000000006540000000000628000000000064000000000006540000000000647000000000065401150000000000000465000000000000297638000000000000000009999123100000010000000000000BRUSIMACNOR3167
012024110602USIM5       010USIMINAS    PNA     N1   R$  000000000065600000000006670000000000642000000000065700000000006620000000000661000000000066212866000000000012673900000000008336411200000000000000009999123100000010000000000000BRUSIMACNPA6169
012024110602VTRU3       010VITRUEDUCA  ON      NM   R$  000000000091900000000009710000000000906000000000093800000000009490000000000948000000000094900617000000000000173700000000000162969200000000000000009999123100000010000000000000BRVTRUACNOR3100
012024110602VULC3       010VULCABRAS   ON      NM   R$  000000000169000000000017500000000001655000000000172100000000017370000000001721000000000173704864000000000001181100000000002033307600000000000000009999123100000010000000000000BRVULCACNOR2163
012024110602VVEO3       010VIVEO       ON      NM   R$  000000000027000000000002940000000000252000000000027300000000002710000000000270000000000027106605000000000006156800000000001686674400000000000000009999123100000010000000000000BRVVEOACNOR0104
012024110602BIOM3       010BIOMM       ON      MA   R$  000000000094800000000009950000000000920000000000096400000000009950000000000981000000000099500268000000000000067200000000000064797800000000000000009999123100000010000000000000BRBIOMACNOR2112
012024110602BLAU3       010BLAU        ON      NM   R$  000000000162000000000017610000000001601000000000173000000000017000000000001695000000000170105792000000000001680400000000002908214400000000000000009999123100000010000000000000BRBLAUACNOR8115
012024110602BRBI11      010BR PARTNERS UNT     N2   R$  000000000153800000000015550000000001520000000000154200000000015400000000001540000000000155401248000000000000305800000000000471654700000000000000009999123100000010000000000000BRBRBICDAM10110
012024110602BRFS3       010BRF SA      ON      NM   R$  000000000255900000000026150000000002514000000000258400000000025980000000002597000000000259815969000000000007287600000000018838219700000000000000009999123100000010000000000000BRBRFSACNOR8122
012024110602BRIT3       010BRISANET    ON      NM   R$  000000000032000000000003300000000000315000000000032600000000003300000000000329000000000033000263000000000000315800000000000103259000000000000000009999123100000010000000000000BRBRITACNOR0103
012024110602BRKM3       010BRASKEM     ON      N1   R$  000000000168800000000017150000000001687000000000170100000000016970000000001697000000000170100114000000000000018400000000000031301100000000000000009999123100000010000000000000BRBRKMACNOR1119
012024110602BRKM5       010BRASKEM     PNA     N1   R$  000000000176800000000017680000000001716000000000174200000000017380000000001737000000000173808977000000000003427100000000005971709900000000000000009999123100000010000000000000BRBRKMACNPA4121
012024110602BRKM6       010BRASKEM     PNB     N1   R$  000000000110300000000011030000000001103000000000110300000000011030000000001103000000000135000003000000000000000300000000000000330900000000000000009999123100000010000000000000BRBRKMACNPB2114
012024110602CSED3       010CRUZEIRO EDUON      NM   R$  000000000033300000000003490000000000324000000000033800000000003430000000000343000000000034401145000000000000585500000000000198346000000000000000009999123100000010000000000000BRCSEDACNOR9105
012024110602CSMG3       010COPASA      ON      NM   R$  000000000232200000000023300000000002252000000000229900000000023300000000002327000000000233109955000000000004745100000000010910324200000000000000009999123100000010000000000000BRCSMGACNOR5175
012024110602CSNA3       010SID NACIONALON           R$  000000000123400000000012340000000001168000000000119100000000011920000000001192000000000119315058000000000010147100000000012085695800000000000000009999123100000010000000000000BRCSNAACNOR6261
012024110602ENEV3       010ENEVA       ON      NM   R$  000000000124300000000012790000000001236000000000126400000000012660000000001265000000000126615839000000000007370000000000009318080100000000000000009999123100000010000000000000BRENEVACNOR8106
012024110602ENGI11      010ENERGISA    UNT     N2   R$  000000000421100000000042890000000004180000000000424200000000042480000000004248000000000425008708000000000001631000000000006919314400000000000000009999123100000010000000000000BRENGICDAM16136
012024110602ENGI3       010ENERGISA    ON      N2   R$  000000000129100000000013140000000001276000000000129000000000013050000000001278000000000130500036000000000000004900000000000006323500000000000000009999123100000010000000000000BRENGIACNOR0146
012024110602ENGI4       010ENERGISA    PN      N2   R$  000000000073800000000007480000000000725000000000074000000000007480000000000736000000000074800068000000000000011800000000000008739400000000000000009999123100000010000000000000BRENGIACNPR7142
012024110602ENJU3       010ENJOEI      ON      NM   R$  000000000012400000000001360000000000124000000000013200000000001310000000000131000000000013400547000000000000737500000000000097412200000000000000009999123100000010000000000000BRENJUACNOR9100
012024110602EPAR3       010EMBPAR S/A  ON           R$  000000000056900000000005690000000000551000000000055800000000005590000000000555000000000055900031000000000000008900000000000004970200000000000000009999123100000010000000000000BREPARACNOR9105
012024110602EQMA3B      010EQTLMARANHAOON      MB   R$  000000000229100000000022910000000002280000000000228300000000022800000000002301000000000234900004000000000000000400000000000000913200000000000000009999123100000010000000000000BREQMAACNOR8108
012024110602EQPA3       010EQTL PARA   ON           R$  000000000058500000000005940000000000585000000000058900000000005870000000000587000000000059300018000000000000006000000000000003539300000000000000009999123100000010000000000000BREQPAACNOR1111
012024110602EQTL3       010EQUATORIAL  ON      NM   R$  000000000315700000000032670000000003151000000000321000000000031860000000003185000000000319025950000000000009187500000000029495674600000000000000009999123100000010000000000000BREQTLACNOR0131
012024110602HYPE3       010HYPERA      ON      NM   R$  000000000220000000000022320000000002187000000000220700000000022090000000002207000000000221015775000000000005724800000000012640094100000000000000009999123100000010000000000000BRHYPEACNOR0144
012024110602AERI3       010AERIS       ON      NM   R$  000000000070700000000007070000000000655000000000067800000000006760000000000676000000000067800986000000000000335900000000000227983900000000000000009999123100000010000000000000BRAERIACNOR4102
012024110602AFLT3       010AFLUENTE T  ON           R$  000000000072900000000007290000000000729000000000072900000000007290000000000701000000000075900001000000000000000100000000000000072900000000000000009999123100000010000000000000BRAFLTACNOR1122
012024110602AGRO3       010BRASILAGRO  ON      NM   R$  000000000236400000000024700000000002363000000000243100000000024390000000002437000000000244602236000000000000364600000000000886675400000000000000009999123100000010000000000000BRAGROACNOR7115
012024110602RCSL3       010RECRUSUL    ON           R$  000000000041000000000004190000000000393000000000040900000000004130000000000413000000000041902285000000000001149700000000000470972800000000000000009999123100000010000000000000BRRCSLACNOR4134
012024110602RCSL4       010RECRUSUL    PN           R$  000000000019600000000002140000000000192000000000020100000000001970000000000196000000000019710131000000000016457600000000003313223900000000000000009999123100000010000000000000BRRCSLACNPR1134
012024110602RDNI3       010RNI         ON      NM   R$  000000000030500000000003080000000000305000000000030600000000003080000000000305000000000030800009000000000000000900000000000000276000000000000000009999123100000010000000000000BRRDNIACNOR9116
012024110602RDOR3       010REDE D OR   ON      NM   R$  000000000288000000000029630000000002880000000000292100000000029370000000002937000000000294314146000000000004072000000000011896118800000000000000009999123100000010000000000000BRRDORACNOR8114
012024110602RECV3       010PETRORECSA  ON      NM   R$  000000000167000000000017430000000001655000000000171600000000017280000000001727000000000173007607000000000002178900000000003740080700000000000000009999123100000010000000000000BRRECVACNOR3107
012024110602SYNE3       010SYN PROP TECON      NM   R$  000000000087800000000008790000000000851000000000086800000000008740000000000873000000000087401546000000000000616300000000000535023900000000000000009999123100000010000000000000BRSYNEACNOR2103
012024110602BMEB3       010MERCANTIL   ON      N1   R$  000000000374700000000037480000000003650000000000372300000000037000000000003400000000000379900006000000000000000600000000000002234000000000000000009999123100000010000000000000BRBMEBACNOR8206
012024110602BMEB4       010MERCANTIL   PN      N1   R$  000000000415000000000042780000000004020000000000414900000000040430000000004040000000000411000408000000000000100000000000000414964600000000000000009999123100000010000000000000BRBMEBACNPR5211
012024110602BMGB4       010BANCO BMG   PN      N1   R$  000000000040400000000004080000000000399000000000040400000000004080000000000406000000000040800514000000000000352700000000000142518200000000000000009999123100000010000000000000BRBMGBACNPR0111
012024110602BMKS3       010BIC MONARK  ON           R$  000000003061100000000315700000000030611000000003101300000000308100000000030811000000003157000005000000000000000009000000000000279122000000000000009999123100000010000000000000BRBMKSACNOR9166
012024110602BMOB3       010BEMOBI TECH ON      NM   R$  000000000150200000000015230000000001487000000000150400000000015100000000001509000000000151801560000000000000223500000000000336189200000000000000009999123100000010000000000000BRBMOBACNOR7103
012024110602BRAV3       010BRAVA       ON      NM   R$  000000000169100000000017350000000001661000000000170800000000017300000000001725000000000173011523000000000006967900000000011907793700000000000000009999123100000010000000000000BRBRAVACNOR3100
012024110602CPLE3       010COPEL       ON      N2   R$  000000000085000000000008520000000000835000000000084600000000008490000000000847000000000084910090000000000010905500000000009230072300000000000000009999123100000010000000000000BRCPLEACNOR8150
012024110602CPLE6       010COPEL       PNB     N2   R$  000000000094900000000009600000000000942000000000095300000000009570000000000956000000000095715584000000000015547900000000014825807200000000000000009999123100000010000000000000BRCPLEACNPB9147
012024110602LAND3       010TERRASANTAPAON      NM   R$  000000000123000000000012600000000001222000000000123400000000012350000000001235000000000124500170000000000000032400000000000039990100000000000000009999123100000010000000000000BRLANDACNOR9103
012024110602LAVV3       010LAVVI       ON      NM   R$  000000000085300000000008750000000000844000000000085800000000008700000000000870000000000087603930000000000000831700000000000713848400000000000000009999123100000010000000000000BRLAVVACNOR4113
012024110602ODPV3       010ODONTOPREV  ON      NM   R$  000000000114400000000012470000000001139000000000122300000000012210000000001221000000000123107264000000000002237300000000002737373500000000000000009999123100000010000000000000BRODPVACNOR4204
012024110602OFSA3       010OUROFINO S/AON      NM   R$  000000000220000000000022010000000002161000000000219900000000022000000000001990000000000223800011000000000000006900000000000015176100000000000000009999123100000010000000000000BROFSAACNOR7118
012024110602ONCO3       010ONCOCLINICASON      NM   R$  000000000044400000000004540000000000438000000000044900000000004500000000000450000000000045101739000000000002097100000000000941985500000000000000009999123100000010000000000000BRONCOACNOR6101
012024110602OPCT3       010OCEANPACT   ON      NM   R$  000000000060100000000006210000000000595000000000061000000000006180000000000617000000000062201997000000000000675700000000000412550800000000000000009999123100000010000000000000BROPCTACNOR0100
012024110602ORVR3       010ORIZON      ON      NM   R$  000000000469000000000048050000000004652000000000474800000000048050000000004769000000000480502095000000000000444500000000002110909500000000000000009999123100000010000000000000BRORVRACNOR0101
012024110602JALL3       010JALLESMACHADON      NM   R$  000000000060000000000006130000000000589000000000060300000000006080000000000608000000000061001795000000000000689500000000000416181900000000000000009999123100000010000000000000BRJALLACNOR0106
012024110602JBSS3       010JBS         ON      NM   R$  000000000360800000000037130000000003540000000000366300000000036960000000003696000000000370028569000000000007834000000000028699650700000000000000009999123100000010000000000000BRJBSSACNOR8122
012024110602AALR3       010ALLIAR      ON      NM   R$  000000000145000000000014710000000001450000000000145700000000014710000000001471000000000149900025000000000000003600000000000005246700000000000000009999123100000010000000000000BRAALRACNOR6102
012024110602ABCB4       010ABC BRASIL  PN      N2   R$  000000000209000000000020940000000002041000000000208000000000020900000000002087000000000209004572000000000000746300000000001552584700000000000000009999123100000010000000000000BRABCBACNPR4146
012024110602ABEV3       010AMBEV S/A   ON           R$  000000000125200000000012550000000001234000000000124400000000012500000000001247000000000125145106000000000039053800000000048613117100000000000000009999123100000010000000000000BRABEVACNOR1128
012024110602BAZA3       010AMAZONIA    ON           R$  000000000914900000000091510000000009149000000000915000000000091500000000009150000000000950000007000000000000000900000000000008235000000000000000009999123100000010000000000000BRBAZAACNOR0179
012024110602BBAS3       010BRASIL      ON      NM   R$  000000000261000000000026370000000002594000000000262200000000026300000000002629000000000263123743000000000012445400000000032642252300000000000000009999123100000010000000000000BRBBASACNOR3326
012024110602BEES3       010BANESTES    ON  EJ       R$  000000000086000000000008620000000000854000000000085800000000008600000000000856000000000086000084000000000000011400000000000009782600000000000000009999123100000010000000000000BRBEESACNOR9397
012024110602BEES4       010BANESTES    PN  EJ       R$  000000000088200000000008860000000000880000000000088100000000008800000000000880000000000088500014000000000000002100000000000001850800000000000000009999123100000010000000000000BRBEESACNPR6322
012024110602BGIP3       010BANESE      ON           R$  000000000250600000000025060000000002506000000000250600000000025060000000001800000000000258000001000000000000000100000000000000250600000000000000009999123100000010000000000000BRBGIPACNOR1210
012024110602BGIP4       010BANESE      PN           R$  000000000240000000000024000000000002336000000000235200000000023360000000002335000000000239000004000000000000000400000000000000940800000000000000009999123100000010000000000000BRBGIPACNPR8210
012024110602BHIA3       010CASAS BAHIA ON      NM   R$  000000000040800000000004310000000000403000000000041700000000004300000000000429000000000043002609000000000002470000000000001030149300000000000000009999123100000010000000000000BRBHIAACNOR1102
012024110602BRAP3       010BRADESPAR   ON      N1   R$  000000000180100000000018190000000001792000000000180100000000018190000000001811000000000182100516000000000000093700000000000168839800000000000000009999123100000010000000000000BRBRAPACNOR5148
012024110602BRAP4       010BRADESPAR   PN      N1   R$  000000000196500000000019800000000001951000000000196600000000019660000000001965000000000196612577000000000004454400000000008761438700000000000000009999123100000010000000000000BRBRAPACNPR2148
012024110602GRND3       010GRENDENE    ON      NM   R$  000000000052500000000005370000000000520000000000052900000000005330000000000533000000000053802878000000000001148700000000000608516500000000000000009999123100000010000000000000BRGRNDACNOR3175
012024110602NORD3       010NORDON MET  ON           R$  000000000073600000000007360000000000736000000000073600000000007360000000000736000000000078900002000000000000000200000000000000147200000000000000009999123100000010000000000000BRNORDACNOR7135
012024110602NTCO3       010GRUPO NATURAON      NM   R$  000000000140200000000014650000000001394000000000144000000000014370000000001437000000000144020741000000000006701600000000009652521400000000000000009999123100000010000000000000BRNTCOACNOR5106
012024110602PETZ3       010PETZ        ON      NM   R$  000000000053600000000005920000000000526000000000056800000000005850000000000584000000000058525023000000000028766700000000016346745300000000000000009999123100000010000000000000BRPETZACNOR2110
012024110602RAIL3       010RUMO S.A.   ON      NM   R$  000000000199000000000020780000000001990000000000204800000000020700000000002064000000000207034850000000000015020300000000030774697100000000000000009999123100000010000000000000BRRAILACNOR9105
012024110602SMFT3       010SMART FIT   ON      NM   R$  000000000211700000000022020000000002091000000000214400000000021870000000002185000000000220005978000000000002039200000000004372129700000000000000009999123100000010000000000000BRSMFTACNOR1112
012024110602SMTO3       010SAO MARTINHOON      NM   R$  000000000262900000000027180000000002617000000000267700000000027080000000002708000000000271605278000000000000900400000000002410640900000000000000009999123100000010000000000000BRSMTOACNOR3127
012024110602CRFB3       010CARREFOUR BRON      NM   R$  000000000074600000000007600000000000729000000000074200000000007440000000000743000000000074418052000000000013209100000000009806428800000000000000009999123100000010000000000000BRCRFBACNOR2116
012024110602CRPG5       010CRISTAL     PNA          R$  000000000247200000000025010000000002472000000000247700000000024800000000002472000000000250100009000000000000001200000000000002972800000000000000009999123100000010000000000000BRCRPGACNPA3119
012024110602CSAN3       010COSAN       ON      NM   R$  000000000117100000000012140000000001164000000000119700000000012130000000001210000000000121411880000000000007381800000000008837087000000000000000009999123100000010000000000000BRCSANACNOR6126
012024110602ELMD3       010ELETROMIDIA ON      NM   R$  000000000264400000000026500000000002593000000000263300000000026500000000002635000000000265001275000000000000698200000000001838979400000000000000009999123100000010000000000000BRELMDACNOR3101
012024110602EMAE4       010EMAE        PN           R$  000000000393200000000040290000000003931000000000399100000000040290000000003941000000000404500011000000000000001100000000000004390800000000000000009999123100000010000000000000BREMAEACNPR1126
012024110602EMBR3       010EMBRAER     ON      NM   R$  000000000485000000000050580000000004850000000000500600000000050550000000005055000000000505621035000000000005210900000000026089805900000000000000009999123100000010000000000000BREMBRACNOR4191
012024110602HBOR3       010HELBOR      ON      NM   R$  000000000018800000000001940000000000186000000000018900000000001930000000000192000000000019300386000000000000541800000000000102736000000000000000009999123100000010000000000000BRHBORACNOR3118
012024110602HBRE3       010HBR REALTY  ON      NM   R$  000000000045900000000004650000000000450000000000045700000000004650000000000461000000000046500942000000000000409200000000000187174300000000000000009999123100000010000000000000BRHBREACNOR4100
012024110602HBSA3       010HIDROVIAS   ON      NM   R$  000000000032100000000003310000000000315000000000032200000000003260000000000326000000000032803518000000000003916100000000001264779600000000000000009999123100000010000000000000BRHBSAACNOR0101
012024110602HBTS5       010HABITASUL   PNA          R$  000000000290100000000030990000000002901000000000300000000000030990000000003000000000000309900002000000000000000200000000000000600000000000000000009999123100000010000000000000BRHBTSACNPA3128
012024110602HETA4       010HERCULES    PN           R$  000000000064100000000006520000000000622000000000063100000000006230000000000622000000000066700010000000000000001500000000000000946600000000000000009999123100000010000000000000BRHETAACNPR9136
012024110602SUZB3       010SUZANO S.A. ON      NM   R$  000000000600000000000061410000000005920000000000599100000000059500000000005950000000000595527861000000000007906400000000047368699100000000000000009999123100000010000000000000BRSUZBACNOR0130
012024110602NEOE3       010NEOENERGIA  ON      NM   R$  000000000194500000000019540000000001924000000000194100000000019400000000001940000000000194204102000000000002330300000000004523800200000000000000009999123100000010000000000000BRNEOEACNOR3123
012024110602NGRD3       010NEOGRID     ON      NM   R$  000000000246900000000025980000000002413000000000249900000000024500000000002450000000000248700959000000000000157700000000000394188800000000000000009999123100000010000000000000BRNGRDACNOR3106
012024110602NINJ3       010GETNINJAS   ON      NM   R$  000000000044900000000004490000000000438000000000044800000000004410000000000441000000000044900009000000000000525000000000000235717400000000000000009999123100000010000000000000BRNINJACNOR5101
012024110602LREN3       010LOJAS RENNERON      NM   R$  000000000183500000000018970000000001812000000000187000000000018700000000001869000000000187028153000000000011248500000000021044995000000000000000009999123100000010000000000000BRLRENACNOR1222
012024110602PDGR3       010PDG REALT   ON      NM   R$  000000000000100000000000020000000000001000000000000100000000000010000000000001000000000000200661000000000089721800000000000100807600000000000000009999123100000010000000000000BRPDGRACNOR8119
012024110602PDTC3       010PADTEC      ON      NM   R$  000000000018100000000001860000000000179000000000018100000000001830000000000182000000000018300074000000000000051600000000000009387800000000000000009999123100000010000000000000BRPDTCACNOR3101
012024110602PETR3       010PETROBRAS   ON      N2   R$  000000000378300000000038240000000003762000000000379500000000038110000000003807000000000381118720000000000007658400000000029068630300000000000000009999123100000010000000000000BRPETRACNOR9206
012024110602PETR4       010PETROBRAS   PN      N2   R$  000000000350500000000035460000000003504000000000352800000000035400000000003540000000000354361138000000000028440800000000100346125700000000000000009999123100000010000000000000BRPETRACNPR6214
012024110602PFRM3       010PROFARMA    ON      NM   R$  000000000074700000000007710000000000732000000000075200000000007710000000000768000000000077101370000000000000542400000000000408035600000000000000009999123100000010000000000000BRPFRMACNOR1116
012024110602PGMN3       010PAGUE MENOS ON      NM   R$  000000000033400000000003410000000000324000000000033400000000003360000000000336000000000034001719000000000001202000000000000401705500000000000000009999123100000010000000000000BRPGMNACNOR8103
012024110602RAPT3       010RANDON PART ON      N1   R$  000000000091200000000009380000000000907000000000092700000000009380000000000922000000000093800180000000000000043300000000000040170400000000000000009999123100000010000000000000BRRAPTACNOR7163
012024110602RAPT4       010RANDON PART PN      N1   R$  000000000105500000000011070000000001044000000000108500000000010920000000001090000000000109306750000000000002086100000000002264615000000000000000009999123100000010000000000000BRRAPTACNPR4163
012024110602TAEE11      010TAESA       UNT     N2   R$  000000000346100000000034810000000003435000000000346200000000034610000000003460000000000346505997000000000001315400000000004554872900000000000000009999123100000010000000000000BRTAEECDAM10148
012024110602TAEE3       010TAESA       ON      N2   R$  000000000115300000000011560000000001140000000000114800000000011560000000001151000000000115900355000000000000053700000000000061664300000000000000009999123100000010000000000000BRTAEEACNOR9148
012024110602TAEE4       010TAESA       PN      N2   R$  000000000116300000000011640000000001148000000000115700000000011620000000001157000000000116300593000000000000113300000000000131130200000000000000009999123100000010000000000000BRTAEEACNPR6148
012024110602VAMO3       010VAMOS       ON      NM   R$  000000000059800000000006190000000000586000000000060500000000006110000000000610000000000061214923000000000008155700000000004939243100000000000000009999123100000010000000000000BRVAMOACNOR7105
012024110602KRSA3       010KORA SAUDE  ON      NM   R$  000000000060700000000006300000000000600000000000061500000000006150000000000615000000000062000113000000000000240100000000000147766300000000000000009999123100000010000000000000BRKRSAACNOR0101
012024110602TRAD3       010TC          ON      NM   R$  000000000055100000000006250000000000550000000000059900000000006000000000000599000000000060000706000000000000203500000000000122057200000000000000009999123100000010000000000000BRTRADACNOR3102
012024110602TRIS3       010TRISUL      ON      NM   R$  000000000054900000000005600000000000536000000000055200000000005570000000000553000000000055701717000000000000809200000000000447242900000000000000009999123100000010000000000000BRTRISACNOR4118
012024110602TRPL3       010TRAN PAULISTON      N1   R$  000000000307200000000032500000000003043000000000317000000000031180000000003038000000000320000056000000000000007800000000000024731100000000000000009999123100000010000000000000BRTRPLACNOR4185
012024110602TRPL4       010TRAN PAULISTPN      N1   R$  000000000243100000000024900000000002428000000000245900000000024520000000002451000000000245510292000000000002081900000000005120187700000000000000009999123100000010000000000000BRTRPLACNPR1185
012024110602VBBR3       010VIBRA       ON      NM   R$  000000000229400000000023460000000002255000000000231100000000023290000000002319000000000232930734000000000016876200000000039004942700000000000000009999123100000010000000000000BRVBBRACNOR1109
012024110602ALPA3       010ALPARGATAS  ON      N1   R$  000000000062900000000006430000000000623000000000063500000000006260000000000626000000000064300155000000000000029100000000000018493300000000000000009999123100000010000000000000BRALPAACNOR0231
012024110602ALPA4       010ALPARGATAS  PN      N1   R$  000000000071800000000007280000000000713000000000072100000000007280000000000727000000000072909542000000000001999000000000001441728300000000000000009999123100000010000000000000BRALPAACNPR7232
012024110602ALPK3       010ESTAPAR     ON      NM   R$  000000000030900000000003160000000000298000000000030700000000003140000000000312000000000031400396000000000000299900000000000092273300000000000000009999123100000010000000000000BRALPKACNOR9101
012024110602ALUP11      010ALUPAR      UNT     N2   R$  000000000287500000000029020000000002833000000000287400000000028890000000002887000000000289103603000000000000646600000000001858863800000000000000009999123100000010000000000000BRALUPCDAM15120
012024110602ALUP3       010ALUPAR      ON      N2   R$  000000000098300000000010000000000000970000000000098700000000010000000000000980000000000100000086000000000000010400000000000010270700000000000000009999123100000010000000000000BRALUPACNOR8120
012024110602ALUP4       010ALUPAR      PN      N2   R$  000000000094700000000009550000000000931000000000094400000000009550000000000948000000000095500144000000000000025800000000000024379100000000000000009999123100000010000000000000BRALUPACNPR5120
012024110602AMAR3       010LOJAS MARISAON      NM   R$  000000000009400000000000960000000000094000000000009400000000000940000000000094000000000009600326000000000000211600000000000020058600000000000000009999123100000010000000000000BRAMARACNOR4115
012024110602AMBP3       010AMBIPAR     ON      NM   R$  000000001330000000000146000000000013227000000001397400000000146000000000014400000000001460000866000000000000125400000000001752452100000000000000009999123100000010000000000000BRAMBPACNOR6103
012024110602ANIM3       010ANIMA       ON      NM   R$  000000000025300000000002710000000000249000000000026300000000002670000000000266000000000026806721000000000008092800000000002136404600000000000000009999123100000010000000000000BRANIMACNOR6109
012024110602BBDC3       010BRADESCO    ON  EJ  N1   R$  000000000122700000000012330000000001211000000000122300000000012280000000001228000000000122912206000000000010071500000000012325437000000000000000009999123100000010000000000000BRBBDCACNOR1777
012024110602BBDC4       010BRADESCO    PN  EJ  N1   R$  000000000137900000000013850000000001355000000000137100000000013810000000001380000000000138157297000000000061380900000000084185785400000000000000009999123100000010000000000000BRBBDCACNPR8777
012024110602BOBR4       010BOMBRIL     PN           R$  000000000027200000000002780000000000270000000000027300000000002740000000000274000000000027700049000000000000028200000000000007713500000000000000009999123100000010000000000000BRBOBRACNPR3128
012024110602VSTE3       010VESTE       ON      NM   R$  000000000107500000000010750000000001019000000000104700000000010190000000001019000000000105800048000000000000007500000000000007854100000000000000009999123100000010000000000000BRVSTEACNOR5103
012024110602PINE3       010PINE        ON      N2   R$  000000000048700000000004880000000000475000000000048300000000004840000000000479000000000048500014000000000000003300000000000001595300000000000000009999123100000010000000000000BRPINEACNOR1152
012024110602PINE4       010PINE        PN      N2   R$  000000000046100000000004670000000000452000000000045900000000004670000000000464000000000046700308000000000000117000000000000053765900000000000000009999123100000010000000000000BRPINEACNPR8152
012024110602PLAS3       010PLASCAR PARTON           R$  000000000060000000000006000000000000590000000000059500000000006000000000000560000000000060000004000000000000000400000000000000238000000000000000009999123100000010000000000000BRPLASACNOR2106
012024110602PLPL3       010PLANOEPLANO ON      NM   R$  000000000136900000000013720000000001321000000000134600000000013370000000001337000000000134007051000000000001361800000000001833260700000000000000009999123100000010000000000000BRPLPLACNOR5104
012024110602PNVL3       010DIMED       ON      NM   R$  000000000101400000000010280000000000998000000000101000000000010190000000001015000000000102001259000000000000481000000000000486087500000000000000009999123100000010000000000000BRPNVLACNOR9208
012024110602POMO3       010MARCOPOLO   ON      N2   R$  000000000067400000000006800000000000656000000000066800000000006580000000000658000000000065901578000000000000469600000000000313932100000000000000009999123100000010000000000000BRPOMOACNOR0099
012024110602POMO4       010MARCOPOLO   PN      N2   R$  000000000086300000000008870000000000851000000000086800000000008550000000000854000000000085515154000000000009941000000000008634881800000000000000009999123100000010000000000000BRPOMOACNPR7099
012024110602PORT3       010WILSON SONS ON      NM   R$  000000000157500000000015890000000001561000000000157400000000015890000000001576000000000158902390000000000001453300000000002288177500000000000000009999123100000010000000000000BRPORTACNOR8110
012024110602POSI3       010POSITIVO TECON      NM   R$  000000000063000000000006410000000000615000000000062700000000006290000000000629000000000063202017000000000001098200000000000689211200000000000000009999123100000010000000000000BRPOSIACNOR9116
012024110602PRIO3       010PETRORIO    ON      NM   R$  000000000390000000000041050000000003885000000000402800000000040890000000004075000000000408933132000000000010767300000000043380284400000000000000009999123100000010000000000000BRPRIOACNOR1107
012024110602REDE3       010REDE ENERGIAON           R$  000000000067700000000006780000000000644000000000066000000000006750000000000673000000000067800029000000000000005200000000000003435800000000000000009999123100000010000000000000BRREDEACNOR7128
012024110602RENT3       010LOCALIZA    ON      NM   R$  000000000416800000000043110000000004127000000000423700000000042650000000004264000000000426824767000000000008753400000000037093934100000000000000009999123100000010000000000000BRRENTACNOR4197
012024110602TASA3       010TAURUS ARMASON      N2   R$  000000000101700000000011000000000001017000000000105100000000010450000000001030000000000104500204000000000000036500000000000038374000000000000000009999123100000010000000000000BRTASAACNOR7104
012024110602TASA4       010TAURUS ARMASPN      N2   R$  000000000101300000000011140000000001013000000000105800000000010400000000001039000000000104004110000000000001070000000000001132261900000000000000009999123100000010000000000000BRTASAACNPR4104
012024110602TCSA3       010TECNISA     ON      NM   R$  000000000013800000000001460000000000138000000000014200000000001460000000000143000000000014600155000000000000087800000000000012518500000000000000009999123100000010000000000000BRTCSAACNOR3112
012024110602TECN3       010TECHNOS     ON      NM   R$  000000000050800000000005220000000000504000000000051300000000005180000000000515000000000051800141000000000000045700000000000023463400000000000000009999123100000010000000000000BRTECNACNOR6109
012024110602TELB3       010TELEBRAS    ON           R$  000000000137000000000013730000000001320000000000134400000000013200000000001320000000000138000024000000000000005400000000000007261000000000000000009999123100000010000000000000BRTELBACNOR2140
012024110602TELB4       010TELEBRAS    PN           R$  000000000090000000000009000000000000872000000000088100000000008790000000000879000000000088600040000000000000011400000000000010048100000000000000009999123100000010000000000000BRTELBACNPR9140
012024110602TEND3       010TENDA       ON      NM   R$  000000000152500000000015890000000001511000000000155500000000015840000000001575000000000158410024000000000004516400000000007025887500000000000000009999123100000010000000000000BRTENDACNOR4111
012024110602TFCO4       010TRACK FIELD PN      N2   R$  000000000099900000000010250000000000992000000000100500000000010120000000001011000000000102401028000000000000421200000000000423607400000000000000009999123100000010000000000000BRTFCOACNPR8115
012024110602TGMA3       010TEGMA       ON      NM   R$  000000000313000000000032130000000003113000000000318200000000032130000000003204000000000321302787000000000000435200000000001384925600000000000000009999123100000010000000000000BRTGMAACNOR7145
012024110602TIMS3       010TIM         ON      NM   R$  000000000159200000000016300000000001564000000000160500000000016120000000001611000000000161222441000000000009422800000000015131197000000000000000009999123100000010000000000000BRTIMSACNOR5118
012024110602TOTS3       010TOTVS       ON      NM   R$  000000000338100000000035140000000003249000000000341000000000034000000000003392000000000340233182000000000011040200000000037651242600000000000000009999123100000010000000000000BRTOTSACNOR8145
012024110602TPIS3       010TRIUNFO PARTON      NM   R$  000000000069900000000007110000000000685000000000070000000000006990000000000697000000000069900233000000000000057300000000000040153700000000000000009999123100000010000000000000BRTPISACNOR8118
012024110607TXRX4       010TEX RENAUX  PN           R$  000000000022200000000002230000000000221000000000022100000000002230000000000219000000000022500005000000000000001100000000000000244100000000000000009999123100000010000000000000BRTXRXACNPR0142
012024110607SEQL3       010SEQUOIA LOG ON      NM   R$  000000000039500000000004020000000000382000000000039400000000003980000000000395000000000039801511000000000000998900000000000394063000000000000000009999123100000010000000000000BRSEQLACNOR2103
012024110607NUTR3       010NUTRIPLANT  ON      MA   R$  000000000038000000000003980000000000377000000000039000000000003980000000000384000000000039800026000000000000005100000000000001989000000000000000009999123100000010000000000000BRNUTRACNOR0104
012024110608RNEW11      010RENOVA      UNT     N2   R$  000000000032100000000003230000000000315000000000031900000000003230000000000318000000000033000026000000000000005100000000000001630800000000000000009999123100000010000000000000BRRNEWCDAM15110
012024110608RNEW3       010RENOVA      ON      N2   R$  000000000010300000000001080000000000103000000000010400000000001080000000000104000000000010800117000000000000146800000000000015402100000000000000009999123100000010000000000000BRRNEWACNOR8110
012024110608RNEW4       010RENOVA      PN      N2   R$  000000000010800000000001080000000000105000000000010600000000001080000000000107000000000010800228000000000000203600000000000021686100000000000000009999123100000010000000000000BRRNEWACNPR5110
012024110608RPMG3       010PET MANGUINHON           R$  000000000028300000000002830000000000278000000000028000000000002780000000000277000000000027800026000000000000012400000000000003479500000000000000009999123100000010000000000000BRRPMGACNOR9194
012024110608RSID3       010ROSSI RESID ON      NM   R$  000000000031400000000003140000000000304000000000030900000000003140000000000303000000000031400097000000000000023700000000000007340300000000000000009999123100000010000000000000BRRSIDACNOR8120
012024110608LIGT3       010LIGHT S/A   ON  ES  NM   R$  000000000049100000000005050000000000487000000000049500000000004950000000000492000000000049501233000000000000344400000000000170649600000000000000009999123100000010000000000000BRLIGTACNOR2125
012024110608ATMP3       010ATMASA      ON           R$  000000000013200000000001340000000000132000000000013300000000001340000000000132000000000013700007000000000000001800000000000000239600000000000000009999123100000010000000000000BRATMPACNOR8100
012024110608CTSA3       010SANTANENSE  ON           R$  000000000020700000000002070000000000207000000000020700000000002070000000000200000000000020700004000000000000001000000000000000207000000000000000009999123100000010000000000000BRCTSAACNOR3062
012024110608CTSA4       010SANTANENSE  PN           R$  000000000010100000000001010000000000101000000000010100000000001010000000000101000000000010200008000000000000002000000000000000202000000000000000009999123100000010000000000000BRCTSAACNPR0062
012024110608JFEN3       010JOAO FORTES ON           R$  000000000002300000000000240000000000021000000000002200000000000230000000000023000000000002400315000000000001569700000000000035477000000000000000009999123100000010000000000000BRJFENACNOR0059
012024110608AGXY3       010AGROGALAXY  ON      NM   R$  000000000003900000000000420000000000039000000000004000000000000420000000000041000000000004200203000000000000188300000000000007540500000000000000009999123100000010000000000000BRAGXYACNOR4103
012024110608HOOT4       010HOTEIS OTHONPN           R$  000000000023500000000002540000000000234000000000023800000000002340000000000235000000000023900016000000000000004800000000000001147100000000000000009999123100000010000000000000BRHOOTACNPR9015
012024110608OIBR3       010OI          ON      N1   R$  000000000045200000000004520000000000432000000000043900000000004320000000000432000000000043500885000000000000512300000000000225375200000000000000009999123100000010000000000000BROIBRACNOR1112
012024110608OIBR4       010OI          PN      N1   R$  000000000115800000000011580000000001097000000000113000000000011340000000001105000000000115400017000000000000004100000000000004636700000000000000009999123100000010000000000000BROIBRACNPR8111
012024110608OSXB3       010OSX BRASIL  ON      NM   R$  000000000048400000000005380000000000483000000000049800000000004930000000000489000000000051300049000000000000015700000000000007833000000000000000009999123100000010000000000000BROSXBACNOR8109
012024110608NEXP3       010NEXPE       ON           R$  000000000044600000000004500000000000445000000000044700000000004450000000000437000000000045200004000000000000000500000000000000223800000000000000009999123100000010000000000000BRNEXPACNOR0101
012024110608AMER3       010AMERICANAS  ON      NM   R$  000000000033800000000003400000000000326000000000033100000000003270000000000327000000000032905528000000000007421100000000002460012100000000000000009999123100000010000000000000BRAMERACNOR6103
012024110608PMAM3       010PARANAPANEMAON      NM   R$  000000000009700000000001100000000000095000000000010200000000001000000000000100000000000010100543000000000000555900000000000056805000000000000000009999123100000010000000000000BRPMAMACNOR3040
012024110610MBLY1       010MOBLY       DIR ORD NM   R$  000000000000100000000000010000000000001000000000000100000000000010000000000000000000000000100004000000000000000900000000000000000900000000000000009999123100000010000000000000BRMBLYD01OR0100
012024110610MBLY11      010MOBLY       DIR     NM   R$  000000000000900000000000100000000000006000000000000700000000000060000000000006000000000000900023000000000000013300000000000000099200000000000000009999123100000010000000000000BRMBLYD01M18100
012024110610LIGT11      010LIGHT S/A   DIR     NM   R$  000000000000100000000000010000000000001000000000000100000000000010000000000000000000000000100196000000000002177200000000000002177200000000000000009999123100000010000000000000BRLIGTD01M16124
012024110610LIGT13      010LIGHT S/A   DIR     NM   R$  000000000000200000000000020000000000001000000000000100000000000010000000000000000000000000100081000000000000657400000000000000660000000000000000009999123100000010000000000000BRLIGTD02M15124
012024110610BSLI2       010BRB BANCO   DIR PRE      R$  000000000006000000000000600000000000060000000000006000000000000600000000000005000000000000000001000000000000000100000000000000006000000000000000009999123100000010000000000000BRBSLID03PR3194
012024110610HBSA1       010HIDROVIAS   DIR ORD NM   R$  000000000000100000000000020000000000001000000000000100000000000020000000000001000000000000200122000000000001228900000000000001334600000000000000009999123100000010000000000000BRHBSAD01OR5100
012024110610PINE1       010PINE        DIR ORD N2   R$  000000000001500000000000190000000000012000000000001400000000000130000000000012000000000001300035000000000000034500000000000000501700000000000000009999123100000010000000000000BRPINED04OR0150
012024110610PINE2       010PINE        DIR PRE N2   R$  000000000002500000000000250000000000025000000000002500000000000250000000000011000000000002500004000000000000000600000000000000015000000000000000009999123100000010000000000000BRPINED06PR2150
012024110612AIEC11      010FII AUTONOMYCI  ER       R$  000000000450500000000045330000000004420000000000446200000000044540000000004452000000000445400992000000000000016199000000000072296102000000000000009999123100000010000000000000BRAIECCTF009150
012024110612AJFI11      010FII AJ MALLSCI           R$  000000000072600000000007490000000000726000000000074200000000007420000000000742000000000074901275000000000000038078000000000028275471000000000000009999123100000010000000000000BRAJFICTF001111
012024110612ALMI11      010FII TORRE ALCI  ER       R$  000000006000000000000600000000000058001000000005957000000000600000000000057900000000006000000005000000000000000047000000000002799808000000000000009999123100000010000000000000BRALMICTF003253
012024110612BBFI11      010FII BB PROGRCI           R$  000000003660600000000369990000000036530000000003665100000000365300000000036530000000003698500041000000000000000150000000000005497793000000000000009999123100000010000000000000BRBBFICTF006329
012024110612BBFO11      010FII BB FOF  CI  ER       R$  000000000648900000000064950000000006410000000000642300000000064600000000006438000000000648503600000000000000005278000000000033905451000000000000009999123100000010000000000000BRBBFOCTF004146
012024110612BBIG11      010FII BBIG    CI  ER       R$  000000000085100000000008510000000000800000000000082300000000008260000000000822000000000082604371000000000000263615000000000217179338000000000000009999123100000010000000000000BRBBIGCTF004106
012024110612BBRC11      010FII BB CORP CI  ER       R$  000000001089400000000109920000000010791000000001087400000000108610000000010791000000001086100055000000000000000505000000000005491380000000000000009999123100000010000000000000BRBBRCCTF004258
012024110612CNES11      010FII CENESP  CI           R$  000000000013400000000001340000000000130000000000013100000000001310000000000131000000000013300544000000000000027997000000000003683455000000000000009999123100000010000000000000BRCNESCTF001264
012024110612DPRO11      010FII DEVA PROCI           R$  000000000069900000000006990000000000610000000000064900000000006700000000000620000000000069300076000000000000000737000000000000478472000000000000009999123100000010000000000000BRDPROCTF005128
012024110612DRIT11      010FII MTGESTAOCI           R$  000000000886000000000088600000000007861000000000809300000000078610000000007861000000001101900015000000000000000028000000000000226613000000000000009999123100000010000000000000BRDRITCTF009257
012024110612DVFF11      010FII DEVA FOFCI           R$  000000000068500000000006860000000000680000000000068200000000006850000000000678000000000068500058000000000000000921000000000000628145000000000000009999123100000010000000000000BRDVFFCTF006142
012024110612EDFO11      010FII OURINVESCI  ER       R$  000000001570000000000164850000000015615000000001574800000000156150000000015615000000001600000003000000000000000011000000000000173230000000000000009999123100000010000000000000BREDFOCTF004328
012024110612EDGA11      010FII GALERIA CI           R$  000000000180900000000018090000000001792000000000179700000000017930000000001792000000000180500012000000000000000126000000000000226521000000000000009999123100000010000000000000BREDGACTF001246
012024110612EGDB11      010FII EGDB    CI           R$  000000010405700000001040570000000104057000000010405700000001040570000000000000000000000000000002000000000000000012000000000001248684000000000000009999123100000010000000000000BREGDBCTF009100
012024110612IRDM11      010FII IRIDIUM CI           R$  000000000677400000000068000000000006724000000000677600000000067750000000006775000000000679905077000000000000060598000000000410623457000000000000009999123100000010000000000000BRIRDMCTF004190
012024110612IRIM11      010FII IRIM    CI           R$  000000000690600000000069060000000006803000000000689400000000068680000000006868000000000687500050000000000000004414000000000030430681000000000000009999123100000010000000000000BRIRIMCTF003139
012024110612ITIP11      010FII INTER IPCI  ER       R$  000000000709700000000071000000000007035000000000706700000000070500000000007049000000000705000069000000000000001357000000000009591110000000000000009999123100000010000000000000BRITIPCTF002134
012024110612ITIT11      010FII INTER ITCI  ER       R$  000000000709000000000071300000000007090000000000710700000000071300000000007118000000000713000049000000000000000391000000000002778948000000000000009999123100000010000000000000BRITITCTF004134
012024110612ITRI11      010FII ITRI    CI  ER       R$  000000000811800000000081250000000008030000000000807700000000080650000000008065000000000810703670000000000000025642000000000207125951000000000000009999123100000010000000000000BRITRICTF008107
012024110612LSPA11      010FII LESTE PACI  ERA      R$  000000000299800000000032490000000002800000000000301900000000028500000000002800000000000285000107000000000000000807000000000002436885000000000000009999123100000010000000000000BRLSPACTF005144
012024110612LVBI11      010FII VBI LOG CI  ER       R$  000000001000000000000100150000000009950000000000997800000000100090000000009970000000001000906039000000000000026875000000000268171572000000000000009999123100000010000000000000BRLVBICTF002174
012024110612CEOC11      010FII CEO CCP CI           R$  000000000411300000000041650000000004091000000000413100000000041640000000004101000000000416500036000000000000000518000000000002139917000000000000009999123100000010000000000000BRCEOCCTF003219
012024110612CJCT11      010FII CJCTOWERCI  ER       R$  000000000510000000000053490000000005000000000000501000000000053490000000005101000000000535000006000000000000002869000000000014376198000000000000009999123100000010000000000000BRCJCTCTF001120
012024110612CLIN11      010FII CLAVE INCI           R$  000000000937400000000094490000000009350000000000941600000000094300000000009405000000000943002935000000000000026355000000000248184588000000000000009999123100000010000000000000BRCLINCTF007112
012024110612VIFI11      010FII VINCI IFCI  ER       R$  000000000071500000000007390000000000702000000000071900000000007290000000000716000000000073000529000000000000021598000000000015548083000000000000009999123100000010000000000000BRVIFICTF009161
012024110612VILG11      010FII VINCI LGCI  ER       R$  000000000796000000000079820000000007933000000000794200000000079340000000007934000000000794503620000000000000016333000000000129719373000000000000009999123100000010000000000000BRVILGCTF001176
012024110612VINO11      010FII VINCI OFCI  ER       R$  000000000049500000000004950000000000490000000000049200000000004930000000000491000000000049303134000000000000105329000000000051860607000000000000009999123100000010000000000000BRVINOCTF001162
012024110612VISC11      010FII VINCI SCCI  ER       R$  000000001034700000000103480000000010220000000001028300000000102950000000010295000000001029708231000000000000038321000000000394091107000000000000009999123100000010000000000000BRVISCCTF005191
012024110612VIUR11      010FII VINCI IUCI  ER       R$  000000000055600000000005560000000000545000000000055000000000005500000000000550000000000055303873000000000000050521000000000027814090000000000000009999123100000010000000000000BRVIURCTF009142
012024110612CXRI11      010FII CX RBRAVCI  ER       R$  000000000744400000000074440000000007161000000000717500000000071610000000007022000000000716000005000000000000000020000000000000143503000000000000009999123100000010000000000000BRCXRICTF003233
012024110612CXTL11      010FII CX TRX  CI  ER       R$  000000002160200000000216020000000021600000000002160100000000216000000000021600000000002249900003000000000000000004000000000000086404000000000000009999123100000010000000000000BRCXTLCTF003242
012024110612CYCR11      010FII CYRELA  CI  ER       R$  000000000086900000000008790000000000848000000000086400000000008750000000000871000000000087501175000000000000076316000000000065977861000000000000009999123100000010000000000000BRCYCRCTF004144
012024110612FAED11      010FII ANH EDUCCI           R$  000000001409600000000141710000000013790000000001392000000000138220000000013820000000001407700133000000000000000579000000000008059812000000000000009999123100000010000000000000BRFAEDCTF003282
012024110612FAMB11      010FII ALMIRANTCI           R$  000000018789900000001878990000000186025000000018696200000001860250000000186018000000019049900002000000000000000002000000000000373924000000000000009999123100000010000000000000BRFAMBCTF018316
012024110612FATN11      010FII ATHENA ICI           R$  000000000878900000000088200000000008657000000000872800000000087960000000008770000000000879600892000000000000005485000000000047873645000000000000009999123100000010000000000000BRFATNCTF000156
012024110612FCFL11      010FII CAMPUSFLCI           R$  000000001121100000000114190000000011200000000001121900000000114190000000011211000000001140700037000000000000000400000000000004487686000000000000009999123100000010000000000000BRFCFLCTF009274
012024110612FIGS11      010FII GEN SHOPCI  ER       R$  000000000497600000000050190000000004800000000000494800000000049770000000004966000000000497700174000000000000002979000000000014741790000000000000009999123100000010000000000000BRFIGSCTF009233
012024110612FIIB11      010FII INDL BR CI  ER       R$  000000005048800000000504900000000050152000000005034800000000503220000000050201000000005032200098000000000000000256000000000012889268000000000000009999123100000010000000000000BRFIIBCTF001256
012024110612FIIP11      010FII RB CAP ICI  ER       R$  000000001595400000000165980000000015901000000001613900000000165490000000015916000000001654900135000000000000001607000000000025935946000000000000009999123100000010000000000000BRFIIPCTF001280
012024110612FISC11      010FII SC 401  CI           R$  000000000650000000000065000000000006500000000000650000000000065000000000006164000000000749800005000000000000000439000000000002853500000000000000009999123100000010000000000000BRFISCCTF008140
012024110612KCRE11      010FII KINEA CRCI  ER       R$  000000000087000000000008840000000000869000000000087300000000008740000000000872000000000087400498000000000000039859000000000034832806000000000000009999123100000010000000000000BRKCRECTF009130
012024110612KFOF11      010FII KINEAFOFCI  ER       R$  000000000754800000000076950000000007541000000000760600000000076770000000007677000000000769505729000000000000026832000000000204098525000000000000009999123100000010000000000000BRKFOFCTF006174
012024110612KISU11      010FII KILIMA  CI  ER       R$  000000000073500000000007380000000000719000000000072700000000007190000000000719000000000072403735000000000000127305000000000092597984000000000000009999123100000010000000000000BRKISUCTF000149
012024110612KIVO11      010FII KIVO    CI  ER       R$  000000000751400000000078140000000007491000000000767400000000075120000000007512000000000765302426000000000000005389000000000041355438000000000000009999123100000010000000000000BRKIVOCTF007132
012024110612MXRF11      010FII MAXI RENCI  ER       R$  000000000093100000000009360000000000926000000000093200000000009280000000000928000000000092947297000000000002047647000000001908957351000000000000009999123100000010000000000000BRMXRFCTF008258
