00COTAHIST.2024BOVESPA 20241104                                                                                                                                                                                                                      
012024110402MWET4       010WETZEL S/A  PN           R$  000000000102900000000010290000000000976000000000098700000000009760000000000975000000000101100004000000000000000500000000000000493500000000000000009999123100000010000000000000BRMWETACNPR3118
012024110402MYPK3       010IOCHP-MAXIONON      NM   R$  000000000100300000000010450000000001001000000000103200000000010340000000001033000000000103904958000000000001036200000000001069761200000000000000009999123100000010000000000000BRMYPKACNOR7156
012024110402TOTS3       010TOTVS       ON      NM   R$  000000000313300000000033540000000003099000000000325100000000033180000000003309000000000331827079000000000006920600000000022505449500000000000000009999123100000010000000000000BRTOTSACNOR8145
012024110402VAMO3       010VAMOS       ON      NM   R$  000000000058900000000006220000000000586000000000060800000000006170000000000615000000000061709957000000000006291500000000003830325300000000000000009999123100000010000000000000BRVAMOACNOR7105
012024110402VBBR3       010VIBRA       ON      NM   R$  000000000224800000000022780000000002227000000000226300000000022620000000002261000000000226313227000000000005959900000000013490826100000000000000009999123100000010000000000000BRVBBRACNOR1109
012024110402NEOE3       010NEOENERGIA  ON      NM   R$  000000000190000000000019480000000001900000000000193800000000019460000000001943000000000194703833000000000001177200000000002281812600000000000000009999123100000010000000000000BRNEOEACNOR3123
012024110402RADL3       010RAIADROGASILON      NM   R$  000000000246000000000025230000000002428000000000249200000000025180000000002518000000000252315197000000000006049300000000015079574900000000000000009999123100000010000000000000BRRADLACNOR0158
012024110402SLCE3       010SLC AGRICOLAON      NM   R$  000000000174000000000017480000000001716000000000173300000000017310000000001727000000000173107929000000000002366300000000004101531000000000000000009999123100000010000000000000BRSLCEACNOR2125
012024110402YDUQ3       010YDUQS PART  ON      NM   R$  000000000103500000000011070000000001032000000000107100000000010810000000001080000000000108111575000000000008634100000000009253641300000000000000009999123100000010000000000000BRYDUQACNOR3105
012024110402EALT3       010ACO ALTONA  ON           R$  000000000150000000000015000000000001436000000000147800000000015000000000001436000000000153000003000000000000000300000000000000443600000000000000009999123100000010000000000000BREALTACNOR4138
012024110402EALT4       010ACO ALTONA  PN           R$  000000000132200000000013310000000001301000000000132200000000013310000000001316000000000133000036000000000000005900000000000007801500000000000000009999123100000010000000000000BREALTACNPR1138
012024110402ZAMP3       010ZAMP S.A.   ON           R$  000000000023200000000002440000000000232000000000023900000000002360000000000236000000000024202070000000000000577900000000000138290700000000000000009999123100000010000000000000BRZAMPACNOR5101
012024110402MTRE3       010MITRE REALTYON  ED  NM   R$  000000000036400000000003730000000000362000000000036700000000003680000000000367000000000036801168000000000000618300000000000227378400000000000000009999123100000010000000000000BRMTREACNOR6116
012024110402MTSA4       010METISA      PN           R$  000000000361900000000036190000000003503000000000354700000000035030000000003503000000000355000009000000000000001400000000000004966400000000000000009999123100000010000000000000BRMTSAACNPR9073
012024110402MULT3       010MULTIPLAN   ON      N2   R$  000000000253400000000025820000000002518000000000255600000000025660000000002566000000000257115137000000000005206400000000013307788700000000000000009999123100000010000000000000BRMULTACNOR5139
012024110402PRNR3       010PRINER      ON      NM   R$  000000000136800000000013930000000001357000000000138000000000013830000000001383000000000138501315000000000000265400000000000366456600000000000000009999123100000010000000000000BRPRNRACNOR4109
012024110402PSSA3       010PORTO SEGUROON      NM   R$  000000000382200000000038240000000003734000000000376500000000037600000000003760000000000376110296000000000002195900000000008269017400000000000000009999123100000010000000000000BRPSSAACNOR7156
012024110402PTBL3       010PORTOBELLO  ON      NM   R$  000000000040600000000004290000000000406000000000041800000000004290000000000427000000000042901866000000000000680100000000000284849900000000000000009999123100000010000000000000BRPTBLACNOR8132
012024110402PTNT3       010PETTENATI   ON  EDJ      R$  000000000092200000000009540000000000922000000000094100000000009440000000000934000000000095300005000000000000000500000000000000470500000000000000009999123100000010000000000000BRPTNTACNOR6043
012024110402PTNT4       010PETTENATI   PN  EDJ      R$  000000000063000000000006410000000000624000000000063100000000006240000000000624000000000063700046000000000000015800000000000009977900000000000000009999123100000010000000000000BRPTNTACNPR3048
012024110402QUAL3       010QUALICORP   ON      NM   R$  000000000023300000000002550000000000228000000000024600000000002550000000000254000000000025508213000000000011581100000000002859079100000000000000009999123100000010000000000000BRQUALACNOR6120
012024110402SCAR3       010SAO CARLOS  ON      NM   R$  000000000220200000000022020000000002167000000000218800000000021980000000002162000000000219900031000000000000008300000000000018160700000000000000009999123100000010000000000000BRSCARACNOR7131
012024110402SEER3       010SER EDUCA   ON      NM   R$  000000000069000000000007530000000000690000000000073400000000007470000000000746000000000075004455000000000001077700000000000791143000000000000000009999123100000010000000000000BRSEERACNOR5119
012024110402SHOW3       010TIME FOR FUNON      NM   R$  000000000009000000000000920000000000089000000000009000000000000900000000000090000000000009100246000000000000116900000000000010572800000000000000009999123100000010000000000000BRSHOWACNOR7105
012024110402SHUL4       010SCHULZ      PN           R$  000000000061500000000006370000000000615000000000062900000000006270000000000627000000000063300885000000000000313900000000000197609300000000000000009999123100000010000000000000BRSHULACNPR4157
012024110402SIMH3       010SIMPAR      ON      NM   R$  000000000050800000000005460000000000505000000000053300000000005440000000000541000000000054405872000000000003909400000000002083877000000000000000009999123100000010000000000000BRSIMHACNOR0107
012024110402VALE3       010VALE        ON      NM   R$  000000000624000000000062870000000006212000000000625600000000062670000000006256000000000626829836000000000012360000000000077332027800000000000000009999123100000010000000000000BRVALEACNOR0211
012024110402WEST3       010WESTWING    ON      NM   R$  000000000007900000000000790000000000077000000000007800000000000790000000000078000000000007900030000000000000030700000000000002415100000000000000009999123100000010000000000000BRWESTACNOR3100
012024110402WHRL3       010WHIRLPOOL   ON           R$  000000000041400000000004180000000000414000000000041500000000004180000000000414000000000041800005000000000000000900000000000000374200000000000000009999123100000010000000000000BRWHRLACNOR5129
012024110402WHRL4       010WHIRLPOOL   PN           R$  000000000044500000000004490000000000441000000000044600000000004440000000000444000000000044700011000000000000001700000000000000758600000000000000009999123100000010000000000000BRWHRLACNPR2129
012024110402WIZC3       010WIZ CO      ON      NM   R$  000000000057100000000005850000000000569000000000057700000000005720000000000572000000000057701838000000000000400500000000000231405600000000000000009999123100000010000000000000BRWIZCACNOR5102
012024110402WLMM4       010WLM IND COM PN           R$  000000000310100000000031010000000002968000000000301200000000029990000000002906000000000300000011000000000000001200000000000003615500000000000000009999123100000010000000000000BRWLMMACNPR3119
012024110402ODPV3       010ODONTOPREV  ON      NM   R$  000000000110700000000011430000000001099000000000112600000000011430000000001143000000000114403274000000000000980000000000001103515000000000000000009999123100000010000000000000BRODPVACNOR4204
012024110402OFSA3       010OUROFINO S/AON      NM   R$  000000000214400000000022000000000002144000000000217200000000022000000000002141000000000221000002000000000000000200000000000000434400000000000000009999123100000010000000000000BROFSAACNOR7118
012024110402ONCO3       010ONCOCLINICASON      NM   R$  000000000044700000000004620000000000442000000000045000000000004480000000000448000000000045403599000000000004697800000000002115528900000000000000009999123100000010000000000000BRONCOACNOR6101
012024110402OPCT3       010OCEANPACT   ON      NM   R$  000000000059800000000006180000000000596000000000060800000000006070000000000606000000000060902752000000000000616400000000000375135700000000000000009999123100000010000000000000BROPCTACNOR0100
012024110402ORVR3       010ORIZON      ON      NM   R$  000000000457200000000047720000000004572000000000468800000000047060000000004690000000000470802866000000000000674200000000003160740700000000000000009999123100000010000000000000BRORVRACNOR0101
012024110402CAMB3       010CAMBUCI     ON           R$  000000000119000000000012290000000001183000000000120800000000012000000000001200000000000120900137000000000000029600000000000035778900000000000000009999123100000010000000000000BRCAMBACNOR4131
012024110402CAML3       010CAMIL       ON      NM   R$  000000000078000000000007990000000000780000000000079200000000007900000000000787000000000079002226000000000000455800000000000361380900000000000000009999123100000010000000000000BRCAMLACNOR3129
012024110402CASH3       010MELIUZ      ON      NM   R$  000000000034300000000003550000000000338000000000034700000000003500000000000350000000000035201828000000000000770800000000000268169400000000000000009999123100000010000000000000BRCASHACNOR8107
012024110402CBAV3       010CBA         ON      NM   R$  000000000057600000000006050000000000573000000000059300000000006030000000000600000000000060304949000000000003410300000000002022559700000000000000009999123100000010000000000000BRCBAVACNOR5104
012024110402CCRO3       010CCR SA      ON      NM   R$  000000000120100000000012320000000001198000000000122300000000012310000000001229000000000123118220000000000011991900000000014672280000000000000000009999123100000010000000000000BRCCROACNOR2145
012024110402TAEE11      010TAESA       UNT     N2   R$  000000000346200000000035070000000003462000000000349500000000034950000000003493000000000349506347000000000001384800000000004840176400000000000000009999123100000010000000000000BRTAEECDAM10148
012024110402TAEE3       010TAESA       ON      N2   R$  000000000114900000000011600000000001149000000000115500000000011590000000001156000000000116000435000000000000085600000000000098895300000000000000009999123100000010000000000000BRTAEEACNOR9148
012024110402TAEE4       010TAESA       PN      N2   R$  000000000115600000000011680000000001156000000000116300000000011600000000001160000000000116600547000000000000115800000000000134698200000000000000009999123100000010000000000000BRTAEEACNPR6148
012024110402TASA3       010TAURUS ARMASON      N2   R$  000000000098400000000010080000000000970000000000099000000000010080000000000983000000000100800111000000000000019700000000000019522100000000000000009999123100000010000000000000BRTASAACNOR7104
012024110402TASA4       010TAURUS ARMASPN      N2   R$  000000000092900000000009930000000000929000000000096100000000009870000000000984000000000098801739000000000000401000000000000385443300000000000000009999123100000010000000000000BRTASAACNPR4104
012024110402TCSA3       010TECNISA     ON      NM   R$  000000000013500000000001430000000000135000000000013900000000001420000000000140000000000014200228000000000000252100000000000035131300000000000000009999123100000010000000000000BRTCSAACNOR3112
012024110402TECN3       010TECHNOS     ON      NM   R$  000000000052500000000005340000000000505000000000051700000000005240000000000508000000000052400507000000000000155200000000000080276400000000000000009999123100000010000000000000BRTECNACNOR6109
012024110402TELB3       010TELEBRAS    ON           R$  000000000136100000000014000000000001361000000000138100000000014000000000001375000000000141000007000000000000000800000000000001104800000000000000009999123100000010000000000000BRTELBACNOR2140
012024110402TELB4       010TELEBRAS    PN           R$  000000000087500000000008900000000000865000000000088000000000008800000000000877000000000089700032000000000000007000000000000006163900000000000000009999123100000010000000000000BRTELBACNPR9140
012024110402TEND3       010TENDA       ON      NM   R$  000000000150500000000015700000000001499000000000154100000000015610000000001561000000000156413410000000000003132500000000004830199100000000000000009999123100000010000000000000BRTENDACNOR4111
012024110402TFCO4       010TRACK FIELD PN      N2   R$  000000000099200000000010200000000000987000000000100800000000010200000000001009000000000102000828000000000000161900000000000163324300000000000000009999123100000010000000000000BRTFCOACNPR8115
012024110402TGMA3       010TEGMA       ON      NM   R$  000000000293600000000030400000000002928000000000299800000000030400000000003025000000000304002173000000000000391200000000001173171500000000000000009999123100000010000000000000BRTGMAACNOR7145
012024110402TIMS3       010TIM         ON      NM   R$  000000000166900000000016790000000001642000000000166200000000016790000000001665000000000167916516000000000010847500000000018029703200000000000000009999123100000010000000000000BRTIMSACNOR5118
012024110402ABCB4       010ABC BRASIL  PN      N2   R$  000000000207000000000021010000000002070000000000209200000000020900000000002089000000000209002978000000000000540800000000001131564000000000000000009999123100000010000000000000BRABCBACNPR4146
012024110402ABEV3       010AMBEV S/A   ON           R$  000000000125900000000012710000000001251000000000126200000000012670000000001266000000000126723046000000000019442900000000024539982600000000000000009999123100000010000000000000BRABEVACNOR1128
012024110402BAHI3       010BAHEMA      ON      MA   R$  000000000048300000000004830000000000473000000000047600000000004730000000000430000000000047300014000000000000006300000000000003003700000000000000009999123100000010000000000000BRBAHIACNOR1074
012024110402BAUH4       010EXCELSIOR   PN           R$  000000000740000000000078890000000007400000000000764400000000078890000000000000000000000789000002000000000000000200000000000001528900000000000000009999123100000010000000000000BRBAUHACNPR3118
012024110402BAZA3       010AMAZONIA    ON           R$  000000000912000000000091450000000009095000000000911800000000091450000000009100000000000930000008000000000000000800000000000007294500000000000000009999123100000010000000000000BRBAZAACNOR0179
012024110402BBAS3       010BRASIL      ON      NM   R$  000000000262700000000026420000000002615000000000262600000000026240000000002623000000000262426772000000000012169700000000031963334800000000000000009999123100000010000000000000BRBBASACNOR3326
012024110402CRFB3       010CARREFOUR BRON      NM   R$  000000000076500000000008190000000000760000000000079300000000008140000000000813000000000081419743000000000020220300000000016045952400000000000000009999123100000010000000000000BRCRFBACNOR2116
012024110402CRPG5       010CRISTAL     PNA          R$  000000000249100000000024980000000002468000000000249100000000024930000000002467000000000249800013000000000000002000000000000004983300000000000000009999123100000010000000000000BRCRPGACNPA3119
012024110402CRPG6       010CRISTAL     PNB          R$  000000000259900000000025990000000002550000000000256200000000025980000000002536000000000259800004000000000000000800000000000002049800000000000000009999123100000010000000000000BRCRPGACNPB1119
012024110402CSAN3       010COSAN       ON      NM   R$  000000000116400000000012200000000001163000000000120100000000012080000000001207000000000120820593000000000014071300000000016912330600000000000000009999123100000010000000000000BRCSANACNOR6126
012024110402ELMD3       010ELETROMIDIA ON      NM   R$  000000000177400000000018370000000001774000000000180800000000018370000000001806000000000183800678000000000000101700000000000183955200000000000000009999123100000010000000000000BRELMDACNOR3101
012024110402EMAE4       010EMAE        PN           R$  000000000394400000000039450000000003932000000000394000000000039330000000003933000000000397000010000000000000001500000000000005911000000000000000009999123100000010000000000000BREMAEACNPR1126
012024110402EMBR3       010EMBRAER     ON      NM   R$  000000000488800000000049500000000004880000000000491300000000048800000000004880000000000489013703000000000003533900000000017364322800000000000000009999123100000010000000000000BREMBRACNOR4191
012024110402BPAC11      010BTGP BANCO  UNT     N2   R$  000000000320100000000033150000000003195000000000327200000000033100000000003310000000000331222792000000000009841300000000032206678600000000000000009999123100000010000000000000BRBPACUNT006119
012024110402BPAC3       010BTGP BANCO  ON      N2   R$  000000000149500000000015460000000001490000000000153200000000015400000000001540000000000155000036000000000000004900000000000007506900000000000000009999123100000010000000000000BRBPACACNOR7134
012024110402BPAC5       010BTGP BANCO  PNA     N2   R$  000000000084900000000008740000000000848000000000086200000000008590000000000869000000000089000028000000000000004100000000000003537400000000000000009999123100000010000000000000BRBPACACNPA0134
012024110402CMIN3       010CSNMINERACAOON      N2   R$  000000000062800000000006360000000000614000000000062900000000006300000000000629000000000063011207000000000009173800000000005776240500000000000000009999123100000010000000000000BRCMINACNOR2112
012024110402COCE5       010COELCE      PNA          R$  000000000269800000000026980000000002614000000000264300000000026600000000002660000000000269600097000000000000018100000000000047839600000000000000009999123100000010000000000000BRCOCEACNPA3147
012024110402COGN3       010COGNA ON    ON      NM   R$  000000000014000000000001520000000000139000000000014700000000001510000000000150000000000015124302000000000063677300000000009391105900000000000000009999123100000010000000000000BRCOGNACNOR2105
012024110402SANB11      010SANTANDER BRUNT          R$  000000000270500000000027200000000002678000000000269800000000026830000000002683000000000269209943000000000002815700000000007596837600000000000000009999123100000010000000000000BRSANBCDAM13166
012024110402SANB3       010SANTANDER BRON           R$  000000000128500000000012870000000001270000000000127800000000012790000000001273000000000127900659000000000000184000000000000235287600000000000000009999123100000010000000000000BRSANBACNOR8173
012024110402SANB4       010SANTANDER BRPN           R$  000000000142000000000014300000000001412000000000142000000000014160000000001415000000000142000565000000000000129900000000000184491300000000000000009999123100000010000000000000BRSANBACNPR5173
012024110402TTEN3       0103TENTOS     ON      NM   R$  000000000114000000000011810000000001140000000000116600000000011650000000001165000000000116703856000000000000578800000000000675261400000000000000009999123100000010000000000000BRTTENACNOR0103
012024110402TUPY3       010TUPY        ON      NM   R$  000000000231900000000023690000000002319000000000235500000000023550000000002355000000000236703559000000000000633900000000001493083400000000000000009999123100000010000000000000BRTUPYACNOR1184
012024110402FESA4       010FERBASA     PN      N1   R$  000000000073600000000007690000000000736000000000075600000000007670000000000765000000000076801460000000000000470500000000000355876400000000000000009999123100000010000000000000BRFESAACNPR5085
012024110402FHER3       010FER HERINGERON      NM   R$  000000000038100000000003810000000000372000000000037700000000003720000000000371000000000037400009000000000000001000000000000000377600000000000000009999123100000010000000000000BRFHERACNOR5103
012024110402FIEI3       010FICA        ON           R$  000000000106000000000010600000000001040000000000105000000000010400000000001040000000000110000002000000000000000200000000000000210000000000000000009999123100000010000000000000BRFIEIACNOR2100
012024110402FIQE3       010UNIFIQUE    ON      NM   R$  000000000037900000000003940000000000374000000000038300000000003930000000000389000000000039301066000000000000497200000000000190849700000000000000009999123100000010000000000000BRFIQEACNOR5107
012024110402FLRY3       010FLEURY      ON      NM   R$  000000000145300000000014630000000001443000000000145300000000014550000000001455000000000145609518000000000002750700000000003996879400000000000000009999123100000010000000000000BRFLRYACNOR5139
012024110402FRAS3       010FRAS-LE     ON      N1   R$  000000000211900000000021680000000002111000000000215200000000021600000000002155000000000217101622000000000000238300000000000512857900000000000000009999123100000010000000000000BRFRASACNOR0160
012024110402FRIO3       010METALFRIO   ON      NM   R$  000000001270000000000134000000000012700000000001305200000000133450000000012400000000001334500023000000000000002500000000000032631200000000000000009999123100000010000000000000BRFRIOACNOR2111
012024110402MGLU3       010MAGAZ LUIZA ON      NM   R$  000000000091400000000009880000000000914000000000096100000000009780000000000978000000000097934561000000000045272300000000043531707200000000000000009999123100000010000000000000BRMGLUACNOR2125
012024110402AVLL3       010ALPHAVILLE  ON      NM   R$  000000000029300000000002950000000000290000000000029200000000002950000000000284000000000029500038000000000000023600000000000006904700000000000000009999123100000010000000000000BRAVLLACNOR5103
012024110402AZEV3       010AZEVEDO     ON           R$  000000000011600000000001200000000000114000000000011700000000001190000000000119000000000012000325000000000000593000000000000069544800000000000000009999123100000010000000000000BRAZEVACNOR0121
012024110402AZEV4       010AZEVEDO     PN           R$  000000000011600000000001210000000000116000000000011800000000001210000000000120000000000012101091000000000001992600000000000236116400000000000000009999123100000010000000000000BRAZEVACNPR7121
012024110402DXCO3       010DEXCO       ON      NM   R$  000000000080900000000008410000000000807000000000083000000000008370000000000837000000000083809833000000000003088900000000002565931800000000000000009999123100000010000000000000BRDXCOACNOR8105
012024110402GGBR3       010GERDAU      ON      N1   R$  000000000177500000000018130000000001767000000000179100000000018130000000001791000000000181300761000000000000213400000000000382350000000000000000009999123100000010000000000000BRGGBRACNOR1193
012024110402GGBR4       010GERDAU      PN      N1   R$  000000000185300000000018530000000001811000000000182400000000018230000000001823000000000182419481000000000010935800000000019955715500000000000000009999123100000010000000000000BRGGBRACNPR8193
012024110402ITUB3       010ITAUUNIBANCOON  EJ  N1   R$  000000000303000000000030530000000003007000000000303200000000030410000000003041000000000304301285000000000000246000000000000745950700000000000000009999123100000010000000000000BRITUBACNOR4343
012024110402ITUB4       010ITAUUNIBANCOPN  EJ  N1   R$  000000000351300000000035540000000003489000000000352400000000035280000000003525000000000352934180000000000020499900000000072251322700000000000000009999123100000010000000000000BRITUBACNPR1343
012024110402GEPA3       010GER PARANAP ON           R$  000000000283300000000028330000000002830000000000283000000000028300000000002840000000000293000003000000000000000900000000000002547400000000000000009999123100000010000000000000BRGEPAACNOR2154
012024110402GEPA4       010GER PARANAP PN           R$  000000000302400000000030240000000002950000000000297400000000029500000000002933000000000298000003000000000000000300000000000000892400000000000000009999123100000010000000000000BRGEPAACNPR9161
012024110402GFSA3       010GAFISA      ON      NM   R$  000000000014700000000001560000000000147000000000015100000000001550000000000155000000000015601508000000000004741900000000000720731500000000000000009999123100000010000000000000BRGFSAACNOR3125
012024110402ITSA3       010ITAUSA      ON      N1   R$  000000000105200000000010740000000001029000000000105600000000010600000000001060000000000106600802000000000000209300000000000221140100000000000000009999123100000010000000000000BRITSAACNOR0443
012024110402ITSA4       010ITAUSA      PN      N1   R$  000000000106000000000010740000000001056000000000106400000000010670000000001065000000000106719372000000000021237800000000022615432000000000000000009999123100000010000000000000BRITSAACNPR7443
012024110402LUPA3       010LUPATECH    ON      NM   R$  000000000014300000000001530000000000143000000000014700000000001460000000000146000000000014700157000000000000224500000000000033216100000000000000009999123100000010000000000000BRLUPAACNOR8112
012024110402LVTC3       010WDC NETWORKSON      NM   R$  000000000035200000000003620000000000352000000000035800000000003520000000000351000000000035800049000000000000016300000000000005850200000000000000009999123100000010000000000000BRLVTCACNOR4102
012024110402LWSA3       010LWSA        ON      NM   R$  000000000041500000000004440000000000414000000000043300000000004420000000000442000000000044311087000000000010892900000000004720767000000000000000009999123100000010000000000000BRLWSAACNOR8103
012024110402PDGR3       010PDG REALT   ON      NM   R$  000000000000100000000000020000000000001000000000000100000000000010000000000001000000000000200700000000000029414600000000000031215600000000000000009999123100000010000000000000BRPDGRACNOR8119
012024110402PDTC3       010PADTEC      ON      NM   R$  000000000017900000000001840000000000178000000000017800000000001790000000000178000000000017900049000000000000021300000000000003811700000000000000009999123100000010000000000000BRPDTCACNOR3101
012024110402PETR3       010PETROBRAS   ON      N2   R$  000000000388000000000038920000000003823000000000384900000000038340000000003833000000000383414279000000000006140100000000023638257600000000000000009999123100000010000000000000BRPETRACNOR9206
012024110402PETR4       010PETROBRAS   PN      N2   R$  000000000359000000000035950000000003538000000000356100000000035500000000003549000000000355041102000000000024003600000000085495640400000000000000009999123100000010000000000000BRPETRACNPR6214
012024110402MATD3       010MATER DEI   ON      NM   R$  000000000041300000000004210000000000413000000000041800000000004210000000000417000000000042100509000000000000153900000000000064462300000000000000009999123100000010000000000000BRMATDACNOR4104
012024110402MBLY3       010MOBLY       ON      NM   R$  000000000021200000000002160000000000172000000000018500000000001910000000000191000000000019601459000000000004593800000000000851843700000000000000009999123100000010000000000000BRMBLYACNOR5101
012024110402MDIA3       010M.DIASBRANCOON      NM   R$  000000000257300000000026300000000002572000000000261000000000026090000000002608000000000261203996000000000000772000000000002015434600000000000000009999123100000010000000000000BRMDIAACNOR7136
012024110402MDNE3       010MOURA DUBEUXON      NM   R$  000000000155500000000016230000000001554000000000159700000000016150000000001599000000000161904629000000000001066200000000001702786200000000000000009999123100000010000000000000BRMDNEACNOR9100
012024110402MEAL3       010IMC S/A     ON      NM   R$  000000000012700000000001310000000000127000000000012900000000001310000000000130000000000013100226000000000000236600000000000030659800000000000000009999123100000010000000000000BRMEALACNOR9105
012024110402MELK3       010MELNICK     ON      NM   R$  000000000035300000000003620000000000353000000000035800000000003590000000000356000000000035900757000000000000314700000000000112674700000000000000009999123100000010000000000000BRMELKACNOR8111
012024110402ALPA3       010ALPARGATAS  ON      N1   R$  000000000063900000000006420000000000630000000000063500000000006310000000000630000000000063900036000000000000013900000000000008836800000000000000009999123100000010000000000000BRALPAACNOR0231
012024110402ALPA4       010ALPARGATAS  PN      N1   R$  000000000073200000000007540000000000729000000000073900000000007330000000000731000000000073308381000000000002869200000000002121983800000000000000009999123100000010000000000000BRALPAACNPR7232
012024110402ALPK3       010ESTAPAR     ON      NM   R$  000000000027600000000002930000000000276000000000028600000000002880000000000282000000000028800433000000000000231600000000000066409100000000000000009999123100000010000000000000BRALPKACNOR9101
012024110402ALUP11      010ALUPAR      UNT     N2   R$  000000000291000000000029180000000002884000000000289800000000029030000000002892000000000290402738000000000000449600000000001303076000000000000000009999123100000010000000000000BRALUPCDAM15120
012024110402ALUP3       010ALUPAR      ON      N2   R$  000000000097500000000010010000000000975000000000098900000000010000000000000980000000000100400032000000000000003300000000000003266100000000000000009999123100000010000000000000BRALUPACNOR8120
012024110402ALUP4       010ALUPAR      PN      N2   R$  000000000094800000000009600000000000948000000000095200000000009500000000000946000000000095000062000000000000008600000000000008187800000000000000009999123100000010000000000000BRALUPACNPR5120
012024110402AMAR3       010LOJAS MARISAON      NM   R$  000000000009400000000000970000000000094000000000009500000000000950000000000095000000000009600303000000000000070500000000000006725100000000000000009999123100000010000000000000BRAMARACNOR4115
012024110402AMBP3       010AMBIPAR     ON      NM   R$  000000001275000000000130880000000012413000000001265600000000125620000000012501000000001256301083000000000000158600000000002007266200000000000000009999123100000010000000000000BRAMBPACNOR6103
012024110402ANIM3       010ANIMA       ON      NM   R$  000000000023500000000002570000000000235000000000024800000000002570000000000257000000000025807234000000000013049600000000003241331900000000000000009999123100000010000000000000BRANIMACNOR6109
012024110402BIOM3       010BIOMM       ON      MA   R$  000000000088500000000008980000000000871000000000089000000000008950000000000891000000000089700149000000000000042300000000000037675600000000000000009999123100000010000000000000BRBIOMACNOR2112
012024110402DASA3       010DASA        ON      NM   R$  000000000025400000000002620000000000252000000000025800000000002560000000000255000000000025601745000000000000747800000000000193224500000000000000009999123100000010000000000000BRDASAACNOR1123
012024110402DESK3       010DESKTOP     ON      NM   R$  000000000130000000000013680000000001300000000000134300000000013680000000001349000000000136800804000000000000172900000000000232264000000000000000009999123100000010000000000000BRDESKACNOR2104
012024110402AERI3       010AERIS       ON      NM   R$  000000000062000000000006660000000000617000000000064100000000006570000000000657000000000066001132000000000000375100000000000240612600000000000000009999123100000010000000000000BRAERIACNOR4102
012024110402AFLT3       010AFLUENTE T  ON           R$  000000000069400000000007010000000000694000000000069700000000007010000000000695000000000072900003000000000000000500000000000000348900000000000000009999123100000010000000000000BRAFLTACNOR1122
012024110402AGRO3       010BRASILAGRO  ON      NM   R$  000000000235300000000023860000000002346000000000237000000000023670000000002367000000000237801556000000000000235100000000000557306800000000000000009999123100000010000000000000BRAGROACNOR7115
012024110402AHEB3       010SPTURIS     ON           R$  000000000380000000000038000000000003800000000000380000000000038000000000000000000000000380000001000000000000000100000000000000380000000000000000009999123100000010000000000000BRAHEBACNOR0106
012024110402ALLD3       010ALLIED      ON      NM   R$  000000000075200000000007690000000000750000000000075800000000007650000000000765000000000077000194000000000000038200000000000028988400000000000000009999123100000010000000000000BRALLDACNOR3106
012024110402ALOS3       010ALLOS       ON      NM   R$  000000000217900000000022460000000002174000000000222400000000022260000000002221000000000222611609000000000005090100000000011323272600000000000000009999123100000010000000000000BRALOSACNOR5103
012024110402BEES3       010BANESTES    ON  EJ       R$  000000000086300000000008800000000000860000000000086500000000008600000000000860000000000086400109000000000000024500000000000021210200000000000000009999123100000010000000000000BRBEESACNOR9397
012024110402BEES4       010BANESTES    PN  EJ       R$  000000000090000000000009000000000000883000000000089000000000008890000000000884000000000089000022000000000000003100000000000002760200000000000000009999123100000010000000000000BRBEESACNPR6322
012024110402BEEF3       010MINERVA     ON  ATZ NM   R$  000000000058100000000005950000000000580000000000058900000000005930000000000592000000000059408031000000000008020200000000004727906700000000000000009999123100000010000000000000BRBEEFACNOR6117
012024110402CSED3       010CRUZEIRO EDUON      NM   R$  000000000031500000000003320000000000315000000000032500000000003290000000000328000000000032901896000000000000885400000000000288557300000000000000009999123100000010000000000000BRCSEDACNOR9105
012024110402BGIP4       010BANESE      PN           R$  000000000234200000000023990000000002338000000000234800000000023990000000002337000000000240000006000000000000000700000000000001644200000000000000009999123100000010000000000000BRBGIPACNPR8210
012024110402CSMG3       010COPASA      ON      NM   R$  000000000233800000000023830000000002293000000000232800000000023180000000002317000000000231912494000000000003021500000000007034753000000000000000009999123100000010000000000000BRCSMGACNOR5175
012024110402ENEV3       010ENEVA       ON      NM   R$  000000000127000000000013010000000001270000000000128600000000012890000000001287000000000129013859000000000008549800000000011000099800000000000000009999123100000010000000000000BRENEVACNOR8106
012024110402BBSE3       010BBSEGURIDADEON      NM   R$  000000000344500000000034660000000003403000000000343400000000034640000000003450000000000346411875000000000004086500000000014034806300000000000000009999123100000010000000000000BRBBSEACNOR5125
012024110402BHIA3       010CASAS BAHIA ON      NM   R$  000000000041900000000004340000000000413000000000042500000000004260000000000426000000000042802836000000000003607600000000001534044500000000000000009999123100000010000000000000BRBHIAACNOR1102
012024110402BPAN4       010BANCO PAN   PN      N1   R$  000000000081000000000008320000000000802000000000081500000000008210000000000820000000000082206708000000000002630900000000002145458800000000000000009999123100000010000000000000BRBPANACNPR1115
012024110402BRAP3       010BRADESPAR   ON      N1   R$  000000000183000000000018450000000001818000000000183500000000018340000000001834000000000184000339000000000000058100000000000106669800000000000000009999123100000010000000000000BRBRAPACNOR5148
012024110402BRAP4       010BRADESPAR   PN      N1   R$  000000000199500000000020260000000001986000000000201000000000020110000000002010000000000201216560000000000006963900000000014002725800000000000000009999123100000010000000000000BRBRAPACNPR2148
012024110402CSNA3       010SID NACIONALON           R$  000000000118800000000012030000000001169000000000119000000000011940000000001193000000000119611897000000000006067100000000007222698800000000000000009999123100000010000000000000BRCSNAACNOR6261
012024110402CSUD3       010CSU DIGITAL ON      NM   R$  000000000172400000000017770000000001720000000000174300000000017220000000001722000000000174500278000000000000043200000000000075337400000000000000009999123100000010000000000000BRCSUDACNOR5111
012024110402CTKA4       010KARSTEN     PN           R$  000000000193900000000019390000000001939000000000193900000000019390000000001875000000000194000001000000000000000100000000000000193900000000000000009999123100000010000000000000BRCTKAACNPR7043
012024110402ENGI11      010ENERGISA    UNT     N2   R$  000000000422100000000043410000000004221000000000429400000000043160000000004307000000000431609980000000000002718500000000011674395700000000000000009999123100000010000000000000BRENGICDAM16136
012024110402ENGI3       010ENERGISA    ON      N2   R$  000000000129200000000013250000000001291000000000131000000000013250000000001304000000000132500034000000000000004200000000000005506100000000000000009999123100000010000000000000BRENGIACNOR0146
012024110402ENGI4       010ENERGISA    PN      N2   R$  000000000072500000000007500000000000725000000000074200000000007500000000000742000000000075000064000000000000015400000000000011439500000000000000009999123100000010000000000000BRENGIACNPR7142
012024110402ENJU3       010ENJOEI      ON      NM   R$  000000000012400000000001270000000000122000000000012300000000001230000000000122000000000012300373000000000000399500000000000049511800000000000000009999123100000010000000000000BRENJUACNOR9100
012024110402ENMT3       010ENERGISA MT ON           R$  000000000790600000000079970000000007906000000000793600000000079970000000007909000000000850000003000000000000000300000000000002380900000000000000009999123100000010000000000000BRENMTACNOR5121
012024110402EPAR3       010EMBPAR S/A  ON           R$  000000000057000000000005850000000000555000000000056700000000005600000000000560000000000057700037000000000000008700000000000004933900000000000000009999123100000010000000000000BREPARACNOR9105
012024110402EQMA3B      010EQTLMARANHAOON      MB   R$  000000000233500000000023490000000002261000000000231600000000022750000000002286000000000234800008000000000000001300000000000003010900000000000000009999123100000010000000000000BREQMAACNOR8108
012024110402EQPA3       010EQTL PARA   ON           R$  000000000059400000000005980000000000587000000000059000000000005880000000000588000000000059700019000000000000002600000000000001534800000000000000009999123100000010000000000000BREQPAACNOR1111
012024110402EQTL3       010EQUATORIAL  ON      NM   R$  000000000317800000000032430000000003169000000000322100000000032150000000003215000000000322218514000000000006253700000000020147888500000000000000009999123100000010000000000000BREQTLACNOR0131
012024110402JHSF3       010JHSF PART   ON  ED  NM   R$  000000000043500000000004620000000000435000000000044900000000004580000000000450000000000045804821000000000004330100000000001947775000000000000000009999123100000010000000000000BRJHSFACNOR2141
012024110402JSLG3       010JSL         ON      NM   R$  000000000077200000000008360000000000772000000000081300000000008260000000000826000000000083202046000000000000675600000000000549445400000000000000009999123100000010000000000000BRJSLGACNOR2121
012024110402KEPL3       010KEPLER WEBERON      NM   R$  000000000099100000000010550000000000991000000000102500000000010370000000001037000000000103906124000000000001872800000000001920753900000000000000009999123100000010000000000000BRKEPLACNOR1064
012024110402KLBN11      010KLABIN S/A  UNT     N2   R$  000000000211500000000022130000000002105000000000217400000000022040000000002203000000000220823629000000000009575500000000020825674800000000000000009999123100000010000000000000BRKLBNCDAM18143
012024110402KLBN3       010KLABIN S/A  ON      N2   R$  000000000042600000000004450000000000422000000000043600000000004450000000000440000000000044502016000000000001006800000000000439826800000000000000009999123100000010000000000000BRKLBNACNOR2171
012024110402KLBN4       010KLABIN S/A  PN      N2   R$  000000000042000000000004410000000000418000000000043200000000004380000000000438000000000043905704000000000004496600000000001946281200000000000000009999123100000010000000000000BRKLBNACNPR9171
012024110402MRFG3       010MARFRIG     ON      NM   R$  000000000155900000000016140000000001537000000000158200000000015900000000001590000000000159513743000000000004885700000000007729744100000000000000009999123100000010000000000000BRMRFGACNOR0116
012024110402MRVE3       010MRV         ON      NM   R$  000000000068600000000007280000000000684000000000071500000000007210000000000721000000000072619887000000000017219600000000012316516500000000000000009999123100000010000000000000BRMRVEACNOR2127
012024110402SAPR11      010SANEPAR     UNT     N2   R$  000000000263300000000026460000000002624000000000263400000000026270000000002624000000000263204252000000000000828200000000002181639900000000000000009999123100000010000000000000BRSAPRCDAM13118
012024110402SAPR3       010SANEPAR     ON      N2   R$  000000000050400000000005120000000000504000000000050700000000005040000000000504000000000051000693000000000000337300000000000171216900000000000000009999123100000010000000000000BRSAPRACNOR9159
012024110402SAPR4       010SANEPAR     PN      N2   R$  000000000053500000000005380000000000533000000000053500000000005340000000000534000000000053503246000000000001623500000000000869159900000000000000009999123100000010000000000000BRSAPRACNPR6159
012024110402SBFG3       010GRUPO SBF   ON      NM   R$  000000000139000000000014420000000001382000000000142100000000014260000000001426000000000143606322000000000001579500000000002245340900000000000000009999123100000010000000000000BRSBFGACNOR1103
012024110402SBSP3       010SABESP      ON      NM   R$  000000000901500000000091820000000008987000000000912800000000091480000000009139000000000915113165000000000002328500000000021256048900000000000000009999123100000010000000000000BRSBSPACNOR5161
012024110402UNIP3       010UNIPAR      ON           R$  000000000441600000000045450000000004388000000000446600000000045030000000004502000000000455000050000000000000006400000000000028584700000000000000009999123100000010000000000000BRUNIPACNOR7206
012024110402UNIP6       010UNIPAR      PNB          R$  000000000441400000000045990000000004410000000000452000000000045590000000004549000000000456400962000000000000155300000000000702047900000000000000009999123100000010000000000000BRUNIPACNPB8206
012024110402USIM3       010USIMINAS    ON      N1   R$  000000000061600000000006420000000000615000000000063200000000006390000000000634000000000063901121000000000000299200000000000189291000000000000000009999123100000010000000000000BRUSIMACNOR3167
012024110402USIM5       010USIMINAS    PNA     N1   R$  000000000064000000000006630000000000637000000000065200000000006560000000000655000000000065611058000000000011035200000000007197820200000000000000009999123100000010000000000000BRUSIMACNPA6169
012024110402MILS3       010MILLS       ON      NM   R$  000000000102800000000010530000000001021000000000104200000000010520000000001052000000000105303833000000000000739800000000000771263400000000000000009999123100000010000000000000BRMILSACNOR2128
012024110402MLAS3       010MULTILASER  ON      NM   R$  000000000016000000000001720000000000160000000000016800000000001710000000000170000000000017102601000000000002415900000000000407904000000000000000009999123100000010000000000000BRMLASACNOR9101
012024110402MNDL3       010MUNDIAL     ON           R$  000000000158300000000015830000000001583000000000158300000000015830000000001580000000000169900001000000000000000100000000000000158300000000000000009999123100000010000000000000BRMNDLACNOR4109
012024110402MNPR3       010MINUPAR     ON           R$  000000000197000000000020280000000001970000000000199200000000019700000000001901000000000202900004000000000000000400000000000000796800000000000000009999123100000010000000000000BRMNPRACNOR5122
012024110402MOVI3       010MOVIDA      ON  ATZ NM   R$  000000000057900000000006440000000000579000000000061700000000006390000000000639000000000064013012000000000008532800000000005270173600000000000000009999123100000010000000000000BRMOVIACNOR0123
012024110402SRNA3       010SERENA      ON      NM   R$  000000000077700000000007820000000000758000000000076900000000007740000000000773000000000077509723000000000006949000000000005348479400000000000000009999123100000010000000000000BRSRNAACNOR4100
012024110402ROMI3       010ROMI        ON      NM   R$  000000000100200000000010030000000000992000000000099500000000009930000000000993000000000099701559000000000000296100000000000294887000000000000000009999123100000010000000000000BRROMIACNOR8196
012024110402RSUL4       010RIOSULENSE  PN           R$  000000000629100000000062910000000006037000000000611500000000061300000000005810000000000615000019000000000000002800000000000017123800000000000000009999123100000010000000000000BRRSULACNPR3114
012024110402RCSL3       010RECRUSUL    ON           R$  000000000039200000000004040000000000385000000000039100000000003930000000000393000000000039602006000000000001274200000000000499031000000000000000009999123100000010000000000000BRRCSLACNOR4134
012024110402RCSL4       010RECRUSUL    PN           R$  000000000020100000000002060000000000186000000000019500000000001920000000000192000000000019307130000000000007730200000000001514488300000000000000009999123100000010000000000000BRRCSLACNPR1134
012024110402RDNI3       010RNI         ON      NM   R$  000000000030200000000003090000000000302000000000030700000000003080000000000307000000000030900006000000000000002600000000000000800100000000000000009999123100000010000000000000BRRDNIACNOR9116
012024110402RDOR3       010REDE D OR   ON      NM   R$  000000000294200000000029750000000002880000000000293800000000029500000000002931000000000295316172000000000004267800000000012540690200000000000000009999123100000010000000000000BRRDORACNOR8114
012024110402RECV3       010PETRORECSA  ON      NM   R$  000000000168000000000017300000000001662000000000171000000000017210000000001720000000000172406094000000000001988200000000003400269200000000000000009999123100000010000000000000BRRECVACNOR3107
012024110402REDE3       010REDE ENERGIAON           R$  000000000067800000000006830000000000678000000000068200000000006800000000000680000000000068300006000000000000001500000000000001023200000000000000009999123100000010000000000000BRREDEACNOR7128
012024110402RENT3       010LOCALIZA    ON      NM   R$  000000000412700000000042450000000004105000000000420300000000042400000000004236000000000424233001000000000010621900000000044651778500000000000000009999123100000010000000000000BRRENTACNOR4197
012024110402SYNE3       010SYN PROP TECON      NM   R$  000000000085000000000008540000000000842000000000084900000000008500000000000848000000000085001762000000000001048500000000000890381700000000000000009999123100000010000000000000BRSYNEACNOR2103
012024110402UCAS3       010UNICASA     ON      NM   R$  000000000021500000000002190000000000215000000000021600000000002150000000000215000000000021600065000000000000012100000000000002624500000000000000009999123100000010000000000000BRUCASACNOR1113
012024110402UGPA3       010ULTRAPAR    ON      NM   R$  000000000207200000000021300000000002065000000000211300000000021170000000002117000000000211812657000000000003077700000000006504166400000000000000009999123100000010000000000000BRUGPAACNOR8156
012024110402VIVR3       010VIVER       ON      NM   R$  000000000014900000000001540000000000146000000000014900000000001470000000000146000000000014900101000000000000044500000000000006631300000000000000009999123100000010000000000000BRVIVRACNOR4123
012024110402VIVT3       010TELEF BRASILON           R$  000000000528900000000053400000000005252000000000530900000000053390000000005324000000000533912726000000000002027300000000010764370400000000000000009999123100000010000000000000BRVIVTACNOR0184
012024110402VLID3       010VALID       ON      NM   R$  000000000236200000000024370000000002362000000000241600000000024300000000002425000000000243202198000000000000357100000000000863053200000000000000009999123100000010000000000000BRVLIDACNOR5144
012024110402VSTE3       010VESTE       ON      NM   R$  000000000101500000000010550000000000974000000000102800000000010500000000001034000000000105100173000000000000022900000000000023551900000000000000009999123100000010000000000000BRVSTEACNOR5103
012024110402VTRU3       010VITRUEDUCA  ON      NM   R$  000000000087500000000009120000000000874000000000090000000000009120000000000902000000000091200752000000000000202400000000000182197200000000000000009999123100000010000000000000BRVTRUACNOR3100
012024110402VULC3       010VULCABRAS   ON      NM   R$  000000000164500000000016840000000001637000000000166900000000016840000000001668000000000168402861000000000000516200000000000861579000000000000000009999123100000010000000000000BRVULCACNOR2163
012024110402VVEO3       010VIVEO       ON      NM   R$  000000000020900000000002330000000000209000000000022500000000002310000000000229000000000023104903000000000005421700000000001222661900000000000000009999123100000010000000000000BRVVEOACNOR0104
012024110402WEGE3       010WEG         ON      NM   R$  000000000552200000000056190000000005422000000000555200000000056190000000005609000000000561924904000000000006547400000000036353704600000000000000009999123100000010000000000000BRWEGEACNOR0225
012024110402PINE3       010PINE        ON      N2   R$  000000000048800000000004880000000000478000000000048400000000004830000000000475000000000048300021000000000000005000000000000002422800000000000000009999123100000010000000000000BRPINEACNOR1152
012024110402PINE4       010PINE        PN      N2   R$  000000000046000000000004680000000000454000000000046100000000004670000000000460000000000046700299000000000000132000000000000060867100000000000000009999123100000010000000000000BRPINEACNPR8152
012024110402PLPL3       010PLANOEPLANO ON      NM   R$  000000000141000000000014350000000001389000000000141100000000014060000000001406000000000141005800000000000000856500000000001209203900000000000000009999123100000010000000000000BRPLPLACNOR5104
012024110402PNVL3       010DIMED       ON      NM   R$  000000000098600000000010200000000000986000000000101000000000010170000000001011000000000101701803000000000000287600000000000290631200000000000000009999123100000010000000000000BRPNVLACNOR9208
012024110402POMO3       010MARCOPOLO   ON      N2   R$  000000000063800000000006750000000000637000000000066000000000006750000000000673000000000067501254000000000000484400000000000319794400000000000000009999123100000010000000000000BRPOMOACNOR0099
012024110402POMO4       010MARCOPOLO   PN      N2   R$  000000000084100000000008840000000000840000000000087000000000008840000000000880000000000088418147000000000009002500000000007834236700000000000000009999123100000010000000000000BRPOMOACNPR7099
012024110402PORT3       010WILSON SONS ON      NM   R$  000000000158200000000015930000000001575000000000157900000000015800000000001579000000000158905792000000000004594900000000007258794700000000000000009999123100000010000000000000BRPORTACNOR8110
012024110402POSI3       010POSITIVO TECON      NM   R$  000000000061900000000006540000000000613000000000063900000000006540000000000646000000000065405368000000000001542300000000000985754100000000000000009999123100000010000000000000BRPOSIACNOR9116
012024110402PRIO3       010PETRORIO    ON      NM   R$  000000000403500000000041340000000004033000000000409300000000040880000000004087000000000409026204000000000008831200000000036149930500000000000000009999123100000010000000000000BRPRIOACNOR1107
012024110402TPIS3       010TRIUNFO PARTON      NM   R$  000000000067200000000007000000000000672000000000069300000000007000000000000696000000000070000346000000000000068500000000000047518000000000000000009999123100000010000000000000BRTPISACNOR8118
012024110402TRAD3       010TC          ON      NM   R$  000000000052300000000005300000000000507000000000051400000000005170000000000507000000000051700272000000000000091200000000000046964800000000000000009999123100000010000000000000BRTRADACNOR3102
012024110402TRIS3       010TRISUL      ON      NM   R$  000000000051900000000005460000000000519000000000053600000000005460000000000542000000000054601153000000000000468900000000000251422100000000000000009999123100000010000000000000BRTRISACNOR4118
012024110402TRPL3       010TRAN PAULISTON      N1   R$  000000000305500000000031090000000003055000000000307100000000030550000000003055000000000306500011000000000000001300000000000003992700000000000000009999123100000010000000000000BRTRPLACNOR4185
012024110402TRPL4       010TRAN PAULISTPN      N1   R$  000000000241800000000024620000000002417000000000244900000000024600000000002458000000000246008571000000000001844300000000004517476400000000000000009999123100000010000000000000BRTRPLACNPR1185
012024110402VITT3       010VITTIA      ON  EJ  NM   R$  000000000054600000000005660000000000545000000000055800000000005600000000000560000000000056601069000000000000198600000000000110949100000000000000009999123100000010000000000000BRVITTACNOR4108
012024110402VIVA3       010VIVARA S.A. ON      NM   R$  000000000251900000000026070000000002504000000000258100000000026070000000002606000000000260713333000000000003168700000000008180934600000000000000009999123100000010000000000000BRVIVAACNOR0107
012024110402PFRM3       010PROFARMA    ON      NM   R$  000000000069700000000007300000000000695000000000071900000000007300000000000720000000000073001419000000000000445500000000000320743800000000000000009999123100000010000000000000BRPFRMACNOR1116
012024110402PGMN3       010PAGUE MENOS ON      NM   R$  000000000028500000000003090000000000283000000000030100000000003090000000000306000000000030902038000000000001536800000000000462664800000000000000009999123100000010000000000000BRPGMNACNOR8103
012024110402RAPT4       010RANDON PART PN      N1   R$  000000000104300000000010880000000001043000000000107600000000010720000000001070000000000107704661000000000001908900000000002054005300000000000000009999123100000010000000000000BRRAPTACNPR4163
012024110402CLSA3       010CLEARSALE   ON      NM   R$  000000000095100000000009660000000000947000000000095500000000009660000000000961000000000096703652000000000001635600000000001562027300000000000000009999123100000010000000000000BRCLSAACNOR0100
012024110402CLSC3       010CELESC      ON      N2   R$  000000000781900000000078190000000007819000000000781900000000078190000000007401000000000781700001000000000000000100000000000000781900000000000000009999123100000010000000000000BRCLSCACNOR6153
012024110402CLSC4       010CELESC      PN      N2   R$  000000000789900000000079080000000007898000000000790200000000079080000000007850000000000790700010000000000000001500000000000011854300000000000000009999123100000010000000000000BRCLSCACNPR3132
012024110402CMIG3       010CEMIG       ON      N1   R$  000000000146700000000015060000000001467000000000148800000000015010000000001487000000000150100916000000000000186300000000000277281000000000000000009999123100000010000000000000BRCMIGACNOR6244
012024110402CMIG4       010CEMIG       PN      N1   R$  000000000115000000000011630000000001145000000000115600000000011620000000001160000000000116215126000000000008803200000000010178384400000000000000009999123100000010000000000000BRCMIGACNPR3245
012024110402CPFE3       010CPFL ENERGIAON      NM   R$  000000000326900000000033080000000003261000000000328600000000032900000000003286000000000329006130000000000001152000000000003786459200000000000000009999123100000010000000000000BRCPFEACNOR0137
012024110402CPLE3       010COPEL       ON      N2   R$  000000000085000000000008660000000000849000000000086300000000008650000000000865000000000086610061000000000007442000000000006424056400000000000000009999123100000010000000000000BRCPLEACNOR8150
012024110402CPLE5       010COPEL       PNA     N2   R$  000000000115000000000011500000000001150000000000115000000000011500000000001050000000000115000003000000000000000300000000000000345000000000000000009999123100000010000000000000BRCPLEACNPA1148
012024110402CPLE6       010COPEL       PNB     N2   R$  000000000096600000000009770000000000963000000000097200000000009750000000000975000000000097614551000000000010568900000000010281390700000000000000009999123100000010000000000000BRCPLEACNPB9147
012024110402EKTR4       010ELEKTRO     PN  ED       R$  000000000430000000000043560000000004300000000000434200000000043520000000004300000000000440000004000000000000000500000000000002171200000000000000009999123100000010000000000000BREKTRACNPR7166
012024110402ELET3       010ELETROBRAS  ON      N1   R$  000000000370700000000037820000000003702000000000376000000000037820000000003779000000000378217389000000000006927300000000026050336300000000000000009999123100000010000000000000BRELETACNOR6160
012024110402ELET6       010ELETROBRAS  PNB     N1   R$  000000000416500000000042330000000004143000000000419700000000042240000000004219000000000422405748000000000001706200000000007162090800000000000000009999123100000010000000000000BRELETACNPB7077
012024110402BSLI3       010BRB BANCO   ON           R$  000000000092300000000009230000000000923000000000092300000000009230000000000880000000000092000001000000000000000100000000000000092300000000000000009999123100000010000000000000BRBSLIACNOR5194
012024110402B3SA3       010B3          ON      NM   R$  000000000105300000000010880000000001051000000000107500000000010860000000001085000000000108726086000000000039785000000000042790737300000000000000009999123100000010000000000000BRB3SAACNOR6134
012024110402CEAB3       010CEA MODAS   ON      NM   R$  000000000130000000000013530000000001290000000000132000000000013430000000001343000000000134410119000000000004070200000000005373190900000000000000009999123100000010000000000000BRCEABACNOR1102
012024110402CEBR3       010CEB         ON           R$  000000000182700000000018450000000001827000000000183400000000018280000000001827000000000184500013000000000000001300000000000002384700000000000000009999123100000010000000000000BRCEBRACNOR5125
012024110402CEBR5       010CEB         PNA          R$  000000000160500000000016380000000001560000000000158600000000016380000000001586000000000161000015000000000000003100000000000004917800000000000000009999123100000010000000000000BRCEBRACNPA8124
012024110402CEBR6       010CEB         PNB          R$  000000000176000000000017880000000001740000000000175900000000017770000000001748000000000177000031000000000000008000000000000014079800000000000000009999123100000010000000000000BRCEBRACNPB6124
012024110402CEDO4       010CEDRO       PN      N1   R$  000000000233100000000023310000000002330000000000233000000000023300000000002335000000000244600002000000000000000200000000000000466100000000000000009999123100000010000000000000BRCEDOACNPR5128
012024110402CEEB3       010COELBA      ON           R$  000000000400000000000040000000000003802000000000388400000000039000000000003851000000000399900005000000000000000500000000000001942400000000000000009999123100000010000000000000BRCEEBACNOR3200
012024110402CGAS5       010COMGAS      PNA          R$  000000001270000000000127000000000012691000000001269700000000126910000000012600000000001299900004000000000000000400000000000005079100000000000000009999123100000010000000000000BRCGASACNPA3161
012024110402CGRA3       010GRAZZIOTIN  ON           R$  000000000249900000000025480000000002400000000000243900000000025280000000002442000000000256000027000000000000008000000000000019514300000000000000009999123100000010000000000000BRCGRAACNOR2083
012024110402CGRA4       010GRAZZIOTIN  PN           R$  000000000248000000000024810000000002365000000000240900000000023900000000002388000000000249700298000000000000053100000000000127950300000000000000009999123100000010000000000000BRCGRAACNPR9083
012024110402GRND3       010GRENDENE    ON      NM   R$  000000000052100000000005320000000000521000000000052700000000005290000000000527000000000052902502000000000001188900000000000627645800000000000000009999123100000010000000000000BRGRNDACNOR3175
012024110402GSHP3       010GENERALSHOPPON           R$  000000000080700000000008070000000000807000000000080700000000008070000000000750000000000109200002000000000000001000000000000000807000000000000000009999123100000010000000000000BRGSHPACNOR7102
012024110402GUAR3       010GUARARAPES  ON      NM   R$  000000000084800000000009240000000000847000000000089900000000009150000000000915000000000092206745000000000001954700000000001757403400000000000000009999123100000010000000000000BRGUARACNOR4173
012024110402HBOR3       010HELBOR      ON      NM   R$  000000000018100000000001900000000000181000000000018600000000001900000000000187000000000019000497000000000000582500000000000108909900000000000000009999123100000010000000000000BRHBORACNOR3118
012024110402HBRE3       010HBR REALTY  ON      NM   R$  000000000044800000000004580000000000437000000000045200000000004570000000000454000000000045701080000000000000468000000000000211730500000000000000009999123100000010000000000000BRHBREACNOR4100
012024110402HBSA3       010HIDROVIAS   ON      NM   R$  000000000031000000000003240000000000308000000000031700000000003220000000000322000000000032304997000000000004566600000000001450422100000000000000009999123100000010000000000000BRHBSAACNOR0101
012024110402HETA4       010HERCULES    PN           R$  000000000063400000000006350000000000634000000000063400000000006350000000000616000000000067300002000000000000001100000000000000698400000000000000009999123100000010000000000000BRHETAACNPR9136
012024110402AZUL4       010AZUL        PN      N2   R$  000000000054300000000005470000000000507000000000052400000000005150000000000514000000000051514082000000000026838500000000014072165300000000000000009999123100000010000000000000BRAZULACNPR4103
012024110402BBDC3       010BRADESCO    ON  EJ  N1   R$  000000000126000000000012640000000001239000000000125100000000012480000000001248000000000125210471000000000006342200000000007935906700000000000000009999123100000010000000000000BRBBDCACNOR1777
012024110402BBDC4       010BRADESCO    PN  EJ  N1   R$  000000000142000000000014300000000001394000000000141000000000014110000000001411000000000141237713000000000034631600000000048863441300000000000000009999123100000010000000000000BRBBDCACNPR8777
012024110402BRKM3       010BRASKEM     ON      N1   R$  000000000175600000000017560000000001672000000000170200000000016840000000001682000000000170000073000000000000010200000000000017362200000000000000009999123100000010000000000000BRBRKMACNOR1119
012024110402BRKM5       010BRASKEM     PNA     N1   R$  000000000173500000000017410000000001688000000000171000000000017060000000001706000000000171007983000000000003037900000000005195590800000000000000009999123100000010000000000000BRBRKMACNPA4121
012024110402BRKM6       010BRASKEM     PNB     N1   R$  000000000125000000000013180000000001250000000000128400000000013180000000001001000000000131800002000000000000000200000000000000256800000000000000009999123100000010000000000000BRBRKMACNPB2114
012024110402BRSR3       010BANRISUL    ON      N1   R$  000000000123200000000012450000000001219000000000122900000000012200000000001215000000000122300047000000000000007200000000000008850300000000000000009999123100000010000000000000BRBRSRACNOR3189
012024110402BRSR6       010BANRISUL    PNB     N1   R$  000000000112200000000011370000000001119000000000112800000000011290000000001127000000000113003777000000000000994700000000001122885700000000000000009999123100000010000000000000BRBRSRACNPB4192
012024110402HYPE3       010HYPERA      ON      NM   R$  000000000229900000000023140000000002206000000000225600000000022270000000002227000000000222919364000000000007017500000000015836363600000000000000009999123100000010000000000000BRHYPEACNOR0144
012024110402JALL3       010JALLESMACHADON      NM   R$  000000000060000000000006060000000000589000000000059700000000005890000000000589000000000059802960000000000001336000000000000797649100000000000000009999123100000010000000000000BRJALLACNOR0106
012024110402JBSS3       010JBS         ON      NM   R$  000000000360000000000036130000000003567000000000359000000000036090000000003605000000000361019760000000000003728900000000013389563000000000000000009999123100000010000000000000BRJBSSACNOR8122
012024110402ARML3       010ARMAC       ON      NM   R$  000000000073600000000007660000000000733000000000075200000000007600000000000753000000000076203079000000000000776400000000000584458300000000000000009999123100000010000000000000BRARMLACNOR1113
012024110402ASAI3       010ASSAI       ON      NM   R$  000000000074200000000007790000000000740000000000076500000000007720000000000771000000000077525651000000000018988900000000014529585700000000000000009999123100000010000000000000BRASAIACNOR0106
012024110402ATOM3       010ATOMPAR     ON           R$  000000000040000000000004090000000000390000000000040000000000004010000000000400000000000040200235000000000000059700000000000023935600000000000000009999123100000010000000000000BRATOMACNOR1106
012024110402AURE3       010AUREN       ON      NM   R$  000000000102700000000010400000000001020000000000103100000000010400000000001027000000000104011254000000000008096700000000008349534600000000000000009999123100000010000000000000BRAUREACNOR9104
012024110402BOBR4       010BOMBRIL     PN           R$  000000000026900000000002950000000000267000000000028000000000002740000000000273000000000027400398000000000000102800000000000028859800000000000000009999123100000010000000000000BRBOBRACNPR3128
012024110402BRBI11      010BR PARTNERS UNT     N2   R$  000000000150200000000015570000000001499000000000153500000000015380000000001536000000000153802538000000000000542100000000000832137600000000000000009999123100000010000000000000BRBRBICDAM10110
012024110402HAGA3       010HAGA S/A    ON           R$  000000000025500000000002610000000000244000000000024900000000002500000000000250000000000025100039000000000000006800000000000001697500000000000000009999123100000010000000000000BRHAGAACNOR7103
012024110402HAGA4       010HAGA S/A    PN           R$  000000000013000000000001310000000000130000000000013000000000001300000000000129000000000013000006000000000000000900000000000000117200000000000000009999123100000010000000000000BRHAGAACNPR4103
012024110402HAPV3       010HAPVIDA     ON      NM   R$  000000000033900000000003520000000000337000000000034500000000003460000000000346000000000034745201000000000066598200000000023006437700000000000000009999123100000010000000000000BRHAPVACNOR4115
012024110402AZZA3       010AZZAS 2154  ON      NM   R$  000000000404000000000042130000000004040000000000416100000000041430000000004143000000000414507980000000000002131400000000008869311800000000000000009999123100000010000000000000BRAZZAACNOR9100
012024110402ECOR3       010ECORODOVIAS ON      NM   R$  000000000068000000000007250000000000680000000000071100000000007200000000000716000000000072008516000000000006192900000000004403340100000000000000009999123100000010000000000000BRECORACNOR8120
012024110402EGIE3       010ENGIE BRASILON      NM   R$  000000000412400000000041780000000004113000000000415300000000041740000000004154000000000417405446000000000001073800000000004460252200000000000000009999123100000010000000000000BREGIEACNOR9127
012024110402GGPS3       010GPS         ON      NM   R$  000000000167900000000017210000000001672000000000169800000000017000000000001692000000000170005842000000000002312900000000003927714600000000000000009999123100000010000000000000BRGGPSACNOR9103
012024110402GMAT3       010GRUPO MATEUSON      NM   R$  000000000075400000000007670000000000739000000000075700000000007640000000000754000000000076406745000000000002838700000000002150591800000000000000009999123100000010000000000000BRGMATACNOR7103
012024110402GOAU3       010GERDAU MET  ON      N1   R$  000000000101200000000010210000000001009000000000101400000000010160000000001016000000000101900170000000000000038000000000000038553000000000000000009999123100000010000000000000BRGOAUACNOR1268
012024110402GOAU4       010GERDAU MET  PN      N1   R$  000000000102900000000010300000000001019000000000102400000000010260000000001025000000000102707603000000000004444100000000004554441400000000000000009999123100000010000000000000BRGOAUACNPR8269
012024110402DEXP3       010DEXXOS PAR  ON      N1   R$  000000000089800000000008980000000000877000000000088500000000008900000000000890000000000089200742000000000000084400000000000074712600000000000000009999123100000010000000000000BRDEXPACNOR1105
012024110402DEXP4       010DEXXOS PAR  PN      N1   R$  000000000088500000000008870000000000885000000000088600000000008870000000000870000000000088600005000000000000000800000000000000709100000000000000009999123100000010000000000000BRDEXPACNPR8105
012024110402DIRR3       010DIRECIONAL  ON      NM   R$  000000000306800000000031430000000003068000000000310200000000030990000000003095000000000309908009000000000001461200000000004533676100000000000000009999123100000010000000000000BRDIRRACNOR0119
012024110402DMVF3       010D1000VFARMA ON      NM   R$  000000000076100000000007750000000000736000000000075100000000007370000000000737000000000073900514000000000000121000000000000090971700000000000000009999123100000010000000000000BRDMVFACNOR9100
012024110402DOHL4       010DOHLER      PN           R$  000000000040100000000004050000000000400000000000040100000000004040000000000401000000000040400005000000000000000700000000000000281100000000000000009999123100000010000000000000BRDOHLACNPR9066
012024110402DOTZ3       010DOTZ SA     ON      NM   R$  000000000049900000000005280000000000499000000000050700000000005280000000000512000000000053700036000000000000008600000000000004364400000000000000009999123100000010000000000000BRDOTZACNOR7101
012024110402BLAU3       010BLAU        ON      NM   R$  000000000150000000000015890000000001478000000000154700000000015890000000001565000000000158901922000000000000451000000000000698017300000000000000009999123100000010000000000000BRBLAUACNOR8115
012024110402BMEB3       010MERCANTIL   ON      N1   R$  000000000362000000000036200000000003620000000000362000000000036200000000003570000000000369900003000000000000000300000000000001086000000000000000009999123100000010000000000000BRBMEBACNOR8206
012024110402BMEB4       010MERCANTIL   PN      N1   R$  000000000434000000000043850000000004165000000000425000000000042580000000004241000000000426700293000000000000035900000000000152606400000000000000009999123100000010000000000000BRBMEBACNPR5211
012024110402BMGB4       010BANCO BMG   PN      N1   R$  000000000039800000000004060000000000398000000000040100000000004010000000000399000000000040201144000000000000537600000000000215677800000000000000009999123100000010000000000000BRBMGBACNPR0111
012024110402BMKS3       010BIC MONARK  ON           R$  000000003061100000000310440000000030611000000003095700000000310440000000030701000000003159000007000000000000000022000000000000681055000000000000009999123100000010000000000000BRBMKSACNOR9166
012024110402BMOB3       010BEMOBI TECH ON      NM   R$  000000000147400000000015450000000001474000000000152200000000015380000000001538000000000154901484000000000000206100000000000313711700000000000000009999123100000010000000000000BRBMOBACNOR7103
012024110402BRAV3       010BRAVA       ON      NM   R$  000000000169100000000017150000000001685000000000169800000000016990000000001697000000000169911982000000000003806300000000006466094600000000000000009999123100000010000000000000BRBRAVACNOR3100
012024110402CURY3       010CURY S/A    ON      NM   R$  000000000242400000000024660000000002409000000000243000000000024100000000002408000000000242009387000000000001512200000000003675066400000000000000009999123100000010000000000000BRCURYACNOR3110
012024110402CVCB3       010CVC BRASIL  ON      NM   R$  000000000019800000000002140000000000198000000000020800000000002120000000000212000000000021310713000000000022392800000000004658075300000000000000009999123100000010000000000000BRCVCBACNOR1116
012024110402CXSE3       010CAIXA SEGURION      NM   R$  000000000146500000000015080000000001462000000000149200000000015080000000001505000000000150815691000000000005056300000000007547270100000000000000009999123100000010000000000000BRCXSEACNOR7107
012024110402ESPA3       010ESPACOLASER ON      NM   R$  000000000009500000000000980000000000095000000000009600000000000970000000000097000000000009800108000000000000197700000000000019140900000000000000009999123100000010000000000000BRESPAACNOR7103
012024110402ETER3       010ETERNIT     ON      NM   R$  000000000052200000000005310000000000522000000000052700000000005300000000000525000000000053000494000000000000121600000000000064162300000000000000009999123100000010000000000000BRETERACNOR3244
012024110402EUCA3       010EUCATEX     ON      N1   R$  000000000157600000000015760000000001576000000000157600000000015760000000001575000000000160000001000000000000000100000000000000157600000000000000009999123100000010000000000000BREUCAACNOR1157
012024110402EUCA4       010EUCATEX     PN      N1   R$  000000000141300000000014300000000001406000000000141300000000014070000000001407000000000141600315000000000000065500000000000092587700000000000000009999123100000010000000000000BREUCAACNPR8044
012024110402EVEN3       010EVEN        ON      NM   R$  000000000059300000000006120000000000593000000000060700000000006090000000000609000000000061003471000000000000798800000000000484873800000000000000009999123100000010000000000000BREVENACNOR8120
012024110402EZTC3       010EZTEC       ON      NM   R$  000000000152300000000015460000000001476000000000151800000000015450000000001543000000000154617156000000000005356300000000008136066900000000000000009999123100000010000000000000BREZTCACNOR0126
012024110402IFCM3       010INFRACOMM   ON      NM   R$  000000000001400000000000140000000000013000000000001300000000000140000000000013000000000001400733000000000002830900000000000039405700000000000000009999123100000010000000000000BRIFCMACNOR8101
012024110402IGTI11      010IGUATEMI S.AUNT     N1   R$  000000000205100000000021390000000002051000000000210700000000021060000000002099000000000210808299000000000002517800000000005306828700000000000000009999123100000010000000000000BRIGTICDAM16106
012024110402IGTI3       010IGUATEMI S.AON      N1   R$  000000000024900000000002570000000000248000000000025200000000002530000000000251000000000025300163000000000000095300000000000024091900000000000000009999123100000010000000000000BRIGTIACNOR8106
012024110402INEP3       010INEPAR      ON           R$  000000000015500000000001550000000000151000000000015300000000001510000000000151000000000015400024000000000000006600000000000001014200000000000000009999123100000010000000000000BRINEPACNOR1143
012024110402INEP4       010INEPAR      PN           R$  000000000015100000000001530000000000149000000000015000000000001500000000000150000000000015300028000000000000016400000000000002471000000000000000009999123100000010000000000000BRINEPACNPR8143
012024110402INTB3       010INTELBRAS   ON      NM   R$  000000000188600000000019010000000001857000000000188100000000018650000000001860000000000187207002000000000001872400000000003523853000000000000000009999123100000010000000000000BRINTBACNOR9112
012024110402IRBR3       010IRBBRASIL REON      NM   R$  000000000422000000000043110000000004192000000000424600000000042390000000004230000000000425403238000000000000628000000000002666933000000000000000009999123100000010000000000000BRIRBRACNOR4111
012024110402KRSA3       010KORA SAUDE  ON      NM   R$  000000000056200000000005910000000000560000000000057900000000005910000000000576000000000059100132000000000000036200000000000020994700000000000000009999123100000010000000000000BRKRSAACNOR0101
012024110402LAND3       010TERRASANTAPAON      NM   R$  000000000124100000000012900000000001241000000000127300000000012660000000001265000000000126600122000000000000015500000000000019737700000000000000009999123100000010000000000000BRLANDACNOR9103
012024110402LAVV3       010LAVVI       ON      NM   R$  000000000082900000000008650000000000829000000000085200000000008650000000000855000000000086505591000000000000977900000000000833248200000000000000009999123100000010000000000000BRLAVVACNOR4113
012024110402LEVE3       010METAL LEVE  ON      NM   R$  000000000303000000000030730000000003019000000000304500000000030590000000003059000000000307402042000000000000370500000000001128344000000000000000009999123100000010000000000000BRLEVEACNOR2197
012024110402LJQQ3       010QUERO-QUERO ON      NM   R$  000000000027800000000002910000000000276000000000028500000000002900000000000288000000000029005542000000000006482500000000001851710400000000000000009999123100000010000000000000BRLJQQACNOR5104
012024110402LOGG3       010LOG COM PROPON      NM   R$  000000000224000000000022780000000002240000000000226100000000022560000000002252000000000225602299000000000000271000000000000612863400000000000000009999123100000010000000000000BRLOGGACNOR7107
012024110402LOGN3       010LOG-IN      ON      NM   R$  000000000259900000000026200000000002512000000000256900000000025120000000002512000000000253300235000000000000031300000000000080435300000000000000009999123100000010000000000000BRLOGNACNOR3105
012024110402LPSB3       010LOPES BRASILON      NM   R$  000000000015900000000001630000000000155000000000015800000000001600000000000158000000000016000257000000000000115300000000000018230000000000000000009999123100000010000000000000BRLPSBACNOR0114
012024110402LREN3       010LOJAS RENNERON      NM   R$  000000000184500000000019070000000001836000000000187900000000018820000000001881000000000188618773000000000010824400000000020344657000000000000000009999123100000010000000000000BRLRENACNOR1222
012024110402AALR3       010ALLIAR      ON      NM   R$  000000000145000000000014570000000001406000000000142600000000014450000000001445000000000145200049000000000000005000000000000007131800000000000000009999123100000010000000000000BRAALRACNOR6102
012024110402PCAR3       010P.ACUCAR-CBDON      NM   R$  000000000029600000000003170000000000296000000000030800000000003170000000000316000000000031711949000000000014683500000000004527812100000000000000009999123100000010000000000000BRPCARACNOR3167
012024110402RAIZ4       010RAIZEN      PN      N2   R$  000000000028600000000002910000000000285000000000028800000000002900000000000290000000000029122461000000000017627100000000005083805400000000000000009999123100000010000000000000BRRAIZACNPR6111
012024110402RANI3       010IRANI       ON      NM   R$  000000000072800000000007690000000000728000000000075500000000007670000000000766000000000076702395000000000000862400000000000651440800000000000000009999123100000010000000000000BRRANIACNOR5073
012024110402RAPT3       010RANDON PART ON      N1   R$  000000000091500000000009270000000000887000000000090400000000009270000000000905000000000092700434000000000000103600000000000093673400000000000000009999123100000010000000000000BRRAPTACNOR7163
012024110402STBP3       010SANTOS BRP  ON  EDJ NM   R$  000000000127800000000012780000000001263000000000126900000000012760000000001268000000000127605181000000000003586000000000004553868200000000000000009999123100000010000000000000BRSTBPACNOR3133
012024110402SUZB3       010SUZANO S.A. ON      NM   R$  000000000600000000000060150000000005951000000000598100000000059970000000005997000000000599919241000000000004600300000000027518144800000000000000009999123100000010000000000000BRSUZBACNOR0130
012024110402NGRD3       010NEOGRID     ON      NM   R$  000000000239000000000024850000000002358000000000244800000000024800000000002450000000000248000320000000000000046400000000000113615100000000000000009999123100000010000000000000BRNGRDACNOR3106
012024110402NINJ3       010GETNINJAS   ON      NM   R$  000000000044900000000004490000000000438000000000044000000000004390000000000439000000000044400048000000000000011700000000000005154900000000000000009999123100000010000000000000BRNINJACNOR5101
012024110402NTCO3       010GRUPO NATURAON      NM   R$  000000000138100000000014610000000001373000000000142500000000014610000000001455000000000146228880000000000010432300000000014866196200000000000000009999123100000010000000000000BRNTCOACNOR5106
012024110402PETZ3       010PETZ        ON      NM   R$  000000000050200000000005230000000000501000000000051500000000005230000000000521000000000052409221000000000006805200000000003509919400000000000000009999123100000010000000000000BRPETZACNOR2110
012024110402RAIL3       010RUMO S.A.   ON      NM   R$  000000000195700000000020460000000001954000000000202400000000020460000000002045000000000204731996000000000012974100000000026259868400000000000000009999123100000010000000000000BRRAILACNOR9105
012024110402SMFT3       010SMART FIT   ON      NM   R$  000000000211900000000022230000000002119000000000217800000000021640000000002164000000000216911603000000000003102500000000006759324400000000000000009999123100000010000000000000BRSMFTACNOR1112
012024110402SMTO3       010SAO MARTINHOON      NM   R$  000000000267800000000027060000000002647000000000267700000000026700000000002670000000000268409460000000000001710800000000004580196500000000000000009999123100000010000000000000BRSMTOACNOR3127
012024110402SNSY3       010SANSUY      ON           R$  000000000107500000000010890000000001075000000000108600000000010890000000001050000000000108400003000000000000000600000000000000651900000000000000009999123100000010000000000000BRSNSYACNOR2113
012024110402SNSY5       010SANSUY      PNA          R$  000000000050700000000005070000000000500000000000050300000000005020000000000502000000000050600007000000000000001000000000000000503700000000000000009999123100000010000000000000BRSNSYACNPA5111
012024110402SOJA3       010BOA SAFRA   ON      NM   R$  000000000122100000000012960000000001221000000000127400000000012830000000001282000000000128502881000000000000574300000000000732078400000000000000009999123100000010000000000000BRSOJAACNOR9106
012024110402BRFS3       010BRF SA      ON      NM   R$  000000000260100000000026150000000002580000000000259900000000026010000000002598000000000260114908000000000007332000000000019056882600000000000000009999123100000010000000000000BRBRFSACNOR8122
012024110402BRIT3       010BRISANET    ON      NM   R$  000000000030600000000003210000000000306000000000031600000000003180000000000318000000000032000291000000000000156000000000000049342800000000000000009999123100000010000000000000BRBRITACNOR0103
012024110402CYRE3       010CYRELA REALTON      NM   R$  000000000217100000000022120000000002153000000000219200000000021950000000002195000000000220417265000000000006418800000000014072626600000000000000009999123100000010000000000000BRCYREACNOR7140
012024110407NUTR3       010NUTRIPLANT  ON      MA   R$  000000000039000000000003980000000000386000000000039000000000003870000000000383000000000039000028000000000000005600000000000002188400000000000000009999123100000010000000000000BRNUTRACNOR0104
012024110407SEQL3       010SEQUOIA LOG ON      NM   R$  000000000038100000000004040000000000378000000000038900000000003880000000000386000000000038801975000000000002008700000000000783142900000000000000009999123100000010000000000000BRSEQLACNOR2103
012024110407TXRX4       010TEX RENAUX  PN           R$  000000000021600000000002190000000000216000000000021700000000002190000000000216000000000021900003000000000000000400000000000000086900000000000000009999123100000010000000000000BRTXRXACNPR0142
012024110408OIBR3       010OI          ON      N1   R$  000000000044800000000004630000000000447000000000045600000000004620000000000458000000000046200971000000000000587400000000000268383200000000000000009999123100000010000000000000BROIBRACNOR1112
012024110408OIBR4       010OI          PN      N1   R$  000000000111200000000011850000000001060000000000112500000000011850000000001101000000000118500084000000000000016100000000000018115100000000000000009999123100000010000000000000BROIBRACNPR8111
012024110408OSXB3       010OSX BRASIL  ON      NM   R$  000000000046900000000004900000000000446000000000046300000000004510000000000452000000000046200020000000000000003100000000000001438200000000000000009999123100000010000000000000BROSXBACNOR8109
012024110408AMER3       010AMERICANAS  ON      NM   R$  000000000035300000000003620000000000348000000000035400000000003580000000000352000000000035806201000000000006040800000000002142399700000000000000009999123100000010000000000000BRAMERACNOR6103
012024110408AGXY3       010AGROGALAXY  ON      NM   R$  000000000004000000000000400000000000038000000000003900000000000390000000000039000000000004000207000000000000121300000000000004770300000000000000009999123100000010000000000000BRAGXYACNOR4103
012024110408CTSA3       010SANTANENSE  ON           R$  000000000020600000000002060000000000206000000000020600000000002060000000000201000000000023600002000000000000000200000000000000041200000000000000009999123100000010000000000000BRCTSAACNOR3062
012024110408JFEN3       010JOAO FORTES ON           R$  000000000002500000000000270000000000024000000000002500000000000240000000000024000000000002500338000000000002414400000000000060505300000000000000009999123100000010000000000000BRJFENACNOR0059
012024110408RNEW11      010RENOVA      UNT     N2   R$  000000000032100000000003310000000000310000000000032200000000003100000000000312000000000031700033000000000000011500000000000003706600000000000000009999123100000010000000000000BRRNEWCDAM15110
012024110408RNEW3       010RENOVA      ON      N2   R$  000000000010500000000001080000000000104000000000010500000000001040000000000104000000000010500060000000000000073900000000000007763200000000000000009999123100000010000000000000BRRNEWACNOR8110
012024110408RNEW4       010RENOVA      PN      N2   R$  000000000010700000000001070000000000102000000000010400000000001030000000000102000000000010300185000000000000216200000000000022576600000000000000009999123100000010000000000000BRRNEWACNPR5110
012024110408RPMG3       010PET MANGUINHON           R$  000000000029000000000003000000000000289000000000029200000000002910000000000291000000000029300040000000000000012100000000000003540400000000000000009999123100000010000000000000BRRPMGACNOR9194
012024110408RSID3       010ROSSI RESID ON      NM   R$  000000000029600000000002980000000000285000000000029200000000002960000000000288000000000029600173000000000000024900000000000007292900000000000000009999123100000010000000000000BRRSIDACNOR8120
012024110408PMAM3       010PARANAPANEMAON      NM   R$  000000000010900000000001150000000000105000000000010700000000001060000000000106000000000010700445000000000000401100000000000043281000000000000000009999123100000010000000000000BRPMAMACNOR3040
012024110408HOOT4       010HOTEIS OTHONPN           R$  000000000022900000000002290000000000225000000000022800000000002290000000000225000000000023400004000000000000001000000000000000228600000000000000009999123100000010000000000000BRHOOTACNPR9015
012024110408ATMP3       010ATMASA      ON           R$  000000000013800000000001380000000000138000000000013800000000001380000000000132000000000013700001000000000000000100000000000000013800000000000000009999123100000010000000000000BRATMPACNOR8100
012024110408CTSA4       010SANTANENSE  PN           R$  000000000010300000000001030000000000103000000000010300000000001030000000000103000000000010500003000000000000000400000000000000041200000000000000009999123100000010000000000000BRCTSAACNPR0062
012024110408LIGT3       010LIGHT S/A   ON  ES  NM   R$  000000000050300000000005100000000000498000000000050100000000005000000000000500000000000050501518000000000000937100000000000470121400000000000000009999123100000010000000000000BRLIGTACNOR2125
012024110408NEXP3       010NEXPE       ON           R$  000000000044700000000004470000000000447000000000044700000000004470000000000437000000000044400002000000000000000200000000000000089400000000000000009999123100000010000000000000BRNEXPACNOR0101
012024110410MBLY1       010MOBLY       DIR ORD NM   R$  000000000000100000000000010000000000001000000000000100000000000010000000000000000000000000100012000000000000024400000000000000024400000000000000009999123100000010000000000000BRMBLYD01OR0100
012024110410MBLY11      010MOBLY       DIR     NM   R$  000000000001100000000000120000000000006000000000000800000000000080000000000008000000000001100011000000000000005000000000000000040900000000000000009999123100000010000000000000BRMBLYD01M18100
012024110410PINE2       010PINE        DIR PRE N2   R$  000000000002900000000000470000000000029000000000003400000000000380000000000029000000000003900032000000000000009200000000000000315500000000000000009999123100000010000000000000BRPINED06PR2150
012024110410PINE1       010PINE        DIR ORD N2   R$  000000000001400000000000300000000000014000000000001900000000000200000000000018000000000002100146000000000000072300000000000001377100000000000000009999123100000010000000000000BRPINED04OR0150
012024110410HBSA1       010HIDROVIAS   DIR ORD NM   R$  000000000000100000000000020000000000001000000000000100000000000010000000000000000000000000100071000000000000634000000000000000644900000000000000009999123100000010000000000000BRHBSAD01OR5100
012024110410LIGT11      010LIGHT S/A   DIR     NM   R$  000000000002000000000000200000000000004000000000000900000000000040000000000004000000000000601045000000000001854800000000000017750600000000000000009999123100000010000000000000BRLIGTD01M16124
012024110410LIGT13      010LIGHT S/A   DIR     NM   R$  000000000002000000000000200000000000006000000000001300000000000080000000000008000000000001200467000000000000426700000000000005682800000000000000009999123100000010000000000000BRLIGTD02M15124
012024110412MXRF11      010FII MAXI RENCI  ER       R$  000000000094400000000009470000000000919000000000093000000000009270000000000926000000000092761024000000000004267846000000003969498545000000000000009999123100000010000000000000BRMXRFCTF008258
012024110412TMPS11      010FII ITAU TEMCI  ER       R$  000000000829600000000083810000000008210000000000824800000000082300000000008225000000000823000106000000000000002999000000000024737678000000000000009999123100000010000000000000BRTMPSCTF003119
012024110412TOPP11      010FII TOPP    CI           R$  000000000840000000000084500000000008027000000000820200000000080270000000008027000000000826703421000000000000011390000000000093425072000000000000009999123100000010000000000000BRTOPPCTF013101
012024110412TORD11      010FII TORDE EICI           R$  000000000009800000000000990000000000098000000000009800000000000990000000000098000000000009900321000000000000054128000000000005323044000000000000009999123100000010000000000000BRTORDCTF015138
012024110412NVHO11      010FII NOVOHORICI  ER       R$  000000000121500000000012150000000001199000000000119900000000012150000000001219000000000144400006000000000000000062000000000000074370000000000000009999123100000010000000000000BRNVHOCTF003234
012024110412NAVT11      010FII NAVI TOTCI           R$  000000000787700000000079500000000007561000000000773500000000075610000000007560000000000773000123000000000000001804000000000013955483000000000000009999123100000010000000000000BRNAVTCTF015143
012024110412NCHB11      010FII NCH BR  CI           R$  000000000087400000000008750000000000865000000000086900000000008670000000000865000000000086700256000000000000116592000000000101361690000000000000009999123100000010000000000000BRNCHBCTF000234
012024110412NCRI11      010FII NAVI CRICI           R$  000000000088800000000008970000000000862000000000089200000000008970000000000892000000000089700031000000000000007408000000000006613596000000000000009999123100000010000000000000BRNCRICTF004122
012024110412SJAU11      010FII SJ AU   CI           R$  000000000511000000000051100000000005110000000000511000000000051100000000005057000000000649700001000000000000000001000000000000005110000000000000009999123100000010000000000000BRSJAUCTF009102
012024110412XPIN11      010FII XP INDL CI           R$  000000000720500000000072450000000007142000000000718100000000071420000000007140000000000714200681000000000000008418000000000060456098000000000000009999123100000010000000000000BRXPINCTF004178
012024110412XPLG11      010FII XP LOG  CI  ER       R$  000000000970500000000097100000000009570000000000963400000000096500000000009650000000000965606484000000000000036995000000000356415777000000000000009999123100000010000000000000BRXPLGCTF002183
012024110412XPML11      010FII XP MALLSCI           R$  000000001035100000000104000000000010311000000001036200000000103460000000010346000000001036027331000000000000132224000000001370135187000000000000009999123100000010000000000000BRXPMLCTF000189
012024110412XPPR11      010FII XP PROP CI  ER       R$  000000000149400000000014990000000001450000000000147000000000014850000000001466000000000148500298000000000000006215000000000009138271000000000000009999123100000010000000000000BRXPPRCTF000160
012024110412XPSF11      010FII XP SELECCI  ER       R$  000000000067200000000006780000000000656000000000066300000000006680000000000663000000000066803322000000000000140122000000000093025843000000000000009999123100000010000000000000BRXPSFCTF009161
012024110412ZAGH11      010FII ZAGH    CI           R$  000000000130000000000013000000000001250000000000129800000000013000000000001250000000000130000009000000000000000048000000000000062350000000000000009999123100000010000000000000BRZAGHCTF007109
012024110412PRSN11      010FII PERSONALCI           R$  000000000013400000000001370000000000116000000000012800000000001160000000000116000000000012300016000000000000000154000000000000019788000000000000009999123100000010000000000000BRPRSNCTF005125
012024110412PRSV11      010FII P VARGASCI           R$  000000000589900000000060000000000005899000000000590600000000060000000000005800000000000640000006000000000000000400000000000002362522000000000000009999123100000010000000000000BRPRSVCTF008226
012024110412PULV11      010FII PULV    CI  ER       R$  000000000094500000000009880000000000944000000000094600000000009440000000000944000000000098400047000000000000013116000000000012415378000000000000009999123100000010000000000000BRPULVCTF007106
012024110412PVBI11      010FII VBI PRI CI  ER       R$  000000000786600000000079360000000007836000000000789800000000078750000000007838000000000787509849000000000000061506000000000485821026000000000000009999123100000010000000000000BRPVBICTF003157
012024110412QAGR11      010FII QUASAR ACI  ER       R$  000000000446200000000044680000000004426000000000444100000000044380000000004437000000000443800145000000000000000810000000000003597975000000000000009999123100000010000000000000BRQAGRCTF005160
012024110412SCPF11      010FII SCP     CI           R$  000000000020100000000002010000000000186000000000019900000000001910000000000192000000000019900029000000000000000222000000000000044180000000000000009999123100000010000000000000BRSCPFCTF003302
012024110412SEED11      010FII HEDGE SDCI  ER       R$  000000001001200000000100120000000010012000000001001200000000100120000000008350000000000000000003000000000000010000000000000100120000000000000000009999123100000010000000000000BRSEEDCTF008134
012024110412SEQR11      010FII SEQUOIA CI           R$  000000000504900000000050490000000004982000000000501200000000049910000000005000000000000501900091000000000000002166000000000010856359000000000000009999123100000010000000000000BRSEQRCTF002147
012024110412SHPH11      010FII HIGIENOPCI  ER       R$  000000008900000000000890000000000086500000000008752900000000866000000000086500000000008675200006000000000000000007000000000000612704000000000000009999123100000010000000000000BRSHPHCTF008355
012024110412WHGR11      010FII WHG REALCI  ER       R$  000000000086800000000008690000000000861000000000086500000000008650000000000861000000000086501367000000000000022882000000000019808701000000000000009999123100000010000000000000BRWHGRCTF008130
012024110412WPLZ11      010FII W PLAZA CI  ER       R$  000000000569900000000056990000000005699000000000569900000000056990000000005445000000000570000004000000000000000007000000000000039893000000000000009999123100000010000000000000BRWPLZCTF004271
012024110412OCRE11      010FII OCTO    CI  ER       R$  000000000985000000000104000000000009850000000001039300000000104000000000010400000000000000000003000000000000000080000000000000831446000000000000009999123100000010000000000000BROCRECTF001119
012024110412OUJP11      010FII OURI JPPCI  ER       R$  000000000782300000000078250000000007751000000000779500000000077900000000007790000000000780001273000000000000006086000000000047445310000000000000009999123100000010000000000000BROUJPCTF006192
012024110412OULG11      010FII OURILOG CI           R$  000000000313900000000031960000000003110000000000313900000000031550000000003155000000000319500087000000000000003361000000000010550900000000000000009999123100000010000000000000BROULGCTF001153
012024110412CACR11      010CARTESIA FIICI  ER       R$  000000000995500000000101780000000009951000000001005200000000100800000000010080000000001008604823000000000000029900000000000300564968000000000000009999123100000010000000000000BRCACRCTF004138
012024110412CARE11      010FII DEA CARECI           R$  000000000014600000000001500000000000144000000000014700000000001490000000000148000000000014900138000000000000001515000000000000224045000000000000009999123100000010000000000000BRCARECTF000112
012024110412CBOP11      010FII CBOP PAXCI  ER       R$  000000000237600000000023760000000002317000000000234400000000023510000000002321000000000235100015000000000000000042000000000000098485000000000000009999123100000010000000000000BRCBOPCTF001235
012024110412CCME11      010FII CANUMA  CI           R$  000000000094000000000009480000000000920000000000093000000000009210000000000921000000000093002220000000000000050706000000000047196963000000000000009999123100000010000000000000BRCCMECTF007127
012024110412TEPP11      010FII TEL PROPCI  ER       R$  000000000848900000000085490000000008401000000000844600000000084270000000008426000000000844502238000000000000014228000000000120177677000000000000009999123100000010000000000000BRTEPPCTF006155
012024110412TGAR11      010FII TG ATIVOCI  ER       R$  000000001000000000000101110000000009800000000000991300000000098530000000009853000000000987221498000000000000158964000000001575957571000000000000009999123100000010000000000000BRTGARCTF009196
012024110412ABCP11      010FII ABC IMOBCI  ER       R$  000000000750000000000075000000000007400000000000747300000000074000000000007400000000000746000109000000000000000745000000000005568109000000000000009999123100000010000000000000BRABCPCTF000344
012024110412BARI11      010FII BARIGUI CI  ER       R$  000000000740500000000074790000000007400000000000743200000000074400000000007440000000000744103265000000000000012213000000000090771668000000000000009999123100000010000000000000BRBARICTF003167
012024110412CPTS11      010FII CAPI SECCI           R$  000000000072100000000007240000000000715000000000071800000000007190000000000718000000000071928360000000000001428697000000001026300274000000000000009999123100000010000000000000BRCPTSCTF004235
012024110412CRFF11      010FII CX RBRA2CI  ER       R$  000000000710000000000077980000000007099000000000710300000000077980000000007798000000000779900010000000000000000433000000000003075691000000000000009999123100000010000000000000BRCRFFCTF006166
012024110412CNES11      010FII CENESP  CI  ER       R$  000000000013100000000001350000000000130000000000013100000000001300000000000130000000000013102397000000000000045791000000000006026758000000000000009999123100000010000000000000BRCNESCTF001264
012024110412CPLG11      010FII CPLG    CI           R$  000000000108000000000010800000000001080000000000108000000000010800000000001000000000000109000002000000000000000002000000000000002160000000000000009999123100000010000000000000BRCPLGCTF006101
012024110412CPSH11      010FII CPSH    CI           R$  000000000098800000000010070000000000980000000000099600000000009950000000000988000000000099502683000000000000282654000000000281678731000000000000009999123100000010000000000000BRCPSHCTF017118
012024110412SADI11      010FII SANT PAPCI  ER       R$  000000000088700000000008880000000000876000000000088100000000008800000000000877000000000088000622000000000000042826000000000037757244000000000000009999123100000010000000000000BRSADICTF007165
012024110412TRXB11      010FII TRX R IICI  ER       R$  000000001300200000000138990000000012756000000001336700000000136010000000012501000000001360000007000000000000000010000000000000133670000000000000009999123100000010000000000000BRTRXBCTF002156
012024110412TRXF11      010FII TRX REALCI  ER       R$  000000001002700000000100750000000009990000000001001100000000100080000000009999000000001000811985000000000000064086000000000641619909000000000000009999123100000010000000000000BRTRXFCTF003169
