00COTAHIST.2024BOVESPA 20241105                                                                                                                                                                                                                      
012024110502WEGE3       010WEG         ON      NM   R$  000000000558800000000056320000000005492000000000555500000000056010000000005590000000000560318289000000000005779800000000032109275900000000000000009999123100000010000000000000BRWEGEACNOR0225
012024110502BAHI3       010BAHEMA      ON      MA   R$  000000000048200000000004890000000000475000000000048400000000004890000000000446000000000048900014000000000000005200000000000002519300000000000000009999123100000010000000000000BRBAHIACNOR1074
012024110502BAZA3       010AMAZONIA    ON           R$  000000000892100000000091100000000008921000000000906200000000091090000000009050000000000939900004000000000000000400000000000003624900000000000000009999123100000010000000000000BRBAZAACNOR0179
012024110502BBAS3       010BRASIL      ON      NM   R$  000000000262700000000026290000000002606000000000261900000000026250000000002624000000000262626852000000000014050600000000036800160600000000000000009999123100000010000000000000BRBBASACNOR3326
012024110502BEES3       010BANESTES    ON  EJ       R$  000000000086000000000008650000000000860000000000086200000000008600000000000860000000000086300032000000000000004700000000000004052400000000000000009999123100000010000000000000BRBEESACNOR9397
012024110502BEES4       010BANESTES    PN  EJ       R$  000000000088900000000008890000000000880000000000088400000000008800000000000880000000000088400024000000000000003900000000000003450700000000000000009999123100000010000000000000BRBEESACNPR6322
012024110502ROMI3       010ROMI        ON      NM   R$  000000000099800000000010030000000000988000000000099300000000010000000000000996000000000100000985000000000000244500000000000242996000000000000000009999123100000010000000000000BRROMIACNOR8196
012024110502RSUL4       010RIOSULENSE  PN           R$  000000000626500000000062650000000006050000000000608100000000060500000000005811000000000605000025000000000000002500000000000015202500000000000000009999123100000010000000000000BRRSULACNPR3114
012024110502SANB11      010SANTANDER BRUNT          R$  000000000268000000000027000000000002667000000000268000000000026870000000002687000000000269108219000000000003435400000000009209029600000000000000009999123100000010000000000000BRSANBCDAM13166
012024110502SANB3       010SANTANDER BRON           R$  000000000127900000000012800000000001264000000000127200000000012770000000001276000000000127900448000000000000088300000000000112331300000000000000009999123100000010000000000000BRSANBACNOR8173
012024110502SANB4       010SANTANDER BRPN           R$  000000000141000000000014210000000001404000000000141000000000014160000000001414000000000142100414000000000000092800000000000130920700000000000000009999123100000010000000000000BRSANBACNPR5173
012024110502TRPL4       010TRAN PAULISTPN      N1   R$  000000000244700000000024670000000002431000000000244800000000024670000000002464000000000246806361000000000001390000000000003403961900000000000000009999123100000010000000000000BRTRPLACNPR1185
012024110502TTEN3       0103TENTOS     ON      NM   R$  000000000117300000000012000000000001165000000000118200000000011960000000001196000000000119703866000000000000622500000000000736202300000000000000009999123100000010000000000000BRTTENACNOR0103
012024110502TUPY3       010TUPY        ON      NM   R$  000000000236500000000023680000000002320000000000234000000000023550000000002350000000000235503484000000000000556400000000001302244100000000000000009999123100000010000000000000BRTUPYACNOR1184
012024110502UCAS3       010UNICASA     ON      NM   R$  000000000021600000000002170000000000213000000000021400000000002130000000000213000000000021500065000000000000013400000000000002873100000000000000009999123100000010000000000000BRUCASACNOR1113
012024110502UGPA3       010ULTRAPAR    ON      NM   R$  000000000210100000000021390000000002083000000000211700000000021180000000002117000000000212212529000000000003565200000000007548288400000000000000009999123100000010000000000000BRUGPAACNOR8156
012024110502ODPV3       010ODONTOPREV  ON      NM   R$  000000000113400000000011650000000001127000000000115100000000011560000000001156000000000116403934000000000001214000000000001397484500000000000000009999123100000010000000000000BRODPVACNOR4204
012024110502OFSA3       010OUROFINO S/AON      NM   R$  000000000220000000000022000000000002200000000000220000000000022000000000002200000000000223800002000000000000000200000000000000440000000000000000009999123100000010000000000000BROFSAACNOR7118
012024110502ONCO3       010ONCOCLINICASON      NM   R$  000000000044800000000004520000000000442000000000044600000000004490000000000448000000000044902509000000000003259600000000001457014000000000000000009999123100000010000000000000BRONCOACNOR6101
012024110502VITT3       010VITTIA      ON      NM   R$  000000000055900000000005700000000000551000000000056000000000005610000000000559000000000056100744000000000000181200000000000101536500000000000000009999123100000010000000000000BRVITTACNOR4108
012024110502VIVA3       010VIVARA S.A. ON      NM   R$  000000000261300000000026280000000002540000000000259600000000026140000000002605000000000261410152000000000002124100000000005514632700000000000000009999123100000010000000000000BRVIVAACNOR0107
012024110502VIVR3       010VIVER       ON      NM   R$  000000000015100000000001520000000000143000000000014600000000001480000000000145000000000014800157000000000000074100000000000010824600000000000000009999123100000010000000000000BRVIVRACNOR4123
012024110502VIVT3       010TELEF BRASILON           R$  000000000534500000000053900000000005185000000000527100000000053020000000005290000000000530213796000000000003120400000000016450564100000000000000009999123100000010000000000000BRVIVTACNOR0184
012024110502VLID3       010VALID       ON      NM   R$  000000000243000000000026000000000002407000000000252900000000025850000000002580000000000258503491000000000000601200000000001520468400000000000000009999123100000010000000000000BRVLIDACNOR5144
012024110502NEOE3       010NEOENERGIA  ON      NM   R$  000000000194700000000019630000000001935000000000194300000000019450000000001945000000000194705107000000000001585200000000003080899400000000000000009999123100000010000000000000BRNEOEACNOR3123
012024110502NGRD3       010NEOGRID     ON      NM   R$  000000000247700000000024980000000002279000000000238600000000024800000000002448000000000248000955000000000000155800000000000371843100000000000000009999123100000010000000000000BRNGRDACNOR3106
012024110502NINJ3       010GETNINJAS   ON      NM   R$  000000000043900000000004440000000000436000000000043900000000004370000000000437000000000044300031000000000000007500000000000003295800000000000000009999123100000010000000000000BRNINJACNOR5101
012024110502NORD3       010NORDON MET  ON           R$  000000000078900000000007890000000000789000000000078900000000007890000000000751000000000078900002000000000000000200000000000000157800000000000000009999123100000010000000000000BRNORDACNOR7135
012024110502NTCO3       010GRUPO NATURAON      NM   R$  000000000146000000000014610000000001424000000000144000000000014280000000001427000000000142811195000000000005115000000000007367123300000000000000009999123100000010000000000000BRNTCOACNOR5106
012024110502RAIL3       010RUMO S.A.   ON      NM   R$  000000000204800000000020610000000002019000000000204100000000020470000000002045000000000205325212000000000010429200000000021293864800000000000000009999123100000010000000000000BRRAILACNOR9105
012024110502SMFT3       010SMART FIT   ON      NM   R$  000000000215000000000021720000000002126000000000215100000000021500000000002149000000000215505296000000000006257200000000013463086900000000000000009999123100000010000000000000BRSMFTACNOR1112
012024110502GRND3       010GRENDENE    ON      NM   R$  000000000052900000000005350000000000524000000000053000000000005330000000000533000000000053502174000000000000630700000000000334505900000000000000009999123100000010000000000000BRGRNDACNOR3175
012024110502MDNE3       010MOURA DUBEUXON      NM   R$  000000000161200000000016480000000001602000000000162800000000016280000000001628000000000163303511000000000000751600000000001223923600000000000000009999123100000010000000000000BRMDNEACNOR9100
012024110502MEAL3       010IMC S/A     ON      NM   R$  000000000013200000000001320000000000130000000000013000000000001320000000000131000000000013200097000000000000136800000000000017884900000000000000009999123100000010000000000000BRMEALACNOR9105
012024110502MELK3       010MELNICK     ON      NM   R$  000000000035700000000003760000000000357000000000036600000000003760000000000372000000000037600493000000000000378100000000000138432600000000000000009999123100000010000000000000BRMELKACNOR8111
012024110502SMTO3       010SAO MARTINHOON      NM   R$  000000000267200000000027000000000002620000000000266800000000026950000000002695000000000270008306000000000001627500000000004343417400000000000000009999123100000010000000000000BRSMTOACNOR3127
012024110502SNSY3       010SANSUY      ON           R$  000000000110000000000011140000000001100000000000111000000000011140000000001081000000000110900004000000000000000600000000000000666300000000000000009999123100000010000000000000BRSNSYACNOR2113
012024110502SNSY5       010SANSUY      PNA          R$  000000000050600000000005590000000000506000000000054200000000005410000000000504000000000053900007000000000000001900000000000001030700000000000000009999123100000010000000000000BRSNSYACNPA5111
012024110502SOJA3       010BOA SAFRA   ON      NM   R$  000000000127100000000013120000000001264000000000129800000000013120000000001307000000000131302875000000000000546700000000000709667700000000000000009999123100000010000000000000BRSOJAACNOR9106
012024110502BGIP3       010BANESE      ON           R$  000000000251000000000025700000000002500000000000253200000000025500000000002300000000000000000004000000000000000400000000000001013000000000000000009999123100000010000000000000BRBGIPACNOR1210
012024110502BGIP4       010BANESE      PN           R$  000000000234300000000024000000000002341000000000234900000000024000000000002336000000000240000003000000000000000800000000000001879300000000000000009999123100000010000000000000BRBGIPACNPR8210
012024110502BHIA3       010CASAS BAHIA ON      NM   R$  000000000042600000000004290000000000412000000000041800000000004160000000000416000000000042002253000000000002210700000000000924929700000000000000009999123100000010000000000000BRBHIAACNOR1102
012024110502JHSF3       010JHSF PART   ON  ED  NM   R$  000000000045700000000004620000000000449000000000045700000000004610000000000460000000000046202717000000000001700200000000000777208900000000000000009999123100000010000000000000BRJHSFACNOR2141
012024110502JSLG3       010JSL         ON      NM   R$  000000000081000000000008390000000000805000000000082600000000008300000000000830000000000083702760000000000000434800000000000359324300000000000000009999123100000010000000000000BRJSLGACNOR2121
012024110502MILS3       010MILLS       ON      NM   R$  000000000104500000000010640000000001037000000000105100000000010590000000001058000000000106401668000000000000532100000000000559285000000000000000009999123100000010000000000000BRMILSACNOR2128
012024110502MLAS3       010MULTILASER  ON      NM   R$  000000000017200000000001720000000000164000000000016700000000001700000000000168000000000017002448000000000001683000000000000281953900000000000000009999123100000010000000000000BRMLASACNOR9101
012024110502MNPR3       010MINUPAR     ON           R$  000000000196500000000020450000000001965000000000202100000000020200000000001901000000000200000015000000000000001600000000000003234300000000000000009999123100000010000000000000BRMNPRACNOR5122
012024110502MOVI3       010MOVIDA      ON  ATZ NM   R$  000000000063200000000006630000000000621000000000064400000000006560000000000655000000000065709097000000000004939000000000003183719200000000000000009999123100000010000000000000BRMOVIACNOR0123
012024110502MRFG3       010MARFRIG     ON      NM   R$  000000000159700000000016030000000001566000000000158000000000015860000000001578000000000158609294000000000002598100000000004105395700000000000000009999123100000010000000000000BRMRFGACNOR0116
012024110502IGTI3       010IGUATEMI S.AON      N1   R$  000000000025700000000002580000000000251000000000025200000000002520000000000251000000000025200057000000000000021900000000000005531500000000000000009999123100000010000000000000BRIGTIACNOR8106
012024110502INEP3       010INEPAR      ON           R$  000000000015400000000001540000000000150000000000015000000000001500000000000150000000000015200019000000000000014200000000000002143800000000000000009999123100000010000000000000BRINEPACNOR1143
012024110502INEP4       010INEPAR      PN           R$  000000000014800000000001490000000000146000000000014600000000001470000000000147000000000014900016000000000000006400000000000000939400000000000000009999123100000010000000000000BRINEPACNPR8143
012024110502INTB3       010INTELBRAS   ON      NM   R$  000000000187100000000018990000000001842000000000187000000000018700000000001864000000000187004446000000000001425500000000002666117500000000000000009999123100000010000000000000BRINTBACNOR9112
012024110502IRBR3       010IRBBRASIL REON      NM   R$  000000000422100000000043100000000004190000000000424900000000042950000000004281000000000429503804000000000000689200000000002928963400000000000000009999123100000010000000000000BRIRBRACNOR4111
012024110502KRSA3       010KORA SAUDE  ON      NM   R$  000000000057900000000006350000000000579000000000061100000000006190000000000610000000000061900100000000000000035400000000000021659000000000000000009999123100000010000000000000BRKRSAACNOR0101
012024110502LAND3       010TERRASANTAPAON      NM   R$  000000000126700000000012950000000001230000000000125500000000012300000000001230000000000124700175000000000000032000000000000040166000000000000000009999123100000010000000000000BRLANDACNOR9103
012024110502LAVV3       010LAVVI       ON      NM   R$  000000000086500000000008710000000000849000000000085800000000008680000000000868000000000086903236000000000000621800000000000533854200000000000000009999123100000010000000000000BRLAVVACNOR4113
012024110502LEVE3       010METAL LEVE  ON      NM   R$  000000000307600000000030760000000003024000000000304200000000030470000000003047000000000306001628000000000000238900000000000726822100000000000000009999123100000010000000000000BRLEVEACNOR2197
012024110502LJQQ3       010QUERO-QUERO ON      NM   R$  000000000029100000000002980000000000281000000000029100000000002940000000000294000000000029505569000000000005246000000000001528977600000000000000009999123100000010000000000000BRLJQQACNOR5104
012024110502LOGG3       010LOG COM PROPON      NM   R$  000000000223600000000022600000000002227000000000224600000000022470000000002247000000000225201756000000000000209400000000000470441200000000000000009999123100000010000000000000BRLOGGACNOR7107
012024110502LOGN3       010LOG-IN      ON      NM   R$  000000000250200000000025740000000002500000000000252500000000025180000000002517000000000252900324000000000000062200000000000157100700000000000000009999123100000010000000000000BRLOGNACNOR3105
012024110502LPSB3       010LOPES BRASILON      NM   R$  000000000016100000000001640000000000158000000000016000000000001630000000000161000000000016300139000000000000067300000000000010807100000000000000009999123100000010000000000000BRLPSBACNOR0114
012024110502LREN3       010LOJAS RENNERON      NM   R$  000000000187100000000018990000000001832000000000187100000000018700000000001869000000000187518126000000000007765100000000014532000600000000000000009999123100000010000000000000BRLRENACNOR1222
012024110502TAEE11      010TAESA       UNT     N2   R$  000000000349000000000035070000000003463000000000347200000000034680000000003468000000000347406831000000000001573600000000005464818000000000000000009999123100000010000000000000BRTAEECDAM10148
012024110502TAEE3       010TAESA       ON      N2   R$  000000000115700000000011600000000001147000000000115100000000011510000000001151000000000115400348000000000000074300000000000085574800000000000000009999123100000010000000000000BRTAEEACNOR9148
012024110502TAEE4       010TAESA       PN      N2   R$  000000000116900000000011690000000001156000000000115900000000011630000000001162000000000116300427000000000000093300000000000108214000000000000000009999123100000010000000000000BRTAEEACNPR6148
012024110502AALR3       010ALLIAR      ON      NM   R$  000000000146200000000014640000000001426000000000144800000000014510000000001450000000000146400031000000000000003400000000000004925000000000000000009999123100000010000000000000BRAALRACNOR6102
012024110502ABCB4       010ABC BRASIL  PN      N2   R$  000000000209000000000021110000000002078000000000209700000000020970000000002097000000000210003545000000000000883200000000001852224600000000000000009999123100000010000000000000BRABCBACNPR4146
012024110502ABEV3       010AMBEV S/A   ON           R$  000000000126000000000012740000000001257000000000126400000000012680000000001267000000000126827277000000000018352000000000023197663000000000000000009999123100000010000000000000BRABEVACNOR1128
012024110502TASA3       010TAURUS ARMASON      N2   R$  000000000101000000000010150000000001000000000000100600000000010060000000001006000000000101400071000000000000024800000000000024963500000000000000009999123100000010000000000000BRTASAACNOR7104
012024110502TASA4       010TAURUS ARMASPN      N2   R$  000000000099900000000010100000000000984000000000099800000000010030000000001003000000000100901421000000000000319300000000000318912800000000000000009999123100000010000000000000BRTASAACNPR4104
012024110502TCSA3       010TECNISA     ON      NM   R$  000000000013900000000001430000000000138000000000014000000000001390000000000139000000000014100432000000000000093300000000000013126700000000000000009999123100000010000000000000BRTCSAACNOR3112
012024110502TECN3       010TECHNOS     ON      NM   R$  000000000052200000000005230000000000508000000000051200000000005100000000000510000000000051600160000000000000073200000000000037523800000000000000009999123100000010000000000000BRTECNACNOR6109
012024110502TELB3       010TELEBRAS    ON           R$  000000000141600000000014200000000001383000000000140400000000013830000000001368000000000141500004000000000000000400000000000000561900000000000000009999123100000010000000000000BRTELBACNOR2140
012024110502TELB4       010TELEBRAS    PN           R$  000000000088000000000008960000000000873000000000088800000000008960000000000896000000000089900020000000000000003500000000000003109500000000000000009999123100000010000000000000BRTELBACNPR9140
012024110502TEND3       010TENDA       ON      NM   R$  000000000156900000000015900000000001537000000000156200000000015600000000001554000000000156007902000000000002801400000000004378075800000000000000009999123100000010000000000000BRTENDACNOR4111
012024110502TFCO4       010TRACK FIELD PN      N2   R$  000000000101500000000010250000000001009000000000101200000000010090000000001008000000000102000502000000000000216900000000000219531500000000000000009999123100000010000000000000BRTFCOACNPR8115
012024110502TGMA3       010TEGMA       ON      NM   R$  000000000307500000000031720000000003064000000000313900000000031550000000003147000000000315504459000000000000815300000000002559821100000000000000009999123100000010000000000000BRTGMAACNOR7145
012024110502TIMS3       010TIM         ON      NM   R$  000000000167900000000016880000000001587000000000161700000000016130000000001612000000000161326040000000000024559700000000039719681600000000000000009999123100000010000000000000BRTIMSACNOR5118
012024110502BIOM3       010BIOMM       ON      MA   R$  000000000088600000000009600000000000886000000000094000000000009600000000000960000000000096300220000000000000062700000000000058997900000000000000009999123100000010000000000000BRBIOMACNOR2112
012024110502ARML3       010ARMAC       ON      NM   R$  000000000076000000000007760000000000744000000000076200000000007750000000000767000000000077501555000000000000388300000000000296210300000000000000009999123100000010000000000000BRARMLACNOR1113
012024110502ASAI3       010ASSAI       ON      NM   R$  000000000077100000000007810000000000742000000000076500000000007680000000000767000000000077115139000000000013215900000000010113386800000000000000009999123100000010000000000000BRASAIACNOR0106
012024110502BBDC3       010BRADESCO    ON  EJ  N1   R$  000000000124800000000012520000000001233000000000124200000000012450000000001244000000000124714410000000000010922500000000013573666300000000000000009999123100000010000000000000BRBBDCACNOR1777
012024110502BBDC4       010BRADESCO    PN  EJ  N1   R$  000000000140500000000014120000000001386000000000139600000000013930000000001393000000000139439764000000000080715900000000112748521000000000000000009999123100000010000000000000BRBBDCACNPR8777
012024110502BSLI3       010BRB BANCO   ON  ES       R$  000000000088600000000008860000000000886000000000088600000000008860000000000871000000000092000001000000000000000100000000000000088600000000000000009999123100000010000000000000BRBSLIACNOR5195
012024110502BSLI4       010BRB BANCO   PN  ES       R$  000000000090000000000009000000000000840000000000084700000000008500000000000835000000000085000011000000000000001300000000000001102000000000000000009999123100000010000000000000BRBSLIACNPR2195
012024110502CAMB3       010CAMBUCI     ON           R$  000000000119400000000012000000000001138000000000115500000000011470000000001147000000000116300534000000000000172700000000000199534900000000000000009999123100000010000000000000BRCAMBACNOR4131
012024110502CAML3       010CAMIL       ON      NM   R$  000000000079500000000007960000000000781000000000078700000000007960000000000793000000000079701092000000000000218700000000000172283000000000000000009999123100000010000000000000BRCAMLACNOR3129
012024110502CASH3       010MELIUZ      ON      NM   R$  000000000034700000000003670000000000347000000000035800000000003670000000000363000000000036701561000000000000721700000000000258659200000000000000009999123100000010000000000000BRCASHACNOR8107
012024110502CBAV3       010CBA         ON      NM   R$  000000000060300000000006170000000000598000000000060700000000006170000000000616000000000061705635000000000003477900000000002113221900000000000000009999123100000010000000000000BRCBAVACNOR5104
012024110502CCRO3       010CCR SA      ON      NM   R$  000000000122400000000012280000000001209000000000121900000000012210000000001220000000000122113758000000000010173700000000012402156400000000000000009999123100000010000000000000BRCCROACNOR2145
012024110502CSUD3       010CSU DIGITAL ON      NM   R$  000000000172200000000017480000000001685000000000171100000000017140000000001714000000000172200319000000000000050000000000000085594200000000000000009999123100000010000000000000BRCSUDACNOR5111
012024110502CURY3       010CURY S/A    ON      NM   R$  000000000241600000000024410000000002317000000000237200000000023560000000002355000000000236410254000000000002507900000000005949317000000000000000009999123100000010000000000000BRCURYACNOR3110
012024110502CVCB3       010CVC BRASIL  ON      NM   R$  000000000021000000000002170000000000207000000000021200000000002140000000000214000000000021505597000000000014098100000000002994938000000000000000009999123100000010000000000000BRCVCBACNOR1116
012024110502BBSE3       010BBSEGURIDADEON      NM   R$  000000000347000000000035320000000003422000000000348800000000035110000000003500000000000351214484000000000005831900000000020347364400000000000000009999123100000010000000000000BRBBSEACNOR5125
012024110502BPAC11      010BTGP BANCO  UNT     N2   R$  000000000331500000000033190000000003253000000000329100000000033170000000003306000000000331713345000000000003804700000000012522563800000000000000009999123100000010000000000000BRBPACUNT006119
012024110502BPAC3       010BTGP BANCO  ON      N2   R$  000000000152100000000015400000000001521000000000152700000000015400000000001525000000000155900013000000000000001400000000000002138100000000000000009999123100000010000000000000BRBPACACNOR7134
012024110502FESA3       010FERBASA     ON      N1   R$  000000000122500000000012250000000001225000000000122500000000012250000000001173000000000127000001000000000000000100000000000000122500000000000000009999123100000010000000000000BRFESAACNOR8189
012024110502FESA4       010FERBASA     PN      N1   R$  000000000076700000000007930000000000765000000000078200000000007930000000000788000000000079401585000000000000548100000000000428842000000000000000009999123100000010000000000000BRFESAACNPR5085
012024110502FHER3       010FER HERINGERON      NM   R$  000000000037200000000003720000000000365000000000036900000000003650000000000367000000000037300010000000000000001800000000000000665900000000000000009999123100000010000000000000BRFHERACNOR5103
012024110502FIQE3       010UNIFIQUE    ON      NM   R$  000000000039300000000003980000000000389000000000039300000000003980000000000394000000000039800748000000000000282300000000000111180900000000000000009999123100000010000000000000BRFIQEACNOR5107
012024110502BPAC5       010BTGP BANCO  PNA     N2   R$  000000000085900000000008810000000000859000000000087400000000008750000000000862000000000089000010000000000000001400000000000001223700000000000000009999123100000010000000000000BRBPACACNPA0134
012024110502EALT4       010ACO ALTONA  PN           R$  000000000132700000000013500000000001326000000000134200000000013490000000001326000000000134900042000000000000013100000000000017585300000000000000009999123100000010000000000000BREALTACNPR1138
012024110502ECOR3       010ECORODOVIAS ON      NM   R$  000000000072400000000007240000000000701000000000071100000000007200000000000716000000000072004500000000000002944100000000002095387700000000000000009999123100000010000000000000BRECORACNOR8120
012024110502FLRY3       010FLEURY      ON      NM   R$  000000000145800000000014610000000001428000000000145100000000014530000000001453000000000145607832000000000003851000000000005587926500000000000000009999123100000010000000000000BRFLRYACNOR5139
012024110502FRAS3       010FRAS-LE     ON      N1   R$  000000000214500000000021740000000002124000000000214200000000021580000000002140000000000216001891000000000000363500000000000778673500000000000000009999123100000010000000000000BRFRASACNOR0160
012024110502FRIO3       010METALFRIO   ON      NM   R$  000000001350000000000144000000000013500000000001414100000000144000000000013161000000001450000011000000000000001300000000000018384300000000000000009999123100000010000000000000BRFRIOACNOR2111
012024110502EGIE3       010ENGIE BRASILON      NM   R$  000000000416100000000041900000000004133000000000416400000000041780000000004170000000000418204246000000000000863100000000003594443500000000000000009999123100000010000000000000BREGIEACNOR9127
012024110502EKTR4       010ELEKTRO     PN  ED       R$  000000000430000000000043980000000004300000000000432400000000043000000000004300000000000439800004000000000000000400000000000001729800000000000000009999123100000010000000000000BREKTRACNPR7166
012024110502GSHP3       010GENERALSHOPPON           R$  000000000075000000000007500000000000750000000000075000000000007500000000000655000000000075000003000000000000001600000000000001200000000000000000009999123100000010000000000000BRGSHPACNOR7102
012024110502GUAR3       010GUARARAPES  ON      NM   R$  000000000091000000000009410000000000888000000000092700000000009410000000000930000000000094203564000000000001531700000000001420765300000000000000009999123100000010000000000000BRGUARACNOR4173
012024110502HAGA3       010HAGA S/A    ON           R$  000000000024600000000002490000000000243000000000024600000000002460000000000246000000000024800013000000000000001300000000000000319800000000000000009999123100000010000000000000BRHAGAACNOR7103
012024110502HAGA4       010HAGA S/A    PN           R$  000000000013000000000001310000000000126000000000012700000000001300000000000127000000000012900015000000000000004000000000000000511800000000000000009999123100000010000000000000BRHAGAACNPR4103
012024110502HAPV3       010HAPVIDA     ON      NM   R$  000000000034500000000003450000000000333000000000033800000000003410000000000340000000000034130696000000000048986100000000016572115800000000000000009999123100000010000000000000BRHAPVACNOR4115
012024110502AZUL4       010AZUL        PN      N2   R$  000000000051500000000005390000000000498000000000051900000000005310000000000530000000000053112498000000000026427600000000013726558500000000000000009999123100000010000000000000BRAZULACNPR4103
012024110502EVEN3       010EVEN        ON      NM   R$  000000000061000000000006140000000000600000000000060500000000006010000000000601000000000060601911000000000000663300000000000401810500000000000000009999123100000010000000000000BREVENACNOR8120
012024110502EZTC3       010EZTEC       ON      NM   R$  000000000154500000000015730000000001515000000000154800000000015490000000001549000000000155310249000000000003365600000000005210515200000000000000009999123100000010000000000000BREZTCACNOR0126
012024110502IFCM3       010INFRACOMM   ON      NM   R$  000000000001400000000000140000000000013000000000001300000000000130000000000013000000000001400456000000000000963400000000000013138600000000000000009999123100000010000000000000BRIFCMACNOR8101
012024110502IGTI11      010IGUATEMI S.AUNT     N1   R$  000000000211500000000021170000000002088000000000210100000000021050000000002098000000000210506093000000000001958800000000004117121300000000000000009999123100000010000000000000BRIGTICDAM16106
012024110502KEPL3       010KEPLER WEBERON      NM   R$  000000000103500000000010700000000001028000000000105500000000010620000000001062000000000106405126000000000001313100000000001385877600000000000000009999123100000010000000000000BRKEPLACNOR1064
012024110502KLBN11      010KLABIN S/A  UNT     N2   R$  000000000221100000000022390000000002181000000000220300000000022100000000002208000000000221013632000000000003746800000000008256210100000000000000009999123100000010000000000000BRKLBNCDAM18143
012024110502KLBN3       010KLABIN S/A  ON      N2   R$  000000000044100000000004490000000000436000000000044000000000004430000000000440000000000044400815000000000000419600000000000184977000000000000000009999123100000010000000000000BRKLBNACNOR2171
012024110502KLBN4       010KLABIN S/A  PN      N2   R$  000000000044100000000004470000000000428000000000043900000000004420000000000439000000000044202214000000000001869100000000000821032200000000000000009999123100000010000000000000BRKLBNACNPR9171
012024110502MRVE3       010MRV         ON      NM   R$  000000000072000000000007370000000000709000000000072400000000007250000000000722000000000072517062000000000011985300000000008684984600000000000000009999123100000010000000000000BRMRVEACNOR2127
012024110502YDUQ3       010YDUQS PART  ON      NM   R$  000000000107500000000011020000000001050000000000107500000000010720000000001071000000000107207797000000000003041400000000003272455700000000000000009999123100000010000000000000BRYDUQACNOR3105
012024110502ZAMP3       010ZAMP S.A.   ON           R$  000000000023800000000002400000000000235000000000023700000000002350000000000235000000000024001348000000000000303200000000000071984400000000000000009999123100000010000000000000BRZAMPACNOR5101
012024110502PRNR3       010PRINER      ON      NM   R$  000000000137700000000014450000000001375000000000140400000000014450000000001439000000000144501428000000000000446600000000000627424300000000000000009999123100000010000000000000BRPRNRACNOR4109
012024110502PATI3       010PANATLANTICAON           R$  000000000274300000000027990000000002743000000000277100000000027990000000002743000000000289900002000000000000000200000000000000554200000000000000009999123100000010000000000000BRPATIACNOR6067
012024110502PCAR3       010P.ACUCAR-CBDON      NM   R$  000000000031500000000003230000000000306000000000031600000000003200000000000320000000000032104132000000000007618900000000002408950900000000000000009999123100000010000000000000BRPCARACNOR3167
012024110502PETZ3       010PETZ        ON      NM   R$  000000000052300000000005430000000000518000000000053100000000005430000000000541000000000054313058000000000008525600000000004528909300000000000000009999123100000010000000000000BRPETZACNOR2110
012024110502RAIZ4       010RAIZEN      PN      N2   R$  000000000028900000000002910000000000283000000000028800000000002910000000000289000000000029112188000000000013711300000000003949264200000000000000009999123100000010000000000000BRRAIZACNPR6111
012024110502RANI3       010IRANI       ON      NM   R$  000000000076000000000007720000000000751000000000075700000000007510000000000751000000000075402445000000000000715600000000000541728600000000000000009999123100000010000000000000BRRANIACNOR5073
012024110502RAPT3       010RANDON PART ON      N1   R$  000000000091600000000009250000000000906000000000091700000000009190000000000916000000000092000119000000000000021400000000000019627500000000000000009999123100000010000000000000BRRAPTACNOR7163
012024110502RAPT4       010RANDON PART PN      N1   R$  000000000106300000000010780000000001056000000000106300000000010590000000001059000000000106004348000000000001447100000000001539590900000000000000009999123100000010000000000000BRRAPTACNPR4163
012024110502PSSA3       010PORTO SEGUROON      NM   R$  000000000376400000000038180000000003741000000000378200000000038100000000003810000000000381206811000000000001192200000000004509994500000000000000009999123100000010000000000000BRPSSAACNOR7156
012024110502PTBL3       010PORTOBELLO  ON      NM   R$  000000000043000000000004300000000000416000000000042100000000004250000000000424000000000042501151000000000000426000000000000179518300000000000000009999123100000010000000000000BRPTBLACNOR8132
012024110502PTNT3       010PETTENATI   ON  EDJ      R$  000000000094400000000009500000000000922000000000093500000000009490000000000910000000000095300024000000000000003000000000000002806500000000000000009999123100000010000000000000BRPTNTACNOR6043
012024110502PTNT4       010PETTENATI   PN  EDJ      R$  000000000062400000000006360000000000624000000000063200000000006260000000000620000000000062600013000000000000003000000000000001898000000000000000009999123100000010000000000000BRPTNTACNPR3048
012024110502QUAL3       010QUALICORP   ON      NM   R$  000000000025400000000002650000000000248000000000025800000000002600000000000260000000000026204341000000000005842200000000001509217600000000000000009999123100000010000000000000BRQUALACNOR6120
012024110502SCAR3       010SAO CARLOS  ON      NM   R$  000000000217500000000021840000000002142000000000217400000000021840000000002143000000000219700050000000000000017100000000000037180100000000000000009999123100000010000000000000BRSCARACNOR7131
012024110502SEER3       010SER EDUCA   ON      NM   R$  000000000074700000000007730000000000729000000000075600000000007490000000000749000000000075304507000000000000922000000000000697331400000000000000009999123100000010000000000000BRSEERACNOR5119
012024110502SHOW3       010TIME FOR FUNON      NM   R$  000000000009000000000000910000000000085000000000008800000000000880000000000088000000000008900292000000000000272000000000000024024300000000000000009999123100000010000000000000BRSHOWACNOR7105
012024110502SHUL4       010SCHULZ      PN           R$  000000000063200000000006390000000000630000000000063500000000006340000000000634000000000063900482000000000000120600000000000076665000000000000000009999123100000010000000000000BRSHULACNPR4157
012024110502SIMH3       010SIMPAR      ON      NM   R$  000000000053800000000005570000000000525000000000054400000000005570000000000555000000000055705797000000000003253700000000001770123500000000000000009999123100000010000000000000BRSIMHACNOR0107
012024110502SLCE3       010SLC AGRICOLAON      NM   R$  000000000172700000000017450000000001717000000000173400000000017340000000001733000000000174403055000000000000982000000000001703421800000000000000009999123100000010000000000000BRSLCEACNOR2125
012024110502VALE3       010VALE        ON      NM   R$  000000000629500000000063110000000006196000000000623000000000062120000000006212000000000621438659000000000016368800000000101979944600000000000000009999123100000010000000000000BRVALEACNOR0211
012024110502WEST3       010WESTWING    ON      NM   R$  000000000007900000000000810000000000078000000000007900000000000810000000000079000000000008100037000000000000036600000000000002906600000000000000009999123100000010000000000000BRWESTACNOR3100
012024110502WHRL3       010WHIRLPOOL   ON           R$  000000000041800000000004180000000000410000000000041200000000004100000000000413000000000041800017000000000000005600000000000002312700000000000000009999123100000010000000000000BRWHRLACNOR5129
012024110502WHRL4       010WHIRLPOOL   PN           R$  000000000044900000000004490000000000443000000000044600000000004450000000000442000000000044600021000000000000002500000000000001116500000000000000009999123100000010000000000000BRWHRLACNPR2129
012024110502WIZC3       010WIZ CO      ON      NM   R$  000000000058100000000005890000000000575000000000058300000000005850000000000585000000000058901082000000000000295400000000000172275200000000000000009999123100000010000000000000BRWIZCACNOR5102
012024110502SAPR11      010SANEPAR     UNT     N2   R$  000000000264700000000026470000000002584000000000261300000000026380000000002634000000000263804761000000000000971800000000002539849000000000000000009999123100000010000000000000BRSAPRCDAM13118
012024110502SAPR3       010SANEPAR     ON      N2   R$  000000000050500000000005090000000000498000000000050100000000005070000000000503000000000050700626000000000000213100000000000106901100000000000000009999123100000010000000000000BRSAPRACNOR9159
012024110502SAPR4       010SANEPAR     PN      N2   R$  000000000053700000000005370000000000525000000000053000000000005330000000000533000000000053403401000000000001602100000000000850283900000000000000009999123100000010000000000000BRSAPRACNPR6159
012024110502SBFG3       010GRUPO SBF   ON      NM   R$  000000000141000000000014270000000001386000000000140600000000014270000000001425000000000142705094000000000001305800000000001836726200000000000000009999123100000010000000000000BRSBFGACNOR1103
012024110502SBSP3       010SABESP      ON      NM   R$  000000000914400000000091630000000008999000000000910000000000091330000000009124000000000913410602000000000002208500000000020098165400000000000000009999123100000010000000000000BRSBSPACNOR5161
012024110502UNIP3       010UNIPAR      ON           R$  000000000450700000000045370000000004487000000000451200000000045370000000004520000000000455000024000000000000003800000000000017145900000000000000009999123100000010000000000000BRUNIPACNOR7206
012024110502UNIP5       010UNIPAR      PNA          R$  000000000465000000000046500000000004650000000000465000000000046500000000004641000000000483700002000000000000000200000000000000930000000000000000009999123100000010000000000000BRUNIPACNPA0208
012024110502UNIP6       010UNIPAR      PNB          R$  000000000458500000000046270000000004535000000000458600000000046150000000004613000000000461900648000000000000092200000000000422913900000000000000009999123100000010000000000000BRUNIPACNPB8206
012024110502USIM3       010USIMINAS    ON      N1   R$  000000000063900000000006520000000000633000000000064300000000006480000000000647000000000064800674000000000000285200000000000183506200000000000000009999123100000010000000000000BRUSIMACNOR3167
012024110502USIM5       010USIMINAS    PNA     N1   R$  000000000066200000000006690000000000655000000000066300000000006660000000000665000000000066608278000000000007345800000000004871275500000000000000009999123100000010000000000000BRUSIMACNPA6169
012024110502VSTE3       010VESTE       ON      NM   R$  000000000103300000000010700000000001000000000000104300000000010700000000001065000000000107000152000000000000032200000000000033604700000000000000009999123100000010000000000000BRVSTEACNOR5103
012024110502VTRU3       010VITRUEDUCA  ON      NM   R$  000000000091000000000009470000000000890000000000091200000000009470000000000909000000000094900568000000000000128700000000000117420200000000000000009999123100000010000000000000BRVTRUACNOR3100
012024110502VULC3       010VULCABRAS   ON      NM   R$  000000000169200000000017120000000001673000000000169300000000017120000000001712000000000171301516000000000000415700000000000704079400000000000000009999123100000010000000000000BRVULCACNOR2163
012024110502VVEO3       010VIVEO       ON      NM   R$  000000000022900000000002790000000000229000000000026100000000002730000000000272000000000027305512000000000009484700000000002482589500000000000000009999123100000010000000000000BRVVEOACNOR0104
012024110502HYPE3       010HYPERA      ON      NM   R$  000000000222700000000022490000000002210000000000223000000000022300000000002230000000000223509384000000000002899000000000006467263100000000000000009999123100000010000000000000BRHYPEACNOR0144
012024110502JALL3       010JALLESMACHADON      NM   R$  000000000059000000000006060000000000584000000000059500000000006030000000000602000000000060503120000000000000825400000000000491183300000000000000009999123100000010000000000000BRJALLACNOR0106
012024110502JBSS3       010JBS         ON      NM   R$  000000000359700000000036200000000003563000000000358900000000036020000000003601000000000360216789000000000003331500000000011957657400000000000000009999123100000010000000000000BRJBSSACNOR8122
012024110502AZZA3       010AZZAS 2154  ON      NM   R$  000000000415400000000042090000000004042000000000413300000000041330000000004133000000000413804487000000000001238300000000005118409000000000000000009999123100000010000000000000BRAZZAACNOR9100
012024110502SRNA3       010SERENA      ON      NM   R$  000000000077000000000007700000000000718000000000073000000000007260000000000725000000000073113996000000000007016800000000005126164800000000000000009999123100000010000000000000BRSRNAACNOR4100
012024110502STBP3       010SANTOS BRP  ON  EDJ NM   R$  000000000127000000000012770000000001268000000000127200000000012770000000001271000000000127705746000000000003297000000000004193932200000000000000009999123100000010000000000000BRSTBPACNOR3133
012024110502SUZB3       010SUZANO S.A. ON      NM   R$  000000000601700000000060630000000005990000000000601800000000060500000000006048000000000605012705000000000003881200000000023358368100000000000000009999123100000010000000000000BRSUZBACNOR0130
012024110502POSI3       010POSITIVO TECON      NM   R$  000000000065400000000006600000000000640000000000064400000000006440000000000644000000000064801713000000000000643000000000000414639000000000000000009999123100000010000000000000BRPOSIACNOR9116
012024110502PRIO3       010PETRORIO    ON      NM   R$  000000000409000000000041070000000003996000000000403300000000040330000000004033000000000403820330000000000006951400000000028039282900000000000000009999123100000010000000000000BRPRIOACNOR1107
012024110502TOTS3       010TOTVS       ON      NM   R$  000000000331800000000034520000000003220000000000336100000000034420000000003442000000000344528240000000000006858600000000023052482300000000000000009999123100000010000000000000BRTOTSACNOR8145
012024110502TPIS3       010TRIUNFO PARTON      NM   R$  000000000070000000000007170000000000681000000000069200000000006990000000000685000000000069900339000000000000136800000000000094784100000000000000009999123100000010000000000000BRTPISACNOR8118
012024110502TRAD3       010TC          ON      NM   R$  000000000050800000000005820000000000507000000000055100000000005610000000000551000000000056101108000000000000309600000000000170615400000000000000009999123100000010000000000000BRTRADACNOR3102
012024110502TRIS3       010TRISUL      ON      NM   R$  000000000054800000000005570000000000536000000000054900000000005540000000000554000000000055501343000000000000537200000000000295124400000000000000009999123100000010000000000000BRTRISACNOR4118
012024110502TRPL3       010TRAN PAULISTON      N1   R$  000000000301500000000030760000000003015000000000306200000000030760000000003050000000000307800011000000000000001500000000000004593400000000000000009999123100000010000000000000BRTRPLACNOR4185
012024110502VAMO3       010VAMOS       ON      NM   R$  000000000061700000000006270000000000600000000000061400000000006150000000000614000000000061507535000000000005341400000000003284102500000000000000009999123100000010000000000000BRVAMOACNOR7105
012024110502VBBR3       010VIBRA       ON      NM   R$  000000000224800000000022890000000002224000000000226600000000022810000000002270000000000228114822000000000008229700000000018648830600000000000000009999123100000010000000000000BRVBBRACNOR1109
012024110502PDGR3       010PDG REALT   ON      NM   R$  000000000000100000000000020000000000001000000000000100000000000010000000000001000000000000200592000000000012728600000000000014474500000000000000009999123100000010000000000000BRPDGRACNOR8119
012024110502PDTC3       010PADTEC      ON      NM   R$  000000000017800000000001880000000000178000000000018200000000001870000000000182000000000018500083000000000000033800000000000006165500000000000000009999123100000010000000000000BRPDTCACNOR3101
012024110502PETR3       010PETROBRAS   ON      N2   R$  000000000383500000000038460000000003774000000000380800000000038150000000003814000000000381513870000000000007774600000000029610916800000000000000009999123100000010000000000000BRPETRACNOR9206
012024110502PETR4       010PETROBRAS   PN      N2   R$  000000000355000000000035600000000003503000000000353500000000035390000000003539000000000354038225000000000023990600000000084812877700000000000000009999123100000010000000000000BRPETRACNPR6214
012024110502PFRM3       010PROFARMA    ON      NM   R$  000000000072900000000007450000000000711000000000073400000000007450000000000740000000000074501710000000000000931500000000000684493500000000000000009999123100000010000000000000BRPFRMACNOR1116
012024110502PGMN3       010PAGUE MENOS ON      NM   R$  000000000032200000000003380000000000310000000000032700000000003340000000000332000000000033405519000000000003480700000000001139299300000000000000009999123100000010000000000000BRPGMNACNOR8103
012024110502B3SA3       010B3          ON      NM   R$  000000000107200000000010980000000001062000000000108600000000010970000000001096000000000109726951000000000028896400000000031388853900000000000000009999123100000010000000000000BRB3SAACNOR6134
012024110502CMIN3       010CSNMINERACAOON      N2   R$  000000000063200000000006340000000000621000000000062500000000006210000000000621000000000062206668000000000004359300000000002727972100000000000000009999123100000010000000000000BRCMINACNOR2112
012024110502COCE5       010COELCE      PNA          R$  000000000260700000000028050000000002605000000000275000000000027500000000002750000000000279900083000000000003127300000000008600083900000000000000009999123100000010000000000000BRCOCEACNPA3147
012024110502COGN3       010COGNA ON    ON      NM   R$  000000000015000000000001540000000000144000000000014900000000001510000000000150000000000015113228000000000062315300000000009297900900000000000000009999123100000010000000000000BRCOGNACNOR2105
012024110502DASA3       010DASA        ON      NM   R$  000000000025600000000002750000000000254000000000026500000000002650000000000265000000000027001458000000000000853200000000000226823500000000000000009999123100000010000000000000BRDASAACNOR1123
012024110502DESK3       010DESKTOP     ON      NM   R$  000000000136000000000013680000000001334000000000134900000000013530000000001353000000000136200378000000000000059000000000000079626500000000000000009999123100000010000000000000BRDESKACNOR2104
012024110502DEXP3       010DEXXOS PAR  ON      N1   R$  000000000089700000000008970000000000876000000000088000000000008820000000000880000000000088200352000000000000054500000000000047969700000000000000009999123100000010000000000000BRDEXPACNOR1105
012024110502DEXP4       010DEXXOS PAR  PN      N1   R$  000000000088700000000008870000000000887000000000088700000000008870000000000874000000000089400001000000000000000100000000000000088700000000000000009999123100000010000000000000BRDEXPACNPR8105
012024110502DIRR3       010DIRECIONAL  ON      NM   R$  000000000310500000000031100000000003048000000000307200000000030840000000003084000000000308507621000000000001241200000000003814153700000000000000009999123100000010000000000000BRDIRRACNOR0119
012024110502DMVF3       010D1000VFARMA ON      NM   R$  000000000074800000000007640000000000702000000000072000000000007100000000000710000000000071400668000000000000125500000000000090374900000000000000009999123100000010000000000000BRDMVFACNOR9100
012024110502DOHL4       010DOHLER      PN           R$  000000000040500000000004050000000000397000000000040000000000004050000000000398000000000040500006000000000000000600000000000000240500000000000000009999123100000010000000000000BRDOHLACNPR9066
012024110502DOTZ3       010DOTZ SA     ON      NM   R$  000000000051300000000005400000000000508000000000051700000000005110000000000511000000000051700042000000000000010200000000000005282600000000000000009999123100000010000000000000BRDOTZACNOR7101
012024110502DXCO3       010DEXCO       ON      NM   R$  000000000084100000000008560000000000830000000000084600000000008540000000000850000000000085410274000000000003491700000000002957383500000000000000009999123100000010000000000000BRDXCOACNOR8105
012024110502BRAP3       010BRADESPAR   ON      N1   R$  000000000184800000000018600000000001822000000000183800000000018270000000001826000000000183400261000000000000045000000000000082733700000000000000009999123100000010000000000000BRBRAPACNOR5148
012024110502BRAP4       010BRADESPAR   PN      N1   R$  000000000201600000000020380000000001985000000000200500000000019900000000001990000000000199613070000000000005522300000000011075826200000000000000009999123100000010000000000000BRBRAPACNPR2148
012024110502CPFE3       010CPFL ENERGIAON      NM   R$  000000000326900000000032980000000003262000000000327800000000032870000000003287000000000328903446000000000000684300000000002243430300000000000000009999123100000010000000000000BRCPFEACNOR0137
012024110502CPLE3       010COPEL       ON      N2   R$  000000000086800000000008680000000000847000000000085200000000008550000000000854000000000085606066000000000005369200000000004576314900000000000000009999123100000010000000000000BRCPLEACNOR8150
012024110502CPLE6       010COPEL       PNB     N2   R$  000000000097500000000009750000000000957000000000096300000000009630000000000963000000000096411430000000000009523000000000009171273600000000000000009999123100000010000000000000BRCPLEACNPB9147
012024110502CRFB3       010CARREFOUR BRON      NM   R$  000000000081100000000008110000000000772000000000078300000000007720000000000771000000000077218466000000000010237200000000008022100800000000000000009999123100000010000000000000BRCRFBACNOR2116
012024110502ELET3       010ELETROBRAS  ON      N1   R$  000000000376500000000037660000000003709000000000373000000000037310000000003728000000000373115556000000000006398800000000023870974000000000000000009999123100000010000000000000BRELETACNOR6160
012024110502ELET6       010ELETROBRAS  PNB     N1   R$  000000000422400000000042240000000004163000000000418500000000041880000000004182000000000418804155000000000000835100000000003495112400000000000000009999123100000010000000000000BRELETACNPB7077
012024110502HBOR3       010HELBOR      ON      NM   R$  000000000018700000000001940000000000187000000000019100000000001930000000000193000000000019400345000000000000599000000000000114790300000000000000009999123100000010000000000000BRHBORACNOR3118
012024110502HBRE3       010HBR REALTY  ON      NM   R$  000000000045900000000004610000000000452000000000045600000000004600000000000456000000000046000530000000000000292400000000000133590000000000000000009999123100000010000000000000BRHBREACNOR4100
012024110502HBSA3       010HIDROVIAS   ON      NM   R$  000000000032200000000003260000000000319000000000032200000000003230000000000323000000000032403461000000000002484500000000000802075700000000000000009999123100000010000000000000BRHBSAACNOR0101
012024110502HBTS5       010HABITASUL   PNA          R$  000000000290100000000029010000000002901000000000290100000000029010000000002925000000000309900001000000000000000100000000000000290100000000000000009999123100000010000000000000BRHBTSACNPA3128
012024110502HETA4       010HERCULES    PN           R$  000000000062100000000006210000000000621000000000062100000000006210000000000620000000000066900001000000000000000100000000000000062100000000000000009999123100000010000000000000BRHETAACNPR9136
012024110502ATOM3       010ATOMPAR     ON           R$  000000000040000000000004250000000000391000000000041300000000004250000000000417000000000042500564000000000000208300000000000086171000000000000000009999123100000010000000000000BRATOMACNOR1106
012024110502AURE3       010AUREN       ON      NM   R$  000000000104000000000010440000000001031000000000103800000000010400000000001040000000000104109194000000000005077100000000005272540000000000000000009999123100000010000000000000BRAUREACNOR9104
012024110502AVLL3       010ALPHAVILLE  ON      NM   R$  000000000029000000000002900000000000286000000000028800000000002860000000000286000000000029000025000000000000019700000000000005693000000000000000009999123100000010000000000000BRAVLLACNOR5103
012024110502AZEV3       010AZEVEDO     ON           R$  000000000012000000000001210000000000118000000000011900000000001210000000000120000000000012100191000000000000290700000000000034772300000000000000009999123100000010000000000000BRAZEVACNOR0121
012024110502AZEV4       010AZEVEDO     PN           R$  000000000012000000000001220000000000118000000000012000000000001210000000000121000000000012200509000000000000914000000000000109849600000000000000009999123100000010000000000000BRAZEVACNPR7121
012024110502LVTC3       010WDC NETWORKSON      NM   R$  000000000035200000000003600000000000351000000000035400000000003510000000000353000000000035700032000000000000013300000000000004718900000000000000009999123100000010000000000000BRLVTCACNOR4102
012024110502LWSA3       010LWSA        ON      NM   R$  000000000044200000000004570000000000434000000000044800000000004540000000000454000000000045512631000000000006982700000000003135205900000000000000009999123100000010000000000000BRLWSAACNOR8103
012024110502CLSA3       010CLEARSALE   ON      NM   R$  000000000096600000000009680000000000957000000000096300000000009640000000000963000000000096804677000000000001580400000000001523074200000000000000009999123100000010000000000000BRCLSAACNOR0100
012024110502CLSC3       010CELESC      ON      N2   R$  000000000740000000000074000000000007400000000000740000000000074000000000007401000000000756000004000000000000000400000000000002960000000000000000009999123100000010000000000000BRCLSCACNOR6153
012024110502CLSC4       010CELESC      PN      N2   R$  000000000778100000000079620000000007781000000000789800000000079620000000007858000000000794400013000000000000001500000000000011848200000000000000009999123100000010000000000000BRCLSCACNPR3132
012024110502CMIG3       010CEMIG       ON      N1   R$  000000000148600000000014970000000001473000000000148300000000014850000000001481000000000148500465000000000000083200000000000123412500000000000000009999123100000010000000000000BRCMIGACNOR6244
012024110502CMIG4       010CEMIG       PN      N1   R$  000000000116000000000011630000000001148000000000115500000000011590000000001158000000000116118765000000000009562700000000011048344800000000000000009999123100000010000000000000BRCMIGACNPR3245
012024110502ALUP11      010ALUPAR      UNT     N2   R$  000000000294000000000029400000000002871000000000288300000000028860000000002886000000000289003413000000000000904200000000002607002600000000000000009999123100000010000000000000BRALUPCDAM15120
012024110502ALUP3       010ALUPAR      ON      N2   R$  000000000099300000000010030000000000982000000000098800000000009830000000000975000000000100000045000000000000005600000000000005538100000000000000009999123100000010000000000000BRALUPACNOR8120
012024110502ALUP4       010ALUPAR      PN      N2   R$  000000000095000000000009590000000000937000000000094600000000009500000000000947000000000095100069000000000000011100000000000010501700000000000000009999123100000010000000000000BRALUPACNPR5120
012024110502AMAR3       010LOJAS MARISAON      NM   R$  000000000009500000000000960000000000094000000000009500000000000940000000000094000000000009600264000000000000115800000000000011024700000000000000009999123100000010000000000000BRAMARACNOR4115
012024110502AMBP3       010AMBIPAR     ON      NM   R$  000000001265000000000134600000000012590000000001300300000000134600000000013360000000001346001256000000000000210400000000002735933100000000000000009999123100000010000000000000BRAMBPACNOR6103
012024110502ANIM3       010ANIMA       ON      NM   R$  000000000025400000000002620000000000248000000000025500000000002590000000000255000000000025911861000000000008982500000000002298635800000000000000009999123100000010000000000000BRANIMACNOR6109
012024110502GGPS3       010GPS         ON      NM   R$  000000000170200000000017100000000001676000000000169200000000016970000000001690000000000169706121000000000002047400000000003464477100000000000000009999123100000010000000000000BRGGPSACNOR9103
012024110502GMAT3       010GRUPO MATEUSON      NM   R$  000000000075900000000007690000000000752000000000076200000000007660000000000766000000000076905470000000000002017700000000001538548400000000000000009999123100000010000000000000BRGMATACNOR7103
012024110502GOAU3       010GERDAU MET  ON      N1   R$  000000000101600000000010240000000001016000000000101900000000010230000000001019000000000102300145000000000000031900000000000032537600000000000000009999123100000010000000000000BRGOAUACNOR1268
012024110502GOAU4       010GERDAU MET  PN      N1   R$  000000000102500000000010380000000001025000000000103200000000010380000000001035000000000103806024000000000005455500000000005632485500000000000000009999123100000010000000000000BRGOAUACNPR8269
012024110502MGLU3       010MAGAZ LUIZA ON      NM   R$  000000000096500000000010020000000000941000000000097600000000009980000000000998000000000099926195000000000037152100000000036280569800000000000000009999123100000010000000000000BRMGLUACNOR2125
012024110502PINE4       010PINE        PN      N2   R$  000000000046700000000004670000000000460000000000046200000000004610000000000461000000000046500253000000000000133200000000000061670900000000000000009999123100000010000000000000BRPINEACNPR8152
012024110502PLPL3       010PLANOEPLANO ON      NM   R$  000000000141800000000014180000000001376000000000138800000000013900000000001390000000000139203368000000000000774000000000001074794500000000000000009999123100000010000000000000BRPLPLACNOR5104
012024110502PNVL3       010DIMED       ON      NM   R$  000000000101700000000010200000000001007000000000101300000000010160000000001015000000000101801142000000000000233400000000000236617000000000000000009999123100000010000000000000BRPNVLACNOR9208
012024110502POMO3       010MARCOPOLO   ON      N2   R$  000000000067800000000006900000000000668000000000067900000000006770000000000672000000000067701479000000000000478800000000000325211700000000000000009999123100000010000000000000BRPOMOACNOR0099
012024110502POMO4       010MARCOPOLO   PN      N2   R$  000000000088700000000009030000000000872000000000088600000000008720000000000871000000000087415601000000000012934300000000011466044000000000000000009999123100000010000000000000BRPOMOACNPR7099
012024110502PORT3       010WILSON SONS ON      NM   R$  000000000158300000000015860000000001571000000000157600000000015800000000001577000000000158603914000000000001367200000000002155562000000000000000009999123100000010000000000000BRPORTACNOR8110
012024110502BEEF3       010MINERVA     ON  ATZ NM   R$  000000000059000000000005920000000000570000000000057600000000005800000000000578000000000058106732000000000006568200000000003786603900000000000000009999123100000010000000000000BRBEEFACNOR6117
012024110502BPAN4       010BANCO PAN   PN      N1   R$  000000000082400000000008520000000000815000000000083900000000008500000000000849000000000085004372000000000001839300000000001543173100000000000000009999123100000010000000000000BRBPANACNPR1115
012024110502OPCT3       010OCEANPACT   ON      NM   R$  000000000060300000000006160000000000592000000000060400000000006060000000000605000000000060903036000000000000836400000000000505910700000000000000009999123100000010000000000000BROPCTACNOR0100
012024110502ORVR3       010ORIZON      ON      NM   R$  000000000473300000000047480000000004656000000000471300000000047280000000004721000000000472801699000000000000311500000000001468290900000000000000009999123100000010000000000000BRORVRACNOR0101
012024110502RCSL3       010RECRUSUL    ON           R$  000000000039500000000004150000000000391000000000040200000000004150000000000415000000000041702077000000000000948600000000000381675900000000000000009999123100000010000000000000BRRCSLACNOR4134
012024110502RCSL4       010RECRUSUL    PN           R$  000000000019600000000002060000000000181000000000019300000000001930000000000192000000000019312016000000000017420900000000003374918600000000000000009999123100000010000000000000BRRCSLACNPR1134
012024110502RDNI3       010RNI         ON      NM   R$  000000000030800000000003080000000000304000000000030400000000003040000000000304000000000030800011000000000000006400000000000001947700000000000000009999123100000010000000000000BRRDNIACNOR9116
012024110502RDOR3       010REDE D OR   ON      NM   R$  000000000293100000000029680000000002893000000000293700000000029520000000002948000000000295912291000000000003511900000000010314930100000000000000009999123100000010000000000000BRRDORACNOR8114
012024110502RECV3       010PETRORECSA  ON      NM   R$  000000000171800000000017330000000001701000000000171900000000017220000000001718000000000172505085000000000000997700000000001715729700000000000000009999123100000010000000000000BRRECVACNOR3107
012024110502REDE3       010REDE ENERGIAON           R$  000000000067700000000006770000000000675000000000067500000000006770000000000673000000000067700008000000000000001000000000000000675900000000000000009999123100000010000000000000BRREDEACNOR7128
012024110502RENT3       010LOCALIZA    ON      NM   R$  000000000422000000000042520000000004168000000000421800000000042330000000004228000000000423318743000000000005738900000000024207791200000000000000009999123100000010000000000000BRRENTACNOR4197
012024110502BRAV3       010BRAVA       ON      NM   R$  000000000170000000000017340000000001682000000000170200000000017310000000001728000000000173109491000000000008669200000000014761917600000000000000009999123100000010000000000000BRBRAVACNOR3100
012024110502CRPG5       010CRISTAL     PNA          R$  000000000246600000000024970000000002460000000000248100000000024970000000002497000000000251900016000000000000002200000000000005459100000000000000009999123100000010000000000000BRCRPGACNPA3119
012024110502CSAN3       010COSAN       ON      NM   R$  000000000120300000000012130000000001181000000000120000000000012070000000001201000000000120714992000000000008518000000000010223780200000000000000009999123100000010000000000000BRCSANACNOR6126
012024110502ELMD3       010ELETROMIDIA ON      NM   R$  000000000264000000000026790000000002613000000000265100000000026450000000002644000000000264908184000000000009677400000000025657408600000000000000009999123100000010000000000000BRELMDACNOR3101
012024110502EMAE4       010EMAE        PN           R$  000000000393900000000040290000000003930000000000398900000000040290000000003930000000000403000005000000000000000700000000000002792500000000000000009999123100000010000000000000BREMAEACNPR1126
012024110502EMBR3       010EMBRAER     ON      NM   R$  000000000488000000000049300000000004831000000000489600000000049070000000004907000000000491412966000000000003437600000000016833911200000000000000009999123100000010000000000000BREMBRACNOR4191
012024110502PINE3       010PINE        ON      N2   R$  000000000049700000000004970000000000473000000000048000000000004740000000000474000000000047800012000000000000001700000000000000816800000000000000009999123100000010000000000000BRPINEACNOR1152
012024110502SYNE3       010SYN PROP TECON      NM   R$  000000000085100000000008850000000000845000000000086900000000008770000000000875000000000087901704000000000000627200000000000545050900000000000000009999123100000010000000000000BRSYNEACNOR2103
012024110502MTRE3       010MITRE REALTYON  ED  NM   R$  000000000036800000000003770000000000365000000000037200000000003770000000000375000000000037700826000000000000364900000000000135821500000000000000009999123100000010000000000000BRMTREACNOR6116
012024110502MTSA4       010METISA      PN           R$  000000000350700000000035070000000003444000000000347400000000034500000000003450000000000347900044000000000000006600000000000022930500000000000000009999123100000010000000000000BRMTSAACNPR9073
012024110502MULT3       010MULTIPLAN   ON      N2   R$  000000000254100000000025690000000002541000000000255400000000025520000000002549000000000255408792000000000002003300000000005118141300000000000000009999123100000010000000000000BRMULTACNOR5139
012024110502MWET4       010WETZEL S/A  PN           R$  000000000097500000000012800000000000975000000000112400000000011590000000001100000000000116600036000000000000007700000000000008659900000000000000009999123100000010000000000000BRMWETACNPR3118
012024110502MYPK3       010IOCHP-MAXIONON      NM   R$  000000000103800000000010590000000001026000000000104700000000010520000000001051000000000105306568000000000001289300000000001351163200000000000000009999123100000010000000000000BRMYPKACNOR7156
012024110502RADL3       010RAIADROGASILON      NM   R$  000000000250300000000026360000000002502000000000258600000000025950000000002593000000000260217297000000000008532900000000022073578100000000000000009999123100000010000000000000BRRADLACNOR0158
012024110502CEAB3       010CEA MODAS   ON      NM   R$  000000000134000000000013820000000001323000000000136000000000013500000000001348000000000135007803000000000002964700000000004032716500000000000000009999123100000010000000000000BRCEABACNOR1102
012024110502CEBR3       010CEB         ON           R$  000000000188700000000018890000000001865000000000188100000000018840000000001864000000000189000021000000000000003200000000000006019900000000000000009999123100000010000000000000BRCEBRACNOR5125
012024110502CEBR5       010CEB         PNA          R$  000000000165000000000016990000000001649000000000166900000000016870000000001649000000000169700040000000000000009000000000000015025300000000000000009999123100000010000000000000BRCEBRACNPA8124
012024110502CEBR6       010CEB         PNB          R$  000000000179400000000018400000000001794000000000181400000000018090000000001801000000000182700089000000000000030600000000000055509600000000000000009999123100000010000000000000BRCEBRACNPB6124
012024110502CEDO4       010CEDRO       PN      N1   R$  000000000233000000000023300000000002304000000000231200000000023300000000002304000000000244600006000000000000000700000000000001618500000000000000009999123100000010000000000000BRCEDOACNPR5128
012024110502CEEB3       010COELBA      ON           R$  000000000390000000000039000000000003843000000000388000000000038990000000003823000000000400000003000000000000000300000000000001164200000000000000009999123100000010000000000000BRCEEBACNOR3200
012024110502CGAS5       010COMGAS      PNA          R$  000000001260000000000126000000000012600000000001260000000000126000000000012500000000001268800002000000000000000300000000000003780000000000000000009999123100000010000000000000BRCGASACNPA3161
012024110502CGRA3       010GRAZZIOTIN  ON           R$  000000000247600000000024800000000002428000000000245700000000024280000000002427000000000253000028000000000000003200000000000007863800000000000000009999123100000010000000000000BRCGRAACNOR2083
012024110502CGRA4       010GRAZZIOTIN  PN           R$  000000000244800000000024480000000002390000000000242000000000023900000000002380000000000249700035000000000000004000000000000009682800000000000000009999123100000010000000000000BRCGRAACNPR9083
012024110502MATD3       010MATER DEI   ON      NM   R$  000000000042200000000004320000000000415000000000042500000000004250000000000425000000000042600684000000000000198600000000000084445200000000000000009999123100000010000000000000BRMATDACNOR4104
012024110502MBLY3       010MOBLY       ON      NM   R$  000000000019400000000001990000000000190000000000019400000000001990000000000197000000000019900179000000000000322400000000000062661300000000000000009999123100000010000000000000BRMBLYACNOR5101
012024110502MDIA3       010M.DIASBRANCOON      NM   R$  000000000262800000000026280000000002572000000000260300000000026170000000002614000000000262203332000000000000661200000000001721606000000000000000009999123100000010000000000000BRMDIAACNOR7136
012024110502ALPK3       010ESTAPAR     ON      NM   R$  000000000029200000000003070000000000284000000000029600000000003060000000000300000000000030600432000000000000222100000000000065844200000000000000009999123100000010000000000000BRALPKACNOR9101
012024110502CXSE3       010CAIXA SEGURION  ED  NM   R$  000000000147000000000014840000000001446000000000145900000000014580000000001458000000000146010284000000000003913100000000005712766500000000000000009999123100000010000000000000BRCXSEACNOR7108
012024110502CYRE3       010CYRELA REALTON      NM   R$  000000000220500000000022320000000002154000000000220200000000022170000000002209000000000221709800000000000003919600000000008633889200000000000000009999123100000010000000000000BRCYREACNOR7140
012024110502GFSA3       010GAFISA      ON      NM   R$  000000000015400000000001580000000000150000000000015400000000001560000000000155000000000015601265000000000003486000000000000537985800000000000000009999123100000010000000000000BRGFSAACNOR3125
012024110502GGBR3       010GERDAU      ON      N1   R$  000000000181300000000018280000000001803000000000181200000000018050000000001804000000000181200974000000000000441300000000000800067300000000000000009999123100000010000000000000BRGGBRACNOR1193
012024110502GGBR4       010GERDAU      PN      N1   R$  000000000182500000000018400000000001806000000000182100000000018210000000001820000000000182123570000000000015068900000000027446263700000000000000009999123100000010000000000000BRGGBRACNPR8193
012024110502ITUB3       010ITAUUNIBANCOON  EJ  N1   R$  000000000308900000000031630000000003072000000000312700000000031410000000003141000000000315903635000000000000725400000000002269033400000000000000009999123100000010000000000000BRITUBACNOR4343
012024110502ITUB4       010ITAUUNIBANCOPN  EJ  N1   R$  000000000357000000000036650000000003560000000000361900000000036340000000003632000000000363654697000000000052524800000000190114687000000000000000009999123100000010000000000000BRITUBACNPR1343
012024110502LUPA3       010LUPATECH    ON      NM   R$  000000000014800000000001520000000000146000000000014800000000001470000000000147000000000014900126000000000000142400000000000021149900000000000000009999123100000010000000000000BRLUPAACNOR8112
012024110502LUXM4       010TREVISA     PN           R$  000000000124900000000012490000000001249000000000124900000000012490000000001101000000000125000001000000000000000100000000000000124900000000000000009999123100000010000000000000BRLUXMACNPR4052
012024110502GEPA3       010GER PARANAP ON           R$  000000000295000000000029500000000002950000000000295000000000029500000000002900000000000348000001000000000000000100000000000000295000000000000000009999123100000010000000000000BRGEPAACNOR2154
012024110502GEPA4       010GER PARANAP PN           R$  000000000300000000000030000000000003000000000000300000000000030000000000002951000000000299900001000000000000000100000000000000300000000000000000009999123100000010000000000000BRGEPAACNPR9161
012024110502ITSA3       010ITAUSA      ON      N1   R$  000000000106800000000011120000000001068000000000109900000000011020000000001101000000000110701106000000000000543000000000000597233400000000000000009999123100000010000000000000BRITSAACNOR0443
012024110502ITSA4       010ITAUSA      PN      N1   R$  000000000107400000000011100000000001071000000000109700000000011060000000001104000000000110627721000000000031460900000000034521045700000000000000009999123100000010000000000000BRITSAACNPR7443
012024110502AERI3       010AERIS       ON      NM   R$  000000000065700000000007100000000000641000000000068400000000007100000000000705000000000071001017000000000000322000000000000220269600000000000000009999123100000010000000000000BRAERIACNOR4102
012024110502AGRO3       010BRASILAGRO  ON      NM   R$  000000000237000000000024030000000002364000000000237700000000023750000000002374000000000237501174000000000000162000000000000385222300000000000000009999123100000010000000000000BRAGROACNOR7115
012024110502ALLD3       010ALLIED      ON      NM   R$  000000000076500000000007670000000000754000000000075900000000007600000000000756000000000076000137000000000000038400000000000029183100000000000000009999123100000010000000000000BRALLDACNOR3106
012024110502ALOS3       010ALLOS       ON      NM   R$  000000000223500000000022450000000002212000000000223100000000022380000000002236000000000223909554000000000002913800000000006502849600000000000000009999123100000010000000000000BRALOSACNOR5103
012024110502ALPA3       010ALPARGATAS  ON      N1   R$  000000000063100000000006310000000000620000000000062200000000006200000000000620000000000063900027000000000000017000000000000010583500000000000000009999123100000010000000000000BRALPAACNOR0231
012024110502ALPA4       010ALPARGATAS  PN      N1   R$  000000000073400000000007440000000000717000000000073200000000007380000000000734000000000073803599000000000001473700000000001079049500000000000000009999123100000010000000000000BRALPAACNPR7232
012024110502BOBR4       010BOMBRIL     PN           R$  000000000027900000000002800000000000270000000000027400000000002700000000000269000000000027300217000000000000041600000000000011410000000000000000009999123100000010000000000000BRBOBRACNPR3128
012024110502BRIT3       010BRISANET    ON      NM   R$  000000000031800000000003260000000000312000000000031900000000003260000000000318000000000032600272000000000000233300000000000074573000000000000000009999123100000010000000000000BRBRITACNOR0103
012024110502BRKM3       010BRASKEM     ON      N1   R$  000000000168000000000017190000000001674000000000169500000000016950000000001695000000000173600090000000000000012900000000000021872500000000000000009999123100000010000000000000BRBRKMACNOR1119
012024110502BRKM5       010BRASKEM     PNA     N1   R$  000000000170700000000017740000000001687000000000173500000000017480000000001747000000000175606602000000000002392700000000004153386100000000000000009999123100000010000000000000BRBRKMACNPA4121
012024110502BRSR3       010BANRISUL    ON      N1   R$  000000000122300000000012380000000001205000000000121600000000012130000000001205000000000121300055000000000000009800000000000011924000000000000000009999123100000010000000000000BRBRSRACNOR3189
012024110502BRSR6       010BANRISUL    PNB     N1   R$  000000000112800000000011340000000001121000000000112600000000011330000000001130000000000113302299000000000000534000000000000601813700000000000000009999123100000010000000000000BRBRSRACNPB4192
012024110502CSED3       010CRUZEIRO EDUON      NM   R$  000000000032600000000003360000000000323000000000033000000000003340000000000332000000000033401191000000000000370300000000000122340600000000000000009999123100000010000000000000BRCSEDACNOR9105
012024110502CSMG3       010COPASA      ON      NM   R$  000000000232100000000023820000000002265000000000230500000000023180000000002311000000000231810164000000000002876900000000006633010200000000000000009999123100000010000000000000BRCSMGACNOR5175
012024110502CSNA3       010SID NACIONALON           R$  000000000120600000000012400000000001198000000000122200000000012290000000001228000000000123011606000000000006430300000000007858533000000000000000009999123100000010000000000000BRCSNAACNOR6261
012024110502ESPA3       010ESPACOLASER ON      NM   R$  000000000009800000000000980000000000096000000000009700000000000980000000000098000000000009900061000000000000156500000000000015215900000000000000009999123100000010000000000000BRESPAACNOR7103
012024110502ETER3       010ETERNIT     ON      NM   R$  000000000052900000000005380000000000523000000000053000000000005380000000000538000000000053900872000000000000454300000000000241163500000000000000009999123100000010000000000000BRETERACNOR3244
012024110502EUCA3       010EUCATEX     ON      N1   R$  000000000160900000000016100000000001609000000000160900000000016100000000001572000000000165000002000000000000001000000000000001609900000000000000009999123100000010000000000000BREUCAACNOR1157
012024110502EUCA4       010EUCATEX     PN      N1   R$  000000000142000000000014300000000001395000000000140200000000013980000000001398000000000140700325000000000000060700000000000085158300000000000000009999123100000010000000000000BREUCAACNPR8044
012024110502BLAU3       010BLAU        ON      NM   R$  000000000160000000000016710000000001600000000000162800000000016340000000001634000000000163504775000000000000945200000000001538959900000000000000009999123100000010000000000000BRBLAUACNOR8115
012024110502BMEB4       010MERCANTIL   PN      N1   R$  000000000422500000000044650000000004225000000000431900000000042810000000004279000000000433700294000000000000057400000000000247965900000000000000009999123100000010000000000000BRBMEBACNPR5211
012024110502BMGB4       010BANCO BMG   PN      N1   R$  000000000040000000000004050000000000399000000000040100000000004040000000000402000000000040400914000000000000437500000000000175503500000000000000009999123100000010000000000000BRBMGBACNPR0111
012024110502BMIN3       010MERC INVEST ON           R$  000000000219800000000021980000000002198000000000219800000000021980000000002050000000000260000001000000000000000100000000000000219800000000000000009999123100000010000000000000BRBMINACNOR4170
012024110502BMKS3       010BIC MONARK  ON           R$  000000003104400000000316000000000030800000000003114500000000308000000000030701000000003158600004000000000000000049000000000001526132000000000000009999123100000010000000000000BRBMKSACNOR9166
012024110502BMOB3       010BEMOBI TECH ON      NM   R$  000000000152100000000015430000000001487000000000151300000000015350000000001535000000000154301506000000000000215200000000000325629600000000000000009999123100000010000000000000BRBMOBACNOR7103
012024110502BRBI11      010BR PARTNERS UNT     N2   R$  000000000153800000000015440000000001523000000000153400000000015230000000001523000000000154001585000000000000512900000000000787259900000000000000009999123100000010000000000000BRBRBICDAM10110
012024110502BRFS3       010BRF SA      ON      NM   R$  000000000259600000000026070000000002557000000000257100000000025800000000002574000000000258011771000000000003762300000000009673229500000000000000009999123100000010000000000000BRBRFSACNOR8122
012024110502ENEV3       010ENEVA       ON      NM   R$  000000000127600000000012820000000001261000000000127000000000012700000000001270000000000127210742000000000004935400000000006271916900000000000000009999123100000010000000000000BRENEVACNOR8106
012024110502ENGI11      010ENERGISA    UNT     N2   R$  000000000430700000000043150000000004244000000000429000000000043030000000004303000000000431206436000000000001598200000000006857799100000000000000009999123100000010000000000000BRENGICDAM16136
012024110502ENGI3       010ENERGISA    ON      N2   R$  000000000129600000000013230000000001284000000000130400000000013220000000001293000000000132500025000000000000002500000000000003260500000000000000009999123100000010000000000000BRENGIACNOR0146
012024110502ENGI4       010ENERGISA    PN      N2   R$  000000000075000000000007500000000000740000000000074400000000007460000000000745000000000075000028000000000000004700000000000003497700000000000000009999123100000010000000000000BRENGIACNPR7142
012024110502ENJU3       010ENJOEI      ON      NM   R$  000000000012400000000001270000000000123000000000012500000000001260000000000126000000000012700231000000000000323200000000000040519600000000000000009999123100000010000000000000BRENJUACNOR9100
012024110502EPAR3       010EMBPAR S/A  ON           R$  000000000056100000000005690000000000561000000000056500000000005690000000000563000000000056900004000000000000000800000000000000452000000000000000009999123100000010000000000000BREPARACNOR9105
012024110502EQMA3B      010EQTLMARANHAOON      MB   R$  000000000234700000000023490000000002301000000000233200000000023010000000002303000000000234700007000000000000001200000000000002799200000000000000009999123100000010000000000000BREQMAACNOR8108
012024110502EQPA3       010EQTL PARA   ON           R$  000000000059900000000005990000000000584000000000059200000000005920000000000584000000000059300014000000000000003300000000000001956400000000000000009999123100000010000000000000BREQPAACNOR1111
012024110502EQTL3       010EQUATORIAL  ON      NM   R$  000000000320400000000032220000000003191000000000320600000000032150000000003215000000000321615149000000000004516300000000014483172500000000000000009999123100000010000000000000BREQTLACNOR0131
012024110507TXRX4       010TEX RENAUX  PN           R$  000000000021700000000002190000000000217000000000021800000000002190000000000218000000000022200003000000000000000300000000000000065400000000000000009999123100000010000000000000BRTXRXACNPR0142
012024110507NUTR3       010NUTRIPLANT  ON      MA   R$  000000000039100000000003980000000000383000000000039000000000003890000000000385000000000039000026000000000000004500000000000001755500000000000000009999123100000010000000000000BRNUTRACNOR0104
012024110507SEQL3       010SEQUOIA LOG ON      NM   R$  000000000039200000000004340000000000388000000000040600000000003970000000000397000000000039802420000000000001824800000000000741927600000000000000009999123100000010000000000000BRSEQLACNOR2103
012024110508RNEW11      010RENOVA      UNT     N2   R$  000000000031100000000003250000000000306000000000031400000000003250000000000314000000000032500025000000000000004700000000000001476600000000000000009999123100000010000000000000BRRNEWCDAM15110
012024110508RNEW3       010RENOVA      ON      N2   R$  000000000010500000000001060000000000102000000000010300000000001030000000000103000000000010400102000000000000095500000000000009926400000000000000009999123100000010000000000000BRRNEWACNOR8110
012024110508RNEW4       010RENOVA      PN      N2   R$  000000000010300000000001070000000000101000000000010300000000001070000000000104000000000010700289000000000000521000000000000053872800000000000000009999123100000010000000000000BRRNEWACNPR5110
012024110508RPMG3       010PET MANGUINHON           R$  000000000029000000000002910000000000285000000000028600000000002850000000000285000000000028800029000000000000010000000000000002869800000000000000009999123100000010000000000000BRRPMGACNOR9194
012024110508RSID3       010ROSSI RESID ON      NM   R$  000000000029100000000003170000000000290000000000030200000000003170000000000302000000000031700170000000000000035500000000000010739500000000000000009999123100000010000000000000BRRSIDACNOR8120
012024110508OIBR3       010OI          ON      N1   R$  000000000046100000000004660000000000443000000000045600000000004520000000000446000000000045200850000000000001522300000000000695009800000000000000009999123100000010000000000000BROIBRACNOR1112
012024110508OIBR4       010OI          PN      N1   R$  000000000116400000000011780000000001098000000000111500000000011460000000001103000000000115500044000000000000009500000000000010593700000000000000009999123100000010000000000000BROIBRACNPR8111
012024110508NEXP3       010NEXPE       ON           R$  000000000044600000000004460000000000444000000000044500000000004450000000000437000000000044700003000000000000000300000000000000133500000000000000009999123100000010000000000000BRNEXPACNOR0101
012024110508JFEN3       010JOAO FORTES ON           R$  000000000002500000000000250000000000023000000000002300000000000230000000000023000000000002400180000000000000846700000000000020080000000000000000009999123100000010000000000000BRJFENACNOR0059
012024110508LIGT3       010LIGHT S/A   ON  ES  NM   R$  000000000049600000000005030000000000487000000000049600000000004910000000000491000000000049601568000000000000515900000000000255924900000000000000009999123100000010000000000000BRLIGTACNOR2125
012024110508CTSA3       010SANTANENSE  ON           R$  000000000020500000000002050000000000205000000000020500000000002050000000000179000000000020600001000000000000000100000000000000020500000000000000009999123100000010000000000000BRCTSAACNOR3062
012024110508CTSA4       010SANTANENSE  PN           R$  000000000010200000000001020000000000102000000000010200000000001020000000000102000000000010500008000000000000004800000000000000489600000000000000009999123100000010000000000000BRCTSAACNPR0062
012024110508HOOT4       010HOTEIS OTHONPN           R$  000000000023600000000002560000000000234000000000024400000000002340000000000234000000000024400047000000000000012000000000000002937900000000000000009999123100000010000000000000BRHOOTACNPR9015
012024110508ATMP3       010ATMASA      ON           R$  000000000013200000000001360000000000132000000000013300000000001360000000000134000000000013600003000000000000000700000000000000093700000000000000009999123100000010000000000000BRATMPACNOR8100
012024110508AMER3       010AMERICANAS  ON      NM   R$  000000000035700000000003570000000000340000000000034500000000003400000000000340000000000034208902000000000011519900000000003975383400000000000000009999123100000010000000000000BRAMERACNOR6103
012024110508PMAM3       010PARANAPANEMAON      NM   R$  000000000010800000000001080000000000094000000000009700000000000970000000000096000000000009700522000000000000881200000000000086331600000000000000009999123100000010000000000000BRPMAMACNOR3040
012024110508OSXB3       010OSX BRASIL  ON      NM   R$  000000000047300000000005100000000000458000000000049200000000004760000000000473000000000048900068000000000000020400000000000010053100000000000000009999123100000010000000000000BROSXBACNOR8109
012024110508AGXY3       010AGROGALAXY  ON      NM   R$  000000000004000000000000400000000000038000000000003900000000000390000000000039000000000004000156000000000000144500000000000005662000000000000000009999123100000010000000000000BRAGXYACNOR4103
012024110510LIGT11      010LIGHT S/A   DIR     NM   R$  000000000000600000000000080000000000001000000000000100000000000010000000000001000000000000200421000000000002974800000000000004838700000000000000009999123100000010000000000000BRLIGTD01M16124
012024110510LIGT13      010LIGHT S/A   DIR     NM   R$  000000000000800000000000110000000000001000000000000200000000000020000000000001000000000000200335000000000001147700000000000002434300000000000000009999123100000010000000000000BRLIGTD02M15124
012024110510BSLI2       010BRB BANCO   DIR PRE      R$  000000000006000000000000600000000000060000000000006000000000000600000000000007000000000000000001000000000000000100000000000000006000000000000000009999123100000010000000000000BRBSLID03PR3194
012024110510PINE1       010PINE        DIR ORD N2   R$  000000000002100000000000270000000000019000000000002200000000000210000000000019000000000002100042000000000000028900000000000000642700000000000000009999123100000010000000000000BRPINED04OR0150
012024110510HBSA1       010HIDROVIAS   DIR ORD NM   R$  000000000000100000000000010000000000001000000000000100000000000010000000000000000000000000100019000000000000157100000000000000157100000000000000009999123100000010000000000000BRHBSAD01OR5100
012024110510PINE2       010PINE        DIR PRE N2   R$  000000000003800000000000410000000000025000000000003500000000000250000000000025000000000003900008000000000000001600000000000000057300000000000000009999123100000010000000000000BRPINED06PR2150
012024110510MBLY1       010MOBLY       DIR ORD NM   R$  000000000000100000000000010000000000001000000000000100000000000010000000000000000000000000100005000000000000005500000000000000005500000000000000009999123100000010000000000000BRMBLYD01OR0100
012024110510MBLY11      010MOBLY       DIR     NM   R$  000000000000900000000000100000000000006000000000000800000000000060000000000006000000000001000007000000000000001500000000000000013400000000000000009999123100000010000000000000BRMBLYD01M18100
012024110512VVMR11      010FII MULT RENCI  ER       R$  000000000867700000000086970000000008677000000000869500000000086970000000007831000000000869700004000000000000000100000000000000869501000000000000009999123100000010000000000000BRVVMRCTF009110
012024110512BARI11      010FII BARIGUI CI  ER       R$  000000000744500000000074830000000007385000000000740500000000074190000000007419000000000745001016000000000000010809000000000080046031000000000000009999123100000010000000000000BRBARICTF003167
012024110512RINV11      010FII REAL INVCI           R$  000000001047500000000105500000000010453000000001051600000000105450000000010525000000001054500128000000000000003131000000000032928535000000000000009999123100000010000000000000BRRINVCTF004124
012024110512RMAI11      010FII REAGMULTCI  ER       R$  000000000755000000000075500000000007527000000000754600000000075490000000007476000000000754900119000000000000000138000000000001041383000000000000009999123100000010000000000000BRRMAICTF000139
012024110512RNDP11      010FII BB R PAPCI  ER       R$  000000000424900000000042930000000004248000000000424900000000042930000000004293000000000510600004000000000000000075000000000000318681000000000000009999123100000010000000000000BRRNDPCTF007253
012024110512RNGO11      010FII RIONEGROCI  ER       R$  000000000484300000000048500000000004760000000000481800000000048200000000004820000000000484200112000000000000001172000000000005647517000000000000009999123100000010000000000000BRRNGOCTF003248
012024110512RPRI11      010FII RBR PR  CI  ER       R$  000000000857000000000086790000000008570000000000860800000000086000000000008600000000000862700394000000000000003331000000000028674649000000000000009999123100000010000000000000BRRPRICTF007133
012024110512RRCI11      010FII RBCAP RICI  ER       R$  000000000711100000000071110000000007016000000000707100000000070200000000007030000000000706900006000000000000000022000000000000155567000000000000009999123100000010000000000000BRRRCICTF005147
012024110512RVBI11      010FII VBI REITCI           R$  000000000685600000000069130000000006841000000000687100000000068530000000006852000000000688901037000000000000010845000000000074524728000000000000009999123100000010000000000000BRRVBICTF009156
012024110512RZAK11      010FII RIZA AKNCI           R$  000000000791700000000079840000000007900000000000793100000000079550000000007955000000000798404510000000000000027902000000000221298572000000000000009999123100000010000000000000BRRZAKCTF008148
012024110512RZAT11      010FII ARCTIUM CI           R$  000000000916900000000091960000000009062000000000914600000000091540000000009081000000000915502957000000000000010218000000000093457499000000000000009999123100000010000000000000BRRZATCTF009122
012024110512RZLC11      010FII RZLC    CI           R$  000000010111000000001011100000000101110000000010111000000001011100000000101109000000010111000012000000000000001134000000000114658740000000000000009999123100000010000000000000BRRZLCCTF002101
012024110512RZTR11      010FII RIZA TX CI  ER       R$  000000000862000000000086800000000008550000000000861400000000085510000000008551000000000857009268000000000000048691000000000419449858000000000000009999123100000010000000000000BRRZTRCTF003153
012024110512RZZR11      010FII RZZR    CI  ES       R$  000000001400000000000140000000000014000000000001400000000000140000000000013200000000001400000001000000000000000003000000000000042000000000000000009999123100000010000000000000BRRZZRCTF000102
012024110512SADI11      010FII SANT PAPCI  ER       R$  000000000088400000000008840000000000850000000000087000000000008620000000000856000000000086200810000000000000046446000000000040446969000000000000009999123100000010000000000000BRSADICTF007165
012024110512TRXB11      010FII TRX R IICI  ER       R$  000000001353600000000135360000000013501000000001351100000000135010000000012501000000001381900003000000000000000007000000000000094577000000000000009999123100000010000000000000BRTRXBCTF002156
012024110512TRXF11      010FII TRX REALCI  ER       R$  000000001001900000000100500000000009985000000001000400000000099890000000009989000000001000006341000000000000042562000000000425812706000000000000009999123100000010000000000000BRTRXFCTF003169
012024110512TVRI11      010FII TIVIO RICI  ER       R$  000000000938400000000094230000000009360000000000939700000000094100000000009401000000000941001240000000000000009798000000000092077936000000000000009999123100000010000000000000BRTVRICTF001113
012024110512NVHO11      010FII NOVOHORICI  ER       R$  000000000121600000000012160000000001216000000000121600000000012160000000001218000000000144400002000000000000000007000000000000008512000000000000009999123100000010000000000000BRNVHOCTF003234
012024110512OCRE11      010FII OCTO    CI  ER       R$  000000001040000000000104000000000009800000000000983200000000098700000000009900000000001000000011000000000000000164000000000001612464000000000000009999123100000010000000000000BROCRECTF001119
012024110512VCRI11      010FII VINCI CRCI  ER       R$  000000000075700000000007600000000000749000000000075400000000007570000000000754000000000075700950000000000000123898000000000093469066000000000000009999123100000010000000000000BRVCRICTF007130
012024110512VCRR11      010FII VECT RENCI  ER       R$  000000000638000000000064530000000006380000000000644200000000064520000000006440000000000645200178000000000000000686000000000004419390000000000000009999123100000010000000000000BRVCRRCTF008141
012024110512VGHF11      010FII VALOR HECI  ER       R$  000000000078600000000007930000000000781000000000078400000000007830000000000783000000000078513144000000000000451268000000000354207799000000000000009999123100000010000000000000BRVGHFCTF005149
012024110512VGIP11      010FII VALORAIPCI           R$  000000000812700000000082120000000008095000000000813800000000081020000000008101000000000811402577000000000000020221000000000164570475000000000000009999123100000010000000000000BRVGIPCTF002160
012024110512VGIR11      010FII VALREIIICI           R$  000000000097500000000009770000000000966000000000097000000000009670000000000967000000000097017766000000000000511847000000000496993784000000000000009999123100000010000000000000BRVGIRCTF008182
012024110512VGRI11      010FII VGRI    CI  ER       R$  000000000086700000000008670000000000831000000000084600000000008340000000000833000000000083400509000000000000032066000000000027131897000000000000009999123100000010000000000000BRVGRICTF008109
012024110512VIFI11      010FII VINCI IFCI  ER       R$  000000000073000000000007470000000000710000000000072900000000007300000000000722000000000073000368000000000000022787000000000016624799000000000000009999123100000010000000000000BRVIFICTF009161
012024110512VILG11      010FII VINCI LGCI  ER       R$  000000000792500000000080110000000007914000000000794700000000079610000000007961000000000798102629000000000000015902000000000126377543000000000000009999123100000010000000000000BRVILGCTF001176
012024110512VINO11      010FII VINCI OFCI  ER       R$  000000000049500000000004950000000000488000000000049100000000004930000000000491000000000049302829000000000000127283000000000062529794000000000000009999123100000010000000000000BRVINOCTF001162
012024110512VISC11      010FII VINCI SCCI  ER       R$  000000001018300000000103580000000010181000000001028100000000103480000000010330000000001034807632000000000000043788000000000450193721000000000000009999123100000010000000000000BRVISCCTF005191
012024110512VIUR11      010FII VINCI IUCI  ER       R$  000000000055100000000005600000000000550000000000055600000000005560000000000556000000000055700716000000000000016299000000000009075277000000000000009999123100000010000000000000BRVIURCTF009142
012024110512NAVT11      010FII NAVI TOTCI           R$  000000000772900000000077300000000007502000000000758500000000076280000000007542000000000762800129000000000000001919000000000014556406000000000000009999123100000010000000000000BRNAVTCTF015143
012024110512NCHB11      010FII NCH BR  CI           R$  000000000086700000000008670000000000845000000000085800000000008600000000000860000000000086100789000000000000224452000000000192584262000000000000009999123100000010000000000000BRNCHBCTF000234
012024110512NCRI11      010FII NAVI CRICI           R$  000000000089900000000009050000000000899000000000089900000000009050000000000900000000000090500018000000000000000099000000000000089029000000000000009999123100000010000000000000BRNCRICTF004122
012024110512NEWL11      010FII NEWPORT CI  ER       R$  000000001031000000000103100000000010150000000001028300000000103010000000010295000000001030100110000000000000000557000000000005727800000000000000009999123100000010000000000000BRNEWLCTF004160
012024110512NEWU11      010FII NEWRU   CI  ER       R$  000000000725500000000078190000000007255000000000756600000000078190000000007257000000000782000006000000000000000006000000000000045401000000000000009999123100000010000000000000BRNEWUCTF005126
012024110512NSLU11      010FII LOURDES CI  ER       R$  000000001660600000000166060000000016199000000001632500000000164350000000016365000000001643500117000000000000000688000000000011232153000000000000009999123100000010000000000000BRNSLUCTF008316
012024110512MFCR11      010FII MERITO RCI  ER       R$  000000000248300000000025580000000002434000000000253100000000024340000000002432000000000258600008000000000000000024000000000000060747000000000000009999123100000010000000000000BRMFCRCTF002129
012024110512SMRE11      010FII SMRE    CI  ER       R$  000000000999500000000100000000000009994000000000999900000000100000000000009875000000001000000228000000000000021289000000000212873393000000000000009999123100000010000000000000BRSMRECTF001107
012024110512SNCI11      010FII SUNO CRICI           R$  000000000898300000000090330000000008804000000000893800000000088540000000008854000000000891300699000000000000005300000000000047373176000000000000009999123100000010000000000000BRSNCICTF002140
012024110512SNEL11      010FII SUNO EL CI  ES       R$  000000000088500000000008870000000000880000000000088400000000008850000000000884000000000088500902000000000000071354000000000063143779000000000000009999123100000010000000000000BRSNELCTF010114
012024110512SNEL12      010FII SUNO EL DIR          R$  000000000000100000000000010000000000001000000000000100000000000010000000000000000000000000100436000000000000618371000000000000618371000000000000009999123100000010000000000000BRSNELD02M11113
012024110512SNFF11      010FII SUNOFOFICI           R$  000000000817000000000082760000000008135000000000820700000000082690000000008269000000000827000505000000000000001921000000000015765936000000000000009999123100000010000000000000BRSNFFCTF001143
012024110512SNLG11      010FII SUNO LG CI           R$  000000000290900000000029870000000002909000000000296300000000029570000000002911000000000295700072000000000000000585000000000001733791000000000000009999123100000010000000000000BRSNLGCTF007108
012024110512SNME11      010FII SNME    CI           R$  000000000092100000000009210000000000875000000000090000000000009150000000000915000000000092000683000000000000010386000000000009351347000000000000009999123100000010000000000000BRSNMECTF000111
012024110512IBCR11      010FII BREI    CI           R$  000000000556300000000055990000000005536000000000556400000000055700000000005545000000000559900116000000000000001385000000000007706319000000000000009999123100000010000000000000BRIBCRCTF009141
012024110512JFLL11      010FII JFL LIV CI  ER       R$  000000000710500000000071880000000007105000000000714600000000071510000000007106000000000717100171000000000000001311000000000009368491000000000000009999123100000010000000000000BRJFLLCTF002145
012024110512JPPA11      010FII JPPA CRICI  ER       R$  000000000806300000000081750000000008063000000000813600000000081500000000008104000000000816800354000000000000001855000000000015094055000000000000009999123100000010000000000000BRJPPACTF005166
