00COTAHIST.2024BOVESPA 20240822                                                                                                                                                                                                                      
012024082202WEST3       010WESTWING    ON      NM   R$  000000000009000000000000920000000000089000000000009000000000000920000000000090000000000009200027000000000000024000000000000002175500000000000000009999123100000010000000000000BRWESTACNOR3100
012024082202WHRL3       010WHIRLPOOL   ON           R$  000000000042800000000004280000000000428000000000042800000000004280000000000428000000000043200002000000000000000300000000000000128400000000000000009999123100000010000000000000BRWHRLACNOR5128
012024082202WHRL4       010WHIRLPOOL   PN           R$  000000000045300000000004550000000000445000000000044900000000004460000000000446000000000045300013000000000000002800000000000001259700000000000000009999123100000010000000000000BRWHRLACNPR2128
012024082202WIZC3       010WIZ CO      ON      NM   R$  000000000063900000000006390000000000607000000000061500000000006130000000000613000000000061501109000000000000463100000000000285060500000000000000009999123100000010000000000000BRWIZCACNOR5102
012024082202SLCE3       010SLC AGRICOLAON      NM   R$  000000000179500000000018060000000001764000000000178100000000017790000000001778000000000178205018000000000001720300000000003065182400000000000000009999123100000010000000000000BRSLCEACNOR2125
012024082202VALE3       010VALE        ON      NM   R$  000000000582400000000058380000000005785000000000581700000000058380000000005835000000000583843824000000000017719100000000103077081000000000000000009999123100000010000000000000BRVALEACNOR0211
012024082202RCSL3       010RECRUSUL    ON           R$  000000000032000000000003490000000000314000000000033200000000003230000000000323000000000032402949000000000000768100000000000255254300000000000000009999123100000010000000000000BRRCSLACNOR4134
012024082202PNVL3       010DIMED       ON      NM   R$  000000000108600000000010860000000001048000000000105500000000010510000000001051000000000105801499000000000000283700000000000299452800000000000000009999123100000010000000000000BRPNVLACNOR9207
012024082202POMO3       010MARCOPOLO   ON      N2   R$  000000000054200000000005420000000000521000000000052900000000005210000000000521000000000052900452000000000000184500000000000097770800000000000000009999123100000010000000000000BRPOMOACNOR0098
012024082202POMO4       010MARCOPOLO   PN      N2   R$  000000000069000000000006930000000000664000000000067200000000006700000000000670000000000067108167000000000006614700000000004450723400000000000000009999123100000010000000000000BRPOMOACNPR7098
012024082202PORT3       010WILSON SONS ON      NM   R$  000000000169900000000016990000000001638000000000165400000000016500000000001650000000000165102068000000000000450300000000000744959800000000000000009999123100000010000000000000BRPORTACNOR8109
012024082202POSI3       010POSITIVO TECON      NM   R$  000000000070500000000007050000000000670000000000067700000000006700000000000670000000000067203861000000000003594900000000002436519400000000000000009999123100000010000000000000BRPOSIACNOR9116
012024082202PRIO3       010PETRORIO    ON      NM   R$  000000000467000000000047200000000004651000000000469000000000046860000000004681000000000468820884000000000006640000000000031144083800000000000000009999123100000010000000000000BRPRIOACNOR1107
012024082202AZZA3       010AZZAS 2154  ON      NM   R$  000000000520000000000052000000000004976000000000503100000000050250000000005017000000000502705352000000000001251900000000006299001400000000000000009999123100000010000000000000BRAZZAACNOR9100
012024082202VAMO3       010VAMOS       ON      NM   R$  000000000082900000000008390000000000794000000000080300000000007970000000000797000000000079812598000000000006992500000000005619141200000000000000009999123100000010000000000000BRVAMOACNOR7105
012024082202ODPV3       010ODONTOPREV  ON      NM   R$  000000000118300000000011830000000001156000000000116300000000011670000000001167000000000116803486000000000000802900000000000934553400000000000000009999123100000010000000000000BRODPVACNOR4202
012024082202OFSA3       010OUROFINO S/AON      NM   R$  000000000225000000000022510000000002250000000000225000000000022510000000002250000000000225200008000000000000003200000000000007202500000000000000009999123100000010000000000000BROFSAACNOR7118
012024082202ONCO3       010ONCOCLINICASON      NM   R$  000000000063000000000006360000000000606000000000061000000000006060000000000605000000000060603060000000000002998200000000001831007800000000000000009999123100000010000000000000BRONCOACNOR6101
012024082202OPCT3       010OCEANPACT   ON      NM   R$  000000000063800000000006450000000000630000000000063600000000006360000000000631000000000063603762000000000000689500000000000438672000000000000000009999123100000010000000000000BROPCTACNOR0100
012024082202ORVR3       010ORIZON      ON      NM   R$  000000000463100000000046310000000004535000000000455900000000045500000000004550000000000455201950000000000000295100000000001345394300000000000000009999123100000010000000000000BRORVRACNOR0101
012024082202PATI3       010PANATLANTICAON           R$  000000000340000000000035000000000003300000000000337400000000033000000000003300000000000336500018000000000000002000000000000006748400000000000000009999123100000010000000000000BRPATIACNOR6065
012024082202PCAR3       010P.ACUCAR-CBDON      NM   R$  000000000032900000000003310000000000319000000000032400000000003190000000000319000000000032007958000000000008381500000000002715917300000000000000009999123100000010000000000000BRPCARACNOR3167
012024082202RAIZ4       010RAIZEN      PN      N2   R$  000000000032500000000003280000000000320000000000032400000000003240000000000323000000000032406087000000000014370300000000004658686700000000000000009999123100000010000000000000BRRAIZACNPR6111
012024082202RANI3       010IRANI       ON      NM   R$  000000000082300000000008230000000000803000000000080600000000008050000000000804000000000080504351000000000001311000000000001056797100000000000000009999123100000010000000000000BRRANIACNOR5073
012024082202RAPT3       010RANDON PART ON      N1   R$  000000000089800000000008990000000000861000000000087600000000008640000000000864000000000088300234000000000000052200000000000045776700000000000000009999123100000010000000000000BRRAPTACNOR7163
012024082202RAPT4       010RANDON PART PN      N1   R$  000000000112000000000011250000000001064000000000108100000000010820000000001080000000000108305655000000000002730500000000002953533400000000000000009999123100000010000000000000BRRAPTACNPR4163
012024082202SMFT3       010SMART FIT   ON      NM   R$  000000000234200000000023420000000002243000000000226300000000022690000000002265000000000226913988000000000003725600000000008432600400000000000000009999123100000010000000000000BRSMFTACNOR1112
012024082202MILS3       010MILLS       ON  EDJ NM   R$  000000000114600000000011490000000001098000000000110900000000011000000000001100000000000110603786000000000000918400000000001018771600000000000000009999123100000010000000000000BRMILSACNOR2128
012024082202MLAS3       010MULTILASER  ON      NM   R$  000000000019100000000001950000000000184000000000018700000000001850000000000184000000000018504174000000000003330200000000000623264400000000000000009999123100000010000000000000BRMLASACNOR9101
012024082202MNPR3       010MINUPAR     ON           R$  000000000158700000000015870000000001500000000000152200000000015060000000001506000000000153700013000000000000002200000000000003350200000000000000009999123100000010000000000000BRMNPRACNOR5122
012024082202MOVI3       010MOVIDA      ON      NM   R$  000000000076000000000007690000000000729000000000074400000000007290000000000729000000000073106035000000000003698300000000002751629500000000000000009999123100000010000000000000BRMOVIACNOR0122
012024082202MRFG3       010MARFRIG     ON      NM   R$  000000000148800000000015050000000001456000000000147000000000014650000000001458000000000146714951000000000004406300000000006480060200000000000000009999123100000010000000000000BRMRFGACNOR0116
012024082202PINE3       010PINE        ON      N2   R$  000000000058300000000005830000000000556000000000057200000000005560000000000558000000000058300004000000000000000500000000000000286100000000000000009999123100000010000000000000BRPINEACNOR1150
012024082202PINE4       010PINE        PN      N2   R$  000000000047500000000004850000000000474000000000048000000000004770000000000477000000000048000499000000000000278900000000000134097700000000000000009999123100000010000000000000BRPINEACNPR8150
012024082202PLPL3       010PLANOEPLANO ON      NM   R$  000000000123400000000012460000000001168000000000118400000000011770000000001175000000000117703848000000000000802600000000000950611600000000000000009999123100000010000000000000BRPLPLACNOR5104
012024082202LVTC3       010WDC NETWORKSON      NM   R$  000000000039500000000003990000000000380000000000038400000000003800000000000380000000000038400043000000000000010500000000000004041000000000000000009999123100000010000000000000BRLVTCACNOR4102
012024082202LWSA3       010LWSA        ON      NM   R$  000000000050000000000005050000000000476000000000048700000000004820000000000482000000000048306559000000000004979700000000002426436300000000000000009999123100000010000000000000BRLWSAACNOR8103
012024082202MAPT3       010CEMEPE      ON           R$  000000000042100000000004210000000000421000000000042100000000004210000000000421000000000049400001000000000000000100000000000000042100000000000000009999123100000010000000000000BRMAPTACNOR8106
012024082202MAPT4       010CEMEPE      PN           R$  000000000050100000000005010000000000501000000000050100000000005010000000000501000000000059900001000000000000000100000000000000050100000000000000009999123100000010000000000000BRMAPTACNPR5106
012024082202MATD3       010MATER DEI   ON      NM   R$  000000000047300000000004730000000000457000000000046000000000004580000000000458000000000046200974000000000000638500000000000294066500000000000000009999123100000010000000000000BRMATDACNOR4104
012024082202MBLY3       010MOBLY       ON      NM   R$  000000000030800000000003110000000000284000000000029000000000002900000000000285000000000029001773000000000000818700000000000238118900000000000000009999123100000010000000000000BRMBLYACNOR5100
012024082202MDIA3       010M.DIASBRANCOON      NM   R$  000000000281400000000028140000000002767000000000278100000000027900000000002790000000000279101798000000000000341000000000000948521400000000000000009999123100000010000000000000BRMDIAACNOR7135
012024082202PDGR3       010PDG REALT   ON      NM   R$  000000000001800000000000180000000000017000000000001700000000000170000000000017000000000001800192000000000000421400000000000007231100000000000000009999123100000010000000000000BRPDGRACNOR8119
012024082202AERI3       010AERIS       ON      NM   R$  000000000093500000000009350000000000811000000000085700000000008110000000000811000000000083200835000000000000387300000000000332200000000000000000009999123100000010000000000000BRAERIACNOR4102
012024082202AESB3       010AES BRASIL  ON      NM   R$  000000000114100000000011440000000001138000000000114100000000011440000000001141000000000114501967000000000001436100000000001638890700000000000000009999123100000010000000000000BRAESBACNOR7106
012024082202AFLT3       010AFLUENTE T  ON           R$  000000000071800000000007180000000000718000000000071800000000007180000000000710000000000071500001000000000000000100000000000000071800000000000000009999123100000010000000000000BRAFLTACNOR1122
012024082202AGRO3       010BRASILAGRO  ON      NM   R$  000000000262500000000026250000000002554000000000257800000000025750000000002564000000000257601414000000000000221000000000000569905000000000000000009999123100000010000000000000BRAGROACNOR7114
012024082202AGXY3       010AGROGALAXY  ON      NM   R$  000000000013000000000001300000000000127000000000012800000000001280000000000127000000000012800228000000000000185000000000000023717800000000000000009999123100000010000000000000BRAGXYACNOR4103
012024082202ALLD3       010ALLIED      ON      NM   R$  000000000076500000000007700000000000755000000000076200000000007560000000000755000000000076500210000000000000044400000000000033841900000000000000009999123100000010000000000000BRALLDACNOR3106
012024082202ALOS3       010ALLOS       ON      NM   R$  000000000233500000000023370000000002290000000000230900000000023080000000002303000000000230815152000000000005713100000000013192149600000000000000009999123100000010000000000000BRALOSACNOR5101
012024082202BBDC3       010BRADESCO    ON      N1   R$  000000000140200000000014050000000001394000000000139900000000014030000000001400000000000140311033000000000005302000000000007420003200000000000000009999123100000010000000000000BRBBDCACNOR1773
012024082202BBDC4       010BRADESCO    PN      N1   R$  000000000155800000000015630000000001547000000000155300000000015520000000001552000000000155346954000000000033853100000000052574590200000000000000009999123100000010000000000000BRBBDCACNPR8773
012024082202BRIT3       010BRISANET    ON      NM   R$  000000000036500000000003670000000000344000000000035300000000003650000000000359000000000036601736000000000001952300000000000690767300000000000000009999123100000010000000000000BRBRITACNOR0103
012024082202DASA3       010DASA        ON      NM   R$  000000000034100000000003450000000000325000000000033400000000003330000000000328000000000033301469000000000000690500000000000231028200000000000000009999123100000010000000000000BRDASAACNOR1122
012024082202BRKM3       010BRASKEM     ON      N1   R$  000000000180000000000018000000000001750000000000176200000000017570000000001750000000000175700036000000000000005300000000000009342900000000000000009999123100000010000000000000BRBRKMACNOR1119
012024082202BRKM5       010BRASKEM     PNA     N1   R$  000000000175300000000017740000000001714000000000173300000000017140000000001713000000000171705584000000000001989900000000003450357500000000000000009999123100000010000000000000BRBRKMACNPA4121
012024082202BRKM6       010BRASKEM     PNB     N1   R$  000000000139700000000013970000000001397000000000139700000000013970000000001300000000000139700001000000000000000100000000000000139700000000000000009999123100000010000000000000BRBRKMACNPB2114
012024082202ENEV3       010ENEVA       ON      NM   R$  000000000137300000000013770000000001340000000000134700000000013490000000001345000000000135018372000000000006296700000000008485256200000000000000009999123100000010000000000000BRENEVACNOR8106
012024082202ENGI11      010ENERGISA    UNT ED  N2   R$  000000000489200000000049270000000004732000000000478000000000047500000000004746000000000475021774000000000003259900000000015582478900000000000000009999123100000010000000000000BRENGICDAM16136
012024082202ENGI3       010ENERGISA    ON  ED  N2   R$  000000000154600000000015480000000001500000000000152300000000015000000000001491000000000150000048000000000000005300000000000008074000000000000000009999123100000010000000000000BRENGIACNOR0146
012024082202ENGI4       010ENERGISA    PN  ED  N2   R$  000000000083300000000008410000000000811000000000082400000000008110000000000808000000000082000066000000000000016900000000000013930200000000000000009999123100000010000000000000BRENGIACNPR7142
012024082202ENJU3       010ENJOEI      ON      NM   R$  000000000017800000000001800000000000175000000000017700000000001770000000000176000000000017701578000000000000477600000000000084820500000000000000009999123100000010000000000000BRENJUACNOR9100
012024082202ENMT4       010ENERGISA MT PN           R$  000000000800000000000080000000000008000000000000800300000000080000000000007500000000000829900003000000000000000300000000000002401000000000000000009999123100000010000000000000BRENMTACNPR2126
012024082202EPAR3       010EMBPAR S/A  ON           R$  000000000059000000000005900000000000584000000000058600000000005840000000000584000000000058800004000000000000000400000000000000234600000000000000009999123100000010000000000000BREPARACNOR9105
012024082202EQPA3       010EQTL PARA   ON           R$  000000000069300000000006940000000000655000000000066500000000006590000000000655000000000065900094000000000000203000000000000135084300000000000000009999123100000010000000000000BREQPAACNOR1111
012024082202EQTL3       010EQUATORIAL  ON  ES  NM   R$  000000000356700000000035670000000003471000000000349300000000034900000000003481000000000349027956000000000007430400000000025961646000000000000000009999123100000010000000000000BREQTLACNOR0131
012024082202IGTI11      010IGUATEMI S.AUNT     N1   R$  000000000231500000000023150000000002265000000000228000000000022800000000002277000000000228010572000000000002354300000000005369786900000000000000009999123100000010000000000000BRIGTICDAM16106
012024082202IGTI3       010IGUATEMI S.AON      N1   R$  000000000028900000000002900000000000279000000000028100000000002790000000000279000000000028300118000000000000071000000000000020021200000000000000009999123100000010000000000000BRIGTIACNOR8106
012024082202IGTI4       010IGUATEMI S.APN      N1   R$  000000000100800000000010080000000001008000000000100800000000010080000000000009000000000108400002000000000000000300000000000000302400000000000000009999123100000010000000000000BRIGTIACNPR5106
012024082202INEP3       010INEPAR      ON           R$  000000000021900000000002540000000000215000000000022900000000002250000000000220000000000022500484000000000000223000000000000051288600000000000000009999123100000010000000000000BRINEPACNOR1143
012024082202INEP4       010INEPAR      PN           R$  000000000023500000000002540000000000218000000000023400000000002250000000000221000000000022500211000000000000121100000000000028396900000000000000009999123100000010000000000000BRINEPACNPR8143
012024082202INTB3       010INTELBRAS   ON      NM   R$  000000000231300000000023130000000002272000000000230000000000023050000000002298000000000230503863000000000000781900000000001798388400000000000000009999123100000010000000000000BRINTBACNOR9112
012024082202IRBR3       010IRBBRASIL REON      NM   R$  000000000470000000000047600000000004573000000000467100000000046830000000004680000000000468410543000000000002383000000000011132176400000000000000009999123100000010000000000000BRIRBRACNOR4111
012024082202LJQQ3       010QUERO-QUERO ON      NM   R$  000000000042700000000004270000000000407000000000041600000000004190000000000419000000000042004735000000000003763000000000001565824900000000000000009999123100000010000000000000BRLJQQACNOR5104
012024082202LOGG3       010LOG COM PROPON      NM   R$  000000000243400000000024340000000002381000000000240500000000024050000000002405000000000243102415000000000000671800000000001616276400000000000000009999123100000010000000000000BRLOGGACNOR7107
012024082202LOGN3       010LOG-IN      ON      NM   R$  000000000377100000000037710000000003625000000000367400000000036250000000003625000000000365800095000000000000012200000000000044832000000000000000009999123100000010000000000000BRLOGNACNOR3105
012024082202LPSB3       010LOPES BRASILON      NM   R$  000000000017900000000001800000000000174000000000017500000000001740000000000174000000000017600132000000000000063400000000000011121800000000000000009999123100000010000000000000BRLPSBACNOR0114
012024082202LREN3       010LOJAS RENNERON      NM   R$  000000000168000000000016970000000001634000000000165400000000016540000000001652000000000165532415000000000023406300000000038724044500000000000000009999123100000010000000000000BRLRENACNOR1221
012024082202BLAU3       010BLAU        ON      NM   R$  000000000135100000000013510000000001319000000000132700000000013290000000001325000000000132901202000000000000222000000000000294720000000000000000009999123100000010000000000000BRBLAUACNOR8114
012024082202BPAN4       010BANCO PAN   PN      N1   R$  000000000106900000000010710000000001033000000000104400000000010460000000001044000000000104706408000000000001958900000000002046457200000000000000009999123100000010000000000000BRBPANACNPR1115
012024082202BRAP3       010BRADESPAR   ON      N1   R$  000000000177600000000017780000000001751000000000176000000000017780000000001770000000000177800990000000000000155700000000000274065800000000000000009999123100000010000000000000BRBRAPACNOR5148
012024082202BRAP4       010BRADESPAR   PN      N1   R$  000000000190800000000019190000000001889000000000189800000000019080000000001904000000000190807534000000000002620500000000004975746300000000000000009999123100000010000000000000BRBRAPACNPR2148
012024082202CRFB3       010CARREFOUR BRON      NM   R$  000000000091800000000009290000000000904000000000091100000000009110000000000910000000000091112478000000000006461800000000005888679800000000000000009999123100000010000000000000BRCRFBACNOR2116
012024082202CRPG5       010CRISTAL     PNA          R$  000000000285100000000028950000000002850000000000287800000000028500000000002850000000000288900015000000000000002800000000000008059600000000000000009999123100000010000000000000BRCRPGACNPA3119
012024082202CRPG6       010CRISTAL     PNB          R$  000000000288100000000028810000000002870000000000287500000000028790000000002860000000000288800004000000000000000400000000000001150000000000000000009999123100000010000000000000BRCRPGACNPB1119
012024082202CSAN3       010COSAN       ON      NM   R$  000000000138800000000014030000000001367000000000137500000000013690000000001368000000000137016959000000000008440500000000011612326100000000000000009999123100000010000000000000BRCSANACNOR6126
012024082202CSED3       010CRUZEIRO EDUON      NM   R$  000000000038800000000003880000000000374000000000037700000000003750000000000375000000000038000697000000000000328600000000000123979000000000000000009999123100000010000000000000BRCSEDACNOR9104
012024082202CSMG3       010COPASA      ON      NM   R$  000000000231500000000023460000000002300000000000231700000000023270000000002323000000000232704925000000000000996000000000002308110600000000000000009999123100000010000000000000BRCSMGACNOR5174
012024082202HYPE3       010HYPERA      ON      NM   R$  000000000318700000000032100000000003070000000000312600000000030850000000003083000000000308614635000000000003327100000000010402870100000000000000009999123100000010000000000000BRHYPEACNOR0143
012024082202JHSF3       010JHSF PART   ON      NM   R$  000000000045200000000004550000000000432000000000043900000000004350000000000434000000000043603697000000000002870200000000001261991500000000000000009999123100000010000000000000BRJHSFACNOR2138
012024082202JSLG3       010JSL         ON      NM   R$  000000000096800000000009680000000000925000000000093500000000009280000000000926000000000092802569000000000000446300000000000417523400000000000000009999123100000010000000000000BRJSLGACNOR2121
012024082202KEPL3       010KEPLER WEBERON  EJ  NM   R$  000000000114800000000011500000000001104000000000111600000000011140000000001109000000000111502877000000000000805200000000000899217700000000000000009999123100000010000000000000BRKEPLACNOR1064
012024082202KLBN11      010KLABIN S/A  UNT     N2   R$  000000000221500000000022290000000002199000000000221100000000022090000000002209000000000221012572000000000002744800000000006071064600000000000000009999123100000010000000000000BRKLBNCDAM18143
012024082202KLBN3       010KLABIN S/A  ON      N2   R$  000000000044900000000004490000000000441000000000044300000000004440000000000443000000000044400613000000000000419100000000000186028000000000000000009999123100000010000000000000BRKLBNACNOR2171
012024082202KLBN4       010KLABIN S/A  PN      N2   R$  000000000044300000000004450000000000438000000000044100000000004380000000000437000000000043901749000000000001188800000000000524426000000000000000009999123100000010000000000000BRKLBNACNPR9171
012024082202MSPA3       010MELHOR SP   ON           R$  000000000427000000000042700000000004200000000000426900000000042000000000003440000000000660000009000000000000008400000000000035861000000000000000009999123100000010000000000000BRMSPAACNOR0127
012024082202MSPA4       010MELHOR SP   PN           R$  000000000363000000000036300000000003630000000000363000000000036300000000000000000000000660000012000000000000001200000000000004356000000000000000009999123100000010000000000000BRMSPAACNPR7127
012024082202MTRE3       010MITRE REALTYON      NM   R$  000000000039200000000003930000000000383000000000038600000000003830000000000383000000000038501395000000000000600500000000000231941300000000000000009999123100000010000000000000BRMTREACNOR6113
012024082202MTSA4       010METISA      PN           R$  000000000432900000000044490000000004281000000000440100000000044490000000004200000000000445000027000000000000004400000000000019368500000000000000009999123100000010000000000000BRMTSAACNPR9072
012024082202MULT3       010MULTIPLAN   ON      N2   R$  000000000267500000000026750000000002583000000000260700000000026180000000002612000000000262220015000000000005500700000000014341798300000000000000009999123100000010000000000000BRMULTACNOR5139
012024082202MWET4       010WETZEL S/A  PN           R$  000000000093400000000009340000000000934000000000093400000000009340000000000857000000000093400001000000000000000100000000000000093400000000000000009999123100000010000000000000BRMWETACNPR3118
012024082202SAPR11      010SANEPAR     UNT     N2   R$  000000000287300000000028900000000002850000000000286700000000028680000000002863000000000286806371000000000000992900000000002846923600000000000000009999123100000010000000000000BRSAPRCDAM13118
012024082202SAPR3       010SANEPAR     ON      N2   R$  000000000053800000000005450000000000538000000000054200000000005450000000000541000000000054500744000000000000253800000000000137707800000000000000009999123100000010000000000000BRSAPRACNOR9159
012024082202SAPR4       010SANEPAR     PN      N2   R$  000000000058000000000005830000000000573000000000057700000000005770000000000576000000000057803553000000000001549500000000000894451400000000000000009999123100000010000000000000BRSAPRACNPR6159
012024082202SBFG3       010GRUPO SBF   ON      NM   R$  000000000174400000000017570000000001711000000000172300000000017220000000001720000000000172506024000000000001240600000000002138016800000000000000009999123100000010000000000000BRSBFGACNOR1103
012024082202SBSP3       010SABESP      ON      NM   R$  000000000990100000000099480000000009726000000000979000000000097460000000009746000000000975519426000000000003479700000000034066762500000000000000009999123100000010000000000000BRSBSPACNOR5161
012024082202RSUL4       010RIOSULENSE  PN           R$  000000000649800000000065780000000006364000000000643900000000063640000000006362000000000660000023000000000000002400000000000015454400000000000000009999123100000010000000000000BRRSULACNPR3114
012024082202VITT3       010VITTIA      ON      NM   R$  000000000061500000000006160000000000596000000000060200000000006110000000000604000000000061201351000000000000346700000000000208822800000000000000009999123100000010000000000000BRVITTACNOR4107
012024082202VIVA3       010VIVARA S.A. ON      NM   R$  000000000269100000000026990000000002632000000000266600000000026700000000002665000000000267011902000000000002785000000000007426336400000000000000009999123100000010000000000000BRVIVAACNOR0107
012024082202VIVR3       010VIVER       ON      NM   R$  000000000026100000000002650000000000256000000000026000000000002590000000000259000000000026100089000000000000041600000000000010836000000000000000009999123100000010000000000000BRVIVRACNOR4123
012024082202VIVT3       010TELEF BRASILON           R$  000000000529700000000052970000000005196000000000523900000000051960000000005196000000000522014139000000000002469600000000012939656100000000000000009999123100000010000000000000BRVIVTACNOR0183
012024082202VLID3       010VALID       ON      NM   R$  000000000214900000000021870000000002132000000000215600000000021540000000002141000000000215401651000000000000230500000000000497158900000000000000009999123100000010000000000000BRVLIDACNOR5144
012024082202VSTE3       010VESTE       ON      NM   R$  000000000134300000000013430000000001339000000000134200000000013390000000001332000000000133900004000000000000000700000000000000939400000000000000009999123100000010000000000000BRVSTEACNOR5103
012024082202VTRU3       010VITRUEDUCA  ON      NM   R$  000000000107100000000010710000000001022000000000103200000000010300000000001026000000000103100140000000000000030600000000000031596800000000000000009999123100000010000000000000BRVTRUACNOR3100
012024082202VULC3       010VULCABRAS   ON  ED  NM   R$  000000000179800000000017980000000001717000000000173800000000017260000000001725000000000172601773000000000000431100000000000749346400000000000000009999123100000010000000000000BRVULCACNOR2161
012024082202VVEO3       010VIVEO       ON      NM   R$  000000000020800000000002090000000000202000000000020400000000002030000000000203000000000020402480000000000001132100000000000231301000000000000000009999123100000010000000000000BRVVEOACNOR0104
012024082202PETZ3       010PETZ        ON      NM   R$  000000000050600000000005240000000000501000000000050900000000005070000000000506000000000050713528000000000024888800000000012691954500000000000000009999123100000010000000000000BRPETZACNOR2110
012024082202REDE3       010REDE ENERGIAON           R$  000000000069000000000006920000000000683000000000068700000000006850000000000685000000000069300009000000000000001200000000000000825200000000000000009999123100000010000000000000BRREDEACNOR7128
012024082202RENT3       010LOCALIZA    ON      NM   R$  000000000433100000000043960000000004191000000000424100000000041940000000004193000000000419433008000000000015339900000000065063610700000000000000009999123100000010000000000000BRRENTACNOR4196
012024082202TAEE11      010TAESA       UNT EDJ N2   R$  000000000356700000000035920000000003559000000000357700000000035870000000003583000000000358705608000000000001313900000000004700149200000000000000009999123100000010000000000000BRTAEECDAM10148
012024082202TAEE3       010TAESA       ON  EDJ N2   R$  000000000117900000000011880000000001179000000000118400000000011860000000001181000000000118600446000000000000113400000000000134280100000000000000009999123100000010000000000000BRTAEEACNOR9148
012024082202TAEE4       010TAESA       PN  EDJ N2   R$  000000000119300000000011970000000001188000000000119300000000011920000000001192000000000119800749000000000000189200000000000225786200000000000000009999123100000010000000000000BRTAEEACNPR6148
012024082202TASA3       010TAURUS ARMASON      N2   R$  000000000113900000000011450000000001106000000000111900000000011170000000001107000000000112400086000000000000017500000000000019598400000000000000009999123100000010000000000000BRTASAACNOR7104
012024082202TASA4       010TAURUS ARMASPN      N2   R$  000000000112600000000011390000000001101000000000111100000000011020000000001101000000000110801087000000000000259600000000000288648700000000000000009999123100000010000000000000BRTASAACNPR4104
012024082202TCSA3       010TECNISA     ON      NM   R$  000000000020400000000002070000000000197000000000019900000000001970000000000197000000000019800154000000000000110400000000000022071200000000000000009999123100000010000000000000BRTCSAACNOR3112
012024082202TECN3       010TECHNOS     ON      NM   R$  000000000061400000000006250000000000585000000000059600000000005850000000000585000000000058800467000000000000399700000000000238543800000000000000009999123100000010000000000000BRTECNACNOR6109
012024082202TELB3       010TELEBRAS    ON           R$  000000000140000000000014000000000001370000000000137800000000013800000000001365000000000139400008000000000000001800000000000002481900000000000000009999123100000010000000000000BRTELBACNOR2140
012024082202TELB4       010TELEBRAS    PN           R$  000000000091000000000009200000000000899000000000090800000000008990000000000895000000000091100013000000000000003900000000000003541700000000000000009999123100000010000000000000BRTELBACNPR9140
012024082202TEND3       010TENDA       ON      NM   R$  000000000138900000000013890000000001305000000000132600000000013240000000001321000000000132406963000000000002194200000000002911176400000000000000009999123100000010000000000000BRTENDACNOR4111
012024082202TFCO4       010TRACK FIELD PN      N2   R$  000000000123000000000012300000000001200000000000120800000000012070000000001206000000000121700381000000000000111300000000000134560100000000000000009999123100000010000000000000BRTFCOACNPR8114
012024082202TGMA3       010TEGMA       ON      NM   R$  000000000265300000000026610000000002568000000000258600000000025680000000002565000000000257600801000000000000105900000000000273875900000000000000009999123100000010000000000000BRTGMAACNOR7145
012024082202TIMS3       010TIM         ON      NM   R$  000000000183000000000018300000000001789000000000180300000000017890000000001789000000000179816555000000000007196200000000012979983200000000000000009999123100000010000000000000BRTIMSACNOR5117
012024082202VBBR3       010VIBRA       ON      NM   R$  000000000246400000000025470000000002442000000000251300000000025180000000002517000000000252064487000000000026842100000000067454426400000000000000009999123100000010000000000000BRVBBRACNOR1108
012024082202PDTC3       010PADTEC      ON      NM   R$  000000000018900000000001910000000000188000000000018900000000001910000000000190000000000019100073000000000000069900000000000013277000000000000000009999123100000010000000000000BRPDTCACNOR3101
012024082202PEAB3       010PAR AL BAHIAON           R$  000000000430000000000043000000000004300000000000430000000000043000000000000000000000000440000002000000000000000200000000000000860000000000000000009999123100000010000000000000BRPEABACNOR3133
012024082202PETR3       010PETROBRAS   ON  EDJ N2   R$  000000000400400000000040050000000003937000000000396800000000039780000000003972000000000397916767000000000006460400000000025637236900000000000000009999123100000010000000000000BRPETRACNOR9206
012024082202PETR4       010PETROBRAS   PN  EDJ N2   R$  000000000372800000000037300000000003686000000000370600000000037120000000003712000000000371344570000000000026334300000000097612224300000000000000009999123100000010000000000000BRPETRACNPR6214
012024082202GEPA3       010GER PARANAP ON           R$  000000000260000000000026000000000002600000000000260000000000026000000000002560000000000264400001000000000000000100000000000000260000000000000000009999123100000010000000000000BRGEPAACNOR2153
012024082202GEPA4       010GER PARANAP PN           R$  000000000262500000000026300000000002600000000000261700000000026000000000002580000000000264200005000000000000000500000000000001308600000000000000009999123100000010000000000000BRGEPAACNPR9160
012024082202GFSA3       010GAFISA      ON      NM   R$  000000000029200000000002930000000000282000000000028700000000002880000000000286000000000028801811000000000001534100000000000441106200000000000000009999123100000010000000000000BRGFSAACNOR3125
012024082202ALPA3       010ALPARGATAS  ON      N1   R$  000000000076100000000007730000000000760000000000076200000000007610000000000760000000000077000011000000000000002200000000000001677900000000000000009999123100000010000000000000BRALPAACNOR0231
012024082202ALPA4       010ALPARGATAS  PN      N1   R$  000000000082200000000008230000000000804000000000081000000000008080000000000806000000000080903895000000000001338000000000001084512000000000000000009999123100000010000000000000BRALPAACNPR7232
012024082202ALPK3       010ESTAPAR     ON      NM   R$  000000000038900000000003940000000000374000000000038300000000003770000000000377000000000038000410000000000000170000000000000065255100000000000000009999123100000010000000000000BRALPKACNOR9101
012024082202ALUP11      010ALUPAR      UNT ED  N2   R$  000000000314900000000031490000000003110000000000313400000000031460000000003139000000000314604631000000000001014200000000003178513400000000000000009999123100000010000000000000BRALUPCDAM15120
012024082202ALUP3       010ALUPAR      ON  ED  N2   R$  000000000107100000000010790000000001071000000000107300000000010720000000001072000000000107500036000000000000004800000000000005150700000000000000009999123100000010000000000000BRALUPACNOR8120
012024082202ALUP4       010ALUPAR      PN  ED  N2   R$  000000000102700000000010300000000001022000000000102700000000010260000000001025000000000104900056000000000000008300000000000008527900000000000000009999123100000010000000000000BRALUPACNPR5120
012024082202AMAR3       010LOJAS MARISAON      NM   R$  000000000011900000000001190000000000115000000000011500000000001160000000000115000000000011600423000000000000393600000000000045652500000000000000009999123100000010000000000000BRAMARACNOR4115
012024082202AMBP3       010AMBIPAR     ON      NM   R$  000000000834900000000083500000000007824000000000805500000000080100000000007990000000000802501553000000000000323500000000002606006900000000000000009999123100000010000000000000BRAMBPACNOR6103
012024082202ANIM3       010ANIMA       ON  ED  NM   R$  000000000035000000000003500000000000323000000000033200000000003250000000000324000000000032505536000000000008149700000000002707915200000000000000009999123100000010000000000000BRANIMACNOR6109
012024082202APER3       010ALPER S.A.  ON           R$  000000000458600000000046000000000004551000000000458400000000045860000000004584000000000462000034000000000000010000000000000045841000000000000000009999123100000010000000000000BRAPERACNOR9106
012024082202ARML3       010ARMAC       ON      NM   R$  000000000090200000000009110000000000895000000000090100000000009000000000000900000000000090302674000000000000484600000000000437032800000000000000009999123100000010000000000000BRARMLACNOR1112
012024082202BRSR3       010BANRISUL    ON      N1   R$  000000000133600000000013390000000001326000000000133000000000013270000000001328000000000133600024000000000000003700000000000004924400000000000000009999123100000010000000000000BRBRSRACNOR3188
012024082202BRSR6       010BANRISUL    PNB     N1   R$  000000000124300000000012440000000001225000000000123300000000012370000000001236000000000123803324000000000000664200000000000819019700000000000000009999123100000010000000000000BRBRSRACNPB4191
012024082202BSLI4       010BRB BANCO   PN           R$  000000000099800000000009980000000000975000000000097900000000009750000000000941000000000099600004000000000000000600000000000000587700000000000000009999123100000010000000000000BRBSLIACNPR2194
012024082202BBSE3       010BBSEGURIDADEON  ED  NM   R$  000000000361500000000036160000000003575000000000359200000000035950000000003590000000000359616608000000000003195700000000011480753300000000000000009999123100000010000000000000BRBBSEACNOR5125
012024082202CLSC4       010CELESC      PN      N2   R$  000000000780300000000078610000000007781000000000783700000000078610000000007834000000000786100014000000000000002600000000000020378100000000000000009999123100000010000000000000BRCLSCACNPR3131
012024082202CMIG3       010CEMIG       ON      N1   R$  000000000143200000000014390000000001414000000000142500000000014250000000001421000000000142500821000000000000203800000000000290448900000000000000009999123100000010000000000000BRCMIGACNOR6242
012024082202CMIG4       010CEMIG       PN      N1   R$  000000000120300000000012170000000001194000000000120100000000012000000000001199000000000120021076000000000015422000000000018531688000000000000000009999123100000010000000000000BRCMIGACNPR3243
012024082202CMIN3       010CSNMINERACAOON      N2   R$  000000000055000000000005510000000000538000000000054400000000005400000000000539000000000054107653000000000008680500000000004723062600000000000000009999123100000010000000000000BRCMINACNOR2111
012024082202ATOM3       010ATOMPAR     ON           R$  000000000020600000000002060000000000204000000000020500000000002040000000000204000000000020600010000000000000001300000000000000266700000000000000009999123100000010000000000000BRATOMACNOR1106
012024082202AURE3       010AUREN       ON      NM   R$  000000000116100000000011610000000001148000000000115100000000011540000000001150000000000115407346000000000003064500000000003529807200000000000000009999123100000010000000000000BRAUREACNOR9104
012024082202AVLL3       010ALPHAVILLE  ON      NM   R$  000000000039500000000003980000000000395000000000039500000000003980000000000382000000000039800004000000000000002900000000000001146100000000000000009999123100000010000000000000BRAVLLACNOR5103
012024082202AZEV3       010AZEVEDO     ON           R$  000000000014400000000001520000000000141000000000014800000000001420000000000142000000000014500525000000000000639700000000000094824800000000000000009999123100000010000000000000BRAZEVACNOR0121
012024082202AZEV4       010AZEVEDO     PN           R$  000000000014100000000001520000000000141000000000014600000000001470000000000144000000000014701193000000000003692200000000000540769500000000000000009999123100000010000000000000BRAZEVACNPR7121
012024082202AZUL4       010AZUL        PN      N2   R$  000000000077900000000007790000000000741000000000075300000000007450000000000744000000000074510512000000000017954800000000013522524500000000000000009999123100000010000000000000BRAZULACNPR4102
012024082202CBAV3       010CBA         ON      NM   R$  000000000053500000000005370000000000515000000000052100000000005210000000000521000000000052204069000000000002588300000000001349851000000000000000009999123100000010000000000000BRCBAVACNOR5104
012024082202RCSL4       010RECRUSUL    PN           R$  000000000008500000000000850000000000082000000000008300000000000830000000000082000000000008300233000000000000095100000000000007925400000000000000009999123100000010000000000000BRRCSLACNPR1134
012024082202RDNI3       010RNI         ON      NM   R$  000000000031900000000003250000000000315000000000031800000000003240000000000317000000000032400019000000000000003800000000000001212000000000000000009999123100000010000000000000BRRDNIACNOR9116
012024082202RDOR3       010REDE D OR   ON      NM   R$  000000000333900000000033750000000003218000000000327600000000032310000000003231000000000323226145000000000007674900000000025145914500000000000000009999123100000010000000000000BRRDORACNOR8113
012024082202RECV3       010PETRORECSA  ON      NM   R$  000000000217600000000021770000000002103000000000211800000000021060000000002106000000000211304191000000000001121400000000002376245000000000000000009999123100000010000000000000BRRECVACNOR3107
012024082202SYNE3       010SYN PROP TECON  ED  NM   R$  000000000078000000000007890000000000771000000000077800000000007810000000000781000000000078601436000000000000579300000000000450975700000000000000009999123100000010000000000000BRSYNEACNOR2103
012024082202AALR3       010ALLIAR      ON      NM   R$  000000000155000000000015500000000001406000000000146600000000014300000000001420000000000143100317000000000000068700000000000100759900000000000000009999123100000010000000000000BRAALRACNOR6102
012024082202ABCB4       010ABC BRASIL  PN      N2   R$  000000000235100000000023550000000002325000000000233400000000023450000000002343000000000235503723000000000001883800000000004397457600000000000000009999123100000010000000000000BRABCBACNPR4146
012024082202ABEV3       010AMBEV S/A   ON           R$  000000000129500000000013030000000001291000000000129800000000013000000000001300000000000130137670000000000025724200000000033405617000000000000000009999123100000010000000000000BRABEVACNOR1128
012024082202SRNA3       010SERENA      ON      NM   R$  000000000089200000000009030000000000864000000000087400000000008750000000000870000000000087504204000000000001743700000000001525316800000000000000009999123100000010000000000000BRSRNAACNOR4100
012024082202STBP3       010SANTOS BRP  ON  EDJ NM   R$  000000000133900000000013390000000001259000000000129300000000012620000000001262000000000127032840000000000020261100000000026204265600000000000000009999123100000010000000000000BRSTBPACNOR3131
012024082202SUZB3       010SUZANO S.A. ON      NM   R$  000000000564400000000057090000000005601000000000564600000000056410000000005639000000000564319085000000000004154500000000023459852800000000000000009999123100000010000000000000BRSUZBACNOR0130
012024082202BMEB4       010MERCANTIL   PN      N1   R$  000000000382000000000038260000000003765000000000379400000000037650000000003765000000000380000043000000000000006900000000000026179300000000000000009999123100000010000000000000BRBMEBACNPR5211
012024082202BMGB4       010BANCO BMG   PN      N1   R$  000000000037600000000003800000000000371000000000037500000000003720000000000371000000000037200786000000000000318700000000000119587500000000000000009999123100000010000000000000BRBMGBACNPR0110
012024082202BMIN4       010MERC INVEST PN           R$  000000000169400000000016940000000001689000000000169100000000016890000000001600000000000167000002000000000000000200000000000000338300000000000000009999123100000010000000000000BRBMINACNPR1176
012024082202BMKS3       010BIC MONARK  ON           R$  000000003100400000000310060000000031000000000003100300000000310000000000030900000000003179900010000000000000000028000000000000868107000000000000009999123100000010000000000000BRBMKSACNOR9166
012024082202BMOB3       010BEMOBI TECH ON      NM   R$  000000000165400000000016540000000001585000000000160800000000016020000000001584000000000160201412000000000000237200000000000381538700000000000000009999123100000010000000000000BRBMOBACNOR7103
012024082202BNBR3       010NORD BRASIL ON           R$  000000001060000000000113870000000010600000000001088400000000111500000000010401000000001115000007000000000000000800000000000008707400000000000000009999123100000010000000000000BRBNBRACNOR8208
012024082202BOBR4       010BOMBRIL     PN           R$  000000000021500000000002160000000000209000000000021300000000002130000000000213000000000021600038000000000000028400000000000006073800000000000000009999123100000010000000000000BRBOBRACNPR3128
012024082202ZAMP3       010ZAMP S.A.   ON           R$  000000000034800000000003480000000000339000000000034300000000003440000000000343000000000034401756000000000000447200000000000153548900000000000000009999123100000010000000000000BRZAMPACNOR5101
012024082202BRBI11      010BR PARTNERS UNT ED  N2   R$  000000000150600000000015120000000001495000000000150200000000014970000000001496000000000149901706000000000000325700000000000489294500000000000000009999123100000010000000000000BRBRBICDAM10110
012024082202BRFS3       010BRF SA      ON      NM   R$  000000000261200000000026330000000002552000000000258600000000025710000000002571000000000257216152000000000005244800000000013563545700000000000000009999123100000010000000000000BRBRFSACNOR8122
012024082202CSNA3       010SID NACIONALON           R$  000000000123000000000012370000000001213000000000122000000000012130000000001213000000000121509876000000000005546100000000006771730800000000000000009999123100000010000000000000BRCSNAACNOR6261
012024082202CSRN3       010COSERN      ON           R$  000000000131000000000013280000000001299000000000130700000000013000000000001300000000000130800053000000000000012300000000000016082600000000000000009999123100000010000000000000BRCSRNACNOR0194
012024082202CSRN5       010COSERN      PNA          R$  000000000143100000000015000000000001431000000000144400000000015000000000001431000000000000000003000000000000000500000000000000722400000000000000009999123100000010000000000000BRCSRNACNPA3194
012024082202CSUD3       010CSU DIGITAL ON      NM   R$  000000000186000000000018620000000001842000000000185400000000018620000000001846000000000186300086000000000000011900000000000022062600000000000000009999123100000010000000000000BRCSUDACNOR5110
012024082202ITUB3       010ITAUUNIBANCOON      N1   R$  000000000319900000000032000000000003137000000000315600000000031780000000003170000000000317803550000000000000763900000000002410904300000000000000009999123100000010000000000000BRITUBACNOR4339
012024082202ITUB4       010ITAUUNIBANCOPN      N1   R$  000000000363200000000036750000000003630000000000365100000000036740000000003668000000000367542571000000000021460900000000078371018500000000000000009999123100000010000000000000BRITUBACNPR1339
012024082202MDNE3       010MOURA DUBEUXON      NM   R$  000000000147600000000014760000000001425000000000144800000000014530000000001453000000000146301824000000000000376200000000000545092500000000000000009999123100000010000000000000BRMDNEACNOR9100
012024082202MEAL3       010IMC S/A     ON      NM   R$  000000000016700000000001670000000000159000000000016300000000001620000000000159000000000016200326000000000000571500000000000093451000000000000000009999123100000010000000000000BRMEALACNOR9105
012024082202MELK3       010MELNICK     ON      NM   R$  000000000034000000000003430000000000330000000000033300000000003370000000000337000000000033800639000000000002175200000000000725177400000000000000009999123100000010000000000000BRMELKACNOR8111
012024082202MGEL4       010MANGELS INDLPN           R$  000000000115100000000011510000000001150000000000115000000000011510000000001150000000000115700009000000000000007000000000000008056300000000000000009999123100000010000000000000BRMGELACNPR3147
012024082202MGLU3       010MAGAZ LUIZA ON      NM   R$  000000000137000000000013840000000001312000000000133600000000013180000000001318000000000131918228000000000016215500000000021665494300000000000000009999123100000010000000000000BRMGLUACNOR2124
012024082202NEOE3       010NEOENERGIA  ON      NM   R$  000000000194000000000019530000000001927000000000193700000000019410000000001926000000000194103334000000000000788600000000001528274000000000000000009999123100000010000000000000BRNEOEACNOR3123
012024082202CTKA4       010KARSTEN     PN           R$  000000000186000000000018600000000001860000000000186000000000018600000000001700000000000186000001000000000000000100000000000000186000000000000000009999123100000010000000000000BRCTKAACNPR7043
012024082202CURY3       010CURY S/A    ON      NM   R$  000000000238700000000024170000000002318000000000234600000000023200000000002320000000000233007916000000000001673100000000003926140200000000000000009999123100000010000000000000BRCURYACNOR3109
012024082202CVCB3       010CVC BRASIL  ON      NM   R$  000000000022900000000002350000000000210000000000022200000000002150000000000214000000000021519989000000000033463400000000007445403900000000000000009999123100000010000000000000BRCVCBACNOR1116
012024082202ELMD3       010ELETROMIDIA ON      NM   R$  000000000186300000000018630000000001777000000000179600000000017960000000001770000000000179600583000000000000096300000000000172962000000000000000009999123100000010000000000000BRELMDACNOR3101
012024082202EMAE4       010EMAE        PN           R$  000000000415600000000041560000000004096000000000411100000000041200000000004120000000000414400024000000000000006000000000000024668900000000000000009999123100000010000000000000BREMAEACNPR1125
012024082202EMBR3       010EMBRAER     ON      NM   R$  000000000454500000000046140000000004535000000000458100000000046000000000004599000000000460024945000000000006118400000000028031415300000000000000009999123100000010000000000000BREMBRACNOR4191
012024082202IFCM3       010INFRACOMM   ON      NM   R$  000000000002000000000000210000000000018000000000001800000000000180000000000018000000000001902207000000000028202300000000000521328900000000000000009999123100000010000000000000BRIFCMACNOR8101
012024082202NGRD3       010NEOGRID     ON      NM   R$  000000000012800000000001330000000000124000000000012900000000001320000000000129000000000013201593000000000001535900000000000198279200000000000000009999123100000010000000000000BRNGRDACNOR3104
012024082202NINJ3       010GETNINJAS   ON      NM   R$  000000000046500000000004700000000000462000000000046600000000004700000000000454000000000047700016000000000000004900000000000002285400000000000000009999123100000010000000000000BRNINJACNOR5101
012024082202NTCO3       010GRUPO NATURAON      NM   R$  000000000137900000000013920000000001324000000000134400000000013380000000001337000000000133916253000000000007941300000000010676387000000000000000009999123100000010000000000000BRNTCOACNOR5106
012024082202PTNT3       010PETTENATI   ON           R$  000000000087900000000009080000000000872000000000088200000000008860000000000862000000000088800024000000000000002600000000000002293600000000000000009999123100000010000000000000BRPTNTACNOR6042
012024082202PTNT4       010PETTENATI   PN           R$  000000000062500000000006300000000000614000000000062200000000006150000000000615000000000062400025000000000000008700000000000005413600000000000000009999123100000010000000000000BRPTNTACNPR3047
012024082202KRSA3       010KORA SAUDE  ON      NM   R$  000000000005700000000000570000000000056000000000005600000000000570000000000056000000000005700096000000000000106400000000000006015000000000000000009999123100000010000000000000BRKRSAACNOR0100
012024082202LAND3       010TERRASANTAPAON      NM   R$  000000000126700000000012730000000001235000000000125300000000012730000000001273000000000127600135000000000000024200000000000030339200000000000000009999123100000010000000000000BRLANDACNOR9103
012024082202LAVV3       010LAVVI       ON  ED  NM   R$  000000000086900000000008710000000000846000000000085500000000008530000000000852000000000085402109000000000000606000000000000518541300000000000000009999123100000010000000000000BRLAVVACNOR4113
012024082202LEVE3       010METAL LEVE  ON      NM   R$  000000000314400000000031480000000003080000000000309600000000030800000000003080000000000309302721000000000000470200000000001455987400000000000000009999123100000010000000000000BRLEVEACNOR2197
012024082202DOTZ3       010DOTZ SA     ON      NM   R$  000000000088000000000008940000000000845000000000086000000000008520000000000844000000000085200056000000000000022700000000000019538600000000000000009999123100000010000000000000BRDOTZACNOR7101
012024082202DTCY3       010DTCOM-DIRECTON           R$  000000000048100000000004900000000000450000000000046500000000004580000000000458000000000049500024000000000000005900000000000002747200000000000000009999123100000010000000000000BRDTCYACNOR5109
012024082202DXCO3       010DEXCO       ON      NM   R$  000000000080800000000008190000000000794000000000080000000000008030000000000800000000000080404501000000000002010600000000001609485000000000000000009999123100000010000000000000BRDXCOACNOR8105
012024082202EALT3       010ACO ALTONA  ON           R$  000000000139000000000013900000000001305000000000132900000000013200000000001320000000000133900063000000000000007700000000000010235400000000000000009999123100000010000000000000BREALTACNOR4138
012024082202EALT4       010ACO ALTONA  PN           R$  000000000132000000000013380000000001290000000000131100000000013290000000001315000000000132900072000000000000017400000000000022827800000000000000009999123100000010000000000000BREALTACNPR1138
012024082202ECOR3       010ECORODOVIAS ON      NM   R$  000000000076600000000007720000000000734000000000074400000000007370000000000737000000000073906705000000000003913700000000002913951800000000000000009999123100000010000000000000BRECORACNOR8120
012024082202GGPS3       010GPS         ON      NM   R$  000000000176900000000017690000000001722000000000173500000000017390000000001730000000000174004517000000000001884500000000003269631300000000000000009999123100000010000000000000BRGGPSACNOR9103
012024082202BIOM3       010BIOMM       ON      MA   R$  000000000086000000000009000000000000837000000000086900000000008570000000000856000000000085700739000000000000209800000000000182482300000000000000009999123100000010000000000000BRBIOMACNOR2112
012024082202GMAT3       010GRUPO MATEUSON      NM   R$  000000000079200000000008010000000000776000000000078500000000007870000000000784000000000078706068000000000002063600000000001620624100000000000000009999123100000010000000000000BRGMATACNOR7102
012024082202GOAU3       010GERDAU MET  ON      N1   R$  000000000108800000000010880000000001057000000000106400000000010690000000001065000000000106900127000000000000038000000000000040440700000000000000009999123100000010000000000000BRGOAUACNOR1268
012024082202GOAU4       010GERDAU MET  PN      N1   R$  000000000106100000000010660000000001041000000000104900000000010510000000001050000000000105207151000000000005119600000000005374951600000000000000009999123100000010000000000000BRGOAUACNPR8269
012024082202GRND3       010GRENDENE    ON  ED  NM   R$  000000000062500000000006270000000000610000000000061500000000006150000000000615000000000061802760000000000000799600000000000492533600000000000000009999123100000010000000000000BRGRNDACNOR3175
012024082202SANB11      010SANTANDER BRUNT          R$  000000000310000000000031070000000003071000000000309000000000030970000000003089000000000310209007000000000003273900000000010119361500000000000000009999123100000010000000000000BRSANBCDAM13165
012024082202SANB3       010SANTANDER BRON           R$  000000000146000000000014810000000001453000000000146900000000014700000000001470000000000147300881000000000000118300000000000173874100000000000000009999123100000010000000000000BRSANBACNOR8172
012024082202SANB4       010SANTANDER BRPN           R$  000000000162200000000016270000000001598000000000161400000000016130000000001612000000000161301131000000000000206400000000000333186100000000000000009999123100000010000000000000BRSANBACNPR5172
012024082202UCAS3       010UNICASA     ON      NM   R$  000000000022900000000002310000000000225000000000022800000000002290000000000227000000000023000129000000000000022700000000000005184900000000000000009999123100000010000000000000BRUCASACNOR1113
012024082202UGPA3       010ULTRAPAR    ON  ED  NM   R$  000000000238900000000023930000000002354000000000236800000000023590000000002358000000000236518051000000000005179900000000012271125300000000000000009999123100000010000000000000BRUGPAACNOR8156
012024082202UNIP3       010UNIPAR      ON           R$  000000000480100000000048860000000004765000000000479900000000047650000000004765000000000480000059000000000000011700000000000056149000000000000000009999123100000010000000000000BRUNIPACNOR7206
012024082202UNIP5       010UNIPAR      PNA          R$  000000000499800000000049980000000004998000000000499800000000049980000000004803000000000499900001000000000000000100000000000000499800000000000000009999123100000010000000000000BRUNIPACNPA0208
012024082202UNIP6       010UNIPAR      PNB          R$  000000000496000000000049630000000004845000000000487500000000048500000000004850000000000485501258000000000000174500000000000850845400000000000000009999123100000010000000000000BRUNIPACNPB8206
012024082202USIM3       010USIMINAS    ON      N1   R$  000000000065300000000006530000000000619000000000063000000000006200000000000620000000000062401269000000000000466600000000000294175700000000000000009999123100000010000000000000BRUSIMACNOR3167
012024082202USIM5       010USIMINAS    PNA     N1   R$  000000000066500000000006700000000000638000000000065100000000006410000000000641000000000064214165000000000015307100000000009968772900000000000000009999123100000010000000000000BRUSIMACNPA6169
012024082202USIM6       010USIMINAS    PNB     N1   R$  000000000099000000000009900000000000990000000000099000000000009900000000000990000000000118000001000000000000000100000000000000099000000000000000009999123100000010000000000000BRUSIMACNPB4169
012024082202WEGE3       010WEG         ON      NM   R$  000000000534500000000054780000000005345000000000543100000000054200000000005418000000000542026106000000000006979500000000037907754300000000000000009999123100000010000000000000BRWEGEACNOR0224
012024082202PFRM3       010PROFARMA    ON      NM   R$  000000000063700000000006450000000000599000000000061300000000006170000000000613000000000061700764000000000000230600000000000141502600000000000000009999123100000010000000000000BRPFRMACNOR1116
012024082202PGMN3       010PAGUE MENOS ON      NM   R$  000000000034300000000003450000000000323000000000032900000000003250000000000324000000000032501298000000000000689400000000000226991400000000000000009999123100000010000000000000BRPGMNACNOR8103
012024082202BGIP4       010BANESE      PN  EJ       R$  000000000240000000000024000000000002301000000000233000000000023010000000002300000000000232000016000000000000001600000000000003728900000000000000009999123100000010000000000000BRBGIPACNPR8209
012024082202BHIA3       010CASAS BAHIA ON      NM   R$  000000000061400000000006460000000000596000000000061600000000006220000000000622000000000062502880000000000003411500000000002104610200000000000000009999123100000010000000000000BRBHIAACNOR1102
012024082202BPAC11      010BTGP BANCO  UNT     N2   R$  000000000366000000000036770000000003602000000000363100000000036110000000003610000000000361817852000000000006235700000000022646664900000000000000009999123100000010000000000000BRBPACUNT006119
012024082202BPAC3       010BTGP BANCO  ON      N2   R$  000000000171000000000017100000000001670000000000168500000000016700000000001548000000000168500026000000000000003500000000000005899000000000000000009999123100000010000000000000BRBPACACNOR7134
012024082202ROMI3       010ROMI        ON      NM   R$  000000000111600000000011200000000001090000000000109900000000010950000000001090000000000109500603000000000000101000000000000111015700000000000000009999123100000010000000000000BRROMIACNOR8195
012024082202RPAD3       010ALFA HOLDINGON           R$  000000000094000000000009400000000000900000000000093000000000009000000000000901000000000094000002000000000000000400000000000000372000000000000000009999123100000010000000000000BRRPADACNOR1198
012024082202RPAD5       010ALFA HOLDINGPNA ED       R$  000000000088500000000008850000000000870000000000087400000000008700000000000870000000000088400005000000000000005000000000000004371000000000000000009999123100000010000000000000BRRPADACNPA4219
012024082202RRRP3       0103R PETROLEUMON      NM   R$  000000000277000000000027740000000002700000000000271500000000027040000000002703000000000270410973000000000003520100000000009558110100000000000000009999123100000010000000000000BRRRRPACNOR5103
012024082202TOTS3       010TOTVS       ON      NM   R$  000000000312000000000031390000000003048000000000307700000000030570000000003056000000000305708457000000000001892300000000005822923500000000000000009999123100000010000000000000BRTOTSACNOR8145
012024082202TPIS3       010TRIUNFO PARTON      NM   R$  000000000043100000000004700000000000426000000000045500000000004550000000000454000000000045500446000000000000175600000000000079922700000000000000009999123100000010000000000000BRTPISACNOR8118
012024082202TRAD3       010TC          ON      NM   R$  000000000037500000000003790000000000355000000000036200000000003550000000000354000000000035500219000000000000159700000000000057882900000000000000009999123100000010000000000000BRTRADACNOR3102
012024082202TRIS3       010TRISUL      ON      NM   R$  000000000048200000000004860000000000464000000000047000000000004640000000000464000000000046701115000000000000384000000000000180698500000000000000009999123100000010000000000000BRTRISACNOR4118
012024082202TRPL3       010TRAN PAULISTON      N1   R$  000000000321600000000032530000000003205000000000322700000000032360000000003202000000000323600034000000000000006200000000000020009000000000000000009999123100000010000000000000BRTRPLACNOR4185
012024082202TRPL4       010TRAN PAULISTPN      N1   R$  000000000249800000000025110000000002473000000000249300000000025020000000002491000000000250207208000000000001885200000000004700391800000000000000009999123100000010000000000000BRTRPLACNPR1185
012024082202TTEN3       0103TENTOS     ON      NM   R$  000000000123100000000012480000000001204000000000121600000000012050000000001204000000000120505354000000000001125100000000001368451800000000000000009999123100000010000000000000BRTTENACNOR0103
012024082202TUPY3       010TUPY        ON      NM   R$  000000000279000000000027900000000002685000000000272400000000027270000000002725000000000273003369000000000000560700000000001527374600000000000000009999123100000010000000000000BRTUPYACNOR1184
012024082202BPAC5       010BTGP BANCO  PNA     N2   R$  000000000096200000000009660000000000947000000000095600000000009660000000000946000000000096700008000000000000001000000000000000956900000000000000009999123100000010000000000000BRBPACACNPA0134
012024082202CPFE3       010CPFL ENERGIAON      NM   R$  000000000337000000000033900000000003347000000000336800000000033660000000003356000000000336607699000000000001658800000000005588120400000000000000009999123100000010000000000000BRCPFEACNOR0137
012024082202CPLE3       010COPEL       ON      N2   R$  000000000095200000000009670000000000948000000000095400000000009530000000000952000000000095309790000000000010823900000000010329516100000000000000009999123100000010000000000000BRCPLEACNOR8149
012024082202CPLE5       010COPEL       PNA     N2   R$  000000000131900000000013260000000001319000000000132000000000013260000000001319000000000135000004000000000000000500000000000000660200000000000000009999123100000010000000000000BRCPLEACNPA1147
012024082202CPLE6       010COPEL       PNB     N2   R$  000000000106600000000010780000000001055000000000106200000000010610000000001060000000000106219167000000000012372000000000013147309600000000000000009999123100000010000000000000BRCPLEACNPB9146
012024082202SCAR3       010SAO CARLOS  ON      NM   R$  000000000234900000000023670000000002334000000000234900000000023670000000002290000000000236900044000000000000016500000000000038764900000000000000009999123100000010000000000000BRSCARACNOR7131
012024082202SEER3       010SER EDUCA   ON      NM   R$  000000000062300000000006250000000000598000000000060700000000005980000000000597000000000060103266000000000000466300000000000283286100000000000000009999123100000010000000000000BRSEERACNOR5119
012024082202SEQL3       010SEQUOIA LOG ON      NM   R$  000000000062200000000006400000000000587000000000061700000000006250000000000623000000000062501974000000000000991600000000000612194200000000000000009999123100000010000000000000BRSEQLACNOR2103
012024082202SHOW3       010TIME FOR FUNON      NM   R$  000000000011700000000001180000000000115000000000011500000000001170000000000115000000000011700201000000000000127000000000000014717500000000000000009999123100000010000000000000BRSHOWACNOR7105
012024082202SHUL4       010SCHULZ      PN           R$  000000000067100000000006730000000000654000000000066300000000006600000000000659000000000066101128000000000000262300000000000173911500000000000000009999123100000010000000000000BRSHULACNPR4156
012024082202SIMH3       010SIMPAR      ON      NM   R$  000000000068400000000006900000000000648000000000065800000000006480000000000648000000000064904859000000000003317000000000002185077900000000000000009999123100000010000000000000BRSIMHACNOR0107
012024082202YDUQ3       010YDUQS PART  ON      NM   R$  000000000101500000000010150000000000968000000000098400000000009680000000000968000000000097208198000000000004336400000000004270987600000000000000009999123100000010000000000000BRYDUQACNOR3105
012024082202MYPK3       010IOCHP-MAXIONON      NM   R$  000000000117800000000011780000000001144000000000115300000000011540000000001147000000000115403107000000000000813700000000000938264900000000000000009999123100000010000000000000BRMYPKACNOR7155
012024082202PRNR3       010PRINER      ON      NM   R$  000000000143100000000014890000000001387000000000142400000000014080000000001408000000000140901649000000000000593600000000000845580300000000000000009999123100000010000000000000BRPRNRACNOR4109
012024082202PSSA3       010PORTO SEGUROON      NM   R$  000000000332300000000033440000000003302000000000333000000000033370000000003337000000000333906433000000000001209700000000004028382000000000000000009999123100000010000000000000BRPSSAACNOR7155
012024082202PTBL3       010PORTOBELLO  ON      NM   R$  000000000050000000000005010000000000481000000000048800000000004820000000000482000000000048301874000000000000406500000000000198466000000000000000009999123100000010000000000000BRPTBLACNOR8132
012024082202B3SA3       010B3          ON      NM   R$  000000000128900000000012960000000001250000000000126500000000012540000000001254000000000125637286000000000043486300000000055025850900000000000000009999123100000010000000000000BRB3SAACNOR6133
012024082202CBEE3       010AMPLA ENERG ON           R$  000000000098000000000009800000000000980000000000098000000000009800000000000751000000000098000002000000000000000500000000000000490000000000000000009999123100000010000000000000BRCBEEACNOR3159
012024082202CCRO3       010CCR SA      ON      NM   R$  000000000135000000000013510000000001300000000000131500000000013000000000001299000000000130017844000000000010293800000000013545207800000000000000009999123100000010000000000000BRCCROACNOR2145
012024082202CEAB3       010CEA MODAS   ON      NM   R$  000000000098600000000009920000000000940000000000095600000000009440000000000944000000000094504215000000000002148900000000002054779200000000000000009999123100000010000000000000BRCEABACNOR1102
012024082202CEBR3       010CEB         ON           R$  000000000199600000000020000000000001975000000000199000000000019990000000001920000000000200000011000000000000001200000000000002388000000000000000009999123100000010000000000000BRCEBRACNOR5125
012024082202CEBR5       010CEB         PNA          R$  000000000167000000000016700000000001667000000000166800000000016670000000001666000000000167000005000000000000000700000000000001168100000000000000009999123100000010000000000000BRCEBRACNPA8124
012024082202CEBR6       010CEB         PNB          R$  000000000181000000000018120000000001785000000000179600000000017850000000001780000000000181200014000000000000002600000000000004672100000000000000009999123100000010000000000000BRCEBRACNPB6124
012024082202CEDO4       010CEDRO       PN      N1   R$  000000000244600000000024560000000002411000000000244800000000024550000000002411000000000245700005000000000000003600000000000008815400000000000000009999123100000010000000000000BRCEDOACNPR5128
012024082202CEEB3       010COELBA      ON           R$  000000000395000000000039700000000003950000000000396000000000039700000000003940000000000398000002000000000000000200000000000000792000000000000000009999123100000010000000000000BRCEEBACNOR3199
012024082202CGAS5       010COMGAS      PNA ED       R$  000000001155100000000116000000000011551000000001159500000000116000000000011600000000001170000002000000000000001200000000000013915100000000000000009999123100000010000000000000BRCGASACNPA3161
012024082202CGRA3       010GRAZZIOTIN  ON           R$  000000000254800000000025520000000002518000000000254200000000025390000000002511000000000257300006000000000000000600000000000001525700000000000000009999123100000010000000000000BRCGRAACNOR2083
012024082202CGRA4       010GRAZZIOTIN  PN           R$  000000000259100000000025910000000002529000000000254500000000025300000000002529000000000254200040000000000000006000000000000015270000000000000000009999123100000010000000000000BRCGRAACNPR9083
012024082202CIEL3       010CIELO       ON           R$  000000000058300000000005840000000000582000000000058200000000005830000000000582000000000058301394000000000006743700000000003929148300000000000000009999123100000010000000000000BRCIELACNOR3157
012024082202CLSA3       010CLEARSALE   ON      NM   R$  000000000078100000000007880000000000757000000000076800000000007600000000000760000000000076203002000000000001140800000000000877157400000000000000009999123100000010000000000000BRCLSAACNOR0100
012024082202CXSE3       010CAIXA SEGURION      NM   R$  000000000149300000000014940000000001467000000000147400000000014740000000001474000000000147511597000000000002720400000000004010547600000000000000009999123100000010000000000000BRCXSEACNOR7107
012024082202CYRE3       010CYRELA REALTON      NM   R$  000000000221000000000022150000000002142000000000216100000000021600000000002158000000000216020007000000000004775900000000010324349900000000000000009999123100000010000000000000BRCYREACNOR7140
012024082202FESA3       010FERBASA     ON      N1   R$  000000000135200000000013700000000001352000000000135500000000013700000000001371000000000145200004000000000000000600000000000000813000000000000000009999123100000010000000000000BRFESAACNOR8188
012024082202FESA4       010FERBASA     PN      N1   R$  000000000086000000000008600000000000846000000000085200000000008480000000000846000000000084901655000000000000453400000000000386484500000000000000009999123100000010000000000000BRFESAACNPR5084
012024082202FHER3       010FER HERINGERON      NM   R$  000000000041400000000004210000000000414000000000041900000000004200000000000420000000000042900007000000000000003700000000000001551700000000000000009999123100000010000000000000BRFHERACNOR5103
012024082202FIEI3       010FICA        ON           R$  000000000109900000000010990000000001099000000000109900000000010990000000000900000000000104500001000000000000000100000000000000109900000000000000009999123100000010000000000000BRFIEIACNOR2100
012024082202FIQE3       010UNIFIQUE    ON      NM   R$  000000000041000000000004100000000000390000000000039500000000003900000000000389000000000039001306000000000000357200000000000141306700000000000000009999123100000010000000000000BRFIQEACNOR5107
012024082202FLRY3       010FLEURY      ON  EJ  NM   R$  000000000160500000000016070000000001584000000000159100000000015950000000001589000000000159610236000000000003400200000000005410540800000000000000009999123100000010000000000000BRFLRYACNOR5139
012024082202FRAS3       010FRAS-LE     ON      N1   R$  000000000185300000000018570000000001807000000000182400000000018200000000001810000000000182002339000000000000492400000000000898597200000000000000009999123100000010000000000000BRFRASACNOR0160
012024082202FRIO3       010METALFRIO   ON      NM   R$  000000001746500000000174650000000017465000000001746500000000174650000000016553000000001890000001000000000000000100000000000001746500000000000000009999123100000010000000000000BRFRIOACNOR2111
012024082202BAHI3       010BAHEMA      ON      MA   R$  000000000072100000000007210000000000720000000000072000000000007200000000000672000000000072000002000000000000000400000000000000288200000000000000009999123100000010000000000000BRBAHIACNOR1074
012024082202BAZA3       010AMAZONIA    ON           R$  000000000963700000000096370000000009430000000000950600000000095590000000009559000000000961900014000000000000002200000000000020915200000000000000009999123100000010000000000000BRBAZAACNOR0179
012024082202BBAS3       010BRASIL      ON  EX  NM   R$  000000000286100000000028610000000002787000000000281100000000028010000000002801000000000280234116000000000016022900000000045041528400000000000000009999123100000010000000000000BRBBASACNOR3325
012024082202BEES3       010BANESTES    ON           R$  000000000090600000000009080000000000898000000000090300000000009010000000000898000000000090100059000000000000011700000000000010566300000000000000009999123100000010000000000000BRBEESACNOR9394
012024082202BEES4       010BANESTES    PN           R$  000000000097700000000009800000000000971000000000097700000000009770000000000972000000000097700018000000000000004200000000000004105000000000000000009999123100000010000000000000BRBEESACNPR6319
012024082202CAMB3       010CAMBUCI     ON  EDJ      R$  000000000122700000000012310000000001210000000000122200000000012240000000001215000000000122500131000000000000029900000000000036557200000000000000009999123100000010000000000000BRCAMBACNOR4131
012024082202CAML3       010CAMIL       ON      NM   R$  000000000093100000000009330000000000915000000000092300000000009240000000000923000000000092901360000000000000309700000000000285904000000000000000009999123100000010000000000000BRCAMLACNOR3128
012024082202CASH3       010MELIUZ      ON      NM   R$  000000000063900000000006390000000000631000000000063300000000006320000000000632000000000063401499000000000000462300000000000293021000000000000000009999123100000010000000000000BRCASHACNOR8106
012024082202EGIE3       010ENGIE BRASILON  ED  NM   R$  000000000460700000000046240000000004575000000000459300000000046010000000004600000000000460405482000000000000984600000000004523240300000000000000009999123100000010000000000000BREGIEACNOR9127
012024082202EKTR4       010ELEKTRO     PN           R$  000000000429900000000043150000000004152000000000423800000000041520000000004090000000000427500020000000000000002300000000000009748600000000000000009999123100000010000000000000BREKTRACNPR7164
012024082202ELET3       010ELETROBRAS  ON      N1   R$  000000000413100000000041310000000004081000000000410300000000040900000000004089000000000409420223000000000006652800000000027298195300000000000000009999123100000010000000000000BRELETACNOR6160
012024082202ELET6       010ELETROBRAS  PNB     N1   R$  000000000457000000000045820000000004506000000000455500000000045660000000004565000000000456706216000000000001678200000000007645846100000000000000009999123100000010000000000000BRELETACNPB7077
012024082202GUAR3       010GUARARAPES  ON      NM   R$  000000000089800000000008980000000000853000000000086400000000008650000000000862000000000086502053000000000000722300000000000624437800000000000000009999123100000010000000000000BRGUARACNOR4173
012024082202DESK3       010DESKTOP     ON      NM   R$  000000000159500000000016030000000001553000000000157600000000015580000000001557000000000156900506000000000000212800000000000335582000000000000000009999123100000010000000000000BRDESKACNOR2104
012024082202DEXP3       010DEXXOS PAR  ON      N1   R$  000000000097300000000009730000000000939000000000094800000000009420000000000941000000000094200507000000000000151100000000000143369600000000000000009999123100000010000000000000BRDEXPACNOR1105
012024082202DEXP4       010DEXXOS PAR  PN      N1   R$  000000000093300000000009350000000000930000000000093000000000009300000000000928000000000093000014000000000000007500000000000006978900000000000000009999123100000010000000000000BRDEXPACNPR8105
012024082202GGBR3       010GERDAU      ON      N1   R$  000000000162800000000016280000000001600000000000160700000000016040000000001603000000000161200189000000000000028800000000000046299400000000000000009999123100000010000000000000BRGGBRACNOR1193
012024082202GGBR4       010GERDAU      PN      N1   R$  000000000184400000000018480000000001807000000000182200000000018280000000001826000000000182816073000000000008155200000000014859697600000000000000009999123100000010000000000000BRGGBRACNPR8193
012024082202ASAI3       010ASSAI       ON      NM   R$  000000000098500000000010000000000000964000000000097500000000009750000000000974000000000097519496000000000016152200000000015749613000000000000000009999123100000010000000000000BRASAIACNOR0106
012024082202HAGA3       010HAGA S/A    ON           R$  000000000024000000000002420000000000235000000000024000000000002350000000000236000000000024100016000000000000009200000000000002212000000000000000009999123100000010000000000000BRHAGAACNOR7103
012024082202HAGA4       010HAGA S/A    PN           R$  000000000011700000000001170000000000115000000000011600000000001170000000000117000000000011800011000000000000003500000000000000408700000000000000009999123100000010000000000000BRHAGAACNPR4103
012024082202HAPV3       010HAPVIDA     ON      NM   R$  000000000045500000000004600000000000434000000000044100000000004370000000000436000000000043736202000000000041145300000000018168441900000000000000009999123100000010000000000000BRHAPVACNOR4114
012024082202HBOR3       010HELBOR      ON      NM   R$  000000000021500000000002160000000000210000000000021300000000002140000000000212000000000021400481000000000000764900000000000163225300000000000000009999123100000010000000000000BRHBORACNOR3118
012024082202HBRE3       010HBR REALTY  ON      NM   R$  000000000052200000000005230000000000504000000000051200000000005130000000000513000000000051900718000000000000391300000000000200487500000000000000009999123100000010000000000000BRHBREACNOR4100
012024082202HBSA3       010HIDROVIAS   ON      NM   R$  000000000038000000000003810000000000363000000000037300000000003810000000000379000000000038206582000000000002984400000000001113639400000000000000009999123100000010000000000000BRHBSAACNOR0100
012024082202HETA4       010HERCULES    PN           R$  000000000052100000000005210000000000521000000000052100000000005210000000000510000000000061700001000000000000000100000000000000052100000000000000009999123100000010000000000000BRHETAACNPR9136
012024082202QUAL3       010QUALICORP   ON      NM   R$  000000000019000000000001920000000000182000000000018400000000001820000000000182000000000018402046000000000002421200000000000446647100000000000000009999123100000010000000000000BRQUALACNOR6120
012024082202RADL3       010RAIADROGASILON      NM   R$  000000000281500000000028240000000002771000000000279300000000027900000000002785000000000279216982000000000005543700000000015486315400000000000000009999123100000010000000000000BRRADLACNOR0157
012024082202RAIL3       010RUMO S.A.   ON      NM   R$  000000000236100000000023840000000002310000000000233300000000023380000000002336000000000233830593000000000013105600000000030576553400000000000000009999123100000010000000000000BRRAILACNOR9105
012024082202JALL3       010JALLESMACHADON      NM   R$  000000000068800000000006920000000000668000000000067300000000006710000000000670000000000067101651000000000000559600000000000376860500000000000000009999123100000010000000000000BRJALLACNOR0106
012024082202JBSS3       010JBS         ON  ED  NM   R$  000000000366700000000036800000000003593000000000362200000000036210000000003608000000000362217275000000000004544000000000016460980900000000000000009999123100000010000000000000BRJBSSACNOR8122
012024082202MRVE3       010MRV         ON      NM   R$  000000000075300000000007540000000000715000000000072400000000007170000000000716000000000071716452000000000014758200000000010691817600000000000000009999123100000010000000000000BRMRVEACNOR2127
012024082202BEEF3       010MINERVA     ON      NM   R$  000000000078900000000007940000000000767000000000077600000000007750000000000774000000000077509036000000000008206600000000006373084200000000000000009999123100000010000000000000BRBEEFACNOR6116
012024082202COCE5       010COELCE      PNA          R$  000000000314000000000031690000000003107000000000315200000000031390000000003110000000000314000040000000000000013000000000000040985500000000000000009999123100000010000000000000BRCOCEACNPA3147
012024082202COGN3       010COGNA ON    ON  ATZ NM   R$  000000000013800000000001390000000000133000000000013500000000001330000000000133000000000013418841000000000032994300000000004456030300000000000000009999123100000010000000000000BRCOGNACNOR2105
012024082202DIRR3       010DIRECIONAL  ON      NM   R$  000000000293200000000029320000000002783000000000281700000000028080000000002796000000000280808788000000000001813200000000005108032500000000000000009999123100000010000000000000BRDIRRACNOR0118
012024082202DMVF3       010D1000VFARMA ON      NM   R$  000000000074900000000007560000000000735000000000074600000000007460000000000737000000000074600188000000000000062300000000000046504300000000000000009999123100000010000000000000BRDMVFACNOR9100
012024082202DOHL4       010DOHLER      PN           R$  000000000044000000000004400000000000405000000000041400000000004170000000000417000000000042200018000000000000003700000000000001533000000000000000009999123100000010000000000000BRDOHLACNPR9066
012024082202ESPA3       010ESPACOLASER ON      NM   R$  000000000010500000000001050000000000103000000000010400000000001040000000000103000000000010400277000000000000230000000000000023947000000000000000009999123100000010000000000000BRESPAACNOR7103
012024082202ESTR4       010ESTRELA     PN           R$  000000000020900000000002090000000000209000000000020900000000002090000000000203000000000020900001000000000000000100000000000000020900000000000000009999123100000010000000000000BRESTRACNPR0144
012024082202ETER3       010ETERNIT     ON      NM   R$  000000000061200000000006120000000000589000000000059600000000005900000000000590000000000059600611000000000000245100000000000146229600000000000000009999123100000010000000000000BRETERACNOR3244
012024082202EUCA3       010EUCATEX     ON      N1   R$  000000000172000000000017200000000001667000000000169300000000016670000000001665000000000172000002000000000000000200000000000000338700000000000000009999123100000010000000000000BREUCAACNOR1157
012024082202EUCA4       010EUCATEX     PN      N1   R$  000000000159000000000015900000000001540000000000155100000000015420000000001542000000000155200319000000000000051200000000000079459900000000000000009999123100000010000000000000BREUCAACNPR8044
012024082202EVEN3       010EVEN        ON      NM   R$  000000000066400000000006640000000000635000000000064100000000006370000000000637000000000064201812000000000000410400000000000263154500000000000000009999123100000010000000000000BREVENACNOR8119
012024082202EZTC3       010EZTEC       ON      NM   R$  000000000144500000000014520000000001385000000000140400000000013850000000001385000000000138804996000000000001387900000000001948829400000000000000009999123100000010000000000000BREZTCACNOR0126
012024082202ITSA3       010ITAUSA      ON      N1   R$  000000000110200000000011020000000001085000000000109100000000010920000000001092000000000109500298000000000000076500000000000083489400000000000000009999123100000010000000000000BRITSAACNOR0441
012024082202ITSA4       010ITAUSA      PN      N1   R$  000000000109000000000010960000000001083000000000109000000000010960000000001095000000000109727715000000000018736700000000020429977200000000000000009999123100000010000000000000BRITSAACNPR7441
012024082202LUPA3       010LUPATECH    ON      NM   R$  000000000016000000000001630000000000156000000000015800000000001580000000000158000000000015900167000000000000103900000000000016445000000000000000009999123100000010000000000000BRLUPAACNOR8112
012024082202SMTO3       010SAO MARTINHOON      NM   R$  000000000296800000000029680000000002865000000000289700000000029090000000002906000000000291004482000000000000929100000000002691959800000000000000009999123100000010000000000000BRSMTOACNOR3127
012024082202SNSY3       010SANSUY      ON           R$  000000000126000000000012990000000001256000000000127300000000012700000000001245000000000128000011000000000000005100000000000006494300000000000000009999123100000010000000000000BRSNSYACNOR2113
012024082202SNSY5       010SANSUY      PNA          R$  000000000056100000000005700000000000555000000000056800000000005610000000000550000000000056100010000000000000011000000000000006248400000000000000009999123100000010000000000000BRSNSYACNPA5111
012024082202SOJA3       010BOA SAFRA   ON      NM   R$  000000000134900000000013490000000001276000000000130000000000012760000000001276000000000128103921000000000000991800000000001289376600000000000000009999123100000010000000000000BRSOJAACNOR9105
012024082207NUTR3       010NUTRIPLANT  ON      MA   R$  000000000048800000000004880000000000446000000000046400000000004690000000000453000000000046800061000000000000015800000000000007346000000000000000009999123100000010000000000000BRNUTRACNOR0104
012024082207TXRX4       010TEX RENAUX  PN           R$  000000000022500000000002350000000000225000000000022800000000002350000000000226000000000023400003000000000000000300000000000000068500000000000000009999123100000010000000000000BRTXRXACNPR0142
012024082208PMAM3       010PARANAPANEMAON      NM   R$  000000000020700000000002070000000000196000000000019800000000001960000000000196000000000020000273000000000000227900000000000045219500000000000000009999123100000010000000000000BRPMAMACNOR3039
012024082208OIBR3       010OI          ON      N1   R$  000000000047000000000005160000000000464000000000048100000000004670000000000466000000000046702413000000000002034900000000000979204500000000000000009999123100000010000000000000BROIBRACNOR1111
012024082208OIBR4       010OI          PN      N1   R$  000000000125000000000013500000000001250000000000130000000000012530000000001253000000000126900082000000000000013000000000000016902600000000000000009999123100000010000000000000BROIBRACNPR8110
012024082208OSXB3       010OSX BRASIL  ON      NM   R$  000000000038200000000003860000000000381000000000038300000000003810000000000379000000000038500013000000000000002900000000000001113200000000000000009999123100000010000000000000BROSXBACNOR8109
012024082208HOOT4       010HOTEIS OTHONPN           R$  000000000023500000000002350000000000235000000000023500000000002350000000000225000000000023500009000000000000000900000000000000211500000000000000009999123100000010000000000000BRHOOTACNPR9015
012024082208JFEN3       010JOAO FORTES ON           R$  000000000002500000000000270000000000024000000000002400000000000240000000000023000000000002400329000000000002251000000000000055938200000000000000009999123100000010000000000000BRJFENACNOR0059
012024082208RSID3       010ROSSI RESID ON      NM   R$  000000000040000000000004130000000000365000000000039300000000003940000000000394000000000039800527000000000000111400000000000043835200000000000000009999123100000010000000000000BRRSIDACNOR8120
012024082208AMER3       010AMERICANAS  ON      NM   R$  000000000000800000000000090000000000007000000000000700000000000070000000000007000000000000817852000000000616418700000000004613325100000000000000009999123100000010000000000000BRAMERACNOR6102
012024082208NEXP3       010NEXPE       ON           R$  000000000041500000000004150000000000398000000000040300000000003980000000000400000000000041300006000000000000001100000000000000443800000000000000009999123100000010000000000000BRNEXPACNOR0101
012024082208CTSA3       010SANTANENSE  ON           R$  000000000028300000000002830000000000271000000000027200000000002710000000000265000000000027100002000000000000002300000000000000626900000000000000009999123100000010000000000000BRCTSAACNOR3062
012024082208CTSA4       010SANTANENSE  PN           R$  000000000013600000000001360000000000130000000000013100000000001330000000000133000000000013400064000000000000033300000000000004383000000000000000009999123100000010000000000000BRCTSAACNPR0062
012024082208LIGT3       010LIGHT S/A   ON      NM   R$  000000000065000000000006570000000000525000000000057500000000005820000000000579000000000058309570000000000004128800000000002376214200000000000000009999123100000010000000000000BRLIGTACNOR2124
012024082208RNEW11      010RENOVA      UNT     N2   R$  000000000032600000000003410000000000312000000000032400000000003120000000000312000000000032300061000000000000011500000000000003730600000000000000009999123100000010000000000000BRRNEWCDAM15110
012024082208RNEW3       010RENOVA      ON      N2   R$  000000000010400000000001120000000000102000000000010700000000001030000000000102000000000010400238000000000000188800000000000020205800000000000000009999123100000010000000000000BRRNEWACNOR8110
012024082208RNEW4       010RENOVA      PN      N2   R$  000000000010400000000001140000000000104000000000010800000000001040000000000104000000000010600386000000000000555200000000000060160100000000000000009999123100000010000000000000BRRNEWACNPR5110
012024082208RPMG3       010PET MANGUINHON           R$  000000000027800000000002830000000000277000000000027900000000002790000000000279000000000028000024000000000000004300000000000001202100000000000000009999123100000010000000000000BRRPMGACNOR9194
012024082208ATMP3       010ATMASA      ON           R$  000000000013300000000001360000000000133000000000013500000000001360000000000133000000000013500017000000000000022100000000000002997900000000000000009999123100000010000000000000BRATMPACNOR8100
012024082210EQTL1       010EQUATORIAL  DIR ORD NM   R$  000000000030000000000003300000000000250000000000026800000000002630000000000241000000000026300470000000000000151000000000000040537500000000000000009999123100000010000000000000BREQTLD04OR9130
012024082210RENT9       010LOCALIZA    ON  REC NM   R$  000000000433000000000043990000000004110000000000432200000000041100000000004110000000000421000301000000000000030100000000000130117000000000000000009999123100000010000000000000BRRENTR06OR8195
012024082210PDGR95      010PDG REALT   DIR     NM   R$  000000000000100000000000010000000000001000000000000100000000000010000000000000000000000000100022000000000000014174000000000000014174000000000000009999123100000010000000000000BRPDGRD03M17100
012024082210GFSA1       010GAFISA      DIR ORD NM   R$  000000000000400000000000040000000000002000000000000300000000000030000000000002000000000000300392000000000000942300000000000002911100000000000000009999123100000010000000000000BRGFSAD11OR7124
012024082210ZAMP1       010ZAMP S.A.   DIR ORD      R$  000000000000600000000000070000000000001000000000000500000000000040000000000004000000000000500314000000000001226400000000000006556400000000000000009999123100000010000000000000BRZAMPD01OR0100
012024082212WHGR11      010FII WHG REALCI           R$  000000000097400000000009740000000000966000000000096900000000009710000000000969000000000097100410000000000000026716000000000025899687000000000000009999123100000010000000000000BRWHGRCTF008127
012024082212WPLZ11      010FII W PLAZA CI           R$  000000000619700000000061970000000005881000000000597500000000058810000000005882000000000602600012000000000000000115000000000000687219000000000000009999123100000010000000000000BRWPLZCTF004268
012024082212WSEC11      010FII WARREN  CI           R$  000000000878600000000087890000000008496000000000874000000000087200000000008579000000000876400014000000000000000292000000000002552342000000000000009999123100000010000000000000BRWSECCTF010122
012024082212RBOP11      010FII MERC BR CI           R$  000000003580000000000368970000000035221000000003663600000000367960000000035315000000003679600029000000000000000083000000000003040859000000000000009999123100000010000000000000BRRBOPCTF009123
012024082212RBRD11      010FII RB II   CI           R$  000000000392200000000039500000000003919000000000392300000000039200000000003916000000000392000041000000000000000918000000000003601472000000000000009999123100000010000000000000BRRBRDCTF008265
012024082212RBRF11      010FII RBRALPHACI           R$  000000000076100000000007620000000000755000000000075700000000007580000000000756000000000075811285000000000000225570000000000170951245000000000000009999123100000010000000000000BRRBRFCTF003189
012024082212RBRL11      010FII RBR LOG CI           R$  000000000797000000000082400000000007920000000000808300000000081500000000008104000000000815002036000000000000013160000000000106372531000000000000009999123100000010000000000000BRRBRLCTF001156
012024082212RBRP11      010FII RBR PROPCI           R$  000000000580200000000058790000000005781000000000582500000000058320000000005828000000000583203288000000000000011019000000000064195146000000000000009999123100000010000000000000BRRBRPCTF002175
012024082212RBRR11      010FII RBRHGRADCI           R$  000000000905500000000091300000000009050000000000909500000000091110000000009105000000000911105151000000000000026372000000000239867895000000000000009999123100000010000000000000BRRBRRCTF008182
012024082212RBRS11      010FII RIOB RR CI           R$  000000000444600000000044700000000004400000000000445000000000044700000000004350000000000447000008000000000000000338000000000001504172000000000000009999123100000010000000000000BRRBRSCTF006138
012024082212RBRX11      010FII RBR MULTCI  ER       R$  000000000090700000000009070000000000904000000000090400000000009060000000000905000000000090606249000000000000061638000000000055761562000000000000009999123100000010000000000000BRRBRXCTF006131
012024082212RBRY11      010FII RBR PCRICI           R$  000000000958500000000096360000000009585000000000961100000000096340000000009607000000000963403758000000000000025066000000000240917992000000000000009999123100000010000000000000BRRBRYCTF004170
012024082212RBTS11      010FII RB TFO  CI           R$  000000007520000000000752000000000075200000000007520000000000752000000000070050000000007580000001000000000000000001000000000000075200000000000000009999123100000010000000000000BRRBTSCTF002118
012024082212RBVA11      010FII RIOB VA CI           R$  000000001058000000000106220000000010537000000001057900000000105810000000010581000000001059502424000000000000011166000000000118127573000000000000009999123100000010000000000000BRRBVACTF006167
012024082212RBVO11      010FII RIOBCRI2CI           R$  000000000165600000000017600000000001654000000000168000000000016800000000001680000000000169100265000000000000007752000000000013030618000000000000009999123100000010000000000000BRRBVOCTF007245
012024082212RCFA11      010FII GP RCFA CI           R$  000000000009700000000001000000000000091000000000009700000000000990000000000098000000000009900014000000000000000027000000000000002639000000000000009999123100000010000000000000BRRCFACTF007101
012024082212RCRB11      010FII RIOB RC CI           R$  000000001347800000000134780000000013367000000001340300000000134200000000013400000000001342001020000000000000004025000000000053949627000000000000009999123100000010000000000000BRRCRBCTF000159
012024082212PMIS11      010FII PMIS    CI           R$  000000000095000000000009520000000000926000000000094100000000009480000000000936000000000094800244000000000000016083000000000015141699000000000000009999123100000010000000000000BRPMISCTF006109
012024082212PORD11      010FII POLO CRICI           R$  000000000088500000000008850000000000880000000000088200000000008820000000000882000000000088305506000000000000103375000000000091179139000000000000009999123100000010000000000000BRPORDCTF005176
012024082212PQAG11      010FII PARQ ANHCI           R$  000000000587400000000059780000000005874000000000592600000000059780000000005905000000000597800002000000000000000002000000000000011852000000000000009999123100000010000000000000BRPQAGCTF009150
012024082212PQDP11      010FII D PEDRO CI           R$  000000019030400000001908990000000190303000000019050200000001903030000000190303000000019089900003000000000000000003000000000000571506000000000000009999123100000010000000000000BRPQDPCTF004273
012024082212BBFI11      010FII BB PROGRCI           R$  000000006250100000000634990000000062120000000006238200000000621220000000062121000000006284500068000000000000000175000000000010917020000000000000009999123100000010000000000000BRBBFICTF006329
012024082212NVHO11      010FII NOVOHORICI           R$  000000000126100000000013160000000001261000000000127800000000012620000000001280000000000131300009000000000000000038000000000000048590000000000000009999123100000010000000000000BRNVHOCTF003230
012024082212OCRE11      010FII OCTO    CI           R$  000000000980000000000098000000000009800000000000980000000000098000000000009800000000000996700001000000000000000080000000000000784000000000000000009999123100000010000000000000BROCRECTF001116
012024082212OUJP11      010FII OURI JPPCI           R$  000000000803300000000080770000000008000000000000802900000000080300000000008030000000000804900799000000000000004074000000000032710286000000000000009999123100000010000000000000BROUJPCTF006189
012024082212OULG11      010FII OURILOG CI           R$  000000000298500000000030330000000002984000000000299000000000029900000000002990000000000299900096000000000000000822000000000002458174000000000000009999123100000010000000000000BROULGCTF001153
012024082212PABY11      010FII PANAMBY CI           R$  000000000130100000000013010000000001300000000000130000000000013000000000001261000000000129800002000000000000000031000000000000040301000000000000009999123100000010000000000000BRPABYCTF012158
012024082212PATC11      010FII PATRIA  CI           R$  000000000360000000000036000000000003509000000000358000000000036000000000003567000000000365100069000000000000001420000000000005084902000000000000009999123100000010000000000000BRPATCCTF002172
012024082212PATL11      010FII PATLOGISCI           R$  000000000604700000000060500000000005999000000000601600000000060200000000006010000000000602001101000000000000014391000000000086578929000000000000009999123100000010000000000000BRPATLCTF003148
012024082212XPCI11      010FII XP CRED CI           R$  000000000879000000000088000000000008757000000000878100000000087700000000008770000000000879903676000000000000018148000000000159363476000000000000009999123100000010000000000000BRXPCICTF007159
012024082212XPCM11      010FII XP MACAECI           R$  000000000079900000000008000000000000778000000000079600000000008000000000000796000000000080000109000000000000002465000000000001962466000000000000009999123100000010000000000000BRXPCMCTF009230
012024082212XPIN11      010FII XP INDL CI           R$  000000000778000000000078400000000007742000000000778100000000078400000000007807000000000784000436000000000000005820000000000045288876000000000000009999123100000010000000000000BRXPINCTF004176
